{
	"data": {
		"bytecode": {
			"linkReferences": {
				"NewFraxProtocol/contracts/Frax/Pools/FraxPoolLibrary.sol": {
					"FraxPoolLibrary": [
						{
							"length": 20,
							"start": 10581
						},
						{
							"length": 20,
							"start": 11978
						},
						{
							"length": 20,
							"start": 12789
						},
						{
							"length": 20,
							"start": 20074
						},
						{
							"length": 20,
							"start": 22696
						},
						{
							"length": 20,
							"start": 22819
						}
					]
				}
			},
			"object": "60a06040525f6017555f601855611d4c6019556001601a555f601b5f6101000a81548160ff0219169083151502179055505f601b60016101000a81548160ff0219169083151502179055505f601b60026101000a81548160ff0219169083151502179055505f601b60036101000a81548160ff0219169083151502179055505f601b60046101000a81548160ff021916908315150217905550348015620000a4575f80fd5b5060405162008636380380620086368339818101604052810190620000ca919062000b4b565b825f73ffffffffffffffffffffffffffffffffffffffff168173ffffffffffffffffffffffffffffffffffffffff16036200013c576040517f08c379a0000000000000000000000000000000000000000000000000000000008152600401620001339062000c57565b60405180910390fd5b8060015f6101000a81548173ffffffffffffffffffffffffffffffffffffffff021916908373ffffffffffffffffffffffffffffffffffffffff1602179055507fb532073b38c83145e3e5135377a08bf9aab55bc0fd7c1179cd4fb995d2a5159c5f82604051620001af92919062000c88565b60405180910390a1505f73ffffffffffffffffffffffffffffffffffffffff168773ffffffffffffffffffffffffffffffffffffffff16141580156200022157505f73ffffffffffffffffffffffffffffffffffffffff168673ffffffffffffffffffffffffffffffffffffffff1614155b80156200025a57505f73ffffffffffffffffffffffffffffffffffffffff168573ffffffffffffffffffffffffffffffffffffffff1614155b80156200029357505f73ffffffffffffffffffffffffffffffffffffffff168373ffffffffffffffffffffffffffffffffffffffff1614155b8015620002cc57505f73ffffffffffffffffffffffffffffffffffffffff168273ffffffffffffffffffffffffffffffffffffffff1614155b6200030e576040517f08c379a0000000000000000000000000000000000000000000000000000000008152600401620003059062000d01565b60405180910390fd5b8660095f6101000a81548173ffffffffffffffffffffffffffffffffffffffff021916908373ffffffffffffffffffffffffffffffffffffffff1602179055508560085f6101000a81548173ffffffffffffffffffffffffffffffffffffffff021916908373ffffffffffffffffffffffffffffffffffffffff16021790555083600a5f6101000a81548173ffffffffffffffffffffffffffffffffffffffff021916908373ffffffffffffffffffffffffffffffffffffffff1602179055508660055f6101000a81548173ffffffffffffffffffffffffffffffffffffffff021916908373ffffffffffffffffffffffffffffffffffffffff1602179055508560065f6101000a81548173ffffffffffffffffffffffffffffffffffffffff021916908373ffffffffffffffffffffffffffffffffffffffff1602179055508460045f6101000a81548173ffffffffffffffffffffffffffffffffffffffff021916908373ffffffffffffffffffffffffffffffffffffffff1602179055508160075f6101000a81548173ffffffffffffffffffffffffffffffffffffffff021916908373ffffffffffffffffffffffffffffffffffffffff1602179055508460035f6101000a81548173ffffffffffffffffffffffffffffffffffffffff021916908373ffffffffffffffffffffffffffffffffffffffff16021790555080601781905550620005be60035f9054906101000a900473ffffffffffffffffffffffffffffffffffffffff1673ffffffffffffffffffffffffffffffffffffffff1663313ce5676040518163ffffffff1660e01b8152600401602060405180830381865afa15801562000584573d5f803e3d5ffd5b505050506040513d601f19601f82011682018060405250810190620005aa919062000d5c565b60ff1660126200079460201b90919060201c565b60808181525050620005e85f801b620005dc620007e560201b60201c565b620007ec60201b60201c565b6200063b7fc65532185ed70b2e999433e2e9fac124e083acb13ec183a4e05944da0792337b60075f9054906101000a900473ffffffffffffffffffffffffffffffffffffffff166200080260201b60201c565b6200068e7fa84a5389ad41f9aab0831b01e5384cae76e7a7fd09131c206ff7927c201c385760075f9054906101000a900473ffffffffffffffffffffffffffffffffffffffff166200080260201b60201c565b620006e17f8118eeb5231a5fe4008a55b62860f6a0db4f6c3ac04f8141927a9b3fedd86d2f60075f9054906101000a900473ffffffffffffffffffffffffffffffffffffffff166200080260201b60201c565b620007347f103da79ff3755ff7a17a557d28b73d37cb4de0b3c3cc02fa6c48df0f35071fbf60075f9054906101000a900473ffffffffffffffffffffffffffffffffffffffff166200080260201b60201c565b620007877fbb2c68b8dc5bccdd2536307080a7865a7e133bf54e31d4d463b1b749b4bcf26d60075f9054906101000a900473ffffffffffffffffffffffffffffffffffffffff166200080260201b60201c565b5050505050505062000f2d565b5f620007dd83836040518060400160405280601e81526020017f536166654d6174683a207375627472616374696f6e206f766572666c6f7700008152506200088e60201b60201c565b905092915050565b5f33905090565b620007fe8282620008f560201b60201c565b5050565b620008365f808481526020019081526020015f20600201546200082a620007e560201b60201c565b6200099060201b60201c565b62000878576040517f08c379a00000000000000000000000000000000000000000000000000000000081526004016200086f9062000e00565b60405180910390fd5b6200088a8282620008f560201b60201c565b5050565b5f838311158290620008d8576040517f08c379a0000000000000000000000000000000000000000000000000000000008152600401620008cf919062000ea4565b60405180910390fd5b505f8385620008e8919062000ef3565b9050809150509392505050565b6200091b815f808581526020019081526020015f205f01620009bf60201b90919060201c565b156200098c5762000931620007e560201b60201c565b73ffffffffffffffffffffffffffffffffffffffff168173ffffffffffffffffffffffffffffffffffffffff16837f2f8788117e7eff1d82e926ec794901d17c78024a50270940304540a733656f0d60405160405180910390a45b5050565b5f620009b7825f808681526020019081526020015f205f01620009ee60201b90919060201c565b905092915050565b5f620009e6835f018360601b6bffffffffffffffffffffffff191662000a1d60201b60201c565b905092915050565b5f62000a15835f018360601b6bffffffffffffffffffffffff191662000a8e60201b60201c565b905092915050565b5f62000a30838362000a8e60201b60201c565b62000a8457825f0182908060018154018082558091505060019003905f5260205f20015f9091909190915055825f0180549050836001015f8481526020019081526020015f20819055506001905062000a88565b5f90505b92915050565b5f80836001015f8481526020019081526020015f20541415905092915050565b5f80fd5b5f73ffffffffffffffffffffffffffffffffffffffff82169050919050565b5f62000add8262000ab2565b9050919050565b62000aef8162000ad1565b811462000afa575f80fd5b50565b5f8151905062000b0d8162000ae4565b92915050565b5f819050919050565b62000b278162000b13565b811462000b32575f80fd5b50565b5f8151905062000b458162000b1c565b92915050565b5f805f805f805f60e0888a03121562000b695762000b6862000aae565b5b5f62000b788a828b0162000afd565b975050602062000b8b8a828b0162000afd565b965050604062000b9e8a828b0162000afd565b955050606062000bb18a828b0162000afd565b945050608062000bc48a828b0162000afd565b93505060a062000bd78a828b0162000afd565b92505060c062000bea8a828b0162000b35565b91505092959891949750929550565b5f82825260208201905092915050565b7f4f776e657220616464726573732063616e6e6f742062652030000000000000005f82015250565b5f62000c3f60198362000bf9565b915062000c4c8262000c09565b602082019050919050565b5f6020820190508181035f83015262000c708162000c31565b9050919050565b62000c828162000ad1565b82525050565b5f60408201905062000c9d5f83018562000c77565b62000cac602083018462000c77565b9392505050565b7f5a65726f206164647265737320646574656374656400000000000000000000005f82015250565b5f62000ce960158362000bf9565b915062000cf68262000cb3565b602082019050919050565b5f6020820190508181035f83015262000d1a8162000cdb565b9050919050565b5f60ff82169050919050565b62000d388162000d21565b811462000d43575f80fd5b50565b5f8151905062000d568162000d2d565b92915050565b5f6020828403121562000d745762000d7362000aae565b5b5f62000d838482850162000d46565b91505092915050565b7f416363657373436f6e74726f6c3a2073656e646572206d75737420626520616e5f8201527f2061646d696e20746f206772616e740000000000000000000000000000000000602082015250565b5f62000de8602f8362000bf9565b915062000df58262000d8c565b604082019050919050565b5f6020820190508181035f83015262000e198162000dda565b9050919050565b5f81519050919050565b5f5b8381101562000e4957808201518184015260208101905062000e2c565b5f8484015250505050565b5f601f19601f8301169050919050565b5f62000e708262000e20565b62000e7c818562000bf9565b935062000e8e81856020860162000e2a565b62000e998162000e54565b840191505092915050565b5f6020820190508181035f83015262000ebe818462000e64565b905092915050565b7f4e487b71000000000000000000000000000000000000000000000000000000005f52601160045260245ffd5b5f62000eff8262000b13565b915062000f0c8362000b13565b925082820390508181111562000f275762000f2662000ec6565b5b92915050565b6080516176b162000f855f395f8181610d6d01528181610f690152818161103b0152818161182301528181611d3401528181612231015281816135b501528181613c6501528181613f7101526152ac01526176b15ff3fe608060405234801561000f575f80fd5b5060043610610325575f3560e01c80637d55094d116101b6578063b235d46811610102578063cb73999f116100a0578063dca964081161007a578063dca96408146108cd578063f61adab2146108e9578063f7683bbc14610907578063fede5c9c1461092557610325565b8063cb73999f14610889578063d547741f146108a7578063daa50485146108c357610325565b8063c3355b8d116100dc578063c3355b8d146107ed578063c74ec56a1461080b578063c76417d714610829578063ca15c8731461085957610325565b8063b235d46814610797578063bdacb303146107b5578063bdb345cb146107d157610325565b80638baa4b9f1161016f5780639010d07c116101495780639010d07c146106e957806391d1485414610719578063a217fddf14610749578063abae2c4c1461076757610325565b80638baa4b9f1461068f5780638d2ac7a4146106ad5780638da5cb5b146106cb57610325565b80637d55094d146105f55780637e108af9146105ff5780637e4831d31461061b5780637f877f851461063957806383c7ded71461065757806388d42cf21461067357610325565b80634ebbe762116102755780636526a12a1161022e5780636f5db87f116102085780636f5db87f1461059557806379ba5097146105b15780637ad1f61b146105bb5780637b0461e9146105d757610325565b80636526a12a1461053d578063658445a81461055b5780636d2c56151461057757610325565b80634ebbe762146104a557806350c9ecd9146104c157806353a47bb7146104cb5780635bb87b42146104e95780635bd8266314610505578063645af53c1461052157610325565b8063248a9ca3116102e2578063373453f4116102bc578063373453f41461044157806342d15aec1461045f5780634c26203c146104695780634c6349341461048757610325565b8063248a9ca3146103d95780632f2ff15d1461040957806336568abe1461042557610325565b806308a7493d14610329578063101197c71461035957806312ace5a21461037757806315128425146103815780631627540c1461039f57806317284c94146103bb575b5f80fd5b610343600480360381019061033e9190615e17565b610943565b6040516103509190615e5a565b60405180910390f35b610361610958565b60405161036e9190615e5a565b60405180910390f35b61037f61095e565b005b610389610c30565b6040516103969190615e5a565b60405180910390f35b6103b960048036038101906103b49190615e17565b610c36565b005b6103c3610d3f565b6040516103d09190615e5a565b60405180910390f35b6103f360048036038101906103ee9190615ea6565b611146565b6040516104009190615ee0565b60405180910390f35b610423600480360381019061041e9190615ef9565b611162565b005b61043f600480360381019061043a9190615ef9565b6111d3565b005b610449611256565b6040516104569190615f92565b60405180910390f35b61046761127b565b005b61047161131f565b60405161047e9190615e5a565b60405180910390f35b61048f611325565b60405161049c9190615e5a565b60405180910390f35b6104bf60048036038101906104ba9190615fd5565b61132b565b005b6104c961148e565b005b6104d3611532565b6040516104e09190616081565b60405180910390f35b61050360048036038101906104fe919061609a565b611557565b005b61051f600480360381019061051a91906160ea565b611cdd565b005b61053b600480360381019061053691906160ea565b612104565b005b6105456125df565b6040516105529190615e5a565b60405180910390f35b610575600480360381019061057091906160ea565b6125e5565b005b61057f6129ae565b60405161058c9190616142565b60405180910390f35b6105af60048036038101906105aa91906160ea565b6129c1565b005b6105b9612fd7565b005b6105d560048036038101906105d0919061615b565b613184565b005b6105df613257565b6040516105ec9190615e5a565b60405180910390f35b6105fd61325d565b005b6106196004803603810190610614919061609a565b6132fe565b005b610623613be8565b6040516106309190616142565b60405180910390f35b610641613bfa565b60405161064e9190616142565b60405180910390f35b610671600480360381019061066c91906160ea565b613c0d565b005b61068d60048036038101906106889190616186565b6142c1565b005b61069761446b565b6040516106a49190616081565b60405180910390f35b6106b5614490565b6040516106c29190616142565b60405180910390f35b6106d36144a3565b6040516106e09190616081565b60405180910390f35b61070360048036038101906106fe91906161c4565b6144c8565b6040516107109190616081565b60405180910390f35b610733600480360381019061072e9190615ef9565b6144f5565b6040516107409190616142565b60405180910390f35b610751614522565b60405161075e9190615ee0565b60405180910390f35b610781600480360381019061077c9190615e17565b614528565b60405161078e9190615e5a565b60405180910390f35b61079f61453d565b6040516107ac9190616142565b60405180910390f35b6107cf60048036038101906107ca9190615e17565b614550565b005b6107eb60048036038101906107e691906160ea565b6146b0565b005b6107f5614ce8565b6040516108029190615e5a565b60405180910390f35b610813614cee565b6040516108209190615e5a565b60405180910390f35b610843600480360381019061083e9190615e17565b614cf4565b6040516108509190615e5a565b60405180910390f35b610873600480360381019061086e9190615ea6565b614d09565b6040516108809190615e5a565b60405180910390f35b610891614d2b565b60405161089e9190615e5a565b60405180910390f35b6108c160048036038101906108bc9190615ef9565b614d31565b005b6108cb614da2565b005b6108e760048036038101906108e29190615e17565b614e46565b005b6108f1614f6f565b6040516108fe9190615e5a565b60405180910390f35b61090f615191565b60405161091c9190615e5a565b60405180910390f35b61092d61536c565b60405161093a9190615e5a565b60405180910390f35b6013602052805f5260405f205f915090505481565b60105481565b436109b1601a5460165f3373ffffffffffffffffffffffffffffffffffffffff1673ffffffffffffffffffffffffffffffffffffffff1681526020019081526020015f205461537290919063ffffffff16565b11156109f2576040517f08c379a00000000000000000000000000000000000000000000000000000000081526004016109e9906162a8565b60405180910390fd5b5f805f805f60125f3373ffffffffffffffffffffffffffffffffffffffff1673ffffffffffffffffffffffffffffffffffffffff1681526020019081526020015f20541115610add5760125f3373ffffffffffffffffffffffffffffffffffffffff1673ffffffffffffffffffffffffffffffffffffffff1681526020019081526020015f205491505f60125f3373ffffffffffffffffffffffffffffffffffffffff1673ffffffffffffffffffffffffffffffffffffffff1681526020019081526020015f2081905550610ad2826015546153cf90919063ffffffff16565b601581905550600193505b5f60135f3373ffffffffffffffffffffffffffffffffffffffff1673ffffffffffffffffffffffffffffffffffffffff1681526020019081526020015f20541115610bc45760135f3373ffffffffffffffffffffffffffffffffffffffff1673ffffffffffffffffffffffffffffffffffffffff1681526020019081526020015f205490505f60135f3373ffffffffffffffffffffffffffffffffffffffff1673ffffffffffffffffffffffffffffffffffffffff1681526020019081526020015f2081905550610bb9816014546153cf90919063ffffffff16565b601481905550600192505b8315610bf757610bf660085f9054906101000a900473ffffffffffffffffffffffffffffffffffffffff163384615418565b5b8215610c2a57610c2960035f9054906101000a900473ffffffffffffffffffffffffffffffffffffffff163383615418565b5b50505050565b601a5481565b60015f9054906101000a900473ffffffffffffffffffffffffffffffffffffffff1673ffffffffffffffffffffffffffffffffffffffff163373ffffffffffffffffffffffffffffffffffffffff1614610cc5576040517f08c379a0000000000000000000000000000000000000000000000000000000008152600401610cbc90616336565b60405180910390fd5b8060025f6101000a81548173ffffffffffffffffffffffffffffffffffffffff021916908373ffffffffffffffffffffffffffffffffffffffff1602179055507f906a1c6bd7e3091ea86693dd029a831c19049ce77f1dce2ce0bab1cacbabce2281604051610d349190616081565b60405180910390a150565b5f60011515601b60049054906101000a900460ff16151503610e7657610e6f620f4240610e61601854610e537f0000000000000000000000000000000000000000000000000000000000000000600a610d9891906164b0565b610e4560145460035f9054906101000a900473ffffffffffffffffffffffffffffffffffffffff1673ffffffffffffffffffffffffffffffffffffffff166370a08231306040518263ffffffff1660e01b8152600401610df89190616081565b602060405180830381865afa158015610e13573d5f803e3d5ffd5b505050506040513d601f19601f82011682018060405250810190610e37919061650e565b6153cf90919063ffffffff16565b61554890919063ffffffff16565b61554890919063ffffffff16565b6155bf90919063ffffffff16565b9050611143565b5f60095f9054906101000a900473ffffffffffffffffffffffffffffffffffffffff1673ffffffffffffffffffffffffffffffffffffffff1663345ba24b6040518163ffffffff1660e01b8152600401602060405180830381865afa158015610ee1573d5f803e3d5ffd5b505050506040513d601f19601f82011682018060405250810190610f05919061650e565b90505f600b5f9054906101000a900473ffffffffffffffffffffffffffffffffffffffff1673ffffffffffffffffffffffffffffffffffffffff16633ddac953600d5f9054906101000a900473ffffffffffffffffffffffffffffffffffffffff167f0000000000000000000000000000000000000000000000000000000000000000600a610f9491906164b0565b620f4240610fa29190616539565b6040518363ffffffff1660e01b8152600401610fbf92919061657a565b602060405180830381865afa158015610fda573d5f803e3d5ffd5b505050506040513d601f19601f82011682018060405250810190610ffe919061650e565b90505f6110298261101b620f42408661554890919063ffffffff16565b6155bf90919063ffffffff16565b905061113d620f424061112f836111217f0000000000000000000000000000000000000000000000000000000000000000600a61106691906164b0565b61111360145460035f9054906101000a900473ffffffffffffffffffffffffffffffffffffffff1673ffffffffffffffffffffffffffffffffffffffff166370a08231306040518263ffffffff1660e01b81526004016110c69190616081565b602060405180830381865afa1580156110e1573d5f803e3d5ffd5b505050506040513d601f19601f82011682018060405250810190611105919061650e565b6153cf90919063ffffffff16565b61554890919063ffffffff16565b61554890919063ffffffff16565b6155bf90919063ffffffff16565b93505050505b90565b5f805f8381526020019081526020015f20600201549050919050565b6111865f808481526020019081526020015f2060020154611181615608565b6144f5565b6111c5576040517f08c379a00000000000000000000000000000000000000000000000000000000081526004016111bc90616611565b60405180910390fd5b6111cf828261560f565b5050565b6111db615608565b73ffffffffffffffffffffffffffffffffffffffff168173ffffffffffffffffffffffffffffffffffffffff1614611248576040517f08c379a000000000000000000000000000000000000000000000000000000000815260040161123f9061669f565b60405180910390fd5b611252828261569f565b5050565b600a5f9054906101000a900473ffffffffffffffffffffffffffffffffffffffff1681565b6112a57f8118eeb5231a5fe4008a55b62860f6a0db4f6c3ac04f8141927a9b3fedd86d2f336144f5565b6112ad575f80fd5b601b60029054906101000a900460ff1615601b60026101000a81548160ff0219169083151502179055507f2fda313d9b5bb0b73bd003153f2fccbc0dca49791fdd1184dfad82b44f54bd2e601b60029054906101000a900460ff166040516113159190616142565b60405180910390a1565b60155481565b60195481565b60075f9054906101000a900473ffffffffffffffffffffffffffffffffffffffff1673ffffffffffffffffffffffffffffffffffffffff163373ffffffffffffffffffffffffffffffffffffffff1614806113d2575060015f9054906101000a900473ffffffffffffffffffffffffffffffffffffffff1673ffffffffffffffffffffffffffffffffffffffff163373ffffffffffffffffffffffffffffffffffffffff16145b611411576040517f08c379a000000000000000000000000000000000000000000000000000000000815260040161140890616707565b60405180910390fd5b866017819055508560198190555084601a8190555083600e8190555082600f8190555081601081905550806011819055507f17fe98b66d27bd793ea01bd8a23a54acab8eeb167d9eb016a0c7cd71c573920c8787878787878760405161147d9796959493929190616725565b60405180910390a150505050505050565b6114b87f103da79ff3755ff7a17a557d28b73d37cb4de0b3c3cc02fa6c48df0f35071fbf336144f5565b6114c0575f80fd5b601b60039054906101000a900460ff1615601b60036101000a81548160ff0219169083151502179055507f4f40fd1c59f78d7a2220da638cd9400daba01e57c7965702f390bf13133cc31f601b60039054906101000a900460ff166040516115289190616142565b60405180910390a1565b60025f9054906101000a900473ffffffffffffffffffffffffffffffffffffffff1681565b5f1515601b5f9054906101000a900460ff161515146115ab576040517f08c379a00000000000000000000000000000000000000000000000000000000081526004016115a2906167dc565b60405180910390fd5b5f60095f9054906101000a900473ffffffffffffffffffffffffffffffffffffffff1673ffffffffffffffffffffffffffffffffffffffff1663e7dced676040518163ffffffff1660e01b8152600401602060405180830381865afa158015611616573d5f803e3d5ffd5b505050506040513d601f19601f8201168201806040525081019061163a919061650e565b90505f60095f9054906101000a900473ffffffffffffffffffffffffffffffffffffffff1673ffffffffffffffffffffffffffffffffffffffff16632eb9771b6040518163ffffffff1660e01b8152600401602060405180830381865afa1580156116a7573d5f803e3d5ffd5b505050506040513d601f19601f820116820180604052508101906116cb919061650e565b9050620f4240811080156116de57505f81115b61171d576040517f08c379a00000000000000000000000000000000000000000000000000000000081526004016117149061686a565b60405180910390fd5b6017546117df866117d160145460035f9054906101000a900473ffffffffffffffffffffffffffffffffffffffff1673ffffffffffffffffffffffffffffffffffffffff166370a08231306040518263ffffffff1660e01b81526004016117849190616081565b602060405180830381865afa15801561179f573d5f803e3d5ffd5b505050506040513d601f19601f820116820180604052508101906117c3919061650e565b6153cf90919063ffffffff16565b61537290919063ffffffff16565b1115611820576040517f08c379a00000000000000000000000000000000000000000000000000000000081526004016118179061691e565b60405180910390fd5b5f7f0000000000000000000000000000000000000000000000000000000000000000600a61184e91906164b0565b866118599190616539565b90505f6040518060a00160405280858152602001611875615191565b81526020018781526020018381526020018481525090505f806118978361572f565b915091506118da620f42406118cc6118bd600e54620f42406153cf90919063ffffffff16565b8561554890919063ffffffff16565b6155bf90919063ffffffff16565b91508187111561191f576040517f08c379a000000000000000000000000000000000000000000000000000000000815260040161191690616986565b60405180910390fd5b87811115611962576040517f08c379a0000000000000000000000000000000000000000000000000000000008152600401611959906169ee565b60405180910390fd5b5f61198a606461197c60468561554890919063ffffffff16565b6155bf90919063ffffffff16565b90505f6119a082846153cf90919063ffffffff16565b90505f6119cb896119bd620f42408561554890919063ffffffff16565b6155bf90919063ffffffff16565b90505f73__$b67b8e7724a5279f1cfb4d029be7b3943f$__63ce032cc160095f9054906101000a900473ffffffffffffffffffffffffffffffffffffffff1673ffffffffffffffffffffffffffffffffffffffff166309795f3f6040518163ffffffff1660e01b8152600401602060405180830381865afa158015611a52573d5f803e3d5ffd5b505050506040513d601f19601f82011682018060405250810190611a76919061650e565b846040518363ffffffff1660e01b8152600401611a94929190616a1b565b602060405180830381865af4158015611aaf573d5f803e3d5ffd5b505050506040513d601f19601f82011682018060405250810190611ad3919061650e565b90505f8d905060085f9054906101000a900473ffffffffffffffffffffffffffffffffffffffff1673ffffffffffffffffffffffffffffffffffffffff1663a8a778ae33876040518363ffffffff1660e01b8152600401611b3592919061657a565b5f604051808303815f87803b158015611b4c575f80fd5b505af1158015611b5e573d5f803e3d5ffd5b50505050611b8f60035f9054906101000a900473ffffffffffffffffffffffffffffffffffffffff16333084615826565b60095f9054906101000a900473ffffffffffffffffffffffffffffffffffffffff1673ffffffffffffffffffffffffffffffffffffffff1663b4f56b2633896040518363ffffffff1660e01b8152600401611beb92919061657a565b5f604051808303815f87803b158015611c02575f80fd5b505af1158015611c14573d5f803e3d5ffd5b50505050600a5f9054906101000a900473ffffffffffffffffffffffffffffffffffffffff1673ffffffffffffffffffffffffffffffffffffffff166323b872dd3330611c6e633b9aca00876155bf90919063ffffffff16565b6040518463ffffffff1660e01b8152600401611c8c93929190616a42565b6020604051808303815f875af1158015611ca8573d5f803e3d5ffd5b505050506040513d601f19601f82011682018060405250810190611ccc9190616aa1565b505050505050505050505050505050565b5f1515601b5f9054906101000a900460ff16151514611d31576040517f08c379a0000000000000000000000000000000000000000000000000000000008152600401611d28906167dc565b60405180910390fd5b5f7f0000000000000000000000000000000000000000000000000000000000000000600a611d5f91906164b0565b83611d6a9190616539565b9050620f424060095f9054906101000a900473ffffffffffffffffffffffffffffffffffffffff1673ffffffffffffffffffffffffffffffffffffffff16632eb9771b6040518163ffffffff1660e01b8152600401602060405180830381865afa158015611dda573d5f803e3d5ffd5b505050506040513d601f19601f82011682018060405250810190611dfe919061650e565b1015611e3f576040517f08c379a0000000000000000000000000000000000000000000000000000000008152600401611e3690616b16565b60405180910390fd5b601754611f0184611ef360145460035f9054906101000a900473ffffffffffffffffffffffffffffffffffffffff1673ffffffffffffffffffffffffffffffffffffffff166370a08231306040518263ffffffff1660e01b8152600401611ea69190616081565b602060405180830381865afa158015611ec1573d5f803e3d5ffd5b505050506040513d601f19601f82011682018060405250810190611ee5919061650e565b6153cf90919063ffffffff16565b61537290919063ffffffff16565b1115611f42576040517f08c379a0000000000000000000000000000000000000000000000000000000008152600401611f3990616b7e565b60405180910390fd5b5f73__$b67b8e7724a5279f1cfb4d029be7b3943f$__635413e192611f65615191565b846040518363ffffffff1660e01b8152600401611f83929190616a1b565b602060405180830381865af4158015611f9e573d5f803e3d5ffd5b505050506040513d601f19601f82011682018060405250810190611fc2919061650e565b9050612003620f4240611ff5611fe6600e54620f42406153cf90919063ffffffff16565b8461554890919063ffffffff16565b6155bf90919063ffffffff16565b905080831115612048576040517f08c379a000000000000000000000000000000000000000000000000000000000815260040161203f90616986565b60405180910390fd5b61207560035f9054906101000a900473ffffffffffffffffffffffffffffffffffffffff16333087615826565b60095f9054906101000a900473ffffffffffffffffffffffffffffffffffffffff1673ffffffffffffffffffffffffffffffffffffffff1663b4f56b2633836040518363ffffffff1660e01b81526004016120d192919061657a565b5f604051808303815f87803b1580156120e8575f80fd5b505af11580156120fa573d5f803e3d5ffd5b5050505050505050565b5f1515601b60019054906101000a900460ff16151514612159576040517f08c379a000000000000000000000000000000000000000000000000000000000815260040161215090616be6565b60405180910390fd5b620f424060095f9054906101000a900473ffffffffffffffffffffffffffffffffffffffff1673ffffffffffffffffffffffffffffffffffffffff16632eb9771b6040518163ffffffff1660e01b8152600401602060405180830381865afa1580156121c7573d5f803e3d5ffd5b505050506040513d601f19601f820116820180604052508101906121eb919061650e565b1461222b576040517f08c379a000000000000000000000000000000000000000000000000000000000815260040161222290616c4e565b60405180910390fd5b5f61226b7f0000000000000000000000000000000000000000000000000000000000000000600a61225c91906164b0565b846155bf90919063ffffffff16565b90505f73__$b67b8e7724a5279f1cfb4d029be7b3943f$__630f41b452612290615191565b846040518363ffffffff1660e01b81526004016122ae929190616a1b565b602060405180830381865af41580156122c9573d5f803e3d5ffd5b505050506040513d601f19601f820116820180604052508101906122ed919061650e565b905061232e620f4240612320612311600f54620f42406153cf90919063ffffffff16565b8461554890919063ffffffff16565b6155bf90919063ffffffff16565b90506123dd60145460035f9054906101000a900473ffffffffffffffffffffffffffffffffffffffff1673ffffffffffffffffffffffffffffffffffffffff166370a08231306040518263ffffffff1660e01b81526004016123909190616081565b602060405180830381865afa1580156123ab573d5f803e3d5ffd5b505050506040513d601f19601f820116820180604052508101906123cf919061650e565b6153cf90919063ffffffff16565b81111561241f576040517f08c379a000000000000000000000000000000000000000000000000000000000815260040161241690616cb6565b60405180910390fd5b80831115612462576040517f08c379a000000000000000000000000000000000000000000000000000000000815260040161245990616986565b60405180910390fd5b6124b28160135f3373ffffffffffffffffffffffffffffffffffffffff1673ffffffffffffffffffffffffffffffffffffffff1681526020019081526020015f205461537290919063ffffffff16565b60135f3373ffffffffffffffffffffffffffffffffffffffff1673ffffffffffffffffffffffffffffffffffffffff1681526020019081526020015f20819055506125088160145461537290919063ffffffff16565b6014819055504360165f3373ffffffffffffffffffffffffffffffffffffffff1673ffffffffffffffffffffffffffffffffffffffff1681526020019081526020015f208190555060095f9054906101000a900473ffffffffffffffffffffffffffffffffffffffff1673ffffffffffffffffffffffffffffffffffffffff1663a8a778ae33866040518363ffffffff1660e01b81526004016125ac92919061657a565b5f604051808303815f87803b1580156125c3575f80fd5b505af11580156125d5573d5f803e3d5ffd5b5050505050505050565b60175481565b5f1515601b60039054906101000a900460ff1615151461263a576040517f08c379a000000000000000000000000000000000000000000000000000000000815260040161263190616d1e565b60405180910390fd5b5f60095f9054906101000a900473ffffffffffffffffffffffffffffffffffffffff1673ffffffffffffffffffffffffffffffffffffffff1663e7dced676040518163ffffffff1660e01b8152600401602060405180830381865afa1580156126a5573d5f803e3d5ffd5b505050506040513d601f19601f820116820180604052508101906126c9919061650e565b90505f60095f9054906101000a900473ffffffffffffffffffffffffffffffffffffffff1673ffffffffffffffffffffffffffffffffffffffff166309795f3f6040518163ffffffff1660e01b8152600401602060405180830381865afa158015612736573d5f803e3d5ffd5b505050506040513d601f19601f8201168201806040525081019061275a919061650e565b90505f606460468661276c9190616539565b6127769190616d69565b90505f61278c82876153cf90919063ffffffff16565b90505f60405180608001604052806127a2614f6f565b81526020018681526020016127b5615191565b81526020018481525090505f60405180608001604052806127d4614f6f565b81526020018681526020016127e7615191565b81526020018481525090505f61283a620f424061282c612815601054620f42406153cf90919063ffffffff16565b61281e87615959565b61554890919063ffffffff16565b6155bf90919063ffffffff16565b90505f612884620f424061287661285f601054620f42406153cf90919063ffffffff16565b61286887615959565b61554890919063ffffffff16565b6155bf90919063ffffffff16565b9050612899818361537290919063ffffffff16565b8911156128db576040517f08c379a00000000000000000000000000000000000000000000000000000000081526004016128d290616986565b60405180910390fd5b60085f9054906101000a900473ffffffffffffffffffffffffffffffffffffffff1673ffffffffffffffffffffffffffffffffffffffff1663a8a778ae338c6040518363ffffffff1660e01b815260040161293792919061657a565b5f604051808303815f87803b15801561294e575f80fd5b505af1158015612960573d5f803e3d5ffd5b505050506129a260035f9054906101000a900473ffffffffffffffffffffffffffffffffffffffff163361299d848661537290919063ffffffff16565b615418565b50505050505050505050565b601b60029054906101000a900460ff1681565b5f1515601b60019054906101000a900460ff16151514612a16576040517f08c379a0000000000000000000000000000000000000000000000000000000008152600401612a0d90616be6565b60405180910390fd5b5f60095f9054906101000a900473ffffffffffffffffffffffffffffffffffffffff1673ffffffffffffffffffffffffffffffffffffffff1663e7dced676040518163ffffffff1660e01b8152600401602060405180830381865afa158015612a81573d5f803e3d5ffd5b505050506040513d601f19601f82011682018060405250810190612aa5919061650e565b90505f60095f9054906101000a900473ffffffffffffffffffffffffffffffffffffffff1673ffffffffffffffffffffffffffffffffffffffff16632eb9771b6040518163ffffffff1660e01b8152600401602060405180830381865afa158015612b12573d5f803e3d5ffd5b505050506040513d601f19601f82011682018060405250810190612b36919061650e565b90505f8114612b7a576040517f08c379a0000000000000000000000000000000000000000000000000000000008152600401612b7190616de3565b60405180910390fd5b5f849050612bbd620f4240612baf612ba0600f54620f42406153cf90919063ffffffff16565b8461554890919063ffffffff16565b6155bf90919063ffffffff16565b90505f612be76064612bd9601e8561554890919063ffffffff16565b6155bf90919063ffffffff16565b90505f612c1d85612c0f620f42408587612c019190616e01565b61554890919063ffffffff16565b6155bf90919063ffffffff16565b9050612c6f8160125f3373ffffffffffffffffffffffffffffffffffffffff1673ffffffffffffffffffffffffffffffffffffffff1681526020019081526020015f205461537290919063ffffffff16565b60125f3373ffffffffffffffffffffffffffffffffffffffff1673ffffffffffffffffffffffffffffffffffffffff1681526020019081526020015f2081905550612cc58160155461537290919063ffffffff16565b6015819055504360165f3373ffffffffffffffffffffffffffffffffffffffff1673ffffffffffffffffffffffffffffffffffffffff1681526020019081526020015f208190555080861115612d50576040517f08c379a0000000000000000000000000000000000000000000000000000000008152600401612d4790616986565b60405180910390fd5b60095f9054906101000a900473ffffffffffffffffffffffffffffffffffffffff1673ffffffffffffffffffffffffffffffffffffffff1663a8a778ae33896040518363ffffffff1660e01b8152600401612dac92919061657a565b5f604051808303815f87803b158015612dc3575f80fd5b505af1158015612dd5573d5f803e3d5ffd5b5050505060085f9054906101000a900473ffffffffffffffffffffffffffffffffffffffff1673ffffffffffffffffffffffffffffffffffffffff1663b4f56b2630836040518363ffffffff1660e01b8152600401612e3592919061657a565b5f604051808303815f87803b158015612e4c575f80fd5b505af1158015612e5e573d5f803e3d5ffd5b505050505f612f1860095f9054906101000a900473ffffffffffffffffffffffffffffffffffffffff1673ffffffffffffffffffffffffffffffffffffffff166309795f3f6040518163ffffffff1660e01b8152600401602060405180830381865afa158015612ed0573d5f803e3d5ffd5b505050506040513d601f19601f82011682018060405250810190612ef4919061650e565b612f0a620f42408661554890919063ffffffff16565b6155bf90919063ffffffff16565b9050600a5f9054906101000a900473ffffffffffffffffffffffffffffffffffffffff1673ffffffffffffffffffffffffffffffffffffffff1663a9059cbb33612f6f633b9aca00856155bf90919063ffffffff16565b6040518363ffffffff1660e01b8152600401612f8c92919061657a565b6020604051808303815f875af1158015612fa8573d5f803e3d5ffd5b505050506040513d601f19601f82011682018060405250810190612fcc9190616aa1565b505050505050505050565b60025f9054906101000a900473ffffffffffffffffffffffffffffffffffffffff1673ffffffffffffffffffffffffffffffffffffffff163373ffffffffffffffffffffffffffffffffffffffff1614613066576040517f08c379a000000000000000000000000000000000000000000000000000000000815260040161305d90616ea4565b60405180910390fd5b7fb532073b38c83145e3e5135377a08bf9aab55bc0fd7c1179cd4fb995d2a5159c60015f9054906101000a900473ffffffffffffffffffffffffffffffffffffffff1660025f9054906101000a900473ffffffffffffffffffffffffffffffffffffffff166040516130d9929190616ec2565b60405180910390a160025f9054906101000a900473ffffffffffffffffffffffffffffffffffffffff1660015f6101000a81548173ffffffffffffffffffffffffffffffffffffffff021916908373ffffffffffffffffffffffffffffffffffffffff1602179055505f60025f6101000a81548173ffffffffffffffffffffffffffffffffffffffff021916908373ffffffffffffffffffffffffffffffffffffffff160217905550565b6131ae7fbb2c68b8dc5bccdd2536307080a7865a7e133bf54e31d4d463b1b749b4bcf26d336144f5565b6131b6575f80fd5b5f1515601b60049054906101000a900460ff161515036131dc57806018819055506131e4565b5f6018819055505b601b60049054906101000a900460ff1615601b60046101000a81548160ff0219169083151502179055507fbf1f9e6d8d67bb57a141c627f40368ec23ed7603249f0c3518c16eafbf9c4f6f601b60049054906101000a900460ff1660405161324c9190616142565b60405180910390a150565b60145481565b6132877fc65532185ed70b2e999433e2e9fac124e083acb13ec183a4e05944da0792337b336144f5565b61328f575f80fd5b601b5f9054906101000a900460ff1615601b5f6101000a81548160ff0219169083151502179055507f6bdfe227d5db299c59aa56d5f846f40dbd73b271aaa78e18ed74fc3e00b8aa6b601b5f9054906101000a900460ff166040516132f49190616142565b60405180910390a1565b5f1515601b60019054906101000a900460ff16151514613353576040517f08c379a000000000000000000000000000000000000000000000000000000000815260040161334a90616be6565b60405180910390fd5b5f60095f9054906101000a900473ffffffffffffffffffffffffffffffffffffffff1673ffffffffffffffffffffffffffffffffffffffff1663e7dced676040518163ffffffff1660e01b8152600401602060405180830381865afa1580156133be573d5f803e3d5ffd5b505050506040513d601f19601f820116820180604052508101906133e2919061650e565b90505f60095f9054906101000a900473ffffffffffffffffffffffffffffffffffffffff1673ffffffffffffffffffffffffffffffffffffffff16632eb9771b6040518163ffffffff1660e01b8152600401602060405180830381865afa15801561344f573d5f803e3d5ffd5b505050506040513d601f19601f82011682018060405250810190613473919061650e565b9050620f42408110801561348657505f81115b6134c5576040517f08c379a00000000000000000000000000000000000000000000000000000000081526004016134bc9061686a565b60405180910390fd5b5f6134ce615191565b90505f613510620f42406135026134f3600f54620f42406153cf90919063ffffffff16565b8a61554890919063ffffffff16565b6155bf90919063ffffffff16565b90505f61354d61353e620f4240613530878661554890919063ffffffff16565b6155bf90919063ffffffff16565b836153cf90919063ffffffff16565b90505f6135776064613569601e8561554890919063ffffffff16565b6155bf90919063ffffffff16565b90505f6135ad8761359f620f424085876135919190616e01565b61554890919063ffffffff16565b6155bf90919063ffffffff16565b90505f6135ef7f0000000000000000000000000000000000000000000000000000000000000000600a6135e091906164b0565b866155bf90919063ffffffff16565b90505f61361a620f424061360c8a8561554890919063ffffffff16565b6155bf90919063ffffffff16565b90505f61364588613637620f42408561554890919063ffffffff16565b6155bf90919063ffffffff16565b90506136f460145460035f9054906101000a900473ffffffffffffffffffffffffffffffffffffffff1673ffffffffffffffffffffffffffffffffffffffff166370a08231306040518263ffffffff1660e01b81526004016136a79190616081565b602060405180830381865afa1580156136c2573d5f803e3d5ffd5b505050506040513d601f19601f820116820180604052508101906136e6919061650e565b6153cf90919063ffffffff16565b811115613736576040517f08c379a000000000000000000000000000000000000000000000000000000000815260040161372d90616cb6565b60405180910390fd5b808b1115613779576040517f08c379a000000000000000000000000000000000000000000000000000000000815260040161377090616f59565b60405180910390fd5b838c11156137bc576040517f08c379a00000000000000000000000000000000000000000000000000000000081526004016137b390616fc1565b60405180910390fd5b61380c8160135f3373ffffffffffffffffffffffffffffffffffffffff1673ffffffffffffffffffffffffffffffffffffffff1681526020019081526020015f205461537290919063ffffffff16565b60135f3373ffffffffffffffffffffffffffffffffffffffff1673ffffffffffffffffffffffffffffffffffffffff1681526020019081526020015f20819055506138628160145461537290919063ffffffff16565b6014819055506138b88460125f3373ffffffffffffffffffffffffffffffffffffffff1673ffffffffffffffffffffffffffffffffffffffff1681526020019081526020015f205461537290919063ffffffff16565b60125f3373ffffffffffffffffffffffffffffffffffffffff1673ffffffffffffffffffffffffffffffffffffffff1681526020019081526020015f208190555061390e8460155461537290919063ffffffff16565b6015819055504360165f3373ffffffffffffffffffffffffffffffffffffffff1673ffffffffffffffffffffffffffffffffffffffff1681526020019081526020015f20819055505f613a0c60095f9054906101000a900473ffffffffffffffffffffffffffffffffffffffff1673ffffffffffffffffffffffffffffffffffffffff166309795f3f6040518163ffffffff1660e01b8152600401602060405180830381865afa1580156139c4573d5f803e3d5ffd5b505050506040513d601f19601f820116820180604052508101906139e8919061650e565b6139fe620f42408961554890919063ffffffff16565b6155bf90919063ffffffff16565b9050600a5f9054906101000a900473ffffffffffffffffffffffffffffffffffffffff1673ffffffffffffffffffffffffffffffffffffffff1663a9059cbb33613a63633b9aca00856155bf90919063ffffffff16565b6040518363ffffffff1660e01b8152600401613a8092919061657a565b6020604051808303815f875af1158015613a9c573d5f803e3d5ffd5b505050506040513d601f19601f82011682018060405250810190613ac09190616aa1565b505f8e905060095f9054906101000a900473ffffffffffffffffffffffffffffffffffffffff1673ffffffffffffffffffffffffffffffffffffffff1663a8a778ae33836040518363ffffffff1660e01b8152600401613b2192919061657a565b5f604051808303815f87803b158015613b38575f80fd5b505af1158015613b4a573d5f803e3d5ffd5b5050505060085f9054906101000a900473ffffffffffffffffffffffffffffffffffffffff1673ffffffffffffffffffffffffffffffffffffffff1663b4f56b2630886040518363ffffffff1660e01b8152600401613baa92919061657a565b5f604051808303815f87803b158015613bc1575f80fd5b505af1158015613bd3573d5f803e3d5ffd5b50505050505050505050505050505050505050565b601b5f9054906101000a900460ff1681565b601b60039054906101000a900460ff1681565b5f1515601b60029054906101000a900460ff16151514613c62576040517f08c379a0000000000000000000000000000000000000000000000000000000008152600401613c5990617029565b60405180910390fd5b5f7f0000000000000000000000000000000000000000000000000000000000000000600a613c9091906164b0565b83613c9b9190616539565b90505f60095f9054906101000a900473ffffffffffffffffffffffffffffffffffffffff1673ffffffffffffffffffffffffffffffffffffffff1663e7dced676040518163ffffffff1660e01b8152600401602060405180830381865afa158015613d08573d5f803e3d5ffd5b505050506040513d601f19601f82011682018060405250810190613d2c919061650e565b90505f60095f9054906101000a900473ffffffffffffffffffffffffffffffffffffffff1673ffffffffffffffffffffffffffffffffffffffff166318160ddd6040518163ffffffff1660e01b8152600401602060405180830381865afa158015613d99573d5f803e3d5ffd5b505050506040513d601f19601f82011682018060405250810190613dbd919061650e565b90505f60095f9054906101000a900473ffffffffffffffffffffffffffffffffffffffff1673ffffffffffffffffffffffffffffffffffffffff16632eb9771b6040518163ffffffff1660e01b8152600401602060405180830381865afa158015613e2a573d5f803e3d5ffd5b505050506040513d601f19601f82011682018060405250810190613e4e919061650e565b90505f60095f9054906101000a900473ffffffffffffffffffffffffffffffffffffffff1673ffffffffffffffffffffffffffffffffffffffff1663d2d97b066040518163ffffffff1660e01b8152600401602060405180830381865afa158015613ebb573d5f803e3d5ffd5b505050506040513d601f19601f82011682018060405250810190613edf919061650e565b90505f8073__$b67b8e7724a5279f1cfb4d029be7b3943f$__6306058f4a88613f06615191565b8689896040518663ffffffff1660e01b8152600401613f29959493929190617047565b6040805180830381865af4158015613f43573d5f803e3d5ffd5b505050506040513d601f19601f82011682018060405250810190613f679190617098565b915091505f613fab7f0000000000000000000000000000000000000000000000000000000000000000600a613f9c91906164b0565b846155bf90919063ffffffff16565b90505f613fd56064613fc760468661554890919063ffffffff16565b6155bf90919063ffffffff16565b90505f6140288961401a61400b601154613ffd601954620f424061537290919063ffffffff16565b6153cf90919063ffffffff16565b8561554890919063ffffffff16565b6155bf90919063ffffffff16565b90505f6140f260095f9054906101000a900473ffffffffffffffffffffffffffffffffffffffff1673ffffffffffffffffffffffffffffffffffffffff166309795f3f6040518163ffffffff1660e01b8152600401602060405180830381865afa158015614098573d5f803e3d5ffd5b505050506040513d601f19601f820116820180604052508101906140bc919061650e565b6140e4620f42406140d687876153cf90919063ffffffff16565b61554890919063ffffffff16565b6155bf90919063ffffffff16565b9050614107818361537290919063ffffffff16565b8c1115614149576040517f08c379a000000000000000000000000000000000000000000000000000000000815260040161414090616986565b60405180910390fd5b600a5f9054906101000a900473ffffffffffffffffffffffffffffffffffffffff1673ffffffffffffffffffffffffffffffffffffffff1663a9059cbb3361419e633b9aca00856155bf90919063ffffffff16565b6040518363ffffffff1660e01b81526004016141bb92919061657a565b6020604051808303815f875af11580156141d7573d5f803e3d5ffd5b505050506040513d601f19601f820116820180604052508101906141fb9190616aa1565b5061422960035f9054906101000a900473ffffffffffffffffffffffffffffffffffffffff16333087615826565b60085f9054906101000a900473ffffffffffffffffffffffffffffffffffffffff1673ffffffffffffffffffffffffffffffffffffffff1663b4f56b2633856040518363ffffffff1660e01b815260040161428592919061657a565b5f604051808303815f87803b15801561429c575f80fd5b505af11580156142ae573d5f803e3d5ffd5b5050505050505050505050505050505050565b60075f9054906101000a900473ffffffffffffffffffffffffffffffffffffffff1673ffffffffffffffffffffffffffffffffffffffff163373ffffffffffffffffffffffffffffffffffffffff161480614368575060015f9054906101000a900473ffffffffffffffffffffffffffffffffffffffff1673ffffffffffffffffffffffffffffffffffffffff163373ffffffffffffffffffffffffffffffffffffffff16145b6143a7576040517f08c379a000000000000000000000000000000000000000000000000000000000815260040161439e90616707565b60405180910390fd5b81600c5f6101000a81548173ffffffffffffffffffffffffffffffffffffffff021916908373ffffffffffffffffffffffffffffffffffffffff16021790555081600b5f6101000a81548173ffffffffffffffffffffffffffffffffffffffff021916908373ffffffffffffffffffffffffffffffffffffffff16021790555080600d5f6101000a81548173ffffffffffffffffffffffffffffffffffffffff021916908373ffffffffffffffffffffffffffffffffffffffff1602179055505050565b600c5f9054906101000a900473ffffffffffffffffffffffffffffffffffffffff1681565b601b60049054906101000a900460ff1681565b60015f9054906101000a900473ffffffffffffffffffffffffffffffffffffffff1681565b5f6144ed825f808681526020019081526020015f205f01615a5190919063ffffffff16565b905092915050565b5f61451a825f808681526020019081526020015f205f01615a6990919063ffffffff16565b905092915050565b5f801b81565b6016602052805f5260405f205f915090505481565b601b60019054906101000a900460ff1681565b60075f9054906101000a900473ffffffffffffffffffffffffffffffffffffffff1673ffffffffffffffffffffffffffffffffffffffff163373ffffffffffffffffffffffffffffffffffffffff1614806145f7575060015f9054906101000a900473ffffffffffffffffffffffffffffffffffffffff1673ffffffffffffffffffffffffffffffffffffffff163373ffffffffffffffffffffffffffffffffffffffff16145b614636576040517f08c379a000000000000000000000000000000000000000000000000000000000815260040161462d90616707565b60405180910390fd5b8060075f6101000a81548173ffffffffffffffffffffffffffffffffffffffff021916908373ffffffffffffffffffffffffffffffffffffffff1602179055507f7e7ee4175d63f671fac3401d5f401ed18d1f48a586e756f404d5696fc77a7058816040516146a59190616081565b60405180910390a150565b5f1515601b5f9054906101000a900460ff16151514614704576040517f08c379a00000000000000000000000000000000000000000000000000000000081526004016146fb906167dc565b60405180910390fd5b5f60095f9054906101000a900473ffffffffffffffffffffffffffffffffffffffff1673ffffffffffffffffffffffffffffffffffffffff1663e7dced676040518163ffffffff1660e01b8152600401602060405180830381865afa15801561476f573d5f803e3d5ffd5b505050506040513d601f19601f82011682018060405250810190614793919061650e565b90505f60095f9054906101000a900473ffffffffffffffffffffffffffffffffffffffff1673ffffffffffffffffffffffffffffffffffffffff166309795f3f6040518163ffffffff1660e01b8152600401602060405180830381865afa158015614800573d5f803e3d5ffd5b505050506040513d601f19601f82011682018060405250810190614824919061650e565b90505f60095f9054906101000a900473ffffffffffffffffffffffffffffffffffffffff1673ffffffffffffffffffffffffffffffffffffffff16632eb9771b6040518163ffffffff1660e01b8152600401602060405180830381865afa158015614891573d5f803e3d5ffd5b505050506040513d601f19601f820116820180604052508101906148b5919061650e565b146148f5576040517f08c379a00000000000000000000000000000000000000000000000000000000081526004016148ec90616de3565b60405180910390fd5b5f60646046866149059190616539565b61490f9190616d69565b90505f818661491e9190616e01565b90505f73__$b67b8e7724a5279f1cfb4d029be7b3943f$__63ce032cc186856040518363ffffffff1660e01b815260040161495a929190616a1b565b602060405180830381865af4158015614975573d5f803e3d5ffd5b505050506040513d601f19601f82011682018060405250810190614999919061650e565b90505f73__$b67b8e7724a5279f1cfb4d029be7b3943f$__63ce032cc186856040518363ffffffff1660e01b81526004016149d5929190616a1b565b602060405180830381865af41580156149f0573d5f803e3d5ffd5b505050506040513d601f19601f82011682018060405250810190614a14919061650e565b90505f6064601e600e54614a289190616539565b614a329190616d69565b90505f614a72620f4240614a64614a5585620f42406153cf90919063ffffffff16565b8661554890919063ffffffff16565b6155bf90919063ffffffff16565b90505f614abf620f4240614ab1614aa286600e54614a909190616e01565b620f42406153cf90919063ffffffff16565b8861554890919063ffffffff16565b6155bf90919063ffffffff16565b90505f8282614ace91906170d6565b9050858b1115614b13576040517f08c379a0000000000000000000000000000000000000000000000000000000008152600401614b0a90616986565b60405180910390fd5b60085f9054906101000a900473ffffffffffffffffffffffffffffffffffffffff1673ffffffffffffffffffffffffffffffffffffffff1663a8a778ae33846040518363ffffffff1660e01b8152600401614b6f92919061657a565b5f604051808303815f87803b158015614b86575f80fd5b505af1158015614b98573d5f803e3d5ffd5b5050505060095f9054906101000a900473ffffffffffffffffffffffffffffffffffffffff1673ffffffffffffffffffffffffffffffffffffffff1663b4f56b2633836040518363ffffffff1660e01b8152600401614bf892919061657a565b5f604051808303815f87803b158015614c0f575f80fd5b505af1158015614c21573d5f803e3d5ffd5b50505050600a5f9054906101000a900473ffffffffffffffffffffffffffffffffffffffff1673ffffffffffffffffffffffffffffffffffffffff166323b872dd3330614c7b633b9aca00886155bf90919063ffffffff16565b6040518463ffffffff1660e01b8152600401614c9993929190616a42565b6020604051808303815f875af1158015614cb5573d5f803e3d5ffd5b505050506040513d601f19601f82011682018060405250810190614cd99190616aa1565b50505050505050505050505050565b600e5481565b60185481565b6012602052805f5260405f205f915090505481565b5f614d245f808481526020019081526020015f205f01615a90565b9050919050565b600f5481565b614d555f808481526020019081526020015f2060020154614d50615608565b6144f5565b614d94576040517f08c379a0000000000000000000000000000000000000000000000000000000008152600401614d8b90617179565b60405180910390fd5b614d9e828261569f565b5050565b614dcc7fa84a5389ad41f9aab0831b01e5384cae76e7a7fd09131c206ff7927c201c3857336144f5565b614dd4575f80fd5b601b60019054906101000a900460ff1615601b60016101000a81548160ff0219169083151502179055507f5860c5063a65e23cea4e2e2925f1a841bb6d1bc9615bd425f8dd084980b05141601b60019054906101000a900460ff16604051614e3c9190616142565b60405180910390a1565b60075f9054906101000a900473ffffffffffffffffffffffffffffffffffffffff1673ffffffffffffffffffffffffffffffffffffffff163373ffffffffffffffffffffffffffffffffffffffff161480614eed575060015f9054906101000a900473ffffffffffffffffffffffffffffffffffffffff1673ffffffffffffffffffffffffffffffffffffffff163373ffffffffffffffffffffffffffffffffffffffff16145b614f2c576040517f08c379a0000000000000000000000000000000000000000000000000000000008152600401614f2390616707565b60405180910390fd5b8060055f6101000a81548173ffffffffffffffffffffffffffffffffffffffff021916908373ffffffffffffffffffffffffffffffffffffffff16021790555050565b5f8060095f9054906101000a900473ffffffffffffffffffffffffffffffffffffffff1673ffffffffffffffffffffffffffffffffffffffff166318160ddd6040518163ffffffff1660e01b8152600401602060405180830381865afa158015614fdb573d5f803e3d5ffd5b505050506040513d601f19601f82011682018060405250810190614fff919061650e565b90505f60095f9054906101000a900473ffffffffffffffffffffffffffffffffffffffff1673ffffffffffffffffffffffffffffffffffffffff16632eb9771b6040518163ffffffff1660e01b8152600401602060405180830381865afa15801561506c573d5f803e3d5ffd5b505050506040513d601f19601f82011682018060405250810190615090919061650e565b90505f60095f9054906101000a900473ffffffffffffffffffffffffffffffffffffffff1673ffffffffffffffffffffffffffffffffffffffff1663d2d97b066040518163ffffffff1660e01b8152600401602060405180830381865afa1580156150fd573d5f803e3d5ffd5b505050506040513d601f19601f82011682018060405250810190615121919061650e565b9050620f424082111561513557620f424091505b5f61515e620f4240615150858761554890919063ffffffff16565b6155bf90919063ffffffff16565b9050808211156151865761517b81836153cf90919063ffffffff16565b94505050505061518e565b5f9450505050505b90565b5f60011515601b60049054906101000a900460ff161515036151b7576018549050615369565b5f60095f9054906101000a900473ffffffffffffffffffffffffffffffffffffffff1673ffffffffffffffffffffffffffffffffffffffff1663345ba24b6040518163ffffffff1660e01b8152600401602060405180830381865afa158015615222573d5f803e3d5ffd5b505050506040513d601f19601f82011682018060405250810190615246919061650e565b9050615365600b5f9054906101000a900473ffffffffffffffffffffffffffffffffffffffff1673ffffffffffffffffffffffffffffffffffffffff16633ddac953600d5f9054906101000a900473ffffffffffffffffffffffffffffffffffffffff167f0000000000000000000000000000000000000000000000000000000000000000600a6152d791906164b0565b620f42406152e59190616539565b6040518363ffffffff1660e01b815260040161530292919061657a565b602060405180830381865afa15801561531d573d5f803e3d5ffd5b505050506040513d601f19601f82011682018060405250810190615341919061650e565b615357620f42408461554890919063ffffffff16565b6155bf90919063ffffffff16565b9150505b90565b60115481565b5f80828461538091906170d6565b9050838110156153c5576040517f08c379a00000000000000000000000000000000000000000000000000000000081526004016153bc906171e1565b60405180910390fd5b8091505092915050565b5f61541083836040518060400160405280601e81526020017f536166654d6174683a207375627472616374696f6e206f766572666c6f770000815250615aa3565b905092915050565b5f808473ffffffffffffffffffffffffffffffffffffffff1663a9059cbb858560405160240161544992919061657a565b6040516020818303038152906040529060e01b6020820180517bffffffffffffffffffffffffffffffffffffffffffffffffffffffff8381831617835250505050604051615497919061726b565b5f604051808303815f865af19150503d805f81146154d0576040519150601f19603f3d011682016040523d82523d5f602084013e6154d5565b606091505b509150915081801561550257505f815114806155015750808060200190518101906155009190616aa1565b5b5b615541576040517f08c379a0000000000000000000000000000000000000000000000000000000008152600401615538906172cb565b60405180910390fd5b5050505050565b5f808303615558575f90506155b9565b5f82846155659190616539565b90508284826155749190616d69565b146155b4576040517f08c379a00000000000000000000000000000000000000000000000000000000081526004016155ab90617359565b60405180910390fd5b809150505b92915050565b5f61560083836040518060400160405280601a81526020017f536166654d6174683a206469766973696f6e206279207a65726f000000000000815250615b05565b905092915050565b5f33905090565b615633815f808581526020019081526020015f205f01615b6690919063ffffffff16565b1561569b57615640615608565b73ffffffffffffffffffffffffffffffffffffffff168173ffffffffffffffffffffffffffffffffffffffff16837f2f8788117e7eff1d82e926ec794901d17c78024a50270940304540a733656f0d60405160405180910390a45b5050565b6156c3815f808581526020019081526020015f205f01615b8d90919063ffffffff16565b1561572b576156d0615608565b73ffffffffffffffffffffffffffffffffffffffff168173ffffffffffffffffffffffffffffffffffffffff16837ff6391f5c32d9c69d2a47ea670b442974b53935d1edc7fd64eb21e047a839171b60405160405180910390a45b5050565b5f805f80615762620f4240615754875f0151886040015161554890919063ffffffff16565b6155bf90919063ffffffff16565b9150615794620f42406157868760200151886060015161554890919063ffffffff16565b6155bf90919063ffffffff16565b90505f6157d5826157c788608001516157b9620f42408761554890919063ffffffff16565b6155bf90919063ffffffff16565b6153cf90919063ffffffff16565b90505f615803875f01516157f5620f42408561554890919063ffffffff16565b6155bf90919063ffffffff16565b9050615818828461537290919063ffffffff16565b819550955050505050915091565b5f808573ffffffffffffffffffffffffffffffffffffffff166323b872dd86868660405160240161585993929190616a42565b6040516020818303038152906040529060e01b6020820180517bffffffffffffffffffffffffffffffffffffffffffffffffffffffff83818316178352505050506040516158a7919061726b565b5f604051808303815f865af19150503d805f81146158e0576040519150601f19603f3d011682016040523d82523d5f602084013e6158e5565b606091505b509150915081801561591257505f815114806159115750808060200190518101906159109190616aa1565b5b5b615951576040517f08c379a0000000000000000000000000000000000000000000000000000000008152600401615948906173e7565b60405180910390fd5b505050505050565b5f80825f01511161599f576040517f08c379a000000000000000000000000000000000000000000000000000000000815260040161599690617475565b60405180910390fd5b5f6159d0620f42406159c28560200151866060015161554890919063ffffffff16565b6155bf90919063ffffffff16565b9050825f0151811115615a18576040517f08c379a0000000000000000000000000000000000000000000000000000000008152600401615a0f90617503565b60405180910390fd5b5f615a458460400151615a37620f42408561554890919063ffffffff16565b6155bf90919063ffffffff16565b90508092505050919050565b5f615a5e835f0183615bb4565b60601c905092915050565b5f615a88835f018360601b6bffffffffffffffffffffffff1916615c23565b905092915050565b5f615a9c825f01615c43565b9050919050565b5f838311158290615aea576040517f08c379a0000000000000000000000000000000000000000000000000000000008152600401615ae19190617573565b60405180910390fd5b505f8385615af89190616e01565b9050809150509392505050565b5f8083118290615b4b576040517f08c379a0000000000000000000000000000000000000000000000000000000008152600401615b429190617573565b60405180910390fd5b505f8385615b599190616d69565b9050809150509392505050565b5f615b85835f018360601b6bffffffffffffffffffffffff1916615c52565b905092915050565b5f615bac835f018360601b6bffffffffffffffffffffffff1916615cb9565b905092915050565b5f81835f018054905011615bfd576040517f08c379a0000000000000000000000000000000000000000000000000000000008152600401615bf490617603565b60405180910390fd5b825f018281548110615c1257615c11617621565b5b905f5260205f200154905092915050565b5f80836001015f8481526020019081526020015f20541415905092915050565b5f815f01805490509050919050565b5f615c5d8383615c23565b615caf57825f0182908060018154018082558091505060019003905f5260205f20015f9091909190915055825f0180549050836001015f8481526020019081526020015f208190555060019050615cb3565b5f90505b92915050565b5f80836001015f8481526020019081526020015f205490505f8114615dae575f600182615ce69190616e01565b90505f6001865f0180549050615cfc9190616e01565b90505f865f018281548110615d1457615d13617621565b5b905f5260205f200154905080875f018481548110615d3557615d34617621565b5b905f5260205f200181905550600183615d4e91906170d6565b876001015f8381526020019081526020015f2081905550865f01805480615d7857615d7761764e565b5b600190038181905f5260205f20015f90559055866001015f8781526020019081526020015f205f90556001945050505050615db3565b5f9150505b92915050565b5f80fd5b5f73ffffffffffffffffffffffffffffffffffffffff82169050919050565b5f615de682615dbd565b9050919050565b615df681615ddc565b8114615e00575f80fd5b50565b5f81359050615e1181615ded565b92915050565b5f60208284031215615e2c57615e2b615db9565b5b5f615e3984828501615e03565b91505092915050565b5f819050919050565b615e5481615e42565b82525050565b5f602082019050615e6d5f830184615e4b565b92915050565b5f819050919050565b615e8581615e73565b8114615e8f575f80fd5b50565b5f81359050615ea081615e7c565b92915050565b5f60208284031215615ebb57615eba615db9565b5b5f615ec884828501615e92565b91505092915050565b615eda81615e73565b82525050565b5f602082019050615ef35f830184615ed1565b92915050565b5f8060408385031215615f0f57615f0e615db9565b5b5f615f1c85828601615e92565b9250506020615f2d85828601615e03565b9150509250929050565b5f819050919050565b5f615f5a615f55615f5084615dbd565b615f37565b615dbd565b9050919050565b5f615f6b82615f40565b9050919050565b5f615f7c82615f61565b9050919050565b615f8c81615f72565b82525050565b5f602082019050615fa55f830184615f83565b92915050565b615fb481615e42565b8114615fbe575f80fd5b50565b5f81359050615fcf81615fab565b92915050565b5f805f805f805f60e0888a031215615ff057615fef615db9565b5b5f615ffd8a828b01615fc1565b975050602061600e8a828b01615fc1565b965050604061601f8a828b01615fc1565b95505060606160308a828b01615fc1565b94505060806160418a828b01615fc1565b93505060a06160528a828b01615fc1565b92505060c06160638a828b01615fc1565b91505092959891949750929550565b61607b81615ddc565b82525050565b5f6020820190506160945f830184616072565b92915050565b5f805f606084860312156160b1576160b0615db9565b5b5f6160be86828701615fc1565b93505060206160cf86828701615fc1565b92505060406160e086828701615fc1565b9150509250925092565b5f8060408385031215616100576160ff615db9565b5b5f61610d85828601615fc1565b925050602061611e85828601615fc1565b9150509250929050565b5f8115159050919050565b61613c81616128565b82525050565b5f6020820190506161555f830184616133565b92915050565b5f602082840312156161705761616f615db9565b5b5f61617d84828501615fc1565b91505092915050565b5f806040838503121561619c5761619b615db9565b5b5f6161a985828601615e03565b92505060206161ba85828601615e03565b9150509250929050565b5f80604083850312156161da576161d9615db9565b5b5f6161e785828601615e92565b92505060206161f885828601615fc1565b9150509250929050565b5f82825260208201905092915050565b7f4d757374207761697420666f7220726564656d7074696f6e5f64656c617920625f8201527f6c6f636b73206265666f726520636f6c6c656374696e6720726564656d70746960208201527f6f6e000000000000000000000000000000000000000000000000000000000000604082015250565b5f616292604283616202565b915061629d82616212565b606082019050919050565b5f6020820190508181035f8301526162bf81616286565b9050919050565b7f4f6e6c792074686520636f6e7472616374206f776e6572206d617920706572665f8201527f6f726d207468697320616374696f6e0000000000000000000000000000000000602082015250565b5f616320602f83616202565b915061632b826162c6565b604082019050919050565b5f6020820190508181035f83015261634d81616314565b9050919050565b7f4e487b71000000000000000000000000000000000000000000000000000000005f52601160045260245ffd5b5f8160011c9050919050565b5f808291508390505b60018511156163d6578086048111156163b2576163b1616354565b5b60018516156163c15780820291505b80810290506163cf85616381565b9450616396565b94509492505050565b5f826163ee57600190506164a9565b816163fb575f90506164a9565b8160018114616411576002811461641b5761644a565b60019150506164a9565b60ff84111561642d5761642c616354565b5b8360020a91508482111561644457616443616354565b5b506164a9565b5060208310610133831016604e8410600b841016171561647f5782820a90508381111561647a57616479616354565b5b6164a9565b61648c848484600161638d565b925090508184048111156164a3576164a2616354565b5b81810290505b9392505050565b5f6164ba82615e42565b91506164c583615e42565b92506164f27fffffffffffffffffffffffffffffffffffffffffffffffffffffffffffffffff84846163df565b905092915050565b5f8151905061650881615fab565b92915050565b5f6020828403121561652357616522615db9565b5b5f616530848285016164fa565b91505092915050565b5f61654382615e42565b915061654e83615e42565b925082820261655c81615e42565b9150828204841483151761657357616572616354565b5b5092915050565b5f60408201905061658d5f830185616072565b61659a6020830184615e4b565b9392505050565b7f416363657373436f6e74726f6c3a2073656e646572206d75737420626520616e5f8201527f2061646d696e20746f206772616e740000000000000000000000000000000000602082015250565b5f6165fb602f83616202565b9150616606826165a1565b604082019050919050565b5f6020820190508181035f830152616628816165ef565b9050919050565b7f416363657373436f6e74726f6c3a2063616e206f6e6c792072656e6f756e63655f8201527f20726f6c657320666f722073656c660000000000000000000000000000000000602082015250565b5f616689602f83616202565b91506166948261662f565b604082019050919050565b5f6020820190508181035f8301526166b68161667d565b9050919050565b7f4e6f74206f776e6572206f722074696d656c6f636b00000000000000000000005f82015250565b5f6166f1601583616202565b91506166fc826166bd565b602082019050919050565b5f6020820190508181035f83015261671e816166e5565b9050919050565b5f60e0820190506167385f83018a615e4b565b6167456020830189615e4b565b6167526040830188615e4b565b61675f6060830187615e4b565b61676c6080830186615e4b565b61677960a0830185615e4b565b61678660c0830184615e4b565b98975050505050505050565b7f4d696e74696e67206973207061757365640000000000000000000000000000005f82015250565b5f6167c6601183616202565b91506167d182616792565b602082019050919050565b5f6020820190508181035f8301526167f3816167ba565b9050919050565b7f436f6c6c61746572616c20726174696f206e6565647320746f206265206265745f8201527f7765656e202e30303030303120616e64202e3939393939390000000000000000602082015250565b5f616854603883616202565b915061685f826167fa565b604082019050919050565b5f6020820190508181035f83015261688181616848565b9050919050565b7f506f6f6c206365696c696e6720726561636865642c206e6f206d6f72652046525f8201527f41582063616e206265206d696e7465642077697468207468697320636f6c6c6160208201527f746572616c000000000000000000000000000000000000000000000000000000604082015250565b5f616908604583616202565b915061691382616888565b606082019050919050565b5f6020820190508181035f830152616935816168fc565b9050919050565b7f536c697070616765206c696d69742072656163686564000000000000000000005f82015250565b5f616970601683616202565b915061697b8261693c565b602082019050919050565b5f6020820190508181035f83015261699d81616964565b9050919050565b7f4e6f7420656e6f7567682046585320696e7075747465640000000000000000005f82015250565b5f6169d8601783616202565b91506169e3826169a4565b602082019050919050565b5f6020820190508181035f830152616a05816169cc565b9050919050565b616a1581615e42565b82525050565b5f604082019050616a2e5f830185616a0c565b616a3b6020830184616a0c565b9392505050565b5f606082019050616a555f830186616072565b616a626020830185616072565b616a6f6040830184615e4b565b949350505050565b616a8081616128565b8114616a8a575f80fd5b50565b5f81519050616a9b81616a77565b92915050565b5f60208284031215616ab657616ab5615db9565b5b5f616ac384828501616a8d565b91505092915050565b7f436f6c6c61746572616c20726174696f206d757374206265203e3d20310000005f82015250565b5f616b00601d83616202565b9150616b0b82616acc565b602082019050919050565b5f6020820190508181035f830152616b2d81616af4565b9050919050565b7f5b506f6f6c277320436c6f7365645d3a204365696c696e6720726561636865645f82015250565b5f616b68602083616202565b9150616b7382616b34565b602082019050919050565b5f6020820190508181035f830152616b9581616b5c565b9050919050565b7f52656465656d696e6720697320706175736564000000000000000000000000005f82015250565b5f616bd0601383616202565b9150616bdb82616b9c565b602082019050919050565b5f6020820190508181035f830152616bfd81616bc4565b9050919050565b7f436f6c6c61746572616c20726174696f206d757374206265203d3d20310000005f82015250565b5f616c38601d83616202565b9150616c4382616c04565b602082019050919050565b5f6020820190508181035f830152616c6581616c2c565b9050919050565b7f4e6f7420656e6f75676820636f6c6c61746572616c20696e20706f6f6c0000005f82015250565b5f616ca0601d83616202565b9150616cab82616c6c565b602082019050919050565b5f6020820190508181035f830152616ccd81616c94565b9050919050565b7f4275796261636b206973207061757365640000000000000000000000000000005f82015250565b5f616d08601183616202565b9150616d1382616cd4565b602082019050919050565b5f6020820190508181035f830152616d3581616cfc565b9050919050565b7f4e487b71000000000000000000000000000000000000000000000000000000005f52601260045260245ffd5b5f616d7382615e42565b9150616d7e83615e42565b925082616d8e57616d8d616d3c565b5b828204905092915050565b7f436f6c6c61746572616c20726174696f206d75737420626520300000000000005f82015250565b5f616dcd601a83616202565b9150616dd882616d99565b602082019050919050565b5f6020820190508181035f830152616dfa81616dc1565b9050919050565b5f616e0b82615e42565b9150616e1683615e42565b9250828203905081811115616e2e57616e2d616354565b5b92915050565b7f596f75206d757374206265206e6f6d696e61746564206265666f726520796f755f8201527f2063616e20616363657074206f776e6572736869700000000000000000000000602082015250565b5f616e8e603583616202565b9150616e9982616e34565b604082019050919050565b5f6020820190508181035f830152616ebb81616e82565b9050919050565b5f604082019050616ed55f830185616072565b616ee26020830184616072565b9392505050565b7f536c697070616765206c696d69742072656163686564205b636f6c6c617465725f8201527f616c5d0000000000000000000000000000000000000000000000000000000000602082015250565b5f616f43602383616202565b9150616f4e82616ee9565b604082019050919050565b5f6020820190508181035f830152616f7081616f37565b9050919050565b7f536c697070616765206c696d69742072656163686564205b4658535d000000005f82015250565b5f616fab601c83616202565b9150616fb682616f77565b602082019050919050565b5f6020820190508181035f830152616fd881616f9f565b9050919050565b7f5265636f6c6c61746572616c697a6520697320706175736564000000000000005f82015250565b5f617013601983616202565b915061701e82616fdf565b602082019050919050565b5f6020820190508181035f83015261704081617007565b9050919050565b5f60a08201905061705a5f830188616a0c565b6170676020830187616a0c565b6170746040830186616a0c565b6170816060830185616a0c565b61708e6080830184616a0c565b9695505050505050565b5f80604083850312156170ae576170ad615db9565b5b5f6170bb858286016164fa565b92505060206170cc858286016164fa565b9150509250929050565b5f6170e082615e42565b91506170eb83615e42565b925082820190508082111561710357617102616354565b5b92915050565b7f416363657373436f6e74726f6c3a2073656e646572206d75737420626520616e5f8201527f2061646d696e20746f207265766f6b6500000000000000000000000000000000602082015250565b5f617163603083616202565b915061716e82617109565b604082019050919050565b5f6020820190508181035f83015261719081617157565b9050919050565b7f536166654d6174683a206164646974696f6e206f766572666c6f7700000000005f82015250565b5f6171cb601b83616202565b91506171d682617197565b602082019050919050565b5f6020820190508181035f8301526171f8816171bf565b9050919050565b5f81519050919050565b5f81905092915050565b5f5b83811015617230578082015181840152602081019050617215565b5f8484015250505050565b5f617245826171ff565b61724f8185617209565b935061725f818560208601617213565b80840191505092915050565b5f617276828461723b565b915081905092915050565b7f5472616e7366657248656c7065723a205452414e534645525f4641494c4544005f82015250565b5f6172b5601f83616202565b91506172c082617281565b602082019050919050565b5f6020820190508181035f8301526172e2816172a9565b9050919050565b7f536166654d6174683a206d756c7469706c69636174696f6e206f766572666c6f5f8201527f7700000000000000000000000000000000000000000000000000000000000000602082015250565b5f617343602183616202565b915061734e826172e9565b604082019050919050565b5f6020820190508181035f83015261737081617337565b9050919050565b7f5472616e7366657248656c7065723a205452414e534645525f46524f4d5f46415f8201527f494c454400000000000000000000000000000000000000000000000000000000602082015250565b5f6173d1602483616202565b91506173dc82617377565b604082019050919050565b5f6020820190508181035f8301526173fe816173c5565b9050919050565b7f4e6f2065786365737320636f6c6c61746572616c20746f20627579206261636b5f8201527f2100000000000000000000000000000000000000000000000000000000000000602082015250565b5f61745f602183616202565b915061746a82617405565b604082019050919050565b5f6020820190508181035f83015261748c81617453565b9050919050565b7f596f752061726520747279696e6720746f20627579206261636b206d6f7265205f8201527f7468616e20746865206578636573732100000000000000000000000000000000602082015250565b5f6174ed603083616202565b91506174f882617493565b604082019050919050565b5f6020820190508181035f83015261751a816174e1565b9050919050565b5f81519050919050565b5f601f19601f8301169050919050565b5f61754582617521565b61754f8185616202565b935061755f818560208601617213565b6175688161752b565b840191505092915050565b5f6020820190508181035f83015261758b818461753b565b905092915050565b7f456e756d657261626c655365743a20696e646578206f7574206f6620626f756e5f8201527f6473000000000000000000000000000000000000000000000000000000000000602082015250565b5f6175ed602283616202565b91506175f882617593565b604082019050919050565b5f6020820190508181035f83015261761a816175e1565b9050919050565b7f4e487b71000000000000000000000000000000000000000000000000000000005f52603260045260245ffd5b7f4e487b71000000000000000000000000000000000000000000000000000000005f52603160045260245ffdfea2646970667358221220f90ce0ae0a8c7ca494dc0a5a3a6c2bb165295047352389cd5a2ce9dfa9ed6b2364736f6c63430008150033",
			"opcodes": "PUSH1 0xA0 PUSH1 0x40 MSTORE PUSH0 PUSH1 0x17 SSTORE PUSH0 PUSH1 0x18 SSTORE PUSH2 0x1D4C PUSH1 0x19 SSTORE PUSH1 0x1 PUSH1 0x1A SSTORE PUSH0 PUSH1 0x1B PUSH0 PUSH2 0x100 EXP DUP2 SLOAD DUP2 PUSH1 0xFF MUL NOT AND SWAP1 DUP4 ISZERO ISZERO MUL OR SWAP1 SSTORE POP PUSH0 PUSH1 0x1B PUSH1 0x1 PUSH2 0x100 EXP DUP2 SLOAD DUP2 PUSH1 0xFF MUL NOT AND SWAP1 DUP4 ISZERO ISZERO MUL OR SWAP1 SSTORE POP PUSH0 PUSH1 0x1B PUSH1 0x2 PUSH2 0x100 EXP DUP2 SLOAD DUP2 PUSH1 0xFF MUL NOT AND SWAP1 DUP4 ISZERO ISZERO MUL OR SWAP1 SSTORE POP PUSH0 PUSH1 0x1B PUSH1 0x3 PUSH2 0x100 EXP DUP2 SLOAD DUP2 PUSH1 0xFF MUL NOT AND SWAP1 DUP4 ISZERO ISZERO MUL OR SWAP1 SSTORE POP PUSH0 PUSH1 0x1B PUSH1 0x4 PUSH2 0x100 EXP DUP2 SLOAD DUP2 PUSH1 0xFF MUL NOT AND SWAP1 DUP4 ISZERO ISZERO MUL OR SWAP1 SSTORE POP CALLVALUE DUP1 ISZERO PUSH3 0xA4 JUMPI PUSH0 DUP1 REVERT JUMPDEST POP PUSH1 0x40 MLOAD PUSH3 0x8636 CODESIZE SUB DUP1 PUSH3 0x8636 DUP4 CODECOPY DUP2 DUP2 ADD PUSH1 0x40 MSTORE DUP2 ADD SWAP1 PUSH3 0xCA SWAP2 SWAP1 PUSH3 0xB4B JUMP JUMPDEST DUP3 PUSH0 PUSH20 0xFFFFFFFFFFFFFFFFFFFFFFFFFFFFFFFFFFFFFFFF AND DUP2 PUSH20 0xFFFFFFFFFFFFFFFFFFFFFFFFFFFFFFFFFFFFFFFF AND SUB PUSH3 0x13C JUMPI PUSH1 0x40 MLOAD PUSH32 0x8C379A000000000000000000000000000000000000000000000000000000000 DUP2 MSTORE PUSH1 0x4 ADD PUSH3 0x133 SWAP1 PUSH3 0xC57 JUMP JUMPDEST PUSH1 0x40 MLOAD DUP1 SWAP2 SUB SWAP1 REVERT JUMPDEST DUP1 PUSH1 0x1 PUSH0 PUSH2 0x100 EXP DUP2 SLOAD DUP2 PUSH20 0xFFFFFFFFFFFFFFFFFFFFFFFFFFFFFFFFFFFFFFFF MUL NOT AND SWAP1 DUP4 PUSH20 0xFFFFFFFFFFFFFFFFFFFFFFFFFFFFFFFFFFFFFFFF AND MUL OR SWAP1 SSTORE POP PUSH32 0xB532073B38C83145E3E5135377A08BF9AAB55BC0FD7C1179CD4FB995D2A5159C PUSH0 DUP3 PUSH1 0x40 MLOAD PUSH3 0x1AF SWAP3 SWAP2 SWAP1 PUSH3 0xC88 JUMP JUMPDEST PUSH1 0x40 MLOAD DUP1 SWAP2 SUB SWAP1 LOG1 POP PUSH0 PUSH20 0xFFFFFFFFFFFFFFFFFFFFFFFFFFFFFFFFFFFFFFFF AND DUP8 PUSH20 0xFFFFFFFFFFFFFFFFFFFFFFFFFFFFFFFFFFFFFFFF AND EQ ISZERO DUP1 ISZERO PUSH3 0x221 JUMPI POP PUSH0 PUSH20 0xFFFFFFFFFFFFFFFFFFFFFFFFFFFFFFFFFFFFFFFF AND DUP7 PUSH20 0xFFFFFFFFFFFFFFFFFFFFFFFFFFFFFFFFFFFFFFFF AND EQ ISZERO JUMPDEST DUP1 ISZERO PUSH3 0x25A JUMPI POP PUSH0 PUSH20 0xFFFFFFFFFFFFFFFFFFFFFFFFFFFFFFFFFFFFFFFF AND DUP6 PUSH20 0xFFFFFFFFFFFFFFFFFFFFFFFFFFFFFFFFFFFFFFFF AND EQ ISZERO JUMPDEST DUP1 ISZERO PUSH3 0x293 JUMPI POP PUSH0 PUSH20 0xFFFFFFFFFFFFFFFFFFFFFFFFFFFFFFFFFFFFFFFF AND DUP4 PUSH20 0xFFFFFFFFFFFFFFFFFFFFFFFFFFFFFFFFFFFFFFFF AND EQ ISZERO JUMPDEST DUP1 ISZERO PUSH3 0x2CC JUMPI POP PUSH0 PUSH20 0xFFFFFFFFFFFFFFFFFFFFFFFFFFFFFFFFFFFFFFFF AND DUP3 PUSH20 0xFFFFFFFFFFFFFFFFFFFFFFFFFFFFFFFFFFFFFFFF AND EQ ISZERO JUMPDEST PUSH3 0x30E JUMPI PUSH1 0x40 MLOAD PUSH32 0x8C379A000000000000000000000000000000000000000000000000000000000 DUP2 MSTORE PUSH1 0x4 ADD PUSH3 0x305 SWAP1 PUSH3 0xD01 JUMP JUMPDEST PUSH1 0x40 MLOAD DUP1 SWAP2 SUB SWAP1 REVERT JUMPDEST DUP7 PUSH1 0x9 PUSH0 PUSH2 0x100 EXP DUP2 SLOAD DUP2 PUSH20 0xFFFFFFFFFFFFFFFFFFFFFFFFFFFFFFFFFFFFFFFF MUL NOT AND SWAP1 DUP4 PUSH20 0xFFFFFFFFFFFFFFFFFFFFFFFFFFFFFFFFFFFFFFFF AND MUL OR SWAP1 SSTORE POP DUP6 PUSH1 0x8 PUSH0 PUSH2 0x100 EXP DUP2 SLOAD DUP2 PUSH20 0xFFFFFFFFFFFFFFFFFFFFFFFFFFFFFFFFFFFFFFFF MUL NOT AND SWAP1 DUP4 PUSH20 0xFFFFFFFFFFFFFFFFFFFFFFFFFFFFFFFFFFFFFFFF AND MUL OR SWAP1 SSTORE POP DUP4 PUSH1 0xA PUSH0 PUSH2 0x100 EXP DUP2 SLOAD DUP2 PUSH20 0xFFFFFFFFFFFFFFFFFFFFFFFFFFFFFFFFFFFFFFFF MUL NOT AND SWAP1 DUP4 PUSH20 0xFFFFFFFFFFFFFFFFFFFFFFFFFFFFFFFFFFFFFFFF AND MUL OR SWAP1 SSTORE POP DUP7 PUSH1 0x5 PUSH0 PUSH2 0x100 EXP DUP2 SLOAD DUP2 PUSH20 0xFFFFFFFFFFFFFFFFFFFFFFFFFFFFFFFFFFFFFFFF MUL NOT AND SWAP1 DUP4 PUSH20 0xFFFFFFFFFFFFFFFFFFFFFFFFFFFFFFFFFFFFFFFF AND MUL OR SWAP1 SSTORE POP DUP6 PUSH1 0x6 PUSH0 PUSH2 0x100 EXP DUP2 SLOAD DUP2 PUSH20 0xFFFFFFFFFFFFFFFFFFFFFFFFFFFFFFFFFFFFFFFF MUL NOT AND SWAP1 DUP4 PUSH20 0xFFFFFFFFFFFFFFFFFFFFFFFFFFFFFFFFFFFFFFFF AND MUL OR SWAP1 SSTORE POP DUP5 PUSH1 0x4 PUSH0 PUSH2 0x100 EXP DUP2 SLOAD DUP2 PUSH20 0xFFFFFFFFFFFFFFFFFFFFFFFFFFFFFFFFFFFFFFFF MUL NOT AND SWAP1 DUP4 PUSH20 0xFFFFFFFFFFFFFFFFFFFFFFFFFFFFFFFFFFFFFFFF AND MUL OR SWAP1 SSTORE POP DUP2 PUSH1 0x7 PUSH0 PUSH2 0x100 EXP DUP2 SLOAD DUP2 PUSH20 0xFFFFFFFFFFFFFFFFFFFFFFFFFFFFFFFFFFFFFFFF MUL NOT AND SWAP1 DUP4 PUSH20 0xFFFFFFFFFFFFFFFFFFFFFFFFFFFFFFFFFFFFFFFF AND MUL OR SWAP1 SSTORE POP DUP5 PUSH1 0x3 PUSH0 PUSH2 0x100 EXP DUP2 SLOAD DUP2 PUSH20 0xFFFFFFFFFFFFFFFFFFFFFFFFFFFFFFFFFFFFFFFF MUL NOT AND SWAP1 DUP4 PUSH20 0xFFFFFFFFFFFFFFFFFFFFFFFFFFFFFFFFFFFFFFFF AND MUL OR SWAP1 SSTORE POP DUP1 PUSH1 0x17 DUP2 SWAP1 SSTORE POP PUSH3 0x5BE PUSH1 0x3 PUSH0 SWAP1 SLOAD SWAP1 PUSH2 0x100 EXP SWAP1 DIV PUSH20 0xFFFFFFFFFFFFFFFFFFFFFFFFFFFFFFFFFFFFFFFF AND PUSH20 0xFFFFFFFFFFFFFFFFFFFFFFFFFFFFFFFFFFFFFFFF AND PUSH4 0x313CE567 PUSH1 0x40 MLOAD DUP2 PUSH4 0xFFFFFFFF AND PUSH1 0xE0 SHL DUP2 MSTORE PUSH1 0x4 ADD PUSH1 0x20 PUSH1 0x40 MLOAD DUP1 DUP4 SUB DUP2 DUP7 GAS STATICCALL ISZERO DUP1 ISZERO PUSH3 0x584 JUMPI RETURNDATASIZE PUSH0 DUP1 RETURNDATACOPY RETURNDATASIZE PUSH0 REVERT JUMPDEST POP POP POP POP PUSH1 0x40 MLOAD RETURNDATASIZE PUSH1 0x1F NOT PUSH1 0x1F DUP3 ADD AND DUP3 ADD DUP1 PUSH1 0x40 MSTORE POP DUP2 ADD SWAP1 PUSH3 0x5AA SWAP2 SWAP1 PUSH3 0xD5C JUMP JUMPDEST PUSH1 0xFF AND PUSH1 0x12 PUSH3 0x794 PUSH1 0x20 SHL SWAP1 SWAP2 SWAP1 PUSH1 0x20 SHR JUMP JUMPDEST PUSH1 0x80 DUP2 DUP2 MSTORE POP POP PUSH3 0x5E8 PUSH0 DUP1 SHL PUSH3 0x5DC PUSH3 0x7E5 PUSH1 0x20 SHL PUSH1 0x20 SHR JUMP JUMPDEST PUSH3 0x7EC PUSH1 0x20 SHL PUSH1 0x20 SHR JUMP JUMPDEST PUSH3 0x63B PUSH32 0xC65532185ED70B2E999433E2E9FAC124E083ACB13EC183A4E05944DA0792337B PUSH1 0x7 PUSH0 SWAP1 SLOAD SWAP1 PUSH2 0x100 EXP SWAP1 DIV PUSH20 0xFFFFFFFFFFFFFFFFFFFFFFFFFFFFFFFFFFFFFFFF AND PUSH3 0x802 PUSH1 0x20 SHL PUSH1 0x20 SHR JUMP JUMPDEST PUSH3 0x68E PUSH32 0xA84A5389AD41F9AAB0831B01E5384CAE76E7A7FD09131C206FF7927C201C3857 PUSH1 0x7 PUSH0 SWAP1 SLOAD SWAP1 PUSH2 0x100 EXP SWAP1 DIV PUSH20 0xFFFFFFFFFFFFFFFFFFFFFFFFFFFFFFFFFFFFFFFF AND PUSH3 0x802 PUSH1 0x20 SHL PUSH1 0x20 SHR JUMP JUMPDEST PUSH3 0x6E1 PUSH32 0x8118EEB5231A5FE4008A55B62860F6A0DB4F6C3AC04F8141927A9B3FEDD86D2F PUSH1 0x7 PUSH0 SWAP1 SLOAD SWAP1 PUSH2 0x100 EXP SWAP1 DIV PUSH20 0xFFFFFFFFFFFFFFFFFFFFFFFFFFFFFFFFFFFFFFFF AND PUSH3 0x802 PUSH1 0x20 SHL PUSH1 0x20 SHR JUMP JUMPDEST PUSH3 0x734 PUSH32 0x103DA79FF3755FF7A17A557D28B73D37CB4DE0B3C3CC02FA6C48DF0F35071FBF PUSH1 0x7 PUSH0 SWAP1 SLOAD SWAP1 PUSH2 0x100 EXP SWAP1 DIV PUSH20 0xFFFFFFFFFFFFFFFFFFFFFFFFFFFFFFFFFFFFFFFF AND PUSH3 0x802 PUSH1 0x20 SHL PUSH1 0x20 SHR JUMP JUMPDEST PUSH3 0x787 PUSH32 0xBB2C68B8DC5BCCDD2536307080A7865A7E133BF54E31D4D463B1B749B4BCF26D PUSH1 0x7 PUSH0 SWAP1 SLOAD SWAP1 PUSH2 0x100 EXP SWAP1 DIV PUSH20 0xFFFFFFFFFFFFFFFFFFFFFFFFFFFFFFFFFFFFFFFF AND PUSH3 0x802 PUSH1 0x20 SHL PUSH1 0x20 SHR JUMP JUMPDEST POP POP POP POP POP POP POP PUSH3 0xF2D JUMP JUMPDEST PUSH0 PUSH3 0x7DD DUP4 DUP4 PUSH1 0x40 MLOAD DUP1 PUSH1 0x40 ADD PUSH1 0x40 MSTORE DUP1 PUSH1 0x1E DUP2 MSTORE PUSH1 0x20 ADD PUSH32 0x536166654D6174683A207375627472616374696F6E206F766572666C6F770000 DUP2 MSTORE POP PUSH3 0x88E PUSH1 0x20 SHL PUSH1 0x20 SHR JUMP JUMPDEST SWAP1 POP SWAP3 SWAP2 POP POP JUMP JUMPDEST PUSH0 CALLER SWAP1 POP SWAP1 JUMP JUMPDEST PUSH3 0x7FE DUP3 DUP3 PUSH3 0x8F5 PUSH1 0x20 SHL PUSH1 0x20 SHR JUMP JUMPDEST POP POP JUMP JUMPDEST PUSH3 0x836 PUSH0 DUP1 DUP5 DUP2 MSTORE PUSH1 0x20 ADD SWAP1 DUP2 MSTORE PUSH1 0x20 ADD PUSH0 KECCAK256 PUSH1 0x2 ADD SLOAD PUSH3 0x82A PUSH3 0x7E5 PUSH1 0x20 SHL PUSH1 0x20 SHR JUMP JUMPDEST PUSH3 0x990 PUSH1 0x20 SHL PUSH1 0x20 SHR JUMP JUMPDEST PUSH3 0x878 JUMPI PUSH1 0x40 MLOAD PUSH32 0x8C379A000000000000000000000000000000000000000000000000000000000 DUP2 MSTORE PUSH1 0x4 ADD PUSH3 0x86F SWAP1 PUSH3 0xE00 JUMP JUMPDEST PUSH1 0x40 MLOAD DUP1 SWAP2 SUB SWAP1 REVERT JUMPDEST PUSH3 0x88A DUP3 DUP3 PUSH3 0x8F5 PUSH1 0x20 SHL PUSH1 0x20 SHR JUMP JUMPDEST POP POP JUMP JUMPDEST PUSH0 DUP4 DUP4 GT ISZERO DUP3 SWAP1 PUSH3 0x8D8 JUMPI PUSH1 0x40 MLOAD PUSH32 0x8C379A000000000000000000000000000000000000000000000000000000000 DUP2 MSTORE PUSH1 0x4 ADD PUSH3 0x8CF SWAP2 SWAP1 PUSH3 0xEA4 JUMP JUMPDEST PUSH1 0x40 MLOAD DUP1 SWAP2 SUB SWAP1 REVERT JUMPDEST POP PUSH0 DUP4 DUP6 PUSH3 0x8E8 SWAP2 SWAP1 PUSH3 0xEF3 JUMP JUMPDEST SWAP1 POP DUP1 SWAP2 POP POP SWAP4 SWAP3 POP POP POP JUMP JUMPDEST PUSH3 0x91B DUP2 PUSH0 DUP1 DUP6 DUP2 MSTORE PUSH1 0x20 ADD SWAP1 DUP2 MSTORE PUSH1 0x20 ADD PUSH0 KECCAK256 PUSH0 ADD PUSH3 0x9BF PUSH1 0x20 SHL SWAP1 SWAP2 SWAP1 PUSH1 0x20 SHR JUMP JUMPDEST ISZERO PUSH3 0x98C JUMPI PUSH3 0x931 PUSH3 0x7E5 PUSH1 0x20 SHL PUSH1 0x20 SHR JUMP JUMPDEST PUSH20 0xFFFFFFFFFFFFFFFFFFFFFFFFFFFFFFFFFFFFFFFF AND DUP2 PUSH20 0xFFFFFFFFFFFFFFFFFFFFFFFFFFFFFFFFFFFFFFFF AND DUP4 PUSH32 0x2F8788117E7EFF1D82E926EC794901D17C78024A50270940304540A733656F0D PUSH1 0x40 MLOAD PUSH1 0x40 MLOAD DUP1 SWAP2 SUB SWAP1 LOG4 JUMPDEST POP POP JUMP JUMPDEST PUSH0 PUSH3 0x9B7 DUP3 PUSH0 DUP1 DUP7 DUP2 MSTORE PUSH1 0x20 ADD SWAP1 DUP2 MSTORE PUSH1 0x20 ADD PUSH0 KECCAK256 PUSH0 ADD PUSH3 0x9EE PUSH1 0x20 SHL SWAP1 SWAP2 SWAP1 PUSH1 0x20 SHR JUMP JUMPDEST SWAP1 POP SWAP3 SWAP2 POP POP JUMP JUMPDEST PUSH0 PUSH3 0x9E6 DUP4 PUSH0 ADD DUP4 PUSH1 0x60 SHL PUSH12 0xFFFFFFFFFFFFFFFFFFFFFFFF NOT AND PUSH3 0xA1D PUSH1 0x20 SHL PUSH1 0x20 SHR JUMP JUMPDEST SWAP1 POP SWAP3 SWAP2 POP POP JUMP JUMPDEST PUSH0 PUSH3 0xA15 DUP4 PUSH0 ADD DUP4 PUSH1 0x60 SHL PUSH12 0xFFFFFFFFFFFFFFFFFFFFFFFF NOT AND PUSH3 0xA8E PUSH1 0x20 SHL PUSH1 0x20 SHR JUMP JUMPDEST SWAP1 POP SWAP3 SWAP2 POP POP JUMP JUMPDEST PUSH0 PUSH3 0xA30 DUP4 DUP4 PUSH3 0xA8E PUSH1 0x20 SHL PUSH1 0x20 SHR JUMP JUMPDEST PUSH3 0xA84 JUMPI DUP3 PUSH0 ADD DUP3 SWAP1 DUP1 PUSH1 0x1 DUP2 SLOAD ADD DUP1 DUP3 SSTORE DUP1 SWAP2 POP POP PUSH1 0x1 SWAP1 SUB SWAP1 PUSH0 MSTORE PUSH1 0x20 PUSH0 KECCAK256 ADD PUSH0 SWAP1 SWAP2 SWAP1 SWAP2 SWAP1 SWAP2 POP SSTORE DUP3 PUSH0 ADD DUP1 SLOAD SWAP1 POP DUP4 PUSH1 0x1 ADD PUSH0 DUP5 DUP2 MSTORE PUSH1 0x20 ADD SWAP1 DUP2 MSTORE PUSH1 0x20 ADD PUSH0 KECCAK256 DUP2 SWAP1 SSTORE POP PUSH1 0x1 SWAP1 POP PUSH3 0xA88 JUMP JUMPDEST PUSH0 SWAP1 POP JUMPDEST SWAP3 SWAP2 POP POP JUMP JUMPDEST PUSH0 DUP1 DUP4 PUSH1 0x1 ADD PUSH0 DUP5 DUP2 MSTORE PUSH1 0x20 ADD SWAP1 DUP2 MSTORE PUSH1 0x20 ADD PUSH0 KECCAK256 SLOAD EQ ISZERO SWAP1 POP SWAP3 SWAP2 POP POP JUMP JUMPDEST PUSH0 DUP1 REVERT JUMPDEST PUSH0 PUSH20 0xFFFFFFFFFFFFFFFFFFFFFFFFFFFFFFFFFFFFFFFF DUP3 AND SWAP1 POP SWAP2 SWAP1 POP JUMP JUMPDEST PUSH0 PUSH3 0xADD DUP3 PUSH3 0xAB2 JUMP JUMPDEST SWAP1 POP SWAP2 SWAP1 POP JUMP JUMPDEST PUSH3 0xAEF DUP2 PUSH3 0xAD1 JUMP JUMPDEST DUP2 EQ PUSH3 0xAFA JUMPI PUSH0 DUP1 REVERT JUMPDEST POP JUMP JUMPDEST PUSH0 DUP2 MLOAD SWAP1 POP PUSH3 0xB0D DUP2 PUSH3 0xAE4 JUMP JUMPDEST SWAP3 SWAP2 POP POP JUMP JUMPDEST PUSH0 DUP2 SWAP1 POP SWAP2 SWAP1 POP JUMP JUMPDEST PUSH3 0xB27 DUP2 PUSH3 0xB13 JUMP JUMPDEST DUP2 EQ PUSH3 0xB32 JUMPI PUSH0 DUP1 REVERT JUMPDEST POP JUMP JUMPDEST PUSH0 DUP2 MLOAD SWAP1 POP PUSH3 0xB45 DUP2 PUSH3 0xB1C JUMP JUMPDEST SWAP3 SWAP2 POP POP JUMP JUMPDEST PUSH0 DUP1 PUSH0 DUP1 PUSH0 DUP1 PUSH0 PUSH1 0xE0 DUP9 DUP11 SUB SLT ISZERO PUSH3 0xB69 JUMPI PUSH3 0xB68 PUSH3 0xAAE JUMP JUMPDEST JUMPDEST PUSH0 PUSH3 0xB78 DUP11 DUP3 DUP12 ADD PUSH3 0xAFD JUMP JUMPDEST SWAP8 POP POP PUSH1 0x20 PUSH3 0xB8B DUP11 DUP3 DUP12 ADD PUSH3 0xAFD JUMP JUMPDEST SWAP7 POP POP PUSH1 0x40 PUSH3 0xB9E DUP11 DUP3 DUP12 ADD PUSH3 0xAFD JUMP JUMPDEST SWAP6 POP POP PUSH1 0x60 PUSH3 0xBB1 DUP11 DUP3 DUP12 ADD PUSH3 0xAFD JUMP JUMPDEST SWAP5 POP POP PUSH1 0x80 PUSH3 0xBC4 DUP11 DUP3 DUP12 ADD PUSH3 0xAFD JUMP JUMPDEST SWAP4 POP POP PUSH1 0xA0 PUSH3 0xBD7 DUP11 DUP3 DUP12 ADD PUSH3 0xAFD JUMP JUMPDEST SWAP3 POP POP PUSH1 0xC0 PUSH3 0xBEA DUP11 DUP3 DUP12 ADD PUSH3 0xB35 JUMP JUMPDEST SWAP2 POP POP SWAP3 SWAP6 SWAP9 SWAP2 SWAP5 SWAP8 POP SWAP3 SWAP6 POP JUMP JUMPDEST PUSH0 DUP3 DUP3 MSTORE PUSH1 0x20 DUP3 ADD SWAP1 POP SWAP3 SWAP2 POP POP JUMP JUMPDEST PUSH32 0x4F776E657220616464726573732063616E6E6F74206265203000000000000000 PUSH0 DUP3 ADD MSTORE POP JUMP JUMPDEST PUSH0 PUSH3 0xC3F PUSH1 0x19 DUP4 PUSH3 0xBF9 JUMP JUMPDEST SWAP2 POP PUSH3 0xC4C DUP3 PUSH3 0xC09 JUMP JUMPDEST PUSH1 0x20 DUP3 ADD SWAP1 POP SWAP2 SWAP1 POP JUMP JUMPDEST PUSH0 PUSH1 0x20 DUP3 ADD SWAP1 POP DUP2 DUP2 SUB PUSH0 DUP4 ADD MSTORE PUSH3 0xC70 DUP2 PUSH3 0xC31 JUMP JUMPDEST SWAP1 POP SWAP2 SWAP1 POP JUMP JUMPDEST PUSH3 0xC82 DUP2 PUSH3 0xAD1 JUMP JUMPDEST DUP3 MSTORE POP POP JUMP JUMPDEST PUSH0 PUSH1 0x40 DUP3 ADD SWAP1 POP PUSH3 0xC9D PUSH0 DUP4 ADD DUP6 PUSH3 0xC77 JUMP JUMPDEST PUSH3 0xCAC PUSH1 0x20 DUP4 ADD DUP5 PUSH3 0xC77 JUMP JUMPDEST SWAP4 SWAP3 POP POP POP JUMP JUMPDEST PUSH32 0x5A65726F20616464726573732064657465637465640000000000000000000000 PUSH0 DUP3 ADD MSTORE POP JUMP JUMPDEST PUSH0 PUSH3 0xCE9 PUSH1 0x15 DUP4 PUSH3 0xBF9 JUMP JUMPDEST SWAP2 POP PUSH3 0xCF6 DUP3 PUSH3 0xCB3 JUMP JUMPDEST PUSH1 0x20 DUP3 ADD SWAP1 POP SWAP2 SWAP1 POP JUMP JUMPDEST PUSH0 PUSH1 0x20 DUP3 ADD SWAP1 POP DUP2 DUP2 SUB PUSH0 DUP4 ADD MSTORE PUSH3 0xD1A DUP2 PUSH3 0xCDB JUMP JUMPDEST SWAP1 POP SWAP2 SWAP1 POP JUMP JUMPDEST PUSH0 PUSH1 0xFF DUP3 AND SWAP1 POP SWAP2 SWAP1 POP JUMP JUMPDEST PUSH3 0xD38 DUP2 PUSH3 0xD21 JUMP JUMPDEST DUP2 EQ PUSH3 0xD43 JUMPI PUSH0 DUP1 REVERT JUMPDEST POP JUMP JUMPDEST PUSH0 DUP2 MLOAD SWAP1 POP PUSH3 0xD56 DUP2 PUSH3 0xD2D JUMP JUMPDEST SWAP3 SWAP2 POP POP JUMP JUMPDEST PUSH0 PUSH1 0x20 DUP3 DUP5 SUB SLT ISZERO PUSH3 0xD74 JUMPI PUSH3 0xD73 PUSH3 0xAAE JUMP JUMPDEST JUMPDEST PUSH0 PUSH3 0xD83 DUP5 DUP3 DUP6 ADD PUSH3 0xD46 JUMP JUMPDEST SWAP2 POP POP SWAP3 SWAP2 POP POP JUMP JUMPDEST PUSH32 0x416363657373436F6E74726F6C3A2073656E646572206D75737420626520616E PUSH0 DUP3 ADD MSTORE PUSH32 0x2061646D696E20746F206772616E740000000000000000000000000000000000 PUSH1 0x20 DUP3 ADD MSTORE POP JUMP JUMPDEST PUSH0 PUSH3 0xDE8 PUSH1 0x2F DUP4 PUSH3 0xBF9 JUMP JUMPDEST SWAP2 POP PUSH3 0xDF5 DUP3 PUSH3 0xD8C JUMP JUMPDEST PUSH1 0x40 DUP3 ADD SWAP1 POP SWAP2 SWAP1 POP JUMP JUMPDEST PUSH0 PUSH1 0x20 DUP3 ADD SWAP1 POP DUP2 DUP2 SUB PUSH0 DUP4 ADD MSTORE PUSH3 0xE19 DUP2 PUSH3 0xDDA JUMP JUMPDEST SWAP1 POP SWAP2 SWAP1 POP JUMP JUMPDEST PUSH0 DUP2 MLOAD SWAP1 POP SWAP2 SWAP1 POP JUMP JUMPDEST PUSH0 JUMPDEST DUP4 DUP2 LT ISZERO PUSH3 0xE49 JUMPI DUP1 DUP3 ADD MLOAD DUP2 DUP5 ADD MSTORE PUSH1 0x20 DUP2 ADD SWAP1 POP PUSH3 0xE2C JUMP JUMPDEST PUSH0 DUP5 DUP5 ADD MSTORE POP POP POP POP JUMP JUMPDEST PUSH0 PUSH1 0x1F NOT PUSH1 0x1F DUP4 ADD AND SWAP1 POP SWAP2 SWAP1 POP JUMP JUMPDEST PUSH0 PUSH3 0xE70 DUP3 PUSH3 0xE20 JUMP JUMPDEST PUSH3 0xE7C DUP2 DUP6 PUSH3 0xBF9 JUMP JUMPDEST SWAP4 POP PUSH3 0xE8E DUP2 DUP6 PUSH1 0x20 DUP7 ADD PUSH3 0xE2A JUMP JUMPDEST PUSH3 0xE99 DUP2 PUSH3 0xE54 JUMP JUMPDEST DUP5 ADD SWAP2 POP POP SWAP3 SWAP2 POP POP JUMP JUMPDEST PUSH0 PUSH1 0x20 DUP3 ADD SWAP1 POP DUP2 DUP2 SUB PUSH0 DUP4 ADD MSTORE PUSH3 0xEBE DUP2 DUP5 PUSH3 0xE64 JUMP JUMPDEST SWAP1 POP SWAP3 SWAP2 POP POP JUMP JUMPDEST PUSH32 0x4E487B7100000000000000000000000000000000000000000000000000000000 PUSH0 MSTORE PUSH1 0x11 PUSH1 0x4 MSTORE PUSH1 0x24 PUSH0 REVERT JUMPDEST PUSH0 PUSH3 0xEFF DUP3 PUSH3 0xB13 JUMP JUMPDEST SWAP2 POP PUSH3 0xF0C DUP4 PUSH3 0xB13 JUMP JUMPDEST SWAP3 POP DUP3 DUP3 SUB SWAP1 POP DUP2 DUP2 GT ISZERO PUSH3 0xF27 JUMPI PUSH3 0xF26 PUSH3 0xEC6 JUMP JUMPDEST JUMPDEST SWAP3 SWAP2 POP POP JUMP JUMPDEST PUSH1 0x80 MLOAD PUSH2 0x76B1 PUSH3 0xF85 PUSH0 CODECOPY PUSH0 DUP2 DUP2 PUSH2 0xD6D ADD MSTORE DUP2 DUP2 PUSH2 0xF69 ADD MSTORE DUP2 DUP2 PUSH2 0x103B ADD MSTORE DUP2 DUP2 PUSH2 0x1823 ADD MSTORE DUP2 DUP2 PUSH2 0x1D34 ADD MSTORE DUP2 DUP2 PUSH2 0x2231 ADD MSTORE DUP2 DUP2 PUSH2 0x35B5 ADD MSTORE DUP2 DUP2 PUSH2 0x3C65 ADD MSTORE DUP2 DUP2 PUSH2 0x3F71 ADD MSTORE PUSH2 0x52AC ADD MSTORE PUSH2 0x76B1 PUSH0 RETURN INVALID PUSH1 0x80 PUSH1 0x40 MSTORE CALLVALUE DUP1 ISZERO PUSH2 0xF JUMPI PUSH0 DUP1 REVERT JUMPDEST POP PUSH1 0x4 CALLDATASIZE LT PUSH2 0x325 JUMPI PUSH0 CALLDATALOAD PUSH1 0xE0 SHR DUP1 PUSH4 0x7D55094D GT PUSH2 0x1B6 JUMPI DUP1 PUSH4 0xB235D468 GT PUSH2 0x102 JUMPI DUP1 PUSH4 0xCB73999F GT PUSH2 0xA0 JUMPI DUP1 PUSH4 0xDCA96408 GT PUSH2 0x7A JUMPI DUP1 PUSH4 0xDCA96408 EQ PUSH2 0x8CD JUMPI DUP1 PUSH4 0xF61ADAB2 EQ PUSH2 0x8E9 JUMPI DUP1 PUSH4 0xF7683BBC EQ PUSH2 0x907 JUMPI DUP1 PUSH4 0xFEDE5C9C EQ PUSH2 0x925 JUMPI PUSH2 0x325 JUMP JUMPDEST DUP1 PUSH4 0xCB73999F EQ PUSH2 0x889 JUMPI DUP1 PUSH4 0xD547741F EQ PUSH2 0x8A7 JUMPI DUP1 PUSH4 0xDAA50485 EQ PUSH2 0x8C3 JUMPI PUSH2 0x325 JUMP JUMPDEST DUP1 PUSH4 0xC3355B8D GT PUSH2 0xDC JUMPI DUP1 PUSH4 0xC3355B8D EQ PUSH2 0x7ED JUMPI DUP1 PUSH4 0xC74EC56A EQ PUSH2 0x80B JUMPI DUP1 PUSH4 0xC76417D7 EQ PUSH2 0x829 JUMPI DUP1 PUSH4 0xCA15C873 EQ PUSH2 0x859 JUMPI PUSH2 0x325 JUMP JUMPDEST DUP1 PUSH4 0xB235D468 EQ PUSH2 0x797 JUMPI DUP1 PUSH4 0xBDACB303 EQ PUSH2 0x7B5 JUMPI DUP1 PUSH4 0xBDB345CB EQ PUSH2 0x7D1 JUMPI PUSH2 0x325 JUMP JUMPDEST DUP1 PUSH4 0x8BAA4B9F GT PUSH2 0x16F JUMPI DUP1 PUSH4 0x9010D07C GT PUSH2 0x149 JUMPI DUP1 PUSH4 0x9010D07C EQ PUSH2 0x6E9 JUMPI DUP1 PUSH4 0x91D14854 EQ PUSH2 0x719 JUMPI DUP1 PUSH4 0xA217FDDF EQ PUSH2 0x749 JUMPI DUP1 PUSH4 0xABAE2C4C EQ PUSH2 0x767 JUMPI PUSH2 0x325 JUMP JUMPDEST DUP1 PUSH4 0x8BAA4B9F EQ PUSH2 0x68F JUMPI DUP1 PUSH4 0x8D2AC7A4 EQ PUSH2 0x6AD JUMPI DUP1 PUSH4 0x8DA5CB5B EQ PUSH2 0x6CB JUMPI PUSH2 0x325 JUMP JUMPDEST DUP1 PUSH4 0x7D55094D EQ PUSH2 0x5F5 JUMPI DUP1 PUSH4 0x7E108AF9 EQ PUSH2 0x5FF JUMPI DUP1 PUSH4 0x7E4831D3 EQ PUSH2 0x61B JUMPI DUP1 PUSH4 0x7F877F85 EQ PUSH2 0x639 JUMPI DUP1 PUSH4 0x83C7DED7 EQ PUSH2 0x657 JUMPI DUP1 PUSH4 0x88D42CF2 EQ PUSH2 0x673 JUMPI PUSH2 0x325 JUMP JUMPDEST DUP1 PUSH4 0x4EBBE762 GT PUSH2 0x275 JUMPI DUP1 PUSH4 0x6526A12A GT PUSH2 0x22E JUMPI DUP1 PUSH4 0x6F5DB87F GT PUSH2 0x208 JUMPI DUP1 PUSH4 0x6F5DB87F EQ PUSH2 0x595 JUMPI DUP1 PUSH4 0x79BA5097 EQ PUSH2 0x5B1 JUMPI DUP1 PUSH4 0x7AD1F61B EQ PUSH2 0x5BB JUMPI DUP1 PUSH4 0x7B0461E9 EQ PUSH2 0x5D7 JUMPI PUSH2 0x325 JUMP JUMPDEST DUP1 PUSH4 0x6526A12A EQ PUSH2 0x53D JUMPI DUP1 PUSH4 0x658445A8 EQ PUSH2 0x55B JUMPI DUP1 PUSH4 0x6D2C5615 EQ PUSH2 0x577 JUMPI PUSH2 0x325 JUMP JUMPDEST DUP1 PUSH4 0x4EBBE762 EQ PUSH2 0x4A5 JUMPI DUP1 PUSH4 0x50C9ECD9 EQ PUSH2 0x4C1 JUMPI DUP1 PUSH4 0x53A47BB7 EQ PUSH2 0x4CB JUMPI DUP1 PUSH4 0x5BB87B42 EQ PUSH2 0x4E9 JUMPI DUP1 PUSH4 0x5BD82663 EQ PUSH2 0x505 JUMPI DUP1 PUSH4 0x645AF53C EQ PUSH2 0x521 JUMPI PUSH2 0x325 JUMP JUMPDEST DUP1 PUSH4 0x248A9CA3 GT PUSH2 0x2E2 JUMPI DUP1 PUSH4 0x373453F4 GT PUSH2 0x2BC JUMPI DUP1 PUSH4 0x373453F4 EQ PUSH2 0x441 JUMPI DUP1 PUSH4 0x42D15AEC EQ PUSH2 0x45F JUMPI DUP1 PUSH4 0x4C26203C EQ PUSH2 0x469 JUMPI DUP1 PUSH4 0x4C634934 EQ PUSH2 0x487 JUMPI PUSH2 0x325 JUMP JUMPDEST DUP1 PUSH4 0x248A9CA3 EQ PUSH2 0x3D9 JUMPI DUP1 PUSH4 0x2F2FF15D EQ PUSH2 0x409 JUMPI DUP1 PUSH4 0x36568ABE EQ PUSH2 0x425 JUMPI PUSH2 0x325 JUMP JUMPDEST DUP1 PUSH4 0x8A7493D EQ PUSH2 0x329 JUMPI DUP1 PUSH4 0x101197C7 EQ PUSH2 0x359 JUMPI DUP1 PUSH4 0x12ACE5A2 EQ PUSH2 0x377 JUMPI DUP1 PUSH4 0x15128425 EQ PUSH2 0x381 JUMPI DUP1 PUSH4 0x1627540C EQ PUSH2 0x39F JUMPI DUP1 PUSH4 0x17284C94 EQ PUSH2 0x3BB JUMPI JUMPDEST PUSH0 DUP1 REVERT JUMPDEST PUSH2 0x343 PUSH1 0x4 DUP1 CALLDATASIZE SUB DUP2 ADD SWAP1 PUSH2 0x33E SWAP2 SWAP1 PUSH2 0x5E17 JUMP JUMPDEST PUSH2 0x943 JUMP JUMPDEST PUSH1 0x40 MLOAD PUSH2 0x350 SWAP2 SWAP1 PUSH2 0x5E5A JUMP JUMPDEST PUSH1 0x40 MLOAD DUP1 SWAP2 SUB SWAP1 RETURN JUMPDEST PUSH2 0x361 PUSH2 0x958 JUMP JUMPDEST PUSH1 0x40 MLOAD PUSH2 0x36E SWAP2 SWAP1 PUSH2 0x5E5A JUMP JUMPDEST PUSH1 0x40 MLOAD DUP1 SWAP2 SUB SWAP1 RETURN JUMPDEST PUSH2 0x37F PUSH2 0x95E JUMP JUMPDEST STOP JUMPDEST PUSH2 0x389 PUSH2 0xC30 JUMP JUMPDEST PUSH1 0x40 MLOAD PUSH2 0x396 SWAP2 SWAP1 PUSH2 0x5E5A JUMP JUMPDEST PUSH1 0x40 MLOAD DUP1 SWAP2 SUB SWAP1 RETURN JUMPDEST PUSH2 0x3B9 PUSH1 0x4 DUP1 CALLDATASIZE SUB DUP2 ADD SWAP1 PUSH2 0x3B4 SWAP2 SWAP1 PUSH2 0x5E17 JUMP JUMPDEST PUSH2 0xC36 JUMP JUMPDEST STOP JUMPDEST PUSH2 0x3C3 PUSH2 0xD3F JUMP JUMPDEST PUSH1 0x40 MLOAD PUSH2 0x3D0 SWAP2 SWAP1 PUSH2 0x5E5A JUMP JUMPDEST PUSH1 0x40 MLOAD DUP1 SWAP2 SUB SWAP1 RETURN JUMPDEST PUSH2 0x3F3 PUSH1 0x4 DUP1 CALLDATASIZE SUB DUP2 ADD SWAP1 PUSH2 0x3EE SWAP2 SWAP1 PUSH2 0x5EA6 JUMP JUMPDEST PUSH2 0x1146 JUMP JUMPDEST PUSH1 0x40 MLOAD PUSH2 0x400 SWAP2 SWAP1 PUSH2 0x5EE0 JUMP JUMPDEST PUSH1 0x40 MLOAD DUP1 SWAP2 SUB SWAP1 RETURN JUMPDEST PUSH2 0x423 PUSH1 0x4 DUP1 CALLDATASIZE SUB DUP2 ADD SWAP1 PUSH2 0x41E SWAP2 SWAP1 PUSH2 0x5EF9 JUMP JUMPDEST PUSH2 0x1162 JUMP JUMPDEST STOP JUMPDEST PUSH2 0x43F PUSH1 0x4 DUP1 CALLDATASIZE SUB DUP2 ADD SWAP1 PUSH2 0x43A SWAP2 SWAP1 PUSH2 0x5EF9 JUMP JUMPDEST PUSH2 0x11D3 JUMP JUMPDEST STOP JUMPDEST PUSH2 0x449 PUSH2 0x1256 JUMP JUMPDEST PUSH1 0x40 MLOAD PUSH2 0x456 SWAP2 SWAP1 PUSH2 0x5F92 JUMP JUMPDEST PUSH1 0x40 MLOAD DUP1 SWAP2 SUB SWAP1 RETURN JUMPDEST PUSH2 0x467 PUSH2 0x127B JUMP JUMPDEST STOP JUMPDEST PUSH2 0x471 PUSH2 0x131F JUMP JUMPDEST PUSH1 0x40 MLOAD PUSH2 0x47E SWAP2 SWAP1 PUSH2 0x5E5A JUMP JUMPDEST PUSH1 0x40 MLOAD DUP1 SWAP2 SUB SWAP1 RETURN JUMPDEST PUSH2 0x48F PUSH2 0x1325 JUMP JUMPDEST PUSH1 0x40 MLOAD PUSH2 0x49C SWAP2 SWAP1 PUSH2 0x5E5A JUMP JUMPDEST PUSH1 0x40 MLOAD DUP1 SWAP2 SUB SWAP1 RETURN JUMPDEST PUSH2 0x4BF PUSH1 0x4 DUP1 CALLDATASIZE SUB DUP2 ADD SWAP1 PUSH2 0x4BA SWAP2 SWAP1 PUSH2 0x5FD5 JUMP JUMPDEST PUSH2 0x132B JUMP JUMPDEST STOP JUMPDEST PUSH2 0x4C9 PUSH2 0x148E JUMP JUMPDEST STOP JUMPDEST PUSH2 0x4D3 PUSH2 0x1532 JUMP JUMPDEST PUSH1 0x40 MLOAD PUSH2 0x4E0 SWAP2 SWAP1 PUSH2 0x6081 JUMP JUMPDEST PUSH1 0x40 MLOAD DUP1 SWAP2 SUB SWAP1 RETURN JUMPDEST PUSH2 0x503 PUSH1 0x4 DUP1 CALLDATASIZE SUB DUP2 ADD SWAP1 PUSH2 0x4FE SWAP2 SWAP1 PUSH2 0x609A JUMP JUMPDEST PUSH2 0x1557 JUMP JUMPDEST STOP JUMPDEST PUSH2 0x51F PUSH1 0x4 DUP1 CALLDATASIZE SUB DUP2 ADD SWAP1 PUSH2 0x51A SWAP2 SWAP1 PUSH2 0x60EA JUMP JUMPDEST PUSH2 0x1CDD JUMP JUMPDEST STOP JUMPDEST PUSH2 0x53B PUSH1 0x4 DUP1 CALLDATASIZE SUB DUP2 ADD SWAP1 PUSH2 0x536 SWAP2 SWAP1 PUSH2 0x60EA JUMP JUMPDEST PUSH2 0x2104 JUMP JUMPDEST STOP JUMPDEST PUSH2 0x545 PUSH2 0x25DF JUMP JUMPDEST PUSH1 0x40 MLOAD PUSH2 0x552 SWAP2 SWAP1 PUSH2 0x5E5A JUMP JUMPDEST PUSH1 0x40 MLOAD DUP1 SWAP2 SUB SWAP1 RETURN JUMPDEST PUSH2 0x575 PUSH1 0x4 DUP1 CALLDATASIZE SUB DUP2 ADD SWAP1 PUSH2 0x570 SWAP2 SWAP1 PUSH2 0x60EA JUMP JUMPDEST PUSH2 0x25E5 JUMP JUMPDEST STOP JUMPDEST PUSH2 0x57F PUSH2 0x29AE JUMP JUMPDEST PUSH1 0x40 MLOAD PUSH2 0x58C SWAP2 SWAP1 PUSH2 0x6142 JUMP JUMPDEST PUSH1 0x40 MLOAD DUP1 SWAP2 SUB SWAP1 RETURN JUMPDEST PUSH2 0x5AF PUSH1 0x4 DUP1 CALLDATASIZE SUB DUP2 ADD SWAP1 PUSH2 0x5AA SWAP2 SWAP1 PUSH2 0x60EA JUMP JUMPDEST PUSH2 0x29C1 JUMP JUMPDEST STOP JUMPDEST PUSH2 0x5B9 PUSH2 0x2FD7 JUMP JUMPDEST STOP JUMPDEST PUSH2 0x5D5 PUSH1 0x4 DUP1 CALLDATASIZE SUB DUP2 ADD SWAP1 PUSH2 0x5D0 SWAP2 SWAP1 PUSH2 0x615B JUMP JUMPDEST PUSH2 0x3184 JUMP JUMPDEST STOP JUMPDEST PUSH2 0x5DF PUSH2 0x3257 JUMP JUMPDEST PUSH1 0x40 MLOAD PUSH2 0x5EC SWAP2 SWAP1 PUSH2 0x5E5A JUMP JUMPDEST PUSH1 0x40 MLOAD DUP1 SWAP2 SUB SWAP1 RETURN JUMPDEST PUSH2 0x5FD PUSH2 0x325D JUMP JUMPDEST STOP JUMPDEST PUSH2 0x619 PUSH1 0x4 DUP1 CALLDATASIZE SUB DUP2 ADD SWAP1 PUSH2 0x614 SWAP2 SWAP1 PUSH2 0x609A JUMP JUMPDEST PUSH2 0x32FE JUMP JUMPDEST STOP JUMPDEST PUSH2 0x623 PUSH2 0x3BE8 JUMP JUMPDEST PUSH1 0x40 MLOAD PUSH2 0x630 SWAP2 SWAP1 PUSH2 0x6142 JUMP JUMPDEST PUSH1 0x40 MLOAD DUP1 SWAP2 SUB SWAP1 RETURN JUMPDEST PUSH2 0x641 PUSH2 0x3BFA JUMP JUMPDEST PUSH1 0x40 MLOAD PUSH2 0x64E SWAP2 SWAP1 PUSH2 0x6142 JUMP JUMPDEST PUSH1 0x40 MLOAD DUP1 SWAP2 SUB SWAP1 RETURN JUMPDEST PUSH2 0x671 PUSH1 0x4 DUP1 CALLDATASIZE SUB DUP2 ADD SWAP1 PUSH2 0x66C SWAP2 SWAP1 PUSH2 0x60EA JUMP JUMPDEST PUSH2 0x3C0D JUMP JUMPDEST STOP JUMPDEST PUSH2 0x68D PUSH1 0x4 DUP1 CALLDATASIZE SUB DUP2 ADD SWAP1 PUSH2 0x688 SWAP2 SWAP1 PUSH2 0x6186 JUMP JUMPDEST PUSH2 0x42C1 JUMP JUMPDEST STOP JUMPDEST PUSH2 0x697 PUSH2 0x446B JUMP JUMPDEST PUSH1 0x40 MLOAD PUSH2 0x6A4 SWAP2 SWAP1 PUSH2 0x6081 JUMP JUMPDEST PUSH1 0x40 MLOAD DUP1 SWAP2 SUB SWAP1 RETURN JUMPDEST PUSH2 0x6B5 PUSH2 0x4490 JUMP JUMPDEST PUSH1 0x40 MLOAD PUSH2 0x6C2 SWAP2 SWAP1 PUSH2 0x6142 JUMP JUMPDEST PUSH1 0x40 MLOAD DUP1 SWAP2 SUB SWAP1 RETURN JUMPDEST PUSH2 0x6D3 PUSH2 0x44A3 JUMP JUMPDEST PUSH1 0x40 MLOAD PUSH2 0x6E0 SWAP2 SWAP1 PUSH2 0x6081 JUMP JUMPDEST PUSH1 0x40 MLOAD DUP1 SWAP2 SUB SWAP1 RETURN JUMPDEST PUSH2 0x703 PUSH1 0x4 DUP1 CALLDATASIZE SUB DUP2 ADD SWAP1 PUSH2 0x6FE SWAP2 SWAP1 PUSH2 0x61C4 JUMP JUMPDEST PUSH2 0x44C8 JUMP JUMPDEST PUSH1 0x40 MLOAD PUSH2 0x710 SWAP2 SWAP1 PUSH2 0x6081 JUMP JUMPDEST PUSH1 0x40 MLOAD DUP1 SWAP2 SUB SWAP1 RETURN JUMPDEST PUSH2 0x733 PUSH1 0x4 DUP1 CALLDATASIZE SUB DUP2 ADD SWAP1 PUSH2 0x72E SWAP2 SWAP1 PUSH2 0x5EF9 JUMP JUMPDEST PUSH2 0x44F5 JUMP JUMPDEST PUSH1 0x40 MLOAD PUSH2 0x740 SWAP2 SWAP1 PUSH2 0x6142 JUMP JUMPDEST PUSH1 0x40 MLOAD DUP1 SWAP2 SUB SWAP1 RETURN JUMPDEST PUSH2 0x751 PUSH2 0x4522 JUMP JUMPDEST PUSH1 0x40 MLOAD PUSH2 0x75E SWAP2 SWAP1 PUSH2 0x5EE0 JUMP JUMPDEST PUSH1 0x40 MLOAD DUP1 SWAP2 SUB SWAP1 RETURN JUMPDEST PUSH2 0x781 PUSH1 0x4 DUP1 CALLDATASIZE SUB DUP2 ADD SWAP1 PUSH2 0x77C SWAP2 SWAP1 PUSH2 0x5E17 JUMP JUMPDEST PUSH2 0x4528 JUMP JUMPDEST PUSH1 0x40 MLOAD PUSH2 0x78E SWAP2 SWAP1 PUSH2 0x5E5A JUMP JUMPDEST PUSH1 0x40 MLOAD DUP1 SWAP2 SUB SWAP1 RETURN JUMPDEST PUSH2 0x79F PUSH2 0x453D JUMP JUMPDEST PUSH1 0x40 MLOAD PUSH2 0x7AC SWAP2 SWAP1 PUSH2 0x6142 JUMP JUMPDEST PUSH1 0x40 MLOAD DUP1 SWAP2 SUB SWAP1 RETURN JUMPDEST PUSH2 0x7CF PUSH1 0x4 DUP1 CALLDATASIZE SUB DUP2 ADD SWAP1 PUSH2 0x7CA SWAP2 SWAP1 PUSH2 0x5E17 JUMP JUMPDEST PUSH2 0x4550 JUMP JUMPDEST STOP JUMPDEST PUSH2 0x7EB PUSH1 0x4 DUP1 CALLDATASIZE SUB DUP2 ADD SWAP1 PUSH2 0x7E6 SWAP2 SWAP1 PUSH2 0x60EA JUMP JUMPDEST PUSH2 0x46B0 JUMP JUMPDEST STOP JUMPDEST PUSH2 0x7F5 PUSH2 0x4CE8 JUMP JUMPDEST PUSH1 0x40 MLOAD PUSH2 0x802 SWAP2 SWAP1 PUSH2 0x5E5A JUMP JUMPDEST PUSH1 0x40 MLOAD DUP1 SWAP2 SUB SWAP1 RETURN JUMPDEST PUSH2 0x813 PUSH2 0x4CEE JUMP JUMPDEST PUSH1 0x40 MLOAD PUSH2 0x820 SWAP2 SWAP1 PUSH2 0x5E5A JUMP JUMPDEST PUSH1 0x40 MLOAD DUP1 SWAP2 SUB SWAP1 RETURN JUMPDEST PUSH2 0x843 PUSH1 0x4 DUP1 CALLDATASIZE SUB DUP2 ADD SWAP1 PUSH2 0x83E SWAP2 SWAP1 PUSH2 0x5E17 JUMP JUMPDEST PUSH2 0x4CF4 JUMP JUMPDEST PUSH1 0x40 MLOAD PUSH2 0x850 SWAP2 SWAP1 PUSH2 0x5E5A JUMP JUMPDEST PUSH1 0x40 MLOAD DUP1 SWAP2 SUB SWAP1 RETURN JUMPDEST PUSH2 0x873 PUSH1 0x4 DUP1 CALLDATASIZE SUB DUP2 ADD SWAP1 PUSH2 0x86E SWAP2 SWAP1 PUSH2 0x5EA6 JUMP JUMPDEST PUSH2 0x4D09 JUMP JUMPDEST PUSH1 0x40 MLOAD PUSH2 0x880 SWAP2 SWAP1 PUSH2 0x5E5A JUMP JUMPDEST PUSH1 0x40 MLOAD DUP1 SWAP2 SUB SWAP1 RETURN JUMPDEST PUSH2 0x891 PUSH2 0x4D2B JUMP JUMPDEST PUSH1 0x40 MLOAD PUSH2 0x89E SWAP2 SWAP1 PUSH2 0x5E5A JUMP JUMPDEST PUSH1 0x40 MLOAD DUP1 SWAP2 SUB SWAP1 RETURN JUMPDEST PUSH2 0x8C1 PUSH1 0x4 DUP1 CALLDATASIZE SUB DUP2 ADD SWAP1 PUSH2 0x8BC SWAP2 SWAP1 PUSH2 0x5EF9 JUMP JUMPDEST PUSH2 0x4D31 JUMP JUMPDEST STOP JUMPDEST PUSH2 0x8CB PUSH2 0x4DA2 JUMP JUMPDEST STOP JUMPDEST PUSH2 0x8E7 PUSH1 0x4 DUP1 CALLDATASIZE SUB DUP2 ADD SWAP1 PUSH2 0x8E2 SWAP2 SWAP1 PUSH2 0x5E17 JUMP JUMPDEST PUSH2 0x4E46 JUMP JUMPDEST STOP JUMPDEST PUSH2 0x8F1 PUSH2 0x4F6F JUMP JUMPDEST PUSH1 0x40 MLOAD PUSH2 0x8FE SWAP2 SWAP1 PUSH2 0x5E5A JUMP JUMPDEST PUSH1 0x40 MLOAD DUP1 SWAP2 SUB SWAP1 RETURN JUMPDEST PUSH2 0x90F PUSH2 0x5191 JUMP JUMPDEST PUSH1 0x40 MLOAD PUSH2 0x91C SWAP2 SWAP1 PUSH2 0x5E5A JUMP JUMPDEST PUSH1 0x40 MLOAD DUP1 SWAP2 SUB SWAP1 RETURN JUMPDEST PUSH2 0x92D PUSH2 0x536C JUMP JUMPDEST PUSH1 0x40 MLOAD PUSH2 0x93A SWAP2 SWAP1 PUSH2 0x5E5A JUMP JUMPDEST PUSH1 0x40 MLOAD DUP1 SWAP2 SUB SWAP1 RETURN JUMPDEST PUSH1 0x13 PUSH1 0x20 MSTORE DUP1 PUSH0 MSTORE PUSH1 0x40 PUSH0 KECCAK256 PUSH0 SWAP2 POP SWAP1 POP SLOAD DUP2 JUMP JUMPDEST PUSH1 0x10 SLOAD DUP2 JUMP JUMPDEST NUMBER PUSH2 0x9B1 PUSH1 0x1A SLOAD PUSH1 0x16 PUSH0 CALLER PUSH20 0xFFFFFFFFFFFFFFFFFFFFFFFFFFFFFFFFFFFFFFFF AND PUSH20 0xFFFFFFFFFFFFFFFFFFFFFFFFFFFFFFFFFFFFFFFF AND DUP2 MSTORE PUSH1 0x20 ADD SWAP1 DUP2 MSTORE PUSH1 0x20 ADD PUSH0 KECCAK256 SLOAD PUSH2 0x5372 SWAP1 SWAP2 SWAP1 PUSH4 0xFFFFFFFF AND JUMP JUMPDEST GT ISZERO PUSH2 0x9F2 JUMPI PUSH1 0x40 MLOAD PUSH32 0x8C379A000000000000000000000000000000000000000000000000000000000 DUP2 MSTORE PUSH1 0x4 ADD PUSH2 0x9E9 SWAP1 PUSH2 0x62A8 JUMP JUMPDEST PUSH1 0x40 MLOAD DUP1 SWAP2 SUB SWAP1 REVERT JUMPDEST PUSH0 DUP1 PUSH0 DUP1 PUSH0 PUSH1 0x12 PUSH0 CALLER PUSH20 0xFFFFFFFFFFFFFFFFFFFFFFFFFFFFFFFFFFFFFFFF AND PUSH20 0xFFFFFFFFFFFFFFFFFFFFFFFFFFFFFFFFFFFFFFFF AND DUP2 MSTORE PUSH1 0x20 ADD SWAP1 DUP2 MSTORE PUSH1 0x20 ADD PUSH0 KECCAK256 SLOAD GT ISZERO PUSH2 0xADD JUMPI PUSH1 0x12 PUSH0 CALLER PUSH20 0xFFFFFFFFFFFFFFFFFFFFFFFFFFFFFFFFFFFFFFFF AND PUSH20 0xFFFFFFFFFFFFFFFFFFFFFFFFFFFFFFFFFFFFFFFF AND DUP2 MSTORE PUSH1 0x20 ADD SWAP1 DUP2 MSTORE PUSH1 0x20 ADD PUSH0 KECCAK256 SLOAD SWAP2 POP PUSH0 PUSH1 0x12 PUSH0 CALLER PUSH20 0xFFFFFFFFFFFFFFFFFFFFFFFFFFFFFFFFFFFFFFFF AND PUSH20 0xFFFFFFFFFFFFFFFFFFFFFFFFFFFFFFFFFFFFFFFF AND DUP2 MSTORE PUSH1 0x20 ADD SWAP1 DUP2 MSTORE PUSH1 0x20 ADD PUSH0 KECCAK256 DUP2 SWAP1 SSTORE POP PUSH2 0xAD2 DUP3 PUSH1 0x15 SLOAD PUSH2 0x53CF SWAP1 SWAP2 SWAP1 PUSH4 0xFFFFFFFF AND JUMP JUMPDEST PUSH1 0x15 DUP2 SWAP1 SSTORE POP PUSH1 0x1 SWAP4 POP JUMPDEST PUSH0 PUSH1 0x13 PUSH0 CALLER PUSH20 0xFFFFFFFFFFFFFFFFFFFFFFFFFFFFFFFFFFFFFFFF AND PUSH20 0xFFFFFFFFFFFFFFFFFFFFFFFFFFFFFFFFFFFFFFFF AND DUP2 MSTORE PUSH1 0x20 ADD SWAP1 DUP2 MSTORE PUSH1 0x20 ADD PUSH0 KECCAK256 SLOAD GT ISZERO PUSH2 0xBC4 JUMPI PUSH1 0x13 PUSH0 CALLER PUSH20 0xFFFFFFFFFFFFFFFFFFFFFFFFFFFFFFFFFFFFFFFF AND PUSH20 0xFFFFFFFFFFFFFFFFFFFFFFFFFFFFFFFFFFFFFFFF AND DUP2 MSTORE PUSH1 0x20 ADD SWAP1 DUP2 MSTORE PUSH1 0x20 ADD PUSH0 KECCAK256 SLOAD SWAP1 POP PUSH0 PUSH1 0x13 PUSH0 CALLER PUSH20 0xFFFFFFFFFFFFFFFFFFFFFFFFFFFFFFFFFFFFFFFF AND PUSH20 0xFFFFFFFFFFFFFFFFFFFFFFFFFFFFFFFFFFFFFFFF AND DUP2 MSTORE PUSH1 0x20 ADD SWAP1 DUP2 MSTORE PUSH1 0x20 ADD PUSH0 KECCAK256 DUP2 SWAP1 SSTORE POP PUSH2 0xBB9 DUP2 PUSH1 0x14 SLOAD PUSH2 0x53CF SWAP1 SWAP2 SWAP1 PUSH4 0xFFFFFFFF AND JUMP JUMPDEST PUSH1 0x14 DUP2 SWAP1 SSTORE POP PUSH1 0x1 SWAP3 POP JUMPDEST DUP4 ISZERO PUSH2 0xBF7 JUMPI PUSH2 0xBF6 PUSH1 0x8 PUSH0 SWAP1 SLOAD SWAP1 PUSH2 0x100 EXP SWAP1 DIV PUSH20 0xFFFFFFFFFFFFFFFFFFFFFFFFFFFFFFFFFFFFFFFF AND CALLER DUP5 PUSH2 0x5418 JUMP JUMPDEST JUMPDEST DUP3 ISZERO PUSH2 0xC2A JUMPI PUSH2 0xC29 PUSH1 0x3 PUSH0 SWAP1 SLOAD SWAP1 PUSH2 0x100 EXP SWAP1 DIV PUSH20 0xFFFFFFFFFFFFFFFFFFFFFFFFFFFFFFFFFFFFFFFF AND CALLER DUP4 PUSH2 0x5418 JUMP JUMPDEST JUMPDEST POP POP POP POP JUMP JUMPDEST PUSH1 0x1A SLOAD DUP2 JUMP JUMPDEST PUSH1 0x1 PUSH0 SWAP1 SLOAD SWAP1 PUSH2 0x100 EXP SWAP1 DIV PUSH20 0xFFFFFFFFFFFFFFFFFFFFFFFFFFFFFFFFFFFFFFFF AND PUSH20 0xFFFFFFFFFFFFFFFFFFFFFFFFFFFFFFFFFFFFFFFF AND CALLER PUSH20 0xFFFFFFFFFFFFFFFFFFFFFFFFFFFFFFFFFFFFFFFF AND EQ PUSH2 0xCC5 JUMPI PUSH1 0x40 MLOAD PUSH32 0x8C379A000000000000000000000000000000000000000000000000000000000 DUP2 MSTORE PUSH1 0x4 ADD PUSH2 0xCBC SWAP1 PUSH2 0x6336 JUMP JUMPDEST PUSH1 0x40 MLOAD DUP1 SWAP2 SUB SWAP1 REVERT JUMPDEST DUP1 PUSH1 0x2 PUSH0 PUSH2 0x100 EXP DUP2 SLOAD DUP2 PUSH20 0xFFFFFFFFFFFFFFFFFFFFFFFFFFFFFFFFFFFFFFFF MUL NOT AND SWAP1 DUP4 PUSH20 0xFFFFFFFFFFFFFFFFFFFFFFFFFFFFFFFFFFFFFFFF AND MUL OR SWAP1 SSTORE POP PUSH32 0x906A1C6BD7E3091EA86693DD029A831C19049CE77F1DCE2CE0BAB1CACBABCE22 DUP2 PUSH1 0x40 MLOAD PUSH2 0xD34 SWAP2 SWAP1 PUSH2 0x6081 JUMP JUMPDEST PUSH1 0x40 MLOAD DUP1 SWAP2 SUB SWAP1 LOG1 POP JUMP JUMPDEST PUSH0 PUSH1 0x1 ISZERO ISZERO PUSH1 0x1B PUSH1 0x4 SWAP1 SLOAD SWAP1 PUSH2 0x100 EXP SWAP1 DIV PUSH1 0xFF AND ISZERO ISZERO SUB PUSH2 0xE76 JUMPI PUSH2 0xE6F PUSH3 0xF4240 PUSH2 0xE61 PUSH1 0x18 SLOAD PUSH2 0xE53 PUSH32 0x0 PUSH1 0xA PUSH2 0xD98 SWAP2 SWAP1 PUSH2 0x64B0 JUMP JUMPDEST PUSH2 0xE45 PUSH1 0x14 SLOAD PUSH1 0x3 PUSH0 SWAP1 SLOAD SWAP1 PUSH2 0x100 EXP SWAP1 DIV PUSH20 0xFFFFFFFFFFFFFFFFFFFFFFFFFFFFFFFFFFFFFFFF AND PUSH20 0xFFFFFFFFFFFFFFFFFFFFFFFFFFFFFFFFFFFFFFFF AND PUSH4 0x70A08231 ADDRESS PUSH1 0x40 MLOAD DUP3 PUSH4 0xFFFFFFFF AND PUSH1 0xE0 SHL DUP2 MSTORE PUSH1 0x4 ADD PUSH2 0xDF8 SWAP2 SWAP1 PUSH2 0x6081 JUMP JUMPDEST PUSH1 0x20 PUSH1 0x40 MLOAD DUP1 DUP4 SUB DUP2 DUP7 GAS STATICCALL ISZERO DUP1 ISZERO PUSH2 0xE13 JUMPI RETURNDATASIZE PUSH0 DUP1 RETURNDATACOPY RETURNDATASIZE PUSH0 REVERT JUMPDEST POP POP POP POP PUSH1 0x40 MLOAD RETURNDATASIZE PUSH1 0x1F NOT PUSH1 0x1F DUP3 ADD AND DUP3 ADD DUP1 PUSH1 0x40 MSTORE POP DUP2 ADD SWAP1 PUSH2 0xE37 SWAP2 SWAP1 PUSH2 0x650E JUMP JUMPDEST PUSH2 0x53CF SWAP1 SWAP2 SWAP1 PUSH4 0xFFFFFFFF AND JUMP JUMPDEST PUSH2 0x5548 SWAP1 SWAP2 SWAP1 PUSH4 0xFFFFFFFF AND JUMP JUMPDEST PUSH2 0x5548 SWAP1 SWAP2 SWAP1 PUSH4 0xFFFFFFFF AND JUMP JUMPDEST PUSH2 0x55BF SWAP1 SWAP2 SWAP1 PUSH4 0xFFFFFFFF AND JUMP JUMPDEST SWAP1 POP PUSH2 0x1143 JUMP JUMPDEST PUSH0 PUSH1 0x9 PUSH0 SWAP1 SLOAD SWAP1 PUSH2 0x100 EXP SWAP1 DIV PUSH20 0xFFFFFFFFFFFFFFFFFFFFFFFFFFFFFFFFFFFFFFFF AND PUSH20 0xFFFFFFFFFFFFFFFFFFFFFFFFFFFFFFFFFFFFFFFF AND PUSH4 0x345BA24B PUSH1 0x40 MLOAD DUP2 PUSH4 0xFFFFFFFF AND PUSH1 0xE0 SHL DUP2 MSTORE PUSH1 0x4 ADD PUSH1 0x20 PUSH1 0x40 MLOAD DUP1 DUP4 SUB DUP2 DUP7 GAS STATICCALL ISZERO DUP1 ISZERO PUSH2 0xEE1 JUMPI RETURNDATASIZE PUSH0 DUP1 RETURNDATACOPY RETURNDATASIZE PUSH0 REVERT JUMPDEST POP POP POP POP PUSH1 0x40 MLOAD RETURNDATASIZE PUSH1 0x1F NOT PUSH1 0x1F DUP3 ADD AND DUP3 ADD DUP1 PUSH1 0x40 MSTORE POP DUP2 ADD SWAP1 PUSH2 0xF05 SWAP2 SWAP1 PUSH2 0x650E JUMP JUMPDEST SWAP1 POP PUSH0 PUSH1 0xB PUSH0 SWAP1 SLOAD SWAP1 PUSH2 0x100 EXP SWAP1 DIV PUSH20 0xFFFFFFFFFFFFFFFFFFFFFFFFFFFFFFFFFFFFFFFF AND PUSH20 0xFFFFFFFFFFFFFFFFFFFFFFFFFFFFFFFFFFFFFFFF AND PUSH4 0x3DDAC953 PUSH1 0xD PUSH0 SWAP1 SLOAD SWAP1 PUSH2 0x100 EXP SWAP1 DIV PUSH20 0xFFFFFFFFFFFFFFFFFFFFFFFFFFFFFFFFFFFFFFFF AND PUSH32 0x0 PUSH1 0xA PUSH2 0xF94 SWAP2 SWAP1 PUSH2 0x64B0 JUMP JUMPDEST PUSH3 0xF4240 PUSH2 0xFA2 SWAP2 SWAP1 PUSH2 0x6539 JUMP JUMPDEST PUSH1 0x40 MLOAD DUP4 PUSH4 0xFFFFFFFF AND PUSH1 0xE0 SHL DUP2 MSTORE PUSH1 0x4 ADD PUSH2 0xFBF SWAP3 SWAP2 SWAP1 PUSH2 0x657A JUMP JUMPDEST PUSH1 0x20 PUSH1 0x40 MLOAD DUP1 DUP4 SUB DUP2 DUP7 GAS STATICCALL ISZERO DUP1 ISZERO PUSH2 0xFDA JUMPI RETURNDATASIZE PUSH0 DUP1 RETURNDATACOPY RETURNDATASIZE PUSH0 REVERT JUMPDEST POP POP POP POP PUSH1 0x40 MLOAD RETURNDATASIZE PUSH1 0x1F NOT PUSH1 0x1F DUP3 ADD AND DUP3 ADD DUP1 PUSH1 0x40 MSTORE POP DUP2 ADD SWAP1 PUSH2 0xFFE SWAP2 SWAP1 PUSH2 0x650E JUMP JUMPDEST SWAP1 POP PUSH0 PUSH2 0x1029 DUP3 PUSH2 0x101B PUSH3 0xF4240 DUP7 PUSH2 0x5548 SWAP1 SWAP2 SWAP1 PUSH4 0xFFFFFFFF AND JUMP JUMPDEST PUSH2 0x55BF SWAP1 SWAP2 SWAP1 PUSH4 0xFFFFFFFF AND JUMP JUMPDEST SWAP1 POP PUSH2 0x113D PUSH3 0xF4240 PUSH2 0x112F DUP4 PUSH2 0x1121 PUSH32 0x0 PUSH1 0xA PUSH2 0x1066 SWAP2 SWAP1 PUSH2 0x64B0 JUMP JUMPDEST PUSH2 0x1113 PUSH1 0x14 SLOAD PUSH1 0x3 PUSH0 SWAP1 SLOAD SWAP1 PUSH2 0x100 EXP SWAP1 DIV PUSH20 0xFFFFFFFFFFFFFFFFFFFFFFFFFFFFFFFFFFFFFFFF AND PUSH20 0xFFFFFFFFFFFFFFFFFFFFFFFFFFFFFFFFFFFFFFFF AND PUSH4 0x70A08231 ADDRESS PUSH1 0x40 MLOAD DUP3 PUSH4 0xFFFFFFFF AND PUSH1 0xE0 SHL DUP2 MSTORE PUSH1 0x4 ADD PUSH2 0x10C6 SWAP2 SWAP1 PUSH2 0x6081 JUMP JUMPDEST PUSH1 0x20 PUSH1 0x40 MLOAD DUP1 DUP4 SUB DUP2 DUP7 GAS STATICCALL ISZERO DUP1 ISZERO PUSH2 0x10E1 JUMPI RETURNDATASIZE PUSH0 DUP1 RETURNDATACOPY RETURNDATASIZE PUSH0 REVERT JUMPDEST POP POP POP POP PUSH1 0x40 MLOAD RETURNDATASIZE PUSH1 0x1F NOT PUSH1 0x1F DUP3 ADD AND DUP3 ADD DUP1 PUSH1 0x40 MSTORE POP DUP2 ADD SWAP1 PUSH2 0x1105 SWAP2 SWAP1 PUSH2 0x650E JUMP JUMPDEST PUSH2 0x53CF SWAP1 SWAP2 SWAP1 PUSH4 0xFFFFFFFF AND JUMP JUMPDEST PUSH2 0x5548 SWAP1 SWAP2 SWAP1 PUSH4 0xFFFFFFFF AND JUMP JUMPDEST PUSH2 0x5548 SWAP1 SWAP2 SWAP1 PUSH4 0xFFFFFFFF AND JUMP JUMPDEST PUSH2 0x55BF SWAP1 SWAP2 SWAP1 PUSH4 0xFFFFFFFF AND JUMP JUMPDEST SWAP4 POP POP POP POP JUMPDEST SWAP1 JUMP JUMPDEST PUSH0 DUP1 PUSH0 DUP4 DUP2 MSTORE PUSH1 0x20 ADD SWAP1 DUP2 MSTORE PUSH1 0x20 ADD PUSH0 KECCAK256 PUSH1 0x2 ADD SLOAD SWAP1 POP SWAP2 SWAP1 POP JUMP JUMPDEST PUSH2 0x1186 PUSH0 DUP1 DUP5 DUP2 MSTORE PUSH1 0x20 ADD SWAP1 DUP2 MSTORE PUSH1 0x20 ADD PUSH0 KECCAK256 PUSH1 0x2 ADD SLOAD PUSH2 0x1181 PUSH2 0x5608 JUMP JUMPDEST PUSH2 0x44F5 JUMP JUMPDEST PUSH2 0x11C5 JUMPI PUSH1 0x40 MLOAD PUSH32 0x8C379A000000000000000000000000000000000000000000000000000000000 DUP2 MSTORE PUSH1 0x4 ADD PUSH2 0x11BC SWAP1 PUSH2 0x6611 JUMP JUMPDEST PUSH1 0x40 MLOAD DUP1 SWAP2 SUB SWAP1 REVERT JUMPDEST PUSH2 0x11CF DUP3 DUP3 PUSH2 0x560F JUMP JUMPDEST POP POP JUMP JUMPDEST PUSH2 0x11DB PUSH2 0x5608 JUMP JUMPDEST PUSH20 0xFFFFFFFFFFFFFFFFFFFFFFFFFFFFFFFFFFFFFFFF AND DUP2 PUSH20 0xFFFFFFFFFFFFFFFFFFFFFFFFFFFFFFFFFFFFFFFF AND EQ PUSH2 0x1248 JUMPI PUSH1 0x40 MLOAD PUSH32 0x8C379A000000000000000000000000000000000000000000000000000000000 DUP2 MSTORE PUSH1 0x4 ADD PUSH2 0x123F SWAP1 PUSH2 0x669F JUMP JUMPDEST PUSH1 0x40 MLOAD DUP1 SWAP2 SUB SWAP1 REVERT JUMPDEST PUSH2 0x1252 DUP3 DUP3 PUSH2 0x569F JUMP JUMPDEST POP POP JUMP JUMPDEST PUSH1 0xA PUSH0 SWAP1 SLOAD SWAP1 PUSH2 0x100 EXP SWAP1 DIV PUSH20 0xFFFFFFFFFFFFFFFFFFFFFFFFFFFFFFFFFFFFFFFF AND DUP2 JUMP JUMPDEST PUSH2 0x12A5 PUSH32 0x8118EEB5231A5FE4008A55B62860F6A0DB4F6C3AC04F8141927A9B3FEDD86D2F CALLER PUSH2 0x44F5 JUMP JUMPDEST PUSH2 0x12AD JUMPI PUSH0 DUP1 REVERT JUMPDEST PUSH1 0x1B PUSH1 0x2 SWAP1 SLOAD SWAP1 PUSH2 0x100 EXP SWAP1 DIV PUSH1 0xFF AND ISZERO PUSH1 0x1B PUSH1 0x2 PUSH2 0x100 EXP DUP2 SLOAD DUP2 PUSH1 0xFF MUL NOT AND SWAP1 DUP4 ISZERO ISZERO MUL OR SWAP1 SSTORE POP PUSH32 0x2FDA313D9B5BB0B73BD003153F2FCCBC0DCA49791FDD1184DFAD82B44F54BD2E PUSH1 0x1B PUSH1 0x2 SWAP1 SLOAD SWAP1 PUSH2 0x100 EXP SWAP1 DIV PUSH1 0xFF AND PUSH1 0x40 MLOAD PUSH2 0x1315 SWAP2 SWAP1 PUSH2 0x6142 JUMP JUMPDEST PUSH1 0x40 MLOAD DUP1 SWAP2 SUB SWAP1 LOG1 JUMP JUMPDEST PUSH1 0x15 SLOAD DUP2 JUMP JUMPDEST PUSH1 0x19 SLOAD DUP2 JUMP JUMPDEST PUSH1 0x7 PUSH0 SWAP1 SLOAD SWAP1 PUSH2 0x100 EXP SWAP1 DIV PUSH20 0xFFFFFFFFFFFFFFFFFFFFFFFFFFFFFFFFFFFFFFFF AND PUSH20 0xFFFFFFFFFFFFFFFFFFFFFFFFFFFFFFFFFFFFFFFF AND CALLER PUSH20 0xFFFFFFFFFFFFFFFFFFFFFFFFFFFFFFFFFFFFFFFF AND EQ DUP1 PUSH2 0x13D2 JUMPI POP PUSH1 0x1 PUSH0 SWAP1 SLOAD SWAP1 PUSH2 0x100 EXP SWAP1 DIV PUSH20 0xFFFFFFFFFFFFFFFFFFFFFFFFFFFFFFFFFFFFFFFF AND PUSH20 0xFFFFFFFFFFFFFFFFFFFFFFFFFFFFFFFFFFFFFFFF AND CALLER PUSH20 0xFFFFFFFFFFFFFFFFFFFFFFFFFFFFFFFFFFFFFFFF AND EQ JUMPDEST PUSH2 0x1411 JUMPI PUSH1 0x40 MLOAD PUSH32 0x8C379A000000000000000000000000000000000000000000000000000000000 DUP2 MSTORE PUSH1 0x4 ADD PUSH2 0x1408 SWAP1 PUSH2 0x6707 JUMP JUMPDEST PUSH1 0x40 MLOAD DUP1 SWAP2 SUB SWAP1 REVERT JUMPDEST DUP7 PUSH1 0x17 DUP2 SWAP1 SSTORE POP DUP6 PUSH1 0x19 DUP2 SWAP1 SSTORE POP DUP5 PUSH1 0x1A DUP2 SWAP1 SSTORE POP DUP4 PUSH1 0xE DUP2 SWAP1 SSTORE POP DUP3 PUSH1 0xF DUP2 SWAP1 SSTORE POP DUP2 PUSH1 0x10 DUP2 SWAP1 SSTORE POP DUP1 PUSH1 0x11 DUP2 SWAP1 SSTORE POP PUSH32 0x17FE98B66D27BD793EA01BD8A23A54ACAB8EEB167D9EB016A0C7CD71C573920C DUP8 DUP8 DUP8 DUP8 DUP8 DUP8 DUP8 PUSH1 0x40 MLOAD PUSH2 0x147D SWAP8 SWAP7 SWAP6 SWAP5 SWAP4 SWAP3 SWAP2 SWAP1 PUSH2 0x6725 JUMP JUMPDEST PUSH1 0x40 MLOAD DUP1 SWAP2 SUB SWAP1 LOG1 POP POP POP POP POP POP POP JUMP JUMPDEST PUSH2 0x14B8 PUSH32 0x103DA79FF3755FF7A17A557D28B73D37CB4DE0B3C3CC02FA6C48DF0F35071FBF CALLER PUSH2 0x44F5 JUMP JUMPDEST PUSH2 0x14C0 JUMPI PUSH0 DUP1 REVERT JUMPDEST PUSH1 0x1B PUSH1 0x3 SWAP1 SLOAD SWAP1 PUSH2 0x100 EXP SWAP1 DIV PUSH1 0xFF AND ISZERO PUSH1 0x1B PUSH1 0x3 PUSH2 0x100 EXP DUP2 SLOAD DUP2 PUSH1 0xFF MUL NOT AND SWAP1 DUP4 ISZERO ISZERO MUL OR SWAP1 SSTORE POP PUSH32 0x4F40FD1C59F78D7A2220DA638CD9400DABA01E57C7965702F390BF13133CC31F PUSH1 0x1B PUSH1 0x3 SWAP1 SLOAD SWAP1 PUSH2 0x100 EXP SWAP1 DIV PUSH1 0xFF AND PUSH1 0x40 MLOAD PUSH2 0x1528 SWAP2 SWAP1 PUSH2 0x6142 JUMP JUMPDEST PUSH1 0x40 MLOAD DUP1 SWAP2 SUB SWAP1 LOG1 JUMP JUMPDEST PUSH1 0x2 PUSH0 SWAP1 SLOAD SWAP1 PUSH2 0x100 EXP SWAP1 DIV PUSH20 0xFFFFFFFFFFFFFFFFFFFFFFFFFFFFFFFFFFFFFFFF AND DUP2 JUMP JUMPDEST PUSH0 ISZERO ISZERO PUSH1 0x1B PUSH0 SWAP1 SLOAD SWAP1 PUSH2 0x100 EXP SWAP1 DIV PUSH1 0xFF AND ISZERO ISZERO EQ PUSH2 0x15AB JUMPI PUSH1 0x40 MLOAD PUSH32 0x8C379A000000000000000000000000000000000000000000000000000000000 DUP2 MSTORE PUSH1 0x4 ADD PUSH2 0x15A2 SWAP1 PUSH2 0x67DC JUMP JUMPDEST PUSH1 0x40 MLOAD DUP1 SWAP2 SUB SWAP1 REVERT JUMPDEST PUSH0 PUSH1 0x9 PUSH0 SWAP1 SLOAD SWAP1 PUSH2 0x100 EXP SWAP1 DIV PUSH20 0xFFFFFFFFFFFFFFFFFFFFFFFFFFFFFFFFFFFFFFFF AND PUSH20 0xFFFFFFFFFFFFFFFFFFFFFFFFFFFFFFFFFFFFFFFF AND PUSH4 0xE7DCED67 PUSH1 0x40 MLOAD DUP2 PUSH4 0xFFFFFFFF AND PUSH1 0xE0 SHL DUP2 MSTORE PUSH1 0x4 ADD PUSH1 0x20 PUSH1 0x40 MLOAD DUP1 DUP4 SUB DUP2 DUP7 GAS STATICCALL ISZERO DUP1 ISZERO PUSH2 0x1616 JUMPI RETURNDATASIZE PUSH0 DUP1 RETURNDATACOPY RETURNDATASIZE PUSH0 REVERT JUMPDEST POP POP POP POP PUSH1 0x40 MLOAD RETURNDATASIZE PUSH1 0x1F NOT PUSH1 0x1F DUP3 ADD AND DUP3 ADD DUP1 PUSH1 0x40 MSTORE POP DUP2 ADD SWAP1 PUSH2 0x163A SWAP2 SWAP1 PUSH2 0x650E JUMP JUMPDEST SWAP1 POP PUSH0 PUSH1 0x9 PUSH0 SWAP1 SLOAD SWAP1 PUSH2 0x100 EXP SWAP1 DIV PUSH20 0xFFFFFFFFFFFFFFFFFFFFFFFFFFFFFFFFFFFFFFFF AND PUSH20 0xFFFFFFFFFFFFFFFFFFFFFFFFFFFFFFFFFFFFFFFF AND PUSH4 0x2EB9771B PUSH1 0x40 MLOAD DUP2 PUSH4 0xFFFFFFFF AND PUSH1 0xE0 SHL DUP2 MSTORE PUSH1 0x4 ADD PUSH1 0x20 PUSH1 0x40 MLOAD DUP1 DUP4 SUB DUP2 DUP7 GAS STATICCALL ISZERO DUP1 ISZERO PUSH2 0x16A7 JUMPI RETURNDATASIZE PUSH0 DUP1 RETURNDATACOPY RETURNDATASIZE PUSH0 REVERT JUMPDEST POP POP POP POP PUSH1 0x40 MLOAD RETURNDATASIZE PUSH1 0x1F NOT PUSH1 0x1F DUP3 ADD AND DUP3 ADD DUP1 PUSH1 0x40 MSTORE POP DUP2 ADD SWAP1 PUSH2 0x16CB SWAP2 SWAP1 PUSH2 0x650E JUMP JUMPDEST SWAP1 POP PUSH3 0xF4240 DUP2 LT DUP1 ISZERO PUSH2 0x16DE JUMPI POP PUSH0 DUP2 GT JUMPDEST PUSH2 0x171D JUMPI PUSH1 0x40 MLOAD PUSH32 0x8C379A000000000000000000000000000000000000000000000000000000000 DUP2 MSTORE PUSH1 0x4 ADD PUSH2 0x1714 SWAP1 PUSH2 0x686A JUMP JUMPDEST PUSH1 0x40 MLOAD DUP1 SWAP2 SUB SWAP1 REVERT JUMPDEST PUSH1 0x17 SLOAD PUSH2 0x17DF DUP7 PUSH2 0x17D1 PUSH1 0x14 SLOAD PUSH1 0x3 PUSH0 SWAP1 SLOAD SWAP1 PUSH2 0x100 EXP SWAP1 DIV PUSH20 0xFFFFFFFFFFFFFFFFFFFFFFFFFFFFFFFFFFFFFFFF AND PUSH20 0xFFFFFFFFFFFFFFFFFFFFFFFFFFFFFFFFFFFFFFFF AND PUSH4 0x70A08231 ADDRESS PUSH1 0x40 MLOAD DUP3 PUSH4 0xFFFFFFFF AND PUSH1 0xE0 SHL DUP2 MSTORE PUSH1 0x4 ADD PUSH2 0x1784 SWAP2 SWAP1 PUSH2 0x6081 JUMP JUMPDEST PUSH1 0x20 PUSH1 0x40 MLOAD DUP1 DUP4 SUB DUP2 DUP7 GAS STATICCALL ISZERO DUP1 ISZERO PUSH2 0x179F JUMPI RETURNDATASIZE PUSH0 DUP1 RETURNDATACOPY RETURNDATASIZE PUSH0 REVERT JUMPDEST POP POP POP POP PUSH1 0x40 MLOAD RETURNDATASIZE PUSH1 0x1F NOT PUSH1 0x1F DUP3 ADD AND DUP3 ADD DUP1 PUSH1 0x40 MSTORE POP DUP2 ADD SWAP1 PUSH2 0x17C3 SWAP2 SWAP1 PUSH2 0x650E JUMP JUMPDEST PUSH2 0x53CF SWAP1 SWAP2 SWAP1 PUSH4 0xFFFFFFFF AND JUMP JUMPDEST PUSH2 0x5372 SWAP1 SWAP2 SWAP1 PUSH4 0xFFFFFFFF AND JUMP JUMPDEST GT ISZERO PUSH2 0x1820 JUMPI PUSH1 0x40 MLOAD PUSH32 0x8C379A000000000000000000000000000000000000000000000000000000000 DUP2 MSTORE PUSH1 0x4 ADD PUSH2 0x1817 SWAP1 PUSH2 0x691E JUMP JUMPDEST PUSH1 0x40 MLOAD DUP1 SWAP2 SUB SWAP1 REVERT JUMPDEST PUSH0 PUSH32 0x0 PUSH1 0xA PUSH2 0x184E SWAP2 SWAP1 PUSH2 0x64B0 JUMP JUMPDEST DUP7 PUSH2 0x1859 SWAP2 SWAP1 PUSH2 0x6539 JUMP JUMPDEST SWAP1 POP PUSH0 PUSH1 0x40 MLOAD DUP1 PUSH1 0xA0 ADD PUSH1 0x40 MSTORE DUP1 DUP6 DUP2 MSTORE PUSH1 0x20 ADD PUSH2 0x1875 PUSH2 0x5191 JUMP JUMPDEST DUP2 MSTORE PUSH1 0x20 ADD DUP8 DUP2 MSTORE PUSH1 0x20 ADD DUP4 DUP2 MSTORE PUSH1 0x20 ADD DUP5 DUP2 MSTORE POP SWAP1 POP PUSH0 DUP1 PUSH2 0x1897 DUP4 PUSH2 0x572F JUMP JUMPDEST SWAP2 POP SWAP2 POP PUSH2 0x18DA PUSH3 0xF4240 PUSH2 0x18CC PUSH2 0x18BD PUSH1 0xE SLOAD PUSH3 0xF4240 PUSH2 0x53CF SWAP1 SWAP2 SWAP1 PUSH4 0xFFFFFFFF AND JUMP JUMPDEST DUP6 PUSH2 0x5548 SWAP1 SWAP2 SWAP1 PUSH4 0xFFFFFFFF AND JUMP JUMPDEST PUSH2 0x55BF SWAP1 SWAP2 SWAP1 PUSH4 0xFFFFFFFF AND JUMP JUMPDEST SWAP2 POP DUP2 DUP8 GT ISZERO PUSH2 0x191F JUMPI PUSH1 0x40 MLOAD PUSH32 0x8C379A000000000000000000000000000000000000000000000000000000000 DUP2 MSTORE PUSH1 0x4 ADD PUSH2 0x1916 SWAP1 PUSH2 0x6986 JUMP JUMPDEST PUSH1 0x40 MLOAD DUP1 SWAP2 SUB SWAP1 REVERT JUMPDEST DUP8 DUP2 GT ISZERO PUSH2 0x1962 JUMPI PUSH1 0x40 MLOAD PUSH32 0x8C379A000000000000000000000000000000000000000000000000000000000 DUP2 MSTORE PUSH1 0x4 ADD PUSH2 0x1959 SWAP1 PUSH2 0x69EE JUMP JUMPDEST PUSH1 0x40 MLOAD DUP1 SWAP2 SUB SWAP1 REVERT JUMPDEST PUSH0 PUSH2 0x198A PUSH1 0x64 PUSH2 0x197C PUSH1 0x46 DUP6 PUSH2 0x5548 SWAP1 SWAP2 SWAP1 PUSH4 0xFFFFFFFF AND JUMP JUMPDEST PUSH2 0x55BF SWAP1 SWAP2 SWAP1 PUSH4 0xFFFFFFFF AND JUMP JUMPDEST SWAP1 POP PUSH0 PUSH2 0x19A0 DUP3 DUP5 PUSH2 0x53CF SWAP1 SWAP2 SWAP1 PUSH4 0xFFFFFFFF AND JUMP JUMPDEST SWAP1 POP PUSH0 PUSH2 0x19CB DUP10 PUSH2 0x19BD PUSH3 0xF4240 DUP6 PUSH2 0x5548 SWAP1 SWAP2 SWAP1 PUSH4 0xFFFFFFFF AND JUMP JUMPDEST PUSH2 0x55BF SWAP1 SWAP2 SWAP1 PUSH4 0xFFFFFFFF AND JUMP JUMPDEST SWAP1 POP PUSH0 PUSH20 0x0 PUSH4 0xCE032CC1 PUSH1 0x9 PUSH0 SWAP1 SLOAD SWAP1 PUSH2 0x100 EXP SWAP1 DIV PUSH20 0xFFFFFFFFFFFFFFFFFFFFFFFFFFFFFFFFFFFFFFFF AND PUSH20 0xFFFFFFFFFFFFFFFFFFFFFFFFFFFFFFFFFFFFFFFF AND PUSH4 0x9795F3F PUSH1 0x40 MLOAD DUP2 PUSH4 0xFFFFFFFF AND PUSH1 0xE0 SHL DUP2 MSTORE PUSH1 0x4 ADD PUSH1 0x20 PUSH1 0x40 MLOAD DUP1 DUP4 SUB DUP2 DUP7 GAS STATICCALL ISZERO DUP1 ISZERO PUSH2 0x1A52 JUMPI RETURNDATASIZE PUSH0 DUP1 RETURNDATACOPY RETURNDATASIZE PUSH0 REVERT JUMPDEST POP POP POP POP PUSH1 0x40 MLOAD RETURNDATASIZE PUSH1 0x1F NOT PUSH1 0x1F DUP3 ADD AND DUP3 ADD DUP1 PUSH1 0x40 MSTORE POP DUP2 ADD SWAP1 PUSH2 0x1A76 SWAP2 SWAP1 PUSH2 0x650E JUMP JUMPDEST DUP5 PUSH1 0x40 MLOAD DUP4 PUSH4 0xFFFFFFFF AND PUSH1 0xE0 SHL DUP2 MSTORE PUSH1 0x4 ADD PUSH2 0x1A94 SWAP3 SWAP2 SWAP1 PUSH2 0x6A1B JUMP JUMPDEST PUSH1 0x20 PUSH1 0x40 MLOAD DUP1 DUP4 SUB DUP2 DUP7 GAS DELEGATECALL ISZERO DUP1 ISZERO PUSH2 0x1AAF JUMPI RETURNDATASIZE PUSH0 DUP1 RETURNDATACOPY RETURNDATASIZE PUSH0 REVERT JUMPDEST POP POP POP POP PUSH1 0x40 MLOAD RETURNDATASIZE PUSH1 0x1F NOT PUSH1 0x1F DUP3 ADD AND DUP3 ADD DUP1 PUSH1 0x40 MSTORE POP DUP2 ADD SWAP1 PUSH2 0x1AD3 SWAP2 SWAP1 PUSH2 0x650E JUMP JUMPDEST SWAP1 POP PUSH0 DUP14 SWAP1 POP PUSH1 0x8 PUSH0 SWAP1 SLOAD SWAP1 PUSH2 0x100 EXP SWAP1 DIV PUSH20 0xFFFFFFFFFFFFFFFFFFFFFFFFFFFFFFFFFFFFFFFF AND PUSH20 0xFFFFFFFFFFFFFFFFFFFFFFFFFFFFFFFFFFFFFFFF AND PUSH4 0xA8A778AE CALLER DUP8 PUSH1 0x40 MLOAD DUP4 PUSH4 0xFFFFFFFF AND PUSH1 0xE0 SHL DUP2 MSTORE PUSH1 0x4 ADD PUSH2 0x1B35 SWAP3 SWAP2 SWAP1 PUSH2 0x657A JUMP JUMPDEST PUSH0 PUSH1 0x40 MLOAD DUP1 DUP4 SUB DUP2 PUSH0 DUP8 DUP1 EXTCODESIZE ISZERO DUP1 ISZERO PUSH2 0x1B4C JUMPI PUSH0 DUP1 REVERT JUMPDEST POP GAS CALL ISZERO DUP1 ISZERO PUSH2 0x1B5E JUMPI RETURNDATASIZE PUSH0 DUP1 RETURNDATACOPY RETURNDATASIZE PUSH0 REVERT JUMPDEST POP POP POP POP PUSH2 0x1B8F PUSH1 0x3 PUSH0 SWAP1 SLOAD SWAP1 PUSH2 0x100 EXP SWAP1 DIV PUSH20 0xFFFFFFFFFFFFFFFFFFFFFFFFFFFFFFFFFFFFFFFF AND CALLER ADDRESS DUP5 PUSH2 0x5826 JUMP JUMPDEST PUSH1 0x9 PUSH0 SWAP1 SLOAD SWAP1 PUSH2 0x100 EXP SWAP1 DIV PUSH20 0xFFFFFFFFFFFFFFFFFFFFFFFFFFFFFFFFFFFFFFFF AND PUSH20 0xFFFFFFFFFFFFFFFFFFFFFFFFFFFFFFFFFFFFFFFF AND PUSH4 0xB4F56B26 CALLER DUP10 PUSH1 0x40 MLOAD DUP4 PUSH4 0xFFFFFFFF AND PUSH1 0xE0 SHL DUP2 MSTORE PUSH1 0x4 ADD PUSH2 0x1BEB SWAP3 SWAP2 SWAP1 PUSH2 0x657A JUMP JUMPDEST PUSH0 PUSH1 0x40 MLOAD DUP1 DUP4 SUB DUP2 PUSH0 DUP8 DUP1 EXTCODESIZE ISZERO DUP1 ISZERO PUSH2 0x1C02 JUMPI PUSH0 DUP1 REVERT JUMPDEST POP GAS CALL ISZERO DUP1 ISZERO PUSH2 0x1C14 JUMPI RETURNDATASIZE PUSH0 DUP1 RETURNDATACOPY RETURNDATASIZE PUSH0 REVERT JUMPDEST POP POP POP POP PUSH1 0xA PUSH0 SWAP1 SLOAD SWAP1 PUSH2 0x100 EXP SWAP1 DIV PUSH20 0xFFFFFFFFFFFFFFFFFFFFFFFFFFFFFFFFFFFFFFFF AND PUSH20 0xFFFFFFFFFFFFFFFFFFFFFFFFFFFFFFFFFFFFFFFF AND PUSH4 0x23B872DD CALLER ADDRESS PUSH2 0x1C6E PUSH4 0x3B9ACA00 DUP8 PUSH2 0x55BF SWAP1 SWAP2 SWAP1 PUSH4 0xFFFFFFFF AND JUMP JUMPDEST PUSH1 0x40 MLOAD DUP5 PUSH4 0xFFFFFFFF AND PUSH1 0xE0 SHL DUP2 MSTORE PUSH1 0x4 ADD PUSH2 0x1C8C SWAP4 SWAP3 SWAP2 SWAP1 PUSH2 0x6A42 JUMP JUMPDEST PUSH1 0x20 PUSH1 0x40 MLOAD DUP1 DUP4 SUB DUP2 PUSH0 DUP8 GAS CALL ISZERO DUP1 ISZERO PUSH2 0x1CA8 JUMPI RETURNDATASIZE PUSH0 DUP1 RETURNDATACOPY RETURNDATASIZE PUSH0 REVERT JUMPDEST POP POP POP POP PUSH1 0x40 MLOAD RETURNDATASIZE PUSH1 0x1F NOT PUSH1 0x1F DUP3 ADD AND DUP3 ADD DUP1 PUSH1 0x40 MSTORE POP DUP2 ADD SWAP1 PUSH2 0x1CCC SWAP2 SWAP1 PUSH2 0x6AA1 JUMP JUMPDEST POP POP POP POP POP POP POP POP POP POP POP POP POP POP POP JUMP JUMPDEST PUSH0 ISZERO ISZERO PUSH1 0x1B PUSH0 SWAP1 SLOAD SWAP1 PUSH2 0x100 EXP SWAP1 DIV PUSH1 0xFF AND ISZERO ISZERO EQ PUSH2 0x1D31 JUMPI PUSH1 0x40 MLOAD PUSH32 0x8C379A000000000000000000000000000000000000000000000000000000000 DUP2 MSTORE PUSH1 0x4 ADD PUSH2 0x1D28 SWAP1 PUSH2 0x67DC JUMP JUMPDEST PUSH1 0x40 MLOAD DUP1 SWAP2 SUB SWAP1 REVERT JUMPDEST PUSH0 PUSH32 0x0 PUSH1 0xA PUSH2 0x1D5F SWAP2 SWAP1 PUSH2 0x64B0 JUMP JUMPDEST DUP4 PUSH2 0x1D6A SWAP2 SWAP1 PUSH2 0x6539 JUMP JUMPDEST SWAP1 POP PUSH3 0xF4240 PUSH1 0x9 PUSH0 SWAP1 SLOAD SWAP1 PUSH2 0x100 EXP SWAP1 DIV PUSH20 0xFFFFFFFFFFFFFFFFFFFFFFFFFFFFFFFFFFFFFFFF AND PUSH20 0xFFFFFFFFFFFFFFFFFFFFFFFFFFFFFFFFFFFFFFFF AND PUSH4 0x2EB9771B PUSH1 0x40 MLOAD DUP2 PUSH4 0xFFFFFFFF AND PUSH1 0xE0 SHL DUP2 MSTORE PUSH1 0x4 ADD PUSH1 0x20 PUSH1 0x40 MLOAD DUP1 DUP4 SUB DUP2 DUP7 GAS STATICCALL ISZERO DUP1 ISZERO PUSH2 0x1DDA JUMPI RETURNDATASIZE PUSH0 DUP1 RETURNDATACOPY RETURNDATASIZE PUSH0 REVERT JUMPDEST POP POP POP POP PUSH1 0x40 MLOAD RETURNDATASIZE PUSH1 0x1F NOT PUSH1 0x1F DUP3 ADD AND DUP3 ADD DUP1 PUSH1 0x40 MSTORE POP DUP2 ADD SWAP1 PUSH2 0x1DFE SWAP2 SWAP1 PUSH2 0x650E JUMP JUMPDEST LT ISZERO PUSH2 0x1E3F JUMPI PUSH1 0x40 MLOAD PUSH32 0x8C379A000000000000000000000000000000000000000000000000000000000 DUP2 MSTORE PUSH1 0x4 ADD PUSH2 0x1E36 SWAP1 PUSH2 0x6B16 JUMP JUMPDEST PUSH1 0x40 MLOAD DUP1 SWAP2 SUB SWAP1 REVERT JUMPDEST PUSH1 0x17 SLOAD PUSH2 0x1F01 DUP5 PUSH2 0x1EF3 PUSH1 0x14 SLOAD PUSH1 0x3 PUSH0 SWAP1 SLOAD SWAP1 PUSH2 0x100 EXP SWAP1 DIV PUSH20 0xFFFFFFFFFFFFFFFFFFFFFFFFFFFFFFFFFFFFFFFF AND PUSH20 0xFFFFFFFFFFFFFFFFFFFFFFFFFFFFFFFFFFFFFFFF AND PUSH4 0x70A08231 ADDRESS PUSH1 0x40 MLOAD DUP3 PUSH4 0xFFFFFFFF AND PUSH1 0xE0 SHL DUP2 MSTORE PUSH1 0x4 ADD PUSH2 0x1EA6 SWAP2 SWAP1 PUSH2 0x6081 JUMP JUMPDEST PUSH1 0x20 PUSH1 0x40 MLOAD DUP1 DUP4 SUB DUP2 DUP7 GAS STATICCALL ISZERO DUP1 ISZERO PUSH2 0x1EC1 JUMPI RETURNDATASIZE PUSH0 DUP1 RETURNDATACOPY RETURNDATASIZE PUSH0 REVERT JUMPDEST POP POP POP POP PUSH1 0x40 MLOAD RETURNDATASIZE PUSH1 0x1F NOT PUSH1 0x1F DUP3 ADD AND DUP3 ADD DUP1 PUSH1 0x40 MSTORE POP DUP2 ADD SWAP1 PUSH2 0x1EE5 SWAP2 SWAP1 PUSH2 0x650E JUMP JUMPDEST PUSH2 0x53CF SWAP1 SWAP2 SWAP1 PUSH4 0xFFFFFFFF AND JUMP JUMPDEST PUSH2 0x5372 SWAP1 SWAP2 SWAP1 PUSH4 0xFFFFFFFF AND JUMP JUMPDEST GT ISZERO PUSH2 0x1F42 JUMPI PUSH1 0x40 MLOAD PUSH32 0x8C379A000000000000000000000000000000000000000000000000000000000 DUP2 MSTORE PUSH1 0x4 ADD PUSH2 0x1F39 SWAP1 PUSH2 0x6B7E JUMP JUMPDEST PUSH1 0x40 MLOAD DUP1 SWAP2 SUB SWAP1 REVERT JUMPDEST PUSH0 PUSH20 0x0 PUSH4 0x5413E192 PUSH2 0x1F65 PUSH2 0x5191 JUMP JUMPDEST DUP5 PUSH1 0x40 MLOAD DUP4 PUSH4 0xFFFFFFFF AND PUSH1 0xE0 SHL DUP2 MSTORE PUSH1 0x4 ADD PUSH2 0x1F83 SWAP3 SWAP2 SWAP1 PUSH2 0x6A1B JUMP JUMPDEST PUSH1 0x20 PUSH1 0x40 MLOAD DUP1 DUP4 SUB DUP2 DUP7 GAS DELEGATECALL ISZERO DUP1 ISZERO PUSH2 0x1F9E JUMPI RETURNDATASIZE PUSH0 DUP1 RETURNDATACOPY RETURNDATASIZE PUSH0 REVERT JUMPDEST POP POP POP POP PUSH1 0x40 MLOAD RETURNDATASIZE PUSH1 0x1F NOT PUSH1 0x1F DUP3 ADD AND DUP3 ADD DUP1 PUSH1 0x40 MSTORE POP DUP2 ADD SWAP1 PUSH2 0x1FC2 SWAP2 SWAP1 PUSH2 0x650E JUMP JUMPDEST SWAP1 POP PUSH2 0x2003 PUSH3 0xF4240 PUSH2 0x1FF5 PUSH2 0x1FE6 PUSH1 0xE SLOAD PUSH3 0xF4240 PUSH2 0x53CF SWAP1 SWAP2 SWAP1 PUSH4 0xFFFFFFFF AND JUMP JUMPDEST DUP5 PUSH2 0x5548 SWAP1 SWAP2 SWAP1 PUSH4 0xFFFFFFFF AND JUMP JUMPDEST PUSH2 0x55BF SWAP1 SWAP2 SWAP1 PUSH4 0xFFFFFFFF AND JUMP JUMPDEST SWAP1 POP DUP1 DUP4 GT ISZERO PUSH2 0x2048 JUMPI PUSH1 0x40 MLOAD PUSH32 0x8C379A000000000000000000000000000000000000000000000000000000000 DUP2 MSTORE PUSH1 0x4 ADD PUSH2 0x203F SWAP1 PUSH2 0x6986 JUMP JUMPDEST PUSH1 0x40 MLOAD DUP1 SWAP2 SUB SWAP1 REVERT JUMPDEST PUSH2 0x2075 PUSH1 0x3 PUSH0 SWAP1 SLOAD SWAP1 PUSH2 0x100 EXP SWAP1 DIV PUSH20 0xFFFFFFFFFFFFFFFFFFFFFFFFFFFFFFFFFFFFFFFF AND CALLER ADDRESS DUP8 PUSH2 0x5826 JUMP JUMPDEST PUSH1 0x9 PUSH0 SWAP1 SLOAD SWAP1 PUSH2 0x100 EXP SWAP1 DIV PUSH20 0xFFFFFFFFFFFFFFFFFFFFFFFFFFFFFFFFFFFFFFFF AND PUSH20 0xFFFFFFFFFFFFFFFFFFFFFFFFFFFFFFFFFFFFFFFF AND PUSH4 0xB4F56B26 CALLER DUP4 PUSH1 0x40 MLOAD DUP4 PUSH4 0xFFFFFFFF AND PUSH1 0xE0 SHL DUP2 MSTORE PUSH1 0x4 ADD PUSH2 0x20D1 SWAP3 SWAP2 SWAP1 PUSH2 0x657A JUMP JUMPDEST PUSH0 PUSH1 0x40 MLOAD DUP1 DUP4 SUB DUP2 PUSH0 DUP8 DUP1 EXTCODESIZE ISZERO DUP1 ISZERO PUSH2 0x20E8 JUMPI PUSH0 DUP1 REVERT JUMPDEST POP GAS CALL ISZERO DUP1 ISZERO PUSH2 0x20FA JUMPI RETURNDATASIZE PUSH0 DUP1 RETURNDATACOPY RETURNDATASIZE PUSH0 REVERT JUMPDEST POP POP POP POP POP POP POP POP JUMP JUMPDEST PUSH0 ISZERO ISZERO PUSH1 0x1B PUSH1 0x1 SWAP1 SLOAD SWAP1 PUSH2 0x100 EXP SWAP1 DIV PUSH1 0xFF AND ISZERO ISZERO EQ PUSH2 0x2159 JUMPI PUSH1 0x40 MLOAD PUSH32 0x8C379A000000000000000000000000000000000000000000000000000000000 DUP2 MSTORE PUSH1 0x4 ADD PUSH2 0x2150 SWAP1 PUSH2 0x6BE6 JUMP JUMPDEST PUSH1 0x40 MLOAD DUP1 SWAP2 SUB SWAP1 REVERT JUMPDEST PUSH3 0xF4240 PUSH1 0x9 PUSH0 SWAP1 SLOAD SWAP1 PUSH2 0x100 EXP SWAP1 DIV PUSH20 0xFFFFFFFFFFFFFFFFFFFFFFFFFFFFFFFFFFFFFFFF AND PUSH20 0xFFFFFFFFFFFFFFFFFFFFFFFFFFFFFFFFFFFFFFFF AND PUSH4 0x2EB9771B PUSH1 0x40 MLOAD DUP2 PUSH4 0xFFFFFFFF AND PUSH1 0xE0 SHL DUP2 MSTORE PUSH1 0x4 ADD PUSH1 0x20 PUSH1 0x40 MLOAD DUP1 DUP4 SUB DUP2 DUP7 GAS STATICCALL ISZERO DUP1 ISZERO PUSH2 0x21C7 JUMPI RETURNDATASIZE PUSH0 DUP1 RETURNDATACOPY RETURNDATASIZE PUSH0 REVERT JUMPDEST POP POP POP POP PUSH1 0x40 MLOAD RETURNDATASIZE PUSH1 0x1F NOT PUSH1 0x1F DUP3 ADD AND DUP3 ADD DUP1 PUSH1 0x40 MSTORE POP DUP2 ADD SWAP1 PUSH2 0x21EB SWAP2 SWAP1 PUSH2 0x650E JUMP JUMPDEST EQ PUSH2 0x222B JUMPI PUSH1 0x40 MLOAD PUSH32 0x8C379A000000000000000000000000000000000000000000000000000000000 DUP2 MSTORE PUSH1 0x4 ADD PUSH2 0x2222 SWAP1 PUSH2 0x6C4E JUMP JUMPDEST PUSH1 0x40 MLOAD DUP1 SWAP2 SUB SWAP1 REVERT JUMPDEST PUSH0 PUSH2 0x226B PUSH32 0x0 PUSH1 0xA PUSH2 0x225C SWAP2 SWAP1 PUSH2 0x64B0 JUMP JUMPDEST DUP5 PUSH2 0x55BF SWAP1 SWAP2 SWAP1 PUSH4 0xFFFFFFFF AND JUMP JUMPDEST SWAP1 POP PUSH0 PUSH20 0x0 PUSH4 0xF41B452 PUSH2 0x2290 PUSH2 0x5191 JUMP JUMPDEST DUP5 PUSH1 0x40 MLOAD DUP4 PUSH4 0xFFFFFFFF AND PUSH1 0xE0 SHL DUP2 MSTORE PUSH1 0x4 ADD PUSH2 0x22AE SWAP3 SWAP2 SWAP1 PUSH2 0x6A1B JUMP JUMPDEST PUSH1 0x20 PUSH1 0x40 MLOAD DUP1 DUP4 SUB DUP2 DUP7 GAS DELEGATECALL ISZERO DUP1 ISZERO PUSH2 0x22C9 JUMPI RETURNDATASIZE PUSH0 DUP1 RETURNDATACOPY RETURNDATASIZE PUSH0 REVERT JUMPDEST POP POP POP POP PUSH1 0x40 MLOAD RETURNDATASIZE PUSH1 0x1F NOT PUSH1 0x1F DUP3 ADD AND DUP3 ADD DUP1 PUSH1 0x40 MSTORE POP DUP2 ADD SWAP1 PUSH2 0x22ED SWAP2 SWAP1 PUSH2 0x650E JUMP JUMPDEST SWAP1 POP PUSH2 0x232E PUSH3 0xF4240 PUSH2 0x2320 PUSH2 0x2311 PUSH1 0xF SLOAD PUSH3 0xF4240 PUSH2 0x53CF SWAP1 SWAP2 SWAP1 PUSH4 0xFFFFFFFF AND JUMP JUMPDEST DUP5 PUSH2 0x5548 SWAP1 SWAP2 SWAP1 PUSH4 0xFFFFFFFF AND JUMP JUMPDEST PUSH2 0x55BF SWAP1 SWAP2 SWAP1 PUSH4 0xFFFFFFFF AND JUMP JUMPDEST SWAP1 POP PUSH2 0x23DD PUSH1 0x14 SLOAD PUSH1 0x3 PUSH0 SWAP1 SLOAD SWAP1 PUSH2 0x100 EXP SWAP1 DIV PUSH20 0xFFFFFFFFFFFFFFFFFFFFFFFFFFFFFFFFFFFFFFFF AND PUSH20 0xFFFFFFFFFFFFFFFFFFFFFFFFFFFFFFFFFFFFFFFF AND PUSH4 0x70A08231 ADDRESS PUSH1 0x40 MLOAD DUP3 PUSH4 0xFFFFFFFF AND PUSH1 0xE0 SHL DUP2 MSTORE PUSH1 0x4 ADD PUSH2 0x2390 SWAP2 SWAP1 PUSH2 0x6081 JUMP JUMPDEST PUSH1 0x20 PUSH1 0x40 MLOAD DUP1 DUP4 SUB DUP2 DUP7 GAS STATICCALL ISZERO DUP1 ISZERO PUSH2 0x23AB JUMPI RETURNDATASIZE PUSH0 DUP1 RETURNDATACOPY RETURNDATASIZE PUSH0 REVERT JUMPDEST POP POP POP POP PUSH1 0x40 MLOAD RETURNDATASIZE PUSH1 0x1F NOT PUSH1 0x1F DUP3 ADD AND DUP3 ADD DUP1 PUSH1 0x40 MSTORE POP DUP2 ADD SWAP1 PUSH2 0x23CF SWAP2 SWAP1 PUSH2 0x650E JUMP JUMPDEST PUSH2 0x53CF SWAP1 SWAP2 SWAP1 PUSH4 0xFFFFFFFF AND JUMP JUMPDEST DUP2 GT ISZERO PUSH2 0x241F JUMPI PUSH1 0x40 MLOAD PUSH32 0x8C379A000000000000000000000000000000000000000000000000000000000 DUP2 MSTORE PUSH1 0x4 ADD PUSH2 0x2416 SWAP1 PUSH2 0x6CB6 JUMP JUMPDEST PUSH1 0x40 MLOAD DUP1 SWAP2 SUB SWAP1 REVERT JUMPDEST DUP1 DUP4 GT ISZERO PUSH2 0x2462 JUMPI PUSH1 0x40 MLOAD PUSH32 0x8C379A000000000000000000000000000000000000000000000000000000000 DUP2 MSTORE PUSH1 0x4 ADD PUSH2 0x2459 SWAP1 PUSH2 0x6986 JUMP JUMPDEST PUSH1 0x40 MLOAD DUP1 SWAP2 SUB SWAP1 REVERT JUMPDEST PUSH2 0x24B2 DUP2 PUSH1 0x13 PUSH0 CALLER PUSH20 0xFFFFFFFFFFFFFFFFFFFFFFFFFFFFFFFFFFFFFFFF AND PUSH20 0xFFFFFFFFFFFFFFFFFFFFFFFFFFFFFFFFFFFFFFFF AND DUP2 MSTORE PUSH1 0x20 ADD SWAP1 DUP2 MSTORE PUSH1 0x20 ADD PUSH0 KECCAK256 SLOAD PUSH2 0x5372 SWAP1 SWAP2 SWAP1 PUSH4 0xFFFFFFFF AND JUMP JUMPDEST PUSH1 0x13 PUSH0 CALLER PUSH20 0xFFFFFFFFFFFFFFFFFFFFFFFFFFFFFFFFFFFFFFFF AND PUSH20 0xFFFFFFFFFFFFFFFFFFFFFFFFFFFFFFFFFFFFFFFF AND DUP2 MSTORE PUSH1 0x20 ADD SWAP1 DUP2 MSTORE PUSH1 0x20 ADD PUSH0 KECCAK256 DUP2 SWAP1 SSTORE POP PUSH2 0x2508 DUP2 PUSH1 0x14 SLOAD PUSH2 0x5372 SWAP1 SWAP2 SWAP1 PUSH4 0xFFFFFFFF AND JUMP JUMPDEST PUSH1 0x14 DUP2 SWAP1 SSTORE POP NUMBER PUSH1 0x16 PUSH0 CALLER PUSH20 0xFFFFFFFFFFFFFFFFFFFFFFFFFFFFFFFFFFFFFFFF AND PUSH20 0xFFFFFFFFFFFFFFFFFFFFFFFFFFFFFFFFFFFFFFFF AND DUP2 MSTORE PUSH1 0x20 ADD SWAP1 DUP2 MSTORE PUSH1 0x20 ADD PUSH0 KECCAK256 DUP2 SWAP1 SSTORE POP PUSH1 0x9 PUSH0 SWAP1 SLOAD SWAP1 PUSH2 0x100 EXP SWAP1 DIV PUSH20 0xFFFFFFFFFFFFFFFFFFFFFFFFFFFFFFFFFFFFFFFF AND PUSH20 0xFFFFFFFFFFFFFFFFFFFFFFFFFFFFFFFFFFFFFFFF AND PUSH4 0xA8A778AE CALLER DUP7 PUSH1 0x40 MLOAD DUP4 PUSH4 0xFFFFFFFF AND PUSH1 0xE0 SHL DUP2 MSTORE PUSH1 0x4 ADD PUSH2 0x25AC SWAP3 SWAP2 SWAP1 PUSH2 0x657A JUMP JUMPDEST PUSH0 PUSH1 0x40 MLOAD DUP1 DUP4 SUB DUP2 PUSH0 DUP8 DUP1 EXTCODESIZE ISZERO DUP1 ISZERO PUSH2 0x25C3 JUMPI PUSH0 DUP1 REVERT JUMPDEST POP GAS CALL ISZERO DUP1 ISZERO PUSH2 0x25D5 JUMPI RETURNDATASIZE PUSH0 DUP1 RETURNDATACOPY RETURNDATASIZE PUSH0 REVERT JUMPDEST POP POP POP POP POP POP POP POP JUMP JUMPDEST PUSH1 0x17 SLOAD DUP2 JUMP JUMPDEST PUSH0 ISZERO ISZERO PUSH1 0x1B PUSH1 0x3 SWAP1 SLOAD SWAP1 PUSH2 0x100 EXP SWAP1 DIV PUSH1 0xFF AND ISZERO ISZERO EQ PUSH2 0x263A JUMPI PUSH1 0x40 MLOAD PUSH32 0x8C379A000000000000000000000000000000000000000000000000000000000 DUP2 MSTORE PUSH1 0x4 ADD PUSH2 0x2631 SWAP1 PUSH2 0x6D1E JUMP JUMPDEST PUSH1 0x40 MLOAD DUP1 SWAP2 SUB SWAP1 REVERT JUMPDEST PUSH0 PUSH1 0x9 PUSH0 SWAP1 SLOAD SWAP1 PUSH2 0x100 EXP SWAP1 DIV PUSH20 0xFFFFFFFFFFFFFFFFFFFFFFFFFFFFFFFFFFFFFFFF AND PUSH20 0xFFFFFFFFFFFFFFFFFFFFFFFFFFFFFFFFFFFFFFFF AND PUSH4 0xE7DCED67 PUSH1 0x40 MLOAD DUP2 PUSH4 0xFFFFFFFF AND PUSH1 0xE0 SHL DUP2 MSTORE PUSH1 0x4 ADD PUSH1 0x20 PUSH1 0x40 MLOAD DUP1 DUP4 SUB DUP2 DUP7 GAS STATICCALL ISZERO DUP1 ISZERO PUSH2 0x26A5 JUMPI RETURNDATASIZE PUSH0 DUP1 RETURNDATACOPY RETURNDATASIZE PUSH0 REVERT JUMPDEST POP POP POP POP PUSH1 0x40 MLOAD RETURNDATASIZE PUSH1 0x1F NOT PUSH1 0x1F DUP3 ADD AND DUP3 ADD DUP1 PUSH1 0x40 MSTORE POP DUP2 ADD SWAP1 PUSH2 0x26C9 SWAP2 SWAP1 PUSH2 0x650E JUMP JUMPDEST SWAP1 POP PUSH0 PUSH1 0x9 PUSH0 SWAP1 SLOAD SWAP1 PUSH2 0x100 EXP SWAP1 DIV PUSH20 0xFFFFFFFFFFFFFFFFFFFFFFFFFFFFFFFFFFFFFFFF AND PUSH20 0xFFFFFFFFFFFFFFFFFFFFFFFFFFFFFFFFFFFFFFFF AND PUSH4 0x9795F3F PUSH1 0x40 MLOAD DUP2 PUSH4 0xFFFFFFFF AND PUSH1 0xE0 SHL DUP2 MSTORE PUSH1 0x4 ADD PUSH1 0x20 PUSH1 0x40 MLOAD DUP1 DUP4 SUB DUP2 DUP7 GAS STATICCALL ISZERO DUP1 ISZERO PUSH2 0x2736 JUMPI RETURNDATASIZE PUSH0 DUP1 RETURNDATACOPY RETURNDATASIZE PUSH0 REVERT JUMPDEST POP POP POP POP PUSH1 0x40 MLOAD RETURNDATASIZE PUSH1 0x1F NOT PUSH1 0x1F DUP3 ADD AND DUP3 ADD DUP1 PUSH1 0x40 MSTORE POP DUP2 ADD SWAP1 PUSH2 0x275A SWAP2 SWAP1 PUSH2 0x650E JUMP JUMPDEST SWAP1 POP PUSH0 PUSH1 0x64 PUSH1 0x46 DUP7 PUSH2 0x276C SWAP2 SWAP1 PUSH2 0x6539 JUMP JUMPDEST PUSH2 0x2776 SWAP2 SWAP1 PUSH2 0x6D69 JUMP JUMPDEST SWAP1 POP PUSH0 PUSH2 0x278C DUP3 DUP8 PUSH2 0x53CF SWAP1 SWAP2 SWAP1 PUSH4 0xFFFFFFFF AND JUMP JUMPDEST SWAP1 POP PUSH0 PUSH1 0x40 MLOAD DUP1 PUSH1 0x80 ADD PUSH1 0x40 MSTORE DUP1 PUSH2 0x27A2 PUSH2 0x4F6F JUMP JUMPDEST DUP2 MSTORE PUSH1 0x20 ADD DUP7 DUP2 MSTORE PUSH1 0x20 ADD PUSH2 0x27B5 PUSH2 0x5191 JUMP JUMPDEST DUP2 MSTORE PUSH1 0x20 ADD DUP5 DUP2 MSTORE POP SWAP1 POP PUSH0 PUSH1 0x40 MLOAD DUP1 PUSH1 0x80 ADD PUSH1 0x40 MSTORE DUP1 PUSH2 0x27D4 PUSH2 0x4F6F JUMP JUMPDEST DUP2 MSTORE PUSH1 0x20 ADD DUP7 DUP2 MSTORE PUSH1 0x20 ADD PUSH2 0x27E7 PUSH2 0x5191 JUMP JUMPDEST DUP2 MSTORE PUSH1 0x20 ADD DUP5 DUP2 MSTORE POP SWAP1 POP PUSH0 PUSH2 0x283A PUSH3 0xF4240 PUSH2 0x282C PUSH2 0x2815 PUSH1 0x10 SLOAD PUSH3 0xF4240 PUSH2 0x53CF SWAP1 SWAP2 SWAP1 PUSH4 0xFFFFFFFF AND JUMP JUMPDEST PUSH2 0x281E DUP8 PUSH2 0x5959 JUMP JUMPDEST PUSH2 0x5548 SWAP1 SWAP2 SWAP1 PUSH4 0xFFFFFFFF AND JUMP JUMPDEST PUSH2 0x55BF SWAP1 SWAP2 SWAP1 PUSH4 0xFFFFFFFF AND JUMP JUMPDEST SWAP1 POP PUSH0 PUSH2 0x2884 PUSH3 0xF4240 PUSH2 0x2876 PUSH2 0x285F PUSH1 0x10 SLOAD PUSH3 0xF4240 PUSH2 0x53CF SWAP1 SWAP2 SWAP1 PUSH4 0xFFFFFFFF AND JUMP JUMPDEST PUSH2 0x2868 DUP8 PUSH2 0x5959 JUMP JUMPDEST PUSH2 0x5548 SWAP1 SWAP2 SWAP1 PUSH4 0xFFFFFFFF AND JUMP JUMPDEST PUSH2 0x55BF SWAP1 SWAP2 SWAP1 PUSH4 0xFFFFFFFF AND JUMP JUMPDEST SWAP1 POP PUSH2 0x2899 DUP2 DUP4 PUSH2 0x5372 SWAP1 SWAP2 SWAP1 PUSH4 0xFFFFFFFF AND JUMP JUMPDEST DUP10 GT ISZERO PUSH2 0x28DB JUMPI PUSH1 0x40 MLOAD PUSH32 0x8C379A000000000000000000000000000000000000000000000000000000000 DUP2 MSTORE PUSH1 0x4 ADD PUSH2 0x28D2 SWAP1 PUSH2 0x6986 JUMP JUMPDEST PUSH1 0x40 MLOAD DUP1 SWAP2 SUB SWAP1 REVERT JUMPDEST PUSH1 0x8 PUSH0 SWAP1 SLOAD SWAP1 PUSH2 0x100 EXP SWAP1 DIV PUSH20 0xFFFFFFFFFFFFFFFFFFFFFFFFFFFFFFFFFFFFFFFF AND PUSH20 0xFFFFFFFFFFFFFFFFFFFFFFFFFFFFFFFFFFFFFFFF AND PUSH4 0xA8A778AE CALLER DUP13 PUSH1 0x40 MLOAD DUP4 PUSH4 0xFFFFFFFF AND PUSH1 0xE0 SHL DUP2 MSTORE PUSH1 0x4 ADD PUSH2 0x2937 SWAP3 SWAP2 SWAP1 PUSH2 0x657A JUMP JUMPDEST PUSH0 PUSH1 0x40 MLOAD DUP1 DUP4 SUB DUP2 PUSH0 DUP8 DUP1 EXTCODESIZE ISZERO DUP1 ISZERO PUSH2 0x294E JUMPI PUSH0 DUP1 REVERT JUMPDEST POP GAS CALL ISZERO DUP1 ISZERO PUSH2 0x2960 JUMPI RETURNDATASIZE PUSH0 DUP1 RETURNDATACOPY RETURNDATASIZE PUSH0 REVERT JUMPDEST POP POP POP POP PUSH2 0x29A2 PUSH1 0x3 PUSH0 SWAP1 SLOAD SWAP1 PUSH2 0x100 EXP SWAP1 DIV PUSH20 0xFFFFFFFFFFFFFFFFFFFFFFFFFFFFFFFFFFFFFFFF AND CALLER PUSH2 0x299D DUP5 DUP7 PUSH2 0x5372 SWAP1 SWAP2 SWAP1 PUSH4 0xFFFFFFFF AND JUMP JUMPDEST PUSH2 0x5418 JUMP JUMPDEST POP POP POP POP POP POP POP POP POP POP JUMP JUMPDEST PUSH1 0x1B PUSH1 0x2 SWAP1 SLOAD SWAP1 PUSH2 0x100 EXP SWAP1 DIV PUSH1 0xFF AND DUP2 JUMP JUMPDEST PUSH0 ISZERO ISZERO PUSH1 0x1B PUSH1 0x1 SWAP1 SLOAD SWAP1 PUSH2 0x100 EXP SWAP1 DIV PUSH1 0xFF AND ISZERO ISZERO EQ PUSH2 0x2A16 JUMPI PUSH1 0x40 MLOAD PUSH32 0x8C379A000000000000000000000000000000000000000000000000000000000 DUP2 MSTORE PUSH1 0x4 ADD PUSH2 0x2A0D SWAP1 PUSH2 0x6BE6 JUMP JUMPDEST PUSH1 0x40 MLOAD DUP1 SWAP2 SUB SWAP1 REVERT JUMPDEST PUSH0 PUSH1 0x9 PUSH0 SWAP1 SLOAD SWAP1 PUSH2 0x100 EXP SWAP1 DIV PUSH20 0xFFFFFFFFFFFFFFFFFFFFFFFFFFFFFFFFFFFFFFFF AND PUSH20 0xFFFFFFFFFFFFFFFFFFFFFFFFFFFFFFFFFFFFFFFF AND PUSH4 0xE7DCED67 PUSH1 0x40 MLOAD DUP2 PUSH4 0xFFFFFFFF AND PUSH1 0xE0 SHL DUP2 MSTORE PUSH1 0x4 ADD PUSH1 0x20 PUSH1 0x40 MLOAD DUP1 DUP4 SUB DUP2 DUP7 GAS STATICCALL ISZERO DUP1 ISZERO PUSH2 0x2A81 JUMPI RETURNDATASIZE PUSH0 DUP1 RETURNDATACOPY RETURNDATASIZE PUSH0 REVERT JUMPDEST POP POP POP POP PUSH1 0x40 MLOAD RETURNDATASIZE PUSH1 0x1F NOT PUSH1 0x1F DUP3 ADD AND DUP3 ADD DUP1 PUSH1 0x40 MSTORE POP DUP2 ADD SWAP1 PUSH2 0x2AA5 SWAP2 SWAP1 PUSH2 0x650E JUMP JUMPDEST SWAP1 POP PUSH0 PUSH1 0x9 PUSH0 SWAP1 SLOAD SWAP1 PUSH2 0x100 EXP SWAP1 DIV PUSH20 0xFFFFFFFFFFFFFFFFFFFFFFFFFFFFFFFFFFFFFFFF AND PUSH20 0xFFFFFFFFFFFFFFFFFFFFFFFFFFFFFFFFFFFFFFFF AND PUSH4 0x2EB9771B PUSH1 0x40 MLOAD DUP2 PUSH4 0xFFFFFFFF AND PUSH1 0xE0 SHL DUP2 MSTORE PUSH1 0x4 ADD PUSH1 0x20 PUSH1 0x40 MLOAD DUP1 DUP4 SUB DUP2 DUP7 GAS STATICCALL ISZERO DUP1 ISZERO PUSH2 0x2B12 JUMPI RETURNDATASIZE PUSH0 DUP1 RETURNDATACOPY RETURNDATASIZE PUSH0 REVERT JUMPDEST POP POP POP POP PUSH1 0x40 MLOAD RETURNDATASIZE PUSH1 0x1F NOT PUSH1 0x1F DUP3 ADD AND DUP3 ADD DUP1 PUSH1 0x40 MSTORE POP DUP2 ADD SWAP1 PUSH2 0x2B36 SWAP2 SWAP1 PUSH2 0x650E JUMP JUMPDEST SWAP1 POP PUSH0 DUP2 EQ PUSH2 0x2B7A JUMPI PUSH1 0x40 MLOAD PUSH32 0x8C379A000000000000000000000000000000000000000000000000000000000 DUP2 MSTORE PUSH1 0x4 ADD PUSH2 0x2B71 SWAP1 PUSH2 0x6DE3 JUMP JUMPDEST PUSH1 0x40 MLOAD DUP1 SWAP2 SUB SWAP1 REVERT JUMPDEST PUSH0 DUP5 SWAP1 POP PUSH2 0x2BBD PUSH3 0xF4240 PUSH2 0x2BAF PUSH2 0x2BA0 PUSH1 0xF SLOAD PUSH3 0xF4240 PUSH2 0x53CF SWAP1 SWAP2 SWAP1 PUSH4 0xFFFFFFFF AND JUMP JUMPDEST DUP5 PUSH2 0x5548 SWAP1 SWAP2 SWAP1 PUSH4 0xFFFFFFFF AND JUMP JUMPDEST PUSH2 0x55BF SWAP1 SWAP2 SWAP1 PUSH4 0xFFFFFFFF AND JUMP JUMPDEST SWAP1 POP PUSH0 PUSH2 0x2BE7 PUSH1 0x64 PUSH2 0x2BD9 PUSH1 0x1E DUP6 PUSH2 0x5548 SWAP1 SWAP2 SWAP1 PUSH4 0xFFFFFFFF AND JUMP JUMPDEST PUSH2 0x55BF SWAP1 SWAP2 SWAP1 PUSH4 0xFFFFFFFF AND JUMP JUMPDEST SWAP1 POP PUSH0 PUSH2 0x2C1D DUP6 PUSH2 0x2C0F PUSH3 0xF4240 DUP6 DUP8 PUSH2 0x2C01 SWAP2 SWAP1 PUSH2 0x6E01 JUMP JUMPDEST PUSH2 0x5548 SWAP1 SWAP2 SWAP1 PUSH4 0xFFFFFFFF AND JUMP JUMPDEST PUSH2 0x55BF SWAP1 SWAP2 SWAP1 PUSH4 0xFFFFFFFF AND JUMP JUMPDEST SWAP1 POP PUSH2 0x2C6F DUP2 PUSH1 0x12 PUSH0 CALLER PUSH20 0xFFFFFFFFFFFFFFFFFFFFFFFFFFFFFFFFFFFFFFFF AND PUSH20 0xFFFFFFFFFFFFFFFFFFFFFFFFFFFFFFFFFFFFFFFF AND DUP2 MSTORE PUSH1 0x20 ADD SWAP1 DUP2 MSTORE PUSH1 0x20 ADD PUSH0 KECCAK256 SLOAD PUSH2 0x5372 SWAP1 SWAP2 SWAP1 PUSH4 0xFFFFFFFF AND JUMP JUMPDEST PUSH1 0x12 PUSH0 CALLER PUSH20 0xFFFFFFFFFFFFFFFFFFFFFFFFFFFFFFFFFFFFFFFF AND PUSH20 0xFFFFFFFFFFFFFFFFFFFFFFFFFFFFFFFFFFFFFFFF AND DUP2 MSTORE PUSH1 0x20 ADD SWAP1 DUP2 MSTORE PUSH1 0x20 ADD PUSH0 KECCAK256 DUP2 SWAP1 SSTORE POP PUSH2 0x2CC5 DUP2 PUSH1 0x15 SLOAD PUSH2 0x5372 SWAP1 SWAP2 SWAP1 PUSH4 0xFFFFFFFF AND JUMP JUMPDEST PUSH1 0x15 DUP2 SWAP1 SSTORE POP NUMBER PUSH1 0x16 PUSH0 CALLER PUSH20 0xFFFFFFFFFFFFFFFFFFFFFFFFFFFFFFFFFFFFFFFF AND PUSH20 0xFFFFFFFFFFFFFFFFFFFFFFFFFFFFFFFFFFFFFFFF AND DUP2 MSTORE PUSH1 0x20 ADD SWAP1 DUP2 MSTORE PUSH1 0x20 ADD PUSH0 KECCAK256 DUP2 SWAP1 SSTORE POP DUP1 DUP7 GT ISZERO PUSH2 0x2D50 JUMPI PUSH1 0x40 MLOAD PUSH32 0x8C379A000000000000000000000000000000000000000000000000000000000 DUP2 MSTORE PUSH1 0x4 ADD PUSH2 0x2D47 SWAP1 PUSH2 0x6986 JUMP JUMPDEST PUSH1 0x40 MLOAD DUP1 SWAP2 SUB SWAP1 REVERT JUMPDEST PUSH1 0x9 PUSH0 SWAP1 SLOAD SWAP1 PUSH2 0x100 EXP SWAP1 DIV PUSH20 0xFFFFFFFFFFFFFFFFFFFFFFFFFFFFFFFFFFFFFFFF AND PUSH20 0xFFFFFFFFFFFFFFFFFFFFFFFFFFFFFFFFFFFFFFFF AND PUSH4 0xA8A778AE CALLER DUP10 PUSH1 0x40 MLOAD DUP4 PUSH4 0xFFFFFFFF AND PUSH1 0xE0 SHL DUP2 MSTORE PUSH1 0x4 ADD PUSH2 0x2DAC SWAP3 SWAP2 SWAP1 PUSH2 0x657A JUMP JUMPDEST PUSH0 PUSH1 0x40 MLOAD DUP1 DUP4 SUB DUP2 PUSH0 DUP8 DUP1 EXTCODESIZE ISZERO DUP1 ISZERO PUSH2 0x2DC3 JUMPI PUSH0 DUP1 REVERT JUMPDEST POP GAS CALL ISZERO DUP1 ISZERO PUSH2 0x2DD5 JUMPI RETURNDATASIZE PUSH0 DUP1 RETURNDATACOPY RETURNDATASIZE PUSH0 REVERT JUMPDEST POP POP POP POP PUSH1 0x8 PUSH0 SWAP1 SLOAD SWAP1 PUSH2 0x100 EXP SWAP1 DIV PUSH20 0xFFFFFFFFFFFFFFFFFFFFFFFFFFFFFFFFFFFFFFFF AND PUSH20 0xFFFFFFFFFFFFFFFFFFFFFFFFFFFFFFFFFFFFFFFF AND PUSH4 0xB4F56B26 ADDRESS DUP4 PUSH1 0x40 MLOAD DUP4 PUSH4 0xFFFFFFFF AND PUSH1 0xE0 SHL DUP2 MSTORE PUSH1 0x4 ADD PUSH2 0x2E35 SWAP3 SWAP2 SWAP1 PUSH2 0x657A JUMP JUMPDEST PUSH0 PUSH1 0x40 MLOAD DUP1 DUP4 SUB DUP2 PUSH0 DUP8 DUP1 EXTCODESIZE ISZERO DUP1 ISZERO PUSH2 0x2E4C JUMPI PUSH0 DUP1 REVERT JUMPDEST POP GAS CALL ISZERO DUP1 ISZERO PUSH2 0x2E5E JUMPI RETURNDATASIZE PUSH0 DUP1 RETURNDATACOPY RETURNDATASIZE PUSH0 REVERT JUMPDEST POP POP POP POP PUSH0 PUSH2 0x2F18 PUSH1 0x9 PUSH0 SWAP1 SLOAD SWAP1 PUSH2 0x100 EXP SWAP1 DIV PUSH20 0xFFFFFFFFFFFFFFFFFFFFFFFFFFFFFFFFFFFFFFFF AND PUSH20 0xFFFFFFFFFFFFFFFFFFFFFFFFFFFFFFFFFFFFFFFF AND PUSH4 0x9795F3F PUSH1 0x40 MLOAD DUP2 PUSH4 0xFFFFFFFF AND PUSH1 0xE0 SHL DUP2 MSTORE PUSH1 0x4 ADD PUSH1 0x20 PUSH1 0x40 MLOAD DUP1 DUP4 SUB DUP2 DUP7 GAS STATICCALL ISZERO DUP1 ISZERO PUSH2 0x2ED0 JUMPI RETURNDATASIZE PUSH0 DUP1 RETURNDATACOPY RETURNDATASIZE PUSH0 REVERT JUMPDEST POP POP POP POP PUSH1 0x40 MLOAD RETURNDATASIZE PUSH1 0x1F NOT PUSH1 0x1F DUP3 ADD AND DUP3 ADD DUP1 PUSH1 0x40 MSTORE POP DUP2 ADD SWAP1 PUSH2 0x2EF4 SWAP2 SWAP1 PUSH2 0x650E JUMP JUMPDEST PUSH2 0x2F0A PUSH3 0xF4240 DUP7 PUSH2 0x5548 SWAP1 SWAP2 SWAP1 PUSH4 0xFFFFFFFF AND JUMP JUMPDEST PUSH2 0x55BF SWAP1 SWAP2 SWAP1 PUSH4 0xFFFFFFFF AND JUMP JUMPDEST SWAP1 POP PUSH1 0xA PUSH0 SWAP1 SLOAD SWAP1 PUSH2 0x100 EXP SWAP1 DIV PUSH20 0xFFFFFFFFFFFFFFFFFFFFFFFFFFFFFFFFFFFFFFFF AND PUSH20 0xFFFFFFFFFFFFFFFFFFFFFFFFFFFFFFFFFFFFFFFF AND PUSH4 0xA9059CBB CALLER PUSH2 0x2F6F PUSH4 0x3B9ACA00 DUP6 PUSH2 0x55BF SWAP1 SWAP2 SWAP1 PUSH4 0xFFFFFFFF AND JUMP JUMPDEST PUSH1 0x40 MLOAD DUP4 PUSH4 0xFFFFFFFF AND PUSH1 0xE0 SHL DUP2 MSTORE PUSH1 0x4 ADD PUSH2 0x2F8C SWAP3 SWAP2 SWAP1 PUSH2 0x657A JUMP JUMPDEST PUSH1 0x20 PUSH1 0x40 MLOAD DUP1 DUP4 SUB DUP2 PUSH0 DUP8 GAS CALL ISZERO DUP1 ISZERO PUSH2 0x2FA8 JUMPI RETURNDATASIZE PUSH0 DUP1 RETURNDATACOPY RETURNDATASIZE PUSH0 REVERT JUMPDEST POP POP POP POP PUSH1 0x40 MLOAD RETURNDATASIZE PUSH1 0x1F NOT PUSH1 0x1F DUP3 ADD AND DUP3 ADD DUP1 PUSH1 0x40 MSTORE POP DUP2 ADD SWAP1 PUSH2 0x2FCC SWAP2 SWAP1 PUSH2 0x6AA1 JUMP JUMPDEST POP POP POP POP POP POP POP POP POP JUMP JUMPDEST PUSH1 0x2 PUSH0 SWAP1 SLOAD SWAP1 PUSH2 0x100 EXP SWAP1 DIV PUSH20 0xFFFFFFFFFFFFFFFFFFFFFFFFFFFFFFFFFFFFFFFF AND PUSH20 0xFFFFFFFFFFFFFFFFFFFFFFFFFFFFFFFFFFFFFFFF AND CALLER PUSH20 0xFFFFFFFFFFFFFFFFFFFFFFFFFFFFFFFFFFFFFFFF AND EQ PUSH2 0x3066 JUMPI PUSH1 0x40 MLOAD PUSH32 0x8C379A000000000000000000000000000000000000000000000000000000000 DUP2 MSTORE PUSH1 0x4 ADD PUSH2 0x305D SWAP1 PUSH2 0x6EA4 JUMP JUMPDEST PUSH1 0x40 MLOAD DUP1 SWAP2 SUB SWAP1 REVERT JUMPDEST PUSH32 0xB532073B38C83145E3E5135377A08BF9AAB55BC0FD7C1179CD4FB995D2A5159C PUSH1 0x1 PUSH0 SWAP1 SLOAD SWAP1 PUSH2 0x100 EXP SWAP1 DIV PUSH20 0xFFFFFFFFFFFFFFFFFFFFFFFFFFFFFFFFFFFFFFFF AND PUSH1 0x2 PUSH0 SWAP1 SLOAD SWAP1 PUSH2 0x100 EXP SWAP1 DIV PUSH20 0xFFFFFFFFFFFFFFFFFFFFFFFFFFFFFFFFFFFFFFFF AND PUSH1 0x40 MLOAD PUSH2 0x30D9 SWAP3 SWAP2 SWAP1 PUSH2 0x6EC2 JUMP JUMPDEST PUSH1 0x40 MLOAD DUP1 SWAP2 SUB SWAP1 LOG1 PUSH1 0x2 PUSH0 SWAP1 SLOAD SWAP1 PUSH2 0x100 EXP SWAP1 DIV PUSH20 0xFFFFFFFFFFFFFFFFFFFFFFFFFFFFFFFFFFFFFFFF AND PUSH1 0x1 PUSH0 PUSH2 0x100 EXP DUP2 SLOAD DUP2 PUSH20 0xFFFFFFFFFFFFFFFFFFFFFFFFFFFFFFFFFFFFFFFF MUL NOT AND SWAP1 DUP4 PUSH20 0xFFFFFFFFFFFFFFFFFFFFFFFFFFFFFFFFFFFFFFFF AND MUL OR SWAP1 SSTORE POP PUSH0 PUSH1 0x2 PUSH0 PUSH2 0x100 EXP DUP2 SLOAD DUP2 PUSH20 0xFFFFFFFFFFFFFFFFFFFFFFFFFFFFFFFFFFFFFFFF MUL NOT AND SWAP1 DUP4 PUSH20 0xFFFFFFFFFFFFFFFFFFFFFFFFFFFFFFFFFFFFFFFF AND MUL OR SWAP1 SSTORE POP JUMP JUMPDEST PUSH2 0x31AE PUSH32 0xBB2C68B8DC5BCCDD2536307080A7865A7E133BF54E31D4D463B1B749B4BCF26D CALLER PUSH2 0x44F5 JUMP JUMPDEST PUSH2 0x31B6 JUMPI PUSH0 DUP1 REVERT JUMPDEST PUSH0 ISZERO ISZERO PUSH1 0x1B PUSH1 0x4 SWAP1 SLOAD SWAP1 PUSH2 0x100 EXP SWAP1 DIV PUSH1 0xFF AND ISZERO ISZERO SUB PUSH2 0x31DC JUMPI DUP1 PUSH1 0x18 DUP2 SWAP1 SSTORE POP PUSH2 0x31E4 JUMP JUMPDEST PUSH0 PUSH1 0x18 DUP2 SWAP1 SSTORE POP JUMPDEST PUSH1 0x1B PUSH1 0x4 SWAP1 SLOAD SWAP1 PUSH2 0x100 EXP SWAP1 DIV PUSH1 0xFF AND ISZERO PUSH1 0x1B PUSH1 0x4 PUSH2 0x100 EXP DUP2 SLOAD DUP2 PUSH1 0xFF MUL NOT AND SWAP1 DUP4 ISZERO ISZERO MUL OR SWAP1 SSTORE POP PUSH32 0xBF1F9E6D8D67BB57A141C627F40368EC23ED7603249F0C3518C16EAFBF9C4F6F PUSH1 0x1B PUSH1 0x4 SWAP1 SLOAD SWAP1 PUSH2 0x100 EXP SWAP1 DIV PUSH1 0xFF AND PUSH1 0x40 MLOAD PUSH2 0x324C SWAP2 SWAP1 PUSH2 0x6142 JUMP JUMPDEST PUSH1 0x40 MLOAD DUP1 SWAP2 SUB SWAP1 LOG1 POP JUMP JUMPDEST PUSH1 0x14 SLOAD DUP2 JUMP JUMPDEST PUSH2 0x3287 PUSH32 0xC65532185ED70B2E999433E2E9FAC124E083ACB13EC183A4E05944DA0792337B CALLER PUSH2 0x44F5 JUMP JUMPDEST PUSH2 0x328F JUMPI PUSH0 DUP1 REVERT JUMPDEST PUSH1 0x1B PUSH0 SWAP1 SLOAD SWAP1 PUSH2 0x100 EXP SWAP1 DIV PUSH1 0xFF AND ISZERO PUSH1 0x1B PUSH0 PUSH2 0x100 EXP DUP2 SLOAD DUP2 PUSH1 0xFF MUL NOT AND SWAP1 DUP4 ISZERO ISZERO MUL OR SWAP1 SSTORE POP PUSH32 0x6BDFE227D5DB299C59AA56D5F846F40DBD73B271AAA78E18ED74FC3E00B8AA6B PUSH1 0x1B PUSH0 SWAP1 SLOAD SWAP1 PUSH2 0x100 EXP SWAP1 DIV PUSH1 0xFF AND PUSH1 0x40 MLOAD PUSH2 0x32F4 SWAP2 SWAP1 PUSH2 0x6142 JUMP JUMPDEST PUSH1 0x40 MLOAD DUP1 SWAP2 SUB SWAP1 LOG1 JUMP JUMPDEST PUSH0 ISZERO ISZERO PUSH1 0x1B PUSH1 0x1 SWAP1 SLOAD SWAP1 PUSH2 0x100 EXP SWAP1 DIV PUSH1 0xFF AND ISZERO ISZERO EQ PUSH2 0x3353 JUMPI PUSH1 0x40 MLOAD PUSH32 0x8C379A000000000000000000000000000000000000000000000000000000000 DUP2 MSTORE PUSH1 0x4 ADD PUSH2 0x334A SWAP1 PUSH2 0x6BE6 JUMP JUMPDEST PUSH1 0x40 MLOAD DUP1 SWAP2 SUB SWAP1 REVERT JUMPDEST PUSH0 PUSH1 0x9 PUSH0 SWAP1 SLOAD SWAP1 PUSH2 0x100 EXP SWAP1 DIV PUSH20 0xFFFFFFFFFFFFFFFFFFFFFFFFFFFFFFFFFFFFFFFF AND PUSH20 0xFFFFFFFFFFFFFFFFFFFFFFFFFFFFFFFFFFFFFFFF AND PUSH4 0xE7DCED67 PUSH1 0x40 MLOAD DUP2 PUSH4 0xFFFFFFFF AND PUSH1 0xE0 SHL DUP2 MSTORE PUSH1 0x4 ADD PUSH1 0x20 PUSH1 0x40 MLOAD DUP1 DUP4 SUB DUP2 DUP7 GAS STATICCALL ISZERO DUP1 ISZERO PUSH2 0x33BE JUMPI RETURNDATASIZE PUSH0 DUP1 RETURNDATACOPY RETURNDATASIZE PUSH0 REVERT JUMPDEST POP POP POP POP PUSH1 0x40 MLOAD RETURNDATASIZE PUSH1 0x1F NOT PUSH1 0x1F DUP3 ADD AND DUP3 ADD DUP1 PUSH1 0x40 MSTORE POP DUP2 ADD SWAP1 PUSH2 0x33E2 SWAP2 SWAP1 PUSH2 0x650E JUMP JUMPDEST SWAP1 POP PUSH0 PUSH1 0x9 PUSH0 SWAP1 SLOAD SWAP1 PUSH2 0x100 EXP SWAP1 DIV PUSH20 0xFFFFFFFFFFFFFFFFFFFFFFFFFFFFFFFFFFFFFFFF AND PUSH20 0xFFFFFFFFFFFFFFFFFFFFFFFFFFFFFFFFFFFFFFFF AND PUSH4 0x2EB9771B PUSH1 0x40 MLOAD DUP2 PUSH4 0xFFFFFFFF AND PUSH1 0xE0 SHL DUP2 MSTORE PUSH1 0x4 ADD PUSH1 0x20 PUSH1 0x40 MLOAD DUP1 DUP4 SUB DUP2 DUP7 GAS STATICCALL ISZERO DUP1 ISZERO PUSH2 0x344F JUMPI RETURNDATASIZE PUSH0 DUP1 RETURNDATACOPY RETURNDATASIZE PUSH0 REVERT JUMPDEST POP POP POP POP PUSH1 0x40 MLOAD RETURNDATASIZE PUSH1 0x1F NOT PUSH1 0x1F DUP3 ADD AND DUP3 ADD DUP1 PUSH1 0x40 MSTORE POP DUP2 ADD SWAP1 PUSH2 0x3473 SWAP2 SWAP1 PUSH2 0x650E JUMP JUMPDEST SWAP1 POP PUSH3 0xF4240 DUP2 LT DUP1 ISZERO PUSH2 0x3486 JUMPI POP PUSH0 DUP2 GT JUMPDEST PUSH2 0x34C5 JUMPI PUSH1 0x40 MLOAD PUSH32 0x8C379A000000000000000000000000000000000000000000000000000000000 DUP2 MSTORE PUSH1 0x4 ADD PUSH2 0x34BC SWAP1 PUSH2 0x686A JUMP JUMPDEST PUSH1 0x40 MLOAD DUP1 SWAP2 SUB SWAP1 REVERT JUMPDEST PUSH0 PUSH2 0x34CE PUSH2 0x5191 JUMP JUMPDEST SWAP1 POP PUSH0 PUSH2 0x3510 PUSH3 0xF4240 PUSH2 0x3502 PUSH2 0x34F3 PUSH1 0xF SLOAD PUSH3 0xF4240 PUSH2 0x53CF SWAP1 SWAP2 SWAP1 PUSH4 0xFFFFFFFF AND JUMP JUMPDEST DUP11 PUSH2 0x5548 SWAP1 SWAP2 SWAP1 PUSH4 0xFFFFFFFF AND JUMP JUMPDEST PUSH2 0x55BF SWAP1 SWAP2 SWAP1 PUSH4 0xFFFFFFFF AND JUMP JUMPDEST SWAP1 POP PUSH0 PUSH2 0x354D PUSH2 0x353E PUSH3 0xF4240 PUSH2 0x3530 DUP8 DUP7 PUSH2 0x5548 SWAP1 SWAP2 SWAP1 PUSH4 0xFFFFFFFF AND JUMP JUMPDEST PUSH2 0x55BF SWAP1 SWAP2 SWAP1 PUSH4 0xFFFFFFFF AND JUMP JUMPDEST DUP4 PUSH2 0x53CF SWAP1 SWAP2 SWAP1 PUSH4 0xFFFFFFFF AND JUMP JUMPDEST SWAP1 POP PUSH0 PUSH2 0x3577 PUSH1 0x64 PUSH2 0x3569 PUSH1 0x1E DUP6 PUSH2 0x5548 SWAP1 SWAP2 SWAP1 PUSH4 0xFFFFFFFF AND JUMP JUMPDEST PUSH2 0x55BF SWAP1 SWAP2 SWAP1 PUSH4 0xFFFFFFFF AND JUMP JUMPDEST SWAP1 POP PUSH0 PUSH2 0x35AD DUP8 PUSH2 0x359F PUSH3 0xF4240 DUP6 DUP8 PUSH2 0x3591 SWAP2 SWAP1 PUSH2 0x6E01 JUMP JUMPDEST PUSH2 0x5548 SWAP1 SWAP2 SWAP1 PUSH4 0xFFFFFFFF AND JUMP JUMPDEST PUSH2 0x55BF SWAP1 SWAP2 SWAP1 PUSH4 0xFFFFFFFF AND JUMP JUMPDEST SWAP1 POP PUSH0 PUSH2 0x35EF PUSH32 0x0 PUSH1 0xA PUSH2 0x35E0 SWAP2 SWAP1 PUSH2 0x64B0 JUMP JUMPDEST DUP7 PUSH2 0x55BF SWAP1 SWAP2 SWAP1 PUSH4 0xFFFFFFFF AND JUMP JUMPDEST SWAP1 POP PUSH0 PUSH2 0x361A PUSH3 0xF4240 PUSH2 0x360C DUP11 DUP6 PUSH2 0x5548 SWAP1 SWAP2 SWAP1 PUSH4 0xFFFFFFFF AND JUMP JUMPDEST PUSH2 0x55BF SWAP1 SWAP2 SWAP1 PUSH4 0xFFFFFFFF AND JUMP JUMPDEST SWAP1 POP PUSH0 PUSH2 0x3645 DUP9 PUSH2 0x3637 PUSH3 0xF4240 DUP6 PUSH2 0x5548 SWAP1 SWAP2 SWAP1 PUSH4 0xFFFFFFFF AND JUMP JUMPDEST PUSH2 0x55BF SWAP1 SWAP2 SWAP1 PUSH4 0xFFFFFFFF AND JUMP JUMPDEST SWAP1 POP PUSH2 0x36F4 PUSH1 0x14 SLOAD PUSH1 0x3 PUSH0 SWAP1 SLOAD SWAP1 PUSH2 0x100 EXP SWAP1 DIV PUSH20 0xFFFFFFFFFFFFFFFFFFFFFFFFFFFFFFFFFFFFFFFF AND PUSH20 0xFFFFFFFFFFFFFFFFFFFFFFFFFFFFFFFFFFFFFFFF AND PUSH4 0x70A08231 ADDRESS PUSH1 0x40 MLOAD DUP3 PUSH4 0xFFFFFFFF AND PUSH1 0xE0 SHL DUP2 MSTORE PUSH1 0x4 ADD PUSH2 0x36A7 SWAP2 SWAP1 PUSH2 0x6081 JUMP JUMPDEST PUSH1 0x20 PUSH1 0x40 MLOAD DUP1 DUP4 SUB DUP2 DUP7 GAS STATICCALL ISZERO DUP1 ISZERO PUSH2 0x36C2 JUMPI RETURNDATASIZE PUSH0 DUP1 RETURNDATACOPY RETURNDATASIZE PUSH0 REVERT JUMPDEST POP POP POP POP PUSH1 0x40 MLOAD RETURNDATASIZE PUSH1 0x1F NOT PUSH1 0x1F DUP3 ADD AND DUP3 ADD DUP1 PUSH1 0x40 MSTORE POP DUP2 ADD SWAP1 PUSH2 0x36E6 SWAP2 SWAP1 PUSH2 0x650E JUMP JUMPDEST PUSH2 0x53CF SWAP1 SWAP2 SWAP1 PUSH4 0xFFFFFFFF AND JUMP JUMPDEST DUP2 GT ISZERO PUSH2 0x3736 JUMPI PUSH1 0x40 MLOAD PUSH32 0x8C379A000000000000000000000000000000000000000000000000000000000 DUP2 MSTORE PUSH1 0x4 ADD PUSH2 0x372D SWAP1 PUSH2 0x6CB6 JUMP JUMPDEST PUSH1 0x40 MLOAD DUP1 SWAP2 SUB SWAP1 REVERT JUMPDEST DUP1 DUP12 GT ISZERO PUSH2 0x3779 JUMPI PUSH1 0x40 MLOAD PUSH32 0x8C379A000000000000000000000000000000000000000000000000000000000 DUP2 MSTORE PUSH1 0x4 ADD PUSH2 0x3770 SWAP1 PUSH2 0x6F59 JUMP JUMPDEST PUSH1 0x40 MLOAD DUP1 SWAP2 SUB SWAP1 REVERT JUMPDEST DUP4 DUP13 GT ISZERO PUSH2 0x37BC JUMPI PUSH1 0x40 MLOAD PUSH32 0x8C379A000000000000000000000000000000000000000000000000000000000 DUP2 MSTORE PUSH1 0x4 ADD PUSH2 0x37B3 SWAP1 PUSH2 0x6FC1 JUMP JUMPDEST PUSH1 0x40 MLOAD DUP1 SWAP2 SUB SWAP1 REVERT JUMPDEST PUSH2 0x380C DUP2 PUSH1 0x13 PUSH0 CALLER PUSH20 0xFFFFFFFFFFFFFFFFFFFFFFFFFFFFFFFFFFFFFFFF AND PUSH20 0xFFFFFFFFFFFFFFFFFFFFFFFFFFFFFFFFFFFFFFFF AND DUP2 MSTORE PUSH1 0x20 ADD SWAP1 DUP2 MSTORE PUSH1 0x20 ADD PUSH0 KECCAK256 SLOAD PUSH2 0x5372 SWAP1 SWAP2 SWAP1 PUSH4 0xFFFFFFFF AND JUMP JUMPDEST PUSH1 0x13 PUSH0 CALLER PUSH20 0xFFFFFFFFFFFFFFFFFFFFFFFFFFFFFFFFFFFFFFFF AND PUSH20 0xFFFFFFFFFFFFFFFFFFFFFFFFFFFFFFFFFFFFFFFF AND DUP2 MSTORE PUSH1 0x20 ADD SWAP1 DUP2 MSTORE PUSH1 0x20 ADD PUSH0 KECCAK256 DUP2 SWAP1 SSTORE POP PUSH2 0x3862 DUP2 PUSH1 0x14 SLOAD PUSH2 0x5372 SWAP1 SWAP2 SWAP1 PUSH4 0xFFFFFFFF AND JUMP JUMPDEST PUSH1 0x14 DUP2 SWAP1 SSTORE POP PUSH2 0x38B8 DUP5 PUSH1 0x12 PUSH0 CALLER PUSH20 0xFFFFFFFFFFFFFFFFFFFFFFFFFFFFFFFFFFFFFFFF AND PUSH20 0xFFFFFFFFFFFFFFFFFFFFFFFFFFFFFFFFFFFFFFFF AND DUP2 MSTORE PUSH1 0x20 ADD SWAP1 DUP2 MSTORE PUSH1 0x20 ADD PUSH0 KECCAK256 SLOAD PUSH2 0x5372 SWAP1 SWAP2 SWAP1 PUSH4 0xFFFFFFFF AND JUMP JUMPDEST PUSH1 0x12 PUSH0 CALLER PUSH20 0xFFFFFFFFFFFFFFFFFFFFFFFFFFFFFFFFFFFFFFFF AND PUSH20 0xFFFFFFFFFFFFFFFFFFFFFFFFFFFFFFFFFFFFFFFF AND DUP2 MSTORE PUSH1 0x20 ADD SWAP1 DUP2 MSTORE PUSH1 0x20 ADD PUSH0 KECCAK256 DUP2 SWAP1 SSTORE POP PUSH2 0x390E DUP5 PUSH1 0x15 SLOAD PUSH2 0x5372 SWAP1 SWAP2 SWAP1 PUSH4 0xFFFFFFFF AND JUMP JUMPDEST PUSH1 0x15 DUP2 SWAP1 SSTORE POP NUMBER PUSH1 0x16 PUSH0 CALLER PUSH20 0xFFFFFFFFFFFFFFFFFFFFFFFFFFFFFFFFFFFFFFFF AND PUSH20 0xFFFFFFFFFFFFFFFFFFFFFFFFFFFFFFFFFFFFFFFF AND DUP2 MSTORE PUSH1 0x20 ADD SWAP1 DUP2 MSTORE PUSH1 0x20 ADD PUSH0 KECCAK256 DUP2 SWAP1 SSTORE POP PUSH0 PUSH2 0x3A0C PUSH1 0x9 PUSH0 SWAP1 SLOAD SWAP1 PUSH2 0x100 EXP SWAP1 DIV PUSH20 0xFFFFFFFFFFFFFFFFFFFFFFFFFFFFFFFFFFFFFFFF AND PUSH20 0xFFFFFFFFFFFFFFFFFFFFFFFFFFFFFFFFFFFFFFFF AND PUSH4 0x9795F3F PUSH1 0x40 MLOAD DUP2 PUSH4 0xFFFFFFFF AND PUSH1 0xE0 SHL DUP2 MSTORE PUSH1 0x4 ADD PUSH1 0x20 PUSH1 0x40 MLOAD DUP1 DUP4 SUB DUP2 DUP7 GAS STATICCALL ISZERO DUP1 ISZERO PUSH2 0x39C4 JUMPI RETURNDATASIZE PUSH0 DUP1 RETURNDATACOPY RETURNDATASIZE PUSH0 REVERT JUMPDEST POP POP POP POP PUSH1 0x40 MLOAD RETURNDATASIZE PUSH1 0x1F NOT PUSH1 0x1F DUP3 ADD AND DUP3 ADD DUP1 PUSH1 0x40 MSTORE POP DUP2 ADD SWAP1 PUSH2 0x39E8 SWAP2 SWAP1 PUSH2 0x650E JUMP JUMPDEST PUSH2 0x39FE PUSH3 0xF4240 DUP10 PUSH2 0x5548 SWAP1 SWAP2 SWAP1 PUSH4 0xFFFFFFFF AND JUMP JUMPDEST PUSH2 0x55BF SWAP1 SWAP2 SWAP1 PUSH4 0xFFFFFFFF AND JUMP JUMPDEST SWAP1 POP PUSH1 0xA PUSH0 SWAP1 SLOAD SWAP1 PUSH2 0x100 EXP SWAP1 DIV PUSH20 0xFFFFFFFFFFFFFFFFFFFFFFFFFFFFFFFFFFFFFFFF AND PUSH20 0xFFFFFFFFFFFFFFFFFFFFFFFFFFFFFFFFFFFFFFFF AND PUSH4 0xA9059CBB CALLER PUSH2 0x3A63 PUSH4 0x3B9ACA00 DUP6 PUSH2 0x55BF SWAP1 SWAP2 SWAP1 PUSH4 0xFFFFFFFF AND JUMP JUMPDEST PUSH1 0x40 MLOAD DUP4 PUSH4 0xFFFFFFFF AND PUSH1 0xE0 SHL DUP2 MSTORE PUSH1 0x4 ADD PUSH2 0x3A80 SWAP3 SWAP2 SWAP1 PUSH2 0x657A JUMP JUMPDEST PUSH1 0x20 PUSH1 0x40 MLOAD DUP1 DUP4 SUB DUP2 PUSH0 DUP8 GAS CALL ISZERO DUP1 ISZERO PUSH2 0x3A9C JUMPI RETURNDATASIZE PUSH0 DUP1 RETURNDATACOPY RETURNDATASIZE PUSH0 REVERT JUMPDEST POP POP POP POP PUSH1 0x40 MLOAD RETURNDATASIZE PUSH1 0x1F NOT PUSH1 0x1F DUP3 ADD AND DUP3 ADD DUP1 PUSH1 0x40 MSTORE POP DUP2 ADD SWAP1 PUSH2 0x3AC0 SWAP2 SWAP1 PUSH2 0x6AA1 JUMP JUMPDEST POP PUSH0 DUP15 SWAP1 POP PUSH1 0x9 PUSH0 SWAP1 SLOAD SWAP1 PUSH2 0x100 EXP SWAP1 DIV PUSH20 0xFFFFFFFFFFFFFFFFFFFFFFFFFFFFFFFFFFFFFFFF AND PUSH20 0xFFFFFFFFFFFFFFFFFFFFFFFFFFFFFFFFFFFFFFFF AND PUSH4 0xA8A778AE CALLER DUP4 PUSH1 0x40 MLOAD DUP4 PUSH4 0xFFFFFFFF AND PUSH1 0xE0 SHL DUP2 MSTORE PUSH1 0x4 ADD PUSH2 0x3B21 SWAP3 SWAP2 SWAP1 PUSH2 0x657A JUMP JUMPDEST PUSH0 PUSH1 0x40 MLOAD DUP1 DUP4 SUB DUP2 PUSH0 DUP8 DUP1 EXTCODESIZE ISZERO DUP1 ISZERO PUSH2 0x3B38 JUMPI PUSH0 DUP1 REVERT JUMPDEST POP GAS CALL ISZERO DUP1 ISZERO PUSH2 0x3B4A JUMPI RETURNDATASIZE PUSH0 DUP1 RETURNDATACOPY RETURNDATASIZE PUSH0 REVERT JUMPDEST POP POP POP POP PUSH1 0x8 PUSH0 SWAP1 SLOAD SWAP1 PUSH2 0x100 EXP SWAP1 DIV PUSH20 0xFFFFFFFFFFFFFFFFFFFFFFFFFFFFFFFFFFFFFFFF AND PUSH20 0xFFFFFFFFFFFFFFFFFFFFFFFFFFFFFFFFFFFFFFFF AND PUSH4 0xB4F56B26 ADDRESS DUP9 PUSH1 0x40 MLOAD DUP4 PUSH4 0xFFFFFFFF AND PUSH1 0xE0 SHL DUP2 MSTORE PUSH1 0x4 ADD PUSH2 0x3BAA SWAP3 SWAP2 SWAP1 PUSH2 0x657A JUMP JUMPDEST PUSH0 PUSH1 0x40 MLOAD DUP1 DUP4 SUB DUP2 PUSH0 DUP8 DUP1 EXTCODESIZE ISZERO DUP1 ISZERO PUSH2 0x3BC1 JUMPI PUSH0 DUP1 REVERT JUMPDEST POP GAS CALL ISZERO DUP1 ISZERO PUSH2 0x3BD3 JUMPI RETURNDATASIZE PUSH0 DUP1 RETURNDATACOPY RETURNDATASIZE PUSH0 REVERT JUMPDEST POP POP POP POP POP POP POP POP POP POP POP POP POP POP POP POP POP POP POP JUMP JUMPDEST PUSH1 0x1B PUSH0 SWAP1 SLOAD SWAP1 PUSH2 0x100 EXP SWAP1 DIV PUSH1 0xFF AND DUP2 JUMP JUMPDEST PUSH1 0x1B PUSH1 0x3 SWAP1 SLOAD SWAP1 PUSH2 0x100 EXP SWAP1 DIV PUSH1 0xFF AND DUP2 JUMP JUMPDEST PUSH0 ISZERO ISZERO PUSH1 0x1B PUSH1 0x2 SWAP1 SLOAD SWAP1 PUSH2 0x100 EXP SWAP1 DIV PUSH1 0xFF AND ISZERO ISZERO EQ PUSH2 0x3C62 JUMPI PUSH1 0x40 MLOAD PUSH32 0x8C379A000000000000000000000000000000000000000000000000000000000 DUP2 MSTORE PUSH1 0x4 ADD PUSH2 0x3C59 SWAP1 PUSH2 0x7029 JUMP JUMPDEST PUSH1 0x40 MLOAD DUP1 SWAP2 SUB SWAP1 REVERT JUMPDEST PUSH0 PUSH32 0x0 PUSH1 0xA PUSH2 0x3C90 SWAP2 SWAP1 PUSH2 0x64B0 JUMP JUMPDEST DUP4 PUSH2 0x3C9B SWAP2 SWAP1 PUSH2 0x6539 JUMP JUMPDEST SWAP1 POP PUSH0 PUSH1 0x9 PUSH0 SWAP1 SLOAD SWAP1 PUSH2 0x100 EXP SWAP1 DIV PUSH20 0xFFFFFFFFFFFFFFFFFFFFFFFFFFFFFFFFFFFFFFFF AND PUSH20 0xFFFFFFFFFFFFFFFFFFFFFFFFFFFFFFFFFFFFFFFF AND PUSH4 0xE7DCED67 PUSH1 0x40 MLOAD DUP2 PUSH4 0xFFFFFFFF AND PUSH1 0xE0 SHL DUP2 MSTORE PUSH1 0x4 ADD PUSH1 0x20 PUSH1 0x40 MLOAD DUP1 DUP4 SUB DUP2 DUP7 GAS STATICCALL ISZERO DUP1 ISZERO PUSH2 0x3D08 JUMPI RETURNDATASIZE PUSH0 DUP1 RETURNDATACOPY RETURNDATASIZE PUSH0 REVERT JUMPDEST POP POP POP POP PUSH1 0x40 MLOAD RETURNDATASIZE PUSH1 0x1F NOT PUSH1 0x1F DUP3 ADD AND DUP3 ADD DUP1 PUSH1 0x40 MSTORE POP DUP2 ADD SWAP1 PUSH2 0x3D2C SWAP2 SWAP1 PUSH2 0x650E JUMP JUMPDEST SWAP1 POP PUSH0 PUSH1 0x9 PUSH0 SWAP1 SLOAD SWAP1 PUSH2 0x100 EXP SWAP1 DIV PUSH20 0xFFFFFFFFFFFFFFFFFFFFFFFFFFFFFFFFFFFFFFFF AND PUSH20 0xFFFFFFFFFFFFFFFFFFFFFFFFFFFFFFFFFFFFFFFF AND PUSH4 0x18160DDD PUSH1 0x40 MLOAD DUP2 PUSH4 0xFFFFFFFF AND PUSH1 0xE0 SHL DUP2 MSTORE PUSH1 0x4 ADD PUSH1 0x20 PUSH1 0x40 MLOAD DUP1 DUP4 SUB DUP2 DUP7 GAS STATICCALL ISZERO DUP1 ISZERO PUSH2 0x3D99 JUMPI RETURNDATASIZE PUSH0 DUP1 RETURNDATACOPY RETURNDATASIZE PUSH0 REVERT JUMPDEST POP POP POP POP PUSH1 0x40 MLOAD RETURNDATASIZE PUSH1 0x1F NOT PUSH1 0x1F DUP3 ADD AND DUP3 ADD DUP1 PUSH1 0x40 MSTORE POP DUP2 ADD SWAP1 PUSH2 0x3DBD SWAP2 SWAP1 PUSH2 0x650E JUMP JUMPDEST SWAP1 POP PUSH0 PUSH1 0x9 PUSH0 SWAP1 SLOAD SWAP1 PUSH2 0x100 EXP SWAP1 DIV PUSH20 0xFFFFFFFFFFFFFFFFFFFFFFFFFFFFFFFFFFFFFFFF AND PUSH20 0xFFFFFFFFFFFFFFFFFFFFFFFFFFFFFFFFFFFFFFFF AND PUSH4 0x2EB9771B PUSH1 0x40 MLOAD DUP2 PUSH4 0xFFFFFFFF AND PUSH1 0xE0 SHL DUP2 MSTORE PUSH1 0x4 ADD PUSH1 0x20 PUSH1 0x40 MLOAD DUP1 DUP4 SUB DUP2 DUP7 GAS STATICCALL ISZERO DUP1 ISZERO PUSH2 0x3E2A JUMPI RETURNDATASIZE PUSH0 DUP1 RETURNDATACOPY RETURNDATASIZE PUSH0 REVERT JUMPDEST POP POP POP POP PUSH1 0x40 MLOAD RETURNDATASIZE PUSH1 0x1F NOT PUSH1 0x1F DUP3 ADD AND DUP3 ADD DUP1 PUSH1 0x40 MSTORE POP DUP2 ADD SWAP1 PUSH2 0x3E4E SWAP2 SWAP1 PUSH2 0x650E JUMP JUMPDEST SWAP1 POP PUSH0 PUSH1 0x9 PUSH0 SWAP1 SLOAD SWAP1 PUSH2 0x100 EXP SWAP1 DIV PUSH20 0xFFFFFFFFFFFFFFFFFFFFFFFFFFFFFFFFFFFFFFFF AND PUSH20 0xFFFFFFFFFFFFFFFFFFFFFFFFFFFFFFFFFFFFFFFF AND PUSH4 0xD2D97B06 PUSH1 0x40 MLOAD DUP2 PUSH4 0xFFFFFFFF AND PUSH1 0xE0 SHL DUP2 MSTORE PUSH1 0x4 ADD PUSH1 0x20 PUSH1 0x40 MLOAD DUP1 DUP4 SUB DUP2 DUP7 GAS STATICCALL ISZERO DUP1 ISZERO PUSH2 0x3EBB JUMPI RETURNDATASIZE PUSH0 DUP1 RETURNDATACOPY RETURNDATASIZE PUSH0 REVERT JUMPDEST POP POP POP POP PUSH1 0x40 MLOAD RETURNDATASIZE PUSH1 0x1F NOT PUSH1 0x1F DUP3 ADD AND DUP3 ADD DUP1 PUSH1 0x40 MSTORE POP DUP2 ADD SWAP1 PUSH2 0x3EDF SWAP2 SWAP1 PUSH2 0x650E JUMP JUMPDEST SWAP1 POP PUSH0 DUP1 PUSH20 0x0 PUSH4 0x6058F4A DUP9 PUSH2 0x3F06 PUSH2 0x5191 JUMP JUMPDEST DUP7 DUP10 DUP10 PUSH1 0x40 MLOAD DUP7 PUSH4 0xFFFFFFFF AND PUSH1 0xE0 SHL DUP2 MSTORE PUSH1 0x4 ADD PUSH2 0x3F29 SWAP6 SWAP5 SWAP4 SWAP3 SWAP2 SWAP1 PUSH2 0x7047 JUMP JUMPDEST PUSH1 0x40 DUP1 MLOAD DUP1 DUP4 SUB DUP2 DUP7 GAS DELEGATECALL ISZERO DUP1 ISZERO PUSH2 0x3F43 JUMPI RETURNDATASIZE PUSH0 DUP1 RETURNDATACOPY RETURNDATASIZE PUSH0 REVERT JUMPDEST POP POP POP POP PUSH1 0x40 MLOAD RETURNDATASIZE PUSH1 0x1F NOT PUSH1 0x1F DUP3 ADD AND DUP3 ADD DUP1 PUSH1 0x40 MSTORE POP DUP2 ADD SWAP1 PUSH2 0x3F67 SWAP2 SWAP1 PUSH2 0x7098 JUMP JUMPDEST SWAP2 POP SWAP2 POP PUSH0 PUSH2 0x3FAB PUSH32 0x0 PUSH1 0xA PUSH2 0x3F9C SWAP2 SWAP1 PUSH2 0x64B0 JUMP JUMPDEST DUP5 PUSH2 0x55BF SWAP1 SWAP2 SWAP1 PUSH4 0xFFFFFFFF AND JUMP JUMPDEST SWAP1 POP PUSH0 PUSH2 0x3FD5 PUSH1 0x64 PUSH2 0x3FC7 PUSH1 0x46 DUP7 PUSH2 0x5548 SWAP1 SWAP2 SWAP1 PUSH4 0xFFFFFFFF AND JUMP JUMPDEST PUSH2 0x55BF SWAP1 SWAP2 SWAP1 PUSH4 0xFFFFFFFF AND JUMP JUMPDEST SWAP1 POP PUSH0 PUSH2 0x4028 DUP10 PUSH2 0x401A PUSH2 0x400B PUSH1 0x11 SLOAD PUSH2 0x3FFD PUSH1 0x19 SLOAD PUSH3 0xF4240 PUSH2 0x5372 SWAP1 SWAP2 SWAP1 PUSH4 0xFFFFFFFF AND JUMP JUMPDEST PUSH2 0x53CF SWAP1 SWAP2 SWAP1 PUSH4 0xFFFFFFFF AND JUMP JUMPDEST DUP6 PUSH2 0x5548 SWAP1 SWAP2 SWAP1 PUSH4 0xFFFFFFFF AND JUMP JUMPDEST PUSH2 0x55BF SWAP1 SWAP2 SWAP1 PUSH4 0xFFFFFFFF AND JUMP JUMPDEST SWAP1 POP PUSH0 PUSH2 0x40F2 PUSH1 0x9 PUSH0 SWAP1 SLOAD SWAP1 PUSH2 0x100 EXP SWAP1 DIV PUSH20 0xFFFFFFFFFFFFFFFFFFFFFFFFFFFFFFFFFFFFFFFF AND PUSH20 0xFFFFFFFFFFFFFFFFFFFFFFFFFFFFFFFFFFFFFFFF AND PUSH4 0x9795F3F PUSH1 0x40 MLOAD DUP2 PUSH4 0xFFFFFFFF AND PUSH1 0xE0 SHL DUP2 MSTORE PUSH1 0x4 ADD PUSH1 0x20 PUSH1 0x40 MLOAD DUP1 DUP4 SUB DUP2 DUP7 GAS STATICCALL ISZERO DUP1 ISZERO PUSH2 0x4098 JUMPI RETURNDATASIZE PUSH0 DUP1 RETURNDATACOPY RETURNDATASIZE PUSH0 REVERT JUMPDEST POP POP POP POP PUSH1 0x40 MLOAD RETURNDATASIZE PUSH1 0x1F NOT PUSH1 0x1F DUP3 ADD AND DUP3 ADD DUP1 PUSH1 0x40 MSTORE POP DUP2 ADD SWAP1 PUSH2 0x40BC SWAP2 SWAP1 PUSH2 0x650E JUMP JUMPDEST PUSH2 0x40E4 PUSH3 0xF4240 PUSH2 0x40D6 DUP8 DUP8 PUSH2 0x53CF SWAP1 SWAP2 SWAP1 PUSH4 0xFFFFFFFF AND JUMP JUMPDEST PUSH2 0x5548 SWAP1 SWAP2 SWAP1 PUSH4 0xFFFFFFFF AND JUMP JUMPDEST PUSH2 0x55BF SWAP1 SWAP2 SWAP1 PUSH4 0xFFFFFFFF AND JUMP JUMPDEST SWAP1 POP PUSH2 0x4107 DUP2 DUP4 PUSH2 0x5372 SWAP1 SWAP2 SWAP1 PUSH4 0xFFFFFFFF AND JUMP JUMPDEST DUP13 GT ISZERO PUSH2 0x4149 JUMPI PUSH1 0x40 MLOAD PUSH32 0x8C379A000000000000000000000000000000000000000000000000000000000 DUP2 MSTORE PUSH1 0x4 ADD PUSH2 0x4140 SWAP1 PUSH2 0x6986 JUMP JUMPDEST PUSH1 0x40 MLOAD DUP1 SWAP2 SUB SWAP1 REVERT JUMPDEST PUSH1 0xA PUSH0 SWAP1 SLOAD SWAP1 PUSH2 0x100 EXP SWAP1 DIV PUSH20 0xFFFFFFFFFFFFFFFFFFFFFFFFFFFFFFFFFFFFFFFF AND PUSH20 0xFFFFFFFFFFFFFFFFFFFFFFFFFFFFFFFFFFFFFFFF AND PUSH4 0xA9059CBB CALLER PUSH2 0x419E PUSH4 0x3B9ACA00 DUP6 PUSH2 0x55BF SWAP1 SWAP2 SWAP1 PUSH4 0xFFFFFFFF AND JUMP JUMPDEST PUSH1 0x40 MLOAD DUP4 PUSH4 0xFFFFFFFF AND PUSH1 0xE0 SHL DUP2 MSTORE PUSH1 0x4 ADD PUSH2 0x41BB SWAP3 SWAP2 SWAP1 PUSH2 0x657A JUMP JUMPDEST PUSH1 0x20 PUSH1 0x40 MLOAD DUP1 DUP4 SUB DUP2 PUSH0 DUP8 GAS CALL ISZERO DUP1 ISZERO PUSH2 0x41D7 JUMPI RETURNDATASIZE PUSH0 DUP1 RETURNDATACOPY RETURNDATASIZE PUSH0 REVERT JUMPDEST POP POP POP POP PUSH1 0x40 MLOAD RETURNDATASIZE PUSH1 0x1F NOT PUSH1 0x1F DUP3 ADD AND DUP3 ADD DUP1 PUSH1 0x40 MSTORE POP DUP2 ADD SWAP1 PUSH2 0x41FB SWAP2 SWAP1 PUSH2 0x6AA1 JUMP JUMPDEST POP PUSH2 0x4229 PUSH1 0x3 PUSH0 SWAP1 SLOAD SWAP1 PUSH2 0x100 EXP SWAP1 DIV PUSH20 0xFFFFFFFFFFFFFFFFFFFFFFFFFFFFFFFFFFFFFFFF AND CALLER ADDRESS DUP8 PUSH2 0x5826 JUMP JUMPDEST PUSH1 0x8 PUSH0 SWAP1 SLOAD SWAP1 PUSH2 0x100 EXP SWAP1 DIV PUSH20 0xFFFFFFFFFFFFFFFFFFFFFFFFFFFFFFFFFFFFFFFF AND PUSH20 0xFFFFFFFFFFFFFFFFFFFFFFFFFFFFFFFFFFFFFFFF AND PUSH4 0xB4F56B26 CALLER DUP6 PUSH1 0x40 MLOAD DUP4 PUSH4 0xFFFFFFFF AND PUSH1 0xE0 SHL DUP2 MSTORE PUSH1 0x4 ADD PUSH2 0x4285 SWAP3 SWAP2 SWAP1 PUSH2 0x657A JUMP JUMPDEST PUSH0 PUSH1 0x40 MLOAD DUP1 DUP4 SUB DUP2 PUSH0 DUP8 DUP1 EXTCODESIZE ISZERO DUP1 ISZERO PUSH2 0x429C JUMPI PUSH0 DUP1 REVERT JUMPDEST POP GAS CALL ISZERO DUP1 ISZERO PUSH2 0x42AE JUMPI RETURNDATASIZE PUSH0 DUP1 RETURNDATACOPY RETURNDATASIZE PUSH0 REVERT JUMPDEST POP POP POP POP POP POP POP POP POP POP POP POP POP POP POP POP POP JUMP JUMPDEST PUSH1 0x7 PUSH0 SWAP1 SLOAD SWAP1 PUSH2 0x100 EXP SWAP1 DIV PUSH20 0xFFFFFFFFFFFFFFFFFFFFFFFFFFFFFFFFFFFFFFFF AND PUSH20 0xFFFFFFFFFFFFFFFFFFFFFFFFFFFFFFFFFFFFFFFF AND CALLER PUSH20 0xFFFFFFFFFFFFFFFFFFFFFFFFFFFFFFFFFFFFFFFF AND EQ DUP1 PUSH2 0x4368 JUMPI POP PUSH1 0x1 PUSH0 SWAP1 SLOAD SWAP1 PUSH2 0x100 EXP SWAP1 DIV PUSH20 0xFFFFFFFFFFFFFFFFFFFFFFFFFFFFFFFFFFFFFFFF AND PUSH20 0xFFFFFFFFFFFFFFFFFFFFFFFFFFFFFFFFFFFFFFFF AND CALLER PUSH20 0xFFFFFFFFFFFFFFFFFFFFFFFFFFFFFFFFFFFFFFFF AND EQ JUMPDEST PUSH2 0x43A7 JUMPI PUSH1 0x40 MLOAD PUSH32 0x8C379A000000000000000000000000000000000000000000000000000000000 DUP2 MSTORE PUSH1 0x4 ADD PUSH2 0x439E SWAP1 PUSH2 0x6707 JUMP JUMPDEST PUSH1 0x40 MLOAD DUP1 SWAP2 SUB SWAP1 REVERT JUMPDEST DUP2 PUSH1 0xC PUSH0 PUSH2 0x100 EXP DUP2 SLOAD DUP2 PUSH20 0xFFFFFFFFFFFFFFFFFFFFFFFFFFFFFFFFFFFFFFFF MUL NOT AND SWAP1 DUP4 PUSH20 0xFFFFFFFFFFFFFFFFFFFFFFFFFFFFFFFFFFFFFFFF AND MUL OR SWAP1 SSTORE POP DUP2 PUSH1 0xB PUSH0 PUSH2 0x100 EXP DUP2 SLOAD DUP2 PUSH20 0xFFFFFFFFFFFFFFFFFFFFFFFFFFFFFFFFFFFFFFFF MUL NOT AND SWAP1 DUP4 PUSH20 0xFFFFFFFFFFFFFFFFFFFFFFFFFFFFFFFFFFFFFFFF AND MUL OR SWAP1 SSTORE POP DUP1 PUSH1 0xD PUSH0 PUSH2 0x100 EXP DUP2 SLOAD DUP2 PUSH20 0xFFFFFFFFFFFFFFFFFFFFFFFFFFFFFFFFFFFFFFFF MUL NOT AND SWAP1 DUP4 PUSH20 0xFFFFFFFFFFFFFFFFFFFFFFFFFFFFFFFFFFFFFFFF AND MUL OR SWAP1 SSTORE POP POP POP JUMP JUMPDEST PUSH1 0xC PUSH0 SWAP1 SLOAD SWAP1 PUSH2 0x100 EXP SWAP1 DIV PUSH20 0xFFFFFFFFFFFFFFFFFFFFFFFFFFFFFFFFFFFFFFFF AND DUP2 JUMP JUMPDEST PUSH1 0x1B PUSH1 0x4 SWAP1 SLOAD SWAP1 PUSH2 0x100 EXP SWAP1 DIV PUSH1 0xFF AND DUP2 JUMP JUMPDEST PUSH1 0x1 PUSH0 SWAP1 SLOAD SWAP1 PUSH2 0x100 EXP SWAP1 DIV PUSH20 0xFFFFFFFFFFFFFFFFFFFFFFFFFFFFFFFFFFFFFFFF AND DUP2 JUMP JUMPDEST PUSH0 PUSH2 0x44ED DUP3 PUSH0 DUP1 DUP7 DUP2 MSTORE PUSH1 0x20 ADD SWAP1 DUP2 MSTORE PUSH1 0x20 ADD PUSH0 KECCAK256 PUSH0 ADD PUSH2 0x5A51 SWAP1 SWAP2 SWAP1 PUSH4 0xFFFFFFFF AND JUMP JUMPDEST SWAP1 POP SWAP3 SWAP2 POP POP JUMP JUMPDEST PUSH0 PUSH2 0x451A DUP3 PUSH0 DUP1 DUP7 DUP2 MSTORE PUSH1 0x20 ADD SWAP1 DUP2 MSTORE PUSH1 0x20 ADD PUSH0 KECCAK256 PUSH0 ADD PUSH2 0x5A69 SWAP1 SWAP2 SWAP1 PUSH4 0xFFFFFFFF AND JUMP JUMPDEST SWAP1 POP SWAP3 SWAP2 POP POP JUMP JUMPDEST PUSH0 DUP1 SHL DUP2 JUMP JUMPDEST PUSH1 0x16 PUSH1 0x20 MSTORE DUP1 PUSH0 MSTORE PUSH1 0x40 PUSH0 KECCAK256 PUSH0 SWAP2 POP SWAP1 POP SLOAD DUP2 JUMP JUMPDEST PUSH1 0x1B PUSH1 0x1 SWAP1 SLOAD SWAP1 PUSH2 0x100 EXP SWAP1 DIV PUSH1 0xFF AND DUP2 JUMP JUMPDEST PUSH1 0x7 PUSH0 SWAP1 SLOAD SWAP1 PUSH2 0x100 EXP SWAP1 DIV PUSH20 0xFFFFFFFFFFFFFFFFFFFFFFFFFFFFFFFFFFFFFFFF AND PUSH20 0xFFFFFFFFFFFFFFFFFFFFFFFFFFFFFFFFFFFFFFFF AND CALLER PUSH20 0xFFFFFFFFFFFFFFFFFFFFFFFFFFFFFFFFFFFFFFFF AND EQ DUP1 PUSH2 0x45F7 JUMPI POP PUSH1 0x1 PUSH0 SWAP1 SLOAD SWAP1 PUSH2 0x100 EXP SWAP1 DIV PUSH20 0xFFFFFFFFFFFFFFFFFFFFFFFFFFFFFFFFFFFFFFFF AND PUSH20 0xFFFFFFFFFFFFFFFFFFFFFFFFFFFFFFFFFFFFFFFF AND CALLER PUSH20 0xFFFFFFFFFFFFFFFFFFFFFFFFFFFFFFFFFFFFFFFF AND EQ JUMPDEST PUSH2 0x4636 JUMPI PUSH1 0x40 MLOAD PUSH32 0x8C379A000000000000000000000000000000000000000000000000000000000 DUP2 MSTORE PUSH1 0x4 ADD PUSH2 0x462D SWAP1 PUSH2 0x6707 JUMP JUMPDEST PUSH1 0x40 MLOAD DUP1 SWAP2 SUB SWAP1 REVERT JUMPDEST DUP1 PUSH1 0x7 PUSH0 PUSH2 0x100 EXP DUP2 SLOAD DUP2 PUSH20 0xFFFFFFFFFFFFFFFFFFFFFFFFFFFFFFFFFFFFFFFF MUL NOT AND SWAP1 DUP4 PUSH20 0xFFFFFFFFFFFFFFFFFFFFFFFFFFFFFFFFFFFFFFFF AND MUL OR SWAP1 SSTORE POP PUSH32 0x7E7EE4175D63F671FAC3401D5F401ED18D1F48A586E756F404D5696FC77A7058 DUP2 PUSH1 0x40 MLOAD PUSH2 0x46A5 SWAP2 SWAP1 PUSH2 0x6081 JUMP JUMPDEST PUSH1 0x40 MLOAD DUP1 SWAP2 SUB SWAP1 LOG1 POP JUMP JUMPDEST PUSH0 ISZERO ISZERO PUSH1 0x1B PUSH0 SWAP1 SLOAD SWAP1 PUSH2 0x100 EXP SWAP1 DIV PUSH1 0xFF AND ISZERO ISZERO EQ PUSH2 0x4704 JUMPI PUSH1 0x40 MLOAD PUSH32 0x8C379A000000000000000000000000000000000000000000000000000000000 DUP2 MSTORE PUSH1 0x4 ADD PUSH2 0x46FB SWAP1 PUSH2 0x67DC JUMP JUMPDEST PUSH1 0x40 MLOAD DUP1 SWAP2 SUB SWAP1 REVERT JUMPDEST PUSH0 PUSH1 0x9 PUSH0 SWAP1 SLOAD SWAP1 PUSH2 0x100 EXP SWAP1 DIV PUSH20 0xFFFFFFFFFFFFFFFFFFFFFFFFFFFFFFFFFFFFFFFF AND PUSH20 0xFFFFFFFFFFFFFFFFFFFFFFFFFFFFFFFFFFFFFFFF AND PUSH4 0xE7DCED67 PUSH1 0x40 MLOAD DUP2 PUSH4 0xFFFFFFFF AND PUSH1 0xE0 SHL DUP2 MSTORE PUSH1 0x4 ADD PUSH1 0x20 PUSH1 0x40 MLOAD DUP1 DUP4 SUB DUP2 DUP7 GAS STATICCALL ISZERO DUP1 ISZERO PUSH2 0x476F JUMPI RETURNDATASIZE PUSH0 DUP1 RETURNDATACOPY RETURNDATASIZE PUSH0 REVERT JUMPDEST POP POP POP POP PUSH1 0x40 MLOAD RETURNDATASIZE PUSH1 0x1F NOT PUSH1 0x1F DUP3 ADD AND DUP3 ADD DUP1 PUSH1 0x40 MSTORE POP DUP2 ADD SWAP1 PUSH2 0x4793 SWAP2 SWAP1 PUSH2 0x650E JUMP JUMPDEST SWAP1 POP PUSH0 PUSH1 0x9 PUSH0 SWAP1 SLOAD SWAP1 PUSH2 0x100 EXP SWAP1 DIV PUSH20 0xFFFFFFFFFFFFFFFFFFFFFFFFFFFFFFFFFFFFFFFF AND PUSH20 0xFFFFFFFFFFFFFFFFFFFFFFFFFFFFFFFFFFFFFFFF AND PUSH4 0x9795F3F PUSH1 0x40 MLOAD DUP2 PUSH4 0xFFFFFFFF AND PUSH1 0xE0 SHL DUP2 MSTORE PUSH1 0x4 ADD PUSH1 0x20 PUSH1 0x40 MLOAD DUP1 DUP4 SUB DUP2 DUP7 GAS STATICCALL ISZERO DUP1 ISZERO PUSH2 0x4800 JUMPI RETURNDATASIZE PUSH0 DUP1 RETURNDATACOPY RETURNDATASIZE PUSH0 REVERT JUMPDEST POP POP POP POP PUSH1 0x40 MLOAD RETURNDATASIZE PUSH1 0x1F NOT PUSH1 0x1F DUP3 ADD AND DUP3 ADD DUP1 PUSH1 0x40 MSTORE POP DUP2 ADD SWAP1 PUSH2 0x4824 SWAP2 SWAP1 PUSH2 0x650E JUMP JUMPDEST SWAP1 POP PUSH0 PUSH1 0x9 PUSH0 SWAP1 SLOAD SWAP1 PUSH2 0x100 EXP SWAP1 DIV PUSH20 0xFFFFFFFFFFFFFFFFFFFFFFFFFFFFFFFFFFFFFFFF AND PUSH20 0xFFFFFFFFFFFFFFFFFFFFFFFFFFFFFFFFFFFFFFFF AND PUSH4 0x2EB9771B PUSH1 0x40 MLOAD DUP2 PUSH4 0xFFFFFFFF AND PUSH1 0xE0 SHL DUP2 MSTORE PUSH1 0x4 ADD PUSH1 0x20 PUSH1 0x40 MLOAD DUP1 DUP4 SUB DUP2 DUP7 GAS STATICCALL ISZERO DUP1 ISZERO PUSH2 0x4891 JUMPI RETURNDATASIZE PUSH0 DUP1 RETURNDATACOPY RETURNDATASIZE PUSH0 REVERT JUMPDEST POP POP POP POP PUSH1 0x40 MLOAD RETURNDATASIZE PUSH1 0x1F NOT PUSH1 0x1F DUP3 ADD AND DUP3 ADD DUP1 PUSH1 0x40 MSTORE POP DUP2 ADD SWAP1 PUSH2 0x48B5 SWAP2 SWAP1 PUSH2 0x650E JUMP JUMPDEST EQ PUSH2 0x48F5 JUMPI PUSH1 0x40 MLOAD PUSH32 0x8C379A000000000000000000000000000000000000000000000000000000000 DUP2 MSTORE PUSH1 0x4 ADD PUSH2 0x48EC SWAP1 PUSH2 0x6DE3 JUMP JUMPDEST PUSH1 0x40 MLOAD DUP1 SWAP2 SUB SWAP1 REVERT JUMPDEST PUSH0 PUSH1 0x64 PUSH1 0x46 DUP7 PUSH2 0x4905 SWAP2 SWAP1 PUSH2 0x6539 JUMP JUMPDEST PUSH2 0x490F SWAP2 SWAP1 PUSH2 0x6D69 JUMP JUMPDEST SWAP1 POP PUSH0 DUP2 DUP7 PUSH2 0x491E SWAP2 SWAP1 PUSH2 0x6E01 JUMP JUMPDEST SWAP1 POP PUSH0 PUSH20 0x0 PUSH4 0xCE032CC1 DUP7 DUP6 PUSH1 0x40 MLOAD DUP4 PUSH4 0xFFFFFFFF AND PUSH1 0xE0 SHL DUP2 MSTORE PUSH1 0x4 ADD PUSH2 0x495A SWAP3 SWAP2 SWAP1 PUSH2 0x6A1B JUMP JUMPDEST PUSH1 0x20 PUSH1 0x40 MLOAD DUP1 DUP4 SUB DUP2 DUP7 GAS DELEGATECALL ISZERO DUP1 ISZERO PUSH2 0x4975 JUMPI RETURNDATASIZE PUSH0 DUP1 RETURNDATACOPY RETURNDATASIZE PUSH0 REVERT JUMPDEST POP POP POP POP PUSH1 0x40 MLOAD RETURNDATASIZE PUSH1 0x1F NOT PUSH1 0x1F DUP3 ADD AND DUP3 ADD DUP1 PUSH1 0x40 MSTORE POP DUP2 ADD SWAP1 PUSH2 0x4999 SWAP2 SWAP1 PUSH2 0x650E JUMP JUMPDEST SWAP1 POP PUSH0 PUSH20 0x0 PUSH4 0xCE032CC1 DUP7 DUP6 PUSH1 0x40 MLOAD DUP4 PUSH4 0xFFFFFFFF AND PUSH1 0xE0 SHL DUP2 MSTORE PUSH1 0x4 ADD PUSH2 0x49D5 SWAP3 SWAP2 SWAP1 PUSH2 0x6A1B JUMP JUMPDEST PUSH1 0x20 PUSH1 0x40 MLOAD DUP1 DUP4 SUB DUP2 DUP7 GAS DELEGATECALL ISZERO DUP1 ISZERO PUSH2 0x49F0 JUMPI RETURNDATASIZE PUSH0 DUP1 RETURNDATACOPY RETURNDATASIZE PUSH0 REVERT JUMPDEST POP POP POP POP PUSH1 0x40 MLOAD RETURNDATASIZE PUSH1 0x1F NOT PUSH1 0x1F DUP3 ADD AND DUP3 ADD DUP1 PUSH1 0x40 MSTORE POP DUP2 ADD SWAP1 PUSH2 0x4A14 SWAP2 SWAP1 PUSH2 0x650E JUMP JUMPDEST SWAP1 POP PUSH0 PUSH1 0x64 PUSH1 0x1E PUSH1 0xE SLOAD PUSH2 0x4A28 SWAP2 SWAP1 PUSH2 0x6539 JUMP JUMPDEST PUSH2 0x4A32 SWAP2 SWAP1 PUSH2 0x6D69 JUMP JUMPDEST SWAP1 POP PUSH0 PUSH2 0x4A72 PUSH3 0xF4240 PUSH2 0x4A64 PUSH2 0x4A55 DUP6 PUSH3 0xF4240 PUSH2 0x53CF SWAP1 SWAP2 SWAP1 PUSH4 0xFFFFFFFF AND JUMP JUMPDEST DUP7 PUSH2 0x5548 SWAP1 SWAP2 SWAP1 PUSH4 0xFFFFFFFF AND JUMP JUMPDEST PUSH2 0x55BF SWAP1 SWAP2 SWAP1 PUSH4 0xFFFFFFFF AND JUMP JUMPDEST SWAP1 POP PUSH0 PUSH2 0x4ABF PUSH3 0xF4240 PUSH2 0x4AB1 PUSH2 0x4AA2 DUP7 PUSH1 0xE SLOAD PUSH2 0x4A90 SWAP2 SWAP1 PUSH2 0x6E01 JUMP JUMPDEST PUSH3 0xF4240 PUSH2 0x53CF SWAP1 SWAP2 SWAP1 PUSH4 0xFFFFFFFF AND JUMP JUMPDEST DUP9 PUSH2 0x5548 SWAP1 SWAP2 SWAP1 PUSH4 0xFFFFFFFF AND JUMP JUMPDEST PUSH2 0x55BF SWAP1 SWAP2 SWAP1 PUSH4 0xFFFFFFFF AND JUMP JUMPDEST SWAP1 POP PUSH0 DUP3 DUP3 PUSH2 0x4ACE SWAP2 SWAP1 PUSH2 0x70D6 JUMP JUMPDEST SWAP1 POP DUP6 DUP12 GT ISZERO PUSH2 0x4B13 JUMPI PUSH1 0x40 MLOAD PUSH32 0x8C379A000000000000000000000000000000000000000000000000000000000 DUP2 MSTORE PUSH1 0x4 ADD PUSH2 0x4B0A SWAP1 PUSH2 0x6986 JUMP JUMPDEST PUSH1 0x40 MLOAD DUP1 SWAP2 SUB SWAP1 REVERT JUMPDEST PUSH1 0x8 PUSH0 SWAP1 SLOAD SWAP1 PUSH2 0x100 EXP SWAP1 DIV PUSH20 0xFFFFFFFFFFFFFFFFFFFFFFFFFFFFFFFFFFFFFFFF AND PUSH20 0xFFFFFFFFFFFFFFFFFFFFFFFFFFFFFFFFFFFFFFFF AND PUSH4 0xA8A778AE CALLER DUP5 PUSH1 0x40 MLOAD DUP4 PUSH4 0xFFFFFFFF AND PUSH1 0xE0 SHL DUP2 MSTORE PUSH1 0x4 ADD PUSH2 0x4B6F SWAP3 SWAP2 SWAP1 PUSH2 0x657A JUMP JUMPDEST PUSH0 PUSH1 0x40 MLOAD DUP1 DUP4 SUB DUP2 PUSH0 DUP8 DUP1 EXTCODESIZE ISZERO DUP1 ISZERO PUSH2 0x4B86 JUMPI PUSH0 DUP1 REVERT JUMPDEST POP GAS CALL ISZERO DUP1 ISZERO PUSH2 0x4B98 JUMPI RETURNDATASIZE PUSH0 DUP1 RETURNDATACOPY RETURNDATASIZE PUSH0 REVERT JUMPDEST POP POP POP POP PUSH1 0x9 PUSH0 SWAP1 SLOAD SWAP1 PUSH2 0x100 EXP SWAP1 DIV PUSH20 0xFFFFFFFFFFFFFFFFFFFFFFFFFFFFFFFFFFFFFFFF AND PUSH20 0xFFFFFFFFFFFFFFFFFFFFFFFFFFFFFFFFFFFFFFFF AND PUSH4 0xB4F56B26 CALLER DUP4 PUSH1 0x40 MLOAD DUP4 PUSH4 0xFFFFFFFF AND PUSH1 0xE0 SHL DUP2 MSTORE PUSH1 0x4 ADD PUSH2 0x4BF8 SWAP3 SWAP2 SWAP1 PUSH2 0x657A JUMP JUMPDEST PUSH0 PUSH1 0x40 MLOAD DUP1 DUP4 SUB DUP2 PUSH0 DUP8 DUP1 EXTCODESIZE ISZERO DUP1 ISZERO PUSH2 0x4C0F JUMPI PUSH0 DUP1 REVERT JUMPDEST POP GAS CALL ISZERO DUP1 ISZERO PUSH2 0x4C21 JUMPI RETURNDATASIZE PUSH0 DUP1 RETURNDATACOPY RETURNDATASIZE PUSH0 REVERT JUMPDEST POP POP POP POP PUSH1 0xA PUSH0 SWAP1 SLOAD SWAP1 PUSH2 0x100 EXP SWAP1 DIV PUSH20 0xFFFFFFFFFFFFFFFFFFFFFFFFFFFFFFFFFFFFFFFF AND PUSH20 0xFFFFFFFFFFFFFFFFFFFFFFFFFFFFFFFFFFFFFFFF AND PUSH4 0x23B872DD CALLER ADDRESS PUSH2 0x4C7B PUSH4 0x3B9ACA00 DUP9 PUSH2 0x55BF SWAP1 SWAP2 SWAP1 PUSH4 0xFFFFFFFF AND JUMP JUMPDEST PUSH1 0x40 MLOAD DUP5 PUSH4 0xFFFFFFFF AND PUSH1 0xE0 SHL DUP2 MSTORE PUSH1 0x4 ADD PUSH2 0x4C99 SWAP4 SWAP3 SWAP2 SWAP1 PUSH2 0x6A42 JUMP JUMPDEST PUSH1 0x20 PUSH1 0x40 MLOAD DUP1 DUP4 SUB DUP2 PUSH0 DUP8 GAS CALL ISZERO DUP1 ISZERO PUSH2 0x4CB5 JUMPI RETURNDATASIZE PUSH0 DUP1 RETURNDATACOPY RETURNDATASIZE PUSH0 REVERT JUMPDEST POP POP POP POP PUSH1 0x40 MLOAD RETURNDATASIZE PUSH1 0x1F NOT PUSH1 0x1F DUP3 ADD AND DUP3 ADD DUP1 PUSH1 0x40 MSTORE POP DUP2 ADD SWAP1 PUSH2 0x4CD9 SWAP2 SWAP1 PUSH2 0x6AA1 JUMP JUMPDEST POP POP POP POP POP POP POP POP POP POP POP POP POP JUMP JUMPDEST PUSH1 0xE SLOAD DUP2 JUMP JUMPDEST PUSH1 0x18 SLOAD DUP2 JUMP JUMPDEST PUSH1 0x12 PUSH1 0x20 MSTORE DUP1 PUSH0 MSTORE PUSH1 0x40 PUSH0 KECCAK256 PUSH0 SWAP2 POP SWAP1 POP SLOAD DUP2 JUMP JUMPDEST PUSH0 PUSH2 0x4D24 PUSH0 DUP1 DUP5 DUP2 MSTORE PUSH1 0x20 ADD SWAP1 DUP2 MSTORE PUSH1 0x20 ADD PUSH0 KECCAK256 PUSH0 ADD PUSH2 0x5A90 JUMP JUMPDEST SWAP1 POP SWAP2 SWAP1 POP JUMP JUMPDEST PUSH1 0xF SLOAD DUP2 JUMP JUMPDEST PUSH2 0x4D55 PUSH0 DUP1 DUP5 DUP2 MSTORE PUSH1 0x20 ADD SWAP1 DUP2 MSTORE PUSH1 0x20 ADD PUSH0 KECCAK256 PUSH1 0x2 ADD SLOAD PUSH2 0x4D50 PUSH2 0x5608 JUMP JUMPDEST PUSH2 0x44F5 JUMP JUMPDEST PUSH2 0x4D94 JUMPI PUSH1 0x40 MLOAD PUSH32 0x8C379A000000000000000000000000000000000000000000000000000000000 DUP2 MSTORE PUSH1 0x4 ADD PUSH2 0x4D8B SWAP1 PUSH2 0x7179 JUMP JUMPDEST PUSH1 0x40 MLOAD DUP1 SWAP2 SUB SWAP1 REVERT JUMPDEST PUSH2 0x4D9E DUP3 DUP3 PUSH2 0x569F JUMP JUMPDEST POP POP JUMP JUMPDEST PUSH2 0x4DCC PUSH32 0xA84A5389AD41F9AAB0831B01E5384CAE76E7A7FD09131C206FF7927C201C3857 CALLER PUSH2 0x44F5 JUMP JUMPDEST PUSH2 0x4DD4 JUMPI PUSH0 DUP1 REVERT JUMPDEST PUSH1 0x1B PUSH1 0x1 SWAP1 SLOAD SWAP1 PUSH2 0x100 EXP SWAP1 DIV PUSH1 0xFF AND ISZERO PUSH1 0x1B PUSH1 0x1 PUSH2 0x100 EXP DUP2 SLOAD DUP2 PUSH1 0xFF MUL NOT AND SWAP1 DUP4 ISZERO ISZERO MUL OR SWAP1 SSTORE POP PUSH32 0x5860C5063A65E23CEA4E2E2925F1A841BB6D1BC9615BD425F8DD084980B05141 PUSH1 0x1B PUSH1 0x1 SWAP1 SLOAD SWAP1 PUSH2 0x100 EXP SWAP1 DIV PUSH1 0xFF AND PUSH1 0x40 MLOAD PUSH2 0x4E3C SWAP2 SWAP1 PUSH2 0x6142 JUMP JUMPDEST PUSH1 0x40 MLOAD DUP1 SWAP2 SUB SWAP1 LOG1 JUMP JUMPDEST PUSH1 0x7 PUSH0 SWAP1 SLOAD SWAP1 PUSH2 0x100 EXP SWAP1 DIV PUSH20 0xFFFFFFFFFFFFFFFFFFFFFFFFFFFFFFFFFFFFFFFF AND PUSH20 0xFFFFFFFFFFFFFFFFFFFFFFFFFFFFFFFFFFFFFFFF AND CALLER PUSH20 0xFFFFFFFFFFFFFFFFFFFFFFFFFFFFFFFFFFFFFFFF AND EQ DUP1 PUSH2 0x4EED JUMPI POP PUSH1 0x1 PUSH0 SWAP1 SLOAD SWAP1 PUSH2 0x100 EXP SWAP1 DIV PUSH20 0xFFFFFFFFFFFFFFFFFFFFFFFFFFFFFFFFFFFFFFFF AND PUSH20 0xFFFFFFFFFFFFFFFFFFFFFFFFFFFFFFFFFFFFFFFF AND CALLER PUSH20 0xFFFFFFFFFFFFFFFFFFFFFFFFFFFFFFFFFFFFFFFF AND EQ JUMPDEST PUSH2 0x4F2C JUMPI PUSH1 0x40 MLOAD PUSH32 0x8C379A000000000000000000000000000000000000000000000000000000000 DUP2 MSTORE PUSH1 0x4 ADD PUSH2 0x4F23 SWAP1 PUSH2 0x6707 JUMP JUMPDEST PUSH1 0x40 MLOAD DUP1 SWAP2 SUB SWAP1 REVERT JUMPDEST DUP1 PUSH1 0x5 PUSH0 PUSH2 0x100 EXP DUP2 SLOAD DUP2 PUSH20 0xFFFFFFFFFFFFFFFFFFFFFFFFFFFFFFFFFFFFFFFF MUL NOT AND SWAP1 DUP4 PUSH20 0xFFFFFFFFFFFFFFFFFFFFFFFFFFFFFFFFFFFFFFFF AND MUL OR SWAP1 SSTORE POP POP JUMP JUMPDEST PUSH0 DUP1 PUSH1 0x9 PUSH0 SWAP1 SLOAD SWAP1 PUSH2 0x100 EXP SWAP1 DIV PUSH20 0xFFFFFFFFFFFFFFFFFFFFFFFFFFFFFFFFFFFFFFFF AND PUSH20 0xFFFFFFFFFFFFFFFFFFFFFFFFFFFFFFFFFFFFFFFF AND PUSH4 0x18160DDD PUSH1 0x40 MLOAD DUP2 PUSH4 0xFFFFFFFF AND PUSH1 0xE0 SHL DUP2 MSTORE PUSH1 0x4 ADD PUSH1 0x20 PUSH1 0x40 MLOAD DUP1 DUP4 SUB DUP2 DUP7 GAS STATICCALL ISZERO DUP1 ISZERO PUSH2 0x4FDB JUMPI RETURNDATASIZE PUSH0 DUP1 RETURNDATACOPY RETURNDATASIZE PUSH0 REVERT JUMPDEST POP POP POP POP PUSH1 0x40 MLOAD RETURNDATASIZE PUSH1 0x1F NOT PUSH1 0x1F DUP3 ADD AND DUP3 ADD DUP1 PUSH1 0x40 MSTORE POP DUP2 ADD SWAP1 PUSH2 0x4FFF SWAP2 SWAP1 PUSH2 0x650E JUMP JUMPDEST SWAP1 POP PUSH0 PUSH1 0x9 PUSH0 SWAP1 SLOAD SWAP1 PUSH2 0x100 EXP SWAP1 DIV PUSH20 0xFFFFFFFFFFFFFFFFFFFFFFFFFFFFFFFFFFFFFFFF AND PUSH20 0xFFFFFFFFFFFFFFFFFFFFFFFFFFFFFFFFFFFFFFFF AND PUSH4 0x2EB9771B PUSH1 0x40 MLOAD DUP2 PUSH4 0xFFFFFFFF AND PUSH1 0xE0 SHL DUP2 MSTORE PUSH1 0x4 ADD PUSH1 0x20 PUSH1 0x40 MLOAD DUP1 DUP4 SUB DUP2 DUP7 GAS STATICCALL ISZERO DUP1 ISZERO PUSH2 0x506C JUMPI RETURNDATASIZE PUSH0 DUP1 RETURNDATACOPY RETURNDATASIZE PUSH0 REVERT JUMPDEST POP POP POP POP PUSH1 0x40 MLOAD RETURNDATASIZE PUSH1 0x1F NOT PUSH1 0x1F DUP3 ADD AND DUP3 ADD DUP1 PUSH1 0x40 MSTORE POP DUP2 ADD SWAP1 PUSH2 0x5090 SWAP2 SWAP1 PUSH2 0x650E JUMP JUMPDEST SWAP1 POP PUSH0 PUSH1 0x9 PUSH0 SWAP1 SLOAD SWAP1 PUSH2 0x100 EXP SWAP1 DIV PUSH20 0xFFFFFFFFFFFFFFFFFFFFFFFFFFFFFFFFFFFFFFFF AND PUSH20 0xFFFFFFFFFFFFFFFFFFFFFFFFFFFFFFFFFFFFFFFF AND PUSH4 0xD2D97B06 PUSH1 0x40 MLOAD DUP2 PUSH4 0xFFFFFFFF AND PUSH1 0xE0 SHL DUP2 MSTORE PUSH1 0x4 ADD PUSH1 0x20 PUSH1 0x40 MLOAD DUP1 DUP4 SUB DUP2 DUP7 GAS STATICCALL ISZERO DUP1 ISZERO PUSH2 0x50FD JUMPI RETURNDATASIZE PUSH0 DUP1 RETURNDATACOPY RETURNDATASIZE PUSH0 REVERT JUMPDEST POP POP POP POP PUSH1 0x40 MLOAD RETURNDATASIZE PUSH1 0x1F NOT PUSH1 0x1F DUP3 ADD AND DUP3 ADD DUP1 PUSH1 0x40 MSTORE POP DUP2 ADD SWAP1 PUSH2 0x5121 SWAP2 SWAP1 PUSH2 0x650E JUMP JUMPDEST SWAP1 POP PUSH3 0xF4240 DUP3 GT ISZERO PUSH2 0x5135 JUMPI PUSH3 0xF4240 SWAP2 POP JUMPDEST PUSH0 PUSH2 0x515E PUSH3 0xF4240 PUSH2 0x5150 DUP6 DUP8 PUSH2 0x5548 SWAP1 SWAP2 SWAP1 PUSH4 0xFFFFFFFF AND JUMP JUMPDEST PUSH2 0x55BF SWAP1 SWAP2 SWAP1 PUSH4 0xFFFFFFFF AND JUMP JUMPDEST SWAP1 POP DUP1 DUP3 GT ISZERO PUSH2 0x5186 JUMPI PUSH2 0x517B DUP2 DUP4 PUSH2 0x53CF SWAP1 SWAP2 SWAP1 PUSH4 0xFFFFFFFF AND JUMP JUMPDEST SWAP5 POP POP POP POP POP PUSH2 0x518E JUMP JUMPDEST PUSH0 SWAP5 POP POP POP POP POP JUMPDEST SWAP1 JUMP JUMPDEST PUSH0 PUSH1 0x1 ISZERO ISZERO PUSH1 0x1B PUSH1 0x4 SWAP1 SLOAD SWAP1 PUSH2 0x100 EXP SWAP1 DIV PUSH1 0xFF AND ISZERO ISZERO SUB PUSH2 0x51B7 JUMPI PUSH1 0x18 SLOAD SWAP1 POP PUSH2 0x5369 JUMP JUMPDEST PUSH0 PUSH1 0x9 PUSH0 SWAP1 SLOAD SWAP1 PUSH2 0x100 EXP SWAP1 DIV PUSH20 0xFFFFFFFFFFFFFFFFFFFFFFFFFFFFFFFFFFFFFFFF AND PUSH20 0xFFFFFFFFFFFFFFFFFFFFFFFFFFFFFFFFFFFFFFFF AND PUSH4 0x345BA24B PUSH1 0x40 MLOAD DUP2 PUSH4 0xFFFFFFFF AND PUSH1 0xE0 SHL DUP2 MSTORE PUSH1 0x4 ADD PUSH1 0x20 PUSH1 0x40 MLOAD DUP1 DUP4 SUB DUP2 DUP7 GAS STATICCALL ISZERO DUP1 ISZERO PUSH2 0x5222 JUMPI RETURNDATASIZE PUSH0 DUP1 RETURNDATACOPY RETURNDATASIZE PUSH0 REVERT JUMPDEST POP POP POP POP PUSH1 0x40 MLOAD RETURNDATASIZE PUSH1 0x1F NOT PUSH1 0x1F DUP3 ADD AND DUP3 ADD DUP1 PUSH1 0x40 MSTORE POP DUP2 ADD SWAP1 PUSH2 0x5246 SWAP2 SWAP1 PUSH2 0x650E JUMP JUMPDEST SWAP1 POP PUSH2 0x5365 PUSH1 0xB PUSH0 SWAP1 SLOAD SWAP1 PUSH2 0x100 EXP SWAP1 DIV PUSH20 0xFFFFFFFFFFFFFFFFFFFFFFFFFFFFFFFFFFFFFFFF AND PUSH20 0xFFFFFFFFFFFFFFFFFFFFFFFFFFFFFFFFFFFFFFFF AND PUSH4 0x3DDAC953 PUSH1 0xD PUSH0 SWAP1 SLOAD SWAP1 PUSH2 0x100 EXP SWAP1 DIV PUSH20 0xFFFFFFFFFFFFFFFFFFFFFFFFFFFFFFFFFFFFFFFF AND PUSH32 0x0 PUSH1 0xA PUSH2 0x52D7 SWAP2 SWAP1 PUSH2 0x64B0 JUMP JUMPDEST PUSH3 0xF4240 PUSH2 0x52E5 SWAP2 SWAP1 PUSH2 0x6539 JUMP JUMPDEST PUSH1 0x40 MLOAD DUP4 PUSH4 0xFFFFFFFF AND PUSH1 0xE0 SHL DUP2 MSTORE PUSH1 0x4 ADD PUSH2 0x5302 SWAP3 SWAP2 SWAP1 PUSH2 0x657A JUMP JUMPDEST PUSH1 0x20 PUSH1 0x40 MLOAD DUP1 DUP4 SUB DUP2 DUP7 GAS STATICCALL ISZERO DUP1 ISZERO PUSH2 0x531D JUMPI RETURNDATASIZE PUSH0 DUP1 RETURNDATACOPY RETURNDATASIZE PUSH0 REVERT JUMPDEST POP POP POP POP PUSH1 0x40 MLOAD RETURNDATASIZE PUSH1 0x1F NOT PUSH1 0x1F DUP3 ADD AND DUP3 ADD DUP1 PUSH1 0x40 MSTORE POP DUP2 ADD SWAP1 PUSH2 0x5341 SWAP2 SWAP1 PUSH2 0x650E JUMP JUMPDEST PUSH2 0x5357 PUSH3 0xF4240 DUP5 PUSH2 0x5548 SWAP1 SWAP2 SWAP1 PUSH4 0xFFFFFFFF AND JUMP JUMPDEST PUSH2 0x55BF SWAP1 SWAP2 SWAP1 PUSH4 0xFFFFFFFF AND JUMP JUMPDEST SWAP2 POP POP JUMPDEST SWAP1 JUMP JUMPDEST PUSH1 0x11 SLOAD DUP2 JUMP JUMPDEST PUSH0 DUP1 DUP3 DUP5 PUSH2 0x5380 SWAP2 SWAP1 PUSH2 0x70D6 JUMP JUMPDEST SWAP1 POP DUP4 DUP2 LT ISZERO PUSH2 0x53C5 JUMPI PUSH1 0x40 MLOAD PUSH32 0x8C379A000000000000000000000000000000000000000000000000000000000 DUP2 MSTORE PUSH1 0x4 ADD PUSH2 0x53BC SWAP1 PUSH2 0x71E1 JUMP JUMPDEST PUSH1 0x40 MLOAD DUP1 SWAP2 SUB SWAP1 REVERT JUMPDEST DUP1 SWAP2 POP POP SWAP3 SWAP2 POP POP JUMP JUMPDEST PUSH0 PUSH2 0x5410 DUP4 DUP4 PUSH1 0x40 MLOAD DUP1 PUSH1 0x40 ADD PUSH1 0x40 MSTORE DUP1 PUSH1 0x1E DUP2 MSTORE PUSH1 0x20 ADD PUSH32 0x536166654D6174683A207375627472616374696F6E206F766572666C6F770000 DUP2 MSTORE POP PUSH2 0x5AA3 JUMP JUMPDEST SWAP1 POP SWAP3 SWAP2 POP POP JUMP JUMPDEST PUSH0 DUP1 DUP5 PUSH20 0xFFFFFFFFFFFFFFFFFFFFFFFFFFFFFFFFFFFFFFFF AND PUSH4 0xA9059CBB DUP6 DUP6 PUSH1 0x40 MLOAD PUSH1 0x24 ADD PUSH2 0x5449 SWAP3 SWAP2 SWAP1 PUSH2 0x657A JUMP JUMPDEST PUSH1 0x40 MLOAD PUSH1 0x20 DUP2 DUP4 SUB SUB DUP2 MSTORE SWAP1 PUSH1 0x40 MSTORE SWAP1 PUSH1 0xE0 SHL PUSH1 0x20 DUP3 ADD DUP1 MLOAD PUSH28 0xFFFFFFFFFFFFFFFFFFFFFFFFFFFFFFFFFFFFFFFFFFFFFFFFFFFFFFFF DUP4 DUP2 DUP4 AND OR DUP4 MSTORE POP POP POP POP PUSH1 0x40 MLOAD PUSH2 0x5497 SWAP2 SWAP1 PUSH2 0x726B JUMP JUMPDEST PUSH0 PUSH1 0x40 MLOAD DUP1 DUP4 SUB DUP2 PUSH0 DUP7 GAS CALL SWAP2 POP POP RETURNDATASIZE DUP1 PUSH0 DUP2 EQ PUSH2 0x54D0 JUMPI PUSH1 0x40 MLOAD SWAP2 POP PUSH1 0x1F NOT PUSH1 0x3F RETURNDATASIZE ADD AND DUP3 ADD PUSH1 0x40 MSTORE RETURNDATASIZE DUP3 MSTORE RETURNDATASIZE PUSH0 PUSH1 0x20 DUP5 ADD RETURNDATACOPY PUSH2 0x54D5 JUMP JUMPDEST PUSH1 0x60 SWAP2 POP JUMPDEST POP SWAP2 POP SWAP2 POP DUP2 DUP1 ISZERO PUSH2 0x5502 JUMPI POP PUSH0 DUP2 MLOAD EQ DUP1 PUSH2 0x5501 JUMPI POP DUP1 DUP1 PUSH1 0x20 ADD SWAP1 MLOAD DUP2 ADD SWAP1 PUSH2 0x5500 SWAP2 SWAP1 PUSH2 0x6AA1 JUMP JUMPDEST JUMPDEST JUMPDEST PUSH2 0x5541 JUMPI PUSH1 0x40 MLOAD PUSH32 0x8C379A000000000000000000000000000000000000000000000000000000000 DUP2 MSTORE PUSH1 0x4 ADD PUSH2 0x5538 SWAP1 PUSH2 0x72CB JUMP JUMPDEST PUSH1 0x40 MLOAD DUP1 SWAP2 SUB SWAP1 REVERT JUMPDEST POP POP POP POP POP JUMP JUMPDEST PUSH0 DUP1 DUP4 SUB PUSH2 0x5558 JUMPI PUSH0 SWAP1 POP PUSH2 0x55B9 JUMP JUMPDEST PUSH0 DUP3 DUP5 PUSH2 0x5565 SWAP2 SWAP1 PUSH2 0x6539 JUMP JUMPDEST SWAP1 POP DUP3 DUP5 DUP3 PUSH2 0x5574 SWAP2 SWAP1 PUSH2 0x6D69 JUMP JUMPDEST EQ PUSH2 0x55B4 JUMPI PUSH1 0x40 MLOAD PUSH32 0x8C379A000000000000000000000000000000000000000000000000000000000 DUP2 MSTORE PUSH1 0x4 ADD PUSH2 0x55AB SWAP1 PUSH2 0x7359 JUMP JUMPDEST PUSH1 0x40 MLOAD DUP1 SWAP2 SUB SWAP1 REVERT JUMPDEST DUP1 SWAP2 POP POP JUMPDEST SWAP3 SWAP2 POP POP JUMP JUMPDEST PUSH0 PUSH2 0x5600 DUP4 DUP4 PUSH1 0x40 MLOAD DUP1 PUSH1 0x40 ADD PUSH1 0x40 MSTORE DUP1 PUSH1 0x1A DUP2 MSTORE PUSH1 0x20 ADD PUSH32 0x536166654D6174683A206469766973696F6E206279207A65726F000000000000 DUP2 MSTORE POP PUSH2 0x5B05 JUMP JUMPDEST SWAP1 POP SWAP3 SWAP2 POP POP JUMP JUMPDEST PUSH0 CALLER SWAP1 POP SWAP1 JUMP JUMPDEST PUSH2 0x5633 DUP2 PUSH0 DUP1 DUP6 DUP2 MSTORE PUSH1 0x20 ADD SWAP1 DUP2 MSTORE PUSH1 0x20 ADD PUSH0 KECCAK256 PUSH0 ADD PUSH2 0x5B66 SWAP1 SWAP2 SWAP1 PUSH4 0xFFFFFFFF AND JUMP JUMPDEST ISZERO PUSH2 0x569B JUMPI PUSH2 0x5640 PUSH2 0x5608 JUMP JUMPDEST PUSH20 0xFFFFFFFFFFFFFFFFFFFFFFFFFFFFFFFFFFFFFFFF AND DUP2 PUSH20 0xFFFFFFFFFFFFFFFFFFFFFFFFFFFFFFFFFFFFFFFF AND DUP4 PUSH32 0x2F8788117E7EFF1D82E926EC794901D17C78024A50270940304540A733656F0D PUSH1 0x40 MLOAD PUSH1 0x40 MLOAD DUP1 SWAP2 SUB SWAP1 LOG4 JUMPDEST POP POP JUMP JUMPDEST PUSH2 0x56C3 DUP2 PUSH0 DUP1 DUP6 DUP2 MSTORE PUSH1 0x20 ADD SWAP1 DUP2 MSTORE PUSH1 0x20 ADD PUSH0 KECCAK256 PUSH0 ADD PUSH2 0x5B8D SWAP1 SWAP2 SWAP1 PUSH4 0xFFFFFFFF AND JUMP JUMPDEST ISZERO PUSH2 0x572B JUMPI PUSH2 0x56D0 PUSH2 0x5608 JUMP JUMPDEST PUSH20 0xFFFFFFFFFFFFFFFFFFFFFFFFFFFFFFFFFFFFFFFF AND DUP2 PUSH20 0xFFFFFFFFFFFFFFFFFFFFFFFFFFFFFFFFFFFFFFFF AND DUP4 PUSH32 0xF6391F5C32D9C69D2A47EA670B442974B53935D1EDC7FD64EB21E047A839171B PUSH1 0x40 MLOAD PUSH1 0x40 MLOAD DUP1 SWAP2 SUB SWAP1 LOG4 JUMPDEST POP POP JUMP JUMPDEST PUSH0 DUP1 PUSH0 DUP1 PUSH2 0x5762 PUSH3 0xF4240 PUSH2 0x5754 DUP8 PUSH0 ADD MLOAD DUP9 PUSH1 0x40 ADD MLOAD PUSH2 0x5548 SWAP1 SWAP2 SWAP1 PUSH4 0xFFFFFFFF AND JUMP JUMPDEST PUSH2 0x55BF SWAP1 SWAP2 SWAP1 PUSH4 0xFFFFFFFF AND JUMP JUMPDEST SWAP2 POP PUSH2 0x5794 PUSH3 0xF4240 PUSH2 0x5786 DUP8 PUSH1 0x20 ADD MLOAD DUP9 PUSH1 0x60 ADD MLOAD PUSH2 0x5548 SWAP1 SWAP2 SWAP1 PUSH4 0xFFFFFFFF AND JUMP JUMPDEST PUSH2 0x55BF SWAP1 SWAP2 SWAP1 PUSH4 0xFFFFFFFF AND JUMP JUMPDEST SWAP1 POP PUSH0 PUSH2 0x57D5 DUP3 PUSH2 0x57C7 DUP9 PUSH1 0x80 ADD MLOAD PUSH2 0x57B9 PUSH3 0xF4240 DUP8 PUSH2 0x5548 SWAP1 SWAP2 SWAP1 PUSH4 0xFFFFFFFF AND JUMP JUMPDEST PUSH2 0x55BF SWAP1 SWAP2 SWAP1 PUSH4 0xFFFFFFFF AND JUMP JUMPDEST PUSH2 0x53CF SWAP1 SWAP2 SWAP1 PUSH4 0xFFFFFFFF AND JUMP JUMPDEST SWAP1 POP PUSH0 PUSH2 0x5803 DUP8 PUSH0 ADD MLOAD PUSH2 0x57F5 PUSH3 0xF4240 DUP6 PUSH2 0x5548 SWAP1 SWAP2 SWAP1 PUSH4 0xFFFFFFFF AND JUMP JUMPDEST PUSH2 0x55BF SWAP1 SWAP2 SWAP1 PUSH4 0xFFFFFFFF AND JUMP JUMPDEST SWAP1 POP PUSH2 0x5818 DUP3 DUP5 PUSH2 0x5372 SWAP1 SWAP2 SWAP1 PUSH4 0xFFFFFFFF AND JUMP JUMPDEST DUP2 SWAP6 POP SWAP6 POP POP POP POP POP SWAP2 POP SWAP2 JUMP JUMPDEST PUSH0 DUP1 DUP6 PUSH20 0xFFFFFFFFFFFFFFFFFFFFFFFFFFFFFFFFFFFFFFFF AND PUSH4 0x23B872DD DUP7 DUP7 DUP7 PUSH1 0x40 MLOAD PUSH1 0x24 ADD PUSH2 0x5859 SWAP4 SWAP3 SWAP2 SWAP1 PUSH2 0x6A42 JUMP JUMPDEST PUSH1 0x40 MLOAD PUSH1 0x20 DUP2 DUP4 SUB SUB DUP2 MSTORE SWAP1 PUSH1 0x40 MSTORE SWAP1 PUSH1 0xE0 SHL PUSH1 0x20 DUP3 ADD DUP1 MLOAD PUSH28 0xFFFFFFFFFFFFFFFFFFFFFFFFFFFFFFFFFFFFFFFFFFFFFFFFFFFFFFFF DUP4 DUP2 DUP4 AND OR DUP4 MSTORE POP POP POP POP PUSH1 0x40 MLOAD PUSH2 0x58A7 SWAP2 SWAP1 PUSH2 0x726B JUMP JUMPDEST PUSH0 PUSH1 0x40 MLOAD DUP1 DUP4 SUB DUP2 PUSH0 DUP7 GAS CALL SWAP2 POP POP RETURNDATASIZE DUP1 PUSH0 DUP2 EQ PUSH2 0x58E0 JUMPI PUSH1 0x40 MLOAD SWAP2 POP PUSH1 0x1F NOT PUSH1 0x3F RETURNDATASIZE ADD AND DUP3 ADD PUSH1 0x40 MSTORE RETURNDATASIZE DUP3 MSTORE RETURNDATASIZE PUSH0 PUSH1 0x20 DUP5 ADD RETURNDATACOPY PUSH2 0x58E5 JUMP JUMPDEST PUSH1 0x60 SWAP2 POP JUMPDEST POP SWAP2 POP SWAP2 POP DUP2 DUP1 ISZERO PUSH2 0x5912 JUMPI POP PUSH0 DUP2 MLOAD EQ DUP1 PUSH2 0x5911 JUMPI POP DUP1 DUP1 PUSH1 0x20 ADD SWAP1 MLOAD DUP2 ADD SWAP1 PUSH2 0x5910 SWAP2 SWAP1 PUSH2 0x6AA1 JUMP JUMPDEST JUMPDEST JUMPDEST PUSH2 0x5951 JUMPI PUSH1 0x40 MLOAD PUSH32 0x8C379A000000000000000000000000000000000000000000000000000000000 DUP2 MSTORE PUSH1 0x4 ADD PUSH2 0x5948 SWAP1 PUSH2 0x73E7 JUMP JUMPDEST PUSH1 0x40 MLOAD DUP1 SWAP2 SUB SWAP1 REVERT JUMPDEST POP POP POP POP POP POP JUMP JUMPDEST PUSH0 DUP1 DUP3 PUSH0 ADD MLOAD GT PUSH2 0x599F JUMPI PUSH1 0x40 MLOAD PUSH32 0x8C379A000000000000000000000000000000000000000000000000000000000 DUP2 MSTORE PUSH1 0x4 ADD PUSH2 0x5996 SWAP1 PUSH2 0x7475 JUMP JUMPDEST PUSH1 0x40 MLOAD DUP1 SWAP2 SUB SWAP1 REVERT JUMPDEST PUSH0 PUSH2 0x59D0 PUSH3 0xF4240 PUSH2 0x59C2 DUP6 PUSH1 0x20 ADD MLOAD DUP7 PUSH1 0x60 ADD MLOAD PUSH2 0x5548 SWAP1 SWAP2 SWAP1 PUSH4 0xFFFFFFFF AND JUMP JUMPDEST PUSH2 0x55BF SWAP1 SWAP2 SWAP1 PUSH4 0xFFFFFFFF AND JUMP JUMPDEST SWAP1 POP DUP3 PUSH0 ADD MLOAD DUP2 GT ISZERO PUSH2 0x5A18 JUMPI PUSH1 0x40 MLOAD PUSH32 0x8C379A000000000000000000000000000000000000000000000000000000000 DUP2 MSTORE PUSH1 0x4 ADD PUSH2 0x5A0F SWAP1 PUSH2 0x7503 JUMP JUMPDEST PUSH1 0x40 MLOAD DUP1 SWAP2 SUB SWAP1 REVERT JUMPDEST PUSH0 PUSH2 0x5A45 DUP5 PUSH1 0x40 ADD MLOAD PUSH2 0x5A37 PUSH3 0xF4240 DUP6 PUSH2 0x5548 SWAP1 SWAP2 SWAP1 PUSH4 0xFFFFFFFF AND JUMP JUMPDEST PUSH2 0x55BF SWAP1 SWAP2 SWAP1 PUSH4 0xFFFFFFFF AND JUMP JUMPDEST SWAP1 POP DUP1 SWAP3 POP POP POP SWAP2 SWAP1 POP JUMP JUMPDEST PUSH0 PUSH2 0x5A5E DUP4 PUSH0 ADD DUP4 PUSH2 0x5BB4 JUMP JUMPDEST PUSH1 0x60 SHR SWAP1 POP SWAP3 SWAP2 POP POP JUMP JUMPDEST PUSH0 PUSH2 0x5A88 DUP4 PUSH0 ADD DUP4 PUSH1 0x60 SHL PUSH12 0xFFFFFFFFFFFFFFFFFFFFFFFF NOT AND PUSH2 0x5C23 JUMP JUMPDEST SWAP1 POP SWAP3 SWAP2 POP POP JUMP JUMPDEST PUSH0 PUSH2 0x5A9C DUP3 PUSH0 ADD PUSH2 0x5C43 JUMP JUMPDEST SWAP1 POP SWAP2 SWAP1 POP JUMP JUMPDEST PUSH0 DUP4 DUP4 GT ISZERO DUP3 SWAP1 PUSH2 0x5AEA JUMPI PUSH1 0x40 MLOAD PUSH32 0x8C379A000000000000000000000000000000000000000000000000000000000 DUP2 MSTORE PUSH1 0x4 ADD PUSH2 0x5AE1 SWAP2 SWAP1 PUSH2 0x7573 JUMP JUMPDEST PUSH1 0x40 MLOAD DUP1 SWAP2 SUB SWAP1 REVERT JUMPDEST POP PUSH0 DUP4 DUP6 PUSH2 0x5AF8 SWAP2 SWAP1 PUSH2 0x6E01 JUMP JUMPDEST SWAP1 POP DUP1 SWAP2 POP POP SWAP4 SWAP3 POP POP POP JUMP JUMPDEST PUSH0 DUP1 DUP4 GT DUP3 SWAP1 PUSH2 0x5B4B JUMPI PUSH1 0x40 MLOAD PUSH32 0x8C379A000000000000000000000000000000000000000000000000000000000 DUP2 MSTORE PUSH1 0x4 ADD PUSH2 0x5B42 SWAP2 SWAP1 PUSH2 0x7573 JUMP JUMPDEST PUSH1 0x40 MLOAD DUP1 SWAP2 SUB SWAP1 REVERT JUMPDEST POP PUSH0 DUP4 DUP6 PUSH2 0x5B59 SWAP2 SWAP1 PUSH2 0x6D69 JUMP JUMPDEST SWAP1 POP DUP1 SWAP2 POP POP SWAP4 SWAP3 POP POP POP JUMP JUMPDEST PUSH0 PUSH2 0x5B85 DUP4 PUSH0 ADD DUP4 PUSH1 0x60 SHL PUSH12 0xFFFFFFFFFFFFFFFFFFFFFFFF NOT AND PUSH2 0x5C52 JUMP JUMPDEST SWAP1 POP SWAP3 SWAP2 POP POP JUMP JUMPDEST PUSH0 PUSH2 0x5BAC DUP4 PUSH0 ADD DUP4 PUSH1 0x60 SHL PUSH12 0xFFFFFFFFFFFFFFFFFFFFFFFF NOT AND PUSH2 0x5CB9 JUMP JUMPDEST SWAP1 POP SWAP3 SWAP2 POP POP JUMP JUMPDEST PUSH0 DUP2 DUP4 PUSH0 ADD DUP1 SLOAD SWAP1 POP GT PUSH2 0x5BFD JUMPI PUSH1 0x40 MLOAD PUSH32 0x8C379A000000000000000000000000000000000000000000000000000000000 DUP2 MSTORE PUSH1 0x4 ADD PUSH2 0x5BF4 SWAP1 PUSH2 0x7603 JUMP JUMPDEST PUSH1 0x40 MLOAD DUP1 SWAP2 SUB SWAP1 REVERT JUMPDEST DUP3 PUSH0 ADD DUP3 DUP2 SLOAD DUP2 LT PUSH2 0x5C12 JUMPI PUSH2 0x5C11 PUSH2 0x7621 JUMP JUMPDEST JUMPDEST SWAP1 PUSH0 MSTORE PUSH1 0x20 PUSH0 KECCAK256 ADD SLOAD SWAP1 POP SWAP3 SWAP2 POP POP JUMP JUMPDEST PUSH0 DUP1 DUP4 PUSH1 0x1 ADD PUSH0 DUP5 DUP2 MSTORE PUSH1 0x20 ADD SWAP1 DUP2 MSTORE PUSH1 0x20 ADD PUSH0 KECCAK256 SLOAD EQ ISZERO SWAP1 POP SWAP3 SWAP2 POP POP JUMP JUMPDEST PUSH0 DUP2 PUSH0 ADD DUP1 SLOAD SWAP1 POP SWAP1 POP SWAP2 SWAP1 POP JUMP JUMPDEST PUSH0 PUSH2 0x5C5D DUP4 DUP4 PUSH2 0x5C23 JUMP JUMPDEST PUSH2 0x5CAF JUMPI DUP3 PUSH0 ADD DUP3 SWAP1 DUP1 PUSH1 0x1 DUP2 SLOAD ADD DUP1 DUP3 SSTORE DUP1 SWAP2 POP POP PUSH1 0x1 SWAP1 SUB SWAP1 PUSH0 MSTORE PUSH1 0x20 PUSH0 KECCAK256 ADD PUSH0 SWAP1 SWAP2 SWAP1 SWAP2 SWAP1 SWAP2 POP SSTORE DUP3 PUSH0 ADD DUP1 SLOAD SWAP1 POP DUP4 PUSH1 0x1 ADD PUSH0 DUP5 DUP2 MSTORE PUSH1 0x20 ADD SWAP1 DUP2 MSTORE PUSH1 0x20 ADD PUSH0 KECCAK256 DUP2 SWAP1 SSTORE POP PUSH1 0x1 SWAP1 POP PUSH2 0x5CB3 JUMP JUMPDEST PUSH0 SWAP1 POP JUMPDEST SWAP3 SWAP2 POP POP JUMP JUMPDEST PUSH0 DUP1 DUP4 PUSH1 0x1 ADD PUSH0 DUP5 DUP2 MSTORE PUSH1 0x20 ADD SWAP1 DUP2 MSTORE PUSH1 0x20 ADD PUSH0 KECCAK256 SLOAD SWAP1 POP PUSH0 DUP2 EQ PUSH2 0x5DAE JUMPI PUSH0 PUSH1 0x1 DUP3 PUSH2 0x5CE6 SWAP2 SWAP1 PUSH2 0x6E01 JUMP JUMPDEST SWAP1 POP PUSH0 PUSH1 0x1 DUP7 PUSH0 ADD DUP1 SLOAD SWAP1 POP PUSH2 0x5CFC SWAP2 SWAP1 PUSH2 0x6E01 JUMP JUMPDEST SWAP1 POP PUSH0 DUP7 PUSH0 ADD DUP3 DUP2 SLOAD DUP2 LT PUSH2 0x5D14 JUMPI PUSH2 0x5D13 PUSH2 0x7621 JUMP JUMPDEST JUMPDEST SWAP1 PUSH0 MSTORE PUSH1 0x20 PUSH0 KECCAK256 ADD SLOAD SWAP1 POP DUP1 DUP8 PUSH0 ADD DUP5 DUP2 SLOAD DUP2 LT PUSH2 0x5D35 JUMPI PUSH2 0x5D34 PUSH2 0x7621 JUMP JUMPDEST JUMPDEST SWAP1 PUSH0 MSTORE PUSH1 0x20 PUSH0 KECCAK256 ADD DUP2 SWAP1 SSTORE POP PUSH1 0x1 DUP4 PUSH2 0x5D4E SWAP2 SWAP1 PUSH2 0x70D6 JUMP JUMPDEST DUP8 PUSH1 0x1 ADD PUSH0 DUP4 DUP2 MSTORE PUSH1 0x20 ADD SWAP1 DUP2 MSTORE PUSH1 0x20 ADD PUSH0 KECCAK256 DUP2 SWAP1 SSTORE POP DUP7 PUSH0 ADD DUP1 SLOAD DUP1 PUSH2 0x5D78 JUMPI PUSH2 0x5D77 PUSH2 0x764E JUMP JUMPDEST JUMPDEST PUSH1 0x1 SWAP1 SUB DUP2 DUP2 SWAP1 PUSH0 MSTORE PUSH1 0x20 PUSH0 KECCAK256 ADD PUSH0 SWAP1 SSTORE SWAP1 SSTORE DUP7 PUSH1 0x1 ADD PUSH0 DUP8 DUP2 MSTORE PUSH1 0x20 ADD SWAP1 DUP2 MSTORE PUSH1 0x20 ADD PUSH0 KECCAK256 PUSH0 SWAP1 SSTORE PUSH1 0x1 SWAP5 POP POP POP POP POP PUSH2 0x5DB3 JUMP JUMPDEST PUSH0 SWAP2 POP POP JUMPDEST SWAP3 SWAP2 POP POP JUMP JUMPDEST PUSH0 DUP1 REVERT JUMPDEST PUSH0 PUSH20 0xFFFFFFFFFFFFFFFFFFFFFFFFFFFFFFFFFFFFFFFF DUP3 AND SWAP1 POP SWAP2 SWAP1 POP JUMP JUMPDEST PUSH0 PUSH2 0x5DE6 DUP3 PUSH2 0x5DBD JUMP JUMPDEST SWAP1 POP SWAP2 SWAP1 POP JUMP JUMPDEST PUSH2 0x5DF6 DUP2 PUSH2 0x5DDC JUMP JUMPDEST DUP2 EQ PUSH2 0x5E00 JUMPI PUSH0 DUP1 REVERT JUMPDEST POP JUMP JUMPDEST PUSH0 DUP2 CALLDATALOAD SWAP1 POP PUSH2 0x5E11 DUP2 PUSH2 0x5DED JUMP JUMPDEST SWAP3 SWAP2 POP POP JUMP JUMPDEST PUSH0 PUSH1 0x20 DUP3 DUP5 SUB SLT ISZERO PUSH2 0x5E2C JUMPI PUSH2 0x5E2B PUSH2 0x5DB9 JUMP JUMPDEST JUMPDEST PUSH0 PUSH2 0x5E39 DUP5 DUP3 DUP6 ADD PUSH2 0x5E03 JUMP JUMPDEST SWAP2 POP POP SWAP3 SWAP2 POP POP JUMP JUMPDEST PUSH0 DUP2 SWAP1 POP SWAP2 SWAP1 POP JUMP JUMPDEST PUSH2 0x5E54 DUP2 PUSH2 0x5E42 JUMP JUMPDEST DUP3 MSTORE POP POP JUMP JUMPDEST PUSH0 PUSH1 0x20 DUP3 ADD SWAP1 POP PUSH2 0x5E6D PUSH0 DUP4 ADD DUP5 PUSH2 0x5E4B JUMP JUMPDEST SWAP3 SWAP2 POP POP JUMP JUMPDEST PUSH0 DUP2 SWAP1 POP SWAP2 SWAP1 POP JUMP JUMPDEST PUSH2 0x5E85 DUP2 PUSH2 0x5E73 JUMP JUMPDEST DUP2 EQ PUSH2 0x5E8F JUMPI PUSH0 DUP1 REVERT JUMPDEST POP JUMP JUMPDEST PUSH0 DUP2 CALLDATALOAD SWAP1 POP PUSH2 0x5EA0 DUP2 PUSH2 0x5E7C JUMP JUMPDEST SWAP3 SWAP2 POP POP JUMP JUMPDEST PUSH0 PUSH1 0x20 DUP3 DUP5 SUB SLT ISZERO PUSH2 0x5EBB JUMPI PUSH2 0x5EBA PUSH2 0x5DB9 JUMP JUMPDEST JUMPDEST PUSH0 PUSH2 0x5EC8 DUP5 DUP3 DUP6 ADD PUSH2 0x5E92 JUMP JUMPDEST SWAP2 POP POP SWAP3 SWAP2 POP POP JUMP JUMPDEST PUSH2 0x5EDA DUP2 PUSH2 0x5E73 JUMP JUMPDEST DUP3 MSTORE POP POP JUMP JUMPDEST PUSH0 PUSH1 0x20 DUP3 ADD SWAP1 POP PUSH2 0x5EF3 PUSH0 DUP4 ADD DUP5 PUSH2 0x5ED1 JUMP JUMPDEST SWAP3 SWAP2 POP POP JUMP JUMPDEST PUSH0 DUP1 PUSH1 0x40 DUP4 DUP6 SUB SLT ISZERO PUSH2 0x5F0F JUMPI PUSH2 0x5F0E PUSH2 0x5DB9 JUMP JUMPDEST JUMPDEST PUSH0 PUSH2 0x5F1C DUP6 DUP3 DUP7 ADD PUSH2 0x5E92 JUMP JUMPDEST SWAP3 POP POP PUSH1 0x20 PUSH2 0x5F2D DUP6 DUP3 DUP7 ADD PUSH2 0x5E03 JUMP JUMPDEST SWAP2 POP POP SWAP3 POP SWAP3 SWAP1 POP JUMP JUMPDEST PUSH0 DUP2 SWAP1 POP SWAP2 SWAP1 POP JUMP JUMPDEST PUSH0 PUSH2 0x5F5A PUSH2 0x5F55 PUSH2 0x5F50 DUP5 PUSH2 0x5DBD JUMP JUMPDEST PUSH2 0x5F37 JUMP JUMPDEST PUSH2 0x5DBD JUMP JUMPDEST SWAP1 POP SWAP2 SWAP1 POP JUMP JUMPDEST PUSH0 PUSH2 0x5F6B DUP3 PUSH2 0x5F40 JUMP JUMPDEST SWAP1 POP SWAP2 SWAP1 POP JUMP JUMPDEST PUSH0 PUSH2 0x5F7C DUP3 PUSH2 0x5F61 JUMP JUMPDEST SWAP1 POP SWAP2 SWAP1 POP JUMP JUMPDEST PUSH2 0x5F8C DUP2 PUSH2 0x5F72 JUMP JUMPDEST DUP3 MSTORE POP POP JUMP JUMPDEST PUSH0 PUSH1 0x20 DUP3 ADD SWAP1 POP PUSH2 0x5FA5 PUSH0 DUP4 ADD DUP5 PUSH2 0x5F83 JUMP JUMPDEST SWAP3 SWAP2 POP POP JUMP JUMPDEST PUSH2 0x5FB4 DUP2 PUSH2 0x5E42 JUMP JUMPDEST DUP2 EQ PUSH2 0x5FBE JUMPI PUSH0 DUP1 REVERT JUMPDEST POP JUMP JUMPDEST PUSH0 DUP2 CALLDATALOAD SWAP1 POP PUSH2 0x5FCF DUP2 PUSH2 0x5FAB JUMP JUMPDEST SWAP3 SWAP2 POP POP JUMP JUMPDEST PUSH0 DUP1 PUSH0 DUP1 PUSH0 DUP1 PUSH0 PUSH1 0xE0 DUP9 DUP11 SUB SLT ISZERO PUSH2 0x5FF0 JUMPI PUSH2 0x5FEF PUSH2 0x5DB9 JUMP JUMPDEST JUMPDEST PUSH0 PUSH2 0x5FFD DUP11 DUP3 DUP12 ADD PUSH2 0x5FC1 JUMP JUMPDEST SWAP8 POP POP PUSH1 0x20 PUSH2 0x600E DUP11 DUP3 DUP12 ADD PUSH2 0x5FC1 JUMP JUMPDEST SWAP7 POP POP PUSH1 0x40 PUSH2 0x601F DUP11 DUP3 DUP12 ADD PUSH2 0x5FC1 JUMP JUMPDEST SWAP6 POP POP PUSH1 0x60 PUSH2 0x6030 DUP11 DUP3 DUP12 ADD PUSH2 0x5FC1 JUMP JUMPDEST SWAP5 POP POP PUSH1 0x80 PUSH2 0x6041 DUP11 DUP3 DUP12 ADD PUSH2 0x5FC1 JUMP JUMPDEST SWAP4 POP POP PUSH1 0xA0 PUSH2 0x6052 DUP11 DUP3 DUP12 ADD PUSH2 0x5FC1 JUMP JUMPDEST SWAP3 POP POP PUSH1 0xC0 PUSH2 0x6063 DUP11 DUP3 DUP12 ADD PUSH2 0x5FC1 JUMP JUMPDEST SWAP2 POP POP SWAP3 SWAP6 SWAP9 SWAP2 SWAP5 SWAP8 POP SWAP3 SWAP6 POP JUMP JUMPDEST PUSH2 0x607B DUP2 PUSH2 0x5DDC JUMP JUMPDEST DUP3 MSTORE POP POP JUMP JUMPDEST PUSH0 PUSH1 0x20 DUP3 ADD SWAP1 POP PUSH2 0x6094 PUSH0 DUP4 ADD DUP5 PUSH2 0x6072 JUMP JUMPDEST SWAP3 SWAP2 POP POP JUMP JUMPDEST PUSH0 DUP1 PUSH0 PUSH1 0x60 DUP5 DUP7 SUB SLT ISZERO PUSH2 0x60B1 JUMPI PUSH2 0x60B0 PUSH2 0x5DB9 JUMP JUMPDEST JUMPDEST PUSH0 PUSH2 0x60BE DUP7 DUP3 DUP8 ADD PUSH2 0x5FC1 JUMP JUMPDEST SWAP4 POP POP PUSH1 0x20 PUSH2 0x60CF DUP7 DUP3 DUP8 ADD PUSH2 0x5FC1 JUMP JUMPDEST SWAP3 POP POP PUSH1 0x40 PUSH2 0x60E0 DUP7 DUP3 DUP8 ADD PUSH2 0x5FC1 JUMP JUMPDEST SWAP2 POP POP SWAP3 POP SWAP3 POP SWAP3 JUMP JUMPDEST PUSH0 DUP1 PUSH1 0x40 DUP4 DUP6 SUB SLT ISZERO PUSH2 0x6100 JUMPI PUSH2 0x60FF PUSH2 0x5DB9 JUMP JUMPDEST JUMPDEST PUSH0 PUSH2 0x610D DUP6 DUP3 DUP7 ADD PUSH2 0x5FC1 JUMP JUMPDEST SWAP3 POP POP PUSH1 0x20 PUSH2 0x611E DUP6 DUP3 DUP7 ADD PUSH2 0x5FC1 JUMP JUMPDEST SWAP2 POP POP SWAP3 POP SWAP3 SWAP1 POP JUMP JUMPDEST PUSH0 DUP2 ISZERO ISZERO SWAP1 POP SWAP2 SWAP1 POP JUMP JUMPDEST PUSH2 0x613C DUP2 PUSH2 0x6128 JUMP JUMPDEST DUP3 MSTORE POP POP JUMP JUMPDEST PUSH0 PUSH1 0x20 DUP3 ADD SWAP1 POP PUSH2 0x6155 PUSH0 DUP4 ADD DUP5 PUSH2 0x6133 JUMP JUMPDEST SWAP3 SWAP2 POP POP JUMP JUMPDEST PUSH0 PUSH1 0x20 DUP3 DUP5 SUB SLT ISZERO PUSH2 0x6170 JUMPI PUSH2 0x616F PUSH2 0x5DB9 JUMP JUMPDEST JUMPDEST PUSH0 PUSH2 0x617D DUP5 DUP3 DUP6 ADD PUSH2 0x5FC1 JUMP JUMPDEST SWAP2 POP POP SWAP3 SWAP2 POP POP JUMP JUMPDEST PUSH0 DUP1 PUSH1 0x40 DUP4 DUP6 SUB SLT ISZERO PUSH2 0x619C JUMPI PUSH2 0x619B PUSH2 0x5DB9 JUMP JUMPDEST JUMPDEST PUSH0 PUSH2 0x61A9 DUP6 DUP3 DUP7 ADD PUSH2 0x5E03 JUMP JUMPDEST SWAP3 POP POP PUSH1 0x20 PUSH2 0x61BA DUP6 DUP3 DUP7 ADD PUSH2 0x5E03 JUMP JUMPDEST SWAP2 POP POP SWAP3 POP SWAP3 SWAP1 POP JUMP JUMPDEST PUSH0 DUP1 PUSH1 0x40 DUP4 DUP6 SUB SLT ISZERO PUSH2 0x61DA JUMPI PUSH2 0x61D9 PUSH2 0x5DB9 JUMP JUMPDEST JUMPDEST PUSH0 PUSH2 0x61E7 DUP6 DUP3 DUP7 ADD PUSH2 0x5E92 JUMP JUMPDEST SWAP3 POP POP PUSH1 0x20 PUSH2 0x61F8 DUP6 DUP3 DUP7 ADD PUSH2 0x5FC1 JUMP JUMPDEST SWAP2 POP POP SWAP3 POP SWAP3 SWAP1 POP JUMP JUMPDEST PUSH0 DUP3 DUP3 MSTORE PUSH1 0x20 DUP3 ADD SWAP1 POP SWAP3 SWAP2 POP POP JUMP JUMPDEST PUSH32 0x4D757374207761697420666F7220726564656D7074696F6E5F64656C61792062 PUSH0 DUP3 ADD MSTORE PUSH32 0x6C6F636B73206265666F726520636F6C6C656374696E6720726564656D707469 PUSH1 0x20 DUP3 ADD MSTORE PUSH32 0x6F6E000000000000000000000000000000000000000000000000000000000000 PUSH1 0x40 DUP3 ADD MSTORE POP JUMP JUMPDEST PUSH0 PUSH2 0x6292 PUSH1 0x42 DUP4 PUSH2 0x6202 JUMP JUMPDEST SWAP2 POP PUSH2 0x629D DUP3 PUSH2 0x6212 JUMP JUMPDEST PUSH1 0x60 DUP3 ADD SWAP1 POP SWAP2 SWAP1 POP JUMP JUMPDEST PUSH0 PUSH1 0x20 DUP3 ADD SWAP1 POP DUP2 DUP2 SUB PUSH0 DUP4 ADD MSTORE PUSH2 0x62BF DUP2 PUSH2 0x6286 JUMP JUMPDEST SWAP1 POP SWAP2 SWAP1 POP JUMP JUMPDEST PUSH32 0x4F6E6C792074686520636F6E7472616374206F776E6572206D61792070657266 PUSH0 DUP3 ADD MSTORE PUSH32 0x6F726D207468697320616374696F6E0000000000000000000000000000000000 PUSH1 0x20 DUP3 ADD MSTORE POP JUMP JUMPDEST PUSH0 PUSH2 0x6320 PUSH1 0x2F DUP4 PUSH2 0x6202 JUMP JUMPDEST SWAP2 POP PUSH2 0x632B DUP3 PUSH2 0x62C6 JUMP JUMPDEST PUSH1 0x40 DUP3 ADD SWAP1 POP SWAP2 SWAP1 POP JUMP JUMPDEST PUSH0 PUSH1 0x20 DUP3 ADD SWAP1 POP DUP2 DUP2 SUB PUSH0 DUP4 ADD MSTORE PUSH2 0x634D DUP2 PUSH2 0x6314 JUMP JUMPDEST SWAP1 POP SWAP2 SWAP1 POP JUMP JUMPDEST PUSH32 0x4E487B7100000000000000000000000000000000000000000000000000000000 PUSH0 MSTORE PUSH1 0x11 PUSH1 0x4 MSTORE PUSH1 0x24 PUSH0 REVERT JUMPDEST PUSH0 DUP2 PUSH1 0x1 SHR SWAP1 POP SWAP2 SWAP1 POP JUMP JUMPDEST PUSH0 DUP1 DUP3 SWAP2 POP DUP4 SWAP1 POP JUMPDEST PUSH1 0x1 DUP6 GT ISZERO PUSH2 0x63D6 JUMPI DUP1 DUP7 DIV DUP2 GT ISZERO PUSH2 0x63B2 JUMPI PUSH2 0x63B1 PUSH2 0x6354 JUMP JUMPDEST JUMPDEST PUSH1 0x1 DUP6 AND ISZERO PUSH2 0x63C1 JUMPI DUP1 DUP3 MUL SWAP2 POP JUMPDEST DUP1 DUP2 MUL SWAP1 POP PUSH2 0x63CF DUP6 PUSH2 0x6381 JUMP JUMPDEST SWAP5 POP PUSH2 0x6396 JUMP JUMPDEST SWAP5 POP SWAP5 SWAP3 POP POP POP JUMP JUMPDEST PUSH0 DUP3 PUSH2 0x63EE JUMPI PUSH1 0x1 SWAP1 POP PUSH2 0x64A9 JUMP JUMPDEST DUP2 PUSH2 0x63FB JUMPI PUSH0 SWAP1 POP PUSH2 0x64A9 JUMP JUMPDEST DUP2 PUSH1 0x1 DUP2 EQ PUSH2 0x6411 JUMPI PUSH1 0x2 DUP2 EQ PUSH2 0x641B JUMPI PUSH2 0x644A JUMP JUMPDEST PUSH1 0x1 SWAP2 POP POP PUSH2 0x64A9 JUMP JUMPDEST PUSH1 0xFF DUP5 GT ISZERO PUSH2 0x642D JUMPI PUSH2 0x642C PUSH2 0x6354 JUMP JUMPDEST JUMPDEST DUP4 PUSH1 0x2 EXP SWAP2 POP DUP5 DUP3 GT ISZERO PUSH2 0x6444 JUMPI PUSH2 0x6443 PUSH2 0x6354 JUMP JUMPDEST JUMPDEST POP PUSH2 0x64A9 JUMP JUMPDEST POP PUSH1 0x20 DUP4 LT PUSH2 0x133 DUP4 LT AND PUSH1 0x4E DUP5 LT PUSH1 0xB DUP5 LT AND OR ISZERO PUSH2 0x647F JUMPI DUP3 DUP3 EXP SWAP1 POP DUP4 DUP2 GT ISZERO PUSH2 0x647A JUMPI PUSH2 0x6479 PUSH2 0x6354 JUMP JUMPDEST JUMPDEST PUSH2 0x64A9 JUMP JUMPDEST PUSH2 0x648C DUP5 DUP5 DUP5 PUSH1 0x1 PUSH2 0x638D JUMP JUMPDEST SWAP3 POP SWAP1 POP DUP2 DUP5 DIV DUP2 GT ISZERO PUSH2 0x64A3 JUMPI PUSH2 0x64A2 PUSH2 0x6354 JUMP JUMPDEST JUMPDEST DUP2 DUP2 MUL SWAP1 POP JUMPDEST SWAP4 SWAP3 POP POP POP JUMP JUMPDEST PUSH0 PUSH2 0x64BA DUP3 PUSH2 0x5E42 JUMP JUMPDEST SWAP2 POP PUSH2 0x64C5 DUP4 PUSH2 0x5E42 JUMP JUMPDEST SWAP3 POP PUSH2 0x64F2 PUSH32 0xFFFFFFFFFFFFFFFFFFFFFFFFFFFFFFFFFFFFFFFFFFFFFFFFFFFFFFFFFFFFFFFF DUP5 DUP5 PUSH2 0x63DF JUMP JUMPDEST SWAP1 POP SWAP3 SWAP2 POP POP JUMP JUMPDEST PUSH0 DUP2 MLOAD SWAP1 POP PUSH2 0x6508 DUP2 PUSH2 0x5FAB JUMP JUMPDEST SWAP3 SWAP2 POP POP JUMP JUMPDEST PUSH0 PUSH1 0x20 DUP3 DUP5 SUB SLT ISZERO PUSH2 0x6523 JUMPI PUSH2 0x6522 PUSH2 0x5DB9 JUMP JUMPDEST JUMPDEST PUSH0 PUSH2 0x6530 DUP5 DUP3 DUP6 ADD PUSH2 0x64FA JUMP JUMPDEST SWAP2 POP POP SWAP3 SWAP2 POP POP JUMP JUMPDEST PUSH0 PUSH2 0x6543 DUP3 PUSH2 0x5E42 JUMP JUMPDEST SWAP2 POP PUSH2 0x654E DUP4 PUSH2 0x5E42 JUMP JUMPDEST SWAP3 POP DUP3 DUP3 MUL PUSH2 0x655C DUP2 PUSH2 0x5E42 JUMP JUMPDEST SWAP2 POP DUP3 DUP3 DIV DUP5 EQ DUP4 ISZERO OR PUSH2 0x6573 JUMPI PUSH2 0x6572 PUSH2 0x6354 JUMP JUMPDEST JUMPDEST POP SWAP3 SWAP2 POP POP JUMP JUMPDEST PUSH0 PUSH1 0x40 DUP3 ADD SWAP1 POP PUSH2 0x658D PUSH0 DUP4 ADD DUP6 PUSH2 0x6072 JUMP JUMPDEST PUSH2 0x659A PUSH1 0x20 DUP4 ADD DUP5 PUSH2 0x5E4B JUMP JUMPDEST SWAP4 SWAP3 POP POP POP JUMP JUMPDEST PUSH32 0x416363657373436F6E74726F6C3A2073656E646572206D75737420626520616E PUSH0 DUP3 ADD MSTORE PUSH32 0x2061646D696E20746F206772616E740000000000000000000000000000000000 PUSH1 0x20 DUP3 ADD MSTORE POP JUMP JUMPDEST PUSH0 PUSH2 0x65FB PUSH1 0x2F DUP4 PUSH2 0x6202 JUMP JUMPDEST SWAP2 POP PUSH2 0x6606 DUP3 PUSH2 0x65A1 JUMP JUMPDEST PUSH1 0x40 DUP3 ADD SWAP1 POP SWAP2 SWAP1 POP JUMP JUMPDEST PUSH0 PUSH1 0x20 DUP3 ADD SWAP1 POP DUP2 DUP2 SUB PUSH0 DUP4 ADD MSTORE PUSH2 0x6628 DUP2 PUSH2 0x65EF JUMP JUMPDEST SWAP1 POP SWAP2 SWAP1 POP JUMP JUMPDEST PUSH32 0x416363657373436F6E74726F6C3A2063616E206F6E6C792072656E6F756E6365 PUSH0 DUP3 ADD MSTORE PUSH32 0x20726F6C657320666F722073656C660000000000000000000000000000000000 PUSH1 0x20 DUP3 ADD MSTORE POP JUMP JUMPDEST PUSH0 PUSH2 0x6689 PUSH1 0x2F DUP4 PUSH2 0x6202 JUMP JUMPDEST SWAP2 POP PUSH2 0x6694 DUP3 PUSH2 0x662F JUMP JUMPDEST PUSH1 0x40 DUP3 ADD SWAP1 POP SWAP2 SWAP1 POP JUMP JUMPDEST PUSH0 PUSH1 0x20 DUP3 ADD SWAP1 POP DUP2 DUP2 SUB PUSH0 DUP4 ADD MSTORE PUSH2 0x66B6 DUP2 PUSH2 0x667D JUMP JUMPDEST SWAP1 POP SWAP2 SWAP1 POP JUMP JUMPDEST PUSH32 0x4E6F74206F776E6572206F722074696D656C6F636B0000000000000000000000 PUSH0 DUP3 ADD MSTORE POP JUMP JUMPDEST PUSH0 PUSH2 0x66F1 PUSH1 0x15 DUP4 PUSH2 0x6202 JUMP JUMPDEST SWAP2 POP PUSH2 0x66FC DUP3 PUSH2 0x66BD JUMP JUMPDEST PUSH1 0x20 DUP3 ADD SWAP1 POP SWAP2 SWAP1 POP JUMP JUMPDEST PUSH0 PUSH1 0x20 DUP3 ADD SWAP1 POP DUP2 DUP2 SUB PUSH0 DUP4 ADD MSTORE PUSH2 0x671E DUP2 PUSH2 0x66E5 JUMP JUMPDEST SWAP1 POP SWAP2 SWAP1 POP JUMP JUMPDEST PUSH0 PUSH1 0xE0 DUP3 ADD SWAP1 POP PUSH2 0x6738 PUSH0 DUP4 ADD DUP11 PUSH2 0x5E4B JUMP JUMPDEST PUSH2 0x6745 PUSH1 0x20 DUP4 ADD DUP10 PUSH2 0x5E4B JUMP JUMPDEST PUSH2 0x6752 PUSH1 0x40 DUP4 ADD DUP9 PUSH2 0x5E4B JUMP JUMPDEST PUSH2 0x675F PUSH1 0x60 DUP4 ADD DUP8 PUSH2 0x5E4B JUMP JUMPDEST PUSH2 0x676C PUSH1 0x80 DUP4 ADD DUP7 PUSH2 0x5E4B JUMP JUMPDEST PUSH2 0x6779 PUSH1 0xA0 DUP4 ADD DUP6 PUSH2 0x5E4B JUMP JUMPDEST PUSH2 0x6786 PUSH1 0xC0 DUP4 ADD DUP5 PUSH2 0x5E4B JUMP JUMPDEST SWAP9 SWAP8 POP POP POP POP POP POP POP POP JUMP JUMPDEST PUSH32 0x4D696E74696E6720697320706175736564000000000000000000000000000000 PUSH0 DUP3 ADD MSTORE POP JUMP JUMPDEST PUSH0 PUSH2 0x67C6 PUSH1 0x11 DUP4 PUSH2 0x6202 JUMP JUMPDEST SWAP2 POP PUSH2 0x67D1 DUP3 PUSH2 0x6792 JUMP JUMPDEST PUSH1 0x20 DUP3 ADD SWAP1 POP SWAP2 SWAP1 POP JUMP JUMPDEST PUSH0 PUSH1 0x20 DUP3 ADD SWAP1 POP DUP2 DUP2 SUB PUSH0 DUP4 ADD MSTORE PUSH2 0x67F3 DUP2 PUSH2 0x67BA JUMP JUMPDEST SWAP1 POP SWAP2 SWAP1 POP JUMP JUMPDEST PUSH32 0x436F6C6C61746572616C20726174696F206E6565647320746F20626520626574 PUSH0 DUP3 ADD MSTORE PUSH32 0x7765656E202E30303030303120616E64202E3939393939390000000000000000 PUSH1 0x20 DUP3 ADD MSTORE POP JUMP JUMPDEST PUSH0 PUSH2 0x6854 PUSH1 0x38 DUP4 PUSH2 0x6202 JUMP JUMPDEST SWAP2 POP PUSH2 0x685F DUP3 PUSH2 0x67FA JUMP JUMPDEST PUSH1 0x40 DUP3 ADD SWAP1 POP SWAP2 SWAP1 POP JUMP JUMPDEST PUSH0 PUSH1 0x20 DUP3 ADD SWAP1 POP DUP2 DUP2 SUB PUSH0 DUP4 ADD MSTORE PUSH2 0x6881 DUP2 PUSH2 0x6848 JUMP JUMPDEST SWAP1 POP SWAP2 SWAP1 POP JUMP JUMPDEST PUSH32 0x506F6F6C206365696C696E6720726561636865642C206E6F206D6F7265204652 PUSH0 DUP3 ADD MSTORE PUSH32 0x41582063616E206265206D696E7465642077697468207468697320636F6C6C61 PUSH1 0x20 DUP3 ADD MSTORE PUSH32 0x746572616C000000000000000000000000000000000000000000000000000000 PUSH1 0x40 DUP3 ADD MSTORE POP JUMP JUMPDEST PUSH0 PUSH2 0x6908 PUSH1 0x45 DUP4 PUSH2 0x6202 JUMP JUMPDEST SWAP2 POP PUSH2 0x6913 DUP3 PUSH2 0x6888 JUMP JUMPDEST PUSH1 0x60 DUP3 ADD SWAP1 POP SWAP2 SWAP1 POP JUMP JUMPDEST PUSH0 PUSH1 0x20 DUP3 ADD SWAP1 POP DUP2 DUP2 SUB PUSH0 DUP4 ADD MSTORE PUSH2 0x6935 DUP2 PUSH2 0x68FC JUMP JUMPDEST SWAP1 POP SWAP2 SWAP1 POP JUMP JUMPDEST PUSH32 0x536C697070616765206C696D6974207265616368656400000000000000000000 PUSH0 DUP3 ADD MSTORE POP JUMP JUMPDEST PUSH0 PUSH2 0x6970 PUSH1 0x16 DUP4 PUSH2 0x6202 JUMP JUMPDEST SWAP2 POP PUSH2 0x697B DUP3 PUSH2 0x693C JUMP JUMPDEST PUSH1 0x20 DUP3 ADD SWAP1 POP SWAP2 SWAP1 POP JUMP JUMPDEST PUSH0 PUSH1 0x20 DUP3 ADD SWAP1 POP DUP2 DUP2 SUB PUSH0 DUP4 ADD MSTORE PUSH2 0x699D DUP2 PUSH2 0x6964 JUMP JUMPDEST SWAP1 POP SWAP2 SWAP1 POP JUMP JUMPDEST PUSH32 0x4E6F7420656E6F7567682046585320696E707574746564000000000000000000 PUSH0 DUP3 ADD MSTORE POP JUMP JUMPDEST PUSH0 PUSH2 0x69D8 PUSH1 0x17 DUP4 PUSH2 0x6202 JUMP JUMPDEST SWAP2 POP PUSH2 0x69E3 DUP3 PUSH2 0x69A4 JUMP JUMPDEST PUSH1 0x20 DUP3 ADD SWAP1 POP SWAP2 SWAP1 POP JUMP JUMPDEST PUSH0 PUSH1 0x20 DUP3 ADD SWAP1 POP DUP2 DUP2 SUB PUSH0 DUP4 ADD MSTORE PUSH2 0x6A05 DUP2 PUSH2 0x69CC JUMP JUMPDEST SWAP1 POP SWAP2 SWAP1 POP JUMP JUMPDEST PUSH2 0x6A15 DUP2 PUSH2 0x5E42 JUMP JUMPDEST DUP3 MSTORE POP POP JUMP JUMPDEST PUSH0 PUSH1 0x40 DUP3 ADD SWAP1 POP PUSH2 0x6A2E PUSH0 DUP4 ADD DUP6 PUSH2 0x6A0C JUMP JUMPDEST PUSH2 0x6A3B PUSH1 0x20 DUP4 ADD DUP5 PUSH2 0x6A0C JUMP JUMPDEST SWAP4 SWAP3 POP POP POP JUMP JUMPDEST PUSH0 PUSH1 0x60 DUP3 ADD SWAP1 POP PUSH2 0x6A55 PUSH0 DUP4 ADD DUP7 PUSH2 0x6072 JUMP JUMPDEST PUSH2 0x6A62 PUSH1 0x20 DUP4 ADD DUP6 PUSH2 0x6072 JUMP JUMPDEST PUSH2 0x6A6F PUSH1 0x40 DUP4 ADD DUP5 PUSH2 0x5E4B JUMP JUMPDEST SWAP5 SWAP4 POP POP POP POP JUMP JUMPDEST PUSH2 0x6A80 DUP2 PUSH2 0x6128 JUMP JUMPDEST DUP2 EQ PUSH2 0x6A8A JUMPI PUSH0 DUP1 REVERT JUMPDEST POP JUMP JUMPDEST PUSH0 DUP2 MLOAD SWAP1 POP PUSH2 0x6A9B DUP2 PUSH2 0x6A77 JUMP JUMPDEST SWAP3 SWAP2 POP POP JUMP JUMPDEST PUSH0 PUSH1 0x20 DUP3 DUP5 SUB SLT ISZERO PUSH2 0x6AB6 JUMPI PUSH2 0x6AB5 PUSH2 0x5DB9 JUMP JUMPDEST JUMPDEST PUSH0 PUSH2 0x6AC3 DUP5 DUP3 DUP6 ADD PUSH2 0x6A8D JUMP JUMPDEST SWAP2 POP POP SWAP3 SWAP2 POP POP JUMP JUMPDEST PUSH32 0x436F6C6C61746572616C20726174696F206D757374206265203E3D2031000000 PUSH0 DUP3 ADD MSTORE POP JUMP JUMPDEST PUSH0 PUSH2 0x6B00 PUSH1 0x1D DUP4 PUSH2 0x6202 JUMP JUMPDEST SWAP2 POP PUSH2 0x6B0B DUP3 PUSH2 0x6ACC JUMP JUMPDEST PUSH1 0x20 DUP3 ADD SWAP1 POP SWAP2 SWAP1 POP JUMP JUMPDEST PUSH0 PUSH1 0x20 DUP3 ADD SWAP1 POP DUP2 DUP2 SUB PUSH0 DUP4 ADD MSTORE PUSH2 0x6B2D DUP2 PUSH2 0x6AF4 JUMP JUMPDEST SWAP1 POP SWAP2 SWAP1 POP JUMP JUMPDEST PUSH32 0x5B506F6F6C277320436C6F7365645D3A204365696C696E672072656163686564 PUSH0 DUP3 ADD MSTORE POP JUMP JUMPDEST PUSH0 PUSH2 0x6B68 PUSH1 0x20 DUP4 PUSH2 0x6202 JUMP JUMPDEST SWAP2 POP PUSH2 0x6B73 DUP3 PUSH2 0x6B34 JUMP JUMPDEST PUSH1 0x20 DUP3 ADD SWAP1 POP SWAP2 SWAP1 POP JUMP JUMPDEST PUSH0 PUSH1 0x20 DUP3 ADD SWAP1 POP DUP2 DUP2 SUB PUSH0 DUP4 ADD MSTORE PUSH2 0x6B95 DUP2 PUSH2 0x6B5C JUMP JUMPDEST SWAP1 POP SWAP2 SWAP1 POP JUMP JUMPDEST PUSH32 0x52656465656D696E672069732070617573656400000000000000000000000000 PUSH0 DUP3 ADD MSTORE POP JUMP JUMPDEST PUSH0 PUSH2 0x6BD0 PUSH1 0x13 DUP4 PUSH2 0x6202 JUMP JUMPDEST SWAP2 POP PUSH2 0x6BDB DUP3 PUSH2 0x6B9C JUMP JUMPDEST PUSH1 0x20 DUP3 ADD SWAP1 POP SWAP2 SWAP1 POP JUMP JUMPDEST PUSH0 PUSH1 0x20 DUP3 ADD SWAP1 POP DUP2 DUP2 SUB PUSH0 DUP4 ADD MSTORE PUSH2 0x6BFD DUP2 PUSH2 0x6BC4 JUMP JUMPDEST SWAP1 POP SWAP2 SWAP1 POP JUMP JUMPDEST PUSH32 0x436F6C6C61746572616C20726174696F206D757374206265203D3D2031000000 PUSH0 DUP3 ADD MSTORE POP JUMP JUMPDEST PUSH0 PUSH2 0x6C38 PUSH1 0x1D DUP4 PUSH2 0x6202 JUMP JUMPDEST SWAP2 POP PUSH2 0x6C43 DUP3 PUSH2 0x6C04 JUMP JUMPDEST PUSH1 0x20 DUP3 ADD SWAP1 POP SWAP2 SWAP1 POP JUMP JUMPDEST PUSH0 PUSH1 0x20 DUP3 ADD SWAP1 POP DUP2 DUP2 SUB PUSH0 DUP4 ADD MSTORE PUSH2 0x6C65 DUP2 PUSH2 0x6C2C JUMP JUMPDEST SWAP1 POP SWAP2 SWAP1 POP JUMP JUMPDEST PUSH32 0x4E6F7420656E6F75676820636F6C6C61746572616C20696E20706F6F6C000000 PUSH0 DUP3 ADD MSTORE POP JUMP JUMPDEST PUSH0 PUSH2 0x6CA0 PUSH1 0x1D DUP4 PUSH2 0x6202 JUMP JUMPDEST SWAP2 POP PUSH2 0x6CAB DUP3 PUSH2 0x6C6C JUMP JUMPDEST PUSH1 0x20 DUP3 ADD SWAP1 POP SWAP2 SWAP1 POP JUMP JUMPDEST PUSH0 PUSH1 0x20 DUP3 ADD SWAP1 POP DUP2 DUP2 SUB PUSH0 DUP4 ADD MSTORE PUSH2 0x6CCD DUP2 PUSH2 0x6C94 JUMP JUMPDEST SWAP1 POP SWAP2 SWAP1 POP JUMP JUMPDEST PUSH32 0x4275796261636B20697320706175736564000000000000000000000000000000 PUSH0 DUP3 ADD MSTORE POP JUMP JUMPDEST PUSH0 PUSH2 0x6D08 PUSH1 0x11 DUP4 PUSH2 0x6202 JUMP JUMPDEST SWAP2 POP PUSH2 0x6D13 DUP3 PUSH2 0x6CD4 JUMP JUMPDEST PUSH1 0x20 DUP3 ADD SWAP1 POP SWAP2 SWAP1 POP JUMP JUMPDEST PUSH0 PUSH1 0x20 DUP3 ADD SWAP1 POP DUP2 DUP2 SUB PUSH0 DUP4 ADD MSTORE PUSH2 0x6D35 DUP2 PUSH2 0x6CFC JUMP JUMPDEST SWAP1 POP SWAP2 SWAP1 POP JUMP JUMPDEST PUSH32 0x4E487B7100000000000000000000000000000000000000000000000000000000 PUSH0 MSTORE PUSH1 0x12 PUSH1 0x4 MSTORE PUSH1 0x24 PUSH0 REVERT JUMPDEST PUSH0 PUSH2 0x6D73 DUP3 PUSH2 0x5E42 JUMP JUMPDEST SWAP2 POP PUSH2 0x6D7E DUP4 PUSH2 0x5E42 JUMP JUMPDEST SWAP3 POP DUP3 PUSH2 0x6D8E JUMPI PUSH2 0x6D8D PUSH2 0x6D3C JUMP JUMPDEST JUMPDEST DUP3 DUP3 DIV SWAP1 POP SWAP3 SWAP2 POP POP JUMP JUMPDEST PUSH32 0x436F6C6C61746572616C20726174696F206D7573742062652030000000000000 PUSH0 DUP3 ADD MSTORE POP JUMP JUMPDEST PUSH0 PUSH2 0x6DCD PUSH1 0x1A DUP4 PUSH2 0x6202 JUMP JUMPDEST SWAP2 POP PUSH2 0x6DD8 DUP3 PUSH2 0x6D99 JUMP JUMPDEST PUSH1 0x20 DUP3 ADD SWAP1 POP SWAP2 SWAP1 POP JUMP JUMPDEST PUSH0 PUSH1 0x20 DUP3 ADD SWAP1 POP DUP2 DUP2 SUB PUSH0 DUP4 ADD MSTORE PUSH2 0x6DFA DUP2 PUSH2 0x6DC1 JUMP JUMPDEST SWAP1 POP SWAP2 SWAP1 POP JUMP JUMPDEST PUSH0 PUSH2 0x6E0B DUP3 PUSH2 0x5E42 JUMP JUMPDEST SWAP2 POP PUSH2 0x6E16 DUP4 PUSH2 0x5E42 JUMP JUMPDEST SWAP3 POP DUP3 DUP3 SUB SWAP1 POP DUP2 DUP2 GT ISZERO PUSH2 0x6E2E JUMPI PUSH2 0x6E2D PUSH2 0x6354 JUMP JUMPDEST JUMPDEST SWAP3 SWAP2 POP POP JUMP JUMPDEST PUSH32 0x596F75206D757374206265206E6F6D696E61746564206265666F726520796F75 PUSH0 DUP3 ADD MSTORE PUSH32 0x2063616E20616363657074206F776E6572736869700000000000000000000000 PUSH1 0x20 DUP3 ADD MSTORE POP JUMP JUMPDEST PUSH0 PUSH2 0x6E8E PUSH1 0x35 DUP4 PUSH2 0x6202 JUMP JUMPDEST SWAP2 POP PUSH2 0x6E99 DUP3 PUSH2 0x6E34 JUMP JUMPDEST PUSH1 0x40 DUP3 ADD SWAP1 POP SWAP2 SWAP1 POP JUMP JUMPDEST PUSH0 PUSH1 0x20 DUP3 ADD SWAP1 POP DUP2 DUP2 SUB PUSH0 DUP4 ADD MSTORE PUSH2 0x6EBB DUP2 PUSH2 0x6E82 JUMP JUMPDEST SWAP1 POP SWAP2 SWAP1 POP JUMP JUMPDEST PUSH0 PUSH1 0x40 DUP3 ADD SWAP1 POP PUSH2 0x6ED5 PUSH0 DUP4 ADD DUP6 PUSH2 0x6072 JUMP JUMPDEST PUSH2 0x6EE2 PUSH1 0x20 DUP4 ADD DUP5 PUSH2 0x6072 JUMP JUMPDEST SWAP4 SWAP3 POP POP POP JUMP JUMPDEST PUSH32 0x536C697070616765206C696D69742072656163686564205B636F6C6C61746572 PUSH0 DUP3 ADD MSTORE PUSH32 0x616C5D0000000000000000000000000000000000000000000000000000000000 PUSH1 0x20 DUP3 ADD MSTORE POP JUMP JUMPDEST PUSH0 PUSH2 0x6F43 PUSH1 0x23 DUP4 PUSH2 0x6202 JUMP JUMPDEST SWAP2 POP PUSH2 0x6F4E DUP3 PUSH2 0x6EE9 JUMP JUMPDEST PUSH1 0x40 DUP3 ADD SWAP1 POP SWAP2 SWAP1 POP JUMP JUMPDEST PUSH0 PUSH1 0x20 DUP3 ADD SWAP1 POP DUP2 DUP2 SUB PUSH0 DUP4 ADD MSTORE PUSH2 0x6F70 DUP2 PUSH2 0x6F37 JUMP JUMPDEST SWAP1 POP SWAP2 SWAP1 POP JUMP JUMPDEST PUSH32 0x536C697070616765206C696D69742072656163686564205B4658535D00000000 PUSH0 DUP3 ADD MSTORE POP JUMP JUMPDEST PUSH0 PUSH2 0x6FAB PUSH1 0x1C DUP4 PUSH2 0x6202 JUMP JUMPDEST SWAP2 POP PUSH2 0x6FB6 DUP3 PUSH2 0x6F77 JUMP JUMPDEST PUSH1 0x20 DUP3 ADD SWAP1 POP SWAP2 SWAP1 POP JUMP JUMPDEST PUSH0 PUSH1 0x20 DUP3 ADD SWAP1 POP DUP2 DUP2 SUB PUSH0 DUP4 ADD MSTORE PUSH2 0x6FD8 DUP2 PUSH2 0x6F9F JUMP JUMPDEST SWAP1 POP SWAP2 SWAP1 POP JUMP JUMPDEST PUSH32 0x5265636F6C6C61746572616C697A652069732070617573656400000000000000 PUSH0 DUP3 ADD MSTORE POP JUMP JUMPDEST PUSH0 PUSH2 0x7013 PUSH1 0x19 DUP4 PUSH2 0x6202 JUMP JUMPDEST SWAP2 POP PUSH2 0x701E DUP3 PUSH2 0x6FDF JUMP JUMPDEST PUSH1 0x20 DUP3 ADD SWAP1 POP SWAP2 SWAP1 POP JUMP JUMPDEST PUSH0 PUSH1 0x20 DUP3 ADD SWAP1 POP DUP2 DUP2 SUB PUSH0 DUP4 ADD MSTORE PUSH2 0x7040 DUP2 PUSH2 0x7007 JUMP JUMPDEST SWAP1 POP SWAP2 SWAP1 POP JUMP JUMPDEST PUSH0 PUSH1 0xA0 DUP3 ADD SWAP1 POP PUSH2 0x705A PUSH0 DUP4 ADD DUP9 PUSH2 0x6A0C JUMP JUMPDEST PUSH2 0x7067 PUSH1 0x20 DUP4 ADD DUP8 PUSH2 0x6A0C JUMP JUMPDEST PUSH2 0x7074 PUSH1 0x40 DUP4 ADD DUP7 PUSH2 0x6A0C JUMP JUMPDEST PUSH2 0x7081 PUSH1 0x60 DUP4 ADD DUP6 PUSH2 0x6A0C JUMP JUMPDEST PUSH2 0x708E PUSH1 0x80 DUP4 ADD DUP5 PUSH2 0x6A0C JUMP JUMPDEST SWAP7 SWAP6 POP POP POP POP POP POP JUMP JUMPDEST PUSH0 DUP1 PUSH1 0x40 DUP4 DUP6 SUB SLT ISZERO PUSH2 0x70AE JUMPI PUSH2 0x70AD PUSH2 0x5DB9 JUMP JUMPDEST JUMPDEST PUSH0 PUSH2 0x70BB DUP6 DUP3 DUP7 ADD PUSH2 0x64FA JUMP JUMPDEST SWAP3 POP POP PUSH1 0x20 PUSH2 0x70CC DUP6 DUP3 DUP7 ADD PUSH2 0x64FA JUMP JUMPDEST SWAP2 POP POP SWAP3 POP SWAP3 SWAP1 POP JUMP JUMPDEST PUSH0 PUSH2 0x70E0 DUP3 PUSH2 0x5E42 JUMP JUMPDEST SWAP2 POP PUSH2 0x70EB DUP4 PUSH2 0x5E42 JUMP JUMPDEST SWAP3 POP DUP3 DUP3 ADD SWAP1 POP DUP1 DUP3 GT ISZERO PUSH2 0x7103 JUMPI PUSH2 0x7102 PUSH2 0x6354 JUMP JUMPDEST JUMPDEST SWAP3 SWAP2 POP POP JUMP JUMPDEST PUSH32 0x416363657373436F6E74726F6C3A2073656E646572206D75737420626520616E PUSH0 DUP3 ADD MSTORE PUSH32 0x2061646D696E20746F207265766F6B6500000000000000000000000000000000 PUSH1 0x20 DUP3 ADD MSTORE POP JUMP JUMPDEST PUSH0 PUSH2 0x7163 PUSH1 0x30 DUP4 PUSH2 0x6202 JUMP JUMPDEST SWAP2 POP PUSH2 0x716E DUP3 PUSH2 0x7109 JUMP JUMPDEST PUSH1 0x40 DUP3 ADD SWAP1 POP SWAP2 SWAP1 POP JUMP JUMPDEST PUSH0 PUSH1 0x20 DUP3 ADD SWAP1 POP DUP2 DUP2 SUB PUSH0 DUP4 ADD MSTORE PUSH2 0x7190 DUP2 PUSH2 0x7157 JUMP JUMPDEST SWAP1 POP SWAP2 SWAP1 POP JUMP JUMPDEST PUSH32 0x536166654D6174683A206164646974696F6E206F766572666C6F770000000000 PUSH0 DUP3 ADD MSTORE POP JUMP JUMPDEST PUSH0 PUSH2 0x71CB PUSH1 0x1B DUP4 PUSH2 0x6202 JUMP JUMPDEST SWAP2 POP PUSH2 0x71D6 DUP3 PUSH2 0x7197 JUMP JUMPDEST PUSH1 0x20 DUP3 ADD SWAP1 POP SWAP2 SWAP1 POP JUMP JUMPDEST PUSH0 PUSH1 0x20 DUP3 ADD SWAP1 POP DUP2 DUP2 SUB PUSH0 DUP4 ADD MSTORE PUSH2 0x71F8 DUP2 PUSH2 0x71BF JUMP JUMPDEST SWAP1 POP SWAP2 SWAP1 POP JUMP JUMPDEST PUSH0 DUP2 MLOAD SWAP1 POP SWAP2 SWAP1 POP JUMP JUMPDEST PUSH0 DUP2 SWAP1 POP SWAP3 SWAP2 POP POP JUMP JUMPDEST PUSH0 JUMPDEST DUP4 DUP2 LT ISZERO PUSH2 0x7230 JUMPI DUP1 DUP3 ADD MLOAD DUP2 DUP5 ADD MSTORE PUSH1 0x20 DUP2 ADD SWAP1 POP PUSH2 0x7215 JUMP JUMPDEST PUSH0 DUP5 DUP5 ADD MSTORE POP POP POP POP JUMP JUMPDEST PUSH0 PUSH2 0x7245 DUP3 PUSH2 0x71FF JUMP JUMPDEST PUSH2 0x724F DUP2 DUP6 PUSH2 0x7209 JUMP JUMPDEST SWAP4 POP PUSH2 0x725F DUP2 DUP6 PUSH1 0x20 DUP7 ADD PUSH2 0x7213 JUMP JUMPDEST DUP1 DUP5 ADD SWAP2 POP POP SWAP3 SWAP2 POP POP JUMP JUMPDEST PUSH0 PUSH2 0x7276 DUP3 DUP5 PUSH2 0x723B JUMP JUMPDEST SWAP2 POP DUP2 SWAP1 POP SWAP3 SWAP2 POP POP JUMP JUMPDEST PUSH32 0x5472616E7366657248656C7065723A205452414E534645525F4641494C454400 PUSH0 DUP3 ADD MSTORE POP JUMP JUMPDEST PUSH0 PUSH2 0x72B5 PUSH1 0x1F DUP4 PUSH2 0x6202 JUMP JUMPDEST SWAP2 POP PUSH2 0x72C0 DUP3 PUSH2 0x7281 JUMP JUMPDEST PUSH1 0x20 DUP3 ADD SWAP1 POP SWAP2 SWAP1 POP JUMP JUMPDEST PUSH0 PUSH1 0x20 DUP3 ADD SWAP1 POP DUP2 DUP2 SUB PUSH0 DUP4 ADD MSTORE PUSH2 0x72E2 DUP2 PUSH2 0x72A9 JUMP JUMPDEST SWAP1 POP SWAP2 SWAP1 POP JUMP JUMPDEST PUSH32 0x536166654D6174683A206D756C7469706C69636174696F6E206F766572666C6F PUSH0 DUP3 ADD MSTORE PUSH32 0x7700000000000000000000000000000000000000000000000000000000000000 PUSH1 0x20 DUP3 ADD MSTORE POP JUMP JUMPDEST PUSH0 PUSH2 0x7343 PUSH1 0x21 DUP4 PUSH2 0x6202 JUMP JUMPDEST SWAP2 POP PUSH2 0x734E DUP3 PUSH2 0x72E9 JUMP JUMPDEST PUSH1 0x40 DUP3 ADD SWAP1 POP SWAP2 SWAP1 POP JUMP JUMPDEST PUSH0 PUSH1 0x20 DUP3 ADD SWAP1 POP DUP2 DUP2 SUB PUSH0 DUP4 ADD MSTORE PUSH2 0x7370 DUP2 PUSH2 0x7337 JUMP JUMPDEST SWAP1 POP SWAP2 SWAP1 POP JUMP JUMPDEST PUSH32 0x5472616E7366657248656C7065723A205452414E534645525F46524F4D5F4641 PUSH0 DUP3 ADD MSTORE PUSH32 0x494C454400000000000000000000000000000000000000000000000000000000 PUSH1 0x20 DUP3 ADD MSTORE POP JUMP JUMPDEST PUSH0 PUSH2 0x73D1 PUSH1 0x24 DUP4 PUSH2 0x6202 JUMP JUMPDEST SWAP2 POP PUSH2 0x73DC DUP3 PUSH2 0x7377 JUMP JUMPDEST PUSH1 0x40 DUP3 ADD SWAP1 POP SWAP2 SWAP1 POP JUMP JUMPDEST PUSH0 PUSH1 0x20 DUP3 ADD SWAP1 POP DUP2 DUP2 SUB PUSH0 DUP4 ADD MSTORE PUSH2 0x73FE DUP2 PUSH2 0x73C5 JUMP JUMPDEST SWAP1 POP SWAP2 SWAP1 POP JUMP JUMPDEST PUSH32 0x4E6F2065786365737320636F6C6C61746572616C20746F20627579206261636B PUSH0 DUP3 ADD MSTORE PUSH32 0x2100000000000000000000000000000000000000000000000000000000000000 PUSH1 0x20 DUP3 ADD MSTORE POP JUMP JUMPDEST PUSH0 PUSH2 0x745F PUSH1 0x21 DUP4 PUSH2 0x6202 JUMP JUMPDEST SWAP2 POP PUSH2 0x746A DUP3 PUSH2 0x7405 JUMP JUMPDEST PUSH1 0x40 DUP3 ADD SWAP1 POP SWAP2 SWAP1 POP JUMP JUMPDEST PUSH0 PUSH1 0x20 DUP3 ADD SWAP1 POP DUP2 DUP2 SUB PUSH0 DUP4 ADD MSTORE PUSH2 0x748C DUP2 PUSH2 0x7453 JUMP JUMPDEST SWAP1 POP SWAP2 SWAP1 POP JUMP JUMPDEST PUSH32 0x596F752061726520747279696E6720746F20627579206261636B206D6F726520 PUSH0 DUP3 ADD MSTORE PUSH32 0x7468616E20746865206578636573732100000000000000000000000000000000 PUSH1 0x20 DUP3 ADD MSTORE POP JUMP JUMPDEST PUSH0 PUSH2 0x74ED PUSH1 0x30 DUP4 PUSH2 0x6202 JUMP JUMPDEST SWAP2 POP PUSH2 0x74F8 DUP3 PUSH2 0x7493 JUMP JUMPDEST PUSH1 0x40 DUP3 ADD SWAP1 POP SWAP2 SWAP1 POP JUMP JUMPDEST PUSH0 PUSH1 0x20 DUP3 ADD SWAP1 POP DUP2 DUP2 SUB PUSH0 DUP4 ADD MSTORE PUSH2 0x751A DUP2 PUSH2 0x74E1 JUMP JUMPDEST SWAP1 POP SWAP2 SWAP1 POP JUMP JUMPDEST PUSH0 DUP2 MLOAD SWAP1 POP SWAP2 SWAP1 POP JUMP JUMPDEST PUSH0 PUSH1 0x1F NOT PUSH1 0x1F DUP4 ADD AND SWAP1 POP SWAP2 SWAP1 POP JUMP JUMPDEST PUSH0 PUSH2 0x7545 DUP3 PUSH2 0x7521 JUMP JUMPDEST PUSH2 0x754F DUP2 DUP6 PUSH2 0x6202 JUMP JUMPDEST SWAP4 POP PUSH2 0x755F DUP2 DUP6 PUSH1 0x20 DUP7 ADD PUSH2 0x7213 JUMP JUMPDEST PUSH2 0x7568 DUP2 PUSH2 0x752B JUMP JUMPDEST DUP5 ADD SWAP2 POP POP SWAP3 SWAP2 POP POP JUMP JUMPDEST PUSH0 PUSH1 0x20 DUP3 ADD SWAP1 POP DUP2 DUP2 SUB PUSH0 DUP4 ADD MSTORE PUSH2 0x758B DUP2 DUP5 PUSH2 0x753B JUMP JUMPDEST SWAP1 POP SWAP3 SWAP2 POP POP JUMP JUMPDEST PUSH32 0x456E756D657261626C655365743A20696E646578206F7574206F6620626F756E PUSH0 DUP3 ADD MSTORE PUSH32 0x6473000000000000000000000000000000000000000000000000000000000000 PUSH1 0x20 DUP3 ADD MSTORE POP JUMP JUMPDEST PUSH0 PUSH2 0x75ED PUSH1 0x22 DUP4 PUSH2 0x6202 JUMP JUMPDEST SWAP2 POP PUSH2 0x75F8 DUP3 PUSH2 0x7593 JUMP JUMPDEST PUSH1 0x40 DUP3 ADD SWAP1 POP SWAP2 SWAP1 POP JUMP JUMPDEST PUSH0 PUSH1 0x20 DUP3 ADD SWAP1 POP DUP2 DUP2 SUB PUSH0 DUP4 ADD MSTORE PUSH2 0x761A DUP2 PUSH2 0x75E1 JUMP JUMPDEST SWAP1 POP SWAP2 SWAP1 POP JUMP JUMPDEST PUSH32 0x4E487B7100000000000000000000000000000000000000000000000000000000 PUSH0 MSTORE PUSH1 0x32 PUSH1 0x4 MSTORE PUSH1 0x24 PUSH0 REVERT JUMPDEST PUSH32 0x4E487B7100000000000000000000000000000000000000000000000000000000 PUSH0 MSTORE PUSH1 0x31 PUSH1 0x4 MSTORE PUSH1 0x24 PUSH0 REVERT INVALID LOG2 PUSH5 0x6970667358 0x22 SLT KECCAK256 0xF9 0xC 0xE0 0xAE EXP DUP13 PUSH29 0xA494DC0A5A3A6C2BB165295047352389CD5A2CE9DFA9ED6B2364736F6C PUSH4 0x43000815 STOP CALLER "
		},
		"gasEstimates": {
			"creation": {
				"codeDepositCost": "6077000",
				"executionCost": "infinite",
				"totalCost": "infinite"
			},
			"external": {
				"DEFAULT_ADMIN_ROLE()": "441",
				"acceptOwnership()": "infinite",
				"availableExcessCollatDV()": "infinite",
				"blackAddress()": "infinite",
				"bonus_rate()": "2559",
				"buyBackFXS(uint256,uint256)": "infinite",
				"buyBackPaused()": "2629",
				"buyback_fee()": "2494",
				"collatDollarBalance()": "infinite",
				"collat_eth_oracle_address()": "2576",
				"collateralPricePaused()": "2607",
				"collectRedemption()": "infinite",
				"getCollateralPrice()": "infinite",
				"getRoleAdmin(bytes32)": "infinite",
				"getRoleMember(bytes32,uint256)": "infinite",
				"getRoleMemberCount(bytes32)": "3009",
				"grantRole(bytes32,address)": "infinite",
				"hasRole(bytes32,address)": "infinite",
				"lastRedeemed(address)": "2935",
				"mint1t1FRAX(uint256,uint256)": "infinite",
				"mintAlgorithmicFRAX(uint256,uint256)": "infinite",
				"mintFractionalFRAX(uint256,uint256,uint256)": "infinite",
				"mintPaused()": "2556",
				"minting_fee()": "2492",
				"nominateNewOwner(address)": "infinite",
				"nominatedOwner()": "2598",
				"owner()": "2620",
				"pausedPrice()": "2514",
				"pool_ceiling()": "2493",
				"recollat_fee()": "2557",
				"recollateralizeFRAX(uint256,uint256)": "infinite",
				"recollateralizePaused()": "2629",
				"redeem1t1FRAX(uint256,uint256)": "infinite",
				"redeemAlgorithmicFRAX(uint256,uint256)": "infinite",
				"redeemCollateralBalances(address)": "2849",
				"redeemFXSBalances(address)": "2913",
				"redeemFractionalFRAX(uint256,uint256,uint256)": "infinite",
				"redeemPaused()": "2585",
				"redemption_delay()": "2538",
				"redemption_fee()": "2492",
				"renounceRole(bytes32,address)": "infinite",
				"revokeRole(bytes32,address)": "infinite",
				"setCollatETHOracle(address,address)": "infinite",
				"setFraxAddress(address)": "29124",
				"setPoolParameters(uint256,uint256,uint256,uint256,uint256,uint256,uint256)": "infinite",
				"setTimelock(address)": "infinite",
				"toggleBuyBack()": "infinite",
				"toggleCollateralPrice(uint256)": "infinite",
				"toggleMinting()": "infinite",
				"toggleRecollateralize()": "infinite",
				"toggleRedeeming()": "infinite",
				"unclaimedPoolCollateral()": "2558",
				"unclaimedPoolFXS()": "2537"
			}
		},
		"methodIdentifiers": {
			"DEFAULT_ADMIN_ROLE()": "a217fddf",
			"acceptOwnership()": "79ba5097",
			"availableExcessCollatDV()": "f61adab2",
			"blackAddress()": "373453f4",
			"bonus_rate()": "4c634934",
			"buyBackFXS(uint256,uint256)": "658445a8",
			"buyBackPaused()": "7f877f85",
			"buyback_fee()": "101197c7",
			"collatDollarBalance()": "17284c94",
			"collat_eth_oracle_address()": "8baa4b9f",
			"collateralPricePaused()": "8d2ac7a4",
			"collectRedemption()": "12ace5a2",
			"getCollateralPrice()": "f7683bbc",
			"getRoleAdmin(bytes32)": "248a9ca3",
			"getRoleMember(bytes32,uint256)": "9010d07c",
			"getRoleMemberCount(bytes32)": "ca15c873",
			"grantRole(bytes32,address)": "2f2ff15d",
			"hasRole(bytes32,address)": "91d14854",
			"lastRedeemed(address)": "abae2c4c",
			"mint1t1FRAX(uint256,uint256)": "5bd82663",
			"mintAlgorithmicFRAX(uint256,uint256)": "bdb345cb",
			"mintFractionalFRAX(uint256,uint256,uint256)": "5bb87b42",
			"mintPaused()": "7e4831d3",
			"minting_fee()": "c3355b8d",
			"nominateNewOwner(address)": "1627540c",
			"nominatedOwner()": "53a47bb7",
			"owner()": "8da5cb5b",
			"pausedPrice()": "c74ec56a",
			"pool_ceiling()": "6526a12a",
			"recollat_fee()": "fede5c9c",
			"recollateralizeFRAX(uint256,uint256)": "83c7ded7",
			"recollateralizePaused()": "6d2c5615",
			"redeem1t1FRAX(uint256,uint256)": "645af53c",
			"redeemAlgorithmicFRAX(uint256,uint256)": "6f5db87f",
			"redeemCollateralBalances(address)": "08a7493d",
			"redeemFXSBalances(address)": "c76417d7",
			"redeemFractionalFRAX(uint256,uint256,uint256)": "7e108af9",
			"redeemPaused()": "b235d468",
			"redemption_delay()": "15128425",
			"redemption_fee()": "cb73999f",
			"renounceRole(bytes32,address)": "36568abe",
			"revokeRole(bytes32,address)": "d547741f",
			"setCollatETHOracle(address,address)": "88d42cf2",
			"setFraxAddress(address)": "dca96408",
			"setPoolParameters(uint256,uint256,uint256,uint256,uint256,uint256,uint256)": "4ebbe762",
			"setTimelock(address)": "bdacb303",
			"toggleBuyBack()": "50c9ecd9",
			"toggleCollateralPrice(uint256)": "7ad1f61b",
			"toggleMinting()": "7d55094d",
			"toggleRecollateralize()": "42d15aec",
			"toggleRedeeming()": "daa50485",
			"unclaimedPoolCollateral()": "7b0461e9",
			"unclaimedPoolFXS()": "4c26203c"
		}
	},
	"abi": [
		{
			"inputs": [
				{
					"internalType": "address",
					"name": "_frax_contract_address",
					"type": "address"
				},
				{
					"internalType": "address",
					"name": "_fxs_contract_address",
					"type": "address"
				},
				{
					"internalType": "address",
					"name": "_collateral_address",
					"type": "address"
				},
				{
					"internalType": "address",
					"name": "black_address",
					"type": "address"
				},
				{
					"internalType": "address",
					"name": "_creator_address",
					"type": "address"
				},
				{
					"internalType": "address",
					"name": "_timelock_address",
					"type": "address"
				},
				{
					"internalType": "uint256",
					"name": "_pool_ceiling",
					"type": "uint256"
				}
			],
			"stateMutability": "nonpayable",
			"type": "constructor"
		},
		{
			"anonymous": false,
			"inputs": [
				{
					"indexed": false,
					"internalType": "bool",
					"name": "toggled",
					"type": "bool"
				}
			],
			"name": "BuybackToggled",
			"type": "event"
		},
		{
			"anonymous": false,
			"inputs": [
				{
					"indexed": false,
					"internalType": "bool",
					"name": "toggled",
					"type": "bool"
				}
			],
			"name": "CollateralPriceToggled",
			"type": "event"
		},
		{
			"anonymous": false,
			"inputs": [
				{
					"indexed": false,
					"internalType": "bool",
					"name": "toggled",
					"type": "bool"
				}
			],
			"name": "MintingToggled",
			"type": "event"
		},
		{
			"anonymous": false,
			"inputs": [
				{
					"indexed": false,
					"internalType": "address",
					"name": "oldOwner",
					"type": "address"
				},
				{
					"indexed": false,
					"internalType": "address",
					"name": "newOwner",
					"type": "address"
				}
			],
			"name": "OwnerChanged",
			"type": "event"
		},
		{
			"anonymous": false,
			"inputs": [
				{
					"indexed": false,
					"internalType": "address",
					"name": "newOwner",
					"type": "address"
				}
			],
			"name": "OwnerNominated",
			"type": "event"
		},
		{
			"anonymous": false,
			"inputs": [
				{
					"indexed": false,
					"internalType": "uint256",
					"name": "new_ceiling",
					"type": "uint256"
				},
				{
					"indexed": false,
					"internalType": "uint256",
					"name": "new_bonus_rate",
					"type": "uint256"
				},
				{
					"indexed": false,
					"internalType": "uint256",
					"name": "new_redemption_delay",
					"type": "uint256"
				},
				{
					"indexed": false,
					"internalType": "uint256",
					"name": "new_mint_fee",
					"type": "uint256"
				},
				{
					"indexed": false,
					"internalType": "uint256",
					"name": "new_redeem_fee",
					"type": "uint256"
				},
				{
					"indexed": false,
					"internalType": "uint256",
					"name": "new_buyback_fee",
					"type": "uint256"
				},
				{
					"indexed": false,
					"internalType": "uint256",
					"name": "new_recollat_fee",
					"type": "uint256"
				}
			],
			"name": "PoolParametersSet",
			"type": "event"
		},
		{
			"anonymous": false,
			"inputs": [
				{
					"indexed": false,
					"internalType": "bool",
					"name": "toggled",
					"type": "bool"
				}
			],
			"name": "RecollateralizeToggled",
			"type": "event"
		},
		{
			"anonymous": false,
			"inputs": [
				{
					"indexed": false,
					"internalType": "bool",
					"name": "toggled",
					"type": "bool"
				}
			],
			"name": "RedeemingToggled",
			"type": "event"
		},
		{
			"anonymous": false,
			"inputs": [
				{
					"indexed": true,
					"internalType": "bytes32",
					"name": "role",
					"type": "bytes32"
				},
				{
					"indexed": true,
					"internalType": "bytes32",
					"name": "previousAdminRole",
					"type": "bytes32"
				},
				{
					"indexed": true,
					"internalType": "bytes32",
					"name": "newAdminRole",
					"type": "bytes32"
				}
			],
			"name": "RoleAdminChanged",
			"type": "event"
		},
		{
			"anonymous": false,
			"inputs": [
				{
					"indexed": true,
					"internalType": "bytes32",
					"name": "role",
					"type": "bytes32"
				},
				{
					"indexed": true,
					"internalType": "address",
					"name": "account",
					"type": "address"
				},
				{
					"indexed": true,
					"internalType": "address",
					"name": "sender",
					"type": "address"
				}
			],
			"name": "RoleGranted",
			"type": "event"
		},
		{
			"anonymous": false,
			"inputs": [
				{
					"indexed": true,
					"internalType": "bytes32",
					"name": "role",
					"type": "bytes32"
				},
				{
					"indexed": true,
					"internalType": "address",
					"name": "account",
					"type": "address"
				},
				{
					"indexed": true,
					"internalType": "address",
					"name": "sender",
					"type": "address"
				}
			],
			"name": "RoleRevoked",
			"type": "event"
		},
		{
			"anonymous": false,
			"inputs": [
				{
					"indexed": false,
					"internalType": "address",
					"name": "new_timelock",
					"type": "address"
				}
			],
			"name": "TimelockSet",
			"type": "event"
		},
		{
			"inputs": [],
			"name": "DEFAULT_ADMIN_ROLE",
			"outputs": [
				{
					"internalType": "bytes32",
					"name": "",
					"type": "bytes32"
				}
			],
			"stateMutability": "view",
			"type": "function"
		},
		{
			"inputs": [],
			"name": "acceptOwnership",
			"outputs": [],
			"stateMutability": "nonpayable",
			"type": "function"
		},
		{
			"inputs": [],
			"name": "availableExcessCollatDV",
			"outputs": [
				{
					"internalType": "uint256",
					"name": "",
					"type": "uint256"
				}
			],
			"stateMutability": "view",
			"type": "function"
		},
		{
			"inputs": [],
			"name": "blackAddress",
			"outputs": [
				{
					"internalType": "contract ERC20",
					"name": "",
					"type": "address"
				}
			],
			"stateMutability": "view",
			"type": "function"
		},
		{
			"inputs": [],
			"name": "bonus_rate",
			"outputs": [
				{
					"internalType": "uint256",
					"name": "",
					"type": "uint256"
				}
			],
			"stateMutability": "view",
			"type": "function"
		},
		{
			"inputs": [
				{
					"internalType": "uint256",
					"name": "FXS_amount",
					"type": "uint256"
				},
				{
					"internalType": "uint256",
					"name": "COLLATERAL_out_min",
					"type": "uint256"
				}
			],
			"name": "buyBackFXS",
			"outputs": [],
			"stateMutability": "nonpayable",
			"type": "function"
		},
		{
			"inputs": [],
			"name": "buyBackPaused",
			"outputs": [
				{
					"internalType": "bool",
					"name": "",
					"type": "bool"
				}
			],
			"stateMutability": "view",
			"type": "function"
		},
		{
			"inputs": [],
			"name": "buyback_fee",
			"outputs": [
				{
					"internalType": "uint256",
					"name": "",
					"type": "uint256"
				}
			],
			"stateMutability": "view",
			"type": "function"
		},
		{
			"inputs": [],
			"name": "collatDollarBalance",
			"outputs": [
				{
					"internalType": "uint256",
					"name": "",
					"type": "uint256"
				}
			],
			"stateMutability": "view",
			"type": "function"
		},
		{
			"inputs": [],
			"name": "collat_eth_oracle_address",
			"outputs": [
				{
					"internalType": "address",
					"name": "",
					"type": "address"
				}
			],
			"stateMutability": "view",
			"type": "function"
		},
		{
			"inputs": [],
			"name": "collateralPricePaused",
			"outputs": [
				{
					"internalType": "bool",
					"name": "",
					"type": "bool"
				}
			],
			"stateMutability": "view",
			"type": "function"
		},
		{
			"inputs": [],
			"name": "collectRedemption",
			"outputs": [],
			"stateMutability": "nonpayable",
			"type": "function"
		},
		{
			"inputs": [],
			"name": "getCollateralPrice",
			"outputs": [
				{
					"internalType": "uint256",
					"name": "",
					"type": "uint256"
				}
			],
			"stateMutability": "view",
			"type": "function"
		},
		{
			"inputs": [
				{
					"internalType": "bytes32",
					"name": "role",
					"type": "bytes32"
				}
			],
			"name": "getRoleAdmin",
			"outputs": [
				{
					"internalType": "bytes32",
					"name": "",
					"type": "bytes32"
				}
			],
			"stateMutability": "view",
			"type": "function"
		},
		{
			"inputs": [
				{
					"internalType": "bytes32",
					"name": "role",
					"type": "bytes32"
				},
				{
					"internalType": "uint256",
					"name": "index",
					"type": "uint256"
				}
			],
			"name": "getRoleMember",
			"outputs": [
				{
					"internalType": "address",
					"name": "",
					"type": "address"
				}
			],
			"stateMutability": "view",
			"type": "function"
		},
		{
			"inputs": [
				{
					"internalType": "bytes32",
					"name": "role",
					"type": "bytes32"
				}
			],
			"name": "getRoleMemberCount",
			"outputs": [
				{
					"internalType": "uint256",
					"name": "",
					"type": "uint256"
				}
			],
			"stateMutability": "view",
			"type": "function"
		},
		{
			"inputs": [
				{
					"internalType": "bytes32",
					"name": "role",
					"type": "bytes32"
				},
				{
					"internalType": "address",
					"name": "account",
					"type": "address"
				}
			],
			"name": "grantRole",
			"outputs": [],
			"stateMutability": "nonpayable",
			"type": "function"
		},
		{
			"inputs": [
				{
					"internalType": "bytes32",
					"name": "role",
					"type": "bytes32"
				},
				{
					"internalType": "address",
					"name": "account",
					"type": "address"
				}
			],
			"name": "hasRole",
			"outputs": [
				{
					"internalType": "bool",
					"name": "",
					"type": "bool"
				}
			],
			"stateMutability": "view",
			"type": "function"
		},
		{
			"inputs": [
				{
					"internalType": "address",
					"name": "",
					"type": "address"
				}
			],
			"name": "lastRedeemed",
			"outputs": [
				{
					"internalType": "uint256",
					"name": "",
					"type": "uint256"
				}
			],
			"stateMutability": "view",
			"type": "function"
		},
		{
			"inputs": [
				{
					"internalType": "uint256",
					"name": "collateral_amount",
					"type": "uint256"
				},
				{
					"internalType": "uint256",
					"name": "FRAX_out_min",
					"type": "uint256"
				}
			],
			"name": "mint1t1FRAX",
			"outputs": [],
			"stateMutability": "nonpayable",
			"type": "function"
		},
		{
			"inputs": [
				{
					"internalType": "uint256",
					"name": "fxs_amount_d18",
					"type": "uint256"
				},
				{
					"internalType": "uint256",
					"name": "FRAX_out_min",
					"type": "uint256"
				}
			],
			"name": "mintAlgorithmicFRAX",
			"outputs": [],
			"stateMutability": "nonpayable",
			"type": "function"
		},
		{
			"inputs": [
				{
					"internalType": "uint256",
					"name": "collateral_amount",
					"type": "uint256"
				},
				{
					"internalType": "uint256",
					"name": "fxs_amount",
					"type": "uint256"
				},
				{
					"internalType": "uint256",
					"name": "FRAX_out_min",
					"type": "uint256"
				}
			],
			"name": "mintFractionalFRAX",
			"outputs": [],
			"stateMutability": "nonpayable",
			"type": "function"
		},
		{
			"inputs": [],
			"name": "mintPaused",
			"outputs": [
				{
					"internalType": "bool",
					"name": "",
					"type": "bool"
				}
			],
			"stateMutability": "view",
			"type": "function"
		},
		{
			"inputs": [],
			"name": "minting_fee",
			"outputs": [
				{
					"internalType": "uint256",
					"name": "",
					"type": "uint256"
				}
			],
			"stateMutability": "view",
			"type": "function"
		},
		{
			"inputs": [
				{
					"internalType": "address",
					"name": "_owner",
					"type": "address"
				}
			],
			"name": "nominateNewOwner",
			"outputs": [],
			"stateMutability": "nonpayable",
			"type": "function"
		},
		{
			"inputs": [],
			"name": "nominatedOwner",
			"outputs": [
				{
					"internalType": "address",
					"name": "",
					"type": "address"
				}
			],
			"stateMutability": "view",
			"type": "function"
		},
		{
			"inputs": [],
			"name": "owner",
			"outputs": [
				{
					"internalType": "address",
					"name": "",
					"type": "address"
				}
			],
			"stateMutability": "view",
			"type": "function"
		},
		{
			"inputs": [],
			"name": "pausedPrice",
			"outputs": [
				{
					"internalType": "uint256",
					"name": "",
					"type": "uint256"
				}
			],
			"stateMutability": "view",
			"type": "function"
		},
		{
			"inputs": [],
			"name": "pool_ceiling",
			"outputs": [
				{
					"internalType": "uint256",
					"name": "",
					"type": "uint256"
				}
			],
			"stateMutability": "view",
			"type": "function"
		},
		{
			"inputs": [],
			"name": "recollat_fee",
			"outputs": [
				{
					"internalType": "uint256",
					"name": "",
					"type": "uint256"
				}
			],
			"stateMutability": "view",
			"type": "function"
		},
		{
			"inputs": [
				{
					"internalType": "uint256",
					"name": "collateral_amount",
					"type": "uint256"
				},
				{
					"internalType": "uint256",
					"name": "FXS_out_min",
					"type": "uint256"
				}
			],
			"name": "recollateralizeFRAX",
			"outputs": [],
			"stateMutability": "nonpayable",
			"type": "function"
		},
		{
			"inputs": [],
			"name": "recollateralizePaused",
			"outputs": [
				{
					"internalType": "bool",
					"name": "",
					"type": "bool"
				}
			],
			"stateMutability": "view",
			"type": "function"
		},
		{
			"inputs": [
				{
					"internalType": "uint256",
					"name": "FRAX_amount",
					"type": "uint256"
				},
				{
					"internalType": "uint256",
					"name": "COLLATERAL_out_min",
					"type": "uint256"
				}
			],
			"name": "redeem1t1FRAX",
			"outputs": [],
			"stateMutability": "nonpayable",
			"type": "function"
		},
		{
			"inputs": [
				{
					"internalType": "uint256",
					"name": "FRAX_amount",
					"type": "uint256"
				},
				{
					"internalType": "uint256",
					"name": "FXS_out_min",
					"type": "uint256"
				}
			],
			"name": "redeemAlgorithmicFRAX",
			"outputs": [],
			"stateMutability": "nonpayable",
			"type": "function"
		},
		{
			"inputs": [
				{
					"internalType": "address",
					"name": "",
					"type": "address"
				}
			],
			"name": "redeemCollateralBalances",
			"outputs": [
				{
					"internalType": "uint256",
					"name": "",
					"type": "uint256"
				}
			],
			"stateMutability": "view",
			"type": "function"
		},
		{
			"inputs": [
				{
					"internalType": "address",
					"name": "",
					"type": "address"
				}
			],
			"name": "redeemFXSBalances",
			"outputs": [
				{
					"internalType": "uint256",
					"name": "",
					"type": "uint256"
				}
			],
			"stateMutability": "view",
			"type": "function"
		},
		{
			"inputs": [
				{
					"internalType": "uint256",
					"name": "FRAX_amount",
					"type": "uint256"
				},
				{
					"internalType": "uint256",
					"name": "FXS_out_min",
					"type": "uint256"
				},
				{
					"internalType": "uint256",
					"name": "COLLATERAL_out_min",
					"type": "uint256"
				}
			],
			"name": "redeemFractionalFRAX",
			"outputs": [],
			"stateMutability": "nonpayable",
			"type": "function"
		},
		{
			"inputs": [],
			"name": "redeemPaused",
			"outputs": [
				{
					"internalType": "bool",
					"name": "",
					"type": "bool"
				}
			],
			"stateMutability": "view",
			"type": "function"
		},
		{
			"inputs": [],
			"name": "redemption_delay",
			"outputs": [
				{
					"internalType": "uint256",
					"name": "",
					"type": "uint256"
				}
			],
			"stateMutability": "view",
			"type": "function"
		},
		{
			"inputs": [],
			"name": "redemption_fee",
			"outputs": [
				{
					"internalType": "uint256",
					"name": "",
					"type": "uint256"
				}
			],
			"stateMutability": "view",
			"type": "function"
		},
		{
			"inputs": [
				{
					"internalType": "bytes32",
					"name": "role",
					"type": "bytes32"
				},
				{
					"internalType": "address",
					"name": "account",
					"type": "address"
				}
			],
			"name": "renounceRole",
			"outputs": [],
			"stateMutability": "nonpayable",
			"type": "function"
		},
		{
			"inputs": [
				{
					"internalType": "bytes32",
					"name": "role",
					"type": "bytes32"
				},
				{
					"internalType": "address",
					"name": "account",
					"type": "address"
				}
			],
			"name": "revokeRole",
			"outputs": [],
			"stateMutability": "nonpayable",
			"type": "function"
		},
		{
			"inputs": [
				{
					"internalType": "address",
					"name": "_collateral_weth_oracle_address",
					"type": "address"
				},
				{
					"internalType": "address",
					"name": "_weth_address",
					"type": "address"
				}
			],
			"name": "setCollatETHOracle",
			"outputs": [],
			"stateMutability": "nonpayable",
			"type": "function"
		},
		{
			"inputs": [
				{
					"internalType": "address",
					"name": "_fraxAddress",
					"type": "address"
				}
			],
			"name": "setFraxAddress",
			"outputs": [],
			"stateMutability": "nonpayable",
			"type": "function"
		},
		{
			"inputs": [
				{
					"internalType": "uint256",
					"name": "new_ceiling",
					"type": "uint256"
				},
				{
					"internalType": "uint256",
					"name": "new_bonus_rate",
					"type": "uint256"
				},
				{
					"internalType": "uint256",
					"name": "new_redemption_delay",
					"type": "uint256"
				},
				{
					"internalType": "uint256",
					"name": "new_mint_fee",
					"type": "uint256"
				},
				{
					"internalType": "uint256",
					"name": "new_redeem_fee",
					"type": "uint256"
				},
				{
					"internalType": "uint256",
					"name": "new_buyback_fee",
					"type": "uint256"
				},
				{
					"internalType": "uint256",
					"name": "new_recollat_fee",
					"type": "uint256"
				}
			],
			"name": "setPoolParameters",
			"outputs": [],
			"stateMutability": "nonpayable",
			"type": "function"
		},
		{
			"inputs": [
				{
					"internalType": "address",
					"name": "new_timelock",
					"type": "address"
				}
			],
			"name": "setTimelock",
			"outputs": [],
			"stateMutability": "nonpayable",
			"type": "function"
		},
		{
			"inputs": [],
			"name": "toggleBuyBack",
			"outputs": [],
			"stateMutability": "nonpayable",
			"type": "function"
		},
		{
			"inputs": [
				{
					"internalType": "uint256",
					"name": "_new_price",
					"type": "uint256"
				}
			],
			"name": "toggleCollateralPrice",
			"outputs": [],
			"stateMutability": "nonpayable",
			"type": "function"
		},
		{
			"inputs": [],
			"name": "toggleMinting",
			"outputs": [],
			"stateMutability": "nonpayable",
			"type": "function"
		},
		{
			"inputs": [],
			"name": "toggleRecollateralize",
			"outputs": [],
			"stateMutability": "nonpayable",
			"type": "function"
		},
		{
			"inputs": [],
			"name": "toggleRedeeming",
			"outputs": [],
			"stateMutability": "nonpayable",
			"type": "function"
		},
		{
			"inputs": [],
			"name": "unclaimedPoolCollateral",
			"outputs": [
				{
					"internalType": "uint256",
					"name": "",
					"type": "uint256"
				}
			],
			"stateMutability": "view",
			"type": "function"
		},
		{
			"inputs": [],
			"name": "unclaimedPoolFXS",
			"outputs": [
				{
					"internalType": "uint256",
					"name": "",
					"type": "uint256"
				}
			],
			"stateMutability": "view",
			"type": "function"
		}
	]
}