{
	"data": {
		"bytecode": {
			"linkReferences": {},
			"object": "6108ea61004e600b8282823980515f1a607314610042577f4e487b71000000000000000000000000000000000000000000000000000000005f525f60045260245ffd5b305f52607381538281f3fe7300000000000000000000000000000000000000003014608060405260043610610060575f3560e01c806306058f4a146100645780630f41b452146100955780630ff24ec1146100c55780635413e192146100f5578063ce032cc114610125575b5f80fd5b61007e6004803603810190610079919061052a565b610155565b60405161008c9291906105b0565b60405180910390f35b6100af60048036038101906100aa91906105d7565b61024b565b6040516100bc9190610615565b60405180910390f35b6100df60048036038101906100da919061062e565b61027c565b6040516100ec9190610615565b60405180910390f35b61010f600480360381019061010a91906105d7565b6102c5565b60405161011c9190610615565b60405180910390f35b61013f600480360381019061013a91906105d7565b6102f6565b60405161014c9190610615565b60405180910390f35b5f805f610180620f4240610172898b61032790919063ffffffff16565b61039e90919063ffffffff16565b90505f6101ab8661019d620f42408a61032790919063ffffffff16565b61039e90919063ffffffff16565b90505f6101fa620f42406101ec6101cb858b61032790919063ffffffff16565b6101de8b8b61032790919063ffffffff16565b6103e790919063ffffffff16565b61039e90919063ffffffff16565b90505f81841161020c57839050610210565b8190505b6102388a61022a620f42408461032790919063ffffffff16565b61039e90919063ffffffff16565b8195509550505050509550959350505050565b5f61027483610266620f42408561032790919063ffffffff16565b61039e90919063ffffffff16565b905092915050565b5f806102a6620f4240610298868861032790919063ffffffff16565b61039e90919063ffffffff16565b90506102bb83826103e790919063ffffffff16565b9150509392505050565b5f6102ee620f42406102e0858561032790919063ffffffff16565b61039e90919063ffffffff16565b905092915050565b5f61031f620f4240610311858561032790919063ffffffff16565b61039e90919063ffffffff16565b905092915050565b5f808303610337575f9050610398565b5f828461034491906106ab565b90508284826103539190610719565b14610393576040517f08c379a000000000000000000000000000000000000000000000000000000000815260040161038a906107c9565b60405180910390fd5b809150505b92915050565b5f6103df83836040518060400160405280601a81526020017f536166654d6174683a206469766973696f6e206279207a65726f000000000000815250610430565b905092915050565b5f61042883836040518060400160405280601e81526020017f536166654d6174683a207375627472616374696f6e206f766572666c6f770000815250610491565b905092915050565b5f8083118290610476576040517f08c379a000000000000000000000000000000000000000000000000000000000815260040161046d9190610861565b60405180910390fd5b505f83856104849190610719565b9050809150509392505050565b5f8383111582906104d8576040517f08c379a00000000000000000000000000000000000000000000000000000000081526004016104cf9190610861565b60405180910390fd5b505f83856104e69190610881565b9050809150509392505050565b5f80fd5b5f819050919050565b610509816104f7565b8114610513575f80fd5b50565b5f8135905061052481610500565b92915050565b5f805f805f60a08688031215610543576105426104f3565b5b5f61055088828901610516565b955050602061056188828901610516565b945050604061057288828901610516565b935050606061058388828901610516565b925050608061059488828901610516565b9150509295509295909350565b6105aa816104f7565b82525050565b5f6040820190506105c35f8301856105a1565b6105d060208301846105a1565b9392505050565b5f80604083850312156105ed576105ec6104f3565b5b5f6105fa85828601610516565b925050602061060b85828601610516565b9150509250929050565b5f6020820190506106285f8301846105a1565b92915050565b5f805f60608486031215610645576106446104f3565b5b5f61065286828701610516565b935050602061066386828701610516565b925050604061067486828701610516565b9150509250925092565b7f4e487b71000000000000000000000000000000000000000000000000000000005f52601160045260245ffd5b5f6106b5826104f7565b91506106c0836104f7565b92508282026106ce816104f7565b915082820484148315176106e5576106e461067e565b5b5092915050565b7f4e487b71000000000000000000000000000000000000000000000000000000005f52601260045260245ffd5b5f610723826104f7565b915061072e836104f7565b92508261073e5761073d6106ec565b5b828204905092915050565b5f82825260208201905092915050565b7f536166654d6174683a206d756c7469706c69636174696f6e206f766572666c6f5f8201527f7700000000000000000000000000000000000000000000000000000000000000602082015250565b5f6107b3602183610749565b91506107be82610759565b604082019050919050565b5f6020820190508181035f8301526107e0816107a7565b9050919050565b5f81519050919050565b5f5b8381101561080e5780820151818401526020810190506107f3565b5f8484015250505050565b5f601f19601f8301169050919050565b5f610833826107e7565b61083d8185610749565b935061084d8185602086016107f1565b61085681610819565b840191505092915050565b5f6020820190508181035f8301526108798184610829565b905092915050565b5f61088b826104f7565b9150610896836104f7565b92508282039050818111156108ae576108ad61067e565b5b9291505056fea26469706673582212200d9257cd21b9e09bc23c8990880211aa91512baa4eca3ef11863acb5f46c205e64736f6c63430008150033",
			"opcodes": "PUSH2 0x8EA PUSH2 0x4E PUSH1 0xB DUP3 DUP3 DUP3 CODECOPY DUP1 MLOAD PUSH0 BYTE PUSH1 0x73 EQ PUSH2 0x42 JUMPI PUSH32 0x4E487B7100000000000000000000000000000000000000000000000000000000 PUSH0 MSTORE PUSH0 PUSH1 0x4 MSTORE PUSH1 0x24 PUSH0 REVERT JUMPDEST ADDRESS PUSH0 MSTORE PUSH1 0x73 DUP2 MSTORE8 DUP3 DUP2 RETURN INVALID PUSH20 0x0 ADDRESS EQ PUSH1 0x80 PUSH1 0x40 MSTORE PUSH1 0x4 CALLDATASIZE LT PUSH2 0x60 JUMPI PUSH0 CALLDATALOAD PUSH1 0xE0 SHR DUP1 PUSH4 0x6058F4A EQ PUSH2 0x64 JUMPI DUP1 PUSH4 0xF41B452 EQ PUSH2 0x95 JUMPI DUP1 PUSH4 0xFF24EC1 EQ PUSH2 0xC5 JUMPI DUP1 PUSH4 0x5413E192 EQ PUSH2 0xF5 JUMPI DUP1 PUSH4 0xCE032CC1 EQ PUSH2 0x125 JUMPI JUMPDEST PUSH0 DUP1 REVERT JUMPDEST PUSH2 0x7E PUSH1 0x4 DUP1 CALLDATASIZE SUB DUP2 ADD SWAP1 PUSH2 0x79 SWAP2 SWAP1 PUSH2 0x52A JUMP JUMPDEST PUSH2 0x155 JUMP JUMPDEST PUSH1 0x40 MLOAD PUSH2 0x8C SWAP3 SWAP2 SWAP1 PUSH2 0x5B0 JUMP JUMPDEST PUSH1 0x40 MLOAD DUP1 SWAP2 SUB SWAP1 RETURN JUMPDEST PUSH2 0xAF PUSH1 0x4 DUP1 CALLDATASIZE SUB DUP2 ADD SWAP1 PUSH2 0xAA SWAP2 SWAP1 PUSH2 0x5D7 JUMP JUMPDEST PUSH2 0x24B JUMP JUMPDEST PUSH1 0x40 MLOAD PUSH2 0xBC SWAP2 SWAP1 PUSH2 0x615 JUMP JUMPDEST PUSH1 0x40 MLOAD DUP1 SWAP2 SUB SWAP1 RETURN JUMPDEST PUSH2 0xDF PUSH1 0x4 DUP1 CALLDATASIZE SUB DUP2 ADD SWAP1 PUSH2 0xDA SWAP2 SWAP1 PUSH2 0x62E JUMP JUMPDEST PUSH2 0x27C JUMP JUMPDEST PUSH1 0x40 MLOAD PUSH2 0xEC SWAP2 SWAP1 PUSH2 0x615 JUMP JUMPDEST PUSH1 0x40 MLOAD DUP1 SWAP2 SUB SWAP1 RETURN JUMPDEST PUSH2 0x10F PUSH1 0x4 DUP1 CALLDATASIZE SUB DUP2 ADD SWAP1 PUSH2 0x10A SWAP2 SWAP1 PUSH2 0x5D7 JUMP JUMPDEST PUSH2 0x2C5 JUMP JUMPDEST PUSH1 0x40 MLOAD PUSH2 0x11C SWAP2 SWAP1 PUSH2 0x615 JUMP JUMPDEST PUSH1 0x40 MLOAD DUP1 SWAP2 SUB SWAP1 RETURN JUMPDEST PUSH2 0x13F PUSH1 0x4 DUP1 CALLDATASIZE SUB DUP2 ADD SWAP1 PUSH2 0x13A SWAP2 SWAP1 PUSH2 0x5D7 JUMP JUMPDEST PUSH2 0x2F6 JUMP JUMPDEST PUSH1 0x40 MLOAD PUSH2 0x14C SWAP2 SWAP1 PUSH2 0x615 JUMP JUMPDEST PUSH1 0x40 MLOAD DUP1 SWAP2 SUB SWAP1 RETURN JUMPDEST PUSH0 DUP1 PUSH0 PUSH2 0x180 PUSH3 0xF4240 PUSH2 0x172 DUP10 DUP12 PUSH2 0x327 SWAP1 SWAP2 SWAP1 PUSH4 0xFFFFFFFF AND JUMP JUMPDEST PUSH2 0x39E SWAP1 SWAP2 SWAP1 PUSH4 0xFFFFFFFF AND JUMP JUMPDEST SWAP1 POP PUSH0 PUSH2 0x1AB DUP7 PUSH2 0x19D PUSH3 0xF4240 DUP11 PUSH2 0x327 SWAP1 SWAP2 SWAP1 PUSH4 0xFFFFFFFF AND JUMP JUMPDEST PUSH2 0x39E SWAP1 SWAP2 SWAP1 PUSH4 0xFFFFFFFF AND JUMP JUMPDEST SWAP1 POP PUSH0 PUSH2 0x1FA PUSH3 0xF4240 PUSH2 0x1EC PUSH2 0x1CB DUP6 DUP12 PUSH2 0x327 SWAP1 SWAP2 SWAP1 PUSH4 0xFFFFFFFF AND JUMP JUMPDEST PUSH2 0x1DE DUP12 DUP12 PUSH2 0x327 SWAP1 SWAP2 SWAP1 PUSH4 0xFFFFFFFF AND JUMP JUMPDEST PUSH2 0x3E7 SWAP1 SWAP2 SWAP1 PUSH4 0xFFFFFFFF AND JUMP JUMPDEST PUSH2 0x39E SWAP1 SWAP2 SWAP1 PUSH4 0xFFFFFFFF AND JUMP JUMPDEST SWAP1 POP PUSH0 DUP2 DUP5 GT PUSH2 0x20C JUMPI DUP4 SWAP1 POP PUSH2 0x210 JUMP JUMPDEST DUP2 SWAP1 POP JUMPDEST PUSH2 0x238 DUP11 PUSH2 0x22A PUSH3 0xF4240 DUP5 PUSH2 0x327 SWAP1 SWAP2 SWAP1 PUSH4 0xFFFFFFFF AND JUMP JUMPDEST PUSH2 0x39E SWAP1 SWAP2 SWAP1 PUSH4 0xFFFFFFFF AND JUMP JUMPDEST DUP2 SWAP6 POP SWAP6 POP POP POP POP POP SWAP6 POP SWAP6 SWAP4 POP POP POP POP JUMP JUMPDEST PUSH0 PUSH2 0x274 DUP4 PUSH2 0x266 PUSH3 0xF4240 DUP6 PUSH2 0x327 SWAP1 SWAP2 SWAP1 PUSH4 0xFFFFFFFF AND JUMP JUMPDEST PUSH2 0x39E SWAP1 SWAP2 SWAP1 PUSH4 0xFFFFFFFF AND JUMP JUMPDEST SWAP1 POP SWAP3 SWAP2 POP POP JUMP JUMPDEST PUSH0 DUP1 PUSH2 0x2A6 PUSH3 0xF4240 PUSH2 0x298 DUP7 DUP9 PUSH2 0x327 SWAP1 SWAP2 SWAP1 PUSH4 0xFFFFFFFF AND JUMP JUMPDEST PUSH2 0x39E SWAP1 SWAP2 SWAP1 PUSH4 0xFFFFFFFF AND JUMP JUMPDEST SWAP1 POP PUSH2 0x2BB DUP4 DUP3 PUSH2 0x3E7 SWAP1 SWAP2 SWAP1 PUSH4 0xFFFFFFFF AND JUMP JUMPDEST SWAP2 POP POP SWAP4 SWAP3 POP POP POP JUMP JUMPDEST PUSH0 PUSH2 0x2EE PUSH3 0xF4240 PUSH2 0x2E0 DUP6 DUP6 PUSH2 0x327 SWAP1 SWAP2 SWAP1 PUSH4 0xFFFFFFFF AND JUMP JUMPDEST PUSH2 0x39E SWAP1 SWAP2 SWAP1 PUSH4 0xFFFFFFFF AND JUMP JUMPDEST SWAP1 POP SWAP3 SWAP2 POP POP JUMP JUMPDEST PUSH0 PUSH2 0x31F PUSH3 0xF4240 PUSH2 0x311 DUP6 DUP6 PUSH2 0x327 SWAP1 SWAP2 SWAP1 PUSH4 0xFFFFFFFF AND JUMP JUMPDEST PUSH2 0x39E SWAP1 SWAP2 SWAP1 PUSH4 0xFFFFFFFF AND JUMP JUMPDEST SWAP1 POP SWAP3 SWAP2 POP POP JUMP JUMPDEST PUSH0 DUP1 DUP4 SUB PUSH2 0x337 JUMPI PUSH0 SWAP1 POP PUSH2 0x398 JUMP JUMPDEST PUSH0 DUP3 DUP5 PUSH2 0x344 SWAP2 SWAP1 PUSH2 0x6AB JUMP JUMPDEST SWAP1 POP DUP3 DUP5 DUP3 PUSH2 0x353 SWAP2 SWAP1 PUSH2 0x719 JUMP JUMPDEST EQ PUSH2 0x393 JUMPI PUSH1 0x40 MLOAD PUSH32 0x8C379A000000000000000000000000000000000000000000000000000000000 DUP2 MSTORE PUSH1 0x4 ADD PUSH2 0x38A SWAP1 PUSH2 0x7C9 JUMP JUMPDEST PUSH1 0x40 MLOAD DUP1 SWAP2 SUB SWAP1 REVERT JUMPDEST DUP1 SWAP2 POP POP JUMPDEST SWAP3 SWAP2 POP POP JUMP JUMPDEST PUSH0 PUSH2 0x3DF DUP4 DUP4 PUSH1 0x40 MLOAD DUP1 PUSH1 0x40 ADD PUSH1 0x40 MSTORE DUP1 PUSH1 0x1A DUP2 MSTORE PUSH1 0x20 ADD PUSH32 0x536166654D6174683A206469766973696F6E206279207A65726F000000000000 DUP2 MSTORE POP PUSH2 0x430 JUMP JUMPDEST SWAP1 POP SWAP3 SWAP2 POP POP JUMP JUMPDEST PUSH0 PUSH2 0x428 DUP4 DUP4 PUSH1 0x40 MLOAD DUP1 PUSH1 0x40 ADD PUSH1 0x40 MSTORE DUP1 PUSH1 0x1E DUP2 MSTORE PUSH1 0x20 ADD PUSH32 0x536166654D6174683A207375627472616374696F6E206F766572666C6F770000 DUP2 MSTORE POP PUSH2 0x491 JUMP JUMPDEST SWAP1 POP SWAP3 SWAP2 POP POP JUMP JUMPDEST PUSH0 DUP1 DUP4 GT DUP3 SWAP1 PUSH2 0x476 JUMPI PUSH1 0x40 MLOAD PUSH32 0x8C379A000000000000000000000000000000000000000000000000000000000 DUP2 MSTORE PUSH1 0x4 ADD PUSH2 0x46D SWAP2 SWAP1 PUSH2 0x861 JUMP JUMPDEST PUSH1 0x40 MLOAD DUP1 SWAP2 SUB SWAP1 REVERT JUMPDEST POP PUSH0 DUP4 DUP6 PUSH2 0x484 SWAP2 SWAP1 PUSH2 0x719 JUMP JUMPDEST SWAP1 POP DUP1 SWAP2 POP POP SWAP4 SWAP3 POP POP POP JUMP JUMPDEST PUSH0 DUP4 DUP4 GT ISZERO DUP3 SWAP1 PUSH2 0x4D8 JUMPI PUSH1 0x40 MLOAD PUSH32 0x8C379A000000000000000000000000000000000000000000000000000000000 DUP2 MSTORE PUSH1 0x4 ADD PUSH2 0x4CF SWAP2 SWAP1 PUSH2 0x861 JUMP JUMPDEST PUSH1 0x40 MLOAD DUP1 SWAP2 SUB SWAP1 REVERT JUMPDEST POP PUSH0 DUP4 DUP6 PUSH2 0x4E6 SWAP2 SWAP1 PUSH2 0x881 JUMP JUMPDEST SWAP1 POP DUP1 SWAP2 POP POP SWAP4 SWAP3 POP POP POP JUMP JUMPDEST PUSH0 DUP1 REVERT JUMPDEST PUSH0 DUP2 SWAP1 POP SWAP2 SWAP1 POP JUMP JUMPDEST PUSH2 0x509 DUP2 PUSH2 0x4F7 JUMP JUMPDEST DUP2 EQ PUSH2 0x513 JUMPI PUSH0 DUP1 REVERT JUMPDEST POP JUMP JUMPDEST PUSH0 DUP2 CALLDATALOAD SWAP1 POP PUSH2 0x524 DUP2 PUSH2 0x500 JUMP JUMPDEST SWAP3 SWAP2 POP POP JUMP JUMPDEST PUSH0 DUP1 PUSH0 DUP1 PUSH0 PUSH1 0xA0 DUP7 DUP9 SUB SLT ISZERO PUSH2 0x543 JUMPI PUSH2 0x542 PUSH2 0x4F3 JUMP JUMPDEST JUMPDEST PUSH0 PUSH2 0x550 DUP9 DUP3 DUP10 ADD PUSH2 0x516 JUMP JUMPDEST SWAP6 POP POP PUSH1 0x20 PUSH2 0x561 DUP9 DUP3 DUP10 ADD PUSH2 0x516 JUMP JUMPDEST SWAP5 POP POP PUSH1 0x40 PUSH2 0x572 DUP9 DUP3 DUP10 ADD PUSH2 0x516 JUMP JUMPDEST SWAP4 POP POP PUSH1 0x60 PUSH2 0x583 DUP9 DUP3 DUP10 ADD PUSH2 0x516 JUMP JUMPDEST SWAP3 POP POP PUSH1 0x80 PUSH2 0x594 DUP9 DUP3 DUP10 ADD PUSH2 0x516 JUMP JUMPDEST SWAP2 POP POP SWAP3 SWAP6 POP SWAP3 SWAP6 SWAP1 SWAP4 POP JUMP JUMPDEST PUSH2 0x5AA DUP2 PUSH2 0x4F7 JUMP JUMPDEST DUP3 MSTORE POP POP JUMP JUMPDEST PUSH0 PUSH1 0x40 DUP3 ADD SWAP1 POP PUSH2 0x5C3 PUSH0 DUP4 ADD DUP6 PUSH2 0x5A1 JUMP JUMPDEST PUSH2 0x5D0 PUSH1 0x20 DUP4 ADD DUP5 PUSH2 0x5A1 JUMP JUMPDEST SWAP4 SWAP3 POP POP POP JUMP JUMPDEST PUSH0 DUP1 PUSH1 0x40 DUP4 DUP6 SUB SLT ISZERO PUSH2 0x5ED JUMPI PUSH2 0x5EC PUSH2 0x4F3 JUMP JUMPDEST JUMPDEST PUSH0 PUSH2 0x5FA DUP6 DUP3 DUP7 ADD PUSH2 0x516 JUMP JUMPDEST SWAP3 POP POP PUSH1 0x20 PUSH2 0x60B DUP6 DUP3 DUP7 ADD PUSH2 0x516 JUMP JUMPDEST SWAP2 POP POP SWAP3 POP SWAP3 SWAP1 POP JUMP JUMPDEST PUSH0 PUSH1 0x20 DUP3 ADD SWAP1 POP PUSH2 0x628 PUSH0 DUP4 ADD DUP5 PUSH2 0x5A1 JUMP JUMPDEST SWAP3 SWAP2 POP POP JUMP JUMPDEST PUSH0 DUP1 PUSH0 PUSH1 0x60 DUP5 DUP7 SUB SLT ISZERO PUSH2 0x645 JUMPI PUSH2 0x644 PUSH2 0x4F3 JUMP JUMPDEST JUMPDEST PUSH0 PUSH2 0x652 DUP7 DUP3 DUP8 ADD PUSH2 0x516 JUMP JUMPDEST SWAP4 POP POP PUSH1 0x20 PUSH2 0x663 DUP7 DUP3 DUP8 ADD PUSH2 0x516 JUMP JUMPDEST SWAP3 POP POP PUSH1 0x40 PUSH2 0x674 DUP7 DUP3 DUP8 ADD PUSH2 0x516 JUMP JUMPDEST SWAP2 POP POP SWAP3 POP SWAP3 POP SWAP3 JUMP JUMPDEST PUSH32 0x4E487B7100000000000000000000000000000000000000000000000000000000 PUSH0 MSTORE PUSH1 0x11 PUSH1 0x4 MSTORE PUSH1 0x24 PUSH0 REVERT JUMPDEST PUSH0 PUSH2 0x6B5 DUP3 PUSH2 0x4F7 JUMP JUMPDEST SWAP2 POP PUSH2 0x6C0 DUP4 PUSH2 0x4F7 JUMP JUMPDEST SWAP3 POP DUP3 DUP3 MUL PUSH2 0x6CE DUP2 PUSH2 0x4F7 JUMP JUMPDEST SWAP2 POP DUP3 DUP3 DIV DUP5 EQ DUP4 ISZERO OR PUSH2 0x6E5 JUMPI PUSH2 0x6E4 PUSH2 0x67E JUMP JUMPDEST JUMPDEST POP SWAP3 SWAP2 POP POP JUMP JUMPDEST PUSH32 0x4E487B7100000000000000000000000000000000000000000000000000000000 PUSH0 MSTORE PUSH1 0x12 PUSH1 0x4 MSTORE PUSH1 0x24 PUSH0 REVERT JUMPDEST PUSH0 PUSH2 0x723 DUP3 PUSH2 0x4F7 JUMP JUMPDEST SWAP2 POP PUSH2 0x72E DUP4 PUSH2 0x4F7 JUMP JUMPDEST SWAP3 POP DUP3 PUSH2 0x73E JUMPI PUSH2 0x73D PUSH2 0x6EC JUMP JUMPDEST JUMPDEST DUP3 DUP3 DIV SWAP1 POP SWAP3 SWAP2 POP POP JUMP JUMPDEST PUSH0 DUP3 DUP3 MSTORE PUSH1 0x20 DUP3 ADD SWAP1 POP SWAP3 SWAP2 POP POP JUMP JUMPDEST PUSH32 0x536166654D6174683A206D756C7469706C69636174696F6E206F766572666C6F PUSH0 DUP3 ADD MSTORE PUSH32 0x7700000000000000000000000000000000000000000000000000000000000000 PUSH1 0x20 DUP3 ADD MSTORE POP JUMP JUMPDEST PUSH0 PUSH2 0x7B3 PUSH1 0x21 DUP4 PUSH2 0x749 JUMP JUMPDEST SWAP2 POP PUSH2 0x7BE DUP3 PUSH2 0x759 JUMP JUMPDEST PUSH1 0x40 DUP3 ADD SWAP1 POP SWAP2 SWAP1 POP JUMP JUMPDEST PUSH0 PUSH1 0x20 DUP3 ADD SWAP1 POP DUP2 DUP2 SUB PUSH0 DUP4 ADD MSTORE PUSH2 0x7E0 DUP2 PUSH2 0x7A7 JUMP JUMPDEST SWAP1 POP SWAP2 SWAP1 POP JUMP JUMPDEST PUSH0 DUP2 MLOAD SWAP1 POP SWAP2 SWAP1 POP JUMP JUMPDEST PUSH0 JUMPDEST DUP4 DUP2 LT ISZERO PUSH2 0x80E JUMPI DUP1 DUP3 ADD MLOAD DUP2 DUP5 ADD MSTORE PUSH1 0x20 DUP2 ADD SWAP1 POP PUSH2 0x7F3 JUMP JUMPDEST PUSH0 DUP5 DUP5 ADD MSTORE POP POP POP POP JUMP JUMPDEST PUSH0 PUSH1 0x1F NOT PUSH1 0x1F DUP4 ADD AND SWAP1 POP SWAP2 SWAP1 POP JUMP JUMPDEST PUSH0 PUSH2 0x833 DUP3 PUSH2 0x7E7 JUMP JUMPDEST PUSH2 0x83D DUP2 DUP6 PUSH2 0x749 JUMP JUMPDEST SWAP4 POP PUSH2 0x84D DUP2 DUP6 PUSH1 0x20 DUP7 ADD PUSH2 0x7F1 JUMP JUMPDEST PUSH2 0x856 DUP2 PUSH2 0x819 JUMP JUMPDEST DUP5 ADD SWAP2 POP POP SWAP3 SWAP2 POP POP JUMP JUMPDEST PUSH0 PUSH1 0x20 DUP3 ADD SWAP1 POP DUP2 DUP2 SUB PUSH0 DUP4 ADD MSTORE PUSH2 0x879 DUP2 DUP5 PUSH2 0x829 JUMP JUMPDEST SWAP1 POP SWAP3 SWAP2 POP POP JUMP JUMPDEST PUSH0 PUSH2 0x88B DUP3 PUSH2 0x4F7 JUMP JUMPDEST SWAP2 POP PUSH2 0x896 DUP4 PUSH2 0x4F7 JUMP JUMPDEST SWAP3 POP DUP3 DUP3 SUB SWAP1 POP DUP2 DUP2 GT ISZERO PUSH2 0x8AE JUMPI PUSH2 0x8AD PUSH2 0x67E JUMP JUMPDEST JUMPDEST SWAP3 SWAP2 POP POP JUMP INVALID LOG2 PUSH5 0x6970667358 0x22 SLT KECCAK256 0xD SWAP3 JUMPI 0xCD 0x21 0xB9 0xE0 SWAP12 0xC2 EXTCODECOPY DUP10 SWAP1 DUP9 MUL GT 0xAA SWAP2 MLOAD 0x2B 0xAA 0x4E 0xCA RETURNDATACOPY CALL XOR PUSH4 0xACB5F46C KECCAK256 0x5E PUSH5 0x736F6C6343 STOP ADDMOD ISZERO STOP CALLER "
		},
		"gasEstimates": {
			"creation": {
				"codeDepositCost": "456400",
				"executionCost": "516",
				"totalCost": "456916"
			},
			"external": {
				"calcMint1t1FRAX(uint256,uint256)": "infinite",
				"calcMintAlgorithmicFRAX(uint256,uint256)": "infinite",
				"calcRecollateralizeFRAXInner(uint256,uint256,uint256,uint256,uint256)": "infinite",
				"calcRedeem1t1FRAX(uint256,uint256)": "infinite",
				"recollateralizeAmount(uint256,uint256,uint256)": "infinite"
			},
			"internal": {
				"calcBuyBackFXS(struct FraxPoolLibrary.BuybackFXS_Params memory)": "infinite",
				"calcMintFractionalFRAX(struct FraxPoolLibrary.MintFF_Params memory)": "infinite"
			}
		},
		"methodIdentifiers": {
			"calcMint1t1FRAX(uint256,uint256)": "5413e192",
			"calcMintAlgorithmicFRAX(uint256,uint256)": "ce032cc1",
			"calcRecollateralizeFRAXInner(uint256,uint256,uint256,uint256,uint256)": "06058f4a",
			"calcRedeem1t1FRAX(uint256,uint256)": "0f41b452",
			"recollateralizeAmount(uint256,uint256,uint256)": "0ff24ec1"
		}
	},
	"abi": [
		{
			"inputs": [
				{
					"internalType": "uint256",
					"name": "col_price",
					"type": "uint256"
				},
				{
					"internalType": "uint256",
					"name": "collateral_amount_d18",
					"type": "uint256"
				}
			],
			"name": "calcMint1t1FRAX",
			"outputs": [
				{
					"internalType": "uint256",
					"name": "",
					"type": "uint256"
				}
			],
			"stateMutability": "pure",
			"type": "function"
		},
		{
			"inputs": [
				{
					"internalType": "uint256",
					"name": "fxs_price_usd",
					"type": "uint256"
				},
				{
					"internalType": "uint256",
					"name": "fxs_amount_d18",
					"type": "uint256"
				}
			],
			"name": "calcMintAlgorithmicFRAX",
			"outputs": [
				{
					"internalType": "uint256",
					"name": "",
					"type": "uint256"
				}
			],
			"stateMutability": "pure",
			"type": "function"
		},
		{
			"inputs": [
				{
					"internalType": "uint256",
					"name": "collateral_amount",
					"type": "uint256"
				},
				{
					"internalType": "uint256",
					"name": "col_price",
					"type": "uint256"
				},
				{
					"internalType": "uint256",
					"name": "global_collat_value",
					"type": "uint256"
				},
				{
					"internalType": "uint256",
					"name": "frax_total_supply",
					"type": "uint256"
				},
				{
					"internalType": "uint256",
					"name": "global_collateral_ratio",
					"type": "uint256"
				}
			],
			"name": "calcRecollateralizeFRAXInner",
			"outputs": [
				{
					"internalType": "uint256",
					"name": "",
					"type": "uint256"
				},
				{
					"internalType": "uint256",
					"name": "",
					"type": "uint256"
				}
			],
			"stateMutability": "pure",
			"type": "function"
		},
		{
			"inputs": [
				{
					"internalType": "uint256",
					"name": "col_price_usd",
					"type": "uint256"
				},
				{
					"internalType": "uint256",
					"name": "FRAX_amount",
					"type": "uint256"
				}
			],
			"name": "calcRedeem1t1FRAX",
			"outputs": [
				{
					"internalType": "uint256",
					"name": "",
					"type": "uint256"
				}
			],
			"stateMutability": "pure",
			"type": "function"
		},
		{
			"inputs": [
				{
					"internalType": "uint256",
					"name": "total_supply",
					"type": "uint256"
				},
				{
					"internalType": "uint256",
					"name": "global_collateral_ratio",
					"type": "uint256"
				},
				{
					"internalType": "uint256",
					"name": "global_collat_value",
					"type": "uint256"
				}
			],
			"name": "recollateralizeAmount",
			"outputs": [
				{
					"internalType": "uint256",
					"name": "",
					"type": "uint256"
				}
			],
			"stateMutability": "pure",
			"type": "function"
		}
	]
}