{
	"data": {
		"bytecode": {
			"linkReferences": {},
			"object": "608060405273c40347e09993fcb4e32da3741b16d066bd829d6160045f6101000a81548173ffffffffffffffffffffffffffffffffffffffff021916908373ffffffffffffffffffffffffffffffffffffffff16021790555073c99394722325cccc552b4bc62e8a0555238f59eb60055f6101000a81548173ffffffffffffffffffffffffffffffffffffffff021916908373ffffffffffffffffffffffffffffffffffffffff16021790555073a3e8204f7b6ab8a7e8234fc8d0e275f637cdccf960075f6101000a81548173ffffffffffffffffffffffffffffffffffffffff021916908373ffffffffffffffffffffffffffffffffffffffff160217905550737da2eb962f2b735b28e8e7ff218b1abdce53ac7c60085f6101000a81548173ffffffffffffffffffffffffffffffffffffffff021916908373ffffffffffffffffffffffffffffffffffffffff16021790555073551717d0d483d38a302fa4e48571450476597ef660095f6101000a81548173ffffffffffffffffffffffffffffffffffffffff021916908373ffffffffffffffffffffffffffffffffffffffff1602179055506002601a55620f1b30601b55620f6950601c55683635c9adc5dea00000601e55683635c9adc5dea00000602055348015620001e1575f80fd5b506040516200965638038062009656833981810160405281019062000207919062000f83565b865f73ffffffffffffffffffffffffffffffffffffffff168173ffffffffffffffffffffffffffffffffffffffff160362000279576040517f08c379a00000000000000000000000000000000000000000000000000000000081526004016200027090620010ec565b60405180910390fd5b805f806101000a81548173ffffffffffffffffffffffffffffffffffffffff021916908373ffffffffffffffffffffffffffffffffffffffff1602179055507fb532073b38c83145e3e5135377a08bf9aab55bc0fd7c1179cd4fb995d2a5159c5f82604051620002eb9291906200111d565b60405180910390a1508460025f6101000a81548173ffffffffffffffffffffffffffffffffffffffff021916908373ffffffffffffffffffffffffffffffffffffffff1602179055508560035f6101000a81548173ffffffffffffffffffffffffffffffffffffffff021916908373ffffffffffffffffffffffffffffffffffffffff16021790555083600d5f6101000a81548173ffffffffffffffffffffffffffffffffffffffff021916908373ffffffffffffffffffffffffffffffffffffffff16021790555082600e9080519060200190620003cc92919062000ba1565b505f5b8351811015620008f4578060135f868481518110620003f357620003f262001148565b5b602002602001015173ffffffffffffffffffffffffffffffffffffffff1673ffffffffffffffffffffffffffffffffffffffff1681526020019081526020015f20819055505f60145f86848151811062000452576200045162001148565b5b602002602001015173ffffffffffffffffffffffffffffffffffffffff1673ffffffffffffffffffffffffffffffffffffffff1681526020019081526020015f205f6101000a81548160ff021916908315150217905550601062000550858381518110620004c557620004c462001148565b5b602002602001015173ffffffffffffffffffffffffffffffffffffffff1663313ce5676040518163ffffffff1660e01b8152600401602060405180830381865afa15801562000516573d5f803e3d5ffd5b505050506040513d601f19601f820116820180604052508101906200053c9190620011b0565b60ff16601262000ae960201b90919060201c565b908060018154018082558091505060019003905f5260205f20015f9091909190915055600f8482815181106200058b576200058a62001148565b5b602002602001015173ffffffffffffffffffffffffffffffffffffffff166395d89b416040518163ffffffff1660e01b81526004015f60405180830381865afa158015620005db573d5f803e3d5ffd5b505050506040513d5f823e3d601f19601f82011682018060405250810190620006059190620012bf565b908060018154018082558091505060019003905f5260205f20015f9091909190915090816200063591906200153c565b5060175f908060018154018082558091505060019003905f5260205f20015f90919091909150556012620f4240908060018154018082558091505060019003905f5260205f20015f90919091909150556021825f815181106200069d576200069c62001148565b5b6020026020010151908060018154018082558091505060019003905f5260205f20015f9091909190915055602282600181518110620006e157620006e062001148565b5b6020026020010151908060018154018082558091505060019003905f5260205f20015f909190919091505560238260028151811062000725576200072462001148565b5b6020026020010151908060018154018082558091505060019003905f5260205f20015f909190919091505560248260038151811062000769576200076862001148565b5b6020026020010151908060018154018082558091505060019003905f5260205f20015f909190919091505560265f908060018154018082558091505060019003905f5260205f2090602091828204019190069091909190916101000a81548160ff02191690831515021790555060275f908060018154018082558091505060019003905f5260205f2090602091828204019190069091909190916101000a81548160ff02191690831515021790555060285f908060018154018082558091505060019003905f5260205f2090602091828204019190069091909190916101000a81548160ff02191690831515021790555060295f908060018154018082558091505060019003905f5260205f2090602091828204019190069091909190916101000a81548160ff021916908315150217905550602a5f908060018154018082558091505060019003905f5260205f2090602091828204019190069091909190916101000a81548160ff0219169083151502179055508080620008eb906200164d565b915050620003cf565b5081601190805190602001906200090d92919062000c2d565b5060075f9054906101000a900473ffffffffffffffffffffffffffffffffffffffff1673ffffffffffffffffffffffffffffffffffffffff1663313ce5676040518163ffffffff1660e01b8152600401602060405180830381865afa15801562000979573d5f803e3d5ffd5b505050506040513d601f19601f820116820180604052508101906200099f9190620011b0565b60ff16600a8190555060085f9054906101000a900473ffffffffffffffffffffffffffffffffffffffff1673ffffffffffffffffffffffffffffffffffffffff1663313ce5676040518163ffffffff1660e01b8152600401602060405180830381865afa15801562000a13573d5f803e3d5ffd5b505050506040513d601f19601f8201168201806040525081019062000a399190620011b0565b60ff16600b8190555060095f9054906101000a900473ffffffffffffffffffffffffffffffffffffffff1673ffffffffffffffffffffffffffffffffffffffff1663313ce5676040518163ffffffff1660e01b8152600401602060405180830381865afa15801562000aad573d5f803e3d5ffd5b505050506040513d601f19601f8201168201806040525081019062000ad39190620011b0565b60ff16600c819055505050505050505062001735565b5f62000b3283836040518060400160405280601e81526020017f536166654d6174683a207375627472616374696f6e206f766572666c6f77000081525062000b3a60201b60201c565b905092915050565b5f83831115829062000b84576040517f08c379a000000000000000000000000000000000000000000000000000000000815260040162000b7b9190620016d9565b60405180910390fd5b505f838562000b949190620016fb565b9050809150509392505050565b828054828255905f5260205f2090810192821562000c1a579160200282015b8281111562000c19578251825f6101000a81548173ffffffffffffffffffffffffffffffffffffffff021916908373ffffffffffffffffffffffffffffffffffffffff1602179055509160200191906001019062000bc0565b5b50905062000c29919062000c7d565b5090565b828054828255905f5260205f2090810192821562000c6a579160200282015b8281111562000c6957825182559160200191906001019062000c4c565b5b50905062000c79919062000c7d565b5090565b5b8082111562000c96575f815f90555060010162000c7e565b5090565b5f604051905090565b5f80fd5b5f80fd5b5f73ffffffffffffffffffffffffffffffffffffffff82169050919050565b5f62000cd68262000cab565b9050919050565b62000ce88162000cca565b811462000cf3575f80fd5b50565b5f8151905062000d068162000cdd565b92915050565b5f80fd5b5f601f19601f8301169050919050565b7f4e487b71000000000000000000000000000000000000000000000000000000005f52604160045260245ffd5b62000d588262000d10565b810181811067ffffffffffffffff8211171562000d7a5762000d7962000d20565b5b80604052505050565b5f62000d8e62000c9a565b905062000d9c828262000d4d565b919050565b5f67ffffffffffffffff82111562000dbe5762000dbd62000d20565b5b602082029050602081019050919050565b5f80fd5b5f62000de962000de38462000da1565b62000d83565b9050808382526020820190506020840283018581111562000e0f5762000e0e62000dcf565b5b835b8181101562000e3c578062000e27888262000cf6565b84526020840193505060208101905062000e11565b5050509392505050565b5f82601f83011262000e5d5762000e5c62000d0c565b5b815162000e6f84826020860162000dd3565b91505092915050565b5f67ffffffffffffffff82111562000e955762000e9462000d20565b5b602082029050602081019050919050565b5f819050919050565b62000eba8162000ea6565b811462000ec5575f80fd5b50565b5f8151905062000ed88162000eaf565b92915050565b5f62000ef462000eee8462000e78565b62000d83565b9050808382526020820190506020840283018581111562000f1a5762000f1962000dcf565b5b835b8181101562000f47578062000f32888262000ec8565b84526020840193505060208101905062000f1c565b5050509392505050565b5f82601f83011262000f685762000f6762000d0c565b5b815162000f7a84826020860162000ede565b91505092915050565b5f805f805f805f60e0888a03121562000fa15762000fa062000ca3565b5b5f62000fb08a828b0162000cf6565b975050602062000fc38a828b0162000cf6565b965050604062000fd68a828b0162000cf6565b955050606062000fe98a828b0162000cf6565b945050608088015167ffffffffffffffff8111156200100d576200100c62000ca7565b5b6200101b8a828b0162000e46565b93505060a088015167ffffffffffffffff8111156200103f576200103e62000ca7565b5b6200104d8a828b0162000f51565b92505060c088015167ffffffffffffffff81111562001071576200107062000ca7565b5b6200107f8a828b0162000f51565b91505092959891949750929550565b5f82825260208201905092915050565b7f4f776e657220616464726573732063616e6e6f742062652030000000000000005f82015250565b5f620010d46019836200108e565b9150620010e1826200109e565b602082019050919050565b5f6020820190508181035f8301526200110581620010c6565b9050919050565b620011178162000cca565b82525050565b5f604082019050620011325f8301856200110c565b6200114160208301846200110c565b9392505050565b7f4e487b71000000000000000000000000000000000000000000000000000000005f52603260045260245ffd5b5f60ff82169050919050565b6200118c8162001175565b811462001197575f80fd5b50565b5f81519050620011aa8162001181565b92915050565b5f60208284031215620011c857620011c762000ca3565b5b5f620011d7848285016200119a565b91505092915050565b5f80fd5b5f67ffffffffffffffff82111562001201576200120062000d20565b5b6200120c8262000d10565b9050602081019050919050565b5f5b83811015620012385780820151818401526020810190506200121b565b5f8484015250505050565b5f620012596200125384620011e4565b62000d83565b905082815260208101848484011115620012785762001277620011e0565b5b6200128584828562001219565b509392505050565b5f82601f830112620012a457620012a362000d0c565b5b8151620012b684826020860162001243565b91505092915050565b5f60208284031215620012d757620012d662000ca3565b5b5f82015167ffffffffffffffff811115620012f757620012f662000ca7565b5b62001305848285016200128d565b91505092915050565b5f81519050919050565b7f4e487b71000000000000000000000000000000000000000000000000000000005f52602260045260245ffd5b5f60028204905060018216806200135d57607f821691505b60208210810362001373576200137262001318565b5b50919050565b5f819050815f5260205f209050919050565b5f6020601f8301049050919050565b5f82821b905092915050565b5f60088302620013d77fffffffffffffffffffffffffffffffffffffffffffffffffffffffffffffffff826200139a565b620013e386836200139a565b95508019841693508086168417925050509392505050565b5f819050919050565b5f620014246200141e620014188462000ea6565b620013fb565b62000ea6565b9050919050565b5f819050919050565b6200143f8362001404565b620014576200144e826200142b565b848454620013a6565b825550505050565b5f90565b6200146d6200145f565b6200147a81848462001434565b505050565b5b81811015620014a157620014955f8262001463565b60018101905062001480565b5050565b601f821115620014f057620014ba8162001379565b620014c5846200138b565b81016020851015620014d5578190505b620014ed620014e4856200138b565b8301826200147f565b50505b505050565b5f82821c905092915050565b5f620015125f1984600802620014f5565b1980831691505092915050565b5f6200152c838362001501565b9150826002028217905092915050565b62001547826200130e565b67ffffffffffffffff81111562001563576200156262000d20565b5b6200156f825462001345565b6200157c828285620014a5565b5f60209050601f831160018114620015b2575f84156200159d578287015190505b620015a985826200151f565b86555062001618565b601f198416620015c28662001379565b5f5b82811015620015eb57848901518255600182019150602085019450602081019050620015c4565b868310156200160b578489015162001607601f89168262001501565b8355505b6001600288020188555050505b505050505050565b7f4e487b71000000000000000000000000000000000000000000000000000000005f52601160045260245ffd5b5f620016598262000ea6565b91507fffffffffffffffffffffffffffffffffffffffffffffffffffffffffffffffff82036200168e576200168d62001620565b5b600182019050919050565b5f620016a5826200130e565b620016b181856200108e565b9350620016c381856020860162001219565b620016ce8162000d10565b840191505092915050565b5f6020820190508181035f830152620016f3818462001699565b905092915050565b5f620017078262000ea6565b9150620017148362000ea6565b92508282039050818111156200172f576200172e62001620565b5b92915050565b617f1380620017435f395ff3fe608060405234801561000f575f80fd5b50600436106103b8575f3560e01c806379ba5097116101f2578063bdacb30311610118578063e1d35b7a116100ab578063edb493e51161007a578063edb493e514610be8578063ee88fc9114610c06578063f4d9308514610c24578063ff9f4fb514610c42576103b8565b8063e1d35b7a14610b60578063e714df3114610b90578063eb99aff814610bae578063ecfd1a9e14610bcc576103b8565b8063db1e5c9e116100e7578063db1e5c9e14610ac6578063dc6663c714610af6578063dd7def7314610b14578063df95c3a714610b44576103b8565b8063bdacb30314610a2e578063be3449d414610a4a578063c76417d714610a7a578063cb668d0214610aaa576103b8565b80639aae55a711610190578063af77bcbf1161015f578063af77bcbf14610994578063b7db6482146109b0578063b938af74146109e2578063bbfadd6c14610a12576103b8565b80639aae55a7146108fb5780639d202bf814610917578063abae2c4c14610948578063aeaf4f0414610978576103b8565b806380e74d97116101cc57806380e74d971461087157806381f17467146108a157806388e5a491146108bf5780638da5cb5b146108dd576103b8565b806379ba5097146108165780637c4a27e5146108205780637ce6112b14610853576103b8565b8063350b5c64116102e257806350e82c7d116102755780635d447b31116102445780635d447b311461076a5780636283d27e1461079a578063694677d3146107ca5780637853c888146107fa576103b8565b806350e82c7d146106bc578063510641eb146106ec57806353a47bb71461071c57806358f45c3c1461073a576103b8565b8063444f17dc116102b1578063444f17dc146106205780634bb4a730146106505780634c26203c146106805780634c6349341461069e576103b8565b8063350b5c6414610598578063373453f4146105c85780633a2b17a6146105e6578063403f373114610604576103b8565b8063199491821161035a57806327803dce1161032957806327803dce146104fe578063308e31571461052e578063310149da1461055e5780633323db171461057c576103b8565b806319949182146104885780631b3fb85c146104a45780631fc9a9c2146104c257806320a4cd57146104e0576103b8565b80630f46402c116103965780630f46402c1461041257806315128425146104305780631627540c1461044e57806317284c941461046a576103b8565b806301728b5d146103bc57806304a66b48146103da57806309d32681146103f6575b5f80fd5b6103c4610c60565b6040516103d19190616251565b60405180910390f35b6103f460048036038101906103ef9190616298565b610c74565b005b610410600480360381019061040b9190616369565b610e22565b005b61041a6111c9565b6040516104279190616251565b60405180910390f35b610438611317565b6040516104459190616251565b60405180910390f35b610468600480360381019061046391906163b9565b61131d565b005b610472611424565b60405161047f9190616251565b60405180910390f35b6104a2600480360381019061049d91906163e4565b6114de565b005b6104ac61160d565b6040516104b99190616251565b60405180910390f35b6104ca611855565b6040516104d79190616251565b60405180910390f35b6104e8611aa5565b6040516104f5919061647d565b60405180910390f35b61051860048036038101906105139190616496565b611aca565b6040516105259190616251565b60405180910390f35b61054860048036038101906105439190616496565b611aea565b6040516105559190616251565b60405180910390f35b610566611bd3565b6040516105739190616251565b60405180910390f35b610596600480360381019061059191906163b9565b611bd9565b005b6105b260048036038101906105ad91906164c1565b611d4b565b6040516105bf9190616251565b60405180910390f35b6105d0611d6b565b6040516105dd919061651f565b60405180910390f35b6105ee611d90565b6040516105fb919061647d565b60405180910390f35b61061e600480360381019061061991906163b9565b611db5565b005b61063a600480360381019061063591906163b9565b611f13565b6040516106479190616552565b60405180910390f35b61066a60048036038101906106659190616496565b611f30565b604051610677919061657a565b60405180910390f35b610688611f6b565b6040516106959190616251565b60405180910390f35b6106a6611f71565b6040516106b39190616251565b60405180910390f35b6106d660048036038101906106d19190616593565b611f77565b6040516106e39190616251565b60405180910390f35b61070660048036038101906107019190616496565b6124b8565b6040516107139190616251565b60405180910390f35b6107246124cd565b604051610731919061657a565b60405180910390f35b610754600480360381019061074f9190616496565b6124f2565b604051610761919061666d565b60405180910390f35b610784600480360381019061077f91906163e4565b612598565b6040516107919190616251565b60405180910390f35b6107b460048036038101906107af9190616496565b61261f565b6040516107c19190616251565b60405180910390f35b6107e460048036038101906107df91906163b9565b61263f565b6040516107f19190616857565b60405180910390f35b610814600480360381019061080f91906163e4565b612a49565b005b61081e612b78565b005b61083a600480360381019061083591906168a1565b612d22565b60405161084a949392919061692a565b60405180910390f35b61085b61348f565b604051610868919061657a565b60405180910390f35b61088b600480360381019061088691906163b9565b6134b4565b6040516108989190616552565b60405180910390f35b6108a96134d1565b6040516108b69190616a15565b60405180910390f35b6108c761355c565b6040516108d49190616251565b60405180910390f35b6108e56136aa565b6040516108f2919061657a565b60405180910390f35b61091560048036038101906109109190616496565b6136cd565b005b610931600480360381019061092c9190616496565b61394b565b60405161093f929190616a35565b60405180910390f35b610962600480360381019061095d91906163b9565b613d10565b60405161096f9190616251565b60405180910390f35b610992600480360381019061098d9190616496565b613d25565b005b6109ae60048036038101906109a991906163e4565b613f6c565b005b6109ca60048036038101906109c59190616a5c565b6140ae565b6040516109d993929190616ac0565b60405180910390f35b6109fc60048036038101906109f79190616496565b614a72565b604051610a099190616251565b60405180910390f35b610a2c6004803603810190610a279190616b2b565b614a92565b005b610a486004803603810190610a4391906163b9565b614e7f565b005b610a646004803603810190610a5f9190616593565b614fdd565b604051610a719190616251565b60405180910390f35b610a946004803603810190610a8f91906163b9565b615558565b604051610aa19190616251565b60405180910390f35b610ac46004803603810190610abf91906163b9565b61556d565b005b610ae06004803603810190610adb91906163b9565b615802565b604051610aed9190616251565b60405180910390f35b610afe615817565b604051610b0b919061657a565b60405180910390f35b610b2e6004803603810190610b299190616496565b61583c565b604051610b3b9190616251565b60405180910390f35b610b5e6004803603810190610b5991906163e4565b61585c565b005b610b7a6004803603810190610b759190616496565b61598b565b604051610b879190616251565b60405180910390f35b610b986159a0565b604051610ba59190616251565b60405180910390f35b610bb66159a6565b604051610bc3919061647d565b60405180910390f35b610be66004803603810190610be191906163e4565b6159cb565b005b610bf0615b0d565b604051610bfd9190616251565b60405180910390f35b610c0e615b81565b604051610c1b9190616251565b60405180910390f35b610c2c615ccf565b604051610c399190616251565b60405180910390f35b610c4a615cd5565b604051610c579190616251565b60405180910390f35b5f610e1042610c6f9190616bc3565b905090565b60025f9054906101000a900473ffffffffffffffffffffffffffffffffffffffff1673ffffffffffffffffffffffffffffffffffffffff163373ffffffffffffffffffffffffffffffffffffffff161480610d1957505f8054906101000a900473ffffffffffffffffffffffffffffffffffffffff1673ffffffffffffffffffffffffffffffffffffffff163373ffffffffffffffffffffffffffffffffffffffff16145b610d58576040517f08c379a0000000000000000000000000000000000000000000000000000000008152600401610d4f90616c3d565b60405180910390fd5b8360218681548110610d6d57610d6c616c5b565b5b905f5260205f2001819055508260228681548110610d8e57610d8d616c5b565b5b905f5260205f2001819055508160238681548110610daf57610dae616c5b565b5b905f5260205f2001819055508060248681548110610dd057610dcf616c5b565b5b905f5260205f2001819055507f8a2460aa8ca12123c8d9fb3e2835543ba312bc12b99cc8a934c213f17cc23ba08585858585604051610e13959493929190616c88565b60405180910390a15050505050565b60025f9054906101000a900473ffffffffffffffffffffffffffffffffffffffff1673ffffffffffffffffffffffffffffffffffffffff163373ffffffffffffffffffffffffffffffffffffffff161480610ec757505f8054906101000a900473ffffffffffffffffffffffffffffffffffffffff1673ffffffffffffffffffffffffffffffffffffffff163373ffffffffffffffffffffffffffffffffffffffff16145b610f06576040517f08c379a0000000000000000000000000000000000000000000000000000000008152600401610efd90616c3d565b60405180910390fd5b8260075f6101000a81548173ffffffffffffffffffffffffffffffffffffffff021916908373ffffffffffffffffffffffffffffffffffffffff1602179055508160085f6101000a81548173ffffffffffffffffffffffffffffffffffffffff021916908373ffffffffffffffffffffffffffffffffffffffff1602179055508060095f6101000a81548173ffffffffffffffffffffffffffffffffffffffff021916908373ffffffffffffffffffffffffffffffffffffffff16021790555060075f9054906101000a900473ffffffffffffffffffffffffffffffffffffffff1673ffffffffffffffffffffffffffffffffffffffff1663313ce5676040518163ffffffff1660e01b8152600401602060405180830381865afa158015611030573d5f803e3d5ffd5b505050506040513d601f19601f820116820180604052508101906110549190616ced565b60ff16600a8190555060085f9054906101000a900473ffffffffffffffffffffffffffffffffffffffff1673ffffffffffffffffffffffffffffffffffffffff1663313ce5676040518163ffffffff1660e01b8152600401602060405180830381865afa1580156110c7573d5f803e3d5ffd5b505050506040513d601f19601f820116820180604052508101906110eb9190616ced565b60ff16600b8190555060095f9054906101000a900473ffffffffffffffffffffffffffffffffffffffff1673ffffffffffffffffffffffffffffffffffffffff1663313ce5676040518163ffffffff1660e01b8152600401602060405180830381865afa15801561115e573d5f803e3d5ffd5b505050506040513d601f19601f820116820180604052508101906111829190616ced565b60ff16600c819055507f4073b32a832187a54e475fc8fff20266eedffb63596adf4c0b8a2966e2b0025d83836040516111bc929190616d18565b60405180910390a1505050565b5f805f805f60095f9054906101000a900473ffffffffffffffffffffffffffffffffffffffff1673ffffffffffffffffffffffffffffffffffffffff1663feaf968c6040518163ffffffff1660e01b815260040160a060405180830381865afa158015611238573d5f803e3d5ffd5b505050506040513d601f19601f8201168201806040525081019061125c9190616dc5565b9450945050935093505f831215801561127557505f8214155b801561129957508369ffffffffffffffffffff168169ffffffffffffffffffff1610155b6112d8576040517f08c379a00000000000000000000000000000000000000000000000000000000081526004016112cf90616e86565b60405180910390fd5b61130e600c54600a6112ea9190616fd3565b611300620f424086615cdb90919063ffffffff16565b615d5290919063ffffffff16565b94505050505090565b601a5481565b5f8054906101000a900473ffffffffffffffffffffffffffffffffffffffff1673ffffffffffffffffffffffffffffffffffffffff163373ffffffffffffffffffffffffffffffffffffffff16146113aa576040517f08c379a00000000000000000000000000000000000000000000000000000000081526004016113a19061708d565b60405180910390fd5b8060015f6101000a81548173ffffffffffffffffffffffffffffffffffffffff021916908373ffffffffffffffffffffffffffffffffffffffff1602179055507f906a1c6bd7e3091ea86693dd029a831c19049ce77f1dce2ce0bab1cacbabce2281604051611419919061657a565b60405180910390a150565b5f805b600e805490508110156114da576114ba620f42406114ac6012848154811061145257611451616c5b565b5b905f5260205f20015461149e6010868154811061147257611471616c5b565b5b905f5260205f200154600a6114879190616fd3565b61149087611aea565b615cdb90919063ffffffff16565b615cdb90919063ffffffff16565b615d5290919063ffffffff16565b826114c591906170ab565b915080806114d2906170de565b915050611427565b5090565b60025f9054906101000a900473ffffffffffffffffffffffffffffffffffffffff1673ffffffffffffffffffffffffffffffffffffffff163373ffffffffffffffffffffffffffffffffffffffff16148061158357505f8054906101000a900473ffffffffffffffffffffffffffffffffffffffff1673ffffffffffffffffffffffffffffffffffffffff163373ffffffffffffffffffffffffffffffffffffffff16145b6115c2576040517f08c379a00000000000000000000000000000000000000000000000000000000081526004016115b990616c3d565b60405180910390fd5b81601e81905550806020819055507f78814d12e3d8697f77c618abed8124ead9c9ec6d16952ee98a11c8dc2968d3c48282604051611601929190616a35565b60405180910390a15050565b5f8060045f9054906101000a900473ffffffffffffffffffffffffffffffffffffffff1673ffffffffffffffffffffffffffffffffffffffff166318160ddd6040518163ffffffff1660e01b8152600401602060405180830381865afa158015611679573d5f803e3d5ffd5b505050506040513d601f19601f8201168201806040525081019061169d9190617125565b90505f61175582611747620f424060045f9054906101000a900473ffffffffffffffffffffffffffffffffffffffff1673ffffffffffffffffffffffffffffffffffffffff1663d2d97b066040518163ffffffff1660e01b8152600401602060405180830381865afa158015611715573d5f803e3d5ffd5b505050506040513d601f19601f820116820180604052508101906117399190617125565b615cdb90919063ffffffff16565b615d5290919063ffffffff16565b90505f6117f88360045f9054906101000a900473ffffffffffffffffffffffffffffffffffffffff1673ffffffffffffffffffffffffffffffffffffffff16632eb9771b6040518163ffffffff1660e01b8152600401602060405180830381865afa1580156117c6573d5f803e3d5ffd5b505050506040513d601f19601f820116820180604052508101906117ea9190617125565b615cdb90919063ffffffff16565b90505f61180e8484615cdb90919063ffffffff16565b9050818110611823575f945050505050611852565b61184b620f424061183d8385615d9b90919063ffffffff16565b615d5290919063ffffffff16565b9450505050505b90565b5f8060045f9054906101000a900473ffffffffffffffffffffffffffffffffffffffff1673ffffffffffffffffffffffffffffffffffffffff166318160ddd6040518163ffffffff1660e01b8152600401602060405180830381865afa1580156118c1573d5f803e3d5ffd5b505050506040513d601f19601f820116820180604052508101906118e59190617125565b90505f60045f9054906101000a900473ffffffffffffffffffffffffffffffffffffffff1673ffffffffffffffffffffffffffffffffffffffff16632eb9771b6040518163ffffffff1660e01b8152600401602060405180830381865afa158015611952573d5f803e3d5ffd5b505050506040513d601f19601f820116820180604052508101906119769190617125565b90505f60045f9054906101000a900473ffffffffffffffffffffffffffffffffffffffff1673ffffffffffffffffffffffffffffffffffffffff1663d2d97b066040518163ffffffff1660e01b8152600401602060405180830381865afa1580156119e3573d5f803e3d5ffd5b505050506040513d601f19601f82011682018060405250810190611a079190617125565b9050620f4240821115611a1b57620f424091505b5f611a44620f4240611a368587615cdb90919063ffffffff16565b615d5290919063ffffffff16565b905080821115611a9a575f611a628284615d9b90919063ffffffff16565b90505f601d5f611a70610c60565b81526020019081526020015f20549050611a8d81601e5484615de4565b9650505050505050611aa2565b5f9450505050505b90565b60095f9054906101000a900473ffffffffffffffffffffffffffffffffffffffff1681565b60118181548110611ad9575f80fd5b905f5260205f20015f915090505481565b5f611bcc60178381548110611b0257611b01616c5b565b5b905f5260205f200154600e8481548110611b1f57611b1e616c5b565b5b905f5260205f20015f9054906101000a900473ffffffffffffffffffffffffffffffffffffffff1673ffffffffffffffffffffffffffffffffffffffff166370a08231306040518263ffffffff1660e01b8152600401611b7f919061657a565b602060405180830381865afa158015611b9a573d5f803e3d5ffd5b505050506040513d601f19601f82011682018060405250810190611bbe9190617125565b615d9b90919063ffffffff16565b9050919050565b60205481565b60025f9054906101000a900473ffffffffffffffffffffffffffffffffffffffff1673ffffffffffffffffffffffffffffffffffffffff163373ffffffffffffffffffffffffffffffffffffffff161480611c7e57505f8054906101000a900473ffffffffffffffffffffffffffffffffffffffff1673ffffffffffffffffffffffffffffffffffffffff163373ffffffffffffffffffffffffffffffffffffffff16145b611cbd576040517f08c379a0000000000000000000000000000000000000000000000000000000008152600401611cb490616c3d565b60405180910390fd5b5f60065f8373ffffffffffffffffffffffffffffffffffffffff1673ffffffffffffffffffffffffffffffffffffffff1681526020019081526020015f205f6101000a81548160ff0219169083151502179055507f441e2ac704708a511e1dccaf842773b65f3928094ff084b1c90e0572db43526081604051611d40919061657a565b60405180910390a150565b6016602052815f5260405f20602052805f5260405f205f91509150505481565b600d5f9054906101000a900473ffffffffffffffffffffffffffffffffffffffff1681565b60085f9054906101000a900473ffffffffffffffffffffffffffffffffffffffff1681565b60025f9054906101000a900473ffffffffffffffffffffffffffffffffffffffff1673ffffffffffffffffffffffffffffffffffffffff163373ffffffffffffffffffffffffffffffffffffffff161480611e5a57505f8054906101000a900473ffffffffffffffffffffffffffffffffffffffff1673ffffffffffffffffffffffffffffffffffffffff163373ffffffffffffffffffffffffffffffffffffffff16145b611e99576040517f08c379a0000000000000000000000000000000000000000000000000000000008152600401611e9090616c3d565b60405180910390fd5b8060035f6101000a81548173ffffffffffffffffffffffffffffffffffffffff021916908373ffffffffffffffffffffffffffffffffffffffff1602179055507fb88c20a211c5d7677ba2a26c317d8ae6b25aa492016dc8ceca2469761d063d8081604051611f08919061657a565b60405180910390a150565b6006602052805f5260405f205f915054906101000a900460ff1681565b600e8181548110611f3f575f80fd5b905f5260205f20015f915054906101000a900473ffffffffffffffffffffffffffffffffffffffff1681565b60185481565b60255481565b5f8360145f600e8381548110611f9057611f8f616c5b565b5b905f5260205f20015f9054906101000a900473ffffffffffffffffffffffffffffffffffffffff1673ffffffffffffffffffffffffffffffffffffffff1673ffffffffffffffffffffffffffffffffffffffff1681526020019081526020015f205f9054906101000a900460ff1661203d576040517f08c379a00000000000000000000000000000000000000000000000000000000081526004016120349061719a565b60405180910390fd5b5f15156028868154811061205457612053616c5b565b5b905f5260205f2090602091828204019190069054906101000a900460ff161515146120b4576040517f08c379a00000000000000000000000000000000000000000000000000000000081526004016120ab90617202565b60405180910390fd5b5f601086815481106120c9576120c8616c5b565b5b905f5260205f200154600a6120de9190616fd3565b856120e99190617220565b90505f6120f461355c565b90505f6120ff615b0d565b905061215961214a60248a8154811061211b5761211a616c5b565b5b905f5260205f20015461213c602554620f4240615e2690919063ffffffff16565b615d9b90919063ffffffff16565b84615cdb90919063ffffffff16565b94505f61219583612187606461217960328b615cdb90919063ffffffff16565b615d5290919063ffffffff16565b615d5290919063ffffffff16565b90505f6121d86121a36111c9565b6121ca60646121bc60328c615cdb90919063ffffffff16565b615d5290919063ffffffff16565b615d5290919063ffffffff16565b90508287111561221d576040517f08c379a0000000000000000000000000000000000000000000000000000000008152600401612214906172ab565b60405180910390fd5b87612235633b9aca0083615d5290919063ffffffff16565b8361224091906170ab565b1015612281576040517f08c379a000000000000000000000000000000000000000000000000000000000815260040161227890617313565b60405180910390fd5b60118a8154811061229557612294616c5b565b5b905f5260205f2001546122b98a6122ab8d611aea565b615e2690919063ffffffff16565b11156122fa576040517f08c379a00000000000000000000000000000000000000000000000000000000081526004016122f19061737b565b60405180910390fd5b612341600e8b8154811061231157612310616c5b565b5b905f5260205f20015f9054906101000a900473ffffffffffffffffffffffffffffffffffffffff1633308c615e83565b60055f9054906101000a900473ffffffffffffffffffffffffffffffffffffffff1673ffffffffffffffffffffffffffffffffffffffff1663b4f56b2633846040518363ffffffff1660e01b815260040161239d929190617399565b5f604051808303815f87803b1580156123b4575f80fd5b505af11580156123c6573d5f803e3d5ffd5b50505050600d5f9054906101000a900473ffffffffffffffffffffffffffffffffffffffff1673ffffffffffffffffffffffffffffffffffffffff1663a9059cbb3361241f633b9aca0085615d5290919063ffffffff16565b6040518363ffffffff1660e01b815260040161243c929190617399565b6020604051808303815f875af1158015612458573d5f803e3d5ffd5b505050506040513d601f19601f8201168201806040525081019061247c91906173d4565b5081601f5f612489610c60565b81526020019081526020015f205f8282546124a491906170ab565b925050819055505050505050509392505050565b601d602052805f5260405f205f915090505481565b60015f9054906101000a900473ffffffffffffffffffffffffffffffffffffffff1681565b600f8181548110612501575f80fd5b905f5260205f20015f9150905080546125199061742c565b80601f01602080910402602001604051908101604052809291908181526020018280546125459061742c565b80156125905780601f1061256757610100808354040283529160200191612590565b820191905f5260205f20905b81548152906001019060200180831161257357829003601f168201915b505050505081565b5f612617601284815481106125b0576125af616c5b565b5b905f5260205f200154612609601086815481106125d0576125cf616c5b565b5b905f5260205f200154600a6125e59190616fd3565b6125fb620f424087615cdb90919063ffffffff16565b615d5290919063ffffffff16565b615d5290919063ffffffff16565b905092915050565b6010818154811061262e575f80fd5b905f5260205f20015f915090505481565b6126476161a9565b60145f8373ffffffffffffffffffffffffffffffffffffffff1673ffffffffffffffffffffffffffffffffffffffff1681526020019081526020015f205f9054906101000a900460ff166126d0576040517f08c379a00000000000000000000000000000000000000000000000000000000081526004016126c7906174a6565b60405180910390fd5b5f60135f8473ffffffffffffffffffffffffffffffffffffffff1673ffffffffffffffffffffffffffffffffffffffff1681526020019081526020015f20549050604051806102000160405280828152602001600f838154811061273757612736616c5b565b5b905f5260205f2001805461274a9061742c565b80601f01602080910402602001604051908101604052809291908181526020018280546127769061742c565b80156127c15780601f10612798576101008083540402835291602001916127c1565b820191905f5260205f20905b8154815290600101906020018083116127a457829003601f168201915b505050505081526020018473ffffffffffffffffffffffffffffffffffffffff16815260200160145f8673ffffffffffffffffffffffffffffffffffffffff1673ffffffffffffffffffffffffffffffffffffffff1681526020019081526020015f205f9054906101000a900460ff16151581526020016010838154811061284c5761284b616c5b565b5b905f5260205f20015481526020016012838154811061286e5761286d616c5b565b5b905f5260205f2001548152602001601183815481106128905761288f616c5b565b5b905f5260205f2001548152602001602683815481106128b2576128b1616c5b565b5b905f5260205f2090602091828204019190069054906101000a900460ff1615158152602001602783815481106128eb576128ea616c5b565b5b905f5260205f2090602091828204019190069054906101000a900460ff16151581526020016028838154811061292457612923616c5b565b5b905f5260205f2090602091828204019190069054906101000a900460ff16151581526020016029838154811061295d5761295c616c5b565b5b905f5260205f2090602091828204019190069054906101000a900460ff1615158152602001602a838154811061299657612995616c5b565b5b905f5260205f2090602091828204019190069054906101000a900460ff1615158152602001602183815481106129cf576129ce616c5b565b5b905f5260205f2001548152602001602283815481106129f1576129f0616c5b565b5b905f5260205f200154815260200160238381548110612a1357612a12616c5b565b5b905f5260205f200154815260200160248381548110612a3557612a34616c5b565b5b905f5260205f200154815250915050919050565b60025f9054906101000a900473ffffffffffffffffffffffffffffffffffffffff1673ffffffffffffffffffffffffffffffffffffffff163373ffffffffffffffffffffffffffffffffffffffff161480612aee57505f8054906101000a900473ffffffffffffffffffffffffffffffffffffffff1673ffffffffffffffffffffffffffffffffffffffff163373ffffffffffffffffffffffffffffffffffffffff16145b612b2d576040517f08c379a0000000000000000000000000000000000000000000000000000000008152600401612b2490616c3d565b60405180910390fd5b81601c8190555080601b819055507f08f944f25b910c541435bcde52d233072e903b37afc29bc8b5787b6e74d82c1a8282604051612b6c929190616a35565b60405180910390a15050565b60015f9054906101000a900473ffffffffffffffffffffffffffffffffffffffff1673ffffffffffffffffffffffffffffffffffffffff163373ffffffffffffffffffffffffffffffffffffffff1614612c07576040517f08c379a0000000000000000000000000000000000000000000000000000000008152600401612bfe90617534565b60405180910390fd5b7fb532073b38c83145e3e5135377a08bf9aab55bc0fd7c1179cd4fb995d2a5159c5f8054906101000a900473ffffffffffffffffffffffffffffffffffffffff1660015f9054906101000a900473ffffffffffffffffffffffffffffffffffffffff16604051612c78929190616d18565b60405180910390a160015f9054906101000a900473ffffffffffffffffffffffffffffffffffffffff165f806101000a81548173ffffffffffffffffffffffffffffffffffffffff021916908373ffffffffffffffffffffffffffffffffffffffff1602179055505f60015f6101000a81548173ffffffffffffffffffffffffffffffffffffffff021916908373ffffffffffffffffffffffffffffffffffffffff160217905550565b5f805f808960145f600e8381548110612d3e57612d3d616c5b565b5b905f5260205f20015f9054906101000a900473ffffffffffffffffffffffffffffffffffffffff1673ffffffffffffffffffffffffffffffffffffffff1673ffffffffffffffffffffffffffffffffffffffff1681526020019081526020015f205f9054906101000a900460ff16612deb576040517f08c379a0000000000000000000000000000000000000000000000000000000008152600401612de29061719a565b60405180910390fd5b5f8a90505f8c90505f151560268e81548110612e0a57612e09616c5b565b5b905f5260205f2090602091828204019190069054906101000a900460ff16151514612e6a576040517f08c379a0000000000000000000000000000000000000000000000000000000008152600401612e619061759c565b60405180910390fd5b601c54612e75615b81565b1015612eb6576040517f08c379a0000000000000000000000000000000000000000000000000000000008152600401612ead90617604565b60405180910390fd5b5f60045f9054906101000a900473ffffffffffffffffffffffffffffffffffffffff1673ffffffffffffffffffffffffffffffffffffffff16632eb9771b6040518163ffffffff1660e01b8152600401602060405180830381865afa158015612f21573d5f803e3d5ffd5b505050506040513d601f19601f82011682018060405250810190612f459190617125565b90508880612f565750620f42408110155b15612f6f57612f65828e612598565b96505f955061310d565b5f810361301d575f96505f612fa16064612f93603287615cdb90919063ffffffff16565b615d5290919063ffffffff16565b9050612fd2612fae61355c565b612fc4620f424084615cdb90919063ffffffff16565b615d5290919063ffffffff16565b9650613015612fdf6111c9565b613007620f4240612ff98589615d9b90919063ffffffff16565b615cdb90919063ffffffff16565b615d5290919063ffffffff16565b95505061310c565b5f613046620f42406130388487615cdb90919063ffffffff16565b615d5290919063ffffffff16565b90505f61305c8286615d9b90919063ffffffff16565b90506130688483612598565b98505f6130926064613084603285615cdb90919063ffffffff16565b615d5290919063ffffffff16565b90506130c361309f61355c565b6130b5620f424084615cdb90919063ffffffff16565b615d5290919063ffffffff16565b98506131066130d06111c9565b6130f8620f42406130ea8587615d9b90919063ffffffff16565b615cdb90919063ffffffff16565b615d5290919063ffffffff16565b97505050505b5b613166620f42406131586131496021868154811061312e5761312d616c5b565b5b905f5260205f200154620f4240615d9b90919063ffffffff16565b86615cdb90919063ffffffff16565b615d5290919063ffffffff16565b97508b8810156131ab576040517f08c379a00000000000000000000000000000000000000000000000000000000081526004016131a29061766c565b60405180910390fd5b8a8711156131ee576040517f08c379a00000000000000000000000000000000000000000000000000000000081526004016131e5906176d4565b60405180910390fd5b60118e8154811061320257613201616c5b565b5b905f5260205f2001546132268861321885611aea565b615e2690919063ffffffff16565b1115613267576040517f08c379a000000000000000000000000000000000000000000000000000000000815260040161325e9061737b565b60405180910390fd5b60055f9054906101000a900473ffffffffffffffffffffffffffffffffffffffff1673ffffffffffffffffffffffffffffffffffffffff1663a8a778ae33886040518363ffffffff1660e01b81526004016132c3929190617399565b5f604051808303815f87803b1580156132da575f80fd5b505af11580156132ec573d5f803e3d5ffd5b50505050613337600e838154811061330757613306616c5b565b5b905f5260205f20015f9054906101000a900473ffffffffffffffffffffffffffffffffffffffff1633308a615e83565b5f8511156133f557600d5f9054906101000a900473ffffffffffffffffffffffffffffffffffffffff1673ffffffffffffffffffffffffffffffffffffffff166323b872dd3330613395633b9aca008a615d5290919063ffffffff16565b6040518463ffffffff1660e01b81526004016133b3939291906176f2565b6020604051808303815f875af11580156133cf573d5f803e3d5ffd5b505050506040513d601f19601f820116820180604052508101906133f391906173d4565b505b60045f9054906101000a900473ffffffffffffffffffffffffffffffffffffffff1673ffffffffffffffffffffffffffffffffffffffff1663b4f56b26338a6040518363ffffffff1660e01b8152600401613451929190617399565b5f604051808303815f87803b158015613468575f80fd5b505af115801561347a573d5f803e3d5ffd5b50505050505050509650965096509692505050565b60035f9054906101000a900473ffffffffffffffffffffffffffffffffffffffff1681565b6014602052805f5260405f205f915054906101000a900460ff1681565b6060600e80548060200260200160405190810160405280929190818152602001828054801561355257602002820191905f5260205f20905b815f9054906101000a900473ffffffffffffffffffffffffffffffffffffffff1673ffffffffffffffffffffffffffffffffffffffff1681526020019060010190808311613509575b5050505050905090565b5f805f805f60085f9054906101000a900473ffffffffffffffffffffffffffffffffffffffff1673ffffffffffffffffffffffffffffffffffffffff1663feaf968c6040518163ffffffff1660e01b815260040160a060405180830381865afa1580156135cb573d5f803e3d5ffd5b505050506040513d601f19601f820116820180604052508101906135ef9190616dc5565b9450945050935093505f831215801561360857505f8214155b801561362c57508369ffffffffffffffffffff168169ffffffffffffffffffff1610155b61366b576040517f08c379a000000000000000000000000000000000000000000000000000000000815260040161366290616e86565b60405180910390fd5b6136a1600b54600a61367d9190616fd3565b613693620f424086615cdb90919063ffffffff16565b615d5290919063ffffffff16565b94505050505090565b5f8054906101000a900473ffffffffffffffffffffffffffffffffffffffff1681565b60065f3373ffffffffffffffffffffffffffffffffffffffff1673ffffffffffffffffffffffffffffffffffffffff1681526020019081526020015f205f9054906101000a900460ff16613756576040517f08c379a000000000000000000000000000000000000000000000000000000000815260040161374d90617771565b60405180910390fd5b5f3373ffffffffffffffffffffffffffffffffffffffff16638b4433966040518163ffffffff1660e01b8152600401602060405180830381865afa1580156137a0573d5f803e3d5ffd5b505050506040513d601f19601f820116820180604052508101906137c49190617125565b90505f1515602a82815481106137dd576137dc616c5b565b5b905f5260205f2090602091828204019190069054906101000a900460ff1615151461383d576040517f08c379a0000000000000000000000000000000000000000000000000000000008152600401613834906177d9565b60405180910390fd5b60145f600e838154811061385457613853616c5b565b5b905f5260205f20015f9054906101000a900473ffffffffffffffffffffffffffffffffffffffff1673ffffffffffffffffffffffffffffffffffffffff1673ffffffffffffffffffffffffffffffffffffffff1681526020019081526020015f205f9054906101000a900460ff16613901576040517f08c379a00000000000000000000000000000000000000000000000000000000081526004016138f89061719a565b60405180910390fd5b613947600e828154811061391857613917616c5b565b5b905f5260205f20015f9054906101000a900473ffffffffffffffffffffffffffffffffffffffff163384615fb6565b5050565b5f805f15156027848154811061396457613963616c5b565b5b905f5260205f2090602091828204019190069054906101000a900460ff161515146139c4576040517f08c379a00000000000000000000000000000000000000000000000000000000081526004016139bb90617841565b60405180910390fd5b43613a17601a5460195f3373ffffffffffffffffffffffffffffffffffffffff1673ffffffffffffffffffffffffffffffffffffffff1681526020019081526020015f2054615e2690919063ffffffff16565b1115613a58576040517f08c379a0000000000000000000000000000000000000000000000000000000008152600401613a4f906178a9565b60405180910390fd5b5f805f60155f3373ffffffffffffffffffffffffffffffffffffffff1673ffffffffffffffffffffffffffffffffffffffff1681526020019081526020015f20541115613b415760155f3373ffffffffffffffffffffffffffffffffffffffff1673ffffffffffffffffffffffffffffffffffffffff1681526020019081526020015f205493505f60155f3373ffffffffffffffffffffffffffffffffffffffff1673ffffffffffffffffffffffffffffffffffffffff1681526020019081526020015f2081905550613b3684601854615d9b90919063ffffffff16565b601881905550600191505b5f60165f3373ffffffffffffffffffffffffffffffffffffffff1673ffffffffffffffffffffffffffffffffffffffff1681526020019081526020015f205f8781526020019081526020015f20541115613c895760165f3373ffffffffffffffffffffffffffffffffffffffff1673ffffffffffffffffffffffffffffffffffffffff1681526020019081526020015f205f8681526020019081526020015f205492505f60165f3373ffffffffffffffffffffffffffffffffffffffff1673ffffffffffffffffffffffffffffffffffffffff1681526020019081526020015f205f8781526020019081526020015f2081905550613c648360178781548110613c4d57613c4c616c5b565b5b905f5260205f200154615d9b90919063ffffffff16565b60178681548110613c7857613c77616c5b565b5b905f5260205f200181905550600190505b8115613cbc57613cbb60055f9054906101000a900473ffffffffffffffffffffffffffffffffffffffff163386615fb6565b5b8015613d0957613d08600e8681548110613cd957613cd8616c5b565b5b905f5260205f20015f9054906101000a900473ffffffffffffffffffffffffffffffffffffffff163385615fb6565b5b5050915091565b6019602052805f5260405f205f915090505481565b60025f9054906101000a900473ffffffffffffffffffffffffffffffffffffffff1673ffffffffffffffffffffffffffffffffffffffff163373ffffffffffffffffffffffffffffffffffffffff161480613dca57505f8054906101000a900473ffffffffffffffffffffffffffffffffffffffff1673ffffffffffffffffffffffffffffffffffffffff163373ffffffffffffffffffffffffffffffffffffffff16145b613e09576040517f08c379a0000000000000000000000000000000000000000000000000000000008152600401613e0090616c3d565b60405180910390fd5b5f600e8281548110613e1e57613e1d616c5b565b5b905f5260205f20015f9054906101000a900473ffffffffffffffffffffffffffffffffffffffff16905060145f8273ffffffffffffffffffffffffffffffffffffffff1673ffffffffffffffffffffffffffffffffffffffff1681526020019081526020015f205f9054906101000a900460ff161560145f8373ffffffffffffffffffffffffffffffffffffffff1673ffffffffffffffffffffffffffffffffffffffff1681526020019081526020015f205f6101000a81548160ff0219169083151502179055507f088e9476d8b4139e22c8e66b078291edda3cd924ce0b0e7193f2a38e293e70ee8260145f8473ffffffffffffffffffffffffffffffffffffffff1673ffffffffffffffffffffffffffffffffffffffff1681526020019081526020015f205f9054906101000a900460ff16604051613f609291906178c7565b60405180910390a15050565b60025f9054906101000a900473ffffffffffffffffffffffffffffffffffffffff1673ffffffffffffffffffffffffffffffffffffffff163373ffffffffffffffffffffffffffffffffffffffff16148061401157505f8054906101000a900473ffffffffffffffffffffffffffffffffffffffff1673ffffffffffffffffffffffffffffffffffffffff163373ffffffffffffffffffffffffffffffffffffffff16145b614050576040517f08c379a000000000000000000000000000000000000000000000000000000000815260040161404790616c3d565b60405180910390fd5b806012838154811061406557614064616c5b565b5b905f5260205f2001819055507f16374e3dc228b497b5a9b2dff5883c395120625fbe7e794fdcc5d305ce13ed0782826040516140a2929190616a35565b60405180910390a15050565b5f805f8660145f600e83815481106140c9576140c8616c5b565b5b905f5260205f20015f9054906101000a900473ffffffffffffffffffffffffffffffffffffffff1673ffffffffffffffffffffffffffffffffffffffff1673ffffffffffffffffffffffffffffffffffffffff1681526020019081526020015f205f9054906101000a900460ff16614176576040517f08c379a000000000000000000000000000000000000000000000000000000000815260040161416d9061719a565b60405180910390fd5b5f15156027898154811061418d5761418c616c5b565b5b905f5260205f2090602091828204019190069054906101000a900460ff161515146141ed576040517f08c379a00000000000000000000000000000000000000000000000000000000081526004016141e490617841565b60405180910390fd5b601b546141f8615b81565b1115614239576040517f08c379a000000000000000000000000000000000000000000000000000000000815260040161423090617938565b60405180910390fd5b5f60045f9054906101000a900473ffffffffffffffffffffffffffffffffffffffff1673ffffffffffffffffffffffffffffffffffffffff16632eb9771b6040518163ffffffff1660e01b8152600401602060405180830381865afa1580156142a4573d5f803e3d5ffd5b505050506040513d601f19601f820116820180604052508101906142c89190617125565b90505f614324620f424061431661430760228e815481106142ec576142eb616c5b565b5b905f5260205f200154620f4240615d9b90919063ffffffff16565b8c615cdb90919063ffffffff16565b615d5290919063ffffffff16565b9050620f424082106143445761433a8a82612598565b95505f94506144ea565b5f82036143f2575f6143736064614365603285615cdb90919063ffffffff16565b615d5290919063ffffffff16565b90506143a461438061355c565b614396620f424084615cdb90919063ffffffff16565b615d5290919063ffffffff16565b95506143e76143b16111c9565b6143d9620f42406143cb8587615d9b90919063ffffffff16565b615cdb90919063ffffffff16565b615d5290919063ffffffff16565b94505f9650506144e9565b614423620f4240614415846144078e86612598565b615cdb90919063ffffffff16565b615d5290919063ffffffff16565b95505f61444d606461443f603285615cdb90919063ffffffff16565b615d5290919063ffffffff16565b905061449061445a61355c565b61448261447386620f4240615d9b90919063ffffffff16565b84615cdb90919063ffffffff16565b615d5290919063ffffffff16565b95506144e561449d6111c9565b6144d76144b686620f4240615d9b90919063ffffffff16565b6144c98587615d9b90919063ffffffff16565b615cdb90919063ffffffff16565b615d5290919063ffffffff16565b9450505b5b6145cb60178b8154811061450157614500616c5b565b5b905f5260205f200154600e8c8154811061451e5761451d616c5b565b5b905f5260205f20015f9054906101000a900473ffffffffffffffffffffffffffffffffffffffff1673ffffffffffffffffffffffffffffffffffffffff166370a08231306040518263ffffffff1660e01b815260040161457e919061657a565b602060405180830381865afa158015614599573d5f803e3d5ffd5b505050506040513d601f19601f820116820180604052508101906145bd9190617125565b615d9b90919063ffffffff16565b86111561460d576040517f08c379a0000000000000000000000000000000000000000000000000000000008152600401614604906179a0565b60405180910390fd5b86861015614650576040517f08c379a000000000000000000000000000000000000000000000000000000000815260040161464790617a08565b60405180910390fd5b87614668633b9aca0086615d5290919063ffffffff16565b8661467391906170ab565b10156146b4576040517f08c379a00000000000000000000000000000000000000000000000000000000081526004016146ab90617313565b60405180910390fd5b6147138660165f3373ffffffffffffffffffffffffffffffffffffffff1673ffffffffffffffffffffffffffffffffffffffff1681526020019081526020015f205f8d81526020019081526020015f2054615e2690919063ffffffff16565b60165f3373ffffffffffffffffffffffffffffffffffffffff1673ffffffffffffffffffffffffffffffffffffffff1681526020019081526020015f205f8c81526020019081526020015f20819055506147928660178c8154811061477b5761477a616c5b565b5b905f5260205f200154615e2690919063ffffffff16565b60178b815481106147a6576147a5616c5b565b5b905f5260205f2001819055506148028560155f3373ffffffffffffffffffffffffffffffffffffffff1673ffffffffffffffffffffffffffffffffffffffff1681526020019081526020015f2054615e2690919063ffffffff16565b60155f3373ffffffffffffffffffffffffffffffffffffffff1673ffffffffffffffffffffffffffffffffffffffff1681526020019081526020015f208190555061485885601854615e2690919063ffffffff16565b6018819055504360195f3373ffffffffffffffffffffffffffffffffffffffff1673ffffffffffffffffffffffffffffffffffffffff1681526020019081526020015f208190555060045f9054906101000a900473ffffffffffffffffffffffffffffffffffffffff1673ffffffffffffffffffffffffffffffffffffffff1663a8a778ae338b6040518363ffffffff1660e01b81526004016148fc929190617399565b5f604051808303815f87803b158015614913575f80fd5b505af1158015614925573d5f803e3d5ffd5b5050505060055f9054906101000a900473ffffffffffffffffffffffffffffffffffffffff1673ffffffffffffffffffffffffffffffffffffffff1663b4f56b2630876040518363ffffffff1660e01b8152600401614985929190617399565b5f604051808303815f87803b15801561499c575f80fd5b505af11580156149ae573d5f803e3d5ffd5b50505050600d5f9054906101000a900473ffffffffffffffffffffffffffffffffffffffff1673ffffffffffffffffffffffffffffffffffffffff1663a9059cbb33614a07633b9aca0088615d5290919063ffffffff16565b6040518363ffffffff1660e01b8152600401614a24929190617399565b6020604051808303815f875af1158015614a40573d5f803e3d5ffd5b505050506040513d601f19601f82011682018060405250810190614a6491906173d4565b505050509450945094915050565b60178181548110614a81575f80fd5b905f5260205f20015f915090505481565b60025f9054906101000a900473ffffffffffffffffffffffffffffffffffffffff1673ffffffffffffffffffffffffffffffffffffffff163373ffffffffffffffffffffffffffffffffffffffff161480614b3757505f8054906101000a900473ffffffffffffffffffffffffffffffffffffffff1673ffffffffffffffffffffffffffffffffffffffff163373ffffffffffffffffffffffffffffffffffffffff16145b80614b8e575060035f9054906101000a900473ffffffffffffffffffffffffffffffffffffffff1673ffffffffffffffffffffffffffffffffffffffff163373ffffffffffffffffffffffffffffffffffffffff16145b614bcd576040517f08c379a0000000000000000000000000000000000000000000000000000000008152600401614bc490617a70565b60405180910390fd5b5f8160ff1603614c4a5760268281548110614beb57614bea616c5b565b5b905f5260205f2090602091828204019190069054906101000a900460ff161560268381548110614c1e57614c1d616c5b565b5b905f5260205f2090602091828204019190066101000a81548160ff021916908315150217905550614e42565b60018160ff1603614cc85760278281548110614c6957614c68616c5b565b5b905f5260205f2090602091828204019190069054906101000a900460ff161560278381548110614c9c57614c9b616c5b565b5b905f5260205f2090602091828204019190066101000a81548160ff021916908315150217905550614e41565b60028160ff1603614d465760298281548110614ce757614ce6616c5b565b5b905f5260205f2090602091828204019190069054906101000a900460ff161560298381548110614d1a57614d19616c5b565b5b905f5260205f2090602091828204019190066101000a81548160ff021916908315150217905550614e40565b60038160ff1603614dc45760288281548110614d6557614d64616c5b565b5b905f5260205f2090602091828204019190069054906101000a900460ff161560288381548110614d9857614d97616c5b565b5b905f5260205f2090602091828204019190066101000a81548160ff021916908315150217905550614e3f565b60048160ff1603614e3e57602a8281548110614de357614de2616c5b565b5b905f5260205f2090602091828204019190069054906101000a900460ff1615602a8381548110614e1657614e15616c5b565b5b905f5260205f2090602091828204019190066101000a81548160ff0219169083151502179055505b5b5b5b5b7f3dbf640f58ea22aec5eb07b21b1a899b95d63fffcf6050292ee91a1ad5576a2e8282604051614e73929190617a9d565b60405180910390a15050565b60025f9054906101000a900473ffffffffffffffffffffffffffffffffffffffff1673ffffffffffffffffffffffffffffffffffffffff163373ffffffffffffffffffffffffffffffffffffffff161480614f2457505f8054906101000a900473ffffffffffffffffffffffffffffffffffffffff1673ffffffffffffffffffffffffffffffffffffffff163373ffffffffffffffffffffffffffffffffffffffff16145b614f63576040517f08c379a0000000000000000000000000000000000000000000000000000000008152600401614f5a90616c3d565b60405180910390fd5b8060025f6101000a81548173ffffffffffffffffffffffffffffffffffffffff021916908373ffffffffffffffffffffffffffffffffffffffff1602179055507f7e7ee4175d63f671fac3401d5f401ed18d1f48a586e756f404d5696fc77a705881604051614fd2919061657a565b60405180910390a150565b5f8360145f600e8381548110614ff657614ff5616c5b565b5b905f5260205f20015f9054906101000a900473ffffffffffffffffffffffffffffffffffffffff1673ffffffffffffffffffffffffffffffffffffffff1673ffffffffffffffffffffffffffffffffffffffff1681526020019081526020015f205f9054906101000a900460ff166150a3576040517f08c379a000000000000000000000000000000000000000000000000000000000815260040161509a9061719a565b60405180910390fd5b5f1515602986815481106150ba576150b9616c5b565b5b905f5260205f2090602091828204019190069054906101000a900460ff1615151461511a576040517f08c379a000000000000000000000000000000000000000000000000000000000815260040161511190617b0e565b60405180910390fd5b5f61512361355c565b90505f61512e611855565b90505f8111615172576040517f08c379a000000000000000000000000000000000000000000000000000000000815260040161516990617b76565b60405180910390fd5b5f61519a606461518c60328a615cdb90919063ffffffff16565b615d5290919063ffffffff16565b90505f6151c5620f42406151b78685615cdb90919063ffffffff16565b615d5290919063ffffffff16565b90505f615209620f42406151fb6151da6111c9565b6151ed878e615d9b90919063ffffffff16565b615cdb90919063ffffffff16565b615d5290919063ffffffff16565b90508382111561524e576040517f08c379a000000000000000000000000000000000000000000000000000000000815260040161524590617b76565b60405180910390fd5b5f6152bb60128c8154811061526657615265616c5b565b5b905f5260205f2001546152ad620f424061529f615290633b9aca0088615d5290919063ffffffff16565b88615e2690919063ffffffff16565b615cdb90919063ffffffff16565b615d5290919063ffffffff16565b90506152f860108c815481106152d4576152d3616c5b565b5b905f5260205f200154600a6152e99190616fd3565b82615d5290919063ffffffff16565b9750615353620f424061534561533660238f8154811061531b5761531a616c5b565b5b905f5260205f200154620f4240615d9b90919063ffffffff16565b8b615cdb90919063ffffffff16565b615d5290919063ffffffff16565b975088881015615398576040517f08c379a000000000000000000000000000000000000000000000000000000000815260040161538f90617a08565b60405180910390fd5b60055f9054906101000a900473ffffffffffffffffffffffffffffffffffffffff1673ffffffffffffffffffffffffffffffffffffffff1663a8a778ae33856040518363ffffffff1660e01b81526004016153f4929190617399565b5f604051808303815f87803b15801561540b575f80fd5b505af115801561541d573d5f803e3d5ffd5b50505050600d5f9054906101000a900473ffffffffffffffffffffffffffffffffffffffff1673ffffffffffffffffffffffffffffffffffffffff166323b872dd3330615477633b9aca0087615d5290919063ffffffff16565b6040518463ffffffff1660e01b8152600401615495939291906176f2565b6020604051808303815f875af11580156154b1573d5f803e3d5ffd5b505050506040513d601f19601f820116820180604052508101906154d591906173d4565b5061551c600e8c815481106154ed576154ec616c5b565b5b905f5260205f20015f9054906101000a900473ffffffffffffffffffffffffffffffffffffffff16338a615fb6565b80601d5f615528610c60565b81526020019081526020015f205f82825461554391906170ab565b92505081905550505050505050509392505050565b6015602052805f5260405f205f915090505481565b60025f9054906101000a900473ffffffffffffffffffffffffffffffffffffffff1673ffffffffffffffffffffffffffffffffffffffff163373ffffffffffffffffffffffffffffffffffffffff16148061561257505f8054906101000a900473ffffffffffffffffffffffffffffffffffffffff1673ffffffffffffffffffffffffffffffffffffffff163373ffffffffffffffffffffffffffffffffffffffff16145b615651576040517f08c379a000000000000000000000000000000000000000000000000000000000815260040161564890616c3d565b60405180910390fd5b5f73ffffffffffffffffffffffffffffffffffffffff168173ffffffffffffffffffffffffffffffffffffffff16036156bf576040517f08c379a00000000000000000000000000000000000000000000000000000000081526004016156b690617bde565b60405180910390fd5b5f8173ffffffffffffffffffffffffffffffffffffffff166317284c946040518163ffffffff1660e01b8152600401602060405180830381865afa158015615709573d5f803e3d5ffd5b505050506040513d601f19601f8201168201806040525081019061572d9190617125565b90505f811015615772576040517f08c379a000000000000000000000000000000000000000000000000000000000815260040161576990617c46565b60405180910390fd5b600160065f8473ffffffffffffffffffffffffffffffffffffffff1673ffffffffffffffffffffffffffffffffffffffff1681526020019081526020015f205f6101000a81548160ff0219169083151502179055507f15db44a176b13a69368dde2d5ada5960b7025d8946d346c14e6ec5e5ce3fdba4826040516157f6919061657a565b60405180910390a15050565b6013602052805f5260405f205f915090505481565b60025f9054906101000a900473ffffffffffffffffffffffffffffffffffffffff1681565b6012818154811061584b575f80fd5b905f5260205f20015f915090505481565b60025f9054906101000a900473ffffffffffffffffffffffffffffffffffffffff1673ffffffffffffffffffffffffffffffffffffffff163373ffffffffffffffffffffffffffffffffffffffff16148061590157505f8054906101000a900473ffffffffffffffffffffffffffffffffffffffff1673ffffffffffffffffffffffffffffffffffffffff163373ffffffffffffffffffffffffffffffffffffffff16145b615940576040517f08c379a000000000000000000000000000000000000000000000000000000000815260040161593790616c3d565b60405180910390fd5b8160258190555080601a819055507f03cd02afb025e556dd4cb5ab56c7de3b05bb254aa76ee6bd499f6d8a011a1448828260405161597f929190616a35565b60405180910390a15050565b601f602052805f5260405f205f915090505481565b601c5481565b60075f9054906101000a900473ffffffffffffffffffffffffffffffffffffffff1681565b60025f9054906101000a900473ffffffffffffffffffffffffffffffffffffffff1673ffffffffffffffffffffffffffffffffffffffff163373ffffffffffffffffffffffffffffffffffffffff161480615a7057505f8054906101000a900473ffffffffffffffffffffffffffffffffffffffff1673ffffffffffffffffffffffffffffffffffffffff163373ffffffffffffffffffffffffffffffffffffffff16145b615aaf576040517f08c379a0000000000000000000000000000000000000000000000000000000008152600401615aa690616c3d565b60405180910390fd5b8060118381548110615ac457615ac3616c5b565b5b905f5260205f2001819055507f4cb99f07bf9ab5f864d81d791709058819f4188481fb3c70b90a1765e003b16e8282604051615b01929190616a35565b60405180910390a15050565b5f80615b1761355c565b90505f615b2261160d565b90505f615b4d83615b3f620f424085615cdb90919063ffffffff16565b615d5290919063ffffffff16565b90505f601f5f615b5b610c60565b81526020019081526020015f20549050615b788160205484615de4565b94505050505090565b5f805f805f60075f9054906101000a900473ffffffffffffffffffffffffffffffffffffffff1673ffffffffffffffffffffffffffffffffffffffff1663feaf968c6040518163ffffffff1660e01b815260040160a060405180830381865afa158015615bf0573d5f803e3d5ffd5b505050506040513d601f19601f82011682018060405250810190615c149190616dc5565b9450945050935093505f8312158015615c2d57505f8214155b8015615c5157508369ffffffffffffffffffff168169ffffffffffffffffffff1610155b615c90576040517f08c379a0000000000000000000000000000000000000000000000000000000008152600401615c8790616e86565b60405180910390fd5b615cc6600a54600a615ca29190616fd3565b615cb8620f424086615cdb90919063ffffffff16565b615d5290919063ffffffff16565b94505050505090565b601e5481565b601b5481565b5f808303615ceb575f9050615d4c565b5f8284615cf89190617220565b9050828482615d079190616bc3565b14615d47576040517f08c379a0000000000000000000000000000000000000000000000000000000008152600401615d3e90617cd4565b60405180910390fd5b809150505b92915050565b5f615d9383836040518060400160405280601a81526020017f536166654d6174683a206469766973696f6e206279207a65726f0000000000008152506160e6565b905092915050565b5f615ddc83836040518060400160405280601e81526020017f536166654d6174683a207375627472616374696f6e206f766572666c6f770000815250616147565b905092915050565b5f828410615df4575f9050615e1f565b5f615e088585615d9b90919063ffffffff16565b9050808310615e1a5780915050615e1f565b829150505b9392505050565b5f808284615e3491906170ab565b905083811015615e79576040517f08c379a0000000000000000000000000000000000000000000000000000000008152600401615e7090617d3c565b60405180910390fd5b8091505092915050565b5f808573ffffffffffffffffffffffffffffffffffffffff166323b872dd868686604051602401615eb6939291906176f2565b6040516020818303038152906040529060e01b6020820180517bffffffffffffffffffffffffffffffffffffffffffffffffffffffff8381831617835250505050604051615f049190617d9e565b5f604051808303815f865af19150503d805f8114615f3d576040519150601f19603f3d011682016040523d82523d5f602084013e615f42565b606091505b5091509150818015615f6f57505f81511480615f6e575080806020019051810190615f6d91906173d4565b5b5b615fae576040517f08c379a0000000000000000000000000000000000000000000000000000000008152600401615fa590617e24565b60405180910390fd5b505050505050565b5f808473ffffffffffffffffffffffffffffffffffffffff1663a9059cbb8585604051602401615fe7929190617399565b6040516020818303038152906040529060e01b6020820180517bffffffffffffffffffffffffffffffffffffffffffffffffffffffff83818316178352505050506040516160359190617d9e565b5f604051808303815f865af19150503d805f811461606e576040519150601f19603f3d011682016040523d82523d5f602084013e616073565b606091505b50915091508180156160a057505f8151148061609f57508080602001905181019061609e91906173d4565b5b5b6160df576040517f08c379a00000000000000000000000000000000000000000000000000000000081526004016160d690617e8c565b60405180910390fd5b5050505050565b5f808311829061612c576040517f08c379a0000000000000000000000000000000000000000000000000000000008152600401616123919061666d565b60405180910390fd5b505f838561613a9190616bc3565b9050809150509392505050565b5f83831115829061618e576040517f08c379a0000000000000000000000000000000000000000000000000000000008152600401616185919061666d565b60405180910390fd5b505f838561619c9190617eaa565b9050809150509392505050565b6040518061020001604052805f8152602001606081526020015f73ffffffffffffffffffffffffffffffffffffffff1681526020015f151581526020015f81526020015f81526020015f81526020015f151581526020015f151581526020015f151581526020015f151581526020015f151581526020015f81526020015f81526020015f81526020015f81525090565b5f819050919050565b61624b81616239565b82525050565b5f6020820190506162645f830184616242565b92915050565b5f80fd5b61627781616239565b8114616281575f80fd5b50565b5f813590506162928161626e565b92915050565b5f805f805f60a086880312156162b1576162b061626a565b5b5f6162be88828901616284565b95505060206162cf88828901616284565b94505060406162e088828901616284565b93505060606162f188828901616284565b925050608061630288828901616284565b9150509295509295909350565b5f73ffffffffffffffffffffffffffffffffffffffff82169050919050565b5f6163388261630f565b9050919050565b6163488161632e565b8114616352575f80fd5b50565b5f813590506163638161633f565b92915050565b5f805f606084860312156163805761637f61626a565b5b5f61638d86828701616355565b935050602061639e86828701616355565b92505060406163af86828701616355565b9150509250925092565b5f602082840312156163ce576163cd61626a565b5b5f6163db84828501616355565b91505092915050565b5f80604083850312156163fa576163f961626a565b5b5f61640785828601616284565b925050602061641885828601616284565b9150509250929050565b5f819050919050565b5f61644561644061643b8461630f565b616422565b61630f565b9050919050565b5f6164568261642b565b9050919050565b5f6164678261644c565b9050919050565b6164778161645d565b82525050565b5f6020820190506164905f83018461646e565b92915050565b5f602082840312156164ab576164aa61626a565b5b5f6164b884828501616284565b91505092915050565b5f80604083850312156164d7576164d661626a565b5b5f6164e485828601616355565b92505060206164f585828601616284565b9150509250929050565b5f6165098261644c565b9050919050565b616519816164ff565b82525050565b5f6020820190506165325f830184616510565b92915050565b5f8115159050919050565b61654c81616538565b82525050565b5f6020820190506165655f830184616543565b92915050565b6165748161632e565b82525050565b5f60208201905061658d5f83018461656b565b92915050565b5f805f606084860312156165aa576165a961626a565b5b5f6165b786828701616284565b93505060206165c886828701616284565b92505060406165d986828701616284565b9150509250925092565b5f81519050919050565b5f82825260208201905092915050565b5f5b8381101561661a5780820151818401526020810190506165ff565b5f8484015250505050565b5f601f19601f8301169050919050565b5f61663f826165e3565b61664981856165ed565b93506166598185602086016165fd565b61666281616625565b840191505092915050565b5f6020820190508181035f8301526166858184616635565b905092915050565b61669681616239565b82525050565b5f82825260208201905092915050565b5f6166b6826165e3565b6166c0818561669c565b93506166d08185602086016165fd565b6166d981616625565b840191505092915050565b6166ed8161632e565b82525050565b6166fc81616538565b82525050565b5f61020083015f8301516167185f86018261668d565b506020830151848203602086015261673082826166ac565b915050604083015161674560408601826166e4565b50606083015161675860608601826166f3565b50608083015161676b608086018261668d565b5060a083015161677e60a086018261668d565b5060c083015161679160c086018261668d565b5060e08301516167a460e08601826166f3565b506101008301516167b96101008601826166f3565b506101208301516167ce6101208601826166f3565b506101408301516167e36101408601826166f3565b506101608301516167f86101608601826166f3565b5061018083015161680d61018086018261668d565b506101a08301516168226101a086018261668d565b506101c08301516168376101c086018261668d565b506101e083015161684c6101e086018261668d565b508091505092915050565b5f6020820190508181035f83015261686f8184616702565b905092915050565b61688081616538565b811461688a575f80fd5b50565b5f8135905061689b81616877565b92915050565b5f805f805f8060c087890312156168bb576168ba61626a565b5b5f6168c889828a01616284565b96505060206168d989828a01616284565b95505060406168ea89828a01616284565b94505060606168fb89828a01616284565b935050608061690c89828a01616284565b92505060a061691d89828a0161688d565b9150509295509295509295565b5f60808201905061693d5f830187616242565b61694a6020830186616242565b6169576040830185616242565b6169646060830184616242565b95945050505050565b5f81519050919050565b5f82825260208201905092915050565b5f819050602082019050919050565b5f6169a183836166e4565b60208301905092915050565b5f602082019050919050565b5f6169c38261696d565b6169cd8185616977565b93506169d883616987565b805f5b83811015616a085781516169ef8882616996565b97506169fa836169ad565b9250506001810190506169db565b5085935050505092915050565b5f6020820190508181035f830152616a2d81846169b9565b905092915050565b5f604082019050616a485f830185616242565b616a556020830184616242565b9392505050565b5f805f8060808587031215616a7457616a7361626a565b5b5f616a8187828801616284565b9450506020616a9287828801616284565b9350506040616aa387828801616284565b9250506060616ab487828801616284565b91505092959194509250565b5f606082019050616ad35f830186616242565b616ae06020830185616242565b616aed6040830184616242565b949350505050565b5f60ff82169050919050565b616b0a81616af5565b8114616b14575f80fd5b50565b5f81359050616b2581616b01565b92915050565b5f8060408385031215616b4157616b4061626a565b5b5f616b4e85828601616284565b9250506020616b5f85828601616b17565b9150509250929050565b7f4e487b71000000000000000000000000000000000000000000000000000000005f52601260045260245ffd5b7f4e487b71000000000000000000000000000000000000000000000000000000005f52601160045260245ffd5b5f616bcd82616239565b9150616bd883616239565b925082616be857616be7616b69565b5b828204905092915050565b7f4e6f74206f776e6572206f722074696d656c6f636b00000000000000000000005f82015250565b5f616c276015836165ed565b9150616c3282616bf3565b602082019050919050565b5f6020820190508181035f830152616c5481616c1b565b9050919050565b7f4e487b71000000000000000000000000000000000000000000000000000000005f52603260045260245ffd5b5f60a082019050616c9b5f830188616242565b616ca86020830187616242565b616cb56040830186616242565b616cc26060830185616242565b616ccf6080830184616242565b9695505050505050565b5f81519050616ce781616b01565b92915050565b5f60208284031215616d0257616d0161626a565b5b5f616d0f84828501616cd9565b91505092915050565b5f604082019050616d2b5f83018561656b565b616d38602083018461656b565b9392505050565b5f69ffffffffffffffffffff82169050919050565b616d5d81616d3f565b8114616d67575f80fd5b50565b5f81519050616d7881616d54565b92915050565b5f819050919050565b616d9081616d7e565b8114616d9a575f80fd5b50565b5f81519050616dab81616d87565b92915050565b5f81519050616dbf8161626e565b92915050565b5f805f805f60a08688031215616dde57616ddd61626a565b5b5f616deb88828901616d6a565b9550506020616dfc88828901616d9d565b9450506040616e0d88828901616db1565b9350506060616e1e88828901616db1565b9250506080616e2f88828901616d6a565b9150509295509295909350565b7f496e76616c696420636861696e6c696e6b2070726963650000000000000000005f82015250565b5f616e706017836165ed565b9150616e7b82616e3c565b602082019050919050565b5f6020820190508181035f830152616e9d81616e64565b9050919050565b5f8160011c9050919050565b5f808291508390505b6001851115616ef957808604811115616ed557616ed4616b96565b5b6001851615616ee45780820291505b8081029050616ef285616ea4565b9450616eb9565b94509492505050565b5f82616f115760019050616fcc565b81616f1e575f9050616fcc565b8160018114616f345760028114616f3e57616f6d565b6001915050616fcc565b60ff841115616f5057616f4f616b96565b5b8360020a915084821115616f6757616f66616b96565b5b50616fcc565b5060208310610133831016604e8410600b8410161715616fa25782820a905083811115616f9d57616f9c616b96565b5b616fcc565b616faf8484846001616eb0565b92509050818404811115616fc657616fc5616b96565b5b81810290505b9392505050565b5f616fdd82616239565b9150616fe883616239565b92506170157fffffffffffffffffffffffffffffffffffffffffffffffffffffffffffffffff8484616f02565b905092915050565b7f4f6e6c792074686520636f6e7472616374206f776e6572206d617920706572665f8201527f6f726d207468697320616374696f6e0000000000000000000000000000000000602082015250565b5f617077602f836165ed565b91506170828261701d565b604082019050919050565b5f6020820190508181035f8301526170a48161706b565b9050919050565b5f6170b582616239565b91506170c083616239565b92508282019050808211156170d8576170d7616b96565b5b92915050565b5f6170e882616239565b91507fffffffffffffffffffffffffffffffffffffffffffffffffffffffffffffffff820361711a57617119616b96565b5b600182019050919050565b5f6020828403121561713a5761713961626a565b5b5f61714784828501616db1565b91505092915050565b7f436f6c6c61746572616c2064697361626c6564000000000000000000000000005f82015250565b5f6171846013836165ed565b915061718f82617150565b602082019050919050565b5f6020820190508181035f8301526171b181617178565b9050919050565b7f5265636f6c6c61742069732070617573656400000000000000000000000000005f82015250565b5f6171ec6012836165ed565b91506171f7826171b8565b602082019050919050565b5f6020820190508181035f830152617219816171e0565b9050919050565b5f61722a82616239565b915061723583616239565b925082820261724381616239565b9150828204841483151761725a57617259616b96565b5b5092915050565b7f496e7375662046585320417661696c20466f72205243540000000000000000005f82015250565b5f6172956017836165ed565b91506172a082617261565b602082019050919050565b5f6020820190508181035f8301526172c281617289565b9050919050565b7f46585320736c69707061676500000000000000000000000000000000000000005f82015250565b5f6172fd600c836165ed565b9150617308826172c9565b602082019050919050565b5f6020820190508181035f83015261732a816172f1565b9050919050565b7f506f6f6c206365696c696e6700000000000000000000000000000000000000005f82015250565b5f617365600c836165ed565b915061737082617331565b602082019050919050565b5f6020820190508181035f83015261739281617359565b9050919050565b5f6040820190506173ac5f83018561656b565b6173b96020830184616242565b9392505050565b5f815190506173ce81616877565b92915050565b5f602082840312156173e9576173e861626a565b5b5f6173f6848285016173c0565b91505092915050565b7f4e487b71000000000000000000000000000000000000000000000000000000005f52602260045260245ffd5b5f600282049050600182168061744357607f821691505b602082108103617456576174556173ff565b5b50919050565b7f496e76616c696420636f6c6c61746572616c00000000000000000000000000005f82015250565b5f6174906012836165ed565b915061749b8261745c565b602082019050919050565b5f6020820190508181035f8301526174bd81617484565b9050919050565b7f596f75206d757374206265206e6f6d696e61746564206265666f726520796f755f8201527f2063616e20616363657074206f776e6572736869700000000000000000000000602082015250565b5f61751e6035836165ed565b9150617529826174c4565b604082019050919050565b5f6020820190508181035f83015261754b81617512565b9050919050565b7f4d696e74696e67206973207061757365640000000000000000000000000000005f82015250565b5f6175866011836165ed565b915061759182617552565b602082019050919050565b5f6020820190508181035f8301526175b38161757a565b9050919050565b7f4672617820707269636520746f6f206c6f7700000000000000000000000000005f82015250565b5f6175ee6012836165ed565b91506175f9826175ba565b602082019050919050565b5f6020820190508181035f83015261761b816175e2565b9050919050565b7f4652415820736c697070616765000000000000000000000000000000000000005f82015250565b5f617656600d836165ed565b915061766182617622565b602082019050919050565b5f6020820190508181035f8301526176838161764a565b9050919050565b7f436f6c6c617420736c69707061676500000000000000000000000000000000005f82015250565b5f6176be600f836165ed565b91506176c98261768a565b602082019050919050565b5f6020820190508181035f8301526176eb816176b2565b9050919050565b5f6060820190506177055f83018661656b565b617712602083018561656b565b61771f6040830184616242565b949350505050565b7f4e6f7420616e20414d4f204d696e7465720000000000000000000000000000005f82015250565b5f61775b6011836165ed565b915061776682617727565b602082019050919050565b5f6020820190508181035f8301526177888161774f565b9050919050565b7f426f72726f77696e6720697320706175736564000000000000000000000000005f82015250565b5f6177c36013836165ed565b91506177ce8261778f565b602082019050919050565b5f6020820190508181035f8301526177f0816177b7565b9050919050565b7f52656465656d696e6720697320706175736564000000000000000000000000005f82015250565b5f61782b6013836165ed565b9150617836826177f7565b602082019050919050565b5f6020820190508181035f8301526178588161781f565b9050919050565b7f546f6f20736f6f6e0000000000000000000000000000000000000000000000005f82015250565b5f6178936008836165ed565b915061789e8261785f565b602082019050919050565b5f6020820190508181035f8301526178c081617887565b9050919050565b5f6040820190506178da5f830185616242565b6178e76020830184616543565b9392505050565b7f4672617820707269636520746f6f2068696768000000000000000000000000005f82015250565b5f6179226013836165ed565b915061792d826178ee565b602082019050919050565b5f6020820190508181035f83015261794f81617916565b9050919050565b7f496e73756666696369656e7420706f6f6c20636f6c6c61746572616c000000005f82015250565b5f61798a601c836165ed565b915061799582617956565b602082019050919050565b5f6020820190508181035f8301526179b78161797e565b9050919050565b7f436f6c6c61746572616c20736c697070616765000000000000000000000000005f82015250565b5f6179f26013836165ed565b91506179fd826179be565b602082019050919050565b5f6020820190508181035f830152617a1f816179e6565b9050919050565b7f4e6f74206f776e65722c20746c636b2c206f72206375737464000000000000005f82015250565b5f617a5a6019836165ed565b9150617a6582617a26565b602082019050919050565b5f6020820190508181035f830152617a8781617a4e565b9050919050565b617a9781616af5565b82525050565b5f604082019050617ab05f830185616242565b617abd6020830184617a8e565b9392505050565b7f4275796261636b206973207061757365640000000000000000000000000000005f82015250565b5f617af86011836165ed565b9150617b0382617ac4565b602082019050919050565b5f6020820190508181035f830152617b2581617aec565b9050919050565b7f496e73756620436f6c6c617420417661696c20466f722042424b0000000000005f82015250565b5f617b60601a836165ed565b9150617b6b82617b2c565b602082019050919050565b5f6020820190508181035f830152617b8d81617b54565b9050919050565b7f5a65726f206164647265737320646574656374656400000000000000000000005f82015250565b5f617bc86015836165ed565b9150617bd382617b94565b602082019050919050565b5f6020820190508181035f830152617bf581617bbc565b9050919050565b7f496e76616c696420414d4f0000000000000000000000000000000000000000005f82015250565b5f617c30600b836165ed565b9150617c3b82617bfc565b602082019050919050565b5f6020820190508181035f830152617c5d81617c24565b9050919050565b7f536166654d6174683a206d756c7469706c69636174696f6e206f766572666c6f5f8201527f7700000000000000000000000000000000000000000000000000000000000000602082015250565b5f617cbe6021836165ed565b9150617cc982617c64565b604082019050919050565b5f6020820190508181035f830152617ceb81617cb2565b9050919050565b7f536166654d6174683a206164646974696f6e206f766572666c6f7700000000005f82015250565b5f617d26601b836165ed565b9150617d3182617cf2565b602082019050919050565b5f6020820190508181035f830152617d5381617d1a565b9050919050565b5f81519050919050565b5f81905092915050565b5f617d7882617d5a565b617d828185617d64565b9350617d928185602086016165fd565b80840191505092915050565b5f617da98284617d6e565b915081905092915050565b7f5472616e7366657248656c7065723a205452414e534645525f46524f4d5f46415f8201527f494c454400000000000000000000000000000000000000000000000000000000602082015250565b5f617e0e6024836165ed565b9150617e1982617db4565b604082019050919050565b5f6020820190508181035f830152617e3b81617e02565b9050919050565b7f5472616e7366657248656c7065723a205452414e534645525f4641494c4544005f82015250565b5f617e76601f836165ed565b9150617e8182617e42565b602082019050919050565b5f6020820190508181035f830152617ea381617e6a565b9050919050565b5f617eb482616239565b9150617ebf83616239565b9250828203905081811115617ed757617ed6616b96565b5b9291505056fea264697066735822122010bdd9d1054c6ebc61547b164476e0fdbd1b5ef522b0ec0071e150deaeae731464736f6c63430008150033",
			"opcodes": "PUSH1 0x80 PUSH1 0x40 MSTORE PUSH20 0xC40347E09993FCB4E32DA3741B16D066BD829D61 PUSH1 0x4 PUSH0 PUSH2 0x100 EXP DUP2 SLOAD DUP2 PUSH20 0xFFFFFFFFFFFFFFFFFFFFFFFFFFFFFFFFFFFFFFFF MUL NOT AND SWAP1 DUP4 PUSH20 0xFFFFFFFFFFFFFFFFFFFFFFFFFFFFFFFFFFFFFFFF AND MUL OR SWAP1 SSTORE POP PUSH20 0xC99394722325CCCC552B4BC62E8A0555238F59EB PUSH1 0x5 PUSH0 PUSH2 0x100 EXP DUP2 SLOAD DUP2 PUSH20 0xFFFFFFFFFFFFFFFFFFFFFFFFFFFFFFFFFFFFFFFF MUL NOT AND SWAP1 DUP4 PUSH20 0xFFFFFFFFFFFFFFFFFFFFFFFFFFFFFFFFFFFFFFFF AND MUL OR SWAP1 SSTORE POP PUSH20 0xA3E8204F7B6AB8A7E8234FC8D0E275F637CDCCF9 PUSH1 0x7 PUSH0 PUSH2 0x100 EXP DUP2 SLOAD DUP2 PUSH20 0xFFFFFFFFFFFFFFFFFFFFFFFFFFFFFFFFFFFFFFFF MUL NOT AND SWAP1 DUP4 PUSH20 0xFFFFFFFFFFFFFFFFFFFFFFFFFFFFFFFFFFFFFFFF AND MUL OR SWAP1 SSTORE POP PUSH20 0x7DA2EB962F2B735B28E8E7FF218B1ABDCE53AC7C PUSH1 0x8 PUSH0 PUSH2 0x100 EXP DUP2 SLOAD DUP2 PUSH20 0xFFFFFFFFFFFFFFFFFFFFFFFFFFFFFFFFFFFFFFFF MUL NOT AND SWAP1 DUP4 PUSH20 0xFFFFFFFFFFFFFFFFFFFFFFFFFFFFFFFFFFFFFFFF AND MUL OR SWAP1 SSTORE POP PUSH20 0x551717D0D483D38A302FA4E48571450476597EF6 PUSH1 0x9 PUSH0 PUSH2 0x100 EXP DUP2 SLOAD DUP2 PUSH20 0xFFFFFFFFFFFFFFFFFFFFFFFFFFFFFFFFFFFFFFFF MUL NOT AND SWAP1 DUP4 PUSH20 0xFFFFFFFFFFFFFFFFFFFFFFFFFFFFFFFFFFFFFFFF AND MUL OR SWAP1 SSTORE POP PUSH1 0x2 PUSH1 0x1A SSTORE PUSH3 0xF1B30 PUSH1 0x1B SSTORE PUSH3 0xF6950 PUSH1 0x1C SSTORE PUSH9 0x3635C9ADC5DEA00000 PUSH1 0x1E SSTORE PUSH9 0x3635C9ADC5DEA00000 PUSH1 0x20 SSTORE CALLVALUE DUP1 ISZERO PUSH3 0x1E1 JUMPI PUSH0 DUP1 REVERT JUMPDEST POP PUSH1 0x40 MLOAD PUSH3 0x9656 CODESIZE SUB DUP1 PUSH3 0x9656 DUP4 CODECOPY DUP2 DUP2 ADD PUSH1 0x40 MSTORE DUP2 ADD SWAP1 PUSH3 0x207 SWAP2 SWAP1 PUSH3 0xF83 JUMP JUMPDEST DUP7 PUSH0 PUSH20 0xFFFFFFFFFFFFFFFFFFFFFFFFFFFFFFFFFFFFFFFF AND DUP2 PUSH20 0xFFFFFFFFFFFFFFFFFFFFFFFFFFFFFFFFFFFFFFFF AND SUB PUSH3 0x279 JUMPI PUSH1 0x40 MLOAD PUSH32 0x8C379A000000000000000000000000000000000000000000000000000000000 DUP2 MSTORE PUSH1 0x4 ADD PUSH3 0x270 SWAP1 PUSH3 0x10EC JUMP JUMPDEST PUSH1 0x40 MLOAD DUP1 SWAP2 SUB SWAP1 REVERT JUMPDEST DUP1 PUSH0 DUP1 PUSH2 0x100 EXP DUP2 SLOAD DUP2 PUSH20 0xFFFFFFFFFFFFFFFFFFFFFFFFFFFFFFFFFFFFFFFF MUL NOT AND SWAP1 DUP4 PUSH20 0xFFFFFFFFFFFFFFFFFFFFFFFFFFFFFFFFFFFFFFFF AND MUL OR SWAP1 SSTORE POP PUSH32 0xB532073B38C83145E3E5135377A08BF9AAB55BC0FD7C1179CD4FB995D2A5159C PUSH0 DUP3 PUSH1 0x40 MLOAD PUSH3 0x2EB SWAP3 SWAP2 SWAP1 PUSH3 0x111D JUMP JUMPDEST PUSH1 0x40 MLOAD DUP1 SWAP2 SUB SWAP1 LOG1 POP DUP5 PUSH1 0x2 PUSH0 PUSH2 0x100 EXP DUP2 SLOAD DUP2 PUSH20 0xFFFFFFFFFFFFFFFFFFFFFFFFFFFFFFFFFFFFFFFF MUL NOT AND SWAP1 DUP4 PUSH20 0xFFFFFFFFFFFFFFFFFFFFFFFFFFFFFFFFFFFFFFFF AND MUL OR SWAP1 SSTORE POP DUP6 PUSH1 0x3 PUSH0 PUSH2 0x100 EXP DUP2 SLOAD DUP2 PUSH20 0xFFFFFFFFFFFFFFFFFFFFFFFFFFFFFFFFFFFFFFFF MUL NOT AND SWAP1 DUP4 PUSH20 0xFFFFFFFFFFFFFFFFFFFFFFFFFFFFFFFFFFFFFFFF AND MUL OR SWAP1 SSTORE POP DUP4 PUSH1 0xD PUSH0 PUSH2 0x100 EXP DUP2 SLOAD DUP2 PUSH20 0xFFFFFFFFFFFFFFFFFFFFFFFFFFFFFFFFFFFFFFFF MUL NOT AND SWAP1 DUP4 PUSH20 0xFFFFFFFFFFFFFFFFFFFFFFFFFFFFFFFFFFFFFFFF AND MUL OR SWAP1 SSTORE POP DUP3 PUSH1 0xE SWAP1 DUP1 MLOAD SWAP1 PUSH1 0x20 ADD SWAP1 PUSH3 0x3CC SWAP3 SWAP2 SWAP1 PUSH3 0xBA1 JUMP JUMPDEST POP PUSH0 JUMPDEST DUP4 MLOAD DUP2 LT ISZERO PUSH3 0x8F4 JUMPI DUP1 PUSH1 0x13 PUSH0 DUP7 DUP5 DUP2 MLOAD DUP2 LT PUSH3 0x3F3 JUMPI PUSH3 0x3F2 PUSH3 0x1148 JUMP JUMPDEST JUMPDEST PUSH1 0x20 MUL PUSH1 0x20 ADD ADD MLOAD PUSH20 0xFFFFFFFFFFFFFFFFFFFFFFFFFFFFFFFFFFFFFFFF AND PUSH20 0xFFFFFFFFFFFFFFFFFFFFFFFFFFFFFFFFFFFFFFFF AND DUP2 MSTORE PUSH1 0x20 ADD SWAP1 DUP2 MSTORE PUSH1 0x20 ADD PUSH0 KECCAK256 DUP2 SWAP1 SSTORE POP PUSH0 PUSH1 0x14 PUSH0 DUP7 DUP5 DUP2 MLOAD DUP2 LT PUSH3 0x452 JUMPI PUSH3 0x451 PUSH3 0x1148 JUMP JUMPDEST JUMPDEST PUSH1 0x20 MUL PUSH1 0x20 ADD ADD MLOAD PUSH20 0xFFFFFFFFFFFFFFFFFFFFFFFFFFFFFFFFFFFFFFFF AND PUSH20 0xFFFFFFFFFFFFFFFFFFFFFFFFFFFFFFFFFFFFFFFF AND DUP2 MSTORE PUSH1 0x20 ADD SWAP1 DUP2 MSTORE PUSH1 0x20 ADD PUSH0 KECCAK256 PUSH0 PUSH2 0x100 EXP DUP2 SLOAD DUP2 PUSH1 0xFF MUL NOT AND SWAP1 DUP4 ISZERO ISZERO MUL OR SWAP1 SSTORE POP PUSH1 0x10 PUSH3 0x550 DUP6 DUP4 DUP2 MLOAD DUP2 LT PUSH3 0x4C5 JUMPI PUSH3 0x4C4 PUSH3 0x1148 JUMP JUMPDEST JUMPDEST PUSH1 0x20 MUL PUSH1 0x20 ADD ADD MLOAD PUSH20 0xFFFFFFFFFFFFFFFFFFFFFFFFFFFFFFFFFFFFFFFF AND PUSH4 0x313CE567 PUSH1 0x40 MLOAD DUP2 PUSH4 0xFFFFFFFF AND PUSH1 0xE0 SHL DUP2 MSTORE PUSH1 0x4 ADD PUSH1 0x20 PUSH1 0x40 MLOAD DUP1 DUP4 SUB DUP2 DUP7 GAS STATICCALL ISZERO DUP1 ISZERO PUSH3 0x516 JUMPI RETURNDATASIZE PUSH0 DUP1 RETURNDATACOPY RETURNDATASIZE PUSH0 REVERT JUMPDEST POP POP POP POP PUSH1 0x40 MLOAD RETURNDATASIZE PUSH1 0x1F NOT PUSH1 0x1F DUP3 ADD AND DUP3 ADD DUP1 PUSH1 0x40 MSTORE POP DUP2 ADD SWAP1 PUSH3 0x53C SWAP2 SWAP1 PUSH3 0x11B0 JUMP JUMPDEST PUSH1 0xFF AND PUSH1 0x12 PUSH3 0xAE9 PUSH1 0x20 SHL SWAP1 SWAP2 SWAP1 PUSH1 0x20 SHR JUMP JUMPDEST SWAP1 DUP1 PUSH1 0x1 DUP2 SLOAD ADD DUP1 DUP3 SSTORE DUP1 SWAP2 POP POP PUSH1 0x1 SWAP1 SUB SWAP1 PUSH0 MSTORE PUSH1 0x20 PUSH0 KECCAK256 ADD PUSH0 SWAP1 SWAP2 SWAP1 SWAP2 SWAP1 SWAP2 POP SSTORE PUSH1 0xF DUP5 DUP3 DUP2 MLOAD DUP2 LT PUSH3 0x58B JUMPI PUSH3 0x58A PUSH3 0x1148 JUMP JUMPDEST JUMPDEST PUSH1 0x20 MUL PUSH1 0x20 ADD ADD MLOAD PUSH20 0xFFFFFFFFFFFFFFFFFFFFFFFFFFFFFFFFFFFFFFFF AND PUSH4 0x95D89B41 PUSH1 0x40 MLOAD DUP2 PUSH4 0xFFFFFFFF AND PUSH1 0xE0 SHL DUP2 MSTORE PUSH1 0x4 ADD PUSH0 PUSH1 0x40 MLOAD DUP1 DUP4 SUB DUP2 DUP7 GAS STATICCALL ISZERO DUP1 ISZERO PUSH3 0x5DB JUMPI RETURNDATASIZE PUSH0 DUP1 RETURNDATACOPY RETURNDATASIZE PUSH0 REVERT JUMPDEST POP POP POP POP PUSH1 0x40 MLOAD RETURNDATASIZE PUSH0 DUP3 RETURNDATACOPY RETURNDATASIZE PUSH1 0x1F NOT PUSH1 0x1F DUP3 ADD AND DUP3 ADD DUP1 PUSH1 0x40 MSTORE POP DUP2 ADD SWAP1 PUSH3 0x605 SWAP2 SWAP1 PUSH3 0x12BF JUMP JUMPDEST SWAP1 DUP1 PUSH1 0x1 DUP2 SLOAD ADD DUP1 DUP3 SSTORE DUP1 SWAP2 POP POP PUSH1 0x1 SWAP1 SUB SWAP1 PUSH0 MSTORE PUSH1 0x20 PUSH0 KECCAK256 ADD PUSH0 SWAP1 SWAP2 SWAP1 SWAP2 SWAP1 SWAP2 POP SWAP1 DUP2 PUSH3 0x635 SWAP2 SWAP1 PUSH3 0x153C JUMP JUMPDEST POP PUSH1 0x17 PUSH0 SWAP1 DUP1 PUSH1 0x1 DUP2 SLOAD ADD DUP1 DUP3 SSTORE DUP1 SWAP2 POP POP PUSH1 0x1 SWAP1 SUB SWAP1 PUSH0 MSTORE PUSH1 0x20 PUSH0 KECCAK256 ADD PUSH0 SWAP1 SWAP2 SWAP1 SWAP2 SWAP1 SWAP2 POP SSTORE PUSH1 0x12 PUSH3 0xF4240 SWAP1 DUP1 PUSH1 0x1 DUP2 SLOAD ADD DUP1 DUP3 SSTORE DUP1 SWAP2 POP POP PUSH1 0x1 SWAP1 SUB SWAP1 PUSH0 MSTORE PUSH1 0x20 PUSH0 KECCAK256 ADD PUSH0 SWAP1 SWAP2 SWAP1 SWAP2 SWAP1 SWAP2 POP SSTORE PUSH1 0x21 DUP3 PUSH0 DUP2 MLOAD DUP2 LT PUSH3 0x69D JUMPI PUSH3 0x69C PUSH3 0x1148 JUMP JUMPDEST JUMPDEST PUSH1 0x20 MUL PUSH1 0x20 ADD ADD MLOAD SWAP1 DUP1 PUSH1 0x1 DUP2 SLOAD ADD DUP1 DUP3 SSTORE DUP1 SWAP2 POP POP PUSH1 0x1 SWAP1 SUB SWAP1 PUSH0 MSTORE PUSH1 0x20 PUSH0 KECCAK256 ADD PUSH0 SWAP1 SWAP2 SWAP1 SWAP2 SWAP1 SWAP2 POP SSTORE PUSH1 0x22 DUP3 PUSH1 0x1 DUP2 MLOAD DUP2 LT PUSH3 0x6E1 JUMPI PUSH3 0x6E0 PUSH3 0x1148 JUMP JUMPDEST JUMPDEST PUSH1 0x20 MUL PUSH1 0x20 ADD ADD MLOAD SWAP1 DUP1 PUSH1 0x1 DUP2 SLOAD ADD DUP1 DUP3 SSTORE DUP1 SWAP2 POP POP PUSH1 0x1 SWAP1 SUB SWAP1 PUSH0 MSTORE PUSH1 0x20 PUSH0 KECCAK256 ADD PUSH0 SWAP1 SWAP2 SWAP1 SWAP2 SWAP1 SWAP2 POP SSTORE PUSH1 0x23 DUP3 PUSH1 0x2 DUP2 MLOAD DUP2 LT PUSH3 0x725 JUMPI PUSH3 0x724 PUSH3 0x1148 JUMP JUMPDEST JUMPDEST PUSH1 0x20 MUL PUSH1 0x20 ADD ADD MLOAD SWAP1 DUP1 PUSH1 0x1 DUP2 SLOAD ADD DUP1 DUP3 SSTORE DUP1 SWAP2 POP POP PUSH1 0x1 SWAP1 SUB SWAP1 PUSH0 MSTORE PUSH1 0x20 PUSH0 KECCAK256 ADD PUSH0 SWAP1 SWAP2 SWAP1 SWAP2 SWAP1 SWAP2 POP SSTORE PUSH1 0x24 DUP3 PUSH1 0x3 DUP2 MLOAD DUP2 LT PUSH3 0x769 JUMPI PUSH3 0x768 PUSH3 0x1148 JUMP JUMPDEST JUMPDEST PUSH1 0x20 MUL PUSH1 0x20 ADD ADD MLOAD SWAP1 DUP1 PUSH1 0x1 DUP2 SLOAD ADD DUP1 DUP3 SSTORE DUP1 SWAP2 POP POP PUSH1 0x1 SWAP1 SUB SWAP1 PUSH0 MSTORE PUSH1 0x20 PUSH0 KECCAK256 ADD PUSH0 SWAP1 SWAP2 SWAP1 SWAP2 SWAP1 SWAP2 POP SSTORE PUSH1 0x26 PUSH0 SWAP1 DUP1 PUSH1 0x1 DUP2 SLOAD ADD DUP1 DUP3 SSTORE DUP1 SWAP2 POP POP PUSH1 0x1 SWAP1 SUB SWAP1 PUSH0 MSTORE PUSH1 0x20 PUSH0 KECCAK256 SWAP1 PUSH1 0x20 SWAP2 DUP3 DUP3 DIV ADD SWAP2 SWAP1 MOD SWAP1 SWAP2 SWAP1 SWAP2 SWAP1 SWAP2 PUSH2 0x100 EXP DUP2 SLOAD DUP2 PUSH1 0xFF MUL NOT AND SWAP1 DUP4 ISZERO ISZERO MUL OR SWAP1 SSTORE POP PUSH1 0x27 PUSH0 SWAP1 DUP1 PUSH1 0x1 DUP2 SLOAD ADD DUP1 DUP3 SSTORE DUP1 SWAP2 POP POP PUSH1 0x1 SWAP1 SUB SWAP1 PUSH0 MSTORE PUSH1 0x20 PUSH0 KECCAK256 SWAP1 PUSH1 0x20 SWAP2 DUP3 DUP3 DIV ADD SWAP2 SWAP1 MOD SWAP1 SWAP2 SWAP1 SWAP2 SWAP1 SWAP2 PUSH2 0x100 EXP DUP2 SLOAD DUP2 PUSH1 0xFF MUL NOT AND SWAP1 DUP4 ISZERO ISZERO MUL OR SWAP1 SSTORE POP PUSH1 0x28 PUSH0 SWAP1 DUP1 PUSH1 0x1 DUP2 SLOAD ADD DUP1 DUP3 SSTORE DUP1 SWAP2 POP POP PUSH1 0x1 SWAP1 SUB SWAP1 PUSH0 MSTORE PUSH1 0x20 PUSH0 KECCAK256 SWAP1 PUSH1 0x20 SWAP2 DUP3 DUP3 DIV ADD SWAP2 SWAP1 MOD SWAP1 SWAP2 SWAP1 SWAP2 SWAP1 SWAP2 PUSH2 0x100 EXP DUP2 SLOAD DUP2 PUSH1 0xFF MUL NOT AND SWAP1 DUP4 ISZERO ISZERO MUL OR SWAP1 SSTORE POP PUSH1 0x29 PUSH0 SWAP1 DUP1 PUSH1 0x1 DUP2 SLOAD ADD DUP1 DUP3 SSTORE DUP1 SWAP2 POP POP PUSH1 0x1 SWAP1 SUB SWAP1 PUSH0 MSTORE PUSH1 0x20 PUSH0 KECCAK256 SWAP1 PUSH1 0x20 SWAP2 DUP3 DUP3 DIV ADD SWAP2 SWAP1 MOD SWAP1 SWAP2 SWAP1 SWAP2 SWAP1 SWAP2 PUSH2 0x100 EXP DUP2 SLOAD DUP2 PUSH1 0xFF MUL NOT AND SWAP1 DUP4 ISZERO ISZERO MUL OR SWAP1 SSTORE POP PUSH1 0x2A PUSH0 SWAP1 DUP1 PUSH1 0x1 DUP2 SLOAD ADD DUP1 DUP3 SSTORE DUP1 SWAP2 POP POP PUSH1 0x1 SWAP1 SUB SWAP1 PUSH0 MSTORE PUSH1 0x20 PUSH0 KECCAK256 SWAP1 PUSH1 0x20 SWAP2 DUP3 DUP3 DIV ADD SWAP2 SWAP1 MOD SWAP1 SWAP2 SWAP1 SWAP2 SWAP1 SWAP2 PUSH2 0x100 EXP DUP2 SLOAD DUP2 PUSH1 0xFF MUL NOT AND SWAP1 DUP4 ISZERO ISZERO MUL OR SWAP1 SSTORE POP DUP1 DUP1 PUSH3 0x8EB SWAP1 PUSH3 0x164D JUMP JUMPDEST SWAP2 POP POP PUSH3 0x3CF JUMP JUMPDEST POP DUP2 PUSH1 0x11 SWAP1 DUP1 MLOAD SWAP1 PUSH1 0x20 ADD SWAP1 PUSH3 0x90D SWAP3 SWAP2 SWAP1 PUSH3 0xC2D JUMP JUMPDEST POP PUSH1 0x7 PUSH0 SWAP1 SLOAD SWAP1 PUSH2 0x100 EXP SWAP1 DIV PUSH20 0xFFFFFFFFFFFFFFFFFFFFFFFFFFFFFFFFFFFFFFFF AND PUSH20 0xFFFFFFFFFFFFFFFFFFFFFFFFFFFFFFFFFFFFFFFF AND PUSH4 0x313CE567 PUSH1 0x40 MLOAD DUP2 PUSH4 0xFFFFFFFF AND PUSH1 0xE0 SHL DUP2 MSTORE PUSH1 0x4 ADD PUSH1 0x20 PUSH1 0x40 MLOAD DUP1 DUP4 SUB DUP2 DUP7 GAS STATICCALL ISZERO DUP1 ISZERO PUSH3 0x979 JUMPI RETURNDATASIZE PUSH0 DUP1 RETURNDATACOPY RETURNDATASIZE PUSH0 REVERT JUMPDEST POP POP POP POP PUSH1 0x40 MLOAD RETURNDATASIZE PUSH1 0x1F NOT PUSH1 0x1F DUP3 ADD AND DUP3 ADD DUP1 PUSH1 0x40 MSTORE POP DUP2 ADD SWAP1 PUSH3 0x99F SWAP2 SWAP1 PUSH3 0x11B0 JUMP JUMPDEST PUSH1 0xFF AND PUSH1 0xA DUP2 SWAP1 SSTORE POP PUSH1 0x8 PUSH0 SWAP1 SLOAD SWAP1 PUSH2 0x100 EXP SWAP1 DIV PUSH20 0xFFFFFFFFFFFFFFFFFFFFFFFFFFFFFFFFFFFFFFFF AND PUSH20 0xFFFFFFFFFFFFFFFFFFFFFFFFFFFFFFFFFFFFFFFF AND PUSH4 0x313CE567 PUSH1 0x40 MLOAD DUP2 PUSH4 0xFFFFFFFF AND PUSH1 0xE0 SHL DUP2 MSTORE PUSH1 0x4 ADD PUSH1 0x20 PUSH1 0x40 MLOAD DUP1 DUP4 SUB DUP2 DUP7 GAS STATICCALL ISZERO DUP1 ISZERO PUSH3 0xA13 JUMPI RETURNDATASIZE PUSH0 DUP1 RETURNDATACOPY RETURNDATASIZE PUSH0 REVERT JUMPDEST POP POP POP POP PUSH1 0x40 MLOAD RETURNDATASIZE PUSH1 0x1F NOT PUSH1 0x1F DUP3 ADD AND DUP3 ADD DUP1 PUSH1 0x40 MSTORE POP DUP2 ADD SWAP1 PUSH3 0xA39 SWAP2 SWAP1 PUSH3 0x11B0 JUMP JUMPDEST PUSH1 0xFF AND PUSH1 0xB DUP2 SWAP1 SSTORE POP PUSH1 0x9 PUSH0 SWAP1 SLOAD SWAP1 PUSH2 0x100 EXP SWAP1 DIV PUSH20 0xFFFFFFFFFFFFFFFFFFFFFFFFFFFFFFFFFFFFFFFF AND PUSH20 0xFFFFFFFFFFFFFFFFFFFFFFFFFFFFFFFFFFFFFFFF AND PUSH4 0x313CE567 PUSH1 0x40 MLOAD DUP2 PUSH4 0xFFFFFFFF AND PUSH1 0xE0 SHL DUP2 MSTORE PUSH1 0x4 ADD PUSH1 0x20 PUSH1 0x40 MLOAD DUP1 DUP4 SUB DUP2 DUP7 GAS STATICCALL ISZERO DUP1 ISZERO PUSH3 0xAAD JUMPI RETURNDATASIZE PUSH0 DUP1 RETURNDATACOPY RETURNDATASIZE PUSH0 REVERT JUMPDEST POP POP POP POP PUSH1 0x40 MLOAD RETURNDATASIZE PUSH1 0x1F NOT PUSH1 0x1F DUP3 ADD AND DUP3 ADD DUP1 PUSH1 0x40 MSTORE POP DUP2 ADD SWAP1 PUSH3 0xAD3 SWAP2 SWAP1 PUSH3 0x11B0 JUMP JUMPDEST PUSH1 0xFF AND PUSH1 0xC DUP2 SWAP1 SSTORE POP POP POP POP POP POP POP POP PUSH3 0x1735 JUMP JUMPDEST PUSH0 PUSH3 0xB32 DUP4 DUP4 PUSH1 0x40 MLOAD DUP1 PUSH1 0x40 ADD PUSH1 0x40 MSTORE DUP1 PUSH1 0x1E DUP2 MSTORE PUSH1 0x20 ADD PUSH32 0x536166654D6174683A207375627472616374696F6E206F766572666C6F770000 DUP2 MSTORE POP PUSH3 0xB3A PUSH1 0x20 SHL PUSH1 0x20 SHR JUMP JUMPDEST SWAP1 POP SWAP3 SWAP2 POP POP JUMP JUMPDEST PUSH0 DUP4 DUP4 GT ISZERO DUP3 SWAP1 PUSH3 0xB84 JUMPI PUSH1 0x40 MLOAD PUSH32 0x8C379A000000000000000000000000000000000000000000000000000000000 DUP2 MSTORE PUSH1 0x4 ADD PUSH3 0xB7B SWAP2 SWAP1 PUSH3 0x16D9 JUMP JUMPDEST PUSH1 0x40 MLOAD DUP1 SWAP2 SUB SWAP1 REVERT JUMPDEST POP PUSH0 DUP4 DUP6 PUSH3 0xB94 SWAP2 SWAP1 PUSH3 0x16FB JUMP JUMPDEST SWAP1 POP DUP1 SWAP2 POP POP SWAP4 SWAP3 POP POP POP JUMP JUMPDEST DUP3 DUP1 SLOAD DUP3 DUP3 SSTORE SWAP1 PUSH0 MSTORE PUSH1 0x20 PUSH0 KECCAK256 SWAP1 DUP2 ADD SWAP3 DUP3 ISZERO PUSH3 0xC1A JUMPI SWAP2 PUSH1 0x20 MUL DUP3 ADD JUMPDEST DUP3 DUP2 GT ISZERO PUSH3 0xC19 JUMPI DUP3 MLOAD DUP3 PUSH0 PUSH2 0x100 EXP DUP2 SLOAD DUP2 PUSH20 0xFFFFFFFFFFFFFFFFFFFFFFFFFFFFFFFFFFFFFFFF MUL NOT AND SWAP1 DUP4 PUSH20 0xFFFFFFFFFFFFFFFFFFFFFFFFFFFFFFFFFFFFFFFF AND MUL OR SWAP1 SSTORE POP SWAP2 PUSH1 0x20 ADD SWAP2 SWAP1 PUSH1 0x1 ADD SWAP1 PUSH3 0xBC0 JUMP JUMPDEST JUMPDEST POP SWAP1 POP PUSH3 0xC29 SWAP2 SWAP1 PUSH3 0xC7D JUMP JUMPDEST POP SWAP1 JUMP JUMPDEST DUP3 DUP1 SLOAD DUP3 DUP3 SSTORE SWAP1 PUSH0 MSTORE PUSH1 0x20 PUSH0 KECCAK256 SWAP1 DUP2 ADD SWAP3 DUP3 ISZERO PUSH3 0xC6A JUMPI SWAP2 PUSH1 0x20 MUL DUP3 ADD JUMPDEST DUP3 DUP2 GT ISZERO PUSH3 0xC69 JUMPI DUP3 MLOAD DUP3 SSTORE SWAP2 PUSH1 0x20 ADD SWAP2 SWAP1 PUSH1 0x1 ADD SWAP1 PUSH3 0xC4C JUMP JUMPDEST JUMPDEST POP SWAP1 POP PUSH3 0xC79 SWAP2 SWAP1 PUSH3 0xC7D JUMP JUMPDEST POP SWAP1 JUMP JUMPDEST JUMPDEST DUP1 DUP3 GT ISZERO PUSH3 0xC96 JUMPI PUSH0 DUP2 PUSH0 SWAP1 SSTORE POP PUSH1 0x1 ADD PUSH3 0xC7E JUMP JUMPDEST POP SWAP1 JUMP JUMPDEST PUSH0 PUSH1 0x40 MLOAD SWAP1 POP SWAP1 JUMP JUMPDEST PUSH0 DUP1 REVERT JUMPDEST PUSH0 DUP1 REVERT JUMPDEST PUSH0 PUSH20 0xFFFFFFFFFFFFFFFFFFFFFFFFFFFFFFFFFFFFFFFF DUP3 AND SWAP1 POP SWAP2 SWAP1 POP JUMP JUMPDEST PUSH0 PUSH3 0xCD6 DUP3 PUSH3 0xCAB JUMP JUMPDEST SWAP1 POP SWAP2 SWAP1 POP JUMP JUMPDEST PUSH3 0xCE8 DUP2 PUSH3 0xCCA JUMP JUMPDEST DUP2 EQ PUSH3 0xCF3 JUMPI PUSH0 DUP1 REVERT JUMPDEST POP JUMP JUMPDEST PUSH0 DUP2 MLOAD SWAP1 POP PUSH3 0xD06 DUP2 PUSH3 0xCDD JUMP JUMPDEST SWAP3 SWAP2 POP POP JUMP JUMPDEST PUSH0 DUP1 REVERT JUMPDEST PUSH0 PUSH1 0x1F NOT PUSH1 0x1F DUP4 ADD AND SWAP1 POP SWAP2 SWAP1 POP JUMP JUMPDEST PUSH32 0x4E487B7100000000000000000000000000000000000000000000000000000000 PUSH0 MSTORE PUSH1 0x41 PUSH1 0x4 MSTORE PUSH1 0x24 PUSH0 REVERT JUMPDEST PUSH3 0xD58 DUP3 PUSH3 0xD10 JUMP JUMPDEST DUP2 ADD DUP2 DUP2 LT PUSH8 0xFFFFFFFFFFFFFFFF DUP3 GT OR ISZERO PUSH3 0xD7A JUMPI PUSH3 0xD79 PUSH3 0xD20 JUMP JUMPDEST JUMPDEST DUP1 PUSH1 0x40 MSTORE POP POP POP JUMP JUMPDEST PUSH0 PUSH3 0xD8E PUSH3 0xC9A JUMP JUMPDEST SWAP1 POP PUSH3 0xD9C DUP3 DUP3 PUSH3 0xD4D JUMP JUMPDEST SWAP2 SWAP1 POP JUMP JUMPDEST PUSH0 PUSH8 0xFFFFFFFFFFFFFFFF DUP3 GT ISZERO PUSH3 0xDBE JUMPI PUSH3 0xDBD PUSH3 0xD20 JUMP JUMPDEST JUMPDEST PUSH1 0x20 DUP3 MUL SWAP1 POP PUSH1 0x20 DUP2 ADD SWAP1 POP SWAP2 SWAP1 POP JUMP JUMPDEST PUSH0 DUP1 REVERT JUMPDEST PUSH0 PUSH3 0xDE9 PUSH3 0xDE3 DUP5 PUSH3 0xDA1 JUMP JUMPDEST PUSH3 0xD83 JUMP JUMPDEST SWAP1 POP DUP1 DUP4 DUP3 MSTORE PUSH1 0x20 DUP3 ADD SWAP1 POP PUSH1 0x20 DUP5 MUL DUP4 ADD DUP6 DUP2 GT ISZERO PUSH3 0xE0F JUMPI PUSH3 0xE0E PUSH3 0xDCF JUMP JUMPDEST JUMPDEST DUP4 JUMPDEST DUP2 DUP2 LT ISZERO PUSH3 0xE3C JUMPI DUP1 PUSH3 0xE27 DUP9 DUP3 PUSH3 0xCF6 JUMP JUMPDEST DUP5 MSTORE PUSH1 0x20 DUP5 ADD SWAP4 POP POP PUSH1 0x20 DUP2 ADD SWAP1 POP PUSH3 0xE11 JUMP JUMPDEST POP POP POP SWAP4 SWAP3 POP POP POP JUMP JUMPDEST PUSH0 DUP3 PUSH1 0x1F DUP4 ADD SLT PUSH3 0xE5D JUMPI PUSH3 0xE5C PUSH3 0xD0C JUMP JUMPDEST JUMPDEST DUP2 MLOAD PUSH3 0xE6F DUP5 DUP3 PUSH1 0x20 DUP7 ADD PUSH3 0xDD3 JUMP JUMPDEST SWAP2 POP POP SWAP3 SWAP2 POP POP JUMP JUMPDEST PUSH0 PUSH8 0xFFFFFFFFFFFFFFFF DUP3 GT ISZERO PUSH3 0xE95 JUMPI PUSH3 0xE94 PUSH3 0xD20 JUMP JUMPDEST JUMPDEST PUSH1 0x20 DUP3 MUL SWAP1 POP PUSH1 0x20 DUP2 ADD SWAP1 POP SWAP2 SWAP1 POP JUMP JUMPDEST PUSH0 DUP2 SWAP1 POP SWAP2 SWAP1 POP JUMP JUMPDEST PUSH3 0xEBA DUP2 PUSH3 0xEA6 JUMP JUMPDEST DUP2 EQ PUSH3 0xEC5 JUMPI PUSH0 DUP1 REVERT JUMPDEST POP JUMP JUMPDEST PUSH0 DUP2 MLOAD SWAP1 POP PUSH3 0xED8 DUP2 PUSH3 0xEAF JUMP JUMPDEST SWAP3 SWAP2 POP POP JUMP JUMPDEST PUSH0 PUSH3 0xEF4 PUSH3 0xEEE DUP5 PUSH3 0xE78 JUMP JUMPDEST PUSH3 0xD83 JUMP JUMPDEST SWAP1 POP DUP1 DUP4 DUP3 MSTORE PUSH1 0x20 DUP3 ADD SWAP1 POP PUSH1 0x20 DUP5 MUL DUP4 ADD DUP6 DUP2 GT ISZERO PUSH3 0xF1A JUMPI PUSH3 0xF19 PUSH3 0xDCF JUMP JUMPDEST JUMPDEST DUP4 JUMPDEST DUP2 DUP2 LT ISZERO PUSH3 0xF47 JUMPI DUP1 PUSH3 0xF32 DUP9 DUP3 PUSH3 0xEC8 JUMP JUMPDEST DUP5 MSTORE PUSH1 0x20 DUP5 ADD SWAP4 POP POP PUSH1 0x20 DUP2 ADD SWAP1 POP PUSH3 0xF1C JUMP JUMPDEST POP POP POP SWAP4 SWAP3 POP POP POP JUMP JUMPDEST PUSH0 DUP3 PUSH1 0x1F DUP4 ADD SLT PUSH3 0xF68 JUMPI PUSH3 0xF67 PUSH3 0xD0C JUMP JUMPDEST JUMPDEST DUP2 MLOAD PUSH3 0xF7A DUP5 DUP3 PUSH1 0x20 DUP7 ADD PUSH3 0xEDE JUMP JUMPDEST SWAP2 POP POP SWAP3 SWAP2 POP POP JUMP JUMPDEST PUSH0 DUP1 PUSH0 DUP1 PUSH0 DUP1 PUSH0 PUSH1 0xE0 DUP9 DUP11 SUB SLT ISZERO PUSH3 0xFA1 JUMPI PUSH3 0xFA0 PUSH3 0xCA3 JUMP JUMPDEST JUMPDEST PUSH0 PUSH3 0xFB0 DUP11 DUP3 DUP12 ADD PUSH3 0xCF6 JUMP JUMPDEST SWAP8 POP POP PUSH1 0x20 PUSH3 0xFC3 DUP11 DUP3 DUP12 ADD PUSH3 0xCF6 JUMP JUMPDEST SWAP7 POP POP PUSH1 0x40 PUSH3 0xFD6 DUP11 DUP3 DUP12 ADD PUSH3 0xCF6 JUMP JUMPDEST SWAP6 POP POP PUSH1 0x60 PUSH3 0xFE9 DUP11 DUP3 DUP12 ADD PUSH3 0xCF6 JUMP JUMPDEST SWAP5 POP POP PUSH1 0x80 DUP9 ADD MLOAD PUSH8 0xFFFFFFFFFFFFFFFF DUP2 GT ISZERO PUSH3 0x100D JUMPI PUSH3 0x100C PUSH3 0xCA7 JUMP JUMPDEST JUMPDEST PUSH3 0x101B DUP11 DUP3 DUP12 ADD PUSH3 0xE46 JUMP JUMPDEST SWAP4 POP POP PUSH1 0xA0 DUP9 ADD MLOAD PUSH8 0xFFFFFFFFFFFFFFFF DUP2 GT ISZERO PUSH3 0x103F JUMPI PUSH3 0x103E PUSH3 0xCA7 JUMP JUMPDEST JUMPDEST PUSH3 0x104D DUP11 DUP3 DUP12 ADD PUSH3 0xF51 JUMP JUMPDEST SWAP3 POP POP PUSH1 0xC0 DUP9 ADD MLOAD PUSH8 0xFFFFFFFFFFFFFFFF DUP2 GT ISZERO PUSH3 0x1071 JUMPI PUSH3 0x1070 PUSH3 0xCA7 JUMP JUMPDEST JUMPDEST PUSH3 0x107F DUP11 DUP3 DUP12 ADD PUSH3 0xF51 JUMP JUMPDEST SWAP2 POP POP SWAP3 SWAP6 SWAP9 SWAP2 SWAP5 SWAP8 POP SWAP3 SWAP6 POP JUMP JUMPDEST PUSH0 DUP3 DUP3 MSTORE PUSH1 0x20 DUP3 ADD SWAP1 POP SWAP3 SWAP2 POP POP JUMP JUMPDEST PUSH32 0x4F776E657220616464726573732063616E6E6F74206265203000000000000000 PUSH0 DUP3 ADD MSTORE POP JUMP JUMPDEST PUSH0 PUSH3 0x10D4 PUSH1 0x19 DUP4 PUSH3 0x108E JUMP JUMPDEST SWAP2 POP PUSH3 0x10E1 DUP3 PUSH3 0x109E JUMP JUMPDEST PUSH1 0x20 DUP3 ADD SWAP1 POP SWAP2 SWAP1 POP JUMP JUMPDEST PUSH0 PUSH1 0x20 DUP3 ADD SWAP1 POP DUP2 DUP2 SUB PUSH0 DUP4 ADD MSTORE PUSH3 0x1105 DUP2 PUSH3 0x10C6 JUMP JUMPDEST SWAP1 POP SWAP2 SWAP1 POP JUMP JUMPDEST PUSH3 0x1117 DUP2 PUSH3 0xCCA JUMP JUMPDEST DUP3 MSTORE POP POP JUMP JUMPDEST PUSH0 PUSH1 0x40 DUP3 ADD SWAP1 POP PUSH3 0x1132 PUSH0 DUP4 ADD DUP6 PUSH3 0x110C JUMP JUMPDEST PUSH3 0x1141 PUSH1 0x20 DUP4 ADD DUP5 PUSH3 0x110C JUMP JUMPDEST SWAP4 SWAP3 POP POP POP JUMP JUMPDEST PUSH32 0x4E487B7100000000000000000000000000000000000000000000000000000000 PUSH0 MSTORE PUSH1 0x32 PUSH1 0x4 MSTORE PUSH1 0x24 PUSH0 REVERT JUMPDEST PUSH0 PUSH1 0xFF DUP3 AND SWAP1 POP SWAP2 SWAP1 POP JUMP JUMPDEST PUSH3 0x118C DUP2 PUSH3 0x1175 JUMP JUMPDEST DUP2 EQ PUSH3 0x1197 JUMPI PUSH0 DUP1 REVERT JUMPDEST POP JUMP JUMPDEST PUSH0 DUP2 MLOAD SWAP1 POP PUSH3 0x11AA DUP2 PUSH3 0x1181 JUMP JUMPDEST SWAP3 SWAP2 POP POP JUMP JUMPDEST PUSH0 PUSH1 0x20 DUP3 DUP5 SUB SLT ISZERO PUSH3 0x11C8 JUMPI PUSH3 0x11C7 PUSH3 0xCA3 JUMP JUMPDEST JUMPDEST PUSH0 PUSH3 0x11D7 DUP5 DUP3 DUP6 ADD PUSH3 0x119A JUMP JUMPDEST SWAP2 POP POP SWAP3 SWAP2 POP POP JUMP JUMPDEST PUSH0 DUP1 REVERT JUMPDEST PUSH0 PUSH8 0xFFFFFFFFFFFFFFFF DUP3 GT ISZERO PUSH3 0x1201 JUMPI PUSH3 0x1200 PUSH3 0xD20 JUMP JUMPDEST JUMPDEST PUSH3 0x120C DUP3 PUSH3 0xD10 JUMP JUMPDEST SWAP1 POP PUSH1 0x20 DUP2 ADD SWAP1 POP SWAP2 SWAP1 POP JUMP JUMPDEST PUSH0 JUMPDEST DUP4 DUP2 LT ISZERO PUSH3 0x1238 JUMPI DUP1 DUP3 ADD MLOAD DUP2 DUP5 ADD MSTORE PUSH1 0x20 DUP2 ADD SWAP1 POP PUSH3 0x121B JUMP JUMPDEST PUSH0 DUP5 DUP5 ADD MSTORE POP POP POP POP JUMP JUMPDEST PUSH0 PUSH3 0x1259 PUSH3 0x1253 DUP5 PUSH3 0x11E4 JUMP JUMPDEST PUSH3 0xD83 JUMP JUMPDEST SWAP1 POP DUP3 DUP2 MSTORE PUSH1 0x20 DUP2 ADD DUP5 DUP5 DUP5 ADD GT ISZERO PUSH3 0x1278 JUMPI PUSH3 0x1277 PUSH3 0x11E0 JUMP JUMPDEST JUMPDEST PUSH3 0x1285 DUP5 DUP3 DUP6 PUSH3 0x1219 JUMP JUMPDEST POP SWAP4 SWAP3 POP POP POP JUMP JUMPDEST PUSH0 DUP3 PUSH1 0x1F DUP4 ADD SLT PUSH3 0x12A4 JUMPI PUSH3 0x12A3 PUSH3 0xD0C JUMP JUMPDEST JUMPDEST DUP2 MLOAD PUSH3 0x12B6 DUP5 DUP3 PUSH1 0x20 DUP7 ADD PUSH3 0x1243 JUMP JUMPDEST SWAP2 POP POP SWAP3 SWAP2 POP POP JUMP JUMPDEST PUSH0 PUSH1 0x20 DUP3 DUP5 SUB SLT ISZERO PUSH3 0x12D7 JUMPI PUSH3 0x12D6 PUSH3 0xCA3 JUMP JUMPDEST JUMPDEST PUSH0 DUP3 ADD MLOAD PUSH8 0xFFFFFFFFFFFFFFFF DUP2 GT ISZERO PUSH3 0x12F7 JUMPI PUSH3 0x12F6 PUSH3 0xCA7 JUMP JUMPDEST JUMPDEST PUSH3 0x1305 DUP5 DUP3 DUP6 ADD PUSH3 0x128D JUMP JUMPDEST SWAP2 POP POP SWAP3 SWAP2 POP POP JUMP JUMPDEST PUSH0 DUP2 MLOAD SWAP1 POP SWAP2 SWAP1 POP JUMP JUMPDEST PUSH32 0x4E487B7100000000000000000000000000000000000000000000000000000000 PUSH0 MSTORE PUSH1 0x22 PUSH1 0x4 MSTORE PUSH1 0x24 PUSH0 REVERT JUMPDEST PUSH0 PUSH1 0x2 DUP3 DIV SWAP1 POP PUSH1 0x1 DUP3 AND DUP1 PUSH3 0x135D JUMPI PUSH1 0x7F DUP3 AND SWAP2 POP JUMPDEST PUSH1 0x20 DUP3 LT DUP2 SUB PUSH3 0x1373 JUMPI PUSH3 0x1372 PUSH3 0x1318 JUMP JUMPDEST JUMPDEST POP SWAP2 SWAP1 POP JUMP JUMPDEST PUSH0 DUP2 SWAP1 POP DUP2 PUSH0 MSTORE PUSH1 0x20 PUSH0 KECCAK256 SWAP1 POP SWAP2 SWAP1 POP JUMP JUMPDEST PUSH0 PUSH1 0x20 PUSH1 0x1F DUP4 ADD DIV SWAP1 POP SWAP2 SWAP1 POP JUMP JUMPDEST PUSH0 DUP3 DUP3 SHL SWAP1 POP SWAP3 SWAP2 POP POP JUMP JUMPDEST PUSH0 PUSH1 0x8 DUP4 MUL PUSH3 0x13D7 PUSH32 0xFFFFFFFFFFFFFFFFFFFFFFFFFFFFFFFFFFFFFFFFFFFFFFFFFFFFFFFFFFFFFFFF DUP3 PUSH3 0x139A JUMP JUMPDEST PUSH3 0x13E3 DUP7 DUP4 PUSH3 0x139A JUMP JUMPDEST SWAP6 POP DUP1 NOT DUP5 AND SWAP4 POP DUP1 DUP7 AND DUP5 OR SWAP3 POP POP POP SWAP4 SWAP3 POP POP POP JUMP JUMPDEST PUSH0 DUP2 SWAP1 POP SWAP2 SWAP1 POP JUMP JUMPDEST PUSH0 PUSH3 0x1424 PUSH3 0x141E PUSH3 0x1418 DUP5 PUSH3 0xEA6 JUMP JUMPDEST PUSH3 0x13FB JUMP JUMPDEST PUSH3 0xEA6 JUMP JUMPDEST SWAP1 POP SWAP2 SWAP1 POP JUMP JUMPDEST PUSH0 DUP2 SWAP1 POP SWAP2 SWAP1 POP JUMP JUMPDEST PUSH3 0x143F DUP4 PUSH3 0x1404 JUMP JUMPDEST PUSH3 0x1457 PUSH3 0x144E DUP3 PUSH3 0x142B JUMP JUMPDEST DUP5 DUP5 SLOAD PUSH3 0x13A6 JUMP JUMPDEST DUP3 SSTORE POP POP POP POP JUMP JUMPDEST PUSH0 SWAP1 JUMP JUMPDEST PUSH3 0x146D PUSH3 0x145F JUMP JUMPDEST PUSH3 0x147A DUP2 DUP5 DUP5 PUSH3 0x1434 JUMP JUMPDEST POP POP POP JUMP JUMPDEST JUMPDEST DUP2 DUP2 LT ISZERO PUSH3 0x14A1 JUMPI PUSH3 0x1495 PUSH0 DUP3 PUSH3 0x1463 JUMP JUMPDEST PUSH1 0x1 DUP2 ADD SWAP1 POP PUSH3 0x1480 JUMP JUMPDEST POP POP JUMP JUMPDEST PUSH1 0x1F DUP3 GT ISZERO PUSH3 0x14F0 JUMPI PUSH3 0x14BA DUP2 PUSH3 0x1379 JUMP JUMPDEST PUSH3 0x14C5 DUP5 PUSH3 0x138B JUMP JUMPDEST DUP2 ADD PUSH1 0x20 DUP6 LT ISZERO PUSH3 0x14D5 JUMPI DUP2 SWAP1 POP JUMPDEST PUSH3 0x14ED PUSH3 0x14E4 DUP6 PUSH3 0x138B JUMP JUMPDEST DUP4 ADD DUP3 PUSH3 0x147F JUMP JUMPDEST POP POP JUMPDEST POP POP POP JUMP JUMPDEST PUSH0 DUP3 DUP3 SHR SWAP1 POP SWAP3 SWAP2 POP POP JUMP JUMPDEST PUSH0 PUSH3 0x1512 PUSH0 NOT DUP5 PUSH1 0x8 MUL PUSH3 0x14F5 JUMP JUMPDEST NOT DUP1 DUP4 AND SWAP2 POP POP SWAP3 SWAP2 POP POP JUMP JUMPDEST PUSH0 PUSH3 0x152C DUP4 DUP4 PUSH3 0x1501 JUMP JUMPDEST SWAP2 POP DUP3 PUSH1 0x2 MUL DUP3 OR SWAP1 POP SWAP3 SWAP2 POP POP JUMP JUMPDEST PUSH3 0x1547 DUP3 PUSH3 0x130E JUMP JUMPDEST PUSH8 0xFFFFFFFFFFFFFFFF DUP2 GT ISZERO PUSH3 0x1563 JUMPI PUSH3 0x1562 PUSH3 0xD20 JUMP JUMPDEST JUMPDEST PUSH3 0x156F DUP3 SLOAD PUSH3 0x1345 JUMP JUMPDEST PUSH3 0x157C DUP3 DUP3 DUP6 PUSH3 0x14A5 JUMP JUMPDEST PUSH0 PUSH1 0x20 SWAP1 POP PUSH1 0x1F DUP4 GT PUSH1 0x1 DUP2 EQ PUSH3 0x15B2 JUMPI PUSH0 DUP5 ISZERO PUSH3 0x159D JUMPI DUP3 DUP8 ADD MLOAD SWAP1 POP JUMPDEST PUSH3 0x15A9 DUP6 DUP3 PUSH3 0x151F JUMP JUMPDEST DUP7 SSTORE POP PUSH3 0x1618 JUMP JUMPDEST PUSH1 0x1F NOT DUP5 AND PUSH3 0x15C2 DUP7 PUSH3 0x1379 JUMP JUMPDEST PUSH0 JUMPDEST DUP3 DUP2 LT ISZERO PUSH3 0x15EB JUMPI DUP5 DUP10 ADD MLOAD DUP3 SSTORE PUSH1 0x1 DUP3 ADD SWAP2 POP PUSH1 0x20 DUP6 ADD SWAP5 POP PUSH1 0x20 DUP2 ADD SWAP1 POP PUSH3 0x15C4 JUMP JUMPDEST DUP7 DUP4 LT ISZERO PUSH3 0x160B JUMPI DUP5 DUP10 ADD MLOAD PUSH3 0x1607 PUSH1 0x1F DUP10 AND DUP3 PUSH3 0x1501 JUMP JUMPDEST DUP4 SSTORE POP JUMPDEST PUSH1 0x1 PUSH1 0x2 DUP9 MUL ADD DUP9 SSTORE POP POP POP JUMPDEST POP POP POP POP POP POP JUMP JUMPDEST PUSH32 0x4E487B7100000000000000000000000000000000000000000000000000000000 PUSH0 MSTORE PUSH1 0x11 PUSH1 0x4 MSTORE PUSH1 0x24 PUSH0 REVERT JUMPDEST PUSH0 PUSH3 0x1659 DUP3 PUSH3 0xEA6 JUMP JUMPDEST SWAP2 POP PUSH32 0xFFFFFFFFFFFFFFFFFFFFFFFFFFFFFFFFFFFFFFFFFFFFFFFFFFFFFFFFFFFFFFFF DUP3 SUB PUSH3 0x168E JUMPI PUSH3 0x168D PUSH3 0x1620 JUMP JUMPDEST JUMPDEST PUSH1 0x1 DUP3 ADD SWAP1 POP SWAP2 SWAP1 POP JUMP JUMPDEST PUSH0 PUSH3 0x16A5 DUP3 PUSH3 0x130E JUMP JUMPDEST PUSH3 0x16B1 DUP2 DUP6 PUSH3 0x108E JUMP JUMPDEST SWAP4 POP PUSH3 0x16C3 DUP2 DUP6 PUSH1 0x20 DUP7 ADD PUSH3 0x1219 JUMP JUMPDEST PUSH3 0x16CE DUP2 PUSH3 0xD10 JUMP JUMPDEST DUP5 ADD SWAP2 POP POP SWAP3 SWAP2 POP POP JUMP JUMPDEST PUSH0 PUSH1 0x20 DUP3 ADD SWAP1 POP DUP2 DUP2 SUB PUSH0 DUP4 ADD MSTORE PUSH3 0x16F3 DUP2 DUP5 PUSH3 0x1699 JUMP JUMPDEST SWAP1 POP SWAP3 SWAP2 POP POP JUMP JUMPDEST PUSH0 PUSH3 0x1707 DUP3 PUSH3 0xEA6 JUMP JUMPDEST SWAP2 POP PUSH3 0x1714 DUP4 PUSH3 0xEA6 JUMP JUMPDEST SWAP3 POP DUP3 DUP3 SUB SWAP1 POP DUP2 DUP2 GT ISZERO PUSH3 0x172F JUMPI PUSH3 0x172E PUSH3 0x1620 JUMP JUMPDEST JUMPDEST SWAP3 SWAP2 POP POP JUMP JUMPDEST PUSH2 0x7F13 DUP1 PUSH3 0x1743 PUSH0 CODECOPY PUSH0 RETURN INVALID PUSH1 0x80 PUSH1 0x40 MSTORE CALLVALUE DUP1 ISZERO PUSH2 0xF JUMPI PUSH0 DUP1 REVERT JUMPDEST POP PUSH1 0x4 CALLDATASIZE LT PUSH2 0x3B8 JUMPI PUSH0 CALLDATALOAD PUSH1 0xE0 SHR DUP1 PUSH4 0x79BA5097 GT PUSH2 0x1F2 JUMPI DUP1 PUSH4 0xBDACB303 GT PUSH2 0x118 JUMPI DUP1 PUSH4 0xE1D35B7A GT PUSH2 0xAB JUMPI DUP1 PUSH4 0xEDB493E5 GT PUSH2 0x7A JUMPI DUP1 PUSH4 0xEDB493E5 EQ PUSH2 0xBE8 JUMPI DUP1 PUSH4 0xEE88FC91 EQ PUSH2 0xC06 JUMPI DUP1 PUSH4 0xF4D93085 EQ PUSH2 0xC24 JUMPI DUP1 PUSH4 0xFF9F4FB5 EQ PUSH2 0xC42 JUMPI PUSH2 0x3B8 JUMP JUMPDEST DUP1 PUSH4 0xE1D35B7A EQ PUSH2 0xB60 JUMPI DUP1 PUSH4 0xE714DF31 EQ PUSH2 0xB90 JUMPI DUP1 PUSH4 0xEB99AFF8 EQ PUSH2 0xBAE JUMPI DUP1 PUSH4 0xECFD1A9E EQ PUSH2 0xBCC JUMPI PUSH2 0x3B8 JUMP JUMPDEST DUP1 PUSH4 0xDB1E5C9E GT PUSH2 0xE7 JUMPI DUP1 PUSH4 0xDB1E5C9E EQ PUSH2 0xAC6 JUMPI DUP1 PUSH4 0xDC6663C7 EQ PUSH2 0xAF6 JUMPI DUP1 PUSH4 0xDD7DEF73 EQ PUSH2 0xB14 JUMPI DUP1 PUSH4 0xDF95C3A7 EQ PUSH2 0xB44 JUMPI PUSH2 0x3B8 JUMP JUMPDEST DUP1 PUSH4 0xBDACB303 EQ PUSH2 0xA2E JUMPI DUP1 PUSH4 0xBE3449D4 EQ PUSH2 0xA4A JUMPI DUP1 PUSH4 0xC76417D7 EQ PUSH2 0xA7A JUMPI DUP1 PUSH4 0xCB668D02 EQ PUSH2 0xAAA JUMPI PUSH2 0x3B8 JUMP JUMPDEST DUP1 PUSH4 0x9AAE55A7 GT PUSH2 0x190 JUMPI DUP1 PUSH4 0xAF77BCBF GT PUSH2 0x15F JUMPI DUP1 PUSH4 0xAF77BCBF EQ PUSH2 0x994 JUMPI DUP1 PUSH4 0xB7DB6482 EQ PUSH2 0x9B0 JUMPI DUP1 PUSH4 0xB938AF74 EQ PUSH2 0x9E2 JUMPI DUP1 PUSH4 0xBBFADD6C EQ PUSH2 0xA12 JUMPI PUSH2 0x3B8 JUMP JUMPDEST DUP1 PUSH4 0x9AAE55A7 EQ PUSH2 0x8FB JUMPI DUP1 PUSH4 0x9D202BF8 EQ PUSH2 0x917 JUMPI DUP1 PUSH4 0xABAE2C4C EQ PUSH2 0x948 JUMPI DUP1 PUSH4 0xAEAF4F04 EQ PUSH2 0x978 JUMPI PUSH2 0x3B8 JUMP JUMPDEST DUP1 PUSH4 0x80E74D97 GT PUSH2 0x1CC JUMPI DUP1 PUSH4 0x80E74D97 EQ PUSH2 0x871 JUMPI DUP1 PUSH4 0x81F17467 EQ PUSH2 0x8A1 JUMPI DUP1 PUSH4 0x88E5A491 EQ PUSH2 0x8BF JUMPI DUP1 PUSH4 0x8DA5CB5B EQ PUSH2 0x8DD JUMPI PUSH2 0x3B8 JUMP JUMPDEST DUP1 PUSH4 0x79BA5097 EQ PUSH2 0x816 JUMPI DUP1 PUSH4 0x7C4A27E5 EQ PUSH2 0x820 JUMPI DUP1 PUSH4 0x7CE6112B EQ PUSH2 0x853 JUMPI PUSH2 0x3B8 JUMP JUMPDEST DUP1 PUSH4 0x350B5C64 GT PUSH2 0x2E2 JUMPI DUP1 PUSH4 0x50E82C7D GT PUSH2 0x275 JUMPI DUP1 PUSH4 0x5D447B31 GT PUSH2 0x244 JUMPI DUP1 PUSH4 0x5D447B31 EQ PUSH2 0x76A JUMPI DUP1 PUSH4 0x6283D27E EQ PUSH2 0x79A JUMPI DUP1 PUSH4 0x694677D3 EQ PUSH2 0x7CA JUMPI DUP1 PUSH4 0x7853C888 EQ PUSH2 0x7FA JUMPI PUSH2 0x3B8 JUMP JUMPDEST DUP1 PUSH4 0x50E82C7D EQ PUSH2 0x6BC JUMPI DUP1 PUSH4 0x510641EB EQ PUSH2 0x6EC JUMPI DUP1 PUSH4 0x53A47BB7 EQ PUSH2 0x71C JUMPI DUP1 PUSH4 0x58F45C3C EQ PUSH2 0x73A JUMPI PUSH2 0x3B8 JUMP JUMPDEST DUP1 PUSH4 0x444F17DC GT PUSH2 0x2B1 JUMPI DUP1 PUSH4 0x444F17DC EQ PUSH2 0x620 JUMPI DUP1 PUSH4 0x4BB4A730 EQ PUSH2 0x650 JUMPI DUP1 PUSH4 0x4C26203C EQ PUSH2 0x680 JUMPI DUP1 PUSH4 0x4C634934 EQ PUSH2 0x69E JUMPI PUSH2 0x3B8 JUMP JUMPDEST DUP1 PUSH4 0x350B5C64 EQ PUSH2 0x598 JUMPI DUP1 PUSH4 0x373453F4 EQ PUSH2 0x5C8 JUMPI DUP1 PUSH4 0x3A2B17A6 EQ PUSH2 0x5E6 JUMPI DUP1 PUSH4 0x403F3731 EQ PUSH2 0x604 JUMPI PUSH2 0x3B8 JUMP JUMPDEST DUP1 PUSH4 0x19949182 GT PUSH2 0x35A JUMPI DUP1 PUSH4 0x27803DCE GT PUSH2 0x329 JUMPI DUP1 PUSH4 0x27803DCE EQ PUSH2 0x4FE JUMPI DUP1 PUSH4 0x308E3157 EQ PUSH2 0x52E JUMPI DUP1 PUSH4 0x310149DA EQ PUSH2 0x55E JUMPI DUP1 PUSH4 0x3323DB17 EQ PUSH2 0x57C JUMPI PUSH2 0x3B8 JUMP JUMPDEST DUP1 PUSH4 0x19949182 EQ PUSH2 0x488 JUMPI DUP1 PUSH4 0x1B3FB85C EQ PUSH2 0x4A4 JUMPI DUP1 PUSH4 0x1FC9A9C2 EQ PUSH2 0x4C2 JUMPI DUP1 PUSH4 0x20A4CD57 EQ PUSH2 0x4E0 JUMPI PUSH2 0x3B8 JUMP JUMPDEST DUP1 PUSH4 0xF46402C GT PUSH2 0x396 JUMPI DUP1 PUSH4 0xF46402C EQ PUSH2 0x412 JUMPI DUP1 PUSH4 0x15128425 EQ PUSH2 0x430 JUMPI DUP1 PUSH4 0x1627540C EQ PUSH2 0x44E JUMPI DUP1 PUSH4 0x17284C94 EQ PUSH2 0x46A JUMPI PUSH2 0x3B8 JUMP JUMPDEST DUP1 PUSH4 0x1728B5D EQ PUSH2 0x3BC JUMPI DUP1 PUSH4 0x4A66B48 EQ PUSH2 0x3DA JUMPI DUP1 PUSH4 0x9D32681 EQ PUSH2 0x3F6 JUMPI JUMPDEST PUSH0 DUP1 REVERT JUMPDEST PUSH2 0x3C4 PUSH2 0xC60 JUMP JUMPDEST PUSH1 0x40 MLOAD PUSH2 0x3D1 SWAP2 SWAP1 PUSH2 0x6251 JUMP JUMPDEST PUSH1 0x40 MLOAD DUP1 SWAP2 SUB SWAP1 RETURN JUMPDEST PUSH2 0x3F4 PUSH1 0x4 DUP1 CALLDATASIZE SUB DUP2 ADD SWAP1 PUSH2 0x3EF SWAP2 SWAP1 PUSH2 0x6298 JUMP JUMPDEST PUSH2 0xC74 JUMP JUMPDEST STOP JUMPDEST PUSH2 0x410 PUSH1 0x4 DUP1 CALLDATASIZE SUB DUP2 ADD SWAP1 PUSH2 0x40B SWAP2 SWAP1 PUSH2 0x6369 JUMP JUMPDEST PUSH2 0xE22 JUMP JUMPDEST STOP JUMPDEST PUSH2 0x41A PUSH2 0x11C9 JUMP JUMPDEST PUSH1 0x40 MLOAD PUSH2 0x427 SWAP2 SWAP1 PUSH2 0x6251 JUMP JUMPDEST PUSH1 0x40 MLOAD DUP1 SWAP2 SUB SWAP1 RETURN JUMPDEST PUSH2 0x438 PUSH2 0x1317 JUMP JUMPDEST PUSH1 0x40 MLOAD PUSH2 0x445 SWAP2 SWAP1 PUSH2 0x6251 JUMP JUMPDEST PUSH1 0x40 MLOAD DUP1 SWAP2 SUB SWAP1 RETURN JUMPDEST PUSH2 0x468 PUSH1 0x4 DUP1 CALLDATASIZE SUB DUP2 ADD SWAP1 PUSH2 0x463 SWAP2 SWAP1 PUSH2 0x63B9 JUMP JUMPDEST PUSH2 0x131D JUMP JUMPDEST STOP JUMPDEST PUSH2 0x472 PUSH2 0x1424 JUMP JUMPDEST PUSH1 0x40 MLOAD PUSH2 0x47F SWAP2 SWAP1 PUSH2 0x6251 JUMP JUMPDEST PUSH1 0x40 MLOAD DUP1 SWAP2 SUB SWAP1 RETURN JUMPDEST PUSH2 0x4A2 PUSH1 0x4 DUP1 CALLDATASIZE SUB DUP2 ADD SWAP1 PUSH2 0x49D SWAP2 SWAP1 PUSH2 0x63E4 JUMP JUMPDEST PUSH2 0x14DE JUMP JUMPDEST STOP JUMPDEST PUSH2 0x4AC PUSH2 0x160D JUMP JUMPDEST PUSH1 0x40 MLOAD PUSH2 0x4B9 SWAP2 SWAP1 PUSH2 0x6251 JUMP JUMPDEST PUSH1 0x40 MLOAD DUP1 SWAP2 SUB SWAP1 RETURN JUMPDEST PUSH2 0x4CA PUSH2 0x1855 JUMP JUMPDEST PUSH1 0x40 MLOAD PUSH2 0x4D7 SWAP2 SWAP1 PUSH2 0x6251 JUMP JUMPDEST PUSH1 0x40 MLOAD DUP1 SWAP2 SUB SWAP1 RETURN JUMPDEST PUSH2 0x4E8 PUSH2 0x1AA5 JUMP JUMPDEST PUSH1 0x40 MLOAD PUSH2 0x4F5 SWAP2 SWAP1 PUSH2 0x647D JUMP JUMPDEST PUSH1 0x40 MLOAD DUP1 SWAP2 SUB SWAP1 RETURN JUMPDEST PUSH2 0x518 PUSH1 0x4 DUP1 CALLDATASIZE SUB DUP2 ADD SWAP1 PUSH2 0x513 SWAP2 SWAP1 PUSH2 0x6496 JUMP JUMPDEST PUSH2 0x1ACA JUMP JUMPDEST PUSH1 0x40 MLOAD PUSH2 0x525 SWAP2 SWAP1 PUSH2 0x6251 JUMP JUMPDEST PUSH1 0x40 MLOAD DUP1 SWAP2 SUB SWAP1 RETURN JUMPDEST PUSH2 0x548 PUSH1 0x4 DUP1 CALLDATASIZE SUB DUP2 ADD SWAP1 PUSH2 0x543 SWAP2 SWAP1 PUSH2 0x6496 JUMP JUMPDEST PUSH2 0x1AEA JUMP JUMPDEST PUSH1 0x40 MLOAD PUSH2 0x555 SWAP2 SWAP1 PUSH2 0x6251 JUMP JUMPDEST PUSH1 0x40 MLOAD DUP1 SWAP2 SUB SWAP1 RETURN JUMPDEST PUSH2 0x566 PUSH2 0x1BD3 JUMP JUMPDEST PUSH1 0x40 MLOAD PUSH2 0x573 SWAP2 SWAP1 PUSH2 0x6251 JUMP JUMPDEST PUSH1 0x40 MLOAD DUP1 SWAP2 SUB SWAP1 RETURN JUMPDEST PUSH2 0x596 PUSH1 0x4 DUP1 CALLDATASIZE SUB DUP2 ADD SWAP1 PUSH2 0x591 SWAP2 SWAP1 PUSH2 0x63B9 JUMP JUMPDEST PUSH2 0x1BD9 JUMP JUMPDEST STOP JUMPDEST PUSH2 0x5B2 PUSH1 0x4 DUP1 CALLDATASIZE SUB DUP2 ADD SWAP1 PUSH2 0x5AD SWAP2 SWAP1 PUSH2 0x64C1 JUMP JUMPDEST PUSH2 0x1D4B JUMP JUMPDEST PUSH1 0x40 MLOAD PUSH2 0x5BF SWAP2 SWAP1 PUSH2 0x6251 JUMP JUMPDEST PUSH1 0x40 MLOAD DUP1 SWAP2 SUB SWAP1 RETURN JUMPDEST PUSH2 0x5D0 PUSH2 0x1D6B JUMP JUMPDEST PUSH1 0x40 MLOAD PUSH2 0x5DD SWAP2 SWAP1 PUSH2 0x651F JUMP JUMPDEST PUSH1 0x40 MLOAD DUP1 SWAP2 SUB SWAP1 RETURN JUMPDEST PUSH2 0x5EE PUSH2 0x1D90 JUMP JUMPDEST PUSH1 0x40 MLOAD PUSH2 0x5FB SWAP2 SWAP1 PUSH2 0x647D JUMP JUMPDEST PUSH1 0x40 MLOAD DUP1 SWAP2 SUB SWAP1 RETURN JUMPDEST PUSH2 0x61E PUSH1 0x4 DUP1 CALLDATASIZE SUB DUP2 ADD SWAP1 PUSH2 0x619 SWAP2 SWAP1 PUSH2 0x63B9 JUMP JUMPDEST PUSH2 0x1DB5 JUMP JUMPDEST STOP JUMPDEST PUSH2 0x63A PUSH1 0x4 DUP1 CALLDATASIZE SUB DUP2 ADD SWAP1 PUSH2 0x635 SWAP2 SWAP1 PUSH2 0x63B9 JUMP JUMPDEST PUSH2 0x1F13 JUMP JUMPDEST PUSH1 0x40 MLOAD PUSH2 0x647 SWAP2 SWAP1 PUSH2 0x6552 JUMP JUMPDEST PUSH1 0x40 MLOAD DUP1 SWAP2 SUB SWAP1 RETURN JUMPDEST PUSH2 0x66A PUSH1 0x4 DUP1 CALLDATASIZE SUB DUP2 ADD SWAP1 PUSH2 0x665 SWAP2 SWAP1 PUSH2 0x6496 JUMP JUMPDEST PUSH2 0x1F30 JUMP JUMPDEST PUSH1 0x40 MLOAD PUSH2 0x677 SWAP2 SWAP1 PUSH2 0x657A JUMP JUMPDEST PUSH1 0x40 MLOAD DUP1 SWAP2 SUB SWAP1 RETURN JUMPDEST PUSH2 0x688 PUSH2 0x1F6B JUMP JUMPDEST PUSH1 0x40 MLOAD PUSH2 0x695 SWAP2 SWAP1 PUSH2 0x6251 JUMP JUMPDEST PUSH1 0x40 MLOAD DUP1 SWAP2 SUB SWAP1 RETURN JUMPDEST PUSH2 0x6A6 PUSH2 0x1F71 JUMP JUMPDEST PUSH1 0x40 MLOAD PUSH2 0x6B3 SWAP2 SWAP1 PUSH2 0x6251 JUMP JUMPDEST PUSH1 0x40 MLOAD DUP1 SWAP2 SUB SWAP1 RETURN JUMPDEST PUSH2 0x6D6 PUSH1 0x4 DUP1 CALLDATASIZE SUB DUP2 ADD SWAP1 PUSH2 0x6D1 SWAP2 SWAP1 PUSH2 0x6593 JUMP JUMPDEST PUSH2 0x1F77 JUMP JUMPDEST PUSH1 0x40 MLOAD PUSH2 0x6E3 SWAP2 SWAP1 PUSH2 0x6251 JUMP JUMPDEST PUSH1 0x40 MLOAD DUP1 SWAP2 SUB SWAP1 RETURN JUMPDEST PUSH2 0x706 PUSH1 0x4 DUP1 CALLDATASIZE SUB DUP2 ADD SWAP1 PUSH2 0x701 SWAP2 SWAP1 PUSH2 0x6496 JUMP JUMPDEST PUSH2 0x24B8 JUMP JUMPDEST PUSH1 0x40 MLOAD PUSH2 0x713 SWAP2 SWAP1 PUSH2 0x6251 JUMP JUMPDEST PUSH1 0x40 MLOAD DUP1 SWAP2 SUB SWAP1 RETURN JUMPDEST PUSH2 0x724 PUSH2 0x24CD JUMP JUMPDEST PUSH1 0x40 MLOAD PUSH2 0x731 SWAP2 SWAP1 PUSH2 0x657A JUMP JUMPDEST PUSH1 0x40 MLOAD DUP1 SWAP2 SUB SWAP1 RETURN JUMPDEST PUSH2 0x754 PUSH1 0x4 DUP1 CALLDATASIZE SUB DUP2 ADD SWAP1 PUSH2 0x74F SWAP2 SWAP1 PUSH2 0x6496 JUMP JUMPDEST PUSH2 0x24F2 JUMP JUMPDEST PUSH1 0x40 MLOAD PUSH2 0x761 SWAP2 SWAP1 PUSH2 0x666D JUMP JUMPDEST PUSH1 0x40 MLOAD DUP1 SWAP2 SUB SWAP1 RETURN JUMPDEST PUSH2 0x784 PUSH1 0x4 DUP1 CALLDATASIZE SUB DUP2 ADD SWAP1 PUSH2 0x77F SWAP2 SWAP1 PUSH2 0x63E4 JUMP JUMPDEST PUSH2 0x2598 JUMP JUMPDEST PUSH1 0x40 MLOAD PUSH2 0x791 SWAP2 SWAP1 PUSH2 0x6251 JUMP JUMPDEST PUSH1 0x40 MLOAD DUP1 SWAP2 SUB SWAP1 RETURN JUMPDEST PUSH2 0x7B4 PUSH1 0x4 DUP1 CALLDATASIZE SUB DUP2 ADD SWAP1 PUSH2 0x7AF SWAP2 SWAP1 PUSH2 0x6496 JUMP JUMPDEST PUSH2 0x261F JUMP JUMPDEST PUSH1 0x40 MLOAD PUSH2 0x7C1 SWAP2 SWAP1 PUSH2 0x6251 JUMP JUMPDEST PUSH1 0x40 MLOAD DUP1 SWAP2 SUB SWAP1 RETURN JUMPDEST PUSH2 0x7E4 PUSH1 0x4 DUP1 CALLDATASIZE SUB DUP2 ADD SWAP1 PUSH2 0x7DF SWAP2 SWAP1 PUSH2 0x63B9 JUMP JUMPDEST PUSH2 0x263F JUMP JUMPDEST PUSH1 0x40 MLOAD PUSH2 0x7F1 SWAP2 SWAP1 PUSH2 0x6857 JUMP JUMPDEST PUSH1 0x40 MLOAD DUP1 SWAP2 SUB SWAP1 RETURN JUMPDEST PUSH2 0x814 PUSH1 0x4 DUP1 CALLDATASIZE SUB DUP2 ADD SWAP1 PUSH2 0x80F SWAP2 SWAP1 PUSH2 0x63E4 JUMP JUMPDEST PUSH2 0x2A49 JUMP JUMPDEST STOP JUMPDEST PUSH2 0x81E PUSH2 0x2B78 JUMP JUMPDEST STOP JUMPDEST PUSH2 0x83A PUSH1 0x4 DUP1 CALLDATASIZE SUB DUP2 ADD SWAP1 PUSH2 0x835 SWAP2 SWAP1 PUSH2 0x68A1 JUMP JUMPDEST PUSH2 0x2D22 JUMP JUMPDEST PUSH1 0x40 MLOAD PUSH2 0x84A SWAP5 SWAP4 SWAP3 SWAP2 SWAP1 PUSH2 0x692A JUMP JUMPDEST PUSH1 0x40 MLOAD DUP1 SWAP2 SUB SWAP1 RETURN JUMPDEST PUSH2 0x85B PUSH2 0x348F JUMP JUMPDEST PUSH1 0x40 MLOAD PUSH2 0x868 SWAP2 SWAP1 PUSH2 0x657A JUMP JUMPDEST PUSH1 0x40 MLOAD DUP1 SWAP2 SUB SWAP1 RETURN JUMPDEST PUSH2 0x88B PUSH1 0x4 DUP1 CALLDATASIZE SUB DUP2 ADD SWAP1 PUSH2 0x886 SWAP2 SWAP1 PUSH2 0x63B9 JUMP JUMPDEST PUSH2 0x34B4 JUMP JUMPDEST PUSH1 0x40 MLOAD PUSH2 0x898 SWAP2 SWAP1 PUSH2 0x6552 JUMP JUMPDEST PUSH1 0x40 MLOAD DUP1 SWAP2 SUB SWAP1 RETURN JUMPDEST PUSH2 0x8A9 PUSH2 0x34D1 JUMP JUMPDEST PUSH1 0x40 MLOAD PUSH2 0x8B6 SWAP2 SWAP1 PUSH2 0x6A15 JUMP JUMPDEST PUSH1 0x40 MLOAD DUP1 SWAP2 SUB SWAP1 RETURN JUMPDEST PUSH2 0x8C7 PUSH2 0x355C JUMP JUMPDEST PUSH1 0x40 MLOAD PUSH2 0x8D4 SWAP2 SWAP1 PUSH2 0x6251 JUMP JUMPDEST PUSH1 0x40 MLOAD DUP1 SWAP2 SUB SWAP1 RETURN JUMPDEST PUSH2 0x8E5 PUSH2 0x36AA JUMP JUMPDEST PUSH1 0x40 MLOAD PUSH2 0x8F2 SWAP2 SWAP1 PUSH2 0x657A JUMP JUMPDEST PUSH1 0x40 MLOAD DUP1 SWAP2 SUB SWAP1 RETURN JUMPDEST PUSH2 0x915 PUSH1 0x4 DUP1 CALLDATASIZE SUB DUP2 ADD SWAP1 PUSH2 0x910 SWAP2 SWAP1 PUSH2 0x6496 JUMP JUMPDEST PUSH2 0x36CD JUMP JUMPDEST STOP JUMPDEST PUSH2 0x931 PUSH1 0x4 DUP1 CALLDATASIZE SUB DUP2 ADD SWAP1 PUSH2 0x92C SWAP2 SWAP1 PUSH2 0x6496 JUMP JUMPDEST PUSH2 0x394B JUMP JUMPDEST PUSH1 0x40 MLOAD PUSH2 0x93F SWAP3 SWAP2 SWAP1 PUSH2 0x6A35 JUMP JUMPDEST PUSH1 0x40 MLOAD DUP1 SWAP2 SUB SWAP1 RETURN JUMPDEST PUSH2 0x962 PUSH1 0x4 DUP1 CALLDATASIZE SUB DUP2 ADD SWAP1 PUSH2 0x95D SWAP2 SWAP1 PUSH2 0x63B9 JUMP JUMPDEST PUSH2 0x3D10 JUMP JUMPDEST PUSH1 0x40 MLOAD PUSH2 0x96F SWAP2 SWAP1 PUSH2 0x6251 JUMP JUMPDEST PUSH1 0x40 MLOAD DUP1 SWAP2 SUB SWAP1 RETURN JUMPDEST PUSH2 0x992 PUSH1 0x4 DUP1 CALLDATASIZE SUB DUP2 ADD SWAP1 PUSH2 0x98D SWAP2 SWAP1 PUSH2 0x6496 JUMP JUMPDEST PUSH2 0x3D25 JUMP JUMPDEST STOP JUMPDEST PUSH2 0x9AE PUSH1 0x4 DUP1 CALLDATASIZE SUB DUP2 ADD SWAP1 PUSH2 0x9A9 SWAP2 SWAP1 PUSH2 0x63E4 JUMP JUMPDEST PUSH2 0x3F6C JUMP JUMPDEST STOP JUMPDEST PUSH2 0x9CA PUSH1 0x4 DUP1 CALLDATASIZE SUB DUP2 ADD SWAP1 PUSH2 0x9C5 SWAP2 SWAP1 PUSH2 0x6A5C JUMP JUMPDEST PUSH2 0x40AE JUMP JUMPDEST PUSH1 0x40 MLOAD PUSH2 0x9D9 SWAP4 SWAP3 SWAP2 SWAP1 PUSH2 0x6AC0 JUMP JUMPDEST PUSH1 0x40 MLOAD DUP1 SWAP2 SUB SWAP1 RETURN JUMPDEST PUSH2 0x9FC PUSH1 0x4 DUP1 CALLDATASIZE SUB DUP2 ADD SWAP1 PUSH2 0x9F7 SWAP2 SWAP1 PUSH2 0x6496 JUMP JUMPDEST PUSH2 0x4A72 JUMP JUMPDEST PUSH1 0x40 MLOAD PUSH2 0xA09 SWAP2 SWAP1 PUSH2 0x6251 JUMP JUMPDEST PUSH1 0x40 MLOAD DUP1 SWAP2 SUB SWAP1 RETURN JUMPDEST PUSH2 0xA2C PUSH1 0x4 DUP1 CALLDATASIZE SUB DUP2 ADD SWAP1 PUSH2 0xA27 SWAP2 SWAP1 PUSH2 0x6B2B JUMP JUMPDEST PUSH2 0x4A92 JUMP JUMPDEST STOP JUMPDEST PUSH2 0xA48 PUSH1 0x4 DUP1 CALLDATASIZE SUB DUP2 ADD SWAP1 PUSH2 0xA43 SWAP2 SWAP1 PUSH2 0x63B9 JUMP JUMPDEST PUSH2 0x4E7F JUMP JUMPDEST STOP JUMPDEST PUSH2 0xA64 PUSH1 0x4 DUP1 CALLDATASIZE SUB DUP2 ADD SWAP1 PUSH2 0xA5F SWAP2 SWAP1 PUSH2 0x6593 JUMP JUMPDEST PUSH2 0x4FDD JUMP JUMPDEST PUSH1 0x40 MLOAD PUSH2 0xA71 SWAP2 SWAP1 PUSH2 0x6251 JUMP JUMPDEST PUSH1 0x40 MLOAD DUP1 SWAP2 SUB SWAP1 RETURN JUMPDEST PUSH2 0xA94 PUSH1 0x4 DUP1 CALLDATASIZE SUB DUP2 ADD SWAP1 PUSH2 0xA8F SWAP2 SWAP1 PUSH2 0x63B9 JUMP JUMPDEST PUSH2 0x5558 JUMP JUMPDEST PUSH1 0x40 MLOAD PUSH2 0xAA1 SWAP2 SWAP1 PUSH2 0x6251 JUMP JUMPDEST PUSH1 0x40 MLOAD DUP1 SWAP2 SUB SWAP1 RETURN JUMPDEST PUSH2 0xAC4 PUSH1 0x4 DUP1 CALLDATASIZE SUB DUP2 ADD SWAP1 PUSH2 0xABF SWAP2 SWAP1 PUSH2 0x63B9 JUMP JUMPDEST PUSH2 0x556D JUMP JUMPDEST STOP JUMPDEST PUSH2 0xAE0 PUSH1 0x4 DUP1 CALLDATASIZE SUB DUP2 ADD SWAP1 PUSH2 0xADB SWAP2 SWAP1 PUSH2 0x63B9 JUMP JUMPDEST PUSH2 0x5802 JUMP JUMPDEST PUSH1 0x40 MLOAD PUSH2 0xAED SWAP2 SWAP1 PUSH2 0x6251 JUMP JUMPDEST PUSH1 0x40 MLOAD DUP1 SWAP2 SUB SWAP1 RETURN JUMPDEST PUSH2 0xAFE PUSH2 0x5817 JUMP JUMPDEST PUSH1 0x40 MLOAD PUSH2 0xB0B SWAP2 SWAP1 PUSH2 0x657A JUMP JUMPDEST PUSH1 0x40 MLOAD DUP1 SWAP2 SUB SWAP1 RETURN JUMPDEST PUSH2 0xB2E PUSH1 0x4 DUP1 CALLDATASIZE SUB DUP2 ADD SWAP1 PUSH2 0xB29 SWAP2 SWAP1 PUSH2 0x6496 JUMP JUMPDEST PUSH2 0x583C JUMP JUMPDEST PUSH1 0x40 MLOAD PUSH2 0xB3B SWAP2 SWAP1 PUSH2 0x6251 JUMP JUMPDEST PUSH1 0x40 MLOAD DUP1 SWAP2 SUB SWAP1 RETURN JUMPDEST PUSH2 0xB5E PUSH1 0x4 DUP1 CALLDATASIZE SUB DUP2 ADD SWAP1 PUSH2 0xB59 SWAP2 SWAP1 PUSH2 0x63E4 JUMP JUMPDEST PUSH2 0x585C JUMP JUMPDEST STOP JUMPDEST PUSH2 0xB7A PUSH1 0x4 DUP1 CALLDATASIZE SUB DUP2 ADD SWAP1 PUSH2 0xB75 SWAP2 SWAP1 PUSH2 0x6496 JUMP JUMPDEST PUSH2 0x598B JUMP JUMPDEST PUSH1 0x40 MLOAD PUSH2 0xB87 SWAP2 SWAP1 PUSH2 0x6251 JUMP JUMPDEST PUSH1 0x40 MLOAD DUP1 SWAP2 SUB SWAP1 RETURN JUMPDEST PUSH2 0xB98 PUSH2 0x59A0 JUMP JUMPDEST PUSH1 0x40 MLOAD PUSH2 0xBA5 SWAP2 SWAP1 PUSH2 0x6251 JUMP JUMPDEST PUSH1 0x40 MLOAD DUP1 SWAP2 SUB SWAP1 RETURN JUMPDEST PUSH2 0xBB6 PUSH2 0x59A6 JUMP JUMPDEST PUSH1 0x40 MLOAD PUSH2 0xBC3 SWAP2 SWAP1 PUSH2 0x647D JUMP JUMPDEST PUSH1 0x40 MLOAD DUP1 SWAP2 SUB SWAP1 RETURN JUMPDEST PUSH2 0xBE6 PUSH1 0x4 DUP1 CALLDATASIZE SUB DUP2 ADD SWAP1 PUSH2 0xBE1 SWAP2 SWAP1 PUSH2 0x63E4 JUMP JUMPDEST PUSH2 0x59CB JUMP JUMPDEST STOP JUMPDEST PUSH2 0xBF0 PUSH2 0x5B0D JUMP JUMPDEST PUSH1 0x40 MLOAD PUSH2 0xBFD SWAP2 SWAP1 PUSH2 0x6251 JUMP JUMPDEST PUSH1 0x40 MLOAD DUP1 SWAP2 SUB SWAP1 RETURN JUMPDEST PUSH2 0xC0E PUSH2 0x5B81 JUMP JUMPDEST PUSH1 0x40 MLOAD PUSH2 0xC1B SWAP2 SWAP1 PUSH2 0x6251 JUMP JUMPDEST PUSH1 0x40 MLOAD DUP1 SWAP2 SUB SWAP1 RETURN JUMPDEST PUSH2 0xC2C PUSH2 0x5CCF JUMP JUMPDEST PUSH1 0x40 MLOAD PUSH2 0xC39 SWAP2 SWAP1 PUSH2 0x6251 JUMP JUMPDEST PUSH1 0x40 MLOAD DUP1 SWAP2 SUB SWAP1 RETURN JUMPDEST PUSH2 0xC4A PUSH2 0x5CD5 JUMP JUMPDEST PUSH1 0x40 MLOAD PUSH2 0xC57 SWAP2 SWAP1 PUSH2 0x6251 JUMP JUMPDEST PUSH1 0x40 MLOAD DUP1 SWAP2 SUB SWAP1 RETURN JUMPDEST PUSH0 PUSH2 0xE10 TIMESTAMP PUSH2 0xC6F SWAP2 SWAP1 PUSH2 0x6BC3 JUMP JUMPDEST SWAP1 POP SWAP1 JUMP JUMPDEST PUSH1 0x2 PUSH0 SWAP1 SLOAD SWAP1 PUSH2 0x100 EXP SWAP1 DIV PUSH20 0xFFFFFFFFFFFFFFFFFFFFFFFFFFFFFFFFFFFFFFFF AND PUSH20 0xFFFFFFFFFFFFFFFFFFFFFFFFFFFFFFFFFFFFFFFF AND CALLER PUSH20 0xFFFFFFFFFFFFFFFFFFFFFFFFFFFFFFFFFFFFFFFF AND EQ DUP1 PUSH2 0xD19 JUMPI POP PUSH0 DUP1 SLOAD SWAP1 PUSH2 0x100 EXP SWAP1 DIV PUSH20 0xFFFFFFFFFFFFFFFFFFFFFFFFFFFFFFFFFFFFFFFF AND PUSH20 0xFFFFFFFFFFFFFFFFFFFFFFFFFFFFFFFFFFFFFFFF AND CALLER PUSH20 0xFFFFFFFFFFFFFFFFFFFFFFFFFFFFFFFFFFFFFFFF AND EQ JUMPDEST PUSH2 0xD58 JUMPI PUSH1 0x40 MLOAD PUSH32 0x8C379A000000000000000000000000000000000000000000000000000000000 DUP2 MSTORE PUSH1 0x4 ADD PUSH2 0xD4F SWAP1 PUSH2 0x6C3D JUMP JUMPDEST PUSH1 0x40 MLOAD DUP1 SWAP2 SUB SWAP1 REVERT JUMPDEST DUP4 PUSH1 0x21 DUP7 DUP2 SLOAD DUP2 LT PUSH2 0xD6D JUMPI PUSH2 0xD6C PUSH2 0x6C5B JUMP JUMPDEST JUMPDEST SWAP1 PUSH0 MSTORE PUSH1 0x20 PUSH0 KECCAK256 ADD DUP2 SWAP1 SSTORE POP DUP3 PUSH1 0x22 DUP7 DUP2 SLOAD DUP2 LT PUSH2 0xD8E JUMPI PUSH2 0xD8D PUSH2 0x6C5B JUMP JUMPDEST JUMPDEST SWAP1 PUSH0 MSTORE PUSH1 0x20 PUSH0 KECCAK256 ADD DUP2 SWAP1 SSTORE POP DUP2 PUSH1 0x23 DUP7 DUP2 SLOAD DUP2 LT PUSH2 0xDAF JUMPI PUSH2 0xDAE PUSH2 0x6C5B JUMP JUMPDEST JUMPDEST SWAP1 PUSH0 MSTORE PUSH1 0x20 PUSH0 KECCAK256 ADD DUP2 SWAP1 SSTORE POP DUP1 PUSH1 0x24 DUP7 DUP2 SLOAD DUP2 LT PUSH2 0xDD0 JUMPI PUSH2 0xDCF PUSH2 0x6C5B JUMP JUMPDEST JUMPDEST SWAP1 PUSH0 MSTORE PUSH1 0x20 PUSH0 KECCAK256 ADD DUP2 SWAP1 SSTORE POP PUSH32 0x8A2460AA8CA12123C8D9FB3E2835543BA312BC12B99CC8A934C213F17CC23BA0 DUP6 DUP6 DUP6 DUP6 DUP6 PUSH1 0x40 MLOAD PUSH2 0xE13 SWAP6 SWAP5 SWAP4 SWAP3 SWAP2 SWAP1 PUSH2 0x6C88 JUMP JUMPDEST PUSH1 0x40 MLOAD DUP1 SWAP2 SUB SWAP1 LOG1 POP POP POP POP POP JUMP JUMPDEST PUSH1 0x2 PUSH0 SWAP1 SLOAD SWAP1 PUSH2 0x100 EXP SWAP1 DIV PUSH20 0xFFFFFFFFFFFFFFFFFFFFFFFFFFFFFFFFFFFFFFFF AND PUSH20 0xFFFFFFFFFFFFFFFFFFFFFFFFFFFFFFFFFFFFFFFF AND CALLER PUSH20 0xFFFFFFFFFFFFFFFFFFFFFFFFFFFFFFFFFFFFFFFF AND EQ DUP1 PUSH2 0xEC7 JUMPI POP PUSH0 DUP1 SLOAD SWAP1 PUSH2 0x100 EXP SWAP1 DIV PUSH20 0xFFFFFFFFFFFFFFFFFFFFFFFFFFFFFFFFFFFFFFFF AND PUSH20 0xFFFFFFFFFFFFFFFFFFFFFFFFFFFFFFFFFFFFFFFF AND CALLER PUSH20 0xFFFFFFFFFFFFFFFFFFFFFFFFFFFFFFFFFFFFFFFF AND EQ JUMPDEST PUSH2 0xF06 JUMPI PUSH1 0x40 MLOAD PUSH32 0x8C379A000000000000000000000000000000000000000000000000000000000 DUP2 MSTORE PUSH1 0x4 ADD PUSH2 0xEFD SWAP1 PUSH2 0x6C3D JUMP JUMPDEST PUSH1 0x40 MLOAD DUP1 SWAP2 SUB SWAP1 REVERT JUMPDEST DUP3 PUSH1 0x7 PUSH0 PUSH2 0x100 EXP DUP2 SLOAD DUP2 PUSH20 0xFFFFFFFFFFFFFFFFFFFFFFFFFFFFFFFFFFFFFFFF MUL NOT AND SWAP1 DUP4 PUSH20 0xFFFFFFFFFFFFFFFFFFFFFFFFFFFFFFFFFFFFFFFF AND MUL OR SWAP1 SSTORE POP DUP2 PUSH1 0x8 PUSH0 PUSH2 0x100 EXP DUP2 SLOAD DUP2 PUSH20 0xFFFFFFFFFFFFFFFFFFFFFFFFFFFFFFFFFFFFFFFF MUL NOT AND SWAP1 DUP4 PUSH20 0xFFFFFFFFFFFFFFFFFFFFFFFFFFFFFFFFFFFFFFFF AND MUL OR SWAP1 SSTORE POP DUP1 PUSH1 0x9 PUSH0 PUSH2 0x100 EXP DUP2 SLOAD DUP2 PUSH20 0xFFFFFFFFFFFFFFFFFFFFFFFFFFFFFFFFFFFFFFFF MUL NOT AND SWAP1 DUP4 PUSH20 0xFFFFFFFFFFFFFFFFFFFFFFFFFFFFFFFFFFFFFFFF AND MUL OR SWAP1 SSTORE POP PUSH1 0x7 PUSH0 SWAP1 SLOAD SWAP1 PUSH2 0x100 EXP SWAP1 DIV PUSH20 0xFFFFFFFFFFFFFFFFFFFFFFFFFFFFFFFFFFFFFFFF AND PUSH20 0xFFFFFFFFFFFFFFFFFFFFFFFFFFFFFFFFFFFFFFFF AND PUSH4 0x313CE567 PUSH1 0x40 MLOAD DUP2 PUSH4 0xFFFFFFFF AND PUSH1 0xE0 SHL DUP2 MSTORE PUSH1 0x4 ADD PUSH1 0x20 PUSH1 0x40 MLOAD DUP1 DUP4 SUB DUP2 DUP7 GAS STATICCALL ISZERO DUP1 ISZERO PUSH2 0x1030 JUMPI RETURNDATASIZE PUSH0 DUP1 RETURNDATACOPY RETURNDATASIZE PUSH0 REVERT JUMPDEST POP POP POP POP PUSH1 0x40 MLOAD RETURNDATASIZE PUSH1 0x1F NOT PUSH1 0x1F DUP3 ADD AND DUP3 ADD DUP1 PUSH1 0x40 MSTORE POP DUP2 ADD SWAP1 PUSH2 0x1054 SWAP2 SWAP1 PUSH2 0x6CED JUMP JUMPDEST PUSH1 0xFF AND PUSH1 0xA DUP2 SWAP1 SSTORE POP PUSH1 0x8 PUSH0 SWAP1 SLOAD SWAP1 PUSH2 0x100 EXP SWAP1 DIV PUSH20 0xFFFFFFFFFFFFFFFFFFFFFFFFFFFFFFFFFFFFFFFF AND PUSH20 0xFFFFFFFFFFFFFFFFFFFFFFFFFFFFFFFFFFFFFFFF AND PUSH4 0x313CE567 PUSH1 0x40 MLOAD DUP2 PUSH4 0xFFFFFFFF AND PUSH1 0xE0 SHL DUP2 MSTORE PUSH1 0x4 ADD PUSH1 0x20 PUSH1 0x40 MLOAD DUP1 DUP4 SUB DUP2 DUP7 GAS STATICCALL ISZERO DUP1 ISZERO PUSH2 0x10C7 JUMPI RETURNDATASIZE PUSH0 DUP1 RETURNDATACOPY RETURNDATASIZE PUSH0 REVERT JUMPDEST POP POP POP POP PUSH1 0x40 MLOAD RETURNDATASIZE PUSH1 0x1F NOT PUSH1 0x1F DUP3 ADD AND DUP3 ADD DUP1 PUSH1 0x40 MSTORE POP DUP2 ADD SWAP1 PUSH2 0x10EB SWAP2 SWAP1 PUSH2 0x6CED JUMP JUMPDEST PUSH1 0xFF AND PUSH1 0xB DUP2 SWAP1 SSTORE POP PUSH1 0x9 PUSH0 SWAP1 SLOAD SWAP1 PUSH2 0x100 EXP SWAP1 DIV PUSH20 0xFFFFFFFFFFFFFFFFFFFFFFFFFFFFFFFFFFFFFFFF AND PUSH20 0xFFFFFFFFFFFFFFFFFFFFFFFFFFFFFFFFFFFFFFFF AND PUSH4 0x313CE567 PUSH1 0x40 MLOAD DUP2 PUSH4 0xFFFFFFFF AND PUSH1 0xE0 SHL DUP2 MSTORE PUSH1 0x4 ADD PUSH1 0x20 PUSH1 0x40 MLOAD DUP1 DUP4 SUB DUP2 DUP7 GAS STATICCALL ISZERO DUP1 ISZERO PUSH2 0x115E JUMPI RETURNDATASIZE PUSH0 DUP1 RETURNDATACOPY RETURNDATASIZE PUSH0 REVERT JUMPDEST POP POP POP POP PUSH1 0x40 MLOAD RETURNDATASIZE PUSH1 0x1F NOT PUSH1 0x1F DUP3 ADD AND DUP3 ADD DUP1 PUSH1 0x40 MSTORE POP DUP2 ADD SWAP1 PUSH2 0x1182 SWAP2 SWAP1 PUSH2 0x6CED JUMP JUMPDEST PUSH1 0xFF AND PUSH1 0xC DUP2 SWAP1 SSTORE POP PUSH32 0x4073B32A832187A54E475FC8FFF20266EEDFFB63596ADF4C0B8A2966E2B0025D DUP4 DUP4 PUSH1 0x40 MLOAD PUSH2 0x11BC SWAP3 SWAP2 SWAP1 PUSH2 0x6D18 JUMP JUMPDEST PUSH1 0x40 MLOAD DUP1 SWAP2 SUB SWAP1 LOG1 POP POP POP JUMP JUMPDEST PUSH0 DUP1 PUSH0 DUP1 PUSH0 PUSH1 0x9 PUSH0 SWAP1 SLOAD SWAP1 PUSH2 0x100 EXP SWAP1 DIV PUSH20 0xFFFFFFFFFFFFFFFFFFFFFFFFFFFFFFFFFFFFFFFF AND PUSH20 0xFFFFFFFFFFFFFFFFFFFFFFFFFFFFFFFFFFFFFFFF AND PUSH4 0xFEAF968C PUSH1 0x40 MLOAD DUP2 PUSH4 0xFFFFFFFF AND PUSH1 0xE0 SHL DUP2 MSTORE PUSH1 0x4 ADD PUSH1 0xA0 PUSH1 0x40 MLOAD DUP1 DUP4 SUB DUP2 DUP7 GAS STATICCALL ISZERO DUP1 ISZERO PUSH2 0x1238 JUMPI RETURNDATASIZE PUSH0 DUP1 RETURNDATACOPY RETURNDATASIZE PUSH0 REVERT JUMPDEST POP POP POP POP PUSH1 0x40 MLOAD RETURNDATASIZE PUSH1 0x1F NOT PUSH1 0x1F DUP3 ADD AND DUP3 ADD DUP1 PUSH1 0x40 MSTORE POP DUP2 ADD SWAP1 PUSH2 0x125C SWAP2 SWAP1 PUSH2 0x6DC5 JUMP JUMPDEST SWAP5 POP SWAP5 POP POP SWAP4 POP SWAP4 POP PUSH0 DUP4 SLT ISZERO DUP1 ISZERO PUSH2 0x1275 JUMPI POP PUSH0 DUP3 EQ ISZERO JUMPDEST DUP1 ISZERO PUSH2 0x1299 JUMPI POP DUP4 PUSH10 0xFFFFFFFFFFFFFFFFFFFF AND DUP2 PUSH10 0xFFFFFFFFFFFFFFFFFFFF AND LT ISZERO JUMPDEST PUSH2 0x12D8 JUMPI PUSH1 0x40 MLOAD PUSH32 0x8C379A000000000000000000000000000000000000000000000000000000000 DUP2 MSTORE PUSH1 0x4 ADD PUSH2 0x12CF SWAP1 PUSH2 0x6E86 JUMP JUMPDEST PUSH1 0x40 MLOAD DUP1 SWAP2 SUB SWAP1 REVERT JUMPDEST PUSH2 0x130E PUSH1 0xC SLOAD PUSH1 0xA PUSH2 0x12EA SWAP2 SWAP1 PUSH2 0x6FD3 JUMP JUMPDEST PUSH2 0x1300 PUSH3 0xF4240 DUP7 PUSH2 0x5CDB SWAP1 SWAP2 SWAP1 PUSH4 0xFFFFFFFF AND JUMP JUMPDEST PUSH2 0x5D52 SWAP1 SWAP2 SWAP1 PUSH4 0xFFFFFFFF AND JUMP JUMPDEST SWAP5 POP POP POP POP POP SWAP1 JUMP JUMPDEST PUSH1 0x1A SLOAD DUP2 JUMP JUMPDEST PUSH0 DUP1 SLOAD SWAP1 PUSH2 0x100 EXP SWAP1 DIV PUSH20 0xFFFFFFFFFFFFFFFFFFFFFFFFFFFFFFFFFFFFFFFF AND PUSH20 0xFFFFFFFFFFFFFFFFFFFFFFFFFFFFFFFFFFFFFFFF AND CALLER PUSH20 0xFFFFFFFFFFFFFFFFFFFFFFFFFFFFFFFFFFFFFFFF AND EQ PUSH2 0x13AA JUMPI PUSH1 0x40 MLOAD PUSH32 0x8C379A000000000000000000000000000000000000000000000000000000000 DUP2 MSTORE PUSH1 0x4 ADD PUSH2 0x13A1 SWAP1 PUSH2 0x708D JUMP JUMPDEST PUSH1 0x40 MLOAD DUP1 SWAP2 SUB SWAP1 REVERT JUMPDEST DUP1 PUSH1 0x1 PUSH0 PUSH2 0x100 EXP DUP2 SLOAD DUP2 PUSH20 0xFFFFFFFFFFFFFFFFFFFFFFFFFFFFFFFFFFFFFFFF MUL NOT AND SWAP1 DUP4 PUSH20 0xFFFFFFFFFFFFFFFFFFFFFFFFFFFFFFFFFFFFFFFF AND MUL OR SWAP1 SSTORE POP PUSH32 0x906A1C6BD7E3091EA86693DD029A831C19049CE77F1DCE2CE0BAB1CACBABCE22 DUP2 PUSH1 0x40 MLOAD PUSH2 0x1419 SWAP2 SWAP1 PUSH2 0x657A JUMP JUMPDEST PUSH1 0x40 MLOAD DUP1 SWAP2 SUB SWAP1 LOG1 POP JUMP JUMPDEST PUSH0 DUP1 JUMPDEST PUSH1 0xE DUP1 SLOAD SWAP1 POP DUP2 LT ISZERO PUSH2 0x14DA JUMPI PUSH2 0x14BA PUSH3 0xF4240 PUSH2 0x14AC PUSH1 0x12 DUP5 DUP2 SLOAD DUP2 LT PUSH2 0x1452 JUMPI PUSH2 0x1451 PUSH2 0x6C5B JUMP JUMPDEST JUMPDEST SWAP1 PUSH0 MSTORE PUSH1 0x20 PUSH0 KECCAK256 ADD SLOAD PUSH2 0x149E PUSH1 0x10 DUP7 DUP2 SLOAD DUP2 LT PUSH2 0x1472 JUMPI PUSH2 0x1471 PUSH2 0x6C5B JUMP JUMPDEST JUMPDEST SWAP1 PUSH0 MSTORE PUSH1 0x20 PUSH0 KECCAK256 ADD SLOAD PUSH1 0xA PUSH2 0x1487 SWAP2 SWAP1 PUSH2 0x6FD3 JUMP JUMPDEST PUSH2 0x1490 DUP8 PUSH2 0x1AEA JUMP JUMPDEST PUSH2 0x5CDB SWAP1 SWAP2 SWAP1 PUSH4 0xFFFFFFFF AND JUMP JUMPDEST PUSH2 0x5CDB SWAP1 SWAP2 SWAP1 PUSH4 0xFFFFFFFF AND JUMP JUMPDEST PUSH2 0x5D52 SWAP1 SWAP2 SWAP1 PUSH4 0xFFFFFFFF AND JUMP JUMPDEST DUP3 PUSH2 0x14C5 SWAP2 SWAP1 PUSH2 0x70AB JUMP JUMPDEST SWAP2 POP DUP1 DUP1 PUSH2 0x14D2 SWAP1 PUSH2 0x70DE JUMP JUMPDEST SWAP2 POP POP PUSH2 0x1427 JUMP JUMPDEST POP SWAP1 JUMP JUMPDEST PUSH1 0x2 PUSH0 SWAP1 SLOAD SWAP1 PUSH2 0x100 EXP SWAP1 DIV PUSH20 0xFFFFFFFFFFFFFFFFFFFFFFFFFFFFFFFFFFFFFFFF AND PUSH20 0xFFFFFFFFFFFFFFFFFFFFFFFFFFFFFFFFFFFFFFFF AND CALLER PUSH20 0xFFFFFFFFFFFFFFFFFFFFFFFFFFFFFFFFFFFFFFFF AND EQ DUP1 PUSH2 0x1583 JUMPI POP PUSH0 DUP1 SLOAD SWAP1 PUSH2 0x100 EXP SWAP1 DIV PUSH20 0xFFFFFFFFFFFFFFFFFFFFFFFFFFFFFFFFFFFFFFFF AND PUSH20 0xFFFFFFFFFFFFFFFFFFFFFFFFFFFFFFFFFFFFFFFF AND CALLER PUSH20 0xFFFFFFFFFFFFFFFFFFFFFFFFFFFFFFFFFFFFFFFF AND EQ JUMPDEST PUSH2 0x15C2 JUMPI PUSH1 0x40 MLOAD PUSH32 0x8C379A000000000000000000000000000000000000000000000000000000000 DUP2 MSTORE PUSH1 0x4 ADD PUSH2 0x15B9 SWAP1 PUSH2 0x6C3D JUMP JUMPDEST PUSH1 0x40 MLOAD DUP1 SWAP2 SUB SWAP1 REVERT JUMPDEST DUP2 PUSH1 0x1E DUP2 SWAP1 SSTORE POP DUP1 PUSH1 0x20 DUP2 SWAP1 SSTORE POP PUSH32 0x78814D12E3D8697F77C618ABED8124EAD9C9EC6D16952EE98A11C8DC2968D3C4 DUP3 DUP3 PUSH1 0x40 MLOAD PUSH2 0x1601 SWAP3 SWAP2 SWAP1 PUSH2 0x6A35 JUMP JUMPDEST PUSH1 0x40 MLOAD DUP1 SWAP2 SUB SWAP1 LOG1 POP POP JUMP JUMPDEST PUSH0 DUP1 PUSH1 0x4 PUSH0 SWAP1 SLOAD SWAP1 PUSH2 0x100 EXP SWAP1 DIV PUSH20 0xFFFFFFFFFFFFFFFFFFFFFFFFFFFFFFFFFFFFFFFF AND PUSH20 0xFFFFFFFFFFFFFFFFFFFFFFFFFFFFFFFFFFFFFFFF AND PUSH4 0x18160DDD PUSH1 0x40 MLOAD DUP2 PUSH4 0xFFFFFFFF AND PUSH1 0xE0 SHL DUP2 MSTORE PUSH1 0x4 ADD PUSH1 0x20 PUSH1 0x40 MLOAD DUP1 DUP4 SUB DUP2 DUP7 GAS STATICCALL ISZERO DUP1 ISZERO PUSH2 0x1679 JUMPI RETURNDATASIZE PUSH0 DUP1 RETURNDATACOPY RETURNDATASIZE PUSH0 REVERT JUMPDEST POP POP POP POP PUSH1 0x40 MLOAD RETURNDATASIZE PUSH1 0x1F NOT PUSH1 0x1F DUP3 ADD AND DUP3 ADD DUP1 PUSH1 0x40 MSTORE POP DUP2 ADD SWAP1 PUSH2 0x169D SWAP2 SWAP1 PUSH2 0x7125 JUMP JUMPDEST SWAP1 POP PUSH0 PUSH2 0x1755 DUP3 PUSH2 0x1747 PUSH3 0xF4240 PUSH1 0x4 PUSH0 SWAP1 SLOAD SWAP1 PUSH2 0x100 EXP SWAP1 DIV PUSH20 0xFFFFFFFFFFFFFFFFFFFFFFFFFFFFFFFFFFFFFFFF AND PUSH20 0xFFFFFFFFFFFFFFFFFFFFFFFFFFFFFFFFFFFFFFFF AND PUSH4 0xD2D97B06 PUSH1 0x40 MLOAD DUP2 PUSH4 0xFFFFFFFF AND PUSH1 0xE0 SHL DUP2 MSTORE PUSH1 0x4 ADD PUSH1 0x20 PUSH1 0x40 MLOAD DUP1 DUP4 SUB DUP2 DUP7 GAS STATICCALL ISZERO DUP1 ISZERO PUSH2 0x1715 JUMPI RETURNDATASIZE PUSH0 DUP1 RETURNDATACOPY RETURNDATASIZE PUSH0 REVERT JUMPDEST POP POP POP POP PUSH1 0x40 MLOAD RETURNDATASIZE PUSH1 0x1F NOT PUSH1 0x1F DUP3 ADD AND DUP3 ADD DUP1 PUSH1 0x40 MSTORE POP DUP2 ADD SWAP1 PUSH2 0x1739 SWAP2 SWAP1 PUSH2 0x7125 JUMP JUMPDEST PUSH2 0x5CDB SWAP1 SWAP2 SWAP1 PUSH4 0xFFFFFFFF AND JUMP JUMPDEST PUSH2 0x5D52 SWAP1 SWAP2 SWAP1 PUSH4 0xFFFFFFFF AND JUMP JUMPDEST SWAP1 POP PUSH0 PUSH2 0x17F8 DUP4 PUSH1 0x4 PUSH0 SWAP1 SLOAD SWAP1 PUSH2 0x100 EXP SWAP1 DIV PUSH20 0xFFFFFFFFFFFFFFFFFFFFFFFFFFFFFFFFFFFFFFFF AND PUSH20 0xFFFFFFFFFFFFFFFFFFFFFFFFFFFFFFFFFFFFFFFF AND PUSH4 0x2EB9771B PUSH1 0x40 MLOAD DUP2 PUSH4 0xFFFFFFFF AND PUSH1 0xE0 SHL DUP2 MSTORE PUSH1 0x4 ADD PUSH1 0x20 PUSH1 0x40 MLOAD DUP1 DUP4 SUB DUP2 DUP7 GAS STATICCALL ISZERO DUP1 ISZERO PUSH2 0x17C6 JUMPI RETURNDATASIZE PUSH0 DUP1 RETURNDATACOPY RETURNDATASIZE PUSH0 REVERT JUMPDEST POP POP POP POP PUSH1 0x40 MLOAD RETURNDATASIZE PUSH1 0x1F NOT PUSH1 0x1F DUP3 ADD AND DUP3 ADD DUP1 PUSH1 0x40 MSTORE POP DUP2 ADD SWAP1 PUSH2 0x17EA SWAP2 SWAP1 PUSH2 0x7125 JUMP JUMPDEST PUSH2 0x5CDB SWAP1 SWAP2 SWAP1 PUSH4 0xFFFFFFFF AND JUMP JUMPDEST SWAP1 POP PUSH0 PUSH2 0x180E DUP5 DUP5 PUSH2 0x5CDB SWAP1 SWAP2 SWAP1 PUSH4 0xFFFFFFFF AND JUMP JUMPDEST SWAP1 POP DUP2 DUP2 LT PUSH2 0x1823 JUMPI PUSH0 SWAP5 POP POP POP POP POP PUSH2 0x1852 JUMP JUMPDEST PUSH2 0x184B PUSH3 0xF4240 PUSH2 0x183D DUP4 DUP6 PUSH2 0x5D9B SWAP1 SWAP2 SWAP1 PUSH4 0xFFFFFFFF AND JUMP JUMPDEST PUSH2 0x5D52 SWAP1 SWAP2 SWAP1 PUSH4 0xFFFFFFFF AND JUMP JUMPDEST SWAP5 POP POP POP POP POP JUMPDEST SWAP1 JUMP JUMPDEST PUSH0 DUP1 PUSH1 0x4 PUSH0 SWAP1 SLOAD SWAP1 PUSH2 0x100 EXP SWAP1 DIV PUSH20 0xFFFFFFFFFFFFFFFFFFFFFFFFFFFFFFFFFFFFFFFF AND PUSH20 0xFFFFFFFFFFFFFFFFFFFFFFFFFFFFFFFFFFFFFFFF AND PUSH4 0x18160DDD PUSH1 0x40 MLOAD DUP2 PUSH4 0xFFFFFFFF AND PUSH1 0xE0 SHL DUP2 MSTORE PUSH1 0x4 ADD PUSH1 0x20 PUSH1 0x40 MLOAD DUP1 DUP4 SUB DUP2 DUP7 GAS STATICCALL ISZERO DUP1 ISZERO PUSH2 0x18C1 JUMPI RETURNDATASIZE PUSH0 DUP1 RETURNDATACOPY RETURNDATASIZE PUSH0 REVERT JUMPDEST POP POP POP POP PUSH1 0x40 MLOAD RETURNDATASIZE PUSH1 0x1F NOT PUSH1 0x1F DUP3 ADD AND DUP3 ADD DUP1 PUSH1 0x40 MSTORE POP DUP2 ADD SWAP1 PUSH2 0x18E5 SWAP2 SWAP1 PUSH2 0x7125 JUMP JUMPDEST SWAP1 POP PUSH0 PUSH1 0x4 PUSH0 SWAP1 SLOAD SWAP1 PUSH2 0x100 EXP SWAP1 DIV PUSH20 0xFFFFFFFFFFFFFFFFFFFFFFFFFFFFFFFFFFFFFFFF AND PUSH20 0xFFFFFFFFFFFFFFFFFFFFFFFFFFFFFFFFFFFFFFFF AND PUSH4 0x2EB9771B PUSH1 0x40 MLOAD DUP2 PUSH4 0xFFFFFFFF AND PUSH1 0xE0 SHL DUP2 MSTORE PUSH1 0x4 ADD PUSH1 0x20 PUSH1 0x40 MLOAD DUP1 DUP4 SUB DUP2 DUP7 GAS STATICCALL ISZERO DUP1 ISZERO PUSH2 0x1952 JUMPI RETURNDATASIZE PUSH0 DUP1 RETURNDATACOPY RETURNDATASIZE PUSH0 REVERT JUMPDEST POP POP POP POP PUSH1 0x40 MLOAD RETURNDATASIZE PUSH1 0x1F NOT PUSH1 0x1F DUP3 ADD AND DUP3 ADD DUP1 PUSH1 0x40 MSTORE POP DUP2 ADD SWAP1 PUSH2 0x1976 SWAP2 SWAP1 PUSH2 0x7125 JUMP JUMPDEST SWAP1 POP PUSH0 PUSH1 0x4 PUSH0 SWAP1 SLOAD SWAP1 PUSH2 0x100 EXP SWAP1 DIV PUSH20 0xFFFFFFFFFFFFFFFFFFFFFFFFFFFFFFFFFFFFFFFF AND PUSH20 0xFFFFFFFFFFFFFFFFFFFFFFFFFFFFFFFFFFFFFFFF AND PUSH4 0xD2D97B06 PUSH1 0x40 MLOAD DUP2 PUSH4 0xFFFFFFFF AND PUSH1 0xE0 SHL DUP2 MSTORE PUSH1 0x4 ADD PUSH1 0x20 PUSH1 0x40 MLOAD DUP1 DUP4 SUB DUP2 DUP7 GAS STATICCALL ISZERO DUP1 ISZERO PUSH2 0x19E3 JUMPI RETURNDATASIZE PUSH0 DUP1 RETURNDATACOPY RETURNDATASIZE PUSH0 REVERT JUMPDEST POP POP POP POP PUSH1 0x40 MLOAD RETURNDATASIZE PUSH1 0x1F NOT PUSH1 0x1F DUP3 ADD AND DUP3 ADD DUP1 PUSH1 0x40 MSTORE POP DUP2 ADD SWAP1 PUSH2 0x1A07 SWAP2 SWAP1 PUSH2 0x7125 JUMP JUMPDEST SWAP1 POP PUSH3 0xF4240 DUP3 GT ISZERO PUSH2 0x1A1B JUMPI PUSH3 0xF4240 SWAP2 POP JUMPDEST PUSH0 PUSH2 0x1A44 PUSH3 0xF4240 PUSH2 0x1A36 DUP6 DUP8 PUSH2 0x5CDB SWAP1 SWAP2 SWAP1 PUSH4 0xFFFFFFFF AND JUMP JUMPDEST PUSH2 0x5D52 SWAP1 SWAP2 SWAP1 PUSH4 0xFFFFFFFF AND JUMP JUMPDEST SWAP1 POP DUP1 DUP3 GT ISZERO PUSH2 0x1A9A JUMPI PUSH0 PUSH2 0x1A62 DUP3 DUP5 PUSH2 0x5D9B SWAP1 SWAP2 SWAP1 PUSH4 0xFFFFFFFF AND JUMP JUMPDEST SWAP1 POP PUSH0 PUSH1 0x1D PUSH0 PUSH2 0x1A70 PUSH2 0xC60 JUMP JUMPDEST DUP2 MSTORE PUSH1 0x20 ADD SWAP1 DUP2 MSTORE PUSH1 0x20 ADD PUSH0 KECCAK256 SLOAD SWAP1 POP PUSH2 0x1A8D DUP2 PUSH1 0x1E SLOAD DUP5 PUSH2 0x5DE4 JUMP JUMPDEST SWAP7 POP POP POP POP POP POP POP PUSH2 0x1AA2 JUMP JUMPDEST PUSH0 SWAP5 POP POP POP POP POP JUMPDEST SWAP1 JUMP JUMPDEST PUSH1 0x9 PUSH0 SWAP1 SLOAD SWAP1 PUSH2 0x100 EXP SWAP1 DIV PUSH20 0xFFFFFFFFFFFFFFFFFFFFFFFFFFFFFFFFFFFFFFFF AND DUP2 JUMP JUMPDEST PUSH1 0x11 DUP2 DUP2 SLOAD DUP2 LT PUSH2 0x1AD9 JUMPI PUSH0 DUP1 REVERT JUMPDEST SWAP1 PUSH0 MSTORE PUSH1 0x20 PUSH0 KECCAK256 ADD PUSH0 SWAP2 POP SWAP1 POP SLOAD DUP2 JUMP JUMPDEST PUSH0 PUSH2 0x1BCC PUSH1 0x17 DUP4 DUP2 SLOAD DUP2 LT PUSH2 0x1B02 JUMPI PUSH2 0x1B01 PUSH2 0x6C5B JUMP JUMPDEST JUMPDEST SWAP1 PUSH0 MSTORE PUSH1 0x20 PUSH0 KECCAK256 ADD SLOAD PUSH1 0xE DUP5 DUP2 SLOAD DUP2 LT PUSH2 0x1B1F JUMPI PUSH2 0x1B1E PUSH2 0x6C5B JUMP JUMPDEST JUMPDEST SWAP1 PUSH0 MSTORE PUSH1 0x20 PUSH0 KECCAK256 ADD PUSH0 SWAP1 SLOAD SWAP1 PUSH2 0x100 EXP SWAP1 DIV PUSH20 0xFFFFFFFFFFFFFFFFFFFFFFFFFFFFFFFFFFFFFFFF AND PUSH20 0xFFFFFFFFFFFFFFFFFFFFFFFFFFFFFFFFFFFFFFFF AND PUSH4 0x70A08231 ADDRESS PUSH1 0x40 MLOAD DUP3 PUSH4 0xFFFFFFFF AND PUSH1 0xE0 SHL DUP2 MSTORE PUSH1 0x4 ADD PUSH2 0x1B7F SWAP2 SWAP1 PUSH2 0x657A JUMP JUMPDEST PUSH1 0x20 PUSH1 0x40 MLOAD DUP1 DUP4 SUB DUP2 DUP7 GAS STATICCALL ISZERO DUP1 ISZERO PUSH2 0x1B9A JUMPI RETURNDATASIZE PUSH0 DUP1 RETURNDATACOPY RETURNDATASIZE PUSH0 REVERT JUMPDEST POP POP POP POP PUSH1 0x40 MLOAD RETURNDATASIZE PUSH1 0x1F NOT PUSH1 0x1F DUP3 ADD AND DUP3 ADD DUP1 PUSH1 0x40 MSTORE POP DUP2 ADD SWAP1 PUSH2 0x1BBE SWAP2 SWAP1 PUSH2 0x7125 JUMP JUMPDEST PUSH2 0x5D9B SWAP1 SWAP2 SWAP1 PUSH4 0xFFFFFFFF AND JUMP JUMPDEST SWAP1 POP SWAP2 SWAP1 POP JUMP JUMPDEST PUSH1 0x20 SLOAD DUP2 JUMP JUMPDEST PUSH1 0x2 PUSH0 SWAP1 SLOAD SWAP1 PUSH2 0x100 EXP SWAP1 DIV PUSH20 0xFFFFFFFFFFFFFFFFFFFFFFFFFFFFFFFFFFFFFFFF AND PUSH20 0xFFFFFFFFFFFFFFFFFFFFFFFFFFFFFFFFFFFFFFFF AND CALLER PUSH20 0xFFFFFFFFFFFFFFFFFFFFFFFFFFFFFFFFFFFFFFFF AND EQ DUP1 PUSH2 0x1C7E JUMPI POP PUSH0 DUP1 SLOAD SWAP1 PUSH2 0x100 EXP SWAP1 DIV PUSH20 0xFFFFFFFFFFFFFFFFFFFFFFFFFFFFFFFFFFFFFFFF AND PUSH20 0xFFFFFFFFFFFFFFFFFFFFFFFFFFFFFFFFFFFFFFFF AND CALLER PUSH20 0xFFFFFFFFFFFFFFFFFFFFFFFFFFFFFFFFFFFFFFFF AND EQ JUMPDEST PUSH2 0x1CBD JUMPI PUSH1 0x40 MLOAD PUSH32 0x8C379A000000000000000000000000000000000000000000000000000000000 DUP2 MSTORE PUSH1 0x4 ADD PUSH2 0x1CB4 SWAP1 PUSH2 0x6C3D JUMP JUMPDEST PUSH1 0x40 MLOAD DUP1 SWAP2 SUB SWAP1 REVERT JUMPDEST PUSH0 PUSH1 0x6 PUSH0 DUP4 PUSH20 0xFFFFFFFFFFFFFFFFFFFFFFFFFFFFFFFFFFFFFFFF AND PUSH20 0xFFFFFFFFFFFFFFFFFFFFFFFFFFFFFFFFFFFFFFFF AND DUP2 MSTORE PUSH1 0x20 ADD SWAP1 DUP2 MSTORE PUSH1 0x20 ADD PUSH0 KECCAK256 PUSH0 PUSH2 0x100 EXP DUP2 SLOAD DUP2 PUSH1 0xFF MUL NOT AND SWAP1 DUP4 ISZERO ISZERO MUL OR SWAP1 SSTORE POP PUSH32 0x441E2AC704708A511E1DCCAF842773B65F3928094FF084B1C90E0572DB435260 DUP2 PUSH1 0x40 MLOAD PUSH2 0x1D40 SWAP2 SWAP1 PUSH2 0x657A JUMP JUMPDEST PUSH1 0x40 MLOAD DUP1 SWAP2 SUB SWAP1 LOG1 POP JUMP JUMPDEST PUSH1 0x16 PUSH1 0x20 MSTORE DUP2 PUSH0 MSTORE PUSH1 0x40 PUSH0 KECCAK256 PUSH1 0x20 MSTORE DUP1 PUSH0 MSTORE PUSH1 0x40 PUSH0 KECCAK256 PUSH0 SWAP2 POP SWAP2 POP POP SLOAD DUP2 JUMP JUMPDEST PUSH1 0xD PUSH0 SWAP1 SLOAD SWAP1 PUSH2 0x100 EXP SWAP1 DIV PUSH20 0xFFFFFFFFFFFFFFFFFFFFFFFFFFFFFFFFFFFFFFFF AND DUP2 JUMP JUMPDEST PUSH1 0x8 PUSH0 SWAP1 SLOAD SWAP1 PUSH2 0x100 EXP SWAP1 DIV PUSH20 0xFFFFFFFFFFFFFFFFFFFFFFFFFFFFFFFFFFFFFFFF AND DUP2 JUMP JUMPDEST PUSH1 0x2 PUSH0 SWAP1 SLOAD SWAP1 PUSH2 0x100 EXP SWAP1 DIV PUSH20 0xFFFFFFFFFFFFFFFFFFFFFFFFFFFFFFFFFFFFFFFF AND PUSH20 0xFFFFFFFFFFFFFFFFFFFFFFFFFFFFFFFFFFFFFFFF AND CALLER PUSH20 0xFFFFFFFFFFFFFFFFFFFFFFFFFFFFFFFFFFFFFFFF AND EQ DUP1 PUSH2 0x1E5A JUMPI POP PUSH0 DUP1 SLOAD SWAP1 PUSH2 0x100 EXP SWAP1 DIV PUSH20 0xFFFFFFFFFFFFFFFFFFFFFFFFFFFFFFFFFFFFFFFF AND PUSH20 0xFFFFFFFFFFFFFFFFFFFFFFFFFFFFFFFFFFFFFFFF AND CALLER PUSH20 0xFFFFFFFFFFFFFFFFFFFFFFFFFFFFFFFFFFFFFFFF AND EQ JUMPDEST PUSH2 0x1E99 JUMPI PUSH1 0x40 MLOAD PUSH32 0x8C379A000000000000000000000000000000000000000000000000000000000 DUP2 MSTORE PUSH1 0x4 ADD PUSH2 0x1E90 SWAP1 PUSH2 0x6C3D JUMP JUMPDEST PUSH1 0x40 MLOAD DUP1 SWAP2 SUB SWAP1 REVERT JUMPDEST DUP1 PUSH1 0x3 PUSH0 PUSH2 0x100 EXP DUP2 SLOAD DUP2 PUSH20 0xFFFFFFFFFFFFFFFFFFFFFFFFFFFFFFFFFFFFFFFF MUL NOT AND SWAP1 DUP4 PUSH20 0xFFFFFFFFFFFFFFFFFFFFFFFFFFFFFFFFFFFFFFFF AND MUL OR SWAP1 SSTORE POP PUSH32 0xB88C20A211C5D7677BA2A26C317D8AE6B25AA492016DC8CECA2469761D063D80 DUP2 PUSH1 0x40 MLOAD PUSH2 0x1F08 SWAP2 SWAP1 PUSH2 0x657A JUMP JUMPDEST PUSH1 0x40 MLOAD DUP1 SWAP2 SUB SWAP1 LOG1 POP JUMP JUMPDEST PUSH1 0x6 PUSH1 0x20 MSTORE DUP1 PUSH0 MSTORE PUSH1 0x40 PUSH0 KECCAK256 PUSH0 SWAP2 POP SLOAD SWAP1 PUSH2 0x100 EXP SWAP1 DIV PUSH1 0xFF AND DUP2 JUMP JUMPDEST PUSH1 0xE DUP2 DUP2 SLOAD DUP2 LT PUSH2 0x1F3F JUMPI PUSH0 DUP1 REVERT JUMPDEST SWAP1 PUSH0 MSTORE PUSH1 0x20 PUSH0 KECCAK256 ADD PUSH0 SWAP2 POP SLOAD SWAP1 PUSH2 0x100 EXP SWAP1 DIV PUSH20 0xFFFFFFFFFFFFFFFFFFFFFFFFFFFFFFFFFFFFFFFF AND DUP2 JUMP JUMPDEST PUSH1 0x18 SLOAD DUP2 JUMP JUMPDEST PUSH1 0x25 SLOAD DUP2 JUMP JUMPDEST PUSH0 DUP4 PUSH1 0x14 PUSH0 PUSH1 0xE DUP4 DUP2 SLOAD DUP2 LT PUSH2 0x1F90 JUMPI PUSH2 0x1F8F PUSH2 0x6C5B JUMP JUMPDEST JUMPDEST SWAP1 PUSH0 MSTORE PUSH1 0x20 PUSH0 KECCAK256 ADD PUSH0 SWAP1 SLOAD SWAP1 PUSH2 0x100 EXP SWAP1 DIV PUSH20 0xFFFFFFFFFFFFFFFFFFFFFFFFFFFFFFFFFFFFFFFF AND PUSH20 0xFFFFFFFFFFFFFFFFFFFFFFFFFFFFFFFFFFFFFFFF AND PUSH20 0xFFFFFFFFFFFFFFFFFFFFFFFFFFFFFFFFFFFFFFFF AND DUP2 MSTORE PUSH1 0x20 ADD SWAP1 DUP2 MSTORE PUSH1 0x20 ADD PUSH0 KECCAK256 PUSH0 SWAP1 SLOAD SWAP1 PUSH2 0x100 EXP SWAP1 DIV PUSH1 0xFF AND PUSH2 0x203D JUMPI PUSH1 0x40 MLOAD PUSH32 0x8C379A000000000000000000000000000000000000000000000000000000000 DUP2 MSTORE PUSH1 0x4 ADD PUSH2 0x2034 SWAP1 PUSH2 0x719A JUMP JUMPDEST PUSH1 0x40 MLOAD DUP1 SWAP2 SUB SWAP1 REVERT JUMPDEST PUSH0 ISZERO ISZERO PUSH1 0x28 DUP7 DUP2 SLOAD DUP2 LT PUSH2 0x2054 JUMPI PUSH2 0x2053 PUSH2 0x6C5B JUMP JUMPDEST JUMPDEST SWAP1 PUSH0 MSTORE PUSH1 0x20 PUSH0 KECCAK256 SWAP1 PUSH1 0x20 SWAP2 DUP3 DUP3 DIV ADD SWAP2 SWAP1 MOD SWAP1 SLOAD SWAP1 PUSH2 0x100 EXP SWAP1 DIV PUSH1 0xFF AND ISZERO ISZERO EQ PUSH2 0x20B4 JUMPI PUSH1 0x40 MLOAD PUSH32 0x8C379A000000000000000000000000000000000000000000000000000000000 DUP2 MSTORE PUSH1 0x4 ADD PUSH2 0x20AB SWAP1 PUSH2 0x7202 JUMP JUMPDEST PUSH1 0x40 MLOAD DUP1 SWAP2 SUB SWAP1 REVERT JUMPDEST PUSH0 PUSH1 0x10 DUP7 DUP2 SLOAD DUP2 LT PUSH2 0x20C9 JUMPI PUSH2 0x20C8 PUSH2 0x6C5B JUMP JUMPDEST JUMPDEST SWAP1 PUSH0 MSTORE PUSH1 0x20 PUSH0 KECCAK256 ADD SLOAD PUSH1 0xA PUSH2 0x20DE SWAP2 SWAP1 PUSH2 0x6FD3 JUMP JUMPDEST DUP6 PUSH2 0x20E9 SWAP2 SWAP1 PUSH2 0x7220 JUMP JUMPDEST SWAP1 POP PUSH0 PUSH2 0x20F4 PUSH2 0x355C JUMP JUMPDEST SWAP1 POP PUSH0 PUSH2 0x20FF PUSH2 0x5B0D JUMP JUMPDEST SWAP1 POP PUSH2 0x2159 PUSH2 0x214A PUSH1 0x24 DUP11 DUP2 SLOAD DUP2 LT PUSH2 0x211B JUMPI PUSH2 0x211A PUSH2 0x6C5B JUMP JUMPDEST JUMPDEST SWAP1 PUSH0 MSTORE PUSH1 0x20 PUSH0 KECCAK256 ADD SLOAD PUSH2 0x213C PUSH1 0x25 SLOAD PUSH3 0xF4240 PUSH2 0x5E26 SWAP1 SWAP2 SWAP1 PUSH4 0xFFFFFFFF AND JUMP JUMPDEST PUSH2 0x5D9B SWAP1 SWAP2 SWAP1 PUSH4 0xFFFFFFFF AND JUMP JUMPDEST DUP5 PUSH2 0x5CDB SWAP1 SWAP2 SWAP1 PUSH4 0xFFFFFFFF AND JUMP JUMPDEST SWAP5 POP PUSH0 PUSH2 0x2195 DUP4 PUSH2 0x2187 PUSH1 0x64 PUSH2 0x2179 PUSH1 0x32 DUP12 PUSH2 0x5CDB SWAP1 SWAP2 SWAP1 PUSH4 0xFFFFFFFF AND JUMP JUMPDEST PUSH2 0x5D52 SWAP1 SWAP2 SWAP1 PUSH4 0xFFFFFFFF AND JUMP JUMPDEST PUSH2 0x5D52 SWAP1 SWAP2 SWAP1 PUSH4 0xFFFFFFFF AND JUMP JUMPDEST SWAP1 POP PUSH0 PUSH2 0x21D8 PUSH2 0x21A3 PUSH2 0x11C9 JUMP JUMPDEST PUSH2 0x21CA PUSH1 0x64 PUSH2 0x21BC PUSH1 0x32 DUP13 PUSH2 0x5CDB SWAP1 SWAP2 SWAP1 PUSH4 0xFFFFFFFF AND JUMP JUMPDEST PUSH2 0x5D52 SWAP1 SWAP2 SWAP1 PUSH4 0xFFFFFFFF AND JUMP JUMPDEST PUSH2 0x5D52 SWAP1 SWAP2 SWAP1 PUSH4 0xFFFFFFFF AND JUMP JUMPDEST SWAP1 POP DUP3 DUP8 GT ISZERO PUSH2 0x221D JUMPI PUSH1 0x40 MLOAD PUSH32 0x8C379A000000000000000000000000000000000000000000000000000000000 DUP2 MSTORE PUSH1 0x4 ADD PUSH2 0x2214 SWAP1 PUSH2 0x72AB JUMP JUMPDEST PUSH1 0x40 MLOAD DUP1 SWAP2 SUB SWAP1 REVERT JUMPDEST DUP8 PUSH2 0x2235 PUSH4 0x3B9ACA00 DUP4 PUSH2 0x5D52 SWAP1 SWAP2 SWAP1 PUSH4 0xFFFFFFFF AND JUMP JUMPDEST DUP4 PUSH2 0x2240 SWAP2 SWAP1 PUSH2 0x70AB JUMP JUMPDEST LT ISZERO PUSH2 0x2281 JUMPI PUSH1 0x40 MLOAD PUSH32 0x8C379A000000000000000000000000000000000000000000000000000000000 DUP2 MSTORE PUSH1 0x4 ADD PUSH2 0x2278 SWAP1 PUSH2 0x7313 JUMP JUMPDEST PUSH1 0x40 MLOAD DUP1 SWAP2 SUB SWAP1 REVERT JUMPDEST PUSH1 0x11 DUP11 DUP2 SLOAD DUP2 LT PUSH2 0x2295 JUMPI PUSH2 0x2294 PUSH2 0x6C5B JUMP JUMPDEST JUMPDEST SWAP1 PUSH0 MSTORE PUSH1 0x20 PUSH0 KECCAK256 ADD SLOAD PUSH2 0x22B9 DUP11 PUSH2 0x22AB DUP14 PUSH2 0x1AEA JUMP JUMPDEST PUSH2 0x5E26 SWAP1 SWAP2 SWAP1 PUSH4 0xFFFFFFFF AND JUMP JUMPDEST GT ISZERO PUSH2 0x22FA JUMPI PUSH1 0x40 MLOAD PUSH32 0x8C379A000000000000000000000000000000000000000000000000000000000 DUP2 MSTORE PUSH1 0x4 ADD PUSH2 0x22F1 SWAP1 PUSH2 0x737B JUMP JUMPDEST PUSH1 0x40 MLOAD DUP1 SWAP2 SUB SWAP1 REVERT JUMPDEST PUSH2 0x2341 PUSH1 0xE DUP12 DUP2 SLOAD DUP2 LT PUSH2 0x2311 JUMPI PUSH2 0x2310 PUSH2 0x6C5B JUMP JUMPDEST JUMPDEST SWAP1 PUSH0 MSTORE PUSH1 0x20 PUSH0 KECCAK256 ADD PUSH0 SWAP1 SLOAD SWAP1 PUSH2 0x100 EXP SWAP1 DIV PUSH20 0xFFFFFFFFFFFFFFFFFFFFFFFFFFFFFFFFFFFFFFFF AND CALLER ADDRESS DUP13 PUSH2 0x5E83 JUMP JUMPDEST PUSH1 0x5 PUSH0 SWAP1 SLOAD SWAP1 PUSH2 0x100 EXP SWAP1 DIV PUSH20 0xFFFFFFFFFFFFFFFFFFFFFFFFFFFFFFFFFFFFFFFF AND PUSH20 0xFFFFFFFFFFFFFFFFFFFFFFFFFFFFFFFFFFFFFFFF AND PUSH4 0xB4F56B26 CALLER DUP5 PUSH1 0x40 MLOAD DUP4 PUSH4 0xFFFFFFFF AND PUSH1 0xE0 SHL DUP2 MSTORE PUSH1 0x4 ADD PUSH2 0x239D SWAP3 SWAP2 SWAP1 PUSH2 0x7399 JUMP JUMPDEST PUSH0 PUSH1 0x40 MLOAD DUP1 DUP4 SUB DUP2 PUSH0 DUP8 DUP1 EXTCODESIZE ISZERO DUP1 ISZERO PUSH2 0x23B4 JUMPI PUSH0 DUP1 REVERT JUMPDEST POP GAS CALL ISZERO DUP1 ISZERO PUSH2 0x23C6 JUMPI RETURNDATASIZE PUSH0 DUP1 RETURNDATACOPY RETURNDATASIZE PUSH0 REVERT JUMPDEST POP POP POP POP PUSH1 0xD PUSH0 SWAP1 SLOAD SWAP1 PUSH2 0x100 EXP SWAP1 DIV PUSH20 0xFFFFFFFFFFFFFFFFFFFFFFFFFFFFFFFFFFFFFFFF AND PUSH20 0xFFFFFFFFFFFFFFFFFFFFFFFFFFFFFFFFFFFFFFFF AND PUSH4 0xA9059CBB CALLER PUSH2 0x241F PUSH4 0x3B9ACA00 DUP6 PUSH2 0x5D52 SWAP1 SWAP2 SWAP1 PUSH4 0xFFFFFFFF AND JUMP JUMPDEST PUSH1 0x40 MLOAD DUP4 PUSH4 0xFFFFFFFF AND PUSH1 0xE0 SHL DUP2 MSTORE PUSH1 0x4 ADD PUSH2 0x243C SWAP3 SWAP2 SWAP1 PUSH2 0x7399 JUMP JUMPDEST PUSH1 0x20 PUSH1 0x40 MLOAD DUP1 DUP4 SUB DUP2 PUSH0 DUP8 GAS CALL ISZERO DUP1 ISZERO PUSH2 0x2458 JUMPI RETURNDATASIZE PUSH0 DUP1 RETURNDATACOPY RETURNDATASIZE PUSH0 REVERT JUMPDEST POP POP POP POP PUSH1 0x40 MLOAD RETURNDATASIZE PUSH1 0x1F NOT PUSH1 0x1F DUP3 ADD AND DUP3 ADD DUP1 PUSH1 0x40 MSTORE POP DUP2 ADD SWAP1 PUSH2 0x247C SWAP2 SWAP1 PUSH2 0x73D4 JUMP JUMPDEST POP DUP2 PUSH1 0x1F PUSH0 PUSH2 0x2489 PUSH2 0xC60 JUMP JUMPDEST DUP2 MSTORE PUSH1 0x20 ADD SWAP1 DUP2 MSTORE PUSH1 0x20 ADD PUSH0 KECCAK256 PUSH0 DUP3 DUP3 SLOAD PUSH2 0x24A4 SWAP2 SWAP1 PUSH2 0x70AB JUMP JUMPDEST SWAP3 POP POP DUP2 SWAP1 SSTORE POP POP POP POP POP POP POP SWAP4 SWAP3 POP POP POP JUMP JUMPDEST PUSH1 0x1D PUSH1 0x20 MSTORE DUP1 PUSH0 MSTORE PUSH1 0x40 PUSH0 KECCAK256 PUSH0 SWAP2 POP SWAP1 POP SLOAD DUP2 JUMP JUMPDEST PUSH1 0x1 PUSH0 SWAP1 SLOAD SWAP1 PUSH2 0x100 EXP SWAP1 DIV PUSH20 0xFFFFFFFFFFFFFFFFFFFFFFFFFFFFFFFFFFFFFFFF AND DUP2 JUMP JUMPDEST PUSH1 0xF DUP2 DUP2 SLOAD DUP2 LT PUSH2 0x2501 JUMPI PUSH0 DUP1 REVERT JUMPDEST SWAP1 PUSH0 MSTORE PUSH1 0x20 PUSH0 KECCAK256 ADD PUSH0 SWAP2 POP SWAP1 POP DUP1 SLOAD PUSH2 0x2519 SWAP1 PUSH2 0x742C JUMP JUMPDEST DUP1 PUSH1 0x1F ADD PUSH1 0x20 DUP1 SWAP2 DIV MUL PUSH1 0x20 ADD PUSH1 0x40 MLOAD SWAP1 DUP2 ADD PUSH1 0x40 MSTORE DUP1 SWAP3 SWAP2 SWAP1 DUP2 DUP2 MSTORE PUSH1 0x20 ADD DUP3 DUP1 SLOAD PUSH2 0x2545 SWAP1 PUSH2 0x742C JUMP JUMPDEST DUP1 ISZERO PUSH2 0x2590 JUMPI DUP1 PUSH1 0x1F LT PUSH2 0x2567 JUMPI PUSH2 0x100 DUP1 DUP4 SLOAD DIV MUL DUP4 MSTORE SWAP2 PUSH1 0x20 ADD SWAP2 PUSH2 0x2590 JUMP JUMPDEST DUP3 ADD SWAP2 SWAP1 PUSH0 MSTORE PUSH1 0x20 PUSH0 KECCAK256 SWAP1 JUMPDEST DUP2 SLOAD DUP2 MSTORE SWAP1 PUSH1 0x1 ADD SWAP1 PUSH1 0x20 ADD DUP1 DUP4 GT PUSH2 0x2573 JUMPI DUP3 SWAP1 SUB PUSH1 0x1F AND DUP3 ADD SWAP2 JUMPDEST POP POP POP POP POP DUP2 JUMP JUMPDEST PUSH0 PUSH2 0x2617 PUSH1 0x12 DUP5 DUP2 SLOAD DUP2 LT PUSH2 0x25B0 JUMPI PUSH2 0x25AF PUSH2 0x6C5B JUMP JUMPDEST JUMPDEST SWAP1 PUSH0 MSTORE PUSH1 0x20 PUSH0 KECCAK256 ADD SLOAD PUSH2 0x2609 PUSH1 0x10 DUP7 DUP2 SLOAD DUP2 LT PUSH2 0x25D0 JUMPI PUSH2 0x25CF PUSH2 0x6C5B JUMP JUMPDEST JUMPDEST SWAP1 PUSH0 MSTORE PUSH1 0x20 PUSH0 KECCAK256 ADD SLOAD PUSH1 0xA PUSH2 0x25E5 SWAP2 SWAP1 PUSH2 0x6FD3 JUMP JUMPDEST PUSH2 0x25FB PUSH3 0xF4240 DUP8 PUSH2 0x5CDB SWAP1 SWAP2 SWAP1 PUSH4 0xFFFFFFFF AND JUMP JUMPDEST PUSH2 0x5D52 SWAP1 SWAP2 SWAP1 PUSH4 0xFFFFFFFF AND JUMP JUMPDEST PUSH2 0x5D52 SWAP1 SWAP2 SWAP1 PUSH4 0xFFFFFFFF AND JUMP JUMPDEST SWAP1 POP SWAP3 SWAP2 POP POP JUMP JUMPDEST PUSH1 0x10 DUP2 DUP2 SLOAD DUP2 LT PUSH2 0x262E JUMPI PUSH0 DUP1 REVERT JUMPDEST SWAP1 PUSH0 MSTORE PUSH1 0x20 PUSH0 KECCAK256 ADD PUSH0 SWAP2 POP SWAP1 POP SLOAD DUP2 JUMP JUMPDEST PUSH2 0x2647 PUSH2 0x61A9 JUMP JUMPDEST PUSH1 0x14 PUSH0 DUP4 PUSH20 0xFFFFFFFFFFFFFFFFFFFFFFFFFFFFFFFFFFFFFFFF AND PUSH20 0xFFFFFFFFFFFFFFFFFFFFFFFFFFFFFFFFFFFFFFFF AND DUP2 MSTORE PUSH1 0x20 ADD SWAP1 DUP2 MSTORE PUSH1 0x20 ADD PUSH0 KECCAK256 PUSH0 SWAP1 SLOAD SWAP1 PUSH2 0x100 EXP SWAP1 DIV PUSH1 0xFF AND PUSH2 0x26D0 JUMPI PUSH1 0x40 MLOAD PUSH32 0x8C379A000000000000000000000000000000000000000000000000000000000 DUP2 MSTORE PUSH1 0x4 ADD PUSH2 0x26C7 SWAP1 PUSH2 0x74A6 JUMP JUMPDEST PUSH1 0x40 MLOAD DUP1 SWAP2 SUB SWAP1 REVERT JUMPDEST PUSH0 PUSH1 0x13 PUSH0 DUP5 PUSH20 0xFFFFFFFFFFFFFFFFFFFFFFFFFFFFFFFFFFFFFFFF AND PUSH20 0xFFFFFFFFFFFFFFFFFFFFFFFFFFFFFFFFFFFFFFFF AND DUP2 MSTORE PUSH1 0x20 ADD SWAP1 DUP2 MSTORE PUSH1 0x20 ADD PUSH0 KECCAK256 SLOAD SWAP1 POP PUSH1 0x40 MLOAD DUP1 PUSH2 0x200 ADD PUSH1 0x40 MSTORE DUP1 DUP3 DUP2 MSTORE PUSH1 0x20 ADD PUSH1 0xF DUP4 DUP2 SLOAD DUP2 LT PUSH2 0x2737 JUMPI PUSH2 0x2736 PUSH2 0x6C5B JUMP JUMPDEST JUMPDEST SWAP1 PUSH0 MSTORE PUSH1 0x20 PUSH0 KECCAK256 ADD DUP1 SLOAD PUSH2 0x274A SWAP1 PUSH2 0x742C JUMP JUMPDEST DUP1 PUSH1 0x1F ADD PUSH1 0x20 DUP1 SWAP2 DIV MUL PUSH1 0x20 ADD PUSH1 0x40 MLOAD SWAP1 DUP2 ADD PUSH1 0x40 MSTORE DUP1 SWAP3 SWAP2 SWAP1 DUP2 DUP2 MSTORE PUSH1 0x20 ADD DUP3 DUP1 SLOAD PUSH2 0x2776 SWAP1 PUSH2 0x742C JUMP JUMPDEST DUP1 ISZERO PUSH2 0x27C1 JUMPI DUP1 PUSH1 0x1F LT PUSH2 0x2798 JUMPI PUSH2 0x100 DUP1 DUP4 SLOAD DIV MUL DUP4 MSTORE SWAP2 PUSH1 0x20 ADD SWAP2 PUSH2 0x27C1 JUMP JUMPDEST DUP3 ADD SWAP2 SWAP1 PUSH0 MSTORE PUSH1 0x20 PUSH0 KECCAK256 SWAP1 JUMPDEST DUP2 SLOAD DUP2 MSTORE SWAP1 PUSH1 0x1 ADD SWAP1 PUSH1 0x20 ADD DUP1 DUP4 GT PUSH2 0x27A4 JUMPI DUP3 SWAP1 SUB PUSH1 0x1F AND DUP3 ADD SWAP2 JUMPDEST POP POP POP POP POP DUP2 MSTORE PUSH1 0x20 ADD DUP5 PUSH20 0xFFFFFFFFFFFFFFFFFFFFFFFFFFFFFFFFFFFFFFFF AND DUP2 MSTORE PUSH1 0x20 ADD PUSH1 0x14 PUSH0 DUP7 PUSH20 0xFFFFFFFFFFFFFFFFFFFFFFFFFFFFFFFFFFFFFFFF AND PUSH20 0xFFFFFFFFFFFFFFFFFFFFFFFFFFFFFFFFFFFFFFFF AND DUP2 MSTORE PUSH1 0x20 ADD SWAP1 DUP2 MSTORE PUSH1 0x20 ADD PUSH0 KECCAK256 PUSH0 SWAP1 SLOAD SWAP1 PUSH2 0x100 EXP SWAP1 DIV PUSH1 0xFF AND ISZERO ISZERO DUP2 MSTORE PUSH1 0x20 ADD PUSH1 0x10 DUP4 DUP2 SLOAD DUP2 LT PUSH2 0x284C JUMPI PUSH2 0x284B PUSH2 0x6C5B JUMP JUMPDEST JUMPDEST SWAP1 PUSH0 MSTORE PUSH1 0x20 PUSH0 KECCAK256 ADD SLOAD DUP2 MSTORE PUSH1 0x20 ADD PUSH1 0x12 DUP4 DUP2 SLOAD DUP2 LT PUSH2 0x286E JUMPI PUSH2 0x286D PUSH2 0x6C5B JUMP JUMPDEST JUMPDEST SWAP1 PUSH0 MSTORE PUSH1 0x20 PUSH0 KECCAK256 ADD SLOAD DUP2 MSTORE PUSH1 0x20 ADD PUSH1 0x11 DUP4 DUP2 SLOAD DUP2 LT PUSH2 0x2890 JUMPI PUSH2 0x288F PUSH2 0x6C5B JUMP JUMPDEST JUMPDEST SWAP1 PUSH0 MSTORE PUSH1 0x20 PUSH0 KECCAK256 ADD SLOAD DUP2 MSTORE PUSH1 0x20 ADD PUSH1 0x26 DUP4 DUP2 SLOAD DUP2 LT PUSH2 0x28B2 JUMPI PUSH2 0x28B1 PUSH2 0x6C5B JUMP JUMPDEST JUMPDEST SWAP1 PUSH0 MSTORE PUSH1 0x20 PUSH0 KECCAK256 SWAP1 PUSH1 0x20 SWAP2 DUP3 DUP3 DIV ADD SWAP2 SWAP1 MOD SWAP1 SLOAD SWAP1 PUSH2 0x100 EXP SWAP1 DIV PUSH1 0xFF AND ISZERO ISZERO DUP2 MSTORE PUSH1 0x20 ADD PUSH1 0x27 DUP4 DUP2 SLOAD DUP2 LT PUSH2 0x28EB JUMPI PUSH2 0x28EA PUSH2 0x6C5B JUMP JUMPDEST JUMPDEST SWAP1 PUSH0 MSTORE PUSH1 0x20 PUSH0 KECCAK256 SWAP1 PUSH1 0x20 SWAP2 DUP3 DUP3 DIV ADD SWAP2 SWAP1 MOD SWAP1 SLOAD SWAP1 PUSH2 0x100 EXP SWAP1 DIV PUSH1 0xFF AND ISZERO ISZERO DUP2 MSTORE PUSH1 0x20 ADD PUSH1 0x28 DUP4 DUP2 SLOAD DUP2 LT PUSH2 0x2924 JUMPI PUSH2 0x2923 PUSH2 0x6C5B JUMP JUMPDEST JUMPDEST SWAP1 PUSH0 MSTORE PUSH1 0x20 PUSH0 KECCAK256 SWAP1 PUSH1 0x20 SWAP2 DUP3 DUP3 DIV ADD SWAP2 SWAP1 MOD SWAP1 SLOAD SWAP1 PUSH2 0x100 EXP SWAP1 DIV PUSH1 0xFF AND ISZERO ISZERO DUP2 MSTORE PUSH1 0x20 ADD PUSH1 0x29 DUP4 DUP2 SLOAD DUP2 LT PUSH2 0x295D JUMPI PUSH2 0x295C PUSH2 0x6C5B JUMP JUMPDEST JUMPDEST SWAP1 PUSH0 MSTORE PUSH1 0x20 PUSH0 KECCAK256 SWAP1 PUSH1 0x20 SWAP2 DUP3 DUP3 DIV ADD SWAP2 SWAP1 MOD SWAP1 SLOAD SWAP1 PUSH2 0x100 EXP SWAP1 DIV PUSH1 0xFF AND ISZERO ISZERO DUP2 MSTORE PUSH1 0x20 ADD PUSH1 0x2A DUP4 DUP2 SLOAD DUP2 LT PUSH2 0x2996 JUMPI PUSH2 0x2995 PUSH2 0x6C5B JUMP JUMPDEST JUMPDEST SWAP1 PUSH0 MSTORE PUSH1 0x20 PUSH0 KECCAK256 SWAP1 PUSH1 0x20 SWAP2 DUP3 DUP3 DIV ADD SWAP2 SWAP1 MOD SWAP1 SLOAD SWAP1 PUSH2 0x100 EXP SWAP1 DIV PUSH1 0xFF AND ISZERO ISZERO DUP2 MSTORE PUSH1 0x20 ADD PUSH1 0x21 DUP4 DUP2 SLOAD DUP2 LT PUSH2 0x29CF JUMPI PUSH2 0x29CE PUSH2 0x6C5B JUMP JUMPDEST JUMPDEST SWAP1 PUSH0 MSTORE PUSH1 0x20 PUSH0 KECCAK256 ADD SLOAD DUP2 MSTORE PUSH1 0x20 ADD PUSH1 0x22 DUP4 DUP2 SLOAD DUP2 LT PUSH2 0x29F1 JUMPI PUSH2 0x29F0 PUSH2 0x6C5B JUMP JUMPDEST JUMPDEST SWAP1 PUSH0 MSTORE PUSH1 0x20 PUSH0 KECCAK256 ADD SLOAD DUP2 MSTORE PUSH1 0x20 ADD PUSH1 0x23 DUP4 DUP2 SLOAD DUP2 LT PUSH2 0x2A13 JUMPI PUSH2 0x2A12 PUSH2 0x6C5B JUMP JUMPDEST JUMPDEST SWAP1 PUSH0 MSTORE PUSH1 0x20 PUSH0 KECCAK256 ADD SLOAD DUP2 MSTORE PUSH1 0x20 ADD PUSH1 0x24 DUP4 DUP2 SLOAD DUP2 LT PUSH2 0x2A35 JUMPI PUSH2 0x2A34 PUSH2 0x6C5B JUMP JUMPDEST JUMPDEST SWAP1 PUSH0 MSTORE PUSH1 0x20 PUSH0 KECCAK256 ADD SLOAD DUP2 MSTORE POP SWAP2 POP POP SWAP2 SWAP1 POP JUMP JUMPDEST PUSH1 0x2 PUSH0 SWAP1 SLOAD SWAP1 PUSH2 0x100 EXP SWAP1 DIV PUSH20 0xFFFFFFFFFFFFFFFFFFFFFFFFFFFFFFFFFFFFFFFF AND PUSH20 0xFFFFFFFFFFFFFFFFFFFFFFFFFFFFFFFFFFFFFFFF AND CALLER PUSH20 0xFFFFFFFFFFFFFFFFFFFFFFFFFFFFFFFFFFFFFFFF AND EQ DUP1 PUSH2 0x2AEE JUMPI POP PUSH0 DUP1 SLOAD SWAP1 PUSH2 0x100 EXP SWAP1 DIV PUSH20 0xFFFFFFFFFFFFFFFFFFFFFFFFFFFFFFFFFFFFFFFF AND PUSH20 0xFFFFFFFFFFFFFFFFFFFFFFFFFFFFFFFFFFFFFFFF AND CALLER PUSH20 0xFFFFFFFFFFFFFFFFFFFFFFFFFFFFFFFFFFFFFFFF AND EQ JUMPDEST PUSH2 0x2B2D JUMPI PUSH1 0x40 MLOAD PUSH32 0x8C379A000000000000000000000000000000000000000000000000000000000 DUP2 MSTORE PUSH1 0x4 ADD PUSH2 0x2B24 SWAP1 PUSH2 0x6C3D JUMP JUMPDEST PUSH1 0x40 MLOAD DUP1 SWAP2 SUB SWAP1 REVERT JUMPDEST DUP2 PUSH1 0x1C DUP2 SWAP1 SSTORE POP DUP1 PUSH1 0x1B DUP2 SWAP1 SSTORE POP PUSH32 0x8F944F25B910C541435BCDE52D233072E903B37AFC29BC8B5787B6E74D82C1A DUP3 DUP3 PUSH1 0x40 MLOAD PUSH2 0x2B6C SWAP3 SWAP2 SWAP1 PUSH2 0x6A35 JUMP JUMPDEST PUSH1 0x40 MLOAD DUP1 SWAP2 SUB SWAP1 LOG1 POP POP JUMP JUMPDEST PUSH1 0x1 PUSH0 SWAP1 SLOAD SWAP1 PUSH2 0x100 EXP SWAP1 DIV PUSH20 0xFFFFFFFFFFFFFFFFFFFFFFFFFFFFFFFFFFFFFFFF AND PUSH20 0xFFFFFFFFFFFFFFFFFFFFFFFFFFFFFFFFFFFFFFFF AND CALLER PUSH20 0xFFFFFFFFFFFFFFFFFFFFFFFFFFFFFFFFFFFFFFFF AND EQ PUSH2 0x2C07 JUMPI PUSH1 0x40 MLOAD PUSH32 0x8C379A000000000000000000000000000000000000000000000000000000000 DUP2 MSTORE PUSH1 0x4 ADD PUSH2 0x2BFE SWAP1 PUSH2 0x7534 JUMP JUMPDEST PUSH1 0x40 MLOAD DUP1 SWAP2 SUB SWAP1 REVERT JUMPDEST PUSH32 0xB532073B38C83145E3E5135377A08BF9AAB55BC0FD7C1179CD4FB995D2A5159C PUSH0 DUP1 SLOAD SWAP1 PUSH2 0x100 EXP SWAP1 DIV PUSH20 0xFFFFFFFFFFFFFFFFFFFFFFFFFFFFFFFFFFFFFFFF AND PUSH1 0x1 PUSH0 SWAP1 SLOAD SWAP1 PUSH2 0x100 EXP SWAP1 DIV PUSH20 0xFFFFFFFFFFFFFFFFFFFFFFFFFFFFFFFFFFFFFFFF AND PUSH1 0x40 MLOAD PUSH2 0x2C78 SWAP3 SWAP2 SWAP1 PUSH2 0x6D18 JUMP JUMPDEST PUSH1 0x40 MLOAD DUP1 SWAP2 SUB SWAP1 LOG1 PUSH1 0x1 PUSH0 SWAP1 SLOAD SWAP1 PUSH2 0x100 EXP SWAP1 DIV PUSH20 0xFFFFFFFFFFFFFFFFFFFFFFFFFFFFFFFFFFFFFFFF AND PUSH0 DUP1 PUSH2 0x100 EXP DUP2 SLOAD DUP2 PUSH20 0xFFFFFFFFFFFFFFFFFFFFFFFFFFFFFFFFFFFFFFFF MUL NOT AND SWAP1 DUP4 PUSH20 0xFFFFFFFFFFFFFFFFFFFFFFFFFFFFFFFFFFFFFFFF AND MUL OR SWAP1 SSTORE POP PUSH0 PUSH1 0x1 PUSH0 PUSH2 0x100 EXP DUP2 SLOAD DUP2 PUSH20 0xFFFFFFFFFFFFFFFFFFFFFFFFFFFFFFFFFFFFFFFF MUL NOT AND SWAP1 DUP4 PUSH20 0xFFFFFFFFFFFFFFFFFFFFFFFFFFFFFFFFFFFFFFFF AND MUL OR SWAP1 SSTORE POP JUMP JUMPDEST PUSH0 DUP1 PUSH0 DUP1 DUP10 PUSH1 0x14 PUSH0 PUSH1 0xE DUP4 DUP2 SLOAD DUP2 LT PUSH2 0x2D3E JUMPI PUSH2 0x2D3D PUSH2 0x6C5B JUMP JUMPDEST JUMPDEST SWAP1 PUSH0 MSTORE PUSH1 0x20 PUSH0 KECCAK256 ADD PUSH0 SWAP1 SLOAD SWAP1 PUSH2 0x100 EXP SWAP1 DIV PUSH20 0xFFFFFFFFFFFFFFFFFFFFFFFFFFFFFFFFFFFFFFFF AND PUSH20 0xFFFFFFFFFFFFFFFFFFFFFFFFFFFFFFFFFFFFFFFF AND PUSH20 0xFFFFFFFFFFFFFFFFFFFFFFFFFFFFFFFFFFFFFFFF AND DUP2 MSTORE PUSH1 0x20 ADD SWAP1 DUP2 MSTORE PUSH1 0x20 ADD PUSH0 KECCAK256 PUSH0 SWAP1 SLOAD SWAP1 PUSH2 0x100 EXP SWAP1 DIV PUSH1 0xFF AND PUSH2 0x2DEB JUMPI PUSH1 0x40 MLOAD PUSH32 0x8C379A000000000000000000000000000000000000000000000000000000000 DUP2 MSTORE PUSH1 0x4 ADD PUSH2 0x2DE2 SWAP1 PUSH2 0x719A JUMP JUMPDEST PUSH1 0x40 MLOAD DUP1 SWAP2 SUB SWAP1 REVERT JUMPDEST PUSH0 DUP11 SWAP1 POP PUSH0 DUP13 SWAP1 POP PUSH0 ISZERO ISZERO PUSH1 0x26 DUP15 DUP2 SLOAD DUP2 LT PUSH2 0x2E0A JUMPI PUSH2 0x2E09 PUSH2 0x6C5B JUMP JUMPDEST JUMPDEST SWAP1 PUSH0 MSTORE PUSH1 0x20 PUSH0 KECCAK256 SWAP1 PUSH1 0x20 SWAP2 DUP3 DUP3 DIV ADD SWAP2 SWAP1 MOD SWAP1 SLOAD SWAP1 PUSH2 0x100 EXP SWAP1 DIV PUSH1 0xFF AND ISZERO ISZERO EQ PUSH2 0x2E6A JUMPI PUSH1 0x40 MLOAD PUSH32 0x8C379A000000000000000000000000000000000000000000000000000000000 DUP2 MSTORE PUSH1 0x4 ADD PUSH2 0x2E61 SWAP1 PUSH2 0x759C JUMP JUMPDEST PUSH1 0x40 MLOAD DUP1 SWAP2 SUB SWAP1 REVERT JUMPDEST PUSH1 0x1C SLOAD PUSH2 0x2E75 PUSH2 0x5B81 JUMP JUMPDEST LT ISZERO PUSH2 0x2EB6 JUMPI PUSH1 0x40 MLOAD PUSH32 0x8C379A000000000000000000000000000000000000000000000000000000000 DUP2 MSTORE PUSH1 0x4 ADD PUSH2 0x2EAD SWAP1 PUSH2 0x7604 JUMP JUMPDEST PUSH1 0x40 MLOAD DUP1 SWAP2 SUB SWAP1 REVERT JUMPDEST PUSH0 PUSH1 0x4 PUSH0 SWAP1 SLOAD SWAP1 PUSH2 0x100 EXP SWAP1 DIV PUSH20 0xFFFFFFFFFFFFFFFFFFFFFFFFFFFFFFFFFFFFFFFF AND PUSH20 0xFFFFFFFFFFFFFFFFFFFFFFFFFFFFFFFFFFFFFFFF AND PUSH4 0x2EB9771B PUSH1 0x40 MLOAD DUP2 PUSH4 0xFFFFFFFF AND PUSH1 0xE0 SHL DUP2 MSTORE PUSH1 0x4 ADD PUSH1 0x20 PUSH1 0x40 MLOAD DUP1 DUP4 SUB DUP2 DUP7 GAS STATICCALL ISZERO DUP1 ISZERO PUSH2 0x2F21 JUMPI RETURNDATASIZE PUSH0 DUP1 RETURNDATACOPY RETURNDATASIZE PUSH0 REVERT JUMPDEST POP POP POP POP PUSH1 0x40 MLOAD RETURNDATASIZE PUSH1 0x1F NOT PUSH1 0x1F DUP3 ADD AND DUP3 ADD DUP1 PUSH1 0x40 MSTORE POP DUP2 ADD SWAP1 PUSH2 0x2F45 SWAP2 SWAP1 PUSH2 0x7125 JUMP JUMPDEST SWAP1 POP DUP9 DUP1 PUSH2 0x2F56 JUMPI POP PUSH3 0xF4240 DUP2 LT ISZERO JUMPDEST ISZERO PUSH2 0x2F6F JUMPI PUSH2 0x2F65 DUP3 DUP15 PUSH2 0x2598 JUMP JUMPDEST SWAP7 POP PUSH0 SWAP6 POP PUSH2 0x310D JUMP JUMPDEST PUSH0 DUP2 SUB PUSH2 0x301D JUMPI PUSH0 SWAP7 POP PUSH0 PUSH2 0x2FA1 PUSH1 0x64 PUSH2 0x2F93 PUSH1 0x32 DUP8 PUSH2 0x5CDB SWAP1 SWAP2 SWAP1 PUSH4 0xFFFFFFFF AND JUMP JUMPDEST PUSH2 0x5D52 SWAP1 SWAP2 SWAP1 PUSH4 0xFFFFFFFF AND JUMP JUMPDEST SWAP1 POP PUSH2 0x2FD2 PUSH2 0x2FAE PUSH2 0x355C JUMP JUMPDEST PUSH2 0x2FC4 PUSH3 0xF4240 DUP5 PUSH2 0x5CDB SWAP1 SWAP2 SWAP1 PUSH4 0xFFFFFFFF AND JUMP JUMPDEST PUSH2 0x5D52 SWAP1 SWAP2 SWAP1 PUSH4 0xFFFFFFFF AND JUMP JUMPDEST SWAP7 POP PUSH2 0x3015 PUSH2 0x2FDF PUSH2 0x11C9 JUMP JUMPDEST PUSH2 0x3007 PUSH3 0xF4240 PUSH2 0x2FF9 DUP6 DUP10 PUSH2 0x5D9B SWAP1 SWAP2 SWAP1 PUSH4 0xFFFFFFFF AND JUMP JUMPDEST PUSH2 0x5CDB SWAP1 SWAP2 SWAP1 PUSH4 0xFFFFFFFF AND JUMP JUMPDEST PUSH2 0x5D52 SWAP1 SWAP2 SWAP1 PUSH4 0xFFFFFFFF AND JUMP JUMPDEST SWAP6 POP POP PUSH2 0x310C JUMP JUMPDEST PUSH0 PUSH2 0x3046 PUSH3 0xF4240 PUSH2 0x3038 DUP5 DUP8 PUSH2 0x5CDB SWAP1 SWAP2 SWAP1 PUSH4 0xFFFFFFFF AND JUMP JUMPDEST PUSH2 0x5D52 SWAP1 SWAP2 SWAP1 PUSH4 0xFFFFFFFF AND JUMP JUMPDEST SWAP1 POP PUSH0 PUSH2 0x305C DUP3 DUP7 PUSH2 0x5D9B SWAP1 SWAP2 SWAP1 PUSH4 0xFFFFFFFF AND JUMP JUMPDEST SWAP1 POP PUSH2 0x3068 DUP5 DUP4 PUSH2 0x2598 JUMP JUMPDEST SWAP9 POP PUSH0 PUSH2 0x3092 PUSH1 0x64 PUSH2 0x3084 PUSH1 0x32 DUP6 PUSH2 0x5CDB SWAP1 SWAP2 SWAP1 PUSH4 0xFFFFFFFF AND JUMP JUMPDEST PUSH2 0x5D52 SWAP1 SWAP2 SWAP1 PUSH4 0xFFFFFFFF AND JUMP JUMPDEST SWAP1 POP PUSH2 0x30C3 PUSH2 0x309F PUSH2 0x355C JUMP JUMPDEST PUSH2 0x30B5 PUSH3 0xF4240 DUP5 PUSH2 0x5CDB SWAP1 SWAP2 SWAP1 PUSH4 0xFFFFFFFF AND JUMP JUMPDEST PUSH2 0x5D52 SWAP1 SWAP2 SWAP1 PUSH4 0xFFFFFFFF AND JUMP JUMPDEST SWAP9 POP PUSH2 0x3106 PUSH2 0x30D0 PUSH2 0x11C9 JUMP JUMPDEST PUSH2 0x30F8 PUSH3 0xF4240 PUSH2 0x30EA DUP6 DUP8 PUSH2 0x5D9B SWAP1 SWAP2 SWAP1 PUSH4 0xFFFFFFFF AND JUMP JUMPDEST PUSH2 0x5CDB SWAP1 SWAP2 SWAP1 PUSH4 0xFFFFFFFF AND JUMP JUMPDEST PUSH2 0x5D52 SWAP1 SWAP2 SWAP1 PUSH4 0xFFFFFFFF AND JUMP JUMPDEST SWAP8 POP POP POP POP JUMPDEST JUMPDEST PUSH2 0x3166 PUSH3 0xF4240 PUSH2 0x3158 PUSH2 0x3149 PUSH1 0x21 DUP7 DUP2 SLOAD DUP2 LT PUSH2 0x312E JUMPI PUSH2 0x312D PUSH2 0x6C5B JUMP JUMPDEST JUMPDEST SWAP1 PUSH0 MSTORE PUSH1 0x20 PUSH0 KECCAK256 ADD SLOAD PUSH3 0xF4240 PUSH2 0x5D9B SWAP1 SWAP2 SWAP1 PUSH4 0xFFFFFFFF AND JUMP JUMPDEST DUP7 PUSH2 0x5CDB SWAP1 SWAP2 SWAP1 PUSH4 0xFFFFFFFF AND JUMP JUMPDEST PUSH2 0x5D52 SWAP1 SWAP2 SWAP1 PUSH4 0xFFFFFFFF AND JUMP JUMPDEST SWAP8 POP DUP12 DUP9 LT ISZERO PUSH2 0x31AB JUMPI PUSH1 0x40 MLOAD PUSH32 0x8C379A000000000000000000000000000000000000000000000000000000000 DUP2 MSTORE PUSH1 0x4 ADD PUSH2 0x31A2 SWAP1 PUSH2 0x766C JUMP JUMPDEST PUSH1 0x40 MLOAD DUP1 SWAP2 SUB SWAP1 REVERT JUMPDEST DUP11 DUP8 GT ISZERO PUSH2 0x31EE JUMPI PUSH1 0x40 MLOAD PUSH32 0x8C379A000000000000000000000000000000000000000000000000000000000 DUP2 MSTORE PUSH1 0x4 ADD PUSH2 0x31E5 SWAP1 PUSH2 0x76D4 JUMP JUMPDEST PUSH1 0x40 MLOAD DUP1 SWAP2 SUB SWAP1 REVERT JUMPDEST PUSH1 0x11 DUP15 DUP2 SLOAD DUP2 LT PUSH2 0x3202 JUMPI PUSH2 0x3201 PUSH2 0x6C5B JUMP JUMPDEST JUMPDEST SWAP1 PUSH0 MSTORE PUSH1 0x20 PUSH0 KECCAK256 ADD SLOAD PUSH2 0x3226 DUP9 PUSH2 0x3218 DUP6 PUSH2 0x1AEA JUMP JUMPDEST PUSH2 0x5E26 SWAP1 SWAP2 SWAP1 PUSH4 0xFFFFFFFF AND JUMP JUMPDEST GT ISZERO PUSH2 0x3267 JUMPI PUSH1 0x40 MLOAD PUSH32 0x8C379A000000000000000000000000000000000000000000000000000000000 DUP2 MSTORE PUSH1 0x4 ADD PUSH2 0x325E SWAP1 PUSH2 0x737B JUMP JUMPDEST PUSH1 0x40 MLOAD DUP1 SWAP2 SUB SWAP1 REVERT JUMPDEST PUSH1 0x5 PUSH0 SWAP1 SLOAD SWAP1 PUSH2 0x100 EXP SWAP1 DIV PUSH20 0xFFFFFFFFFFFFFFFFFFFFFFFFFFFFFFFFFFFFFFFF AND PUSH20 0xFFFFFFFFFFFFFFFFFFFFFFFFFFFFFFFFFFFFFFFF AND PUSH4 0xA8A778AE CALLER DUP9 PUSH1 0x40 MLOAD DUP4 PUSH4 0xFFFFFFFF AND PUSH1 0xE0 SHL DUP2 MSTORE PUSH1 0x4 ADD PUSH2 0x32C3 SWAP3 SWAP2 SWAP1 PUSH2 0x7399 JUMP JUMPDEST PUSH0 PUSH1 0x40 MLOAD DUP1 DUP4 SUB DUP2 PUSH0 DUP8 DUP1 EXTCODESIZE ISZERO DUP1 ISZERO PUSH2 0x32DA JUMPI PUSH0 DUP1 REVERT JUMPDEST POP GAS CALL ISZERO DUP1 ISZERO PUSH2 0x32EC JUMPI RETURNDATASIZE PUSH0 DUP1 RETURNDATACOPY RETURNDATASIZE PUSH0 REVERT JUMPDEST POP POP POP POP PUSH2 0x3337 PUSH1 0xE DUP4 DUP2 SLOAD DUP2 LT PUSH2 0x3307 JUMPI PUSH2 0x3306 PUSH2 0x6C5B JUMP JUMPDEST JUMPDEST SWAP1 PUSH0 MSTORE PUSH1 0x20 PUSH0 KECCAK256 ADD PUSH0 SWAP1 SLOAD SWAP1 PUSH2 0x100 EXP SWAP1 DIV PUSH20 0xFFFFFFFFFFFFFFFFFFFFFFFFFFFFFFFFFFFFFFFF AND CALLER ADDRESS DUP11 PUSH2 0x5E83 JUMP JUMPDEST PUSH0 DUP6 GT ISZERO PUSH2 0x33F5 JUMPI PUSH1 0xD PUSH0 SWAP1 SLOAD SWAP1 PUSH2 0x100 EXP SWAP1 DIV PUSH20 0xFFFFFFFFFFFFFFFFFFFFFFFFFFFFFFFFFFFFFFFF AND PUSH20 0xFFFFFFFFFFFFFFFFFFFFFFFFFFFFFFFFFFFFFFFF AND PUSH4 0x23B872DD CALLER ADDRESS PUSH2 0x3395 PUSH4 0x3B9ACA00 DUP11 PUSH2 0x5D52 SWAP1 SWAP2 SWAP1 PUSH4 0xFFFFFFFF AND JUMP JUMPDEST PUSH1 0x40 MLOAD DUP5 PUSH4 0xFFFFFFFF AND PUSH1 0xE0 SHL DUP2 MSTORE PUSH1 0x4 ADD PUSH2 0x33B3 SWAP4 SWAP3 SWAP2 SWAP1 PUSH2 0x76F2 JUMP JUMPDEST PUSH1 0x20 PUSH1 0x40 MLOAD DUP1 DUP4 SUB DUP2 PUSH0 DUP8 GAS CALL ISZERO DUP1 ISZERO PUSH2 0x33CF JUMPI RETURNDATASIZE PUSH0 DUP1 RETURNDATACOPY RETURNDATASIZE PUSH0 REVERT JUMPDEST POP POP POP POP PUSH1 0x40 MLOAD RETURNDATASIZE PUSH1 0x1F NOT PUSH1 0x1F DUP3 ADD AND DUP3 ADD DUP1 PUSH1 0x40 MSTORE POP DUP2 ADD SWAP1 PUSH2 0x33F3 SWAP2 SWAP1 PUSH2 0x73D4 JUMP JUMPDEST POP JUMPDEST PUSH1 0x4 PUSH0 SWAP1 SLOAD SWAP1 PUSH2 0x100 EXP SWAP1 DIV PUSH20 0xFFFFFFFFFFFFFFFFFFFFFFFFFFFFFFFFFFFFFFFF AND PUSH20 0xFFFFFFFFFFFFFFFFFFFFFFFFFFFFFFFFFFFFFFFF AND PUSH4 0xB4F56B26 CALLER DUP11 PUSH1 0x40 MLOAD DUP4 PUSH4 0xFFFFFFFF AND PUSH1 0xE0 SHL DUP2 MSTORE PUSH1 0x4 ADD PUSH2 0x3451 SWAP3 SWAP2 SWAP1 PUSH2 0x7399 JUMP JUMPDEST PUSH0 PUSH1 0x40 MLOAD DUP1 DUP4 SUB DUP2 PUSH0 DUP8 DUP1 EXTCODESIZE ISZERO DUP1 ISZERO PUSH2 0x3468 JUMPI PUSH0 DUP1 REVERT JUMPDEST POP GAS CALL ISZERO DUP1 ISZERO PUSH2 0x347A JUMPI RETURNDATASIZE PUSH0 DUP1 RETURNDATACOPY RETURNDATASIZE PUSH0 REVERT JUMPDEST POP POP POP POP POP POP POP POP SWAP7 POP SWAP7 POP SWAP7 POP SWAP7 SWAP3 POP POP POP JUMP JUMPDEST PUSH1 0x3 PUSH0 SWAP1 SLOAD SWAP1 PUSH2 0x100 EXP SWAP1 DIV PUSH20 0xFFFFFFFFFFFFFFFFFFFFFFFFFFFFFFFFFFFFFFFF AND DUP2 JUMP JUMPDEST PUSH1 0x14 PUSH1 0x20 MSTORE DUP1 PUSH0 MSTORE PUSH1 0x40 PUSH0 KECCAK256 PUSH0 SWAP2 POP SLOAD SWAP1 PUSH2 0x100 EXP SWAP1 DIV PUSH1 0xFF AND DUP2 JUMP JUMPDEST PUSH1 0x60 PUSH1 0xE DUP1 SLOAD DUP1 PUSH1 0x20 MUL PUSH1 0x20 ADD PUSH1 0x40 MLOAD SWAP1 DUP2 ADD PUSH1 0x40 MSTORE DUP1 SWAP3 SWAP2 SWAP1 DUP2 DUP2 MSTORE PUSH1 0x20 ADD DUP3 DUP1 SLOAD DUP1 ISZERO PUSH2 0x3552 JUMPI PUSH1 0x20 MUL DUP3 ADD SWAP2 SWAP1 PUSH0 MSTORE PUSH1 0x20 PUSH0 KECCAK256 SWAP1 JUMPDEST DUP2 PUSH0 SWAP1 SLOAD SWAP1 PUSH2 0x100 EXP SWAP1 DIV PUSH20 0xFFFFFFFFFFFFFFFFFFFFFFFFFFFFFFFFFFFFFFFF AND PUSH20 0xFFFFFFFFFFFFFFFFFFFFFFFFFFFFFFFFFFFFFFFF AND DUP2 MSTORE PUSH1 0x20 ADD SWAP1 PUSH1 0x1 ADD SWAP1 DUP1 DUP4 GT PUSH2 0x3509 JUMPI JUMPDEST POP POP POP POP POP SWAP1 POP SWAP1 JUMP JUMPDEST PUSH0 DUP1 PUSH0 DUP1 PUSH0 PUSH1 0x8 PUSH0 SWAP1 SLOAD SWAP1 PUSH2 0x100 EXP SWAP1 DIV PUSH20 0xFFFFFFFFFFFFFFFFFFFFFFFFFFFFFFFFFFFFFFFF AND PUSH20 0xFFFFFFFFFFFFFFFFFFFFFFFFFFFFFFFFFFFFFFFF AND PUSH4 0xFEAF968C PUSH1 0x40 MLOAD DUP2 PUSH4 0xFFFFFFFF AND PUSH1 0xE0 SHL DUP2 MSTORE PUSH1 0x4 ADD PUSH1 0xA0 PUSH1 0x40 MLOAD DUP1 DUP4 SUB DUP2 DUP7 GAS STATICCALL ISZERO DUP1 ISZERO PUSH2 0x35CB JUMPI RETURNDATASIZE PUSH0 DUP1 RETURNDATACOPY RETURNDATASIZE PUSH0 REVERT JUMPDEST POP POP POP POP PUSH1 0x40 MLOAD RETURNDATASIZE PUSH1 0x1F NOT PUSH1 0x1F DUP3 ADD AND DUP3 ADD DUP1 PUSH1 0x40 MSTORE POP DUP2 ADD SWAP1 PUSH2 0x35EF SWAP2 SWAP1 PUSH2 0x6DC5 JUMP JUMPDEST SWAP5 POP SWAP5 POP POP SWAP4 POP SWAP4 POP PUSH0 DUP4 SLT ISZERO DUP1 ISZERO PUSH2 0x3608 JUMPI POP PUSH0 DUP3 EQ ISZERO JUMPDEST DUP1 ISZERO PUSH2 0x362C JUMPI POP DUP4 PUSH10 0xFFFFFFFFFFFFFFFFFFFF AND DUP2 PUSH10 0xFFFFFFFFFFFFFFFFFFFF AND LT ISZERO JUMPDEST PUSH2 0x366B JUMPI PUSH1 0x40 MLOAD PUSH32 0x8C379A000000000000000000000000000000000000000000000000000000000 DUP2 MSTORE PUSH1 0x4 ADD PUSH2 0x3662 SWAP1 PUSH2 0x6E86 JUMP JUMPDEST PUSH1 0x40 MLOAD DUP1 SWAP2 SUB SWAP1 REVERT JUMPDEST PUSH2 0x36A1 PUSH1 0xB SLOAD PUSH1 0xA PUSH2 0x367D SWAP2 SWAP1 PUSH2 0x6FD3 JUMP JUMPDEST PUSH2 0x3693 PUSH3 0xF4240 DUP7 PUSH2 0x5CDB SWAP1 SWAP2 SWAP1 PUSH4 0xFFFFFFFF AND JUMP JUMPDEST PUSH2 0x5D52 SWAP1 SWAP2 SWAP1 PUSH4 0xFFFFFFFF AND JUMP JUMPDEST SWAP5 POP POP POP POP POP SWAP1 JUMP JUMPDEST PUSH0 DUP1 SLOAD SWAP1 PUSH2 0x100 EXP SWAP1 DIV PUSH20 0xFFFFFFFFFFFFFFFFFFFFFFFFFFFFFFFFFFFFFFFF AND DUP2 JUMP JUMPDEST PUSH1 0x6 PUSH0 CALLER PUSH20 0xFFFFFFFFFFFFFFFFFFFFFFFFFFFFFFFFFFFFFFFF AND PUSH20 0xFFFFFFFFFFFFFFFFFFFFFFFFFFFFFFFFFFFFFFFF AND DUP2 MSTORE PUSH1 0x20 ADD SWAP1 DUP2 MSTORE PUSH1 0x20 ADD PUSH0 KECCAK256 PUSH0 SWAP1 SLOAD SWAP1 PUSH2 0x100 EXP SWAP1 DIV PUSH1 0xFF AND PUSH2 0x3756 JUMPI PUSH1 0x40 MLOAD PUSH32 0x8C379A000000000000000000000000000000000000000000000000000000000 DUP2 MSTORE PUSH1 0x4 ADD PUSH2 0x374D SWAP1 PUSH2 0x7771 JUMP JUMPDEST PUSH1 0x40 MLOAD DUP1 SWAP2 SUB SWAP1 REVERT JUMPDEST PUSH0 CALLER PUSH20 0xFFFFFFFFFFFFFFFFFFFFFFFFFFFFFFFFFFFFFFFF AND PUSH4 0x8B443396 PUSH1 0x40 MLOAD DUP2 PUSH4 0xFFFFFFFF AND PUSH1 0xE0 SHL DUP2 MSTORE PUSH1 0x4 ADD PUSH1 0x20 PUSH1 0x40 MLOAD DUP1 DUP4 SUB DUP2 DUP7 GAS STATICCALL ISZERO DUP1 ISZERO PUSH2 0x37A0 JUMPI RETURNDATASIZE PUSH0 DUP1 RETURNDATACOPY RETURNDATASIZE PUSH0 REVERT JUMPDEST POP POP POP POP PUSH1 0x40 MLOAD RETURNDATASIZE PUSH1 0x1F NOT PUSH1 0x1F DUP3 ADD AND DUP3 ADD DUP1 PUSH1 0x40 MSTORE POP DUP2 ADD SWAP1 PUSH2 0x37C4 SWAP2 SWAP1 PUSH2 0x7125 JUMP JUMPDEST SWAP1 POP PUSH0 ISZERO ISZERO PUSH1 0x2A DUP3 DUP2 SLOAD DUP2 LT PUSH2 0x37DD JUMPI PUSH2 0x37DC PUSH2 0x6C5B JUMP JUMPDEST JUMPDEST SWAP1 PUSH0 MSTORE PUSH1 0x20 PUSH0 KECCAK256 SWAP1 PUSH1 0x20 SWAP2 DUP3 DUP3 DIV ADD SWAP2 SWAP1 MOD SWAP1 SLOAD SWAP1 PUSH2 0x100 EXP SWAP1 DIV PUSH1 0xFF AND ISZERO ISZERO EQ PUSH2 0x383D JUMPI PUSH1 0x40 MLOAD PUSH32 0x8C379A000000000000000000000000000000000000000000000000000000000 DUP2 MSTORE PUSH1 0x4 ADD PUSH2 0x3834 SWAP1 PUSH2 0x77D9 JUMP JUMPDEST PUSH1 0x40 MLOAD DUP1 SWAP2 SUB SWAP1 REVERT JUMPDEST PUSH1 0x14 PUSH0 PUSH1 0xE DUP4 DUP2 SLOAD DUP2 LT PUSH2 0x3854 JUMPI PUSH2 0x3853 PUSH2 0x6C5B JUMP JUMPDEST JUMPDEST SWAP1 PUSH0 MSTORE PUSH1 0x20 PUSH0 KECCAK256 ADD PUSH0 SWAP1 SLOAD SWAP1 PUSH2 0x100 EXP SWAP1 DIV PUSH20 0xFFFFFFFFFFFFFFFFFFFFFFFFFFFFFFFFFFFFFFFF AND PUSH20 0xFFFFFFFFFFFFFFFFFFFFFFFFFFFFFFFFFFFFFFFF AND PUSH20 0xFFFFFFFFFFFFFFFFFFFFFFFFFFFFFFFFFFFFFFFF AND DUP2 MSTORE PUSH1 0x20 ADD SWAP1 DUP2 MSTORE PUSH1 0x20 ADD PUSH0 KECCAK256 PUSH0 SWAP1 SLOAD SWAP1 PUSH2 0x100 EXP SWAP1 DIV PUSH1 0xFF AND PUSH2 0x3901 JUMPI PUSH1 0x40 MLOAD PUSH32 0x8C379A000000000000000000000000000000000000000000000000000000000 DUP2 MSTORE PUSH1 0x4 ADD PUSH2 0x38F8 SWAP1 PUSH2 0x719A JUMP JUMPDEST PUSH1 0x40 MLOAD DUP1 SWAP2 SUB SWAP1 REVERT JUMPDEST PUSH2 0x3947 PUSH1 0xE DUP3 DUP2 SLOAD DUP2 LT PUSH2 0x3918 JUMPI PUSH2 0x3917 PUSH2 0x6C5B JUMP JUMPDEST JUMPDEST SWAP1 PUSH0 MSTORE PUSH1 0x20 PUSH0 KECCAK256 ADD PUSH0 SWAP1 SLOAD SWAP1 PUSH2 0x100 EXP SWAP1 DIV PUSH20 0xFFFFFFFFFFFFFFFFFFFFFFFFFFFFFFFFFFFFFFFF AND CALLER DUP5 PUSH2 0x5FB6 JUMP JUMPDEST POP POP JUMP JUMPDEST PUSH0 DUP1 PUSH0 ISZERO ISZERO PUSH1 0x27 DUP5 DUP2 SLOAD DUP2 LT PUSH2 0x3964 JUMPI PUSH2 0x3963 PUSH2 0x6C5B JUMP JUMPDEST JUMPDEST SWAP1 PUSH0 MSTORE PUSH1 0x20 PUSH0 KECCAK256 SWAP1 PUSH1 0x20 SWAP2 DUP3 DUP3 DIV ADD SWAP2 SWAP1 MOD SWAP1 SLOAD SWAP1 PUSH2 0x100 EXP SWAP1 DIV PUSH1 0xFF AND ISZERO ISZERO EQ PUSH2 0x39C4 JUMPI PUSH1 0x40 MLOAD PUSH32 0x8C379A000000000000000000000000000000000000000000000000000000000 DUP2 MSTORE PUSH1 0x4 ADD PUSH2 0x39BB SWAP1 PUSH2 0x7841 JUMP JUMPDEST PUSH1 0x40 MLOAD DUP1 SWAP2 SUB SWAP1 REVERT JUMPDEST NUMBER PUSH2 0x3A17 PUSH1 0x1A SLOAD PUSH1 0x19 PUSH0 CALLER PUSH20 0xFFFFFFFFFFFFFFFFFFFFFFFFFFFFFFFFFFFFFFFF AND PUSH20 0xFFFFFFFFFFFFFFFFFFFFFFFFFFFFFFFFFFFFFFFF AND DUP2 MSTORE PUSH1 0x20 ADD SWAP1 DUP2 MSTORE PUSH1 0x20 ADD PUSH0 KECCAK256 SLOAD PUSH2 0x5E26 SWAP1 SWAP2 SWAP1 PUSH4 0xFFFFFFFF AND JUMP JUMPDEST GT ISZERO PUSH2 0x3A58 JUMPI PUSH1 0x40 MLOAD PUSH32 0x8C379A000000000000000000000000000000000000000000000000000000000 DUP2 MSTORE PUSH1 0x4 ADD PUSH2 0x3A4F SWAP1 PUSH2 0x78A9 JUMP JUMPDEST PUSH1 0x40 MLOAD DUP1 SWAP2 SUB SWAP1 REVERT JUMPDEST PUSH0 DUP1 PUSH0 PUSH1 0x15 PUSH0 CALLER PUSH20 0xFFFFFFFFFFFFFFFFFFFFFFFFFFFFFFFFFFFFFFFF AND PUSH20 0xFFFFFFFFFFFFFFFFFFFFFFFFFFFFFFFFFFFFFFFF AND DUP2 MSTORE PUSH1 0x20 ADD SWAP1 DUP2 MSTORE PUSH1 0x20 ADD PUSH0 KECCAK256 SLOAD GT ISZERO PUSH2 0x3B41 JUMPI PUSH1 0x15 PUSH0 CALLER PUSH20 0xFFFFFFFFFFFFFFFFFFFFFFFFFFFFFFFFFFFFFFFF AND PUSH20 0xFFFFFFFFFFFFFFFFFFFFFFFFFFFFFFFFFFFFFFFF AND DUP2 MSTORE PUSH1 0x20 ADD SWAP1 DUP2 MSTORE PUSH1 0x20 ADD PUSH0 KECCAK256 SLOAD SWAP4 POP PUSH0 PUSH1 0x15 PUSH0 CALLER PUSH20 0xFFFFFFFFFFFFFFFFFFFFFFFFFFFFFFFFFFFFFFFF AND PUSH20 0xFFFFFFFFFFFFFFFFFFFFFFFFFFFFFFFFFFFFFFFF AND DUP2 MSTORE PUSH1 0x20 ADD SWAP1 DUP2 MSTORE PUSH1 0x20 ADD PUSH0 KECCAK256 DUP2 SWAP1 SSTORE POP PUSH2 0x3B36 DUP5 PUSH1 0x18 SLOAD PUSH2 0x5D9B SWAP1 SWAP2 SWAP1 PUSH4 0xFFFFFFFF AND JUMP JUMPDEST PUSH1 0x18 DUP2 SWAP1 SSTORE POP PUSH1 0x1 SWAP2 POP JUMPDEST PUSH0 PUSH1 0x16 PUSH0 CALLER PUSH20 0xFFFFFFFFFFFFFFFFFFFFFFFFFFFFFFFFFFFFFFFF AND PUSH20 0xFFFFFFFFFFFFFFFFFFFFFFFFFFFFFFFFFFFFFFFF AND DUP2 MSTORE PUSH1 0x20 ADD SWAP1 DUP2 MSTORE PUSH1 0x20 ADD PUSH0 KECCAK256 PUSH0 DUP8 DUP2 MSTORE PUSH1 0x20 ADD SWAP1 DUP2 MSTORE PUSH1 0x20 ADD PUSH0 KECCAK256 SLOAD GT ISZERO PUSH2 0x3C89 JUMPI PUSH1 0x16 PUSH0 CALLER PUSH20 0xFFFFFFFFFFFFFFFFFFFFFFFFFFFFFFFFFFFFFFFF AND PUSH20 0xFFFFFFFFFFFFFFFFFFFFFFFFFFFFFFFFFFFFFFFF AND DUP2 MSTORE PUSH1 0x20 ADD SWAP1 DUP2 MSTORE PUSH1 0x20 ADD PUSH0 KECCAK256 PUSH0 DUP7 DUP2 MSTORE PUSH1 0x20 ADD SWAP1 DUP2 MSTORE PUSH1 0x20 ADD PUSH0 KECCAK256 SLOAD SWAP3 POP PUSH0 PUSH1 0x16 PUSH0 CALLER PUSH20 0xFFFFFFFFFFFFFFFFFFFFFFFFFFFFFFFFFFFFFFFF AND PUSH20 0xFFFFFFFFFFFFFFFFFFFFFFFFFFFFFFFFFFFFFFFF AND DUP2 MSTORE PUSH1 0x20 ADD SWAP1 DUP2 MSTORE PUSH1 0x20 ADD PUSH0 KECCAK256 PUSH0 DUP8 DUP2 MSTORE PUSH1 0x20 ADD SWAP1 DUP2 MSTORE PUSH1 0x20 ADD PUSH0 KECCAK256 DUP2 SWAP1 SSTORE POP PUSH2 0x3C64 DUP4 PUSH1 0x17 DUP8 DUP2 SLOAD DUP2 LT PUSH2 0x3C4D JUMPI PUSH2 0x3C4C PUSH2 0x6C5B JUMP JUMPDEST JUMPDEST SWAP1 PUSH0 MSTORE PUSH1 0x20 PUSH0 KECCAK256 ADD SLOAD PUSH2 0x5D9B SWAP1 SWAP2 SWAP1 PUSH4 0xFFFFFFFF AND JUMP JUMPDEST PUSH1 0x17 DUP7 DUP2 SLOAD DUP2 LT PUSH2 0x3C78 JUMPI PUSH2 0x3C77 PUSH2 0x6C5B JUMP JUMPDEST JUMPDEST SWAP1 PUSH0 MSTORE PUSH1 0x20 PUSH0 KECCAK256 ADD DUP2 SWAP1 SSTORE POP PUSH1 0x1 SWAP1 POP JUMPDEST DUP2 ISZERO PUSH2 0x3CBC JUMPI PUSH2 0x3CBB PUSH1 0x5 PUSH0 SWAP1 SLOAD SWAP1 PUSH2 0x100 EXP SWAP1 DIV PUSH20 0xFFFFFFFFFFFFFFFFFFFFFFFFFFFFFFFFFFFFFFFF AND CALLER DUP7 PUSH2 0x5FB6 JUMP JUMPDEST JUMPDEST DUP1 ISZERO PUSH2 0x3D09 JUMPI PUSH2 0x3D08 PUSH1 0xE DUP7 DUP2 SLOAD DUP2 LT PUSH2 0x3CD9 JUMPI PUSH2 0x3CD8 PUSH2 0x6C5B JUMP JUMPDEST JUMPDEST SWAP1 PUSH0 MSTORE PUSH1 0x20 PUSH0 KECCAK256 ADD PUSH0 SWAP1 SLOAD SWAP1 PUSH2 0x100 EXP SWAP1 DIV PUSH20 0xFFFFFFFFFFFFFFFFFFFFFFFFFFFFFFFFFFFFFFFF AND CALLER DUP6 PUSH2 0x5FB6 JUMP JUMPDEST JUMPDEST POP POP SWAP2 POP SWAP2 JUMP JUMPDEST PUSH1 0x19 PUSH1 0x20 MSTORE DUP1 PUSH0 MSTORE PUSH1 0x40 PUSH0 KECCAK256 PUSH0 SWAP2 POP SWAP1 POP SLOAD DUP2 JUMP JUMPDEST PUSH1 0x2 PUSH0 SWAP1 SLOAD SWAP1 PUSH2 0x100 EXP SWAP1 DIV PUSH20 0xFFFFFFFFFFFFFFFFFFFFFFFFFFFFFFFFFFFFFFFF AND PUSH20 0xFFFFFFFFFFFFFFFFFFFFFFFFFFFFFFFFFFFFFFFF AND CALLER PUSH20 0xFFFFFFFFFFFFFFFFFFFFFFFFFFFFFFFFFFFFFFFF AND EQ DUP1 PUSH2 0x3DCA JUMPI POP PUSH0 DUP1 SLOAD SWAP1 PUSH2 0x100 EXP SWAP1 DIV PUSH20 0xFFFFFFFFFFFFFFFFFFFFFFFFFFFFFFFFFFFFFFFF AND PUSH20 0xFFFFFFFFFFFFFFFFFFFFFFFFFFFFFFFFFFFFFFFF AND CALLER PUSH20 0xFFFFFFFFFFFFFFFFFFFFFFFFFFFFFFFFFFFFFFFF AND EQ JUMPDEST PUSH2 0x3E09 JUMPI PUSH1 0x40 MLOAD PUSH32 0x8C379A000000000000000000000000000000000000000000000000000000000 DUP2 MSTORE PUSH1 0x4 ADD PUSH2 0x3E00 SWAP1 PUSH2 0x6C3D JUMP JUMPDEST PUSH1 0x40 MLOAD DUP1 SWAP2 SUB SWAP1 REVERT JUMPDEST PUSH0 PUSH1 0xE DUP3 DUP2 SLOAD DUP2 LT PUSH2 0x3E1E JUMPI PUSH2 0x3E1D PUSH2 0x6C5B JUMP JUMPDEST JUMPDEST SWAP1 PUSH0 MSTORE PUSH1 0x20 PUSH0 KECCAK256 ADD PUSH0 SWAP1 SLOAD SWAP1 PUSH2 0x100 EXP SWAP1 DIV PUSH20 0xFFFFFFFFFFFFFFFFFFFFFFFFFFFFFFFFFFFFFFFF AND SWAP1 POP PUSH1 0x14 PUSH0 DUP3 PUSH20 0xFFFFFFFFFFFFFFFFFFFFFFFFFFFFFFFFFFFFFFFF AND PUSH20 0xFFFFFFFFFFFFFFFFFFFFFFFFFFFFFFFFFFFFFFFF AND DUP2 MSTORE PUSH1 0x20 ADD SWAP1 DUP2 MSTORE PUSH1 0x20 ADD PUSH0 KECCAK256 PUSH0 SWAP1 SLOAD SWAP1 PUSH2 0x100 EXP SWAP1 DIV PUSH1 0xFF AND ISZERO PUSH1 0x14 PUSH0 DUP4 PUSH20 0xFFFFFFFFFFFFFFFFFFFFFFFFFFFFFFFFFFFFFFFF AND PUSH20 0xFFFFFFFFFFFFFFFFFFFFFFFFFFFFFFFFFFFFFFFF AND DUP2 MSTORE PUSH1 0x20 ADD SWAP1 DUP2 MSTORE PUSH1 0x20 ADD PUSH0 KECCAK256 PUSH0 PUSH2 0x100 EXP DUP2 SLOAD DUP2 PUSH1 0xFF MUL NOT AND SWAP1 DUP4 ISZERO ISZERO MUL OR SWAP1 SSTORE POP PUSH32 0x88E9476D8B4139E22C8E66B078291EDDA3CD924CE0B0E7193F2A38E293E70EE DUP3 PUSH1 0x14 PUSH0 DUP5 PUSH20 0xFFFFFFFFFFFFFFFFFFFFFFFFFFFFFFFFFFFFFFFF AND PUSH20 0xFFFFFFFFFFFFFFFFFFFFFFFFFFFFFFFFFFFFFFFF AND DUP2 MSTORE PUSH1 0x20 ADD SWAP1 DUP2 MSTORE PUSH1 0x20 ADD PUSH0 KECCAK256 PUSH0 SWAP1 SLOAD SWAP1 PUSH2 0x100 EXP SWAP1 DIV PUSH1 0xFF AND PUSH1 0x40 MLOAD PUSH2 0x3F60 SWAP3 SWAP2 SWAP1 PUSH2 0x78C7 JUMP JUMPDEST PUSH1 0x40 MLOAD DUP1 SWAP2 SUB SWAP1 LOG1 POP POP JUMP JUMPDEST PUSH1 0x2 PUSH0 SWAP1 SLOAD SWAP1 PUSH2 0x100 EXP SWAP1 DIV PUSH20 0xFFFFFFFFFFFFFFFFFFFFFFFFFFFFFFFFFFFFFFFF AND PUSH20 0xFFFFFFFFFFFFFFFFFFFFFFFFFFFFFFFFFFFFFFFF AND CALLER PUSH20 0xFFFFFFFFFFFFFFFFFFFFFFFFFFFFFFFFFFFFFFFF AND EQ DUP1 PUSH2 0x4011 JUMPI POP PUSH0 DUP1 SLOAD SWAP1 PUSH2 0x100 EXP SWAP1 DIV PUSH20 0xFFFFFFFFFFFFFFFFFFFFFFFFFFFFFFFFFFFFFFFF AND PUSH20 0xFFFFFFFFFFFFFFFFFFFFFFFFFFFFFFFFFFFFFFFF AND CALLER PUSH20 0xFFFFFFFFFFFFFFFFFFFFFFFFFFFFFFFFFFFFFFFF AND EQ JUMPDEST PUSH2 0x4050 JUMPI PUSH1 0x40 MLOAD PUSH32 0x8C379A000000000000000000000000000000000000000000000000000000000 DUP2 MSTORE PUSH1 0x4 ADD PUSH2 0x4047 SWAP1 PUSH2 0x6C3D JUMP JUMPDEST PUSH1 0x40 MLOAD DUP1 SWAP2 SUB SWAP1 REVERT JUMPDEST DUP1 PUSH1 0x12 DUP4 DUP2 SLOAD DUP2 LT PUSH2 0x4065 JUMPI PUSH2 0x4064 PUSH2 0x6C5B JUMP JUMPDEST JUMPDEST SWAP1 PUSH0 MSTORE PUSH1 0x20 PUSH0 KECCAK256 ADD DUP2 SWAP1 SSTORE POP PUSH32 0x16374E3DC228B497B5A9B2DFF5883C395120625FBE7E794FDCC5D305CE13ED07 DUP3 DUP3 PUSH1 0x40 MLOAD PUSH2 0x40A2 SWAP3 SWAP2 SWAP1 PUSH2 0x6A35 JUMP JUMPDEST PUSH1 0x40 MLOAD DUP1 SWAP2 SUB SWAP1 LOG1 POP POP JUMP JUMPDEST PUSH0 DUP1 PUSH0 DUP7 PUSH1 0x14 PUSH0 PUSH1 0xE DUP4 DUP2 SLOAD DUP2 LT PUSH2 0x40C9 JUMPI PUSH2 0x40C8 PUSH2 0x6C5B JUMP JUMPDEST JUMPDEST SWAP1 PUSH0 MSTORE PUSH1 0x20 PUSH0 KECCAK256 ADD PUSH0 SWAP1 SLOAD SWAP1 PUSH2 0x100 EXP SWAP1 DIV PUSH20 0xFFFFFFFFFFFFFFFFFFFFFFFFFFFFFFFFFFFFFFFF AND PUSH20 0xFFFFFFFFFFFFFFFFFFFFFFFFFFFFFFFFFFFFFFFF AND PUSH20 0xFFFFFFFFFFFFFFFFFFFFFFFFFFFFFFFFFFFFFFFF AND DUP2 MSTORE PUSH1 0x20 ADD SWAP1 DUP2 MSTORE PUSH1 0x20 ADD PUSH0 KECCAK256 PUSH0 SWAP1 SLOAD SWAP1 PUSH2 0x100 EXP SWAP1 DIV PUSH1 0xFF AND PUSH2 0x4176 JUMPI PUSH1 0x40 MLOAD PUSH32 0x8C379A000000000000000000000000000000000000000000000000000000000 DUP2 MSTORE PUSH1 0x4 ADD PUSH2 0x416D SWAP1 PUSH2 0x719A JUMP JUMPDEST PUSH1 0x40 MLOAD DUP1 SWAP2 SUB SWAP1 REVERT JUMPDEST PUSH0 ISZERO ISZERO PUSH1 0x27 DUP10 DUP2 SLOAD DUP2 LT PUSH2 0x418D JUMPI PUSH2 0x418C PUSH2 0x6C5B JUMP JUMPDEST JUMPDEST SWAP1 PUSH0 MSTORE PUSH1 0x20 PUSH0 KECCAK256 SWAP1 PUSH1 0x20 SWAP2 DUP3 DUP3 DIV ADD SWAP2 SWAP1 MOD SWAP1 SLOAD SWAP1 PUSH2 0x100 EXP SWAP1 DIV PUSH1 0xFF AND ISZERO ISZERO EQ PUSH2 0x41ED JUMPI PUSH1 0x40 MLOAD PUSH32 0x8C379A000000000000000000000000000000000000000000000000000000000 DUP2 MSTORE PUSH1 0x4 ADD PUSH2 0x41E4 SWAP1 PUSH2 0x7841 JUMP JUMPDEST PUSH1 0x40 MLOAD DUP1 SWAP2 SUB SWAP1 REVERT JUMPDEST PUSH1 0x1B SLOAD PUSH2 0x41F8 PUSH2 0x5B81 JUMP JUMPDEST GT ISZERO PUSH2 0x4239 JUMPI PUSH1 0x40 MLOAD PUSH32 0x8C379A000000000000000000000000000000000000000000000000000000000 DUP2 MSTORE PUSH1 0x4 ADD PUSH2 0x4230 SWAP1 PUSH2 0x7938 JUMP JUMPDEST PUSH1 0x40 MLOAD DUP1 SWAP2 SUB SWAP1 REVERT JUMPDEST PUSH0 PUSH1 0x4 PUSH0 SWAP1 SLOAD SWAP1 PUSH2 0x100 EXP SWAP1 DIV PUSH20 0xFFFFFFFFFFFFFFFFFFFFFFFFFFFFFFFFFFFFFFFF AND PUSH20 0xFFFFFFFFFFFFFFFFFFFFFFFFFFFFFFFFFFFFFFFF AND PUSH4 0x2EB9771B PUSH1 0x40 MLOAD DUP2 PUSH4 0xFFFFFFFF AND PUSH1 0xE0 SHL DUP2 MSTORE PUSH1 0x4 ADD PUSH1 0x20 PUSH1 0x40 MLOAD DUP1 DUP4 SUB DUP2 DUP7 GAS STATICCALL ISZERO DUP1 ISZERO PUSH2 0x42A4 JUMPI RETURNDATASIZE PUSH0 DUP1 RETURNDATACOPY RETURNDATASIZE PUSH0 REVERT JUMPDEST POP POP POP POP PUSH1 0x40 MLOAD RETURNDATASIZE PUSH1 0x1F NOT PUSH1 0x1F DUP3 ADD AND DUP3 ADD DUP1 PUSH1 0x40 MSTORE POP DUP2 ADD SWAP1 PUSH2 0x42C8 SWAP2 SWAP1 PUSH2 0x7125 JUMP JUMPDEST SWAP1 POP PUSH0 PUSH2 0x4324 PUSH3 0xF4240 PUSH2 0x4316 PUSH2 0x4307 PUSH1 0x22 DUP15 DUP2 SLOAD DUP2 LT PUSH2 0x42EC JUMPI PUSH2 0x42EB PUSH2 0x6C5B JUMP JUMPDEST JUMPDEST SWAP1 PUSH0 MSTORE PUSH1 0x20 PUSH0 KECCAK256 ADD SLOAD PUSH3 0xF4240 PUSH2 0x5D9B SWAP1 SWAP2 SWAP1 PUSH4 0xFFFFFFFF AND JUMP JUMPDEST DUP13 PUSH2 0x5CDB SWAP1 SWAP2 SWAP1 PUSH4 0xFFFFFFFF AND JUMP JUMPDEST PUSH2 0x5D52 SWAP1 SWAP2 SWAP1 PUSH4 0xFFFFFFFF AND JUMP JUMPDEST SWAP1 POP PUSH3 0xF4240 DUP3 LT PUSH2 0x4344 JUMPI PUSH2 0x433A DUP11 DUP3 PUSH2 0x2598 JUMP JUMPDEST SWAP6 POP PUSH0 SWAP5 POP PUSH2 0x44EA JUMP JUMPDEST PUSH0 DUP3 SUB PUSH2 0x43F2 JUMPI PUSH0 PUSH2 0x4373 PUSH1 0x64 PUSH2 0x4365 PUSH1 0x32 DUP6 PUSH2 0x5CDB SWAP1 SWAP2 SWAP1 PUSH4 0xFFFFFFFF AND JUMP JUMPDEST PUSH2 0x5D52 SWAP1 SWAP2 SWAP1 PUSH4 0xFFFFFFFF AND JUMP JUMPDEST SWAP1 POP PUSH2 0x43A4 PUSH2 0x4380 PUSH2 0x355C JUMP JUMPDEST PUSH2 0x4396 PUSH3 0xF4240 DUP5 PUSH2 0x5CDB SWAP1 SWAP2 SWAP1 PUSH4 0xFFFFFFFF AND JUMP JUMPDEST PUSH2 0x5D52 SWAP1 SWAP2 SWAP1 PUSH4 0xFFFFFFFF AND JUMP JUMPDEST SWAP6 POP PUSH2 0x43E7 PUSH2 0x43B1 PUSH2 0x11C9 JUMP JUMPDEST PUSH2 0x43D9 PUSH3 0xF4240 PUSH2 0x43CB DUP6 DUP8 PUSH2 0x5D9B SWAP1 SWAP2 SWAP1 PUSH4 0xFFFFFFFF AND JUMP JUMPDEST PUSH2 0x5CDB SWAP1 SWAP2 SWAP1 PUSH4 0xFFFFFFFF AND JUMP JUMPDEST PUSH2 0x5D52 SWAP1 SWAP2 SWAP1 PUSH4 0xFFFFFFFF AND JUMP JUMPDEST SWAP5 POP PUSH0 SWAP7 POP POP PUSH2 0x44E9 JUMP JUMPDEST PUSH2 0x4423 PUSH3 0xF4240 PUSH2 0x4415 DUP5 PUSH2 0x4407 DUP15 DUP7 PUSH2 0x2598 JUMP JUMPDEST PUSH2 0x5CDB SWAP1 SWAP2 SWAP1 PUSH4 0xFFFFFFFF AND JUMP JUMPDEST PUSH2 0x5D52 SWAP1 SWAP2 SWAP1 PUSH4 0xFFFFFFFF AND JUMP JUMPDEST SWAP6 POP PUSH0 PUSH2 0x444D PUSH1 0x64 PUSH2 0x443F PUSH1 0x32 DUP6 PUSH2 0x5CDB SWAP1 SWAP2 SWAP1 PUSH4 0xFFFFFFFF AND JUMP JUMPDEST PUSH2 0x5D52 SWAP1 SWAP2 SWAP1 PUSH4 0xFFFFFFFF AND JUMP JUMPDEST SWAP1 POP PUSH2 0x4490 PUSH2 0x445A PUSH2 0x355C JUMP JUMPDEST PUSH2 0x4482 PUSH2 0x4473 DUP7 PUSH3 0xF4240 PUSH2 0x5D9B SWAP1 SWAP2 SWAP1 PUSH4 0xFFFFFFFF AND JUMP JUMPDEST DUP5 PUSH2 0x5CDB SWAP1 SWAP2 SWAP1 PUSH4 0xFFFFFFFF AND JUMP JUMPDEST PUSH2 0x5D52 SWAP1 SWAP2 SWAP1 PUSH4 0xFFFFFFFF AND JUMP JUMPDEST SWAP6 POP PUSH2 0x44E5 PUSH2 0x449D PUSH2 0x11C9 JUMP JUMPDEST PUSH2 0x44D7 PUSH2 0x44B6 DUP7 PUSH3 0xF4240 PUSH2 0x5D9B SWAP1 SWAP2 SWAP1 PUSH4 0xFFFFFFFF AND JUMP JUMPDEST PUSH2 0x44C9 DUP6 DUP8 PUSH2 0x5D9B SWAP1 SWAP2 SWAP1 PUSH4 0xFFFFFFFF AND JUMP JUMPDEST PUSH2 0x5CDB SWAP1 SWAP2 SWAP1 PUSH4 0xFFFFFFFF AND JUMP JUMPDEST PUSH2 0x5D52 SWAP1 SWAP2 SWAP1 PUSH4 0xFFFFFFFF AND JUMP JUMPDEST SWAP5 POP POP JUMPDEST JUMPDEST PUSH2 0x45CB PUSH1 0x17 DUP12 DUP2 SLOAD DUP2 LT PUSH2 0x4501 JUMPI PUSH2 0x4500 PUSH2 0x6C5B JUMP JUMPDEST JUMPDEST SWAP1 PUSH0 MSTORE PUSH1 0x20 PUSH0 KECCAK256 ADD SLOAD PUSH1 0xE DUP13 DUP2 SLOAD DUP2 LT PUSH2 0x451E JUMPI PUSH2 0x451D PUSH2 0x6C5B JUMP JUMPDEST JUMPDEST SWAP1 PUSH0 MSTORE PUSH1 0x20 PUSH0 KECCAK256 ADD PUSH0 SWAP1 SLOAD SWAP1 PUSH2 0x100 EXP SWAP1 DIV PUSH20 0xFFFFFFFFFFFFFFFFFFFFFFFFFFFFFFFFFFFFFFFF AND PUSH20 0xFFFFFFFFFFFFFFFFFFFFFFFFFFFFFFFFFFFFFFFF AND PUSH4 0x70A08231 ADDRESS PUSH1 0x40 MLOAD DUP3 PUSH4 0xFFFFFFFF AND PUSH1 0xE0 SHL DUP2 MSTORE PUSH1 0x4 ADD PUSH2 0x457E SWAP2 SWAP1 PUSH2 0x657A JUMP JUMPDEST PUSH1 0x20 PUSH1 0x40 MLOAD DUP1 DUP4 SUB DUP2 DUP7 GAS STATICCALL ISZERO DUP1 ISZERO PUSH2 0x4599 JUMPI RETURNDATASIZE PUSH0 DUP1 RETURNDATACOPY RETURNDATASIZE PUSH0 REVERT JUMPDEST POP POP POP POP PUSH1 0x40 MLOAD RETURNDATASIZE PUSH1 0x1F NOT PUSH1 0x1F DUP3 ADD AND DUP3 ADD DUP1 PUSH1 0x40 MSTORE POP DUP2 ADD SWAP1 PUSH2 0x45BD SWAP2 SWAP1 PUSH2 0x7125 JUMP JUMPDEST PUSH2 0x5D9B SWAP1 SWAP2 SWAP1 PUSH4 0xFFFFFFFF AND JUMP JUMPDEST DUP7 GT ISZERO PUSH2 0x460D JUMPI PUSH1 0x40 MLOAD PUSH32 0x8C379A000000000000000000000000000000000000000000000000000000000 DUP2 MSTORE PUSH1 0x4 ADD PUSH2 0x4604 SWAP1 PUSH2 0x79A0 JUMP JUMPDEST PUSH1 0x40 MLOAD DUP1 SWAP2 SUB SWAP1 REVERT JUMPDEST DUP7 DUP7 LT ISZERO PUSH2 0x4650 JUMPI PUSH1 0x40 MLOAD PUSH32 0x8C379A000000000000000000000000000000000000000000000000000000000 DUP2 MSTORE PUSH1 0x4 ADD PUSH2 0x4647 SWAP1 PUSH2 0x7A08 JUMP JUMPDEST PUSH1 0x40 MLOAD DUP1 SWAP2 SUB SWAP1 REVERT JUMPDEST DUP8 PUSH2 0x4668 PUSH4 0x3B9ACA00 DUP7 PUSH2 0x5D52 SWAP1 SWAP2 SWAP1 PUSH4 0xFFFFFFFF AND JUMP JUMPDEST DUP7 PUSH2 0x4673 SWAP2 SWAP1 PUSH2 0x70AB JUMP JUMPDEST LT ISZERO PUSH2 0x46B4 JUMPI PUSH1 0x40 MLOAD PUSH32 0x8C379A000000000000000000000000000000000000000000000000000000000 DUP2 MSTORE PUSH1 0x4 ADD PUSH2 0x46AB SWAP1 PUSH2 0x7313 JUMP JUMPDEST PUSH1 0x40 MLOAD DUP1 SWAP2 SUB SWAP1 REVERT JUMPDEST PUSH2 0x4713 DUP7 PUSH1 0x16 PUSH0 CALLER PUSH20 0xFFFFFFFFFFFFFFFFFFFFFFFFFFFFFFFFFFFFFFFF AND PUSH20 0xFFFFFFFFFFFFFFFFFFFFFFFFFFFFFFFFFFFFFFFF AND DUP2 MSTORE PUSH1 0x20 ADD SWAP1 DUP2 MSTORE PUSH1 0x20 ADD PUSH0 KECCAK256 PUSH0 DUP14 DUP2 MSTORE PUSH1 0x20 ADD SWAP1 DUP2 MSTORE PUSH1 0x20 ADD PUSH0 KECCAK256 SLOAD PUSH2 0x5E26 SWAP1 SWAP2 SWAP1 PUSH4 0xFFFFFFFF AND JUMP JUMPDEST PUSH1 0x16 PUSH0 CALLER PUSH20 0xFFFFFFFFFFFFFFFFFFFFFFFFFFFFFFFFFFFFFFFF AND PUSH20 0xFFFFFFFFFFFFFFFFFFFFFFFFFFFFFFFFFFFFFFFF AND DUP2 MSTORE PUSH1 0x20 ADD SWAP1 DUP2 MSTORE PUSH1 0x20 ADD PUSH0 KECCAK256 PUSH0 DUP13 DUP2 MSTORE PUSH1 0x20 ADD SWAP1 DUP2 MSTORE PUSH1 0x20 ADD PUSH0 KECCAK256 DUP2 SWAP1 SSTORE POP PUSH2 0x4792 DUP7 PUSH1 0x17 DUP13 DUP2 SLOAD DUP2 LT PUSH2 0x477B JUMPI PUSH2 0x477A PUSH2 0x6C5B JUMP JUMPDEST JUMPDEST SWAP1 PUSH0 MSTORE PUSH1 0x20 PUSH0 KECCAK256 ADD SLOAD PUSH2 0x5E26 SWAP1 SWAP2 SWAP1 PUSH4 0xFFFFFFFF AND JUMP JUMPDEST PUSH1 0x17 DUP12 DUP2 SLOAD DUP2 LT PUSH2 0x47A6 JUMPI PUSH2 0x47A5 PUSH2 0x6C5B JUMP JUMPDEST JUMPDEST SWAP1 PUSH0 MSTORE PUSH1 0x20 PUSH0 KECCAK256 ADD DUP2 SWAP1 SSTORE POP PUSH2 0x4802 DUP6 PUSH1 0x15 PUSH0 CALLER PUSH20 0xFFFFFFFFFFFFFFFFFFFFFFFFFFFFFFFFFFFFFFFF AND PUSH20 0xFFFFFFFFFFFFFFFFFFFFFFFFFFFFFFFFFFFFFFFF AND DUP2 MSTORE PUSH1 0x20 ADD SWAP1 DUP2 MSTORE PUSH1 0x20 ADD PUSH0 KECCAK256 SLOAD PUSH2 0x5E26 SWAP1 SWAP2 SWAP1 PUSH4 0xFFFFFFFF AND JUMP JUMPDEST PUSH1 0x15 PUSH0 CALLER PUSH20 0xFFFFFFFFFFFFFFFFFFFFFFFFFFFFFFFFFFFFFFFF AND PUSH20 0xFFFFFFFFFFFFFFFFFFFFFFFFFFFFFFFFFFFFFFFF AND DUP2 MSTORE PUSH1 0x20 ADD SWAP1 DUP2 MSTORE PUSH1 0x20 ADD PUSH0 KECCAK256 DUP2 SWAP1 SSTORE POP PUSH2 0x4858 DUP6 PUSH1 0x18 SLOAD PUSH2 0x5E26 SWAP1 SWAP2 SWAP1 PUSH4 0xFFFFFFFF AND JUMP JUMPDEST PUSH1 0x18 DUP2 SWAP1 SSTORE POP NUMBER PUSH1 0x19 PUSH0 CALLER PUSH20 0xFFFFFFFFFFFFFFFFFFFFFFFFFFFFFFFFFFFFFFFF AND PUSH20 0xFFFFFFFFFFFFFFFFFFFFFFFFFFFFFFFFFFFFFFFF AND DUP2 MSTORE PUSH1 0x20 ADD SWAP1 DUP2 MSTORE PUSH1 0x20 ADD PUSH0 KECCAK256 DUP2 SWAP1 SSTORE POP PUSH1 0x4 PUSH0 SWAP1 SLOAD SWAP1 PUSH2 0x100 EXP SWAP1 DIV PUSH20 0xFFFFFFFFFFFFFFFFFFFFFFFFFFFFFFFFFFFFFFFF AND PUSH20 0xFFFFFFFFFFFFFFFFFFFFFFFFFFFFFFFFFFFFFFFF AND PUSH4 0xA8A778AE CALLER DUP12 PUSH1 0x40 MLOAD DUP4 PUSH4 0xFFFFFFFF AND PUSH1 0xE0 SHL DUP2 MSTORE PUSH1 0x4 ADD PUSH2 0x48FC SWAP3 SWAP2 SWAP1 PUSH2 0x7399 JUMP JUMPDEST PUSH0 PUSH1 0x40 MLOAD DUP1 DUP4 SUB DUP2 PUSH0 DUP8 DUP1 EXTCODESIZE ISZERO DUP1 ISZERO PUSH2 0x4913 JUMPI PUSH0 DUP1 REVERT JUMPDEST POP GAS CALL ISZERO DUP1 ISZERO PUSH2 0x4925 JUMPI RETURNDATASIZE PUSH0 DUP1 RETURNDATACOPY RETURNDATASIZE PUSH0 REVERT JUMPDEST POP POP POP POP PUSH1 0x5 PUSH0 SWAP1 SLOAD SWAP1 PUSH2 0x100 EXP SWAP1 DIV PUSH20 0xFFFFFFFFFFFFFFFFFFFFFFFFFFFFFFFFFFFFFFFF AND PUSH20 0xFFFFFFFFFFFFFFFFFFFFFFFFFFFFFFFFFFFFFFFF AND PUSH4 0xB4F56B26 ADDRESS DUP8 PUSH1 0x40 MLOAD DUP4 PUSH4 0xFFFFFFFF AND PUSH1 0xE0 SHL DUP2 MSTORE PUSH1 0x4 ADD PUSH2 0x4985 SWAP3 SWAP2 SWAP1 PUSH2 0x7399 JUMP JUMPDEST PUSH0 PUSH1 0x40 MLOAD DUP1 DUP4 SUB DUP2 PUSH0 DUP8 DUP1 EXTCODESIZE ISZERO DUP1 ISZERO PUSH2 0x499C JUMPI PUSH0 DUP1 REVERT JUMPDEST POP GAS CALL ISZERO DUP1 ISZERO PUSH2 0x49AE JUMPI RETURNDATASIZE PUSH0 DUP1 RETURNDATACOPY RETURNDATASIZE PUSH0 REVERT JUMPDEST POP POP POP POP PUSH1 0xD PUSH0 SWAP1 SLOAD SWAP1 PUSH2 0x100 EXP SWAP1 DIV PUSH20 0xFFFFFFFFFFFFFFFFFFFFFFFFFFFFFFFFFFFFFFFF AND PUSH20 0xFFFFFFFFFFFFFFFFFFFFFFFFFFFFFFFFFFFFFFFF AND PUSH4 0xA9059CBB CALLER PUSH2 0x4A07 PUSH4 0x3B9ACA00 DUP9 PUSH2 0x5D52 SWAP1 SWAP2 SWAP1 PUSH4 0xFFFFFFFF AND JUMP JUMPDEST PUSH1 0x40 MLOAD DUP4 PUSH4 0xFFFFFFFF AND PUSH1 0xE0 SHL DUP2 MSTORE PUSH1 0x4 ADD PUSH2 0x4A24 SWAP3 SWAP2 SWAP1 PUSH2 0x7399 JUMP JUMPDEST PUSH1 0x20 PUSH1 0x40 MLOAD DUP1 DUP4 SUB DUP2 PUSH0 DUP8 GAS CALL ISZERO DUP1 ISZERO PUSH2 0x4A40 JUMPI RETURNDATASIZE PUSH0 DUP1 RETURNDATACOPY RETURNDATASIZE PUSH0 REVERT JUMPDEST POP POP POP POP PUSH1 0x40 MLOAD RETURNDATASIZE PUSH1 0x1F NOT PUSH1 0x1F DUP3 ADD AND DUP3 ADD DUP1 PUSH1 0x40 MSTORE POP DUP2 ADD SWAP1 PUSH2 0x4A64 SWAP2 SWAP1 PUSH2 0x73D4 JUMP JUMPDEST POP POP POP POP SWAP5 POP SWAP5 POP SWAP5 SWAP2 POP POP JUMP JUMPDEST PUSH1 0x17 DUP2 DUP2 SLOAD DUP2 LT PUSH2 0x4A81 JUMPI PUSH0 DUP1 REVERT JUMPDEST SWAP1 PUSH0 MSTORE PUSH1 0x20 PUSH0 KECCAK256 ADD PUSH0 SWAP2 POP SWAP1 POP SLOAD DUP2 JUMP JUMPDEST PUSH1 0x2 PUSH0 SWAP1 SLOAD SWAP1 PUSH2 0x100 EXP SWAP1 DIV PUSH20 0xFFFFFFFFFFFFFFFFFFFFFFFFFFFFFFFFFFFFFFFF AND PUSH20 0xFFFFFFFFFFFFFFFFFFFFFFFFFFFFFFFFFFFFFFFF AND CALLER PUSH20 0xFFFFFFFFFFFFFFFFFFFFFFFFFFFFFFFFFFFFFFFF AND EQ DUP1 PUSH2 0x4B37 JUMPI POP PUSH0 DUP1 SLOAD SWAP1 PUSH2 0x100 EXP SWAP1 DIV PUSH20 0xFFFFFFFFFFFFFFFFFFFFFFFFFFFFFFFFFFFFFFFF AND PUSH20 0xFFFFFFFFFFFFFFFFFFFFFFFFFFFFFFFFFFFFFFFF AND CALLER PUSH20 0xFFFFFFFFFFFFFFFFFFFFFFFFFFFFFFFFFFFFFFFF AND EQ JUMPDEST DUP1 PUSH2 0x4B8E JUMPI POP PUSH1 0x3 PUSH0 SWAP1 SLOAD SWAP1 PUSH2 0x100 EXP SWAP1 DIV PUSH20 0xFFFFFFFFFFFFFFFFFFFFFFFFFFFFFFFFFFFFFFFF AND PUSH20 0xFFFFFFFFFFFFFFFFFFFFFFFFFFFFFFFFFFFFFFFF AND CALLER PUSH20 0xFFFFFFFFFFFFFFFFFFFFFFFFFFFFFFFFFFFFFFFF AND EQ JUMPDEST PUSH2 0x4BCD JUMPI PUSH1 0x40 MLOAD PUSH32 0x8C379A000000000000000000000000000000000000000000000000000000000 DUP2 MSTORE PUSH1 0x4 ADD PUSH2 0x4BC4 SWAP1 PUSH2 0x7A70 JUMP JUMPDEST PUSH1 0x40 MLOAD DUP1 SWAP2 SUB SWAP1 REVERT JUMPDEST PUSH0 DUP2 PUSH1 0xFF AND SUB PUSH2 0x4C4A JUMPI PUSH1 0x26 DUP3 DUP2 SLOAD DUP2 LT PUSH2 0x4BEB JUMPI PUSH2 0x4BEA PUSH2 0x6C5B JUMP JUMPDEST JUMPDEST SWAP1 PUSH0 MSTORE PUSH1 0x20 PUSH0 KECCAK256 SWAP1 PUSH1 0x20 SWAP2 DUP3 DUP3 DIV ADD SWAP2 SWAP1 MOD SWAP1 SLOAD SWAP1 PUSH2 0x100 EXP SWAP1 DIV PUSH1 0xFF AND ISZERO PUSH1 0x26 DUP4 DUP2 SLOAD DUP2 LT PUSH2 0x4C1E JUMPI PUSH2 0x4C1D PUSH2 0x6C5B JUMP JUMPDEST JUMPDEST SWAP1 PUSH0 MSTORE PUSH1 0x20 PUSH0 KECCAK256 SWAP1 PUSH1 0x20 SWAP2 DUP3 DUP3 DIV ADD SWAP2 SWAP1 MOD PUSH2 0x100 EXP DUP2 SLOAD DUP2 PUSH1 0xFF MUL NOT AND SWAP1 DUP4 ISZERO ISZERO MUL OR SWAP1 SSTORE POP PUSH2 0x4E42 JUMP JUMPDEST PUSH1 0x1 DUP2 PUSH1 0xFF AND SUB PUSH2 0x4CC8 JUMPI PUSH1 0x27 DUP3 DUP2 SLOAD DUP2 LT PUSH2 0x4C69 JUMPI PUSH2 0x4C68 PUSH2 0x6C5B JUMP JUMPDEST JUMPDEST SWAP1 PUSH0 MSTORE PUSH1 0x20 PUSH0 KECCAK256 SWAP1 PUSH1 0x20 SWAP2 DUP3 DUP3 DIV ADD SWAP2 SWAP1 MOD SWAP1 SLOAD SWAP1 PUSH2 0x100 EXP SWAP1 DIV PUSH1 0xFF AND ISZERO PUSH1 0x27 DUP4 DUP2 SLOAD DUP2 LT PUSH2 0x4C9C JUMPI PUSH2 0x4C9B PUSH2 0x6C5B JUMP JUMPDEST JUMPDEST SWAP1 PUSH0 MSTORE PUSH1 0x20 PUSH0 KECCAK256 SWAP1 PUSH1 0x20 SWAP2 DUP3 DUP3 DIV ADD SWAP2 SWAP1 MOD PUSH2 0x100 EXP DUP2 SLOAD DUP2 PUSH1 0xFF MUL NOT AND SWAP1 DUP4 ISZERO ISZERO MUL OR SWAP1 SSTORE POP PUSH2 0x4E41 JUMP JUMPDEST PUSH1 0x2 DUP2 PUSH1 0xFF AND SUB PUSH2 0x4D46 JUMPI PUSH1 0x29 DUP3 DUP2 SLOAD DUP2 LT PUSH2 0x4CE7 JUMPI PUSH2 0x4CE6 PUSH2 0x6C5B JUMP JUMPDEST JUMPDEST SWAP1 PUSH0 MSTORE PUSH1 0x20 PUSH0 KECCAK256 SWAP1 PUSH1 0x20 SWAP2 DUP3 DUP3 DIV ADD SWAP2 SWAP1 MOD SWAP1 SLOAD SWAP1 PUSH2 0x100 EXP SWAP1 DIV PUSH1 0xFF AND ISZERO PUSH1 0x29 DUP4 DUP2 SLOAD DUP2 LT PUSH2 0x4D1A JUMPI PUSH2 0x4D19 PUSH2 0x6C5B JUMP JUMPDEST JUMPDEST SWAP1 PUSH0 MSTORE PUSH1 0x20 PUSH0 KECCAK256 SWAP1 PUSH1 0x20 SWAP2 DUP3 DUP3 DIV ADD SWAP2 SWAP1 MOD PUSH2 0x100 EXP DUP2 SLOAD DUP2 PUSH1 0xFF MUL NOT AND SWAP1 DUP4 ISZERO ISZERO MUL OR SWAP1 SSTORE POP PUSH2 0x4E40 JUMP JUMPDEST PUSH1 0x3 DUP2 PUSH1 0xFF AND SUB PUSH2 0x4DC4 JUMPI PUSH1 0x28 DUP3 DUP2 SLOAD DUP2 LT PUSH2 0x4D65 JUMPI PUSH2 0x4D64 PUSH2 0x6C5B JUMP JUMPDEST JUMPDEST SWAP1 PUSH0 MSTORE PUSH1 0x20 PUSH0 KECCAK256 SWAP1 PUSH1 0x20 SWAP2 DUP3 DUP3 DIV ADD SWAP2 SWAP1 MOD SWAP1 SLOAD SWAP1 PUSH2 0x100 EXP SWAP1 DIV PUSH1 0xFF AND ISZERO PUSH1 0x28 DUP4 DUP2 SLOAD DUP2 LT PUSH2 0x4D98 JUMPI PUSH2 0x4D97 PUSH2 0x6C5B JUMP JUMPDEST JUMPDEST SWAP1 PUSH0 MSTORE PUSH1 0x20 PUSH0 KECCAK256 SWAP1 PUSH1 0x20 SWAP2 DUP3 DUP3 DIV ADD SWAP2 SWAP1 MOD PUSH2 0x100 EXP DUP2 SLOAD DUP2 PUSH1 0xFF MUL NOT AND SWAP1 DUP4 ISZERO ISZERO MUL OR SWAP1 SSTORE POP PUSH2 0x4E3F JUMP JUMPDEST PUSH1 0x4 DUP2 PUSH1 0xFF AND SUB PUSH2 0x4E3E JUMPI PUSH1 0x2A DUP3 DUP2 SLOAD DUP2 LT PUSH2 0x4DE3 JUMPI PUSH2 0x4DE2 PUSH2 0x6C5B JUMP JUMPDEST JUMPDEST SWAP1 PUSH0 MSTORE PUSH1 0x20 PUSH0 KECCAK256 SWAP1 PUSH1 0x20 SWAP2 DUP3 DUP3 DIV ADD SWAP2 SWAP1 MOD SWAP1 SLOAD SWAP1 PUSH2 0x100 EXP SWAP1 DIV PUSH1 0xFF AND ISZERO PUSH1 0x2A DUP4 DUP2 SLOAD DUP2 LT PUSH2 0x4E16 JUMPI PUSH2 0x4E15 PUSH2 0x6C5B JUMP JUMPDEST JUMPDEST SWAP1 PUSH0 MSTORE PUSH1 0x20 PUSH0 KECCAK256 SWAP1 PUSH1 0x20 SWAP2 DUP3 DUP3 DIV ADD SWAP2 SWAP1 MOD PUSH2 0x100 EXP DUP2 SLOAD DUP2 PUSH1 0xFF MUL NOT AND SWAP1 DUP4 ISZERO ISZERO MUL OR SWAP1 SSTORE POP JUMPDEST JUMPDEST JUMPDEST JUMPDEST JUMPDEST PUSH32 0x3DBF640F58EA22AEC5EB07B21B1A899B95D63FFFCF6050292EE91A1AD5576A2E DUP3 DUP3 PUSH1 0x40 MLOAD PUSH2 0x4E73 SWAP3 SWAP2 SWAP1 PUSH2 0x7A9D JUMP JUMPDEST PUSH1 0x40 MLOAD DUP1 SWAP2 SUB SWAP1 LOG1 POP POP JUMP JUMPDEST PUSH1 0x2 PUSH0 SWAP1 SLOAD SWAP1 PUSH2 0x100 EXP SWAP1 DIV PUSH20 0xFFFFFFFFFFFFFFFFFFFFFFFFFFFFFFFFFFFFFFFF AND PUSH20 0xFFFFFFFFFFFFFFFFFFFFFFFFFFFFFFFFFFFFFFFF AND CALLER PUSH20 0xFFFFFFFFFFFFFFFFFFFFFFFFFFFFFFFFFFFFFFFF AND EQ DUP1 PUSH2 0x4F24 JUMPI POP PUSH0 DUP1 SLOAD SWAP1 PUSH2 0x100 EXP SWAP1 DIV PUSH20 0xFFFFFFFFFFFFFFFFFFFFFFFFFFFFFFFFFFFFFFFF AND PUSH20 0xFFFFFFFFFFFFFFFFFFFFFFFFFFFFFFFFFFFFFFFF AND CALLER PUSH20 0xFFFFFFFFFFFFFFFFFFFFFFFFFFFFFFFFFFFFFFFF AND EQ JUMPDEST PUSH2 0x4F63 JUMPI PUSH1 0x40 MLOAD PUSH32 0x8C379A000000000000000000000000000000000000000000000000000000000 DUP2 MSTORE PUSH1 0x4 ADD PUSH2 0x4F5A SWAP1 PUSH2 0x6C3D JUMP JUMPDEST PUSH1 0x40 MLOAD DUP1 SWAP2 SUB SWAP1 REVERT JUMPDEST DUP1 PUSH1 0x2 PUSH0 PUSH2 0x100 EXP DUP2 SLOAD DUP2 PUSH20 0xFFFFFFFFFFFFFFFFFFFFFFFFFFFFFFFFFFFFFFFF MUL NOT AND SWAP1 DUP4 PUSH20 0xFFFFFFFFFFFFFFFFFFFFFFFFFFFFFFFFFFFFFFFF AND MUL OR SWAP1 SSTORE POP PUSH32 0x7E7EE4175D63F671FAC3401D5F401ED18D1F48A586E756F404D5696FC77A7058 DUP2 PUSH1 0x40 MLOAD PUSH2 0x4FD2 SWAP2 SWAP1 PUSH2 0x657A JUMP JUMPDEST PUSH1 0x40 MLOAD DUP1 SWAP2 SUB SWAP1 LOG1 POP JUMP JUMPDEST PUSH0 DUP4 PUSH1 0x14 PUSH0 PUSH1 0xE DUP4 DUP2 SLOAD DUP2 LT PUSH2 0x4FF6 JUMPI PUSH2 0x4FF5 PUSH2 0x6C5B JUMP JUMPDEST JUMPDEST SWAP1 PUSH0 MSTORE PUSH1 0x20 PUSH0 KECCAK256 ADD PUSH0 SWAP1 SLOAD SWAP1 PUSH2 0x100 EXP SWAP1 DIV PUSH20 0xFFFFFFFFFFFFFFFFFFFFFFFFFFFFFFFFFFFFFFFF AND PUSH20 0xFFFFFFFFFFFFFFFFFFFFFFFFFFFFFFFFFFFFFFFF AND PUSH20 0xFFFFFFFFFFFFFFFFFFFFFFFFFFFFFFFFFFFFFFFF AND DUP2 MSTORE PUSH1 0x20 ADD SWAP1 DUP2 MSTORE PUSH1 0x20 ADD PUSH0 KECCAK256 PUSH0 SWAP1 SLOAD SWAP1 PUSH2 0x100 EXP SWAP1 DIV PUSH1 0xFF AND PUSH2 0x50A3 JUMPI PUSH1 0x40 MLOAD PUSH32 0x8C379A000000000000000000000000000000000000000000000000000000000 DUP2 MSTORE PUSH1 0x4 ADD PUSH2 0x509A SWAP1 PUSH2 0x719A JUMP JUMPDEST PUSH1 0x40 MLOAD DUP1 SWAP2 SUB SWAP1 REVERT JUMPDEST PUSH0 ISZERO ISZERO PUSH1 0x29 DUP7 DUP2 SLOAD DUP2 LT PUSH2 0x50BA JUMPI PUSH2 0x50B9 PUSH2 0x6C5B JUMP JUMPDEST JUMPDEST SWAP1 PUSH0 MSTORE PUSH1 0x20 PUSH0 KECCAK256 SWAP1 PUSH1 0x20 SWAP2 DUP3 DUP3 DIV ADD SWAP2 SWAP1 MOD SWAP1 SLOAD SWAP1 PUSH2 0x100 EXP SWAP1 DIV PUSH1 0xFF AND ISZERO ISZERO EQ PUSH2 0x511A JUMPI PUSH1 0x40 MLOAD PUSH32 0x8C379A000000000000000000000000000000000000000000000000000000000 DUP2 MSTORE PUSH1 0x4 ADD PUSH2 0x5111 SWAP1 PUSH2 0x7B0E JUMP JUMPDEST PUSH1 0x40 MLOAD DUP1 SWAP2 SUB SWAP1 REVERT JUMPDEST PUSH0 PUSH2 0x5123 PUSH2 0x355C JUMP JUMPDEST SWAP1 POP PUSH0 PUSH2 0x512E PUSH2 0x1855 JUMP JUMPDEST SWAP1 POP PUSH0 DUP2 GT PUSH2 0x5172 JUMPI PUSH1 0x40 MLOAD PUSH32 0x8C379A000000000000000000000000000000000000000000000000000000000 DUP2 MSTORE PUSH1 0x4 ADD PUSH2 0x5169 SWAP1 PUSH2 0x7B76 JUMP JUMPDEST PUSH1 0x40 MLOAD DUP1 SWAP2 SUB SWAP1 REVERT JUMPDEST PUSH0 PUSH2 0x519A PUSH1 0x64 PUSH2 0x518C PUSH1 0x32 DUP11 PUSH2 0x5CDB SWAP1 SWAP2 SWAP1 PUSH4 0xFFFFFFFF AND JUMP JUMPDEST PUSH2 0x5D52 SWAP1 SWAP2 SWAP1 PUSH4 0xFFFFFFFF AND JUMP JUMPDEST SWAP1 POP PUSH0 PUSH2 0x51C5 PUSH3 0xF4240 PUSH2 0x51B7 DUP7 DUP6 PUSH2 0x5CDB SWAP1 SWAP2 SWAP1 PUSH4 0xFFFFFFFF AND JUMP JUMPDEST PUSH2 0x5D52 SWAP1 SWAP2 SWAP1 PUSH4 0xFFFFFFFF AND JUMP JUMPDEST SWAP1 POP PUSH0 PUSH2 0x5209 PUSH3 0xF4240 PUSH2 0x51FB PUSH2 0x51DA PUSH2 0x11C9 JUMP JUMPDEST PUSH2 0x51ED DUP8 DUP15 PUSH2 0x5D9B SWAP1 SWAP2 SWAP1 PUSH4 0xFFFFFFFF AND JUMP JUMPDEST PUSH2 0x5CDB SWAP1 SWAP2 SWAP1 PUSH4 0xFFFFFFFF AND JUMP JUMPDEST PUSH2 0x5D52 SWAP1 SWAP2 SWAP1 PUSH4 0xFFFFFFFF AND JUMP JUMPDEST SWAP1 POP DUP4 DUP3 GT ISZERO PUSH2 0x524E JUMPI PUSH1 0x40 MLOAD PUSH32 0x8C379A000000000000000000000000000000000000000000000000000000000 DUP2 MSTORE PUSH1 0x4 ADD PUSH2 0x5245 SWAP1 PUSH2 0x7B76 JUMP JUMPDEST PUSH1 0x40 MLOAD DUP1 SWAP2 SUB SWAP1 REVERT JUMPDEST PUSH0 PUSH2 0x52BB PUSH1 0x12 DUP13 DUP2 SLOAD DUP2 LT PUSH2 0x5266 JUMPI PUSH2 0x5265 PUSH2 0x6C5B JUMP JUMPDEST JUMPDEST SWAP1 PUSH0 MSTORE PUSH1 0x20 PUSH0 KECCAK256 ADD SLOAD PUSH2 0x52AD PUSH3 0xF4240 PUSH2 0x529F PUSH2 0x5290 PUSH4 0x3B9ACA00 DUP9 PUSH2 0x5D52 SWAP1 SWAP2 SWAP1 PUSH4 0xFFFFFFFF AND JUMP JUMPDEST DUP9 PUSH2 0x5E26 SWAP1 SWAP2 SWAP1 PUSH4 0xFFFFFFFF AND JUMP JUMPDEST PUSH2 0x5CDB SWAP1 SWAP2 SWAP1 PUSH4 0xFFFFFFFF AND JUMP JUMPDEST PUSH2 0x5D52 SWAP1 SWAP2 SWAP1 PUSH4 0xFFFFFFFF AND JUMP JUMPDEST SWAP1 POP PUSH2 0x52F8 PUSH1 0x10 DUP13 DUP2 SLOAD DUP2 LT PUSH2 0x52D4 JUMPI PUSH2 0x52D3 PUSH2 0x6C5B JUMP JUMPDEST JUMPDEST SWAP1 PUSH0 MSTORE PUSH1 0x20 PUSH0 KECCAK256 ADD SLOAD PUSH1 0xA PUSH2 0x52E9 SWAP2 SWAP1 PUSH2 0x6FD3 JUMP JUMPDEST DUP3 PUSH2 0x5D52 SWAP1 SWAP2 SWAP1 PUSH4 0xFFFFFFFF AND JUMP JUMPDEST SWAP8 POP PUSH2 0x5353 PUSH3 0xF4240 PUSH2 0x5345 PUSH2 0x5336 PUSH1 0x23 DUP16 DUP2 SLOAD DUP2 LT PUSH2 0x531B JUMPI PUSH2 0x531A PUSH2 0x6C5B JUMP JUMPDEST JUMPDEST SWAP1 PUSH0 MSTORE PUSH1 0x20 PUSH0 KECCAK256 ADD SLOAD PUSH3 0xF4240 PUSH2 0x5D9B SWAP1 SWAP2 SWAP1 PUSH4 0xFFFFFFFF AND JUMP JUMPDEST DUP12 PUSH2 0x5CDB SWAP1 SWAP2 SWAP1 PUSH4 0xFFFFFFFF AND JUMP JUMPDEST PUSH2 0x5D52 SWAP1 SWAP2 SWAP1 PUSH4 0xFFFFFFFF AND JUMP JUMPDEST SWAP8 POP DUP9 DUP9 LT ISZERO PUSH2 0x5398 JUMPI PUSH1 0x40 MLOAD PUSH32 0x8C379A000000000000000000000000000000000000000000000000000000000 DUP2 MSTORE PUSH1 0x4 ADD PUSH2 0x538F SWAP1 PUSH2 0x7A08 JUMP JUMPDEST PUSH1 0x40 MLOAD DUP1 SWAP2 SUB SWAP1 REVERT JUMPDEST PUSH1 0x5 PUSH0 SWAP1 SLOAD SWAP1 PUSH2 0x100 EXP SWAP1 DIV PUSH20 0xFFFFFFFFFFFFFFFFFFFFFFFFFFFFFFFFFFFFFFFF AND PUSH20 0xFFFFFFFFFFFFFFFFFFFFFFFFFFFFFFFFFFFFFFFF AND PUSH4 0xA8A778AE CALLER DUP6 PUSH1 0x40 MLOAD DUP4 PUSH4 0xFFFFFFFF AND PUSH1 0xE0 SHL DUP2 MSTORE PUSH1 0x4 ADD PUSH2 0x53F4 SWAP3 SWAP2 SWAP1 PUSH2 0x7399 JUMP JUMPDEST PUSH0 PUSH1 0x40 MLOAD DUP1 DUP4 SUB DUP2 PUSH0 DUP8 DUP1 EXTCODESIZE ISZERO DUP1 ISZERO PUSH2 0x540B JUMPI PUSH0 DUP1 REVERT JUMPDEST POP GAS CALL ISZERO DUP1 ISZERO PUSH2 0x541D JUMPI RETURNDATASIZE PUSH0 DUP1 RETURNDATACOPY RETURNDATASIZE PUSH0 REVERT JUMPDEST POP POP POP POP PUSH1 0xD PUSH0 SWAP1 SLOAD SWAP1 PUSH2 0x100 EXP SWAP1 DIV PUSH20 0xFFFFFFFFFFFFFFFFFFFFFFFFFFFFFFFFFFFFFFFF AND PUSH20 0xFFFFFFFFFFFFFFFFFFFFFFFFFFFFFFFFFFFFFFFF AND PUSH4 0x23B872DD CALLER ADDRESS PUSH2 0x5477 PUSH4 0x3B9ACA00 DUP8 PUSH2 0x5D52 SWAP1 SWAP2 SWAP1 PUSH4 0xFFFFFFFF AND JUMP JUMPDEST PUSH1 0x40 MLOAD DUP5 PUSH4 0xFFFFFFFF AND PUSH1 0xE0 SHL DUP2 MSTORE PUSH1 0x4 ADD PUSH2 0x5495 SWAP4 SWAP3 SWAP2 SWAP1 PUSH2 0x76F2 JUMP JUMPDEST PUSH1 0x20 PUSH1 0x40 MLOAD DUP1 DUP4 SUB DUP2 PUSH0 DUP8 GAS CALL ISZERO DUP1 ISZERO PUSH2 0x54B1 JUMPI RETURNDATASIZE PUSH0 DUP1 RETURNDATACOPY RETURNDATASIZE PUSH0 REVERT JUMPDEST POP POP POP POP PUSH1 0x40 MLOAD RETURNDATASIZE PUSH1 0x1F NOT PUSH1 0x1F DUP3 ADD AND DUP3 ADD DUP1 PUSH1 0x40 MSTORE POP DUP2 ADD SWAP1 PUSH2 0x54D5 SWAP2 SWAP1 PUSH2 0x73D4 JUMP JUMPDEST POP PUSH2 0x551C PUSH1 0xE DUP13 DUP2 SLOAD DUP2 LT PUSH2 0x54ED JUMPI PUSH2 0x54EC PUSH2 0x6C5B JUMP JUMPDEST JUMPDEST SWAP1 PUSH0 MSTORE PUSH1 0x20 PUSH0 KECCAK256 ADD PUSH0 SWAP1 SLOAD SWAP1 PUSH2 0x100 EXP SWAP1 DIV PUSH20 0xFFFFFFFFFFFFFFFFFFFFFFFFFFFFFFFFFFFFFFFF AND CALLER DUP11 PUSH2 0x5FB6 JUMP JUMPDEST DUP1 PUSH1 0x1D PUSH0 PUSH2 0x5528 PUSH2 0xC60 JUMP JUMPDEST DUP2 MSTORE PUSH1 0x20 ADD SWAP1 DUP2 MSTORE PUSH1 0x20 ADD PUSH0 KECCAK256 PUSH0 DUP3 DUP3 SLOAD PUSH2 0x5543 SWAP2 SWAP1 PUSH2 0x70AB JUMP JUMPDEST SWAP3 POP POP DUP2 SWAP1 SSTORE POP POP POP POP POP POP POP POP SWAP4 SWAP3 POP POP POP JUMP JUMPDEST PUSH1 0x15 PUSH1 0x20 MSTORE DUP1 PUSH0 MSTORE PUSH1 0x40 PUSH0 KECCAK256 PUSH0 SWAP2 POP SWAP1 POP SLOAD DUP2 JUMP JUMPDEST PUSH1 0x2 PUSH0 SWAP1 SLOAD SWAP1 PUSH2 0x100 EXP SWAP1 DIV PUSH20 0xFFFFFFFFFFFFFFFFFFFFFFFFFFFFFFFFFFFFFFFF AND PUSH20 0xFFFFFFFFFFFFFFFFFFFFFFFFFFFFFFFFFFFFFFFF AND CALLER PUSH20 0xFFFFFFFFFFFFFFFFFFFFFFFFFFFFFFFFFFFFFFFF AND EQ DUP1 PUSH2 0x5612 JUMPI POP PUSH0 DUP1 SLOAD SWAP1 PUSH2 0x100 EXP SWAP1 DIV PUSH20 0xFFFFFFFFFFFFFFFFFFFFFFFFFFFFFFFFFFFFFFFF AND PUSH20 0xFFFFFFFFFFFFFFFFFFFFFFFFFFFFFFFFFFFFFFFF AND CALLER PUSH20 0xFFFFFFFFFFFFFFFFFFFFFFFFFFFFFFFFFFFFFFFF AND EQ JUMPDEST PUSH2 0x5651 JUMPI PUSH1 0x40 MLOAD PUSH32 0x8C379A000000000000000000000000000000000000000000000000000000000 DUP2 MSTORE PUSH1 0x4 ADD PUSH2 0x5648 SWAP1 PUSH2 0x6C3D JUMP JUMPDEST PUSH1 0x40 MLOAD DUP1 SWAP2 SUB SWAP1 REVERT JUMPDEST PUSH0 PUSH20 0xFFFFFFFFFFFFFFFFFFFFFFFFFFFFFFFFFFFFFFFF AND DUP2 PUSH20 0xFFFFFFFFFFFFFFFFFFFFFFFFFFFFFFFFFFFFFFFF AND SUB PUSH2 0x56BF JUMPI PUSH1 0x40 MLOAD PUSH32 0x8C379A000000000000000000000000000000000000000000000000000000000 DUP2 MSTORE PUSH1 0x4 ADD PUSH2 0x56B6 SWAP1 PUSH2 0x7BDE JUMP JUMPDEST PUSH1 0x40 MLOAD DUP1 SWAP2 SUB SWAP1 REVERT JUMPDEST PUSH0 DUP2 PUSH20 0xFFFFFFFFFFFFFFFFFFFFFFFFFFFFFFFFFFFFFFFF AND PUSH4 0x17284C94 PUSH1 0x40 MLOAD DUP2 PUSH4 0xFFFFFFFF AND PUSH1 0xE0 SHL DUP2 MSTORE PUSH1 0x4 ADD PUSH1 0x20 PUSH1 0x40 MLOAD DUP1 DUP4 SUB DUP2 DUP7 GAS STATICCALL ISZERO DUP1 ISZERO PUSH2 0x5709 JUMPI RETURNDATASIZE PUSH0 DUP1 RETURNDATACOPY RETURNDATASIZE PUSH0 REVERT JUMPDEST POP POP POP POP PUSH1 0x40 MLOAD RETURNDATASIZE PUSH1 0x1F NOT PUSH1 0x1F DUP3 ADD AND DUP3 ADD DUP1 PUSH1 0x40 MSTORE POP DUP2 ADD SWAP1 PUSH2 0x572D SWAP2 SWAP1 PUSH2 0x7125 JUMP JUMPDEST SWAP1 POP PUSH0 DUP2 LT ISZERO PUSH2 0x5772 JUMPI PUSH1 0x40 MLOAD PUSH32 0x8C379A000000000000000000000000000000000000000000000000000000000 DUP2 MSTORE PUSH1 0x4 ADD PUSH2 0x5769 SWAP1 PUSH2 0x7C46 JUMP JUMPDEST PUSH1 0x40 MLOAD DUP1 SWAP2 SUB SWAP1 REVERT JUMPDEST PUSH1 0x1 PUSH1 0x6 PUSH0 DUP5 PUSH20 0xFFFFFFFFFFFFFFFFFFFFFFFFFFFFFFFFFFFFFFFF AND PUSH20 0xFFFFFFFFFFFFFFFFFFFFFFFFFFFFFFFFFFFFFFFF AND DUP2 MSTORE PUSH1 0x20 ADD SWAP1 DUP2 MSTORE PUSH1 0x20 ADD PUSH0 KECCAK256 PUSH0 PUSH2 0x100 EXP DUP2 SLOAD DUP2 PUSH1 0xFF MUL NOT AND SWAP1 DUP4 ISZERO ISZERO MUL OR SWAP1 SSTORE POP PUSH32 0x15DB44A176B13A69368DDE2D5ADA5960B7025D8946D346C14E6EC5E5CE3FDBA4 DUP3 PUSH1 0x40 MLOAD PUSH2 0x57F6 SWAP2 SWAP1 PUSH2 0x657A JUMP JUMPDEST PUSH1 0x40 MLOAD DUP1 SWAP2 SUB SWAP1 LOG1 POP POP JUMP JUMPDEST PUSH1 0x13 PUSH1 0x20 MSTORE DUP1 PUSH0 MSTORE PUSH1 0x40 PUSH0 KECCAK256 PUSH0 SWAP2 POP SWAP1 POP SLOAD DUP2 JUMP JUMPDEST PUSH1 0x2 PUSH0 SWAP1 SLOAD SWAP1 PUSH2 0x100 EXP SWAP1 DIV PUSH20 0xFFFFFFFFFFFFFFFFFFFFFFFFFFFFFFFFFFFFFFFF AND DUP2 JUMP JUMPDEST PUSH1 0x12 DUP2 DUP2 SLOAD DUP2 LT PUSH2 0x584B JUMPI PUSH0 DUP1 REVERT JUMPDEST SWAP1 PUSH0 MSTORE PUSH1 0x20 PUSH0 KECCAK256 ADD PUSH0 SWAP2 POP SWAP1 POP SLOAD DUP2 JUMP JUMPDEST PUSH1 0x2 PUSH0 SWAP1 SLOAD SWAP1 PUSH2 0x100 EXP SWAP1 DIV PUSH20 0xFFFFFFFFFFFFFFFFFFFFFFFFFFFFFFFFFFFFFFFF AND PUSH20 0xFFFFFFFFFFFFFFFFFFFFFFFFFFFFFFFFFFFFFFFF AND CALLER PUSH20 0xFFFFFFFFFFFFFFFFFFFFFFFFFFFFFFFFFFFFFFFF AND EQ DUP1 PUSH2 0x5901 JUMPI POP PUSH0 DUP1 SLOAD SWAP1 PUSH2 0x100 EXP SWAP1 DIV PUSH20 0xFFFFFFFFFFFFFFFFFFFFFFFFFFFFFFFFFFFFFFFF AND PUSH20 0xFFFFFFFFFFFFFFFFFFFFFFFFFFFFFFFFFFFFFFFF AND CALLER PUSH20 0xFFFFFFFFFFFFFFFFFFFFFFFFFFFFFFFFFFFFFFFF AND EQ JUMPDEST PUSH2 0x5940 JUMPI PUSH1 0x40 MLOAD PUSH32 0x8C379A000000000000000000000000000000000000000000000000000000000 DUP2 MSTORE PUSH1 0x4 ADD PUSH2 0x5937 SWAP1 PUSH2 0x6C3D JUMP JUMPDEST PUSH1 0x40 MLOAD DUP1 SWAP2 SUB SWAP1 REVERT JUMPDEST DUP2 PUSH1 0x25 DUP2 SWAP1 SSTORE POP DUP1 PUSH1 0x1A DUP2 SWAP1 SSTORE POP PUSH32 0x3CD02AFB025E556DD4CB5AB56C7DE3B05BB254AA76EE6BD499F6D8A011A1448 DUP3 DUP3 PUSH1 0x40 MLOAD PUSH2 0x597F SWAP3 SWAP2 SWAP1 PUSH2 0x6A35 JUMP JUMPDEST PUSH1 0x40 MLOAD DUP1 SWAP2 SUB SWAP1 LOG1 POP POP JUMP JUMPDEST PUSH1 0x1F PUSH1 0x20 MSTORE DUP1 PUSH0 MSTORE PUSH1 0x40 PUSH0 KECCAK256 PUSH0 SWAP2 POP SWAP1 POP SLOAD DUP2 JUMP JUMPDEST PUSH1 0x1C SLOAD DUP2 JUMP JUMPDEST PUSH1 0x7 PUSH0 SWAP1 SLOAD SWAP1 PUSH2 0x100 EXP SWAP1 DIV PUSH20 0xFFFFFFFFFFFFFFFFFFFFFFFFFFFFFFFFFFFFFFFF AND DUP2 JUMP JUMPDEST PUSH1 0x2 PUSH0 SWAP1 SLOAD SWAP1 PUSH2 0x100 EXP SWAP1 DIV PUSH20 0xFFFFFFFFFFFFFFFFFFFFFFFFFFFFFFFFFFFFFFFF AND PUSH20 0xFFFFFFFFFFFFFFFFFFFFFFFFFFFFFFFFFFFFFFFF AND CALLER PUSH20 0xFFFFFFFFFFFFFFFFFFFFFFFFFFFFFFFFFFFFFFFF AND EQ DUP1 PUSH2 0x5A70 JUMPI POP PUSH0 DUP1 SLOAD SWAP1 PUSH2 0x100 EXP SWAP1 DIV PUSH20 0xFFFFFFFFFFFFFFFFFFFFFFFFFFFFFFFFFFFFFFFF AND PUSH20 0xFFFFFFFFFFFFFFFFFFFFFFFFFFFFFFFFFFFFFFFF AND CALLER PUSH20 0xFFFFFFFFFFFFFFFFFFFFFFFFFFFFFFFFFFFFFFFF AND EQ JUMPDEST PUSH2 0x5AAF JUMPI PUSH1 0x40 MLOAD PUSH32 0x8C379A000000000000000000000000000000000000000000000000000000000 DUP2 MSTORE PUSH1 0x4 ADD PUSH2 0x5AA6 SWAP1 PUSH2 0x6C3D JUMP JUMPDEST PUSH1 0x40 MLOAD DUP1 SWAP2 SUB SWAP1 REVERT JUMPDEST DUP1 PUSH1 0x11 DUP4 DUP2 SLOAD DUP2 LT PUSH2 0x5AC4 JUMPI PUSH2 0x5AC3 PUSH2 0x6C5B JUMP JUMPDEST JUMPDEST SWAP1 PUSH0 MSTORE PUSH1 0x20 PUSH0 KECCAK256 ADD DUP2 SWAP1 SSTORE POP PUSH32 0x4CB99F07BF9AB5F864D81D791709058819F4188481FB3C70B90A1765E003B16E DUP3 DUP3 PUSH1 0x40 MLOAD PUSH2 0x5B01 SWAP3 SWAP2 SWAP1 PUSH2 0x6A35 JUMP JUMPDEST PUSH1 0x40 MLOAD DUP1 SWAP2 SUB SWAP1 LOG1 POP POP JUMP JUMPDEST PUSH0 DUP1 PUSH2 0x5B17 PUSH2 0x355C JUMP JUMPDEST SWAP1 POP PUSH0 PUSH2 0x5B22 PUSH2 0x160D JUMP JUMPDEST SWAP1 POP PUSH0 PUSH2 0x5B4D DUP4 PUSH2 0x5B3F PUSH3 0xF4240 DUP6 PUSH2 0x5CDB SWAP1 SWAP2 SWAP1 PUSH4 0xFFFFFFFF AND JUMP JUMPDEST PUSH2 0x5D52 SWAP1 SWAP2 SWAP1 PUSH4 0xFFFFFFFF AND JUMP JUMPDEST SWAP1 POP PUSH0 PUSH1 0x1F PUSH0 PUSH2 0x5B5B PUSH2 0xC60 JUMP JUMPDEST DUP2 MSTORE PUSH1 0x20 ADD SWAP1 DUP2 MSTORE PUSH1 0x20 ADD PUSH0 KECCAK256 SLOAD SWAP1 POP PUSH2 0x5B78 DUP2 PUSH1 0x20 SLOAD DUP5 PUSH2 0x5DE4 JUMP JUMPDEST SWAP5 POP POP POP POP POP SWAP1 JUMP JUMPDEST PUSH0 DUP1 PUSH0 DUP1 PUSH0 PUSH1 0x7 PUSH0 SWAP1 SLOAD SWAP1 PUSH2 0x100 EXP SWAP1 DIV PUSH20 0xFFFFFFFFFFFFFFFFFFFFFFFFFFFFFFFFFFFFFFFF AND PUSH20 0xFFFFFFFFFFFFFFFFFFFFFFFFFFFFFFFFFFFFFFFF AND PUSH4 0xFEAF968C PUSH1 0x40 MLOAD DUP2 PUSH4 0xFFFFFFFF AND PUSH1 0xE0 SHL DUP2 MSTORE PUSH1 0x4 ADD PUSH1 0xA0 PUSH1 0x40 MLOAD DUP1 DUP4 SUB DUP2 DUP7 GAS STATICCALL ISZERO DUP1 ISZERO PUSH2 0x5BF0 JUMPI RETURNDATASIZE PUSH0 DUP1 RETURNDATACOPY RETURNDATASIZE PUSH0 REVERT JUMPDEST POP POP POP POP PUSH1 0x40 MLOAD RETURNDATASIZE PUSH1 0x1F NOT PUSH1 0x1F DUP3 ADD AND DUP3 ADD DUP1 PUSH1 0x40 MSTORE POP DUP2 ADD SWAP1 PUSH2 0x5C14 SWAP2 SWAP1 PUSH2 0x6DC5 JUMP JUMPDEST SWAP5 POP SWAP5 POP POP SWAP4 POP SWAP4 POP PUSH0 DUP4 SLT ISZERO DUP1 ISZERO PUSH2 0x5C2D JUMPI POP PUSH0 DUP3 EQ ISZERO JUMPDEST DUP1 ISZERO PUSH2 0x5C51 JUMPI POP DUP4 PUSH10 0xFFFFFFFFFFFFFFFFFFFF AND DUP2 PUSH10 0xFFFFFFFFFFFFFFFFFFFF AND LT ISZERO JUMPDEST PUSH2 0x5C90 JUMPI PUSH1 0x40 MLOAD PUSH32 0x8C379A000000000000000000000000000000000000000000000000000000000 DUP2 MSTORE PUSH1 0x4 ADD PUSH2 0x5C87 SWAP1 PUSH2 0x6E86 JUMP JUMPDEST PUSH1 0x40 MLOAD DUP1 SWAP2 SUB SWAP1 REVERT JUMPDEST PUSH2 0x5CC6 PUSH1 0xA SLOAD PUSH1 0xA PUSH2 0x5CA2 SWAP2 SWAP1 PUSH2 0x6FD3 JUMP JUMPDEST PUSH2 0x5CB8 PUSH3 0xF4240 DUP7 PUSH2 0x5CDB SWAP1 SWAP2 SWAP1 PUSH4 0xFFFFFFFF AND JUMP JUMPDEST PUSH2 0x5D52 SWAP1 SWAP2 SWAP1 PUSH4 0xFFFFFFFF AND JUMP JUMPDEST SWAP5 POP POP POP POP POP SWAP1 JUMP JUMPDEST PUSH1 0x1E SLOAD DUP2 JUMP JUMPDEST PUSH1 0x1B SLOAD DUP2 JUMP JUMPDEST PUSH0 DUP1 DUP4 SUB PUSH2 0x5CEB JUMPI PUSH0 SWAP1 POP PUSH2 0x5D4C JUMP JUMPDEST PUSH0 DUP3 DUP5 PUSH2 0x5CF8 SWAP2 SWAP1 PUSH2 0x7220 JUMP JUMPDEST SWAP1 POP DUP3 DUP5 DUP3 PUSH2 0x5D07 SWAP2 SWAP1 PUSH2 0x6BC3 JUMP JUMPDEST EQ PUSH2 0x5D47 JUMPI PUSH1 0x40 MLOAD PUSH32 0x8C379A000000000000000000000000000000000000000000000000000000000 DUP2 MSTORE PUSH1 0x4 ADD PUSH2 0x5D3E SWAP1 PUSH2 0x7CD4 JUMP JUMPDEST PUSH1 0x40 MLOAD DUP1 SWAP2 SUB SWAP1 REVERT JUMPDEST DUP1 SWAP2 POP POP JUMPDEST SWAP3 SWAP2 POP POP JUMP JUMPDEST PUSH0 PUSH2 0x5D93 DUP4 DUP4 PUSH1 0x40 MLOAD DUP1 PUSH1 0x40 ADD PUSH1 0x40 MSTORE DUP1 PUSH1 0x1A DUP2 MSTORE PUSH1 0x20 ADD PUSH32 0x536166654D6174683A206469766973696F6E206279207A65726F000000000000 DUP2 MSTORE POP PUSH2 0x60E6 JUMP JUMPDEST SWAP1 POP SWAP3 SWAP2 POP POP JUMP JUMPDEST PUSH0 PUSH2 0x5DDC DUP4 DUP4 PUSH1 0x40 MLOAD DUP1 PUSH1 0x40 ADD PUSH1 0x40 MSTORE DUP1 PUSH1 0x1E DUP2 MSTORE PUSH1 0x20 ADD PUSH32 0x536166654D6174683A207375627472616374696F6E206F766572666C6F770000 DUP2 MSTORE POP PUSH2 0x6147 JUMP JUMPDEST SWAP1 POP SWAP3 SWAP2 POP POP JUMP JUMPDEST PUSH0 DUP3 DUP5 LT PUSH2 0x5DF4 JUMPI PUSH0 SWAP1 POP PUSH2 0x5E1F JUMP JUMPDEST PUSH0 PUSH2 0x5E08 DUP6 DUP6 PUSH2 0x5D9B SWAP1 SWAP2 SWAP1 PUSH4 0xFFFFFFFF AND JUMP JUMPDEST SWAP1 POP DUP1 DUP4 LT PUSH2 0x5E1A JUMPI DUP1 SWAP2 POP POP PUSH2 0x5E1F JUMP JUMPDEST DUP3 SWAP2 POP POP JUMPDEST SWAP4 SWAP3 POP POP POP JUMP JUMPDEST PUSH0 DUP1 DUP3 DUP5 PUSH2 0x5E34 SWAP2 SWAP1 PUSH2 0x70AB JUMP JUMPDEST SWAP1 POP DUP4 DUP2 LT ISZERO PUSH2 0x5E79 JUMPI PUSH1 0x40 MLOAD PUSH32 0x8C379A000000000000000000000000000000000000000000000000000000000 DUP2 MSTORE PUSH1 0x4 ADD PUSH2 0x5E70 SWAP1 PUSH2 0x7D3C JUMP JUMPDEST PUSH1 0x40 MLOAD DUP1 SWAP2 SUB SWAP1 REVERT JUMPDEST DUP1 SWAP2 POP POP SWAP3 SWAP2 POP POP JUMP JUMPDEST PUSH0 DUP1 DUP6 PUSH20 0xFFFFFFFFFFFFFFFFFFFFFFFFFFFFFFFFFFFFFFFF AND PUSH4 0x23B872DD DUP7 DUP7 DUP7 PUSH1 0x40 MLOAD PUSH1 0x24 ADD PUSH2 0x5EB6 SWAP4 SWAP3 SWAP2 SWAP1 PUSH2 0x76F2 JUMP JUMPDEST PUSH1 0x40 MLOAD PUSH1 0x20 DUP2 DUP4 SUB SUB DUP2 MSTORE SWAP1 PUSH1 0x40 MSTORE SWAP1 PUSH1 0xE0 SHL PUSH1 0x20 DUP3 ADD DUP1 MLOAD PUSH28 0xFFFFFFFFFFFFFFFFFFFFFFFFFFFFFFFFFFFFFFFFFFFFFFFFFFFFFFFF DUP4 DUP2 DUP4 AND OR DUP4 MSTORE POP POP POP POP PUSH1 0x40 MLOAD PUSH2 0x5F04 SWAP2 SWAP1 PUSH2 0x7D9E JUMP JUMPDEST PUSH0 PUSH1 0x40 MLOAD DUP1 DUP4 SUB DUP2 PUSH0 DUP7 GAS CALL SWAP2 POP POP RETURNDATASIZE DUP1 PUSH0 DUP2 EQ PUSH2 0x5F3D JUMPI PUSH1 0x40 MLOAD SWAP2 POP PUSH1 0x1F NOT PUSH1 0x3F RETURNDATASIZE ADD AND DUP3 ADD PUSH1 0x40 MSTORE RETURNDATASIZE DUP3 MSTORE RETURNDATASIZE PUSH0 PUSH1 0x20 DUP5 ADD RETURNDATACOPY PUSH2 0x5F42 JUMP JUMPDEST PUSH1 0x60 SWAP2 POP JUMPDEST POP SWAP2 POP SWAP2 POP DUP2 DUP1 ISZERO PUSH2 0x5F6F JUMPI POP PUSH0 DUP2 MLOAD EQ DUP1 PUSH2 0x5F6E JUMPI POP DUP1 DUP1 PUSH1 0x20 ADD SWAP1 MLOAD DUP2 ADD SWAP1 PUSH2 0x5F6D SWAP2 SWAP1 PUSH2 0x73D4 JUMP JUMPDEST JUMPDEST JUMPDEST PUSH2 0x5FAE JUMPI PUSH1 0x40 MLOAD PUSH32 0x8C379A000000000000000000000000000000000000000000000000000000000 DUP2 MSTORE PUSH1 0x4 ADD PUSH2 0x5FA5 SWAP1 PUSH2 0x7E24 JUMP JUMPDEST PUSH1 0x40 MLOAD DUP1 SWAP2 SUB SWAP1 REVERT JUMPDEST POP POP POP POP POP POP JUMP JUMPDEST PUSH0 DUP1 DUP5 PUSH20 0xFFFFFFFFFFFFFFFFFFFFFFFFFFFFFFFFFFFFFFFF AND PUSH4 0xA9059CBB DUP6 DUP6 PUSH1 0x40 MLOAD PUSH1 0x24 ADD PUSH2 0x5FE7 SWAP3 SWAP2 SWAP1 PUSH2 0x7399 JUMP JUMPDEST PUSH1 0x40 MLOAD PUSH1 0x20 DUP2 DUP4 SUB SUB DUP2 MSTORE SWAP1 PUSH1 0x40 MSTORE SWAP1 PUSH1 0xE0 SHL PUSH1 0x20 DUP3 ADD DUP1 MLOAD PUSH28 0xFFFFFFFFFFFFFFFFFFFFFFFFFFFFFFFFFFFFFFFFFFFFFFFFFFFFFFFF DUP4 DUP2 DUP4 AND OR DUP4 MSTORE POP POP POP POP PUSH1 0x40 MLOAD PUSH2 0x6035 SWAP2 SWAP1 PUSH2 0x7D9E JUMP JUMPDEST PUSH0 PUSH1 0x40 MLOAD DUP1 DUP4 SUB DUP2 PUSH0 DUP7 GAS CALL SWAP2 POP POP RETURNDATASIZE DUP1 PUSH0 DUP2 EQ PUSH2 0x606E JUMPI PUSH1 0x40 MLOAD SWAP2 POP PUSH1 0x1F NOT PUSH1 0x3F RETURNDATASIZE ADD AND DUP3 ADD PUSH1 0x40 MSTORE RETURNDATASIZE DUP3 MSTORE RETURNDATASIZE PUSH0 PUSH1 0x20 DUP5 ADD RETURNDATACOPY PUSH2 0x6073 JUMP JUMPDEST PUSH1 0x60 SWAP2 POP JUMPDEST POP SWAP2 POP SWAP2 POP DUP2 DUP1 ISZERO PUSH2 0x60A0 JUMPI POP PUSH0 DUP2 MLOAD EQ DUP1 PUSH2 0x609F JUMPI POP DUP1 DUP1 PUSH1 0x20 ADD SWAP1 MLOAD DUP2 ADD SWAP1 PUSH2 0x609E SWAP2 SWAP1 PUSH2 0x73D4 JUMP JUMPDEST JUMPDEST JUMPDEST PUSH2 0x60DF JUMPI PUSH1 0x40 MLOAD PUSH32 0x8C379A000000000000000000000000000000000000000000000000000000000 DUP2 MSTORE PUSH1 0x4 ADD PUSH2 0x60D6 SWAP1 PUSH2 0x7E8C JUMP JUMPDEST PUSH1 0x40 MLOAD DUP1 SWAP2 SUB SWAP1 REVERT JUMPDEST POP POP POP POP POP JUMP JUMPDEST PUSH0 DUP1 DUP4 GT DUP3 SWAP1 PUSH2 0x612C JUMPI PUSH1 0x40 MLOAD PUSH32 0x8C379A000000000000000000000000000000000000000000000000000000000 DUP2 MSTORE PUSH1 0x4 ADD PUSH2 0x6123 SWAP2 SWAP1 PUSH2 0x666D JUMP JUMPDEST PUSH1 0x40 MLOAD DUP1 SWAP2 SUB SWAP1 REVERT JUMPDEST POP PUSH0 DUP4 DUP6 PUSH2 0x613A SWAP2 SWAP1 PUSH2 0x6BC3 JUMP JUMPDEST SWAP1 POP DUP1 SWAP2 POP POP SWAP4 SWAP3 POP POP POP JUMP JUMPDEST PUSH0 DUP4 DUP4 GT ISZERO DUP3 SWAP1 PUSH2 0x618E JUMPI PUSH1 0x40 MLOAD PUSH32 0x8C379A000000000000000000000000000000000000000000000000000000000 DUP2 MSTORE PUSH1 0x4 ADD PUSH2 0x6185 SWAP2 SWAP1 PUSH2 0x666D JUMP JUMPDEST PUSH1 0x40 MLOAD DUP1 SWAP2 SUB SWAP1 REVERT JUMPDEST POP PUSH0 DUP4 DUP6 PUSH2 0x619C SWAP2 SWAP1 PUSH2 0x7EAA JUMP JUMPDEST SWAP1 POP DUP1 SWAP2 POP POP SWAP4 SWAP3 POP POP POP JUMP JUMPDEST PUSH1 0x40 MLOAD DUP1 PUSH2 0x200 ADD PUSH1 0x40 MSTORE DUP1 PUSH0 DUP2 MSTORE PUSH1 0x20 ADD PUSH1 0x60 DUP2 MSTORE PUSH1 0x20 ADD PUSH0 PUSH20 0xFFFFFFFFFFFFFFFFFFFFFFFFFFFFFFFFFFFFFFFF AND DUP2 MSTORE PUSH1 0x20 ADD PUSH0 ISZERO ISZERO DUP2 MSTORE PUSH1 0x20 ADD PUSH0 DUP2 MSTORE PUSH1 0x20 ADD PUSH0 DUP2 MSTORE PUSH1 0x20 ADD PUSH0 DUP2 MSTORE PUSH1 0x20 ADD PUSH0 ISZERO ISZERO DUP2 MSTORE PUSH1 0x20 ADD PUSH0 ISZERO ISZERO DUP2 MSTORE PUSH1 0x20 ADD PUSH0 ISZERO ISZERO DUP2 MSTORE PUSH1 0x20 ADD PUSH0 ISZERO ISZERO DUP2 MSTORE PUSH1 0x20 ADD PUSH0 ISZERO ISZERO DUP2 MSTORE PUSH1 0x20 ADD PUSH0 DUP2 MSTORE PUSH1 0x20 ADD PUSH0 DUP2 MSTORE PUSH1 0x20 ADD PUSH0 DUP2 MSTORE PUSH1 0x20 ADD PUSH0 DUP2 MSTORE POP SWAP1 JUMP JUMPDEST PUSH0 DUP2 SWAP1 POP SWAP2 SWAP1 POP JUMP JUMPDEST PUSH2 0x624B DUP2 PUSH2 0x6239 JUMP JUMPDEST DUP3 MSTORE POP POP JUMP JUMPDEST PUSH0 PUSH1 0x20 DUP3 ADD SWAP1 POP PUSH2 0x6264 PUSH0 DUP4 ADD DUP5 PUSH2 0x6242 JUMP JUMPDEST SWAP3 SWAP2 POP POP JUMP JUMPDEST PUSH0 DUP1 REVERT JUMPDEST PUSH2 0x6277 DUP2 PUSH2 0x6239 JUMP JUMPDEST DUP2 EQ PUSH2 0x6281 JUMPI PUSH0 DUP1 REVERT JUMPDEST POP JUMP JUMPDEST PUSH0 DUP2 CALLDATALOAD SWAP1 POP PUSH2 0x6292 DUP2 PUSH2 0x626E JUMP JUMPDEST SWAP3 SWAP2 POP POP JUMP JUMPDEST PUSH0 DUP1 PUSH0 DUP1 PUSH0 PUSH1 0xA0 DUP7 DUP9 SUB SLT ISZERO PUSH2 0x62B1 JUMPI PUSH2 0x62B0 PUSH2 0x626A JUMP JUMPDEST JUMPDEST PUSH0 PUSH2 0x62BE DUP9 DUP3 DUP10 ADD PUSH2 0x6284 JUMP JUMPDEST SWAP6 POP POP PUSH1 0x20 PUSH2 0x62CF DUP9 DUP3 DUP10 ADD PUSH2 0x6284 JUMP JUMPDEST SWAP5 POP POP PUSH1 0x40 PUSH2 0x62E0 DUP9 DUP3 DUP10 ADD PUSH2 0x6284 JUMP JUMPDEST SWAP4 POP POP PUSH1 0x60 PUSH2 0x62F1 DUP9 DUP3 DUP10 ADD PUSH2 0x6284 JUMP JUMPDEST SWAP3 POP POP PUSH1 0x80 PUSH2 0x6302 DUP9 DUP3 DUP10 ADD PUSH2 0x6284 JUMP JUMPDEST SWAP2 POP POP SWAP3 SWAP6 POP SWAP3 SWAP6 SWAP1 SWAP4 POP JUMP JUMPDEST PUSH0 PUSH20 0xFFFFFFFFFFFFFFFFFFFFFFFFFFFFFFFFFFFFFFFF DUP3 AND SWAP1 POP SWAP2 SWAP1 POP JUMP JUMPDEST PUSH0 PUSH2 0x6338 DUP3 PUSH2 0x630F JUMP JUMPDEST SWAP1 POP SWAP2 SWAP1 POP JUMP JUMPDEST PUSH2 0x6348 DUP2 PUSH2 0x632E JUMP JUMPDEST DUP2 EQ PUSH2 0x6352 JUMPI PUSH0 DUP1 REVERT JUMPDEST POP JUMP JUMPDEST PUSH0 DUP2 CALLDATALOAD SWAP1 POP PUSH2 0x6363 DUP2 PUSH2 0x633F JUMP JUMPDEST SWAP3 SWAP2 POP POP JUMP JUMPDEST PUSH0 DUP1 PUSH0 PUSH1 0x60 DUP5 DUP7 SUB SLT ISZERO PUSH2 0x6380 JUMPI PUSH2 0x637F PUSH2 0x626A JUMP JUMPDEST JUMPDEST PUSH0 PUSH2 0x638D DUP7 DUP3 DUP8 ADD PUSH2 0x6355 JUMP JUMPDEST SWAP4 POP POP PUSH1 0x20 PUSH2 0x639E DUP7 DUP3 DUP8 ADD PUSH2 0x6355 JUMP JUMPDEST SWAP3 POP POP PUSH1 0x40 PUSH2 0x63AF DUP7 DUP3 DUP8 ADD PUSH2 0x6355 JUMP JUMPDEST SWAP2 POP POP SWAP3 POP SWAP3 POP SWAP3 JUMP JUMPDEST PUSH0 PUSH1 0x20 DUP3 DUP5 SUB SLT ISZERO PUSH2 0x63CE JUMPI PUSH2 0x63CD PUSH2 0x626A JUMP JUMPDEST JUMPDEST PUSH0 PUSH2 0x63DB DUP5 DUP3 DUP6 ADD PUSH2 0x6355 JUMP JUMPDEST SWAP2 POP POP SWAP3 SWAP2 POP POP JUMP JUMPDEST PUSH0 DUP1 PUSH1 0x40 DUP4 DUP6 SUB SLT ISZERO PUSH2 0x63FA JUMPI PUSH2 0x63F9 PUSH2 0x626A JUMP JUMPDEST JUMPDEST PUSH0 PUSH2 0x6407 DUP6 DUP3 DUP7 ADD PUSH2 0x6284 JUMP JUMPDEST SWAP3 POP POP PUSH1 0x20 PUSH2 0x6418 DUP6 DUP3 DUP7 ADD PUSH2 0x6284 JUMP JUMPDEST SWAP2 POP POP SWAP3 POP SWAP3 SWAP1 POP JUMP JUMPDEST PUSH0 DUP2 SWAP1 POP SWAP2 SWAP1 POP JUMP JUMPDEST PUSH0 PUSH2 0x6445 PUSH2 0x6440 PUSH2 0x643B DUP5 PUSH2 0x630F JUMP JUMPDEST PUSH2 0x6422 JUMP JUMPDEST PUSH2 0x630F JUMP JUMPDEST SWAP1 POP SWAP2 SWAP1 POP JUMP JUMPDEST PUSH0 PUSH2 0x6456 DUP3 PUSH2 0x642B JUMP JUMPDEST SWAP1 POP SWAP2 SWAP1 POP JUMP JUMPDEST PUSH0 PUSH2 0x6467 DUP3 PUSH2 0x644C JUMP JUMPDEST SWAP1 POP SWAP2 SWAP1 POP JUMP JUMPDEST PUSH2 0x6477 DUP2 PUSH2 0x645D JUMP JUMPDEST DUP3 MSTORE POP POP JUMP JUMPDEST PUSH0 PUSH1 0x20 DUP3 ADD SWAP1 POP PUSH2 0x6490 PUSH0 DUP4 ADD DUP5 PUSH2 0x646E JUMP JUMPDEST SWAP3 SWAP2 POP POP JUMP JUMPDEST PUSH0 PUSH1 0x20 DUP3 DUP5 SUB SLT ISZERO PUSH2 0x64AB JUMPI PUSH2 0x64AA PUSH2 0x626A JUMP JUMPDEST JUMPDEST PUSH0 PUSH2 0x64B8 DUP5 DUP3 DUP6 ADD PUSH2 0x6284 JUMP JUMPDEST SWAP2 POP POP SWAP3 SWAP2 POP POP JUMP JUMPDEST PUSH0 DUP1 PUSH1 0x40 DUP4 DUP6 SUB SLT ISZERO PUSH2 0x64D7 JUMPI PUSH2 0x64D6 PUSH2 0x626A JUMP JUMPDEST JUMPDEST PUSH0 PUSH2 0x64E4 DUP6 DUP3 DUP7 ADD PUSH2 0x6355 JUMP JUMPDEST SWAP3 POP POP PUSH1 0x20 PUSH2 0x64F5 DUP6 DUP3 DUP7 ADD PUSH2 0x6284 JUMP JUMPDEST SWAP2 POP POP SWAP3 POP SWAP3 SWAP1 POP JUMP JUMPDEST PUSH0 PUSH2 0x6509 DUP3 PUSH2 0x644C JUMP JUMPDEST SWAP1 POP SWAP2 SWAP1 POP JUMP JUMPDEST PUSH2 0x6519 DUP2 PUSH2 0x64FF JUMP JUMPDEST DUP3 MSTORE POP POP JUMP JUMPDEST PUSH0 PUSH1 0x20 DUP3 ADD SWAP1 POP PUSH2 0x6532 PUSH0 DUP4 ADD DUP5 PUSH2 0x6510 JUMP JUMPDEST SWAP3 SWAP2 POP POP JUMP JUMPDEST PUSH0 DUP2 ISZERO ISZERO SWAP1 POP SWAP2 SWAP1 POP JUMP JUMPDEST PUSH2 0x654C DUP2 PUSH2 0x6538 JUMP JUMPDEST DUP3 MSTORE POP POP JUMP JUMPDEST PUSH0 PUSH1 0x20 DUP3 ADD SWAP1 POP PUSH2 0x6565 PUSH0 DUP4 ADD DUP5 PUSH2 0x6543 JUMP JUMPDEST SWAP3 SWAP2 POP POP JUMP JUMPDEST PUSH2 0x6574 DUP2 PUSH2 0x632E JUMP JUMPDEST DUP3 MSTORE POP POP JUMP JUMPDEST PUSH0 PUSH1 0x20 DUP3 ADD SWAP1 POP PUSH2 0x658D PUSH0 DUP4 ADD DUP5 PUSH2 0x656B JUMP JUMPDEST SWAP3 SWAP2 POP POP JUMP JUMPDEST PUSH0 DUP1 PUSH0 PUSH1 0x60 DUP5 DUP7 SUB SLT ISZERO PUSH2 0x65AA JUMPI PUSH2 0x65A9 PUSH2 0x626A JUMP JUMPDEST JUMPDEST PUSH0 PUSH2 0x65B7 DUP7 DUP3 DUP8 ADD PUSH2 0x6284 JUMP JUMPDEST SWAP4 POP POP PUSH1 0x20 PUSH2 0x65C8 DUP7 DUP3 DUP8 ADD PUSH2 0x6284 JUMP JUMPDEST SWAP3 POP POP PUSH1 0x40 PUSH2 0x65D9 DUP7 DUP3 DUP8 ADD PUSH2 0x6284 JUMP JUMPDEST SWAP2 POP POP SWAP3 POP SWAP3 POP SWAP3 JUMP JUMPDEST PUSH0 DUP2 MLOAD SWAP1 POP SWAP2 SWAP1 POP JUMP JUMPDEST PUSH0 DUP3 DUP3 MSTORE PUSH1 0x20 DUP3 ADD SWAP1 POP SWAP3 SWAP2 POP POP JUMP JUMPDEST PUSH0 JUMPDEST DUP4 DUP2 LT ISZERO PUSH2 0x661A JUMPI DUP1 DUP3 ADD MLOAD DUP2 DUP5 ADD MSTORE PUSH1 0x20 DUP2 ADD SWAP1 POP PUSH2 0x65FF JUMP JUMPDEST PUSH0 DUP5 DUP5 ADD MSTORE POP POP POP POP JUMP JUMPDEST PUSH0 PUSH1 0x1F NOT PUSH1 0x1F DUP4 ADD AND SWAP1 POP SWAP2 SWAP1 POP JUMP JUMPDEST PUSH0 PUSH2 0x663F DUP3 PUSH2 0x65E3 JUMP JUMPDEST PUSH2 0x6649 DUP2 DUP6 PUSH2 0x65ED JUMP JUMPDEST SWAP4 POP PUSH2 0x6659 DUP2 DUP6 PUSH1 0x20 DUP7 ADD PUSH2 0x65FD JUMP JUMPDEST PUSH2 0x6662 DUP2 PUSH2 0x6625 JUMP JUMPDEST DUP5 ADD SWAP2 POP POP SWAP3 SWAP2 POP POP JUMP JUMPDEST PUSH0 PUSH1 0x20 DUP3 ADD SWAP1 POP DUP2 DUP2 SUB PUSH0 DUP4 ADD MSTORE PUSH2 0x6685 DUP2 DUP5 PUSH2 0x6635 JUMP JUMPDEST SWAP1 POP SWAP3 SWAP2 POP POP JUMP JUMPDEST PUSH2 0x6696 DUP2 PUSH2 0x6239 JUMP JUMPDEST DUP3 MSTORE POP POP JUMP JUMPDEST PUSH0 DUP3 DUP3 MSTORE PUSH1 0x20 DUP3 ADD SWAP1 POP SWAP3 SWAP2 POP POP JUMP JUMPDEST PUSH0 PUSH2 0x66B6 DUP3 PUSH2 0x65E3 JUMP JUMPDEST PUSH2 0x66C0 DUP2 DUP6 PUSH2 0x669C JUMP JUMPDEST SWAP4 POP PUSH2 0x66D0 DUP2 DUP6 PUSH1 0x20 DUP7 ADD PUSH2 0x65FD JUMP JUMPDEST PUSH2 0x66D9 DUP2 PUSH2 0x6625 JUMP JUMPDEST DUP5 ADD SWAP2 POP POP SWAP3 SWAP2 POP POP JUMP JUMPDEST PUSH2 0x66ED DUP2 PUSH2 0x632E JUMP JUMPDEST DUP3 MSTORE POP POP JUMP JUMPDEST PUSH2 0x66FC DUP2 PUSH2 0x6538 JUMP JUMPDEST DUP3 MSTORE POP POP JUMP JUMPDEST PUSH0 PUSH2 0x200 DUP4 ADD PUSH0 DUP4 ADD MLOAD PUSH2 0x6718 PUSH0 DUP7 ADD DUP3 PUSH2 0x668D JUMP JUMPDEST POP PUSH1 0x20 DUP4 ADD MLOAD DUP5 DUP3 SUB PUSH1 0x20 DUP7 ADD MSTORE PUSH2 0x6730 DUP3 DUP3 PUSH2 0x66AC JUMP JUMPDEST SWAP2 POP POP PUSH1 0x40 DUP4 ADD MLOAD PUSH2 0x6745 PUSH1 0x40 DUP7 ADD DUP3 PUSH2 0x66E4 JUMP JUMPDEST POP PUSH1 0x60 DUP4 ADD MLOAD PUSH2 0x6758 PUSH1 0x60 DUP7 ADD DUP3 PUSH2 0x66F3 JUMP JUMPDEST POP PUSH1 0x80 DUP4 ADD MLOAD PUSH2 0x676B PUSH1 0x80 DUP7 ADD DUP3 PUSH2 0x668D JUMP JUMPDEST POP PUSH1 0xA0 DUP4 ADD MLOAD PUSH2 0x677E PUSH1 0xA0 DUP7 ADD DUP3 PUSH2 0x668D JUMP JUMPDEST POP PUSH1 0xC0 DUP4 ADD MLOAD PUSH2 0x6791 PUSH1 0xC0 DUP7 ADD DUP3 PUSH2 0x668D JUMP JUMPDEST POP PUSH1 0xE0 DUP4 ADD MLOAD PUSH2 0x67A4 PUSH1 0xE0 DUP7 ADD DUP3 PUSH2 0x66F3 JUMP JUMPDEST POP PUSH2 0x100 DUP4 ADD MLOAD PUSH2 0x67B9 PUSH2 0x100 DUP7 ADD DUP3 PUSH2 0x66F3 JUMP JUMPDEST POP PUSH2 0x120 DUP4 ADD MLOAD PUSH2 0x67CE PUSH2 0x120 DUP7 ADD DUP3 PUSH2 0x66F3 JUMP JUMPDEST POP PUSH2 0x140 DUP4 ADD MLOAD PUSH2 0x67E3 PUSH2 0x140 DUP7 ADD DUP3 PUSH2 0x66F3 JUMP JUMPDEST POP PUSH2 0x160 DUP4 ADD MLOAD PUSH2 0x67F8 PUSH2 0x160 DUP7 ADD DUP3 PUSH2 0x66F3 JUMP JUMPDEST POP PUSH2 0x180 DUP4 ADD MLOAD PUSH2 0x680D PUSH2 0x180 DUP7 ADD DUP3 PUSH2 0x668D JUMP JUMPDEST POP PUSH2 0x1A0 DUP4 ADD MLOAD PUSH2 0x6822 PUSH2 0x1A0 DUP7 ADD DUP3 PUSH2 0x668D JUMP JUMPDEST POP PUSH2 0x1C0 DUP4 ADD MLOAD PUSH2 0x6837 PUSH2 0x1C0 DUP7 ADD DUP3 PUSH2 0x668D JUMP JUMPDEST POP PUSH2 0x1E0 DUP4 ADD MLOAD PUSH2 0x684C PUSH2 0x1E0 DUP7 ADD DUP3 PUSH2 0x668D JUMP JUMPDEST POP DUP1 SWAP2 POP POP SWAP3 SWAP2 POP POP JUMP JUMPDEST PUSH0 PUSH1 0x20 DUP3 ADD SWAP1 POP DUP2 DUP2 SUB PUSH0 DUP4 ADD MSTORE PUSH2 0x686F DUP2 DUP5 PUSH2 0x6702 JUMP JUMPDEST SWAP1 POP SWAP3 SWAP2 POP POP JUMP JUMPDEST PUSH2 0x6880 DUP2 PUSH2 0x6538 JUMP JUMPDEST DUP2 EQ PUSH2 0x688A JUMPI PUSH0 DUP1 REVERT JUMPDEST POP JUMP JUMPDEST PUSH0 DUP2 CALLDATALOAD SWAP1 POP PUSH2 0x689B DUP2 PUSH2 0x6877 JUMP JUMPDEST SWAP3 SWAP2 POP POP JUMP JUMPDEST PUSH0 DUP1 PUSH0 DUP1 PUSH0 DUP1 PUSH1 0xC0 DUP8 DUP10 SUB SLT ISZERO PUSH2 0x68BB JUMPI PUSH2 0x68BA PUSH2 0x626A JUMP JUMPDEST JUMPDEST PUSH0 PUSH2 0x68C8 DUP10 DUP3 DUP11 ADD PUSH2 0x6284 JUMP JUMPDEST SWAP7 POP POP PUSH1 0x20 PUSH2 0x68D9 DUP10 DUP3 DUP11 ADD PUSH2 0x6284 JUMP JUMPDEST SWAP6 POP POP PUSH1 0x40 PUSH2 0x68EA DUP10 DUP3 DUP11 ADD PUSH2 0x6284 JUMP JUMPDEST SWAP5 POP POP PUSH1 0x60 PUSH2 0x68FB DUP10 DUP3 DUP11 ADD PUSH2 0x6284 JUMP JUMPDEST SWAP4 POP POP PUSH1 0x80 PUSH2 0x690C DUP10 DUP3 DUP11 ADD PUSH2 0x6284 JUMP JUMPDEST SWAP3 POP POP PUSH1 0xA0 PUSH2 0x691D DUP10 DUP3 DUP11 ADD PUSH2 0x688D JUMP JUMPDEST SWAP2 POP POP SWAP3 SWAP6 POP SWAP3 SWAP6 POP SWAP3 SWAP6 JUMP JUMPDEST PUSH0 PUSH1 0x80 DUP3 ADD SWAP1 POP PUSH2 0x693D PUSH0 DUP4 ADD DUP8 PUSH2 0x6242 JUMP JUMPDEST PUSH2 0x694A PUSH1 0x20 DUP4 ADD DUP7 PUSH2 0x6242 JUMP JUMPDEST PUSH2 0x6957 PUSH1 0x40 DUP4 ADD DUP6 PUSH2 0x6242 JUMP JUMPDEST PUSH2 0x6964 PUSH1 0x60 DUP4 ADD DUP5 PUSH2 0x6242 JUMP JUMPDEST SWAP6 SWAP5 POP POP POP POP POP JUMP JUMPDEST PUSH0 DUP2 MLOAD SWAP1 POP SWAP2 SWAP1 POP JUMP JUMPDEST PUSH0 DUP3 DUP3 MSTORE PUSH1 0x20 DUP3 ADD SWAP1 POP SWAP3 SWAP2 POP POP JUMP JUMPDEST PUSH0 DUP2 SWAP1 POP PUSH1 0x20 DUP3 ADD SWAP1 POP SWAP2 SWAP1 POP JUMP JUMPDEST PUSH0 PUSH2 0x69A1 DUP4 DUP4 PUSH2 0x66E4 JUMP JUMPDEST PUSH1 0x20 DUP4 ADD SWAP1 POP SWAP3 SWAP2 POP POP JUMP JUMPDEST PUSH0 PUSH1 0x20 DUP3 ADD SWAP1 POP SWAP2 SWAP1 POP JUMP JUMPDEST PUSH0 PUSH2 0x69C3 DUP3 PUSH2 0x696D JUMP JUMPDEST PUSH2 0x69CD DUP2 DUP6 PUSH2 0x6977 JUMP JUMPDEST SWAP4 POP PUSH2 0x69D8 DUP4 PUSH2 0x6987 JUMP JUMPDEST DUP1 PUSH0 JUMPDEST DUP4 DUP2 LT ISZERO PUSH2 0x6A08 JUMPI DUP2 MLOAD PUSH2 0x69EF DUP9 DUP3 PUSH2 0x6996 JUMP JUMPDEST SWAP8 POP PUSH2 0x69FA DUP4 PUSH2 0x69AD JUMP JUMPDEST SWAP3 POP POP PUSH1 0x1 DUP2 ADD SWAP1 POP PUSH2 0x69DB JUMP JUMPDEST POP DUP6 SWAP4 POP POP POP POP SWAP3 SWAP2 POP POP JUMP JUMPDEST PUSH0 PUSH1 0x20 DUP3 ADD SWAP1 POP DUP2 DUP2 SUB PUSH0 DUP4 ADD MSTORE PUSH2 0x6A2D DUP2 DUP5 PUSH2 0x69B9 JUMP JUMPDEST SWAP1 POP SWAP3 SWAP2 POP POP JUMP JUMPDEST PUSH0 PUSH1 0x40 DUP3 ADD SWAP1 POP PUSH2 0x6A48 PUSH0 DUP4 ADD DUP6 PUSH2 0x6242 JUMP JUMPDEST PUSH2 0x6A55 PUSH1 0x20 DUP4 ADD DUP5 PUSH2 0x6242 JUMP JUMPDEST SWAP4 SWAP3 POP POP POP JUMP JUMPDEST PUSH0 DUP1 PUSH0 DUP1 PUSH1 0x80 DUP6 DUP8 SUB SLT ISZERO PUSH2 0x6A74 JUMPI PUSH2 0x6A73 PUSH2 0x626A JUMP JUMPDEST JUMPDEST PUSH0 PUSH2 0x6A81 DUP8 DUP3 DUP9 ADD PUSH2 0x6284 JUMP JUMPDEST SWAP5 POP POP PUSH1 0x20 PUSH2 0x6A92 DUP8 DUP3 DUP9 ADD PUSH2 0x6284 JUMP JUMPDEST SWAP4 POP POP PUSH1 0x40 PUSH2 0x6AA3 DUP8 DUP3 DUP9 ADD PUSH2 0x6284 JUMP JUMPDEST SWAP3 POP POP PUSH1 0x60 PUSH2 0x6AB4 DUP8 DUP3 DUP9 ADD PUSH2 0x6284 JUMP JUMPDEST SWAP2 POP POP SWAP3 SWAP6 SWAP2 SWAP5 POP SWAP3 POP JUMP JUMPDEST PUSH0 PUSH1 0x60 DUP3 ADD SWAP1 POP PUSH2 0x6AD3 PUSH0 DUP4 ADD DUP7 PUSH2 0x6242 JUMP JUMPDEST PUSH2 0x6AE0 PUSH1 0x20 DUP4 ADD DUP6 PUSH2 0x6242 JUMP JUMPDEST PUSH2 0x6AED PUSH1 0x40 DUP4 ADD DUP5 PUSH2 0x6242 JUMP JUMPDEST SWAP5 SWAP4 POP POP POP POP JUMP JUMPDEST PUSH0 PUSH1 0xFF DUP3 AND SWAP1 POP SWAP2 SWAP1 POP JUMP JUMPDEST PUSH2 0x6B0A DUP2 PUSH2 0x6AF5 JUMP JUMPDEST DUP2 EQ PUSH2 0x6B14 JUMPI PUSH0 DUP1 REVERT JUMPDEST POP JUMP JUMPDEST PUSH0 DUP2 CALLDATALOAD SWAP1 POP PUSH2 0x6B25 DUP2 PUSH2 0x6B01 JUMP JUMPDEST SWAP3 SWAP2 POP POP JUMP JUMPDEST PUSH0 DUP1 PUSH1 0x40 DUP4 DUP6 SUB SLT ISZERO PUSH2 0x6B41 JUMPI PUSH2 0x6B40 PUSH2 0x626A JUMP JUMPDEST JUMPDEST PUSH0 PUSH2 0x6B4E DUP6 DUP3 DUP7 ADD PUSH2 0x6284 JUMP JUMPDEST SWAP3 POP POP PUSH1 0x20 PUSH2 0x6B5F DUP6 DUP3 DUP7 ADD PUSH2 0x6B17 JUMP JUMPDEST SWAP2 POP POP SWAP3 POP SWAP3 SWAP1 POP JUMP JUMPDEST PUSH32 0x4E487B7100000000000000000000000000000000000000000000000000000000 PUSH0 MSTORE PUSH1 0x12 PUSH1 0x4 MSTORE PUSH1 0x24 PUSH0 REVERT JUMPDEST PUSH32 0x4E487B7100000000000000000000000000000000000000000000000000000000 PUSH0 MSTORE PUSH1 0x11 PUSH1 0x4 MSTORE PUSH1 0x24 PUSH0 REVERT JUMPDEST PUSH0 PUSH2 0x6BCD DUP3 PUSH2 0x6239 JUMP JUMPDEST SWAP2 POP PUSH2 0x6BD8 DUP4 PUSH2 0x6239 JUMP JUMPDEST SWAP3 POP DUP3 PUSH2 0x6BE8 JUMPI PUSH2 0x6BE7 PUSH2 0x6B69 JUMP JUMPDEST JUMPDEST DUP3 DUP3 DIV SWAP1 POP SWAP3 SWAP2 POP POP JUMP JUMPDEST PUSH32 0x4E6F74206F776E6572206F722074696D656C6F636B0000000000000000000000 PUSH0 DUP3 ADD MSTORE POP JUMP JUMPDEST PUSH0 PUSH2 0x6C27 PUSH1 0x15 DUP4 PUSH2 0x65ED JUMP JUMPDEST SWAP2 POP PUSH2 0x6C32 DUP3 PUSH2 0x6BF3 JUMP JUMPDEST PUSH1 0x20 DUP3 ADD SWAP1 POP SWAP2 SWAP1 POP JUMP JUMPDEST PUSH0 PUSH1 0x20 DUP3 ADD SWAP1 POP DUP2 DUP2 SUB PUSH0 DUP4 ADD MSTORE PUSH2 0x6C54 DUP2 PUSH2 0x6C1B JUMP JUMPDEST SWAP1 POP SWAP2 SWAP1 POP JUMP JUMPDEST PUSH32 0x4E487B7100000000000000000000000000000000000000000000000000000000 PUSH0 MSTORE PUSH1 0x32 PUSH1 0x4 MSTORE PUSH1 0x24 PUSH0 REVERT JUMPDEST PUSH0 PUSH1 0xA0 DUP3 ADD SWAP1 POP PUSH2 0x6C9B PUSH0 DUP4 ADD DUP9 PUSH2 0x6242 JUMP JUMPDEST PUSH2 0x6CA8 PUSH1 0x20 DUP4 ADD DUP8 PUSH2 0x6242 JUMP JUMPDEST PUSH2 0x6CB5 PUSH1 0x40 DUP4 ADD DUP7 PUSH2 0x6242 JUMP JUMPDEST PUSH2 0x6CC2 PUSH1 0x60 DUP4 ADD DUP6 PUSH2 0x6242 JUMP JUMPDEST PUSH2 0x6CCF PUSH1 0x80 DUP4 ADD DUP5 PUSH2 0x6242 JUMP JUMPDEST SWAP7 SWAP6 POP POP POP POP POP POP JUMP JUMPDEST PUSH0 DUP2 MLOAD SWAP1 POP PUSH2 0x6CE7 DUP2 PUSH2 0x6B01 JUMP JUMPDEST SWAP3 SWAP2 POP POP JUMP JUMPDEST PUSH0 PUSH1 0x20 DUP3 DUP5 SUB SLT ISZERO PUSH2 0x6D02 JUMPI PUSH2 0x6D01 PUSH2 0x626A JUMP JUMPDEST JUMPDEST PUSH0 PUSH2 0x6D0F DUP5 DUP3 DUP6 ADD PUSH2 0x6CD9 JUMP JUMPDEST SWAP2 POP POP SWAP3 SWAP2 POP POP JUMP JUMPDEST PUSH0 PUSH1 0x40 DUP3 ADD SWAP1 POP PUSH2 0x6D2B PUSH0 DUP4 ADD DUP6 PUSH2 0x656B JUMP JUMPDEST PUSH2 0x6D38 PUSH1 0x20 DUP4 ADD DUP5 PUSH2 0x656B JUMP JUMPDEST SWAP4 SWAP3 POP POP POP JUMP JUMPDEST PUSH0 PUSH10 0xFFFFFFFFFFFFFFFFFFFF DUP3 AND SWAP1 POP SWAP2 SWAP1 POP JUMP JUMPDEST PUSH2 0x6D5D DUP2 PUSH2 0x6D3F JUMP JUMPDEST DUP2 EQ PUSH2 0x6D67 JUMPI PUSH0 DUP1 REVERT JUMPDEST POP JUMP JUMPDEST PUSH0 DUP2 MLOAD SWAP1 POP PUSH2 0x6D78 DUP2 PUSH2 0x6D54 JUMP JUMPDEST SWAP3 SWAP2 POP POP JUMP JUMPDEST PUSH0 DUP2 SWAP1 POP SWAP2 SWAP1 POP JUMP JUMPDEST PUSH2 0x6D90 DUP2 PUSH2 0x6D7E JUMP JUMPDEST DUP2 EQ PUSH2 0x6D9A JUMPI PUSH0 DUP1 REVERT JUMPDEST POP JUMP JUMPDEST PUSH0 DUP2 MLOAD SWAP1 POP PUSH2 0x6DAB DUP2 PUSH2 0x6D87 JUMP JUMPDEST SWAP3 SWAP2 POP POP JUMP JUMPDEST PUSH0 DUP2 MLOAD SWAP1 POP PUSH2 0x6DBF DUP2 PUSH2 0x626E JUMP JUMPDEST SWAP3 SWAP2 POP POP JUMP JUMPDEST PUSH0 DUP1 PUSH0 DUP1 PUSH0 PUSH1 0xA0 DUP7 DUP9 SUB SLT ISZERO PUSH2 0x6DDE JUMPI PUSH2 0x6DDD PUSH2 0x626A JUMP JUMPDEST JUMPDEST PUSH0 PUSH2 0x6DEB DUP9 DUP3 DUP10 ADD PUSH2 0x6D6A JUMP JUMPDEST SWAP6 POP POP PUSH1 0x20 PUSH2 0x6DFC DUP9 DUP3 DUP10 ADD PUSH2 0x6D9D JUMP JUMPDEST SWAP5 POP POP PUSH1 0x40 PUSH2 0x6E0D DUP9 DUP3 DUP10 ADD PUSH2 0x6DB1 JUMP JUMPDEST SWAP4 POP POP PUSH1 0x60 PUSH2 0x6E1E DUP9 DUP3 DUP10 ADD PUSH2 0x6DB1 JUMP JUMPDEST SWAP3 POP POP PUSH1 0x80 PUSH2 0x6E2F DUP9 DUP3 DUP10 ADD PUSH2 0x6D6A JUMP JUMPDEST SWAP2 POP POP SWAP3 SWAP6 POP SWAP3 SWAP6 SWAP1 SWAP4 POP JUMP JUMPDEST PUSH32 0x496E76616C696420636861696E6C696E6B207072696365000000000000000000 PUSH0 DUP3 ADD MSTORE POP JUMP JUMPDEST PUSH0 PUSH2 0x6E70 PUSH1 0x17 DUP4 PUSH2 0x65ED JUMP JUMPDEST SWAP2 POP PUSH2 0x6E7B DUP3 PUSH2 0x6E3C JUMP JUMPDEST PUSH1 0x20 DUP3 ADD SWAP1 POP SWAP2 SWAP1 POP JUMP JUMPDEST PUSH0 PUSH1 0x20 DUP3 ADD SWAP1 POP DUP2 DUP2 SUB PUSH0 DUP4 ADD MSTORE PUSH2 0x6E9D DUP2 PUSH2 0x6E64 JUMP JUMPDEST SWAP1 POP SWAP2 SWAP1 POP JUMP JUMPDEST PUSH0 DUP2 PUSH1 0x1 SHR SWAP1 POP SWAP2 SWAP1 POP JUMP JUMPDEST PUSH0 DUP1 DUP3 SWAP2 POP DUP4 SWAP1 POP JUMPDEST PUSH1 0x1 DUP6 GT ISZERO PUSH2 0x6EF9 JUMPI DUP1 DUP7 DIV DUP2 GT ISZERO PUSH2 0x6ED5 JUMPI PUSH2 0x6ED4 PUSH2 0x6B96 JUMP JUMPDEST JUMPDEST PUSH1 0x1 DUP6 AND ISZERO PUSH2 0x6EE4 JUMPI DUP1 DUP3 MUL SWAP2 POP JUMPDEST DUP1 DUP2 MUL SWAP1 POP PUSH2 0x6EF2 DUP6 PUSH2 0x6EA4 JUMP JUMPDEST SWAP5 POP PUSH2 0x6EB9 JUMP JUMPDEST SWAP5 POP SWAP5 SWAP3 POP POP POP JUMP JUMPDEST PUSH0 DUP3 PUSH2 0x6F11 JUMPI PUSH1 0x1 SWAP1 POP PUSH2 0x6FCC JUMP JUMPDEST DUP2 PUSH2 0x6F1E JUMPI PUSH0 SWAP1 POP PUSH2 0x6FCC JUMP JUMPDEST DUP2 PUSH1 0x1 DUP2 EQ PUSH2 0x6F34 JUMPI PUSH1 0x2 DUP2 EQ PUSH2 0x6F3E JUMPI PUSH2 0x6F6D JUMP JUMPDEST PUSH1 0x1 SWAP2 POP POP PUSH2 0x6FCC JUMP JUMPDEST PUSH1 0xFF DUP5 GT ISZERO PUSH2 0x6F50 JUMPI PUSH2 0x6F4F PUSH2 0x6B96 JUMP JUMPDEST JUMPDEST DUP4 PUSH1 0x2 EXP SWAP2 POP DUP5 DUP3 GT ISZERO PUSH2 0x6F67 JUMPI PUSH2 0x6F66 PUSH2 0x6B96 JUMP JUMPDEST JUMPDEST POP PUSH2 0x6FCC JUMP JUMPDEST POP PUSH1 0x20 DUP4 LT PUSH2 0x133 DUP4 LT AND PUSH1 0x4E DUP5 LT PUSH1 0xB DUP5 LT AND OR ISZERO PUSH2 0x6FA2 JUMPI DUP3 DUP3 EXP SWAP1 POP DUP4 DUP2 GT ISZERO PUSH2 0x6F9D JUMPI PUSH2 0x6F9C PUSH2 0x6B96 JUMP JUMPDEST JUMPDEST PUSH2 0x6FCC JUMP JUMPDEST PUSH2 0x6FAF DUP5 DUP5 DUP5 PUSH1 0x1 PUSH2 0x6EB0 JUMP JUMPDEST SWAP3 POP SWAP1 POP DUP2 DUP5 DIV DUP2 GT ISZERO PUSH2 0x6FC6 JUMPI PUSH2 0x6FC5 PUSH2 0x6B96 JUMP JUMPDEST JUMPDEST DUP2 DUP2 MUL SWAP1 POP JUMPDEST SWAP4 SWAP3 POP POP POP JUMP JUMPDEST PUSH0 PUSH2 0x6FDD DUP3 PUSH2 0x6239 JUMP JUMPDEST SWAP2 POP PUSH2 0x6FE8 DUP4 PUSH2 0x6239 JUMP JUMPDEST SWAP3 POP PUSH2 0x7015 PUSH32 0xFFFFFFFFFFFFFFFFFFFFFFFFFFFFFFFFFFFFFFFFFFFFFFFFFFFFFFFFFFFFFFFF DUP5 DUP5 PUSH2 0x6F02 JUMP JUMPDEST SWAP1 POP SWAP3 SWAP2 POP POP JUMP JUMPDEST PUSH32 0x4F6E6C792074686520636F6E7472616374206F776E6572206D61792070657266 PUSH0 DUP3 ADD MSTORE PUSH32 0x6F726D207468697320616374696F6E0000000000000000000000000000000000 PUSH1 0x20 DUP3 ADD MSTORE POP JUMP JUMPDEST PUSH0 PUSH2 0x7077 PUSH1 0x2F DUP4 PUSH2 0x65ED JUMP JUMPDEST SWAP2 POP PUSH2 0x7082 DUP3 PUSH2 0x701D JUMP JUMPDEST PUSH1 0x40 DUP3 ADD SWAP1 POP SWAP2 SWAP1 POP JUMP JUMPDEST PUSH0 PUSH1 0x20 DUP3 ADD SWAP1 POP DUP2 DUP2 SUB PUSH0 DUP4 ADD MSTORE PUSH2 0x70A4 DUP2 PUSH2 0x706B JUMP JUMPDEST SWAP1 POP SWAP2 SWAP1 POP JUMP JUMPDEST PUSH0 PUSH2 0x70B5 DUP3 PUSH2 0x6239 JUMP JUMPDEST SWAP2 POP PUSH2 0x70C0 DUP4 PUSH2 0x6239 JUMP JUMPDEST SWAP3 POP DUP3 DUP3 ADD SWAP1 POP DUP1 DUP3 GT ISZERO PUSH2 0x70D8 JUMPI PUSH2 0x70D7 PUSH2 0x6B96 JUMP JUMPDEST JUMPDEST SWAP3 SWAP2 POP POP JUMP JUMPDEST PUSH0 PUSH2 0x70E8 DUP3 PUSH2 0x6239 JUMP JUMPDEST SWAP2 POP PUSH32 0xFFFFFFFFFFFFFFFFFFFFFFFFFFFFFFFFFFFFFFFFFFFFFFFFFFFFFFFFFFFFFFFF DUP3 SUB PUSH2 0x711A JUMPI PUSH2 0x7119 PUSH2 0x6B96 JUMP JUMPDEST JUMPDEST PUSH1 0x1 DUP3 ADD SWAP1 POP SWAP2 SWAP1 POP JUMP JUMPDEST PUSH0 PUSH1 0x20 DUP3 DUP5 SUB SLT ISZERO PUSH2 0x713A JUMPI PUSH2 0x7139 PUSH2 0x626A JUMP JUMPDEST JUMPDEST PUSH0 PUSH2 0x7147 DUP5 DUP3 DUP6 ADD PUSH2 0x6DB1 JUMP JUMPDEST SWAP2 POP POP SWAP3 SWAP2 POP POP JUMP JUMPDEST PUSH32 0x436F6C6C61746572616C2064697361626C656400000000000000000000000000 PUSH0 DUP3 ADD MSTORE POP JUMP JUMPDEST PUSH0 PUSH2 0x7184 PUSH1 0x13 DUP4 PUSH2 0x65ED JUMP JUMPDEST SWAP2 POP PUSH2 0x718F DUP3 PUSH2 0x7150 JUMP JUMPDEST PUSH1 0x20 DUP3 ADD SWAP1 POP SWAP2 SWAP1 POP JUMP JUMPDEST PUSH0 PUSH1 0x20 DUP3 ADD SWAP1 POP DUP2 DUP2 SUB PUSH0 DUP4 ADD MSTORE PUSH2 0x71B1 DUP2 PUSH2 0x7178 JUMP JUMPDEST SWAP1 POP SWAP2 SWAP1 POP JUMP JUMPDEST PUSH32 0x5265636F6C6C6174206973207061757365640000000000000000000000000000 PUSH0 DUP3 ADD MSTORE POP JUMP JUMPDEST PUSH0 PUSH2 0x71EC PUSH1 0x12 DUP4 PUSH2 0x65ED JUMP JUMPDEST SWAP2 POP PUSH2 0x71F7 DUP3 PUSH2 0x71B8 JUMP JUMPDEST PUSH1 0x20 DUP3 ADD SWAP1 POP SWAP2 SWAP1 POP JUMP JUMPDEST PUSH0 PUSH1 0x20 DUP3 ADD SWAP1 POP DUP2 DUP2 SUB PUSH0 DUP4 ADD MSTORE PUSH2 0x7219 DUP2 PUSH2 0x71E0 JUMP JUMPDEST SWAP1 POP SWAP2 SWAP1 POP JUMP JUMPDEST PUSH0 PUSH2 0x722A DUP3 PUSH2 0x6239 JUMP JUMPDEST SWAP2 POP PUSH2 0x7235 DUP4 PUSH2 0x6239 JUMP JUMPDEST SWAP3 POP DUP3 DUP3 MUL PUSH2 0x7243 DUP2 PUSH2 0x6239 JUMP JUMPDEST SWAP2 POP DUP3 DUP3 DIV DUP5 EQ DUP4 ISZERO OR PUSH2 0x725A JUMPI PUSH2 0x7259 PUSH2 0x6B96 JUMP JUMPDEST JUMPDEST POP SWAP3 SWAP2 POP POP JUMP JUMPDEST PUSH32 0x496E7375662046585320417661696C20466F7220524354000000000000000000 PUSH0 DUP3 ADD MSTORE POP JUMP JUMPDEST PUSH0 PUSH2 0x7295 PUSH1 0x17 DUP4 PUSH2 0x65ED JUMP JUMPDEST SWAP2 POP PUSH2 0x72A0 DUP3 PUSH2 0x7261 JUMP JUMPDEST PUSH1 0x20 DUP3 ADD SWAP1 POP SWAP2 SWAP1 POP JUMP JUMPDEST PUSH0 PUSH1 0x20 DUP3 ADD SWAP1 POP DUP2 DUP2 SUB PUSH0 DUP4 ADD MSTORE PUSH2 0x72C2 DUP2 PUSH2 0x7289 JUMP JUMPDEST SWAP1 POP SWAP2 SWAP1 POP JUMP JUMPDEST PUSH32 0x46585320736C6970706167650000000000000000000000000000000000000000 PUSH0 DUP3 ADD MSTORE POP JUMP JUMPDEST PUSH0 PUSH2 0x72FD PUSH1 0xC DUP4 PUSH2 0x65ED JUMP JUMPDEST SWAP2 POP PUSH2 0x7308 DUP3 PUSH2 0x72C9 JUMP JUMPDEST PUSH1 0x20 DUP3 ADD SWAP1 POP SWAP2 SWAP1 POP JUMP JUMPDEST PUSH0 PUSH1 0x20 DUP3 ADD SWAP1 POP DUP2 DUP2 SUB PUSH0 DUP4 ADD MSTORE PUSH2 0x732A DUP2 PUSH2 0x72F1 JUMP JUMPDEST SWAP1 POP SWAP2 SWAP1 POP JUMP JUMPDEST PUSH32 0x506F6F6C206365696C696E670000000000000000000000000000000000000000 PUSH0 DUP3 ADD MSTORE POP JUMP JUMPDEST PUSH0 PUSH2 0x7365 PUSH1 0xC DUP4 PUSH2 0x65ED JUMP JUMPDEST SWAP2 POP PUSH2 0x7370 DUP3 PUSH2 0x7331 JUMP JUMPDEST PUSH1 0x20 DUP3 ADD SWAP1 POP SWAP2 SWAP1 POP JUMP JUMPDEST PUSH0 PUSH1 0x20 DUP3 ADD SWAP1 POP DUP2 DUP2 SUB PUSH0 DUP4 ADD MSTORE PUSH2 0x7392 DUP2 PUSH2 0x7359 JUMP JUMPDEST SWAP1 POP SWAP2 SWAP1 POP JUMP JUMPDEST PUSH0 PUSH1 0x40 DUP3 ADD SWAP1 POP PUSH2 0x73AC PUSH0 DUP4 ADD DUP6 PUSH2 0x656B JUMP JUMPDEST PUSH2 0x73B9 PUSH1 0x20 DUP4 ADD DUP5 PUSH2 0x6242 JUMP JUMPDEST SWAP4 SWAP3 POP POP POP JUMP JUMPDEST PUSH0 DUP2 MLOAD SWAP1 POP PUSH2 0x73CE DUP2 PUSH2 0x6877 JUMP JUMPDEST SWAP3 SWAP2 POP POP JUMP JUMPDEST PUSH0 PUSH1 0x20 DUP3 DUP5 SUB SLT ISZERO PUSH2 0x73E9 JUMPI PUSH2 0x73E8 PUSH2 0x626A JUMP JUMPDEST JUMPDEST PUSH0 PUSH2 0x73F6 DUP5 DUP3 DUP6 ADD PUSH2 0x73C0 JUMP JUMPDEST SWAP2 POP POP SWAP3 SWAP2 POP POP JUMP JUMPDEST PUSH32 0x4E487B7100000000000000000000000000000000000000000000000000000000 PUSH0 MSTORE PUSH1 0x22 PUSH1 0x4 MSTORE PUSH1 0x24 PUSH0 REVERT JUMPDEST PUSH0 PUSH1 0x2 DUP3 DIV SWAP1 POP PUSH1 0x1 DUP3 AND DUP1 PUSH2 0x7443 JUMPI PUSH1 0x7F DUP3 AND SWAP2 POP JUMPDEST PUSH1 0x20 DUP3 LT DUP2 SUB PUSH2 0x7456 JUMPI PUSH2 0x7455 PUSH2 0x73FF JUMP JUMPDEST JUMPDEST POP SWAP2 SWAP1 POP JUMP JUMPDEST PUSH32 0x496E76616C696420636F6C6C61746572616C0000000000000000000000000000 PUSH0 DUP3 ADD MSTORE POP JUMP JUMPDEST PUSH0 PUSH2 0x7490 PUSH1 0x12 DUP4 PUSH2 0x65ED JUMP JUMPDEST SWAP2 POP PUSH2 0x749B DUP3 PUSH2 0x745C JUMP JUMPDEST PUSH1 0x20 DUP3 ADD SWAP1 POP SWAP2 SWAP1 POP JUMP JUMPDEST PUSH0 PUSH1 0x20 DUP3 ADD SWAP1 POP DUP2 DUP2 SUB PUSH0 DUP4 ADD MSTORE PUSH2 0x74BD DUP2 PUSH2 0x7484 JUMP JUMPDEST SWAP1 POP SWAP2 SWAP1 POP JUMP JUMPDEST PUSH32 0x596F75206D757374206265206E6F6D696E61746564206265666F726520796F75 PUSH0 DUP3 ADD MSTORE PUSH32 0x2063616E20616363657074206F776E6572736869700000000000000000000000 PUSH1 0x20 DUP3 ADD MSTORE POP JUMP JUMPDEST PUSH0 PUSH2 0x751E PUSH1 0x35 DUP4 PUSH2 0x65ED JUMP JUMPDEST SWAP2 POP PUSH2 0x7529 DUP3 PUSH2 0x74C4 JUMP JUMPDEST PUSH1 0x40 DUP3 ADD SWAP1 POP SWAP2 SWAP1 POP JUMP JUMPDEST PUSH0 PUSH1 0x20 DUP3 ADD SWAP1 POP DUP2 DUP2 SUB PUSH0 DUP4 ADD MSTORE PUSH2 0x754B DUP2 PUSH2 0x7512 JUMP JUMPDEST SWAP1 POP SWAP2 SWAP1 POP JUMP JUMPDEST PUSH32 0x4D696E74696E6720697320706175736564000000000000000000000000000000 PUSH0 DUP3 ADD MSTORE POP JUMP JUMPDEST PUSH0 PUSH2 0x7586 PUSH1 0x11 DUP4 PUSH2 0x65ED JUMP JUMPDEST SWAP2 POP PUSH2 0x7591 DUP3 PUSH2 0x7552 JUMP JUMPDEST PUSH1 0x20 DUP3 ADD SWAP1 POP SWAP2 SWAP1 POP JUMP JUMPDEST PUSH0 PUSH1 0x20 DUP3 ADD SWAP1 POP DUP2 DUP2 SUB PUSH0 DUP4 ADD MSTORE PUSH2 0x75B3 DUP2 PUSH2 0x757A JUMP JUMPDEST SWAP1 POP SWAP2 SWAP1 POP JUMP JUMPDEST PUSH32 0x4672617820707269636520746F6F206C6F770000000000000000000000000000 PUSH0 DUP3 ADD MSTORE POP JUMP JUMPDEST PUSH0 PUSH2 0x75EE PUSH1 0x12 DUP4 PUSH2 0x65ED JUMP JUMPDEST SWAP2 POP PUSH2 0x75F9 DUP3 PUSH2 0x75BA JUMP JUMPDEST PUSH1 0x20 DUP3 ADD SWAP1 POP SWAP2 SWAP1 POP JUMP JUMPDEST PUSH0 PUSH1 0x20 DUP3 ADD SWAP1 POP DUP2 DUP2 SUB PUSH0 DUP4 ADD MSTORE PUSH2 0x761B DUP2 PUSH2 0x75E2 JUMP JUMPDEST SWAP1 POP SWAP2 SWAP1 POP JUMP JUMPDEST PUSH32 0x4652415820736C69707061676500000000000000000000000000000000000000 PUSH0 DUP3 ADD MSTORE POP JUMP JUMPDEST PUSH0 PUSH2 0x7656 PUSH1 0xD DUP4 PUSH2 0x65ED JUMP JUMPDEST SWAP2 POP PUSH2 0x7661 DUP3 PUSH2 0x7622 JUMP JUMPDEST PUSH1 0x20 DUP3 ADD SWAP1 POP SWAP2 SWAP1 POP JUMP JUMPDEST PUSH0 PUSH1 0x20 DUP3 ADD SWAP1 POP DUP2 DUP2 SUB PUSH0 DUP4 ADD MSTORE PUSH2 0x7683 DUP2 PUSH2 0x764A JUMP JUMPDEST SWAP1 POP SWAP2 SWAP1 POP JUMP JUMPDEST PUSH32 0x436F6C6C617420736C6970706167650000000000000000000000000000000000 PUSH0 DUP3 ADD MSTORE POP JUMP JUMPDEST PUSH0 PUSH2 0x76BE PUSH1 0xF DUP4 PUSH2 0x65ED JUMP JUMPDEST SWAP2 POP PUSH2 0x76C9 DUP3 PUSH2 0x768A JUMP JUMPDEST PUSH1 0x20 DUP3 ADD SWAP1 POP SWAP2 SWAP1 POP JUMP JUMPDEST PUSH0 PUSH1 0x20 DUP3 ADD SWAP1 POP DUP2 DUP2 SUB PUSH0 DUP4 ADD MSTORE PUSH2 0x76EB DUP2 PUSH2 0x76B2 JUMP JUMPDEST SWAP1 POP SWAP2 SWAP1 POP JUMP JUMPDEST PUSH0 PUSH1 0x60 DUP3 ADD SWAP1 POP PUSH2 0x7705 PUSH0 DUP4 ADD DUP7 PUSH2 0x656B JUMP JUMPDEST PUSH2 0x7712 PUSH1 0x20 DUP4 ADD DUP6 PUSH2 0x656B JUMP JUMPDEST PUSH2 0x771F PUSH1 0x40 DUP4 ADD DUP5 PUSH2 0x6242 JUMP JUMPDEST SWAP5 SWAP4 POP POP POP POP JUMP JUMPDEST PUSH32 0x4E6F7420616E20414D4F204D696E746572000000000000000000000000000000 PUSH0 DUP3 ADD MSTORE POP JUMP JUMPDEST PUSH0 PUSH2 0x775B PUSH1 0x11 DUP4 PUSH2 0x65ED JUMP JUMPDEST SWAP2 POP PUSH2 0x7766 DUP3 PUSH2 0x7727 JUMP JUMPDEST PUSH1 0x20 DUP3 ADD SWAP1 POP SWAP2 SWAP1 POP JUMP JUMPDEST PUSH0 PUSH1 0x20 DUP3 ADD SWAP1 POP DUP2 DUP2 SUB PUSH0 DUP4 ADD MSTORE PUSH2 0x7788 DUP2 PUSH2 0x774F JUMP JUMPDEST SWAP1 POP SWAP2 SWAP1 POP JUMP JUMPDEST PUSH32 0x426F72726F77696E672069732070617573656400000000000000000000000000 PUSH0 DUP3 ADD MSTORE POP JUMP JUMPDEST PUSH0 PUSH2 0x77C3 PUSH1 0x13 DUP4 PUSH2 0x65ED JUMP JUMPDEST SWAP2 POP PUSH2 0x77CE DUP3 PUSH2 0x778F JUMP JUMPDEST PUSH1 0x20 DUP3 ADD SWAP1 POP SWAP2 SWAP1 POP JUMP JUMPDEST PUSH0 PUSH1 0x20 DUP3 ADD SWAP1 POP DUP2 DUP2 SUB PUSH0 DUP4 ADD MSTORE PUSH2 0x77F0 DUP2 PUSH2 0x77B7 JUMP JUMPDEST SWAP1 POP SWAP2 SWAP1 POP JUMP JUMPDEST PUSH32 0x52656465656D696E672069732070617573656400000000000000000000000000 PUSH0 DUP3 ADD MSTORE POP JUMP JUMPDEST PUSH0 PUSH2 0x782B PUSH1 0x13 DUP4 PUSH2 0x65ED JUMP JUMPDEST SWAP2 POP PUSH2 0x7836 DUP3 PUSH2 0x77F7 JUMP JUMPDEST PUSH1 0x20 DUP3 ADD SWAP1 POP SWAP2 SWAP1 POP JUMP JUMPDEST PUSH0 PUSH1 0x20 DUP3 ADD SWAP1 POP DUP2 DUP2 SUB PUSH0 DUP4 ADD MSTORE PUSH2 0x7858 DUP2 PUSH2 0x781F JUMP JUMPDEST SWAP1 POP SWAP2 SWAP1 POP JUMP JUMPDEST PUSH32 0x546F6F20736F6F6E000000000000000000000000000000000000000000000000 PUSH0 DUP3 ADD MSTORE POP JUMP JUMPDEST PUSH0 PUSH2 0x7893 PUSH1 0x8 DUP4 PUSH2 0x65ED JUMP JUMPDEST SWAP2 POP PUSH2 0x789E DUP3 PUSH2 0x785F JUMP JUMPDEST PUSH1 0x20 DUP3 ADD SWAP1 POP SWAP2 SWAP1 POP JUMP JUMPDEST PUSH0 PUSH1 0x20 DUP3 ADD SWAP1 POP DUP2 DUP2 SUB PUSH0 DUP4 ADD MSTORE PUSH2 0x78C0 DUP2 PUSH2 0x7887 JUMP JUMPDEST SWAP1 POP SWAP2 SWAP1 POP JUMP JUMPDEST PUSH0 PUSH1 0x40 DUP3 ADD SWAP1 POP PUSH2 0x78DA PUSH0 DUP4 ADD DUP6 PUSH2 0x6242 JUMP JUMPDEST PUSH2 0x78E7 PUSH1 0x20 DUP4 ADD DUP5 PUSH2 0x6543 JUMP JUMPDEST SWAP4 SWAP3 POP POP POP JUMP JUMPDEST PUSH32 0x4672617820707269636520746F6F206869676800000000000000000000000000 PUSH0 DUP3 ADD MSTORE POP JUMP JUMPDEST PUSH0 PUSH2 0x7922 PUSH1 0x13 DUP4 PUSH2 0x65ED JUMP JUMPDEST SWAP2 POP PUSH2 0x792D DUP3 PUSH2 0x78EE JUMP JUMPDEST PUSH1 0x20 DUP3 ADD SWAP1 POP SWAP2 SWAP1 POP JUMP JUMPDEST PUSH0 PUSH1 0x20 DUP3 ADD SWAP1 POP DUP2 DUP2 SUB PUSH0 DUP4 ADD MSTORE PUSH2 0x794F DUP2 PUSH2 0x7916 JUMP JUMPDEST SWAP1 POP SWAP2 SWAP1 POP JUMP JUMPDEST PUSH32 0x496E73756666696369656E7420706F6F6C20636F6C6C61746572616C00000000 PUSH0 DUP3 ADD MSTORE POP JUMP JUMPDEST PUSH0 PUSH2 0x798A PUSH1 0x1C DUP4 PUSH2 0x65ED JUMP JUMPDEST SWAP2 POP PUSH2 0x7995 DUP3 PUSH2 0x7956 JUMP JUMPDEST PUSH1 0x20 DUP3 ADD SWAP1 POP SWAP2 SWAP1 POP JUMP JUMPDEST PUSH0 PUSH1 0x20 DUP3 ADD SWAP1 POP DUP2 DUP2 SUB PUSH0 DUP4 ADD MSTORE PUSH2 0x79B7 DUP2 PUSH2 0x797E JUMP JUMPDEST SWAP1 POP SWAP2 SWAP1 POP JUMP JUMPDEST PUSH32 0x436F6C6C61746572616C20736C69707061676500000000000000000000000000 PUSH0 DUP3 ADD MSTORE POP JUMP JUMPDEST PUSH0 PUSH2 0x79F2 PUSH1 0x13 DUP4 PUSH2 0x65ED JUMP JUMPDEST SWAP2 POP PUSH2 0x79FD DUP3 PUSH2 0x79BE JUMP JUMPDEST PUSH1 0x20 DUP3 ADD SWAP1 POP SWAP2 SWAP1 POP JUMP JUMPDEST PUSH0 PUSH1 0x20 DUP3 ADD SWAP1 POP DUP2 DUP2 SUB PUSH0 DUP4 ADD MSTORE PUSH2 0x7A1F DUP2 PUSH2 0x79E6 JUMP JUMPDEST SWAP1 POP SWAP2 SWAP1 POP JUMP JUMPDEST PUSH32 0x4E6F74206F776E65722C20746C636B2C206F7220637573746400000000000000 PUSH0 DUP3 ADD MSTORE POP JUMP JUMPDEST PUSH0 PUSH2 0x7A5A PUSH1 0x19 DUP4 PUSH2 0x65ED JUMP JUMPDEST SWAP2 POP PUSH2 0x7A65 DUP3 PUSH2 0x7A26 JUMP JUMPDEST PUSH1 0x20 DUP3 ADD SWAP1 POP SWAP2 SWAP1 POP JUMP JUMPDEST PUSH0 PUSH1 0x20 DUP3 ADD SWAP1 POP DUP2 DUP2 SUB PUSH0 DUP4 ADD MSTORE PUSH2 0x7A87 DUP2 PUSH2 0x7A4E JUMP JUMPDEST SWAP1 POP SWAP2 SWAP1 POP JUMP JUMPDEST PUSH2 0x7A97 DUP2 PUSH2 0x6AF5 JUMP JUMPDEST DUP3 MSTORE POP POP JUMP JUMPDEST PUSH0 PUSH1 0x40 DUP3 ADD SWAP1 POP PUSH2 0x7AB0 PUSH0 DUP4 ADD DUP6 PUSH2 0x6242 JUMP JUMPDEST PUSH2 0x7ABD PUSH1 0x20 DUP4 ADD DUP5 PUSH2 0x7A8E JUMP JUMPDEST SWAP4 SWAP3 POP POP POP JUMP JUMPDEST PUSH32 0x4275796261636B20697320706175736564000000000000000000000000000000 PUSH0 DUP3 ADD MSTORE POP JUMP JUMPDEST PUSH0 PUSH2 0x7AF8 PUSH1 0x11 DUP4 PUSH2 0x65ED JUMP JUMPDEST SWAP2 POP PUSH2 0x7B03 DUP3 PUSH2 0x7AC4 JUMP JUMPDEST PUSH1 0x20 DUP3 ADD SWAP1 POP SWAP2 SWAP1 POP JUMP JUMPDEST PUSH0 PUSH1 0x20 DUP3 ADD SWAP1 POP DUP2 DUP2 SUB PUSH0 DUP4 ADD MSTORE PUSH2 0x7B25 DUP2 PUSH2 0x7AEC JUMP JUMPDEST SWAP1 POP SWAP2 SWAP1 POP JUMP JUMPDEST PUSH32 0x496E73756620436F6C6C617420417661696C20466F722042424B000000000000 PUSH0 DUP3 ADD MSTORE POP JUMP JUMPDEST PUSH0 PUSH2 0x7B60 PUSH1 0x1A DUP4 PUSH2 0x65ED JUMP JUMPDEST SWAP2 POP PUSH2 0x7B6B DUP3 PUSH2 0x7B2C JUMP JUMPDEST PUSH1 0x20 DUP3 ADD SWAP1 POP SWAP2 SWAP1 POP JUMP JUMPDEST PUSH0 PUSH1 0x20 DUP3 ADD SWAP1 POP DUP2 DUP2 SUB PUSH0 DUP4 ADD MSTORE PUSH2 0x7B8D DUP2 PUSH2 0x7B54 JUMP JUMPDEST SWAP1 POP SWAP2 SWAP1 POP JUMP JUMPDEST PUSH32 0x5A65726F20616464726573732064657465637465640000000000000000000000 PUSH0 DUP3 ADD MSTORE POP JUMP JUMPDEST PUSH0 PUSH2 0x7BC8 PUSH1 0x15 DUP4 PUSH2 0x65ED JUMP JUMPDEST SWAP2 POP PUSH2 0x7BD3 DUP3 PUSH2 0x7B94 JUMP JUMPDEST PUSH1 0x20 DUP3 ADD SWAP1 POP SWAP2 SWAP1 POP JUMP JUMPDEST PUSH0 PUSH1 0x20 DUP3 ADD SWAP1 POP DUP2 DUP2 SUB PUSH0 DUP4 ADD MSTORE PUSH2 0x7BF5 DUP2 PUSH2 0x7BBC JUMP JUMPDEST SWAP1 POP SWAP2 SWAP1 POP JUMP JUMPDEST PUSH32 0x496E76616C696420414D4F000000000000000000000000000000000000000000 PUSH0 DUP3 ADD MSTORE POP JUMP JUMPDEST PUSH0 PUSH2 0x7C30 PUSH1 0xB DUP4 PUSH2 0x65ED JUMP JUMPDEST SWAP2 POP PUSH2 0x7C3B DUP3 PUSH2 0x7BFC JUMP JUMPDEST PUSH1 0x20 DUP3 ADD SWAP1 POP SWAP2 SWAP1 POP JUMP JUMPDEST PUSH0 PUSH1 0x20 DUP3 ADD SWAP1 POP DUP2 DUP2 SUB PUSH0 DUP4 ADD MSTORE PUSH2 0x7C5D DUP2 PUSH2 0x7C24 JUMP JUMPDEST SWAP1 POP SWAP2 SWAP1 POP JUMP JUMPDEST PUSH32 0x536166654D6174683A206D756C7469706C69636174696F6E206F766572666C6F PUSH0 DUP3 ADD MSTORE PUSH32 0x7700000000000000000000000000000000000000000000000000000000000000 PUSH1 0x20 DUP3 ADD MSTORE POP JUMP JUMPDEST PUSH0 PUSH2 0x7CBE PUSH1 0x21 DUP4 PUSH2 0x65ED JUMP JUMPDEST SWAP2 POP PUSH2 0x7CC9 DUP3 PUSH2 0x7C64 JUMP JUMPDEST PUSH1 0x40 DUP3 ADD SWAP1 POP SWAP2 SWAP1 POP JUMP JUMPDEST PUSH0 PUSH1 0x20 DUP3 ADD SWAP1 POP DUP2 DUP2 SUB PUSH0 DUP4 ADD MSTORE PUSH2 0x7CEB DUP2 PUSH2 0x7CB2 JUMP JUMPDEST SWAP1 POP SWAP2 SWAP1 POP JUMP JUMPDEST PUSH32 0x536166654D6174683A206164646974696F6E206F766572666C6F770000000000 PUSH0 DUP3 ADD MSTORE POP JUMP JUMPDEST PUSH0 PUSH2 0x7D26 PUSH1 0x1B DUP4 PUSH2 0x65ED JUMP JUMPDEST SWAP2 POP PUSH2 0x7D31 DUP3 PUSH2 0x7CF2 JUMP JUMPDEST PUSH1 0x20 DUP3 ADD SWAP1 POP SWAP2 SWAP1 POP JUMP JUMPDEST PUSH0 PUSH1 0x20 DUP3 ADD SWAP1 POP DUP2 DUP2 SUB PUSH0 DUP4 ADD MSTORE PUSH2 0x7D53 DUP2 PUSH2 0x7D1A JUMP JUMPDEST SWAP1 POP SWAP2 SWAP1 POP JUMP JUMPDEST PUSH0 DUP2 MLOAD SWAP1 POP SWAP2 SWAP1 POP JUMP JUMPDEST PUSH0 DUP2 SWAP1 POP SWAP3 SWAP2 POP POP JUMP JUMPDEST PUSH0 PUSH2 0x7D78 DUP3 PUSH2 0x7D5A JUMP JUMPDEST PUSH2 0x7D82 DUP2 DUP6 PUSH2 0x7D64 JUMP JUMPDEST SWAP4 POP PUSH2 0x7D92 DUP2 DUP6 PUSH1 0x20 DUP7 ADD PUSH2 0x65FD JUMP JUMPDEST DUP1 DUP5 ADD SWAP2 POP POP SWAP3 SWAP2 POP POP JUMP JUMPDEST PUSH0 PUSH2 0x7DA9 DUP3 DUP5 PUSH2 0x7D6E JUMP JUMPDEST SWAP2 POP DUP2 SWAP1 POP SWAP3 SWAP2 POP POP JUMP JUMPDEST PUSH32 0x5472616E7366657248656C7065723A205452414E534645525F46524F4D5F4641 PUSH0 DUP3 ADD MSTORE PUSH32 0x494C454400000000000000000000000000000000000000000000000000000000 PUSH1 0x20 DUP3 ADD MSTORE POP JUMP JUMPDEST PUSH0 PUSH2 0x7E0E PUSH1 0x24 DUP4 PUSH2 0x65ED JUMP JUMPDEST SWAP2 POP PUSH2 0x7E19 DUP3 PUSH2 0x7DB4 JUMP JUMPDEST PUSH1 0x40 DUP3 ADD SWAP1 POP SWAP2 SWAP1 POP JUMP JUMPDEST PUSH0 PUSH1 0x20 DUP3 ADD SWAP1 POP DUP2 DUP2 SUB PUSH0 DUP4 ADD MSTORE PUSH2 0x7E3B DUP2 PUSH2 0x7E02 JUMP JUMPDEST SWAP1 POP SWAP2 SWAP1 POP JUMP JUMPDEST PUSH32 0x5472616E7366657248656C7065723A205452414E534645525F4641494C454400 PUSH0 DUP3 ADD MSTORE POP JUMP JUMPDEST PUSH0 PUSH2 0x7E76 PUSH1 0x1F DUP4 PUSH2 0x65ED JUMP JUMPDEST SWAP2 POP PUSH2 0x7E81 DUP3 PUSH2 0x7E42 JUMP JUMPDEST PUSH1 0x20 DUP3 ADD SWAP1 POP SWAP2 SWAP1 POP JUMP JUMPDEST PUSH0 PUSH1 0x20 DUP3 ADD SWAP1 POP DUP2 DUP2 SUB PUSH0 DUP4 ADD MSTORE PUSH2 0x7EA3 DUP2 PUSH2 0x7E6A JUMP JUMPDEST SWAP1 POP SWAP2 SWAP1 POP JUMP JUMPDEST PUSH0 PUSH2 0x7EB4 DUP3 PUSH2 0x6239 JUMP JUMPDEST SWAP2 POP PUSH2 0x7EBF DUP4 PUSH2 0x6239 JUMP JUMPDEST SWAP3 POP DUP3 DUP3 SUB SWAP1 POP DUP2 DUP2 GT ISZERO PUSH2 0x7ED7 JUMPI PUSH2 0x7ED6 PUSH2 0x6B96 JUMP JUMPDEST JUMPDEST SWAP3 SWAP2 POP POP JUMP INVALID LOG2 PUSH5 0x6970667358 0x22 SLT KECCAK256 LT 0xBD 0xD9 0xD1 SDIV 0x4C PUSH15 0xBC61547B164476E0FDBD1B5EF522B0 0xEC STOP PUSH18 0xE150DEAEAE731464736F6C63430008150033 "
		},
		"gasEstimates": {
			"creation": {
				"codeDepositCost": "6506200",
				"executionCost": "infinite",
				"totalCost": "infinite"
			},
			"external": {
				"acceptOwnership()": "infinite",
				"addAMOMinter(address)": "infinite",
				"allCollaterals()": "infinite",
				"amoMinterBorrow(uint256)": "infinite",
				"amo_minter_addresses(address)": "2901",
				"bbkHourlyCum(uint256)": "infinite",
				"bbkMaxColE18OutPerHour()": "2535",
				"blackAddress()": "infinite",
				"bonus_rate()": "2559",
				"buyBackFxs(uint256,uint256,uint256)": "infinite",
				"buybackAvailableCollat()": "infinite",
				"collatDollarBalance()": "infinite",
				"collateralAddrToIdx(address)": "2869",
				"collateral_addresses(uint256)": "5034",
				"collateral_information(address)": "infinite",
				"collateral_prices(uint256)": "infinite",
				"collateral_symbols(uint256)": "infinite",
				"collectRedemption(uint256)": "infinite",
				"curEpochHr()": "infinite",
				"custodian_address()": "2621",
				"enabled_collaterals(address)": "2901",
				"freeCollatBalance(uint256)": "infinite",
				"getBLACKPrice()": "infinite",
				"getFRAXInCollateral(uint256,uint256)": "infinite",
				"getFRAXPrice()": "infinite",
				"getFXSPrice()": "infinite",
				"lastRedeemed(address)": "2914",
				"mintFrax(uint256,uint256,uint256,uint256,uint256,bool)": "infinite",
				"mint_price_threshold()": "2514",
				"missing_decimals(uint256)": "infinite",
				"nominateNewOwner(address)": "infinite",
				"nominatedOwner()": "2620",
				"owner()": "2639",
				"pool_ceilings(uint256)": "infinite",
				"priceFeedBLACKUSD()": "infinite",
				"priceFeedFRAXUSD()": "infinite",
				"priceFeedFXSUSD()": "infinite",
				"rctHourlyCum(uint256)": "infinite",
				"rctMaxFxsOutPerHour()": "2537",
				"recollatAvailableFxs()": "infinite",
				"recollatTheoColAvailableE18()": "infinite",
				"recollateralize(uint256,uint256,uint256)": "infinite",
				"redeemCollateralBalances(address,uint256)": "infinite",
				"redeemFXSBalances(address)": "2914",
				"redeemFrax(uint256,uint256,uint256,uint256)": "infinite",
				"redeem_price_threshold()": "2557",
				"redemption_delay()": "2516",
				"removeAMOMinter(address)": "infinite",
				"setBbkRctPerHour(uint256,uint256)": "infinite",
				"setCollateralPrice(uint256,uint256)": "infinite",
				"setCustodian(address)": "infinite",
				"setFees(uint256,uint256,uint256,uint256,uint256)": "infinite",
				"setOracles(address,address,address)": "infinite",
				"setPoolCeiling(uint256,uint256)": "infinite",
				"setPoolParameters(uint256,uint256)": "infinite",
				"setPriceThresholds(uint256,uint256)": "infinite",
				"setTimelock(address)": "infinite",
				"timelock_address()": "2597",
				"toggleCollateral(uint256)": "infinite",
				"toggleMRBR(uint256,uint8)": "infinite",
				"unclaimedPoolCollateral(uint256)": "infinite",
				"unclaimedPoolFXS()": "2537"
			},
			"internal": {
				"comboCalcBbkRct(uint256,uint256,uint256)": "infinite"
			}
		},
		"methodIdentifiers": {
			"acceptOwnership()": "79ba5097",
			"addAMOMinter(address)": "cb668d02",
			"allCollaterals()": "81f17467",
			"amoMinterBorrow(uint256)": "9aae55a7",
			"amo_minter_addresses(address)": "444f17dc",
			"bbkHourlyCum(uint256)": "510641eb",
			"bbkMaxColE18OutPerHour()": "f4d93085",
			"blackAddress()": "373453f4",
			"bonus_rate()": "4c634934",
			"buyBackFxs(uint256,uint256,uint256)": "be3449d4",
			"buybackAvailableCollat()": "1fc9a9c2",
			"collatDollarBalance()": "17284c94",
			"collateralAddrToIdx(address)": "db1e5c9e",
			"collateral_addresses(uint256)": "4bb4a730",
			"collateral_information(address)": "694677d3",
			"collateral_prices(uint256)": "dd7def73",
			"collateral_symbols(uint256)": "58f45c3c",
			"collectRedemption(uint256)": "9d202bf8",
			"curEpochHr()": "01728b5d",
			"custodian_address()": "7ce6112b",
			"enabled_collaterals(address)": "80e74d97",
			"freeCollatBalance(uint256)": "308e3157",
			"getBLACKPrice()": "0f46402c",
			"getFRAXInCollateral(uint256,uint256)": "5d447b31",
			"getFRAXPrice()": "ee88fc91",
			"getFXSPrice()": "88e5a491",
			"lastRedeemed(address)": "abae2c4c",
			"mintFrax(uint256,uint256,uint256,uint256,uint256,bool)": "7c4a27e5",
			"mint_price_threshold()": "e714df31",
			"missing_decimals(uint256)": "6283d27e",
			"nominateNewOwner(address)": "1627540c",
			"nominatedOwner()": "53a47bb7",
			"owner()": "8da5cb5b",
			"pool_ceilings(uint256)": "27803dce",
			"priceFeedBLACKUSD()": "20a4cd57",
			"priceFeedFRAXUSD()": "eb99aff8",
			"priceFeedFXSUSD()": "3a2b17a6",
			"rctHourlyCum(uint256)": "e1d35b7a",
			"rctMaxFxsOutPerHour()": "310149da",
			"recollatAvailableFxs()": "edb493e5",
			"recollatTheoColAvailableE18()": "1b3fb85c",
			"recollateralize(uint256,uint256,uint256)": "50e82c7d",
			"redeemCollateralBalances(address,uint256)": "350b5c64",
			"redeemFXSBalances(address)": "c76417d7",
			"redeemFrax(uint256,uint256,uint256,uint256)": "b7db6482",
			"redeem_price_threshold()": "ff9f4fb5",
			"redemption_delay()": "15128425",
			"removeAMOMinter(address)": "3323db17",
			"setBbkRctPerHour(uint256,uint256)": "19949182",
			"setCollateralPrice(uint256,uint256)": "af77bcbf",
			"setCustodian(address)": "403f3731",
			"setFees(uint256,uint256,uint256,uint256,uint256)": "04a66b48",
			"setOracles(address,address,address)": "09d32681",
			"setPoolCeiling(uint256,uint256)": "ecfd1a9e",
			"setPoolParameters(uint256,uint256)": "df95c3a7",
			"setPriceThresholds(uint256,uint256)": "7853c888",
			"setTimelock(address)": "bdacb303",
			"timelock_address()": "dc6663c7",
			"toggleCollateral(uint256)": "aeaf4f04",
			"toggleMRBR(uint256,uint8)": "bbfadd6c",
			"unclaimedPoolCollateral(uint256)": "b938af74",
			"unclaimedPoolFXS()": "4c26203c"
		}
	},
	"abi": [
		{
			"inputs": [
				{
					"internalType": "address",
					"name": "_pool_manager_address",
					"type": "address"
				},
				{
					"internalType": "address",
					"name": "_custodian_address",
					"type": "address"
				},
				{
					"internalType": "address",
					"name": "_timelock_address",
					"type": "address"
				},
				{
					"internalType": "address",
					"name": "black_address",
					"type": "address"
				},
				{
					"internalType": "address[]",
					"name": "_collateral_addresses",
					"type": "address[]"
				},
				{
					"internalType": "uint256[]",
					"name": "_pool_ceilings",
					"type": "uint256[]"
				},
				{
					"internalType": "uint256[]",
					"name": "_initial_fees",
					"type": "uint256[]"
				}
			],
			"stateMutability": "nonpayable",
			"type": "constructor"
		},
		{
			"anonymous": false,
			"inputs": [
				{
					"indexed": false,
					"internalType": "address",
					"name": "amo_minter_addr",
					"type": "address"
				}
			],
			"name": "AMOMinterAdded",
			"type": "event"
		},
		{
			"anonymous": false,
			"inputs": [
				{
					"indexed": false,
					"internalType": "address",
					"name": "amo_minter_addr",
					"type": "address"
				}
			],
			"name": "AMOMinterRemoved",
			"type": "event"
		},
		{
			"anonymous": false,
			"inputs": [
				{
					"indexed": false,
					"internalType": "uint256",
					"name": "bbkMaxColE18OutPerHour",
					"type": "uint256"
				},
				{
					"indexed": false,
					"internalType": "uint256",
					"name": "rctMaxFxsOutPerHour",
					"type": "uint256"
				}
			],
			"name": "BbkRctPerHourSet",
			"type": "event"
		},
		{
			"anonymous": false,
			"inputs": [
				{
					"indexed": false,
					"internalType": "uint256",
					"name": "col_idx",
					"type": "uint256"
				},
				{
					"indexed": false,
					"internalType": "uint256",
					"name": "new_price",
					"type": "uint256"
				}
			],
			"name": "CollateralPriceSet",
			"type": "event"
		},
		{
			"anonymous": false,
			"inputs": [
				{
					"indexed": false,
					"internalType": "uint256",
					"name": "col_idx",
					"type": "uint256"
				},
				{
					"indexed": false,
					"internalType": "bool",
					"name": "new_state",
					"type": "bool"
				}
			],
			"name": "CollateralToggled",
			"type": "event"
		},
		{
			"anonymous": false,
			"inputs": [
				{
					"indexed": false,
					"internalType": "address",
					"name": "new_custodian",
					"type": "address"
				}
			],
			"name": "CustodianSet",
			"type": "event"
		},
		{
			"anonymous": false,
			"inputs": [
				{
					"indexed": false,
					"internalType": "uint256",
					"name": "col_idx",
					"type": "uint256"
				},
				{
					"indexed": false,
					"internalType": "uint256",
					"name": "new_mint_fee",
					"type": "uint256"
				},
				{
					"indexed": false,
					"internalType": "uint256",
					"name": "new_redeem_fee",
					"type": "uint256"
				},
				{
					"indexed": false,
					"internalType": "uint256",
					"name": "new_buyback_fee",
					"type": "uint256"
				},
				{
					"indexed": false,
					"internalType": "uint256",
					"name": "new_recollat_fee",
					"type": "uint256"
				}
			],
			"name": "FeesSet",
			"type": "event"
		},
		{
			"anonymous": false,
			"inputs": [
				{
					"indexed": false,
					"internalType": "uint256",
					"name": "col_idx",
					"type": "uint256"
				},
				{
					"indexed": false,
					"internalType": "uint8",
					"name": "tog_idx",
					"type": "uint8"
				}
			],
			"name": "MRBRToggled",
			"type": "event"
		},
		{
			"anonymous": false,
			"inputs": [
				{
					"indexed": false,
					"internalType": "address",
					"name": "frax_usd_chainlink_addr",
					"type": "address"
				},
				{
					"indexed": false,
					"internalType": "address",
					"name": "fxs_usd_chainlink_addr",
					"type": "address"
				}
			],
			"name": "OraclesSet",
			"type": "event"
		},
		{
			"anonymous": false,
			"inputs": [
				{
					"indexed": false,
					"internalType": "address",
					"name": "oldOwner",
					"type": "address"
				},
				{
					"indexed": false,
					"internalType": "address",
					"name": "newOwner",
					"type": "address"
				}
			],
			"name": "OwnerChanged",
			"type": "event"
		},
		{
			"anonymous": false,
			"inputs": [
				{
					"indexed": false,
					"internalType": "address",
					"name": "newOwner",
					"type": "address"
				}
			],
			"name": "OwnerNominated",
			"type": "event"
		},
		{
			"anonymous": false,
			"inputs": [
				{
					"indexed": false,
					"internalType": "uint256",
					"name": "col_idx",
					"type": "uint256"
				},
				{
					"indexed": false,
					"internalType": "uint256",
					"name": "new_ceiling",
					"type": "uint256"
				}
			],
			"name": "PoolCeilingSet",
			"type": "event"
		},
		{
			"anonymous": false,
			"inputs": [
				{
					"indexed": false,
					"internalType": "uint256",
					"name": "new_bonus_rate",
					"type": "uint256"
				},
				{
					"indexed": false,
					"internalType": "uint256",
					"name": "new_redemption_delay",
					"type": "uint256"
				}
			],
			"name": "PoolParametersSet",
			"type": "event"
		},
		{
			"anonymous": false,
			"inputs": [
				{
					"indexed": false,
					"internalType": "uint256",
					"name": "new_bonus_rate",
					"type": "uint256"
				},
				{
					"indexed": false,
					"internalType": "uint256",
					"name": "new_redemption_delay",
					"type": "uint256"
				}
			],
			"name": "PriceThresholdsSet",
			"type": "event"
		},
		{
			"anonymous": false,
			"inputs": [
				{
					"indexed": false,
					"internalType": "address",
					"name": "new_timelock",
					"type": "address"
				}
			],
			"name": "TimelockSet",
			"type": "event"
		},
		{
			"inputs": [],
			"name": "acceptOwnership",
			"outputs": [],
			"stateMutability": "nonpayable",
			"type": "function"
		},
		{
			"inputs": [
				{
					"internalType": "address",
					"name": "amo_minter_addr",
					"type": "address"
				}
			],
			"name": "addAMOMinter",
			"outputs": [],
			"stateMutability": "nonpayable",
			"type": "function"
		},
		{
			"inputs": [],
			"name": "allCollaterals",
			"outputs": [
				{
					"internalType": "address[]",
					"name": "",
					"type": "address[]"
				}
			],
			"stateMutability": "view",
			"type": "function"
		},
		{
			"inputs": [
				{
					"internalType": "uint256",
					"name": "collateral_amount",
					"type": "uint256"
				}
			],
			"name": "amoMinterBorrow",
			"outputs": [],
			"stateMutability": "nonpayable",
			"type": "function"
		},
		{
			"inputs": [
				{
					"internalType": "address",
					"name": "",
					"type": "address"
				}
			],
			"name": "amo_minter_addresses",
			"outputs": [
				{
					"internalType": "bool",
					"name": "",
					"type": "bool"
				}
			],
			"stateMutability": "view",
			"type": "function"
		},
		{
			"inputs": [
				{
					"internalType": "uint256",
					"name": "",
					"type": "uint256"
				}
			],
			"name": "bbkHourlyCum",
			"outputs": [
				{
					"internalType": "uint256",
					"name": "",
					"type": "uint256"
				}
			],
			"stateMutability": "view",
			"type": "function"
		},
		{
			"inputs": [],
			"name": "bbkMaxColE18OutPerHour",
			"outputs": [
				{
					"internalType": "uint256",
					"name": "",
					"type": "uint256"
				}
			],
			"stateMutability": "view",
			"type": "function"
		},
		{
			"inputs": [],
			"name": "blackAddress",
			"outputs": [
				{
					"internalType": "contract ERC20",
					"name": "",
					"type": "address"
				}
			],
			"stateMutability": "view",
			"type": "function"
		},
		{
			"inputs": [],
			"name": "bonus_rate",
			"outputs": [
				{
					"internalType": "uint256",
					"name": "",
					"type": "uint256"
				}
			],
			"stateMutability": "view",
			"type": "function"
		},
		{
			"inputs": [
				{
					"internalType": "uint256",
					"name": "col_idx",
					"type": "uint256"
				},
				{
					"internalType": "uint256",
					"name": "fxs_amount",
					"type": "uint256"
				},
				{
					"internalType": "uint256",
					"name": "col_out_min",
					"type": "uint256"
				}
			],
			"name": "buyBackFxs",
			"outputs": [
				{
					"internalType": "uint256",
					"name": "col_out",
					"type": "uint256"
				}
			],
			"stateMutability": "nonpayable",
			"type": "function"
		},
		{
			"inputs": [],
			"name": "buybackAvailableCollat",
			"outputs": [
				{
					"internalType": "uint256",
					"name": "",
					"type": "uint256"
				}
			],
			"stateMutability": "view",
			"type": "function"
		},
		{
			"inputs": [],
			"name": "collatDollarBalance",
			"outputs": [
				{
					"internalType": "uint256",
					"name": "balance_tally",
					"type": "uint256"
				}
			],
			"stateMutability": "view",
			"type": "function"
		},
		{
			"inputs": [
				{
					"internalType": "address",
					"name": "",
					"type": "address"
				}
			],
			"name": "collateralAddrToIdx",
			"outputs": [
				{
					"internalType": "uint256",
					"name": "",
					"type": "uint256"
				}
			],
			"stateMutability": "view",
			"type": "function"
		},
		{
			"inputs": [
				{
					"internalType": "uint256",
					"name": "",
					"type": "uint256"
				}
			],
			"name": "collateral_addresses",
			"outputs": [
				{
					"internalType": "address",
					"name": "",
					"type": "address"
				}
			],
			"stateMutability": "view",
			"type": "function"
		},
		{
			"inputs": [
				{
					"internalType": "address",
					"name": "collat_address",
					"type": "address"
				}
			],
			"name": "collateral_information",
			"outputs": [
				{
					"components": [
						{
							"internalType": "uint256",
							"name": "index",
							"type": "uint256"
						},
						{
							"internalType": "string",
							"name": "symbol",
							"type": "string"
						},
						{
							"internalType": "address",
							"name": "col_addr",
							"type": "address"
						},
						{
							"internalType": "bool",
							"name": "is_enabled",
							"type": "bool"
						},
						{
							"internalType": "uint256",
							"name": "missing_decs",
							"type": "uint256"
						},
						{
							"internalType": "uint256",
							"name": "price",
							"type": "uint256"
						},
						{
							"internalType": "uint256",
							"name": "pool_ceiling",
							"type": "uint256"
						},
						{
							"internalType": "bool",
							"name": "mint_paused",
							"type": "bool"
						},
						{
							"internalType": "bool",
							"name": "redeem_paused",
							"type": "bool"
						},
						{
							"internalType": "bool",
							"name": "recollat_paused",
							"type": "bool"
						},
						{
							"internalType": "bool",
							"name": "buyback_paused",
							"type": "bool"
						},
						{
							"internalType": "bool",
							"name": "borrowing_paused",
							"type": "bool"
						},
						{
							"internalType": "uint256",
							"name": "minting_fee",
							"type": "uint256"
						},
						{
							"internalType": "uint256",
							"name": "redemption_fee",
							"type": "uint256"
						},
						{
							"internalType": "uint256",
							"name": "buyback_fee",
							"type": "uint256"
						},
						{
							"internalType": "uint256",
							"name": "recollat_fee",
							"type": "uint256"
						}
					],
					"internalType": "struct FraxPoolV3.CollateralInformation",
					"name": "return_data",
					"type": "tuple"
				}
			],
			"stateMutability": "view",
			"type": "function"
		},
		{
			"inputs": [
				{
					"internalType": "uint256",
					"name": "",
					"type": "uint256"
				}
			],
			"name": "collateral_prices",
			"outputs": [
				{
					"internalType": "uint256",
					"name": "",
					"type": "uint256"
				}
			],
			"stateMutability": "view",
			"type": "function"
		},
		{
			"inputs": [
				{
					"internalType": "uint256",
					"name": "",
					"type": "uint256"
				}
			],
			"name": "collateral_symbols",
			"outputs": [
				{
					"internalType": "string",
					"name": "",
					"type": "string"
				}
			],
			"stateMutability": "view",
			"type": "function"
		},
		{
			"inputs": [
				{
					"internalType": "uint256",
					"name": "col_idx",
					"type": "uint256"
				}
			],
			"name": "collectRedemption",
			"outputs": [
				{
					"internalType": "uint256",
					"name": "fxs_amount",
					"type": "uint256"
				},
				{
					"internalType": "uint256",
					"name": "collateral_amount",
					"type": "uint256"
				}
			],
			"stateMutability": "nonpayable",
			"type": "function"
		},
		{
			"inputs": [],
			"name": "curEpochHr",
			"outputs": [
				{
					"internalType": "uint256",
					"name": "",
					"type": "uint256"
				}
			],
			"stateMutability": "view",
			"type": "function"
		},
		{
			"inputs": [],
			"name": "custodian_address",
			"outputs": [
				{
					"internalType": "address",
					"name": "",
					"type": "address"
				}
			],
			"stateMutability": "view",
			"type": "function"
		},
		{
			"inputs": [
				{
					"internalType": "address",
					"name": "",
					"type": "address"
				}
			],
			"name": "enabled_collaterals",
			"outputs": [
				{
					"internalType": "bool",
					"name": "",
					"type": "bool"
				}
			],
			"stateMutability": "view",
			"type": "function"
		},
		{
			"inputs": [
				{
					"internalType": "uint256",
					"name": "col_idx",
					"type": "uint256"
				}
			],
			"name": "freeCollatBalance",
			"outputs": [
				{
					"internalType": "uint256",
					"name": "",
					"type": "uint256"
				}
			],
			"stateMutability": "view",
			"type": "function"
		},
		{
			"inputs": [],
			"name": "getBLACKPrice",
			"outputs": [
				{
					"internalType": "uint256",
					"name": "",
					"type": "uint256"
				}
			],
			"stateMutability": "view",
			"type": "function"
		},
		{
			"inputs": [
				{
					"internalType": "uint256",
					"name": "col_idx",
					"type": "uint256"
				},
				{
					"internalType": "uint256",
					"name": "frax_amount",
					"type": "uint256"
				}
			],
			"name": "getFRAXInCollateral",
			"outputs": [
				{
					"internalType": "uint256",
					"name": "",
					"type": "uint256"
				}
			],
			"stateMutability": "view",
			"type": "function"
		},
		{
			"inputs": [],
			"name": "getFRAXPrice",
			"outputs": [
				{
					"internalType": "uint256",
					"name": "",
					"type": "uint256"
				}
			],
			"stateMutability": "view",
			"type": "function"
		},
		{
			"inputs": [],
			"name": "getFXSPrice",
			"outputs": [
				{
					"internalType": "uint256",
					"name": "",
					"type": "uint256"
				}
			],
			"stateMutability": "view",
			"type": "function"
		},
		{
			"inputs": [
				{
					"internalType": "address",
					"name": "",
					"type": "address"
				}
			],
			"name": "lastRedeemed",
			"outputs": [
				{
					"internalType": "uint256",
					"name": "",
					"type": "uint256"
				}
			],
			"stateMutability": "view",
			"type": "function"
		},
		{
			"inputs": [
				{
					"internalType": "uint256",
					"name": "col_idx",
					"type": "uint256"
				},
				{
					"internalType": "uint256",
					"name": "frax_amt",
					"type": "uint256"
				},
				{
					"internalType": "uint256",
					"name": "frax_out_min",
					"type": "uint256"
				},
				{
					"internalType": "uint256",
					"name": "max_collat_in",
					"type": "uint256"
				},
				{
					"internalType": "uint256",
					"name": "max_fxs_in",
					"type": "uint256"
				},
				{
					"internalType": "bool",
					"name": "one_to_one_override",
					"type": "bool"
				}
			],
			"name": "mintFrax",
			"outputs": [
				{
					"internalType": "uint256",
					"name": "total_frax_mint",
					"type": "uint256"
				},
				{
					"internalType": "uint256",
					"name": "collat_needed",
					"type": "uint256"
				},
				{
					"internalType": "uint256",
					"name": "fxs_needed",
					"type": "uint256"
				},
				{
					"internalType": "uint256",
					"name": "black_needed",
					"type": "uint256"
				}
			],
			"stateMutability": "nonpayable",
			"type": "function"
		},
		{
			"inputs": [],
			"name": "mint_price_threshold",
			"outputs": [
				{
					"internalType": "uint256",
					"name": "",
					"type": "uint256"
				}
			],
			"stateMutability": "view",
			"type": "function"
		},
		{
			"inputs": [
				{
					"internalType": "uint256",
					"name": "",
					"type": "uint256"
				}
			],
			"name": "missing_decimals",
			"outputs": [
				{
					"internalType": "uint256",
					"name": "",
					"type": "uint256"
				}
			],
			"stateMutability": "view",
			"type": "function"
		},
		{
			"inputs": [
				{
					"internalType": "address",
					"name": "_owner",
					"type": "address"
				}
			],
			"name": "nominateNewOwner",
			"outputs": [],
			"stateMutability": "nonpayable",
			"type": "function"
		},
		{
			"inputs": [],
			"name": "nominatedOwner",
			"outputs": [
				{
					"internalType": "address",
					"name": "",
					"type": "address"
				}
			],
			"stateMutability": "view",
			"type": "function"
		},
		{
			"inputs": [],
			"name": "owner",
			"outputs": [
				{
					"internalType": "address",
					"name": "",
					"type": "address"
				}
			],
			"stateMutability": "view",
			"type": "function"
		},
		{
			"inputs": [
				{
					"internalType": "uint256",
					"name": "",
					"type": "uint256"
				}
			],
			"name": "pool_ceilings",
			"outputs": [
				{
					"internalType": "uint256",
					"name": "",
					"type": "uint256"
				}
			],
			"stateMutability": "view",
			"type": "function"
		},
		{
			"inputs": [],
			"name": "priceFeedBLACKUSD",
			"outputs": [
				{
					"internalType": "contract AggregatorV3Interface",
					"name": "",
					"type": "address"
				}
			],
			"stateMutability": "view",
			"type": "function"
		},
		{
			"inputs": [],
			"name": "priceFeedFRAXUSD",
			"outputs": [
				{
					"internalType": "contract AggregatorV3Interface",
					"name": "",
					"type": "address"
				}
			],
			"stateMutability": "view",
			"type": "function"
		},
		{
			"inputs": [],
			"name": "priceFeedFXSUSD",
			"outputs": [
				{
					"internalType": "contract AggregatorV3Interface",
					"name": "",
					"type": "address"
				}
			],
			"stateMutability": "view",
			"type": "function"
		},
		{
			"inputs": [
				{
					"internalType": "uint256",
					"name": "",
					"type": "uint256"
				}
			],
			"name": "rctHourlyCum",
			"outputs": [
				{
					"internalType": "uint256",
					"name": "",
					"type": "uint256"
				}
			],
			"stateMutability": "view",
			"type": "function"
		},
		{
			"inputs": [],
			"name": "rctMaxFxsOutPerHour",
			"outputs": [
				{
					"internalType": "uint256",
					"name": "",
					"type": "uint256"
				}
			],
			"stateMutability": "view",
			"type": "function"
		},
		{
			"inputs": [],
			"name": "recollatAvailableFxs",
			"outputs": [
				{
					"internalType": "uint256",
					"name": "",
					"type": "uint256"
				}
			],
			"stateMutability": "view",
			"type": "function"
		},
		{
			"inputs": [],
			"name": "recollatTheoColAvailableE18",
			"outputs": [
				{
					"internalType": "uint256",
					"name": "",
					"type": "uint256"
				}
			],
			"stateMutability": "view",
			"type": "function"
		},
		{
			"inputs": [
				{
					"internalType": "uint256",
					"name": "col_idx",
					"type": "uint256"
				},
				{
					"internalType": "uint256",
					"name": "collateral_amount",
					"type": "uint256"
				},
				{
					"internalType": "uint256",
					"name": "fxs_out_min",
					"type": "uint256"
				}
			],
			"name": "recollateralize",
			"outputs": [
				{
					"internalType": "uint256",
					"name": "fxs_out",
					"type": "uint256"
				}
			],
			"stateMutability": "nonpayable",
			"type": "function"
		},
		{
			"inputs": [
				{
					"internalType": "address",
					"name": "",
					"type": "address"
				},
				{
					"internalType": "uint256",
					"name": "",
					"type": "uint256"
				}
			],
			"name": "redeemCollateralBalances",
			"outputs": [
				{
					"internalType": "uint256",
					"name": "",
					"type": "uint256"
				}
			],
			"stateMutability": "view",
			"type": "function"
		},
		{
			"inputs": [
				{
					"internalType": "address",
					"name": "",
					"type": "address"
				}
			],
			"name": "redeemFXSBalances",
			"outputs": [
				{
					"internalType": "uint256",
					"name": "",
					"type": "uint256"
				}
			],
			"stateMutability": "view",
			"type": "function"
		},
		{
			"inputs": [
				{
					"internalType": "uint256",
					"name": "col_idx",
					"type": "uint256"
				},
				{
					"internalType": "uint256",
					"name": "frax_amount",
					"type": "uint256"
				},
				{
					"internalType": "uint256",
					"name": "fxs_out_min",
					"type": "uint256"
				},
				{
					"internalType": "uint256",
					"name": "col_out_min",
					"type": "uint256"
				}
			],
			"name": "redeemFrax",
			"outputs": [
				{
					"internalType": "uint256",
					"name": "collat_out",
					"type": "uint256"
				},
				{
					"internalType": "uint256",
					"name": "fxs_out",
					"type": "uint256"
				},
				{
					"internalType": "uint256",
					"name": "black_out",
					"type": "uint256"
				}
			],
			"stateMutability": "nonpayable",
			"type": "function"
		},
		{
			"inputs": [],
			"name": "redeem_price_threshold",
			"outputs": [
				{
					"internalType": "uint256",
					"name": "",
					"type": "uint256"
				}
			],
			"stateMutability": "view",
			"type": "function"
		},
		{
			"inputs": [],
			"name": "redemption_delay",
			"outputs": [
				{
					"internalType": "uint256",
					"name": "",
					"type": "uint256"
				}
			],
			"stateMutability": "view",
			"type": "function"
		},
		{
			"inputs": [
				{
					"internalType": "address",
					"name": "amo_minter_addr",
					"type": "address"
				}
			],
			"name": "removeAMOMinter",
			"outputs": [],
			"stateMutability": "nonpayable",
			"type": "function"
		},
		{
			"inputs": [
				{
					"internalType": "uint256",
					"name": "_bbkMaxColE18OutPerHour",
					"type": "uint256"
				},
				{
					"internalType": "uint256",
					"name": "_rctMaxFxsOutPerHour",
					"type": "uint256"
				}
			],
			"name": "setBbkRctPerHour",
			"outputs": [],
			"stateMutability": "nonpayable",
			"type": "function"
		},
		{
			"inputs": [
				{
					"internalType": "uint256",
					"name": "col_idx",
					"type": "uint256"
				},
				{
					"internalType": "uint256",
					"name": "_new_price",
					"type": "uint256"
				}
			],
			"name": "setCollateralPrice",
			"outputs": [],
			"stateMutability": "nonpayable",
			"type": "function"
		},
		{
			"inputs": [
				{
					"internalType": "address",
					"name": "new_custodian",
					"type": "address"
				}
			],
			"name": "setCustodian",
			"outputs": [],
			"stateMutability": "nonpayable",
			"type": "function"
		},
		{
			"inputs": [
				{
					"internalType": "uint256",
					"name": "col_idx",
					"type": "uint256"
				},
				{
					"internalType": "uint256",
					"name": "new_mint_fee",
					"type": "uint256"
				},
				{
					"internalType": "uint256",
					"name": "new_redeem_fee",
					"type": "uint256"
				},
				{
					"internalType": "uint256",
					"name": "new_buyback_fee",
					"type": "uint256"
				},
				{
					"internalType": "uint256",
					"name": "new_recollat_fee",
					"type": "uint256"
				}
			],
			"name": "setFees",
			"outputs": [],
			"stateMutability": "nonpayable",
			"type": "function"
		},
		{
			"inputs": [
				{
					"internalType": "address",
					"name": "_frax_usd_chainlink_addr",
					"type": "address"
				},
				{
					"internalType": "address",
					"name": "_fxs_usd_chainlink_addr",
					"type": "address"
				},
				{
					"internalType": "address",
					"name": "_black_usd_chainlink_addr",
					"type": "address"
				}
			],
			"name": "setOracles",
			"outputs": [],
			"stateMutability": "nonpayable",
			"type": "function"
		},
		{
			"inputs": [
				{
					"internalType": "uint256",
					"name": "col_idx",
					"type": "uint256"
				},
				{
					"internalType": "uint256",
					"name": "new_ceiling",
					"type": "uint256"
				}
			],
			"name": "setPoolCeiling",
			"outputs": [],
			"stateMutability": "nonpayable",
			"type": "function"
		},
		{
			"inputs": [
				{
					"internalType": "uint256",
					"name": "new_bonus_rate",
					"type": "uint256"
				},
				{
					"internalType": "uint256",
					"name": "new_redemption_delay",
					"type": "uint256"
				}
			],
			"name": "setPoolParameters",
			"outputs": [],
			"stateMutability": "nonpayable",
			"type": "function"
		},
		{
			"inputs": [
				{
					"internalType": "uint256",
					"name": "new_mint_price_threshold",
					"type": "uint256"
				},
				{
					"internalType": "uint256",
					"name": "new_redeem_price_threshold",
					"type": "uint256"
				}
			],
			"name": "setPriceThresholds",
			"outputs": [],
			"stateMutability": "nonpayable",
			"type": "function"
		},
		{
			"inputs": [
				{
					"internalType": "address",
					"name": "new_timelock",
					"type": "address"
				}
			],
			"name": "setTimelock",
			"outputs": [],
			"stateMutability": "nonpayable",
			"type": "function"
		},
		{
			"inputs": [],
			"name": "timelock_address",
			"outputs": [
				{
					"internalType": "address",
					"name": "",
					"type": "address"
				}
			],
			"stateMutability": "view",
			"type": "function"
		},
		{
			"inputs": [
				{
					"internalType": "uint256",
					"name": "col_idx",
					"type": "uint256"
				}
			],
			"name": "toggleCollateral",
			"outputs": [],
			"stateMutability": "nonpayable",
			"type": "function"
		},
		{
			"inputs": [
				{
					"internalType": "uint256",
					"name": "col_idx",
					"type": "uint256"
				},
				{
					"internalType": "uint8",
					"name": "tog_idx",
					"type": "uint8"
				}
			],
			"name": "toggleMRBR",
			"outputs": [],
			"stateMutability": "nonpayable",
			"type": "function"
		},
		{
			"inputs": [
				{
					"internalType": "uint256",
					"name": "",
					"type": "uint256"
				}
			],
			"name": "unclaimedPoolCollateral",
			"outputs": [
				{
					"internalType": "uint256",
					"name": "",
					"type": "uint256"
				}
			],
			"stateMutability": "view",
			"type": "function"
		},
		{
			"inputs": [],
			"name": "unclaimedPoolFXS",
			"outputs": [
				{
					"internalType": "uint256",
					"name": "",
					"type": "uint256"
				}
			],
			"stateMutability": "view",
			"type": "function"
		}
	]
}