{
	"NewFraxProtocol/contracts/Oracle/UniswapPairOracleExtra.sol": {
		"UniswapPairOracleExtra": {
			"abi": [
				{
					"inputs": [
						{
							"internalType": "address",
							"name": "pair_address",
							"type": "address"
						},
						{
							"internalType": "address",
							"name": "_owner_address",
							"type": "address"
						},
						{
							"internalType": "address",
							"name": "_timelock_address",
							"type": "address"
						},
						{
							"internalType": "string",
							"name": "_description",
							"type": "string"
						},
						{
							"internalType": "address",
							"name": "_address_to_consult",
							"type": "address"
						}
					],
					"stateMutability": "nonpayable",
					"type": "constructor"
				},
				{
					"anonymous": false,
					"inputs": [
						{
							"indexed": false,
							"internalType": "address",
							"name": "oldOwner",
							"type": "address"
						},
						{
							"indexed": false,
							"internalType": "address",
							"name": "newOwner",
							"type": "address"
						}
					],
					"name": "OwnerChanged",
					"type": "event"
				},
				{
					"anonymous": false,
					"inputs": [
						{
							"indexed": false,
							"internalType": "address",
							"name": "newOwner",
							"type": "address"
						}
					],
					"name": "OwnerNominated",
					"type": "event"
				},
				{
					"inputs": [],
					"name": "ALLOW_STALE_CONSULTS",
					"outputs": [
						{
							"internalType": "bool",
							"name": "",
							"type": "bool"
						}
					],
					"stateMutability": "view",
					"type": "function"
				},
				{
					"inputs": [],
					"name": "CONSULT_LENIENCY",
					"outputs": [
						{
							"internalType": "uint256",
							"name": "",
							"type": "uint256"
						}
					],
					"stateMutability": "view",
					"type": "function"
				},
				{
					"inputs": [],
					"name": "PERIOD",
					"outputs": [
						{
							"internalType": "uint256",
							"name": "",
							"type": "uint256"
						}
					],
					"stateMutability": "view",
					"type": "function"
				},
				{
					"inputs": [],
					"name": "PRICE_PRECISION",
					"outputs": [
						{
							"internalType": "uint256",
							"name": "",
							"type": "uint256"
						}
					],
					"stateMutability": "view",
					"type": "function"
				},
				{
					"inputs": [],
					"name": "acceptOwnership",
					"outputs": [],
					"stateMutability": "nonpayable",
					"type": "function"
				},
				{
					"inputs": [],
					"name": "blockTimestampLast",
					"outputs": [
						{
							"internalType": "uint32",
							"name": "",
							"type": "uint32"
						}
					],
					"stateMutability": "view",
					"type": "function"
				},
				{
					"inputs": [],
					"name": "canUpdate",
					"outputs": [
						{
							"internalType": "bool",
							"name": "",
							"type": "bool"
						}
					],
					"stateMutability": "view",
					"type": "function"
				},
				{
					"inputs": [
						{
							"internalType": "address",
							"name": "token",
							"type": "address"
						},
						{
							"internalType": "uint256",
							"name": "amountIn",
							"type": "uint256"
						}
					],
					"name": "consult",
					"outputs": [
						{
							"internalType": "uint256",
							"name": "amountOut",
							"type": "uint256"
						}
					],
					"stateMutability": "view",
					"type": "function"
				},
				{
					"inputs": [],
					"name": "decimals",
					"outputs": [
						{
							"internalType": "uint8",
							"name": "",
							"type": "uint8"
						}
					],
					"stateMutability": "view",
					"type": "function"
				},
				{
					"inputs": [],
					"name": "description",
					"outputs": [
						{
							"internalType": "string",
							"name": "",
							"type": "string"
						}
					],
					"stateMutability": "view",
					"type": "function"
				},
				{
					"inputs": [
						{
							"internalType": "uint80",
							"name": "_roundId",
							"type": "uint80"
						}
					],
					"name": "getRoundData",
					"outputs": [
						{
							"internalType": "uint80",
							"name": "roundId",
							"type": "uint80"
						},
						{
							"internalType": "int256",
							"name": "answer",
							"type": "int256"
						},
						{
							"internalType": "uint256",
							"name": "startedAt",
							"type": "uint256"
						},
						{
							"internalType": "uint256",
							"name": "updatedAt",
							"type": "uint256"
						},
						{
							"internalType": "uint80",
							"name": "answeredInRound",
							"type": "uint80"
						}
					],
					"stateMutability": "view",
					"type": "function"
				},
				{
					"inputs": [],
					"name": "latestRoundData",
					"outputs": [
						{
							"internalType": "uint80",
							"name": "roundId",
							"type": "uint80"
						},
						{
							"internalType": "int256",
							"name": "answer",
							"type": "int256"
						},
						{
							"internalType": "uint256",
							"name": "startedAt",
							"type": "uint256"
						},
						{
							"internalType": "uint256",
							"name": "updatedAt",
							"type": "uint256"
						},
						{
							"internalType": "uint80",
							"name": "answeredInRound",
							"type": "uint80"
						}
					],
					"stateMutability": "view",
					"type": "function"
				},
				{
					"inputs": [
						{
							"internalType": "address",
							"name": "_owner",
							"type": "address"
						}
					],
					"name": "nominateNewOwner",
					"outputs": [],
					"stateMutability": "nonpayable",
					"type": "function"
				},
				{
					"inputs": [],
					"name": "nominatedOwner",
					"outputs": [
						{
							"internalType": "address",
							"name": "",
							"type": "address"
						}
					],
					"stateMutability": "view",
					"type": "function"
				},
				{
					"inputs": [],
					"name": "owner",
					"outputs": [
						{
							"internalType": "address",
							"name": "",
							"type": "address"
						}
					],
					"stateMutability": "view",
					"type": "function"
				},
				{
					"inputs": [],
					"name": "pair",
					"outputs": [
						{
							"internalType": "contract IUniswapV2Pair",
							"name": "",
							"type": "address"
						}
					],
					"stateMutability": "view",
					"type": "function"
				},
				{
					"inputs": [],
					"name": "price0Average",
					"outputs": [
						{
							"internalType": "uint224",
							"name": "_x",
							"type": "uint224"
						}
					],
					"stateMutability": "view",
					"type": "function"
				},
				{
					"inputs": [],
					"name": "price0CumulativeLast",
					"outputs": [
						{
							"internalType": "uint256",
							"name": "",
							"type": "uint256"
						}
					],
					"stateMutability": "view",
					"type": "function"
				},
				{
					"inputs": [],
					"name": "price1Average",
					"outputs": [
						{
							"internalType": "uint224",
							"name": "_x",
							"type": "uint224"
						}
					],
					"stateMutability": "view",
					"type": "function"
				},
				{
					"inputs": [],
					"name": "price1CumulativeLast",
					"outputs": [
						{
							"internalType": "uint256",
							"name": "",
							"type": "uint256"
						}
					],
					"stateMutability": "view",
					"type": "function"
				},
				{
					"inputs": [
						{
							"internalType": "address",
							"name": "_address_to_consult",
							"type": "address"
						}
					],
					"name": "setAddressToConsult",
					"outputs": [],
					"stateMutability": "nonpayable",
					"type": "function"
				},
				{
					"inputs": [
						{
							"internalType": "bool",
							"name": "_allow_stale_consults",
							"type": "bool"
						}
					],
					"name": "setAllowStaleConsults",
					"outputs": [],
					"stateMutability": "nonpayable",
					"type": "function"
				},
				{
					"inputs": [
						{
							"internalType": "uint256",
							"name": "_consult_leniency",
							"type": "uint256"
						}
					],
					"name": "setConsultLeniency",
					"outputs": [],
					"stateMutability": "nonpayable",
					"type": "function"
				},
				{
					"inputs": [
						{
							"internalType": "uint256",
							"name": "_period",
							"type": "uint256"
						}
					],
					"name": "setPeriod",
					"outputs": [],
					"stateMutability": "nonpayable",
					"type": "function"
				},
				{
					"inputs": [
						{
							"internalType": "address",
							"name": "_timelock_address",
							"type": "address"
						}
					],
					"name": "setTimelock",
					"outputs": [],
					"stateMutability": "nonpayable",
					"type": "function"
				},
				{
					"inputs": [],
					"name": "token0",
					"outputs": [
						{
							"internalType": "address",
							"name": "",
							"type": "address"
						}
					],
					"stateMutability": "view",
					"type": "function"
				},
				{
					"inputs": [],
					"name": "token1",
					"outputs": [
						{
							"internalType": "address",
							"name": "",
							"type": "address"
						}
					],
					"stateMutability": "view",
					"type": "function"
				},
				{
					"inputs": [],
					"name": "update",
					"outputs": [],
					"stateMutability": "nonpayable",
					"type": "function"
				},
				{
					"inputs": [],
					"name": "version",
					"outputs": [
						{
							"internalType": "uint256",
							"name": "",
							"type": "uint256"
						}
					],
					"stateMutability": "view",
					"type": "function"
				}
			],
			"devdoc": {
				"kind": "dev",
				"methods": {},
				"version": 1
			},
			"evm": {
				"assembly": "    /* \"NewFraxProtocol/contracts/Oracle/UniswapPairOracleExtra.sol\":529:6280  contract UniswapPairOracleExtra is Owned {... */\n  mstore(0x40, 0xe0)\n    /* \"NewFraxProtocol/contracts/Oracle/UniswapPairOracleExtra.sol\":661:665  3600 */\n  0x0e10\n    /* \"NewFraxProtocol/contracts/Oracle/UniswapPairOracleExtra.sol\":640:665  uint public PERIOD = 3600 */\n  0x03\n  sstore\n    /* \"NewFraxProtocol/contracts/Oracle/UniswapPairOracleExtra.sol\":747:750  120 */\n  0x78\n    /* \"NewFraxProtocol/contracts/Oracle/UniswapPairOracleExtra.sol\":716:750  uint public CONSULT_LENIENCY = 120 */\n  0x04\n  sstore\n    /* \"NewFraxProtocol/contracts/Oracle/UniswapPairOracleExtra.sol\":845:849  true */\n  0x01\n    /* \"NewFraxProtocol/contracts/Oracle/UniswapPairOracleExtra.sol\":810:849  bool public ALLOW_STALE_CONSULTS = true */\n  0x05\n  exp(0x0100, 0x00)\n  dup2\n  sload\n  dup2\n  0xff\n  mul\n  not\n  and\n  swap1\n  dup4\n  iszero\n  iszero\n  mul\n  or\n  swap1\n  sstore\n  pop\n    /* \"NewFraxProtocol/contracts/Oracle/UniswapPairOracleExtra.sol\":1322:1326  1e18 */\n  0x0de0b6b3a7640000\n    /* \"NewFraxProtocol/contracts/Oracle/UniswapPairOracleExtra.sol\":1289:1326  uint256 public PRICE_PRECISION = 1e18 */\n  0x0c\n  sstore\n    /* \"NewFraxProtocol/contracts/Oracle/UniswapPairOracleExtra.sol\":1392:1394  18 */\n  0x12\n    /* \"NewFraxProtocol/contracts/Oracle/UniswapPairOracleExtra.sol\":1368:1394  uint8 public decimals = 18 */\n  0x0d\n  exp(0x0100, 0x00)\n  dup2\n  sload\n  dup2\n  0xff\n  mul\n  not\n  and\n  swap1\n  dup4\n  0xff\n  and\n  mul\n  or\n  swap1\n  sstore\n  pop\n    /* \"NewFraxProtocol/contracts/Oracle/UniswapPairOracleExtra.sol\":1456:1457  1 */\n  0x01\n    /* \"NewFraxProtocol/contracts/Oracle/UniswapPairOracleExtra.sol\":1431:1457  uint256 public version = 1 */\n  0x0f\n  sstore\n    /* \"NewFraxProtocol/contracts/Oracle/UniswapPairOracleExtra.sol\":1509:2499  constructor (... */\n  callvalue\n  dup1\n  iszero\n  tag_1\n  jumpi\n  0x00\n  dup1\n  revert\ntag_1:\n  pop\n  mload(0x40)\n  sub(codesize, bytecodeSize)\n  dup1\n  bytecodeSize\n  dup4\n  codecopy\n  dup2\n  dup2\n  add\n  0x40\n  mstore\n  dup2\n  add\n  swap1\n  tag_2\n  swap2\n  swap1\n  tag_3\n  jump\t// in\ntag_2:\n    /* \"NewFraxProtocol/contracts/Oracle/UniswapPairOracleExtra.sol\":1713:1727  _owner_address */\n  dup4\n    /* \"NewFraxProtocol/contracts/Staking/Owned.sol\":272:273  0 */\n  0x00\n    /* \"NewFraxProtocol/contracts/Staking/Owned.sol\":254:274  _owner != address(0) */\n  0xffffffffffffffffffffffffffffffffffffffff\n  and\n    /* \"NewFraxProtocol/contracts/Staking/Owned.sol\":254:260  _owner */\n  dup2\n    /* \"NewFraxProtocol/contracts/Staking/Owned.sol\":254:274  _owner != address(0) */\n  0xffffffffffffffffffffffffffffffffffffffff\n  and\n  eq\n  iszero\n    /* \"NewFraxProtocol/contracts/Staking/Owned.sol\":246:304  require(_owner != address(0), \"Owner address cannot be 0\") */\n  tag_7\n  jumpi\n  mload(0x40)\n  0x08c379a000000000000000000000000000000000000000000000000000000000\n  dup2\n  mstore\n  0x04\n  add\n  tag_8\n  swap1\n  tag_9\n  jump\t// in\ntag_8:\n  mload(0x40)\n  dup1\n  swap2\n  sub\n  swap1\n  revert\ntag_7:\n    /* \"NewFraxProtocol/contracts/Staking/Owned.sol\":322:328  _owner */\n  dup1\n    /* \"NewFraxProtocol/contracts/Staking/Owned.sol\":314:319  owner */\n  0x00\n  dup1\n    /* \"NewFraxProtocol/contracts/Staking/Owned.sol\":314:328  owner = _owner */\n  0x0100\n  exp\n  dup2\n  sload\n  dup2\n  0xffffffffffffffffffffffffffffffffffffffff\n  mul\n  not\n  and\n  swap1\n  dup4\n  0xffffffffffffffffffffffffffffffffffffffff\n  and\n  mul\n  or\n  swap1\n  sstore\n  pop\n    /* \"NewFraxProtocol/contracts/Staking/Owned.sol\":343:375  OwnerChanged(address(0), _owner) */\n  0xb532073b38c83145e3e5135377a08bf9aab55bc0fd7c1179cd4fb995d2a5159c\n    /* \"NewFraxProtocol/contracts/Staking/Owned.sol\":364:365  0 */\n  0x00\n    /* \"NewFraxProtocol/contracts/Staking/Owned.sol\":368:374  _owner */\n  dup3\n    /* \"NewFraxProtocol/contracts/Staking/Owned.sol\":343:375  OwnerChanged(address(0), _owner) */\n  mload(0x40)\n  tag_10\n  swap3\n  swap2\n  swap1\n  tag_11\n  jump\t// in\ntag_10:\n  mload(0x40)\n  dup1\n  swap2\n  sub\n  swap1\n  log1\n    /* \"NewFraxProtocol/contracts/Staking/Owned.sol\":200:382  constructor (address _owner) public {... */\n  pop\n    /* \"NewFraxProtocol/contracts/Oracle/UniswapPairOracleExtra.sol\":1739:1759  IUniswapV2Pair _pair */\n  0x00\n    /* \"NewFraxProtocol/contracts/Oracle/UniswapPairOracleExtra.sol\":1777:1789  pair_address */\n  dup6\n    /* \"NewFraxProtocol/contracts/Oracle/UniswapPairOracleExtra.sol\":1739:1790  IUniswapV2Pair _pair = IUniswapV2Pair(pair_address) */\n  swap1\n  pop\n    /* \"NewFraxProtocol/contracts/Oracle/UniswapPairOracleExtra.sol\":1807:1812  _pair */\n  dup1\n    /* \"NewFraxProtocol/contracts/Oracle/UniswapPairOracleExtra.sol\":1800:1812  pair = _pair */\n  0xffffffffffffffffffffffffffffffffffffffff\n  and\n  0x80\n  dup2\n  0xffffffffffffffffffffffffffffffffffffffff\n  and\n  dup2\n  mstore\n  pop\n  pop\n    /* \"NewFraxProtocol/contracts/Oracle/UniswapPairOracleExtra.sol\":1831:1836  _pair */\n  dup1\n    /* \"NewFraxProtocol/contracts/Oracle/UniswapPairOracleExtra.sol\":1831:1843  _pair.token0 */\n  0xffffffffffffffffffffffffffffffffffffffff\n  and\n  0x0dfe1681\n    /* \"NewFraxProtocol/contracts/Oracle/UniswapPairOracleExtra.sol\":1831:1845  _pair.token0() */\n  mload(0x40)\n  dup2\n  0xffffffff\n  and\n  0xe0\n  shl\n  dup2\n  mstore\n  0x04\n  add\n  0x20\n  mload(0x40)\n  dup1\n  dup4\n  sub\n  dup2\n  dup7\n  dup1\n  extcodesize\n  iszero\n  dup1\n  iszero\n  tag_13\n  jumpi\n  0x00\n  dup1\n  revert\ntag_13:\n  pop\n  gas\n  staticcall\n  iszero\n  dup1\n  iszero\n  tag_15\n  jumpi\n  returndatasize\n  0x00\n  dup1\n  returndatacopy\n  revert(0x00, returndatasize)\ntag_15:\n  pop\n  pop\n  pop\n  pop\n  mload(0x40)\n  returndatasize\n  not(0x1f)\n  0x1f\n  dup3\n  add\n  and\n  dup3\n  add\n  dup1\n  0x40\n  mstore\n  pop\n  dup2\n  add\n  swap1\n  tag_16\n  swap2\n  swap1\n  tag_17\n  jump\t// in\ntag_16:\n    /* \"NewFraxProtocol/contracts/Oracle/UniswapPairOracleExtra.sol\":1822:1845  token0 = _pair.token0() */\n  0xffffffffffffffffffffffffffffffffffffffff\n  and\n  0xa0\n  dup2\n  0xffffffffffffffffffffffffffffffffffffffff\n  and\n  dup2\n  mstore\n  pop\n  pop\n    /* \"NewFraxProtocol/contracts/Oracle/UniswapPairOracleExtra.sol\":1864:1869  _pair */\n  dup1\n    /* \"NewFraxProtocol/contracts/Oracle/UniswapPairOracleExtra.sol\":1864:1876  _pair.token1 */\n  0xffffffffffffffffffffffffffffffffffffffff\n  and\n  0xd21220a7\n    /* \"NewFraxProtocol/contracts/Oracle/UniswapPairOracleExtra.sol\":1864:1878  _pair.token1() */\n  mload(0x40)\n  dup2\n  0xffffffff\n  and\n  0xe0\n  shl\n  dup2\n  mstore\n  0x04\n  add\n  0x20\n  mload(0x40)\n  dup1\n  dup4\n  sub\n  dup2\n  dup7\n  dup1\n  extcodesize\n  iszero\n  dup1\n  iszero\n  tag_18\n  jumpi\n  0x00\n  dup1\n  revert\ntag_18:\n  pop\n  gas\n  staticcall\n  iszero\n  dup1\n  iszero\n  tag_20\n  jumpi\n  returndatasize\n  0x00\n  dup1\n  returndatacopy\n  revert(0x00, returndatasize)\ntag_20:\n  pop\n  pop\n  pop\n  pop\n  mload(0x40)\n  returndatasize\n  not(0x1f)\n  0x1f\n  dup3\n  add\n  and\n  dup3\n  add\n  dup1\n  0x40\n  mstore\n  pop\n  dup2\n  add\n  swap1\n  tag_21\n  swap2\n  swap1\n  tag_17\n  jump\t// in\ntag_21:\n    /* \"NewFraxProtocol/contracts/Oracle/UniswapPairOracleExtra.sol\":1855:1878  token1 = _pair.token1() */\n  0xffffffffffffffffffffffffffffffffffffffff\n  and\n  0xc0\n  dup2\n  0xffffffffffffffffffffffffffffffffffffffff\n  and\n  dup2\n  mstore\n  pop\n  pop\n    /* \"NewFraxProtocol/contracts/Oracle/UniswapPairOracleExtra.sol\":1911:1916  _pair */\n  dup1\n    /* \"NewFraxProtocol/contracts/Oracle/UniswapPairOracleExtra.sol\":1911:1937  _pair.price0CumulativeLast */\n  0xffffffffffffffffffffffffffffffffffffffff\n  and\n  0x5909c0d5\n    /* \"NewFraxProtocol/contracts/Oracle/UniswapPairOracleExtra.sol\":1911:1939  _pair.price0CumulativeLast() */\n  mload(0x40)\n  dup2\n  0xffffffff\n  and\n  0xe0\n  shl\n  dup2\n  mstore\n  0x04\n  add\n  0x20\n  mload(0x40)\n  dup1\n  dup4\n  sub\n  dup2\n  dup7\n  dup1\n  extcodesize\n  iszero\n  dup1\n  iszero\n  tag_22\n  jumpi\n  0x00\n  dup1\n  revert\ntag_22:\n  pop\n  gas\n  staticcall\n  iszero\n  dup1\n  iszero\n  tag_24\n  jumpi\n  returndatasize\n  0x00\n  dup1\n  returndatacopy\n  revert(0x00, returndatasize)\ntag_24:\n  pop\n  pop\n  pop\n  pop\n  mload(0x40)\n  returndatasize\n  not(0x1f)\n  0x1f\n  dup3\n  add\n  and\n  dup3\n  add\n  dup1\n  0x40\n  mstore\n  pop\n  dup2\n  add\n  swap1\n  tag_25\n  swap2\n  swap1\n  tag_26\n  jump\t// in\ntag_25:\n    /* \"NewFraxProtocol/contracts/Oracle/UniswapPairOracleExtra.sol\":1888:1908  price0CumulativeLast */\n  0x06\n    /* \"NewFraxProtocol/contracts/Oracle/UniswapPairOracleExtra.sol\":1888:1939  price0CumulativeLast = _pair.price0CumulativeLast() */\n  dup2\n  swap1\n  sstore\n  pop\n    /* \"NewFraxProtocol/contracts/Oracle/UniswapPairOracleExtra.sol\":2025:2030  _pair */\n  dup1\n    /* \"NewFraxProtocol/contracts/Oracle/UniswapPairOracleExtra.sol\":2025:2051  _pair.price1CumulativeLast */\n  0xffffffffffffffffffffffffffffffffffffffff\n  and\n  0x5a3d5493\n    /* \"NewFraxProtocol/contracts/Oracle/UniswapPairOracleExtra.sol\":2025:2053  _pair.price1CumulativeLast() */\n  mload(0x40)\n  dup2\n  0xffffffff\n  and\n  0xe0\n  shl\n  dup2\n  mstore\n  0x04\n  add\n  0x20\n  mload(0x40)\n  dup1\n  dup4\n  sub\n  dup2\n  dup7\n  dup1\n  extcodesize\n  iszero\n  dup1\n  iszero\n  tag_27\n  jumpi\n  0x00\n  dup1\n  revert\ntag_27:\n  pop\n  gas\n  staticcall\n  iszero\n  dup1\n  iszero\n  tag_29\n  jumpi\n  returndatasize\n  0x00\n  dup1\n  returndatacopy\n  revert(0x00, returndatasize)\ntag_29:\n  pop\n  pop\n  pop\n  pop\n  mload(0x40)\n  returndatasize\n  not(0x1f)\n  0x1f\n  dup3\n  add\n  and\n  dup3\n  add\n  dup1\n  0x40\n  mstore\n  pop\n  dup2\n  add\n  swap1\n  tag_30\n  swap2\n  swap1\n  tag_26\n  jump\t// in\ntag_30:\n    /* \"NewFraxProtocol/contracts/Oracle/UniswapPairOracleExtra.sol\":2002:2022  price1CumulativeLast */\n  0x07\n    /* \"NewFraxProtocol/contracts/Oracle/UniswapPairOracleExtra.sol\":2002:2053  price1CumulativeLast = _pair.price1CumulativeLast() */\n  dup2\n  swap1\n  sstore\n  pop\n    /* \"NewFraxProtocol/contracts/Oracle/UniswapPairOracleExtra.sol\":2116:2132  uint112 reserve0 */\n  0x00\n    /* \"NewFraxProtocol/contracts/Oracle/UniswapPairOracleExtra.sol\":2142:2158  uint112 reserve1 */\n  dup1\n    /* \"NewFraxProtocol/contracts/Oracle/UniswapPairOracleExtra.sol\":2211:2216  _pair */\n  dup3\n    /* \"NewFraxProtocol/contracts/Oracle/UniswapPairOracleExtra.sol\":2211:2228  _pair.getReserves */\n  0xffffffffffffffffffffffffffffffffffffffff\n  and\n  0x0902f1ac\n    /* \"NewFraxProtocol/contracts/Oracle/UniswapPairOracleExtra.sol\":2211:2230  _pair.getReserves() */\n  mload(0x40)\n  dup2\n  0xffffffff\n  and\n  0xe0\n  shl\n  dup2\n  mstore\n  0x04\n  add\n  0x60\n  mload(0x40)\n  dup1\n  dup4\n  sub\n  dup2\n  dup7\n  dup1\n  extcodesize\n  iszero\n  dup1\n  iszero\n  tag_31\n  jumpi\n  0x00\n  dup1\n  revert\ntag_31:\n  pop\n  gas\n  staticcall\n  iszero\n  dup1\n  iszero\n  tag_33\n  jumpi\n  returndatasize\n  0x00\n  dup1\n  returndatacopy\n  revert(0x00, returndatasize)\ntag_33:\n  pop\n  pop\n  pop\n  pop\n  mload(0x40)\n  returndatasize\n  not(0x1f)\n  0x1f\n  dup3\n  add\n  and\n  dup3\n  add\n  dup1\n  0x40\n  mstore\n  pop\n  dup2\n  add\n  swap1\n  tag_34\n  swap2\n  swap1\n  tag_35\n  jump\t// in\ntag_34:\n    /* \"NewFraxProtocol/contracts/Oracle/UniswapPairOracleExtra.sol\":2189:2207  blockTimestampLast */\n  0x08\n  0x00\n    /* \"NewFraxProtocol/contracts/Oracle/UniswapPairOracleExtra.sol\":2168:2230  (reserve0, reserve1, blockTimestampLast) = _pair.getReserves() */\n  dup3\n  swap2\n  swap1\n  0x0100\n  exp\n  dup2\n  sload\n  dup2\n  0xffffffff\n  mul\n  not\n  and\n  swap1\n  dup4\n  0xffffffff\n  and\n  mul\n  or\n  swap1\n  sstore\n  pop\n  dup2\n  swap4\n  pop\n  dup3\n  swap5\n  pop\n  pop\n  pop\n  pop\n    /* \"NewFraxProtocol/contracts/Oracle/UniswapPairOracleExtra.sol\":2260:2261  0 */\n  0x00\n    /* \"NewFraxProtocol/contracts/Oracle/UniswapPairOracleExtra.sol\":2248:2256  reserve0 */\n  dup3\n    /* \"NewFraxProtocol/contracts/Oracle/UniswapPairOracleExtra.sol\":2248:2261  reserve0 != 0 */\n  0xffffffffffffffffffffffffffff\n  and\n  eq\n  iszero\n    /* \"NewFraxProtocol/contracts/Oracle/UniswapPairOracleExtra.sol\":2248:2278  reserve0 != 0 && reserve1 != 0 */\n  dup1\n  iszero\n  tag_36\n  jumpi\n  pop\n    /* \"NewFraxProtocol/contracts/Oracle/UniswapPairOracleExtra.sol\":2277:2278  0 */\n  0x00\n    /* \"NewFraxProtocol/contracts/Oracle/UniswapPairOracleExtra.sol\":2265:2273  reserve1 */\n  dup2\n    /* \"NewFraxProtocol/contracts/Oracle/UniswapPairOracleExtra.sol\":2265:2278  reserve1 != 0 */\n  0xffffffffffffffffffffffffffff\n  and\n  eq\n  iszero\n    /* \"NewFraxProtocol/contracts/Oracle/UniswapPairOracleExtra.sol\":2248:2278  reserve0 != 0 && reserve1 != 0 */\ntag_36:\n    /* \"NewFraxProtocol/contracts/Oracle/UniswapPairOracleExtra.sol\":2240:2313  require(reserve0 != 0 && reserve1 != 0, 'UniswapPairOracle: NO_RESERVES') */\n  tag_37\n  jumpi\n  mload(0x40)\n  0x08c379a000000000000000000000000000000000000000000000000000000000\n  dup2\n  mstore\n  0x04\n  add\n  tag_38\n  swap1\n  tag_39\n  jump\t// in\ntag_38:\n  mload(0x40)\n  dup1\n  swap2\n  sub\n  swap1\n  revert\ntag_37:\n    /* \"NewFraxProtocol/contracts/Oracle/UniswapPairOracleExtra.sol\":2388:2405  _timelock_address */\n  dup6\n    /* \"NewFraxProtocol/contracts/Oracle/UniswapPairOracleExtra.sol\":2369:2385  timelock_address */\n  0x02\n  0x00\n    /* \"NewFraxProtocol/contracts/Oracle/UniswapPairOracleExtra.sol\":2369:2405  timelock_address = _timelock_address */\n  0x0100\n  exp\n  dup2\n  sload\n  dup2\n  0xffffffffffffffffffffffffffffffffffffffff\n  mul\n  not\n  and\n  swap1\n  dup4\n  0xffffffffffffffffffffffffffffffffffffffff\n  and\n  mul\n  or\n  swap1\n  sstore\n  pop\n    /* \"NewFraxProtocol/contracts/Oracle/UniswapPairOracleExtra.sol\":2430:2442  _description */\n  dup5\n    /* \"NewFraxProtocol/contracts/Oracle/UniswapPairOracleExtra.sol\":2416:2427  description */\n  0x0e\n    /* \"NewFraxProtocol/contracts/Oracle/UniswapPairOracleExtra.sol\":2416:2442  description = _description */\n  swap1\n  dup1\n  mload\n  swap1\n  0x20\n  add\n  swap1\n  tag_40\n  swap3\n  swap2\n  swap1\n  tag_41\n  jump\t// in\ntag_40:\n  pop\n    /* \"NewFraxProtocol/contracts/Oracle/UniswapPairOracleExtra.sol\":2473:2492  _address_to_consult */\n  dup4\n    /* \"NewFraxProtocol/contracts/Oracle/UniswapPairOracleExtra.sol\":2452:2470  address_to_consult */\n  0x0b\n  0x00\n    /* \"NewFraxProtocol/contracts/Oracle/UniswapPairOracleExtra.sol\":2452:2492  address_to_consult = _address_to_consult */\n  0x0100\n  exp\n  dup2\n  sload\n  dup2\n  0xffffffffffffffffffffffffffffffffffffffff\n  mul\n  not\n  and\n  swap1\n  dup4\n  0xffffffffffffffffffffffffffffffffffffffff\n  and\n  mul\n  or\n  swap1\n  sstore\n  pop\n    /* \"NewFraxProtocol/contracts/Oracle/UniswapPairOracleExtra.sol\":1729:2499  {... */\n  pop\n  pop\n  pop\n    /* \"NewFraxProtocol/contracts/Oracle/UniswapPairOracleExtra.sol\":1509:2499  constructor (... */\n  pop\n  pop\n  pop\n  pop\n  pop\n    /* \"NewFraxProtocol/contracts/Oracle/UniswapPairOracleExtra.sol\":529:6280  contract UniswapPairOracleExtra is Owned {... */\n  jump(tag_42)\ntag_41:\n  dup3\n  dup1\n  sload\n  tag_43\n  swap1\n  tag_44\n  jump\t// in\ntag_43:\n  swap1\n  0x00\n  mstore\n  keccak256(0x00, 0x20)\n  swap1\n  0x1f\n  add\n  0x20\n  swap1\n  div\n  dup2\n  add\n  swap3\n  dup3\n  tag_46\n  jumpi\n  0x00\n  dup6\n  sstore\n  jump(tag_45)\ntag_46:\n  dup3\n  0x1f\n  lt\n  tag_47\n  jumpi\n  dup1\n  mload\n  not(0xff)\n  and\n  dup4\n  dup1\n  add\n  or\n  dup6\n  sstore\n  jump(tag_45)\ntag_47:\n  dup3\n  dup1\n  add\n  0x01\n  add\n  dup6\n  sstore\n  dup3\n  iszero\n  tag_45\n  jumpi\n  swap2\n  dup3\n  add\ntag_48:\n  dup3\n  dup2\n  gt\n  iszero\n  tag_49\n  jumpi\n  dup3\n  mload\n  dup3\n  sstore\n  swap2\n  0x20\n  add\n  swap2\n  swap1\n  0x01\n  add\n  swap1\n  jump(tag_48)\ntag_49:\ntag_45:\n  pop\n  swap1\n  pop\n  tag_50\n  swap2\n  swap1\n  tag_51\n  jump\t// in\ntag_50:\n  pop\n  swap1\n  jump\t// out\ntag_51:\ntag_52:\n  dup1\n  dup3\n  gt\n  iszero\n  tag_53\n  jumpi\n  0x00\n  dup2\n  0x00\n  swap1\n  sstore\n  pop\n  0x01\n  add\n  jump(tag_52)\ntag_53:\n  pop\n  swap1\n  jump\t// out\n    /* \"#utility.yul\":7:82   */\ntag_54:\n    /* \"#utility.yul\":40:46   */\n  0x00\n    /* \"#utility.yul\":73:75   */\n  0x40\n    /* \"#utility.yul\":67:76   */\n  mload\n    /* \"#utility.yul\":57:76   */\n  swap1\n  pop\n    /* \"#utility.yul\":7:82   */\n  swap1\n  jump\t// out\n    /* \"#utility.yul\":88:205   */\ntag_55:\n    /* \"#utility.yul\":197:198   */\n  0x00\n    /* \"#utility.yul\":194:195   */\n  dup1\n    /* \"#utility.yul\":187:199   */\n  revert\n    /* \"#utility.yul\":211:328   */\ntag_56:\n    /* \"#utility.yul\":320:321   */\n  0x00\n    /* \"#utility.yul\":317:318   */\n  dup1\n    /* \"#utility.yul\":310:322   */\n  revert\n    /* \"#utility.yul\":334:460   */\ntag_57:\n    /* \"#utility.yul\":371:378   */\n  0x00\n    /* \"#utility.yul\":411:453   */\n  0xffffffffffffffffffffffffffffffffffffffff\n    /* \"#utility.yul\":404:409   */\n  dup3\n    /* \"#utility.yul\":400:454   */\n  and\n    /* \"#utility.yul\":389:454   */\n  swap1\n  pop\n    /* \"#utility.yul\":334:460   */\n  swap2\n  swap1\n  pop\n  jump\t// out\n    /* \"#utility.yul\":466:562   */\ntag_58:\n    /* \"#utility.yul\":503:510   */\n  0x00\n    /* \"#utility.yul\":532:556   */\n  tag_93\n    /* \"#utility.yul\":550:555   */\n  dup3\n    /* \"#utility.yul\":532:556   */\n  tag_57\n  jump\t// in\ntag_93:\n    /* \"#utility.yul\":521:556   */\n  swap1\n  pop\n    /* \"#utility.yul\":466:562   */\n  swap2\n  swap1\n  pop\n  jump\t// out\n    /* \"#utility.yul\":568:690   */\ntag_59:\n    /* \"#utility.yul\":641:665   */\n  tag_95\n    /* \"#utility.yul\":659:664   */\n  dup2\n    /* \"#utility.yul\":641:665   */\n  tag_58\n  jump\t// in\ntag_95:\n    /* \"#utility.yul\":634:639   */\n  dup2\n    /* \"#utility.yul\":631:666   */\n  eq\n    /* \"#utility.yul\":621:684   */\n  tag_96\n  jumpi\n    /* \"#utility.yul\":680:681   */\n  0x00\n    /* \"#utility.yul\":677:678   */\n  dup1\n    /* \"#utility.yul\":670:682   */\n  revert\n    /* \"#utility.yul\":621:684   */\ntag_96:\n    /* \"#utility.yul\":568:690   */\n  pop\n  jump\t// out\n    /* \"#utility.yul\":696:839   */\ntag_60:\n    /* \"#utility.yul\":753:758   */\n  0x00\n    /* \"#utility.yul\":784:790   */\n  dup2\n    /* \"#utility.yul\":778:791   */\n  mload\n    /* \"#utility.yul\":769:791   */\n  swap1\n  pop\n    /* \"#utility.yul\":800:833   */\n  tag_98\n    /* \"#utility.yul\":827:832   */\n  dup2\n    /* \"#utility.yul\":800:833   */\n  tag_59\n  jump\t// in\ntag_98:\n    /* \"#utility.yul\":696:839   */\n  swap3\n  swap2\n  pop\n  pop\n  jump\t// out\n    /* \"#utility.yul\":845:962   */\ntag_61:\n    /* \"#utility.yul\":954:955   */\n  0x00\n    /* \"#utility.yul\":951:952   */\n  dup1\n    /* \"#utility.yul\":944:956   */\n  revert\n    /* \"#utility.yul\":968:1085   */\ntag_62:\n    /* \"#utility.yul\":1077:1078   */\n  0x00\n    /* \"#utility.yul\":1074:1075   */\n  dup1\n    /* \"#utility.yul\":1067:1079   */\n  revert\n    /* \"#utility.yul\":1091:1193   */\ntag_63:\n    /* \"#utility.yul\":1132:1138   */\n  0x00\n    /* \"#utility.yul\":1183:1185   */\n  0x1f\n    /* \"#utility.yul\":1179:1186   */\n  not\n    /* \"#utility.yul\":1174:1176   */\n  0x1f\n    /* \"#utility.yul\":1167:1172   */\n  dup4\n    /* \"#utility.yul\":1163:1177   */\n  add\n    /* \"#utility.yul\":1159:1187   */\n  and\n    /* \"#utility.yul\":1149:1187   */\n  swap1\n  pop\n    /* \"#utility.yul\":1091:1193   */\n  swap2\n  swap1\n  pop\n  jump\t// out\n    /* \"#utility.yul\":1199:1379   */\ntag_64:\n    /* \"#utility.yul\":1247:1324   */\n  0x4e487b7100000000000000000000000000000000000000000000000000000000\n    /* \"#utility.yul\":1244:1245   */\n  0x00\n    /* \"#utility.yul\":1237:1325   */\n  mstore\n    /* \"#utility.yul\":1344:1348   */\n  0x41\n    /* \"#utility.yul\":1341:1342   */\n  0x04\n    /* \"#utility.yul\":1334:1349   */\n  mstore\n    /* \"#utility.yul\":1368:1372   */\n  0x24\n    /* \"#utility.yul\":1365:1366   */\n  0x00\n    /* \"#utility.yul\":1358:1373   */\n  revert\n    /* \"#utility.yul\":1385:1666   */\ntag_65:\n    /* \"#utility.yul\":1468:1495   */\n  tag_104\n    /* \"#utility.yul\":1490:1494   */\n  dup3\n    /* \"#utility.yul\":1468:1495   */\n  tag_63\n  jump\t// in\ntag_104:\n    /* \"#utility.yul\":1460:1466   */\n  dup2\n    /* \"#utility.yul\":1456:1496   */\n  add\n    /* \"#utility.yul\":1598:1604   */\n  dup2\n    /* \"#utility.yul\":1586:1596   */\n  dup2\n    /* \"#utility.yul\":1583:1605   */\n  lt\n    /* \"#utility.yul\":1562:1580   */\n  0xffffffffffffffff\n    /* \"#utility.yul\":1550:1560   */\n  dup3\n    /* \"#utility.yul\":1547:1581   */\n  gt\n    /* \"#utility.yul\":1544:1606   */\n  or\n    /* \"#utility.yul\":1541:1629   */\n  iszero\n  tag_105\n  jumpi\n    /* \"#utility.yul\":1609:1627   */\n  tag_106\n  tag_64\n  jump\t// in\ntag_106:\n    /* \"#utility.yul\":1541:1629   */\ntag_105:\n    /* \"#utility.yul\":1649:1659   */\n  dup1\n    /* \"#utility.yul\":1645:1647   */\n  0x40\n    /* \"#utility.yul\":1638:1660   */\n  mstore\n    /* \"#utility.yul\":1428:1666   */\n  pop\n    /* \"#utility.yul\":1385:1666   */\n  pop\n  pop\n  jump\t// out\n    /* \"#utility.yul\":1672:1801   */\ntag_66:\n    /* \"#utility.yul\":1706:1712   */\n  0x00\n    /* \"#utility.yul\":1733:1753   */\n  tag_108\n  tag_54\n  jump\t// in\ntag_108:\n    /* \"#utility.yul\":1723:1753   */\n  swap1\n  pop\n    /* \"#utility.yul\":1762:1795   */\n  tag_109\n    /* \"#utility.yul\":1790:1794   */\n  dup3\n    /* \"#utility.yul\":1782:1788   */\n  dup3\n    /* \"#utility.yul\":1762:1795   */\n  tag_65\n  jump\t// in\ntag_109:\n    /* \"#utility.yul\":1672:1801   */\n  swap2\n  swap1\n  pop\n  jump\t// out\n    /* \"#utility.yul\":1807:2115   */\ntag_67:\n    /* \"#utility.yul\":1869:1873   */\n  0x00\n    /* \"#utility.yul\":1959:1977   */\n  0xffffffffffffffff\n    /* \"#utility.yul\":1951:1957   */\n  dup3\n    /* \"#utility.yul\":1948:1978   */\n  gt\n    /* \"#utility.yul\":1945:2001   */\n  iszero\n  tag_111\n  jumpi\n    /* \"#utility.yul\":1981:1999   */\n  tag_112\n  tag_64\n  jump\t// in\ntag_112:\n    /* \"#utility.yul\":1945:2001   */\ntag_111:\n    /* \"#utility.yul\":2019:2048   */\n  tag_113\n    /* \"#utility.yul\":2041:2047   */\n  dup3\n    /* \"#utility.yul\":2019:2048   */\n  tag_63\n  jump\t// in\ntag_113:\n    /* \"#utility.yul\":2011:2048   */\n  swap1\n  pop\n    /* \"#utility.yul\":2103:2107   */\n  0x20\n    /* \"#utility.yul\":2097:2101   */\n  dup2\n    /* \"#utility.yul\":2093:2108   */\n  add\n    /* \"#utility.yul\":2085:2108   */\n  swap1\n  pop\n    /* \"#utility.yul\":1807:2115   */\n  swap2\n  swap1\n  pop\n  jump\t// out\n    /* \"#utility.yul\":2121:2428   */\ntag_68:\n    /* \"#utility.yul\":2189:2190   */\n  0x00\n    /* \"#utility.yul\":2199:2312   */\ntag_115:\n    /* \"#utility.yul\":2213:2219   */\n  dup4\n    /* \"#utility.yul\":2210:2211   */\n  dup2\n    /* \"#utility.yul\":2207:2220   */\n  lt\n    /* \"#utility.yul\":2199:2312   */\n  iszero\n  tag_117\n  jumpi\n    /* \"#utility.yul\":2298:2299   */\n  dup1\n    /* \"#utility.yul\":2293:2296   */\n  dup3\n    /* \"#utility.yul\":2289:2300   */\n  add\n    /* \"#utility.yul\":2283:2301   */\n  mload\n    /* \"#utility.yul\":2279:2280   */\n  dup2\n    /* \"#utility.yul\":2274:2277   */\n  dup5\n    /* \"#utility.yul\":2270:2281   */\n  add\n    /* \"#utility.yul\":2263:2302   */\n  mstore\n    /* \"#utility.yul\":2235:2237   */\n  0x20\n    /* \"#utility.yul\":2232:2233   */\n  dup2\n    /* \"#utility.yul\":2228:2238   */\n  add\n    /* \"#utility.yul\":2223:2238   */\n  swap1\n  pop\n    /* \"#utility.yul\":2199:2312   */\n  jump(tag_115)\ntag_117:\n    /* \"#utility.yul\":2330:2336   */\n  dup4\n    /* \"#utility.yul\":2327:2328   */\n  dup2\n    /* \"#utility.yul\":2324:2337   */\n  gt\n    /* \"#utility.yul\":2321:2422   */\n  iszero\n  tag_118\n  jumpi\n    /* \"#utility.yul\":2410:2411   */\n  0x00\n    /* \"#utility.yul\":2401:2407   */\n  dup5\n    /* \"#utility.yul\":2396:2399   */\n  dup5\n    /* \"#utility.yul\":2392:2408   */\n  add\n    /* \"#utility.yul\":2385:2412   */\n  mstore\n    /* \"#utility.yul\":2321:2422   */\ntag_118:\n    /* \"#utility.yul\":2170:2428   */\n  pop\n    /* \"#utility.yul\":2121:2428   */\n  pop\n  pop\n  pop\n  jump\t// out\n    /* \"#utility.yul\":2434:2855   */\ntag_69:\n    /* \"#utility.yul\":2523:2528   */\n  0x00\n    /* \"#utility.yul\":2548:2614   */\n  tag_120\n    /* \"#utility.yul\":2564:2613   */\n  tag_121\n    /* \"#utility.yul\":2606:2612   */\n  dup5\n    /* \"#utility.yul\":2564:2613   */\n  tag_67\n  jump\t// in\ntag_121:\n    /* \"#utility.yul\":2548:2614   */\n  tag_66\n  jump\t// in\ntag_120:\n    /* \"#utility.yul\":2539:2614   */\n  swap1\n  pop\n    /* \"#utility.yul\":2637:2643   */\n  dup3\n    /* \"#utility.yul\":2630:2635   */\n  dup2\n    /* \"#utility.yul\":2623:2644   */\n  mstore\n    /* \"#utility.yul\":2675:2679   */\n  0x20\n    /* \"#utility.yul\":2668:2673   */\n  dup2\n    /* \"#utility.yul\":2664:2680   */\n  add\n    /* \"#utility.yul\":2713:2716   */\n  dup5\n    /* \"#utility.yul\":2704:2710   */\n  dup5\n    /* \"#utility.yul\":2699:2702   */\n  dup5\n    /* \"#utility.yul\":2695:2711   */\n  add\n    /* \"#utility.yul\":2692:2717   */\n  gt\n    /* \"#utility.yul\":2689:2801   */\n  iszero\n  tag_122\n  jumpi\n    /* \"#utility.yul\":2720:2799   */\n  tag_123\n  tag_62\n  jump\t// in\ntag_123:\n    /* \"#utility.yul\":2689:2801   */\ntag_122:\n    /* \"#utility.yul\":2810:2849   */\n  tag_124\n    /* \"#utility.yul\":2842:2848   */\n  dup5\n    /* \"#utility.yul\":2837:2840   */\n  dup3\n    /* \"#utility.yul\":2832:2835   */\n  dup6\n    /* \"#utility.yul\":2810:2849   */\n  tag_68\n  jump\t// in\ntag_124:\n    /* \"#utility.yul\":2529:2855   */\n  pop\n    /* \"#utility.yul\":2434:2855   */\n  swap4\n  swap3\n  pop\n  pop\n  pop\n  jump\t// out\n    /* \"#utility.yul\":2875:3230   */\ntag_70:\n    /* \"#utility.yul\":2942:2947   */\n  0x00\n    /* \"#utility.yul\":2991:2994   */\n  dup3\n    /* \"#utility.yul\":2984:2988   */\n  0x1f\n    /* \"#utility.yul\":2976:2982   */\n  dup4\n    /* \"#utility.yul\":2972:2989   */\n  add\n    /* \"#utility.yul\":2968:2995   */\n  slt\n    /* \"#utility.yul\":2958:3080   */\n  tag_126\n  jumpi\n    /* \"#utility.yul\":2999:3078   */\n  tag_127\n  tag_61\n  jump\t// in\ntag_127:\n    /* \"#utility.yul\":2958:3080   */\ntag_126:\n    /* \"#utility.yul\":3109:3115   */\n  dup2\n    /* \"#utility.yul\":3103:3116   */\n  mload\n    /* \"#utility.yul\":3134:3224   */\n  tag_128\n    /* \"#utility.yul\":3220:3223   */\n  dup5\n    /* \"#utility.yul\":3212:3218   */\n  dup3\n    /* \"#utility.yul\":3205:3209   */\n  0x20\n    /* \"#utility.yul\":3197:3203   */\n  dup7\n    /* \"#utility.yul\":3193:3210   */\n  add\n    /* \"#utility.yul\":3134:3224   */\n  tag_69\n  jump\t// in\ntag_128:\n    /* \"#utility.yul\":3125:3224   */\n  swap2\n  pop\n    /* \"#utility.yul\":2948:3230   */\n  pop\n    /* \"#utility.yul\":2875:3230   */\n  swap3\n  swap2\n  pop\n  pop\n  jump\t// out\n    /* \"#utility.yul\":3236:4386   */\ntag_3:\n    /* \"#utility.yul\":3352:3358   */\n  0x00\n    /* \"#utility.yul\":3360:3366   */\n  dup1\n    /* \"#utility.yul\":3368:3374   */\n  0x00\n    /* \"#utility.yul\":3376:3382   */\n  dup1\n    /* \"#utility.yul\":3384:3390   */\n  0x00\n    /* \"#utility.yul\":3433:3436   */\n  0xa0\n    /* \"#utility.yul\":3421:3430   */\n  dup7\n    /* \"#utility.yul\":3412:3419   */\n  dup9\n    /* \"#utility.yul\":3408:3431   */\n  sub\n    /* \"#utility.yul\":3404:3437   */\n  slt\n    /* \"#utility.yul\":3401:3521   */\n  iszero\n  tag_130\n  jumpi\n    /* \"#utility.yul\":3440:3519   */\n  tag_131\n  tag_55\n  jump\t// in\ntag_131:\n    /* \"#utility.yul\":3401:3521   */\ntag_130:\n    /* \"#utility.yul\":3560:3561   */\n  0x00\n    /* \"#utility.yul\":3585:3649   */\n  tag_132\n    /* \"#utility.yul\":3641:3648   */\n  dup9\n    /* \"#utility.yul\":3632:3638   */\n  dup3\n    /* \"#utility.yul\":3621:3630   */\n  dup10\n    /* \"#utility.yul\":3617:3639   */\n  add\n    /* \"#utility.yul\":3585:3649   */\n  tag_60\n  jump\t// in\ntag_132:\n    /* \"#utility.yul\":3575:3649   */\n  swap6\n  pop\n    /* \"#utility.yul\":3531:3659   */\n  pop\n    /* \"#utility.yul\":3698:3700   */\n  0x20\n    /* \"#utility.yul\":3724:3788   */\n  tag_133\n    /* \"#utility.yul\":3780:3787   */\n  dup9\n    /* \"#utility.yul\":3771:3777   */\n  dup3\n    /* \"#utility.yul\":3760:3769   */\n  dup10\n    /* \"#utility.yul\":3756:3778   */\n  add\n    /* \"#utility.yul\":3724:3788   */\n  tag_60\n  jump\t// in\ntag_133:\n    /* \"#utility.yul\":3714:3788   */\n  swap5\n  pop\n    /* \"#utility.yul\":3669:3798   */\n  pop\n    /* \"#utility.yul\":3837:3839   */\n  0x40\n    /* \"#utility.yul\":3863:3927   */\n  tag_134\n    /* \"#utility.yul\":3919:3926   */\n  dup9\n    /* \"#utility.yul\":3910:3916   */\n  dup3\n    /* \"#utility.yul\":3899:3908   */\n  dup10\n    /* \"#utility.yul\":3895:3917   */\n  add\n    /* \"#utility.yul\":3863:3927   */\n  tag_60\n  jump\t// in\ntag_134:\n    /* \"#utility.yul\":3853:3927   */\n  swap4\n  pop\n    /* \"#utility.yul\":3808:3937   */\n  pop\n    /* \"#utility.yul\":3997:3999   */\n  0x60\n    /* \"#utility.yul\":3986:3995   */\n  dup7\n    /* \"#utility.yul\":3982:4000   */\n  add\n    /* \"#utility.yul\":3976:4001   */\n  mload\n    /* \"#utility.yul\":4028:4046   */\n  0xffffffffffffffff\n    /* \"#utility.yul\":4020:4026   */\n  dup2\n    /* \"#utility.yul\":4017:4047   */\n  gt\n    /* \"#utility.yul\":4014:4131   */\n  iszero\n  tag_135\n  jumpi\n    /* \"#utility.yul\":4050:4129   */\n  tag_136\n  tag_56\n  jump\t// in\ntag_136:\n    /* \"#utility.yul\":4014:4131   */\ntag_135:\n    /* \"#utility.yul\":4155:4229   */\n  tag_137\n    /* \"#utility.yul\":4221:4228   */\n  dup9\n    /* \"#utility.yul\":4212:4218   */\n  dup3\n    /* \"#utility.yul\":4201:4210   */\n  dup10\n    /* \"#utility.yul\":4197:4219   */\n  add\n    /* \"#utility.yul\":4155:4229   */\n  tag_70\n  jump\t// in\ntag_137:\n    /* \"#utility.yul\":4145:4229   */\n  swap3\n  pop\n    /* \"#utility.yul\":3947:4239   */\n  pop\n    /* \"#utility.yul\":4278:4281   */\n  0x80\n    /* \"#utility.yul\":4305:4369   */\n  tag_138\n    /* \"#utility.yul\":4361:4368   */\n  dup9\n    /* \"#utility.yul\":4352:4358   */\n  dup3\n    /* \"#utility.yul\":4341:4350   */\n  dup10\n    /* \"#utility.yul\":4337:4359   */\n  add\n    /* \"#utility.yul\":4305:4369   */\n  tag_60\n  jump\t// in\ntag_138:\n    /* \"#utility.yul\":4295:4369   */\n  swap2\n  pop\n    /* \"#utility.yul\":4249:4379   */\n  pop\n    /* \"#utility.yul\":3236:4386   */\n  swap3\n  swap6\n  pop\n  swap3\n  swap6\n  swap1\n  swap4\n  pop\n  jump\t// out\n    /* \"#utility.yul\":4392:4561   */\ntag_71:\n    /* \"#utility.yul\":4476:4487   */\n  0x00\n    /* \"#utility.yul\":4510:4516   */\n  dup3\n    /* \"#utility.yul\":4505:4508   */\n  dup3\n    /* \"#utility.yul\":4498:4517   */\n  mstore\n    /* \"#utility.yul\":4550:4554   */\n  0x20\n    /* \"#utility.yul\":4545:4548   */\n  dup3\n    /* \"#utility.yul\":4541:4555   */\n  add\n    /* \"#utility.yul\":4526:4555   */\n  swap1\n  pop\n    /* \"#utility.yul\":4392:4561   */\n  swap3\n  swap2\n  pop\n  pop\n  jump\t// out\n    /* \"#utility.yul\":4567:4742   */\ntag_72:\n    /* \"#utility.yul\":4707:4734   */\n  0x4f776e657220616464726573732063616e6e6f74206265203000000000000000\n    /* \"#utility.yul\":4703:4704   */\n  0x00\n    /* \"#utility.yul\":4695:4701   */\n  dup3\n    /* \"#utility.yul\":4691:4705   */\n  add\n    /* \"#utility.yul\":4684:4735   */\n  mstore\n    /* \"#utility.yul\":4567:4742   */\n  pop\n  jump\t// out\n    /* \"#utility.yul\":4748:5114   */\ntag_73:\n    /* \"#utility.yul\":4890:4893   */\n  0x00\n    /* \"#utility.yul\":4911:4978   */\n  tag_142\n    /* \"#utility.yul\":4975:4977   */\n  0x19\n    /* \"#utility.yul\":4970:4973   */\n  dup4\n    /* \"#utility.yul\":4911:4978   */\n  tag_71\n  jump\t// in\ntag_142:\n    /* \"#utility.yul\":4904:4978   */\n  swap2\n  pop\n    /* \"#utility.yul\":4987:5080   */\n  tag_143\n    /* \"#utility.yul\":5076:5079   */\n  dup3\n    /* \"#utility.yul\":4987:5080   */\n  tag_72\n  jump\t// in\ntag_143:\n    /* \"#utility.yul\":5105:5107   */\n  0x20\n    /* \"#utility.yul\":5100:5103   */\n  dup3\n    /* \"#utility.yul\":5096:5108   */\n  add\n    /* \"#utility.yul\":5089:5108   */\n  swap1\n  pop\n    /* \"#utility.yul\":4748:5114   */\n  swap2\n  swap1\n  pop\n  jump\t// out\n    /* \"#utility.yul\":5120:5539   */\ntag_9:\n    /* \"#utility.yul\":5286:5290   */\n  0x00\n    /* \"#utility.yul\":5324:5326   */\n  0x20\n    /* \"#utility.yul\":5313:5322   */\n  dup3\n    /* \"#utility.yul\":5309:5327   */\n  add\n    /* \"#utility.yul\":5301:5327   */\n  swap1\n  pop\n    /* \"#utility.yul\":5373:5382   */\n  dup2\n    /* \"#utility.yul\":5367:5371   */\n  dup2\n    /* \"#utility.yul\":5363:5383   */\n  sub\n    /* \"#utility.yul\":5359:5360   */\n  0x00\n    /* \"#utility.yul\":5348:5357   */\n  dup4\n    /* \"#utility.yul\":5344:5361   */\n  add\n    /* \"#utility.yul\":5337:5384   */\n  mstore\n    /* \"#utility.yul\":5401:5532   */\n  tag_145\n    /* \"#utility.yul\":5527:5531   */\n  dup2\n    /* \"#utility.yul\":5401:5532   */\n  tag_73\n  jump\t// in\ntag_145:\n    /* \"#utility.yul\":5393:5532   */\n  swap1\n  pop\n    /* \"#utility.yul\":5120:5539   */\n  swap2\n  swap1\n  pop\n  jump\t// out\n    /* \"#utility.yul\":5545:5663   */\ntag_74:\n    /* \"#utility.yul\":5632:5656   */\n  tag_147\n    /* \"#utility.yul\":5650:5655   */\n  dup2\n    /* \"#utility.yul\":5632:5656   */\n  tag_58\n  jump\t// in\ntag_147:\n    /* \"#utility.yul\":5627:5630   */\n  dup3\n    /* \"#utility.yul\":5620:5657   */\n  mstore\n    /* \"#utility.yul\":5545:5663   */\n  pop\n  pop\n  jump\t// out\n    /* \"#utility.yul\":5669:6001   */\ntag_11:\n    /* \"#utility.yul\":5790:5794   */\n  0x00\n    /* \"#utility.yul\":5828:5830   */\n  0x40\n    /* \"#utility.yul\":5817:5826   */\n  dup3\n    /* \"#utility.yul\":5813:5831   */\n  add\n    /* \"#utility.yul\":5805:5831   */\n  swap1\n  pop\n    /* \"#utility.yul\":5841:5912   */\n  tag_149\n    /* \"#utility.yul\":5909:5910   */\n  0x00\n    /* \"#utility.yul\":5898:5907   */\n  dup4\n    /* \"#utility.yul\":5894:5911   */\n  add\n    /* \"#utility.yul\":5885:5891   */\n  dup6\n    /* \"#utility.yul\":5841:5912   */\n  tag_74\n  jump\t// in\ntag_149:\n    /* \"#utility.yul\":5922:5994   */\n  tag_150\n    /* \"#utility.yul\":5990:5992   */\n  0x20\n    /* \"#utility.yul\":5979:5988   */\n  dup4\n    /* \"#utility.yul\":5975:5993   */\n  add\n    /* \"#utility.yul\":5966:5972   */\n  dup5\n    /* \"#utility.yul\":5922:5994   */\n  tag_74\n  jump\t// in\ntag_150:\n    /* \"#utility.yul\":5669:6001   */\n  swap4\n  swap3\n  pop\n  pop\n  pop\n  jump\t// out\n    /* \"#utility.yul\":6007:6358   */\ntag_17:\n    /* \"#utility.yul\":6077:6083   */\n  0x00\n    /* \"#utility.yul\":6126:6128   */\n  0x20\n    /* \"#utility.yul\":6114:6123   */\n  dup3\n    /* \"#utility.yul\":6105:6112   */\n  dup5\n    /* \"#utility.yul\":6101:6124   */\n  sub\n    /* \"#utility.yul\":6097:6129   */\n  slt\n    /* \"#utility.yul\":6094:6213   */\n  iszero\n  tag_152\n  jumpi\n    /* \"#utility.yul\":6132:6211   */\n  tag_153\n  tag_55\n  jump\t// in\ntag_153:\n    /* \"#utility.yul\":6094:6213   */\ntag_152:\n    /* \"#utility.yul\":6252:6253   */\n  0x00\n    /* \"#utility.yul\":6277:6341   */\n  tag_154\n    /* \"#utility.yul\":6333:6340   */\n  dup5\n    /* \"#utility.yul\":6324:6330   */\n  dup3\n    /* \"#utility.yul\":6313:6322   */\n  dup6\n    /* \"#utility.yul\":6309:6331   */\n  add\n    /* \"#utility.yul\":6277:6341   */\n  tag_60\n  jump\t// in\ntag_154:\n    /* \"#utility.yul\":6267:6341   */\n  swap2\n  pop\n    /* \"#utility.yul\":6223:6351   */\n  pop\n    /* \"#utility.yul\":6007:6358   */\n  swap3\n  swap2\n  pop\n  pop\n  jump\t// out\n    /* \"#utility.yul\":6364:6441   */\ntag_75:\n    /* \"#utility.yul\":6401:6408   */\n  0x00\n    /* \"#utility.yul\":6430:6435   */\n  dup2\n    /* \"#utility.yul\":6419:6435   */\n  swap1\n  pop\n    /* \"#utility.yul\":6364:6441   */\n  swap2\n  swap1\n  pop\n  jump\t// out\n    /* \"#utility.yul\":6447:6569   */\ntag_76:\n    /* \"#utility.yul\":6520:6544   */\n  tag_157\n    /* \"#utility.yul\":6538:6543   */\n  dup2\n    /* \"#utility.yul\":6520:6544   */\n  tag_75\n  jump\t// in\ntag_157:\n    /* \"#utility.yul\":6513:6518   */\n  dup2\n    /* \"#utility.yul\":6510:6545   */\n  eq\n    /* \"#utility.yul\":6500:6563   */\n  tag_158\n  jumpi\n    /* \"#utility.yul\":6559:6560   */\n  0x00\n    /* \"#utility.yul\":6556:6557   */\n  dup1\n    /* \"#utility.yul\":6549:6561   */\n  revert\n    /* \"#utility.yul\":6500:6563   */\ntag_158:\n    /* \"#utility.yul\":6447:6569   */\n  pop\n  jump\t// out\n    /* \"#utility.yul\":6575:6718   */\ntag_77:\n    /* \"#utility.yul\":6632:6637   */\n  0x00\n    /* \"#utility.yul\":6663:6669   */\n  dup2\n    /* \"#utility.yul\":6657:6670   */\n  mload\n    /* \"#utility.yul\":6648:6670   */\n  swap1\n  pop\n    /* \"#utility.yul\":6679:6712   */\n  tag_160\n    /* \"#utility.yul\":6706:6711   */\n  dup2\n    /* \"#utility.yul\":6679:6712   */\n  tag_76\n  jump\t// in\ntag_160:\n    /* \"#utility.yul\":6575:6718   */\n  swap3\n  swap2\n  pop\n  pop\n  jump\t// out\n    /* \"#utility.yul\":6724:7075   */\ntag_26:\n    /* \"#utility.yul\":6794:6800   */\n  0x00\n    /* \"#utility.yul\":6843:6845   */\n  0x20\n    /* \"#utility.yul\":6831:6840   */\n  dup3\n    /* \"#utility.yul\":6822:6829   */\n  dup5\n    /* \"#utility.yul\":6818:6841   */\n  sub\n    /* \"#utility.yul\":6814:6846   */\n  slt\n    /* \"#utility.yul\":6811:6930   */\n  iszero\n  tag_162\n  jumpi\n    /* \"#utility.yul\":6849:6928   */\n  tag_163\n  tag_55\n  jump\t// in\ntag_163:\n    /* \"#utility.yul\":6811:6930   */\ntag_162:\n    /* \"#utility.yul\":6969:6970   */\n  0x00\n    /* \"#utility.yul\":6994:7058   */\n  tag_164\n    /* \"#utility.yul\":7050:7057   */\n  dup5\n    /* \"#utility.yul\":7041:7047   */\n  dup3\n    /* \"#utility.yul\":7030:7039   */\n  dup6\n    /* \"#utility.yul\":7026:7048   */\n  add\n    /* \"#utility.yul\":6994:7058   */\n  tag_77\n  jump\t// in\ntag_164:\n    /* \"#utility.yul\":6984:7058   */\n  swap2\n  pop\n    /* \"#utility.yul\":6940:7068   */\n  pop\n    /* \"#utility.yul\":6724:7075   */\n  swap3\n  swap2\n  pop\n  pop\n  jump\t// out\n    /* \"#utility.yul\":7081:7195   */\ntag_78:\n    /* \"#utility.yul\":7118:7125   */\n  0x00\n    /* \"#utility.yul\":7158:7188   */\n  0xffffffffffffffffffffffffffff\n    /* \"#utility.yul\":7151:7156   */\n  dup3\n    /* \"#utility.yul\":7147:7189   */\n  and\n    /* \"#utility.yul\":7136:7189   */\n  swap1\n  pop\n    /* \"#utility.yul\":7081:7195   */\n  swap2\n  swap1\n  pop\n  jump\t// out\n    /* \"#utility.yul\":7201:7323   */\ntag_79:\n    /* \"#utility.yul\":7274:7298   */\n  tag_167\n    /* \"#utility.yul\":7292:7297   */\n  dup2\n    /* \"#utility.yul\":7274:7298   */\n  tag_78\n  jump\t// in\ntag_167:\n    /* \"#utility.yul\":7267:7272   */\n  dup2\n    /* \"#utility.yul\":7264:7299   */\n  eq\n    /* \"#utility.yul\":7254:7317   */\n  tag_168\n  jumpi\n    /* \"#utility.yul\":7313:7314   */\n  0x00\n    /* \"#utility.yul\":7310:7311   */\n  dup1\n    /* \"#utility.yul\":7303:7315   */\n  revert\n    /* \"#utility.yul\":7254:7317   */\ntag_168:\n    /* \"#utility.yul\":7201:7323   */\n  pop\n  jump\t// out\n    /* \"#utility.yul\":7329:7472   */\ntag_80:\n    /* \"#utility.yul\":7386:7391   */\n  0x00\n    /* \"#utility.yul\":7417:7423   */\n  dup2\n    /* \"#utility.yul\":7411:7424   */\n  mload\n    /* \"#utility.yul\":7402:7424   */\n  swap1\n  pop\n    /* \"#utility.yul\":7433:7466   */\n  tag_170\n    /* \"#utility.yul\":7460:7465   */\n  dup2\n    /* \"#utility.yul\":7433:7466   */\n  tag_79\n  jump\t// in\ntag_170:\n    /* \"#utility.yul\":7329:7472   */\n  swap3\n  swap2\n  pop\n  pop\n  jump\t// out\n    /* \"#utility.yul\":7478:7571   */\ntag_81:\n    /* \"#utility.yul\":7514:7521   */\n  0x00\n    /* \"#utility.yul\":7554:7564   */\n  0xffffffff\n    /* \"#utility.yul\":7547:7552   */\n  dup3\n    /* \"#utility.yul\":7543:7565   */\n  and\n    /* \"#utility.yul\":7532:7565   */\n  swap1\n  pop\n    /* \"#utility.yul\":7478:7571   */\n  swap2\n  swap1\n  pop\n  jump\t// out\n    /* \"#utility.yul\":7577:7697   */\ntag_82:\n    /* \"#utility.yul\":7649:7672   */\n  tag_173\n    /* \"#utility.yul\":7666:7671   */\n  dup2\n    /* \"#utility.yul\":7649:7672   */\n  tag_81\n  jump\t// in\ntag_173:\n    /* \"#utility.yul\":7642:7647   */\n  dup2\n    /* \"#utility.yul\":7639:7673   */\n  eq\n    /* \"#utility.yul\":7629:7691   */\n  tag_174\n  jumpi\n    /* \"#utility.yul\":7687:7688   */\n  0x00\n    /* \"#utility.yul\":7684:7685   */\n  dup1\n    /* \"#utility.yul\":7677:7689   */\n  revert\n    /* \"#utility.yul\":7629:7691   */\ntag_174:\n    /* \"#utility.yul\":7577:7697   */\n  pop\n  jump\t// out\n    /* \"#utility.yul\":7703:7844   */\ntag_83:\n    /* \"#utility.yul\":7759:7764   */\n  0x00\n    /* \"#utility.yul\":7790:7796   */\n  dup2\n    /* \"#utility.yul\":7784:7797   */\n  mload\n    /* \"#utility.yul\":7775:7797   */\n  swap1\n  pop\n    /* \"#utility.yul\":7806:7838   */\n  tag_176\n    /* \"#utility.yul\":7832:7837   */\n  dup2\n    /* \"#utility.yul\":7806:7838   */\n  tag_82\n  jump\t// in\ntag_176:\n    /* \"#utility.yul\":7703:7844   */\n  swap3\n  swap2\n  pop\n  pop\n  jump\t// out\n    /* \"#utility.yul\":7850:8511   */\ntag_35:\n    /* \"#utility.yul\":7937:7943   */\n  0x00\n    /* \"#utility.yul\":7945:7951   */\n  dup1\n    /* \"#utility.yul\":7953:7959   */\n  0x00\n    /* \"#utility.yul\":8002:8004   */\n  0x60\n    /* \"#utility.yul\":7990:7999   */\n  dup5\n    /* \"#utility.yul\":7981:7988   */\n  dup7\n    /* \"#utility.yul\":7977:8000   */\n  sub\n    /* \"#utility.yul\":7973:8005   */\n  slt\n    /* \"#utility.yul\":7970:8089   */\n  iszero\n  tag_178\n  jumpi\n    /* \"#utility.yul\":8008:8087   */\n  tag_179\n  tag_55\n  jump\t// in\ntag_179:\n    /* \"#utility.yul\":7970:8089   */\ntag_178:\n    /* \"#utility.yul\":8128:8129   */\n  0x00\n    /* \"#utility.yul\":8153:8217   */\n  tag_180\n    /* \"#utility.yul\":8209:8216   */\n  dup7\n    /* \"#utility.yul\":8200:8206   */\n  dup3\n    /* \"#utility.yul\":8189:8198   */\n  dup8\n    /* \"#utility.yul\":8185:8207   */\n  add\n    /* \"#utility.yul\":8153:8217   */\n  tag_80\n  jump\t// in\ntag_180:\n    /* \"#utility.yul\":8143:8217   */\n  swap4\n  pop\n    /* \"#utility.yul\":8099:8227   */\n  pop\n    /* \"#utility.yul\":8266:8268   */\n  0x20\n    /* \"#utility.yul\":8292:8356   */\n  tag_181\n    /* \"#utility.yul\":8348:8355   */\n  dup7\n    /* \"#utility.yul\":8339:8345   */\n  dup3\n    /* \"#utility.yul\":8328:8337   */\n  dup8\n    /* \"#utility.yul\":8324:8346   */\n  add\n    /* \"#utility.yul\":8292:8356   */\n  tag_80\n  jump\t// in\ntag_181:\n    /* \"#utility.yul\":8282:8356   */\n  swap3\n  pop\n    /* \"#utility.yul\":8237:8366   */\n  pop\n    /* \"#utility.yul\":8405:8407   */\n  0x40\n    /* \"#utility.yul\":8431:8494   */\n  tag_182\n    /* \"#utility.yul\":8486:8493   */\n  dup7\n    /* \"#utility.yul\":8477:8483   */\n  dup3\n    /* \"#utility.yul\":8466:8475   */\n  dup8\n    /* \"#utility.yul\":8462:8484   */\n  add\n    /* \"#utility.yul\":8431:8494   */\n  tag_83\n  jump\t// in\ntag_182:\n    /* \"#utility.yul\":8421:8494   */\n  swap2\n  pop\n    /* \"#utility.yul\":8376:8504   */\n  pop\n    /* \"#utility.yul\":7850:8511   */\n  swap3\n  pop\n  swap3\n  pop\n  swap3\n  jump\t// out\n    /* \"#utility.yul\":8517:8697   */\ntag_84:\n    /* \"#utility.yul\":8657:8689   */\n  0x556e6973776170506169724f7261636c653a204e4f5f52455345525645530000\n    /* \"#utility.yul\":8653:8654   */\n  0x00\n    /* \"#utility.yul\":8645:8651   */\n  dup3\n    /* \"#utility.yul\":8641:8655   */\n  add\n    /* \"#utility.yul\":8634:8690   */\n  mstore\n    /* \"#utility.yul\":8517:8697   */\n  pop\n  jump\t// out\n    /* \"#utility.yul\":8703:9069   */\ntag_85:\n    /* \"#utility.yul\":8845:8848   */\n  0x00\n    /* \"#utility.yul\":8866:8933   */\n  tag_185\n    /* \"#utility.yul\":8930:8932   */\n  0x1e\n    /* \"#utility.yul\":8925:8928   */\n  dup4\n    /* \"#utility.yul\":8866:8933   */\n  tag_71\n  jump\t// in\ntag_185:\n    /* \"#utility.yul\":8859:8933   */\n  swap2\n  pop\n    /* \"#utility.yul\":8942:9035   */\n  tag_186\n    /* \"#utility.yul\":9031:9034   */\n  dup3\n    /* \"#utility.yul\":8942:9035   */\n  tag_84\n  jump\t// in\ntag_186:\n    /* \"#utility.yul\":9060:9062   */\n  0x20\n    /* \"#utility.yul\":9055:9058   */\n  dup3\n    /* \"#utility.yul\":9051:9063   */\n  add\n    /* \"#utility.yul\":9044:9063   */\n  swap1\n  pop\n    /* \"#utility.yul\":8703:9069   */\n  swap2\n  swap1\n  pop\n  jump\t// out\n    /* \"#utility.yul\":9075:9494   */\ntag_39:\n    /* \"#utility.yul\":9241:9245   */\n  0x00\n    /* \"#utility.yul\":9279:9281   */\n  0x20\n    /* \"#utility.yul\":9268:9277   */\n  dup3\n    /* \"#utility.yul\":9264:9282   */\n  add\n    /* \"#utility.yul\":9256:9282   */\n  swap1\n  pop\n    /* \"#utility.yul\":9328:9337   */\n  dup2\n    /* \"#utility.yul\":9322:9326   */\n  dup2\n    /* \"#utility.yul\":9318:9338   */\n  sub\n    /* \"#utility.yul\":9314:9315   */\n  0x00\n    /* \"#utility.yul\":9303:9312   */\n  dup4\n    /* \"#utility.yul\":9299:9316   */\n  add\n    /* \"#utility.yul\":9292:9339   */\n  mstore\n    /* \"#utility.yul\":9356:9487   */\n  tag_188\n    /* \"#utility.yul\":9482:9486   */\n  dup2\n    /* \"#utility.yul\":9356:9487   */\n  tag_85\n  jump\t// in\ntag_188:\n    /* \"#utility.yul\":9348:9487   */\n  swap1\n  pop\n    /* \"#utility.yul\":9075:9494   */\n  swap2\n  swap1\n  pop\n  jump\t// out\n    /* \"#utility.yul\":9500:9680   */\ntag_86:\n    /* \"#utility.yul\":9548:9625   */\n  0x4e487b7100000000000000000000000000000000000000000000000000000000\n    /* \"#utility.yul\":9545:9546   */\n  0x00\n    /* \"#utility.yul\":9538:9626   */\n  mstore\n    /* \"#utility.yul\":9645:9649   */\n  0x22\n    /* \"#utility.yul\":9642:9643   */\n  0x04\n    /* \"#utility.yul\":9635:9650   */\n  mstore\n    /* \"#utility.yul\":9669:9673   */\n  0x24\n    /* \"#utility.yul\":9666:9667   */\n  0x00\n    /* \"#utility.yul\":9659:9674   */\n  revert\n    /* \"#utility.yul\":9686:10006   */\ntag_44:\n    /* \"#utility.yul\":9730:9736   */\n  0x00\n    /* \"#utility.yul\":9767:9768   */\n  0x02\n    /* \"#utility.yul\":9761:9765   */\n  dup3\n    /* \"#utility.yul\":9757:9769   */\n  div\n    /* \"#utility.yul\":9747:9769   */\n  swap1\n  pop\n    /* \"#utility.yul\":9814:9815   */\n  0x01\n    /* \"#utility.yul\":9808:9812   */\n  dup3\n    /* \"#utility.yul\":9804:9816   */\n  and\n    /* \"#utility.yul\":9835:9853   */\n  dup1\n    /* \"#utility.yul\":9825:9906   */\n  tag_191\n  jumpi\n    /* \"#utility.yul\":9891:9895   */\n  0x7f\n    /* \"#utility.yul\":9883:9889   */\n  dup3\n    /* \"#utility.yul\":9879:9896   */\n  and\n    /* \"#utility.yul\":9869:9896   */\n  swap2\n  pop\n    /* \"#utility.yul\":9825:9906   */\ntag_191:\n    /* \"#utility.yul\":9953:9955   */\n  0x20\n    /* \"#utility.yul\":9945:9951   */\n  dup3\n    /* \"#utility.yul\":9942:9956   */\n  lt\n    /* \"#utility.yul\":9922:9940   */\n  dup2\n    /* \"#utility.yul\":9919:9957   */\n  eq\n    /* \"#utility.yul\":9916:10000   */\n  iszero\n  tag_192\n  jumpi\n    /* \"#utility.yul\":9972:9990   */\n  tag_193\n  tag_86\n  jump\t// in\ntag_193:\n    /* \"#utility.yul\":9916:10000   */\ntag_192:\n    /* \"#utility.yul\":9737:10006   */\n  pop\n    /* \"#utility.yul\":9686:10006   */\n  swap2\n  swap1\n  pop\n  jump\t// out\n    /* \"NewFraxProtocol/contracts/Oracle/UniswapPairOracleExtra.sol\":529:6280  contract UniswapPairOracleExtra is Owned {... */\ntag_42:\n  mload(0x80)\n  mload(0xa0)\n  mload(0xc0)\n  codecopy(0x00, dataOffset(sub_0), dataSize(sub_0))\n  0x00\n  assignImmutable(\"0x0f1bcf290b66a2cfed5f23463bc63e98c2b29d8093b3c4b39be593d60dfd3630\")\n  0x00\n  assignImmutable(\"0x937a83b1fb35606d63f1d9b9e924837433ad32450590eb1d8129d7cf4887e815\")\n  0x00\n  assignImmutable(\"0x586bc28d3054f4dbe055d394fb07178550ffa07719f13030471f37cfde70ca83\")\n  return(0x00, dataSize(sub_0))\nstop\n\nsub_0: assembly {\n        /* \"NewFraxProtocol/contracts/Oracle/UniswapPairOracleExtra.sol\":529:6280  contract UniswapPairOracleExtra is Owned {... */\n      mstore(0x40, 0x80)\n      callvalue\n      dup1\n      iszero\n      tag_1\n      jumpi\n      0x00\n      dup1\n      revert\n    tag_1:\n      pop\n      jumpi(tag_2, lt(calldatasize, 0x04))\n      shr(0xe0, calldataload(0x00))\n      dup1\n      0x74b04ab4\n      gt\n      tag_32\n      jumpi\n      dup1\n      0xa6bb4539\n      gt\n      tag_33\n      jumpi\n      dup1\n      0xc5700a02\n      gt\n      tag_34\n      jumpi\n      dup1\n      0xc5700a02\n      eq\n      tag_28\n      jumpi\n      dup1\n      0xd21220a7\n      eq\n      tag_29\n      jumpi\n      dup1\n      0xf1551aea\n      eq\n      tag_30\n      jumpi\n      dup1\n      0xfeaf968c\n      eq\n      tag_31\n      jumpi\n      jump(tag_2)\n    tag_34:\n      dup1\n      0xa6bb4539\n      eq\n      tag_24\n      jumpi\n      dup1\n      0xa8aa1b31\n      eq\n      tag_25\n      jumpi\n      dup1\n      0xb4d1d795\n      eq\n      tag_26\n      jumpi\n      dup1\n      0xbdacb303\n      eq\n      tag_27\n      jumpi\n      jump(tag_2)\n    tag_33:\n      dup1\n      0x95082d25\n      gt\n      tag_35\n      jumpi\n      dup1\n      0x95082d25\n      eq\n      tag_20\n      jumpi\n      dup1\n      0x9a6fc8f5\n      eq\n      tag_21\n      jumpi\n      dup1\n      0xa17a2685\n      eq\n      tag_22\n      jumpi\n      dup1\n      0xa2e62045\n      eq\n      tag_23\n      jumpi\n      jump(tag_2)\n    tag_35:\n      dup1\n      0x74b04ab4\n      eq\n      tag_17\n      jumpi\n      dup1\n      0x79ba5097\n      eq\n      tag_18\n      jumpi\n      dup1\n      0x8da5cb5b\n      eq\n      tag_19\n      jumpi\n      jump(tag_2)\n    tag_32:\n      dup1\n      0x53a47bb7\n      gt\n      tag_36\n      jumpi\n      dup1\n      0x5a3d5493\n      gt\n      tag_37\n      jumpi\n      dup1\n      0x5a3d5493\n      eq\n      tag_13\n      jumpi\n      dup1\n      0x5cb9a714\n      eq\n      tag_14\n      jumpi\n      dup1\n      0x5e6aaf2c\n      eq\n      tag_15\n      jumpi\n      dup1\n      0x7284e416\n      eq\n      tag_16\n      jumpi\n      jump(tag_2)\n    tag_37:\n      dup1\n      0x53a47bb7\n      eq\n      tag_10\n      jumpi\n      dup1\n      0x54fd4d50\n      eq\n      tag_11\n      jumpi\n      dup1\n      0x5909c0d5\n      eq\n      tag_12\n      jumpi\n      jump(tag_2)\n    tag_36:\n      dup1\n      0x1ac2c825\n      gt\n      tag_38\n      jumpi\n      dup1\n      0x1ac2c825\n      eq\n      tag_6\n      jumpi\n      dup1\n      0x313ce567\n      eq\n      tag_7\n      jumpi\n      dup1\n      0x3ddac953\n      eq\n      tag_8\n      jumpi\n      dup1\n      0x3fcb55ca\n      eq\n      tag_9\n      jumpi\n      jump(tag_2)\n    tag_38:\n      dup1\n      0x0dfe1681\n      eq\n      tag_3\n      jumpi\n      dup1\n      0x0f3a9f65\n      eq\n      tag_4\n      jumpi\n      dup1\n      0x1627540c\n      eq\n      tag_5\n      jumpi\n    tag_2:\n      0x00\n      dup1\n      revert\n        /* \"NewFraxProtocol/contracts/Oracle/UniswapPairOracleExtra.sol\":952:983  address public immutable token0 */\n    tag_3:\n      tag_39\n      tag_40\n      jump\t// in\n    tag_39:\n      mload(0x40)\n      tag_41\n      swap2\n      swap1\n      tag_42\n      jump\t// in\n    tag_41:\n      mload(0x40)\n      dup1\n      swap2\n      sub\n      swap1\n      return\n        /* \"NewFraxProtocol/contracts/Oracle/UniswapPairOracleExtra.sol\":5766:5854  function setPeriod(uint _period) external onlyByOwnGov {... */\n    tag_4:\n      tag_43\n      0x04\n      dup1\n      calldatasize\n      sub\n      dup2\n      add\n      swap1\n      tag_44\n      swap2\n      swap1\n      tag_45\n      jump\t// in\n    tag_44:\n      tag_46\n      jump\t// in\n    tag_43:\n      stop\n        /* \"NewFraxProtocol/contracts/Staking/Owned.sol\":388:526  function nominateNewOwner(address _owner) external onlyOwner {... */\n    tag_5:\n      tag_47\n      0x04\n      dup1\n      calldatasize\n      sub\n      dup2\n      add\n      swap1\n      tag_48\n      swap2\n      swap1\n      tag_49\n      jump\t// in\n    tag_48:\n      tag_50\n      jump\t// in\n    tag_47:\n      stop\n        /* \"NewFraxProtocol/contracts/Oracle/UniswapPairOracleExtra.sol\":810:849  bool public ALLOW_STALE_CONSULTS = true */\n    tag_6:\n      tag_51\n      tag_52\n      jump\t// in\n    tag_51:\n      mload(0x40)\n      tag_53\n      swap2\n      swap1\n      tag_54\n      jump\t// in\n    tag_53:\n      mload(0x40)\n      dup1\n      swap2\n      sub\n      swap1\n      return\n        /* \"NewFraxProtocol/contracts/Oracle/UniswapPairOracleExtra.sol\":1368:1394  uint8 public decimals = 18 */\n    tag_7:\n      tag_55\n      tag_56\n      jump\t// in\n    tag_55:\n      mload(0x40)\n      tag_57\n      swap2\n      swap1\n      tag_58\n      jump\t// in\n    tag_57:\n      mload(0x40)\n      dup1\n      swap2\n      sub\n      swap1\n      return\n        /* \"NewFraxProtocol/contracts/Oracle/UniswapPairOracleExtra.sol\":2859:3572  function consult(address token, uint amountIn) public view returns (uint amountOut) {... */\n    tag_8:\n      tag_59\n      0x04\n      dup1\n      calldatasize\n      sub\n      dup2\n      add\n      swap1\n      tag_60\n      swap2\n      swap1\n      tag_61\n      jump\t// in\n    tag_60:\n      tag_62\n      jump\t// in\n    tag_59:\n      mload(0x40)\n      tag_63\n      swap2\n      swap1\n      tag_64\n      jump\t// in\n    tag_63:\n      mload(0x40)\n      dup1\n      swap2\n      sub\n      swap1\n      return\n        /* \"NewFraxProtocol/contracts/Oracle/UniswapPairOracleExtra.sol\":716:750  uint public CONSULT_LENIENCY = 120 */\n    tag_9:\n      tag_65\n      tag_66\n      jump\t// in\n    tag_65:\n      mload(0x40)\n      tag_67\n      swap2\n      swap1\n      tag_64\n      jump\t// in\n    tag_67:\n      mload(0x40)\n      dup1\n      swap2\n      sub\n      swap1\n      return\n        /* \"NewFraxProtocol/contracts/Staking/Owned.sol\":164:193  address public nominatedOwner */\n    tag_10:\n      tag_68\n      tag_69\n      jump\t// in\n    tag_68:\n      mload(0x40)\n      tag_70\n      swap2\n      swap1\n      tag_42\n      jump\t// in\n    tag_70:\n      mload(0x40)\n      dup1\n      swap2\n      sub\n      swap1\n      return\n        /* \"NewFraxProtocol/contracts/Oracle/UniswapPairOracleExtra.sol\":1431:1457  uint256 public version = 1 */\n    tag_11:\n      tag_71\n      tag_72\n      jump\t// in\n    tag_71:\n      mload(0x40)\n      tag_73\n      swap2\n      swap1\n      tag_64\n      jump\t// in\n    tag_73:\n      mload(0x40)\n      dup1\n      swap2\n      sub\n      swap1\n      return\n        /* \"NewFraxProtocol/contracts/Oracle/UniswapPairOracleExtra.sol\":1027:1062  uint    public price0CumulativeLast */\n    tag_12:\n      tag_74\n      tag_75\n      jump\t// in\n    tag_74:\n      mload(0x40)\n      tag_76\n      swap2\n      swap1\n      tag_64\n      jump\t// in\n    tag_76:\n      mload(0x40)\n      dup1\n      swap2\n      sub\n      swap1\n      return\n        /* \"NewFraxProtocol/contracts/Oracle/UniswapPairOracleExtra.sol\":1068:1103  uint    public price1CumulativeLast */\n    tag_13:\n      tag_77\n      tag_78\n      jump\t// in\n    tag_77:\n      mload(0x40)\n      tag_79\n      swap2\n      swap1\n      tag_64\n      jump\t// in\n    tag_79:\n      mload(0x40)\n      dup1\n      swap2\n      sub\n      swap1\n      return\n        /* \"NewFraxProtocol/contracts/Oracle/UniswapPairOracleExtra.sol\":5860:5987  function setConsultLeniency(uint _consult_leniency) external onlyByOwnGov {... */\n    tag_14:\n      tag_80\n      0x04\n      dup1\n      calldatasize\n      sub\n      dup2\n      add\n      swap1\n      tag_81\n      swap2\n      swap1\n      tag_45\n      jump\t// in\n    tag_81:\n      tag_82\n      jump\t// in\n    tag_80:\n      stop\n        /* \"NewFraxProtocol/contracts/Oracle/UniswapPairOracleExtra.sol\":1195:1236  FixedPoint.uq112x112 public price1Average */\n    tag_15:\n      tag_83\n      tag_84\n      jump\t// in\n    tag_83:\n      mload(0x40)\n      tag_85\n      swap2\n      swap1\n      tag_86\n      jump\t// in\n    tag_85:\n      mload(0x40)\n      dup1\n      swap2\n      sub\n      swap1\n      return\n        /* \"NewFraxProtocol/contracts/Oracle/UniswapPairOracleExtra.sol\":1400:1425  string public description */\n    tag_16:\n      tag_87\n      tag_88\n      jump\t// in\n    tag_87:\n      mload(0x40)\n      tag_89\n      swap2\n      swap1\n      tag_90\n      jump\t// in\n    tag_89:\n      mload(0x40)\n      dup1\n      swap2\n      sub\n      swap1\n      return\n        /* \"NewFraxProtocol/contracts/Oracle/UniswapPairOracleExtra.sol\":6141:6278  function setAddressToConsult(address _address_to_consult) external onlyByOwnGov {... */\n    tag_17:\n      tag_91\n      0x04\n      dup1\n      calldatasize\n      sub\n      dup2\n      add\n      swap1\n      tag_92\n      swap2\n      swap1\n      tag_49\n      jump\t// in\n    tag_92:\n      tag_93\n      jump\t// in\n    tag_91:\n      stop\n        /* \"NewFraxProtocol/contracts/Staking/Owned.sol\":532:798  function acceptOwnership() external {... */\n    tag_18:\n      tag_94\n      tag_95\n      jump\t// in\n    tag_94:\n      stop\n        /* \"NewFraxProtocol/contracts/Staking/Owned.sol\":138:158  address public owner */\n    tag_19:\n      tag_96\n      tag_97\n      jump\t// in\n    tag_96:\n      mload(0x40)\n      tag_98\n      swap2\n      swap1\n      tag_42\n      jump\t// in\n    tag_98:\n      mload(0x40)\n      dup1\n      swap2\n      sub\n      swap1\n      return\n        /* \"NewFraxProtocol/contracts/Oracle/UniswapPairOracleExtra.sol\":1289:1326  uint256 public PRICE_PRECISION = 1e18 */\n    tag_20:\n      tag_99\n      tag_100\n      jump\t// in\n    tag_99:\n      mload(0x40)\n      tag_101\n      swap2\n      swap1\n      tag_64\n      jump\t// in\n    tag_101:\n      mload(0x40)\n      dup1\n      swap2\n      sub\n      swap1\n      return\n        /* \"NewFraxProtocol/contracts/Oracle/UniswapPairOracleExtra.sol\":3613:3848  function getRoundData(uint80 _roundId) external view returns (... */\n    tag_21:\n      tag_102\n      0x04\n      dup1\n      calldatasize\n      sub\n      dup2\n      add\n      swap1\n      tag_103\n      swap2\n      swap1\n      tag_104\n      jump\t// in\n    tag_103:\n      tag_105\n      jump\t// in\n    tag_102:\n      mload(0x40)\n      tag_106\n      swap6\n      swap5\n      swap4\n      swap3\n      swap2\n      swap1\n      tag_107\n      jump\t// in\n    tag_106:\n      mload(0x40)\n      dup1\n      swap2\n      sub\n      swap1\n      return\n        /* \"NewFraxProtocol/contracts/Oracle/UniswapPairOracleExtra.sol\":4310:4574  function canUpdate() public view returns (bool) {... */\n    tag_22:\n      tag_108\n      tag_109\n      jump\t// in\n    tag_108:\n      mload(0x40)\n      tag_110\n      swap2\n      swap1\n      tag_54\n      jump\t// in\n    tag_110:\n      mload(0x40)\n      dup1\n      swap2\n      sub\n      swap1\n      return\n        /* \"NewFraxProtocol/contracts/Oracle/UniswapPairOracleExtra.sol\":4580:5566  function update() external {... */\n    tag_23:\n      tag_111\n      tag_112\n      jump\t// in\n    tag_111:\n      stop\n        /* \"NewFraxProtocol/contracts/Oracle/UniswapPairOracleExtra.sol\":1148:1189  FixedPoint.uq112x112 public price0Average */\n    tag_24:\n      tag_113\n      tag_114\n      jump\t// in\n    tag_113:\n      mload(0x40)\n      tag_115\n      swap2\n      swap1\n      tag_86\n      jump\t// in\n    tag_115:\n      mload(0x40)\n      dup1\n      swap2\n      sub\n      swap1\n      return\n        /* \"NewFraxProtocol/contracts/Oracle/UniswapPairOracleExtra.sol\":910:946  IUniswapV2Pair public immutable pair */\n    tag_25:\n      tag_116\n      tag_117\n      jump\t// in\n    tag_116:\n      mload(0x40)\n      tag_118\n      swap2\n      swap1\n      tag_119\n      jump\t// in\n    tag_118:\n      mload(0x40)\n      dup1\n      swap2\n      sub\n      swap1\n      return\n        /* \"NewFraxProtocol/contracts/Oracle/UniswapPairOracleExtra.sol\":640:665  uint public PERIOD = 3600 */\n    tag_26:\n      tag_120\n      tag_121\n      jump\t// in\n    tag_120:\n      mload(0x40)\n      tag_122\n      swap2\n      swap1\n      tag_64\n      jump\t// in\n    tag_122:\n      mload(0x40)\n      dup1\n      swap2\n      sub\n      swap1\n      return\n        /* \"NewFraxProtocol/contracts/Oracle/UniswapPairOracleExtra.sol\":5637:5760  function setTimelock(address _timelock_address) external onlyByOwnGov {... */\n    tag_27:\n      tag_123\n      0x04\n      dup1\n      calldatasize\n      sub\n      dup2\n      add\n      swap1\n      tag_124\n      swap2\n      swap1\n      tag_49\n      jump\t// in\n    tag_124:\n      tag_125\n      jump\t// in\n    tag_123:\n      stop\n        /* \"NewFraxProtocol/contracts/Oracle/UniswapPairOracleExtra.sol\":1109:1142  uint32  public blockTimestampLast */\n    tag_28:\n      tag_126\n      tag_127\n      jump\t// in\n    tag_126:\n      mload(0x40)\n      tag_128\n      swap2\n      swap1\n      tag_129\n      jump\t// in\n    tag_128:\n      mload(0x40)\n      dup1\n      swap2\n      sub\n      swap1\n      return\n        /* \"NewFraxProtocol/contracts/Oracle/UniswapPairOracleExtra.sol\":989:1020  address public immutable token1 */\n    tag_29:\n      tag_130\n      tag_131\n      jump\t// in\n    tag_130:\n      mload(0x40)\n      tag_132\n      swap2\n      swap1\n      tag_42\n      jump\t// in\n    tag_132:\n      mload(0x40)\n      dup1\n      swap2\n      sub\n      swap1\n      return\n        /* \"NewFraxProtocol/contracts/Oracle/UniswapPairOracleExtra.sol\":5993:6135  function setAllowStaleConsults(bool _allow_stale_consults) external onlyByOwnGov {... */\n    tag_30:\n      tag_133\n      0x04\n      dup1\n      calldatasize\n      sub\n      dup2\n      add\n      swap1\n      tag_134\n      swap2\n      swap1\n      tag_135\n      jump\t// in\n    tag_134:\n      tag_136\n      jump\t// in\n    tag_133:\n      stop\n        /* \"NewFraxProtocol/contracts/Oracle/UniswapPairOracleExtra.sol\":3854:4181  function latestRoundData() external view returns (... */\n    tag_31:\n      tag_137\n      tag_138\n      jump\t// in\n    tag_137:\n      mload(0x40)\n      tag_139\n      swap6\n      swap5\n      swap4\n      swap3\n      swap2\n      swap1\n      tag_107\n      jump\t// in\n    tag_139:\n      mload(0x40)\n      dup1\n      swap2\n      sub\n      swap1\n      return\n        /* \"NewFraxProtocol/contracts/Oracle/UniswapPairOracleExtra.sol\":952:983  address public immutable token0 */\n    tag_40:\n      immutable(\"0x937a83b1fb35606d63f1d9b9e924837433ad32450590eb1d8129d7cf4887e815\")\n      dup2\n      jump\t// out\n        /* \"NewFraxProtocol/contracts/Oracle/UniswapPairOracleExtra.sol\":5766:5854  function setPeriod(uint _period) external onlyByOwnGov {... */\n    tag_46:\n        /* \"NewFraxProtocol/contracts/Oracle/UniswapPairOracleExtra.sol\":2604:2609  owner */\n      0x00\n      dup1\n      sload\n      swap1\n      0x0100\n      exp\n      swap1\n      div\n      0xffffffffffffffffffffffffffffffffffffffff\n      and\n        /* \"NewFraxProtocol/contracts/Oracle/UniswapPairOracleExtra.sol\":2590:2609  msg.sender == owner */\n      0xffffffffffffffffffffffffffffffffffffffff\n      and\n        /* \"NewFraxProtocol/contracts/Oracle/UniswapPairOracleExtra.sol\":2590:2600  msg.sender */\n      caller\n        /* \"NewFraxProtocol/contracts/Oracle/UniswapPairOracleExtra.sol\":2590:2609  msg.sender == owner */\n      0xffffffffffffffffffffffffffffffffffffffff\n      and\n      eq\n        /* \"NewFraxProtocol/contracts/Oracle/UniswapPairOracleExtra.sol\":2590:2643  msg.sender == owner || msg.sender == timelock_address */\n      dup1\n      tag_141\n      jumpi\n      pop\n        /* \"NewFraxProtocol/contracts/Oracle/UniswapPairOracleExtra.sol\":2627:2643  timelock_address */\n      0x02\n      0x00\n      swap1\n      sload\n      swap1\n      0x0100\n      exp\n      swap1\n      div\n      0xffffffffffffffffffffffffffffffffffffffff\n      and\n        /* \"NewFraxProtocol/contracts/Oracle/UniswapPairOracleExtra.sol\":2613:2643  msg.sender == timelock_address */\n      0xffffffffffffffffffffffffffffffffffffffff\n      and\n        /* \"NewFraxProtocol/contracts/Oracle/UniswapPairOracleExtra.sol\":2613:2623  msg.sender */\n      caller\n        /* \"NewFraxProtocol/contracts/Oracle/UniswapPairOracleExtra.sol\":2613:2643  msg.sender == timelock_address */\n      0xffffffffffffffffffffffffffffffffffffffff\n      and\n      eq\n        /* \"NewFraxProtocol/contracts/Oracle/UniswapPairOracleExtra.sol\":2590:2643  msg.sender == owner || msg.sender == timelock_address */\n    tag_141:\n        /* \"NewFraxProtocol/contracts/Oracle/UniswapPairOracleExtra.sol\":2582:2695  require(msg.sender == owner || msg.sender == timelock_address, \"You are not an owner or the governance timelock\") */\n      tag_142\n      jumpi\n      mload(0x40)\n      0x08c379a000000000000000000000000000000000000000000000000000000000\n      dup2\n      mstore\n      0x04\n      add\n      tag_143\n      swap1\n      tag_144\n      jump\t// in\n    tag_143:\n      mload(0x40)\n      dup1\n      swap2\n      sub\n      swap1\n      revert\n    tag_142:\n        /* \"NewFraxProtocol/contracts/Oracle/UniswapPairOracleExtra.sol\":5840:5847  _period */\n      dup1\n        /* \"NewFraxProtocol/contracts/Oracle/UniswapPairOracleExtra.sol\":5831:5837  PERIOD */\n      0x03\n        /* \"NewFraxProtocol/contracts/Oracle/UniswapPairOracleExtra.sol\":5831:5847  PERIOD = _period */\n      dup2\n      swap1\n      sstore\n      pop\n        /* \"NewFraxProtocol/contracts/Oracle/UniswapPairOracleExtra.sol\":5766:5854  function setPeriod(uint _period) external onlyByOwnGov {... */\n      pop\n      jump\t// out\n        /* \"NewFraxProtocol/contracts/Staking/Owned.sol\":388:526  function nominateNewOwner(address _owner) external onlyOwner {... */\n    tag_50:\n        /* \"NewFraxProtocol/contracts/Staking/Owned.sol\":855:860  owner */\n      0x00\n      dup1\n      sload\n      swap1\n      0x0100\n      exp\n      swap1\n      div\n      0xffffffffffffffffffffffffffffffffffffffff\n      and\n        /* \"NewFraxProtocol/contracts/Staking/Owned.sol\":841:860  msg.sender == owner */\n      0xffffffffffffffffffffffffffffffffffffffff\n      and\n        /* \"NewFraxProtocol/contracts/Staking/Owned.sol\":841:851  msg.sender */\n      caller\n        /* \"NewFraxProtocol/contracts/Staking/Owned.sol\":841:860  msg.sender == owner */\n      0xffffffffffffffffffffffffffffffffffffffff\n      and\n      eq\n        /* \"NewFraxProtocol/contracts/Staking/Owned.sol\":833:912  require(msg.sender == owner, \"Only the contract owner may perform this action\") */\n      tag_147\n      jumpi\n      mload(0x40)\n      0x08c379a000000000000000000000000000000000000000000000000000000000\n      dup2\n      mstore\n      0x04\n      add\n      tag_148\n      swap1\n      tag_149\n      jump\t// in\n    tag_148:\n      mload(0x40)\n      dup1\n      swap2\n      sub\n      swap1\n      revert\n    tag_147:\n        /* \"NewFraxProtocol/contracts/Staking/Owned.sol\":476:482  _owner */\n      dup1\n        /* \"NewFraxProtocol/contracts/Staking/Owned.sol\":459:473  nominatedOwner */\n      0x01\n      0x00\n        /* \"NewFraxProtocol/contracts/Staking/Owned.sol\":459:482  nominatedOwner = _owner */\n      0x0100\n      exp\n      dup2\n      sload\n      dup2\n      0xffffffffffffffffffffffffffffffffffffffff\n      mul\n      not\n      and\n      swap1\n      dup4\n      0xffffffffffffffffffffffffffffffffffffffff\n      and\n      mul\n      or\n      swap1\n      sstore\n      pop\n        /* \"NewFraxProtocol/contracts/Staking/Owned.sol\":497:519  OwnerNominated(_owner) */\n      0x906a1c6bd7e3091ea86693dd029a831c19049ce77f1dce2ce0bab1cacbabce22\n        /* \"NewFraxProtocol/contracts/Staking/Owned.sol\":512:518  _owner */\n      dup2\n        /* \"NewFraxProtocol/contracts/Staking/Owned.sol\":497:519  OwnerNominated(_owner) */\n      mload(0x40)\n      tag_151\n      swap2\n      swap1\n      tag_42\n      jump\t// in\n    tag_151:\n      mload(0x40)\n      dup1\n      swap2\n      sub\n      swap1\n      log1\n        /* \"NewFraxProtocol/contracts/Staking/Owned.sol\":388:526  function nominateNewOwner(address _owner) external onlyOwner {... */\n      pop\n      jump\t// out\n        /* \"NewFraxProtocol/contracts/Oracle/UniswapPairOracleExtra.sol\":810:849  bool public ALLOW_STALE_CONSULTS = true */\n    tag_52:\n      0x05\n      0x00\n      swap1\n      sload\n      swap1\n      0x0100\n      exp\n      swap1\n      div\n      0xff\n      and\n      dup2\n      jump\t// out\n        /* \"NewFraxProtocol/contracts/Oracle/UniswapPairOracleExtra.sol\":1368:1394  uint8 public decimals = 18 */\n    tag_56:\n      0x0d\n      0x00\n      swap1\n      sload\n      swap1\n      0x0100\n      exp\n      swap1\n      div\n      0xff\n      and\n      dup2\n      jump\t// out\n        /* \"NewFraxProtocol/contracts/Oracle/UniswapPairOracleExtra.sol\":2859:3572  function consult(address token, uint amountIn) public view returns (uint amountOut) {... */\n    tag_62:\n        /* \"NewFraxProtocol/contracts/Oracle/UniswapPairOracleExtra.sol\":2927:2941  uint amountOut */\n      0x00\n        /* \"NewFraxProtocol/contracts/Oracle/UniswapPairOracleExtra.sol\":2953:2974  uint32 blockTimestamp */\n      dup1\n        /* \"NewFraxProtocol/contracts/Oracle/UniswapPairOracleExtra.sol\":2977:3023  UniswapV2OracleLibrary.currentBlockTimestamp() */\n      tag_153\n        /* \"NewFraxProtocol/contracts/Oracle/UniswapPairOracleExtra.sol\":2977:3021  UniswapV2OracleLibrary.currentBlockTimestamp */\n      tag_154\n        /* \"NewFraxProtocol/contracts/Oracle/UniswapPairOracleExtra.sol\":2977:3023  UniswapV2OracleLibrary.currentBlockTimestamp() */\n      jump\t// in\n    tag_153:\n        /* \"NewFraxProtocol/contracts/Oracle/UniswapPairOracleExtra.sol\":2953:3023  uint32 blockTimestamp = UniswapV2OracleLibrary.currentBlockTimestamp() */\n      swap1\n      pop\n        /* \"NewFraxProtocol/contracts/Oracle/UniswapPairOracleExtra.sol\":3033:3051  uint32 timeElapsed */\n      0x00\n        /* \"NewFraxProtocol/contracts/Oracle/UniswapPairOracleExtra.sol\":3071:3089  blockTimestampLast */\n      0x08\n      0x00\n      swap1\n      sload\n      swap1\n      0x0100\n      exp\n      swap1\n      div\n      0xffffffff\n      and\n        /* \"NewFraxProtocol/contracts/Oracle/UniswapPairOracleExtra.sol\":3054:3068  blockTimestamp */\n      dup3\n        /* \"NewFraxProtocol/contracts/Oracle/UniswapPairOracleExtra.sol\":3054:3089  blockTimestamp - blockTimestampLast */\n      tag_155\n      swap2\n      swap1\n      tag_156\n      jump\t// in\n    tag_155:\n        /* \"NewFraxProtocol/contracts/Oracle/UniswapPairOracleExtra.sol\":3033:3089  uint32 timeElapsed = blockTimestamp - blockTimestampLast */\n      swap1\n      pop\n        /* \"NewFraxProtocol/contracts/Oracle/UniswapPairOracleExtra.sol\":3202:3218  CONSULT_LENIENCY */\n      sload(0x04)\n        /* \"NewFraxProtocol/contracts/Oracle/UniswapPairOracleExtra.sol\":3193:3199  PERIOD */\n      sload(0x03)\n        /* \"NewFraxProtocol/contracts/Oracle/UniswapPairOracleExtra.sol\":3193:3218  PERIOD + CONSULT_LENIENCY */\n      tag_157\n      swap2\n      swap1\n      tag_158\n      jump\t// in\n    tag_157:\n        /* \"NewFraxProtocol/contracts/Oracle/UniswapPairOracleExtra.sol\":3178:3189  timeElapsed */\n      dup2\n        /* \"NewFraxProtocol/contracts/Oracle/UniswapPairOracleExtra.sol\":3178:3219  timeElapsed < (PERIOD + CONSULT_LENIENCY) */\n      0xffffffff\n      and\n      lt\n        /* \"NewFraxProtocol/contracts/Oracle/UniswapPairOracleExtra.sol\":3177:3244  (timeElapsed < (PERIOD + CONSULT_LENIENCY)) || ALLOW_STALE_CONSULTS */\n      dup1\n      tag_159\n      jumpi\n      pop\n        /* \"NewFraxProtocol/contracts/Oracle/UniswapPairOracleExtra.sol\":3224:3244  ALLOW_STALE_CONSULTS */\n      0x05\n      0x00\n      swap1\n      sload\n      swap1\n      0x0100\n      exp\n      swap1\n      div\n      0xff\n      and\n        /* \"NewFraxProtocol/contracts/Oracle/UniswapPairOracleExtra.sol\":3177:3244  (timeElapsed < (PERIOD + CONSULT_LENIENCY)) || ALLOW_STALE_CONSULTS */\n    tag_159:\n        /* \"NewFraxProtocol/contracts/Oracle/UniswapPairOracleExtra.sol\":3169:3302  require((timeElapsed < (PERIOD + CONSULT_LENIENCY)) || ALLOW_STALE_CONSULTS, 'UniswapPairOracle: PRICE_IS_STALE_NEED_TO_CALL_UPDATE') */\n      tag_160\n      jumpi\n      mload(0x40)\n      0x08c379a000000000000000000000000000000000000000000000000000000000\n      dup2\n      mstore\n      0x04\n      add\n      tag_161\n      swap1\n      tag_162\n      jump\t// in\n    tag_161:\n      mload(0x40)\n      dup1\n      swap2\n      sub\n      swap1\n      revert\n    tag_160:\n        /* \"NewFraxProtocol/contracts/Oracle/UniswapPairOracleExtra.sol\":3326:3332  token0 */\n      immutable(\"0x937a83b1fb35606d63f1d9b9e924837433ad32450590eb1d8129d7cf4887e815\")\n        /* \"NewFraxProtocol/contracts/Oracle/UniswapPairOracleExtra.sol\":3317:3332  token == token0 */\n      0xffffffffffffffffffffffffffffffffffffffff\n      and\n        /* \"NewFraxProtocol/contracts/Oracle/UniswapPairOracleExtra.sol\":3317:3322  token */\n      dup6\n        /* \"NewFraxProtocol/contracts/Oracle/UniswapPairOracleExtra.sol\":3317:3332  token == token0 */\n      0xffffffffffffffffffffffffffffffffffffffff\n      and\n      eq\n        /* \"NewFraxProtocol/contracts/Oracle/UniswapPairOracleExtra.sol\":3313:3566  if (token == token0) {... */\n      iszero\n      tag_163\n      jumpi\n        /* \"NewFraxProtocol/contracts/Oracle/UniswapPairOracleExtra.sol\":3360:3399  price0Average.mul(amountIn).decode144() */\n      tag_164\n        /* \"NewFraxProtocol/contracts/Oracle/UniswapPairOracleExtra.sol\":3360:3387  price0Average.mul(amountIn) */\n      tag_165\n        /* \"NewFraxProtocol/contracts/Oracle/UniswapPairOracleExtra.sol\":3378:3386  amountIn */\n      dup6\n        /* \"NewFraxProtocol/contracts/Oracle/UniswapPairOracleExtra.sol\":3360:3373  price0Average */\n      0x09\n        /* \"NewFraxProtocol/contracts/Oracle/UniswapPairOracleExtra.sol\":3360:3377  price0Average.mul */\n      mload(0x40)\n      dup1\n      0x20\n      add\n      0x40\n      mstore\n      swap1\n      dup2\n      0x00\n      dup3\n      add\n      0x00\n      swap1\n      sload\n      swap1\n      0x0100\n      exp\n      swap1\n      div\n      0xffffffffffffffffffffffffffffffffffffffffffffffffffffffff\n      and\n      0xffffffffffffffffffffffffffffffffffffffffffffffffffffffff\n      and\n      0xffffffffffffffffffffffffffffffffffffffffffffffffffffffff\n      and\n      dup2\n      mstore\n      pop\n      pop\n      tag_166\n      swap1\n        /* \"NewFraxProtocol/contracts/Oracle/UniswapPairOracleExtra.sol\":3360:3387  price0Average.mul(amountIn) */\n      swap2\n      swap1\n      0xffffffff\n      and\n      jump\t// in\n    tag_165:\n        /* \"NewFraxProtocol/contracts/Oracle/UniswapPairOracleExtra.sol\":3360:3397  price0Average.mul(amountIn).decode144 */\n      tag_167\n        /* \"NewFraxProtocol/contracts/Oracle/UniswapPairOracleExtra.sol\":3360:3399  price0Average.mul(amountIn).decode144() */\n      jump\t// in\n    tag_164:\n        /* \"NewFraxProtocol/contracts/Oracle/UniswapPairOracleExtra.sol\":3348:3399  amountOut = price0Average.mul(amountIn).decode144() */\n      0xffffffffffffffffffffffffffffffffffff\n      and\n      swap3\n      pop\n        /* \"NewFraxProtocol/contracts/Oracle/UniswapPairOracleExtra.sol\":3313:3566  if (token == token0) {... */\n      jump(tag_168)\n    tag_163:\n        /* \"NewFraxProtocol/contracts/Oracle/UniswapPairOracleExtra.sol\":3447:3453  token1 */\n      immutable(\"0x0f1bcf290b66a2cfed5f23463bc63e98c2b29d8093b3c4b39be593d60dfd3630\")\n        /* \"NewFraxProtocol/contracts/Oracle/UniswapPairOracleExtra.sol\":3438:3453  token == token1 */\n      0xffffffffffffffffffffffffffffffffffffffff\n      and\n        /* \"NewFraxProtocol/contracts/Oracle/UniswapPairOracleExtra.sol\":3438:3443  token */\n      dup6\n        /* \"NewFraxProtocol/contracts/Oracle/UniswapPairOracleExtra.sol\":3438:3453  token == token1 */\n      0xffffffffffffffffffffffffffffffffffffffff\n      and\n      eq\n        /* \"NewFraxProtocol/contracts/Oracle/UniswapPairOracleExtra.sol\":3430:3490  require(token == token1, 'UniswapPairOracle: INVALID_TOKEN') */\n      tag_169\n      jumpi\n      mload(0x40)\n      0x08c379a000000000000000000000000000000000000000000000000000000000\n      dup2\n      mstore\n      0x04\n      add\n      tag_170\n      swap1\n      tag_171\n      jump\t// in\n    tag_170:\n      mload(0x40)\n      dup1\n      swap2\n      sub\n      swap1\n      revert\n    tag_169:\n        /* \"NewFraxProtocol/contracts/Oracle/UniswapPairOracleExtra.sol\":3516:3555  price1Average.mul(amountIn).decode144() */\n      tag_172\n        /* \"NewFraxProtocol/contracts/Oracle/UniswapPairOracleExtra.sol\":3516:3543  price1Average.mul(amountIn) */\n      tag_173\n        /* \"NewFraxProtocol/contracts/Oracle/UniswapPairOracleExtra.sol\":3534:3542  amountIn */\n      dup6\n        /* \"NewFraxProtocol/contracts/Oracle/UniswapPairOracleExtra.sol\":3516:3529  price1Average */\n      0x0a\n        /* \"NewFraxProtocol/contracts/Oracle/UniswapPairOracleExtra.sol\":3516:3533  price1Average.mul */\n      mload(0x40)\n      dup1\n      0x20\n      add\n      0x40\n      mstore\n      swap1\n      dup2\n      0x00\n      dup3\n      add\n      0x00\n      swap1\n      sload\n      swap1\n      0x0100\n      exp\n      swap1\n      div\n      0xffffffffffffffffffffffffffffffffffffffffffffffffffffffff\n      and\n      0xffffffffffffffffffffffffffffffffffffffffffffffffffffffff\n      and\n      0xffffffffffffffffffffffffffffffffffffffffffffffffffffffff\n      and\n      dup2\n      mstore\n      pop\n      pop\n      tag_166\n      swap1\n        /* \"NewFraxProtocol/contracts/Oracle/UniswapPairOracleExtra.sol\":3516:3543  price1Average.mul(amountIn) */\n      swap2\n      swap1\n      0xffffffff\n      and\n      jump\t// in\n    tag_173:\n        /* \"NewFraxProtocol/contracts/Oracle/UniswapPairOracleExtra.sol\":3516:3553  price1Average.mul(amountIn).decode144 */\n      tag_167\n        /* \"NewFraxProtocol/contracts/Oracle/UniswapPairOracleExtra.sol\":3516:3555  price1Average.mul(amountIn).decode144() */\n      jump\t// in\n    tag_172:\n        /* \"NewFraxProtocol/contracts/Oracle/UniswapPairOracleExtra.sol\":3504:3555  amountOut = price1Average.mul(amountIn).decode144() */\n      0xffffffffffffffffffffffffffffffffffff\n      and\n      swap3\n      pop\n        /* \"NewFraxProtocol/contracts/Oracle/UniswapPairOracleExtra.sol\":3313:3566  if (token == token0) {... */\n    tag_168:\n        /* \"NewFraxProtocol/contracts/Oracle/UniswapPairOracleExtra.sol\":2943:3572  {... */\n      pop\n      pop\n        /* \"NewFraxProtocol/contracts/Oracle/UniswapPairOracleExtra.sol\":2859:3572  function consult(address token, uint amountIn) public view returns (uint amountOut) {... */\n      swap3\n      swap2\n      pop\n      pop\n      jump\t// out\n        /* \"NewFraxProtocol/contracts/Oracle/UniswapPairOracleExtra.sol\":716:750  uint public CONSULT_LENIENCY = 120 */\n    tag_66:\n      sload(0x04)\n      dup2\n      jump\t// out\n        /* \"NewFraxProtocol/contracts/Staking/Owned.sol\":164:193  address public nominatedOwner */\n    tag_69:\n      0x01\n      0x00\n      swap1\n      sload\n      swap1\n      0x0100\n      exp\n      swap1\n      div\n      0xffffffffffffffffffffffffffffffffffffffff\n      and\n      dup2\n      jump\t// out\n        /* \"NewFraxProtocol/contracts/Oracle/UniswapPairOracleExtra.sol\":1431:1457  uint256 public version = 1 */\n    tag_72:\n      sload(0x0f)\n      dup2\n      jump\t// out\n        /* \"NewFraxProtocol/contracts/Oracle/UniswapPairOracleExtra.sol\":1027:1062  uint    public price0CumulativeLast */\n    tag_75:\n      sload(0x06)\n      dup2\n      jump\t// out\n        /* \"NewFraxProtocol/contracts/Oracle/UniswapPairOracleExtra.sol\":1068:1103  uint    public price1CumulativeLast */\n    tag_78:\n      sload(0x07)\n      dup2\n      jump\t// out\n        /* \"NewFraxProtocol/contracts/Oracle/UniswapPairOracleExtra.sol\":5860:5987  function setConsultLeniency(uint _consult_leniency) external onlyByOwnGov {... */\n    tag_82:\n        /* \"NewFraxProtocol/contracts/Oracle/UniswapPairOracleExtra.sol\":2604:2609  owner */\n      0x00\n      dup1\n      sload\n      swap1\n      0x0100\n      exp\n      swap1\n      div\n      0xffffffffffffffffffffffffffffffffffffffff\n      and\n        /* \"NewFraxProtocol/contracts/Oracle/UniswapPairOracleExtra.sol\":2590:2609  msg.sender == owner */\n      0xffffffffffffffffffffffffffffffffffffffff\n      and\n        /* \"NewFraxProtocol/contracts/Oracle/UniswapPairOracleExtra.sol\":2590:2600  msg.sender */\n      caller\n        /* \"NewFraxProtocol/contracts/Oracle/UniswapPairOracleExtra.sol\":2590:2609  msg.sender == owner */\n      0xffffffffffffffffffffffffffffffffffffffff\n      and\n      eq\n        /* \"NewFraxProtocol/contracts/Oracle/UniswapPairOracleExtra.sol\":2590:2643  msg.sender == owner || msg.sender == timelock_address */\n      dup1\n      tag_175\n      jumpi\n      pop\n        /* \"NewFraxProtocol/contracts/Oracle/UniswapPairOracleExtra.sol\":2627:2643  timelock_address */\n      0x02\n      0x00\n      swap1\n      sload\n      swap1\n      0x0100\n      exp\n      swap1\n      div\n      0xffffffffffffffffffffffffffffffffffffffff\n      and\n        /* \"NewFraxProtocol/contracts/Oracle/UniswapPairOracleExtra.sol\":2613:2643  msg.sender == timelock_address */\n      0xffffffffffffffffffffffffffffffffffffffff\n      and\n        /* \"NewFraxProtocol/contracts/Oracle/UniswapPairOracleExtra.sol\":2613:2623  msg.sender */\n      caller\n        /* \"NewFraxProtocol/contracts/Oracle/UniswapPairOracleExtra.sol\":2613:2643  msg.sender == timelock_address */\n      0xffffffffffffffffffffffffffffffffffffffff\n      and\n      eq\n        /* \"NewFraxProtocol/contracts/Oracle/UniswapPairOracleExtra.sol\":2590:2643  msg.sender == owner || msg.sender == timelock_address */\n    tag_175:\n        /* \"NewFraxProtocol/contracts/Oracle/UniswapPairOracleExtra.sol\":2582:2695  require(msg.sender == owner || msg.sender == timelock_address, \"You are not an owner or the governance timelock\") */\n      tag_176\n      jumpi\n      mload(0x40)\n      0x08c379a000000000000000000000000000000000000000000000000000000000\n      dup2\n      mstore\n      0x04\n      add\n      tag_177\n      swap1\n      tag_144\n      jump\t// in\n    tag_177:\n      mload(0x40)\n      dup1\n      swap2\n      sub\n      swap1\n      revert\n    tag_176:\n        /* \"NewFraxProtocol/contracts/Oracle/UniswapPairOracleExtra.sol\":5963:5980  _consult_leniency */\n      dup1\n        /* \"NewFraxProtocol/contracts/Oracle/UniswapPairOracleExtra.sol\":5944:5960  CONSULT_LENIENCY */\n      0x04\n        /* \"NewFraxProtocol/contracts/Oracle/UniswapPairOracleExtra.sol\":5944:5980  CONSULT_LENIENCY = _consult_leniency */\n      dup2\n      swap1\n      sstore\n      pop\n        /* \"NewFraxProtocol/contracts/Oracle/UniswapPairOracleExtra.sol\":5860:5987  function setConsultLeniency(uint _consult_leniency) external onlyByOwnGov {... */\n      pop\n      jump\t// out\n        /* \"NewFraxProtocol/contracts/Oracle/UniswapPairOracleExtra.sol\":1195:1236  FixedPoint.uq112x112 public price1Average */\n    tag_84:\n      0x0a\n      dup1\n      0x00\n      add\n      0x00\n      swap1\n      sload\n      swap1\n      0x0100\n      exp\n      swap1\n      div\n      0xffffffffffffffffffffffffffffffffffffffffffffffffffffffff\n      and\n      swap1\n      pop\n      dup2\n      jump\t// out\n        /* \"NewFraxProtocol/contracts/Oracle/UniswapPairOracleExtra.sol\":1400:1425  string public description */\n    tag_88:\n      0x0e\n      dup1\n      sload\n      tag_179\n      swap1\n      tag_180\n      jump\t// in\n    tag_179:\n      dup1\n      0x1f\n      add\n      0x20\n      dup1\n      swap2\n      div\n      mul\n      0x20\n      add\n      mload(0x40)\n      swap1\n      dup2\n      add\n      0x40\n      mstore\n      dup1\n      swap3\n      swap2\n      swap1\n      dup2\n      dup2\n      mstore\n      0x20\n      add\n      dup3\n      dup1\n      sload\n      tag_181\n      swap1\n      tag_180\n      jump\t// in\n    tag_181:\n      dup1\n      iszero\n      tag_182\n      jumpi\n      dup1\n      0x1f\n      lt\n      tag_183\n      jumpi\n      0x0100\n      dup1\n      dup4\n      sload\n      div\n      mul\n      dup4\n      mstore\n      swap2\n      0x20\n      add\n      swap2\n      jump(tag_182)\n    tag_183:\n      dup3\n      add\n      swap2\n      swap1\n      0x00\n      mstore\n      keccak256(0x00, 0x20)\n      swap1\n    tag_184:\n      dup2\n      sload\n      dup2\n      mstore\n      swap1\n      0x01\n      add\n      swap1\n      0x20\n      add\n      dup1\n      dup4\n      gt\n      tag_184\n      jumpi\n      dup3\n      swap1\n      sub\n      0x1f\n      and\n      dup3\n      add\n      swap2\n    tag_182:\n      pop\n      pop\n      pop\n      pop\n      pop\n      dup2\n      jump\t// out\n        /* \"NewFraxProtocol/contracts/Oracle/UniswapPairOracleExtra.sol\":6141:6278  function setAddressToConsult(address _address_to_consult) external onlyByOwnGov {... */\n    tag_93:\n        /* \"NewFraxProtocol/contracts/Oracle/UniswapPairOracleExtra.sol\":2604:2609  owner */\n      0x00\n      dup1\n      sload\n      swap1\n      0x0100\n      exp\n      swap1\n      div\n      0xffffffffffffffffffffffffffffffffffffffff\n      and\n        /* \"NewFraxProtocol/contracts/Oracle/UniswapPairOracleExtra.sol\":2590:2609  msg.sender == owner */\n      0xffffffffffffffffffffffffffffffffffffffff\n      and\n        /* \"NewFraxProtocol/contracts/Oracle/UniswapPairOracleExtra.sol\":2590:2600  msg.sender */\n      caller\n        /* \"NewFraxProtocol/contracts/Oracle/UniswapPairOracleExtra.sol\":2590:2609  msg.sender == owner */\n      0xffffffffffffffffffffffffffffffffffffffff\n      and\n      eq\n        /* \"NewFraxProtocol/contracts/Oracle/UniswapPairOracleExtra.sol\":2590:2643  msg.sender == owner || msg.sender == timelock_address */\n      dup1\n      tag_186\n      jumpi\n      pop\n        /* \"NewFraxProtocol/contracts/Oracle/UniswapPairOracleExtra.sol\":2627:2643  timelock_address */\n      0x02\n      0x00\n      swap1\n      sload\n      swap1\n      0x0100\n      exp\n      swap1\n      div\n      0xffffffffffffffffffffffffffffffffffffffff\n      and\n        /* \"NewFraxProtocol/contracts/Oracle/UniswapPairOracleExtra.sol\":2613:2643  msg.sender == timelock_address */\n      0xffffffffffffffffffffffffffffffffffffffff\n      and\n        /* \"NewFraxProtocol/contracts/Oracle/UniswapPairOracleExtra.sol\":2613:2623  msg.sender */\n      caller\n        /* \"NewFraxProtocol/contracts/Oracle/UniswapPairOracleExtra.sol\":2613:2643  msg.sender == timelock_address */\n      0xffffffffffffffffffffffffffffffffffffffff\n      and\n      eq\n        /* \"NewFraxProtocol/contracts/Oracle/UniswapPairOracleExtra.sol\":2590:2643  msg.sender == owner || msg.sender == timelock_address */\n    tag_186:\n        /* \"NewFraxProtocol/contracts/Oracle/UniswapPairOracleExtra.sol\":2582:2695  require(msg.sender == owner || msg.sender == timelock_address, \"You are not an owner or the governance timelock\") */\n      tag_187\n      jumpi\n      mload(0x40)\n      0x08c379a000000000000000000000000000000000000000000000000000000000\n      dup2\n      mstore\n      0x04\n      add\n      tag_188\n      swap1\n      tag_144\n      jump\t// in\n    tag_188:\n      mload(0x40)\n      dup1\n      swap2\n      sub\n      swap1\n      revert\n    tag_187:\n        /* \"NewFraxProtocol/contracts/Oracle/UniswapPairOracleExtra.sol\":6252:6271  _address_to_consult */\n      dup1\n        /* \"NewFraxProtocol/contracts/Oracle/UniswapPairOracleExtra.sol\":6231:6249  address_to_consult */\n      0x0b\n      0x00\n        /* \"NewFraxProtocol/contracts/Oracle/UniswapPairOracleExtra.sol\":6231:6271  address_to_consult = _address_to_consult */\n      0x0100\n      exp\n      dup2\n      sload\n      dup2\n      0xffffffffffffffffffffffffffffffffffffffff\n      mul\n      not\n      and\n      swap1\n      dup4\n      0xffffffffffffffffffffffffffffffffffffffff\n      and\n      mul\n      or\n      swap1\n      sstore\n      pop\n        /* \"NewFraxProtocol/contracts/Oracle/UniswapPairOracleExtra.sol\":6141:6278  function setAddressToConsult(address _address_to_consult) external onlyByOwnGov {... */\n      pop\n      jump\t// out\n        /* \"NewFraxProtocol/contracts/Staking/Owned.sol\":532:798  function acceptOwnership() external {... */\n    tag_95:\n        /* \"NewFraxProtocol/contracts/Staking/Owned.sol\":600:614  nominatedOwner */\n      0x01\n      0x00\n      swap1\n      sload\n      swap1\n      0x0100\n      exp\n      swap1\n      div\n      0xffffffffffffffffffffffffffffffffffffffff\n      and\n        /* \"NewFraxProtocol/contracts/Staking/Owned.sol\":586:614  msg.sender == nominatedOwner */\n      0xffffffffffffffffffffffffffffffffffffffff\n      and\n        /* \"NewFraxProtocol/contracts/Staking/Owned.sol\":586:596  msg.sender */\n      caller\n        /* \"NewFraxProtocol/contracts/Staking/Owned.sol\":586:614  msg.sender == nominatedOwner */\n      0xffffffffffffffffffffffffffffffffffffffff\n      and\n      eq\n        /* \"NewFraxProtocol/contracts/Staking/Owned.sol\":578:672  require(msg.sender == nominatedOwner, \"You must be nominated before you can accept ownership\") */\n      tag_191\n      jumpi\n      mload(0x40)\n      0x08c379a000000000000000000000000000000000000000000000000000000000\n      dup2\n      mstore\n      0x04\n      add\n      tag_192\n      swap1\n      tag_193\n      jump\t// in\n    tag_192:\n      mload(0x40)\n      dup1\n      swap2\n      sub\n      swap1\n      revert\n    tag_191:\n        /* \"NewFraxProtocol/contracts/Staking/Owned.sol\":687:722  OwnerChanged(owner, nominatedOwner) */\n      0xb532073b38c83145e3e5135377a08bf9aab55bc0fd7c1179cd4fb995d2a5159c\n        /* \"NewFraxProtocol/contracts/Staking/Owned.sol\":700:705  owner */\n      0x00\n      dup1\n      sload\n      swap1\n      0x0100\n      exp\n      swap1\n      div\n      0xffffffffffffffffffffffffffffffffffffffff\n      and\n        /* \"NewFraxProtocol/contracts/Staking/Owned.sol\":707:721  nominatedOwner */\n      0x01\n      0x00\n      swap1\n      sload\n      swap1\n      0x0100\n      exp\n      swap1\n      div\n      0xffffffffffffffffffffffffffffffffffffffff\n      and\n        /* \"NewFraxProtocol/contracts/Staking/Owned.sol\":687:722  OwnerChanged(owner, nominatedOwner) */\n      mload(0x40)\n      tag_194\n      swap3\n      swap2\n      swap1\n      tag_195\n      jump\t// in\n    tag_194:\n      mload(0x40)\n      dup1\n      swap2\n      sub\n      swap1\n      log1\n        /* \"NewFraxProtocol/contracts/Staking/Owned.sol\":740:754  nominatedOwner */\n      0x01\n      0x00\n      swap1\n      sload\n      swap1\n      0x0100\n      exp\n      swap1\n      div\n      0xffffffffffffffffffffffffffffffffffffffff\n      and\n        /* \"NewFraxProtocol/contracts/Staking/Owned.sol\":732:737  owner */\n      0x00\n      dup1\n        /* \"NewFraxProtocol/contracts/Staking/Owned.sol\":732:754  owner = nominatedOwner */\n      0x0100\n      exp\n      dup2\n      sload\n      dup2\n      0xffffffffffffffffffffffffffffffffffffffff\n      mul\n      not\n      and\n      swap1\n      dup4\n      0xffffffffffffffffffffffffffffffffffffffff\n      and\n      mul\n      or\n      swap1\n      sstore\n      pop\n        /* \"NewFraxProtocol/contracts/Staking/Owned.sol\":789:790  0 */\n      0x00\n        /* \"NewFraxProtocol/contracts/Staking/Owned.sol\":764:778  nominatedOwner */\n      0x01\n      0x00\n        /* \"NewFraxProtocol/contracts/Staking/Owned.sol\":764:791  nominatedOwner = address(0) */\n      0x0100\n      exp\n      dup2\n      sload\n      dup2\n      0xffffffffffffffffffffffffffffffffffffffff\n      mul\n      not\n      and\n      swap1\n      dup4\n      0xffffffffffffffffffffffffffffffffffffffff\n      and\n      mul\n      or\n      swap1\n      sstore\n      pop\n        /* \"NewFraxProtocol/contracts/Staking/Owned.sol\":532:798  function acceptOwnership() external {... */\n      jump\t// out\n        /* \"NewFraxProtocol/contracts/Staking/Owned.sol\":138:158  address public owner */\n    tag_97:\n      0x00\n      dup1\n      sload\n      swap1\n      0x0100\n      exp\n      swap1\n      div\n      0xffffffffffffffffffffffffffffffffffffffff\n      and\n      dup2\n      jump\t// out\n        /* \"NewFraxProtocol/contracts/Oracle/UniswapPairOracleExtra.sol\":1289:1326  uint256 public PRICE_PRECISION = 1e18 */\n    tag_100:\n      sload(0x0c)\n      dup2\n      jump\t// out\n        /* \"NewFraxProtocol/contracts/Oracle/UniswapPairOracleExtra.sol\":3613:3848  function getRoundData(uint80 _roundId) external view returns (... */\n    tag_105:\n        /* \"NewFraxProtocol/contracts/Oracle/UniswapPairOracleExtra.sol\":3684:3698  uint80 roundId */\n      0x00\n        /* \"NewFraxProtocol/contracts/Oracle/UniswapPairOracleExtra.sol\":3708:3721  int256 answer */\n      dup1\n        /* \"NewFraxProtocol/contracts/Oracle/UniswapPairOracleExtra.sol\":3731:3748  uint256 startedAt */\n      0x00\n        /* \"NewFraxProtocol/contracts/Oracle/UniswapPairOracleExtra.sol\":3758:3775  uint256 updatedAt */\n      dup1\n        /* \"NewFraxProtocol/contracts/Oracle/UniswapPairOracleExtra.sol\":3785:3807  uint80 answeredInRound */\n      0x00\n        /* \"NewFraxProtocol/contracts/Oracle/UniswapPairOracleExtra.sol\":3613:3848  function getRoundData(uint80 _roundId) external view returns (... */\n      swap2\n      swap4\n      swap6\n      swap1\n      swap3\n      swap5\n      pop\n      jump\t// out\n        /* \"NewFraxProtocol/contracts/Oracle/UniswapPairOracleExtra.sol\":4310:4574  function canUpdate() public view returns (bool) {... */\n    tag_109:\n        /* \"NewFraxProtocol/contracts/Oracle/UniswapPairOracleExtra.sol\":4352:4356  bool */\n      0x00\n        /* \"NewFraxProtocol/contracts/Oracle/UniswapPairOracleExtra.sol\":4368:4389  uint32 blockTimestamp */\n      dup1\n        /* \"NewFraxProtocol/contracts/Oracle/UniswapPairOracleExtra.sol\":4392:4438  UniswapV2OracleLibrary.currentBlockTimestamp() */\n      tag_198\n        /* \"NewFraxProtocol/contracts/Oracle/UniswapPairOracleExtra.sol\":4392:4436  UniswapV2OracleLibrary.currentBlockTimestamp */\n      tag_154\n        /* \"NewFraxProtocol/contracts/Oracle/UniswapPairOracleExtra.sol\":4392:4438  UniswapV2OracleLibrary.currentBlockTimestamp() */\n      jump\t// in\n    tag_198:\n        /* \"NewFraxProtocol/contracts/Oracle/UniswapPairOracleExtra.sol\":4368:4438  uint32 blockTimestamp = UniswapV2OracleLibrary.currentBlockTimestamp() */\n      swap1\n      pop\n        /* \"NewFraxProtocol/contracts/Oracle/UniswapPairOracleExtra.sol\":4448:4466  uint32 timeElapsed */\n      0x00\n        /* \"NewFraxProtocol/contracts/Oracle/UniswapPairOracleExtra.sol\":4486:4504  blockTimestampLast */\n      0x08\n      0x00\n      swap1\n      sload\n      swap1\n      0x0100\n      exp\n      swap1\n      div\n      0xffffffff\n      and\n        /* \"NewFraxProtocol/contracts/Oracle/UniswapPairOracleExtra.sol\":4469:4483  blockTimestamp */\n      dup3\n        /* \"NewFraxProtocol/contracts/Oracle/UniswapPairOracleExtra.sol\":4469:4504  blockTimestamp - blockTimestampLast */\n      tag_199\n      swap2\n      swap1\n      tag_156\n      jump\t// in\n    tag_199:\n        /* \"NewFraxProtocol/contracts/Oracle/UniswapPairOracleExtra.sol\":4448:4504  uint32 timeElapsed = blockTimestamp - blockTimestampLast */\n      swap1\n      pop\n        /* \"NewFraxProtocol/contracts/Oracle/UniswapPairOracleExtra.sol\":4560:4566  PERIOD */\n      sload(0x03)\n        /* \"NewFraxProtocol/contracts/Oracle/UniswapPairOracleExtra.sol\":4545:4556  timeElapsed */\n      dup2\n        /* \"NewFraxProtocol/contracts/Oracle/UniswapPairOracleExtra.sol\":4545:4566  timeElapsed >= PERIOD */\n      0xffffffff\n      and\n      lt\n      iszero\n        /* \"NewFraxProtocol/contracts/Oracle/UniswapPairOracleExtra.sol\":4537:4567  return (timeElapsed >= PERIOD) */\n      swap3\n      pop\n      pop\n      pop\n        /* \"NewFraxProtocol/contracts/Oracle/UniswapPairOracleExtra.sol\":4310:4574  function canUpdate() public view returns (bool) {... */\n      swap1\n      jump\t// out\n        /* \"NewFraxProtocol/contracts/Oracle/UniswapPairOracleExtra.sol\":4580:5566  function update() external {... */\n    tag_112:\n        /* \"NewFraxProtocol/contracts/Oracle/UniswapPairOracleExtra.sol\":4618:4639  uint price0Cumulative */\n      0x00\n        /* \"NewFraxProtocol/contracts/Oracle/UniswapPairOracleExtra.sol\":4641:4662  uint price1Cumulative */\n      dup1\n        /* \"NewFraxProtocol/contracts/Oracle/UniswapPairOracleExtra.sol\":4664:4685  uint32 blockTimestamp */\n      0x00\n        /* \"NewFraxProtocol/contracts/Oracle/UniswapPairOracleExtra.sol\":4701:4762  UniswapV2OracleLibrary.currentCumulativePrices(address(pair)) */\n      tag_201\n        /* \"NewFraxProtocol/contracts/Oracle/UniswapPairOracleExtra.sol\":4756:4760  pair */\n      immutable(\"0x586bc28d3054f4dbe055d394fb07178550ffa07719f13030471f37cfde70ca83\")\n        /* \"NewFraxProtocol/contracts/Oracle/UniswapPairOracleExtra.sol\":4701:4747  UniswapV2OracleLibrary.currentCumulativePrices */\n      tag_202\n        /* \"NewFraxProtocol/contracts/Oracle/UniswapPairOracleExtra.sol\":4701:4762  UniswapV2OracleLibrary.currentCumulativePrices(address(pair)) */\n      jump\t// in\n    tag_201:\n        /* \"NewFraxProtocol/contracts/Oracle/UniswapPairOracleExtra.sol\":4617:4762  (uint price0Cumulative, uint price1Cumulative, uint32 blockTimestamp) =... */\n      swap3\n      pop\n      swap3\n      pop\n      swap3\n      pop\n        /* \"NewFraxProtocol/contracts/Oracle/UniswapPairOracleExtra.sol\":4772:4790  uint32 timeElapsed */\n      0x00\n        /* \"NewFraxProtocol/contracts/Oracle/UniswapPairOracleExtra.sol\":4810:4828  blockTimestampLast */\n      0x08\n      0x00\n      swap1\n      sload\n      swap1\n      0x0100\n      exp\n      swap1\n      div\n      0xffffffff\n      and\n        /* \"NewFraxProtocol/contracts/Oracle/UniswapPairOracleExtra.sol\":4793:4807  blockTimestamp */\n      dup3\n        /* \"NewFraxProtocol/contracts/Oracle/UniswapPairOracleExtra.sol\":4793:4828  blockTimestamp - blockTimestampLast */\n      tag_203\n      swap2\n      swap1\n      tag_156\n      jump\t// in\n    tag_203:\n        /* \"NewFraxProtocol/contracts/Oracle/UniswapPairOracleExtra.sol\":4772:4828  uint32 timeElapsed = blockTimestamp - blockTimestampLast */\n      swap1\n      pop\n        /* \"NewFraxProtocol/contracts/Oracle/UniswapPairOracleExtra.sol\":4966:4972  PERIOD */\n      sload(0x03)\n        /* \"NewFraxProtocol/contracts/Oracle/UniswapPairOracleExtra.sol\":4951:4962  timeElapsed */\n      dup2\n        /* \"NewFraxProtocol/contracts/Oracle/UniswapPairOracleExtra.sol\":4951:4972  timeElapsed >= PERIOD */\n      0xffffffff\n      and\n      lt\n      iszero\n        /* \"NewFraxProtocol/contracts/Oracle/UniswapPairOracleExtra.sol\":4943:5014  require(timeElapsed >= PERIOD, 'UniswapPairOracle: PERIOD_NOT_ELAPSED') */\n      tag_204\n      jumpi\n      mload(0x40)\n      0x08c379a000000000000000000000000000000000000000000000000000000000\n      dup2\n      mstore\n      0x04\n      add\n      tag_205\n      swap1\n      tag_206\n      jump\t// in\n    tag_205:\n      mload(0x40)\n      dup1\n      swap2\n      sub\n      swap1\n      revert\n    tag_204:\n        /* \"NewFraxProtocol/contracts/Oracle/UniswapPairOracleExtra.sol\":5217:5303  FixedPoint.uq112x112(uint224((price0Cumulative - price0CumulativeLast) / timeElapsed)) */\n      mload(0x40)\n      dup1\n      0x20\n      add\n      0x40\n      mstore\n      dup1\n        /* \"NewFraxProtocol/contracts/Oracle/UniswapPairOracleExtra.sol\":5290:5301  timeElapsed */\n      dup3\n        /* \"NewFraxProtocol/contracts/Oracle/UniswapPairOracleExtra.sol\":5246:5301  (price0Cumulative - price0CumulativeLast) / timeElapsed */\n      0xffffffff\n      and\n        /* \"NewFraxProtocol/contracts/Oracle/UniswapPairOracleExtra.sol\":5266:5286  price0CumulativeLast */\n      sload(0x06)\n        /* \"NewFraxProtocol/contracts/Oracle/UniswapPairOracleExtra.sol\":5247:5263  price0Cumulative */\n      dup8\n        /* \"NewFraxProtocol/contracts/Oracle/UniswapPairOracleExtra.sol\":5247:5286  price0Cumulative - price0CumulativeLast */\n      tag_207\n      swap2\n      swap1\n      tag_208\n      jump\t// in\n    tag_207:\n        /* \"NewFraxProtocol/contracts/Oracle/UniswapPairOracleExtra.sol\":5246:5301  (price0Cumulative - price0CumulativeLast) / timeElapsed */\n      tag_209\n      swap2\n      swap1\n      tag_210\n      jump\t// in\n    tag_209:\n        /* \"NewFraxProtocol/contracts/Oracle/UniswapPairOracleExtra.sol\":5217:5303  FixedPoint.uq112x112(uint224((price0Cumulative - price0CumulativeLast) / timeElapsed)) */\n      0xffffffffffffffffffffffffffffffffffffffffffffffffffffffff\n      and\n      dup2\n      mstore\n      pop\n        /* \"NewFraxProtocol/contracts/Oracle/UniswapPairOracleExtra.sol\":5201:5214  price0Average */\n      0x09\n        /* \"NewFraxProtocol/contracts/Oracle/UniswapPairOracleExtra.sol\":5201:5303  price0Average = FixedPoint.uq112x112(uint224((price0Cumulative - price0CumulativeLast) / timeElapsed)) */\n      0x00\n      dup3\n      add\n      mload\n      dup2\n      0x00\n      add\n      exp(0x0100, 0x00)\n      dup2\n      sload\n      dup2\n      0xffffffffffffffffffffffffffffffffffffffffffffffffffffffff\n      mul\n      not\n      and\n      swap1\n      dup4\n      0xffffffffffffffffffffffffffffffffffffffffffffffffffffffff\n      and\n      mul\n      or\n      swap1\n      sstore\n      pop\n      swap1\n      pop\n      pop\n        /* \"NewFraxProtocol/contracts/Oracle/UniswapPairOracleExtra.sol\":5329:5415  FixedPoint.uq112x112(uint224((price1Cumulative - price1CumulativeLast) / timeElapsed)) */\n      mload(0x40)\n      dup1\n      0x20\n      add\n      0x40\n      mstore\n      dup1\n        /* \"NewFraxProtocol/contracts/Oracle/UniswapPairOracleExtra.sol\":5402:5413  timeElapsed */\n      dup3\n        /* \"NewFraxProtocol/contracts/Oracle/UniswapPairOracleExtra.sol\":5358:5413  (price1Cumulative - price1CumulativeLast) / timeElapsed */\n      0xffffffff\n      and\n        /* \"NewFraxProtocol/contracts/Oracle/UniswapPairOracleExtra.sol\":5378:5398  price1CumulativeLast */\n      sload(0x07)\n        /* \"NewFraxProtocol/contracts/Oracle/UniswapPairOracleExtra.sol\":5359:5375  price1Cumulative */\n      dup7\n        /* \"NewFraxProtocol/contracts/Oracle/UniswapPairOracleExtra.sol\":5359:5398  price1Cumulative - price1CumulativeLast */\n      tag_211\n      swap2\n      swap1\n      tag_208\n      jump\t// in\n    tag_211:\n        /* \"NewFraxProtocol/contracts/Oracle/UniswapPairOracleExtra.sol\":5358:5413  (price1Cumulative - price1CumulativeLast) / timeElapsed */\n      tag_212\n      swap2\n      swap1\n      tag_210\n      jump\t// in\n    tag_212:\n        /* \"NewFraxProtocol/contracts/Oracle/UniswapPairOracleExtra.sol\":5329:5415  FixedPoint.uq112x112(uint224((price1Cumulative - price1CumulativeLast) / timeElapsed)) */\n      0xffffffffffffffffffffffffffffffffffffffffffffffffffffffff\n      and\n      dup2\n      mstore\n      pop\n        /* \"NewFraxProtocol/contracts/Oracle/UniswapPairOracleExtra.sol\":5313:5326  price1Average */\n      0x0a\n        /* \"NewFraxProtocol/contracts/Oracle/UniswapPairOracleExtra.sol\":5313:5415  price1Average = FixedPoint.uq112x112(uint224((price1Cumulative - price1CumulativeLast) / timeElapsed)) */\n      0x00\n      dup3\n      add\n      mload\n      dup2\n      0x00\n      add\n      exp(0x0100, 0x00)\n      dup2\n      sload\n      dup2\n      0xffffffffffffffffffffffffffffffffffffffffffffffffffffffff\n      mul\n      not\n      and\n      swap1\n      dup4\n      0xffffffffffffffffffffffffffffffffffffffffffffffffffffffff\n      and\n      mul\n      or\n      swap1\n      sstore\n      pop\n      swap1\n      pop\n      pop\n        /* \"NewFraxProtocol/contracts/Oracle/UniswapPairOracleExtra.sol\":5449:5465  price0Cumulative */\n      dup4\n        /* \"NewFraxProtocol/contracts/Oracle/UniswapPairOracleExtra.sol\":5426:5446  price0CumulativeLast */\n      0x06\n        /* \"NewFraxProtocol/contracts/Oracle/UniswapPairOracleExtra.sol\":5426:5465  price0CumulativeLast = price0Cumulative */\n      dup2\n      swap1\n      sstore\n      pop\n        /* \"NewFraxProtocol/contracts/Oracle/UniswapPairOracleExtra.sol\":5498:5514  price1Cumulative */\n      dup3\n        /* \"NewFraxProtocol/contracts/Oracle/UniswapPairOracleExtra.sol\":5475:5495  price1CumulativeLast */\n      0x07\n        /* \"NewFraxProtocol/contracts/Oracle/UniswapPairOracleExtra.sol\":5475:5514  price1CumulativeLast = price1Cumulative */\n      dup2\n      swap1\n      sstore\n      pop\n        /* \"NewFraxProtocol/contracts/Oracle/UniswapPairOracleExtra.sol\":5545:5559  blockTimestamp */\n      dup2\n        /* \"NewFraxProtocol/contracts/Oracle/UniswapPairOracleExtra.sol\":5524:5542  blockTimestampLast */\n      0x08\n      0x00\n        /* \"NewFraxProtocol/contracts/Oracle/UniswapPairOracleExtra.sol\":5524:5559  blockTimestampLast = blockTimestamp */\n      0x0100\n      exp\n      dup2\n      sload\n      dup2\n      0xffffffff\n      mul\n      not\n      and\n      swap1\n      dup4\n      0xffffffff\n      and\n      mul\n      or\n      swap1\n      sstore\n      pop\n        /* \"NewFraxProtocol/contracts/Oracle/UniswapPairOracleExtra.sol\":4607:5566  {... */\n      pop\n      pop\n      pop\n      pop\n        /* \"NewFraxProtocol/contracts/Oracle/UniswapPairOracleExtra.sol\":4580:5566  function update() external {... */\n      jump\t// out\n        /* \"NewFraxProtocol/contracts/Oracle/UniswapPairOracleExtra.sol\":1148:1189  FixedPoint.uq112x112 public price0Average */\n    tag_114:\n      0x09\n      dup1\n      0x00\n      add\n      0x00\n      swap1\n      sload\n      swap1\n      0x0100\n      exp\n      swap1\n      div\n      0xffffffffffffffffffffffffffffffffffffffffffffffffffffffff\n      and\n      swap1\n      pop\n      dup2\n      jump\t// out\n        /* \"NewFraxProtocol/contracts/Oracle/UniswapPairOracleExtra.sol\":910:946  IUniswapV2Pair public immutable pair */\n    tag_117:\n      immutable(\"0x586bc28d3054f4dbe055d394fb07178550ffa07719f13030471f37cfde70ca83\")\n      dup2\n      jump\t// out\n        /* \"NewFraxProtocol/contracts/Oracle/UniswapPairOracleExtra.sol\":640:665  uint public PERIOD = 3600 */\n    tag_121:\n      sload(0x03)\n      dup2\n      jump\t// out\n        /* \"NewFraxProtocol/contracts/Oracle/UniswapPairOracleExtra.sol\":5637:5760  function setTimelock(address _timelock_address) external onlyByOwnGov {... */\n    tag_125:\n        /* \"NewFraxProtocol/contracts/Oracle/UniswapPairOracleExtra.sol\":2604:2609  owner */\n      0x00\n      dup1\n      sload\n      swap1\n      0x0100\n      exp\n      swap1\n      div\n      0xffffffffffffffffffffffffffffffffffffffff\n      and\n        /* \"NewFraxProtocol/contracts/Oracle/UniswapPairOracleExtra.sol\":2590:2609  msg.sender == owner */\n      0xffffffffffffffffffffffffffffffffffffffff\n      and\n        /* \"NewFraxProtocol/contracts/Oracle/UniswapPairOracleExtra.sol\":2590:2600  msg.sender */\n      caller\n        /* \"NewFraxProtocol/contracts/Oracle/UniswapPairOracleExtra.sol\":2590:2609  msg.sender == owner */\n      0xffffffffffffffffffffffffffffffffffffffff\n      and\n      eq\n        /* \"NewFraxProtocol/contracts/Oracle/UniswapPairOracleExtra.sol\":2590:2643  msg.sender == owner || msg.sender == timelock_address */\n      dup1\n      tag_214\n      jumpi\n      pop\n        /* \"NewFraxProtocol/contracts/Oracle/UniswapPairOracleExtra.sol\":2627:2643  timelock_address */\n      0x02\n      0x00\n      swap1\n      sload\n      swap1\n      0x0100\n      exp\n      swap1\n      div\n      0xffffffffffffffffffffffffffffffffffffffff\n      and\n        /* \"NewFraxProtocol/contracts/Oracle/UniswapPairOracleExtra.sol\":2613:2643  msg.sender == timelock_address */\n      0xffffffffffffffffffffffffffffffffffffffff\n      and\n        /* \"NewFraxProtocol/contracts/Oracle/UniswapPairOracleExtra.sol\":2613:2623  msg.sender */\n      caller\n        /* \"NewFraxProtocol/contracts/Oracle/UniswapPairOracleExtra.sol\":2613:2643  msg.sender == timelock_address */\n      0xffffffffffffffffffffffffffffffffffffffff\n      and\n      eq\n        /* \"NewFraxProtocol/contracts/Oracle/UniswapPairOracleExtra.sol\":2590:2643  msg.sender == owner || msg.sender == timelock_address */\n    tag_214:\n        /* \"NewFraxProtocol/contracts/Oracle/UniswapPairOracleExtra.sol\":2582:2695  require(msg.sender == owner || msg.sender == timelock_address, \"You are not an owner or the governance timelock\") */\n      tag_215\n      jumpi\n      mload(0x40)\n      0x08c379a000000000000000000000000000000000000000000000000000000000\n      dup2\n      mstore\n      0x04\n      add\n      tag_216\n      swap1\n      tag_144\n      jump\t// in\n    tag_216:\n      mload(0x40)\n      dup1\n      swap2\n      sub\n      swap1\n      revert\n    tag_215:\n        /* \"NewFraxProtocol/contracts/Oracle/UniswapPairOracleExtra.sol\":5736:5753  _timelock_address */\n      dup1\n        /* \"NewFraxProtocol/contracts/Oracle/UniswapPairOracleExtra.sol\":5717:5733  timelock_address */\n      0x02\n      0x00\n        /* \"NewFraxProtocol/contracts/Oracle/UniswapPairOracleExtra.sol\":5717:5753  timelock_address = _timelock_address */\n      0x0100\n      exp\n      dup2\n      sload\n      dup2\n      0xffffffffffffffffffffffffffffffffffffffff\n      mul\n      not\n      and\n      swap1\n      dup4\n      0xffffffffffffffffffffffffffffffffffffffff\n      and\n      mul\n      or\n      swap1\n      sstore\n      pop\n        /* \"NewFraxProtocol/contracts/Oracle/UniswapPairOracleExtra.sol\":5637:5760  function setTimelock(address _timelock_address) external onlyByOwnGov {... */\n      pop\n      jump\t// out\n        /* \"NewFraxProtocol/contracts/Oracle/UniswapPairOracleExtra.sol\":1109:1142  uint32  public blockTimestampLast */\n    tag_127:\n      0x08\n      0x00\n      swap1\n      sload\n      swap1\n      0x0100\n      exp\n      swap1\n      div\n      0xffffffff\n      and\n      dup2\n      jump\t// out\n        /* \"NewFraxProtocol/contracts/Oracle/UniswapPairOracleExtra.sol\":989:1020  address public immutable token1 */\n    tag_131:\n      immutable(\"0x0f1bcf290b66a2cfed5f23463bc63e98c2b29d8093b3c4b39be593d60dfd3630\")\n      dup2\n      jump\t// out\n        /* \"NewFraxProtocol/contracts/Oracle/UniswapPairOracleExtra.sol\":5993:6135  function setAllowStaleConsults(bool _allow_stale_consults) external onlyByOwnGov {... */\n    tag_136:\n        /* \"NewFraxProtocol/contracts/Oracle/UniswapPairOracleExtra.sol\":2604:2609  owner */\n      0x00\n      dup1\n      sload\n      swap1\n      0x0100\n      exp\n      swap1\n      div\n      0xffffffffffffffffffffffffffffffffffffffff\n      and\n        /* \"NewFraxProtocol/contracts/Oracle/UniswapPairOracleExtra.sol\":2590:2609  msg.sender == owner */\n      0xffffffffffffffffffffffffffffffffffffffff\n      and\n        /* \"NewFraxProtocol/contracts/Oracle/UniswapPairOracleExtra.sol\":2590:2600  msg.sender */\n      caller\n        /* \"NewFraxProtocol/contracts/Oracle/UniswapPairOracleExtra.sol\":2590:2609  msg.sender == owner */\n      0xffffffffffffffffffffffffffffffffffffffff\n      and\n      eq\n        /* \"NewFraxProtocol/contracts/Oracle/UniswapPairOracleExtra.sol\":2590:2643  msg.sender == owner || msg.sender == timelock_address */\n      dup1\n      tag_219\n      jumpi\n      pop\n        /* \"NewFraxProtocol/contracts/Oracle/UniswapPairOracleExtra.sol\":2627:2643  timelock_address */\n      0x02\n      0x00\n      swap1\n      sload\n      swap1\n      0x0100\n      exp\n      swap1\n      div\n      0xffffffffffffffffffffffffffffffffffffffff\n      and\n        /* \"NewFraxProtocol/contracts/Oracle/UniswapPairOracleExtra.sol\":2613:2643  msg.sender == timelock_address */\n      0xffffffffffffffffffffffffffffffffffffffff\n      and\n        /* \"NewFraxProtocol/contracts/Oracle/UniswapPairOracleExtra.sol\":2613:2623  msg.sender */\n      caller\n        /* \"NewFraxProtocol/contracts/Oracle/UniswapPairOracleExtra.sol\":2613:2643  msg.sender == timelock_address */\n      0xffffffffffffffffffffffffffffffffffffffff\n      and\n      eq\n        /* \"NewFraxProtocol/contracts/Oracle/UniswapPairOracleExtra.sol\":2590:2643  msg.sender == owner || msg.sender == timelock_address */\n    tag_219:\n        /* \"NewFraxProtocol/contracts/Oracle/UniswapPairOracleExtra.sol\":2582:2695  require(msg.sender == owner || msg.sender == timelock_address, \"You are not an owner or the governance timelock\") */\n      tag_220\n      jumpi\n      mload(0x40)\n      0x08c379a000000000000000000000000000000000000000000000000000000000\n      dup2\n      mstore\n      0x04\n      add\n      tag_221\n      swap1\n      tag_144\n      jump\t// in\n    tag_221:\n      mload(0x40)\n      dup1\n      swap2\n      sub\n      swap1\n      revert\n    tag_220:\n        /* \"NewFraxProtocol/contracts/Oracle/UniswapPairOracleExtra.sol\":6107:6128  _allow_stale_consults */\n      dup1\n        /* \"NewFraxProtocol/contracts/Oracle/UniswapPairOracleExtra.sol\":6084:6104  ALLOW_STALE_CONSULTS */\n      0x05\n      0x00\n        /* \"NewFraxProtocol/contracts/Oracle/UniswapPairOracleExtra.sol\":6084:6128  ALLOW_STALE_CONSULTS = _allow_stale_consults */\n      0x0100\n      exp\n      dup2\n      sload\n      dup2\n      0xff\n      mul\n      not\n      and\n      swap1\n      dup4\n      iszero\n      iszero\n      mul\n      or\n      swap1\n      sstore\n      pop\n        /* \"NewFraxProtocol/contracts/Oracle/UniswapPairOracleExtra.sol\":5993:6135  function setAllowStaleConsults(bool _allow_stale_consults) external onlyByOwnGov {... */\n      pop\n      jump\t// out\n        /* \"NewFraxProtocol/contracts/Oracle/UniswapPairOracleExtra.sol\":3854:4181  function latestRoundData() external view returns (... */\n    tag_138:\n        /* \"NewFraxProtocol/contracts/Oracle/UniswapPairOracleExtra.sol\":3913:3927  uint80 roundId */\n      0x00\n        /* \"NewFraxProtocol/contracts/Oracle/UniswapPairOracleExtra.sol\":3937:3950  int256 answer */\n      dup1\n        /* \"NewFraxProtocol/contracts/Oracle/UniswapPairOracleExtra.sol\":3960:3977  uint256 startedAt */\n      0x00\n        /* \"NewFraxProtocol/contracts/Oracle/UniswapPairOracleExtra.sol\":3987:4004  uint256 updatedAt */\n      dup1\n        /* \"NewFraxProtocol/contracts/Oracle/UniswapPairOracleExtra.sol\":4014:4036  uint80 answeredInRound */\n      0x00\n        /* \"NewFraxProtocol/contracts/Oracle/UniswapPairOracleExtra.sol\":4053:4074  int256 consult_result */\n      dup1\n        /* \"NewFraxProtocol/contracts/Oracle/UniswapPairOracleExtra.sol\":4084:4128  consult(address_to_consult, PRICE_PRECISION) */\n      tag_224\n        /* \"NewFraxProtocol/contracts/Oracle/UniswapPairOracleExtra.sol\":4092:4110  address_to_consult */\n      0x0b\n      0x00\n      swap1\n      sload\n      swap1\n      0x0100\n      exp\n      swap1\n      div\n      0xffffffffffffffffffffffffffffffffffffffff\n      and\n        /* \"NewFraxProtocol/contracts/Oracle/UniswapPairOracleExtra.sol\":4112:4127  PRICE_PRECISION */\n      sload(0x0c)\n        /* \"NewFraxProtocol/contracts/Oracle/UniswapPairOracleExtra.sol\":4084:4091  consult */\n      tag_62\n        /* \"NewFraxProtocol/contracts/Oracle/UniswapPairOracleExtra.sol\":4084:4128  consult(address_to_consult, PRICE_PRECISION) */\n      jump\t// in\n    tag_224:\n        /* \"NewFraxProtocol/contracts/Oracle/UniswapPairOracleExtra.sol\":4053:4129  int256 consult_result = int256(consult(address_to_consult, PRICE_PRECISION)) */\n      swap1\n      pop\n        /* \"NewFraxProtocol/contracts/Oracle/UniswapPairOracleExtra.sol\":4147:4148  0 */\n      0x00\n        /* \"NewFraxProtocol/contracts/Oracle/UniswapPairOracleExtra.sol\":4150:4164  consult_result */\n      dup2\n        /* \"NewFraxProtocol/contracts/Oracle/UniswapPairOracleExtra.sol\":4166:4167  0 */\n      0x00\n        /* \"NewFraxProtocol/contracts/Oracle/UniswapPairOracleExtra.sol\":4169:4170  0 */\n      dup1\n        /* \"NewFraxProtocol/contracts/Oracle/UniswapPairOracleExtra.sol\":4172:4173  0 */\n      0x00\n        /* \"NewFraxProtocol/contracts/Oracle/UniswapPairOracleExtra.sol\":4139:4174  return (0, consult_result, 0, 0, 0) */\n      swap6\n      pop\n      swap6\n      pop\n      swap6\n      pop\n      swap6\n      pop\n      swap6\n      pop\n      pop\n        /* \"NewFraxProtocol/contracts/Oracle/UniswapPairOracleExtra.sol\":3854:4181  function latestRoundData() external view returns (... */\n      swap1\n      swap2\n      swap3\n      swap4\n      swap5\n      jump\t// out\n        /* \"NewFraxProtocol/contracts/Uniswap/UniswapV2OracleLibrary.sol\":414:535  function currentBlockTimestamp() internal view returns (uint32) {... */\n    tag_154:\n        /* \"NewFraxProtocol/contracts/Uniswap/UniswapV2OracleLibrary.sol\":470:476  uint32 */\n      0x00\n        /* \"NewFraxProtocol/contracts/Uniswap/UniswapV2OracleLibrary.sol\":520:527  2 ** 32 */\n      0x0100000000\n        /* \"NewFraxProtocol/contracts/Uniswap/UniswapV2OracleLibrary.sol\":502:517  block.timestamp */\n      timestamp\n        /* \"NewFraxProtocol/contracts/Uniswap/UniswapV2OracleLibrary.sol\":502:527  block.timestamp % 2 ** 32 */\n      tag_226\n      swap2\n      swap1\n      tag_227\n      jump\t// in\n    tag_226:\n        /* \"NewFraxProtocol/contracts/Uniswap/UniswapV2OracleLibrary.sol\":488:528  return uint32(block.timestamp % 2 ** 32) */\n      swap1\n      pop\n        /* \"NewFraxProtocol/contracts/Uniswap/UniswapV2OracleLibrary.sol\":414:535  function currentBlockTimestamp() internal view returns (uint32) {... */\n      swap1\n      jump\t// out\n        /* \"NewFraxProtocol/contracts/Math/FixedPoint.sol\":1286:1535  function mul(uq112x112 memory self, uint y) internal pure returns (uq144x112 memory) {... */\n    tag_166:\n        /* \"NewFraxProtocol/contracts/Math/FixedPoint.sol\":1353:1369  uq144x112 memory */\n      tag_228\n      tag_229\n      jump\t// in\n    tag_228:\n        /* \"NewFraxProtocol/contracts/Math/FixedPoint.sol\":1381:1387  uint z */\n      0x00\n        /* \"NewFraxProtocol/contracts/Math/FixedPoint.sol\":1410:1411  0 */\n      dup1\n        /* \"NewFraxProtocol/contracts/Math/FixedPoint.sol\":1405:1406  y */\n      dup4\n        /* \"NewFraxProtocol/contracts/Math/FixedPoint.sol\":1405:1411  y == 0 */\n      eq\n        /* \"NewFraxProtocol/contracts/Math/FixedPoint.sol\":1405:1459  y == 0 || (z = uint(self._x) * y) / y == uint(self._x) */\n      dup1\n      tag_231\n      jumpi\n      pop\n        /* \"NewFraxProtocol/contracts/Math/FixedPoint.sol\":1451:1455  self */\n      dup4\n        /* \"NewFraxProtocol/contracts/Math/FixedPoint.sol\":1451:1458  self._x */\n      0x00\n      add\n      mload\n        /* \"NewFraxProtocol/contracts/Math/FixedPoint.sol\":1446:1459  uint(self._x) */\n      0xffffffffffffffffffffffffffffffffffffffffffffffffffffffff\n      and\n        /* \"NewFraxProtocol/contracts/Math/FixedPoint.sol\":1441:1442  y */\n      dup4\n        /* \"NewFraxProtocol/contracts/Math/FixedPoint.sol\":1436:1437  y */\n      dup5\n        /* \"NewFraxProtocol/contracts/Math/FixedPoint.sol\":1425:1429  self */\n      dup7\n        /* \"NewFraxProtocol/contracts/Math/FixedPoint.sol\":1425:1432  self._x */\n      0x00\n      add\n      mload\n        /* \"NewFraxProtocol/contracts/Math/FixedPoint.sol\":1420:1433  uint(self._x) */\n      0xffffffffffffffffffffffffffffffffffffffffffffffffffffffff\n      and\n        /* \"NewFraxProtocol/contracts/Math/FixedPoint.sol\":1420:1437  uint(self._x) * y */\n      tag_232\n      swap2\n      swap1\n      tag_233\n      jump\t// in\n    tag_232:\n        /* \"NewFraxProtocol/contracts/Math/FixedPoint.sol\":1416:1437  z = uint(self._x) * y */\n      swap3\n      pop\n      dup3\n        /* \"NewFraxProtocol/contracts/Math/FixedPoint.sol\":1415:1442  (z = uint(self._x) * y) / y */\n      tag_234\n      swap2\n      swap1\n      tag_210\n      jump\t// in\n    tag_234:\n        /* \"NewFraxProtocol/contracts/Math/FixedPoint.sol\":1415:1459  (z = uint(self._x) * y) / y == uint(self._x) */\n      eq\n        /* \"NewFraxProtocol/contracts/Math/FixedPoint.sol\":1405:1459  y == 0 || (z = uint(self._x) * y) / y == uint(self._x) */\n    tag_231:\n        /* \"NewFraxProtocol/contracts/Math/FixedPoint.sol\":1397:1499  require(y == 0 || (z = uint(self._x) * y) / y == uint(self._x), \"FixedPoint: MULTIPLICATION_OVERFLOW\") */\n      tag_235\n      jumpi\n      mload(0x40)\n      0x08c379a000000000000000000000000000000000000000000000000000000000\n      dup2\n      mstore\n      0x04\n      add\n      tag_236\n      swap1\n      tag_237\n      jump\t// in\n    tag_236:\n      mload(0x40)\n      dup1\n      swap2\n      sub\n      swap1\n      revert\n    tag_235:\n        /* \"NewFraxProtocol/contracts/Math/FixedPoint.sol\":1516:1528  uq144x112(z) */\n      mload(0x40)\n      dup1\n      0x20\n      add\n      0x40\n      mstore\n      dup1\n        /* \"NewFraxProtocol/contracts/Math/FixedPoint.sol\":1526:1527  z */\n      dup3\n        /* \"NewFraxProtocol/contracts/Math/FixedPoint.sol\":1516:1528  uq144x112(z) */\n      dup2\n      mstore\n      pop\n        /* \"NewFraxProtocol/contracts/Math/FixedPoint.sol\":1509:1528  return uq144x112(z) */\n      swap2\n      pop\n      pop\n        /* \"NewFraxProtocol/contracts/Math/FixedPoint.sol\":1286:1535  function mul(uq112x112 memory self, uint y) internal pure returns (uq144x112 memory) {... */\n      swap3\n      swap2\n      pop\n      pop\n      jump\t// out\n        /* \"NewFraxProtocol/contracts/Math/FixedPoint.sol\":2221:2349  function decode144(uq144x112 memory self) internal pure returns (uint144) {... */\n    tag_167:\n        /* \"NewFraxProtocol/contracts/Math/FixedPoint.sol\":2286:2293  uint144 */\n      0x00\n        /* \"NewFraxProtocol/contracts/Math/FixedPoint.sol\":468:471  112 */\n      0x70\n        /* \"NewFraxProtocol/contracts/Math/FixedPoint.sol\":2320:2341  self._x >> RESOLUTION */\n      0xff\n      and\n        /* \"NewFraxProtocol/contracts/Math/FixedPoint.sol\":2320:2324  self */\n      dup3\n        /* \"NewFraxProtocol/contracts/Math/FixedPoint.sol\":2320:2327  self._x */\n      0x00\n      add\n      mload\n        /* \"NewFraxProtocol/contracts/Math/FixedPoint.sol\":2320:2341  self._x >> RESOLUTION */\n      swap1\n      shr\n        /* \"NewFraxProtocol/contracts/Math/FixedPoint.sol\":2305:2342  return uint144(self._x >> RESOLUTION) */\n      swap1\n      pop\n        /* \"NewFraxProtocol/contracts/Math/FixedPoint.sol\":2221:2349  function decode144(uq144x112 memory self) internal pure returns (uint144) {... */\n      swap2\n      swap1\n      pop\n      jump\t// out\n        /* \"NewFraxProtocol/contracts/Uniswap/UniswapV2OracleLibrary.sol\":638:1678  function currentCumulativePrices(... */\n    tag_202:\n        /* \"NewFraxProtocol/contracts/Uniswap/UniswapV2OracleLibrary.sol\":722:743  uint price0Cumulative */\n      0x00\n        /* \"NewFraxProtocol/contracts/Uniswap/UniswapV2OracleLibrary.sol\":745:766  uint price1Cumulative */\n      dup1\n        /* \"NewFraxProtocol/contracts/Uniswap/UniswapV2OracleLibrary.sol\":768:789  uint32 blockTimestamp */\n      0x00\n        /* \"NewFraxProtocol/contracts/Uniswap/UniswapV2OracleLibrary.sol\":818:841  currentBlockTimestamp() */\n      tag_240\n        /* \"NewFraxProtocol/contracts/Uniswap/UniswapV2OracleLibrary.sol\":818:839  currentBlockTimestamp */\n      tag_154\n        /* \"NewFraxProtocol/contracts/Uniswap/UniswapV2OracleLibrary.sol\":818:841  currentBlockTimestamp() */\n      jump\t// in\n    tag_240:\n        /* \"NewFraxProtocol/contracts/Uniswap/UniswapV2OracleLibrary.sol\":801:841  blockTimestamp = currentBlockTimestamp() */\n      swap1\n      pop\n        /* \"NewFraxProtocol/contracts/Uniswap/UniswapV2OracleLibrary.sol\":885:889  pair */\n      dup4\n        /* \"NewFraxProtocol/contracts/Uniswap/UniswapV2OracleLibrary.sol\":870:911  IUniswapV2Pair(pair).price0CumulativeLast */\n      0xffffffffffffffffffffffffffffffffffffffff\n      and\n      0x5909c0d5\n        /* \"NewFraxProtocol/contracts/Uniswap/UniswapV2OracleLibrary.sol\":870:913  IUniswapV2Pair(pair).price0CumulativeLast() */\n      mload(0x40)\n      dup2\n      0xffffffff\n      and\n      0xe0\n      shl\n      dup2\n      mstore\n      0x04\n      add\n      0x20\n      mload(0x40)\n      dup1\n      dup4\n      sub\n      dup2\n      dup7\n      dup1\n      extcodesize\n      iszero\n      dup1\n      iszero\n      tag_241\n      jumpi\n      0x00\n      dup1\n      revert\n    tag_241:\n      pop\n      gas\n      staticcall\n      iszero\n      dup1\n      iszero\n      tag_243\n      jumpi\n      returndatasize\n      0x00\n      dup1\n      returndatacopy\n      revert(0x00, returndatasize)\n    tag_243:\n      pop\n      pop\n      pop\n      pop\n      mload(0x40)\n      returndatasize\n      not(0x1f)\n      0x1f\n      dup3\n      add\n      and\n      dup3\n      add\n      dup1\n      0x40\n      mstore\n      pop\n      dup2\n      add\n      swap1\n      tag_244\n      swap2\n      swap1\n      tag_245\n      jump\t// in\n    tag_244:\n        /* \"NewFraxProtocol/contracts/Uniswap/UniswapV2OracleLibrary.sol\":851:913  price0Cumulative = IUniswapV2Pair(pair).price0CumulativeLast() */\n      swap3\n      pop\n        /* \"NewFraxProtocol/contracts/Uniswap/UniswapV2OracleLibrary.sol\":957:961  pair */\n      dup4\n        /* \"NewFraxProtocol/contracts/Uniswap/UniswapV2OracleLibrary.sol\":942:983  IUniswapV2Pair(pair).price1CumulativeLast */\n      0xffffffffffffffffffffffffffffffffffffffff\n      and\n      0x5a3d5493\n        /* \"NewFraxProtocol/contracts/Uniswap/UniswapV2OracleLibrary.sol\":942:985  IUniswapV2Pair(pair).price1CumulativeLast() */\n      mload(0x40)\n      dup2\n      0xffffffff\n      and\n      0xe0\n      shl\n      dup2\n      mstore\n      0x04\n      add\n      0x20\n      mload(0x40)\n      dup1\n      dup4\n      sub\n      dup2\n      dup7\n      dup1\n      extcodesize\n      iszero\n      dup1\n      iszero\n      tag_246\n      jumpi\n      0x00\n      dup1\n      revert\n    tag_246:\n      pop\n      gas\n      staticcall\n      iszero\n      dup1\n      iszero\n      tag_248\n      jumpi\n      returndatasize\n      0x00\n      dup1\n      returndatacopy\n      revert(0x00, returndatasize)\n    tag_248:\n      pop\n      pop\n      pop\n      pop\n      mload(0x40)\n      returndatasize\n      not(0x1f)\n      0x1f\n      dup3\n      add\n      and\n      dup3\n      add\n      dup1\n      0x40\n      mstore\n      pop\n      dup2\n      add\n      swap1\n      tag_249\n      swap2\n      swap1\n      tag_245\n      jump\t// in\n    tag_249:\n        /* \"NewFraxProtocol/contracts/Uniswap/UniswapV2OracleLibrary.sol\":923:985  price1Cumulative = IUniswapV2Pair(pair).price1CumulativeLast() */\n      swap2\n      pop\n        /* \"NewFraxProtocol/contracts/Uniswap/UniswapV2OracleLibrary.sol\":1097:1113  uint112 reserve0 */\n      0x00\n        /* \"NewFraxProtocol/contracts/Uniswap/UniswapV2OracleLibrary.sol\":1115:1131  uint112 reserve1 */\n      dup1\n        /* \"NewFraxProtocol/contracts/Uniswap/UniswapV2OracleLibrary.sol\":1133:1158  uint32 blockTimestampLast */\n      0x00\n        /* \"NewFraxProtocol/contracts/Uniswap/UniswapV2OracleLibrary.sol\":1177:1181  pair */\n      dup7\n        /* \"NewFraxProtocol/contracts/Uniswap/UniswapV2OracleLibrary.sol\":1162:1194  IUniswapV2Pair(pair).getReserves */\n      0xffffffffffffffffffffffffffffffffffffffff\n      and\n      0x0902f1ac\n        /* \"NewFraxProtocol/contracts/Uniswap/UniswapV2OracleLibrary.sol\":1162:1196  IUniswapV2Pair(pair).getReserves() */\n      mload(0x40)\n      dup2\n      0xffffffff\n      and\n      0xe0\n      shl\n      dup2\n      mstore\n      0x04\n      add\n      0x60\n      mload(0x40)\n      dup1\n      dup4\n      sub\n      dup2\n      dup7\n      dup1\n      extcodesize\n      iszero\n      dup1\n      iszero\n      tag_250\n      jumpi\n      0x00\n      dup1\n      revert\n    tag_250:\n      pop\n      gas\n      staticcall\n      iszero\n      dup1\n      iszero\n      tag_252\n      jumpi\n      returndatasize\n      0x00\n      dup1\n      returndatacopy\n      revert(0x00, returndatasize)\n    tag_252:\n      pop\n      pop\n      pop\n      pop\n      mload(0x40)\n      returndatasize\n      not(0x1f)\n      0x1f\n      dup3\n      add\n      and\n      dup3\n      add\n      dup1\n      0x40\n      mstore\n      pop\n      dup2\n      add\n      swap1\n      tag_253\n      swap2\n      swap1\n      tag_254\n      jump\t// in\n    tag_253:\n        /* \"NewFraxProtocol/contracts/Uniswap/UniswapV2OracleLibrary.sol\":1096:1196  (uint112 reserve0, uint112 reserve1, uint32 blockTimestampLast) = IUniswapV2Pair(pair).getReserves() */\n      swap3\n      pop\n      swap3\n      pop\n      swap3\n      pop\n        /* \"NewFraxProtocol/contracts/Uniswap/UniswapV2OracleLibrary.sol\":1232:1246  blockTimestamp */\n      dup4\n        /* \"NewFraxProtocol/contracts/Uniswap/UniswapV2OracleLibrary.sol\":1210:1246  blockTimestampLast != blockTimestamp */\n      0xffffffff\n      and\n        /* \"NewFraxProtocol/contracts/Uniswap/UniswapV2OracleLibrary.sol\":1210:1228  blockTimestampLast */\n      dup2\n        /* \"NewFraxProtocol/contracts/Uniswap/UniswapV2OracleLibrary.sol\":1210:1246  blockTimestampLast != blockTimestamp */\n      0xffffffff\n      and\n      eq\n        /* \"NewFraxProtocol/contracts/Uniswap/UniswapV2OracleLibrary.sol\":1206:1672  if (blockTimestampLast != blockTimestamp) {... */\n      tag_255\n      jumpi\n        /* \"NewFraxProtocol/contracts/Uniswap/UniswapV2OracleLibrary.sol\":1309:1327  uint32 timeElapsed */\n      0x00\n        /* \"NewFraxProtocol/contracts/Uniswap/UniswapV2OracleLibrary.sol\":1347:1365  blockTimestampLast */\n      dup2\n        /* \"NewFraxProtocol/contracts/Uniswap/UniswapV2OracleLibrary.sol\":1330:1344  blockTimestamp */\n      dup6\n        /* \"NewFraxProtocol/contracts/Uniswap/UniswapV2OracleLibrary.sol\":1330:1365  blockTimestamp - blockTimestampLast */\n      tag_256\n      swap2\n      swap1\n      tag_156\n      jump\t// in\n    tag_256:\n        /* \"NewFraxProtocol/contracts/Uniswap/UniswapV2OracleLibrary.sol\":1309:1365  uint32 timeElapsed = blockTimestamp - blockTimestampLast */\n      swap1\n      pop\n        /* \"NewFraxProtocol/contracts/Uniswap/UniswapV2OracleLibrary.sol\":1524:1535  timeElapsed */\n      dup1\n        /* \"NewFraxProtocol/contracts/Uniswap/UniswapV2OracleLibrary.sol\":1473:1535  uint(FixedPoint.fraction(reserve1, reserve0)._x) * timeElapsed */\n      0xffffffff\n      and\n        /* \"NewFraxProtocol/contracts/Uniswap/UniswapV2OracleLibrary.sol\":1478:1517  FixedPoint.fraction(reserve1, reserve0) */\n      tag_257\n        /* \"NewFraxProtocol/contracts/Uniswap/UniswapV2OracleLibrary.sol\":1498:1506  reserve1 */\n      dup5\n        /* \"NewFraxProtocol/contracts/Uniswap/UniswapV2OracleLibrary.sol\":1508:1516  reserve0 */\n      dup7\n        /* \"NewFraxProtocol/contracts/Uniswap/UniswapV2OracleLibrary.sol\":1478:1497  FixedPoint.fraction */\n      tag_258\n        /* \"NewFraxProtocol/contracts/Uniswap/UniswapV2OracleLibrary.sol\":1478:1517  FixedPoint.fraction(reserve1, reserve0) */\n      jump\t// in\n    tag_257:\n        /* \"NewFraxProtocol/contracts/Uniswap/UniswapV2OracleLibrary.sol\":1478:1520  FixedPoint.fraction(reserve1, reserve0)._x */\n      0x00\n      add\n      mload\n        /* \"NewFraxProtocol/contracts/Uniswap/UniswapV2OracleLibrary.sol\":1473:1521  uint(FixedPoint.fraction(reserve1, reserve0)._x) */\n      0xffffffffffffffffffffffffffffffffffffffffffffffffffffffff\n      and\n        /* \"NewFraxProtocol/contracts/Uniswap/UniswapV2OracleLibrary.sol\":1473:1535  uint(FixedPoint.fraction(reserve1, reserve0)._x) * timeElapsed */\n      tag_259\n      swap2\n      swap1\n      tag_233\n      jump\t// in\n    tag_259:\n        /* \"NewFraxProtocol/contracts/Uniswap/UniswapV2OracleLibrary.sol\":1453:1535  price0Cumulative += uint(FixedPoint.fraction(reserve1, reserve0)._x) * timeElapsed */\n      dup8\n      tag_260\n      swap2\n      swap1\n      tag_158\n      jump\t// in\n    tag_260:\n      swap7\n      pop\n        /* \"NewFraxProtocol/contracts/Uniswap/UniswapV2OracleLibrary.sol\":1650:1661  timeElapsed */\n      dup1\n        /* \"NewFraxProtocol/contracts/Uniswap/UniswapV2OracleLibrary.sol\":1599:1661  uint(FixedPoint.fraction(reserve0, reserve1)._x) * timeElapsed */\n      0xffffffff\n      and\n        /* \"NewFraxProtocol/contracts/Uniswap/UniswapV2OracleLibrary.sol\":1604:1643  FixedPoint.fraction(reserve0, reserve1) */\n      tag_261\n        /* \"NewFraxProtocol/contracts/Uniswap/UniswapV2OracleLibrary.sol\":1624:1632  reserve0 */\n      dup6\n        /* \"NewFraxProtocol/contracts/Uniswap/UniswapV2OracleLibrary.sol\":1634:1642  reserve1 */\n      dup6\n        /* \"NewFraxProtocol/contracts/Uniswap/UniswapV2OracleLibrary.sol\":1604:1623  FixedPoint.fraction */\n      tag_258\n        /* \"NewFraxProtocol/contracts/Uniswap/UniswapV2OracleLibrary.sol\":1604:1643  FixedPoint.fraction(reserve0, reserve1) */\n      jump\t// in\n    tag_261:\n        /* \"NewFraxProtocol/contracts/Uniswap/UniswapV2OracleLibrary.sol\":1604:1646  FixedPoint.fraction(reserve0, reserve1)._x */\n      0x00\n      add\n      mload\n        /* \"NewFraxProtocol/contracts/Uniswap/UniswapV2OracleLibrary.sol\":1599:1647  uint(FixedPoint.fraction(reserve0, reserve1)._x) */\n      0xffffffffffffffffffffffffffffffffffffffffffffffffffffffff\n      and\n        /* \"NewFraxProtocol/contracts/Uniswap/UniswapV2OracleLibrary.sol\":1599:1661  uint(FixedPoint.fraction(reserve0, reserve1)._x) * timeElapsed */\n      tag_262\n      swap2\n      swap1\n      tag_233\n      jump\t// in\n    tag_262:\n        /* \"NewFraxProtocol/contracts/Uniswap/UniswapV2OracleLibrary.sol\":1579:1661  price1Cumulative += uint(FixedPoint.fraction(reserve0, reserve1)._x) * timeElapsed */\n      dup7\n      tag_263\n      swap2\n      swap1\n      tag_158\n      jump\t// in\n    tag_263:\n      swap6\n      pop\n        /* \"NewFraxProtocol/contracts/Uniswap/UniswapV2OracleLibrary.sol\":1248:1672  {... */\n      pop\n        /* \"NewFraxProtocol/contracts/Uniswap/UniswapV2OracleLibrary.sol\":1206:1672  if (blockTimestampLast != blockTimestamp) {... */\n    tag_255:\n        /* \"NewFraxProtocol/contracts/Uniswap/UniswapV2OracleLibrary.sol\":791:1678  {... */\n      pop\n      pop\n      pop\n        /* \"NewFraxProtocol/contracts/Uniswap/UniswapV2OracleLibrary.sol\":638:1678  function currentCumulativePrices(... */\n      swap2\n      swap4\n      swap1\n      swap3\n      pop\n      jump\t// out\n        /* \"NewFraxProtocol/contracts/Math/FixedPoint.sol\":1687:1930  function fraction(uint112 numerator, uint112 denominator) internal pure returns (uq112x112 memory) {... */\n    tag_258:\n        /* \"NewFraxProtocol/contracts/Math/FixedPoint.sol\":1768:1784  uq112x112 memory */\n      tag_264\n      tag_265\n      jump\t// in\n    tag_264:\n        /* \"NewFraxProtocol/contracts/Math/FixedPoint.sol\":1818:1819  0 */\n      0x00\n        /* \"NewFraxProtocol/contracts/Math/FixedPoint.sol\":1804:1815  denominator */\n      dup3\n        /* \"NewFraxProtocol/contracts/Math/FixedPoint.sol\":1804:1819  denominator > 0 */\n      0xffffffffffffffffffffffffffff\n      and\n      gt\n        /* \"NewFraxProtocol/contracts/Math/FixedPoint.sol\":1796:1847  require(denominator > 0, \"FixedPoint: DIV_BY_ZERO\") */\n      tag_267\n      jumpi\n      mload(0x40)\n      0x08c379a000000000000000000000000000000000000000000000000000000000\n      dup2\n      mstore\n      0x04\n      add\n      tag_268\n      swap1\n      tag_269\n      jump\t// in\n    tag_268:\n      mload(0x40)\n      dup1\n      swap2\n      sub\n      swap1\n      revert\n    tag_267:\n        /* \"NewFraxProtocol/contracts/Math/FixedPoint.sol\":1864:1923  uq112x112((uint224(numerator) << RESOLUTION) / denominator) */\n      mload(0x40)\n      dup1\n      0x20\n      add\n      0x40\n      mstore\n      dup1\n        /* \"NewFraxProtocol/contracts/Math/FixedPoint.sol\":1911:1922  denominator */\n      dup4\n        /* \"NewFraxProtocol/contracts/Math/FixedPoint.sol\":1874:1922  (uint224(numerator) << RESOLUTION) / denominator */\n      0xffffffffffffffffffffffffffff\n      and\n        /* \"NewFraxProtocol/contracts/Math/FixedPoint.sol\":468:471  112 */\n      0x70\n        /* \"NewFraxProtocol/contracts/Math/FixedPoint.sol\":1875:1907  uint224(numerator) << RESOLUTION */\n      0xff\n      and\n        /* \"NewFraxProtocol/contracts/Math/FixedPoint.sol\":1883:1892  numerator */\n      dup7\n        /* \"NewFraxProtocol/contracts/Math/FixedPoint.sol\":1875:1893  uint224(numerator) */\n      0xffffffffffffffffffffffffffff\n      and\n        /* \"NewFraxProtocol/contracts/Math/FixedPoint.sol\":1875:1907  uint224(numerator) << RESOLUTION */\n      0xffffffffffffffffffffffffffffffffffffffffffffffffffffffff\n      and\n      swap1\n      shl\n        /* \"NewFraxProtocol/contracts/Math/FixedPoint.sol\":1874:1922  (uint224(numerator) << RESOLUTION) / denominator */\n      tag_270\n      swap2\n      swap1\n      tag_271\n      jump\t// in\n    tag_270:\n        /* \"NewFraxProtocol/contracts/Math/FixedPoint.sol\":1864:1923  uq112x112((uint224(numerator) << RESOLUTION) / denominator) */\n      0xffffffffffffffffffffffffffffffffffffffffffffffffffffffff\n      and\n      dup2\n      mstore\n      pop\n        /* \"NewFraxProtocol/contracts/Math/FixedPoint.sol\":1857:1923  return uq112x112((uint224(numerator) << RESOLUTION) / denominator) */\n      swap1\n      pop\n        /* \"NewFraxProtocol/contracts/Math/FixedPoint.sol\":1687:1930  function fraction(uint112 numerator, uint112 denominator) internal pure returns (uq112x112 memory) {... */\n      swap3\n      swap2\n      pop\n      pop\n      jump\t// out\n    tag_229:\n      mload(0x40)\n      dup1\n      0x20\n      add\n      0x40\n      mstore\n      dup1\n      0x00\n      dup2\n      mstore\n      pop\n      swap1\n      jump\t// out\n    tag_265:\n      mload(0x40)\n      dup1\n      0x20\n      add\n      0x40\n      mstore\n      dup1\n      and(0xffffffffffffffffffffffffffffffffffffffffffffffffffffffff, 0x00)\n      dup2\n      mstore\n      pop\n      swap1\n      jump\t// out\n        /* \"#utility.yul\":7:133   */\n    tag_272:\n        /* \"#utility.yul\":44:51   */\n      0x00\n        /* \"#utility.yul\":84:126   */\n      0xffffffffffffffffffffffffffffffffffffffff\n        /* \"#utility.yul\":77:82   */\n      dup3\n        /* \"#utility.yul\":73:127   */\n      and\n        /* \"#utility.yul\":62:127   */\n      swap1\n      pop\n        /* \"#utility.yul\":7:133   */\n      swap2\n      swap1\n      pop\n      jump\t// out\n        /* \"#utility.yul\":139:235   */\n    tag_273:\n        /* \"#utility.yul\":176:183   */\n      0x00\n        /* \"#utility.yul\":205:229   */\n      tag_338\n        /* \"#utility.yul\":223:228   */\n      dup3\n        /* \"#utility.yul\":205:229   */\n      tag_272\n      jump\t// in\n    tag_338:\n        /* \"#utility.yul\":194:229   */\n      swap1\n      pop\n        /* \"#utility.yul\":139:235   */\n      swap2\n      swap1\n      pop\n      jump\t// out\n        /* \"#utility.yul\":241:359   */\n    tag_274:\n        /* \"#utility.yul\":328:352   */\n      tag_340\n        /* \"#utility.yul\":346:351   */\n      dup2\n        /* \"#utility.yul\":328:352   */\n      tag_273\n      jump\t// in\n    tag_340:\n        /* \"#utility.yul\":323:326   */\n      dup3\n        /* \"#utility.yul\":316:353   */\n      mstore\n        /* \"#utility.yul\":241:359   */\n      pop\n      pop\n      jump\t// out\n        /* \"#utility.yul\":365:587   */\n    tag_42:\n        /* \"#utility.yul\":458:462   */\n      0x00\n        /* \"#utility.yul\":496:498   */\n      0x20\n        /* \"#utility.yul\":485:494   */\n      dup3\n        /* \"#utility.yul\":481:499   */\n      add\n        /* \"#utility.yul\":473:499   */\n      swap1\n      pop\n        /* \"#utility.yul\":509:580   */\n      tag_342\n        /* \"#utility.yul\":577:578   */\n      0x00\n        /* \"#utility.yul\":566:575   */\n      dup4\n        /* \"#utility.yul\":562:579   */\n      add\n        /* \"#utility.yul\":553:559   */\n      dup5\n        /* \"#utility.yul\":509:580   */\n      tag_274\n      jump\t// in\n    tag_342:\n        /* \"#utility.yul\":365:587   */\n      swap3\n      swap2\n      pop\n      pop\n      jump\t// out\n        /* \"#utility.yul\":674:791   */\n    tag_276:\n        /* \"#utility.yul\":783:784   */\n      0x00\n        /* \"#utility.yul\":780:781   */\n      dup1\n        /* \"#utility.yul\":773:785   */\n      revert\n        /* \"#utility.yul\":920:997   */\n    tag_278:\n        /* \"#utility.yul\":957:964   */\n      0x00\n        /* \"#utility.yul\":986:991   */\n      dup2\n        /* \"#utility.yul\":975:991   */\n      swap1\n      pop\n        /* \"#utility.yul\":920:997   */\n      swap2\n      swap1\n      pop\n      jump\t// out\n        /* \"#utility.yul\":1003:1125   */\n    tag_279:\n        /* \"#utility.yul\":1076:1100   */\n      tag_348\n        /* \"#utility.yul\":1094:1099   */\n      dup2\n        /* \"#utility.yul\":1076:1100   */\n      tag_278\n      jump\t// in\n    tag_348:\n        /* \"#utility.yul\":1069:1074   */\n      dup2\n        /* \"#utility.yul\":1066:1101   */\n      eq\n        /* \"#utility.yul\":1056:1119   */\n      tag_349\n      jumpi\n        /* \"#utility.yul\":1115:1116   */\n      0x00\n        /* \"#utility.yul\":1112:1113   */\n      dup1\n        /* \"#utility.yul\":1105:1117   */\n      revert\n        /* \"#utility.yul\":1056:1119   */\n    tag_349:\n        /* \"#utility.yul\":1003:1125   */\n      pop\n      jump\t// out\n        /* \"#utility.yul\":1131:1270   */\n    tag_280:\n        /* \"#utility.yul\":1177:1182   */\n      0x00\n        /* \"#utility.yul\":1215:1221   */\n      dup2\n        /* \"#utility.yul\":1202:1222   */\n      calldataload\n        /* \"#utility.yul\":1193:1222   */\n      swap1\n      pop\n        /* \"#utility.yul\":1231:1264   */\n      tag_351\n        /* \"#utility.yul\":1258:1263   */\n      dup2\n        /* \"#utility.yul\":1231:1264   */\n      tag_279\n      jump\t// in\n    tag_351:\n        /* \"#utility.yul\":1131:1270   */\n      swap3\n      swap2\n      pop\n      pop\n      jump\t// out\n        /* \"#utility.yul\":1276:1605   */\n    tag_45:\n        /* \"#utility.yul\":1335:1341   */\n      0x00\n        /* \"#utility.yul\":1384:1386   */\n      0x20\n        /* \"#utility.yul\":1372:1381   */\n      dup3\n        /* \"#utility.yul\":1363:1370   */\n      dup5\n        /* \"#utility.yul\":1359:1382   */\n      sub\n        /* \"#utility.yul\":1355:1387   */\n      slt\n        /* \"#utility.yul\":1352:1471   */\n      iszero\n      tag_353\n      jumpi\n        /* \"#utility.yul\":1390:1469   */\n      tag_354\n      tag_276\n      jump\t// in\n    tag_354:\n        /* \"#utility.yul\":1352:1471   */\n    tag_353:\n        /* \"#utility.yul\":1510:1511   */\n      0x00\n        /* \"#utility.yul\":1535:1588   */\n      tag_355\n        /* \"#utility.yul\":1580:1587   */\n      dup5\n        /* \"#utility.yul\":1571:1577   */\n      dup3\n        /* \"#utility.yul\":1560:1569   */\n      dup6\n        /* \"#utility.yul\":1556:1578   */\n      add\n        /* \"#utility.yul\":1535:1588   */\n      tag_280\n      jump\t// in\n    tag_355:\n        /* \"#utility.yul\":1525:1588   */\n      swap2\n      pop\n        /* \"#utility.yul\":1481:1598   */\n      pop\n        /* \"#utility.yul\":1276:1605   */\n      swap3\n      swap2\n      pop\n      pop\n      jump\t// out\n        /* \"#utility.yul\":1611:1733   */\n    tag_281:\n        /* \"#utility.yul\":1684:1708   */\n      tag_357\n        /* \"#utility.yul\":1702:1707   */\n      dup2\n        /* \"#utility.yul\":1684:1708   */\n      tag_273\n      jump\t// in\n    tag_357:\n        /* \"#utility.yul\":1677:1682   */\n      dup2\n        /* \"#utility.yul\":1674:1709   */\n      eq\n        /* \"#utility.yul\":1664:1727   */\n      tag_358\n      jumpi\n        /* \"#utility.yul\":1723:1724   */\n      0x00\n        /* \"#utility.yul\":1720:1721   */\n      dup1\n        /* \"#utility.yul\":1713:1725   */\n      revert\n        /* \"#utility.yul\":1664:1727   */\n    tag_358:\n        /* \"#utility.yul\":1611:1733   */\n      pop\n      jump\t// out\n        /* \"#utility.yul\":1739:1878   */\n    tag_282:\n        /* \"#utility.yul\":1785:1790   */\n      0x00\n        /* \"#utility.yul\":1823:1829   */\n      dup2\n        /* \"#utility.yul\":1810:1830   */\n      calldataload\n        /* \"#utility.yul\":1801:1830   */\n      swap1\n      pop\n        /* \"#utility.yul\":1839:1872   */\n      tag_360\n        /* \"#utility.yul\":1866:1871   */\n      dup2\n        /* \"#utility.yul\":1839:1872   */\n      tag_281\n      jump\t// in\n    tag_360:\n        /* \"#utility.yul\":1739:1878   */\n      swap3\n      swap2\n      pop\n      pop\n      jump\t// out\n        /* \"#utility.yul\":1884:2213   */\n    tag_49:\n        /* \"#utility.yul\":1943:1949   */\n      0x00\n        /* \"#utility.yul\":1992:1994   */\n      0x20\n        /* \"#utility.yul\":1980:1989   */\n      dup3\n        /* \"#utility.yul\":1971:1978   */\n      dup5\n        /* \"#utility.yul\":1967:1990   */\n      sub\n        /* \"#utility.yul\":1963:1995   */\n      slt\n        /* \"#utility.yul\":1960:2079   */\n      iszero\n      tag_362\n      jumpi\n        /* \"#utility.yul\":1998:2077   */\n      tag_363\n      tag_276\n      jump\t// in\n    tag_363:\n        /* \"#utility.yul\":1960:2079   */\n    tag_362:\n        /* \"#utility.yul\":2118:2119   */\n      0x00\n        /* \"#utility.yul\":2143:2196   */\n      tag_364\n        /* \"#utility.yul\":2188:2195   */\n      dup5\n        /* \"#utility.yul\":2179:2185   */\n      dup3\n        /* \"#utility.yul\":2168:2177   */\n      dup6\n        /* \"#utility.yul\":2164:2186   */\n      add\n        /* \"#utility.yul\":2143:2196   */\n      tag_282\n      jump\t// in\n    tag_364:\n        /* \"#utility.yul\":2133:2196   */\n      swap2\n      pop\n        /* \"#utility.yul\":2089:2206   */\n      pop\n        /* \"#utility.yul\":1884:2213   */\n      swap3\n      swap2\n      pop\n      pop\n      jump\t// out\n        /* \"#utility.yul\":2219:2309   */\n    tag_283:\n        /* \"#utility.yul\":2253:2260   */\n      0x00\n        /* \"#utility.yul\":2296:2301   */\n      dup2\n        /* \"#utility.yul\":2289:2302   */\n      iszero\n        /* \"#utility.yul\":2282:2303   */\n      iszero\n        /* \"#utility.yul\":2271:2303   */\n      swap1\n      pop\n        /* \"#utility.yul\":2219:2309   */\n      swap2\n      swap1\n      pop\n      jump\t// out\n        /* \"#utility.yul\":2315:2424   */\n    tag_284:\n        /* \"#utility.yul\":2396:2417   */\n      tag_367\n        /* \"#utility.yul\":2411:2416   */\n      dup2\n        /* \"#utility.yul\":2396:2417   */\n      tag_283\n      jump\t// in\n    tag_367:\n        /* \"#utility.yul\":2391:2394   */\n      dup3\n        /* \"#utility.yul\":2384:2418   */\n      mstore\n        /* \"#utility.yul\":2315:2424   */\n      pop\n      pop\n      jump\t// out\n        /* \"#utility.yul\":2430:2640   */\n    tag_54:\n        /* \"#utility.yul\":2517:2521   */\n      0x00\n        /* \"#utility.yul\":2555:2557   */\n      0x20\n        /* \"#utility.yul\":2544:2553   */\n      dup3\n        /* \"#utility.yul\":2540:2558   */\n      add\n        /* \"#utility.yul\":2532:2558   */\n      swap1\n      pop\n        /* \"#utility.yul\":2568:2633   */\n      tag_369\n        /* \"#utility.yul\":2630:2631   */\n      0x00\n        /* \"#utility.yul\":2619:2628   */\n      dup4\n        /* \"#utility.yul\":2615:2632   */\n      add\n        /* \"#utility.yul\":2606:2612   */\n      dup5\n        /* \"#utility.yul\":2568:2633   */\n      tag_284\n      jump\t// in\n    tag_369:\n        /* \"#utility.yul\":2430:2640   */\n      swap3\n      swap2\n      pop\n      pop\n      jump\t// out\n        /* \"#utility.yul\":2646:2732   */\n    tag_285:\n        /* \"#utility.yul\":2681:2688   */\n      0x00\n        /* \"#utility.yul\":2721:2725   */\n      0xff\n        /* \"#utility.yul\":2714:2719   */\n      dup3\n        /* \"#utility.yul\":2710:2726   */\n      and\n        /* \"#utility.yul\":2699:2726   */\n      swap1\n      pop\n        /* \"#utility.yul\":2646:2732   */\n      swap2\n      swap1\n      pop\n      jump\t// out\n        /* \"#utility.yul\":2738:2850   */\n    tag_286:\n        /* \"#utility.yul\":2821:2843   */\n      tag_372\n        /* \"#utility.yul\":2837:2842   */\n      dup2\n        /* \"#utility.yul\":2821:2843   */\n      tag_285\n      jump\t// in\n    tag_372:\n        /* \"#utility.yul\":2816:2819   */\n      dup3\n        /* \"#utility.yul\":2809:2844   */\n      mstore\n        /* \"#utility.yul\":2738:2850   */\n      pop\n      pop\n      jump\t// out\n        /* \"#utility.yul\":2856:3070   */\n    tag_58:\n        /* \"#utility.yul\":2945:2949   */\n      0x00\n        /* \"#utility.yul\":2983:2985   */\n      0x20\n        /* \"#utility.yul\":2972:2981   */\n      dup3\n        /* \"#utility.yul\":2968:2986   */\n      add\n        /* \"#utility.yul\":2960:2986   */\n      swap1\n      pop\n        /* \"#utility.yul\":2996:3063   */\n      tag_374\n        /* \"#utility.yul\":3060:3061   */\n      0x00\n        /* \"#utility.yul\":3049:3058   */\n      dup4\n        /* \"#utility.yul\":3045:3062   */\n      add\n        /* \"#utility.yul\":3036:3042   */\n      dup5\n        /* \"#utility.yul\":2996:3063   */\n      tag_286\n      jump\t// in\n    tag_374:\n        /* \"#utility.yul\":2856:3070   */\n      swap3\n      swap2\n      pop\n      pop\n      jump\t// out\n        /* \"#utility.yul\":3076:3550   */\n    tag_61:\n        /* \"#utility.yul\":3144:3150   */\n      0x00\n        /* \"#utility.yul\":3152:3158   */\n      dup1\n        /* \"#utility.yul\":3201:3203   */\n      0x40\n        /* \"#utility.yul\":3189:3198   */\n      dup4\n        /* \"#utility.yul\":3180:3187   */\n      dup6\n        /* \"#utility.yul\":3176:3199   */\n      sub\n        /* \"#utility.yul\":3172:3204   */\n      slt\n        /* \"#utility.yul\":3169:3288   */\n      iszero\n      tag_376\n      jumpi\n        /* \"#utility.yul\":3207:3286   */\n      tag_377\n      tag_276\n      jump\t// in\n    tag_377:\n        /* \"#utility.yul\":3169:3288   */\n    tag_376:\n        /* \"#utility.yul\":3327:3328   */\n      0x00\n        /* \"#utility.yul\":3352:3405   */\n      tag_378\n        /* \"#utility.yul\":3397:3404   */\n      dup6\n        /* \"#utility.yul\":3388:3394   */\n      dup3\n        /* \"#utility.yul\":3377:3386   */\n      dup7\n        /* \"#utility.yul\":3373:3395   */\n      add\n        /* \"#utility.yul\":3352:3405   */\n      tag_282\n      jump\t// in\n    tag_378:\n        /* \"#utility.yul\":3342:3405   */\n      swap3\n      pop\n        /* \"#utility.yul\":3298:3415   */\n      pop\n        /* \"#utility.yul\":3454:3456   */\n      0x20\n        /* \"#utility.yul\":3480:3533   */\n      tag_379\n        /* \"#utility.yul\":3525:3532   */\n      dup6\n        /* \"#utility.yul\":3516:3522   */\n      dup3\n        /* \"#utility.yul\":3505:3514   */\n      dup7\n        /* \"#utility.yul\":3501:3523   */\n      add\n        /* \"#utility.yul\":3480:3533   */\n      tag_280\n      jump\t// in\n    tag_379:\n        /* \"#utility.yul\":3470:3533   */\n      swap2\n      pop\n        /* \"#utility.yul\":3425:3543   */\n      pop\n        /* \"#utility.yul\":3076:3550   */\n      swap3\n      pop\n      swap3\n      swap1\n      pop\n      jump\t// out\n        /* \"#utility.yul\":3556:3674   */\n    tag_287:\n        /* \"#utility.yul\":3643:3667   */\n      tag_381\n        /* \"#utility.yul\":3661:3666   */\n      dup2\n        /* \"#utility.yul\":3643:3667   */\n      tag_278\n      jump\t// in\n    tag_381:\n        /* \"#utility.yul\":3638:3641   */\n      dup3\n        /* \"#utility.yul\":3631:3668   */\n      mstore\n        /* \"#utility.yul\":3556:3674   */\n      pop\n      pop\n      jump\t// out\n        /* \"#utility.yul\":3680:3902   */\n    tag_64:\n        /* \"#utility.yul\":3773:3777   */\n      0x00\n        /* \"#utility.yul\":3811:3813   */\n      0x20\n        /* \"#utility.yul\":3800:3809   */\n      dup3\n        /* \"#utility.yul\":3796:3814   */\n      add\n        /* \"#utility.yul\":3788:3814   */\n      swap1\n      pop\n        /* \"#utility.yul\":3824:3895   */\n      tag_383\n        /* \"#utility.yul\":3892:3893   */\n      0x00\n        /* \"#utility.yul\":3881:3890   */\n      dup4\n        /* \"#utility.yul\":3877:3894   */\n      add\n        /* \"#utility.yul\":3868:3874   */\n      dup5\n        /* \"#utility.yul\":3824:3895   */\n      tag_287\n      jump\t// in\n    tag_383:\n        /* \"#utility.yul\":3680:3902   */\n      swap3\n      swap2\n      pop\n      pop\n      jump\t// out\n        /* \"#utility.yul\":3908:4050   */\n    tag_288:\n        /* \"#utility.yul\":3945:3952   */\n      0x00\n        /* \"#utility.yul\":3985:4043   */\n      0xffffffffffffffffffffffffffffffffffffffffffffffffffffffff\n        /* \"#utility.yul\":3978:3983   */\n      dup3\n        /* \"#utility.yul\":3974:4044   */\n      and\n        /* \"#utility.yul\":3963:4044   */\n      swap1\n      pop\n        /* \"#utility.yul\":3908:4050   */\n      swap2\n      swap1\n      pop\n      jump\t// out\n        /* \"#utility.yul\":4056:4174   */\n    tag_289:\n        /* \"#utility.yul\":4143:4167   */\n      tag_386\n        /* \"#utility.yul\":4161:4166   */\n      dup2\n        /* \"#utility.yul\":4143:4167   */\n      tag_288\n      jump\t// in\n    tag_386:\n        /* \"#utility.yul\":4138:4141   */\n      dup3\n        /* \"#utility.yul\":4131:4168   */\n      mstore\n        /* \"#utility.yul\":4056:4174   */\n      pop\n      pop\n      jump\t// out\n        /* \"#utility.yul\":4180:4402   */\n    tag_86:\n        /* \"#utility.yul\":4273:4277   */\n      0x00\n        /* \"#utility.yul\":4311:4313   */\n      0x20\n        /* \"#utility.yul\":4300:4309   */\n      dup3\n        /* \"#utility.yul\":4296:4314   */\n      add\n        /* \"#utility.yul\":4288:4314   */\n      swap1\n      pop\n        /* \"#utility.yul\":4324:4395   */\n      tag_388\n        /* \"#utility.yul\":4392:4393   */\n      0x00\n        /* \"#utility.yul\":4381:4390   */\n      dup4\n        /* \"#utility.yul\":4377:4394   */\n      add\n        /* \"#utility.yul\":4368:4374   */\n      dup5\n        /* \"#utility.yul\":4324:4395   */\n      tag_289\n      jump\t// in\n    tag_388:\n        /* \"#utility.yul\":4180:4402   */\n      swap3\n      swap2\n      pop\n      pop\n      jump\t// out\n        /* \"#utility.yul\":4408:4507   */\n    tag_290:\n        /* \"#utility.yul\":4460:4466   */\n      0x00\n        /* \"#utility.yul\":4494:4499   */\n      dup2\n        /* \"#utility.yul\":4488:4500   */\n      mload\n        /* \"#utility.yul\":4478:4500   */\n      swap1\n      pop\n        /* \"#utility.yul\":4408:4507   */\n      swap2\n      swap1\n      pop\n      jump\t// out\n        /* \"#utility.yul\":4513:4682   */\n    tag_291:\n        /* \"#utility.yul\":4597:4608   */\n      0x00\n        /* \"#utility.yul\":4631:4637   */\n      dup3\n        /* \"#utility.yul\":4626:4629   */\n      dup3\n        /* \"#utility.yul\":4619:4638   */\n      mstore\n        /* \"#utility.yul\":4671:4675   */\n      0x20\n        /* \"#utility.yul\":4666:4669   */\n      dup3\n        /* \"#utility.yul\":4662:4676   */\n      add\n        /* \"#utility.yul\":4647:4676   */\n      swap1\n      pop\n        /* \"#utility.yul\":4513:4682   */\n      swap3\n      swap2\n      pop\n      pop\n      jump\t// out\n        /* \"#utility.yul\":4688:4995   */\n    tag_292:\n        /* \"#utility.yul\":4756:4757   */\n      0x00\n        /* \"#utility.yul\":4766:4879   */\n    tag_392:\n        /* \"#utility.yul\":4780:4786   */\n      dup4\n        /* \"#utility.yul\":4777:4778   */\n      dup2\n        /* \"#utility.yul\":4774:4787   */\n      lt\n        /* \"#utility.yul\":4766:4879   */\n      iszero\n      tag_394\n      jumpi\n        /* \"#utility.yul\":4865:4866   */\n      dup1\n        /* \"#utility.yul\":4860:4863   */\n      dup3\n        /* \"#utility.yul\":4856:4867   */\n      add\n        /* \"#utility.yul\":4850:4868   */\n      mload\n        /* \"#utility.yul\":4846:4847   */\n      dup2\n        /* \"#utility.yul\":4841:4844   */\n      dup5\n        /* \"#utility.yul\":4837:4848   */\n      add\n        /* \"#utility.yul\":4830:4869   */\n      mstore\n        /* \"#utility.yul\":4802:4804   */\n      0x20\n        /* \"#utility.yul\":4799:4800   */\n      dup2\n        /* \"#utility.yul\":4795:4805   */\n      add\n        /* \"#utility.yul\":4790:4805   */\n      swap1\n      pop\n        /* \"#utility.yul\":4766:4879   */\n      jump(tag_392)\n    tag_394:\n        /* \"#utility.yul\":4897:4903   */\n      dup4\n        /* \"#utility.yul\":4894:4895   */\n      dup2\n        /* \"#utility.yul\":4891:4904   */\n      gt\n        /* \"#utility.yul\":4888:4989   */\n      iszero\n      tag_395\n      jumpi\n        /* \"#utility.yul\":4977:4978   */\n      0x00\n        /* \"#utility.yul\":4968:4974   */\n      dup5\n        /* \"#utility.yul\":4963:4966   */\n      dup5\n        /* \"#utility.yul\":4959:4975   */\n      add\n        /* \"#utility.yul\":4952:4979   */\n      mstore\n        /* \"#utility.yul\":4888:4989   */\n    tag_395:\n        /* \"#utility.yul\":4737:4995   */\n      pop\n        /* \"#utility.yul\":4688:4995   */\n      pop\n      pop\n      pop\n      jump\t// out\n        /* \"#utility.yul\":5001:5103   */\n    tag_293:\n        /* \"#utility.yul\":5042:5048   */\n      0x00\n        /* \"#utility.yul\":5093:5095   */\n      0x1f\n        /* \"#utility.yul\":5089:5096   */\n      not\n        /* \"#utility.yul\":5084:5086   */\n      0x1f\n        /* \"#utility.yul\":5077:5082   */\n      dup4\n        /* \"#utility.yul\":5073:5087   */\n      add\n        /* \"#utility.yul\":5069:5097   */\n      and\n        /* \"#utility.yul\":5059:5097   */\n      swap1\n      pop\n        /* \"#utility.yul\":5001:5103   */\n      swap2\n      swap1\n      pop\n      jump\t// out\n        /* \"#utility.yul\":5109:5473   */\n    tag_294:\n        /* \"#utility.yul\":5197:5200   */\n      0x00\n        /* \"#utility.yul\":5225:5264   */\n      tag_398\n        /* \"#utility.yul\":5258:5263   */\n      dup3\n        /* \"#utility.yul\":5225:5264   */\n      tag_290\n      jump\t// in\n    tag_398:\n        /* \"#utility.yul\":5280:5351   */\n      tag_399\n        /* \"#utility.yul\":5344:5350   */\n      dup2\n        /* \"#utility.yul\":5339:5342   */\n      dup6\n        /* \"#utility.yul\":5280:5351   */\n      tag_291\n      jump\t// in\n    tag_399:\n        /* \"#utility.yul\":5273:5351   */\n      swap4\n      pop\n        /* \"#utility.yul\":5360:5412   */\n      tag_400\n        /* \"#utility.yul\":5405:5411   */\n      dup2\n        /* \"#utility.yul\":5400:5403   */\n      dup6\n        /* \"#utility.yul\":5393:5397   */\n      0x20\n        /* \"#utility.yul\":5386:5391   */\n      dup7\n        /* \"#utility.yul\":5382:5398   */\n      add\n        /* \"#utility.yul\":5360:5412   */\n      tag_292\n      jump\t// in\n    tag_400:\n        /* \"#utility.yul\":5437:5466   */\n      tag_401\n        /* \"#utility.yul\":5459:5465   */\n      dup2\n        /* \"#utility.yul\":5437:5466   */\n      tag_293\n      jump\t// in\n    tag_401:\n        /* \"#utility.yul\":5432:5435   */\n      dup5\n        /* \"#utility.yul\":5428:5467   */\n      add\n        /* \"#utility.yul\":5421:5467   */\n      swap2\n      pop\n        /* \"#utility.yul\":5201:5473   */\n      pop\n        /* \"#utility.yul\":5109:5473   */\n      swap3\n      swap2\n      pop\n      pop\n      jump\t// out\n        /* \"#utility.yul\":5479:5792   */\n    tag_90:\n        /* \"#utility.yul\":5592:5596   */\n      0x00\n        /* \"#utility.yul\":5630:5632   */\n      0x20\n        /* \"#utility.yul\":5619:5628   */\n      dup3\n        /* \"#utility.yul\":5615:5633   */\n      add\n        /* \"#utility.yul\":5607:5633   */\n      swap1\n      pop\n        /* \"#utility.yul\":5679:5688   */\n      dup2\n        /* \"#utility.yul\":5673:5677   */\n      dup2\n        /* \"#utility.yul\":5669:5689   */\n      sub\n        /* \"#utility.yul\":5665:5666   */\n      0x00\n        /* \"#utility.yul\":5654:5663   */\n      dup4\n        /* \"#utility.yul\":5650:5667   */\n      add\n        /* \"#utility.yul\":5643:5690   */\n      mstore\n        /* \"#utility.yul\":5707:5785   */\n      tag_403\n        /* \"#utility.yul\":5780:5784   */\n      dup2\n        /* \"#utility.yul\":5771:5777   */\n      dup5\n        /* \"#utility.yul\":5707:5785   */\n      tag_294\n      jump\t// in\n    tag_403:\n        /* \"#utility.yul\":5699:5785   */\n      swap1\n      pop\n        /* \"#utility.yul\":5479:5792   */\n      swap3\n      swap2\n      pop\n      pop\n      jump\t// out\n        /* \"#utility.yul\":5798:5903   */\n    tag_295:\n        /* \"#utility.yul\":5834:5841   */\n      0x00\n        /* \"#utility.yul\":5874:5896   */\n      0xffffffffffffffffffff\n        /* \"#utility.yul\":5867:5872   */\n      dup3\n        /* \"#utility.yul\":5863:5897   */\n      and\n        /* \"#utility.yul\":5852:5897   */\n      swap1\n      pop\n        /* \"#utility.yul\":5798:5903   */\n      swap2\n      swap1\n      pop\n      jump\t// out\n        /* \"#utility.yul\":5909:6029   */\n    tag_296:\n        /* \"#utility.yul\":5981:6004   */\n      tag_406\n        /* \"#utility.yul\":5998:6003   */\n      dup2\n        /* \"#utility.yul\":5981:6004   */\n      tag_295\n      jump\t// in\n    tag_406:\n        /* \"#utility.yul\":5974:5979   */\n      dup2\n        /* \"#utility.yul\":5971:6005   */\n      eq\n        /* \"#utility.yul\":5961:6023   */\n      tag_407\n      jumpi\n        /* \"#utility.yul\":6019:6020   */\n      0x00\n        /* \"#utility.yul\":6016:6017   */\n      dup1\n        /* \"#utility.yul\":6009:6021   */\n      revert\n        /* \"#utility.yul\":5961:6023   */\n    tag_407:\n        /* \"#utility.yul\":5909:6029   */\n      pop\n      jump\t// out\n        /* \"#utility.yul\":6035:6172   */\n    tag_297:\n        /* \"#utility.yul\":6080:6085   */\n      0x00\n        /* \"#utility.yul\":6118:6124   */\n      dup2\n        /* \"#utility.yul\":6105:6125   */\n      calldataload\n        /* \"#utility.yul\":6096:6125   */\n      swap1\n      pop\n        /* \"#utility.yul\":6134:6166   */\n      tag_409\n        /* \"#utility.yul\":6160:6165   */\n      dup2\n        /* \"#utility.yul\":6134:6166   */\n      tag_296\n      jump\t// in\n    tag_409:\n        /* \"#utility.yul\":6035:6172   */\n      swap3\n      swap2\n      pop\n      pop\n      jump\t// out\n        /* \"#utility.yul\":6178:6505   */\n    tag_104:\n        /* \"#utility.yul\":6236:6242   */\n      0x00\n        /* \"#utility.yul\":6285:6287   */\n      0x20\n        /* \"#utility.yul\":6273:6282   */\n      dup3\n        /* \"#utility.yul\":6264:6271   */\n      dup5\n        /* \"#utility.yul\":6260:6283   */\n      sub\n        /* \"#utility.yul\":6256:6288   */\n      slt\n        /* \"#utility.yul\":6253:6372   */\n      iszero\n      tag_411\n      jumpi\n        /* \"#utility.yul\":6291:6370   */\n      tag_412\n      tag_276\n      jump\t// in\n    tag_412:\n        /* \"#utility.yul\":6253:6372   */\n    tag_411:\n        /* \"#utility.yul\":6411:6412   */\n      0x00\n        /* \"#utility.yul\":6436:6488   */\n      tag_413\n        /* \"#utility.yul\":6480:6487   */\n      dup5\n        /* \"#utility.yul\":6471:6477   */\n      dup3\n        /* \"#utility.yul\":6460:6469   */\n      dup6\n        /* \"#utility.yul\":6456:6478   */\n      add\n        /* \"#utility.yul\":6436:6488   */\n      tag_297\n      jump\t// in\n    tag_413:\n        /* \"#utility.yul\":6426:6488   */\n      swap2\n      pop\n        /* \"#utility.yul\":6382:6498   */\n      pop\n        /* \"#utility.yul\":6178:6505   */\n      swap3\n      swap2\n      pop\n      pop\n      jump\t// out\n        /* \"#utility.yul\":6511:6626   */\n    tag_298:\n        /* \"#utility.yul\":6596:6619   */\n      tag_415\n        /* \"#utility.yul\":6613:6618   */\n      dup2\n        /* \"#utility.yul\":6596:6619   */\n      tag_295\n      jump\t// in\n    tag_415:\n        /* \"#utility.yul\":6591:6594   */\n      dup3\n        /* \"#utility.yul\":6584:6620   */\n      mstore\n        /* \"#utility.yul\":6511:6626   */\n      pop\n      pop\n      jump\t// out\n        /* \"#utility.yul\":6632:6708   */\n    tag_299:\n        /* \"#utility.yul\":6668:6675   */\n      0x00\n        /* \"#utility.yul\":6697:6702   */\n      dup2\n        /* \"#utility.yul\":6686:6702   */\n      swap1\n      pop\n        /* \"#utility.yul\":6632:6708   */\n      swap2\n      swap1\n      pop\n      jump\t// out\n        /* \"#utility.yul\":6714:6829   */\n    tag_300:\n        /* \"#utility.yul\":6799:6822   */\n      tag_418\n        /* \"#utility.yul\":6816:6821   */\n      dup2\n        /* \"#utility.yul\":6799:6822   */\n      tag_299\n      jump\t// in\n    tag_418:\n        /* \"#utility.yul\":6794:6797   */\n      dup3\n        /* \"#utility.yul\":6787:6823   */\n      mstore\n        /* \"#utility.yul\":6714:6829   */\n      pop\n      pop\n      jump\t// out\n        /* \"#utility.yul\":6835:7487   */\n    tag_107:\n        /* \"#utility.yul\":7034:7038   */\n      0x00\n        /* \"#utility.yul\":7072:7075   */\n      0xa0\n        /* \"#utility.yul\":7061:7070   */\n      dup3\n        /* \"#utility.yul\":7057:7076   */\n      add\n        /* \"#utility.yul\":7049:7076   */\n      swap1\n      pop\n        /* \"#utility.yul\":7086:7155   */\n      tag_420\n        /* \"#utility.yul\":7152:7153   */\n      0x00\n        /* \"#utility.yul\":7141:7150   */\n      dup4\n        /* \"#utility.yul\":7137:7154   */\n      add\n        /* \"#utility.yul\":7128:7134   */\n      dup9\n        /* \"#utility.yul\":7086:7155   */\n      tag_298\n      jump\t// in\n    tag_420:\n        /* \"#utility.yul\":7165:7235   */\n      tag_421\n        /* \"#utility.yul\":7231:7233   */\n      0x20\n        /* \"#utility.yul\":7220:7229   */\n      dup4\n        /* \"#utility.yul\":7216:7234   */\n      add\n        /* \"#utility.yul\":7207:7213   */\n      dup8\n        /* \"#utility.yul\":7165:7235   */\n      tag_300\n      jump\t// in\n    tag_421:\n        /* \"#utility.yul\":7245:7317   */\n      tag_422\n        /* \"#utility.yul\":7313:7315   */\n      0x40\n        /* \"#utility.yul\":7302:7311   */\n      dup4\n        /* \"#utility.yul\":7298:7316   */\n      add\n        /* \"#utility.yul\":7289:7295   */\n      dup7\n        /* \"#utility.yul\":7245:7317   */\n      tag_287\n      jump\t// in\n    tag_422:\n        /* \"#utility.yul\":7327:7399   */\n      tag_423\n        /* \"#utility.yul\":7395:7397   */\n      0x60\n        /* \"#utility.yul\":7384:7393   */\n      dup4\n        /* \"#utility.yul\":7380:7398   */\n      add\n        /* \"#utility.yul\":7371:7377   */\n      dup6\n        /* \"#utility.yul\":7327:7399   */\n      tag_287\n      jump\t// in\n    tag_423:\n        /* \"#utility.yul\":7409:7480   */\n      tag_424\n        /* \"#utility.yul\":7475:7478   */\n      0x80\n        /* \"#utility.yul\":7464:7473   */\n      dup4\n        /* \"#utility.yul\":7460:7479   */\n      add\n        /* \"#utility.yul\":7451:7457   */\n      dup5\n        /* \"#utility.yul\":7409:7480   */\n      tag_298\n      jump\t// in\n    tag_424:\n        /* \"#utility.yul\":6835:7487   */\n      swap7\n      swap6\n      pop\n      pop\n      pop\n      pop\n      pop\n      pop\n      jump\t// out\n        /* \"#utility.yul\":7493:7553   */\n    tag_301:\n        /* \"#utility.yul\":7521:7524   */\n      0x00\n        /* \"#utility.yul\":7542:7547   */\n      dup2\n        /* \"#utility.yul\":7535:7547   */\n      swap1\n      pop\n        /* \"#utility.yul\":7493:7553   */\n      swap2\n      swap1\n      pop\n      jump\t// out\n        /* \"#utility.yul\":7559:7701   */\n    tag_302:\n        /* \"#utility.yul\":7609:7618   */\n      0x00\n        /* \"#utility.yul\":7642:7695   */\n      tag_427\n        /* \"#utility.yul\":7660:7694   */\n      tag_428\n        /* \"#utility.yul\":7669:7693   */\n      tag_429\n        /* \"#utility.yul\":7687:7692   */\n      dup5\n        /* \"#utility.yul\":7669:7693   */\n      tag_272\n      jump\t// in\n    tag_429:\n        /* \"#utility.yul\":7660:7694   */\n      tag_301\n      jump\t// in\n    tag_428:\n        /* \"#utility.yul\":7642:7695   */\n      tag_272\n      jump\t// in\n    tag_427:\n        /* \"#utility.yul\":7629:7695   */\n      swap1\n      pop\n        /* \"#utility.yul\":7559:7701   */\n      swap2\n      swap1\n      pop\n      jump\t// out\n        /* \"#utility.yul\":7707:7833   */\n    tag_303:\n        /* \"#utility.yul\":7757:7766   */\n      0x00\n        /* \"#utility.yul\":7790:7827   */\n      tag_431\n        /* \"#utility.yul\":7821:7826   */\n      dup3\n        /* \"#utility.yul\":7790:7827   */\n      tag_302\n      jump\t// in\n    tag_431:\n        /* \"#utility.yul\":7777:7827   */\n      swap1\n      pop\n        /* \"#utility.yul\":7707:7833   */\n      swap2\n      swap1\n      pop\n      jump\t// out\n        /* \"#utility.yul\":7839:7988   */\n    tag_304:\n        /* \"#utility.yul\":7912:7921   */\n      0x00\n        /* \"#utility.yul\":7945:7982   */\n      tag_433\n        /* \"#utility.yul\":7976:7981   */\n      dup3\n        /* \"#utility.yul\":7945:7982   */\n      tag_303\n      jump\t// in\n    tag_433:\n        /* \"#utility.yul\":7932:7982   */\n      swap1\n      pop\n        /* \"#utility.yul\":7839:7988   */\n      swap2\n      swap1\n      pop\n      jump\t// out\n        /* \"#utility.yul\":7994:8171   */\n    tag_305:\n        /* \"#utility.yul\":8104:8164   */\n      tag_435\n        /* \"#utility.yul\":8158:8163   */\n      dup2\n        /* \"#utility.yul\":8104:8164   */\n      tag_304\n      jump\t// in\n    tag_435:\n        /* \"#utility.yul\":8099:8102   */\n      dup3\n        /* \"#utility.yul\":8092:8165   */\n      mstore\n        /* \"#utility.yul\":7994:8171   */\n      pop\n      pop\n      jump\t// out\n        /* \"#utility.yul\":8177:8445   */\n    tag_119:\n        /* \"#utility.yul\":8293:8297   */\n      0x00\n        /* \"#utility.yul\":8331:8333   */\n      0x20\n        /* \"#utility.yul\":8320:8329   */\n      dup3\n        /* \"#utility.yul\":8316:8334   */\n      add\n        /* \"#utility.yul\":8308:8334   */\n      swap1\n      pop\n        /* \"#utility.yul\":8344:8438   */\n      tag_437\n        /* \"#utility.yul\":8435:8436   */\n      0x00\n        /* \"#utility.yul\":8424:8433   */\n      dup4\n        /* \"#utility.yul\":8420:8437   */\n      add\n        /* \"#utility.yul\":8411:8417   */\n      dup5\n        /* \"#utility.yul\":8344:8438   */\n      tag_305\n      jump\t// in\n    tag_437:\n        /* \"#utility.yul\":8177:8445   */\n      swap3\n      swap2\n      pop\n      pop\n      jump\t// out\n        /* \"#utility.yul\":8451:8544   */\n    tag_306:\n        /* \"#utility.yul\":8487:8494   */\n      0x00\n        /* \"#utility.yul\":8527:8537   */\n      0xffffffff\n        /* \"#utility.yul\":8520:8525   */\n      dup3\n        /* \"#utility.yul\":8516:8538   */\n      and\n        /* \"#utility.yul\":8505:8538   */\n      swap1\n      pop\n        /* \"#utility.yul\":8451:8544   */\n      swap2\n      swap1\n      pop\n      jump\t// out\n        /* \"#utility.yul\":8550:8665   */\n    tag_307:\n        /* \"#utility.yul\":8635:8658   */\n      tag_440\n        /* \"#utility.yul\":8652:8657   */\n      dup2\n        /* \"#utility.yul\":8635:8658   */\n      tag_306\n      jump\t// in\n    tag_440:\n        /* \"#utility.yul\":8630:8633   */\n      dup3\n        /* \"#utility.yul\":8623:8659   */\n      mstore\n        /* \"#utility.yul\":8550:8665   */\n      pop\n      pop\n      jump\t// out\n        /* \"#utility.yul\":8671:8889   */\n    tag_129:\n        /* \"#utility.yul\":8762:8766   */\n      0x00\n        /* \"#utility.yul\":8800:8802   */\n      0x20\n        /* \"#utility.yul\":8789:8798   */\n      dup3\n        /* \"#utility.yul\":8785:8803   */\n      add\n        /* \"#utility.yul\":8777:8803   */\n      swap1\n      pop\n        /* \"#utility.yul\":8813:8882   */\n      tag_442\n        /* \"#utility.yul\":8879:8880   */\n      0x00\n        /* \"#utility.yul\":8868:8877   */\n      dup4\n        /* \"#utility.yul\":8864:8881   */\n      add\n        /* \"#utility.yul\":8855:8861   */\n      dup5\n        /* \"#utility.yul\":8813:8882   */\n      tag_307\n      jump\t// in\n    tag_442:\n        /* \"#utility.yul\":8671:8889   */\n      swap3\n      swap2\n      pop\n      pop\n      jump\t// out\n        /* \"#utility.yul\":8895:9011   */\n    tag_308:\n        /* \"#utility.yul\":8965:8986   */\n      tag_444\n        /* \"#utility.yul\":8980:8985   */\n      dup2\n        /* \"#utility.yul\":8965:8986   */\n      tag_283\n      jump\t// in\n    tag_444:\n        /* \"#utility.yul\":8958:8963   */\n      dup2\n        /* \"#utility.yul\":8955:8987   */\n      eq\n        /* \"#utility.yul\":8945:9005   */\n      tag_445\n      jumpi\n        /* \"#utility.yul\":9001:9002   */\n      0x00\n        /* \"#utility.yul\":8998:8999   */\n      dup1\n        /* \"#utility.yul\":8991:9003   */\n      revert\n        /* \"#utility.yul\":8945:9005   */\n    tag_445:\n        /* \"#utility.yul\":8895:9011   */\n      pop\n      jump\t// out\n        /* \"#utility.yul\":9017:9150   */\n    tag_309:\n        /* \"#utility.yul\":9060:9065   */\n      0x00\n        /* \"#utility.yul\":9098:9104   */\n      dup2\n        /* \"#utility.yul\":9085:9105   */\n      calldataload\n        /* \"#utility.yul\":9076:9105   */\n      swap1\n      pop\n        /* \"#utility.yul\":9114:9144   */\n      tag_447\n        /* \"#utility.yul\":9138:9143   */\n      dup2\n        /* \"#utility.yul\":9114:9144   */\n      tag_308\n      jump\t// in\n    tag_447:\n        /* \"#utility.yul\":9017:9150   */\n      swap3\n      swap2\n      pop\n      pop\n      jump\t// out\n        /* \"#utility.yul\":9156:9479   */\n    tag_135:\n        /* \"#utility.yul\":9212:9218   */\n      0x00\n        /* \"#utility.yul\":9261:9263   */\n      0x20\n        /* \"#utility.yul\":9249:9258   */\n      dup3\n        /* \"#utility.yul\":9240:9247   */\n      dup5\n        /* \"#utility.yul\":9236:9259   */\n      sub\n        /* \"#utility.yul\":9232:9264   */\n      slt\n        /* \"#utility.yul\":9229:9348   */\n      iszero\n      tag_449\n      jumpi\n        /* \"#utility.yul\":9267:9346   */\n      tag_450\n      tag_276\n      jump\t// in\n    tag_450:\n        /* \"#utility.yul\":9229:9348   */\n    tag_449:\n        /* \"#utility.yul\":9387:9388   */\n      0x00\n        /* \"#utility.yul\":9412:9462   */\n      tag_451\n        /* \"#utility.yul\":9454:9461   */\n      dup5\n        /* \"#utility.yul\":9445:9451   */\n      dup3\n        /* \"#utility.yul\":9434:9443   */\n      dup6\n        /* \"#utility.yul\":9430:9452   */\n      add\n        /* \"#utility.yul\":9412:9462   */\n      tag_309\n      jump\t// in\n    tag_451:\n        /* \"#utility.yul\":9402:9462   */\n      swap2\n      pop\n        /* \"#utility.yul\":9358:9472   */\n      pop\n        /* \"#utility.yul\":9156:9479   */\n      swap3\n      swap2\n      pop\n      pop\n      jump\t// out\n        /* \"#utility.yul\":9485:9719   */\n    tag_310:\n        /* \"#utility.yul\":9625:9659   */\n      0x596f7520617265206e6f7420616e206f776e6572206f722074686520676f7665\n        /* \"#utility.yul\":9621:9622   */\n      0x00\n        /* \"#utility.yul\":9613:9619   */\n      dup3\n        /* \"#utility.yul\":9609:9623   */\n      add\n        /* \"#utility.yul\":9602:9660   */\n      mstore\n        /* \"#utility.yul\":9694:9711   */\n      0x726e616e63652074696d656c6f636b0000000000000000000000000000000000\n        /* \"#utility.yul\":9689:9691   */\n      0x20\n        /* \"#utility.yul\":9681:9687   */\n      dup3\n        /* \"#utility.yul\":9677:9692   */\n      add\n        /* \"#utility.yul\":9670:9712   */\n      mstore\n        /* \"#utility.yul\":9485:9719   */\n      pop\n      jump\t// out\n        /* \"#utility.yul\":9725:10091   */\n    tag_311:\n        /* \"#utility.yul\":9867:9870   */\n      0x00\n        /* \"#utility.yul\":9888:9955   */\n      tag_454\n        /* \"#utility.yul\":9952:9954   */\n      0x2f\n        /* \"#utility.yul\":9947:9950   */\n      dup4\n        /* \"#utility.yul\":9888:9955   */\n      tag_291\n      jump\t// in\n    tag_454:\n        /* \"#utility.yul\":9881:9955   */\n      swap2\n      pop\n        /* \"#utility.yul\":9964:10057   */\n      tag_455\n        /* \"#utility.yul\":10053:10056   */\n      dup3\n        /* \"#utility.yul\":9964:10057   */\n      tag_310\n      jump\t// in\n    tag_455:\n        /* \"#utility.yul\":10082:10084   */\n      0x40\n        /* \"#utility.yul\":10077:10080   */\n      dup3\n        /* \"#utility.yul\":10073:10085   */\n      add\n        /* \"#utility.yul\":10066:10085   */\n      swap1\n      pop\n        /* \"#utility.yul\":9725:10091   */\n      swap2\n      swap1\n      pop\n      jump\t// out\n        /* \"#utility.yul\":10097:10516   */\n    tag_144:\n        /* \"#utility.yul\":10263:10267   */\n      0x00\n        /* \"#utility.yul\":10301:10303   */\n      0x20\n        /* \"#utility.yul\":10290:10299   */\n      dup3\n        /* \"#utility.yul\":10286:10304   */\n      add\n        /* \"#utility.yul\":10278:10304   */\n      swap1\n      pop\n        /* \"#utility.yul\":10350:10359   */\n      dup2\n        /* \"#utility.yul\":10344:10348   */\n      dup2\n        /* \"#utility.yul\":10340:10360   */\n      sub\n        /* \"#utility.yul\":10336:10337   */\n      0x00\n        /* \"#utility.yul\":10325:10334   */\n      dup4\n        /* \"#utility.yul\":10321:10338   */\n      add\n        /* \"#utility.yul\":10314:10361   */\n      mstore\n        /* \"#utility.yul\":10378:10509   */\n      tag_457\n        /* \"#utility.yul\":10504:10508   */\n      dup2\n        /* \"#utility.yul\":10378:10509   */\n      tag_311\n      jump\t// in\n    tag_457:\n        /* \"#utility.yul\":10370:10509   */\n      swap1\n      pop\n        /* \"#utility.yul\":10097:10516   */\n      swap2\n      swap1\n      pop\n      jump\t// out\n        /* \"#utility.yul\":10522:10756   */\n    tag_312:\n        /* \"#utility.yul\":10662:10696   */\n      0x4f6e6c792074686520636f6e7472616374206f776e6572206d61792070657266\n        /* \"#utility.yul\":10658:10659   */\n      0x00\n        /* \"#utility.yul\":10650:10656   */\n      dup3\n        /* \"#utility.yul\":10646:10660   */\n      add\n        /* \"#utility.yul\":10639:10697   */\n      mstore\n        /* \"#utility.yul\":10731:10748   */\n      0x6f726d207468697320616374696f6e0000000000000000000000000000000000\n        /* \"#utility.yul\":10726:10728   */\n      0x20\n        /* \"#utility.yul\":10718:10724   */\n      dup3\n        /* \"#utility.yul\":10714:10729   */\n      add\n        /* \"#utility.yul\":10707:10749   */\n      mstore\n        /* \"#utility.yul\":10522:10756   */\n      pop\n      jump\t// out\n        /* \"#utility.yul\":10762:11128   */\n    tag_313:\n        /* \"#utility.yul\":10904:10907   */\n      0x00\n        /* \"#utility.yul\":10925:10992   */\n      tag_460\n        /* \"#utility.yul\":10989:10991   */\n      0x2f\n        /* \"#utility.yul\":10984:10987   */\n      dup4\n        /* \"#utility.yul\":10925:10992   */\n      tag_291\n      jump\t// in\n    tag_460:\n        /* \"#utility.yul\":10918:10992   */\n      swap2\n      pop\n        /* \"#utility.yul\":11001:11094   */\n      tag_461\n        /* \"#utility.yul\":11090:11093   */\n      dup3\n        /* \"#utility.yul\":11001:11094   */\n      tag_312\n      jump\t// in\n    tag_461:\n        /* \"#utility.yul\":11119:11121   */\n      0x40\n        /* \"#utility.yul\":11114:11117   */\n      dup3\n        /* \"#utility.yul\":11110:11122   */\n      add\n        /* \"#utility.yul\":11103:11122   */\n      swap1\n      pop\n        /* \"#utility.yul\":10762:11128   */\n      swap2\n      swap1\n      pop\n      jump\t// out\n        /* \"#utility.yul\":11134:11553   */\n    tag_149:\n        /* \"#utility.yul\":11300:11304   */\n      0x00\n        /* \"#utility.yul\":11338:11340   */\n      0x20\n        /* \"#utility.yul\":11327:11336   */\n      dup3\n        /* \"#utility.yul\":11323:11341   */\n      add\n        /* \"#utility.yul\":11315:11341   */\n      swap1\n      pop\n        /* \"#utility.yul\":11387:11396   */\n      dup2\n        /* \"#utility.yul\":11381:11385   */\n      dup2\n        /* \"#utility.yul\":11377:11397   */\n      sub\n        /* \"#utility.yul\":11373:11374   */\n      0x00\n        /* \"#utility.yul\":11362:11371   */\n      dup4\n        /* \"#utility.yul\":11358:11375   */\n      add\n        /* \"#utility.yul\":11351:11398   */\n      mstore\n        /* \"#utility.yul\":11415:11546   */\n      tag_463\n        /* \"#utility.yul\":11541:11545   */\n      dup2\n        /* \"#utility.yul\":11415:11546   */\n      tag_313\n      jump\t// in\n    tag_463:\n        /* \"#utility.yul\":11407:11546   */\n      swap1\n      pop\n        /* \"#utility.yul\":11134:11553   */\n      swap2\n      swap1\n      pop\n      jump\t// out\n        /* \"#utility.yul\":11559:11739   */\n    tag_314:\n        /* \"#utility.yul\":11607:11684   */\n      0x4e487b7100000000000000000000000000000000000000000000000000000000\n        /* \"#utility.yul\":11604:11605   */\n      0x00\n        /* \"#utility.yul\":11597:11685   */\n      mstore\n        /* \"#utility.yul\":11704:11708   */\n      0x11\n        /* \"#utility.yul\":11701:11702   */\n      0x04\n        /* \"#utility.yul\":11694:11709   */\n      mstore\n        /* \"#utility.yul\":11728:11732   */\n      0x24\n        /* \"#utility.yul\":11725:11726   */\n      0x00\n        /* \"#utility.yul\":11718:11733   */\n      revert\n        /* \"#utility.yul\":11745:11933   */\n    tag_156:\n        /* \"#utility.yul\":11784:11788   */\n      0x00\n        /* \"#utility.yul\":11804:11823   */\n      tag_466\n        /* \"#utility.yul\":11821:11822   */\n      dup3\n        /* \"#utility.yul\":11804:11823   */\n      tag_306\n      jump\t// in\n    tag_466:\n        /* \"#utility.yul\":11799:11823   */\n      swap2\n      pop\n        /* \"#utility.yul\":11837:11856   */\n      tag_467\n        /* \"#utility.yul\":11854:11855   */\n      dup4\n        /* \"#utility.yul\":11837:11856   */\n      tag_306\n      jump\t// in\n    tag_467:\n        /* \"#utility.yul\":11832:11856   */\n      swap3\n      pop\n        /* \"#utility.yul\":11875:11876   */\n      dup3\n        /* \"#utility.yul\":11872:11873   */\n      dup3\n        /* \"#utility.yul\":11869:11877   */\n      lt\n        /* \"#utility.yul\":11866:11900   */\n      iszero\n      tag_468\n      jumpi\n        /* \"#utility.yul\":11880:11898   */\n      tag_469\n      tag_314\n      jump\t// in\n    tag_469:\n        /* \"#utility.yul\":11866:11900   */\n    tag_468:\n        /* \"#utility.yul\":11925:11926   */\n      dup3\n        /* \"#utility.yul\":11922:11923   */\n      dup3\n        /* \"#utility.yul\":11918:11927   */\n      sub\n        /* \"#utility.yul\":11910:11927   */\n      swap1\n      pop\n        /* \"#utility.yul\":11745:11933   */\n      swap3\n      swap2\n      pop\n      pop\n      jump\t// out\n        /* \"#utility.yul\":11939:12244   */\n    tag_158:\n        /* \"#utility.yul\":11979:11982   */\n      0x00\n        /* \"#utility.yul\":11998:12018   */\n      tag_471\n        /* \"#utility.yul\":12016:12017   */\n      dup3\n        /* \"#utility.yul\":11998:12018   */\n      tag_278\n      jump\t// in\n    tag_471:\n        /* \"#utility.yul\":11993:12018   */\n      swap2\n      pop\n        /* \"#utility.yul\":12032:12052   */\n      tag_472\n        /* \"#utility.yul\":12050:12051   */\n      dup4\n        /* \"#utility.yul\":12032:12052   */\n      tag_278\n      jump\t// in\n    tag_472:\n        /* \"#utility.yul\":12027:12052   */\n      swap3\n      pop\n        /* \"#utility.yul\":12186:12187   */\n      dup3\n        /* \"#utility.yul\":12118:12184   */\n      0xffffffffffffffffffffffffffffffffffffffffffffffffffffffffffffffff\n        /* \"#utility.yul\":12114:12188   */\n      sub\n        /* \"#utility.yul\":12111:12112   */\n      dup3\n        /* \"#utility.yul\":12108:12189   */\n      gt\n        /* \"#utility.yul\":12105:12212   */\n      iszero\n      tag_473\n      jumpi\n        /* \"#utility.yul\":12192:12210   */\n      tag_474\n      tag_314\n      jump\t// in\n    tag_474:\n        /* \"#utility.yul\":12105:12212   */\n    tag_473:\n        /* \"#utility.yul\":12236:12237   */\n      dup3\n        /* \"#utility.yul\":12233:12234   */\n      dup3\n        /* \"#utility.yul\":12229:12238   */\n      add\n        /* \"#utility.yul\":12222:12238   */\n      swap1\n      pop\n        /* \"#utility.yul\":11939:12244   */\n      swap3\n      swap2\n      pop\n      pop\n      jump\t// out\n        /* \"#utility.yul\":12250:12490   */\n    tag_315:\n        /* \"#utility.yul\":12390:12424   */\n      0x556e6973776170506169724f7261636c653a2050524943455f49535f5354414c\n        /* \"#utility.yul\":12386:12387   */\n      0x00\n        /* \"#utility.yul\":12378:12384   */\n      dup3\n        /* \"#utility.yul\":12374:12388   */\n      add\n        /* \"#utility.yul\":12367:12425   */\n      mstore\n        /* \"#utility.yul\":12459:12482   */\n      0x455f4e4545445f544f5f43414c4c5f5550444154450000000000000000000000\n        /* \"#utility.yul\":12454:12456   */\n      0x20\n        /* \"#utility.yul\":12446:12452   */\n      dup3\n        /* \"#utility.yul\":12442:12457   */\n      add\n        /* \"#utility.yul\":12435:12483   */\n      mstore\n        /* \"#utility.yul\":12250:12490   */\n      pop\n      jump\t// out\n        /* \"#utility.yul\":12496:12862   */\n    tag_316:\n        /* \"#utility.yul\":12638:12641   */\n      0x00\n        /* \"#utility.yul\":12659:12726   */\n      tag_477\n        /* \"#utility.yul\":12723:12725   */\n      0x35\n        /* \"#utility.yul\":12718:12721   */\n      dup4\n        /* \"#utility.yul\":12659:12726   */\n      tag_291\n      jump\t// in\n    tag_477:\n        /* \"#utility.yul\":12652:12726   */\n      swap2\n      pop\n        /* \"#utility.yul\":12735:12828   */\n      tag_478\n        /* \"#utility.yul\":12824:12827   */\n      dup3\n        /* \"#utility.yul\":12735:12828   */\n      tag_315\n      jump\t// in\n    tag_478:\n        /* \"#utility.yul\":12853:12855   */\n      0x40\n        /* \"#utility.yul\":12848:12851   */\n      dup3\n        /* \"#utility.yul\":12844:12856   */\n      add\n        /* \"#utility.yul\":12837:12856   */\n      swap1\n      pop\n        /* \"#utility.yul\":12496:12862   */\n      swap2\n      swap1\n      pop\n      jump\t// out\n        /* \"#utility.yul\":12868:13287   */\n    tag_162:\n        /* \"#utility.yul\":13034:13038   */\n      0x00\n        /* \"#utility.yul\":13072:13074   */\n      0x20\n        /* \"#utility.yul\":13061:13070   */\n      dup3\n        /* \"#utility.yul\":13057:13075   */\n      add\n        /* \"#utility.yul\":13049:13075   */\n      swap1\n      pop\n        /* \"#utility.yul\":13121:13130   */\n      dup2\n        /* \"#utility.yul\":13115:13119   */\n      dup2\n        /* \"#utility.yul\":13111:13131   */\n      sub\n        /* \"#utility.yul\":13107:13108   */\n      0x00\n        /* \"#utility.yul\":13096:13105   */\n      dup4\n        /* \"#utility.yul\":13092:13109   */\n      add\n        /* \"#utility.yul\":13085:13132   */\n      mstore\n        /* \"#utility.yul\":13149:13280   */\n      tag_480\n        /* \"#utility.yul\":13275:13279   */\n      dup2\n        /* \"#utility.yul\":13149:13280   */\n      tag_316\n      jump\t// in\n    tag_480:\n        /* \"#utility.yul\":13141:13280   */\n      swap1\n      pop\n        /* \"#utility.yul\":12868:13287   */\n      swap2\n      swap1\n      pop\n      jump\t// out\n        /* \"#utility.yul\":13293:13475   */\n    tag_317:\n        /* \"#utility.yul\":13433:13467   */\n      0x556e6973776170506169724f7261636c653a20494e56414c49445f544f4b454e\n        /* \"#utility.yul\":13429:13430   */\n      0x00\n        /* \"#utility.yul\":13421:13427   */\n      dup3\n        /* \"#utility.yul\":13417:13431   */\n      add\n        /* \"#utility.yul\":13410:13468   */\n      mstore\n        /* \"#utility.yul\":13293:13475   */\n      pop\n      jump\t// out\n        /* \"#utility.yul\":13481:13847   */\n    tag_318:\n        /* \"#utility.yul\":13623:13626   */\n      0x00\n        /* \"#utility.yul\":13644:13711   */\n      tag_483\n        /* \"#utility.yul\":13708:13710   */\n      0x20\n        /* \"#utility.yul\":13703:13706   */\n      dup4\n        /* \"#utility.yul\":13644:13711   */\n      tag_291\n      jump\t// in\n    tag_483:\n        /* \"#utility.yul\":13637:13711   */\n      swap2\n      pop\n        /* \"#utility.yul\":13720:13813   */\n      tag_484\n        /* \"#utility.yul\":13809:13812   */\n      dup3\n        /* \"#utility.yul\":13720:13813   */\n      tag_317\n      jump\t// in\n    tag_484:\n        /* \"#utility.yul\":13838:13840   */\n      0x20\n        /* \"#utility.yul\":13833:13836   */\n      dup3\n        /* \"#utility.yul\":13829:13841   */\n      add\n        /* \"#utility.yul\":13822:13841   */\n      swap1\n      pop\n        /* \"#utility.yul\":13481:13847   */\n      swap2\n      swap1\n      pop\n      jump\t// out\n        /* \"#utility.yul\":13853:14272   */\n    tag_171:\n        /* \"#utility.yul\":14019:14023   */\n      0x00\n        /* \"#utility.yul\":14057:14059   */\n      0x20\n        /* \"#utility.yul\":14046:14055   */\n      dup3\n        /* \"#utility.yul\":14042:14060   */\n      add\n        /* \"#utility.yul\":14034:14060   */\n      swap1\n      pop\n        /* \"#utility.yul\":14106:14115   */\n      dup2\n        /* \"#utility.yul\":14100:14104   */\n      dup2\n        /* \"#utility.yul\":14096:14116   */\n      sub\n        /* \"#utility.yul\":14092:14093   */\n      0x00\n        /* \"#utility.yul\":14081:14090   */\n      dup4\n        /* \"#utility.yul\":14077:14094   */\n      add\n        /* \"#utility.yul\":14070:14117   */\n      mstore\n        /* \"#utility.yul\":14134:14265   */\n      tag_486\n        /* \"#utility.yul\":14260:14264   */\n      dup2\n        /* \"#utility.yul\":14134:14265   */\n      tag_318\n      jump\t// in\n    tag_486:\n        /* \"#utility.yul\":14126:14265   */\n      swap1\n      pop\n        /* \"#utility.yul\":13853:14272   */\n      swap2\n      swap1\n      pop\n      jump\t// out\n        /* \"#utility.yul\":14278:14458   */\n    tag_319:\n        /* \"#utility.yul\":14326:14403   */\n      0x4e487b7100000000000000000000000000000000000000000000000000000000\n        /* \"#utility.yul\":14323:14324   */\n      0x00\n        /* \"#utility.yul\":14316:14404   */\n      mstore\n        /* \"#utility.yul\":14423:14427   */\n      0x22\n        /* \"#utility.yul\":14420:14421   */\n      0x04\n        /* \"#utility.yul\":14413:14428   */\n      mstore\n        /* \"#utility.yul\":14447:14451   */\n      0x24\n        /* \"#utility.yul\":14444:14445   */\n      0x00\n        /* \"#utility.yul\":14437:14452   */\n      revert\n        /* \"#utility.yul\":14464:14784   */\n    tag_180:\n        /* \"#utility.yul\":14508:14514   */\n      0x00\n        /* \"#utility.yul\":14545:14546   */\n      0x02\n        /* \"#utility.yul\":14539:14543   */\n      dup3\n        /* \"#utility.yul\":14535:14547   */\n      div\n        /* \"#utility.yul\":14525:14547   */\n      swap1\n      pop\n        /* \"#utility.yul\":14592:14593   */\n      0x01\n        /* \"#utility.yul\":14586:14590   */\n      dup3\n        /* \"#utility.yul\":14582:14594   */\n      and\n        /* \"#utility.yul\":14613:14631   */\n      dup1\n        /* \"#utility.yul\":14603:14684   */\n      tag_489\n      jumpi\n        /* \"#utility.yul\":14669:14673   */\n      0x7f\n        /* \"#utility.yul\":14661:14667   */\n      dup3\n        /* \"#utility.yul\":14657:14674   */\n      and\n        /* \"#utility.yul\":14647:14674   */\n      swap2\n      pop\n        /* \"#utility.yul\":14603:14684   */\n    tag_489:\n        /* \"#utility.yul\":14731:14733   */\n      0x20\n        /* \"#utility.yul\":14723:14729   */\n      dup3\n        /* \"#utility.yul\":14720:14734   */\n      lt\n        /* \"#utility.yul\":14700:14718   */\n      dup2\n        /* \"#utility.yul\":14697:14735   */\n      eq\n        /* \"#utility.yul\":14694:14778   */\n      iszero\n      tag_490\n      jumpi\n        /* \"#utility.yul\":14750:14768   */\n      tag_491\n      tag_319\n      jump\t// in\n    tag_491:\n        /* \"#utility.yul\":14694:14778   */\n    tag_490:\n        /* \"#utility.yul\":14515:14784   */\n      pop\n        /* \"#utility.yul\":14464:14784   */\n      swap2\n      swap1\n      pop\n      jump\t// out\n        /* \"#utility.yul\":14790:15030   */\n    tag_320:\n        /* \"#utility.yul\":14930:14964   */\n      0x596f75206d757374206265206e6f6d696e61746564206265666f726520796f75\n        /* \"#utility.yul\":14926:14927   */\n      0x00\n        /* \"#utility.yul\":14918:14924   */\n      dup3\n        /* \"#utility.yul\":14914:14928   */\n      add\n        /* \"#utility.yul\":14907:14965   */\n      mstore\n        /* \"#utility.yul\":14999:15022   */\n      0x2063616e20616363657074206f776e6572736869700000000000000000000000\n        /* \"#utility.yul\":14994:14996   */\n      0x20\n        /* \"#utility.yul\":14986:14992   */\n      dup3\n        /* \"#utility.yul\":14982:14997   */\n      add\n        /* \"#utility.yul\":14975:15023   */\n      mstore\n        /* \"#utility.yul\":14790:15030   */\n      pop\n      jump\t// out\n        /* \"#utility.yul\":15036:15402   */\n    tag_321:\n        /* \"#utility.yul\":15178:15181   */\n      0x00\n        /* \"#utility.yul\":15199:15266   */\n      tag_494\n        /* \"#utility.yul\":15263:15265   */\n      0x35\n        /* \"#utility.yul\":15258:15261   */\n      dup4\n        /* \"#utility.yul\":15199:15266   */\n      tag_291\n      jump\t// in\n    tag_494:\n        /* \"#utility.yul\":15192:15266   */\n      swap2\n      pop\n        /* \"#utility.yul\":15275:15368   */\n      tag_495\n        /* \"#utility.yul\":15364:15367   */\n      dup3\n        /* \"#utility.yul\":15275:15368   */\n      tag_320\n      jump\t// in\n    tag_495:\n        /* \"#utility.yul\":15393:15395   */\n      0x40\n        /* \"#utility.yul\":15388:15391   */\n      dup3\n        /* \"#utility.yul\":15384:15396   */\n      add\n        /* \"#utility.yul\":15377:15396   */\n      swap1\n      pop\n        /* \"#utility.yul\":15036:15402   */\n      swap2\n      swap1\n      pop\n      jump\t// out\n        /* \"#utility.yul\":15408:15827   */\n    tag_193:\n        /* \"#utility.yul\":15574:15578   */\n      0x00\n        /* \"#utility.yul\":15612:15614   */\n      0x20\n        /* \"#utility.yul\":15601:15610   */\n      dup3\n        /* \"#utility.yul\":15597:15615   */\n      add\n        /* \"#utility.yul\":15589:15615   */\n      swap1\n      pop\n        /* \"#utility.yul\":15661:15670   */\n      dup2\n        /* \"#utility.yul\":15655:15659   */\n      dup2\n        /* \"#utility.yul\":15651:15671   */\n      sub\n        /* \"#utility.yul\":15647:15648   */\n      0x00\n        /* \"#utility.yul\":15636:15645   */\n      dup4\n        /* \"#utility.yul\":15632:15649   */\n      add\n        /* \"#utility.yul\":15625:15672   */\n      mstore\n        /* \"#utility.yul\":15689:15820   */\n      tag_497\n        /* \"#utility.yul\":15815:15819   */\n      dup2\n        /* \"#utility.yul\":15689:15820   */\n      tag_321\n      jump\t// in\n    tag_497:\n        /* \"#utility.yul\":15681:15820   */\n      swap1\n      pop\n        /* \"#utility.yul\":15408:15827   */\n      swap2\n      swap1\n      pop\n      jump\t// out\n        /* \"#utility.yul\":15833:16165   */\n    tag_195:\n        /* \"#utility.yul\":15954:15958   */\n      0x00\n        /* \"#utility.yul\":15992:15994   */\n      0x40\n        /* \"#utility.yul\":15981:15990   */\n      dup3\n        /* \"#utility.yul\":15977:15995   */\n      add\n        /* \"#utility.yul\":15969:15995   */\n      swap1\n      pop\n        /* \"#utility.yul\":16005:16076   */\n      tag_499\n        /* \"#utility.yul\":16073:16074   */\n      0x00\n        /* \"#utility.yul\":16062:16071   */\n      dup4\n        /* \"#utility.yul\":16058:16075   */\n      add\n        /* \"#utility.yul\":16049:16055   */\n      dup6\n        /* \"#utility.yul\":16005:16076   */\n      tag_274\n      jump\t// in\n    tag_499:\n        /* \"#utility.yul\":16086:16158   */\n      tag_500\n        /* \"#utility.yul\":16154:16156   */\n      0x20\n        /* \"#utility.yul\":16143:16152   */\n      dup4\n        /* \"#utility.yul\":16139:16157   */\n      add\n        /* \"#utility.yul\":16130:16136   */\n      dup5\n        /* \"#utility.yul\":16086:16158   */\n      tag_274\n      jump\t// in\n    tag_500:\n        /* \"#utility.yul\":15833:16165   */\n      swap4\n      swap3\n      pop\n      pop\n      pop\n      jump\t// out\n        /* \"#utility.yul\":16171:16395   */\n    tag_322:\n        /* \"#utility.yul\":16311:16345   */\n      0x556e6973776170506169724f7261636c653a20504552494f445f4e4f545f454c\n        /* \"#utility.yul\":16307:16308   */\n      0x00\n        /* \"#utility.yul\":16299:16305   */\n      dup3\n        /* \"#utility.yul\":16295:16309   */\n      add\n        /* \"#utility.yul\":16288:16346   */\n      mstore\n        /* \"#utility.yul\":16380:16387   */\n      0x4150534544000000000000000000000000000000000000000000000000000000\n        /* \"#utility.yul\":16375:16377   */\n      0x20\n        /* \"#utility.yul\":16367:16373   */\n      dup3\n        /* \"#utility.yul\":16363:16378   */\n      add\n        /* \"#utility.yul\":16356:16388   */\n      mstore\n        /* \"#utility.yul\":16171:16395   */\n      pop\n      jump\t// out\n        /* \"#utility.yul\":16401:16767   */\n    tag_323:\n        /* \"#utility.yul\":16543:16546   */\n      0x00\n        /* \"#utility.yul\":16564:16631   */\n      tag_503\n        /* \"#utility.yul\":16628:16630   */\n      0x25\n        /* \"#utility.yul\":16623:16626   */\n      dup4\n        /* \"#utility.yul\":16564:16631   */\n      tag_291\n      jump\t// in\n    tag_503:\n        /* \"#utility.yul\":16557:16631   */\n      swap2\n      pop\n        /* \"#utility.yul\":16640:16733   */\n      tag_504\n        /* \"#utility.yul\":16729:16732   */\n      dup3\n        /* \"#utility.yul\":16640:16733   */\n      tag_322\n      jump\t// in\n    tag_504:\n        /* \"#utility.yul\":16758:16760   */\n      0x40\n        /* \"#utility.yul\":16753:16756   */\n      dup3\n        /* \"#utility.yul\":16749:16761   */\n      add\n        /* \"#utility.yul\":16742:16761   */\n      swap1\n      pop\n        /* \"#utility.yul\":16401:16767   */\n      swap2\n      swap1\n      pop\n      jump\t// out\n        /* \"#utility.yul\":16773:17192   */\n    tag_206:\n        /* \"#utility.yul\":16939:16943   */\n      0x00\n        /* \"#utility.yul\":16977:16979   */\n      0x20\n        /* \"#utility.yul\":16966:16975   */\n      dup3\n        /* \"#utility.yul\":16962:16980   */\n      add\n        /* \"#utility.yul\":16954:16980   */\n      swap1\n      pop\n        /* \"#utility.yul\":17026:17035   */\n      dup2\n        /* \"#utility.yul\":17020:17024   */\n      dup2\n        /* \"#utility.yul\":17016:17036   */\n      sub\n        /* \"#utility.yul\":17012:17013   */\n      0x00\n        /* \"#utility.yul\":17001:17010   */\n      dup4\n        /* \"#utility.yul\":16997:17014   */\n      add\n        /* \"#utility.yul\":16990:17037   */\n      mstore\n        /* \"#utility.yul\":17054:17185   */\n      tag_506\n        /* \"#utility.yul\":17180:17184   */\n      dup2\n        /* \"#utility.yul\":17054:17185   */\n      tag_323\n      jump\t// in\n    tag_506:\n        /* \"#utility.yul\":17046:17185   */\n      swap1\n      pop\n        /* \"#utility.yul\":16773:17192   */\n      swap2\n      swap1\n      pop\n      jump\t// out\n        /* \"#utility.yul\":17198:17389   */\n    tag_208:\n        /* \"#utility.yul\":17238:17242   */\n      0x00\n        /* \"#utility.yul\":17258:17278   */\n      tag_508\n        /* \"#utility.yul\":17276:17277   */\n      dup3\n        /* \"#utility.yul\":17258:17278   */\n      tag_278\n      jump\t// in\n    tag_508:\n        /* \"#utility.yul\":17253:17278   */\n      swap2\n      pop\n        /* \"#utility.yul\":17292:17312   */\n      tag_509\n        /* \"#utility.yul\":17310:17311   */\n      dup4\n        /* \"#utility.yul\":17292:17312   */\n      tag_278\n      jump\t// in\n    tag_509:\n        /* \"#utility.yul\":17287:17312   */\n      swap3\n      pop\n        /* \"#utility.yul\":17331:17332   */\n      dup3\n        /* \"#utility.yul\":17328:17329   */\n      dup3\n        /* \"#utility.yul\":17325:17333   */\n      lt\n        /* \"#utility.yul\":17322:17356   */\n      iszero\n      tag_510\n      jumpi\n        /* \"#utility.yul\":17336:17354   */\n      tag_511\n      tag_314\n      jump\t// in\n    tag_511:\n        /* \"#utility.yul\":17322:17356   */\n    tag_510:\n        /* \"#utility.yul\":17381:17382   */\n      dup3\n        /* \"#utility.yul\":17378:17379   */\n      dup3\n        /* \"#utility.yul\":17374:17383   */\n      sub\n        /* \"#utility.yul\":17366:17383   */\n      swap1\n      pop\n        /* \"#utility.yul\":17198:17389   */\n      swap3\n      swap2\n      pop\n      pop\n      jump\t// out\n        /* \"#utility.yul\":17395:17575   */\n    tag_324:\n        /* \"#utility.yul\":17443:17520   */\n      0x4e487b7100000000000000000000000000000000000000000000000000000000\n        /* \"#utility.yul\":17440:17441   */\n      0x00\n        /* \"#utility.yul\":17433:17521   */\n      mstore\n        /* \"#utility.yul\":17540:17544   */\n      0x12\n        /* \"#utility.yul\":17537:17538   */\n      0x04\n        /* \"#utility.yul\":17530:17545   */\n      mstore\n        /* \"#utility.yul\":17564:17568   */\n      0x24\n        /* \"#utility.yul\":17561:17562   */\n      0x00\n        /* \"#utility.yul\":17554:17569   */\n      revert\n        /* \"#utility.yul\":17581:17766   */\n    tag_210:\n        /* \"#utility.yul\":17621:17622   */\n      0x00\n        /* \"#utility.yul\":17638:17658   */\n      tag_514\n        /* \"#utility.yul\":17656:17657   */\n      dup3\n        /* \"#utility.yul\":17638:17658   */\n      tag_278\n      jump\t// in\n    tag_514:\n        /* \"#utility.yul\":17633:17658   */\n      swap2\n      pop\n        /* \"#utility.yul\":17672:17692   */\n      tag_515\n        /* \"#utility.yul\":17690:17691   */\n      dup4\n        /* \"#utility.yul\":17672:17692   */\n      tag_278\n      jump\t// in\n    tag_515:\n        /* \"#utility.yul\":17667:17692   */\n      swap3\n      pop\n        /* \"#utility.yul\":17711:17712   */\n      dup3\n        /* \"#utility.yul\":17701:17736   */\n      tag_516\n      jumpi\n        /* \"#utility.yul\":17716:17734   */\n      tag_517\n      tag_324\n      jump\t// in\n    tag_517:\n        /* \"#utility.yul\":17701:17736   */\n    tag_516:\n        /* \"#utility.yul\":17758:17759   */\n      dup3\n        /* \"#utility.yul\":17755:17756   */\n      dup3\n        /* \"#utility.yul\":17751:17760   */\n      div\n        /* \"#utility.yul\":17746:17760   */\n      swap1\n      pop\n        /* \"#utility.yul\":17581:17766   */\n      swap3\n      swap2\n      pop\n      pop\n      jump\t// out\n        /* \"#utility.yul\":17772:17948   */\n    tag_227:\n        /* \"#utility.yul\":17804:17805   */\n      0x00\n        /* \"#utility.yul\":17821:17841   */\n      tag_519\n        /* \"#utility.yul\":17839:17840   */\n      dup3\n        /* \"#utility.yul\":17821:17841   */\n      tag_278\n      jump\t// in\n    tag_519:\n        /* \"#utility.yul\":17816:17841   */\n      swap2\n      pop\n        /* \"#utility.yul\":17855:17875   */\n      tag_520\n        /* \"#utility.yul\":17873:17874   */\n      dup4\n        /* \"#utility.yul\":17855:17875   */\n      tag_278\n      jump\t// in\n    tag_520:\n        /* \"#utility.yul\":17850:17875   */\n      swap3\n      pop\n        /* \"#utility.yul\":17894:17895   */\n      dup3\n        /* \"#utility.yul\":17884:17919   */\n      tag_521\n      jumpi\n        /* \"#utility.yul\":17899:17917   */\n      tag_522\n      tag_324\n      jump\t// in\n    tag_522:\n        /* \"#utility.yul\":17884:17919   */\n    tag_521:\n        /* \"#utility.yul\":17940:17941   */\n      dup3\n        /* \"#utility.yul\":17937:17938   */\n      dup3\n        /* \"#utility.yul\":17933:17942   */\n      mod\n        /* \"#utility.yul\":17928:17942   */\n      swap1\n      pop\n        /* \"#utility.yul\":17772:17948   */\n      swap3\n      swap2\n      pop\n      pop\n      jump\t// out\n        /* \"#utility.yul\":17954:18302   */\n    tag_233:\n        /* \"#utility.yul\":17994:18001   */\n      0x00\n        /* \"#utility.yul\":18017:18037   */\n      tag_524\n        /* \"#utility.yul\":18035:18036   */\n      dup3\n        /* \"#utility.yul\":18017:18037   */\n      tag_278\n      jump\t// in\n    tag_524:\n        /* \"#utility.yul\":18012:18037   */\n      swap2\n      pop\n        /* \"#utility.yul\":18051:18071   */\n      tag_525\n        /* \"#utility.yul\":18069:18070   */\n      dup4\n        /* \"#utility.yul\":18051:18071   */\n      tag_278\n      jump\t// in\n    tag_525:\n        /* \"#utility.yul\":18046:18071   */\n      swap3\n      pop\n        /* \"#utility.yul\":18239:18240   */\n      dup2\n        /* \"#utility.yul\":18171:18237   */\n      0xffffffffffffffffffffffffffffffffffffffffffffffffffffffffffffffff\n        /* \"#utility.yul\":18167:18241   */\n      div\n        /* \"#utility.yul\":18164:18165   */\n      dup4\n        /* \"#utility.yul\":18161:18242   */\n      gt\n        /* \"#utility.yul\":18156:18157   */\n      dup3\n        /* \"#utility.yul\":18149:18158   */\n      iszero\n        /* \"#utility.yul\":18142:18159   */\n      iszero\n        /* \"#utility.yul\":18138:18243   */\n      and\n        /* \"#utility.yul\":18135:18266   */\n      iszero\n      tag_526\n      jumpi\n        /* \"#utility.yul\":18246:18264   */\n      tag_527\n      tag_314\n      jump\t// in\n    tag_527:\n        /* \"#utility.yul\":18135:18266   */\n    tag_526:\n        /* \"#utility.yul\":18294:18295   */\n      dup3\n        /* \"#utility.yul\":18291:18292   */\n      dup3\n        /* \"#utility.yul\":18287:18296   */\n      mul\n        /* \"#utility.yul\":18276:18296   */\n      swap1\n      pop\n        /* \"#utility.yul\":17954:18302   */\n      swap3\n      swap2\n      pop\n      pop\n      jump\t// out\n        /* \"#utility.yul\":18308:18530   */\n    tag_325:\n        /* \"#utility.yul\":18448:18482   */\n      0x4669786564506f696e743a204d554c5449504c49434154494f4e5f4f56455246\n        /* \"#utility.yul\":18444:18445   */\n      0x00\n        /* \"#utility.yul\":18436:18442   */\n      dup3\n        /* \"#utility.yul\":18432:18446   */\n      add\n        /* \"#utility.yul\":18425:18483   */\n      mstore\n        /* \"#utility.yul\":18517:18522   */\n      0x4c4f570000000000000000000000000000000000000000000000000000000000\n        /* \"#utility.yul\":18512:18514   */\n      0x20\n        /* \"#utility.yul\":18504:18510   */\n      dup3\n        /* \"#utility.yul\":18500:18515   */\n      add\n        /* \"#utility.yul\":18493:18523   */\n      mstore\n        /* \"#utility.yul\":18308:18530   */\n      pop\n      jump\t// out\n        /* \"#utility.yul\":18536:18902   */\n    tag_326:\n        /* \"#utility.yul\":18678:18681   */\n      0x00\n        /* \"#utility.yul\":18699:18766   */\n      tag_530\n        /* \"#utility.yul\":18763:18765   */\n      0x23\n        /* \"#utility.yul\":18758:18761   */\n      dup4\n        /* \"#utility.yul\":18699:18766   */\n      tag_291\n      jump\t// in\n    tag_530:\n        /* \"#utility.yul\":18692:18766   */\n      swap2\n      pop\n        /* \"#utility.yul\":18775:18868   */\n      tag_531\n        /* \"#utility.yul\":18864:18867   */\n      dup3\n        /* \"#utility.yul\":18775:18868   */\n      tag_325\n      jump\t// in\n    tag_531:\n        /* \"#utility.yul\":18893:18895   */\n      0x40\n        /* \"#utility.yul\":18888:18891   */\n      dup3\n        /* \"#utility.yul\":18884:18896   */\n      add\n        /* \"#utility.yul\":18877:18896   */\n      swap1\n      pop\n        /* \"#utility.yul\":18536:18902   */\n      swap2\n      swap1\n      pop\n      jump\t// out\n        /* \"#utility.yul\":18908:19327   */\n    tag_237:\n        /* \"#utility.yul\":19074:19078   */\n      0x00\n        /* \"#utility.yul\":19112:19114   */\n      0x20\n        /* \"#utility.yul\":19101:19110   */\n      dup3\n        /* \"#utility.yul\":19097:19115   */\n      add\n        /* \"#utility.yul\":19089:19115   */\n      swap1\n      pop\n        /* \"#utility.yul\":19161:19170   */\n      dup2\n        /* \"#utility.yul\":19155:19159   */\n      dup2\n        /* \"#utility.yul\":19151:19171   */\n      sub\n        /* \"#utility.yul\":19147:19148   */\n      0x00\n        /* \"#utility.yul\":19136:19145   */\n      dup4\n        /* \"#utility.yul\":19132:19149   */\n      add\n        /* \"#utility.yul\":19125:19172   */\n      mstore\n        /* \"#utility.yul\":19189:19320   */\n      tag_533\n        /* \"#utility.yul\":19315:19319   */\n      dup2\n        /* \"#utility.yul\":19189:19320   */\n      tag_326\n      jump\t// in\n    tag_533:\n        /* \"#utility.yul\":19181:19320   */\n      swap1\n      pop\n        /* \"#utility.yul\":18908:19327   */\n      swap2\n      swap1\n      pop\n      jump\t// out\n        /* \"#utility.yul\":19333:19476   */\n    tag_327:\n        /* \"#utility.yul\":19390:19395   */\n      0x00\n        /* \"#utility.yul\":19421:19427   */\n      dup2\n        /* \"#utility.yul\":19415:19428   */\n      mload\n        /* \"#utility.yul\":19406:19428   */\n      swap1\n      pop\n        /* \"#utility.yul\":19437:19470   */\n      tag_535\n        /* \"#utility.yul\":19464:19469   */\n      dup2\n        /* \"#utility.yul\":19437:19470   */\n      tag_279\n      jump\t// in\n    tag_535:\n        /* \"#utility.yul\":19333:19476   */\n      swap3\n      swap2\n      pop\n      pop\n      jump\t// out\n        /* \"#utility.yul\":19482:19833   */\n    tag_245:\n        /* \"#utility.yul\":19552:19558   */\n      0x00\n        /* \"#utility.yul\":19601:19603   */\n      0x20\n        /* \"#utility.yul\":19589:19598   */\n      dup3\n        /* \"#utility.yul\":19580:19587   */\n      dup5\n        /* \"#utility.yul\":19576:19599   */\n      sub\n        /* \"#utility.yul\":19572:19604   */\n      slt\n        /* \"#utility.yul\":19569:19688   */\n      iszero\n      tag_537\n      jumpi\n        /* \"#utility.yul\":19607:19686   */\n      tag_538\n      tag_276\n      jump\t// in\n    tag_538:\n        /* \"#utility.yul\":19569:19688   */\n    tag_537:\n        /* \"#utility.yul\":19727:19728   */\n      0x00\n        /* \"#utility.yul\":19752:19816   */\n      tag_539\n        /* \"#utility.yul\":19808:19815   */\n      dup5\n        /* \"#utility.yul\":19799:19805   */\n      dup3\n        /* \"#utility.yul\":19788:19797   */\n      dup6\n        /* \"#utility.yul\":19784:19806   */\n      add\n        /* \"#utility.yul\":19752:19816   */\n      tag_327\n      jump\t// in\n    tag_539:\n        /* \"#utility.yul\":19742:19816   */\n      swap2\n      pop\n        /* \"#utility.yul\":19698:19826   */\n      pop\n        /* \"#utility.yul\":19482:19833   */\n      swap3\n      swap2\n      pop\n      pop\n      jump\t// out\n        /* \"#utility.yul\":19839:19953   */\n    tag_328:\n        /* \"#utility.yul\":19876:19883   */\n      0x00\n        /* \"#utility.yul\":19916:19946   */\n      0xffffffffffffffffffffffffffff\n        /* \"#utility.yul\":19909:19914   */\n      dup3\n        /* \"#utility.yul\":19905:19947   */\n      and\n        /* \"#utility.yul\":19894:19947   */\n      swap1\n      pop\n        /* \"#utility.yul\":19839:19953   */\n      swap2\n      swap1\n      pop\n      jump\t// out\n        /* \"#utility.yul\":19959:20081   */\n    tag_329:\n        /* \"#utility.yul\":20032:20056   */\n      tag_542\n        /* \"#utility.yul\":20050:20055   */\n      dup2\n        /* \"#utility.yul\":20032:20056   */\n      tag_328\n      jump\t// in\n    tag_542:\n        /* \"#utility.yul\":20025:20030   */\n      dup2\n        /* \"#utility.yul\":20022:20057   */\n      eq\n        /* \"#utility.yul\":20012:20075   */\n      tag_543\n      jumpi\n        /* \"#utility.yul\":20071:20072   */\n      0x00\n        /* \"#utility.yul\":20068:20069   */\n      dup1\n        /* \"#utility.yul\":20061:20073   */\n      revert\n        /* \"#utility.yul\":20012:20075   */\n    tag_543:\n        /* \"#utility.yul\":19959:20081   */\n      pop\n      jump\t// out\n        /* \"#utility.yul\":20087:20230   */\n    tag_330:\n        /* \"#utility.yul\":20144:20149   */\n      0x00\n        /* \"#utility.yul\":20175:20181   */\n      dup2\n        /* \"#utility.yul\":20169:20182   */\n      mload\n        /* \"#utility.yul\":20160:20182   */\n      swap1\n      pop\n        /* \"#utility.yul\":20191:20224   */\n      tag_545\n        /* \"#utility.yul\":20218:20223   */\n      dup2\n        /* \"#utility.yul\":20191:20224   */\n      tag_329\n      jump\t// in\n    tag_545:\n        /* \"#utility.yul\":20087:20230   */\n      swap3\n      swap2\n      pop\n      pop\n      jump\t// out\n        /* \"#utility.yul\":20236:20356   */\n    tag_331:\n        /* \"#utility.yul\":20308:20331   */\n      tag_547\n        /* \"#utility.yul\":20325:20330   */\n      dup2\n        /* \"#utility.yul\":20308:20331   */\n      tag_306\n      jump\t// in\n    tag_547:\n        /* \"#utility.yul\":20301:20306   */\n      dup2\n        /* \"#utility.yul\":20298:20332   */\n      eq\n        /* \"#utility.yul\":20288:20350   */\n      tag_548\n      jumpi\n        /* \"#utility.yul\":20346:20347   */\n      0x00\n        /* \"#utility.yul\":20343:20344   */\n      dup1\n        /* \"#utility.yul\":20336:20348   */\n      revert\n        /* \"#utility.yul\":20288:20350   */\n    tag_548:\n        /* \"#utility.yul\":20236:20356   */\n      pop\n      jump\t// out\n        /* \"#utility.yul\":20362:20503   */\n    tag_332:\n        /* \"#utility.yul\":20418:20423   */\n      0x00\n        /* \"#utility.yul\":20449:20455   */\n      dup2\n        /* \"#utility.yul\":20443:20456   */\n      mload\n        /* \"#utility.yul\":20434:20456   */\n      swap1\n      pop\n        /* \"#utility.yul\":20465:20497   */\n      tag_550\n        /* \"#utility.yul\":20491:20496   */\n      dup2\n        /* \"#utility.yul\":20465:20497   */\n      tag_331\n      jump\t// in\n    tag_550:\n        /* \"#utility.yul\":20362:20503   */\n      swap3\n      swap2\n      pop\n      pop\n      jump\t// out\n        /* \"#utility.yul\":20509:21170   */\n    tag_254:\n        /* \"#utility.yul\":20596:20602   */\n      0x00\n        /* \"#utility.yul\":20604:20610   */\n      dup1\n        /* \"#utility.yul\":20612:20618   */\n      0x00\n        /* \"#utility.yul\":20661:20663   */\n      0x60\n        /* \"#utility.yul\":20649:20658   */\n      dup5\n        /* \"#utility.yul\":20640:20647   */\n      dup7\n        /* \"#utility.yul\":20636:20659   */\n      sub\n        /* \"#utility.yul\":20632:20664   */\n      slt\n        /* \"#utility.yul\":20629:20748   */\n      iszero\n      tag_552\n      jumpi\n        /* \"#utility.yul\":20667:20746   */\n      tag_553\n      tag_276\n      jump\t// in\n    tag_553:\n        /* \"#utility.yul\":20629:20748   */\n    tag_552:\n        /* \"#utility.yul\":20787:20788   */\n      0x00\n        /* \"#utility.yul\":20812:20876   */\n      tag_554\n        /* \"#utility.yul\":20868:20875   */\n      dup7\n        /* \"#utility.yul\":20859:20865   */\n      dup3\n        /* \"#utility.yul\":20848:20857   */\n      dup8\n        /* \"#utility.yul\":20844:20866   */\n      add\n        /* \"#utility.yul\":20812:20876   */\n      tag_330\n      jump\t// in\n    tag_554:\n        /* \"#utility.yul\":20802:20876   */\n      swap4\n      pop\n        /* \"#utility.yul\":20758:20886   */\n      pop\n        /* \"#utility.yul\":20925:20927   */\n      0x20\n        /* \"#utility.yul\":20951:21015   */\n      tag_555\n        /* \"#utility.yul\":21007:21014   */\n      dup7\n        /* \"#utility.yul\":20998:21004   */\n      dup3\n        /* \"#utility.yul\":20987:20996   */\n      dup8\n        /* \"#utility.yul\":20983:21005   */\n      add\n        /* \"#utility.yul\":20951:21015   */\n      tag_330\n      jump\t// in\n    tag_555:\n        /* \"#utility.yul\":20941:21015   */\n      swap3\n      pop\n        /* \"#utility.yul\":20896:21025   */\n      pop\n        /* \"#utility.yul\":21064:21066   */\n      0x40\n        /* \"#utility.yul\":21090:21153   */\n      tag_556\n        /* \"#utility.yul\":21145:21152   */\n      dup7\n        /* \"#utility.yul\":21136:21142   */\n      dup3\n        /* \"#utility.yul\":21125:21134   */\n      dup8\n        /* \"#utility.yul\":21121:21143   */\n      add\n        /* \"#utility.yul\":21090:21153   */\n      tag_332\n      jump\t// in\n    tag_556:\n        /* \"#utility.yul\":21080:21153   */\n      swap2\n      pop\n        /* \"#utility.yul\":21035:21163   */\n      pop\n        /* \"#utility.yul\":20509:21170   */\n      swap3\n      pop\n      swap3\n      pop\n      swap3\n      jump\t// out\n        /* \"#utility.yul\":21176:21349   */\n    tag_333:\n        /* \"#utility.yul\":21316:21341   */\n      0x4669786564506f696e743a204449565f42595f5a45524f000000000000000000\n        /* \"#utility.yul\":21312:21313   */\n      0x00\n        /* \"#utility.yul\":21304:21310   */\n      dup3\n        /* \"#utility.yul\":21300:21314   */\n      add\n        /* \"#utility.yul\":21293:21342   */\n      mstore\n        /* \"#utility.yul\":21176:21349   */\n      pop\n      jump\t// out\n        /* \"#utility.yul\":21355:21721   */\n    tag_334:\n        /* \"#utility.yul\":21497:21500   */\n      0x00\n        /* \"#utility.yul\":21518:21585   */\n      tag_559\n        /* \"#utility.yul\":21582:21584   */\n      0x17\n        /* \"#utility.yul\":21577:21580   */\n      dup4\n        /* \"#utility.yul\":21518:21585   */\n      tag_291\n      jump\t// in\n    tag_559:\n        /* \"#utility.yul\":21511:21585   */\n      swap2\n      pop\n        /* \"#utility.yul\":21594:21687   */\n      tag_560\n        /* \"#utility.yul\":21683:21686   */\n      dup3\n        /* \"#utility.yul\":21594:21687   */\n      tag_333\n      jump\t// in\n    tag_560:\n        /* \"#utility.yul\":21712:21714   */\n      0x20\n        /* \"#utility.yul\":21707:21710   */\n      dup3\n        /* \"#utility.yul\":21703:21715   */\n      add\n        /* \"#utility.yul\":21696:21715   */\n      swap1\n      pop\n        /* \"#utility.yul\":21355:21721   */\n      swap2\n      swap1\n      pop\n      jump\t// out\n        /* \"#utility.yul\":21727:22146   */\n    tag_269:\n        /* \"#utility.yul\":21893:21897   */\n      0x00\n        /* \"#utility.yul\":21931:21933   */\n      0x20\n        /* \"#utility.yul\":21920:21929   */\n      dup3\n        /* \"#utility.yul\":21916:21934   */\n      add\n        /* \"#utility.yul\":21908:21934   */\n      swap1\n      pop\n        /* \"#utility.yul\":21980:21989   */\n      dup2\n        /* \"#utility.yul\":21974:21978   */\n      dup2\n        /* \"#utility.yul\":21970:21990   */\n      sub\n        /* \"#utility.yul\":21966:21967   */\n      0x00\n        /* \"#utility.yul\":21955:21964   */\n      dup4\n        /* \"#utility.yul\":21951:21968   */\n      add\n        /* \"#utility.yul\":21944:21991   */\n      mstore\n        /* \"#utility.yul\":22008:22139   */\n      tag_562\n        /* \"#utility.yul\":22134:22138   */\n      dup2\n        /* \"#utility.yul\":22008:22139   */\n      tag_334\n      jump\t// in\n    tag_562:\n        /* \"#utility.yul\":22000:22139   */\n      swap1\n      pop\n        /* \"#utility.yul\":21727:22146   */\n      swap2\n      swap1\n      pop\n      jump\t// out\n        /* \"#utility.yul\":22152:22337   */\n    tag_271:\n        /* \"#utility.yul\":22192:22193   */\n      0x00\n        /* \"#utility.yul\":22209:22229   */\n      tag_564\n        /* \"#utility.yul\":22227:22228   */\n      dup3\n        /* \"#utility.yul\":22209:22229   */\n      tag_288\n      jump\t// in\n    tag_564:\n        /* \"#utility.yul\":22204:22229   */\n      swap2\n      pop\n        /* \"#utility.yul\":22243:22263   */\n      tag_565\n        /* \"#utility.yul\":22261:22262   */\n      dup4\n        /* \"#utility.yul\":22243:22263   */\n      tag_288\n      jump\t// in\n    tag_565:\n        /* \"#utility.yul\":22238:22263   */\n      swap3\n      pop\n        /* \"#utility.yul\":22282:22283   */\n      dup3\n        /* \"#utility.yul\":22272:22307   */\n      tag_566\n      jumpi\n        /* \"#utility.yul\":22287:22305   */\n      tag_567\n      tag_324\n      jump\t// in\n    tag_567:\n        /* \"#utility.yul\":22272:22307   */\n    tag_566:\n        /* \"#utility.yul\":22329:22330   */\n      dup3\n        /* \"#utility.yul\":22326:22327   */\n      dup3\n        /* \"#utility.yul\":22322:22331   */\n      div\n        /* \"#utility.yul\":22317:22331   */\n      swap1\n      pop\n        /* \"#utility.yul\":22152:22337   */\n      swap3\n      swap2\n      pop\n      pop\n      jump\t// out\n\n    auxdata: 0xa26469706673582212207ddcea6eacd5fbde2f933ddfd2865816e53f244ddcd030b187a1910e7850f59664736f6c63430008090033\n}\n",
				"bytecode": {
					"linkReferences": {},
					"object": "60e0604052610e1060035560786004556001600560006101000a81548160ff021916908315150217905550670de0b6b3a7640000600c556012600d60006101000a81548160ff021916908360ff1602179055506001600f553480156200006457600080fd5b50604051620033193803806200331983398181016040528101906200008a9190620008af565b83600073ffffffffffffffffffffffffffffffffffffffff168173ffffffffffffffffffffffffffffffffffffffff161415620000fe576040517f08c379a0000000000000000000000000000000000000000000000000000000008152600401620000f590620009b7565b60405180910390fd5b806000806101000a81548173ffffffffffffffffffffffffffffffffffffffff021916908373ffffffffffffffffffffffffffffffffffffffff1602179055507fb532073b38c83145e3e5135377a08bf9aab55bc0fd7c1179cd4fb995d2a5159c60008260405162000172929190620009ea565b60405180910390a15060008590508073ffffffffffffffffffffffffffffffffffffffff1660808173ffffffffffffffffffffffffffffffffffffffff16815250508073ffffffffffffffffffffffffffffffffffffffff16630dfe16816040518163ffffffff1660e01b815260040160206040518083038186803b158015620001fb57600080fd5b505afa15801562000210573d6000803e3d6000fd5b505050506040513d601f19601f8201168201806040525081019062000236919062000a17565b73ffffffffffffffffffffffffffffffffffffffff1660a08173ffffffffffffffffffffffffffffffffffffffff16815250508073ffffffffffffffffffffffffffffffffffffffff1663d21220a76040518163ffffffff1660e01b815260040160206040518083038186803b158015620002b057600080fd5b505afa158015620002c5573d6000803e3d6000fd5b505050506040513d601f19601f82011682018060405250810190620002eb919062000a17565b73ffffffffffffffffffffffffffffffffffffffff1660c08173ffffffffffffffffffffffffffffffffffffffff16815250508073ffffffffffffffffffffffffffffffffffffffff16635909c0d56040518163ffffffff1660e01b815260040160206040518083038186803b1580156200036557600080fd5b505afa1580156200037a573d6000803e3d6000fd5b505050506040513d601f19601f82011682018060405250810190620003a0919062000a84565b6006819055508073ffffffffffffffffffffffffffffffffffffffff16635a3d54936040518163ffffffff1660e01b815260040160206040518083038186803b158015620003ed57600080fd5b505afa15801562000402573d6000803e3d6000fd5b505050506040513d601f19601f8201168201806040525081019062000428919062000a84565b6007819055506000808273ffffffffffffffffffffffffffffffffffffffff16630902f1ac6040518163ffffffff1660e01b815260040160606040518083038186803b1580156200047857600080fd5b505afa1580156200048d573d6000803e3d6000fd5b505050506040513d601f19601f82011682018060405250810190620004b3919062000b42565b600860008291906101000a81548163ffffffff021916908363ffffffff1602179055508193508294505050506000826dffffffffffffffffffffffffffff16141580156200051257506000816dffffffffffffffffffffffffffff1614155b62000554576040517f08c379a00000000000000000000000000000000000000000000000000000000081526004016200054b9062000bee565b60405180910390fd5b85600260006101000a81548173ffffffffffffffffffffffffffffffffffffffff021916908373ffffffffffffffffffffffffffffffffffffffff16021790555084600e9080519060200190620005ad929190620005fd565b5083600b60006101000a81548173ffffffffffffffffffffffffffffffffffffffff021916908373ffffffffffffffffffffffffffffffffffffffff160217905550505050505050505062000c75565b8280546200060b9062000c3f565b90600052602060002090601f0160209004810192826200062f57600085556200067b565b82601f106200064a57805160ff19168380011785556200067b565b828001600101855582156200067b579182015b828111156200067a5782518255916020019190600101906200065d565b5b5090506200068a91906200068e565b5090565b5b80821115620006a95760008160009055506001016200068f565b5090565b6000604051905090565b600080fd5b600080fd5b600073ffffffffffffffffffffffffffffffffffffffff82169050919050565b6000620006ee82620006c1565b9050919050565b6200070081620006e1565b81146200070c57600080fd5b50565b6000815190506200072081620006f5565b92915050565b600080fd5b600080fd5b6000601f19601f8301169050919050565b7f4e487b7100000000000000000000000000000000000000000000000000000000600052604160045260246000fd5b6200077b8262000730565b810181811067ffffffffffffffff821117156200079d576200079c62000741565b5b80604052505050565b6000620007b2620006ad565b9050620007c0828262000770565b919050565b600067ffffffffffffffff821115620007e357620007e262000741565b5b620007ee8262000730565b9050602081019050919050565b60005b838110156200081b578082015181840152602081019050620007fe565b838111156200082b576000848401525b50505050565b6000620008486200084284620007c5565b620007a6565b9050828152602081018484840111156200086757620008666200072b565b5b62000874848285620007fb565b509392505050565b600082601f83011262000894576200089362000726565b5b8151620008a684826020860162000831565b91505092915050565b600080600080600060a08688031215620008ce57620008cd620006b7565b5b6000620008de888289016200070f565b9550506020620008f1888289016200070f565b945050604062000904888289016200070f565b935050606086015167ffffffffffffffff811115620009285762000927620006bc565b5b62000936888289016200087c565b925050608062000949888289016200070f565b9150509295509295909350565b600082825260208201905092915050565b7f4f776e657220616464726573732063616e6e6f74206265203000000000000000600082015250565b60006200099f60198362000956565b9150620009ac8262000967565b602082019050919050565b60006020820190508181036000830152620009d28162000990565b9050919050565b620009e481620006e1565b82525050565b600060408201905062000a016000830185620009d9565b62000a106020830184620009d9565b9392505050565b60006020828403121562000a305762000a2f620006b7565b5b600062000a40848285016200070f565b91505092915050565b6000819050919050565b62000a5e8162000a49565b811462000a6a57600080fd5b50565b60008151905062000a7e8162000a53565b92915050565b60006020828403121562000a9d5762000a9c620006b7565b5b600062000aad8482850162000a6d565b91505092915050565b60006dffffffffffffffffffffffffffff82169050919050565b62000adb8162000ab6565b811462000ae757600080fd5b50565b60008151905062000afb8162000ad0565b92915050565b600063ffffffff82169050919050565b62000b1c8162000b01565b811462000b2857600080fd5b50565b60008151905062000b3c8162000b11565b92915050565b60008060006060848603121562000b5e5762000b5d620006b7565b5b600062000b6e8682870162000aea565b935050602062000b818682870162000aea565b925050604062000b948682870162000b2b565b9150509250925092565b7f556e6973776170506169724f7261636c653a204e4f5f52455345525645530000600082015250565b600062000bd6601e8362000956565b915062000be38262000b9e565b602082019050919050565b6000602082019050818103600083015262000c098162000bc7565b9050919050565b7f4e487b7100000000000000000000000000000000000000000000000000000000600052602260045260246000fd5b6000600282049050600182168062000c5857607f821691505b6020821081141562000c6f5762000c6e62000c10565b5b50919050565b60805160a05160c05161265f62000cba6000396000818161091801526113640152600081816105340152610814015260008181610faa01526111fa015261265f6000f3fe608060405234801561001057600080fd5b50600436106101cf5760003560e01c806374b04ab411610104578063a6bb4539116100a2578063c5700a0211610071578063c5700a02146104b8578063d21220a7146104d6578063f1551aea146104f4578063feaf968c14610510576101cf565b8063a6bb453914610442578063a8aa1b3114610460578063b4d1d7951461047e578063bdacb3031461049c576101cf565b806395082d25116100de57806395082d25146103c85780639a6fc8f5146103e6578063a17a26851461041a578063a2e6204514610438576101cf565b806374b04ab41461038457806379ba5097146103a05780638da5cb5b146103aa576101cf565b806353a47bb7116101715780635a3d54931161014b5780635a3d54931461030e5780635cb9a7141461032c5780635e6aaf2c146103485780637284e41614610366576101cf565b806353a47bb7146102b457806354fd4d50146102d25780635909c0d5146102f0576101cf565b80631ac2c825116101ad5780631ac2c8251461022a578063313ce567146102485780633ddac953146102665780633fcb55ca14610296576101cf565b80630dfe1681146101d45780630f3a9f65146101f25780631627540c1461020e575b600080fd5b6101dc610532565b6040516101e99190611994565b60405180910390f35b61020c600480360381019061020791906119ea565b610556565b005b61022860048036038101906102239190611a43565b610646565b005b61023261074f565b60405161023f9190611a8b565b60405180910390f35b610250610762565b60405161025d9190611ac2565b60405180910390f35b610280600480360381019061027b9190611add565b610775565b60405161028d9190611b2c565b60405180910390f35b61029e610a58565b6040516102ab9190611b2c565b60405180910390f35b6102bc610a5e565b6040516102c99190611994565b60405180910390f35b6102da610a84565b6040516102e79190611b2c565b60405180910390f35b6102f8610a8a565b6040516103059190611b2c565b60405180910390f35b610316610a90565b6040516103239190611b2c565b60405180910390f35b610346600480360381019061034191906119ea565b610a96565b005b610350610b86565b60405161035d9190611b7e565b60405180910390f35b61036e610bba565b60405161037b9190611c32565b60405180910390f35b61039e60048036038101906103999190611a43565b610c48565b005b6103a8610d72565b005b6103b2610f23565b6040516103bf9190611994565b60405180910390f35b6103d0610f47565b6040516103dd9190611b2c565b60405180910390f35b61040060048036038101906103fb9190611c96565b610f4d565b604051610411959493929190611ceb565b60405180910390f35b610422610f5e565b60405161042f9190611a8b565b60405180910390f35b610440610fa0565b005b61044a6111c4565b6040516104579190611b7e565b60405180910390f35b6104686111f8565b6040516104759190611d9d565b60405180910390f35b61048661121c565b6040516104939190611b2c565b60405180910390f35b6104b660048036038101906104b19190611a43565b611222565b005b6104c061134c565b6040516104cd9190611dd7565b60405180910390f35b6104de611362565b6040516104eb9190611994565b60405180910390f35b61050e60048036038101906105099190611e1e565b611386565b005b610518611489565b604051610529959493929190611ceb565b60405180910390f35b7f000000000000000000000000000000000000000000000000000000000000000081565b60008054906101000a900473ffffffffffffffffffffffffffffffffffffffff1673ffffffffffffffffffffffffffffffffffffffff163373ffffffffffffffffffffffffffffffffffffffff1614806105fd5750600260009054906101000a900473ffffffffffffffffffffffffffffffffffffffff1673ffffffffffffffffffffffffffffffffffffffff163373ffffffffffffffffffffffffffffffffffffffff16145b61063c576040517f08c379a000000000000000000000000000000000000000000000000000000000815260040161063390611ebd565b60405180910390fd5b8060038190555050565b60008054906101000a900473ffffffffffffffffffffffffffffffffffffffff1673ffffffffffffffffffffffffffffffffffffffff163373ffffffffffffffffffffffffffffffffffffffff16146106d4576040517f08c379a00000000000000000000000000000000000000000000000000000000081526004016106cb90611f4f565b60405180910390fd5b80600160006101000a81548173ffffffffffffffffffffffffffffffffffffffff021916908373ffffffffffffffffffffffffffffffffffffffff1602179055507f906a1c6bd7e3091ea86693dd029a831c19049ce77f1dce2ce0bab1cacbabce22816040516107449190611994565b60405180910390a150565b600560009054906101000a900460ff1681565b600d60009054906101000a900460ff1681565b6000806107806114dc565b90506000600860009054906101000a900463ffffffff16826107a29190611f9e565b90506004546003546107b49190611fd2565b8163ffffffff1610806107d35750600560009054906101000a900460ff165b610812576040517f08c379a00000000000000000000000000000000000000000000000000000000081526004016108099061209a565b60405180910390fd5b7f000000000000000000000000000000000000000000000000000000000000000073ffffffffffffffffffffffffffffffffffffffff168573ffffffffffffffffffffffffffffffffffffffff161415610916576108fb6108f68560096040518060200160405290816000820160009054906101000a90047bffffffffffffffffffffffffffffffffffffffffffffffffffffffff167bffffffffffffffffffffffffffffffffffffffffffffffffffffffff167bffffffffffffffffffffffffffffffffffffffffffffffffffffffff16815250506114f490919063ffffffff16565b6115bf565b71ffffffffffffffffffffffffffffffffffff169250610a50565b7f000000000000000000000000000000000000000000000000000000000000000073ffffffffffffffffffffffffffffffffffffffff168573ffffffffffffffffffffffffffffffffffffffff16146109a4576040517f08c379a000000000000000000000000000000000000000000000000000000000815260040161099b90612106565b60405180910390fd5b610a39610a3485600a6040518060200160405290816000820160009054906101000a90047bffffffffffffffffffffffffffffffffffffffffffffffffffffffff167bffffffffffffffffffffffffffffffffffffffffffffffffffffffff167bffffffffffffffffffffffffffffffffffffffffffffffffffffffff16815250506114f490919063ffffffff16565b6115bf565b71ffffffffffffffffffffffffffffffffffff1692505b505092915050565b60045481565b600160009054906101000a900473ffffffffffffffffffffffffffffffffffffffff1681565b600f5481565b60065481565b60075481565b60008054906101000a900473ffffffffffffffffffffffffffffffffffffffff1673ffffffffffffffffffffffffffffffffffffffff163373ffffffffffffffffffffffffffffffffffffffff161480610b3d5750600260009054906101000a900473ffffffffffffffffffffffffffffffffffffffff1673ffffffffffffffffffffffffffffffffffffffff163373ffffffffffffffffffffffffffffffffffffffff16145b610b7c576040517f08c379a0000000000000000000000000000000000000000000000000000000008152600401610b7390611ebd565b60405180910390fd5b8060048190555050565b600a8060000160009054906101000a90047bffffffffffffffffffffffffffffffffffffffffffffffffffffffff16905081565b600e8054610bc790612155565b80601f0160208091040260200160405190810160405280929190818152602001828054610bf390612155565b8015610c405780601f10610c1557610100808354040283529160200191610c40565b820191906000526020600020905b815481529060010190602001808311610c2357829003601f168201915b505050505081565b60008054906101000a900473ffffffffffffffffffffffffffffffffffffffff1673ffffffffffffffffffffffffffffffffffffffff163373ffffffffffffffffffffffffffffffffffffffff161480610cef5750600260009054906101000a900473ffffffffffffffffffffffffffffffffffffffff1673ffffffffffffffffffffffffffffffffffffffff163373ffffffffffffffffffffffffffffffffffffffff16145b610d2e576040517f08c379a0000000000000000000000000000000000000000000000000000000008152600401610d2590611ebd565b60405180910390fd5b80600b60006101000a81548173ffffffffffffffffffffffffffffffffffffffff021916908373ffffffffffffffffffffffffffffffffffffffff16021790555050565b600160009054906101000a900473ffffffffffffffffffffffffffffffffffffffff1673ffffffffffffffffffffffffffffffffffffffff163373ffffffffffffffffffffffffffffffffffffffff1614610e02576040517f08c379a0000000000000000000000000000000000000000000000000000000008152600401610df9906121f9565b60405180910390fd5b7fb532073b38c83145e3e5135377a08bf9aab55bc0fd7c1179cd4fb995d2a5159c60008054906101000a900473ffffffffffffffffffffffffffffffffffffffff16600160009054906101000a900473ffffffffffffffffffffffffffffffffffffffff16604051610e75929190612219565b60405180910390a1600160009054906101000a900473ffffffffffffffffffffffffffffffffffffffff166000806101000a81548173ffffffffffffffffffffffffffffffffffffffff021916908373ffffffffffffffffffffffffffffffffffffffff1602179055506000600160006101000a81548173ffffffffffffffffffffffffffffffffffffffff021916908373ffffffffffffffffffffffffffffffffffffffff160217905550565b60008054906101000a900473ffffffffffffffffffffffffffffffffffffffff1681565b600c5481565b600080600080600091939590929450565b600080610f696114dc565b90506000600860009054906101000a900463ffffffff1682610f8b9190611f9e565b90506003548163ffffffff1610159250505090565b6000806000610fce7f00000000000000000000000000000000000000000000000000000000000000006115d4565b9250925092506000600860009054906101000a900463ffffffff1682610ff49190611f9e565b90506003548163ffffffff161015611041576040517f08c379a0000000000000000000000000000000000000000000000000000000008152600401611038906122b4565b60405180910390fd5b60405180602001604052808263ffffffff166006548761106191906122d4565b61106b9190612337565b7bffffffffffffffffffffffffffffffffffffffffffffffffffffffff16815250600960008201518160000160006101000a8154817bffffffffffffffffffffffffffffffffffffffffffffffffffffffff02191690837bffffffffffffffffffffffffffffffffffffffffffffffffffffffff16021790555090505060405180602001604052808263ffffffff166007548661110891906122d4565b6111129190612337565b7bffffffffffffffffffffffffffffffffffffffffffffffffffffffff16815250600a60008201518160000160006101000a8154817bffffffffffffffffffffffffffffffffffffffffffffffffffffffff02191690837bffffffffffffffffffffffffffffffffffffffffffffffffffffffff160217905550905050836006819055508260078190555081600860006101000a81548163ffffffff021916908363ffffffff16021790555050505050565b60098060000160009054906101000a90047bffffffffffffffffffffffffffffffffffffffffffffffffffffffff16905081565b7f000000000000000000000000000000000000000000000000000000000000000081565b60035481565b60008054906101000a900473ffffffffffffffffffffffffffffffffffffffff1673ffffffffffffffffffffffffffffffffffffffff163373ffffffffffffffffffffffffffffffffffffffff1614806112c95750600260009054906101000a900473ffffffffffffffffffffffffffffffffffffffff1673ffffffffffffffffffffffffffffffffffffffff163373ffffffffffffffffffffffffffffffffffffffff16145b611308576040517f08c379a00000000000000000000000000000000000000000000000000000000081526004016112ff90611ebd565b60405180910390fd5b80600260006101000a81548173ffffffffffffffffffffffffffffffffffffffff021916908373ffffffffffffffffffffffffffffffffffffffff16021790555050565b600860009054906101000a900463ffffffff1681565b7f000000000000000000000000000000000000000000000000000000000000000081565b60008054906101000a900473ffffffffffffffffffffffffffffffffffffffff1673ffffffffffffffffffffffffffffffffffffffff163373ffffffffffffffffffffffffffffffffffffffff16148061142d5750600260009054906101000a900473ffffffffffffffffffffffffffffffffffffffff1673ffffffffffffffffffffffffffffffffffffffff163373ffffffffffffffffffffffffffffffffffffffff16145b61146c576040517f08c379a000000000000000000000000000000000000000000000000000000000815260040161146390611ebd565b60405180910390fd5b80600560006101000a81548160ff02191690831515021790555050565b6000806000806000806114c0600b60009054906101000a900473ffffffffffffffffffffffffffffffffffffffff16600c54610775565b9050600081600080600095509550955095509550509091929394565b6000640100000000426114ef9190612368565b905090565b6114fc61190f565b600080831480611568575083600001517bffffffffffffffffffffffffffffffffffffffffffffffffffffffff16838486600001517bffffffffffffffffffffffffffffffffffffffffffffffffffffffff166115599190612399565b9250826115669190612337565b145b6115a7576040517f08c379a000000000000000000000000000000000000000000000000000000000815260040161159e90612465565b60405180910390fd5b60405180602001604052808281525091505092915050565b6000607060ff168260000151901c9050919050565b60008060006115e16114dc565b90508373ffffffffffffffffffffffffffffffffffffffff16635909c0d56040518163ffffffff1660e01b815260040160206040518083038186803b15801561162957600080fd5b505afa15801561163d573d6000803e3d6000fd5b505050506040513d601f19601f82011682018060405250810190611661919061249a565b92508373ffffffffffffffffffffffffffffffffffffffff16635a3d54936040518163ffffffff1660e01b815260040160206040518083038186803b1580156116a957600080fd5b505afa1580156116bd573d6000803e3d6000fd5b505050506040513d601f19601f820116820180604052508101906116e1919061249a565b915060008060008673ffffffffffffffffffffffffffffffffffffffff16630902f1ac6040518163ffffffff1660e01b815260040160606040518083038186803b15801561172e57600080fd5b505afa158015611742573d6000803e3d6000fd5b505050506040513d601f19601f820116820180604052508101906117669190612539565b9250925092508363ffffffff168163ffffffff1614611825576000818561178d9190611f9e565b90508063ffffffff166117a0848661182f565b600001517bffffffffffffffffffffffffffffffffffffffffffffffffffffffff166117cc9190612399565b876117d79190611fd2565b96508063ffffffff166117ea858561182f565b600001517bffffffffffffffffffffffffffffffffffffffffffffffffffffffff166118169190612399565b866118219190611fd2565b9550505b5050509193909250565b611837611922565b6000826dffffffffffffffffffffffffffff161161188a576040517f08c379a0000000000000000000000000000000000000000000000000000000008152600401611881906125d8565b60405180910390fd5b6040518060200160405280836dffffffffffffffffffffffffffff16607060ff16866dffffffffffffffffffffffffffff167bffffffffffffffffffffffffffffffffffffffffffffffffffffffff16901b6118e691906125f8565b7bffffffffffffffffffffffffffffffffffffffffffffffffffffffff16815250905092915050565b6040518060200160405280600081525090565b604051806020016040528060007bffffffffffffffffffffffffffffffffffffffffffffffffffffffff1681525090565b600073ffffffffffffffffffffffffffffffffffffffff82169050919050565b600061197e82611953565b9050919050565b61198e81611973565b82525050565b60006020820190506119a96000830184611985565b92915050565b600080fd5b6000819050919050565b6119c7816119b4565b81146119d257600080fd5b50565b6000813590506119e4816119be565b92915050565b600060208284031215611a00576119ff6119af565b5b6000611a0e848285016119d5565b91505092915050565b611a2081611973565b8114611a2b57600080fd5b50565b600081359050611a3d81611a17565b92915050565b600060208284031215611a5957611a586119af565b5b6000611a6784828501611a2e565b91505092915050565b60008115159050919050565b611a8581611a70565b82525050565b6000602082019050611aa06000830184611a7c565b92915050565b600060ff82169050919050565b611abc81611aa6565b82525050565b6000602082019050611ad76000830184611ab3565b92915050565b60008060408385031215611af457611af36119af565b5b6000611b0285828601611a2e565b9250506020611b13858286016119d5565b9150509250929050565b611b26816119b4565b82525050565b6000602082019050611b416000830184611b1d565b92915050565b60007bffffffffffffffffffffffffffffffffffffffffffffffffffffffff82169050919050565b611b7881611b47565b82525050565b6000602082019050611b936000830184611b6f565b92915050565b600081519050919050565b600082825260208201905092915050565b60005b83811015611bd3578082015181840152602081019050611bb8565b83811115611be2576000848401525b50505050565b6000601f19601f8301169050919050565b6000611c0482611b99565b611c0e8185611ba4565b9350611c1e818560208601611bb5565b611c2781611be8565b840191505092915050565b60006020820190508181036000830152611c4c8184611bf9565b905092915050565b600069ffffffffffffffffffff82169050919050565b611c7381611c54565b8114611c7e57600080fd5b50565b600081359050611c9081611c6a565b92915050565b600060208284031215611cac57611cab6119af565b5b6000611cba84828501611c81565b91505092915050565b611ccc81611c54565b82525050565b6000819050919050565b611ce581611cd2565b82525050565b600060a082019050611d006000830188611cc3565b611d0d6020830187611cdc565b611d1a6040830186611b1d565b611d276060830185611b1d565b611d346080830184611cc3565b9695505050505050565b6000819050919050565b6000611d63611d5e611d5984611953565b611d3e565b611953565b9050919050565b6000611d7582611d48565b9050919050565b6000611d8782611d6a565b9050919050565b611d9781611d7c565b82525050565b6000602082019050611db26000830184611d8e565b92915050565b600063ffffffff82169050919050565b611dd181611db8565b82525050565b6000602082019050611dec6000830184611dc8565b92915050565b611dfb81611a70565b8114611e0657600080fd5b50565b600081359050611e1881611df2565b92915050565b600060208284031215611e3457611e336119af565b5b6000611e4284828501611e09565b91505092915050565b7f596f7520617265206e6f7420616e206f776e6572206f722074686520676f766560008201527f726e616e63652074696d656c6f636b0000000000000000000000000000000000602082015250565b6000611ea7602f83611ba4565b9150611eb282611e4b565b604082019050919050565b60006020820190508181036000830152611ed681611e9a565b9050919050565b7f4f6e6c792074686520636f6e7472616374206f776e6572206d6179207065726660008201527f6f726d207468697320616374696f6e0000000000000000000000000000000000602082015250565b6000611f39602f83611ba4565b9150611f4482611edd565b604082019050919050565b60006020820190508181036000830152611f6881611f2c565b9050919050565b7f4e487b7100000000000000000000000000000000000000000000000000000000600052601160045260246000fd5b6000611fa982611db8565b9150611fb483611db8565b925082821015611fc757611fc6611f6f565b5b828203905092915050565b6000611fdd826119b4565b9150611fe8836119b4565b9250827fffffffffffffffffffffffffffffffffffffffffffffffffffffffffffffffff0382111561201d5761201c611f6f565b5b828201905092915050565b7f556e6973776170506169724f7261636c653a2050524943455f49535f5354414c60008201527f455f4e4545445f544f5f43414c4c5f5550444154450000000000000000000000602082015250565b6000612084603583611ba4565b915061208f82612028565b604082019050919050565b600060208201905081810360008301526120b381612077565b9050919050565b7f556e6973776170506169724f7261636c653a20494e56414c49445f544f4b454e600082015250565b60006120f0602083611ba4565b91506120fb826120ba565b602082019050919050565b6000602082019050818103600083015261211f816120e3565b9050919050565b7f4e487b7100000000000000000000000000000000000000000000000000000000600052602260045260246000fd5b6000600282049050600182168061216d57607f821691505b6020821081141561218157612180612126565b5b50919050565b7f596f75206d757374206265206e6f6d696e61746564206265666f726520796f7560008201527f2063616e20616363657074206f776e6572736869700000000000000000000000602082015250565b60006121e3603583611ba4565b91506121ee82612187565b604082019050919050565b60006020820190508181036000830152612212816121d6565b9050919050565b600060408201905061222e6000830185611985565b61223b6020830184611985565b9392505050565b7f556e6973776170506169724f7261636c653a20504552494f445f4e4f545f454c60008201527f4150534544000000000000000000000000000000000000000000000000000000602082015250565b600061229e602583611ba4565b91506122a982612242565b604082019050919050565b600060208201905081810360008301526122cd81612291565b9050919050565b60006122df826119b4565b91506122ea836119b4565b9250828210156122fd576122fc611f6f565b5b828203905092915050565b7f4e487b7100000000000000000000000000000000000000000000000000000000600052601260045260246000fd5b6000612342826119b4565b915061234d836119b4565b92508261235d5761235c612308565b5b828204905092915050565b6000612373826119b4565b915061237e836119b4565b92508261238e5761238d612308565b5b828206905092915050565b60006123a4826119b4565b91506123af836119b4565b9250817fffffffffffffffffffffffffffffffffffffffffffffffffffffffffffffffff04831182151516156123e8576123e7611f6f565b5b828202905092915050565b7f4669786564506f696e743a204d554c5449504c49434154494f4e5f4f5645524660008201527f4c4f570000000000000000000000000000000000000000000000000000000000602082015250565b600061244f602383611ba4565b915061245a826123f3565b604082019050919050565b6000602082019050818103600083015261247e81612442565b9050919050565b600081519050612494816119be565b92915050565b6000602082840312156124b0576124af6119af565b5b60006124be84828501612485565b91505092915050565b60006dffffffffffffffffffffffffffff82169050919050565b6124ea816124c7565b81146124f557600080fd5b50565b600081519050612507816124e1565b92915050565b61251681611db8565b811461252157600080fd5b50565b6000815190506125338161250d565b92915050565b600080600060608486031215612552576125516119af565b5b6000612560868287016124f8565b9350506020612571868287016124f8565b925050604061258286828701612524565b9150509250925092565b7f4669786564506f696e743a204449565f42595f5a45524f000000000000000000600082015250565b60006125c2601783611ba4565b91506125cd8261258c565b602082019050919050565b600060208201905081810360008301526125f1816125b5565b9050919050565b600061260382611b47565b915061260e83611b47565b92508261261e5761261d612308565b5b82820490509291505056fea26469706673582212207ddcea6eacd5fbde2f933ddfd2865816e53f244ddcd030b187a1910e7850f59664736f6c63430008090033",
					"opcodes": "PUSH1 0xE0 PUSH1 0x40 MSTORE PUSH2 0xE10 PUSH1 0x3 SSTORE PUSH1 0x78 PUSH1 0x4 SSTORE PUSH1 0x1 PUSH1 0x5 PUSH1 0x0 PUSH2 0x100 EXP DUP2 SLOAD DUP2 PUSH1 0xFF MUL NOT AND SWAP1 DUP4 ISZERO ISZERO MUL OR SWAP1 SSTORE POP PUSH8 0xDE0B6B3A7640000 PUSH1 0xC SSTORE PUSH1 0x12 PUSH1 0xD PUSH1 0x0 PUSH2 0x100 EXP DUP2 SLOAD DUP2 PUSH1 0xFF MUL NOT AND SWAP1 DUP4 PUSH1 0xFF AND MUL OR SWAP1 SSTORE POP PUSH1 0x1 PUSH1 0xF SSTORE CALLVALUE DUP1 ISZERO PUSH3 0x64 JUMPI PUSH1 0x0 DUP1 REVERT JUMPDEST POP PUSH1 0x40 MLOAD PUSH3 0x3319 CODESIZE SUB DUP1 PUSH3 0x3319 DUP4 CODECOPY DUP2 DUP2 ADD PUSH1 0x40 MSTORE DUP2 ADD SWAP1 PUSH3 0x8A SWAP2 SWAP1 PUSH3 0x8AF JUMP JUMPDEST DUP4 PUSH1 0x0 PUSH20 0xFFFFFFFFFFFFFFFFFFFFFFFFFFFFFFFFFFFFFFFF AND DUP2 PUSH20 0xFFFFFFFFFFFFFFFFFFFFFFFFFFFFFFFFFFFFFFFF AND EQ ISZERO PUSH3 0xFE JUMPI PUSH1 0x40 MLOAD PUSH32 0x8C379A000000000000000000000000000000000000000000000000000000000 DUP2 MSTORE PUSH1 0x4 ADD PUSH3 0xF5 SWAP1 PUSH3 0x9B7 JUMP JUMPDEST PUSH1 0x40 MLOAD DUP1 SWAP2 SUB SWAP1 REVERT JUMPDEST DUP1 PUSH1 0x0 DUP1 PUSH2 0x100 EXP DUP2 SLOAD DUP2 PUSH20 0xFFFFFFFFFFFFFFFFFFFFFFFFFFFFFFFFFFFFFFFF MUL NOT AND SWAP1 DUP4 PUSH20 0xFFFFFFFFFFFFFFFFFFFFFFFFFFFFFFFFFFFFFFFF AND MUL OR SWAP1 SSTORE POP PUSH32 0xB532073B38C83145E3E5135377A08BF9AAB55BC0FD7C1179CD4FB995D2A5159C PUSH1 0x0 DUP3 PUSH1 0x40 MLOAD PUSH3 0x172 SWAP3 SWAP2 SWAP1 PUSH3 0x9EA JUMP JUMPDEST PUSH1 0x40 MLOAD DUP1 SWAP2 SUB SWAP1 LOG1 POP PUSH1 0x0 DUP6 SWAP1 POP DUP1 PUSH20 0xFFFFFFFFFFFFFFFFFFFFFFFFFFFFFFFFFFFFFFFF AND PUSH1 0x80 DUP2 PUSH20 0xFFFFFFFFFFFFFFFFFFFFFFFFFFFFFFFFFFFFFFFF AND DUP2 MSTORE POP POP DUP1 PUSH20 0xFFFFFFFFFFFFFFFFFFFFFFFFFFFFFFFFFFFFFFFF AND PUSH4 0xDFE1681 PUSH1 0x40 MLOAD DUP2 PUSH4 0xFFFFFFFF AND PUSH1 0xE0 SHL DUP2 MSTORE PUSH1 0x4 ADD PUSH1 0x20 PUSH1 0x40 MLOAD DUP1 DUP4 SUB DUP2 DUP7 DUP1 EXTCODESIZE ISZERO DUP1 ISZERO PUSH3 0x1FB JUMPI PUSH1 0x0 DUP1 REVERT JUMPDEST POP GAS STATICCALL ISZERO DUP1 ISZERO PUSH3 0x210 JUMPI RETURNDATASIZE PUSH1 0x0 DUP1 RETURNDATACOPY RETURNDATASIZE PUSH1 0x0 REVERT JUMPDEST POP POP POP POP PUSH1 0x40 MLOAD RETURNDATASIZE PUSH1 0x1F NOT PUSH1 0x1F DUP3 ADD AND DUP3 ADD DUP1 PUSH1 0x40 MSTORE POP DUP2 ADD SWAP1 PUSH3 0x236 SWAP2 SWAP1 PUSH3 0xA17 JUMP JUMPDEST PUSH20 0xFFFFFFFFFFFFFFFFFFFFFFFFFFFFFFFFFFFFFFFF AND PUSH1 0xA0 DUP2 PUSH20 0xFFFFFFFFFFFFFFFFFFFFFFFFFFFFFFFFFFFFFFFF AND DUP2 MSTORE POP POP DUP1 PUSH20 0xFFFFFFFFFFFFFFFFFFFFFFFFFFFFFFFFFFFFFFFF AND PUSH4 0xD21220A7 PUSH1 0x40 MLOAD DUP2 PUSH4 0xFFFFFFFF AND PUSH1 0xE0 SHL DUP2 MSTORE PUSH1 0x4 ADD PUSH1 0x20 PUSH1 0x40 MLOAD DUP1 DUP4 SUB DUP2 DUP7 DUP1 EXTCODESIZE ISZERO DUP1 ISZERO PUSH3 0x2B0 JUMPI PUSH1 0x0 DUP1 REVERT JUMPDEST POP GAS STATICCALL ISZERO DUP1 ISZERO PUSH3 0x2C5 JUMPI RETURNDATASIZE PUSH1 0x0 DUP1 RETURNDATACOPY RETURNDATASIZE PUSH1 0x0 REVERT JUMPDEST POP POP POP POP PUSH1 0x40 MLOAD RETURNDATASIZE PUSH1 0x1F NOT PUSH1 0x1F DUP3 ADD AND DUP3 ADD DUP1 PUSH1 0x40 MSTORE POP DUP2 ADD SWAP1 PUSH3 0x2EB SWAP2 SWAP1 PUSH3 0xA17 JUMP JUMPDEST PUSH20 0xFFFFFFFFFFFFFFFFFFFFFFFFFFFFFFFFFFFFFFFF AND PUSH1 0xC0 DUP2 PUSH20 0xFFFFFFFFFFFFFFFFFFFFFFFFFFFFFFFFFFFFFFFF AND DUP2 MSTORE POP POP DUP1 PUSH20 0xFFFFFFFFFFFFFFFFFFFFFFFFFFFFFFFFFFFFFFFF AND PUSH4 0x5909C0D5 PUSH1 0x40 MLOAD DUP2 PUSH4 0xFFFFFFFF AND PUSH1 0xE0 SHL DUP2 MSTORE PUSH1 0x4 ADD PUSH1 0x20 PUSH1 0x40 MLOAD DUP1 DUP4 SUB DUP2 DUP7 DUP1 EXTCODESIZE ISZERO DUP1 ISZERO PUSH3 0x365 JUMPI PUSH1 0x0 DUP1 REVERT JUMPDEST POP GAS STATICCALL ISZERO DUP1 ISZERO PUSH3 0x37A JUMPI RETURNDATASIZE PUSH1 0x0 DUP1 RETURNDATACOPY RETURNDATASIZE PUSH1 0x0 REVERT JUMPDEST POP POP POP POP PUSH1 0x40 MLOAD RETURNDATASIZE PUSH1 0x1F NOT PUSH1 0x1F DUP3 ADD AND DUP3 ADD DUP1 PUSH1 0x40 MSTORE POP DUP2 ADD SWAP1 PUSH3 0x3A0 SWAP2 SWAP1 PUSH3 0xA84 JUMP JUMPDEST PUSH1 0x6 DUP2 SWAP1 SSTORE POP DUP1 PUSH20 0xFFFFFFFFFFFFFFFFFFFFFFFFFFFFFFFFFFFFFFFF AND PUSH4 0x5A3D5493 PUSH1 0x40 MLOAD DUP2 PUSH4 0xFFFFFFFF AND PUSH1 0xE0 SHL DUP2 MSTORE PUSH1 0x4 ADD PUSH1 0x20 PUSH1 0x40 MLOAD DUP1 DUP4 SUB DUP2 DUP7 DUP1 EXTCODESIZE ISZERO DUP1 ISZERO PUSH3 0x3ED JUMPI PUSH1 0x0 DUP1 REVERT JUMPDEST POP GAS STATICCALL ISZERO DUP1 ISZERO PUSH3 0x402 JUMPI RETURNDATASIZE PUSH1 0x0 DUP1 RETURNDATACOPY RETURNDATASIZE PUSH1 0x0 REVERT JUMPDEST POP POP POP POP PUSH1 0x40 MLOAD RETURNDATASIZE PUSH1 0x1F NOT PUSH1 0x1F DUP3 ADD AND DUP3 ADD DUP1 PUSH1 0x40 MSTORE POP DUP2 ADD SWAP1 PUSH3 0x428 SWAP2 SWAP1 PUSH3 0xA84 JUMP JUMPDEST PUSH1 0x7 DUP2 SWAP1 SSTORE POP PUSH1 0x0 DUP1 DUP3 PUSH20 0xFFFFFFFFFFFFFFFFFFFFFFFFFFFFFFFFFFFFFFFF AND PUSH4 0x902F1AC PUSH1 0x40 MLOAD DUP2 PUSH4 0xFFFFFFFF AND PUSH1 0xE0 SHL DUP2 MSTORE PUSH1 0x4 ADD PUSH1 0x60 PUSH1 0x40 MLOAD DUP1 DUP4 SUB DUP2 DUP7 DUP1 EXTCODESIZE ISZERO DUP1 ISZERO PUSH3 0x478 JUMPI PUSH1 0x0 DUP1 REVERT JUMPDEST POP GAS STATICCALL ISZERO DUP1 ISZERO PUSH3 0x48D JUMPI RETURNDATASIZE PUSH1 0x0 DUP1 RETURNDATACOPY RETURNDATASIZE PUSH1 0x0 REVERT JUMPDEST POP POP POP POP PUSH1 0x40 MLOAD RETURNDATASIZE PUSH1 0x1F NOT PUSH1 0x1F DUP3 ADD AND DUP3 ADD DUP1 PUSH1 0x40 MSTORE POP DUP2 ADD SWAP1 PUSH3 0x4B3 SWAP2 SWAP1 PUSH3 0xB42 JUMP JUMPDEST PUSH1 0x8 PUSH1 0x0 DUP3 SWAP2 SWAP1 PUSH2 0x100 EXP DUP2 SLOAD DUP2 PUSH4 0xFFFFFFFF MUL NOT AND SWAP1 DUP4 PUSH4 0xFFFFFFFF AND MUL OR SWAP1 SSTORE POP DUP2 SWAP4 POP DUP3 SWAP5 POP POP POP POP PUSH1 0x0 DUP3 PUSH14 0xFFFFFFFFFFFFFFFFFFFFFFFFFFFF AND EQ ISZERO DUP1 ISZERO PUSH3 0x512 JUMPI POP PUSH1 0x0 DUP2 PUSH14 0xFFFFFFFFFFFFFFFFFFFFFFFFFFFF AND EQ ISZERO JUMPDEST PUSH3 0x554 JUMPI PUSH1 0x40 MLOAD PUSH32 0x8C379A000000000000000000000000000000000000000000000000000000000 DUP2 MSTORE PUSH1 0x4 ADD PUSH3 0x54B SWAP1 PUSH3 0xBEE JUMP JUMPDEST PUSH1 0x40 MLOAD DUP1 SWAP2 SUB SWAP1 REVERT JUMPDEST DUP6 PUSH1 0x2 PUSH1 0x0 PUSH2 0x100 EXP DUP2 SLOAD DUP2 PUSH20 0xFFFFFFFFFFFFFFFFFFFFFFFFFFFFFFFFFFFFFFFF MUL NOT AND SWAP1 DUP4 PUSH20 0xFFFFFFFFFFFFFFFFFFFFFFFFFFFFFFFFFFFFFFFF AND MUL OR SWAP1 SSTORE POP DUP5 PUSH1 0xE SWAP1 DUP1 MLOAD SWAP1 PUSH1 0x20 ADD SWAP1 PUSH3 0x5AD SWAP3 SWAP2 SWAP1 PUSH3 0x5FD JUMP JUMPDEST POP DUP4 PUSH1 0xB PUSH1 0x0 PUSH2 0x100 EXP DUP2 SLOAD DUP2 PUSH20 0xFFFFFFFFFFFFFFFFFFFFFFFFFFFFFFFFFFFFFFFF MUL NOT AND SWAP1 DUP4 PUSH20 0xFFFFFFFFFFFFFFFFFFFFFFFFFFFFFFFFFFFFFFFF AND MUL OR SWAP1 SSTORE POP POP POP POP POP POP POP POP POP PUSH3 0xC75 JUMP JUMPDEST DUP3 DUP1 SLOAD PUSH3 0x60B SWAP1 PUSH3 0xC3F JUMP JUMPDEST SWAP1 PUSH1 0x0 MSTORE PUSH1 0x20 PUSH1 0x0 KECCAK256 SWAP1 PUSH1 0x1F ADD PUSH1 0x20 SWAP1 DIV DUP2 ADD SWAP3 DUP3 PUSH3 0x62F JUMPI PUSH1 0x0 DUP6 SSTORE PUSH3 0x67B JUMP JUMPDEST DUP3 PUSH1 0x1F LT PUSH3 0x64A JUMPI DUP1 MLOAD PUSH1 0xFF NOT AND DUP4 DUP1 ADD OR DUP6 SSTORE PUSH3 0x67B JUMP JUMPDEST DUP3 DUP1 ADD PUSH1 0x1 ADD DUP6 SSTORE DUP3 ISZERO PUSH3 0x67B JUMPI SWAP2 DUP3 ADD JUMPDEST DUP3 DUP2 GT ISZERO PUSH3 0x67A JUMPI DUP3 MLOAD DUP3 SSTORE SWAP2 PUSH1 0x20 ADD SWAP2 SWAP1 PUSH1 0x1 ADD SWAP1 PUSH3 0x65D JUMP JUMPDEST JUMPDEST POP SWAP1 POP PUSH3 0x68A SWAP2 SWAP1 PUSH3 0x68E JUMP JUMPDEST POP SWAP1 JUMP JUMPDEST JUMPDEST DUP1 DUP3 GT ISZERO PUSH3 0x6A9 JUMPI PUSH1 0x0 DUP2 PUSH1 0x0 SWAP1 SSTORE POP PUSH1 0x1 ADD PUSH3 0x68F JUMP JUMPDEST POP SWAP1 JUMP JUMPDEST PUSH1 0x0 PUSH1 0x40 MLOAD SWAP1 POP SWAP1 JUMP JUMPDEST PUSH1 0x0 DUP1 REVERT JUMPDEST PUSH1 0x0 DUP1 REVERT JUMPDEST PUSH1 0x0 PUSH20 0xFFFFFFFFFFFFFFFFFFFFFFFFFFFFFFFFFFFFFFFF DUP3 AND SWAP1 POP SWAP2 SWAP1 POP JUMP JUMPDEST PUSH1 0x0 PUSH3 0x6EE DUP3 PUSH3 0x6C1 JUMP JUMPDEST SWAP1 POP SWAP2 SWAP1 POP JUMP JUMPDEST PUSH3 0x700 DUP2 PUSH3 0x6E1 JUMP JUMPDEST DUP2 EQ PUSH3 0x70C JUMPI PUSH1 0x0 DUP1 REVERT JUMPDEST POP JUMP JUMPDEST PUSH1 0x0 DUP2 MLOAD SWAP1 POP PUSH3 0x720 DUP2 PUSH3 0x6F5 JUMP JUMPDEST SWAP3 SWAP2 POP POP JUMP JUMPDEST PUSH1 0x0 DUP1 REVERT JUMPDEST PUSH1 0x0 DUP1 REVERT JUMPDEST PUSH1 0x0 PUSH1 0x1F NOT PUSH1 0x1F DUP4 ADD AND SWAP1 POP SWAP2 SWAP1 POP JUMP JUMPDEST PUSH32 0x4E487B7100000000000000000000000000000000000000000000000000000000 PUSH1 0x0 MSTORE PUSH1 0x41 PUSH1 0x4 MSTORE PUSH1 0x24 PUSH1 0x0 REVERT JUMPDEST PUSH3 0x77B DUP3 PUSH3 0x730 JUMP JUMPDEST DUP2 ADD DUP2 DUP2 LT PUSH8 0xFFFFFFFFFFFFFFFF DUP3 GT OR ISZERO PUSH3 0x79D JUMPI PUSH3 0x79C PUSH3 0x741 JUMP JUMPDEST JUMPDEST DUP1 PUSH1 0x40 MSTORE POP POP POP JUMP JUMPDEST PUSH1 0x0 PUSH3 0x7B2 PUSH3 0x6AD JUMP JUMPDEST SWAP1 POP PUSH3 0x7C0 DUP3 DUP3 PUSH3 0x770 JUMP JUMPDEST SWAP2 SWAP1 POP JUMP JUMPDEST PUSH1 0x0 PUSH8 0xFFFFFFFFFFFFFFFF DUP3 GT ISZERO PUSH3 0x7E3 JUMPI PUSH3 0x7E2 PUSH3 0x741 JUMP JUMPDEST JUMPDEST PUSH3 0x7EE DUP3 PUSH3 0x730 JUMP JUMPDEST SWAP1 POP PUSH1 0x20 DUP2 ADD SWAP1 POP SWAP2 SWAP1 POP JUMP JUMPDEST PUSH1 0x0 JUMPDEST DUP4 DUP2 LT ISZERO PUSH3 0x81B JUMPI DUP1 DUP3 ADD MLOAD DUP2 DUP5 ADD MSTORE PUSH1 0x20 DUP2 ADD SWAP1 POP PUSH3 0x7FE JUMP JUMPDEST DUP4 DUP2 GT ISZERO PUSH3 0x82B JUMPI PUSH1 0x0 DUP5 DUP5 ADD MSTORE JUMPDEST POP POP POP POP JUMP JUMPDEST PUSH1 0x0 PUSH3 0x848 PUSH3 0x842 DUP5 PUSH3 0x7C5 JUMP JUMPDEST PUSH3 0x7A6 JUMP JUMPDEST SWAP1 POP DUP3 DUP2 MSTORE PUSH1 0x20 DUP2 ADD DUP5 DUP5 DUP5 ADD GT ISZERO PUSH3 0x867 JUMPI PUSH3 0x866 PUSH3 0x72B JUMP JUMPDEST JUMPDEST PUSH3 0x874 DUP5 DUP3 DUP6 PUSH3 0x7FB JUMP JUMPDEST POP SWAP4 SWAP3 POP POP POP JUMP JUMPDEST PUSH1 0x0 DUP3 PUSH1 0x1F DUP4 ADD SLT PUSH3 0x894 JUMPI PUSH3 0x893 PUSH3 0x726 JUMP JUMPDEST JUMPDEST DUP2 MLOAD PUSH3 0x8A6 DUP5 DUP3 PUSH1 0x20 DUP7 ADD PUSH3 0x831 JUMP JUMPDEST SWAP2 POP POP SWAP3 SWAP2 POP POP JUMP JUMPDEST PUSH1 0x0 DUP1 PUSH1 0x0 DUP1 PUSH1 0x0 PUSH1 0xA0 DUP7 DUP9 SUB SLT ISZERO PUSH3 0x8CE JUMPI PUSH3 0x8CD PUSH3 0x6B7 JUMP JUMPDEST JUMPDEST PUSH1 0x0 PUSH3 0x8DE DUP9 DUP3 DUP10 ADD PUSH3 0x70F JUMP JUMPDEST SWAP6 POP POP PUSH1 0x20 PUSH3 0x8F1 DUP9 DUP3 DUP10 ADD PUSH3 0x70F JUMP JUMPDEST SWAP5 POP POP PUSH1 0x40 PUSH3 0x904 DUP9 DUP3 DUP10 ADD PUSH3 0x70F JUMP JUMPDEST SWAP4 POP POP PUSH1 0x60 DUP7 ADD MLOAD PUSH8 0xFFFFFFFFFFFFFFFF DUP2 GT ISZERO PUSH3 0x928 JUMPI PUSH3 0x927 PUSH3 0x6BC JUMP JUMPDEST JUMPDEST PUSH3 0x936 DUP9 DUP3 DUP10 ADD PUSH3 0x87C JUMP JUMPDEST SWAP3 POP POP PUSH1 0x80 PUSH3 0x949 DUP9 DUP3 DUP10 ADD PUSH3 0x70F JUMP JUMPDEST SWAP2 POP POP SWAP3 SWAP6 POP SWAP3 SWAP6 SWAP1 SWAP4 POP JUMP JUMPDEST PUSH1 0x0 DUP3 DUP3 MSTORE PUSH1 0x20 DUP3 ADD SWAP1 POP SWAP3 SWAP2 POP POP JUMP JUMPDEST PUSH32 0x4F776E657220616464726573732063616E6E6F74206265203000000000000000 PUSH1 0x0 DUP3 ADD MSTORE POP JUMP JUMPDEST PUSH1 0x0 PUSH3 0x99F PUSH1 0x19 DUP4 PUSH3 0x956 JUMP JUMPDEST SWAP2 POP PUSH3 0x9AC DUP3 PUSH3 0x967 JUMP JUMPDEST PUSH1 0x20 DUP3 ADD SWAP1 POP SWAP2 SWAP1 POP JUMP JUMPDEST PUSH1 0x0 PUSH1 0x20 DUP3 ADD SWAP1 POP DUP2 DUP2 SUB PUSH1 0x0 DUP4 ADD MSTORE PUSH3 0x9D2 DUP2 PUSH3 0x990 JUMP JUMPDEST SWAP1 POP SWAP2 SWAP1 POP JUMP JUMPDEST PUSH3 0x9E4 DUP2 PUSH3 0x6E1 JUMP JUMPDEST DUP3 MSTORE POP POP JUMP JUMPDEST PUSH1 0x0 PUSH1 0x40 DUP3 ADD SWAP1 POP PUSH3 0xA01 PUSH1 0x0 DUP4 ADD DUP6 PUSH3 0x9D9 JUMP JUMPDEST PUSH3 0xA10 PUSH1 0x20 DUP4 ADD DUP5 PUSH3 0x9D9 JUMP JUMPDEST SWAP4 SWAP3 POP POP POP JUMP JUMPDEST PUSH1 0x0 PUSH1 0x20 DUP3 DUP5 SUB SLT ISZERO PUSH3 0xA30 JUMPI PUSH3 0xA2F PUSH3 0x6B7 JUMP JUMPDEST JUMPDEST PUSH1 0x0 PUSH3 0xA40 DUP5 DUP3 DUP6 ADD PUSH3 0x70F JUMP JUMPDEST SWAP2 POP POP SWAP3 SWAP2 POP POP JUMP JUMPDEST PUSH1 0x0 DUP2 SWAP1 POP SWAP2 SWAP1 POP JUMP JUMPDEST PUSH3 0xA5E DUP2 PUSH3 0xA49 JUMP JUMPDEST DUP2 EQ PUSH3 0xA6A JUMPI PUSH1 0x0 DUP1 REVERT JUMPDEST POP JUMP JUMPDEST PUSH1 0x0 DUP2 MLOAD SWAP1 POP PUSH3 0xA7E DUP2 PUSH3 0xA53 JUMP JUMPDEST SWAP3 SWAP2 POP POP JUMP JUMPDEST PUSH1 0x0 PUSH1 0x20 DUP3 DUP5 SUB SLT ISZERO PUSH3 0xA9D JUMPI PUSH3 0xA9C PUSH3 0x6B7 JUMP JUMPDEST JUMPDEST PUSH1 0x0 PUSH3 0xAAD DUP5 DUP3 DUP6 ADD PUSH3 0xA6D JUMP JUMPDEST SWAP2 POP POP SWAP3 SWAP2 POP POP JUMP JUMPDEST PUSH1 0x0 PUSH14 0xFFFFFFFFFFFFFFFFFFFFFFFFFFFF DUP3 AND SWAP1 POP SWAP2 SWAP1 POP JUMP JUMPDEST PUSH3 0xADB DUP2 PUSH3 0xAB6 JUMP JUMPDEST DUP2 EQ PUSH3 0xAE7 JUMPI PUSH1 0x0 DUP1 REVERT JUMPDEST POP JUMP JUMPDEST PUSH1 0x0 DUP2 MLOAD SWAP1 POP PUSH3 0xAFB DUP2 PUSH3 0xAD0 JUMP JUMPDEST SWAP3 SWAP2 POP POP JUMP JUMPDEST PUSH1 0x0 PUSH4 0xFFFFFFFF DUP3 AND SWAP1 POP SWAP2 SWAP1 POP JUMP JUMPDEST PUSH3 0xB1C DUP2 PUSH3 0xB01 JUMP JUMPDEST DUP2 EQ PUSH3 0xB28 JUMPI PUSH1 0x0 DUP1 REVERT JUMPDEST POP JUMP JUMPDEST PUSH1 0x0 DUP2 MLOAD SWAP1 POP PUSH3 0xB3C DUP2 PUSH3 0xB11 JUMP JUMPDEST SWAP3 SWAP2 POP POP JUMP JUMPDEST PUSH1 0x0 DUP1 PUSH1 0x0 PUSH1 0x60 DUP5 DUP7 SUB SLT ISZERO PUSH3 0xB5E JUMPI PUSH3 0xB5D PUSH3 0x6B7 JUMP JUMPDEST JUMPDEST PUSH1 0x0 PUSH3 0xB6E DUP7 DUP3 DUP8 ADD PUSH3 0xAEA JUMP JUMPDEST SWAP4 POP POP PUSH1 0x20 PUSH3 0xB81 DUP7 DUP3 DUP8 ADD PUSH3 0xAEA JUMP JUMPDEST SWAP3 POP POP PUSH1 0x40 PUSH3 0xB94 DUP7 DUP3 DUP8 ADD PUSH3 0xB2B JUMP JUMPDEST SWAP2 POP POP SWAP3 POP SWAP3 POP SWAP3 JUMP JUMPDEST PUSH32 0x556E6973776170506169724F7261636C653A204E4F5F52455345525645530000 PUSH1 0x0 DUP3 ADD MSTORE POP JUMP JUMPDEST PUSH1 0x0 PUSH3 0xBD6 PUSH1 0x1E DUP4 PUSH3 0x956 JUMP JUMPDEST SWAP2 POP PUSH3 0xBE3 DUP3 PUSH3 0xB9E JUMP JUMPDEST PUSH1 0x20 DUP3 ADD SWAP1 POP SWAP2 SWAP1 POP JUMP JUMPDEST PUSH1 0x0 PUSH1 0x20 DUP3 ADD SWAP1 POP DUP2 DUP2 SUB PUSH1 0x0 DUP4 ADD MSTORE PUSH3 0xC09 DUP2 PUSH3 0xBC7 JUMP JUMPDEST SWAP1 POP SWAP2 SWAP1 POP JUMP JUMPDEST PUSH32 0x4E487B7100000000000000000000000000000000000000000000000000000000 PUSH1 0x0 MSTORE PUSH1 0x22 PUSH1 0x4 MSTORE PUSH1 0x24 PUSH1 0x0 REVERT JUMPDEST PUSH1 0x0 PUSH1 0x2 DUP3 DIV SWAP1 POP PUSH1 0x1 DUP3 AND DUP1 PUSH3 0xC58 JUMPI PUSH1 0x7F DUP3 AND SWAP2 POP JUMPDEST PUSH1 0x20 DUP3 LT DUP2 EQ ISZERO PUSH3 0xC6F JUMPI PUSH3 0xC6E PUSH3 0xC10 JUMP JUMPDEST JUMPDEST POP SWAP2 SWAP1 POP JUMP JUMPDEST PUSH1 0x80 MLOAD PUSH1 0xA0 MLOAD PUSH1 0xC0 MLOAD PUSH2 0x265F PUSH3 0xCBA PUSH1 0x0 CODECOPY PUSH1 0x0 DUP2 DUP2 PUSH2 0x918 ADD MSTORE PUSH2 0x1364 ADD MSTORE PUSH1 0x0 DUP2 DUP2 PUSH2 0x534 ADD MSTORE PUSH2 0x814 ADD MSTORE PUSH1 0x0 DUP2 DUP2 PUSH2 0xFAA ADD MSTORE PUSH2 0x11FA ADD MSTORE PUSH2 0x265F PUSH1 0x0 RETURN INVALID PUSH1 0x80 PUSH1 0x40 MSTORE CALLVALUE DUP1 ISZERO PUSH2 0x10 JUMPI PUSH1 0x0 DUP1 REVERT JUMPDEST POP PUSH1 0x4 CALLDATASIZE LT PUSH2 0x1CF JUMPI PUSH1 0x0 CALLDATALOAD PUSH1 0xE0 SHR DUP1 PUSH4 0x74B04AB4 GT PUSH2 0x104 JUMPI DUP1 PUSH4 0xA6BB4539 GT PUSH2 0xA2 JUMPI DUP1 PUSH4 0xC5700A02 GT PUSH2 0x71 JUMPI DUP1 PUSH4 0xC5700A02 EQ PUSH2 0x4B8 JUMPI DUP1 PUSH4 0xD21220A7 EQ PUSH2 0x4D6 JUMPI DUP1 PUSH4 0xF1551AEA EQ PUSH2 0x4F4 JUMPI DUP1 PUSH4 0xFEAF968C EQ PUSH2 0x510 JUMPI PUSH2 0x1CF JUMP JUMPDEST DUP1 PUSH4 0xA6BB4539 EQ PUSH2 0x442 JUMPI DUP1 PUSH4 0xA8AA1B31 EQ PUSH2 0x460 JUMPI DUP1 PUSH4 0xB4D1D795 EQ PUSH2 0x47E JUMPI DUP1 PUSH4 0xBDACB303 EQ PUSH2 0x49C JUMPI PUSH2 0x1CF JUMP JUMPDEST DUP1 PUSH4 0x95082D25 GT PUSH2 0xDE JUMPI DUP1 PUSH4 0x95082D25 EQ PUSH2 0x3C8 JUMPI DUP1 PUSH4 0x9A6FC8F5 EQ PUSH2 0x3E6 JUMPI DUP1 PUSH4 0xA17A2685 EQ PUSH2 0x41A JUMPI DUP1 PUSH4 0xA2E62045 EQ PUSH2 0x438 JUMPI PUSH2 0x1CF JUMP JUMPDEST DUP1 PUSH4 0x74B04AB4 EQ PUSH2 0x384 JUMPI DUP1 PUSH4 0x79BA5097 EQ PUSH2 0x3A0 JUMPI DUP1 PUSH4 0x8DA5CB5B EQ PUSH2 0x3AA JUMPI PUSH2 0x1CF JUMP JUMPDEST DUP1 PUSH4 0x53A47BB7 GT PUSH2 0x171 JUMPI DUP1 PUSH4 0x5A3D5493 GT PUSH2 0x14B JUMPI DUP1 PUSH4 0x5A3D5493 EQ PUSH2 0x30E JUMPI DUP1 PUSH4 0x5CB9A714 EQ PUSH2 0x32C JUMPI DUP1 PUSH4 0x5E6AAF2C EQ PUSH2 0x348 JUMPI DUP1 PUSH4 0x7284E416 EQ PUSH2 0x366 JUMPI PUSH2 0x1CF JUMP JUMPDEST DUP1 PUSH4 0x53A47BB7 EQ PUSH2 0x2B4 JUMPI DUP1 PUSH4 0x54FD4D50 EQ PUSH2 0x2D2 JUMPI DUP1 PUSH4 0x5909C0D5 EQ PUSH2 0x2F0 JUMPI PUSH2 0x1CF JUMP JUMPDEST DUP1 PUSH4 0x1AC2C825 GT PUSH2 0x1AD JUMPI DUP1 PUSH4 0x1AC2C825 EQ PUSH2 0x22A JUMPI DUP1 PUSH4 0x313CE567 EQ PUSH2 0x248 JUMPI DUP1 PUSH4 0x3DDAC953 EQ PUSH2 0x266 JUMPI DUP1 PUSH4 0x3FCB55CA EQ PUSH2 0x296 JUMPI PUSH2 0x1CF JUMP JUMPDEST DUP1 PUSH4 0xDFE1681 EQ PUSH2 0x1D4 JUMPI DUP1 PUSH4 0xF3A9F65 EQ PUSH2 0x1F2 JUMPI DUP1 PUSH4 0x1627540C EQ PUSH2 0x20E JUMPI JUMPDEST PUSH1 0x0 DUP1 REVERT JUMPDEST PUSH2 0x1DC PUSH2 0x532 JUMP JUMPDEST PUSH1 0x40 MLOAD PUSH2 0x1E9 SWAP2 SWAP1 PUSH2 0x1994 JUMP JUMPDEST PUSH1 0x40 MLOAD DUP1 SWAP2 SUB SWAP1 RETURN JUMPDEST PUSH2 0x20C PUSH1 0x4 DUP1 CALLDATASIZE SUB DUP2 ADD SWAP1 PUSH2 0x207 SWAP2 SWAP1 PUSH2 0x19EA JUMP JUMPDEST PUSH2 0x556 JUMP JUMPDEST STOP JUMPDEST PUSH2 0x228 PUSH1 0x4 DUP1 CALLDATASIZE SUB DUP2 ADD SWAP1 PUSH2 0x223 SWAP2 SWAP1 PUSH2 0x1A43 JUMP JUMPDEST PUSH2 0x646 JUMP JUMPDEST STOP JUMPDEST PUSH2 0x232 PUSH2 0x74F JUMP JUMPDEST PUSH1 0x40 MLOAD PUSH2 0x23F SWAP2 SWAP1 PUSH2 0x1A8B JUMP JUMPDEST PUSH1 0x40 MLOAD DUP1 SWAP2 SUB SWAP1 RETURN JUMPDEST PUSH2 0x250 PUSH2 0x762 JUMP JUMPDEST PUSH1 0x40 MLOAD PUSH2 0x25D SWAP2 SWAP1 PUSH2 0x1AC2 JUMP JUMPDEST PUSH1 0x40 MLOAD DUP1 SWAP2 SUB SWAP1 RETURN JUMPDEST PUSH2 0x280 PUSH1 0x4 DUP1 CALLDATASIZE SUB DUP2 ADD SWAP1 PUSH2 0x27B SWAP2 SWAP1 PUSH2 0x1ADD JUMP JUMPDEST PUSH2 0x775 JUMP JUMPDEST PUSH1 0x40 MLOAD PUSH2 0x28D SWAP2 SWAP1 PUSH2 0x1B2C JUMP JUMPDEST PUSH1 0x40 MLOAD DUP1 SWAP2 SUB SWAP1 RETURN JUMPDEST PUSH2 0x29E PUSH2 0xA58 JUMP JUMPDEST PUSH1 0x40 MLOAD PUSH2 0x2AB SWAP2 SWAP1 PUSH2 0x1B2C JUMP JUMPDEST PUSH1 0x40 MLOAD DUP1 SWAP2 SUB SWAP1 RETURN JUMPDEST PUSH2 0x2BC PUSH2 0xA5E JUMP JUMPDEST PUSH1 0x40 MLOAD PUSH2 0x2C9 SWAP2 SWAP1 PUSH2 0x1994 JUMP JUMPDEST PUSH1 0x40 MLOAD DUP1 SWAP2 SUB SWAP1 RETURN JUMPDEST PUSH2 0x2DA PUSH2 0xA84 JUMP JUMPDEST PUSH1 0x40 MLOAD PUSH2 0x2E7 SWAP2 SWAP1 PUSH2 0x1B2C JUMP JUMPDEST PUSH1 0x40 MLOAD DUP1 SWAP2 SUB SWAP1 RETURN JUMPDEST PUSH2 0x2F8 PUSH2 0xA8A JUMP JUMPDEST PUSH1 0x40 MLOAD PUSH2 0x305 SWAP2 SWAP1 PUSH2 0x1B2C JUMP JUMPDEST PUSH1 0x40 MLOAD DUP1 SWAP2 SUB SWAP1 RETURN JUMPDEST PUSH2 0x316 PUSH2 0xA90 JUMP JUMPDEST PUSH1 0x40 MLOAD PUSH2 0x323 SWAP2 SWAP1 PUSH2 0x1B2C JUMP JUMPDEST PUSH1 0x40 MLOAD DUP1 SWAP2 SUB SWAP1 RETURN JUMPDEST PUSH2 0x346 PUSH1 0x4 DUP1 CALLDATASIZE SUB DUP2 ADD SWAP1 PUSH2 0x341 SWAP2 SWAP1 PUSH2 0x19EA JUMP JUMPDEST PUSH2 0xA96 JUMP JUMPDEST STOP JUMPDEST PUSH2 0x350 PUSH2 0xB86 JUMP JUMPDEST PUSH1 0x40 MLOAD PUSH2 0x35D SWAP2 SWAP1 PUSH2 0x1B7E JUMP JUMPDEST PUSH1 0x40 MLOAD DUP1 SWAP2 SUB SWAP1 RETURN JUMPDEST PUSH2 0x36E PUSH2 0xBBA JUMP JUMPDEST PUSH1 0x40 MLOAD PUSH2 0x37B SWAP2 SWAP1 PUSH2 0x1C32 JUMP JUMPDEST PUSH1 0x40 MLOAD DUP1 SWAP2 SUB SWAP1 RETURN JUMPDEST PUSH2 0x39E PUSH1 0x4 DUP1 CALLDATASIZE SUB DUP2 ADD SWAP1 PUSH2 0x399 SWAP2 SWAP1 PUSH2 0x1A43 JUMP JUMPDEST PUSH2 0xC48 JUMP JUMPDEST STOP JUMPDEST PUSH2 0x3A8 PUSH2 0xD72 JUMP JUMPDEST STOP JUMPDEST PUSH2 0x3B2 PUSH2 0xF23 JUMP JUMPDEST PUSH1 0x40 MLOAD PUSH2 0x3BF SWAP2 SWAP1 PUSH2 0x1994 JUMP JUMPDEST PUSH1 0x40 MLOAD DUP1 SWAP2 SUB SWAP1 RETURN JUMPDEST PUSH2 0x3D0 PUSH2 0xF47 JUMP JUMPDEST PUSH1 0x40 MLOAD PUSH2 0x3DD SWAP2 SWAP1 PUSH2 0x1B2C JUMP JUMPDEST PUSH1 0x40 MLOAD DUP1 SWAP2 SUB SWAP1 RETURN JUMPDEST PUSH2 0x400 PUSH1 0x4 DUP1 CALLDATASIZE SUB DUP2 ADD SWAP1 PUSH2 0x3FB SWAP2 SWAP1 PUSH2 0x1C96 JUMP JUMPDEST PUSH2 0xF4D JUMP JUMPDEST PUSH1 0x40 MLOAD PUSH2 0x411 SWAP6 SWAP5 SWAP4 SWAP3 SWAP2 SWAP1 PUSH2 0x1CEB JUMP JUMPDEST PUSH1 0x40 MLOAD DUP1 SWAP2 SUB SWAP1 RETURN JUMPDEST PUSH2 0x422 PUSH2 0xF5E JUMP JUMPDEST PUSH1 0x40 MLOAD PUSH2 0x42F SWAP2 SWAP1 PUSH2 0x1A8B JUMP JUMPDEST PUSH1 0x40 MLOAD DUP1 SWAP2 SUB SWAP1 RETURN JUMPDEST PUSH2 0x440 PUSH2 0xFA0 JUMP JUMPDEST STOP JUMPDEST PUSH2 0x44A PUSH2 0x11C4 JUMP JUMPDEST PUSH1 0x40 MLOAD PUSH2 0x457 SWAP2 SWAP1 PUSH2 0x1B7E JUMP JUMPDEST PUSH1 0x40 MLOAD DUP1 SWAP2 SUB SWAP1 RETURN JUMPDEST PUSH2 0x468 PUSH2 0x11F8 JUMP JUMPDEST PUSH1 0x40 MLOAD PUSH2 0x475 SWAP2 SWAP1 PUSH2 0x1D9D JUMP JUMPDEST PUSH1 0x40 MLOAD DUP1 SWAP2 SUB SWAP1 RETURN JUMPDEST PUSH2 0x486 PUSH2 0x121C JUMP JUMPDEST PUSH1 0x40 MLOAD PUSH2 0x493 SWAP2 SWAP1 PUSH2 0x1B2C JUMP JUMPDEST PUSH1 0x40 MLOAD DUP1 SWAP2 SUB SWAP1 RETURN JUMPDEST PUSH2 0x4B6 PUSH1 0x4 DUP1 CALLDATASIZE SUB DUP2 ADD SWAP1 PUSH2 0x4B1 SWAP2 SWAP1 PUSH2 0x1A43 JUMP JUMPDEST PUSH2 0x1222 JUMP JUMPDEST STOP JUMPDEST PUSH2 0x4C0 PUSH2 0x134C JUMP JUMPDEST PUSH1 0x40 MLOAD PUSH2 0x4CD SWAP2 SWAP1 PUSH2 0x1DD7 JUMP JUMPDEST PUSH1 0x40 MLOAD DUP1 SWAP2 SUB SWAP1 RETURN JUMPDEST PUSH2 0x4DE PUSH2 0x1362 JUMP JUMPDEST PUSH1 0x40 MLOAD PUSH2 0x4EB SWAP2 SWAP1 PUSH2 0x1994 JUMP JUMPDEST PUSH1 0x40 MLOAD DUP1 SWAP2 SUB SWAP1 RETURN JUMPDEST PUSH2 0x50E PUSH1 0x4 DUP1 CALLDATASIZE SUB DUP2 ADD SWAP1 PUSH2 0x509 SWAP2 SWAP1 PUSH2 0x1E1E JUMP JUMPDEST PUSH2 0x1386 JUMP JUMPDEST STOP JUMPDEST PUSH2 0x518 PUSH2 0x1489 JUMP JUMPDEST PUSH1 0x40 MLOAD PUSH2 0x529 SWAP6 SWAP5 SWAP4 SWAP3 SWAP2 SWAP1 PUSH2 0x1CEB JUMP JUMPDEST PUSH1 0x40 MLOAD DUP1 SWAP2 SUB SWAP1 RETURN JUMPDEST PUSH32 0x0 DUP2 JUMP JUMPDEST PUSH1 0x0 DUP1 SLOAD SWAP1 PUSH2 0x100 EXP SWAP1 DIV PUSH20 0xFFFFFFFFFFFFFFFFFFFFFFFFFFFFFFFFFFFFFFFF AND PUSH20 0xFFFFFFFFFFFFFFFFFFFFFFFFFFFFFFFFFFFFFFFF AND CALLER PUSH20 0xFFFFFFFFFFFFFFFFFFFFFFFFFFFFFFFFFFFFFFFF AND EQ DUP1 PUSH2 0x5FD JUMPI POP PUSH1 0x2 PUSH1 0x0 SWAP1 SLOAD SWAP1 PUSH2 0x100 EXP SWAP1 DIV PUSH20 0xFFFFFFFFFFFFFFFFFFFFFFFFFFFFFFFFFFFFFFFF AND PUSH20 0xFFFFFFFFFFFFFFFFFFFFFFFFFFFFFFFFFFFFFFFF AND CALLER PUSH20 0xFFFFFFFFFFFFFFFFFFFFFFFFFFFFFFFFFFFFFFFF AND EQ JUMPDEST PUSH2 0x63C JUMPI PUSH1 0x40 MLOAD PUSH32 0x8C379A000000000000000000000000000000000000000000000000000000000 DUP2 MSTORE PUSH1 0x4 ADD PUSH2 0x633 SWAP1 PUSH2 0x1EBD JUMP JUMPDEST PUSH1 0x40 MLOAD DUP1 SWAP2 SUB SWAP1 REVERT JUMPDEST DUP1 PUSH1 0x3 DUP2 SWAP1 SSTORE POP POP JUMP JUMPDEST PUSH1 0x0 DUP1 SLOAD SWAP1 PUSH2 0x100 EXP SWAP1 DIV PUSH20 0xFFFFFFFFFFFFFFFFFFFFFFFFFFFFFFFFFFFFFFFF AND PUSH20 0xFFFFFFFFFFFFFFFFFFFFFFFFFFFFFFFFFFFFFFFF AND CALLER PUSH20 0xFFFFFFFFFFFFFFFFFFFFFFFFFFFFFFFFFFFFFFFF AND EQ PUSH2 0x6D4 JUMPI PUSH1 0x40 MLOAD PUSH32 0x8C379A000000000000000000000000000000000000000000000000000000000 DUP2 MSTORE PUSH1 0x4 ADD PUSH2 0x6CB SWAP1 PUSH2 0x1F4F JUMP JUMPDEST PUSH1 0x40 MLOAD DUP1 SWAP2 SUB SWAP1 REVERT JUMPDEST DUP1 PUSH1 0x1 PUSH1 0x0 PUSH2 0x100 EXP DUP2 SLOAD DUP2 PUSH20 0xFFFFFFFFFFFFFFFFFFFFFFFFFFFFFFFFFFFFFFFF MUL NOT AND SWAP1 DUP4 PUSH20 0xFFFFFFFFFFFFFFFFFFFFFFFFFFFFFFFFFFFFFFFF AND MUL OR SWAP1 SSTORE POP PUSH32 0x906A1C6BD7E3091EA86693DD029A831C19049CE77F1DCE2CE0BAB1CACBABCE22 DUP2 PUSH1 0x40 MLOAD PUSH2 0x744 SWAP2 SWAP1 PUSH2 0x1994 JUMP JUMPDEST PUSH1 0x40 MLOAD DUP1 SWAP2 SUB SWAP1 LOG1 POP JUMP JUMPDEST PUSH1 0x5 PUSH1 0x0 SWAP1 SLOAD SWAP1 PUSH2 0x100 EXP SWAP1 DIV PUSH1 0xFF AND DUP2 JUMP JUMPDEST PUSH1 0xD PUSH1 0x0 SWAP1 SLOAD SWAP1 PUSH2 0x100 EXP SWAP1 DIV PUSH1 0xFF AND DUP2 JUMP JUMPDEST PUSH1 0x0 DUP1 PUSH2 0x780 PUSH2 0x14DC JUMP JUMPDEST SWAP1 POP PUSH1 0x0 PUSH1 0x8 PUSH1 0x0 SWAP1 SLOAD SWAP1 PUSH2 0x100 EXP SWAP1 DIV PUSH4 0xFFFFFFFF AND DUP3 PUSH2 0x7A2 SWAP2 SWAP1 PUSH2 0x1F9E JUMP JUMPDEST SWAP1 POP PUSH1 0x4 SLOAD PUSH1 0x3 SLOAD PUSH2 0x7B4 SWAP2 SWAP1 PUSH2 0x1FD2 JUMP JUMPDEST DUP2 PUSH4 0xFFFFFFFF AND LT DUP1 PUSH2 0x7D3 JUMPI POP PUSH1 0x5 PUSH1 0x0 SWAP1 SLOAD SWAP1 PUSH2 0x100 EXP SWAP1 DIV PUSH1 0xFF AND JUMPDEST PUSH2 0x812 JUMPI PUSH1 0x40 MLOAD PUSH32 0x8C379A000000000000000000000000000000000000000000000000000000000 DUP2 MSTORE PUSH1 0x4 ADD PUSH2 0x809 SWAP1 PUSH2 0x209A JUMP JUMPDEST PUSH1 0x40 MLOAD DUP1 SWAP2 SUB SWAP1 REVERT JUMPDEST PUSH32 0x0 PUSH20 0xFFFFFFFFFFFFFFFFFFFFFFFFFFFFFFFFFFFFFFFF AND DUP6 PUSH20 0xFFFFFFFFFFFFFFFFFFFFFFFFFFFFFFFFFFFFFFFF AND EQ ISZERO PUSH2 0x916 JUMPI PUSH2 0x8FB PUSH2 0x8F6 DUP6 PUSH1 0x9 PUSH1 0x40 MLOAD DUP1 PUSH1 0x20 ADD PUSH1 0x40 MSTORE SWAP1 DUP2 PUSH1 0x0 DUP3 ADD PUSH1 0x0 SWAP1 SLOAD SWAP1 PUSH2 0x100 EXP SWAP1 DIV PUSH28 0xFFFFFFFFFFFFFFFFFFFFFFFFFFFFFFFFFFFFFFFFFFFFFFFFFFFFFFFF AND PUSH28 0xFFFFFFFFFFFFFFFFFFFFFFFFFFFFFFFFFFFFFFFFFFFFFFFFFFFFFFFF AND PUSH28 0xFFFFFFFFFFFFFFFFFFFFFFFFFFFFFFFFFFFFFFFFFFFFFFFFFFFFFFFF AND DUP2 MSTORE POP POP PUSH2 0x14F4 SWAP1 SWAP2 SWAP1 PUSH4 0xFFFFFFFF AND JUMP JUMPDEST PUSH2 0x15BF JUMP JUMPDEST PUSH18 0xFFFFFFFFFFFFFFFFFFFFFFFFFFFFFFFFFFFF AND SWAP3 POP PUSH2 0xA50 JUMP JUMPDEST PUSH32 0x0 PUSH20 0xFFFFFFFFFFFFFFFFFFFFFFFFFFFFFFFFFFFFFFFF AND DUP6 PUSH20 0xFFFFFFFFFFFFFFFFFFFFFFFFFFFFFFFFFFFFFFFF AND EQ PUSH2 0x9A4 JUMPI PUSH1 0x40 MLOAD PUSH32 0x8C379A000000000000000000000000000000000000000000000000000000000 DUP2 MSTORE PUSH1 0x4 ADD PUSH2 0x99B SWAP1 PUSH2 0x2106 JUMP JUMPDEST PUSH1 0x40 MLOAD DUP1 SWAP2 SUB SWAP1 REVERT JUMPDEST PUSH2 0xA39 PUSH2 0xA34 DUP6 PUSH1 0xA PUSH1 0x40 MLOAD DUP1 PUSH1 0x20 ADD PUSH1 0x40 MSTORE SWAP1 DUP2 PUSH1 0x0 DUP3 ADD PUSH1 0x0 SWAP1 SLOAD SWAP1 PUSH2 0x100 EXP SWAP1 DIV PUSH28 0xFFFFFFFFFFFFFFFFFFFFFFFFFFFFFFFFFFFFFFFFFFFFFFFFFFFFFFFF AND PUSH28 0xFFFFFFFFFFFFFFFFFFFFFFFFFFFFFFFFFFFFFFFFFFFFFFFFFFFFFFFF AND PUSH28 0xFFFFFFFFFFFFFFFFFFFFFFFFFFFFFFFFFFFFFFFFFFFFFFFFFFFFFFFF AND DUP2 MSTORE POP POP PUSH2 0x14F4 SWAP1 SWAP2 SWAP1 PUSH4 0xFFFFFFFF AND JUMP JUMPDEST PUSH2 0x15BF JUMP JUMPDEST PUSH18 0xFFFFFFFFFFFFFFFFFFFFFFFFFFFFFFFFFFFF AND SWAP3 POP JUMPDEST POP POP SWAP3 SWAP2 POP POP JUMP JUMPDEST PUSH1 0x4 SLOAD DUP2 JUMP JUMPDEST PUSH1 0x1 PUSH1 0x0 SWAP1 SLOAD SWAP1 PUSH2 0x100 EXP SWAP1 DIV PUSH20 0xFFFFFFFFFFFFFFFFFFFFFFFFFFFFFFFFFFFFFFFF AND DUP2 JUMP JUMPDEST PUSH1 0xF SLOAD DUP2 JUMP JUMPDEST PUSH1 0x6 SLOAD DUP2 JUMP JUMPDEST PUSH1 0x7 SLOAD DUP2 JUMP JUMPDEST PUSH1 0x0 DUP1 SLOAD SWAP1 PUSH2 0x100 EXP SWAP1 DIV PUSH20 0xFFFFFFFFFFFFFFFFFFFFFFFFFFFFFFFFFFFFFFFF AND PUSH20 0xFFFFFFFFFFFFFFFFFFFFFFFFFFFFFFFFFFFFFFFF AND CALLER PUSH20 0xFFFFFFFFFFFFFFFFFFFFFFFFFFFFFFFFFFFFFFFF AND EQ DUP1 PUSH2 0xB3D JUMPI POP PUSH1 0x2 PUSH1 0x0 SWAP1 SLOAD SWAP1 PUSH2 0x100 EXP SWAP1 DIV PUSH20 0xFFFFFFFFFFFFFFFFFFFFFFFFFFFFFFFFFFFFFFFF AND PUSH20 0xFFFFFFFFFFFFFFFFFFFFFFFFFFFFFFFFFFFFFFFF AND CALLER PUSH20 0xFFFFFFFFFFFFFFFFFFFFFFFFFFFFFFFFFFFFFFFF AND EQ JUMPDEST PUSH2 0xB7C JUMPI PUSH1 0x40 MLOAD PUSH32 0x8C379A000000000000000000000000000000000000000000000000000000000 DUP2 MSTORE PUSH1 0x4 ADD PUSH2 0xB73 SWAP1 PUSH2 0x1EBD JUMP JUMPDEST PUSH1 0x40 MLOAD DUP1 SWAP2 SUB SWAP1 REVERT JUMPDEST DUP1 PUSH1 0x4 DUP2 SWAP1 SSTORE POP POP JUMP JUMPDEST PUSH1 0xA DUP1 PUSH1 0x0 ADD PUSH1 0x0 SWAP1 SLOAD SWAP1 PUSH2 0x100 EXP SWAP1 DIV PUSH28 0xFFFFFFFFFFFFFFFFFFFFFFFFFFFFFFFFFFFFFFFFFFFFFFFFFFFFFFFF AND SWAP1 POP DUP2 JUMP JUMPDEST PUSH1 0xE DUP1 SLOAD PUSH2 0xBC7 SWAP1 PUSH2 0x2155 JUMP JUMPDEST DUP1 PUSH1 0x1F ADD PUSH1 0x20 DUP1 SWAP2 DIV MUL PUSH1 0x20 ADD PUSH1 0x40 MLOAD SWAP1 DUP2 ADD PUSH1 0x40 MSTORE DUP1 SWAP3 SWAP2 SWAP1 DUP2 DUP2 MSTORE PUSH1 0x20 ADD DUP3 DUP1 SLOAD PUSH2 0xBF3 SWAP1 PUSH2 0x2155 JUMP JUMPDEST DUP1 ISZERO PUSH2 0xC40 JUMPI DUP1 PUSH1 0x1F LT PUSH2 0xC15 JUMPI PUSH2 0x100 DUP1 DUP4 SLOAD DIV MUL DUP4 MSTORE SWAP2 PUSH1 0x20 ADD SWAP2 PUSH2 0xC40 JUMP JUMPDEST DUP3 ADD SWAP2 SWAP1 PUSH1 0x0 MSTORE PUSH1 0x20 PUSH1 0x0 KECCAK256 SWAP1 JUMPDEST DUP2 SLOAD DUP2 MSTORE SWAP1 PUSH1 0x1 ADD SWAP1 PUSH1 0x20 ADD DUP1 DUP4 GT PUSH2 0xC23 JUMPI DUP3 SWAP1 SUB PUSH1 0x1F AND DUP3 ADD SWAP2 JUMPDEST POP POP POP POP POP DUP2 JUMP JUMPDEST PUSH1 0x0 DUP1 SLOAD SWAP1 PUSH2 0x100 EXP SWAP1 DIV PUSH20 0xFFFFFFFFFFFFFFFFFFFFFFFFFFFFFFFFFFFFFFFF AND PUSH20 0xFFFFFFFFFFFFFFFFFFFFFFFFFFFFFFFFFFFFFFFF AND CALLER PUSH20 0xFFFFFFFFFFFFFFFFFFFFFFFFFFFFFFFFFFFFFFFF AND EQ DUP1 PUSH2 0xCEF JUMPI POP PUSH1 0x2 PUSH1 0x0 SWAP1 SLOAD SWAP1 PUSH2 0x100 EXP SWAP1 DIV PUSH20 0xFFFFFFFFFFFFFFFFFFFFFFFFFFFFFFFFFFFFFFFF AND PUSH20 0xFFFFFFFFFFFFFFFFFFFFFFFFFFFFFFFFFFFFFFFF AND CALLER PUSH20 0xFFFFFFFFFFFFFFFFFFFFFFFFFFFFFFFFFFFFFFFF AND EQ JUMPDEST PUSH2 0xD2E JUMPI PUSH1 0x40 MLOAD PUSH32 0x8C379A000000000000000000000000000000000000000000000000000000000 DUP2 MSTORE PUSH1 0x4 ADD PUSH2 0xD25 SWAP1 PUSH2 0x1EBD JUMP JUMPDEST PUSH1 0x40 MLOAD DUP1 SWAP2 SUB SWAP1 REVERT JUMPDEST DUP1 PUSH1 0xB PUSH1 0x0 PUSH2 0x100 EXP DUP2 SLOAD DUP2 PUSH20 0xFFFFFFFFFFFFFFFFFFFFFFFFFFFFFFFFFFFFFFFF MUL NOT AND SWAP1 DUP4 PUSH20 0xFFFFFFFFFFFFFFFFFFFFFFFFFFFFFFFFFFFFFFFF AND MUL OR SWAP1 SSTORE POP POP JUMP JUMPDEST PUSH1 0x1 PUSH1 0x0 SWAP1 SLOAD SWAP1 PUSH2 0x100 EXP SWAP1 DIV PUSH20 0xFFFFFFFFFFFFFFFFFFFFFFFFFFFFFFFFFFFFFFFF AND PUSH20 0xFFFFFFFFFFFFFFFFFFFFFFFFFFFFFFFFFFFFFFFF AND CALLER PUSH20 0xFFFFFFFFFFFFFFFFFFFFFFFFFFFFFFFFFFFFFFFF AND EQ PUSH2 0xE02 JUMPI PUSH1 0x40 MLOAD PUSH32 0x8C379A000000000000000000000000000000000000000000000000000000000 DUP2 MSTORE PUSH1 0x4 ADD PUSH2 0xDF9 SWAP1 PUSH2 0x21F9 JUMP JUMPDEST PUSH1 0x40 MLOAD DUP1 SWAP2 SUB SWAP1 REVERT JUMPDEST PUSH32 0xB532073B38C83145E3E5135377A08BF9AAB55BC0FD7C1179CD4FB995D2A5159C PUSH1 0x0 DUP1 SLOAD SWAP1 PUSH2 0x100 EXP SWAP1 DIV PUSH20 0xFFFFFFFFFFFFFFFFFFFFFFFFFFFFFFFFFFFFFFFF AND PUSH1 0x1 PUSH1 0x0 SWAP1 SLOAD SWAP1 PUSH2 0x100 EXP SWAP1 DIV PUSH20 0xFFFFFFFFFFFFFFFFFFFFFFFFFFFFFFFFFFFFFFFF AND PUSH1 0x40 MLOAD PUSH2 0xE75 SWAP3 SWAP2 SWAP1 PUSH2 0x2219 JUMP JUMPDEST PUSH1 0x40 MLOAD DUP1 SWAP2 SUB SWAP1 LOG1 PUSH1 0x1 PUSH1 0x0 SWAP1 SLOAD SWAP1 PUSH2 0x100 EXP SWAP1 DIV PUSH20 0xFFFFFFFFFFFFFFFFFFFFFFFFFFFFFFFFFFFFFFFF AND PUSH1 0x0 DUP1 PUSH2 0x100 EXP DUP2 SLOAD DUP2 PUSH20 0xFFFFFFFFFFFFFFFFFFFFFFFFFFFFFFFFFFFFFFFF MUL NOT AND SWAP1 DUP4 PUSH20 0xFFFFFFFFFFFFFFFFFFFFFFFFFFFFFFFFFFFFFFFF AND MUL OR SWAP1 SSTORE POP PUSH1 0x0 PUSH1 0x1 PUSH1 0x0 PUSH2 0x100 EXP DUP2 SLOAD DUP2 PUSH20 0xFFFFFFFFFFFFFFFFFFFFFFFFFFFFFFFFFFFFFFFF MUL NOT AND SWAP1 DUP4 PUSH20 0xFFFFFFFFFFFFFFFFFFFFFFFFFFFFFFFFFFFFFFFF AND MUL OR SWAP1 SSTORE POP JUMP JUMPDEST PUSH1 0x0 DUP1 SLOAD SWAP1 PUSH2 0x100 EXP SWAP1 DIV PUSH20 0xFFFFFFFFFFFFFFFFFFFFFFFFFFFFFFFFFFFFFFFF AND DUP2 JUMP JUMPDEST PUSH1 0xC SLOAD DUP2 JUMP JUMPDEST PUSH1 0x0 DUP1 PUSH1 0x0 DUP1 PUSH1 0x0 SWAP2 SWAP4 SWAP6 SWAP1 SWAP3 SWAP5 POP JUMP JUMPDEST PUSH1 0x0 DUP1 PUSH2 0xF69 PUSH2 0x14DC JUMP JUMPDEST SWAP1 POP PUSH1 0x0 PUSH1 0x8 PUSH1 0x0 SWAP1 SLOAD SWAP1 PUSH2 0x100 EXP SWAP1 DIV PUSH4 0xFFFFFFFF AND DUP3 PUSH2 0xF8B SWAP2 SWAP1 PUSH2 0x1F9E JUMP JUMPDEST SWAP1 POP PUSH1 0x3 SLOAD DUP2 PUSH4 0xFFFFFFFF AND LT ISZERO SWAP3 POP POP POP SWAP1 JUMP JUMPDEST PUSH1 0x0 DUP1 PUSH1 0x0 PUSH2 0xFCE PUSH32 0x0 PUSH2 0x15D4 JUMP JUMPDEST SWAP3 POP SWAP3 POP SWAP3 POP PUSH1 0x0 PUSH1 0x8 PUSH1 0x0 SWAP1 SLOAD SWAP1 PUSH2 0x100 EXP SWAP1 DIV PUSH4 0xFFFFFFFF AND DUP3 PUSH2 0xFF4 SWAP2 SWAP1 PUSH2 0x1F9E JUMP JUMPDEST SWAP1 POP PUSH1 0x3 SLOAD DUP2 PUSH4 0xFFFFFFFF AND LT ISZERO PUSH2 0x1041 JUMPI PUSH1 0x40 MLOAD PUSH32 0x8C379A000000000000000000000000000000000000000000000000000000000 DUP2 MSTORE PUSH1 0x4 ADD PUSH2 0x1038 SWAP1 PUSH2 0x22B4 JUMP JUMPDEST PUSH1 0x40 MLOAD DUP1 SWAP2 SUB SWAP1 REVERT JUMPDEST PUSH1 0x40 MLOAD DUP1 PUSH1 0x20 ADD PUSH1 0x40 MSTORE DUP1 DUP3 PUSH4 0xFFFFFFFF AND PUSH1 0x6 SLOAD DUP8 PUSH2 0x1061 SWAP2 SWAP1 PUSH2 0x22D4 JUMP JUMPDEST PUSH2 0x106B SWAP2 SWAP1 PUSH2 0x2337 JUMP JUMPDEST PUSH28 0xFFFFFFFFFFFFFFFFFFFFFFFFFFFFFFFFFFFFFFFFFFFFFFFFFFFFFFFF AND DUP2 MSTORE POP PUSH1 0x9 PUSH1 0x0 DUP3 ADD MLOAD DUP2 PUSH1 0x0 ADD PUSH1 0x0 PUSH2 0x100 EXP DUP2 SLOAD DUP2 PUSH28 0xFFFFFFFFFFFFFFFFFFFFFFFFFFFFFFFFFFFFFFFFFFFFFFFFFFFFFFFF MUL NOT AND SWAP1 DUP4 PUSH28 0xFFFFFFFFFFFFFFFFFFFFFFFFFFFFFFFFFFFFFFFFFFFFFFFFFFFFFFFF AND MUL OR SWAP1 SSTORE POP SWAP1 POP POP PUSH1 0x40 MLOAD DUP1 PUSH1 0x20 ADD PUSH1 0x40 MSTORE DUP1 DUP3 PUSH4 0xFFFFFFFF AND PUSH1 0x7 SLOAD DUP7 PUSH2 0x1108 SWAP2 SWAP1 PUSH2 0x22D4 JUMP JUMPDEST PUSH2 0x1112 SWAP2 SWAP1 PUSH2 0x2337 JUMP JUMPDEST PUSH28 0xFFFFFFFFFFFFFFFFFFFFFFFFFFFFFFFFFFFFFFFFFFFFFFFFFFFFFFFF AND DUP2 MSTORE POP PUSH1 0xA PUSH1 0x0 DUP3 ADD MLOAD DUP2 PUSH1 0x0 ADD PUSH1 0x0 PUSH2 0x100 EXP DUP2 SLOAD DUP2 PUSH28 0xFFFFFFFFFFFFFFFFFFFFFFFFFFFFFFFFFFFFFFFFFFFFFFFFFFFFFFFF MUL NOT AND SWAP1 DUP4 PUSH28 0xFFFFFFFFFFFFFFFFFFFFFFFFFFFFFFFFFFFFFFFFFFFFFFFFFFFFFFFF AND MUL OR SWAP1 SSTORE POP SWAP1 POP POP DUP4 PUSH1 0x6 DUP2 SWAP1 SSTORE POP DUP3 PUSH1 0x7 DUP2 SWAP1 SSTORE POP DUP2 PUSH1 0x8 PUSH1 0x0 PUSH2 0x100 EXP DUP2 SLOAD DUP2 PUSH4 0xFFFFFFFF MUL NOT AND SWAP1 DUP4 PUSH4 0xFFFFFFFF AND MUL OR SWAP1 SSTORE POP POP POP POP POP JUMP JUMPDEST PUSH1 0x9 DUP1 PUSH1 0x0 ADD PUSH1 0x0 SWAP1 SLOAD SWAP1 PUSH2 0x100 EXP SWAP1 DIV PUSH28 0xFFFFFFFFFFFFFFFFFFFFFFFFFFFFFFFFFFFFFFFFFFFFFFFFFFFFFFFF AND SWAP1 POP DUP2 JUMP JUMPDEST PUSH32 0x0 DUP2 JUMP JUMPDEST PUSH1 0x3 SLOAD DUP2 JUMP JUMPDEST PUSH1 0x0 DUP1 SLOAD SWAP1 PUSH2 0x100 EXP SWAP1 DIV PUSH20 0xFFFFFFFFFFFFFFFFFFFFFFFFFFFFFFFFFFFFFFFF AND PUSH20 0xFFFFFFFFFFFFFFFFFFFFFFFFFFFFFFFFFFFFFFFF AND CALLER PUSH20 0xFFFFFFFFFFFFFFFFFFFFFFFFFFFFFFFFFFFFFFFF AND EQ DUP1 PUSH2 0x12C9 JUMPI POP PUSH1 0x2 PUSH1 0x0 SWAP1 SLOAD SWAP1 PUSH2 0x100 EXP SWAP1 DIV PUSH20 0xFFFFFFFFFFFFFFFFFFFFFFFFFFFFFFFFFFFFFFFF AND PUSH20 0xFFFFFFFFFFFFFFFFFFFFFFFFFFFFFFFFFFFFFFFF AND CALLER PUSH20 0xFFFFFFFFFFFFFFFFFFFFFFFFFFFFFFFFFFFFFFFF AND EQ JUMPDEST PUSH2 0x1308 JUMPI PUSH1 0x40 MLOAD PUSH32 0x8C379A000000000000000000000000000000000000000000000000000000000 DUP2 MSTORE PUSH1 0x4 ADD PUSH2 0x12FF SWAP1 PUSH2 0x1EBD JUMP JUMPDEST PUSH1 0x40 MLOAD DUP1 SWAP2 SUB SWAP1 REVERT JUMPDEST DUP1 PUSH1 0x2 PUSH1 0x0 PUSH2 0x100 EXP DUP2 SLOAD DUP2 PUSH20 0xFFFFFFFFFFFFFFFFFFFFFFFFFFFFFFFFFFFFFFFF MUL NOT AND SWAP1 DUP4 PUSH20 0xFFFFFFFFFFFFFFFFFFFFFFFFFFFFFFFFFFFFFFFF AND MUL OR SWAP1 SSTORE POP POP JUMP JUMPDEST PUSH1 0x8 PUSH1 0x0 SWAP1 SLOAD SWAP1 PUSH2 0x100 EXP SWAP1 DIV PUSH4 0xFFFFFFFF AND DUP2 JUMP JUMPDEST PUSH32 0x0 DUP2 JUMP JUMPDEST PUSH1 0x0 DUP1 SLOAD SWAP1 PUSH2 0x100 EXP SWAP1 DIV PUSH20 0xFFFFFFFFFFFFFFFFFFFFFFFFFFFFFFFFFFFFFFFF AND PUSH20 0xFFFFFFFFFFFFFFFFFFFFFFFFFFFFFFFFFFFFFFFF AND CALLER PUSH20 0xFFFFFFFFFFFFFFFFFFFFFFFFFFFFFFFFFFFFFFFF AND EQ DUP1 PUSH2 0x142D JUMPI POP PUSH1 0x2 PUSH1 0x0 SWAP1 SLOAD SWAP1 PUSH2 0x100 EXP SWAP1 DIV PUSH20 0xFFFFFFFFFFFFFFFFFFFFFFFFFFFFFFFFFFFFFFFF AND PUSH20 0xFFFFFFFFFFFFFFFFFFFFFFFFFFFFFFFFFFFFFFFF AND CALLER PUSH20 0xFFFFFFFFFFFFFFFFFFFFFFFFFFFFFFFFFFFFFFFF AND EQ JUMPDEST PUSH2 0x146C JUMPI PUSH1 0x40 MLOAD PUSH32 0x8C379A000000000000000000000000000000000000000000000000000000000 DUP2 MSTORE PUSH1 0x4 ADD PUSH2 0x1463 SWAP1 PUSH2 0x1EBD JUMP JUMPDEST PUSH1 0x40 MLOAD DUP1 SWAP2 SUB SWAP1 REVERT JUMPDEST DUP1 PUSH1 0x5 PUSH1 0x0 PUSH2 0x100 EXP DUP2 SLOAD DUP2 PUSH1 0xFF MUL NOT AND SWAP1 DUP4 ISZERO ISZERO MUL OR SWAP1 SSTORE POP POP JUMP JUMPDEST PUSH1 0x0 DUP1 PUSH1 0x0 DUP1 PUSH1 0x0 DUP1 PUSH2 0x14C0 PUSH1 0xB PUSH1 0x0 SWAP1 SLOAD SWAP1 PUSH2 0x100 EXP SWAP1 DIV PUSH20 0xFFFFFFFFFFFFFFFFFFFFFFFFFFFFFFFFFFFFFFFF AND PUSH1 0xC SLOAD PUSH2 0x775 JUMP JUMPDEST SWAP1 POP PUSH1 0x0 DUP2 PUSH1 0x0 DUP1 PUSH1 0x0 SWAP6 POP SWAP6 POP SWAP6 POP SWAP6 POP SWAP6 POP POP SWAP1 SWAP2 SWAP3 SWAP4 SWAP5 JUMP JUMPDEST PUSH1 0x0 PUSH5 0x100000000 TIMESTAMP PUSH2 0x14EF SWAP2 SWAP1 PUSH2 0x2368 JUMP JUMPDEST SWAP1 POP SWAP1 JUMP JUMPDEST PUSH2 0x14FC PUSH2 0x190F JUMP JUMPDEST PUSH1 0x0 DUP1 DUP4 EQ DUP1 PUSH2 0x1568 JUMPI POP DUP4 PUSH1 0x0 ADD MLOAD PUSH28 0xFFFFFFFFFFFFFFFFFFFFFFFFFFFFFFFFFFFFFFFFFFFFFFFFFFFFFFFF AND DUP4 DUP5 DUP7 PUSH1 0x0 ADD MLOAD PUSH28 0xFFFFFFFFFFFFFFFFFFFFFFFFFFFFFFFFFFFFFFFFFFFFFFFFFFFFFFFF AND PUSH2 0x1559 SWAP2 SWAP1 PUSH2 0x2399 JUMP JUMPDEST SWAP3 POP DUP3 PUSH2 0x1566 SWAP2 SWAP1 PUSH2 0x2337 JUMP JUMPDEST EQ JUMPDEST PUSH2 0x15A7 JUMPI PUSH1 0x40 MLOAD PUSH32 0x8C379A000000000000000000000000000000000000000000000000000000000 DUP2 MSTORE PUSH1 0x4 ADD PUSH2 0x159E SWAP1 PUSH2 0x2465 JUMP JUMPDEST PUSH1 0x40 MLOAD DUP1 SWAP2 SUB SWAP1 REVERT JUMPDEST PUSH1 0x40 MLOAD DUP1 PUSH1 0x20 ADD PUSH1 0x40 MSTORE DUP1 DUP3 DUP2 MSTORE POP SWAP2 POP POP SWAP3 SWAP2 POP POP JUMP JUMPDEST PUSH1 0x0 PUSH1 0x70 PUSH1 0xFF AND DUP3 PUSH1 0x0 ADD MLOAD SWAP1 SHR SWAP1 POP SWAP2 SWAP1 POP JUMP JUMPDEST PUSH1 0x0 DUP1 PUSH1 0x0 PUSH2 0x15E1 PUSH2 0x14DC JUMP JUMPDEST SWAP1 POP DUP4 PUSH20 0xFFFFFFFFFFFFFFFFFFFFFFFFFFFFFFFFFFFFFFFF AND PUSH4 0x5909C0D5 PUSH1 0x40 MLOAD DUP2 PUSH4 0xFFFFFFFF AND PUSH1 0xE0 SHL DUP2 MSTORE PUSH1 0x4 ADD PUSH1 0x20 PUSH1 0x40 MLOAD DUP1 DUP4 SUB DUP2 DUP7 DUP1 EXTCODESIZE ISZERO DUP1 ISZERO PUSH2 0x1629 JUMPI PUSH1 0x0 DUP1 REVERT JUMPDEST POP GAS STATICCALL ISZERO DUP1 ISZERO PUSH2 0x163D JUMPI RETURNDATASIZE PUSH1 0x0 DUP1 RETURNDATACOPY RETURNDATASIZE PUSH1 0x0 REVERT JUMPDEST POP POP POP POP PUSH1 0x40 MLOAD RETURNDATASIZE PUSH1 0x1F NOT PUSH1 0x1F DUP3 ADD AND DUP3 ADD DUP1 PUSH1 0x40 MSTORE POP DUP2 ADD SWAP1 PUSH2 0x1661 SWAP2 SWAP1 PUSH2 0x249A JUMP JUMPDEST SWAP3 POP DUP4 PUSH20 0xFFFFFFFFFFFFFFFFFFFFFFFFFFFFFFFFFFFFFFFF AND PUSH4 0x5A3D5493 PUSH1 0x40 MLOAD DUP2 PUSH4 0xFFFFFFFF AND PUSH1 0xE0 SHL DUP2 MSTORE PUSH1 0x4 ADD PUSH1 0x20 PUSH1 0x40 MLOAD DUP1 DUP4 SUB DUP2 DUP7 DUP1 EXTCODESIZE ISZERO DUP1 ISZERO PUSH2 0x16A9 JUMPI PUSH1 0x0 DUP1 REVERT JUMPDEST POP GAS STATICCALL ISZERO DUP1 ISZERO PUSH2 0x16BD JUMPI RETURNDATASIZE PUSH1 0x0 DUP1 RETURNDATACOPY RETURNDATASIZE PUSH1 0x0 REVERT JUMPDEST POP POP POP POP PUSH1 0x40 MLOAD RETURNDATASIZE PUSH1 0x1F NOT PUSH1 0x1F DUP3 ADD AND DUP3 ADD DUP1 PUSH1 0x40 MSTORE POP DUP2 ADD SWAP1 PUSH2 0x16E1 SWAP2 SWAP1 PUSH2 0x249A JUMP JUMPDEST SWAP2 POP PUSH1 0x0 DUP1 PUSH1 0x0 DUP7 PUSH20 0xFFFFFFFFFFFFFFFFFFFFFFFFFFFFFFFFFFFFFFFF AND PUSH4 0x902F1AC PUSH1 0x40 MLOAD DUP2 PUSH4 0xFFFFFFFF AND PUSH1 0xE0 SHL DUP2 MSTORE PUSH1 0x4 ADD PUSH1 0x60 PUSH1 0x40 MLOAD DUP1 DUP4 SUB DUP2 DUP7 DUP1 EXTCODESIZE ISZERO DUP1 ISZERO PUSH2 0x172E JUMPI PUSH1 0x0 DUP1 REVERT JUMPDEST POP GAS STATICCALL ISZERO DUP1 ISZERO PUSH2 0x1742 JUMPI RETURNDATASIZE PUSH1 0x0 DUP1 RETURNDATACOPY RETURNDATASIZE PUSH1 0x0 REVERT JUMPDEST POP POP POP POP PUSH1 0x40 MLOAD RETURNDATASIZE PUSH1 0x1F NOT PUSH1 0x1F DUP3 ADD AND DUP3 ADD DUP1 PUSH1 0x40 MSTORE POP DUP2 ADD SWAP1 PUSH2 0x1766 SWAP2 SWAP1 PUSH2 0x2539 JUMP JUMPDEST SWAP3 POP SWAP3 POP SWAP3 POP DUP4 PUSH4 0xFFFFFFFF AND DUP2 PUSH4 0xFFFFFFFF AND EQ PUSH2 0x1825 JUMPI PUSH1 0x0 DUP2 DUP6 PUSH2 0x178D SWAP2 SWAP1 PUSH2 0x1F9E JUMP JUMPDEST SWAP1 POP DUP1 PUSH4 0xFFFFFFFF AND PUSH2 0x17A0 DUP5 DUP7 PUSH2 0x182F JUMP JUMPDEST PUSH1 0x0 ADD MLOAD PUSH28 0xFFFFFFFFFFFFFFFFFFFFFFFFFFFFFFFFFFFFFFFFFFFFFFFFFFFFFFFF AND PUSH2 0x17CC SWAP2 SWAP1 PUSH2 0x2399 JUMP JUMPDEST DUP8 PUSH2 0x17D7 SWAP2 SWAP1 PUSH2 0x1FD2 JUMP JUMPDEST SWAP7 POP DUP1 PUSH4 0xFFFFFFFF AND PUSH2 0x17EA DUP6 DUP6 PUSH2 0x182F JUMP JUMPDEST PUSH1 0x0 ADD MLOAD PUSH28 0xFFFFFFFFFFFFFFFFFFFFFFFFFFFFFFFFFFFFFFFFFFFFFFFFFFFFFFFF AND PUSH2 0x1816 SWAP2 SWAP1 PUSH2 0x2399 JUMP JUMPDEST DUP7 PUSH2 0x1821 SWAP2 SWAP1 PUSH2 0x1FD2 JUMP JUMPDEST SWAP6 POP POP JUMPDEST POP POP POP SWAP2 SWAP4 SWAP1 SWAP3 POP JUMP JUMPDEST PUSH2 0x1837 PUSH2 0x1922 JUMP JUMPDEST PUSH1 0x0 DUP3 PUSH14 0xFFFFFFFFFFFFFFFFFFFFFFFFFFFF AND GT PUSH2 0x188A JUMPI PUSH1 0x40 MLOAD PUSH32 0x8C379A000000000000000000000000000000000000000000000000000000000 DUP2 MSTORE PUSH1 0x4 ADD PUSH2 0x1881 SWAP1 PUSH2 0x25D8 JUMP JUMPDEST PUSH1 0x40 MLOAD DUP1 SWAP2 SUB SWAP1 REVERT JUMPDEST PUSH1 0x40 MLOAD DUP1 PUSH1 0x20 ADD PUSH1 0x40 MSTORE DUP1 DUP4 PUSH14 0xFFFFFFFFFFFFFFFFFFFFFFFFFFFF AND PUSH1 0x70 PUSH1 0xFF AND DUP7 PUSH14 0xFFFFFFFFFFFFFFFFFFFFFFFFFFFF AND PUSH28 0xFFFFFFFFFFFFFFFFFFFFFFFFFFFFFFFFFFFFFFFFFFFFFFFFFFFFFFFF AND SWAP1 SHL PUSH2 0x18E6 SWAP2 SWAP1 PUSH2 0x25F8 JUMP JUMPDEST PUSH28 0xFFFFFFFFFFFFFFFFFFFFFFFFFFFFFFFFFFFFFFFFFFFFFFFFFFFFFFFF AND DUP2 MSTORE POP SWAP1 POP SWAP3 SWAP2 POP POP JUMP JUMPDEST PUSH1 0x40 MLOAD DUP1 PUSH1 0x20 ADD PUSH1 0x40 MSTORE DUP1 PUSH1 0x0 DUP2 MSTORE POP SWAP1 JUMP JUMPDEST PUSH1 0x40 MLOAD DUP1 PUSH1 0x20 ADD PUSH1 0x40 MSTORE DUP1 PUSH1 0x0 PUSH28 0xFFFFFFFFFFFFFFFFFFFFFFFFFFFFFFFFFFFFFFFFFFFFFFFFFFFFFFFF AND DUP2 MSTORE POP SWAP1 JUMP JUMPDEST PUSH1 0x0 PUSH20 0xFFFFFFFFFFFFFFFFFFFFFFFFFFFFFFFFFFFFFFFF DUP3 AND SWAP1 POP SWAP2 SWAP1 POP JUMP JUMPDEST PUSH1 0x0 PUSH2 0x197E DUP3 PUSH2 0x1953 JUMP JUMPDEST SWAP1 POP SWAP2 SWAP1 POP JUMP JUMPDEST PUSH2 0x198E DUP2 PUSH2 0x1973 JUMP JUMPDEST DUP3 MSTORE POP POP JUMP JUMPDEST PUSH1 0x0 PUSH1 0x20 DUP3 ADD SWAP1 POP PUSH2 0x19A9 PUSH1 0x0 DUP4 ADD DUP5 PUSH2 0x1985 JUMP JUMPDEST SWAP3 SWAP2 POP POP JUMP JUMPDEST PUSH1 0x0 DUP1 REVERT JUMPDEST PUSH1 0x0 DUP2 SWAP1 POP SWAP2 SWAP1 POP JUMP JUMPDEST PUSH2 0x19C7 DUP2 PUSH2 0x19B4 JUMP JUMPDEST DUP2 EQ PUSH2 0x19D2 JUMPI PUSH1 0x0 DUP1 REVERT JUMPDEST POP JUMP JUMPDEST PUSH1 0x0 DUP2 CALLDATALOAD SWAP1 POP PUSH2 0x19E4 DUP2 PUSH2 0x19BE JUMP JUMPDEST SWAP3 SWAP2 POP POP JUMP JUMPDEST PUSH1 0x0 PUSH1 0x20 DUP3 DUP5 SUB SLT ISZERO PUSH2 0x1A00 JUMPI PUSH2 0x19FF PUSH2 0x19AF JUMP JUMPDEST JUMPDEST PUSH1 0x0 PUSH2 0x1A0E DUP5 DUP3 DUP6 ADD PUSH2 0x19D5 JUMP JUMPDEST SWAP2 POP POP SWAP3 SWAP2 POP POP JUMP JUMPDEST PUSH2 0x1A20 DUP2 PUSH2 0x1973 JUMP JUMPDEST DUP2 EQ PUSH2 0x1A2B JUMPI PUSH1 0x0 DUP1 REVERT JUMPDEST POP JUMP JUMPDEST PUSH1 0x0 DUP2 CALLDATALOAD SWAP1 POP PUSH2 0x1A3D DUP2 PUSH2 0x1A17 JUMP JUMPDEST SWAP3 SWAP2 POP POP JUMP JUMPDEST PUSH1 0x0 PUSH1 0x20 DUP3 DUP5 SUB SLT ISZERO PUSH2 0x1A59 JUMPI PUSH2 0x1A58 PUSH2 0x19AF JUMP JUMPDEST JUMPDEST PUSH1 0x0 PUSH2 0x1A67 DUP5 DUP3 DUP6 ADD PUSH2 0x1A2E JUMP JUMPDEST SWAP2 POP POP SWAP3 SWAP2 POP POP JUMP JUMPDEST PUSH1 0x0 DUP2 ISZERO ISZERO SWAP1 POP SWAP2 SWAP1 POP JUMP JUMPDEST PUSH2 0x1A85 DUP2 PUSH2 0x1A70 JUMP JUMPDEST DUP3 MSTORE POP POP JUMP JUMPDEST PUSH1 0x0 PUSH1 0x20 DUP3 ADD SWAP1 POP PUSH2 0x1AA0 PUSH1 0x0 DUP4 ADD DUP5 PUSH2 0x1A7C JUMP JUMPDEST SWAP3 SWAP2 POP POP JUMP JUMPDEST PUSH1 0x0 PUSH1 0xFF DUP3 AND SWAP1 POP SWAP2 SWAP1 POP JUMP JUMPDEST PUSH2 0x1ABC DUP2 PUSH2 0x1AA6 JUMP JUMPDEST DUP3 MSTORE POP POP JUMP JUMPDEST PUSH1 0x0 PUSH1 0x20 DUP3 ADD SWAP1 POP PUSH2 0x1AD7 PUSH1 0x0 DUP4 ADD DUP5 PUSH2 0x1AB3 JUMP JUMPDEST SWAP3 SWAP2 POP POP JUMP JUMPDEST PUSH1 0x0 DUP1 PUSH1 0x40 DUP4 DUP6 SUB SLT ISZERO PUSH2 0x1AF4 JUMPI PUSH2 0x1AF3 PUSH2 0x19AF JUMP JUMPDEST JUMPDEST PUSH1 0x0 PUSH2 0x1B02 DUP6 DUP3 DUP7 ADD PUSH2 0x1A2E JUMP JUMPDEST SWAP3 POP POP PUSH1 0x20 PUSH2 0x1B13 DUP6 DUP3 DUP7 ADD PUSH2 0x19D5 JUMP JUMPDEST SWAP2 POP POP SWAP3 POP SWAP3 SWAP1 POP JUMP JUMPDEST PUSH2 0x1B26 DUP2 PUSH2 0x19B4 JUMP JUMPDEST DUP3 MSTORE POP POP JUMP JUMPDEST PUSH1 0x0 PUSH1 0x20 DUP3 ADD SWAP1 POP PUSH2 0x1B41 PUSH1 0x0 DUP4 ADD DUP5 PUSH2 0x1B1D JUMP JUMPDEST SWAP3 SWAP2 POP POP JUMP JUMPDEST PUSH1 0x0 PUSH28 0xFFFFFFFFFFFFFFFFFFFFFFFFFFFFFFFFFFFFFFFFFFFFFFFFFFFFFFFF DUP3 AND SWAP1 POP SWAP2 SWAP1 POP JUMP JUMPDEST PUSH2 0x1B78 DUP2 PUSH2 0x1B47 JUMP JUMPDEST DUP3 MSTORE POP POP JUMP JUMPDEST PUSH1 0x0 PUSH1 0x20 DUP3 ADD SWAP1 POP PUSH2 0x1B93 PUSH1 0x0 DUP4 ADD DUP5 PUSH2 0x1B6F JUMP JUMPDEST SWAP3 SWAP2 POP POP JUMP JUMPDEST PUSH1 0x0 DUP2 MLOAD SWAP1 POP SWAP2 SWAP1 POP JUMP JUMPDEST PUSH1 0x0 DUP3 DUP3 MSTORE PUSH1 0x20 DUP3 ADD SWAP1 POP SWAP3 SWAP2 POP POP JUMP JUMPDEST PUSH1 0x0 JUMPDEST DUP4 DUP2 LT ISZERO PUSH2 0x1BD3 JUMPI DUP1 DUP3 ADD MLOAD DUP2 DUP5 ADD MSTORE PUSH1 0x20 DUP2 ADD SWAP1 POP PUSH2 0x1BB8 JUMP JUMPDEST DUP4 DUP2 GT ISZERO PUSH2 0x1BE2 JUMPI PUSH1 0x0 DUP5 DUP5 ADD MSTORE JUMPDEST POP POP POP POP JUMP JUMPDEST PUSH1 0x0 PUSH1 0x1F NOT PUSH1 0x1F DUP4 ADD AND SWAP1 POP SWAP2 SWAP1 POP JUMP JUMPDEST PUSH1 0x0 PUSH2 0x1C04 DUP3 PUSH2 0x1B99 JUMP JUMPDEST PUSH2 0x1C0E DUP2 DUP6 PUSH2 0x1BA4 JUMP JUMPDEST SWAP4 POP PUSH2 0x1C1E DUP2 DUP6 PUSH1 0x20 DUP7 ADD PUSH2 0x1BB5 JUMP JUMPDEST PUSH2 0x1C27 DUP2 PUSH2 0x1BE8 JUMP JUMPDEST DUP5 ADD SWAP2 POP POP SWAP3 SWAP2 POP POP JUMP JUMPDEST PUSH1 0x0 PUSH1 0x20 DUP3 ADD SWAP1 POP DUP2 DUP2 SUB PUSH1 0x0 DUP4 ADD MSTORE PUSH2 0x1C4C DUP2 DUP5 PUSH2 0x1BF9 JUMP JUMPDEST SWAP1 POP SWAP3 SWAP2 POP POP JUMP JUMPDEST PUSH1 0x0 PUSH10 0xFFFFFFFFFFFFFFFFFFFF DUP3 AND SWAP1 POP SWAP2 SWAP1 POP JUMP JUMPDEST PUSH2 0x1C73 DUP2 PUSH2 0x1C54 JUMP JUMPDEST DUP2 EQ PUSH2 0x1C7E JUMPI PUSH1 0x0 DUP1 REVERT JUMPDEST POP JUMP JUMPDEST PUSH1 0x0 DUP2 CALLDATALOAD SWAP1 POP PUSH2 0x1C90 DUP2 PUSH2 0x1C6A JUMP JUMPDEST SWAP3 SWAP2 POP POP JUMP JUMPDEST PUSH1 0x0 PUSH1 0x20 DUP3 DUP5 SUB SLT ISZERO PUSH2 0x1CAC JUMPI PUSH2 0x1CAB PUSH2 0x19AF JUMP JUMPDEST JUMPDEST PUSH1 0x0 PUSH2 0x1CBA DUP5 DUP3 DUP6 ADD PUSH2 0x1C81 JUMP JUMPDEST SWAP2 POP POP SWAP3 SWAP2 POP POP JUMP JUMPDEST PUSH2 0x1CCC DUP2 PUSH2 0x1C54 JUMP JUMPDEST DUP3 MSTORE POP POP JUMP JUMPDEST PUSH1 0x0 DUP2 SWAP1 POP SWAP2 SWAP1 POP JUMP JUMPDEST PUSH2 0x1CE5 DUP2 PUSH2 0x1CD2 JUMP JUMPDEST DUP3 MSTORE POP POP JUMP JUMPDEST PUSH1 0x0 PUSH1 0xA0 DUP3 ADD SWAP1 POP PUSH2 0x1D00 PUSH1 0x0 DUP4 ADD DUP9 PUSH2 0x1CC3 JUMP JUMPDEST PUSH2 0x1D0D PUSH1 0x20 DUP4 ADD DUP8 PUSH2 0x1CDC JUMP JUMPDEST PUSH2 0x1D1A PUSH1 0x40 DUP4 ADD DUP7 PUSH2 0x1B1D JUMP JUMPDEST PUSH2 0x1D27 PUSH1 0x60 DUP4 ADD DUP6 PUSH2 0x1B1D JUMP JUMPDEST PUSH2 0x1D34 PUSH1 0x80 DUP4 ADD DUP5 PUSH2 0x1CC3 JUMP JUMPDEST SWAP7 SWAP6 POP POP POP POP POP POP JUMP JUMPDEST PUSH1 0x0 DUP2 SWAP1 POP SWAP2 SWAP1 POP JUMP JUMPDEST PUSH1 0x0 PUSH2 0x1D63 PUSH2 0x1D5E PUSH2 0x1D59 DUP5 PUSH2 0x1953 JUMP JUMPDEST PUSH2 0x1D3E JUMP JUMPDEST PUSH2 0x1953 JUMP JUMPDEST SWAP1 POP SWAP2 SWAP1 POP JUMP JUMPDEST PUSH1 0x0 PUSH2 0x1D75 DUP3 PUSH2 0x1D48 JUMP JUMPDEST SWAP1 POP SWAP2 SWAP1 POP JUMP JUMPDEST PUSH1 0x0 PUSH2 0x1D87 DUP3 PUSH2 0x1D6A JUMP JUMPDEST SWAP1 POP SWAP2 SWAP1 POP JUMP JUMPDEST PUSH2 0x1D97 DUP2 PUSH2 0x1D7C JUMP JUMPDEST DUP3 MSTORE POP POP JUMP JUMPDEST PUSH1 0x0 PUSH1 0x20 DUP3 ADD SWAP1 POP PUSH2 0x1DB2 PUSH1 0x0 DUP4 ADD DUP5 PUSH2 0x1D8E JUMP JUMPDEST SWAP3 SWAP2 POP POP JUMP JUMPDEST PUSH1 0x0 PUSH4 0xFFFFFFFF DUP3 AND SWAP1 POP SWAP2 SWAP1 POP JUMP JUMPDEST PUSH2 0x1DD1 DUP2 PUSH2 0x1DB8 JUMP JUMPDEST DUP3 MSTORE POP POP JUMP JUMPDEST PUSH1 0x0 PUSH1 0x20 DUP3 ADD SWAP1 POP PUSH2 0x1DEC PUSH1 0x0 DUP4 ADD DUP5 PUSH2 0x1DC8 JUMP JUMPDEST SWAP3 SWAP2 POP POP JUMP JUMPDEST PUSH2 0x1DFB DUP2 PUSH2 0x1A70 JUMP JUMPDEST DUP2 EQ PUSH2 0x1E06 JUMPI PUSH1 0x0 DUP1 REVERT JUMPDEST POP JUMP JUMPDEST PUSH1 0x0 DUP2 CALLDATALOAD SWAP1 POP PUSH2 0x1E18 DUP2 PUSH2 0x1DF2 JUMP JUMPDEST SWAP3 SWAP2 POP POP JUMP JUMPDEST PUSH1 0x0 PUSH1 0x20 DUP3 DUP5 SUB SLT ISZERO PUSH2 0x1E34 JUMPI PUSH2 0x1E33 PUSH2 0x19AF JUMP JUMPDEST JUMPDEST PUSH1 0x0 PUSH2 0x1E42 DUP5 DUP3 DUP6 ADD PUSH2 0x1E09 JUMP JUMPDEST SWAP2 POP POP SWAP3 SWAP2 POP POP JUMP JUMPDEST PUSH32 0x596F7520617265206E6F7420616E206F776E6572206F722074686520676F7665 PUSH1 0x0 DUP3 ADD MSTORE PUSH32 0x726E616E63652074696D656C6F636B0000000000000000000000000000000000 PUSH1 0x20 DUP3 ADD MSTORE POP JUMP JUMPDEST PUSH1 0x0 PUSH2 0x1EA7 PUSH1 0x2F DUP4 PUSH2 0x1BA4 JUMP JUMPDEST SWAP2 POP PUSH2 0x1EB2 DUP3 PUSH2 0x1E4B JUMP JUMPDEST PUSH1 0x40 DUP3 ADD SWAP1 POP SWAP2 SWAP1 POP JUMP JUMPDEST PUSH1 0x0 PUSH1 0x20 DUP3 ADD SWAP1 POP DUP2 DUP2 SUB PUSH1 0x0 DUP4 ADD MSTORE PUSH2 0x1ED6 DUP2 PUSH2 0x1E9A JUMP JUMPDEST SWAP1 POP SWAP2 SWAP1 POP JUMP JUMPDEST PUSH32 0x4F6E6C792074686520636F6E7472616374206F776E6572206D61792070657266 PUSH1 0x0 DUP3 ADD MSTORE PUSH32 0x6F726D207468697320616374696F6E0000000000000000000000000000000000 PUSH1 0x20 DUP3 ADD MSTORE POP JUMP JUMPDEST PUSH1 0x0 PUSH2 0x1F39 PUSH1 0x2F DUP4 PUSH2 0x1BA4 JUMP JUMPDEST SWAP2 POP PUSH2 0x1F44 DUP3 PUSH2 0x1EDD JUMP JUMPDEST PUSH1 0x40 DUP3 ADD SWAP1 POP SWAP2 SWAP1 POP JUMP JUMPDEST PUSH1 0x0 PUSH1 0x20 DUP3 ADD SWAP1 POP DUP2 DUP2 SUB PUSH1 0x0 DUP4 ADD MSTORE PUSH2 0x1F68 DUP2 PUSH2 0x1F2C JUMP JUMPDEST SWAP1 POP SWAP2 SWAP1 POP JUMP JUMPDEST PUSH32 0x4E487B7100000000000000000000000000000000000000000000000000000000 PUSH1 0x0 MSTORE PUSH1 0x11 PUSH1 0x4 MSTORE PUSH1 0x24 PUSH1 0x0 REVERT JUMPDEST PUSH1 0x0 PUSH2 0x1FA9 DUP3 PUSH2 0x1DB8 JUMP JUMPDEST SWAP2 POP PUSH2 0x1FB4 DUP4 PUSH2 0x1DB8 JUMP JUMPDEST SWAP3 POP DUP3 DUP3 LT ISZERO PUSH2 0x1FC7 JUMPI PUSH2 0x1FC6 PUSH2 0x1F6F JUMP JUMPDEST JUMPDEST DUP3 DUP3 SUB SWAP1 POP SWAP3 SWAP2 POP POP JUMP JUMPDEST PUSH1 0x0 PUSH2 0x1FDD DUP3 PUSH2 0x19B4 JUMP JUMPDEST SWAP2 POP PUSH2 0x1FE8 DUP4 PUSH2 0x19B4 JUMP JUMPDEST SWAP3 POP DUP3 PUSH32 0xFFFFFFFFFFFFFFFFFFFFFFFFFFFFFFFFFFFFFFFFFFFFFFFFFFFFFFFFFFFFFFFF SUB DUP3 GT ISZERO PUSH2 0x201D JUMPI PUSH2 0x201C PUSH2 0x1F6F JUMP JUMPDEST JUMPDEST DUP3 DUP3 ADD SWAP1 POP SWAP3 SWAP2 POP POP JUMP JUMPDEST PUSH32 0x556E6973776170506169724F7261636C653A2050524943455F49535F5354414C PUSH1 0x0 DUP3 ADD MSTORE PUSH32 0x455F4E4545445F544F5F43414C4C5F5550444154450000000000000000000000 PUSH1 0x20 DUP3 ADD MSTORE POP JUMP JUMPDEST PUSH1 0x0 PUSH2 0x2084 PUSH1 0x35 DUP4 PUSH2 0x1BA4 JUMP JUMPDEST SWAP2 POP PUSH2 0x208F DUP3 PUSH2 0x2028 JUMP JUMPDEST PUSH1 0x40 DUP3 ADD SWAP1 POP SWAP2 SWAP1 POP JUMP JUMPDEST PUSH1 0x0 PUSH1 0x20 DUP3 ADD SWAP1 POP DUP2 DUP2 SUB PUSH1 0x0 DUP4 ADD MSTORE PUSH2 0x20B3 DUP2 PUSH2 0x2077 JUMP JUMPDEST SWAP1 POP SWAP2 SWAP1 POP JUMP JUMPDEST PUSH32 0x556E6973776170506169724F7261636C653A20494E56414C49445F544F4B454E PUSH1 0x0 DUP3 ADD MSTORE POP JUMP JUMPDEST PUSH1 0x0 PUSH2 0x20F0 PUSH1 0x20 DUP4 PUSH2 0x1BA4 JUMP JUMPDEST SWAP2 POP PUSH2 0x20FB DUP3 PUSH2 0x20BA JUMP JUMPDEST PUSH1 0x20 DUP3 ADD SWAP1 POP SWAP2 SWAP1 POP JUMP JUMPDEST PUSH1 0x0 PUSH1 0x20 DUP3 ADD SWAP1 POP DUP2 DUP2 SUB PUSH1 0x0 DUP4 ADD MSTORE PUSH2 0x211F DUP2 PUSH2 0x20E3 JUMP JUMPDEST SWAP1 POP SWAP2 SWAP1 POP JUMP JUMPDEST PUSH32 0x4E487B7100000000000000000000000000000000000000000000000000000000 PUSH1 0x0 MSTORE PUSH1 0x22 PUSH1 0x4 MSTORE PUSH1 0x24 PUSH1 0x0 REVERT JUMPDEST PUSH1 0x0 PUSH1 0x2 DUP3 DIV SWAP1 POP PUSH1 0x1 DUP3 AND DUP1 PUSH2 0x216D JUMPI PUSH1 0x7F DUP3 AND SWAP2 POP JUMPDEST PUSH1 0x20 DUP3 LT DUP2 EQ ISZERO PUSH2 0x2181 JUMPI PUSH2 0x2180 PUSH2 0x2126 JUMP JUMPDEST JUMPDEST POP SWAP2 SWAP1 POP JUMP JUMPDEST PUSH32 0x596F75206D757374206265206E6F6D696E61746564206265666F726520796F75 PUSH1 0x0 DUP3 ADD MSTORE PUSH32 0x2063616E20616363657074206F776E6572736869700000000000000000000000 PUSH1 0x20 DUP3 ADD MSTORE POP JUMP JUMPDEST PUSH1 0x0 PUSH2 0x21E3 PUSH1 0x35 DUP4 PUSH2 0x1BA4 JUMP JUMPDEST SWAP2 POP PUSH2 0x21EE DUP3 PUSH2 0x2187 JUMP JUMPDEST PUSH1 0x40 DUP3 ADD SWAP1 POP SWAP2 SWAP1 POP JUMP JUMPDEST PUSH1 0x0 PUSH1 0x20 DUP3 ADD SWAP1 POP DUP2 DUP2 SUB PUSH1 0x0 DUP4 ADD MSTORE PUSH2 0x2212 DUP2 PUSH2 0x21D6 JUMP JUMPDEST SWAP1 POP SWAP2 SWAP1 POP JUMP JUMPDEST PUSH1 0x0 PUSH1 0x40 DUP3 ADD SWAP1 POP PUSH2 0x222E PUSH1 0x0 DUP4 ADD DUP6 PUSH2 0x1985 JUMP JUMPDEST PUSH2 0x223B PUSH1 0x20 DUP4 ADD DUP5 PUSH2 0x1985 JUMP JUMPDEST SWAP4 SWAP3 POP POP POP JUMP JUMPDEST PUSH32 0x556E6973776170506169724F7261636C653A20504552494F445F4E4F545F454C PUSH1 0x0 DUP3 ADD MSTORE PUSH32 0x4150534544000000000000000000000000000000000000000000000000000000 PUSH1 0x20 DUP3 ADD MSTORE POP JUMP JUMPDEST PUSH1 0x0 PUSH2 0x229E PUSH1 0x25 DUP4 PUSH2 0x1BA4 JUMP JUMPDEST SWAP2 POP PUSH2 0x22A9 DUP3 PUSH2 0x2242 JUMP JUMPDEST PUSH1 0x40 DUP3 ADD SWAP1 POP SWAP2 SWAP1 POP JUMP JUMPDEST PUSH1 0x0 PUSH1 0x20 DUP3 ADD SWAP1 POP DUP2 DUP2 SUB PUSH1 0x0 DUP4 ADD MSTORE PUSH2 0x22CD DUP2 PUSH2 0x2291 JUMP JUMPDEST SWAP1 POP SWAP2 SWAP1 POP JUMP JUMPDEST PUSH1 0x0 PUSH2 0x22DF DUP3 PUSH2 0x19B4 JUMP JUMPDEST SWAP2 POP PUSH2 0x22EA DUP4 PUSH2 0x19B4 JUMP JUMPDEST SWAP3 POP DUP3 DUP3 LT ISZERO PUSH2 0x22FD JUMPI PUSH2 0x22FC PUSH2 0x1F6F JUMP JUMPDEST JUMPDEST DUP3 DUP3 SUB SWAP1 POP SWAP3 SWAP2 POP POP JUMP JUMPDEST PUSH32 0x4E487B7100000000000000000000000000000000000000000000000000000000 PUSH1 0x0 MSTORE PUSH1 0x12 PUSH1 0x4 MSTORE PUSH1 0x24 PUSH1 0x0 REVERT JUMPDEST PUSH1 0x0 PUSH2 0x2342 DUP3 PUSH2 0x19B4 JUMP JUMPDEST SWAP2 POP PUSH2 0x234D DUP4 PUSH2 0x19B4 JUMP JUMPDEST SWAP3 POP DUP3 PUSH2 0x235D JUMPI PUSH2 0x235C PUSH2 0x2308 JUMP JUMPDEST JUMPDEST DUP3 DUP3 DIV SWAP1 POP SWAP3 SWAP2 POP POP JUMP JUMPDEST PUSH1 0x0 PUSH2 0x2373 DUP3 PUSH2 0x19B4 JUMP JUMPDEST SWAP2 POP PUSH2 0x237E DUP4 PUSH2 0x19B4 JUMP JUMPDEST SWAP3 POP DUP3 PUSH2 0x238E JUMPI PUSH2 0x238D PUSH2 0x2308 JUMP JUMPDEST JUMPDEST DUP3 DUP3 MOD SWAP1 POP SWAP3 SWAP2 POP POP JUMP JUMPDEST PUSH1 0x0 PUSH2 0x23A4 DUP3 PUSH2 0x19B4 JUMP JUMPDEST SWAP2 POP PUSH2 0x23AF DUP4 PUSH2 0x19B4 JUMP JUMPDEST SWAP3 POP DUP2 PUSH32 0xFFFFFFFFFFFFFFFFFFFFFFFFFFFFFFFFFFFFFFFFFFFFFFFFFFFFFFFFFFFFFFFF DIV DUP4 GT DUP3 ISZERO ISZERO AND ISZERO PUSH2 0x23E8 JUMPI PUSH2 0x23E7 PUSH2 0x1F6F JUMP JUMPDEST JUMPDEST DUP3 DUP3 MUL SWAP1 POP SWAP3 SWAP2 POP POP JUMP JUMPDEST PUSH32 0x4669786564506F696E743A204D554C5449504C49434154494F4E5F4F56455246 PUSH1 0x0 DUP3 ADD MSTORE PUSH32 0x4C4F570000000000000000000000000000000000000000000000000000000000 PUSH1 0x20 DUP3 ADD MSTORE POP JUMP JUMPDEST PUSH1 0x0 PUSH2 0x244F PUSH1 0x23 DUP4 PUSH2 0x1BA4 JUMP JUMPDEST SWAP2 POP PUSH2 0x245A DUP3 PUSH2 0x23F3 JUMP JUMPDEST PUSH1 0x40 DUP3 ADD SWAP1 POP SWAP2 SWAP1 POP JUMP JUMPDEST PUSH1 0x0 PUSH1 0x20 DUP3 ADD SWAP1 POP DUP2 DUP2 SUB PUSH1 0x0 DUP4 ADD MSTORE PUSH2 0x247E DUP2 PUSH2 0x2442 JUMP JUMPDEST SWAP1 POP SWAP2 SWAP1 POP JUMP JUMPDEST PUSH1 0x0 DUP2 MLOAD SWAP1 POP PUSH2 0x2494 DUP2 PUSH2 0x19BE JUMP JUMPDEST SWAP3 SWAP2 POP POP JUMP JUMPDEST PUSH1 0x0 PUSH1 0x20 DUP3 DUP5 SUB SLT ISZERO PUSH2 0x24B0 JUMPI PUSH2 0x24AF PUSH2 0x19AF JUMP JUMPDEST JUMPDEST PUSH1 0x0 PUSH2 0x24BE DUP5 DUP3 DUP6 ADD PUSH2 0x2485 JUMP JUMPDEST SWAP2 POP POP SWAP3 SWAP2 POP POP JUMP JUMPDEST PUSH1 0x0 PUSH14 0xFFFFFFFFFFFFFFFFFFFFFFFFFFFF DUP3 AND SWAP1 POP SWAP2 SWAP1 POP JUMP JUMPDEST PUSH2 0x24EA DUP2 PUSH2 0x24C7 JUMP JUMPDEST DUP2 EQ PUSH2 0x24F5 JUMPI PUSH1 0x0 DUP1 REVERT JUMPDEST POP JUMP JUMPDEST PUSH1 0x0 DUP2 MLOAD SWAP1 POP PUSH2 0x2507 DUP2 PUSH2 0x24E1 JUMP JUMPDEST SWAP3 SWAP2 POP POP JUMP JUMPDEST PUSH2 0x2516 DUP2 PUSH2 0x1DB8 JUMP JUMPDEST DUP2 EQ PUSH2 0x2521 JUMPI PUSH1 0x0 DUP1 REVERT JUMPDEST POP JUMP JUMPDEST PUSH1 0x0 DUP2 MLOAD SWAP1 POP PUSH2 0x2533 DUP2 PUSH2 0x250D JUMP JUMPDEST SWAP3 SWAP2 POP POP JUMP JUMPDEST PUSH1 0x0 DUP1 PUSH1 0x0 PUSH1 0x60 DUP5 DUP7 SUB SLT ISZERO PUSH2 0x2552 JUMPI PUSH2 0x2551 PUSH2 0x19AF JUMP JUMPDEST JUMPDEST PUSH1 0x0 PUSH2 0x2560 DUP7 DUP3 DUP8 ADD PUSH2 0x24F8 JUMP JUMPDEST SWAP4 POP POP PUSH1 0x20 PUSH2 0x2571 DUP7 DUP3 DUP8 ADD PUSH2 0x24F8 JUMP JUMPDEST SWAP3 POP POP PUSH1 0x40 PUSH2 0x2582 DUP7 DUP3 DUP8 ADD PUSH2 0x2524 JUMP JUMPDEST SWAP2 POP POP SWAP3 POP SWAP3 POP SWAP3 JUMP JUMPDEST PUSH32 0x4669786564506F696E743A204449565F42595F5A45524F000000000000000000 PUSH1 0x0 DUP3 ADD MSTORE POP JUMP JUMPDEST PUSH1 0x0 PUSH2 0x25C2 PUSH1 0x17 DUP4 PUSH2 0x1BA4 JUMP JUMPDEST SWAP2 POP PUSH2 0x25CD DUP3 PUSH2 0x258C JUMP JUMPDEST PUSH1 0x20 DUP3 ADD SWAP1 POP SWAP2 SWAP1 POP JUMP JUMPDEST PUSH1 0x0 PUSH1 0x20 DUP3 ADD SWAP1 POP DUP2 DUP2 SUB PUSH1 0x0 DUP4 ADD MSTORE PUSH2 0x25F1 DUP2 PUSH2 0x25B5 JUMP JUMPDEST SWAP1 POP SWAP2 SWAP1 POP JUMP JUMPDEST PUSH1 0x0 PUSH2 0x2603 DUP3 PUSH2 0x1B47 JUMP JUMPDEST SWAP2 POP PUSH2 0x260E DUP4 PUSH2 0x1B47 JUMP JUMPDEST SWAP3 POP DUP3 PUSH2 0x261E JUMPI PUSH2 0x261D PUSH2 0x2308 JUMP JUMPDEST JUMPDEST DUP3 DUP3 DIV SWAP1 POP SWAP3 SWAP2 POP POP JUMP INVALID LOG2 PUSH5 0x6970667358 0x22 SLT KECCAK256 PUSH30 0xDCEA6EACD5FBDE2F933DDFD2865816E53F244DDCD030B187A1910E7850F5 SWAP7 PUSH5 0x736F6C6343 STOP ADDMOD MULMOD STOP CALLER "
				},
				"gasEstimates": {
					"creation": {
						"codeDepositCost": "1964600",
						"executionCost": "infinite",
						"totalCost": "infinite"
					},
					"external": {
						"ALLOW_STALE_CONSULTS()": "2517",
						"CONSULT_LENIENCY()": "2541",
						"PERIOD()": "2518",
						"PRICE_PRECISION()": "2474",
						"acceptOwnership()": "infinite",
						"blockTimestampLast()": "2515",
						"canUpdate()": "infinite",
						"consult(address,uint256)": "infinite",
						"decimals()": "2539",
						"description()": "infinite",
						"getRoundData(uint80)": "infinite",
						"latestRoundData()": "infinite",
						"nominateNewOwner(address)": "infinite",
						"nominatedOwner()": "2560",
						"owner()": "2601",
						"pair()": "infinite",
						"price0Average()": "2530",
						"price0CumulativeLast()": "2519",
						"price1Average()": "2574",
						"price1CumulativeLast()": "2474",
						"setAddressToConsult(address)": "29110",
						"setAllowStaleConsults(bool)": "29109",
						"setConsultLeniency(uint256)": "26929",
						"setPeriod(uint256)": "26931",
						"setTimelock(address)": "29175",
						"token0()": "infinite",
						"token1()": "infinite",
						"update()": "infinite",
						"version()": "2497"
					}
				},
				"methodIdentifiers": {
					"ALLOW_STALE_CONSULTS()": "1ac2c825",
					"CONSULT_LENIENCY()": "3fcb55ca",
					"PERIOD()": "b4d1d795",
					"PRICE_PRECISION()": "95082d25",
					"acceptOwnership()": "79ba5097",
					"blockTimestampLast()": "c5700a02",
					"canUpdate()": "a17a2685",
					"consult(address,uint256)": "3ddac953",
					"decimals()": "313ce567",
					"description()": "7284e416",
					"getRoundData(uint80)": "9a6fc8f5",
					"latestRoundData()": "feaf968c",
					"nominateNewOwner(address)": "1627540c",
					"nominatedOwner()": "53a47bb7",
					"owner()": "8da5cb5b",
					"pair()": "a8aa1b31",
					"price0Average()": "a6bb4539",
					"price0CumulativeLast()": "5909c0d5",
					"price1Average()": "5e6aaf2c",
					"price1CumulativeLast()": "5a3d5493",
					"setAddressToConsult(address)": "74b04ab4",
					"setAllowStaleConsults(bool)": "f1551aea",
					"setConsultLeniency(uint256)": "5cb9a714",
					"setPeriod(uint256)": "0f3a9f65",
					"setTimelock(address)": "bdacb303",
					"token0()": "0dfe1681",
					"token1()": "d21220a7",
					"update()": "a2e62045",
					"version()": "54fd4d50"
				}
			},
			"storageLayout": {
				"storage": [
					{
						"astId": 942,
						"contract": "NewFraxProtocol/contracts/Oracle/UniswapPairOracleExtra.sol:UniswapPairOracleExtra",
						"label": "owner",
						"offset": 0,
						"slot": "0",
						"type": "t_address"
					},
					{
						"astId": 944,
						"contract": "NewFraxProtocol/contracts/Oracle/UniswapPairOracleExtra.sol:UniswapPairOracleExtra",
						"label": "nominatedOwner",
						"offset": 0,
						"slot": "1",
						"type": "t_address"
					},
					{
						"astId": 520,
						"contract": "NewFraxProtocol/contracts/Oracle/UniswapPairOracleExtra.sol:UniswapPairOracleExtra",
						"label": "timelock_address",
						"offset": 0,
						"slot": "2",
						"type": "t_address"
					},
					{
						"astId": 523,
						"contract": "NewFraxProtocol/contracts/Oracle/UniswapPairOracleExtra.sol:UniswapPairOracleExtra",
						"label": "PERIOD",
						"offset": 0,
						"slot": "3",
						"type": "t_uint256"
					},
					{
						"astId": 526,
						"contract": "NewFraxProtocol/contracts/Oracle/UniswapPairOracleExtra.sol:UniswapPairOracleExtra",
						"label": "CONSULT_LENIENCY",
						"offset": 0,
						"slot": "4",
						"type": "t_uint256"
					},
					{
						"astId": 529,
						"contract": "NewFraxProtocol/contracts/Oracle/UniswapPairOracleExtra.sol:UniswapPairOracleExtra",
						"label": "ALLOW_STALE_CONSULTS",
						"offset": 0,
						"slot": "5",
						"type": "t_bool"
					},
					{
						"astId": 538,
						"contract": "NewFraxProtocol/contracts/Oracle/UniswapPairOracleExtra.sol:UniswapPairOracleExtra",
						"label": "price0CumulativeLast",
						"offset": 0,
						"slot": "6",
						"type": "t_uint256"
					},
					{
						"astId": 540,
						"contract": "NewFraxProtocol/contracts/Oracle/UniswapPairOracleExtra.sol:UniswapPairOracleExtra",
						"label": "price1CumulativeLast",
						"offset": 0,
						"slot": "7",
						"type": "t_uint256"
					},
					{
						"astId": 542,
						"contract": "NewFraxProtocol/contracts/Oracle/UniswapPairOracleExtra.sol:UniswapPairOracleExtra",
						"label": "blockTimestampLast",
						"offset": 0,
						"slot": "8",
						"type": "t_uint32"
					},
					{
						"astId": 545,
						"contract": "NewFraxProtocol/contracts/Oracle/UniswapPairOracleExtra.sol:UniswapPairOracleExtra",
						"label": "price0Average",
						"offset": 0,
						"slot": "9",
						"type": "t_struct(uq112x112)62_storage"
					},
					{
						"astId": 548,
						"contract": "NewFraxProtocol/contracts/Oracle/UniswapPairOracleExtra.sol:UniswapPairOracleExtra",
						"label": "price1Average",
						"offset": 0,
						"slot": "10",
						"type": "t_struct(uq112x112)62_storage"
					},
					{
						"astId": 550,
						"contract": "NewFraxProtocol/contracts/Oracle/UniswapPairOracleExtra.sol:UniswapPairOracleExtra",
						"label": "address_to_consult",
						"offset": 0,
						"slot": "11",
						"type": "t_address"
					},
					{
						"astId": 553,
						"contract": "NewFraxProtocol/contracts/Oracle/UniswapPairOracleExtra.sol:UniswapPairOracleExtra",
						"label": "PRICE_PRECISION",
						"offset": 0,
						"slot": "12",
						"type": "t_uint256"
					},
					{
						"astId": 556,
						"contract": "NewFraxProtocol/contracts/Oracle/UniswapPairOracleExtra.sol:UniswapPairOracleExtra",
						"label": "decimals",
						"offset": 0,
						"slot": "13",
						"type": "t_uint8"
					},
					{
						"astId": 558,
						"contract": "NewFraxProtocol/contracts/Oracle/UniswapPairOracleExtra.sol:UniswapPairOracleExtra",
						"label": "description",
						"offset": 0,
						"slot": "14",
						"type": "t_string_storage"
					},
					{
						"astId": 561,
						"contract": "NewFraxProtocol/contracts/Oracle/UniswapPairOracleExtra.sol:UniswapPairOracleExtra",
						"label": "version",
						"offset": 0,
						"slot": "15",
						"type": "t_uint256"
					}
				],
				"types": {
					"t_address": {
						"encoding": "inplace",
						"label": "address",
						"numberOfBytes": "20"
					},
					"t_bool": {
						"encoding": "inplace",
						"label": "bool",
						"numberOfBytes": "1"
					},
					"t_string_storage": {
						"encoding": "bytes",
						"label": "string",
						"numberOfBytes": "32"
					},
					"t_struct(uq112x112)62_storage": {
						"encoding": "inplace",
						"label": "struct FixedPoint.uq112x112",
						"members": [
							{
								"astId": 61,
								"contract": "NewFraxProtocol/contracts/Oracle/UniswapPairOracleExtra.sol:UniswapPairOracleExtra",
								"label": "_x",
								"offset": 0,
								"slot": "0",
								"type": "t_uint224"
							}
						],
						"numberOfBytes": "32"
					},
					"t_uint224": {
						"encoding": "inplace",
						"label": "uint224",
						"numberOfBytes": "28"
					},
					"t_uint256": {
						"encoding": "inplace",
						"label": "uint256",
						"numberOfBytes": "32"
					},
					"t_uint32": {
						"encoding": "inplace",
						"label": "uint32",
						"numberOfBytes": "4"
					},
					"t_uint8": {
						"encoding": "inplace",
						"label": "uint8",
						"numberOfBytes": "1"
					}
				}
			},
			"userdoc": {
				"kind": "user",
				"methods": {},
				"version": 1
			}
		}
	}
}