{
	"NewFraxProtocol/contracts/Oracle/CrossChainOracle.sol": {
		"CrossChainOracle": {
			"abi": [
				{
					"inputs": [
						{
							"internalType": "address",
							"name": "_creator_address",
							"type": "address"
						},
						{
							"internalType": "address",
							"name": "_timelock_address",
							"type": "address"
						},
						{
							"internalType": "address",
							"name": "_bot_address",
							"type": "address"
						}
					],
					"stateMutability": "nonpayable",
					"type": "constructor"
				},
				{
					"anonymous": false,
					"inputs": [
						{
							"indexed": false,
							"internalType": "address",
							"name": "oldOwner",
							"type": "address"
						},
						{
							"indexed": false,
							"internalType": "address",
							"name": "newOwner",
							"type": "address"
						}
					],
					"name": "OwnerChanged",
					"type": "event"
				},
				{
					"anonymous": false,
					"inputs": [
						{
							"indexed": false,
							"internalType": "address",
							"name": "newOwner",
							"type": "address"
						}
					],
					"name": "OwnerNominated",
					"type": "event"
				},
				{
					"inputs": [],
					"name": "acceptOwnership",
					"outputs": [],
					"stateMutability": "nonpayable",
					"type": "function"
				},
				{
					"inputs": [],
					"name": "bot_address",
					"outputs": [
						{
							"internalType": "address",
							"name": "",
							"type": "address"
						}
					],
					"stateMutability": "view",
					"type": "function"
				},
				{
					"inputs": [
						{
							"internalType": "address",
							"name": "token_address",
							"type": "address"
						}
					],
					"name": "getPrice",
					"outputs": [
						{
							"internalType": "uint256",
							"name": "",
							"type": "uint256"
						}
					],
					"stateMutability": "view",
					"type": "function"
				},
				{
					"inputs": [
						{
							"internalType": "address",
							"name": "_owner",
							"type": "address"
						}
					],
					"name": "nominateNewOwner",
					"outputs": [],
					"stateMutability": "nonpayable",
					"type": "function"
				},
				{
					"inputs": [],
					"name": "nominatedOwner",
					"outputs": [
						{
							"internalType": "address",
							"name": "",
							"type": "address"
						}
					],
					"stateMutability": "view",
					"type": "function"
				},
				{
					"inputs": [],
					"name": "owner",
					"outputs": [
						{
							"internalType": "address",
							"name": "",
							"type": "address"
						}
					],
					"stateMutability": "view",
					"type": "function"
				},
				{
					"inputs": [
						{
							"internalType": "address",
							"name": "",
							"type": "address"
						}
					],
					"name": "prices",
					"outputs": [
						{
							"internalType": "uint256",
							"name": "",
							"type": "uint256"
						}
					],
					"stateMutability": "view",
					"type": "function"
				},
				{
					"inputs": [
						{
							"internalType": "address",
							"name": "_new_bot_address",
							"type": "address"
						}
					],
					"name": "setBot",
					"outputs": [],
					"stateMutability": "nonpayable",
					"type": "function"
				},
				{
					"inputs": [
						{
							"internalType": "address[]",
							"name": "token_addresses",
							"type": "address[]"
						},
						{
							"internalType": "uint256[]",
							"name": "prices_e6",
							"type": "uint256[]"
						}
					],
					"name": "setMultiplePrices",
					"outputs": [],
					"stateMutability": "nonpayable",
					"type": "function"
				},
				{
					"inputs": [
						{
							"internalType": "address",
							"name": "token_address",
							"type": "address"
						},
						{
							"internalType": "uint256",
							"name": "price_e6",
							"type": "uint256"
						}
					],
					"name": "setPrice",
					"outputs": [],
					"stateMutability": "nonpayable",
					"type": "function"
				},
				{
					"inputs": [
						{
							"internalType": "address",
							"name": "_new_timelock_address",
							"type": "address"
						}
					],
					"name": "setTimelock",
					"outputs": [],
					"stateMutability": "nonpayable",
					"type": "function"
				},
				{
					"inputs": [],
					"name": "timelock_address",
					"outputs": [
						{
							"internalType": "address",
							"name": "",
							"type": "address"
						}
					],
					"stateMutability": "view",
					"type": "function"
				}
			],
			"devdoc": {
				"kind": "dev",
				"methods": {},
				"version": 1
			},
			"evm": {
				"assembly": "    /* \"NewFraxProtocol/contracts/Oracle/CrossChainOracle.sol\":1102:2946  contract CrossChainOracle is Owned {... */\n  mstore(0x40, 0x80)\n    /* \"NewFraxProtocol/contracts/Oracle/CrossChainOracle.sol\":1708:1939  constructor (... */\n  callvalue\n  dup1\n  iszero\n  tag_1\n  jumpi\n  0x00\n  dup1\n  revert\ntag_1:\n  pop\n  mload(0x40)\n  sub(codesize, bytecodeSize)\n  dup1\n  bytecodeSize\n  dup4\n  codecopy\n  dup2\n  add\n  0x40\n  dup2\n  swap1\n  mstore\n  tag_2\n  swap2\n  tag_3\n  jump\t// in\ntag_2:\n    /* \"NewFraxProtocol/contracts/Oracle/CrossChainOracle.sol\":1832:1848  _creator_address */\n  dup3\n  sub(shl(0xa0, 0x01), 0x01)\n    /* \"NewFraxProtocol/contracts/Staking/Owned.sol\":254:274  _owner != address(0) */\n  dup2\n  and\n    /* \"NewFraxProtocol/contracts/Staking/Owned.sol\":246:304  require(_owner != address(0), \"Owner address cannot be 0\") */\n  tag_7\n  jumpi\n  mload(0x40)\n  shl(0xe5, 0x461bcd)\n  dup2\n  mstore\n    /* \"#utility.yul\":781:783   */\n  0x20\n    /* \"NewFraxProtocol/contracts/Staking/Owned.sol\":246:304  require(_owner != address(0), \"Owner address cannot be 0\") */\n  0x04\n  dup3\n  add\n    /* \"#utility.yul\":763:784   */\n  mstore\n    /* \"#utility.yul\":820:822   */\n  0x19\n    /* \"#utility.yul\":800:818   */\n  0x24\n  dup3\n  add\n    /* \"#utility.yul\":793:823   */\n  mstore\n    /* \"#utility.yul\":859:886   */\n  0x4f776e657220616464726573732063616e6e6f74206265203000000000000000\n    /* \"#utility.yul\":839:857   */\n  0x44\n  dup3\n  add\n    /* \"#utility.yul\":832:887   */\n  mstore\n    /* \"#utility.yul\":904:922   */\n  0x64\n  add\n    /* \"NewFraxProtocol/contracts/Staking/Owned.sol\":246:304  require(_owner != address(0), \"Owner address cannot be 0\") */\n  mload(0x40)\n  dup1\n  swap2\n  sub\n  swap1\n  revert\ntag_7:\n    /* \"NewFraxProtocol/contracts/Staking/Owned.sol\":314:319  owner */\n  0x00\n    /* \"NewFraxProtocol/contracts/Staking/Owned.sol\":314:328  owner = _owner */\n  dup1\n  sload\n  not(sub(shl(0xa0, 0x01), 0x01))\n  and\n  sub(shl(0xa0, 0x01), 0x01)\n  dup4\n  and\n  swap1\n  dup2\n  or\n  dup3\n  sstore\n    /* \"NewFraxProtocol/contracts/Staking/Owned.sol\":343:375  OwnerChanged(address(0), _owner) */\n  0x40\n  dup1\n  mload\n    /* \"#utility.yul\":1145:1179   */\n  swap3\n  dup4\n  mstore\n    /* \"#utility.yul\":1210:1212   */\n  0x20\n    /* \"#utility.yul\":1195:1213   */\n  dup4\n  add\n    /* \"#utility.yul\":1188:1231   */\n  swap2\n  swap1\n  swap2\n  mstore\n    /* \"NewFraxProtocol/contracts/Staking/Owned.sol\":343:375  OwnerChanged(address(0), _owner) */\n  0xb532073b38c83145e3e5135377a08bf9aab55bc0fd7c1179cd4fb995d2a5159c\n  swap2\n    /* \"#utility.yul\":1080:1098   */\n  add\n    /* \"NewFraxProtocol/contracts/Staking/Owned.sol\":343:375  OwnerChanged(address(0), _owner) */\n  mload(0x40)\n  dup1\n  swap2\n  sub\n  swap1\n  log1\n  pop\n    /* \"NewFraxProtocol/contracts/Oracle/CrossChainOracle.sol\":1860:1876  timelock_address */\n  0x02\n    /* \"NewFraxProtocol/contracts/Oracle/CrossChainOracle.sol\":1860:1896  timelock_address = _timelock_address */\n  dup1\n  sload\n  sub(shl(0xa0, 0x01), 0x01)\n  swap4\n  dup5\n  and\n  not(sub(shl(0xa0, 0x01), 0x01))\n  swap2\n  dup3\n  and\n  or\n  swap1\n  swap2\n  sstore\n    /* \"NewFraxProtocol/contracts/Oracle/CrossChainOracle.sol\":1906:1917  bot_address */\n  0x03\n    /* \"NewFraxProtocol/contracts/Oracle/CrossChainOracle.sol\":1906:1932  bot_address = _bot_address */\n  dup1\n  sload\n  swap3\n  swap1\n  swap4\n  and\n  swap2\n  and\n  or\n  swap1\n  sstore\n  pop\n    /* \"NewFraxProtocol/contracts/Oracle/CrossChainOracle.sol\":1102:2946  contract CrossChainOracle is Owned {... */\n  jump(tag_15)\n    /* \"#utility.yul\":14:191   */\ntag_14:\n    /* \"#utility.yul\":93:106   */\n  dup1\n  mload\n  sub(shl(0xa0, 0x01), 0x01)\n    /* \"#utility.yul\":135:166   */\n  dup2\n  and\n    /* \"#utility.yul\":125:167   */\n  dup2\n  eq\n    /* \"#utility.yul\":115:185   */\n  tag_17\n  jumpi\n    /* \"#utility.yul\":181:182   */\n  0x00\n    /* \"#utility.yul\":178:179   */\n  dup1\n    /* \"#utility.yul\":171:183   */\n  revert\n    /* \"#utility.yul\":115:185   */\ntag_17:\n    /* \"#utility.yul\":14:191   */\n  swap2\n  swap1\n  pop\n  jump\t// out\n    /* \"#utility.yul\":196:574   */\ntag_3:\n    /* \"#utility.yul\":284:290   */\n  0x00\n    /* \"#utility.yul\":292:298   */\n  dup1\n    /* \"#utility.yul\":300:306   */\n  0x00\n    /* \"#utility.yul\":353:355   */\n  0x60\n    /* \"#utility.yul\":341:350   */\n  dup5\n    /* \"#utility.yul\":332:339   */\n  dup7\n    /* \"#utility.yul\":328:351   */\n  sub\n    /* \"#utility.yul\":324:356   */\n  slt\n    /* \"#utility.yul\":321:373   */\n  iszero\n  tag_19\n  jumpi\n    /* \"#utility.yul\":369:370   */\n  0x00\n    /* \"#utility.yul\":366:367   */\n  dup1\n    /* \"#utility.yul\":359:371   */\n  revert\n    /* \"#utility.yul\":321:373   */\ntag_19:\n    /* \"#utility.yul\":392:432   */\n  tag_20\n    /* \"#utility.yul\":422:431   */\n  dup5\n    /* \"#utility.yul\":392:432   */\n  tag_14\n  jump\t// in\ntag_20:\n    /* \"#utility.yul\":382:432   */\n  swap3\n  pop\n    /* \"#utility.yul\":451:500   */\n  tag_21\n    /* \"#utility.yul\":496:498   */\n  0x20\n    /* \"#utility.yul\":485:494   */\n  dup6\n    /* \"#utility.yul\":481:499   */\n  add\n    /* \"#utility.yul\":451:500   */\n  tag_14\n  jump\t// in\ntag_21:\n    /* \"#utility.yul\":441:500   */\n  swap2\n  pop\n    /* \"#utility.yul\":519:568   */\n  tag_22\n    /* \"#utility.yul\":564:566   */\n  0x40\n    /* \"#utility.yul\":553:562   */\n  dup6\n    /* \"#utility.yul\":549:567   */\n  add\n    /* \"#utility.yul\":519:568   */\n  tag_14\n  jump\t// in\ntag_22:\n    /* \"#utility.yul\":509:568   */\n  swap1\n  pop\n    /* \"#utility.yul\":196:574   */\n  swap3\n  pop\n  swap3\n  pop\n  swap3\n  jump\t// out\n    /* \"#utility.yul\":933:1237   */\ntag_15:\n    /* \"NewFraxProtocol/contracts/Oracle/CrossChainOracle.sol\":1102:2946  contract CrossChainOracle is Owned {... */\n  dataSize(sub_0)\n  dup1\n  dataOffset(sub_0)\n  0x00\n  codecopy\n  0x00\n  return\nstop\n\nsub_0: assembly {\n        /* \"NewFraxProtocol/contracts/Oracle/CrossChainOracle.sol\":1102:2946  contract CrossChainOracle is Owned {... */\n      mstore(0x40, 0x80)\n      callvalue\n      dup1\n      iszero\n      tag_1\n      jumpi\n      0x00\n      dup1\n      revert\n    tag_1:\n      pop\n      jumpi(tag_2, lt(calldatasize, 0x04))\n      shr(0xe0, calldataload(0x00))\n      dup1\n      0x79ba5097\n      gt\n      tag_15\n      jumpi\n      dup1\n      0x79ba5097\n      eq\n      tag_9\n      jumpi\n      dup1\n      0x8da5cb5b\n      eq\n      tag_10\n      jumpi\n      dup1\n      0xbdacb303\n      eq\n      tag_11\n      jumpi\n      dup1\n      0xcfed246b\n      eq\n      tag_12\n      jumpi\n      dup1\n      0xdbea953d\n      eq\n      tag_13\n      jumpi\n      dup1\n      0xdc6663c7\n      eq\n      tag_14\n      jumpi\n      0x00\n      dup1\n      revert\n    tag_15:\n      dup1\n      0xe4768b\n      eq\n      tag_3\n      jumpi\n      dup1\n      0x04f4a374\n      eq\n      tag_4\n      jumpi\n      dup1\n      0x1627540c\n      eq\n      tag_5\n      jumpi\n      dup1\n      0x41976e09\n      eq\n      tag_6\n      jumpi\n      dup1\n      0x53a47bb7\n      eq\n      tag_7\n      jumpi\n      dup1\n      0x6b5caec4\n      eq\n      tag_8\n      jumpi\n    tag_2:\n      0x00\n      dup1\n      revert\n        /* \"NewFraxProtocol/contracts/Oracle/CrossChainOracle.sol\":2210:2341  function setPrice(address token_address, uint256 price_e6) public onlyByOwnGovBot {... */\n    tag_3:\n      tag_16\n      tag_17\n      calldatasize\n      0x04\n      tag_18\n      jump\t// in\n    tag_17:\n      tag_19\n      jump\t// in\n    tag_16:\n      stop\n        /* \"NewFraxProtocol/contracts/Oracle/CrossChainOracle.sol\":2391:2635  function setMultiplePrices(address[] memory token_addresses, uint256[] memory prices_e6) public onlyByOwnGovBot {... */\n    tag_4:\n      tag_16\n      tag_21\n      calldatasize\n      0x04\n      tag_22\n      jump\t// in\n    tag_21:\n      tag_23\n      jump\t// in\n        /* \"NewFraxProtocol/contracts/Staking/Owned.sol\":388:526  function nominateNewOwner(address _owner) external onlyOwner {... */\n    tag_5:\n      tag_16\n      tag_25\n      calldatasize\n      0x04\n      tag_26\n      jump\t// in\n    tag_25:\n      tag_27\n      jump\t// in\n        /* \"NewFraxProtocol/contracts/Oracle/CrossChainOracle.sol\":1984:2100  function getPrice(address token_address) public view returns (uint256) {... */\n    tag_6:\n      tag_28\n      tag_29\n      calldatasize\n      0x04\n      tag_26\n      jump\t// in\n    tag_29:\n      sub(shl(0xa0, 0x01), 0x01)\n        /* \"NewFraxProtocol/contracts/Oracle/CrossChainOracle.sol\":2072:2093  prices[token_address] */\n      and\n        /* \"NewFraxProtocol/contracts/Oracle/CrossChainOracle.sol\":2046:2053  uint256 */\n      0x00\n        /* \"NewFraxProtocol/contracts/Oracle/CrossChainOracle.sol\":2072:2093  prices[token_address] */\n      swap1\n      dup2\n      mstore\n        /* \"NewFraxProtocol/contracts/Oracle/CrossChainOracle.sol\":2072:2078  prices */\n      0x04\n        /* \"NewFraxProtocol/contracts/Oracle/CrossChainOracle.sol\":2072:2093  prices[token_address] */\n      0x20\n      mstore\n      0x40\n      swap1\n      keccak256\n      sload\n      swap1\n        /* \"NewFraxProtocol/contracts/Oracle/CrossChainOracle.sol\":1984:2100  function getPrice(address token_address) public view returns (uint256) {... */\n      jump\n    tag_28:\n      mload(0x40)\n        /* \"#utility.yul\":3206:3231   */\n      swap1\n      dup2\n      mstore\n        /* \"#utility.yul\":3194:3196   */\n      0x20\n        /* \"#utility.yul\":3179:3197   */\n      add\n        /* \"NewFraxProtocol/contracts/Oracle/CrossChainOracle.sol\":1984:2100  function getPrice(address token_address) public view returns (uint256) {... */\n    tag_31:\n      mload(0x40)\n      dup1\n      swap2\n      sub\n      swap1\n      return\n        /* \"NewFraxProtocol/contracts/Staking/Owned.sol\":164:193  address public nominatedOwner */\n    tag_7:\n      sload(0x01)\n      tag_33\n      swap1\n      sub(shl(0xa0, 0x01), 0x01)\n      and\n      dup2\n      jump\n    tag_33:\n      mload(0x40)\n      sub(shl(0xa0, 0x01), 0x01)\n        /* \"#utility.yul\":3406:3438   */\n      swap1\n      swap2\n      and\n        /* \"#utility.yul\":3388:3439   */\n      dup2\n      mstore\n        /* \"#utility.yul\":3376:3378   */\n      0x20\n        /* \"#utility.yul\":3361:3379   */\n      add\n        /* \"NewFraxProtocol/contracts/Staking/Owned.sol\":164:193  address public nominatedOwner */\n      tag_31\n        /* \"#utility.yul\":3242:3445   */\n      jump\n        /* \"NewFraxProtocol/contracts/Oracle/CrossChainOracle.sol\":2832:2943  function setBot(address _new_bot_address) external onlyByOwnGov {... */\n    tag_8:\n      tag_16\n      tag_38\n      calldatasize\n      0x04\n      tag_26\n      jump\t// in\n    tag_38:\n      tag_39\n      jump\t// in\n        /* \"NewFraxProtocol/contracts/Staking/Owned.sol\":532:798  function acceptOwnership() external {... */\n    tag_9:\n      tag_16\n      tag_41\n      jump\t// in\n        /* \"NewFraxProtocol/contracts/Staking/Owned.sol\":138:158  address public owner */\n    tag_10:\n      sload(0x00)\n      tag_33\n      swap1\n      sub(shl(0xa0, 0x01), 0x01)\n      and\n      dup2\n      jump\n        /* \"NewFraxProtocol/contracts/Oracle/CrossChainOracle.sol\":2695:2826  function setTimelock(address _new_timelock_address) external onlyByOwnGov {... */\n    tag_11:\n      tag_16\n      tag_46\n      calldatasize\n      0x04\n      tag_26\n      jump\t// in\n    tag_46:\n      tag_47\n      jump\t// in\n        /* \"NewFraxProtocol/contracts/Oracle/CrossChainOracle.sol\":1248:1289  mapping(address => uint256) public prices */\n    tag_12:\n      tag_28\n      tag_49\n      calldatasize\n      0x04\n      tag_26\n      jump\t// in\n    tag_49:\n      mstore(0x20, 0x04)\n      0x00\n      swap1\n      dup2\n      mstore\n      0x40\n      swap1\n      keccak256\n      sload\n      dup2\n      jump\n        /* \"NewFraxProtocol/contracts/Oracle/CrossChainOracle.sol\":1197:1223  address public bot_address */\n    tag_13:\n      sload(0x03)\n      tag_33\n      swap1\n      sub(shl(0xa0, 0x01), 0x01)\n      and\n      dup2\n      jump\n        /* \"NewFraxProtocol/contracts/Oracle/CrossChainOracle.sol\":1160:1191  address public timelock_address */\n    tag_14:\n      sload(0x02)\n      tag_33\n      swap1\n      sub(shl(0xa0, 0x01), 0x01)\n      and\n      dup2\n      jump\n        /* \"NewFraxProtocol/contracts/Oracle/CrossChainOracle.sol\":2210:2341  function setPrice(address token_address, uint256 price_e6) public onlyByOwnGovBot {... */\n    tag_19:\n        /* \"NewFraxProtocol/contracts/Oracle/CrossChainOracle.sol\":1543:1548  owner */\n      and(sub(shl(0xa0, 0x01), 0x01), sload(0x00))\n        /* \"NewFraxProtocol/contracts/Oracle/CrossChainOracle.sol\":1529:1539  msg.sender */\n      caller\n        /* \"NewFraxProtocol/contracts/Oracle/CrossChainOracle.sol\":1529:1548  msg.sender == owner */\n      eq\n      dup1\n        /* \"NewFraxProtocol/contracts/Oracle/CrossChainOracle.sol\":1529:1582  msg.sender == owner || msg.sender == timelock_address */\n      tag_59\n      jumpi\n      pop\n        /* \"NewFraxProtocol/contracts/Oracle/CrossChainOracle.sol\":1566:1582  timelock_address */\n      and(sub(shl(0xa0, 0x01), 0x01), sload(0x02))\n        /* \"NewFraxProtocol/contracts/Oracle/CrossChainOracle.sol\":1552:1562  msg.sender */\n      caller\n        /* \"NewFraxProtocol/contracts/Oracle/CrossChainOracle.sol\":1552:1582  msg.sender == timelock_address */\n      eq\n        /* \"NewFraxProtocol/contracts/Oracle/CrossChainOracle.sol\":1529:1582  msg.sender == owner || msg.sender == timelock_address */\n    tag_59:\n        /* \"NewFraxProtocol/contracts/Oracle/CrossChainOracle.sol\":1529:1611  msg.sender == owner || msg.sender == timelock_address || msg.sender == bot_address */\n      dup1\n      tag_60\n      jumpi\n      pop\n        /* \"NewFraxProtocol/contracts/Oracle/CrossChainOracle.sol\":1600:1611  bot_address */\n      and(sub(shl(0xa0, 0x01), 0x01), sload(0x03))\n        /* \"NewFraxProtocol/contracts/Oracle/CrossChainOracle.sol\":1586:1596  msg.sender */\n      caller\n        /* \"NewFraxProtocol/contracts/Oracle/CrossChainOracle.sol\":1586:1611  msg.sender == bot_address */\n      eq\n        /* \"NewFraxProtocol/contracts/Oracle/CrossChainOracle.sol\":1529:1611  msg.sender == owner || msg.sender == timelock_address || msg.sender == bot_address */\n    tag_60:\n        /* \"NewFraxProtocol/contracts/Oracle/CrossChainOracle.sol\":1521:1639  require(msg.sender == owner || msg.sender == timelock_address || msg.sender == bot_address, \"Not owner, tlck, or bot\") */\n      tag_61\n      jumpi\n      mload(0x40)\n      shl(0xe5, 0x461bcd)\n      dup2\n      mstore\n        /* \"#utility.yul\":3652:3654   */\n      0x20\n        /* \"NewFraxProtocol/contracts/Oracle/CrossChainOracle.sol\":1521:1639  require(msg.sender == owner || msg.sender == timelock_address || msg.sender == bot_address, \"Not owner, tlck, or bot\") */\n      0x04\n      dup3\n      add\n        /* \"#utility.yul\":3634:3655   */\n      mstore\n        /* \"#utility.yul\":3691:3693   */\n      0x17\n        /* \"#utility.yul\":3671:3689   */\n      0x24\n      dup3\n      add\n        /* \"#utility.yul\":3664:3694   */\n      mstore\n      shl(0x4a, 0x139bdd081bdddb995c8b081d1b18dacb081bdc88189bdd)\n        /* \"#utility.yul\":3710:3728   */\n      0x44\n      dup3\n      add\n        /* \"#utility.yul\":3703:3756   */\n      mstore\n        /* \"#utility.yul\":3773:3791   */\n      0x64\n      add\n        /* \"NewFraxProtocol/contracts/Oracle/CrossChainOracle.sol\":1521:1639  require(msg.sender == owner || msg.sender == timelock_address || msg.sender == bot_address, \"Not owner, tlck, or bot\") */\n    tag_62:\n      mload(0x40)\n      dup1\n      swap2\n      sub\n      swap1\n      revert\n    tag_61:\n      sub(shl(0xa0, 0x01), 0x01)\n        /* \"NewFraxProtocol/contracts/Oracle/CrossChainOracle.sol\":2302:2323  prices[token_address] */\n      swap1\n      swap2\n      and\n      0x00\n      swap1\n      dup2\n      mstore\n        /* \"NewFraxProtocol/contracts/Oracle/CrossChainOracle.sol\":2302:2308  prices */\n      0x04\n        /* \"NewFraxProtocol/contracts/Oracle/CrossChainOracle.sol\":2302:2323  prices[token_address] */\n      0x20\n      mstore\n      0x40\n      swap1\n      keccak256\n        /* \"NewFraxProtocol/contracts/Oracle/CrossChainOracle.sol\":2302:2334  prices[token_address] = price_e6 */\n      sstore\n        /* \"NewFraxProtocol/contracts/Oracle/CrossChainOracle.sol\":2210:2341  function setPrice(address token_address, uint256 price_e6) public onlyByOwnGovBot {... */\n      jump\t// out\n        /* \"NewFraxProtocol/contracts/Oracle/CrossChainOracle.sol\":2391:2635  function setMultiplePrices(address[] memory token_addresses, uint256[] memory prices_e6) public onlyByOwnGovBot {... */\n    tag_23:\n        /* \"NewFraxProtocol/contracts/Oracle/CrossChainOracle.sol\":1543:1548  owner */\n      and(sub(shl(0xa0, 0x01), 0x01), sload(0x00))\n        /* \"NewFraxProtocol/contracts/Oracle/CrossChainOracle.sol\":1529:1539  msg.sender */\n      caller\n        /* \"NewFraxProtocol/contracts/Oracle/CrossChainOracle.sol\":1529:1548  msg.sender == owner */\n      eq\n      dup1\n        /* \"NewFraxProtocol/contracts/Oracle/CrossChainOracle.sol\":1529:1582  msg.sender == owner || msg.sender == timelock_address */\n      tag_66\n      jumpi\n      pop\n        /* \"NewFraxProtocol/contracts/Oracle/CrossChainOracle.sol\":1566:1582  timelock_address */\n      and(sub(shl(0xa0, 0x01), 0x01), sload(0x02))\n        /* \"NewFraxProtocol/contracts/Oracle/CrossChainOracle.sol\":1552:1562  msg.sender */\n      caller\n        /* \"NewFraxProtocol/contracts/Oracle/CrossChainOracle.sol\":1552:1582  msg.sender == timelock_address */\n      eq\n        /* \"NewFraxProtocol/contracts/Oracle/CrossChainOracle.sol\":1529:1582  msg.sender == owner || msg.sender == timelock_address */\n    tag_66:\n        /* \"NewFraxProtocol/contracts/Oracle/CrossChainOracle.sol\":1529:1611  msg.sender == owner || msg.sender == timelock_address || msg.sender == bot_address */\n      dup1\n      tag_67\n      jumpi\n      pop\n        /* \"NewFraxProtocol/contracts/Oracle/CrossChainOracle.sol\":1600:1611  bot_address */\n      and(sub(shl(0xa0, 0x01), 0x01), sload(0x03))\n        /* \"NewFraxProtocol/contracts/Oracle/CrossChainOracle.sol\":1586:1596  msg.sender */\n      caller\n        /* \"NewFraxProtocol/contracts/Oracle/CrossChainOracle.sol\":1586:1611  msg.sender == bot_address */\n      eq\n        /* \"NewFraxProtocol/contracts/Oracle/CrossChainOracle.sol\":1529:1611  msg.sender == owner || msg.sender == timelock_address || msg.sender == bot_address */\n    tag_67:\n        /* \"NewFraxProtocol/contracts/Oracle/CrossChainOracle.sol\":1521:1639  require(msg.sender == owner || msg.sender == timelock_address || msg.sender == bot_address, \"Not owner, tlck, or bot\") */\n      tag_68\n      jumpi\n      mload(0x40)\n      shl(0xe5, 0x461bcd)\n      dup2\n      mstore\n        /* \"#utility.yul\":3652:3654   */\n      0x20\n        /* \"NewFraxProtocol/contracts/Oracle/CrossChainOracle.sol\":1521:1639  require(msg.sender == owner || msg.sender == timelock_address || msg.sender == bot_address, \"Not owner, tlck, or bot\") */\n      0x04\n      dup3\n      add\n        /* \"#utility.yul\":3634:3655   */\n      mstore\n        /* \"#utility.yul\":3691:3693   */\n      0x17\n        /* \"#utility.yul\":3671:3689   */\n      0x24\n      dup3\n      add\n        /* \"#utility.yul\":3664:3694   */\n      mstore\n      shl(0x4a, 0x139bdd081bdddb995c8b081d1b18dacb081bdc88189bdd)\n        /* \"#utility.yul\":3710:3728   */\n      0x44\n      dup3\n      add\n        /* \"#utility.yul\":3703:3756   */\n      mstore\n        /* \"#utility.yul\":3773:3791   */\n      0x64\n      add\n        /* \"NewFraxProtocol/contracts/Oracle/CrossChainOracle.sol\":1521:1639  require(msg.sender == owner || msg.sender == timelock_address || msg.sender == bot_address, \"Not owner, tlck, or bot\") */\n      tag_62\n        /* \"#utility.yul\":3450:3797   */\n      jump\n        /* \"NewFraxProtocol/contracts/Oracle/CrossChainOracle.sol\":1521:1639  require(msg.sender == owner || msg.sender == timelock_address || msg.sender == bot_address, \"Not owner, tlck, or bot\") */\n    tag_68:\n        /* \"NewFraxProtocol/contracts/Oracle/CrossChainOracle.sol\":2518:2524  uint i */\n      0x00\n        /* \"NewFraxProtocol/contracts/Oracle/CrossChainOracle.sol\":2513:2629  for (uint i = 0; i < token_addresses.length; i++){ ... */\n    tag_71:\n        /* \"NewFraxProtocol/contracts/Oracle/CrossChainOracle.sol\":2534:2549  token_addresses */\n      dup3\n        /* \"NewFraxProtocol/contracts/Oracle/CrossChainOracle.sol\":2534:2556  token_addresses.length */\n      mload\n        /* \"NewFraxProtocol/contracts/Oracle/CrossChainOracle.sol\":2530:2531  i */\n      dup2\n        /* \"NewFraxProtocol/contracts/Oracle/CrossChainOracle.sol\":2530:2556  i < token_addresses.length */\n      lt\n        /* \"NewFraxProtocol/contracts/Oracle/CrossChainOracle.sol\":2513:2629  for (uint i = 0; i < token_addresses.length; i++){ ... */\n      iszero\n      tag_72\n      jumpi\n        /* \"NewFraxProtocol/contracts/Oracle/CrossChainOracle.sol\":2606:2615  prices_e6 */\n      dup2\n        /* \"NewFraxProtocol/contracts/Oracle/CrossChainOracle.sol\":2616:2617  i */\n      dup2\n        /* \"NewFraxProtocol/contracts/Oracle/CrossChainOracle.sol\":2606:2618  prices_e6[i] */\n      dup2\n      mload\n      dup2\n      lt\n      tag_75\n      jumpi\n      tag_75\n      tag_76\n      jump\t// in\n    tag_75:\n      0x20\n      mul\n      0x20\n      add\n      add\n      mload\n        /* \"NewFraxProtocol/contracts/Oracle/CrossChainOracle.sol\":2577:2583  prices */\n      0x04\n        /* \"NewFraxProtocol/contracts/Oracle/CrossChainOracle.sol\":2577:2603  prices[token_addresses[i]] */\n      0x00\n        /* \"NewFraxProtocol/contracts/Oracle/CrossChainOracle.sol\":2584:2599  token_addresses */\n      dup6\n        /* \"NewFraxProtocol/contracts/Oracle/CrossChainOracle.sol\":2600:2601  i */\n      dup5\n        /* \"NewFraxProtocol/contracts/Oracle/CrossChainOracle.sol\":2584:2602  token_addresses[i] */\n      dup2\n      mload\n      dup2\n      lt\n      tag_78\n      jumpi\n      tag_78\n      tag_76\n      jump\t// in\n    tag_78:\n      0x20\n      mul\n      0x20\n      add\n      add\n      mload\n      sub(shl(0xa0, 0x01), 0x01)\n        /* \"NewFraxProtocol/contracts/Oracle/CrossChainOracle.sol\":2577:2603  prices[token_addresses[i]] */\n      and\n      sub(shl(0xa0, 0x01), 0x01)\n      and\n      dup2\n      mstore\n      0x20\n      add\n      swap1\n      dup2\n      mstore\n      0x20\n      add\n      0x00\n      keccak256\n        /* \"NewFraxProtocol/contracts/Oracle/CrossChainOracle.sol\":2577:2618  prices[token_addresses[i]] = prices_e6[i] */\n      dup2\n      swap1\n      sstore\n      pop\n        /* \"NewFraxProtocol/contracts/Oracle/CrossChainOracle.sol\":2558:2561  i++ */\n      dup1\n      dup1\n      tag_79\n      swap1\n      tag_80\n      jump\t// in\n    tag_79:\n      swap2\n      pop\n      pop\n        /* \"NewFraxProtocol/contracts/Oracle/CrossChainOracle.sol\":2513:2629  for (uint i = 0; i < token_addresses.length; i++){ ... */\n      jump(tag_71)\n    tag_72:\n      pop\n        /* \"NewFraxProtocol/contracts/Oracle/CrossChainOracle.sol\":2391:2635  function setMultiplePrices(address[] memory token_addresses, uint256[] memory prices_e6) public onlyByOwnGovBot {... */\n      pop\n      pop\n      jump\t// out\n        /* \"NewFraxProtocol/contracts/Staking/Owned.sol\":388:526  function nominateNewOwner(address _owner) external onlyOwner {... */\n    tag_27:\n        /* \"NewFraxProtocol/contracts/Staking/Owned.sol\":855:860  owner */\n      and(sub(shl(0xa0, 0x01), 0x01), sload(0x00))\n        /* \"NewFraxProtocol/contracts/Staking/Owned.sol\":841:851  msg.sender */\n      caller\n        /* \"NewFraxProtocol/contracts/Staking/Owned.sol\":841:860  msg.sender == owner */\n      eq\n        /* \"NewFraxProtocol/contracts/Staking/Owned.sol\":833:912  require(msg.sender == owner, \"Only the contract owner may perform this action\") */\n      tag_82\n      jumpi\n      mload(0x40)\n      shl(0xe5, 0x461bcd)\n      dup2\n      mstore\n        /* \"#utility.yul\":4373:4375   */\n      0x20\n        /* \"NewFraxProtocol/contracts/Staking/Owned.sol\":833:912  require(msg.sender == owner, \"Only the contract owner may perform this action\") */\n      0x04\n      dup3\n      add\n        /* \"#utility.yul\":4355:4376   */\n      mstore\n        /* \"#utility.yul\":4412:4414   */\n      0x2f\n        /* \"#utility.yul\":4392:4410   */\n      0x24\n      dup3\n      add\n        /* \"#utility.yul\":4385:4415   */\n      mstore\n        /* \"#utility.yul\":4451:4485   */\n      0x4f6e6c792074686520636f6e7472616374206f776e6572206d61792070657266\n        /* \"#utility.yul\":4431:4449   */\n      0x44\n      dup3\n      add\n        /* \"#utility.yul\":4424:4486   */\n      mstore\n      shl(0x89, 0x37b936903a3434b99030b1ba34b7b7)\n        /* \"#utility.yul\":4502:4520   */\n      0x64\n      dup3\n      add\n        /* \"#utility.yul\":4495:4540   */\n      mstore\n        /* \"#utility.yul\":4557:4576   */\n      0x84\n      add\n        /* \"NewFraxProtocol/contracts/Staking/Owned.sol\":833:912  require(msg.sender == owner, \"Only the contract owner may perform this action\") */\n      tag_62\n        /* \"#utility.yul\":4171:4582   */\n      jump\n        /* \"NewFraxProtocol/contracts/Staking/Owned.sol\":833:912  require(msg.sender == owner, \"Only the contract owner may perform this action\") */\n    tag_82:\n        /* \"NewFraxProtocol/contracts/Staking/Owned.sol\":459:473  nominatedOwner */\n      0x01\n        /* \"NewFraxProtocol/contracts/Staking/Owned.sol\":459:482  nominatedOwner = _owner */\n      dup1\n      sload\n      not(sub(shl(0xa0, 0x01), 0x01))\n      and\n      sub(shl(0xa0, 0x01), 0x01)\n      dup4\n      and\n      swap1\n      dup2\n      or\n      swap1\n      swap2\n      sstore\n        /* \"NewFraxProtocol/contracts/Staking/Owned.sol\":497:519  OwnerNominated(_owner) */\n      mload(0x40)\n        /* \"#utility.yul\":3388:3439   */\n      swap1\n      dup2\n      mstore\n        /* \"NewFraxProtocol/contracts/Staking/Owned.sol\":497:519  OwnerNominated(_owner) */\n      0x906a1c6bd7e3091ea86693dd029a831c19049ce77f1dce2ce0bab1cacbabce22\n      swap1\n        /* \"#utility.yul\":3376:3378   */\n      0x20\n        /* \"#utility.yul\":3361:3379   */\n      add\n        /* \"NewFraxProtocol/contracts/Staking/Owned.sol\":497:519  OwnerNominated(_owner) */\n      mload(0x40)\n      dup1\n      swap2\n      sub\n      swap1\n      log1\n        /* \"NewFraxProtocol/contracts/Staking/Owned.sol\":388:526  function nominateNewOwner(address _owner) external onlyOwner {... */\n      pop\n      jump\t// out\n        /* \"NewFraxProtocol/contracts/Oracle/CrossChainOracle.sol\":2832:2943  function setBot(address _new_bot_address) external onlyByOwnGov {... */\n    tag_39:\n        /* \"NewFraxProtocol/contracts/Oracle/CrossChainOracle.sol\":1395:1400  owner */\n      and(sub(shl(0xa0, 0x01), 0x01), sload(0x00))\n        /* \"NewFraxProtocol/contracts/Oracle/CrossChainOracle.sol\":1381:1391  msg.sender */\n      caller\n        /* \"NewFraxProtocol/contracts/Oracle/CrossChainOracle.sol\":1381:1400  msg.sender == owner */\n      eq\n      dup1\n        /* \"NewFraxProtocol/contracts/Oracle/CrossChainOracle.sol\":1381:1434  msg.sender == owner || msg.sender == timelock_address */\n      tag_89\n      jumpi\n      pop\n        /* \"NewFraxProtocol/contracts/Oracle/CrossChainOracle.sol\":1418:1434  timelock_address */\n      and(sub(shl(0xa0, 0x01), 0x01), sload(0x02))\n        /* \"NewFraxProtocol/contracts/Oracle/CrossChainOracle.sol\":1404:1414  msg.sender */\n      caller\n        /* \"NewFraxProtocol/contracts/Oracle/CrossChainOracle.sol\":1404:1434  msg.sender == timelock_address */\n      eq\n        /* \"NewFraxProtocol/contracts/Oracle/CrossChainOracle.sol\":1381:1434  msg.sender == owner || msg.sender == timelock_address */\n    tag_89:\n        /* \"NewFraxProtocol/contracts/Oracle/CrossChainOracle.sol\":1373:1460  require(msg.sender == owner || msg.sender == timelock_address, \"Not owner or timelock\") */\n      tag_90\n      jumpi\n      mload(0x40)\n      shl(0xe5, 0x461bcd)\n      dup2\n      mstore\n        /* \"#utility.yul\":4789:4791   */\n      0x20\n        /* \"NewFraxProtocol/contracts/Oracle/CrossChainOracle.sol\":1373:1460  require(msg.sender == owner || msg.sender == timelock_address, \"Not owner or timelock\") */\n      0x04\n      dup3\n      add\n        /* \"#utility.yul\":4771:4792   */\n      mstore\n        /* \"#utility.yul\":4828:4830   */\n      0x15\n        /* \"#utility.yul\":4808:4826   */\n      0x24\n      dup3\n      add\n        /* \"#utility.yul\":4801:4831   */\n      mstore\n      shl(0x58, 0x4e6f74206f776e6572206f722074696d656c6f636b)\n        /* \"#utility.yul\":4847:4865   */\n      0x44\n      dup3\n      add\n        /* \"#utility.yul\":4840:4891   */\n      mstore\n        /* \"#utility.yul\":4908:4926   */\n      0x64\n      add\n        /* \"NewFraxProtocol/contracts/Oracle/CrossChainOracle.sol\":1373:1460  require(msg.sender == owner || msg.sender == timelock_address, \"Not owner or timelock\") */\n      tag_62\n        /* \"#utility.yul\":4587:4932   */\n      jump\n        /* \"NewFraxProtocol/contracts/Oracle/CrossChainOracle.sol\":1373:1460  require(msg.sender == owner || msg.sender == timelock_address, \"Not owner or timelock\") */\n    tag_90:\n        /* \"NewFraxProtocol/contracts/Oracle/CrossChainOracle.sol\":2906:2917  bot_address */\n      0x03\n        /* \"NewFraxProtocol/contracts/Oracle/CrossChainOracle.sol\":2906:2936  bot_address = _new_bot_address */\n      dup1\n      sload\n      not(sub(shl(0xa0, 0x01), 0x01))\n      and\n      sub(shl(0xa0, 0x01), 0x01)\n      swap3\n      swap1\n      swap3\n      and\n      swap2\n      swap1\n      swap2\n      or\n      swap1\n      sstore\n        /* \"NewFraxProtocol/contracts/Oracle/CrossChainOracle.sol\":2832:2943  function setBot(address _new_bot_address) external onlyByOwnGov {... */\n      jump\t// out\n        /* \"NewFraxProtocol/contracts/Staking/Owned.sol\":532:798  function acceptOwnership() external {... */\n    tag_41:\n        /* \"NewFraxProtocol/contracts/Staking/Owned.sol\":600:614  nominatedOwner */\n      and(sub(shl(0xa0, 0x01), 0x01), sload(0x01))\n        /* \"NewFraxProtocol/contracts/Staking/Owned.sol\":586:596  msg.sender */\n      caller\n        /* \"NewFraxProtocol/contracts/Staking/Owned.sol\":586:614  msg.sender == nominatedOwner */\n      eq\n        /* \"NewFraxProtocol/contracts/Staking/Owned.sol\":578:672  require(msg.sender == nominatedOwner, \"You must be nominated before you can accept ownership\") */\n      tag_95\n      jumpi\n      mload(0x40)\n      shl(0xe5, 0x461bcd)\n      dup2\n      mstore\n        /* \"#utility.yul\":5139:5141   */\n      0x20\n        /* \"NewFraxProtocol/contracts/Staking/Owned.sol\":578:672  require(msg.sender == nominatedOwner, \"You must be nominated before you can accept ownership\") */\n      0x04\n      dup3\n      add\n        /* \"#utility.yul\":5121:5142   */\n      mstore\n        /* \"#utility.yul\":5178:5180   */\n      0x35\n        /* \"#utility.yul\":5158:5176   */\n      0x24\n      dup3\n      add\n        /* \"#utility.yul\":5151:5181   */\n      mstore\n        /* \"#utility.yul\":5217:5251   */\n      0x596f75206d757374206265206e6f6d696e61746564206265666f726520796f75\n        /* \"#utility.yul\":5197:5215   */\n      0x44\n      dup3\n      add\n        /* \"#utility.yul\":5190:5252   */\n      mstore\n      shl(0x5c, 0x02063616e20616363657074206f776e65727368697)\n        /* \"#utility.yul\":5268:5286   */\n      0x64\n      dup3\n      add\n        /* \"#utility.yul\":5261:5312   */\n      mstore\n        /* \"#utility.yul\":5329:5348   */\n      0x84\n      add\n        /* \"NewFraxProtocol/contracts/Staking/Owned.sol\":578:672  require(msg.sender == nominatedOwner, \"You must be nominated before you can accept ownership\") */\n      tag_62\n        /* \"#utility.yul\":4937:5354   */\n      jump\n        /* \"NewFraxProtocol/contracts/Staking/Owned.sol\":578:672  require(msg.sender == nominatedOwner, \"You must be nominated before you can accept ownership\") */\n    tag_95:\n        /* \"NewFraxProtocol/contracts/Staking/Owned.sol\":700:705  owner */\n      sload(0x00)\n      0x01\n        /* \"NewFraxProtocol/contracts/Staking/Owned.sol\":707:721  nominatedOwner */\n      sload\n        /* \"NewFraxProtocol/contracts/Staking/Owned.sol\":687:722  OwnerChanged(owner, nominatedOwner) */\n      0x40\n      dup1\n      mload\n      sub(shl(0xa0, 0x01), 0x01)\n        /* \"NewFraxProtocol/contracts/Staking/Owned.sol\":700:705  owner */\n      swap4\n      dup5\n      and\n        /* \"#utility.yul\":5571:5605   */\n      dup2\n      mstore\n        /* \"NewFraxProtocol/contracts/Staking/Owned.sol\":707:721  nominatedOwner */\n      swap3\n      swap1\n      swap2\n      and\n        /* \"#utility.yul\":5636:5638   */\n      0x20\n        /* \"#utility.yul\":5621:5639   */\n      dup4\n      add\n        /* \"#utility.yul\":5614:5657   */\n      mstore\n        /* \"NewFraxProtocol/contracts/Staking/Owned.sol\":687:722  OwnerChanged(owner, nominatedOwner) */\n      0xb532073b38c83145e3e5135377a08bf9aab55bc0fd7c1179cd4fb995d2a5159c\n      swap2\n        /* \"#utility.yul\":5506:5524   */\n      add\n        /* \"NewFraxProtocol/contracts/Staking/Owned.sol\":687:722  OwnerChanged(owner, nominatedOwner) */\n      mload(0x40)\n      dup1\n      swap2\n      sub\n      swap1\n      log1\n        /* \"NewFraxProtocol/contracts/Staking/Owned.sol\":740:754  nominatedOwner */\n      0x01\n      dup1\n      sload\n      0x00\n        /* \"NewFraxProtocol/contracts/Staking/Owned.sol\":732:754  owner = nominatedOwner */\n      dup1\n      sload\n      not(sub(shl(0xa0, 0x01), 0x01))\n      swap1\n      dup2\n      and\n      sub(shl(0xa0, 0x01), 0x01)\n        /* \"NewFraxProtocol/contracts/Staking/Owned.sol\":740:754  nominatedOwner */\n      dup5\n      and\n        /* \"NewFraxProtocol/contracts/Staking/Owned.sol\":732:754  owner = nominatedOwner */\n      or\n      swap1\n      swap2\n      sstore\n        /* \"NewFraxProtocol/contracts/Staking/Owned.sol\":764:791  nominatedOwner = address(0) */\n      and\n      swap1\n      sstore\n        /* \"NewFraxProtocol/contracts/Staking/Owned.sol\":532:798  function acceptOwnership() external {... */\n      jump\t// out\n        /* \"NewFraxProtocol/contracts/Oracle/CrossChainOracle.sol\":2695:2826  function setTimelock(address _new_timelock_address) external onlyByOwnGov {... */\n    tag_47:\n        /* \"NewFraxProtocol/contracts/Oracle/CrossChainOracle.sol\":1395:1400  owner */\n      and(sub(shl(0xa0, 0x01), 0x01), sload(0x00))\n        /* \"NewFraxProtocol/contracts/Oracle/CrossChainOracle.sol\":1381:1391  msg.sender */\n      caller\n        /* \"NewFraxProtocol/contracts/Oracle/CrossChainOracle.sol\":1381:1400  msg.sender == owner */\n      eq\n      dup1\n        /* \"NewFraxProtocol/contracts/Oracle/CrossChainOracle.sol\":1381:1434  msg.sender == owner || msg.sender == timelock_address */\n      tag_101\n      jumpi\n      pop\n        /* \"NewFraxProtocol/contracts/Oracle/CrossChainOracle.sol\":1418:1434  timelock_address */\n      and(sub(shl(0xa0, 0x01), 0x01), sload(0x02))\n        /* \"NewFraxProtocol/contracts/Oracle/CrossChainOracle.sol\":1404:1414  msg.sender */\n      caller\n        /* \"NewFraxProtocol/contracts/Oracle/CrossChainOracle.sol\":1404:1434  msg.sender == timelock_address */\n      eq\n        /* \"NewFraxProtocol/contracts/Oracle/CrossChainOracle.sol\":1381:1434  msg.sender == owner || msg.sender == timelock_address */\n    tag_101:\n        /* \"NewFraxProtocol/contracts/Oracle/CrossChainOracle.sol\":1373:1460  require(msg.sender == owner || msg.sender == timelock_address, \"Not owner or timelock\") */\n      tag_102\n      jumpi\n      mload(0x40)\n      shl(0xe5, 0x461bcd)\n      dup2\n      mstore\n        /* \"#utility.yul\":4789:4791   */\n      0x20\n        /* \"NewFraxProtocol/contracts/Oracle/CrossChainOracle.sol\":1373:1460  require(msg.sender == owner || msg.sender == timelock_address, \"Not owner or timelock\") */\n      0x04\n      dup3\n      add\n        /* \"#utility.yul\":4771:4792   */\n      mstore\n        /* \"#utility.yul\":4828:4830   */\n      0x15\n        /* \"#utility.yul\":4808:4826   */\n      0x24\n      dup3\n      add\n        /* \"#utility.yul\":4801:4831   */\n      mstore\n      shl(0x58, 0x4e6f74206f776e6572206f722074696d656c6f636b)\n        /* \"#utility.yul\":4847:4865   */\n      0x44\n      dup3\n      add\n        /* \"#utility.yul\":4840:4891   */\n      mstore\n        /* \"#utility.yul\":4908:4926   */\n      0x64\n      add\n        /* \"NewFraxProtocol/contracts/Oracle/CrossChainOracle.sol\":1373:1460  require(msg.sender == owner || msg.sender == timelock_address, \"Not owner or timelock\") */\n      tag_62\n        /* \"#utility.yul\":4587:4932   */\n      jump\n        /* \"NewFraxProtocol/contracts/Oracle/CrossChainOracle.sol\":1373:1460  require(msg.sender == owner || msg.sender == timelock_address, \"Not owner or timelock\") */\n    tag_102:\n        /* \"NewFraxProtocol/contracts/Oracle/CrossChainOracle.sol\":2779:2795  timelock_address */\n      0x02\n        /* \"NewFraxProtocol/contracts/Oracle/CrossChainOracle.sol\":2779:2819  timelock_address = _new_timelock_address */\n      dup1\n      sload\n      not(sub(shl(0xa0, 0x01), 0x01))\n      and\n      sub(shl(0xa0, 0x01), 0x01)\n      swap3\n      swap1\n      swap3\n      and\n      swap2\n      swap1\n      swap2\n      or\n      swap1\n      sstore\n        /* \"NewFraxProtocol/contracts/Oracle/CrossChainOracle.sol\":2695:2826  function setTimelock(address _new_timelock_address) external onlyByOwnGov {... */\n      jump\t// out\n        /* \"#utility.yul\":14:187   */\n    tag_105:\n        /* \"#utility.yul\":82:102   */\n      dup1\n      calldataload\n      sub(shl(0xa0, 0x01), 0x01)\n        /* \"#utility.yul\":131:162   */\n      dup2\n      and\n        /* \"#utility.yul\":121:163   */\n      dup2\n      eq\n        /* \"#utility.yul\":111:181   */\n      tag_112\n      jumpi\n        /* \"#utility.yul\":177:178   */\n      0x00\n        /* \"#utility.yul\":174:175   */\n      dup1\n        /* \"#utility.yul\":167:179   */\n      revert\n        /* \"#utility.yul\":111:181   */\n    tag_112:\n        /* \"#utility.yul\":14:187   */\n      swap2\n      swap1\n      pop\n      jump\t// out\n        /* \"#utility.yul\":192:446   */\n    tag_18:\n        /* \"#utility.yul\":260:266   */\n      0x00\n        /* \"#utility.yul\":268:274   */\n      dup1\n        /* \"#utility.yul\":321:323   */\n      0x40\n        /* \"#utility.yul\":309:318   */\n      dup4\n        /* \"#utility.yul\":300:307   */\n      dup6\n        /* \"#utility.yul\":296:319   */\n      sub\n        /* \"#utility.yul\":292:324   */\n      slt\n        /* \"#utility.yul\":289:341   */\n      iszero\n      tag_114\n      jumpi\n        /* \"#utility.yul\":337:338   */\n      0x00\n        /* \"#utility.yul\":334:335   */\n      dup1\n        /* \"#utility.yul\":327:339   */\n      revert\n        /* \"#utility.yul\":289:341   */\n    tag_114:\n        /* \"#utility.yul\":360:389   */\n      tag_115\n        /* \"#utility.yul\":379:388   */\n      dup4\n        /* \"#utility.yul\":360:389   */\n      tag_105\n      jump\t// in\n    tag_115:\n        /* \"#utility.yul\":350:389   */\n      swap5\n        /* \"#utility.yul\":436:438   */\n      0x20\n        /* \"#utility.yul\":421:439   */\n      swap4\n      swap1\n      swap4\n      add\n        /* \"#utility.yul\":408:440   */\n      calldataload\n      swap4\n      pop\n      pop\n      pop\n        /* \"#utility.yul\":192:446   */\n      jump\t// out\n        /* \"#utility.yul\":451:578   */\n    tag_106:\n        /* \"#utility.yul\":512:522   */\n      0x4e487b71\n        /* \"#utility.yul\":507:510   */\n      0xe0\n        /* \"#utility.yul\":503:523   */\n      shl\n        /* \"#utility.yul\":500:501   */\n      0x00\n        /* \"#utility.yul\":493:524   */\n      mstore\n        /* \"#utility.yul\":543:547   */\n      0x41\n        /* \"#utility.yul\":540:541   */\n      0x04\n        /* \"#utility.yul\":533:548   */\n      mstore\n        /* \"#utility.yul\":567:571   */\n      0x24\n        /* \"#utility.yul\":564:565   */\n      0x00\n        /* \"#utility.yul\":557:572   */\n      revert\n        /* \"#utility.yul\":583:858   */\n    tag_107:\n        /* \"#utility.yul\":654:656   */\n      0x40\n        /* \"#utility.yul\":648:657   */\n      mload\n        /* \"#utility.yul\":719:721   */\n      0x1f\n        /* \"#utility.yul\":700:713   */\n      dup3\n      add\n      not(0x1f)\n        /* \"#utility.yul\":696:723   */\n      and\n        /* \"#utility.yul\":684:724   */\n      dup2\n      add\n        /* \"#utility.yul\":754:772   */\n      0xffffffffffffffff\n        /* \"#utility.yul\":739:773   */\n      dup2\n      gt\n        /* \"#utility.yul\":775:797   */\n      dup3\n      dup3\n      lt\n        /* \"#utility.yul\":736:798   */\n      or\n        /* \"#utility.yul\":733:821   */\n      iszero\n      tag_119\n      jumpi\n        /* \"#utility.yul\":801:819   */\n      tag_119\n      tag_106\n      jump\t// in\n    tag_119:\n        /* \"#utility.yul\":837:839   */\n      0x40\n        /* \"#utility.yul\":830:852   */\n      mstore\n        /* \"#utility.yul\":583:858   */\n      swap2\n      swap1\n      pop\n      jump\t// out\n        /* \"#utility.yul\":863:1046   */\n    tag_108:\n        /* \"#utility.yul\":923:927   */\n      0x00\n        /* \"#utility.yul\":956:974   */\n      0xffffffffffffffff\n        /* \"#utility.yul\":948:954   */\n      dup3\n        /* \"#utility.yul\":945:975   */\n      gt\n        /* \"#utility.yul\":942:998   */\n      iszero\n      tag_122\n      jumpi\n        /* \"#utility.yul\":978:996   */\n      tag_122\n      tag_106\n      jump\t// in\n    tag_122:\n      pop\n        /* \"#utility.yul\":1023:1024   */\n      0x05\n        /* \"#utility.yul\":1019:1033   */\n      shl\n        /* \"#utility.yul\":1035:1039   */\n      0x20\n        /* \"#utility.yul\":1015:1040   */\n      add\n      swap1\n        /* \"#utility.yul\":863:1046   */\n      jump\t// out\n        /* \"#utility.yul\":1051:1713   */\n    tag_109:\n        /* \"#utility.yul\":1105:1110   */\n      0x00\n        /* \"#utility.yul\":1158:1161   */\n      dup3\n        /* \"#utility.yul\":1151:1155   */\n      0x1f\n        /* \"#utility.yul\":1143:1149   */\n      dup4\n        /* \"#utility.yul\":1139:1156   */\n      add\n        /* \"#utility.yul\":1135:1162   */\n      slt\n        /* \"#utility.yul\":1125:1180   */\n      tag_124\n      jumpi\n        /* \"#utility.yul\":1176:1177   */\n      0x00\n        /* \"#utility.yul\":1173:1174   */\n      dup1\n        /* \"#utility.yul\":1166:1178   */\n      revert\n        /* \"#utility.yul\":1125:1180   */\n    tag_124:\n        /* \"#utility.yul\":1212:1218   */\n      dup2\n        /* \"#utility.yul\":1199:1219   */\n      calldataload\n        /* \"#utility.yul\":1238:1242   */\n      0x20\n        /* \"#utility.yul\":1262:1322   */\n      tag_125\n        /* \"#utility.yul\":1278:1321   */\n      tag_126\n        /* \"#utility.yul\":1318:1320   */\n      dup4\n        /* \"#utility.yul\":1278:1321   */\n      tag_108\n      jump\t// in\n    tag_126:\n        /* \"#utility.yul\":1262:1322   */\n      tag_107\n      jump\t// in\n    tag_125:\n        /* \"#utility.yul\":1356:1371   */\n      dup3\n      dup2\n      mstore\n        /* \"#utility.yul\":1442:1443   */\n      0x05\n        /* \"#utility.yul\":1438:1448   */\n      swap3\n      swap1\n      swap3\n      shl\n        /* \"#utility.yul\":1426:1449   */\n      dup5\n      add\n        /* \"#utility.yul\":1422:1454   */\n      dup2\n      add\n      swap2\n        /* \"#utility.yul\":1387:1399   */\n      dup2\n      dup2\n      add\n      swap1\n        /* \"#utility.yul\":1466:1481   */\n      dup7\n      dup5\n      gt\n        /* \"#utility.yul\":1463:1498   */\n      iszero\n      tag_127\n      jumpi\n        /* \"#utility.yul\":1494:1495   */\n      0x00\n        /* \"#utility.yul\":1491:1492   */\n      dup1\n        /* \"#utility.yul\":1484:1496   */\n      revert\n        /* \"#utility.yul\":1463:1498   */\n    tag_127:\n        /* \"#utility.yul\":1530:1532   */\n      dup3\n        /* \"#utility.yul\":1522:1528   */\n      dup7\n        /* \"#utility.yul\":1518:1533   */\n      add\n        /* \"#utility.yul\":1542:1684   */\n    tag_128:\n        /* \"#utility.yul\":1558:1564   */\n      dup5\n        /* \"#utility.yul\":1553:1556   */\n      dup2\n        /* \"#utility.yul\":1550:1565   */\n      lt\n        /* \"#utility.yul\":1542:1684   */\n      iszero\n      tag_130\n      jumpi\n        /* \"#utility.yul\":1624:1641   */\n      dup1\n      calldataload\n        /* \"#utility.yul\":1612:1642   */\n      dup4\n      mstore\n        /* \"#utility.yul\":1662:1674   */\n      swap2\n      dup4\n      add\n      swap2\n        /* \"#utility.yul\":1575:1587   */\n      dup4\n      add\n        /* \"#utility.yul\":1542:1684   */\n      jump(tag_128)\n    tag_130:\n      pop\n        /* \"#utility.yul\":1702:1707   */\n      swap7\n        /* \"#utility.yul\":1051:1713   */\n      swap6\n      pop\n      pop\n      pop\n      pop\n      pop\n      pop\n      jump\t// out\n        /* \"#utility.yul\":1718:2864   */\n    tag_22:\n        /* \"#utility.yul\":1836:1842   */\n      0x00\n        /* \"#utility.yul\":1844:1850   */\n      dup1\n        /* \"#utility.yul\":1897:1899   */\n      0x40\n        /* \"#utility.yul\":1885:1894   */\n      dup4\n        /* \"#utility.yul\":1876:1883   */\n      dup6\n        /* \"#utility.yul\":1872:1895   */\n      sub\n        /* \"#utility.yul\":1868:1900   */\n      slt\n        /* \"#utility.yul\":1865:1917   */\n      iszero\n      tag_132\n      jumpi\n        /* \"#utility.yul\":1913:1914   */\n      0x00\n        /* \"#utility.yul\":1910:1911   */\n      dup1\n        /* \"#utility.yul\":1903:1915   */\n      revert\n        /* \"#utility.yul\":1865:1917   */\n    tag_132:\n        /* \"#utility.yul\":1953:1962   */\n      dup3\n        /* \"#utility.yul\":1940:1963   */\n      calldataload\n        /* \"#utility.yul\":1982:2000   */\n      0xffffffffffffffff\n        /* \"#utility.yul\":2023:2025   */\n      dup1\n        /* \"#utility.yul\":2015:2021   */\n      dup3\n        /* \"#utility.yul\":2012:2026   */\n      gt\n        /* \"#utility.yul\":2009:2043   */\n      iszero\n      tag_133\n      jumpi\n        /* \"#utility.yul\":2039:2040   */\n      0x00\n        /* \"#utility.yul\":2036:2037   */\n      dup1\n        /* \"#utility.yul\":2029:2041   */\n      revert\n        /* \"#utility.yul\":2009:2043   */\n    tag_133:\n        /* \"#utility.yul\":2077:2083   */\n      dup2\n        /* \"#utility.yul\":2066:2075   */\n      dup6\n        /* \"#utility.yul\":2062:2084   */\n      add\n        /* \"#utility.yul\":2052:2084   */\n      swap2\n      pop\n        /* \"#utility.yul\":2122:2129   */\n      dup6\n        /* \"#utility.yul\":2115:2119   */\n      0x1f\n        /* \"#utility.yul\":2111:2113   */\n      dup4\n        /* \"#utility.yul\":2107:2120   */\n      add\n        /* \"#utility.yul\":2103:2130   */\n      slt\n        /* \"#utility.yul\":2093:2148   */\n      tag_134\n      jumpi\n        /* \"#utility.yul\":2144:2145   */\n      0x00\n        /* \"#utility.yul\":2141:2142   */\n      dup1\n        /* \"#utility.yul\":2134:2146   */\n      revert\n        /* \"#utility.yul\":2093:2148   */\n    tag_134:\n        /* \"#utility.yul\":2180:2182   */\n      dup2\n        /* \"#utility.yul\":2167:2183   */\n      calldataload\n        /* \"#utility.yul\":2202:2206   */\n      0x20\n        /* \"#utility.yul\":2226:2286   */\n      tag_135\n        /* \"#utility.yul\":2242:2285   */\n      tag_126\n        /* \"#utility.yul\":2282:2284   */\n      dup4\n        /* \"#utility.yul\":2242:2285   */\n      tag_108\n      jump\t// in\n        /* \"#utility.yul\":2226:2286   */\n    tag_135:\n        /* \"#utility.yul\":2320:2335   */\n      dup3\n      dup2\n      mstore\n        /* \"#utility.yul\":2402:2403   */\n      0x05\n        /* \"#utility.yul\":2398:2408   */\n      swap3\n      swap1\n      swap3\n      shl\n        /* \"#utility.yul\":2390:2409   */\n      dup5\n      add\n        /* \"#utility.yul\":2386:2414   */\n      dup2\n      add\n      swap2\n        /* \"#utility.yul\":2351:2363   */\n      dup2\n      dup2\n      add\n      swap1\n        /* \"#utility.yul\":2426:2445   */\n      dup10\n      dup5\n      gt\n        /* \"#utility.yul\":2423:2462   */\n      iszero\n      tag_137\n      jumpi\n        /* \"#utility.yul\":2458:2459   */\n      0x00\n        /* \"#utility.yul\":2455:2456   */\n      dup1\n        /* \"#utility.yul\":2448:2460   */\n      revert\n        /* \"#utility.yul\":2423:2462   */\n    tag_137:\n        /* \"#utility.yul\":2482:2493   */\n      swap5\n      dup3\n      add\n      swap5\n        /* \"#utility.yul\":2502:2650   */\n    tag_138:\n        /* \"#utility.yul\":2518:2524   */\n      dup4\n        /* \"#utility.yul\":2513:2516   */\n      dup7\n        /* \"#utility.yul\":2510:2525   */\n      lt\n        /* \"#utility.yul\":2502:2650   */\n      iszero\n      tag_140\n      jumpi\n        /* \"#utility.yul\":2584:2607   */\n      tag_141\n        /* \"#utility.yul\":2603:2606   */\n      dup7\n        /* \"#utility.yul\":2584:2607   */\n      tag_105\n      jump\t// in\n    tag_141:\n        /* \"#utility.yul\":2572:2608   */\n      dup3\n      mstore\n        /* \"#utility.yul\":2535:2547   */\n      swap5\n      dup3\n      add\n      swap5\n        /* \"#utility.yul\":2628:2640   */\n      swap1\n      dup3\n      add\n      swap1\n        /* \"#utility.yul\":2502:2650   */\n      jump(tag_138)\n    tag_140:\n        /* \"#utility.yul\":2669:2674   */\n      swap7\n      pop\n      pop\n        /* \"#utility.yul\":2712:2730   */\n      dup7\n      add\n        /* \"#utility.yul\":2699:2731   */\n      calldataload\n      swap3\n      pop\n      pop\n        /* \"#utility.yul\":2743:2759   */\n      dup1\n      dup3\n      gt\n        /* \"#utility.yul\":2740:2776   */\n      iszero\n      tag_142\n      jumpi\n        /* \"#utility.yul\":2772:2773   */\n      0x00\n        /* \"#utility.yul\":2769:2770   */\n      dup1\n        /* \"#utility.yul\":2762:2774   */\n      revert\n        /* \"#utility.yul\":2740:2776   */\n    tag_142:\n      pop\n        /* \"#utility.yul\":2795:2858   */\n      tag_143\n        /* \"#utility.yul\":2850:2857   */\n      dup6\n        /* \"#utility.yul\":2839:2847   */\n      dup3\n        /* \"#utility.yul\":2828:2837   */\n      dup7\n        /* \"#utility.yul\":2824:2848   */\n      add\n        /* \"#utility.yul\":2795:2858   */\n      tag_109\n      jump\t// in\n    tag_143:\n        /* \"#utility.yul\":2785:2858   */\n      swap2\n      pop\n      pop\n        /* \"#utility.yul\":1718:2864   */\n      swap3\n      pop\n      swap3\n      swap1\n      pop\n      jump\t// out\n        /* \"#utility.yul\":2869:3055   */\n    tag_26:\n        /* \"#utility.yul\":2928:2934   */\n      0x00\n        /* \"#utility.yul\":2981:2983   */\n      0x20\n        /* \"#utility.yul\":2969:2978   */\n      dup3\n        /* \"#utility.yul\":2960:2967   */\n      dup5\n        /* \"#utility.yul\":2956:2979   */\n      sub\n        /* \"#utility.yul\":2952:2984   */\n      slt\n        /* \"#utility.yul\":2949:3001   */\n      iszero\n      tag_145\n      jumpi\n        /* \"#utility.yul\":2997:2998   */\n      0x00\n        /* \"#utility.yul\":2994:2995   */\n      dup1\n        /* \"#utility.yul\":2987:2999   */\n      revert\n        /* \"#utility.yul\":2949:3001   */\n    tag_145:\n        /* \"#utility.yul\":3020:3049   */\n      tag_146\n        /* \"#utility.yul\":3039:3048   */\n      dup3\n        /* \"#utility.yul\":3020:3049   */\n      tag_105\n      jump\t// in\n    tag_146:\n        /* \"#utility.yul\":3010:3049   */\n      swap4\n        /* \"#utility.yul\":2869:3055   */\n      swap3\n      pop\n      pop\n      pop\n      jump\t// out\n        /* \"#utility.yul\":3802:3929   */\n    tag_76:\n        /* \"#utility.yul\":3863:3873   */\n      0x4e487b71\n        /* \"#utility.yul\":3858:3861   */\n      0xe0\n        /* \"#utility.yul\":3854:3874   */\n      shl\n        /* \"#utility.yul\":3851:3852   */\n      0x00\n        /* \"#utility.yul\":3844:3875   */\n      mstore\n        /* \"#utility.yul\":3894:3898   */\n      0x32\n        /* \"#utility.yul\":3891:3892   */\n      0x04\n        /* \"#utility.yul\":3884:3899   */\n      mstore\n        /* \"#utility.yul\":3918:3922   */\n      0x24\n        /* \"#utility.yul\":3915:3916   */\n      0x00\n        /* \"#utility.yul\":3908:3923   */\n      revert\n        /* \"#utility.yul\":3934:4166   */\n    tag_80:\n        /* \"#utility.yul\":3973:3976   */\n      0x00\n        /* \"#utility.yul\":3994:4011   */\n      0x01\n      dup3\n      add\n        /* \"#utility.yul\":3991:4131   */\n      tag_152\n      jumpi\n        /* \"#utility.yul\":4053:4063   */\n      0x4e487b71\n        /* \"#utility.yul\":4048:4051   */\n      0xe0\n        /* \"#utility.yul\":4044:4064   */\n      shl\n        /* \"#utility.yul\":4041:4042   */\n      0x00\n        /* \"#utility.yul\":4034:4065   */\n      mstore\n        /* \"#utility.yul\":4088:4092   */\n      0x11\n        /* \"#utility.yul\":4085:4086   */\n      0x04\n        /* \"#utility.yul\":4078:4093   */\n      mstore\n        /* \"#utility.yul\":4116:4120   */\n      0x24\n        /* \"#utility.yul\":4113:4114   */\n      0x00\n        /* \"#utility.yul\":4106:4121   */\n      revert\n        /* \"#utility.yul\":3991:4131   */\n    tag_152:\n      pop\n        /* \"#utility.yul\":4158:4159   */\n      0x01\n        /* \"#utility.yul\":4147:4160   */\n      add\n      swap1\n        /* \"#utility.yul\":3934:4166   */\n      jump\t// out\n\n    auxdata: 0xa26469706673582212207cadacb52976e1777d4f9263f35baff3159bb6df80e2cbc5c056e5a3101cfd1b64736f6c63430008150033\n}\n",
				"bytecode": {
					"linkReferences": {},
					"object": "608060405234801561000f575f80fd5b50604051610a03380380610a0383398101604081905261002e9161012d565b826001600160a01b0381166100895760405162461bcd60e51b815260206004820152601960248201527f4f776e657220616464726573732063616e6e6f74206265203000000000000000604482015260640160405180910390fd5b5f80546001600160a01b0319166001600160a01b03831690811782556040805192835260208301919091527fb532073b38c83145e3e5135377a08bf9aab55bc0fd7c1179cd4fb995d2a5159c910160405180910390a150600280546001600160a01b039384166001600160a01b031991821617909155600380549290931691161790555061016d565b80516001600160a01b0381168114610128575f80fd5b919050565b5f805f6060848603121561013f575f80fd5b61014884610112565b925061015660208501610112565b915061016460408501610112565b90509250925092565b6108898061017a5f395ff3fe608060405234801561000f575f80fd5b50600436106100b0575f3560e01c806379ba50971161006e57806379ba5097146101685780638da5cb5b14610170578063bdacb30314610182578063cfed246b14610195578063dbea953d146101b4578063dc6663c7146101c7575f80fd5b8062e4768b146100b457806304f4a374146100c95780631627540c146100dc57806341976e09146100ef57806353a47bb71461012a5780636b5caec414610155575b5f80fd5b6100c76100c2366004610649565b6101da565b005b6100c76100d7366004610741565b610277565b6100c76100ea3660046107fb565b610371565b6101176100fd3660046107fb565b6001600160a01b03165f9081526004602052604090205490565b6040519081526020015b60405180910390f35b60015461013d906001600160a01b031681565b6040516001600160a01b039091168152602001610121565b6100c76101633660046107fb565b610436565b6100c76104be565b5f5461013d906001600160a01b031681565b6100c76101903660046107fb565b6105a6565b6101176101a33660046107fb565b60046020525f908152604090205481565b60035461013d906001600160a01b031681565b60025461013d906001600160a01b031681565b5f546001600160a01b03163314806101fc57506002546001600160a01b031633145b8061021157506003546001600160a01b031633145b61025c5760405162461bcd60e51b8152602060048201526017602482015276139bdd081bdddb995c8b081d1b18dacb081bdc88189bdd604a1b60448201526064015b60405180910390fd5b6001600160a01b039091165f90815260046020526040902055565b5f546001600160a01b031633148061029957506002546001600160a01b031633145b806102ae57506003546001600160a01b031633145b6102f45760405162461bcd60e51b8152602060048201526017602482015276139bdd081bdddb995c8b081d1b18dacb081bdc88189bdd604a1b6044820152606401610253565b5f5b825181101561036c578181815181106103115761031161081b565b602002602001015160045f85848151811061032e5761032e61081b565b60200260200101516001600160a01b03166001600160a01b031681526020019081526020015f208190555080806103649061082f565b9150506102f6565b505050565b5f546001600160a01b031633146103e25760405162461bcd60e51b815260206004820152602f60248201527f4f6e6c792074686520636f6e7472616374206f776e6572206d6179207065726660448201526e37b936903a3434b99030b1ba34b7b760891b6064820152608401610253565b600180546001600160a01b0319166001600160a01b0383169081179091556040519081527f906a1c6bd7e3091ea86693dd029a831c19049ce77f1dce2ce0bab1cacbabce229060200160405180910390a150565b5f546001600160a01b031633148061045857506002546001600160a01b031633145b61049c5760405162461bcd60e51b81526020600482015260156024820152744e6f74206f776e6572206f722074696d656c6f636b60581b6044820152606401610253565b600380546001600160a01b0319166001600160a01b0392909216919091179055565b6001546001600160a01b031633146105365760405162461bcd60e51b815260206004820152603560248201527f596f75206d757374206265206e6f6d696e61746564206265666f726520796f7560448201527402063616e20616363657074206f776e65727368697605c1b6064820152608401610253565b5f54600154604080516001600160a01b0393841681529290911660208301527fb532073b38c83145e3e5135377a08bf9aab55bc0fd7c1179cd4fb995d2a5159c910160405180910390a1600180545f80546001600160a01b03199081166001600160a01b03841617909155169055565b5f546001600160a01b03163314806105c857506002546001600160a01b031633145b61060c5760405162461bcd60e51b81526020600482015260156024820152744e6f74206f776e6572206f722074696d656c6f636b60581b6044820152606401610253565b600280546001600160a01b0319166001600160a01b0392909216919091179055565b80356001600160a01b0381168114610644575f80fd5b919050565b5f806040838503121561065a575f80fd5b6106638361062e565b946020939093013593505050565b634e487b7160e01b5f52604160045260245ffd5b604051601f8201601f1916810167ffffffffffffffff811182821017156106ae576106ae610671565b604052919050565b5f67ffffffffffffffff8211156106cf576106cf610671565b5060051b60200190565b5f82601f8301126106e8575f80fd5b813560206106fd6106f8836106b6565b610685565b82815260059290921b8401810191818101908684111561071b575f80fd5b8286015b84811015610736578035835291830191830161071f565b509695505050505050565b5f8060408385031215610752575f80fd5b823567ffffffffffffffff80821115610769575f80fd5b818501915085601f83011261077c575f80fd5b8135602061078c6106f8836106b6565b82815260059290921b840181019181810190898411156107aa575f80fd5b948201945b838610156107cf576107c08661062e565b825294820194908201906107af565b965050860135925050808211156107e4575f80fd5b506107f1858286016106d9565b9150509250929050565b5f6020828403121561080b575f80fd5b6108148261062e565b9392505050565b634e487b7160e01b5f52603260045260245ffd5b5f6001820161084c57634e487b7160e01b5f52601160045260245ffd5b506001019056fea26469706673582212207cadacb52976e1777d4f9263f35baff3159bb6df80e2cbc5c056e5a3101cfd1b64736f6c63430008150033",
					"opcodes": "PUSH1 0x80 PUSH1 0x40 MSTORE CALLVALUE DUP1 ISZERO PUSH2 0xF JUMPI PUSH0 DUP1 REVERT JUMPDEST POP PUSH1 0x40 MLOAD PUSH2 0xA03 CODESIZE SUB DUP1 PUSH2 0xA03 DUP4 CODECOPY DUP2 ADD PUSH1 0x40 DUP2 SWAP1 MSTORE PUSH2 0x2E SWAP2 PUSH2 0x12D JUMP JUMPDEST DUP3 PUSH1 0x1 PUSH1 0x1 PUSH1 0xA0 SHL SUB DUP2 AND PUSH2 0x89 JUMPI PUSH1 0x40 MLOAD PUSH3 0x461BCD PUSH1 0xE5 SHL DUP2 MSTORE PUSH1 0x20 PUSH1 0x4 DUP3 ADD MSTORE PUSH1 0x19 PUSH1 0x24 DUP3 ADD MSTORE PUSH32 0x4F776E657220616464726573732063616E6E6F74206265203000000000000000 PUSH1 0x44 DUP3 ADD MSTORE PUSH1 0x64 ADD PUSH1 0x40 MLOAD DUP1 SWAP2 SUB SWAP1 REVERT JUMPDEST PUSH0 DUP1 SLOAD PUSH1 0x1 PUSH1 0x1 PUSH1 0xA0 SHL SUB NOT AND PUSH1 0x1 PUSH1 0x1 PUSH1 0xA0 SHL SUB DUP4 AND SWAP1 DUP2 OR DUP3 SSTORE PUSH1 0x40 DUP1 MLOAD SWAP3 DUP4 MSTORE PUSH1 0x20 DUP4 ADD SWAP2 SWAP1 SWAP2 MSTORE PUSH32 0xB532073B38C83145E3E5135377A08BF9AAB55BC0FD7C1179CD4FB995D2A5159C SWAP2 ADD PUSH1 0x40 MLOAD DUP1 SWAP2 SUB SWAP1 LOG1 POP PUSH1 0x2 DUP1 SLOAD PUSH1 0x1 PUSH1 0x1 PUSH1 0xA0 SHL SUB SWAP4 DUP5 AND PUSH1 0x1 PUSH1 0x1 PUSH1 0xA0 SHL SUB NOT SWAP2 DUP3 AND OR SWAP1 SWAP2 SSTORE PUSH1 0x3 DUP1 SLOAD SWAP3 SWAP1 SWAP4 AND SWAP2 AND OR SWAP1 SSTORE POP PUSH2 0x16D JUMP JUMPDEST DUP1 MLOAD PUSH1 0x1 PUSH1 0x1 PUSH1 0xA0 SHL SUB DUP2 AND DUP2 EQ PUSH2 0x128 JUMPI PUSH0 DUP1 REVERT JUMPDEST SWAP2 SWAP1 POP JUMP JUMPDEST PUSH0 DUP1 PUSH0 PUSH1 0x60 DUP5 DUP7 SUB SLT ISZERO PUSH2 0x13F JUMPI PUSH0 DUP1 REVERT JUMPDEST PUSH2 0x148 DUP5 PUSH2 0x112 JUMP JUMPDEST SWAP3 POP PUSH2 0x156 PUSH1 0x20 DUP6 ADD PUSH2 0x112 JUMP JUMPDEST SWAP2 POP PUSH2 0x164 PUSH1 0x40 DUP6 ADD PUSH2 0x112 JUMP JUMPDEST SWAP1 POP SWAP3 POP SWAP3 POP SWAP3 JUMP JUMPDEST PUSH2 0x889 DUP1 PUSH2 0x17A PUSH0 CODECOPY PUSH0 RETURN INVALID PUSH1 0x80 PUSH1 0x40 MSTORE CALLVALUE DUP1 ISZERO PUSH2 0xF JUMPI PUSH0 DUP1 REVERT JUMPDEST POP PUSH1 0x4 CALLDATASIZE LT PUSH2 0xB0 JUMPI PUSH0 CALLDATALOAD PUSH1 0xE0 SHR DUP1 PUSH4 0x79BA5097 GT PUSH2 0x6E JUMPI DUP1 PUSH4 0x79BA5097 EQ PUSH2 0x168 JUMPI DUP1 PUSH4 0x8DA5CB5B EQ PUSH2 0x170 JUMPI DUP1 PUSH4 0xBDACB303 EQ PUSH2 0x182 JUMPI DUP1 PUSH4 0xCFED246B EQ PUSH2 0x195 JUMPI DUP1 PUSH4 0xDBEA953D EQ PUSH2 0x1B4 JUMPI DUP1 PUSH4 0xDC6663C7 EQ PUSH2 0x1C7 JUMPI PUSH0 DUP1 REVERT JUMPDEST DUP1 PUSH3 0xE4768B EQ PUSH2 0xB4 JUMPI DUP1 PUSH4 0x4F4A374 EQ PUSH2 0xC9 JUMPI DUP1 PUSH4 0x1627540C EQ PUSH2 0xDC JUMPI DUP1 PUSH4 0x41976E09 EQ PUSH2 0xEF JUMPI DUP1 PUSH4 0x53A47BB7 EQ PUSH2 0x12A JUMPI DUP1 PUSH4 0x6B5CAEC4 EQ PUSH2 0x155 JUMPI JUMPDEST PUSH0 DUP1 REVERT JUMPDEST PUSH2 0xC7 PUSH2 0xC2 CALLDATASIZE PUSH1 0x4 PUSH2 0x649 JUMP JUMPDEST PUSH2 0x1DA JUMP JUMPDEST STOP JUMPDEST PUSH2 0xC7 PUSH2 0xD7 CALLDATASIZE PUSH1 0x4 PUSH2 0x741 JUMP JUMPDEST PUSH2 0x277 JUMP JUMPDEST PUSH2 0xC7 PUSH2 0xEA CALLDATASIZE PUSH1 0x4 PUSH2 0x7FB JUMP JUMPDEST PUSH2 0x371 JUMP JUMPDEST PUSH2 0x117 PUSH2 0xFD CALLDATASIZE PUSH1 0x4 PUSH2 0x7FB JUMP JUMPDEST PUSH1 0x1 PUSH1 0x1 PUSH1 0xA0 SHL SUB AND PUSH0 SWAP1 DUP2 MSTORE PUSH1 0x4 PUSH1 0x20 MSTORE PUSH1 0x40 SWAP1 KECCAK256 SLOAD SWAP1 JUMP JUMPDEST PUSH1 0x40 MLOAD SWAP1 DUP2 MSTORE PUSH1 0x20 ADD JUMPDEST PUSH1 0x40 MLOAD DUP1 SWAP2 SUB SWAP1 RETURN JUMPDEST PUSH1 0x1 SLOAD PUSH2 0x13D SWAP1 PUSH1 0x1 PUSH1 0x1 PUSH1 0xA0 SHL SUB AND DUP2 JUMP JUMPDEST PUSH1 0x40 MLOAD PUSH1 0x1 PUSH1 0x1 PUSH1 0xA0 SHL SUB SWAP1 SWAP2 AND DUP2 MSTORE PUSH1 0x20 ADD PUSH2 0x121 JUMP JUMPDEST PUSH2 0xC7 PUSH2 0x163 CALLDATASIZE PUSH1 0x4 PUSH2 0x7FB JUMP JUMPDEST PUSH2 0x436 JUMP JUMPDEST PUSH2 0xC7 PUSH2 0x4BE JUMP JUMPDEST PUSH0 SLOAD PUSH2 0x13D SWAP1 PUSH1 0x1 PUSH1 0x1 PUSH1 0xA0 SHL SUB AND DUP2 JUMP JUMPDEST PUSH2 0xC7 PUSH2 0x190 CALLDATASIZE PUSH1 0x4 PUSH2 0x7FB JUMP JUMPDEST PUSH2 0x5A6 JUMP JUMPDEST PUSH2 0x117 PUSH2 0x1A3 CALLDATASIZE PUSH1 0x4 PUSH2 0x7FB JUMP JUMPDEST PUSH1 0x4 PUSH1 0x20 MSTORE PUSH0 SWAP1 DUP2 MSTORE PUSH1 0x40 SWAP1 KECCAK256 SLOAD DUP2 JUMP JUMPDEST PUSH1 0x3 SLOAD PUSH2 0x13D SWAP1 PUSH1 0x1 PUSH1 0x1 PUSH1 0xA0 SHL SUB AND DUP2 JUMP JUMPDEST PUSH1 0x2 SLOAD PUSH2 0x13D SWAP1 PUSH1 0x1 PUSH1 0x1 PUSH1 0xA0 SHL SUB AND DUP2 JUMP JUMPDEST PUSH0 SLOAD PUSH1 0x1 PUSH1 0x1 PUSH1 0xA0 SHL SUB AND CALLER EQ DUP1 PUSH2 0x1FC JUMPI POP PUSH1 0x2 SLOAD PUSH1 0x1 PUSH1 0x1 PUSH1 0xA0 SHL SUB AND CALLER EQ JUMPDEST DUP1 PUSH2 0x211 JUMPI POP PUSH1 0x3 SLOAD PUSH1 0x1 PUSH1 0x1 PUSH1 0xA0 SHL SUB AND CALLER EQ JUMPDEST PUSH2 0x25C JUMPI PUSH1 0x40 MLOAD PUSH3 0x461BCD PUSH1 0xE5 SHL DUP2 MSTORE PUSH1 0x20 PUSH1 0x4 DUP3 ADD MSTORE PUSH1 0x17 PUSH1 0x24 DUP3 ADD MSTORE PUSH23 0x139BDD081BDDDB995C8B081D1B18DACB081BDC88189BDD PUSH1 0x4A SHL PUSH1 0x44 DUP3 ADD MSTORE PUSH1 0x64 ADD JUMPDEST PUSH1 0x40 MLOAD DUP1 SWAP2 SUB SWAP1 REVERT JUMPDEST PUSH1 0x1 PUSH1 0x1 PUSH1 0xA0 SHL SUB SWAP1 SWAP2 AND PUSH0 SWAP1 DUP2 MSTORE PUSH1 0x4 PUSH1 0x20 MSTORE PUSH1 0x40 SWAP1 KECCAK256 SSTORE JUMP JUMPDEST PUSH0 SLOAD PUSH1 0x1 PUSH1 0x1 PUSH1 0xA0 SHL SUB AND CALLER EQ DUP1 PUSH2 0x299 JUMPI POP PUSH1 0x2 SLOAD PUSH1 0x1 PUSH1 0x1 PUSH1 0xA0 SHL SUB AND CALLER EQ JUMPDEST DUP1 PUSH2 0x2AE JUMPI POP PUSH1 0x3 SLOAD PUSH1 0x1 PUSH1 0x1 PUSH1 0xA0 SHL SUB AND CALLER EQ JUMPDEST PUSH2 0x2F4 JUMPI PUSH1 0x40 MLOAD PUSH3 0x461BCD PUSH1 0xE5 SHL DUP2 MSTORE PUSH1 0x20 PUSH1 0x4 DUP3 ADD MSTORE PUSH1 0x17 PUSH1 0x24 DUP3 ADD MSTORE PUSH23 0x139BDD081BDDDB995C8B081D1B18DACB081BDC88189BDD PUSH1 0x4A SHL PUSH1 0x44 DUP3 ADD MSTORE PUSH1 0x64 ADD PUSH2 0x253 JUMP JUMPDEST PUSH0 JUMPDEST DUP3 MLOAD DUP2 LT ISZERO PUSH2 0x36C JUMPI DUP2 DUP2 DUP2 MLOAD DUP2 LT PUSH2 0x311 JUMPI PUSH2 0x311 PUSH2 0x81B JUMP JUMPDEST PUSH1 0x20 MUL PUSH1 0x20 ADD ADD MLOAD PUSH1 0x4 PUSH0 DUP6 DUP5 DUP2 MLOAD DUP2 LT PUSH2 0x32E JUMPI PUSH2 0x32E PUSH2 0x81B JUMP JUMPDEST PUSH1 0x20 MUL PUSH1 0x20 ADD ADD MLOAD PUSH1 0x1 PUSH1 0x1 PUSH1 0xA0 SHL SUB AND PUSH1 0x1 PUSH1 0x1 PUSH1 0xA0 SHL SUB AND DUP2 MSTORE PUSH1 0x20 ADD SWAP1 DUP2 MSTORE PUSH1 0x20 ADD PUSH0 KECCAK256 DUP2 SWAP1 SSTORE POP DUP1 DUP1 PUSH2 0x364 SWAP1 PUSH2 0x82F JUMP JUMPDEST SWAP2 POP POP PUSH2 0x2F6 JUMP JUMPDEST POP POP POP JUMP JUMPDEST PUSH0 SLOAD PUSH1 0x1 PUSH1 0x1 PUSH1 0xA0 SHL SUB AND CALLER EQ PUSH2 0x3E2 JUMPI PUSH1 0x40 MLOAD PUSH3 0x461BCD PUSH1 0xE5 SHL DUP2 MSTORE PUSH1 0x20 PUSH1 0x4 DUP3 ADD MSTORE PUSH1 0x2F PUSH1 0x24 DUP3 ADD MSTORE PUSH32 0x4F6E6C792074686520636F6E7472616374206F776E6572206D61792070657266 PUSH1 0x44 DUP3 ADD MSTORE PUSH15 0x37B936903A3434B99030B1BA34B7B7 PUSH1 0x89 SHL PUSH1 0x64 DUP3 ADD MSTORE PUSH1 0x84 ADD PUSH2 0x253 JUMP JUMPDEST PUSH1 0x1 DUP1 SLOAD PUSH1 0x1 PUSH1 0x1 PUSH1 0xA0 SHL SUB NOT AND PUSH1 0x1 PUSH1 0x1 PUSH1 0xA0 SHL SUB DUP4 AND SWAP1 DUP2 OR SWAP1 SWAP2 SSTORE PUSH1 0x40 MLOAD SWAP1 DUP2 MSTORE PUSH32 0x906A1C6BD7E3091EA86693DD029A831C19049CE77F1DCE2CE0BAB1CACBABCE22 SWAP1 PUSH1 0x20 ADD PUSH1 0x40 MLOAD DUP1 SWAP2 SUB SWAP1 LOG1 POP JUMP JUMPDEST PUSH0 SLOAD PUSH1 0x1 PUSH1 0x1 PUSH1 0xA0 SHL SUB AND CALLER EQ DUP1 PUSH2 0x458 JUMPI POP PUSH1 0x2 SLOAD PUSH1 0x1 PUSH1 0x1 PUSH1 0xA0 SHL SUB AND CALLER EQ JUMPDEST PUSH2 0x49C JUMPI PUSH1 0x40 MLOAD PUSH3 0x461BCD PUSH1 0xE5 SHL DUP2 MSTORE PUSH1 0x20 PUSH1 0x4 DUP3 ADD MSTORE PUSH1 0x15 PUSH1 0x24 DUP3 ADD MSTORE PUSH21 0x4E6F74206F776E6572206F722074696D656C6F636B PUSH1 0x58 SHL PUSH1 0x44 DUP3 ADD MSTORE PUSH1 0x64 ADD PUSH2 0x253 JUMP JUMPDEST PUSH1 0x3 DUP1 SLOAD PUSH1 0x1 PUSH1 0x1 PUSH1 0xA0 SHL SUB NOT AND PUSH1 0x1 PUSH1 0x1 PUSH1 0xA0 SHL SUB SWAP3 SWAP1 SWAP3 AND SWAP2 SWAP1 SWAP2 OR SWAP1 SSTORE JUMP JUMPDEST PUSH1 0x1 SLOAD PUSH1 0x1 PUSH1 0x1 PUSH1 0xA0 SHL SUB AND CALLER EQ PUSH2 0x536 JUMPI PUSH1 0x40 MLOAD PUSH3 0x461BCD PUSH1 0xE5 SHL DUP2 MSTORE PUSH1 0x20 PUSH1 0x4 DUP3 ADD MSTORE PUSH1 0x35 PUSH1 0x24 DUP3 ADD MSTORE PUSH32 0x596F75206D757374206265206E6F6D696E61746564206265666F726520796F75 PUSH1 0x44 DUP3 ADD MSTORE PUSH21 0x2063616E20616363657074206F776E65727368697 PUSH1 0x5C SHL PUSH1 0x64 DUP3 ADD MSTORE PUSH1 0x84 ADD PUSH2 0x253 JUMP JUMPDEST PUSH0 SLOAD PUSH1 0x1 SLOAD PUSH1 0x40 DUP1 MLOAD PUSH1 0x1 PUSH1 0x1 PUSH1 0xA0 SHL SUB SWAP4 DUP5 AND DUP2 MSTORE SWAP3 SWAP1 SWAP2 AND PUSH1 0x20 DUP4 ADD MSTORE PUSH32 0xB532073B38C83145E3E5135377A08BF9AAB55BC0FD7C1179CD4FB995D2A5159C SWAP2 ADD PUSH1 0x40 MLOAD DUP1 SWAP2 SUB SWAP1 LOG1 PUSH1 0x1 DUP1 SLOAD PUSH0 DUP1 SLOAD PUSH1 0x1 PUSH1 0x1 PUSH1 0xA0 SHL SUB NOT SWAP1 DUP2 AND PUSH1 0x1 PUSH1 0x1 PUSH1 0xA0 SHL SUB DUP5 AND OR SWAP1 SWAP2 SSTORE AND SWAP1 SSTORE JUMP JUMPDEST PUSH0 SLOAD PUSH1 0x1 PUSH1 0x1 PUSH1 0xA0 SHL SUB AND CALLER EQ DUP1 PUSH2 0x5C8 JUMPI POP PUSH1 0x2 SLOAD PUSH1 0x1 PUSH1 0x1 PUSH1 0xA0 SHL SUB AND CALLER EQ JUMPDEST PUSH2 0x60C JUMPI PUSH1 0x40 MLOAD PUSH3 0x461BCD PUSH1 0xE5 SHL DUP2 MSTORE PUSH1 0x20 PUSH1 0x4 DUP3 ADD MSTORE PUSH1 0x15 PUSH1 0x24 DUP3 ADD MSTORE PUSH21 0x4E6F74206F776E6572206F722074696D656C6F636B PUSH1 0x58 SHL PUSH1 0x44 DUP3 ADD MSTORE PUSH1 0x64 ADD PUSH2 0x253 JUMP JUMPDEST PUSH1 0x2 DUP1 SLOAD PUSH1 0x1 PUSH1 0x1 PUSH1 0xA0 SHL SUB NOT AND PUSH1 0x1 PUSH1 0x1 PUSH1 0xA0 SHL SUB SWAP3 SWAP1 SWAP3 AND SWAP2 SWAP1 SWAP2 OR SWAP1 SSTORE JUMP JUMPDEST DUP1 CALLDATALOAD PUSH1 0x1 PUSH1 0x1 PUSH1 0xA0 SHL SUB DUP2 AND DUP2 EQ PUSH2 0x644 JUMPI PUSH0 DUP1 REVERT JUMPDEST SWAP2 SWAP1 POP JUMP JUMPDEST PUSH0 DUP1 PUSH1 0x40 DUP4 DUP6 SUB SLT ISZERO PUSH2 0x65A JUMPI PUSH0 DUP1 REVERT JUMPDEST PUSH2 0x663 DUP4 PUSH2 0x62E JUMP JUMPDEST SWAP5 PUSH1 0x20 SWAP4 SWAP1 SWAP4 ADD CALLDATALOAD SWAP4 POP POP POP JUMP JUMPDEST PUSH4 0x4E487B71 PUSH1 0xE0 SHL PUSH0 MSTORE PUSH1 0x41 PUSH1 0x4 MSTORE PUSH1 0x24 PUSH0 REVERT JUMPDEST PUSH1 0x40 MLOAD PUSH1 0x1F DUP3 ADD PUSH1 0x1F NOT AND DUP2 ADD PUSH8 0xFFFFFFFFFFFFFFFF DUP2 GT DUP3 DUP3 LT OR ISZERO PUSH2 0x6AE JUMPI PUSH2 0x6AE PUSH2 0x671 JUMP JUMPDEST PUSH1 0x40 MSTORE SWAP2 SWAP1 POP JUMP JUMPDEST PUSH0 PUSH8 0xFFFFFFFFFFFFFFFF DUP3 GT ISZERO PUSH2 0x6CF JUMPI PUSH2 0x6CF PUSH2 0x671 JUMP JUMPDEST POP PUSH1 0x5 SHL PUSH1 0x20 ADD SWAP1 JUMP JUMPDEST PUSH0 DUP3 PUSH1 0x1F DUP4 ADD SLT PUSH2 0x6E8 JUMPI PUSH0 DUP1 REVERT JUMPDEST DUP2 CALLDATALOAD PUSH1 0x20 PUSH2 0x6FD PUSH2 0x6F8 DUP4 PUSH2 0x6B6 JUMP JUMPDEST PUSH2 0x685 JUMP JUMPDEST DUP3 DUP2 MSTORE PUSH1 0x5 SWAP3 SWAP1 SWAP3 SHL DUP5 ADD DUP2 ADD SWAP2 DUP2 DUP2 ADD SWAP1 DUP7 DUP5 GT ISZERO PUSH2 0x71B JUMPI PUSH0 DUP1 REVERT JUMPDEST DUP3 DUP7 ADD JUMPDEST DUP5 DUP2 LT ISZERO PUSH2 0x736 JUMPI DUP1 CALLDATALOAD DUP4 MSTORE SWAP2 DUP4 ADD SWAP2 DUP4 ADD PUSH2 0x71F JUMP JUMPDEST POP SWAP7 SWAP6 POP POP POP POP POP POP JUMP JUMPDEST PUSH0 DUP1 PUSH1 0x40 DUP4 DUP6 SUB SLT ISZERO PUSH2 0x752 JUMPI PUSH0 DUP1 REVERT JUMPDEST DUP3 CALLDATALOAD PUSH8 0xFFFFFFFFFFFFFFFF DUP1 DUP3 GT ISZERO PUSH2 0x769 JUMPI PUSH0 DUP1 REVERT JUMPDEST DUP2 DUP6 ADD SWAP2 POP DUP6 PUSH1 0x1F DUP4 ADD SLT PUSH2 0x77C JUMPI PUSH0 DUP1 REVERT JUMPDEST DUP2 CALLDATALOAD PUSH1 0x20 PUSH2 0x78C PUSH2 0x6F8 DUP4 PUSH2 0x6B6 JUMP JUMPDEST DUP3 DUP2 MSTORE PUSH1 0x5 SWAP3 SWAP1 SWAP3 SHL DUP5 ADD DUP2 ADD SWAP2 DUP2 DUP2 ADD SWAP1 DUP10 DUP5 GT ISZERO PUSH2 0x7AA JUMPI PUSH0 DUP1 REVERT JUMPDEST SWAP5 DUP3 ADD SWAP5 JUMPDEST DUP4 DUP7 LT ISZERO PUSH2 0x7CF JUMPI PUSH2 0x7C0 DUP7 PUSH2 0x62E JUMP JUMPDEST DUP3 MSTORE SWAP5 DUP3 ADD SWAP5 SWAP1 DUP3 ADD SWAP1 PUSH2 0x7AF JUMP JUMPDEST SWAP7 POP POP DUP7 ADD CALLDATALOAD SWAP3 POP POP DUP1 DUP3 GT ISZERO PUSH2 0x7E4 JUMPI PUSH0 DUP1 REVERT JUMPDEST POP PUSH2 0x7F1 DUP6 DUP3 DUP7 ADD PUSH2 0x6D9 JUMP JUMPDEST SWAP2 POP POP SWAP3 POP SWAP3 SWAP1 POP JUMP JUMPDEST PUSH0 PUSH1 0x20 DUP3 DUP5 SUB SLT ISZERO PUSH2 0x80B JUMPI PUSH0 DUP1 REVERT JUMPDEST PUSH2 0x814 DUP3 PUSH2 0x62E JUMP JUMPDEST SWAP4 SWAP3 POP POP POP JUMP JUMPDEST PUSH4 0x4E487B71 PUSH1 0xE0 SHL PUSH0 MSTORE PUSH1 0x32 PUSH1 0x4 MSTORE PUSH1 0x24 PUSH0 REVERT JUMPDEST PUSH0 PUSH1 0x1 DUP3 ADD PUSH2 0x84C JUMPI PUSH4 0x4E487B71 PUSH1 0xE0 SHL PUSH0 MSTORE PUSH1 0x11 PUSH1 0x4 MSTORE PUSH1 0x24 PUSH0 REVERT JUMPDEST POP PUSH1 0x1 ADD SWAP1 JUMP INVALID LOG2 PUSH5 0x6970667358 0x22 SLT KECCAK256 PUSH29 0xADACB52976E1777D4F9263F35BAFF3159BB6DF80E2CBC5C056E5A3101C REVERT SHL PUSH5 0x736F6C6343 STOP ADDMOD ISZERO STOP CALLER "
				},
				"gasEstimates": {
					"creation": {
						"codeDepositCost": "437000",
						"executionCost": "infinite",
						"totalCost": "infinite"
					},
					"external": {
						"acceptOwnership()": "56323",
						"bot_address()": "2424",
						"getPrice(address)": "2590",
						"nominateNewOwner(address)": "27806",
						"nominatedOwner()": "2425",
						"owner()": "2357",
						"prices(address)": "2571",
						"setBot(address)": "28964",
						"setMultiplePrices(address[],uint256[])": "infinite",
						"setPrice(address,uint256)": "28943",
						"setTimelock(address)": "28897",
						"timelock_address()": "2446"
					}
				},
				"methodIdentifiers": {
					"acceptOwnership()": "79ba5097",
					"bot_address()": "dbea953d",
					"getPrice(address)": "41976e09",
					"nominateNewOwner(address)": "1627540c",
					"nominatedOwner()": "53a47bb7",
					"owner()": "8da5cb5b",
					"prices(address)": "cfed246b",
					"setBot(address)": "6b5caec4",
					"setMultiplePrices(address[],uint256[])": "04f4a374",
					"setPrice(address,uint256)": "00e4768b",
					"setTimelock(address)": "bdacb303",
					"timelock_address()": "dc6663c7"
				}
			},
			"storageLayout": {
				"storage": [
					{
						"astId": 164,
						"contract": "NewFraxProtocol/contracts/Oracle/CrossChainOracle.sol:CrossChainOracle",
						"label": "owner",
						"offset": 0,
						"slot": "0",
						"type": "t_address"
					},
					{
						"astId": 166,
						"contract": "NewFraxProtocol/contracts/Oracle/CrossChainOracle.sol:CrossChainOracle",
						"label": "nominatedOwner",
						"offset": 0,
						"slot": "1",
						"type": "t_address"
					},
					{
						"astId": 6,
						"contract": "NewFraxProtocol/contracts/Oracle/CrossChainOracle.sol:CrossChainOracle",
						"label": "timelock_address",
						"offset": 0,
						"slot": "2",
						"type": "t_address"
					},
					{
						"astId": 8,
						"contract": "NewFraxProtocol/contracts/Oracle/CrossChainOracle.sol:CrossChainOracle",
						"label": "bot_address",
						"offset": 0,
						"slot": "3",
						"type": "t_address"
					},
					{
						"astId": 12,
						"contract": "NewFraxProtocol/contracts/Oracle/CrossChainOracle.sol:CrossChainOracle",
						"label": "prices",
						"offset": 0,
						"slot": "4",
						"type": "t_mapping(t_address,t_uint256)"
					}
				],
				"types": {
					"t_address": {
						"encoding": "inplace",
						"label": "address",
						"numberOfBytes": "20"
					},
					"t_mapping(t_address,t_uint256)": {
						"encoding": "mapping",
						"key": "t_address",
						"label": "mapping(address => uint256)",
						"numberOfBytes": "32",
						"value": "t_uint256"
					},
					"t_uint256": {
						"encoding": "inplace",
						"label": "uint256",
						"numberOfBytes": "32"
					}
				}
			},
			"userdoc": {
				"kind": "user",
				"methods": {},
				"version": 1
			}
		}
	}
}