{
	"NewFraxProtocol/contracts/Oracle/CrossChainOracleSingleAsset.sol": {
		"CrossChainOracleSingleAsset": {
			"abi": [
				{
					"inputs": [
						{
							"internalType": "address",
							"name": "_creator_address",
							"type": "address"
						},
						{
							"internalType": "address",
							"name": "_tkn_address",
							"type": "address"
						},
						{
							"internalType": "address",
							"name": "_timelock_address",
							"type": "address"
						},
						{
							"internalType": "address",
							"name": "_bot_address",
							"type": "address"
						},
						{
							"internalType": "uint256",
							"name": "_initial_price_e6",
							"type": "uint256"
						},
						{
							"internalType": "string",
							"name": "_description",
							"type": "string"
						}
					],
					"stateMutability": "nonpayable",
					"type": "constructor"
				},
				{
					"anonymous": false,
					"inputs": [
						{
							"indexed": false,
							"internalType": "address",
							"name": "oldOwner",
							"type": "address"
						},
						{
							"indexed": false,
							"internalType": "address",
							"name": "newOwner",
							"type": "address"
						}
					],
					"name": "OwnerChanged",
					"type": "event"
				},
				{
					"anonymous": false,
					"inputs": [
						{
							"indexed": false,
							"internalType": "address",
							"name": "newOwner",
							"type": "address"
						}
					],
					"name": "OwnerNominated",
					"type": "event"
				},
				{
					"inputs": [],
					"name": "acceptOwnership",
					"outputs": [],
					"stateMutability": "nonpayable",
					"type": "function"
				},
				{
					"inputs": [],
					"name": "bot_address",
					"outputs": [
						{
							"internalType": "address",
							"name": "",
							"type": "address"
						}
					],
					"stateMutability": "view",
					"type": "function"
				},
				{
					"inputs": [],
					"name": "decimals",
					"outputs": [
						{
							"internalType": "uint8",
							"name": "",
							"type": "uint8"
						}
					],
					"stateMutability": "view",
					"type": "function"
				},
				{
					"inputs": [],
					"name": "description",
					"outputs": [
						{
							"internalType": "string",
							"name": "",
							"type": "string"
						}
					],
					"stateMutability": "view",
					"type": "function"
				},
				{
					"inputs": [],
					"name": "getPrice",
					"outputs": [
						{
							"internalType": "uint256",
							"name": "",
							"type": "uint256"
						}
					],
					"stateMutability": "view",
					"type": "function"
				},
				{
					"inputs": [],
					"name": "last_updated_time",
					"outputs": [
						{
							"internalType": "uint256",
							"name": "",
							"type": "uint256"
						}
					],
					"stateMutability": "view",
					"type": "function"
				},
				{
					"inputs": [],
					"name": "latestRoundData",
					"outputs": [
						{
							"internalType": "uint80",
							"name": "roundId",
							"type": "uint80"
						},
						{
							"internalType": "int256",
							"name": "answer",
							"type": "int256"
						},
						{
							"internalType": "uint256",
							"name": "startedAt",
							"type": "uint256"
						},
						{
							"internalType": "uint256",
							"name": "updatedAt",
							"type": "uint256"
						},
						{
							"internalType": "uint80",
							"name": "answeredInRound",
							"type": "uint80"
						}
					],
					"stateMutability": "view",
					"type": "function"
				},
				{
					"inputs": [
						{
							"internalType": "address",
							"name": "_owner",
							"type": "address"
						}
					],
					"name": "nominateNewOwner",
					"outputs": [],
					"stateMutability": "nonpayable",
					"type": "function"
				},
				{
					"inputs": [],
					"name": "nominatedOwner",
					"outputs": [
						{
							"internalType": "address",
							"name": "",
							"type": "address"
						}
					],
					"stateMutability": "view",
					"type": "function"
				},
				{
					"inputs": [],
					"name": "owner",
					"outputs": [
						{
							"internalType": "address",
							"name": "",
							"type": "address"
						}
					],
					"stateMutability": "view",
					"type": "function"
				},
				{
					"inputs": [],
					"name": "price",
					"outputs": [
						{
							"internalType": "uint256",
							"name": "",
							"type": "uint256"
						}
					],
					"stateMutability": "view",
					"type": "function"
				},
				{
					"inputs": [
						{
							"internalType": "address",
							"name": "_new_bot_address",
							"type": "address"
						}
					],
					"name": "setBot",
					"outputs": [],
					"stateMutability": "nonpayable",
					"type": "function"
				},
				{
					"inputs": [
						{
							"internalType": "address[]",
							"name": "token_addresses",
							"type": "address[]"
						},
						{
							"internalType": "uint256[]",
							"name": "prices_e6",
							"type": "uint256[]"
						}
					],
					"name": "setMultiplePrices",
					"outputs": [],
					"stateMutability": "nonpayable",
					"type": "function"
				},
				{
					"inputs": [
						{
							"internalType": "address",
							"name": "token_address",
							"type": "address"
						},
						{
							"internalType": "uint256",
							"name": "price_e6",
							"type": "uint256"
						}
					],
					"name": "setPrice",
					"outputs": [],
					"stateMutability": "nonpayable",
					"type": "function"
				},
				{
					"inputs": [
						{
							"internalType": "uint256",
							"name": "price_e6",
							"type": "uint256"
						}
					],
					"name": "setPrice",
					"outputs": [],
					"stateMutability": "nonpayable",
					"type": "function"
				},
				{
					"inputs": [
						{
							"internalType": "address",
							"name": "_new_timelock_address",
							"type": "address"
						}
					],
					"name": "setTimelock",
					"outputs": [],
					"stateMutability": "nonpayable",
					"type": "function"
				},
				{
					"inputs": [],
					"name": "timelock_address",
					"outputs": [
						{
							"internalType": "address",
							"name": "",
							"type": "address"
						}
					],
					"stateMutability": "view",
					"type": "function"
				},
				{
					"inputs": [],
					"name": "tkn_address",
					"outputs": [
						{
							"internalType": "address",
							"name": "",
							"type": "address"
						}
					],
					"stateMutability": "view",
					"type": "function"
				},
				{
					"inputs": [],
					"name": "version",
					"outputs": [
						{
							"internalType": "uint256",
							"name": "",
							"type": "uint256"
						}
					],
					"stateMutability": "view",
					"type": "function"
				}
			],
			"devdoc": {
				"kind": "dev",
				"methods": {},
				"version": 1
			},
			"evm": {
				"assembly": "    /* \"NewFraxProtocol/contracts/Oracle/CrossChainOracleSingleAsset.sol\":1180:4194  contract CrossChainOracleSingleAsset is Owned {... */\n  mstore(0x40, 0x80)\n    /* \"NewFraxProtocol/contracts/Oracle/CrossChainOracleSingleAsset.sol\":1493:1495  18 */\n  0x12\n    /* \"NewFraxProtocol/contracts/Oracle/CrossChainOracleSingleAsset.sol\":1469:1495  uint8 public decimals = 18 */\n  0x07\n  exp(0x0100, 0x00)\n  dup2\n  sload\n  dup2\n  0xff\n  mul\n  not\n  and\n  swap1\n  dup4\n  0xff\n  and\n  mul\n  or\n  swap1\n  sstore\n  pop\n    /* \"NewFraxProtocol/contracts/Oracle/CrossChainOracleSingleAsset.sol\":1557:1558  1 */\n  0x01\n    /* \"NewFraxProtocol/contracts/Oracle/CrossChainOracleSingleAsset.sol\":1532:1558  uint256 public version = 1 */\n  0x09\n  sstore\n    /* \"NewFraxProtocol/contracts/Oracle/CrossChainOracleSingleAsset.sol\":1977:2463  constructor (... */\n  callvalue\n  dup1\n  iszero\n  tag_1\n  jumpi\n  0x00\n  dup1\n  revert\ntag_1:\n  pop\n  mload(0x40)\n  sub(codesize, bytecodeSize)\n  dup1\n  bytecodeSize\n  dup4\n  codecopy\n  dup2\n  dup2\n  add\n  0x40\n  mstore\n  dup2\n  add\n  swap1\n  tag_2\n  swap2\n  swap1\n  tag_3\n  jump\t// in\ntag_2:\n    /* \"NewFraxProtocol/contracts/Oracle/CrossChainOracleSingleAsset.sol\":2202:2218  _creator_address */\n  dup6\n    /* \"NewFraxProtocol/contracts/Staking/Owned.sol\":272:273  0 */\n  0x00\n    /* \"NewFraxProtocol/contracts/Staking/Owned.sol\":254:274  _owner != address(0) */\n  0xffffffffffffffffffffffffffffffffffffffff\n  and\n    /* \"NewFraxProtocol/contracts/Staking/Owned.sol\":254:260  _owner */\n  dup2\n    /* \"NewFraxProtocol/contracts/Staking/Owned.sol\":254:274  _owner != address(0) */\n  0xffffffffffffffffffffffffffffffffffffffff\n  and\n  eq\n  iszero\n    /* \"NewFraxProtocol/contracts/Staking/Owned.sol\":246:304  require(_owner != address(0), \"Owner address cannot be 0\") */\n  tag_7\n  jumpi\n  mload(0x40)\n  0x08c379a000000000000000000000000000000000000000000000000000000000\n  dup2\n  mstore\n  0x04\n  add\n  tag_8\n  swap1\n  tag_9\n  jump\t// in\ntag_8:\n  mload(0x40)\n  dup1\n  swap2\n  sub\n  swap1\n  revert\ntag_7:\n    /* \"NewFraxProtocol/contracts/Staking/Owned.sol\":322:328  _owner */\n  dup1\n    /* \"NewFraxProtocol/contracts/Staking/Owned.sol\":314:319  owner */\n  0x00\n  dup1\n    /* \"NewFraxProtocol/contracts/Staking/Owned.sol\":314:328  owner = _owner */\n  0x0100\n  exp\n  dup2\n  sload\n  dup2\n  0xffffffffffffffffffffffffffffffffffffffff\n  mul\n  not\n  and\n  swap1\n  dup4\n  0xffffffffffffffffffffffffffffffffffffffff\n  and\n  mul\n  or\n  swap1\n  sstore\n  pop\n    /* \"NewFraxProtocol/contracts/Staking/Owned.sol\":343:375  OwnerChanged(address(0), _owner) */\n  0xb532073b38c83145e3e5135377a08bf9aab55bc0fd7c1179cd4fb995d2a5159c\n    /* \"NewFraxProtocol/contracts/Staking/Owned.sol\":364:365  0 */\n  0x00\n    /* \"NewFraxProtocol/contracts/Staking/Owned.sol\":368:374  _owner */\n  dup3\n    /* \"NewFraxProtocol/contracts/Staking/Owned.sol\":343:375  OwnerChanged(address(0), _owner) */\n  mload(0x40)\n  tag_10\n  swap3\n  swap2\n  swap1\n  tag_11\n  jump\t// in\ntag_10:\n  mload(0x40)\n  dup1\n  swap2\n  sub\n  swap1\n  log1\n    /* \"NewFraxProtocol/contracts/Staking/Owned.sol\":200:382  constructor (address _owner) public {... */\n  pop\n    /* \"NewFraxProtocol/contracts/Oracle/CrossChainOracleSingleAsset.sol\":2244:2256  _tkn_address */\n  dup5\n    /* \"NewFraxProtocol/contracts/Oracle/CrossChainOracleSingleAsset.sol\":2230:2241  tkn_address */\n  0x04\n  0x00\n    /* \"NewFraxProtocol/contracts/Oracle/CrossChainOracleSingleAsset.sol\":2230:2256  tkn_address = _tkn_address */\n  0x0100\n  exp\n  dup2\n  sload\n  dup2\n  0xffffffffffffffffffffffffffffffffffffffff\n  mul\n  not\n  and\n  swap1\n  dup4\n  0xffffffffffffffffffffffffffffffffffffffff\n  and\n  mul\n  or\n  swap1\n  sstore\n  pop\n    /* \"NewFraxProtocol/contracts/Oracle/CrossChainOracleSingleAsset.sol\":2285:2302  _timelock_address */\n  dup4\n    /* \"NewFraxProtocol/contracts/Oracle/CrossChainOracleSingleAsset.sol\":2266:2282  timelock_address */\n  0x02\n  0x00\n    /* \"NewFraxProtocol/contracts/Oracle/CrossChainOracleSingleAsset.sol\":2266:2302  timelock_address = _timelock_address */\n  0x0100\n  exp\n  dup2\n  sload\n  dup2\n  0xffffffffffffffffffffffffffffffffffffffff\n  mul\n  not\n  and\n  swap1\n  dup4\n  0xffffffffffffffffffffffffffffffffffffffff\n  and\n  mul\n  or\n  swap1\n  sstore\n  pop\n    /* \"NewFraxProtocol/contracts/Oracle/CrossChainOracleSingleAsset.sol\":2326:2338  _bot_address */\n  dup3\n    /* \"NewFraxProtocol/contracts/Oracle/CrossChainOracleSingleAsset.sol\":2312:2323  bot_address */\n  0x03\n  0x00\n    /* \"NewFraxProtocol/contracts/Oracle/CrossChainOracleSingleAsset.sol\":2312:2338  bot_address = _bot_address */\n  0x0100\n  exp\n  dup2\n  sload\n  dup2\n  0xffffffffffffffffffffffffffffffffffffffff\n  mul\n  not\n  and\n  swap1\n  dup4\n  0xffffffffffffffffffffffffffffffffffffffff\n  and\n  mul\n  or\n  swap1\n  sstore\n  pop\n    /* \"NewFraxProtocol/contracts/Oracle/CrossChainOracleSingleAsset.sol\":2363:2375  _description */\n  dup1\n    /* \"NewFraxProtocol/contracts/Oracle/CrossChainOracleSingleAsset.sol\":2349:2360  description */\n  0x08\n    /* \"NewFraxProtocol/contracts/Oracle/CrossChainOracleSingleAsset.sol\":2349:2375  description = _description */\n  swap1\n  dup1\n  mload\n  swap1\n  0x20\n  add\n  swap1\n  tag_13\n  swap3\n  swap2\n  swap1\n  tag_14\n  jump\t// in\ntag_13:\n  pop\n    /* \"NewFraxProtocol/contracts/Oracle/CrossChainOracleSingleAsset.sol\":2394:2411  _initial_price_e6 */\n  dup2\n    /* \"NewFraxProtocol/contracts/Oracle/CrossChainOracleSingleAsset.sol\":2386:2391  price */\n  0x05\n    /* \"NewFraxProtocol/contracts/Oracle/CrossChainOracleSingleAsset.sol\":2386:2411  price = _initial_price_e6 */\n  dup2\n  swap1\n  sstore\n  pop\n    /* \"NewFraxProtocol/contracts/Oracle/CrossChainOracleSingleAsset.sol\":2441:2456  block.timestamp */\n  timestamp\n    /* \"NewFraxProtocol/contracts/Oracle/CrossChainOracleSingleAsset.sol\":2421:2438  last_updated_time */\n  0x06\n    /* \"NewFraxProtocol/contracts/Oracle/CrossChainOracleSingleAsset.sol\":2421:2456  last_updated_time = block.timestamp */\n  dup2\n  swap1\n  sstore\n  pop\n    /* \"NewFraxProtocol/contracts/Oracle/CrossChainOracleSingleAsset.sol\":1977:2463  constructor (... */\n  pop\n  pop\n  pop\n  pop\n  pop\n  pop\n    /* \"NewFraxProtocol/contracts/Oracle/CrossChainOracleSingleAsset.sol\":1180:4194  contract CrossChainOracleSingleAsset is Owned {... */\n  jump(tag_15)\ntag_14:\n  dup3\n  dup1\n  sload\n  tag_16\n  swap1\n  tag_17\n  jump\t// in\ntag_16:\n  swap1\n  0x00\n  mstore\n  keccak256(0x00, 0x20)\n  swap1\n  0x1f\n  add\n  0x20\n  swap1\n  div\n  dup2\n  add\n  swap3\n  dup3\n  tag_19\n  jumpi\n  0x00\n  dup6\n  sstore\n  jump(tag_18)\ntag_19:\n  dup3\n  0x1f\n  lt\n  tag_20\n  jumpi\n  dup1\n  mload\n  not(0xff)\n  and\n  dup4\n  dup1\n  add\n  or\n  dup6\n  sstore\n  jump(tag_18)\ntag_20:\n  dup3\n  dup1\n  add\n  0x01\n  add\n  dup6\n  sstore\n  dup3\n  iszero\n  tag_18\n  jumpi\n  swap2\n  dup3\n  add\ntag_21:\n  dup3\n  dup2\n  gt\n  iszero\n  tag_22\n  jumpi\n  dup3\n  mload\n  dup3\n  sstore\n  swap2\n  0x20\n  add\n  swap2\n  swap1\n  0x01\n  add\n  swap1\n  jump(tag_21)\ntag_22:\ntag_18:\n  pop\n  swap1\n  pop\n  tag_23\n  swap2\n  swap1\n  tag_24\n  jump\t// in\ntag_23:\n  pop\n  swap1\n  jump\t// out\ntag_24:\ntag_25:\n  dup1\n  dup3\n  gt\n  iszero\n  tag_26\n  jumpi\n  0x00\n  dup2\n  0x00\n  swap1\n  sstore\n  pop\n  0x01\n  add\n  jump(tag_25)\ntag_26:\n  pop\n  swap1\n  jump\t// out\n    /* \"#utility.yul\":7:82   */\ntag_27:\n    /* \"#utility.yul\":40:46   */\n  0x00\n    /* \"#utility.yul\":73:75   */\n  0x40\n    /* \"#utility.yul\":67:76   */\n  mload\n    /* \"#utility.yul\":57:76   */\n  swap1\n  pop\n    /* \"#utility.yul\":7:82   */\n  swap1\n  jump\t// out\n    /* \"#utility.yul\":88:205   */\ntag_28:\n    /* \"#utility.yul\":197:198   */\n  0x00\n    /* \"#utility.yul\":194:195   */\n  dup1\n    /* \"#utility.yul\":187:199   */\n  revert\n    /* \"#utility.yul\":211:328   */\ntag_29:\n    /* \"#utility.yul\":320:321   */\n  0x00\n    /* \"#utility.yul\":317:318   */\n  dup1\n    /* \"#utility.yul\":310:322   */\n  revert\n    /* \"#utility.yul\":334:460   */\ntag_30:\n    /* \"#utility.yul\":371:378   */\n  0x00\n    /* \"#utility.yul\":411:453   */\n  0xffffffffffffffffffffffffffffffffffffffff\n    /* \"#utility.yul\":404:409   */\n  dup3\n    /* \"#utility.yul\":400:454   */\n  and\n    /* \"#utility.yul\":389:454   */\n  swap1\n  pop\n    /* \"#utility.yul\":334:460   */\n  swap2\n  swap1\n  pop\n  jump\t// out\n    /* \"#utility.yul\":466:562   */\ntag_31:\n    /* \"#utility.yul\":503:510   */\n  0x00\n    /* \"#utility.yul\":532:556   */\n  tag_58\n    /* \"#utility.yul\":550:555   */\n  dup3\n    /* \"#utility.yul\":532:556   */\n  tag_30\n  jump\t// in\ntag_58:\n    /* \"#utility.yul\":521:556   */\n  swap1\n  pop\n    /* \"#utility.yul\":466:562   */\n  swap2\n  swap1\n  pop\n  jump\t// out\n    /* \"#utility.yul\":568:690   */\ntag_32:\n    /* \"#utility.yul\":641:665   */\n  tag_60\n    /* \"#utility.yul\":659:664   */\n  dup2\n    /* \"#utility.yul\":641:665   */\n  tag_31\n  jump\t// in\ntag_60:\n    /* \"#utility.yul\":634:639   */\n  dup2\n    /* \"#utility.yul\":631:666   */\n  eq\n    /* \"#utility.yul\":621:684   */\n  tag_61\n  jumpi\n    /* \"#utility.yul\":680:681   */\n  0x00\n    /* \"#utility.yul\":677:678   */\n  dup1\n    /* \"#utility.yul\":670:682   */\n  revert\n    /* \"#utility.yul\":621:684   */\ntag_61:\n    /* \"#utility.yul\":568:690   */\n  pop\n  jump\t// out\n    /* \"#utility.yul\":696:839   */\ntag_33:\n    /* \"#utility.yul\":753:758   */\n  0x00\n    /* \"#utility.yul\":784:790   */\n  dup2\n    /* \"#utility.yul\":778:791   */\n  mload\n    /* \"#utility.yul\":769:791   */\n  swap1\n  pop\n    /* \"#utility.yul\":800:833   */\n  tag_63\n    /* \"#utility.yul\":827:832   */\n  dup2\n    /* \"#utility.yul\":800:833   */\n  tag_32\n  jump\t// in\ntag_63:\n    /* \"#utility.yul\":696:839   */\n  swap3\n  swap2\n  pop\n  pop\n  jump\t// out\n    /* \"#utility.yul\":845:922   */\ntag_34:\n    /* \"#utility.yul\":882:889   */\n  0x00\n    /* \"#utility.yul\":911:916   */\n  dup2\n    /* \"#utility.yul\":900:916   */\n  swap1\n  pop\n    /* \"#utility.yul\":845:922   */\n  swap2\n  swap1\n  pop\n  jump\t// out\n    /* \"#utility.yul\":928:1050   */\ntag_35:\n    /* \"#utility.yul\":1001:1025   */\n  tag_66\n    /* \"#utility.yul\":1019:1024   */\n  dup2\n    /* \"#utility.yul\":1001:1025   */\n  tag_34\n  jump\t// in\ntag_66:\n    /* \"#utility.yul\":994:999   */\n  dup2\n    /* \"#utility.yul\":991:1026   */\n  eq\n    /* \"#utility.yul\":981:1044   */\n  tag_67\n  jumpi\n    /* \"#utility.yul\":1040:1041   */\n  0x00\n    /* \"#utility.yul\":1037:1038   */\n  dup1\n    /* \"#utility.yul\":1030:1042   */\n  revert\n    /* \"#utility.yul\":981:1044   */\ntag_67:\n    /* \"#utility.yul\":928:1050   */\n  pop\n  jump\t// out\n    /* \"#utility.yul\":1056:1199   */\ntag_36:\n    /* \"#utility.yul\":1113:1118   */\n  0x00\n    /* \"#utility.yul\":1144:1150   */\n  dup2\n    /* \"#utility.yul\":1138:1151   */\n  mload\n    /* \"#utility.yul\":1129:1151   */\n  swap1\n  pop\n    /* \"#utility.yul\":1160:1193   */\n  tag_69\n    /* \"#utility.yul\":1187:1192   */\n  dup2\n    /* \"#utility.yul\":1160:1193   */\n  tag_35\n  jump\t// in\ntag_69:\n    /* \"#utility.yul\":1056:1199   */\n  swap3\n  swap2\n  pop\n  pop\n  jump\t// out\n    /* \"#utility.yul\":1205:1322   */\ntag_37:\n    /* \"#utility.yul\":1314:1315   */\n  0x00\n    /* \"#utility.yul\":1311:1312   */\n  dup1\n    /* \"#utility.yul\":1304:1316   */\n  revert\n    /* \"#utility.yul\":1328:1445   */\ntag_38:\n    /* \"#utility.yul\":1437:1438   */\n  0x00\n    /* \"#utility.yul\":1434:1435   */\n  dup1\n    /* \"#utility.yul\":1427:1439   */\n  revert\n    /* \"#utility.yul\":1451:1553   */\ntag_39:\n    /* \"#utility.yul\":1492:1498   */\n  0x00\n    /* \"#utility.yul\":1543:1545   */\n  0x1f\n    /* \"#utility.yul\":1539:1546   */\n  not\n    /* \"#utility.yul\":1534:1536   */\n  0x1f\n    /* \"#utility.yul\":1527:1532   */\n  dup4\n    /* \"#utility.yul\":1523:1537   */\n  add\n    /* \"#utility.yul\":1519:1547   */\n  and\n    /* \"#utility.yul\":1509:1547   */\n  swap1\n  pop\n    /* \"#utility.yul\":1451:1553   */\n  swap2\n  swap1\n  pop\n  jump\t// out\n    /* \"#utility.yul\":1559:1739   */\ntag_40:\n    /* \"#utility.yul\":1607:1684   */\n  0x4e487b7100000000000000000000000000000000000000000000000000000000\n    /* \"#utility.yul\":1604:1605   */\n  0x00\n    /* \"#utility.yul\":1597:1685   */\n  mstore\n    /* \"#utility.yul\":1704:1708   */\n  0x41\n    /* \"#utility.yul\":1701:1702   */\n  0x04\n    /* \"#utility.yul\":1694:1709   */\n  mstore\n    /* \"#utility.yul\":1728:1732   */\n  0x24\n    /* \"#utility.yul\":1725:1726   */\n  0x00\n    /* \"#utility.yul\":1718:1733   */\n  revert\n    /* \"#utility.yul\":1745:2026   */\ntag_41:\n    /* \"#utility.yul\":1828:1855   */\n  tag_75\n    /* \"#utility.yul\":1850:1854   */\n  dup3\n    /* \"#utility.yul\":1828:1855   */\n  tag_39\n  jump\t// in\ntag_75:\n    /* \"#utility.yul\":1820:1826   */\n  dup2\n    /* \"#utility.yul\":1816:1856   */\n  add\n    /* \"#utility.yul\":1958:1964   */\n  dup2\n    /* \"#utility.yul\":1946:1956   */\n  dup2\n    /* \"#utility.yul\":1943:1965   */\n  lt\n    /* \"#utility.yul\":1922:1940   */\n  0xffffffffffffffff\n    /* \"#utility.yul\":1910:1920   */\n  dup3\n    /* \"#utility.yul\":1907:1941   */\n  gt\n    /* \"#utility.yul\":1904:1966   */\n  or\n    /* \"#utility.yul\":1901:1989   */\n  iszero\n  tag_76\n  jumpi\n    /* \"#utility.yul\":1969:1987   */\n  tag_77\n  tag_40\n  jump\t// in\ntag_77:\n    /* \"#utility.yul\":1901:1989   */\ntag_76:\n    /* \"#utility.yul\":2009:2019   */\n  dup1\n    /* \"#utility.yul\":2005:2007   */\n  0x40\n    /* \"#utility.yul\":1998:2020   */\n  mstore\n    /* \"#utility.yul\":1788:2026   */\n  pop\n    /* \"#utility.yul\":1745:2026   */\n  pop\n  pop\n  jump\t// out\n    /* \"#utility.yul\":2032:2161   */\ntag_42:\n    /* \"#utility.yul\":2066:2072   */\n  0x00\n    /* \"#utility.yul\":2093:2113   */\n  tag_79\n  tag_27\n  jump\t// in\ntag_79:\n    /* \"#utility.yul\":2083:2113   */\n  swap1\n  pop\n    /* \"#utility.yul\":2122:2155   */\n  tag_80\n    /* \"#utility.yul\":2150:2154   */\n  dup3\n    /* \"#utility.yul\":2142:2148   */\n  dup3\n    /* \"#utility.yul\":2122:2155   */\n  tag_41\n  jump\t// in\ntag_80:\n    /* \"#utility.yul\":2032:2161   */\n  swap2\n  swap1\n  pop\n  jump\t// out\n    /* \"#utility.yul\":2167:2475   */\ntag_43:\n    /* \"#utility.yul\":2229:2233   */\n  0x00\n    /* \"#utility.yul\":2319:2337   */\n  0xffffffffffffffff\n    /* \"#utility.yul\":2311:2317   */\n  dup3\n    /* \"#utility.yul\":2308:2338   */\n  gt\n    /* \"#utility.yul\":2305:2361   */\n  iszero\n  tag_82\n  jumpi\n    /* \"#utility.yul\":2341:2359   */\n  tag_83\n  tag_40\n  jump\t// in\ntag_83:\n    /* \"#utility.yul\":2305:2361   */\ntag_82:\n    /* \"#utility.yul\":2379:2408   */\n  tag_84\n    /* \"#utility.yul\":2401:2407   */\n  dup3\n    /* \"#utility.yul\":2379:2408   */\n  tag_39\n  jump\t// in\ntag_84:\n    /* \"#utility.yul\":2371:2408   */\n  swap1\n  pop\n    /* \"#utility.yul\":2463:2467   */\n  0x20\n    /* \"#utility.yul\":2457:2461   */\n  dup2\n    /* \"#utility.yul\":2453:2468   */\n  add\n    /* \"#utility.yul\":2445:2468   */\n  swap1\n  pop\n    /* \"#utility.yul\":2167:2475   */\n  swap2\n  swap1\n  pop\n  jump\t// out\n    /* \"#utility.yul\":2481:2788   */\ntag_44:\n    /* \"#utility.yul\":2549:2550   */\n  0x00\n    /* \"#utility.yul\":2559:2672   */\ntag_86:\n    /* \"#utility.yul\":2573:2579   */\n  dup4\n    /* \"#utility.yul\":2570:2571   */\n  dup2\n    /* \"#utility.yul\":2567:2580   */\n  lt\n    /* \"#utility.yul\":2559:2672   */\n  iszero\n  tag_88\n  jumpi\n    /* \"#utility.yul\":2658:2659   */\n  dup1\n    /* \"#utility.yul\":2653:2656   */\n  dup3\n    /* \"#utility.yul\":2649:2660   */\n  add\n    /* \"#utility.yul\":2643:2661   */\n  mload\n    /* \"#utility.yul\":2639:2640   */\n  dup2\n    /* \"#utility.yul\":2634:2637   */\n  dup5\n    /* \"#utility.yul\":2630:2641   */\n  add\n    /* \"#utility.yul\":2623:2662   */\n  mstore\n    /* \"#utility.yul\":2595:2597   */\n  0x20\n    /* \"#utility.yul\":2592:2593   */\n  dup2\n    /* \"#utility.yul\":2588:2598   */\n  add\n    /* \"#utility.yul\":2583:2598   */\n  swap1\n  pop\n    /* \"#utility.yul\":2559:2672   */\n  jump(tag_86)\ntag_88:\n    /* \"#utility.yul\":2690:2696   */\n  dup4\n    /* \"#utility.yul\":2687:2688   */\n  dup2\n    /* \"#utility.yul\":2684:2697   */\n  gt\n    /* \"#utility.yul\":2681:2782   */\n  iszero\n  tag_89\n  jumpi\n    /* \"#utility.yul\":2770:2771   */\n  0x00\n    /* \"#utility.yul\":2761:2767   */\n  dup5\n    /* \"#utility.yul\":2756:2759   */\n  dup5\n    /* \"#utility.yul\":2752:2768   */\n  add\n    /* \"#utility.yul\":2745:2772   */\n  mstore\n    /* \"#utility.yul\":2681:2782   */\ntag_89:\n    /* \"#utility.yul\":2530:2788   */\n  pop\n    /* \"#utility.yul\":2481:2788   */\n  pop\n  pop\n  pop\n  jump\t// out\n    /* \"#utility.yul\":2794:3215   */\ntag_45:\n    /* \"#utility.yul\":2883:2888   */\n  0x00\n    /* \"#utility.yul\":2908:2974   */\n  tag_91\n    /* \"#utility.yul\":2924:2973   */\n  tag_92\n    /* \"#utility.yul\":2966:2972   */\n  dup5\n    /* \"#utility.yul\":2924:2973   */\n  tag_43\n  jump\t// in\ntag_92:\n    /* \"#utility.yul\":2908:2974   */\n  tag_42\n  jump\t// in\ntag_91:\n    /* \"#utility.yul\":2899:2974   */\n  swap1\n  pop\n    /* \"#utility.yul\":2997:3003   */\n  dup3\n    /* \"#utility.yul\":2990:2995   */\n  dup2\n    /* \"#utility.yul\":2983:3004   */\n  mstore\n    /* \"#utility.yul\":3035:3039   */\n  0x20\n    /* \"#utility.yul\":3028:3033   */\n  dup2\n    /* \"#utility.yul\":3024:3040   */\n  add\n    /* \"#utility.yul\":3073:3076   */\n  dup5\n    /* \"#utility.yul\":3064:3070   */\n  dup5\n    /* \"#utility.yul\":3059:3062   */\n  dup5\n    /* \"#utility.yul\":3055:3071   */\n  add\n    /* \"#utility.yul\":3052:3077   */\n  gt\n    /* \"#utility.yul\":3049:3161   */\n  iszero\n  tag_93\n  jumpi\n    /* \"#utility.yul\":3080:3159   */\n  tag_94\n  tag_38\n  jump\t// in\ntag_94:\n    /* \"#utility.yul\":3049:3161   */\ntag_93:\n    /* \"#utility.yul\":3170:3209   */\n  tag_95\n    /* \"#utility.yul\":3202:3208   */\n  dup5\n    /* \"#utility.yul\":3197:3200   */\n  dup3\n    /* \"#utility.yul\":3192:3195   */\n  dup6\n    /* \"#utility.yul\":3170:3209   */\n  tag_44\n  jump\t// in\ntag_95:\n    /* \"#utility.yul\":2889:3215   */\n  pop\n    /* \"#utility.yul\":2794:3215   */\n  swap4\n  swap3\n  pop\n  pop\n  pop\n  jump\t// out\n    /* \"#utility.yul\":3235:3590   */\ntag_46:\n    /* \"#utility.yul\":3302:3307   */\n  0x00\n    /* \"#utility.yul\":3351:3354   */\n  dup3\n    /* \"#utility.yul\":3344:3348   */\n  0x1f\n    /* \"#utility.yul\":3336:3342   */\n  dup4\n    /* \"#utility.yul\":3332:3349   */\n  add\n    /* \"#utility.yul\":3328:3355   */\n  slt\n    /* \"#utility.yul\":3318:3440   */\n  tag_97\n  jumpi\n    /* \"#utility.yul\":3359:3438   */\n  tag_98\n  tag_37\n  jump\t// in\ntag_98:\n    /* \"#utility.yul\":3318:3440   */\ntag_97:\n    /* \"#utility.yul\":3469:3475   */\n  dup2\n    /* \"#utility.yul\":3463:3476   */\n  mload\n    /* \"#utility.yul\":3494:3584   */\n  tag_99\n    /* \"#utility.yul\":3580:3583   */\n  dup5\n    /* \"#utility.yul\":3572:3578   */\n  dup3\n    /* \"#utility.yul\":3565:3569   */\n  0x20\n    /* \"#utility.yul\":3557:3563   */\n  dup7\n    /* \"#utility.yul\":3553:3570   */\n  add\n    /* \"#utility.yul\":3494:3584   */\n  tag_45\n  jump\t// in\ntag_99:\n    /* \"#utility.yul\":3485:3584   */\n  swap2\n  pop\n    /* \"#utility.yul\":3308:3590   */\n  pop\n    /* \"#utility.yul\":3235:3590   */\n  swap3\n  swap2\n  pop\n  pop\n  jump\t// out\n    /* \"#utility.yul\":3596:4903   */\ntag_3:\n    /* \"#utility.yul\":3721:3727   */\n  0x00\n    /* \"#utility.yul\":3729:3735   */\n  dup1\n    /* \"#utility.yul\":3737:3743   */\n  0x00\n    /* \"#utility.yul\":3745:3751   */\n  dup1\n    /* \"#utility.yul\":3753:3759   */\n  0x00\n    /* \"#utility.yul\":3761:3767   */\n  dup1\n    /* \"#utility.yul\":3810:3813   */\n  0xc0\n    /* \"#utility.yul\":3798:3807   */\n  dup8\n    /* \"#utility.yul\":3789:3796   */\n  dup10\n    /* \"#utility.yul\":3785:3808   */\n  sub\n    /* \"#utility.yul\":3781:3814   */\n  slt\n    /* \"#utility.yul\":3778:3898   */\n  iszero\n  tag_101\n  jumpi\n    /* \"#utility.yul\":3817:3896   */\n  tag_102\n  tag_28\n  jump\t// in\ntag_102:\n    /* \"#utility.yul\":3778:3898   */\ntag_101:\n    /* \"#utility.yul\":3937:3938   */\n  0x00\n    /* \"#utility.yul\":3962:4026   */\n  tag_103\n    /* \"#utility.yul\":4018:4025   */\n  dup10\n    /* \"#utility.yul\":4009:4015   */\n  dup3\n    /* \"#utility.yul\":3998:4007   */\n  dup11\n    /* \"#utility.yul\":3994:4016   */\n  add\n    /* \"#utility.yul\":3962:4026   */\n  tag_33\n  jump\t// in\ntag_103:\n    /* \"#utility.yul\":3952:4026   */\n  swap7\n  pop\n    /* \"#utility.yul\":3908:4036   */\n  pop\n    /* \"#utility.yul\":4075:4077   */\n  0x20\n    /* \"#utility.yul\":4101:4165   */\n  tag_104\n    /* \"#utility.yul\":4157:4164   */\n  dup10\n    /* \"#utility.yul\":4148:4154   */\n  dup3\n    /* \"#utility.yul\":4137:4146   */\n  dup11\n    /* \"#utility.yul\":4133:4155   */\n  add\n    /* \"#utility.yul\":4101:4165   */\n  tag_33\n  jump\t// in\ntag_104:\n    /* \"#utility.yul\":4091:4165   */\n  swap6\n  pop\n    /* \"#utility.yul\":4046:4175   */\n  pop\n    /* \"#utility.yul\":4214:4216   */\n  0x40\n    /* \"#utility.yul\":4240:4304   */\n  tag_105\n    /* \"#utility.yul\":4296:4303   */\n  dup10\n    /* \"#utility.yul\":4287:4293   */\n  dup3\n    /* \"#utility.yul\":4276:4285   */\n  dup11\n    /* \"#utility.yul\":4272:4294   */\n  add\n    /* \"#utility.yul\":4240:4304   */\n  tag_33\n  jump\t// in\ntag_105:\n    /* \"#utility.yul\":4230:4304   */\n  swap5\n  pop\n    /* \"#utility.yul\":4185:4314   */\n  pop\n    /* \"#utility.yul\":4353:4355   */\n  0x60\n    /* \"#utility.yul\":4379:4443   */\n  tag_106\n    /* \"#utility.yul\":4435:4442   */\n  dup10\n    /* \"#utility.yul\":4426:4432   */\n  dup3\n    /* \"#utility.yul\":4415:4424   */\n  dup11\n    /* \"#utility.yul\":4411:4433   */\n  add\n    /* \"#utility.yul\":4379:4443   */\n  tag_33\n  jump\t// in\ntag_106:\n    /* \"#utility.yul\":4369:4443   */\n  swap4\n  pop\n    /* \"#utility.yul\":4324:4453   */\n  pop\n    /* \"#utility.yul\":4492:4495   */\n  0x80\n    /* \"#utility.yul\":4519:4583   */\n  tag_107\n    /* \"#utility.yul\":4575:4582   */\n  dup10\n    /* \"#utility.yul\":4566:4572   */\n  dup3\n    /* \"#utility.yul\":4555:4564   */\n  dup11\n    /* \"#utility.yul\":4551:4573   */\n  add\n    /* \"#utility.yul\":4519:4583   */\n  tag_36\n  jump\t// in\ntag_107:\n    /* \"#utility.yul\":4509:4583   */\n  swap3\n  pop\n    /* \"#utility.yul\":4463:4593   */\n  pop\n    /* \"#utility.yul\":4653:4656   */\n  0xa0\n    /* \"#utility.yul\":4642:4651   */\n  dup8\n    /* \"#utility.yul\":4638:4657   */\n  add\n    /* \"#utility.yul\":4632:4658   */\n  mload\n    /* \"#utility.yul\":4685:4703   */\n  0xffffffffffffffff\n    /* \"#utility.yul\":4677:4683   */\n  dup2\n    /* \"#utility.yul\":4674:4704   */\n  gt\n    /* \"#utility.yul\":4671:4788   */\n  iszero\n  tag_108\n  jumpi\n    /* \"#utility.yul\":4707:4786   */\n  tag_109\n  tag_29\n  jump\t// in\ntag_109:\n    /* \"#utility.yul\":4671:4788   */\ntag_108:\n    /* \"#utility.yul\":4812:4886   */\n  tag_110\n    /* \"#utility.yul\":4878:4885   */\n  dup10\n    /* \"#utility.yul\":4869:4875   */\n  dup3\n    /* \"#utility.yul\":4858:4867   */\n  dup11\n    /* \"#utility.yul\":4854:4876   */\n  add\n    /* \"#utility.yul\":4812:4886   */\n  tag_46\n  jump\t// in\ntag_110:\n    /* \"#utility.yul\":4802:4886   */\n  swap2\n  pop\n    /* \"#utility.yul\":4603:4896   */\n  pop\n    /* \"#utility.yul\":3596:4903   */\n  swap3\n  swap6\n  pop\n  swap3\n  swap6\n  pop\n  swap3\n  swap6\n  jump\t// out\n    /* \"#utility.yul\":4909:5078   */\ntag_47:\n    /* \"#utility.yul\":4993:5004   */\n  0x00\n    /* \"#utility.yul\":5027:5033   */\n  dup3\n    /* \"#utility.yul\":5022:5025   */\n  dup3\n    /* \"#utility.yul\":5015:5034   */\n  mstore\n    /* \"#utility.yul\":5067:5071   */\n  0x20\n    /* \"#utility.yul\":5062:5065   */\n  dup3\n    /* \"#utility.yul\":5058:5072   */\n  add\n    /* \"#utility.yul\":5043:5072   */\n  swap1\n  pop\n    /* \"#utility.yul\":4909:5078   */\n  swap3\n  swap2\n  pop\n  pop\n  jump\t// out\n    /* \"#utility.yul\":5084:5259   */\ntag_48:\n    /* \"#utility.yul\":5224:5251   */\n  0x4f776e657220616464726573732063616e6e6f74206265203000000000000000\n    /* \"#utility.yul\":5220:5221   */\n  0x00\n    /* \"#utility.yul\":5212:5218   */\n  dup3\n    /* \"#utility.yul\":5208:5222   */\n  add\n    /* \"#utility.yul\":5201:5252   */\n  mstore\n    /* \"#utility.yul\":5084:5259   */\n  pop\n  jump\t// out\n    /* \"#utility.yul\":5265:5631   */\ntag_49:\n    /* \"#utility.yul\":5407:5410   */\n  0x00\n    /* \"#utility.yul\":5428:5495   */\n  tag_114\n    /* \"#utility.yul\":5492:5494   */\n  0x19\n    /* \"#utility.yul\":5487:5490   */\n  dup4\n    /* \"#utility.yul\":5428:5495   */\n  tag_47\n  jump\t// in\ntag_114:\n    /* \"#utility.yul\":5421:5495   */\n  swap2\n  pop\n    /* \"#utility.yul\":5504:5597   */\n  tag_115\n    /* \"#utility.yul\":5593:5596   */\n  dup3\n    /* \"#utility.yul\":5504:5597   */\n  tag_48\n  jump\t// in\ntag_115:\n    /* \"#utility.yul\":5622:5624   */\n  0x20\n    /* \"#utility.yul\":5617:5620   */\n  dup3\n    /* \"#utility.yul\":5613:5625   */\n  add\n    /* \"#utility.yul\":5606:5625   */\n  swap1\n  pop\n    /* \"#utility.yul\":5265:5631   */\n  swap2\n  swap1\n  pop\n  jump\t// out\n    /* \"#utility.yul\":5637:6056   */\ntag_9:\n    /* \"#utility.yul\":5803:5807   */\n  0x00\n    /* \"#utility.yul\":5841:5843   */\n  0x20\n    /* \"#utility.yul\":5830:5839   */\n  dup3\n    /* \"#utility.yul\":5826:5844   */\n  add\n    /* \"#utility.yul\":5818:5844   */\n  swap1\n  pop\n    /* \"#utility.yul\":5890:5899   */\n  dup2\n    /* \"#utility.yul\":5884:5888   */\n  dup2\n    /* \"#utility.yul\":5880:5900   */\n  sub\n    /* \"#utility.yul\":5876:5877   */\n  0x00\n    /* \"#utility.yul\":5865:5874   */\n  dup4\n    /* \"#utility.yul\":5861:5878   */\n  add\n    /* \"#utility.yul\":5854:5901   */\n  mstore\n    /* \"#utility.yul\":5918:6049   */\n  tag_117\n    /* \"#utility.yul\":6044:6048   */\n  dup2\n    /* \"#utility.yul\":5918:6049   */\n  tag_49\n  jump\t// in\ntag_117:\n    /* \"#utility.yul\":5910:6049   */\n  swap1\n  pop\n    /* \"#utility.yul\":5637:6056   */\n  swap2\n  swap1\n  pop\n  jump\t// out\n    /* \"#utility.yul\":6062:6180   */\ntag_50:\n    /* \"#utility.yul\":6149:6173   */\n  tag_119\n    /* \"#utility.yul\":6167:6172   */\n  dup2\n    /* \"#utility.yul\":6149:6173   */\n  tag_31\n  jump\t// in\ntag_119:\n    /* \"#utility.yul\":6144:6147   */\n  dup3\n    /* \"#utility.yul\":6137:6174   */\n  mstore\n    /* \"#utility.yul\":6062:6180   */\n  pop\n  pop\n  jump\t// out\n    /* \"#utility.yul\":6186:6518   */\ntag_11:\n    /* \"#utility.yul\":6307:6311   */\n  0x00\n    /* \"#utility.yul\":6345:6347   */\n  0x40\n    /* \"#utility.yul\":6334:6343   */\n  dup3\n    /* \"#utility.yul\":6330:6348   */\n  add\n    /* \"#utility.yul\":6322:6348   */\n  swap1\n  pop\n    /* \"#utility.yul\":6358:6429   */\n  tag_121\n    /* \"#utility.yul\":6426:6427   */\n  0x00\n    /* \"#utility.yul\":6415:6424   */\n  dup4\n    /* \"#utility.yul\":6411:6428   */\n  add\n    /* \"#utility.yul\":6402:6408   */\n  dup6\n    /* \"#utility.yul\":6358:6429   */\n  tag_50\n  jump\t// in\ntag_121:\n    /* \"#utility.yul\":6439:6511   */\n  tag_122\n    /* \"#utility.yul\":6507:6509   */\n  0x20\n    /* \"#utility.yul\":6496:6505   */\n  dup4\n    /* \"#utility.yul\":6492:6510   */\n  add\n    /* \"#utility.yul\":6483:6489   */\n  dup5\n    /* \"#utility.yul\":6439:6511   */\n  tag_50\n  jump\t// in\ntag_122:\n    /* \"#utility.yul\":6186:6518   */\n  swap4\n  swap3\n  pop\n  pop\n  pop\n  jump\t// out\n    /* \"#utility.yul\":6524:6704   */\ntag_51:\n    /* \"#utility.yul\":6572:6649   */\n  0x4e487b7100000000000000000000000000000000000000000000000000000000\n    /* \"#utility.yul\":6569:6570   */\n  0x00\n    /* \"#utility.yul\":6562:6650   */\n  mstore\n    /* \"#utility.yul\":6669:6673   */\n  0x22\n    /* \"#utility.yul\":6666:6667   */\n  0x04\n    /* \"#utility.yul\":6659:6674   */\n  mstore\n    /* \"#utility.yul\":6693:6697   */\n  0x24\n    /* \"#utility.yul\":6690:6691   */\n  0x00\n    /* \"#utility.yul\":6683:6698   */\n  revert\n    /* \"#utility.yul\":6710:7030   */\ntag_17:\n    /* \"#utility.yul\":6754:6760   */\n  0x00\n    /* \"#utility.yul\":6791:6792   */\n  0x02\n    /* \"#utility.yul\":6785:6789   */\n  dup3\n    /* \"#utility.yul\":6781:6793   */\n  div\n    /* \"#utility.yul\":6771:6793   */\n  swap1\n  pop\n    /* \"#utility.yul\":6838:6839   */\n  0x01\n    /* \"#utility.yul\":6832:6836   */\n  dup3\n    /* \"#utility.yul\":6828:6840   */\n  and\n    /* \"#utility.yul\":6859:6877   */\n  dup1\n    /* \"#utility.yul\":6849:6930   */\n  tag_125\n  jumpi\n    /* \"#utility.yul\":6915:6919   */\n  0x7f\n    /* \"#utility.yul\":6907:6913   */\n  dup3\n    /* \"#utility.yul\":6903:6920   */\n  and\n    /* \"#utility.yul\":6893:6920   */\n  swap2\n  pop\n    /* \"#utility.yul\":6849:6930   */\ntag_125:\n    /* \"#utility.yul\":6977:6979   */\n  0x20\n    /* \"#utility.yul\":6969:6975   */\n  dup3\n    /* \"#utility.yul\":6966:6980   */\n  lt\n    /* \"#utility.yul\":6946:6964   */\n  dup2\n    /* \"#utility.yul\":6943:6981   */\n  eq\n    /* \"#utility.yul\":6940:7024   */\n  iszero\n  tag_126\n  jumpi\n    /* \"#utility.yul\":6996:7014   */\n  tag_127\n  tag_51\n  jump\t// in\ntag_127:\n    /* \"#utility.yul\":6940:7024   */\ntag_126:\n    /* \"#utility.yul\":6761:7030   */\n  pop\n    /* \"#utility.yul\":6710:7030   */\n  swap2\n  swap1\n  pop\n  jump\t// out\n    /* \"NewFraxProtocol/contracts/Oracle/CrossChainOracleSingleAsset.sol\":1180:4194  contract CrossChainOracleSingleAsset is Owned {... */\ntag_15:\n  dataSize(sub_0)\n  dup1\n  dataOffset(sub_0)\n  0x00\n  codecopy\n  0x00\n  return\nstop\n\nsub_0: assembly {\n        /* \"NewFraxProtocol/contracts/Oracle/CrossChainOracleSingleAsset.sol\":1180:4194  contract CrossChainOracleSingleAsset is Owned {... */\n      mstore(0x40, 0x80)\n      callvalue\n      dup1\n      iszero\n      tag_1\n      jumpi\n      0x00\n      dup1\n      revert\n    tag_1:\n      pop\n      jumpi(tag_2, lt(calldatasize, 0x04))\n      shr(0xe0, calldataload(0x00))\n      dup1\n      0x79ba5097\n      gt\n      tag_22\n      jumpi\n      dup1\n      0xbdacb303\n      gt\n      tag_23\n      jumpi\n      dup1\n      0xbdacb303\n      eq\n      tag_17\n      jumpi\n      dup1\n      0xdbea953d\n      eq\n      tag_18\n      jumpi\n      dup1\n      0xdc6663c7\n      eq\n      tag_19\n      jumpi\n      dup1\n      0xfb39b986\n      eq\n      tag_20\n      jumpi\n      dup1\n      0xfeaf968c\n      eq\n      tag_21\n      jumpi\n      jump(tag_2)\n    tag_23:\n      dup1\n      0x79ba5097\n      eq\n      tag_12\n      jumpi\n      dup1\n      0x8da5cb5b\n      eq\n      tag_13\n      jumpi\n      dup1\n      0x91b7f5ed\n      eq\n      tag_14\n      jumpi\n      dup1\n      0x98d5fdca\n      eq\n      tag_15\n      jumpi\n      dup1\n      0xa035b1fe\n      eq\n      tag_16\n      jumpi\n      jump(tag_2)\n    tag_22:\n      dup1\n      0x313ce567\n      gt\n      tag_24\n      jumpi\n      dup1\n      0x313ce567\n      eq\n      tag_7\n      jumpi\n      dup1\n      0x53a47bb7\n      eq\n      tag_8\n      jumpi\n      dup1\n      0x54fd4d50\n      eq\n      tag_9\n      jumpi\n      dup1\n      0x6b5caec4\n      eq\n      tag_10\n      jumpi\n      dup1\n      0x7284e416\n      eq\n      tag_11\n      jumpi\n      jump(tag_2)\n    tag_24:\n      dup1\n      0xe4768b\n      eq\n      tag_3\n      jumpi\n      dup1\n      0x04f4a374\n      eq\n      tag_4\n      jumpi\n      dup1\n      0x08596fa6\n      eq\n      tag_5\n      jumpi\n      dup1\n      0x1627540c\n      eq\n      tag_6\n      jumpi\n    tag_2:\n      0x00\n      dup1\n      revert\n        /* \"NewFraxProtocol/contracts/Oracle/CrossChainOracleSingleAsset.sol\":3087:3314  function setPrice(address token_address, uint256 price_e6) public onlyByOwnGovBot {... */\n    tag_3:\n      tag_25\n      0x04\n      dup1\n      calldatasize\n      sub\n      dup2\n      add\n      swap1\n      tag_26\n      swap2\n      swap1\n      tag_27\n      jump\t// in\n    tag_26:\n      tag_28\n      jump\t// in\n    tag_25:\n      stop\n        /* \"NewFraxProtocol/contracts/Oracle/CrossChainOracleSingleAsset.sol\":3555:3883  function setMultiplePrices(address[] memory token_addresses, uint256[] memory prices_e6) public onlyByOwnGovBot {... */\n    tag_4:\n      tag_29\n      0x04\n      dup1\n      calldatasize\n      sub\n      dup2\n      add\n      swap1\n      tag_30\n      swap2\n      swap1\n      tag_31\n      jump\t// in\n    tag_30:\n      tag_32\n      jump\t// in\n    tag_29:\n      stop\n        /* \"NewFraxProtocol/contracts/Oracle/CrossChainOracleSingleAsset.sol\":1318:1344  address public tkn_address */\n    tag_5:\n      tag_33\n      tag_34\n      jump\t// in\n    tag_33:\n      mload(0x40)\n      tag_35\n      swap2\n      swap1\n      tag_36\n      jump\t// in\n    tag_35:\n      mload(0x40)\n      dup1\n      swap2\n      sub\n      swap1\n      return\n        /* \"NewFraxProtocol/contracts/Staking/Owned.sol\":388:526  function nominateNewOwner(address _owner) external onlyOwner {... */\n    tag_6:\n      tag_37\n      0x04\n      dup1\n      calldatasize\n      sub\n      dup2\n      add\n      swap1\n      tag_38\n      swap2\n      swap1\n      tag_39\n      jump\t// in\n    tag_38:\n      tag_40\n      jump\t// in\n    tag_37:\n      stop\n        /* \"NewFraxProtocol/contracts/Oracle/CrossChainOracleSingleAsset.sol\":1469:1495  uint8 public decimals = 18 */\n    tag_7:\n      tag_41\n      tag_42\n      jump\t// in\n    tag_41:\n      mload(0x40)\n      tag_43\n      swap2\n      swap1\n      tag_44\n      jump\t// in\n    tag_43:\n      mload(0x40)\n      dup1\n      swap2\n      sub\n      swap1\n      return\n        /* \"NewFraxProtocol/contracts/Staking/Owned.sol\":164:193  address public nominatedOwner */\n    tag_8:\n      tag_45\n      tag_46\n      jump\t// in\n    tag_45:\n      mload(0x40)\n      tag_47\n      swap2\n      swap1\n      tag_36\n      jump\t// in\n    tag_47:\n      mload(0x40)\n      dup1\n      swap2\n      sub\n      swap1\n      return\n        /* \"NewFraxProtocol/contracts/Oracle/CrossChainOracleSingleAsset.sol\":1532:1558  uint256 public version = 1 */\n    tag_9:\n      tag_48\n      tag_49\n      jump\t// in\n    tag_48:\n      mload(0x40)\n      tag_50\n      swap2\n      swap1\n      tag_51\n      jump\t// in\n    tag_50:\n      mload(0x40)\n      dup1\n      swap2\n      sub\n      swap1\n      return\n        /* \"NewFraxProtocol/contracts/Oracle/CrossChainOracleSingleAsset.sol\":4080:4191  function setBot(address _new_bot_address) external onlyByOwnGov {... */\n    tag_10:\n      tag_52\n      0x04\n      dup1\n      calldatasize\n      sub\n      dup2\n      add\n      swap1\n      tag_53\n      swap2\n      swap1\n      tag_39\n      jump\t// in\n    tag_53:\n      tag_54\n      jump\t// in\n    tag_52:\n      stop\n        /* \"NewFraxProtocol/contracts/Oracle/CrossChainOracleSingleAsset.sol\":1501:1526  string public description */\n    tag_11:\n      tag_55\n      tag_56\n      jump\t// in\n    tag_55:\n      mload(0x40)\n      tag_57\n      swap2\n      swap1\n      tag_58\n      jump\t// in\n    tag_57:\n      mload(0x40)\n      dup1\n      swap2\n      sub\n      swap1\n      return\n        /* \"NewFraxProtocol/contracts/Staking/Owned.sol\":532:798  function acceptOwnership() external {... */\n    tag_12:\n      tag_59\n      tag_60\n      jump\t// in\n    tag_59:\n      stop\n        /* \"NewFraxProtocol/contracts/Staking/Owned.sol\":138:158  address public owner */\n    tag_13:\n      tag_61\n      tag_62\n      jump\t// in\n    tag_61:\n      mload(0x40)\n      tag_63\n      swap2\n      swap1\n      tag_36\n      jump\t// in\n    tag_63:\n      mload(0x40)\n      dup1\n      swap2\n      sub\n      swap1\n      return\n        /* \"NewFraxProtocol/contracts/Oracle/CrossChainOracleSingleAsset.sol\":3353:3490  function setPrice(uint256 price_e6) public onlyByOwnGovBot {... */\n    tag_14:\n      tag_64\n      0x04\n      dup1\n      calldatasize\n      sub\n      dup2\n      add\n      swap1\n      tag_65\n      swap2\n      swap1\n      tag_66\n      jump\t// in\n    tag_65:\n      tag_67\n      jump\t// in\n    tag_64:\n      stop\n        /* \"NewFraxProtocol/contracts/Oracle/CrossChainOracleSingleAsset.sol\":2521:2600  function getPrice() public view returns (uint256) {... */\n    tag_15:\n      tag_68\n      tag_69\n      jump\t// in\n    tag_68:\n      mload(0x40)\n      tag_70\n      swap2\n      swap1\n      tag_51\n      jump\t// in\n    tag_70:\n      mload(0x40)\n      dup1\n      swap2\n      sub\n      swap1\n      return\n        /* \"NewFraxProtocol/contracts/Oracle/CrossChainOracleSingleAsset.sol\":1369:1389  uint256 public price */\n    tag_16:\n      tag_71\n      tag_72\n      jump\t// in\n    tag_71:\n      mload(0x40)\n      tag_73\n      swap2\n      swap1\n      tag_51\n      jump\t// in\n    tag_73:\n      mload(0x40)\n      dup1\n      swap2\n      sub\n      swap1\n      return\n        /* \"NewFraxProtocol/contracts/Oracle/CrossChainOracleSingleAsset.sol\":3943:4074  function setTimelock(address _new_timelock_address) external onlyByOwnGov {... */\n    tag_17:\n      tag_74\n      0x04\n      dup1\n      calldatasize\n      sub\n      dup2\n      add\n      swap1\n      tag_75\n      swap2\n      swap1\n      tag_39\n      jump\t// in\n    tag_75:\n      tag_76\n      jump\t// in\n    tag_74:\n      stop\n        /* \"NewFraxProtocol/contracts/Oracle/CrossChainOracleSingleAsset.sol\":1286:1312  address public bot_address */\n    tag_18:\n      tag_77\n      tag_78\n      jump\t// in\n    tag_77:\n      mload(0x40)\n      tag_79\n      swap2\n      swap1\n      tag_36\n      jump\t// in\n    tag_79:\n      mload(0x40)\n      dup1\n      swap2\n      sub\n      swap1\n      return\n        /* \"NewFraxProtocol/contracts/Oracle/CrossChainOracleSingleAsset.sol\":1249:1280  address public timelock_address */\n    tag_19:\n      tag_80\n      tag_81\n      jump\t// in\n    tag_80:\n      mload(0x40)\n      tag_82\n      swap2\n      swap1\n      tag_36\n      jump\t// in\n    tag_82:\n      mload(0x40)\n      dup1\n      swap2\n      sub\n      swap1\n      return\n        /* \"NewFraxProtocol/contracts/Oracle/CrossChainOracleSingleAsset.sol\":1395:1427  uint256 public last_updated_time */\n    tag_20:\n      tag_83\n      tag_84\n      jump\t// in\n    tag_83:\n      mload(0x40)\n      tag_85\n      swap2\n      swap1\n      tag_51\n      jump\t// in\n    tag_85:\n      mload(0x40)\n      dup1\n      swap2\n      sub\n      swap1\n      return\n        /* \"NewFraxProtocol/contracts/Oracle/CrossChainOracleSingleAsset.sol\":2661:2962  function latestRoundData() external view returns (... */\n    tag_21:\n      tag_86\n      tag_87\n      jump\t// in\n    tag_86:\n      mload(0x40)\n      tag_88\n      swap6\n      swap5\n      swap4\n      swap3\n      swap2\n      swap1\n      tag_89\n      jump\t// in\n    tag_88:\n      mload(0x40)\n      dup1\n      swap2\n      sub\n      swap1\n      return\n        /* \"NewFraxProtocol/contracts/Oracle/CrossChainOracleSingleAsset.sol\":3087:3314  function setPrice(address token_address, uint256 price_e6) public onlyByOwnGovBot {... */\n    tag_28:\n        /* \"NewFraxProtocol/contracts/Oracle/CrossChainOracleSingleAsset.sol\":1812:1817  owner */\n      0x00\n      dup1\n      sload\n      swap1\n      0x0100\n      exp\n      swap1\n      div\n      0xffffffffffffffffffffffffffffffffffffffff\n      and\n        /* \"NewFraxProtocol/contracts/Oracle/CrossChainOracleSingleAsset.sol\":1798:1817  msg.sender == owner */\n      0xffffffffffffffffffffffffffffffffffffffff\n      and\n        /* \"NewFraxProtocol/contracts/Oracle/CrossChainOracleSingleAsset.sol\":1798:1808  msg.sender */\n      caller\n        /* \"NewFraxProtocol/contracts/Oracle/CrossChainOracleSingleAsset.sol\":1798:1817  msg.sender == owner */\n      0xffffffffffffffffffffffffffffffffffffffff\n      and\n      eq\n        /* \"NewFraxProtocol/contracts/Oracle/CrossChainOracleSingleAsset.sol\":1798:1851  msg.sender == owner || msg.sender == timelock_address */\n      dup1\n      tag_91\n      jumpi\n      pop\n        /* \"NewFraxProtocol/contracts/Oracle/CrossChainOracleSingleAsset.sol\":1835:1851  timelock_address */\n      0x02\n      0x00\n      swap1\n      sload\n      swap1\n      0x0100\n      exp\n      swap1\n      div\n      0xffffffffffffffffffffffffffffffffffffffff\n      and\n        /* \"NewFraxProtocol/contracts/Oracle/CrossChainOracleSingleAsset.sol\":1821:1851  msg.sender == timelock_address */\n      0xffffffffffffffffffffffffffffffffffffffff\n      and\n        /* \"NewFraxProtocol/contracts/Oracle/CrossChainOracleSingleAsset.sol\":1821:1831  msg.sender */\n      caller\n        /* \"NewFraxProtocol/contracts/Oracle/CrossChainOracleSingleAsset.sol\":1821:1851  msg.sender == timelock_address */\n      0xffffffffffffffffffffffffffffffffffffffff\n      and\n      eq\n        /* \"NewFraxProtocol/contracts/Oracle/CrossChainOracleSingleAsset.sol\":1798:1851  msg.sender == owner || msg.sender == timelock_address */\n    tag_91:\n        /* \"NewFraxProtocol/contracts/Oracle/CrossChainOracleSingleAsset.sol\":1798:1880  msg.sender == owner || msg.sender == timelock_address || msg.sender == bot_address */\n      dup1\n      tag_92\n      jumpi\n      pop\n        /* \"NewFraxProtocol/contracts/Oracle/CrossChainOracleSingleAsset.sol\":1869:1880  bot_address */\n      0x03\n      0x00\n      swap1\n      sload\n      swap1\n      0x0100\n      exp\n      swap1\n      div\n      0xffffffffffffffffffffffffffffffffffffffff\n      and\n        /* \"NewFraxProtocol/contracts/Oracle/CrossChainOracleSingleAsset.sol\":1855:1880  msg.sender == bot_address */\n      0xffffffffffffffffffffffffffffffffffffffff\n      and\n        /* \"NewFraxProtocol/contracts/Oracle/CrossChainOracleSingleAsset.sol\":1855:1865  msg.sender */\n      caller\n        /* \"NewFraxProtocol/contracts/Oracle/CrossChainOracleSingleAsset.sol\":1855:1880  msg.sender == bot_address */\n      0xffffffffffffffffffffffffffffffffffffffff\n      and\n      eq\n        /* \"NewFraxProtocol/contracts/Oracle/CrossChainOracleSingleAsset.sol\":1798:1880  msg.sender == owner || msg.sender == timelock_address || msg.sender == bot_address */\n    tag_92:\n        /* \"NewFraxProtocol/contracts/Oracle/CrossChainOracleSingleAsset.sol\":1790:1908  require(msg.sender == owner || msg.sender == timelock_address || msg.sender == bot_address, \"Not owner, tlck, or bot\") */\n      tag_93\n      jumpi\n      mload(0x40)\n      0x08c379a000000000000000000000000000000000000000000000000000000000\n      dup2\n      mstore\n      0x04\n      add\n      tag_94\n      swap1\n      tag_95\n      jump\t// in\n    tag_94:\n      mload(0x40)\n      dup1\n      swap2\n      sub\n      swap1\n      revert\n    tag_93:\n        /* \"NewFraxProtocol/contracts/Oracle/CrossChainOracleSingleAsset.sol\":3204:3215  tkn_address */\n      0x04\n      0x00\n      swap1\n      sload\n      swap1\n      0x0100\n      exp\n      swap1\n      div\n      0xffffffffffffffffffffffffffffffffffffffff\n      and\n        /* \"NewFraxProtocol/contracts/Oracle/CrossChainOracleSingleAsset.sol\":3187:3215  token_address == tkn_address */\n      0xffffffffffffffffffffffffffffffffffffffff\n      and\n        /* \"NewFraxProtocol/contracts/Oracle/CrossChainOracleSingleAsset.sol\":3187:3200  token_address */\n      dup3\n        /* \"NewFraxProtocol/contracts/Oracle/CrossChainOracleSingleAsset.sol\":3187:3215  token_address == tkn_address */\n      0xffffffffffffffffffffffffffffffffffffffff\n      and\n      eq\n        /* \"NewFraxProtocol/contracts/Oracle/CrossChainOracleSingleAsset.sol\":3179:3233  require(token_address == tkn_address, \"Invalid token\") */\n      tag_97\n      jumpi\n      mload(0x40)\n      0x08c379a000000000000000000000000000000000000000000000000000000000\n      dup2\n      mstore\n      0x04\n      add\n      tag_98\n      swap1\n      tag_99\n      jump\t// in\n    tag_98:\n      mload(0x40)\n      dup1\n      swap2\n      sub\n      swap1\n      revert\n    tag_97:\n        /* \"NewFraxProtocol/contracts/Oracle/CrossChainOracleSingleAsset.sol\":3244:3262  setPrice(price_e6) */\n      tag_100\n        /* \"NewFraxProtocol/contracts/Oracle/CrossChainOracleSingleAsset.sol\":3253:3261  price_e6 */\n      dup2\n        /* \"NewFraxProtocol/contracts/Oracle/CrossChainOracleSingleAsset.sol\":3244:3252  setPrice */\n      tag_67\n        /* \"NewFraxProtocol/contracts/Oracle/CrossChainOracleSingleAsset.sol\":3244:3262  setPrice(price_e6) */\n      jump\t// in\n    tag_100:\n        /* \"NewFraxProtocol/contracts/Oracle/CrossChainOracleSingleAsset.sol\":3292:3307  block.timestamp */\n      timestamp\n        /* \"NewFraxProtocol/contracts/Oracle/CrossChainOracleSingleAsset.sol\":3272:3289  last_updated_time */\n      0x06\n        /* \"NewFraxProtocol/contracts/Oracle/CrossChainOracleSingleAsset.sol\":3272:3307  last_updated_time = block.timestamp */\n      dup2\n      swap1\n      sstore\n      pop\n        /* \"NewFraxProtocol/contracts/Oracle/CrossChainOracleSingleAsset.sol\":3087:3314  function setPrice(address token_address, uint256 price_e6) public onlyByOwnGovBot {... */\n      pop\n      pop\n      jump\t// out\n        /* \"NewFraxProtocol/contracts/Oracle/CrossChainOracleSingleAsset.sol\":3555:3883  function setMultiplePrices(address[] memory token_addresses, uint256[] memory prices_e6) public onlyByOwnGovBot {... */\n    tag_32:\n        /* \"NewFraxProtocol/contracts/Oracle/CrossChainOracleSingleAsset.sol\":1812:1817  owner */\n      0x00\n      dup1\n      sload\n      swap1\n      0x0100\n      exp\n      swap1\n      div\n      0xffffffffffffffffffffffffffffffffffffffff\n      and\n        /* \"NewFraxProtocol/contracts/Oracle/CrossChainOracleSingleAsset.sol\":1798:1817  msg.sender == owner */\n      0xffffffffffffffffffffffffffffffffffffffff\n      and\n        /* \"NewFraxProtocol/contracts/Oracle/CrossChainOracleSingleAsset.sol\":1798:1808  msg.sender */\n      caller\n        /* \"NewFraxProtocol/contracts/Oracle/CrossChainOracleSingleAsset.sol\":1798:1817  msg.sender == owner */\n      0xffffffffffffffffffffffffffffffffffffffff\n      and\n      eq\n        /* \"NewFraxProtocol/contracts/Oracle/CrossChainOracleSingleAsset.sol\":1798:1851  msg.sender == owner || msg.sender == timelock_address */\n      dup1\n      tag_102\n      jumpi\n      pop\n        /* \"NewFraxProtocol/contracts/Oracle/CrossChainOracleSingleAsset.sol\":1835:1851  timelock_address */\n      0x02\n      0x00\n      swap1\n      sload\n      swap1\n      0x0100\n      exp\n      swap1\n      div\n      0xffffffffffffffffffffffffffffffffffffffff\n      and\n        /* \"NewFraxProtocol/contracts/Oracle/CrossChainOracleSingleAsset.sol\":1821:1851  msg.sender == timelock_address */\n      0xffffffffffffffffffffffffffffffffffffffff\n      and\n        /* \"NewFraxProtocol/contracts/Oracle/CrossChainOracleSingleAsset.sol\":1821:1831  msg.sender */\n      caller\n        /* \"NewFraxProtocol/contracts/Oracle/CrossChainOracleSingleAsset.sol\":1821:1851  msg.sender == timelock_address */\n      0xffffffffffffffffffffffffffffffffffffffff\n      and\n      eq\n        /* \"NewFraxProtocol/contracts/Oracle/CrossChainOracleSingleAsset.sol\":1798:1851  msg.sender == owner || msg.sender == timelock_address */\n    tag_102:\n        /* \"NewFraxProtocol/contracts/Oracle/CrossChainOracleSingleAsset.sol\":1798:1880  msg.sender == owner || msg.sender == timelock_address || msg.sender == bot_address */\n      dup1\n      tag_103\n      jumpi\n      pop\n        /* \"NewFraxProtocol/contracts/Oracle/CrossChainOracleSingleAsset.sol\":1869:1880  bot_address */\n      0x03\n      0x00\n      swap1\n      sload\n      swap1\n      0x0100\n      exp\n      swap1\n      div\n      0xffffffffffffffffffffffffffffffffffffffff\n      and\n        /* \"NewFraxProtocol/contracts/Oracle/CrossChainOracleSingleAsset.sol\":1855:1880  msg.sender == bot_address */\n      0xffffffffffffffffffffffffffffffffffffffff\n      and\n        /* \"NewFraxProtocol/contracts/Oracle/CrossChainOracleSingleAsset.sol\":1855:1865  msg.sender */\n      caller\n        /* \"NewFraxProtocol/contracts/Oracle/CrossChainOracleSingleAsset.sol\":1855:1880  msg.sender == bot_address */\n      0xffffffffffffffffffffffffffffffffffffffff\n      and\n      eq\n        /* \"NewFraxProtocol/contracts/Oracle/CrossChainOracleSingleAsset.sol\":1798:1880  msg.sender == owner || msg.sender == timelock_address || msg.sender == bot_address */\n    tag_103:\n        /* \"NewFraxProtocol/contracts/Oracle/CrossChainOracleSingleAsset.sol\":1790:1908  require(msg.sender == owner || msg.sender == timelock_address || msg.sender == bot_address, \"Not owner, tlck, or bot\") */\n      tag_104\n      jumpi\n      mload(0x40)\n      0x08c379a000000000000000000000000000000000000000000000000000000000\n      dup2\n      mstore\n      0x04\n      add\n      tag_105\n      swap1\n      tag_95\n      jump\t// in\n    tag_105:\n      mload(0x40)\n      dup1\n      swap2\n      sub\n      swap1\n      revert\n    tag_104:\n        /* \"NewFraxProtocol/contracts/Oracle/CrossChainOracleSingleAsset.sol\":3711:3712  1 */\n      0x01\n        /* \"NewFraxProtocol/contracts/Oracle/CrossChainOracleSingleAsset.sol\":3685:3700  token_addresses */\n      dup3\n        /* \"NewFraxProtocol/contracts/Oracle/CrossChainOracleSingleAsset.sol\":3685:3707  token_addresses.length */\n      mload\n        /* \"NewFraxProtocol/contracts/Oracle/CrossChainOracleSingleAsset.sol\":3685:3712  token_addresses.length == 1 */\n      eq\n        /* \"NewFraxProtocol/contracts/Oracle/CrossChainOracleSingleAsset.sol\":3677:3729  require(token_addresses.length == 1, \"1 token only\") */\n      tag_107\n      jumpi\n      mload(0x40)\n      0x08c379a000000000000000000000000000000000000000000000000000000000\n      dup2\n      mstore\n      0x04\n      add\n      tag_108\n      swap1\n      tag_109\n      jump\t// in\n    tag_108:\n      mload(0x40)\n      dup1\n      swap2\n      sub\n      swap1\n      revert\n    tag_107:\n        /* \"NewFraxProtocol/contracts/Oracle/CrossChainOracleSingleAsset.sol\":3769:3780  tkn_address */\n      0x04\n      0x00\n      swap1\n      sload\n      swap1\n      0x0100\n      exp\n      swap1\n      div\n      0xffffffffffffffffffffffffffffffffffffffff\n      and\n        /* \"NewFraxProtocol/contracts/Oracle/CrossChainOracleSingleAsset.sol\":3747:3780  token_addresses[0] == tkn_address */\n      0xffffffffffffffffffffffffffffffffffffffff\n      and\n        /* \"NewFraxProtocol/contracts/Oracle/CrossChainOracleSingleAsset.sol\":3747:3762  token_addresses */\n      dup3\n        /* \"NewFraxProtocol/contracts/Oracle/CrossChainOracleSingleAsset.sol\":3763:3764  0 */\n      0x00\n        /* \"NewFraxProtocol/contracts/Oracle/CrossChainOracleSingleAsset.sol\":3747:3765  token_addresses[0] */\n      dup2\n      mload\n      dup2\n      lt\n      tag_110\n      jumpi\n      tag_111\n      tag_112\n      jump\t// in\n    tag_111:\n    tag_110:\n      0x20\n      mul\n      0x20\n      add\n      add\n      mload\n        /* \"NewFraxProtocol/contracts/Oracle/CrossChainOracleSingleAsset.sol\":3747:3780  token_addresses[0] == tkn_address */\n      0xffffffffffffffffffffffffffffffffffffffff\n      and\n      eq\n        /* \"NewFraxProtocol/contracts/Oracle/CrossChainOracleSingleAsset.sol\":3739:3798  require(token_addresses[0] == tkn_address, \"Invalid token\") */\n      tag_113\n      jumpi\n      mload(0x40)\n      0x08c379a000000000000000000000000000000000000000000000000000000000\n      dup2\n      mstore\n      0x04\n      add\n      tag_114\n      swap1\n      tag_99\n      jump\t// in\n    tag_114:\n      mload(0x40)\n      dup1\n      swap2\n      sub\n      swap1\n      revert\n    tag_113:\n        /* \"NewFraxProtocol/contracts/Oracle/CrossChainOracleSingleAsset.sol\":3809:3831  setPrice(prices_e6[0]) */\n      tag_115\n        /* \"NewFraxProtocol/contracts/Oracle/CrossChainOracleSingleAsset.sol\":3818:3827  prices_e6 */\n      dup2\n        /* \"NewFraxProtocol/contracts/Oracle/CrossChainOracleSingleAsset.sol\":3828:3829  0 */\n      0x00\n        /* \"NewFraxProtocol/contracts/Oracle/CrossChainOracleSingleAsset.sol\":3818:3830  prices_e6[0] */\n      dup2\n      mload\n      dup2\n      lt\n      tag_116\n      jumpi\n      tag_117\n      tag_112\n      jump\t// in\n    tag_117:\n    tag_116:\n      0x20\n      mul\n      0x20\n      add\n      add\n      mload\n        /* \"NewFraxProtocol/contracts/Oracle/CrossChainOracleSingleAsset.sol\":3809:3817  setPrice */\n      tag_67\n        /* \"NewFraxProtocol/contracts/Oracle/CrossChainOracleSingleAsset.sol\":3809:3831  setPrice(prices_e6[0]) */\n      jump\t// in\n    tag_115:\n        /* \"NewFraxProtocol/contracts/Oracle/CrossChainOracleSingleAsset.sol\":3861:3876  block.timestamp */\n      timestamp\n        /* \"NewFraxProtocol/contracts/Oracle/CrossChainOracleSingleAsset.sol\":3841:3858  last_updated_time */\n      0x06\n        /* \"NewFraxProtocol/contracts/Oracle/CrossChainOracleSingleAsset.sol\":3841:3876  last_updated_time = block.timestamp */\n      dup2\n      swap1\n      sstore\n      pop\n        /* \"NewFraxProtocol/contracts/Oracle/CrossChainOracleSingleAsset.sol\":3555:3883  function setMultiplePrices(address[] memory token_addresses, uint256[] memory prices_e6) public onlyByOwnGovBot {... */\n      pop\n      pop\n      jump\t// out\n        /* \"NewFraxProtocol/contracts/Oracle/CrossChainOracleSingleAsset.sol\":1318:1344  address public tkn_address */\n    tag_34:\n      0x04\n      0x00\n      swap1\n      sload\n      swap1\n      0x0100\n      exp\n      swap1\n      div\n      0xffffffffffffffffffffffffffffffffffffffff\n      and\n      dup2\n      jump\t// out\n        /* \"NewFraxProtocol/contracts/Staking/Owned.sol\":388:526  function nominateNewOwner(address _owner) external onlyOwner {... */\n    tag_40:\n        /* \"NewFraxProtocol/contracts/Staking/Owned.sol\":855:860  owner */\n      0x00\n      dup1\n      sload\n      swap1\n      0x0100\n      exp\n      swap1\n      div\n      0xffffffffffffffffffffffffffffffffffffffff\n      and\n        /* \"NewFraxProtocol/contracts/Staking/Owned.sol\":841:860  msg.sender == owner */\n      0xffffffffffffffffffffffffffffffffffffffff\n      and\n        /* \"NewFraxProtocol/contracts/Staking/Owned.sol\":841:851  msg.sender */\n      caller\n        /* \"NewFraxProtocol/contracts/Staking/Owned.sol\":841:860  msg.sender == owner */\n      0xffffffffffffffffffffffffffffffffffffffff\n      and\n      eq\n        /* \"NewFraxProtocol/contracts/Staking/Owned.sol\":833:912  require(msg.sender == owner, \"Only the contract owner may perform this action\") */\n      tag_119\n      jumpi\n      mload(0x40)\n      0x08c379a000000000000000000000000000000000000000000000000000000000\n      dup2\n      mstore\n      0x04\n      add\n      tag_120\n      swap1\n      tag_121\n      jump\t// in\n    tag_120:\n      mload(0x40)\n      dup1\n      swap2\n      sub\n      swap1\n      revert\n    tag_119:\n        /* \"NewFraxProtocol/contracts/Staking/Owned.sol\":476:482  _owner */\n      dup1\n        /* \"NewFraxProtocol/contracts/Staking/Owned.sol\":459:473  nominatedOwner */\n      0x01\n      0x00\n        /* \"NewFraxProtocol/contracts/Staking/Owned.sol\":459:482  nominatedOwner = _owner */\n      0x0100\n      exp\n      dup2\n      sload\n      dup2\n      0xffffffffffffffffffffffffffffffffffffffff\n      mul\n      not\n      and\n      swap1\n      dup4\n      0xffffffffffffffffffffffffffffffffffffffff\n      and\n      mul\n      or\n      swap1\n      sstore\n      pop\n        /* \"NewFraxProtocol/contracts/Staking/Owned.sol\":497:519  OwnerNominated(_owner) */\n      0x906a1c6bd7e3091ea86693dd029a831c19049ce77f1dce2ce0bab1cacbabce22\n        /* \"NewFraxProtocol/contracts/Staking/Owned.sol\":512:518  _owner */\n      dup2\n        /* \"NewFraxProtocol/contracts/Staking/Owned.sol\":497:519  OwnerNominated(_owner) */\n      mload(0x40)\n      tag_123\n      swap2\n      swap1\n      tag_36\n      jump\t// in\n    tag_123:\n      mload(0x40)\n      dup1\n      swap2\n      sub\n      swap1\n      log1\n        /* \"NewFraxProtocol/contracts/Staking/Owned.sol\":388:526  function nominateNewOwner(address _owner) external onlyOwner {... */\n      pop\n      jump\t// out\n        /* \"NewFraxProtocol/contracts/Oracle/CrossChainOracleSingleAsset.sol\":1469:1495  uint8 public decimals = 18 */\n    tag_42:\n      0x07\n      0x00\n      swap1\n      sload\n      swap1\n      0x0100\n      exp\n      swap1\n      div\n      0xff\n      and\n      dup2\n      jump\t// out\n        /* \"NewFraxProtocol/contracts/Staking/Owned.sol\":164:193  address public nominatedOwner */\n    tag_46:\n      0x01\n      0x00\n      swap1\n      sload\n      swap1\n      0x0100\n      exp\n      swap1\n      div\n      0xffffffffffffffffffffffffffffffffffffffff\n      and\n      dup2\n      jump\t// out\n        /* \"NewFraxProtocol/contracts/Oracle/CrossChainOracleSingleAsset.sol\":1532:1558  uint256 public version = 1 */\n    tag_49:\n      sload(0x09)\n      dup2\n      jump\t// out\n        /* \"NewFraxProtocol/contracts/Oracle/CrossChainOracleSingleAsset.sol\":4080:4191  function setBot(address _new_bot_address) external onlyByOwnGov {... */\n    tag_54:\n        /* \"NewFraxProtocol/contracts/Oracle/CrossChainOracleSingleAsset.sol\":1664:1669  owner */\n      0x00\n      dup1\n      sload\n      swap1\n      0x0100\n      exp\n      swap1\n      div\n      0xffffffffffffffffffffffffffffffffffffffff\n      and\n        /* \"NewFraxProtocol/contracts/Oracle/CrossChainOracleSingleAsset.sol\":1650:1669  msg.sender == owner */\n      0xffffffffffffffffffffffffffffffffffffffff\n      and\n        /* \"NewFraxProtocol/contracts/Oracle/CrossChainOracleSingleAsset.sol\":1650:1660  msg.sender */\n      caller\n        /* \"NewFraxProtocol/contracts/Oracle/CrossChainOracleSingleAsset.sol\":1650:1669  msg.sender == owner */\n      0xffffffffffffffffffffffffffffffffffffffff\n      and\n      eq\n        /* \"NewFraxProtocol/contracts/Oracle/CrossChainOracleSingleAsset.sol\":1650:1703  msg.sender == owner || msg.sender == timelock_address */\n      dup1\n      tag_125\n      jumpi\n      pop\n        /* \"NewFraxProtocol/contracts/Oracle/CrossChainOracleSingleAsset.sol\":1687:1703  timelock_address */\n      0x02\n      0x00\n      swap1\n      sload\n      swap1\n      0x0100\n      exp\n      swap1\n      div\n      0xffffffffffffffffffffffffffffffffffffffff\n      and\n        /* \"NewFraxProtocol/contracts/Oracle/CrossChainOracleSingleAsset.sol\":1673:1703  msg.sender == timelock_address */\n      0xffffffffffffffffffffffffffffffffffffffff\n      and\n        /* \"NewFraxProtocol/contracts/Oracle/CrossChainOracleSingleAsset.sol\":1673:1683  msg.sender */\n      caller\n        /* \"NewFraxProtocol/contracts/Oracle/CrossChainOracleSingleAsset.sol\":1673:1703  msg.sender == timelock_address */\n      0xffffffffffffffffffffffffffffffffffffffff\n      and\n      eq\n        /* \"NewFraxProtocol/contracts/Oracle/CrossChainOracleSingleAsset.sol\":1650:1703  msg.sender == owner || msg.sender == timelock_address */\n    tag_125:\n        /* \"NewFraxProtocol/contracts/Oracle/CrossChainOracleSingleAsset.sol\":1642:1729  require(msg.sender == owner || msg.sender == timelock_address, \"Not owner or timelock\") */\n      tag_126\n      jumpi\n      mload(0x40)\n      0x08c379a000000000000000000000000000000000000000000000000000000000\n      dup2\n      mstore\n      0x04\n      add\n      tag_127\n      swap1\n      tag_128\n      jump\t// in\n    tag_127:\n      mload(0x40)\n      dup1\n      swap2\n      sub\n      swap1\n      revert\n    tag_126:\n        /* \"NewFraxProtocol/contracts/Oracle/CrossChainOracleSingleAsset.sol\":4168:4184  _new_bot_address */\n      dup1\n        /* \"NewFraxProtocol/contracts/Oracle/CrossChainOracleSingleAsset.sol\":4154:4165  bot_address */\n      0x03\n      0x00\n        /* \"NewFraxProtocol/contracts/Oracle/CrossChainOracleSingleAsset.sol\":4154:4184  bot_address = _new_bot_address */\n      0x0100\n      exp\n      dup2\n      sload\n      dup2\n      0xffffffffffffffffffffffffffffffffffffffff\n      mul\n      not\n      and\n      swap1\n      dup4\n      0xffffffffffffffffffffffffffffffffffffffff\n      and\n      mul\n      or\n      swap1\n      sstore\n      pop\n        /* \"NewFraxProtocol/contracts/Oracle/CrossChainOracleSingleAsset.sol\":4080:4191  function setBot(address _new_bot_address) external onlyByOwnGov {... */\n      pop\n      jump\t// out\n        /* \"NewFraxProtocol/contracts/Oracle/CrossChainOracleSingleAsset.sol\":1501:1526  string public description */\n    tag_56:\n      0x08\n      dup1\n      sload\n      tag_130\n      swap1\n      tag_131\n      jump\t// in\n    tag_130:\n      dup1\n      0x1f\n      add\n      0x20\n      dup1\n      swap2\n      div\n      mul\n      0x20\n      add\n      mload(0x40)\n      swap1\n      dup2\n      add\n      0x40\n      mstore\n      dup1\n      swap3\n      swap2\n      swap1\n      dup2\n      dup2\n      mstore\n      0x20\n      add\n      dup3\n      dup1\n      sload\n      tag_132\n      swap1\n      tag_131\n      jump\t// in\n    tag_132:\n      dup1\n      iszero\n      tag_133\n      jumpi\n      dup1\n      0x1f\n      lt\n      tag_134\n      jumpi\n      0x0100\n      dup1\n      dup4\n      sload\n      div\n      mul\n      dup4\n      mstore\n      swap2\n      0x20\n      add\n      swap2\n      jump(tag_133)\n    tag_134:\n      dup3\n      add\n      swap2\n      swap1\n      0x00\n      mstore\n      keccak256(0x00, 0x20)\n      swap1\n    tag_135:\n      dup2\n      sload\n      dup2\n      mstore\n      swap1\n      0x01\n      add\n      swap1\n      0x20\n      add\n      dup1\n      dup4\n      gt\n      tag_135\n      jumpi\n      dup3\n      swap1\n      sub\n      0x1f\n      and\n      dup3\n      add\n      swap2\n    tag_133:\n      pop\n      pop\n      pop\n      pop\n      pop\n      dup2\n      jump\t// out\n        /* \"NewFraxProtocol/contracts/Staking/Owned.sol\":532:798  function acceptOwnership() external {... */\n    tag_60:\n        /* \"NewFraxProtocol/contracts/Staking/Owned.sol\":600:614  nominatedOwner */\n      0x01\n      0x00\n      swap1\n      sload\n      swap1\n      0x0100\n      exp\n      swap1\n      div\n      0xffffffffffffffffffffffffffffffffffffffff\n      and\n        /* \"NewFraxProtocol/contracts/Staking/Owned.sol\":586:614  msg.sender == nominatedOwner */\n      0xffffffffffffffffffffffffffffffffffffffff\n      and\n        /* \"NewFraxProtocol/contracts/Staking/Owned.sol\":586:596  msg.sender */\n      caller\n        /* \"NewFraxProtocol/contracts/Staking/Owned.sol\":586:614  msg.sender == nominatedOwner */\n      0xffffffffffffffffffffffffffffffffffffffff\n      and\n      eq\n        /* \"NewFraxProtocol/contracts/Staking/Owned.sol\":578:672  require(msg.sender == nominatedOwner, \"You must be nominated before you can accept ownership\") */\n      tag_137\n      jumpi\n      mload(0x40)\n      0x08c379a000000000000000000000000000000000000000000000000000000000\n      dup2\n      mstore\n      0x04\n      add\n      tag_138\n      swap1\n      tag_139\n      jump\t// in\n    tag_138:\n      mload(0x40)\n      dup1\n      swap2\n      sub\n      swap1\n      revert\n    tag_137:\n        /* \"NewFraxProtocol/contracts/Staking/Owned.sol\":687:722  OwnerChanged(owner, nominatedOwner) */\n      0xb532073b38c83145e3e5135377a08bf9aab55bc0fd7c1179cd4fb995d2a5159c\n        /* \"NewFraxProtocol/contracts/Staking/Owned.sol\":700:705  owner */\n      0x00\n      dup1\n      sload\n      swap1\n      0x0100\n      exp\n      swap1\n      div\n      0xffffffffffffffffffffffffffffffffffffffff\n      and\n        /* \"NewFraxProtocol/contracts/Staking/Owned.sol\":707:721  nominatedOwner */\n      0x01\n      0x00\n      swap1\n      sload\n      swap1\n      0x0100\n      exp\n      swap1\n      div\n      0xffffffffffffffffffffffffffffffffffffffff\n      and\n        /* \"NewFraxProtocol/contracts/Staking/Owned.sol\":687:722  OwnerChanged(owner, nominatedOwner) */\n      mload(0x40)\n      tag_140\n      swap3\n      swap2\n      swap1\n      tag_141\n      jump\t// in\n    tag_140:\n      mload(0x40)\n      dup1\n      swap2\n      sub\n      swap1\n      log1\n        /* \"NewFraxProtocol/contracts/Staking/Owned.sol\":740:754  nominatedOwner */\n      0x01\n      0x00\n      swap1\n      sload\n      swap1\n      0x0100\n      exp\n      swap1\n      div\n      0xffffffffffffffffffffffffffffffffffffffff\n      and\n        /* \"NewFraxProtocol/contracts/Staking/Owned.sol\":732:737  owner */\n      0x00\n      dup1\n        /* \"NewFraxProtocol/contracts/Staking/Owned.sol\":732:754  owner = nominatedOwner */\n      0x0100\n      exp\n      dup2\n      sload\n      dup2\n      0xffffffffffffffffffffffffffffffffffffffff\n      mul\n      not\n      and\n      swap1\n      dup4\n      0xffffffffffffffffffffffffffffffffffffffff\n      and\n      mul\n      or\n      swap1\n      sstore\n      pop\n        /* \"NewFraxProtocol/contracts/Staking/Owned.sol\":789:790  0 */\n      0x00\n        /* \"NewFraxProtocol/contracts/Staking/Owned.sol\":764:778  nominatedOwner */\n      0x01\n      0x00\n        /* \"NewFraxProtocol/contracts/Staking/Owned.sol\":764:791  nominatedOwner = address(0) */\n      0x0100\n      exp\n      dup2\n      sload\n      dup2\n      0xffffffffffffffffffffffffffffffffffffffff\n      mul\n      not\n      and\n      swap1\n      dup4\n      0xffffffffffffffffffffffffffffffffffffffff\n      and\n      mul\n      or\n      swap1\n      sstore\n      pop\n        /* \"NewFraxProtocol/contracts/Staking/Owned.sol\":532:798  function acceptOwnership() external {... */\n      jump\t// out\n        /* \"NewFraxProtocol/contracts/Staking/Owned.sol\":138:158  address public owner */\n    tag_62:\n      0x00\n      dup1\n      sload\n      swap1\n      0x0100\n      exp\n      swap1\n      div\n      0xffffffffffffffffffffffffffffffffffffffff\n      and\n      dup2\n      jump\t// out\n        /* \"NewFraxProtocol/contracts/Oracle/CrossChainOracleSingleAsset.sol\":3353:3490  function setPrice(uint256 price_e6) public onlyByOwnGovBot {... */\n    tag_67:\n        /* \"NewFraxProtocol/contracts/Oracle/CrossChainOracleSingleAsset.sol\":1812:1817  owner */\n      0x00\n      dup1\n      sload\n      swap1\n      0x0100\n      exp\n      swap1\n      div\n      0xffffffffffffffffffffffffffffffffffffffff\n      and\n        /* \"NewFraxProtocol/contracts/Oracle/CrossChainOracleSingleAsset.sol\":1798:1817  msg.sender == owner */\n      0xffffffffffffffffffffffffffffffffffffffff\n      and\n        /* \"NewFraxProtocol/contracts/Oracle/CrossChainOracleSingleAsset.sol\":1798:1808  msg.sender */\n      caller\n        /* \"NewFraxProtocol/contracts/Oracle/CrossChainOracleSingleAsset.sol\":1798:1817  msg.sender == owner */\n      0xffffffffffffffffffffffffffffffffffffffff\n      and\n      eq\n        /* \"NewFraxProtocol/contracts/Oracle/CrossChainOracleSingleAsset.sol\":1798:1851  msg.sender == owner || msg.sender == timelock_address */\n      dup1\n      tag_143\n      jumpi\n      pop\n        /* \"NewFraxProtocol/contracts/Oracle/CrossChainOracleSingleAsset.sol\":1835:1851  timelock_address */\n      0x02\n      0x00\n      swap1\n      sload\n      swap1\n      0x0100\n      exp\n      swap1\n      div\n      0xffffffffffffffffffffffffffffffffffffffff\n      and\n        /* \"NewFraxProtocol/contracts/Oracle/CrossChainOracleSingleAsset.sol\":1821:1851  msg.sender == timelock_address */\n      0xffffffffffffffffffffffffffffffffffffffff\n      and\n        /* \"NewFraxProtocol/contracts/Oracle/CrossChainOracleSingleAsset.sol\":1821:1831  msg.sender */\n      caller\n        /* \"NewFraxProtocol/contracts/Oracle/CrossChainOracleSingleAsset.sol\":1821:1851  msg.sender == timelock_address */\n      0xffffffffffffffffffffffffffffffffffffffff\n      and\n      eq\n        /* \"NewFraxProtocol/contracts/Oracle/CrossChainOracleSingleAsset.sol\":1798:1851  msg.sender == owner || msg.sender == timelock_address */\n    tag_143:\n        /* \"NewFraxProtocol/contracts/Oracle/CrossChainOracleSingleAsset.sol\":1798:1880  msg.sender == owner || msg.sender == timelock_address || msg.sender == bot_address */\n      dup1\n      tag_144\n      jumpi\n      pop\n        /* \"NewFraxProtocol/contracts/Oracle/CrossChainOracleSingleAsset.sol\":1869:1880  bot_address */\n      0x03\n      0x00\n      swap1\n      sload\n      swap1\n      0x0100\n      exp\n      swap1\n      div\n      0xffffffffffffffffffffffffffffffffffffffff\n      and\n        /* \"NewFraxProtocol/contracts/Oracle/CrossChainOracleSingleAsset.sol\":1855:1880  msg.sender == bot_address */\n      0xffffffffffffffffffffffffffffffffffffffff\n      and\n        /* \"NewFraxProtocol/contracts/Oracle/CrossChainOracleSingleAsset.sol\":1855:1865  msg.sender */\n      caller\n        /* \"NewFraxProtocol/contracts/Oracle/CrossChainOracleSingleAsset.sol\":1855:1880  msg.sender == bot_address */\n      0xffffffffffffffffffffffffffffffffffffffff\n      and\n      eq\n        /* \"NewFraxProtocol/contracts/Oracle/CrossChainOracleSingleAsset.sol\":1798:1880  msg.sender == owner || msg.sender == timelock_address || msg.sender == bot_address */\n    tag_144:\n        /* \"NewFraxProtocol/contracts/Oracle/CrossChainOracleSingleAsset.sol\":1790:1908  require(msg.sender == owner || msg.sender == timelock_address || msg.sender == bot_address, \"Not owner, tlck, or bot\") */\n      tag_145\n      jumpi\n      mload(0x40)\n      0x08c379a000000000000000000000000000000000000000000000000000000000\n      dup2\n      mstore\n      0x04\n      add\n      tag_146\n      swap1\n      tag_95\n      jump\t// in\n    tag_146:\n      mload(0x40)\n      dup1\n      swap2\n      sub\n      swap1\n      revert\n    tag_145:\n        /* \"NewFraxProtocol/contracts/Oracle/CrossChainOracleSingleAsset.sol\":3430:3438  price_e6 */\n      dup1\n        /* \"NewFraxProtocol/contracts/Oracle/CrossChainOracleSingleAsset.sol\":3422:3427  price */\n      0x05\n        /* \"NewFraxProtocol/contracts/Oracle/CrossChainOracleSingleAsset.sol\":3422:3438  price = price_e6 */\n      dup2\n      swap1\n      sstore\n      pop\n        /* \"NewFraxProtocol/contracts/Oracle/CrossChainOracleSingleAsset.sol\":3468:3483  block.timestamp */\n      timestamp\n        /* \"NewFraxProtocol/contracts/Oracle/CrossChainOracleSingleAsset.sol\":3448:3465  last_updated_time */\n      0x06\n        /* \"NewFraxProtocol/contracts/Oracle/CrossChainOracleSingleAsset.sol\":3448:3483  last_updated_time = block.timestamp */\n      dup2\n      swap1\n      sstore\n      pop\n        /* \"NewFraxProtocol/contracts/Oracle/CrossChainOracleSingleAsset.sol\":3353:3490  function setPrice(uint256 price_e6) public onlyByOwnGovBot {... */\n      pop\n      jump\t// out\n        /* \"NewFraxProtocol/contracts/Oracle/CrossChainOracleSingleAsset.sol\":2521:2600  function getPrice() public view returns (uint256) {... */\n    tag_69:\n        /* \"NewFraxProtocol/contracts/Oracle/CrossChainOracleSingleAsset.sol\":2562:2569  uint256 */\n      0x00\n        /* \"NewFraxProtocol/contracts/Oracle/CrossChainOracleSingleAsset.sol\":2588:2593  price */\n      sload(0x05)\n        /* \"NewFraxProtocol/contracts/Oracle/CrossChainOracleSingleAsset.sol\":2581:2593  return price */\n      swap1\n      pop\n        /* \"NewFraxProtocol/contracts/Oracle/CrossChainOracleSingleAsset.sol\":2521:2600  function getPrice() public view returns (uint256) {... */\n      swap1\n      jump\t// out\n        /* \"NewFraxProtocol/contracts/Oracle/CrossChainOracleSingleAsset.sol\":1369:1389  uint256 public price */\n    tag_72:\n      sload(0x05)\n      dup2\n      jump\t// out\n        /* \"NewFraxProtocol/contracts/Oracle/CrossChainOracleSingleAsset.sol\":3943:4074  function setTimelock(address _new_timelock_address) external onlyByOwnGov {... */\n    tag_76:\n        /* \"NewFraxProtocol/contracts/Oracle/CrossChainOracleSingleAsset.sol\":1664:1669  owner */\n      0x00\n      dup1\n      sload\n      swap1\n      0x0100\n      exp\n      swap1\n      div\n      0xffffffffffffffffffffffffffffffffffffffff\n      and\n        /* \"NewFraxProtocol/contracts/Oracle/CrossChainOracleSingleAsset.sol\":1650:1669  msg.sender == owner */\n      0xffffffffffffffffffffffffffffffffffffffff\n      and\n        /* \"NewFraxProtocol/contracts/Oracle/CrossChainOracleSingleAsset.sol\":1650:1660  msg.sender */\n      caller\n        /* \"NewFraxProtocol/contracts/Oracle/CrossChainOracleSingleAsset.sol\":1650:1669  msg.sender == owner */\n      0xffffffffffffffffffffffffffffffffffffffff\n      and\n      eq\n        /* \"NewFraxProtocol/contracts/Oracle/CrossChainOracleSingleAsset.sol\":1650:1703  msg.sender == owner || msg.sender == timelock_address */\n      dup1\n      tag_150\n      jumpi\n      pop\n        /* \"NewFraxProtocol/contracts/Oracle/CrossChainOracleSingleAsset.sol\":1687:1703  timelock_address */\n      0x02\n      0x00\n      swap1\n      sload\n      swap1\n      0x0100\n      exp\n      swap1\n      div\n      0xffffffffffffffffffffffffffffffffffffffff\n      and\n        /* \"NewFraxProtocol/contracts/Oracle/CrossChainOracleSingleAsset.sol\":1673:1703  msg.sender == timelock_address */\n      0xffffffffffffffffffffffffffffffffffffffff\n      and\n        /* \"NewFraxProtocol/contracts/Oracle/CrossChainOracleSingleAsset.sol\":1673:1683  msg.sender */\n      caller\n        /* \"NewFraxProtocol/contracts/Oracle/CrossChainOracleSingleAsset.sol\":1673:1703  msg.sender == timelock_address */\n      0xffffffffffffffffffffffffffffffffffffffff\n      and\n      eq\n        /* \"NewFraxProtocol/contracts/Oracle/CrossChainOracleSingleAsset.sol\":1650:1703  msg.sender == owner || msg.sender == timelock_address */\n    tag_150:\n        /* \"NewFraxProtocol/contracts/Oracle/CrossChainOracleSingleAsset.sol\":1642:1729  require(msg.sender == owner || msg.sender == timelock_address, \"Not owner or timelock\") */\n      tag_151\n      jumpi\n      mload(0x40)\n      0x08c379a000000000000000000000000000000000000000000000000000000000\n      dup2\n      mstore\n      0x04\n      add\n      tag_152\n      swap1\n      tag_128\n      jump\t// in\n    tag_152:\n      mload(0x40)\n      dup1\n      swap2\n      sub\n      swap1\n      revert\n    tag_151:\n        /* \"NewFraxProtocol/contracts/Oracle/CrossChainOracleSingleAsset.sol\":4046:4067  _new_timelock_address */\n      dup1\n        /* \"NewFraxProtocol/contracts/Oracle/CrossChainOracleSingleAsset.sol\":4027:4043  timelock_address */\n      0x02\n      0x00\n        /* \"NewFraxProtocol/contracts/Oracle/CrossChainOracleSingleAsset.sol\":4027:4067  timelock_address = _new_timelock_address */\n      0x0100\n      exp\n      dup2\n      sload\n      dup2\n      0xffffffffffffffffffffffffffffffffffffffff\n      mul\n      not\n      and\n      swap1\n      dup4\n      0xffffffffffffffffffffffffffffffffffffffff\n      and\n      mul\n      or\n      swap1\n      sstore\n      pop\n        /* \"NewFraxProtocol/contracts/Oracle/CrossChainOracleSingleAsset.sol\":3943:4074  function setTimelock(address _new_timelock_address) external onlyByOwnGov {... */\n      pop\n      jump\t// out\n        /* \"NewFraxProtocol/contracts/Oracle/CrossChainOracleSingleAsset.sol\":1286:1312  address public bot_address */\n    tag_78:\n      0x03\n      0x00\n      swap1\n      sload\n      swap1\n      0x0100\n      exp\n      swap1\n      div\n      0xffffffffffffffffffffffffffffffffffffffff\n      and\n      dup2\n      jump\t// out\n        /* \"NewFraxProtocol/contracts/Oracle/CrossChainOracleSingleAsset.sol\":1249:1280  address public timelock_address */\n    tag_81:\n      0x02\n      0x00\n      swap1\n      sload\n      swap1\n      0x0100\n      exp\n      swap1\n      div\n      0xffffffffffffffffffffffffffffffffffffffff\n      and\n      dup2\n      jump\t// out\n        /* \"NewFraxProtocol/contracts/Oracle/CrossChainOracleSingleAsset.sol\":1395:1427  uint256 public last_updated_time */\n    tag_84:\n      sload(0x06)\n      dup2\n      jump\t// out\n        /* \"NewFraxProtocol/contracts/Oracle/CrossChainOracleSingleAsset.sol\":2661:2962  function latestRoundData() external view returns (... */\n    tag_87:\n        /* \"NewFraxProtocol/contracts/Oracle/CrossChainOracleSingleAsset.sol\":2720:2734  uint80 roundId */\n      0x00\n        /* \"NewFraxProtocol/contracts/Oracle/CrossChainOracleSingleAsset.sol\":2744:2757  int256 answer */\n      dup1\n        /* \"NewFraxProtocol/contracts/Oracle/CrossChainOracleSingleAsset.sol\":2767:2784  uint256 startedAt */\n      0x00\n        /* \"NewFraxProtocol/contracts/Oracle/CrossChainOracleSingleAsset.sol\":2794:2811  uint256 updatedAt */\n      dup1\n        /* \"NewFraxProtocol/contracts/Oracle/CrossChainOracleSingleAsset.sol\":2821:2843  uint80 answeredInRound */\n      0x00\n        /* \"NewFraxProtocol/contracts/Oracle/CrossChainOracleSingleAsset.sol\":2860:2876  int256 price_e18 */\n      dup1\n        /* \"NewFraxProtocol/contracts/Oracle/CrossChainOracleSingleAsset.sol\":2895:2899  1e12 */\n      0xe8d4a51000\n        /* \"NewFraxProtocol/contracts/Oracle/CrossChainOracleSingleAsset.sol\":2886:2891  price */\n      sload(0x05)\n        /* \"NewFraxProtocol/contracts/Oracle/CrossChainOracleSingleAsset.sol\":2879:2899  int256(price) * 1e12 */\n      tag_155\n      swap2\n      swap1\n      tag_156\n      jump\t// in\n    tag_155:\n        /* \"NewFraxProtocol/contracts/Oracle/CrossChainOracleSingleAsset.sol\":2860:2899  int256 price_e18 = int256(price) * 1e12 */\n      swap1\n      pop\n        /* \"NewFraxProtocol/contracts/Oracle/CrossChainOracleSingleAsset.sol\":2917:2918  0 */\n      0x00\n        /* \"NewFraxProtocol/contracts/Oracle/CrossChainOracleSingleAsset.sol\":2920:2929  price_e18 */\n      dup2\n        /* \"NewFraxProtocol/contracts/Oracle/CrossChainOracleSingleAsset.sol\":2931:2932  0 */\n      0x00\n        /* \"NewFraxProtocol/contracts/Oracle/CrossChainOracleSingleAsset.sol\":2934:2951  last_updated_time */\n      sload(0x06)\n        /* \"NewFraxProtocol/contracts/Oracle/CrossChainOracleSingleAsset.sol\":2953:2954  0 */\n      0x00\n        /* \"NewFraxProtocol/contracts/Oracle/CrossChainOracleSingleAsset.sol\":2909:2955  return (0, price_e18, 0, last_updated_time, 0) */\n      swap6\n      pop\n      swap6\n      pop\n      swap6\n      pop\n      swap6\n      pop\n      swap6\n      pop\n      pop\n        /* \"NewFraxProtocol/contracts/Oracle/CrossChainOracleSingleAsset.sol\":2661:2962  function latestRoundData() external view returns (... */\n      swap1\n      swap2\n      swap3\n      swap4\n      swap5\n      jump\t// out\n        /* \"#utility.yul\":7:82   */\n    tag_157:\n        /* \"#utility.yul\":40:46   */\n      0x00\n        /* \"#utility.yul\":73:75   */\n      0x40\n        /* \"#utility.yul\":67:76   */\n      mload\n        /* \"#utility.yul\":57:76   */\n      swap1\n      pop\n        /* \"#utility.yul\":7:82   */\n      swap1\n      jump\t// out\n        /* \"#utility.yul\":88:205   */\n    tag_158:\n        /* \"#utility.yul\":197:198   */\n      0x00\n        /* \"#utility.yul\":194:195   */\n      dup1\n        /* \"#utility.yul\":187:199   */\n      revert\n        /* \"#utility.yul\":211:328   */\n    tag_159:\n        /* \"#utility.yul\":320:321   */\n      0x00\n        /* \"#utility.yul\":317:318   */\n      dup1\n        /* \"#utility.yul\":310:322   */\n      revert\n        /* \"#utility.yul\":334:460   */\n    tag_160:\n        /* \"#utility.yul\":371:378   */\n      0x00\n        /* \"#utility.yul\":411:453   */\n      0xffffffffffffffffffffffffffffffffffffffff\n        /* \"#utility.yul\":404:409   */\n      dup3\n        /* \"#utility.yul\":400:454   */\n      and\n        /* \"#utility.yul\":389:454   */\n      swap1\n      pop\n        /* \"#utility.yul\":334:460   */\n      swap2\n      swap1\n      pop\n      jump\t// out\n        /* \"#utility.yul\":466:562   */\n    tag_161:\n        /* \"#utility.yul\":503:510   */\n      0x00\n        /* \"#utility.yul\":532:556   */\n      tag_211\n        /* \"#utility.yul\":550:555   */\n      dup3\n        /* \"#utility.yul\":532:556   */\n      tag_160\n      jump\t// in\n    tag_211:\n        /* \"#utility.yul\":521:556   */\n      swap1\n      pop\n        /* \"#utility.yul\":466:562   */\n      swap2\n      swap1\n      pop\n      jump\t// out\n        /* \"#utility.yul\":568:690   */\n    tag_162:\n        /* \"#utility.yul\":641:665   */\n      tag_213\n        /* \"#utility.yul\":659:664   */\n      dup2\n        /* \"#utility.yul\":641:665   */\n      tag_161\n      jump\t// in\n    tag_213:\n        /* \"#utility.yul\":634:639   */\n      dup2\n        /* \"#utility.yul\":631:666   */\n      eq\n        /* \"#utility.yul\":621:684   */\n      tag_214\n      jumpi\n        /* \"#utility.yul\":680:681   */\n      0x00\n        /* \"#utility.yul\":677:678   */\n      dup1\n        /* \"#utility.yul\":670:682   */\n      revert\n        /* \"#utility.yul\":621:684   */\n    tag_214:\n        /* \"#utility.yul\":568:690   */\n      pop\n      jump\t// out\n        /* \"#utility.yul\":696:835   */\n    tag_163:\n        /* \"#utility.yul\":742:747   */\n      0x00\n        /* \"#utility.yul\":780:786   */\n      dup2\n        /* \"#utility.yul\":767:787   */\n      calldataload\n        /* \"#utility.yul\":758:787   */\n      swap1\n      pop\n        /* \"#utility.yul\":796:829   */\n      tag_216\n        /* \"#utility.yul\":823:828   */\n      dup2\n        /* \"#utility.yul\":796:829   */\n      tag_162\n      jump\t// in\n    tag_216:\n        /* \"#utility.yul\":696:835   */\n      swap3\n      swap2\n      pop\n      pop\n      jump\t// out\n        /* \"#utility.yul\":841:918   */\n    tag_164:\n        /* \"#utility.yul\":878:885   */\n      0x00\n        /* \"#utility.yul\":907:912   */\n      dup2\n        /* \"#utility.yul\":896:912   */\n      swap1\n      pop\n        /* \"#utility.yul\":841:918   */\n      swap2\n      swap1\n      pop\n      jump\t// out\n        /* \"#utility.yul\":924:1046   */\n    tag_165:\n        /* \"#utility.yul\":997:1021   */\n      tag_219\n        /* \"#utility.yul\":1015:1020   */\n      dup2\n        /* \"#utility.yul\":997:1021   */\n      tag_164\n      jump\t// in\n    tag_219:\n        /* \"#utility.yul\":990:995   */\n      dup2\n        /* \"#utility.yul\":987:1022   */\n      eq\n        /* \"#utility.yul\":977:1040   */\n      tag_220\n      jumpi\n        /* \"#utility.yul\":1036:1037   */\n      0x00\n        /* \"#utility.yul\":1033:1034   */\n      dup1\n        /* \"#utility.yul\":1026:1038   */\n      revert\n        /* \"#utility.yul\":977:1040   */\n    tag_220:\n        /* \"#utility.yul\":924:1046   */\n      pop\n      jump\t// out\n        /* \"#utility.yul\":1052:1191   */\n    tag_166:\n        /* \"#utility.yul\":1098:1103   */\n      0x00\n        /* \"#utility.yul\":1136:1142   */\n      dup2\n        /* \"#utility.yul\":1123:1143   */\n      calldataload\n        /* \"#utility.yul\":1114:1143   */\n      swap1\n      pop\n        /* \"#utility.yul\":1152:1185   */\n      tag_222\n        /* \"#utility.yul\":1179:1184   */\n      dup2\n        /* \"#utility.yul\":1152:1185   */\n      tag_165\n      jump\t// in\n    tag_222:\n        /* \"#utility.yul\":1052:1191   */\n      swap3\n      swap2\n      pop\n      pop\n      jump\t// out\n        /* \"#utility.yul\":1197:1671   */\n    tag_27:\n        /* \"#utility.yul\":1265:1271   */\n      0x00\n        /* \"#utility.yul\":1273:1279   */\n      dup1\n        /* \"#utility.yul\":1322:1324   */\n      0x40\n        /* \"#utility.yul\":1310:1319   */\n      dup4\n        /* \"#utility.yul\":1301:1308   */\n      dup6\n        /* \"#utility.yul\":1297:1320   */\n      sub\n        /* \"#utility.yul\":1293:1325   */\n      slt\n        /* \"#utility.yul\":1290:1409   */\n      iszero\n      tag_224\n      jumpi\n        /* \"#utility.yul\":1328:1407   */\n      tag_225\n      tag_158\n      jump\t// in\n    tag_225:\n        /* \"#utility.yul\":1290:1409   */\n    tag_224:\n        /* \"#utility.yul\":1448:1449   */\n      0x00\n        /* \"#utility.yul\":1473:1526   */\n      tag_226\n        /* \"#utility.yul\":1518:1525   */\n      dup6\n        /* \"#utility.yul\":1509:1515   */\n      dup3\n        /* \"#utility.yul\":1498:1507   */\n      dup7\n        /* \"#utility.yul\":1494:1516   */\n      add\n        /* \"#utility.yul\":1473:1526   */\n      tag_163\n      jump\t// in\n    tag_226:\n        /* \"#utility.yul\":1463:1526   */\n      swap3\n      pop\n        /* \"#utility.yul\":1419:1536   */\n      pop\n        /* \"#utility.yul\":1575:1577   */\n      0x20\n        /* \"#utility.yul\":1601:1654   */\n      tag_227\n        /* \"#utility.yul\":1646:1653   */\n      dup6\n        /* \"#utility.yul\":1637:1643   */\n      dup3\n        /* \"#utility.yul\":1626:1635   */\n      dup7\n        /* \"#utility.yul\":1622:1644   */\n      add\n        /* \"#utility.yul\":1601:1654   */\n      tag_166\n      jump\t// in\n    tag_227:\n        /* \"#utility.yul\":1591:1654   */\n      swap2\n      pop\n        /* \"#utility.yul\":1546:1664   */\n      pop\n        /* \"#utility.yul\":1197:1671   */\n      swap3\n      pop\n      swap3\n      swap1\n      pop\n      jump\t// out\n        /* \"#utility.yul\":1677:1794   */\n    tag_167:\n        /* \"#utility.yul\":1786:1787   */\n      0x00\n        /* \"#utility.yul\":1783:1784   */\n      dup1\n        /* \"#utility.yul\":1776:1788   */\n      revert\n        /* \"#utility.yul\":1800:1902   */\n    tag_168:\n        /* \"#utility.yul\":1841:1847   */\n      0x00\n        /* \"#utility.yul\":1892:1894   */\n      0x1f\n        /* \"#utility.yul\":1888:1895   */\n      not\n        /* \"#utility.yul\":1883:1885   */\n      0x1f\n        /* \"#utility.yul\":1876:1881   */\n      dup4\n        /* \"#utility.yul\":1872:1886   */\n      add\n        /* \"#utility.yul\":1868:1896   */\n      and\n        /* \"#utility.yul\":1858:1896   */\n      swap1\n      pop\n        /* \"#utility.yul\":1800:1902   */\n      swap2\n      swap1\n      pop\n      jump\t// out\n        /* \"#utility.yul\":1908:2088   */\n    tag_169:\n        /* \"#utility.yul\":1956:2033   */\n      0x4e487b7100000000000000000000000000000000000000000000000000000000\n        /* \"#utility.yul\":1953:1954   */\n      0x00\n        /* \"#utility.yul\":1946:2034   */\n      mstore\n        /* \"#utility.yul\":2053:2057   */\n      0x41\n        /* \"#utility.yul\":2050:2051   */\n      0x04\n        /* \"#utility.yul\":2043:2058   */\n      mstore\n        /* \"#utility.yul\":2077:2081   */\n      0x24\n        /* \"#utility.yul\":2074:2075   */\n      0x00\n        /* \"#utility.yul\":2067:2082   */\n      revert\n        /* \"#utility.yul\":2094:2375   */\n    tag_170:\n        /* \"#utility.yul\":2177:2204   */\n      tag_232\n        /* \"#utility.yul\":2199:2203   */\n      dup3\n        /* \"#utility.yul\":2177:2204   */\n      tag_168\n      jump\t// in\n    tag_232:\n        /* \"#utility.yul\":2169:2175   */\n      dup2\n        /* \"#utility.yul\":2165:2205   */\n      add\n        /* \"#utility.yul\":2307:2313   */\n      dup2\n        /* \"#utility.yul\":2295:2305   */\n      dup2\n        /* \"#utility.yul\":2292:2314   */\n      lt\n        /* \"#utility.yul\":2271:2289   */\n      0xffffffffffffffff\n        /* \"#utility.yul\":2259:2269   */\n      dup3\n        /* \"#utility.yul\":2256:2290   */\n      gt\n        /* \"#utility.yul\":2253:2315   */\n      or\n        /* \"#utility.yul\":2250:2338   */\n      iszero\n      tag_233\n      jumpi\n        /* \"#utility.yul\":2318:2336   */\n      tag_234\n      tag_169\n      jump\t// in\n    tag_234:\n        /* \"#utility.yul\":2250:2338   */\n    tag_233:\n        /* \"#utility.yul\":2358:2368   */\n      dup1\n        /* \"#utility.yul\":2354:2356   */\n      0x40\n        /* \"#utility.yul\":2347:2369   */\n      mstore\n        /* \"#utility.yul\":2137:2375   */\n      pop\n        /* \"#utility.yul\":2094:2375   */\n      pop\n      pop\n      jump\t// out\n        /* \"#utility.yul\":2381:2510   */\n    tag_171:\n        /* \"#utility.yul\":2415:2421   */\n      0x00\n        /* \"#utility.yul\":2442:2462   */\n      tag_236\n      tag_157\n      jump\t// in\n    tag_236:\n        /* \"#utility.yul\":2432:2462   */\n      swap1\n      pop\n        /* \"#utility.yul\":2471:2504   */\n      tag_237\n        /* \"#utility.yul\":2499:2503   */\n      dup3\n        /* \"#utility.yul\":2491:2497   */\n      dup3\n        /* \"#utility.yul\":2471:2504   */\n      tag_170\n      jump\t// in\n    tag_237:\n        /* \"#utility.yul\":2381:2510   */\n      swap2\n      swap1\n      pop\n      jump\t// out\n        /* \"#utility.yul\":2516:2827   */\n    tag_172:\n        /* \"#utility.yul\":2593:2597   */\n      0x00\n        /* \"#utility.yul\":2683:2701   */\n      0xffffffffffffffff\n        /* \"#utility.yul\":2675:2681   */\n      dup3\n        /* \"#utility.yul\":2672:2702   */\n      gt\n        /* \"#utility.yul\":2669:2725   */\n      iszero\n      tag_239\n      jumpi\n        /* \"#utility.yul\":2705:2723   */\n      tag_240\n      tag_169\n      jump\t// in\n    tag_240:\n        /* \"#utility.yul\":2669:2725   */\n    tag_239:\n        /* \"#utility.yul\":2755:2759   */\n      0x20\n        /* \"#utility.yul\":2747:2753   */\n      dup3\n        /* \"#utility.yul\":2743:2760   */\n      mul\n        /* \"#utility.yul\":2735:2760   */\n      swap1\n      pop\n        /* \"#utility.yul\":2815:2819   */\n      0x20\n        /* \"#utility.yul\":2809:2813   */\n      dup2\n        /* \"#utility.yul\":2805:2820   */\n      add\n        /* \"#utility.yul\":2797:2820   */\n      swap1\n      pop\n        /* \"#utility.yul\":2516:2827   */\n      swap2\n      swap1\n      pop\n      jump\t// out\n        /* \"#utility.yul\":2833:2950   */\n    tag_173:\n        /* \"#utility.yul\":2942:2943   */\n      0x00\n        /* \"#utility.yul\":2939:2940   */\n      dup1\n        /* \"#utility.yul\":2932:2944   */\n      revert\n        /* \"#utility.yul\":2973:3683   */\n    tag_174:\n        /* \"#utility.yul\":3069:3074   */\n      0x00\n        /* \"#utility.yul\":3094:3175   */\n      tag_243\n        /* \"#utility.yul\":3110:3174   */\n      tag_244\n        /* \"#utility.yul\":3167:3173   */\n      dup5\n        /* \"#utility.yul\":3110:3174   */\n      tag_172\n      jump\t// in\n    tag_244:\n        /* \"#utility.yul\":3094:3175   */\n      tag_171\n      jump\t// in\n    tag_243:\n        /* \"#utility.yul\":3085:3175   */\n      swap1\n      pop\n        /* \"#utility.yul\":3195:3200   */\n      dup1\n        /* \"#utility.yul\":3224:3230   */\n      dup4\n        /* \"#utility.yul\":3217:3222   */\n      dup3\n        /* \"#utility.yul\":3210:3231   */\n      mstore\n        /* \"#utility.yul\":3258:3262   */\n      0x20\n        /* \"#utility.yul\":3251:3256   */\n      dup3\n        /* \"#utility.yul\":3247:3263   */\n      add\n        /* \"#utility.yul\":3240:3263   */\n      swap1\n      pop\n        /* \"#utility.yul\":3311:3315   */\n      0x20\n        /* \"#utility.yul\":3303:3309   */\n      dup5\n        /* \"#utility.yul\":3299:3316   */\n      mul\n        /* \"#utility.yul\":3291:3297   */\n      dup4\n        /* \"#utility.yul\":3287:3317   */\n      add\n        /* \"#utility.yul\":3340:3343   */\n      dup6\n        /* \"#utility.yul\":3332:3338   */\n      dup2\n        /* \"#utility.yul\":3329:3344   */\n      gt\n        /* \"#utility.yul\":3326:3448   */\n      iszero\n      tag_245\n      jumpi\n        /* \"#utility.yul\":3359:3438   */\n      tag_246\n      tag_173\n      jump\t// in\n    tag_246:\n        /* \"#utility.yul\":3326:3448   */\n    tag_245:\n        /* \"#utility.yul\":3474:3480   */\n      dup4\n        /* \"#utility.yul\":3457:3677   */\n    tag_247:\n        /* \"#utility.yul\":3491:3497   */\n      dup2\n        /* \"#utility.yul\":3486:3489   */\n      dup2\n        /* \"#utility.yul\":3483:3498   */\n      lt\n        /* \"#utility.yul\":3457:3677   */\n      iszero\n      tag_249\n      jumpi\n        /* \"#utility.yul\":3566:3569   */\n      dup1\n        /* \"#utility.yul\":3595:3632   */\n      tag_250\n        /* \"#utility.yul\":3628:3631   */\n      dup9\n        /* \"#utility.yul\":3616:3626   */\n      dup3\n        /* \"#utility.yul\":3595:3632   */\n      tag_163\n      jump\t// in\n    tag_250:\n        /* \"#utility.yul\":3590:3593   */\n      dup5\n        /* \"#utility.yul\":3583:3633   */\n      mstore\n        /* \"#utility.yul\":3662:3666   */\n      0x20\n        /* \"#utility.yul\":3657:3660   */\n      dup5\n        /* \"#utility.yul\":3653:3667   */\n      add\n        /* \"#utility.yul\":3646:3667   */\n      swap4\n      pop\n        /* \"#utility.yul\":3533:3677   */\n      pop\n        /* \"#utility.yul\":3517:3521   */\n      0x20\n        /* \"#utility.yul\":3512:3515   */\n      dup2\n        /* \"#utility.yul\":3508:3522   */\n      add\n        /* \"#utility.yul\":3501:3522   */\n      swap1\n      pop\n        /* \"#utility.yul\":3457:3677   */\n      jump(tag_247)\n    tag_249:\n        /* \"#utility.yul\":3461:3482   */\n      pop\n        /* \"#utility.yul\":3075:3683   */\n      pop\n      pop\n        /* \"#utility.yul\":2973:3683   */\n      swap4\n      swap3\n      pop\n      pop\n      pop\n      jump\t// out\n        /* \"#utility.yul\":3706:4076   */\n    tag_175:\n        /* \"#utility.yul\":3777:3782   */\n      0x00\n        /* \"#utility.yul\":3826:3829   */\n      dup3\n        /* \"#utility.yul\":3819:3823   */\n      0x1f\n        /* \"#utility.yul\":3811:3817   */\n      dup4\n        /* \"#utility.yul\":3807:3824   */\n      add\n        /* \"#utility.yul\":3803:3830   */\n      slt\n        /* \"#utility.yul\":3793:3915   */\n      tag_252\n      jumpi\n        /* \"#utility.yul\":3834:3913   */\n      tag_253\n      tag_167\n      jump\t// in\n    tag_253:\n        /* \"#utility.yul\":3793:3915   */\n    tag_252:\n        /* \"#utility.yul\":3951:3957   */\n      dup2\n        /* \"#utility.yul\":3938:3958   */\n      calldataload\n        /* \"#utility.yul\":3976:4070   */\n      tag_254\n        /* \"#utility.yul\":4066:4069   */\n      dup5\n        /* \"#utility.yul\":4058:4064   */\n      dup3\n        /* \"#utility.yul\":4051:4055   */\n      0x20\n        /* \"#utility.yul\":4043:4049   */\n      dup7\n        /* \"#utility.yul\":4039:4056   */\n      add\n        /* \"#utility.yul\":3976:4070   */\n      tag_174\n      jump\t// in\n    tag_254:\n        /* \"#utility.yul\":3967:4070   */\n      swap2\n      pop\n        /* \"#utility.yul\":3783:4076   */\n      pop\n        /* \"#utility.yul\":3706:4076   */\n      swap3\n      swap2\n      pop\n      pop\n      jump\t// out\n        /* \"#utility.yul\":4082:4393   */\n    tag_176:\n        /* \"#utility.yul\":4159:4163   */\n      0x00\n        /* \"#utility.yul\":4249:4267   */\n      0xffffffffffffffff\n        /* \"#utility.yul\":4241:4247   */\n      dup3\n        /* \"#utility.yul\":4238:4268   */\n      gt\n        /* \"#utility.yul\":4235:4291   */\n      iszero\n      tag_256\n      jumpi\n        /* \"#utility.yul\":4271:4289   */\n      tag_257\n      tag_169\n      jump\t// in\n    tag_257:\n        /* \"#utility.yul\":4235:4291   */\n    tag_256:\n        /* \"#utility.yul\":4321:4325   */\n      0x20\n        /* \"#utility.yul\":4313:4319   */\n      dup3\n        /* \"#utility.yul\":4309:4326   */\n      mul\n        /* \"#utility.yul\":4301:4326   */\n      swap1\n      pop\n        /* \"#utility.yul\":4381:4385   */\n      0x20\n        /* \"#utility.yul\":4375:4379   */\n      dup2\n        /* \"#utility.yul\":4371:4386   */\n      add\n        /* \"#utility.yul\":4363:4386   */\n      swap1\n      pop\n        /* \"#utility.yul\":4082:4393   */\n      swap2\n      swap1\n      pop\n      jump\t// out\n        /* \"#utility.yul\":4416:5126   */\n    tag_177:\n        /* \"#utility.yul\":4512:4517   */\n      0x00\n        /* \"#utility.yul\":4537:4618   */\n      tag_259\n        /* \"#utility.yul\":4553:4617   */\n      tag_260\n        /* \"#utility.yul\":4610:4616   */\n      dup5\n        /* \"#utility.yul\":4553:4617   */\n      tag_176\n      jump\t// in\n    tag_260:\n        /* \"#utility.yul\":4537:4618   */\n      tag_171\n      jump\t// in\n    tag_259:\n        /* \"#utility.yul\":4528:4618   */\n      swap1\n      pop\n        /* \"#utility.yul\":4638:4643   */\n      dup1\n        /* \"#utility.yul\":4667:4673   */\n      dup4\n        /* \"#utility.yul\":4660:4665   */\n      dup3\n        /* \"#utility.yul\":4653:4674   */\n      mstore\n        /* \"#utility.yul\":4701:4705   */\n      0x20\n        /* \"#utility.yul\":4694:4699   */\n      dup3\n        /* \"#utility.yul\":4690:4706   */\n      add\n        /* \"#utility.yul\":4683:4706   */\n      swap1\n      pop\n        /* \"#utility.yul\":4754:4758   */\n      0x20\n        /* \"#utility.yul\":4746:4752   */\n      dup5\n        /* \"#utility.yul\":4742:4759   */\n      mul\n        /* \"#utility.yul\":4734:4740   */\n      dup4\n        /* \"#utility.yul\":4730:4760   */\n      add\n        /* \"#utility.yul\":4783:4786   */\n      dup6\n        /* \"#utility.yul\":4775:4781   */\n      dup2\n        /* \"#utility.yul\":4772:4787   */\n      gt\n        /* \"#utility.yul\":4769:4891   */\n      iszero\n      tag_261\n      jumpi\n        /* \"#utility.yul\":4802:4881   */\n      tag_262\n      tag_173\n      jump\t// in\n    tag_262:\n        /* \"#utility.yul\":4769:4891   */\n    tag_261:\n        /* \"#utility.yul\":4917:4923   */\n      dup4\n        /* \"#utility.yul\":4900:5120   */\n    tag_263:\n        /* \"#utility.yul\":4934:4940   */\n      dup2\n        /* \"#utility.yul\":4929:4932   */\n      dup2\n        /* \"#utility.yul\":4926:4941   */\n      lt\n        /* \"#utility.yul\":4900:5120   */\n      iszero\n      tag_265\n      jumpi\n        /* \"#utility.yul\":5009:5012   */\n      dup1\n        /* \"#utility.yul\":5038:5075   */\n      tag_266\n        /* \"#utility.yul\":5071:5074   */\n      dup9\n        /* \"#utility.yul\":5059:5069   */\n      dup3\n        /* \"#utility.yul\":5038:5075   */\n      tag_166\n      jump\t// in\n    tag_266:\n        /* \"#utility.yul\":5033:5036   */\n      dup5\n        /* \"#utility.yul\":5026:5076   */\n      mstore\n        /* \"#utility.yul\":5105:5109   */\n      0x20\n        /* \"#utility.yul\":5100:5103   */\n      dup5\n        /* \"#utility.yul\":5096:5110   */\n      add\n        /* \"#utility.yul\":5089:5110   */\n      swap4\n      pop\n        /* \"#utility.yul\":4976:5120   */\n      pop\n        /* \"#utility.yul\":4960:4964   */\n      0x20\n        /* \"#utility.yul\":4955:4958   */\n      dup2\n        /* \"#utility.yul\":4951:4965   */\n      add\n        /* \"#utility.yul\":4944:4965   */\n      swap1\n      pop\n        /* \"#utility.yul\":4900:5120   */\n      jump(tag_263)\n    tag_265:\n        /* \"#utility.yul\":4904:4925   */\n      pop\n        /* \"#utility.yul\":4518:5126   */\n      pop\n      pop\n        /* \"#utility.yul\":4416:5126   */\n      swap4\n      swap3\n      pop\n      pop\n      pop\n      jump\t// out\n        /* \"#utility.yul\":5149:5519   */\n    tag_178:\n        /* \"#utility.yul\":5220:5225   */\n      0x00\n        /* \"#utility.yul\":5269:5272   */\n      dup3\n        /* \"#utility.yul\":5262:5266   */\n      0x1f\n        /* \"#utility.yul\":5254:5260   */\n      dup4\n        /* \"#utility.yul\":5250:5267   */\n      add\n        /* \"#utility.yul\":5246:5273   */\n      slt\n        /* \"#utility.yul\":5236:5358   */\n      tag_268\n      jumpi\n        /* \"#utility.yul\":5277:5356   */\n      tag_269\n      tag_167\n      jump\t// in\n    tag_269:\n        /* \"#utility.yul\":5236:5358   */\n    tag_268:\n        /* \"#utility.yul\":5394:5400   */\n      dup2\n        /* \"#utility.yul\":5381:5401   */\n      calldataload\n        /* \"#utility.yul\":5419:5513   */\n      tag_270\n        /* \"#utility.yul\":5509:5512   */\n      dup5\n        /* \"#utility.yul\":5501:5507   */\n      dup3\n        /* \"#utility.yul\":5494:5498   */\n      0x20\n        /* \"#utility.yul\":5486:5492   */\n      dup7\n        /* \"#utility.yul\":5482:5499   */\n      add\n        /* \"#utility.yul\":5419:5513   */\n      tag_177\n      jump\t// in\n    tag_270:\n        /* \"#utility.yul\":5410:5513   */\n      swap2\n      pop\n        /* \"#utility.yul\":5226:5519   */\n      pop\n        /* \"#utility.yul\":5149:5519   */\n      swap3\n      swap2\n      pop\n      pop\n      jump\t// out\n        /* \"#utility.yul\":5525:6419   */\n    tag_31:\n        /* \"#utility.yul\":5643:5649   */\n      0x00\n        /* \"#utility.yul\":5651:5657   */\n      dup1\n        /* \"#utility.yul\":5700:5702   */\n      0x40\n        /* \"#utility.yul\":5688:5697   */\n      dup4\n        /* \"#utility.yul\":5679:5686   */\n      dup6\n        /* \"#utility.yul\":5675:5698   */\n      sub\n        /* \"#utility.yul\":5671:5703   */\n      slt\n        /* \"#utility.yul\":5668:5787   */\n      iszero\n      tag_272\n      jumpi\n        /* \"#utility.yul\":5706:5785   */\n      tag_273\n      tag_158\n      jump\t// in\n    tag_273:\n        /* \"#utility.yul\":5668:5787   */\n    tag_272:\n        /* \"#utility.yul\":5854:5855   */\n      0x00\n        /* \"#utility.yul\":5843:5852   */\n      dup4\n        /* \"#utility.yul\":5839:5856   */\n      add\n        /* \"#utility.yul\":5826:5857   */\n      calldataload\n        /* \"#utility.yul\":5884:5902   */\n      0xffffffffffffffff\n        /* \"#utility.yul\":5876:5882   */\n      dup2\n        /* \"#utility.yul\":5873:5903   */\n      gt\n        /* \"#utility.yul\":5870:5987   */\n      iszero\n      tag_274\n      jumpi\n        /* \"#utility.yul\":5906:5985   */\n      tag_275\n      tag_159\n      jump\t// in\n    tag_275:\n        /* \"#utility.yul\":5870:5987   */\n    tag_274:\n        /* \"#utility.yul\":6011:6089   */\n      tag_276\n        /* \"#utility.yul\":6081:6088   */\n      dup6\n        /* \"#utility.yul\":6072:6078   */\n      dup3\n        /* \"#utility.yul\":6061:6070   */\n      dup7\n        /* \"#utility.yul\":6057:6079   */\n      add\n        /* \"#utility.yul\":6011:6089   */\n      tag_175\n      jump\t// in\n    tag_276:\n        /* \"#utility.yul\":6001:6089   */\n      swap3\n      pop\n        /* \"#utility.yul\":5797:6099   */\n      pop\n        /* \"#utility.yul\":6166:6168   */\n      0x20\n        /* \"#utility.yul\":6155:6164   */\n      dup4\n        /* \"#utility.yul\":6151:6169   */\n      add\n        /* \"#utility.yul\":6138:6170   */\n      calldataload\n        /* \"#utility.yul\":6197:6215   */\n      0xffffffffffffffff\n        /* \"#utility.yul\":6189:6195   */\n      dup2\n        /* \"#utility.yul\":6186:6216   */\n      gt\n        /* \"#utility.yul\":6183:6300   */\n      iszero\n      tag_277\n      jumpi\n        /* \"#utility.yul\":6219:6298   */\n      tag_278\n      tag_159\n      jump\t// in\n    tag_278:\n        /* \"#utility.yul\":6183:6300   */\n    tag_277:\n        /* \"#utility.yul\":6324:6402   */\n      tag_279\n        /* \"#utility.yul\":6394:6401   */\n      dup6\n        /* \"#utility.yul\":6385:6391   */\n      dup3\n        /* \"#utility.yul\":6374:6383   */\n      dup7\n        /* \"#utility.yul\":6370:6392   */\n      add\n        /* \"#utility.yul\":6324:6402   */\n      tag_178\n      jump\t// in\n    tag_279:\n        /* \"#utility.yul\":6314:6402   */\n      swap2\n      pop\n        /* \"#utility.yul\":6109:6412   */\n      pop\n        /* \"#utility.yul\":5525:6419   */\n      swap3\n      pop\n      swap3\n      swap1\n      pop\n      jump\t// out\n        /* \"#utility.yul\":6425:6543   */\n    tag_179:\n        /* \"#utility.yul\":6512:6536   */\n      tag_281\n        /* \"#utility.yul\":6530:6535   */\n      dup2\n        /* \"#utility.yul\":6512:6536   */\n      tag_161\n      jump\t// in\n    tag_281:\n        /* \"#utility.yul\":6507:6510   */\n      dup3\n        /* \"#utility.yul\":6500:6537   */\n      mstore\n        /* \"#utility.yul\":6425:6543   */\n      pop\n      pop\n      jump\t// out\n        /* \"#utility.yul\":6549:6771   */\n    tag_36:\n        /* \"#utility.yul\":6642:6646   */\n      0x00\n        /* \"#utility.yul\":6680:6682   */\n      0x20\n        /* \"#utility.yul\":6669:6678   */\n      dup3\n        /* \"#utility.yul\":6665:6683   */\n      add\n        /* \"#utility.yul\":6657:6683   */\n      swap1\n      pop\n        /* \"#utility.yul\":6693:6764   */\n      tag_283\n        /* \"#utility.yul\":6761:6762   */\n      0x00\n        /* \"#utility.yul\":6750:6759   */\n      dup4\n        /* \"#utility.yul\":6746:6763   */\n      add\n        /* \"#utility.yul\":6737:6743   */\n      dup5\n        /* \"#utility.yul\":6693:6764   */\n      tag_179\n      jump\t// in\n    tag_283:\n        /* \"#utility.yul\":6549:6771   */\n      swap3\n      swap2\n      pop\n      pop\n      jump\t// out\n        /* \"#utility.yul\":6777:7106   */\n    tag_39:\n        /* \"#utility.yul\":6836:6842   */\n      0x00\n        /* \"#utility.yul\":6885:6887   */\n      0x20\n        /* \"#utility.yul\":6873:6882   */\n      dup3\n        /* \"#utility.yul\":6864:6871   */\n      dup5\n        /* \"#utility.yul\":6860:6883   */\n      sub\n        /* \"#utility.yul\":6856:6888   */\n      slt\n        /* \"#utility.yul\":6853:6972   */\n      iszero\n      tag_285\n      jumpi\n        /* \"#utility.yul\":6891:6970   */\n      tag_286\n      tag_158\n      jump\t// in\n    tag_286:\n        /* \"#utility.yul\":6853:6972   */\n    tag_285:\n        /* \"#utility.yul\":7011:7012   */\n      0x00\n        /* \"#utility.yul\":7036:7089   */\n      tag_287\n        /* \"#utility.yul\":7081:7088   */\n      dup5\n        /* \"#utility.yul\":7072:7078   */\n      dup3\n        /* \"#utility.yul\":7061:7070   */\n      dup6\n        /* \"#utility.yul\":7057:7079   */\n      add\n        /* \"#utility.yul\":7036:7089   */\n      tag_163\n      jump\t// in\n    tag_287:\n        /* \"#utility.yul\":7026:7089   */\n      swap2\n      pop\n        /* \"#utility.yul\":6982:7099   */\n      pop\n        /* \"#utility.yul\":6777:7106   */\n      swap3\n      swap2\n      pop\n      pop\n      jump\t// out\n        /* \"#utility.yul\":7112:7198   */\n    tag_180:\n        /* \"#utility.yul\":7147:7154   */\n      0x00\n        /* \"#utility.yul\":7187:7191   */\n      0xff\n        /* \"#utility.yul\":7180:7185   */\n      dup3\n        /* \"#utility.yul\":7176:7192   */\n      and\n        /* \"#utility.yul\":7165:7192   */\n      swap1\n      pop\n        /* \"#utility.yul\":7112:7198   */\n      swap2\n      swap1\n      pop\n      jump\t// out\n        /* \"#utility.yul\":7204:7316   */\n    tag_181:\n        /* \"#utility.yul\":7287:7309   */\n      tag_290\n        /* \"#utility.yul\":7303:7308   */\n      dup2\n        /* \"#utility.yul\":7287:7309   */\n      tag_180\n      jump\t// in\n    tag_290:\n        /* \"#utility.yul\":7282:7285   */\n      dup3\n        /* \"#utility.yul\":7275:7310   */\n      mstore\n        /* \"#utility.yul\":7204:7316   */\n      pop\n      pop\n      jump\t// out\n        /* \"#utility.yul\":7322:7536   */\n    tag_44:\n        /* \"#utility.yul\":7411:7415   */\n      0x00\n        /* \"#utility.yul\":7449:7451   */\n      0x20\n        /* \"#utility.yul\":7438:7447   */\n      dup3\n        /* \"#utility.yul\":7434:7452   */\n      add\n        /* \"#utility.yul\":7426:7452   */\n      swap1\n      pop\n        /* \"#utility.yul\":7462:7529   */\n      tag_292\n        /* \"#utility.yul\":7526:7527   */\n      0x00\n        /* \"#utility.yul\":7515:7524   */\n      dup4\n        /* \"#utility.yul\":7511:7528   */\n      add\n        /* \"#utility.yul\":7502:7508   */\n      dup5\n        /* \"#utility.yul\":7462:7529   */\n      tag_181\n      jump\t// in\n    tag_292:\n        /* \"#utility.yul\":7322:7536   */\n      swap3\n      swap2\n      pop\n      pop\n      jump\t// out\n        /* \"#utility.yul\":7542:7660   */\n    tag_182:\n        /* \"#utility.yul\":7629:7653   */\n      tag_294\n        /* \"#utility.yul\":7647:7652   */\n      dup2\n        /* \"#utility.yul\":7629:7653   */\n      tag_164\n      jump\t// in\n    tag_294:\n        /* \"#utility.yul\":7624:7627   */\n      dup3\n        /* \"#utility.yul\":7617:7654   */\n      mstore\n        /* \"#utility.yul\":7542:7660   */\n      pop\n      pop\n      jump\t// out\n        /* \"#utility.yul\":7666:7888   */\n    tag_51:\n        /* \"#utility.yul\":7759:7763   */\n      0x00\n        /* \"#utility.yul\":7797:7799   */\n      0x20\n        /* \"#utility.yul\":7786:7795   */\n      dup3\n        /* \"#utility.yul\":7782:7800   */\n      add\n        /* \"#utility.yul\":7774:7800   */\n      swap1\n      pop\n        /* \"#utility.yul\":7810:7881   */\n      tag_296\n        /* \"#utility.yul\":7878:7879   */\n      0x00\n        /* \"#utility.yul\":7867:7876   */\n      dup4\n        /* \"#utility.yul\":7863:7880   */\n      add\n        /* \"#utility.yul\":7854:7860   */\n      dup5\n        /* \"#utility.yul\":7810:7881   */\n      tag_182\n      jump\t// in\n    tag_296:\n        /* \"#utility.yul\":7666:7888   */\n      swap3\n      swap2\n      pop\n      pop\n      jump\t// out\n        /* \"#utility.yul\":7894:7993   */\n    tag_183:\n        /* \"#utility.yul\":7946:7952   */\n      0x00\n        /* \"#utility.yul\":7980:7985   */\n      dup2\n        /* \"#utility.yul\":7974:7986   */\n      mload\n        /* \"#utility.yul\":7964:7986   */\n      swap1\n      pop\n        /* \"#utility.yul\":7894:7993   */\n      swap2\n      swap1\n      pop\n      jump\t// out\n        /* \"#utility.yul\":7999:8168   */\n    tag_184:\n        /* \"#utility.yul\":8083:8094   */\n      0x00\n        /* \"#utility.yul\":8117:8123   */\n      dup3\n        /* \"#utility.yul\":8112:8115   */\n      dup3\n        /* \"#utility.yul\":8105:8124   */\n      mstore\n        /* \"#utility.yul\":8157:8161   */\n      0x20\n        /* \"#utility.yul\":8152:8155   */\n      dup3\n        /* \"#utility.yul\":8148:8162   */\n      add\n        /* \"#utility.yul\":8133:8162   */\n      swap1\n      pop\n        /* \"#utility.yul\":7999:8168   */\n      swap3\n      swap2\n      pop\n      pop\n      jump\t// out\n        /* \"#utility.yul\":8174:8481   */\n    tag_185:\n        /* \"#utility.yul\":8242:8243   */\n      0x00\n        /* \"#utility.yul\":8252:8365   */\n    tag_300:\n        /* \"#utility.yul\":8266:8272   */\n      dup4\n        /* \"#utility.yul\":8263:8264   */\n      dup2\n        /* \"#utility.yul\":8260:8273   */\n      lt\n        /* \"#utility.yul\":8252:8365   */\n      iszero\n      tag_302\n      jumpi\n        /* \"#utility.yul\":8351:8352   */\n      dup1\n        /* \"#utility.yul\":8346:8349   */\n      dup3\n        /* \"#utility.yul\":8342:8353   */\n      add\n        /* \"#utility.yul\":8336:8354   */\n      mload\n        /* \"#utility.yul\":8332:8333   */\n      dup2\n        /* \"#utility.yul\":8327:8330   */\n      dup5\n        /* \"#utility.yul\":8323:8334   */\n      add\n        /* \"#utility.yul\":8316:8355   */\n      mstore\n        /* \"#utility.yul\":8288:8290   */\n      0x20\n        /* \"#utility.yul\":8285:8286   */\n      dup2\n        /* \"#utility.yul\":8281:8291   */\n      add\n        /* \"#utility.yul\":8276:8291   */\n      swap1\n      pop\n        /* \"#utility.yul\":8252:8365   */\n      jump(tag_300)\n    tag_302:\n        /* \"#utility.yul\":8383:8389   */\n      dup4\n        /* \"#utility.yul\":8380:8381   */\n      dup2\n        /* \"#utility.yul\":8377:8390   */\n      gt\n        /* \"#utility.yul\":8374:8475   */\n      iszero\n      tag_303\n      jumpi\n        /* \"#utility.yul\":8463:8464   */\n      0x00\n        /* \"#utility.yul\":8454:8460   */\n      dup5\n        /* \"#utility.yul\":8449:8452   */\n      dup5\n        /* \"#utility.yul\":8445:8461   */\n      add\n        /* \"#utility.yul\":8438:8465   */\n      mstore\n        /* \"#utility.yul\":8374:8475   */\n    tag_303:\n        /* \"#utility.yul\":8223:8481   */\n      pop\n        /* \"#utility.yul\":8174:8481   */\n      pop\n      pop\n      pop\n      jump\t// out\n        /* \"#utility.yul\":8487:8851   */\n    tag_186:\n        /* \"#utility.yul\":8575:8578   */\n      0x00\n        /* \"#utility.yul\":8603:8642   */\n      tag_305\n        /* \"#utility.yul\":8636:8641   */\n      dup3\n        /* \"#utility.yul\":8603:8642   */\n      tag_183\n      jump\t// in\n    tag_305:\n        /* \"#utility.yul\":8658:8729   */\n      tag_306\n        /* \"#utility.yul\":8722:8728   */\n      dup2\n        /* \"#utility.yul\":8717:8720   */\n      dup6\n        /* \"#utility.yul\":8658:8729   */\n      tag_184\n      jump\t// in\n    tag_306:\n        /* \"#utility.yul\":8651:8729   */\n      swap4\n      pop\n        /* \"#utility.yul\":8738:8790   */\n      tag_307\n        /* \"#utility.yul\":8783:8789   */\n      dup2\n        /* \"#utility.yul\":8778:8781   */\n      dup6\n        /* \"#utility.yul\":8771:8775   */\n      0x20\n        /* \"#utility.yul\":8764:8769   */\n      dup7\n        /* \"#utility.yul\":8760:8776   */\n      add\n        /* \"#utility.yul\":8738:8790   */\n      tag_185\n      jump\t// in\n    tag_307:\n        /* \"#utility.yul\":8815:8844   */\n      tag_308\n        /* \"#utility.yul\":8837:8843   */\n      dup2\n        /* \"#utility.yul\":8815:8844   */\n      tag_168\n      jump\t// in\n    tag_308:\n        /* \"#utility.yul\":8810:8813   */\n      dup5\n        /* \"#utility.yul\":8806:8845   */\n      add\n        /* \"#utility.yul\":8799:8845   */\n      swap2\n      pop\n        /* \"#utility.yul\":8579:8851   */\n      pop\n        /* \"#utility.yul\":8487:8851   */\n      swap3\n      swap2\n      pop\n      pop\n      jump\t// out\n        /* \"#utility.yul\":8857:9170   */\n    tag_58:\n        /* \"#utility.yul\":8970:8974   */\n      0x00\n        /* \"#utility.yul\":9008:9010   */\n      0x20\n        /* \"#utility.yul\":8997:9006   */\n      dup3\n        /* \"#utility.yul\":8993:9011   */\n      add\n        /* \"#utility.yul\":8985:9011   */\n      swap1\n      pop\n        /* \"#utility.yul\":9057:9066   */\n      dup2\n        /* \"#utility.yul\":9051:9055   */\n      dup2\n        /* \"#utility.yul\":9047:9067   */\n      sub\n        /* \"#utility.yul\":9043:9044   */\n      0x00\n        /* \"#utility.yul\":9032:9041   */\n      dup4\n        /* \"#utility.yul\":9028:9045   */\n      add\n        /* \"#utility.yul\":9021:9068   */\n      mstore\n        /* \"#utility.yul\":9085:9163   */\n      tag_310\n        /* \"#utility.yul\":9158:9162   */\n      dup2\n        /* \"#utility.yul\":9149:9155   */\n      dup5\n        /* \"#utility.yul\":9085:9163   */\n      tag_186\n      jump\t// in\n    tag_310:\n        /* \"#utility.yul\":9077:9163   */\n      swap1\n      pop\n        /* \"#utility.yul\":8857:9170   */\n      swap3\n      swap2\n      pop\n      pop\n      jump\t// out\n        /* \"#utility.yul\":9176:9505   */\n    tag_66:\n        /* \"#utility.yul\":9235:9241   */\n      0x00\n        /* \"#utility.yul\":9284:9286   */\n      0x20\n        /* \"#utility.yul\":9272:9281   */\n      dup3\n        /* \"#utility.yul\":9263:9270   */\n      dup5\n        /* \"#utility.yul\":9259:9282   */\n      sub\n        /* \"#utility.yul\":9255:9287   */\n      slt\n        /* \"#utility.yul\":9252:9371   */\n      iszero\n      tag_312\n      jumpi\n        /* \"#utility.yul\":9290:9369   */\n      tag_313\n      tag_158\n      jump\t// in\n    tag_313:\n        /* \"#utility.yul\":9252:9371   */\n    tag_312:\n        /* \"#utility.yul\":9410:9411   */\n      0x00\n        /* \"#utility.yul\":9435:9488   */\n      tag_314\n        /* \"#utility.yul\":9480:9487   */\n      dup5\n        /* \"#utility.yul\":9471:9477   */\n      dup3\n        /* \"#utility.yul\":9460:9469   */\n      dup6\n        /* \"#utility.yul\":9456:9478   */\n      add\n        /* \"#utility.yul\":9435:9488   */\n      tag_166\n      jump\t// in\n    tag_314:\n        /* \"#utility.yul\":9425:9488   */\n      swap2\n      pop\n        /* \"#utility.yul\":9381:9498   */\n      pop\n        /* \"#utility.yul\":9176:9505   */\n      swap3\n      swap2\n      pop\n      pop\n      jump\t// out\n        /* \"#utility.yul\":9511:9616   */\n    tag_187:\n        /* \"#utility.yul\":9547:9554   */\n      0x00\n        /* \"#utility.yul\":9587:9609   */\n      0xffffffffffffffffffff\n        /* \"#utility.yul\":9580:9585   */\n      dup3\n        /* \"#utility.yul\":9576:9610   */\n      and\n        /* \"#utility.yul\":9565:9610   */\n      swap1\n      pop\n        /* \"#utility.yul\":9511:9616   */\n      swap2\n      swap1\n      pop\n      jump\t// out\n        /* \"#utility.yul\":9622:9737   */\n    tag_188:\n        /* \"#utility.yul\":9707:9730   */\n      tag_317\n        /* \"#utility.yul\":9724:9729   */\n      dup2\n        /* \"#utility.yul\":9707:9730   */\n      tag_187\n      jump\t// in\n    tag_317:\n        /* \"#utility.yul\":9702:9705   */\n      dup3\n        /* \"#utility.yul\":9695:9731   */\n      mstore\n        /* \"#utility.yul\":9622:9737   */\n      pop\n      pop\n      jump\t// out\n        /* \"#utility.yul\":9743:9819   */\n    tag_189:\n        /* \"#utility.yul\":9779:9786   */\n      0x00\n        /* \"#utility.yul\":9808:9813   */\n      dup2\n        /* \"#utility.yul\":9797:9813   */\n      swap1\n      pop\n        /* \"#utility.yul\":9743:9819   */\n      swap2\n      swap1\n      pop\n      jump\t// out\n        /* \"#utility.yul\":9825:9940   */\n    tag_190:\n        /* \"#utility.yul\":9910:9933   */\n      tag_320\n        /* \"#utility.yul\":9927:9932   */\n      dup2\n        /* \"#utility.yul\":9910:9933   */\n      tag_189\n      jump\t// in\n    tag_320:\n        /* \"#utility.yul\":9905:9908   */\n      dup3\n        /* \"#utility.yul\":9898:9934   */\n      mstore\n        /* \"#utility.yul\":9825:9940   */\n      pop\n      pop\n      jump\t// out\n        /* \"#utility.yul\":9946:10598   */\n    tag_89:\n        /* \"#utility.yul\":10145:10149   */\n      0x00\n        /* \"#utility.yul\":10183:10186   */\n      0xa0\n        /* \"#utility.yul\":10172:10181   */\n      dup3\n        /* \"#utility.yul\":10168:10187   */\n      add\n        /* \"#utility.yul\":10160:10187   */\n      swap1\n      pop\n        /* \"#utility.yul\":10197:10266   */\n      tag_322\n        /* \"#utility.yul\":10263:10264   */\n      0x00\n        /* \"#utility.yul\":10252:10261   */\n      dup4\n        /* \"#utility.yul\":10248:10265   */\n      add\n        /* \"#utility.yul\":10239:10245   */\n      dup9\n        /* \"#utility.yul\":10197:10266   */\n      tag_188\n      jump\t// in\n    tag_322:\n        /* \"#utility.yul\":10276:10346   */\n      tag_323\n        /* \"#utility.yul\":10342:10344   */\n      0x20\n        /* \"#utility.yul\":10331:10340   */\n      dup4\n        /* \"#utility.yul\":10327:10345   */\n      add\n        /* \"#utility.yul\":10318:10324   */\n      dup8\n        /* \"#utility.yul\":10276:10346   */\n      tag_190\n      jump\t// in\n    tag_323:\n        /* \"#utility.yul\":10356:10428   */\n      tag_324\n        /* \"#utility.yul\":10424:10426   */\n      0x40\n        /* \"#utility.yul\":10413:10422   */\n      dup4\n        /* \"#utility.yul\":10409:10427   */\n      add\n        /* \"#utility.yul\":10400:10406   */\n      dup7\n        /* \"#utility.yul\":10356:10428   */\n      tag_182\n      jump\t// in\n    tag_324:\n        /* \"#utility.yul\":10438:10510   */\n      tag_325\n        /* \"#utility.yul\":10506:10508   */\n      0x60\n        /* \"#utility.yul\":10495:10504   */\n      dup4\n        /* \"#utility.yul\":10491:10509   */\n      add\n        /* \"#utility.yul\":10482:10488   */\n      dup6\n        /* \"#utility.yul\":10438:10510   */\n      tag_182\n      jump\t// in\n    tag_325:\n        /* \"#utility.yul\":10520:10591   */\n      tag_326\n        /* \"#utility.yul\":10586:10589   */\n      0x80\n        /* \"#utility.yul\":10575:10584   */\n      dup4\n        /* \"#utility.yul\":10571:10590   */\n      add\n        /* \"#utility.yul\":10562:10568   */\n      dup5\n        /* \"#utility.yul\":10520:10591   */\n      tag_188\n      jump\t// in\n    tag_326:\n        /* \"#utility.yul\":9946:10598   */\n      swap7\n      swap6\n      pop\n      pop\n      pop\n      pop\n      pop\n      pop\n      jump\t// out\n        /* \"#utility.yul\":10604:10777   */\n    tag_191:\n        /* \"#utility.yul\":10744:10769   */\n      0x4e6f74206f776e65722c20746c636b2c206f7220626f74000000000000000000\n        /* \"#utility.yul\":10740:10741   */\n      0x00\n        /* \"#utility.yul\":10732:10738   */\n      dup3\n        /* \"#utility.yul\":10728:10742   */\n      add\n        /* \"#utility.yul\":10721:10770   */\n      mstore\n        /* \"#utility.yul\":10604:10777   */\n      pop\n      jump\t// out\n        /* \"#utility.yul\":10783:11149   */\n    tag_192:\n        /* \"#utility.yul\":10925:10928   */\n      0x00\n        /* \"#utility.yul\":10946:11013   */\n      tag_329\n        /* \"#utility.yul\":11010:11012   */\n      0x17\n        /* \"#utility.yul\":11005:11008   */\n      dup4\n        /* \"#utility.yul\":10946:11013   */\n      tag_184\n      jump\t// in\n    tag_329:\n        /* \"#utility.yul\":10939:11013   */\n      swap2\n      pop\n        /* \"#utility.yul\":11022:11115   */\n      tag_330\n        /* \"#utility.yul\":11111:11114   */\n      dup3\n        /* \"#utility.yul\":11022:11115   */\n      tag_191\n      jump\t// in\n    tag_330:\n        /* \"#utility.yul\":11140:11142   */\n      0x20\n        /* \"#utility.yul\":11135:11138   */\n      dup3\n        /* \"#utility.yul\":11131:11143   */\n      add\n        /* \"#utility.yul\":11124:11143   */\n      swap1\n      pop\n        /* \"#utility.yul\":10783:11149   */\n      swap2\n      swap1\n      pop\n      jump\t// out\n        /* \"#utility.yul\":11155:11574   */\n    tag_95:\n        /* \"#utility.yul\":11321:11325   */\n      0x00\n        /* \"#utility.yul\":11359:11361   */\n      0x20\n        /* \"#utility.yul\":11348:11357   */\n      dup3\n        /* \"#utility.yul\":11344:11362   */\n      add\n        /* \"#utility.yul\":11336:11362   */\n      swap1\n      pop\n        /* \"#utility.yul\":11408:11417   */\n      dup2\n        /* \"#utility.yul\":11402:11406   */\n      dup2\n        /* \"#utility.yul\":11398:11418   */\n      sub\n        /* \"#utility.yul\":11394:11395   */\n      0x00\n        /* \"#utility.yul\":11383:11392   */\n      dup4\n        /* \"#utility.yul\":11379:11396   */\n      add\n        /* \"#utility.yul\":11372:11419   */\n      mstore\n        /* \"#utility.yul\":11436:11567   */\n      tag_332\n        /* \"#utility.yul\":11562:11566   */\n      dup2\n        /* \"#utility.yul\":11436:11567   */\n      tag_192\n      jump\t// in\n    tag_332:\n        /* \"#utility.yul\":11428:11567   */\n      swap1\n      pop\n        /* \"#utility.yul\":11155:11574   */\n      swap2\n      swap1\n      pop\n      jump\t// out\n        /* \"#utility.yul\":11580:11743   */\n    tag_193:\n        /* \"#utility.yul\":11720:11735   */\n      0x496e76616c696420746f6b656e00000000000000000000000000000000000000\n        /* \"#utility.yul\":11716:11717   */\n      0x00\n        /* \"#utility.yul\":11708:11714   */\n      dup3\n        /* \"#utility.yul\":11704:11718   */\n      add\n        /* \"#utility.yul\":11697:11736   */\n      mstore\n        /* \"#utility.yul\":11580:11743   */\n      pop\n      jump\t// out\n        /* \"#utility.yul\":11749:12115   */\n    tag_194:\n        /* \"#utility.yul\":11891:11894   */\n      0x00\n        /* \"#utility.yul\":11912:11979   */\n      tag_335\n        /* \"#utility.yul\":11976:11978   */\n      0x0d\n        /* \"#utility.yul\":11971:11974   */\n      dup4\n        /* \"#utility.yul\":11912:11979   */\n      tag_184\n      jump\t// in\n    tag_335:\n        /* \"#utility.yul\":11905:11979   */\n      swap2\n      pop\n        /* \"#utility.yul\":11988:12081   */\n      tag_336\n        /* \"#utility.yul\":12077:12080   */\n      dup3\n        /* \"#utility.yul\":11988:12081   */\n      tag_193\n      jump\t// in\n    tag_336:\n        /* \"#utility.yul\":12106:12108   */\n      0x20\n        /* \"#utility.yul\":12101:12104   */\n      dup3\n        /* \"#utility.yul\":12097:12109   */\n      add\n        /* \"#utility.yul\":12090:12109   */\n      swap1\n      pop\n        /* \"#utility.yul\":11749:12115   */\n      swap2\n      swap1\n      pop\n      jump\t// out\n        /* \"#utility.yul\":12121:12540   */\n    tag_99:\n        /* \"#utility.yul\":12287:12291   */\n      0x00\n        /* \"#utility.yul\":12325:12327   */\n      0x20\n        /* \"#utility.yul\":12314:12323   */\n      dup3\n        /* \"#utility.yul\":12310:12328   */\n      add\n        /* \"#utility.yul\":12302:12328   */\n      swap1\n      pop\n        /* \"#utility.yul\":12374:12383   */\n      dup2\n        /* \"#utility.yul\":12368:12372   */\n      dup2\n        /* \"#utility.yul\":12364:12384   */\n      sub\n        /* \"#utility.yul\":12360:12361   */\n      0x00\n        /* \"#utility.yul\":12349:12358   */\n      dup4\n        /* \"#utility.yul\":12345:12362   */\n      add\n        /* \"#utility.yul\":12338:12385   */\n      mstore\n        /* \"#utility.yul\":12402:12533   */\n      tag_338\n        /* \"#utility.yul\":12528:12532   */\n      dup2\n        /* \"#utility.yul\":12402:12533   */\n      tag_194\n      jump\t// in\n    tag_338:\n        /* \"#utility.yul\":12394:12533   */\n      swap1\n      pop\n        /* \"#utility.yul\":12121:12540   */\n      swap2\n      swap1\n      pop\n      jump\t// out\n        /* \"#utility.yul\":12546:12708   */\n    tag_195:\n        /* \"#utility.yul\":12686:12700   */\n      0x3120746f6b656e206f6e6c790000000000000000000000000000000000000000\n        /* \"#utility.yul\":12682:12683   */\n      0x00\n        /* \"#utility.yul\":12674:12680   */\n      dup3\n        /* \"#utility.yul\":12670:12684   */\n      add\n        /* \"#utility.yul\":12663:12701   */\n      mstore\n        /* \"#utility.yul\":12546:12708   */\n      pop\n      jump\t// out\n        /* \"#utility.yul\":12714:13080   */\n    tag_196:\n        /* \"#utility.yul\":12856:12859   */\n      0x00\n        /* \"#utility.yul\":12877:12944   */\n      tag_341\n        /* \"#utility.yul\":12941:12943   */\n      0x0c\n        /* \"#utility.yul\":12936:12939   */\n      dup4\n        /* \"#utility.yul\":12877:12944   */\n      tag_184\n      jump\t// in\n    tag_341:\n        /* \"#utility.yul\":12870:12944   */\n      swap2\n      pop\n        /* \"#utility.yul\":12953:13046   */\n      tag_342\n        /* \"#utility.yul\":13042:13045   */\n      dup3\n        /* \"#utility.yul\":12953:13046   */\n      tag_195\n      jump\t// in\n    tag_342:\n        /* \"#utility.yul\":13071:13073   */\n      0x20\n        /* \"#utility.yul\":13066:13069   */\n      dup3\n        /* \"#utility.yul\":13062:13074   */\n      add\n        /* \"#utility.yul\":13055:13074   */\n      swap1\n      pop\n        /* \"#utility.yul\":12714:13080   */\n      swap2\n      swap1\n      pop\n      jump\t// out\n        /* \"#utility.yul\":13086:13505   */\n    tag_109:\n        /* \"#utility.yul\":13252:13256   */\n      0x00\n        /* \"#utility.yul\":13290:13292   */\n      0x20\n        /* \"#utility.yul\":13279:13288   */\n      dup3\n        /* \"#utility.yul\":13275:13293   */\n      add\n        /* \"#utility.yul\":13267:13293   */\n      swap1\n      pop\n        /* \"#utility.yul\":13339:13348   */\n      dup2\n        /* \"#utility.yul\":13333:13337   */\n      dup2\n        /* \"#utility.yul\":13329:13349   */\n      sub\n        /* \"#utility.yul\":13325:13326   */\n      0x00\n        /* \"#utility.yul\":13314:13323   */\n      dup4\n        /* \"#utility.yul\":13310:13327   */\n      add\n        /* \"#utility.yul\":13303:13350   */\n      mstore\n        /* \"#utility.yul\":13367:13498   */\n      tag_344\n        /* \"#utility.yul\":13493:13497   */\n      dup2\n        /* \"#utility.yul\":13367:13498   */\n      tag_196\n      jump\t// in\n    tag_344:\n        /* \"#utility.yul\":13359:13498   */\n      swap1\n      pop\n        /* \"#utility.yul\":13086:13505   */\n      swap2\n      swap1\n      pop\n      jump\t// out\n        /* \"#utility.yul\":13511:13691   */\n    tag_112:\n        /* \"#utility.yul\":13559:13636   */\n      0x4e487b7100000000000000000000000000000000000000000000000000000000\n        /* \"#utility.yul\":13556:13557   */\n      0x00\n        /* \"#utility.yul\":13549:13637   */\n      mstore\n        /* \"#utility.yul\":13656:13660   */\n      0x32\n        /* \"#utility.yul\":13653:13654   */\n      0x04\n        /* \"#utility.yul\":13646:13661   */\n      mstore\n        /* \"#utility.yul\":13680:13684   */\n      0x24\n        /* \"#utility.yul\":13677:13678   */\n      0x00\n        /* \"#utility.yul\":13670:13685   */\n      revert\n        /* \"#utility.yul\":13697:13931   */\n    tag_197:\n        /* \"#utility.yul\":13837:13871   */\n      0x4f6e6c792074686520636f6e7472616374206f776e6572206d61792070657266\n        /* \"#utility.yul\":13833:13834   */\n      0x00\n        /* \"#utility.yul\":13825:13831   */\n      dup3\n        /* \"#utility.yul\":13821:13835   */\n      add\n        /* \"#utility.yul\":13814:13872   */\n      mstore\n        /* \"#utility.yul\":13906:13923   */\n      0x6f726d207468697320616374696f6e0000000000000000000000000000000000\n        /* \"#utility.yul\":13901:13903   */\n      0x20\n        /* \"#utility.yul\":13893:13899   */\n      dup3\n        /* \"#utility.yul\":13889:13904   */\n      add\n        /* \"#utility.yul\":13882:13924   */\n      mstore\n        /* \"#utility.yul\":13697:13931   */\n      pop\n      jump\t// out\n        /* \"#utility.yul\":13937:14303   */\n    tag_198:\n        /* \"#utility.yul\":14079:14082   */\n      0x00\n        /* \"#utility.yul\":14100:14167   */\n      tag_348\n        /* \"#utility.yul\":14164:14166   */\n      0x2f\n        /* \"#utility.yul\":14159:14162   */\n      dup4\n        /* \"#utility.yul\":14100:14167   */\n      tag_184\n      jump\t// in\n    tag_348:\n        /* \"#utility.yul\":14093:14167   */\n      swap2\n      pop\n        /* \"#utility.yul\":14176:14269   */\n      tag_349\n        /* \"#utility.yul\":14265:14268   */\n      dup3\n        /* \"#utility.yul\":14176:14269   */\n      tag_197\n      jump\t// in\n    tag_349:\n        /* \"#utility.yul\":14294:14296   */\n      0x40\n        /* \"#utility.yul\":14289:14292   */\n      dup3\n        /* \"#utility.yul\":14285:14297   */\n      add\n        /* \"#utility.yul\":14278:14297   */\n      swap1\n      pop\n        /* \"#utility.yul\":13937:14303   */\n      swap2\n      swap1\n      pop\n      jump\t// out\n        /* \"#utility.yul\":14309:14728   */\n    tag_121:\n        /* \"#utility.yul\":14475:14479   */\n      0x00\n        /* \"#utility.yul\":14513:14515   */\n      0x20\n        /* \"#utility.yul\":14502:14511   */\n      dup3\n        /* \"#utility.yul\":14498:14516   */\n      add\n        /* \"#utility.yul\":14490:14516   */\n      swap1\n      pop\n        /* \"#utility.yul\":14562:14571   */\n      dup2\n        /* \"#utility.yul\":14556:14560   */\n      dup2\n        /* \"#utility.yul\":14552:14572   */\n      sub\n        /* \"#utility.yul\":14548:14549   */\n      0x00\n        /* \"#utility.yul\":14537:14546   */\n      dup4\n        /* \"#utility.yul\":14533:14550   */\n      add\n        /* \"#utility.yul\":14526:14573   */\n      mstore\n        /* \"#utility.yul\":14590:14721   */\n      tag_351\n        /* \"#utility.yul\":14716:14720   */\n      dup2\n        /* \"#utility.yul\":14590:14721   */\n      tag_198\n      jump\t// in\n    tag_351:\n        /* \"#utility.yul\":14582:14721   */\n      swap1\n      pop\n        /* \"#utility.yul\":14309:14728   */\n      swap2\n      swap1\n      pop\n      jump\t// out\n        /* \"#utility.yul\":14734:14905   */\n    tag_199:\n        /* \"#utility.yul\":14874:14897   */\n      0x4e6f74206f776e6572206f722074696d656c6f636b0000000000000000000000\n        /* \"#utility.yul\":14870:14871   */\n      0x00\n        /* \"#utility.yul\":14862:14868   */\n      dup3\n        /* \"#utility.yul\":14858:14872   */\n      add\n        /* \"#utility.yul\":14851:14898   */\n      mstore\n        /* \"#utility.yul\":14734:14905   */\n      pop\n      jump\t// out\n        /* \"#utility.yul\":14911:15277   */\n    tag_200:\n        /* \"#utility.yul\":15053:15056   */\n      0x00\n        /* \"#utility.yul\":15074:15141   */\n      tag_354\n        /* \"#utility.yul\":15138:15140   */\n      0x15\n        /* \"#utility.yul\":15133:15136   */\n      dup4\n        /* \"#utility.yul\":15074:15141   */\n      tag_184\n      jump\t// in\n    tag_354:\n        /* \"#utility.yul\":15067:15141   */\n      swap2\n      pop\n        /* \"#utility.yul\":15150:15243   */\n      tag_355\n        /* \"#utility.yul\":15239:15242   */\n      dup3\n        /* \"#utility.yul\":15150:15243   */\n      tag_199\n      jump\t// in\n    tag_355:\n        /* \"#utility.yul\":15268:15270   */\n      0x20\n        /* \"#utility.yul\":15263:15266   */\n      dup3\n        /* \"#utility.yul\":15259:15271   */\n      add\n        /* \"#utility.yul\":15252:15271   */\n      swap1\n      pop\n        /* \"#utility.yul\":14911:15277   */\n      swap2\n      swap1\n      pop\n      jump\t// out\n        /* \"#utility.yul\":15283:15702   */\n    tag_128:\n        /* \"#utility.yul\":15449:15453   */\n      0x00\n        /* \"#utility.yul\":15487:15489   */\n      0x20\n        /* \"#utility.yul\":15476:15485   */\n      dup3\n        /* \"#utility.yul\":15472:15490   */\n      add\n        /* \"#utility.yul\":15464:15490   */\n      swap1\n      pop\n        /* \"#utility.yul\":15536:15545   */\n      dup2\n        /* \"#utility.yul\":15530:15534   */\n      dup2\n        /* \"#utility.yul\":15526:15546   */\n      sub\n        /* \"#utility.yul\":15522:15523   */\n      0x00\n        /* \"#utility.yul\":15511:15520   */\n      dup4\n        /* \"#utility.yul\":15507:15524   */\n      add\n        /* \"#utility.yul\":15500:15547   */\n      mstore\n        /* \"#utility.yul\":15564:15695   */\n      tag_357\n        /* \"#utility.yul\":15690:15694   */\n      dup2\n        /* \"#utility.yul\":15564:15695   */\n      tag_200\n      jump\t// in\n    tag_357:\n        /* \"#utility.yul\":15556:15695   */\n      swap1\n      pop\n        /* \"#utility.yul\":15283:15702   */\n      swap2\n      swap1\n      pop\n      jump\t// out\n        /* \"#utility.yul\":15708:15888   */\n    tag_201:\n        /* \"#utility.yul\":15756:15833   */\n      0x4e487b7100000000000000000000000000000000000000000000000000000000\n        /* \"#utility.yul\":15753:15754   */\n      0x00\n        /* \"#utility.yul\":15746:15834   */\n      mstore\n        /* \"#utility.yul\":15853:15857   */\n      0x22\n        /* \"#utility.yul\":15850:15851   */\n      0x04\n        /* \"#utility.yul\":15843:15858   */\n      mstore\n        /* \"#utility.yul\":15877:15881   */\n      0x24\n        /* \"#utility.yul\":15874:15875   */\n      0x00\n        /* \"#utility.yul\":15867:15882   */\n      revert\n        /* \"#utility.yul\":15894:16214   */\n    tag_131:\n        /* \"#utility.yul\":15938:15944   */\n      0x00\n        /* \"#utility.yul\":15975:15976   */\n      0x02\n        /* \"#utility.yul\":15969:15973   */\n      dup3\n        /* \"#utility.yul\":15965:15977   */\n      div\n        /* \"#utility.yul\":15955:15977   */\n      swap1\n      pop\n        /* \"#utility.yul\":16022:16023   */\n      0x01\n        /* \"#utility.yul\":16016:16020   */\n      dup3\n        /* \"#utility.yul\":16012:16024   */\n      and\n        /* \"#utility.yul\":16043:16061   */\n      dup1\n        /* \"#utility.yul\":16033:16114   */\n      tag_360\n      jumpi\n        /* \"#utility.yul\":16099:16103   */\n      0x7f\n        /* \"#utility.yul\":16091:16097   */\n      dup3\n        /* \"#utility.yul\":16087:16104   */\n      and\n        /* \"#utility.yul\":16077:16104   */\n      swap2\n      pop\n        /* \"#utility.yul\":16033:16114   */\n    tag_360:\n        /* \"#utility.yul\":16161:16163   */\n      0x20\n        /* \"#utility.yul\":16153:16159   */\n      dup3\n        /* \"#utility.yul\":16150:16164   */\n      lt\n        /* \"#utility.yul\":16130:16148   */\n      dup2\n        /* \"#utility.yul\":16127:16165   */\n      eq\n        /* \"#utility.yul\":16124:16208   */\n      iszero\n      tag_361\n      jumpi\n        /* \"#utility.yul\":16180:16198   */\n      tag_362\n      tag_201\n      jump\t// in\n    tag_362:\n        /* \"#utility.yul\":16124:16208   */\n    tag_361:\n        /* \"#utility.yul\":15945:16214   */\n      pop\n        /* \"#utility.yul\":15894:16214   */\n      swap2\n      swap1\n      pop\n      jump\t// out\n        /* \"#utility.yul\":16220:16460   */\n    tag_202:\n        /* \"#utility.yul\":16360:16394   */\n      0x596f75206d757374206265206e6f6d696e61746564206265666f726520796f75\n        /* \"#utility.yul\":16356:16357   */\n      0x00\n        /* \"#utility.yul\":16348:16354   */\n      dup3\n        /* \"#utility.yul\":16344:16358   */\n      add\n        /* \"#utility.yul\":16337:16395   */\n      mstore\n        /* \"#utility.yul\":16429:16452   */\n      0x2063616e20616363657074206f776e6572736869700000000000000000000000\n        /* \"#utility.yul\":16424:16426   */\n      0x20\n        /* \"#utility.yul\":16416:16422   */\n      dup3\n        /* \"#utility.yul\":16412:16427   */\n      add\n        /* \"#utility.yul\":16405:16453   */\n      mstore\n        /* \"#utility.yul\":16220:16460   */\n      pop\n      jump\t// out\n        /* \"#utility.yul\":16466:16832   */\n    tag_203:\n        /* \"#utility.yul\":16608:16611   */\n      0x00\n        /* \"#utility.yul\":16629:16696   */\n      tag_365\n        /* \"#utility.yul\":16693:16695   */\n      0x35\n        /* \"#utility.yul\":16688:16691   */\n      dup4\n        /* \"#utility.yul\":16629:16696   */\n      tag_184\n      jump\t// in\n    tag_365:\n        /* \"#utility.yul\":16622:16696   */\n      swap2\n      pop\n        /* \"#utility.yul\":16705:16798   */\n      tag_366\n        /* \"#utility.yul\":16794:16797   */\n      dup3\n        /* \"#utility.yul\":16705:16798   */\n      tag_202\n      jump\t// in\n    tag_366:\n        /* \"#utility.yul\":16823:16825   */\n      0x40\n        /* \"#utility.yul\":16818:16821   */\n      dup3\n        /* \"#utility.yul\":16814:16826   */\n      add\n        /* \"#utility.yul\":16807:16826   */\n      swap1\n      pop\n        /* \"#utility.yul\":16466:16832   */\n      swap2\n      swap1\n      pop\n      jump\t// out\n        /* \"#utility.yul\":16838:17257   */\n    tag_139:\n        /* \"#utility.yul\":17004:17008   */\n      0x00\n        /* \"#utility.yul\":17042:17044   */\n      0x20\n        /* \"#utility.yul\":17031:17040   */\n      dup3\n        /* \"#utility.yul\":17027:17045   */\n      add\n        /* \"#utility.yul\":17019:17045   */\n      swap1\n      pop\n        /* \"#utility.yul\":17091:17100   */\n      dup2\n        /* \"#utility.yul\":17085:17089   */\n      dup2\n        /* \"#utility.yul\":17081:17101   */\n      sub\n        /* \"#utility.yul\":17077:17078   */\n      0x00\n        /* \"#utility.yul\":17066:17075   */\n      dup4\n        /* \"#utility.yul\":17062:17079   */\n      add\n        /* \"#utility.yul\":17055:17102   */\n      mstore\n        /* \"#utility.yul\":17119:17250   */\n      tag_368\n        /* \"#utility.yul\":17245:17249   */\n      dup2\n        /* \"#utility.yul\":17119:17250   */\n      tag_203\n      jump\t// in\n    tag_368:\n        /* \"#utility.yul\":17111:17250   */\n      swap1\n      pop\n        /* \"#utility.yul\":16838:17257   */\n      swap2\n      swap1\n      pop\n      jump\t// out\n        /* \"#utility.yul\":17263:17595   */\n    tag_141:\n        /* \"#utility.yul\":17384:17388   */\n      0x00\n        /* \"#utility.yul\":17422:17424   */\n      0x40\n        /* \"#utility.yul\":17411:17420   */\n      dup3\n        /* \"#utility.yul\":17407:17425   */\n      add\n        /* \"#utility.yul\":17399:17425   */\n      swap1\n      pop\n        /* \"#utility.yul\":17435:17506   */\n      tag_370\n        /* \"#utility.yul\":17503:17504   */\n      0x00\n        /* \"#utility.yul\":17492:17501   */\n      dup4\n        /* \"#utility.yul\":17488:17505   */\n      add\n        /* \"#utility.yul\":17479:17485   */\n      dup6\n        /* \"#utility.yul\":17435:17506   */\n      tag_179\n      jump\t// in\n    tag_370:\n        /* \"#utility.yul\":17516:17588   */\n      tag_371\n        /* \"#utility.yul\":17584:17586   */\n      0x20\n        /* \"#utility.yul\":17573:17582   */\n      dup4\n        /* \"#utility.yul\":17569:17587   */\n      add\n        /* \"#utility.yul\":17560:17566   */\n      dup5\n        /* \"#utility.yul\":17516:17588   */\n      tag_179\n      jump\t// in\n    tag_371:\n        /* \"#utility.yul\":17263:17595   */\n      swap4\n      swap3\n      pop\n      pop\n      pop\n      jump\t// out\n        /* \"#utility.yul\":17601:17781   */\n    tag_204:\n        /* \"#utility.yul\":17649:17726   */\n      0x4e487b7100000000000000000000000000000000000000000000000000000000\n        /* \"#utility.yul\":17646:17647   */\n      0x00\n        /* \"#utility.yul\":17639:17727   */\n      mstore\n        /* \"#utility.yul\":17746:17750   */\n      0x11\n        /* \"#utility.yul\":17743:17744   */\n      0x04\n        /* \"#utility.yul\":17736:17751   */\n      mstore\n        /* \"#utility.yul\":17770:17774   */\n      0x24\n        /* \"#utility.yul\":17767:17768   */\n      0x00\n        /* \"#utility.yul\":17760:17775   */\n      revert\n        /* \"#utility.yul\":17787:18778   */\n    tag_156:\n        /* \"#utility.yul\":17826:17833   */\n      0x00\n        /* \"#utility.yul\":17849:17868   */\n      tag_374\n        /* \"#utility.yul\":17866:17867   */\n      dup3\n        /* \"#utility.yul\":17849:17868   */\n      tag_189\n      jump\t// in\n    tag_374:\n        /* \"#utility.yul\":17844:17868   */\n      swap2\n      pop\n        /* \"#utility.yul\":17882:17901   */\n      tag_375\n        /* \"#utility.yul\":17899:17900   */\n      dup4\n        /* \"#utility.yul\":17882:17901   */\n      tag_189\n      jump\t// in\n    tag_375:\n        /* \"#utility.yul\":17877:17901   */\n      swap3\n      pop\n        /* \"#utility.yul\":18083:18084   */\n      dup3\n        /* \"#utility.yul\":18015:18081   */\n      0x7fffffffffffffffffffffffffffffffffffffffffffffffffffffffffffffff\n        /* \"#utility.yul\":18011:18085   */\n      div\n        /* \"#utility.yul\":18008:18009   */\n      dup3\n        /* \"#utility.yul\":18005:18086   */\n      gt\n        /* \"#utility.yul\":18000:18001   */\n      0x00\n        /* \"#utility.yul\":17997:17998   */\n      dup5\n        /* \"#utility.yul\":17993:18002   */\n      sgt\n        /* \"#utility.yul\":17989:17990   */\n      0x00\n        /* \"#utility.yul\":17986:17987   */\n      dup5\n        /* \"#utility.yul\":17982:17991   */\n      sgt\n        /* \"#utility.yul\":17978:18003   */\n      and\n        /* \"#utility.yul\":17974:18087   */\n      and\n        /* \"#utility.yul\":17971:18110   */\n      iszero\n      tag_376\n      jumpi\n        /* \"#utility.yul\":18090:18108   */\n      tag_377\n      tag_204\n      jump\t// in\n    tag_377:\n        /* \"#utility.yul\":17971:18110   */\n    tag_376:\n        /* \"#utility.yul\":18294:18295   */\n      dup2\n        /* \"#utility.yul\":18226:18292   */\n      0x8000000000000000000000000000000000000000000000000000000000000000\n        /* \"#utility.yul\":18221:18296   */\n      sdiv\n        /* \"#utility.yul\":18218:18219   */\n      dup4\n        /* \"#utility.yul\":18214:18297   */\n      slt\n        /* \"#utility.yul\":18209:18210   */\n      0x00\n        /* \"#utility.yul\":18206:18207   */\n      dup5\n        /* \"#utility.yul\":18202:18211   */\n      slt\n        /* \"#utility.yul\":18198:18199   */\n      0x00\n        /* \"#utility.yul\":18195:18196   */\n      dup5\n        /* \"#utility.yul\":18191:18200   */\n      sgt\n        /* \"#utility.yul\":18187:18212   */\n      and\n        /* \"#utility.yul\":18183:18298   */\n      and\n        /* \"#utility.yul\":18180:18321   */\n      iszero\n      tag_378\n      jumpi\n        /* \"#utility.yul\":18301:18319   */\n      tag_379\n      tag_204\n      jump\t// in\n    tag_379:\n        /* \"#utility.yul\":18180:18321   */\n    tag_378:\n        /* \"#utility.yul\":18505:18506   */\n      dup3\n        /* \"#utility.yul\":18437:18503   */\n      0x8000000000000000000000000000000000000000000000000000000000000000\n        /* \"#utility.yul\":18432:18507   */\n      sdiv\n        /* \"#utility.yul\":18429:18430   */\n      dup3\n        /* \"#utility.yul\":18425:18508   */\n      slt\n        /* \"#utility.yul\":18420:18421   */\n      0x00\n        /* \"#utility.yul\":18417:18418   */\n      dup5\n        /* \"#utility.yul\":18413:18422   */\n      sgt\n        /* \"#utility.yul\":18409:18410   */\n      0x00\n        /* \"#utility.yul\":18406:18407   */\n      dup5\n        /* \"#utility.yul\":18402:18411   */\n      slt\n        /* \"#utility.yul\":18398:18423   */\n      and\n        /* \"#utility.yul\":18394:18509   */\n      and\n        /* \"#utility.yul\":18391:18532   */\n      iszero\n      tag_380\n      jumpi\n        /* \"#utility.yul\":18512:18530   */\n      tag_381\n      tag_204\n      jump\t// in\n    tag_381:\n        /* \"#utility.yul\":18391:18532   */\n    tag_380:\n        /* \"#utility.yul\":18715:18716   */\n      dup3\n        /* \"#utility.yul\":18647:18713   */\n      0x7fffffffffffffffffffffffffffffffffffffffffffffffffffffffffffffff\n        /* \"#utility.yul\":18642:18717   */\n      sdiv\n        /* \"#utility.yul\":18639:18640   */\n      dup3\n        /* \"#utility.yul\":18635:18718   */\n      slt\n        /* \"#utility.yul\":18630:18631   */\n      0x00\n        /* \"#utility.yul\":18627:18628   */\n      dup5\n        /* \"#utility.yul\":18623:18632   */\n      slt\n        /* \"#utility.yul\":18619:18620   */\n      0x00\n        /* \"#utility.yul\":18616:18617   */\n      dup5\n        /* \"#utility.yul\":18612:18621   */\n      slt\n        /* \"#utility.yul\":18608:18633   */\n      and\n        /* \"#utility.yul\":18604:18719   */\n      and\n        /* \"#utility.yul\":18601:18742   */\n      iszero\n      tag_382\n      jumpi\n        /* \"#utility.yul\":18722:18740   */\n      tag_383\n      tag_204\n      jump\t// in\n    tag_383:\n        /* \"#utility.yul\":18601:18742   */\n    tag_382:\n        /* \"#utility.yul\":18770:18771   */\n      dup3\n        /* \"#utility.yul\":18767:18768   */\n      dup3\n        /* \"#utility.yul\":18763:18772   */\n      mul\n        /* \"#utility.yul\":18752:18772   */\n      swap1\n      pop\n        /* \"#utility.yul\":17787:18778   */\n      swap3\n      swap2\n      pop\n      pop\n      jump\t// out\n\n    auxdata: 0xa2646970667358221220d7a14dd87a7138d3ef21ead98379e3381a4d28fecdd2f18abde5d1985d0120bf64736f6c63430008090033\n}\n",
				"bytecode": {
					"linkReferences": {},
					"object": "60806040526012600760006101000a81548160ff021916908360ff16021790555060016009553480156200003257600080fd5b50604051620021533803806200215383398181016040528101906200005891906200052c565b85600073ffffffffffffffffffffffffffffffffffffffff168173ffffffffffffffffffffffffffffffffffffffff161415620000cc576040517f08c379a0000000000000000000000000000000000000000000000000000000008152600401620000c39062000648565b60405180910390fd5b806000806101000a81548173ffffffffffffffffffffffffffffffffffffffff021916908373ffffffffffffffffffffffffffffffffffffffff1602179055507fb532073b38c83145e3e5135377a08bf9aab55bc0fd7c1179cd4fb995d2a5159c600082604051620001409291906200067b565b60405180910390a15084600460006101000a81548173ffffffffffffffffffffffffffffffffffffffff021916908373ffffffffffffffffffffffffffffffffffffffff16021790555083600260006101000a81548173ffffffffffffffffffffffffffffffffffffffff021916908373ffffffffffffffffffffffffffffffffffffffff16021790555082600360006101000a81548173ffffffffffffffffffffffffffffffffffffffff021916908373ffffffffffffffffffffffffffffffffffffffff1602179055508060089080519060200190620002249291906200023f565b5081600581905550426006819055505050505050506200070d565b8280546200024d90620006d7565b90600052602060002090601f016020900481019282620002715760008555620002bd565b82601f106200028c57805160ff1916838001178555620002bd565b82800160010185558215620002bd579182015b82811115620002bc5782518255916020019190600101906200029f565b5b509050620002cc9190620002d0565b5090565b5b80821115620002eb576000816000905550600101620002d1565b5090565b6000604051905090565b600080fd5b600080fd5b600073ffffffffffffffffffffffffffffffffffffffff82169050919050565b6000620003308262000303565b9050919050565b620003428162000323565b81146200034e57600080fd5b50565b600081519050620003628162000337565b92915050565b6000819050919050565b6200037d8162000368565b81146200038957600080fd5b50565b6000815190506200039d8162000372565b92915050565b600080fd5b600080fd5b6000601f19601f8301169050919050565b7f4e487b7100000000000000000000000000000000000000000000000000000000600052604160045260246000fd5b620003f882620003ad565b810181811067ffffffffffffffff821117156200041a5762000419620003be565b5b80604052505050565b60006200042f620002ef565b90506200043d8282620003ed565b919050565b600067ffffffffffffffff82111562000460576200045f620003be565b5b6200046b82620003ad565b9050602081019050919050565b60005b83811015620004985780820151818401526020810190506200047b565b83811115620004a8576000848401525b50505050565b6000620004c5620004bf8462000442565b62000423565b905082815260208101848484011115620004e457620004e3620003a8565b5b620004f184828562000478565b509392505050565b600082601f830112620005115762000510620003a3565b5b815162000523848260208601620004ae565b91505092915050565b60008060008060008060c087890312156200054c576200054b620002f9565b5b60006200055c89828a0162000351565b96505060206200056f89828a0162000351565b95505060406200058289828a0162000351565b94505060606200059589828a0162000351565b9350506080620005a889828a016200038c565b92505060a087015167ffffffffffffffff811115620005cc57620005cb620002fe565b5b620005da89828a01620004f9565b9150509295509295509295565b600082825260208201905092915050565b7f4f776e657220616464726573732063616e6e6f74206265203000000000000000600082015250565b600062000630601983620005e7565b91506200063d82620005f8565b602082019050919050565b60006020820190508181036000830152620006638162000621565b9050919050565b620006758162000323565b82525050565b60006040820190506200069260008301856200066a565b620006a160208301846200066a565b9392505050565b7f4e487b7100000000000000000000000000000000000000000000000000000000600052602260045260246000fd5b60006002820490506001821680620006f057607f821691505b60208210811415620007075762000706620006a8565b5b50919050565b611a36806200071d6000396000f3fe608060405234801561001057600080fd5b50600436106101205760003560e01c806379ba5097116100ad578063bdacb30311610071578063bdacb303146102ab578063dbea953d146102c7578063dc6663c7146102e5578063fb39b98614610303578063feaf968c1461032157610120565b806379ba50971461022b5780638da5cb5b1461023557806391b7f5ed1461025357806398d5fdca1461026f578063a035b1fe1461028d57610120565b8063313ce567116100f4578063313ce5671461019757806353a47bb7146101b557806354fd4d50146101d35780636b5caec4146101f15780637284e4161461020d57610120565b8062e4768b1461012557806304f4a3741461014157806308596fa61461015d5780631627540c1461017b575b600080fd5b61013f600480360381019061013a9190611039565b610343565b005b61015b60048036038101906101569190611295565b610525565b005b610165610781565b604051610172919061131c565b60405180910390f35b61019560048036038101906101909190611337565b6107a7565b005b61019f6108b0565b6040516101ac9190611380565b60405180910390f35b6101bd6108c3565b6040516101ca919061131c565b60405180910390f35b6101db6108e9565b6040516101e891906113aa565b60405180910390f35b61020b60048036038101906102069190611337565b6108ef565b005b610215610a19565b604051610222919061144d565b60405180910390f35b610233610aa7565b005b61023d610c58565b60405161024a919061131c565b60405180910390f35b61026d6004803603810190610268919061146f565b610c7c565b005b610277610dcb565b60405161028491906113aa565b60405180910390f35b610295610dd5565b6040516102a291906113aa565b60405180910390f35b6102c560048036038101906102c09190611337565b610ddb565b005b6102cf610f05565b6040516102dc919061131c565b60405180910390f35b6102ed610f2b565b6040516102fa919061131c565b60405180910390f35b61030b610f51565b60405161031891906113aa565b60405180910390f35b610329610f57565b60405161033a9594939291906114da565b60405180910390f35b60008054906101000a900473ffffffffffffffffffffffffffffffffffffffff1673ffffffffffffffffffffffffffffffffffffffff163373ffffffffffffffffffffffffffffffffffffffff1614806103ea5750600260009054906101000a900473ffffffffffffffffffffffffffffffffffffffff1673ffffffffffffffffffffffffffffffffffffffff163373ffffffffffffffffffffffffffffffffffffffff16145b806104425750600360009054906101000a900473ffffffffffffffffffffffffffffffffffffffff1673ffffffffffffffffffffffffffffffffffffffff163373ffffffffffffffffffffffffffffffffffffffff16145b610481576040517f08c379a000000000000000000000000000000000000000000000000000000000815260040161047890611579565b60405180910390fd5b600460009054906101000a900473ffffffffffffffffffffffffffffffffffffffff1673ffffffffffffffffffffffffffffffffffffffff168273ffffffffffffffffffffffffffffffffffffffff1614610511576040517f08c379a0000000000000000000000000000000000000000000000000000000008152600401610508906115e5565b60405180910390fd5b61051a81610c7c565b426006819055505050565b60008054906101000a900473ffffffffffffffffffffffffffffffffffffffff1673ffffffffffffffffffffffffffffffffffffffff163373ffffffffffffffffffffffffffffffffffffffff1614806105cc5750600260009054906101000a900473ffffffffffffffffffffffffffffffffffffffff1673ffffffffffffffffffffffffffffffffffffffff163373ffffffffffffffffffffffffffffffffffffffff16145b806106245750600360009054906101000a900473ffffffffffffffffffffffffffffffffffffffff1673ffffffffffffffffffffffffffffffffffffffff163373ffffffffffffffffffffffffffffffffffffffff16145b610663576040517f08c379a000000000000000000000000000000000000000000000000000000000815260040161065a90611579565b60405180910390fd5b60018251146106a7576040517f08c379a000000000000000000000000000000000000000000000000000000000815260040161069e90611651565b60405180910390fd5b600460009054906101000a900473ffffffffffffffffffffffffffffffffffffffff1673ffffffffffffffffffffffffffffffffffffffff16826000815181106106f4576106f3611671565b5b602002602001015173ffffffffffffffffffffffffffffffffffffffff1614610752576040517f08c379a0000000000000000000000000000000000000000000000000000000008152600401610749906115e5565b60405180910390fd5b6107768160008151811061076957610768611671565b5b6020026020010151610c7c565b426006819055505050565b600460009054906101000a900473ffffffffffffffffffffffffffffffffffffffff1681565b60008054906101000a900473ffffffffffffffffffffffffffffffffffffffff1673ffffffffffffffffffffffffffffffffffffffff163373ffffffffffffffffffffffffffffffffffffffff1614610835576040517f08c379a000000000000000000000000000000000000000000000000000000000815260040161082c90611712565b60405180910390fd5b80600160006101000a81548173ffffffffffffffffffffffffffffffffffffffff021916908373ffffffffffffffffffffffffffffffffffffffff1602179055507f906a1c6bd7e3091ea86693dd029a831c19049ce77f1dce2ce0bab1cacbabce22816040516108a5919061131c565b60405180910390a150565b600760009054906101000a900460ff1681565b600160009054906101000a900473ffffffffffffffffffffffffffffffffffffffff1681565b60095481565b60008054906101000a900473ffffffffffffffffffffffffffffffffffffffff1673ffffffffffffffffffffffffffffffffffffffff163373ffffffffffffffffffffffffffffffffffffffff1614806109965750600260009054906101000a900473ffffffffffffffffffffffffffffffffffffffff1673ffffffffffffffffffffffffffffffffffffffff163373ffffffffffffffffffffffffffffffffffffffff16145b6109d5576040517f08c379a00000000000000000000000000000000000000000000000000000000081526004016109cc9061177e565b60405180910390fd5b80600360006101000a81548173ffffffffffffffffffffffffffffffffffffffff021916908373ffffffffffffffffffffffffffffffffffffffff16021790555050565b60088054610a26906117cd565b80601f0160208091040260200160405190810160405280929190818152602001828054610a52906117cd565b8015610a9f5780601f10610a7457610100808354040283529160200191610a9f565b820191906000526020600020905b815481529060010190602001808311610a8257829003601f168201915b505050505081565b600160009054906101000a900473ffffffffffffffffffffffffffffffffffffffff1673ffffffffffffffffffffffffffffffffffffffff163373ffffffffffffffffffffffffffffffffffffffff1614610b37576040517f08c379a0000000000000000000000000000000000000000000000000000000008152600401610b2e90611871565b60405180910390fd5b7fb532073b38c83145e3e5135377a08bf9aab55bc0fd7c1179cd4fb995d2a5159c60008054906101000a900473ffffffffffffffffffffffffffffffffffffffff16600160009054906101000a900473ffffffffffffffffffffffffffffffffffffffff16604051610baa929190611891565b60405180910390a1600160009054906101000a900473ffffffffffffffffffffffffffffffffffffffff166000806101000a81548173ffffffffffffffffffffffffffffffffffffffff021916908373ffffffffffffffffffffffffffffffffffffffff1602179055506000600160006101000a81548173ffffffffffffffffffffffffffffffffffffffff021916908373ffffffffffffffffffffffffffffffffffffffff160217905550565b60008054906101000a900473ffffffffffffffffffffffffffffffffffffffff1681565b60008054906101000a900473ffffffffffffffffffffffffffffffffffffffff1673ffffffffffffffffffffffffffffffffffffffff163373ffffffffffffffffffffffffffffffffffffffff161480610d235750600260009054906101000a900473ffffffffffffffffffffffffffffffffffffffff1673ffffffffffffffffffffffffffffffffffffffff163373ffffffffffffffffffffffffffffffffffffffff16145b80610d7b5750600360009054906101000a900473ffffffffffffffffffffffffffffffffffffffff1673ffffffffffffffffffffffffffffffffffffffff163373ffffffffffffffffffffffffffffffffffffffff16145b610dba576040517f08c379a0000000000000000000000000000000000000000000000000000000008152600401610db190611579565b60405180910390fd5b806005819055504260068190555050565b6000600554905090565b60055481565b60008054906101000a900473ffffffffffffffffffffffffffffffffffffffff1673ffffffffffffffffffffffffffffffffffffffff163373ffffffffffffffffffffffffffffffffffffffff161480610e825750600260009054906101000a900473ffffffffffffffffffffffffffffffffffffffff1673ffffffffffffffffffffffffffffffffffffffff163373ffffffffffffffffffffffffffffffffffffffff16145b610ec1576040517f08c379a0000000000000000000000000000000000000000000000000000000008152600401610eb89061177e565b60405180910390fd5b80600260006101000a81548173ffffffffffffffffffffffffffffffffffffffff021916908373ffffffffffffffffffffffffffffffffffffffff16021790555050565b600360009054906101000a900473ffffffffffffffffffffffffffffffffffffffff1681565b600260009054906101000a900473ffffffffffffffffffffffffffffffffffffffff1681565b60065481565b60008060008060008064e8d4a51000600554610f7391906118e9565b90506000816000600654600095509550955095509550509091929394565b6000604051905090565b600080fd5b600080fd5b600073ffffffffffffffffffffffffffffffffffffffff82169050919050565b6000610fd082610fa5565b9050919050565b610fe081610fc5565b8114610feb57600080fd5b50565b600081359050610ffd81610fd7565b92915050565b6000819050919050565b61101681611003565b811461102157600080fd5b50565b6000813590506110338161100d565b92915050565b600080604083850312156110505761104f610f9b565b5b600061105e85828601610fee565b925050602061106f85828601611024565b9150509250929050565b600080fd5b6000601f19601f8301169050919050565b7f4e487b7100000000000000000000000000000000000000000000000000000000600052604160045260246000fd5b6110c78261107e565b810181811067ffffffffffffffff821117156110e6576110e561108f565b5b80604052505050565b60006110f9610f91565b905061110582826110be565b919050565b600067ffffffffffffffff8211156111255761112461108f565b5b602082029050602081019050919050565b600080fd5b600061114e6111498461110a565b6110ef565b9050808382526020820190506020840283018581111561117157611170611136565b5b835b8181101561119a57806111868882610fee565b845260208401935050602081019050611173565b5050509392505050565b600082601f8301126111b9576111b8611079565b5b81356111c984826020860161113b565b91505092915050565b600067ffffffffffffffff8211156111ed576111ec61108f565b5b602082029050602081019050919050565b600061121161120c846111d2565b6110ef565b9050808382526020820190506020840283018581111561123457611233611136565b5b835b8181101561125d57806112498882611024565b845260208401935050602081019050611236565b5050509392505050565b600082601f83011261127c5761127b611079565b5b813561128c8482602086016111fe565b91505092915050565b600080604083850312156112ac576112ab610f9b565b5b600083013567ffffffffffffffff8111156112ca576112c9610fa0565b5b6112d6858286016111a4565b925050602083013567ffffffffffffffff8111156112f7576112f6610fa0565b5b61130385828601611267565b9150509250929050565b61131681610fc5565b82525050565b6000602082019050611331600083018461130d565b92915050565b60006020828403121561134d5761134c610f9b565b5b600061135b84828501610fee565b91505092915050565b600060ff82169050919050565b61137a81611364565b82525050565b60006020820190506113956000830184611371565b92915050565b6113a481611003565b82525050565b60006020820190506113bf600083018461139b565b92915050565b600081519050919050565b600082825260208201905092915050565b60005b838110156113ff5780820151818401526020810190506113e4565b8381111561140e576000848401525b50505050565b600061141f826113c5565b61142981856113d0565b93506114398185602086016113e1565b6114428161107e565b840191505092915050565b600060208201905081810360008301526114678184611414565b905092915050565b60006020828403121561148557611484610f9b565b5b600061149384828501611024565b91505092915050565b600069ffffffffffffffffffff82169050919050565b6114bb8161149c565b82525050565b6000819050919050565b6114d4816114c1565b82525050565b600060a0820190506114ef60008301886114b2565b6114fc60208301876114cb565b611509604083018661139b565b611516606083018561139b565b61152360808301846114b2565b9695505050505050565b7f4e6f74206f776e65722c20746c636b2c206f7220626f74000000000000000000600082015250565b60006115636017836113d0565b915061156e8261152d565b602082019050919050565b6000602082019050818103600083015261159281611556565b9050919050565b7f496e76616c696420746f6b656e00000000000000000000000000000000000000600082015250565b60006115cf600d836113d0565b91506115da82611599565b602082019050919050565b600060208201905081810360008301526115fe816115c2565b9050919050565b7f3120746f6b656e206f6e6c790000000000000000000000000000000000000000600082015250565b600061163b600c836113d0565b915061164682611605565b602082019050919050565b6000602082019050818103600083015261166a8161162e565b9050919050565b7f4e487b7100000000000000000000000000000000000000000000000000000000600052603260045260246000fd5b7f4f6e6c792074686520636f6e7472616374206f776e6572206d6179207065726660008201527f6f726d207468697320616374696f6e0000000000000000000000000000000000602082015250565b60006116fc602f836113d0565b9150611707826116a0565b604082019050919050565b6000602082019050818103600083015261172b816116ef565b9050919050565b7f4e6f74206f776e6572206f722074696d656c6f636b0000000000000000000000600082015250565b60006117686015836113d0565b915061177382611732565b602082019050919050565b600060208201905081810360008301526117978161175b565b9050919050565b7f4e487b7100000000000000000000000000000000000000000000000000000000600052602260045260246000fd5b600060028204905060018216806117e557607f821691505b602082108114156117f9576117f861179e565b5b50919050565b7f596f75206d757374206265206e6f6d696e61746564206265666f726520796f7560008201527f2063616e20616363657074206f776e6572736869700000000000000000000000602082015250565b600061185b6035836113d0565b9150611866826117ff565b604082019050919050565b6000602082019050818103600083015261188a8161184e565b9050919050565b60006040820190506118a6600083018561130d565b6118b3602083018461130d565b9392505050565b7f4e487b7100000000000000000000000000000000000000000000000000000000600052601160045260246000fd5b60006118f4826114c1565b91506118ff836114c1565b9250827f7fffffffffffffffffffffffffffffffffffffffffffffffffffffffffffffff048211600084136000841316161561193e5761193d6118ba565b5b817f8000000000000000000000000000000000000000000000000000000000000000058312600084126000841316161561197b5761197a6118ba565b5b827f800000000000000000000000000000000000000000000000000000000000000005821260008413600084121616156119b8576119b76118ba565b5b827f7fffffffffffffffffffffffffffffffffffffffffffffffffffffffffffffff05821260008412600084121616156119f5576119f46118ba565b5b82820290509291505056fea2646970667358221220d7a14dd87a7138d3ef21ead98379e3381a4d28fecdd2f18abde5d1985d0120bf64736f6c63430008090033",
					"opcodes": "PUSH1 0x80 PUSH1 0x40 MSTORE PUSH1 0x12 PUSH1 0x7 PUSH1 0x0 PUSH2 0x100 EXP DUP2 SLOAD DUP2 PUSH1 0xFF MUL NOT AND SWAP1 DUP4 PUSH1 0xFF AND MUL OR SWAP1 SSTORE POP PUSH1 0x1 PUSH1 0x9 SSTORE CALLVALUE DUP1 ISZERO PUSH3 0x32 JUMPI PUSH1 0x0 DUP1 REVERT JUMPDEST POP PUSH1 0x40 MLOAD PUSH3 0x2153 CODESIZE SUB DUP1 PUSH3 0x2153 DUP4 CODECOPY DUP2 DUP2 ADD PUSH1 0x40 MSTORE DUP2 ADD SWAP1 PUSH3 0x58 SWAP2 SWAP1 PUSH3 0x52C JUMP JUMPDEST DUP6 PUSH1 0x0 PUSH20 0xFFFFFFFFFFFFFFFFFFFFFFFFFFFFFFFFFFFFFFFF AND DUP2 PUSH20 0xFFFFFFFFFFFFFFFFFFFFFFFFFFFFFFFFFFFFFFFF AND EQ ISZERO PUSH3 0xCC JUMPI PUSH1 0x40 MLOAD PUSH32 0x8C379A000000000000000000000000000000000000000000000000000000000 DUP2 MSTORE PUSH1 0x4 ADD PUSH3 0xC3 SWAP1 PUSH3 0x648 JUMP JUMPDEST PUSH1 0x40 MLOAD DUP1 SWAP2 SUB SWAP1 REVERT JUMPDEST DUP1 PUSH1 0x0 DUP1 PUSH2 0x100 EXP DUP2 SLOAD DUP2 PUSH20 0xFFFFFFFFFFFFFFFFFFFFFFFFFFFFFFFFFFFFFFFF MUL NOT AND SWAP1 DUP4 PUSH20 0xFFFFFFFFFFFFFFFFFFFFFFFFFFFFFFFFFFFFFFFF AND MUL OR SWAP1 SSTORE POP PUSH32 0xB532073B38C83145E3E5135377A08BF9AAB55BC0FD7C1179CD4FB995D2A5159C PUSH1 0x0 DUP3 PUSH1 0x40 MLOAD PUSH3 0x140 SWAP3 SWAP2 SWAP1 PUSH3 0x67B JUMP JUMPDEST PUSH1 0x40 MLOAD DUP1 SWAP2 SUB SWAP1 LOG1 POP DUP5 PUSH1 0x4 PUSH1 0x0 PUSH2 0x100 EXP DUP2 SLOAD DUP2 PUSH20 0xFFFFFFFFFFFFFFFFFFFFFFFFFFFFFFFFFFFFFFFF MUL NOT AND SWAP1 DUP4 PUSH20 0xFFFFFFFFFFFFFFFFFFFFFFFFFFFFFFFFFFFFFFFF AND MUL OR SWAP1 SSTORE POP DUP4 PUSH1 0x2 PUSH1 0x0 PUSH2 0x100 EXP DUP2 SLOAD DUP2 PUSH20 0xFFFFFFFFFFFFFFFFFFFFFFFFFFFFFFFFFFFFFFFF MUL NOT AND SWAP1 DUP4 PUSH20 0xFFFFFFFFFFFFFFFFFFFFFFFFFFFFFFFFFFFFFFFF AND MUL OR SWAP1 SSTORE POP DUP3 PUSH1 0x3 PUSH1 0x0 PUSH2 0x100 EXP DUP2 SLOAD DUP2 PUSH20 0xFFFFFFFFFFFFFFFFFFFFFFFFFFFFFFFFFFFFFFFF MUL NOT AND SWAP1 DUP4 PUSH20 0xFFFFFFFFFFFFFFFFFFFFFFFFFFFFFFFFFFFFFFFF AND MUL OR SWAP1 SSTORE POP DUP1 PUSH1 0x8 SWAP1 DUP1 MLOAD SWAP1 PUSH1 0x20 ADD SWAP1 PUSH3 0x224 SWAP3 SWAP2 SWAP1 PUSH3 0x23F JUMP JUMPDEST POP DUP2 PUSH1 0x5 DUP2 SWAP1 SSTORE POP TIMESTAMP PUSH1 0x6 DUP2 SWAP1 SSTORE POP POP POP POP POP POP POP PUSH3 0x70D JUMP JUMPDEST DUP3 DUP1 SLOAD PUSH3 0x24D SWAP1 PUSH3 0x6D7 JUMP JUMPDEST SWAP1 PUSH1 0x0 MSTORE PUSH1 0x20 PUSH1 0x0 KECCAK256 SWAP1 PUSH1 0x1F ADD PUSH1 0x20 SWAP1 DIV DUP2 ADD SWAP3 DUP3 PUSH3 0x271 JUMPI PUSH1 0x0 DUP6 SSTORE PUSH3 0x2BD JUMP JUMPDEST DUP3 PUSH1 0x1F LT PUSH3 0x28C JUMPI DUP1 MLOAD PUSH1 0xFF NOT AND DUP4 DUP1 ADD OR DUP6 SSTORE PUSH3 0x2BD JUMP JUMPDEST DUP3 DUP1 ADD PUSH1 0x1 ADD DUP6 SSTORE DUP3 ISZERO PUSH3 0x2BD JUMPI SWAP2 DUP3 ADD JUMPDEST DUP3 DUP2 GT ISZERO PUSH3 0x2BC JUMPI DUP3 MLOAD DUP3 SSTORE SWAP2 PUSH1 0x20 ADD SWAP2 SWAP1 PUSH1 0x1 ADD SWAP1 PUSH3 0x29F JUMP JUMPDEST JUMPDEST POP SWAP1 POP PUSH3 0x2CC SWAP2 SWAP1 PUSH3 0x2D0 JUMP JUMPDEST POP SWAP1 JUMP JUMPDEST JUMPDEST DUP1 DUP3 GT ISZERO PUSH3 0x2EB JUMPI PUSH1 0x0 DUP2 PUSH1 0x0 SWAP1 SSTORE POP PUSH1 0x1 ADD PUSH3 0x2D1 JUMP JUMPDEST POP SWAP1 JUMP JUMPDEST PUSH1 0x0 PUSH1 0x40 MLOAD SWAP1 POP SWAP1 JUMP JUMPDEST PUSH1 0x0 DUP1 REVERT JUMPDEST PUSH1 0x0 DUP1 REVERT JUMPDEST PUSH1 0x0 PUSH20 0xFFFFFFFFFFFFFFFFFFFFFFFFFFFFFFFFFFFFFFFF DUP3 AND SWAP1 POP SWAP2 SWAP1 POP JUMP JUMPDEST PUSH1 0x0 PUSH3 0x330 DUP3 PUSH3 0x303 JUMP JUMPDEST SWAP1 POP SWAP2 SWAP1 POP JUMP JUMPDEST PUSH3 0x342 DUP2 PUSH3 0x323 JUMP JUMPDEST DUP2 EQ PUSH3 0x34E JUMPI PUSH1 0x0 DUP1 REVERT JUMPDEST POP JUMP JUMPDEST PUSH1 0x0 DUP2 MLOAD SWAP1 POP PUSH3 0x362 DUP2 PUSH3 0x337 JUMP JUMPDEST SWAP3 SWAP2 POP POP JUMP JUMPDEST PUSH1 0x0 DUP2 SWAP1 POP SWAP2 SWAP1 POP JUMP JUMPDEST PUSH3 0x37D DUP2 PUSH3 0x368 JUMP JUMPDEST DUP2 EQ PUSH3 0x389 JUMPI PUSH1 0x0 DUP1 REVERT JUMPDEST POP JUMP JUMPDEST PUSH1 0x0 DUP2 MLOAD SWAP1 POP PUSH3 0x39D DUP2 PUSH3 0x372 JUMP JUMPDEST SWAP3 SWAP2 POP POP JUMP JUMPDEST PUSH1 0x0 DUP1 REVERT JUMPDEST PUSH1 0x0 DUP1 REVERT JUMPDEST PUSH1 0x0 PUSH1 0x1F NOT PUSH1 0x1F DUP4 ADD AND SWAP1 POP SWAP2 SWAP1 POP JUMP JUMPDEST PUSH32 0x4E487B7100000000000000000000000000000000000000000000000000000000 PUSH1 0x0 MSTORE PUSH1 0x41 PUSH1 0x4 MSTORE PUSH1 0x24 PUSH1 0x0 REVERT JUMPDEST PUSH3 0x3F8 DUP3 PUSH3 0x3AD JUMP JUMPDEST DUP2 ADD DUP2 DUP2 LT PUSH8 0xFFFFFFFFFFFFFFFF DUP3 GT OR ISZERO PUSH3 0x41A JUMPI PUSH3 0x419 PUSH3 0x3BE JUMP JUMPDEST JUMPDEST DUP1 PUSH1 0x40 MSTORE POP POP POP JUMP JUMPDEST PUSH1 0x0 PUSH3 0x42F PUSH3 0x2EF JUMP JUMPDEST SWAP1 POP PUSH3 0x43D DUP3 DUP3 PUSH3 0x3ED JUMP JUMPDEST SWAP2 SWAP1 POP JUMP JUMPDEST PUSH1 0x0 PUSH8 0xFFFFFFFFFFFFFFFF DUP3 GT ISZERO PUSH3 0x460 JUMPI PUSH3 0x45F PUSH3 0x3BE JUMP JUMPDEST JUMPDEST PUSH3 0x46B DUP3 PUSH3 0x3AD JUMP JUMPDEST SWAP1 POP PUSH1 0x20 DUP2 ADD SWAP1 POP SWAP2 SWAP1 POP JUMP JUMPDEST PUSH1 0x0 JUMPDEST DUP4 DUP2 LT ISZERO PUSH3 0x498 JUMPI DUP1 DUP3 ADD MLOAD DUP2 DUP5 ADD MSTORE PUSH1 0x20 DUP2 ADD SWAP1 POP PUSH3 0x47B JUMP JUMPDEST DUP4 DUP2 GT ISZERO PUSH3 0x4A8 JUMPI PUSH1 0x0 DUP5 DUP5 ADD MSTORE JUMPDEST POP POP POP POP JUMP JUMPDEST PUSH1 0x0 PUSH3 0x4C5 PUSH3 0x4BF DUP5 PUSH3 0x442 JUMP JUMPDEST PUSH3 0x423 JUMP JUMPDEST SWAP1 POP DUP3 DUP2 MSTORE PUSH1 0x20 DUP2 ADD DUP5 DUP5 DUP5 ADD GT ISZERO PUSH3 0x4E4 JUMPI PUSH3 0x4E3 PUSH3 0x3A8 JUMP JUMPDEST JUMPDEST PUSH3 0x4F1 DUP5 DUP3 DUP6 PUSH3 0x478 JUMP JUMPDEST POP SWAP4 SWAP3 POP POP POP JUMP JUMPDEST PUSH1 0x0 DUP3 PUSH1 0x1F DUP4 ADD SLT PUSH3 0x511 JUMPI PUSH3 0x510 PUSH3 0x3A3 JUMP JUMPDEST JUMPDEST DUP2 MLOAD PUSH3 0x523 DUP5 DUP3 PUSH1 0x20 DUP7 ADD PUSH3 0x4AE JUMP JUMPDEST SWAP2 POP POP SWAP3 SWAP2 POP POP JUMP JUMPDEST PUSH1 0x0 DUP1 PUSH1 0x0 DUP1 PUSH1 0x0 DUP1 PUSH1 0xC0 DUP8 DUP10 SUB SLT ISZERO PUSH3 0x54C JUMPI PUSH3 0x54B PUSH3 0x2F9 JUMP JUMPDEST JUMPDEST PUSH1 0x0 PUSH3 0x55C DUP10 DUP3 DUP11 ADD PUSH3 0x351 JUMP JUMPDEST SWAP7 POP POP PUSH1 0x20 PUSH3 0x56F DUP10 DUP3 DUP11 ADD PUSH3 0x351 JUMP JUMPDEST SWAP6 POP POP PUSH1 0x40 PUSH3 0x582 DUP10 DUP3 DUP11 ADD PUSH3 0x351 JUMP JUMPDEST SWAP5 POP POP PUSH1 0x60 PUSH3 0x595 DUP10 DUP3 DUP11 ADD PUSH3 0x351 JUMP JUMPDEST SWAP4 POP POP PUSH1 0x80 PUSH3 0x5A8 DUP10 DUP3 DUP11 ADD PUSH3 0x38C JUMP JUMPDEST SWAP3 POP POP PUSH1 0xA0 DUP8 ADD MLOAD PUSH8 0xFFFFFFFFFFFFFFFF DUP2 GT ISZERO PUSH3 0x5CC JUMPI PUSH3 0x5CB PUSH3 0x2FE JUMP JUMPDEST JUMPDEST PUSH3 0x5DA DUP10 DUP3 DUP11 ADD PUSH3 0x4F9 JUMP JUMPDEST SWAP2 POP POP SWAP3 SWAP6 POP SWAP3 SWAP6 POP SWAP3 SWAP6 JUMP JUMPDEST PUSH1 0x0 DUP3 DUP3 MSTORE PUSH1 0x20 DUP3 ADD SWAP1 POP SWAP3 SWAP2 POP POP JUMP JUMPDEST PUSH32 0x4F776E657220616464726573732063616E6E6F74206265203000000000000000 PUSH1 0x0 DUP3 ADD MSTORE POP JUMP JUMPDEST PUSH1 0x0 PUSH3 0x630 PUSH1 0x19 DUP4 PUSH3 0x5E7 JUMP JUMPDEST SWAP2 POP PUSH3 0x63D DUP3 PUSH3 0x5F8 JUMP JUMPDEST PUSH1 0x20 DUP3 ADD SWAP1 POP SWAP2 SWAP1 POP JUMP JUMPDEST PUSH1 0x0 PUSH1 0x20 DUP3 ADD SWAP1 POP DUP2 DUP2 SUB PUSH1 0x0 DUP4 ADD MSTORE PUSH3 0x663 DUP2 PUSH3 0x621 JUMP JUMPDEST SWAP1 POP SWAP2 SWAP1 POP JUMP JUMPDEST PUSH3 0x675 DUP2 PUSH3 0x323 JUMP JUMPDEST DUP3 MSTORE POP POP JUMP JUMPDEST PUSH1 0x0 PUSH1 0x40 DUP3 ADD SWAP1 POP PUSH3 0x692 PUSH1 0x0 DUP4 ADD DUP6 PUSH3 0x66A JUMP JUMPDEST PUSH3 0x6A1 PUSH1 0x20 DUP4 ADD DUP5 PUSH3 0x66A JUMP JUMPDEST SWAP4 SWAP3 POP POP POP JUMP JUMPDEST PUSH32 0x4E487B7100000000000000000000000000000000000000000000000000000000 PUSH1 0x0 MSTORE PUSH1 0x22 PUSH1 0x4 MSTORE PUSH1 0x24 PUSH1 0x0 REVERT JUMPDEST PUSH1 0x0 PUSH1 0x2 DUP3 DIV SWAP1 POP PUSH1 0x1 DUP3 AND DUP1 PUSH3 0x6F0 JUMPI PUSH1 0x7F DUP3 AND SWAP2 POP JUMPDEST PUSH1 0x20 DUP3 LT DUP2 EQ ISZERO PUSH3 0x707 JUMPI PUSH3 0x706 PUSH3 0x6A8 JUMP JUMPDEST JUMPDEST POP SWAP2 SWAP1 POP JUMP JUMPDEST PUSH2 0x1A36 DUP1 PUSH3 0x71D PUSH1 0x0 CODECOPY PUSH1 0x0 RETURN INVALID PUSH1 0x80 PUSH1 0x40 MSTORE CALLVALUE DUP1 ISZERO PUSH2 0x10 JUMPI PUSH1 0x0 DUP1 REVERT JUMPDEST POP PUSH1 0x4 CALLDATASIZE LT PUSH2 0x120 JUMPI PUSH1 0x0 CALLDATALOAD PUSH1 0xE0 SHR DUP1 PUSH4 0x79BA5097 GT PUSH2 0xAD JUMPI DUP1 PUSH4 0xBDACB303 GT PUSH2 0x71 JUMPI DUP1 PUSH4 0xBDACB303 EQ PUSH2 0x2AB JUMPI DUP1 PUSH4 0xDBEA953D EQ PUSH2 0x2C7 JUMPI DUP1 PUSH4 0xDC6663C7 EQ PUSH2 0x2E5 JUMPI DUP1 PUSH4 0xFB39B986 EQ PUSH2 0x303 JUMPI DUP1 PUSH4 0xFEAF968C EQ PUSH2 0x321 JUMPI PUSH2 0x120 JUMP JUMPDEST DUP1 PUSH4 0x79BA5097 EQ PUSH2 0x22B JUMPI DUP1 PUSH4 0x8DA5CB5B EQ PUSH2 0x235 JUMPI DUP1 PUSH4 0x91B7F5ED EQ PUSH2 0x253 JUMPI DUP1 PUSH4 0x98D5FDCA EQ PUSH2 0x26F JUMPI DUP1 PUSH4 0xA035B1FE EQ PUSH2 0x28D JUMPI PUSH2 0x120 JUMP JUMPDEST DUP1 PUSH4 0x313CE567 GT PUSH2 0xF4 JUMPI DUP1 PUSH4 0x313CE567 EQ PUSH2 0x197 JUMPI DUP1 PUSH4 0x53A47BB7 EQ PUSH2 0x1B5 JUMPI DUP1 PUSH4 0x54FD4D50 EQ PUSH2 0x1D3 JUMPI DUP1 PUSH4 0x6B5CAEC4 EQ PUSH2 0x1F1 JUMPI DUP1 PUSH4 0x7284E416 EQ PUSH2 0x20D JUMPI PUSH2 0x120 JUMP JUMPDEST DUP1 PUSH3 0xE4768B EQ PUSH2 0x125 JUMPI DUP1 PUSH4 0x4F4A374 EQ PUSH2 0x141 JUMPI DUP1 PUSH4 0x8596FA6 EQ PUSH2 0x15D JUMPI DUP1 PUSH4 0x1627540C EQ PUSH2 0x17B JUMPI JUMPDEST PUSH1 0x0 DUP1 REVERT JUMPDEST PUSH2 0x13F PUSH1 0x4 DUP1 CALLDATASIZE SUB DUP2 ADD SWAP1 PUSH2 0x13A SWAP2 SWAP1 PUSH2 0x1039 JUMP JUMPDEST PUSH2 0x343 JUMP JUMPDEST STOP JUMPDEST PUSH2 0x15B PUSH1 0x4 DUP1 CALLDATASIZE SUB DUP2 ADD SWAP1 PUSH2 0x156 SWAP2 SWAP1 PUSH2 0x1295 JUMP JUMPDEST PUSH2 0x525 JUMP JUMPDEST STOP JUMPDEST PUSH2 0x165 PUSH2 0x781 JUMP JUMPDEST PUSH1 0x40 MLOAD PUSH2 0x172 SWAP2 SWAP1 PUSH2 0x131C JUMP JUMPDEST PUSH1 0x40 MLOAD DUP1 SWAP2 SUB SWAP1 RETURN JUMPDEST PUSH2 0x195 PUSH1 0x4 DUP1 CALLDATASIZE SUB DUP2 ADD SWAP1 PUSH2 0x190 SWAP2 SWAP1 PUSH2 0x1337 JUMP JUMPDEST PUSH2 0x7A7 JUMP JUMPDEST STOP JUMPDEST PUSH2 0x19F PUSH2 0x8B0 JUMP JUMPDEST PUSH1 0x40 MLOAD PUSH2 0x1AC SWAP2 SWAP1 PUSH2 0x1380 JUMP JUMPDEST PUSH1 0x40 MLOAD DUP1 SWAP2 SUB SWAP1 RETURN JUMPDEST PUSH2 0x1BD PUSH2 0x8C3 JUMP JUMPDEST PUSH1 0x40 MLOAD PUSH2 0x1CA SWAP2 SWAP1 PUSH2 0x131C JUMP JUMPDEST PUSH1 0x40 MLOAD DUP1 SWAP2 SUB SWAP1 RETURN JUMPDEST PUSH2 0x1DB PUSH2 0x8E9 JUMP JUMPDEST PUSH1 0x40 MLOAD PUSH2 0x1E8 SWAP2 SWAP1 PUSH2 0x13AA JUMP JUMPDEST PUSH1 0x40 MLOAD DUP1 SWAP2 SUB SWAP1 RETURN JUMPDEST PUSH2 0x20B PUSH1 0x4 DUP1 CALLDATASIZE SUB DUP2 ADD SWAP1 PUSH2 0x206 SWAP2 SWAP1 PUSH2 0x1337 JUMP JUMPDEST PUSH2 0x8EF JUMP JUMPDEST STOP JUMPDEST PUSH2 0x215 PUSH2 0xA19 JUMP JUMPDEST PUSH1 0x40 MLOAD PUSH2 0x222 SWAP2 SWAP1 PUSH2 0x144D JUMP JUMPDEST PUSH1 0x40 MLOAD DUP1 SWAP2 SUB SWAP1 RETURN JUMPDEST PUSH2 0x233 PUSH2 0xAA7 JUMP JUMPDEST STOP JUMPDEST PUSH2 0x23D PUSH2 0xC58 JUMP JUMPDEST PUSH1 0x40 MLOAD PUSH2 0x24A SWAP2 SWAP1 PUSH2 0x131C JUMP JUMPDEST PUSH1 0x40 MLOAD DUP1 SWAP2 SUB SWAP1 RETURN JUMPDEST PUSH2 0x26D PUSH1 0x4 DUP1 CALLDATASIZE SUB DUP2 ADD SWAP1 PUSH2 0x268 SWAP2 SWAP1 PUSH2 0x146F JUMP JUMPDEST PUSH2 0xC7C JUMP JUMPDEST STOP JUMPDEST PUSH2 0x277 PUSH2 0xDCB JUMP JUMPDEST PUSH1 0x40 MLOAD PUSH2 0x284 SWAP2 SWAP1 PUSH2 0x13AA JUMP JUMPDEST PUSH1 0x40 MLOAD DUP1 SWAP2 SUB SWAP1 RETURN JUMPDEST PUSH2 0x295 PUSH2 0xDD5 JUMP JUMPDEST PUSH1 0x40 MLOAD PUSH2 0x2A2 SWAP2 SWAP1 PUSH2 0x13AA JUMP JUMPDEST PUSH1 0x40 MLOAD DUP1 SWAP2 SUB SWAP1 RETURN JUMPDEST PUSH2 0x2C5 PUSH1 0x4 DUP1 CALLDATASIZE SUB DUP2 ADD SWAP1 PUSH2 0x2C0 SWAP2 SWAP1 PUSH2 0x1337 JUMP JUMPDEST PUSH2 0xDDB JUMP JUMPDEST STOP JUMPDEST PUSH2 0x2CF PUSH2 0xF05 JUMP JUMPDEST PUSH1 0x40 MLOAD PUSH2 0x2DC SWAP2 SWAP1 PUSH2 0x131C JUMP JUMPDEST PUSH1 0x40 MLOAD DUP1 SWAP2 SUB SWAP1 RETURN JUMPDEST PUSH2 0x2ED PUSH2 0xF2B JUMP JUMPDEST PUSH1 0x40 MLOAD PUSH2 0x2FA SWAP2 SWAP1 PUSH2 0x131C JUMP JUMPDEST PUSH1 0x40 MLOAD DUP1 SWAP2 SUB SWAP1 RETURN JUMPDEST PUSH2 0x30B PUSH2 0xF51 JUMP JUMPDEST PUSH1 0x40 MLOAD PUSH2 0x318 SWAP2 SWAP1 PUSH2 0x13AA JUMP JUMPDEST PUSH1 0x40 MLOAD DUP1 SWAP2 SUB SWAP1 RETURN JUMPDEST PUSH2 0x329 PUSH2 0xF57 JUMP JUMPDEST PUSH1 0x40 MLOAD PUSH2 0x33A SWAP6 SWAP5 SWAP4 SWAP3 SWAP2 SWAP1 PUSH2 0x14DA JUMP JUMPDEST PUSH1 0x40 MLOAD DUP1 SWAP2 SUB SWAP1 RETURN JUMPDEST PUSH1 0x0 DUP1 SLOAD SWAP1 PUSH2 0x100 EXP SWAP1 DIV PUSH20 0xFFFFFFFFFFFFFFFFFFFFFFFFFFFFFFFFFFFFFFFF AND PUSH20 0xFFFFFFFFFFFFFFFFFFFFFFFFFFFFFFFFFFFFFFFF AND CALLER PUSH20 0xFFFFFFFFFFFFFFFFFFFFFFFFFFFFFFFFFFFFFFFF AND EQ DUP1 PUSH2 0x3EA JUMPI POP PUSH1 0x2 PUSH1 0x0 SWAP1 SLOAD SWAP1 PUSH2 0x100 EXP SWAP1 DIV PUSH20 0xFFFFFFFFFFFFFFFFFFFFFFFFFFFFFFFFFFFFFFFF AND PUSH20 0xFFFFFFFFFFFFFFFFFFFFFFFFFFFFFFFFFFFFFFFF AND CALLER PUSH20 0xFFFFFFFFFFFFFFFFFFFFFFFFFFFFFFFFFFFFFFFF AND EQ JUMPDEST DUP1 PUSH2 0x442 JUMPI POP PUSH1 0x3 PUSH1 0x0 SWAP1 SLOAD SWAP1 PUSH2 0x100 EXP SWAP1 DIV PUSH20 0xFFFFFFFFFFFFFFFFFFFFFFFFFFFFFFFFFFFFFFFF AND PUSH20 0xFFFFFFFFFFFFFFFFFFFFFFFFFFFFFFFFFFFFFFFF AND CALLER PUSH20 0xFFFFFFFFFFFFFFFFFFFFFFFFFFFFFFFFFFFFFFFF AND EQ JUMPDEST PUSH2 0x481 JUMPI PUSH1 0x40 MLOAD PUSH32 0x8C379A000000000000000000000000000000000000000000000000000000000 DUP2 MSTORE PUSH1 0x4 ADD PUSH2 0x478 SWAP1 PUSH2 0x1579 JUMP JUMPDEST PUSH1 0x40 MLOAD DUP1 SWAP2 SUB SWAP1 REVERT JUMPDEST PUSH1 0x4 PUSH1 0x0 SWAP1 SLOAD SWAP1 PUSH2 0x100 EXP SWAP1 DIV PUSH20 0xFFFFFFFFFFFFFFFFFFFFFFFFFFFFFFFFFFFFFFFF AND PUSH20 0xFFFFFFFFFFFFFFFFFFFFFFFFFFFFFFFFFFFFFFFF AND DUP3 PUSH20 0xFFFFFFFFFFFFFFFFFFFFFFFFFFFFFFFFFFFFFFFF AND EQ PUSH2 0x511 JUMPI PUSH1 0x40 MLOAD PUSH32 0x8C379A000000000000000000000000000000000000000000000000000000000 DUP2 MSTORE PUSH1 0x4 ADD PUSH2 0x508 SWAP1 PUSH2 0x15E5 JUMP JUMPDEST PUSH1 0x40 MLOAD DUP1 SWAP2 SUB SWAP1 REVERT JUMPDEST PUSH2 0x51A DUP2 PUSH2 0xC7C JUMP JUMPDEST TIMESTAMP PUSH1 0x6 DUP2 SWAP1 SSTORE POP POP POP JUMP JUMPDEST PUSH1 0x0 DUP1 SLOAD SWAP1 PUSH2 0x100 EXP SWAP1 DIV PUSH20 0xFFFFFFFFFFFFFFFFFFFFFFFFFFFFFFFFFFFFFFFF AND PUSH20 0xFFFFFFFFFFFFFFFFFFFFFFFFFFFFFFFFFFFFFFFF AND CALLER PUSH20 0xFFFFFFFFFFFFFFFFFFFFFFFFFFFFFFFFFFFFFFFF AND EQ DUP1 PUSH2 0x5CC JUMPI POP PUSH1 0x2 PUSH1 0x0 SWAP1 SLOAD SWAP1 PUSH2 0x100 EXP SWAP1 DIV PUSH20 0xFFFFFFFFFFFFFFFFFFFFFFFFFFFFFFFFFFFFFFFF AND PUSH20 0xFFFFFFFFFFFFFFFFFFFFFFFFFFFFFFFFFFFFFFFF AND CALLER PUSH20 0xFFFFFFFFFFFFFFFFFFFFFFFFFFFFFFFFFFFFFFFF AND EQ JUMPDEST DUP1 PUSH2 0x624 JUMPI POP PUSH1 0x3 PUSH1 0x0 SWAP1 SLOAD SWAP1 PUSH2 0x100 EXP SWAP1 DIV PUSH20 0xFFFFFFFFFFFFFFFFFFFFFFFFFFFFFFFFFFFFFFFF AND PUSH20 0xFFFFFFFFFFFFFFFFFFFFFFFFFFFFFFFFFFFFFFFF AND CALLER PUSH20 0xFFFFFFFFFFFFFFFFFFFFFFFFFFFFFFFFFFFFFFFF AND EQ JUMPDEST PUSH2 0x663 JUMPI PUSH1 0x40 MLOAD PUSH32 0x8C379A000000000000000000000000000000000000000000000000000000000 DUP2 MSTORE PUSH1 0x4 ADD PUSH2 0x65A SWAP1 PUSH2 0x1579 JUMP JUMPDEST PUSH1 0x40 MLOAD DUP1 SWAP2 SUB SWAP1 REVERT JUMPDEST PUSH1 0x1 DUP3 MLOAD EQ PUSH2 0x6A7 JUMPI PUSH1 0x40 MLOAD PUSH32 0x8C379A000000000000000000000000000000000000000000000000000000000 DUP2 MSTORE PUSH1 0x4 ADD PUSH2 0x69E SWAP1 PUSH2 0x1651 JUMP JUMPDEST PUSH1 0x40 MLOAD DUP1 SWAP2 SUB SWAP1 REVERT JUMPDEST PUSH1 0x4 PUSH1 0x0 SWAP1 SLOAD SWAP1 PUSH2 0x100 EXP SWAP1 DIV PUSH20 0xFFFFFFFFFFFFFFFFFFFFFFFFFFFFFFFFFFFFFFFF AND PUSH20 0xFFFFFFFFFFFFFFFFFFFFFFFFFFFFFFFFFFFFFFFF AND DUP3 PUSH1 0x0 DUP2 MLOAD DUP2 LT PUSH2 0x6F4 JUMPI PUSH2 0x6F3 PUSH2 0x1671 JUMP JUMPDEST JUMPDEST PUSH1 0x20 MUL PUSH1 0x20 ADD ADD MLOAD PUSH20 0xFFFFFFFFFFFFFFFFFFFFFFFFFFFFFFFFFFFFFFFF AND EQ PUSH2 0x752 JUMPI PUSH1 0x40 MLOAD PUSH32 0x8C379A000000000000000000000000000000000000000000000000000000000 DUP2 MSTORE PUSH1 0x4 ADD PUSH2 0x749 SWAP1 PUSH2 0x15E5 JUMP JUMPDEST PUSH1 0x40 MLOAD DUP1 SWAP2 SUB SWAP1 REVERT JUMPDEST PUSH2 0x776 DUP2 PUSH1 0x0 DUP2 MLOAD DUP2 LT PUSH2 0x769 JUMPI PUSH2 0x768 PUSH2 0x1671 JUMP JUMPDEST JUMPDEST PUSH1 0x20 MUL PUSH1 0x20 ADD ADD MLOAD PUSH2 0xC7C JUMP JUMPDEST TIMESTAMP PUSH1 0x6 DUP2 SWAP1 SSTORE POP POP POP JUMP JUMPDEST PUSH1 0x4 PUSH1 0x0 SWAP1 SLOAD SWAP1 PUSH2 0x100 EXP SWAP1 DIV PUSH20 0xFFFFFFFFFFFFFFFFFFFFFFFFFFFFFFFFFFFFFFFF AND DUP2 JUMP JUMPDEST PUSH1 0x0 DUP1 SLOAD SWAP1 PUSH2 0x100 EXP SWAP1 DIV PUSH20 0xFFFFFFFFFFFFFFFFFFFFFFFFFFFFFFFFFFFFFFFF AND PUSH20 0xFFFFFFFFFFFFFFFFFFFFFFFFFFFFFFFFFFFFFFFF AND CALLER PUSH20 0xFFFFFFFFFFFFFFFFFFFFFFFFFFFFFFFFFFFFFFFF AND EQ PUSH2 0x835 JUMPI PUSH1 0x40 MLOAD PUSH32 0x8C379A000000000000000000000000000000000000000000000000000000000 DUP2 MSTORE PUSH1 0x4 ADD PUSH2 0x82C SWAP1 PUSH2 0x1712 JUMP JUMPDEST PUSH1 0x40 MLOAD DUP1 SWAP2 SUB SWAP1 REVERT JUMPDEST DUP1 PUSH1 0x1 PUSH1 0x0 PUSH2 0x100 EXP DUP2 SLOAD DUP2 PUSH20 0xFFFFFFFFFFFFFFFFFFFFFFFFFFFFFFFFFFFFFFFF MUL NOT AND SWAP1 DUP4 PUSH20 0xFFFFFFFFFFFFFFFFFFFFFFFFFFFFFFFFFFFFFFFF AND MUL OR SWAP1 SSTORE POP PUSH32 0x906A1C6BD7E3091EA86693DD029A831C19049CE77F1DCE2CE0BAB1CACBABCE22 DUP2 PUSH1 0x40 MLOAD PUSH2 0x8A5 SWAP2 SWAP1 PUSH2 0x131C JUMP JUMPDEST PUSH1 0x40 MLOAD DUP1 SWAP2 SUB SWAP1 LOG1 POP JUMP JUMPDEST PUSH1 0x7 PUSH1 0x0 SWAP1 SLOAD SWAP1 PUSH2 0x100 EXP SWAP1 DIV PUSH1 0xFF AND DUP2 JUMP JUMPDEST PUSH1 0x1 PUSH1 0x0 SWAP1 SLOAD SWAP1 PUSH2 0x100 EXP SWAP1 DIV PUSH20 0xFFFFFFFFFFFFFFFFFFFFFFFFFFFFFFFFFFFFFFFF AND DUP2 JUMP JUMPDEST PUSH1 0x9 SLOAD DUP2 JUMP JUMPDEST PUSH1 0x0 DUP1 SLOAD SWAP1 PUSH2 0x100 EXP SWAP1 DIV PUSH20 0xFFFFFFFFFFFFFFFFFFFFFFFFFFFFFFFFFFFFFFFF AND PUSH20 0xFFFFFFFFFFFFFFFFFFFFFFFFFFFFFFFFFFFFFFFF AND CALLER PUSH20 0xFFFFFFFFFFFFFFFFFFFFFFFFFFFFFFFFFFFFFFFF AND EQ DUP1 PUSH2 0x996 JUMPI POP PUSH1 0x2 PUSH1 0x0 SWAP1 SLOAD SWAP1 PUSH2 0x100 EXP SWAP1 DIV PUSH20 0xFFFFFFFFFFFFFFFFFFFFFFFFFFFFFFFFFFFFFFFF AND PUSH20 0xFFFFFFFFFFFFFFFFFFFFFFFFFFFFFFFFFFFFFFFF AND CALLER PUSH20 0xFFFFFFFFFFFFFFFFFFFFFFFFFFFFFFFFFFFFFFFF AND EQ JUMPDEST PUSH2 0x9D5 JUMPI PUSH1 0x40 MLOAD PUSH32 0x8C379A000000000000000000000000000000000000000000000000000000000 DUP2 MSTORE PUSH1 0x4 ADD PUSH2 0x9CC SWAP1 PUSH2 0x177E JUMP JUMPDEST PUSH1 0x40 MLOAD DUP1 SWAP2 SUB SWAP1 REVERT JUMPDEST DUP1 PUSH1 0x3 PUSH1 0x0 PUSH2 0x100 EXP DUP2 SLOAD DUP2 PUSH20 0xFFFFFFFFFFFFFFFFFFFFFFFFFFFFFFFFFFFFFFFF MUL NOT AND SWAP1 DUP4 PUSH20 0xFFFFFFFFFFFFFFFFFFFFFFFFFFFFFFFFFFFFFFFF AND MUL OR SWAP1 SSTORE POP POP JUMP JUMPDEST PUSH1 0x8 DUP1 SLOAD PUSH2 0xA26 SWAP1 PUSH2 0x17CD JUMP JUMPDEST DUP1 PUSH1 0x1F ADD PUSH1 0x20 DUP1 SWAP2 DIV MUL PUSH1 0x20 ADD PUSH1 0x40 MLOAD SWAP1 DUP2 ADD PUSH1 0x40 MSTORE DUP1 SWAP3 SWAP2 SWAP1 DUP2 DUP2 MSTORE PUSH1 0x20 ADD DUP3 DUP1 SLOAD PUSH2 0xA52 SWAP1 PUSH2 0x17CD JUMP JUMPDEST DUP1 ISZERO PUSH2 0xA9F JUMPI DUP1 PUSH1 0x1F LT PUSH2 0xA74 JUMPI PUSH2 0x100 DUP1 DUP4 SLOAD DIV MUL DUP4 MSTORE SWAP2 PUSH1 0x20 ADD SWAP2 PUSH2 0xA9F JUMP JUMPDEST DUP3 ADD SWAP2 SWAP1 PUSH1 0x0 MSTORE PUSH1 0x20 PUSH1 0x0 KECCAK256 SWAP1 JUMPDEST DUP2 SLOAD DUP2 MSTORE SWAP1 PUSH1 0x1 ADD SWAP1 PUSH1 0x20 ADD DUP1 DUP4 GT PUSH2 0xA82 JUMPI DUP3 SWAP1 SUB PUSH1 0x1F AND DUP3 ADD SWAP2 JUMPDEST POP POP POP POP POP DUP2 JUMP JUMPDEST PUSH1 0x1 PUSH1 0x0 SWAP1 SLOAD SWAP1 PUSH2 0x100 EXP SWAP1 DIV PUSH20 0xFFFFFFFFFFFFFFFFFFFFFFFFFFFFFFFFFFFFFFFF AND PUSH20 0xFFFFFFFFFFFFFFFFFFFFFFFFFFFFFFFFFFFFFFFF AND CALLER PUSH20 0xFFFFFFFFFFFFFFFFFFFFFFFFFFFFFFFFFFFFFFFF AND EQ PUSH2 0xB37 JUMPI PUSH1 0x40 MLOAD PUSH32 0x8C379A000000000000000000000000000000000000000000000000000000000 DUP2 MSTORE PUSH1 0x4 ADD PUSH2 0xB2E SWAP1 PUSH2 0x1871 JUMP JUMPDEST PUSH1 0x40 MLOAD DUP1 SWAP2 SUB SWAP1 REVERT JUMPDEST PUSH32 0xB532073B38C83145E3E5135377A08BF9AAB55BC0FD7C1179CD4FB995D2A5159C PUSH1 0x0 DUP1 SLOAD SWAP1 PUSH2 0x100 EXP SWAP1 DIV PUSH20 0xFFFFFFFFFFFFFFFFFFFFFFFFFFFFFFFFFFFFFFFF AND PUSH1 0x1 PUSH1 0x0 SWAP1 SLOAD SWAP1 PUSH2 0x100 EXP SWAP1 DIV PUSH20 0xFFFFFFFFFFFFFFFFFFFFFFFFFFFFFFFFFFFFFFFF AND PUSH1 0x40 MLOAD PUSH2 0xBAA SWAP3 SWAP2 SWAP1 PUSH2 0x1891 JUMP JUMPDEST PUSH1 0x40 MLOAD DUP1 SWAP2 SUB SWAP1 LOG1 PUSH1 0x1 PUSH1 0x0 SWAP1 SLOAD SWAP1 PUSH2 0x100 EXP SWAP1 DIV PUSH20 0xFFFFFFFFFFFFFFFFFFFFFFFFFFFFFFFFFFFFFFFF AND PUSH1 0x0 DUP1 PUSH2 0x100 EXP DUP2 SLOAD DUP2 PUSH20 0xFFFFFFFFFFFFFFFFFFFFFFFFFFFFFFFFFFFFFFFF MUL NOT AND SWAP1 DUP4 PUSH20 0xFFFFFFFFFFFFFFFFFFFFFFFFFFFFFFFFFFFFFFFF AND MUL OR SWAP1 SSTORE POP PUSH1 0x0 PUSH1 0x1 PUSH1 0x0 PUSH2 0x100 EXP DUP2 SLOAD DUP2 PUSH20 0xFFFFFFFFFFFFFFFFFFFFFFFFFFFFFFFFFFFFFFFF MUL NOT AND SWAP1 DUP4 PUSH20 0xFFFFFFFFFFFFFFFFFFFFFFFFFFFFFFFFFFFFFFFF AND MUL OR SWAP1 SSTORE POP JUMP JUMPDEST PUSH1 0x0 DUP1 SLOAD SWAP1 PUSH2 0x100 EXP SWAP1 DIV PUSH20 0xFFFFFFFFFFFFFFFFFFFFFFFFFFFFFFFFFFFFFFFF AND DUP2 JUMP JUMPDEST PUSH1 0x0 DUP1 SLOAD SWAP1 PUSH2 0x100 EXP SWAP1 DIV PUSH20 0xFFFFFFFFFFFFFFFFFFFFFFFFFFFFFFFFFFFFFFFF AND PUSH20 0xFFFFFFFFFFFFFFFFFFFFFFFFFFFFFFFFFFFFFFFF AND CALLER PUSH20 0xFFFFFFFFFFFFFFFFFFFFFFFFFFFFFFFFFFFFFFFF AND EQ DUP1 PUSH2 0xD23 JUMPI POP PUSH1 0x2 PUSH1 0x0 SWAP1 SLOAD SWAP1 PUSH2 0x100 EXP SWAP1 DIV PUSH20 0xFFFFFFFFFFFFFFFFFFFFFFFFFFFFFFFFFFFFFFFF AND PUSH20 0xFFFFFFFFFFFFFFFFFFFFFFFFFFFFFFFFFFFFFFFF AND CALLER PUSH20 0xFFFFFFFFFFFFFFFFFFFFFFFFFFFFFFFFFFFFFFFF AND EQ JUMPDEST DUP1 PUSH2 0xD7B JUMPI POP PUSH1 0x3 PUSH1 0x0 SWAP1 SLOAD SWAP1 PUSH2 0x100 EXP SWAP1 DIV PUSH20 0xFFFFFFFFFFFFFFFFFFFFFFFFFFFFFFFFFFFFFFFF AND PUSH20 0xFFFFFFFFFFFFFFFFFFFFFFFFFFFFFFFFFFFFFFFF AND CALLER PUSH20 0xFFFFFFFFFFFFFFFFFFFFFFFFFFFFFFFFFFFFFFFF AND EQ JUMPDEST PUSH2 0xDBA JUMPI PUSH1 0x40 MLOAD PUSH32 0x8C379A000000000000000000000000000000000000000000000000000000000 DUP2 MSTORE PUSH1 0x4 ADD PUSH2 0xDB1 SWAP1 PUSH2 0x1579 JUMP JUMPDEST PUSH1 0x40 MLOAD DUP1 SWAP2 SUB SWAP1 REVERT JUMPDEST DUP1 PUSH1 0x5 DUP2 SWAP1 SSTORE POP TIMESTAMP PUSH1 0x6 DUP2 SWAP1 SSTORE POP POP JUMP JUMPDEST PUSH1 0x0 PUSH1 0x5 SLOAD SWAP1 POP SWAP1 JUMP JUMPDEST PUSH1 0x5 SLOAD DUP2 JUMP JUMPDEST PUSH1 0x0 DUP1 SLOAD SWAP1 PUSH2 0x100 EXP SWAP1 DIV PUSH20 0xFFFFFFFFFFFFFFFFFFFFFFFFFFFFFFFFFFFFFFFF AND PUSH20 0xFFFFFFFFFFFFFFFFFFFFFFFFFFFFFFFFFFFFFFFF AND CALLER PUSH20 0xFFFFFFFFFFFFFFFFFFFFFFFFFFFFFFFFFFFFFFFF AND EQ DUP1 PUSH2 0xE82 JUMPI POP PUSH1 0x2 PUSH1 0x0 SWAP1 SLOAD SWAP1 PUSH2 0x100 EXP SWAP1 DIV PUSH20 0xFFFFFFFFFFFFFFFFFFFFFFFFFFFFFFFFFFFFFFFF AND PUSH20 0xFFFFFFFFFFFFFFFFFFFFFFFFFFFFFFFFFFFFFFFF AND CALLER PUSH20 0xFFFFFFFFFFFFFFFFFFFFFFFFFFFFFFFFFFFFFFFF AND EQ JUMPDEST PUSH2 0xEC1 JUMPI PUSH1 0x40 MLOAD PUSH32 0x8C379A000000000000000000000000000000000000000000000000000000000 DUP2 MSTORE PUSH1 0x4 ADD PUSH2 0xEB8 SWAP1 PUSH2 0x177E JUMP JUMPDEST PUSH1 0x40 MLOAD DUP1 SWAP2 SUB SWAP1 REVERT JUMPDEST DUP1 PUSH1 0x2 PUSH1 0x0 PUSH2 0x100 EXP DUP2 SLOAD DUP2 PUSH20 0xFFFFFFFFFFFFFFFFFFFFFFFFFFFFFFFFFFFFFFFF MUL NOT AND SWAP1 DUP4 PUSH20 0xFFFFFFFFFFFFFFFFFFFFFFFFFFFFFFFFFFFFFFFF AND MUL OR SWAP1 SSTORE POP POP JUMP JUMPDEST PUSH1 0x3 PUSH1 0x0 SWAP1 SLOAD SWAP1 PUSH2 0x100 EXP SWAP1 DIV PUSH20 0xFFFFFFFFFFFFFFFFFFFFFFFFFFFFFFFFFFFFFFFF AND DUP2 JUMP JUMPDEST PUSH1 0x2 PUSH1 0x0 SWAP1 SLOAD SWAP1 PUSH2 0x100 EXP SWAP1 DIV PUSH20 0xFFFFFFFFFFFFFFFFFFFFFFFFFFFFFFFFFFFFFFFF AND DUP2 JUMP JUMPDEST PUSH1 0x6 SLOAD DUP2 JUMP JUMPDEST PUSH1 0x0 DUP1 PUSH1 0x0 DUP1 PUSH1 0x0 DUP1 PUSH5 0xE8D4A51000 PUSH1 0x5 SLOAD PUSH2 0xF73 SWAP2 SWAP1 PUSH2 0x18E9 JUMP JUMPDEST SWAP1 POP PUSH1 0x0 DUP2 PUSH1 0x0 PUSH1 0x6 SLOAD PUSH1 0x0 SWAP6 POP SWAP6 POP SWAP6 POP SWAP6 POP SWAP6 POP POP SWAP1 SWAP2 SWAP3 SWAP4 SWAP5 JUMP JUMPDEST PUSH1 0x0 PUSH1 0x40 MLOAD SWAP1 POP SWAP1 JUMP JUMPDEST PUSH1 0x0 DUP1 REVERT JUMPDEST PUSH1 0x0 DUP1 REVERT JUMPDEST PUSH1 0x0 PUSH20 0xFFFFFFFFFFFFFFFFFFFFFFFFFFFFFFFFFFFFFFFF DUP3 AND SWAP1 POP SWAP2 SWAP1 POP JUMP JUMPDEST PUSH1 0x0 PUSH2 0xFD0 DUP3 PUSH2 0xFA5 JUMP JUMPDEST SWAP1 POP SWAP2 SWAP1 POP JUMP JUMPDEST PUSH2 0xFE0 DUP2 PUSH2 0xFC5 JUMP JUMPDEST DUP2 EQ PUSH2 0xFEB JUMPI PUSH1 0x0 DUP1 REVERT JUMPDEST POP JUMP JUMPDEST PUSH1 0x0 DUP2 CALLDATALOAD SWAP1 POP PUSH2 0xFFD DUP2 PUSH2 0xFD7 JUMP JUMPDEST SWAP3 SWAP2 POP POP JUMP JUMPDEST PUSH1 0x0 DUP2 SWAP1 POP SWAP2 SWAP1 POP JUMP JUMPDEST PUSH2 0x1016 DUP2 PUSH2 0x1003 JUMP JUMPDEST DUP2 EQ PUSH2 0x1021 JUMPI PUSH1 0x0 DUP1 REVERT JUMPDEST POP JUMP JUMPDEST PUSH1 0x0 DUP2 CALLDATALOAD SWAP1 POP PUSH2 0x1033 DUP2 PUSH2 0x100D JUMP JUMPDEST SWAP3 SWAP2 POP POP JUMP JUMPDEST PUSH1 0x0 DUP1 PUSH1 0x40 DUP4 DUP6 SUB SLT ISZERO PUSH2 0x1050 JUMPI PUSH2 0x104F PUSH2 0xF9B JUMP JUMPDEST JUMPDEST PUSH1 0x0 PUSH2 0x105E DUP6 DUP3 DUP7 ADD PUSH2 0xFEE JUMP JUMPDEST SWAP3 POP POP PUSH1 0x20 PUSH2 0x106F DUP6 DUP3 DUP7 ADD PUSH2 0x1024 JUMP JUMPDEST SWAP2 POP POP SWAP3 POP SWAP3 SWAP1 POP JUMP JUMPDEST PUSH1 0x0 DUP1 REVERT JUMPDEST PUSH1 0x0 PUSH1 0x1F NOT PUSH1 0x1F DUP4 ADD AND SWAP1 POP SWAP2 SWAP1 POP JUMP JUMPDEST PUSH32 0x4E487B7100000000000000000000000000000000000000000000000000000000 PUSH1 0x0 MSTORE PUSH1 0x41 PUSH1 0x4 MSTORE PUSH1 0x24 PUSH1 0x0 REVERT JUMPDEST PUSH2 0x10C7 DUP3 PUSH2 0x107E JUMP JUMPDEST DUP2 ADD DUP2 DUP2 LT PUSH8 0xFFFFFFFFFFFFFFFF DUP3 GT OR ISZERO PUSH2 0x10E6 JUMPI PUSH2 0x10E5 PUSH2 0x108F JUMP JUMPDEST JUMPDEST DUP1 PUSH1 0x40 MSTORE POP POP POP JUMP JUMPDEST PUSH1 0x0 PUSH2 0x10F9 PUSH2 0xF91 JUMP JUMPDEST SWAP1 POP PUSH2 0x1105 DUP3 DUP3 PUSH2 0x10BE JUMP JUMPDEST SWAP2 SWAP1 POP JUMP JUMPDEST PUSH1 0x0 PUSH8 0xFFFFFFFFFFFFFFFF DUP3 GT ISZERO PUSH2 0x1125 JUMPI PUSH2 0x1124 PUSH2 0x108F JUMP JUMPDEST JUMPDEST PUSH1 0x20 DUP3 MUL SWAP1 POP PUSH1 0x20 DUP2 ADD SWAP1 POP SWAP2 SWAP1 POP JUMP JUMPDEST PUSH1 0x0 DUP1 REVERT JUMPDEST PUSH1 0x0 PUSH2 0x114E PUSH2 0x1149 DUP5 PUSH2 0x110A JUMP JUMPDEST PUSH2 0x10EF JUMP JUMPDEST SWAP1 POP DUP1 DUP4 DUP3 MSTORE PUSH1 0x20 DUP3 ADD SWAP1 POP PUSH1 0x20 DUP5 MUL DUP4 ADD DUP6 DUP2 GT ISZERO PUSH2 0x1171 JUMPI PUSH2 0x1170 PUSH2 0x1136 JUMP JUMPDEST JUMPDEST DUP4 JUMPDEST DUP2 DUP2 LT ISZERO PUSH2 0x119A JUMPI DUP1 PUSH2 0x1186 DUP9 DUP3 PUSH2 0xFEE JUMP JUMPDEST DUP5 MSTORE PUSH1 0x20 DUP5 ADD SWAP4 POP POP PUSH1 0x20 DUP2 ADD SWAP1 POP PUSH2 0x1173 JUMP JUMPDEST POP POP POP SWAP4 SWAP3 POP POP POP JUMP JUMPDEST PUSH1 0x0 DUP3 PUSH1 0x1F DUP4 ADD SLT PUSH2 0x11B9 JUMPI PUSH2 0x11B8 PUSH2 0x1079 JUMP JUMPDEST JUMPDEST DUP2 CALLDATALOAD PUSH2 0x11C9 DUP5 DUP3 PUSH1 0x20 DUP7 ADD PUSH2 0x113B JUMP JUMPDEST SWAP2 POP POP SWAP3 SWAP2 POP POP JUMP JUMPDEST PUSH1 0x0 PUSH8 0xFFFFFFFFFFFFFFFF DUP3 GT ISZERO PUSH2 0x11ED JUMPI PUSH2 0x11EC PUSH2 0x108F JUMP JUMPDEST JUMPDEST PUSH1 0x20 DUP3 MUL SWAP1 POP PUSH1 0x20 DUP2 ADD SWAP1 POP SWAP2 SWAP1 POP JUMP JUMPDEST PUSH1 0x0 PUSH2 0x1211 PUSH2 0x120C DUP5 PUSH2 0x11D2 JUMP JUMPDEST PUSH2 0x10EF JUMP JUMPDEST SWAP1 POP DUP1 DUP4 DUP3 MSTORE PUSH1 0x20 DUP3 ADD SWAP1 POP PUSH1 0x20 DUP5 MUL DUP4 ADD DUP6 DUP2 GT ISZERO PUSH2 0x1234 JUMPI PUSH2 0x1233 PUSH2 0x1136 JUMP JUMPDEST JUMPDEST DUP4 JUMPDEST DUP2 DUP2 LT ISZERO PUSH2 0x125D JUMPI DUP1 PUSH2 0x1249 DUP9 DUP3 PUSH2 0x1024 JUMP JUMPDEST DUP5 MSTORE PUSH1 0x20 DUP5 ADD SWAP4 POP POP PUSH1 0x20 DUP2 ADD SWAP1 POP PUSH2 0x1236 JUMP JUMPDEST POP POP POP SWAP4 SWAP3 POP POP POP JUMP JUMPDEST PUSH1 0x0 DUP3 PUSH1 0x1F DUP4 ADD SLT PUSH2 0x127C JUMPI PUSH2 0x127B PUSH2 0x1079 JUMP JUMPDEST JUMPDEST DUP2 CALLDATALOAD PUSH2 0x128C DUP5 DUP3 PUSH1 0x20 DUP7 ADD PUSH2 0x11FE JUMP JUMPDEST SWAP2 POP POP SWAP3 SWAP2 POP POP JUMP JUMPDEST PUSH1 0x0 DUP1 PUSH1 0x40 DUP4 DUP6 SUB SLT ISZERO PUSH2 0x12AC JUMPI PUSH2 0x12AB PUSH2 0xF9B JUMP JUMPDEST JUMPDEST PUSH1 0x0 DUP4 ADD CALLDATALOAD PUSH8 0xFFFFFFFFFFFFFFFF DUP2 GT ISZERO PUSH2 0x12CA JUMPI PUSH2 0x12C9 PUSH2 0xFA0 JUMP JUMPDEST JUMPDEST PUSH2 0x12D6 DUP6 DUP3 DUP7 ADD PUSH2 0x11A4 JUMP JUMPDEST SWAP3 POP POP PUSH1 0x20 DUP4 ADD CALLDATALOAD PUSH8 0xFFFFFFFFFFFFFFFF DUP2 GT ISZERO PUSH2 0x12F7 JUMPI PUSH2 0x12F6 PUSH2 0xFA0 JUMP JUMPDEST JUMPDEST PUSH2 0x1303 DUP6 DUP3 DUP7 ADD PUSH2 0x1267 JUMP JUMPDEST SWAP2 POP POP SWAP3 POP SWAP3 SWAP1 POP JUMP JUMPDEST PUSH2 0x1316 DUP2 PUSH2 0xFC5 JUMP JUMPDEST DUP3 MSTORE POP POP JUMP JUMPDEST PUSH1 0x0 PUSH1 0x20 DUP3 ADD SWAP1 POP PUSH2 0x1331 PUSH1 0x0 DUP4 ADD DUP5 PUSH2 0x130D JUMP JUMPDEST SWAP3 SWAP2 POP POP JUMP JUMPDEST PUSH1 0x0 PUSH1 0x20 DUP3 DUP5 SUB SLT ISZERO PUSH2 0x134D JUMPI PUSH2 0x134C PUSH2 0xF9B JUMP JUMPDEST JUMPDEST PUSH1 0x0 PUSH2 0x135B DUP5 DUP3 DUP6 ADD PUSH2 0xFEE JUMP JUMPDEST SWAP2 POP POP SWAP3 SWAP2 POP POP JUMP JUMPDEST PUSH1 0x0 PUSH1 0xFF DUP3 AND SWAP1 POP SWAP2 SWAP1 POP JUMP JUMPDEST PUSH2 0x137A DUP2 PUSH2 0x1364 JUMP JUMPDEST DUP3 MSTORE POP POP JUMP JUMPDEST PUSH1 0x0 PUSH1 0x20 DUP3 ADD SWAP1 POP PUSH2 0x1395 PUSH1 0x0 DUP4 ADD DUP5 PUSH2 0x1371 JUMP JUMPDEST SWAP3 SWAP2 POP POP JUMP JUMPDEST PUSH2 0x13A4 DUP2 PUSH2 0x1003 JUMP JUMPDEST DUP3 MSTORE POP POP JUMP JUMPDEST PUSH1 0x0 PUSH1 0x20 DUP3 ADD SWAP1 POP PUSH2 0x13BF PUSH1 0x0 DUP4 ADD DUP5 PUSH2 0x139B JUMP JUMPDEST SWAP3 SWAP2 POP POP JUMP JUMPDEST PUSH1 0x0 DUP2 MLOAD SWAP1 POP SWAP2 SWAP1 POP JUMP JUMPDEST PUSH1 0x0 DUP3 DUP3 MSTORE PUSH1 0x20 DUP3 ADD SWAP1 POP SWAP3 SWAP2 POP POP JUMP JUMPDEST PUSH1 0x0 JUMPDEST DUP4 DUP2 LT ISZERO PUSH2 0x13FF JUMPI DUP1 DUP3 ADD MLOAD DUP2 DUP5 ADD MSTORE PUSH1 0x20 DUP2 ADD SWAP1 POP PUSH2 0x13E4 JUMP JUMPDEST DUP4 DUP2 GT ISZERO PUSH2 0x140E JUMPI PUSH1 0x0 DUP5 DUP5 ADD MSTORE JUMPDEST POP POP POP POP JUMP JUMPDEST PUSH1 0x0 PUSH2 0x141F DUP3 PUSH2 0x13C5 JUMP JUMPDEST PUSH2 0x1429 DUP2 DUP6 PUSH2 0x13D0 JUMP JUMPDEST SWAP4 POP PUSH2 0x1439 DUP2 DUP6 PUSH1 0x20 DUP7 ADD PUSH2 0x13E1 JUMP JUMPDEST PUSH2 0x1442 DUP2 PUSH2 0x107E JUMP JUMPDEST DUP5 ADD SWAP2 POP POP SWAP3 SWAP2 POP POP JUMP JUMPDEST PUSH1 0x0 PUSH1 0x20 DUP3 ADD SWAP1 POP DUP2 DUP2 SUB PUSH1 0x0 DUP4 ADD MSTORE PUSH2 0x1467 DUP2 DUP5 PUSH2 0x1414 JUMP JUMPDEST SWAP1 POP SWAP3 SWAP2 POP POP JUMP JUMPDEST PUSH1 0x0 PUSH1 0x20 DUP3 DUP5 SUB SLT ISZERO PUSH2 0x1485 JUMPI PUSH2 0x1484 PUSH2 0xF9B JUMP JUMPDEST JUMPDEST PUSH1 0x0 PUSH2 0x1493 DUP5 DUP3 DUP6 ADD PUSH2 0x1024 JUMP JUMPDEST SWAP2 POP POP SWAP3 SWAP2 POP POP JUMP JUMPDEST PUSH1 0x0 PUSH10 0xFFFFFFFFFFFFFFFFFFFF DUP3 AND SWAP1 POP SWAP2 SWAP1 POP JUMP JUMPDEST PUSH2 0x14BB DUP2 PUSH2 0x149C JUMP JUMPDEST DUP3 MSTORE POP POP JUMP JUMPDEST PUSH1 0x0 DUP2 SWAP1 POP SWAP2 SWAP1 POP JUMP JUMPDEST PUSH2 0x14D4 DUP2 PUSH2 0x14C1 JUMP JUMPDEST DUP3 MSTORE POP POP JUMP JUMPDEST PUSH1 0x0 PUSH1 0xA0 DUP3 ADD SWAP1 POP PUSH2 0x14EF PUSH1 0x0 DUP4 ADD DUP9 PUSH2 0x14B2 JUMP JUMPDEST PUSH2 0x14FC PUSH1 0x20 DUP4 ADD DUP8 PUSH2 0x14CB JUMP JUMPDEST PUSH2 0x1509 PUSH1 0x40 DUP4 ADD DUP7 PUSH2 0x139B JUMP JUMPDEST PUSH2 0x1516 PUSH1 0x60 DUP4 ADD DUP6 PUSH2 0x139B JUMP JUMPDEST PUSH2 0x1523 PUSH1 0x80 DUP4 ADD DUP5 PUSH2 0x14B2 JUMP JUMPDEST SWAP7 SWAP6 POP POP POP POP POP POP JUMP JUMPDEST PUSH32 0x4E6F74206F776E65722C20746C636B2C206F7220626F74000000000000000000 PUSH1 0x0 DUP3 ADD MSTORE POP JUMP JUMPDEST PUSH1 0x0 PUSH2 0x1563 PUSH1 0x17 DUP4 PUSH2 0x13D0 JUMP JUMPDEST SWAP2 POP PUSH2 0x156E DUP3 PUSH2 0x152D JUMP JUMPDEST PUSH1 0x20 DUP3 ADD SWAP1 POP SWAP2 SWAP1 POP JUMP JUMPDEST PUSH1 0x0 PUSH1 0x20 DUP3 ADD SWAP1 POP DUP2 DUP2 SUB PUSH1 0x0 DUP4 ADD MSTORE PUSH2 0x1592 DUP2 PUSH2 0x1556 JUMP JUMPDEST SWAP1 POP SWAP2 SWAP1 POP JUMP JUMPDEST PUSH32 0x496E76616C696420746F6B656E00000000000000000000000000000000000000 PUSH1 0x0 DUP3 ADD MSTORE POP JUMP JUMPDEST PUSH1 0x0 PUSH2 0x15CF PUSH1 0xD DUP4 PUSH2 0x13D0 JUMP JUMPDEST SWAP2 POP PUSH2 0x15DA DUP3 PUSH2 0x1599 JUMP JUMPDEST PUSH1 0x20 DUP3 ADD SWAP1 POP SWAP2 SWAP1 POP JUMP JUMPDEST PUSH1 0x0 PUSH1 0x20 DUP3 ADD SWAP1 POP DUP2 DUP2 SUB PUSH1 0x0 DUP4 ADD MSTORE PUSH2 0x15FE DUP2 PUSH2 0x15C2 JUMP JUMPDEST SWAP1 POP SWAP2 SWAP1 POP JUMP JUMPDEST PUSH32 0x3120746F6B656E206F6E6C790000000000000000000000000000000000000000 PUSH1 0x0 DUP3 ADD MSTORE POP JUMP JUMPDEST PUSH1 0x0 PUSH2 0x163B PUSH1 0xC DUP4 PUSH2 0x13D0 JUMP JUMPDEST SWAP2 POP PUSH2 0x1646 DUP3 PUSH2 0x1605 JUMP JUMPDEST PUSH1 0x20 DUP3 ADD SWAP1 POP SWAP2 SWAP1 POP JUMP JUMPDEST PUSH1 0x0 PUSH1 0x20 DUP3 ADD SWAP1 POP DUP2 DUP2 SUB PUSH1 0x0 DUP4 ADD MSTORE PUSH2 0x166A DUP2 PUSH2 0x162E JUMP JUMPDEST SWAP1 POP SWAP2 SWAP1 POP JUMP JUMPDEST PUSH32 0x4E487B7100000000000000000000000000000000000000000000000000000000 PUSH1 0x0 MSTORE PUSH1 0x32 PUSH1 0x4 MSTORE PUSH1 0x24 PUSH1 0x0 REVERT JUMPDEST PUSH32 0x4F6E6C792074686520636F6E7472616374206F776E6572206D61792070657266 PUSH1 0x0 DUP3 ADD MSTORE PUSH32 0x6F726D207468697320616374696F6E0000000000000000000000000000000000 PUSH1 0x20 DUP3 ADD MSTORE POP JUMP JUMPDEST PUSH1 0x0 PUSH2 0x16FC PUSH1 0x2F DUP4 PUSH2 0x13D0 JUMP JUMPDEST SWAP2 POP PUSH2 0x1707 DUP3 PUSH2 0x16A0 JUMP JUMPDEST PUSH1 0x40 DUP3 ADD SWAP1 POP SWAP2 SWAP1 POP JUMP JUMPDEST PUSH1 0x0 PUSH1 0x20 DUP3 ADD SWAP1 POP DUP2 DUP2 SUB PUSH1 0x0 DUP4 ADD MSTORE PUSH2 0x172B DUP2 PUSH2 0x16EF JUMP JUMPDEST SWAP1 POP SWAP2 SWAP1 POP JUMP JUMPDEST PUSH32 0x4E6F74206F776E6572206F722074696D656C6F636B0000000000000000000000 PUSH1 0x0 DUP3 ADD MSTORE POP JUMP JUMPDEST PUSH1 0x0 PUSH2 0x1768 PUSH1 0x15 DUP4 PUSH2 0x13D0 JUMP JUMPDEST SWAP2 POP PUSH2 0x1773 DUP3 PUSH2 0x1732 JUMP JUMPDEST PUSH1 0x20 DUP3 ADD SWAP1 POP SWAP2 SWAP1 POP JUMP JUMPDEST PUSH1 0x0 PUSH1 0x20 DUP3 ADD SWAP1 POP DUP2 DUP2 SUB PUSH1 0x0 DUP4 ADD MSTORE PUSH2 0x1797 DUP2 PUSH2 0x175B JUMP JUMPDEST SWAP1 POP SWAP2 SWAP1 POP JUMP JUMPDEST PUSH32 0x4E487B7100000000000000000000000000000000000000000000000000000000 PUSH1 0x0 MSTORE PUSH1 0x22 PUSH1 0x4 MSTORE PUSH1 0x24 PUSH1 0x0 REVERT JUMPDEST PUSH1 0x0 PUSH1 0x2 DUP3 DIV SWAP1 POP PUSH1 0x1 DUP3 AND DUP1 PUSH2 0x17E5 JUMPI PUSH1 0x7F DUP3 AND SWAP2 POP JUMPDEST PUSH1 0x20 DUP3 LT DUP2 EQ ISZERO PUSH2 0x17F9 JUMPI PUSH2 0x17F8 PUSH2 0x179E JUMP JUMPDEST JUMPDEST POP SWAP2 SWAP1 POP JUMP JUMPDEST PUSH32 0x596F75206D757374206265206E6F6D696E61746564206265666F726520796F75 PUSH1 0x0 DUP3 ADD MSTORE PUSH32 0x2063616E20616363657074206F776E6572736869700000000000000000000000 PUSH1 0x20 DUP3 ADD MSTORE POP JUMP JUMPDEST PUSH1 0x0 PUSH2 0x185B PUSH1 0x35 DUP4 PUSH2 0x13D0 JUMP JUMPDEST SWAP2 POP PUSH2 0x1866 DUP3 PUSH2 0x17FF JUMP JUMPDEST PUSH1 0x40 DUP3 ADD SWAP1 POP SWAP2 SWAP1 POP JUMP JUMPDEST PUSH1 0x0 PUSH1 0x20 DUP3 ADD SWAP1 POP DUP2 DUP2 SUB PUSH1 0x0 DUP4 ADD MSTORE PUSH2 0x188A DUP2 PUSH2 0x184E JUMP JUMPDEST SWAP1 POP SWAP2 SWAP1 POP JUMP JUMPDEST PUSH1 0x0 PUSH1 0x40 DUP3 ADD SWAP1 POP PUSH2 0x18A6 PUSH1 0x0 DUP4 ADD DUP6 PUSH2 0x130D JUMP JUMPDEST PUSH2 0x18B3 PUSH1 0x20 DUP4 ADD DUP5 PUSH2 0x130D JUMP JUMPDEST SWAP4 SWAP3 POP POP POP JUMP JUMPDEST PUSH32 0x4E487B7100000000000000000000000000000000000000000000000000000000 PUSH1 0x0 MSTORE PUSH1 0x11 PUSH1 0x4 MSTORE PUSH1 0x24 PUSH1 0x0 REVERT JUMPDEST PUSH1 0x0 PUSH2 0x18F4 DUP3 PUSH2 0x14C1 JUMP JUMPDEST SWAP2 POP PUSH2 0x18FF DUP4 PUSH2 0x14C1 JUMP JUMPDEST SWAP3 POP DUP3 PUSH32 0x7FFFFFFFFFFFFFFFFFFFFFFFFFFFFFFFFFFFFFFFFFFFFFFFFFFFFFFFFFFFFFFF DIV DUP3 GT PUSH1 0x0 DUP5 SGT PUSH1 0x0 DUP5 SGT AND AND ISZERO PUSH2 0x193E JUMPI PUSH2 0x193D PUSH2 0x18BA JUMP JUMPDEST JUMPDEST DUP2 PUSH32 0x8000000000000000000000000000000000000000000000000000000000000000 SDIV DUP4 SLT PUSH1 0x0 DUP5 SLT PUSH1 0x0 DUP5 SGT AND AND ISZERO PUSH2 0x197B JUMPI PUSH2 0x197A PUSH2 0x18BA JUMP JUMPDEST JUMPDEST DUP3 PUSH32 0x8000000000000000000000000000000000000000000000000000000000000000 SDIV DUP3 SLT PUSH1 0x0 DUP5 SGT PUSH1 0x0 DUP5 SLT AND AND ISZERO PUSH2 0x19B8 JUMPI PUSH2 0x19B7 PUSH2 0x18BA JUMP JUMPDEST JUMPDEST DUP3 PUSH32 0x7FFFFFFFFFFFFFFFFFFFFFFFFFFFFFFFFFFFFFFFFFFFFFFFFFFFFFFFFFFFFFFF SDIV DUP3 SLT PUSH1 0x0 DUP5 SLT PUSH1 0x0 DUP5 SLT AND AND ISZERO PUSH2 0x19F5 JUMPI PUSH2 0x19F4 PUSH2 0x18BA JUMP JUMPDEST JUMPDEST DUP3 DUP3 MUL SWAP1 POP SWAP3 SWAP2 POP POP JUMP INVALID LOG2 PUSH5 0x6970667358 0x22 SLT KECCAK256 0xD7 LOG1 0x4D 0xD8 PUSH27 0x7138D3EF21EAD98379E3381A4D28FECDD2F18ABDE5D1985D0120BF PUSH5 0x736F6C6343 STOP ADDMOD MULMOD STOP CALLER "
				},
				"gasEstimates": {
					"creation": {
						"codeDepositCost": "1342000",
						"executionCost": "infinite",
						"totalCost": "infinite"
					},
					"external": {
						"acceptOwnership()": "infinite",
						"bot_address()": "2558",
						"decimals()": "2494",
						"description()": "infinite",
						"getPrice()": "2526",
						"last_updated_time()": "2517",
						"latestRoundData()": "infinite",
						"nominateNewOwner(address)": "infinite",
						"nominatedOwner()": "2559",
						"owner()": "2556",
						"price()": "2540",
						"setBot(address)": "29153",
						"setMultiplePrices(address[],uint256[])": "infinite",
						"setPrice(address,uint256)": "82226",
						"setPrice(uint256)": "51217",
						"setTimelock(address)": "29086",
						"timelock_address()": "2580",
						"tkn_address()": "2582",
						"version()": "2496"
					}
				},
				"methodIdentifiers": {
					"acceptOwnership()": "79ba5097",
					"bot_address()": "dbea953d",
					"decimals()": "313ce567",
					"description()": "7284e416",
					"getPrice()": "98d5fdca",
					"last_updated_time()": "fb39b986",
					"latestRoundData()": "feaf968c",
					"nominateNewOwner(address)": "1627540c",
					"nominatedOwner()": "53a47bb7",
					"owner()": "8da5cb5b",
					"price()": "a035b1fe",
					"setBot(address)": "6b5caec4",
					"setMultiplePrices(address[],uint256[])": "04f4a374",
					"setPrice(address,uint256)": "00e4768b",
					"setPrice(uint256)": "91b7f5ed",
					"setTimelock(address)": "bdacb303",
					"timelock_address()": "dc6663c7",
					"tkn_address()": "08596fa6",
					"version()": "54fd4d50"
				}
			},
			"storageLayout": {
				"storage": [
					{
						"astId": 255,
						"contract": "NewFraxProtocol/contracts/Oracle/CrossChainOracleSingleAsset.sol:CrossChainOracleSingleAsset",
						"label": "owner",
						"offset": 0,
						"slot": "0",
						"type": "t_address"
					},
					{
						"astId": 257,
						"contract": "NewFraxProtocol/contracts/Oracle/CrossChainOracleSingleAsset.sol:CrossChainOracleSingleAsset",
						"label": "nominatedOwner",
						"offset": 0,
						"slot": "1",
						"type": "t_address"
					},
					{
						"astId": 6,
						"contract": "NewFraxProtocol/contracts/Oracle/CrossChainOracleSingleAsset.sol:CrossChainOracleSingleAsset",
						"label": "timelock_address",
						"offset": 0,
						"slot": "2",
						"type": "t_address"
					},
					{
						"astId": 8,
						"contract": "NewFraxProtocol/contracts/Oracle/CrossChainOracleSingleAsset.sol:CrossChainOracleSingleAsset",
						"label": "bot_address",
						"offset": 0,
						"slot": "3",
						"type": "t_address"
					},
					{
						"astId": 10,
						"contract": "NewFraxProtocol/contracts/Oracle/CrossChainOracleSingleAsset.sol:CrossChainOracleSingleAsset",
						"label": "tkn_address",
						"offset": 0,
						"slot": "4",
						"type": "t_address"
					},
					{
						"astId": 12,
						"contract": "NewFraxProtocol/contracts/Oracle/CrossChainOracleSingleAsset.sol:CrossChainOracleSingleAsset",
						"label": "price",
						"offset": 0,
						"slot": "5",
						"type": "t_uint256"
					},
					{
						"astId": 14,
						"contract": "NewFraxProtocol/contracts/Oracle/CrossChainOracleSingleAsset.sol:CrossChainOracleSingleAsset",
						"label": "last_updated_time",
						"offset": 0,
						"slot": "6",
						"type": "t_uint256"
					},
					{
						"astId": 17,
						"contract": "NewFraxProtocol/contracts/Oracle/CrossChainOracleSingleAsset.sol:CrossChainOracleSingleAsset",
						"label": "decimals",
						"offset": 0,
						"slot": "7",
						"type": "t_uint8"
					},
					{
						"astId": 19,
						"contract": "NewFraxProtocol/contracts/Oracle/CrossChainOracleSingleAsset.sol:CrossChainOracleSingleAsset",
						"label": "description",
						"offset": 0,
						"slot": "8",
						"type": "t_string_storage"
					},
					{
						"astId": 22,
						"contract": "NewFraxProtocol/contracts/Oracle/CrossChainOracleSingleAsset.sol:CrossChainOracleSingleAsset",
						"label": "version",
						"offset": 0,
						"slot": "9",
						"type": "t_uint256"
					}
				],
				"types": {
					"t_address": {
						"encoding": "inplace",
						"label": "address",
						"numberOfBytes": "20"
					},
					"t_string_storage": {
						"encoding": "bytes",
						"label": "string",
						"numberOfBytes": "32"
					},
					"t_uint256": {
						"encoding": "inplace",
						"label": "uint256",
						"numberOfBytes": "32"
					},
					"t_uint8": {
						"encoding": "inplace",
						"label": "uint8",
						"numberOfBytes": "1"
					}
				}
			},
			"userdoc": {
				"kind": "user",
				"methods": {},
				"version": 1
			}
		}
	}
}