{
	"NewFraxProtocol/contracts/Oracle/ChainlinkETHUSDPriceConsumer.sol": {
		"ChainlinkETHUSDPriceConsumer": {
			"abi": [
				{
					"inputs": [],
					"stateMutability": "nonpayable",
					"type": "constructor"
				},
				{
					"inputs": [],
					"name": "getDecimals",
					"outputs": [
						{
							"internalType": "uint8",
							"name": "",
							"type": "uint8"
						}
					],
					"stateMutability": "view",
					"type": "function"
				},
				{
					"inputs": [],
					"name": "getLatestPrice",
					"outputs": [
						{
							"internalType": "int256",
							"name": "",
							"type": "int256"
						}
					],
					"stateMutability": "view",
					"type": "function"
				}
			],
			"devdoc": {
				"kind": "dev",
				"methods": {},
				"version": 1
			},
			"evm": {
				"assembly": "    /* \"NewFraxProtocol/contracts/Oracle/ChainlinkETHUSDPriceConsumer.sol\":98:769  contract ChainlinkETHUSDPriceConsumer {... */\n  mstore(0x40, 0x80)\n    /* \"NewFraxProtocol/contracts/Oracle/ChainlinkETHUSDPriceConsumer.sol\":191:307  constructor () public {... */\n  callvalue\n  dup1\n  iszero\n  tag_1\n  jumpi\n  0x00\n  dup1\n  revert\ntag_1:\n  pop\n    /* \"NewFraxProtocol/contracts/Oracle/ChainlinkETHUSDPriceConsumer.sol\":223:232  priceFeed */\n  0x00\n    /* \"NewFraxProtocol/contracts/Oracle/ChainlinkETHUSDPriceConsumer.sol\":223:300  priceFeed = AggregatorV3Interface(0xcD2A119bD1F7DF95d706DE6F2057fDD45A0503E2) */\n  dup1\n  sload\n  not(sub(shl(0xa0, 0x01), 0x01))\n  and\n    /* \"NewFraxProtocol/contracts/Oracle/ChainlinkETHUSDPriceConsumer.sol\":257:299  0xcD2A119bD1F7DF95d706DE6F2057fDD45A0503E2 */\n  0xcd2a119bd1f7df95d706de6f2057fdd45a0503e2\n    /* \"NewFraxProtocol/contracts/Oracle/ChainlinkETHUSDPriceConsumer.sol\":223:300  priceFeed = AggregatorV3Interface(0xcD2A119bD1F7DF95d706DE6F2057fDD45A0503E2) */\n  or\n  swap1\n  sstore\n    /* \"NewFraxProtocol/contracts/Oracle/ChainlinkETHUSDPriceConsumer.sol\":98:769  contract ChainlinkETHUSDPriceConsumer {... */\n  dataSize(sub_0)\n  dup1\n  dataOffset(sub_0)\n  0x00\n  codecopy\n  0x00\n  return\nstop\n\nsub_0: assembly {\n        /* \"NewFraxProtocol/contracts/Oracle/ChainlinkETHUSDPriceConsumer.sol\":98:769  contract ChainlinkETHUSDPriceConsumer {... */\n      mstore(0x40, 0x80)\n      callvalue\n      dup1\n      iszero\n      tag_1\n      jumpi\n      0x00\n      dup1\n      revert\n    tag_1:\n      pop\n      jumpi(tag_2, lt(calldatasize, 0x04))\n      shr(0xe0, calldataload(0x00))\n      dup1\n      0x8e15f473\n      eq\n      tag_3\n      jumpi\n      dup1\n      0xf0141d84\n      eq\n      tag_4\n      jumpi\n    tag_2:\n      0x00\n      dup1\n      revert\n        /* \"NewFraxProtocol/contracts/Oracle/ChainlinkETHUSDPriceConsumer.sol\":361:666  function getLatestPrice() public view returns (int) {... */\n    tag_3:\n      tag_5\n      tag_6\n      jump\t// in\n    tag_5:\n      mload(0x40)\n        /* \"#utility.yul\":158:183   */\n      swap1\n      dup2\n      mstore\n        /* \"#utility.yul\":146:148   */\n      0x20\n        /* \"#utility.yul\":131:149   */\n      add\n        /* \"NewFraxProtocol/contracts/Oracle/ChainlinkETHUSDPriceConsumer.sol\":361:666  function getLatestPrice() public view returns (int) {... */\n    tag_7:\n      mload(0x40)\n      dup1\n      swap2\n      sub\n      swap1\n      return\n        /* \"NewFraxProtocol/contracts/Oracle/ChainlinkETHUSDPriceConsumer.sol\":672:767  function getDecimals() public view returns (uint8) {... */\n    tag_4:\n      tag_9\n      tag_10\n      jump\t// in\n    tag_9:\n      mload(0x40)\n        /* \"#utility.yul\":366:370   */\n      0xff\n        /* \"#utility.yul\":354:371   */\n      swap1\n      swap2\n      and\n        /* \"#utility.yul\":336:372   */\n      dup2\n      mstore\n        /* \"#utility.yul\":324:326   */\n      0x20\n        /* \"#utility.yul\":309:327   */\n      add\n        /* \"NewFraxProtocol/contracts/Oracle/ChainlinkETHUSDPriceConsumer.sol\":672:767  function getDecimals() public view returns (uint8) {... */\n      tag_7\n        /* \"#utility.yul\":194:378   */\n      jump\n        /* \"NewFraxProtocol/contracts/Oracle/ChainlinkETHUSDPriceConsumer.sol\":361:666  function getLatestPrice() public view returns (int) {... */\n    tag_6:\n        /* \"NewFraxProtocol/contracts/Oracle/ChainlinkETHUSDPriceConsumer.sol\":408:411  int */\n      0x00\n        /* \"NewFraxProtocol/contracts/Oracle/ChainlinkETHUSDPriceConsumer.sol\":424:438  uint80 roundID */\n      dup1\n        /* \"NewFraxProtocol/contracts/Oracle/ChainlinkETHUSDPriceConsumer.sol\":440:449  int price */\n      0x00\n        /* \"NewFraxProtocol/contracts/Oracle/ChainlinkETHUSDPriceConsumer.sol\":453:470  uint256 updatedAt */\n      dup1\n        /* \"NewFraxProtocol/contracts/Oracle/ChainlinkETHUSDPriceConsumer.sol\":472:494  uint80 answeredInRound */\n      0x00\n        /* \"NewFraxProtocol/contracts/Oracle/ChainlinkETHUSDPriceConsumer.sol\":498:507  priceFeed */\n      dup1\n      0x00\n      swap1\n      sload\n      swap1\n      0x0100\n      exp\n      swap1\n      div\n      sub(shl(0xa0, 0x01), 0x01)\n      and\n      sub(shl(0xa0, 0x01), 0x01)\n        /* \"NewFraxProtocol/contracts/Oracle/ChainlinkETHUSDPriceConsumer.sol\":498:523  priceFeed.latestRoundData */\n      and\n      0xfeaf968c\n        /* \"NewFraxProtocol/contracts/Oracle/ChainlinkETHUSDPriceConsumer.sol\":498:525  priceFeed.latestRoundData() */\n      mload(0x40)\n      dup2\n      0xffffffff\n      and\n      0xe0\n      shl\n      dup2\n      mstore\n      0x04\n      add\n      0xa0\n      mload(0x40)\n      dup1\n      dup4\n      sub\n      dup2\n      dup7\n      gas\n      staticcall\n      iszero\n      dup1\n      iszero\n      tag_15\n      jumpi\n      returndatasize\n      0x00\n      dup1\n      returndatacopy\n      revert(0x00, returndatasize)\n    tag_15:\n      pop\n      pop\n      pop\n      pop\n      mload(0x40)\n      returndatasize\n      not(0x1f)\n      0x1f\n      dup3\n      add\n      and\n      dup3\n      add\n      dup1\n      0x40\n      mstore\n      pop\n      dup2\n      add\n      swap1\n      tag_16\n      swap2\n      swap1\n      tag_17\n      jump\t// in\n    tag_16:\n        /* \"NewFraxProtocol/contracts/Oracle/ChainlinkETHUSDPriceConsumer.sol\":423:525  (uint80 roundID, int price, , uint256 updatedAt, uint80 answeredInRound) = priceFeed.latestRoundData() */\n      swap5\n      pop\n      swap5\n      pop\n      pop\n      swap4\n      pop\n      swap4\n      pop\n        /* \"NewFraxProtocol/contracts/Oracle/ChainlinkETHUSDPriceConsumer.sol\":552:553  0 */\n      0x00\n        /* \"NewFraxProtocol/contracts/Oracle/ChainlinkETHUSDPriceConsumer.sol\":543:548  price */\n      dup4\n        /* \"NewFraxProtocol/contracts/Oracle/ChainlinkETHUSDPriceConsumer.sol\":543:553  price >= 0 */\n      slt\n      iszero\n        /* \"NewFraxProtocol/contracts/Oracle/ChainlinkETHUSDPriceConsumer.sol\":543:570  price >= 0 && updatedAt!= 0 */\n      dup1\n      iszero\n      tag_18\n      jumpi\n      pop\n        /* \"NewFraxProtocol/contracts/Oracle/ChainlinkETHUSDPriceConsumer.sol\":557:570  updatedAt!= 0 */\n      dup2\n      iszero\n      iszero\n        /* \"NewFraxProtocol/contracts/Oracle/ChainlinkETHUSDPriceConsumer.sol\":543:570  price >= 0 && updatedAt!= 0 */\n    tag_18:\n        /* \"NewFraxProtocol/contracts/Oracle/ChainlinkETHUSDPriceConsumer.sol\":543:600  price >= 0 && updatedAt!= 0 && answeredInRound >= roundID */\n      dup1\n      iszero\n      tag_19\n      jumpi\n      pop\n        /* \"NewFraxProtocol/contracts/Oracle/ChainlinkETHUSDPriceConsumer.sol\":593:600  roundID */\n      dup4\n        /* \"NewFraxProtocol/contracts/Oracle/ChainlinkETHUSDPriceConsumer.sol\":574:600  answeredInRound >= roundID */\n      0xffffffffffffffffffff\n      and\n        /* \"NewFraxProtocol/contracts/Oracle/ChainlinkETHUSDPriceConsumer.sol\":574:589  answeredInRound */\n      dup2\n        /* \"NewFraxProtocol/contracts/Oracle/ChainlinkETHUSDPriceConsumer.sol\":574:600  answeredInRound >= roundID */\n      0xffffffffffffffffffff\n      and\n      lt\n      iszero\n        /* \"NewFraxProtocol/contracts/Oracle/ChainlinkETHUSDPriceConsumer.sol\":543:600  price >= 0 && updatedAt!= 0 && answeredInRound >= roundID */\n    tag_19:\n        /* \"NewFraxProtocol/contracts/Oracle/ChainlinkETHUSDPriceConsumer.sol\":535:628  require(price >= 0 && updatedAt!= 0 && answeredInRound >= roundID, \"Invalid chainlink price\") */\n      tag_20\n      jumpi\n      mload(0x40)\n      shl(0xe5, 0x461bcd)\n      dup2\n      mstore\n        /* \"#utility.yul\":1247:1249   */\n      0x20\n        /* \"NewFraxProtocol/contracts/Oracle/ChainlinkETHUSDPriceConsumer.sol\":535:628  require(price >= 0 && updatedAt!= 0 && answeredInRound >= roundID, \"Invalid chainlink price\") */\n      0x04\n      dup3\n      add\n        /* \"#utility.yul\":1229:1250   */\n      mstore\n        /* \"#utility.yul\":1286:1288   */\n      0x17\n        /* \"#utility.yul\":1266:1284   */\n      0x24\n      dup3\n      add\n        /* \"#utility.yul\":1259:1289   */\n      mstore\n        /* \"#utility.yul\":1325:1350   */\n      0x496e76616c696420636861696e6c696e6b207072696365000000000000000000\n        /* \"#utility.yul\":1305:1323   */\n      0x44\n      dup3\n      add\n        /* \"#utility.yul\":1298:1351   */\n      mstore\n        /* \"#utility.yul\":1368:1386   */\n      0x64\n      add\n        /* \"NewFraxProtocol/contracts/Oracle/ChainlinkETHUSDPriceConsumer.sol\":535:628  require(price >= 0 && updatedAt!= 0 && answeredInRound >= roundID, \"Invalid chainlink price\") */\n      mload(0x40)\n      dup1\n      swap2\n      sub\n      swap1\n      revert\n    tag_20:\n      pop\n        /* \"NewFraxProtocol/contracts/Oracle/ChainlinkETHUSDPriceConsumer.sol\":654:659  price */\n      swap1\n      swap4\n        /* \"NewFraxProtocol/contracts/Oracle/ChainlinkETHUSDPriceConsumer.sol\":361:666  function getLatestPrice() public view returns (int) {... */\n      swap3\n      pop\n      pop\n      pop\n      jump\t// out\n        /* \"NewFraxProtocol/contracts/Oracle/ChainlinkETHUSDPriceConsumer.sol\":672:767  function getDecimals() public view returns (uint8) {... */\n    tag_10:\n        /* \"NewFraxProtocol/contracts/Oracle/ChainlinkETHUSDPriceConsumer.sol\":716:721  uint8 */\n      0x00\n        /* \"NewFraxProtocol/contracts/Oracle/ChainlinkETHUSDPriceConsumer.sol\":740:749  priceFeed */\n      dup1\n      0x00\n      swap1\n      sload\n      swap1\n      0x0100\n      exp\n      swap1\n      div\n      sub(shl(0xa0, 0x01), 0x01)\n      and\n      sub(shl(0xa0, 0x01), 0x01)\n        /* \"NewFraxProtocol/contracts/Oracle/ChainlinkETHUSDPriceConsumer.sol\":740:758  priceFeed.decimals */\n      and\n      0x313ce567\n        /* \"NewFraxProtocol/contracts/Oracle/ChainlinkETHUSDPriceConsumer.sol\":740:760  priceFeed.decimals() */\n      mload(0x40)\n      dup2\n      0xffffffff\n      and\n      0xe0\n      shl\n      dup2\n      mstore\n      0x04\n      add\n      0x20\n      mload(0x40)\n      dup1\n      dup4\n      sub\n      dup2\n      dup7\n      gas\n      staticcall\n      iszero\n      dup1\n      iszero\n      tag_25\n      jumpi\n      returndatasize\n      0x00\n      dup1\n      returndatacopy\n      revert(0x00, returndatasize)\n    tag_25:\n      pop\n      pop\n      pop\n      pop\n      mload(0x40)\n      returndatasize\n      not(0x1f)\n      0x1f\n      dup3\n      add\n      and\n      dup3\n      add\n      dup1\n      0x40\n      mstore\n      pop\n      dup2\n      add\n      swap1\n      tag_26\n      swap2\n      swap1\n      tag_27\n      jump\t// in\n    tag_26:\n        /* \"NewFraxProtocol/contracts/Oracle/ChainlinkETHUSDPriceConsumer.sol\":733:760  return priceFeed.decimals() */\n      swap1\n      pop\n        /* \"NewFraxProtocol/contracts/Oracle/ChainlinkETHUSDPriceConsumer.sol\":672:767  function getDecimals() public view returns (uint8) {... */\n      swap1\n      jump\t// out\n        /* \"#utility.yul\":383:562   */\n    tag_28:\n        /* \"#utility.yul\":461:474   */\n      dup1\n      mload\n        /* \"#utility.yul\":514:536   */\n      0xffffffffffffffffffff\n        /* \"#utility.yul\":503:537   */\n      dup2\n      and\n        /* \"#utility.yul\":493:538   */\n      dup2\n      eq\n        /* \"#utility.yul\":483:556   */\n      tag_33\n      jumpi\n        /* \"#utility.yul\":552:553   */\n      0x00\n        /* \"#utility.yul\":549:550   */\n      dup1\n        /* \"#utility.yul\":542:554   */\n      revert\n        /* \"#utility.yul\":483:556   */\n    tag_33:\n        /* \"#utility.yul\":383:562   */\n      swap2\n      swap1\n      pop\n      jump\t// out\n        /* \"#utility.yul\":567:1040   */\n    tag_17:\n        /* \"#utility.yul\":670:676   */\n      0x00\n        /* \"#utility.yul\":678:684   */\n      dup1\n        /* \"#utility.yul\":686:692   */\n      0x00\n        /* \"#utility.yul\":694:700   */\n      dup1\n        /* \"#utility.yul\":702:708   */\n      0x00\n        /* \"#utility.yul\":755:758   */\n      0xa0\n        /* \"#utility.yul\":743:752   */\n      dup7\n        /* \"#utility.yul\":734:741   */\n      dup9\n        /* \"#utility.yul\":730:753   */\n      sub\n        /* \"#utility.yul\":726:759   */\n      slt\n        /* \"#utility.yul\":723:776   */\n      iszero\n      tag_35\n      jumpi\n        /* \"#utility.yul\":772:773   */\n      0x00\n        /* \"#utility.yul\":769:770   */\n      dup1\n        /* \"#utility.yul\":762:774   */\n      revert\n        /* \"#utility.yul\":723:776   */\n    tag_35:\n        /* \"#utility.yul\":795:834   */\n      tag_36\n        /* \"#utility.yul\":824:833   */\n      dup7\n        /* \"#utility.yul\":795:834   */\n      tag_28\n      jump\t// in\n    tag_36:\n        /* \"#utility.yul\":785:834   */\n      swap5\n      pop\n        /* \"#utility.yul\":874:876   */\n      0x20\n        /* \"#utility.yul\":863:872   */\n      dup7\n        /* \"#utility.yul\":859:877   */\n      add\n        /* \"#utility.yul\":853:878   */\n      mload\n        /* \"#utility.yul\":843:878   */\n      swap4\n      pop\n        /* \"#utility.yul\":918:920   */\n      0x40\n        /* \"#utility.yul\":907:916   */\n      dup7\n        /* \"#utility.yul\":903:921   */\n      add\n        /* \"#utility.yul\":897:922   */\n      mload\n        /* \"#utility.yul\":887:922   */\n      swap3\n      pop\n        /* \"#utility.yul\":962:964   */\n      0x60\n        /* \"#utility.yul\":951:960   */\n      dup7\n        /* \"#utility.yul\":947:965   */\n      add\n        /* \"#utility.yul\":941:966   */\n      mload\n        /* \"#utility.yul\":931:966   */\n      swap2\n      pop\n        /* \"#utility.yul\":985:1034   */\n      tag_37\n        /* \"#utility.yul\":1029:1032   */\n      0x80\n        /* \"#utility.yul\":1018:1027   */\n      dup8\n        /* \"#utility.yul\":1014:1033   */\n      add\n        /* \"#utility.yul\":985:1034   */\n      tag_28\n      jump\t// in\n    tag_37:\n        /* \"#utility.yul\":975:1034   */\n      swap1\n      pop\n        /* \"#utility.yul\":567:1040   */\n      swap3\n      swap6\n      pop\n      swap3\n      swap6\n      swap1\n      swap4\n      pop\n      jump\t// out\n        /* \"#utility.yul\":1397:1670   */\n    tag_27:\n        /* \"#utility.yul\":1465:1471   */\n      0x00\n        /* \"#utility.yul\":1518:1520   */\n      0x20\n        /* \"#utility.yul\":1506:1515   */\n      dup3\n        /* \"#utility.yul\":1497:1504   */\n      dup5\n        /* \"#utility.yul\":1493:1516   */\n      sub\n        /* \"#utility.yul\":1489:1521   */\n      slt\n        /* \"#utility.yul\":1486:1538   */\n      iszero\n      tag_40\n      jumpi\n        /* \"#utility.yul\":1534:1535   */\n      0x00\n        /* \"#utility.yul\":1531:1532   */\n      dup1\n        /* \"#utility.yul\":1524:1536   */\n      revert\n        /* \"#utility.yul\":1486:1538   */\n    tag_40:\n        /* \"#utility.yul\":1566:1575   */\n      dup2\n        /* \"#utility.yul\":1560:1576   */\n      mload\n        /* \"#utility.yul\":1616:1620   */\n      0xff\n        /* \"#utility.yul\":1609:1614   */\n      dup2\n        /* \"#utility.yul\":1605:1621   */\n      and\n        /* \"#utility.yul\":1598:1603   */\n      dup2\n        /* \"#utility.yul\":1595:1622   */\n      eq\n        /* \"#utility.yul\":1585:1640   */\n      tag_41\n      jumpi\n        /* \"#utility.yul\":1636:1637   */\n      0x00\n        /* \"#utility.yul\":1633:1634   */\n      dup1\n        /* \"#utility.yul\":1626:1638   */\n      revert\n        /* \"#utility.yul\":1585:1640   */\n    tag_41:\n        /* \"#utility.yul\":1659:1664   */\n      swap4\n        /* \"#utility.yul\":1397:1670   */\n      swap3\n      pop\n      pop\n      pop\n      jump\t// out\n\n    auxdata: 0xa2646970667358221220c04343a1372d10f45458fdc72071c9833c5714b696dc7a52a33a3531b17d4d6864736f6c63430008150033\n}\n",
				"bytecode": {
					"linkReferences": {},
					"object": "608060405234801561000f575f80fd5b505f80546001600160a01b03191673cd2a119bd1f7df95d706de6f2057fdd45a0503e21790556102ba806100425f395ff3fe608060405234801561000f575f80fd5b5060043610610034575f3560e01c80638e15f47314610038578063f0141d8414610053575b5f80fd5b61004061006d565b6040519081526020015b60405180910390f35b61005b61017a565b60405160ff909116815260200161004a565b5f805f805f805f9054906101000a90046001600160a01b03166001600160a01b031663feaf968c6040518163ffffffff1660e01b815260040160a060405180830381865afa1580156100c1573d5f803e3d5ffd5b505050506040513d601f19601f820116820180604052508101906100e59190610211565b9450945050935093505f83121580156100fd57508115155b801561012157508369ffffffffffffffffffff168169ffffffffffffffffffff1610155b6101715760405162461bcd60e51b815260206004820152601760248201527f496e76616c696420636861696e6c696e6b207072696365000000000000000000604482015260640160405180910390fd5b50909392505050565b5f805f9054906101000a90046001600160a01b03166001600160a01b031663313ce5676040518163ffffffff1660e01b8152600401602060405180830381865afa1580156101ca573d5f803e3d5ffd5b505050506040513d601f19601f820116820180604052508101906101ee919061025d565b905090565b805169ffffffffffffffffffff8116811461020c575f80fd5b919050565b5f805f805f60a08688031215610225575f80fd5b61022e866101f3565b9450602086015193506040860151925060608601519150610251608087016101f3565b90509295509295909350565b5f6020828403121561026d575f80fd5b815160ff8116811461027d575f80fd5b939250505056fea2646970667358221220c04343a1372d10f45458fdc72071c9833c5714b696dc7a52a33a3531b17d4d6864736f6c63430008150033",
					"opcodes": "PUSH1 0x80 PUSH1 0x40 MSTORE CALLVALUE DUP1 ISZERO PUSH2 0xF JUMPI PUSH0 DUP1 REVERT JUMPDEST POP PUSH0 DUP1 SLOAD PUSH1 0x1 PUSH1 0x1 PUSH1 0xA0 SHL SUB NOT AND PUSH20 0xCD2A119BD1F7DF95D706DE6F2057FDD45A0503E2 OR SWAP1 SSTORE PUSH2 0x2BA DUP1 PUSH2 0x42 PUSH0 CODECOPY PUSH0 RETURN INVALID PUSH1 0x80 PUSH1 0x40 MSTORE CALLVALUE DUP1 ISZERO PUSH2 0xF JUMPI PUSH0 DUP1 REVERT JUMPDEST POP PUSH1 0x4 CALLDATASIZE LT PUSH2 0x34 JUMPI PUSH0 CALLDATALOAD PUSH1 0xE0 SHR DUP1 PUSH4 0x8E15F473 EQ PUSH2 0x38 JUMPI DUP1 PUSH4 0xF0141D84 EQ PUSH2 0x53 JUMPI JUMPDEST PUSH0 DUP1 REVERT JUMPDEST PUSH2 0x40 PUSH2 0x6D JUMP JUMPDEST PUSH1 0x40 MLOAD SWAP1 DUP2 MSTORE PUSH1 0x20 ADD JUMPDEST PUSH1 0x40 MLOAD DUP1 SWAP2 SUB SWAP1 RETURN JUMPDEST PUSH2 0x5B PUSH2 0x17A JUMP JUMPDEST PUSH1 0x40 MLOAD PUSH1 0xFF SWAP1 SWAP2 AND DUP2 MSTORE PUSH1 0x20 ADD PUSH2 0x4A JUMP JUMPDEST PUSH0 DUP1 PUSH0 DUP1 PUSH0 DUP1 PUSH0 SWAP1 SLOAD SWAP1 PUSH2 0x100 EXP SWAP1 DIV PUSH1 0x1 PUSH1 0x1 PUSH1 0xA0 SHL SUB AND PUSH1 0x1 PUSH1 0x1 PUSH1 0xA0 SHL SUB AND PUSH4 0xFEAF968C PUSH1 0x40 MLOAD DUP2 PUSH4 0xFFFFFFFF AND PUSH1 0xE0 SHL DUP2 MSTORE PUSH1 0x4 ADD PUSH1 0xA0 PUSH1 0x40 MLOAD DUP1 DUP4 SUB DUP2 DUP7 GAS STATICCALL ISZERO DUP1 ISZERO PUSH2 0xC1 JUMPI RETURNDATASIZE PUSH0 DUP1 RETURNDATACOPY RETURNDATASIZE PUSH0 REVERT JUMPDEST POP POP POP POP PUSH1 0x40 MLOAD RETURNDATASIZE PUSH1 0x1F NOT PUSH1 0x1F DUP3 ADD AND DUP3 ADD DUP1 PUSH1 0x40 MSTORE POP DUP2 ADD SWAP1 PUSH2 0xE5 SWAP2 SWAP1 PUSH2 0x211 JUMP JUMPDEST SWAP5 POP SWAP5 POP POP SWAP4 POP SWAP4 POP PUSH0 DUP4 SLT ISZERO DUP1 ISZERO PUSH2 0xFD JUMPI POP DUP2 ISZERO ISZERO JUMPDEST DUP1 ISZERO PUSH2 0x121 JUMPI POP DUP4 PUSH10 0xFFFFFFFFFFFFFFFFFFFF AND DUP2 PUSH10 0xFFFFFFFFFFFFFFFFFFFF AND LT ISZERO JUMPDEST PUSH2 0x171 JUMPI PUSH1 0x40 MLOAD PUSH3 0x461BCD PUSH1 0xE5 SHL DUP2 MSTORE PUSH1 0x20 PUSH1 0x4 DUP3 ADD MSTORE PUSH1 0x17 PUSH1 0x24 DUP3 ADD MSTORE PUSH32 0x496E76616C696420636861696E6C696E6B207072696365000000000000000000 PUSH1 0x44 DUP3 ADD MSTORE PUSH1 0x64 ADD PUSH1 0x40 MLOAD DUP1 SWAP2 SUB SWAP1 REVERT JUMPDEST POP SWAP1 SWAP4 SWAP3 POP POP POP JUMP JUMPDEST PUSH0 DUP1 PUSH0 SWAP1 SLOAD SWAP1 PUSH2 0x100 EXP SWAP1 DIV PUSH1 0x1 PUSH1 0x1 PUSH1 0xA0 SHL SUB AND PUSH1 0x1 PUSH1 0x1 PUSH1 0xA0 SHL SUB AND PUSH4 0x313CE567 PUSH1 0x40 MLOAD DUP2 PUSH4 0xFFFFFFFF AND PUSH1 0xE0 SHL DUP2 MSTORE PUSH1 0x4 ADD PUSH1 0x20 PUSH1 0x40 MLOAD DUP1 DUP4 SUB DUP2 DUP7 GAS STATICCALL ISZERO DUP1 ISZERO PUSH2 0x1CA JUMPI RETURNDATASIZE PUSH0 DUP1 RETURNDATACOPY RETURNDATASIZE PUSH0 REVERT JUMPDEST POP POP POP POP PUSH1 0x40 MLOAD RETURNDATASIZE PUSH1 0x1F NOT PUSH1 0x1F DUP3 ADD AND DUP3 ADD DUP1 PUSH1 0x40 MSTORE POP DUP2 ADD SWAP1 PUSH2 0x1EE SWAP2 SWAP1 PUSH2 0x25D JUMP JUMPDEST SWAP1 POP SWAP1 JUMP JUMPDEST DUP1 MLOAD PUSH10 0xFFFFFFFFFFFFFFFFFFFF DUP2 AND DUP2 EQ PUSH2 0x20C JUMPI PUSH0 DUP1 REVERT JUMPDEST SWAP2 SWAP1 POP JUMP JUMPDEST PUSH0 DUP1 PUSH0 DUP1 PUSH0 PUSH1 0xA0 DUP7 DUP9 SUB SLT ISZERO PUSH2 0x225 JUMPI PUSH0 DUP1 REVERT JUMPDEST PUSH2 0x22E DUP7 PUSH2 0x1F3 JUMP JUMPDEST SWAP5 POP PUSH1 0x20 DUP7 ADD MLOAD SWAP4 POP PUSH1 0x40 DUP7 ADD MLOAD SWAP3 POP PUSH1 0x60 DUP7 ADD MLOAD SWAP2 POP PUSH2 0x251 PUSH1 0x80 DUP8 ADD PUSH2 0x1F3 JUMP JUMPDEST SWAP1 POP SWAP3 SWAP6 POP SWAP3 SWAP6 SWAP1 SWAP4 POP JUMP JUMPDEST PUSH0 PUSH1 0x20 DUP3 DUP5 SUB SLT ISZERO PUSH2 0x26D JUMPI PUSH0 DUP1 REVERT JUMPDEST DUP2 MLOAD PUSH1 0xFF DUP2 AND DUP2 EQ PUSH2 0x27D JUMPI PUSH0 DUP1 REVERT JUMPDEST SWAP4 SWAP3 POP POP POP JUMP INVALID LOG2 PUSH5 0x6970667358 0x22 SLT KECCAK256 0xC0 NUMBER NUMBER LOG1 CALLDATACOPY 0x2D LT DELEGATECALL SLOAD PC REVERT 0xC7 KECCAK256 PUSH18 0xC9833C5714B696DC7A52A33A3531B17D4D68 PUSH5 0x736F6C6343 STOP ADDMOD ISZERO STOP CALLER "
				},
				"gasEstimates": {
					"creation": {
						"codeDepositCost": "139600",
						"executionCost": "24416",
						"totalCost": "164016"
					},
					"external": {
						"getDecimals()": "infinite",
						"getLatestPrice()": "infinite"
					}
				},
				"methodIdentifiers": {
					"getDecimals()": "f0141d84",
					"getLatestPrice()": "8e15f473"
				}
			},
			"storageLayout": {
				"storage": [
					{
						"astId": 51,
						"contract": "NewFraxProtocol/contracts/Oracle/ChainlinkETHUSDPriceConsumer.sol:ChainlinkETHUSDPriceConsumer",
						"label": "priceFeed",
						"offset": 0,
						"slot": "0",
						"type": "t_contract(AggregatorV3Interface)45"
					}
				],
				"types": {
					"t_contract(AggregatorV3Interface)45": {
						"encoding": "inplace",
						"label": "contract AggregatorV3Interface",
						"numberOfBytes": "20"
					}
				}
			},
			"userdoc": {
				"kind": "user",
				"methods": {
					"getLatestPrice()": {
						"notice": "Returns the latest price"
					}
				},
				"version": 1
			}
		}
	}
}