{
	"NewFraxProtocol/contracts/Staking/Owned.sol": {
		"Owned": {
			"abi": [
				{
					"inputs": [
						{
							"internalType": "address",
							"name": "_owner",
							"type": "address"
						}
					],
					"stateMutability": "nonpayable",
					"type": "constructor"
				},
				{
					"anonymous": false,
					"inputs": [
						{
							"indexed": false,
							"internalType": "address",
							"name": "oldOwner",
							"type": "address"
						},
						{
							"indexed": false,
							"internalType": "address",
							"name": "newOwner",
							"type": "address"
						}
					],
					"name": "OwnerChanged",
					"type": "event"
				},
				{
					"anonymous": false,
					"inputs": [
						{
							"indexed": false,
							"internalType": "address",
							"name": "newOwner",
							"type": "address"
						}
					],
					"name": "OwnerNominated",
					"type": "event"
				},
				{
					"inputs": [],
					"name": "acceptOwnership",
					"outputs": [],
					"stateMutability": "nonpayable",
					"type": "function"
				},
				{
					"inputs": [
						{
							"internalType": "address",
							"name": "_owner",
							"type": "address"
						}
					],
					"name": "nominateNewOwner",
					"outputs": [],
					"stateMutability": "nonpayable",
					"type": "function"
				},
				{
					"inputs": [],
					"name": "nominatedOwner",
					"outputs": [
						{
							"internalType": "address",
							"name": "",
							"type": "address"
						}
					],
					"stateMutability": "view",
					"type": "function"
				},
				{
					"inputs": [],
					"name": "owner",
					"outputs": [
						{
							"internalType": "address",
							"name": "",
							"type": "address"
						}
					],
					"stateMutability": "view",
					"type": "function"
				}
			],
			"devdoc": {
				"kind": "dev",
				"methods": {},
				"version": 1
			},
			"evm": {
				"assembly": "    /* \"NewFraxProtocol/contracts/Staking/Owned.sol\":117:1037  contract Owned {... */\n  mstore(0x40, 0x80)\n    /* \"NewFraxProtocol/contracts/Staking/Owned.sol\":200:382  constructor (address _owner) public {... */\n  callvalue\n  dup1\n  iszero\n  tag_1\n  jumpi\n  0x00\n  dup1\n  revert\ntag_1:\n  pop\n  mload(0x40)\n  sub(codesize, bytecodeSize)\n  dup1\n  bytecodeSize\n  dup4\n  codecopy\n  dup2\n  add\n  0x40\n  dup2\n  swap1\n  mstore\n  tag_2\n  swap2\n  tag_3\n  jump\t// in\ntag_2:\n  sub(shl(0xa0, 0x01), 0x01)\n    /* \"NewFraxProtocol/contracts/Staking/Owned.sol\":254:274  _owner != address(0) */\n  dup2\n  and\n    /* \"NewFraxProtocol/contracts/Staking/Owned.sol\":246:304  require(_owner != address(0), \"Owner address cannot be 0\") */\n  tag_6\n  jumpi\n  mload(0x40)\n  shl(0xe5, 0x461bcd)\n  dup2\n  mstore\n    /* \"#utility.yul\":511:513   */\n  0x20\n    /* \"NewFraxProtocol/contracts/Staking/Owned.sol\":246:304  require(_owner != address(0), \"Owner address cannot be 0\") */\n  0x04\n  dup3\n  add\n    /* \"#utility.yul\":493:514   */\n  mstore\n    /* \"#utility.yul\":550:552   */\n  0x19\n    /* \"#utility.yul\":530:548   */\n  0x24\n  dup3\n  add\n    /* \"#utility.yul\":523:553   */\n  mstore\n    /* \"#utility.yul\":589:616   */\n  0x4f776e657220616464726573732063616e6e6f74206265203000000000000000\n    /* \"#utility.yul\":569:587   */\n  0x44\n  dup3\n  add\n    /* \"#utility.yul\":562:617   */\n  mstore\n    /* \"#utility.yul\":634:652   */\n  0x64\n  add\n    /* \"NewFraxProtocol/contracts/Staking/Owned.sol\":246:304  require(_owner != address(0), \"Owner address cannot be 0\") */\n  mload(0x40)\n  dup1\n  swap2\n  sub\n  swap1\n  revert\ntag_6:\n    /* \"NewFraxProtocol/contracts/Staking/Owned.sol\":314:319  owner */\n  0x00\n    /* \"NewFraxProtocol/contracts/Staking/Owned.sol\":314:328  owner = _owner */\n  dup1\n  sload\n  not(sub(shl(0xa0, 0x01), 0x01))\n  and\n  sub(shl(0xa0, 0x01), 0x01)\n  dup4\n  and\n  swap1\n  dup2\n  or\n  dup3\n  sstore\n    /* \"NewFraxProtocol/contracts/Staking/Owned.sol\":343:375  OwnerChanged(address(0), _owner) */\n  0x40\n  dup1\n  mload\n    /* \"#utility.yul\":875:909   */\n  swap3\n  dup4\n  mstore\n    /* \"#utility.yul\":940:942   */\n  0x20\n    /* \"#utility.yul\":925:943   */\n  dup4\n  add\n    /* \"#utility.yul\":918:961   */\n  swap2\n  swap1\n  swap2\n  mstore\n    /* \"NewFraxProtocol/contracts/Staking/Owned.sol\":343:375  OwnerChanged(address(0), _owner) */\n  0xb532073b38c83145e3e5135377a08bf9aab55bc0fd7c1179cd4fb995d2a5159c\n  swap2\n    /* \"#utility.yul\":810:828   */\n  add\n    /* \"NewFraxProtocol/contracts/Staking/Owned.sol\":343:375  OwnerChanged(address(0), _owner) */\n  mload(0x40)\n  dup1\n  swap2\n  sub\n  swap1\n  log1\n    /* \"NewFraxProtocol/contracts/Staking/Owned.sol\":200:382  constructor (address _owner) public {... */\n  pop\n    /* \"NewFraxProtocol/contracts/Staking/Owned.sol\":117:1037  contract Owned {... */\n  jump(tag_12)\n    /* \"#utility.yul\":14:304   */\ntag_3:\n    /* \"#utility.yul\":84:90   */\n  0x00\n    /* \"#utility.yul\":137:139   */\n  0x20\n    /* \"#utility.yul\":125:134   */\n  dup3\n    /* \"#utility.yul\":116:123   */\n  dup5\n    /* \"#utility.yul\":112:135   */\n  sub\n    /* \"#utility.yul\":108:140   */\n  slt\n    /* \"#utility.yul\":105:157   */\n  iszero\n  tag_14\n  jumpi\n    /* \"#utility.yul\":153:154   */\n  0x00\n    /* \"#utility.yul\":150:151   */\n  dup1\n    /* \"#utility.yul\":143:155   */\n  revert\n    /* \"#utility.yul\":105:157   */\ntag_14:\n    /* \"#utility.yul\":179:195   */\n  dup2\n  mload\n  sub(shl(0xa0, 0x01), 0x01)\n    /* \"#utility.yul\":224:255   */\n  dup2\n  and\n    /* \"#utility.yul\":214:256   */\n  dup2\n  eq\n    /* \"#utility.yul\":204:274   */\n  tag_15\n  jumpi\n    /* \"#utility.yul\":270:271   */\n  0x00\n    /* \"#utility.yul\":267:268   */\n  dup1\n    /* \"#utility.yul\":260:272   */\n  revert\n    /* \"#utility.yul\":204:274   */\ntag_15:\n    /* \"#utility.yul\":293:298   */\n  swap4\n    /* \"#utility.yul\":14:304   */\n  swap3\n  pop\n  pop\n  pop\n  jump\t// out\n    /* \"#utility.yul\":663:967   */\ntag_12:\n    /* \"NewFraxProtocol/contracts/Staking/Owned.sol\":117:1037  contract Owned {... */\n  dataSize(sub_0)\n  dup1\n  dataOffset(sub_0)\n  0x00\n  codecopy\n  0x00\n  return\nstop\n\nsub_0: assembly {\n        /* \"NewFraxProtocol/contracts/Staking/Owned.sol\":117:1037  contract Owned {... */\n      mstore(0x40, 0x80)\n      callvalue\n      dup1\n      iszero\n      tag_1\n      jumpi\n      0x00\n      dup1\n      revert\n    tag_1:\n      pop\n      jumpi(tag_2, lt(calldatasize, 0x04))\n      shr(0xe0, calldataload(0x00))\n      dup1\n      0x1627540c\n      eq\n      tag_3\n      jumpi\n      dup1\n      0x53a47bb7\n      eq\n      tag_4\n      jumpi\n      dup1\n      0x79ba5097\n      eq\n      tag_5\n      jumpi\n      dup1\n      0x8da5cb5b\n      eq\n      tag_6\n      jumpi\n    tag_2:\n      0x00\n      dup1\n      revert\n        /* \"NewFraxProtocol/contracts/Staking/Owned.sol\":388:526  function nominateNewOwner(address _owner) external onlyOwner {... */\n    tag_3:\n      tag_7\n      tag_8\n      calldatasize\n      0x04\n      tag_9\n      jump\t// in\n    tag_8:\n      tag_10\n      jump\t// in\n    tag_7:\n      stop\n        /* \"NewFraxProtocol/contracts/Staking/Owned.sol\":164:193  address public nominatedOwner */\n    tag_4:\n      sload(0x01)\n      tag_11\n      swap1\n      sub(shl(0xa0, 0x01), 0x01)\n      and\n      dup2\n      jump\n    tag_11:\n      mload(0x40)\n      sub(shl(0xa0, 0x01), 0x01)\n        /* \"#utility.yul\":469:501   */\n      swap1\n      swap2\n      and\n        /* \"#utility.yul\":451:502   */\n      dup2\n      mstore\n        /* \"#utility.yul\":439:441   */\n      0x20\n        /* \"#utility.yul\":424:442   */\n      add\n        /* \"NewFraxProtocol/contracts/Staking/Owned.sol\":164:193  address public nominatedOwner */\n      mload(0x40)\n      dup1\n      swap2\n      sub\n      swap1\n      return\n        /* \"NewFraxProtocol/contracts/Staking/Owned.sol\":532:798  function acceptOwnership() external {... */\n    tag_5:\n      tag_7\n      tag_16\n      jump\t// in\n        /* \"NewFraxProtocol/contracts/Staking/Owned.sol\":138:158  address public owner */\n    tag_6:\n      sload(0x00)\n      tag_11\n      swap1\n      sub(shl(0xa0, 0x01), 0x01)\n      and\n      dup2\n      jump\n        /* \"NewFraxProtocol/contracts/Staking/Owned.sol\":388:526  function nominateNewOwner(address _owner) external onlyOwner {... */\n    tag_10:\n        /* \"NewFraxProtocol/contracts/Staking/Owned.sol\":855:860  owner */\n      and(sub(shl(0xa0, 0x01), 0x01), sload(0x00))\n        /* \"NewFraxProtocol/contracts/Staking/Owned.sol\":841:851  msg.sender */\n      caller\n        /* \"NewFraxProtocol/contracts/Staking/Owned.sol\":841:860  msg.sender == owner */\n      eq\n        /* \"NewFraxProtocol/contracts/Staking/Owned.sol\":833:912  require(msg.sender == owner, \"Only the contract owner may perform this action\") */\n      tag_21\n      jumpi\n      mload(0x40)\n      shl(0xe5, 0x461bcd)\n      dup2\n      mstore\n        /* \"#utility.yul\":715:717   */\n      0x20\n        /* \"NewFraxProtocol/contracts/Staking/Owned.sol\":833:912  require(msg.sender == owner, \"Only the contract owner may perform this action\") */\n      0x04\n      dup3\n      add\n        /* \"#utility.yul\":697:718   */\n      mstore\n        /* \"#utility.yul\":754:756   */\n      0x2f\n        /* \"#utility.yul\":734:752   */\n      0x24\n      dup3\n      add\n        /* \"#utility.yul\":727:757   */\n      mstore\n        /* \"#utility.yul\":793:827   */\n      0x4f6e6c792074686520636f6e7472616374206f776e6572206d61792070657266\n        /* \"#utility.yul\":773:791   */\n      0x44\n      dup3\n      add\n        /* \"#utility.yul\":766:828   */\n      mstore\n      shl(0x89, 0x37b936903a3434b99030b1ba34b7b7)\n        /* \"#utility.yul\":844:862   */\n      0x64\n      dup3\n      add\n        /* \"#utility.yul\":837:882   */\n      mstore\n        /* \"#utility.yul\":899:918   */\n      0x84\n      add\n        /* \"NewFraxProtocol/contracts/Staking/Owned.sol\":833:912  require(msg.sender == owner, \"Only the contract owner may perform this action\") */\n    tag_22:\n      mload(0x40)\n      dup1\n      swap2\n      sub\n      swap1\n      revert\n    tag_21:\n        /* \"NewFraxProtocol/contracts/Staking/Owned.sol\":459:473  nominatedOwner */\n      0x01\n        /* \"NewFraxProtocol/contracts/Staking/Owned.sol\":459:482  nominatedOwner = _owner */\n      dup1\n      sload\n      not(sub(shl(0xa0, 0x01), 0x01))\n      and\n      sub(shl(0xa0, 0x01), 0x01)\n      dup4\n      and\n      swap1\n      dup2\n      or\n      swap1\n      swap2\n      sstore\n        /* \"NewFraxProtocol/contracts/Staking/Owned.sol\":497:519  OwnerNominated(_owner) */\n      mload(0x40)\n        /* \"#utility.yul\":451:502   */\n      swap1\n      dup2\n      mstore\n        /* \"NewFraxProtocol/contracts/Staking/Owned.sol\":497:519  OwnerNominated(_owner) */\n      0x906a1c6bd7e3091ea86693dd029a831c19049ce77f1dce2ce0bab1cacbabce22\n      swap1\n        /* \"#utility.yul\":439:441   */\n      0x20\n        /* \"#utility.yul\":424:442   */\n      add\n        /* \"NewFraxProtocol/contracts/Staking/Owned.sol\":497:519  OwnerNominated(_owner) */\n      mload(0x40)\n      dup1\n      swap2\n      sub\n      swap1\n      log1\n        /* \"NewFraxProtocol/contracts/Staking/Owned.sol\":388:526  function nominateNewOwner(address _owner) external onlyOwner {... */\n      pop\n      jump\t// out\n        /* \"NewFraxProtocol/contracts/Staking/Owned.sol\":532:798  function acceptOwnership() external {... */\n    tag_16:\n        /* \"NewFraxProtocol/contracts/Staking/Owned.sol\":600:614  nominatedOwner */\n      and(sub(shl(0xa0, 0x01), 0x01), sload(0x01))\n        /* \"NewFraxProtocol/contracts/Staking/Owned.sol\":586:596  msg.sender */\n      caller\n        /* \"NewFraxProtocol/contracts/Staking/Owned.sol\":586:614  msg.sender == nominatedOwner */\n      eq\n        /* \"NewFraxProtocol/contracts/Staking/Owned.sol\":578:672  require(msg.sender == nominatedOwner, \"You must be nominated before you can accept ownership\") */\n      tag_27\n      jumpi\n      mload(0x40)\n      shl(0xe5, 0x461bcd)\n      dup2\n      mstore\n        /* \"#utility.yul\":1131:1133   */\n      0x20\n        /* \"NewFraxProtocol/contracts/Staking/Owned.sol\":578:672  require(msg.sender == nominatedOwner, \"You must be nominated before you can accept ownership\") */\n      0x04\n      dup3\n      add\n        /* \"#utility.yul\":1113:1134   */\n      mstore\n        /* \"#utility.yul\":1170:1172   */\n      0x35\n        /* \"#utility.yul\":1150:1168   */\n      0x24\n      dup3\n      add\n        /* \"#utility.yul\":1143:1173   */\n      mstore\n        /* \"#utility.yul\":1209:1243   */\n      0x596f75206d757374206265206e6f6d696e61746564206265666f726520796f75\n        /* \"#utility.yul\":1189:1207   */\n      0x44\n      dup3\n      add\n        /* \"#utility.yul\":1182:1244   */\n      mstore\n      shl(0x5c, 0x02063616e20616363657074206f776e65727368697)\n        /* \"#utility.yul\":1260:1278   */\n      0x64\n      dup3\n      add\n        /* \"#utility.yul\":1253:1304   */\n      mstore\n        /* \"#utility.yul\":1321:1340   */\n      0x84\n      add\n        /* \"NewFraxProtocol/contracts/Staking/Owned.sol\":578:672  require(msg.sender == nominatedOwner, \"You must be nominated before you can accept ownership\") */\n      tag_22\n        /* \"#utility.yul\":929:1346   */\n      jump\n        /* \"NewFraxProtocol/contracts/Staking/Owned.sol\":578:672  require(msg.sender == nominatedOwner, \"You must be nominated before you can accept ownership\") */\n    tag_27:\n        /* \"NewFraxProtocol/contracts/Staking/Owned.sol\":700:705  owner */\n      sload(0x00)\n      0x01\n        /* \"NewFraxProtocol/contracts/Staking/Owned.sol\":707:721  nominatedOwner */\n      sload\n        /* \"NewFraxProtocol/contracts/Staking/Owned.sol\":687:722  OwnerChanged(owner, nominatedOwner) */\n      0x40\n      dup1\n      mload\n      sub(shl(0xa0, 0x01), 0x01)\n        /* \"NewFraxProtocol/contracts/Staking/Owned.sol\":700:705  owner */\n      swap4\n      dup5\n      and\n        /* \"#utility.yul\":1563:1597   */\n      dup2\n      mstore\n        /* \"NewFraxProtocol/contracts/Staking/Owned.sol\":707:721  nominatedOwner */\n      swap3\n      swap1\n      swap2\n      and\n        /* \"#utility.yul\":1628:1630   */\n      0x20\n        /* \"#utility.yul\":1613:1631   */\n      dup4\n      add\n        /* \"#utility.yul\":1606:1649   */\n      mstore\n        /* \"NewFraxProtocol/contracts/Staking/Owned.sol\":687:722  OwnerChanged(owner, nominatedOwner) */\n      0xb532073b38c83145e3e5135377a08bf9aab55bc0fd7c1179cd4fb995d2a5159c\n      swap2\n        /* \"#utility.yul\":1498:1516   */\n      add\n        /* \"NewFraxProtocol/contracts/Staking/Owned.sol\":687:722  OwnerChanged(owner, nominatedOwner) */\n      mload(0x40)\n      dup1\n      swap2\n      sub\n      swap1\n      log1\n        /* \"NewFraxProtocol/contracts/Staking/Owned.sol\":740:754  nominatedOwner */\n      0x01\n      dup1\n      sload\n      0x00\n        /* \"NewFraxProtocol/contracts/Staking/Owned.sol\":732:754  owner = nominatedOwner */\n      dup1\n      sload\n      not(sub(shl(0xa0, 0x01), 0x01))\n      swap1\n      dup2\n      and\n      sub(shl(0xa0, 0x01), 0x01)\n        /* \"NewFraxProtocol/contracts/Staking/Owned.sol\":740:754  nominatedOwner */\n      dup5\n      and\n        /* \"NewFraxProtocol/contracts/Staking/Owned.sol\":732:754  owner = nominatedOwner */\n      or\n      swap1\n      swap2\n      sstore\n        /* \"NewFraxProtocol/contracts/Staking/Owned.sol\":764:791  nominatedOwner = address(0) */\n      and\n      swap1\n      sstore\n        /* \"NewFraxProtocol/contracts/Staking/Owned.sol\":532:798  function acceptOwnership() external {... */\n      jump\t// out\n        /* \"#utility.yul\":14:300   */\n    tag_9:\n        /* \"#utility.yul\":73:79   */\n      0x00\n        /* \"#utility.yul\":126:128   */\n      0x20\n        /* \"#utility.yul\":114:123   */\n      dup3\n        /* \"#utility.yul\":105:112   */\n      dup5\n        /* \"#utility.yul\":101:124   */\n      sub\n        /* \"#utility.yul\":97:129   */\n      slt\n        /* \"#utility.yul\":94:146   */\n      iszero\n      tag_34\n      jumpi\n        /* \"#utility.yul\":142:143   */\n      0x00\n        /* \"#utility.yul\":139:140   */\n      dup1\n        /* \"#utility.yul\":132:144   */\n      revert\n        /* \"#utility.yul\":94:146   */\n    tag_34:\n        /* \"#utility.yul\":168:191   */\n      dup2\n      calldataload\n      sub(shl(0xa0, 0x01), 0x01)\n        /* \"#utility.yul\":220:251   */\n      dup2\n      and\n        /* \"#utility.yul\":210:252   */\n      dup2\n      eq\n        /* \"#utility.yul\":200:270   */\n      tag_35\n      jumpi\n        /* \"#utility.yul\":266:267   */\n      0x00\n        /* \"#utility.yul\":263:264   */\n      dup1\n        /* \"#utility.yul\":256:268   */\n      revert\n        /* \"#utility.yul\":200:270   */\n    tag_35:\n        /* \"#utility.yul\":289:294   */\n      swap4\n        /* \"#utility.yul\":14:300   */\n      swap3\n      pop\n      pop\n      pop\n      jump\t// out\n\n    auxdata: 0xa26469706673582212208265f7858fc60f8e6942e4dfed19c1c706823449771948b616a6a866ad51e1bd64736f6c63430008150033\n}\n",
				"bytecode": {
					"linkReferences": {},
					"object": "608060405234801561000f575f80fd5b506040516103df3803806103df83398101604081905261002e916100e4565b6001600160a01b0381166100885760405162461bcd60e51b815260206004820152601960248201527f4f776e657220616464726573732063616e6e6f74206265203000000000000000604482015260640160405180910390fd5b5f80546001600160a01b0319166001600160a01b03831690811782556040805192835260208301919091527fb532073b38c83145e3e5135377a08bf9aab55bc0fd7c1179cd4fb995d2a5159c910160405180910390a150610111565b5f602082840312156100f4575f80fd5b81516001600160a01b038116811461010a575f80fd5b9392505050565b6102c18061011e5f395ff3fe608060405234801561000f575f80fd5b506004361061004a575f3560e01c80631627540c1461004e57806353a47bb71461006357806379ba5097146100925780638da5cb5b1461009a575b5f80fd5b61006161005c36600461025e565b6100ac565b005b600154610076906001600160a01b031681565b6040516001600160a01b03909116815260200160405180910390f35b610061610176565b5f54610076906001600160a01b031681565b5f546001600160a01b031633146101225760405162461bcd60e51b815260206004820152602f60248201527f4f6e6c792074686520636f6e7472616374206f776e6572206d6179207065726660448201526e37b936903a3434b99030b1ba34b7b760891b60648201526084015b60405180910390fd5b600180546001600160a01b0319166001600160a01b0383169081179091556040519081527f906a1c6bd7e3091ea86693dd029a831c19049ce77f1dce2ce0bab1cacbabce229060200160405180910390a150565b6001546001600160a01b031633146101ee5760405162461bcd60e51b815260206004820152603560248201527f596f75206d757374206265206e6f6d696e61746564206265666f726520796f7560448201527402063616e20616363657074206f776e65727368697605c1b6064820152608401610119565b5f54600154604080516001600160a01b0393841681529290911660208301527fb532073b38c83145e3e5135377a08bf9aab55bc0fd7c1179cd4fb995d2a5159c910160405180910390a1600180545f80546001600160a01b03199081166001600160a01b03841617909155169055565b5f6020828403121561026e575f80fd5b81356001600160a01b0381168114610284575f80fd5b939250505056fea26469706673582212208265f7858fc60f8e6942e4dfed19c1c706823449771948b616a6a866ad51e1bd64736f6c63430008150033",
					"opcodes": "PUSH1 0x80 PUSH1 0x40 MSTORE CALLVALUE DUP1 ISZERO PUSH2 0xF JUMPI PUSH0 DUP1 REVERT JUMPDEST POP PUSH1 0x40 MLOAD PUSH2 0x3DF CODESIZE SUB DUP1 PUSH2 0x3DF DUP4 CODECOPY DUP2 ADD PUSH1 0x40 DUP2 SWAP1 MSTORE PUSH2 0x2E SWAP2 PUSH2 0xE4 JUMP JUMPDEST PUSH1 0x1 PUSH1 0x1 PUSH1 0xA0 SHL SUB DUP2 AND PUSH2 0x88 JUMPI PUSH1 0x40 MLOAD PUSH3 0x461BCD PUSH1 0xE5 SHL DUP2 MSTORE PUSH1 0x20 PUSH1 0x4 DUP3 ADD MSTORE PUSH1 0x19 PUSH1 0x24 DUP3 ADD MSTORE PUSH32 0x4F776E657220616464726573732063616E6E6F74206265203000000000000000 PUSH1 0x44 DUP3 ADD MSTORE PUSH1 0x64 ADD PUSH1 0x40 MLOAD DUP1 SWAP2 SUB SWAP1 REVERT JUMPDEST PUSH0 DUP1 SLOAD PUSH1 0x1 PUSH1 0x1 PUSH1 0xA0 SHL SUB NOT AND PUSH1 0x1 PUSH1 0x1 PUSH1 0xA0 SHL SUB DUP4 AND SWAP1 DUP2 OR DUP3 SSTORE PUSH1 0x40 DUP1 MLOAD SWAP3 DUP4 MSTORE PUSH1 0x20 DUP4 ADD SWAP2 SWAP1 SWAP2 MSTORE PUSH32 0xB532073B38C83145E3E5135377A08BF9AAB55BC0FD7C1179CD4FB995D2A5159C SWAP2 ADD PUSH1 0x40 MLOAD DUP1 SWAP2 SUB SWAP1 LOG1 POP PUSH2 0x111 JUMP JUMPDEST PUSH0 PUSH1 0x20 DUP3 DUP5 SUB SLT ISZERO PUSH2 0xF4 JUMPI PUSH0 DUP1 REVERT JUMPDEST DUP2 MLOAD PUSH1 0x1 PUSH1 0x1 PUSH1 0xA0 SHL SUB DUP2 AND DUP2 EQ PUSH2 0x10A JUMPI PUSH0 DUP1 REVERT JUMPDEST SWAP4 SWAP3 POP POP POP JUMP JUMPDEST PUSH2 0x2C1 DUP1 PUSH2 0x11E PUSH0 CODECOPY PUSH0 RETURN INVALID PUSH1 0x80 PUSH1 0x40 MSTORE CALLVALUE DUP1 ISZERO PUSH2 0xF JUMPI PUSH0 DUP1 REVERT JUMPDEST POP PUSH1 0x4 CALLDATASIZE LT PUSH2 0x4A JUMPI PUSH0 CALLDATALOAD PUSH1 0xE0 SHR DUP1 PUSH4 0x1627540C EQ PUSH2 0x4E JUMPI DUP1 PUSH4 0x53A47BB7 EQ PUSH2 0x63 JUMPI DUP1 PUSH4 0x79BA5097 EQ PUSH2 0x92 JUMPI DUP1 PUSH4 0x8DA5CB5B EQ PUSH2 0x9A JUMPI JUMPDEST PUSH0 DUP1 REVERT JUMPDEST PUSH2 0x61 PUSH2 0x5C CALLDATASIZE PUSH1 0x4 PUSH2 0x25E JUMP JUMPDEST PUSH2 0xAC JUMP JUMPDEST STOP JUMPDEST PUSH1 0x1 SLOAD PUSH2 0x76 SWAP1 PUSH1 0x1 PUSH1 0x1 PUSH1 0xA0 SHL SUB AND DUP2 JUMP JUMPDEST PUSH1 0x40 MLOAD PUSH1 0x1 PUSH1 0x1 PUSH1 0xA0 SHL SUB SWAP1 SWAP2 AND DUP2 MSTORE PUSH1 0x20 ADD PUSH1 0x40 MLOAD DUP1 SWAP2 SUB SWAP1 RETURN JUMPDEST PUSH2 0x61 PUSH2 0x176 JUMP JUMPDEST PUSH0 SLOAD PUSH2 0x76 SWAP1 PUSH1 0x1 PUSH1 0x1 PUSH1 0xA0 SHL SUB AND DUP2 JUMP JUMPDEST PUSH0 SLOAD PUSH1 0x1 PUSH1 0x1 PUSH1 0xA0 SHL SUB AND CALLER EQ PUSH2 0x122 JUMPI PUSH1 0x40 MLOAD PUSH3 0x461BCD PUSH1 0xE5 SHL DUP2 MSTORE PUSH1 0x20 PUSH1 0x4 DUP3 ADD MSTORE PUSH1 0x2F PUSH1 0x24 DUP3 ADD MSTORE PUSH32 0x4F6E6C792074686520636F6E7472616374206F776E6572206D61792070657266 PUSH1 0x44 DUP3 ADD MSTORE PUSH15 0x37B936903A3434B99030B1BA34B7B7 PUSH1 0x89 SHL PUSH1 0x64 DUP3 ADD MSTORE PUSH1 0x84 ADD JUMPDEST PUSH1 0x40 MLOAD DUP1 SWAP2 SUB SWAP1 REVERT JUMPDEST PUSH1 0x1 DUP1 SLOAD PUSH1 0x1 PUSH1 0x1 PUSH1 0xA0 SHL SUB NOT AND PUSH1 0x1 PUSH1 0x1 PUSH1 0xA0 SHL SUB DUP4 AND SWAP1 DUP2 OR SWAP1 SWAP2 SSTORE PUSH1 0x40 MLOAD SWAP1 DUP2 MSTORE PUSH32 0x906A1C6BD7E3091EA86693DD029A831C19049CE77F1DCE2CE0BAB1CACBABCE22 SWAP1 PUSH1 0x20 ADD PUSH1 0x40 MLOAD DUP1 SWAP2 SUB SWAP1 LOG1 POP JUMP JUMPDEST PUSH1 0x1 SLOAD PUSH1 0x1 PUSH1 0x1 PUSH1 0xA0 SHL SUB AND CALLER EQ PUSH2 0x1EE JUMPI PUSH1 0x40 MLOAD PUSH3 0x461BCD PUSH1 0xE5 SHL DUP2 MSTORE PUSH1 0x20 PUSH1 0x4 DUP3 ADD MSTORE PUSH1 0x35 PUSH1 0x24 DUP3 ADD MSTORE PUSH32 0x596F75206D757374206265206E6F6D696E61746564206265666F726520796F75 PUSH1 0x44 DUP3 ADD MSTORE PUSH21 0x2063616E20616363657074206F776E65727368697 PUSH1 0x5C SHL PUSH1 0x64 DUP3 ADD MSTORE PUSH1 0x84 ADD PUSH2 0x119 JUMP JUMPDEST PUSH0 SLOAD PUSH1 0x1 SLOAD PUSH1 0x40 DUP1 MLOAD PUSH1 0x1 PUSH1 0x1 PUSH1 0xA0 SHL SUB SWAP4 DUP5 AND DUP2 MSTORE SWAP3 SWAP1 SWAP2 AND PUSH1 0x20 DUP4 ADD MSTORE PUSH32 0xB532073B38C83145E3E5135377A08BF9AAB55BC0FD7C1179CD4FB995D2A5159C SWAP2 ADD PUSH1 0x40 MLOAD DUP1 SWAP2 SUB SWAP1 LOG1 PUSH1 0x1 DUP1 SLOAD PUSH0 DUP1 SLOAD PUSH1 0x1 PUSH1 0x1 PUSH1 0xA0 SHL SUB NOT SWAP1 DUP2 AND PUSH1 0x1 PUSH1 0x1 PUSH1 0xA0 SHL SUB DUP5 AND OR SWAP1 SWAP2 SSTORE AND SWAP1 SSTORE JUMP JUMPDEST PUSH0 PUSH1 0x20 DUP3 DUP5 SUB SLT ISZERO PUSH2 0x26E JUMPI PUSH0 DUP1 REVERT JUMPDEST DUP2 CALLDATALOAD PUSH1 0x1 PUSH1 0x1 PUSH1 0xA0 SHL SUB DUP2 AND DUP2 EQ PUSH2 0x284 JUMPI PUSH0 DUP1 REVERT JUMPDEST SWAP4 SWAP3 POP POP POP JUMP INVALID LOG2 PUSH5 0x6970667358 0x22 SLT KECCAK256 DUP3 PUSH6 0xF7858FC60F8E PUSH10 0x42E4DFED19C1C7068234 0x49 PUSH24 0x1948B616A6A866AD51E1BD64736F6C634300081500330000 "
				},
				"gasEstimates": {
					"creation": {
						"codeDepositCost": "141000",
						"executionCost": "infinite",
						"totalCost": "infinite"
					},
					"external": {
						"acceptOwnership()": "56345",
						"nominateNewOwner(address)": "27704",
						"nominatedOwner()": "2324",
						"owner()": "2367"
					}
				},
				"methodIdentifiers": {
					"acceptOwnership()": "79ba5097",
					"nominateNewOwner(address)": "1627540c",
					"nominatedOwner()": "53a47bb7",
					"owner()": "8da5cb5b"
				}
			},
			"storageLayout": {
				"storage": [
					{
						"astId": 493,
						"contract": "NewFraxProtocol/contracts/Staking/Owned.sol:Owned",
						"label": "owner",
						"offset": 0,
						"slot": "0",
						"type": "t_address"
					},
					{
						"astId": 495,
						"contract": "NewFraxProtocol/contracts/Staking/Owned.sol:Owned",
						"label": "nominatedOwner",
						"offset": 0,
						"slot": "1",
						"type": "t_address"
					}
				],
				"types": {
					"t_address": {
						"encoding": "inplace",
						"label": "address",
						"numberOfBytes": "20"
					}
				}
			},
			"userdoc": {
				"kind": "user",
				"methods": {},
				"version": 1
			}
		}
	}
}