{
	"NewFraxProtocol/contracts/Oracle/FXSOracleWrapper.sol": {
		"FXSOracleWrapper": {
			"abi": [
				{
					"inputs": [
						{
							"internalType": "address",
							"name": "_creator_address",
							"type": "address"
						},
						{
							"internalType": "address",
							"name": "_timelock_address",
							"type": "address"
						}
					],
					"stateMutability": "nonpayable",
					"type": "constructor"
				},
				{
					"anonymous": false,
					"inputs": [
						{
							"indexed": false,
							"internalType": "address",
							"name": "oldOwner",
							"type": "address"
						},
						{
							"indexed": false,
							"internalType": "address",
							"name": "newOwner",
							"type": "address"
						}
					],
					"name": "OwnerChanged",
					"type": "event"
				},
				{
					"anonymous": false,
					"inputs": [
						{
							"indexed": false,
							"internalType": "address",
							"name": "newOwner",
							"type": "address"
						}
					],
					"name": "OwnerNominated",
					"type": "event"
				},
				{
					"inputs": [],
					"name": "PRICE_PRECISION",
					"outputs": [
						{
							"internalType": "uint256",
							"name": "",
							"type": "uint256"
						}
					],
					"stateMutability": "view",
					"type": "function"
				},
				{
					"inputs": [],
					"name": "acceptOwnership",
					"outputs": [],
					"stateMutability": "nonpayable",
					"type": "function"
				},
				{
					"inputs": [],
					"name": "chainlink_eth_usd_decimals",
					"outputs": [
						{
							"internalType": "uint256",
							"name": "",
							"type": "uint256"
						}
					],
					"stateMutability": "view",
					"type": "function"
				},
				{
					"inputs": [],
					"name": "chainlink_fxs_usd_decimals",
					"outputs": [
						{
							"internalType": "uint256",
							"name": "",
							"type": "uint256"
						}
					],
					"stateMutability": "view",
					"type": "function"
				},
				{
					"inputs": [
						{
							"internalType": "address",
							"name": "token",
							"type": "address"
						},
						{
							"internalType": "uint256",
							"name": "amountIn",
							"type": "uint256"
						}
					],
					"name": "consult",
					"outputs": [
						{
							"internalType": "uint256",
							"name": "amountOut",
							"type": "uint256"
						}
					],
					"stateMutability": "view",
					"type": "function"
				},
				{
					"inputs": [],
					"name": "getETHPrice",
					"outputs": [
						{
							"internalType": "uint256",
							"name": "",
							"type": "uint256"
						}
					],
					"stateMutability": "view",
					"type": "function"
				},
				{
					"inputs": [],
					"name": "getFXSPrice",
					"outputs": [
						{
							"internalType": "uint256",
							"name": "",
							"type": "uint256"
						}
					],
					"stateMutability": "view",
					"type": "function"
				},
				{
					"inputs": [
						{
							"internalType": "address",
							"name": "_owner",
							"type": "address"
						}
					],
					"name": "nominateNewOwner",
					"outputs": [],
					"stateMutability": "nonpayable",
					"type": "function"
				},
				{
					"inputs": [],
					"name": "nominatedOwner",
					"outputs": [
						{
							"internalType": "address",
							"name": "",
							"type": "address"
						}
					],
					"stateMutability": "view",
					"type": "function"
				},
				{
					"inputs": [],
					"name": "owner",
					"outputs": [
						{
							"internalType": "address",
							"name": "",
							"type": "address"
						}
					],
					"stateMutability": "view",
					"type": "function"
				},
				{
					"inputs": [
						{
							"internalType": "address",
							"name": "_chainlink_eth_usd_oracle",
							"type": "address"
						}
					],
					"name": "setChainlinkETHUSDOracle",
					"outputs": [],
					"stateMutability": "nonpayable",
					"type": "function"
				},
				{
					"inputs": [
						{
							"internalType": "address",
							"name": "_chainlink_fxs_usd_oracle",
							"type": "address"
						}
					],
					"name": "setChainlinkFXSUSDOracle",
					"outputs": [],
					"stateMutability": "nonpayable",
					"type": "function"
				},
				{
					"inputs": [],
					"name": "timelock_address",
					"outputs": [
						{
							"internalType": "address",
							"name": "",
							"type": "address"
						}
					],
					"stateMutability": "view",
					"type": "function"
				}
			],
			"devdoc": {
				"kind": "dev",
				"methods": {},
				"version": 1
			},
			"evm": {
				"assembly": "    /* \"NewFraxProtocol/contracts/Oracle/FXSOracleWrapper.sol\":1268:4329  contract FXSOracleWrapper is Owned {... */\n  mstore(0x40, 0x80)\n    /* \"NewFraxProtocol/contracts/Oracle/FXSOracleWrapper.sol\":1573:1576  1e6 */\n  0x0f4240\n    /* \"NewFraxProtocol/contracts/Oracle/FXSOracleWrapper.sol\":1540:1576  uint256 public PRICE_PRECISION = 1e6 */\n  0x06\n  sstore\n    /* \"NewFraxProtocol/contracts/Oracle/FXSOracleWrapper.sol\":1853:2374  constructor (... */\n  callvalue\n  dup1\n  iszero\n  tag_1\n  jumpi\n  0x00\n  dup1\n  revert\ntag_1:\n  pop\n  mload(0x40)\n  sub(codesize, bytecodeSize)\n  dup1\n  bytecodeSize\n  dup4\n  codecopy\n  dup2\n  add\n  0x40\n  dup2\n  swap1\n  mstore\n  tag_2\n  swap2\n  tag_3\n  jump\t// in\ntag_2:\n    /* \"NewFraxProtocol/contracts/Oracle/FXSOracleWrapper.sol\":1947:1963  _creator_address */\n  dup2\n  sub(shl(0xa0, 0x01), 0x01)\n    /* \"NewFraxProtocol/contracts/Staking/Owned.sol\":254:274  _owner != address(0) */\n  dup2\n  and\n    /* \"NewFraxProtocol/contracts/Staking/Owned.sol\":246:304  require(_owner != address(0), \"Owner address cannot be 0\") */\n  tag_7\n  jumpi\n  mload(0x40)\n  shl(0xe5, 0x461bcd)\n  dup2\n  mstore\n    /* \"#utility.yul\":696:698   */\n  0x20\n    /* \"NewFraxProtocol/contracts/Staking/Owned.sol\":246:304  require(_owner != address(0), \"Owner address cannot be 0\") */\n  0x04\n  dup3\n  add\n    /* \"#utility.yul\":678:699   */\n  mstore\n    /* \"#utility.yul\":735:737   */\n  0x19\n    /* \"#utility.yul\":715:733   */\n  0x24\n  dup3\n  add\n    /* \"#utility.yul\":708:738   */\n  mstore\n    /* \"#utility.yul\":774:801   */\n  0x4f776e657220616464726573732063616e6e6f74206265203000000000000000\n    /* \"#utility.yul\":754:772   */\n  0x44\n  dup3\n  add\n    /* \"#utility.yul\":747:802   */\n  mstore\n    /* \"#utility.yul\":819:837   */\n  0x64\n  add\n    /* \"NewFraxProtocol/contracts/Staking/Owned.sol\":246:304  require(_owner != address(0), \"Owner address cannot be 0\") */\n  mload(0x40)\n  dup1\n  swap2\n  sub\n  swap1\n  revert\ntag_7:\n    /* \"NewFraxProtocol/contracts/Staking/Owned.sol\":314:319  owner */\n  0x00\n    /* \"NewFraxProtocol/contracts/Staking/Owned.sol\":314:328  owner = _owner */\n  dup1\n  sload\n  not(sub(shl(0xa0, 0x01), 0x01))\n  and\n  sub(shl(0xa0, 0x01), 0x01)\n  dup4\n  and\n  swap1\n  dup2\n  or\n  dup3\n  sstore\n    /* \"NewFraxProtocol/contracts/Staking/Owned.sol\":343:375  OwnerChanged(address(0), _owner) */\n  0x40\n  dup1\n  mload\n    /* \"#utility.yul\":1060:1094   */\n  swap3\n  dup4\n  mstore\n    /* \"#utility.yul\":1125:1127   */\n  0x20\n    /* \"#utility.yul\":1110:1128   */\n  dup4\n  add\n    /* \"#utility.yul\":1103:1146   */\n  swap2\n  swap1\n  swap2\n  mstore\n    /* \"NewFraxProtocol/contracts/Staking/Owned.sol\":343:375  OwnerChanged(address(0), _owner) */\n  0xb532073b38c83145e3e5135377a08bf9aab55bc0fd7c1179cd4fb995d2a5159c\n  swap2\n    /* \"#utility.yul\":995:1013   */\n  add\n    /* \"NewFraxProtocol/contracts/Staking/Owned.sol\":343:375  OwnerChanged(address(0), _owner) */\n  mload(0x40)\n  dup1\n  swap2\n  sub\n  swap1\n  log1\n  pop\n    /* \"NewFraxProtocol/contracts/Oracle/FXSOracleWrapper.sol\":1975:1991  timelock_address */\n  0x07\n    /* \"NewFraxProtocol/contracts/Oracle/FXSOracleWrapper.sol\":1975:2011  timelock_address = _timelock_address */\n  dup1\n  sload\n  not(sub(shl(0xa0, 0x01), 0x01))\n  swap1\n  dup2\n  and\n  sub(shl(0xa0, 0x01), 0x01)\n  dup5\n  and\n  or\n  swap1\n  swap2\n  sstore\n    /* \"NewFraxProtocol/contracts/Oracle/FXSOracleWrapper.sol\":2041:2056  priceFeedFXSUSD */\n  0x02\n    /* \"NewFraxProtocol/contracts/Oracle/FXSOracleWrapper.sol\":2041:2124  priceFeedFXSUSD = AggregatorV3Interface(0x74dCbd8b2128437B78B77dA6D387b8AB0E5d4ACb) */\n  dup1\n  sload\n    /* \"NewFraxProtocol/contracts/Oracle/FXSOracleWrapper.sol\":2081:2123  0x74dCbd8b2128437B78B77dA6D387b8AB0E5d4ACb */\n  0x74dcbd8b2128437b78b77da6d387b8ab0e5d4acb\n    /* \"NewFraxProtocol/contracts/Oracle/FXSOracleWrapper.sol\":2041:2124  priceFeedFXSUSD = AggregatorV3Interface(0x74dCbd8b2128437B78B77dA6D387b8AB0E5d4ACb) */\n  swap3\n  and\n  dup3\n  or\n  swap1\n  sstore\n    /* \"NewFraxProtocol/contracts/Oracle/FXSOracleWrapper.sol\":2163:2189  priceFeedFXSUSD.decimals() */\n  0x40\n  dup1\n  mload\n  shl(0xe0, 0x313ce567)\n  dup2\n  mstore\n  swap1\n  mload\n    /* \"NewFraxProtocol/contracts/Oracle/FXSOracleWrapper.sol\":2163:2187  priceFeedFXSUSD.decimals */\n  0x313ce567\n  swap2\n    /* \"NewFraxProtocol/contracts/Oracle/FXSOracleWrapper.sol\":2163:2189  priceFeedFXSUSD.decimals() */\n  0x04\n  dup1\n  dup3\n  add\n  swap3\n  0x20\n  swap3\n  swap1\n  swap2\n  swap1\n  dup3\n  swap1\n  sub\n  add\n  dup2\n    /* \"NewFraxProtocol/contracts/Oracle/FXSOracleWrapper.sol\":2081:2123  0x74dCbd8b2128437B78B77dA6D387b8AB0E5d4ACb */\n  dup7\n    /* \"NewFraxProtocol/contracts/Oracle/FXSOracleWrapper.sol\":2163:2189  priceFeedFXSUSD.decimals() */\n  gas\n  staticcall\n  iszero\n  dup1\n  iszero\n  tag_14\n  jumpi\n  returndatasize\n  0x00\n  dup1\n  returndatacopy\n  revert(0x00, returndatasize)\ntag_14:\n  pop\n  pop\n  pop\n  pop\n  mload(0x40)\n  returndatasize\n  not(0x1f)\n  0x1f\n  dup3\n  add\n  and\n  dup3\n  add\n  dup1\n  0x40\n  mstore\n  pop\n  dup2\n  add\n  swap1\n  tag_15\n  swap2\n  swap1\n  tag_16\n  jump\t// in\ntag_15:\n    /* \"NewFraxProtocol/contracts/Oracle/FXSOracleWrapper.sol\":2134:2189  chainlink_fxs_usd_decimals = priceFeedFXSUSD.decimals() */\n  0xff\n  and\n    /* \"NewFraxProtocol/contracts/Oracle/FXSOracleWrapper.sol\":2134:2160  chainlink_fxs_usd_decimals */\n  0x04\n    /* \"NewFraxProtocol/contracts/Oracle/FXSOracleWrapper.sol\":2134:2189  chainlink_fxs_usd_decimals = priceFeedFXSUSD.decimals() */\n  swap1\n  dup2\n  sstore\n    /* \"NewFraxProtocol/contracts/Oracle/FXSOracleWrapper.sol\":2219:2234  priceFeedETHUSD */\n  0x03\n    /* \"NewFraxProtocol/contracts/Oracle/FXSOracleWrapper.sol\":2219:2302  priceFeedETHUSD = AggregatorV3Interface(0xcD2A119bD1F7DF95d706DE6F2057fDD45A0503E2) */\n  dup1\n  sload\n  not(sub(shl(0xa0, 0x01), 0x01))\n  and\n    /* \"NewFraxProtocol/contracts/Oracle/FXSOracleWrapper.sol\":2259:2301  0xcD2A119bD1F7DF95d706DE6F2057fDD45A0503E2 */\n  0xcd2a119bd1f7df95d706de6f2057fdd45a0503e2\n    /* \"NewFraxProtocol/contracts/Oracle/FXSOracleWrapper.sol\":2219:2302  priceFeedETHUSD = AggregatorV3Interface(0xcD2A119bD1F7DF95d706DE6F2057fDD45A0503E2) */\n  swap1\n  dup2\n  or\n  swap1\n  swap2\n  sstore\n    /* \"NewFraxProtocol/contracts/Oracle/FXSOracleWrapper.sol\":2341:2367  priceFeedETHUSD.decimals() */\n  0x40\n  dup1\n  mload\n  shl(0xe0, 0x313ce567)\n  dup2\n  mstore\n  swap1\n  mload\n    /* \"NewFraxProtocol/contracts/Oracle/FXSOracleWrapper.sol\":2259:2301  0xcD2A119bD1F7DF95d706DE6F2057fDD45A0503E2 */\n  swap2\n  swap3\n    /* \"NewFraxProtocol/contracts/Oracle/FXSOracleWrapper.sol\":2341:2365  priceFeedETHUSD.decimals */\n  0x313ce567\n  swap3\n    /* \"NewFraxProtocol/contracts/Oracle/FXSOracleWrapper.sol\":2341:2367  priceFeedETHUSD.decimals() */\n  dup3\n  dup3\n  add\n  swap3\n  0x20\n  swap3\n  swap1\n  dup3\n  swap1\n  sub\n  add\n  dup2\n    /* \"NewFraxProtocol/contracts/Oracle/FXSOracleWrapper.sol\":2259:2301  0xcD2A119bD1F7DF95d706DE6F2057fDD45A0503E2 */\n  dup7\n    /* \"NewFraxProtocol/contracts/Oracle/FXSOracleWrapper.sol\":2341:2367  priceFeedETHUSD.decimals() */\n  gas\n  staticcall\n  iszero\n  dup1\n  iszero\n  tag_18\n  jumpi\n  returndatasize\n  0x00\n  dup1\n  returndatacopy\n  revert(0x00, returndatasize)\ntag_18:\n  pop\n  pop\n  pop\n  pop\n  mload(0x40)\n  returndatasize\n  not(0x1f)\n  0x1f\n  dup3\n  add\n  and\n  dup3\n  add\n  dup1\n  0x40\n  mstore\n  pop\n  dup2\n  add\n  swap1\n  tag_19\n  swap2\n  swap1\n  tag_16\n  jump\t// in\ntag_19:\n    /* \"NewFraxProtocol/contracts/Oracle/FXSOracleWrapper.sol\":2312:2367  chainlink_eth_usd_decimals = priceFeedETHUSD.decimals() */\n  0xff\n  and\n    /* \"NewFraxProtocol/contracts/Oracle/FXSOracleWrapper.sol\":2312:2338  chainlink_eth_usd_decimals */\n  0x05\n    /* \"NewFraxProtocol/contracts/Oracle/FXSOracleWrapper.sol\":2312:2367  chainlink_eth_usd_decimals = priceFeedETHUSD.decimals() */\n  sstore\n  pop\n    /* \"NewFraxProtocol/contracts/Oracle/FXSOracleWrapper.sol\":1268:4329  contract FXSOracleWrapper is Owned {... */\n  tag_22\n  swap1\n  pop\n  jump\n    /* \"#utility.yul\":14:191   */\ntag_21:\n    /* \"#utility.yul\":93:106   */\n  dup1\n  mload\n  sub(shl(0xa0, 0x01), 0x01)\n    /* \"#utility.yul\":135:166   */\n  dup2\n  and\n    /* \"#utility.yul\":125:167   */\n  dup2\n  eq\n    /* \"#utility.yul\":115:185   */\n  tag_24\n  jumpi\n    /* \"#utility.yul\":181:182   */\n  0x00\n    /* \"#utility.yul\":178:179   */\n  dup1\n    /* \"#utility.yul\":171:183   */\n  revert\n    /* \"#utility.yul\":115:185   */\ntag_24:\n    /* \"#utility.yul\":14:191   */\n  swap2\n  swap1\n  pop\n  jump\t// out\n    /* \"#utility.yul\":196:489   */\ntag_3:\n    /* \"#utility.yul\":275:281   */\n  0x00\n    /* \"#utility.yul\":283:289   */\n  dup1\n    /* \"#utility.yul\":336:338   */\n  0x40\n    /* \"#utility.yul\":324:333   */\n  dup4\n    /* \"#utility.yul\":315:322   */\n  dup6\n    /* \"#utility.yul\":311:334   */\n  sub\n    /* \"#utility.yul\":307:339   */\n  slt\n    /* \"#utility.yul\":304:356   */\n  iszero\n  tag_26\n  jumpi\n    /* \"#utility.yul\":352:353   */\n  0x00\n    /* \"#utility.yul\":349:350   */\n  dup1\n    /* \"#utility.yul\":342:354   */\n  revert\n    /* \"#utility.yul\":304:356   */\ntag_26:\n    /* \"#utility.yul\":375:415   */\n  tag_27\n    /* \"#utility.yul\":405:414   */\n  dup4\n    /* \"#utility.yul\":375:415   */\n  tag_21\n  jump\t// in\ntag_27:\n    /* \"#utility.yul\":365:415   */\n  swap2\n  pop\n    /* \"#utility.yul\":434:483   */\n  tag_28\n    /* \"#utility.yul\":479:481   */\n  0x20\n    /* \"#utility.yul\":468:477   */\n  dup5\n    /* \"#utility.yul\":464:482   */\n  add\n    /* \"#utility.yul\":434:483   */\n  tag_21\n  jump\t// in\ntag_28:\n    /* \"#utility.yul\":424:483   */\n  swap1\n  pop\n    /* \"#utility.yul\":196:489   */\n  swap3\n  pop\n  swap3\n  swap1\n  pop\n  jump\t// out\n    /* \"#utility.yul\":1157:1430   */\ntag_16:\n    /* \"#utility.yul\":1225:1231   */\n  0x00\n    /* \"#utility.yul\":1278:1280   */\n  0x20\n    /* \"#utility.yul\":1266:1275   */\n  dup3\n    /* \"#utility.yul\":1257:1264   */\n  dup5\n    /* \"#utility.yul\":1253:1276   */\n  sub\n    /* \"#utility.yul\":1249:1281   */\n  slt\n    /* \"#utility.yul\":1246:1298   */\n  iszero\n  tag_32\n  jumpi\n    /* \"#utility.yul\":1294:1295   */\n  0x00\n    /* \"#utility.yul\":1291:1292   */\n  dup1\n    /* \"#utility.yul\":1284:1296   */\n  revert\n    /* \"#utility.yul\":1246:1298   */\ntag_32:\n    /* \"#utility.yul\":1326:1335   */\n  dup2\n    /* \"#utility.yul\":1320:1336   */\n  mload\n    /* \"#utility.yul\":1376:1380   */\n  0xff\n    /* \"#utility.yul\":1369:1374   */\n  dup2\n    /* \"#utility.yul\":1365:1381   */\n  and\n    /* \"#utility.yul\":1358:1363   */\n  dup2\n    /* \"#utility.yul\":1355:1382   */\n  eq\n    /* \"#utility.yul\":1345:1400   */\n  tag_33\n  jumpi\n    /* \"#utility.yul\":1396:1397   */\n  0x00\n    /* \"#utility.yul\":1393:1394   */\n  dup1\n    /* \"#utility.yul\":1386:1398   */\n  revert\n    /* \"#utility.yul\":1345:1400   */\ntag_33:\n    /* \"#utility.yul\":1419:1424   */\n  swap4\n    /* \"#utility.yul\":1157:1430   */\n  swap3\n  pop\n  pop\n  pop\n  jump\t// out\ntag_22:\n    /* \"NewFraxProtocol/contracts/Oracle/FXSOracleWrapper.sol\":1268:4329  contract FXSOracleWrapper is Owned {... */\n  dataSize(sub_0)\n  dup1\n  dataOffset(sub_0)\n  0x00\n  codecopy\n  0x00\n  return\nstop\n\nsub_0: assembly {\n        /* \"NewFraxProtocol/contracts/Oracle/FXSOracleWrapper.sol\":1268:4329  contract FXSOracleWrapper is Owned {... */\n      mstore(0x40, 0x80)\n      callvalue\n      dup1\n      iszero\n      tag_1\n      jumpi\n      0x00\n      dup1\n      revert\n    tag_1:\n      pop\n      jumpi(tag_2, lt(calldatasize, 0x04))\n      shr(0xe0, calldataload(0x00))\n      dup1\n      0x8da5cb5b\n      gt\n      tag_16\n      jumpi\n      dup1\n      0xa2dcb4f5\n      gt\n      tag_17\n      jumpi\n      dup1\n      0xa2dcb4f5\n      eq\n      tag_12\n      jumpi\n      dup1\n      0xa607a8d9\n      eq\n      tag_13\n      jumpi\n      dup1\n      0xd6c6c4ac\n      eq\n      tag_14\n      jumpi\n      dup1\n      0xdc6663c7\n      eq\n      tag_15\n      jumpi\n      0x00\n      dup1\n      revert\n    tag_17:\n      dup1\n      0x8da5cb5b\n      eq\n      tag_9\n      jumpi\n      dup1\n      0x8e409a79\n      eq\n      tag_10\n      jumpi\n      dup1\n      0x95082d25\n      eq\n      tag_11\n      jumpi\n      0x00\n      dup1\n      revert\n    tag_16:\n      dup1\n      0x1627540c\n      eq\n      tag_3\n      jumpi\n      dup1\n      0x3ddac953\n      eq\n      tag_4\n      jumpi\n      dup1\n      0x53a47bb7\n      eq\n      tag_5\n      jumpi\n      dup1\n      0x753b5f8a\n      eq\n      tag_6\n      jumpi\n      dup1\n      0x79ba5097\n      eq\n      tag_7\n      jumpi\n      dup1\n      0x88e5a491\n      eq\n      tag_8\n      jumpi\n    tag_2:\n      0x00\n      dup1\n      revert\n        /* \"NewFraxProtocol/contracts/Staking/Owned.sol\":388:526  function nominateNewOwner(address _owner) external onlyOwner {... */\n    tag_3:\n      tag_18\n      tag_19\n      calldatasize\n      0x04\n      tag_20\n      jump\t// in\n    tag_19:\n      tag_21\n      jump\t// in\n    tag_18:\n      stop\n        /* \"NewFraxProtocol/contracts/Oracle/FXSOracleWrapper.sol\":3356:3783  function consult(address token, uint amountIn) external view returns (uint amountOut) {... */\n    tag_4:\n      tag_22\n      tag_23\n      calldatasize\n      0x04\n      tag_24\n      jump\t// in\n    tag_23:\n      tag_25\n      jump\t// in\n    tag_22:\n      mload(0x40)\n        /* \"#utility.yul\":788:813   */\n      swap1\n      dup2\n      mstore\n        /* \"#utility.yul\":776:778   */\n      0x20\n        /* \"#utility.yul\":761:779   */\n      add\n        /* \"NewFraxProtocol/contracts/Oracle/FXSOracleWrapper.sol\":3356:3783  function consult(address token, uint amountIn) external view returns (uint amountOut) {... */\n    tag_26:\n      mload(0x40)\n      dup1\n      swap2\n      sub\n      swap1\n      return\n        /* \"NewFraxProtocol/contracts/Staking/Owned.sol\":164:193  address public nominatedOwner */\n    tag_5:\n      sload(0x01)\n      tag_28\n      swap1\n      sub(shl(0xa0, 0x01), 0x01)\n      and\n      dup2\n      jump\n    tag_28:\n      mload(0x40)\n      sub(shl(0xa0, 0x01), 0x01)\n        /* \"#utility.yul\":988:1020   */\n      swap1\n      swap2\n      and\n        /* \"#utility.yul\":970:1021   */\n      dup2\n      mstore\n        /* \"#utility.yul\":958:960   */\n      0x20\n        /* \"#utility.yul\":943:961   */\n      add\n        /* \"NewFraxProtocol/contracts/Staking/Owned.sol\":164:193  address public nominatedOwner */\n      tag_26\n        /* \"#utility.yul\":824:1027   */\n      jump\n        /* \"NewFraxProtocol/contracts/Oracle/FXSOracleWrapper.sol\":1492:1533  uint256 public chainlink_eth_usd_decimals */\n    tag_6:\n      tag_22\n      sload(0x05)\n      dup2\n      jump\n        /* \"NewFraxProtocol/contracts/Staking/Owned.sol\":532:798  function acceptOwnership() external {... */\n    tag_7:\n      tag_18\n      tag_36\n      jump\t// in\n        /* \"NewFraxProtocol/contracts/Oracle/FXSOracleWrapper.sol\":2419:2791  function getFXSPrice() public view returns (uint256) {... */\n    tag_8:\n      tag_22\n      tag_38\n      jump\t// in\n        /* \"NewFraxProtocol/contracts/Staking/Owned.sol\":138:158  address public owner */\n    tag_9:\n      sload(0x00)\n      tag_28\n      swap1\n      sub(shl(0xa0, 0x01), 0x01)\n      and\n      dup2\n      jump\n        /* \"NewFraxProtocol/contracts/Oracle/FXSOracleWrapper.sol\":4088:4327  function setChainlinkETHUSDOracle(address _chainlink_eth_usd_oracle) external onlyByOwnGov {... */\n    tag_10:\n      tag_18\n      tag_44\n      calldatasize\n      0x04\n      tag_20\n      jump\t// in\n    tag_44:\n      tag_45\n      jump\t// in\n        /* \"NewFraxProtocol/contracts/Oracle/FXSOracleWrapper.sol\":1540:1576  uint256 public PRICE_PRECISION = 1e6 */\n    tag_11:\n      tag_22\n      sload(0x06)\n      dup2\n      jump\n        /* \"NewFraxProtocol/contracts/Oracle/FXSOracleWrapper.sol\":3843:4082  function setChainlinkFXSUSDOracle(address _chainlink_fxs_usd_oracle) external onlyByOwnGov {... */\n    tag_12:\n      tag_18\n      tag_50\n      calldatasize\n      0x04\n      tag_20\n      jump\t// in\n    tag_50:\n      tag_51\n      jump\t// in\n        /* \"NewFraxProtocol/contracts/Oracle/FXSOracleWrapper.sol\":2797:3177  function getETHPrice() public view returns (uint256) {... */\n    tag_13:\n      tag_22\n      tag_53\n      jump\t// in\n        /* \"NewFraxProtocol/contracts/Oracle/FXSOracleWrapper.sol\":1445:1486  uint256 public chainlink_fxs_usd_decimals */\n    tag_14:\n      tag_22\n      sload(0x04)\n      dup2\n      jump\n        /* \"NewFraxProtocol/contracts/Oracle/FXSOracleWrapper.sol\":1582:1613  address public timelock_address */\n    tag_15:\n      sload(0x07)\n      tag_28\n      swap1\n      sub(shl(0xa0, 0x01), 0x01)\n      and\n      dup2\n      jump\n        /* \"NewFraxProtocol/contracts/Staking/Owned.sol\":388:526  function nominateNewOwner(address _owner) external onlyOwner {... */\n    tag_21:\n        /* \"NewFraxProtocol/contracts/Staking/Owned.sol\":855:860  owner */\n      and(sub(shl(0xa0, 0x01), 0x01), sload(0x00))\n        /* \"NewFraxProtocol/contracts/Staking/Owned.sol\":841:851  msg.sender */\n      caller\n        /* \"NewFraxProtocol/contracts/Staking/Owned.sol\":841:860  msg.sender == owner */\n      eq\n        /* \"NewFraxProtocol/contracts/Staking/Owned.sol\":833:912  require(msg.sender == owner, \"Only the contract owner may perform this action\") */\n      tag_62\n      jumpi\n      mload(0x40)\n      shl(0xe5, 0x461bcd)\n      dup2\n      mstore\n        /* \"#utility.yul\":1234:1236   */\n      0x20\n        /* \"NewFraxProtocol/contracts/Staking/Owned.sol\":833:912  require(msg.sender == owner, \"Only the contract owner may perform this action\") */\n      0x04\n      dup3\n      add\n        /* \"#utility.yul\":1216:1237   */\n      mstore\n        /* \"#utility.yul\":1273:1275   */\n      0x2f\n        /* \"#utility.yul\":1253:1271   */\n      0x24\n      dup3\n      add\n        /* \"#utility.yul\":1246:1276   */\n      mstore\n        /* \"#utility.yul\":1312:1346   */\n      0x4f6e6c792074686520636f6e7472616374206f776e6572206d61792070657266\n        /* \"#utility.yul\":1292:1310   */\n      0x44\n      dup3\n      add\n        /* \"#utility.yul\":1285:1347   */\n      mstore\n      shl(0x89, 0x37b936903a3434b99030b1ba34b7b7)\n        /* \"#utility.yul\":1363:1381   */\n      0x64\n      dup3\n      add\n        /* \"#utility.yul\":1356:1401   */\n      mstore\n        /* \"#utility.yul\":1418:1437   */\n      0x84\n      add\n        /* \"NewFraxProtocol/contracts/Staking/Owned.sol\":833:912  require(msg.sender == owner, \"Only the contract owner may perform this action\") */\n    tag_63:\n      mload(0x40)\n      dup1\n      swap2\n      sub\n      swap1\n      revert\n    tag_62:\n        /* \"NewFraxProtocol/contracts/Staking/Owned.sol\":459:473  nominatedOwner */\n      0x01\n        /* \"NewFraxProtocol/contracts/Staking/Owned.sol\":459:482  nominatedOwner = _owner */\n      dup1\n      sload\n      not(sub(shl(0xa0, 0x01), 0x01))\n      and\n      sub(shl(0xa0, 0x01), 0x01)\n      dup4\n      and\n      swap1\n      dup2\n      or\n      swap1\n      swap2\n      sstore\n        /* \"NewFraxProtocol/contracts/Staking/Owned.sol\":497:519  OwnerNominated(_owner) */\n      mload(0x40)\n        /* \"#utility.yul\":970:1021   */\n      swap1\n      dup2\n      mstore\n        /* \"NewFraxProtocol/contracts/Staking/Owned.sol\":497:519  OwnerNominated(_owner) */\n      0x906a1c6bd7e3091ea86693dd029a831c19049ce77f1dce2ce0bab1cacbabce22\n      swap1\n        /* \"#utility.yul\":958:960   */\n      0x20\n        /* \"#utility.yul\":943:961   */\n      add\n        /* \"NewFraxProtocol/contracts/Staking/Owned.sol\":497:519  OwnerNominated(_owner) */\n      mload(0x40)\n      dup1\n      swap2\n      sub\n      swap1\n      log1\n        /* \"NewFraxProtocol/contracts/Staking/Owned.sol\":388:526  function nominateNewOwner(address _owner) external onlyOwner {... */\n      pop\n      jump\t// out\n        /* \"NewFraxProtocol/contracts/Oracle/FXSOracleWrapper.sol\":3356:3783  function consult(address token, uint amountIn) external view returns (uint amountOut) {... */\n    tag_25:\n        /* \"NewFraxProtocol/contracts/Oracle/FXSOracleWrapper.sol\":3426:3440  uint amountOut */\n      0x00\n      add(shl(0x99, 0x21), 0x06)\n      sub(shl(0xa0, 0x01), 0x01)\n        /* \"NewFraxProtocol/contracts/Oracle/FXSOracleWrapper.sol\":3533:3584  token == 0x4200000000000000000000000000000000000006 */\n      dup5\n      and\n      eq\n        /* \"NewFraxProtocol/contracts/Oracle/FXSOracleWrapper.sol\":3525:3610  require(token == 0x4200000000000000000000000000000000000006, \"must use weth address\") */\n      tag_68\n      jumpi\n      mload(0x40)\n      shl(0xe5, 0x461bcd)\n      dup2\n      mstore\n        /* \"#utility.yul\":1650:1652   */\n      0x20\n        /* \"NewFraxProtocol/contracts/Oracle/FXSOracleWrapper.sol\":3525:3610  require(token == 0x4200000000000000000000000000000000000006, \"must use weth address\") */\n      0x04\n      dup3\n      add\n        /* \"#utility.yul\":1632:1653   */\n      mstore\n        /* \"#utility.yul\":1689:1691   */\n      0x15\n        /* \"#utility.yul\":1669:1687   */\n      0x24\n      dup3\n      add\n        /* \"#utility.yul\":1662:1692   */\n      mstore\n      shl(0x58, 0x6d7573742075736520776574682061646472657373)\n        /* \"#utility.yul\":1708:1726   */\n      0x44\n      dup3\n      add\n        /* \"#utility.yul\":1701:1752   */\n      mstore\n        /* \"#utility.yul\":1769:1787   */\n      0x64\n      add\n        /* \"NewFraxProtocol/contracts/Oracle/FXSOracleWrapper.sol\":3525:3610  require(token == 0x4200000000000000000000000000000000000006, \"must use weth address\") */\n      tag_63\n        /* \"#utility.yul\":1448:1793   */\n      jump\n        /* \"NewFraxProtocol/contracts/Oracle/FXSOracleWrapper.sol\":3525:3610  require(token == 0x4200000000000000000000000000000000000006, \"must use weth address\") */\n    tag_68:\n        /* \"NewFraxProtocol/contracts/Oracle/FXSOracleWrapper.sol\":3628:3636  amountIn */\n      dup2\n        /* \"NewFraxProtocol/contracts/Oracle/FXSOracleWrapper.sol\":3640:3643  1e6 */\n      0x0f4240\n        /* \"NewFraxProtocol/contracts/Oracle/FXSOracleWrapper.sol\":3628:3643  amountIn == 1e6 */\n      eq\n        /* \"NewFraxProtocol/contracts/Oracle/FXSOracleWrapper.sol\":3620:3666  require(amountIn == 1e6, \"must call with 1e6\") */\n      tag_71\n      jumpi\n      mload(0x40)\n      shl(0xe5, 0x461bcd)\n      dup2\n      mstore\n        /* \"#utility.yul\":2000:2002   */\n      0x20\n        /* \"NewFraxProtocol/contracts/Oracle/FXSOracleWrapper.sol\":3620:3666  require(amountIn == 1e6, \"must call with 1e6\") */\n      0x04\n      dup3\n      add\n        /* \"#utility.yul\":1982:2003   */\n      mstore\n        /* \"#utility.yul\":2039:2041   */\n      0x12\n        /* \"#utility.yul\":2019:2037   */\n      0x24\n      dup3\n      add\n        /* \"#utility.yul\":2012:2042   */\n      mstore\n      shl(0x71, 0x36bab9ba1031b0b636103bb4ba341018b29b)\n        /* \"#utility.yul\":2058:2076   */\n      0x44\n      dup3\n      add\n        /* \"#utility.yul\":2051:2099   */\n      mstore\n        /* \"#utility.yul\":2116:2134   */\n      0x64\n      add\n        /* \"NewFraxProtocol/contracts/Oracle/FXSOracleWrapper.sol\":3620:3666  require(amountIn == 1e6, \"must call with 1e6\") */\n      tag_63\n        /* \"#utility.yul\":1798:2140   */\n      jump\n        /* \"NewFraxProtocol/contracts/Oracle/FXSOracleWrapper.sol\":3620:3666  require(amountIn == 1e6, \"must call with 1e6\") */\n    tag_71:\n        /* \"NewFraxProtocol/contracts/Oracle/FXSOracleWrapper.sol\":3723:3776  getETHPrice().mul(PRICE_PRECISION).div(getFXSPrice()) */\n      tag_74\n        /* \"NewFraxProtocol/contracts/Oracle/FXSOracleWrapper.sol\":3762:3775  getFXSPrice() */\n      tag_75\n        /* \"NewFraxProtocol/contracts/Oracle/FXSOracleWrapper.sol\":3762:3773  getFXSPrice */\n      tag_38\n        /* \"NewFraxProtocol/contracts/Oracle/FXSOracleWrapper.sol\":3762:3775  getFXSPrice() */\n      jump\t// in\n    tag_75:\n        /* \"NewFraxProtocol/contracts/Oracle/FXSOracleWrapper.sol\":3723:3757  getETHPrice().mul(PRICE_PRECISION) */\n      tag_76\n        /* \"NewFraxProtocol/contracts/Oracle/FXSOracleWrapper.sol\":3741:3756  PRICE_PRECISION */\n      sload(0x06)\n        /* \"NewFraxProtocol/contracts/Oracle/FXSOracleWrapper.sol\":3723:3736  getETHPrice() */\n      tag_77\n        /* \"NewFraxProtocol/contracts/Oracle/FXSOracleWrapper.sol\":3723:3734  getETHPrice */\n      tag_53\n        /* \"NewFraxProtocol/contracts/Oracle/FXSOracleWrapper.sol\":3723:3736  getETHPrice() */\n      jump\t// in\n    tag_77:\n        /* \"NewFraxProtocol/contracts/Oracle/FXSOracleWrapper.sol\":3723:3740  getETHPrice().mul */\n      swap1\n      tag_78\n        /* \"NewFraxProtocol/contracts/Oracle/FXSOracleWrapper.sol\":3723:3757  getETHPrice().mul(PRICE_PRECISION) */\n      jump\t// in\n    tag_76:\n        /* \"NewFraxProtocol/contracts/Oracle/FXSOracleWrapper.sol\":3723:3761  getETHPrice().mul(PRICE_PRECISION).div */\n      swap1\n      tag_79\n        /* \"NewFraxProtocol/contracts/Oracle/FXSOracleWrapper.sol\":3723:3776  getETHPrice().mul(PRICE_PRECISION).div(getFXSPrice()) */\n      jump\t// in\n    tag_74:\n        /* \"NewFraxProtocol/contracts/Oracle/FXSOracleWrapper.sol\":3716:3776  return getETHPrice().mul(PRICE_PRECISION).div(getFXSPrice()) */\n      swap1\n      pop\n        /* \"NewFraxProtocol/contracts/Oracle/FXSOracleWrapper.sol\":3356:3783  function consult(address token, uint amountIn) external view returns (uint amountOut) {... */\n    tag_67:\n      swap3\n      swap2\n      pop\n      pop\n      jump\t// out\n        /* \"NewFraxProtocol/contracts/Staking/Owned.sol\":532:798  function acceptOwnership() external {... */\n    tag_36:\n        /* \"NewFraxProtocol/contracts/Staking/Owned.sol\":600:614  nominatedOwner */\n      and(sub(shl(0xa0, 0x01), 0x01), sload(0x01))\n        /* \"NewFraxProtocol/contracts/Staking/Owned.sol\":586:596  msg.sender */\n      caller\n        /* \"NewFraxProtocol/contracts/Staking/Owned.sol\":586:614  msg.sender == nominatedOwner */\n      eq\n        /* \"NewFraxProtocol/contracts/Staking/Owned.sol\":578:672  require(msg.sender == nominatedOwner, \"You must be nominated before you can accept ownership\") */\n      tag_81\n      jumpi\n      mload(0x40)\n      shl(0xe5, 0x461bcd)\n      dup2\n      mstore\n        /* \"#utility.yul\":2347:2349   */\n      0x20\n        /* \"NewFraxProtocol/contracts/Staking/Owned.sol\":578:672  require(msg.sender == nominatedOwner, \"You must be nominated before you can accept ownership\") */\n      0x04\n      dup3\n      add\n        /* \"#utility.yul\":2329:2350   */\n      mstore\n        /* \"#utility.yul\":2386:2388   */\n      0x35\n        /* \"#utility.yul\":2366:2384   */\n      0x24\n      dup3\n      add\n        /* \"#utility.yul\":2359:2389   */\n      mstore\n        /* \"#utility.yul\":2425:2459   */\n      0x596f75206d757374206265206e6f6d696e61746564206265666f726520796f75\n        /* \"#utility.yul\":2405:2423   */\n      0x44\n      dup3\n      add\n        /* \"#utility.yul\":2398:2460   */\n      mstore\n      shl(0x5c, 0x02063616e20616363657074206f776e65727368697)\n        /* \"#utility.yul\":2476:2494   */\n      0x64\n      dup3\n      add\n        /* \"#utility.yul\":2469:2520   */\n      mstore\n        /* \"#utility.yul\":2537:2556   */\n      0x84\n      add\n        /* \"NewFraxProtocol/contracts/Staking/Owned.sol\":578:672  require(msg.sender == nominatedOwner, \"You must be nominated before you can accept ownership\") */\n      tag_63\n        /* \"#utility.yul\":2145:2562   */\n      jump\n        /* \"NewFraxProtocol/contracts/Staking/Owned.sol\":578:672  require(msg.sender == nominatedOwner, \"You must be nominated before you can accept ownership\") */\n    tag_81:\n        /* \"NewFraxProtocol/contracts/Staking/Owned.sol\":700:705  owner */\n      sload(0x00)\n      0x01\n        /* \"NewFraxProtocol/contracts/Staking/Owned.sol\":707:721  nominatedOwner */\n      sload\n        /* \"NewFraxProtocol/contracts/Staking/Owned.sol\":687:722  OwnerChanged(owner, nominatedOwner) */\n      0x40\n      dup1\n      mload\n      sub(shl(0xa0, 0x01), 0x01)\n        /* \"NewFraxProtocol/contracts/Staking/Owned.sol\":700:705  owner */\n      swap4\n      dup5\n      and\n        /* \"#utility.yul\":2779:2813   */\n      dup2\n      mstore\n        /* \"NewFraxProtocol/contracts/Staking/Owned.sol\":707:721  nominatedOwner */\n      swap3\n      swap1\n      swap2\n      and\n        /* \"#utility.yul\":2844:2846   */\n      0x20\n        /* \"#utility.yul\":2829:2847   */\n      dup4\n      add\n        /* \"#utility.yul\":2822:2865   */\n      mstore\n        /* \"NewFraxProtocol/contracts/Staking/Owned.sol\":687:722  OwnerChanged(owner, nominatedOwner) */\n      0xb532073b38c83145e3e5135377a08bf9aab55bc0fd7c1179cd4fb995d2a5159c\n      swap2\n        /* \"#utility.yul\":2714:2732   */\n      add\n        /* \"NewFraxProtocol/contracts/Staking/Owned.sol\":687:722  OwnerChanged(owner, nominatedOwner) */\n      mload(0x40)\n      dup1\n      swap2\n      sub\n      swap1\n      log1\n        /* \"NewFraxProtocol/contracts/Staking/Owned.sol\":740:754  nominatedOwner */\n      0x01\n      dup1\n      sload\n      0x00\n        /* \"NewFraxProtocol/contracts/Staking/Owned.sol\":732:754  owner = nominatedOwner */\n      dup1\n      sload\n      not(sub(shl(0xa0, 0x01), 0x01))\n      swap1\n      dup2\n      and\n      sub(shl(0xa0, 0x01), 0x01)\n        /* \"NewFraxProtocol/contracts/Staking/Owned.sol\":740:754  nominatedOwner */\n      dup5\n      and\n        /* \"NewFraxProtocol/contracts/Staking/Owned.sol\":732:754  owner = nominatedOwner */\n      or\n      swap1\n      swap2\n      sstore\n        /* \"NewFraxProtocol/contracts/Staking/Owned.sol\":764:791  nominatedOwner = address(0) */\n      and\n      swap1\n      sstore\n        /* \"NewFraxProtocol/contracts/Staking/Owned.sol\":532:798  function acceptOwnership() external {... */\n      jump\t// out\n        /* \"NewFraxProtocol/contracts/Oracle/FXSOracleWrapper.sol\":2419:2791  function getFXSPrice() public view returns (uint256) {... */\n    tag_38:\n        /* \"NewFraxProtocol/contracts/Oracle/FXSOracleWrapper.sol\":2463:2470  uint256 */\n      0x00\n        /* \"NewFraxProtocol/contracts/Oracle/FXSOracleWrapper.sol\":2483:2497  uint80 roundID */\n      dup1\n        /* \"NewFraxProtocol/contracts/Oracle/FXSOracleWrapper.sol\":2499:2508  int price */\n      0x00\n        /* \"NewFraxProtocol/contracts/Oracle/FXSOracleWrapper.sol\":2512:2529  uint256 updatedAt */\n      dup1\n        /* \"NewFraxProtocol/contracts/Oracle/FXSOracleWrapper.sol\":2531:2553  uint80 answeredInRound */\n      0x00\n        /* \"NewFraxProtocol/contracts/Oracle/FXSOracleWrapper.sol\":2557:2572  priceFeedFXSUSD */\n      0x02\n      0x00\n      swap1\n      sload\n      swap1\n      0x0100\n      exp\n      swap1\n      div\n      sub(shl(0xa0, 0x01), 0x01)\n      and\n      sub(shl(0xa0, 0x01), 0x01)\n        /* \"NewFraxProtocol/contracts/Oracle/FXSOracleWrapper.sol\":2557:2588  priceFeedFXSUSD.latestRoundData */\n      and\n      0xfeaf968c\n        /* \"NewFraxProtocol/contracts/Oracle/FXSOracleWrapper.sol\":2557:2590  priceFeedFXSUSD.latestRoundData() */\n      mload(0x40)\n      dup2\n      0xffffffff\n      and\n      0xe0\n      shl\n      dup2\n      mstore\n      0x04\n      add\n      0xa0\n      mload(0x40)\n      dup1\n      dup4\n      sub\n      dup2\n      dup7\n      gas\n      staticcall\n      iszero\n      dup1\n      iszero\n      tag_88\n      jumpi\n      returndatasize\n      0x00\n      dup1\n      returndatacopy\n      revert(0x00, returndatasize)\n    tag_88:\n      pop\n      pop\n      pop\n      pop\n      mload(0x40)\n      returndatasize\n      not(0x1f)\n      0x1f\n      dup3\n      add\n      and\n      dup3\n      add\n      dup1\n      0x40\n      mstore\n      pop\n      dup2\n      add\n      swap1\n      tag_89\n      swap2\n      swap1\n      tag_90\n      jump\t// in\n    tag_89:\n        /* \"NewFraxProtocol/contracts/Oracle/FXSOracleWrapper.sol\":2482:2590  (uint80 roundID, int price, , uint256 updatedAt, uint80 answeredInRound) = priceFeedFXSUSD.latestRoundData() */\n      swap5\n      pop\n      swap5\n      pop\n      pop\n      swap4\n      pop\n      swap4\n      pop\n        /* \"NewFraxProtocol/contracts/Oracle/FXSOracleWrapper.sol\":2617:2618  0 */\n      0x00\n        /* \"NewFraxProtocol/contracts/Oracle/FXSOracleWrapper.sol\":2608:2613  price */\n      dup4\n        /* \"NewFraxProtocol/contracts/Oracle/FXSOracleWrapper.sol\":2608:2618  price >= 0 */\n      slt\n      iszero\n        /* \"NewFraxProtocol/contracts/Oracle/FXSOracleWrapper.sol\":2608:2635  price >= 0 && updatedAt!= 0 */\n      dup1\n      iszero\n      tag_91\n      jumpi\n      pop\n        /* \"NewFraxProtocol/contracts/Oracle/FXSOracleWrapper.sol\":2622:2635  updatedAt!= 0 */\n      dup2\n      iszero\n      iszero\n        /* \"NewFraxProtocol/contracts/Oracle/FXSOracleWrapper.sol\":2608:2635  price >= 0 && updatedAt!= 0 */\n    tag_91:\n        /* \"NewFraxProtocol/contracts/Oracle/FXSOracleWrapper.sol\":2608:2665  price >= 0 && updatedAt!= 0 && answeredInRound >= roundID */\n      dup1\n      iszero\n      tag_92\n      jumpi\n      pop\n        /* \"NewFraxProtocol/contracts/Oracle/FXSOracleWrapper.sol\":2658:2665  roundID */\n      dup4\n      sub(shl(0x50, 0x01), 0x01)\n        /* \"NewFraxProtocol/contracts/Oracle/FXSOracleWrapper.sol\":2639:2665  answeredInRound >= roundID */\n      and\n        /* \"NewFraxProtocol/contracts/Oracle/FXSOracleWrapper.sol\":2639:2654  answeredInRound */\n      dup2\n      sub(shl(0x50, 0x01), 0x01)\n        /* \"NewFraxProtocol/contracts/Oracle/FXSOracleWrapper.sol\":2639:2665  answeredInRound >= roundID */\n      and\n      lt\n      iszero\n        /* \"NewFraxProtocol/contracts/Oracle/FXSOracleWrapper.sol\":2608:2665  price >= 0 && updatedAt!= 0 && answeredInRound >= roundID */\n    tag_92:\n        /* \"NewFraxProtocol/contracts/Oracle/FXSOracleWrapper.sol\":2600:2693  require(price >= 0 && updatedAt!= 0 && answeredInRound >= roundID, \"Invalid chainlink price\") */\n      tag_93\n      jumpi\n      mload(0x40)\n      shl(0xe5, 0x461bcd)\n      dup2\n      mstore\n        /* \"#utility.yul\":3740:3742   */\n      0x20\n        /* \"NewFraxProtocol/contracts/Oracle/FXSOracleWrapper.sol\":2600:2693  require(price >= 0 && updatedAt!= 0 && answeredInRound >= roundID, \"Invalid chainlink price\") */\n      0x04\n      dup3\n      add\n        /* \"#utility.yul\":3722:3743   */\n      mstore\n        /* \"#utility.yul\":3779:3781   */\n      0x17\n        /* \"#utility.yul\":3759:3777   */\n      0x24\n      dup3\n      add\n        /* \"#utility.yul\":3752:3782   */\n      mstore\n      shl(0x48, 0x496e76616c696420636861696e6c696e6b207072696365)\n        /* \"#utility.yul\":3798:3816   */\n      0x44\n      dup3\n      add\n        /* \"#utility.yul\":3791:3844   */\n      mstore\n        /* \"#utility.yul\":3861:3879   */\n      0x64\n      add\n        /* \"NewFraxProtocol/contracts/Oracle/FXSOracleWrapper.sol\":2600:2693  require(price >= 0 && updatedAt!= 0 && answeredInRound >= roundID, \"Invalid chainlink price\") */\n      tag_63\n        /* \"#utility.yul\":3538:3885   */\n      jump\n        /* \"NewFraxProtocol/contracts/Oracle/FXSOracleWrapper.sol\":2600:2693  require(price >= 0 && updatedAt!= 0 && answeredInRound >= roundID, \"Invalid chainlink price\") */\n    tag_93:\n        /* \"NewFraxProtocol/contracts/Oracle/FXSOracleWrapper.sol\":2711:2784  uint256(price).mul(PRICE_PRECISION).div(10 ** chainlink_fxs_usd_decimals) */\n      tag_96\n        /* \"NewFraxProtocol/contracts/Oracle/FXSOracleWrapper.sol\":2757:2783  chainlink_fxs_usd_decimals */\n      sload(0x04)\n        /* \"NewFraxProtocol/contracts/Oracle/FXSOracleWrapper.sol\":2751:2753  10 */\n      0x0a\n        /* \"NewFraxProtocol/contracts/Oracle/FXSOracleWrapper.sol\":2751:2783  10 ** chainlink_fxs_usd_decimals */\n      tag_97\n      swap2\n      swap1\n      tag_98\n      jump\t// in\n    tag_97:\n        /* \"NewFraxProtocol/contracts/Oracle/FXSOracleWrapper.sol\":2730:2745  PRICE_PRECISION */\n      sload(0x06)\n        /* \"NewFraxProtocol/contracts/Oracle/FXSOracleWrapper.sol\":2711:2746  uint256(price).mul(PRICE_PRECISION) */\n      tag_76\n      swap1\n        /* \"NewFraxProtocol/contracts/Oracle/FXSOracleWrapper.sol\":2719:2724  price */\n      dup7\n      swap1\n        /* \"NewFraxProtocol/contracts/Oracle/FXSOracleWrapper.sol\":2711:2729  uint256(price).mul */\n      tag_78\n        /* \"NewFraxProtocol/contracts/Oracle/FXSOracleWrapper.sol\":2711:2746  uint256(price).mul(PRICE_PRECISION) */\n      jump\t// in\n        /* \"NewFraxProtocol/contracts/Oracle/FXSOracleWrapper.sol\":2711:2784  uint256(price).mul(PRICE_PRECISION).div(10 ** chainlink_fxs_usd_decimals) */\n    tag_96:\n        /* \"NewFraxProtocol/contracts/Oracle/FXSOracleWrapper.sol\":2704:2784  return uint256(price).mul(PRICE_PRECISION).div(10 ** chainlink_fxs_usd_decimals) */\n      swap5\n      pop\n      pop\n      pop\n      pop\n      pop\n        /* \"NewFraxProtocol/contracts/Oracle/FXSOracleWrapper.sol\":2419:2791  function getFXSPrice() public view returns (uint256) {... */\n      swap1\n      jump\t// out\n        /* \"NewFraxProtocol/contracts/Oracle/FXSOracleWrapper.sol\":4088:4327  function setChainlinkETHUSDOracle(address _chainlink_eth_usd_oracle) external onlyByOwnGov {... */\n    tag_45:\n        /* \"NewFraxProtocol/contracts/Oracle/FXSOracleWrapper.sol\":1719:1724  owner */\n      and(sub(shl(0xa0, 0x01), 0x01), sload(0x00))\n        /* \"NewFraxProtocol/contracts/Oracle/FXSOracleWrapper.sol\":1705:1715  msg.sender */\n      caller\n        /* \"NewFraxProtocol/contracts/Oracle/FXSOracleWrapper.sol\":1705:1724  msg.sender == owner */\n      eq\n      dup1\n        /* \"NewFraxProtocol/contracts/Oracle/FXSOracleWrapper.sol\":1705:1758  msg.sender == owner || msg.sender == timelock_address */\n      tag_101\n      jumpi\n      pop\n        /* \"NewFraxProtocol/contracts/Oracle/FXSOracleWrapper.sol\":1742:1758  timelock_address */\n      and(sub(shl(0xa0, 0x01), 0x01), sload(0x07))\n        /* \"NewFraxProtocol/contracts/Oracle/FXSOracleWrapper.sol\":1728:1738  msg.sender */\n      caller\n        /* \"NewFraxProtocol/contracts/Oracle/FXSOracleWrapper.sol\":1728:1758  msg.sender == timelock_address */\n      eq\n        /* \"NewFraxProtocol/contracts/Oracle/FXSOracleWrapper.sol\":1705:1758  msg.sender == owner || msg.sender == timelock_address */\n    tag_101:\n        /* \"NewFraxProtocol/contracts/Oracle/FXSOracleWrapper.sol\":1697:1784  require(msg.sender == owner || msg.sender == timelock_address, \"Not owner or timelock\") */\n      tag_102\n      jumpi\n      mload(0x40)\n      shl(0xe5, 0x461bcd)\n      dup2\n      mstore\n        /* \"#utility.yul\":5598:5600   */\n      0x20\n        /* \"NewFraxProtocol/contracts/Oracle/FXSOracleWrapper.sol\":1697:1784  require(msg.sender == owner || msg.sender == timelock_address, \"Not owner or timelock\") */\n      0x04\n      dup3\n      add\n        /* \"#utility.yul\":5580:5601   */\n      mstore\n        /* \"#utility.yul\":5637:5639   */\n      0x15\n        /* \"#utility.yul\":5617:5635   */\n      0x24\n      dup3\n      add\n        /* \"#utility.yul\":5610:5640   */\n      mstore\n      shl(0x58, 0x4e6f74206f776e6572206f722074696d656c6f636b)\n        /* \"#utility.yul\":5656:5674   */\n      0x44\n      dup3\n      add\n        /* \"#utility.yul\":5649:5700   */\n      mstore\n        /* \"#utility.yul\":5717:5735   */\n      0x64\n      add\n        /* \"NewFraxProtocol/contracts/Oracle/FXSOracleWrapper.sol\":1697:1784  require(msg.sender == owner || msg.sender == timelock_address, \"Not owner or timelock\") */\n      tag_63\n        /* \"#utility.yul\":5396:5741   */\n      jump\n        /* \"NewFraxProtocol/contracts/Oracle/FXSOracleWrapper.sol\":1697:1784  require(msg.sender == owner || msg.sender == timelock_address, \"Not owner or timelock\") */\n    tag_102:\n        /* \"NewFraxProtocol/contracts/Oracle/FXSOracleWrapper.sol\":4189:4204  priceFeedETHUSD */\n      0x03\n        /* \"NewFraxProtocol/contracts/Oracle/FXSOracleWrapper.sol\":4189:4255  priceFeedETHUSD = AggregatorV3Interface(_chainlink_eth_usd_oracle) */\n      dup1\n      sload\n      not(sub(shl(0xa0, 0x01), 0x01))\n      and\n      sub(shl(0xa0, 0x01), 0x01)\n      dup4\n      and\n      swap1\n      dup2\n      or\n      swap1\n      swap2\n      sstore\n        /* \"NewFraxProtocol/contracts/Oracle/FXSOracleWrapper.sol\":4294:4320  priceFeedETHUSD.decimals() */\n      0x40\n      dup1\n      mload\n      shl(0xe0, 0x313ce567)\n      dup2\n      mstore\n      swap1\n      mload\n        /* \"NewFraxProtocol/contracts/Oracle/FXSOracleWrapper.sol\":4294:4318  priceFeedETHUSD.decimals */\n      0x313ce567\n      swap2\n        /* \"NewFraxProtocol/contracts/Oracle/FXSOracleWrapper.sol\":4294:4320  priceFeedETHUSD.decimals() */\n      0x04\n      dup1\n      dup3\n      add\n      swap3\n      0x20\n      swap3\n      swap1\n      swap2\n      swap1\n      dup3\n      swap1\n      sub\n      add\n      dup2\n        /* \"NewFraxProtocol/contracts/Oracle/FXSOracleWrapper.sol\":4189:4255  priceFeedETHUSD = AggregatorV3Interface(_chainlink_eth_usd_oracle) */\n      dup7\n        /* \"NewFraxProtocol/contracts/Oracle/FXSOracleWrapper.sol\":4294:4320  priceFeedETHUSD.decimals() */\n      gas\n      staticcall\n      iszero\n      dup1\n      iszero\n      tag_107\n      jumpi\n      returndatasize\n      0x00\n      dup1\n      returndatacopy\n      revert(0x00, returndatasize)\n    tag_107:\n      pop\n      pop\n      pop\n      pop\n      mload(0x40)\n      returndatasize\n      not(0x1f)\n      0x1f\n      dup3\n      add\n      and\n      dup3\n      add\n      dup1\n      0x40\n      mstore\n      pop\n      dup2\n      add\n      swap1\n      tag_108\n      swap2\n      swap1\n      tag_109\n      jump\t// in\n    tag_108:\n        /* \"NewFraxProtocol/contracts/Oracle/FXSOracleWrapper.sol\":4265:4320  chainlink_eth_usd_decimals = priceFeedETHUSD.decimals() */\n      0xff\n      and\n        /* \"NewFraxProtocol/contracts/Oracle/FXSOracleWrapper.sol\":4265:4291  chainlink_eth_usd_decimals */\n      0x05\n        /* \"NewFraxProtocol/contracts/Oracle/FXSOracleWrapper.sol\":4265:4320  chainlink_eth_usd_decimals = priceFeedETHUSD.decimals() */\n      sstore\n      pop\n        /* \"NewFraxProtocol/contracts/Oracle/FXSOracleWrapper.sol\":4088:4327  function setChainlinkETHUSDOracle(address _chainlink_eth_usd_oracle) external onlyByOwnGov {... */\n      jump\t// out\n        /* \"NewFraxProtocol/contracts/Oracle/FXSOracleWrapper.sol\":3843:4082  function setChainlinkFXSUSDOracle(address _chainlink_fxs_usd_oracle) external onlyByOwnGov {... */\n    tag_51:\n        /* \"NewFraxProtocol/contracts/Oracle/FXSOracleWrapper.sol\":1719:1724  owner */\n      and(sub(shl(0xa0, 0x01), 0x01), sload(0x00))\n        /* \"NewFraxProtocol/contracts/Oracle/FXSOracleWrapper.sol\":1705:1715  msg.sender */\n      caller\n        /* \"NewFraxProtocol/contracts/Oracle/FXSOracleWrapper.sol\":1705:1724  msg.sender == owner */\n      eq\n      dup1\n        /* \"NewFraxProtocol/contracts/Oracle/FXSOracleWrapper.sol\":1705:1758  msg.sender == owner || msg.sender == timelock_address */\n      tag_111\n      jumpi\n      pop\n        /* \"NewFraxProtocol/contracts/Oracle/FXSOracleWrapper.sol\":1742:1758  timelock_address */\n      and(sub(shl(0xa0, 0x01), 0x01), sload(0x07))\n        /* \"NewFraxProtocol/contracts/Oracle/FXSOracleWrapper.sol\":1728:1738  msg.sender */\n      caller\n        /* \"NewFraxProtocol/contracts/Oracle/FXSOracleWrapper.sol\":1728:1758  msg.sender == timelock_address */\n      eq\n        /* \"NewFraxProtocol/contracts/Oracle/FXSOracleWrapper.sol\":1705:1758  msg.sender == owner || msg.sender == timelock_address */\n    tag_111:\n        /* \"NewFraxProtocol/contracts/Oracle/FXSOracleWrapper.sol\":1697:1784  require(msg.sender == owner || msg.sender == timelock_address, \"Not owner or timelock\") */\n      tag_112\n      jumpi\n      mload(0x40)\n      shl(0xe5, 0x461bcd)\n      dup2\n      mstore\n        /* \"#utility.yul\":5598:5600   */\n      0x20\n        /* \"NewFraxProtocol/contracts/Oracle/FXSOracleWrapper.sol\":1697:1784  require(msg.sender == owner || msg.sender == timelock_address, \"Not owner or timelock\") */\n      0x04\n      dup3\n      add\n        /* \"#utility.yul\":5580:5601   */\n      mstore\n        /* \"#utility.yul\":5637:5639   */\n      0x15\n        /* \"#utility.yul\":5617:5635   */\n      0x24\n      dup3\n      add\n        /* \"#utility.yul\":5610:5640   */\n      mstore\n      shl(0x58, 0x4e6f74206f776e6572206f722074696d656c6f636b)\n        /* \"#utility.yul\":5656:5674   */\n      0x44\n      dup3\n      add\n        /* \"#utility.yul\":5649:5700   */\n      mstore\n        /* \"#utility.yul\":5717:5735   */\n      0x64\n      add\n        /* \"NewFraxProtocol/contracts/Oracle/FXSOracleWrapper.sol\":1697:1784  require(msg.sender == owner || msg.sender == timelock_address, \"Not owner or timelock\") */\n      tag_63\n        /* \"#utility.yul\":5396:5741   */\n      jump\n        /* \"NewFraxProtocol/contracts/Oracle/FXSOracleWrapper.sol\":1697:1784  require(msg.sender == owner || msg.sender == timelock_address, \"Not owner or timelock\") */\n    tag_112:\n        /* \"NewFraxProtocol/contracts/Oracle/FXSOracleWrapper.sol\":3944:3959  priceFeedFXSUSD */\n      0x02\n        /* \"NewFraxProtocol/contracts/Oracle/FXSOracleWrapper.sol\":3944:4010  priceFeedFXSUSD = AggregatorV3Interface(_chainlink_fxs_usd_oracle) */\n      dup1\n      sload\n      not(sub(shl(0xa0, 0x01), 0x01))\n      and\n      sub(shl(0xa0, 0x01), 0x01)\n      dup4\n      and\n      swap1\n      dup2\n      or\n      swap1\n      swap2\n      sstore\n        /* \"NewFraxProtocol/contracts/Oracle/FXSOracleWrapper.sol\":4049:4075  priceFeedFXSUSD.decimals() */\n      0x40\n      dup1\n      mload\n      shl(0xe0, 0x313ce567)\n      dup2\n      mstore\n      swap1\n      mload\n        /* \"NewFraxProtocol/contracts/Oracle/FXSOracleWrapper.sol\":4049:4073  priceFeedFXSUSD.decimals */\n      0x313ce567\n      swap2\n        /* \"NewFraxProtocol/contracts/Oracle/FXSOracleWrapper.sol\":4049:4075  priceFeedFXSUSD.decimals() */\n      0x04\n      dup1\n      dup3\n      add\n      swap3\n      0x20\n      swap3\n      swap1\n      swap2\n      swap1\n      dup3\n      swap1\n      sub\n      add\n      dup2\n        /* \"NewFraxProtocol/contracts/Oracle/FXSOracleWrapper.sol\":3944:4010  priceFeedFXSUSD = AggregatorV3Interface(_chainlink_fxs_usd_oracle) */\n      dup7\n        /* \"NewFraxProtocol/contracts/Oracle/FXSOracleWrapper.sol\":4049:4075  priceFeedFXSUSD.decimals() */\n      gas\n      staticcall\n      iszero\n      dup1\n      iszero\n      tag_116\n      jumpi\n      returndatasize\n      0x00\n      dup1\n      returndatacopy\n      revert(0x00, returndatasize)\n    tag_116:\n      pop\n      pop\n      pop\n      pop\n      mload(0x40)\n      returndatasize\n      not(0x1f)\n      0x1f\n      dup3\n      add\n      and\n      dup3\n      add\n      dup1\n      0x40\n      mstore\n      pop\n      dup2\n      add\n      swap1\n      tag_117\n      swap2\n      swap1\n      tag_109\n      jump\t// in\n    tag_117:\n        /* \"NewFraxProtocol/contracts/Oracle/FXSOracleWrapper.sol\":4020:4075  chainlink_fxs_usd_decimals = priceFeedFXSUSD.decimals() */\n      0xff\n      and\n        /* \"NewFraxProtocol/contracts/Oracle/FXSOracleWrapper.sol\":4020:4046  chainlink_fxs_usd_decimals */\n      0x04\n        /* \"NewFraxProtocol/contracts/Oracle/FXSOracleWrapper.sol\":4020:4075  chainlink_fxs_usd_decimals = priceFeedFXSUSD.decimals() */\n      sstore\n      pop\n        /* \"NewFraxProtocol/contracts/Oracle/FXSOracleWrapper.sol\":3843:4082  function setChainlinkFXSUSDOracle(address _chainlink_fxs_usd_oracle) external onlyByOwnGov {... */\n      jump\t// out\n        /* \"NewFraxProtocol/contracts/Oracle/FXSOracleWrapper.sol\":2797:3177  function getETHPrice() public view returns (uint256) {... */\n    tag_53:\n        /* \"NewFraxProtocol/contracts/Oracle/FXSOracleWrapper.sol\":2841:2848  uint256 */\n      0x00\n        /* \"NewFraxProtocol/contracts/Oracle/FXSOracleWrapper.sol\":2861:2875  uint80 roundID */\n      dup1\n        /* \"NewFraxProtocol/contracts/Oracle/FXSOracleWrapper.sol\":2877:2886  int price */\n      0x00\n        /* \"NewFraxProtocol/contracts/Oracle/FXSOracleWrapper.sol\":2890:2907  uint256 updatedAt */\n      dup1\n        /* \"NewFraxProtocol/contracts/Oracle/FXSOracleWrapper.sol\":2909:2931  uint80 answeredInRound */\n      0x00\n        /* \"NewFraxProtocol/contracts/Oracle/FXSOracleWrapper.sol\":2935:2950  priceFeedETHUSD */\n      0x03\n      0x00\n      swap1\n      sload\n      swap1\n      0x0100\n      exp\n      swap1\n      div\n      sub(shl(0xa0, 0x01), 0x01)\n      and\n      sub(shl(0xa0, 0x01), 0x01)\n        /* \"NewFraxProtocol/contracts/Oracle/FXSOracleWrapper.sol\":2935:2966  priceFeedETHUSD.latestRoundData */\n      and\n      0xfeaf968c\n        /* \"NewFraxProtocol/contracts/Oracle/FXSOracleWrapper.sol\":2935:2968  priceFeedETHUSD.latestRoundData() */\n      mload(0x40)\n      dup2\n      0xffffffff\n      and\n      0xe0\n      shl\n      dup2\n      mstore\n      0x04\n      add\n      0xa0\n      mload(0x40)\n      dup1\n      dup4\n      sub\n      dup2\n      dup7\n      gas\n      staticcall\n      iszero\n      dup1\n      iszero\n      tag_120\n      jumpi\n      returndatasize\n      0x00\n      dup1\n      returndatacopy\n      revert(0x00, returndatasize)\n    tag_120:\n      pop\n      pop\n      pop\n      pop\n      mload(0x40)\n      returndatasize\n      not(0x1f)\n      0x1f\n      dup3\n      add\n      and\n      dup3\n      add\n      dup1\n      0x40\n      mstore\n      pop\n      dup2\n      add\n      swap1\n      tag_121\n      swap2\n      swap1\n      tag_90\n      jump\t// in\n    tag_121:\n        /* \"NewFraxProtocol/contracts/Oracle/FXSOracleWrapper.sol\":2860:2968  (uint80 roundID, int price, , uint256 updatedAt, uint80 answeredInRound) = priceFeedETHUSD.latestRoundData() */\n      swap5\n      pop\n      swap5\n      pop\n      pop\n      swap4\n      pop\n      swap4\n      pop\n        /* \"NewFraxProtocol/contracts/Oracle/FXSOracleWrapper.sol\":2995:2996  0 */\n      0x00\n        /* \"NewFraxProtocol/contracts/Oracle/FXSOracleWrapper.sol\":2986:2991  price */\n      dup4\n        /* \"NewFraxProtocol/contracts/Oracle/FXSOracleWrapper.sol\":2986:2996  price >= 0 */\n      slt\n      iszero\n        /* \"NewFraxProtocol/contracts/Oracle/FXSOracleWrapper.sol\":2986:3013  price >= 0 && updatedAt!= 0 */\n      dup1\n      iszero\n      tag_122\n      jumpi\n      pop\n        /* \"NewFraxProtocol/contracts/Oracle/FXSOracleWrapper.sol\":3000:3013  updatedAt!= 0 */\n      dup2\n      iszero\n      iszero\n        /* \"NewFraxProtocol/contracts/Oracle/FXSOracleWrapper.sol\":2986:3013  price >= 0 && updatedAt!= 0 */\n    tag_122:\n        /* \"NewFraxProtocol/contracts/Oracle/FXSOracleWrapper.sol\":2986:3043  price >= 0 && updatedAt!= 0 && answeredInRound >= roundID */\n      dup1\n      iszero\n      tag_123\n      jumpi\n      pop\n        /* \"NewFraxProtocol/contracts/Oracle/FXSOracleWrapper.sol\":3036:3043  roundID */\n      dup4\n      sub(shl(0x50, 0x01), 0x01)\n        /* \"NewFraxProtocol/contracts/Oracle/FXSOracleWrapper.sol\":3017:3043  answeredInRound >= roundID */\n      and\n        /* \"NewFraxProtocol/contracts/Oracle/FXSOracleWrapper.sol\":3017:3032  answeredInRound */\n      dup2\n      sub(shl(0x50, 0x01), 0x01)\n        /* \"NewFraxProtocol/contracts/Oracle/FXSOracleWrapper.sol\":3017:3043  answeredInRound >= roundID */\n      and\n      lt\n      iszero\n        /* \"NewFraxProtocol/contracts/Oracle/FXSOracleWrapper.sol\":2986:3043  price >= 0 && updatedAt!= 0 && answeredInRound >= roundID */\n    tag_123:\n        /* \"NewFraxProtocol/contracts/Oracle/FXSOracleWrapper.sol\":2978:3071  require(price >= 0 && updatedAt!= 0 && answeredInRound >= roundID, \"Invalid chainlink price\") */\n      tag_124\n      jumpi\n      mload(0x40)\n      shl(0xe5, 0x461bcd)\n      dup2\n      mstore\n        /* \"#utility.yul\":3740:3742   */\n      0x20\n        /* \"NewFraxProtocol/contracts/Oracle/FXSOracleWrapper.sol\":2978:3071  require(price >= 0 && updatedAt!= 0 && answeredInRound >= roundID, \"Invalid chainlink price\") */\n      0x04\n      dup3\n      add\n        /* \"#utility.yul\":3722:3743   */\n      mstore\n        /* \"#utility.yul\":3779:3781   */\n      0x17\n        /* \"#utility.yul\":3759:3777   */\n      0x24\n      dup3\n      add\n        /* \"#utility.yul\":3752:3782   */\n      mstore\n      shl(0x48, 0x496e76616c696420636861696e6c696e6b207072696365)\n        /* \"#utility.yul\":3798:3816   */\n      0x44\n      dup3\n      add\n        /* \"#utility.yul\":3791:3844   */\n      mstore\n        /* \"#utility.yul\":3861:3879   */\n      0x64\n      add\n        /* \"NewFraxProtocol/contracts/Oracle/FXSOracleWrapper.sol\":2978:3071  require(price >= 0 && updatedAt!= 0 && answeredInRound >= roundID, \"Invalid chainlink price\") */\n      tag_63\n        /* \"#utility.yul\":3538:3885   */\n      jump\n        /* \"NewFraxProtocol/contracts/Oracle/FXSOracleWrapper.sol\":2978:3071  require(price >= 0 && updatedAt!= 0 && answeredInRound >= roundID, \"Invalid chainlink price\") */\n    tag_124:\n        /* \"NewFraxProtocol/contracts/Oracle/FXSOracleWrapper.sol\":3097:3170  uint256(price).mul(PRICE_PRECISION).div(10 ** chainlink_eth_usd_decimals) */\n      tag_96\n        /* \"NewFraxProtocol/contracts/Oracle/FXSOracleWrapper.sol\":3143:3169  chainlink_eth_usd_decimals */\n      sload(0x05)\n        /* \"NewFraxProtocol/contracts/Oracle/FXSOracleWrapper.sol\":3137:3139  10 */\n      0x0a\n        /* \"NewFraxProtocol/contracts/Oracle/FXSOracleWrapper.sol\":3137:3169  10 ** chainlink_eth_usd_decimals */\n      tag_97\n      swap2\n      swap1\n      tag_98\n      jump\t// in\n        /* \"NewFraxProtocol/contracts/Math/SafeMath.sol\":2193:2652  function mul(uint256 a, uint256 b) internal pure returns (uint256) {... */\n    tag_78:\n        /* \"NewFraxProtocol/contracts/Math/SafeMath.sol\":2251:2258  uint256 */\n      0x00\n        /* \"NewFraxProtocol/contracts/Math/SafeMath.sol\":2492:2493  a */\n      dup3\n        /* \"NewFraxProtocol/contracts/Math/SafeMath.sol\":2497:2498  0 */\n      0x00\n        /* \"NewFraxProtocol/contracts/Math/SafeMath.sol\":2492:2498  a == 0 */\n      sub\n        /* \"NewFraxProtocol/contracts/Math/SafeMath.sol\":2488:2533  if (a == 0) {... */\n      tag_130\n      jumpi\n      pop\n        /* \"NewFraxProtocol/contracts/Math/SafeMath.sol\":2521:2522  0 */\n      0x00\n        /* \"NewFraxProtocol/contracts/Math/SafeMath.sol\":2514:2522  return 0 */\n      jump(tag_67)\n        /* \"NewFraxProtocol/contracts/Math/SafeMath.sol\":2488:2533  if (a == 0) {... */\n    tag_130:\n        /* \"NewFraxProtocol/contracts/Math/SafeMath.sol\":2543:2552  uint256 c */\n      0x00\n        /* \"NewFraxProtocol/contracts/Math/SafeMath.sol\":2555:2560  a * b */\n      tag_131\n        /* \"NewFraxProtocol/contracts/Math/SafeMath.sol\":2559:2560  b */\n      dup4\n        /* \"NewFraxProtocol/contracts/Math/SafeMath.sol\":2555:2556  a */\n      dup6\n        /* \"NewFraxProtocol/contracts/Math/SafeMath.sol\":2555:2560  a * b */\n      tag_132\n      jump\t// in\n    tag_131:\n        /* \"NewFraxProtocol/contracts/Math/SafeMath.sol\":2543:2560  uint256 c = a * b */\n      swap1\n      pop\n        /* \"NewFraxProtocol/contracts/Math/SafeMath.sol\":2587:2588  b */\n      dup3\n        /* \"NewFraxProtocol/contracts/Math/SafeMath.sol\":2578:2583  c / a */\n      tag_133\n        /* \"NewFraxProtocol/contracts/Math/SafeMath.sol\":2582:2583  a */\n      dup6\n        /* \"NewFraxProtocol/contracts/Math/SafeMath.sol\":2543:2560  uint256 c = a * b */\n      dup4\n        /* \"NewFraxProtocol/contracts/Math/SafeMath.sol\":2578:2583  c / a */\n      tag_134\n      jump\t// in\n    tag_133:\n        /* \"NewFraxProtocol/contracts/Math/SafeMath.sol\":2578:2588  c / a == b */\n      eq\n        /* \"NewFraxProtocol/contracts/Math/SafeMath.sol\":2570:2626  require(c / a == b, \"SafeMath: multiplication overflow\") */\n      tag_74\n      jumpi\n      mload(0x40)\n      shl(0xe5, 0x461bcd)\n      dup2\n      mstore\n        /* \"#utility.yul\":6621:6623   */\n      0x20\n        /* \"NewFraxProtocol/contracts/Math/SafeMath.sol\":2570:2626  require(c / a == b, \"SafeMath: multiplication overflow\") */\n      0x04\n      dup3\n      add\n        /* \"#utility.yul\":6603:6624   */\n      mstore\n        /* \"#utility.yul\":6660:6662   */\n      0x21\n        /* \"#utility.yul\":6640:6658   */\n      0x24\n      dup3\n      add\n        /* \"#utility.yul\":6633:6663   */\n      mstore\n        /* \"#utility.yul\":6699:6733   */\n      0x536166654d6174683a206d756c7469706c69636174696f6e206f766572666c6f\n        /* \"#utility.yul\":6679:6697   */\n      0x44\n      dup3\n      add\n        /* \"#utility.yul\":6672:6734   */\n      mstore\n      shl(0xf8, 0x77)\n        /* \"#utility.yul\":6750:6768   */\n      0x64\n      dup3\n      add\n        /* \"#utility.yul\":6743:6774   */\n      mstore\n        /* \"#utility.yul\":6791:6810   */\n      0x84\n      add\n        /* \"NewFraxProtocol/contracts/Math/SafeMath.sol\":2570:2626  require(c / a == b, \"SafeMath: multiplication overflow\") */\n      tag_63\n        /* \"#utility.yul\":6419:6816   */\n      jump\n        /* \"NewFraxProtocol/contracts/Math/SafeMath.sol\":3107:3237  function div(uint256 a, uint256 b) internal pure returns (uint256) {... */\n    tag_79:\n        /* \"NewFraxProtocol/contracts/Math/SafeMath.sol\":3165:3172  uint256 */\n      0x00\n        /* \"NewFraxProtocol/contracts/Math/SafeMath.sol\":3191:3230  div(a, b, \"SafeMath: division by zero\") */\n      tag_74\n        /* \"NewFraxProtocol/contracts/Math/SafeMath.sol\":3195:3196  a */\n      dup4\n        /* \"NewFraxProtocol/contracts/Math/SafeMath.sol\":3198:3199  b */\n      dup4\n        /* \"NewFraxProtocol/contracts/Math/SafeMath.sol\":3191:3230  div(a, b, \"SafeMath: division by zero\") */\n      mload(0x40)\n      dup1\n      0x40\n      add\n      0x40\n      mstore\n      dup1\n      0x1a\n      dup2\n      mstore\n      0x20\n      add\n      0x536166654d6174683a206469766973696f6e206279207a65726f000000000000\n      dup2\n      mstore\n      pop\n        /* \"NewFraxProtocol/contracts/Math/SafeMath.sol\":3838:3845  uint256 */\n      0x00\n        /* \"NewFraxProtocol/contracts/Math/SafeMath.sol\":3938:3950  errorMessage */\n      dup2\n        /* \"NewFraxProtocol/contracts/Math/SafeMath.sol\":3931:3936  b > 0 */\n      dup4\n        /* \"NewFraxProtocol/contracts/Math/SafeMath.sol\":3923:3951  require(b > 0, errorMessage) */\n      tag_142\n      jumpi\n      mload(0x40)\n      shl(0xe5, 0x461bcd)\n      dup2\n      mstore\n      0x04\n      add\n      tag_63\n      swap2\n      swap1\n      tag_144\n      jump\t// in\n    tag_142:\n      pop\n        /* \"NewFraxProtocol/contracts/Math/SafeMath.sol\":3961:3970  uint256 c */\n      0x00\n        /* \"NewFraxProtocol/contracts/Math/SafeMath.sol\":3973:3978  a / b */\n      tag_145\n        /* \"NewFraxProtocol/contracts/Math/SafeMath.sol\":3977:3978  b */\n      dup5\n        /* \"NewFraxProtocol/contracts/Math/SafeMath.sol\":3973:3974  a */\n      dup7\n        /* \"NewFraxProtocol/contracts/Math/SafeMath.sol\":3973:3978  a / b */\n      tag_134\n      jump\t// in\n    tag_145:\n        /* \"NewFraxProtocol/contracts/Math/SafeMath.sol\":3961:3978  uint256 c = a / b */\n      swap6\n        /* \"NewFraxProtocol/contracts/Math/SafeMath.sol\":3752:4090  function div(uint256 a, uint256 b, string memory errorMessage) internal pure returns (uint256) {... */\n      swap5\n      pop\n      pop\n      pop\n      pop\n      pop\n      jump\t// out\n        /* \"#utility.yul\":14:187   */\n    tag_146:\n        /* \"#utility.yul\":82:102   */\n      dup1\n      calldataload\n      sub(shl(0xa0, 0x01), 0x01)\n        /* \"#utility.yul\":131:162   */\n      dup2\n      and\n        /* \"#utility.yul\":121:163   */\n      dup2\n      eq\n        /* \"#utility.yul\":111:181   */\n      tag_153\n      jumpi\n        /* \"#utility.yul\":177:178   */\n      0x00\n        /* \"#utility.yul\":174:175   */\n      dup1\n        /* \"#utility.yul\":167:179   */\n      revert\n        /* \"#utility.yul\":111:181   */\n    tag_153:\n        /* \"#utility.yul\":14:187   */\n      swap2\n      swap1\n      pop\n      jump\t// out\n        /* \"#utility.yul\":192:378   */\n    tag_20:\n        /* \"#utility.yul\":251:257   */\n      0x00\n        /* \"#utility.yul\":304:306   */\n      0x20\n        /* \"#utility.yul\":292:301   */\n      dup3\n        /* \"#utility.yul\":283:290   */\n      dup5\n        /* \"#utility.yul\":279:302   */\n      sub\n        /* \"#utility.yul\":275:307   */\n      slt\n        /* \"#utility.yul\":272:324   */\n      iszero\n      tag_155\n      jumpi\n        /* \"#utility.yul\":320:321   */\n      0x00\n        /* \"#utility.yul\":317:318   */\n      dup1\n        /* \"#utility.yul\":310:322   */\n      revert\n        /* \"#utility.yul\":272:324   */\n    tag_155:\n        /* \"#utility.yul\":343:372   */\n      tag_74\n        /* \"#utility.yul\":362:371   */\n      dup3\n        /* \"#utility.yul\":343:372   */\n      tag_146\n      jump\t// in\n        /* \"#utility.yul\":383:637   */\n    tag_24:\n        /* \"#utility.yul\":451:457   */\n      0x00\n        /* \"#utility.yul\":459:465   */\n      dup1\n        /* \"#utility.yul\":512:514   */\n      0x40\n        /* \"#utility.yul\":500:509   */\n      dup4\n        /* \"#utility.yul\":491:498   */\n      dup6\n        /* \"#utility.yul\":487:510   */\n      sub\n        /* \"#utility.yul\":483:515   */\n      slt\n        /* \"#utility.yul\":480:532   */\n      iszero\n      tag_158\n      jumpi\n        /* \"#utility.yul\":528:529   */\n      0x00\n        /* \"#utility.yul\":525:526   */\n      dup1\n        /* \"#utility.yul\":518:530   */\n      revert\n        /* \"#utility.yul\":480:532   */\n    tag_158:\n        /* \"#utility.yul\":551:580   */\n      tag_159\n        /* \"#utility.yul\":570:579   */\n      dup4\n        /* \"#utility.yul\":551:580   */\n      tag_146\n      jump\t// in\n    tag_159:\n        /* \"#utility.yul\":541:580   */\n      swap5\n        /* \"#utility.yul\":627:629   */\n      0x20\n        /* \"#utility.yul\":612:630   */\n      swap4\n      swap1\n      swap4\n      add\n        /* \"#utility.yul\":599:631   */\n      calldataload\n      swap4\n      pop\n      pop\n      pop\n        /* \"#utility.yul\":383:637   */\n      jump\t// out\n        /* \"#utility.yul\":2876:3055   */\n    tag_147:\n        /* \"#utility.yul\":2954:2967   */\n      dup1\n      mload\n      sub(shl(0x50, 0x01), 0x01)\n        /* \"#utility.yul\":2996:3030   */\n      dup2\n      and\n        /* \"#utility.yul\":2986:3031   */\n      dup2\n      eq\n        /* \"#utility.yul\":2976:3049   */\n      tag_153\n      jumpi\n        /* \"#utility.yul\":3045:3046   */\n      0x00\n        /* \"#utility.yul\":3042:3043   */\n      dup1\n        /* \"#utility.yul\":3035:3047   */\n      revert\n        /* \"#utility.yul\":3060:3533   */\n    tag_90:\n        /* \"#utility.yul\":3163:3169   */\n      0x00\n        /* \"#utility.yul\":3171:3177   */\n      dup1\n        /* \"#utility.yul\":3179:3185   */\n      0x00\n        /* \"#utility.yul\":3187:3193   */\n      dup1\n        /* \"#utility.yul\":3195:3201   */\n      0x00\n        /* \"#utility.yul\":3248:3251   */\n      0xa0\n        /* \"#utility.yul\":3236:3245   */\n      dup7\n        /* \"#utility.yul\":3227:3234   */\n      dup9\n        /* \"#utility.yul\":3223:3246   */\n      sub\n        /* \"#utility.yul\":3219:3252   */\n      slt\n        /* \"#utility.yul\":3216:3269   */\n      iszero\n      tag_170\n      jumpi\n        /* \"#utility.yul\":3265:3266   */\n      0x00\n        /* \"#utility.yul\":3262:3263   */\n      dup1\n        /* \"#utility.yul\":3255:3267   */\n      revert\n        /* \"#utility.yul\":3216:3269   */\n    tag_170:\n        /* \"#utility.yul\":3288:3327   */\n      tag_171\n        /* \"#utility.yul\":3317:3326   */\n      dup7\n        /* \"#utility.yul\":3288:3327   */\n      tag_147\n      jump\t// in\n    tag_171:\n        /* \"#utility.yul\":3278:3327   */\n      swap5\n      pop\n        /* \"#utility.yul\":3367:3369   */\n      0x20\n        /* \"#utility.yul\":3356:3365   */\n      dup7\n        /* \"#utility.yul\":3352:3370   */\n      add\n        /* \"#utility.yul\":3346:3371   */\n      mload\n        /* \"#utility.yul\":3336:3371   */\n      swap4\n      pop\n        /* \"#utility.yul\":3411:3413   */\n      0x40\n        /* \"#utility.yul\":3400:3409   */\n      dup7\n        /* \"#utility.yul\":3396:3414   */\n      add\n        /* \"#utility.yul\":3390:3415   */\n      mload\n        /* \"#utility.yul\":3380:3415   */\n      swap3\n      pop\n        /* \"#utility.yul\":3455:3457   */\n      0x60\n        /* \"#utility.yul\":3444:3453   */\n      dup7\n        /* \"#utility.yul\":3440:3458   */\n      add\n        /* \"#utility.yul\":3434:3459   */\n      mload\n        /* \"#utility.yul\":3424:3459   */\n      swap2\n      pop\n        /* \"#utility.yul\":3478:3527   */\n      tag_172\n        /* \"#utility.yul\":3522:3525   */\n      0x80\n        /* \"#utility.yul\":3511:3520   */\n      dup8\n        /* \"#utility.yul\":3507:3526   */\n      add\n        /* \"#utility.yul\":3478:3527   */\n      tag_147\n      jump\t// in\n    tag_172:\n        /* \"#utility.yul\":3468:3527   */\n      swap1\n      pop\n        /* \"#utility.yul\":3060:3533   */\n      swap3\n      swap6\n      pop\n      swap3\n      swap6\n      swap1\n      swap4\n      pop\n      jump\t// out\n        /* \"#utility.yul\":3890:4017   */\n    tag_148:\n        /* \"#utility.yul\":3951:3961   */\n      0x4e487b71\n        /* \"#utility.yul\":3946:3949   */\n      0xe0\n        /* \"#utility.yul\":3942:3962   */\n      shl\n        /* \"#utility.yul\":3939:3940   */\n      0x00\n        /* \"#utility.yul\":3932:3963   */\n      mstore\n        /* \"#utility.yul\":3982:3986   */\n      0x11\n        /* \"#utility.yul\":3979:3980   */\n      0x04\n        /* \"#utility.yul\":3972:3987   */\n      mstore\n        /* \"#utility.yul\":4006:4010   */\n      0x24\n        /* \"#utility.yul\":4003:4004   */\n      0x00\n        /* \"#utility.yul\":3996:4011   */\n      revert\n        /* \"#utility.yul\":4022:4444   */\n    tag_149:\n        /* \"#utility.yul\":4111:4112   */\n      0x01\n        /* \"#utility.yul\":4154:4159   */\n      dup2\n        /* \"#utility.yul\":4111:4112   */\n      dup2\n        /* \"#utility.yul\":4168:4438   */\n    tag_176:\n        /* \"#utility.yul\":4189:4196   */\n      dup1\n        /* \"#utility.yul\":4179:4187   */\n      dup6\n        /* \"#utility.yul\":4176:4197   */\n      gt\n        /* \"#utility.yul\":4168:4438   */\n      iszero\n      tag_178\n      jumpi\n        /* \"#utility.yul\":4248:4252   */\n      dup2\n        /* \"#utility.yul\":4244:4245   */\n      0x00\n        /* \"#utility.yul\":4240:4246   */\n      not\n        /* \"#utility.yul\":4236:4253   */\n      div\n        /* \"#utility.yul\":4230:4234   */\n      dup3\n        /* \"#utility.yul\":4227:4254   */\n      gt\n        /* \"#utility.yul\":4224:4277   */\n      iszero\n      tag_180\n      jumpi\n        /* \"#utility.yul\":4257:4275   */\n      tag_180\n      tag_148\n      jump\t// in\n    tag_180:\n        /* \"#utility.yul\":4307:4314   */\n      dup1\n        /* \"#utility.yul\":4297:4305   */\n      dup6\n        /* \"#utility.yul\":4293:4315   */\n      and\n        /* \"#utility.yul\":4290:4345   */\n      iszero\n      tag_181\n      jumpi\n        /* \"#utility.yul\":4327:4343   */\n      swap2\n      dup2\n      mul\n      swap2\n        /* \"#utility.yul\":4290:4345   */\n    tag_181:\n        /* \"#utility.yul\":4406:4428   */\n      swap4\n      dup5\n      shr\n      swap4\n        /* \"#utility.yul\":4366:4381   */\n      swap1\n      dup1\n      mul\n      swap1\n        /* \"#utility.yul\":4168:4438   */\n      jump(tag_176)\n    tag_178:\n        /* \"#utility.yul\":4172:4175   */\n      pop\n        /* \"#utility.yul\":4022:4444   */\n      swap3\n      pop\n      swap3\n      swap1\n      pop\n      jump\t// out\n        /* \"#utility.yul\":4449:5255   */\n    tag_150:\n        /* \"#utility.yul\":4498:4503   */\n      0x00\n        /* \"#utility.yul\":4528:4536   */\n      dup3\n        /* \"#utility.yul\":4518:4598   */\n      tag_183\n      jumpi\n      pop\n        /* \"#utility.yul\":4569:4570   */\n      0x01\n        /* \"#utility.yul\":4583:4588   */\n      jump(tag_67)\n        /* \"#utility.yul\":4518:4598   */\n    tag_183:\n        /* \"#utility.yul\":4617:4621   */\n      dup2\n        /* \"#utility.yul\":4607:4683   */\n      tag_184\n      jumpi\n      pop\n        /* \"#utility.yul\":4654:4655   */\n      0x00\n        /* \"#utility.yul\":4668:4673   */\n      jump(tag_67)\n        /* \"#utility.yul\":4607:4683   */\n    tag_184:\n        /* \"#utility.yul\":4699:4703   */\n      dup2\n        /* \"#utility.yul\":4717:4718   */\n      0x01\n        /* \"#utility.yul\":4712:4771   */\n      dup2\n      eq\n      tag_186\n      jumpi\n        /* \"#utility.yul\":4785:4786   */\n      0x02\n        /* \"#utility.yul\":4780:4910   */\n      dup2\n      eq\n      tag_187\n      jumpi\n        /* \"#utility.yul\":4692:4910   */\n      jump(tag_185)\n        /* \"#utility.yul\":4712:4771   */\n    tag_186:\n        /* \"#utility.yul\":4742:4743   */\n      0x01\n        /* \"#utility.yul\":4733:4743   */\n      swap2\n      pop\n        /* \"#utility.yul\":4756:4761   */\n      pop\n      jump(tag_67)\n        /* \"#utility.yul\":4780:4910   */\n    tag_187:\n        /* \"#utility.yul\":4817:4820   */\n      0xff\n        /* \"#utility.yul\":4807:4815   */\n      dup5\n        /* \"#utility.yul\":4804:4821   */\n      gt\n        /* \"#utility.yul\":4801:4844   */\n      iszero\n      tag_189\n      jumpi\n        /* \"#utility.yul\":4824:4842   */\n      tag_189\n      tag_148\n      jump\t// in\n    tag_189:\n      pop\n      pop\n        /* \"#utility.yul\":4880:4881   */\n      0x01\n        /* \"#utility.yul\":4866:4882   */\n      dup3\n      shl\n        /* \"#utility.yul\":4895:4900   */\n      jump(tag_67)\n        /* \"#utility.yul\":4692:4910   */\n    tag_185:\n      pop\n        /* \"#utility.yul\":4994:4996   */\n      0x20\n        /* \"#utility.yul\":4984:4992   */\n      dup4\n        /* \"#utility.yul\":4981:4997   */\n      lt\n        /* \"#utility.yul\":4975:4978   */\n      0x0133\n        /* \"#utility.yul\":4969:4973   */\n      dup4\n        /* \"#utility.yul\":4966:4979   */\n      lt\n        /* \"#utility.yul\":4962:4998   */\n      and\n        /* \"#utility.yul\":4956:4958   */\n      0x4e\n        /* \"#utility.yul\":4946:4954   */\n      dup5\n        /* \"#utility.yul\":4943:4959   */\n      lt\n        /* \"#utility.yul\":4938:4940   */\n      0x0b\n        /* \"#utility.yul\":4932:4936   */\n      dup5\n        /* \"#utility.yul\":4929:4941   */\n      lt\n        /* \"#utility.yul\":4925:4960   */\n      and\n        /* \"#utility.yul\":4922:4999   */\n      or\n        /* \"#utility.yul\":4919:5078   */\n      iszero\n      tag_190\n      jumpi\n      pop\n        /* \"#utility.yul\":5031:5050   */\n      dup2\n      dup2\n      exp\n        /* \"#utility.yul\":5063:5068   */\n      jump(tag_67)\n        /* \"#utility.yul\":4919:5078   */\n    tag_190:\n        /* \"#utility.yul\":5110:5144   */\n      tag_191\n        /* \"#utility.yul\":5135:5143   */\n      dup4\n        /* \"#utility.yul\":5129:5133   */\n      dup4\n        /* \"#utility.yul\":5110:5144   */\n      tag_149\n      jump\t// in\n    tag_191:\n        /* \"#utility.yul\":5180:5186   */\n      dup1\n        /* \"#utility.yul\":5176:5177   */\n      0x00\n        /* \"#utility.yul\":5172:5178   */\n      not\n        /* \"#utility.yul\":5168:5187   */\n      div\n        /* \"#utility.yul\":5159:5166   */\n      dup3\n        /* \"#utility.yul\":5156:5188   */\n      gt\n        /* \"#utility.yul\":5153:5211   */\n      iszero\n      tag_193\n      jumpi\n        /* \"#utility.yul\":5191:5209   */\n      tag_193\n      tag_148\n      jump\t// in\n    tag_193:\n        /* \"#utility.yul\":5229:5249   */\n      mul\n      swap4\n        /* \"#utility.yul\":4449:5255   */\n      swap3\n      pop\n      pop\n      pop\n      jump\t// out\n        /* \"#utility.yul\":5260:5391   */\n    tag_98:\n        /* \"#utility.yul\":5320:5325   */\n      0x00\n        /* \"#utility.yul\":5349:5385   */\n      tag_74\n        /* \"#utility.yul\":5376:5384   */\n      dup4\n        /* \"#utility.yul\":5370:5374   */\n      dup4\n        /* \"#utility.yul\":5349:5385   */\n      tag_150\n      jump\t// in\n        /* \"#utility.yul\":5746:6019   */\n    tag_109:\n        /* \"#utility.yul\":5814:5820   */\n      0x00\n        /* \"#utility.yul\":5867:5869   */\n      0x20\n        /* \"#utility.yul\":5855:5864   */\n      dup3\n        /* \"#utility.yul\":5846:5853   */\n      dup5\n        /* \"#utility.yul\":5842:5865   */\n      sub\n        /* \"#utility.yul\":5838:5870   */\n      slt\n        /* \"#utility.yul\":5835:5887   */\n      iszero\n      tag_198\n      jumpi\n        /* \"#utility.yul\":5883:5884   */\n      0x00\n        /* \"#utility.yul\":5880:5881   */\n      dup1\n        /* \"#utility.yul\":5873:5885   */\n      revert\n        /* \"#utility.yul\":5835:5887   */\n    tag_198:\n        /* \"#utility.yul\":5915:5924   */\n      dup2\n        /* \"#utility.yul\":5909:5925   */\n      mload\n        /* \"#utility.yul\":5965:5969   */\n      0xff\n        /* \"#utility.yul\":5958:5963   */\n      dup2\n        /* \"#utility.yul\":5954:5970   */\n      and\n        /* \"#utility.yul\":5947:5952   */\n      dup2\n        /* \"#utility.yul\":5944:5971   */\n      eq\n        /* \"#utility.yul\":5934:5989   */\n      tag_74\n      jumpi\n        /* \"#utility.yul\":5985:5986   */\n      0x00\n        /* \"#utility.yul\":5982:5983   */\n      dup1\n        /* \"#utility.yul\":5975:5987   */\n      revert\n        /* \"#utility.yul\":6024:6192   */\n    tag_132:\n        /* \"#utility.yul\":6097:6106   */\n      dup1\n      dup3\n      mul\n        /* \"#utility.yul\":6128:6137   */\n      dup2\n      iszero\n        /* \"#utility.yul\":6145:6160   */\n      dup3\n      dup3\n      div\n        /* \"#utility.yul\":6139:6161   */\n      dup5\n      eq\n        /* \"#utility.yul\":6125:6162   */\n      or\n        /* \"#utility.yul\":6115:6186   */\n      tag_67\n      jumpi\n        /* \"#utility.yul\":6166:6184   */\n      tag_67\n      tag_148\n      jump\t// in\n        /* \"#utility.yul\":6197:6414   */\n    tag_134:\n        /* \"#utility.yul\":6237:6238   */\n      0x00\n        /* \"#utility.yul\":6263:6264   */\n      dup3\n        /* \"#utility.yul\":6253:6385   */\n      tag_204\n      jumpi\n        /* \"#utility.yul\":6307:6317   */\n      0x4e487b71\n        /* \"#utility.yul\":6302:6305   */\n      0xe0\n        /* \"#utility.yul\":6298:6318   */\n      shl\n        /* \"#utility.yul\":6295:6296   */\n      0x00\n        /* \"#utility.yul\":6288:6319   */\n      mstore\n        /* \"#utility.yul\":6342:6346   */\n      0x12\n        /* \"#utility.yul\":6339:6340   */\n      0x04\n        /* \"#utility.yul\":6332:6347   */\n      mstore\n        /* \"#utility.yul\":6370:6374   */\n      0x24\n        /* \"#utility.yul\":6367:6368   */\n      0x00\n        /* \"#utility.yul\":6360:6375   */\n      revert\n        /* \"#utility.yul\":6253:6385   */\n    tag_204:\n      pop\n        /* \"#utility.yul\":6399:6408   */\n      div\n      swap1\n        /* \"#utility.yul\":6197:6414   */\n      jump\t// out\n        /* \"#utility.yul\":6821:7369   */\n    tag_144:\n        /* \"#utility.yul\":6933:6937   */\n      0x00\n        /* \"#utility.yul\":6962:6964   */\n      0x20\n        /* \"#utility.yul\":6991:6993   */\n      dup1\n        /* \"#utility.yul\":6980:6989   */\n      dup4\n        /* \"#utility.yul\":6973:6994   */\n      mstore\n        /* \"#utility.yul\":7023:7029   */\n      dup4\n        /* \"#utility.yul\":7017:7030   */\n      mload\n        /* \"#utility.yul\":7066:7072   */\n      dup1\n        /* \"#utility.yul\":7061:7063   */\n      dup3\n        /* \"#utility.yul\":7050:7059   */\n      dup6\n        /* \"#utility.yul\":7046:7064   */\n      add\n        /* \"#utility.yul\":7039:7073   */\n      mstore\n        /* \"#utility.yul\":7091:7092   */\n      0x00\n        /* \"#utility.yul\":7101:7241   */\n    tag_207:\n        /* \"#utility.yul\":7115:7121   */\n      dup2\n        /* \"#utility.yul\":7112:7113   */\n      dup2\n        /* \"#utility.yul\":7109:7122   */\n      lt\n        /* \"#utility.yul\":7101:7241   */\n      iszero\n      tag_209\n      jumpi\n        /* \"#utility.yul\":7210:7224   */\n      dup6\n      dup2\n      add\n        /* \"#utility.yul\":7206:7229   */\n      dup4\n      add\n        /* \"#utility.yul\":7200:7230   */\n      mload\n        /* \"#utility.yul\":7176:7193   */\n      dup6\n      dup3\n      add\n        /* \"#utility.yul\":7195:7197   */\n      0x40\n        /* \"#utility.yul\":7172:7198   */\n      add\n        /* \"#utility.yul\":7165:7231   */\n      mstore\n        /* \"#utility.yul\":7130:7140   */\n      dup3\n      add\n        /* \"#utility.yul\":7101:7241   */\n      jump(tag_207)\n    tag_209:\n        /* \"#utility.yul\":7105:7108   */\n      pop\n        /* \"#utility.yul\":7290:7291   */\n      0x00\n        /* \"#utility.yul\":7285:7287   */\n      0x40\n        /* \"#utility.yul\":7276:7282   */\n      dup3\n        /* \"#utility.yul\":7265:7274   */\n      dup7\n        /* \"#utility.yul\":7261:7283   */\n      add\n        /* \"#utility.yul\":7257:7288   */\n      add\n        /* \"#utility.yul\":7250:7292   */\n      mstore\n        /* \"#utility.yul\":7360:7362   */\n      0x40\n        /* \"#utility.yul\":7353:7355   */\n      0x1f\n        /* \"#utility.yul\":7349:7356   */\n      not\n        /* \"#utility.yul\":7344:7346   */\n      0x1f\n        /* \"#utility.yul\":7336:7342   */\n      dup4\n        /* \"#utility.yul\":7332:7347   */\n      add\n        /* \"#utility.yul\":7328:7357   */\n      and\n        /* \"#utility.yul\":7317:7326   */\n      dup6\n        /* \"#utility.yul\":7313:7358   */\n      add\n        /* \"#utility.yul\":7309:7363   */\n      add\n        /* \"#utility.yul\":7301:7363   */\n      swap3\n      pop\n      pop\n      pop\n        /* \"#utility.yul\":6821:7369   */\n      swap3\n      swap2\n      pop\n      pop\n      jump\t// out\n\n    auxdata: 0xa264697066735822122059adb05277171557398b71241c7ab68ce942286a187981e383467c28e7e37e4864736f6c63430008150033\n}\n",
				"bytecode": {
					"linkReferences": {},
					"object": "6080604052620f4240600655348015610016575f80fd5b50604051610e49380380610e4983398101604081905261003591610236565b816001600160a01b0381166100905760405162461bcd60e51b815260206004820152601960248201527f4f776e657220616464726573732063616e6e6f74206265203000000000000000604482015260640160405180910390fd5b5f80546001600160a01b0319166001600160a01b03831690811782556040805192835260208301919091527fb532073b38c83145e3e5135377a08bf9aab55bc0fd7c1179cd4fb995d2a5159c910160405180910390a150600780546001600160a01b03199081166001600160a01b03841617909155600280547374dcbd8b2128437b78b77da6d387b8ab0e5d4acb9216821790556040805163313ce56760e01b8152905163313ce567916004808201926020929091908290030181865afa15801561015d573d5f803e3d5ffd5b505050506040513d601f19601f820116820180604052508101906101819190610267565b60ff166004908155600380546001600160a01b03191673cd2a119bd1f7df95d706de6f2057fdd45a0503e29081179091556040805163313ce56760e01b81529051919263313ce5679282820192602092908290030181865afa1580156101e9573d5f803e3d5ffd5b505050506040513d601f19601f8201168201806040525081019061020d9190610267565b60ff166005555061028e9050565b80516001600160a01b0381168114610231575f80fd5b919050565b5f8060408385031215610247575f80fd5b6102508361021b565b915061025e6020840161021b565b90509250929050565b5f60208284031215610277575f80fd5b815160ff81168114610287575f80fd5b9392505050565b610bae8061029b5f395ff3fe608060405234801561000f575f80fd5b50600436106100cb575f3560e01c80638da5cb5b11610088578063a2dcb4f511610063578063a2dcb4f51461017c578063a607a8d91461018f578063d6c6c4ac14610197578063dc6663c7146101a0575f80fd5b80638da5cb5b1461014e5780638e409a791461016057806395082d2514610173575f80fd5b80631627540c146100cf5780633ddac953146100e457806353a47bb71461010a578063753b5f8a1461013557806379ba50971461013e57806388e5a49114610146575b5f80fd5b6100e26100dd366004610935565b6101b3565b005b6100f76100f236600461094e565b61027d565b6040519081526020015b60405180910390f35b60015461011d906001600160a01b031681565b6040516001600160a01b039091168152602001610101565b6100f760055481565b6100e261034a565b6100f7610432565b5f5461011d906001600160a01b031681565b6100e261016e366004610935565b610550565b6100f760065481565b6100e261018a366004610935565b61063a565b6100f7610724565b6100f760045481565b60075461011d906001600160a01b031681565b5f546001600160a01b031633146102295760405162461bcd60e51b815260206004820152602f60248201527f4f6e6c792074686520636f6e7472616374206f776e6572206d6179207065726660448201526e37b936903a3434b99030b1ba34b7b760891b60648201526084015b60405180910390fd5b600180546001600160a01b0319166001600160a01b0383169081179091556040519081527f906a1c6bd7e3091ea86693dd029a831c19049ce77f1dce2ce0bab1cacbabce229060200160405180910390a150565b5f6006602160991b016001600160a01b038416146102d55760405162461bcd60e51b81526020600482015260156024820152746d757374207573652077657468206164647265737360581b6044820152606401610220565b81620f42401461031c5760405162461bcd60e51b815260206004820152601260248201527136bab9ba1031b0b636103bb4ba341018b29b60711b6044820152606401610220565b610341610327610432565b61033b600654610335610724565b9061082b565b906108a9565b90505b92915050565b6001546001600160a01b031633146103c25760405162461bcd60e51b815260206004820152603560248201527f596f75206d757374206265206e6f6d696e61746564206265666f726520796f7560448201527402063616e20616363657074206f776e65727368697605c1b6064820152608401610220565b5f54600154604080516001600160a01b0393841681529290911660208301527fb532073b38c83145e3e5135377a08bf9aab55bc0fd7c1179cd4fb995d2a5159c910160405180910390a1600180545f80546001600160a01b03199081166001600160a01b03841617909155169055565b5f805f805f60025f9054906101000a90046001600160a01b03166001600160a01b031663feaf968c6040518163ffffffff1660e01b815260040160a060405180830381865afa158015610487573d5f803e3d5ffd5b505050506040513d601f19601f820116820180604052508101906104ab919061098c565b9450945050935093505f83121580156104c357508115155b80156104e15750836001600160501b0316816001600160501b031610155b6105275760405162461bcd60e51b8152602060048201526017602482015276496e76616c696420636861696e6c696e6b20707269636560481b6044820152606401610220565b610547600454600a6105399190610acc565b60065461033b90869061082b565b94505050505090565b5f546001600160a01b031633148061057257506007546001600160a01b031633145b6105b65760405162461bcd60e51b81526020600482015260156024820152744e6f74206f776e6572206f722074696d656c6f636b60581b6044820152606401610220565b600380546001600160a01b0319166001600160a01b0383169081179091556040805163313ce56760e01b8152905163313ce567916004808201926020929091908290030181865afa15801561060d573d5f803e3d5ffd5b505050506040513d601f19601f820116820180604052508101906106319190610ad7565b60ff1660055550565b5f546001600160a01b031633148061065c57506007546001600160a01b031633145b6106a05760405162461bcd60e51b81526020600482015260156024820152744e6f74206f776e6572206f722074696d656c6f636b60581b6044820152606401610220565b600280546001600160a01b0319166001600160a01b0383169081179091556040805163313ce56760e01b8152905163313ce567916004808201926020929091908290030181865afa1580156106f7573d5f803e3d5ffd5b505050506040513d601f19601f8201168201806040525081019061071b9190610ad7565b60ff1660045550565b5f805f805f60035f9054906101000a90046001600160a01b03166001600160a01b031663feaf968c6040518163ffffffff1660e01b815260040160a060405180830381865afa158015610779573d5f803e3d5ffd5b505050506040513d601f19601f8201168201806040525081019061079d919061098c565b9450945050935093505f83121580156107b557508115155b80156107d35750836001600160501b0316816001600160501b031610155b6108195760405162461bcd60e51b8152602060048201526017602482015276496e76616c696420636861696e6c696e6b20707269636560481b6044820152606401610220565b610547600554600a6105399190610acc565b5f825f0361083a57505f610344565b5f6108458385610af7565b9050826108528583610b0e565b146103415760405162461bcd60e51b815260206004820152602160248201527f536166654d6174683a206d756c7469706c69636174696f6e206f766572666c6f6044820152607760f81b6064820152608401610220565b5f61034183836040518060400160405280601a81526020017f536166654d6174683a206469766973696f6e206279207a65726f0000000000008152505f81836109055760405162461bcd60e51b81526004016102209190610b2d565b505f6109118486610b0e565b95945050505050565b80356001600160a01b0381168114610930575f80fd5b919050565b5f60208284031215610945575f80fd5b6103418261091a565b5f806040838503121561095f575f80fd5b6109688361091a565b946020939093013593505050565b80516001600160501b0381168114610930575f80fd5b5f805f805f60a086880312156109a0575f80fd5b6109a986610976565b94506020860151935060408601519250606086015191506109cc60808701610976565b90509295509295909350565b634e487b7160e01b5f52601160045260245ffd5b600181815b80851115610a2657815f1904821115610a0c57610a0c6109d8565b80851615610a1957918102915b93841c93908002906109f1565b509250929050565b5f82610a3c57506001610344565b81610a4857505f610344565b8160018114610a5e5760028114610a6857610a84565b6001915050610344565b60ff841115610a7957610a796109d8565b50506001821b610344565b5060208310610133831016604e8410600b8410161715610aa7575081810a610344565b610ab183836109ec565b805f1904821115610ac457610ac46109d8565b029392505050565b5f6103418383610a2e565b5f60208284031215610ae7575f80fd5b815160ff81168114610341575f80fd5b8082028115828204841417610344576103446109d8565b5f82610b2857634e487b7160e01b5f52601260045260245ffd5b500490565b5f6020808352835180828501525f5b81811015610b5857858101830151858201604001528201610b3c565b505f604082860101526040601f19601f830116850101925050509291505056fea264697066735822122059adb05277171557398b71241c7ab68ce942286a187981e383467c28e7e37e4864736f6c63430008150033",
					"opcodes": "PUSH1 0x80 PUSH1 0x40 MSTORE PUSH3 0xF4240 PUSH1 0x6 SSTORE CALLVALUE DUP1 ISZERO PUSH2 0x16 JUMPI PUSH0 DUP1 REVERT JUMPDEST POP PUSH1 0x40 MLOAD PUSH2 0xE49 CODESIZE SUB DUP1 PUSH2 0xE49 DUP4 CODECOPY DUP2 ADD PUSH1 0x40 DUP2 SWAP1 MSTORE PUSH2 0x35 SWAP2 PUSH2 0x236 JUMP JUMPDEST DUP2 PUSH1 0x1 PUSH1 0x1 PUSH1 0xA0 SHL SUB DUP2 AND PUSH2 0x90 JUMPI PUSH1 0x40 MLOAD PUSH3 0x461BCD PUSH1 0xE5 SHL DUP2 MSTORE PUSH1 0x20 PUSH1 0x4 DUP3 ADD MSTORE PUSH1 0x19 PUSH1 0x24 DUP3 ADD MSTORE PUSH32 0x4F776E657220616464726573732063616E6E6F74206265203000000000000000 PUSH1 0x44 DUP3 ADD MSTORE PUSH1 0x64 ADD PUSH1 0x40 MLOAD DUP1 SWAP2 SUB SWAP1 REVERT JUMPDEST PUSH0 DUP1 SLOAD PUSH1 0x1 PUSH1 0x1 PUSH1 0xA0 SHL SUB NOT AND PUSH1 0x1 PUSH1 0x1 PUSH1 0xA0 SHL SUB DUP4 AND SWAP1 DUP2 OR DUP3 SSTORE PUSH1 0x40 DUP1 MLOAD SWAP3 DUP4 MSTORE PUSH1 0x20 DUP4 ADD SWAP2 SWAP1 SWAP2 MSTORE PUSH32 0xB532073B38C83145E3E5135377A08BF9AAB55BC0FD7C1179CD4FB995D2A5159C SWAP2 ADD PUSH1 0x40 MLOAD DUP1 SWAP2 SUB SWAP1 LOG1 POP PUSH1 0x7 DUP1 SLOAD PUSH1 0x1 PUSH1 0x1 PUSH1 0xA0 SHL SUB NOT SWAP1 DUP2 AND PUSH1 0x1 PUSH1 0x1 PUSH1 0xA0 SHL SUB DUP5 AND OR SWAP1 SWAP2 SSTORE PUSH1 0x2 DUP1 SLOAD PUSH20 0x74DCBD8B2128437B78B77DA6D387B8AB0E5D4ACB SWAP3 AND DUP3 OR SWAP1 SSTORE PUSH1 0x40 DUP1 MLOAD PUSH4 0x313CE567 PUSH1 0xE0 SHL DUP2 MSTORE SWAP1 MLOAD PUSH4 0x313CE567 SWAP2 PUSH1 0x4 DUP1 DUP3 ADD SWAP3 PUSH1 0x20 SWAP3 SWAP1 SWAP2 SWAP1 DUP3 SWAP1 SUB ADD DUP2 DUP7 GAS STATICCALL ISZERO DUP1 ISZERO PUSH2 0x15D JUMPI RETURNDATASIZE PUSH0 DUP1 RETURNDATACOPY RETURNDATASIZE PUSH0 REVERT JUMPDEST POP POP POP POP PUSH1 0x40 MLOAD RETURNDATASIZE PUSH1 0x1F NOT PUSH1 0x1F DUP3 ADD AND DUP3 ADD DUP1 PUSH1 0x40 MSTORE POP DUP2 ADD SWAP1 PUSH2 0x181 SWAP2 SWAP1 PUSH2 0x267 JUMP JUMPDEST PUSH1 0xFF AND PUSH1 0x4 SWAP1 DUP2 SSTORE PUSH1 0x3 DUP1 SLOAD PUSH1 0x1 PUSH1 0x1 PUSH1 0xA0 SHL SUB NOT AND PUSH20 0xCD2A119BD1F7DF95D706DE6F2057FDD45A0503E2 SWAP1 DUP2 OR SWAP1 SWAP2 SSTORE PUSH1 0x40 DUP1 MLOAD PUSH4 0x313CE567 PUSH1 0xE0 SHL DUP2 MSTORE SWAP1 MLOAD SWAP2 SWAP3 PUSH4 0x313CE567 SWAP3 DUP3 DUP3 ADD SWAP3 PUSH1 0x20 SWAP3 SWAP1 DUP3 SWAP1 SUB ADD DUP2 DUP7 GAS STATICCALL ISZERO DUP1 ISZERO PUSH2 0x1E9 JUMPI RETURNDATASIZE PUSH0 DUP1 RETURNDATACOPY RETURNDATASIZE PUSH0 REVERT JUMPDEST POP POP POP POP PUSH1 0x40 MLOAD RETURNDATASIZE PUSH1 0x1F NOT PUSH1 0x1F DUP3 ADD AND DUP3 ADD DUP1 PUSH1 0x40 MSTORE POP DUP2 ADD SWAP1 PUSH2 0x20D SWAP2 SWAP1 PUSH2 0x267 JUMP JUMPDEST PUSH1 0xFF AND PUSH1 0x5 SSTORE POP PUSH2 0x28E SWAP1 POP JUMP JUMPDEST DUP1 MLOAD PUSH1 0x1 PUSH1 0x1 PUSH1 0xA0 SHL SUB DUP2 AND DUP2 EQ PUSH2 0x231 JUMPI PUSH0 DUP1 REVERT JUMPDEST SWAP2 SWAP1 POP JUMP JUMPDEST PUSH0 DUP1 PUSH1 0x40 DUP4 DUP6 SUB SLT ISZERO PUSH2 0x247 JUMPI PUSH0 DUP1 REVERT JUMPDEST PUSH2 0x250 DUP4 PUSH2 0x21B JUMP JUMPDEST SWAP2 POP PUSH2 0x25E PUSH1 0x20 DUP5 ADD PUSH2 0x21B JUMP JUMPDEST SWAP1 POP SWAP3 POP SWAP3 SWAP1 POP JUMP JUMPDEST PUSH0 PUSH1 0x20 DUP3 DUP5 SUB SLT ISZERO PUSH2 0x277 JUMPI PUSH0 DUP1 REVERT JUMPDEST DUP2 MLOAD PUSH1 0xFF DUP2 AND DUP2 EQ PUSH2 0x287 JUMPI PUSH0 DUP1 REVERT JUMPDEST SWAP4 SWAP3 POP POP POP JUMP JUMPDEST PUSH2 0xBAE DUP1 PUSH2 0x29B PUSH0 CODECOPY PUSH0 RETURN INVALID PUSH1 0x80 PUSH1 0x40 MSTORE CALLVALUE DUP1 ISZERO PUSH2 0xF JUMPI PUSH0 DUP1 REVERT JUMPDEST POP PUSH1 0x4 CALLDATASIZE LT PUSH2 0xCB JUMPI PUSH0 CALLDATALOAD PUSH1 0xE0 SHR DUP1 PUSH4 0x8DA5CB5B GT PUSH2 0x88 JUMPI DUP1 PUSH4 0xA2DCB4F5 GT PUSH2 0x63 JUMPI DUP1 PUSH4 0xA2DCB4F5 EQ PUSH2 0x17C JUMPI DUP1 PUSH4 0xA607A8D9 EQ PUSH2 0x18F JUMPI DUP1 PUSH4 0xD6C6C4AC EQ PUSH2 0x197 JUMPI DUP1 PUSH4 0xDC6663C7 EQ PUSH2 0x1A0 JUMPI PUSH0 DUP1 REVERT JUMPDEST DUP1 PUSH4 0x8DA5CB5B EQ PUSH2 0x14E JUMPI DUP1 PUSH4 0x8E409A79 EQ PUSH2 0x160 JUMPI DUP1 PUSH4 0x95082D25 EQ PUSH2 0x173 JUMPI PUSH0 DUP1 REVERT JUMPDEST DUP1 PUSH4 0x1627540C EQ PUSH2 0xCF JUMPI DUP1 PUSH4 0x3DDAC953 EQ PUSH2 0xE4 JUMPI DUP1 PUSH4 0x53A47BB7 EQ PUSH2 0x10A JUMPI DUP1 PUSH4 0x753B5F8A EQ PUSH2 0x135 JUMPI DUP1 PUSH4 0x79BA5097 EQ PUSH2 0x13E JUMPI DUP1 PUSH4 0x88E5A491 EQ PUSH2 0x146 JUMPI JUMPDEST PUSH0 DUP1 REVERT JUMPDEST PUSH2 0xE2 PUSH2 0xDD CALLDATASIZE PUSH1 0x4 PUSH2 0x935 JUMP JUMPDEST PUSH2 0x1B3 JUMP JUMPDEST STOP JUMPDEST PUSH2 0xF7 PUSH2 0xF2 CALLDATASIZE PUSH1 0x4 PUSH2 0x94E JUMP JUMPDEST PUSH2 0x27D JUMP JUMPDEST PUSH1 0x40 MLOAD SWAP1 DUP2 MSTORE PUSH1 0x20 ADD JUMPDEST PUSH1 0x40 MLOAD DUP1 SWAP2 SUB SWAP1 RETURN JUMPDEST PUSH1 0x1 SLOAD PUSH2 0x11D SWAP1 PUSH1 0x1 PUSH1 0x1 PUSH1 0xA0 SHL SUB AND DUP2 JUMP JUMPDEST PUSH1 0x40 MLOAD PUSH1 0x1 PUSH1 0x1 PUSH1 0xA0 SHL SUB SWAP1 SWAP2 AND DUP2 MSTORE PUSH1 0x20 ADD PUSH2 0x101 JUMP JUMPDEST PUSH2 0xF7 PUSH1 0x5 SLOAD DUP2 JUMP JUMPDEST PUSH2 0xE2 PUSH2 0x34A JUMP JUMPDEST PUSH2 0xF7 PUSH2 0x432 JUMP JUMPDEST PUSH0 SLOAD PUSH2 0x11D SWAP1 PUSH1 0x1 PUSH1 0x1 PUSH1 0xA0 SHL SUB AND DUP2 JUMP JUMPDEST PUSH2 0xE2 PUSH2 0x16E CALLDATASIZE PUSH1 0x4 PUSH2 0x935 JUMP JUMPDEST PUSH2 0x550 JUMP JUMPDEST PUSH2 0xF7 PUSH1 0x6 SLOAD DUP2 JUMP JUMPDEST PUSH2 0xE2 PUSH2 0x18A CALLDATASIZE PUSH1 0x4 PUSH2 0x935 JUMP JUMPDEST PUSH2 0x63A JUMP JUMPDEST PUSH2 0xF7 PUSH2 0x724 JUMP JUMPDEST PUSH2 0xF7 PUSH1 0x4 SLOAD DUP2 JUMP JUMPDEST PUSH1 0x7 SLOAD PUSH2 0x11D SWAP1 PUSH1 0x1 PUSH1 0x1 PUSH1 0xA0 SHL SUB AND DUP2 JUMP JUMPDEST PUSH0 SLOAD PUSH1 0x1 PUSH1 0x1 PUSH1 0xA0 SHL SUB AND CALLER EQ PUSH2 0x229 JUMPI PUSH1 0x40 MLOAD PUSH3 0x461BCD PUSH1 0xE5 SHL DUP2 MSTORE PUSH1 0x20 PUSH1 0x4 DUP3 ADD MSTORE PUSH1 0x2F PUSH1 0x24 DUP3 ADD MSTORE PUSH32 0x4F6E6C792074686520636F6E7472616374206F776E6572206D61792070657266 PUSH1 0x44 DUP3 ADD MSTORE PUSH15 0x37B936903A3434B99030B1BA34B7B7 PUSH1 0x89 SHL PUSH1 0x64 DUP3 ADD MSTORE PUSH1 0x84 ADD JUMPDEST PUSH1 0x40 MLOAD DUP1 SWAP2 SUB SWAP1 REVERT JUMPDEST PUSH1 0x1 DUP1 SLOAD PUSH1 0x1 PUSH1 0x1 PUSH1 0xA0 SHL SUB NOT AND PUSH1 0x1 PUSH1 0x1 PUSH1 0xA0 SHL SUB DUP4 AND SWAP1 DUP2 OR SWAP1 SWAP2 SSTORE PUSH1 0x40 MLOAD SWAP1 DUP2 MSTORE PUSH32 0x906A1C6BD7E3091EA86693DD029A831C19049CE77F1DCE2CE0BAB1CACBABCE22 SWAP1 PUSH1 0x20 ADD PUSH1 0x40 MLOAD DUP1 SWAP2 SUB SWAP1 LOG1 POP JUMP JUMPDEST PUSH0 PUSH1 0x6 PUSH1 0x21 PUSH1 0x99 SHL ADD PUSH1 0x1 PUSH1 0x1 PUSH1 0xA0 SHL SUB DUP5 AND EQ PUSH2 0x2D5 JUMPI PUSH1 0x40 MLOAD PUSH3 0x461BCD PUSH1 0xE5 SHL DUP2 MSTORE PUSH1 0x20 PUSH1 0x4 DUP3 ADD MSTORE PUSH1 0x15 PUSH1 0x24 DUP3 ADD MSTORE PUSH21 0x6D7573742075736520776574682061646472657373 PUSH1 0x58 SHL PUSH1 0x44 DUP3 ADD MSTORE PUSH1 0x64 ADD PUSH2 0x220 JUMP JUMPDEST DUP2 PUSH3 0xF4240 EQ PUSH2 0x31C JUMPI PUSH1 0x40 MLOAD PUSH3 0x461BCD PUSH1 0xE5 SHL DUP2 MSTORE PUSH1 0x20 PUSH1 0x4 DUP3 ADD MSTORE PUSH1 0x12 PUSH1 0x24 DUP3 ADD MSTORE PUSH18 0x36BAB9BA1031B0B636103BB4BA341018B29B PUSH1 0x71 SHL PUSH1 0x44 DUP3 ADD MSTORE PUSH1 0x64 ADD PUSH2 0x220 JUMP JUMPDEST PUSH2 0x341 PUSH2 0x327 PUSH2 0x432 JUMP JUMPDEST PUSH2 0x33B PUSH1 0x6 SLOAD PUSH2 0x335 PUSH2 0x724 JUMP JUMPDEST SWAP1 PUSH2 0x82B JUMP JUMPDEST SWAP1 PUSH2 0x8A9 JUMP JUMPDEST SWAP1 POP JUMPDEST SWAP3 SWAP2 POP POP JUMP JUMPDEST PUSH1 0x1 SLOAD PUSH1 0x1 PUSH1 0x1 PUSH1 0xA0 SHL SUB AND CALLER EQ PUSH2 0x3C2 JUMPI PUSH1 0x40 MLOAD PUSH3 0x461BCD PUSH1 0xE5 SHL DUP2 MSTORE PUSH1 0x20 PUSH1 0x4 DUP3 ADD MSTORE PUSH1 0x35 PUSH1 0x24 DUP3 ADD MSTORE PUSH32 0x596F75206D757374206265206E6F6D696E61746564206265666F726520796F75 PUSH1 0x44 DUP3 ADD MSTORE PUSH21 0x2063616E20616363657074206F776E65727368697 PUSH1 0x5C SHL PUSH1 0x64 DUP3 ADD MSTORE PUSH1 0x84 ADD PUSH2 0x220 JUMP JUMPDEST PUSH0 SLOAD PUSH1 0x1 SLOAD PUSH1 0x40 DUP1 MLOAD PUSH1 0x1 PUSH1 0x1 PUSH1 0xA0 SHL SUB SWAP4 DUP5 AND DUP2 MSTORE SWAP3 SWAP1 SWAP2 AND PUSH1 0x20 DUP4 ADD MSTORE PUSH32 0xB532073B38C83145E3E5135377A08BF9AAB55BC0FD7C1179CD4FB995D2A5159C SWAP2 ADD PUSH1 0x40 MLOAD DUP1 SWAP2 SUB SWAP1 LOG1 PUSH1 0x1 DUP1 SLOAD PUSH0 DUP1 SLOAD PUSH1 0x1 PUSH1 0x1 PUSH1 0xA0 SHL SUB NOT SWAP1 DUP2 AND PUSH1 0x1 PUSH1 0x1 PUSH1 0xA0 SHL SUB DUP5 AND OR SWAP1 SWAP2 SSTORE AND SWAP1 SSTORE JUMP JUMPDEST PUSH0 DUP1 PUSH0 DUP1 PUSH0 PUSH1 0x2 PUSH0 SWAP1 SLOAD SWAP1 PUSH2 0x100 EXP SWAP1 DIV PUSH1 0x1 PUSH1 0x1 PUSH1 0xA0 SHL SUB AND PUSH1 0x1 PUSH1 0x1 PUSH1 0xA0 SHL SUB AND PUSH4 0xFEAF968C PUSH1 0x40 MLOAD DUP2 PUSH4 0xFFFFFFFF AND PUSH1 0xE0 SHL DUP2 MSTORE PUSH1 0x4 ADD PUSH1 0xA0 PUSH1 0x40 MLOAD DUP1 DUP4 SUB DUP2 DUP7 GAS STATICCALL ISZERO DUP1 ISZERO PUSH2 0x487 JUMPI RETURNDATASIZE PUSH0 DUP1 RETURNDATACOPY RETURNDATASIZE PUSH0 REVERT JUMPDEST POP POP POP POP PUSH1 0x40 MLOAD RETURNDATASIZE PUSH1 0x1F NOT PUSH1 0x1F DUP3 ADD AND DUP3 ADD DUP1 PUSH1 0x40 MSTORE POP DUP2 ADD SWAP1 PUSH2 0x4AB SWAP2 SWAP1 PUSH2 0x98C JUMP JUMPDEST SWAP5 POP SWAP5 POP POP SWAP4 POP SWAP4 POP PUSH0 DUP4 SLT ISZERO DUP1 ISZERO PUSH2 0x4C3 JUMPI POP DUP2 ISZERO ISZERO JUMPDEST DUP1 ISZERO PUSH2 0x4E1 JUMPI POP DUP4 PUSH1 0x1 PUSH1 0x1 PUSH1 0x50 SHL SUB AND DUP2 PUSH1 0x1 PUSH1 0x1 PUSH1 0x50 SHL SUB AND LT ISZERO JUMPDEST PUSH2 0x527 JUMPI PUSH1 0x40 MLOAD PUSH3 0x461BCD PUSH1 0xE5 SHL DUP2 MSTORE PUSH1 0x20 PUSH1 0x4 DUP3 ADD MSTORE PUSH1 0x17 PUSH1 0x24 DUP3 ADD MSTORE PUSH23 0x496E76616C696420636861696E6C696E6B207072696365 PUSH1 0x48 SHL PUSH1 0x44 DUP3 ADD MSTORE PUSH1 0x64 ADD PUSH2 0x220 JUMP JUMPDEST PUSH2 0x547 PUSH1 0x4 SLOAD PUSH1 0xA PUSH2 0x539 SWAP2 SWAP1 PUSH2 0xACC JUMP JUMPDEST PUSH1 0x6 SLOAD PUSH2 0x33B SWAP1 DUP7 SWAP1 PUSH2 0x82B JUMP JUMPDEST SWAP5 POP POP POP POP POP SWAP1 JUMP JUMPDEST PUSH0 SLOAD PUSH1 0x1 PUSH1 0x1 PUSH1 0xA0 SHL SUB AND CALLER EQ DUP1 PUSH2 0x572 JUMPI POP PUSH1 0x7 SLOAD PUSH1 0x1 PUSH1 0x1 PUSH1 0xA0 SHL SUB AND CALLER EQ JUMPDEST PUSH2 0x5B6 JUMPI PUSH1 0x40 MLOAD PUSH3 0x461BCD PUSH1 0xE5 SHL DUP2 MSTORE PUSH1 0x20 PUSH1 0x4 DUP3 ADD MSTORE PUSH1 0x15 PUSH1 0x24 DUP3 ADD MSTORE PUSH21 0x4E6F74206F776E6572206F722074696D656C6F636B PUSH1 0x58 SHL PUSH1 0x44 DUP3 ADD MSTORE PUSH1 0x64 ADD PUSH2 0x220 JUMP JUMPDEST PUSH1 0x3 DUP1 SLOAD PUSH1 0x1 PUSH1 0x1 PUSH1 0xA0 SHL SUB NOT AND PUSH1 0x1 PUSH1 0x1 PUSH1 0xA0 SHL SUB DUP4 AND SWAP1 DUP2 OR SWAP1 SWAP2 SSTORE PUSH1 0x40 DUP1 MLOAD PUSH4 0x313CE567 PUSH1 0xE0 SHL DUP2 MSTORE SWAP1 MLOAD PUSH4 0x313CE567 SWAP2 PUSH1 0x4 DUP1 DUP3 ADD SWAP3 PUSH1 0x20 SWAP3 SWAP1 SWAP2 SWAP1 DUP3 SWAP1 SUB ADD DUP2 DUP7 GAS STATICCALL ISZERO DUP1 ISZERO PUSH2 0x60D JUMPI RETURNDATASIZE PUSH0 DUP1 RETURNDATACOPY RETURNDATASIZE PUSH0 REVERT JUMPDEST POP POP POP POP PUSH1 0x40 MLOAD RETURNDATASIZE PUSH1 0x1F NOT PUSH1 0x1F DUP3 ADD AND DUP3 ADD DUP1 PUSH1 0x40 MSTORE POP DUP2 ADD SWAP1 PUSH2 0x631 SWAP2 SWAP1 PUSH2 0xAD7 JUMP JUMPDEST PUSH1 0xFF AND PUSH1 0x5 SSTORE POP JUMP JUMPDEST PUSH0 SLOAD PUSH1 0x1 PUSH1 0x1 PUSH1 0xA0 SHL SUB AND CALLER EQ DUP1 PUSH2 0x65C JUMPI POP PUSH1 0x7 SLOAD PUSH1 0x1 PUSH1 0x1 PUSH1 0xA0 SHL SUB AND CALLER EQ JUMPDEST PUSH2 0x6A0 JUMPI PUSH1 0x40 MLOAD PUSH3 0x461BCD PUSH1 0xE5 SHL DUP2 MSTORE PUSH1 0x20 PUSH1 0x4 DUP3 ADD MSTORE PUSH1 0x15 PUSH1 0x24 DUP3 ADD MSTORE PUSH21 0x4E6F74206F776E6572206F722074696D656C6F636B PUSH1 0x58 SHL PUSH1 0x44 DUP3 ADD MSTORE PUSH1 0x64 ADD PUSH2 0x220 JUMP JUMPDEST PUSH1 0x2 DUP1 SLOAD PUSH1 0x1 PUSH1 0x1 PUSH1 0xA0 SHL SUB NOT AND PUSH1 0x1 PUSH1 0x1 PUSH1 0xA0 SHL SUB DUP4 AND SWAP1 DUP2 OR SWAP1 SWAP2 SSTORE PUSH1 0x40 DUP1 MLOAD PUSH4 0x313CE567 PUSH1 0xE0 SHL DUP2 MSTORE SWAP1 MLOAD PUSH4 0x313CE567 SWAP2 PUSH1 0x4 DUP1 DUP3 ADD SWAP3 PUSH1 0x20 SWAP3 SWAP1 SWAP2 SWAP1 DUP3 SWAP1 SUB ADD DUP2 DUP7 GAS STATICCALL ISZERO DUP1 ISZERO PUSH2 0x6F7 JUMPI RETURNDATASIZE PUSH0 DUP1 RETURNDATACOPY RETURNDATASIZE PUSH0 REVERT JUMPDEST POP POP POP POP PUSH1 0x40 MLOAD RETURNDATASIZE PUSH1 0x1F NOT PUSH1 0x1F DUP3 ADD AND DUP3 ADD DUP1 PUSH1 0x40 MSTORE POP DUP2 ADD SWAP1 PUSH2 0x71B SWAP2 SWAP1 PUSH2 0xAD7 JUMP JUMPDEST PUSH1 0xFF AND PUSH1 0x4 SSTORE POP JUMP JUMPDEST PUSH0 DUP1 PUSH0 DUP1 PUSH0 PUSH1 0x3 PUSH0 SWAP1 SLOAD SWAP1 PUSH2 0x100 EXP SWAP1 DIV PUSH1 0x1 PUSH1 0x1 PUSH1 0xA0 SHL SUB AND PUSH1 0x1 PUSH1 0x1 PUSH1 0xA0 SHL SUB AND PUSH4 0xFEAF968C PUSH1 0x40 MLOAD DUP2 PUSH4 0xFFFFFFFF AND PUSH1 0xE0 SHL DUP2 MSTORE PUSH1 0x4 ADD PUSH1 0xA0 PUSH1 0x40 MLOAD DUP1 DUP4 SUB DUP2 DUP7 GAS STATICCALL ISZERO DUP1 ISZERO PUSH2 0x779 JUMPI RETURNDATASIZE PUSH0 DUP1 RETURNDATACOPY RETURNDATASIZE PUSH0 REVERT JUMPDEST POP POP POP POP PUSH1 0x40 MLOAD RETURNDATASIZE PUSH1 0x1F NOT PUSH1 0x1F DUP3 ADD AND DUP3 ADD DUP1 PUSH1 0x40 MSTORE POP DUP2 ADD SWAP1 PUSH2 0x79D SWAP2 SWAP1 PUSH2 0x98C JUMP JUMPDEST SWAP5 POP SWAP5 POP POP SWAP4 POP SWAP4 POP PUSH0 DUP4 SLT ISZERO DUP1 ISZERO PUSH2 0x7B5 JUMPI POP DUP2 ISZERO ISZERO JUMPDEST DUP1 ISZERO PUSH2 0x7D3 JUMPI POP DUP4 PUSH1 0x1 PUSH1 0x1 PUSH1 0x50 SHL SUB AND DUP2 PUSH1 0x1 PUSH1 0x1 PUSH1 0x50 SHL SUB AND LT ISZERO JUMPDEST PUSH2 0x819 JUMPI PUSH1 0x40 MLOAD PUSH3 0x461BCD PUSH1 0xE5 SHL DUP2 MSTORE PUSH1 0x20 PUSH1 0x4 DUP3 ADD MSTORE PUSH1 0x17 PUSH1 0x24 DUP3 ADD MSTORE PUSH23 0x496E76616C696420636861696E6C696E6B207072696365 PUSH1 0x48 SHL PUSH1 0x44 DUP3 ADD MSTORE PUSH1 0x64 ADD PUSH2 0x220 JUMP JUMPDEST PUSH2 0x547 PUSH1 0x5 SLOAD PUSH1 0xA PUSH2 0x539 SWAP2 SWAP1 PUSH2 0xACC JUMP JUMPDEST PUSH0 DUP3 PUSH0 SUB PUSH2 0x83A JUMPI POP PUSH0 PUSH2 0x344 JUMP JUMPDEST PUSH0 PUSH2 0x845 DUP4 DUP6 PUSH2 0xAF7 JUMP JUMPDEST SWAP1 POP DUP3 PUSH2 0x852 DUP6 DUP4 PUSH2 0xB0E JUMP JUMPDEST EQ PUSH2 0x341 JUMPI PUSH1 0x40 MLOAD PUSH3 0x461BCD PUSH1 0xE5 SHL DUP2 MSTORE PUSH1 0x20 PUSH1 0x4 DUP3 ADD MSTORE PUSH1 0x21 PUSH1 0x24 DUP3 ADD MSTORE PUSH32 0x536166654D6174683A206D756C7469706C69636174696F6E206F766572666C6F PUSH1 0x44 DUP3 ADD MSTORE PUSH1 0x77 PUSH1 0xF8 SHL PUSH1 0x64 DUP3 ADD MSTORE PUSH1 0x84 ADD PUSH2 0x220 JUMP JUMPDEST PUSH0 PUSH2 0x341 DUP4 DUP4 PUSH1 0x40 MLOAD DUP1 PUSH1 0x40 ADD PUSH1 0x40 MSTORE DUP1 PUSH1 0x1A DUP2 MSTORE PUSH1 0x20 ADD PUSH32 0x536166654D6174683A206469766973696F6E206279207A65726F000000000000 DUP2 MSTORE POP PUSH0 DUP2 DUP4 PUSH2 0x905 JUMPI PUSH1 0x40 MLOAD PUSH3 0x461BCD PUSH1 0xE5 SHL DUP2 MSTORE PUSH1 0x4 ADD PUSH2 0x220 SWAP2 SWAP1 PUSH2 0xB2D JUMP JUMPDEST POP PUSH0 PUSH2 0x911 DUP5 DUP7 PUSH2 0xB0E JUMP JUMPDEST SWAP6 SWAP5 POP POP POP POP POP JUMP JUMPDEST DUP1 CALLDATALOAD PUSH1 0x1 PUSH1 0x1 PUSH1 0xA0 SHL SUB DUP2 AND DUP2 EQ PUSH2 0x930 JUMPI PUSH0 DUP1 REVERT JUMPDEST SWAP2 SWAP1 POP JUMP JUMPDEST PUSH0 PUSH1 0x20 DUP3 DUP5 SUB SLT ISZERO PUSH2 0x945 JUMPI PUSH0 DUP1 REVERT JUMPDEST PUSH2 0x341 DUP3 PUSH2 0x91A JUMP JUMPDEST PUSH0 DUP1 PUSH1 0x40 DUP4 DUP6 SUB SLT ISZERO PUSH2 0x95F JUMPI PUSH0 DUP1 REVERT JUMPDEST PUSH2 0x968 DUP4 PUSH2 0x91A JUMP JUMPDEST SWAP5 PUSH1 0x20 SWAP4 SWAP1 SWAP4 ADD CALLDATALOAD SWAP4 POP POP POP JUMP JUMPDEST DUP1 MLOAD PUSH1 0x1 PUSH1 0x1 PUSH1 0x50 SHL SUB DUP2 AND DUP2 EQ PUSH2 0x930 JUMPI PUSH0 DUP1 REVERT JUMPDEST PUSH0 DUP1 PUSH0 DUP1 PUSH0 PUSH1 0xA0 DUP7 DUP9 SUB SLT ISZERO PUSH2 0x9A0 JUMPI PUSH0 DUP1 REVERT JUMPDEST PUSH2 0x9A9 DUP7 PUSH2 0x976 JUMP JUMPDEST SWAP5 POP PUSH1 0x20 DUP7 ADD MLOAD SWAP4 POP PUSH1 0x40 DUP7 ADD MLOAD SWAP3 POP PUSH1 0x60 DUP7 ADD MLOAD SWAP2 POP PUSH2 0x9CC PUSH1 0x80 DUP8 ADD PUSH2 0x976 JUMP JUMPDEST SWAP1 POP SWAP3 SWAP6 POP SWAP3 SWAP6 SWAP1 SWAP4 POP JUMP JUMPDEST PUSH4 0x4E487B71 PUSH1 0xE0 SHL PUSH0 MSTORE PUSH1 0x11 PUSH1 0x4 MSTORE PUSH1 0x24 PUSH0 REVERT JUMPDEST PUSH1 0x1 DUP2 DUP2 JUMPDEST DUP1 DUP6 GT ISZERO PUSH2 0xA26 JUMPI DUP2 PUSH0 NOT DIV DUP3 GT ISZERO PUSH2 0xA0C JUMPI PUSH2 0xA0C PUSH2 0x9D8 JUMP JUMPDEST DUP1 DUP6 AND ISZERO PUSH2 0xA19 JUMPI SWAP2 DUP2 MUL SWAP2 JUMPDEST SWAP4 DUP5 SHR SWAP4 SWAP1 DUP1 MUL SWAP1 PUSH2 0x9F1 JUMP JUMPDEST POP SWAP3 POP SWAP3 SWAP1 POP JUMP JUMPDEST PUSH0 DUP3 PUSH2 0xA3C JUMPI POP PUSH1 0x1 PUSH2 0x344 JUMP JUMPDEST DUP2 PUSH2 0xA48 JUMPI POP PUSH0 PUSH2 0x344 JUMP JUMPDEST DUP2 PUSH1 0x1 DUP2 EQ PUSH2 0xA5E JUMPI PUSH1 0x2 DUP2 EQ PUSH2 0xA68 JUMPI PUSH2 0xA84 JUMP JUMPDEST PUSH1 0x1 SWAP2 POP POP PUSH2 0x344 JUMP JUMPDEST PUSH1 0xFF DUP5 GT ISZERO PUSH2 0xA79 JUMPI PUSH2 0xA79 PUSH2 0x9D8 JUMP JUMPDEST POP POP PUSH1 0x1 DUP3 SHL PUSH2 0x344 JUMP JUMPDEST POP PUSH1 0x20 DUP4 LT PUSH2 0x133 DUP4 LT AND PUSH1 0x4E DUP5 LT PUSH1 0xB DUP5 LT AND OR ISZERO PUSH2 0xAA7 JUMPI POP DUP2 DUP2 EXP PUSH2 0x344 JUMP JUMPDEST PUSH2 0xAB1 DUP4 DUP4 PUSH2 0x9EC JUMP JUMPDEST DUP1 PUSH0 NOT DIV DUP3 GT ISZERO PUSH2 0xAC4 JUMPI PUSH2 0xAC4 PUSH2 0x9D8 JUMP JUMPDEST MUL SWAP4 SWAP3 POP POP POP JUMP JUMPDEST PUSH0 PUSH2 0x341 DUP4 DUP4 PUSH2 0xA2E JUMP JUMPDEST PUSH0 PUSH1 0x20 DUP3 DUP5 SUB SLT ISZERO PUSH2 0xAE7 JUMPI PUSH0 DUP1 REVERT JUMPDEST DUP2 MLOAD PUSH1 0xFF DUP2 AND DUP2 EQ PUSH2 0x341 JUMPI PUSH0 DUP1 REVERT JUMPDEST DUP1 DUP3 MUL DUP2 ISZERO DUP3 DUP3 DIV DUP5 EQ OR PUSH2 0x344 JUMPI PUSH2 0x344 PUSH2 0x9D8 JUMP JUMPDEST PUSH0 DUP3 PUSH2 0xB28 JUMPI PUSH4 0x4E487B71 PUSH1 0xE0 SHL PUSH0 MSTORE PUSH1 0x12 PUSH1 0x4 MSTORE PUSH1 0x24 PUSH0 REVERT JUMPDEST POP DIV SWAP1 JUMP JUMPDEST PUSH0 PUSH1 0x20 DUP1 DUP4 MSTORE DUP4 MLOAD DUP1 DUP3 DUP6 ADD MSTORE PUSH0 JUMPDEST DUP2 DUP2 LT ISZERO PUSH2 0xB58 JUMPI DUP6 DUP2 ADD DUP4 ADD MLOAD DUP6 DUP3 ADD PUSH1 0x40 ADD MSTORE DUP3 ADD PUSH2 0xB3C JUMP JUMPDEST POP PUSH0 PUSH1 0x40 DUP3 DUP7 ADD ADD MSTORE PUSH1 0x40 PUSH1 0x1F NOT PUSH1 0x1F DUP4 ADD AND DUP6 ADD ADD SWAP3 POP POP POP SWAP3 SWAP2 POP POP JUMP INVALID LOG2 PUSH5 0x6970667358 0x22 SLT KECCAK256 MSIZE 0xAD 0xB0 MSTORE PUSH24 0x171557398B71241C7AB68CE942286A187981E383467C28E7 0xE3 PUSH31 0x4864736F6C6343000815003300000000000000000000000000000000000000 "
				},
				"gasEstimates": {
					"creation": {
						"codeDepositCost": "598000",
						"executionCost": "infinite",
						"totalCost": "infinite"
					},
					"external": {
						"PRICE_PRECISION()": "2350",
						"acceptOwnership()": "56412",
						"chainlink_eth_usd_decimals()": "2350",
						"chainlink_fxs_usd_decimals()": "2349",
						"consult(address,uint256)": "infinite",
						"getETHPrice()": "infinite",
						"getFXSPrice()": "infinite",
						"nominateNewOwner(address)": "27766",
						"nominatedOwner()": "2381",
						"owner()": "2358",
						"setChainlinkETHUSDOracle(address)": "infinite",
						"setChainlinkFXSUSDOracle(address)": "infinite",
						"timelock_address()": "2424"
					}
				},
				"methodIdentifiers": {
					"PRICE_PRECISION()": "95082d25",
					"acceptOwnership()": "79ba5097",
					"chainlink_eth_usd_decimals()": "753b5f8a",
					"chainlink_fxs_usd_decimals()": "d6c6c4ac",
					"consult(address,uint256)": "3ddac953",
					"getETHPrice()": "a607a8d9",
					"getFXSPrice()": "88e5a491",
					"nominateNewOwner(address)": "1627540c",
					"nominatedOwner()": "53a47bb7",
					"owner()": "8da5cb5b",
					"setChainlinkETHUSDOracle(address)": "8e409a79",
					"setChainlinkFXSUSDOracle(address)": "a2dcb4f5",
					"timelock_address()": "dc6663c7"
				}
			},
			"storageLayout": {
				"storage": [
					{
						"astId": 493,
						"contract": "NewFraxProtocol/contracts/Oracle/FXSOracleWrapper.sol:FXSOracleWrapper",
						"label": "owner",
						"offset": 0,
						"slot": "0",
						"type": "t_address"
					},
					{
						"astId": 495,
						"contract": "NewFraxProtocol/contracts/Oracle/FXSOracleWrapper.sol:FXSOracleWrapper",
						"label": "nominatedOwner",
						"offset": 0,
						"slot": "1",
						"type": "t_address"
					},
					{
						"astId": 254,
						"contract": "NewFraxProtocol/contracts/Oracle/FXSOracleWrapper.sol:FXSOracleWrapper",
						"label": "priceFeedFXSUSD",
						"offset": 0,
						"slot": "2",
						"type": "t_contract(AggregatorV3Interface)241"
					},
					{
						"astId": 257,
						"contract": "NewFraxProtocol/contracts/Oracle/FXSOracleWrapper.sol:FXSOracleWrapper",
						"label": "priceFeedETHUSD",
						"offset": 0,
						"slot": "3",
						"type": "t_contract(AggregatorV3Interface)241"
					},
					{
						"astId": 259,
						"contract": "NewFraxProtocol/contracts/Oracle/FXSOracleWrapper.sol:FXSOracleWrapper",
						"label": "chainlink_fxs_usd_decimals",
						"offset": 0,
						"slot": "4",
						"type": "t_uint256"
					},
					{
						"astId": 261,
						"contract": "NewFraxProtocol/contracts/Oracle/FXSOracleWrapper.sol:FXSOracleWrapper",
						"label": "chainlink_eth_usd_decimals",
						"offset": 0,
						"slot": "5",
						"type": "t_uint256"
					},
					{
						"astId": 264,
						"contract": "NewFraxProtocol/contracts/Oracle/FXSOracleWrapper.sol:FXSOracleWrapper",
						"label": "PRICE_PRECISION",
						"offset": 0,
						"slot": "6",
						"type": "t_uint256"
					},
					{
						"astId": 266,
						"contract": "NewFraxProtocol/contracts/Oracle/FXSOracleWrapper.sol:FXSOracleWrapper",
						"label": "timelock_address",
						"offset": 0,
						"slot": "7",
						"type": "t_address"
					}
				],
				"types": {
					"t_address": {
						"encoding": "inplace",
						"label": "address",
						"numberOfBytes": "20"
					},
					"t_contract(AggregatorV3Interface)241": {
						"encoding": "inplace",
						"label": "contract AggregatorV3Interface",
						"numberOfBytes": "20"
					},
					"t_uint256": {
						"encoding": "inplace",
						"label": "uint256",
						"numberOfBytes": "32"
					}
				}
			},
			"userdoc": {
				"kind": "user",
				"methods": {},
				"version": 1
			}
		}
	}
}