{
	"NewFraxProtocol/contracts/Frax/Pools/FraxPoolLibrary.sol": {
		"FraxPoolLibrary": {
			"abi": [
				{
					"inputs": [
						{
							"internalType": "uint256",
							"name": "col_price",
							"type": "uint256"
						},
						{
							"internalType": "uint256",
							"name": "collateral_amount_d18",
							"type": "uint256"
						}
					],
					"name": "calcMint1t1FRAX",
					"outputs": [
						{
							"internalType": "uint256",
							"name": "",
							"type": "uint256"
						}
					],
					"stateMutability": "pure",
					"type": "function"
				},
				{
					"inputs": [
						{
							"internalType": "uint256",
							"name": "fxs_price_usd",
							"type": "uint256"
						},
						{
							"internalType": "uint256",
							"name": "fxs_amount_d18",
							"type": "uint256"
						}
					],
					"name": "calcMintAlgorithmicFRAX",
					"outputs": [
						{
							"internalType": "uint256",
							"name": "",
							"type": "uint256"
						}
					],
					"stateMutability": "pure",
					"type": "function"
				},
				{
					"inputs": [
						{
							"internalType": "uint256",
							"name": "collateral_amount",
							"type": "uint256"
						},
						{
							"internalType": "uint256",
							"name": "col_price",
							"type": "uint256"
						},
						{
							"internalType": "uint256",
							"name": "global_collat_value",
							"type": "uint256"
						},
						{
							"internalType": "uint256",
							"name": "frax_total_supply",
							"type": "uint256"
						},
						{
							"internalType": "uint256",
							"name": "global_collateral_ratio",
							"type": "uint256"
						}
					],
					"name": "calcRecollateralizeFRAXInner",
					"outputs": [
						{
							"internalType": "uint256",
							"name": "",
							"type": "uint256"
						},
						{
							"internalType": "uint256",
							"name": "",
							"type": "uint256"
						}
					],
					"stateMutability": "pure",
					"type": "function"
				},
				{
					"inputs": [
						{
							"internalType": "uint256",
							"name": "col_price_usd",
							"type": "uint256"
						},
						{
							"internalType": "uint256",
							"name": "FRAX_amount",
							"type": "uint256"
						}
					],
					"name": "calcRedeem1t1FRAX",
					"outputs": [
						{
							"internalType": "uint256",
							"name": "",
							"type": "uint256"
						}
					],
					"stateMutability": "pure",
					"type": "function"
				},
				{
					"inputs": [
						{
							"internalType": "uint256",
							"name": "total_supply",
							"type": "uint256"
						},
						{
							"internalType": "uint256",
							"name": "global_collateral_ratio",
							"type": "uint256"
						},
						{
							"internalType": "uint256",
							"name": "global_collat_value",
							"type": "uint256"
						}
					],
					"name": "recollateralizeAmount",
					"outputs": [
						{
							"internalType": "uint256",
							"name": "",
							"type": "uint256"
						}
					],
					"stateMutability": "pure",
					"type": "function"
				}
			],
			"devdoc": {
				"kind": "dev",
				"methods": {},
				"version": 1
			},
			"evm": {
				"assembly": "    /* \"NewFraxProtocol/contracts/Frax/Pools/FraxPoolLibrary.sol\":109:5370  library FraxPoolLibrary {... */\n  dataSize(sub_0)\n  dataOffset(sub_0)\n  0x0b\n  dup3\n  dup3\n  dup3\n  codecopy\n  dup1\n  mload\n  0x00\n  byte\n  0x73\n  eq\n  tag_1\n  jumpi\n  mstore(0x00, 0x4e487b7100000000000000000000000000000000000000000000000000000000)\n  mstore(0x04, 0x00)\n  revert(0x00, 0x24)\ntag_1:\n  mstore(0x00, address)\n  0x73\n  dup2\n  mstore8\n  dup3\n  dup2\n  return\nstop\n\nsub_0: assembly {\n        /* \"NewFraxProtocol/contracts/Frax/Pools/FraxPoolLibrary.sol\":109:5370  library FraxPoolLibrary {... */\n      eq(address, deployTimeAddress())\n      mstore(0x40, 0x80)\n      jumpi(tag_1, lt(calldatasize, 0x04))\n      shr(0xe0, calldataload(0x00))\n      dup1\n      0x06058f4a\n      eq\n      tag_2\n      jumpi\n      dup1\n      0x0f41b452\n      eq\n      tag_3\n      jumpi\n      dup1\n      0x0ff24ec1\n      eq\n      tag_4\n      jumpi\n      dup1\n      0x5413e192\n      eq\n      tag_5\n      jumpi\n      dup1\n      0xce032cc1\n      eq\n      tag_6\n      jumpi\n    tag_1:\n      0x00\n      dup1\n      revert\n        /* \"NewFraxProtocol/contracts/Frax/Pools/FraxPoolLibrary.sol\":4436:5367  function calcRecollateralizeFRAXInner(... */\n    tag_2:\n      tag_7\n      0x04\n      dup1\n      calldatasize\n      sub\n      dup2\n      add\n      swap1\n      tag_8\n      swap2\n      swap1\n      tag_9\n      jump\t// in\n    tag_8:\n      tag_10\n      jump\t// in\n    tag_7:\n      mload(0x40)\n      tag_11\n      swap3\n      swap2\n      swap1\n      tag_12\n      jump\t// in\n    tag_11:\n      mload(0x40)\n      dup1\n      swap2\n      sub\n      swap1\n      return\n        /* \"NewFraxProtocol/contracts/Frax/Pools/FraxPoolLibrary.sol\":2364:2528  function calcRedeem1t1FRAX(uint256 col_price_usd, uint256 FRAX_amount) public pure returns (uint256) {... */\n    tag_3:\n      tag_13\n      0x04\n      dup1\n      calldatasize\n      sub\n      dup2\n      add\n      swap1\n      tag_14\n      swap2\n      swap1\n      tag_15\n      jump\t// in\n    tag_14:\n      tag_16\n      jump\t// in\n    tag_13:\n      mload(0x40)\n      tag_17\n      swap2\n      swap1\n      tag_18\n      jump\t// in\n    tag_17:\n      mload(0x40)\n      dup1\n      swap2\n      sub\n      swap1\n      return\n        /* \"NewFraxProtocol/contracts/Frax/Pools/FraxPoolLibrary.sol\":3764:4430  function recollateralizeAmount(uint256 total_supply, uint256 global_collateral_ratio, uint256 global_collat_value) public pure returns (uint256) {... */\n    tag_4:\n      tag_19\n      0x04\n      dup1\n      calldatasize\n      sub\n      dup2\n      add\n      swap1\n      tag_20\n      swap2\n      swap1\n      tag_21\n      jump\t// in\n    tag_20:\n      tag_22\n      jump\t// in\n    tag_19:\n      mload(0x40)\n      tag_23\n      swap2\n      swap1\n      tag_18\n      jump\t// in\n    tag_23:\n      mload(0x40)\n      dup1\n      swap2\n      sub\n      swap1\n      return\n        /* \"NewFraxProtocol/contracts/Frax/Pools/FraxPoolLibrary.sol\":767:943  function calcMint1t1FRAX(uint256 col_price, uint256 collateral_amount_d18) public pure returns (uint256) {... */\n    tag_5:\n      tag_24\n      0x04\n      dup1\n      calldatasize\n      sub\n      dup2\n      add\n      swap1\n      tag_25\n      swap2\n      swap1\n      tag_15\n      jump\t// in\n    tag_25:\n      tag_26\n      jump\t// in\n    tag_24:\n      mload(0x40)\n      tag_27\n      swap2\n      swap1\n      tag_18\n      jump\t// in\n    tag_27:\n      mload(0x40)\n      dup1\n      swap2\n      sub\n      swap1\n      return\n        /* \"NewFraxProtocol/contracts/Frax/Pools/FraxPoolLibrary.sol\":949:1125  function calcMintAlgorithmicFRAX(uint256 fxs_price_usd, uint256 fxs_amount_d18) public pure returns (uint256) {... */\n    tag_6:\n      tag_28\n      0x04\n      dup1\n      calldatasize\n      sub\n      dup2\n      add\n      swap1\n      tag_29\n      swap2\n      swap1\n      tag_15\n      jump\t// in\n    tag_29:\n      tag_30\n      jump\t// in\n    tag_28:\n      mload(0x40)\n      tag_31\n      swap2\n      swap1\n      tag_18\n      jump\t// in\n    tag_31:\n      mload(0x40)\n      dup1\n      swap2\n      sub\n      swap1\n      return\n        /* \"NewFraxProtocol/contracts/Frax/Pools/FraxPoolLibrary.sol\":4436:5367  function calcRecollateralizeFRAXInner(... */\n    tag_10:\n        /* \"NewFraxProtocol/contracts/Frax/Pools/FraxPoolLibrary.sol\":4677:4684  uint256 */\n      0x00\n        /* \"NewFraxProtocol/contracts/Frax/Pools/FraxPoolLibrary.sol\":4686:4693  uint256 */\n      dup1\n        /* \"NewFraxProtocol/contracts/Frax/Pools/FraxPoolLibrary.sol\":4705:4735  uint256 collat_value_attempted */\n      0x00\n        /* \"NewFraxProtocol/contracts/Frax/Pools/FraxPoolLibrary.sol\":4738:4779  collateral_amount.mul(col_price).div(1e6) */\n      tag_33\n        /* \"NewFraxProtocol/contracts/Frax/Pools/FraxPoolLibrary.sol\":4775:4778  1e6 */\n      0x0f4240\n        /* \"NewFraxProtocol/contracts/Frax/Pools/FraxPoolLibrary.sol\":4738:4770  collateral_amount.mul(col_price) */\n      tag_34\n        /* \"NewFraxProtocol/contracts/Frax/Pools/FraxPoolLibrary.sol\":4760:4769  col_price */\n      dup10\n        /* \"NewFraxProtocol/contracts/Frax/Pools/FraxPoolLibrary.sol\":4738:4755  collateral_amount */\n      dup12\n        /* \"NewFraxProtocol/contracts/Frax/Pools/FraxPoolLibrary.sol\":4738:4759  collateral_amount.mul */\n      tag_35\n      swap1\n        /* \"NewFraxProtocol/contracts/Frax/Pools/FraxPoolLibrary.sol\":4738:4770  collateral_amount.mul(col_price) */\n      swap2\n      swap1\n      0xffffffff\n      and\n      jump\t// in\n    tag_34:\n        /* \"NewFraxProtocol/contracts/Frax/Pools/FraxPoolLibrary.sol\":4738:4774  collateral_amount.mul(col_price).div */\n      tag_36\n      swap1\n        /* \"NewFraxProtocol/contracts/Frax/Pools/FraxPoolLibrary.sol\":4738:4779  collateral_amount.mul(col_price).div(1e6) */\n      swap2\n      swap1\n      0xffffffff\n      and\n      jump\t// in\n    tag_33:\n        /* \"NewFraxProtocol/contracts/Frax/Pools/FraxPoolLibrary.sol\":4705:4779  uint256 collat_value_attempted = collateral_amount.mul(col_price).div(1e6) */\n      swap1\n      pop\n        /* \"NewFraxProtocol/contracts/Frax/Pools/FraxPoolLibrary.sol\":4789:4823  uint256 effective_collateral_ratio */\n      0x00\n        /* \"NewFraxProtocol/contracts/Frax/Pools/FraxPoolLibrary.sol\":4826:4877  global_collat_value.mul(1e6).div(frax_total_supply) */\n      tag_37\n        /* \"NewFraxProtocol/contracts/Frax/Pools/FraxPoolLibrary.sol\":4859:4876  frax_total_supply */\n      dup7\n        /* \"NewFraxProtocol/contracts/Frax/Pools/FraxPoolLibrary.sol\":4826:4854  global_collat_value.mul(1e6) */\n      tag_38\n        /* \"NewFraxProtocol/contracts/Frax/Pools/FraxPoolLibrary.sol\":4850:4853  1e6 */\n      0x0f4240\n        /* \"NewFraxProtocol/contracts/Frax/Pools/FraxPoolLibrary.sol\":4826:4845  global_collat_value */\n      dup11\n        /* \"NewFraxProtocol/contracts/Frax/Pools/FraxPoolLibrary.sol\":4826:4849  global_collat_value.mul */\n      tag_35\n      swap1\n        /* \"NewFraxProtocol/contracts/Frax/Pools/FraxPoolLibrary.sol\":4826:4854  global_collat_value.mul(1e6) */\n      swap2\n      swap1\n      0xffffffff\n      and\n      jump\t// in\n    tag_38:\n        /* \"NewFraxProtocol/contracts/Frax/Pools/FraxPoolLibrary.sol\":4826:4858  global_collat_value.mul(1e6).div */\n      tag_36\n      swap1\n        /* \"NewFraxProtocol/contracts/Frax/Pools/FraxPoolLibrary.sol\":4826:4877  global_collat_value.mul(1e6).div(frax_total_supply) */\n      swap2\n      swap1\n      0xffffffff\n      and\n      jump\t// in\n    tag_37:\n        /* \"NewFraxProtocol/contracts/Frax/Pools/FraxPoolLibrary.sol\":4789:4877  uint256 effective_collateral_ratio = global_collat_value.mul(1e6).div(frax_total_supply) */\n      swap1\n      pop\n        /* \"NewFraxProtocol/contracts/Frax/Pools/FraxPoolLibrary.sol\":4907:4932  uint256 recollat_possible */\n      0x00\n        /* \"NewFraxProtocol/contracts/Frax/Pools/FraxPoolLibrary.sol\":4935:5047  (global_collateral_ratio.mul(frax_total_supply).sub(frax_total_supply.mul(effective_collateral_ratio))).div(1e6) */\n      tag_39\n        /* \"NewFraxProtocol/contracts/Frax/Pools/FraxPoolLibrary.sol\":5043:5046  1e6 */\n      0x0f4240\n        /* \"NewFraxProtocol/contracts/Frax/Pools/FraxPoolLibrary.sol\":4936:5037  global_collateral_ratio.mul(frax_total_supply).sub(frax_total_supply.mul(effective_collateral_ratio)) */\n      tag_40\n        /* \"NewFraxProtocol/contracts/Frax/Pools/FraxPoolLibrary.sol\":4987:5036  frax_total_supply.mul(effective_collateral_ratio) */\n      tag_41\n        /* \"NewFraxProtocol/contracts/Frax/Pools/FraxPoolLibrary.sol\":5009:5035  effective_collateral_ratio */\n      dup6\n        /* \"NewFraxProtocol/contracts/Frax/Pools/FraxPoolLibrary.sol\":4987:5004  frax_total_supply */\n      dup12\n        /* \"NewFraxProtocol/contracts/Frax/Pools/FraxPoolLibrary.sol\":4987:5008  frax_total_supply.mul */\n      tag_35\n      swap1\n        /* \"NewFraxProtocol/contracts/Frax/Pools/FraxPoolLibrary.sol\":4987:5036  frax_total_supply.mul(effective_collateral_ratio) */\n      swap2\n      swap1\n      0xffffffff\n      and\n      jump\t// in\n    tag_41:\n        /* \"NewFraxProtocol/contracts/Frax/Pools/FraxPoolLibrary.sol\":4936:4982  global_collateral_ratio.mul(frax_total_supply) */\n      tag_42\n        /* \"NewFraxProtocol/contracts/Frax/Pools/FraxPoolLibrary.sol\":4964:4981  frax_total_supply */\n      dup12\n        /* \"NewFraxProtocol/contracts/Frax/Pools/FraxPoolLibrary.sol\":4936:4959  global_collateral_ratio */\n      dup12\n        /* \"NewFraxProtocol/contracts/Frax/Pools/FraxPoolLibrary.sol\":4936:4963  global_collateral_ratio.mul */\n      tag_35\n      swap1\n        /* \"NewFraxProtocol/contracts/Frax/Pools/FraxPoolLibrary.sol\":4936:4982  global_collateral_ratio.mul(frax_total_supply) */\n      swap2\n      swap1\n      0xffffffff\n      and\n      jump\t// in\n    tag_42:\n        /* \"NewFraxProtocol/contracts/Frax/Pools/FraxPoolLibrary.sol\":4936:4986  global_collateral_ratio.mul(frax_total_supply).sub */\n      tag_43\n      swap1\n        /* \"NewFraxProtocol/contracts/Frax/Pools/FraxPoolLibrary.sol\":4936:5037  global_collateral_ratio.mul(frax_total_supply).sub(frax_total_supply.mul(effective_collateral_ratio)) */\n      swap2\n      swap1\n      0xffffffff\n      and\n      jump\t// in\n    tag_40:\n        /* \"NewFraxProtocol/contracts/Frax/Pools/FraxPoolLibrary.sol\":4935:5042  (global_collateral_ratio.mul(frax_total_supply).sub(frax_total_supply.mul(effective_collateral_ratio))).div */\n      tag_36\n      swap1\n        /* \"NewFraxProtocol/contracts/Frax/Pools/FraxPoolLibrary.sol\":4935:5047  (global_collateral_ratio.mul(frax_total_supply).sub(frax_total_supply.mul(effective_collateral_ratio))).div(1e6) */\n      swap2\n      swap1\n      0xffffffff\n      and\n      jump\t// in\n    tag_39:\n        /* \"NewFraxProtocol/contracts/Frax/Pools/FraxPoolLibrary.sol\":4907:5047  uint256 recollat_possible = (global_collateral_ratio.mul(frax_total_supply).sub(frax_total_supply.mul(effective_collateral_ratio))).div(1e6) */\n      swap1\n      pop\n        /* \"NewFraxProtocol/contracts/Frax/Pools/FraxPoolLibrary.sol\":5058:5084  uint256 amount_to_recollat */\n      0x00\n        /* \"NewFraxProtocol/contracts/Frax/Pools/FraxPoolLibrary.sol\":5123:5140  recollat_possible */\n      dup2\n        /* \"NewFraxProtocol/contracts/Frax/Pools/FraxPoolLibrary.sol\":5097:5119  collat_value_attempted */\n      dup5\n        /* \"NewFraxProtocol/contracts/Frax/Pools/FraxPoolLibrary.sol\":5097:5140  collat_value_attempted <= recollat_possible */\n      gt\n        /* \"NewFraxProtocol/contracts/Frax/Pools/FraxPoolLibrary.sol\":5094:5278  if(collat_value_attempted <= recollat_possible){... */\n      tag_44\n      jumpi\n        /* \"NewFraxProtocol/contracts/Frax/Pools/FraxPoolLibrary.sol\":5176:5198  collat_value_attempted */\n      dup4\n        /* \"NewFraxProtocol/contracts/Frax/Pools/FraxPoolLibrary.sol\":5155:5198  amount_to_recollat = collat_value_attempted */\n      swap1\n      pop\n        /* \"NewFraxProtocol/contracts/Frax/Pools/FraxPoolLibrary.sol\":5094:5278  if(collat_value_attempted <= recollat_possible){... */\n      jump(tag_45)\n    tag_44:\n        /* \"NewFraxProtocol/contracts/Frax/Pools/FraxPoolLibrary.sol\":5250:5267  recollat_possible */\n      dup2\n        /* \"NewFraxProtocol/contracts/Frax/Pools/FraxPoolLibrary.sol\":5229:5267  amount_to_recollat = recollat_possible */\n      swap1\n      pop\n        /* \"NewFraxProtocol/contracts/Frax/Pools/FraxPoolLibrary.sol\":5094:5278  if(collat_value_attempted <= recollat_possible){... */\n    tag_45:\n        /* \"NewFraxProtocol/contracts/Frax/Pools/FraxPoolLibrary.sol\":5296:5338  amount_to_recollat.mul(1e6).div(col_price) */\n      tag_46\n        /* \"NewFraxProtocol/contracts/Frax/Pools/FraxPoolLibrary.sol\":5328:5337  col_price */\n      dup11\n        /* \"NewFraxProtocol/contracts/Frax/Pools/FraxPoolLibrary.sol\":5296:5323  amount_to_recollat.mul(1e6) */\n      tag_47\n        /* \"NewFraxProtocol/contracts/Frax/Pools/FraxPoolLibrary.sol\":5319:5322  1e6 */\n      0x0f4240\n        /* \"NewFraxProtocol/contracts/Frax/Pools/FraxPoolLibrary.sol\":5296:5314  amount_to_recollat */\n      dup5\n        /* \"NewFraxProtocol/contracts/Frax/Pools/FraxPoolLibrary.sol\":5296:5318  amount_to_recollat.mul */\n      tag_35\n      swap1\n        /* \"NewFraxProtocol/contracts/Frax/Pools/FraxPoolLibrary.sol\":5296:5323  amount_to_recollat.mul(1e6) */\n      swap2\n      swap1\n      0xffffffff\n      and\n      jump\t// in\n    tag_47:\n        /* \"NewFraxProtocol/contracts/Frax/Pools/FraxPoolLibrary.sol\":5296:5327  amount_to_recollat.mul(1e6).div */\n      tag_36\n      swap1\n        /* \"NewFraxProtocol/contracts/Frax/Pools/FraxPoolLibrary.sol\":5296:5338  amount_to_recollat.mul(1e6).div(col_price) */\n      swap2\n      swap1\n      0xffffffff\n      and\n      jump\t// in\n    tag_46:\n        /* \"NewFraxProtocol/contracts/Frax/Pools/FraxPoolLibrary.sol\":5340:5358  amount_to_recollat */\n      dup2\n        /* \"NewFraxProtocol/contracts/Frax/Pools/FraxPoolLibrary.sol\":5288:5359  return (amount_to_recollat.mul(1e6).div(col_price), amount_to_recollat) */\n      swap6\n      pop\n      swap6\n      pop\n      pop\n      pop\n      pop\n      pop\n        /* \"NewFraxProtocol/contracts/Frax/Pools/FraxPoolLibrary.sol\":4436:5367  function calcRecollateralizeFRAXInner(... */\n      swap6\n      pop\n      swap6\n      swap4\n      pop\n      pop\n      pop\n      pop\n      jump\t// out\n        /* \"NewFraxProtocol/contracts/Frax/Pools/FraxPoolLibrary.sol\":2364:2528  function calcRedeem1t1FRAX(uint256 col_price_usd, uint256 FRAX_amount) public pure returns (uint256) {... */\n    tag_16:\n        /* \"NewFraxProtocol/contracts/Frax/Pools/FraxPoolLibrary.sol\":2456:2463  uint256 */\n      0x00\n        /* \"NewFraxProtocol/contracts/Frax/Pools/FraxPoolLibrary.sol\":2482:2521  FRAX_amount.mul(1e6).div(col_price_usd) */\n      tag_49\n        /* \"NewFraxProtocol/contracts/Frax/Pools/FraxPoolLibrary.sol\":2507:2520  col_price_usd */\n      dup4\n        /* \"NewFraxProtocol/contracts/Frax/Pools/FraxPoolLibrary.sol\":2482:2502  FRAX_amount.mul(1e6) */\n      tag_50\n        /* \"NewFraxProtocol/contracts/Frax/Pools/FraxPoolLibrary.sol\":2498:2501  1e6 */\n      0x0f4240\n        /* \"NewFraxProtocol/contracts/Frax/Pools/FraxPoolLibrary.sol\":2482:2493  FRAX_amount */\n      dup6\n        /* \"NewFraxProtocol/contracts/Frax/Pools/FraxPoolLibrary.sol\":2482:2497  FRAX_amount.mul */\n      tag_35\n      swap1\n        /* \"NewFraxProtocol/contracts/Frax/Pools/FraxPoolLibrary.sol\":2482:2502  FRAX_amount.mul(1e6) */\n      swap2\n      swap1\n      0xffffffff\n      and\n      jump\t// in\n    tag_50:\n        /* \"NewFraxProtocol/contracts/Frax/Pools/FraxPoolLibrary.sol\":2482:2506  FRAX_amount.mul(1e6).div */\n      tag_36\n      swap1\n        /* \"NewFraxProtocol/contracts/Frax/Pools/FraxPoolLibrary.sol\":2482:2521  FRAX_amount.mul(1e6).div(col_price_usd) */\n      swap2\n      swap1\n      0xffffffff\n      and\n      jump\t// in\n    tag_49:\n        /* \"NewFraxProtocol/contracts/Frax/Pools/FraxPoolLibrary.sol\":2475:2521  return FRAX_amount.mul(1e6).div(col_price_usd) */\n      swap1\n      pop\n        /* \"NewFraxProtocol/contracts/Frax/Pools/FraxPoolLibrary.sol\":2364:2528  function calcRedeem1t1FRAX(uint256 col_price_usd, uint256 FRAX_amount) public pure returns (uint256) {... */\n      swap3\n      swap2\n      pop\n      pop\n      jump\t// out\n        /* \"NewFraxProtocol/contracts/Frax/Pools/FraxPoolLibrary.sol\":3764:4430  function recollateralizeAmount(uint256 total_supply, uint256 global_collateral_ratio, uint256 global_collat_value) public pure returns (uint256) {... */\n    tag_22:\n        /* \"NewFraxProtocol/contracts/Frax/Pools/FraxPoolLibrary.sol\":3900:3907  uint256 */\n      0x00\n        /* \"NewFraxProtocol/contracts/Frax/Pools/FraxPoolLibrary.sol\":3919:3946  uint256 target_collat_value */\n      dup1\n        /* \"NewFraxProtocol/contracts/Frax/Pools/FraxPoolLibrary.sol\":3949:3999  total_supply.mul(global_collateral_ratio).div(1e6) */\n      tag_52\n        /* \"NewFraxProtocol/contracts/Frax/Pools/FraxPoolLibrary.sol\":3995:3998  1e6 */\n      0x0f4240\n        /* \"NewFraxProtocol/contracts/Frax/Pools/FraxPoolLibrary.sol\":3949:3990  total_supply.mul(global_collateral_ratio) */\n      tag_53\n        /* \"NewFraxProtocol/contracts/Frax/Pools/FraxPoolLibrary.sol\":3966:3989  global_collateral_ratio */\n      dup7\n        /* \"NewFraxProtocol/contracts/Frax/Pools/FraxPoolLibrary.sol\":3949:3961  total_supply */\n      dup9\n        /* \"NewFraxProtocol/contracts/Frax/Pools/FraxPoolLibrary.sol\":3949:3965  total_supply.mul */\n      tag_35\n      swap1\n        /* \"NewFraxProtocol/contracts/Frax/Pools/FraxPoolLibrary.sol\":3949:3990  total_supply.mul(global_collateral_ratio) */\n      swap2\n      swap1\n      0xffffffff\n      and\n      jump\t// in\n    tag_53:\n        /* \"NewFraxProtocol/contracts/Frax/Pools/FraxPoolLibrary.sol\":3949:3994  total_supply.mul(global_collateral_ratio).div */\n      tag_36\n      swap1\n        /* \"NewFraxProtocol/contracts/Frax/Pools/FraxPoolLibrary.sol\":3949:3999  total_supply.mul(global_collateral_ratio).div(1e6) */\n      swap2\n      swap1\n      0xffffffff\n      and\n      jump\t// in\n    tag_52:\n        /* \"NewFraxProtocol/contracts/Frax/Pools/FraxPoolLibrary.sol\":3919:3999  uint256 target_collat_value = total_supply.mul(global_collateral_ratio).div(1e6) */\n      swap1\n      pop\n        /* \"NewFraxProtocol/contracts/Frax/Pools/FraxPoolLibrary.sol\":4262:4306  target_collat_value.sub(global_collat_value) */\n      tag_54\n        /* \"NewFraxProtocol/contracts/Frax/Pools/FraxPoolLibrary.sol\":4286:4305  global_collat_value */\n      dup4\n        /* \"NewFraxProtocol/contracts/Frax/Pools/FraxPoolLibrary.sol\":4262:4281  target_collat_value */\n      dup3\n        /* \"NewFraxProtocol/contracts/Frax/Pools/FraxPoolLibrary.sol\":4262:4285  target_collat_value.sub */\n      tag_43\n      swap1\n        /* \"NewFraxProtocol/contracts/Frax/Pools/FraxPoolLibrary.sol\":4262:4306  target_collat_value.sub(global_collat_value) */\n      swap2\n      swap1\n      0xffffffff\n      and\n      jump\t// in\n    tag_54:\n        /* \"NewFraxProtocol/contracts/Frax/Pools/FraxPoolLibrary.sol\":4255:4306  return target_collat_value.sub(global_collat_value) */\n      swap2\n      pop\n      pop\n        /* \"NewFraxProtocol/contracts/Frax/Pools/FraxPoolLibrary.sol\":3764:4430  function recollateralizeAmount(uint256 total_supply, uint256 global_collateral_ratio, uint256 global_collat_value) public pure returns (uint256) {... */\n      swap4\n      swap3\n      pop\n      pop\n      pop\n      jump\t// out\n        /* \"NewFraxProtocol/contracts/Frax/Pools/FraxPoolLibrary.sol\":767:943  function calcMint1t1FRAX(uint256 col_price, uint256 collateral_amount_d18) public pure returns (uint256) {... */\n    tag_26:\n        /* \"NewFraxProtocol/contracts/Frax/Pools/FraxPoolLibrary.sol\":863:870  uint256 */\n      0x00\n        /* \"NewFraxProtocol/contracts/Frax/Pools/FraxPoolLibrary.sol\":889:936  (collateral_amount_d18.mul(col_price)).div(1e6) */\n      tag_56\n        /* \"NewFraxProtocol/contracts/Frax/Pools/FraxPoolLibrary.sol\":932:935  1e6 */\n      0x0f4240\n        /* \"NewFraxProtocol/contracts/Frax/Pools/FraxPoolLibrary.sol\":890:926  collateral_amount_d18.mul(col_price) */\n      tag_57\n        /* \"NewFraxProtocol/contracts/Frax/Pools/FraxPoolLibrary.sol\":916:925  col_price */\n      dup6\n        /* \"NewFraxProtocol/contracts/Frax/Pools/FraxPoolLibrary.sol\":890:911  collateral_amount_d18 */\n      dup6\n        /* \"NewFraxProtocol/contracts/Frax/Pools/FraxPoolLibrary.sol\":890:915  collateral_amount_d18.mul */\n      tag_35\n      swap1\n        /* \"NewFraxProtocol/contracts/Frax/Pools/FraxPoolLibrary.sol\":890:926  collateral_amount_d18.mul(col_price) */\n      swap2\n      swap1\n      0xffffffff\n      and\n      jump\t// in\n    tag_57:\n        /* \"NewFraxProtocol/contracts/Frax/Pools/FraxPoolLibrary.sol\":889:931  (collateral_amount_d18.mul(col_price)).div */\n      tag_36\n      swap1\n        /* \"NewFraxProtocol/contracts/Frax/Pools/FraxPoolLibrary.sol\":889:936  (collateral_amount_d18.mul(col_price)).div(1e6) */\n      swap2\n      swap1\n      0xffffffff\n      and\n      jump\t// in\n    tag_56:\n        /* \"NewFraxProtocol/contracts/Frax/Pools/FraxPoolLibrary.sol\":882:936  return (collateral_amount_d18.mul(col_price)).div(1e6) */\n      swap1\n      pop\n        /* \"NewFraxProtocol/contracts/Frax/Pools/FraxPoolLibrary.sol\":767:943  function calcMint1t1FRAX(uint256 col_price, uint256 collateral_amount_d18) public pure returns (uint256) {... */\n      swap3\n      swap2\n      pop\n      pop\n      jump\t// out\n        /* \"NewFraxProtocol/contracts/Frax/Pools/FraxPoolLibrary.sol\":949:1125  function calcMintAlgorithmicFRAX(uint256 fxs_price_usd, uint256 fxs_amount_d18) public pure returns (uint256) {... */\n    tag_30:\n        /* \"NewFraxProtocol/contracts/Frax/Pools/FraxPoolLibrary.sol\":1050:1057  uint256 */\n      0x00\n        /* \"NewFraxProtocol/contracts/Frax/Pools/FraxPoolLibrary.sol\":1076:1118  fxs_amount_d18.mul(fxs_price_usd).div(1e6) */\n      tag_59\n        /* \"NewFraxProtocol/contracts/Frax/Pools/FraxPoolLibrary.sol\":1114:1117  1e6 */\n      0x0f4240\n        /* \"NewFraxProtocol/contracts/Frax/Pools/FraxPoolLibrary.sol\":1076:1109  fxs_amount_d18.mul(fxs_price_usd) */\n      tag_60\n        /* \"NewFraxProtocol/contracts/Frax/Pools/FraxPoolLibrary.sol\":1095:1108  fxs_price_usd */\n      dup6\n        /* \"NewFraxProtocol/contracts/Frax/Pools/FraxPoolLibrary.sol\":1076:1090  fxs_amount_d18 */\n      dup6\n        /* \"NewFraxProtocol/contracts/Frax/Pools/FraxPoolLibrary.sol\":1076:1094  fxs_amount_d18.mul */\n      tag_35\n      swap1\n        /* \"NewFraxProtocol/contracts/Frax/Pools/FraxPoolLibrary.sol\":1076:1109  fxs_amount_d18.mul(fxs_price_usd) */\n      swap2\n      swap1\n      0xffffffff\n      and\n      jump\t// in\n    tag_60:\n        /* \"NewFraxProtocol/contracts/Frax/Pools/FraxPoolLibrary.sol\":1076:1113  fxs_amount_d18.mul(fxs_price_usd).div */\n      tag_36\n      swap1\n        /* \"NewFraxProtocol/contracts/Frax/Pools/FraxPoolLibrary.sol\":1076:1118  fxs_amount_d18.mul(fxs_price_usd).div(1e6) */\n      swap2\n      swap1\n      0xffffffff\n      and\n      jump\t// in\n    tag_59:\n        /* \"NewFraxProtocol/contracts/Frax/Pools/FraxPoolLibrary.sol\":1069:1118  return fxs_amount_d18.mul(fxs_price_usd).div(1e6) */\n      swap1\n      pop\n        /* \"NewFraxProtocol/contracts/Frax/Pools/FraxPoolLibrary.sol\":949:1125  function calcMintAlgorithmicFRAX(uint256 fxs_price_usd, uint256 fxs_amount_d18) public pure returns (uint256) {... */\n      swap3\n      swap2\n      pop\n      pop\n      jump\t// out\n        /* \"NewFraxProtocol/contracts/Math/SafeMath.sol\":2193:2652  function mul(uint256 a, uint256 b) internal pure returns (uint256) {... */\n    tag_35:\n        /* \"NewFraxProtocol/contracts/Math/SafeMath.sol\":2251:2258  uint256 */\n      0x00\n        /* \"NewFraxProtocol/contracts/Math/SafeMath.sol\":2497:2498  0 */\n      dup1\n        /* \"NewFraxProtocol/contracts/Math/SafeMath.sol\":2492:2493  a */\n      dup4\n        /* \"NewFraxProtocol/contracts/Math/SafeMath.sol\":2492:2498  a == 0 */\n      sub\n        /* \"NewFraxProtocol/contracts/Math/SafeMath.sol\":2488:2533  if (a == 0) {... */\n      tag_62\n      jumpi\n        /* \"NewFraxProtocol/contracts/Math/SafeMath.sol\":2521:2522  0 */\n      0x00\n        /* \"NewFraxProtocol/contracts/Math/SafeMath.sol\":2514:2522  return 0 */\n      swap1\n      pop\n      jump(tag_61)\n        /* \"NewFraxProtocol/contracts/Math/SafeMath.sol\":2488:2533  if (a == 0) {... */\n    tag_62:\n        /* \"NewFraxProtocol/contracts/Math/SafeMath.sol\":2543:2552  uint256 c */\n      0x00\n        /* \"NewFraxProtocol/contracts/Math/SafeMath.sol\":2559:2560  b */\n      dup3\n        /* \"NewFraxProtocol/contracts/Math/SafeMath.sol\":2555:2556  a */\n      dup5\n        /* \"NewFraxProtocol/contracts/Math/SafeMath.sol\":2555:2560  a * b */\n      tag_63\n      swap2\n      swap1\n      tag_64\n      jump\t// in\n    tag_63:\n        /* \"NewFraxProtocol/contracts/Math/SafeMath.sol\":2543:2560  uint256 c = a * b */\n      swap1\n      pop\n        /* \"NewFraxProtocol/contracts/Math/SafeMath.sol\":2587:2588  b */\n      dup3\n        /* \"NewFraxProtocol/contracts/Math/SafeMath.sol\":2582:2583  a */\n      dup5\n        /* \"NewFraxProtocol/contracts/Math/SafeMath.sol\":2578:2579  c */\n      dup3\n        /* \"NewFraxProtocol/contracts/Math/SafeMath.sol\":2578:2583  c / a */\n      tag_65\n      swap2\n      swap1\n      tag_66\n      jump\t// in\n    tag_65:\n        /* \"NewFraxProtocol/contracts/Math/SafeMath.sol\":2578:2588  c / a == b */\n      eq\n        /* \"NewFraxProtocol/contracts/Math/SafeMath.sol\":2570:2626  require(c / a == b, \"SafeMath: multiplication overflow\") */\n      tag_67\n      jumpi\n      mload(0x40)\n      0x08c379a000000000000000000000000000000000000000000000000000000000\n      dup2\n      mstore\n      0x04\n      add\n      tag_68\n      swap1\n      tag_69\n      jump\t// in\n    tag_68:\n      mload(0x40)\n      dup1\n      swap2\n      sub\n      swap1\n      revert\n    tag_67:\n        /* \"NewFraxProtocol/contracts/Math/SafeMath.sol\":2644:2645  c */\n      dup1\n        /* \"NewFraxProtocol/contracts/Math/SafeMath.sol\":2637:2645  return c */\n      swap2\n      pop\n      pop\n        /* \"NewFraxProtocol/contracts/Math/SafeMath.sol\":2193:2652  function mul(uint256 a, uint256 b) internal pure returns (uint256) {... */\n    tag_61:\n      swap3\n      swap2\n      pop\n      pop\n      jump\t// out\n        /* \"NewFraxProtocol/contracts/Math/SafeMath.sol\":3107:3237  function div(uint256 a, uint256 b) internal pure returns (uint256) {... */\n    tag_36:\n        /* \"NewFraxProtocol/contracts/Math/SafeMath.sol\":3165:3172  uint256 */\n      0x00\n        /* \"NewFraxProtocol/contracts/Math/SafeMath.sol\":3191:3230  div(a, b, \"SafeMath: division by zero\") */\n      tag_71\n        /* \"NewFraxProtocol/contracts/Math/SafeMath.sol\":3195:3196  a */\n      dup4\n        /* \"NewFraxProtocol/contracts/Math/SafeMath.sol\":3198:3199  b */\n      dup4\n        /* \"NewFraxProtocol/contracts/Math/SafeMath.sol\":3191:3230  div(a, b, \"SafeMath: division by zero\") */\n      mload(0x40)\n      dup1\n      0x40\n      add\n      0x40\n      mstore\n      dup1\n      0x1a\n      dup2\n      mstore\n      0x20\n      add\n      0x536166654d6174683a206469766973696f6e206279207a65726f000000000000\n      dup2\n      mstore\n      pop\n        /* \"NewFraxProtocol/contracts/Math/SafeMath.sol\":3191:3194  div */\n      tag_72\n        /* \"NewFraxProtocol/contracts/Math/SafeMath.sol\":3191:3230  div(a, b, \"SafeMath: division by zero\") */\n      jump\t// in\n    tag_71:\n        /* \"NewFraxProtocol/contracts/Math/SafeMath.sol\":3184:3230  return div(a, b, \"SafeMath: division by zero\") */\n      swap1\n      pop\n        /* \"NewFraxProtocol/contracts/Math/SafeMath.sol\":3107:3237  function div(uint256 a, uint256 b) internal pure returns (uint256) {... */\n      swap3\n      swap2\n      pop\n      pop\n      jump\t// out\n        /* \"NewFraxProtocol/contracts/Math/SafeMath.sol\":1308:1442  function sub(uint256 a, uint256 b) internal pure returns (uint256) {... */\n    tag_43:\n        /* \"NewFraxProtocol/contracts/Math/SafeMath.sol\":1366:1373  uint256 */\n      0x00\n        /* \"NewFraxProtocol/contracts/Math/SafeMath.sol\":1392:1435  sub(a, b, \"SafeMath: subtraction overflow\") */\n      tag_74\n        /* \"NewFraxProtocol/contracts/Math/SafeMath.sol\":1396:1397  a */\n      dup4\n        /* \"NewFraxProtocol/contracts/Math/SafeMath.sol\":1399:1400  b */\n      dup4\n        /* \"NewFraxProtocol/contracts/Math/SafeMath.sol\":1392:1435  sub(a, b, \"SafeMath: subtraction overflow\") */\n      mload(0x40)\n      dup1\n      0x40\n      add\n      0x40\n      mstore\n      dup1\n      0x1e\n      dup2\n      mstore\n      0x20\n      add\n      0x536166654d6174683a207375627472616374696f6e206f766572666c6f770000\n      dup2\n      mstore\n      pop\n        /* \"NewFraxProtocol/contracts/Math/SafeMath.sol\":1392:1395  sub */\n      tag_75\n        /* \"NewFraxProtocol/contracts/Math/SafeMath.sol\":1392:1435  sub(a, b, \"SafeMath: subtraction overflow\") */\n      jump\t// in\n    tag_74:\n        /* \"NewFraxProtocol/contracts/Math/SafeMath.sol\":1385:1435  return sub(a, b, \"SafeMath: subtraction overflow\") */\n      swap1\n      pop\n        /* \"NewFraxProtocol/contracts/Math/SafeMath.sol\":1308:1442  function sub(uint256 a, uint256 b) internal pure returns (uint256) {... */\n      swap3\n      swap2\n      pop\n      pop\n      jump\t// out\n        /* \"NewFraxProtocol/contracts/Math/SafeMath.sol\":3752:4090  function div(uint256 a, uint256 b, string memory errorMessage) internal pure returns (uint256) {... */\n    tag_72:\n        /* \"NewFraxProtocol/contracts/Math/SafeMath.sol\":3838:3845  uint256 */\n      0x00\n        /* \"NewFraxProtocol/contracts/Math/SafeMath.sol\":3935:3936  0 */\n      dup1\n        /* \"NewFraxProtocol/contracts/Math/SafeMath.sol\":3931:3932  b */\n      dup4\n        /* \"NewFraxProtocol/contracts/Math/SafeMath.sol\":3931:3936  b > 0 */\n      gt\n        /* \"NewFraxProtocol/contracts/Math/SafeMath.sol\":3938:3950  errorMessage */\n      dup3\n        /* \"NewFraxProtocol/contracts/Math/SafeMath.sol\":3923:3951  require(b > 0, errorMessage) */\n      swap1\n      tag_77\n      jumpi\n      mload(0x40)\n      0x08c379a000000000000000000000000000000000000000000000000000000000\n      dup2\n      mstore\n      0x04\n      add\n      tag_78\n      swap2\n      swap1\n      tag_79\n      jump\t// in\n    tag_78:\n      mload(0x40)\n      dup1\n      swap2\n      sub\n      swap1\n      revert\n    tag_77:\n      pop\n        /* \"NewFraxProtocol/contracts/Math/SafeMath.sol\":3961:3970  uint256 c */\n      0x00\n        /* \"NewFraxProtocol/contracts/Math/SafeMath.sol\":3977:3978  b */\n      dup4\n        /* \"NewFraxProtocol/contracts/Math/SafeMath.sol\":3973:3974  a */\n      dup6\n        /* \"NewFraxProtocol/contracts/Math/SafeMath.sol\":3973:3978  a / b */\n      tag_80\n      swap2\n      swap1\n      tag_66\n      jump\t// in\n    tag_80:\n        /* \"NewFraxProtocol/contracts/Math/SafeMath.sol\":3961:3978  uint256 c = a / b */\n      swap1\n      pop\n        /* \"NewFraxProtocol/contracts/Math/SafeMath.sol\":4082:4083  c */\n      dup1\n        /* \"NewFraxProtocol/contracts/Math/SafeMath.sol\":4075:4083  return c */\n      swap2\n      pop\n      pop\n        /* \"NewFraxProtocol/contracts/Math/SafeMath.sol\":3752:4090  function div(uint256 a, uint256 b, string memory errorMessage) internal pure returns (uint256) {... */\n      swap4\n      swap3\n      pop\n      pop\n      pop\n      jump\t// out\n        /* \"NewFraxProtocol/contracts/Math/SafeMath.sol\":1766:1953  function sub(uint256 a, uint256 b, string memory errorMessage) internal pure returns (uint256) {... */\n    tag_75:\n        /* \"NewFraxProtocol/contracts/Math/SafeMath.sol\":1852:1859  uint256 */\n      0x00\n        /* \"NewFraxProtocol/contracts/Math/SafeMath.sol\":1884:1885  a */\n      dup4\n        /* \"NewFraxProtocol/contracts/Math/SafeMath.sol\":1879:1880  b */\n      dup4\n        /* \"NewFraxProtocol/contracts/Math/SafeMath.sol\":1879:1885  b <= a */\n      gt\n      iszero\n        /* \"NewFraxProtocol/contracts/Math/SafeMath.sol\":1887:1899  errorMessage */\n      dup3\n        /* \"NewFraxProtocol/contracts/Math/SafeMath.sol\":1871:1900  require(b <= a, errorMessage) */\n      swap1\n      tag_82\n      jumpi\n      mload(0x40)\n      0x08c379a000000000000000000000000000000000000000000000000000000000\n      dup2\n      mstore\n      0x04\n      add\n      tag_83\n      swap2\n      swap1\n      tag_79\n      jump\t// in\n    tag_83:\n      mload(0x40)\n      dup1\n      swap2\n      sub\n      swap1\n      revert\n    tag_82:\n      pop\n        /* \"NewFraxProtocol/contracts/Math/SafeMath.sol\":1910:1919  uint256 c */\n      0x00\n        /* \"NewFraxProtocol/contracts/Math/SafeMath.sol\":1926:1927  b */\n      dup4\n        /* \"NewFraxProtocol/contracts/Math/SafeMath.sol\":1922:1923  a */\n      dup6\n        /* \"NewFraxProtocol/contracts/Math/SafeMath.sol\":1922:1927  a - b */\n      tag_84\n      swap2\n      swap1\n      tag_85\n      jump\t// in\n    tag_84:\n        /* \"NewFraxProtocol/contracts/Math/SafeMath.sol\":1910:1927  uint256 c = a - b */\n      swap1\n      pop\n        /* \"NewFraxProtocol/contracts/Math/SafeMath.sol\":1945:1946  c */\n      dup1\n        /* \"NewFraxProtocol/contracts/Math/SafeMath.sol\":1938:1946  return c */\n      swap2\n      pop\n      pop\n        /* \"NewFraxProtocol/contracts/Math/SafeMath.sol\":1766:1953  function sub(uint256 a, uint256 b, string memory errorMessage) internal pure returns (uint256) {... */\n      swap4\n      swap3\n      pop\n      pop\n      pop\n      jump\t// out\n        /* \"#utility.yul\":88:205   */\n    tag_87:\n        /* \"#utility.yul\":197:198   */\n      0x00\n        /* \"#utility.yul\":194:195   */\n      dup1\n        /* \"#utility.yul\":187:199   */\n      revert\n        /* \"#utility.yul\":334:411   */\n    tag_89:\n        /* \"#utility.yul\":371:378   */\n      0x00\n        /* \"#utility.yul\":400:405   */\n      dup2\n        /* \"#utility.yul\":389:405   */\n      swap1\n      pop\n        /* \"#utility.yul\":334:411   */\n      swap2\n      swap1\n      pop\n      jump\t// out\n        /* \"#utility.yul\":417:539   */\n    tag_90:\n        /* \"#utility.yul\":490:514   */\n      tag_108\n        /* \"#utility.yul\":508:513   */\n      dup2\n        /* \"#utility.yul\":490:514   */\n      tag_89\n      jump\t// in\n    tag_108:\n        /* \"#utility.yul\":483:488   */\n      dup2\n        /* \"#utility.yul\":480:515   */\n      eq\n        /* \"#utility.yul\":470:533   */\n      tag_109\n      jumpi\n        /* \"#utility.yul\":529:530   */\n      0x00\n        /* \"#utility.yul\":526:527   */\n      dup1\n        /* \"#utility.yul\":519:531   */\n      revert\n        /* \"#utility.yul\":470:533   */\n    tag_109:\n        /* \"#utility.yul\":417:539   */\n      pop\n      jump\t// out\n        /* \"#utility.yul\":545:684   */\n    tag_91:\n        /* \"#utility.yul\":591:596   */\n      0x00\n        /* \"#utility.yul\":629:635   */\n      dup2\n        /* \"#utility.yul\":616:636   */\n      calldataload\n        /* \"#utility.yul\":607:636   */\n      swap1\n      pop\n        /* \"#utility.yul\":645:678   */\n      tag_111\n        /* \"#utility.yul\":672:677   */\n      dup2\n        /* \"#utility.yul\":645:678   */\n      tag_90\n      jump\t// in\n    tag_111:\n        /* \"#utility.yul\":545:684   */\n      swap3\n      swap2\n      pop\n      pop\n      jump\t// out\n        /* \"#utility.yul\":690:1601   */\n    tag_9:\n        /* \"#utility.yul\":785:791   */\n      0x00\n        /* \"#utility.yul\":793:799   */\n      dup1\n        /* \"#utility.yul\":801:807   */\n      0x00\n        /* \"#utility.yul\":809:815   */\n      dup1\n        /* \"#utility.yul\":817:823   */\n      0x00\n        /* \"#utility.yul\":866:869   */\n      0xa0\n        /* \"#utility.yul\":854:863   */\n      dup7\n        /* \"#utility.yul\":845:852   */\n      dup9\n        /* \"#utility.yul\":841:864   */\n      sub\n        /* \"#utility.yul\":837:870   */\n      slt\n        /* \"#utility.yul\":834:954   */\n      iszero\n      tag_113\n      jumpi\n        /* \"#utility.yul\":873:952   */\n      tag_114\n      tag_87\n      jump\t// in\n    tag_114:\n        /* \"#utility.yul\":834:954   */\n    tag_113:\n        /* \"#utility.yul\":993:994   */\n      0x00\n        /* \"#utility.yul\":1018:1071   */\n      tag_115\n        /* \"#utility.yul\":1063:1070   */\n      dup9\n        /* \"#utility.yul\":1054:1060   */\n      dup3\n        /* \"#utility.yul\":1043:1052   */\n      dup10\n        /* \"#utility.yul\":1039:1061   */\n      add\n        /* \"#utility.yul\":1018:1071   */\n      tag_91\n      jump\t// in\n    tag_115:\n        /* \"#utility.yul\":1008:1071   */\n      swap6\n      pop\n        /* \"#utility.yul\":964:1081   */\n      pop\n        /* \"#utility.yul\":1120:1122   */\n      0x20\n        /* \"#utility.yul\":1146:1199   */\n      tag_116\n        /* \"#utility.yul\":1191:1198   */\n      dup9\n        /* \"#utility.yul\":1182:1188   */\n      dup3\n        /* \"#utility.yul\":1171:1180   */\n      dup10\n        /* \"#utility.yul\":1167:1189   */\n      add\n        /* \"#utility.yul\":1146:1199   */\n      tag_91\n      jump\t// in\n    tag_116:\n        /* \"#utility.yul\":1136:1199   */\n      swap5\n      pop\n        /* \"#utility.yul\":1091:1209   */\n      pop\n        /* \"#utility.yul\":1248:1250   */\n      0x40\n        /* \"#utility.yul\":1274:1327   */\n      tag_117\n        /* \"#utility.yul\":1319:1326   */\n      dup9\n        /* \"#utility.yul\":1310:1316   */\n      dup3\n        /* \"#utility.yul\":1299:1308   */\n      dup10\n        /* \"#utility.yul\":1295:1317   */\n      add\n        /* \"#utility.yul\":1274:1327   */\n      tag_91\n      jump\t// in\n    tag_117:\n        /* \"#utility.yul\":1264:1327   */\n      swap4\n      pop\n        /* \"#utility.yul\":1219:1337   */\n      pop\n        /* \"#utility.yul\":1376:1378   */\n      0x60\n        /* \"#utility.yul\":1402:1455   */\n      tag_118\n        /* \"#utility.yul\":1447:1454   */\n      dup9\n        /* \"#utility.yul\":1438:1444   */\n      dup3\n        /* \"#utility.yul\":1427:1436   */\n      dup10\n        /* \"#utility.yul\":1423:1445   */\n      add\n        /* \"#utility.yul\":1402:1455   */\n      tag_91\n      jump\t// in\n    tag_118:\n        /* \"#utility.yul\":1392:1455   */\n      swap3\n      pop\n        /* \"#utility.yul\":1347:1465   */\n      pop\n        /* \"#utility.yul\":1504:1507   */\n      0x80\n        /* \"#utility.yul\":1531:1584   */\n      tag_119\n        /* \"#utility.yul\":1576:1583   */\n      dup9\n        /* \"#utility.yul\":1567:1573   */\n      dup3\n        /* \"#utility.yul\":1556:1565   */\n      dup10\n        /* \"#utility.yul\":1552:1574   */\n      add\n        /* \"#utility.yul\":1531:1584   */\n      tag_91\n      jump\t// in\n    tag_119:\n        /* \"#utility.yul\":1521:1584   */\n      swap2\n      pop\n        /* \"#utility.yul\":1475:1594   */\n      pop\n        /* \"#utility.yul\":690:1601   */\n      swap3\n      swap6\n      pop\n      swap3\n      swap6\n      swap1\n      swap4\n      pop\n      jump\t// out\n        /* \"#utility.yul\":1607:1733   */\n    tag_92:\n        /* \"#utility.yul\":1702:1726   */\n      tag_121\n        /* \"#utility.yul\":1720:1725   */\n      dup2\n        /* \"#utility.yul\":1702:1726   */\n      tag_89\n      jump\t// in\n    tag_121:\n        /* \"#utility.yul\":1697:1700   */\n      dup3\n        /* \"#utility.yul\":1690:1727   */\n      mstore\n        /* \"#utility.yul\":1607:1733   */\n      pop\n      pop\n      jump\t// out\n        /* \"#utility.yul\":1739:2095   */\n    tag_12:\n        /* \"#utility.yul\":1868:1872   */\n      0x00\n        /* \"#utility.yul\":1906:1908   */\n      0x40\n        /* \"#utility.yul\":1895:1904   */\n      dup3\n        /* \"#utility.yul\":1891:1909   */\n      add\n        /* \"#utility.yul\":1883:1909   */\n      swap1\n      pop\n        /* \"#utility.yul\":1919:1998   */\n      tag_123\n        /* \"#utility.yul\":1995:1996   */\n      0x00\n        /* \"#utility.yul\":1984:1993   */\n      dup4\n        /* \"#utility.yul\":1980:1997   */\n      add\n        /* \"#utility.yul\":1971:1977   */\n      dup6\n        /* \"#utility.yul\":1919:1998   */\n      tag_92\n      jump\t// in\n    tag_123:\n        /* \"#utility.yul\":2008:2088   */\n      tag_124\n        /* \"#utility.yul\":2084:2086   */\n      0x20\n        /* \"#utility.yul\":2073:2082   */\n      dup4\n        /* \"#utility.yul\":2069:2087   */\n      add\n        /* \"#utility.yul\":2060:2066   */\n      dup5\n        /* \"#utility.yul\":2008:2088   */\n      tag_92\n      jump\t// in\n    tag_124:\n        /* \"#utility.yul\":1739:2095   */\n      swap4\n      swap3\n      pop\n      pop\n      pop\n      jump\t// out\n        /* \"#utility.yul\":2101:2575   */\n    tag_15:\n        /* \"#utility.yul\":2169:2175   */\n      0x00\n        /* \"#utility.yul\":2177:2183   */\n      dup1\n        /* \"#utility.yul\":2226:2228   */\n      0x40\n        /* \"#utility.yul\":2214:2223   */\n      dup4\n        /* \"#utility.yul\":2205:2212   */\n      dup6\n        /* \"#utility.yul\":2201:2224   */\n      sub\n        /* \"#utility.yul\":2197:2229   */\n      slt\n        /* \"#utility.yul\":2194:2313   */\n      iszero\n      tag_126\n      jumpi\n        /* \"#utility.yul\":2232:2311   */\n      tag_127\n      tag_87\n      jump\t// in\n    tag_127:\n        /* \"#utility.yul\":2194:2313   */\n    tag_126:\n        /* \"#utility.yul\":2352:2353   */\n      0x00\n        /* \"#utility.yul\":2377:2430   */\n      tag_128\n        /* \"#utility.yul\":2422:2429   */\n      dup6\n        /* \"#utility.yul\":2413:2419   */\n      dup3\n        /* \"#utility.yul\":2402:2411   */\n      dup7\n        /* \"#utility.yul\":2398:2420   */\n      add\n        /* \"#utility.yul\":2377:2430   */\n      tag_91\n      jump\t// in\n    tag_128:\n        /* \"#utility.yul\":2367:2430   */\n      swap3\n      pop\n        /* \"#utility.yul\":2323:2440   */\n      pop\n        /* \"#utility.yul\":2479:2481   */\n      0x20\n        /* \"#utility.yul\":2505:2558   */\n      tag_129\n        /* \"#utility.yul\":2550:2557   */\n      dup6\n        /* \"#utility.yul\":2541:2547   */\n      dup3\n        /* \"#utility.yul\":2530:2539   */\n      dup7\n        /* \"#utility.yul\":2526:2548   */\n      add\n        /* \"#utility.yul\":2505:2558   */\n      tag_91\n      jump\t// in\n    tag_129:\n        /* \"#utility.yul\":2495:2558   */\n      swap2\n      pop\n        /* \"#utility.yul\":2450:2568   */\n      pop\n        /* \"#utility.yul\":2101:2575   */\n      swap3\n      pop\n      swap3\n      swap1\n      pop\n      jump\t// out\n        /* \"#utility.yul\":2581:2819   */\n    tag_18:\n        /* \"#utility.yul\":2682:2686   */\n      0x00\n        /* \"#utility.yul\":2720:2722   */\n      0x20\n        /* \"#utility.yul\":2709:2718   */\n      dup3\n        /* \"#utility.yul\":2705:2723   */\n      add\n        /* \"#utility.yul\":2697:2723   */\n      swap1\n      pop\n        /* \"#utility.yul\":2733:2812   */\n      tag_131\n        /* \"#utility.yul\":2809:2810   */\n      0x00\n        /* \"#utility.yul\":2798:2807   */\n      dup4\n        /* \"#utility.yul\":2794:2811   */\n      add\n        /* \"#utility.yul\":2785:2791   */\n      dup5\n        /* \"#utility.yul\":2733:2812   */\n      tag_92\n      jump\t// in\n    tag_131:\n        /* \"#utility.yul\":2581:2819   */\n      swap3\n      swap2\n      pop\n      pop\n      jump\t// out\n        /* \"#utility.yul\":2825:3444   */\n    tag_21:\n        /* \"#utility.yul\":2902:2908   */\n      0x00\n        /* \"#utility.yul\":2910:2916   */\n      dup1\n        /* \"#utility.yul\":2918:2924   */\n      0x00\n        /* \"#utility.yul\":2967:2969   */\n      0x60\n        /* \"#utility.yul\":2955:2964   */\n      dup5\n        /* \"#utility.yul\":2946:2953   */\n      dup7\n        /* \"#utility.yul\":2942:2965   */\n      sub\n        /* \"#utility.yul\":2938:2970   */\n      slt\n        /* \"#utility.yul\":2935:3054   */\n      iszero\n      tag_133\n      jumpi\n        /* \"#utility.yul\":2973:3052   */\n      tag_134\n      tag_87\n      jump\t// in\n    tag_134:\n        /* \"#utility.yul\":2935:3054   */\n    tag_133:\n        /* \"#utility.yul\":3093:3094   */\n      0x00\n        /* \"#utility.yul\":3118:3171   */\n      tag_135\n        /* \"#utility.yul\":3163:3170   */\n      dup7\n        /* \"#utility.yul\":3154:3160   */\n      dup3\n        /* \"#utility.yul\":3143:3152   */\n      dup8\n        /* \"#utility.yul\":3139:3161   */\n      add\n        /* \"#utility.yul\":3118:3171   */\n      tag_91\n      jump\t// in\n    tag_135:\n        /* \"#utility.yul\":3108:3171   */\n      swap4\n      pop\n        /* \"#utility.yul\":3064:3181   */\n      pop\n        /* \"#utility.yul\":3220:3222   */\n      0x20\n        /* \"#utility.yul\":3246:3299   */\n      tag_136\n        /* \"#utility.yul\":3291:3298   */\n      dup7\n        /* \"#utility.yul\":3282:3288   */\n      dup3\n        /* \"#utility.yul\":3271:3280   */\n      dup8\n        /* \"#utility.yul\":3267:3289   */\n      add\n        /* \"#utility.yul\":3246:3299   */\n      tag_91\n      jump\t// in\n    tag_136:\n        /* \"#utility.yul\":3236:3299   */\n      swap3\n      pop\n        /* \"#utility.yul\":3191:3309   */\n      pop\n        /* \"#utility.yul\":3348:3350   */\n      0x40\n        /* \"#utility.yul\":3374:3427   */\n      tag_137\n        /* \"#utility.yul\":3419:3426   */\n      dup7\n        /* \"#utility.yul\":3410:3416   */\n      dup3\n        /* \"#utility.yul\":3399:3408   */\n      dup8\n        /* \"#utility.yul\":3395:3417   */\n      add\n        /* \"#utility.yul\":3374:3427   */\n      tag_91\n      jump\t// in\n    tag_137:\n        /* \"#utility.yul\":3364:3427   */\n      swap2\n      pop\n        /* \"#utility.yul\":3319:3437   */\n      pop\n        /* \"#utility.yul\":2825:3444   */\n      swap3\n      pop\n      swap3\n      pop\n      swap3\n      jump\t// out\n        /* \"#utility.yul\":3450:3630   */\n    tag_93:\n        /* \"#utility.yul\":3498:3575   */\n      0x4e487b7100000000000000000000000000000000000000000000000000000000\n        /* \"#utility.yul\":3495:3496   */\n      0x00\n        /* \"#utility.yul\":3488:3576   */\n      mstore\n        /* \"#utility.yul\":3595:3599   */\n      0x11\n        /* \"#utility.yul\":3592:3593   */\n      0x04\n        /* \"#utility.yul\":3585:3600   */\n      mstore\n        /* \"#utility.yul\":3619:3623   */\n      0x24\n        /* \"#utility.yul\":3616:3617   */\n      0x00\n        /* \"#utility.yul\":3609:3624   */\n      revert\n        /* \"#utility.yul\":3636:4046   */\n    tag_64:\n        /* \"#utility.yul\":3676:3683   */\n      0x00\n        /* \"#utility.yul\":3699:3719   */\n      tag_140\n        /* \"#utility.yul\":3717:3718   */\n      dup3\n        /* \"#utility.yul\":3699:3719   */\n      tag_89\n      jump\t// in\n    tag_140:\n        /* \"#utility.yul\":3694:3719   */\n      swap2\n      pop\n        /* \"#utility.yul\":3733:3753   */\n      tag_141\n        /* \"#utility.yul\":3751:3752   */\n      dup4\n        /* \"#utility.yul\":3733:3753   */\n      tag_89\n      jump\t// in\n    tag_141:\n        /* \"#utility.yul\":3728:3753   */\n      swap3\n      pop\n        /* \"#utility.yul\":3788:3789   */\n      dup3\n        /* \"#utility.yul\":3785:3786   */\n      dup3\n        /* \"#utility.yul\":3781:3790   */\n      mul\n        /* \"#utility.yul\":3810:3840   */\n      tag_142\n        /* \"#utility.yul\":3828:3839   */\n      dup2\n        /* \"#utility.yul\":3810:3840   */\n      tag_89\n      jump\t// in\n    tag_142:\n        /* \"#utility.yul\":3799:3840   */\n      swap2\n      pop\n        /* \"#utility.yul\":3989:3990   */\n      dup3\n        /* \"#utility.yul\":3980:3987   */\n      dup3\n        /* \"#utility.yul\":3976:3991   */\n      div\n        /* \"#utility.yul\":3973:3974   */\n      dup5\n        /* \"#utility.yul\":3970:3992   */\n      eq\n        /* \"#utility.yul\":3950:3951   */\n      dup4\n        /* \"#utility.yul\":3943:3952   */\n      iszero\n        /* \"#utility.yul\":3923:4006   */\n      or\n        /* \"#utility.yul\":3900:4039   */\n      tag_143\n      jumpi\n        /* \"#utility.yul\":4019:4037   */\n      tag_144\n      tag_93\n      jump\t// in\n    tag_144:\n        /* \"#utility.yul\":3900:4039   */\n    tag_143:\n        /* \"#utility.yul\":3684:4046   */\n      pop\n        /* \"#utility.yul\":3636:4046   */\n      swap3\n      swap2\n      pop\n      pop\n      jump\t// out\n        /* \"#utility.yul\":4052:4232   */\n    tag_94:\n        /* \"#utility.yul\":4100:4177   */\n      0x4e487b7100000000000000000000000000000000000000000000000000000000\n        /* \"#utility.yul\":4097:4098   */\n      0x00\n        /* \"#utility.yul\":4090:4178   */\n      mstore\n        /* \"#utility.yul\":4197:4201   */\n      0x12\n        /* \"#utility.yul\":4194:4195   */\n      0x04\n        /* \"#utility.yul\":4187:4202   */\n      mstore\n        /* \"#utility.yul\":4221:4225   */\n      0x24\n        /* \"#utility.yul\":4218:4219   */\n      0x00\n        /* \"#utility.yul\":4211:4226   */\n      revert\n        /* \"#utility.yul\":4238:4423   */\n    tag_66:\n        /* \"#utility.yul\":4278:4279   */\n      0x00\n        /* \"#utility.yul\":4295:4315   */\n      tag_147\n        /* \"#utility.yul\":4313:4314   */\n      dup3\n        /* \"#utility.yul\":4295:4315   */\n      tag_89\n      jump\t// in\n    tag_147:\n        /* \"#utility.yul\":4290:4315   */\n      swap2\n      pop\n        /* \"#utility.yul\":4329:4349   */\n      tag_148\n        /* \"#utility.yul\":4347:4348   */\n      dup4\n        /* \"#utility.yul\":4329:4349   */\n      tag_89\n      jump\t// in\n    tag_148:\n        /* \"#utility.yul\":4324:4349   */\n      swap3\n      pop\n        /* \"#utility.yul\":4368:4369   */\n      dup3\n        /* \"#utility.yul\":4358:4393   */\n      tag_149\n      jumpi\n        /* \"#utility.yul\":4373:4391   */\n      tag_150\n      tag_94\n      jump\t// in\n    tag_150:\n        /* \"#utility.yul\":4358:4393   */\n    tag_149:\n        /* \"#utility.yul\":4415:4416   */\n      dup3\n        /* \"#utility.yul\":4412:4413   */\n      dup3\n        /* \"#utility.yul\":4408:4417   */\n      div\n        /* \"#utility.yul\":4403:4417   */\n      swap1\n      pop\n        /* \"#utility.yul\":4238:4423   */\n      swap3\n      swap2\n      pop\n      pop\n      jump\t// out\n        /* \"#utility.yul\":4429:4598   */\n    tag_95:\n        /* \"#utility.yul\":4513:4524   */\n      0x00\n        /* \"#utility.yul\":4547:4553   */\n      dup3\n        /* \"#utility.yul\":4542:4545   */\n      dup3\n        /* \"#utility.yul\":4535:4554   */\n      mstore\n        /* \"#utility.yul\":4587:4591   */\n      0x20\n        /* \"#utility.yul\":4582:4585   */\n      dup3\n        /* \"#utility.yul\":4578:4592   */\n      add\n        /* \"#utility.yul\":4563:4592   */\n      swap1\n      pop\n        /* \"#utility.yul\":4429:4598   */\n      swap3\n      swap2\n      pop\n      pop\n      jump\t// out\n        /* \"#utility.yul\":4604:4824   */\n    tag_96:\n        /* \"#utility.yul\":4744:4778   */\n      0x536166654d6174683a206d756c7469706c69636174696f6e206f766572666c6f\n        /* \"#utility.yul\":4740:4741   */\n      0x00\n        /* \"#utility.yul\":4732:4738   */\n      dup3\n        /* \"#utility.yul\":4728:4742   */\n      add\n        /* \"#utility.yul\":4721:4779   */\n      mstore\n        /* \"#utility.yul\":4813:4816   */\n      0x7700000000000000000000000000000000000000000000000000000000000000\n        /* \"#utility.yul\":4808:4810   */\n      0x20\n        /* \"#utility.yul\":4800:4806   */\n      dup3\n        /* \"#utility.yul\":4796:4811   */\n      add\n        /* \"#utility.yul\":4789:4817   */\n      mstore\n        /* \"#utility.yul\":4604:4824   */\n      pop\n      jump\t// out\n        /* \"#utility.yul\":4830:5196   */\n    tag_97:\n        /* \"#utility.yul\":4972:4975   */\n      0x00\n        /* \"#utility.yul\":4993:5060   */\n      tag_154\n        /* \"#utility.yul\":5057:5059   */\n      0x21\n        /* \"#utility.yul\":5052:5055   */\n      dup4\n        /* \"#utility.yul\":4993:5060   */\n      tag_95\n      jump\t// in\n    tag_154:\n        /* \"#utility.yul\":4986:5060   */\n      swap2\n      pop\n        /* \"#utility.yul\":5069:5162   */\n      tag_155\n        /* \"#utility.yul\":5158:5161   */\n      dup3\n        /* \"#utility.yul\":5069:5162   */\n      tag_96\n      jump\t// in\n    tag_155:\n        /* \"#utility.yul\":5187:5189   */\n      0x40\n        /* \"#utility.yul\":5182:5185   */\n      dup3\n        /* \"#utility.yul\":5178:5190   */\n      add\n        /* \"#utility.yul\":5171:5190   */\n      swap1\n      pop\n        /* \"#utility.yul\":4830:5196   */\n      swap2\n      swap1\n      pop\n      jump\t// out\n        /* \"#utility.yul\":5202:5621   */\n    tag_69:\n        /* \"#utility.yul\":5368:5372   */\n      0x00\n        /* \"#utility.yul\":5406:5408   */\n      0x20\n        /* \"#utility.yul\":5395:5404   */\n      dup3\n        /* \"#utility.yul\":5391:5409   */\n      add\n        /* \"#utility.yul\":5383:5409   */\n      swap1\n      pop\n        /* \"#utility.yul\":5455:5464   */\n      dup2\n        /* \"#utility.yul\":5449:5453   */\n      dup2\n        /* \"#utility.yul\":5445:5465   */\n      sub\n        /* \"#utility.yul\":5441:5442   */\n      0x00\n        /* \"#utility.yul\":5430:5439   */\n      dup4\n        /* \"#utility.yul\":5426:5443   */\n      add\n        /* \"#utility.yul\":5419:5466   */\n      mstore\n        /* \"#utility.yul\":5483:5614   */\n      tag_157\n        /* \"#utility.yul\":5609:5613   */\n      dup2\n        /* \"#utility.yul\":5483:5614   */\n      tag_97\n      jump\t// in\n    tag_157:\n        /* \"#utility.yul\":5475:5614   */\n      swap1\n      pop\n        /* \"#utility.yul\":5202:5621   */\n      swap2\n      swap1\n      pop\n      jump\t// out\n        /* \"#utility.yul\":5627:5726   */\n    tag_98:\n        /* \"#utility.yul\":5679:5685   */\n      0x00\n        /* \"#utility.yul\":5713:5718   */\n      dup2\n        /* \"#utility.yul\":5707:5719   */\n      mload\n        /* \"#utility.yul\":5697:5719   */\n      swap1\n      pop\n        /* \"#utility.yul\":5627:5726   */\n      swap2\n      swap1\n      pop\n      jump\t// out\n        /* \"#utility.yul\":5732:5978   */\n    tag_99:\n        /* \"#utility.yul\":5813:5814   */\n      0x00\n        /* \"#utility.yul\":5823:5936   */\n    tag_160:\n        /* \"#utility.yul\":5837:5843   */\n      dup4\n        /* \"#utility.yul\":5834:5835   */\n      dup2\n        /* \"#utility.yul\":5831:5844   */\n      lt\n        /* \"#utility.yul\":5823:5936   */\n      iszero\n      tag_162\n      jumpi\n        /* \"#utility.yul\":5922:5923   */\n      dup1\n        /* \"#utility.yul\":5917:5920   */\n      dup3\n        /* \"#utility.yul\":5913:5924   */\n      add\n        /* \"#utility.yul\":5907:5925   */\n      mload\n        /* \"#utility.yul\":5903:5904   */\n      dup2\n        /* \"#utility.yul\":5898:5901   */\n      dup5\n        /* \"#utility.yul\":5894:5905   */\n      add\n        /* \"#utility.yul\":5887:5926   */\n      mstore\n        /* \"#utility.yul\":5859:5861   */\n      0x20\n        /* \"#utility.yul\":5856:5857   */\n      dup2\n        /* \"#utility.yul\":5852:5862   */\n      add\n        /* \"#utility.yul\":5847:5862   */\n      swap1\n      pop\n        /* \"#utility.yul\":5823:5936   */\n      jump(tag_160)\n    tag_162:\n        /* \"#utility.yul\":5970:5971   */\n      0x00\n        /* \"#utility.yul\":5961:5967   */\n      dup5\n        /* \"#utility.yul\":5956:5959   */\n      dup5\n        /* \"#utility.yul\":5952:5968   */\n      add\n        /* \"#utility.yul\":5945:5972   */\n      mstore\n        /* \"#utility.yul\":5794:5978   */\n      pop\n        /* \"#utility.yul\":5732:5978   */\n      pop\n      pop\n      pop\n      jump\t// out\n        /* \"#utility.yul\":5984:6086   */\n    tag_100:\n        /* \"#utility.yul\":6025:6031   */\n      0x00\n        /* \"#utility.yul\":6076:6078   */\n      0x1f\n        /* \"#utility.yul\":6072:6079   */\n      not\n        /* \"#utility.yul\":6067:6069   */\n      0x1f\n        /* \"#utility.yul\":6060:6065   */\n      dup4\n        /* \"#utility.yul\":6056:6070   */\n      add\n        /* \"#utility.yul\":6052:6080   */\n      and\n        /* \"#utility.yul\":6042:6080   */\n      swap1\n      pop\n        /* \"#utility.yul\":5984:6086   */\n      swap2\n      swap1\n      pop\n      jump\t// out\n        /* \"#utility.yul\":6092:6469   */\n    tag_101:\n        /* \"#utility.yul\":6180:6183   */\n      0x00\n        /* \"#utility.yul\":6208:6247   */\n      tag_165\n        /* \"#utility.yul\":6241:6246   */\n      dup3\n        /* \"#utility.yul\":6208:6247   */\n      tag_98\n      jump\t// in\n    tag_165:\n        /* \"#utility.yul\":6263:6334   */\n      tag_166\n        /* \"#utility.yul\":6327:6333   */\n      dup2\n        /* \"#utility.yul\":6322:6325   */\n      dup6\n        /* \"#utility.yul\":6263:6334   */\n      tag_95\n      jump\t// in\n    tag_166:\n        /* \"#utility.yul\":6256:6334   */\n      swap4\n      pop\n        /* \"#utility.yul\":6343:6408   */\n      tag_167\n        /* \"#utility.yul\":6401:6407   */\n      dup2\n        /* \"#utility.yul\":6396:6399   */\n      dup6\n        /* \"#utility.yul\":6389:6393   */\n      0x20\n        /* \"#utility.yul\":6382:6387   */\n      dup7\n        /* \"#utility.yul\":6378:6394   */\n      add\n        /* \"#utility.yul\":6343:6408   */\n      tag_99\n      jump\t// in\n    tag_167:\n        /* \"#utility.yul\":6433:6462   */\n      tag_168\n        /* \"#utility.yul\":6455:6461   */\n      dup2\n        /* \"#utility.yul\":6433:6462   */\n      tag_100\n      jump\t// in\n    tag_168:\n        /* \"#utility.yul\":6428:6431   */\n      dup5\n        /* \"#utility.yul\":6424:6463   */\n      add\n        /* \"#utility.yul\":6417:6463   */\n      swap2\n      pop\n        /* \"#utility.yul\":6184:6469   */\n      pop\n        /* \"#utility.yul\":6092:6469   */\n      swap3\n      swap2\n      pop\n      pop\n      jump\t// out\n        /* \"#utility.yul\":6475:6788   */\n    tag_79:\n        /* \"#utility.yul\":6588:6592   */\n      0x00\n        /* \"#utility.yul\":6626:6628   */\n      0x20\n        /* \"#utility.yul\":6615:6624   */\n      dup3\n        /* \"#utility.yul\":6611:6629   */\n      add\n        /* \"#utility.yul\":6603:6629   */\n      swap1\n      pop\n        /* \"#utility.yul\":6675:6684   */\n      dup2\n        /* \"#utility.yul\":6669:6673   */\n      dup2\n        /* \"#utility.yul\":6665:6685   */\n      sub\n        /* \"#utility.yul\":6661:6662   */\n      0x00\n        /* \"#utility.yul\":6650:6659   */\n      dup4\n        /* \"#utility.yul\":6646:6663   */\n      add\n        /* \"#utility.yul\":6639:6686   */\n      mstore\n        /* \"#utility.yul\":6703:6781   */\n      tag_170\n        /* \"#utility.yul\":6776:6780   */\n      dup2\n        /* \"#utility.yul\":6767:6773   */\n      dup5\n        /* \"#utility.yul\":6703:6781   */\n      tag_101\n      jump\t// in\n    tag_170:\n        /* \"#utility.yul\":6695:6781   */\n      swap1\n      pop\n        /* \"#utility.yul\":6475:6788   */\n      swap3\n      swap2\n      pop\n      pop\n      jump\t// out\n        /* \"#utility.yul\":6794:6988   */\n    tag_85:\n        /* \"#utility.yul\":6834:6838   */\n      0x00\n        /* \"#utility.yul\":6854:6874   */\n      tag_172\n        /* \"#utility.yul\":6872:6873   */\n      dup3\n        /* \"#utility.yul\":6854:6874   */\n      tag_89\n      jump\t// in\n    tag_172:\n        /* \"#utility.yul\":6849:6874   */\n      swap2\n      pop\n        /* \"#utility.yul\":6888:6908   */\n      tag_173\n        /* \"#utility.yul\":6906:6907   */\n      dup4\n        /* \"#utility.yul\":6888:6908   */\n      tag_89\n      jump\t// in\n    tag_173:\n        /* \"#utility.yul\":6883:6908   */\n      swap3\n      pop\n        /* \"#utility.yul\":6932:6933   */\n      dup3\n        /* \"#utility.yul\":6929:6930   */\n      dup3\n        /* \"#utility.yul\":6925:6934   */\n      sub\n        /* \"#utility.yul\":6917:6934   */\n      swap1\n      pop\n        /* \"#utility.yul\":6956:6957   */\n      dup2\n        /* \"#utility.yul\":6950:6954   */\n      dup2\n        /* \"#utility.yul\":6947:6958   */\n      gt\n        /* \"#utility.yul\":6944:6981   */\n      iszero\n      tag_174\n      jumpi\n        /* \"#utility.yul\":6961:6979   */\n      tag_175\n      tag_93\n      jump\t// in\n    tag_175:\n        /* \"#utility.yul\":6944:6981   */\n    tag_174:\n        /* \"#utility.yul\":6794:6988   */\n      swap3\n      swap2\n      pop\n      pop\n      jump\t// out\n\n    auxdata: 0xa26469706673582212200d9257cd21b9e09bc23c8990880211aa91512baa4eca3ef11863acb5f46c205e64736f6c63430008150033\n}\n",
				"bytecode": {
					"linkReferences": {},
					"object": "6108ea61004e600b8282823980515f1a607314610042577f4e487b71000000000000000000000000000000000000000000000000000000005f525f60045260245ffd5b305f52607381538281f3fe7300000000000000000000000000000000000000003014608060405260043610610060575f3560e01c806306058f4a146100645780630f41b452146100955780630ff24ec1146100c55780635413e192146100f5578063ce032cc114610125575b5f80fd5b61007e6004803603810190610079919061052a565b610155565b60405161008c9291906105b0565b60405180910390f35b6100af60048036038101906100aa91906105d7565b61024b565b6040516100bc9190610615565b60405180910390f35b6100df60048036038101906100da919061062e565b61027c565b6040516100ec9190610615565b60405180910390f35b61010f600480360381019061010a91906105d7565b6102c5565b60405161011c9190610615565b60405180910390f35b61013f600480360381019061013a91906105d7565b6102f6565b60405161014c9190610615565b60405180910390f35b5f805f610180620f4240610172898b61032790919063ffffffff16565b61039e90919063ffffffff16565b90505f6101ab8661019d620f42408a61032790919063ffffffff16565b61039e90919063ffffffff16565b90505f6101fa620f42406101ec6101cb858b61032790919063ffffffff16565b6101de8b8b61032790919063ffffffff16565b6103e790919063ffffffff16565b61039e90919063ffffffff16565b90505f81841161020c57839050610210565b8190505b6102388a61022a620f42408461032790919063ffffffff16565b61039e90919063ffffffff16565b8195509550505050509550959350505050565b5f61027483610266620f42408561032790919063ffffffff16565b61039e90919063ffffffff16565b905092915050565b5f806102a6620f4240610298868861032790919063ffffffff16565b61039e90919063ffffffff16565b90506102bb83826103e790919063ffffffff16565b9150509392505050565b5f6102ee620f42406102e0858561032790919063ffffffff16565b61039e90919063ffffffff16565b905092915050565b5f61031f620f4240610311858561032790919063ffffffff16565b61039e90919063ffffffff16565b905092915050565b5f808303610337575f9050610398565b5f828461034491906106ab565b90508284826103539190610719565b14610393576040517f08c379a000000000000000000000000000000000000000000000000000000000815260040161038a906107c9565b60405180910390fd5b809150505b92915050565b5f6103df83836040518060400160405280601a81526020017f536166654d6174683a206469766973696f6e206279207a65726f000000000000815250610430565b905092915050565b5f61042883836040518060400160405280601e81526020017f536166654d6174683a207375627472616374696f6e206f766572666c6f770000815250610491565b905092915050565b5f8083118290610476576040517f08c379a000000000000000000000000000000000000000000000000000000000815260040161046d9190610861565b60405180910390fd5b505f83856104849190610719565b9050809150509392505050565b5f8383111582906104d8576040517f08c379a00000000000000000000000000000000000000000000000000000000081526004016104cf9190610861565b60405180910390fd5b505f83856104e69190610881565b9050809150509392505050565b5f80fd5b5f819050919050565b610509816104f7565b8114610513575f80fd5b50565b5f8135905061052481610500565b92915050565b5f805f805f60a08688031215610543576105426104f3565b5b5f61055088828901610516565b955050602061056188828901610516565b945050604061057288828901610516565b935050606061058388828901610516565b925050608061059488828901610516565b9150509295509295909350565b6105aa816104f7565b82525050565b5f6040820190506105c35f8301856105a1565b6105d060208301846105a1565b9392505050565b5f80604083850312156105ed576105ec6104f3565b5b5f6105fa85828601610516565b925050602061060b85828601610516565b9150509250929050565b5f6020820190506106285f8301846105a1565b92915050565b5f805f60608486031215610645576106446104f3565b5b5f61065286828701610516565b935050602061066386828701610516565b925050604061067486828701610516565b9150509250925092565b7f4e487b71000000000000000000000000000000000000000000000000000000005f52601160045260245ffd5b5f6106b5826104f7565b91506106c0836104f7565b92508282026106ce816104f7565b915082820484148315176106e5576106e461067e565b5b5092915050565b7f4e487b71000000000000000000000000000000000000000000000000000000005f52601260045260245ffd5b5f610723826104f7565b915061072e836104f7565b92508261073e5761073d6106ec565b5b828204905092915050565b5f82825260208201905092915050565b7f536166654d6174683a206d756c7469706c69636174696f6e206f766572666c6f5f8201527f7700000000000000000000000000000000000000000000000000000000000000602082015250565b5f6107b3602183610749565b91506107be82610759565b604082019050919050565b5f6020820190508181035f8301526107e0816107a7565b9050919050565b5f81519050919050565b5f5b8381101561080e5780820151818401526020810190506107f3565b5f8484015250505050565b5f601f19601f8301169050919050565b5f610833826107e7565b61083d8185610749565b935061084d8185602086016107f1565b61085681610819565b840191505092915050565b5f6020820190508181035f8301526108798184610829565b905092915050565b5f61088b826104f7565b9150610896836104f7565b92508282039050818111156108ae576108ad61067e565b5b9291505056fea26469706673582212200d9257cd21b9e09bc23c8990880211aa91512baa4eca3ef11863acb5f46c205e64736f6c63430008150033",
					"opcodes": "PUSH2 0x8EA PUSH2 0x4E PUSH1 0xB DUP3 DUP3 DUP3 CODECOPY DUP1 MLOAD PUSH0 BYTE PUSH1 0x73 EQ PUSH2 0x42 JUMPI PUSH32 0x4E487B7100000000000000000000000000000000000000000000000000000000 PUSH0 MSTORE PUSH0 PUSH1 0x4 MSTORE PUSH1 0x24 PUSH0 REVERT JUMPDEST ADDRESS PUSH0 MSTORE PUSH1 0x73 DUP2 MSTORE8 DUP3 DUP2 RETURN INVALID PUSH20 0x0 ADDRESS EQ PUSH1 0x80 PUSH1 0x40 MSTORE PUSH1 0x4 CALLDATASIZE LT PUSH2 0x60 JUMPI PUSH0 CALLDATALOAD PUSH1 0xE0 SHR DUP1 PUSH4 0x6058F4A EQ PUSH2 0x64 JUMPI DUP1 PUSH4 0xF41B452 EQ PUSH2 0x95 JUMPI DUP1 PUSH4 0xFF24EC1 EQ PUSH2 0xC5 JUMPI DUP1 PUSH4 0x5413E192 EQ PUSH2 0xF5 JUMPI DUP1 PUSH4 0xCE032CC1 EQ PUSH2 0x125 JUMPI JUMPDEST PUSH0 DUP1 REVERT JUMPDEST PUSH2 0x7E PUSH1 0x4 DUP1 CALLDATASIZE SUB DUP2 ADD SWAP1 PUSH2 0x79 SWAP2 SWAP1 PUSH2 0x52A JUMP JUMPDEST PUSH2 0x155 JUMP JUMPDEST PUSH1 0x40 MLOAD PUSH2 0x8C SWAP3 SWAP2 SWAP1 PUSH2 0x5B0 JUMP JUMPDEST PUSH1 0x40 MLOAD DUP1 SWAP2 SUB SWAP1 RETURN JUMPDEST PUSH2 0xAF PUSH1 0x4 DUP1 CALLDATASIZE SUB DUP2 ADD SWAP1 PUSH2 0xAA SWAP2 SWAP1 PUSH2 0x5D7 JUMP JUMPDEST PUSH2 0x24B JUMP JUMPDEST PUSH1 0x40 MLOAD PUSH2 0xBC SWAP2 SWAP1 PUSH2 0x615 JUMP JUMPDEST PUSH1 0x40 MLOAD DUP1 SWAP2 SUB SWAP1 RETURN JUMPDEST PUSH2 0xDF PUSH1 0x4 DUP1 CALLDATASIZE SUB DUP2 ADD SWAP1 PUSH2 0xDA SWAP2 SWAP1 PUSH2 0x62E JUMP JUMPDEST PUSH2 0x27C JUMP JUMPDEST PUSH1 0x40 MLOAD PUSH2 0xEC SWAP2 SWAP1 PUSH2 0x615 JUMP JUMPDEST PUSH1 0x40 MLOAD DUP1 SWAP2 SUB SWAP1 RETURN JUMPDEST PUSH2 0x10F PUSH1 0x4 DUP1 CALLDATASIZE SUB DUP2 ADD SWAP1 PUSH2 0x10A SWAP2 SWAP1 PUSH2 0x5D7 JUMP JUMPDEST PUSH2 0x2C5 JUMP JUMPDEST PUSH1 0x40 MLOAD PUSH2 0x11C SWAP2 SWAP1 PUSH2 0x615 JUMP JUMPDEST PUSH1 0x40 MLOAD DUP1 SWAP2 SUB SWAP1 RETURN JUMPDEST PUSH2 0x13F PUSH1 0x4 DUP1 CALLDATASIZE SUB DUP2 ADD SWAP1 PUSH2 0x13A SWAP2 SWAP1 PUSH2 0x5D7 JUMP JUMPDEST PUSH2 0x2F6 JUMP JUMPDEST PUSH1 0x40 MLOAD PUSH2 0x14C SWAP2 SWAP1 PUSH2 0x615 JUMP JUMPDEST PUSH1 0x40 MLOAD DUP1 SWAP2 SUB SWAP1 RETURN JUMPDEST PUSH0 DUP1 PUSH0 PUSH2 0x180 PUSH3 0xF4240 PUSH2 0x172 DUP10 DUP12 PUSH2 0x327 SWAP1 SWAP2 SWAP1 PUSH4 0xFFFFFFFF AND JUMP JUMPDEST PUSH2 0x39E SWAP1 SWAP2 SWAP1 PUSH4 0xFFFFFFFF AND JUMP JUMPDEST SWAP1 POP PUSH0 PUSH2 0x1AB DUP7 PUSH2 0x19D PUSH3 0xF4240 DUP11 PUSH2 0x327 SWAP1 SWAP2 SWAP1 PUSH4 0xFFFFFFFF AND JUMP JUMPDEST PUSH2 0x39E SWAP1 SWAP2 SWAP1 PUSH4 0xFFFFFFFF AND JUMP JUMPDEST SWAP1 POP PUSH0 PUSH2 0x1FA PUSH3 0xF4240 PUSH2 0x1EC PUSH2 0x1CB DUP6 DUP12 PUSH2 0x327 SWAP1 SWAP2 SWAP1 PUSH4 0xFFFFFFFF AND JUMP JUMPDEST PUSH2 0x1DE DUP12 DUP12 PUSH2 0x327 SWAP1 SWAP2 SWAP1 PUSH4 0xFFFFFFFF AND JUMP JUMPDEST PUSH2 0x3E7 SWAP1 SWAP2 SWAP1 PUSH4 0xFFFFFFFF AND JUMP JUMPDEST PUSH2 0x39E SWAP1 SWAP2 SWAP1 PUSH4 0xFFFFFFFF AND JUMP JUMPDEST SWAP1 POP PUSH0 DUP2 DUP5 GT PUSH2 0x20C JUMPI DUP4 SWAP1 POP PUSH2 0x210 JUMP JUMPDEST DUP2 SWAP1 POP JUMPDEST PUSH2 0x238 DUP11 PUSH2 0x22A PUSH3 0xF4240 DUP5 PUSH2 0x327 SWAP1 SWAP2 SWAP1 PUSH4 0xFFFFFFFF AND JUMP JUMPDEST PUSH2 0x39E SWAP1 SWAP2 SWAP1 PUSH4 0xFFFFFFFF AND JUMP JUMPDEST DUP2 SWAP6 POP SWAP6 POP POP POP POP POP SWAP6 POP SWAP6 SWAP4 POP POP POP POP JUMP JUMPDEST PUSH0 PUSH2 0x274 DUP4 PUSH2 0x266 PUSH3 0xF4240 DUP6 PUSH2 0x327 SWAP1 SWAP2 SWAP1 PUSH4 0xFFFFFFFF AND JUMP JUMPDEST PUSH2 0x39E SWAP1 SWAP2 SWAP1 PUSH4 0xFFFFFFFF AND JUMP JUMPDEST SWAP1 POP SWAP3 SWAP2 POP POP JUMP JUMPDEST PUSH0 DUP1 PUSH2 0x2A6 PUSH3 0xF4240 PUSH2 0x298 DUP7 DUP9 PUSH2 0x327 SWAP1 SWAP2 SWAP1 PUSH4 0xFFFFFFFF AND JUMP JUMPDEST PUSH2 0x39E SWAP1 SWAP2 SWAP1 PUSH4 0xFFFFFFFF AND JUMP JUMPDEST SWAP1 POP PUSH2 0x2BB DUP4 DUP3 PUSH2 0x3E7 SWAP1 SWAP2 SWAP1 PUSH4 0xFFFFFFFF AND JUMP JUMPDEST SWAP2 POP POP SWAP4 SWAP3 POP POP POP JUMP JUMPDEST PUSH0 PUSH2 0x2EE PUSH3 0xF4240 PUSH2 0x2E0 DUP6 DUP6 PUSH2 0x327 SWAP1 SWAP2 SWAP1 PUSH4 0xFFFFFFFF AND JUMP JUMPDEST PUSH2 0x39E SWAP1 SWAP2 SWAP1 PUSH4 0xFFFFFFFF AND JUMP JUMPDEST SWAP1 POP SWAP3 SWAP2 POP POP JUMP JUMPDEST PUSH0 PUSH2 0x31F PUSH3 0xF4240 PUSH2 0x311 DUP6 DUP6 PUSH2 0x327 SWAP1 SWAP2 SWAP1 PUSH4 0xFFFFFFFF AND JUMP JUMPDEST PUSH2 0x39E SWAP1 SWAP2 SWAP1 PUSH4 0xFFFFFFFF AND JUMP JUMPDEST SWAP1 POP SWAP3 SWAP2 POP POP JUMP JUMPDEST PUSH0 DUP1 DUP4 SUB PUSH2 0x337 JUMPI PUSH0 SWAP1 POP PUSH2 0x398 JUMP JUMPDEST PUSH0 DUP3 DUP5 PUSH2 0x344 SWAP2 SWAP1 PUSH2 0x6AB JUMP JUMPDEST SWAP1 POP DUP3 DUP5 DUP3 PUSH2 0x353 SWAP2 SWAP1 PUSH2 0x719 JUMP JUMPDEST EQ PUSH2 0x393 JUMPI PUSH1 0x40 MLOAD PUSH32 0x8C379A000000000000000000000000000000000000000000000000000000000 DUP2 MSTORE PUSH1 0x4 ADD PUSH2 0x38A SWAP1 PUSH2 0x7C9 JUMP JUMPDEST PUSH1 0x40 MLOAD DUP1 SWAP2 SUB SWAP1 REVERT JUMPDEST DUP1 SWAP2 POP POP JUMPDEST SWAP3 SWAP2 POP POP JUMP JUMPDEST PUSH0 PUSH2 0x3DF DUP4 DUP4 PUSH1 0x40 MLOAD DUP1 PUSH1 0x40 ADD PUSH1 0x40 MSTORE DUP1 PUSH1 0x1A DUP2 MSTORE PUSH1 0x20 ADD PUSH32 0x536166654D6174683A206469766973696F6E206279207A65726F000000000000 DUP2 MSTORE POP PUSH2 0x430 JUMP JUMPDEST SWAP1 POP SWAP3 SWAP2 POP POP JUMP JUMPDEST PUSH0 PUSH2 0x428 DUP4 DUP4 PUSH1 0x40 MLOAD DUP1 PUSH1 0x40 ADD PUSH1 0x40 MSTORE DUP1 PUSH1 0x1E DUP2 MSTORE PUSH1 0x20 ADD PUSH32 0x536166654D6174683A207375627472616374696F6E206F766572666C6F770000 DUP2 MSTORE POP PUSH2 0x491 JUMP JUMPDEST SWAP1 POP SWAP3 SWAP2 POP POP JUMP JUMPDEST PUSH0 DUP1 DUP4 GT DUP3 SWAP1 PUSH2 0x476 JUMPI PUSH1 0x40 MLOAD PUSH32 0x8C379A000000000000000000000000000000000000000000000000000000000 DUP2 MSTORE PUSH1 0x4 ADD PUSH2 0x46D SWAP2 SWAP1 PUSH2 0x861 JUMP JUMPDEST PUSH1 0x40 MLOAD DUP1 SWAP2 SUB SWAP1 REVERT JUMPDEST POP PUSH0 DUP4 DUP6 PUSH2 0x484 SWAP2 SWAP1 PUSH2 0x719 JUMP JUMPDEST SWAP1 POP DUP1 SWAP2 POP POP SWAP4 SWAP3 POP POP POP JUMP JUMPDEST PUSH0 DUP4 DUP4 GT ISZERO DUP3 SWAP1 PUSH2 0x4D8 JUMPI PUSH1 0x40 MLOAD PUSH32 0x8C379A000000000000000000000000000000000000000000000000000000000 DUP2 MSTORE PUSH1 0x4 ADD PUSH2 0x4CF SWAP2 SWAP1 PUSH2 0x861 JUMP JUMPDEST PUSH1 0x40 MLOAD DUP1 SWAP2 SUB SWAP1 REVERT JUMPDEST POP PUSH0 DUP4 DUP6 PUSH2 0x4E6 SWAP2 SWAP1 PUSH2 0x881 JUMP JUMPDEST SWAP1 POP DUP1 SWAP2 POP POP SWAP4 SWAP3 POP POP POP JUMP JUMPDEST PUSH0 DUP1 REVERT JUMPDEST PUSH0 DUP2 SWAP1 POP SWAP2 SWAP1 POP JUMP JUMPDEST PUSH2 0x509 DUP2 PUSH2 0x4F7 JUMP JUMPDEST DUP2 EQ PUSH2 0x513 JUMPI PUSH0 DUP1 REVERT JUMPDEST POP JUMP JUMPDEST PUSH0 DUP2 CALLDATALOAD SWAP1 POP PUSH2 0x524 DUP2 PUSH2 0x500 JUMP JUMPDEST SWAP3 SWAP2 POP POP JUMP JUMPDEST PUSH0 DUP1 PUSH0 DUP1 PUSH0 PUSH1 0xA0 DUP7 DUP9 SUB SLT ISZERO PUSH2 0x543 JUMPI PUSH2 0x542 PUSH2 0x4F3 JUMP JUMPDEST JUMPDEST PUSH0 PUSH2 0x550 DUP9 DUP3 DUP10 ADD PUSH2 0x516 JUMP JUMPDEST SWAP6 POP POP PUSH1 0x20 PUSH2 0x561 DUP9 DUP3 DUP10 ADD PUSH2 0x516 JUMP JUMPDEST SWAP5 POP POP PUSH1 0x40 PUSH2 0x572 DUP9 DUP3 DUP10 ADD PUSH2 0x516 JUMP JUMPDEST SWAP4 POP POP PUSH1 0x60 PUSH2 0x583 DUP9 DUP3 DUP10 ADD PUSH2 0x516 JUMP JUMPDEST SWAP3 POP POP PUSH1 0x80 PUSH2 0x594 DUP9 DUP3 DUP10 ADD PUSH2 0x516 JUMP JUMPDEST SWAP2 POP POP SWAP3 SWAP6 POP SWAP3 SWAP6 SWAP1 SWAP4 POP JUMP JUMPDEST PUSH2 0x5AA DUP2 PUSH2 0x4F7 JUMP JUMPDEST DUP3 MSTORE POP POP JUMP JUMPDEST PUSH0 PUSH1 0x40 DUP3 ADD SWAP1 POP PUSH2 0x5C3 PUSH0 DUP4 ADD DUP6 PUSH2 0x5A1 JUMP JUMPDEST PUSH2 0x5D0 PUSH1 0x20 DUP4 ADD DUP5 PUSH2 0x5A1 JUMP JUMPDEST SWAP4 SWAP3 POP POP POP JUMP JUMPDEST PUSH0 DUP1 PUSH1 0x40 DUP4 DUP6 SUB SLT ISZERO PUSH2 0x5ED JUMPI PUSH2 0x5EC PUSH2 0x4F3 JUMP JUMPDEST JUMPDEST PUSH0 PUSH2 0x5FA DUP6 DUP3 DUP7 ADD PUSH2 0x516 JUMP JUMPDEST SWAP3 POP POP PUSH1 0x20 PUSH2 0x60B DUP6 DUP3 DUP7 ADD PUSH2 0x516 JUMP JUMPDEST SWAP2 POP POP SWAP3 POP SWAP3 SWAP1 POP JUMP JUMPDEST PUSH0 PUSH1 0x20 DUP3 ADD SWAP1 POP PUSH2 0x628 PUSH0 DUP4 ADD DUP5 PUSH2 0x5A1 JUMP JUMPDEST SWAP3 SWAP2 POP POP JUMP JUMPDEST PUSH0 DUP1 PUSH0 PUSH1 0x60 DUP5 DUP7 SUB SLT ISZERO PUSH2 0x645 JUMPI PUSH2 0x644 PUSH2 0x4F3 JUMP JUMPDEST JUMPDEST PUSH0 PUSH2 0x652 DUP7 DUP3 DUP8 ADD PUSH2 0x516 JUMP JUMPDEST SWAP4 POP POP PUSH1 0x20 PUSH2 0x663 DUP7 DUP3 DUP8 ADD PUSH2 0x516 JUMP JUMPDEST SWAP3 POP POP PUSH1 0x40 PUSH2 0x674 DUP7 DUP3 DUP8 ADD PUSH2 0x516 JUMP JUMPDEST SWAP2 POP POP SWAP3 POP SWAP3 POP SWAP3 JUMP JUMPDEST PUSH32 0x4E487B7100000000000000000000000000000000000000000000000000000000 PUSH0 MSTORE PUSH1 0x11 PUSH1 0x4 MSTORE PUSH1 0x24 PUSH0 REVERT JUMPDEST PUSH0 PUSH2 0x6B5 DUP3 PUSH2 0x4F7 JUMP JUMPDEST SWAP2 POP PUSH2 0x6C0 DUP4 PUSH2 0x4F7 JUMP JUMPDEST SWAP3 POP DUP3 DUP3 MUL PUSH2 0x6CE DUP2 PUSH2 0x4F7 JUMP JUMPDEST SWAP2 POP DUP3 DUP3 DIV DUP5 EQ DUP4 ISZERO OR PUSH2 0x6E5 JUMPI PUSH2 0x6E4 PUSH2 0x67E JUMP JUMPDEST JUMPDEST POP SWAP3 SWAP2 POP POP JUMP JUMPDEST PUSH32 0x4E487B7100000000000000000000000000000000000000000000000000000000 PUSH0 MSTORE PUSH1 0x12 PUSH1 0x4 MSTORE PUSH1 0x24 PUSH0 REVERT JUMPDEST PUSH0 PUSH2 0x723 DUP3 PUSH2 0x4F7 JUMP JUMPDEST SWAP2 POP PUSH2 0x72E DUP4 PUSH2 0x4F7 JUMP JUMPDEST SWAP3 POP DUP3 PUSH2 0x73E JUMPI PUSH2 0x73D PUSH2 0x6EC JUMP JUMPDEST JUMPDEST DUP3 DUP3 DIV SWAP1 POP SWAP3 SWAP2 POP POP JUMP JUMPDEST PUSH0 DUP3 DUP3 MSTORE PUSH1 0x20 DUP3 ADD SWAP1 POP SWAP3 SWAP2 POP POP JUMP JUMPDEST PUSH32 0x536166654D6174683A206D756C7469706C69636174696F6E206F766572666C6F PUSH0 DUP3 ADD MSTORE PUSH32 0x7700000000000000000000000000000000000000000000000000000000000000 PUSH1 0x20 DUP3 ADD MSTORE POP JUMP JUMPDEST PUSH0 PUSH2 0x7B3 PUSH1 0x21 DUP4 PUSH2 0x749 JUMP JUMPDEST SWAP2 POP PUSH2 0x7BE DUP3 PUSH2 0x759 JUMP JUMPDEST PUSH1 0x40 DUP3 ADD SWAP1 POP SWAP2 SWAP1 POP JUMP JUMPDEST PUSH0 PUSH1 0x20 DUP3 ADD SWAP1 POP DUP2 DUP2 SUB PUSH0 DUP4 ADD MSTORE PUSH2 0x7E0 DUP2 PUSH2 0x7A7 JUMP JUMPDEST SWAP1 POP SWAP2 SWAP1 POP JUMP JUMPDEST PUSH0 DUP2 MLOAD SWAP1 POP SWAP2 SWAP1 POP JUMP JUMPDEST PUSH0 JUMPDEST DUP4 DUP2 LT ISZERO PUSH2 0x80E JUMPI DUP1 DUP3 ADD MLOAD DUP2 DUP5 ADD MSTORE PUSH1 0x20 DUP2 ADD SWAP1 POP PUSH2 0x7F3 JUMP JUMPDEST PUSH0 DUP5 DUP5 ADD MSTORE POP POP POP POP JUMP JUMPDEST PUSH0 PUSH1 0x1F NOT PUSH1 0x1F DUP4 ADD AND SWAP1 POP SWAP2 SWAP1 POP JUMP JUMPDEST PUSH0 PUSH2 0x833 DUP3 PUSH2 0x7E7 JUMP JUMPDEST PUSH2 0x83D DUP2 DUP6 PUSH2 0x749 JUMP JUMPDEST SWAP4 POP PUSH2 0x84D DUP2 DUP6 PUSH1 0x20 DUP7 ADD PUSH2 0x7F1 JUMP JUMPDEST PUSH2 0x856 DUP2 PUSH2 0x819 JUMP JUMPDEST DUP5 ADD SWAP2 POP POP SWAP3 SWAP2 POP POP JUMP JUMPDEST PUSH0 PUSH1 0x20 DUP3 ADD SWAP1 POP DUP2 DUP2 SUB PUSH0 DUP4 ADD MSTORE PUSH2 0x879 DUP2 DUP5 PUSH2 0x829 JUMP JUMPDEST SWAP1 POP SWAP3 SWAP2 POP POP JUMP JUMPDEST PUSH0 PUSH2 0x88B DUP3 PUSH2 0x4F7 JUMP JUMPDEST SWAP2 POP PUSH2 0x896 DUP4 PUSH2 0x4F7 JUMP JUMPDEST SWAP3 POP DUP3 DUP3 SUB SWAP1 POP DUP2 DUP2 GT ISZERO PUSH2 0x8AE JUMPI PUSH2 0x8AD PUSH2 0x67E JUMP JUMPDEST JUMPDEST SWAP3 SWAP2 POP POP JUMP INVALID LOG2 PUSH5 0x6970667358 0x22 SLT KECCAK256 0xD SWAP3 JUMPI 0xCD 0x21 0xB9 0xE0 SWAP12 0xC2 EXTCODECOPY DUP10 SWAP1 DUP9 MUL GT 0xAA SWAP2 MLOAD 0x2B 0xAA 0x4E 0xCA RETURNDATACOPY CALL XOR PUSH4 0xACB5F46C KECCAK256 0x5E PUSH5 0x736F6C6343 STOP ADDMOD ISZERO STOP CALLER "
				},
				"gasEstimates": {
					"creation": {
						"codeDepositCost": "456400",
						"executionCost": "516",
						"totalCost": "456916"
					},
					"external": {
						"calcMint1t1FRAX(uint256,uint256)": "infinite",
						"calcMintAlgorithmicFRAX(uint256,uint256)": "infinite",
						"calcRecollateralizeFRAXInner(uint256,uint256,uint256,uint256,uint256)": "infinite",
						"calcRedeem1t1FRAX(uint256,uint256)": "infinite",
						"recollateralizeAmount(uint256,uint256,uint256)": "infinite"
					},
					"internal": {
						"calcBuyBackFXS(struct FraxPoolLibrary.BuybackFXS_Params memory)": "infinite",
						"calcMintFractionalFRAX(struct FraxPoolLibrary.MintFF_Params memory)": "infinite"
					}
				},
				"methodIdentifiers": {
					"calcMint1t1FRAX(uint256,uint256)": "5413e192",
					"calcMintAlgorithmicFRAX(uint256,uint256)": "ce032cc1",
					"calcRecollateralizeFRAXInner(uint256,uint256,uint256,uint256,uint256)": "06058f4a",
					"calcRedeem1t1FRAX(uint256,uint256)": "0f41b452",
					"recollateralizeAmount(uint256,uint256,uint256)": "0ff24ec1"
				}
			},
			"storageLayout": {
				"storage": [],
				"types": null
			},
			"userdoc": {
				"kind": "user",
				"methods": {},
				"version": 1
			}
		}
	}
}