{
	"NewFraxProtocol/contracts/Frax/Pools/FraxPoolLibrary.sol": {
		"FraxPoolLibrary": {
			"abi": [
				{
					"inputs": [
						{
							"internalType": "uint256",
							"name": "col_price",
							"type": "uint256"
						},
						{
							"internalType": "uint256",
							"name": "collateral_amount_d18",
							"type": "uint256"
						}
					],
					"name": "calcMint1t1FRAX",
					"outputs": [
						{
							"internalType": "uint256",
							"name": "",
							"type": "uint256"
						}
					],
					"stateMutability": "pure",
					"type": "function"
				},
				{
					"inputs": [
						{
							"internalType": "uint256",
							"name": "fxs_price_usd",
							"type": "uint256"
						},
						{
							"internalType": "uint256",
							"name": "fxs_amount_d18",
							"type": "uint256"
						}
					],
					"name": "calcMintAlgorithmicFRAX",
					"outputs": [
						{
							"internalType": "uint256",
							"name": "",
							"type": "uint256"
						}
					],
					"stateMutability": "pure",
					"type": "function"
				},
				{
					"inputs": [
						{
							"internalType": "uint256",
							"name": "collateral_amount",
							"type": "uint256"
						},
						{
							"internalType": "uint256",
							"name": "col_price",
							"type": "uint256"
						},
						{
							"internalType": "uint256",
							"name": "global_collat_value",
							"type": "uint256"
						},
						{
							"internalType": "uint256",
							"name": "frax_total_supply",
							"type": "uint256"
						},
						{
							"internalType": "uint256",
							"name": "global_collateral_ratio",
							"type": "uint256"
						}
					],
					"name": "calcRecollateralizeFRAXInner",
					"outputs": [
						{
							"internalType": "uint256",
							"name": "",
							"type": "uint256"
						},
						{
							"internalType": "uint256",
							"name": "",
							"type": "uint256"
						}
					],
					"stateMutability": "pure",
					"type": "function"
				},
				{
					"inputs": [
						{
							"internalType": "uint256",
							"name": "col_price_usd",
							"type": "uint256"
						},
						{
							"internalType": "uint256",
							"name": "FRAX_amount",
							"type": "uint256"
						}
					],
					"name": "calcRedeem1t1FRAX",
					"outputs": [
						{
							"internalType": "uint256",
							"name": "",
							"type": "uint256"
						}
					],
					"stateMutability": "pure",
					"type": "function"
				},
				{
					"inputs": [
						{
							"internalType": "uint256",
							"name": "total_supply",
							"type": "uint256"
						},
						{
							"internalType": "uint256",
							"name": "global_collateral_ratio",
							"type": "uint256"
						},
						{
							"internalType": "uint256",
							"name": "global_collat_value",
							"type": "uint256"
						}
					],
					"name": "recollateralizeAmount",
					"outputs": [
						{
							"internalType": "uint256",
							"name": "",
							"type": "uint256"
						}
					],
					"stateMutability": "pure",
					"type": "function"
				}
			],
			"devdoc": {
				"kind": "dev",
				"methods": {},
				"version": 1
			},
			"evm": {
				"assembly": "    /* \"NewFraxProtocol/contracts/Frax/Pools/FraxPoolLibrary.sol\":109:5370  library FraxPoolLibrary {... */\n  dataSize(sub_0)\n  dataOffset(sub_0)\n  0x0b\n  dup3\n  dup3\n  dup3\n  codecopy\n  dup1\n  mload\n  0x00\n  byte\n  0x73\n  eq\n  tag_1\n  jumpi\n  mstore(0x00, shl(0xe0, 0x4e487b71))\n  mstore(0x04, 0x00)\n  revert(0x00, 0x24)\ntag_1:\n  mstore(0x00, address)\n  0x73\n  dup2\n  mstore8\n  dup3\n  dup2\n  return\nstop\n\nsub_0: assembly {\n        /* \"NewFraxProtocol/contracts/Frax/Pools/FraxPoolLibrary.sol\":109:5370  library FraxPoolLibrary {... */\n      eq(address, deployTimeAddress())\n      mstore(0x40, 0x80)\n      jumpi(tag_1, lt(calldatasize, 0x04))\n      shr(0xe0, calldataload(0x00))\n      dup1\n      0x06058f4a\n      eq\n      tag_2\n      jumpi\n      dup1\n      0x0f41b452\n      eq\n      tag_3\n      jumpi\n      dup1\n      0x0ff24ec1\n      eq\n      tag_4\n      jumpi\n      dup1\n      0x5413e192\n      eq\n      tag_5\n      jumpi\n      dup1\n      0xce032cc1\n      eq\n      tag_5\n      jumpi\n    tag_1:\n      0x00\n      dup1\n      revert\n        /* \"NewFraxProtocol/contracts/Frax/Pools/FraxPoolLibrary.sol\":4436:5367  function calcRecollateralizeFRAXInner(... */\n    tag_2:\n      tag_7\n      tag_8\n      calldatasize\n      0x04\n      tag_9\n      jump\t// in\n    tag_8:\n      tag_10\n      jump\t// in\n    tag_7:\n      0x40\n      dup1\n      mload\n        /* \"#utility.yul\":655:680   */\n      swap3\n      dup4\n      mstore\n        /* \"#utility.yul\":711:713   */\n      0x20\n        /* \"#utility.yul\":696:714   */\n      dup4\n      add\n        /* \"#utility.yul\":689:723   */\n      swap2\n      swap1\n      swap2\n      mstore\n        /* \"#utility.yul\":628:646   */\n      add\n        /* \"NewFraxProtocol/contracts/Frax/Pools/FraxPoolLibrary.sol\":4436:5367  function calcRecollateralizeFRAXInner(... */\n    tag_11:\n      mload(0x40)\n      dup1\n      swap2\n      sub\n      swap1\n      return\n        /* \"NewFraxProtocol/contracts/Frax/Pools/FraxPoolLibrary.sol\":2364:2528  function calcRedeem1t1FRAX(uint256 col_price_usd, uint256 FRAX_amount) public pure returns (uint256) {... */\n    tag_3:\n      tag_13\n      tag_14\n      calldatasize\n      0x04\n      tag_15\n      jump\t// in\n    tag_14:\n      tag_16\n      jump\t// in\n    tag_13:\n      mload(0x40)\n        /* \"#utility.yul\":1141:1166   */\n      swap1\n      dup2\n      mstore\n        /* \"#utility.yul\":1129:1131   */\n      0x20\n        /* \"#utility.yul\":1114:1132   */\n      add\n        /* \"NewFraxProtocol/contracts/Frax/Pools/FraxPoolLibrary.sol\":2364:2528  function calcRedeem1t1FRAX(uint256 col_price_usd, uint256 FRAX_amount) public pure returns (uint256) {... */\n      tag_11\n        /* \"#utility.yul\":987:1172   */\n      jump\n        /* \"NewFraxProtocol/contracts/Frax/Pools/FraxPoolLibrary.sol\":3764:4430  function recollateralizeAmount(uint256 total_supply, uint256 global_collateral_ratio, uint256 global_collat_value) public pure returns (uint256) {... */\n    tag_4:\n      tag_13\n      tag_20\n      calldatasize\n      0x04\n      tag_21\n      jump\t// in\n    tag_20:\n      tag_22\n      jump\t// in\n        /* \"NewFraxProtocol/contracts/Frax/Pools/FraxPoolLibrary.sol\":767:943  function calcMint1t1FRAX(uint256 col_price, uint256 collateral_amount_d18) public pure returns (uint256) {... */\n    tag_5:\n      tag_13\n      tag_25\n      calldatasize\n      0x04\n      tag_15\n      jump\t// in\n    tag_25:\n      tag_26\n      jump\t// in\n        /* \"NewFraxProtocol/contracts/Frax/Pools/FraxPoolLibrary.sol\":4436:5367  function calcRecollateralizeFRAXInner(... */\n    tag_10:\n        /* \"NewFraxProtocol/contracts/Frax/Pools/FraxPoolLibrary.sol\":4677:4684  uint256 */\n      0x00\n      dup1\n      dup1\n        /* \"NewFraxProtocol/contracts/Frax/Pools/FraxPoolLibrary.sol\":4738:4779  collateral_amount.mul(col_price).div(1e6) */\n      tag_33\n        /* \"NewFraxProtocol/contracts/Frax/Pools/FraxPoolLibrary.sol\":4775:4778  1e6 */\n      0x0f4240\n        /* \"NewFraxProtocol/contracts/Frax/Pools/FraxPoolLibrary.sol\":4738:4770  collateral_amount.mul(col_price) */\n      tag_34\n        /* \"NewFraxProtocol/contracts/Frax/Pools/FraxPoolLibrary.sol\":4738:4755  collateral_amount */\n      dup11\n        /* \"NewFraxProtocol/contracts/Frax/Pools/FraxPoolLibrary.sol\":4760:4769  col_price */\n      dup11\n        /* \"NewFraxProtocol/contracts/Frax/Pools/FraxPoolLibrary.sol\":4738:4759  collateral_amount.mul */\n      tag_35\n        /* \"NewFraxProtocol/contracts/Frax/Pools/FraxPoolLibrary.sol\":4738:4770  collateral_amount.mul(col_price) */\n      jump\t// in\n    tag_34:\n        /* \"NewFraxProtocol/contracts/Frax/Pools/FraxPoolLibrary.sol\":4738:4774  collateral_amount.mul(col_price).div */\n      swap1\n      tag_36\n        /* \"NewFraxProtocol/contracts/Frax/Pools/FraxPoolLibrary.sol\":4738:4779  collateral_amount.mul(col_price).div(1e6) */\n      jump\t// in\n    tag_33:\n        /* \"NewFraxProtocol/contracts/Frax/Pools/FraxPoolLibrary.sol\":4705:4779  uint256 collat_value_attempted = collateral_amount.mul(col_price).div(1e6) */\n      swap1\n      pop\n        /* \"NewFraxProtocol/contracts/Frax/Pools/FraxPoolLibrary.sol\":4789:4823  uint256 effective_collateral_ratio */\n      0x00\n        /* \"NewFraxProtocol/contracts/Frax/Pools/FraxPoolLibrary.sol\":4826:4877  global_collat_value.mul(1e6).div(frax_total_supply) */\n      tag_37\n        /* \"NewFraxProtocol/contracts/Frax/Pools/FraxPoolLibrary.sol\":4859:4876  frax_total_supply */\n      dup7\n        /* \"NewFraxProtocol/contracts/Frax/Pools/FraxPoolLibrary.sol\":4826:4854  global_collat_value.mul(1e6) */\n      tag_34\n        /* \"NewFraxProtocol/contracts/Frax/Pools/FraxPoolLibrary.sol\":4826:4845  global_collat_value */\n      dup10\n        /* \"NewFraxProtocol/contracts/Frax/Pools/FraxPoolLibrary.sol\":4850:4853  1e6 */\n      0x0f4240\n        /* \"NewFraxProtocol/contracts/Frax/Pools/FraxPoolLibrary.sol\":4826:4849  global_collat_value.mul */\n      tag_35\n        /* \"NewFraxProtocol/contracts/Frax/Pools/FraxPoolLibrary.sol\":4826:4854  global_collat_value.mul(1e6) */\n      jump\t// in\n        /* \"NewFraxProtocol/contracts/Frax/Pools/FraxPoolLibrary.sol\":4826:4877  global_collat_value.mul(1e6).div(frax_total_supply) */\n    tag_37:\n        /* \"NewFraxProtocol/contracts/Frax/Pools/FraxPoolLibrary.sol\":4789:4877  uint256 effective_collateral_ratio = global_collat_value.mul(1e6).div(frax_total_supply) */\n      swap1\n      pop\n        /* \"NewFraxProtocol/contracts/Frax/Pools/FraxPoolLibrary.sol\":4907:4932  uint256 recollat_possible */\n      0x00\n        /* \"NewFraxProtocol/contracts/Frax/Pools/FraxPoolLibrary.sol\":4935:5047  (global_collateral_ratio.mul(frax_total_supply).sub(frax_total_supply.mul(effective_collateral_ratio))).div(1e6) */\n      tag_39\n        /* \"NewFraxProtocol/contracts/Frax/Pools/FraxPoolLibrary.sol\":5043:5046  1e6 */\n      0x0f4240\n        /* \"NewFraxProtocol/contracts/Frax/Pools/FraxPoolLibrary.sol\":4936:5037  global_collateral_ratio.mul(frax_total_supply).sub(frax_total_supply.mul(effective_collateral_ratio)) */\n      tag_34\n        /* \"NewFraxProtocol/contracts/Frax/Pools/FraxPoolLibrary.sol\":4987:5036  frax_total_supply.mul(effective_collateral_ratio) */\n      tag_41\n        /* \"NewFraxProtocol/contracts/Frax/Pools/FraxPoolLibrary.sol\":4987:5004  frax_total_supply */\n      dup11\n        /* \"NewFraxProtocol/contracts/Frax/Pools/FraxPoolLibrary.sol\":4789:4877  uint256 effective_collateral_ratio = global_collat_value.mul(1e6).div(frax_total_supply) */\n      dup7\n        /* \"NewFraxProtocol/contracts/Frax/Pools/FraxPoolLibrary.sol\":4987:5008  frax_total_supply.mul */\n      tag_35\n        /* \"NewFraxProtocol/contracts/Frax/Pools/FraxPoolLibrary.sol\":4987:5036  frax_total_supply.mul(effective_collateral_ratio) */\n      jump\t// in\n    tag_41:\n        /* \"NewFraxProtocol/contracts/Frax/Pools/FraxPoolLibrary.sol\":4936:4982  global_collateral_ratio.mul(frax_total_supply) */\n      tag_42\n        /* \"NewFraxProtocol/contracts/Frax/Pools/FraxPoolLibrary.sol\":4936:4959  global_collateral_ratio */\n      dup11\n        /* \"NewFraxProtocol/contracts/Frax/Pools/FraxPoolLibrary.sol\":4964:4981  frax_total_supply */\n      dup13\n        /* \"NewFraxProtocol/contracts/Frax/Pools/FraxPoolLibrary.sol\":4936:4963  global_collateral_ratio.mul */\n      tag_35\n        /* \"NewFraxProtocol/contracts/Frax/Pools/FraxPoolLibrary.sol\":4936:4982  global_collateral_ratio.mul(frax_total_supply) */\n      jump\t// in\n    tag_42:\n        /* \"NewFraxProtocol/contracts/Frax/Pools/FraxPoolLibrary.sol\":4936:4986  global_collateral_ratio.mul(frax_total_supply).sub */\n      swap1\n      tag_43\n        /* \"NewFraxProtocol/contracts/Frax/Pools/FraxPoolLibrary.sol\":4936:5037  global_collateral_ratio.mul(frax_total_supply).sub(frax_total_supply.mul(effective_collateral_ratio)) */\n      jump\t// in\n        /* \"NewFraxProtocol/contracts/Frax/Pools/FraxPoolLibrary.sol\":4935:5047  (global_collateral_ratio.mul(frax_total_supply).sub(frax_total_supply.mul(effective_collateral_ratio))).div(1e6) */\n    tag_39:\n        /* \"NewFraxProtocol/contracts/Frax/Pools/FraxPoolLibrary.sol\":4907:5047  uint256 recollat_possible = (global_collateral_ratio.mul(frax_total_supply).sub(frax_total_supply.mul(effective_collateral_ratio))).div(1e6) */\n      swap1\n      pop\n        /* \"NewFraxProtocol/contracts/Frax/Pools/FraxPoolLibrary.sol\":5058:5084  uint256 amount_to_recollat */\n      0x00\n        /* \"NewFraxProtocol/contracts/Frax/Pools/FraxPoolLibrary.sol\":5123:5140  recollat_possible */\n      dup2\n        /* \"NewFraxProtocol/contracts/Frax/Pools/FraxPoolLibrary.sol\":5097:5119  collat_value_attempted */\n      dup5\n        /* \"NewFraxProtocol/contracts/Frax/Pools/FraxPoolLibrary.sol\":5097:5140  collat_value_attempted <= recollat_possible */\n      gt\n        /* \"NewFraxProtocol/contracts/Frax/Pools/FraxPoolLibrary.sol\":5094:5278  if(collat_value_attempted <= recollat_possible){... */\n      tag_44\n      jumpi\n      pop\n        /* \"NewFraxProtocol/contracts/Frax/Pools/FraxPoolLibrary.sol\":5176:5198  collat_value_attempted */\n      dup3\n        /* \"NewFraxProtocol/contracts/Frax/Pools/FraxPoolLibrary.sol\":5094:5278  if(collat_value_attempted <= recollat_possible){... */\n      jump(tag_45)\n    tag_44:\n      pop\n        /* \"NewFraxProtocol/contracts/Frax/Pools/FraxPoolLibrary.sol\":5250:5267  recollat_possible */\n      dup1\n        /* \"NewFraxProtocol/contracts/Frax/Pools/FraxPoolLibrary.sol\":5094:5278  if(collat_value_attempted <= recollat_possible){... */\n    tag_45:\n        /* \"NewFraxProtocol/contracts/Frax/Pools/FraxPoolLibrary.sol\":5296:5338  amount_to_recollat.mul(1e6).div(col_price) */\n      tag_46\n        /* \"NewFraxProtocol/contracts/Frax/Pools/FraxPoolLibrary.sol\":5328:5337  col_price */\n      dup11\n        /* \"NewFraxProtocol/contracts/Frax/Pools/FraxPoolLibrary.sol\":5296:5323  amount_to_recollat.mul(1e6) */\n      tag_34\n        /* \"NewFraxProtocol/contracts/Frax/Pools/FraxPoolLibrary.sol\":5296:5314  amount_to_recollat */\n      dup4\n        /* \"NewFraxProtocol/contracts/Frax/Pools/FraxPoolLibrary.sol\":5319:5322  1e6 */\n      0x0f4240\n        /* \"NewFraxProtocol/contracts/Frax/Pools/FraxPoolLibrary.sol\":5296:5318  amount_to_recollat.mul */\n      tag_35\n        /* \"NewFraxProtocol/contracts/Frax/Pools/FraxPoolLibrary.sol\":5296:5323  amount_to_recollat.mul(1e6) */\n      jump\t// in\n        /* \"NewFraxProtocol/contracts/Frax/Pools/FraxPoolLibrary.sol\":5296:5338  amount_to_recollat.mul(1e6).div(col_price) */\n    tag_46:\n        /* \"NewFraxProtocol/contracts/Frax/Pools/FraxPoolLibrary.sol\":5288:5359  return (amount_to_recollat.mul(1e6).div(col_price), amount_to_recollat) */\n      swap12\n        /* \"NewFraxProtocol/contracts/Frax/Pools/FraxPoolLibrary.sol\":5340:5358  amount_to_recollat */\n      swap1\n      swap11\n      pop\n        /* \"NewFraxProtocol/contracts/Frax/Pools/FraxPoolLibrary.sol\":4436:5367  function calcRecollateralizeFRAXInner(... */\n      swap9\n      pop\n      pop\n      pop\n      pop\n      pop\n      pop\n      pop\n      pop\n      pop\n      jump\t// out\n        /* \"NewFraxProtocol/contracts/Frax/Pools/FraxPoolLibrary.sol\":2364:2528  function calcRedeem1t1FRAX(uint256 col_price_usd, uint256 FRAX_amount) public pure returns (uint256) {... */\n    tag_16:\n        /* \"NewFraxProtocol/contracts/Frax/Pools/FraxPoolLibrary.sol\":2456:2463  uint256 */\n      0x00\n        /* \"NewFraxProtocol/contracts/Frax/Pools/FraxPoolLibrary.sol\":2482:2521  FRAX_amount.mul(1e6).div(col_price_usd) */\n      tag_49\n        /* \"NewFraxProtocol/contracts/Frax/Pools/FraxPoolLibrary.sol\":2507:2520  col_price_usd */\n      dup4\n        /* \"NewFraxProtocol/contracts/Frax/Pools/FraxPoolLibrary.sol\":2482:2502  FRAX_amount.mul(1e6) */\n      tag_34\n        /* \"NewFraxProtocol/contracts/Frax/Pools/FraxPoolLibrary.sol\":2482:2493  FRAX_amount */\n      dup5\n        /* \"NewFraxProtocol/contracts/Frax/Pools/FraxPoolLibrary.sol\":2498:2501  1e6 */\n      0x0f4240\n        /* \"NewFraxProtocol/contracts/Frax/Pools/FraxPoolLibrary.sol\":2482:2497  FRAX_amount.mul */\n      tag_35\n        /* \"NewFraxProtocol/contracts/Frax/Pools/FraxPoolLibrary.sol\":2482:2502  FRAX_amount.mul(1e6) */\n      jump\t// in\n        /* \"NewFraxProtocol/contracts/Frax/Pools/FraxPoolLibrary.sol\":2482:2521  FRAX_amount.mul(1e6).div(col_price_usd) */\n    tag_49:\n        /* \"NewFraxProtocol/contracts/Frax/Pools/FraxPoolLibrary.sol\":2475:2521  return FRAX_amount.mul(1e6).div(col_price_usd) */\n      swap1\n      pop\n        /* \"NewFraxProtocol/contracts/Frax/Pools/FraxPoolLibrary.sol\":2364:2528  function calcRedeem1t1FRAX(uint256 col_price_usd, uint256 FRAX_amount) public pure returns (uint256) {... */\n    tag_48:\n      swap3\n      swap2\n      pop\n      pop\n      jump\t// out\n        /* \"NewFraxProtocol/contracts/Frax/Pools/FraxPoolLibrary.sol\":3764:4430  function recollateralizeAmount(uint256 total_supply, uint256 global_collateral_ratio, uint256 global_collat_value) public pure returns (uint256) {... */\n    tag_22:\n        /* \"NewFraxProtocol/contracts/Frax/Pools/FraxPoolLibrary.sol\":3900:3907  uint256 */\n      0x00\n      dup1\n        /* \"NewFraxProtocol/contracts/Frax/Pools/FraxPoolLibrary.sol\":3949:3999  total_supply.mul(global_collateral_ratio).div(1e6) */\n      tag_52\n        /* \"NewFraxProtocol/contracts/Frax/Pools/FraxPoolLibrary.sol\":3995:3998  1e6 */\n      0x0f4240\n        /* \"NewFraxProtocol/contracts/Frax/Pools/FraxPoolLibrary.sol\":3949:3990  total_supply.mul(global_collateral_ratio) */\n      tag_34\n        /* \"NewFraxProtocol/contracts/Frax/Pools/FraxPoolLibrary.sol\":3949:3961  total_supply */\n      dup8\n        /* \"NewFraxProtocol/contracts/Frax/Pools/FraxPoolLibrary.sol\":3966:3989  global_collateral_ratio */\n      dup8\n        /* \"NewFraxProtocol/contracts/Frax/Pools/FraxPoolLibrary.sol\":3949:3965  total_supply.mul */\n      tag_35\n        /* \"NewFraxProtocol/contracts/Frax/Pools/FraxPoolLibrary.sol\":3949:3990  total_supply.mul(global_collateral_ratio) */\n      jump\t// in\n        /* \"NewFraxProtocol/contracts/Frax/Pools/FraxPoolLibrary.sol\":3949:3999  total_supply.mul(global_collateral_ratio).div(1e6) */\n    tag_52:\n        /* \"NewFraxProtocol/contracts/Frax/Pools/FraxPoolLibrary.sol\":3919:3999  uint256 target_collat_value = total_supply.mul(global_collateral_ratio).div(1e6) */\n      swap1\n      pop\n        /* \"NewFraxProtocol/contracts/Frax/Pools/FraxPoolLibrary.sol\":4262:4306  target_collat_value.sub(global_collat_value) */\n      tag_54\n        /* \"NewFraxProtocol/contracts/Frax/Pools/FraxPoolLibrary.sol\":3919:3999  uint256 target_collat_value = total_supply.mul(global_collateral_ratio).div(1e6) */\n      dup2\n        /* \"NewFraxProtocol/contracts/Frax/Pools/FraxPoolLibrary.sol\":4286:4305  global_collat_value */\n      dup5\n        /* \"NewFraxProtocol/contracts/Frax/Pools/FraxPoolLibrary.sol\":4262:4285  target_collat_value.sub */\n      tag_43\n        /* \"NewFraxProtocol/contracts/Frax/Pools/FraxPoolLibrary.sol\":4262:4306  target_collat_value.sub(global_collat_value) */\n      jump\t// in\n    tag_54:\n        /* \"NewFraxProtocol/contracts/Frax/Pools/FraxPoolLibrary.sol\":4255:4306  return target_collat_value.sub(global_collat_value) */\n      swap6\n        /* \"NewFraxProtocol/contracts/Frax/Pools/FraxPoolLibrary.sol\":3764:4430  function recollateralizeAmount(uint256 total_supply, uint256 global_collateral_ratio, uint256 global_collat_value) public pure returns (uint256) {... */\n      swap5\n      pop\n      pop\n      pop\n      pop\n      pop\n      jump\t// out\n        /* \"NewFraxProtocol/contracts/Frax/Pools/FraxPoolLibrary.sol\":767:943  function calcMint1t1FRAX(uint256 col_price, uint256 collateral_amount_d18) public pure returns (uint256) {... */\n    tag_26:\n        /* \"NewFraxProtocol/contracts/Frax/Pools/FraxPoolLibrary.sol\":863:870  uint256 */\n      0x00\n        /* \"NewFraxProtocol/contracts/Frax/Pools/FraxPoolLibrary.sol\":889:936  (collateral_amount_d18.mul(col_price)).div(1e6) */\n      tag_49\n        /* \"NewFraxProtocol/contracts/Frax/Pools/FraxPoolLibrary.sol\":932:935  1e6 */\n      0x0f4240\n        /* \"NewFraxProtocol/contracts/Frax/Pools/FraxPoolLibrary.sol\":890:926  collateral_amount_d18.mul(col_price) */\n      tag_34\n        /* \"NewFraxProtocol/contracts/Frax/Pools/FraxPoolLibrary.sol\":890:911  collateral_amount_d18 */\n      dup5\n        /* \"NewFraxProtocol/contracts/Frax/Pools/FraxPoolLibrary.sol\":916:925  col_price */\n      dup7\n        /* \"NewFraxProtocol/contracts/Math/SafeMath.sol\":2193:2652  function mul(uint256 a, uint256 b) internal pure returns (uint256) {... */\n    tag_35:\n        /* \"NewFraxProtocol/contracts/Math/SafeMath.sol\":2251:2258  uint256 */\n      0x00\n        /* \"NewFraxProtocol/contracts/Math/SafeMath.sol\":2492:2493  a */\n      dup3\n        /* \"NewFraxProtocol/contracts/Math/SafeMath.sol\":2497:2498  0 */\n      0x00\n        /* \"NewFraxProtocol/contracts/Math/SafeMath.sol\":2492:2498  a == 0 */\n      sub\n        /* \"NewFraxProtocol/contracts/Math/SafeMath.sol\":2488:2533  if (a == 0) {... */\n      tag_62\n      jumpi\n      pop\n        /* \"NewFraxProtocol/contracts/Math/SafeMath.sol\":2521:2522  0 */\n      0x00\n        /* \"NewFraxProtocol/contracts/Math/SafeMath.sol\":2514:2522  return 0 */\n      jump(tag_48)\n        /* \"NewFraxProtocol/contracts/Math/SafeMath.sol\":2488:2533  if (a == 0) {... */\n    tag_62:\n        /* \"NewFraxProtocol/contracts/Math/SafeMath.sol\":2543:2552  uint256 c */\n      0x00\n        /* \"NewFraxProtocol/contracts/Math/SafeMath.sol\":2555:2560  a * b */\n      tag_63\n        /* \"NewFraxProtocol/contracts/Math/SafeMath.sol\":2559:2560  b */\n      dup4\n        /* \"NewFraxProtocol/contracts/Math/SafeMath.sol\":2555:2556  a */\n      dup6\n        /* \"NewFraxProtocol/contracts/Math/SafeMath.sol\":2555:2560  a * b */\n      tag_64\n      jump\t// in\n    tag_63:\n        /* \"NewFraxProtocol/contracts/Math/SafeMath.sol\":2543:2560  uint256 c = a * b */\n      swap1\n      pop\n        /* \"NewFraxProtocol/contracts/Math/SafeMath.sol\":2587:2588  b */\n      dup3\n        /* \"NewFraxProtocol/contracts/Math/SafeMath.sol\":2578:2583  c / a */\n      tag_65\n        /* \"NewFraxProtocol/contracts/Math/SafeMath.sol\":2582:2583  a */\n      dup6\n        /* \"NewFraxProtocol/contracts/Math/SafeMath.sol\":2543:2560  uint256 c = a * b */\n      dup4\n        /* \"NewFraxProtocol/contracts/Math/SafeMath.sol\":2578:2583  c / a */\n      tag_66\n      jump\t// in\n    tag_65:\n        /* \"NewFraxProtocol/contracts/Math/SafeMath.sol\":2578:2588  c / a == b */\n      eq\n        /* \"NewFraxProtocol/contracts/Math/SafeMath.sol\":2570:2626  require(c / a == b, \"SafeMath: multiplication overflow\") */\n      tag_49\n      jumpi\n      mload(0x40)\n      shl(0xe5, 0x461bcd)\n      dup2\n      mstore\n        /* \"#utility.yul\":2227:2229   */\n      0x20\n        /* \"NewFraxProtocol/contracts/Math/SafeMath.sol\":2570:2626  require(c / a == b, \"SafeMath: multiplication overflow\") */\n      0x04\n      dup3\n      add\n        /* \"#utility.yul\":2209:2230   */\n      mstore\n        /* \"#utility.yul\":2266:2268   */\n      0x21\n        /* \"#utility.yul\":2246:2264   */\n      0x24\n      dup3\n      add\n        /* \"#utility.yul\":2239:2269   */\n      mstore\n        /* \"#utility.yul\":2305:2339   */\n      0x536166654d6174683a206d756c7469706c69636174696f6e206f766572666c6f\n        /* \"#utility.yul\":2285:2303   */\n      0x44\n      dup3\n      add\n        /* \"#utility.yul\":2278:2340   */\n      mstore\n      shl(0xf8, 0x77)\n        /* \"#utility.yul\":2356:2374   */\n      0x64\n      dup3\n      add\n        /* \"#utility.yul\":2349:2380   */\n      mstore\n        /* \"#utility.yul\":2397:2416   */\n      0x84\n      add\n        /* \"NewFraxProtocol/contracts/Math/SafeMath.sol\":2570:2626  require(c / a == b, \"SafeMath: multiplication overflow\") */\n    tag_68:\n      mload(0x40)\n      dup1\n      swap2\n      sub\n      swap1\n      revert\n        /* \"NewFraxProtocol/contracts/Math/SafeMath.sol\":3107:3237  function div(uint256 a, uint256 b) internal pure returns (uint256) {... */\n    tag_36:\n        /* \"NewFraxProtocol/contracts/Math/SafeMath.sol\":3165:3172  uint256 */\n      0x00\n        /* \"NewFraxProtocol/contracts/Math/SafeMath.sol\":3191:3230  div(a, b, \"SafeMath: division by zero\") */\n      tag_49\n        /* \"NewFraxProtocol/contracts/Math/SafeMath.sol\":3195:3196  a */\n      dup4\n        /* \"NewFraxProtocol/contracts/Math/SafeMath.sol\":3198:3199  b */\n      dup4\n        /* \"NewFraxProtocol/contracts/Math/SafeMath.sol\":3191:3230  div(a, b, \"SafeMath: division by zero\") */\n      mload(0x40)\n      dup1\n      0x40\n      add\n      0x40\n      mstore\n      dup1\n      0x1a\n      dup2\n      mstore\n      0x20\n      add\n      0x536166654d6174683a206469766973696f6e206279207a65726f000000000000\n      dup2\n      mstore\n      pop\n        /* \"NewFraxProtocol/contracts/Math/SafeMath.sol\":3191:3194  div */\n      tag_72\n        /* \"NewFraxProtocol/contracts/Math/SafeMath.sol\":3191:3230  div(a, b, \"SafeMath: division by zero\") */\n      jump\t// in\n        /* \"NewFraxProtocol/contracts/Math/SafeMath.sol\":1308:1442  function sub(uint256 a, uint256 b) internal pure returns (uint256) {... */\n    tag_43:\n        /* \"NewFraxProtocol/contracts/Math/SafeMath.sol\":1366:1373  uint256 */\n      0x00\n        /* \"NewFraxProtocol/contracts/Math/SafeMath.sol\":1392:1435  sub(a, b, \"SafeMath: subtraction overflow\") */\n      tag_49\n        /* \"NewFraxProtocol/contracts/Math/SafeMath.sol\":1396:1397  a */\n      dup4\n        /* \"NewFraxProtocol/contracts/Math/SafeMath.sol\":1399:1400  b */\n      dup4\n        /* \"NewFraxProtocol/contracts/Math/SafeMath.sol\":1392:1435  sub(a, b, \"SafeMath: subtraction overflow\") */\n      mload(0x40)\n      dup1\n      0x40\n      add\n      0x40\n      mstore\n      dup1\n      0x1e\n      dup2\n      mstore\n      0x20\n      add\n      0x536166654d6174683a207375627472616374696f6e206f766572666c6f770000\n      dup2\n      mstore\n      pop\n        /* \"NewFraxProtocol/contracts/Math/SafeMath.sol\":1392:1395  sub */\n      tag_75\n        /* \"NewFraxProtocol/contracts/Math/SafeMath.sol\":1392:1435  sub(a, b, \"SafeMath: subtraction overflow\") */\n      jump\t// in\n        /* \"NewFraxProtocol/contracts/Math/SafeMath.sol\":3752:4090  function div(uint256 a, uint256 b, string memory errorMessage) internal pure returns (uint256) {... */\n    tag_72:\n        /* \"NewFraxProtocol/contracts/Math/SafeMath.sol\":3838:3845  uint256 */\n      0x00\n        /* \"NewFraxProtocol/contracts/Math/SafeMath.sol\":3938:3950  errorMessage */\n      dup2\n        /* \"NewFraxProtocol/contracts/Math/SafeMath.sol\":3931:3936  b > 0 */\n      dup4\n        /* \"NewFraxProtocol/contracts/Math/SafeMath.sol\":3923:3951  require(b > 0, errorMessage) */\n      tag_77\n      jumpi\n      mload(0x40)\n      shl(0xe5, 0x461bcd)\n      dup2\n      mstore\n      0x04\n      add\n      tag_68\n      swap2\n      swap1\n      tag_79\n      jump\t// in\n    tag_77:\n      pop\n        /* \"NewFraxProtocol/contracts/Math/SafeMath.sol\":3961:3970  uint256 c */\n      0x00\n        /* \"NewFraxProtocol/contracts/Math/SafeMath.sol\":3973:3978  a / b */\n      tag_54\n        /* \"NewFraxProtocol/contracts/Math/SafeMath.sol\":3977:3978  b */\n      dup5\n        /* \"NewFraxProtocol/contracts/Math/SafeMath.sol\":3973:3974  a */\n      dup7\n        /* \"NewFraxProtocol/contracts/Math/SafeMath.sol\":3973:3978  a / b */\n      tag_66\n      jump\t// in\n        /* \"NewFraxProtocol/contracts/Math/SafeMath.sol\":1766:1953  function sub(uint256 a, uint256 b, string memory errorMessage) internal pure returns (uint256) {... */\n    tag_75:\n        /* \"NewFraxProtocol/contracts/Math/SafeMath.sol\":1852:1859  uint256 */\n      0x00\n        /* \"NewFraxProtocol/contracts/Math/SafeMath.sol\":1887:1899  errorMessage */\n      dup2\n        /* \"NewFraxProtocol/contracts/Math/SafeMath.sol\":1879:1885  b <= a */\n      dup5\n      dup5\n      gt\n      iszero\n        /* \"NewFraxProtocol/contracts/Math/SafeMath.sol\":1871:1900  require(b <= a, errorMessage) */\n      tag_82\n      jumpi\n      mload(0x40)\n      shl(0xe5, 0x461bcd)\n      dup2\n      mstore\n      0x04\n      add\n      tag_68\n      swap2\n      swap1\n      tag_79\n      jump\t// in\n    tag_82:\n      pop\n        /* \"NewFraxProtocol/contracts/Math/SafeMath.sol\":1910:1919  uint256 c */\n      0x00\n        /* \"NewFraxProtocol/contracts/Math/SafeMath.sol\":1922:1927  a - b */\n      tag_54\n        /* \"NewFraxProtocol/contracts/Math/SafeMath.sol\":1926:1927  b */\n      dup5\n        /* \"NewFraxProtocol/contracts/Math/SafeMath.sol\":1922:1923  a */\n      dup7\n        /* \"NewFraxProtocol/contracts/Math/SafeMath.sol\":1922:1927  a - b */\n      tag_85\n      jump\t// in\n        /* \"#utility.yul\":14:468   */\n    tag_9:\n        /* \"#utility.yul\":109:115   */\n      0x00\n        /* \"#utility.yul\":117:123   */\n      dup1\n        /* \"#utility.yul\":125:131   */\n      0x00\n        /* \"#utility.yul\":133:139   */\n      dup1\n        /* \"#utility.yul\":141:147   */\n      0x00\n        /* \"#utility.yul\":194:197   */\n      0xa0\n        /* \"#utility.yul\":182:191   */\n      dup7\n        /* \"#utility.yul\":173:180   */\n      dup9\n        /* \"#utility.yul\":169:192   */\n      sub\n        /* \"#utility.yul\":165:198   */\n      slt\n        /* \"#utility.yul\":162:215   */\n      iszero\n      tag_89\n      jumpi\n        /* \"#utility.yul\":211:212   */\n      0x00\n        /* \"#utility.yul\":208:209   */\n      dup1\n        /* \"#utility.yul\":201:213   */\n      revert\n        /* \"#utility.yul\":162:215   */\n    tag_89:\n      pop\n      pop\n        /* \"#utility.yul\":234:257   */\n      dup4\n      calldataload\n      swap6\n        /* \"#utility.yul\":304:306   */\n      0x20\n        /* \"#utility.yul\":289:307   */\n      dup6\n      add\n        /* \"#utility.yul\":276:308   */\n      calldataload\n      swap6\n      pop\n        /* \"#utility.yul\":355:357   */\n      0x40\n        /* \"#utility.yul\":340:358   */\n      dup6\n      add\n        /* \"#utility.yul\":327:359   */\n      calldataload\n      swap5\n        /* \"#utility.yul\":406:408   */\n      0x60\n        /* \"#utility.yul\":391:409   */\n      dup2\n      add\n        /* \"#utility.yul\":378:410   */\n      calldataload\n      swap5\n      pop\n        /* \"#utility.yul\":457:460   */\n      0x80\n        /* \"#utility.yul\":442:461   */\n      add\n        /* \"#utility.yul\":429:462   */\n      calldataload\n      swap3\n      pop\n        /* \"#utility.yul\":14:468   */\n      swap1\n      pop\n      jump\t// out\n        /* \"#utility.yul\":734:982   */\n    tag_15:\n        /* \"#utility.yul\":802:808   */\n      0x00\n        /* \"#utility.yul\":810:816   */\n      dup1\n        /* \"#utility.yul\":863:865   */\n      0x40\n        /* \"#utility.yul\":851:860   */\n      dup4\n        /* \"#utility.yul\":842:849   */\n      dup6\n        /* \"#utility.yul\":838:861   */\n      sub\n        /* \"#utility.yul\":834:866   */\n      slt\n        /* \"#utility.yul\":831:883   */\n      iszero\n      tag_92\n      jumpi\n        /* \"#utility.yul\":879:880   */\n      0x00\n        /* \"#utility.yul\":876:877   */\n      dup1\n        /* \"#utility.yul\":869:881   */\n      revert\n        /* \"#utility.yul\":831:883   */\n    tag_92:\n      pop\n      pop\n        /* \"#utility.yul\":902:925   */\n      dup1\n      calldataload\n      swap3\n        /* \"#utility.yul\":972:974   */\n      0x20\n        /* \"#utility.yul\":957:975   */\n      swap1\n      swap2\n      add\n        /* \"#utility.yul\":944:976   */\n      calldataload\n      swap2\n      pop\n        /* \"#utility.yul\":734:982   */\n      jump\t// out\n        /* \"#utility.yul\":1177:1493   */\n    tag_21:\n        /* \"#utility.yul\":1254:1260   */\n      0x00\n        /* \"#utility.yul\":1262:1268   */\n      dup1\n        /* \"#utility.yul\":1270:1276   */\n      0x00\n        /* \"#utility.yul\":1323:1325   */\n      0x60\n        /* \"#utility.yul\":1311:1320   */\n      dup5\n        /* \"#utility.yul\":1302:1309   */\n      dup7\n        /* \"#utility.yul\":1298:1321   */\n      sub\n        /* \"#utility.yul\":1294:1326   */\n      slt\n        /* \"#utility.yul\":1291:1343   */\n      iszero\n      tag_95\n      jumpi\n        /* \"#utility.yul\":1339:1340   */\n      0x00\n        /* \"#utility.yul\":1336:1337   */\n      dup1\n        /* \"#utility.yul\":1329:1341   */\n      revert\n        /* \"#utility.yul\":1291:1343   */\n    tag_95:\n      pop\n      pop\n        /* \"#utility.yul\":1362:1385   */\n      dup2\n      calldataload\n      swap4\n        /* \"#utility.yul\":1432:1434   */\n      0x20\n        /* \"#utility.yul\":1417:1435   */\n      dup4\n      add\n        /* \"#utility.yul\":1404:1436   */\n      calldataload\n      swap4\n      pop\n        /* \"#utility.yul\":1483:1485   */\n      0x40\n        /* \"#utility.yul\":1468:1486   */\n      swap1\n      swap3\n      add\n        /* \"#utility.yul\":1455:1487   */\n      calldataload\n      swap2\n        /* \"#utility.yul\":1177:1493   */\n      swap1\n      pop\n      jump\t// out\n        /* \"#utility.yul\":1498:1625   */\n    tag_86:\n        /* \"#utility.yul\":1559:1569   */\n      0x4e487b71\n        /* \"#utility.yul\":1554:1557   */\n      0xe0\n        /* \"#utility.yul\":1550:1570   */\n      shl\n        /* \"#utility.yul\":1547:1548   */\n      0x00\n        /* \"#utility.yul\":1540:1571   */\n      mstore\n        /* \"#utility.yul\":1590:1594   */\n      0x11\n        /* \"#utility.yul\":1587:1588   */\n      0x04\n        /* \"#utility.yul\":1580:1595   */\n      mstore\n        /* \"#utility.yul\":1614:1618   */\n      0x24\n        /* \"#utility.yul\":1611:1612   */\n      0x00\n        /* \"#utility.yul\":1604:1619   */\n      revert\n        /* \"#utility.yul\":1630:1798   */\n    tag_64:\n        /* \"#utility.yul\":1703:1712   */\n      dup1\n      dup3\n      mul\n        /* \"#utility.yul\":1734:1743   */\n      dup2\n      iszero\n        /* \"#utility.yul\":1751:1766   */\n      dup3\n      dup3\n      div\n        /* \"#utility.yul\":1745:1767   */\n      dup5\n      eq\n        /* \"#utility.yul\":1731:1768   */\n      or\n        /* \"#utility.yul\":1721:1792   */\n      tag_48\n      jumpi\n        /* \"#utility.yul\":1772:1790   */\n      tag_48\n      tag_86\n      jump\t// in\n        /* \"#utility.yul\":1803:2020   */\n    tag_66:\n        /* \"#utility.yul\":1843:1844   */\n      0x00\n        /* \"#utility.yul\":1869:1870   */\n      dup3\n        /* \"#utility.yul\":1859:1991   */\n      tag_101\n      jumpi\n        /* \"#utility.yul\":1913:1923   */\n      0x4e487b71\n        /* \"#utility.yul\":1908:1911   */\n      0xe0\n        /* \"#utility.yul\":1904:1924   */\n      shl\n        /* \"#utility.yul\":1901:1902   */\n      0x00\n        /* \"#utility.yul\":1894:1925   */\n      mstore\n        /* \"#utility.yul\":1948:1952   */\n      0x12\n        /* \"#utility.yul\":1945:1946   */\n      0x04\n        /* \"#utility.yul\":1938:1953   */\n      mstore\n        /* \"#utility.yul\":1976:1980   */\n      0x24\n        /* \"#utility.yul\":1973:1974   */\n      0x00\n        /* \"#utility.yul\":1966:1981   */\n      revert\n        /* \"#utility.yul\":1859:1991   */\n    tag_101:\n      pop\n        /* \"#utility.yul\":2005:2014   */\n      div\n      swap1\n        /* \"#utility.yul\":1803:2020   */\n      jump\t// out\n        /* \"#utility.yul\":2427:2975   */\n    tag_79:\n        /* \"#utility.yul\":2539:2543   */\n      0x00\n        /* \"#utility.yul\":2568:2570   */\n      0x20\n        /* \"#utility.yul\":2597:2599   */\n      dup1\n        /* \"#utility.yul\":2586:2595   */\n      dup4\n        /* \"#utility.yul\":2579:2600   */\n      mstore\n        /* \"#utility.yul\":2629:2635   */\n      dup4\n        /* \"#utility.yul\":2623:2636   */\n      mload\n        /* \"#utility.yul\":2672:2678   */\n      dup1\n        /* \"#utility.yul\":2667:2669   */\n      dup3\n        /* \"#utility.yul\":2656:2665   */\n      dup6\n        /* \"#utility.yul\":2652:2670   */\n      add\n        /* \"#utility.yul\":2645:2679   */\n      mstore\n        /* \"#utility.yul\":2697:2698   */\n      0x00\n        /* \"#utility.yul\":2707:2847   */\n    tag_104:\n        /* \"#utility.yul\":2721:2727   */\n      dup2\n        /* \"#utility.yul\":2718:2719   */\n      dup2\n        /* \"#utility.yul\":2715:2728   */\n      lt\n        /* \"#utility.yul\":2707:2847   */\n      iszero\n      tag_106\n      jumpi\n        /* \"#utility.yul\":2816:2830   */\n      dup6\n      dup2\n      add\n        /* \"#utility.yul\":2812:2835   */\n      dup4\n      add\n        /* \"#utility.yul\":2806:2836   */\n      mload\n        /* \"#utility.yul\":2782:2799   */\n      dup6\n      dup3\n      add\n        /* \"#utility.yul\":2801:2803   */\n      0x40\n        /* \"#utility.yul\":2778:2804   */\n      add\n        /* \"#utility.yul\":2771:2837   */\n      mstore\n        /* \"#utility.yul\":2736:2746   */\n      dup3\n      add\n        /* \"#utility.yul\":2707:2847   */\n      jump(tag_104)\n    tag_106:\n        /* \"#utility.yul\":2711:2714   */\n      pop\n        /* \"#utility.yul\":2896:2897   */\n      0x00\n        /* \"#utility.yul\":2891:2893   */\n      0x40\n        /* \"#utility.yul\":2882:2888   */\n      dup3\n        /* \"#utility.yul\":2871:2880   */\n      dup7\n        /* \"#utility.yul\":2867:2889   */\n      add\n        /* \"#utility.yul\":2863:2894   */\n      add\n        /* \"#utility.yul\":2856:2898   */\n      mstore\n        /* \"#utility.yul\":2966:2968   */\n      0x40\n        /* \"#utility.yul\":2959:2961   */\n      0x1f\n        /* \"#utility.yul\":2955:2962   */\n      not\n        /* \"#utility.yul\":2950:2952   */\n      0x1f\n        /* \"#utility.yul\":2942:2948   */\n      dup4\n        /* \"#utility.yul\":2938:2953   */\n      add\n        /* \"#utility.yul\":2934:2963   */\n      and\n        /* \"#utility.yul\":2923:2932   */\n      dup6\n        /* \"#utility.yul\":2919:2964   */\n      add\n        /* \"#utility.yul\":2915:2969   */\n      add\n        /* \"#utility.yul\":2907:2969   */\n      swap3\n      pop\n      pop\n      pop\n        /* \"#utility.yul\":2427:2975   */\n      swap3\n      swap2\n      pop\n      pop\n      jump\t// out\n        /* \"#utility.yul\":2980:3108   */\n    tag_85:\n        /* \"#utility.yul\":3047:3056   */\n      dup2\n      dup2\n      sub\n        /* \"#utility.yul\":3068:3079   */\n      dup2\n      dup2\n      gt\n        /* \"#utility.yul\":3065:3102   */\n      iszero\n      tag_48\n      jumpi\n        /* \"#utility.yul\":3082:3100   */\n      tag_48\n      tag_86\n      jump\t// in\n\n    auxdata: 0xa264697066735822122061a3b057e2d3e0a738eb118f2e826e5062378e881385f24f168e4bb669d6a2ca64736f6c63430008150033\n}\n",
				"bytecode": {
					"linkReferences": {},
					"object": "610471610035600b8282823980515f1a60731461002957634e487b7160e01b5f525f60045260245ffd5b305f52607381538281f3fe7300000000000000000000000000000000000000003014608060405260043610610060575f3560e01c806306058f4a146100645780630f41b452146100915780630ff24ec1146100b25780635413e192146100c5578063ce032cc1146100c5575b5f80fd5b610077610072366004610313565b6100d8565b604080519283526020830191909152015b60405180910390f35b6100a461009f36600461034a565b610162565b604051908152602001610088565b6100a46100c036600461036a565b61017d565b6100a46100d336600461034a565b6101a5565b5f80806100f2620f42406100ec8a8a6101b3565b90610236565b90505f610106866100ec89620f42406101b3565b90505f61012d620f42406100ec61011d8a866101b3565b6101278a8c6101b3565b90610277565b90505f81841161013e575082610141565b50805b6101528a6100ec83620f42406101b3565b9b909a5098505050505050505050565b5f610174836100ec84620f42406101b3565b90505b92915050565b5f80610190620f42406100ec87876101b3565b905061019c8184610277565b95945050505050565b5f610174620f42406100ec84865b5f825f036101c257505f610177565b5f6101cd83856103a7565b9050826101da85836103be565b146101745760405162461bcd60e51b815260206004820152602160248201527f536166654d6174683a206d756c7469706c69636174696f6e206f766572666c6f6044820152607760f81b60648201526084015b60405180910390fd5b5f61017483836040518060400160405280601a81526020017f536166654d6174683a206469766973696f6e206279207a65726f0000000000008152506102b8565b5f61017483836040518060400160405280601e81526020017f536166654d6174683a207375627472616374696f6e206f766572666c6f7700008152506102e4565b5f81836102d85760405162461bcd60e51b815260040161022d91906103dd565b505f61019c84866103be565b5f81848411156103075760405162461bcd60e51b815260040161022d91906103dd565b505f61019c8486610428565b5f805f805f60a08688031215610327575f80fd5b505083359560208501359550604085013594606081013594506080013592509050565b5f806040838503121561035b575f80fd5b50508035926020909101359150565b5f805f6060848603121561037c575f80fd5b505081359360208301359350604090920135919050565b634e487b7160e01b5f52601160045260245ffd5b808202811582820484141761017757610177610393565b5f826103d857634e487b7160e01b5f52601260045260245ffd5b500490565b5f6020808352835180828501525f5b81811015610408578581018301518582016040015282016103ec565b505f604082860101526040601f19601f8301168501019250505092915050565b818103818111156101775761017761039356fea264697066735822122061a3b057e2d3e0a738eb118f2e826e5062378e881385f24f168e4bb669d6a2ca64736f6c63430008150033",
					"opcodes": "PUSH2 0x471 PUSH2 0x35 PUSH1 0xB DUP3 DUP3 DUP3 CODECOPY DUP1 MLOAD PUSH0 BYTE PUSH1 0x73 EQ PUSH2 0x29 JUMPI PUSH4 0x4E487B71 PUSH1 0xE0 SHL PUSH0 MSTORE PUSH0 PUSH1 0x4 MSTORE PUSH1 0x24 PUSH0 REVERT JUMPDEST ADDRESS PUSH0 MSTORE PUSH1 0x73 DUP2 MSTORE8 DUP3 DUP2 RETURN INVALID PUSH20 0x0 ADDRESS EQ PUSH1 0x80 PUSH1 0x40 MSTORE PUSH1 0x4 CALLDATASIZE LT PUSH2 0x60 JUMPI PUSH0 CALLDATALOAD PUSH1 0xE0 SHR DUP1 PUSH4 0x6058F4A EQ PUSH2 0x64 JUMPI DUP1 PUSH4 0xF41B452 EQ PUSH2 0x91 JUMPI DUP1 PUSH4 0xFF24EC1 EQ PUSH2 0xB2 JUMPI DUP1 PUSH4 0x5413E192 EQ PUSH2 0xC5 JUMPI DUP1 PUSH4 0xCE032CC1 EQ PUSH2 0xC5 JUMPI JUMPDEST PUSH0 DUP1 REVERT JUMPDEST PUSH2 0x77 PUSH2 0x72 CALLDATASIZE PUSH1 0x4 PUSH2 0x313 JUMP JUMPDEST PUSH2 0xD8 JUMP JUMPDEST PUSH1 0x40 DUP1 MLOAD SWAP3 DUP4 MSTORE PUSH1 0x20 DUP4 ADD SWAP2 SWAP1 SWAP2 MSTORE ADD JUMPDEST PUSH1 0x40 MLOAD DUP1 SWAP2 SUB SWAP1 RETURN JUMPDEST PUSH2 0xA4 PUSH2 0x9F CALLDATASIZE PUSH1 0x4 PUSH2 0x34A JUMP JUMPDEST PUSH2 0x162 JUMP JUMPDEST PUSH1 0x40 MLOAD SWAP1 DUP2 MSTORE PUSH1 0x20 ADD PUSH2 0x88 JUMP JUMPDEST PUSH2 0xA4 PUSH2 0xC0 CALLDATASIZE PUSH1 0x4 PUSH2 0x36A JUMP JUMPDEST PUSH2 0x17D JUMP JUMPDEST PUSH2 0xA4 PUSH2 0xD3 CALLDATASIZE PUSH1 0x4 PUSH2 0x34A JUMP JUMPDEST PUSH2 0x1A5 JUMP JUMPDEST PUSH0 DUP1 DUP1 PUSH2 0xF2 PUSH3 0xF4240 PUSH2 0xEC DUP11 DUP11 PUSH2 0x1B3 JUMP JUMPDEST SWAP1 PUSH2 0x236 JUMP JUMPDEST SWAP1 POP PUSH0 PUSH2 0x106 DUP7 PUSH2 0xEC DUP10 PUSH3 0xF4240 PUSH2 0x1B3 JUMP JUMPDEST SWAP1 POP PUSH0 PUSH2 0x12D PUSH3 0xF4240 PUSH2 0xEC PUSH2 0x11D DUP11 DUP7 PUSH2 0x1B3 JUMP JUMPDEST PUSH2 0x127 DUP11 DUP13 PUSH2 0x1B3 JUMP JUMPDEST SWAP1 PUSH2 0x277 JUMP JUMPDEST SWAP1 POP PUSH0 DUP2 DUP5 GT PUSH2 0x13E JUMPI POP DUP3 PUSH2 0x141 JUMP JUMPDEST POP DUP1 JUMPDEST PUSH2 0x152 DUP11 PUSH2 0xEC DUP4 PUSH3 0xF4240 PUSH2 0x1B3 JUMP JUMPDEST SWAP12 SWAP1 SWAP11 POP SWAP9 POP POP POP POP POP POP POP POP POP JUMP JUMPDEST PUSH0 PUSH2 0x174 DUP4 PUSH2 0xEC DUP5 PUSH3 0xF4240 PUSH2 0x1B3 JUMP JUMPDEST SWAP1 POP JUMPDEST SWAP3 SWAP2 POP POP JUMP JUMPDEST PUSH0 DUP1 PUSH2 0x190 PUSH3 0xF4240 PUSH2 0xEC DUP8 DUP8 PUSH2 0x1B3 JUMP JUMPDEST SWAP1 POP PUSH2 0x19C DUP2 DUP5 PUSH2 0x277 JUMP JUMPDEST SWAP6 SWAP5 POP POP POP POP POP JUMP JUMPDEST PUSH0 PUSH2 0x174 PUSH3 0xF4240 PUSH2 0xEC DUP5 DUP7 JUMPDEST PUSH0 DUP3 PUSH0 SUB PUSH2 0x1C2 JUMPI POP PUSH0 PUSH2 0x177 JUMP JUMPDEST PUSH0 PUSH2 0x1CD DUP4 DUP6 PUSH2 0x3A7 JUMP JUMPDEST SWAP1 POP DUP3 PUSH2 0x1DA DUP6 DUP4 PUSH2 0x3BE JUMP JUMPDEST EQ PUSH2 0x174 JUMPI PUSH1 0x40 MLOAD PUSH3 0x461BCD PUSH1 0xE5 SHL DUP2 MSTORE PUSH1 0x20 PUSH1 0x4 DUP3 ADD MSTORE PUSH1 0x21 PUSH1 0x24 DUP3 ADD MSTORE PUSH32 0x536166654D6174683A206D756C7469706C69636174696F6E206F766572666C6F PUSH1 0x44 DUP3 ADD MSTORE PUSH1 0x77 PUSH1 0xF8 SHL PUSH1 0x64 DUP3 ADD MSTORE PUSH1 0x84 ADD JUMPDEST PUSH1 0x40 MLOAD DUP1 SWAP2 SUB SWAP1 REVERT JUMPDEST PUSH0 PUSH2 0x174 DUP4 DUP4 PUSH1 0x40 MLOAD DUP1 PUSH1 0x40 ADD PUSH1 0x40 MSTORE DUP1 PUSH1 0x1A DUP2 MSTORE PUSH1 0x20 ADD PUSH32 0x536166654D6174683A206469766973696F6E206279207A65726F000000000000 DUP2 MSTORE POP PUSH2 0x2B8 JUMP JUMPDEST PUSH0 PUSH2 0x174 DUP4 DUP4 PUSH1 0x40 MLOAD DUP1 PUSH1 0x40 ADD PUSH1 0x40 MSTORE DUP1 PUSH1 0x1E DUP2 MSTORE PUSH1 0x20 ADD PUSH32 0x536166654D6174683A207375627472616374696F6E206F766572666C6F770000 DUP2 MSTORE POP PUSH2 0x2E4 JUMP JUMPDEST PUSH0 DUP2 DUP4 PUSH2 0x2D8 JUMPI PUSH1 0x40 MLOAD PUSH3 0x461BCD PUSH1 0xE5 SHL DUP2 MSTORE PUSH1 0x4 ADD PUSH2 0x22D SWAP2 SWAP1 PUSH2 0x3DD JUMP JUMPDEST POP PUSH0 PUSH2 0x19C DUP5 DUP7 PUSH2 0x3BE JUMP JUMPDEST PUSH0 DUP2 DUP5 DUP5 GT ISZERO PUSH2 0x307 JUMPI PUSH1 0x40 MLOAD PUSH3 0x461BCD PUSH1 0xE5 SHL DUP2 MSTORE PUSH1 0x4 ADD PUSH2 0x22D SWAP2 SWAP1 PUSH2 0x3DD JUMP JUMPDEST POP PUSH0 PUSH2 0x19C DUP5 DUP7 PUSH2 0x428 JUMP JUMPDEST PUSH0 DUP1 PUSH0 DUP1 PUSH0 PUSH1 0xA0 DUP7 DUP9 SUB SLT ISZERO PUSH2 0x327 JUMPI PUSH0 DUP1 REVERT JUMPDEST POP POP DUP4 CALLDATALOAD SWAP6 PUSH1 0x20 DUP6 ADD CALLDATALOAD SWAP6 POP PUSH1 0x40 DUP6 ADD CALLDATALOAD SWAP5 PUSH1 0x60 DUP2 ADD CALLDATALOAD SWAP5 POP PUSH1 0x80 ADD CALLDATALOAD SWAP3 POP SWAP1 POP JUMP JUMPDEST PUSH0 DUP1 PUSH1 0x40 DUP4 DUP6 SUB SLT ISZERO PUSH2 0x35B JUMPI PUSH0 DUP1 REVERT JUMPDEST POP POP DUP1 CALLDATALOAD SWAP3 PUSH1 0x20 SWAP1 SWAP2 ADD CALLDATALOAD SWAP2 POP JUMP JUMPDEST PUSH0 DUP1 PUSH0 PUSH1 0x60 DUP5 DUP7 SUB SLT ISZERO PUSH2 0x37C JUMPI PUSH0 DUP1 REVERT JUMPDEST POP POP DUP2 CALLDATALOAD SWAP4 PUSH1 0x20 DUP4 ADD CALLDATALOAD SWAP4 POP PUSH1 0x40 SWAP1 SWAP3 ADD CALLDATALOAD SWAP2 SWAP1 POP JUMP JUMPDEST PUSH4 0x4E487B71 PUSH1 0xE0 SHL PUSH0 MSTORE PUSH1 0x11 PUSH1 0x4 MSTORE PUSH1 0x24 PUSH0 REVERT JUMPDEST DUP1 DUP3 MUL DUP2 ISZERO DUP3 DUP3 DIV DUP5 EQ OR PUSH2 0x177 JUMPI PUSH2 0x177 PUSH2 0x393 JUMP JUMPDEST PUSH0 DUP3 PUSH2 0x3D8 JUMPI PUSH4 0x4E487B71 PUSH1 0xE0 SHL PUSH0 MSTORE PUSH1 0x12 PUSH1 0x4 MSTORE PUSH1 0x24 PUSH0 REVERT JUMPDEST POP DIV SWAP1 JUMP JUMPDEST PUSH0 PUSH1 0x20 DUP1 DUP4 MSTORE DUP4 MLOAD DUP1 DUP3 DUP6 ADD MSTORE PUSH0 JUMPDEST DUP2 DUP2 LT ISZERO PUSH2 0x408 JUMPI DUP6 DUP2 ADD DUP4 ADD MLOAD DUP6 DUP3 ADD PUSH1 0x40 ADD MSTORE DUP3 ADD PUSH2 0x3EC JUMP JUMPDEST POP PUSH0 PUSH1 0x40 DUP3 DUP7 ADD ADD MSTORE PUSH1 0x40 PUSH1 0x1F NOT PUSH1 0x1F DUP4 ADD AND DUP6 ADD ADD SWAP3 POP POP POP SWAP3 SWAP2 POP POP JUMP JUMPDEST DUP2 DUP2 SUB DUP2 DUP2 GT ISZERO PUSH2 0x177 JUMPI PUSH2 0x177 PUSH2 0x393 JUMP INVALID LOG2 PUSH5 0x6970667358 0x22 SLT KECCAK256 PUSH2 0xA3B0 JUMPI 0xE2 0xD3 0xE0 0xA7 CODESIZE 0xEB GT DUP16 0x2E DUP3 PUSH15 0x5062378E881385F24F168E4BB669D6 LOG2 0xCA PUSH5 0x736F6C6343 STOP ADDMOD ISZERO STOP CALLER "
				},
				"gasEstimates": {
					"creation": {
						"codeDepositCost": "227400",
						"executionCost": "296",
						"totalCost": "227696"
					},
					"external": {
						"calcMint1t1FRAX(uint256,uint256)": "infinite",
						"calcMintAlgorithmicFRAX(uint256,uint256)": "infinite",
						"calcRecollateralizeFRAXInner(uint256,uint256,uint256,uint256,uint256)": "infinite",
						"calcRedeem1t1FRAX(uint256,uint256)": "infinite",
						"recollateralizeAmount(uint256,uint256,uint256)": "infinite"
					},
					"internal": {
						"calcBuyBackFXS(struct FraxPoolLibrary.BuybackFXS_Params memory)": "infinite",
						"calcMintFractionalFRAX(struct FraxPoolLibrary.MintFF_Params memory)": "infinite"
					}
				},
				"methodIdentifiers": {
					"calcMint1t1FRAX(uint256,uint256)": "5413e192",
					"calcMintAlgorithmicFRAX(uint256,uint256)": "ce032cc1",
					"calcRecollateralizeFRAXInner(uint256,uint256,uint256,uint256,uint256)": "06058f4a",
					"calcRedeem1t1FRAX(uint256,uint256)": "0f41b452",
					"recollateralizeAmount(uint256,uint256,uint256)": "0ff24ec1"
				}
			},
			"storageLayout": {
				"storage": [],
				"types": null
			},
			"userdoc": {
				"kind": "user",
				"methods": {},
				"version": 1
			}
		}
	}
}