{
	"Heliocontracts/contracts/ceros/mocks/Pool.sol": {
		"Pool": {
			"abi": [
				{
					"inputs": [
						{
							"internalType": "address",
							"name": "_certToken",
							"type": "address"
						}
					],
					"stateMutability": "nonpayable",
					"type": "constructor"
				},
				{
					"inputs": [],
					"name": "certToken",
					"outputs": [
						{
							"internalType": "contract ICertToken",
							"name": "",
							"type": "address"
						}
					],
					"stateMutability": "view",
					"type": "function"
				},
				{
					"inputs": [],
					"name": "getMinUnstake",
					"outputs": [
						{
							"internalType": "uint256",
							"name": "",
							"type": "uint256"
						}
					],
					"stateMutability": "view",
					"type": "function"
				},
				{
					"inputs": [],
					"name": "getMinimumStake",
					"outputs": [
						{
							"internalType": "uint256",
							"name": "",
							"type": "uint256"
						}
					],
					"stateMutability": "view",
					"type": "function"
				},
				{
					"inputs": [],
					"name": "getRelayerFee",
					"outputs": [
						{
							"internalType": "uint256",
							"name": "",
							"type": "uint256"
						}
					],
					"stateMutability": "view",
					"type": "function"
				},
				{
					"inputs": [
						{
							"internalType": "address",
							"name": "claimer",
							"type": "address"
						}
					],
					"name": "pendingUnstakesOf",
					"outputs": [
						{
							"internalType": "uint256",
							"name": "",
							"type": "uint256"
						}
					],
					"stateMutability": "view",
					"type": "function"
				},
				{
					"inputs": [
						{
							"internalType": "uint256",
							"name": "_minimumStake",
							"type": "uint256"
						}
					],
					"name": "setMinimumStake",
					"outputs": [],
					"stateMutability": "nonpayable",
					"type": "function"
				},
				{
					"inputs": [
						{
							"internalType": "uint256",
							"name": "_relayerFee",
							"type": "uint256"
						}
					],
					"name": "setRelayerFee",
					"outputs": [],
					"stateMutability": "nonpayable",
					"type": "function"
				},
				{
					"inputs": [],
					"name": "stakeAndClaimCerts",
					"outputs": [],
					"stateMutability": "payable",
					"type": "function"
				},
				{
					"inputs": [
						{
							"internalType": "address",
							"name": "recipient",
							"type": "address"
						},
						{
							"internalType": "uint256",
							"name": "shares",
							"type": "uint256"
						}
					],
					"name": "unstakeCertsFor",
					"outputs": [],
					"stateMutability": "nonpayable",
					"type": "function"
				},
				{
					"stateMutability": "payable",
					"type": "receive"
				}
			],
			"devdoc": {
				"kind": "dev",
				"methods": {},
				"version": 1
			},
			"evm": {
				"assembly": "    /* \"Heliocontracts/contracts/ceros/mocks/Pool.sol\":180:1744  contract Pool is IBinancePool {... */\n  mstore(0x40, 0x80)\n    /* \"Heliocontracts/contracts/ceros/mocks/Pool.sol\":312:389  constructor(address _certToken) {... */\n  callvalue\n  dup1\n  iszero\n  tag_1\n  jumpi\n  0x00\n  dup1\n  revert\ntag_1:\n  pop\n  mload(0x40)\n  sub(codesize, bytecodeSize)\n  dup1\n  bytecodeSize\n  dup4\n  codecopy\n  dup2\n  dup2\n  add\n  0x40\n  mstore\n  dup2\n  add\n  swap1\n  tag_2\n  swap2\n  swap1\n  tag_3\n  jump\t// in\ntag_2:\n    /* \"Heliocontracts/contracts/ceros/mocks/Pool.sol\":373:383  _certToken */\n  dup1\n    /* \"Heliocontracts/contracts/ceros/mocks/Pool.sol\":350:359  certToken */\n  0x00\n  dup1\n    /* \"Heliocontracts/contracts/ceros/mocks/Pool.sol\":350:384  certToken = ICertToken(_certToken) */\n  0x0100\n  exp\n  dup2\n  sload\n  dup2\n  0xffffffffffffffffffffffffffffffffffffffff\n  mul\n  not\n  and\n  swap1\n  dup4\n  0xffffffffffffffffffffffffffffffffffffffff\n  and\n  mul\n  or\n  swap1\n  sstore\n  pop\n    /* \"Heliocontracts/contracts/ceros/mocks/Pool.sol\":312:389  constructor(address _certToken) {... */\n  pop\n    /* \"Heliocontracts/contracts/ceros/mocks/Pool.sol\":180:1744  contract Pool is IBinancePool {... */\n  jump(tag_6)\n    /* \"#utility.yul\":88:205   */\ntag_8:\n    /* \"#utility.yul\":197:198   */\n  0x00\n    /* \"#utility.yul\":194:195   */\n  dup1\n    /* \"#utility.yul\":187:199   */\n  revert\n    /* \"#utility.yul\":334:460   */\ntag_10:\n    /* \"#utility.yul\":371:378   */\n  0x00\n    /* \"#utility.yul\":411:453   */\n  0xffffffffffffffffffffffffffffffffffffffff\n    /* \"#utility.yul\":404:409   */\n  dup3\n    /* \"#utility.yul\":400:454   */\n  and\n    /* \"#utility.yul\":389:454   */\n  swap1\n  pop\n    /* \"#utility.yul\":334:460   */\n  swap2\n  swap1\n  pop\n  jump\t// out\n    /* \"#utility.yul\":466:562   */\ntag_11:\n    /* \"#utility.yul\":503:510   */\n  0x00\n    /* \"#utility.yul\":532:556   */\n  tag_20\n    /* \"#utility.yul\":550:555   */\n  dup3\n    /* \"#utility.yul\":532:556   */\n  tag_10\n  jump\t// in\ntag_20:\n    /* \"#utility.yul\":521:556   */\n  swap1\n  pop\n    /* \"#utility.yul\":466:562   */\n  swap2\n  swap1\n  pop\n  jump\t// out\n    /* \"#utility.yul\":568:690   */\ntag_12:\n    /* \"#utility.yul\":641:665   */\n  tag_22\n    /* \"#utility.yul\":659:664   */\n  dup2\n    /* \"#utility.yul\":641:665   */\n  tag_11\n  jump\t// in\ntag_22:\n    /* \"#utility.yul\":634:639   */\n  dup2\n    /* \"#utility.yul\":631:666   */\n  eq\n    /* \"#utility.yul\":621:684   */\n  tag_23\n  jumpi\n    /* \"#utility.yul\":680:681   */\n  0x00\n    /* \"#utility.yul\":677:678   */\n  dup1\n    /* \"#utility.yul\":670:682   */\n  revert\n    /* \"#utility.yul\":621:684   */\ntag_23:\n    /* \"#utility.yul\":568:690   */\n  pop\n  jump\t// out\n    /* \"#utility.yul\":696:839   */\ntag_13:\n    /* \"#utility.yul\":753:758   */\n  0x00\n    /* \"#utility.yul\":784:790   */\n  dup2\n    /* \"#utility.yul\":778:791   */\n  mload\n    /* \"#utility.yul\":769:791   */\n  swap1\n  pop\n    /* \"#utility.yul\":800:833   */\n  tag_25\n    /* \"#utility.yul\":827:832   */\n  dup2\n    /* \"#utility.yul\":800:833   */\n  tag_12\n  jump\t// in\ntag_25:\n    /* \"#utility.yul\":696:839   */\n  swap3\n  swap2\n  pop\n  pop\n  jump\t// out\n    /* \"#utility.yul\":845:1196   */\ntag_3:\n    /* \"#utility.yul\":915:921   */\n  0x00\n    /* \"#utility.yul\":964:966   */\n  0x20\n    /* \"#utility.yul\":952:961   */\n  dup3\n    /* \"#utility.yul\":943:950   */\n  dup5\n    /* \"#utility.yul\":939:962   */\n  sub\n    /* \"#utility.yul\":935:967   */\n  slt\n    /* \"#utility.yul\":932:1051   */\n  iszero\n  tag_27\n  jumpi\n    /* \"#utility.yul\":970:1049   */\n  tag_28\n  tag_8\n  jump\t// in\ntag_28:\n    /* \"#utility.yul\":932:1051   */\ntag_27:\n    /* \"#utility.yul\":1090:1091   */\n  0x00\n    /* \"#utility.yul\":1115:1179   */\n  tag_29\n    /* \"#utility.yul\":1171:1178   */\n  dup5\n    /* \"#utility.yul\":1162:1168   */\n  dup3\n    /* \"#utility.yul\":1151:1160   */\n  dup6\n    /* \"#utility.yul\":1147:1169   */\n  add\n    /* \"#utility.yul\":1115:1179   */\n  tag_13\n  jump\t// in\ntag_29:\n    /* \"#utility.yul\":1105:1179   */\n  swap2\n  pop\n    /* \"#utility.yul\":1061:1189   */\n  pop\n    /* \"#utility.yul\":845:1196   */\n  swap3\n  swap2\n  pop\n  pop\n  jump\t// out\n    /* \"Heliocontracts/contracts/ceros/mocks/Pool.sol\":180:1744  contract Pool is IBinancePool {... */\ntag_6:\n  dataSize(sub_0)\n  dup1\n  dataOffset(sub_0)\n  0x00\n  codecopy\n  0x00\n  return\nstop\n\nsub_0: assembly {\n        /* \"Heliocontracts/contracts/ceros/mocks/Pool.sol\":180:1744  contract Pool is IBinancePool {... */\n      mstore(0x40, 0x80)\n      jumpi(tag_1, lt(calldatasize, 0x04))\n      shr(0xe0, calldataload(0x00))\n      dup1\n      0x81782dff\n      gt\n      tag_12\n      jumpi\n      dup1\n      0x81782dff\n      eq\n      tag_7\n      jumpi\n      dup1\n      0x83302a6f\n      eq\n      tag_8\n      jumpi\n      dup1\n      0xc2117d82\n      eq\n      tag_9\n      jumpi\n      dup1\n      0xd9bbd278\n      eq\n      tag_10\n      jumpi\n      dup1\n      0xff0a42de\n      eq\n      tag_11\n      jumpi\n      jump(tag_2)\n    tag_12:\n      dup1\n      0x034c4454\n      eq\n      tag_3\n      jumpi\n      dup1\n      0x0872e9ff\n      eq\n      tag_4\n      jumpi\n      dup1\n      0x233e9903\n      eq\n      tag_5\n      jumpi\n      dup1\n      0x3f9dac52\n      eq\n      tag_6\n      jumpi\n      jump(tag_2)\n    tag_1:\n      jumpi(tag_2, calldatasize)\n      stop\n    tag_2:\n      0x00\n      dup1\n      revert\n        /* \"Heliocontracts/contracts/ceros/mocks/Pool.sol\":986:1073  function getMinUnstake() external view returns (uint256){... */\n    tag_3:\n      callvalue\n      dup1\n      iszero\n      tag_15\n      jumpi\n      0x00\n      dup1\n      revert\n    tag_15:\n      pop\n      tag_16\n      tag_17\n      jump\t// in\n    tag_16:\n      mload(0x40)\n      tag_18\n      swap2\n      swap1\n      tag_19\n      jump\t// in\n    tag_18:\n      mload(0x40)\n      dup1\n      swap2\n      sub\n      swap1\n      return\n        /* \"Heliocontracts/contracts/ceros/mocks/Pool.sol\":214:241  ICertToken public certToken */\n    tag_4:\n      callvalue\n      dup1\n      iszero\n      tag_20\n      jumpi\n      0x00\n      dup1\n      revert\n    tag_20:\n      pop\n      tag_21\n      tag_22\n      jump\t// in\n    tag_21:\n      mload(0x40)\n      tag_23\n      swap2\n      swap1\n      tag_24\n      jump\t// in\n    tag_23:\n      mload(0x40)\n      dup1\n      swap2\n      sub\n      swap1\n      return\n        /* \"Heliocontracts/contracts/ceros/mocks/Pool.sol\":1249:1346  function setMinimumStake(uint256 _minimumStake) external {... */\n    tag_5:\n      callvalue\n      dup1\n      iszero\n      tag_25\n      jumpi\n      0x00\n      dup1\n      revert\n    tag_25:\n      pop\n      tag_26\n      0x04\n      dup1\n      calldatasize\n      sub\n      dup2\n      add\n      swap1\n      tag_27\n      swap2\n      swap1\n      tag_28\n      jump\t// in\n    tag_27:\n      tag_29\n      jump\t// in\n    tag_26:\n      stop\n        /* \"Heliocontracts/contracts/ceros/mocks/Pool.sol\":1167:1245  function pendingUnstakesOf(address claimer) external view returns (uint256) {} */\n    tag_6:\n      callvalue\n      dup1\n      iszero\n      tag_30\n      jumpi\n      0x00\n      dup1\n      revert\n    tag_30:\n      pop\n      tag_31\n      0x04\n      dup1\n      calldatasize\n      sub\n      dup2\n      add\n      swap1\n      tag_32\n      swap2\n      swap1\n      tag_33\n      jump\t// in\n    tag_32:\n      tag_34\n      jump\t// in\n    tag_31:\n      mload(0x40)\n      tag_35\n      swap2\n      swap1\n      tag_19\n      jump\t// in\n    tag_35:\n      mload(0x40)\n      dup1\n      swap2\n      sub\n      swap1\n      return\n        /* \"Heliocontracts/contracts/ceros/mocks/Pool.sol\":711:889  function unstakeCertsFor(address recipient, uint256 shares) external {... */\n    tag_7:\n      callvalue\n      dup1\n      iszero\n      tag_36\n      jumpi\n      0x00\n      dup1\n      revert\n    tag_36:\n      pop\n      tag_37\n      0x04\n      dup1\n      calldatasize\n      sub\n      dup2\n      add\n      swap1\n      tag_38\n      swap2\n      swap1\n      tag_39\n      jump\t// in\n    tag_38:\n      tag_40\n      jump\t// in\n    tag_37:\n      stop\n        /* \"Heliocontracts/contracts/ceros/mocks/Pool.sol\":1350:1439  function setRelayerFee(uint256 _relayerFee) external {... */\n    tag_8:\n      callvalue\n      dup1\n      iszero\n      tag_41\n      jumpi\n      0x00\n      dup1\n      revert\n    tag_41:\n      pop\n      tag_42\n      0x04\n      dup1\n      calldatasize\n      sub\n      dup2\n      add\n      swap1\n      tag_43\n      swap2\n      swap1\n      tag_28\n      jump\t// in\n    tag_43:\n      tag_44\n      jump\t// in\n    tag_42:\n      stop\n        /* \"Heliocontracts/contracts/ceros/mocks/Pool.sol\":1077:1163  function getRelayerFee() external view returns (uint256) {... */\n    tag_9:\n      callvalue\n      dup1\n      iszero\n      tag_45\n      jumpi\n      0x00\n      dup1\n      revert\n    tag_45:\n      pop\n      tag_46\n      tag_47\n      jump\t// in\n    tag_46:\n      mload(0x40)\n      tag_48\n      swap2\n      swap1\n      tag_19\n      jump\t// in\n    tag_48:\n      mload(0x40)\n      dup1\n      swap2\n      sub\n      swap1\n      return\n        /* \"Heliocontracts/contracts/ceros/mocks/Pool.sol\":893:983  function getMinimumStake() external view returns (uint256) {... */\n    tag_10:\n      callvalue\n      dup1\n      iszero\n      tag_49\n      jumpi\n      0x00\n      dup1\n      revert\n    tag_49:\n      pop\n      tag_50\n      tag_51\n      jump\t// in\n    tag_50:\n      mload(0x40)\n      tag_52\n      swap2\n      swap1\n      tag_19\n      jump\t// in\n    tag_52:\n      mload(0x40)\n      dup1\n      swap2\n      sub\n      swap1\n      return\n        /* \"Heliocontracts/contracts/ceros/mocks/Pool.sol\":393:707  function stakeAndClaimCerts() external payable {... */\n    tag_11:\n      tag_53\n      tag_54\n      jump\t// in\n    tag_53:\n      stop\n        /* \"Heliocontracts/contracts/ceros/mocks/Pool.sol\":986:1073  function getMinUnstake() external view returns (uint256){... */\n    tag_17:\n        /* \"Heliocontracts/contracts/ceros/mocks/Pool.sol\":1034:1041  uint256 */\n      0x00\n        /* \"Heliocontracts/contracts/ceros/mocks/Pool.sol\":1055:1068  minimumStake_ */\n      sload(0x01)\n        /* \"Heliocontracts/contracts/ceros/mocks/Pool.sol\":1048:1068  return minimumStake_ */\n      swap1\n      pop\n        /* \"Heliocontracts/contracts/ceros/mocks/Pool.sol\":986:1073  function getMinUnstake() external view returns (uint256){... */\n      swap1\n      jump\t// out\n        /* \"Heliocontracts/contracts/ceros/mocks/Pool.sol\":214:241  ICertToken public certToken */\n    tag_22:\n      0x00\n      dup1\n      sload\n      swap1\n      0x0100\n      exp\n      swap1\n      div\n      0xffffffffffffffffffffffffffffffffffffffff\n      and\n      dup2\n      jump\t// out\n        /* \"Heliocontracts/contracts/ceros/mocks/Pool.sol\":1249:1346  function setMinimumStake(uint256 _minimumStake) external {... */\n    tag_29:\n        /* \"Heliocontracts/contracts/ceros/mocks/Pool.sol\":1328:1341  _minimumStake */\n      dup1\n        /* \"Heliocontracts/contracts/ceros/mocks/Pool.sol\":1312:1325  minimumStake_ */\n      0x01\n        /* \"Heliocontracts/contracts/ceros/mocks/Pool.sol\":1312:1341  minimumStake_ = _minimumStake */\n      dup2\n      swap1\n      sstore\n      pop\n        /* \"Heliocontracts/contracts/ceros/mocks/Pool.sol\":1249:1346  function setMinimumStake(uint256 _minimumStake) external {... */\n      pop\n      jump\t// out\n        /* \"Heliocontracts/contracts/ceros/mocks/Pool.sol\":1167:1245  function pendingUnstakesOf(address claimer) external view returns (uint256) {} */\n    tag_34:\n        /* \"Heliocontracts/contracts/ceros/mocks/Pool.sol\":1234:1241  uint256 */\n      0x00\n        /* \"Heliocontracts/contracts/ceros/mocks/Pool.sol\":1167:1245  function pendingUnstakesOf(address claimer) external view returns (uint256) {} */\n      swap2\n      swap1\n      pop\n      jump\t// out\n        /* \"Heliocontracts/contracts/ceros/mocks/Pool.sol\":711:889  function unstakeCertsFor(address recipient, uint256 shares) external {... */\n    tag_40:\n        /* \"Heliocontracts/contracts/ceros/mocks/Pool.sol\":786:795  certToken */\n      0x00\n      dup1\n      sload\n      swap1\n      0x0100\n      exp\n      swap1\n      div\n      0xffffffffffffffffffffffffffffffffffffffff\n      and\n        /* \"Heliocontracts/contracts/ceros/mocks/Pool.sol\":786:800  certToken.burn */\n      0xffffffffffffffffffffffffffffffffffffffff\n      and\n      0x9dc29fac\n        /* \"Heliocontracts/contracts/ceros/mocks/Pool.sol\":801:811  msg.sender */\n      caller\n        /* \"Heliocontracts/contracts/ceros/mocks/Pool.sol\":813:819  shares */\n      dup4\n        /* \"Heliocontracts/contracts/ceros/mocks/Pool.sol\":786:820  certToken.burn(msg.sender, shares) */\n      mload(0x40)\n      dup4\n      0xffffffff\n      and\n      0xe0\n      shl\n      dup2\n      mstore\n      0x04\n      add\n      tag_59\n      swap3\n      swap2\n      swap1\n      tag_60\n      jump\t// in\n    tag_59:\n      0x00\n      mload(0x40)\n      dup1\n      dup4\n      sub\n      dup2\n      0x00\n      dup8\n      dup1\n      extcodesize\n      iszero\n      dup1\n      iszero\n      tag_61\n      jumpi\n      0x00\n      dup1\n      revert\n    tag_61:\n      pop\n      gas\n      call\n      iszero\n      dup1\n      iszero\n      tag_63\n      jumpi\n      returndatasize\n      0x00\n      dup1\n      returndatacopy\n      revert(0x00, returndatasize)\n    tag_63:\n      pop\n      pop\n      pop\n      pop\n        /* \"Heliocontracts/contracts/ceros/mocks/Pool.sol\":826:884  _sendValue(recipient, (shares * 1e18) / certToken.ratio()) */\n      tag_64\n        /* \"Heliocontracts/contracts/ceros/mocks/Pool.sol\":837:846  recipient */\n      dup3\n        /* \"Heliocontracts/contracts/ceros/mocks/Pool.sol\":866:875  certToken */\n      0x00\n      dup1\n      sload\n      swap1\n      0x0100\n      exp\n      swap1\n      div\n      0xffffffffffffffffffffffffffffffffffffffff\n      and\n        /* \"Heliocontracts/contracts/ceros/mocks/Pool.sol\":866:881  certToken.ratio */\n      0xffffffffffffffffffffffffffffffffffffffff\n      and\n      0x71ca337d\n        /* \"Heliocontracts/contracts/ceros/mocks/Pool.sol\":866:883  certToken.ratio() */\n      mload(0x40)\n      dup2\n      0xffffffff\n      and\n      0xe0\n      shl\n      dup2\n      mstore\n      0x04\n      add\n      0x20\n      mload(0x40)\n      dup1\n      dup4\n      sub\n      dup2\n      dup7\n      gas\n      staticcall\n      iszero\n      dup1\n      iszero\n      tag_66\n      jumpi\n      returndatasize\n      0x00\n      dup1\n      returndatacopy\n      revert(0x00, returndatasize)\n    tag_66:\n      pop\n      pop\n      pop\n      pop\n      mload(0x40)\n      returndatasize\n      not(0x1f)\n      0x1f\n      dup3\n      add\n      and\n      dup3\n      add\n      dup1\n      0x40\n      mstore\n      pop\n      dup2\n      add\n      swap1\n      tag_67\n      swap2\n      swap1\n      tag_68\n      jump\t// in\n    tag_67:\n        /* \"Heliocontracts/contracts/ceros/mocks/Pool.sol\":858:862  1e18 */\n      0x0de0b6b3a7640000\n        /* \"Heliocontracts/contracts/ceros/mocks/Pool.sol\":849:855  shares */\n      dup5\n        /* \"Heliocontracts/contracts/ceros/mocks/Pool.sol\":849:862  shares * 1e18 */\n      tag_69\n      swap2\n      swap1\n      tag_70\n      jump\t// in\n    tag_69:\n        /* \"Heliocontracts/contracts/ceros/mocks/Pool.sol\":848:883  (shares * 1e18) / certToken.ratio() */\n      tag_71\n      swap2\n      swap1\n      tag_72\n      jump\t// in\n    tag_71:\n        /* \"Heliocontracts/contracts/ceros/mocks/Pool.sol\":826:836  _sendValue */\n      tag_73\n        /* \"Heliocontracts/contracts/ceros/mocks/Pool.sol\":826:884  _sendValue(recipient, (shares * 1e18) / certToken.ratio()) */\n      jump\t// in\n    tag_64:\n        /* \"Heliocontracts/contracts/ceros/mocks/Pool.sol\":711:889  function unstakeCertsFor(address recipient, uint256 shares) external {... */\n      pop\n      pop\n      jump\t// out\n        /* \"Heliocontracts/contracts/ceros/mocks/Pool.sol\":1350:1439  function setRelayerFee(uint256 _relayerFee) external {... */\n    tag_44:\n        /* \"Heliocontracts/contracts/ceros/mocks/Pool.sol\":1423:1434  _relayerFee */\n      dup1\n        /* \"Heliocontracts/contracts/ceros/mocks/Pool.sol\":1409:1420  relayerFee_ */\n      0x02\n        /* \"Heliocontracts/contracts/ceros/mocks/Pool.sol\":1409:1434  relayerFee_ = _relayerFee */\n      dup2\n      swap1\n      sstore\n      pop\n        /* \"Heliocontracts/contracts/ceros/mocks/Pool.sol\":1350:1439  function setRelayerFee(uint256 _relayerFee) external {... */\n      pop\n      jump\t// out\n        /* \"Heliocontracts/contracts/ceros/mocks/Pool.sol\":1077:1163  function getRelayerFee() external view returns (uint256) {... */\n    tag_47:\n        /* \"Heliocontracts/contracts/ceros/mocks/Pool.sol\":1125:1132  uint256 */\n      0x00\n        /* \"Heliocontracts/contracts/ceros/mocks/Pool.sol\":1147:1158  relayerFee_ */\n      sload(0x02)\n        /* \"Heliocontracts/contracts/ceros/mocks/Pool.sol\":1140:1158  return relayerFee_ */\n      swap1\n      pop\n        /* \"Heliocontracts/contracts/ceros/mocks/Pool.sol\":1077:1163  function getRelayerFee() external view returns (uint256) {... */\n      swap1\n      jump\t// out\n        /* \"Heliocontracts/contracts/ceros/mocks/Pool.sol\":893:983  function getMinimumStake() external view returns (uint256) {... */\n    tag_51:\n        /* \"Heliocontracts/contracts/ceros/mocks/Pool.sol\":943:950  uint256 */\n      0x00\n        /* \"Heliocontracts/contracts/ceros/mocks/Pool.sol\":965:978  minimumStake_ */\n      sload(0x01)\n        /* \"Heliocontracts/contracts/ceros/mocks/Pool.sol\":958:978  return minimumStake_ */\n      swap1\n      pop\n        /* \"Heliocontracts/contracts/ceros/mocks/Pool.sol\":893:983  function getMinimumStake() external view returns (uint256) {... */\n      swap1\n      jump\t// out\n        /* \"Heliocontracts/contracts/ceros/mocks/Pool.sol\":393:707  function stakeAndClaimCerts() external payable {... */\n    tag_54:\n        /* \"Heliocontracts/contracts/ceros/mocks/Pool.sol\":467:480  minimumStake_ */\n      sload(0x01)\n        /* \"Heliocontracts/contracts/ceros/mocks/Pool.sol\":454:463  msg.value */\n      callvalue\n        /* \"Heliocontracts/contracts/ceros/mocks/Pool.sol\":454:480  msg.value >= minimumStake_ */\n      lt\n      iszero\n        /* \"Heliocontracts/contracts/ceros/mocks/Pool.sol\":454:507  msg.value >= minimumStake_ && msg.value > relayerFee_ */\n      dup1\n      iszero\n      tag_78\n      jumpi\n      pop\n        /* \"Heliocontracts/contracts/ceros/mocks/Pool.sol\":496:507  relayerFee_ */\n      sload(0x02)\n        /* \"Heliocontracts/contracts/ceros/mocks/Pool.sol\":484:493  msg.value */\n      callvalue\n        /* \"Heliocontracts/contracts/ceros/mocks/Pool.sol\":484:507  msg.value > relayerFee_ */\n      gt\n        /* \"Heliocontracts/contracts/ceros/mocks/Pool.sol\":454:507  msg.value >= minimumStake_ && msg.value > relayerFee_ */\n    tag_78:\n        /* \"Heliocontracts/contracts/ceros/mocks/Pool.sol\":446:534  require(msg.value >= minimumStake_ && msg.value > relayerFee_, \"unpossible transaction\") */\n      tag_79\n      jumpi\n      mload(0x40)\n      0x08c379a000000000000000000000000000000000000000000000000000000000\n      dup2\n      mstore\n      0x04\n      add\n      tag_80\n      swap1\n      tag_81\n      jump\t// in\n    tag_80:\n      mload(0x40)\n      dup1\n      swap2\n      sub\n      swap1\n      revert\n    tag_79:\n        /* \"Heliocontracts/contracts/ceros/mocks/Pool.sol\":540:562  uint256 transferAmount */\n      0x00\n        /* \"Heliocontracts/contracts/ceros/mocks/Pool.sol\":577:588  relayerFee_ */\n      sload(0x02)\n        /* \"Heliocontracts/contracts/ceros/mocks/Pool.sol\":565:574  msg.value */\n      callvalue\n        /* \"Heliocontracts/contracts/ceros/mocks/Pool.sol\":565:588  msg.value - relayerFee_ */\n      tag_82\n      swap2\n      swap1\n      tag_83\n      jump\t// in\n    tag_82:\n        /* \"Heliocontracts/contracts/ceros/mocks/Pool.sol\":540:588  uint256 transferAmount = msg.value - relayerFee_ */\n      swap1\n      pop\n        /* \"Heliocontracts/contracts/ceros/mocks/Pool.sol\":594:612  uint256 certAmount */\n      0x00\n        /* \"Heliocontracts/contracts/ceros/mocks/Pool.sol\":654:658  1e18 */\n      0x0de0b6b3a7640000\n        /* \"Heliocontracts/contracts/ceros/mocks/Pool.sol\":633:642  certToken */\n      0x00\n      dup1\n      sload\n      swap1\n      0x0100\n      exp\n      swap1\n      div\n      0xffffffffffffffffffffffffffffffffffffffff\n      and\n        /* \"Heliocontracts/contracts/ceros/mocks/Pool.sol\":633:648  certToken.ratio */\n      0xffffffffffffffffffffffffffffffffffffffff\n      and\n      0x71ca337d\n        /* \"Heliocontracts/contracts/ceros/mocks/Pool.sol\":633:650  certToken.ratio() */\n      mload(0x40)\n      dup2\n      0xffffffff\n      and\n      0xe0\n      shl\n      dup2\n      mstore\n      0x04\n      add\n      0x20\n      mload(0x40)\n      dup1\n      dup4\n      sub\n      dup2\n      dup7\n      gas\n      staticcall\n      iszero\n      dup1\n      iszero\n      tag_85\n      jumpi\n      returndatasize\n      0x00\n      dup1\n      returndatacopy\n      revert(0x00, returndatasize)\n    tag_85:\n      pop\n      pop\n      pop\n      pop\n      mload(0x40)\n      returndatasize\n      not(0x1f)\n      0x1f\n      dup3\n      add\n      and\n      dup3\n      add\n      dup1\n      0x40\n      mstore\n      pop\n      dup2\n      add\n      swap1\n      tag_86\n      swap2\n      swap1\n      tag_68\n      jump\t// in\n    tag_86:\n        /* \"Heliocontracts/contracts/ceros/mocks/Pool.sol\":616:630  transferAmount */\n      dup4\n        /* \"Heliocontracts/contracts/ceros/mocks/Pool.sol\":616:650  transferAmount * certToken.ratio() */\n      tag_87\n      swap2\n      swap1\n      tag_70\n      jump\t// in\n    tag_87:\n        /* \"Heliocontracts/contracts/ceros/mocks/Pool.sol\":615:658  (transferAmount * certToken.ratio()) / 1e18 */\n      tag_88\n      swap2\n      swap1\n      tag_72\n      jump\t// in\n    tag_88:\n        /* \"Heliocontracts/contracts/ceros/mocks/Pool.sol\":594:658  uint256 certAmount = (transferAmount * certToken.ratio()) / 1e18 */\n      swap1\n      pop\n        /* \"Heliocontracts/contracts/ceros/mocks/Pool.sol\":664:673  certToken */\n      0x00\n      dup1\n      sload\n      swap1\n      0x0100\n      exp\n      swap1\n      div\n      0xffffffffffffffffffffffffffffffffffffffff\n      and\n        /* \"Heliocontracts/contracts/ceros/mocks/Pool.sol\":664:678  certToken.mint */\n      0xffffffffffffffffffffffffffffffffffffffff\n      and\n      0x40c10f19\n        /* \"Heliocontracts/contracts/ceros/mocks/Pool.sol\":679:689  msg.sender */\n      caller\n        /* \"Heliocontracts/contracts/ceros/mocks/Pool.sol\":691:701  certAmount */\n      dup4\n        /* \"Heliocontracts/contracts/ceros/mocks/Pool.sol\":664:702  certToken.mint(msg.sender, certAmount) */\n      mload(0x40)\n      dup4\n      0xffffffff\n      and\n      0xe0\n      shl\n      dup2\n      mstore\n      0x04\n      add\n      tag_89\n      swap3\n      swap2\n      swap1\n      tag_60\n      jump\t// in\n    tag_89:\n      0x00\n      mload(0x40)\n      dup1\n      dup4\n      sub\n      dup2\n      0x00\n      dup8\n      dup1\n      extcodesize\n      iszero\n      dup1\n      iszero\n      tag_90\n      jumpi\n      0x00\n      dup1\n      revert\n    tag_90:\n      pop\n      gas\n      call\n      iszero\n      dup1\n      iszero\n      tag_92\n      jumpi\n      returndatasize\n      0x00\n      dup1\n      returndatacopy\n      revert(0x00, returndatasize)\n    tag_92:\n      pop\n      pop\n      pop\n      pop\n        /* \"Heliocontracts/contracts/ceros/mocks/Pool.sol\":440:707  {... */\n      pop\n      pop\n        /* \"Heliocontracts/contracts/ceros/mocks/Pool.sol\":393:707  function stakeAndClaimCerts() external payable {... */\n      jump\t// out\n        /* \"Heliocontracts/contracts/ceros/mocks/Pool.sol\":1443:1709  function _sendValue(address receiver, uint256 amount) internal {... */\n    tag_73:\n        /* \"Heliocontracts/contracts/ceros/mocks/Pool.sol\":1568:1580  bool success */\n      0x00\n        /* \"Heliocontracts/contracts/ceros/mocks/Pool.sol\":1594:1602  receiver */\n      dup3\n        /* \"Heliocontracts/contracts/ceros/mocks/Pool.sol\":1586:1608  payable(receiver).call */\n      0xffffffffffffffffffffffffffffffffffffffff\n      and\n        /* \"Heliocontracts/contracts/ceros/mocks/Pool.sol\":1617:1623  amount */\n      dup3\n        /* \"Heliocontracts/contracts/ceros/mocks/Pool.sol\":1586:1629  payable(receiver).call{ value: amount }(\"\") */\n      mload(0x40)\n      tag_94\n      swap1\n      tag_95\n      jump\t// in\n    tag_94:\n      0x00\n      mload(0x40)\n      dup1\n      dup4\n      sub\n      dup2\n      dup6\n      dup8\n      gas\n      call\n      swap3\n      pop\n      pop\n      pop\n      returndatasize\n      dup1\n      0x00\n      dup2\n      eq\n      tag_98\n      jumpi\n      mload(0x40)\n      swap2\n      pop\n      and(add(returndatasize, 0x3f), not(0x1f))\n      dup3\n      add\n      0x40\n      mstore\n      returndatasize\n      dup3\n      mstore\n      returndatasize\n      0x00\n      0x20\n      dup5\n      add\n      returndatacopy\n      jump(tag_97)\n    tag_98:\n      0x60\n      swap2\n      pop\n    tag_97:\n      pop\n        /* \"Heliocontracts/contracts/ceros/mocks/Pool.sol\":1567:1629  (bool success, ) = payable(receiver).call{ value: amount }(\"\") */\n      pop\n      swap1\n      pop\n        /* \"Heliocontracts/contracts/ceros/mocks/Pool.sol\":1643:1650  success */\n      dup1\n        /* \"Heliocontracts/contracts/ceros/mocks/Pool.sol\":1635:1704  require(success, \"unable to send value, recipient may have reverted\") */\n      tag_99\n      jumpi\n      mload(0x40)\n      0x08c379a000000000000000000000000000000000000000000000000000000000\n      dup2\n      mstore\n      0x04\n      add\n      tag_100\n      swap1\n      tag_101\n      jump\t// in\n    tag_100:\n      mload(0x40)\n      dup1\n      swap2\n      sub\n      swap1\n      revert\n    tag_99:\n        /* \"Heliocontracts/contracts/ceros/mocks/Pool.sol\":1506:1709  {... */\n      pop\n        /* \"Heliocontracts/contracts/ceros/mocks/Pool.sol\":1443:1709  function _sendValue(address receiver, uint256 amount) internal {... */\n      pop\n      pop\n      jump\t// out\n        /* \"#utility.yul\":7:84   */\n    tag_102:\n        /* \"#utility.yul\":44:51   */\n      0x00\n        /* \"#utility.yul\":73:78   */\n      dup2\n        /* \"#utility.yul\":62:78   */\n      swap1\n      pop\n        /* \"#utility.yul\":7:84   */\n      swap2\n      swap1\n      pop\n      jump\t// out\n        /* \"#utility.yul\":90:208   */\n    tag_103:\n        /* \"#utility.yul\":177:201   */\n      tag_133\n        /* \"#utility.yul\":195:200   */\n      dup2\n        /* \"#utility.yul\":177:201   */\n      tag_102\n      jump\t// in\n    tag_133:\n        /* \"#utility.yul\":172:175   */\n      dup3\n        /* \"#utility.yul\":165:202   */\n      mstore\n        /* \"#utility.yul\":90:208   */\n      pop\n      pop\n      jump\t// out\n        /* \"#utility.yul\":214:436   */\n    tag_19:\n        /* \"#utility.yul\":307:311   */\n      0x00\n        /* \"#utility.yul\":345:347   */\n      0x20\n        /* \"#utility.yul\":334:343   */\n      dup3\n        /* \"#utility.yul\":330:348   */\n      add\n        /* \"#utility.yul\":322:348   */\n      swap1\n      pop\n        /* \"#utility.yul\":358:429   */\n      tag_135\n        /* \"#utility.yul\":426:427   */\n      0x00\n        /* \"#utility.yul\":415:424   */\n      dup4\n        /* \"#utility.yul\":411:428   */\n      add\n        /* \"#utility.yul\":402:408   */\n      dup5\n        /* \"#utility.yul\":358:429   */\n      tag_103\n      jump\t// in\n    tag_135:\n        /* \"#utility.yul\":214:436   */\n      swap3\n      swap2\n      pop\n      pop\n      jump\t// out\n        /* \"#utility.yul\":442:568   */\n    tag_104:\n        /* \"#utility.yul\":479:486   */\n      0x00\n        /* \"#utility.yul\":519:561   */\n      0xffffffffffffffffffffffffffffffffffffffff\n        /* \"#utility.yul\":512:517   */\n      dup3\n        /* \"#utility.yul\":508:562   */\n      and\n        /* \"#utility.yul\":497:562   */\n      swap1\n      pop\n        /* \"#utility.yul\":442:568   */\n      swap2\n      swap1\n      pop\n      jump\t// out\n        /* \"#utility.yul\":574:634   */\n    tag_105:\n        /* \"#utility.yul\":602:605   */\n      0x00\n        /* \"#utility.yul\":623:628   */\n      dup2\n        /* \"#utility.yul\":616:628   */\n      swap1\n      pop\n        /* \"#utility.yul\":574:634   */\n      swap2\n      swap1\n      pop\n      jump\t// out\n        /* \"#utility.yul\":640:782   */\n    tag_106:\n        /* \"#utility.yul\":690:699   */\n      0x00\n        /* \"#utility.yul\":723:776   */\n      tag_139\n        /* \"#utility.yul\":741:775   */\n      tag_140\n        /* \"#utility.yul\":750:774   */\n      tag_141\n        /* \"#utility.yul\":768:773   */\n      dup5\n        /* \"#utility.yul\":750:774   */\n      tag_104\n      jump\t// in\n    tag_141:\n        /* \"#utility.yul\":741:775   */\n      tag_105\n      jump\t// in\n    tag_140:\n        /* \"#utility.yul\":723:776   */\n      tag_104\n      jump\t// in\n    tag_139:\n        /* \"#utility.yul\":710:776   */\n      swap1\n      pop\n        /* \"#utility.yul\":640:782   */\n      swap2\n      swap1\n      pop\n      jump\t// out\n        /* \"#utility.yul\":788:914   */\n    tag_107:\n        /* \"#utility.yul\":838:847   */\n      0x00\n        /* \"#utility.yul\":871:908   */\n      tag_143\n        /* \"#utility.yul\":902:907   */\n      dup3\n        /* \"#utility.yul\":871:908   */\n      tag_106\n      jump\t// in\n    tag_143:\n        /* \"#utility.yul\":858:908   */\n      swap1\n      pop\n        /* \"#utility.yul\":788:914   */\n      swap2\n      swap1\n      pop\n      jump\t// out\n        /* \"#utility.yul\":920:1064   */\n    tag_108:\n        /* \"#utility.yul\":988:997   */\n      0x00\n        /* \"#utility.yul\":1021:1058   */\n      tag_145\n        /* \"#utility.yul\":1052:1057   */\n      dup3\n        /* \"#utility.yul\":1021:1058   */\n      tag_107\n      jump\t// in\n    tag_145:\n        /* \"#utility.yul\":1008:1058   */\n      swap1\n      pop\n        /* \"#utility.yul\":920:1064   */\n      swap2\n      swap1\n      pop\n      jump\t// out\n        /* \"#utility.yul\":1070:1237   */\n    tag_109:\n        /* \"#utility.yul\":1175:1230   */\n      tag_147\n        /* \"#utility.yul\":1224:1229   */\n      dup2\n        /* \"#utility.yul\":1175:1230   */\n      tag_108\n      jump\t// in\n    tag_147:\n        /* \"#utility.yul\":1170:1173   */\n      dup3\n        /* \"#utility.yul\":1163:1231   */\n      mstore\n        /* \"#utility.yul\":1070:1237   */\n      pop\n      pop\n      jump\t// out\n        /* \"#utility.yul\":1243:1501   */\n    tag_24:\n        /* \"#utility.yul\":1354:1358   */\n      0x00\n        /* \"#utility.yul\":1392:1394   */\n      0x20\n        /* \"#utility.yul\":1381:1390   */\n      dup3\n        /* \"#utility.yul\":1377:1395   */\n      add\n        /* \"#utility.yul\":1369:1395   */\n      swap1\n      pop\n        /* \"#utility.yul\":1405:1494   */\n      tag_149\n        /* \"#utility.yul\":1491:1492   */\n      0x00\n        /* \"#utility.yul\":1480:1489   */\n      dup4\n        /* \"#utility.yul\":1476:1493   */\n      add\n        /* \"#utility.yul\":1467:1473   */\n      dup5\n        /* \"#utility.yul\":1405:1494   */\n      tag_109\n      jump\t// in\n    tag_149:\n        /* \"#utility.yul\":1243:1501   */\n      swap3\n      swap2\n      pop\n      pop\n      jump\t// out\n        /* \"#utility.yul\":1588:1705   */\n    tag_111:\n        /* \"#utility.yul\":1697:1698   */\n      0x00\n        /* \"#utility.yul\":1694:1695   */\n      dup1\n        /* \"#utility.yul\":1687:1699   */\n      revert\n        /* \"#utility.yul\":1834:1956   */\n    tag_113:\n        /* \"#utility.yul\":1907:1931   */\n      tag_154\n        /* \"#utility.yul\":1925:1930   */\n      dup2\n        /* \"#utility.yul\":1907:1931   */\n      tag_102\n      jump\t// in\n    tag_154:\n        /* \"#utility.yul\":1900:1905   */\n      dup2\n        /* \"#utility.yul\":1897:1932   */\n      eq\n        /* \"#utility.yul\":1887:1950   */\n      tag_155\n      jumpi\n        /* \"#utility.yul\":1946:1947   */\n      0x00\n        /* \"#utility.yul\":1943:1944   */\n      dup1\n        /* \"#utility.yul\":1936:1948   */\n      revert\n        /* \"#utility.yul\":1887:1950   */\n    tag_155:\n        /* \"#utility.yul\":1834:1956   */\n      pop\n      jump\t// out\n        /* \"#utility.yul\":1962:2101   */\n    tag_114:\n        /* \"#utility.yul\":2008:2013   */\n      0x00\n        /* \"#utility.yul\":2046:2052   */\n      dup2\n        /* \"#utility.yul\":2033:2053   */\n      calldataload\n        /* \"#utility.yul\":2024:2053   */\n      swap1\n      pop\n        /* \"#utility.yul\":2062:2095   */\n      tag_157\n        /* \"#utility.yul\":2089:2094   */\n      dup2\n        /* \"#utility.yul\":2062:2095   */\n      tag_113\n      jump\t// in\n    tag_157:\n        /* \"#utility.yul\":1962:2101   */\n      swap3\n      swap2\n      pop\n      pop\n      jump\t// out\n        /* \"#utility.yul\":2107:2436   */\n    tag_28:\n        /* \"#utility.yul\":2166:2172   */\n      0x00\n        /* \"#utility.yul\":2215:2217   */\n      0x20\n        /* \"#utility.yul\":2203:2212   */\n      dup3\n        /* \"#utility.yul\":2194:2201   */\n      dup5\n        /* \"#utility.yul\":2190:2213   */\n      sub\n        /* \"#utility.yul\":2186:2218   */\n      slt\n        /* \"#utility.yul\":2183:2302   */\n      iszero\n      tag_159\n      jumpi\n        /* \"#utility.yul\":2221:2300   */\n      tag_160\n      tag_111\n      jump\t// in\n    tag_160:\n        /* \"#utility.yul\":2183:2302   */\n    tag_159:\n        /* \"#utility.yul\":2341:2342   */\n      0x00\n        /* \"#utility.yul\":2366:2419   */\n      tag_161\n        /* \"#utility.yul\":2411:2418   */\n      dup5\n        /* \"#utility.yul\":2402:2408   */\n      dup3\n        /* \"#utility.yul\":2391:2400   */\n      dup6\n        /* \"#utility.yul\":2387:2409   */\n      add\n        /* \"#utility.yul\":2366:2419   */\n      tag_114\n      jump\t// in\n    tag_161:\n        /* \"#utility.yul\":2356:2419   */\n      swap2\n      pop\n        /* \"#utility.yul\":2312:2429   */\n      pop\n        /* \"#utility.yul\":2107:2436   */\n      swap3\n      swap2\n      pop\n      pop\n      jump\t// out\n        /* \"#utility.yul\":2442:2538   */\n    tag_115:\n        /* \"#utility.yul\":2479:2486   */\n      0x00\n        /* \"#utility.yul\":2508:2532   */\n      tag_163\n        /* \"#utility.yul\":2526:2531   */\n      dup3\n        /* \"#utility.yul\":2508:2532   */\n      tag_104\n      jump\t// in\n    tag_163:\n        /* \"#utility.yul\":2497:2532   */\n      swap1\n      pop\n        /* \"#utility.yul\":2442:2538   */\n      swap2\n      swap1\n      pop\n      jump\t// out\n        /* \"#utility.yul\":2544:2666   */\n    tag_116:\n        /* \"#utility.yul\":2617:2641   */\n      tag_165\n        /* \"#utility.yul\":2635:2640   */\n      dup2\n        /* \"#utility.yul\":2617:2641   */\n      tag_115\n      jump\t// in\n    tag_165:\n        /* \"#utility.yul\":2610:2615   */\n      dup2\n        /* \"#utility.yul\":2607:2642   */\n      eq\n        /* \"#utility.yul\":2597:2660   */\n      tag_166\n      jumpi\n        /* \"#utility.yul\":2656:2657   */\n      0x00\n        /* \"#utility.yul\":2653:2654   */\n      dup1\n        /* \"#utility.yul\":2646:2658   */\n      revert\n        /* \"#utility.yul\":2597:2660   */\n    tag_166:\n        /* \"#utility.yul\":2544:2666   */\n      pop\n      jump\t// out\n        /* \"#utility.yul\":2672:2811   */\n    tag_117:\n        /* \"#utility.yul\":2718:2723   */\n      0x00\n        /* \"#utility.yul\":2756:2762   */\n      dup2\n        /* \"#utility.yul\":2743:2763   */\n      calldataload\n        /* \"#utility.yul\":2734:2763   */\n      swap1\n      pop\n        /* \"#utility.yul\":2772:2805   */\n      tag_168\n        /* \"#utility.yul\":2799:2804   */\n      dup2\n        /* \"#utility.yul\":2772:2805   */\n      tag_116\n      jump\t// in\n    tag_168:\n        /* \"#utility.yul\":2672:2811   */\n      swap3\n      swap2\n      pop\n      pop\n      jump\t// out\n        /* \"#utility.yul\":2817:3146   */\n    tag_33:\n        /* \"#utility.yul\":2876:2882   */\n      0x00\n        /* \"#utility.yul\":2925:2927   */\n      0x20\n        /* \"#utility.yul\":2913:2922   */\n      dup3\n        /* \"#utility.yul\":2904:2911   */\n      dup5\n        /* \"#utility.yul\":2900:2923   */\n      sub\n        /* \"#utility.yul\":2896:2928   */\n      slt\n        /* \"#utility.yul\":2893:3012   */\n      iszero\n      tag_170\n      jumpi\n        /* \"#utility.yul\":2931:3010   */\n      tag_171\n      tag_111\n      jump\t// in\n    tag_171:\n        /* \"#utility.yul\":2893:3012   */\n    tag_170:\n        /* \"#utility.yul\":3051:3052   */\n      0x00\n        /* \"#utility.yul\":3076:3129   */\n      tag_172\n        /* \"#utility.yul\":3121:3128   */\n      dup5\n        /* \"#utility.yul\":3112:3118   */\n      dup3\n        /* \"#utility.yul\":3101:3110   */\n      dup6\n        /* \"#utility.yul\":3097:3119   */\n      add\n        /* \"#utility.yul\":3076:3129   */\n      tag_117\n      jump\t// in\n    tag_172:\n        /* \"#utility.yul\":3066:3129   */\n      swap2\n      pop\n        /* \"#utility.yul\":3022:3139   */\n      pop\n        /* \"#utility.yul\":2817:3146   */\n      swap3\n      swap2\n      pop\n      pop\n      jump\t// out\n        /* \"#utility.yul\":3152:3626   */\n    tag_39:\n        /* \"#utility.yul\":3220:3226   */\n      0x00\n        /* \"#utility.yul\":3228:3234   */\n      dup1\n        /* \"#utility.yul\":3277:3279   */\n      0x40\n        /* \"#utility.yul\":3265:3274   */\n      dup4\n        /* \"#utility.yul\":3256:3263   */\n      dup6\n        /* \"#utility.yul\":3252:3275   */\n      sub\n        /* \"#utility.yul\":3248:3280   */\n      slt\n        /* \"#utility.yul\":3245:3364   */\n      iszero\n      tag_174\n      jumpi\n        /* \"#utility.yul\":3283:3362   */\n      tag_175\n      tag_111\n      jump\t// in\n    tag_175:\n        /* \"#utility.yul\":3245:3364   */\n    tag_174:\n        /* \"#utility.yul\":3403:3404   */\n      0x00\n        /* \"#utility.yul\":3428:3481   */\n      tag_176\n        /* \"#utility.yul\":3473:3480   */\n      dup6\n        /* \"#utility.yul\":3464:3470   */\n      dup3\n        /* \"#utility.yul\":3453:3462   */\n      dup7\n        /* \"#utility.yul\":3449:3471   */\n      add\n        /* \"#utility.yul\":3428:3481   */\n      tag_117\n      jump\t// in\n    tag_176:\n        /* \"#utility.yul\":3418:3481   */\n      swap3\n      pop\n        /* \"#utility.yul\":3374:3491   */\n      pop\n        /* \"#utility.yul\":3530:3532   */\n      0x20\n        /* \"#utility.yul\":3556:3609   */\n      tag_177\n        /* \"#utility.yul\":3601:3608   */\n      dup6\n        /* \"#utility.yul\":3592:3598   */\n      dup3\n        /* \"#utility.yul\":3581:3590   */\n      dup7\n        /* \"#utility.yul\":3577:3599   */\n      add\n        /* \"#utility.yul\":3556:3609   */\n      tag_114\n      jump\t// in\n    tag_177:\n        /* \"#utility.yul\":3546:3609   */\n      swap2\n      pop\n        /* \"#utility.yul\":3501:3619   */\n      pop\n        /* \"#utility.yul\":3152:3626   */\n      swap3\n      pop\n      swap3\n      swap1\n      pop\n      jump\t// out\n        /* \"#utility.yul\":3632:3750   */\n    tag_118:\n        /* \"#utility.yul\":3719:3743   */\n      tag_179\n        /* \"#utility.yul\":3737:3742   */\n      dup2\n        /* \"#utility.yul\":3719:3743   */\n      tag_115\n      jump\t// in\n    tag_179:\n        /* \"#utility.yul\":3714:3717   */\n      dup3\n        /* \"#utility.yul\":3707:3744   */\n      mstore\n        /* \"#utility.yul\":3632:3750   */\n      pop\n      pop\n      jump\t// out\n        /* \"#utility.yul\":3756:4088   */\n    tag_60:\n        /* \"#utility.yul\":3877:3881   */\n      0x00\n        /* \"#utility.yul\":3915:3917   */\n      0x40\n        /* \"#utility.yul\":3904:3913   */\n      dup3\n        /* \"#utility.yul\":3900:3918   */\n      add\n        /* \"#utility.yul\":3892:3918   */\n      swap1\n      pop\n        /* \"#utility.yul\":3928:3999   */\n      tag_181\n        /* \"#utility.yul\":3996:3997   */\n      0x00\n        /* \"#utility.yul\":3985:3994   */\n      dup4\n        /* \"#utility.yul\":3981:3998   */\n      add\n        /* \"#utility.yul\":3972:3978   */\n      dup6\n        /* \"#utility.yul\":3928:3999   */\n      tag_118\n      jump\t// in\n    tag_181:\n        /* \"#utility.yul\":4009:4081   */\n      tag_182\n        /* \"#utility.yul\":4077:4079   */\n      0x20\n        /* \"#utility.yul\":4066:4075   */\n      dup4\n        /* \"#utility.yul\":4062:4080   */\n      add\n        /* \"#utility.yul\":4053:4059   */\n      dup5\n        /* \"#utility.yul\":4009:4081   */\n      tag_103\n      jump\t// in\n    tag_182:\n        /* \"#utility.yul\":3756:4088   */\n      swap4\n      swap3\n      pop\n      pop\n      pop\n      jump\t// out\n        /* \"#utility.yul\":4094:4237   */\n    tag_119:\n        /* \"#utility.yul\":4151:4156   */\n      0x00\n        /* \"#utility.yul\":4182:4188   */\n      dup2\n        /* \"#utility.yul\":4176:4189   */\n      mload\n        /* \"#utility.yul\":4167:4189   */\n      swap1\n      pop\n        /* \"#utility.yul\":4198:4231   */\n      tag_184\n        /* \"#utility.yul\":4225:4230   */\n      dup2\n        /* \"#utility.yul\":4198:4231   */\n      tag_113\n      jump\t// in\n    tag_184:\n        /* \"#utility.yul\":4094:4237   */\n      swap3\n      swap2\n      pop\n      pop\n      jump\t// out\n        /* \"#utility.yul\":4243:4594   */\n    tag_68:\n        /* \"#utility.yul\":4313:4319   */\n      0x00\n        /* \"#utility.yul\":4362:4364   */\n      0x20\n        /* \"#utility.yul\":4350:4359   */\n      dup3\n        /* \"#utility.yul\":4341:4348   */\n      dup5\n        /* \"#utility.yul\":4337:4360   */\n      sub\n        /* \"#utility.yul\":4333:4365   */\n      slt\n        /* \"#utility.yul\":4330:4449   */\n      iszero\n      tag_186\n      jumpi\n        /* \"#utility.yul\":4368:4447   */\n      tag_187\n      tag_111\n      jump\t// in\n    tag_187:\n        /* \"#utility.yul\":4330:4449   */\n    tag_186:\n        /* \"#utility.yul\":4488:4489   */\n      0x00\n        /* \"#utility.yul\":4513:4577   */\n      tag_188\n        /* \"#utility.yul\":4569:4576   */\n      dup5\n        /* \"#utility.yul\":4560:4566   */\n      dup3\n        /* \"#utility.yul\":4549:4558   */\n      dup6\n        /* \"#utility.yul\":4545:4567   */\n      add\n        /* \"#utility.yul\":4513:4577   */\n      tag_119\n      jump\t// in\n    tag_188:\n        /* \"#utility.yul\":4503:4577   */\n      swap2\n      pop\n        /* \"#utility.yul\":4459:4587   */\n      pop\n        /* \"#utility.yul\":4243:4594   */\n      swap3\n      swap2\n      pop\n      pop\n      jump\t// out\n        /* \"#utility.yul\":4600:4780   */\n    tag_120:\n        /* \"#utility.yul\":4648:4725   */\n      0x4e487b7100000000000000000000000000000000000000000000000000000000\n        /* \"#utility.yul\":4645:4646   */\n      0x00\n        /* \"#utility.yul\":4638:4726   */\n      mstore\n        /* \"#utility.yul\":4745:4749   */\n      0x11\n        /* \"#utility.yul\":4742:4743   */\n      0x04\n        /* \"#utility.yul\":4735:4750   */\n      mstore\n        /* \"#utility.yul\":4769:4773   */\n      0x24\n        /* \"#utility.yul\":4766:4767   */\n      0x00\n        /* \"#utility.yul\":4759:4774   */\n      revert\n        /* \"#utility.yul\":4786:5134   */\n    tag_70:\n        /* \"#utility.yul\":4826:4833   */\n      0x00\n        /* \"#utility.yul\":4849:4869   */\n      tag_191\n        /* \"#utility.yul\":4867:4868   */\n      dup3\n        /* \"#utility.yul\":4849:4869   */\n      tag_102\n      jump\t// in\n    tag_191:\n        /* \"#utility.yul\":4844:4869   */\n      swap2\n      pop\n        /* \"#utility.yul\":4883:4903   */\n      tag_192\n        /* \"#utility.yul\":4901:4902   */\n      dup4\n        /* \"#utility.yul\":4883:4903   */\n      tag_102\n      jump\t// in\n    tag_192:\n        /* \"#utility.yul\":4878:4903   */\n      swap3\n      pop\n        /* \"#utility.yul\":5071:5072   */\n      dup2\n        /* \"#utility.yul\":5003:5069   */\n      0xffffffffffffffffffffffffffffffffffffffffffffffffffffffffffffffff\n        /* \"#utility.yul\":4999:5073   */\n      div\n        /* \"#utility.yul\":4996:4997   */\n      dup4\n        /* \"#utility.yul\":4993:5074   */\n      gt\n        /* \"#utility.yul\":4988:4989   */\n      dup3\n        /* \"#utility.yul\":4981:4990   */\n      iszero\n        /* \"#utility.yul\":4974:4991   */\n      iszero\n        /* \"#utility.yul\":4970:5075   */\n      and\n        /* \"#utility.yul\":4967:5098   */\n      iszero\n      tag_193\n      jumpi\n        /* \"#utility.yul\":5078:5096   */\n      tag_194\n      tag_120\n      jump\t// in\n    tag_194:\n        /* \"#utility.yul\":4967:5098   */\n    tag_193:\n        /* \"#utility.yul\":5126:5127   */\n      dup3\n        /* \"#utility.yul\":5123:5124   */\n      dup3\n        /* \"#utility.yul\":5119:5128   */\n      mul\n        /* \"#utility.yul\":5108:5128   */\n      swap1\n      pop\n        /* \"#utility.yul\":4786:5134   */\n      swap3\n      swap2\n      pop\n      pop\n      jump\t// out\n        /* \"#utility.yul\":5140:5320   */\n    tag_121:\n        /* \"#utility.yul\":5188:5265   */\n      0x4e487b7100000000000000000000000000000000000000000000000000000000\n        /* \"#utility.yul\":5185:5186   */\n      0x00\n        /* \"#utility.yul\":5178:5266   */\n      mstore\n        /* \"#utility.yul\":5285:5289   */\n      0x12\n        /* \"#utility.yul\":5282:5283   */\n      0x04\n        /* \"#utility.yul\":5275:5290   */\n      mstore\n        /* \"#utility.yul\":5309:5313   */\n      0x24\n        /* \"#utility.yul\":5306:5307   */\n      0x00\n        /* \"#utility.yul\":5299:5314   */\n      revert\n        /* \"#utility.yul\":5326:5511   */\n    tag_72:\n        /* \"#utility.yul\":5366:5367   */\n      0x00\n        /* \"#utility.yul\":5383:5403   */\n      tag_197\n        /* \"#utility.yul\":5401:5402   */\n      dup3\n        /* \"#utility.yul\":5383:5403   */\n      tag_102\n      jump\t// in\n    tag_197:\n        /* \"#utility.yul\":5378:5403   */\n      swap2\n      pop\n        /* \"#utility.yul\":5417:5437   */\n      tag_198\n        /* \"#utility.yul\":5435:5436   */\n      dup4\n        /* \"#utility.yul\":5417:5437   */\n      tag_102\n      jump\t// in\n    tag_198:\n        /* \"#utility.yul\":5412:5437   */\n      swap3\n      pop\n        /* \"#utility.yul\":5456:5457   */\n      dup3\n        /* \"#utility.yul\":5446:5481   */\n      tag_199\n      jumpi\n        /* \"#utility.yul\":5461:5479   */\n      tag_200\n      tag_121\n      jump\t// in\n    tag_200:\n        /* \"#utility.yul\":5446:5481   */\n    tag_199:\n        /* \"#utility.yul\":5503:5504   */\n      dup3\n        /* \"#utility.yul\":5500:5501   */\n      dup3\n        /* \"#utility.yul\":5496:5505   */\n      div\n        /* \"#utility.yul\":5491:5505   */\n      swap1\n      pop\n        /* \"#utility.yul\":5326:5511   */\n      swap3\n      swap2\n      pop\n      pop\n      jump\t// out\n        /* \"#utility.yul\":5517:5686   */\n    tag_122:\n        /* \"#utility.yul\":5601:5612   */\n      0x00\n        /* \"#utility.yul\":5635:5641   */\n      dup3\n        /* \"#utility.yul\":5630:5633   */\n      dup3\n        /* \"#utility.yul\":5623:5642   */\n      mstore\n        /* \"#utility.yul\":5675:5679   */\n      0x20\n        /* \"#utility.yul\":5670:5673   */\n      dup3\n        /* \"#utility.yul\":5666:5680   */\n      add\n        /* \"#utility.yul\":5651:5680   */\n      swap1\n      pop\n        /* \"#utility.yul\":5517:5686   */\n      swap3\n      swap2\n      pop\n      pop\n      jump\t// out\n        /* \"#utility.yul\":5692:5864   */\n    tag_123:\n        /* \"#utility.yul\":5832:5856   */\n      0x756e706f737369626c65207472616e73616374696f6e00000000000000000000\n        /* \"#utility.yul\":5828:5829   */\n      0x00\n        /* \"#utility.yul\":5820:5826   */\n      dup3\n        /* \"#utility.yul\":5816:5830   */\n      add\n        /* \"#utility.yul\":5809:5857   */\n      mstore\n        /* \"#utility.yul\":5692:5864   */\n      pop\n      jump\t// out\n        /* \"#utility.yul\":5870:6236   */\n    tag_124:\n        /* \"#utility.yul\":6012:6015   */\n      0x00\n        /* \"#utility.yul\":6033:6100   */\n      tag_204\n        /* \"#utility.yul\":6097:6099   */\n      0x16\n        /* \"#utility.yul\":6092:6095   */\n      dup4\n        /* \"#utility.yul\":6033:6100   */\n      tag_122\n      jump\t// in\n    tag_204:\n        /* \"#utility.yul\":6026:6100   */\n      swap2\n      pop\n        /* \"#utility.yul\":6109:6202   */\n      tag_205\n        /* \"#utility.yul\":6198:6201   */\n      dup3\n        /* \"#utility.yul\":6109:6202   */\n      tag_123\n      jump\t// in\n    tag_205:\n        /* \"#utility.yul\":6227:6229   */\n      0x20\n        /* \"#utility.yul\":6222:6225   */\n      dup3\n        /* \"#utility.yul\":6218:6230   */\n      add\n        /* \"#utility.yul\":6211:6230   */\n      swap1\n      pop\n        /* \"#utility.yul\":5870:6236   */\n      swap2\n      swap1\n      pop\n      jump\t// out\n        /* \"#utility.yul\":6242:6661   */\n    tag_81:\n        /* \"#utility.yul\":6408:6412   */\n      0x00\n        /* \"#utility.yul\":6446:6448   */\n      0x20\n        /* \"#utility.yul\":6435:6444   */\n      dup3\n        /* \"#utility.yul\":6431:6449   */\n      add\n        /* \"#utility.yul\":6423:6449   */\n      swap1\n      pop\n        /* \"#utility.yul\":6495:6504   */\n      dup2\n        /* \"#utility.yul\":6489:6493   */\n      dup2\n        /* \"#utility.yul\":6485:6505   */\n      sub\n        /* \"#utility.yul\":6481:6482   */\n      0x00\n        /* \"#utility.yul\":6470:6479   */\n      dup4\n        /* \"#utility.yul\":6466:6483   */\n      add\n        /* \"#utility.yul\":6459:6506   */\n      mstore\n        /* \"#utility.yul\":6523:6654   */\n      tag_207\n        /* \"#utility.yul\":6649:6653   */\n      dup2\n        /* \"#utility.yul\":6523:6654   */\n      tag_124\n      jump\t// in\n    tag_207:\n        /* \"#utility.yul\":6515:6654   */\n      swap1\n      pop\n        /* \"#utility.yul\":6242:6661   */\n      swap2\n      swap1\n      pop\n      jump\t// out\n        /* \"#utility.yul\":6667:6858   */\n    tag_83:\n        /* \"#utility.yul\":6707:6711   */\n      0x00\n        /* \"#utility.yul\":6727:6747   */\n      tag_209\n        /* \"#utility.yul\":6745:6746   */\n      dup3\n        /* \"#utility.yul\":6727:6747   */\n      tag_102\n      jump\t// in\n    tag_209:\n        /* \"#utility.yul\":6722:6747   */\n      swap2\n      pop\n        /* \"#utility.yul\":6761:6781   */\n      tag_210\n        /* \"#utility.yul\":6779:6780   */\n      dup4\n        /* \"#utility.yul\":6761:6781   */\n      tag_102\n      jump\t// in\n    tag_210:\n        /* \"#utility.yul\":6756:6781   */\n      swap3\n      pop\n        /* \"#utility.yul\":6800:6801   */\n      dup3\n        /* \"#utility.yul\":6797:6798   */\n      dup3\n        /* \"#utility.yul\":6794:6802   */\n      lt\n        /* \"#utility.yul\":6791:6825   */\n      iszero\n      tag_211\n      jumpi\n        /* \"#utility.yul\":6805:6823   */\n      tag_212\n      tag_120\n      jump\t// in\n    tag_212:\n        /* \"#utility.yul\":6791:6825   */\n    tag_211:\n        /* \"#utility.yul\":6850:6851   */\n      dup3\n        /* \"#utility.yul\":6847:6848   */\n      dup3\n        /* \"#utility.yul\":6843:6852   */\n      sub\n        /* \"#utility.yul\":6835:6852   */\n      swap1\n      pop\n        /* \"#utility.yul\":6667:6858   */\n      swap3\n      swap2\n      pop\n      pop\n      jump\t// out\n        /* \"#utility.yul\":6864:7011   */\n    tag_125:\n        /* \"#utility.yul\":6965:6976   */\n      0x00\n        /* \"#utility.yul\":7002:7005   */\n      dup2\n        /* \"#utility.yul\":6987:7005   */\n      swap1\n      pop\n        /* \"#utility.yul\":6864:7011   */\n      swap3\n      swap2\n      pop\n      pop\n      jump\t// out\n        /* \"#utility.yul\":7017:7131   */\n    tag_126:\n      pop\n      jump\t// out\n        /* \"#utility.yul\":7137:7535   */\n    tag_127:\n        /* \"#utility.yul\":7296:7299   */\n      0x00\n        /* \"#utility.yul\":7317:7400   */\n      tag_216\n        /* \"#utility.yul\":7398:7399   */\n      0x00\n        /* \"#utility.yul\":7393:7396   */\n      dup4\n        /* \"#utility.yul\":7317:7400   */\n      tag_125\n      jump\t// in\n    tag_216:\n        /* \"#utility.yul\":7310:7400   */\n      swap2\n      pop\n        /* \"#utility.yul\":7409:7502   */\n      tag_217\n        /* \"#utility.yul\":7498:7501   */\n      dup3\n        /* \"#utility.yul\":7409:7502   */\n      tag_126\n      jump\t// in\n    tag_217:\n        /* \"#utility.yul\":7527:7528   */\n      0x00\n        /* \"#utility.yul\":7522:7525   */\n      dup3\n        /* \"#utility.yul\":7518:7529   */\n      add\n        /* \"#utility.yul\":7511:7529   */\n      swap1\n      pop\n        /* \"#utility.yul\":7137:7535   */\n      swap2\n      swap1\n      pop\n      jump\t// out\n        /* \"#utility.yul\":7541:7920   */\n    tag_95:\n        /* \"#utility.yul\":7725:7728   */\n      0x00\n        /* \"#utility.yul\":7747:7894   */\n      tag_219\n        /* \"#utility.yul\":7890:7893   */\n      dup3\n        /* \"#utility.yul\":7747:7894   */\n      tag_127\n      jump\t// in\n    tag_219:\n        /* \"#utility.yul\":7740:7894   */\n      swap2\n      pop\n        /* \"#utility.yul\":7911:7914   */\n      dup2\n        /* \"#utility.yul\":7904:7914   */\n      swap1\n      pop\n        /* \"#utility.yul\":7541:7920   */\n      swap2\n      swap1\n      pop\n      jump\t// out\n        /* \"#utility.yul\":7926:8162   */\n    tag_128:\n        /* \"#utility.yul\":8066:8100   */\n      0x756e61626c6520746f2073656e642076616c75652c20726563697069656e7420\n        /* \"#utility.yul\":8062:8063   */\n      0x00\n        /* \"#utility.yul\":8054:8060   */\n      dup3\n        /* \"#utility.yul\":8050:8064   */\n      add\n        /* \"#utility.yul\":8043:8101   */\n      mstore\n        /* \"#utility.yul\":8135:8154   */\n      0x6d61792068617665207265766572746564000000000000000000000000000000\n        /* \"#utility.yul\":8130:8132   */\n      0x20\n        /* \"#utility.yul\":8122:8128   */\n      dup3\n        /* \"#utility.yul\":8118:8133   */\n      add\n        /* \"#utility.yul\":8111:8155   */\n      mstore\n        /* \"#utility.yul\":7926:8162   */\n      pop\n      jump\t// out\n        /* \"#utility.yul\":8168:8534   */\n    tag_129:\n        /* \"#utility.yul\":8310:8313   */\n      0x00\n        /* \"#utility.yul\":8331:8398   */\n      tag_222\n        /* \"#utility.yul\":8395:8397   */\n      0x31\n        /* \"#utility.yul\":8390:8393   */\n      dup4\n        /* \"#utility.yul\":8331:8398   */\n      tag_122\n      jump\t// in\n    tag_222:\n        /* \"#utility.yul\":8324:8398   */\n      swap2\n      pop\n        /* \"#utility.yul\":8407:8500   */\n      tag_223\n        /* \"#utility.yul\":8496:8499   */\n      dup3\n        /* \"#utility.yul\":8407:8500   */\n      tag_128\n      jump\t// in\n    tag_223:\n        /* \"#utility.yul\":8525:8527   */\n      0x40\n        /* \"#utility.yul\":8520:8523   */\n      dup3\n        /* \"#utility.yul\":8516:8528   */\n      add\n        /* \"#utility.yul\":8509:8528   */\n      swap1\n      pop\n        /* \"#utility.yul\":8168:8534   */\n      swap2\n      swap1\n      pop\n      jump\t// out\n        /* \"#utility.yul\":8540:8959   */\n    tag_101:\n        /* \"#utility.yul\":8706:8710   */\n      0x00\n        /* \"#utility.yul\":8744:8746   */\n      0x20\n        /* \"#utility.yul\":8733:8742   */\n      dup3\n        /* \"#utility.yul\":8729:8747   */\n      add\n        /* \"#utility.yul\":8721:8747   */\n      swap1\n      pop\n        /* \"#utility.yul\":8793:8802   */\n      dup2\n        /* \"#utility.yul\":8787:8791   */\n      dup2\n        /* \"#utility.yul\":8783:8803   */\n      sub\n        /* \"#utility.yul\":8779:8780   */\n      0x00\n        /* \"#utility.yul\":8768:8777   */\n      dup4\n        /* \"#utility.yul\":8764:8781   */\n      add\n        /* \"#utility.yul\":8757:8804   */\n      mstore\n        /* \"#utility.yul\":8821:8952   */\n      tag_225\n        /* \"#utility.yul\":8947:8951   */\n      dup2\n        /* \"#utility.yul\":8821:8952   */\n      tag_129\n      jump\t// in\n    tag_225:\n        /* \"#utility.yul\":8813:8952   */\n      swap1\n      pop\n        /* \"#utility.yul\":8540:8959   */\n      swap2\n      swap1\n      pop\n      jump\t// out\n\n    auxdata: 0xa2646970667358221220031576ae4ebf1a8b076b3d79878e92b4fd5cc4d5ccf99e3ce8c6dcc8c563fb9064736f6c634300080a0033\n}\n",
				"bytecode": {
					"linkReferences": {},
					"object": "608060405234801561001057600080fd5b50604051610c0f380380610c0f833981810160405281019061003291906100db565b806000806101000a81548173ffffffffffffffffffffffffffffffffffffffff021916908373ffffffffffffffffffffffffffffffffffffffff16021790555050610108565b600080fd5b600073ffffffffffffffffffffffffffffffffffffffff82169050919050565b60006100a88261007d565b9050919050565b6100b88161009d565b81146100c357600080fd5b50565b6000815190506100d5816100af565b92915050565b6000602082840312156100f1576100f0610078565b5b60006100ff848285016100c6565b91505092915050565b610af8806101176000396000f3fe60806040526004361061008a5760003560e01c806381782dff1161005957806381782dff1461015257806383302a6f1461017b578063c2117d82146101a4578063d9bbd278146101cf578063ff0a42de146101fa57610091565b8063034c4454146100965780630872e9ff146100c1578063233e9903146100ec5780633f9dac521461011557610091565b3661009157005b600080fd5b3480156100a257600080fd5b506100ab610204565b6040516100b89190610618565b60405180910390f35b3480156100cd57600080fd5b506100d661020e565b6040516100e391906106b2565b60405180910390f35b3480156100f857600080fd5b50610113600480360381019061010e91906106fe565b610232565b005b34801561012157600080fd5b5061013c60048036038101906101379190610769565b61023c565b6040516101499190610618565b60405180910390f35b34801561015e57600080fd5b5061017960048036038101906101749190610796565b610243565b005b34801561018757600080fd5b506101a2600480360381019061019d91906106fe565b61038a565b005b3480156101b057600080fd5b506101b9610394565b6040516101c69190610618565b60405180910390f35b3480156101db57600080fd5b506101e461039e565b6040516101f19190610618565b60405180910390f35b6102026103a8565b005b6000600154905090565b60008054906101000a900473ffffffffffffffffffffffffffffffffffffffff1681565b8060018190555050565b6000919050565b60008054906101000a900473ffffffffffffffffffffffffffffffffffffffff1673ffffffffffffffffffffffffffffffffffffffff16639dc29fac33836040518363ffffffff1660e01b815260040161029e9291906107e5565b600060405180830381600087803b1580156102b857600080fd5b505af11580156102cc573d6000803e3d6000fd5b505050506103868260008054906101000a900473ffffffffffffffffffffffffffffffffffffffff1673ffffffffffffffffffffffffffffffffffffffff166371ca337d6040518163ffffffff1660e01b8152600401602060405180830381865afa15801561033f573d6000803e3d6000fd5b505050506040513d601f19601f820116820180604052508101906103639190610823565b670de0b6b3a764000084610377919061087f565b6103819190610908565b61054e565b5050565b8060028190555050565b6000600254905090565b6000600154905090565b60015434101580156103bb575060025434115b6103fa576040517f08c379a00000000000000000000000000000000000000000000000000000000081526004016103f190610996565b60405180910390fd5b60006002543461040a91906109b6565b90506000670de0b6b3a764000060008054906101000a900473ffffffffffffffffffffffffffffffffffffffff1673ffffffffffffffffffffffffffffffffffffffff166371ca337d6040518163ffffffff1660e01b8152600401602060405180830381865afa158015610482573d6000803e3d6000fd5b505050506040513d601f19601f820116820180604052508101906104a69190610823565b836104b1919061087f565b6104bb9190610908565b905060008054906101000a900473ffffffffffffffffffffffffffffffffffffffff1673ffffffffffffffffffffffffffffffffffffffff166340c10f1933836040518363ffffffff1660e01b81526004016105189291906107e5565b600060405180830381600087803b15801561053257600080fd5b505af1158015610546573d6000803e3d6000fd5b505050505050565b60008273ffffffffffffffffffffffffffffffffffffffff168260405161057490610a1b565b60006040518083038185875af1925050503d80600081146105b1576040519150601f19603f3d011682016040523d82523d6000602084013e6105b6565b606091505b50509050806105fa576040517f08c379a00000000000000000000000000000000000000000000000000000000081526004016105f190610aa2565b60405180910390fd5b505050565b6000819050919050565b610612816105ff565b82525050565b600060208201905061062d6000830184610609565b92915050565b600073ffffffffffffffffffffffffffffffffffffffff82169050919050565b6000819050919050565b600061067861067361066e84610633565b610653565b610633565b9050919050565b600061068a8261065d565b9050919050565b600061069c8261067f565b9050919050565b6106ac81610691565b82525050565b60006020820190506106c760008301846106a3565b92915050565b600080fd5b6106db816105ff565b81146106e657600080fd5b50565b6000813590506106f8816106d2565b92915050565b600060208284031215610714576107136106cd565b5b6000610722848285016106e9565b91505092915050565b600061073682610633565b9050919050565b6107468161072b565b811461075157600080fd5b50565b6000813590506107638161073d565b92915050565b60006020828403121561077f5761077e6106cd565b5b600061078d84828501610754565b91505092915050565b600080604083850312156107ad576107ac6106cd565b5b60006107bb85828601610754565b92505060206107cc858286016106e9565b9150509250929050565b6107df8161072b565b82525050565b60006040820190506107fa60008301856107d6565b6108076020830184610609565b9392505050565b60008151905061081d816106d2565b92915050565b600060208284031215610839576108386106cd565b5b60006108478482850161080e565b91505092915050565b7f4e487b7100000000000000000000000000000000000000000000000000000000600052601160045260246000fd5b600061088a826105ff565b9150610895836105ff565b9250817fffffffffffffffffffffffffffffffffffffffffffffffffffffffffffffffff04831182151516156108ce576108cd610850565b5b828202905092915050565b7f4e487b7100000000000000000000000000000000000000000000000000000000600052601260045260246000fd5b6000610913826105ff565b915061091e836105ff565b92508261092e5761092d6108d9565b5b828204905092915050565b600082825260208201905092915050565b7f756e706f737369626c65207472616e73616374696f6e00000000000000000000600082015250565b6000610980601683610939565b915061098b8261094a565b602082019050919050565b600060208201905081810360008301526109af81610973565b9050919050565b60006109c1826105ff565b91506109cc836105ff565b9250828210156109df576109de610850565b5b828203905092915050565b600081905092915050565b50565b6000610a056000836109ea565b9150610a10826109f5565b600082019050919050565b6000610a26826109f8565b9150819050919050565b7f756e61626c6520746f2073656e642076616c75652c20726563697069656e742060008201527f6d61792068617665207265766572746564000000000000000000000000000000602082015250565b6000610a8c603183610939565b9150610a9782610a30565b604082019050919050565b60006020820190508181036000830152610abb81610a7f565b905091905056fea2646970667358221220031576ae4ebf1a8b076b3d79878e92b4fd5cc4d5ccf99e3ce8c6dcc8c563fb9064736f6c634300080a0033",
					"opcodes": "PUSH1 0x80 PUSH1 0x40 MSTORE CALLVALUE DUP1 ISZERO PUSH2 0x10 JUMPI PUSH1 0x0 DUP1 REVERT JUMPDEST POP PUSH1 0x40 MLOAD PUSH2 0xC0F CODESIZE SUB DUP1 PUSH2 0xC0F DUP4 CODECOPY DUP2 DUP2 ADD PUSH1 0x40 MSTORE DUP2 ADD SWAP1 PUSH2 0x32 SWAP2 SWAP1 PUSH2 0xDB JUMP JUMPDEST DUP1 PUSH1 0x0 DUP1 PUSH2 0x100 EXP DUP2 SLOAD DUP2 PUSH20 0xFFFFFFFFFFFFFFFFFFFFFFFFFFFFFFFFFFFFFFFF MUL NOT AND SWAP1 DUP4 PUSH20 0xFFFFFFFFFFFFFFFFFFFFFFFFFFFFFFFFFFFFFFFF AND MUL OR SWAP1 SSTORE POP POP PUSH2 0x108 JUMP JUMPDEST PUSH1 0x0 DUP1 REVERT JUMPDEST PUSH1 0x0 PUSH20 0xFFFFFFFFFFFFFFFFFFFFFFFFFFFFFFFFFFFFFFFF DUP3 AND SWAP1 POP SWAP2 SWAP1 POP JUMP JUMPDEST PUSH1 0x0 PUSH2 0xA8 DUP3 PUSH2 0x7D JUMP JUMPDEST SWAP1 POP SWAP2 SWAP1 POP JUMP JUMPDEST PUSH2 0xB8 DUP2 PUSH2 0x9D JUMP JUMPDEST DUP2 EQ PUSH2 0xC3 JUMPI PUSH1 0x0 DUP1 REVERT JUMPDEST POP JUMP JUMPDEST PUSH1 0x0 DUP2 MLOAD SWAP1 POP PUSH2 0xD5 DUP2 PUSH2 0xAF JUMP JUMPDEST SWAP3 SWAP2 POP POP JUMP JUMPDEST PUSH1 0x0 PUSH1 0x20 DUP3 DUP5 SUB SLT ISZERO PUSH2 0xF1 JUMPI PUSH2 0xF0 PUSH2 0x78 JUMP JUMPDEST JUMPDEST PUSH1 0x0 PUSH2 0xFF DUP5 DUP3 DUP6 ADD PUSH2 0xC6 JUMP JUMPDEST SWAP2 POP POP SWAP3 SWAP2 POP POP JUMP JUMPDEST PUSH2 0xAF8 DUP1 PUSH2 0x117 PUSH1 0x0 CODECOPY PUSH1 0x0 RETURN INVALID PUSH1 0x80 PUSH1 0x40 MSTORE PUSH1 0x4 CALLDATASIZE LT PUSH2 0x8A JUMPI PUSH1 0x0 CALLDATALOAD PUSH1 0xE0 SHR DUP1 PUSH4 0x81782DFF GT PUSH2 0x59 JUMPI DUP1 PUSH4 0x81782DFF EQ PUSH2 0x152 JUMPI DUP1 PUSH4 0x83302A6F EQ PUSH2 0x17B JUMPI DUP1 PUSH4 0xC2117D82 EQ PUSH2 0x1A4 JUMPI DUP1 PUSH4 0xD9BBD278 EQ PUSH2 0x1CF JUMPI DUP1 PUSH4 0xFF0A42DE EQ PUSH2 0x1FA JUMPI PUSH2 0x91 JUMP JUMPDEST DUP1 PUSH4 0x34C4454 EQ PUSH2 0x96 JUMPI DUP1 PUSH4 0x872E9FF EQ PUSH2 0xC1 JUMPI DUP1 PUSH4 0x233E9903 EQ PUSH2 0xEC JUMPI DUP1 PUSH4 0x3F9DAC52 EQ PUSH2 0x115 JUMPI PUSH2 0x91 JUMP JUMPDEST CALLDATASIZE PUSH2 0x91 JUMPI STOP JUMPDEST PUSH1 0x0 DUP1 REVERT JUMPDEST CALLVALUE DUP1 ISZERO PUSH2 0xA2 JUMPI PUSH1 0x0 DUP1 REVERT JUMPDEST POP PUSH2 0xAB PUSH2 0x204 JUMP JUMPDEST PUSH1 0x40 MLOAD PUSH2 0xB8 SWAP2 SWAP1 PUSH2 0x618 JUMP JUMPDEST PUSH1 0x40 MLOAD DUP1 SWAP2 SUB SWAP1 RETURN JUMPDEST CALLVALUE DUP1 ISZERO PUSH2 0xCD JUMPI PUSH1 0x0 DUP1 REVERT JUMPDEST POP PUSH2 0xD6 PUSH2 0x20E JUMP JUMPDEST PUSH1 0x40 MLOAD PUSH2 0xE3 SWAP2 SWAP1 PUSH2 0x6B2 JUMP JUMPDEST PUSH1 0x40 MLOAD DUP1 SWAP2 SUB SWAP1 RETURN JUMPDEST CALLVALUE DUP1 ISZERO PUSH2 0xF8 JUMPI PUSH1 0x0 DUP1 REVERT JUMPDEST POP PUSH2 0x113 PUSH1 0x4 DUP1 CALLDATASIZE SUB DUP2 ADD SWAP1 PUSH2 0x10E SWAP2 SWAP1 PUSH2 0x6FE JUMP JUMPDEST PUSH2 0x232 JUMP JUMPDEST STOP JUMPDEST CALLVALUE DUP1 ISZERO PUSH2 0x121 JUMPI PUSH1 0x0 DUP1 REVERT JUMPDEST POP PUSH2 0x13C PUSH1 0x4 DUP1 CALLDATASIZE SUB DUP2 ADD SWAP1 PUSH2 0x137 SWAP2 SWAP1 PUSH2 0x769 JUMP JUMPDEST PUSH2 0x23C JUMP JUMPDEST PUSH1 0x40 MLOAD PUSH2 0x149 SWAP2 SWAP1 PUSH2 0x618 JUMP JUMPDEST PUSH1 0x40 MLOAD DUP1 SWAP2 SUB SWAP1 RETURN JUMPDEST CALLVALUE DUP1 ISZERO PUSH2 0x15E JUMPI PUSH1 0x0 DUP1 REVERT JUMPDEST POP PUSH2 0x179 PUSH1 0x4 DUP1 CALLDATASIZE SUB DUP2 ADD SWAP1 PUSH2 0x174 SWAP2 SWAP1 PUSH2 0x796 JUMP JUMPDEST PUSH2 0x243 JUMP JUMPDEST STOP JUMPDEST CALLVALUE DUP1 ISZERO PUSH2 0x187 JUMPI PUSH1 0x0 DUP1 REVERT JUMPDEST POP PUSH2 0x1A2 PUSH1 0x4 DUP1 CALLDATASIZE SUB DUP2 ADD SWAP1 PUSH2 0x19D SWAP2 SWAP1 PUSH2 0x6FE JUMP JUMPDEST PUSH2 0x38A JUMP JUMPDEST STOP JUMPDEST CALLVALUE DUP1 ISZERO PUSH2 0x1B0 JUMPI PUSH1 0x0 DUP1 REVERT JUMPDEST POP PUSH2 0x1B9 PUSH2 0x394 JUMP JUMPDEST PUSH1 0x40 MLOAD PUSH2 0x1C6 SWAP2 SWAP1 PUSH2 0x618 JUMP JUMPDEST PUSH1 0x40 MLOAD DUP1 SWAP2 SUB SWAP1 RETURN JUMPDEST CALLVALUE DUP1 ISZERO PUSH2 0x1DB JUMPI PUSH1 0x0 DUP1 REVERT JUMPDEST POP PUSH2 0x1E4 PUSH2 0x39E JUMP JUMPDEST PUSH1 0x40 MLOAD PUSH2 0x1F1 SWAP2 SWAP1 PUSH2 0x618 JUMP JUMPDEST PUSH1 0x40 MLOAD DUP1 SWAP2 SUB SWAP1 RETURN JUMPDEST PUSH2 0x202 PUSH2 0x3A8 JUMP JUMPDEST STOP JUMPDEST PUSH1 0x0 PUSH1 0x1 SLOAD SWAP1 POP SWAP1 JUMP JUMPDEST PUSH1 0x0 DUP1 SLOAD SWAP1 PUSH2 0x100 EXP SWAP1 DIV PUSH20 0xFFFFFFFFFFFFFFFFFFFFFFFFFFFFFFFFFFFFFFFF AND DUP2 JUMP JUMPDEST DUP1 PUSH1 0x1 DUP2 SWAP1 SSTORE POP POP JUMP JUMPDEST PUSH1 0x0 SWAP2 SWAP1 POP JUMP JUMPDEST PUSH1 0x0 DUP1 SLOAD SWAP1 PUSH2 0x100 EXP SWAP1 DIV PUSH20 0xFFFFFFFFFFFFFFFFFFFFFFFFFFFFFFFFFFFFFFFF AND PUSH20 0xFFFFFFFFFFFFFFFFFFFFFFFFFFFFFFFFFFFFFFFF AND PUSH4 0x9DC29FAC CALLER DUP4 PUSH1 0x40 MLOAD DUP4 PUSH4 0xFFFFFFFF AND PUSH1 0xE0 SHL DUP2 MSTORE PUSH1 0x4 ADD PUSH2 0x29E SWAP3 SWAP2 SWAP1 PUSH2 0x7E5 JUMP JUMPDEST PUSH1 0x0 PUSH1 0x40 MLOAD DUP1 DUP4 SUB DUP2 PUSH1 0x0 DUP8 DUP1 EXTCODESIZE ISZERO DUP1 ISZERO PUSH2 0x2B8 JUMPI PUSH1 0x0 DUP1 REVERT JUMPDEST POP GAS CALL ISZERO DUP1 ISZERO PUSH2 0x2CC JUMPI RETURNDATASIZE PUSH1 0x0 DUP1 RETURNDATACOPY RETURNDATASIZE PUSH1 0x0 REVERT JUMPDEST POP POP POP POP PUSH2 0x386 DUP3 PUSH1 0x0 DUP1 SLOAD SWAP1 PUSH2 0x100 EXP SWAP1 DIV PUSH20 0xFFFFFFFFFFFFFFFFFFFFFFFFFFFFFFFFFFFFFFFF AND PUSH20 0xFFFFFFFFFFFFFFFFFFFFFFFFFFFFFFFFFFFFFFFF AND PUSH4 0x71CA337D PUSH1 0x40 MLOAD DUP2 PUSH4 0xFFFFFFFF AND PUSH1 0xE0 SHL DUP2 MSTORE PUSH1 0x4 ADD PUSH1 0x20 PUSH1 0x40 MLOAD DUP1 DUP4 SUB DUP2 DUP7 GAS STATICCALL ISZERO DUP1 ISZERO PUSH2 0x33F JUMPI RETURNDATASIZE PUSH1 0x0 DUP1 RETURNDATACOPY RETURNDATASIZE PUSH1 0x0 REVERT JUMPDEST POP POP POP POP PUSH1 0x40 MLOAD RETURNDATASIZE PUSH1 0x1F NOT PUSH1 0x1F DUP3 ADD AND DUP3 ADD DUP1 PUSH1 0x40 MSTORE POP DUP2 ADD SWAP1 PUSH2 0x363 SWAP2 SWAP1 PUSH2 0x823 JUMP JUMPDEST PUSH8 0xDE0B6B3A7640000 DUP5 PUSH2 0x377 SWAP2 SWAP1 PUSH2 0x87F JUMP JUMPDEST PUSH2 0x381 SWAP2 SWAP1 PUSH2 0x908 JUMP JUMPDEST PUSH2 0x54E JUMP JUMPDEST POP POP JUMP JUMPDEST DUP1 PUSH1 0x2 DUP2 SWAP1 SSTORE POP POP JUMP JUMPDEST PUSH1 0x0 PUSH1 0x2 SLOAD SWAP1 POP SWAP1 JUMP JUMPDEST PUSH1 0x0 PUSH1 0x1 SLOAD SWAP1 POP SWAP1 JUMP JUMPDEST PUSH1 0x1 SLOAD CALLVALUE LT ISZERO DUP1 ISZERO PUSH2 0x3BB JUMPI POP PUSH1 0x2 SLOAD CALLVALUE GT JUMPDEST PUSH2 0x3FA JUMPI PUSH1 0x40 MLOAD PUSH32 0x8C379A000000000000000000000000000000000000000000000000000000000 DUP2 MSTORE PUSH1 0x4 ADD PUSH2 0x3F1 SWAP1 PUSH2 0x996 JUMP JUMPDEST PUSH1 0x40 MLOAD DUP1 SWAP2 SUB SWAP1 REVERT JUMPDEST PUSH1 0x0 PUSH1 0x2 SLOAD CALLVALUE PUSH2 0x40A SWAP2 SWAP1 PUSH2 0x9B6 JUMP JUMPDEST SWAP1 POP PUSH1 0x0 PUSH8 0xDE0B6B3A7640000 PUSH1 0x0 DUP1 SLOAD SWAP1 PUSH2 0x100 EXP SWAP1 DIV PUSH20 0xFFFFFFFFFFFFFFFFFFFFFFFFFFFFFFFFFFFFFFFF AND PUSH20 0xFFFFFFFFFFFFFFFFFFFFFFFFFFFFFFFFFFFFFFFF AND PUSH4 0x71CA337D PUSH1 0x40 MLOAD DUP2 PUSH4 0xFFFFFFFF AND PUSH1 0xE0 SHL DUP2 MSTORE PUSH1 0x4 ADD PUSH1 0x20 PUSH1 0x40 MLOAD DUP1 DUP4 SUB DUP2 DUP7 GAS STATICCALL ISZERO DUP1 ISZERO PUSH2 0x482 JUMPI RETURNDATASIZE PUSH1 0x0 DUP1 RETURNDATACOPY RETURNDATASIZE PUSH1 0x0 REVERT JUMPDEST POP POP POP POP PUSH1 0x40 MLOAD RETURNDATASIZE PUSH1 0x1F NOT PUSH1 0x1F DUP3 ADD AND DUP3 ADD DUP1 PUSH1 0x40 MSTORE POP DUP2 ADD SWAP1 PUSH2 0x4A6 SWAP2 SWAP1 PUSH2 0x823 JUMP JUMPDEST DUP4 PUSH2 0x4B1 SWAP2 SWAP1 PUSH2 0x87F JUMP JUMPDEST PUSH2 0x4BB SWAP2 SWAP1 PUSH2 0x908 JUMP JUMPDEST SWAP1 POP PUSH1 0x0 DUP1 SLOAD SWAP1 PUSH2 0x100 EXP SWAP1 DIV PUSH20 0xFFFFFFFFFFFFFFFFFFFFFFFFFFFFFFFFFFFFFFFF AND PUSH20 0xFFFFFFFFFFFFFFFFFFFFFFFFFFFFFFFFFFFFFFFF AND PUSH4 0x40C10F19 CALLER DUP4 PUSH1 0x40 MLOAD DUP4 PUSH4 0xFFFFFFFF AND PUSH1 0xE0 SHL DUP2 MSTORE PUSH1 0x4 ADD PUSH2 0x518 SWAP3 SWAP2 SWAP1 PUSH2 0x7E5 JUMP JUMPDEST PUSH1 0x0 PUSH1 0x40 MLOAD DUP1 DUP4 SUB DUP2 PUSH1 0x0 DUP8 DUP1 EXTCODESIZE ISZERO DUP1 ISZERO PUSH2 0x532 JUMPI PUSH1 0x0 DUP1 REVERT JUMPDEST POP GAS CALL ISZERO DUP1 ISZERO PUSH2 0x546 JUMPI RETURNDATASIZE PUSH1 0x0 DUP1 RETURNDATACOPY RETURNDATASIZE PUSH1 0x0 REVERT JUMPDEST POP POP POP POP POP POP JUMP JUMPDEST PUSH1 0x0 DUP3 PUSH20 0xFFFFFFFFFFFFFFFFFFFFFFFFFFFFFFFFFFFFFFFF AND DUP3 PUSH1 0x40 MLOAD PUSH2 0x574 SWAP1 PUSH2 0xA1B JUMP JUMPDEST PUSH1 0x0 PUSH1 0x40 MLOAD DUP1 DUP4 SUB DUP2 DUP6 DUP8 GAS CALL SWAP3 POP POP POP RETURNDATASIZE DUP1 PUSH1 0x0 DUP2 EQ PUSH2 0x5B1 JUMPI PUSH1 0x40 MLOAD SWAP2 POP PUSH1 0x1F NOT PUSH1 0x3F RETURNDATASIZE ADD AND DUP3 ADD PUSH1 0x40 MSTORE RETURNDATASIZE DUP3 MSTORE RETURNDATASIZE PUSH1 0x0 PUSH1 0x20 DUP5 ADD RETURNDATACOPY PUSH2 0x5B6 JUMP JUMPDEST PUSH1 0x60 SWAP2 POP JUMPDEST POP POP SWAP1 POP DUP1 PUSH2 0x5FA JUMPI PUSH1 0x40 MLOAD PUSH32 0x8C379A000000000000000000000000000000000000000000000000000000000 DUP2 MSTORE PUSH1 0x4 ADD PUSH2 0x5F1 SWAP1 PUSH2 0xAA2 JUMP JUMPDEST PUSH1 0x40 MLOAD DUP1 SWAP2 SUB SWAP1 REVERT JUMPDEST POP POP POP JUMP JUMPDEST PUSH1 0x0 DUP2 SWAP1 POP SWAP2 SWAP1 POP JUMP JUMPDEST PUSH2 0x612 DUP2 PUSH2 0x5FF JUMP JUMPDEST DUP3 MSTORE POP POP JUMP JUMPDEST PUSH1 0x0 PUSH1 0x20 DUP3 ADD SWAP1 POP PUSH2 0x62D PUSH1 0x0 DUP4 ADD DUP5 PUSH2 0x609 JUMP JUMPDEST SWAP3 SWAP2 POP POP JUMP JUMPDEST PUSH1 0x0 PUSH20 0xFFFFFFFFFFFFFFFFFFFFFFFFFFFFFFFFFFFFFFFF DUP3 AND SWAP1 POP SWAP2 SWAP1 POP JUMP JUMPDEST PUSH1 0x0 DUP2 SWAP1 POP SWAP2 SWAP1 POP JUMP JUMPDEST PUSH1 0x0 PUSH2 0x678 PUSH2 0x673 PUSH2 0x66E DUP5 PUSH2 0x633 JUMP JUMPDEST PUSH2 0x653 JUMP JUMPDEST PUSH2 0x633 JUMP JUMPDEST SWAP1 POP SWAP2 SWAP1 POP JUMP JUMPDEST PUSH1 0x0 PUSH2 0x68A DUP3 PUSH2 0x65D JUMP JUMPDEST SWAP1 POP SWAP2 SWAP1 POP JUMP JUMPDEST PUSH1 0x0 PUSH2 0x69C DUP3 PUSH2 0x67F JUMP JUMPDEST SWAP1 POP SWAP2 SWAP1 POP JUMP JUMPDEST PUSH2 0x6AC DUP2 PUSH2 0x691 JUMP JUMPDEST DUP3 MSTORE POP POP JUMP JUMPDEST PUSH1 0x0 PUSH1 0x20 DUP3 ADD SWAP1 POP PUSH2 0x6C7 PUSH1 0x0 DUP4 ADD DUP5 PUSH2 0x6A3 JUMP JUMPDEST SWAP3 SWAP2 POP POP JUMP JUMPDEST PUSH1 0x0 DUP1 REVERT JUMPDEST PUSH2 0x6DB DUP2 PUSH2 0x5FF JUMP JUMPDEST DUP2 EQ PUSH2 0x6E6 JUMPI PUSH1 0x0 DUP1 REVERT JUMPDEST POP JUMP JUMPDEST PUSH1 0x0 DUP2 CALLDATALOAD SWAP1 POP PUSH2 0x6F8 DUP2 PUSH2 0x6D2 JUMP JUMPDEST SWAP3 SWAP2 POP POP JUMP JUMPDEST PUSH1 0x0 PUSH1 0x20 DUP3 DUP5 SUB SLT ISZERO PUSH2 0x714 JUMPI PUSH2 0x713 PUSH2 0x6CD JUMP JUMPDEST JUMPDEST PUSH1 0x0 PUSH2 0x722 DUP5 DUP3 DUP6 ADD PUSH2 0x6E9 JUMP JUMPDEST SWAP2 POP POP SWAP3 SWAP2 POP POP JUMP JUMPDEST PUSH1 0x0 PUSH2 0x736 DUP3 PUSH2 0x633 JUMP JUMPDEST SWAP1 POP SWAP2 SWAP1 POP JUMP JUMPDEST PUSH2 0x746 DUP2 PUSH2 0x72B JUMP JUMPDEST DUP2 EQ PUSH2 0x751 JUMPI PUSH1 0x0 DUP1 REVERT JUMPDEST POP JUMP JUMPDEST PUSH1 0x0 DUP2 CALLDATALOAD SWAP1 POP PUSH2 0x763 DUP2 PUSH2 0x73D JUMP JUMPDEST SWAP3 SWAP2 POP POP JUMP JUMPDEST PUSH1 0x0 PUSH1 0x20 DUP3 DUP5 SUB SLT ISZERO PUSH2 0x77F JUMPI PUSH2 0x77E PUSH2 0x6CD JUMP JUMPDEST JUMPDEST PUSH1 0x0 PUSH2 0x78D DUP5 DUP3 DUP6 ADD PUSH2 0x754 JUMP JUMPDEST SWAP2 POP POP SWAP3 SWAP2 POP POP JUMP JUMPDEST PUSH1 0x0 DUP1 PUSH1 0x40 DUP4 DUP6 SUB SLT ISZERO PUSH2 0x7AD JUMPI PUSH2 0x7AC PUSH2 0x6CD JUMP JUMPDEST JUMPDEST PUSH1 0x0 PUSH2 0x7BB DUP6 DUP3 DUP7 ADD PUSH2 0x754 JUMP JUMPDEST SWAP3 POP POP PUSH1 0x20 PUSH2 0x7CC DUP6 DUP3 DUP7 ADD PUSH2 0x6E9 JUMP JUMPDEST SWAP2 POP POP SWAP3 POP SWAP3 SWAP1 POP JUMP JUMPDEST PUSH2 0x7DF DUP2 PUSH2 0x72B JUMP JUMPDEST DUP3 MSTORE POP POP JUMP JUMPDEST PUSH1 0x0 PUSH1 0x40 DUP3 ADD SWAP1 POP PUSH2 0x7FA PUSH1 0x0 DUP4 ADD DUP6 PUSH2 0x7D6 JUMP JUMPDEST PUSH2 0x807 PUSH1 0x20 DUP4 ADD DUP5 PUSH2 0x609 JUMP JUMPDEST SWAP4 SWAP3 POP POP POP JUMP JUMPDEST PUSH1 0x0 DUP2 MLOAD SWAP1 POP PUSH2 0x81D DUP2 PUSH2 0x6D2 JUMP JUMPDEST SWAP3 SWAP2 POP POP JUMP JUMPDEST PUSH1 0x0 PUSH1 0x20 DUP3 DUP5 SUB SLT ISZERO PUSH2 0x839 JUMPI PUSH2 0x838 PUSH2 0x6CD JUMP JUMPDEST JUMPDEST PUSH1 0x0 PUSH2 0x847 DUP5 DUP3 DUP6 ADD PUSH2 0x80E JUMP JUMPDEST SWAP2 POP POP SWAP3 SWAP2 POP POP JUMP JUMPDEST PUSH32 0x4E487B7100000000000000000000000000000000000000000000000000000000 PUSH1 0x0 MSTORE PUSH1 0x11 PUSH1 0x4 MSTORE PUSH1 0x24 PUSH1 0x0 REVERT JUMPDEST PUSH1 0x0 PUSH2 0x88A DUP3 PUSH2 0x5FF JUMP JUMPDEST SWAP2 POP PUSH2 0x895 DUP4 PUSH2 0x5FF JUMP JUMPDEST SWAP3 POP DUP2 PUSH32 0xFFFFFFFFFFFFFFFFFFFFFFFFFFFFFFFFFFFFFFFFFFFFFFFFFFFFFFFFFFFFFFFF DIV DUP4 GT DUP3 ISZERO ISZERO AND ISZERO PUSH2 0x8CE JUMPI PUSH2 0x8CD PUSH2 0x850 JUMP JUMPDEST JUMPDEST DUP3 DUP3 MUL SWAP1 POP SWAP3 SWAP2 POP POP JUMP JUMPDEST PUSH32 0x4E487B7100000000000000000000000000000000000000000000000000000000 PUSH1 0x0 MSTORE PUSH1 0x12 PUSH1 0x4 MSTORE PUSH1 0x24 PUSH1 0x0 REVERT JUMPDEST PUSH1 0x0 PUSH2 0x913 DUP3 PUSH2 0x5FF JUMP JUMPDEST SWAP2 POP PUSH2 0x91E DUP4 PUSH2 0x5FF JUMP JUMPDEST SWAP3 POP DUP3 PUSH2 0x92E JUMPI PUSH2 0x92D PUSH2 0x8D9 JUMP JUMPDEST JUMPDEST DUP3 DUP3 DIV SWAP1 POP SWAP3 SWAP2 POP POP JUMP JUMPDEST PUSH1 0x0 DUP3 DUP3 MSTORE PUSH1 0x20 DUP3 ADD SWAP1 POP SWAP3 SWAP2 POP POP JUMP JUMPDEST PUSH32 0x756E706F737369626C65207472616E73616374696F6E00000000000000000000 PUSH1 0x0 DUP3 ADD MSTORE POP JUMP JUMPDEST PUSH1 0x0 PUSH2 0x980 PUSH1 0x16 DUP4 PUSH2 0x939 JUMP JUMPDEST SWAP2 POP PUSH2 0x98B DUP3 PUSH2 0x94A JUMP JUMPDEST PUSH1 0x20 DUP3 ADD SWAP1 POP SWAP2 SWAP1 POP JUMP JUMPDEST PUSH1 0x0 PUSH1 0x20 DUP3 ADD SWAP1 POP DUP2 DUP2 SUB PUSH1 0x0 DUP4 ADD MSTORE PUSH2 0x9AF DUP2 PUSH2 0x973 JUMP JUMPDEST SWAP1 POP SWAP2 SWAP1 POP JUMP JUMPDEST PUSH1 0x0 PUSH2 0x9C1 DUP3 PUSH2 0x5FF JUMP JUMPDEST SWAP2 POP PUSH2 0x9CC DUP4 PUSH2 0x5FF JUMP JUMPDEST SWAP3 POP DUP3 DUP3 LT ISZERO PUSH2 0x9DF JUMPI PUSH2 0x9DE PUSH2 0x850 JUMP JUMPDEST JUMPDEST DUP3 DUP3 SUB SWAP1 POP SWAP3 SWAP2 POP POP JUMP JUMPDEST PUSH1 0x0 DUP2 SWAP1 POP SWAP3 SWAP2 POP POP JUMP JUMPDEST POP JUMP JUMPDEST PUSH1 0x0 PUSH2 0xA05 PUSH1 0x0 DUP4 PUSH2 0x9EA JUMP JUMPDEST SWAP2 POP PUSH2 0xA10 DUP3 PUSH2 0x9F5 JUMP JUMPDEST PUSH1 0x0 DUP3 ADD SWAP1 POP SWAP2 SWAP1 POP JUMP JUMPDEST PUSH1 0x0 PUSH2 0xA26 DUP3 PUSH2 0x9F8 JUMP JUMPDEST SWAP2 POP DUP2 SWAP1 POP SWAP2 SWAP1 POP JUMP JUMPDEST PUSH32 0x756E61626C6520746F2073656E642076616C75652C20726563697069656E7420 PUSH1 0x0 DUP3 ADD MSTORE PUSH32 0x6D61792068617665207265766572746564000000000000000000000000000000 PUSH1 0x20 DUP3 ADD MSTORE POP JUMP JUMPDEST PUSH1 0x0 PUSH2 0xA8C PUSH1 0x31 DUP4 PUSH2 0x939 JUMP JUMPDEST SWAP2 POP PUSH2 0xA97 DUP3 PUSH2 0xA30 JUMP JUMPDEST PUSH1 0x40 DUP3 ADD SWAP1 POP SWAP2 SWAP1 POP JUMP JUMPDEST PUSH1 0x0 PUSH1 0x20 DUP3 ADD SWAP1 POP DUP2 DUP2 SUB PUSH1 0x0 DUP4 ADD MSTORE PUSH2 0xABB DUP2 PUSH2 0xA7F JUMP JUMPDEST SWAP1 POP SWAP2 SWAP1 POP JUMP INVALID LOG2 PUSH5 0x6970667358 0x22 SLT KECCAK256 SUB ISZERO PUSH23 0xAE4EBF1A8B076B3D79878E92B4FD5CC4D5CCF99E3CE8C6 0xDC 0xC8 0xC5 PUSH4 0xFB906473 PUSH16 0x6C634300080A00330000000000000000 "
				},
				"gasEstimates": {
					"creation": {
						"codeDepositCost": "561600",
						"executionCost": "infinite",
						"totalCost": "infinite"
					},
					"external": {
						"certToken()": "infinite",
						"getMinUnstake()": "2438",
						"getMinimumStake()": "2503",
						"getRelayerFee()": "2481",
						"pendingUnstakesOf(address)": "710",
						"setMinimumStake(uint256)": "22565",
						"setRelayerFee(uint256)": "22542",
						"stakeAndClaimCerts()": "infinite",
						"unstakeCertsFor(address,uint256)": "infinite"
					},
					"internal": {
						"_sendValue(address,uint256)": "infinite"
					}
				},
				"methodIdentifiers": {
					"certToken()": "0872e9ff",
					"getMinUnstake()": "034c4454",
					"getMinimumStake()": "d9bbd278",
					"getRelayerFee()": "c2117d82",
					"pendingUnstakesOf(address)": "3f9dac52",
					"setMinimumStake(uint256)": "233e9903",
					"setRelayerFee(uint256)": "83302a6f",
					"stakeAndClaimCerts()": "ff0a42de",
					"unstakeCertsFor(address,uint256)": "81782dff"
				}
			},
			"storageLayout": {
				"storage": [
					{
						"astId": 163,
						"contract": "Heliocontracts/contracts/ceros/mocks/Pool.sol:Pool",
						"label": "certToken",
						"offset": 0,
						"slot": "0",
						"type": "t_contract(ICertToken)152"
					},
					{
						"astId": 165,
						"contract": "Heliocontracts/contracts/ceros/mocks/Pool.sol:Pool",
						"label": "minimumStake_",
						"offset": 0,
						"slot": "1",
						"type": "t_uint256"
					},
					{
						"astId": 167,
						"contract": "Heliocontracts/contracts/ceros/mocks/Pool.sol:Pool",
						"label": "relayerFee_",
						"offset": 0,
						"slot": "2",
						"type": "t_uint256"
					}
				],
				"types": {
					"t_contract(ICertToken)152": {
						"encoding": "inplace",
						"label": "contract ICertToken",
						"numberOfBytes": "20"
					},
					"t_uint256": {
						"encoding": "inplace",
						"label": "uint256",
						"numberOfBytes": "32"
					}
				}
			},
			"userdoc": {
				"kind": "user",
				"methods": {},
				"version": 1
			}
		}
	}
}