{
	"data": {
		"bytecode": {
			"linkReferences": {},
			"object": "608060405234801561001057600080fd5b50612fcd806100206000396000f3fe6080604052600436106102815760003560e01c8063a8d1dbfb1161014f578063d574ea3d116100c1578063ec1c0a991161007a578063ec1c0a9914610784578063f2fde38b1461079a578063f6326fb3146107ba578063f7b188a5146107c2578063f8ba8493146107d7578063fc7b9c18146107f757600080fd5b8063d574ea3d146106e4578063d5f63a0614610704578063d941e8ac1461071a578063ddb56b261461073a578063e322ad2b1461075a578063e941fa781461076f57600080fd5b8063b3f0067411610113578063b3f00674146105e2578063b53d095814610602578063c4c2d9b914610622578063c99f062f1461067f578063d463bc651461069f578063d4d2e7f2146106b457600080fd5b8063a8d1dbfb14610557578063abaa99161461056d578063ac18de4314610582578063ac1e5025146105a2578063af76d4bd146105c257600080fd5b80635c975abb116101f3578063767f06ae116101ac578063767f06ae146104b8578063796f69aa146104ce5780637c08b964146104ee5780638456cb591461050e5780638bc7e8c4146105235780638da5cb5b1461053957600080fd5b80635c975abb1461040957806367a527931461042d578063703bafd514610443578063715018a61461046357806372890dbd1461047857806372ff8a341461049857600080fd5b806345d34def1161024557806345d34def146103495780634782f77914610369578063490ae210146103895780634bee2ba2146103a957806352412d49146103c9578063597c8910146103e957600080fd5b806301e1d1141461028d578063085d4883146102af5780632d06177a146102e757806338d52e0f146103095780633e7628601461032957600080fd5b3661028857005b600080fd5b34801561029957600080fd5b50475b6040519081526020015b60405180910390f35b3480156102bb57600080fd5b5060d3546102cf906001600160a01b031681565b6040516001600160a01b0390911681526020016102a6565b3480156102f357600080fd5b50610307610302366004612c10565b61080d565b005b34801561031557600080fd5b5060d5546102cf906001600160a01b031681565b34801561033557600080fd5b5061029c610344366004612c2d565b610883565b34801561035557600080fd5b50610307610364366004612c6e565b610a85565b34801561037557600080fd5b5061029c610384366004612c6e565b610dd6565b34801561039557600080fd5b506103076103a4366004612c9a565b6110a8565b3480156103b557600080fd5b506103076103c4366004612c10565b611136565b3480156103d557600080fd5b5061029c6103e4366004612c10565b611188565b3480156103f557600080fd5b50610307610404366004612c10565b6111f2565b34801561041557600080fd5b5060655460ff165b60405190151581526020016102a6565b34801561043957600080fd5b5061029c60cb5481565b34801561044f57600080fd5b5060d4546102cf906001600160a01b031681565b34801561046f57600080fd5b5061030761124a565b34801561048457600080fd5b50610307610493366004612c10565b61125e565b3480156104a457600080fd5b506103076104b3366004612c6e565b6112d4565b3480156104c457600080fd5b5061029c60d05481565b3480156104da57600080fd5b506103076104e9366004612c10565b61136e565b3480156104fa57600080fd5b50610307610509366004612c10565b6113d7565b34801561051a57600080fd5b50610307611440565b34801561052f57600080fd5b5061029c60cd5481565b34801561054557600080fd5b506033546001600160a01b03166102cf565b34801561056357600080fd5b5061029c60cc5481565b34801561057957600080fd5b50610307611450565b34801561058e57600080fd5b5061030761059d366004612c10565b611617565b3480156105ae57600080fd5b506103076105bd366004612c9a565b611695565b3480156105ce57600080fd5b506103076105dd366004612c6e565b611723565b3480156105ee57600080fd5b5060d6546102cf906001600160a01b031681565b34801561060e57600080fd5b5061030761061d366004612c6e565b61175c565b34801561062e57600080fd5b5061066261063d366004612c10565b60c96020526000908152604090208054600182015460029092015460ff909116919083565b6040805193151584526020840192909252908201526060016102a6565b34801561068b57600080fd5b5060d7546102cf906001600160a01b031681565b3480156106ab57600080fd5b5061029c61179b565b3480156106c057600080fd5b5061041d6106cf366004612c10565b60ca6020526000908152604090205460ff1681565b3480156106f057600080fd5b506102cf6106ff366004612c9a565b6117c4565b34801561071057600080fd5b5061029c60cf5481565b34801561072657600080fd5b5061029c610735366004612c6e565b6117ee565b34801561074657600080fd5b50610307610755366004612c2d565b61185f565b34801561076657600080fd5b5061029c611b00565b34801561077b57600080fd5b50610307611b6e565b34801561079057600080fd5b5061029c60ce5481565b3480156107a657600080fd5b506103076107b5366004612c10565b611c7e565b61029c611cf4565b3480156107ce57600080fd5b50610307611e87565b3480156107e357600080fd5b506103076107f2366004612cb3565b611e97565b34801561080357600080fd5b5061029c60d15481565b6108156120c8565b6001600160a01b03811661082857600080fd5b6001600160a01b038116600081815260ca6020908152604091829020805460ff1916600117905590519182527f3b4a40cccf2058c593542587329dd385be4f0b588db5471fbd9598e56dd7093a91015b60405180910390a150565b6000600260975414156108b15760405162461bcd60e51b81526004016108a890612d03565b60405180910390fd5b60026097556108be612122565b6033546001600160a01b03163314806108e1575060d3546001600160a01b031633145b6108fd5760405162461bcd60e51b81526004016108a890612d3a565b600082116109495760405162461bcd60e51b81526020600482015260196024820152781a5b9d985b1a59081dda5d1a191c985dd85b08185b5bdd5b9d603a1b60448201526064016108a8565b6001600160a01b038416600090815260c960205260409020600201548211156109b45760405162461bcd60e51b815260206004820152601f60248201527f696e73756666696369656e742061737365747320696e2073747261746567790060448201526064016108a8565b60d454604051632770a7eb60e21b815233916001600160a01b031690639dc29fac906109e69084908790600401612d69565b600060405180830381600087803b158015610a0057600080fd5b505af1158015610a14573d6000803e3d6000fd5b50505050600060cd541115610a6a576000610a318460cd54612168565b60d654909150610a559087906001600160a01b0316610a508488612d98565b6121a5565b50610a618686836121a5565b92505050610a79565b610a758585856121a5565b9150505b60016097559392505050565b610a8d6120c8565b6001600160a01b038216610aa057600080fd5b60d05460d25410610af35760405162461bcd60e51b815260206004820152601760248201527f6d6178207374726174656769657320657863656564656400000000000000000060448201526064016108a8565b306001600160a01b0316826001600160a01b031663fbfa77cf6040518163ffffffff1660e01b8152600401602060405180830381865afa158015610b3b573d6000803e3d6000fd5b505050506040513d601f19601f82011682018060405250810190610b5f9190612daf565b6001600160a01b031614610ba85760405162461bcd60e51b815260206004820152601060248201526f696e76616c696420737472617465677960801b60448201526064016108a8565b6000805b60d254811015610cd857836001600160a01b031660d28281548110610bd357610bd3612dcc565b6000918252602090912001546001600160a01b03161415610c365760405162461bcd60e51b815260206004820152601760248201527f737472617465677920616c72656164792065786973747300000000000000000060448201526064016108a8565b60c9600060d28381548110610c4d57610c4d612dcc565b60009182526020808320909101546001600160a01b0316835282019290925260400190205460ff1615610cc65760c9600060d28381548110610c9157610c91612dcc565b60009182526020808320909101546001600160a01b03168352820192909252604001902060010154610cc39083612de2565b91505b80610cd081612dfa565b915050610bac565b50620f4240610ce78383612de2565b1115610d055760405162461bcd60e51b81526004016108a890612e15565b604080516060810182526001808252602080830186815260008486018181526001600160a01b038a1680835260c99094528682208651815460ff19169015151781559251838601555160029092019190915560d28054938401815590527ff2192e1030363415d7b4fb0406540a0060e8e2fc8982f3f32289379e11fa654690910180546001600160a01b031916909117905590517f2f564a83158ad1831793ad3e69257b52f39ece5d49cb0d8746708ecb9ef964da90610dc89086908690612d69565b60405180910390a150505050565b600060026097541415610dfb5760405162461bcd60e51b81526004016108a890612d03565b6002609755610e08612122565b6033546001600160a01b0316331480610e2b575060d3546001600160a01b031633145b610e475760405162461bcd60e51b81526004016108a890612d3a565b60d454604051632770a7eb60e21b815233916001600160a01b031690639dc29fac90610e799084908790600401612d69565b600060405180830381600087803b158015610e9357600080fd5b505af1158015610ea7573d6000803e3d6000fd5b505050506000610eb561179b565b9050610ec38460cd54612168565b9250610ecf8385612d98565b60cf6000828254610ee09190612de2565b909155505082811015610fde576000856001600160a01b03168260405160006040518083038185875af1925050503d8060008114610f3a576040519150601f19603f3d011682016040523d82523d6000602084013e610f3f565b606091505b5050905080610f605760405162461bcd60e51b81526004016108a890612e59565b6000610f7587610f708588612d98565b6122a4565b9050610f818386612d98565b811115610fcb5760405162461bcd60e51b81526020600482015260186024820152771a5b9d985b1a59081dda5d1a191c985ddb88185b5bdd5b9d60421b60448201526064016108a8565b610fd58184612de2565b94505050611053565b6000856001600160a01b03168460405160006040518083038185875af1925050503d806000811461102b576040519150601f19603f3d011682016040523d82523d6000602084013e611030565b606091505b50509050806110515760405162461bcd60e51b81526004016108a890612e59565b505b60408051858152602081018590526001600160a01b03841691829182917ffbde797d201c681b91056529119e0b02407c7bb96a4a2c75c01fc9667232c8db910160405180910390a45050600160975592915050565b6110b06120c8565b8060cc54116111015760405162461bcd60e51b815260206004820152601760248201527f6d6f7265207468616e206d61784465706f73697446656500000000000000000060448201526064016108a8565b60cb8190556040518181527f2a6f1084651542f3142c70f4c43c096d016a8b517c063660b146268f646ea43a90602001610878565b33600090815260ca602052604090205460ff166111655760405162461bcd60e51b81526004016108a890612e82565b600061116f61179b565b905061117b8282612492565b61118457600080fd5b5050565b6000816001600160a01b0316636b0f1c816040518163ffffffff1660e01b8152600401602060405180830381865afa1580156111c8573d6000803e3d6000fd5b505050506040513d601f19601f820116820180604052508101906111ec9190612eb0565b92915050565b33600090815260ca602052604090205460ff166112215760405162461bcd60e51b81526004016108a890612e82565b6001600160a01b038116600090815260c9602052604090206002015461118490829030906126b5565b6112526120c8565b61125c60006128a7565b565b33600090815260ca602052604090205460ff1661128d5760405162461bcd60e51b81526004016108a890612e82565b611296816128f9565b1561129e5750565b6001600160a01b038116600090815260c960205260409020600201546112c790829030906126b5565b50611184816128f9565b50565b6112dc6120c8565b6001600160a01b0382166112ef57600080fd5b6001600160a01b038216600090815260c96020526040902060010181905561131561294a565b6113315760405162461bcd60e51b81526004016108a890612e15565b7f12550b3055a78afe91da1a02a6e99583200fe1b2f7f571269bb013ff3f7c05e88282604051611362929190612d69565b60405180910390a15050565b6113766120c8565b6001600160a01b03811661138957600080fd5b60d380546001600160a01b0319166001600160a01b0383169081179091556040519081527fa480657dfd615e3ba406b865a0da683507aeeb1b3e8206eb2c080bc1c0b23e8290602001610878565b6113df6120c8565b6001600160a01b0381166113f257600080fd5b60d680546001600160a01b0319166001600160a01b0383169081179091556040519081527f647672599d3468abcfa241a13c9e3d34383caadb5cc80fb67c3cdfcd5f78605990602001610878565b6114486120c8565b61125c612a08565b33600090815260ca602052604090205460ff1661147f5760405162461bcd60e51b81526004016108a890612e82565b60005b60d25460ff821610156112d15760c9600060d28360ff16815481106114a9576114a9612dcc565b60009182526020808320909101546001600160a01b0316835282019290925260400190205460ff161561160557600060c9600060d28460ff16815481106114f2576114f2612dcc565b60009182526020808320909101546001600160a01b0316835282810193909352604091820190208151606081018352815460ff16151581526001820154938101849052600290910154918101919091529150801561160257600060d15461155761179b565b6115619190612de2565b90506000818460400151620f42406115799190612ec9565b6115839190612ee8565b9050828110156115ff576040840151600090620f42406115a38686612ec9565b6115ad9190612ee8565b6115b79190612d98565b9050806115c261179b565b106115fd576115fb60d28760ff16815481106115e0576115e0612dcc565b6000918252602090912001546001600160a01b031682612492565b505b505b50505b50505b8061160f81612f0a565b915050611482565b61161f6120c8565b6001600160a01b038116600090815260ca602052604090205460ff1661164457600080fd5b6001600160a01b038116600081815260ca6020908152604091829020805460ff1916905590519182527fef69f7d97228658c92417be1b16b19058315de71fecb435d07b7d23728b6bd319101610878565b61169d6120c8565b8060ce54116116ee5760405162461bcd60e51b815260206004820152601a60248201527f6d6f7265207468616e206d61785769746864726177616c46656500000000000060448201526064016108a8565b60cd8190556040518181527ffc1353e6b18ce07b5a979c8edf77a87455939a17a9eebbb084dcde5bfb3b19ac90602001610878565b33600090815260ca602052604090205460ff166117525760405162461bcd60e51b81526004016108a890612e82565b61117b8282612492565b33600090815260ca602052604090205460ff1661178b5760405162461bcd60e51b81526004016108a890612e82565b6117968230836126b5565b505050565b600060cf546117a74790565b116117b25750600090565b60cf546117bf9047612d98565b905090565b60d281815481106117d457600080fd5b6000918252602090912001546001600160a01b0316905081565b604051624bad4360e01b8152600481018290526000906001600160a01b03841690624bad4390602401602060405180830381865afa158015611834573d6000803e3d6000fd5b505050506040513d601f19601f820116820180604052508101906118589190612eb0565b9392505050565b33600090815260ca602052604090205460ff1661188e5760405162461bcd60e51b81526004016108a890612e82565b6001600160a01b0383166118a157600080fd5b6001600160a01b0382166118b457600080fd5b6001600160a01b038316600090815260c960205260409020600201548015611953576001600160a01b038416600090815260c960205260408120600201546118ff90869030906126b5565b9050600081116119515760405162461bcd60e51b815260206004820152601d60248201527f63616e6e6f742077697468647261772066726f6d20737472617465677900000060448201526064016108a8565b505b604080516060810182526001815260208101849052600091810182905290805b60d254811015611a3b57866001600160a01b031660d2828154811061199a5761199a612dcc565b6000918252602090912001546001600160a01b03161415611a2957600191508560d282815481106119cd576119cd612dcc565b600091825260208083209190910180546001600160a01b0319166001600160a01b03948516179055918816815260c982526040908190208551815460ff1916901515178155918501516001830155840151600290910155611a3b565b80611a3381612dfa565b915050611973565b5080611a895760405162461bcd60e51b815260206004820152601b60248201527f696e76616c6964206f6c6453747261746567792061646472657373000000000060448201526064016108a8565b611a9161294a565b611aad5760405162461bcd60e51b81526004016108a890612e15565b604080516001600160a01b038089168252871660208201529081018590527ff55572e1238e3cef1cce627268598c0bcdc71b7316311157752ae0a2e920998c9060600160405180910390a1505050505050565b6000805b60d25460ff82161015611b5b5760d28160ff1681548110611b2757611b27612dcc565b600091825260209091200154611b47906001600160a01b03163183612de2565b915080611b5381612f0a565b915050611b04565b50611b6461179b565b6117bf9082612de2565b60026097541415611b915760405162461bcd60e51b81526004016108a890612d03565b6002609755611b9e6120c8565b600060cf54118015611bb2575060cf544710155b15611c7757600060cf81905560d6546040516001600160a01b039091169082908181818181875af1925050503d8060008114611c0a576040519150601f19603f3d011682016040523d82523d6000602084013e611c0f565b606091505b5050905080611c305760405162461bcd60e51b81526004016108a890612e59565b60d65460cf546040519081526001600160a01b03909116907f20ca5094f3a20c321cbe4123d0f01b276b81df0fa24cd4d83d9253956035d8639060200160405180910390a2505b6001609755565b611c866120c8565b6001600160a01b038116611ceb5760405162461bcd60e51b815260206004820152602660248201527f4f776e61626c653a206e6577206f776e657220697320746865207a65726f206160448201526564647265737360d01b60648201526084016108a8565b6112d1816128a7565b600060026097541415611d195760405162461bcd60e51b81526004016108a890612d03565b6002609755611d26612122565b6033546001600160a01b0316331480611d49575060d3546001600160a01b031633145b611d655760405162461bcd60e51b81526004016108a890612d3a565b333480611da55760405162461bcd60e51b815260206004820152600e60248201526d1a5b9d985b1a5908185b5bdd5b9d60921b60448201526064016108a8565b611db18160cb54612168565b9250611dbd8382612d98565b60cf6000828254611dce9190612de2565b909155505060d4546040516340c10f1960e01b81526001600160a01b03909116906340c10f1990611e059085908790600401612d69565b600060405180830381600087803b158015611e1f57600080fd5b505af1158015611e33573d6000803e3d6000fd5b505060408051848152602081018790526001600160a01b03861693508392507fdcbc1c05240f31ff3ad067ef1ee35ce4997762752e3a095284754544f4c709d7910160405180910390a35050600160975590565b611e8f6120c8565b61125c612a62565b600054610100900460ff1615808015611eb75750600054600160ff909116105b80611ed15750303b158015611ed1575060005460ff166001145b611f345760405162461bcd60e51b815260206004820152602e60248201527f496e697469616c697a61626c653a20636f6e747261637420697320616c72656160448201526d191e481a5b9a5d1a585b1a5e995960921b60648201526084016108a8565b6000805460ff191660011790558015611f57576000805461ff0019166101001790555b600085118015611f6a5750620f42408511155b611fae5760405162461bcd60e51b8152602060048201526015602482015274696e76616c6964206d61784465706f73697446656560581b60448201526064016108a8565b600084118015611fc15750620f42408411155b61200d5760405162461bcd60e51b815260206004820152601960248201527f696e76616c6964206d61785769746864726177616c466565730000000000000060448201526064016108a8565b612015612a9b565b61201d612aca565b612025612af9565b33600081815260ca60205260409020805460ff1916600117905560cc86905560ce85905560ff841660d05560d680546001600160a01b0319908116909217905560d480546001600160a01b038516921691909117905580156120c1576000805461ff0019169055604051600181527f7f26b83ff96e1f2b6a682f133852f6798a09c465da95921460cefb38474024989060200160405180910390a15b5050505050565b6033546001600160a01b0316331461125c5760405162461bcd60e51b815260206004820181905260248201527f4f776e61626c653a2063616c6c6572206973206e6f7420746865206f776e657260448201526064016108a8565b60655460ff161561125c5760405162461bcd60e51b815260206004820152601060248201526f14185d5cd8589b194e881c185d5cd95960821b60448201526064016108a8565b6000811561219e576000620f42406121808486612ec9565b61218a9190612ee8565b90506121968185612d98565b9150506111ec565b50816111ec565b600080846001600160a01b031663be19b9c585856040518363ffffffff1660e01b81526004016121d6929190612d69565b6020604051808303816000875af11580156121f5573d6000803e3d6000fd5b505050506040513d601f19601f820116820180604052508101906122199190612eb0565b90508260d1600082825461222d9190612d98565b90915550506001600160a01b038516600090815260c960205260408120600201805485929061225d908490612d98565b90915550506040517ff40c4f28536139446cdedffe635e5fc0de1986a5ae5f1636ab5f6b44c23468ab906122949087908690612d69565b60405180910390a1949350505050565b6000805b60d25460ff8216101561248b5760c9600060d28360ff16815481106122cf576122cf612dcc565b60009182526020808320909101546001600160a01b0316835282019290925260400190205460ff1680156123445750600060c9600060d28460ff168154811061231a5761231a612dcc565b60009182526020808320909101546001600160a01b03168352820192909252604001902060020154115b801561234f57508282105b156124795761235e8284612d98565b60c9600060d28460ff168154811061237857612378612dcc565b60009182526020808320909101546001600160a01b03168352820192909252604001902060020154106123ed576123e360d28260ff16815481106123be576123be612dcc565b6000918252602090912001546001600160a01b0316856123de8587612d98565b6126b5565b6121969083612de2565b61246c60d28260ff168154811061240657612406612dcc565b9060005260206000200160009054906101000a90046001600160a01b03168560c9600060d28660ff168154811061243f5761243f612dcc565b60009182526020808320909101546001600160a01b031683528201929092526040019020600201546126b5565b6124769083612de2565b91505b8061248381612f0a565b9150506122a8565b5092915050565b60008082116124dc5760405162461bcd60e51b81526020600482015260166024820152751a5b9d985b1a590819195c1bdcda5d08185b5bdd5b9d60521b60448201526064016108a8565b816124e561179b565b101561252a5760405162461bcd60e51b8152602060048201526014602482015273696e73756666696369656e742062616c616e636560601b60448201526064016108a8565b6001600160a01b038316600090815260c9602052604090205460ff1680156125b65750604051631ca21dc760e11b8152600481018390526001600160a01b038416906339443b8e90602401602060405180830381865afa158015612592573d6000803e3d6000fd5b505050506040513d601f19601f820116820180604052508101906125b69190612f2a565b156111ec576000836001600160a01b031663d0e30db0846040518263ffffffff1660e01b815260040160206040518083038185885af11580156125fd573d6000803e3d6000fd5b50505050506040513d601f19601f820116820180604052508101906126229190612eb0565b9050801561248b578060d1600082825461263c9190612de2565b90915550506001600160a01b038416600090815260c960205260408120600201805483929061266c908490612de2565b90915550506040517ff47c2ba90b71ef36b592a780f1d750d3a480494fdc7c9b84bb3f9d8de8a1b40a906126a39086908690612d69565b60405180910390a160019150506111ec565b60008082116127025760405162461bcd60e51b81526020600482015260196024820152781a5b9d985b1a59081dda5d1a191c985dd85b08185b5bdd5b9d603a1b60448201526064016108a8565b6001600160a01b038416600090815260c9602052604090206002015482111561276d5760405162461bcd60e51b815260206004820152601f60248201527f696e73756666696369656e742061737365747320696e2073747261746567790060448201526064016108a8565b60405163f3fef3a360e01b81526000906001600160a01b0386169063f3fef3a39061279e9087908790600401612d69565b6020604051808303816000875af11580156127bd573d6000803e3d6000fd5b505050506040513d601f19601f820116820180604052508101906127e19190612eb0565b90508281111561282e5760405162461bcd60e51b81526020600482015260186024820152771a5b9d985b1a59081dda5d1a191c985ddb88185b5bdd5b9d60421b60448201526064016108a8565b8260d160008282546128409190612d98565b90915550506001600160a01b038516600090815260c9602052604081206002018054859290612870908490612d98565b90915550506040517fd442d8f1594fc5996caed833eb6135a4c223a05bdbed778c0d8415a52eb87fea906122949087908690612d69565b603380546001600160a01b038381166001600160a01b0319831681179093556040519116919082907f8be0079c531659141344cd1fd0a4f28419497f9722a3daafe3b4186f6b6457e090600090a35050565b6001600160a01b038116600090815260c96020526040812060020154600a1061294557506001600160a01b0316600090815260c960205260408120805460ff1916815560020155600190565b919050565b60008060005b60d2548110156129fc5760c9600060d2838154811061297157612971612dcc565b60009182526020808320909101546001600160a01b0316835282019290925260400190205460ff16156129ea5760c9600060d283815481106129b5576129b5612dcc565b60009182526020808320909101546001600160a01b031683528201929092526040019020600101546129e79083612de2565b91505b806129f481612dfa565b915050612950565b50620f42401015919050565b612a10612122565b6065805460ff191660011790557f62e78cea01bee320cd4e420270b5ea74000d11b0c9f74754ebdbfc544b05a258612a453390565b6040516001600160a01b03909116815260200160405180910390a1565b612a6a612b28565b6065805460ff191690557f5db9ee0a495bf2e6ff9c91a7834c1ba4fdd244a5e8aa4e537bd38aeae4b073aa33612a45565b600054610100900460ff16612ac25760405162461bcd60e51b81526004016108a890612f4c565b61125c612b71565b600054610100900460ff16612af15760405162461bcd60e51b81526004016108a890612f4c565b61125c612ba1565b600054610100900460ff16612b205760405162461bcd60e51b81526004016108a890612f4c565b61125c612bd4565b60655460ff1661125c5760405162461bcd60e51b815260206004820152601460248201527314185d5cd8589b194e881b9bdd081c185d5cd95960621b60448201526064016108a8565b600054610100900460ff16612b985760405162461bcd60e51b81526004016108a890612f4c565b61125c336128a7565b600054610100900460ff16612bc85760405162461bcd60e51b81526004016108a890612f4c565b6065805460ff19169055565b600054610100900460ff16611c775760405162461bcd60e51b81526004016108a890612f4c565b6001600160a01b03811681146112d157600080fd5b600060208284031215612c2257600080fd5b813561185881612bfb565b600080600060608486031215612c4257600080fd5b8335612c4d81612bfb565b92506020840135612c5d81612bfb565b929592945050506040919091013590565b60008060408385031215612c8157600080fd5b8235612c8c81612bfb565b946020939093013593505050565b600060208284031215612cac57600080fd5b5035919050565b60008060008060808587031215612cc957600080fd5b8435935060208501359250604085013560ff81168114612ce857600080fd5b91506060850135612cf881612bfb565b939692955090935050565b6020808252601f908201527f5265656e7472616e637947756172643a207265656e7472616e742063616c6c00604082015260600190565b602080825260159082015274141c9bdd9a59195c8e881b9bdd08185b1b1bddd959605a1b604082015260600190565b6001600160a01b03929092168252602082015260400190565b634e487b7160e01b600052601160045260246000fd5b600082821015612daa57612daa612d82565b500390565b600060208284031215612dc157600080fd5b815161185881612bfb565b634e487b7160e01b600052603260045260246000fd5b60008219821115612df557612df5612d82565b500190565b6000600019821415612e0e57612e0e612d82565b5060010190565b60208082526024908201527f616c6c6f636174696f6e732063616e6e6f74206265206d6f7265207468616e206040820152633130302560e01b606082015260800190565b6020808252600f908201526e1d1c985b9cd9995c8819985a5b1959608a1b604082015260600190565b60208082526014908201527313585b9859d95c8e881b9bdd08185b1b1bddd95960621b604082015260600190565b600060208284031215612ec257600080fd5b5051919050565b6000816000190483118215151615612ee357612ee3612d82565b500290565b600082612f0557634e487b7160e01b600052601260045260246000fd5b500490565b600060ff821660ff811415612f2157612f21612d82565b60010192915050565b600060208284031215612f3c57600080fd5b8151801515811461185857600080fd5b6020808252602b908201527f496e697469616c697a61626c653a20636f6e7472616374206973206e6f74206960408201526a6e697469616c697a696e6760a81b60608201526080019056fea264697066735822122000bc88f65ca4f436cebfc118dfc6d46b9fbc0aba2d0e3a8461b8cdab5bf095fd64736f6c634300080a0033",
			"opcodes": "PUSH1 0x80 PUSH1 0x40 MSTORE CALLVALUE DUP1 ISZERO PUSH2 0x10 JUMPI PUSH1 0x0 DUP1 REVERT JUMPDEST POP PUSH2 0x2FCD DUP1 PUSH2 0x20 PUSH1 0x0 CODECOPY PUSH1 0x0 RETURN INVALID PUSH1 0x80 PUSH1 0x40 MSTORE PUSH1 0x4 CALLDATASIZE LT PUSH2 0x281 JUMPI PUSH1 0x0 CALLDATALOAD PUSH1 0xE0 SHR DUP1 PUSH4 0xA8D1DBFB GT PUSH2 0x14F JUMPI DUP1 PUSH4 0xD574EA3D GT PUSH2 0xC1 JUMPI DUP1 PUSH4 0xEC1C0A99 GT PUSH2 0x7A JUMPI DUP1 PUSH4 0xEC1C0A99 EQ PUSH2 0x784 JUMPI DUP1 PUSH4 0xF2FDE38B EQ PUSH2 0x79A JUMPI DUP1 PUSH4 0xF6326FB3 EQ PUSH2 0x7BA JUMPI DUP1 PUSH4 0xF7B188A5 EQ PUSH2 0x7C2 JUMPI DUP1 PUSH4 0xF8BA8493 EQ PUSH2 0x7D7 JUMPI DUP1 PUSH4 0xFC7B9C18 EQ PUSH2 0x7F7 JUMPI PUSH1 0x0 DUP1 REVERT JUMPDEST DUP1 PUSH4 0xD574EA3D EQ PUSH2 0x6E4 JUMPI DUP1 PUSH4 0xD5F63A06 EQ PUSH2 0x704 JUMPI DUP1 PUSH4 0xD941E8AC EQ PUSH2 0x71A JUMPI DUP1 PUSH4 0xDDB56B26 EQ PUSH2 0x73A JUMPI DUP1 PUSH4 0xE322AD2B EQ PUSH2 0x75A JUMPI DUP1 PUSH4 0xE941FA78 EQ PUSH2 0x76F JUMPI PUSH1 0x0 DUP1 REVERT JUMPDEST DUP1 PUSH4 0xB3F00674 GT PUSH2 0x113 JUMPI DUP1 PUSH4 0xB3F00674 EQ PUSH2 0x5E2 JUMPI DUP1 PUSH4 0xB53D0958 EQ PUSH2 0x602 JUMPI DUP1 PUSH4 0xC4C2D9B9 EQ PUSH2 0x622 JUMPI DUP1 PUSH4 0xC99F062F EQ PUSH2 0x67F JUMPI DUP1 PUSH4 0xD463BC65 EQ PUSH2 0x69F JUMPI DUP1 PUSH4 0xD4D2E7F2 EQ PUSH2 0x6B4 JUMPI PUSH1 0x0 DUP1 REVERT JUMPDEST DUP1 PUSH4 0xA8D1DBFB EQ PUSH2 0x557 JUMPI DUP1 PUSH4 0xABAA9916 EQ PUSH2 0x56D JUMPI DUP1 PUSH4 0xAC18DE43 EQ PUSH2 0x582 JUMPI DUP1 PUSH4 0xAC1E5025 EQ PUSH2 0x5A2 JUMPI DUP1 PUSH4 0xAF76D4BD EQ PUSH2 0x5C2 JUMPI PUSH1 0x0 DUP1 REVERT JUMPDEST DUP1 PUSH4 0x5C975ABB GT PUSH2 0x1F3 JUMPI DUP1 PUSH4 0x767F06AE GT PUSH2 0x1AC JUMPI DUP1 PUSH4 0x767F06AE EQ PUSH2 0x4B8 JUMPI DUP1 PUSH4 0x796F69AA EQ PUSH2 0x4CE JUMPI DUP1 PUSH4 0x7C08B964 EQ PUSH2 0x4EE JUMPI DUP1 PUSH4 0x8456CB59 EQ PUSH2 0x50E JUMPI DUP1 PUSH4 0x8BC7E8C4 EQ PUSH2 0x523 JUMPI DUP1 PUSH4 0x8DA5CB5B EQ PUSH2 0x539 JUMPI PUSH1 0x0 DUP1 REVERT JUMPDEST DUP1 PUSH4 0x5C975ABB EQ PUSH2 0x409 JUMPI DUP1 PUSH4 0x67A52793 EQ PUSH2 0x42D JUMPI DUP1 PUSH4 0x703BAFD5 EQ PUSH2 0x443 JUMPI DUP1 PUSH4 0x715018A6 EQ PUSH2 0x463 JUMPI DUP1 PUSH4 0x72890DBD EQ PUSH2 0x478 JUMPI DUP1 PUSH4 0x72FF8A34 EQ PUSH2 0x498 JUMPI PUSH1 0x0 DUP1 REVERT JUMPDEST DUP1 PUSH4 0x45D34DEF GT PUSH2 0x245 JUMPI DUP1 PUSH4 0x45D34DEF EQ PUSH2 0x349 JUMPI DUP1 PUSH4 0x4782F779 EQ PUSH2 0x369 JUMPI DUP1 PUSH4 0x490AE210 EQ PUSH2 0x389 JUMPI DUP1 PUSH4 0x4BEE2BA2 EQ PUSH2 0x3A9 JUMPI DUP1 PUSH4 0x52412D49 EQ PUSH2 0x3C9 JUMPI DUP1 PUSH4 0x597C8910 EQ PUSH2 0x3E9 JUMPI PUSH1 0x0 DUP1 REVERT JUMPDEST DUP1 PUSH4 0x1E1D114 EQ PUSH2 0x28D JUMPI DUP1 PUSH4 0x85D4883 EQ PUSH2 0x2AF JUMPI DUP1 PUSH4 0x2D06177A EQ PUSH2 0x2E7 JUMPI DUP1 PUSH4 0x38D52E0F EQ PUSH2 0x309 JUMPI DUP1 PUSH4 0x3E762860 EQ PUSH2 0x329 JUMPI PUSH1 0x0 DUP1 REVERT JUMPDEST CALLDATASIZE PUSH2 0x288 JUMPI STOP JUMPDEST PUSH1 0x0 DUP1 REVERT JUMPDEST CALLVALUE DUP1 ISZERO PUSH2 0x299 JUMPI PUSH1 0x0 DUP1 REVERT JUMPDEST POP SELFBALANCE JUMPDEST PUSH1 0x40 MLOAD SWAP1 DUP2 MSTORE PUSH1 0x20 ADD JUMPDEST PUSH1 0x40 MLOAD DUP1 SWAP2 SUB SWAP1 RETURN JUMPDEST CALLVALUE DUP1 ISZERO PUSH2 0x2BB JUMPI PUSH1 0x0 DUP1 REVERT JUMPDEST POP PUSH1 0xD3 SLOAD PUSH2 0x2CF SWAP1 PUSH1 0x1 PUSH1 0x1 PUSH1 0xA0 SHL SUB AND DUP2 JUMP JUMPDEST PUSH1 0x40 MLOAD PUSH1 0x1 PUSH1 0x1 PUSH1 0xA0 SHL SUB SWAP1 SWAP2 AND DUP2 MSTORE PUSH1 0x20 ADD PUSH2 0x2A6 JUMP JUMPDEST CALLVALUE DUP1 ISZERO PUSH2 0x2F3 JUMPI PUSH1 0x0 DUP1 REVERT JUMPDEST POP PUSH2 0x307 PUSH2 0x302 CALLDATASIZE PUSH1 0x4 PUSH2 0x2C10 JUMP JUMPDEST PUSH2 0x80D JUMP JUMPDEST STOP JUMPDEST CALLVALUE DUP1 ISZERO PUSH2 0x315 JUMPI PUSH1 0x0 DUP1 REVERT JUMPDEST POP PUSH1 0xD5 SLOAD PUSH2 0x2CF SWAP1 PUSH1 0x1 PUSH1 0x1 PUSH1 0xA0 SHL SUB AND DUP2 JUMP JUMPDEST CALLVALUE DUP1 ISZERO PUSH2 0x335 JUMPI PUSH1 0x0 DUP1 REVERT JUMPDEST POP PUSH2 0x29C PUSH2 0x344 CALLDATASIZE PUSH1 0x4 PUSH2 0x2C2D JUMP JUMPDEST PUSH2 0x883 JUMP JUMPDEST CALLVALUE DUP1 ISZERO PUSH2 0x355 JUMPI PUSH1 0x0 DUP1 REVERT JUMPDEST POP PUSH2 0x307 PUSH2 0x364 CALLDATASIZE PUSH1 0x4 PUSH2 0x2C6E JUMP JUMPDEST PUSH2 0xA85 JUMP JUMPDEST CALLVALUE DUP1 ISZERO PUSH2 0x375 JUMPI PUSH1 0x0 DUP1 REVERT JUMPDEST POP PUSH2 0x29C PUSH2 0x384 CALLDATASIZE PUSH1 0x4 PUSH2 0x2C6E JUMP JUMPDEST PUSH2 0xDD6 JUMP JUMPDEST CALLVALUE DUP1 ISZERO PUSH2 0x395 JUMPI PUSH1 0x0 DUP1 REVERT JUMPDEST POP PUSH2 0x307 PUSH2 0x3A4 CALLDATASIZE PUSH1 0x4 PUSH2 0x2C9A JUMP JUMPDEST PUSH2 0x10A8 JUMP JUMPDEST CALLVALUE DUP1 ISZERO PUSH2 0x3B5 JUMPI PUSH1 0x0 DUP1 REVERT JUMPDEST POP PUSH2 0x307 PUSH2 0x3C4 CALLDATASIZE PUSH1 0x4 PUSH2 0x2C10 JUMP JUMPDEST PUSH2 0x1136 JUMP JUMPDEST CALLVALUE DUP1 ISZERO PUSH2 0x3D5 JUMPI PUSH1 0x0 DUP1 REVERT JUMPDEST POP PUSH2 0x29C PUSH2 0x3E4 CALLDATASIZE PUSH1 0x4 PUSH2 0x2C10 JUMP JUMPDEST PUSH2 0x1188 JUMP JUMPDEST CALLVALUE DUP1 ISZERO PUSH2 0x3F5 JUMPI PUSH1 0x0 DUP1 REVERT JUMPDEST POP PUSH2 0x307 PUSH2 0x404 CALLDATASIZE PUSH1 0x4 PUSH2 0x2C10 JUMP JUMPDEST PUSH2 0x11F2 JUMP JUMPDEST CALLVALUE DUP1 ISZERO PUSH2 0x415 JUMPI PUSH1 0x0 DUP1 REVERT JUMPDEST POP PUSH1 0x65 SLOAD PUSH1 0xFF AND JUMPDEST PUSH1 0x40 MLOAD SWAP1 ISZERO ISZERO DUP2 MSTORE PUSH1 0x20 ADD PUSH2 0x2A6 JUMP JUMPDEST CALLVALUE DUP1 ISZERO PUSH2 0x439 JUMPI PUSH1 0x0 DUP1 REVERT JUMPDEST POP PUSH2 0x29C PUSH1 0xCB SLOAD DUP2 JUMP JUMPDEST CALLVALUE DUP1 ISZERO PUSH2 0x44F JUMPI PUSH1 0x0 DUP1 REVERT JUMPDEST POP PUSH1 0xD4 SLOAD PUSH2 0x2CF SWAP1 PUSH1 0x1 PUSH1 0x1 PUSH1 0xA0 SHL SUB AND DUP2 JUMP JUMPDEST CALLVALUE DUP1 ISZERO PUSH2 0x46F JUMPI PUSH1 0x0 DUP1 REVERT JUMPDEST POP PUSH2 0x307 PUSH2 0x124A JUMP JUMPDEST CALLVALUE DUP1 ISZERO PUSH2 0x484 JUMPI PUSH1 0x0 DUP1 REVERT JUMPDEST POP PUSH2 0x307 PUSH2 0x493 CALLDATASIZE PUSH1 0x4 PUSH2 0x2C10 JUMP JUMPDEST PUSH2 0x125E JUMP JUMPDEST CALLVALUE DUP1 ISZERO PUSH2 0x4A4 JUMPI PUSH1 0x0 DUP1 REVERT JUMPDEST POP PUSH2 0x307 PUSH2 0x4B3 CALLDATASIZE PUSH1 0x4 PUSH2 0x2C6E JUMP JUMPDEST PUSH2 0x12D4 JUMP JUMPDEST CALLVALUE DUP1 ISZERO PUSH2 0x4C4 JUMPI PUSH1 0x0 DUP1 REVERT JUMPDEST POP PUSH2 0x29C PUSH1 0xD0 SLOAD DUP2 JUMP JUMPDEST CALLVALUE DUP1 ISZERO PUSH2 0x4DA JUMPI PUSH1 0x0 DUP1 REVERT JUMPDEST POP PUSH2 0x307 PUSH2 0x4E9 CALLDATASIZE PUSH1 0x4 PUSH2 0x2C10 JUMP JUMPDEST PUSH2 0x136E JUMP JUMPDEST CALLVALUE DUP1 ISZERO PUSH2 0x4FA JUMPI PUSH1 0x0 DUP1 REVERT JUMPDEST POP PUSH2 0x307 PUSH2 0x509 CALLDATASIZE PUSH1 0x4 PUSH2 0x2C10 JUMP JUMPDEST PUSH2 0x13D7 JUMP JUMPDEST CALLVALUE DUP1 ISZERO PUSH2 0x51A JUMPI PUSH1 0x0 DUP1 REVERT JUMPDEST POP PUSH2 0x307 PUSH2 0x1440 JUMP JUMPDEST CALLVALUE DUP1 ISZERO PUSH2 0x52F JUMPI PUSH1 0x0 DUP1 REVERT JUMPDEST POP PUSH2 0x29C PUSH1 0xCD SLOAD DUP2 JUMP JUMPDEST CALLVALUE DUP1 ISZERO PUSH2 0x545 JUMPI PUSH1 0x0 DUP1 REVERT JUMPDEST POP PUSH1 0x33 SLOAD PUSH1 0x1 PUSH1 0x1 PUSH1 0xA0 SHL SUB AND PUSH2 0x2CF JUMP JUMPDEST CALLVALUE DUP1 ISZERO PUSH2 0x563 JUMPI PUSH1 0x0 DUP1 REVERT JUMPDEST POP PUSH2 0x29C PUSH1 0xCC SLOAD DUP2 JUMP JUMPDEST CALLVALUE DUP1 ISZERO PUSH2 0x579 JUMPI PUSH1 0x0 DUP1 REVERT JUMPDEST POP PUSH2 0x307 PUSH2 0x1450 JUMP JUMPDEST CALLVALUE DUP1 ISZERO PUSH2 0x58E JUMPI PUSH1 0x0 DUP1 REVERT JUMPDEST POP PUSH2 0x307 PUSH2 0x59D CALLDATASIZE PUSH1 0x4 PUSH2 0x2C10 JUMP JUMPDEST PUSH2 0x1617 JUMP JUMPDEST CALLVALUE DUP1 ISZERO PUSH2 0x5AE JUMPI PUSH1 0x0 DUP1 REVERT JUMPDEST POP PUSH2 0x307 PUSH2 0x5BD CALLDATASIZE PUSH1 0x4 PUSH2 0x2C9A JUMP JUMPDEST PUSH2 0x1695 JUMP JUMPDEST CALLVALUE DUP1 ISZERO PUSH2 0x5CE JUMPI PUSH1 0x0 DUP1 REVERT JUMPDEST POP PUSH2 0x307 PUSH2 0x5DD CALLDATASIZE PUSH1 0x4 PUSH2 0x2C6E JUMP JUMPDEST PUSH2 0x1723 JUMP JUMPDEST CALLVALUE DUP1 ISZERO PUSH2 0x5EE JUMPI PUSH1 0x0 DUP1 REVERT JUMPDEST POP PUSH1 0xD6 SLOAD PUSH2 0x2CF SWAP1 PUSH1 0x1 PUSH1 0x1 PUSH1 0xA0 SHL SUB AND DUP2 JUMP JUMPDEST CALLVALUE DUP1 ISZERO PUSH2 0x60E JUMPI PUSH1 0x0 DUP1 REVERT JUMPDEST POP PUSH2 0x307 PUSH2 0x61D CALLDATASIZE PUSH1 0x4 PUSH2 0x2C6E JUMP JUMPDEST PUSH2 0x175C JUMP JUMPDEST CALLVALUE DUP1 ISZERO PUSH2 0x62E JUMPI PUSH1 0x0 DUP1 REVERT JUMPDEST POP PUSH2 0x662 PUSH2 0x63D CALLDATASIZE PUSH1 0x4 PUSH2 0x2C10 JUMP JUMPDEST PUSH1 0xC9 PUSH1 0x20 MSTORE PUSH1 0x0 SWAP1 DUP2 MSTORE PUSH1 0x40 SWAP1 KECCAK256 DUP1 SLOAD PUSH1 0x1 DUP3 ADD SLOAD PUSH1 0x2 SWAP1 SWAP3 ADD SLOAD PUSH1 0xFF SWAP1 SWAP2 AND SWAP2 SWAP1 DUP4 JUMP JUMPDEST PUSH1 0x40 DUP1 MLOAD SWAP4 ISZERO ISZERO DUP5 MSTORE PUSH1 0x20 DUP5 ADD SWAP3 SWAP1 SWAP3 MSTORE SWAP1 DUP3 ADD MSTORE PUSH1 0x60 ADD PUSH2 0x2A6 JUMP JUMPDEST CALLVALUE DUP1 ISZERO PUSH2 0x68B JUMPI PUSH1 0x0 DUP1 REVERT JUMPDEST POP PUSH1 0xD7 SLOAD PUSH2 0x2CF SWAP1 PUSH1 0x1 PUSH1 0x1 PUSH1 0xA0 SHL SUB AND DUP2 JUMP JUMPDEST CALLVALUE DUP1 ISZERO PUSH2 0x6AB JUMPI PUSH1 0x0 DUP1 REVERT JUMPDEST POP PUSH2 0x29C PUSH2 0x179B JUMP JUMPDEST CALLVALUE DUP1 ISZERO PUSH2 0x6C0 JUMPI PUSH1 0x0 DUP1 REVERT JUMPDEST POP PUSH2 0x41D PUSH2 0x6CF CALLDATASIZE PUSH1 0x4 PUSH2 0x2C10 JUMP JUMPDEST PUSH1 0xCA PUSH1 0x20 MSTORE PUSH1 0x0 SWAP1 DUP2 MSTORE PUSH1 0x40 SWAP1 KECCAK256 SLOAD PUSH1 0xFF AND DUP2 JUMP JUMPDEST CALLVALUE DUP1 ISZERO PUSH2 0x6F0 JUMPI PUSH1 0x0 DUP1 REVERT JUMPDEST POP PUSH2 0x2CF PUSH2 0x6FF CALLDATASIZE PUSH1 0x4 PUSH2 0x2C9A JUMP JUMPDEST PUSH2 0x17C4 JUMP JUMPDEST CALLVALUE DUP1 ISZERO PUSH2 0x710 JUMPI PUSH1 0x0 DUP1 REVERT JUMPDEST POP PUSH2 0x29C PUSH1 0xCF SLOAD DUP2 JUMP JUMPDEST CALLVALUE DUP1 ISZERO PUSH2 0x726 JUMPI PUSH1 0x0 DUP1 REVERT JUMPDEST POP PUSH2 0x29C PUSH2 0x735 CALLDATASIZE PUSH1 0x4 PUSH2 0x2C6E JUMP JUMPDEST PUSH2 0x17EE JUMP JUMPDEST CALLVALUE DUP1 ISZERO PUSH2 0x746 JUMPI PUSH1 0x0 DUP1 REVERT JUMPDEST POP PUSH2 0x307 PUSH2 0x755 CALLDATASIZE PUSH1 0x4 PUSH2 0x2C2D JUMP JUMPDEST PUSH2 0x185F JUMP JUMPDEST CALLVALUE DUP1 ISZERO PUSH2 0x766 JUMPI PUSH1 0x0 DUP1 REVERT JUMPDEST POP PUSH2 0x29C PUSH2 0x1B00 JUMP JUMPDEST CALLVALUE DUP1 ISZERO PUSH2 0x77B JUMPI PUSH1 0x0 DUP1 REVERT JUMPDEST POP PUSH2 0x307 PUSH2 0x1B6E JUMP JUMPDEST CALLVALUE DUP1 ISZERO PUSH2 0x790 JUMPI PUSH1 0x0 DUP1 REVERT JUMPDEST POP PUSH2 0x29C PUSH1 0xCE SLOAD DUP2 JUMP JUMPDEST CALLVALUE DUP1 ISZERO PUSH2 0x7A6 JUMPI PUSH1 0x0 DUP1 REVERT JUMPDEST POP PUSH2 0x307 PUSH2 0x7B5 CALLDATASIZE PUSH1 0x4 PUSH2 0x2C10 JUMP JUMPDEST PUSH2 0x1C7E JUMP JUMPDEST PUSH2 0x29C PUSH2 0x1CF4 JUMP JUMPDEST CALLVALUE DUP1 ISZERO PUSH2 0x7CE JUMPI PUSH1 0x0 DUP1 REVERT JUMPDEST POP PUSH2 0x307 PUSH2 0x1E87 JUMP JUMPDEST CALLVALUE DUP1 ISZERO PUSH2 0x7E3 JUMPI PUSH1 0x0 DUP1 REVERT JUMPDEST POP PUSH2 0x307 PUSH2 0x7F2 CALLDATASIZE PUSH1 0x4 PUSH2 0x2CB3 JUMP JUMPDEST PUSH2 0x1E97 JUMP JUMPDEST CALLVALUE DUP1 ISZERO PUSH2 0x803 JUMPI PUSH1 0x0 DUP1 REVERT JUMPDEST POP PUSH2 0x29C PUSH1 0xD1 SLOAD DUP2 JUMP JUMPDEST PUSH2 0x815 PUSH2 0x20C8 JUMP JUMPDEST PUSH1 0x1 PUSH1 0x1 PUSH1 0xA0 SHL SUB DUP2 AND PUSH2 0x828 JUMPI PUSH1 0x0 DUP1 REVERT JUMPDEST PUSH1 0x1 PUSH1 0x1 PUSH1 0xA0 SHL SUB DUP2 AND PUSH1 0x0 DUP2 DUP2 MSTORE PUSH1 0xCA PUSH1 0x20 SWAP1 DUP2 MSTORE PUSH1 0x40 SWAP2 DUP3 SWAP1 KECCAK256 DUP1 SLOAD PUSH1 0xFF NOT AND PUSH1 0x1 OR SWAP1 SSTORE SWAP1 MLOAD SWAP2 DUP3 MSTORE PUSH32 0x3B4A40CCCF2058C593542587329DD385BE4F0B588DB5471FBD9598E56DD7093A SWAP2 ADD JUMPDEST PUSH1 0x40 MLOAD DUP1 SWAP2 SUB SWAP1 LOG1 POP JUMP JUMPDEST PUSH1 0x0 PUSH1 0x2 PUSH1 0x97 SLOAD EQ ISZERO PUSH2 0x8B1 JUMPI PUSH1 0x40 MLOAD PUSH3 0x461BCD PUSH1 0xE5 SHL DUP2 MSTORE PUSH1 0x4 ADD PUSH2 0x8A8 SWAP1 PUSH2 0x2D03 JUMP JUMPDEST PUSH1 0x40 MLOAD DUP1 SWAP2 SUB SWAP1 REVERT JUMPDEST PUSH1 0x2 PUSH1 0x97 SSTORE PUSH2 0x8BE PUSH2 0x2122 JUMP JUMPDEST PUSH1 0x33 SLOAD PUSH1 0x1 PUSH1 0x1 PUSH1 0xA0 SHL SUB AND CALLER EQ DUP1 PUSH2 0x8E1 JUMPI POP PUSH1 0xD3 SLOAD PUSH1 0x1 PUSH1 0x1 PUSH1 0xA0 SHL SUB AND CALLER EQ JUMPDEST PUSH2 0x8FD JUMPI PUSH1 0x40 MLOAD PUSH3 0x461BCD PUSH1 0xE5 SHL DUP2 MSTORE PUSH1 0x4 ADD PUSH2 0x8A8 SWAP1 PUSH2 0x2D3A JUMP JUMPDEST PUSH1 0x0 DUP3 GT PUSH2 0x949 JUMPI PUSH1 0x40 MLOAD PUSH3 0x461BCD PUSH1 0xE5 SHL DUP2 MSTORE PUSH1 0x20 PUSH1 0x4 DUP3 ADD MSTORE PUSH1 0x19 PUSH1 0x24 DUP3 ADD MSTORE PUSH25 0x1A5B9D985B1A59081DDA5D1A191C985DD85B08185B5BDD5B9D PUSH1 0x3A SHL PUSH1 0x44 DUP3 ADD MSTORE PUSH1 0x64 ADD PUSH2 0x8A8 JUMP JUMPDEST PUSH1 0x1 PUSH1 0x1 PUSH1 0xA0 SHL SUB DUP5 AND PUSH1 0x0 SWAP1 DUP2 MSTORE PUSH1 0xC9 PUSH1 0x20 MSTORE PUSH1 0x40 SWAP1 KECCAK256 PUSH1 0x2 ADD SLOAD DUP3 GT ISZERO PUSH2 0x9B4 JUMPI PUSH1 0x40 MLOAD PUSH3 0x461BCD PUSH1 0xE5 SHL DUP2 MSTORE PUSH1 0x20 PUSH1 0x4 DUP3 ADD MSTORE PUSH1 0x1F PUSH1 0x24 DUP3 ADD MSTORE PUSH32 0x696E73756666696369656E742061737365747320696E20737472617465677900 PUSH1 0x44 DUP3 ADD MSTORE PUSH1 0x64 ADD PUSH2 0x8A8 JUMP JUMPDEST PUSH1 0xD4 SLOAD PUSH1 0x40 MLOAD PUSH4 0x2770A7EB PUSH1 0xE2 SHL DUP2 MSTORE CALLER SWAP2 PUSH1 0x1 PUSH1 0x1 PUSH1 0xA0 SHL SUB AND SWAP1 PUSH4 0x9DC29FAC SWAP1 PUSH2 0x9E6 SWAP1 DUP5 SWAP1 DUP8 SWAP1 PUSH1 0x4 ADD PUSH2 0x2D69 JUMP JUMPDEST PUSH1 0x0 PUSH1 0x40 MLOAD DUP1 DUP4 SUB DUP2 PUSH1 0x0 DUP8 DUP1 EXTCODESIZE ISZERO DUP1 ISZERO PUSH2 0xA00 JUMPI PUSH1 0x0 DUP1 REVERT JUMPDEST POP GAS CALL ISZERO DUP1 ISZERO PUSH2 0xA14 JUMPI RETURNDATASIZE PUSH1 0x0 DUP1 RETURNDATACOPY RETURNDATASIZE PUSH1 0x0 REVERT JUMPDEST POP POP POP POP PUSH1 0x0 PUSH1 0xCD SLOAD GT ISZERO PUSH2 0xA6A JUMPI PUSH1 0x0 PUSH2 0xA31 DUP5 PUSH1 0xCD SLOAD PUSH2 0x2168 JUMP JUMPDEST PUSH1 0xD6 SLOAD SWAP1 SWAP2 POP PUSH2 0xA55 SWAP1 DUP8 SWAP1 PUSH1 0x1 PUSH1 0x1 PUSH1 0xA0 SHL SUB AND PUSH2 0xA50 DUP5 DUP9 PUSH2 0x2D98 JUMP JUMPDEST PUSH2 0x21A5 JUMP JUMPDEST POP PUSH2 0xA61 DUP7 DUP7 DUP4 PUSH2 0x21A5 JUMP JUMPDEST SWAP3 POP POP POP PUSH2 0xA79 JUMP JUMPDEST PUSH2 0xA75 DUP6 DUP6 DUP6 PUSH2 0x21A5 JUMP JUMPDEST SWAP2 POP POP JUMPDEST PUSH1 0x1 PUSH1 0x97 SSTORE SWAP4 SWAP3 POP POP POP JUMP JUMPDEST PUSH2 0xA8D PUSH2 0x20C8 JUMP JUMPDEST PUSH1 0x1 PUSH1 0x1 PUSH1 0xA0 SHL SUB DUP3 AND PUSH2 0xAA0 JUMPI PUSH1 0x0 DUP1 REVERT JUMPDEST PUSH1 0xD0 SLOAD PUSH1 0xD2 SLOAD LT PUSH2 0xAF3 JUMPI PUSH1 0x40 MLOAD PUSH3 0x461BCD PUSH1 0xE5 SHL DUP2 MSTORE PUSH1 0x20 PUSH1 0x4 DUP3 ADD MSTORE PUSH1 0x17 PUSH1 0x24 DUP3 ADD MSTORE PUSH32 0x6D61782073747261746567696573206578636565646564000000000000000000 PUSH1 0x44 DUP3 ADD MSTORE PUSH1 0x64 ADD PUSH2 0x8A8 JUMP JUMPDEST ADDRESS PUSH1 0x1 PUSH1 0x1 PUSH1 0xA0 SHL SUB AND DUP3 PUSH1 0x1 PUSH1 0x1 PUSH1 0xA0 SHL SUB AND PUSH4 0xFBFA77CF PUSH1 0x40 MLOAD DUP2 PUSH4 0xFFFFFFFF AND PUSH1 0xE0 SHL DUP2 MSTORE PUSH1 0x4 ADD PUSH1 0x20 PUSH1 0x40 MLOAD DUP1 DUP4 SUB DUP2 DUP7 GAS STATICCALL ISZERO DUP1 ISZERO PUSH2 0xB3B JUMPI RETURNDATASIZE PUSH1 0x0 DUP1 RETURNDATACOPY RETURNDATASIZE PUSH1 0x0 REVERT JUMPDEST POP POP POP POP PUSH1 0x40 MLOAD RETURNDATASIZE PUSH1 0x1F NOT PUSH1 0x1F DUP3 ADD AND DUP3 ADD DUP1 PUSH1 0x40 MSTORE POP DUP2 ADD SWAP1 PUSH2 0xB5F SWAP2 SWAP1 PUSH2 0x2DAF JUMP JUMPDEST PUSH1 0x1 PUSH1 0x1 PUSH1 0xA0 SHL SUB AND EQ PUSH2 0xBA8 JUMPI PUSH1 0x40 MLOAD PUSH3 0x461BCD PUSH1 0xE5 SHL DUP2 MSTORE PUSH1 0x20 PUSH1 0x4 DUP3 ADD MSTORE PUSH1 0x10 PUSH1 0x24 DUP3 ADD MSTORE PUSH16 0x696E76616C6964207374726174656779 PUSH1 0x80 SHL PUSH1 0x44 DUP3 ADD MSTORE PUSH1 0x64 ADD PUSH2 0x8A8 JUMP JUMPDEST PUSH1 0x0 DUP1 JUMPDEST PUSH1 0xD2 SLOAD DUP2 LT ISZERO PUSH2 0xCD8 JUMPI DUP4 PUSH1 0x1 PUSH1 0x1 PUSH1 0xA0 SHL SUB AND PUSH1 0xD2 DUP3 DUP2 SLOAD DUP2 LT PUSH2 0xBD3 JUMPI PUSH2 0xBD3 PUSH2 0x2DCC JUMP JUMPDEST PUSH1 0x0 SWAP2 DUP3 MSTORE PUSH1 0x20 SWAP1 SWAP2 KECCAK256 ADD SLOAD PUSH1 0x1 PUSH1 0x1 PUSH1 0xA0 SHL SUB AND EQ ISZERO PUSH2 0xC36 JUMPI PUSH1 0x40 MLOAD PUSH3 0x461BCD PUSH1 0xE5 SHL DUP2 MSTORE PUSH1 0x20 PUSH1 0x4 DUP3 ADD MSTORE PUSH1 0x17 PUSH1 0x24 DUP3 ADD MSTORE PUSH32 0x737472617465677920616C726561647920657869737473000000000000000000 PUSH1 0x44 DUP3 ADD MSTORE PUSH1 0x64 ADD PUSH2 0x8A8 JUMP JUMPDEST PUSH1 0xC9 PUSH1 0x0 PUSH1 0xD2 DUP4 DUP2 SLOAD DUP2 LT PUSH2 0xC4D JUMPI PUSH2 0xC4D PUSH2 0x2DCC JUMP JUMPDEST PUSH1 0x0 SWAP2 DUP3 MSTORE PUSH1 0x20 DUP1 DUP4 KECCAK256 SWAP1 SWAP2 ADD SLOAD PUSH1 0x1 PUSH1 0x1 PUSH1 0xA0 SHL SUB AND DUP4 MSTORE DUP3 ADD SWAP3 SWAP1 SWAP3 MSTORE PUSH1 0x40 ADD SWAP1 KECCAK256 SLOAD PUSH1 0xFF AND ISZERO PUSH2 0xCC6 JUMPI PUSH1 0xC9 PUSH1 0x0 PUSH1 0xD2 DUP4 DUP2 SLOAD DUP2 LT PUSH2 0xC91 JUMPI PUSH2 0xC91 PUSH2 0x2DCC JUMP JUMPDEST PUSH1 0x0 SWAP2 DUP3 MSTORE PUSH1 0x20 DUP1 DUP4 KECCAK256 SWAP1 SWAP2 ADD SLOAD PUSH1 0x1 PUSH1 0x1 PUSH1 0xA0 SHL SUB AND DUP4 MSTORE DUP3 ADD SWAP3 SWAP1 SWAP3 MSTORE PUSH1 0x40 ADD SWAP1 KECCAK256 PUSH1 0x1 ADD SLOAD PUSH2 0xCC3 SWAP1 DUP4 PUSH2 0x2DE2 JUMP JUMPDEST SWAP2 POP JUMPDEST DUP1 PUSH2 0xCD0 DUP2 PUSH2 0x2DFA JUMP JUMPDEST SWAP2 POP POP PUSH2 0xBAC JUMP JUMPDEST POP PUSH3 0xF4240 PUSH2 0xCE7 DUP4 DUP4 PUSH2 0x2DE2 JUMP JUMPDEST GT ISZERO PUSH2 0xD05 JUMPI PUSH1 0x40 MLOAD PUSH3 0x461BCD PUSH1 0xE5 SHL DUP2 MSTORE PUSH1 0x4 ADD PUSH2 0x8A8 SWAP1 PUSH2 0x2E15 JUMP JUMPDEST PUSH1 0x40 DUP1 MLOAD PUSH1 0x60 DUP2 ADD DUP3 MSTORE PUSH1 0x1 DUP1 DUP3 MSTORE PUSH1 0x20 DUP1 DUP4 ADD DUP7 DUP2 MSTORE PUSH1 0x0 DUP5 DUP7 ADD DUP2 DUP2 MSTORE PUSH1 0x1 PUSH1 0x1 PUSH1 0xA0 SHL SUB DUP11 AND DUP1 DUP4 MSTORE PUSH1 0xC9 SWAP1 SWAP5 MSTORE DUP7 DUP3 KECCAK256 DUP7 MLOAD DUP2 SLOAD PUSH1 0xFF NOT AND SWAP1 ISZERO ISZERO OR DUP2 SSTORE SWAP3 MLOAD DUP4 DUP7 ADD SSTORE MLOAD PUSH1 0x2 SWAP1 SWAP3 ADD SWAP2 SWAP1 SWAP2 SSTORE PUSH1 0xD2 DUP1 SLOAD SWAP4 DUP5 ADD DUP2 SSTORE SWAP1 MSTORE PUSH32 0xF2192E1030363415D7B4FB0406540A0060E8E2FC8982F3F32289379E11FA6546 SWAP1 SWAP2 ADD DUP1 SLOAD PUSH1 0x1 PUSH1 0x1 PUSH1 0xA0 SHL SUB NOT AND SWAP1 SWAP2 OR SWAP1 SSTORE SWAP1 MLOAD PUSH32 0x2F564A83158AD1831793AD3E69257B52F39ECE5D49CB0D8746708ECB9EF964DA SWAP1 PUSH2 0xDC8 SWAP1 DUP7 SWAP1 DUP7 SWAP1 PUSH2 0x2D69 JUMP JUMPDEST PUSH1 0x40 MLOAD DUP1 SWAP2 SUB SWAP1 LOG1 POP POP POP POP JUMP JUMPDEST PUSH1 0x0 PUSH1 0x2 PUSH1 0x97 SLOAD EQ ISZERO PUSH2 0xDFB JUMPI PUSH1 0x40 MLOAD PUSH3 0x461BCD PUSH1 0xE5 SHL DUP2 MSTORE PUSH1 0x4 ADD PUSH2 0x8A8 SWAP1 PUSH2 0x2D03 JUMP JUMPDEST PUSH1 0x2 PUSH1 0x97 SSTORE PUSH2 0xE08 PUSH2 0x2122 JUMP JUMPDEST PUSH1 0x33 SLOAD PUSH1 0x1 PUSH1 0x1 PUSH1 0xA0 SHL SUB AND CALLER EQ DUP1 PUSH2 0xE2B JUMPI POP PUSH1 0xD3 SLOAD PUSH1 0x1 PUSH1 0x1 PUSH1 0xA0 SHL SUB AND CALLER EQ JUMPDEST PUSH2 0xE47 JUMPI PUSH1 0x40 MLOAD PUSH3 0x461BCD PUSH1 0xE5 SHL DUP2 MSTORE PUSH1 0x4 ADD PUSH2 0x8A8 SWAP1 PUSH2 0x2D3A JUMP JUMPDEST PUSH1 0xD4 SLOAD PUSH1 0x40 MLOAD PUSH4 0x2770A7EB PUSH1 0xE2 SHL DUP2 MSTORE CALLER SWAP2 PUSH1 0x1 PUSH1 0x1 PUSH1 0xA0 SHL SUB AND SWAP1 PUSH4 0x9DC29FAC SWAP1 PUSH2 0xE79 SWAP1 DUP5 SWAP1 DUP8 SWAP1 PUSH1 0x4 ADD PUSH2 0x2D69 JUMP JUMPDEST PUSH1 0x0 PUSH1 0x40 MLOAD DUP1 DUP4 SUB DUP2 PUSH1 0x0 DUP8 DUP1 EXTCODESIZE ISZERO DUP1 ISZERO PUSH2 0xE93 JUMPI PUSH1 0x0 DUP1 REVERT JUMPDEST POP GAS CALL ISZERO DUP1 ISZERO PUSH2 0xEA7 JUMPI RETURNDATASIZE PUSH1 0x0 DUP1 RETURNDATACOPY RETURNDATASIZE PUSH1 0x0 REVERT JUMPDEST POP POP POP POP PUSH1 0x0 PUSH2 0xEB5 PUSH2 0x179B JUMP JUMPDEST SWAP1 POP PUSH2 0xEC3 DUP5 PUSH1 0xCD SLOAD PUSH2 0x2168 JUMP JUMPDEST SWAP3 POP PUSH2 0xECF DUP4 DUP6 PUSH2 0x2D98 JUMP JUMPDEST PUSH1 0xCF PUSH1 0x0 DUP3 DUP3 SLOAD PUSH2 0xEE0 SWAP2 SWAP1 PUSH2 0x2DE2 JUMP JUMPDEST SWAP1 SWAP2 SSTORE POP POP DUP3 DUP2 LT ISZERO PUSH2 0xFDE JUMPI PUSH1 0x0 DUP6 PUSH1 0x1 PUSH1 0x1 PUSH1 0xA0 SHL SUB AND DUP3 PUSH1 0x40 MLOAD PUSH1 0x0 PUSH1 0x40 MLOAD DUP1 DUP4 SUB DUP2 DUP6 DUP8 GAS CALL SWAP3 POP POP POP RETURNDATASIZE DUP1 PUSH1 0x0 DUP2 EQ PUSH2 0xF3A JUMPI PUSH1 0x40 MLOAD SWAP2 POP PUSH1 0x1F NOT PUSH1 0x3F RETURNDATASIZE ADD AND DUP3 ADD PUSH1 0x40 MSTORE RETURNDATASIZE DUP3 MSTORE RETURNDATASIZE PUSH1 0x0 PUSH1 0x20 DUP5 ADD RETURNDATACOPY PUSH2 0xF3F JUMP JUMPDEST PUSH1 0x60 SWAP2 POP JUMPDEST POP POP SWAP1 POP DUP1 PUSH2 0xF60 JUMPI PUSH1 0x40 MLOAD PUSH3 0x461BCD PUSH1 0xE5 SHL DUP2 MSTORE PUSH1 0x4 ADD PUSH2 0x8A8 SWAP1 PUSH2 0x2E59 JUMP JUMPDEST PUSH1 0x0 PUSH2 0xF75 DUP8 PUSH2 0xF70 DUP6 DUP9 PUSH2 0x2D98 JUMP JUMPDEST PUSH2 0x22A4 JUMP JUMPDEST SWAP1 POP PUSH2 0xF81 DUP4 DUP7 PUSH2 0x2D98 JUMP JUMPDEST DUP2 GT ISZERO PUSH2 0xFCB JUMPI PUSH1 0x40 MLOAD PUSH3 0x461BCD PUSH1 0xE5 SHL DUP2 MSTORE PUSH1 0x20 PUSH1 0x4 DUP3 ADD MSTORE PUSH1 0x18 PUSH1 0x24 DUP3 ADD MSTORE PUSH24 0x1A5B9D985B1A59081DDA5D1A191C985DDB88185B5BDD5B9D PUSH1 0x42 SHL PUSH1 0x44 DUP3 ADD MSTORE PUSH1 0x64 ADD PUSH2 0x8A8 JUMP JUMPDEST PUSH2 0xFD5 DUP2 DUP5 PUSH2 0x2DE2 JUMP JUMPDEST SWAP5 POP POP POP PUSH2 0x1053 JUMP JUMPDEST PUSH1 0x0 DUP6 PUSH1 0x1 PUSH1 0x1 PUSH1 0xA0 SHL SUB AND DUP5 PUSH1 0x40 MLOAD PUSH1 0x0 PUSH1 0x40 MLOAD DUP1 DUP4 SUB DUP2 DUP6 DUP8 GAS CALL SWAP3 POP POP POP RETURNDATASIZE DUP1 PUSH1 0x0 DUP2 EQ PUSH2 0x102B JUMPI PUSH1 0x40 MLOAD SWAP2 POP PUSH1 0x1F NOT PUSH1 0x3F RETURNDATASIZE ADD AND DUP3 ADD PUSH1 0x40 MSTORE RETURNDATASIZE DUP3 MSTORE RETURNDATASIZE PUSH1 0x0 PUSH1 0x20 DUP5 ADD RETURNDATACOPY PUSH2 0x1030 JUMP JUMPDEST PUSH1 0x60 SWAP2 POP JUMPDEST POP POP SWAP1 POP DUP1 PUSH2 0x1051 JUMPI PUSH1 0x40 MLOAD PUSH3 0x461BCD PUSH1 0xE5 SHL DUP2 MSTORE PUSH1 0x4 ADD PUSH2 0x8A8 SWAP1 PUSH2 0x2E59 JUMP JUMPDEST POP JUMPDEST PUSH1 0x40 DUP1 MLOAD DUP6 DUP2 MSTORE PUSH1 0x20 DUP2 ADD DUP6 SWAP1 MSTORE PUSH1 0x1 PUSH1 0x1 PUSH1 0xA0 SHL SUB DUP5 AND SWAP2 DUP3 SWAP2 DUP3 SWAP2 PUSH32 0xFBDE797D201C681B91056529119E0B02407C7BB96A4A2C75C01FC9667232C8DB SWAP2 ADD PUSH1 0x40 MLOAD DUP1 SWAP2 SUB SWAP1 LOG4 POP POP PUSH1 0x1 PUSH1 0x97 SSTORE SWAP3 SWAP2 POP POP JUMP JUMPDEST PUSH2 0x10B0 PUSH2 0x20C8 JUMP JUMPDEST DUP1 PUSH1 0xCC SLOAD GT PUSH2 0x1101 JUMPI PUSH1 0x40 MLOAD PUSH3 0x461BCD PUSH1 0xE5 SHL DUP2 MSTORE PUSH1 0x20 PUSH1 0x4 DUP3 ADD MSTORE PUSH1 0x17 PUSH1 0x24 DUP3 ADD MSTORE PUSH32 0x6D6F7265207468616E206D61784465706F736974466565000000000000000000 PUSH1 0x44 DUP3 ADD MSTORE PUSH1 0x64 ADD PUSH2 0x8A8 JUMP JUMPDEST PUSH1 0xCB DUP2 SWAP1 SSTORE PUSH1 0x40 MLOAD DUP2 DUP2 MSTORE PUSH32 0x2A6F1084651542F3142C70F4C43C096D016A8B517C063660B146268F646EA43A SWAP1 PUSH1 0x20 ADD PUSH2 0x878 JUMP JUMPDEST CALLER PUSH1 0x0 SWAP1 DUP2 MSTORE PUSH1 0xCA PUSH1 0x20 MSTORE PUSH1 0x40 SWAP1 KECCAK256 SLOAD PUSH1 0xFF AND PUSH2 0x1165 JUMPI PUSH1 0x40 MLOAD PUSH3 0x461BCD PUSH1 0xE5 SHL DUP2 MSTORE PUSH1 0x4 ADD PUSH2 0x8A8 SWAP1 PUSH2 0x2E82 JUMP JUMPDEST PUSH1 0x0 PUSH2 0x116F PUSH2 0x179B JUMP JUMPDEST SWAP1 POP PUSH2 0x117B DUP3 DUP3 PUSH2 0x2492 JUMP JUMPDEST PUSH2 0x1184 JUMPI PUSH1 0x0 DUP1 REVERT JUMPDEST POP POP JUMP JUMPDEST PUSH1 0x0 DUP2 PUSH1 0x1 PUSH1 0x1 PUSH1 0xA0 SHL SUB AND PUSH4 0x6B0F1C81 PUSH1 0x40 MLOAD DUP2 PUSH4 0xFFFFFFFF AND PUSH1 0xE0 SHL DUP2 MSTORE PUSH1 0x4 ADD PUSH1 0x20 PUSH1 0x40 MLOAD DUP1 DUP4 SUB DUP2 DUP7 GAS STATICCALL ISZERO DUP1 ISZERO PUSH2 0x11C8 JUMPI RETURNDATASIZE PUSH1 0x0 DUP1 RETURNDATACOPY RETURNDATASIZE PUSH1 0x0 REVERT JUMPDEST POP POP POP POP PUSH1 0x40 MLOAD RETURNDATASIZE PUSH1 0x1F NOT PUSH1 0x1F DUP3 ADD AND DUP3 ADD DUP1 PUSH1 0x40 MSTORE POP DUP2 ADD SWAP1 PUSH2 0x11EC SWAP2 SWAP1 PUSH2 0x2EB0 JUMP JUMPDEST SWAP3 SWAP2 POP POP JUMP JUMPDEST CALLER PUSH1 0x0 SWAP1 DUP2 MSTORE PUSH1 0xCA PUSH1 0x20 MSTORE PUSH1 0x40 SWAP1 KECCAK256 SLOAD PUSH1 0xFF AND PUSH2 0x1221 JUMPI PUSH1 0x40 MLOAD PUSH3 0x461BCD PUSH1 0xE5 SHL DUP2 MSTORE PUSH1 0x4 ADD PUSH2 0x8A8 SWAP1 PUSH2 0x2E82 JUMP JUMPDEST PUSH1 0x1 PUSH1 0x1 PUSH1 0xA0 SHL SUB DUP2 AND PUSH1 0x0 SWAP1 DUP2 MSTORE PUSH1 0xC9 PUSH1 0x20 MSTORE PUSH1 0x40 SWAP1 KECCAK256 PUSH1 0x2 ADD SLOAD PUSH2 0x1184 SWAP1 DUP3 SWAP1 ADDRESS SWAP1 PUSH2 0x26B5 JUMP JUMPDEST PUSH2 0x1252 PUSH2 0x20C8 JUMP JUMPDEST PUSH2 0x125C PUSH1 0x0 PUSH2 0x28A7 JUMP JUMPDEST JUMP JUMPDEST CALLER PUSH1 0x0 SWAP1 DUP2 MSTORE PUSH1 0xCA PUSH1 0x20 MSTORE PUSH1 0x40 SWAP1 KECCAK256 SLOAD PUSH1 0xFF AND PUSH2 0x128D JUMPI PUSH1 0x40 MLOAD PUSH3 0x461BCD PUSH1 0xE5 SHL DUP2 MSTORE PUSH1 0x4 ADD PUSH2 0x8A8 SWAP1 PUSH2 0x2E82 JUMP JUMPDEST PUSH2 0x1296 DUP2 PUSH2 0x28F9 JUMP JUMPDEST ISZERO PUSH2 0x129E JUMPI POP JUMP JUMPDEST PUSH1 0x1 PUSH1 0x1 PUSH1 0xA0 SHL SUB DUP2 AND PUSH1 0x0 SWAP1 DUP2 MSTORE PUSH1 0xC9 PUSH1 0x20 MSTORE PUSH1 0x40 SWAP1 KECCAK256 PUSH1 0x2 ADD SLOAD PUSH2 0x12C7 SWAP1 DUP3 SWAP1 ADDRESS SWAP1 PUSH2 0x26B5 JUMP JUMPDEST POP PUSH2 0x1184 DUP2 PUSH2 0x28F9 JUMP JUMPDEST POP JUMP JUMPDEST PUSH2 0x12DC PUSH2 0x20C8 JUMP JUMPDEST PUSH1 0x1 PUSH1 0x1 PUSH1 0xA0 SHL SUB DUP3 AND PUSH2 0x12EF JUMPI PUSH1 0x0 DUP1 REVERT JUMPDEST PUSH1 0x1 PUSH1 0x1 PUSH1 0xA0 SHL SUB DUP3 AND PUSH1 0x0 SWAP1 DUP2 MSTORE PUSH1 0xC9 PUSH1 0x20 MSTORE PUSH1 0x40 SWAP1 KECCAK256 PUSH1 0x1 ADD DUP2 SWAP1 SSTORE PUSH2 0x1315 PUSH2 0x294A JUMP JUMPDEST PUSH2 0x1331 JUMPI PUSH1 0x40 MLOAD PUSH3 0x461BCD PUSH1 0xE5 SHL DUP2 MSTORE PUSH1 0x4 ADD PUSH2 0x8A8 SWAP1 PUSH2 0x2E15 JUMP JUMPDEST PUSH32 0x12550B3055A78AFE91DA1A02A6E99583200FE1B2F7F571269BB013FF3F7C05E8 DUP3 DUP3 PUSH1 0x40 MLOAD PUSH2 0x1362 SWAP3 SWAP2 SWAP1 PUSH2 0x2D69 JUMP JUMPDEST PUSH1 0x40 MLOAD DUP1 SWAP2 SUB SWAP1 LOG1 POP POP JUMP JUMPDEST PUSH2 0x1376 PUSH2 0x20C8 JUMP JUMPDEST PUSH1 0x1 PUSH1 0x1 PUSH1 0xA0 SHL SUB DUP2 AND PUSH2 0x1389 JUMPI PUSH1 0x0 DUP1 REVERT JUMPDEST PUSH1 0xD3 DUP1 SLOAD PUSH1 0x1 PUSH1 0x1 PUSH1 0xA0 SHL SUB NOT AND PUSH1 0x1 PUSH1 0x1 PUSH1 0xA0 SHL SUB DUP4 AND SWAP1 DUP2 OR SWAP1 SWAP2 SSTORE PUSH1 0x40 MLOAD SWAP1 DUP2 MSTORE PUSH32 0xA480657DFD615E3BA406B865A0DA683507AEEB1B3E8206EB2C080BC1C0B23E82 SWAP1 PUSH1 0x20 ADD PUSH2 0x878 JUMP JUMPDEST PUSH2 0x13DF PUSH2 0x20C8 JUMP JUMPDEST PUSH1 0x1 PUSH1 0x1 PUSH1 0xA0 SHL SUB DUP2 AND PUSH2 0x13F2 JUMPI PUSH1 0x0 DUP1 REVERT JUMPDEST PUSH1 0xD6 DUP1 SLOAD PUSH1 0x1 PUSH1 0x1 PUSH1 0xA0 SHL SUB NOT AND PUSH1 0x1 PUSH1 0x1 PUSH1 0xA0 SHL SUB DUP4 AND SWAP1 DUP2 OR SWAP1 SWAP2 SSTORE PUSH1 0x40 MLOAD SWAP1 DUP2 MSTORE PUSH32 0x647672599D3468ABCFA241A13C9E3D34383CAADB5CC80FB67C3CDFCD5F786059 SWAP1 PUSH1 0x20 ADD PUSH2 0x878 JUMP JUMPDEST PUSH2 0x1448 PUSH2 0x20C8 JUMP JUMPDEST PUSH2 0x125C PUSH2 0x2A08 JUMP JUMPDEST CALLER PUSH1 0x0 SWAP1 DUP2 MSTORE PUSH1 0xCA PUSH1 0x20 MSTORE PUSH1 0x40 SWAP1 KECCAK256 SLOAD PUSH1 0xFF AND PUSH2 0x147F JUMPI PUSH1 0x40 MLOAD PUSH3 0x461BCD PUSH1 0xE5 SHL DUP2 MSTORE PUSH1 0x4 ADD PUSH2 0x8A8 SWAP1 PUSH2 0x2E82 JUMP JUMPDEST PUSH1 0x0 JUMPDEST PUSH1 0xD2 SLOAD PUSH1 0xFF DUP3 AND LT ISZERO PUSH2 0x12D1 JUMPI PUSH1 0xC9 PUSH1 0x0 PUSH1 0xD2 DUP4 PUSH1 0xFF AND DUP2 SLOAD DUP2 LT PUSH2 0x14A9 JUMPI PUSH2 0x14A9 PUSH2 0x2DCC JUMP JUMPDEST PUSH1 0x0 SWAP2 DUP3 MSTORE PUSH1 0x20 DUP1 DUP4 KECCAK256 SWAP1 SWAP2 ADD SLOAD PUSH1 0x1 PUSH1 0x1 PUSH1 0xA0 SHL SUB AND DUP4 MSTORE DUP3 ADD SWAP3 SWAP1 SWAP3 MSTORE PUSH1 0x40 ADD SWAP1 KECCAK256 SLOAD PUSH1 0xFF AND ISZERO PUSH2 0x1605 JUMPI PUSH1 0x0 PUSH1 0xC9 PUSH1 0x0 PUSH1 0xD2 DUP5 PUSH1 0xFF AND DUP2 SLOAD DUP2 LT PUSH2 0x14F2 JUMPI PUSH2 0x14F2 PUSH2 0x2DCC JUMP JUMPDEST PUSH1 0x0 SWAP2 DUP3 MSTORE PUSH1 0x20 DUP1 DUP4 KECCAK256 SWAP1 SWAP2 ADD SLOAD PUSH1 0x1 PUSH1 0x1 PUSH1 0xA0 SHL SUB AND DUP4 MSTORE DUP3 DUP2 ADD SWAP4 SWAP1 SWAP4 MSTORE PUSH1 0x40 SWAP2 DUP3 ADD SWAP1 KECCAK256 DUP2 MLOAD PUSH1 0x60 DUP2 ADD DUP4 MSTORE DUP2 SLOAD PUSH1 0xFF AND ISZERO ISZERO DUP2 MSTORE PUSH1 0x1 DUP3 ADD SLOAD SWAP4 DUP2 ADD DUP5 SWAP1 MSTORE PUSH1 0x2 SWAP1 SWAP2 ADD SLOAD SWAP2 DUP2 ADD SWAP2 SWAP1 SWAP2 MSTORE SWAP2 POP DUP1 ISZERO PUSH2 0x1602 JUMPI PUSH1 0x0 PUSH1 0xD1 SLOAD PUSH2 0x1557 PUSH2 0x179B JUMP JUMPDEST PUSH2 0x1561 SWAP2 SWAP1 PUSH2 0x2DE2 JUMP JUMPDEST SWAP1 POP PUSH1 0x0 DUP2 DUP5 PUSH1 0x40 ADD MLOAD PUSH3 0xF4240 PUSH2 0x1579 SWAP2 SWAP1 PUSH2 0x2EC9 JUMP JUMPDEST PUSH2 0x1583 SWAP2 SWAP1 PUSH2 0x2EE8 JUMP JUMPDEST SWAP1 POP DUP3 DUP2 LT ISZERO PUSH2 0x15FF JUMPI PUSH1 0x40 DUP5 ADD MLOAD PUSH1 0x0 SWAP1 PUSH3 0xF4240 PUSH2 0x15A3 DUP7 DUP7 PUSH2 0x2EC9 JUMP JUMPDEST PUSH2 0x15AD SWAP2 SWAP1 PUSH2 0x2EE8 JUMP JUMPDEST PUSH2 0x15B7 SWAP2 SWAP1 PUSH2 0x2D98 JUMP JUMPDEST SWAP1 POP DUP1 PUSH2 0x15C2 PUSH2 0x179B JUMP JUMPDEST LT PUSH2 0x15FD JUMPI PUSH2 0x15FB PUSH1 0xD2 DUP8 PUSH1 0xFF AND DUP2 SLOAD DUP2 LT PUSH2 0x15E0 JUMPI PUSH2 0x15E0 PUSH2 0x2DCC JUMP JUMPDEST PUSH1 0x0 SWAP2 DUP3 MSTORE PUSH1 0x20 SWAP1 SWAP2 KECCAK256 ADD SLOAD PUSH1 0x1 PUSH1 0x1 PUSH1 0xA0 SHL SUB AND DUP3 PUSH2 0x2492 JUMP JUMPDEST POP JUMPDEST POP JUMPDEST POP POP JUMPDEST POP POP JUMPDEST DUP1 PUSH2 0x160F DUP2 PUSH2 0x2F0A JUMP JUMPDEST SWAP2 POP POP PUSH2 0x1482 JUMP JUMPDEST PUSH2 0x161F PUSH2 0x20C8 JUMP JUMPDEST PUSH1 0x1 PUSH1 0x1 PUSH1 0xA0 SHL SUB DUP2 AND PUSH1 0x0 SWAP1 DUP2 MSTORE PUSH1 0xCA PUSH1 0x20 MSTORE PUSH1 0x40 SWAP1 KECCAK256 SLOAD PUSH1 0xFF AND PUSH2 0x1644 JUMPI PUSH1 0x0 DUP1 REVERT JUMPDEST PUSH1 0x1 PUSH1 0x1 PUSH1 0xA0 SHL SUB DUP2 AND PUSH1 0x0 DUP2 DUP2 MSTORE PUSH1 0xCA PUSH1 0x20 SWAP1 DUP2 MSTORE PUSH1 0x40 SWAP2 DUP3 SWAP1 KECCAK256 DUP1 SLOAD PUSH1 0xFF NOT AND SWAP1 SSTORE SWAP1 MLOAD SWAP2 DUP3 MSTORE PUSH32 0xEF69F7D97228658C92417BE1B16B19058315DE71FECB435D07B7D23728B6BD31 SWAP2 ADD PUSH2 0x878 JUMP JUMPDEST PUSH2 0x169D PUSH2 0x20C8 JUMP JUMPDEST DUP1 PUSH1 0xCE SLOAD GT PUSH2 0x16EE JUMPI PUSH1 0x40 MLOAD PUSH3 0x461BCD PUSH1 0xE5 SHL DUP2 MSTORE PUSH1 0x20 PUSH1 0x4 DUP3 ADD MSTORE PUSH1 0x1A PUSH1 0x24 DUP3 ADD MSTORE PUSH32 0x6D6F7265207468616E206D61785769746864726177616C466565000000000000 PUSH1 0x44 DUP3 ADD MSTORE PUSH1 0x64 ADD PUSH2 0x8A8 JUMP JUMPDEST PUSH1 0xCD DUP2 SWAP1 SSTORE PUSH1 0x40 MLOAD DUP2 DUP2 MSTORE PUSH32 0xFC1353E6B18CE07B5A979C8EDF77A87455939A17A9EEBBB084DCDE5BFB3B19AC SWAP1 PUSH1 0x20 ADD PUSH2 0x878 JUMP JUMPDEST CALLER PUSH1 0x0 SWAP1 DUP2 MSTORE PUSH1 0xCA PUSH1 0x20 MSTORE PUSH1 0x40 SWAP1 KECCAK256 SLOAD PUSH1 0xFF AND PUSH2 0x1752 JUMPI PUSH1 0x40 MLOAD PUSH3 0x461BCD PUSH1 0xE5 SHL DUP2 MSTORE PUSH1 0x4 ADD PUSH2 0x8A8 SWAP1 PUSH2 0x2E82 JUMP JUMPDEST PUSH2 0x117B DUP3 DUP3 PUSH2 0x2492 JUMP JUMPDEST CALLER PUSH1 0x0 SWAP1 DUP2 MSTORE PUSH1 0xCA PUSH1 0x20 MSTORE PUSH1 0x40 SWAP1 KECCAK256 SLOAD PUSH1 0xFF AND PUSH2 0x178B JUMPI PUSH1 0x40 MLOAD PUSH3 0x461BCD PUSH1 0xE5 SHL DUP2 MSTORE PUSH1 0x4 ADD PUSH2 0x8A8 SWAP1 PUSH2 0x2E82 JUMP JUMPDEST PUSH2 0x1796 DUP3 ADDRESS DUP4 PUSH2 0x26B5 JUMP JUMPDEST POP POP POP JUMP JUMPDEST PUSH1 0x0 PUSH1 0xCF SLOAD PUSH2 0x17A7 SELFBALANCE SWAP1 JUMP JUMPDEST GT PUSH2 0x17B2 JUMPI POP PUSH1 0x0 SWAP1 JUMP JUMPDEST PUSH1 0xCF SLOAD PUSH2 0x17BF SWAP1 SELFBALANCE PUSH2 0x2D98 JUMP JUMPDEST SWAP1 POP SWAP1 JUMP JUMPDEST PUSH1 0xD2 DUP2 DUP2 SLOAD DUP2 LT PUSH2 0x17D4 JUMPI PUSH1 0x0 DUP1 REVERT JUMPDEST PUSH1 0x0 SWAP2 DUP3 MSTORE PUSH1 0x20 SWAP1 SWAP2 KECCAK256 ADD SLOAD PUSH1 0x1 PUSH1 0x1 PUSH1 0xA0 SHL SUB AND SWAP1 POP DUP2 JUMP JUMPDEST PUSH1 0x40 MLOAD PUSH3 0x4BAD43 PUSH1 0xE0 SHL DUP2 MSTORE PUSH1 0x4 DUP2 ADD DUP3 SWAP1 MSTORE PUSH1 0x0 SWAP1 PUSH1 0x1 PUSH1 0x1 PUSH1 0xA0 SHL SUB DUP5 AND SWAP1 PUSH3 0x4BAD43 SWAP1 PUSH1 0x24 ADD PUSH1 0x20 PUSH1 0x40 MLOAD DUP1 DUP4 SUB DUP2 DUP7 GAS STATICCALL ISZERO DUP1 ISZERO PUSH2 0x1834 JUMPI RETURNDATASIZE PUSH1 0x0 DUP1 RETURNDATACOPY RETURNDATASIZE PUSH1 0x0 REVERT JUMPDEST POP POP POP POP PUSH1 0x40 MLOAD RETURNDATASIZE PUSH1 0x1F NOT PUSH1 0x1F DUP3 ADD AND DUP3 ADD DUP1 PUSH1 0x40 MSTORE POP DUP2 ADD SWAP1 PUSH2 0x1858 SWAP2 SWAP1 PUSH2 0x2EB0 JUMP JUMPDEST SWAP4 SWAP3 POP POP POP JUMP JUMPDEST CALLER PUSH1 0x0 SWAP1 DUP2 MSTORE PUSH1 0xCA PUSH1 0x20 MSTORE PUSH1 0x40 SWAP1 KECCAK256 SLOAD PUSH1 0xFF AND PUSH2 0x188E JUMPI PUSH1 0x40 MLOAD PUSH3 0x461BCD PUSH1 0xE5 SHL DUP2 MSTORE PUSH1 0x4 ADD PUSH2 0x8A8 SWAP1 PUSH2 0x2E82 JUMP JUMPDEST PUSH1 0x1 PUSH1 0x1 PUSH1 0xA0 SHL SUB DUP4 AND PUSH2 0x18A1 JUMPI PUSH1 0x0 DUP1 REVERT JUMPDEST PUSH1 0x1 PUSH1 0x1 PUSH1 0xA0 SHL SUB DUP3 AND PUSH2 0x18B4 JUMPI PUSH1 0x0 DUP1 REVERT JUMPDEST PUSH1 0x1 PUSH1 0x1 PUSH1 0xA0 SHL SUB DUP4 AND PUSH1 0x0 SWAP1 DUP2 MSTORE PUSH1 0xC9 PUSH1 0x20 MSTORE PUSH1 0x40 SWAP1 KECCAK256 PUSH1 0x2 ADD SLOAD DUP1 ISZERO PUSH2 0x1953 JUMPI PUSH1 0x1 PUSH1 0x1 PUSH1 0xA0 SHL SUB DUP5 AND PUSH1 0x0 SWAP1 DUP2 MSTORE PUSH1 0xC9 PUSH1 0x20 MSTORE PUSH1 0x40 DUP2 KECCAK256 PUSH1 0x2 ADD SLOAD PUSH2 0x18FF SWAP1 DUP7 SWAP1 ADDRESS SWAP1 PUSH2 0x26B5 JUMP JUMPDEST SWAP1 POP PUSH1 0x0 DUP2 GT PUSH2 0x1951 JUMPI PUSH1 0x40 MLOAD PUSH3 0x461BCD PUSH1 0xE5 SHL DUP2 MSTORE PUSH1 0x20 PUSH1 0x4 DUP3 ADD MSTORE PUSH1 0x1D PUSH1 0x24 DUP3 ADD MSTORE PUSH32 0x63616E6E6F742077697468647261772066726F6D207374726174656779000000 PUSH1 0x44 DUP3 ADD MSTORE PUSH1 0x64 ADD PUSH2 0x8A8 JUMP JUMPDEST POP JUMPDEST PUSH1 0x40 DUP1 MLOAD PUSH1 0x60 DUP2 ADD DUP3 MSTORE PUSH1 0x1 DUP2 MSTORE PUSH1 0x20 DUP2 ADD DUP5 SWAP1 MSTORE PUSH1 0x0 SWAP2 DUP2 ADD DUP3 SWAP1 MSTORE SWAP1 DUP1 JUMPDEST PUSH1 0xD2 SLOAD DUP2 LT ISZERO PUSH2 0x1A3B JUMPI DUP7 PUSH1 0x1 PUSH1 0x1 PUSH1 0xA0 SHL SUB AND PUSH1 0xD2 DUP3 DUP2 SLOAD DUP2 LT PUSH2 0x199A JUMPI PUSH2 0x199A PUSH2 0x2DCC JUMP JUMPDEST PUSH1 0x0 SWAP2 DUP3 MSTORE PUSH1 0x20 SWAP1 SWAP2 KECCAK256 ADD SLOAD PUSH1 0x1 PUSH1 0x1 PUSH1 0xA0 SHL SUB AND EQ ISZERO PUSH2 0x1A29 JUMPI PUSH1 0x1 SWAP2 POP DUP6 PUSH1 0xD2 DUP3 DUP2 SLOAD DUP2 LT PUSH2 0x19CD JUMPI PUSH2 0x19CD PUSH2 0x2DCC JUMP JUMPDEST PUSH1 0x0 SWAP2 DUP3 MSTORE PUSH1 0x20 DUP1 DUP4 KECCAK256 SWAP2 SWAP1 SWAP2 ADD DUP1 SLOAD PUSH1 0x1 PUSH1 0x1 PUSH1 0xA0 SHL SUB NOT AND PUSH1 0x1 PUSH1 0x1 PUSH1 0xA0 SHL SUB SWAP5 DUP6 AND OR SWAP1 SSTORE SWAP2 DUP9 AND DUP2 MSTORE PUSH1 0xC9 DUP3 MSTORE PUSH1 0x40 SWAP1 DUP2 SWAP1 KECCAK256 DUP6 MLOAD DUP2 SLOAD PUSH1 0xFF NOT AND SWAP1 ISZERO ISZERO OR DUP2 SSTORE SWAP2 DUP6 ADD MLOAD PUSH1 0x1 DUP4 ADD SSTORE DUP5 ADD MLOAD PUSH1 0x2 SWAP1 SWAP2 ADD SSTORE PUSH2 0x1A3B JUMP JUMPDEST DUP1 PUSH2 0x1A33 DUP2 PUSH2 0x2DFA JUMP JUMPDEST SWAP2 POP POP PUSH2 0x1973 JUMP JUMPDEST POP DUP1 PUSH2 0x1A89 JUMPI PUSH1 0x40 MLOAD PUSH3 0x461BCD PUSH1 0xE5 SHL DUP2 MSTORE PUSH1 0x20 PUSH1 0x4 DUP3 ADD MSTORE PUSH1 0x1B PUSH1 0x24 DUP3 ADD MSTORE PUSH32 0x696E76616C6964206F6C64537472617465677920616464726573730000000000 PUSH1 0x44 DUP3 ADD MSTORE PUSH1 0x64 ADD PUSH2 0x8A8 JUMP JUMPDEST PUSH2 0x1A91 PUSH2 0x294A JUMP JUMPDEST PUSH2 0x1AAD JUMPI PUSH1 0x40 MLOAD PUSH3 0x461BCD PUSH1 0xE5 SHL DUP2 MSTORE PUSH1 0x4 ADD PUSH2 0x8A8 SWAP1 PUSH2 0x2E15 JUMP JUMPDEST PUSH1 0x40 DUP1 MLOAD PUSH1 0x1 PUSH1 0x1 PUSH1 0xA0 SHL SUB DUP1 DUP10 AND DUP3 MSTORE DUP8 AND PUSH1 0x20 DUP3 ADD MSTORE SWAP1 DUP2 ADD DUP6 SWAP1 MSTORE PUSH32 0xF55572E1238E3CEF1CCE627268598C0BCDC71B7316311157752AE0A2E920998C SWAP1 PUSH1 0x60 ADD PUSH1 0x40 MLOAD DUP1 SWAP2 SUB SWAP1 LOG1 POP POP POP POP POP POP JUMP JUMPDEST PUSH1 0x0 DUP1 JUMPDEST PUSH1 0xD2 SLOAD PUSH1 0xFF DUP3 AND LT ISZERO PUSH2 0x1B5B JUMPI PUSH1 0xD2 DUP2 PUSH1 0xFF AND DUP2 SLOAD DUP2 LT PUSH2 0x1B27 JUMPI PUSH2 0x1B27 PUSH2 0x2DCC JUMP JUMPDEST PUSH1 0x0 SWAP2 DUP3 MSTORE PUSH1 0x20 SWAP1 SWAP2 KECCAK256 ADD SLOAD PUSH2 0x1B47 SWAP1 PUSH1 0x1 PUSH1 0x1 PUSH1 0xA0 SHL SUB AND BALANCE DUP4 PUSH2 0x2DE2 JUMP JUMPDEST SWAP2 POP DUP1 PUSH2 0x1B53 DUP2 PUSH2 0x2F0A JUMP JUMPDEST SWAP2 POP POP PUSH2 0x1B04 JUMP JUMPDEST POP PUSH2 0x1B64 PUSH2 0x179B JUMP JUMPDEST PUSH2 0x17BF SWAP1 DUP3 PUSH2 0x2DE2 JUMP JUMPDEST PUSH1 0x2 PUSH1 0x97 SLOAD EQ ISZERO PUSH2 0x1B91 JUMPI PUSH1 0x40 MLOAD PUSH3 0x461BCD PUSH1 0xE5 SHL DUP2 MSTORE PUSH1 0x4 ADD PUSH2 0x8A8 SWAP1 PUSH2 0x2D03 JUMP JUMPDEST PUSH1 0x2 PUSH1 0x97 SSTORE PUSH2 0x1B9E PUSH2 0x20C8 JUMP JUMPDEST PUSH1 0x0 PUSH1 0xCF SLOAD GT DUP1 ISZERO PUSH2 0x1BB2 JUMPI POP PUSH1 0xCF SLOAD SELFBALANCE LT ISZERO JUMPDEST ISZERO PUSH2 0x1C77 JUMPI PUSH1 0x0 PUSH1 0xCF DUP2 SWAP1 SSTORE PUSH1 0xD6 SLOAD PUSH1 0x40 MLOAD PUSH1 0x1 PUSH1 0x1 PUSH1 0xA0 SHL SUB SWAP1 SWAP2 AND SWAP1 DUP3 SWAP1 DUP2 DUP2 DUP2 DUP2 DUP2 DUP8 GAS CALL SWAP3 POP POP POP RETURNDATASIZE DUP1 PUSH1 0x0 DUP2 EQ PUSH2 0x1C0A JUMPI PUSH1 0x40 MLOAD SWAP2 POP PUSH1 0x1F NOT PUSH1 0x3F RETURNDATASIZE ADD AND DUP3 ADD PUSH1 0x40 MSTORE RETURNDATASIZE DUP3 MSTORE RETURNDATASIZE PUSH1 0x0 PUSH1 0x20 DUP5 ADD RETURNDATACOPY PUSH2 0x1C0F JUMP JUMPDEST PUSH1 0x60 SWAP2 POP JUMPDEST POP POP SWAP1 POP DUP1 PUSH2 0x1C30 JUMPI PUSH1 0x40 MLOAD PUSH3 0x461BCD PUSH1 0xE5 SHL DUP2 MSTORE PUSH1 0x4 ADD PUSH2 0x8A8 SWAP1 PUSH2 0x2E59 JUMP JUMPDEST PUSH1 0xD6 SLOAD PUSH1 0xCF SLOAD PUSH1 0x40 MLOAD SWAP1 DUP2 MSTORE PUSH1 0x1 PUSH1 0x1 PUSH1 0xA0 SHL SUB SWAP1 SWAP2 AND SWAP1 PUSH32 0x20CA5094F3A20C321CBE4123D0F01B276B81DF0FA24CD4D83D9253956035D863 SWAP1 PUSH1 0x20 ADD PUSH1 0x40 MLOAD DUP1 SWAP2 SUB SWAP1 LOG2 POP JUMPDEST PUSH1 0x1 PUSH1 0x97 SSTORE JUMP JUMPDEST PUSH2 0x1C86 PUSH2 0x20C8 JUMP JUMPDEST PUSH1 0x1 PUSH1 0x1 PUSH1 0xA0 SHL SUB DUP2 AND PUSH2 0x1CEB JUMPI PUSH1 0x40 MLOAD PUSH3 0x461BCD PUSH1 0xE5 SHL DUP2 MSTORE PUSH1 0x20 PUSH1 0x4 DUP3 ADD MSTORE PUSH1 0x26 PUSH1 0x24 DUP3 ADD MSTORE PUSH32 0x4F776E61626C653A206E6577206F776E657220697320746865207A65726F2061 PUSH1 0x44 DUP3 ADD MSTORE PUSH6 0x646472657373 PUSH1 0xD0 SHL PUSH1 0x64 DUP3 ADD MSTORE PUSH1 0x84 ADD PUSH2 0x8A8 JUMP JUMPDEST PUSH2 0x12D1 DUP2 PUSH2 0x28A7 JUMP JUMPDEST PUSH1 0x0 PUSH1 0x2 PUSH1 0x97 SLOAD EQ ISZERO PUSH2 0x1D19 JUMPI PUSH1 0x40 MLOAD PUSH3 0x461BCD PUSH1 0xE5 SHL DUP2 MSTORE PUSH1 0x4 ADD PUSH2 0x8A8 SWAP1 PUSH2 0x2D03 JUMP JUMPDEST PUSH1 0x2 PUSH1 0x97 SSTORE PUSH2 0x1D26 PUSH2 0x2122 JUMP JUMPDEST PUSH1 0x33 SLOAD PUSH1 0x1 PUSH1 0x1 PUSH1 0xA0 SHL SUB AND CALLER EQ DUP1 PUSH2 0x1D49 JUMPI POP PUSH1 0xD3 SLOAD PUSH1 0x1 PUSH1 0x1 PUSH1 0xA0 SHL SUB AND CALLER EQ JUMPDEST PUSH2 0x1D65 JUMPI PUSH1 0x40 MLOAD PUSH3 0x461BCD PUSH1 0xE5 SHL DUP2 MSTORE PUSH1 0x4 ADD PUSH2 0x8A8 SWAP1 PUSH2 0x2D3A JUMP JUMPDEST CALLER CALLVALUE DUP1 PUSH2 0x1DA5 JUMPI PUSH1 0x40 MLOAD PUSH3 0x461BCD PUSH1 0xE5 SHL DUP2 MSTORE PUSH1 0x20 PUSH1 0x4 DUP3 ADD MSTORE PUSH1 0xE PUSH1 0x24 DUP3 ADD MSTORE PUSH14 0x1A5B9D985B1A5908185B5BDD5B9D PUSH1 0x92 SHL PUSH1 0x44 DUP3 ADD MSTORE PUSH1 0x64 ADD PUSH2 0x8A8 JUMP JUMPDEST PUSH2 0x1DB1 DUP2 PUSH1 0xCB SLOAD PUSH2 0x2168 JUMP JUMPDEST SWAP3 POP PUSH2 0x1DBD DUP4 DUP3 PUSH2 0x2D98 JUMP JUMPDEST PUSH1 0xCF PUSH1 0x0 DUP3 DUP3 SLOAD PUSH2 0x1DCE SWAP2 SWAP1 PUSH2 0x2DE2 JUMP JUMPDEST SWAP1 SWAP2 SSTORE POP POP PUSH1 0xD4 SLOAD PUSH1 0x40 MLOAD PUSH4 0x40C10F19 PUSH1 0xE0 SHL DUP2 MSTORE PUSH1 0x1 PUSH1 0x1 PUSH1 0xA0 SHL SUB SWAP1 SWAP2 AND SWAP1 PUSH4 0x40C10F19 SWAP1 PUSH2 0x1E05 SWAP1 DUP6 SWAP1 DUP8 SWAP1 PUSH1 0x4 ADD PUSH2 0x2D69 JUMP JUMPDEST PUSH1 0x0 PUSH1 0x40 MLOAD DUP1 DUP4 SUB DUP2 PUSH1 0x0 DUP8 DUP1 EXTCODESIZE ISZERO DUP1 ISZERO PUSH2 0x1E1F JUMPI PUSH1 0x0 DUP1 REVERT JUMPDEST POP GAS CALL ISZERO DUP1 ISZERO PUSH2 0x1E33 JUMPI RETURNDATASIZE PUSH1 0x0 DUP1 RETURNDATACOPY RETURNDATASIZE PUSH1 0x0 REVERT JUMPDEST POP POP PUSH1 0x40 DUP1 MLOAD DUP5 DUP2 MSTORE PUSH1 0x20 DUP2 ADD DUP8 SWAP1 MSTORE PUSH1 0x1 PUSH1 0x1 PUSH1 0xA0 SHL SUB DUP7 AND SWAP4 POP DUP4 SWAP3 POP PUSH32 0xDCBC1C05240F31FF3AD067EF1EE35CE4997762752E3A095284754544F4C709D7 SWAP2 ADD PUSH1 0x40 MLOAD DUP1 SWAP2 SUB SWAP1 LOG3 POP POP PUSH1 0x1 PUSH1 0x97 SSTORE SWAP1 JUMP JUMPDEST PUSH2 0x1E8F PUSH2 0x20C8 JUMP JUMPDEST PUSH2 0x125C PUSH2 0x2A62 JUMP JUMPDEST PUSH1 0x0 SLOAD PUSH2 0x100 SWAP1 DIV PUSH1 0xFF AND ISZERO DUP1 DUP1 ISZERO PUSH2 0x1EB7 JUMPI POP PUSH1 0x0 SLOAD PUSH1 0x1 PUSH1 0xFF SWAP1 SWAP2 AND LT JUMPDEST DUP1 PUSH2 0x1ED1 JUMPI POP ADDRESS EXTCODESIZE ISZERO DUP1 ISZERO PUSH2 0x1ED1 JUMPI POP PUSH1 0x0 SLOAD PUSH1 0xFF AND PUSH1 0x1 EQ JUMPDEST PUSH2 0x1F34 JUMPI PUSH1 0x40 MLOAD PUSH3 0x461BCD PUSH1 0xE5 SHL DUP2 MSTORE PUSH1 0x20 PUSH1 0x4 DUP3 ADD MSTORE PUSH1 0x2E PUSH1 0x24 DUP3 ADD MSTORE PUSH32 0x496E697469616C697A61626C653A20636F6E747261637420697320616C726561 PUSH1 0x44 DUP3 ADD MSTORE PUSH14 0x191E481A5B9A5D1A585B1A5E9959 PUSH1 0x92 SHL PUSH1 0x64 DUP3 ADD MSTORE PUSH1 0x84 ADD PUSH2 0x8A8 JUMP JUMPDEST PUSH1 0x0 DUP1 SLOAD PUSH1 0xFF NOT AND PUSH1 0x1 OR SWAP1 SSTORE DUP1 ISZERO PUSH2 0x1F57 JUMPI PUSH1 0x0 DUP1 SLOAD PUSH2 0xFF00 NOT AND PUSH2 0x100 OR SWAP1 SSTORE JUMPDEST PUSH1 0x0 DUP6 GT DUP1 ISZERO PUSH2 0x1F6A JUMPI POP PUSH3 0xF4240 DUP6 GT ISZERO JUMPDEST PUSH2 0x1FAE JUMPI PUSH1 0x40 MLOAD PUSH3 0x461BCD PUSH1 0xE5 SHL DUP2 MSTORE PUSH1 0x20 PUSH1 0x4 DUP3 ADD MSTORE PUSH1 0x15 PUSH1 0x24 DUP3 ADD MSTORE PUSH21 0x696E76616C6964206D61784465706F736974466565 PUSH1 0x58 SHL PUSH1 0x44 DUP3 ADD MSTORE PUSH1 0x64 ADD PUSH2 0x8A8 JUMP JUMPDEST PUSH1 0x0 DUP5 GT DUP1 ISZERO PUSH2 0x1FC1 JUMPI POP PUSH3 0xF4240 DUP5 GT ISZERO JUMPDEST PUSH2 0x200D JUMPI PUSH1 0x40 MLOAD PUSH3 0x461BCD PUSH1 0xE5 SHL DUP2 MSTORE PUSH1 0x20 PUSH1 0x4 DUP3 ADD MSTORE PUSH1 0x19 PUSH1 0x24 DUP3 ADD MSTORE PUSH32 0x696E76616C6964206D61785769746864726177616C4665657300000000000000 PUSH1 0x44 DUP3 ADD MSTORE PUSH1 0x64 ADD PUSH2 0x8A8 JUMP JUMPDEST PUSH2 0x2015 PUSH2 0x2A9B JUMP JUMPDEST PUSH2 0x201D PUSH2 0x2ACA JUMP JUMPDEST PUSH2 0x2025 PUSH2 0x2AF9 JUMP JUMPDEST CALLER PUSH1 0x0 DUP2 DUP2 MSTORE PUSH1 0xCA PUSH1 0x20 MSTORE PUSH1 0x40 SWAP1 KECCAK256 DUP1 SLOAD PUSH1 0xFF NOT AND PUSH1 0x1 OR SWAP1 SSTORE PUSH1 0xCC DUP7 SWAP1 SSTORE PUSH1 0xCE DUP6 SWAP1 SSTORE PUSH1 0xFF DUP5 AND PUSH1 0xD0 SSTORE PUSH1 0xD6 DUP1 SLOAD PUSH1 0x1 PUSH1 0x1 PUSH1 0xA0 SHL SUB NOT SWAP1 DUP2 AND SWAP1 SWAP3 OR SWAP1 SSTORE PUSH1 0xD4 DUP1 SLOAD PUSH1 0x1 PUSH1 0x1 PUSH1 0xA0 SHL SUB DUP6 AND SWAP3 AND SWAP2 SWAP1 SWAP2 OR SWAP1 SSTORE DUP1 ISZERO PUSH2 0x20C1 JUMPI PUSH1 0x0 DUP1 SLOAD PUSH2 0xFF00 NOT AND SWAP1 SSTORE PUSH1 0x40 MLOAD PUSH1 0x1 DUP2 MSTORE PUSH32 0x7F26B83FF96E1F2B6A682F133852F6798A09C465DA95921460CEFB3847402498 SWAP1 PUSH1 0x20 ADD PUSH1 0x40 MLOAD DUP1 SWAP2 SUB SWAP1 LOG1 JUMPDEST POP POP POP POP POP JUMP JUMPDEST PUSH1 0x33 SLOAD PUSH1 0x1 PUSH1 0x1 PUSH1 0xA0 SHL SUB AND CALLER EQ PUSH2 0x125C JUMPI PUSH1 0x40 MLOAD PUSH3 0x461BCD PUSH1 0xE5 SHL DUP2 MSTORE PUSH1 0x20 PUSH1 0x4 DUP3 ADD DUP2 SWAP1 MSTORE PUSH1 0x24 DUP3 ADD MSTORE PUSH32 0x4F776E61626C653A2063616C6C6572206973206E6F7420746865206F776E6572 PUSH1 0x44 DUP3 ADD MSTORE PUSH1 0x64 ADD PUSH2 0x8A8 JUMP JUMPDEST PUSH1 0x65 SLOAD PUSH1 0xFF AND ISZERO PUSH2 0x125C JUMPI PUSH1 0x40 MLOAD PUSH3 0x461BCD PUSH1 0xE5 SHL DUP2 MSTORE PUSH1 0x20 PUSH1 0x4 DUP3 ADD MSTORE PUSH1 0x10 PUSH1 0x24 DUP3 ADD MSTORE PUSH16 0x14185D5CD8589B194E881C185D5CD959 PUSH1 0x82 SHL PUSH1 0x44 DUP3 ADD MSTORE PUSH1 0x64 ADD PUSH2 0x8A8 JUMP JUMPDEST PUSH1 0x0 DUP2 ISZERO PUSH2 0x219E JUMPI PUSH1 0x0 PUSH3 0xF4240 PUSH2 0x2180 DUP5 DUP7 PUSH2 0x2EC9 JUMP JUMPDEST PUSH2 0x218A SWAP2 SWAP1 PUSH2 0x2EE8 JUMP JUMPDEST SWAP1 POP PUSH2 0x2196 DUP2 DUP6 PUSH2 0x2D98 JUMP JUMPDEST SWAP2 POP POP PUSH2 0x11EC JUMP JUMPDEST POP DUP2 PUSH2 0x11EC JUMP JUMPDEST PUSH1 0x0 DUP1 DUP5 PUSH1 0x1 PUSH1 0x1 PUSH1 0xA0 SHL SUB AND PUSH4 0xBE19B9C5 DUP6 DUP6 PUSH1 0x40 MLOAD DUP4 PUSH4 0xFFFFFFFF AND PUSH1 0xE0 SHL DUP2 MSTORE PUSH1 0x4 ADD PUSH2 0x21D6 SWAP3 SWAP2 SWAP1 PUSH2 0x2D69 JUMP JUMPDEST PUSH1 0x20 PUSH1 0x40 MLOAD DUP1 DUP4 SUB DUP2 PUSH1 0x0 DUP8 GAS CALL ISZERO DUP1 ISZERO PUSH2 0x21F5 JUMPI RETURNDATASIZE PUSH1 0x0 DUP1 RETURNDATACOPY RETURNDATASIZE PUSH1 0x0 REVERT JUMPDEST POP POP POP POP PUSH1 0x40 MLOAD RETURNDATASIZE PUSH1 0x1F NOT PUSH1 0x1F DUP3 ADD AND DUP3 ADD DUP1 PUSH1 0x40 MSTORE POP DUP2 ADD SWAP1 PUSH2 0x2219 SWAP2 SWAP1 PUSH2 0x2EB0 JUMP JUMPDEST SWAP1 POP DUP3 PUSH1 0xD1 PUSH1 0x0 DUP3 DUP3 SLOAD PUSH2 0x222D SWAP2 SWAP1 PUSH2 0x2D98 JUMP JUMPDEST SWAP1 SWAP2 SSTORE POP POP PUSH1 0x1 PUSH1 0x1 PUSH1 0xA0 SHL SUB DUP6 AND PUSH1 0x0 SWAP1 DUP2 MSTORE PUSH1 0xC9 PUSH1 0x20 MSTORE PUSH1 0x40 DUP2 KECCAK256 PUSH1 0x2 ADD DUP1 SLOAD DUP6 SWAP3 SWAP1 PUSH2 0x225D SWAP1 DUP5 SWAP1 PUSH2 0x2D98 JUMP JUMPDEST SWAP1 SWAP2 SSTORE POP POP PUSH1 0x40 MLOAD PUSH32 0xF40C4F28536139446CDEDFFE635E5FC0DE1986A5AE5F1636AB5F6B44C23468AB SWAP1 PUSH2 0x2294 SWAP1 DUP8 SWAP1 DUP7 SWAP1 PUSH2 0x2D69 JUMP JUMPDEST PUSH1 0x40 MLOAD DUP1 SWAP2 SUB SWAP1 LOG1 SWAP5 SWAP4 POP POP POP POP JUMP JUMPDEST PUSH1 0x0 DUP1 JUMPDEST PUSH1 0xD2 SLOAD PUSH1 0xFF DUP3 AND LT ISZERO PUSH2 0x248B JUMPI PUSH1 0xC9 PUSH1 0x0 PUSH1 0xD2 DUP4 PUSH1 0xFF AND DUP2 SLOAD DUP2 LT PUSH2 0x22CF JUMPI PUSH2 0x22CF PUSH2 0x2DCC JUMP JUMPDEST PUSH1 0x0 SWAP2 DUP3 MSTORE PUSH1 0x20 DUP1 DUP4 KECCAK256 SWAP1 SWAP2 ADD SLOAD PUSH1 0x1 PUSH1 0x1 PUSH1 0xA0 SHL SUB AND DUP4 MSTORE DUP3 ADD SWAP3 SWAP1 SWAP3 MSTORE PUSH1 0x40 ADD SWAP1 KECCAK256 SLOAD PUSH1 0xFF AND DUP1 ISZERO PUSH2 0x2344 JUMPI POP PUSH1 0x0 PUSH1 0xC9 PUSH1 0x0 PUSH1 0xD2 DUP5 PUSH1 0xFF AND DUP2 SLOAD DUP2 LT PUSH2 0x231A JUMPI PUSH2 0x231A PUSH2 0x2DCC JUMP JUMPDEST PUSH1 0x0 SWAP2 DUP3 MSTORE PUSH1 0x20 DUP1 DUP4 KECCAK256 SWAP1 SWAP2 ADD SLOAD PUSH1 0x1 PUSH1 0x1 PUSH1 0xA0 SHL SUB AND DUP4 MSTORE DUP3 ADD SWAP3 SWAP1 SWAP3 MSTORE PUSH1 0x40 ADD SWAP1 KECCAK256 PUSH1 0x2 ADD SLOAD GT JUMPDEST DUP1 ISZERO PUSH2 0x234F JUMPI POP DUP3 DUP3 LT JUMPDEST ISZERO PUSH2 0x2479 JUMPI PUSH2 0x235E DUP3 DUP5 PUSH2 0x2D98 JUMP JUMPDEST PUSH1 0xC9 PUSH1 0x0 PUSH1 0xD2 DUP5 PUSH1 0xFF AND DUP2 SLOAD DUP2 LT PUSH2 0x2378 JUMPI PUSH2 0x2378 PUSH2 0x2DCC JUMP JUMPDEST PUSH1 0x0 SWAP2 DUP3 MSTORE PUSH1 0x20 DUP1 DUP4 KECCAK256 SWAP1 SWAP2 ADD SLOAD PUSH1 0x1 PUSH1 0x1 PUSH1 0xA0 SHL SUB AND DUP4 MSTORE DUP3 ADD SWAP3 SWAP1 SWAP3 MSTORE PUSH1 0x40 ADD SWAP1 KECCAK256 PUSH1 0x2 ADD SLOAD LT PUSH2 0x23ED JUMPI PUSH2 0x23E3 PUSH1 0xD2 DUP3 PUSH1 0xFF AND DUP2 SLOAD DUP2 LT PUSH2 0x23BE JUMPI PUSH2 0x23BE PUSH2 0x2DCC JUMP JUMPDEST PUSH1 0x0 SWAP2 DUP3 MSTORE PUSH1 0x20 SWAP1 SWAP2 KECCAK256 ADD SLOAD PUSH1 0x1 PUSH1 0x1 PUSH1 0xA0 SHL SUB AND DUP6 PUSH2 0x23DE DUP6 DUP8 PUSH2 0x2D98 JUMP JUMPDEST PUSH2 0x26B5 JUMP JUMPDEST PUSH2 0x2196 SWAP1 DUP4 PUSH2 0x2DE2 JUMP JUMPDEST PUSH2 0x246C PUSH1 0xD2 DUP3 PUSH1 0xFF AND DUP2 SLOAD DUP2 LT PUSH2 0x2406 JUMPI PUSH2 0x2406 PUSH2 0x2DCC JUMP JUMPDEST SWAP1 PUSH1 0x0 MSTORE PUSH1 0x20 PUSH1 0x0 KECCAK256 ADD PUSH1 0x0 SWAP1 SLOAD SWAP1 PUSH2 0x100 EXP SWAP1 DIV PUSH1 0x1 PUSH1 0x1 PUSH1 0xA0 SHL SUB AND DUP6 PUSH1 0xC9 PUSH1 0x0 PUSH1 0xD2 DUP7 PUSH1 0xFF AND DUP2 SLOAD DUP2 LT PUSH2 0x243F JUMPI PUSH2 0x243F PUSH2 0x2DCC JUMP JUMPDEST PUSH1 0x0 SWAP2 DUP3 MSTORE PUSH1 0x20 DUP1 DUP4 KECCAK256 SWAP1 SWAP2 ADD SLOAD PUSH1 0x1 PUSH1 0x1 PUSH1 0xA0 SHL SUB AND DUP4 MSTORE DUP3 ADD SWAP3 SWAP1 SWAP3 MSTORE PUSH1 0x40 ADD SWAP1 KECCAK256 PUSH1 0x2 ADD SLOAD PUSH2 0x26B5 JUMP JUMPDEST PUSH2 0x2476 SWAP1 DUP4 PUSH2 0x2DE2 JUMP JUMPDEST SWAP2 POP JUMPDEST DUP1 PUSH2 0x2483 DUP2 PUSH2 0x2F0A JUMP JUMPDEST SWAP2 POP POP PUSH2 0x22A8 JUMP JUMPDEST POP SWAP3 SWAP2 POP POP JUMP JUMPDEST PUSH1 0x0 DUP1 DUP3 GT PUSH2 0x24DC JUMPI PUSH1 0x40 MLOAD PUSH3 0x461BCD PUSH1 0xE5 SHL DUP2 MSTORE PUSH1 0x20 PUSH1 0x4 DUP3 ADD MSTORE PUSH1 0x16 PUSH1 0x24 DUP3 ADD MSTORE PUSH22 0x1A5B9D985B1A590819195C1BDCDA5D08185B5BDD5B9D PUSH1 0x52 SHL PUSH1 0x44 DUP3 ADD MSTORE PUSH1 0x64 ADD PUSH2 0x8A8 JUMP JUMPDEST DUP2 PUSH2 0x24E5 PUSH2 0x179B JUMP JUMPDEST LT ISZERO PUSH2 0x252A JUMPI PUSH1 0x40 MLOAD PUSH3 0x461BCD PUSH1 0xE5 SHL DUP2 MSTORE PUSH1 0x20 PUSH1 0x4 DUP3 ADD MSTORE PUSH1 0x14 PUSH1 0x24 DUP3 ADD MSTORE PUSH20 0x696E73756666696369656E742062616C616E6365 PUSH1 0x60 SHL PUSH1 0x44 DUP3 ADD MSTORE PUSH1 0x64 ADD PUSH2 0x8A8 JUMP JUMPDEST PUSH1 0x1 PUSH1 0x1 PUSH1 0xA0 SHL SUB DUP4 AND PUSH1 0x0 SWAP1 DUP2 MSTORE PUSH1 0xC9 PUSH1 0x20 MSTORE PUSH1 0x40 SWAP1 KECCAK256 SLOAD PUSH1 0xFF AND DUP1 ISZERO PUSH2 0x25B6 JUMPI POP PUSH1 0x40 MLOAD PUSH4 0x1CA21DC7 PUSH1 0xE1 SHL DUP2 MSTORE PUSH1 0x4 DUP2 ADD DUP4 SWAP1 MSTORE PUSH1 0x1 PUSH1 0x1 PUSH1 0xA0 SHL SUB DUP5 AND SWAP1 PUSH4 0x39443B8E SWAP1 PUSH1 0x24 ADD PUSH1 0x20 PUSH1 0x40 MLOAD DUP1 DUP4 SUB DUP2 DUP7 GAS STATICCALL ISZERO DUP1 ISZERO PUSH2 0x2592 JUMPI RETURNDATASIZE PUSH1 0x0 DUP1 RETURNDATACOPY RETURNDATASIZE PUSH1 0x0 REVERT JUMPDEST POP POP POP POP PUSH1 0x40 MLOAD RETURNDATASIZE PUSH1 0x1F NOT PUSH1 0x1F DUP3 ADD AND DUP3 ADD DUP1 PUSH1 0x40 MSTORE POP DUP2 ADD SWAP1 PUSH2 0x25B6 SWAP2 SWAP1 PUSH2 0x2F2A JUMP JUMPDEST ISZERO PUSH2 0x11EC JUMPI PUSH1 0x0 DUP4 PUSH1 0x1 PUSH1 0x1 PUSH1 0xA0 SHL SUB AND PUSH4 0xD0E30DB0 DUP5 PUSH1 0x40 MLOAD DUP3 PUSH4 0xFFFFFFFF AND PUSH1 0xE0 SHL DUP2 MSTORE PUSH1 0x4 ADD PUSH1 0x20 PUSH1 0x40 MLOAD DUP1 DUP4 SUB DUP2 DUP6 DUP9 GAS CALL ISZERO DUP1 ISZERO PUSH2 0x25FD JUMPI RETURNDATASIZE PUSH1 0x0 DUP1 RETURNDATACOPY RETURNDATASIZE PUSH1 0x0 REVERT JUMPDEST POP POP POP POP POP PUSH1 0x40 MLOAD RETURNDATASIZE PUSH1 0x1F NOT PUSH1 0x1F DUP3 ADD AND DUP3 ADD DUP1 PUSH1 0x40 MSTORE POP DUP2 ADD SWAP1 PUSH2 0x2622 SWAP2 SWAP1 PUSH2 0x2EB0 JUMP JUMPDEST SWAP1 POP DUP1 ISZERO PUSH2 0x248B JUMPI DUP1 PUSH1 0xD1 PUSH1 0x0 DUP3 DUP3 SLOAD PUSH2 0x263C SWAP2 SWAP1 PUSH2 0x2DE2 JUMP JUMPDEST SWAP1 SWAP2 SSTORE POP POP PUSH1 0x1 PUSH1 0x1 PUSH1 0xA0 SHL SUB DUP5 AND PUSH1 0x0 SWAP1 DUP2 MSTORE PUSH1 0xC9 PUSH1 0x20 MSTORE PUSH1 0x40 DUP2 KECCAK256 PUSH1 0x2 ADD DUP1 SLOAD DUP4 SWAP3 SWAP1 PUSH2 0x266C SWAP1 DUP5 SWAP1 PUSH2 0x2DE2 JUMP JUMPDEST SWAP1 SWAP2 SSTORE POP POP PUSH1 0x40 MLOAD PUSH32 0xF47C2BA90B71EF36B592A780F1D750D3A480494FDC7C9B84BB3F9D8DE8A1B40A SWAP1 PUSH2 0x26A3 SWAP1 DUP7 SWAP1 DUP7 SWAP1 PUSH2 0x2D69 JUMP JUMPDEST PUSH1 0x40 MLOAD DUP1 SWAP2 SUB SWAP1 LOG1 PUSH1 0x1 SWAP2 POP POP PUSH2 0x11EC JUMP JUMPDEST PUSH1 0x0 DUP1 DUP3 GT PUSH2 0x2702 JUMPI PUSH1 0x40 MLOAD PUSH3 0x461BCD PUSH1 0xE5 SHL DUP2 MSTORE PUSH1 0x20 PUSH1 0x4 DUP3 ADD MSTORE PUSH1 0x19 PUSH1 0x24 DUP3 ADD MSTORE PUSH25 0x1A5B9D985B1A59081DDA5D1A191C985DD85B08185B5BDD5B9D PUSH1 0x3A SHL PUSH1 0x44 DUP3 ADD MSTORE PUSH1 0x64 ADD PUSH2 0x8A8 JUMP JUMPDEST PUSH1 0x1 PUSH1 0x1 PUSH1 0xA0 SHL SUB DUP5 AND PUSH1 0x0 SWAP1 DUP2 MSTORE PUSH1 0xC9 PUSH1 0x20 MSTORE PUSH1 0x40 SWAP1 KECCAK256 PUSH1 0x2 ADD SLOAD DUP3 GT ISZERO PUSH2 0x276D JUMPI PUSH1 0x40 MLOAD PUSH3 0x461BCD PUSH1 0xE5 SHL DUP2 MSTORE PUSH1 0x20 PUSH1 0x4 DUP3 ADD MSTORE PUSH1 0x1F PUSH1 0x24 DUP3 ADD MSTORE PUSH32 0x696E73756666696369656E742061737365747320696E20737472617465677900 PUSH1 0x44 DUP3 ADD MSTORE PUSH1 0x64 ADD PUSH2 0x8A8 JUMP JUMPDEST PUSH1 0x40 MLOAD PUSH4 0xF3FEF3A3 PUSH1 0xE0 SHL DUP2 MSTORE PUSH1 0x0 SWAP1 PUSH1 0x1 PUSH1 0x1 PUSH1 0xA0 SHL SUB DUP7 AND SWAP1 PUSH4 0xF3FEF3A3 SWAP1 PUSH2 0x279E SWAP1 DUP8 SWAP1 DUP8 SWAP1 PUSH1 0x4 ADD PUSH2 0x2D69 JUMP JUMPDEST PUSH1 0x20 PUSH1 0x40 MLOAD DUP1 DUP4 SUB DUP2 PUSH1 0x0 DUP8 GAS CALL ISZERO DUP1 ISZERO PUSH2 0x27BD JUMPI RETURNDATASIZE PUSH1 0x0 DUP1 RETURNDATACOPY RETURNDATASIZE PUSH1 0x0 REVERT JUMPDEST POP POP POP POP PUSH1 0x40 MLOAD RETURNDATASIZE PUSH1 0x1F NOT PUSH1 0x1F DUP3 ADD AND DUP3 ADD DUP1 PUSH1 0x40 MSTORE POP DUP2 ADD SWAP1 PUSH2 0x27E1 SWAP2 SWAP1 PUSH2 0x2EB0 JUMP JUMPDEST SWAP1 POP DUP3 DUP2 GT ISZERO PUSH2 0x282E JUMPI PUSH1 0x40 MLOAD PUSH3 0x461BCD PUSH1 0xE5 SHL DUP2 MSTORE PUSH1 0x20 PUSH1 0x4 DUP3 ADD MSTORE PUSH1 0x18 PUSH1 0x24 DUP3 ADD MSTORE PUSH24 0x1A5B9D985B1A59081DDA5D1A191C985DDB88185B5BDD5B9D PUSH1 0x42 SHL PUSH1 0x44 DUP3 ADD MSTORE PUSH1 0x64 ADD PUSH2 0x8A8 JUMP JUMPDEST DUP3 PUSH1 0xD1 PUSH1 0x0 DUP3 DUP3 SLOAD PUSH2 0x2840 SWAP2 SWAP1 PUSH2 0x2D98 JUMP JUMPDEST SWAP1 SWAP2 SSTORE POP POP PUSH1 0x1 PUSH1 0x1 PUSH1 0xA0 SHL SUB DUP6 AND PUSH1 0x0 SWAP1 DUP2 MSTORE PUSH1 0xC9 PUSH1 0x20 MSTORE PUSH1 0x40 DUP2 KECCAK256 PUSH1 0x2 ADD DUP1 SLOAD DUP6 SWAP3 SWAP1 PUSH2 0x2870 SWAP1 DUP5 SWAP1 PUSH2 0x2D98 JUMP JUMPDEST SWAP1 SWAP2 SSTORE POP POP PUSH1 0x40 MLOAD PUSH32 0xD442D8F1594FC5996CAED833EB6135A4C223A05BDBED778C0D8415A52EB87FEA SWAP1 PUSH2 0x2294 SWAP1 DUP8 SWAP1 DUP7 SWAP1 PUSH2 0x2D69 JUMP JUMPDEST PUSH1 0x33 DUP1 SLOAD PUSH1 0x1 PUSH1 0x1 PUSH1 0xA0 SHL SUB DUP4 DUP2 AND PUSH1 0x1 PUSH1 0x1 PUSH1 0xA0 SHL SUB NOT DUP4 AND DUP2 OR SWAP1 SWAP4 SSTORE PUSH1 0x40 MLOAD SWAP2 AND SWAP2 SWAP1 DUP3 SWAP1 PUSH32 0x8BE0079C531659141344CD1FD0A4F28419497F9722A3DAAFE3B4186F6B6457E0 SWAP1 PUSH1 0x0 SWAP1 LOG3 POP POP JUMP JUMPDEST PUSH1 0x1 PUSH1 0x1 PUSH1 0xA0 SHL SUB DUP2 AND PUSH1 0x0 SWAP1 DUP2 MSTORE PUSH1 0xC9 PUSH1 0x20 MSTORE PUSH1 0x40 DUP2 KECCAK256 PUSH1 0x2 ADD SLOAD PUSH1 0xA LT PUSH2 0x2945 JUMPI POP PUSH1 0x1 PUSH1 0x1 PUSH1 0xA0 SHL SUB AND PUSH1 0x0 SWAP1 DUP2 MSTORE PUSH1 0xC9 PUSH1 0x20 MSTORE PUSH1 0x40 DUP2 KECCAK256 DUP1 SLOAD PUSH1 0xFF NOT AND DUP2 SSTORE PUSH1 0x2 ADD SSTORE PUSH1 0x1 SWAP1 JUMP JUMPDEST SWAP2 SWAP1 POP JUMP JUMPDEST PUSH1 0x0 DUP1 PUSH1 0x0 JUMPDEST PUSH1 0xD2 SLOAD DUP2 LT ISZERO PUSH2 0x29FC JUMPI PUSH1 0xC9 PUSH1 0x0 PUSH1 0xD2 DUP4 DUP2 SLOAD DUP2 LT PUSH2 0x2971 JUMPI PUSH2 0x2971 PUSH2 0x2DCC JUMP JUMPDEST PUSH1 0x0 SWAP2 DUP3 MSTORE PUSH1 0x20 DUP1 DUP4 KECCAK256 SWAP1 SWAP2 ADD SLOAD PUSH1 0x1 PUSH1 0x1 PUSH1 0xA0 SHL SUB AND DUP4 MSTORE DUP3 ADD SWAP3 SWAP1 SWAP3 MSTORE PUSH1 0x40 ADD SWAP1 KECCAK256 SLOAD PUSH1 0xFF AND ISZERO PUSH2 0x29EA JUMPI PUSH1 0xC9 PUSH1 0x0 PUSH1 0xD2 DUP4 DUP2 SLOAD DUP2 LT PUSH2 0x29B5 JUMPI PUSH2 0x29B5 PUSH2 0x2DCC JUMP JUMPDEST PUSH1 0x0 SWAP2 DUP3 MSTORE PUSH1 0x20 DUP1 DUP4 KECCAK256 SWAP1 SWAP2 ADD SLOAD PUSH1 0x1 PUSH1 0x1 PUSH1 0xA0 SHL SUB AND DUP4 MSTORE DUP3 ADD SWAP3 SWAP1 SWAP3 MSTORE PUSH1 0x40 ADD SWAP1 KECCAK256 PUSH1 0x1 ADD SLOAD PUSH2 0x29E7 SWAP1 DUP4 PUSH2 0x2DE2 JUMP JUMPDEST SWAP2 POP JUMPDEST DUP1 PUSH2 0x29F4 DUP2 PUSH2 0x2DFA JUMP JUMPDEST SWAP2 POP POP PUSH2 0x2950 JUMP JUMPDEST POP PUSH3 0xF4240 LT ISZERO SWAP2 SWAP1 POP JUMP JUMPDEST PUSH2 0x2A10 PUSH2 0x2122 JUMP JUMPDEST PUSH1 0x65 DUP1 SLOAD PUSH1 0xFF NOT AND PUSH1 0x1 OR SWAP1 SSTORE PUSH32 0x62E78CEA01BEE320CD4E420270B5EA74000D11B0C9F74754EBDBFC544B05A258 PUSH2 0x2A45 CALLER SWAP1 JUMP JUMPDEST PUSH1 0x40 MLOAD PUSH1 0x1 PUSH1 0x1 PUSH1 0xA0 SHL SUB SWAP1 SWAP2 AND DUP2 MSTORE PUSH1 0x20 ADD PUSH1 0x40 MLOAD DUP1 SWAP2 SUB SWAP1 LOG1 JUMP JUMPDEST PUSH2 0x2A6A PUSH2 0x2B28 JUMP JUMPDEST PUSH1 0x65 DUP1 SLOAD PUSH1 0xFF NOT AND SWAP1 SSTORE PUSH32 0x5DB9EE0A495BF2E6FF9C91A7834C1BA4FDD244A5E8AA4E537BD38AEAE4B073AA CALLER PUSH2 0x2A45 JUMP JUMPDEST PUSH1 0x0 SLOAD PUSH2 0x100 SWAP1 DIV PUSH1 0xFF AND PUSH2 0x2AC2 JUMPI PUSH1 0x40 MLOAD PUSH3 0x461BCD PUSH1 0xE5 SHL DUP2 MSTORE PUSH1 0x4 ADD PUSH2 0x8A8 SWAP1 PUSH2 0x2F4C JUMP JUMPDEST PUSH2 0x125C PUSH2 0x2B71 JUMP JUMPDEST PUSH1 0x0 SLOAD PUSH2 0x100 SWAP1 DIV PUSH1 0xFF AND PUSH2 0x2AF1 JUMPI PUSH1 0x40 MLOAD PUSH3 0x461BCD PUSH1 0xE5 SHL DUP2 MSTORE PUSH1 0x4 ADD PUSH2 0x8A8 SWAP1 PUSH2 0x2F4C JUMP JUMPDEST PUSH2 0x125C PUSH2 0x2BA1 JUMP JUMPDEST PUSH1 0x0 SLOAD PUSH2 0x100 SWAP1 DIV PUSH1 0xFF AND PUSH2 0x2B20 JUMPI PUSH1 0x40 MLOAD PUSH3 0x461BCD PUSH1 0xE5 SHL DUP2 MSTORE PUSH1 0x4 ADD PUSH2 0x8A8 SWAP1 PUSH2 0x2F4C JUMP JUMPDEST PUSH2 0x125C PUSH2 0x2BD4 JUMP JUMPDEST PUSH1 0x65 SLOAD PUSH1 0xFF AND PUSH2 0x125C JUMPI PUSH1 0x40 MLOAD PUSH3 0x461BCD PUSH1 0xE5 SHL DUP2 MSTORE PUSH1 0x20 PUSH1 0x4 DUP3 ADD MSTORE PUSH1 0x14 PUSH1 0x24 DUP3 ADD MSTORE PUSH20 0x14185D5CD8589B194E881B9BDD081C185D5CD959 PUSH1 0x62 SHL PUSH1 0x44 DUP3 ADD MSTORE PUSH1 0x64 ADD PUSH2 0x8A8 JUMP JUMPDEST PUSH1 0x0 SLOAD PUSH2 0x100 SWAP1 DIV PUSH1 0xFF AND PUSH2 0x2B98 JUMPI PUSH1 0x40 MLOAD PUSH3 0x461BCD PUSH1 0xE5 SHL DUP2 MSTORE PUSH1 0x4 ADD PUSH2 0x8A8 SWAP1 PUSH2 0x2F4C JUMP JUMPDEST PUSH2 0x125C CALLER PUSH2 0x28A7 JUMP JUMPDEST PUSH1 0x0 SLOAD PUSH2 0x100 SWAP1 DIV PUSH1 0xFF AND PUSH2 0x2BC8 JUMPI PUSH1 0x40 MLOAD PUSH3 0x461BCD PUSH1 0xE5 SHL DUP2 MSTORE PUSH1 0x4 ADD PUSH2 0x8A8 SWAP1 PUSH2 0x2F4C JUMP JUMPDEST PUSH1 0x65 DUP1 SLOAD PUSH1 0xFF NOT AND SWAP1 SSTORE JUMP JUMPDEST PUSH1 0x0 SLOAD PUSH2 0x100 SWAP1 DIV PUSH1 0xFF AND PUSH2 0x1C77 JUMPI PUSH1 0x40 MLOAD PUSH3 0x461BCD PUSH1 0xE5 SHL DUP2 MSTORE PUSH1 0x4 ADD PUSH2 0x8A8 SWAP1 PUSH2 0x2F4C JUMP JUMPDEST PUSH1 0x1 PUSH1 0x1 PUSH1 0xA0 SHL SUB DUP2 AND DUP2 EQ PUSH2 0x12D1 JUMPI PUSH1 0x0 DUP1 REVERT JUMPDEST PUSH1 0x0 PUSH1 0x20 DUP3 DUP5 SUB SLT ISZERO PUSH2 0x2C22 JUMPI PUSH1 0x0 DUP1 REVERT JUMPDEST DUP2 CALLDATALOAD PUSH2 0x1858 DUP2 PUSH2 0x2BFB JUMP JUMPDEST PUSH1 0x0 DUP1 PUSH1 0x0 PUSH1 0x60 DUP5 DUP7 SUB SLT ISZERO PUSH2 0x2C42 JUMPI PUSH1 0x0 DUP1 REVERT JUMPDEST DUP4 CALLDATALOAD PUSH2 0x2C4D DUP2 PUSH2 0x2BFB JUMP JUMPDEST SWAP3 POP PUSH1 0x20 DUP5 ADD CALLDATALOAD PUSH2 0x2C5D DUP2 PUSH2 0x2BFB JUMP JUMPDEST SWAP3 SWAP6 SWAP3 SWAP5 POP POP POP PUSH1 0x40 SWAP2 SWAP1 SWAP2 ADD CALLDATALOAD SWAP1 JUMP JUMPDEST PUSH1 0x0 DUP1 PUSH1 0x40 DUP4 DUP6 SUB SLT ISZERO PUSH2 0x2C81 JUMPI PUSH1 0x0 DUP1 REVERT JUMPDEST DUP3 CALLDATALOAD PUSH2 0x2C8C DUP2 PUSH2 0x2BFB JUMP JUMPDEST SWAP5 PUSH1 0x20 SWAP4 SWAP1 SWAP4 ADD CALLDATALOAD SWAP4 POP POP POP JUMP JUMPDEST PUSH1 0x0 PUSH1 0x20 DUP3 DUP5 SUB SLT ISZERO PUSH2 0x2CAC JUMPI PUSH1 0x0 DUP1 REVERT JUMPDEST POP CALLDATALOAD SWAP2 SWAP1 POP JUMP JUMPDEST PUSH1 0x0 DUP1 PUSH1 0x0 DUP1 PUSH1 0x80 DUP6 DUP8 SUB SLT ISZERO PUSH2 0x2CC9 JUMPI PUSH1 0x0 DUP1 REVERT JUMPDEST DUP5 CALLDATALOAD SWAP4 POP PUSH1 0x20 DUP6 ADD CALLDATALOAD SWAP3 POP PUSH1 0x40 DUP6 ADD CALLDATALOAD PUSH1 0xFF DUP2 AND DUP2 EQ PUSH2 0x2CE8 JUMPI PUSH1 0x0 DUP1 REVERT JUMPDEST SWAP2 POP PUSH1 0x60 DUP6 ADD CALLDATALOAD PUSH2 0x2CF8 DUP2 PUSH2 0x2BFB JUMP JUMPDEST SWAP4 SWAP7 SWAP3 SWAP6 POP SWAP1 SWAP4 POP POP JUMP JUMPDEST PUSH1 0x20 DUP1 DUP3 MSTORE PUSH1 0x1F SWAP1 DUP3 ADD MSTORE PUSH32 0x5265656E7472616E637947756172643A207265656E7472616E742063616C6C00 PUSH1 0x40 DUP3 ADD MSTORE PUSH1 0x60 ADD SWAP1 JUMP JUMPDEST PUSH1 0x20 DUP1 DUP3 MSTORE PUSH1 0x15 SWAP1 DUP3 ADD MSTORE PUSH21 0x141C9BDD9A59195C8E881B9BDD08185B1B1BDDD959 PUSH1 0x5A SHL PUSH1 0x40 DUP3 ADD MSTORE PUSH1 0x60 ADD SWAP1 JUMP JUMPDEST PUSH1 0x1 PUSH1 0x1 PUSH1 0xA0 SHL SUB SWAP3 SWAP1 SWAP3 AND DUP3 MSTORE PUSH1 0x20 DUP3 ADD MSTORE PUSH1 0x40 ADD SWAP1 JUMP JUMPDEST PUSH4 0x4E487B71 PUSH1 0xE0 SHL PUSH1 0x0 MSTORE PUSH1 0x11 PUSH1 0x4 MSTORE PUSH1 0x24 PUSH1 0x0 REVERT JUMPDEST PUSH1 0x0 DUP3 DUP3 LT ISZERO PUSH2 0x2DAA JUMPI PUSH2 0x2DAA PUSH2 0x2D82 JUMP JUMPDEST POP SUB SWAP1 JUMP JUMPDEST PUSH1 0x0 PUSH1 0x20 DUP3 DUP5 SUB SLT ISZERO PUSH2 0x2DC1 JUMPI PUSH1 0x0 DUP1 REVERT JUMPDEST DUP2 MLOAD PUSH2 0x1858 DUP2 PUSH2 0x2BFB JUMP JUMPDEST PUSH4 0x4E487B71 PUSH1 0xE0 SHL PUSH1 0x0 MSTORE PUSH1 0x32 PUSH1 0x4 MSTORE PUSH1 0x24 PUSH1 0x0 REVERT JUMPDEST PUSH1 0x0 DUP3 NOT DUP3 GT ISZERO PUSH2 0x2DF5 JUMPI PUSH2 0x2DF5 PUSH2 0x2D82 JUMP JUMPDEST POP ADD SWAP1 JUMP JUMPDEST PUSH1 0x0 PUSH1 0x0 NOT DUP3 EQ ISZERO PUSH2 0x2E0E JUMPI PUSH2 0x2E0E PUSH2 0x2D82 JUMP JUMPDEST POP PUSH1 0x1 ADD SWAP1 JUMP JUMPDEST PUSH1 0x20 DUP1 DUP3 MSTORE PUSH1 0x24 SWAP1 DUP3 ADD MSTORE PUSH32 0x616C6C6F636174696F6E732063616E6E6F74206265206D6F7265207468616E20 PUSH1 0x40 DUP3 ADD MSTORE PUSH4 0x31303025 PUSH1 0xE0 SHL PUSH1 0x60 DUP3 ADD MSTORE PUSH1 0x80 ADD SWAP1 JUMP JUMPDEST PUSH1 0x20 DUP1 DUP3 MSTORE PUSH1 0xF SWAP1 DUP3 ADD MSTORE PUSH15 0x1D1C985B9CD9995C8819985A5B1959 PUSH1 0x8A SHL PUSH1 0x40 DUP3 ADD MSTORE PUSH1 0x60 ADD SWAP1 JUMP JUMPDEST PUSH1 0x20 DUP1 DUP3 MSTORE PUSH1 0x14 SWAP1 DUP3 ADD MSTORE PUSH20 0x13585B9859D95C8E881B9BDD08185B1B1BDDD959 PUSH1 0x62 SHL PUSH1 0x40 DUP3 ADD MSTORE PUSH1 0x60 ADD SWAP1 JUMP JUMPDEST PUSH1 0x0 PUSH1 0x20 DUP3 DUP5 SUB SLT ISZERO PUSH2 0x2EC2 JUMPI PUSH1 0x0 DUP1 REVERT JUMPDEST POP MLOAD SWAP2 SWAP1 POP JUMP JUMPDEST PUSH1 0x0 DUP2 PUSH1 0x0 NOT DIV DUP4 GT DUP3 ISZERO ISZERO AND ISZERO PUSH2 0x2EE3 JUMPI PUSH2 0x2EE3 PUSH2 0x2D82 JUMP JUMPDEST POP MUL SWAP1 JUMP JUMPDEST PUSH1 0x0 DUP3 PUSH2 0x2F05 JUMPI PUSH4 0x4E487B71 PUSH1 0xE0 SHL PUSH1 0x0 MSTORE PUSH1 0x12 PUSH1 0x4 MSTORE PUSH1 0x24 PUSH1 0x0 REVERT JUMPDEST POP DIV SWAP1 JUMP JUMPDEST PUSH1 0x0 PUSH1 0xFF DUP3 AND PUSH1 0xFF DUP2 EQ ISZERO PUSH2 0x2F21 JUMPI PUSH2 0x2F21 PUSH2 0x2D82 JUMP JUMPDEST PUSH1 0x1 ADD SWAP3 SWAP2 POP POP JUMP JUMPDEST PUSH1 0x0 PUSH1 0x20 DUP3 DUP5 SUB SLT ISZERO PUSH2 0x2F3C JUMPI PUSH1 0x0 DUP1 REVERT JUMPDEST DUP2 MLOAD DUP1 ISZERO ISZERO DUP2 EQ PUSH2 0x1858 JUMPI PUSH1 0x0 DUP1 REVERT JUMPDEST PUSH1 0x20 DUP1 DUP3 MSTORE PUSH1 0x2B SWAP1 DUP3 ADD MSTORE PUSH32 0x496E697469616C697A61626C653A20636F6E7472616374206973206E6F742069 PUSH1 0x40 DUP3 ADD MSTORE PUSH11 0x6E697469616C697A696E67 PUSH1 0xA8 SHL PUSH1 0x60 DUP3 ADD MSTORE PUSH1 0x80 ADD SWAP1 JUMP INVALID LOG2 PUSH5 0x6970667358 0x22 SLT KECCAK256 STOP 0xBC DUP9 0xF6 0x5C LOG4 DELEGATECALL CALLDATASIZE 0xCE 0xBF 0xC1 XOR 0xDF 0xC6 0xD4 PUSH12 0x9FBC0ABA2D0E3A8461B8CDAB JUMPDEST CREATE SWAP6 REVERT PUSH5 0x736F6C6343 STOP ADDMOD EXP STOP CALLER "
		},
		"gasEstimates": {
			"creation": {
				"codeDepositCost": "2447400",
				"executionCost": "2635",
				"totalCost": "2450035"
			},
			"external": {
				"MAX_STRATEGIES()": "2329",
				"addManager(address)": "27966",
				"allocate()": "infinite",
				"asset()": "2450",
				"availableToWithdraw()": "infinite",
				"balanceOfTokenFromStrategy(address)": "infinite",
				"changeFeeReceiver(address)": "27918",
				"changeProvider(address)": "27896",
				"changeStrategyAllocation(address,uint256)": "infinite",
				"depositAllToStrategy(address)": "infinite",
				"depositETH()": "infinite",
				"depositFee()": "2352",
				"depositToStrategy(address,uint256)": "infinite",
				"estimateInTokenFromStrategy(address,uint256)": "infinite",
				"feeEarned()": "2351",
				"feeReceiver()": "2382",
				"initialize(uint256,uint256,uint8,address)": "infinite",
				"manager(address)": "2680",
				"maxDepositFee()": "2330",
				"maxWithdrawalFee()": "2328",
				"migrateStrategy(address,address,uint256)": "infinite",
				"owner()": "2486",
				"pause()": "infinite",
				"paused()": "2339",
				"provider()": "2406",
				"removeManager(address)": "30145",
				"renounceOwnership()": "infinite",
				"retireStrat(address)": "34197",
				"setDepositFee(uint256)": "27778",
				"setStrategy(address,uint256)": "infinite",
				"setWithdrawalFee(uint256)": "27800",
				"strategies(uint256)": "4659",
				"strategyParams(address)": "6892",
				"totalAssetInVault()": "4646",
				"totalAssets()": "219",
				"totalDebt()": "2438",
				"transferOwnership(address)": "infinite",
				"unPause()": "infinite",
				"vaultToken()": "2427",
				"waitingPool()": "2448",
				"withdrawAllFromStrategy(address)": "infinite",
				"withdrawETH(address,uint256)": "infinite",
				"withdrawFee()": "infinite",
				"withdrawFromStrategy(address,uint256)": "infinite",
				"withdrawInTokenFromStrategy(address,address,uint256)": "infinite",
				"withdrawalFee()": "2417"
			},
			"internal": {
				"_assessFee(uint256,uint256)": "290",
				"_deactivateStrategy(address)": "31546",
				"_depositToStrategy(address,uint256)": "infinite",
				"_isValidAllocation()": "infinite",
				"_withdrawFromStrategy(address,address,uint256)": "infinite",
				"_withdrawInTokenFromStrategy(address,address,uint256)": "infinite",
				"withdrawFromActiveStrategies(address,uint256)": "infinite"
			}
		},
		"methodIdentifiers": {
			"MAX_STRATEGIES()": "767f06ae",
			"addManager(address)": "2d06177a",
			"allocate()": "abaa9916",
			"asset()": "38d52e0f",
			"availableToWithdraw()": "e322ad2b",
			"balanceOfTokenFromStrategy(address)": "52412d49",
			"changeFeeReceiver(address)": "7c08b964",
			"changeProvider(address)": "796f69aa",
			"changeStrategyAllocation(address,uint256)": "72ff8a34",
			"depositAllToStrategy(address)": "4bee2ba2",
			"depositETH()": "f6326fb3",
			"depositFee()": "67a52793",
			"depositToStrategy(address,uint256)": "af76d4bd",
			"estimateInTokenFromStrategy(address,uint256)": "d941e8ac",
			"feeEarned()": "d5f63a06",
			"feeReceiver()": "b3f00674",
			"initialize(uint256,uint256,uint8,address)": "f8ba8493",
			"manager(address)": "d4d2e7f2",
			"maxDepositFee()": "a8d1dbfb",
			"maxWithdrawalFee()": "ec1c0a99",
			"migrateStrategy(address,address,uint256)": "ddb56b26",
			"owner()": "8da5cb5b",
			"pause()": "8456cb59",
			"paused()": "5c975abb",
			"provider()": "085d4883",
			"removeManager(address)": "ac18de43",
			"renounceOwnership()": "715018a6",
			"retireStrat(address)": "72890dbd",
			"setDepositFee(uint256)": "490ae210",
			"setStrategy(address,uint256)": "45d34def",
			"setWithdrawalFee(uint256)": "ac1e5025",
			"strategies(uint256)": "d574ea3d",
			"strategyParams(address)": "c4c2d9b9",
			"totalAssetInVault()": "d463bc65",
			"totalAssets()": "01e1d114",
			"totalDebt()": "fc7b9c18",
			"transferOwnership(address)": "f2fde38b",
			"unPause()": "f7b188a5",
			"vaultToken()": "703bafd5",
			"waitingPool()": "c99f062f",
			"withdrawAllFromStrategy(address)": "597c8910",
			"withdrawETH(address,uint256)": "4782f779",
			"withdrawFee()": "e941fa78",
			"withdrawFromStrategy(address,uint256)": "b53d0958",
			"withdrawInTokenFromStrategy(address,address,uint256)": "3e762860",
			"withdrawalFee()": "8bc7e8c4"
		}
	},
	"abi": [
		{
			"anonymous": false,
			"inputs": [
				{
					"indexed": false,
					"internalType": "address",
					"name": "binancePool",
					"type": "address"
				}
			],
			"name": "BinancePoolChanged",
			"type": "event"
		},
		{
			"anonymous": false,
			"inputs": [
				{
					"indexed": true,
					"internalType": "address",
					"name": "caller",
					"type": "address"
				},
				{
					"indexed": true,
					"internalType": "address",
					"name": "owner",
					"type": "address"
				},
				{
					"indexed": false,
					"internalType": "uint256",
					"name": "assets",
					"type": "uint256"
				},
				{
					"indexed": false,
					"internalType": "uint256",
					"name": "shares",
					"type": "uint256"
				}
			],
			"name": "Deposit",
			"type": "event"
		},
		{
			"anonymous": false,
			"inputs": [
				{
					"indexed": false,
					"internalType": "uint256",
					"name": "newDepositFee",
					"type": "uint256"
				}
			],
			"name": "DepositFeeChanged",
			"type": "event"
		},
		{
			"anonymous": false,
			"inputs": [
				{
					"indexed": false,
					"internalType": "address",
					"name": "strategy",
					"type": "address"
				},
				{
					"indexed": false,
					"internalType": "uint256",
					"name": "amount",
					"type": "uint256"
				}
			],
			"name": "DepositedToStrategy",
			"type": "event"
		},
		{
			"anonymous": false,
			"inputs": [
				{
					"indexed": true,
					"internalType": "address",
					"name": "receiver",
					"type": "address"
				},
				{
					"indexed": false,
					"internalType": "uint256",
					"name": "amount",
					"type": "uint256"
				}
			],
			"name": "FeeClaimed",
			"type": "event"
		},
		{
			"anonymous": false,
			"inputs": [
				{
					"indexed": false,
					"internalType": "address",
					"name": "feeReceiver",
					"type": "address"
				}
			],
			"name": "FeeReceiverChanged",
			"type": "event"
		},
		{
			"anonymous": false,
			"inputs": [
				{
					"indexed": false,
					"internalType": "uint8",
					"name": "version",
					"type": "uint8"
				}
			],
			"name": "Initialized",
			"type": "event"
		},
		{
			"anonymous": false,
			"inputs": [
				{
					"indexed": false,
					"internalType": "address",
					"name": "newManager",
					"type": "address"
				}
			],
			"name": "ManagerAdded",
			"type": "event"
		},
		{
			"anonymous": false,
			"inputs": [
				{
					"indexed": false,
					"internalType": "address",
					"name": "manager",
					"type": "address"
				}
			],
			"name": "ManagerRemoved",
			"type": "event"
		},
		{
			"anonymous": false,
			"inputs": [
				{
					"indexed": false,
					"internalType": "uint256",
					"name": "newMaxDepositFee",
					"type": "uint256"
				}
			],
			"name": "MaxDepositFeeChanged",
			"type": "event"
		},
		{
			"anonymous": false,
			"inputs": [
				{
					"indexed": false,
					"internalType": "uint256",
					"name": "newMaxWithdrawalFee",
					"type": "uint256"
				}
			],
			"name": "MaxWithdrawalFeeChanged",
			"type": "event"
		},
		{
			"anonymous": false,
			"inputs": [
				{
					"indexed": true,
					"internalType": "address",
					"name": "previousOwner",
					"type": "address"
				},
				{
					"indexed": true,
					"internalType": "address",
					"name": "newOwner",
					"type": "address"
				}
			],
			"name": "OwnershipTransferred",
			"type": "event"
		},
		{
			"anonymous": false,
			"inputs": [
				{
					"indexed": false,
					"internalType": "address",
					"name": "account",
					"type": "address"
				}
			],
			"name": "Paused",
			"type": "event"
		},
		{
			"anonymous": false,
			"inputs": [
				{
					"indexed": false,
					"internalType": "address",
					"name": "provider",
					"type": "address"
				}
			],
			"name": "ProviderChanged",
			"type": "event"
		},
		{
			"anonymous": false,
			"inputs": [
				{
					"indexed": false,
					"internalType": "address",
					"name": "ceRouter",
					"type": "address"
				}
			],
			"name": "RouterChanged",
			"type": "event"
		},
		{
			"anonymous": false,
			"inputs": [
				{
					"indexed": false,
					"internalType": "address",
					"name": "strategy",
					"type": "address"
				},
				{
					"indexed": false,
					"internalType": "uint256",
					"name": "allocation",
					"type": "uint256"
				}
			],
			"name": "StrategyAdded",
			"type": "event"
		},
		{
			"anonymous": false,
			"inputs": [
				{
					"indexed": false,
					"internalType": "address",
					"name": "strategy",
					"type": "address"
				},
				{
					"indexed": false,
					"internalType": "uint256",
					"name": "allocation",
					"type": "uint256"
				}
			],
			"name": "StrategyAllocationChanged",
			"type": "event"
		},
		{
			"anonymous": false,
			"inputs": [
				{
					"indexed": false,
					"internalType": "address",
					"name": "oldStrategy",
					"type": "address"
				},
				{
					"indexed": false,
					"internalType": "address",
					"name": "newStrategy",
					"type": "address"
				},
				{
					"indexed": false,
					"internalType": "uint256",
					"name": "newAllocation",
					"type": "uint256"
				}
			],
			"name": "StrategyMigrated",
			"type": "event"
		},
		{
			"anonymous": false,
			"inputs": [
				{
					"indexed": false,
					"internalType": "address",
					"name": "account",
					"type": "address"
				}
			],
			"name": "Unpaused",
			"type": "event"
		},
		{
			"anonymous": false,
			"inputs": [
				{
					"indexed": false,
					"internalType": "uint256",
					"name": "cap",
					"type": "uint256"
				}
			],
			"name": "WaitingPoolCapChanged",
			"type": "event"
		},
		{
			"anonymous": false,
			"inputs": [
				{
					"indexed": false,
					"internalType": "address",
					"name": "waitingPool",
					"type": "address"
				}
			],
			"name": "WaitingPoolChanged",
			"type": "event"
		},
		{
			"anonymous": false,
			"inputs": [
				{
					"indexed": true,
					"internalType": "address",
					"name": "caller",
					"type": "address"
				},
				{
					"indexed": true,
					"internalType": "address",
					"name": "receiver",
					"type": "address"
				},
				{
					"indexed": true,
					"internalType": "address",
					"name": "owner",
					"type": "address"
				},
				{
					"indexed": false,
					"internalType": "uint256",
					"name": "assets",
					"type": "uint256"
				},
				{
					"indexed": false,
					"internalType": "uint256",
					"name": "shares",
					"type": "uint256"
				}
			],
			"name": "Withdraw",
			"type": "event"
		},
		{
			"anonymous": false,
			"inputs": [
				{
					"indexed": false,
					"internalType": "uint256",
					"name": "newWithdrawalFee",
					"type": "uint256"
				}
			],
			"name": "WithdrawalFeeChanged",
			"type": "event"
		},
		{
			"anonymous": false,
			"inputs": [
				{
					"indexed": false,
					"internalType": "address",
					"name": "strategy",
					"type": "address"
				},
				{
					"indexed": false,
					"internalType": "uint256",
					"name": "value",
					"type": "uint256"
				}
			],
			"name": "WithdrawnFromStrategy",
			"type": "event"
		},
		{
			"anonymous": false,
			"inputs": [
				{
					"indexed": false,
					"internalType": "address",
					"name": "strategy",
					"type": "address"
				},
				{
					"indexed": false,
					"internalType": "uint256",
					"name": "value",
					"type": "uint256"
				}
			],
			"name": "WithdrawnInTokenFromStrategy",
			"type": "event"
		},
		{
			"inputs": [],
			"name": "MAX_STRATEGIES",
			"outputs": [
				{
					"internalType": "uint256",
					"name": "",
					"type": "uint256"
				}
			],
			"stateMutability": "view",
			"type": "function"
		},
		{
			"inputs": [
				{
					"internalType": "address",
					"name": "newManager",
					"type": "address"
				}
			],
			"name": "addManager",
			"outputs": [],
			"stateMutability": "nonpayable",
			"type": "function"
		},
		{
			"inputs": [],
			"name": "allocate",
			"outputs": [],
			"stateMutability": "nonpayable",
			"type": "function"
		},
		{
			"inputs": [],
			"name": "asset",
			"outputs": [
				{
					"internalType": "address",
					"name": "",
					"type": "address"
				}
			],
			"stateMutability": "view",
			"type": "function"
		},
		{
			"inputs": [],
			"name": "availableToWithdraw",
			"outputs": [
				{
					"internalType": "uint256",
					"name": "available",
					"type": "uint256"
				}
			],
			"stateMutability": "view",
			"type": "function"
		},
		{
			"inputs": [
				{
					"internalType": "address",
					"name": "strategy",
					"type": "address"
				}
			],
			"name": "balanceOfTokenFromStrategy",
			"outputs": [
				{
					"internalType": "uint256",
					"name": "",
					"type": "uint256"
				}
			],
			"stateMutability": "view",
			"type": "function"
		},
		{
			"inputs": [
				{
					"internalType": "address payable",
					"name": "_feeReceiver",
					"type": "address"
				}
			],
			"name": "changeFeeReceiver",
			"outputs": [],
			"stateMutability": "nonpayable",
			"type": "function"
		},
		{
			"inputs": [
				{
					"internalType": "address",
					"name": "newProvider",
					"type": "address"
				}
			],
			"name": "changeProvider",
			"outputs": [],
			"stateMutability": "nonpayable",
			"type": "function"
		},
		{
			"inputs": [
				{
					"internalType": "address",
					"name": "strategy",
					"type": "address"
				},
				{
					"internalType": "uint256",
					"name": "allocation",
					"type": "uint256"
				}
			],
			"name": "changeStrategyAllocation",
			"outputs": [],
			"stateMutability": "nonpayable",
			"type": "function"
		},
		{
			"inputs": [
				{
					"internalType": "address",
					"name": "strategy",
					"type": "address"
				}
			],
			"name": "depositAllToStrategy",
			"outputs": [],
			"stateMutability": "nonpayable",
			"type": "function"
		},
		{
			"inputs": [],
			"name": "depositETH",
			"outputs": [
				{
					"internalType": "uint256",
					"name": "shares",
					"type": "uint256"
				}
			],
			"stateMutability": "payable",
			"type": "function"
		},
		{
			"inputs": [],
			"name": "depositFee",
			"outputs": [
				{
					"internalType": "uint256",
					"name": "",
					"type": "uint256"
				}
			],
			"stateMutability": "view",
			"type": "function"
		},
		{
			"inputs": [
				{
					"internalType": "address",
					"name": "strategy",
					"type": "address"
				},
				{
					"internalType": "uint256",
					"name": "amount",
					"type": "uint256"
				}
			],
			"name": "depositToStrategy",
			"outputs": [],
			"stateMutability": "nonpayable",
			"type": "function"
		},
		{
			"inputs": [
				{
					"internalType": "address",
					"name": "strategy",
					"type": "address"
				},
				{
					"internalType": "uint256",
					"name": "amount",
					"type": "uint256"
				}
			],
			"name": "estimateInTokenFromStrategy",
			"outputs": [
				{
					"internalType": "uint256",
					"name": "",
					"type": "uint256"
				}
			],
			"stateMutability": "view",
			"type": "function"
		},
		{
			"inputs": [],
			"name": "feeEarned",
			"outputs": [
				{
					"internalType": "uint256",
					"name": "",
					"type": "uint256"
				}
			],
			"stateMutability": "view",
			"type": "function"
		},
		{
			"inputs": [],
			"name": "feeReceiver",
			"outputs": [
				{
					"internalType": "address payable",
					"name": "",
					"type": "address"
				}
			],
			"stateMutability": "view",
			"type": "function"
		},
		{
			"inputs": [
				{
					"internalType": "uint256",
					"name": "maxDepositFees",
					"type": "uint256"
				},
				{
					"internalType": "uint256",
					"name": "maxWithdrawalFees",
					"type": "uint256"
				},
				{
					"internalType": "uint8",
					"name": "maxStrategies",
					"type": "uint8"
				},
				{
					"internalType": "address",
					"name": "ceToken",
					"type": "address"
				}
			],
			"name": "initialize",
			"outputs": [],
			"stateMutability": "nonpayable",
			"type": "function"
		},
		{
			"inputs": [
				{
					"internalType": "address",
					"name": "",
					"type": "address"
				}
			],
			"name": "manager",
			"outputs": [
				{
					"internalType": "bool",
					"name": "",
					"type": "bool"
				}
			],
			"stateMutability": "view",
			"type": "function"
		},
		{
			"inputs": [],
			"name": "maxDepositFee",
			"outputs": [
				{
					"internalType": "uint256",
					"name": "",
					"type": "uint256"
				}
			],
			"stateMutability": "view",
			"type": "function"
		},
		{
			"inputs": [],
			"name": "maxWithdrawalFee",
			"outputs": [
				{
					"internalType": "uint256",
					"name": "",
					"type": "uint256"
				}
			],
			"stateMutability": "view",
			"type": "function"
		},
		{
			"inputs": [
				{
					"internalType": "address",
					"name": "oldStrategy",
					"type": "address"
				},
				{
					"internalType": "address",
					"name": "newStrategy",
					"type": "address"
				},
				{
					"internalType": "uint256",
					"name": "newAllocation",
					"type": "uint256"
				}
			],
			"name": "migrateStrategy",
			"outputs": [],
			"stateMutability": "nonpayable",
			"type": "function"
		},
		{
			"inputs": [],
			"name": "owner",
			"outputs": [
				{
					"internalType": "address",
					"name": "",
					"type": "address"
				}
			],
			"stateMutability": "view",
			"type": "function"
		},
		{
			"inputs": [],
			"name": "pause",
			"outputs": [],
			"stateMutability": "nonpayable",
			"type": "function"
		},
		{
			"inputs": [],
			"name": "paused",
			"outputs": [
				{
					"internalType": "bool",
					"name": "",
					"type": "bool"
				}
			],
			"stateMutability": "view",
			"type": "function"
		},
		{
			"inputs": [],
			"name": "provider",
			"outputs": [
				{
					"internalType": "address",
					"name": "",
					"type": "address"
				}
			],
			"stateMutability": "view",
			"type": "function"
		},
		{
			"inputs": [
				{
					"internalType": "address",
					"name": "_manager",
					"type": "address"
				}
			],
			"name": "removeManager",
			"outputs": [],
			"stateMutability": "nonpayable",
			"type": "function"
		},
		{
			"inputs": [],
			"name": "renounceOwnership",
			"outputs": [],
			"stateMutability": "nonpayable",
			"type": "function"
		},
		{
			"inputs": [
				{
					"internalType": "address",
					"name": "strategy",
					"type": "address"
				}
			],
			"name": "retireStrat",
			"outputs": [],
			"stateMutability": "nonpayable",
			"type": "function"
		},
		{
			"inputs": [
				{
					"internalType": "uint256",
					"name": "newDepositFee",
					"type": "uint256"
				}
			],
			"name": "setDepositFee",
			"outputs": [],
			"stateMutability": "nonpayable",
			"type": "function"
		},
		{
			"inputs": [
				{
					"internalType": "address",
					"name": "strategy",
					"type": "address"
				},
				{
					"internalType": "uint256",
					"name": "allocation",
					"type": "uint256"
				}
			],
			"name": "setStrategy",
			"outputs": [],
			"stateMutability": "nonpayable",
			"type": "function"
		},
		{
			"inputs": [
				{
					"internalType": "uint256",
					"name": "newWithdrawalFee",
					"type": "uint256"
				}
			],
			"name": "setWithdrawalFee",
			"outputs": [],
			"stateMutability": "nonpayable",
			"type": "function"
		},
		{
			"inputs": [
				{
					"internalType": "uint256",
					"name": "",
					"type": "uint256"
				}
			],
			"name": "strategies",
			"outputs": [
				{
					"internalType": "address",
					"name": "",
					"type": "address"
				}
			],
			"stateMutability": "view",
			"type": "function"
		},
		{
			"inputs": [
				{
					"internalType": "address",
					"name": "",
					"type": "address"
				}
			],
			"name": "strategyParams",
			"outputs": [
				{
					"internalType": "bool",
					"name": "active",
					"type": "bool"
				},
				{
					"internalType": "uint256",
					"name": "allocation",
					"type": "uint256"
				},
				{
					"internalType": "uint256",
					"name": "debt",
					"type": "uint256"
				}
			],
			"stateMutability": "view",
			"type": "function"
		},
		{
			"inputs": [],
			"name": "totalAssetInVault",
			"outputs": [
				{
					"internalType": "uint256",
					"name": "balance",
					"type": "uint256"
				}
			],
			"stateMutability": "view",
			"type": "function"
		},
		{
			"inputs": [],
			"name": "totalAssets",
			"outputs": [
				{
					"internalType": "uint256",
					"name": "",
					"type": "uint256"
				}
			],
			"stateMutability": "view",
			"type": "function"
		},
		{
			"inputs": [],
			"name": "totalDebt",
			"outputs": [
				{
					"internalType": "uint256",
					"name": "",
					"type": "uint256"
				}
			],
			"stateMutability": "view",
			"type": "function"
		},
		{
			"inputs": [
				{
					"internalType": "address",
					"name": "newOwner",
					"type": "address"
				}
			],
			"name": "transferOwnership",
			"outputs": [],
			"stateMutability": "nonpayable",
			"type": "function"
		},
		{
			"inputs": [],
			"name": "unPause",
			"outputs": [],
			"stateMutability": "nonpayable",
			"type": "function"
		},
		{
			"inputs": [],
			"name": "vaultToken",
			"outputs": [
				{
					"internalType": "address",
					"name": "",
					"type": "address"
				}
			],
			"stateMutability": "view",
			"type": "function"
		},
		{
			"inputs": [],
			"name": "waitingPool",
			"outputs": [
				{
					"internalType": "contract IWaitingPool",
					"name": "",
					"type": "address"
				}
			],
			"stateMutability": "view",
			"type": "function"
		},
		{
			"inputs": [
				{
					"internalType": "address",
					"name": "strategy",
					"type": "address"
				}
			],
			"name": "withdrawAllFromStrategy",
			"outputs": [],
			"stateMutability": "nonpayable",
			"type": "function"
		},
		{
			"inputs": [
				{
					"internalType": "address",
					"name": "account",
					"type": "address"
				},
				{
					"internalType": "uint256",
					"name": "amount",
					"type": "uint256"
				}
			],
			"name": "withdrawETH",
			"outputs": [
				{
					"internalType": "uint256",
					"name": "shares",
					"type": "uint256"
				}
			],
			"stateMutability": "nonpayable",
			"type": "function"
		},
		{
			"inputs": [],
			"name": "withdrawFee",
			"outputs": [],
			"stateMutability": "nonpayable",
			"type": "function"
		},
		{
			"inputs": [
				{
					"internalType": "address",
					"name": "strategy",
					"type": "address"
				},
				{
					"internalType": "uint256",
					"name": "amount",
					"type": "uint256"
				}
			],
			"name": "withdrawFromStrategy",
			"outputs": [],
			"stateMutability": "nonpayable",
			"type": "function"
		},
		{
			"inputs": [
				{
					"internalType": "address",
					"name": "strategy",
					"type": "address"
				},
				{
					"internalType": "address",
					"name": "recipient",
					"type": "address"
				},
				{
					"internalType": "uint256",
					"name": "amount",
					"type": "uint256"
				}
			],
			"name": "withdrawInTokenFromStrategy",
			"outputs": [
				{
					"internalType": "uint256",
					"name": "",
					"type": "uint256"
				}
			],
			"stateMutability": "nonpayable",
			"type": "function"
		},
		{
			"inputs": [],
			"name": "withdrawalFee",
			"outputs": [
				{
					"internalType": "uint256",
					"name": "",
					"type": "uint256"
				}
			],
			"stateMutability": "view",
			"type": "function"
		},
		{
			"stateMutability": "payable",
			"type": "receive"
		}
	]
}