{
	"data": {
		"bytecode": {
			"linkReferences": {},
			"object": "608060405234801561001057600080fd5b50610a31806100206000396000f3fe6080604052600436106100a05760003560e01c806397d227661161006457806397d227661461016b5780639e7a13ad14610180578063abd70aa2146101c7578063c714003d146101da578063cd6dc687146101fa578063fc7b9c181461021a57600080fd5b80632986c0e5146100ac5780633521fb87146100d55780633b7e3775146100eb57806355f2316c146101295780637b0878f81461014b57600080fd5b366100a757005b600080fd5b3480156100b857600080fd5b506100c260025481565b6040519081526020015b60405180910390f35b3480156100e157600080fd5b506100c260045481565b3480156100f757600080fd5b50600054610111906201000090046001600160a01b031681565b6040516001600160a01b0390911681526020016100cc565b34801561013557600080fd5b50610149610144366004610934565b610230565b005b34801561015757600080fd5b5061014961016636600461094d565b610292565b34801561017757600080fd5b506101496103e8565b34801561018c57600080fd5b506101a061019b366004610934565b6105df565b604080516001600160a01b03909416845260208401929092521515908201526060016100cc565b3480156101d357600080fd5b50476100c2565b3480156101e657600080fd5b506101496101f5366004610934565b61061f565b34801561020657600080fd5b5061014961021536600461094d565b6107c7565b34801561022657600080fd5b506100c260035481565b6000546201000090046001600160a01b0316331461024d57600080fd5b8061028d5760405162461bcd60e51b815260206004820152600b60248201526a0696e76616c6964206361760ac1b60448201526064015b60405180910390fd5b600455565b6000546201000090046001600160a01b031633146102af57600080fd5b80156103e457604080516060810182526001600160a01b038416815260208101839052600091810182905260038054919284926102ed90849061099b565b909155505060018054808201825560009190915281517fb10e2d527612073b26eecdfd717e6a320cf44b4afac2b0732d9fcbe2b7fa0cf6600390920291820180546001600160a01b0319166001600160a01b039283161790556020808401517fb10e2d527612073b26eecdfd717e6a320cf44b4afac2b0732d9fcbe2b7fa0cf78401556040808501517fb10e2d527612073b26eecdfd717e6a320cf44b4afac2b0732d9fcbe2b7fa0cf8909401805460ff1916941515949094179093558251918616825281018490527f9a92c3472ba0d2d183e38c3801bae5d41d693c2803377eae8b0f94683862253e91015b60405180910390a1505b5050565b6000546201000090046001600160a01b0316331461040557600080fd5b60025460009081905b6001548110156105da574792506000600160025481548110610432576104326109b3565b9060005260206000209060030201600101549050600060016002548154811061045d5761045d6109b3565b60009182526020909120600390910201546001600160a01b0316905081851080159061048857508115155b80156104bd57506001600254815481106104a4576104a46109b3565b600091825260209091206002600390920201015460ff16155b80156104ca575060045484105b156105be576040516000906001600160a01b0383169084156108fc0290859084818181858888f193505050509050801561059457826003600082825461051091906109c9565b925050819055506001806002548154811061052d5761052d6109b3565b600091825260209182902060039190910201600201805460ff191692151592909217909155604080516001600160a01b03851681529182018590527f60188009b974c2fa66ee3b916d93f64d6534ea2204e0c466f9784ace689e8e49910160405180910390a15b8461059e816109e0565b6002805491975090915060006105b3836109e0565b9190505550506105c5565b5050505050565b505080806105d2906109e0565b91505061040e565b505050565b600181815481106105ef57600080fd5b60009182526020909120600390910201805460018201546002909201546001600160a01b03909116925060ff1683565b600033905060018281548110610637576106376109b3565b600091825260209091206002600390920201015460ff1615801561065c575060025482105b801561069c5750806001600160a01b031660018381548110610680576106806109b3565b60009182526020909120600390910201546001600160a01b0316145b6106da5760405162461bcd60e51b815260206004820152600f60248201526e185b1c9958591e481cd95d1d1b1959608a1b6044820152606401610284565b6000600183815481106106ef576106ef6109b3565b9060005260206000209060030201600101549050806003600082825461071591906109c9565b925050819055506001808481548110610730576107306109b3565b60009182526020822060039190910201600201805460ff1916921515929092179091556040516001600160a01b038416916108fc841502918491818181858888f19350505050158015610787573d6000803e3d6000fd5b50604080516001600160a01b0384168152602081018390527f60188009b974c2fa66ee3b916d93f64d6534ea2204e0c466f9784ace689e8e4991016103da565b600054610100900460ff16158080156107e75750600054600160ff909116105b806108015750303b158015610801575060005460ff166001145b6108645760405162461bcd60e51b815260206004820152602e60248201527f496e697469616c697a61626c653a20636f6e747261637420697320616c72656160448201526d191e481a5b9a5d1a585b1a5e995960921b6064820152608401610284565b6000805460ff191660011790558015610887576000805461ff0019166101001790555b600082116108cb5760405162461bcd60e51b81526020600482015260116024820152701a5b9d985b1a590818d85c081b1a5b5a5d607a1b6044820152606401610284565b6000805462010000600160b01b031916620100006001600160a01b03861602179055600482905580156105da576000805461ff0019169055604051600181527f7f26b83ff96e1f2b6a682f133852f6798a09c465da95921460cefb3847402498906020016103da565b60006020828403121561094657600080fd5b5035919050565b6000806040838503121561096057600080fd5b82356001600160a01b038116811461097757600080fd5b946020939093013593505050565b634e487b7160e01b600052601160045260246000fd5b600082198211156109ae576109ae610985565b500190565b634e487b7160e01b600052603260045260246000fd5b6000828210156109db576109db610985565b500390565b60006000198214156109f4576109f4610985565b506001019056fea2646970667358221220e84426bd86c0d18436064c8daab88bb353caba88618ef57babab39ffb3587ea764736f6c634300080a0033",
			"opcodes": "PUSH1 0x80 PUSH1 0x40 MSTORE CALLVALUE DUP1 ISZERO PUSH2 0x10 JUMPI PUSH1 0x0 DUP1 REVERT JUMPDEST POP PUSH2 0xA31 DUP1 PUSH2 0x20 PUSH1 0x0 CODECOPY PUSH1 0x0 RETURN INVALID PUSH1 0x80 PUSH1 0x40 MSTORE PUSH1 0x4 CALLDATASIZE LT PUSH2 0xA0 JUMPI PUSH1 0x0 CALLDATALOAD PUSH1 0xE0 SHR DUP1 PUSH4 0x97D22766 GT PUSH2 0x64 JUMPI DUP1 PUSH4 0x97D22766 EQ PUSH2 0x16B JUMPI DUP1 PUSH4 0x9E7A13AD EQ PUSH2 0x180 JUMPI DUP1 PUSH4 0xABD70AA2 EQ PUSH2 0x1C7 JUMPI DUP1 PUSH4 0xC714003D EQ PUSH2 0x1DA JUMPI DUP1 PUSH4 0xCD6DC687 EQ PUSH2 0x1FA JUMPI DUP1 PUSH4 0xFC7B9C18 EQ PUSH2 0x21A JUMPI PUSH1 0x0 DUP1 REVERT JUMPDEST DUP1 PUSH4 0x2986C0E5 EQ PUSH2 0xAC JUMPI DUP1 PUSH4 0x3521FB87 EQ PUSH2 0xD5 JUMPI DUP1 PUSH4 0x3B7E3775 EQ PUSH2 0xEB JUMPI DUP1 PUSH4 0x55F2316C EQ PUSH2 0x129 JUMPI DUP1 PUSH4 0x7B0878F8 EQ PUSH2 0x14B JUMPI PUSH1 0x0 DUP1 REVERT JUMPDEST CALLDATASIZE PUSH2 0xA7 JUMPI STOP JUMPDEST PUSH1 0x0 DUP1 REVERT JUMPDEST CALLVALUE DUP1 ISZERO PUSH2 0xB8 JUMPI PUSH1 0x0 DUP1 REVERT JUMPDEST POP PUSH2 0xC2 PUSH1 0x2 SLOAD DUP2 JUMP JUMPDEST PUSH1 0x40 MLOAD SWAP1 DUP2 MSTORE PUSH1 0x20 ADD JUMPDEST PUSH1 0x40 MLOAD DUP1 SWAP2 SUB SWAP1 RETURN JUMPDEST CALLVALUE DUP1 ISZERO PUSH2 0xE1 JUMPI PUSH1 0x0 DUP1 REVERT JUMPDEST POP PUSH2 0xC2 PUSH1 0x4 SLOAD DUP2 JUMP JUMPDEST CALLVALUE DUP1 ISZERO PUSH2 0xF7 JUMPI PUSH1 0x0 DUP1 REVERT JUMPDEST POP PUSH1 0x0 SLOAD PUSH2 0x111 SWAP1 PUSH3 0x10000 SWAP1 DIV PUSH1 0x1 PUSH1 0x1 PUSH1 0xA0 SHL SUB AND DUP2 JUMP JUMPDEST PUSH1 0x40 MLOAD PUSH1 0x1 PUSH1 0x1 PUSH1 0xA0 SHL SUB SWAP1 SWAP2 AND DUP2 MSTORE PUSH1 0x20 ADD PUSH2 0xCC JUMP JUMPDEST CALLVALUE DUP1 ISZERO PUSH2 0x135 JUMPI PUSH1 0x0 DUP1 REVERT JUMPDEST POP PUSH2 0x149 PUSH2 0x144 CALLDATASIZE PUSH1 0x4 PUSH2 0x934 JUMP JUMPDEST PUSH2 0x230 JUMP JUMPDEST STOP JUMPDEST CALLVALUE DUP1 ISZERO PUSH2 0x157 JUMPI PUSH1 0x0 DUP1 REVERT JUMPDEST POP PUSH2 0x149 PUSH2 0x166 CALLDATASIZE PUSH1 0x4 PUSH2 0x94D JUMP JUMPDEST PUSH2 0x292 JUMP JUMPDEST CALLVALUE DUP1 ISZERO PUSH2 0x177 JUMPI PUSH1 0x0 DUP1 REVERT JUMPDEST POP PUSH2 0x149 PUSH2 0x3E8 JUMP JUMPDEST CALLVALUE DUP1 ISZERO PUSH2 0x18C JUMPI PUSH1 0x0 DUP1 REVERT JUMPDEST POP PUSH2 0x1A0 PUSH2 0x19B CALLDATASIZE PUSH1 0x4 PUSH2 0x934 JUMP JUMPDEST PUSH2 0x5DF JUMP JUMPDEST PUSH1 0x40 DUP1 MLOAD PUSH1 0x1 PUSH1 0x1 PUSH1 0xA0 SHL SUB SWAP1 SWAP5 AND DUP5 MSTORE PUSH1 0x20 DUP5 ADD SWAP3 SWAP1 SWAP3 MSTORE ISZERO ISZERO SWAP1 DUP3 ADD MSTORE PUSH1 0x60 ADD PUSH2 0xCC JUMP JUMPDEST CALLVALUE DUP1 ISZERO PUSH2 0x1D3 JUMPI PUSH1 0x0 DUP1 REVERT JUMPDEST POP SELFBALANCE PUSH2 0xC2 JUMP JUMPDEST CALLVALUE DUP1 ISZERO PUSH2 0x1E6 JUMPI PUSH1 0x0 DUP1 REVERT JUMPDEST POP PUSH2 0x149 PUSH2 0x1F5 CALLDATASIZE PUSH1 0x4 PUSH2 0x934 JUMP JUMPDEST PUSH2 0x61F JUMP JUMPDEST CALLVALUE DUP1 ISZERO PUSH2 0x206 JUMPI PUSH1 0x0 DUP1 REVERT JUMPDEST POP PUSH2 0x149 PUSH2 0x215 CALLDATASIZE PUSH1 0x4 PUSH2 0x94D JUMP JUMPDEST PUSH2 0x7C7 JUMP JUMPDEST CALLVALUE DUP1 ISZERO PUSH2 0x226 JUMPI PUSH1 0x0 DUP1 REVERT JUMPDEST POP PUSH2 0xC2 PUSH1 0x3 SLOAD DUP2 JUMP JUMPDEST PUSH1 0x0 SLOAD PUSH3 0x10000 SWAP1 DIV PUSH1 0x1 PUSH1 0x1 PUSH1 0xA0 SHL SUB AND CALLER EQ PUSH2 0x24D JUMPI PUSH1 0x0 DUP1 REVERT JUMPDEST DUP1 PUSH2 0x28D JUMPI PUSH1 0x40 MLOAD PUSH3 0x461BCD PUSH1 0xE5 SHL DUP2 MSTORE PUSH1 0x20 PUSH1 0x4 DUP3 ADD MSTORE PUSH1 0xB PUSH1 0x24 DUP3 ADD MSTORE PUSH11 0x696E76616C69642063617 PUSH1 0xAC SHL PUSH1 0x44 DUP3 ADD MSTORE PUSH1 0x64 ADD JUMPDEST PUSH1 0x40 MLOAD DUP1 SWAP2 SUB SWAP1 REVERT JUMPDEST PUSH1 0x4 SSTORE JUMP JUMPDEST PUSH1 0x0 SLOAD PUSH3 0x10000 SWAP1 DIV PUSH1 0x1 PUSH1 0x1 PUSH1 0xA0 SHL SUB AND CALLER EQ PUSH2 0x2AF JUMPI PUSH1 0x0 DUP1 REVERT JUMPDEST DUP1 ISZERO PUSH2 0x3E4 JUMPI PUSH1 0x40 DUP1 MLOAD PUSH1 0x60 DUP2 ADD DUP3 MSTORE PUSH1 0x1 PUSH1 0x1 PUSH1 0xA0 SHL SUB DUP5 AND DUP2 MSTORE PUSH1 0x20 DUP2 ADD DUP4 SWAP1 MSTORE PUSH1 0x0 SWAP2 DUP2 ADD DUP3 SWAP1 MSTORE PUSH1 0x3 DUP1 SLOAD SWAP2 SWAP3 DUP5 SWAP3 PUSH2 0x2ED SWAP1 DUP5 SWAP1 PUSH2 0x99B JUMP JUMPDEST SWAP1 SWAP2 SSTORE POP POP PUSH1 0x1 DUP1 SLOAD DUP1 DUP3 ADD DUP3 SSTORE PUSH1 0x0 SWAP2 SWAP1 SWAP2 MSTORE DUP2 MLOAD PUSH32 0xB10E2D527612073B26EECDFD717E6A320CF44B4AFAC2B0732D9FCBE2B7FA0CF6 PUSH1 0x3 SWAP1 SWAP3 MUL SWAP2 DUP3 ADD DUP1 SLOAD PUSH1 0x1 PUSH1 0x1 PUSH1 0xA0 SHL SUB NOT AND PUSH1 0x1 PUSH1 0x1 PUSH1 0xA0 SHL SUB SWAP3 DUP4 AND OR SWAP1 SSTORE PUSH1 0x20 DUP1 DUP5 ADD MLOAD PUSH32 0xB10E2D527612073B26EECDFD717E6A320CF44B4AFAC2B0732D9FCBE2B7FA0CF7 DUP5 ADD SSTORE PUSH1 0x40 DUP1 DUP6 ADD MLOAD PUSH32 0xB10E2D527612073B26EECDFD717E6A320CF44B4AFAC2B0732D9FCBE2B7FA0CF8 SWAP1 SWAP5 ADD DUP1 SLOAD PUSH1 0xFF NOT AND SWAP5 ISZERO ISZERO SWAP5 SWAP1 SWAP5 OR SWAP1 SWAP4 SSTORE DUP3 MLOAD SWAP2 DUP7 AND DUP3 MSTORE DUP2 ADD DUP5 SWAP1 MSTORE PUSH32 0x9A92C3472BA0D2D183E38C3801BAE5D41D693C2803377EAE8B0F94683862253E SWAP2 ADD JUMPDEST PUSH1 0x40 MLOAD DUP1 SWAP2 SUB SWAP1 LOG1 POP JUMPDEST POP POP JUMP JUMPDEST PUSH1 0x0 SLOAD PUSH3 0x10000 SWAP1 DIV PUSH1 0x1 PUSH1 0x1 PUSH1 0xA0 SHL SUB AND CALLER EQ PUSH2 0x405 JUMPI PUSH1 0x0 DUP1 REVERT JUMPDEST PUSH1 0x2 SLOAD PUSH1 0x0 SWAP1 DUP2 SWAP1 JUMPDEST PUSH1 0x1 SLOAD DUP2 LT ISZERO PUSH2 0x5DA JUMPI SELFBALANCE SWAP3 POP PUSH1 0x0 PUSH1 0x1 PUSH1 0x2 SLOAD DUP2 SLOAD DUP2 LT PUSH2 0x432 JUMPI PUSH2 0x432 PUSH2 0x9B3 JUMP JUMPDEST SWAP1 PUSH1 0x0 MSTORE PUSH1 0x20 PUSH1 0x0 KECCAK256 SWAP1 PUSH1 0x3 MUL ADD PUSH1 0x1 ADD SLOAD SWAP1 POP PUSH1 0x0 PUSH1 0x1 PUSH1 0x2 SLOAD DUP2 SLOAD DUP2 LT PUSH2 0x45D JUMPI PUSH2 0x45D PUSH2 0x9B3 JUMP JUMPDEST PUSH1 0x0 SWAP2 DUP3 MSTORE PUSH1 0x20 SWAP1 SWAP2 KECCAK256 PUSH1 0x3 SWAP1 SWAP2 MUL ADD SLOAD PUSH1 0x1 PUSH1 0x1 PUSH1 0xA0 SHL SUB AND SWAP1 POP DUP2 DUP6 LT DUP1 ISZERO SWAP1 PUSH2 0x488 JUMPI POP DUP2 ISZERO ISZERO JUMPDEST DUP1 ISZERO PUSH2 0x4BD JUMPI POP PUSH1 0x1 PUSH1 0x2 SLOAD DUP2 SLOAD DUP2 LT PUSH2 0x4A4 JUMPI PUSH2 0x4A4 PUSH2 0x9B3 JUMP JUMPDEST PUSH1 0x0 SWAP2 DUP3 MSTORE PUSH1 0x20 SWAP1 SWAP2 KECCAK256 PUSH1 0x2 PUSH1 0x3 SWAP1 SWAP3 MUL ADD ADD SLOAD PUSH1 0xFF AND ISZERO JUMPDEST DUP1 ISZERO PUSH2 0x4CA JUMPI POP PUSH1 0x4 SLOAD DUP5 LT JUMPDEST ISZERO PUSH2 0x5BE JUMPI PUSH1 0x40 MLOAD PUSH1 0x0 SWAP1 PUSH1 0x1 PUSH1 0x1 PUSH1 0xA0 SHL SUB DUP4 AND SWAP1 DUP5 ISZERO PUSH2 0x8FC MUL SWAP1 DUP6 SWAP1 DUP5 DUP2 DUP2 DUP2 DUP6 DUP9 DUP9 CALL SWAP4 POP POP POP POP SWAP1 POP DUP1 ISZERO PUSH2 0x594 JUMPI DUP3 PUSH1 0x3 PUSH1 0x0 DUP3 DUP3 SLOAD PUSH2 0x510 SWAP2 SWAP1 PUSH2 0x9C9 JUMP JUMPDEST SWAP3 POP POP DUP2 SWAP1 SSTORE POP PUSH1 0x1 DUP1 PUSH1 0x2 SLOAD DUP2 SLOAD DUP2 LT PUSH2 0x52D JUMPI PUSH2 0x52D PUSH2 0x9B3 JUMP JUMPDEST PUSH1 0x0 SWAP2 DUP3 MSTORE PUSH1 0x20 SWAP2 DUP3 SWAP1 KECCAK256 PUSH1 0x3 SWAP2 SWAP1 SWAP2 MUL ADD PUSH1 0x2 ADD DUP1 SLOAD PUSH1 0xFF NOT AND SWAP3 ISZERO ISZERO SWAP3 SWAP1 SWAP3 OR SWAP1 SWAP2 SSTORE PUSH1 0x40 DUP1 MLOAD PUSH1 0x1 PUSH1 0x1 PUSH1 0xA0 SHL SUB DUP6 AND DUP2 MSTORE SWAP2 DUP3 ADD DUP6 SWAP1 MSTORE PUSH32 0x60188009B974C2FA66EE3B916D93F64D6534EA2204E0C466F9784ACE689E8E49 SWAP2 ADD PUSH1 0x40 MLOAD DUP1 SWAP2 SUB SWAP1 LOG1 JUMPDEST DUP5 PUSH2 0x59E DUP2 PUSH2 0x9E0 JUMP JUMPDEST PUSH1 0x2 DUP1 SLOAD SWAP2 SWAP8 POP SWAP1 SWAP2 POP PUSH1 0x0 PUSH2 0x5B3 DUP4 PUSH2 0x9E0 JUMP JUMPDEST SWAP2 SWAP1 POP SSTORE POP POP PUSH2 0x5C5 JUMP JUMPDEST POP POP POP POP POP JUMP JUMPDEST POP POP DUP1 DUP1 PUSH2 0x5D2 SWAP1 PUSH2 0x9E0 JUMP JUMPDEST SWAP2 POP POP PUSH2 0x40E JUMP JUMPDEST POP POP POP JUMP JUMPDEST PUSH1 0x1 DUP2 DUP2 SLOAD DUP2 LT PUSH2 0x5EF JUMPI PUSH1 0x0 DUP1 REVERT JUMPDEST PUSH1 0x0 SWAP2 DUP3 MSTORE PUSH1 0x20 SWAP1 SWAP2 KECCAK256 PUSH1 0x3 SWAP1 SWAP2 MUL ADD DUP1 SLOAD PUSH1 0x1 DUP3 ADD SLOAD PUSH1 0x2 SWAP1 SWAP3 ADD SLOAD PUSH1 0x1 PUSH1 0x1 PUSH1 0xA0 SHL SUB SWAP1 SWAP2 AND SWAP3 POP PUSH1 0xFF AND DUP4 JUMP JUMPDEST PUSH1 0x0 CALLER SWAP1 POP PUSH1 0x1 DUP3 DUP2 SLOAD DUP2 LT PUSH2 0x637 JUMPI PUSH2 0x637 PUSH2 0x9B3 JUMP JUMPDEST PUSH1 0x0 SWAP2 DUP3 MSTORE PUSH1 0x20 SWAP1 SWAP2 KECCAK256 PUSH1 0x2 PUSH1 0x3 SWAP1 SWAP3 MUL ADD ADD SLOAD PUSH1 0xFF AND ISZERO DUP1 ISZERO PUSH2 0x65C JUMPI POP PUSH1 0x2 SLOAD DUP3 LT JUMPDEST DUP1 ISZERO PUSH2 0x69C JUMPI POP DUP1 PUSH1 0x1 PUSH1 0x1 PUSH1 0xA0 SHL SUB AND PUSH1 0x1 DUP4 DUP2 SLOAD DUP2 LT PUSH2 0x680 JUMPI PUSH2 0x680 PUSH2 0x9B3 JUMP JUMPDEST PUSH1 0x0 SWAP2 DUP3 MSTORE PUSH1 0x20 SWAP1 SWAP2 KECCAK256 PUSH1 0x3 SWAP1 SWAP2 MUL ADD SLOAD PUSH1 0x1 PUSH1 0x1 PUSH1 0xA0 SHL SUB AND EQ JUMPDEST PUSH2 0x6DA JUMPI PUSH1 0x40 MLOAD PUSH3 0x461BCD PUSH1 0xE5 SHL DUP2 MSTORE PUSH1 0x20 PUSH1 0x4 DUP3 ADD MSTORE PUSH1 0xF PUSH1 0x24 DUP3 ADD MSTORE PUSH15 0x185B1C9958591E481CD95D1D1B1959 PUSH1 0x8A SHL PUSH1 0x44 DUP3 ADD MSTORE PUSH1 0x64 ADD PUSH2 0x284 JUMP JUMPDEST PUSH1 0x0 PUSH1 0x1 DUP4 DUP2 SLOAD DUP2 LT PUSH2 0x6EF JUMPI PUSH2 0x6EF PUSH2 0x9B3 JUMP JUMPDEST SWAP1 PUSH1 0x0 MSTORE PUSH1 0x20 PUSH1 0x0 KECCAK256 SWAP1 PUSH1 0x3 MUL ADD PUSH1 0x1 ADD SLOAD SWAP1 POP DUP1 PUSH1 0x3 PUSH1 0x0 DUP3 DUP3 SLOAD PUSH2 0x715 SWAP2 SWAP1 PUSH2 0x9C9 JUMP JUMPDEST SWAP3 POP POP DUP2 SWAP1 SSTORE POP PUSH1 0x1 DUP1 DUP5 DUP2 SLOAD DUP2 LT PUSH2 0x730 JUMPI PUSH2 0x730 PUSH2 0x9B3 JUMP JUMPDEST PUSH1 0x0 SWAP2 DUP3 MSTORE PUSH1 0x20 DUP3 KECCAK256 PUSH1 0x3 SWAP2 SWAP1 SWAP2 MUL ADD PUSH1 0x2 ADD DUP1 SLOAD PUSH1 0xFF NOT AND SWAP3 ISZERO ISZERO SWAP3 SWAP1 SWAP3 OR SWAP1 SWAP2 SSTORE PUSH1 0x40 MLOAD PUSH1 0x1 PUSH1 0x1 PUSH1 0xA0 SHL SUB DUP5 AND SWAP2 PUSH2 0x8FC DUP5 ISZERO MUL SWAP2 DUP5 SWAP2 DUP2 DUP2 DUP2 DUP6 DUP9 DUP9 CALL SWAP4 POP POP POP POP ISZERO DUP1 ISZERO PUSH2 0x787 JUMPI RETURNDATASIZE PUSH1 0x0 DUP1 RETURNDATACOPY RETURNDATASIZE PUSH1 0x0 REVERT JUMPDEST POP PUSH1 0x40 DUP1 MLOAD PUSH1 0x1 PUSH1 0x1 PUSH1 0xA0 SHL SUB DUP5 AND DUP2 MSTORE PUSH1 0x20 DUP2 ADD DUP4 SWAP1 MSTORE PUSH32 0x60188009B974C2FA66EE3B916D93F64D6534EA2204E0C466F9784ACE689E8E49 SWAP2 ADD PUSH2 0x3DA JUMP JUMPDEST PUSH1 0x0 SLOAD PUSH2 0x100 SWAP1 DIV PUSH1 0xFF AND ISZERO DUP1 DUP1 ISZERO PUSH2 0x7E7 JUMPI POP PUSH1 0x0 SLOAD PUSH1 0x1 PUSH1 0xFF SWAP1 SWAP2 AND LT JUMPDEST DUP1 PUSH2 0x801 JUMPI POP ADDRESS EXTCODESIZE ISZERO DUP1 ISZERO PUSH2 0x801 JUMPI POP PUSH1 0x0 SLOAD PUSH1 0xFF AND PUSH1 0x1 EQ JUMPDEST PUSH2 0x864 JUMPI PUSH1 0x40 MLOAD PUSH3 0x461BCD PUSH1 0xE5 SHL DUP2 MSTORE PUSH1 0x20 PUSH1 0x4 DUP3 ADD MSTORE PUSH1 0x2E PUSH1 0x24 DUP3 ADD MSTORE PUSH32 0x496E697469616C697A61626C653A20636F6E747261637420697320616C726561 PUSH1 0x44 DUP3 ADD MSTORE PUSH14 0x191E481A5B9A5D1A585B1A5E9959 PUSH1 0x92 SHL PUSH1 0x64 DUP3 ADD MSTORE PUSH1 0x84 ADD PUSH2 0x284 JUMP JUMPDEST PUSH1 0x0 DUP1 SLOAD PUSH1 0xFF NOT AND PUSH1 0x1 OR SWAP1 SSTORE DUP1 ISZERO PUSH2 0x887 JUMPI PUSH1 0x0 DUP1 SLOAD PUSH2 0xFF00 NOT AND PUSH2 0x100 OR SWAP1 SSTORE JUMPDEST PUSH1 0x0 DUP3 GT PUSH2 0x8CB JUMPI PUSH1 0x40 MLOAD PUSH3 0x461BCD PUSH1 0xE5 SHL DUP2 MSTORE PUSH1 0x20 PUSH1 0x4 DUP3 ADD MSTORE PUSH1 0x11 PUSH1 0x24 DUP3 ADD MSTORE PUSH17 0x1A5B9D985B1A590818D85C081B1A5B5A5D PUSH1 0x7A SHL PUSH1 0x44 DUP3 ADD MSTORE PUSH1 0x64 ADD PUSH2 0x284 JUMP JUMPDEST PUSH1 0x0 DUP1 SLOAD PUSH3 0x10000 PUSH1 0x1 PUSH1 0xB0 SHL SUB NOT AND PUSH3 0x10000 PUSH1 0x1 PUSH1 0x1 PUSH1 0xA0 SHL SUB DUP7 AND MUL OR SWAP1 SSTORE PUSH1 0x4 DUP3 SWAP1 SSTORE DUP1 ISZERO PUSH2 0x5DA JUMPI PUSH1 0x0 DUP1 SLOAD PUSH2 0xFF00 NOT AND SWAP1 SSTORE PUSH1 0x40 MLOAD PUSH1 0x1 DUP2 MSTORE PUSH32 0x7F26B83FF96E1F2B6A682F133852F6798A09C465DA95921460CEFB3847402498 SWAP1 PUSH1 0x20 ADD PUSH2 0x3DA JUMP JUMPDEST PUSH1 0x0 PUSH1 0x20 DUP3 DUP5 SUB SLT ISZERO PUSH2 0x946 JUMPI PUSH1 0x0 DUP1 REVERT JUMPDEST POP CALLDATALOAD SWAP2 SWAP1 POP JUMP JUMPDEST PUSH1 0x0 DUP1 PUSH1 0x40 DUP4 DUP6 SUB SLT ISZERO PUSH2 0x960 JUMPI PUSH1 0x0 DUP1 REVERT JUMPDEST DUP3 CALLDATALOAD PUSH1 0x1 PUSH1 0x1 PUSH1 0xA0 SHL SUB DUP2 AND DUP2 EQ PUSH2 0x977 JUMPI PUSH1 0x0 DUP1 REVERT JUMPDEST SWAP5 PUSH1 0x20 SWAP4 SWAP1 SWAP4 ADD CALLDATALOAD SWAP4 POP POP POP JUMP JUMPDEST PUSH4 0x4E487B71 PUSH1 0xE0 SHL PUSH1 0x0 MSTORE PUSH1 0x11 PUSH1 0x4 MSTORE PUSH1 0x24 PUSH1 0x0 REVERT JUMPDEST PUSH1 0x0 DUP3 NOT DUP3 GT ISZERO PUSH2 0x9AE JUMPI PUSH2 0x9AE PUSH2 0x985 JUMP JUMPDEST POP ADD SWAP1 JUMP JUMPDEST PUSH4 0x4E487B71 PUSH1 0xE0 SHL PUSH1 0x0 MSTORE PUSH1 0x32 PUSH1 0x4 MSTORE PUSH1 0x24 PUSH1 0x0 REVERT JUMPDEST PUSH1 0x0 DUP3 DUP3 LT ISZERO PUSH2 0x9DB JUMPI PUSH2 0x9DB PUSH2 0x985 JUMP JUMPDEST POP SUB SWAP1 JUMP JUMPDEST PUSH1 0x0 PUSH1 0x0 NOT DUP3 EQ ISZERO PUSH2 0x9F4 JUMPI PUSH2 0x9F4 PUSH2 0x985 JUMP JUMPDEST POP PUSH1 0x1 ADD SWAP1 JUMP INVALID LOG2 PUSH5 0x6970667358 0x22 SLT KECCAK256 0xE8 DIFFICULTY 0x26 0xBD DUP7 0xC0 0xD1 DUP5 CALLDATASIZE MOD 0x4C DUP14 0xAA 0xB8 DUP12 0xB3 MSTORE8 0xCA 0xBA DUP9 PUSH2 0x8EF5 PUSH28 0xABAB39FFB3587EA764736F6C634300080A0033000000000000000000 "
		},
		"gasEstimates": {
			"creation": {
				"codeDepositCost": "521800",
				"executionCost": "556",
				"totalCost": "522356"
			},
			"external": {
				"addToQueue(address,uint256)": "123198",
				"capLimit()": "2307",
				"getPoolBalance()": "227",
				"index()": "2285",
				"initialize(address,uint256)": "129594",
				"masterVault()": "2393",
				"people(uint256)": "8934",
				"setCapLimit(uint256)": "24559",
				"totalDebt()": "2394",
				"tryRemove()": "infinite",
				"withdrawUnsettled(uint256)": "infinite"
			}
		},
		"methodIdentifiers": {
			"addToQueue(address,uint256)": "7b0878f8",
			"capLimit()": "3521fb87",
			"getPoolBalance()": "abd70aa2",
			"index()": "2986c0e5",
			"initialize(address,uint256)": "cd6dc687",
			"masterVault()": "3b7e3775",
			"people(uint256)": "9e7a13ad",
			"setCapLimit(uint256)": "55f2316c",
			"totalDebt()": "fc7b9c18",
			"tryRemove()": "97d22766",
			"withdrawUnsettled(uint256)": "c714003d"
		}
	},
	"abi": [
		{
			"anonymous": false,
			"inputs": [
				{
					"indexed": false,
					"internalType": "uint8",
					"name": "version",
					"type": "uint8"
				}
			],
			"name": "Initialized",
			"type": "event"
		},
		{
			"anonymous": false,
			"inputs": [
				{
					"indexed": false,
					"internalType": "address",
					"name": "user",
					"type": "address"
				},
				{
					"indexed": false,
					"internalType": "uint256",
					"name": "amount",
					"type": "uint256"
				}
			],
			"name": "WithdrawCompleted",
			"type": "event"
		},
		{
			"anonymous": false,
			"inputs": [
				{
					"indexed": false,
					"internalType": "address",
					"name": "user",
					"type": "address"
				},
				{
					"indexed": false,
					"internalType": "uint256",
					"name": "amount",
					"type": "uint256"
				}
			],
			"name": "WithdrawPending",
			"type": "event"
		},
		{
			"inputs": [
				{
					"internalType": "address",
					"name": "_person",
					"type": "address"
				},
				{
					"internalType": "uint256",
					"name": "_debt",
					"type": "uint256"
				}
			],
			"name": "addToQueue",
			"outputs": [],
			"stateMutability": "nonpayable",
			"type": "function"
		},
		{
			"inputs": [],
			"name": "capLimit",
			"outputs": [
				{
					"internalType": "uint256",
					"name": "",
					"type": "uint256"
				}
			],
			"stateMutability": "view",
			"type": "function"
		},
		{
			"inputs": [],
			"name": "getPoolBalance",
			"outputs": [
				{
					"internalType": "uint256",
					"name": "",
					"type": "uint256"
				}
			],
			"stateMutability": "view",
			"type": "function"
		},
		{
			"inputs": [],
			"name": "index",
			"outputs": [
				{
					"internalType": "uint256",
					"name": "",
					"type": "uint256"
				}
			],
			"stateMutability": "view",
			"type": "function"
		},
		{
			"inputs": [
				{
					"internalType": "address",
					"name": "_masterVault",
					"type": "address"
				},
				{
					"internalType": "uint256",
					"name": "_capLimit",
					"type": "uint256"
				}
			],
			"name": "initialize",
			"outputs": [],
			"stateMutability": "nonpayable",
			"type": "function"
		},
		{
			"inputs": [],
			"name": "masterVault",
			"outputs": [
				{
					"internalType": "contract IMasterVault",
					"name": "",
					"type": "address"
				}
			],
			"stateMutability": "view",
			"type": "function"
		},
		{
			"inputs": [
				{
					"internalType": "uint256",
					"name": "",
					"type": "uint256"
				}
			],
			"name": "people",
			"outputs": [
				{
					"internalType": "address",
					"name": "_address",
					"type": "address"
				},
				{
					"internalType": "uint256",
					"name": "_debt",
					"type": "uint256"
				},
				{
					"internalType": "bool",
					"name": "_settled",
					"type": "bool"
				}
			],
			"stateMutability": "view",
			"type": "function"
		},
		{
			"inputs": [
				{
					"internalType": "uint256",
					"name": "_capLimit",
					"type": "uint256"
				}
			],
			"name": "setCapLimit",
			"outputs": [],
			"stateMutability": "nonpayable",
			"type": "function"
		},
		{
			"inputs": [],
			"name": "totalDebt",
			"outputs": [
				{
					"internalType": "uint256",
					"name": "",
					"type": "uint256"
				}
			],
			"stateMutability": "view",
			"type": "function"
		},
		{
			"inputs": [],
			"name": "tryRemove",
			"outputs": [],
			"stateMutability": "nonpayable",
			"type": "function"
		},
		{
			"inputs": [
				{
					"internalType": "uint256",
					"name": "_index",
					"type": "uint256"
				}
			],
			"name": "withdrawUnsettled",
			"outputs": [],
			"stateMutability": "nonpayable",
			"type": "function"
		},
		{
			"stateMutability": "payable",
			"type": "receive"
		}
	]
}