{
	"Heliocontracts/contracts/ceros/CeVault.sol": {
		"CeVault": {
			"abi": [
				{
					"anonymous": false,
					"inputs": [
						{
							"indexed": false,
							"internalType": "address",
							"name": "oldToken",
							"type": "address"
						},
						{
							"indexed": false,
							"internalType": "address",
							"name": "newToken",
							"type": "address"
						}
					],
					"name": "CeTokenChanged",
					"type": "event"
				},
				{
					"anonymous": false,
					"inputs": [
						{
							"indexed": true,
							"internalType": "address",
							"name": "owner",
							"type": "address"
						},
						{
							"indexed": true,
							"internalType": "address",
							"name": "recipient",
							"type": "address"
						},
						{
							"indexed": false,
							"internalType": "uint256",
							"name": "value",
							"type": "uint256"
						}
					],
					"name": "Claimed",
					"type": "event"
				},
				{
					"anonymous": false,
					"inputs": [
						{
							"indexed": true,
							"internalType": "address",
							"name": "owner",
							"type": "address"
						},
						{
							"indexed": true,
							"internalType": "address",
							"name": "recipient",
							"type": "address"
						},
						{
							"indexed": false,
							"internalType": "uint256",
							"name": "value",
							"type": "uint256"
						}
					],
					"name": "Deposited",
					"type": "event"
				},
				{
					"anonymous": false,
					"inputs": [
						{
							"indexed": false,
							"internalType": "uint8",
							"name": "version",
							"type": "uint8"
						}
					],
					"name": "Initialized",
					"type": "event"
				},
				{
					"anonymous": false,
					"inputs": [
						{
							"indexed": true,
							"internalType": "address",
							"name": "previousOwner",
							"type": "address"
						},
						{
							"indexed": true,
							"internalType": "address",
							"name": "newOwner",
							"type": "address"
						}
					],
					"name": "OwnershipTransferred",
					"type": "event"
				},
				{
					"anonymous": false,
					"inputs": [
						{
							"indexed": false,
							"internalType": "address",
							"name": "account",
							"type": "address"
						}
					],
					"name": "Paused",
					"type": "event"
				},
				{
					"anonymous": false,
					"inputs": [
						{
							"indexed": false,
							"internalType": "uint256",
							"name": "currentRatio",
							"type": "uint256"
						}
					],
					"name": "RatioUpdated",
					"type": "event"
				},
				{
					"anonymous": false,
					"inputs": [
						{
							"indexed": false,
							"internalType": "address",
							"name": "router",
							"type": "address"
						}
					],
					"name": "RouterChanged",
					"type": "event"
				},
				{
					"anonymous": false,
					"inputs": [
						{
							"indexed": false,
							"internalType": "address",
							"name": "account",
							"type": "address"
						}
					],
					"name": "Unpaused",
					"type": "event"
				},
				{
					"anonymous": false,
					"inputs": [
						{
							"indexed": true,
							"internalType": "address",
							"name": "owner",
							"type": "address"
						},
						{
							"indexed": true,
							"internalType": "address",
							"name": "recipient",
							"type": "address"
						},
						{
							"indexed": false,
							"internalType": "uint256",
							"name": "value",
							"type": "uint256"
						}
					],
					"name": "Withdrawn",
					"type": "event"
				},
				{
					"inputs": [
						{
							"internalType": "address",
							"name": "router",
							"type": "address"
						}
					],
					"name": "changeRouter",
					"outputs": [],
					"stateMutability": "nonpayable",
					"type": "function"
				},
				{
					"inputs": [
						{
							"internalType": "address",
							"name": "recipient",
							"type": "address"
						}
					],
					"name": "claimYields",
					"outputs": [
						{
							"internalType": "uint256",
							"name": "",
							"type": "uint256"
						}
					],
					"stateMutability": "nonpayable",
					"type": "function"
				},
				{
					"inputs": [
						{
							"internalType": "address",
							"name": "owner",
							"type": "address"
						},
						{
							"internalType": "address",
							"name": "recipient",
							"type": "address"
						}
					],
					"name": "claimYieldsFor",
					"outputs": [
						{
							"internalType": "uint256",
							"name": "",
							"type": "uint256"
						}
					],
					"stateMutability": "nonpayable",
					"type": "function"
				},
				{
					"inputs": [
						{
							"internalType": "uint256",
							"name": "amount",
							"type": "uint256"
						}
					],
					"name": "deposit",
					"outputs": [
						{
							"internalType": "uint256",
							"name": "",
							"type": "uint256"
						}
					],
					"stateMutability": "nonpayable",
					"type": "function"
				},
				{
					"inputs": [
						{
							"internalType": "address",
							"name": "recipient",
							"type": "address"
						},
						{
							"internalType": "uint256",
							"name": "amount",
							"type": "uint256"
						}
					],
					"name": "depositFor",
					"outputs": [
						{
							"internalType": "uint256",
							"name": "",
							"type": "uint256"
						}
					],
					"stateMutability": "nonpayable",
					"type": "function"
				},
				{
					"inputs": [],
					"name": "getAbnbcAddress",
					"outputs": [
						{
							"internalType": "address",
							"name": "",
							"type": "address"
						}
					],
					"stateMutability": "view",
					"type": "function"
				},
				{
					"inputs": [],
					"name": "getCeToken",
					"outputs": [
						{
							"internalType": "address",
							"name": "",
							"type": "address"
						}
					],
					"stateMutability": "view",
					"type": "function"
				},
				{
					"inputs": [
						{
							"internalType": "address",
							"name": "account",
							"type": "address"
						}
					],
					"name": "getCeTokenBalanceOf",
					"outputs": [
						{
							"internalType": "uint256",
							"name": "",
							"type": "uint256"
						}
					],
					"stateMutability": "view",
					"type": "function"
				},
				{
					"inputs": [
						{
							"internalType": "address",
							"name": "account",
							"type": "address"
						}
					],
					"name": "getClaimedOf",
					"outputs": [
						{
							"internalType": "uint256",
							"name": "",
							"type": "uint256"
						}
					],
					"stateMutability": "view",
					"type": "function"
				},
				{
					"inputs": [
						{
							"internalType": "address",
							"name": "account",
							"type": "address"
						}
					],
					"name": "getDepositOf",
					"outputs": [
						{
							"internalType": "uint256",
							"name": "",
							"type": "uint256"
						}
					],
					"stateMutability": "view",
					"type": "function"
				},
				{
					"inputs": [],
					"name": "getName",
					"outputs": [
						{
							"internalType": "string",
							"name": "",
							"type": "string"
						}
					],
					"stateMutability": "view",
					"type": "function"
				},
				{
					"inputs": [
						{
							"internalType": "address",
							"name": "account",
							"type": "address"
						}
					],
					"name": "getPrincipalOf",
					"outputs": [
						{
							"internalType": "uint256",
							"name": "",
							"type": "uint256"
						}
					],
					"stateMutability": "view",
					"type": "function"
				},
				{
					"inputs": [],
					"name": "getRouter",
					"outputs": [
						{
							"internalType": "address",
							"name": "",
							"type": "address"
						}
					],
					"stateMutability": "view",
					"type": "function"
				},
				{
					"inputs": [],
					"name": "getTotalAmountInVault",
					"outputs": [
						{
							"internalType": "uint256",
							"name": "",
							"type": "uint256"
						}
					],
					"stateMutability": "view",
					"type": "function"
				},
				{
					"inputs": [
						{
							"internalType": "address",
							"name": "account",
							"type": "address"
						}
					],
					"name": "getYieldFor",
					"outputs": [
						{
							"internalType": "uint256",
							"name": "",
							"type": "uint256"
						}
					],
					"stateMutability": "view",
					"type": "function"
				},
				{
					"inputs": [
						{
							"internalType": "string",
							"name": "name",
							"type": "string"
						},
						{
							"internalType": "address",
							"name": "ceTokenAddress",
							"type": "address"
						},
						{
							"internalType": "address",
							"name": "aBNBcAddress",
							"type": "address"
						}
					],
					"name": "initialize",
					"outputs": [],
					"stateMutability": "nonpayable",
					"type": "function"
				},
				{
					"inputs": [],
					"name": "owner",
					"outputs": [
						{
							"internalType": "address",
							"name": "",
							"type": "address"
						}
					],
					"stateMutability": "view",
					"type": "function"
				},
				{
					"inputs": [],
					"name": "paused",
					"outputs": [
						{
							"internalType": "bool",
							"name": "",
							"type": "bool"
						}
					],
					"stateMutability": "view",
					"type": "function"
				},
				{
					"inputs": [],
					"name": "renounceOwnership",
					"outputs": [],
					"stateMutability": "nonpayable",
					"type": "function"
				},
				{
					"inputs": [
						{
							"internalType": "address",
							"name": "newOwner",
							"type": "address"
						}
					],
					"name": "transferOwnership",
					"outputs": [],
					"stateMutability": "nonpayable",
					"type": "function"
				},
				{
					"inputs": [
						{
							"internalType": "address",
							"name": "recipient",
							"type": "address"
						},
						{
							"internalType": "uint256",
							"name": "amount",
							"type": "uint256"
						}
					],
					"name": "withdraw",
					"outputs": [
						{
							"internalType": "uint256",
							"name": "",
							"type": "uint256"
						}
					],
					"stateMutability": "nonpayable",
					"type": "function"
				},
				{
					"inputs": [
						{
							"internalType": "address",
							"name": "owner",
							"type": "address"
						},
						{
							"internalType": "address",
							"name": "recipient",
							"type": "address"
						},
						{
							"internalType": "uint256",
							"name": "amount",
							"type": "uint256"
						}
					],
					"name": "withdrawFor",
					"outputs": [
						{
							"internalType": "uint256",
							"name": "",
							"type": "uint256"
						}
					],
					"stateMutability": "nonpayable",
					"type": "function"
				}
			],
			"devdoc": {
				"kind": "dev",
				"methods": {
					"owner()": {
						"details": "Returns the address of the current owner."
					},
					"paused()": {
						"details": "Returns true if the contract is paused, and false otherwise."
					},
					"renounceOwnership()": {
						"details": "Leaves the contract without owner. It will not be possible to call `onlyOwner` functions anymore. Can only be called by the current owner. NOTE: Renouncing ownership will leave the contract without an owner, thereby removing any functionality that is only available to the owner."
					},
					"transferOwnership(address)": {
						"details": "Transfers ownership of the contract to a new account (`newOwner`). Can only be called by the current owner."
					}
				},
				"version": 1
			},
			"evm": {
				"assembly": "    /* \"Heliocontracts/contracts/ceros/CeVault.sol\":501:6719  contract CeVault is... */\n  mstore(0x40, 0x80)\n  callvalue\n  dup1\n  iszero\n  tag_1\n  jumpi\n  0x00\n  dup1\n  revert\ntag_1:\n  pop\n  dataSize(sub_0)\n  dup1\n  dataOffset(sub_0)\n  0x00\n  codecopy\n  0x00\n  return\nstop\n\nsub_0: assembly {\n        /* \"Heliocontracts/contracts/ceros/CeVault.sol\":501:6719  contract CeVault is... */\n      mstore(0x40, 0x80)\n      callvalue\n      dup1\n      iszero\n      tag_1\n      jumpi\n      0x00\n      dup1\n      revert\n    tag_1:\n      pop\n      jumpi(tag_2, lt(calldatasize, 0x04))\n      shr(0xe0, calldataload(0x00))\n      dup1\n      0x8da5cb5b\n      gt\n      tag_25\n      jumpi\n      dup1\n      0xb4bf36b2\n      gt\n      tag_26\n      jumpi\n      dup1\n      0xb4bf36b2\n      eq\n      tag_19\n      jumpi\n      dup1\n      0xb6b55f25\n      eq\n      tag_20\n      jumpi\n      dup1\n      0xc96f0e01\n      eq\n      tag_21\n      jumpi\n      dup1\n      0xf2fde38b\n      eq\n      tag_22\n      jumpi\n      dup1\n      0xf3fef3a3\n      eq\n      tag_23\n      jumpi\n      dup1\n      0xfad83484\n      eq\n      tag_24\n      jumpi\n      0x00\n      dup1\n      revert\n    tag_26:\n      dup1\n      0x8da5cb5b\n      eq\n      tag_14\n      jumpi\n      dup1\n      0x9f1d9267\n      eq\n      tag_15\n      jumpi\n      dup1\n      0xaba317a9\n      eq\n      tag_16\n      jumpi\n      dup1\n      0xb0f479a1\n      eq\n      tag_17\n      jumpi\n      dup1\n      0xb36684ac\n      eq\n      tag_18\n      jumpi\n      0x00\n      dup1\n      revert\n    tag_25:\n      dup1\n      0x340ac20f\n      gt\n      tag_27\n      jumpi\n      dup1\n      0x340ac20f\n      eq\n      tag_8\n      jumpi\n      dup1\n      0x4226626a\n      eq\n      tag_9\n      jumpi\n      dup1\n      0x463fd1af\n      eq\n      tag_10\n      jumpi\n      dup1\n      0x5c975abb\n      eq\n      tag_11\n      jumpi\n      dup1\n      0x5d602c00\n      eq\n      tag_12\n      jumpi\n      dup1\n      0x715018a6\n      eq\n      tag_13\n      jumpi\n      0x00\n      dup1\n      revert\n    tag_27:\n      dup1\n      0x0c632bbe\n      eq\n      tag_3\n      jumpi\n      dup1\n      0x1101596c\n      eq\n      tag_4\n      jumpi\n      dup1\n      0x17d7de7c\n      eq\n      tag_5\n      jumpi\n      dup1\n      0x223888c1\n      eq\n      tag_6\n      jumpi\n      dup1\n      0x2f4f21e2\n      eq\n      tag_7\n      jumpi\n    tag_2:\n      0x00\n      dup1\n      revert\n        /* \"Heliocontracts/contracts/ceros/CeVault.sol\":6424:6518  function getCeToken() external view returns(address) {... */\n    tag_3:\n        /* \"Heliocontracts/contracts/ceros/CeVault.sol\":6502:6510  _ceToken */\n      and(sub(shl(0xa0, 0x01), 0x01), sload(0xca))\n        /* \"Heliocontracts/contracts/ceros/CeVault.sol\":6424:6518  function getCeToken() external view returns(address) {... */\n    tag_28:\n      mload(0x40)\n      sub(shl(0xa0, 0x01), 0x01)\n        /* \"#utility.yul\":178:210   */\n      swap1\n      swap2\n      and\n        /* \"#utility.yul\":160:211   */\n      dup2\n      mstore\n        /* \"#utility.yul\":148:150   */\n      0x20\n        /* \"#utility.yul\":133:151   */\n      add\n        /* \"Heliocontracts/contracts/ceros/CeVault.sol\":6424:6518  function getCeToken() external view returns(address) {... */\n    tag_30:\n      mload(0x40)\n      dup1\n      swap2\n      sub\n      swap1\n      return\n        /* \"Heliocontracts/contracts/ceros/CeVault.sol\":2414:2610  function claimYieldsFor(address owner, address recipient)... */\n    tag_4:\n      tag_32\n      tag_33\n      calldatasize\n      0x04\n      tag_34\n      jump\t// in\n    tag_33:\n      tag_35\n      jump\t// in\n    tag_32:\n      mload(0x40)\n        /* \"#utility.yul\":811:836   */\n      swap1\n      dup2\n      mstore\n        /* \"#utility.yul\":799:801   */\n      0x20\n        /* \"#utility.yul\":784:802   */\n      add\n        /* \"Heliocontracts/contracts/ceros/CeVault.sol\":2414:2610  function claimYieldsFor(address owner, address recipient)... */\n      tag_30\n        /* \"#utility.yul\":665:842   */\n      jump\n        /* \"Heliocontracts/contracts/ceros/CeVault.sol\":6333:6419  function getName() external view returns (string memory) {... */\n    tag_5:\n      tag_38\n      tag_39\n      jump\t// in\n    tag_38:\n      mload(0x40)\n      tag_30\n      swap2\n      swap1\n      tag_41\n      jump\t// in\n        /* \"Heliocontracts/contracts/ceros/CeVault.sol\":5375:5812  function getYieldFor(address account)... */\n    tag_6:\n      tag_32\n      tag_43\n      calldatasize\n      0x04\n      tag_44\n      jump\t// in\n    tag_43:\n      tag_45\n      jump\t// in\n        /* \"Heliocontracts/contracts/ceros/CeVault.sol\":1677:1867  function depositFor(address recipient, uint256 amount)... */\n    tag_7:\n      tag_32\n      tag_48\n      calldatasize\n      0x04\n      tag_49\n      jump\t// in\n    tag_48:\n      tag_50\n      jump\t// in\n        /* \"Heliocontracts/contracts/ceros/CeVault.sol\":6202:6328  function changeRouter(address router) external onlyOwner {... */\n    tag_8:\n      tag_52\n      tag_53\n      calldatasize\n      0x04\n      tag_44\n      jump\t// in\n    tag_53:\n      tag_54\n      jump\t// in\n    tag_52:\n      stop\n        /* \"Heliocontracts/contracts/ceros/CeVault.sol\":6085:6197  function getClaimedOf(address account) external view returns (uint256) {... */\n    tag_9:\n      tag_32\n      tag_56\n      calldatasize\n      0x04\n      tag_44\n      jump\t// in\n    tag_56:\n      sub(shl(0xa0, 0x01), 0x01)\n        /* \"Heliocontracts/contracts/ceros/CeVault.sol\":6173:6190  _claimed[account] */\n      and\n        /* \"Heliocontracts/contracts/ceros/CeVault.sol\":6147:6154  uint256 */\n      0x00\n        /* \"Heliocontracts/contracts/ceros/CeVault.sol\":6173:6190  _claimed[account] */\n      swap1\n      dup2\n      mstore\n        /* \"Heliocontracts/contracts/ceros/CeVault.sol\":6173:6181  _claimed */\n      0xcd\n        /* \"Heliocontracts/contracts/ceros/CeVault.sol\":6173:6190  _claimed[account] */\n      0x20\n      mstore\n      0x40\n      swap1\n      keccak256\n      sload\n      swap1\n        /* \"Heliocontracts/contracts/ceros/CeVault.sol\":6085:6197  function getClaimedOf(address account) external view returns (uint256) {... */\n      jump\n        /* \"Heliocontracts/contracts/ceros/CeVault.sol\":1140:1483  function initialize(... */\n    tag_10:\n      tag_52\n      tag_60\n      calldatasize\n      0x04\n      tag_61\n      jump\t// in\n    tag_60:\n      tag_62\n      jump\t// in\n        /* \"@openzeppelin/contracts-upgradeable/security/PausableUpgradeable.sol\":1858:1942  function paused() public view virtual returns (bool) {... */\n    tag_11:\n        /* \"@openzeppelin/contracts-upgradeable/security/PausableUpgradeable.sol\":1928:1935  _paused */\n      and(0xff, sload(0x65))\n        /* \"@openzeppelin/contracts-upgradeable/security/PausableUpgradeable.sol\":1858:1942  function paused() public view virtual returns (bool) {... */\n      mload(0x40)\n        /* \"#utility.yul\":3330:3344   */\n      swap1\n      iszero\n        /* \"#utility.yul\":3323:3345   */\n      iszero\n        /* \"#utility.yul\":3305:3346   */\n      dup2\n      mstore\n        /* \"#utility.yul\":3293:3295   */\n      0x20\n        /* \"#utility.yul\":3278:3296   */\n      add\n        /* \"@openzeppelin/contracts-upgradeable/security/PausableUpgradeable.sol\":1858:1942  function paused() public view virtual returns (bool) {... */\n      tag_30\n        /* \"#utility.yul\":3165:3352   */\n      jump\n        /* \"Heliocontracts/contracts/ceros/CeVault.sol\":5965:6080  function getDepositOf(address account) external view returns (uint256) {... */\n    tag_12:\n      tag_32\n      tag_68\n      calldatasize\n      0x04\n      tag_44\n      jump\t// in\n    tag_68:\n      sub(shl(0xa0, 0x01), 0x01)\n        /* \"Heliocontracts/contracts/ceros/CeVault.sol\":6053:6073  _depositors[account] */\n      and\n        /* \"Heliocontracts/contracts/ceros/CeVault.sol\":6027:6034  uint256 */\n      0x00\n        /* \"Heliocontracts/contracts/ceros/CeVault.sol\":6053:6073  _depositors[account] */\n      swap1\n      dup2\n      mstore\n        /* \"Heliocontracts/contracts/ceros/CeVault.sol\":6053:6064  _depositors */\n      0xce\n        /* \"Heliocontracts/contracts/ceros/CeVault.sol\":6053:6073  _depositors[account] */\n      0x20\n      mstore\n      0x40\n      swap1\n      keccak256\n      sload\n      swap1\n        /* \"Heliocontracts/contracts/ceros/CeVault.sol\":5965:6080  function getDepositOf(address account) external view returns (uint256) {... */\n      jump\n        /* \"@openzeppelin/contracts-upgradeable/access/OwnableUpgradeable.sol\":2071:2172  function renounceOwnership() public virtual onlyOwner {... */\n    tag_13:\n      tag_52\n      tag_72\n      jump\t// in\n        /* \"@openzeppelin/contracts-upgradeable/access/OwnableUpgradeable.sol\":1441:1526  function owner() public view virtual returns (address) {... */\n    tag_14:\n        /* \"@openzeppelin/contracts-upgradeable/access/OwnableUpgradeable.sol\":1513:1519  _owner */\n      and(sub(shl(0xa0, 0x01), 0x01), sload(0x33))\n        /* \"@openzeppelin/contracts-upgradeable/access/OwnableUpgradeable.sol\":1441:1526  function owner() public view virtual returns (address) {... */\n      jump(tag_28)\n        /* \"Heliocontracts/contracts/ceros/CeVault.sol\":3504:3724  function withdrawFor(... */\n    tag_15:\n      tag_32\n      tag_77\n      calldatasize\n      0x04\n      tag_78\n      jump\t// in\n    tag_77:\n      tag_79\n      jump\t// in\n        /* \"Heliocontracts/contracts/ceros/CeVault.sol\":4935:5155  function getPrincipalOf(address account)... */\n    tag_16:\n      tag_32\n      tag_82\n      calldatasize\n      0x04\n      tag_44\n      jump\t// in\n    tag_82:\n      tag_83\n      jump\t// in\n        /* \"Heliocontracts/contracts/ceros/CeVault.sol\":6625:6717  function getRouter() external view returns(address) {... */\n    tag_17:\n        /* \"Heliocontracts/contracts/ceros/CeVault.sol\":6702:6709  _router */\n      and(sub(shl(0xa0, 0x01), 0x01), sload(0xcc))\n        /* \"Heliocontracts/contracts/ceros/CeVault.sol\":6625:6717  function getRouter() external view returns(address) {... */\n      jump(tag_28)\n        /* \"Heliocontracts/contracts/ceros/CeVault.sol\":2634:2802  function claimYields(address recipient)... */\n    tag_18:\n      tag_32\n      tag_89\n      calldatasize\n      0x04\n      tag_44\n      jump\t// in\n    tag_89:\n      tag_90\n      jump\t// in\n        /* \"Heliocontracts/contracts/ceros/CeVault.sol\":6523:6620  function getAbnbcAddress() external view returns(address) {... */\n    tag_19:\n        /* \"Heliocontracts/contracts/ceros/CeVault.sol\":6606:6612  _aBNBc */\n      and(sub(shl(0xa0, 0x01), 0x01), sload(0xcb))\n        /* \"Heliocontracts/contracts/ceros/CeVault.sol\":6523:6620  function getAbnbcAddress() external view returns(address) {... */\n      jump(tag_28)\n        /* \"Heliocontracts/contracts/ceros/CeVault.sol\":1503:1657  function deposit(uint256 amount)... */\n    tag_20:\n      tag_32\n      tag_96\n      calldatasize\n      0x04\n      tag_97\n      jump\t// in\n    tag_96:\n      tag_98\n      jump\t// in\n        /* \"Heliocontracts/contracts/ceros/CeVault.sol\":5817:5960  function getCeTokenBalanceOf(address account)... */\n    tag_21:\n      tag_32\n      tag_101\n      calldatasize\n      0x04\n      tag_44\n      jump\t// in\n    tag_101:\n      sub(shl(0xa0, 0x01), 0x01)\n        /* \"Heliocontracts/contracts/ceros/CeVault.sol\":5928:5953  _ceTokenBalances[account] */\n      and\n        /* \"Heliocontracts/contracts/ceros/CeVault.sol\":5898:5905  uint256 */\n      0x00\n        /* \"Heliocontracts/contracts/ceros/CeVault.sol\":5928:5953  _ceTokenBalances[account] */\n      swap1\n      dup2\n      mstore\n        /* \"Heliocontracts/contracts/ceros/CeVault.sol\":5928:5944  _ceTokenBalances */\n      0xcf\n        /* \"Heliocontracts/contracts/ceros/CeVault.sol\":5928:5953  _ceTokenBalances[account] */\n      0x20\n      mstore\n      0x40\n      swap1\n      keccak256\n      sload\n      swap1\n        /* \"Heliocontracts/contracts/ceros/CeVault.sol\":5817:5960  function getCeTokenBalanceOf(address account)... */\n      jump\n        /* \"@openzeppelin/contracts-upgradeable/access/OwnableUpgradeable.sol\":2321:2519  function transferOwnership(address newOwner) public virtual onlyOwner {... */\n    tag_22:\n      tag_52\n      tag_105\n      calldatasize\n      0x04\n      tag_44\n      jump\t// in\n    tag_105:\n      tag_106\n      jump\t// in\n        /* \"Heliocontracts/contracts/ceros/CeVault.sol\":3297:3483  function withdraw(address recipient, uint256 amount)... */\n    tag_23:\n      tag_32\n      tag_108\n      calldatasize\n      0x04\n      tag_49\n      jump\t// in\n    tag_108:\n      tag_109\n      jump\t// in\n        /* \"Heliocontracts/contracts/ceros/CeVault.sol\":4528:4657  function getTotalAmountInVault() external view override returns (uint256) {... */\n    tag_24:\n      tag_32\n      tag_112\n      jump\t// in\n        /* \"Heliocontracts/contracts/ceros/CeVault.sol\":2414:2610  function claimYieldsFor(address owner, address recipient)... */\n    tag_35:\n        /* \"Heliocontracts/contracts/ceros/CeVault.sol\":1086:1093  _router */\n      sload(0xcc)\n        /* \"Heliocontracts/contracts/ceros/CeVault.sol\":2543:2550  uint256 */\n      0x00\n      swap1\n      sub(shl(0xa0, 0x01), 0x01)\n        /* \"Heliocontracts/contracts/ceros/CeVault.sol\":1086:1093  _router */\n      and\n        /* \"Heliocontracts/contracts/ceros/CeVault.sol\":1072:1082  msg.sender */\n      caller\n        /* \"Heliocontracts/contracts/ceros/CeVault.sol\":1072:1093  msg.sender == _router */\n      eq\n        /* \"Heliocontracts/contracts/ceros/CeVault.sol\":1064:1117  require(msg.sender == _router, \"Router: not allowed\") */\n      tag_116\n      jumpi\n      mload(0x40)\n      shl(0xe5, 0x461bcd)\n      dup2\n      mstore\n      0x04\n      add\n      tag_117\n      swap1\n      tag_118\n      jump\t// in\n    tag_117:\n      mload(0x40)\n      dup1\n      swap2\n      sub\n      swap1\n      revert\n    tag_116:\n        /* \"@openzeppelin/contracts-upgradeable/security/ReentrancyGuardUpgradeable.sol\":1815:1816  2 */\n      0x02\n        /* \"@openzeppelin/contracts-upgradeable/security/ReentrancyGuardUpgradeable.sol\":2569:2576  _status */\n      sload(0x97)\n        /* \"@openzeppelin/contracts-upgradeable/security/ReentrancyGuardUpgradeable.sol\":2569:2588  _status != _ENTERED */\n      eq\n      iszero\n        /* \"@openzeppelin/contracts-upgradeable/security/ReentrancyGuardUpgradeable.sol\":2561:2624  require(_status != _ENTERED, \"ReentrancyGuard: reentrant call\") */\n      tag_120\n      jumpi\n      mload(0x40)\n      shl(0xe5, 0x461bcd)\n      dup2\n      mstore\n      0x04\n      add\n      tag_117\n      swap1\n      tag_122\n      jump\t// in\n    tag_120:\n        /* \"@openzeppelin/contracts-upgradeable/security/ReentrancyGuardUpgradeable.sol\":1815:1816  2 */\n      0x02\n        /* \"@openzeppelin/contracts-upgradeable/security/ReentrancyGuardUpgradeable.sol\":2699:2706  _status */\n      0x97\n        /* \"@openzeppelin/contracts-upgradeable/security/ReentrancyGuardUpgradeable.sol\":2699:2717  _status = _ENTERED */\n      sstore\n        /* \"Heliocontracts/contracts/ceros/CeVault.sol\":2573:2603  _claimYields(owner, recipient) */\n      tag_124\n        /* \"Heliocontracts/contracts/ceros/CeVault.sol\":2586:2591  owner */\n      dup4\n        /* \"Heliocontracts/contracts/ceros/CeVault.sol\":2593:2602  recipient */\n      dup4\n        /* \"Heliocontracts/contracts/ceros/CeVault.sol\":2573:2585  _claimYields */\n      tag_125\n        /* \"Heliocontracts/contracts/ceros/CeVault.sol\":2573:2603  _claimYields(owner, recipient) */\n      jump\t// in\n    tag_124:\n        /* \"@openzeppelin/contracts-upgradeable/security/ReentrancyGuardUpgradeable.sol\":1772:1773  1 */\n      0x01\n        /* \"@openzeppelin/contracts-upgradeable/security/ReentrancyGuardUpgradeable.sol\":2872:2879  _status */\n      0x97\n        /* \"@openzeppelin/contracts-upgradeable/security/ReentrancyGuardUpgradeable.sol\":2872:2894  _status = _NOT_ENTERED */\n      sstore\n        /* \"Heliocontracts/contracts/ceros/CeVault.sol\":2566:2603  return _claimYields(owner, recipient) */\n      swap4\n        /* \"Heliocontracts/contracts/ceros/CeVault.sol\":2414:2610  function claimYieldsFor(address owner, address recipient)... */\n      swap3\n      pop\n      pop\n      pop\n      jump\t// out\n        /* \"Heliocontracts/contracts/ceros/CeVault.sol\":6333:6419  function getName() external view returns (string memory) {... */\n    tag_39:\n        /* \"Heliocontracts/contracts/ceros/CeVault.sol\":6375:6388  string memory */\n      0x60\n        /* \"Heliocontracts/contracts/ceros/CeVault.sol\":6407:6412  _name */\n      0xc9\n        /* \"Heliocontracts/contracts/ceros/CeVault.sol\":6400:6412  return _name */\n      dup1\n      sload\n      tag_127\n      swap1\n      tag_128\n      jump\t// in\n    tag_127:\n      dup1\n      0x1f\n      add\n      0x20\n      dup1\n      swap2\n      div\n      mul\n      0x20\n      add\n      mload(0x40)\n      swap1\n      dup2\n      add\n      0x40\n      mstore\n      dup1\n      swap3\n      swap2\n      swap1\n      dup2\n      dup2\n      mstore\n      0x20\n      add\n      dup3\n      dup1\n      sload\n      tag_129\n      swap1\n      tag_128\n      jump\t// in\n    tag_129:\n      dup1\n      iszero\n      tag_130\n      jumpi\n      dup1\n      0x1f\n      lt\n      tag_131\n      jumpi\n      0x0100\n      dup1\n      dup4\n      sload\n      div\n      mul\n      dup4\n      mstore\n      swap2\n      0x20\n      add\n      swap2\n      jump(tag_130)\n    tag_131:\n      dup3\n      add\n      swap2\n      swap1\n      0x00\n      mstore\n      keccak256(0x00, 0x20)\n      swap1\n    tag_132:\n      dup2\n      sload\n      dup2\n      mstore\n      swap1\n      0x01\n      add\n      swap1\n      0x20\n      add\n      dup1\n      dup4\n      gt\n      tag_132\n      jumpi\n      dup3\n      swap1\n      sub\n      0x1f\n      and\n      dup3\n      add\n      swap2\n    tag_130:\n      pop\n      pop\n      pop\n      pop\n      pop\n      swap1\n      pop\n        /* \"Heliocontracts/contracts/ceros/CeVault.sol\":6333:6419  function getName() external view returns (string memory) {... */\n      swap1\n      jump\t// out\n        /* \"Heliocontracts/contracts/ceros/CeVault.sol\":5375:5812  function getYieldFor(address account)... */\n    tag_45:\n        /* \"Heliocontracts/contracts/ceros/CeVault.sol\":5504:5532  this.getPrincipalOf(account) */\n      mload(0x40)\n      shl(0xe0, 0xaba317a9)\n      dup2\n      mstore\n      sub(shl(0xa0, 0x01), 0x01)\n        /* \"#utility.yul\":178:210   */\n      dup3\n      and\n        /* \"Heliocontracts/contracts/ceros/CeVault.sol\":5504:5532  this.getPrincipalOf(account) */\n      0x04\n      dup3\n      add\n        /* \"#utility.yul\":160:211   */\n      mstore\n        /* \"Heliocontracts/contracts/ceros/CeVault.sol\":5461:5468  uint256 */\n      0x00\n      swap1\n      dup2\n      swap1\n        /* \"Heliocontracts/contracts/ceros/CeVault.sol\":5504:5508  this */\n      address\n      swap1\n        /* \"Heliocontracts/contracts/ceros/CeVault.sol\":5504:5523  this.getPrincipalOf */\n      0xaba317a9\n      swap1\n        /* \"#utility.yul\":133:151   */\n      0x24\n      add\n        /* \"Heliocontracts/contracts/ceros/CeVault.sol\":5504:5532  this.getPrincipalOf(account) */\n      0x20\n      mload(0x40)\n      dup1\n      dup4\n      sub\n      dup2\n      dup7\n      gas\n      staticcall\n      iszero\n      dup1\n      iszero\n      tag_136\n      jumpi\n      returndatasize\n      0x00\n      dup1\n      returndatacopy\n      revert(0x00, returndatasize)\n    tag_136:\n      pop\n      pop\n      pop\n      pop\n      mload(0x40)\n      returndatasize\n      not(0x1f)\n      0x1f\n      dup3\n      add\n      and\n      dup3\n      add\n      dup1\n      0x40\n      mstore\n      pop\n      dup2\n      add\n      swap1\n      tag_137\n      swap2\n      swap1\n      tag_138\n      jump\t// in\n    tag_137:\n      sub(shl(0xa0, 0x01), 0x01)\n        /* \"Heliocontracts/contracts/ceros/CeVault.sol\":5559:5579  _depositors[account] */\n      dup5\n      and\n      0x00\n      swap1\n      dup2\n      mstore\n        /* \"Heliocontracts/contracts/ceros/CeVault.sol\":5559:5570  _depositors */\n      0xce\n        /* \"Heliocontracts/contracts/ceros/CeVault.sol\":5559:5579  _depositors[account] */\n      0x20\n      mstore\n      0x40\n      swap1\n      keccak256\n      sload\n        /* \"Heliocontracts/contracts/ceros/CeVault.sol\":5484:5532  uint256 principal = this.getPrincipalOf(account) */\n      swap1\n      swap2\n      pop\n        /* \"Heliocontracts/contracts/ceros/CeVault.sol\":5546:5579  principal >= _depositors[account] */\n      dup2\n      lt\n        /* \"Heliocontracts/contracts/ceros/CeVault.sol\":5542:5614  if (principal >= _depositors[account]) {... */\n      tag_139\n      jumpi\n      pop\n        /* \"Heliocontracts/contracts/ceros/CeVault.sol\":5602:5603  0 */\n      0x00\n      swap3\n        /* \"Heliocontracts/contracts/ceros/CeVault.sol\":5375:5812  function getYieldFor(address account)... */\n      swap2\n      pop\n      pop\n      jump\t// out\n        /* \"Heliocontracts/contracts/ceros/CeVault.sol\":5542:5614  if (principal >= _depositors[account]) {... */\n    tag_139:\n      sub(shl(0xa0, 0x01), 0x01)\n        /* \"Heliocontracts/contracts/ceros/CeVault.sol\":5645:5665  _depositors[account] */\n      dup4\n      and\n        /* \"Heliocontracts/contracts/ceros/CeVault.sol\":5623:5642  uint256 totalYields */\n      0x00\n        /* \"Heliocontracts/contracts/ceros/CeVault.sol\":5645:5665  _depositors[account] */\n      swap1\n      dup2\n      mstore\n        /* \"Heliocontracts/contracts/ceros/CeVault.sol\":5645:5656  _depositors */\n      0xce\n        /* \"Heliocontracts/contracts/ceros/CeVault.sol\":5645:5665  _depositors[account] */\n      0x20\n      mstore\n      0x40\n      dup2\n      keccak256\n      sload\n        /* \"Heliocontracts/contracts/ceros/CeVault.sol\":5645:5677  _depositors[account] - principal */\n      tag_140\n      swap1\n        /* \"Heliocontracts/contracts/ceros/CeVault.sol\":5668:5677  principal */\n      dup4\n      swap1\n        /* \"Heliocontracts/contracts/ceros/CeVault.sol\":5645:5677  _depositors[account] - principal */\n      tag_141\n      jump\t// in\n    tag_140:\n      sub(shl(0xa0, 0x01), 0x01)\n        /* \"Heliocontracts/contracts/ceros/CeVault.sol\":5706:5723  _claimed[account] */\n      dup6\n      and\n      0x00\n      swap1\n      dup2\n      mstore\n        /* \"Heliocontracts/contracts/ceros/CeVault.sol\":5706:5714  _claimed */\n      0xcd\n        /* \"Heliocontracts/contracts/ceros/CeVault.sol\":5706:5723  _claimed[account] */\n      0x20\n      mstore\n      0x40\n      swap1\n      keccak256\n      sload\n        /* \"Heliocontracts/contracts/ceros/CeVault.sol\":5623:5677  uint256 totalYields = _depositors[account] - principal */\n      swap1\n      swap2\n      pop\n        /* \"Heliocontracts/contracts/ceros/CeVault.sol\":5691:5723  totalYields <= _claimed[account] */\n      dup2\n      gt\n        /* \"Heliocontracts/contracts/ceros/CeVault.sol\":5687:5758  if (totalYields <= _claimed[account]) {... */\n      tag_142\n      jumpi\n      pop\n        /* \"Heliocontracts/contracts/ceros/CeVault.sol\":5746:5747  0 */\n      0x00\n      swap4\n        /* \"Heliocontracts/contracts/ceros/CeVault.sol\":5375:5812  function getYieldFor(address account)... */\n      swap3\n      pop\n      pop\n      pop\n      jump\t// out\n        /* \"Heliocontracts/contracts/ceros/CeVault.sol\":5687:5758  if (totalYields <= _claimed[account]) {... */\n    tag_142:\n      sub(shl(0xa0, 0x01), 0x01)\n        /* \"Heliocontracts/contracts/ceros/CeVault.sol\":5788:5805  _claimed[account] */\n      dup5\n      and\n      0x00\n      swap1\n      dup2\n      mstore\n        /* \"Heliocontracts/contracts/ceros/CeVault.sol\":5788:5796  _claimed */\n      0xcd\n        /* \"Heliocontracts/contracts/ceros/CeVault.sol\":5788:5805  _claimed[account] */\n      0x20\n      mstore\n      0x40\n      swap1\n      keccak256\n      sload\n        /* \"Heliocontracts/contracts/ceros/CeVault.sol\":5774:5805  totalYields - _claimed[account] */\n      tag_143\n      swap1\n        /* \"Heliocontracts/contracts/ceros/CeVault.sol\":5774:5785  totalYields */\n      dup3\n        /* \"Heliocontracts/contracts/ceros/CeVault.sol\":5774:5805  totalYields - _claimed[account] */\n      tag_141\n      jump\t// in\n    tag_143:\n        /* \"Heliocontracts/contracts/ceros/CeVault.sol\":5767:5805  return totalYields - _claimed[account] */\n      swap5\n        /* \"Heliocontracts/contracts/ceros/CeVault.sol\":5375:5812  function getYieldFor(address account)... */\n      swap4\n      pop\n      pop\n      pop\n      pop\n      jump\t// out\n        /* \"Heliocontracts/contracts/ceros/CeVault.sol\":1677:1867  function depositFor(address recipient, uint256 amount)... */\n    tag_50:\n        /* \"Heliocontracts/contracts/ceros/CeVault.sol\":1803:1810  uint256 */\n      0x00\n        /* \"@openzeppelin/contracts-upgradeable/security/ReentrancyGuardUpgradeable.sol\":1815:1816  2 */\n      0x02\n        /* \"@openzeppelin/contracts-upgradeable/security/ReentrancyGuardUpgradeable.sol\":2569:2576  _status */\n      sload(0x97)\n        /* \"@openzeppelin/contracts-upgradeable/security/ReentrancyGuardUpgradeable.sol\":2569:2588  _status != _ENTERED */\n      eq\n      iszero\n        /* \"@openzeppelin/contracts-upgradeable/security/ReentrancyGuardUpgradeable.sol\":2561:2624  require(_status != _ENTERED, \"ReentrancyGuard: reentrant call\") */\n      tag_145\n      jumpi\n      mload(0x40)\n      shl(0xe5, 0x461bcd)\n      dup2\n      mstore\n      0x04\n      add\n      tag_117\n      swap1\n      tag_122\n      jump\t// in\n    tag_145:\n        /* \"@openzeppelin/contracts-upgradeable/security/ReentrancyGuardUpgradeable.sol\":1815:1816  2 */\n      0x02\n        /* \"@openzeppelin/contracts-upgradeable/security/ReentrancyGuardUpgradeable.sol\":2699:2706  _status */\n      0x97\n        /* \"@openzeppelin/contracts-upgradeable/security/ReentrancyGuardUpgradeable.sol\":2699:2717  _status = _ENTERED */\n      sstore\n        /* \"Heliocontracts/contracts/ceros/CeVault.sol\":1086:1093  _router */\n      and(sub(shl(0xa0, 0x01), 0x01), sload(0xcc))\n        /* \"Heliocontracts/contracts/ceros/CeVault.sol\":1072:1082  msg.sender */\n      caller\n        /* \"Heliocontracts/contracts/ceros/CeVault.sol\":1072:1093  msg.sender == _router */\n      eq\n        /* \"Heliocontracts/contracts/ceros/CeVault.sol\":1064:1117  require(msg.sender == _router, \"Router: not allowed\") */\n      tag_148\n      jumpi\n      mload(0x40)\n      shl(0xe5, 0x461bcd)\n      dup2\n      mstore\n      0x04\n      add\n      tag_117\n      swap1\n      tag_118\n      jump\t// in\n    tag_148:\n        /* \"Heliocontracts/contracts/ceros/CeVault.sol\":1833:1860  _deposit(recipient, amount) */\n      tag_124\n        /* \"Heliocontracts/contracts/ceros/CeVault.sol\":1842:1851  recipient */\n      dup4\n        /* \"Heliocontracts/contracts/ceros/CeVault.sol\":1853:1859  amount */\n      dup4\n        /* \"Heliocontracts/contracts/ceros/CeVault.sol\":1833:1841  _deposit */\n      tag_152\n        /* \"Heliocontracts/contracts/ceros/CeVault.sol\":1833:1860  _deposit(recipient, amount) */\n      jump\t// in\n        /* \"Heliocontracts/contracts/ceros/CeVault.sol\":6202:6328  function changeRouter(address router) external onlyOwner {... */\n    tag_54:\n        /* \"@openzeppelin/contracts-upgradeable/access/OwnableUpgradeable.sol\":1334:1347  _checkOwner() */\n      tag_154\n        /* \"@openzeppelin/contracts-upgradeable/access/OwnableUpgradeable.sol\":1334:1345  _checkOwner */\n      tag_155\n        /* \"@openzeppelin/contracts-upgradeable/access/OwnableUpgradeable.sol\":1334:1347  _checkOwner() */\n      jump\t// in\n    tag_154:\n        /* \"Heliocontracts/contracts/ceros/CeVault.sol\":6269:6276  _router */\n      0xcc\n        /* \"Heliocontracts/contracts/ceros/CeVault.sol\":6269:6285  _router = router */\n      dup1\n      sload\n      not(sub(shl(0xa0, 0x01), 0x01))\n      and\n      sub(shl(0xa0, 0x01), 0x01)\n      dup4\n      and\n      swap1\n      dup2\n      or\n      swap1\n      swap2\n      sstore\n        /* \"Heliocontracts/contracts/ceros/CeVault.sol\":6300:6321  RouterChanged(router) */\n      mload(0x40)\n        /* \"#utility.yul\":160:211   */\n      swap1\n      dup2\n      mstore\n        /* \"Heliocontracts/contracts/ceros/CeVault.sol\":6300:6321  RouterChanged(router) */\n      0x1085cec9a5108943412475d298086ae4d0abf09cfad47b05436b89fe887a820c\n      swap1\n        /* \"#utility.yul\":148:150   */\n      0x20\n        /* \"#utility.yul\":133:151   */\n      add\n        /* \"Heliocontracts/contracts/ceros/CeVault.sol\":6300:6321  RouterChanged(router) */\n      mload(0x40)\n      dup1\n      swap2\n      sub\n      swap1\n      log1\n        /* \"Heliocontracts/contracts/ceros/CeVault.sol\":6202:6328  function changeRouter(address router) external onlyOwner {... */\n      pop\n      jump\t// out\n        /* \"Heliocontracts/contracts/ceros/CeVault.sol\":1140:1483  function initialize(... */\n    tag_62:\n        /* \"@openzeppelin/contracts-upgradeable/proxy/utils/Initializable.sol\":3111:3130  bool isTopLevelCall */\n      0x00\n        /* \"@openzeppelin/contracts-upgradeable/proxy/utils/Initializable.sol\":3134:3147  _initializing */\n      sload\n      0x0100\n      swap1\n      div\n      0xff\n      and\n        /* \"@openzeppelin/contracts-upgradeable/proxy/utils/Initializable.sol\":3133:3147  !_initializing */\n      iszero\n      dup1\n        /* \"@openzeppelin/contracts-upgradeable/proxy/utils/Initializable.sol\":3179:3213  isTopLevelCall && _initialized < 1 */\n      dup1\n      iszero\n      tag_160\n      jumpi\n      pop\n        /* \"@openzeppelin/contracts-upgradeable/proxy/utils/Initializable.sol\":3197:3209  _initialized */\n      sload(0x00)\n        /* \"@openzeppelin/contracts-upgradeable/proxy/utils/Initializable.sol\":3212:3213  1 */\n      0x01\n        /* \"@openzeppelin/contracts-upgradeable/proxy/utils/Initializable.sol\":3197:3209  _initialized */\n      0xff\n      swap1\n      swap2\n      and\n        /* \"@openzeppelin/contracts-upgradeable/proxy/utils/Initializable.sol\":3197:3213  _initialized < 1 */\n      lt\n        /* \"@openzeppelin/contracts-upgradeable/proxy/utils/Initializable.sol\":3179:3213  isTopLevelCall && _initialized < 1 */\n    tag_160:\n        /* \"@openzeppelin/contracts-upgradeable/proxy/utils/Initializable.sol\":3178:3286  (isTopLevelCall && _initialized < 1) || (!AddressUpgradeable.isContract(address(this)) && _initialized == 1) */\n      dup1\n      tag_164\n      jumpi\n      pop\n        /* \"@openzeppelin/contracts-upgradeable/proxy/utils/Initializable.sol\":3258:3262  this */\n      address\n        /* \"@openzeppelin/contracts-upgradeable/utils/AddressUpgradeable.sol\":1476:1495  account.code.length */\n      extcodesize\n        /* \"@openzeppelin/contracts-upgradeable/utils/AddressUpgradeable.sol\":1476:1499  account.code.length > 0 */\n      iszero\n      dup1\n      iszero\n        /* \"@openzeppelin/contracts-upgradeable/proxy/utils/Initializable.sol\":3219:3285  !AddressUpgradeable.isContract(address(this)) && _initialized == 1 */\n      tag_164\n      jumpi\n      pop\n        /* \"@openzeppelin/contracts-upgradeable/proxy/utils/Initializable.sol\":3268:3280  _initialized */\n      and(0xff, sload(0x00))\n      0x01\n        /* \"@openzeppelin/contracts-upgradeable/proxy/utils/Initializable.sol\":3268:3285  _initialized == 1 */\n      eq\n        /* \"@openzeppelin/contracts-upgradeable/proxy/utils/Initializable.sol\":3219:3285  !AddressUpgradeable.isContract(address(this)) && _initialized == 1 */\n    tag_164:\n        /* \"@openzeppelin/contracts-upgradeable/proxy/utils/Initializable.sol\":3157:3358  require(... */\n      tag_165\n      jumpi\n      mload(0x40)\n      shl(0xe5, 0x461bcd)\n      dup2\n      mstore\n        /* \"#utility.yul\":5621:5623   */\n      0x20\n        /* \"@openzeppelin/contracts-upgradeable/proxy/utils/Initializable.sol\":3157:3358  require(... */\n      0x04\n      dup3\n      add\n        /* \"#utility.yul\":5603:5624   */\n      mstore\n        /* \"#utility.yul\":5660:5662   */\n      0x2e\n        /* \"#utility.yul\":5640:5658   */\n      0x24\n      dup3\n      add\n        /* \"#utility.yul\":5633:5663   */\n      mstore\n        /* \"#utility.yul\":5699:5733   */\n      0x496e697469616c697a61626c653a20636f6e747261637420697320616c726561\n        /* \"#utility.yul\":5679:5697   */\n      0x44\n      dup3\n      add\n        /* \"#utility.yul\":5672:5734   */\n      mstore\n      shl(0x92, 0x191e481a5b9a5d1a585b1a5e9959)\n        /* \"#utility.yul\":5750:5768   */\n      0x64\n      dup3\n      add\n        /* \"#utility.yul\":5743:5787   */\n      mstore\n        /* \"#utility.yul\":5804:5823   */\n      0x84\n      add\n        /* \"@openzeppelin/contracts-upgradeable/proxy/utils/Initializable.sol\":3157:3358  require(... */\n      tag_117\n        /* \"#utility.yul\":5419:5829   */\n      jump\n        /* \"@openzeppelin/contracts-upgradeable/proxy/utils/Initializable.sol\":3157:3358  require(... */\n    tag_165:\n        /* \"@openzeppelin/contracts-upgradeable/proxy/utils/Initializable.sol\":3368:3380  _initialized */\n      0x00\n        /* \"@openzeppelin/contracts-upgradeable/proxy/utils/Initializable.sol\":3368:3384  _initialized = 1 */\n      dup1\n      sload\n      not(0xff)\n      and\n        /* \"@openzeppelin/contracts-upgradeable/proxy/utils/Initializable.sol\":3383:3384  1 */\n      0x01\n        /* \"@openzeppelin/contracts-upgradeable/proxy/utils/Initializable.sol\":3368:3384  _initialized = 1 */\n      or\n      swap1\n      sstore\n        /* \"@openzeppelin/contracts-upgradeable/proxy/utils/Initializable.sol\":3394:3459  if (isTopLevelCall) {... */\n      dup1\n      iszero\n      tag_168\n      jumpi\n        /* \"@openzeppelin/contracts-upgradeable/proxy/utils/Initializable.sol\":3428:3441  _initializing */\n      0x00\n        /* \"@openzeppelin/contracts-upgradeable/proxy/utils/Initializable.sol\":3428:3448  _initializing = true */\n      dup1\n      sload\n      not(0xff00)\n      and\n      0x0100\n      or\n      swap1\n      sstore\n        /* \"@openzeppelin/contracts-upgradeable/proxy/utils/Initializable.sol\":3394:3459  if (isTopLevelCall) {... */\n    tag_168:\n        /* \"Heliocontracts/contracts/ceros/CeVault.sol\":1287:1303  __Ownable_init() */\n      tag_170\n        /* \"Heliocontracts/contracts/ceros/CeVault.sol\":1287:1301  __Ownable_init */\n      tag_171\n        /* \"Heliocontracts/contracts/ceros/CeVault.sol\":1287:1303  __Ownable_init() */\n      jump\t// in\n    tag_170:\n        /* \"Heliocontracts/contracts/ceros/CeVault.sol\":1313:1330  __Pausable_init() */\n      tag_172\n        /* \"Heliocontracts/contracts/ceros/CeVault.sol\":1313:1328  __Pausable_init */\n      tag_173\n        /* \"Heliocontracts/contracts/ceros/CeVault.sol\":1313:1330  __Pausable_init() */\n      jump\t// in\n    tag_172:\n        /* \"Heliocontracts/contracts/ceros/CeVault.sol\":1340:1364  __ReentrancyGuard_init() */\n      tag_174\n        /* \"Heliocontracts/contracts/ceros/CeVault.sol\":1340:1362  __ReentrancyGuard_init */\n      tag_175\n        /* \"Heliocontracts/contracts/ceros/CeVault.sol\":1340:1364  __ReentrancyGuard_init() */\n      jump\t// in\n    tag_174:\n        /* \"Heliocontracts/contracts/ceros/CeVault.sol\":1374:1386  _name = name */\n      dup4\n      mload\n      tag_176\n      swap1\n        /* \"Heliocontracts/contracts/ceros/CeVault.sol\":1374:1379  _name */\n      0xc9\n      swap1\n        /* \"Heliocontracts/contracts/ceros/CeVault.sol\":1374:1386  _name = name */\n      0x20\n      dup8\n      add\n      swap1\n      tag_177\n      jump\t// in\n    tag_176:\n      pop\n        /* \"Heliocontracts/contracts/ceros/CeVault.sol\":1396:1404  _ceToken */\n      0xca\n        /* \"Heliocontracts/contracts/ceros/CeVault.sol\":1396:1433  _ceToken = ICertToken(ceTokenAddress) */\n      dup1\n      sload\n      sub(shl(0xa0, 0x01), 0x01)\n      dup1\n      dup7\n      and\n      not(sub(shl(0xa0, 0x01), 0x01))\n      swap3\n      dup4\n      and\n      or\n      swap1\n      swap3\n      sstore\n        /* \"Heliocontracts/contracts/ceros/CeVault.sol\":1443:1449  _aBNBc */\n      0xcb\n        /* \"Heliocontracts/contracts/ceros/CeVault.sol\":1443:1476  _aBNBc = ICertToken(aBNBcAddress) */\n      dup1\n      sload\n      swap3\n      dup6\n      and\n      swap3\n      swap1\n      swap2\n      and\n      swap2\n      swap1\n      swap2\n      or\n      swap1\n      sstore\n        /* \"@openzeppelin/contracts-upgradeable/proxy/utils/Initializable.sol\":3479:3578  if (isTopLevelCall) {... */\n      dup1\n      iszero\n      tag_178\n      jumpi\n        /* \"@openzeppelin/contracts-upgradeable/proxy/utils/Initializable.sol\":3529:3534  false */\n      0x00\n        /* \"@openzeppelin/contracts-upgradeable/proxy/utils/Initializable.sol\":3513:3534  _initializing = false */\n      dup1\n      sload\n      not(0xff00)\n      and\n      swap1\n      sstore\n        /* \"@openzeppelin/contracts-upgradeable/proxy/utils/Initializable.sol\":3553:3567  Initialized(1) */\n      mload(0x40)\n      0x01\n        /* \"#utility.yul\":5986:6022   */\n      dup2\n      mstore\n        /* \"@openzeppelin/contracts-upgradeable/proxy/utils/Initializable.sol\":3553:3567  Initialized(1) */\n      0x7f26b83ff96e1f2b6a682f133852f6798a09c465da95921460cefb3847402498\n      swap1\n        /* \"#utility.yul\":5974:5976   */\n      0x20\n        /* \"#utility.yul\":5959:5977   */\n      add\n        /* \"@openzeppelin/contracts-upgradeable/proxy/utils/Initializable.sol\":3553:3567  Initialized(1) */\n      mload(0x40)\n      dup1\n      swap2\n      sub\n      swap1\n      log1\n        /* \"@openzeppelin/contracts-upgradeable/proxy/utils/Initializable.sol\":3479:3578  if (isTopLevelCall) {... */\n    tag_178:\n        /* \"@openzeppelin/contracts-upgradeable/proxy/utils/Initializable.sol\":3101:3584  {... */\n      pop\n        /* \"Heliocontracts/contracts/ceros/CeVault.sol\":1140:1483  function initialize(... */\n      pop\n      pop\n      pop\n      jump\t// out\n        /* \"@openzeppelin/contracts-upgradeable/access/OwnableUpgradeable.sol\":2071:2172  function renounceOwnership() public virtual onlyOwner {... */\n    tag_72:\n        /* \"@openzeppelin/contracts-upgradeable/access/OwnableUpgradeable.sol\":1334:1347  _checkOwner() */\n      tag_184\n        /* \"@openzeppelin/contracts-upgradeable/access/OwnableUpgradeable.sol\":1334:1345  _checkOwner */\n      tag_155\n        /* \"@openzeppelin/contracts-upgradeable/access/OwnableUpgradeable.sol\":1334:1347  _checkOwner() */\n      jump\t// in\n    tag_184:\n        /* \"@openzeppelin/contracts-upgradeable/access/OwnableUpgradeable.sol\":2135:2165  _transferOwnership(address(0)) */\n      tag_186\n        /* \"@openzeppelin/contracts-upgradeable/access/OwnableUpgradeable.sol\":2162:2163  0 */\n      0x00\n        /* \"@openzeppelin/contracts-upgradeable/access/OwnableUpgradeable.sol\":2135:2153  _transferOwnership */\n      tag_187\n        /* \"@openzeppelin/contracts-upgradeable/access/OwnableUpgradeable.sol\":2135:2165  _transferOwnership(address(0)) */\n      jump\t// in\n    tag_186:\n        /* \"@openzeppelin/contracts-upgradeable/access/OwnableUpgradeable.sol\":2071:2172  function renounceOwnership() public virtual onlyOwner {... */\n      jump\t// out\n        /* \"Heliocontracts/contracts/ceros/CeVault.sol\":3504:3724  function withdrawFor(... */\n    tag_79:\n        /* \"Heliocontracts/contracts/ceros/CeVault.sol\":3656:3663  uint256 */\n      0x00\n        /* \"@openzeppelin/contracts-upgradeable/security/ReentrancyGuardUpgradeable.sol\":1815:1816  2 */\n      0x02\n        /* \"@openzeppelin/contracts-upgradeable/security/ReentrancyGuardUpgradeable.sol\":2569:2576  _status */\n      sload(0x97)\n        /* \"@openzeppelin/contracts-upgradeable/security/ReentrancyGuardUpgradeable.sol\":2569:2588  _status != _ENTERED */\n      eq\n      iszero\n        /* \"@openzeppelin/contracts-upgradeable/security/ReentrancyGuardUpgradeable.sol\":2561:2624  require(_status != _ENTERED, \"ReentrancyGuard: reentrant call\") */\n      tag_190\n      jumpi\n      mload(0x40)\n      shl(0xe5, 0x461bcd)\n      dup2\n      mstore\n      0x04\n      add\n      tag_117\n      swap1\n      tag_122\n      jump\t// in\n    tag_190:\n        /* \"@openzeppelin/contracts-upgradeable/security/ReentrancyGuardUpgradeable.sol\":1815:1816  2 */\n      0x02\n        /* \"@openzeppelin/contracts-upgradeable/security/ReentrancyGuardUpgradeable.sol\":2699:2706  _status */\n      0x97\n        /* \"@openzeppelin/contracts-upgradeable/security/ReentrancyGuardUpgradeable.sol\":2699:2717  _status = _ENTERED */\n      sstore\n        /* \"Heliocontracts/contracts/ceros/CeVault.sol\":1086:1093  _router */\n      and(sub(shl(0xa0, 0x01), 0x01), sload(0xcc))\n        /* \"Heliocontracts/contracts/ceros/CeVault.sol\":1072:1082  msg.sender */\n      caller\n        /* \"Heliocontracts/contracts/ceros/CeVault.sol\":1072:1093  msg.sender == _router */\n      eq\n        /* \"Heliocontracts/contracts/ceros/CeVault.sol\":1064:1117  require(msg.sender == _router, \"Router: not allowed\") */\n      tag_193\n      jumpi\n      mload(0x40)\n      shl(0xe5, 0x461bcd)\n      dup2\n      mstore\n      0x04\n      add\n      tag_117\n      swap1\n      tag_118\n      jump\t// in\n    tag_193:\n        /* \"Heliocontracts/contracts/ceros/CeVault.sol\":3682:3717  _withdraw(owner, recipient, amount) */\n      tag_196\n        /* \"Heliocontracts/contracts/ceros/CeVault.sol\":3692:3697  owner */\n      dup5\n        /* \"Heliocontracts/contracts/ceros/CeVault.sol\":3699:3708  recipient */\n      dup5\n        /* \"Heliocontracts/contracts/ceros/CeVault.sol\":3710:3716  amount */\n      dup5\n        /* \"Heliocontracts/contracts/ceros/CeVault.sol\":3682:3691  _withdraw */\n      tag_197\n        /* \"Heliocontracts/contracts/ceros/CeVault.sol\":3682:3717  _withdraw(owner, recipient, amount) */\n      jump\t// in\n    tag_196:\n        /* \"@openzeppelin/contracts-upgradeable/security/ReentrancyGuardUpgradeable.sol\":1772:1773  1 */\n      0x01\n        /* \"@openzeppelin/contracts-upgradeable/security/ReentrancyGuardUpgradeable.sol\":2872:2879  _status */\n      0x97\n        /* \"@openzeppelin/contracts-upgradeable/security/ReentrancyGuardUpgradeable.sol\":2872:2894  _status = _NOT_ENTERED */\n      sstore\n        /* \"Heliocontracts/contracts/ceros/CeVault.sol\":3675:3717  return _withdraw(owner, recipient, amount) */\n      swap5\n        /* \"Heliocontracts/contracts/ceros/CeVault.sol\":3504:3724  function withdrawFor(... */\n      swap4\n      pop\n      pop\n      pop\n      pop\n      jump\t// out\n        /* \"Heliocontracts/contracts/ceros/CeVault.sol\":4935:5155  function getPrincipalOf(address account)... */\n    tag_83:\n        /* \"Heliocontracts/contracts/ceros/CeVault.sol\":5024:5031  uint256 */\n      0x00\n        /* \"Heliocontracts/contracts/ceros/CeVault.sol\":5047:5060  uint256 ratio */\n      dup1\n        /* \"Heliocontracts/contracts/ceros/CeVault.sol\":5063:5069  _aBNBc */\n      0xcb\n      0x00\n      swap1\n      sload\n      swap1\n      0x0100\n      exp\n      swap1\n      div\n      sub(shl(0xa0, 0x01), 0x01)\n      and\n      sub(shl(0xa0, 0x01), 0x01)\n        /* \"Heliocontracts/contracts/ceros/CeVault.sol\":5063:5075  _aBNBc.ratio */\n      and\n      0x71ca337d\n        /* \"Heliocontracts/contracts/ceros/CeVault.sol\":5063:5077  _aBNBc.ratio() */\n      mload(0x40)\n      dup2\n      0xffffffff\n      and\n      0xe0\n      shl\n      dup2\n      mstore\n      0x04\n      add\n      0x20\n      mload(0x40)\n      dup1\n      dup4\n      sub\n      dup2\n      dup7\n      gas\n      staticcall\n      iszero\n      dup1\n      iszero\n      tag_200\n      jumpi\n      returndatasize\n      0x00\n      dup1\n      returndatacopy\n      revert(0x00, returndatasize)\n    tag_200:\n      pop\n      pop\n      pop\n      pop\n      mload(0x40)\n      returndatasize\n      not(0x1f)\n      0x1f\n      dup3\n      add\n      and\n      dup3\n      add\n      dup1\n      0x40\n      mstore\n      pop\n      dup2\n      add\n      swap1\n      tag_201\n      swap2\n      swap1\n      tag_138\n      jump\t// in\n    tag_201:\n      sub(shl(0xa0, 0x01), 0x01)\n        /* \"Heliocontracts/contracts/ceros/CeVault.sol\":5095:5120  _ceTokenBalances[account] */\n      dup5\n      and\n      0x00\n      swap1\n      dup2\n      mstore\n        /* \"Heliocontracts/contracts/ceros/CeVault.sol\":5095:5111  _ceTokenBalances */\n      0xcf\n        /* \"Heliocontracts/contracts/ceros/CeVault.sol\":5095:5120  _ceTokenBalances[account] */\n      0x20\n      mstore\n      0x40\n      swap1\n      keccak256\n      sload\n        /* \"Heliocontracts/contracts/ceros/CeVault.sol\":5047:5077  uint256 ratio = _aBNBc.ratio() */\n      swap1\n      swap2\n      pop\n        /* \"Heliocontracts/contracts/ceros/CeVault.sol\":5132:5136  1e18 */\n      0x0de0b6b3a7640000\n      swap1\n        /* \"Heliocontracts/contracts/ceros/CeVault.sol\":5095:5128  _ceTokenBalances[account] * ratio */\n      tag_202\n      swap1\n        /* \"Heliocontracts/contracts/ceros/CeVault.sol\":5047:5077  uint256 ratio = _aBNBc.ratio() */\n      dup4\n      swap1\n        /* \"Heliocontracts/contracts/ceros/CeVault.sol\":5095:5128  _ceTokenBalances[account] * ratio */\n      tag_203\n      jump\t// in\n    tag_202:\n        /* \"Heliocontracts/contracts/ceros/CeVault.sol\":5094:5136  (_ceTokenBalances[account] * ratio) / 1e18 */\n      tag_204\n      swap2\n      swap1\n      tag_205\n      jump\t// in\n    tag_204:\n        /* \"Heliocontracts/contracts/ceros/CeVault.sol\":5087:5136  return (_ceTokenBalances[account] * ratio) / 1e18 */\n      swap4\n        /* \"Heliocontracts/contracts/ceros/CeVault.sol\":4935:5155  function getPrincipalOf(address account)... */\n      swap3\n      pop\n      pop\n      pop\n      jump\t// out\n        /* \"Heliocontracts/contracts/ceros/CeVault.sol\":2634:2802  function claimYields(address recipient)... */\n    tag_90:\n        /* \"Heliocontracts/contracts/ceros/CeVault.sol\":2730:2737  uint256 */\n      0x00\n        /* \"@openzeppelin/contracts-upgradeable/security/ReentrancyGuardUpgradeable.sol\":1815:1816  2 */\n      0x02\n        /* \"@openzeppelin/contracts-upgradeable/security/ReentrancyGuardUpgradeable.sol\":2569:2576  _status */\n      sload(0x97)\n        /* \"@openzeppelin/contracts-upgradeable/security/ReentrancyGuardUpgradeable.sol\":2569:2588  _status != _ENTERED */\n      eq\n      iszero\n        /* \"@openzeppelin/contracts-upgradeable/security/ReentrancyGuardUpgradeable.sol\":2561:2624  require(_status != _ENTERED, \"ReentrancyGuard: reentrant call\") */\n      tag_208\n      jumpi\n      mload(0x40)\n      shl(0xe5, 0x461bcd)\n      dup2\n      mstore\n      0x04\n      add\n      tag_117\n      swap1\n      tag_122\n      jump\t// in\n    tag_208:\n        /* \"@openzeppelin/contracts-upgradeable/security/ReentrancyGuardUpgradeable.sol\":1815:1816  2 */\n      0x02\n        /* \"@openzeppelin/contracts-upgradeable/security/ReentrancyGuardUpgradeable.sol\":2699:2706  _status */\n      0x97\n        /* \"@openzeppelin/contracts-upgradeable/security/ReentrancyGuardUpgradeable.sol\":2699:2717  _status = _ENTERED */\n      sstore\n        /* \"Heliocontracts/contracts/ceros/CeVault.sol\":2760:2795  _claimYields(msg.sender, recipient) */\n      tag_211\n        /* \"Heliocontracts/contracts/ceros/CeVault.sol\":2773:2783  msg.sender */\n      caller\n        /* \"Heliocontracts/contracts/ceros/CeVault.sol\":2785:2794  recipient */\n      dup4\n        /* \"Heliocontracts/contracts/ceros/CeVault.sol\":2760:2772  _claimYields */\n      tag_125\n        /* \"Heliocontracts/contracts/ceros/CeVault.sol\":2760:2795  _claimYields(msg.sender, recipient) */\n      jump\t// in\n    tag_211:\n        /* \"@openzeppelin/contracts-upgradeable/security/ReentrancyGuardUpgradeable.sol\":1772:1773  1 */\n      0x01\n        /* \"@openzeppelin/contracts-upgradeable/security/ReentrancyGuardUpgradeable.sol\":2872:2879  _status */\n      0x97\n        /* \"@openzeppelin/contracts-upgradeable/security/ReentrancyGuardUpgradeable.sol\":2872:2894  _status = _NOT_ENTERED */\n      sstore\n        /* \"Heliocontracts/contracts/ceros/CeVault.sol\":2753:2795  return _claimYields(msg.sender, recipient) */\n      swap3\n        /* \"Heliocontracts/contracts/ceros/CeVault.sol\":2634:2802  function claimYields(address recipient)... */\n      swap2\n      pop\n      pop\n      jump\t// out\n        /* \"Heliocontracts/contracts/ceros/CeVault.sol\":1503:1657  function deposit(uint256 amount)... */\n    tag_98:\n        /* \"Heliocontracts/contracts/ceros/CeVault.sol\":1592:1599  uint256 */\n      0x00\n        /* \"@openzeppelin/contracts-upgradeable/security/ReentrancyGuardUpgradeable.sol\":1815:1816  2 */\n      0x02\n        /* \"@openzeppelin/contracts-upgradeable/security/ReentrancyGuardUpgradeable.sol\":2569:2576  _status */\n      sload(0x97)\n        /* \"@openzeppelin/contracts-upgradeable/security/ReentrancyGuardUpgradeable.sol\":2569:2588  _status != _ENTERED */\n      eq\n      iszero\n        /* \"@openzeppelin/contracts-upgradeable/security/ReentrancyGuardUpgradeable.sol\":2561:2624  require(_status != _ENTERED, \"ReentrancyGuard: reentrant call\") */\n      tag_214\n      jumpi\n      mload(0x40)\n      shl(0xe5, 0x461bcd)\n      dup2\n      mstore\n      0x04\n      add\n      tag_117\n      swap1\n      tag_122\n      jump\t// in\n    tag_214:\n        /* \"@openzeppelin/contracts-upgradeable/security/ReentrancyGuardUpgradeable.sol\":1815:1816  2 */\n      0x02\n        /* \"@openzeppelin/contracts-upgradeable/security/ReentrancyGuardUpgradeable.sol\":2699:2706  _status */\n      0x97\n        /* \"@openzeppelin/contracts-upgradeable/security/ReentrancyGuardUpgradeable.sol\":2699:2717  _status = _ENTERED */\n      sstore\n        /* \"Heliocontracts/contracts/ceros/CeVault.sol\":1622:1650  _deposit(msg.sender, amount) */\n      tag_211\n        /* \"Heliocontracts/contracts/ceros/CeVault.sol\":1631:1641  msg.sender */\n      caller\n        /* \"Heliocontracts/contracts/ceros/CeVault.sol\":1643:1649  amount */\n      dup4\n        /* \"Heliocontracts/contracts/ceros/CeVault.sol\":1622:1630  _deposit */\n      tag_152\n        /* \"Heliocontracts/contracts/ceros/CeVault.sol\":1622:1650  _deposit(msg.sender, amount) */\n      jump\t// in\n        /* \"@openzeppelin/contracts-upgradeable/access/OwnableUpgradeable.sol\":2321:2519  function transferOwnership(address newOwner) public virtual onlyOwner {... */\n    tag_106:\n        /* \"@openzeppelin/contracts-upgradeable/access/OwnableUpgradeable.sol\":1334:1347  _checkOwner() */\n      tag_220\n        /* \"@openzeppelin/contracts-upgradeable/access/OwnableUpgradeable.sol\":1334:1345  _checkOwner */\n      tag_155\n        /* \"@openzeppelin/contracts-upgradeable/access/OwnableUpgradeable.sol\":1334:1347  _checkOwner() */\n      jump\t// in\n    tag_220:\n      sub(shl(0xa0, 0x01), 0x01)\n        /* \"@openzeppelin/contracts-upgradeable/access/OwnableUpgradeable.sol\":2409:2431  newOwner != address(0) */\n      dup2\n      and\n        /* \"@openzeppelin/contracts-upgradeable/access/OwnableUpgradeable.sol\":2401:2474  require(newOwner != address(0), \"Ownable: new owner is the zero address\") */\n      tag_222\n      jumpi\n      mload(0x40)\n      shl(0xe5, 0x461bcd)\n      dup2\n      mstore\n        /* \"#utility.yul\":6630:6632   */\n      0x20\n        /* \"@openzeppelin/contracts-upgradeable/access/OwnableUpgradeable.sol\":2401:2474  require(newOwner != address(0), \"Ownable: new owner is the zero address\") */\n      0x04\n      dup3\n      add\n        /* \"#utility.yul\":6612:6633   */\n      mstore\n        /* \"#utility.yul\":6669:6671   */\n      0x26\n        /* \"#utility.yul\":6649:6667   */\n      0x24\n      dup3\n      add\n        /* \"#utility.yul\":6642:6672   */\n      mstore\n        /* \"#utility.yul\":6708:6742   */\n      0x4f776e61626c653a206e6577206f776e657220697320746865207a65726f2061\n        /* \"#utility.yul\":6688:6706   */\n      0x44\n      dup3\n      add\n        /* \"#utility.yul\":6681:6743   */\n      mstore\n      shl(0xd0, 0x646472657373)\n        /* \"#utility.yul\":6759:6777   */\n      0x64\n      dup3\n      add\n        /* \"#utility.yul\":6752:6788   */\n      mstore\n        /* \"#utility.yul\":6805:6824   */\n      0x84\n      add\n        /* \"@openzeppelin/contracts-upgradeable/access/OwnableUpgradeable.sol\":2401:2474  require(newOwner != address(0), \"Ownable: new owner is the zero address\") */\n      tag_117\n        /* \"#utility.yul\":6428:6830   */\n      jump\n        /* \"@openzeppelin/contracts-upgradeable/access/OwnableUpgradeable.sol\":2401:2474  require(newOwner != address(0), \"Ownable: new owner is the zero address\") */\n    tag_222:\n        /* \"@openzeppelin/contracts-upgradeable/access/OwnableUpgradeable.sol\":2484:2512  _transferOwnership(newOwner) */\n      tag_225\n        /* \"@openzeppelin/contracts-upgradeable/access/OwnableUpgradeable.sol\":2503:2511  newOwner */\n      dup2\n        /* \"@openzeppelin/contracts-upgradeable/access/OwnableUpgradeable.sol\":2484:2502  _transferOwnership */\n      tag_187\n        /* \"@openzeppelin/contracts-upgradeable/access/OwnableUpgradeable.sol\":2484:2512  _transferOwnership(newOwner) */\n      jump\t// in\n    tag_225:\n        /* \"@openzeppelin/contracts-upgradeable/access/OwnableUpgradeable.sol\":2321:2519  function transferOwnership(address newOwner) public virtual onlyOwner {... */\n      pop\n      jump\t// out\n        /* \"Heliocontracts/contracts/ceros/CeVault.sol\":3297:3483  function withdraw(address recipient, uint256 amount)... */\n    tag_109:\n        /* \"Heliocontracts/contracts/ceros/CeVault.sol\":3406:3413  uint256 */\n      0x00\n        /* \"@openzeppelin/contracts-upgradeable/security/ReentrancyGuardUpgradeable.sol\":1815:1816  2 */\n      0x02\n        /* \"@openzeppelin/contracts-upgradeable/security/ReentrancyGuardUpgradeable.sol\":2569:2576  _status */\n      sload(0x97)\n        /* \"@openzeppelin/contracts-upgradeable/security/ReentrancyGuardUpgradeable.sol\":2569:2588  _status != _ENTERED */\n      eq\n      iszero\n        /* \"@openzeppelin/contracts-upgradeable/security/ReentrancyGuardUpgradeable.sol\":2561:2624  require(_status != _ENTERED, \"ReentrancyGuard: reentrant call\") */\n      tag_227\n      jumpi\n      mload(0x40)\n      shl(0xe5, 0x461bcd)\n      dup2\n      mstore\n      0x04\n      add\n      tag_117\n      swap1\n      tag_122\n      jump\t// in\n    tag_227:\n        /* \"@openzeppelin/contracts-upgradeable/security/ReentrancyGuardUpgradeable.sol\":1815:1816  2 */\n      0x02\n        /* \"@openzeppelin/contracts-upgradeable/security/ReentrancyGuardUpgradeable.sol\":2699:2706  _status */\n      0x97\n        /* \"@openzeppelin/contracts-upgradeable/security/ReentrancyGuardUpgradeable.sol\":2699:2717  _status = _ENTERED */\n      sstore\n        /* \"Heliocontracts/contracts/ceros/CeVault.sol\":3436:3476  _withdraw(msg.sender, recipient, amount) */\n      tag_124\n        /* \"Heliocontracts/contracts/ceros/CeVault.sol\":3446:3456  msg.sender */\n      caller\n        /* \"Heliocontracts/contracts/ceros/CeVault.sol\":3458:3467  recipient */\n      dup5\n        /* \"Heliocontracts/contracts/ceros/CeVault.sol\":3469:3475  amount */\n      dup5\n        /* \"Heliocontracts/contracts/ceros/CeVault.sol\":3436:3445  _withdraw */\n      tag_197\n        /* \"Heliocontracts/contracts/ceros/CeVault.sol\":3436:3476  _withdraw(msg.sender, recipient, amount) */\n      jump\t// in\n        /* \"Heliocontracts/contracts/ceros/CeVault.sol\":4528:4657  function getTotalAmountInVault() external view override returns (uint256) {... */\n    tag_112:\n        /* \"Heliocontracts/contracts/ceros/CeVault.sol\":4619:4625  _aBNBc */\n      sload(0xcb)\n        /* \"Heliocontracts/contracts/ceros/CeVault.sol\":4619:4650  _aBNBc.balanceOf(address(this)) */\n      mload(0x40)\n      shl(0xe0, 0x70a08231)\n      dup2\n      mstore\n        /* \"Heliocontracts/contracts/ceros/CeVault.sol\":4644:4648  this */\n      address\n        /* \"Heliocontracts/contracts/ceros/CeVault.sol\":4619:4650  _aBNBc.balanceOf(address(this)) */\n      0x04\n      dup3\n      add\n        /* \"#utility.yul\":160:211   */\n      mstore\n        /* \"Heliocontracts/contracts/ceros/CeVault.sol\":4593:4600  uint256 */\n      0x00\n      swap2\n      sub(shl(0xa0, 0x01), 0x01)\n        /* \"Heliocontracts/contracts/ceros/CeVault.sol\":4619:4625  _aBNBc */\n      and\n      swap1\n        /* \"Heliocontracts/contracts/ceros/CeVault.sol\":4619:4635  _aBNBc.balanceOf */\n      0x70a08231\n      swap1\n        /* \"#utility.yul\":133:151   */\n      0x24\n      add\n        /* \"Heliocontracts/contracts/ceros/CeVault.sol\":4619:4650  _aBNBc.balanceOf(address(this)) */\n      0x20\n      mload(0x40)\n      dup1\n      dup4\n      sub\n      dup2\n      dup7\n      gas\n      staticcall\n      iszero\n      dup1\n      iszero\n      tag_234\n      jumpi\n      returndatasize\n      0x00\n      dup1\n      returndatacopy\n      revert(0x00, returndatasize)\n    tag_234:\n      pop\n      pop\n      pop\n      pop\n      mload(0x40)\n      returndatasize\n      not(0x1f)\n      0x1f\n      dup3\n      add\n      and\n      dup3\n      add\n      dup1\n      0x40\n      mstore\n      pop\n      dup2\n      add\n      swap1\n      tag_235\n      swap2\n      swap1\n      tag_138\n      jump\t// in\n    tag_235:\n        /* \"Heliocontracts/contracts/ceros/CeVault.sol\":4612:4650  return _aBNBc.balanceOf(address(this)) */\n      swap1\n      pop\n        /* \"Heliocontracts/contracts/ceros/CeVault.sol\":4528:4657  function getTotalAmountInVault() external view override returns (uint256) {... */\n      swap1\n      jump\t// out\n        /* \"Heliocontracts/contracts/ceros/CeVault.sol\":2807:3276  function _claimYields(address owner, address recipient)... */\n    tag_125:\n        /* \"Heliocontracts/contracts/ceros/CeVault.sol\":2937:2960  this.getYieldFor(owner) */\n      mload(0x40)\n      shl(0xe0, 0x223888c1)\n      dup2\n      mstore\n      sub(shl(0xa0, 0x01), 0x01)\n        /* \"#utility.yul\":178:210   */\n      dup4\n      and\n        /* \"Heliocontracts/contracts/ceros/CeVault.sol\":2937:2960  this.getYieldFor(owner) */\n      0x04\n      dup3\n      add\n        /* \"#utility.yul\":160:211   */\n      mstore\n        /* \"Heliocontracts/contracts/ceros/CeVault.sol\":2888:2895  uint256 */\n      0x00\n      swap1\n      dup2\n      swap1\n        /* \"Heliocontracts/contracts/ceros/CeVault.sol\":2937:2941  this */\n      address\n      swap1\n        /* \"Heliocontracts/contracts/ceros/CeVault.sol\":2937:2953  this.getYieldFor */\n      0x223888c1\n      swap1\n        /* \"#utility.yul\":133:151   */\n      0x24\n      add\n        /* \"Heliocontracts/contracts/ceros/CeVault.sol\":2937:2960  this.getYieldFor(owner) */\n      0x20\n      mload(0x40)\n      dup1\n      dup4\n      sub\n      dup2\n      dup7\n      gas\n      staticcall\n      iszero\n      dup1\n      iszero\n      tag_239\n      jumpi\n      returndatasize\n      0x00\n      dup1\n      returndatacopy\n      revert(0x00, returndatasize)\n    tag_239:\n      pop\n      pop\n      pop\n      pop\n      mload(0x40)\n      returndatasize\n      not(0x1f)\n      0x1f\n      dup3\n      add\n      and\n      dup3\n      add\n      dup1\n      0x40\n      mstore\n      pop\n      dup2\n      add\n      swap1\n      tag_240\n      swap2\n      swap1\n      tag_138\n      jump\t// in\n    tag_240:\n        /* \"Heliocontracts/contracts/ceros/CeVault.sol\":2911:2960  uint256 availableYields = this.getYieldFor(owner) */\n      swap1\n      pop\n        /* \"Heliocontracts/contracts/ceros/CeVault.sol\":2996:2997  0 */\n      0x00\n        /* \"Heliocontracts/contracts/ceros/CeVault.sol\":2978:2993  availableYields */\n      dup2\n        /* \"Heliocontracts/contracts/ceros/CeVault.sol\":2978:2997  availableYields > 0 */\n      gt\n        /* \"Heliocontracts/contracts/ceros/CeVault.sol\":2970:3029  require(availableYields > 0, \"has not got yields to claim\") */\n      tag_241\n      jumpi\n      mload(0x40)\n      shl(0xe5, 0x461bcd)\n      dup2\n      mstore\n        /* \"#utility.yul\":7037:7039   */\n      0x20\n        /* \"Heliocontracts/contracts/ceros/CeVault.sol\":2970:3029  require(availableYields > 0, \"has not got yields to claim\") */\n      0x04\n      dup3\n      add\n        /* \"#utility.yul\":7019:7040   */\n      mstore\n        /* \"#utility.yul\":7076:7078   */\n      0x1b\n        /* \"#utility.yul\":7056:7074   */\n      0x24\n      dup3\n      add\n        /* \"#utility.yul\":7049:7079   */\n      mstore\n        /* \"#utility.yul\":7115:7144   */\n      0x686173206e6f7420676f74207969656c647320746f20636c61696d0000000000\n        /* \"#utility.yul\":7095:7113   */\n      0x44\n      dup3\n      add\n        /* \"#utility.yul\":7088:7145   */\n      mstore\n        /* \"#utility.yul\":7162:7180   */\n      0x64\n      add\n        /* \"Heliocontracts/contracts/ceros/CeVault.sol\":2970:3029  require(availableYields > 0, \"has not got yields to claim\") */\n      tag_117\n        /* \"#utility.yul\":6835:7186   */\n      jump\n        /* \"Heliocontracts/contracts/ceros/CeVault.sol\":2970:3029  require(availableYields > 0, \"has not got yields to claim\") */\n    tag_241:\n      sub(shl(0xa0, 0x01), 0x01)\n        /* \"Heliocontracts/contracts/ceros/CeVault.sol\":3081:3096  _claimed[owner] */\n      dup5\n      and\n      0x00\n      swap1\n      dup2\n      mstore\n        /* \"Heliocontracts/contracts/ceros/CeVault.sol\":3081:3089  _claimed */\n      0xcd\n        /* \"Heliocontracts/contracts/ceros/CeVault.sol\":3081:3096  _claimed[owner] */\n      0x20\n      mstore\n      0x40\n      dup2\n      keccak256\n        /* \"Heliocontracts/contracts/ceros/CeVault.sol\":3081:3115  _claimed[owner] += availableYields */\n      dup1\n      sload\n        /* \"Heliocontracts/contracts/ceros/CeVault.sol\":3100:3115  availableYields */\n      dup4\n      swap3\n        /* \"Heliocontracts/contracts/ceros/CeVault.sol\":3081:3096  _claimed[owner] */\n      swap1\n        /* \"Heliocontracts/contracts/ceros/CeVault.sol\":3081:3115  _claimed[owner] += availableYields */\n      tag_244\n      swap1\n        /* \"Heliocontracts/contracts/ceros/CeVault.sol\":3100:3115  availableYields */\n      dup5\n      swap1\n        /* \"Heliocontracts/contracts/ceros/CeVault.sol\":3081:3115  _claimed[owner] += availableYields */\n      tag_245\n      jump\t// in\n    tag_244:\n      swap1\n      swap2\n      sstore\n      pop\n      pop\n        /* \"Heliocontracts/contracts/ceros/CeVault.sol\":3132:3138  _aBNBc */\n      sload(0xcb)\n        /* \"Heliocontracts/contracts/ceros/CeVault.sol\":3125:3180  IERC20(_aBNBc).safeTransfer(recipient, availableYields) */\n      tag_246\n      swap1\n      sub(shl(0xa0, 0x01), 0x01)\n        /* \"Heliocontracts/contracts/ceros/CeVault.sol\":3132:3138  _aBNBc */\n      and\n        /* \"Heliocontracts/contracts/ceros/CeVault.sol\":3153:3162  recipient */\n      dup5\n        /* \"Heliocontracts/contracts/ceros/CeVault.sol\":3164:3179  availableYields */\n      dup4\n        /* \"Heliocontracts/contracts/ceros/CeVault.sol\":3125:3152  IERC20(_aBNBc).safeTransfer */\n      tag_247\n        /* \"Heliocontracts/contracts/ceros/CeVault.sol\":3125:3180  IERC20(_aBNBc).safeTransfer(recipient, availableYields) */\n      jump\t// in\n    tag_246:\n        /* \"Heliocontracts/contracts/ceros/CeVault.sol\":3210:3219  recipient */\n      dup3\n      sub(shl(0xa0, 0x01), 0x01)\n        /* \"Heliocontracts/contracts/ceros/CeVault.sol\":3195:3237  Claimed(owner, recipient, availableYields) */\n      and\n        /* \"Heliocontracts/contracts/ceros/CeVault.sol\":3203:3208  owner */\n      dup5\n      sub(shl(0xa0, 0x01), 0x01)\n        /* \"Heliocontracts/contracts/ceros/CeVault.sol\":3195:3237  Claimed(owner, recipient, availableYields) */\n      and\n      0xf7a40077ff7a04c7e61f6f26fb13774259ddf1b6bce9ecf26a8276cdd3992683\n        /* \"Heliocontracts/contracts/ceros/CeVault.sol\":3221:3236  availableYields */\n      dup4\n        /* \"Heliocontracts/contracts/ceros/CeVault.sol\":3195:3237  Claimed(owner, recipient, availableYields) */\n      mload(0x40)\n      tag_248\n      swap2\n        /* \"#utility.yul\":811:836   */\n      dup2\n      mstore\n        /* \"#utility.yul\":799:801   */\n      0x20\n        /* \"#utility.yul\":784:802   */\n      add\n      swap1\n        /* \"#utility.yul\":665:842   */\n      jump\n        /* \"Heliocontracts/contracts/ceros/CeVault.sol\":3195:3237  Claimed(owner, recipient, availableYields) */\n    tag_248:\n      mload(0x40)\n      dup1\n      swap2\n      sub\n      swap1\n      log3\n        /* \"Heliocontracts/contracts/ceros/CeVault.sol\":3254:3269  availableYields */\n      swap4\n        /* \"Heliocontracts/contracts/ceros/CeVault.sol\":2807:3276  function _claimYields(address owner, address recipient)... */\n      swap3\n      pop\n      pop\n      pop\n      jump\t// out\n        /* \"Heliocontracts/contracts/ceros/CeVault.sol\":1887:2409  function _deposit(address account, uint256 amount)... */\n    tag_152:\n        /* \"Heliocontracts/contracts/ceros/CeVault.sol\":1963:1970  uint256 */\n      0x00\n        /* \"Heliocontracts/contracts/ceros/CeVault.sol\":1986:1999  uint256 ratio */\n      dup1\n        /* \"Heliocontracts/contracts/ceros/CeVault.sol\":2002:2008  _aBNBc */\n      0xcb\n      0x00\n      swap1\n      sload\n      swap1\n      0x0100\n      exp\n      swap1\n      div\n      sub(shl(0xa0, 0x01), 0x01)\n      and\n      sub(shl(0xa0, 0x01), 0x01)\n        /* \"Heliocontracts/contracts/ceros/CeVault.sol\":2002:2014  _aBNBc.ratio */\n      and\n      0x71ca337d\n        /* \"Heliocontracts/contracts/ceros/CeVault.sol\":2002:2016  _aBNBc.ratio() */\n      mload(0x40)\n      dup2\n      0xffffffff\n      and\n      0xe0\n      shl\n      dup2\n      mstore\n      0x04\n      add\n      0x20\n      mload(0x40)\n      dup1\n      dup4\n      sub\n      dup2\n      dup7\n      gas\n      staticcall\n      iszero\n      dup1\n      iszero\n      tag_251\n      jumpi\n      returndatasize\n      0x00\n      dup1\n      returndatacopy\n      revert(0x00, returndatasize)\n    tag_251:\n      pop\n      pop\n      pop\n      pop\n      mload(0x40)\n      returndatasize\n      not(0x1f)\n      0x1f\n      dup3\n      add\n      and\n      dup3\n      add\n      dup1\n      0x40\n      mstore\n      pop\n      dup2\n      add\n      swap1\n      tag_252\n      swap2\n      swap1\n      tag_138\n      jump\t// in\n    tag_252:\n        /* \"Heliocontracts/contracts/ceros/CeVault.sol\":2033:2039  _aBNBc */\n      sload(0xcb)\n        /* \"Heliocontracts/contracts/ceros/CeVault.sol\":1986:2016  uint256 ratio = _aBNBc.ratio() */\n      swap1\n      swap2\n      pop\n        /* \"Heliocontracts/contracts/ceros/CeVault.sol\":2026:2092  IERC20(_aBNBc).safeTransferFrom(msg.sender, address(this), amount) */\n      tag_253\n      swap1\n      sub(shl(0xa0, 0x01), 0x01)\n        /* \"Heliocontracts/contracts/ceros/CeVault.sol\":2033:2039  _aBNBc */\n      and\n        /* \"Heliocontracts/contracts/ceros/CeVault.sol\":2058:2068  msg.sender */\n      caller\n        /* \"Heliocontracts/contracts/ceros/CeVault.sol\":2078:2082  this */\n      address\n        /* \"Heliocontracts/contracts/ceros/CeVault.sol\":2085:2091  amount */\n      dup7\n        /* \"Heliocontracts/contracts/ceros/CeVault.sol\":2026:2057  IERC20(_aBNBc).safeTransferFrom */\n      tag_254\n        /* \"Heliocontracts/contracts/ceros/CeVault.sol\":2026:2092  IERC20(_aBNBc).safeTransferFrom(msg.sender, address(this), amount) */\n      jump\t// in\n    tag_253:\n        /* \"Heliocontracts/contracts/ceros/CeVault.sol\":2102:2116  uint256 toMint */\n      0x00\n        /* \"Heliocontracts/contracts/ceros/CeVault.sol\":2137:2142  ratio */\n      dup2\n        /* \"Heliocontracts/contracts/ceros/CeVault.sol\":2120:2133  amount * 1e18 */\n      tag_255\n        /* \"Heliocontracts/contracts/ceros/CeVault.sol\":2120:2126  amount */\n      dup6\n        /* \"Heliocontracts/contracts/ceros/CeVault.sol\":2129:2133  1e18 */\n      0x0de0b6b3a7640000\n        /* \"Heliocontracts/contracts/ceros/CeVault.sol\":2120:2133  amount * 1e18 */\n      tag_203\n      jump\t// in\n    tag_255:\n        /* \"Heliocontracts/contracts/ceros/CeVault.sol\":2119:2142  (amount * 1e18) / ratio */\n      tag_256\n      swap2\n      swap1\n      tag_205\n      jump\t// in\n    tag_256:\n      sub(shl(0xa0, 0x01), 0x01)\n        /* \"Heliocontracts/contracts/ceros/CeVault.sol\":2152:2172  _depositors[account] */\n      dup7\n      and\n      0x00\n      swap1\n      dup2\n      mstore\n        /* \"Heliocontracts/contracts/ceros/CeVault.sol\":2152:2163  _depositors */\n      0xce\n        /* \"Heliocontracts/contracts/ceros/CeVault.sol\":2152:2172  _depositors[account] */\n      0x20\n      mstore\n      0x40\n      dup2\n      keccak256\n        /* \"Heliocontracts/contracts/ceros/CeVault.sol\":2152:2182  _depositors[account] += amount */\n      dup1\n      sload\n        /* \"Heliocontracts/contracts/ceros/CeVault.sol\":2102:2142  uint256 toMint = (amount * 1e18) / ratio */\n      swap3\n      swap4\n      pop\n        /* \"Heliocontracts/contracts/ceros/CeVault.sol\":2176:2182  amount */\n      dup7\n      swap3\n        /* \"Heliocontracts/contracts/ceros/CeVault.sol\":2152:2172  _depositors[account] */\n      swap1\n      swap2\n      swap1\n        /* \"Heliocontracts/contracts/ceros/CeVault.sol\":2152:2182  _depositors[account] += amount */\n      tag_257\n      swap1\n        /* \"Heliocontracts/contracts/ceros/CeVault.sol\":2176:2182  amount */\n      dup5\n      swap1\n        /* \"Heliocontracts/contracts/ceros/CeVault.sol\":2152:2182  _depositors[account] += amount */\n      tag_245\n      jump\t// in\n    tag_257:\n      swap1\n      swap2\n      sstore\n      pop\n      pop\n      sub(shl(0xa0, 0x01), 0x01)\n        /* \"Heliocontracts/contracts/ceros/CeVault.sol\":2201:2226  _ceTokenBalances[account] */\n      dup6\n      and\n      0x00\n      swap1\n      dup2\n      mstore\n        /* \"Heliocontracts/contracts/ceros/CeVault.sol\":2201:2217  _ceTokenBalances */\n      0xcf\n        /* \"Heliocontracts/contracts/ceros/CeVault.sol\":2201:2226  _ceTokenBalances[account] */\n      0x20\n      mstore\n      0x40\n      dup2\n      keccak256\n        /* \"Heliocontracts/contracts/ceros/CeVault.sol\":2201:2236  _ceTokenBalances[account] += toMint */\n      dup1\n      sload\n        /* \"Heliocontracts/contracts/ceros/CeVault.sol\":2230:2236  toMint */\n      dup4\n      swap3\n        /* \"Heliocontracts/contracts/ceros/CeVault.sol\":2201:2226  _ceTokenBalances[account] */\n      swap1\n        /* \"Heliocontracts/contracts/ceros/CeVault.sol\":2201:2236  _ceTokenBalances[account] += toMint */\n      tag_258\n      swap1\n        /* \"Heliocontracts/contracts/ceros/CeVault.sol\":2230:2236  toMint */\n      dup5\n      swap1\n        /* \"Heliocontracts/contracts/ceros/CeVault.sol\":2201:2236  _ceTokenBalances[account] += toMint */\n      tag_245\n      jump\t// in\n    tag_258:\n      swap1\n      swap2\n      sstore\n      pop\n      pop\n        /* \"Heliocontracts/contracts/ceros/CeVault.sol\":2295:2303  _ceToken */\n      sload(0xca)\n        /* \"Heliocontracts/contracts/ceros/CeVault.sol\":2284:2326  ICertToken(_ceToken).mint(account, toMint) */\n      mload(0x40)\n      shl(0xe0, 0x40c10f19)\n      dup2\n      mstore\n      sub(shl(0xa0, 0x01), 0x01)\n        /* \"#utility.yul\":7516:7548   */\n      dup8\n      dup2\n      and\n        /* \"Heliocontracts/contracts/ceros/CeVault.sol\":2284:2326  ICertToken(_ceToken).mint(account, toMint) */\n      0x04\n      dup4\n      add\n        /* \"#utility.yul\":7498:7549   */\n      mstore\n        /* \"#utility.yul\":7565:7583   */\n      0x24\n      dup3\n      add\n        /* \"#utility.yul\":7558:7592   */\n      dup5\n      swap1\n      mstore\n        /* \"Heliocontracts/contracts/ceros/CeVault.sol\":2295:2303  _ceToken */\n      swap1\n      swap2\n      and\n      swap1\n        /* \"Heliocontracts/contracts/ceros/CeVault.sol\":2284:2309  ICertToken(_ceToken).mint */\n      0x40c10f19\n      swap1\n        /* \"#utility.yul\":7471:7489   */\n      0x44\n      add\n        /* \"Heliocontracts/contracts/ceros/CeVault.sol\":2284:2326  ICertToken(_ceToken).mint(account, toMint) */\n      0x00\n      mload(0x40)\n      dup1\n      dup4\n      sub\n      dup2\n      0x00\n      dup8\n      dup1\n      extcodesize\n      iszero\n      dup1\n      iszero\n      tag_261\n      jumpi\n      0x00\n      dup1\n      revert\n    tag_261:\n      pop\n      gas\n      call\n      iszero\n      dup1\n      iszero\n      tag_263\n      jumpi\n      returndatasize\n      0x00\n      dup1\n      returndatacopy\n      revert(0x00, returndatasize)\n    tag_263:\n      pop\n      pop\n        /* \"Heliocontracts/contracts/ceros/CeVault.sol\":2341:2379  Deposited(msg.sender, account, toMint) */\n      mload(0x40)\n        /* \"#utility.yul\":811:836   */\n      dup4\n      dup2\n      mstore\n      sub(shl(0xa0, 0x01), 0x01)\n        /* \"Heliocontracts/contracts/ceros/CeVault.sol\":2341:2379  Deposited(msg.sender, account, toMint) */\n      dup9\n      and\n      swap3\n      pop\n        /* \"Heliocontracts/contracts/ceros/CeVault.sol\":2351:2361  msg.sender */\n      caller\n      swap2\n      pop\n        /* \"Heliocontracts/contracts/ceros/CeVault.sol\":2341:2379  Deposited(msg.sender, account, toMint) */\n      0x8752a472e571a816aea92eec8dae9baf628e840f4929fbcc2d155e6233ff68a7\n      swap1\n        /* \"#utility.yul\":799:801   */\n      0x20\n        /* \"#utility.yul\":784:802   */\n      add\n        /* \"Heliocontracts/contracts/ceros/CeVault.sol\":2341:2379  Deposited(msg.sender, account, toMint) */\n      mload(0x40)\n      dup1\n      swap2\n      sub\n      swap1\n      log3\n        /* \"Heliocontracts/contracts/ceros/CeVault.sol\":2396:2402  toMint */\n      swap5\n        /* \"Heliocontracts/contracts/ceros/CeVault.sol\":1887:2409  function _deposit(address account, uint256 amount)... */\n      swap4\n      pop\n      pop\n      pop\n      pop\n      jump\t// out\n        /* \"@openzeppelin/contracts-upgradeable/access/OwnableUpgradeable.sol\":1599:1729  function _checkOwner() internal view virtual {... */\n    tag_155:\n        /* \"@openzeppelin/contracts-upgradeable/access/OwnableUpgradeable.sol\":1513:1519  _owner */\n      and(sub(shl(0xa0, 0x01), 0x01), sload(0x33))\n        /* \"@openzeppelin/contracts-upgradeable/utils/ContextUpgradeable.sol\":929:939  msg.sender */\n      caller\n        /* \"@openzeppelin/contracts-upgradeable/access/OwnableUpgradeable.sol\":1662:1685  owner() == _msgSender() */\n      eq\n        /* \"@openzeppelin/contracts-upgradeable/access/OwnableUpgradeable.sol\":1654:1722  require(owner() == _msgSender(), \"Ownable: caller is not the owner\") */\n      tag_186\n      jumpi\n      mload(0x40)\n      shl(0xe5, 0x461bcd)\n      dup2\n      mstore\n        /* \"#utility.yul\":7805:7807   */\n      0x20\n        /* \"@openzeppelin/contracts-upgradeable/access/OwnableUpgradeable.sol\":1654:1722  require(owner() == _msgSender(), \"Ownable: caller is not the owner\") */\n      0x04\n      dup3\n      add\n        /* \"#utility.yul\":7787:7808   */\n      dup2\n      swap1\n      mstore\n        /* \"#utility.yul\":7824:7842   */\n      0x24\n      dup3\n      add\n        /* \"#utility.yul\":7817:7847   */\n      mstore\n        /* \"#utility.yul\":7883:7917   */\n      0x4f776e61626c653a2063616c6c6572206973206e6f7420746865206f776e6572\n        /* \"#utility.yul\":7863:7881   */\n      0x44\n      dup3\n      add\n        /* \"#utility.yul\":7856:7918   */\n      mstore\n        /* \"#utility.yul\":7935:7953   */\n      0x64\n      add\n        /* \"@openzeppelin/contracts-upgradeable/access/OwnableUpgradeable.sol\":1654:1722  require(owner() == _msgSender(), \"Ownable: caller is not the owner\") */\n      tag_117\n        /* \"#utility.yul\":7603:7959   */\n      jump\n        /* \"@openzeppelin/contracts-upgradeable/access/OwnableUpgradeable.sol\":1003:1098  function __Ownable_init() internal onlyInitializing {... */\n    tag_171:\n        /* \"@openzeppelin/contracts-upgradeable/proxy/utils/Initializable.sol\":4910:4923  _initializing */\n      sload(0x00)\n      0x0100\n      swap1\n      div\n      0xff\n      and\n        /* \"@openzeppelin/contracts-upgradeable/proxy/utils/Initializable.sol\":4902:4971  require(_initializing, \"Initializable: contract is not initializing\") */\n      tag_274\n      jumpi\n      mload(0x40)\n      shl(0xe5, 0x461bcd)\n      dup2\n      mstore\n      0x04\n      add\n      tag_117\n      swap1\n      tag_276\n      jump\t// in\n    tag_274:\n        /* \"@openzeppelin/contracts-upgradeable/access/OwnableUpgradeable.sol\":1065:1091  __Ownable_init_unchained() */\n      tag_186\n        /* \"@openzeppelin/contracts-upgradeable/access/OwnableUpgradeable.sol\":1065:1089  __Ownable_init_unchained */\n      tag_279\n        /* \"@openzeppelin/contracts-upgradeable/access/OwnableUpgradeable.sol\":1065:1091  __Ownable_init_unchained() */\n      jump\t// in\n        /* \"@openzeppelin/contracts-upgradeable/security/PausableUpgradeable.sol\":1063:1160  function __Pausable_init() internal onlyInitializing {... */\n    tag_173:\n        /* \"@openzeppelin/contracts-upgradeable/proxy/utils/Initializable.sol\":4910:4923  _initializing */\n      sload(0x00)\n      0x0100\n      swap1\n      div\n      0xff\n      and\n        /* \"@openzeppelin/contracts-upgradeable/proxy/utils/Initializable.sol\":4902:4971  require(_initializing, \"Initializable: contract is not initializing\") */\n      tag_281\n      jumpi\n      mload(0x40)\n      shl(0xe5, 0x461bcd)\n      dup2\n      mstore\n      0x04\n      add\n      tag_117\n      swap1\n      tag_276\n      jump\t// in\n    tag_281:\n        /* \"@openzeppelin/contracts-upgradeable/security/PausableUpgradeable.sol\":1126:1153  __Pausable_init_unchained() */\n      tag_186\n        /* \"@openzeppelin/contracts-upgradeable/security/PausableUpgradeable.sol\":1126:1151  __Pausable_init_unchained */\n      tag_285\n        /* \"@openzeppelin/contracts-upgradeable/security/PausableUpgradeable.sol\":1126:1153  __Pausable_init_unchained() */\n      jump\t// in\n        /* \"@openzeppelin/contracts-upgradeable/security/ReentrancyGuardUpgradeable.sol\":1853:1964  function __ReentrancyGuard_init() internal onlyInitializing {... */\n    tag_175:\n        /* \"@openzeppelin/contracts-upgradeable/proxy/utils/Initializable.sol\":4910:4923  _initializing */\n      sload(0x00)\n      0x0100\n      swap1\n      div\n      0xff\n      and\n        /* \"@openzeppelin/contracts-upgradeable/proxy/utils/Initializable.sol\":4902:4971  require(_initializing, \"Initializable: contract is not initializing\") */\n      tag_287\n      jumpi\n      mload(0x40)\n      shl(0xe5, 0x461bcd)\n      dup2\n      mstore\n      0x04\n      add\n      tag_117\n      swap1\n      tag_276\n      jump\t// in\n    tag_287:\n        /* \"@openzeppelin/contracts-upgradeable/security/ReentrancyGuardUpgradeable.sol\":1923:1957  __ReentrancyGuard_init_unchained() */\n      tag_186\n        /* \"@openzeppelin/contracts-upgradeable/security/ReentrancyGuardUpgradeable.sol\":1923:1955  __ReentrancyGuard_init_unchained */\n      tag_291\n        /* \"@openzeppelin/contracts-upgradeable/security/ReentrancyGuardUpgradeable.sol\":1923:1957  __ReentrancyGuard_init_unchained() */\n      jump\t// in\n        /* \"@openzeppelin/contracts-upgradeable/access/OwnableUpgradeable.sol\":2673:2860  function _transferOwnership(address newOwner) internal virtual {... */\n    tag_187:\n        /* \"@openzeppelin/contracts-upgradeable/access/OwnableUpgradeable.sol\":2765:2771  _owner */\n      0x33\n      dup1\n      sload\n      sub(shl(0xa0, 0x01), 0x01)\n        /* \"@openzeppelin/contracts-upgradeable/access/OwnableUpgradeable.sol\":2781:2798  _owner = newOwner */\n      dup4\n      dup2\n      and\n      not(sub(shl(0xa0, 0x01), 0x01))\n      dup4\n      and\n      dup2\n      or\n      swap1\n      swap4\n      sstore\n        /* \"@openzeppelin/contracts-upgradeable/access/OwnableUpgradeable.sol\":2813:2853  OwnershipTransferred(oldOwner, newOwner) */\n      mload(0x40)\n        /* \"@openzeppelin/contracts-upgradeable/access/OwnableUpgradeable.sol\":2765:2771  _owner */\n      swap2\n      and\n      swap2\n        /* \"@openzeppelin/contracts-upgradeable/access/OwnableUpgradeable.sol\":2781:2798  _owner = newOwner */\n      swap1\n        /* \"@openzeppelin/contracts-upgradeable/access/OwnableUpgradeable.sol\":2765:2771  _owner */\n      dup3\n      swap1\n        /* \"@openzeppelin/contracts-upgradeable/access/OwnableUpgradeable.sol\":2813:2853  OwnershipTransferred(oldOwner, newOwner) */\n      0x8be0079c531659141344cd1fd0a4f28419497f9722a3daafe3b4186f6b6457e0\n      swap1\n        /* \"@openzeppelin/contracts-upgradeable/access/OwnableUpgradeable.sol\":2746:2762  address oldOwner */\n      0x00\n      swap1\n        /* \"@openzeppelin/contracts-upgradeable/access/OwnableUpgradeable.sol\":2813:2853  OwnershipTransferred(oldOwner, newOwner) */\n      log3\n        /* \"@openzeppelin/contracts-upgradeable/access/OwnableUpgradeable.sol\":2736:2860  {... */\n      pop\n        /* \"@openzeppelin/contracts-upgradeable/access/OwnableUpgradeable.sol\":2673:2860  function _transferOwnership(address newOwner) internal virtual {... */\n      pop\n      jump\t// out\n        /* \"Heliocontracts/contracts/ceros/CeVault.sol\":3729:4523  function _withdraw(... */\n    tag_197:\n        /* \"Heliocontracts/contracts/ceros/CeVault.sol\":3845:3852  uint256 */\n      0x00\n        /* \"Heliocontracts/contracts/ceros/CeVault.sol\":3864:3877  uint256 ratio */\n      dup1\n        /* \"Heliocontracts/contracts/ceros/CeVault.sol\":3880:3886  _aBNBc */\n      0xcb\n      0x00\n      swap1\n      sload\n      swap1\n      0x0100\n      exp\n      swap1\n      div\n      sub(shl(0xa0, 0x01), 0x01)\n      and\n      sub(shl(0xa0, 0x01), 0x01)\n        /* \"Heliocontracts/contracts/ceros/CeVault.sol\":3880:3892  _aBNBc.ratio */\n      and\n      0x71ca337d\n        /* \"Heliocontracts/contracts/ceros/CeVault.sol\":3880:3894  _aBNBc.ratio() */\n      mload(0x40)\n      dup2\n      0xffffffff\n      and\n      0xe0\n      shl\n      dup2\n      mstore\n      0x04\n      add\n      0x20\n      mload(0x40)\n      dup1\n      dup4\n      sub\n      dup2\n      dup7\n      gas\n      staticcall\n      iszero\n      dup1\n      iszero\n      tag_295\n      jumpi\n      returndatasize\n      0x00\n      dup1\n      returndatacopy\n      revert(0x00, returndatasize)\n    tag_295:\n      pop\n      pop\n      pop\n      pop\n      mload(0x40)\n      returndatasize\n      not(0x1f)\n      0x1f\n      dup3\n      add\n      and\n      dup3\n      add\n      dup1\n      0x40\n      mstore\n      pop\n      dup2\n      add\n      swap1\n      tag_296\n      swap2\n      swap1\n      tag_138\n      jump\t// in\n    tag_296:\n        /* \"Heliocontracts/contracts/ceros/CeVault.sol\":3864:3894  uint256 ratio = _aBNBc.ratio() */\n      swap1\n      pop\n        /* \"Heliocontracts/contracts/ceros/CeVault.sol\":3904:3922  uint256 realAmount */\n      0x00\n        /* \"Heliocontracts/contracts/ceros/CeVault.sol\":3944:3948  1e18 */\n      0x0de0b6b3a7640000\n        /* \"Heliocontracts/contracts/ceros/CeVault.sol\":3926:3940  amount * ratio */\n      tag_297\n        /* \"Heliocontracts/contracts/ceros/CeVault.sol\":3864:3894  uint256 ratio = _aBNBc.ratio() */\n      dup4\n        /* \"Heliocontracts/contracts/ceros/CeVault.sol\":3926:3932  amount */\n      dup7\n        /* \"Heliocontracts/contracts/ceros/CeVault.sol\":3926:3940  amount * ratio */\n      tag_203\n      jump\t// in\n    tag_297:\n        /* \"Heliocontracts/contracts/ceros/CeVault.sol\":3925:3948  (amount * ratio) / 1e18 */\n      tag_298\n      swap2\n      swap1\n      tag_205\n      jump\t// in\n    tag_298:\n        /* \"Heliocontracts/contracts/ceros/CeVault.sol\":3979:3985  _aBNBc */\n      sload(0xcb)\n        /* \"Heliocontracts/contracts/ceros/CeVault.sol\":3979:4010  _aBNBc.balanceOf(address(this)) */\n      mload(0x40)\n      shl(0xe0, 0x70a08231)\n      dup2\n      mstore\n        /* \"Heliocontracts/contracts/ceros/CeVault.sol\":4004:4008  this */\n      address\n        /* \"Heliocontracts/contracts/ceros/CeVault.sol\":3979:4010  _aBNBc.balanceOf(address(this)) */\n      0x04\n      dup3\n      add\n        /* \"#utility.yul\":160:211   */\n      mstore\n        /* \"Heliocontracts/contracts/ceros/CeVault.sol\":3904:3948  uint256 realAmount = (amount * ratio) / 1e18 */\n      swap2\n      swap3\n      pop\n      dup3\n      swap2\n      sub(shl(0xa0, 0x01), 0x01)\n        /* \"Heliocontracts/contracts/ceros/CeVault.sol\":3979:3985  _aBNBc */\n      swap1\n      swap2\n      and\n      swap1\n        /* \"Heliocontracts/contracts/ceros/CeVault.sol\":3979:3995  _aBNBc.balanceOf */\n      0x70a08231\n      swap1\n        /* \"#utility.yul\":133:151   */\n      0x24\n      add\n        /* \"Heliocontracts/contracts/ceros/CeVault.sol\":3979:4010  _aBNBc.balanceOf(address(this)) */\n      0x20\n      mload(0x40)\n      dup1\n      dup4\n      sub\n      dup2\n      dup7\n      gas\n      staticcall\n      iszero\n      dup1\n      iszero\n      tag_301\n      jumpi\n      returndatasize\n      0x00\n      dup1\n      returndatacopy\n      revert(0x00, returndatasize)\n    tag_301:\n      pop\n      pop\n      pop\n      pop\n      mload(0x40)\n      returndatasize\n      not(0x1f)\n      0x1f\n      dup3\n      add\n      and\n      dup3\n      add\n      dup1\n      0x40\n      mstore\n      pop\n      dup2\n      add\n      swap1\n      tag_302\n      swap2\n      swap1\n      tag_138\n      jump\t// in\n    tag_302:\n        /* \"Heliocontracts/contracts/ceros/CeVault.sol\":3979:4024  _aBNBc.balanceOf(address(this)) >= realAmount */\n      lt\n      iszero\n        /* \"Heliocontracts/contracts/ceros/CeVault.sol\":3958:4078  require(... */\n      tag_303\n      jumpi\n      mload(0x40)\n      shl(0xe5, 0x461bcd)\n      dup2\n      mstore\n        /* \"#utility.yul\":8578:8580   */\n      0x20\n        /* \"Heliocontracts/contracts/ceros/CeVault.sol\":3958:4078  require(... */\n      0x04\n      dup3\n      add\n        /* \"#utility.yul\":8560:8581   */\n      mstore\n        /* \"#utility.yul\":8617:8619   */\n      0x1c\n        /* \"#utility.yul\":8597:8615   */\n      0x24\n      dup3\n      add\n        /* \"#utility.yul\":8590:8620   */\n      mstore\n        /* \"#utility.yul\":8656:8686   */\n      0x6e6f74207375636820616d6f756e7420696e20746865207661756c7400000000\n        /* \"#utility.yul\":8636:8654   */\n      0x44\n      dup3\n      add\n        /* \"#utility.yul\":8629:8687   */\n      mstore\n        /* \"#utility.yul\":8704:8722   */\n      0x64\n      add\n        /* \"Heliocontracts/contracts/ceros/CeVault.sol\":3958:4078  require(... */\n      tag_117\n        /* \"#utility.yul\":8376:8728   */\n      jump\n        /* \"Heliocontracts/contracts/ceros/CeVault.sol\":3958:4078  require(... */\n    tag_303:\n      sub(shl(0xa0, 0x01), 0x01)\n        /* \"Heliocontracts/contracts/ceros/CeVault.sol\":4106:4129  _ceTokenBalances[owner] */\n      dup7\n      and\n        /* \"Heliocontracts/contracts/ceros/CeVault.sol\":4088:4103  uint256 balance */\n      0x00\n        /* \"Heliocontracts/contracts/ceros/CeVault.sol\":4106:4129  _ceTokenBalances[owner] */\n      swap1\n      dup2\n      mstore\n        /* \"Heliocontracts/contracts/ceros/CeVault.sol\":4106:4122  _ceTokenBalances */\n      0xcf\n        /* \"Heliocontracts/contracts/ceros/CeVault.sol\":4106:4129  _ceTokenBalances[owner] */\n      0x20\n      mstore\n      0x40\n      swap1\n      keccak256\n      sload\n        /* \"Heliocontracts/contracts/ceros/CeVault.sol\":4147:4164  balance >= amount */\n      dup5\n      dup2\n      lt\n      iszero\n        /* \"Heliocontracts/contracts/ceros/CeVault.sol\":4139:4189  require(balance >= amount, \"insufficient balance\") */\n      tag_306\n      jumpi\n      mload(0x40)\n      shl(0xe5, 0x461bcd)\n      dup2\n      mstore\n        /* \"#utility.yul\":8935:8937   */\n      0x20\n        /* \"Heliocontracts/contracts/ceros/CeVault.sol\":4139:4189  require(balance >= amount, \"insufficient balance\") */\n      0x04\n      dup3\n      add\n        /* \"#utility.yul\":8917:8938   */\n      mstore\n        /* \"#utility.yul\":8974:8976   */\n      0x14\n        /* \"#utility.yul\":8954:8972   */\n      0x24\n      dup3\n      add\n        /* \"#utility.yul\":8947:8977   */\n      mstore\n      shl(0x60, 0x696e73756666696369656e742062616c616e6365)\n        /* \"#utility.yul\":8993:9011   */\n      0x44\n      dup3\n      add\n        /* \"#utility.yul\":8986:9036   */\n      mstore\n        /* \"#utility.yul\":9053:9071   */\n      0x64\n      add\n        /* \"Heliocontracts/contracts/ceros/CeVault.sol\":4139:4189  require(balance >= amount, \"insufficient balance\") */\n      tag_117\n        /* \"#utility.yul\":8733:9077   */\n      jump\n        /* \"Heliocontracts/contracts/ceros/CeVault.sol\":4139:4189  require(balance >= amount, \"insufficient balance\") */\n    tag_306:\n      sub(shl(0xa0, 0x01), 0x01)\n        /* \"Heliocontracts/contracts/ceros/CeVault.sol\":4199:4222  _ceTokenBalances[owner] */\n      dup8\n      and\n      0x00\n      swap1\n      dup2\n      mstore\n        /* \"Heliocontracts/contracts/ceros/CeVault.sol\":4199:4215  _ceTokenBalances */\n      0xcf\n        /* \"Heliocontracts/contracts/ceros/CeVault.sol\":4199:4222  _ceTokenBalances[owner] */\n      0x20\n      mstore\n      0x40\n      dup2\n      keccak256\n        /* \"Heliocontracts/contracts/ceros/CeVault.sol\":4199:4232  _ceTokenBalances[owner] -= amount */\n      dup1\n      sload\n        /* \"Heliocontracts/contracts/ceros/CeVault.sol\":4226:4232  amount */\n      dup8\n      swap3\n        /* \"Heliocontracts/contracts/ceros/CeVault.sol\":4199:4222  _ceTokenBalances[owner] */\n      swap1\n        /* \"Heliocontracts/contracts/ceros/CeVault.sol\":4199:4232  _ceTokenBalances[owner] -= amount */\n      tag_309\n      swap1\n        /* \"Heliocontracts/contracts/ceros/CeVault.sol\":4226:4232  amount */\n      dup5\n      swap1\n        /* \"Heliocontracts/contracts/ceros/CeVault.sol\":4199:4232  _ceTokenBalances[owner] -= amount */\n      tag_141\n      jump\t// in\n    tag_309:\n      swap1\n      swap2\n      sstore\n      pop\n      pop\n        /* \"Heliocontracts/contracts/ceros/CeVault.sol\":4295:4303  _ceToken */\n      sload(0xca)\n        /* \"Heliocontracts/contracts/ceros/CeVault.sol\":4284:4324  ICertToken(_ceToken).burn(owner, amount) */\n      mload(0x40)\n      shl(0xe2, 0x2770a7eb)\n      dup2\n      mstore\n      sub(shl(0xa0, 0x01), 0x01)\n        /* \"#utility.yul\":7516:7548   */\n      dup10\n      dup2\n      and\n        /* \"Heliocontracts/contracts/ceros/CeVault.sol\":4284:4324  ICertToken(_ceToken).burn(owner, amount) */\n      0x04\n      dup4\n      add\n        /* \"#utility.yul\":7498:7549   */\n      mstore\n        /* \"#utility.yul\":7565:7583   */\n      0x24\n      dup3\n      add\n        /* \"#utility.yul\":7558:7592   */\n      dup9\n      swap1\n      mstore\n        /* \"Heliocontracts/contracts/ceros/CeVault.sol\":4295:4303  _ceToken */\n      swap1\n      swap2\n      and\n      swap1\n        /* \"Heliocontracts/contracts/ceros/CeVault.sol\":4284:4309  ICertToken(_ceToken).burn */\n      0x9dc29fac\n      swap1\n        /* \"#utility.yul\":7471:7489   */\n      0x44\n      add\n        /* \"Heliocontracts/contracts/ceros/CeVault.sol\":4284:4324  ICertToken(_ceToken).burn(owner, amount) */\n      0x00\n      mload(0x40)\n      dup1\n      dup4\n      sub\n      dup2\n      0x00\n      dup8\n      dup1\n      extcodesize\n      iszero\n      dup1\n      iszero\n      tag_311\n      jumpi\n      0x00\n      dup1\n      revert\n    tag_311:\n      pop\n      gas\n      call\n      iszero\n      dup1\n      iszero\n      tag_313\n      jumpi\n      returndatasize\n      0x00\n      dup1\n      returndatacopy\n      revert(0x00, returndatasize)\n    tag_313:\n      pop\n      pop\n      pop\n      pop\n      sub(shl(0xa0, 0x01), 0x01)\n        /* \"Heliocontracts/contracts/ceros/CeVault.sol\":4334:4352  _depositors[owner] */\n      dup8\n      and\n      0x00\n      swap1\n      dup2\n      mstore\n        /* \"Heliocontracts/contracts/ceros/CeVault.sol\":4334:4345  _depositors */\n      0xce\n        /* \"Heliocontracts/contracts/ceros/CeVault.sol\":4334:4352  _depositors[owner] */\n      0x20\n      mstore\n      0x40\n      dup2\n      keccak256\n        /* \"Heliocontracts/contracts/ceros/CeVault.sol\":4334:4366  _depositors[owner] -= realAmount */\n      dup1\n      sload\n        /* \"Heliocontracts/contracts/ceros/CeVault.sol\":4356:4366  realAmount */\n      dup5\n      swap3\n        /* \"Heliocontracts/contracts/ceros/CeVault.sol\":4334:4352  _depositors[owner] */\n      swap1\n        /* \"Heliocontracts/contracts/ceros/CeVault.sol\":4334:4366  _depositors[owner] -= realAmount */\n      tag_314\n      swap1\n        /* \"Heliocontracts/contracts/ceros/CeVault.sol\":4356:4366  realAmount */\n      dup5\n      swap1\n        /* \"Heliocontracts/contracts/ceros/CeVault.sol\":4334:4366  _depositors[owner] -= realAmount */\n      tag_141\n      jump\t// in\n    tag_314:\n      swap1\n      swap2\n      sstore\n      pop\n      pop\n        /* \"Heliocontracts/contracts/ceros/CeVault.sol\":4392:4398  _aBNBc */\n      sload(0xcb)\n        /* \"Heliocontracts/contracts/ceros/CeVault.sol\":4385:4435  IERC20(_aBNBc).safeTransfer(recipient, realAmount) */\n      tag_315\n      swap1\n      sub(shl(0xa0, 0x01), 0x01)\n        /* \"Heliocontracts/contracts/ceros/CeVault.sol\":4392:4398  _aBNBc */\n      and\n        /* \"Heliocontracts/contracts/ceros/CeVault.sol\":4413:4422  recipient */\n      dup8\n        /* \"Heliocontracts/contracts/ceros/CeVault.sol\":4424:4434  realAmount */\n      dup5\n        /* \"Heliocontracts/contracts/ceros/CeVault.sol\":4385:4412  IERC20(_aBNBc).safeTransfer */\n      tag_247\n        /* \"Heliocontracts/contracts/ceros/CeVault.sol\":4385:4435  IERC20(_aBNBc).safeTransfer(recipient, realAmount) */\n      jump\t// in\n    tag_315:\n        /* \"Heliocontracts/contracts/ceros/CeVault.sol\":4467:4476  recipient */\n      dup6\n      sub(shl(0xa0, 0x01), 0x01)\n        /* \"Heliocontracts/contracts/ceros/CeVault.sol\":4450:4489  Withdrawn(owner, recipient, realAmount) */\n      and\n        /* \"Heliocontracts/contracts/ceros/CeVault.sol\":4460:4465  owner */\n      dup8\n      sub(shl(0xa0, 0x01), 0x01)\n        /* \"Heliocontracts/contracts/ceros/CeVault.sol\":4450:4489  Withdrawn(owner, recipient, realAmount) */\n      and\n      0xd1c19fbcd4551a5edfb66d43d2e337c04837afda3482b42bdf569a8fccdae5fb\n        /* \"Heliocontracts/contracts/ceros/CeVault.sol\":4478:4488  realAmount */\n      dup5\n        /* \"Heliocontracts/contracts/ceros/CeVault.sol\":4450:4489  Withdrawn(owner, recipient, realAmount) */\n      mload(0x40)\n      tag_316\n      swap2\n        /* \"#utility.yul\":811:836   */\n      dup2\n      mstore\n        /* \"#utility.yul\":799:801   */\n      0x20\n        /* \"#utility.yul\":784:802   */\n      add\n      swap1\n        /* \"#utility.yul\":665:842   */\n      jump\n        /* \"Heliocontracts/contracts/ceros/CeVault.sol\":4450:4489  Withdrawn(owner, recipient, realAmount) */\n    tag_316:\n      mload(0x40)\n      dup1\n      swap2\n      sub\n      swap1\n      log3\n      pop\n        /* \"Heliocontracts/contracts/ceros/CeVault.sol\":4506:4516  realAmount */\n      swap6\n        /* \"Heliocontracts/contracts/ceros/CeVault.sol\":3729:4523  function _withdraw(... */\n      swap5\n      pop\n      pop\n      pop\n      pop\n      pop\n      jump\t// out\n        /* \"@openzeppelin/contracts/token/ERC20/utils/SafeERC20.sol\":763:968  function safeTransfer(... */\n    tag_247:\n        /* \"@openzeppelin/contracts/token/ERC20/utils/SafeERC20.sol\":902:960  abi.encodeWithSelector(token.transfer.selector, to, value) */\n      mload(0x40)\n      sub(shl(0xa0, 0x01), 0x01)\n        /* \"#utility.yul\":7516:7548   */\n      dup4\n      and\n        /* \"@openzeppelin/contracts/token/ERC20/utils/SafeERC20.sol\":902:960  abi.encodeWithSelector(token.transfer.selector, to, value) */\n      0x24\n      dup3\n      add\n        /* \"#utility.yul\":7498:7549   */\n      mstore\n        /* \"#utility.yul\":7565:7583   */\n      0x44\n      dup2\n      add\n        /* \"#utility.yul\":7558:7592   */\n      dup3\n      swap1\n      mstore\n        /* \"@openzeppelin/contracts/token/ERC20/utils/SafeERC20.sol\":875:961  _callOptionalReturn(token, abi.encodeWithSelector(token.transfer.selector, to, value)) */\n      tag_318\n      swap1\n        /* \"@openzeppelin/contracts/token/ERC20/utils/SafeERC20.sol\":895:900  token */\n      dup5\n      swap1\n      shl(0xe0, 0xa9059cbb)\n        /* \"@openzeppelin/contracts/token/ERC20/utils/SafeERC20.sol\":925:948  token.transfer.selector */\n      swap1\n        /* \"#utility.yul\":7471:7489   */\n      0x64\n      add\n        /* \"@openzeppelin/contracts/token/ERC20/utils/SafeERC20.sol\":902:960  abi.encodeWithSelector(token.transfer.selector, to, value) */\n    tag_319:\n      0x40\n      dup1\n      mload\n      not(0x1f)\n      dup2\n      dup5\n      sub\n      add\n      dup2\n      mstore\n      swap2\n      swap1\n      mstore\n      0x20\n      dup2\n      add\n      dup1\n      mload\n      sub(shl(0xe0, 0x01), 0x01)\n      and\n      not(sub(shl(0xe0, 0x01), 0x01))\n      swap1\n      swap4\n      and\n      swap3\n      swap1\n      swap3\n      or\n      swap1\n      swap2\n      mstore\n        /* \"@openzeppelin/contracts/token/ERC20/utils/SafeERC20.sol\":875:894  _callOptionalReturn */\n      tag_320\n        /* \"@openzeppelin/contracts/token/ERC20/utils/SafeERC20.sol\":875:961  _callOptionalReturn(token, abi.encodeWithSelector(token.transfer.selector, to, value)) */\n      jump\t// in\n    tag_318:\n        /* \"@openzeppelin/contracts/token/ERC20/utils/SafeERC20.sol\":763:968  function safeTransfer(... */\n      pop\n      pop\n      pop\n      jump\t// out\n        /* \"@openzeppelin/contracts/token/ERC20/utils/SafeERC20.sol\":974:1215  function safeTransferFrom(... */\n    tag_254:\n        /* \"@openzeppelin/contracts/token/ERC20/utils/SafeERC20.sol\":1139:1207  abi.encodeWithSelector(token.transferFrom.selector, from, to, value) */\n      mload(0x40)\n      sub(shl(0xa0, 0x01), 0x01)\n        /* \"#utility.yul\":9340:9355   */\n      dup1\n      dup6\n      and\n        /* \"@openzeppelin/contracts/token/ERC20/utils/SafeERC20.sol\":1139:1207  abi.encodeWithSelector(token.transferFrom.selector, from, to, value) */\n      0x24\n      dup4\n      add\n        /* \"#utility.yul\":9322:9356   */\n      mstore\n        /* \"#utility.yul\":9392:9407   */\n      dup4\n      and\n        /* \"#utility.yul\":9372:9390   */\n      0x44\n      dup3\n      add\n        /* \"#utility.yul\":9365:9408   */\n      mstore\n        /* \"#utility.yul\":9424:9442   */\n      0x64\n      dup2\n      add\n        /* \"#utility.yul\":9417:9451   */\n      dup3\n      swap1\n      mstore\n        /* \"@openzeppelin/contracts/token/ERC20/utils/SafeERC20.sol\":1112:1208  _callOptionalReturn(token, abi.encodeWithSelector(token.transferFrom.selector, from, to, value)) */\n      tag_178\n      swap1\n        /* \"@openzeppelin/contracts/token/ERC20/utils/SafeERC20.sol\":1132:1137  token */\n      dup6\n      swap1\n      shl(0xe0, 0x23b872dd)\n        /* \"@openzeppelin/contracts/token/ERC20/utils/SafeERC20.sol\":1162:1189  token.transferFrom.selector */\n      swap1\n        /* \"#utility.yul\":9257:9275   */\n      0x84\n      add\n        /* \"@openzeppelin/contracts/token/ERC20/utils/SafeERC20.sol\":1139:1207  abi.encodeWithSelector(token.transferFrom.selector, from, to, value) */\n      tag_319\n        /* \"#utility.yul\":9082:9457   */\n      jump\n        /* \"@openzeppelin/contracts-upgradeable/access/OwnableUpgradeable.sol\":1104:1215  function __Ownable_init_unchained() internal onlyInitializing {... */\n    tag_279:\n        /* \"@openzeppelin/contracts-upgradeable/proxy/utils/Initializable.sol\":4910:4923  _initializing */\n      sload(0x00)\n      0x0100\n      swap1\n      div\n      0xff\n      and\n        /* \"@openzeppelin/contracts-upgradeable/proxy/utils/Initializable.sol\":4902:4971  require(_initializing, \"Initializable: contract is not initializing\") */\n      tag_327\n      jumpi\n      mload(0x40)\n      shl(0xe5, 0x461bcd)\n      dup2\n      mstore\n      0x04\n      add\n      tag_117\n      swap1\n      tag_276\n      jump\t// in\n    tag_327:\n        /* \"@openzeppelin/contracts-upgradeable/access/OwnableUpgradeable.sol\":1176:1208  _transferOwnership(_msgSender()) */\n      tag_186\n        /* \"@openzeppelin/contracts-upgradeable/utils/ContextUpgradeable.sol\":929:939  msg.sender */\n      caller\n        /* \"@openzeppelin/contracts-upgradeable/access/OwnableUpgradeable.sol\":1176:1194  _transferOwnership */\n      tag_187\n        /* \"@openzeppelin/contracts-upgradeable/access/OwnableUpgradeable.sol\":1176:1208  _transferOwnership(_msgSender()) */\n      jump\t// in\n        /* \"@openzeppelin/contracts-upgradeable/security/PausableUpgradeable.sol\":1166:1261  function __Pausable_init_unchained() internal onlyInitializing {... */\n    tag_285:\n        /* \"@openzeppelin/contracts-upgradeable/proxy/utils/Initializable.sol\":4910:4923  _initializing */\n      sload(0x00)\n      0x0100\n      swap1\n      div\n      0xff\n      and\n        /* \"@openzeppelin/contracts-upgradeable/proxy/utils/Initializable.sol\":4902:4971  require(_initializing, \"Initializable: contract is not initializing\") */\n      tag_333\n      jumpi\n      mload(0x40)\n      shl(0xe5, 0x461bcd)\n      dup2\n      mstore\n      0x04\n      add\n      tag_117\n      swap1\n      tag_276\n      jump\t// in\n    tag_333:\n        /* \"@openzeppelin/contracts-upgradeable/security/PausableUpgradeable.sol\":1239:1246  _paused */\n      0x65\n        /* \"@openzeppelin/contracts-upgradeable/security/PausableUpgradeable.sol\":1239:1254  _paused = false */\n      dup1\n      sload\n      not(0xff)\n      and\n      swap1\n      sstore\n        /* \"@openzeppelin/contracts-upgradeable/security/PausableUpgradeable.sol\":1166:1261  function __Pausable_init_unchained() internal onlyInitializing {... */\n      jump\t// out\n        /* \"@openzeppelin/contracts-upgradeable/security/ReentrancyGuardUpgradeable.sol\":1970:2079  function __ReentrancyGuard_init_unchained() internal onlyInitializing {... */\n    tag_291:\n        /* \"@openzeppelin/contracts-upgradeable/proxy/utils/Initializable.sol\":4910:4923  _initializing */\n      sload(0x00)\n      0x0100\n      swap1\n      div\n      0xff\n      and\n        /* \"@openzeppelin/contracts-upgradeable/proxy/utils/Initializable.sol\":4902:4971  require(_initializing, \"Initializable: contract is not initializing\") */\n      tag_337\n      jumpi\n      mload(0x40)\n      shl(0xe5, 0x461bcd)\n      dup2\n      mstore\n      0x04\n      add\n      tag_117\n      swap1\n      tag_276\n      jump\t// in\n    tag_337:\n        /* \"@openzeppelin/contracts-upgradeable/security/ReentrancyGuardUpgradeable.sol\":1772:1773  1 */\n      0x01\n        /* \"@openzeppelin/contracts-upgradeable/security/ReentrancyGuardUpgradeable.sol\":2050:2057  _status */\n      0x97\n        /* \"@openzeppelin/contracts-upgradeable/security/ReentrancyGuardUpgradeable.sol\":2050:2072  _status = _NOT_ENTERED */\n      sstore\n        /* \"@openzeppelin/contracts-upgradeable/security/ReentrancyGuardUpgradeable.sol\":1970:2079  function __ReentrancyGuard_init_unchained() internal onlyInitializing {... */\n      jump\t// out\n        /* \"@openzeppelin/contracts/token/ERC20/utils/SafeERC20.sol\":3747:4453  function _callOptionalReturn(IERC20 token, bytes memory data) private {... */\n    tag_320:\n        /* \"@openzeppelin/contracts/token/ERC20/utils/SafeERC20.sol\":4166:4189  bytes memory returndata */\n      0x00\n        /* \"@openzeppelin/contracts/token/ERC20/utils/SafeERC20.sol\":4192:4261  address(token).functionCall(data, \"SafeERC20: low-level call failed\") */\n      tag_341\n        /* \"@openzeppelin/contracts/token/ERC20/utils/SafeERC20.sol\":4220:4224  data */\n      dup3\n        /* \"@openzeppelin/contracts/token/ERC20/utils/SafeERC20.sol\":4192:4261  address(token).functionCall(data, \"SafeERC20: low-level call failed\") */\n      mload(0x40)\n      dup1\n      0x40\n      add\n      0x40\n      mstore\n      dup1\n      0x20\n      dup2\n      mstore\n      0x20\n      add\n      0x5361666545524332303a206c6f772d6c6576656c2063616c6c206661696c6564\n      dup2\n      mstore\n      pop\n        /* \"@openzeppelin/contracts/token/ERC20/utils/SafeERC20.sol\":4200:4205  token */\n      dup6\n      sub(shl(0xa0, 0x01), 0x01)\n        /* \"@openzeppelin/contracts/token/ERC20/utils/SafeERC20.sol\":4192:4219  address(token).functionCall */\n      and\n      tag_342\n      swap1\n        /* \"@openzeppelin/contracts/token/ERC20/utils/SafeERC20.sol\":4192:4261  address(token).functionCall(data, \"SafeERC20: low-level call failed\") */\n      swap3\n      swap2\n      swap1\n      0xffffffff\n      and\n      jump\t// in\n    tag_341:\n        /* \"@openzeppelin/contracts/token/ERC20/utils/SafeERC20.sol\":4275:4292  returndata.length */\n      dup1\n      mload\n        /* \"@openzeppelin/contracts/token/ERC20/utils/SafeERC20.sol\":4166:4261  bytes memory returndata = address(token).functionCall(data, \"SafeERC20: low-level call failed\") */\n      swap1\n      swap2\n      pop\n        /* \"@openzeppelin/contracts/token/ERC20/utils/SafeERC20.sol\":4275:4296  returndata.length > 0 */\n      iszero\n        /* \"@openzeppelin/contracts/token/ERC20/utils/SafeERC20.sol\":4271:4447  if (returndata.length > 0) {... */\n      tag_318\n      jumpi\n        /* \"@openzeppelin/contracts/token/ERC20/utils/SafeERC20.sol\":4370:4380  returndata */\n      dup1\n        /* \"@openzeppelin/contracts/token/ERC20/utils/SafeERC20.sol\":4359:4389  abi.decode(returndata, (bool)) */\n      dup1\n      0x20\n      add\n      swap1\n      mload\n      dup2\n      add\n      swap1\n      tag_344\n      swap2\n      swap1\n      tag_345\n      jump\t// in\n    tag_344:\n        /* \"@openzeppelin/contracts/token/ERC20/utils/SafeERC20.sol\":4351:4436  require(abi.decode(returndata, (bool)), \"SafeERC20: ERC20 operation did not succeed\") */\n      tag_318\n      jumpi\n      mload(0x40)\n      shl(0xe5, 0x461bcd)\n      dup2\n      mstore\n        /* \"#utility.yul\":9946:9948   */\n      0x20\n        /* \"@openzeppelin/contracts/token/ERC20/utils/SafeERC20.sol\":4351:4436  require(abi.decode(returndata, (bool)), \"SafeERC20: ERC20 operation did not succeed\") */\n      0x04\n      dup3\n      add\n        /* \"#utility.yul\":9928:9949   */\n      mstore\n        /* \"#utility.yul\":9985:9987   */\n      0x2a\n        /* \"#utility.yul\":9965:9983   */\n      0x24\n      dup3\n      add\n        /* \"#utility.yul\":9958:9988   */\n      mstore\n        /* \"#utility.yul\":10024:10058   */\n      0x5361666545524332303a204552433230206f7065726174696f6e20646964206e\n        /* \"#utility.yul\":10004:10022   */\n      0x44\n      dup3\n      add\n        /* \"#utility.yul\":9997:10059   */\n      mstore\n      shl(0xb2, 0x1bdd081cdd58d8d95959)\n        /* \"#utility.yul\":10075:10093   */\n      0x64\n      dup3\n      add\n        /* \"#utility.yul\":10068:10108   */\n      mstore\n        /* \"#utility.yul\":10125:10144   */\n      0x84\n      add\n        /* \"@openzeppelin/contracts/token/ERC20/utils/SafeERC20.sol\":4351:4436  require(abi.decode(returndata, (bool)), \"SafeERC20: ERC20 operation did not succeed\") */\n      tag_117\n        /* \"#utility.yul\":9744:10150   */\n      jump\n        /* \"@openzeppelin/contracts/utils/Address.sol\":3873:4096  function functionCall(... */\n    tag_342:\n        /* \"@openzeppelin/contracts/utils/Address.sol\":4006:4018  bytes memory */\n      0x60\n        /* \"@openzeppelin/contracts/utils/Address.sol\":4037:4089  functionCallWithValue(target, data, 0, errorMessage) */\n      tag_143\n        /* \"@openzeppelin/contracts/utils/Address.sol\":4059:4065  target */\n      dup5\n        /* \"@openzeppelin/contracts/utils/Address.sol\":4067:4071  data */\n      dup5\n        /* \"@openzeppelin/contracts/utils/Address.sol\":4073:4074  0 */\n      0x00\n        /* \"@openzeppelin/contracts/utils/Address.sol\":4076:4088  errorMessage */\n      dup6\n        /* \"@openzeppelin/contracts/utils/Address.sol\":4006:4018  bytes memory */\n      dup6\n        /* \"@openzeppelin/contracts/utils/Address.sol\":5241:5253  bool success */\n      0x00\n        /* \"@openzeppelin/contracts/utils/Address.sol\":5255:5278  bytes memory returndata */\n      dup1\n        /* \"@openzeppelin/contracts/utils/Address.sol\":5282:5288  target */\n      dup7\n      sub(shl(0xa0, 0x01), 0x01)\n        /* \"@openzeppelin/contracts/utils/Address.sol\":5282:5293  target.call */\n      and\n        /* \"@openzeppelin/contracts/utils/Address.sol\":5301:5306  value */\n      dup6\n        /* \"@openzeppelin/contracts/utils/Address.sol\":5308:5312  data */\n      dup8\n        /* \"@openzeppelin/contracts/utils/Address.sol\":5282:5313  target.call{value: value}(data) */\n      mload(0x40)\n      tag_356\n      swap2\n      swap1\n      tag_357\n      jump\t// in\n    tag_356:\n      0x00\n      mload(0x40)\n      dup1\n      dup4\n      sub\n      dup2\n      dup6\n      dup8\n      gas\n      call\n      swap3\n      pop\n      pop\n      pop\n      returndatasize\n      dup1\n      0x00\n      dup2\n      eq\n      tag_360\n      jumpi\n      mload(0x40)\n      swap2\n      pop\n      and(add(returndatasize, 0x3f), not(0x1f))\n      dup3\n      add\n      0x40\n      mstore\n      returndatasize\n      dup3\n      mstore\n      returndatasize\n      0x00\n      0x20\n      dup5\n      add\n      returndatacopy\n      jump(tag_359)\n    tag_360:\n      0x60\n      swap2\n      pop\n    tag_359:\n      pop\n        /* \"@openzeppelin/contracts/utils/Address.sol\":5240:5313  (bool success, bytes memory returndata) = target.call{value: value}(data) */\n      swap2\n      pop\n      swap2\n      pop\n        /* \"@openzeppelin/contracts/utils/Address.sol\":5330:5399  verifyCallResultFromTarget(target, success, returndata, errorMessage) */\n      tag_361\n        /* \"@openzeppelin/contracts/utils/Address.sol\":5357:5363  target */\n      dup8\n        /* \"@openzeppelin/contracts/utils/Address.sol\":5365:5372  success */\n      dup4\n        /* \"@openzeppelin/contracts/utils/Address.sol\":5374:5384  returndata */\n      dup4\n        /* \"@openzeppelin/contracts/utils/Address.sol\":5386:5398  errorMessage */\n      dup8\n        /* \"@openzeppelin/contracts/utils/Address.sol\":5330:5356  verifyCallResultFromTarget */\n      tag_362\n        /* \"@openzeppelin/contracts/utils/Address.sol\":5330:5399  verifyCallResultFromTarget(target, success, returndata, errorMessage) */\n      jump\t// in\n    tag_361:\n        /* \"@openzeppelin/contracts/utils/Address.sol\":5323:5399  return verifyCallResultFromTarget(target, success, returndata, errorMessage) */\n      swap8\n        /* \"@openzeppelin/contracts/utils/Address.sol\":4960:5406  function functionCallWithValue(... */\n      swap7\n      pop\n      pop\n      pop\n      pop\n      pop\n      pop\n      pop\n      jump\t// out\n        /* \"@openzeppelin/contracts/utils/Address.sol\":7466:8094  function verifyCallResultFromTarget(... */\n    tag_362:\n        /* \"@openzeppelin/contracts/utils/Address.sol\":7646:7658  bytes memory */\n      0x60\n        /* \"@openzeppelin/contracts/utils/Address.sol\":7674:7681  success */\n      dup4\n        /* \"@openzeppelin/contracts/utils/Address.sol\":7670:8088  if (success) {... */\n      iszero\n      tag_364\n      jumpi\n        /* \"@openzeppelin/contracts/utils/Address.sol\":7701:7718  returndata.length */\n      dup3\n      mload\n        /* \"@openzeppelin/contracts/utils/Address.sol\":7697:7983  if (returndata.length == 0) {... */\n      tag_368\n      jumpi\n      sub(shl(0xa0, 0x01), 0x01)\n        /* \"@openzeppelin/contracts-upgradeable/utils/AddressUpgradeable.sol\":1476:1495  account.code.length */\n      dup6\n      and\n      extcodesize\n        /* \"@openzeppelin/contracts/utils/Address.sol\":7908:7968  require(isContract(target), \"Address: call to non-contract\") */\n      tag_368\n      jumpi\n      mload(0x40)\n      shl(0xe5, 0x461bcd)\n      dup2\n      mstore\n        /* \"#utility.yul\":11043:11045   */\n      0x20\n        /* \"@openzeppelin/contracts/utils/Address.sol\":7908:7968  require(isContract(target), \"Address: call to non-contract\") */\n      0x04\n      dup3\n      add\n        /* \"#utility.yul\":11025:11046   */\n      mstore\n        /* \"#utility.yul\":11082:11084   */\n      0x1d\n        /* \"#utility.yul\":11062:11080   */\n      0x24\n      dup3\n      add\n        /* \"#utility.yul\":11055:11085   */\n      mstore\n        /* \"#utility.yul\":11121:11152   */\n      0x416464726573733a2063616c6c20746f206e6f6e2d636f6e7472616374000000\n        /* \"#utility.yul\":11101:11119   */\n      0x44\n      dup3\n      add\n        /* \"#utility.yul\":11094:11153   */\n      mstore\n        /* \"#utility.yul\":11170:11188   */\n      0x64\n      add\n        /* \"@openzeppelin/contracts/utils/Address.sol\":7908:7968  require(isContract(target), \"Address: call to non-contract\") */\n      tag_117\n        /* \"#utility.yul\":10841:11194   */\n      jump\n        /* \"@openzeppelin/contracts/utils/Address.sol\":7908:7968  require(isContract(target), \"Address: call to non-contract\") */\n    tag_368:\n      pop\n        /* \"@openzeppelin/contracts/utils/Address.sol\":8003:8013  returndata */\n      dup2\n        /* \"@openzeppelin/contracts/utils/Address.sol\":7996:8013  return returndata */\n      jump(tag_143)\n        /* \"@openzeppelin/contracts/utils/Address.sol\":7670:8088  if (success) {... */\n    tag_364:\n        /* \"@openzeppelin/contracts/utils/Address.sol\":8044:8077  _revert(returndata, errorMessage) */\n      tag_143\n        /* \"@openzeppelin/contracts/utils/Address.sol\":8052:8062  returndata */\n      dup4\n        /* \"@openzeppelin/contracts/utils/Address.sol\":8064:8076  errorMessage */\n      dup4\n        /* \"@openzeppelin/contracts/utils/Address.sol\":8775:8792  returndata.length */\n      dup2\n      mload\n        /* \"@openzeppelin/contracts/utils/Address.sol\":8775:8796  returndata.length > 0 */\n      iszero\n        /* \"@openzeppelin/contracts/utils/Address.sol\":8771:9150  if (returndata.length > 0) {... */\n      tag_376\n      jumpi\n        /* \"@openzeppelin/contracts/utils/Address.sol\":9003:9013  returndata */\n      dup2\n        /* \"@openzeppelin/contracts/utils/Address.sol\":8997:9014  mload(returndata) */\n      mload\n        /* \"@openzeppelin/contracts/utils/Address.sol\":9059:9074  returndata_size */\n      dup1\n        /* \"@openzeppelin/contracts/utils/Address.sol\":9046:9056  returndata */\n      dup4\n        /* \"@openzeppelin/contracts/utils/Address.sol\":9042:9044  32 */\n      0x20\n        /* \"@openzeppelin/contracts/utils/Address.sol\":9038:9057  add(32, returndata) */\n      add\n        /* \"@openzeppelin/contracts/utils/Address.sol\":9031:9075  revert(add(32, returndata), returndata_size) */\n      revert\n        /* \"@openzeppelin/contracts/utils/Address.sol\":8771:9150  if (returndata.length > 0) {... */\n    tag_376:\n        /* \"@openzeppelin/contracts/utils/Address.sol\":9126:9138  errorMessage */\n      dup1\n        /* \"@openzeppelin/contracts/utils/Address.sol\":9119:9139  revert(errorMessage) */\n      mload(0x40)\n      shl(0xe5, 0x461bcd)\n      dup2\n      mstore\n      0x04\n      add\n      tag_117\n      swap2\n      swap1\n      tag_41\n      jump\t// in\n    tag_177:\n      dup3\n      dup1\n      sload\n      tag_379\n      swap1\n      tag_128\n      jump\t// in\n    tag_379:\n      swap1\n      0x00\n      mstore\n      keccak256(0x00, 0x20)\n      swap1\n      0x1f\n      add\n      0x20\n      swap1\n      div\n      dup2\n      add\n      swap3\n      dup3\n      tag_381\n      jumpi\n      0x00\n      dup6\n      sstore\n      jump(tag_384)\n    tag_381:\n      dup3\n      0x1f\n      lt\n      tag_382\n      jumpi\n      dup1\n      mload\n      not(0xff)\n      and\n      dup4\n      dup1\n      add\n      or\n      dup6\n      sstore\n      jump(tag_384)\n    tag_382:\n      dup3\n      dup1\n      add\n      0x01\n      add\n      dup6\n      sstore\n      dup3\n      iszero\n      tag_384\n      jumpi\n      swap2\n      dup3\n      add\n    tag_383:\n      dup3\n      dup2\n      gt\n      iszero\n      tag_384\n      jumpi\n      dup3\n      mload\n      dup3\n      sstore\n      swap2\n      0x20\n      add\n      swap2\n      swap1\n      0x01\n      add\n      swap1\n      jump(tag_383)\n    tag_384:\n      pop\n      tag_385\n      swap3\n      swap2\n      pop\n      tag_386\n      jump\t// in\n    tag_385:\n      pop\n      swap1\n      jump\t// out\n    tag_386:\n    tag_387:\n      dup1\n      dup3\n      gt\n      iszero\n      tag_385\n      jumpi\n      0x00\n      dup2\n      sstore\n      0x01\n      add\n      jump(tag_387)\n        /* \"#utility.yul\":222:395   */\n    tag_389:\n        /* \"#utility.yul\":290:310   */\n      dup1\n      calldataload\n      sub(shl(0xa0, 0x01), 0x01)\n        /* \"#utility.yul\":339:370   */\n      dup2\n      and\n        /* \"#utility.yul\":329:371   */\n      dup2\n      eq\n        /* \"#utility.yul\":319:389   */\n      tag_396\n      jumpi\n        /* \"#utility.yul\":385:386   */\n      0x00\n        /* \"#utility.yul\":382:383   */\n      dup1\n        /* \"#utility.yul\":375:387   */\n      revert\n        /* \"#utility.yul\":319:389   */\n    tag_396:\n        /* \"#utility.yul\":222:395   */\n      swap2\n      swap1\n      pop\n      jump\t// out\n        /* \"#utility.yul\":400:660   */\n    tag_34:\n        /* \"#utility.yul\":468:474   */\n      0x00\n        /* \"#utility.yul\":476:482   */\n      dup1\n        /* \"#utility.yul\":529:531   */\n      0x40\n        /* \"#utility.yul\":517:526   */\n      dup4\n        /* \"#utility.yul\":508:515   */\n      dup6\n        /* \"#utility.yul\":504:527   */\n      sub\n        /* \"#utility.yul\":500:532   */\n      slt\n        /* \"#utility.yul\":497:549   */\n      iszero\n      tag_398\n      jumpi\n        /* \"#utility.yul\":545:546   */\n      0x00\n        /* \"#utility.yul\":542:543   */\n      dup1\n        /* \"#utility.yul\":535:547   */\n      revert\n        /* \"#utility.yul\":497:549   */\n    tag_398:\n        /* \"#utility.yul\":568:597   */\n      tag_399\n        /* \"#utility.yul\":587:596   */\n      dup4\n        /* \"#utility.yul\":568:597   */\n      tag_389\n      jump\t// in\n    tag_399:\n        /* \"#utility.yul\":558:597   */\n      swap2\n      pop\n        /* \"#utility.yul\":616:654   */\n      tag_400\n        /* \"#utility.yul\":650:652   */\n      0x20\n        /* \"#utility.yul\":639:648   */\n      dup5\n        /* \"#utility.yul\":635:653   */\n      add\n        /* \"#utility.yul\":616:654   */\n      tag_389\n      jump\t// in\n    tag_400:\n        /* \"#utility.yul\":606:654   */\n      swap1\n      pop\n        /* \"#utility.yul\":400:660   */\n      swap3\n      pop\n      swap3\n      swap1\n      pop\n      jump\t// out\n        /* \"#utility.yul\":847:1105   */\n    tag_390:\n        /* \"#utility.yul\":919:920   */\n      0x00\n        /* \"#utility.yul\":929:1042   */\n    tag_403:\n        /* \"#utility.yul\":943:949   */\n      dup4\n        /* \"#utility.yul\":940:941   */\n      dup2\n        /* \"#utility.yul\":937:950   */\n      lt\n        /* \"#utility.yul\":929:1042   */\n      iszero\n      tag_405\n      jumpi\n        /* \"#utility.yul\":1019:1030   */\n      dup2\n      dup2\n      add\n        /* \"#utility.yul\":1013:1031   */\n      mload\n        /* \"#utility.yul\":1000:1011   */\n      dup4\n      dup3\n      add\n        /* \"#utility.yul\":993:1032   */\n      mstore\n        /* \"#utility.yul\":965:967   */\n      0x20\n        /* \"#utility.yul\":958:968   */\n      add\n        /* \"#utility.yul\":929:1042   */\n      jump(tag_403)\n    tag_405:\n        /* \"#utility.yul\":1060:1066   */\n      dup4\n        /* \"#utility.yul\":1057:1058   */\n      dup2\n        /* \"#utility.yul\":1054:1067   */\n      gt\n        /* \"#utility.yul\":1051:1099   */\n      iszero\n      tag_178\n      jumpi\n      pop\n      pop\n        /* \"#utility.yul\":1095:1096   */\n      0x00\n        /* \"#utility.yul\":1077:1093   */\n      swap2\n      add\n        /* \"#utility.yul\":1070:1097   */\n      mstore\n        /* \"#utility.yul\":847:1105   */\n      jump\t// out\n        /* \"#utility.yul\":1110:1493   */\n    tag_41:\n        /* \"#utility.yul\":1259:1261   */\n      0x20\n        /* \"#utility.yul\":1248:1257   */\n      dup2\n        /* \"#utility.yul\":1241:1262   */\n      mstore\n        /* \"#utility.yul\":1222:1226   */\n      0x00\n        /* \"#utility.yul\":1291:1297   */\n      dup3\n        /* \"#utility.yul\":1285:1298   */\n      mload\n        /* \"#utility.yul\":1334:1340   */\n      dup1\n        /* \"#utility.yul\":1329:1331   */\n      0x20\n        /* \"#utility.yul\":1318:1327   */\n      dup5\n        /* \"#utility.yul\":1314:1332   */\n      add\n        /* \"#utility.yul\":1307:1341   */\n      mstore\n        /* \"#utility.yul\":1350:1416   */\n      tag_408\n        /* \"#utility.yul\":1409:1415   */\n      dup2\n        /* \"#utility.yul\":1404:1406   */\n      0x40\n        /* \"#utility.yul\":1393:1402   */\n      dup6\n        /* \"#utility.yul\":1389:1407   */\n      add\n        /* \"#utility.yul\":1384:1386   */\n      0x20\n        /* \"#utility.yul\":1376:1382   */\n      dup8\n        /* \"#utility.yul\":1372:1387   */\n      add\n        /* \"#utility.yul\":1350:1416   */\n      tag_390\n      jump\t// in\n    tag_408:\n        /* \"#utility.yul\":1477:1479   */\n      0x1f\n        /* \"#utility.yul\":1456:1471   */\n      add\n      not(0x1f)\n        /* \"#utility.yul\":1452:1481   */\n      and\n        /* \"#utility.yul\":1437:1482   */\n      swap2\n      swap1\n      swap2\n      add\n        /* \"#utility.yul\":1484:1486   */\n      0x40\n        /* \"#utility.yul\":1433:1487   */\n      add\n      swap3\n        /* \"#utility.yul\":1110:1493   */\n      swap2\n      pop\n      pop\n      jump\t// out\n        /* \"#utility.yul\":1498:1684   */\n    tag_44:\n        /* \"#utility.yul\":1557:1563   */\n      0x00\n        /* \"#utility.yul\":1610:1612   */\n      0x20\n        /* \"#utility.yul\":1598:1607   */\n      dup3\n        /* \"#utility.yul\":1589:1596   */\n      dup5\n        /* \"#utility.yul\":1585:1608   */\n      sub\n        /* \"#utility.yul\":1581:1613   */\n      slt\n        /* \"#utility.yul\":1578:1630   */\n      iszero\n      tag_410\n      jumpi\n        /* \"#utility.yul\":1626:1627   */\n      0x00\n        /* \"#utility.yul\":1623:1624   */\n      dup1\n        /* \"#utility.yul\":1616:1628   */\n      revert\n        /* \"#utility.yul\":1578:1630   */\n    tag_410:\n        /* \"#utility.yul\":1649:1678   */\n      tag_204\n        /* \"#utility.yul\":1668:1677   */\n      dup3\n        /* \"#utility.yul\":1649:1678   */\n      tag_389\n      jump\t// in\n        /* \"#utility.yul\":1689:1943   */\n    tag_49:\n        /* \"#utility.yul\":1757:1763   */\n      0x00\n        /* \"#utility.yul\":1765:1771   */\n      dup1\n        /* \"#utility.yul\":1818:1820   */\n      0x40\n        /* \"#utility.yul\":1806:1815   */\n      dup4\n        /* \"#utility.yul\":1797:1804   */\n      dup6\n        /* \"#utility.yul\":1793:1816   */\n      sub\n        /* \"#utility.yul\":1789:1821   */\n      slt\n        /* \"#utility.yul\":1786:1838   */\n      iszero\n      tag_413\n      jumpi\n        /* \"#utility.yul\":1834:1835   */\n      0x00\n        /* \"#utility.yul\":1831:1832   */\n      dup1\n        /* \"#utility.yul\":1824:1836   */\n      revert\n        /* \"#utility.yul\":1786:1838   */\n    tag_413:\n        /* \"#utility.yul\":1857:1886   */\n      tag_414\n        /* \"#utility.yul\":1876:1885   */\n      dup4\n        /* \"#utility.yul\":1857:1886   */\n      tag_389\n      jump\t// in\n    tag_414:\n        /* \"#utility.yul\":1847:1886   */\n      swap5\n        /* \"#utility.yul\":1933:1935   */\n      0x20\n        /* \"#utility.yul\":1918:1936   */\n      swap4\n      swap1\n      swap4\n      add\n        /* \"#utility.yul\":1905:1937   */\n      calldataload\n      swap4\n      pop\n      pop\n      pop\n        /* \"#utility.yul\":1689:1943   */\n      jump\t// out\n        /* \"#utility.yul\":1948:2075   */\n    tag_391:\n        /* \"#utility.yul\":2009:2019   */\n      0x4e487b71\n        /* \"#utility.yul\":2004:2007   */\n      0xe0\n        /* \"#utility.yul\":2000:2020   */\n      shl\n        /* \"#utility.yul\":1997:1998   */\n      0x00\n        /* \"#utility.yul\":1990:2021   */\n      mstore\n        /* \"#utility.yul\":2040:2044   */\n      0x41\n        /* \"#utility.yul\":2037:2038   */\n      0x04\n        /* \"#utility.yul\":2030:2045   */\n      mstore\n        /* \"#utility.yul\":2064:2068   */\n      0x24\n        /* \"#utility.yul\":2061:2062   */\n      0x00\n        /* \"#utility.yul\":2054:2069   */\n      revert\n        /* \"#utility.yul\":2080:3160   */\n    tag_61:\n        /* \"#utility.yul\":2167:2173   */\n      0x00\n        /* \"#utility.yul\":2175:2181   */\n      dup1\n        /* \"#utility.yul\":2183:2189   */\n      0x00\n        /* \"#utility.yul\":2236:2238   */\n      0x60\n        /* \"#utility.yul\":2224:2233   */\n      dup5\n        /* \"#utility.yul\":2215:2222   */\n      dup7\n        /* \"#utility.yul\":2211:2234   */\n      sub\n        /* \"#utility.yul\":2207:2239   */\n      slt\n        /* \"#utility.yul\":2204:2256   */\n      iszero\n      tag_417\n      jumpi\n        /* \"#utility.yul\":2252:2253   */\n      0x00\n        /* \"#utility.yul\":2249:2250   */\n      dup1\n        /* \"#utility.yul\":2242:2254   */\n      revert\n        /* \"#utility.yul\":2204:2256   */\n    tag_417:\n        /* \"#utility.yul\":2292:2301   */\n      dup4\n        /* \"#utility.yul\":2279:2302   */\n      calldataload\n        /* \"#utility.yul\":2321:2339   */\n      0xffffffffffffffff\n        /* \"#utility.yul\":2362:2364   */\n      dup1\n        /* \"#utility.yul\":2354:2360   */\n      dup3\n        /* \"#utility.yul\":2351:2365   */\n      gt\n        /* \"#utility.yul\":2348:2382   */\n      iszero\n      tag_418\n      jumpi\n        /* \"#utility.yul\":2378:2379   */\n      0x00\n        /* \"#utility.yul\":2375:2376   */\n      dup1\n        /* \"#utility.yul\":2368:2380   */\n      revert\n        /* \"#utility.yul\":2348:2382   */\n    tag_418:\n        /* \"#utility.yul\":2416:2422   */\n      dup2\n        /* \"#utility.yul\":2405:2414   */\n      dup7\n        /* \"#utility.yul\":2401:2423   */\n      add\n        /* \"#utility.yul\":2391:2423   */\n      swap2\n      pop\n        /* \"#utility.yul\":2461:2468   */\n      dup7\n        /* \"#utility.yul\":2454:2458   */\n      0x1f\n        /* \"#utility.yul\":2450:2452   */\n      dup4\n        /* \"#utility.yul\":2446:2459   */\n      add\n        /* \"#utility.yul\":2442:2469   */\n      slt\n        /* \"#utility.yul\":2432:2487   */\n      tag_419\n      jumpi\n        /* \"#utility.yul\":2483:2484   */\n      0x00\n        /* \"#utility.yul\":2480:2481   */\n      dup1\n        /* \"#utility.yul\":2473:2485   */\n      revert\n        /* \"#utility.yul\":2432:2487   */\n    tag_419:\n        /* \"#utility.yul\":2519:2521   */\n      dup2\n        /* \"#utility.yul\":2506:2522   */\n      calldataload\n        /* \"#utility.yul\":2541:2543   */\n      dup2\n        /* \"#utility.yul\":2537:2539   */\n      dup2\n        /* \"#utility.yul\":2534:2544   */\n      gt\n        /* \"#utility.yul\":2531:2567   */\n      iszero\n      tag_421\n      jumpi\n        /* \"#utility.yul\":2547:2565   */\n      tag_421\n      tag_391\n      jump\t// in\n    tag_421:\n        /* \"#utility.yul\":2622:2624   */\n      0x40\n        /* \"#utility.yul\":2616:2625   */\n      mload\n        /* \"#utility.yul\":2590:2592   */\n      0x1f\n        /* \"#utility.yul\":2676:2689   */\n      dup3\n      add\n      not(0x1f)\n        /* \"#utility.yul\":2672:2694   */\n      swap1\n      dup2\n      and\n        /* \"#utility.yul\":2696:2698   */\n      0x3f\n        /* \"#utility.yul\":2668:2699   */\n      add\n        /* \"#utility.yul\":2664:2704   */\n      and\n        /* \"#utility.yul\":2652:2705   */\n      dup2\n      add\n      swap1\n        /* \"#utility.yul\":2720:2738   */\n      dup4\n      dup3\n      gt\n        /* \"#utility.yul\":2740:2762   */\n      dup2\n      dup4\n      lt\n        /* \"#utility.yul\":2717:2763   */\n      or\n        /* \"#utility.yul\":2714:2786   */\n      iszero\n      tag_423\n      jumpi\n        /* \"#utility.yul\":2766:2784   */\n      tag_423\n      tag_391\n      jump\t// in\n    tag_423:\n        /* \"#utility.yul\":2806:2816   */\n      dup2\n        /* \"#utility.yul\":2802:2804   */\n      0x40\n        /* \"#utility.yul\":2795:2817   */\n      mstore\n        /* \"#utility.yul\":2841:2843   */\n      dup3\n        /* \"#utility.yul\":2833:2839   */\n      dup2\n        /* \"#utility.yul\":2826:2844   */\n      mstore\n        /* \"#utility.yul\":2883:2890   */\n      dup10\n        /* \"#utility.yul\":2876:2880   */\n      0x20\n        /* \"#utility.yul\":2871:2873   */\n      dup5\n        /* \"#utility.yul\":2867:2869   */\n      dup8\n        /* \"#utility.yul\":2863:2874   */\n      add\n        /* \"#utility.yul\":2859:2881   */\n      add\n        /* \"#utility.yul\":2856:2891   */\n      gt\n        /* \"#utility.yul\":2853:2908   */\n      iszero\n      tag_424\n      jumpi\n        /* \"#utility.yul\":2904:2905   */\n      0x00\n        /* \"#utility.yul\":2901:2902   */\n      dup1\n        /* \"#utility.yul\":2894:2906   */\n      revert\n        /* \"#utility.yul\":2853:2908   */\n    tag_424:\n        /* \"#utility.yul\":2964:2966   */\n      dup3\n        /* \"#utility.yul\":2957:2961   */\n      0x20\n        /* \"#utility.yul\":2953:2955   */\n      dup7\n        /* \"#utility.yul\":2949:2962   */\n      add\n        /* \"#utility.yul\":2942:2946   */\n      0x20\n        /* \"#utility.yul\":2934:2940   */\n      dup4\n        /* \"#utility.yul\":2930:2947   */\n      add\n        /* \"#utility.yul\":2917:2967   */\n      calldatacopy\n        /* \"#utility.yul\":3011:3012   */\n      0x00\n        /* \"#utility.yul\":3004:3008   */\n      0x20\n        /* \"#utility.yul\":2999:3001   */\n      dup5\n        /* \"#utility.yul\":2991:2997   */\n      dup4\n        /* \"#utility.yul\":2987:3002   */\n      add\n        /* \"#utility.yul\":2983:3009   */\n      add\n        /* \"#utility.yul\":2976:3013   */\n      mstore\n        /* \"#utility.yul\":3032:3038   */\n      dup1\n        /* \"#utility.yul\":3022:3038   */\n      swap8\n      pop\n      pop\n      pop\n      pop\n      pop\n      pop\n        /* \"#utility.yul\":3057:3097   */\n      tag_425\n        /* \"#utility.yul\":3091:3095   */\n      0x20\n        /* \"#utility.yul\":3080:3089   */\n      dup6\n        /* \"#utility.yul\":3076:3096   */\n      add\n        /* \"#utility.yul\":3057:3097   */\n      tag_389\n      jump\t// in\n    tag_425:\n        /* \"#utility.yul\":3047:3097   */\n      swap2\n      pop\n        /* \"#utility.yul\":3116:3154   */\n      tag_426\n        /* \"#utility.yul\":3150:3152   */\n      0x40\n        /* \"#utility.yul\":3139:3148   */\n      dup6\n        /* \"#utility.yul\":3135:3153   */\n      add\n        /* \"#utility.yul\":3116:3154   */\n      tag_389\n      jump\t// in\n    tag_426:\n        /* \"#utility.yul\":3106:3154   */\n      swap1\n      pop\n        /* \"#utility.yul\":2080:3160   */\n      swap3\n      pop\n      swap3\n      pop\n      swap3\n      jump\t// out\n        /* \"#utility.yul\":3357:3685   */\n    tag_78:\n        /* \"#utility.yul\":3434:3440   */\n      0x00\n        /* \"#utility.yul\":3442:3448   */\n      dup1\n        /* \"#utility.yul\":3450:3456   */\n      0x00\n        /* \"#utility.yul\":3503:3505   */\n      0x60\n        /* \"#utility.yul\":3491:3500   */\n      dup5\n        /* \"#utility.yul\":3482:3489   */\n      dup7\n        /* \"#utility.yul\":3478:3501   */\n      sub\n        /* \"#utility.yul\":3474:3506   */\n      slt\n        /* \"#utility.yul\":3471:3523   */\n      iszero\n      tag_429\n      jumpi\n        /* \"#utility.yul\":3519:3520   */\n      0x00\n        /* \"#utility.yul\":3516:3517   */\n      dup1\n        /* \"#utility.yul\":3509:3521   */\n      revert\n        /* \"#utility.yul\":3471:3523   */\n    tag_429:\n        /* \"#utility.yul\":3542:3571   */\n      tag_430\n        /* \"#utility.yul\":3561:3570   */\n      dup5\n        /* \"#utility.yul\":3542:3571   */\n      tag_389\n      jump\t// in\n    tag_430:\n        /* \"#utility.yul\":3532:3571   */\n      swap3\n      pop\n        /* \"#utility.yul\":3590:3628   */\n      tag_431\n        /* \"#utility.yul\":3624:3626   */\n      0x20\n        /* \"#utility.yul\":3613:3622   */\n      dup6\n        /* \"#utility.yul\":3609:3627   */\n      add\n        /* \"#utility.yul\":3590:3628   */\n      tag_389\n      jump\t// in\n    tag_431:\n        /* \"#utility.yul\":3580:3628   */\n      swap2\n      pop\n        /* \"#utility.yul\":3675:3677   */\n      0x40\n        /* \"#utility.yul\":3664:3673   */\n      dup5\n        /* \"#utility.yul\":3660:3678   */\n      add\n        /* \"#utility.yul\":3647:3679   */\n      calldataload\n        /* \"#utility.yul\":3637:3679   */\n      swap1\n      pop\n        /* \"#utility.yul\":3357:3685   */\n      swap3\n      pop\n      swap3\n      pop\n      swap3\n      jump\t// out\n        /* \"#utility.yul\":3690:3870   */\n    tag_97:\n        /* \"#utility.yul\":3749:3755   */\n      0x00\n        /* \"#utility.yul\":3802:3804   */\n      0x20\n        /* \"#utility.yul\":3790:3799   */\n      dup3\n        /* \"#utility.yul\":3781:3788   */\n      dup5\n        /* \"#utility.yul\":3777:3800   */\n      sub\n        /* \"#utility.yul\":3773:3805   */\n      slt\n        /* \"#utility.yul\":3770:3822   */\n      iszero\n      tag_433\n      jumpi\n        /* \"#utility.yul\":3818:3819   */\n      0x00\n        /* \"#utility.yul\":3815:3816   */\n      dup1\n        /* \"#utility.yul\":3808:3820   */\n      revert\n        /* \"#utility.yul\":3770:3822   */\n    tag_433:\n      pop\n        /* \"#utility.yul\":3841:3864   */\n      calldataload\n      swap2\n        /* \"#utility.yul\":3690:3870   */\n      swap1\n      pop\n      jump\t// out\n        /* \"#utility.yul\":3875:4218   */\n    tag_118:\n        /* \"#utility.yul\":4077:4079   */\n      0x20\n        /* \"#utility.yul\":4059:4080   */\n      dup1\n      dup3\n      mstore\n        /* \"#utility.yul\":4116:4118   */\n      0x13\n        /* \"#utility.yul\":4096:4114   */\n      swap1\n      dup3\n      add\n        /* \"#utility.yul\":4089:4119   */\n      mstore\n      shl(0x6a, 0x149bdd5d195c8e881b9bdd08185b1b1bddd959)\n        /* \"#utility.yul\":4150:4152   */\n      0x40\n        /* \"#utility.yul\":4135:4153   */\n      dup3\n      add\n        /* \"#utility.yul\":4128:4177   */\n      mstore\n        /* \"#utility.yul\":4209:4211   */\n      0x60\n        /* \"#utility.yul\":4194:4212   */\n      add\n      swap1\n        /* \"#utility.yul\":3875:4218   */\n      jump\t// out\n        /* \"#utility.yul\":4223:4578   */\n    tag_122:\n        /* \"#utility.yul\":4425:4427   */\n      0x20\n        /* \"#utility.yul\":4407:4428   */\n      dup1\n      dup3\n      mstore\n        /* \"#utility.yul\":4464:4466   */\n      0x1f\n        /* \"#utility.yul\":4444:4462   */\n      swap1\n      dup3\n      add\n        /* \"#utility.yul\":4437:4467   */\n      mstore\n        /* \"#utility.yul\":4503:4536   */\n      0x5265656e7472616e637947756172643a207265656e7472616e742063616c6c00\n        /* \"#utility.yul\":4498:4500   */\n      0x40\n        /* \"#utility.yul\":4483:4501   */\n      dup3\n      add\n        /* \"#utility.yul\":4476:4537   */\n      mstore\n        /* \"#utility.yul\":4569:4571   */\n      0x60\n        /* \"#utility.yul\":4554:4572   */\n      add\n      swap1\n        /* \"#utility.yul\":4223:4578   */\n      jump\t// out\n        /* \"#utility.yul\":4583:4963   */\n    tag_128:\n        /* \"#utility.yul\":4662:4663   */\n      0x01\n        /* \"#utility.yul\":4658:4670   */\n      dup2\n      dup2\n      shr\n      swap1\n        /* \"#utility.yul\":4705:4717   */\n      dup3\n      and\n      dup1\n        /* \"#utility.yul\":4726:4787   */\n      tag_437\n      jumpi\n        /* \"#utility.yul\":4780:4784   */\n      0x7f\n        /* \"#utility.yul\":4772:4778   */\n      dup3\n        /* \"#utility.yul\":4768:4785   */\n      and\n        /* \"#utility.yul\":4758:4785   */\n      swap2\n      pop\n        /* \"#utility.yul\":4726:4787   */\n    tag_437:\n        /* \"#utility.yul\":4833:4835   */\n      0x20\n        /* \"#utility.yul\":4825:4831   */\n      dup3\n        /* \"#utility.yul\":4822:4836   */\n      lt\n        /* \"#utility.yul\":4802:4820   */\n      dup2\n        /* \"#utility.yul\":4799:4837   */\n      eq\n        /* \"#utility.yul\":4796:4957   */\n      iszero\n      tag_438\n      jumpi\n        /* \"#utility.yul\":4879:4889   */\n      0x4e487b71\n        /* \"#utility.yul\":4874:4877   */\n      0xe0\n        /* \"#utility.yul\":4870:4890   */\n      shl\n        /* \"#utility.yul\":4867:4868   */\n      0x00\n        /* \"#utility.yul\":4860:4891   */\n      mstore\n        /* \"#utility.yul\":4914:4918   */\n      0x22\n        /* \"#utility.yul\":4911:4912   */\n      0x04\n        /* \"#utility.yul\":4904:4919   */\n      mstore\n        /* \"#utility.yul\":4942:4946   */\n      0x24\n        /* \"#utility.yul\":4939:4940   */\n      0x00\n        /* \"#utility.yul\":4932:4947   */\n      revert\n        /* \"#utility.yul\":4796:4957   */\n    tag_438:\n      pop\n        /* \"#utility.yul\":4583:4963   */\n      swap2\n      swap1\n      pop\n      jump\t// out\n        /* \"#utility.yul\":4968:5152   */\n    tag_138:\n        /* \"#utility.yul\":5038:5044   */\n      0x00\n        /* \"#utility.yul\":5091:5093   */\n      0x20\n        /* \"#utility.yul\":5079:5088   */\n      dup3\n        /* \"#utility.yul\":5070:5077   */\n      dup5\n        /* \"#utility.yul\":5066:5089   */\n      sub\n        /* \"#utility.yul\":5062:5094   */\n      slt\n        /* \"#utility.yul\":5059:5111   */\n      iszero\n      tag_440\n      jumpi\n        /* \"#utility.yul\":5107:5108   */\n      0x00\n        /* \"#utility.yul\":5104:5105   */\n      dup1\n        /* \"#utility.yul\":5097:5109   */\n      revert\n        /* \"#utility.yul\":5059:5111   */\n    tag_440:\n      pop\n        /* \"#utility.yul\":5130:5146   */\n      mload\n      swap2\n        /* \"#utility.yul\":4968:5152   */\n      swap1\n      pop\n      jump\t// out\n        /* \"#utility.yul\":5157:5284   */\n    tag_392:\n        /* \"#utility.yul\":5218:5228   */\n      0x4e487b71\n        /* \"#utility.yul\":5213:5216   */\n      0xe0\n        /* \"#utility.yul\":5209:5229   */\n      shl\n        /* \"#utility.yul\":5206:5207   */\n      0x00\n        /* \"#utility.yul\":5199:5230   */\n      mstore\n        /* \"#utility.yul\":5249:5253   */\n      0x11\n        /* \"#utility.yul\":5246:5247   */\n      0x04\n        /* \"#utility.yul\":5239:5254   */\n      mstore\n        /* \"#utility.yul\":5273:5277   */\n      0x24\n        /* \"#utility.yul\":5270:5271   */\n      0x00\n        /* \"#utility.yul\":5263:5278   */\n      revert\n        /* \"#utility.yul\":5289:5414   */\n    tag_141:\n        /* \"#utility.yul\":5329:5333   */\n      0x00\n        /* \"#utility.yul\":5357:5358   */\n      dup3\n        /* \"#utility.yul\":5354:5355   */\n      dup3\n        /* \"#utility.yul\":5351:5359   */\n      lt\n        /* \"#utility.yul\":5348:5382   */\n      iszero\n      tag_444\n      jumpi\n        /* \"#utility.yul\":5362:5380   */\n      tag_444\n      tag_392\n      jump\t// in\n    tag_444:\n      pop\n        /* \"#utility.yul\":5399:5408   */\n      sub\n      swap1\n        /* \"#utility.yul\":5289:5414   */\n      jump\t// out\n        /* \"#utility.yul\":6033:6201   */\n    tag_203:\n        /* \"#utility.yul\":6073:6080   */\n      0x00\n        /* \"#utility.yul\":6139:6140   */\n      dup2\n        /* \"#utility.yul\":6135:6136   */\n      0x00\n        /* \"#utility.yul\":6131:6137   */\n      not\n        /* \"#utility.yul\":6127:6141   */\n      div\n        /* \"#utility.yul\":6124:6125   */\n      dup4\n        /* \"#utility.yul\":6121:6142   */\n      gt\n        /* \"#utility.yul\":6116:6117   */\n      dup3\n        /* \"#utility.yul\":6109:6118   */\n      iszero\n        /* \"#utility.yul\":6102:6119   */\n      iszero\n        /* \"#utility.yul\":6098:6143   */\n      and\n        /* \"#utility.yul\":6095:6166   */\n      iszero\n      tag_449\n      jumpi\n        /* \"#utility.yul\":6146:6164   */\n      tag_449\n      tag_392\n      jump\t// in\n    tag_449:\n      pop\n        /* \"#utility.yul\":6186:6195   */\n      mul\n      swap1\n        /* \"#utility.yul\":6033:6201   */\n      jump\t// out\n        /* \"#utility.yul\":6206:6423   */\n    tag_205:\n        /* \"#utility.yul\":6246:6247   */\n      0x00\n        /* \"#utility.yul\":6272:6273   */\n      dup3\n        /* \"#utility.yul\":6262:6394   */\n      tag_451\n      jumpi\n        /* \"#utility.yul\":6316:6326   */\n      0x4e487b71\n        /* \"#utility.yul\":6311:6314   */\n      0xe0\n        /* \"#utility.yul\":6307:6327   */\n      shl\n        /* \"#utility.yul\":6304:6305   */\n      0x00\n        /* \"#utility.yul\":6297:6328   */\n      mstore\n        /* \"#utility.yul\":6351:6355   */\n      0x12\n        /* \"#utility.yul\":6348:6349   */\n      0x04\n        /* \"#utility.yul\":6341:6356   */\n      mstore\n        /* \"#utility.yul\":6379:6383   */\n      0x24\n        /* \"#utility.yul\":6376:6377   */\n      0x00\n        /* \"#utility.yul\":6369:6384   */\n      revert\n        /* \"#utility.yul\":6262:6394   */\n    tag_451:\n      pop\n        /* \"#utility.yul\":6408:6417   */\n      div\n      swap1\n        /* \"#utility.yul\":6206:6423   */\n      jump\t// out\n        /* \"#utility.yul\":7191:7319   */\n    tag_245:\n        /* \"#utility.yul\":7231:7234   */\n      0x00\n        /* \"#utility.yul\":7262:7263   */\n      dup3\n        /* \"#utility.yul\":7258:7264   */\n      not\n        /* \"#utility.yul\":7255:7256   */\n      dup3\n        /* \"#utility.yul\":7252:7265   */\n      gt\n        /* \"#utility.yul\":7249:7288   */\n      iszero\n      tag_456\n      jumpi\n        /* \"#utility.yul\":7268:7286   */\n      tag_456\n      tag_392\n      jump\t// in\n    tag_456:\n      pop\n        /* \"#utility.yul\":7304:7313   */\n      add\n      swap1\n        /* \"#utility.yul\":7191:7319   */\n      jump\t// out\n        /* \"#utility.yul\":7964:8371   */\n    tag_276:\n        /* \"#utility.yul\":8166:8168   */\n      0x20\n        /* \"#utility.yul\":8148:8169   */\n      dup1\n      dup3\n      mstore\n        /* \"#utility.yul\":8205:8207   */\n      0x2b\n        /* \"#utility.yul\":8185:8203   */\n      swap1\n      dup3\n      add\n        /* \"#utility.yul\":8178:8208   */\n      mstore\n        /* \"#utility.yul\":8244:8278   */\n      0x496e697469616c697a61626c653a20636f6e7472616374206973206e6f742069\n        /* \"#utility.yul\":8239:8241   */\n      0x40\n        /* \"#utility.yul\":8224:8242   */\n      dup3\n      add\n        /* \"#utility.yul\":8217:8279   */\n      mstore\n      shl(0xa8, 0x6e697469616c697a696e67)\n        /* \"#utility.yul\":8310:8312   */\n      0x60\n        /* \"#utility.yul\":8295:8313   */\n      dup3\n      add\n        /* \"#utility.yul\":8288:8329   */\n      mstore\n        /* \"#utility.yul\":8361:8364   */\n      0x80\n        /* \"#utility.yul\":8346:8365   */\n      add\n      swap1\n        /* \"#utility.yul\":7964:8371   */\n      jump\t// out\n        /* \"#utility.yul\":9462:9739   */\n    tag_345:\n        /* \"#utility.yul\":9529:9535   */\n      0x00\n        /* \"#utility.yul\":9582:9584   */\n      0x20\n        /* \"#utility.yul\":9570:9579   */\n      dup3\n        /* \"#utility.yul\":9561:9568   */\n      dup5\n        /* \"#utility.yul\":9557:9580   */\n      sub\n        /* \"#utility.yul\":9553:9585   */\n      slt\n        /* \"#utility.yul\":9550:9602   */\n      iszero\n      tag_464\n      jumpi\n        /* \"#utility.yul\":9598:9599   */\n      0x00\n        /* \"#utility.yul\":9595:9596   */\n      dup1\n        /* \"#utility.yul\":9588:9600   */\n      revert\n        /* \"#utility.yul\":9550:9602   */\n    tag_464:\n        /* \"#utility.yul\":9630:9639   */\n      dup2\n        /* \"#utility.yul\":9624:9640   */\n      mload\n        /* \"#utility.yul\":9683:9688   */\n      dup1\n        /* \"#utility.yul\":9676:9689   */\n      iszero\n        /* \"#utility.yul\":9669:9690   */\n      iszero\n        /* \"#utility.yul\":9662:9667   */\n      dup2\n        /* \"#utility.yul\":9659:9691   */\n      eq\n        /* \"#utility.yul\":9649:9709   */\n      tag_204\n      jumpi\n        /* \"#utility.yul\":9705:9706   */\n      0x00\n        /* \"#utility.yul\":9702:9703   */\n      dup1\n        /* \"#utility.yul\":9695:9707   */\n      revert\n        /* \"#utility.yul\":10562:10836   */\n    tag_357:\n        /* \"#utility.yul\":10691:10694   */\n      0x00\n        /* \"#utility.yul\":10729:10735   */\n      dup3\n        /* \"#utility.yul\":10723:10736   */\n      mload\n        /* \"#utility.yul\":10745:10798   */\n      tag_469\n        /* \"#utility.yul\":10791:10797   */\n      dup2\n        /* \"#utility.yul\":10786:10789   */\n      dup5\n        /* \"#utility.yul\":10779:10783   */\n      0x20\n        /* \"#utility.yul\":10771:10777   */\n      dup8\n        /* \"#utility.yul\":10767:10784   */\n      add\n        /* \"#utility.yul\":10745:10798   */\n      tag_390\n      jump\t// in\n    tag_469:\n        /* \"#utility.yul\":10814:10830   */\n      swap2\n      swap1\n      swap2\n      add\n      swap3\n        /* \"#utility.yul\":10562:10836   */\n      swap2\n      pop\n      pop\n      jump\t// out\n\n    auxdata: 0xa2646970667358221220dde11f5f02514bdd821e60e7feb74ac0ba74eec965dbbaf011e82fae1f19cd9464736f6c634300080a0033\n}\n",
				"bytecode": {
					"linkReferences": {},
					"object": "608060405234801561001057600080fd5b50611967806100206000396000f3fe608060405234801561001057600080fd5b50600436106101425760003560e01c80638da5cb5b116100b8578063b4bf36b21161007c578063b4bf36b2146102c0578063b6b55f25146102d1578063c96f0e01146102e4578063f2fde38b1461030d578063f3fef3a314610320578063fad834841461033357600080fd5b80638da5cb5b146102655780639f1d926714610276578063aba317a914610289578063b0f479a11461029c578063b36684ac146102ad57600080fd5b8063340ac20f1161010a578063340ac20f146101cd5780634226626a146101e2578063463fd1af1461020b5780635c975abb1461021e5780635d602c0014610234578063715018a61461025d57600080fd5b80630c632bbe146101475780631101596c1461017157806317d7de7c14610192578063223888c1146101a75780632f4f21e2146101ba575b600080fd5b60ca546001600160a01b03165b6040516001600160a01b0390911681526020015b60405180910390f35b61018461017f366004611556565b61033b565b604051908152602001610168565b61019a6103af565b60405161016891906115b5565b6101846101b53660046115e8565b610441565b6101846101c8366004611603565b610554565b6101e06101db3660046115e8565b6105b2565b005b6101846101f03660046115e8565b6001600160a01b0316600090815260cd602052604090205490565b6101e0610219366004611643565b61060e565b60655460ff166040519015158152602001610168565b6101846102423660046115e8565b6001600160a01b0316600090815260ce602052604090205490565b6101e0610776565b6033546001600160a01b0316610154565b610184610284366004611715565b61078a565b6101846102973660046115e8565b6107f6565b60cc546001600160a01b0316610154565b6101846102bb3660046115e8565b6108b2565b60cb546001600160a01b0316610154565b6101846102df366004611751565b6108f1565b6101846102f23660046115e8565b6001600160a01b0316600090815260cf602052604090205490565b6101e061031b3660046115e8565b610925565b61018461032e366004611603565b61099e565b6101846109d3565b60cc546000906001600160a01b031633146103715760405162461bcd60e51b81526004016103689061176a565b60405180910390fd5b600260975414156103945760405162461bcd60e51b815260040161036890611797565b60026097556103a38383610a45565b60016097559392505050565b606060c980546103be906117ce565b80601f01602080910402602001604051908101604052809291908181526020018280546103ea906117ce565b80156104375780601f1061040c57610100808354040283529160200191610437565b820191906000526020600020905b81548152906001019060200180831161041a57829003601f168201915b5050505050905090565b60405163aba317a960e01b81526001600160a01b03821660048201526000908190309063aba317a990602401602060405180830381865afa15801561048a573d6000803e3d6000fd5b505050506040513d601f19601f820116820180604052508101906104ae9190611809565b6001600160a01b038416600090815260ce602052604090205490915081106104d95750600092915050565b6001600160a01b038316600090815260ce60205260408120546104fd908390611838565b6001600160a01b038516600090815260cd60205260409020549091508111610529575060009392505050565b6001600160a01b038416600090815260cd602052604090205461054c9082611838565b949350505050565b6000600260975414156105795760405162461bcd60e51b815260040161036890611797565b600260975560cc546001600160a01b031633146105a85760405162461bcd60e51b81526004016103689061176a565b6103a38383610b9c565b6105ba610d5d565b60cc80546001600160a01b0319166001600160a01b0383169081179091556040519081527f1085cec9a5108943412475d298086ae4d0abf09cfad47b05436b89fe887a820c9060200160405180910390a150565b600054610100900460ff161580801561062e5750600054600160ff909116105b806106485750303b158015610648575060005460ff166001145b6106ab5760405162461bcd60e51b815260206004820152602e60248201527f496e697469616c697a61626c653a20636f6e747261637420697320616c72656160448201526d191e481a5b9a5d1a585b1a5e995960921b6064820152608401610368565b6000805460ff1916600117905580156106ce576000805461ff0019166101001790555b6106d6610db7565b6106de610de6565b6106e6610e15565b83516106f99060c99060208701906114a1565b5060ca80546001600160a01b038086166001600160a01b03199283161790925560cb8054928516929091169190911790558015610770576000805461ff0019169055604051600181527f7f26b83ff96e1f2b6a682f133852f6798a09c465da95921460cefb38474024989060200160405180910390a15b50505050565b61077e610d5d565b6107886000610e44565b565b6000600260975414156107af5760405162461bcd60e51b815260040161036890611797565b600260975560cc546001600160a01b031633146107de5760405162461bcd60e51b81526004016103689061176a565b6107e9848484610e96565b6001609755949350505050565b60008060cb60009054906101000a90046001600160a01b03166001600160a01b03166371ca337d6040518163ffffffff1660e01b8152600401602060405180830381865afa15801561084c573d6000803e3d6000fd5b505050506040513d601f19601f820116820180604052508101906108709190611809565b6001600160a01b038416600090815260cf6020526040902054909150670de0b6b3a7640000906108a190839061184f565b6108ab919061186e565b9392505050565b6000600260975414156108d75760405162461bcd60e51b815260040161036890611797565b60026097556108e63383610a45565b600160975592915050565b6000600260975414156109165760405162461bcd60e51b815260040161036890611797565b60026097556108e63383610b9c565b61092d610d5d565b6001600160a01b0381166109925760405162461bcd60e51b815260206004820152602660248201527f4f776e61626c653a206e6577206f776e657220697320746865207a65726f206160448201526564647265737360d01b6064820152608401610368565b61099b81610e44565b50565b6000600260975414156109c35760405162461bcd60e51b815260040161036890611797565b60026097556103a3338484610e96565b60cb546040516370a0823160e01b81523060048201526000916001600160a01b0316906370a0823190602401602060405180830381865afa158015610a1c573d6000803e3d6000fd5b505050506040513d601f19601f82011682018060405250810190610a409190611809565b905090565b60405163223888c160e01b81526001600160a01b03831660048201526000908190309063223888c190602401602060405180830381865afa158015610a8e573d6000803e3d6000fd5b505050506040513d601f19601f82011682018060405250810190610ab29190611809565b905060008111610b045760405162461bcd60e51b815260206004820152601b60248201527f686173206e6f7420676f74207969656c647320746f20636c61696d00000000006044820152606401610368565b6001600160a01b038416600090815260cd602052604081208054839290610b2c908490611890565b909155505060cb54610b48906001600160a01b0316848361117e565b826001600160a01b0316846001600160a01b03167ff7a40077ff7a04c7e61f6f26fb13774259ddf1b6bce9ecf26a8276cdd399268383604051610b8d91815260200190565b60405180910390a39392505050565b60008060cb60009054906101000a90046001600160a01b03166001600160a01b03166371ca337d6040518163ffffffff1660e01b8152600401602060405180830381865afa158015610bf2573d6000803e3d6000fd5b505050506040513d601f19601f82011682018060405250810190610c169190611809565b60cb54909150610c31906001600160a01b03163330866111e6565b600081610c4685670de0b6b3a764000061184f565b610c50919061186e565b6001600160a01b038616600090815260ce6020526040812080549293508692909190610c7d908490611890565b90915550506001600160a01b038516600090815260cf602052604081208054839290610caa908490611890565b909155505060ca546040516340c10f1960e01b81526001600160a01b03878116600483015260248201849052909116906340c10f1990604401600060405180830381600087803b158015610cfd57600080fd5b505af1158015610d11573d6000803e3d6000fd5b50506040518381526001600160a01b03881692503391507f8752a472e571a816aea92eec8dae9baf628e840f4929fbcc2d155e6233ff68a79060200160405180910390a3949350505050565b6033546001600160a01b031633146107885760405162461bcd60e51b815260206004820181905260248201527f4f776e61626c653a2063616c6c6572206973206e6f7420746865206f776e65726044820152606401610368565b600054610100900460ff16610dde5760405162461bcd60e51b8152600401610368906118a8565b61078861121e565b600054610100900460ff16610e0d5760405162461bcd60e51b8152600401610368906118a8565b61078861124e565b600054610100900460ff16610e3c5760405162461bcd60e51b8152600401610368906118a8565b610788611281565b603380546001600160a01b038381166001600160a01b0319831681179093556040519116919082907f8be0079c531659141344cd1fd0a4f28419497f9722a3daafe3b4186f6b6457e090600090a35050565b60008060cb60009054906101000a90046001600160a01b03166001600160a01b03166371ca337d6040518163ffffffff1660e01b8152600401602060405180830381865afa158015610eec573d6000803e3d6000fd5b505050506040513d601f19601f82011682018060405250810190610f109190611809565b90506000670de0b6b3a7640000610f27838661184f565b610f31919061186e565b60cb546040516370a0823160e01b815230600482015291925082916001600160a01b03909116906370a0823190602401602060405180830381865afa158015610f7e573d6000803e3d6000fd5b505050506040513d601f19601f82011682018060405250810190610fa29190611809565b1015610ff05760405162461bcd60e51b815260206004820152601c60248201527f6e6f74207375636820616d6f756e7420696e20746865207661756c74000000006044820152606401610368565b6001600160a01b038616600090815260cf6020526040902054848110156110505760405162461bcd60e51b8152602060048201526014602482015273696e73756666696369656e742062616c616e636560601b6044820152606401610368565b6001600160a01b038716600090815260cf602052604081208054879290611078908490611838565b909155505060ca54604051632770a7eb60e21b81526001600160a01b0389811660048301526024820188905290911690639dc29fac90604401600060405180830381600087803b1580156110cb57600080fd5b505af11580156110df573d6000803e3d6000fd5b505050506001600160a01b038716600090815260ce60205260408120805484929061110b908490611838565b909155505060cb54611127906001600160a01b0316878461117e565b856001600160a01b0316876001600160a01b03167fd1c19fbcd4551a5edfb66d43d2e337c04837afda3482b42bdf569a8fccdae5fb8460405161116c91815260200190565b60405180910390a35095945050505050565b6040516001600160a01b0383166024820152604481018290526111e190849063a9059cbb60e01b906064015b60408051601f198184030181529190526020810180516001600160e01b03166001600160e01b0319909316929092179091526112af565b505050565b6040516001600160a01b03808516602483015283166044820152606481018290526107709085906323b872dd60e01b906084016111aa565b600054610100900460ff166112455760405162461bcd60e51b8152600401610368906118a8565b61078833610e44565b600054610100900460ff166112755760405162461bcd60e51b8152600401610368906118a8565b6065805460ff19169055565b600054610100900460ff166112a85760405162461bcd60e51b8152600401610368906118a8565b6001609755565b6000611304826040518060400160405280602081526020017f5361666545524332303a206c6f772d6c6576656c2063616c6c206661696c6564815250856001600160a01b03166113819092919063ffffffff16565b8051909150156111e1578080602001905181019061132291906118f3565b6111e15760405162461bcd60e51b815260206004820152602a60248201527f5361666545524332303a204552433230206f7065726174696f6e20646964206e6044820152691bdd081cdd58d8d9595960b21b6064820152608401610368565b606061054c848460008585600080866001600160a01b031685876040516113a89190611915565b60006040518083038185875af1925050503d80600081146113e5576040519150601f19603f3d011682016040523d82523d6000602084013e6113ea565b606091505b50915091506113fb87838387611406565b979650505050505050565b6060831561147257825161146b576001600160a01b0385163b61146b5760405162461bcd60e51b815260206004820152601d60248201527f416464726573733a2063616c6c20746f206e6f6e2d636f6e74726163740000006044820152606401610368565b508161054c565b61054c83838151156114875781518083602001fd5b8060405162461bcd60e51b815260040161036891906115b5565b8280546114ad906117ce565b90600052602060002090601f0160209004810192826114cf5760008555611515565b82601f106114e857805160ff1916838001178555611515565b82800160010185558215611515579182015b828111156115155782518255916020019190600101906114fa565b50611521929150611525565b5090565b5b808211156115215760008155600101611526565b80356001600160a01b038116811461155157600080fd5b919050565b6000806040838503121561156957600080fd5b6115728361153a565b91506115806020840161153a565b90509250929050565b60005b838110156115a457818101518382015260200161158c565b838111156107705750506000910152565b60208152600082518060208401526115d4816040850160208701611589565b601f01601f19169190910160400192915050565b6000602082840312156115fa57600080fd5b6108ab8261153a565b6000806040838503121561161657600080fd5b61161f8361153a565b946020939093013593505050565b634e487b7160e01b600052604160045260246000fd5b60008060006060848603121561165857600080fd5b833567ffffffffffffffff8082111561167057600080fd5b818601915086601f83011261168457600080fd5b8135818111156116965761169661162d565b604051601f8201601f19908116603f011681019083821181831017156116be576116be61162d565b816040528281528960208487010111156116d757600080fd5b8260208601602083013760006020848301015280975050505050506116fe6020850161153a565b915061170c6040850161153a565b90509250925092565b60008060006060848603121561172a57600080fd5b6117338461153a565b92506117416020850161153a565b9150604084013590509250925092565b60006020828403121561176357600080fd5b5035919050565b602080825260139082015272149bdd5d195c8e881b9bdd08185b1b1bddd959606a1b604082015260600190565b6020808252601f908201527f5265656e7472616e637947756172643a207265656e7472616e742063616c6c00604082015260600190565b600181811c908216806117e257607f821691505b6020821081141561180357634e487b7160e01b600052602260045260246000fd5b50919050565b60006020828403121561181b57600080fd5b5051919050565b634e487b7160e01b600052601160045260246000fd5b60008282101561184a5761184a611822565b500390565b600081600019048311821515161561186957611869611822565b500290565b60008261188b57634e487b7160e01b600052601260045260246000fd5b500490565b600082198211156118a3576118a3611822565b500190565b6020808252602b908201527f496e697469616c697a61626c653a20636f6e7472616374206973206e6f74206960408201526a6e697469616c697a696e6760a81b606082015260800190565b60006020828403121561190557600080fd5b815180151581146108ab57600080fd5b60008251611927818460208701611589565b919091019291505056fea2646970667358221220dde11f5f02514bdd821e60e7feb74ac0ba74eec965dbbaf011e82fae1f19cd9464736f6c634300080a0033",
					"opcodes": "PUSH1 0x80 PUSH1 0x40 MSTORE CALLVALUE DUP1 ISZERO PUSH2 0x10 JUMPI PUSH1 0x0 DUP1 REVERT JUMPDEST POP PUSH2 0x1967 DUP1 PUSH2 0x20 PUSH1 0x0 CODECOPY PUSH1 0x0 RETURN INVALID PUSH1 0x80 PUSH1 0x40 MSTORE CALLVALUE DUP1 ISZERO PUSH2 0x10 JUMPI PUSH1 0x0 DUP1 REVERT JUMPDEST POP PUSH1 0x4 CALLDATASIZE LT PUSH2 0x142 JUMPI PUSH1 0x0 CALLDATALOAD PUSH1 0xE0 SHR DUP1 PUSH4 0x8DA5CB5B GT PUSH2 0xB8 JUMPI DUP1 PUSH4 0xB4BF36B2 GT PUSH2 0x7C JUMPI DUP1 PUSH4 0xB4BF36B2 EQ PUSH2 0x2C0 JUMPI DUP1 PUSH4 0xB6B55F25 EQ PUSH2 0x2D1 JUMPI DUP1 PUSH4 0xC96F0E01 EQ PUSH2 0x2E4 JUMPI DUP1 PUSH4 0xF2FDE38B EQ PUSH2 0x30D JUMPI DUP1 PUSH4 0xF3FEF3A3 EQ PUSH2 0x320 JUMPI DUP1 PUSH4 0xFAD83484 EQ PUSH2 0x333 JUMPI PUSH1 0x0 DUP1 REVERT JUMPDEST DUP1 PUSH4 0x8DA5CB5B EQ PUSH2 0x265 JUMPI DUP1 PUSH4 0x9F1D9267 EQ PUSH2 0x276 JUMPI DUP1 PUSH4 0xABA317A9 EQ PUSH2 0x289 JUMPI DUP1 PUSH4 0xB0F479A1 EQ PUSH2 0x29C JUMPI DUP1 PUSH4 0xB36684AC EQ PUSH2 0x2AD JUMPI PUSH1 0x0 DUP1 REVERT JUMPDEST DUP1 PUSH4 0x340AC20F GT PUSH2 0x10A JUMPI DUP1 PUSH4 0x340AC20F EQ PUSH2 0x1CD JUMPI DUP1 PUSH4 0x4226626A EQ PUSH2 0x1E2 JUMPI DUP1 PUSH4 0x463FD1AF EQ PUSH2 0x20B JUMPI DUP1 PUSH4 0x5C975ABB EQ PUSH2 0x21E JUMPI DUP1 PUSH4 0x5D602C00 EQ PUSH2 0x234 JUMPI DUP1 PUSH4 0x715018A6 EQ PUSH2 0x25D JUMPI PUSH1 0x0 DUP1 REVERT JUMPDEST DUP1 PUSH4 0xC632BBE EQ PUSH2 0x147 JUMPI DUP1 PUSH4 0x1101596C EQ PUSH2 0x171 JUMPI DUP1 PUSH4 0x17D7DE7C EQ PUSH2 0x192 JUMPI DUP1 PUSH4 0x223888C1 EQ PUSH2 0x1A7 JUMPI DUP1 PUSH4 0x2F4F21E2 EQ PUSH2 0x1BA JUMPI JUMPDEST PUSH1 0x0 DUP1 REVERT JUMPDEST PUSH1 0xCA SLOAD PUSH1 0x1 PUSH1 0x1 PUSH1 0xA0 SHL SUB AND JUMPDEST PUSH1 0x40 MLOAD PUSH1 0x1 PUSH1 0x1 PUSH1 0xA0 SHL SUB SWAP1 SWAP2 AND DUP2 MSTORE PUSH1 0x20 ADD JUMPDEST PUSH1 0x40 MLOAD DUP1 SWAP2 SUB SWAP1 RETURN JUMPDEST PUSH2 0x184 PUSH2 0x17F CALLDATASIZE PUSH1 0x4 PUSH2 0x1556 JUMP JUMPDEST PUSH2 0x33B JUMP JUMPDEST PUSH1 0x40 MLOAD SWAP1 DUP2 MSTORE PUSH1 0x20 ADD PUSH2 0x168 JUMP JUMPDEST PUSH2 0x19A PUSH2 0x3AF JUMP JUMPDEST PUSH1 0x40 MLOAD PUSH2 0x168 SWAP2 SWAP1 PUSH2 0x15B5 JUMP JUMPDEST PUSH2 0x184 PUSH2 0x1B5 CALLDATASIZE PUSH1 0x4 PUSH2 0x15E8 JUMP JUMPDEST PUSH2 0x441 JUMP JUMPDEST PUSH2 0x184 PUSH2 0x1C8 CALLDATASIZE PUSH1 0x4 PUSH2 0x1603 JUMP JUMPDEST PUSH2 0x554 JUMP JUMPDEST PUSH2 0x1E0 PUSH2 0x1DB CALLDATASIZE PUSH1 0x4 PUSH2 0x15E8 JUMP JUMPDEST PUSH2 0x5B2 JUMP JUMPDEST STOP JUMPDEST PUSH2 0x184 PUSH2 0x1F0 CALLDATASIZE PUSH1 0x4 PUSH2 0x15E8 JUMP JUMPDEST PUSH1 0x1 PUSH1 0x1 PUSH1 0xA0 SHL SUB AND PUSH1 0x0 SWAP1 DUP2 MSTORE PUSH1 0xCD PUSH1 0x20 MSTORE PUSH1 0x40 SWAP1 KECCAK256 SLOAD SWAP1 JUMP JUMPDEST PUSH2 0x1E0 PUSH2 0x219 CALLDATASIZE PUSH1 0x4 PUSH2 0x1643 JUMP JUMPDEST PUSH2 0x60E JUMP JUMPDEST PUSH1 0x65 SLOAD PUSH1 0xFF AND PUSH1 0x40 MLOAD SWAP1 ISZERO ISZERO DUP2 MSTORE PUSH1 0x20 ADD PUSH2 0x168 JUMP JUMPDEST PUSH2 0x184 PUSH2 0x242 CALLDATASIZE PUSH1 0x4 PUSH2 0x15E8 JUMP JUMPDEST PUSH1 0x1 PUSH1 0x1 PUSH1 0xA0 SHL SUB AND PUSH1 0x0 SWAP1 DUP2 MSTORE PUSH1 0xCE PUSH1 0x20 MSTORE PUSH1 0x40 SWAP1 KECCAK256 SLOAD SWAP1 JUMP JUMPDEST PUSH2 0x1E0 PUSH2 0x776 JUMP JUMPDEST PUSH1 0x33 SLOAD PUSH1 0x1 PUSH1 0x1 PUSH1 0xA0 SHL SUB AND PUSH2 0x154 JUMP JUMPDEST PUSH2 0x184 PUSH2 0x284 CALLDATASIZE PUSH1 0x4 PUSH2 0x1715 JUMP JUMPDEST PUSH2 0x78A JUMP JUMPDEST PUSH2 0x184 PUSH2 0x297 CALLDATASIZE PUSH1 0x4 PUSH2 0x15E8 JUMP JUMPDEST PUSH2 0x7F6 JUMP JUMPDEST PUSH1 0xCC SLOAD PUSH1 0x1 PUSH1 0x1 PUSH1 0xA0 SHL SUB AND PUSH2 0x154 JUMP JUMPDEST PUSH2 0x184 PUSH2 0x2BB CALLDATASIZE PUSH1 0x4 PUSH2 0x15E8 JUMP JUMPDEST PUSH2 0x8B2 JUMP JUMPDEST PUSH1 0xCB SLOAD PUSH1 0x1 PUSH1 0x1 PUSH1 0xA0 SHL SUB AND PUSH2 0x154 JUMP JUMPDEST PUSH2 0x184 PUSH2 0x2DF CALLDATASIZE PUSH1 0x4 PUSH2 0x1751 JUMP JUMPDEST PUSH2 0x8F1 JUMP JUMPDEST PUSH2 0x184 PUSH2 0x2F2 CALLDATASIZE PUSH1 0x4 PUSH2 0x15E8 JUMP JUMPDEST PUSH1 0x1 PUSH1 0x1 PUSH1 0xA0 SHL SUB AND PUSH1 0x0 SWAP1 DUP2 MSTORE PUSH1 0xCF PUSH1 0x20 MSTORE PUSH1 0x40 SWAP1 KECCAK256 SLOAD SWAP1 JUMP JUMPDEST PUSH2 0x1E0 PUSH2 0x31B CALLDATASIZE PUSH1 0x4 PUSH2 0x15E8 JUMP JUMPDEST PUSH2 0x925 JUMP JUMPDEST PUSH2 0x184 PUSH2 0x32E CALLDATASIZE PUSH1 0x4 PUSH2 0x1603 JUMP JUMPDEST PUSH2 0x99E JUMP JUMPDEST PUSH2 0x184 PUSH2 0x9D3 JUMP JUMPDEST PUSH1 0xCC SLOAD PUSH1 0x0 SWAP1 PUSH1 0x1 PUSH1 0x1 PUSH1 0xA0 SHL SUB AND CALLER EQ PUSH2 0x371 JUMPI PUSH1 0x40 MLOAD PUSH3 0x461BCD PUSH1 0xE5 SHL DUP2 MSTORE PUSH1 0x4 ADD PUSH2 0x368 SWAP1 PUSH2 0x176A JUMP JUMPDEST PUSH1 0x40 MLOAD DUP1 SWAP2 SUB SWAP1 REVERT JUMPDEST PUSH1 0x2 PUSH1 0x97 SLOAD EQ ISZERO PUSH2 0x394 JUMPI PUSH1 0x40 MLOAD PUSH3 0x461BCD PUSH1 0xE5 SHL DUP2 MSTORE PUSH1 0x4 ADD PUSH2 0x368 SWAP1 PUSH2 0x1797 JUMP JUMPDEST PUSH1 0x2 PUSH1 0x97 SSTORE PUSH2 0x3A3 DUP4 DUP4 PUSH2 0xA45 JUMP JUMPDEST PUSH1 0x1 PUSH1 0x97 SSTORE SWAP4 SWAP3 POP POP POP JUMP JUMPDEST PUSH1 0x60 PUSH1 0xC9 DUP1 SLOAD PUSH2 0x3BE SWAP1 PUSH2 0x17CE JUMP JUMPDEST DUP1 PUSH1 0x1F ADD PUSH1 0x20 DUP1 SWAP2 DIV MUL PUSH1 0x20 ADD PUSH1 0x40 MLOAD SWAP1 DUP2 ADD PUSH1 0x40 MSTORE DUP1 SWAP3 SWAP2 SWAP1 DUP2 DUP2 MSTORE PUSH1 0x20 ADD DUP3 DUP1 SLOAD PUSH2 0x3EA SWAP1 PUSH2 0x17CE JUMP JUMPDEST DUP1 ISZERO PUSH2 0x437 JUMPI DUP1 PUSH1 0x1F LT PUSH2 0x40C JUMPI PUSH2 0x100 DUP1 DUP4 SLOAD DIV MUL DUP4 MSTORE SWAP2 PUSH1 0x20 ADD SWAP2 PUSH2 0x437 JUMP JUMPDEST DUP3 ADD SWAP2 SWAP1 PUSH1 0x0 MSTORE PUSH1 0x20 PUSH1 0x0 KECCAK256 SWAP1 JUMPDEST DUP2 SLOAD DUP2 MSTORE SWAP1 PUSH1 0x1 ADD SWAP1 PUSH1 0x20 ADD DUP1 DUP4 GT PUSH2 0x41A JUMPI DUP3 SWAP1 SUB PUSH1 0x1F AND DUP3 ADD SWAP2 JUMPDEST POP POP POP POP POP SWAP1 POP SWAP1 JUMP JUMPDEST PUSH1 0x40 MLOAD PUSH4 0xABA317A9 PUSH1 0xE0 SHL DUP2 MSTORE PUSH1 0x1 PUSH1 0x1 PUSH1 0xA0 SHL SUB DUP3 AND PUSH1 0x4 DUP3 ADD MSTORE PUSH1 0x0 SWAP1 DUP2 SWAP1 ADDRESS SWAP1 PUSH4 0xABA317A9 SWAP1 PUSH1 0x24 ADD PUSH1 0x20 PUSH1 0x40 MLOAD DUP1 DUP4 SUB DUP2 DUP7 GAS STATICCALL ISZERO DUP1 ISZERO PUSH2 0x48A JUMPI RETURNDATASIZE PUSH1 0x0 DUP1 RETURNDATACOPY RETURNDATASIZE PUSH1 0x0 REVERT JUMPDEST POP POP POP POP PUSH1 0x40 MLOAD RETURNDATASIZE PUSH1 0x1F NOT PUSH1 0x1F DUP3 ADD AND DUP3 ADD DUP1 PUSH1 0x40 MSTORE POP DUP2 ADD SWAP1 PUSH2 0x4AE SWAP2 SWAP1 PUSH2 0x1809 JUMP JUMPDEST PUSH1 0x1 PUSH1 0x1 PUSH1 0xA0 SHL SUB DUP5 AND PUSH1 0x0 SWAP1 DUP2 MSTORE PUSH1 0xCE PUSH1 0x20 MSTORE PUSH1 0x40 SWAP1 KECCAK256 SLOAD SWAP1 SWAP2 POP DUP2 LT PUSH2 0x4D9 JUMPI POP PUSH1 0x0 SWAP3 SWAP2 POP POP JUMP JUMPDEST PUSH1 0x1 PUSH1 0x1 PUSH1 0xA0 SHL SUB DUP4 AND PUSH1 0x0 SWAP1 DUP2 MSTORE PUSH1 0xCE PUSH1 0x20 MSTORE PUSH1 0x40 DUP2 KECCAK256 SLOAD PUSH2 0x4FD SWAP1 DUP4 SWAP1 PUSH2 0x1838 JUMP JUMPDEST PUSH1 0x1 PUSH1 0x1 PUSH1 0xA0 SHL SUB DUP6 AND PUSH1 0x0 SWAP1 DUP2 MSTORE PUSH1 0xCD PUSH1 0x20 MSTORE PUSH1 0x40 SWAP1 KECCAK256 SLOAD SWAP1 SWAP2 POP DUP2 GT PUSH2 0x529 JUMPI POP PUSH1 0x0 SWAP4 SWAP3 POP POP POP JUMP JUMPDEST PUSH1 0x1 PUSH1 0x1 PUSH1 0xA0 SHL SUB DUP5 AND PUSH1 0x0 SWAP1 DUP2 MSTORE PUSH1 0xCD PUSH1 0x20 MSTORE PUSH1 0x40 SWAP1 KECCAK256 SLOAD PUSH2 0x54C SWAP1 DUP3 PUSH2 0x1838 JUMP JUMPDEST SWAP5 SWAP4 POP POP POP POP JUMP JUMPDEST PUSH1 0x0 PUSH1 0x2 PUSH1 0x97 SLOAD EQ ISZERO PUSH2 0x579 JUMPI PUSH1 0x40 MLOAD PUSH3 0x461BCD PUSH1 0xE5 SHL DUP2 MSTORE PUSH1 0x4 ADD PUSH2 0x368 SWAP1 PUSH2 0x1797 JUMP JUMPDEST PUSH1 0x2 PUSH1 0x97 SSTORE PUSH1 0xCC SLOAD PUSH1 0x1 PUSH1 0x1 PUSH1 0xA0 SHL SUB AND CALLER EQ PUSH2 0x5A8 JUMPI PUSH1 0x40 MLOAD PUSH3 0x461BCD PUSH1 0xE5 SHL DUP2 MSTORE PUSH1 0x4 ADD PUSH2 0x368 SWAP1 PUSH2 0x176A JUMP JUMPDEST PUSH2 0x3A3 DUP4 DUP4 PUSH2 0xB9C JUMP JUMPDEST PUSH2 0x5BA PUSH2 0xD5D JUMP JUMPDEST PUSH1 0xCC DUP1 SLOAD PUSH1 0x1 PUSH1 0x1 PUSH1 0xA0 SHL SUB NOT AND PUSH1 0x1 PUSH1 0x1 PUSH1 0xA0 SHL SUB DUP4 AND SWAP1 DUP2 OR SWAP1 SWAP2 SSTORE PUSH1 0x40 MLOAD SWAP1 DUP2 MSTORE PUSH32 0x1085CEC9A5108943412475D298086AE4D0ABF09CFAD47B05436B89FE887A820C SWAP1 PUSH1 0x20 ADD PUSH1 0x40 MLOAD DUP1 SWAP2 SUB SWAP1 LOG1 POP JUMP JUMPDEST PUSH1 0x0 SLOAD PUSH2 0x100 SWAP1 DIV PUSH1 0xFF AND ISZERO DUP1 DUP1 ISZERO PUSH2 0x62E JUMPI POP PUSH1 0x0 SLOAD PUSH1 0x1 PUSH1 0xFF SWAP1 SWAP2 AND LT JUMPDEST DUP1 PUSH2 0x648 JUMPI POP ADDRESS EXTCODESIZE ISZERO DUP1 ISZERO PUSH2 0x648 JUMPI POP PUSH1 0x0 SLOAD PUSH1 0xFF AND PUSH1 0x1 EQ JUMPDEST PUSH2 0x6AB JUMPI PUSH1 0x40 MLOAD PUSH3 0x461BCD PUSH1 0xE5 SHL DUP2 MSTORE PUSH1 0x20 PUSH1 0x4 DUP3 ADD MSTORE PUSH1 0x2E PUSH1 0x24 DUP3 ADD MSTORE PUSH32 0x496E697469616C697A61626C653A20636F6E747261637420697320616C726561 PUSH1 0x44 DUP3 ADD MSTORE PUSH14 0x191E481A5B9A5D1A585B1A5E9959 PUSH1 0x92 SHL PUSH1 0x64 DUP3 ADD MSTORE PUSH1 0x84 ADD PUSH2 0x368 JUMP JUMPDEST PUSH1 0x0 DUP1 SLOAD PUSH1 0xFF NOT AND PUSH1 0x1 OR SWAP1 SSTORE DUP1 ISZERO PUSH2 0x6CE JUMPI PUSH1 0x0 DUP1 SLOAD PUSH2 0xFF00 NOT AND PUSH2 0x100 OR SWAP1 SSTORE JUMPDEST PUSH2 0x6D6 PUSH2 0xDB7 JUMP JUMPDEST PUSH2 0x6DE PUSH2 0xDE6 JUMP JUMPDEST PUSH2 0x6E6 PUSH2 0xE15 JUMP JUMPDEST DUP4 MLOAD PUSH2 0x6F9 SWAP1 PUSH1 0xC9 SWAP1 PUSH1 0x20 DUP8 ADD SWAP1 PUSH2 0x14A1 JUMP JUMPDEST POP PUSH1 0xCA DUP1 SLOAD PUSH1 0x1 PUSH1 0x1 PUSH1 0xA0 SHL SUB DUP1 DUP7 AND PUSH1 0x1 PUSH1 0x1 PUSH1 0xA0 SHL SUB NOT SWAP3 DUP4 AND OR SWAP1 SWAP3 SSTORE PUSH1 0xCB DUP1 SLOAD SWAP3 DUP6 AND SWAP3 SWAP1 SWAP2 AND SWAP2 SWAP1 SWAP2 OR SWAP1 SSTORE DUP1 ISZERO PUSH2 0x770 JUMPI PUSH1 0x0 DUP1 SLOAD PUSH2 0xFF00 NOT AND SWAP1 SSTORE PUSH1 0x40 MLOAD PUSH1 0x1 DUP2 MSTORE PUSH32 0x7F26B83FF96E1F2B6A682F133852F6798A09C465DA95921460CEFB3847402498 SWAP1 PUSH1 0x20 ADD PUSH1 0x40 MLOAD DUP1 SWAP2 SUB SWAP1 LOG1 JUMPDEST POP POP POP POP JUMP JUMPDEST PUSH2 0x77E PUSH2 0xD5D JUMP JUMPDEST PUSH2 0x788 PUSH1 0x0 PUSH2 0xE44 JUMP JUMPDEST JUMP JUMPDEST PUSH1 0x0 PUSH1 0x2 PUSH1 0x97 SLOAD EQ ISZERO PUSH2 0x7AF JUMPI PUSH1 0x40 MLOAD PUSH3 0x461BCD PUSH1 0xE5 SHL DUP2 MSTORE PUSH1 0x4 ADD PUSH2 0x368 SWAP1 PUSH2 0x1797 JUMP JUMPDEST PUSH1 0x2 PUSH1 0x97 SSTORE PUSH1 0xCC SLOAD PUSH1 0x1 PUSH1 0x1 PUSH1 0xA0 SHL SUB AND CALLER EQ PUSH2 0x7DE JUMPI PUSH1 0x40 MLOAD PUSH3 0x461BCD PUSH1 0xE5 SHL DUP2 MSTORE PUSH1 0x4 ADD PUSH2 0x368 SWAP1 PUSH2 0x176A JUMP JUMPDEST PUSH2 0x7E9 DUP5 DUP5 DUP5 PUSH2 0xE96 JUMP JUMPDEST PUSH1 0x1 PUSH1 0x97 SSTORE SWAP5 SWAP4 POP POP POP POP JUMP JUMPDEST PUSH1 0x0 DUP1 PUSH1 0xCB PUSH1 0x0 SWAP1 SLOAD SWAP1 PUSH2 0x100 EXP SWAP1 DIV PUSH1 0x1 PUSH1 0x1 PUSH1 0xA0 SHL SUB AND PUSH1 0x1 PUSH1 0x1 PUSH1 0xA0 SHL SUB AND PUSH4 0x71CA337D PUSH1 0x40 MLOAD DUP2 PUSH4 0xFFFFFFFF AND PUSH1 0xE0 SHL DUP2 MSTORE PUSH1 0x4 ADD PUSH1 0x20 PUSH1 0x40 MLOAD DUP1 DUP4 SUB DUP2 DUP7 GAS STATICCALL ISZERO DUP1 ISZERO PUSH2 0x84C JUMPI RETURNDATASIZE PUSH1 0x0 DUP1 RETURNDATACOPY RETURNDATASIZE PUSH1 0x0 REVERT JUMPDEST POP POP POP POP PUSH1 0x40 MLOAD RETURNDATASIZE PUSH1 0x1F NOT PUSH1 0x1F DUP3 ADD AND DUP3 ADD DUP1 PUSH1 0x40 MSTORE POP DUP2 ADD SWAP1 PUSH2 0x870 SWAP2 SWAP1 PUSH2 0x1809 JUMP JUMPDEST PUSH1 0x1 PUSH1 0x1 PUSH1 0xA0 SHL SUB DUP5 AND PUSH1 0x0 SWAP1 DUP2 MSTORE PUSH1 0xCF PUSH1 0x20 MSTORE PUSH1 0x40 SWAP1 KECCAK256 SLOAD SWAP1 SWAP2 POP PUSH8 0xDE0B6B3A7640000 SWAP1 PUSH2 0x8A1 SWAP1 DUP4 SWAP1 PUSH2 0x184F JUMP JUMPDEST PUSH2 0x8AB SWAP2 SWAP1 PUSH2 0x186E JUMP JUMPDEST SWAP4 SWAP3 POP POP POP JUMP JUMPDEST PUSH1 0x0 PUSH1 0x2 PUSH1 0x97 SLOAD EQ ISZERO PUSH2 0x8D7 JUMPI PUSH1 0x40 MLOAD PUSH3 0x461BCD PUSH1 0xE5 SHL DUP2 MSTORE PUSH1 0x4 ADD PUSH2 0x368 SWAP1 PUSH2 0x1797 JUMP JUMPDEST PUSH1 0x2 PUSH1 0x97 SSTORE PUSH2 0x8E6 CALLER DUP4 PUSH2 0xA45 JUMP JUMPDEST PUSH1 0x1 PUSH1 0x97 SSTORE SWAP3 SWAP2 POP POP JUMP JUMPDEST PUSH1 0x0 PUSH1 0x2 PUSH1 0x97 SLOAD EQ ISZERO PUSH2 0x916 JUMPI PUSH1 0x40 MLOAD PUSH3 0x461BCD PUSH1 0xE5 SHL DUP2 MSTORE PUSH1 0x4 ADD PUSH2 0x368 SWAP1 PUSH2 0x1797 JUMP JUMPDEST PUSH1 0x2 PUSH1 0x97 SSTORE PUSH2 0x8E6 CALLER DUP4 PUSH2 0xB9C JUMP JUMPDEST PUSH2 0x92D PUSH2 0xD5D JUMP JUMPDEST PUSH1 0x1 PUSH1 0x1 PUSH1 0xA0 SHL SUB DUP2 AND PUSH2 0x992 JUMPI PUSH1 0x40 MLOAD PUSH3 0x461BCD PUSH1 0xE5 SHL DUP2 MSTORE PUSH1 0x20 PUSH1 0x4 DUP3 ADD MSTORE PUSH1 0x26 PUSH1 0x24 DUP3 ADD MSTORE PUSH32 0x4F776E61626C653A206E6577206F776E657220697320746865207A65726F2061 PUSH1 0x44 DUP3 ADD MSTORE PUSH6 0x646472657373 PUSH1 0xD0 SHL PUSH1 0x64 DUP3 ADD MSTORE PUSH1 0x84 ADD PUSH2 0x368 JUMP JUMPDEST PUSH2 0x99B DUP2 PUSH2 0xE44 JUMP JUMPDEST POP JUMP JUMPDEST PUSH1 0x0 PUSH1 0x2 PUSH1 0x97 SLOAD EQ ISZERO PUSH2 0x9C3 JUMPI PUSH1 0x40 MLOAD PUSH3 0x461BCD PUSH1 0xE5 SHL DUP2 MSTORE PUSH1 0x4 ADD PUSH2 0x368 SWAP1 PUSH2 0x1797 JUMP JUMPDEST PUSH1 0x2 PUSH1 0x97 SSTORE PUSH2 0x3A3 CALLER DUP5 DUP5 PUSH2 0xE96 JUMP JUMPDEST PUSH1 0xCB SLOAD PUSH1 0x40 MLOAD PUSH4 0x70A08231 PUSH1 0xE0 SHL DUP2 MSTORE ADDRESS PUSH1 0x4 DUP3 ADD MSTORE PUSH1 0x0 SWAP2 PUSH1 0x1 PUSH1 0x1 PUSH1 0xA0 SHL SUB AND SWAP1 PUSH4 0x70A08231 SWAP1 PUSH1 0x24 ADD PUSH1 0x20 PUSH1 0x40 MLOAD DUP1 DUP4 SUB DUP2 DUP7 GAS STATICCALL ISZERO DUP1 ISZERO PUSH2 0xA1C JUMPI RETURNDATASIZE PUSH1 0x0 DUP1 RETURNDATACOPY RETURNDATASIZE PUSH1 0x0 REVERT JUMPDEST POP POP POP POP PUSH1 0x40 MLOAD RETURNDATASIZE PUSH1 0x1F NOT PUSH1 0x1F DUP3 ADD AND DUP3 ADD DUP1 PUSH1 0x40 MSTORE POP DUP2 ADD SWAP1 PUSH2 0xA40 SWAP2 SWAP1 PUSH2 0x1809 JUMP JUMPDEST SWAP1 POP SWAP1 JUMP JUMPDEST PUSH1 0x40 MLOAD PUSH4 0x223888C1 PUSH1 0xE0 SHL DUP2 MSTORE PUSH1 0x1 PUSH1 0x1 PUSH1 0xA0 SHL SUB DUP4 AND PUSH1 0x4 DUP3 ADD MSTORE PUSH1 0x0 SWAP1 DUP2 SWAP1 ADDRESS SWAP1 PUSH4 0x223888C1 SWAP1 PUSH1 0x24 ADD PUSH1 0x20 PUSH1 0x40 MLOAD DUP1 DUP4 SUB DUP2 DUP7 GAS STATICCALL ISZERO DUP1 ISZERO PUSH2 0xA8E JUMPI RETURNDATASIZE PUSH1 0x0 DUP1 RETURNDATACOPY RETURNDATASIZE PUSH1 0x0 REVERT JUMPDEST POP POP POP POP PUSH1 0x40 MLOAD RETURNDATASIZE PUSH1 0x1F NOT PUSH1 0x1F DUP3 ADD AND DUP3 ADD DUP1 PUSH1 0x40 MSTORE POP DUP2 ADD SWAP1 PUSH2 0xAB2 SWAP2 SWAP1 PUSH2 0x1809 JUMP JUMPDEST SWAP1 POP PUSH1 0x0 DUP2 GT PUSH2 0xB04 JUMPI PUSH1 0x40 MLOAD PUSH3 0x461BCD PUSH1 0xE5 SHL DUP2 MSTORE PUSH1 0x20 PUSH1 0x4 DUP3 ADD MSTORE PUSH1 0x1B PUSH1 0x24 DUP3 ADD MSTORE PUSH32 0x686173206E6F7420676F74207969656C647320746F20636C61696D0000000000 PUSH1 0x44 DUP3 ADD MSTORE PUSH1 0x64 ADD PUSH2 0x368 JUMP JUMPDEST PUSH1 0x1 PUSH1 0x1 PUSH1 0xA0 SHL SUB DUP5 AND PUSH1 0x0 SWAP1 DUP2 MSTORE PUSH1 0xCD PUSH1 0x20 MSTORE PUSH1 0x40 DUP2 KECCAK256 DUP1 SLOAD DUP4 SWAP3 SWAP1 PUSH2 0xB2C SWAP1 DUP5 SWAP1 PUSH2 0x1890 JUMP JUMPDEST SWAP1 SWAP2 SSTORE POP POP PUSH1 0xCB SLOAD PUSH2 0xB48 SWAP1 PUSH1 0x1 PUSH1 0x1 PUSH1 0xA0 SHL SUB AND DUP5 DUP4 PUSH2 0x117E JUMP JUMPDEST DUP3 PUSH1 0x1 PUSH1 0x1 PUSH1 0xA0 SHL SUB AND DUP5 PUSH1 0x1 PUSH1 0x1 PUSH1 0xA0 SHL SUB AND PUSH32 0xF7A40077FF7A04C7E61F6F26FB13774259DDF1B6BCE9ECF26A8276CDD3992683 DUP4 PUSH1 0x40 MLOAD PUSH2 0xB8D SWAP2 DUP2 MSTORE PUSH1 0x20 ADD SWAP1 JUMP JUMPDEST PUSH1 0x40 MLOAD DUP1 SWAP2 SUB SWAP1 LOG3 SWAP4 SWAP3 POP POP POP JUMP JUMPDEST PUSH1 0x0 DUP1 PUSH1 0xCB PUSH1 0x0 SWAP1 SLOAD SWAP1 PUSH2 0x100 EXP SWAP1 DIV PUSH1 0x1 PUSH1 0x1 PUSH1 0xA0 SHL SUB AND PUSH1 0x1 PUSH1 0x1 PUSH1 0xA0 SHL SUB AND PUSH4 0x71CA337D PUSH1 0x40 MLOAD DUP2 PUSH4 0xFFFFFFFF AND PUSH1 0xE0 SHL DUP2 MSTORE PUSH1 0x4 ADD PUSH1 0x20 PUSH1 0x40 MLOAD DUP1 DUP4 SUB DUP2 DUP7 GAS STATICCALL ISZERO DUP1 ISZERO PUSH2 0xBF2 JUMPI RETURNDATASIZE PUSH1 0x0 DUP1 RETURNDATACOPY RETURNDATASIZE PUSH1 0x0 REVERT JUMPDEST POP POP POP POP PUSH1 0x40 MLOAD RETURNDATASIZE PUSH1 0x1F NOT PUSH1 0x1F DUP3 ADD AND DUP3 ADD DUP1 PUSH1 0x40 MSTORE POP DUP2 ADD SWAP1 PUSH2 0xC16 SWAP2 SWAP1 PUSH2 0x1809 JUMP JUMPDEST PUSH1 0xCB SLOAD SWAP1 SWAP2 POP PUSH2 0xC31 SWAP1 PUSH1 0x1 PUSH1 0x1 PUSH1 0xA0 SHL SUB AND CALLER ADDRESS DUP7 PUSH2 0x11E6 JUMP JUMPDEST PUSH1 0x0 DUP2 PUSH2 0xC46 DUP6 PUSH8 0xDE0B6B3A7640000 PUSH2 0x184F JUMP JUMPDEST PUSH2 0xC50 SWAP2 SWAP1 PUSH2 0x186E JUMP JUMPDEST PUSH1 0x1 PUSH1 0x1 PUSH1 0xA0 SHL SUB DUP7 AND PUSH1 0x0 SWAP1 DUP2 MSTORE PUSH1 0xCE PUSH1 0x20 MSTORE PUSH1 0x40 DUP2 KECCAK256 DUP1 SLOAD SWAP3 SWAP4 POP DUP7 SWAP3 SWAP1 SWAP2 SWAP1 PUSH2 0xC7D SWAP1 DUP5 SWAP1 PUSH2 0x1890 JUMP JUMPDEST SWAP1 SWAP2 SSTORE POP POP PUSH1 0x1 PUSH1 0x1 PUSH1 0xA0 SHL SUB DUP6 AND PUSH1 0x0 SWAP1 DUP2 MSTORE PUSH1 0xCF PUSH1 0x20 MSTORE PUSH1 0x40 DUP2 KECCAK256 DUP1 SLOAD DUP4 SWAP3 SWAP1 PUSH2 0xCAA SWAP1 DUP5 SWAP1 PUSH2 0x1890 JUMP JUMPDEST SWAP1 SWAP2 SSTORE POP POP PUSH1 0xCA SLOAD PUSH1 0x40 MLOAD PUSH4 0x40C10F19 PUSH1 0xE0 SHL DUP2 MSTORE PUSH1 0x1 PUSH1 0x1 PUSH1 0xA0 SHL SUB DUP8 DUP2 AND PUSH1 0x4 DUP4 ADD MSTORE PUSH1 0x24 DUP3 ADD DUP5 SWAP1 MSTORE SWAP1 SWAP2 AND SWAP1 PUSH4 0x40C10F19 SWAP1 PUSH1 0x44 ADD PUSH1 0x0 PUSH1 0x40 MLOAD DUP1 DUP4 SUB DUP2 PUSH1 0x0 DUP8 DUP1 EXTCODESIZE ISZERO DUP1 ISZERO PUSH2 0xCFD JUMPI PUSH1 0x0 DUP1 REVERT JUMPDEST POP GAS CALL ISZERO DUP1 ISZERO PUSH2 0xD11 JUMPI RETURNDATASIZE PUSH1 0x0 DUP1 RETURNDATACOPY RETURNDATASIZE PUSH1 0x0 REVERT JUMPDEST POP POP PUSH1 0x40 MLOAD DUP4 DUP2 MSTORE PUSH1 0x1 PUSH1 0x1 PUSH1 0xA0 SHL SUB DUP9 AND SWAP3 POP CALLER SWAP2 POP PUSH32 0x8752A472E571A816AEA92EEC8DAE9BAF628E840F4929FBCC2D155E6233FF68A7 SWAP1 PUSH1 0x20 ADD PUSH1 0x40 MLOAD DUP1 SWAP2 SUB SWAP1 LOG3 SWAP5 SWAP4 POP POP POP POP JUMP JUMPDEST PUSH1 0x33 SLOAD PUSH1 0x1 PUSH1 0x1 PUSH1 0xA0 SHL SUB AND CALLER EQ PUSH2 0x788 JUMPI PUSH1 0x40 MLOAD PUSH3 0x461BCD PUSH1 0xE5 SHL DUP2 MSTORE PUSH1 0x20 PUSH1 0x4 DUP3 ADD DUP2 SWAP1 MSTORE PUSH1 0x24 DUP3 ADD MSTORE PUSH32 0x4F776E61626C653A2063616C6C6572206973206E6F7420746865206F776E6572 PUSH1 0x44 DUP3 ADD MSTORE PUSH1 0x64 ADD PUSH2 0x368 JUMP JUMPDEST PUSH1 0x0 SLOAD PUSH2 0x100 SWAP1 DIV PUSH1 0xFF AND PUSH2 0xDDE JUMPI PUSH1 0x40 MLOAD PUSH3 0x461BCD PUSH1 0xE5 SHL DUP2 MSTORE PUSH1 0x4 ADD PUSH2 0x368 SWAP1 PUSH2 0x18A8 JUMP JUMPDEST PUSH2 0x788 PUSH2 0x121E JUMP JUMPDEST PUSH1 0x0 SLOAD PUSH2 0x100 SWAP1 DIV PUSH1 0xFF AND PUSH2 0xE0D JUMPI PUSH1 0x40 MLOAD PUSH3 0x461BCD PUSH1 0xE5 SHL DUP2 MSTORE PUSH1 0x4 ADD PUSH2 0x368 SWAP1 PUSH2 0x18A8 JUMP JUMPDEST PUSH2 0x788 PUSH2 0x124E JUMP JUMPDEST PUSH1 0x0 SLOAD PUSH2 0x100 SWAP1 DIV PUSH1 0xFF AND PUSH2 0xE3C JUMPI PUSH1 0x40 MLOAD PUSH3 0x461BCD PUSH1 0xE5 SHL DUP2 MSTORE PUSH1 0x4 ADD PUSH2 0x368 SWAP1 PUSH2 0x18A8 JUMP JUMPDEST PUSH2 0x788 PUSH2 0x1281 JUMP JUMPDEST PUSH1 0x33 DUP1 SLOAD PUSH1 0x1 PUSH1 0x1 PUSH1 0xA0 SHL SUB DUP4 DUP2 AND PUSH1 0x1 PUSH1 0x1 PUSH1 0xA0 SHL SUB NOT DUP4 AND DUP2 OR SWAP1 SWAP4 SSTORE PUSH1 0x40 MLOAD SWAP2 AND SWAP2 SWAP1 DUP3 SWAP1 PUSH32 0x8BE0079C531659141344CD1FD0A4F28419497F9722A3DAAFE3B4186F6B6457E0 SWAP1 PUSH1 0x0 SWAP1 LOG3 POP POP JUMP JUMPDEST PUSH1 0x0 DUP1 PUSH1 0xCB PUSH1 0x0 SWAP1 SLOAD SWAP1 PUSH2 0x100 EXP SWAP1 DIV PUSH1 0x1 PUSH1 0x1 PUSH1 0xA0 SHL SUB AND PUSH1 0x1 PUSH1 0x1 PUSH1 0xA0 SHL SUB AND PUSH4 0x71CA337D PUSH1 0x40 MLOAD DUP2 PUSH4 0xFFFFFFFF AND PUSH1 0xE0 SHL DUP2 MSTORE PUSH1 0x4 ADD PUSH1 0x20 PUSH1 0x40 MLOAD DUP1 DUP4 SUB DUP2 DUP7 GAS STATICCALL ISZERO DUP1 ISZERO PUSH2 0xEEC JUMPI RETURNDATASIZE PUSH1 0x0 DUP1 RETURNDATACOPY RETURNDATASIZE PUSH1 0x0 REVERT JUMPDEST POP POP POP POP PUSH1 0x40 MLOAD RETURNDATASIZE PUSH1 0x1F NOT PUSH1 0x1F DUP3 ADD AND DUP3 ADD DUP1 PUSH1 0x40 MSTORE POP DUP2 ADD SWAP1 PUSH2 0xF10 SWAP2 SWAP1 PUSH2 0x1809 JUMP JUMPDEST SWAP1 POP PUSH1 0x0 PUSH8 0xDE0B6B3A7640000 PUSH2 0xF27 DUP4 DUP7 PUSH2 0x184F JUMP JUMPDEST PUSH2 0xF31 SWAP2 SWAP1 PUSH2 0x186E JUMP JUMPDEST PUSH1 0xCB SLOAD PUSH1 0x40 MLOAD PUSH4 0x70A08231 PUSH1 0xE0 SHL DUP2 MSTORE ADDRESS PUSH1 0x4 DUP3 ADD MSTORE SWAP2 SWAP3 POP DUP3 SWAP2 PUSH1 0x1 PUSH1 0x1 PUSH1 0xA0 SHL SUB SWAP1 SWAP2 AND SWAP1 PUSH4 0x70A08231 SWAP1 PUSH1 0x24 ADD PUSH1 0x20 PUSH1 0x40 MLOAD DUP1 DUP4 SUB DUP2 DUP7 GAS STATICCALL ISZERO DUP1 ISZERO PUSH2 0xF7E JUMPI RETURNDATASIZE PUSH1 0x0 DUP1 RETURNDATACOPY RETURNDATASIZE PUSH1 0x0 REVERT JUMPDEST POP POP POP POP PUSH1 0x40 MLOAD RETURNDATASIZE PUSH1 0x1F NOT PUSH1 0x1F DUP3 ADD AND DUP3 ADD DUP1 PUSH1 0x40 MSTORE POP DUP2 ADD SWAP1 PUSH2 0xFA2 SWAP2 SWAP1 PUSH2 0x1809 JUMP JUMPDEST LT ISZERO PUSH2 0xFF0 JUMPI PUSH1 0x40 MLOAD PUSH3 0x461BCD PUSH1 0xE5 SHL DUP2 MSTORE PUSH1 0x20 PUSH1 0x4 DUP3 ADD MSTORE PUSH1 0x1C PUSH1 0x24 DUP3 ADD MSTORE PUSH32 0x6E6F74207375636820616D6F756E7420696E20746865207661756C7400000000 PUSH1 0x44 DUP3 ADD MSTORE PUSH1 0x64 ADD PUSH2 0x368 JUMP JUMPDEST PUSH1 0x1 PUSH1 0x1 PUSH1 0xA0 SHL SUB DUP7 AND PUSH1 0x0 SWAP1 DUP2 MSTORE PUSH1 0xCF PUSH1 0x20 MSTORE PUSH1 0x40 SWAP1 KECCAK256 SLOAD DUP5 DUP2 LT ISZERO PUSH2 0x1050 JUMPI PUSH1 0x40 MLOAD PUSH3 0x461BCD PUSH1 0xE5 SHL DUP2 MSTORE PUSH1 0x20 PUSH1 0x4 DUP3 ADD MSTORE PUSH1 0x14 PUSH1 0x24 DUP3 ADD MSTORE PUSH20 0x696E73756666696369656E742062616C616E6365 PUSH1 0x60 SHL PUSH1 0x44 DUP3 ADD MSTORE PUSH1 0x64 ADD PUSH2 0x368 JUMP JUMPDEST PUSH1 0x1 PUSH1 0x1 PUSH1 0xA0 SHL SUB DUP8 AND PUSH1 0x0 SWAP1 DUP2 MSTORE PUSH1 0xCF PUSH1 0x20 MSTORE PUSH1 0x40 DUP2 KECCAK256 DUP1 SLOAD DUP8 SWAP3 SWAP1 PUSH2 0x1078 SWAP1 DUP5 SWAP1 PUSH2 0x1838 JUMP JUMPDEST SWAP1 SWAP2 SSTORE POP POP PUSH1 0xCA SLOAD PUSH1 0x40 MLOAD PUSH4 0x2770A7EB PUSH1 0xE2 SHL DUP2 MSTORE PUSH1 0x1 PUSH1 0x1 PUSH1 0xA0 SHL SUB DUP10 DUP2 AND PUSH1 0x4 DUP4 ADD MSTORE PUSH1 0x24 DUP3 ADD DUP9 SWAP1 MSTORE SWAP1 SWAP2 AND SWAP1 PUSH4 0x9DC29FAC SWAP1 PUSH1 0x44 ADD PUSH1 0x0 PUSH1 0x40 MLOAD DUP1 DUP4 SUB DUP2 PUSH1 0x0 DUP8 DUP1 EXTCODESIZE ISZERO DUP1 ISZERO PUSH2 0x10CB JUMPI PUSH1 0x0 DUP1 REVERT JUMPDEST POP GAS CALL ISZERO DUP1 ISZERO PUSH2 0x10DF JUMPI RETURNDATASIZE PUSH1 0x0 DUP1 RETURNDATACOPY RETURNDATASIZE PUSH1 0x0 REVERT JUMPDEST POP POP POP POP PUSH1 0x1 PUSH1 0x1 PUSH1 0xA0 SHL SUB DUP8 AND PUSH1 0x0 SWAP1 DUP2 MSTORE PUSH1 0xCE PUSH1 0x20 MSTORE PUSH1 0x40 DUP2 KECCAK256 DUP1 SLOAD DUP5 SWAP3 SWAP1 PUSH2 0x110B SWAP1 DUP5 SWAP1 PUSH2 0x1838 JUMP JUMPDEST SWAP1 SWAP2 SSTORE POP POP PUSH1 0xCB SLOAD PUSH2 0x1127 SWAP1 PUSH1 0x1 PUSH1 0x1 PUSH1 0xA0 SHL SUB AND DUP8 DUP5 PUSH2 0x117E JUMP JUMPDEST DUP6 PUSH1 0x1 PUSH1 0x1 PUSH1 0xA0 SHL SUB AND DUP8 PUSH1 0x1 PUSH1 0x1 PUSH1 0xA0 SHL SUB AND PUSH32 0xD1C19FBCD4551A5EDFB66D43D2E337C04837AFDA3482B42BDF569A8FCCDAE5FB DUP5 PUSH1 0x40 MLOAD PUSH2 0x116C SWAP2 DUP2 MSTORE PUSH1 0x20 ADD SWAP1 JUMP JUMPDEST PUSH1 0x40 MLOAD DUP1 SWAP2 SUB SWAP1 LOG3 POP SWAP6 SWAP5 POP POP POP POP POP JUMP JUMPDEST PUSH1 0x40 MLOAD PUSH1 0x1 PUSH1 0x1 PUSH1 0xA0 SHL SUB DUP4 AND PUSH1 0x24 DUP3 ADD MSTORE PUSH1 0x44 DUP2 ADD DUP3 SWAP1 MSTORE PUSH2 0x11E1 SWAP1 DUP5 SWAP1 PUSH4 0xA9059CBB PUSH1 0xE0 SHL SWAP1 PUSH1 0x64 ADD JUMPDEST PUSH1 0x40 DUP1 MLOAD PUSH1 0x1F NOT DUP2 DUP5 SUB ADD DUP2 MSTORE SWAP2 SWAP1 MSTORE PUSH1 0x20 DUP2 ADD DUP1 MLOAD PUSH1 0x1 PUSH1 0x1 PUSH1 0xE0 SHL SUB AND PUSH1 0x1 PUSH1 0x1 PUSH1 0xE0 SHL SUB NOT SWAP1 SWAP4 AND SWAP3 SWAP1 SWAP3 OR SWAP1 SWAP2 MSTORE PUSH2 0x12AF JUMP JUMPDEST POP POP POP JUMP JUMPDEST PUSH1 0x40 MLOAD PUSH1 0x1 PUSH1 0x1 PUSH1 0xA0 SHL SUB DUP1 DUP6 AND PUSH1 0x24 DUP4 ADD MSTORE DUP4 AND PUSH1 0x44 DUP3 ADD MSTORE PUSH1 0x64 DUP2 ADD DUP3 SWAP1 MSTORE PUSH2 0x770 SWAP1 DUP6 SWAP1 PUSH4 0x23B872DD PUSH1 0xE0 SHL SWAP1 PUSH1 0x84 ADD PUSH2 0x11AA JUMP JUMPDEST PUSH1 0x0 SLOAD PUSH2 0x100 SWAP1 DIV PUSH1 0xFF AND PUSH2 0x1245 JUMPI PUSH1 0x40 MLOAD PUSH3 0x461BCD PUSH1 0xE5 SHL DUP2 MSTORE PUSH1 0x4 ADD PUSH2 0x368 SWAP1 PUSH2 0x18A8 JUMP JUMPDEST PUSH2 0x788 CALLER PUSH2 0xE44 JUMP JUMPDEST PUSH1 0x0 SLOAD PUSH2 0x100 SWAP1 DIV PUSH1 0xFF AND PUSH2 0x1275 JUMPI PUSH1 0x40 MLOAD PUSH3 0x461BCD PUSH1 0xE5 SHL DUP2 MSTORE PUSH1 0x4 ADD PUSH2 0x368 SWAP1 PUSH2 0x18A8 JUMP JUMPDEST PUSH1 0x65 DUP1 SLOAD PUSH1 0xFF NOT AND SWAP1 SSTORE JUMP JUMPDEST PUSH1 0x0 SLOAD PUSH2 0x100 SWAP1 DIV PUSH1 0xFF AND PUSH2 0x12A8 JUMPI PUSH1 0x40 MLOAD PUSH3 0x461BCD PUSH1 0xE5 SHL DUP2 MSTORE PUSH1 0x4 ADD PUSH2 0x368 SWAP1 PUSH2 0x18A8 JUMP JUMPDEST PUSH1 0x1 PUSH1 0x97 SSTORE JUMP JUMPDEST PUSH1 0x0 PUSH2 0x1304 DUP3 PUSH1 0x40 MLOAD DUP1 PUSH1 0x40 ADD PUSH1 0x40 MSTORE DUP1 PUSH1 0x20 DUP2 MSTORE PUSH1 0x20 ADD PUSH32 0x5361666545524332303A206C6F772D6C6576656C2063616C6C206661696C6564 DUP2 MSTORE POP DUP6 PUSH1 0x1 PUSH1 0x1 PUSH1 0xA0 SHL SUB AND PUSH2 0x1381 SWAP1 SWAP3 SWAP2 SWAP1 PUSH4 0xFFFFFFFF AND JUMP JUMPDEST DUP1 MLOAD SWAP1 SWAP2 POP ISZERO PUSH2 0x11E1 JUMPI DUP1 DUP1 PUSH1 0x20 ADD SWAP1 MLOAD DUP2 ADD SWAP1 PUSH2 0x1322 SWAP2 SWAP1 PUSH2 0x18F3 JUMP JUMPDEST PUSH2 0x11E1 JUMPI PUSH1 0x40 MLOAD PUSH3 0x461BCD PUSH1 0xE5 SHL DUP2 MSTORE PUSH1 0x20 PUSH1 0x4 DUP3 ADD MSTORE PUSH1 0x2A PUSH1 0x24 DUP3 ADD MSTORE PUSH32 0x5361666545524332303A204552433230206F7065726174696F6E20646964206E PUSH1 0x44 DUP3 ADD MSTORE PUSH10 0x1BDD081CDD58D8D95959 PUSH1 0xB2 SHL PUSH1 0x64 DUP3 ADD MSTORE PUSH1 0x84 ADD PUSH2 0x368 JUMP JUMPDEST PUSH1 0x60 PUSH2 0x54C DUP5 DUP5 PUSH1 0x0 DUP6 DUP6 PUSH1 0x0 DUP1 DUP7 PUSH1 0x1 PUSH1 0x1 PUSH1 0xA0 SHL SUB AND DUP6 DUP8 PUSH1 0x40 MLOAD PUSH2 0x13A8 SWAP2 SWAP1 PUSH2 0x1915 JUMP JUMPDEST PUSH1 0x0 PUSH1 0x40 MLOAD DUP1 DUP4 SUB DUP2 DUP6 DUP8 GAS CALL SWAP3 POP POP POP RETURNDATASIZE DUP1 PUSH1 0x0 DUP2 EQ PUSH2 0x13E5 JUMPI PUSH1 0x40 MLOAD SWAP2 POP PUSH1 0x1F NOT PUSH1 0x3F RETURNDATASIZE ADD AND DUP3 ADD PUSH1 0x40 MSTORE RETURNDATASIZE DUP3 MSTORE RETURNDATASIZE PUSH1 0x0 PUSH1 0x20 DUP5 ADD RETURNDATACOPY PUSH2 0x13EA JUMP JUMPDEST PUSH1 0x60 SWAP2 POP JUMPDEST POP SWAP2 POP SWAP2 POP PUSH2 0x13FB DUP8 DUP4 DUP4 DUP8 PUSH2 0x1406 JUMP JUMPDEST SWAP8 SWAP7 POP POP POP POP POP POP POP JUMP JUMPDEST PUSH1 0x60 DUP4 ISZERO PUSH2 0x1472 JUMPI DUP3 MLOAD PUSH2 0x146B JUMPI PUSH1 0x1 PUSH1 0x1 PUSH1 0xA0 SHL SUB DUP6 AND EXTCODESIZE PUSH2 0x146B JUMPI PUSH1 0x40 MLOAD PUSH3 0x461BCD PUSH1 0xE5 SHL DUP2 MSTORE PUSH1 0x20 PUSH1 0x4 DUP3 ADD MSTORE PUSH1 0x1D PUSH1 0x24 DUP3 ADD MSTORE PUSH32 0x416464726573733A2063616C6C20746F206E6F6E2D636F6E7472616374000000 PUSH1 0x44 DUP3 ADD MSTORE PUSH1 0x64 ADD PUSH2 0x368 JUMP JUMPDEST POP DUP2 PUSH2 0x54C JUMP JUMPDEST PUSH2 0x54C DUP4 DUP4 DUP2 MLOAD ISZERO PUSH2 0x1487 JUMPI DUP2 MLOAD DUP1 DUP4 PUSH1 0x20 ADD REVERT JUMPDEST DUP1 PUSH1 0x40 MLOAD PUSH3 0x461BCD PUSH1 0xE5 SHL DUP2 MSTORE PUSH1 0x4 ADD PUSH2 0x368 SWAP2 SWAP1 PUSH2 0x15B5 JUMP JUMPDEST DUP3 DUP1 SLOAD PUSH2 0x14AD SWAP1 PUSH2 0x17CE JUMP JUMPDEST SWAP1 PUSH1 0x0 MSTORE PUSH1 0x20 PUSH1 0x0 KECCAK256 SWAP1 PUSH1 0x1F ADD PUSH1 0x20 SWAP1 DIV DUP2 ADD SWAP3 DUP3 PUSH2 0x14CF JUMPI PUSH1 0x0 DUP6 SSTORE PUSH2 0x1515 JUMP JUMPDEST DUP3 PUSH1 0x1F LT PUSH2 0x14E8 JUMPI DUP1 MLOAD PUSH1 0xFF NOT AND DUP4 DUP1 ADD OR DUP6 SSTORE PUSH2 0x1515 JUMP JUMPDEST DUP3 DUP1 ADD PUSH1 0x1 ADD DUP6 SSTORE DUP3 ISZERO PUSH2 0x1515 JUMPI SWAP2 DUP3 ADD JUMPDEST DUP3 DUP2 GT ISZERO PUSH2 0x1515 JUMPI DUP3 MLOAD DUP3 SSTORE SWAP2 PUSH1 0x20 ADD SWAP2 SWAP1 PUSH1 0x1 ADD SWAP1 PUSH2 0x14FA JUMP JUMPDEST POP PUSH2 0x1521 SWAP3 SWAP2 POP PUSH2 0x1525 JUMP JUMPDEST POP SWAP1 JUMP JUMPDEST JUMPDEST DUP1 DUP3 GT ISZERO PUSH2 0x1521 JUMPI PUSH1 0x0 DUP2 SSTORE PUSH1 0x1 ADD PUSH2 0x1526 JUMP JUMPDEST DUP1 CALLDATALOAD PUSH1 0x1 PUSH1 0x1 PUSH1 0xA0 SHL SUB DUP2 AND DUP2 EQ PUSH2 0x1551 JUMPI PUSH1 0x0 DUP1 REVERT JUMPDEST SWAP2 SWAP1 POP JUMP JUMPDEST PUSH1 0x0 DUP1 PUSH1 0x40 DUP4 DUP6 SUB SLT ISZERO PUSH2 0x1569 JUMPI PUSH1 0x0 DUP1 REVERT JUMPDEST PUSH2 0x1572 DUP4 PUSH2 0x153A JUMP JUMPDEST SWAP2 POP PUSH2 0x1580 PUSH1 0x20 DUP5 ADD PUSH2 0x153A JUMP JUMPDEST SWAP1 POP SWAP3 POP SWAP3 SWAP1 POP JUMP JUMPDEST PUSH1 0x0 JUMPDEST DUP4 DUP2 LT ISZERO PUSH2 0x15A4 JUMPI DUP2 DUP2 ADD MLOAD DUP4 DUP3 ADD MSTORE PUSH1 0x20 ADD PUSH2 0x158C JUMP JUMPDEST DUP4 DUP2 GT ISZERO PUSH2 0x770 JUMPI POP POP PUSH1 0x0 SWAP2 ADD MSTORE JUMP JUMPDEST PUSH1 0x20 DUP2 MSTORE PUSH1 0x0 DUP3 MLOAD DUP1 PUSH1 0x20 DUP5 ADD MSTORE PUSH2 0x15D4 DUP2 PUSH1 0x40 DUP6 ADD PUSH1 0x20 DUP8 ADD PUSH2 0x1589 JUMP JUMPDEST PUSH1 0x1F ADD PUSH1 0x1F NOT AND SWAP2 SWAP1 SWAP2 ADD PUSH1 0x40 ADD SWAP3 SWAP2 POP POP JUMP JUMPDEST PUSH1 0x0 PUSH1 0x20 DUP3 DUP5 SUB SLT ISZERO PUSH2 0x15FA JUMPI PUSH1 0x0 DUP1 REVERT JUMPDEST PUSH2 0x8AB DUP3 PUSH2 0x153A JUMP JUMPDEST PUSH1 0x0 DUP1 PUSH1 0x40 DUP4 DUP6 SUB SLT ISZERO PUSH2 0x1616 JUMPI PUSH1 0x0 DUP1 REVERT JUMPDEST PUSH2 0x161F DUP4 PUSH2 0x153A JUMP JUMPDEST SWAP5 PUSH1 0x20 SWAP4 SWAP1 SWAP4 ADD CALLDATALOAD SWAP4 POP POP POP JUMP JUMPDEST PUSH4 0x4E487B71 PUSH1 0xE0 SHL PUSH1 0x0 MSTORE PUSH1 0x41 PUSH1 0x4 MSTORE PUSH1 0x24 PUSH1 0x0 REVERT JUMPDEST PUSH1 0x0 DUP1 PUSH1 0x0 PUSH1 0x60 DUP5 DUP7 SUB SLT ISZERO PUSH2 0x1658 JUMPI PUSH1 0x0 DUP1 REVERT JUMPDEST DUP4 CALLDATALOAD PUSH8 0xFFFFFFFFFFFFFFFF DUP1 DUP3 GT ISZERO PUSH2 0x1670 JUMPI PUSH1 0x0 DUP1 REVERT JUMPDEST DUP2 DUP7 ADD SWAP2 POP DUP7 PUSH1 0x1F DUP4 ADD SLT PUSH2 0x1684 JUMPI PUSH1 0x0 DUP1 REVERT JUMPDEST DUP2 CALLDATALOAD DUP2 DUP2 GT ISZERO PUSH2 0x1696 JUMPI PUSH2 0x1696 PUSH2 0x162D JUMP JUMPDEST PUSH1 0x40 MLOAD PUSH1 0x1F DUP3 ADD PUSH1 0x1F NOT SWAP1 DUP2 AND PUSH1 0x3F ADD AND DUP2 ADD SWAP1 DUP4 DUP3 GT DUP2 DUP4 LT OR ISZERO PUSH2 0x16BE JUMPI PUSH2 0x16BE PUSH2 0x162D JUMP JUMPDEST DUP2 PUSH1 0x40 MSTORE DUP3 DUP2 MSTORE DUP10 PUSH1 0x20 DUP5 DUP8 ADD ADD GT ISZERO PUSH2 0x16D7 JUMPI PUSH1 0x0 DUP1 REVERT JUMPDEST DUP3 PUSH1 0x20 DUP7 ADD PUSH1 0x20 DUP4 ADD CALLDATACOPY PUSH1 0x0 PUSH1 0x20 DUP5 DUP4 ADD ADD MSTORE DUP1 SWAP8 POP POP POP POP POP POP PUSH2 0x16FE PUSH1 0x20 DUP6 ADD PUSH2 0x153A JUMP JUMPDEST SWAP2 POP PUSH2 0x170C PUSH1 0x40 DUP6 ADD PUSH2 0x153A JUMP JUMPDEST SWAP1 POP SWAP3 POP SWAP3 POP SWAP3 JUMP JUMPDEST PUSH1 0x0 DUP1 PUSH1 0x0 PUSH1 0x60 DUP5 DUP7 SUB SLT ISZERO PUSH2 0x172A JUMPI PUSH1 0x0 DUP1 REVERT JUMPDEST PUSH2 0x1733 DUP5 PUSH2 0x153A JUMP JUMPDEST SWAP3 POP PUSH2 0x1741 PUSH1 0x20 DUP6 ADD PUSH2 0x153A JUMP JUMPDEST SWAP2 POP PUSH1 0x40 DUP5 ADD CALLDATALOAD SWAP1 POP SWAP3 POP SWAP3 POP SWAP3 JUMP JUMPDEST PUSH1 0x0 PUSH1 0x20 DUP3 DUP5 SUB SLT ISZERO PUSH2 0x1763 JUMPI PUSH1 0x0 DUP1 REVERT JUMPDEST POP CALLDATALOAD SWAP2 SWAP1 POP JUMP JUMPDEST PUSH1 0x20 DUP1 DUP3 MSTORE PUSH1 0x13 SWAP1 DUP3 ADD MSTORE PUSH19 0x149BDD5D195C8E881B9BDD08185B1B1BDDD959 PUSH1 0x6A SHL PUSH1 0x40 DUP3 ADD MSTORE PUSH1 0x60 ADD SWAP1 JUMP JUMPDEST PUSH1 0x20 DUP1 DUP3 MSTORE PUSH1 0x1F SWAP1 DUP3 ADD MSTORE PUSH32 0x5265656E7472616E637947756172643A207265656E7472616E742063616C6C00 PUSH1 0x40 DUP3 ADD MSTORE PUSH1 0x60 ADD SWAP1 JUMP JUMPDEST PUSH1 0x1 DUP2 DUP2 SHR SWAP1 DUP3 AND DUP1 PUSH2 0x17E2 JUMPI PUSH1 0x7F DUP3 AND SWAP2 POP JUMPDEST PUSH1 0x20 DUP3 LT DUP2 EQ ISZERO PUSH2 0x1803 JUMPI PUSH4 0x4E487B71 PUSH1 0xE0 SHL PUSH1 0x0 MSTORE PUSH1 0x22 PUSH1 0x4 MSTORE PUSH1 0x24 PUSH1 0x0 REVERT JUMPDEST POP SWAP2 SWAP1 POP JUMP JUMPDEST PUSH1 0x0 PUSH1 0x20 DUP3 DUP5 SUB SLT ISZERO PUSH2 0x181B JUMPI PUSH1 0x0 DUP1 REVERT JUMPDEST POP MLOAD SWAP2 SWAP1 POP JUMP JUMPDEST PUSH4 0x4E487B71 PUSH1 0xE0 SHL PUSH1 0x0 MSTORE PUSH1 0x11 PUSH1 0x4 MSTORE PUSH1 0x24 PUSH1 0x0 REVERT JUMPDEST PUSH1 0x0 DUP3 DUP3 LT ISZERO PUSH2 0x184A JUMPI PUSH2 0x184A PUSH2 0x1822 JUMP JUMPDEST POP SUB SWAP1 JUMP JUMPDEST PUSH1 0x0 DUP2 PUSH1 0x0 NOT DIV DUP4 GT DUP3 ISZERO ISZERO AND ISZERO PUSH2 0x1869 JUMPI PUSH2 0x1869 PUSH2 0x1822 JUMP JUMPDEST POP MUL SWAP1 JUMP JUMPDEST PUSH1 0x0 DUP3 PUSH2 0x188B JUMPI PUSH4 0x4E487B71 PUSH1 0xE0 SHL PUSH1 0x0 MSTORE PUSH1 0x12 PUSH1 0x4 MSTORE PUSH1 0x24 PUSH1 0x0 REVERT JUMPDEST POP DIV SWAP1 JUMP JUMPDEST PUSH1 0x0 DUP3 NOT DUP3 GT ISZERO PUSH2 0x18A3 JUMPI PUSH2 0x18A3 PUSH2 0x1822 JUMP JUMPDEST POP ADD SWAP1 JUMP JUMPDEST PUSH1 0x20 DUP1 DUP3 MSTORE PUSH1 0x2B SWAP1 DUP3 ADD MSTORE PUSH32 0x496E697469616C697A61626C653A20636F6E7472616374206973206E6F742069 PUSH1 0x40 DUP3 ADD MSTORE PUSH11 0x6E697469616C697A696E67 PUSH1 0xA8 SHL PUSH1 0x60 DUP3 ADD MSTORE PUSH1 0x80 ADD SWAP1 JUMP JUMPDEST PUSH1 0x0 PUSH1 0x20 DUP3 DUP5 SUB SLT ISZERO PUSH2 0x1905 JUMPI PUSH1 0x0 DUP1 REVERT JUMPDEST DUP2 MLOAD DUP1 ISZERO ISZERO DUP2 EQ PUSH2 0x8AB JUMPI PUSH1 0x0 DUP1 REVERT JUMPDEST PUSH1 0x0 DUP3 MLOAD PUSH2 0x1927 DUP2 DUP5 PUSH1 0x20 DUP8 ADD PUSH2 0x1589 JUMP JUMPDEST SWAP2 SWAP1 SWAP2 ADD SWAP3 SWAP2 POP POP JUMP INVALID LOG2 PUSH5 0x6970667358 0x22 SLT KECCAK256 0xDD 0xE1 0x1F 0x5F MUL MLOAD 0x4B 0xDD DUP3 0x1E PUSH1 0xE7 INVALID 0xB7 0x4A 0xC0 0xBA PUSH21 0xEEC965DBBAF011E82FAE1F19CD9464736F6C634300 ADDMOD EXP STOP CALLER "
				},
				"gasEstimates": {
					"creation": {
						"codeDepositCost": "1300600",
						"executionCost": "1356",
						"totalCost": "1301956"
					},
					"external": {
						"changeRouter(address)": "27811",
						"claimYields(address)": "infinite",
						"claimYieldsFor(address,address)": "infinite",
						"deposit(uint256)": "infinite",
						"depositFor(address,uint256)": "infinite",
						"getAbnbcAddress()": "2342",
						"getCeToken()": "2333",
						"getCeTokenBalanceOf(address)": "2603",
						"getClaimedOf(address)": "2582",
						"getDepositOf(address)": "2648",
						"getName()": "infinite",
						"getPrincipalOf(address)": "infinite",
						"getRouter()": "2409",
						"getTotalAmountInVault()": "infinite",
						"getYieldFor(address)": "infinite",
						"initialize(string,address,address)": "infinite",
						"owner()": "2343",
						"paused()": "2381",
						"renounceOwnership()": "infinite",
						"transferOwnership(address)": "28424",
						"withdraw(address,uint256)": "infinite",
						"withdrawFor(address,address,uint256)": "infinite"
					},
					"internal": {
						"_claimYields(address,address)": "infinite",
						"_deposit(address,uint256)": "infinite",
						"_withdraw(address,address,uint256)": "infinite"
					}
				},
				"methodIdentifiers": {
					"changeRouter(address)": "340ac20f",
					"claimYields(address)": "b36684ac",
					"claimYieldsFor(address,address)": "1101596c",
					"deposit(uint256)": "b6b55f25",
					"depositFor(address,uint256)": "2f4f21e2",
					"getAbnbcAddress()": "b4bf36b2",
					"getCeToken()": "0c632bbe",
					"getCeTokenBalanceOf(address)": "c96f0e01",
					"getClaimedOf(address)": "4226626a",
					"getDepositOf(address)": "5d602c00",
					"getName()": "17d7de7c",
					"getPrincipalOf(address)": "aba317a9",
					"getRouter()": "b0f479a1",
					"getTotalAmountInVault()": "fad83484",
					"getYieldFor(address)": "223888c1",
					"initialize(string,address,address)": "463fd1af",
					"owner()": "8da5cb5b",
					"paused()": "5c975abb",
					"renounceOwnership()": "715018a6",
					"transferOwnership(address)": "f2fde38b",
					"withdraw(address,uint256)": "f3fef3a3",
					"withdrawFor(address,address,uint256)": "9f1d9267"
				}
			},
			"storageLayout": {
				"storage": [
					{
						"astId": 138,
						"contract": "Heliocontracts/contracts/ceros/CeVault.sol:CeVault",
						"label": "_initialized",
						"offset": 0,
						"slot": "0",
						"type": "t_uint8"
					},
					{
						"astId": 141,
						"contract": "Heliocontracts/contracts/ceros/CeVault.sol:CeVault",
						"label": "_initializing",
						"offset": 1,
						"slot": "0",
						"type": "t_bool"
					},
					{
						"astId": 752,
						"contract": "Heliocontracts/contracts/ceros/CeVault.sol:CeVault",
						"label": "__gap",
						"offset": 0,
						"slot": "1",
						"type": "t_array(t_uint256)50_storage"
					},
					{
						"astId": 10,
						"contract": "Heliocontracts/contracts/ceros/CeVault.sol:CeVault",
						"label": "_owner",
						"offset": 0,
						"slot": "51",
						"type": "t_address"
					},
					{
						"astId": 130,
						"contract": "Heliocontracts/contracts/ceros/CeVault.sol:CeVault",
						"label": "__gap",
						"offset": 0,
						"slot": "52",
						"type": "t_array(t_uint256)49_storage"
					},
					{
						"astId": 303,
						"contract": "Heliocontracts/contracts/ceros/CeVault.sol:CeVault",
						"label": "_paused",
						"offset": 0,
						"slot": "101",
						"type": "t_bool"
					},
					{
						"astId": 408,
						"contract": "Heliocontracts/contracts/ceros/CeVault.sol:CeVault",
						"label": "__gap",
						"offset": 0,
						"slot": "102",
						"type": "t_array(t_uint256)49_storage"
					},
					{
						"astId": 423,
						"contract": "Heliocontracts/contracts/ceros/CeVault.sol:CeVault",
						"label": "_status",
						"offset": 0,
						"slot": "151",
						"type": "t_uint256"
					},
					{
						"astId": 467,
						"contract": "Heliocontracts/contracts/ceros/CeVault.sol:CeVault",
						"label": "__gap",
						"offset": 0,
						"slot": "152",
						"type": "t_array(t_uint256)49_storage"
					},
					{
						"astId": 1498,
						"contract": "Heliocontracts/contracts/ceros/CeVault.sol:CeVault",
						"label": "_name",
						"offset": 0,
						"slot": "201",
						"type": "t_string_storage"
					},
					{
						"astId": 1501,
						"contract": "Heliocontracts/contracts/ceros/CeVault.sol:CeVault",
						"label": "_ceToken",
						"offset": 0,
						"slot": "202",
						"type": "t_contract(ICertToken)2117"
					},
					{
						"astId": 1504,
						"contract": "Heliocontracts/contracts/ceros/CeVault.sol:CeVault",
						"label": "_aBNBc",
						"offset": 0,
						"slot": "203",
						"type": "t_contract(ICertToken)2117"
					},
					{
						"astId": 1506,
						"contract": "Heliocontracts/contracts/ceros/CeVault.sol:CeVault",
						"label": "_router",
						"offset": 0,
						"slot": "204",
						"type": "t_address"
					},
					{
						"astId": 1510,
						"contract": "Heliocontracts/contracts/ceros/CeVault.sol:CeVault",
						"label": "_claimed",
						"offset": 0,
						"slot": "205",
						"type": "t_mapping(t_address,t_uint256)"
					},
					{
						"astId": 1514,
						"contract": "Heliocontracts/contracts/ceros/CeVault.sol:CeVault",
						"label": "_depositors",
						"offset": 0,
						"slot": "206",
						"type": "t_mapping(t_address,t_uint256)"
					},
					{
						"astId": 1518,
						"contract": "Heliocontracts/contracts/ceros/CeVault.sol:CeVault",
						"label": "_ceTokenBalances",
						"offset": 0,
						"slot": "207",
						"type": "t_mapping(t_address,t_uint256)"
					}
				],
				"types": {
					"t_address": {
						"encoding": "inplace",
						"label": "address",
						"numberOfBytes": "20"
					},
					"t_array(t_uint256)49_storage": {
						"base": "t_uint256",
						"encoding": "inplace",
						"label": "uint256[49]",
						"numberOfBytes": "1568"
					},
					"t_array(t_uint256)50_storage": {
						"base": "t_uint256",
						"encoding": "inplace",
						"label": "uint256[50]",
						"numberOfBytes": "1600"
					},
					"t_bool": {
						"encoding": "inplace",
						"label": "bool",
						"numberOfBytes": "1"
					},
					"t_contract(ICertToken)2117": {
						"encoding": "inplace",
						"label": "contract ICertToken",
						"numberOfBytes": "20"
					},
					"t_mapping(t_address,t_uint256)": {
						"encoding": "mapping",
						"key": "t_address",
						"label": "mapping(address => uint256)",
						"numberOfBytes": "32",
						"value": "t_uint256"
					},
					"t_string_storage": {
						"encoding": "bytes",
						"label": "string",
						"numberOfBytes": "32"
					},
					"t_uint256": {
						"encoding": "inplace",
						"label": "uint256",
						"numberOfBytes": "32"
					},
					"t_uint8": {
						"encoding": "inplace",
						"label": "uint8",
						"numberOfBytes": "1"
					}
				}
			},
			"userdoc": {
				"events": {
					"Deposited(address,address,uint256)": {
						"notice": "Events"
					},
					"RatioUpdated(uint256)": {
						"notice": "Methods"
					}
				},
				"kind": "user",
				"methods": {},
				"version": 1
			}
		}
	}
}