{
	"Heliocontracts/contracts/ceros/HelioProvider.sol": {
		"HelioProvider": {
			"abi": [
				{
					"anonymous": false,
					"inputs": [
						{
							"indexed": false,
							"internalType": "address",
							"name": "ceToken",
							"type": "address"
						}
					],
					"name": "ChangeCeToken",
					"type": "event"
				},
				{
					"anonymous": false,
					"inputs": [
						{
							"indexed": false,
							"internalType": "address",
							"name": "collateralToken",
							"type": "address"
						}
					],
					"name": "ChangeCollateralToken",
					"type": "event"
				},
				{
					"anonymous": false,
					"inputs": [
						{
							"indexed": false,
							"internalType": "address",
							"name": "dao",
							"type": "address"
						}
					],
					"name": "ChangeDao",
					"type": "event"
				},
				{
					"anonymous": false,
					"inputs": [
						{
							"indexed": false,
							"internalType": "address",
							"name": "operator",
							"type": "address"
						}
					],
					"name": "ChangeOperator",
					"type": "event"
				},
				{
					"anonymous": false,
					"inputs": [
						{
							"indexed": false,
							"internalType": "address",
							"name": "auctionProxy",
							"type": "address"
						}
					],
					"name": "ChangeProxy",
					"type": "event"
				},
				{
					"anonymous": false,
					"inputs": [
						{
							"indexed": true,
							"internalType": "address",
							"name": "recipient",
							"type": "address"
						},
						{
							"indexed": false,
							"internalType": "uint256",
							"name": "amount",
							"type": "uint256"
						}
					],
					"name": "Claim",
					"type": "event"
				},
				{
					"anonymous": false,
					"inputs": [
						{
							"indexed": true,
							"internalType": "address",
							"name": "account",
							"type": "address"
						},
						{
							"indexed": false,
							"internalType": "uint256",
							"name": "amount",
							"type": "uint256"
						}
					],
					"name": "Deposit",
					"type": "event"
				},
				{
					"anonymous": false,
					"inputs": [
						{
							"indexed": false,
							"internalType": "uint8",
							"name": "version",
							"type": "uint8"
						}
					],
					"name": "Initialized",
					"type": "event"
				},
				{
					"anonymous": false,
					"inputs": [
						{
							"indexed": true,
							"internalType": "address",
							"name": "previousOwner",
							"type": "address"
						},
						{
							"indexed": true,
							"internalType": "address",
							"name": "newOwner",
							"type": "address"
						}
					],
					"name": "OwnershipTransferred",
					"type": "event"
				},
				{
					"anonymous": false,
					"inputs": [
						{
							"indexed": false,
							"internalType": "address",
							"name": "account",
							"type": "address"
						}
					],
					"name": "Paused",
					"type": "event"
				},
				{
					"anonymous": false,
					"inputs": [
						{
							"indexed": false,
							"internalType": "address",
							"name": "account",
							"type": "address"
						}
					],
					"name": "Unpaused",
					"type": "event"
				},
				{
					"anonymous": false,
					"inputs": [
						{
							"indexed": true,
							"internalType": "address",
							"name": "owner",
							"type": "address"
						},
						{
							"indexed": true,
							"internalType": "address",
							"name": "recipient",
							"type": "address"
						},
						{
							"indexed": false,
							"internalType": "uint256",
							"name": "amount",
							"type": "uint256"
						}
					],
					"name": "Withdrawal",
					"type": "event"
				},
				{
					"inputs": [],
					"name": "_ceRouter",
					"outputs": [
						{
							"internalType": "contract ICerosRouter",
							"name": "",
							"type": "address"
						}
					],
					"stateMutability": "view",
					"type": "function"
				},
				{
					"inputs": [],
					"name": "_ceToken",
					"outputs": [
						{
							"internalType": "address",
							"name": "",
							"type": "address"
						}
					],
					"stateMutability": "view",
					"type": "function"
				},
				{
					"inputs": [],
					"name": "_certToken",
					"outputs": [
						{
							"internalType": "address",
							"name": "",
							"type": "address"
						}
					],
					"stateMutability": "view",
					"type": "function"
				},
				{
					"inputs": [],
					"name": "_collateralToken",
					"outputs": [
						{
							"internalType": "contract ICertToken",
							"name": "",
							"type": "address"
						}
					],
					"stateMutability": "view",
					"type": "function"
				},
				{
					"inputs": [],
					"name": "_dao",
					"outputs": [
						{
							"internalType": "contract IDao",
							"name": "",
							"type": "address"
						}
					],
					"stateMutability": "view",
					"type": "function"
				},
				{
					"inputs": [],
					"name": "_operator",
					"outputs": [
						{
							"internalType": "address",
							"name": "",
							"type": "address"
						}
					],
					"stateMutability": "view",
					"type": "function"
				},
				{
					"inputs": [],
					"name": "_pool",
					"outputs": [
						{
							"internalType": "contract IBinancePool",
							"name": "",
							"type": "address"
						}
					],
					"stateMutability": "view",
					"type": "function"
				},
				{
					"inputs": [],
					"name": "_proxy",
					"outputs": [
						{
							"internalType": "address",
							"name": "",
							"type": "address"
						}
					],
					"stateMutability": "view",
					"type": "function"
				},
				{
					"inputs": [
						{
							"internalType": "address",
							"name": "ceToken",
							"type": "address"
						}
					],
					"name": "changeCeToken",
					"outputs": [],
					"stateMutability": "nonpayable",
					"type": "function"
				},
				{
					"inputs": [
						{
							"internalType": "address",
							"name": "collateralToken",
							"type": "address"
						}
					],
					"name": "changeCollateralToken",
					"outputs": [],
					"stateMutability": "nonpayable",
					"type": "function"
				},
				{
					"inputs": [
						{
							"internalType": "address",
							"name": "dao",
							"type": "address"
						}
					],
					"name": "changeDao",
					"outputs": [],
					"stateMutability": "nonpayable",
					"type": "function"
				},
				{
					"inputs": [
						{
							"internalType": "address",
							"name": "operator",
							"type": "address"
						}
					],
					"name": "changeOperator",
					"outputs": [],
					"stateMutability": "nonpayable",
					"type": "function"
				},
				{
					"inputs": [
						{
							"internalType": "address",
							"name": "auctionProxy",
							"type": "address"
						}
					],
					"name": "changeProxy",
					"outputs": [],
					"stateMutability": "nonpayable",
					"type": "function"
				},
				{
					"inputs": [
						{
							"internalType": "address",
							"name": "recipient",
							"type": "address"
						}
					],
					"name": "claimInABNBc",
					"outputs": [
						{
							"internalType": "uint256",
							"name": "yields",
							"type": "uint256"
						}
					],
					"stateMutability": "nonpayable",
					"type": "function"
				},
				{
					"inputs": [
						{
							"internalType": "address",
							"name": "account",
							"type": "address"
						},
						{
							"internalType": "uint256",
							"name": "value",
							"type": "uint256"
						}
					],
					"name": "daoBurn",
					"outputs": [],
					"stateMutability": "nonpayable",
					"type": "function"
				},
				{
					"inputs": [
						{
							"internalType": "address",
							"name": "account",
							"type": "address"
						},
						{
							"internalType": "uint256",
							"name": "value",
							"type": "uint256"
						}
					],
					"name": "daoMint",
					"outputs": [],
					"stateMutability": "nonpayable",
					"type": "function"
				},
				{
					"inputs": [
						{
							"internalType": "address",
							"name": "collateralToken",
							"type": "address"
						},
						{
							"internalType": "address",
							"name": "certToken",
							"type": "address"
						},
						{
							"internalType": "address",
							"name": "ceToken",
							"type": "address"
						},
						{
							"internalType": "address",
							"name": "ceRouter",
							"type": "address"
						},
						{
							"internalType": "address",
							"name": "daoAddress",
							"type": "address"
						},
						{
							"internalType": "address",
							"name": "pool",
							"type": "address"
						}
					],
					"name": "initialize",
					"outputs": [],
					"stateMutability": "nonpayable",
					"type": "function"
				},
				{
					"inputs": [
						{
							"internalType": "address",
							"name": "recipient",
							"type": "address"
						},
						{
							"internalType": "uint256",
							"name": "amount",
							"type": "uint256"
						}
					],
					"name": "liquidation",
					"outputs": [],
					"stateMutability": "nonpayable",
					"type": "function"
				},
				{
					"inputs": [],
					"name": "owner",
					"outputs": [
						{
							"internalType": "address",
							"name": "",
							"type": "address"
						}
					],
					"stateMutability": "view",
					"type": "function"
				},
				{
					"inputs": [],
					"name": "pause",
					"outputs": [],
					"stateMutability": "nonpayable",
					"type": "function"
				},
				{
					"inputs": [],
					"name": "paused",
					"outputs": [
						{
							"internalType": "bool",
							"name": "",
							"type": "bool"
						}
					],
					"stateMutability": "view",
					"type": "function"
				},
				{
					"inputs": [],
					"name": "provide",
					"outputs": [
						{
							"internalType": "uint256",
							"name": "value",
							"type": "uint256"
						}
					],
					"stateMutability": "payable",
					"type": "function"
				},
				{
					"inputs": [
						{
							"internalType": "uint256",
							"name": "amount",
							"type": "uint256"
						}
					],
					"name": "provideInABNBc",
					"outputs": [
						{
							"internalType": "uint256",
							"name": "value",
							"type": "uint256"
						}
					],
					"stateMutability": "nonpayable",
					"type": "function"
				},
				{
					"inputs": [
						{
							"internalType": "address",
							"name": "recipient",
							"type": "address"
						},
						{
							"internalType": "uint256",
							"name": "amount",
							"type": "uint256"
						}
					],
					"name": "release",
					"outputs": [
						{
							"internalType": "uint256",
							"name": "realAmount",
							"type": "uint256"
						}
					],
					"stateMutability": "nonpayable",
					"type": "function"
				},
				{
					"inputs": [
						{
							"internalType": "address",
							"name": "recipient",
							"type": "address"
						},
						{
							"internalType": "uint256",
							"name": "amount",
							"type": "uint256"
						}
					],
					"name": "releaseInABNBc",
					"outputs": [
						{
							"internalType": "uint256",
							"name": "value",
							"type": "uint256"
						}
					],
					"stateMutability": "nonpayable",
					"type": "function"
				},
				{
					"inputs": [],
					"name": "renounceOwnership",
					"outputs": [],
					"stateMutability": "nonpayable",
					"type": "function"
				},
				{
					"inputs": [
						{
							"internalType": "address",
							"name": "newOwner",
							"type": "address"
						}
					],
					"name": "transferOwnership",
					"outputs": [],
					"stateMutability": "nonpayable",
					"type": "function"
				},
				{
					"inputs": [],
					"name": "unPause",
					"outputs": [],
					"stateMutability": "nonpayable",
					"type": "function"
				}
			],
			"devdoc": {
				"kind": "dev",
				"methods": {
					"owner()": {
						"details": "Returns the address of the current owner."
					},
					"paused()": {
						"details": "Returns true if the contract is paused, and false otherwise."
					},
					"renounceOwnership()": {
						"details": "Leaves the contract without owner. It will not be possible to call `onlyOwner` functions anymore. Can only be called by the current owner. NOTE: Renouncing ownership will leave the contract without an owner, thereby removing any functionality that is only available to the owner."
					},
					"transferOwnership(address)": {
						"details": "Transfers ownership of the contract to a new account (`newOwner`). Can only be called by the current owner."
					}
				},
				"version": 1
			},
			"evm": {
				"assembly": "    /* \"Heliocontracts/contracts/ceros/HelioProvider.sol\":687:6335  contract HelioProvider is... */\n  mstore(0x40, 0x80)\n  callvalue\n  dup1\n  iszero\n  tag_1\n  jumpi\n  0x00\n  dup1\n  revert\ntag_1:\n  pop\n  dataSize(sub_0)\n  dup1\n  dataOffset(sub_0)\n  0x00\n  codecopy\n  0x00\n  return\nstop\n\nsub_0: assembly {\n        /* \"Heliocontracts/contracts/ceros/HelioProvider.sol\":687:6335  contract HelioProvider is... */\n      mstore(0x40, 0x80)\n      jumpi(tag_1, lt(calldatasize, 0x04))\n      shr(0xe0, calldataload(0x00))\n      dup1\n      0x7d6ae6f6\n      gt\n      tag_30\n      jumpi\n      dup1\n      0xcc2effdc\n      gt\n      tag_31\n      jumpi\n      dup1\n      0xe0683726\n      gt\n      tag_32\n      jumpi\n      dup1\n      0xe0683726\n      eq\n      tag_26\n      jumpi\n      dup1\n      0xe3b0963a\n      eq\n      tag_27\n      jumpi\n      dup1\n      0xf2fde38b\n      eq\n      tag_28\n      jumpi\n      dup1\n      0xf7b188a5\n      eq\n      tag_29\n      jumpi\n      jump(tag_1)\n    tag_32:\n      dup1\n      0xcc2effdc\n      eq\n      tag_23\n      jumpi\n      dup1\n      0xd8826fec\n      eq\n      tag_24\n      jumpi\n      dup1\n      0xdf3d23ae\n      eq\n      tag_25\n      jumpi\n      jump(tag_1)\n    tag_31:\n      dup1\n      0x9479cfa2\n      gt\n      tag_33\n      jumpi\n      dup1\n      0x9479cfa2\n      eq\n      tag_19\n      jumpi\n      dup1\n      0xb9472535\n      eq\n      tag_20\n      jumpi\n      dup1\n      0xc4031841\n      eq\n      tag_21\n      jumpi\n      dup1\n      0xcc2a9a5b\n      eq\n      tag_22\n      jumpi\n      jump(tag_1)\n    tag_33:\n      dup1\n      0x7d6ae6f6\n      eq\n      tag_16\n      jumpi\n      dup1\n      0x8456cb59\n      eq\n      tag_17\n      jumpi\n      dup1\n      0x8da5cb5b\n      eq\n      tag_18\n      jumpi\n      jump(tag_1)\n    tag_30:\n      dup1\n      0x51c3e7be\n      gt\n      tag_34\n      jumpi\n      dup1\n      0x6e8d9a18\n      gt\n      tag_35\n      jumpi\n      dup1\n      0x6e8d9a18\n      eq\n      tag_12\n      jumpi\n      dup1\n      0x6f2bb86a\n      eq\n      tag_13\n      jumpi\n      dup1\n      0x70b0a843\n      eq\n      tag_14\n      jumpi\n      dup1\n      0x715018a6\n      eq\n      tag_15\n      jumpi\n      jump(tag_1)\n    tag_35:\n      dup1\n      0x51c3e7be\n      eq\n      tag_9\n      jumpi\n      dup1\n      0x5c975abb\n      eq\n      tag_10\n      jumpi\n      dup1\n      0x636fc28b\n      eq\n      tag_11\n      jumpi\n      jump(tag_1)\n    tag_34:\n      dup1\n      0x232da7fe\n      gt\n      tag_36\n      jumpi\n      dup1\n      0x232da7fe\n      eq\n      tag_5\n      jumpi\n      dup1\n      0x32b038a3\n      eq\n      tag_6\n      jumpi\n      dup1\n      0x358b2b1a\n      eq\n      tag_7\n      jumpi\n      dup1\n      0x3fd44f17\n      eq\n      tag_8\n      jumpi\n      jump(tag_1)\n    tag_36:\n      dup1\n      0x0357371d\n      eq\n      tag_2\n      jumpi\n      dup1\n      0x06394c9b\n      eq\n      tag_3\n      jumpi\n      dup1\n      0x14866aef\n      eq\n      tag_4\n      jumpi\n    tag_1:\n      0x00\n      dup1\n      revert\n        /* \"Heliocontracts/contracts/ceros/HelioProvider.sol\":3306:3842  function release(address recipient, uint256 amount)... */\n    tag_2:\n      callvalue\n      dup1\n      iszero\n      tag_37\n      jumpi\n      0x00\n      dup1\n      revert\n    tag_37:\n      pop\n      tag_38\n      0x04\n      dup1\n      calldatasize\n      sub\n      dup2\n      add\n      swap1\n      tag_39\n      swap2\n      swap1\n      tag_40\n      jump\t// in\n    tag_39:\n      tag_41\n      jump\t// in\n    tag_38:\n      mload(0x40)\n      tag_42\n      swap2\n      swap1\n      tag_43\n      jump\t// in\n    tag_42:\n      mload(0x40)\n      dup1\n      swap2\n      sub\n      swap1\n      return\n        /* \"Heliocontracts/contracts/ceros/HelioProvider.sol\":6196:6333  function changeOperator(address operator) external onlyOwner {... */\n    tag_3:\n      callvalue\n      dup1\n      iszero\n      tag_44\n      jumpi\n      0x00\n      dup1\n      revert\n    tag_44:\n      pop\n      tag_45\n      0x04\n      dup1\n      calldatasize\n      sub\n      dup2\n      add\n      swap1\n      tag_46\n      swap2\n      swap1\n      tag_47\n      jump\t// in\n    tag_46:\n      tag_48\n      jump\t// in\n    tag_45:\n      stop\n        /* \"Heliocontracts/contracts/ceros/HelioProvider.sol\":4570:4734  function daoMint(address account, uint256 value)... */\n    tag_4:\n      callvalue\n      dup1\n      iszero\n      tag_49\n      jumpi\n      0x00\n      dup1\n      revert\n    tag_49:\n      pop\n      tag_50\n      0x04\n      dup1\n      calldatasize\n      sub\n      dup2\n      add\n      swap1\n      tag_51\n      swap2\n      swap1\n      tag_40\n      jump\t// in\n    tag_51:\n      tag_52\n      jump\t// in\n    tag_50:\n      stop\n        /* \"Heliocontracts/contracts/ceros/HelioProvider.sol\":6000:6191  function changeCollateralToken(address collateralToken) external onlyOwner {... */\n    tag_5:\n      callvalue\n      dup1\n      iszero\n      tag_53\n      jumpi\n      0x00\n      dup1\n      revert\n    tag_53:\n      pop\n      tag_54\n      0x04\n      dup1\n      calldatasize\n      sub\n      dup2\n      add\n      swap1\n      tag_55\n      swap2\n      swap1\n      tag_47\n      jump\t// in\n    tag_55:\n      tag_56\n      jump\t// in\n    tag_54:\n      stop\n        /* \"Heliocontracts/contracts/ceros/HelioProvider.sol\":2530:2924  function provideInABNBc(uint256 amount)... */\n    tag_6:\n      callvalue\n      dup1\n      iszero\n      tag_57\n      jumpi\n      0x00\n      dup1\n      revert\n    tag_57:\n      pop\n      tag_58\n      0x04\n      dup1\n      calldatasize\n      sub\n      dup2\n      add\n      swap1\n      tag_59\n      swap2\n      swap1\n      tag_60\n      jump\t// in\n    tag_59:\n      tag_61\n      jump\t// in\n    tag_58:\n      mload(0x40)\n      tag_62\n      swap2\n      swap1\n      tag_43\n      jump\t// in\n    tag_62:\n      mload(0x40)\n      dup1\n      swap2\n      sub\n      swap1\n      return\n        /* \"Heliocontracts/contracts/ceros/HelioProvider.sol\":940:974  ICertToken public _collateralToken */\n    tag_7:\n      callvalue\n      dup1\n      iszero\n      tag_63\n      jumpi\n      0x00\n      dup1\n      revert\n    tag_63:\n      pop\n      tag_64\n      tag_65\n      jump\t// in\n    tag_64:\n      mload(0x40)\n      tag_66\n      swap2\n      swap1\n      tag_67\n      jump\t// in\n    tag_66:\n      mload(0x40)\n      dup1\n      swap2\n      sub\n      swap1\n      return\n        /* \"Heliocontracts/contracts/ceros/HelioProvider.sol\":5591:5850  function changeCeToken(address ceToken) external onlyOwner {... */\n    tag_8:\n      callvalue\n      dup1\n      iszero\n      tag_68\n      jumpi\n      0x00\n      dup1\n      revert\n    tag_68:\n      pop\n      tag_69\n      0x04\n      dup1\n      calldatasize\n      sub\n      dup2\n      add\n      swap1\n      tag_70\n      swap2\n      swap1\n      tag_47\n      jump\t// in\n    tag_70:\n      tag_71\n      jump\t// in\n    tag_69:\n      stop\n        /* \"Heliocontracts/contracts/ceros/HelioProvider.sol\":998:1027  ICerosRouter public _ceRouter */\n    tag_9:\n      callvalue\n      dup1\n      iszero\n      tag_72\n      jumpi\n      0x00\n      dup1\n      revert\n    tag_72:\n      pop\n      tag_73\n      tag_74\n      jump\t// in\n    tag_73:\n      mload(0x40)\n      tag_75\n      swap2\n      swap1\n      tag_76\n      jump\t// in\n    tag_75:\n      mload(0x40)\n      dup1\n      swap2\n      sub\n      swap1\n      return\n        /* \"@openzeppelin/contracts-upgradeable/security/PausableUpgradeable.sol\":1858:1942  function paused() public view virtual returns (bool) {... */\n    tag_10:\n      callvalue\n      dup1\n      iszero\n      tag_77\n      jumpi\n      0x00\n      dup1\n      revert\n    tag_77:\n      pop\n      tag_78\n      tag_79\n      jump\t// in\n    tag_78:\n      mload(0x40)\n      tag_80\n      swap2\n      swap1\n      tag_81\n      jump\t// in\n    tag_80:\n      mload(0x40)\n      dup1\n      swap2\n      sub\n      swap1\n      return\n        /* \"Heliocontracts/contracts/ceros/HelioProvider.sol\":1055:1080  IBinancePool public _pool */\n    tag_11:\n      callvalue\n      dup1\n      iszero\n      tag_82\n      jumpi\n      0x00\n      dup1\n      revert\n    tag_82:\n      pop\n      tag_83\n      tag_84\n      jump\t// in\n    tag_83:\n      mload(0x40)\n      tag_85\n      swap2\n      swap1\n      tag_86\n      jump\t// in\n    tag_85:\n      mload(0x40)\n      dup1\n      swap2\n      sub\n      swap1\n      return\n        /* \"Heliocontracts/contracts/ceros/HelioProvider.sol\":911:934  address public _ceToken */\n    tag_12:\n      callvalue\n      dup1\n      iszero\n      tag_87\n      jumpi\n      0x00\n      dup1\n      revert\n    tag_87:\n      pop\n      tag_88\n      tag_89\n      jump\t// in\n    tag_88:\n      mload(0x40)\n      tag_90\n      swap2\n      swap1\n      tag_91\n      jump\t// in\n    tag_90:\n      mload(0x40)\n      dup1\n      swap2\n      sub\n      swap1\n      return\n        /* \"Heliocontracts/contracts/ceros/HelioProvider.sol\":4220:4396  function liquidation(address recipient, uint256 amount)... */\n    tag_13:\n      callvalue\n      dup1\n      iszero\n      tag_92\n      jumpi\n      0x00\n      dup1\n      revert\n    tag_92:\n      pop\n      tag_93\n      0x04\n      dup1\n      calldatasize\n      sub\n      dup2\n      add\n      swap1\n      tag_94\n      swap2\n      swap1\n      tag_40\n      jump\t// in\n    tag_94:\n      tag_95\n      jump\t// in\n    tag_93:\n      stop\n        /* \"Heliocontracts/contracts/ceros/HelioProvider.sol\":836:860  address public _operator */\n    tag_14:\n      callvalue\n      dup1\n      iszero\n      tag_96\n      jumpi\n      0x00\n      dup1\n      revert\n    tag_96:\n      pop\n      tag_97\n      tag_98\n      jump\t// in\n    tag_97:\n      mload(0x40)\n      tag_99\n      swap2\n      swap1\n      tag_91\n      jump\t// in\n    tag_99:\n      mload(0x40)\n      dup1\n      swap2\n      sub\n      swap1\n      return\n        /* \"@openzeppelin/contracts-upgradeable/access/OwnableUpgradeable.sol\":2071:2172  function renounceOwnership() public virtual onlyOwner {... */\n    tag_15:\n      callvalue\n      dup1\n      iszero\n      tag_100\n      jumpi\n      0x00\n      dup1\n      revert\n    tag_100:\n      pop\n      tag_101\n      tag_102\n      jump\t// in\n    tag_101:\n      stop\n        /* \"Heliocontracts/contracts/ceros/HelioProvider.sol\":3847:4174  function releaseInABNBc(address recipient, uint256 amount)... */\n    tag_16:\n      callvalue\n      dup1\n      iszero\n      tag_103\n      jumpi\n      0x00\n      dup1\n      revert\n    tag_103:\n      pop\n      tag_104\n      0x04\n      dup1\n      calldatasize\n      sub\n      dup2\n      add\n      swap1\n      tag_105\n      swap2\n      swap1\n      tag_40\n      jump\t// in\n    tag_105:\n      tag_106\n      jump\t// in\n    tag_104:\n      mload(0x40)\n      tag_107\n      swap2\n      swap1\n      tag_43\n      jump\t// in\n    tag_107:\n      mload(0x40)\n      dup1\n      swap2\n      sub\n      swap1\n      return\n        /* \"Heliocontracts/contracts/ceros/HelioProvider.sol\":5163:5224  function pause() external onlyOwner {... */\n    tag_17:\n      callvalue\n      dup1\n      iszero\n      tag_108\n      jumpi\n      0x00\n      dup1\n      revert\n    tag_108:\n      pop\n      tag_109\n      tag_110\n      jump\t// in\n    tag_109:\n      stop\n        /* \"@openzeppelin/contracts-upgradeable/access/OwnableUpgradeable.sol\":1441:1526  function owner() public view virtual returns (address) {... */\n    tag_18:\n      callvalue\n      dup1\n      iszero\n      tag_111\n      jumpi\n      0x00\n      dup1\n      revert\n    tag_111:\n      pop\n      tag_112\n      tag_113\n      jump\t// in\n    tag_112:\n      mload(0x40)\n      tag_114\n      swap2\n      swap1\n      tag_91\n      jump\t// in\n    tag_114:\n      mload(0x40)\n      dup1\n      swap2\n      sub\n      swap1\n      return\n        /* \"Heliocontracts/contracts/ceros/HelioProvider.sol\":880:905  address public _certToken */\n    tag_19:\n      callvalue\n      dup1\n      iszero\n      tag_115\n      jumpi\n      0x00\n      dup1\n      revert\n    tag_115:\n      pop\n      tag_116\n      tag_117\n      jump\t// in\n    tag_116:\n      mload(0x40)\n      tag_118\n      swap2\n      swap1\n      tag_91\n      jump\t// in\n    tag_118:\n      mload(0x40)\n      dup1\n      swap2\n      sub\n      swap1\n      return\n        /* \"Heliocontracts/contracts/ceros/HelioProvider.sol\":2188:2525  function provide()... */\n    tag_20:\n      tag_119\n      tag_120\n      jump\t// in\n    tag_119:\n      mload(0x40)\n      tag_121\n      swap2\n      swap1\n      tag_43\n      jump\t// in\n    tag_121:\n      mload(0x40)\n      dup1\n      swap2\n      sub\n      swap1\n      return\n        /* \"Heliocontracts/contracts/ceros/HelioProvider.sol\":5855:5995  function changeProxy(address auctionProxy) external onlyOwner {... */\n    tag_21:\n      callvalue\n      dup1\n      iszero\n      tag_122\n      jumpi\n      0x00\n      dup1\n      revert\n    tag_122:\n      pop\n      tag_123\n      0x04\n      dup1\n      calldatasize\n      sub\n      dup2\n      add\n      swap1\n      tag_124\n      swap2\n      swap1\n      tag_47\n      jump\t// in\n    tag_124:\n      tag_125\n      jump\t// in\n    tag_123:\n      stop\n        /* \"Heliocontracts/contracts/ceros/HelioProvider.sol\":1522:2152  function initialize(... */\n    tag_22:\n      callvalue\n      dup1\n      iszero\n      tag_126\n      jumpi\n      0x00\n      dup1\n      revert\n    tag_126:\n      pop\n      tag_127\n      0x04\n      dup1\n      calldatasize\n      sub\n      dup2\n      add\n      swap1\n      tag_128\n      swap2\n      swap1\n      tag_129\n      jump\t// in\n    tag_128:\n      tag_130\n      jump\t// in\n    tag_127:\n      stop\n        /* \"Heliocontracts/contracts/ceros/HelioProvider.sol\":1086:1107  address public _proxy */\n    tag_23:\n      callvalue\n      dup1\n      iszero\n      tag_131\n      jumpi\n      0x00\n      dup1\n      revert\n    tag_131:\n      pop\n      tag_132\n      tag_133\n      jump\t// in\n    tag_132:\n      mload(0x40)\n      tag_134\n      swap2\n      swap1\n      tag_91\n      jump\t// in\n    tag_134:\n      mload(0x40)\n      dup1\n      swap2\n      sub\n      swap1\n      return\n        /* \"Heliocontracts/contracts/ceros/HelioProvider.sol\":5345:5586  function changeDao(address dao) external onlyOwner {... */\n    tag_24:\n      callvalue\n      dup1\n      iszero\n      tag_135\n      jumpi\n      0x00\n      dup1\n      revert\n    tag_135:\n      pop\n      tag_136\n      0x04\n      dup1\n      calldatasize\n      sub\n      dup2\n      add\n      swap1\n      tag_137\n      swap2\n      swap1\n      tag_47\n      jump\t// in\n    tag_137:\n      tag_138\n      jump\t// in\n    tag_136:\n      stop\n        /* \"Heliocontracts/contracts/ceros/HelioProvider.sol\":4401:4565  function daoBurn(address account, uint256 value)... */\n    tag_25:\n      callvalue\n      dup1\n      iszero\n      tag_139\n      jumpi\n      0x00\n      dup1\n      revert\n    tag_139:\n      pop\n      tag_140\n      0x04\n      dup1\n      calldatasize\n      sub\n      dup2\n      add\n      swap1\n      tag_141\n      swap2\n      swap1\n      tag_40\n      jump\t// in\n    tag_141:\n      tag_142\n      jump\t// in\n    tag_140:\n      stop\n        /* \"Heliocontracts/contracts/ceros/HelioProvider.sol\":1033:1049  IDao public _dao */\n    tag_26:\n      callvalue\n      dup1\n      iszero\n      tag_143\n      jumpi\n      0x00\n      dup1\n      revert\n    tag_143:\n      pop\n      tag_144\n      tag_145\n      jump\t// in\n    tag_144:\n      mload(0x40)\n      tag_146\n      swap2\n      swap1\n      tag_147\n      jump\t// in\n    tag_146:\n      mload(0x40)\n      dup1\n      swap2\n      sub\n      swap1\n      return\n        /* \"Heliocontracts/contracts/ceros/HelioProvider.sol\":2980:3228  function claimInABNBc(address recipient)... */\n    tag_27:\n      callvalue\n      dup1\n      iszero\n      tag_148\n      jumpi\n      0x00\n      dup1\n      revert\n    tag_148:\n      pop\n      tag_149\n      0x04\n      dup1\n      calldatasize\n      sub\n      dup2\n      add\n      swap1\n      tag_150\n      swap2\n      swap1\n      tag_47\n      jump\t// in\n    tag_150:\n      tag_151\n      jump\t// in\n    tag_149:\n      mload(0x40)\n      tag_152\n      swap2\n      swap1\n      tag_43\n      jump\t// in\n    tag_152:\n      mload(0x40)\n      dup1\n      swap2\n      sub\n      swap1\n      return\n        /* \"@openzeppelin/contracts-upgradeable/access/OwnableUpgradeable.sol\":2321:2519  function transferOwnership(address newOwner) public virtual onlyOwner {... */\n    tag_28:\n      callvalue\n      dup1\n      iszero\n      tag_153\n      jumpi\n      0x00\n      dup1\n      revert\n    tag_153:\n      pop\n      tag_154\n      0x04\n      dup1\n      calldatasize\n      sub\n      dup2\n      add\n      swap1\n      tag_155\n      swap2\n      swap1\n      tag_47\n      jump\t// in\n    tag_155:\n      tag_156\n      jump\t// in\n    tag_154:\n      stop\n        /* \"Heliocontracts/contracts/ceros/HelioProvider.sol\":5229:5294  function unPause() external onlyOwner {... */\n    tag_29:\n      callvalue\n      dup1\n      iszero\n      tag_157\n      jumpi\n      0x00\n      dup1\n      revert\n    tag_157:\n      pop\n      tag_158\n      tag_159\n      jump\t// in\n    tag_158:\n      stop\n        /* \"Heliocontracts/contracts/ceros/HelioProvider.sol\":3306:3842  function release(address recipient, uint256 amount)... */\n    tag_41:\n        /* \"Heliocontracts/contracts/ceros/HelioProvider.sol\":3432:3450  uint256 realAmount */\n      0x00\n        /* \"@openzeppelin/contracts-upgradeable/security/PausableUpgradeable.sol\":1482:1501  _requireNotPaused() */\n      tag_161\n        /* \"@openzeppelin/contracts-upgradeable/security/PausableUpgradeable.sol\":1482:1499  _requireNotPaused */\n      tag_162\n        /* \"@openzeppelin/contracts-upgradeable/security/PausableUpgradeable.sol\":1482:1501  _requireNotPaused() */\n      jump\t// in\n    tag_161:\n        /* \"@openzeppelin/contracts-upgradeable/security/ReentrancyGuardUpgradeable.sol\":1815:1816  2 */\n      0x02\n        /* \"@openzeppelin/contracts-upgradeable/security/ReentrancyGuardUpgradeable.sol\":2569:2576  _status */\n      sload(0x97)\n        /* \"@openzeppelin/contracts-upgradeable/security/ReentrancyGuardUpgradeable.sol\":2569:2588  _status != _ENTERED */\n      eq\n      iszero\n        /* \"@openzeppelin/contracts-upgradeable/security/ReentrancyGuardUpgradeable.sol\":2561:2624  require(_status != _ENTERED, \"ReentrancyGuard: reentrant call\") */\n      tag_164\n      jumpi\n      mload(0x40)\n      0x08c379a000000000000000000000000000000000000000000000000000000000\n      dup2\n      mstore\n      0x04\n      add\n      tag_165\n      swap1\n      tag_166\n      jump\t// in\n    tag_165:\n      mload(0x40)\n      dup1\n      swap2\n      sub\n      swap1\n      revert\n    tag_164:\n        /* \"@openzeppelin/contracts-upgradeable/security/ReentrancyGuardUpgradeable.sol\":1815:1816  2 */\n      0x02\n        /* \"@openzeppelin/contracts-upgradeable/security/ReentrancyGuardUpgradeable.sol\":2699:2706  _status */\n      0x97\n        /* \"@openzeppelin/contracts-upgradeable/security/ReentrancyGuardUpgradeable.sol\":2699:2717  _status = _ENTERED */\n      dup2\n      swap1\n      sstore\n      pop\n        /* \"Heliocontracts/contracts/ceros/HelioProvider.sol\":3466:3488  uint256 minumumUnstake */\n      0x00\n        /* \"Heliocontracts/contracts/ceros/HelioProvider.sol\":3491:3496  _pool */\n      0xcf\n      0x00\n      swap1\n      sload\n      swap1\n      0x0100\n      exp\n      swap1\n      div\n      0xffffffffffffffffffffffffffffffffffffffff\n      and\n        /* \"Heliocontracts/contracts/ceros/HelioProvider.sol\":3491:3512  _pool.getMinimumStake */\n      0xffffffffffffffffffffffffffffffffffffffff\n      and\n      0xd9bbd278\n        /* \"Heliocontracts/contracts/ceros/HelioProvider.sol\":3491:3514  _pool.getMinimumStake() */\n      mload(0x40)\n      dup2\n      0xffffffff\n      and\n      0xe0\n      shl\n      dup2\n      mstore\n      0x04\n      add\n      0x20\n      mload(0x40)\n      dup1\n      dup4\n      sub\n      dup2\n      dup7\n      gas\n      staticcall\n      iszero\n      dup1\n      iszero\n      tag_169\n      jumpi\n      returndatasize\n      0x00\n      dup1\n      returndatacopy\n      revert(0x00, returndatasize)\n    tag_169:\n      pop\n      pop\n      pop\n      pop\n      mload(0x40)\n      returndatasize\n      not(0x1f)\n      0x1f\n      dup3\n      add\n      and\n      dup3\n      add\n      dup1\n      0x40\n      mstore\n      pop\n      dup2\n      add\n      swap1\n      tag_170\n      swap2\n      swap1\n      tag_171\n      jump\t// in\n    tag_170:\n        /* \"Heliocontracts/contracts/ceros/HelioProvider.sol\":3466:3514  uint256 minumumUnstake = _pool.getMinimumStake() */\n      swap1\n      pop\n        /* \"Heliocontracts/contracts/ceros/HelioProvider.sol\":3555:3569  minumumUnstake */\n      dup1\n        /* \"Heliocontracts/contracts/ceros/HelioProvider.sol\":3545:3551  amount */\n      dup4\n        /* \"Heliocontracts/contracts/ceros/HelioProvider.sol\":3545:3569  amount >= minumumUnstake */\n      lt\n      iszero\n        /* \"Heliocontracts/contracts/ceros/HelioProvider.sol\":3524:3640  require(... */\n      tag_172\n      jumpi\n      mload(0x40)\n      0x08c379a000000000000000000000000000000000000000000000000000000000\n      dup2\n      mstore\n      0x04\n      add\n      tag_173\n      swap1\n      tag_174\n      jump\t// in\n    tag_173:\n      mload(0x40)\n      dup1\n      swap2\n      sub\n      swap1\n      revert\n    tag_172:\n        /* \"Heliocontracts/contracts/ceros/HelioProvider.sol\":3650:3689  _withdrawCollateral(msg.sender, amount) */\n      tag_175\n        /* \"Heliocontracts/contracts/ceros/HelioProvider.sol\":3670:3680  msg.sender */\n      caller\n        /* \"Heliocontracts/contracts/ceros/HelioProvider.sol\":3682:3688  amount */\n      dup5\n        /* \"Heliocontracts/contracts/ceros/HelioProvider.sol\":3650:3669  _withdrawCollateral */\n      tag_176\n        /* \"Heliocontracts/contracts/ceros/HelioProvider.sol\":3650:3689  _withdrawCollateral(msg.sender, amount) */\n      jump\t// in\n    tag_175:\n        /* \"Heliocontracts/contracts/ceros/HelioProvider.sol\":3712:3721  _ceRouter */\n      0xcd\n      0x00\n      swap1\n      sload\n      swap1\n      0x0100\n      exp\n      swap1\n      div\n      0xffffffffffffffffffffffffffffffffffffffff\n      and\n        /* \"Heliocontracts/contracts/ceros/HelioProvider.sol\":3712:3733  _ceRouter.withdrawFor */\n      0xffffffffffffffffffffffffffffffffffffffff\n      and\n      0xdb518db2\n        /* \"Heliocontracts/contracts/ceros/HelioProvider.sol\":3734:3743  recipient */\n      dup6\n        /* \"Heliocontracts/contracts/ceros/HelioProvider.sol\":3745:3751  amount */\n      dup6\n        /* \"Heliocontracts/contracts/ceros/HelioProvider.sol\":3712:3752  _ceRouter.withdrawFor(recipient, amount) */\n      mload(0x40)\n      dup4\n      0xffffffff\n      and\n      0xe0\n      shl\n      dup2\n      mstore\n      0x04\n      add\n      tag_177\n      swap3\n      swap2\n      swap1\n      tag_178\n      jump\t// in\n    tag_177:\n      0x20\n      mload(0x40)\n      dup1\n      dup4\n      sub\n      dup2\n      0x00\n      dup8\n      gas\n      call\n      iszero\n      dup1\n      iszero\n      tag_180\n      jumpi\n      returndatasize\n      0x00\n      dup1\n      returndatacopy\n      revert(0x00, returndatasize)\n    tag_180:\n      pop\n      pop\n      pop\n      pop\n      mload(0x40)\n      returndatasize\n      not(0x1f)\n      0x1f\n      dup3\n      add\n      and\n      dup3\n      add\n      dup1\n      0x40\n      mstore\n      pop\n      dup2\n      add\n      swap1\n      tag_181\n      swap2\n      swap1\n      tag_171\n      jump\t// in\n    tag_181:\n        /* \"Heliocontracts/contracts/ceros/HelioProvider.sol\":3699:3752  realAmount = _ceRouter.withdrawFor(recipient, amount) */\n      swap2\n      pop\n        /* \"Heliocontracts/contracts/ceros/HelioProvider.sol\":3790:3799  recipient */\n      dup4\n        /* \"Heliocontracts/contracts/ceros/HelioProvider.sol\":3767:3808  Withdrawal(msg.sender, recipient, amount) */\n      0xffffffffffffffffffffffffffffffffffffffff\n      and\n        /* \"Heliocontracts/contracts/ceros/HelioProvider.sol\":3778:3788  msg.sender */\n      caller\n        /* \"Heliocontracts/contracts/ceros/HelioProvider.sol\":3767:3808  Withdrawal(msg.sender, recipient, amount) */\n      0xffffffffffffffffffffffffffffffffffffffff\n      and\n      0x2717ead6b9200dd235aad468c9809ea400fe33ac69b5bfaa6d3e90fc922b6398\n        /* \"Heliocontracts/contracts/ceros/HelioProvider.sol\":3801:3807  amount */\n      dup6\n        /* \"Heliocontracts/contracts/ceros/HelioProvider.sol\":3767:3808  Withdrawal(msg.sender, recipient, amount) */\n      mload(0x40)\n      tag_182\n      swap2\n      swap1\n      tag_43\n      jump\t// in\n    tag_182:\n      mload(0x40)\n      dup1\n      swap2\n      sub\n      swap1\n      log3\n        /* \"Heliocontracts/contracts/ceros/HelioProvider.sol\":3818:3835  return realAmount */\n      pop\n        /* \"@openzeppelin/contracts-upgradeable/security/ReentrancyGuardUpgradeable.sol\":1772:1773  1 */\n      0x01\n        /* \"@openzeppelin/contracts-upgradeable/security/ReentrancyGuardUpgradeable.sol\":2872:2879  _status */\n      0x97\n        /* \"@openzeppelin/contracts-upgradeable/security/ReentrancyGuardUpgradeable.sol\":2872:2894  _status = _NOT_ENTERED */\n      dup2\n      swap1\n      sstore\n      pop\n        /* \"Heliocontracts/contracts/ceros/HelioProvider.sol\":3306:3842  function release(address recipient, uint256 amount)... */\n      swap3\n      swap2\n      pop\n      pop\n      jump\t// out\n        /* \"Heliocontracts/contracts/ceros/HelioProvider.sol\":6196:6333  function changeOperator(address operator) external onlyOwner {... */\n    tag_48:\n        /* \"@openzeppelin/contracts-upgradeable/access/OwnableUpgradeable.sol\":1334:1347  _checkOwner() */\n      tag_184\n        /* \"@openzeppelin/contracts-upgradeable/access/OwnableUpgradeable.sol\":1334:1345  _checkOwner */\n      tag_185\n        /* \"@openzeppelin/contracts-upgradeable/access/OwnableUpgradeable.sol\":1334:1347  _checkOwner() */\n      jump\t// in\n    tag_184:\n        /* \"Heliocontracts/contracts/ceros/HelioProvider.sol\":6279:6287  operator */\n      dup1\n        /* \"Heliocontracts/contracts/ceros/HelioProvider.sol\":6267:6276  _operator */\n      0xc9\n      0x00\n        /* \"Heliocontracts/contracts/ceros/HelioProvider.sol\":6267:6287  _operator = operator */\n      0x0100\n      exp\n      dup2\n      sload\n      dup2\n      0xffffffffffffffffffffffffffffffffffffffff\n      mul\n      not\n      and\n      swap1\n      dup4\n      0xffffffffffffffffffffffffffffffffffffffff\n      and\n      mul\n      or\n      swap1\n      sstore\n      pop\n        /* \"Heliocontracts/contracts/ceros/HelioProvider.sol\":6302:6326  ChangeOperator(operator) */\n      0x8eb831fe42156caaf4721a87ad40c6e662b893dbeee76d7a3ed2564a318b091c\n        /* \"Heliocontracts/contracts/ceros/HelioProvider.sol\":6317:6325  operator */\n      dup2\n        /* \"Heliocontracts/contracts/ceros/HelioProvider.sol\":6302:6326  ChangeOperator(operator) */\n      mload(0x40)\n      tag_187\n      swap2\n      swap1\n      tag_91\n      jump\t// in\n    tag_187:\n      mload(0x40)\n      dup1\n      swap2\n      sub\n      swap1\n      log1\n        /* \"Heliocontracts/contracts/ceros/HelioProvider.sol\":6196:6333  function changeOperator(address operator) external onlyOwner {... */\n      pop\n      jump\t// out\n        /* \"Heliocontracts/contracts/ceros/HelioProvider.sol\":4570:4734  function daoMint(address account, uint256 value)... */\n    tag_52:\n        /* \"Heliocontracts/contracts/ceros/HelioProvider.sol\":1417:1424  owner() */\n      tag_189\n        /* \"Heliocontracts/contracts/ceros/HelioProvider.sol\":1417:1422  owner */\n      tag_113\n        /* \"Heliocontracts/contracts/ceros/HelioProvider.sol\":1417:1424  owner() */\n      jump\t// in\n    tag_189:\n        /* \"Heliocontracts/contracts/ceros/HelioProvider.sol\":1403:1424  msg.sender == owner() */\n      0xffffffffffffffffffffffffffffffffffffffff\n      and\n        /* \"Heliocontracts/contracts/ceros/HelioProvider.sol\":1403:1413  msg.sender */\n      caller\n        /* \"Heliocontracts/contracts/ceros/HelioProvider.sol\":1403:1424  msg.sender == owner() */\n      0xffffffffffffffffffffffffffffffffffffffff\n      and\n      eq\n        /* \"Heliocontracts/contracts/ceros/HelioProvider.sol\":1403:1448  msg.sender == owner() || msg.sender == _proxy */\n      dup1\n      tag_190\n      jumpi\n      pop\n        /* \"Heliocontracts/contracts/ceros/HelioProvider.sol\":1442:1448  _proxy */\n      0xd0\n      0x00\n      swap1\n      sload\n      swap1\n      0x0100\n      exp\n      swap1\n      div\n      0xffffffffffffffffffffffffffffffffffffffff\n      and\n        /* \"Heliocontracts/contracts/ceros/HelioProvider.sol\":1428:1448  msg.sender == _proxy */\n      0xffffffffffffffffffffffffffffffffffffffff\n      and\n        /* \"Heliocontracts/contracts/ceros/HelioProvider.sol\":1428:1438  msg.sender */\n      caller\n        /* \"Heliocontracts/contracts/ceros/HelioProvider.sol\":1428:1448  msg.sender == _proxy */\n      0xffffffffffffffffffffffffffffffffffffffff\n      and\n      eq\n        /* \"Heliocontracts/contracts/ceros/HelioProvider.sol\":1403:1448  msg.sender == owner() || msg.sender == _proxy */\n    tag_190:\n        /* \"Heliocontracts/contracts/ceros/HelioProvider.sol\":1382:1499  require(... */\n      tag_191\n      jumpi\n      mload(0x40)\n      0x08c379a000000000000000000000000000000000000000000000000000000000\n      dup2\n      mstore\n      0x04\n      add\n      tag_192\n      swap1\n      tag_193\n      jump\t// in\n    tag_192:\n      mload(0x40)\n      dup1\n      swap2\n      sub\n      swap1\n      revert\n    tag_191:\n        /* \"@openzeppelin/contracts-upgradeable/security/ReentrancyGuardUpgradeable.sol\":1815:1816  2 */\n      0x02\n        /* \"@openzeppelin/contracts-upgradeable/security/ReentrancyGuardUpgradeable.sol\":2569:2576  _status */\n      sload(0x97)\n        /* \"@openzeppelin/contracts-upgradeable/security/ReentrancyGuardUpgradeable.sol\":2569:2588  _status != _ENTERED */\n      eq\n      iszero\n        /* \"@openzeppelin/contracts-upgradeable/security/ReentrancyGuardUpgradeable.sol\":2561:2624  require(_status != _ENTERED, \"ReentrancyGuard: reentrant call\") */\n      tag_195\n      jumpi\n      mload(0x40)\n      0x08c379a000000000000000000000000000000000000000000000000000000000\n      dup2\n      mstore\n      0x04\n      add\n      tag_196\n      swap1\n      tag_166\n      jump\t// in\n    tag_196:\n      mload(0x40)\n      dup1\n      swap2\n      sub\n      swap1\n      revert\n    tag_195:\n        /* \"@openzeppelin/contracts-upgradeable/security/ReentrancyGuardUpgradeable.sol\":1815:1816  2 */\n      0x02\n        /* \"@openzeppelin/contracts-upgradeable/security/ReentrancyGuardUpgradeable.sol\":2699:2706  _status */\n      0x97\n        /* \"@openzeppelin/contracts-upgradeable/security/ReentrancyGuardUpgradeable.sol\":2699:2717  _status = _ENTERED */\n      dup2\n      swap1\n      sstore\n      pop\n        /* \"Heliocontracts/contracts/ceros/HelioProvider.sol\":4690:4706  _collateralToken */\n      0xcc\n      0x00\n      swap1\n      sload\n      swap1\n      0x0100\n      exp\n      swap1\n      div\n      0xffffffffffffffffffffffffffffffffffffffff\n      and\n        /* \"Heliocontracts/contracts/ceros/HelioProvider.sol\":4690:4711  _collateralToken.mint */\n      0xffffffffffffffffffffffffffffffffffffffff\n      and\n      0x40c10f19\n        /* \"Heliocontracts/contracts/ceros/HelioProvider.sol\":4712:4719  account */\n      dup4\n        /* \"Heliocontracts/contracts/ceros/HelioProvider.sol\":4721:4726  value */\n      dup4\n        /* \"Heliocontracts/contracts/ceros/HelioProvider.sol\":4690:4727  _collateralToken.mint(account, value) */\n      mload(0x40)\n      dup4\n      0xffffffff\n      and\n      0xe0\n      shl\n      dup2\n      mstore\n      0x04\n      add\n      tag_198\n      swap3\n      swap2\n      swap1\n      tag_178\n      jump\t// in\n    tag_198:\n      0x00\n      mload(0x40)\n      dup1\n      dup4\n      sub\n      dup2\n      0x00\n      dup8\n      dup1\n      extcodesize\n      iszero\n      dup1\n      iszero\n      tag_199\n      jumpi\n      0x00\n      dup1\n      revert\n    tag_199:\n      pop\n      gas\n      call\n      iszero\n      dup1\n      iszero\n      tag_201\n      jumpi\n      returndatasize\n      0x00\n      dup1\n      returndatacopy\n      revert(0x00, returndatasize)\n    tag_201:\n      pop\n      pop\n      pop\n      pop\n        /* \"@openzeppelin/contracts-upgradeable/security/ReentrancyGuardUpgradeable.sol\":1772:1773  1 */\n      0x01\n        /* \"@openzeppelin/contracts-upgradeable/security/ReentrancyGuardUpgradeable.sol\":2872:2879  _status */\n      0x97\n        /* \"@openzeppelin/contracts-upgradeable/security/ReentrancyGuardUpgradeable.sol\":2872:2894  _status = _NOT_ENTERED */\n      dup2\n      swap1\n      sstore\n      pop\n        /* \"Heliocontracts/contracts/ceros/HelioProvider.sol\":4570:4734  function daoMint(address account, uint256 value)... */\n      pop\n      pop\n      jump\t// out\n        /* \"Heliocontracts/contracts/ceros/HelioProvider.sol\":6000:6191  function changeCollateralToken(address collateralToken) external onlyOwner {... */\n    tag_56:\n        /* \"@openzeppelin/contracts-upgradeable/access/OwnableUpgradeable.sol\":1334:1347  _checkOwner() */\n      tag_203\n        /* \"@openzeppelin/contracts-upgradeable/access/OwnableUpgradeable.sol\":1334:1345  _checkOwner */\n      tag_185\n        /* \"@openzeppelin/contracts-upgradeable/access/OwnableUpgradeable.sol\":1334:1347  _checkOwner() */\n      jump\t// in\n    tag_203:\n        /* \"Heliocontracts/contracts/ceros/HelioProvider.sol\":6115:6130  collateralToken */\n      dup1\n        /* \"Heliocontracts/contracts/ceros/HelioProvider.sol\":6085:6101  _collateralToken */\n      0xcc\n      0x00\n        /* \"Heliocontracts/contracts/ceros/HelioProvider.sol\":6085:6131  _collateralToken = ICertToken(collateralToken) */\n      0x0100\n      exp\n      dup2\n      sload\n      dup2\n      0xffffffffffffffffffffffffffffffffffffffff\n      mul\n      not\n      and\n      swap1\n      dup4\n      0xffffffffffffffffffffffffffffffffffffffff\n      and\n      mul\n      or\n      swap1\n      sstore\n      pop\n        /* \"Heliocontracts/contracts/ceros/HelioProvider.sol\":6146:6184  ChangeCollateralToken(collateralToken) */\n      0x5ab190ac1b858818c30b831d9bd74e6bef6f75de987d59f1beb4aab85d064832\n        /* \"Heliocontracts/contracts/ceros/HelioProvider.sol\":6168:6183  collateralToken */\n      dup2\n        /* \"Heliocontracts/contracts/ceros/HelioProvider.sol\":6146:6184  ChangeCollateralToken(collateralToken) */\n      mload(0x40)\n      tag_205\n      swap2\n      swap1\n      tag_91\n      jump\t// in\n    tag_205:\n      mload(0x40)\n      dup1\n      swap2\n      sub\n      swap1\n      log1\n        /* \"Heliocontracts/contracts/ceros/HelioProvider.sol\":6000:6191  function changeCollateralToken(address collateralToken) external onlyOwner {... */\n      pop\n      jump\t// out\n        /* \"Heliocontracts/contracts/ceros/HelioProvider.sol\":2530:2924  function provideInABNBc(uint256 amount)... */\n    tag_61:\n        /* \"Heliocontracts/contracts/ceros/HelioProvider.sol\":2626:2639  uint256 value */\n      0x00\n        /* \"@openzeppelin/contracts-upgradeable/security/ReentrancyGuardUpgradeable.sol\":1815:1816  2 */\n      0x02\n        /* \"@openzeppelin/contracts-upgradeable/security/ReentrancyGuardUpgradeable.sol\":2569:2576  _status */\n      sload(0x97)\n        /* \"@openzeppelin/contracts-upgradeable/security/ReentrancyGuardUpgradeable.sol\":2569:2588  _status != _ENTERED */\n      eq\n      iszero\n        /* \"@openzeppelin/contracts-upgradeable/security/ReentrancyGuardUpgradeable.sol\":2561:2624  require(_status != _ENTERED, \"ReentrancyGuard: reentrant call\") */\n      tag_207\n      jumpi\n      mload(0x40)\n      0x08c379a000000000000000000000000000000000000000000000000000000000\n      dup2\n      mstore\n      0x04\n      add\n      tag_208\n      swap1\n      tag_166\n      jump\t// in\n    tag_208:\n      mload(0x40)\n      dup1\n      swap2\n      sub\n      swap1\n      revert\n    tag_207:\n        /* \"@openzeppelin/contracts-upgradeable/security/ReentrancyGuardUpgradeable.sol\":1815:1816  2 */\n      0x02\n        /* \"@openzeppelin/contracts-upgradeable/security/ReentrancyGuardUpgradeable.sol\":2699:2706  _status */\n      0x97\n        /* \"@openzeppelin/contracts-upgradeable/security/ReentrancyGuardUpgradeable.sol\":2699:2717  _status = _ENTERED */\n      dup2\n      swap1\n      sstore\n      pop\n        /* \"Heliocontracts/contracts/ceros/HelioProvider.sol\":2655:2687  revert(\"HelioProvider/Disabled\") */\n      mload(0x40)\n      0x08c379a000000000000000000000000000000000000000000000000000000000\n      dup2\n      mstore\n      0x04\n      add\n      tag_210\n      swap1\n      tag_211\n      jump\t// in\n    tag_210:\n      mload(0x40)\n      dup1\n      swap2\n      sub\n      swap1\n      revert\n        /* \"Heliocontracts/contracts/ceros/HelioProvider.sol\":940:974  ICertToken public _collateralToken */\n    tag_65:\n      0xcc\n      0x00\n      swap1\n      sload\n      swap1\n      0x0100\n      exp\n      swap1\n      div\n      0xffffffffffffffffffffffffffffffffffffffff\n      and\n      dup2\n      jump\t// out\n        /* \"Heliocontracts/contracts/ceros/HelioProvider.sol\":5591:5850  function changeCeToken(address ceToken) external onlyOwner {... */\n    tag_71:\n        /* \"@openzeppelin/contracts-upgradeable/access/OwnableUpgradeable.sol\":1334:1347  _checkOwner() */\n      tag_213\n        /* \"@openzeppelin/contracts-upgradeable/access/OwnableUpgradeable.sol\":1334:1345  _checkOwner */\n      tag_185\n        /* \"@openzeppelin/contracts-upgradeable/access/OwnableUpgradeable.sol\":1334:1347  _checkOwner() */\n      jump\t// in\n    tag_213:\n        /* \"Heliocontracts/contracts/ceros/HelioProvider.sol\":5660:5706  IERC20(_ceToken).safeApprove(address(_dao), 0) */\n      tag_215\n        /* \"Heliocontracts/contracts/ceros/HelioProvider.sol\":5697:5701  _dao */\n      0xce\n      0x00\n      swap1\n      sload\n      swap1\n      0x0100\n      exp\n      swap1\n      div\n      0xffffffffffffffffffffffffffffffffffffffff\n      and\n        /* \"Heliocontracts/contracts/ceros/HelioProvider.sol\":5704:5705  0 */\n      0x00\n        /* \"Heliocontracts/contracts/ceros/HelioProvider.sol\":5667:5675  _ceToken */\n      0xcb\n      0x00\n      swap1\n      sload\n      swap1\n      0x0100\n      exp\n      swap1\n      div\n      0xffffffffffffffffffffffffffffffffffffffff\n      and\n        /* \"Heliocontracts/contracts/ceros/HelioProvider.sol\":5660:5688  IERC20(_ceToken).safeApprove */\n      0xffffffffffffffffffffffffffffffffffffffff\n      and\n      tag_216\n      swap1\n        /* \"Heliocontracts/contracts/ceros/HelioProvider.sol\":5660:5706  IERC20(_ceToken).safeApprove(address(_dao), 0) */\n      swap3\n      swap2\n      swap1\n      0xffffffff\n      and\n      jump\t// in\n    tag_215:\n        /* \"Heliocontracts/contracts/ceros/HelioProvider.sol\":5727:5734  ceToken */\n      dup1\n        /* \"Heliocontracts/contracts/ceros/HelioProvider.sol\":5716:5724  _ceToken */\n      0xcb\n      0x00\n        /* \"Heliocontracts/contracts/ceros/HelioProvider.sol\":5716:5734  _ceToken = ceToken */\n      0x0100\n      exp\n      dup2\n      sload\n      dup2\n      0xffffffffffffffffffffffffffffffffffffffff\n      mul\n      not\n      and\n      swap1\n      dup4\n      0xffffffffffffffffffffffffffffffffffffffff\n      and\n      mul\n      or\n      swap1\n      sstore\n      pop\n        /* \"Heliocontracts/contracts/ceros/HelioProvider.sol\":5744:5806  IERC20(_ceToken).safeApprove(address(_dao), type(uint256).max) */\n      tag_217\n        /* \"Heliocontracts/contracts/ceros/HelioProvider.sol\":5781:5785  _dao */\n      0xce\n      0x00\n      swap1\n      sload\n      swap1\n      0x0100\n      exp\n      swap1\n      div\n      0xffffffffffffffffffffffffffffffffffffffff\n      and\n        /* \"Heliocontracts/contracts/ceros/HelioProvider.sol\":5788:5805  type(uint256).max */\n      0xffffffffffffffffffffffffffffffffffffffffffffffffffffffffffffffff\n        /* \"Heliocontracts/contracts/ceros/HelioProvider.sol\":5751:5759  _ceToken */\n      0xcb\n      0x00\n      swap1\n      sload\n      swap1\n      0x0100\n      exp\n      swap1\n      div\n      0xffffffffffffffffffffffffffffffffffffffff\n      and\n        /* \"Heliocontracts/contracts/ceros/HelioProvider.sol\":5744:5772  IERC20(_ceToken).safeApprove */\n      0xffffffffffffffffffffffffffffffffffffffff\n      and\n      tag_216\n      swap1\n        /* \"Heliocontracts/contracts/ceros/HelioProvider.sol\":5744:5806  IERC20(_ceToken).safeApprove(address(_dao), type(uint256).max) */\n      swap3\n      swap2\n      swap1\n      0xffffffff\n      and\n      jump\t// in\n    tag_217:\n        /* \"Heliocontracts/contracts/ceros/HelioProvider.sol\":5821:5843  ChangeCeToken(ceToken) */\n      0x1c51d83fbf878c22f78dd72bd5f93a9adfa124683a91b2ad431f10c9ff731db4\n        /* \"Heliocontracts/contracts/ceros/HelioProvider.sol\":5835:5842  ceToken */\n      dup2\n        /* \"Heliocontracts/contracts/ceros/HelioProvider.sol\":5821:5843  ChangeCeToken(ceToken) */\n      mload(0x40)\n      tag_218\n      swap2\n      swap1\n      tag_91\n      jump\t// in\n    tag_218:\n      mload(0x40)\n      dup1\n      swap2\n      sub\n      swap1\n      log1\n        /* \"Heliocontracts/contracts/ceros/HelioProvider.sol\":5591:5850  function changeCeToken(address ceToken) external onlyOwner {... */\n      pop\n      jump\t// out\n        /* \"Heliocontracts/contracts/ceros/HelioProvider.sol\":998:1027  ICerosRouter public _ceRouter */\n    tag_74:\n      0xcd\n      0x00\n      swap1\n      sload\n      swap1\n      0x0100\n      exp\n      swap1\n      div\n      0xffffffffffffffffffffffffffffffffffffffff\n      and\n      dup2\n      jump\t// out\n        /* \"@openzeppelin/contracts-upgradeable/security/PausableUpgradeable.sol\":1858:1942  function paused() public view virtual returns (bool) {... */\n    tag_79:\n        /* \"@openzeppelin/contracts-upgradeable/security/PausableUpgradeable.sol\":1905:1909  bool */\n      0x00\n        /* \"@openzeppelin/contracts-upgradeable/security/PausableUpgradeable.sol\":1928:1935  _paused */\n      0x65\n      0x00\n      swap1\n      sload\n      swap1\n      0x0100\n      exp\n      swap1\n      div\n      0xff\n      and\n        /* \"@openzeppelin/contracts-upgradeable/security/PausableUpgradeable.sol\":1921:1935  return _paused */\n      swap1\n      pop\n        /* \"@openzeppelin/contracts-upgradeable/security/PausableUpgradeable.sol\":1858:1942  function paused() public view virtual returns (bool) {... */\n      swap1\n      jump\t// out\n        /* \"Heliocontracts/contracts/ceros/HelioProvider.sol\":1055:1080  IBinancePool public _pool */\n    tag_84:\n      0xcf\n      0x00\n      swap1\n      sload\n      swap1\n      0x0100\n      exp\n      swap1\n      div\n      0xffffffffffffffffffffffffffffffffffffffff\n      and\n      dup2\n      jump\t// out\n        /* \"Heliocontracts/contracts/ceros/HelioProvider.sol\":911:934  address public _ceToken */\n    tag_89:\n      0xcb\n      0x00\n      swap1\n      sload\n      swap1\n      0x0100\n      exp\n      swap1\n      div\n      0xffffffffffffffffffffffffffffffffffffffff\n      and\n      dup2\n      jump\t// out\n        /* \"Heliocontracts/contracts/ceros/HelioProvider.sol\":4220:4396  function liquidation(address recipient, uint256 amount)... */\n    tag_95:\n        /* \"Heliocontracts/contracts/ceros/HelioProvider.sol\":1417:1424  owner() */\n      tag_221\n        /* \"Heliocontracts/contracts/ceros/HelioProvider.sol\":1417:1422  owner */\n      tag_113\n        /* \"Heliocontracts/contracts/ceros/HelioProvider.sol\":1417:1424  owner() */\n      jump\t// in\n    tag_221:\n        /* \"Heliocontracts/contracts/ceros/HelioProvider.sol\":1403:1424  msg.sender == owner() */\n      0xffffffffffffffffffffffffffffffffffffffff\n      and\n        /* \"Heliocontracts/contracts/ceros/HelioProvider.sol\":1403:1413  msg.sender */\n      caller\n        /* \"Heliocontracts/contracts/ceros/HelioProvider.sol\":1403:1424  msg.sender == owner() */\n      0xffffffffffffffffffffffffffffffffffffffff\n      and\n      eq\n        /* \"Heliocontracts/contracts/ceros/HelioProvider.sol\":1403:1448  msg.sender == owner() || msg.sender == _proxy */\n      dup1\n      tag_222\n      jumpi\n      pop\n        /* \"Heliocontracts/contracts/ceros/HelioProvider.sol\":1442:1448  _proxy */\n      0xd0\n      0x00\n      swap1\n      sload\n      swap1\n      0x0100\n      exp\n      swap1\n      div\n      0xffffffffffffffffffffffffffffffffffffffff\n      and\n        /* \"Heliocontracts/contracts/ceros/HelioProvider.sol\":1428:1448  msg.sender == _proxy */\n      0xffffffffffffffffffffffffffffffffffffffff\n      and\n        /* \"Heliocontracts/contracts/ceros/HelioProvider.sol\":1428:1438  msg.sender */\n      caller\n        /* \"Heliocontracts/contracts/ceros/HelioProvider.sol\":1428:1448  msg.sender == _proxy */\n      0xffffffffffffffffffffffffffffffffffffffff\n      and\n      eq\n        /* \"Heliocontracts/contracts/ceros/HelioProvider.sol\":1403:1448  msg.sender == owner() || msg.sender == _proxy */\n    tag_222:\n        /* \"Heliocontracts/contracts/ceros/HelioProvider.sol\":1382:1499  require(... */\n      tag_223\n      jumpi\n      mload(0x40)\n      0x08c379a000000000000000000000000000000000000000000000000000000000\n      dup2\n      mstore\n      0x04\n      add\n      tag_224\n      swap1\n      tag_193\n      jump\t// in\n    tag_224:\n      mload(0x40)\n      dup1\n      swap2\n      sub\n      swap1\n      revert\n    tag_223:\n        /* \"@openzeppelin/contracts-upgradeable/security/ReentrancyGuardUpgradeable.sol\":1815:1816  2 */\n      0x02\n        /* \"@openzeppelin/contracts-upgradeable/security/ReentrancyGuardUpgradeable.sol\":2569:2576  _status */\n      sload(0x97)\n        /* \"@openzeppelin/contracts-upgradeable/security/ReentrancyGuardUpgradeable.sol\":2569:2588  _status != _ENTERED */\n      eq\n      iszero\n        /* \"@openzeppelin/contracts-upgradeable/security/ReentrancyGuardUpgradeable.sol\":2561:2624  require(_status != _ENTERED, \"ReentrancyGuard: reentrant call\") */\n      tag_226\n      jumpi\n      mload(0x40)\n      0x08c379a000000000000000000000000000000000000000000000000000000000\n      dup2\n      mstore\n      0x04\n      add\n      tag_227\n      swap1\n      tag_166\n      jump\t// in\n    tag_227:\n      mload(0x40)\n      dup1\n      swap2\n      sub\n      swap1\n      revert\n    tag_226:\n        /* \"@openzeppelin/contracts-upgradeable/security/ReentrancyGuardUpgradeable.sol\":1815:1816  2 */\n      0x02\n        /* \"@openzeppelin/contracts-upgradeable/security/ReentrancyGuardUpgradeable.sol\":2699:2706  _status */\n      0x97\n        /* \"@openzeppelin/contracts-upgradeable/security/ReentrancyGuardUpgradeable.sol\":2699:2717  _status = _ENTERED */\n      dup2\n      swap1\n      sstore\n      pop\n        /* \"Heliocontracts/contracts/ceros/HelioProvider.sol\":4347:4356  _ceRouter */\n      0xcd\n      0x00\n      swap1\n      sload\n      swap1\n      0x0100\n      exp\n      swap1\n      div\n      0xffffffffffffffffffffffffffffffffffffffff\n      and\n        /* \"Heliocontracts/contracts/ceros/HelioProvider.sol\":4347:4370  _ceRouter.withdrawABNBc */\n      0xffffffffffffffffffffffffffffffffffffffff\n      and\n      0x03550d56\n        /* \"Heliocontracts/contracts/ceros/HelioProvider.sol\":4371:4380  recipient */\n      dup4\n        /* \"Heliocontracts/contracts/ceros/HelioProvider.sol\":4382:4388  amount */\n      dup4\n        /* \"Heliocontracts/contracts/ceros/HelioProvider.sol\":4347:4389  _ceRouter.withdrawABNBc(recipient, amount) */\n      mload(0x40)\n      dup4\n      0xffffffff\n      and\n      0xe0\n      shl\n      dup2\n      mstore\n      0x04\n      add\n      tag_229\n      swap3\n      swap2\n      swap1\n      tag_178\n      jump\t// in\n    tag_229:\n      0x20\n      mload(0x40)\n      dup1\n      dup4\n      sub\n      dup2\n      0x00\n      dup8\n      gas\n      call\n      iszero\n      dup1\n      iszero\n      tag_231\n      jumpi\n      returndatasize\n      0x00\n      dup1\n      returndatacopy\n      revert(0x00, returndatasize)\n    tag_231:\n      pop\n      pop\n      pop\n      pop\n      mload(0x40)\n      returndatasize\n      not(0x1f)\n      0x1f\n      dup3\n      add\n      and\n      dup3\n      add\n      dup1\n      0x40\n      mstore\n      pop\n      dup2\n      add\n      swap1\n      tag_232\n      swap2\n      swap1\n      tag_171\n      jump\t// in\n    tag_232:\n      pop\n        /* \"@openzeppelin/contracts-upgradeable/security/ReentrancyGuardUpgradeable.sol\":1772:1773  1 */\n      0x01\n        /* \"@openzeppelin/contracts-upgradeable/security/ReentrancyGuardUpgradeable.sol\":2872:2879  _status */\n      0x97\n        /* \"@openzeppelin/contracts-upgradeable/security/ReentrancyGuardUpgradeable.sol\":2872:2894  _status = _NOT_ENTERED */\n      dup2\n      swap1\n      sstore\n      pop\n        /* \"Heliocontracts/contracts/ceros/HelioProvider.sol\":4220:4396  function liquidation(address recipient, uint256 amount)... */\n      pop\n      pop\n      jump\t// out\n        /* \"Heliocontracts/contracts/ceros/HelioProvider.sol\":836:860  address public _operator */\n    tag_98:\n      0xc9\n      0x00\n      swap1\n      sload\n      swap1\n      0x0100\n      exp\n      swap1\n      div\n      0xffffffffffffffffffffffffffffffffffffffff\n      and\n      dup2\n      jump\t// out\n        /* \"@openzeppelin/contracts-upgradeable/access/OwnableUpgradeable.sol\":2071:2172  function renounceOwnership() public virtual onlyOwner {... */\n    tag_102:\n        /* \"@openzeppelin/contracts-upgradeable/access/OwnableUpgradeable.sol\":1334:1347  _checkOwner() */\n      tag_234\n        /* \"@openzeppelin/contracts-upgradeable/access/OwnableUpgradeable.sol\":1334:1345  _checkOwner */\n      tag_185\n        /* \"@openzeppelin/contracts-upgradeable/access/OwnableUpgradeable.sol\":1334:1347  _checkOwner() */\n      jump\t// in\n    tag_234:\n        /* \"@openzeppelin/contracts-upgradeable/access/OwnableUpgradeable.sol\":2135:2165  _transferOwnership(address(0)) */\n      tag_236\n        /* \"@openzeppelin/contracts-upgradeable/access/OwnableUpgradeable.sol\":2162:2163  0 */\n      0x00\n        /* \"@openzeppelin/contracts-upgradeable/access/OwnableUpgradeable.sol\":2135:2153  _transferOwnership */\n      tag_237\n        /* \"@openzeppelin/contracts-upgradeable/access/OwnableUpgradeable.sol\":2135:2165  _transferOwnership(address(0)) */\n      jump\t// in\n    tag_236:\n        /* \"@openzeppelin/contracts-upgradeable/access/OwnableUpgradeable.sol\":2071:2172  function renounceOwnership() public virtual onlyOwner {... */\n      jump\t// out\n        /* \"Heliocontracts/contracts/ceros/HelioProvider.sol\":3847:4174  function releaseInABNBc(address recipient, uint256 amount)... */\n    tag_106:\n        /* \"Heliocontracts/contracts/ceros/HelioProvider.sol\":3962:3975  uint256 value */\n      0x00\n        /* \"@openzeppelin/contracts-upgradeable/security/ReentrancyGuardUpgradeable.sol\":1815:1816  2 */\n      0x02\n        /* \"@openzeppelin/contracts-upgradeable/security/ReentrancyGuardUpgradeable.sol\":2569:2576  _status */\n      sload(0x97)\n        /* \"@openzeppelin/contracts-upgradeable/security/ReentrancyGuardUpgradeable.sol\":2569:2588  _status != _ENTERED */\n      eq\n      iszero\n        /* \"@openzeppelin/contracts-upgradeable/security/ReentrancyGuardUpgradeable.sol\":2561:2624  require(_status != _ENTERED, \"ReentrancyGuard: reentrant call\") */\n      tag_239\n      jumpi\n      mload(0x40)\n      0x08c379a000000000000000000000000000000000000000000000000000000000\n      dup2\n      mstore\n      0x04\n      add\n      tag_240\n      swap1\n      tag_166\n      jump\t// in\n    tag_240:\n      mload(0x40)\n      dup1\n      swap2\n      sub\n      swap1\n      revert\n    tag_239:\n        /* \"@openzeppelin/contracts-upgradeable/security/ReentrancyGuardUpgradeable.sol\":1815:1816  2 */\n      0x02\n        /* \"@openzeppelin/contracts-upgradeable/security/ReentrancyGuardUpgradeable.sol\":2699:2706  _status */\n      0x97\n        /* \"@openzeppelin/contracts-upgradeable/security/ReentrancyGuardUpgradeable.sol\":2699:2717  _status = _ENTERED */\n      dup2\n      swap1\n      sstore\n      pop\n        /* \"Heliocontracts/contracts/ceros/HelioProvider.sol\":3991:4030  _withdrawCollateral(msg.sender, amount) */\n      tag_242\n        /* \"Heliocontracts/contracts/ceros/HelioProvider.sol\":4011:4021  msg.sender */\n      caller\n        /* \"Heliocontracts/contracts/ceros/HelioProvider.sol\":4023:4029  amount */\n      dup4\n        /* \"Heliocontracts/contracts/ceros/HelioProvider.sol\":3991:4010  _withdrawCollateral */\n      tag_176\n        /* \"Heliocontracts/contracts/ceros/HelioProvider.sol\":3991:4030  _withdrawCollateral(msg.sender, amount) */\n      jump\t// in\n    tag_242:\n        /* \"Heliocontracts/contracts/ceros/HelioProvider.sol\":4048:4057  _ceRouter */\n      0xcd\n      0x00\n      swap1\n      sload\n      swap1\n      0x0100\n      exp\n      swap1\n      div\n      0xffffffffffffffffffffffffffffffffffffffff\n      and\n        /* \"Heliocontracts/contracts/ceros/HelioProvider.sol\":4048:4071  _ceRouter.withdrawABNBc */\n      0xffffffffffffffffffffffffffffffffffffffff\n      and\n      0x03550d56\n        /* \"Heliocontracts/contracts/ceros/HelioProvider.sol\":4072:4081  recipient */\n      dup5\n        /* \"Heliocontracts/contracts/ceros/HelioProvider.sol\":4083:4089  amount */\n      dup5\n        /* \"Heliocontracts/contracts/ceros/HelioProvider.sol\":4048:4090  _ceRouter.withdrawABNBc(recipient, amount) */\n      mload(0x40)\n      dup4\n      0xffffffff\n      and\n      0xe0\n      shl\n      dup2\n      mstore\n      0x04\n      add\n      tag_243\n      swap3\n      swap2\n      swap1\n      tag_178\n      jump\t// in\n    tag_243:\n      0x20\n      mload(0x40)\n      dup1\n      dup4\n      sub\n      dup2\n      0x00\n      dup8\n      gas\n      call\n      iszero\n      dup1\n      iszero\n      tag_245\n      jumpi\n      returndatasize\n      0x00\n      dup1\n      returndatacopy\n      revert(0x00, returndatasize)\n    tag_245:\n      pop\n      pop\n      pop\n      pop\n      mload(0x40)\n      returndatasize\n      not(0x1f)\n      0x1f\n      dup3\n      add\n      and\n      dup3\n      add\n      dup1\n      0x40\n      mstore\n      pop\n      dup2\n      add\n      swap1\n      tag_246\n      swap2\n      swap1\n      tag_171\n      jump\t// in\n    tag_246:\n        /* \"Heliocontracts/contracts/ceros/HelioProvider.sol\":4040:4090  value = _ceRouter.withdrawABNBc(recipient, amount) */\n      swap1\n      pop\n        /* \"Heliocontracts/contracts/ceros/HelioProvider.sol\":4128:4137  recipient */\n      dup3\n        /* \"Heliocontracts/contracts/ceros/HelioProvider.sol\":4105:4145  Withdrawal(msg.sender, recipient, value) */\n      0xffffffffffffffffffffffffffffffffffffffff\n      and\n        /* \"Heliocontracts/contracts/ceros/HelioProvider.sol\":4116:4126  msg.sender */\n      caller\n        /* \"Heliocontracts/contracts/ceros/HelioProvider.sol\":4105:4145  Withdrawal(msg.sender, recipient, value) */\n      0xffffffffffffffffffffffffffffffffffffffff\n      and\n      0x2717ead6b9200dd235aad468c9809ea400fe33ac69b5bfaa6d3e90fc922b6398\n        /* \"Heliocontracts/contracts/ceros/HelioProvider.sol\":4139:4144  value */\n      dup4\n        /* \"Heliocontracts/contracts/ceros/HelioProvider.sol\":4105:4145  Withdrawal(msg.sender, recipient, value) */\n      mload(0x40)\n      tag_247\n      swap2\n      swap1\n      tag_43\n      jump\t// in\n    tag_247:\n      mload(0x40)\n      dup1\n      swap2\n      sub\n      swap1\n      log3\n        /* \"@openzeppelin/contracts-upgradeable/security/ReentrancyGuardUpgradeable.sol\":1772:1773  1 */\n      0x01\n        /* \"@openzeppelin/contracts-upgradeable/security/ReentrancyGuardUpgradeable.sol\":2872:2879  _status */\n      0x97\n        /* \"@openzeppelin/contracts-upgradeable/security/ReentrancyGuardUpgradeable.sol\":2872:2894  _status = _NOT_ENTERED */\n      dup2\n      swap1\n      sstore\n      pop\n        /* \"Heliocontracts/contracts/ceros/HelioProvider.sol\":3847:4174  function releaseInABNBc(address recipient, uint256 amount)... */\n      swap3\n      swap2\n      pop\n      pop\n      jump\t// out\n        /* \"Heliocontracts/contracts/ceros/HelioProvider.sol\":5163:5224  function pause() external onlyOwner {... */\n    tag_110:\n        /* \"@openzeppelin/contracts-upgradeable/access/OwnableUpgradeable.sol\":1334:1347  _checkOwner() */\n      tag_249\n        /* \"@openzeppelin/contracts-upgradeable/access/OwnableUpgradeable.sol\":1334:1345  _checkOwner */\n      tag_185\n        /* \"@openzeppelin/contracts-upgradeable/access/OwnableUpgradeable.sol\":1334:1347  _checkOwner() */\n      jump\t// in\n    tag_249:\n        /* \"Heliocontracts/contracts/ceros/HelioProvider.sol\":5209:5217  _pause() */\n      tag_251\n        /* \"Heliocontracts/contracts/ceros/HelioProvider.sol\":5209:5215  _pause */\n      tag_252\n        /* \"Heliocontracts/contracts/ceros/HelioProvider.sol\":5209:5217  _pause() */\n      jump\t// in\n    tag_251:\n        /* \"Heliocontracts/contracts/ceros/HelioProvider.sol\":5163:5224  function pause() external onlyOwner {... */\n      jump\t// out\n        /* \"@openzeppelin/contracts-upgradeable/access/OwnableUpgradeable.sol\":1441:1526  function owner() public view virtual returns (address) {... */\n    tag_113:\n        /* \"@openzeppelin/contracts-upgradeable/access/OwnableUpgradeable.sol\":1487:1494  address */\n      0x00\n        /* \"@openzeppelin/contracts-upgradeable/access/OwnableUpgradeable.sol\":1513:1519  _owner */\n      0x33\n      0x00\n      swap1\n      sload\n      swap1\n      0x0100\n      exp\n      swap1\n      div\n      0xffffffffffffffffffffffffffffffffffffffff\n      and\n        /* \"@openzeppelin/contracts-upgradeable/access/OwnableUpgradeable.sol\":1506:1519  return _owner */\n      swap1\n      pop\n        /* \"@openzeppelin/contracts-upgradeable/access/OwnableUpgradeable.sol\":1441:1526  function owner() public view virtual returns (address) {... */\n      swap1\n      jump\t// out\n        /* \"Heliocontracts/contracts/ceros/HelioProvider.sol\":880:905  address public _certToken */\n    tag_117:\n      0xca\n      0x00\n      swap1\n      sload\n      swap1\n      0x0100\n      exp\n      swap1\n      div\n      0xffffffffffffffffffffffffffffffffffffffff\n      and\n      dup2\n      jump\t// out\n        /* \"Heliocontracts/contracts/ceros/HelioProvider.sol\":2188:2525  function provide()... */\n    tag_120:\n        /* \"Heliocontracts/contracts/ceros/HelioProvider.sol\":2293:2306  uint256 value */\n      0x00\n        /* \"@openzeppelin/contracts-upgradeable/security/PausableUpgradeable.sol\":1482:1501  _requireNotPaused() */\n      tag_255\n        /* \"@openzeppelin/contracts-upgradeable/security/PausableUpgradeable.sol\":1482:1499  _requireNotPaused */\n      tag_162\n        /* \"@openzeppelin/contracts-upgradeable/security/PausableUpgradeable.sol\":1482:1501  _requireNotPaused() */\n      jump\t// in\n    tag_255:\n        /* \"@openzeppelin/contracts-upgradeable/security/ReentrancyGuardUpgradeable.sol\":1815:1816  2 */\n      0x02\n        /* \"@openzeppelin/contracts-upgradeable/security/ReentrancyGuardUpgradeable.sol\":2569:2576  _status */\n      sload(0x97)\n        /* \"@openzeppelin/contracts-upgradeable/security/ReentrancyGuardUpgradeable.sol\":2569:2588  _status != _ENTERED */\n      eq\n      iszero\n        /* \"@openzeppelin/contracts-upgradeable/security/ReentrancyGuardUpgradeable.sol\":2561:2624  require(_status != _ENTERED, \"ReentrancyGuard: reentrant call\") */\n      tag_257\n      jumpi\n      mload(0x40)\n      0x08c379a000000000000000000000000000000000000000000000000000000000\n      dup2\n      mstore\n      0x04\n      add\n      tag_258\n      swap1\n      tag_166\n      jump\t// in\n    tag_258:\n      mload(0x40)\n      dup1\n      swap2\n      sub\n      swap1\n      revert\n    tag_257:\n        /* \"@openzeppelin/contracts-upgradeable/security/ReentrancyGuardUpgradeable.sol\":1815:1816  2 */\n      0x02\n        /* \"@openzeppelin/contracts-upgradeable/security/ReentrancyGuardUpgradeable.sol\":2699:2706  _status */\n      0x97\n        /* \"@openzeppelin/contracts-upgradeable/security/ReentrancyGuardUpgradeable.sol\":2699:2717  _status = _ENTERED */\n      dup2\n      swap1\n      sstore\n      pop\n        /* \"Heliocontracts/contracts/ceros/HelioProvider.sol\":2330:2339  _ceRouter */\n      0xcd\n      0x00\n      swap1\n      sload\n      swap1\n      0x0100\n      exp\n      swap1\n      div\n      0xffffffffffffffffffffffffffffffffffffffff\n      and\n        /* \"Heliocontracts/contracts/ceros/HelioProvider.sol\":2330:2347  _ceRouter.deposit */\n      0xffffffffffffffffffffffffffffffffffffffff\n      and\n      0xd0e30db0\n        /* \"Heliocontracts/contracts/ceros/HelioProvider.sol\":2355:2364  msg.value */\n      callvalue\n        /* \"Heliocontracts/contracts/ceros/HelioProvider.sol\":2330:2367  _ceRouter.deposit{value: msg.value}() */\n      mload(0x40)\n      dup3\n      0xffffffff\n      and\n      0xe0\n      shl\n      dup2\n      mstore\n      0x04\n      add\n      0x20\n      mload(0x40)\n      dup1\n      dup4\n      sub\n      dup2\n      dup6\n      dup9\n      gas\n      call\n      iszero\n      dup1\n      iszero\n      tag_261\n      jumpi\n      returndatasize\n      0x00\n      dup1\n      returndatacopy\n      revert(0x00, returndatasize)\n    tag_261:\n      pop\n      pop\n      pop\n      pop\n      pop\n      mload(0x40)\n      returndatasize\n      not(0x1f)\n      0x1f\n      dup3\n      add\n      and\n      dup3\n      add\n      dup1\n      0x40\n      mstore\n      pop\n      dup2\n      add\n      swap1\n      tag_262\n      swap2\n      swap1\n      tag_171\n      jump\t// in\n    tag_262:\n        /* \"Heliocontracts/contracts/ceros/HelioProvider.sol\":2322:2367  value = _ceRouter.deposit{value: msg.value}() */\n      swap1\n      pop\n        /* \"Heliocontracts/contracts/ceros/HelioProvider.sol\":2418:2455  _provideCollateral(msg.sender, value) */\n      tag_263\n        /* \"Heliocontracts/contracts/ceros/HelioProvider.sol\":2437:2447  msg.sender */\n      caller\n        /* \"Heliocontracts/contracts/ceros/HelioProvider.sol\":2449:2454  value */\n      dup3\n        /* \"Heliocontracts/contracts/ceros/HelioProvider.sol\":2418:2436  _provideCollateral */\n      tag_264\n        /* \"Heliocontracts/contracts/ceros/HelioProvider.sol\":2418:2455  _provideCollateral(msg.sender, value) */\n      jump\t// in\n    tag_263:\n        /* \"Heliocontracts/contracts/ceros/HelioProvider.sol\":2478:2488  msg.sender */\n      caller\n        /* \"Heliocontracts/contracts/ceros/HelioProvider.sol\":2470:2496  Deposit(msg.sender, value) */\n      0xffffffffffffffffffffffffffffffffffffffff\n      and\n      0xe1fffcc4923d04b559f4d29a8bfc6cda04eb5b0d3c460751c2402c5c5cc9109c\n        /* \"Heliocontracts/contracts/ceros/HelioProvider.sol\":2490:2495  value */\n      dup3\n        /* \"Heliocontracts/contracts/ceros/HelioProvider.sol\":2470:2496  Deposit(msg.sender, value) */\n      mload(0x40)\n      tag_265\n      swap2\n      swap1\n      tag_43\n      jump\t// in\n    tag_265:\n      mload(0x40)\n      dup1\n      swap2\n      sub\n      swap1\n      log2\n        /* \"@openzeppelin/contracts-upgradeable/security/ReentrancyGuardUpgradeable.sol\":1772:1773  1 */\n      0x01\n        /* \"@openzeppelin/contracts-upgradeable/security/ReentrancyGuardUpgradeable.sol\":2872:2879  _status */\n      0x97\n        /* \"@openzeppelin/contracts-upgradeable/security/ReentrancyGuardUpgradeable.sol\":2872:2894  _status = _NOT_ENTERED */\n      dup2\n      swap1\n      sstore\n      pop\n        /* \"Heliocontracts/contracts/ceros/HelioProvider.sol\":2188:2525  function provide()... */\n      swap1\n      jump\t// out\n        /* \"Heliocontracts/contracts/ceros/HelioProvider.sol\":5855:5995  function changeProxy(address auctionProxy) external onlyOwner {... */\n    tag_125:\n        /* \"@openzeppelin/contracts-upgradeable/access/OwnableUpgradeable.sol\":1334:1347  _checkOwner() */\n      tag_267\n        /* \"@openzeppelin/contracts-upgradeable/access/OwnableUpgradeable.sol\":1334:1345  _checkOwner */\n      tag_185\n        /* \"@openzeppelin/contracts-upgradeable/access/OwnableUpgradeable.sol\":1334:1347  _checkOwner() */\n      jump\t// in\n    tag_267:\n        /* \"Heliocontracts/contracts/ceros/HelioProvider.sol\":5936:5948  auctionProxy */\n      dup1\n        /* \"Heliocontracts/contracts/ceros/HelioProvider.sol\":5927:5933  _proxy */\n      0xd0\n      0x00\n        /* \"Heliocontracts/contracts/ceros/HelioProvider.sol\":5927:5948  _proxy = auctionProxy */\n      0x0100\n      exp\n      dup2\n      sload\n      dup2\n      0xffffffffffffffffffffffffffffffffffffffff\n      mul\n      not\n      and\n      swap1\n      dup4\n      0xffffffffffffffffffffffffffffffffffffffff\n      and\n      mul\n      or\n      swap1\n      sstore\n      pop\n        /* \"Heliocontracts/contracts/ceros/HelioProvider.sol\":5963:5988  ChangeProxy(auctionProxy) */\n      0xcf16493c33f7a5001593c6b3158b6613c39a56bed7e2fe27f83a7ee297b6e32a\n        /* \"Heliocontracts/contracts/ceros/HelioProvider.sol\":5975:5987  auctionProxy */\n      dup2\n        /* \"Heliocontracts/contracts/ceros/HelioProvider.sol\":5963:5988  ChangeProxy(auctionProxy) */\n      mload(0x40)\n      tag_269\n      swap2\n      swap1\n      tag_91\n      jump\t// in\n    tag_269:\n      mload(0x40)\n      dup1\n      swap2\n      sub\n      swap1\n      log1\n        /* \"Heliocontracts/contracts/ceros/HelioProvider.sol\":5855:5995  function changeProxy(address auctionProxy) external onlyOwner {... */\n      pop\n      jump\t// out\n        /* \"Heliocontracts/contracts/ceros/HelioProvider.sol\":1522:2152  function initialize(... */\n    tag_130:\n        /* \"@openzeppelin/contracts-upgradeable/proxy/utils/Initializable.sol\":3111:3130  bool isTopLevelCall */\n      0x00\n        /* \"@openzeppelin/contracts-upgradeable/proxy/utils/Initializable.sol\":3134:3147  _initializing */\n      dup1\n      0x01\n      swap1\n      sload\n      swap1\n      0x0100\n      exp\n      swap1\n      div\n      0xff\n      and\n        /* \"@openzeppelin/contracts-upgradeable/proxy/utils/Initializable.sol\":3133:3147  !_initializing */\n      iszero\n        /* \"@openzeppelin/contracts-upgradeable/proxy/utils/Initializable.sol\":3111:3147  bool isTopLevelCall = !_initializing */\n      swap1\n      pop\n        /* \"@openzeppelin/contracts-upgradeable/proxy/utils/Initializable.sol\":3179:3193  isTopLevelCall */\n      dup1\n        /* \"@openzeppelin/contracts-upgradeable/proxy/utils/Initializable.sol\":3179:3213  isTopLevelCall && _initialized < 1 */\n      dup1\n      iszero\n      tag_271\n      jumpi\n      pop\n        /* \"@openzeppelin/contracts-upgradeable/proxy/utils/Initializable.sol\":3212:3213  1 */\n      0x01\n        /* \"@openzeppelin/contracts-upgradeable/proxy/utils/Initializable.sol\":3197:3209  _initialized */\n      0x00\n      dup1\n      sload\n      swap1\n      0x0100\n      exp\n      swap1\n      div\n      0xff\n      and\n        /* \"@openzeppelin/contracts-upgradeable/proxy/utils/Initializable.sol\":3197:3213  _initialized < 1 */\n      0xff\n      and\n      lt\n        /* \"@openzeppelin/contracts-upgradeable/proxy/utils/Initializable.sol\":3179:3213  isTopLevelCall && _initialized < 1 */\n    tag_271:\n        /* \"@openzeppelin/contracts-upgradeable/proxy/utils/Initializable.sol\":3178:3286  (isTopLevelCall && _initialized < 1) || (!AddressUpgradeable.isContract(address(this)) && _initialized == 1) */\n      dup1\n      tag_272\n      jumpi\n      pop\n        /* \"@openzeppelin/contracts-upgradeable/proxy/utils/Initializable.sol\":3220:3264  AddressUpgradeable.isContract(address(this)) */\n      tag_273\n        /* \"@openzeppelin/contracts-upgradeable/proxy/utils/Initializable.sol\":3258:3262  this */\n      address\n        /* \"@openzeppelin/contracts-upgradeable/proxy/utils/Initializable.sol\":3220:3249  AddressUpgradeable.isContract */\n      tag_274\n        /* \"@openzeppelin/contracts-upgradeable/proxy/utils/Initializable.sol\":3220:3264  AddressUpgradeable.isContract(address(this)) */\n      jump\t// in\n    tag_273:\n        /* \"@openzeppelin/contracts-upgradeable/proxy/utils/Initializable.sol\":3219:3264  !AddressUpgradeable.isContract(address(this)) */\n      iszero\n        /* \"@openzeppelin/contracts-upgradeable/proxy/utils/Initializable.sol\":3219:3285  !AddressUpgradeable.isContract(address(this)) && _initialized == 1 */\n      dup1\n      iszero\n      tag_275\n      jumpi\n      pop\n        /* \"@openzeppelin/contracts-upgradeable/proxy/utils/Initializable.sol\":3284:3285  1 */\n      0x01\n        /* \"@openzeppelin/contracts-upgradeable/proxy/utils/Initializable.sol\":3268:3280  _initialized */\n      0x00\n      dup1\n      sload\n      swap1\n      0x0100\n      exp\n      swap1\n      div\n      0xff\n      and\n        /* \"@openzeppelin/contracts-upgradeable/proxy/utils/Initializable.sol\":3268:3285  _initialized == 1 */\n      0xff\n      and\n      eq\n        /* \"@openzeppelin/contracts-upgradeable/proxy/utils/Initializable.sol\":3219:3285  !AddressUpgradeable.isContract(address(this)) && _initialized == 1 */\n    tag_275:\n        /* \"@openzeppelin/contracts-upgradeable/proxy/utils/Initializable.sol\":3178:3286  (isTopLevelCall && _initialized < 1) || (!AddressUpgradeable.isContract(address(this)) && _initialized == 1) */\n    tag_272:\n        /* \"@openzeppelin/contracts-upgradeable/proxy/utils/Initializable.sol\":3157:3358  require(... */\n      tag_276\n      jumpi\n      mload(0x40)\n      0x08c379a000000000000000000000000000000000000000000000000000000000\n      dup2\n      mstore\n      0x04\n      add\n      tag_277\n      swap1\n      tag_278\n      jump\t// in\n    tag_277:\n      mload(0x40)\n      dup1\n      swap2\n      sub\n      swap1\n      revert\n    tag_276:\n        /* \"@openzeppelin/contracts-upgradeable/proxy/utils/Initializable.sol\":3383:3384  1 */\n      0x01\n        /* \"@openzeppelin/contracts-upgradeable/proxy/utils/Initializable.sol\":3368:3380  _initialized */\n      0x00\n      dup1\n        /* \"@openzeppelin/contracts-upgradeable/proxy/utils/Initializable.sol\":3368:3384  _initialized = 1 */\n      0x0100\n      exp\n      dup2\n      sload\n      dup2\n      0xff\n      mul\n      not\n      and\n      swap1\n      dup4\n      0xff\n      and\n      mul\n      or\n      swap1\n      sstore\n      pop\n        /* \"@openzeppelin/contracts-upgradeable/proxy/utils/Initializable.sol\":3398:3412  isTopLevelCall */\n      dup1\n        /* \"@openzeppelin/contracts-upgradeable/proxy/utils/Initializable.sol\":3394:3459  if (isTopLevelCall) {... */\n      iszero\n      tag_279\n      jumpi\n        /* \"@openzeppelin/contracts-upgradeable/proxy/utils/Initializable.sol\":3444:3448  true */\n      0x01\n        /* \"@openzeppelin/contracts-upgradeable/proxy/utils/Initializable.sol\":3428:3441  _initializing */\n      0x00\n      0x01\n        /* \"@openzeppelin/contracts-upgradeable/proxy/utils/Initializable.sol\":3428:3448  _initializing = true */\n      0x0100\n      exp\n      dup2\n      sload\n      dup2\n      0xff\n      mul\n      not\n      and\n      swap1\n      dup4\n      iszero\n      iszero\n      mul\n      or\n      swap1\n      sstore\n      pop\n        /* \"@openzeppelin/contracts-upgradeable/proxy/utils/Initializable.sol\":3394:3459  if (isTopLevelCall) {... */\n    tag_279:\n        /* \"Heliocontracts/contracts/ceros/HelioProvider.sol\":1738:1754  __Ownable_init() */\n      tag_281\n        /* \"Heliocontracts/contracts/ceros/HelioProvider.sol\":1738:1752  __Ownable_init */\n      tag_282\n        /* \"Heliocontracts/contracts/ceros/HelioProvider.sol\":1738:1754  __Ownable_init() */\n      jump\t// in\n    tag_281:\n        /* \"Heliocontracts/contracts/ceros/HelioProvider.sol\":1764:1781  __Pausable_init() */\n      tag_283\n        /* \"Heliocontracts/contracts/ceros/HelioProvider.sol\":1764:1779  __Pausable_init */\n      tag_284\n        /* \"Heliocontracts/contracts/ceros/HelioProvider.sol\":1764:1781  __Pausable_init() */\n      jump\t// in\n    tag_283:\n        /* \"Heliocontracts/contracts/ceros/HelioProvider.sol\":1791:1815  __ReentrancyGuard_init() */\n      tag_285\n        /* \"Heliocontracts/contracts/ceros/HelioProvider.sol\":1791:1813  __ReentrancyGuard_init */\n      tag_286\n        /* \"Heliocontracts/contracts/ceros/HelioProvider.sol\":1791:1815  __ReentrancyGuard_init() */\n      jump\t// in\n    tag_285:\n        /* \"Heliocontracts/contracts/ceros/HelioProvider.sol\":1837:1847  msg.sender */\n      caller\n        /* \"Heliocontracts/contracts/ceros/HelioProvider.sol\":1825:1834  _operator */\n      0xc9\n      0x00\n        /* \"Heliocontracts/contracts/ceros/HelioProvider.sol\":1825:1847  _operator = msg.sender */\n      0x0100\n      exp\n      dup2\n      sload\n      dup2\n      0xffffffffffffffffffffffffffffffffffffffff\n      mul\n      not\n      and\n      swap1\n      dup4\n      0xffffffffffffffffffffffffffffffffffffffff\n      and\n      mul\n      or\n      swap1\n      sstore\n      pop\n        /* \"Heliocontracts/contracts/ceros/HelioProvider.sol\":1887:1902  collateralToken */\n      dup7\n        /* \"Heliocontracts/contracts/ceros/HelioProvider.sol\":1857:1873  _collateralToken */\n      0xcc\n      0x00\n        /* \"Heliocontracts/contracts/ceros/HelioProvider.sol\":1857:1903  _collateralToken = ICertToken(collateralToken) */\n      0x0100\n      exp\n      dup2\n      sload\n      dup2\n      0xffffffffffffffffffffffffffffffffffffffff\n      mul\n      not\n      and\n      swap1\n      dup4\n      0xffffffffffffffffffffffffffffffffffffffff\n      and\n      mul\n      or\n      swap1\n      sstore\n      pop\n        /* \"Heliocontracts/contracts/ceros/HelioProvider.sol\":1926:1935  certToken */\n      dup6\n        /* \"Heliocontracts/contracts/ceros/HelioProvider.sol\":1913:1923  _certToken */\n      0xca\n      0x00\n        /* \"Heliocontracts/contracts/ceros/HelioProvider.sol\":1913:1935  _certToken = certToken */\n      0x0100\n      exp\n      dup2\n      sload\n      dup2\n      0xffffffffffffffffffffffffffffffffffffffff\n      mul\n      not\n      and\n      swap1\n      dup4\n      0xffffffffffffffffffffffffffffffffffffffff\n      and\n      mul\n      or\n      swap1\n      sstore\n      pop\n        /* \"Heliocontracts/contracts/ceros/HelioProvider.sol\":1956:1963  ceToken */\n      dup5\n        /* \"Heliocontracts/contracts/ceros/HelioProvider.sol\":1945:1953  _ceToken */\n      0xcb\n      0x00\n        /* \"Heliocontracts/contracts/ceros/HelioProvider.sol\":1945:1963  _ceToken = ceToken */\n      0x0100\n      exp\n      dup2\n      sload\n      dup2\n      0xffffffffffffffffffffffffffffffffffffffff\n      mul\n      not\n      and\n      swap1\n      dup4\n      0xffffffffffffffffffffffffffffffffffffffff\n      and\n      mul\n      or\n      swap1\n      sstore\n      pop\n        /* \"Heliocontracts/contracts/ceros/HelioProvider.sol\":1998:2006  ceRouter */\n      dup4\n        /* \"Heliocontracts/contracts/ceros/HelioProvider.sol\":1973:1982  _ceRouter */\n      0xcd\n      0x00\n        /* \"Heliocontracts/contracts/ceros/HelioProvider.sol\":1973:2007  _ceRouter = ICerosRouter(ceRouter) */\n      0x0100\n      exp\n      dup2\n      sload\n      dup2\n      0xffffffffffffffffffffffffffffffffffffffff\n      mul\n      not\n      and\n      swap1\n      dup4\n      0xffffffffffffffffffffffffffffffffffffffff\n      and\n      mul\n      or\n      swap1\n      sstore\n      pop\n        /* \"Heliocontracts/contracts/ceros/HelioProvider.sol\":2029:2039  daoAddress */\n      dup3\n        /* \"Heliocontracts/contracts/ceros/HelioProvider.sol\":2017:2021  _dao */\n      0xce\n      0x00\n        /* \"Heliocontracts/contracts/ceros/HelioProvider.sol\":2017:2040  _dao = IDao(daoAddress) */\n      0x0100\n      exp\n      dup2\n      sload\n      dup2\n      0xffffffffffffffffffffffffffffffffffffffff\n      mul\n      not\n      and\n      swap1\n      dup4\n      0xffffffffffffffffffffffffffffffffffffffff\n      and\n      mul\n      or\n      swap1\n      sstore\n      pop\n        /* \"Heliocontracts/contracts/ceros/HelioProvider.sol\":2071:2075  pool */\n      dup2\n        /* \"Heliocontracts/contracts/ceros/HelioProvider.sol\":2050:2055  _pool */\n      0xcf\n      0x00\n        /* \"Heliocontracts/contracts/ceros/HelioProvider.sol\":2050:2076  _pool = IBinancePool(pool) */\n      0x0100\n      exp\n      dup2\n      sload\n      dup2\n      0xffffffffffffffffffffffffffffffffffffffff\n      mul\n      not\n      and\n      swap1\n      dup4\n      0xffffffffffffffffffffffffffffffffffffffff\n      and\n      mul\n      or\n      swap1\n      sstore\n      pop\n        /* \"Heliocontracts/contracts/ceros/HelioProvider.sol\":2086:2145  IERC20(_ceToken).safeApprove(daoAddress, type(uint256).max) */\n      tag_287\n        /* \"Heliocontracts/contracts/ceros/HelioProvider.sol\":2115:2125  daoAddress */\n      dup4\n        /* \"Heliocontracts/contracts/ceros/HelioProvider.sol\":2127:2144  type(uint256).max */\n      0xffffffffffffffffffffffffffffffffffffffffffffffffffffffffffffffff\n        /* \"Heliocontracts/contracts/ceros/HelioProvider.sol\":2093:2101  _ceToken */\n      0xcb\n      0x00\n      swap1\n      sload\n      swap1\n      0x0100\n      exp\n      swap1\n      div\n      0xffffffffffffffffffffffffffffffffffffffff\n      and\n        /* \"Heliocontracts/contracts/ceros/HelioProvider.sol\":2086:2114  IERC20(_ceToken).safeApprove */\n      0xffffffffffffffffffffffffffffffffffffffff\n      and\n      tag_216\n      swap1\n        /* \"Heliocontracts/contracts/ceros/HelioProvider.sol\":2086:2145  IERC20(_ceToken).safeApprove(daoAddress, type(uint256).max) */\n      swap3\n      swap2\n      swap1\n      0xffffffff\n      and\n      jump\t// in\n    tag_287:\n        /* \"@openzeppelin/contracts-upgradeable/proxy/utils/Initializable.sol\":3483:3497  isTopLevelCall */\n      dup1\n        /* \"@openzeppelin/contracts-upgradeable/proxy/utils/Initializable.sol\":3479:3578  if (isTopLevelCall) {... */\n      iszero\n      tag_288\n      jumpi\n        /* \"@openzeppelin/contracts-upgradeable/proxy/utils/Initializable.sol\":3529:3534  false */\n      0x00\n        /* \"@openzeppelin/contracts-upgradeable/proxy/utils/Initializable.sol\":3513:3526  _initializing */\n      dup1\n      0x01\n        /* \"@openzeppelin/contracts-upgradeable/proxy/utils/Initializable.sol\":3513:3534  _initializing = false */\n      0x0100\n      exp\n      dup2\n      sload\n      dup2\n      0xff\n      mul\n      not\n      and\n      swap1\n      dup4\n      iszero\n      iszero\n      mul\n      or\n      swap1\n      sstore\n      pop\n        /* \"@openzeppelin/contracts-upgradeable/proxy/utils/Initializable.sol\":3553:3567  Initialized(1) */\n      0x7f26b83ff96e1f2b6a682f133852f6798a09c465da95921460cefb3847402498\n        /* \"@openzeppelin/contracts-upgradeable/proxy/utils/Initializable.sol\":3565:3566  1 */\n      0x01\n        /* \"@openzeppelin/contracts-upgradeable/proxy/utils/Initializable.sol\":3553:3567  Initialized(1) */\n      mload(0x40)\n      tag_289\n      swap2\n      swap1\n      tag_290\n      jump\t// in\n    tag_289:\n      mload(0x40)\n      dup1\n      swap2\n      sub\n      swap1\n      log1\n        /* \"@openzeppelin/contracts-upgradeable/proxy/utils/Initializable.sol\":3479:3578  if (isTopLevelCall) {... */\n    tag_288:\n        /* \"@openzeppelin/contracts-upgradeable/proxy/utils/Initializable.sol\":3101:3584  {... */\n      pop\n        /* \"Heliocontracts/contracts/ceros/HelioProvider.sol\":1522:2152  function initialize(... */\n      pop\n      pop\n      pop\n      pop\n      pop\n      pop\n      jump\t// out\n        /* \"Heliocontracts/contracts/ceros/HelioProvider.sol\":1086:1107  address public _proxy */\n    tag_133:\n      0xd0\n      0x00\n      swap1\n      sload\n      swap1\n      0x0100\n      exp\n      swap1\n      div\n      0xffffffffffffffffffffffffffffffffffffffff\n      and\n      dup2\n      jump\t// out\n        /* \"Heliocontracts/contracts/ceros/HelioProvider.sol\":5345:5586  function changeDao(address dao) external onlyOwner {... */\n    tag_138:\n        /* \"@openzeppelin/contracts-upgradeable/access/OwnableUpgradeable.sol\":1334:1347  _checkOwner() */\n      tag_292\n        /* \"@openzeppelin/contracts-upgradeable/access/OwnableUpgradeable.sol\":1334:1345  _checkOwner */\n      tag_185\n        /* \"@openzeppelin/contracts-upgradeable/access/OwnableUpgradeable.sol\":1334:1347  _checkOwner() */\n      jump\t// in\n    tag_292:\n        /* \"Heliocontracts/contracts/ceros/HelioProvider.sol\":5406:5452  IERC20(_ceToken).safeApprove(address(_dao), 0) */\n      tag_294\n        /* \"Heliocontracts/contracts/ceros/HelioProvider.sol\":5443:5447  _dao */\n      0xce\n      0x00\n      swap1\n      sload\n      swap1\n      0x0100\n      exp\n      swap1\n      div\n      0xffffffffffffffffffffffffffffffffffffffff\n      and\n        /* \"Heliocontracts/contracts/ceros/HelioProvider.sol\":5450:5451  0 */\n      0x00\n        /* \"Heliocontracts/contracts/ceros/HelioProvider.sol\":5413:5421  _ceToken */\n      0xcb\n      0x00\n      swap1\n      sload\n      swap1\n      0x0100\n      exp\n      swap1\n      div\n      0xffffffffffffffffffffffffffffffffffffffff\n      and\n        /* \"Heliocontracts/contracts/ceros/HelioProvider.sol\":5406:5434  IERC20(_ceToken).safeApprove */\n      0xffffffffffffffffffffffffffffffffffffffff\n      and\n      tag_216\n      swap1\n        /* \"Heliocontracts/contracts/ceros/HelioProvider.sol\":5406:5452  IERC20(_ceToken).safeApprove(address(_dao), 0) */\n      swap3\n      swap2\n      swap1\n      0xffffffff\n      and\n      jump\t// in\n    tag_294:\n        /* \"Heliocontracts/contracts/ceros/HelioProvider.sol\":5474:5477  dao */\n      dup1\n        /* \"Heliocontracts/contracts/ceros/HelioProvider.sol\":5462:5466  _dao */\n      0xce\n      0x00\n        /* \"Heliocontracts/contracts/ceros/HelioProvider.sol\":5462:5478  _dao = IDao(dao) */\n      0x0100\n      exp\n      dup2\n      sload\n      dup2\n      0xffffffffffffffffffffffffffffffffffffffff\n      mul\n      not\n      and\n      swap1\n      dup4\n      0xffffffffffffffffffffffffffffffffffffffff\n      and\n      mul\n      or\n      swap1\n      sstore\n      pop\n        /* \"Heliocontracts/contracts/ceros/HelioProvider.sol\":5488:5550  IERC20(_ceToken).safeApprove(address(_dao), type(uint256).max) */\n      tag_295\n        /* \"Heliocontracts/contracts/ceros/HelioProvider.sol\":5525:5529  _dao */\n      0xce\n      0x00\n      swap1\n      sload\n      swap1\n      0x0100\n      exp\n      swap1\n      div\n      0xffffffffffffffffffffffffffffffffffffffff\n      and\n        /* \"Heliocontracts/contracts/ceros/HelioProvider.sol\":5532:5549  type(uint256).max */\n      0xffffffffffffffffffffffffffffffffffffffffffffffffffffffffffffffff\n        /* \"Heliocontracts/contracts/ceros/HelioProvider.sol\":5495:5503  _ceToken */\n      0xcb\n      0x00\n      swap1\n      sload\n      swap1\n      0x0100\n      exp\n      swap1\n      div\n      0xffffffffffffffffffffffffffffffffffffffff\n      and\n        /* \"Heliocontracts/contracts/ceros/HelioProvider.sol\":5488:5516  IERC20(_ceToken).safeApprove */\n      0xffffffffffffffffffffffffffffffffffffffff\n      and\n      tag_216\n      swap1\n        /* \"Heliocontracts/contracts/ceros/HelioProvider.sol\":5488:5550  IERC20(_ceToken).safeApprove(address(_dao), type(uint256).max) */\n      swap3\n      swap2\n      swap1\n      0xffffffff\n      and\n      jump\t// in\n    tag_295:\n        /* \"Heliocontracts/contracts/ceros/HelioProvider.sol\":5565:5579  ChangeDao(dao) */\n      0x31a1aa5f369c073ebb0b9d07b962961a2fcaf8ae160e6485f220450f9d7f8c53\n        /* \"Heliocontracts/contracts/ceros/HelioProvider.sol\":5575:5578  dao */\n      dup2\n        /* \"Heliocontracts/contracts/ceros/HelioProvider.sol\":5565:5579  ChangeDao(dao) */\n      mload(0x40)\n      tag_296\n      swap2\n      swap1\n      tag_91\n      jump\t// in\n    tag_296:\n      mload(0x40)\n      dup1\n      swap2\n      sub\n      swap1\n      log1\n        /* \"Heliocontracts/contracts/ceros/HelioProvider.sol\":5345:5586  function changeDao(address dao) external onlyOwner {... */\n      pop\n      jump\t// out\n        /* \"Heliocontracts/contracts/ceros/HelioProvider.sol\":4401:4565  function daoBurn(address account, uint256 value)... */\n    tag_142:\n        /* \"Heliocontracts/contracts/ceros/HelioProvider.sol\":1417:1424  owner() */\n      tag_298\n        /* \"Heliocontracts/contracts/ceros/HelioProvider.sol\":1417:1422  owner */\n      tag_113\n        /* \"Heliocontracts/contracts/ceros/HelioProvider.sol\":1417:1424  owner() */\n      jump\t// in\n    tag_298:\n        /* \"Heliocontracts/contracts/ceros/HelioProvider.sol\":1403:1424  msg.sender == owner() */\n      0xffffffffffffffffffffffffffffffffffffffff\n      and\n        /* \"Heliocontracts/contracts/ceros/HelioProvider.sol\":1403:1413  msg.sender */\n      caller\n        /* \"Heliocontracts/contracts/ceros/HelioProvider.sol\":1403:1424  msg.sender == owner() */\n      0xffffffffffffffffffffffffffffffffffffffff\n      and\n      eq\n        /* \"Heliocontracts/contracts/ceros/HelioProvider.sol\":1403:1448  msg.sender == owner() || msg.sender == _proxy */\n      dup1\n      tag_299\n      jumpi\n      pop\n        /* \"Heliocontracts/contracts/ceros/HelioProvider.sol\":1442:1448  _proxy */\n      0xd0\n      0x00\n      swap1\n      sload\n      swap1\n      0x0100\n      exp\n      swap1\n      div\n      0xffffffffffffffffffffffffffffffffffffffff\n      and\n        /* \"Heliocontracts/contracts/ceros/HelioProvider.sol\":1428:1448  msg.sender == _proxy */\n      0xffffffffffffffffffffffffffffffffffffffff\n      and\n        /* \"Heliocontracts/contracts/ceros/HelioProvider.sol\":1428:1438  msg.sender */\n      caller\n        /* \"Heliocontracts/contracts/ceros/HelioProvider.sol\":1428:1448  msg.sender == _proxy */\n      0xffffffffffffffffffffffffffffffffffffffff\n      and\n      eq\n        /* \"Heliocontracts/contracts/ceros/HelioProvider.sol\":1403:1448  msg.sender == owner() || msg.sender == _proxy */\n    tag_299:\n        /* \"Heliocontracts/contracts/ceros/HelioProvider.sol\":1382:1499  require(... */\n      tag_300\n      jumpi\n      mload(0x40)\n      0x08c379a000000000000000000000000000000000000000000000000000000000\n      dup2\n      mstore\n      0x04\n      add\n      tag_301\n      swap1\n      tag_193\n      jump\t// in\n    tag_301:\n      mload(0x40)\n      dup1\n      swap2\n      sub\n      swap1\n      revert\n    tag_300:\n        /* \"@openzeppelin/contracts-upgradeable/security/ReentrancyGuardUpgradeable.sol\":1815:1816  2 */\n      0x02\n        /* \"@openzeppelin/contracts-upgradeable/security/ReentrancyGuardUpgradeable.sol\":2569:2576  _status */\n      sload(0x97)\n        /* \"@openzeppelin/contracts-upgradeable/security/ReentrancyGuardUpgradeable.sol\":2569:2588  _status != _ENTERED */\n      eq\n      iszero\n        /* \"@openzeppelin/contracts-upgradeable/security/ReentrancyGuardUpgradeable.sol\":2561:2624  require(_status != _ENTERED, \"ReentrancyGuard: reentrant call\") */\n      tag_303\n      jumpi\n      mload(0x40)\n      0x08c379a000000000000000000000000000000000000000000000000000000000\n      dup2\n      mstore\n      0x04\n      add\n      tag_304\n      swap1\n      tag_166\n      jump\t// in\n    tag_304:\n      mload(0x40)\n      dup1\n      swap2\n      sub\n      swap1\n      revert\n    tag_303:\n        /* \"@openzeppelin/contracts-upgradeable/security/ReentrancyGuardUpgradeable.sol\":1815:1816  2 */\n      0x02\n        /* \"@openzeppelin/contracts-upgradeable/security/ReentrancyGuardUpgradeable.sol\":2699:2706  _status */\n      0x97\n        /* \"@openzeppelin/contracts-upgradeable/security/ReentrancyGuardUpgradeable.sol\":2699:2717  _status = _ENTERED */\n      dup2\n      swap1\n      sstore\n      pop\n        /* \"Heliocontracts/contracts/ceros/HelioProvider.sol\":4521:4537  _collateralToken */\n      0xcc\n      0x00\n      swap1\n      sload\n      swap1\n      0x0100\n      exp\n      swap1\n      div\n      0xffffffffffffffffffffffffffffffffffffffff\n      and\n        /* \"Heliocontracts/contracts/ceros/HelioProvider.sol\":4521:4542  _collateralToken.burn */\n      0xffffffffffffffffffffffffffffffffffffffff\n      and\n      0x9dc29fac\n        /* \"Heliocontracts/contracts/ceros/HelioProvider.sol\":4543:4550  account */\n      dup4\n        /* \"Heliocontracts/contracts/ceros/HelioProvider.sol\":4552:4557  value */\n      dup4\n        /* \"Heliocontracts/contracts/ceros/HelioProvider.sol\":4521:4558  _collateralToken.burn(account, value) */\n      mload(0x40)\n      dup4\n      0xffffffff\n      and\n      0xe0\n      shl\n      dup2\n      mstore\n      0x04\n      add\n      tag_306\n      swap3\n      swap2\n      swap1\n      tag_178\n      jump\t// in\n    tag_306:\n      0x00\n      mload(0x40)\n      dup1\n      dup4\n      sub\n      dup2\n      0x00\n      dup8\n      dup1\n      extcodesize\n      iszero\n      dup1\n      iszero\n      tag_307\n      jumpi\n      0x00\n      dup1\n      revert\n    tag_307:\n      pop\n      gas\n      call\n      iszero\n      dup1\n      iszero\n      tag_309\n      jumpi\n      returndatasize\n      0x00\n      dup1\n      returndatacopy\n      revert(0x00, returndatasize)\n    tag_309:\n      pop\n      pop\n      pop\n      pop\n        /* \"@openzeppelin/contracts-upgradeable/security/ReentrancyGuardUpgradeable.sol\":1772:1773  1 */\n      0x01\n        /* \"@openzeppelin/contracts-upgradeable/security/ReentrancyGuardUpgradeable.sol\":2872:2879  _status */\n      0x97\n        /* \"@openzeppelin/contracts-upgradeable/security/ReentrancyGuardUpgradeable.sol\":2872:2894  _status = _NOT_ENTERED */\n      dup2\n      swap1\n      sstore\n      pop\n        /* \"Heliocontracts/contracts/ceros/HelioProvider.sol\":4401:4565  function daoBurn(address account, uint256 value)... */\n      pop\n      pop\n      jump\t// out\n        /* \"Heliocontracts/contracts/ceros/HelioProvider.sol\":1033:1049  IDao public _dao */\n    tag_145:\n      0xce\n      0x00\n      swap1\n      sload\n      swap1\n      0x0100\n      exp\n      swap1\n      div\n      0xffffffffffffffffffffffffffffffffffffffff\n      and\n      dup2\n      jump\t// out\n        /* \"Heliocontracts/contracts/ceros/HelioProvider.sol\":2980:3228  function claimInABNBc(address recipient)... */\n    tag_151:\n        /* \"Heliocontracts/contracts/ceros/HelioProvider.sol\":3094:3108  uint256 yields */\n      0x00\n        /* \"@openzeppelin/contracts-upgradeable/security/ReentrancyGuardUpgradeable.sol\":1815:1816  2 */\n      0x02\n        /* \"@openzeppelin/contracts-upgradeable/security/ReentrancyGuardUpgradeable.sol\":2569:2576  _status */\n      sload(0x97)\n        /* \"@openzeppelin/contracts-upgradeable/security/ReentrancyGuardUpgradeable.sol\":2569:2588  _status != _ENTERED */\n      eq\n      iszero\n        /* \"@openzeppelin/contracts-upgradeable/security/ReentrancyGuardUpgradeable.sol\":2561:2624  require(_status != _ENTERED, \"ReentrancyGuard: reentrant call\") */\n      tag_311\n      jumpi\n      mload(0x40)\n      0x08c379a000000000000000000000000000000000000000000000000000000000\n      dup2\n      mstore\n      0x04\n      add\n      tag_312\n      swap1\n      tag_166\n      jump\t// in\n    tag_312:\n      mload(0x40)\n      dup1\n      swap2\n      sub\n      swap1\n      revert\n    tag_311:\n        /* \"@openzeppelin/contracts-upgradeable/security/ReentrancyGuardUpgradeable.sol\":1815:1816  2 */\n      0x02\n        /* \"@openzeppelin/contracts-upgradeable/security/ReentrancyGuardUpgradeable.sol\":2699:2706  _status */\n      0x97\n        /* \"@openzeppelin/contracts-upgradeable/security/ReentrancyGuardUpgradeable.sol\":2699:2717  _status = _ENTERED */\n      dup2\n      swap1\n      sstore\n      pop\n        /* \"Heliocontracts/contracts/ceros/HelioProvider.sol\":1247:1254  owner() */\n      tag_314\n        /* \"Heliocontracts/contracts/ceros/HelioProvider.sol\":1247:1252  owner */\n      tag_113\n        /* \"Heliocontracts/contracts/ceros/HelioProvider.sol\":1247:1254  owner() */\n      jump\t// in\n    tag_314:\n        /* \"Heliocontracts/contracts/ceros/HelioProvider.sol\":1233:1254  msg.sender == owner() */\n      0xffffffffffffffffffffffffffffffffffffffff\n      and\n        /* \"Heliocontracts/contracts/ceros/HelioProvider.sol\":1233:1243  msg.sender */\n      caller\n        /* \"Heliocontracts/contracts/ceros/HelioProvider.sol\":1233:1254  msg.sender == owner() */\n      0xffffffffffffffffffffffffffffffffffffffff\n      and\n      eq\n        /* \"Heliocontracts/contracts/ceros/HelioProvider.sol\":1233:1281  msg.sender == owner() || msg.sender == _operator */\n      dup1\n      tag_315\n      jumpi\n      pop\n        /* \"Heliocontracts/contracts/ceros/HelioProvider.sol\":1272:1281  _operator */\n      0xc9\n      0x00\n      swap1\n      sload\n      swap1\n      0x0100\n      exp\n      swap1\n      div\n      0xffffffffffffffffffffffffffffffffffffffff\n      and\n        /* \"Heliocontracts/contracts/ceros/HelioProvider.sol\":1258:1281  msg.sender == _operator */\n      0xffffffffffffffffffffffffffffffffffffffff\n      and\n        /* \"Heliocontracts/contracts/ceros/HelioProvider.sol\":1258:1268  msg.sender */\n      caller\n        /* \"Heliocontracts/contracts/ceros/HelioProvider.sol\":1258:1281  msg.sender == _operator */\n      0xffffffffffffffffffffffffffffffffffffffff\n      and\n      eq\n        /* \"Heliocontracts/contracts/ceros/HelioProvider.sol\":1233:1281  msg.sender == owner() || msg.sender == _operator */\n    tag_315:\n        /* \"Heliocontracts/contracts/ceros/HelioProvider.sol\":1212:1328  require(... */\n      tag_316\n      jumpi\n      mload(0x40)\n      0x08c379a000000000000000000000000000000000000000000000000000000000\n      dup2\n      mstore\n      0x04\n      add\n      tag_317\n      swap1\n      tag_318\n      jump\t// in\n    tag_317:\n      mload(0x40)\n      dup1\n      swap2\n      sub\n      swap1\n      revert\n    tag_316:\n        /* \"Heliocontracts/contracts/ceros/HelioProvider.sol\":3133:3142  _ceRouter */\n      0xcd\n      0x00\n      swap1\n      sload\n      swap1\n      0x0100\n      exp\n      swap1\n      div\n      0xffffffffffffffffffffffffffffffffffffffff\n      and\n        /* \"Heliocontracts/contracts/ceros/HelioProvider.sol\":3133:3148  _ceRouter.claim */\n      0xffffffffffffffffffffffffffffffffffffffff\n      and\n      0x1e83409a\n        /* \"Heliocontracts/contracts/ceros/HelioProvider.sol\":3149:3158  recipient */\n      dup4\n        /* \"Heliocontracts/contracts/ceros/HelioProvider.sol\":3133:3159  _ceRouter.claim(recipient) */\n      mload(0x40)\n      dup3\n      0xffffffff\n      and\n      0xe0\n      shl\n      dup2\n      mstore\n      0x04\n      add\n      tag_320\n      swap2\n      swap1\n      tag_91\n      jump\t// in\n    tag_320:\n      0x20\n      mload(0x40)\n      dup1\n      dup4\n      sub\n      dup2\n      0x00\n      dup8\n      gas\n      call\n      iszero\n      dup1\n      iszero\n      tag_322\n      jumpi\n      returndatasize\n      0x00\n      dup1\n      returndatacopy\n      revert(0x00, returndatasize)\n    tag_322:\n      pop\n      pop\n      pop\n      pop\n      mload(0x40)\n      returndatasize\n      not(0x1f)\n      0x1f\n      dup3\n      add\n      and\n      dup3\n      add\n      dup1\n      0x40\n      mstore\n      pop\n      dup2\n      add\n      swap1\n      tag_323\n      swap2\n      swap1\n      tag_171\n      jump\t// in\n    tag_323:\n        /* \"Heliocontracts/contracts/ceros/HelioProvider.sol\":3124:3159  yields = _ceRouter.claim(recipient) */\n      swap1\n      pop\n        /* \"Heliocontracts/contracts/ceros/HelioProvider.sol\":3180:3189  recipient */\n      dup2\n        /* \"Heliocontracts/contracts/ceros/HelioProvider.sol\":3174:3198  Claim(recipient, yields) */\n      0xffffffffffffffffffffffffffffffffffffffff\n      and\n      0x47cee97cb7acd717b3c0aa1435d004cd5b3c8c57d70dbceb4e4458bbd60e39d4\n        /* \"Heliocontracts/contracts/ceros/HelioProvider.sol\":3191:3197  yields */\n      dup3\n        /* \"Heliocontracts/contracts/ceros/HelioProvider.sol\":3174:3198  Claim(recipient, yields) */\n      mload(0x40)\n      tag_324\n      swap2\n      swap1\n      tag_43\n      jump\t// in\n    tag_324:\n      mload(0x40)\n      dup1\n      swap2\n      sub\n      swap1\n      log2\n        /* \"@openzeppelin/contracts-upgradeable/security/ReentrancyGuardUpgradeable.sol\":1772:1773  1 */\n      0x01\n        /* \"@openzeppelin/contracts-upgradeable/security/ReentrancyGuardUpgradeable.sol\":2872:2879  _status */\n      0x97\n        /* \"@openzeppelin/contracts-upgradeable/security/ReentrancyGuardUpgradeable.sol\":2872:2894  _status = _NOT_ENTERED */\n      dup2\n      swap1\n      sstore\n      pop\n        /* \"Heliocontracts/contracts/ceros/HelioProvider.sol\":2980:3228  function claimInABNBc(address recipient)... */\n      swap2\n      swap1\n      pop\n      jump\t// out\n        /* \"@openzeppelin/contracts-upgradeable/access/OwnableUpgradeable.sol\":2321:2519  function transferOwnership(address newOwner) public virtual onlyOwner {... */\n    tag_156:\n        /* \"@openzeppelin/contracts-upgradeable/access/OwnableUpgradeable.sol\":1334:1347  _checkOwner() */\n      tag_326\n        /* \"@openzeppelin/contracts-upgradeable/access/OwnableUpgradeable.sol\":1334:1345  _checkOwner */\n      tag_185\n        /* \"@openzeppelin/contracts-upgradeable/access/OwnableUpgradeable.sol\":1334:1347  _checkOwner() */\n      jump\t// in\n    tag_326:\n        /* \"@openzeppelin/contracts-upgradeable/access/OwnableUpgradeable.sol\":2429:2430  0 */\n      0x00\n        /* \"@openzeppelin/contracts-upgradeable/access/OwnableUpgradeable.sol\":2409:2431  newOwner != address(0) */\n      0xffffffffffffffffffffffffffffffffffffffff\n      and\n        /* \"@openzeppelin/contracts-upgradeable/access/OwnableUpgradeable.sol\":2409:2417  newOwner */\n      dup2\n        /* \"@openzeppelin/contracts-upgradeable/access/OwnableUpgradeable.sol\":2409:2431  newOwner != address(0) */\n      0xffffffffffffffffffffffffffffffffffffffff\n      and\n      eq\n      iszero\n        /* \"@openzeppelin/contracts-upgradeable/access/OwnableUpgradeable.sol\":2401:2474  require(newOwner != address(0), \"Ownable: new owner is the zero address\") */\n      tag_328\n      jumpi\n      mload(0x40)\n      0x08c379a000000000000000000000000000000000000000000000000000000000\n      dup2\n      mstore\n      0x04\n      add\n      tag_329\n      swap1\n      tag_330\n      jump\t// in\n    tag_329:\n      mload(0x40)\n      dup1\n      swap2\n      sub\n      swap1\n      revert\n    tag_328:\n        /* \"@openzeppelin/contracts-upgradeable/access/OwnableUpgradeable.sol\":2484:2512  _transferOwnership(newOwner) */\n      tag_331\n        /* \"@openzeppelin/contracts-upgradeable/access/OwnableUpgradeable.sol\":2503:2511  newOwner */\n      dup2\n        /* \"@openzeppelin/contracts-upgradeable/access/OwnableUpgradeable.sol\":2484:2502  _transferOwnership */\n      tag_237\n        /* \"@openzeppelin/contracts-upgradeable/access/OwnableUpgradeable.sol\":2484:2512  _transferOwnership(newOwner) */\n      jump\t// in\n    tag_331:\n        /* \"@openzeppelin/contracts-upgradeable/access/OwnableUpgradeable.sol\":2321:2519  function transferOwnership(address newOwner) public virtual onlyOwner {... */\n      pop\n      jump\t// out\n        /* \"Heliocontracts/contracts/ceros/HelioProvider.sol\":5229:5294  function unPause() external onlyOwner {... */\n    tag_159:\n        /* \"@openzeppelin/contracts-upgradeable/access/OwnableUpgradeable.sol\":1334:1347  _checkOwner() */\n      tag_333\n        /* \"@openzeppelin/contracts-upgradeable/access/OwnableUpgradeable.sol\":1334:1345  _checkOwner */\n      tag_185\n        /* \"@openzeppelin/contracts-upgradeable/access/OwnableUpgradeable.sol\":1334:1347  _checkOwner() */\n      jump\t// in\n    tag_333:\n        /* \"Heliocontracts/contracts/ceros/HelioProvider.sol\":5277:5287  _unpause() */\n      tag_335\n        /* \"Heliocontracts/contracts/ceros/HelioProvider.sol\":5277:5285  _unpause */\n      tag_336\n        /* \"Heliocontracts/contracts/ceros/HelioProvider.sol\":5277:5287  _unpause() */\n      jump\t// in\n    tag_335:\n        /* \"Heliocontracts/contracts/ceros/HelioProvider.sol\":5229:5294  function unPause() external onlyOwner {... */\n      jump\t// out\n        /* \"@openzeppelin/contracts-upgradeable/security/PausableUpgradeable.sol\":2010:2116  function _requireNotPaused() internal view virtual {... */\n    tag_162:\n        /* \"@openzeppelin/contracts-upgradeable/security/PausableUpgradeable.sol\":2080:2088  paused() */\n      tag_338\n        /* \"@openzeppelin/contracts-upgradeable/security/PausableUpgradeable.sol\":2080:2086  paused */\n      tag_79\n        /* \"@openzeppelin/contracts-upgradeable/security/PausableUpgradeable.sol\":2080:2088  paused() */\n      jump\t// in\n    tag_338:\n        /* \"@openzeppelin/contracts-upgradeable/security/PausableUpgradeable.sol\":2079:2088  !paused() */\n      iszero\n        /* \"@openzeppelin/contracts-upgradeable/security/PausableUpgradeable.sol\":2071:2109  require(!paused(), \"Pausable: paused\") */\n      tag_339\n      jumpi\n      mload(0x40)\n      0x08c379a000000000000000000000000000000000000000000000000000000000\n      dup2\n      mstore\n      0x04\n      add\n      tag_340\n      swap1\n      tag_341\n      jump\t// in\n    tag_340:\n      mload(0x40)\n      dup1\n      swap2\n      sub\n      swap1\n      revert\n    tag_339:\n        /* \"@openzeppelin/contracts-upgradeable/security/PausableUpgradeable.sol\":2010:2116  function _requireNotPaused() internal view virtual {... */\n      jump\t// out\n        /* \"Heliocontracts/contracts/ceros/HelioProvider.sol\":4927:5112  function _withdrawCollateral(address account, uint256 amount) internal {... */\n    tag_176:\n        /* \"Heliocontracts/contracts/ceros/HelioProvider.sol\":5008:5012  _dao */\n      0xce\n      0x00\n      swap1\n      sload\n      swap1\n      0x0100\n      exp\n      swap1\n      div\n      0xffffffffffffffffffffffffffffffffffffffff\n      and\n        /* \"Heliocontracts/contracts/ceros/HelioProvider.sol\":5008:5021  _dao.withdraw */\n      0xffffffffffffffffffffffffffffffffffffffff\n      and\n      0xd9caed12\n        /* \"Heliocontracts/contracts/ceros/HelioProvider.sol\":5022:5029  account */\n      dup4\n        /* \"Heliocontracts/contracts/ceros/HelioProvider.sol\":5039:5047  _ceToken */\n      0xcb\n      0x00\n      swap1\n      sload\n      swap1\n      0x0100\n      exp\n      swap1\n      div\n      0xffffffffffffffffffffffffffffffffffffffff\n      and\n        /* \"Heliocontracts/contracts/ceros/HelioProvider.sol\":5050:5056  amount */\n      dup5\n        /* \"Heliocontracts/contracts/ceros/HelioProvider.sol\":5008:5057  _dao.withdraw(account, address(_ceToken), amount) */\n      mload(0x40)\n      dup5\n      0xffffffff\n      and\n      0xe0\n      shl\n      dup2\n      mstore\n      0x04\n      add\n      tag_343\n      swap4\n      swap3\n      swap2\n      swap1\n      tag_344\n      jump\t// in\n    tag_343:\n      0x20\n      mload(0x40)\n      dup1\n      dup4\n      sub\n      dup2\n      0x00\n      dup8\n      gas\n      call\n      iszero\n      dup1\n      iszero\n      tag_346\n      jumpi\n      returndatasize\n      0x00\n      dup1\n      returndatacopy\n      revert(0x00, returndatasize)\n    tag_346:\n      pop\n      pop\n      pop\n      pop\n      mload(0x40)\n      returndatasize\n      not(0x1f)\n      0x1f\n      dup3\n      add\n      and\n      dup3\n      add\n      dup1\n      0x40\n      mstore\n      pop\n      dup2\n      add\n      swap1\n      tag_347\n      swap2\n      swap1\n      tag_171\n      jump\t// in\n    tag_347:\n      pop\n        /* \"Heliocontracts/contracts/ceros/HelioProvider.sol\":5067:5083  _collateralToken */\n      0xcc\n      0x00\n      swap1\n      sload\n      swap1\n      0x0100\n      exp\n      swap1\n      div\n      0xffffffffffffffffffffffffffffffffffffffff\n      and\n        /* \"Heliocontracts/contracts/ceros/HelioProvider.sol\":5067:5088  _collateralToken.burn */\n      0xffffffffffffffffffffffffffffffffffffffff\n      and\n      0x9dc29fac\n        /* \"Heliocontracts/contracts/ceros/HelioProvider.sol\":5089:5096  account */\n      dup4\n        /* \"Heliocontracts/contracts/ceros/HelioProvider.sol\":5098:5104  amount */\n      dup4\n        /* \"Heliocontracts/contracts/ceros/HelioProvider.sol\":5067:5105  _collateralToken.burn(account, amount) */\n      mload(0x40)\n      dup4\n      0xffffffff\n      and\n      0xe0\n      shl\n      dup2\n      mstore\n      0x04\n      add\n      tag_348\n      swap3\n      swap2\n      swap1\n      tag_178\n      jump\t// in\n    tag_348:\n      0x00\n      mload(0x40)\n      dup1\n      dup4\n      sub\n      dup2\n      0x00\n      dup8\n      dup1\n      extcodesize\n      iszero\n      dup1\n      iszero\n      tag_349\n      jumpi\n      0x00\n      dup1\n      revert\n    tag_349:\n      pop\n      gas\n      call\n      iszero\n      dup1\n      iszero\n      tag_351\n      jumpi\n      returndatasize\n      0x00\n      dup1\n      returndatacopy\n      revert(0x00, returndatasize)\n    tag_351:\n      pop\n      pop\n      pop\n      pop\n        /* \"Heliocontracts/contracts/ceros/HelioProvider.sol\":4927:5112  function _withdrawCollateral(address account, uint256 amount) internal {... */\n      pop\n      pop\n      jump\t// out\n        /* \"@openzeppelin/contracts-upgradeable/access/OwnableUpgradeable.sol\":1599:1729  function _checkOwner() internal view virtual {... */\n    tag_185:\n        /* \"@openzeppelin/contracts-upgradeable/access/OwnableUpgradeable.sol\":1673:1685  _msgSender() */\n      tag_353\n        /* \"@openzeppelin/contracts-upgradeable/access/OwnableUpgradeable.sol\":1673:1683  _msgSender */\n      tag_354\n        /* \"@openzeppelin/contracts-upgradeable/access/OwnableUpgradeable.sol\":1673:1685  _msgSender() */\n      jump\t// in\n    tag_353:\n        /* \"@openzeppelin/contracts-upgradeable/access/OwnableUpgradeable.sol\":1662:1685  owner() == _msgSender() */\n      0xffffffffffffffffffffffffffffffffffffffff\n      and\n        /* \"@openzeppelin/contracts-upgradeable/access/OwnableUpgradeable.sol\":1662:1669  owner() */\n      tag_355\n        /* \"@openzeppelin/contracts-upgradeable/access/OwnableUpgradeable.sol\":1662:1667  owner */\n      tag_113\n        /* \"@openzeppelin/contracts-upgradeable/access/OwnableUpgradeable.sol\":1662:1669  owner() */\n      jump\t// in\n    tag_355:\n        /* \"@openzeppelin/contracts-upgradeable/access/OwnableUpgradeable.sol\":1662:1685  owner() == _msgSender() */\n      0xffffffffffffffffffffffffffffffffffffffff\n      and\n      eq\n        /* \"@openzeppelin/contracts-upgradeable/access/OwnableUpgradeable.sol\":1654:1722  require(owner() == _msgSender(), \"Ownable: caller is not the owner\") */\n      tag_356\n      jumpi\n      mload(0x40)\n      0x08c379a000000000000000000000000000000000000000000000000000000000\n      dup2\n      mstore\n      0x04\n      add\n      tag_357\n      swap1\n      tag_358\n      jump\t// in\n    tag_357:\n      mload(0x40)\n      dup1\n      swap2\n      sub\n      swap1\n      revert\n    tag_356:\n        /* \"@openzeppelin/contracts-upgradeable/access/OwnableUpgradeable.sol\":1599:1729  function _checkOwner() internal view virtual {... */\n      jump\t// out\n        /* \"@openzeppelin/contracts/token/ERC20/utils/SafeERC20.sol\":1475:2078  function safeApprove(... */\n    tag_216:\n        /* \"@openzeppelin/contracts/token/ERC20/utils/SafeERC20.sol\":1839:1840  0 */\n      0x00\n        /* \"@openzeppelin/contracts/token/ERC20/utils/SafeERC20.sol\":1830:1835  value */\n      dup2\n        /* \"@openzeppelin/contracts/token/ERC20/utils/SafeERC20.sol\":1830:1840  value == 0 */\n      eq\n        /* \"@openzeppelin/contracts/token/ERC20/utils/SafeERC20.sol\":1829:1891  (value == 0) || (token.allowance(address(this), spender) == 0) */\n      dup1\n      tag_360\n      jumpi\n      pop\n        /* \"@openzeppelin/contracts/token/ERC20/utils/SafeERC20.sol\":1889:1890  0 */\n      0x00\n        /* \"@openzeppelin/contracts/token/ERC20/utils/SafeERC20.sol\":1846:1851  token */\n      dup4\n        /* \"@openzeppelin/contracts/token/ERC20/utils/SafeERC20.sol\":1846:1861  token.allowance */\n      0xffffffffffffffffffffffffffffffffffffffff\n      and\n      0xdd62ed3e\n        /* \"@openzeppelin/contracts/token/ERC20/utils/SafeERC20.sol\":1870:1874  this */\n      address\n        /* \"@openzeppelin/contracts/token/ERC20/utils/SafeERC20.sol\":1877:1884  spender */\n      dup6\n        /* \"@openzeppelin/contracts/token/ERC20/utils/SafeERC20.sol\":1846:1885  token.allowance(address(this), spender) */\n      mload(0x40)\n      dup4\n      0xffffffff\n      and\n      0xe0\n      shl\n      dup2\n      mstore\n      0x04\n      add\n      tag_361\n      swap3\n      swap2\n      swap1\n      tag_362\n      jump\t// in\n    tag_361:\n      0x20\n      mload(0x40)\n      dup1\n      dup4\n      sub\n      dup2\n      dup7\n      gas\n      staticcall\n      iszero\n      dup1\n      iszero\n      tag_364\n      jumpi\n      returndatasize\n      0x00\n      dup1\n      returndatacopy\n      revert(0x00, returndatasize)\n    tag_364:\n      pop\n      pop\n      pop\n      pop\n      mload(0x40)\n      returndatasize\n      not(0x1f)\n      0x1f\n      dup3\n      add\n      and\n      dup3\n      add\n      dup1\n      0x40\n      mstore\n      pop\n      dup2\n      add\n      swap1\n      tag_365\n      swap2\n      swap1\n      tag_171\n      jump\t// in\n    tag_365:\n        /* \"@openzeppelin/contracts/token/ERC20/utils/SafeERC20.sol\":1846:1890  token.allowance(address(this), spender) == 0 */\n      eq\n        /* \"@openzeppelin/contracts/token/ERC20/utils/SafeERC20.sol\":1829:1891  (value == 0) || (token.allowance(address(this), spender) == 0) */\n    tag_360:\n        /* \"@openzeppelin/contracts/token/ERC20/utils/SafeERC20.sol\":1808:1971  require(... */\n      tag_366\n      jumpi\n      mload(0x40)\n      0x08c379a000000000000000000000000000000000000000000000000000000000\n      dup2\n      mstore\n      0x04\n      add\n      tag_367\n      swap1\n      tag_368\n      jump\t// in\n    tag_367:\n      mload(0x40)\n      dup1\n      swap2\n      sub\n      swap1\n      revert\n    tag_366:\n        /* \"@openzeppelin/contracts/token/ERC20/utils/SafeERC20.sol\":1981:2071  _callOptionalReturn(token, abi.encodeWithSelector(token.approve.selector, spender, value)) */\n      tag_369\n        /* \"@openzeppelin/contracts/token/ERC20/utils/SafeERC20.sol\":2001:2006  token */\n      dup4\n        /* \"@openzeppelin/contracts/token/ERC20/utils/SafeERC20.sol\":2031:2053  token.approve.selector */\n      shl(0xe0, 0x095ea7b3)\n        /* \"@openzeppelin/contracts/token/ERC20/utils/SafeERC20.sol\":2055:2062  spender */\n      dup5\n        /* \"@openzeppelin/contracts/token/ERC20/utils/SafeERC20.sol\":2064:2069  value */\n      dup5\n        /* \"@openzeppelin/contracts/token/ERC20/utils/SafeERC20.sol\":2008:2070  abi.encodeWithSelector(token.approve.selector, spender, value) */\n      add(0x24, mload(0x40))\n      tag_370\n      swap3\n      swap2\n      swap1\n      tag_178\n      jump\t// in\n    tag_370:\n      mload(0x40)\n      0x20\n      dup2\n      dup4\n      sub\n      sub\n      dup2\n      mstore\n      swap1\n      0x40\n      mstore\n      swap1\n      not(0xffffffffffffffffffffffffffffffffffffffffffffffffffffffff)\n      and\n      0x20\n      dup3\n      add\n      dup1\n      mload\n      0xffffffffffffffffffffffffffffffffffffffffffffffffffffffff\n      dup4\n      dup2\n      dup4\n      and\n      or\n      dup4\n      mstore\n      pop\n      pop\n      pop\n      pop\n        /* \"@openzeppelin/contracts/token/ERC20/utils/SafeERC20.sol\":1981:2000  _callOptionalReturn */\n      tag_371\n        /* \"@openzeppelin/contracts/token/ERC20/utils/SafeERC20.sol\":1981:2071  _callOptionalReturn(token, abi.encodeWithSelector(token.approve.selector, spender, value)) */\n      jump\t// in\n    tag_369:\n        /* \"@openzeppelin/contracts/token/ERC20/utils/SafeERC20.sol\":1475:2078  function safeApprove(... */\n      pop\n      pop\n      pop\n      jump\t// out\n        /* \"@openzeppelin/contracts-upgradeable/access/OwnableUpgradeable.sol\":2673:2860  function _transferOwnership(address newOwner) internal virtual {... */\n    tag_237:\n        /* \"@openzeppelin/contracts-upgradeable/access/OwnableUpgradeable.sol\":2746:2762  address oldOwner */\n      0x00\n        /* \"@openzeppelin/contracts-upgradeable/access/OwnableUpgradeable.sol\":2765:2771  _owner */\n      0x33\n      0x00\n      swap1\n      sload\n      swap1\n      0x0100\n      exp\n      swap1\n      div\n      0xffffffffffffffffffffffffffffffffffffffff\n      and\n        /* \"@openzeppelin/contracts-upgradeable/access/OwnableUpgradeable.sol\":2746:2771  address oldOwner = _owner */\n      swap1\n      pop\n        /* \"@openzeppelin/contracts-upgradeable/access/OwnableUpgradeable.sol\":2790:2798  newOwner */\n      dup2\n        /* \"@openzeppelin/contracts-upgradeable/access/OwnableUpgradeable.sol\":2781:2787  _owner */\n      0x33\n      0x00\n        /* \"@openzeppelin/contracts-upgradeable/access/OwnableUpgradeable.sol\":2781:2798  _owner = newOwner */\n      0x0100\n      exp\n      dup2\n      sload\n      dup2\n      0xffffffffffffffffffffffffffffffffffffffff\n      mul\n      not\n      and\n      swap1\n      dup4\n      0xffffffffffffffffffffffffffffffffffffffff\n      and\n      mul\n      or\n      swap1\n      sstore\n      pop\n        /* \"@openzeppelin/contracts-upgradeable/access/OwnableUpgradeable.sol\":2844:2852  newOwner */\n      dup2\n        /* \"@openzeppelin/contracts-upgradeable/access/OwnableUpgradeable.sol\":2813:2853  OwnershipTransferred(oldOwner, newOwner) */\n      0xffffffffffffffffffffffffffffffffffffffff\n      and\n        /* \"@openzeppelin/contracts-upgradeable/access/OwnableUpgradeable.sol\":2834:2842  oldOwner */\n      dup2\n        /* \"@openzeppelin/contracts-upgradeable/access/OwnableUpgradeable.sol\":2813:2853  OwnershipTransferred(oldOwner, newOwner) */\n      0xffffffffffffffffffffffffffffffffffffffff\n      and\n      0x8be0079c531659141344cd1fd0a4f28419497f9722a3daafe3b4186f6b6457e0\n      mload(0x40)\n      mload(0x40)\n      dup1\n      swap2\n      sub\n      swap1\n      log3\n        /* \"@openzeppelin/contracts-upgradeable/access/OwnableUpgradeable.sol\":2736:2860  {... */\n      pop\n        /* \"@openzeppelin/contracts-upgradeable/access/OwnableUpgradeable.sol\":2673:2860  function _transferOwnership(address newOwner) internal virtual {... */\n      pop\n      jump\t// out\n        /* \"@openzeppelin/contracts-upgradeable/security/PausableUpgradeable.sol\":2429:2544  function _pause() internal virtual whenNotPaused {... */\n    tag_252:\n        /* \"@openzeppelin/contracts-upgradeable/security/PausableUpgradeable.sol\":1482:1501  _requireNotPaused() */\n      tag_374\n        /* \"@openzeppelin/contracts-upgradeable/security/PausableUpgradeable.sol\":1482:1499  _requireNotPaused */\n      tag_162\n        /* \"@openzeppelin/contracts-upgradeable/security/PausableUpgradeable.sol\":1482:1501  _requireNotPaused() */\n      jump\t// in\n    tag_374:\n        /* \"@openzeppelin/contracts-upgradeable/security/PausableUpgradeable.sol\":2498:2502  true */\n      0x01\n        /* \"@openzeppelin/contracts-upgradeable/security/PausableUpgradeable.sol\":2488:2495  _paused */\n      0x65\n      0x00\n        /* \"@openzeppelin/contracts-upgradeable/security/PausableUpgradeable.sol\":2488:2502  _paused = true */\n      0x0100\n      exp\n      dup2\n      sload\n      dup2\n      0xff\n      mul\n      not\n      and\n      swap1\n      dup4\n      iszero\n      iszero\n      mul\n      or\n      swap1\n      sstore\n      pop\n        /* \"@openzeppelin/contracts-upgradeable/security/PausableUpgradeable.sol\":2517:2537  Paused(_msgSender()) */\n      0x62e78cea01bee320cd4e420270b5ea74000d11b0c9f74754ebdbfc544b05a258\n        /* \"@openzeppelin/contracts-upgradeable/security/PausableUpgradeable.sol\":2524:2536  _msgSender() */\n      tag_376\n        /* \"@openzeppelin/contracts-upgradeable/security/PausableUpgradeable.sol\":2524:2534  _msgSender */\n      tag_354\n        /* \"@openzeppelin/contracts-upgradeable/security/PausableUpgradeable.sol\":2524:2536  _msgSender() */\n      jump\t// in\n    tag_376:\n        /* \"@openzeppelin/contracts-upgradeable/security/PausableUpgradeable.sol\":2517:2537  Paused(_msgSender()) */\n      mload(0x40)\n      tag_377\n      swap2\n      swap1\n      tag_91\n      jump\t// in\n    tag_377:\n      mload(0x40)\n      dup1\n      swap2\n      sub\n      swap1\n      log1\n        /* \"@openzeppelin/contracts-upgradeable/security/PausableUpgradeable.sol\":2429:2544  function _pause() internal virtual whenNotPaused {... */\n      jump\t// out\n        /* \"Heliocontracts/contracts/ceros/HelioProvider.sol\":4739:4922  function _provideCollateral(address account, uint256 amount) internal {... */\n    tag_264:\n        /* \"Heliocontracts/contracts/ceros/HelioProvider.sol\":4819:4823  _dao */\n      0xce\n      0x00\n      swap1\n      sload\n      swap1\n      0x0100\n      exp\n      swap1\n      div\n      0xffffffffffffffffffffffffffffffffffffffff\n      and\n        /* \"Heliocontracts/contracts/ceros/HelioProvider.sol\":4819:4831  _dao.deposit */\n      0xffffffffffffffffffffffffffffffffffffffff\n      and\n      0x8340f549\n        /* \"Heliocontracts/contracts/ceros/HelioProvider.sol\":4832:4839  account */\n      dup4\n        /* \"Heliocontracts/contracts/ceros/HelioProvider.sol\":4849:4857  _ceToken */\n      0xcb\n      0x00\n      swap1\n      sload\n      swap1\n      0x0100\n      exp\n      swap1\n      div\n      0xffffffffffffffffffffffffffffffffffffffff\n      and\n        /* \"Heliocontracts/contracts/ceros/HelioProvider.sol\":4860:4866  amount */\n      dup5\n        /* \"Heliocontracts/contracts/ceros/HelioProvider.sol\":4819:4867  _dao.deposit(account, address(_ceToken), amount) */\n      mload(0x40)\n      dup5\n      0xffffffff\n      and\n      0xe0\n      shl\n      dup2\n      mstore\n      0x04\n      add\n      tag_379\n      swap4\n      swap3\n      swap2\n      swap1\n      tag_344\n      jump\t// in\n    tag_379:\n      0x20\n      mload(0x40)\n      dup1\n      dup4\n      sub\n      dup2\n      0x00\n      dup8\n      gas\n      call\n      iszero\n      dup1\n      iszero\n      tag_381\n      jumpi\n      returndatasize\n      0x00\n      dup1\n      returndatacopy\n      revert(0x00, returndatasize)\n    tag_381:\n      pop\n      pop\n      pop\n      pop\n      mload(0x40)\n      returndatasize\n      not(0x1f)\n      0x1f\n      dup3\n      add\n      and\n      dup3\n      add\n      dup1\n      0x40\n      mstore\n      pop\n      dup2\n      add\n      swap1\n      tag_382\n      swap2\n      swap1\n      tag_171\n      jump\t// in\n    tag_382:\n      pop\n        /* \"Heliocontracts/contracts/ceros/HelioProvider.sol\":4877:4893  _collateralToken */\n      0xcc\n      0x00\n      swap1\n      sload\n      swap1\n      0x0100\n      exp\n      swap1\n      div\n      0xffffffffffffffffffffffffffffffffffffffff\n      and\n        /* \"Heliocontracts/contracts/ceros/HelioProvider.sol\":4877:4898  _collateralToken.mint */\n      0xffffffffffffffffffffffffffffffffffffffff\n      and\n      0x40c10f19\n        /* \"Heliocontracts/contracts/ceros/HelioProvider.sol\":4899:4906  account */\n      dup4\n        /* \"Heliocontracts/contracts/ceros/HelioProvider.sol\":4908:4914  amount */\n      dup4\n        /* \"Heliocontracts/contracts/ceros/HelioProvider.sol\":4877:4915  _collateralToken.mint(account, amount) */\n      mload(0x40)\n      dup4\n      0xffffffff\n      and\n      0xe0\n      shl\n      dup2\n      mstore\n      0x04\n      add\n      tag_383\n      swap3\n      swap2\n      swap1\n      tag_178\n      jump\t// in\n    tag_383:\n      0x00\n      mload(0x40)\n      dup1\n      dup4\n      sub\n      dup2\n      0x00\n      dup8\n      dup1\n      extcodesize\n      iszero\n      dup1\n      iszero\n      tag_384\n      jumpi\n      0x00\n      dup1\n      revert\n    tag_384:\n      pop\n      gas\n      call\n      iszero\n      dup1\n      iszero\n      tag_386\n      jumpi\n      returndatasize\n      0x00\n      dup1\n      returndatacopy\n      revert(0x00, returndatasize)\n    tag_386:\n      pop\n      pop\n      pop\n      pop\n        /* \"Heliocontracts/contracts/ceros/HelioProvider.sol\":4739:4922  function _provideCollateral(address account, uint256 amount) internal {... */\n      pop\n      pop\n      jump\t// out\n        /* \"@openzeppelin/contracts-upgradeable/utils/AddressUpgradeable.sol\":1186:1506  function isContract(address account) internal view returns (bool) {... */\n    tag_274:\n        /* \"@openzeppelin/contracts-upgradeable/utils/AddressUpgradeable.sol\":1246:1250  bool */\n      0x00\n        /* \"@openzeppelin/contracts-upgradeable/utils/AddressUpgradeable.sol\":1498:1499  0 */\n      dup1\n        /* \"@openzeppelin/contracts-upgradeable/utils/AddressUpgradeable.sol\":1476:1483  account */\n      dup3\n        /* \"@openzeppelin/contracts-upgradeable/utils/AddressUpgradeable.sol\":1476:1495  account.code.length */\n      0xffffffffffffffffffffffffffffffffffffffff\n      and\n      extcodesize\n        /* \"@openzeppelin/contracts-upgradeable/utils/AddressUpgradeable.sol\":1476:1499  account.code.length > 0 */\n      gt\n        /* \"@openzeppelin/contracts-upgradeable/utils/AddressUpgradeable.sol\":1469:1499  return account.code.length > 0 */\n      swap1\n      pop\n        /* \"@openzeppelin/contracts-upgradeable/utils/AddressUpgradeable.sol\":1186:1506  function isContract(address account) internal view returns (bool) {... */\n      swap2\n      swap1\n      pop\n      jump\t// out\n        /* \"@openzeppelin/contracts-upgradeable/access/OwnableUpgradeable.sol\":1003:1098  function __Ownable_init() internal onlyInitializing {... */\n    tag_282:\n        /* \"@openzeppelin/contracts-upgradeable/proxy/utils/Initializable.sol\":4910:4923  _initializing */\n      0x00\n      0x01\n      swap1\n      sload\n      swap1\n      0x0100\n      exp\n      swap1\n      div\n      0xff\n      and\n        /* \"@openzeppelin/contracts-upgradeable/proxy/utils/Initializable.sol\":4902:4971  require(_initializing, \"Initializable: contract is not initializing\") */\n      tag_389\n      jumpi\n      mload(0x40)\n      0x08c379a000000000000000000000000000000000000000000000000000000000\n      dup2\n      mstore\n      0x04\n      add\n      tag_390\n      swap1\n      tag_391\n      jump\t// in\n    tag_390:\n      mload(0x40)\n      dup1\n      swap2\n      sub\n      swap1\n      revert\n    tag_389:\n        /* \"@openzeppelin/contracts-upgradeable/access/OwnableUpgradeable.sol\":1065:1091  __Ownable_init_unchained() */\n      tag_393\n        /* \"@openzeppelin/contracts-upgradeable/access/OwnableUpgradeable.sol\":1065:1089  __Ownable_init_unchained */\n      tag_394\n        /* \"@openzeppelin/contracts-upgradeable/access/OwnableUpgradeable.sol\":1065:1091  __Ownable_init_unchained() */\n      jump\t// in\n    tag_393:\n        /* \"@openzeppelin/contracts-upgradeable/access/OwnableUpgradeable.sol\":1003:1098  function __Ownable_init() internal onlyInitializing {... */\n      jump\t// out\n        /* \"@openzeppelin/contracts-upgradeable/security/PausableUpgradeable.sol\":1063:1160  function __Pausable_init() internal onlyInitializing {... */\n    tag_284:\n        /* \"@openzeppelin/contracts-upgradeable/proxy/utils/Initializable.sol\":4910:4923  _initializing */\n      0x00\n      0x01\n      swap1\n      sload\n      swap1\n      0x0100\n      exp\n      swap1\n      div\n      0xff\n      and\n        /* \"@openzeppelin/contracts-upgradeable/proxy/utils/Initializable.sol\":4902:4971  require(_initializing, \"Initializable: contract is not initializing\") */\n      tag_396\n      jumpi\n      mload(0x40)\n      0x08c379a000000000000000000000000000000000000000000000000000000000\n      dup2\n      mstore\n      0x04\n      add\n      tag_397\n      swap1\n      tag_391\n      jump\t// in\n    tag_397:\n      mload(0x40)\n      dup1\n      swap2\n      sub\n      swap1\n      revert\n    tag_396:\n        /* \"@openzeppelin/contracts-upgradeable/security/PausableUpgradeable.sol\":1126:1153  __Pausable_init_unchained() */\n      tag_399\n        /* \"@openzeppelin/contracts-upgradeable/security/PausableUpgradeable.sol\":1126:1151  __Pausable_init_unchained */\n      tag_400\n        /* \"@openzeppelin/contracts-upgradeable/security/PausableUpgradeable.sol\":1126:1153  __Pausable_init_unchained() */\n      jump\t// in\n    tag_399:\n        /* \"@openzeppelin/contracts-upgradeable/security/PausableUpgradeable.sol\":1063:1160  function __Pausable_init() internal onlyInitializing {... */\n      jump\t// out\n        /* \"@openzeppelin/contracts-upgradeable/security/ReentrancyGuardUpgradeable.sol\":1853:1964  function __ReentrancyGuard_init() internal onlyInitializing {... */\n    tag_286:\n        /* \"@openzeppelin/contracts-upgradeable/proxy/utils/Initializable.sol\":4910:4923  _initializing */\n      0x00\n      0x01\n      swap1\n      sload\n      swap1\n      0x0100\n      exp\n      swap1\n      div\n      0xff\n      and\n        /* \"@openzeppelin/contracts-upgradeable/proxy/utils/Initializable.sol\":4902:4971  require(_initializing, \"Initializable: contract is not initializing\") */\n      tag_402\n      jumpi\n      mload(0x40)\n      0x08c379a000000000000000000000000000000000000000000000000000000000\n      dup2\n      mstore\n      0x04\n      add\n      tag_403\n      swap1\n      tag_391\n      jump\t// in\n    tag_403:\n      mload(0x40)\n      dup1\n      swap2\n      sub\n      swap1\n      revert\n    tag_402:\n        /* \"@openzeppelin/contracts-upgradeable/security/ReentrancyGuardUpgradeable.sol\":1923:1957  __ReentrancyGuard_init_unchained() */\n      tag_405\n        /* \"@openzeppelin/contracts-upgradeable/security/ReentrancyGuardUpgradeable.sol\":1923:1955  __ReentrancyGuard_init_unchained */\n      tag_406\n        /* \"@openzeppelin/contracts-upgradeable/security/ReentrancyGuardUpgradeable.sol\":1923:1957  __ReentrancyGuard_init_unchained() */\n      jump\t// in\n    tag_405:\n        /* \"@openzeppelin/contracts-upgradeable/security/ReentrancyGuardUpgradeable.sol\":1853:1964  function __ReentrancyGuard_init() internal onlyInitializing {... */\n      jump\t// out\n        /* \"@openzeppelin/contracts-upgradeable/security/PausableUpgradeable.sol\":2676:2793  function _unpause() internal virtual whenPaused {... */\n    tag_336:\n        /* \"@openzeppelin/contracts-upgradeable/security/PausableUpgradeable.sol\":1729:1745  _requirePaused() */\n      tag_408\n        /* \"@openzeppelin/contracts-upgradeable/security/PausableUpgradeable.sol\":1729:1743  _requirePaused */\n      tag_409\n        /* \"@openzeppelin/contracts-upgradeable/security/PausableUpgradeable.sol\":1729:1745  _requirePaused() */\n      jump\t// in\n    tag_408:\n        /* \"@openzeppelin/contracts-upgradeable/security/PausableUpgradeable.sol\":2744:2749  false */\n      0x00\n        /* \"@openzeppelin/contracts-upgradeable/security/PausableUpgradeable.sol\":2734:2741  _paused */\n      0x65\n      0x00\n        /* \"@openzeppelin/contracts-upgradeable/security/PausableUpgradeable.sol\":2734:2749  _paused = false */\n      0x0100\n      exp\n      dup2\n      sload\n      dup2\n      0xff\n      mul\n      not\n      and\n      swap1\n      dup4\n      iszero\n      iszero\n      mul\n      or\n      swap1\n      sstore\n      pop\n        /* \"@openzeppelin/contracts-upgradeable/security/PausableUpgradeable.sol\":2764:2786  Unpaused(_msgSender()) */\n      0x5db9ee0a495bf2e6ff9c91a7834c1ba4fdd244a5e8aa4e537bd38aeae4b073aa\n        /* \"@openzeppelin/contracts-upgradeable/security/PausableUpgradeable.sol\":2773:2785  _msgSender() */\n      tag_411\n        /* \"@openzeppelin/contracts-upgradeable/security/PausableUpgradeable.sol\":2773:2783  _msgSender */\n      tag_354\n        /* \"@openzeppelin/contracts-upgradeable/security/PausableUpgradeable.sol\":2773:2785  _msgSender() */\n      jump\t// in\n    tag_411:\n        /* \"@openzeppelin/contracts-upgradeable/security/PausableUpgradeable.sol\":2764:2786  Unpaused(_msgSender()) */\n      mload(0x40)\n      tag_412\n      swap2\n      swap1\n      tag_91\n      jump\t// in\n    tag_412:\n      mload(0x40)\n      dup1\n      swap2\n      sub\n      swap1\n      log1\n        /* \"@openzeppelin/contracts-upgradeable/security/PausableUpgradeable.sol\":2676:2793  function _unpause() internal virtual whenPaused {... */\n      jump\t// out\n        /* \"@openzeppelin/contracts-upgradeable/utils/ContextUpgradeable.sol\":850:946  function _msgSender() internal view virtual returns (address) {... */\n    tag_354:\n        /* \"@openzeppelin/contracts-upgradeable/utils/ContextUpgradeable.sol\":903:910  address */\n      0x00\n        /* \"@openzeppelin/contracts-upgradeable/utils/ContextUpgradeable.sol\":929:939  msg.sender */\n      caller\n        /* \"@openzeppelin/contracts-upgradeable/utils/ContextUpgradeable.sol\":922:939  return msg.sender */\n      swap1\n      pop\n        /* \"@openzeppelin/contracts-upgradeable/utils/ContextUpgradeable.sol\":850:946  function _msgSender() internal view virtual returns (address) {... */\n      swap1\n      jump\t// out\n        /* \"@openzeppelin/contracts/token/ERC20/utils/SafeERC20.sol\":3747:4453  function _callOptionalReturn(IERC20 token, bytes memory data) private {... */\n    tag_371:\n        /* \"@openzeppelin/contracts/token/ERC20/utils/SafeERC20.sol\":4166:4189  bytes memory returndata */\n      0x00\n        /* \"@openzeppelin/contracts/token/ERC20/utils/SafeERC20.sol\":4192:4261  address(token).functionCall(data, \"SafeERC20: low-level call failed\") */\n      tag_415\n        /* \"@openzeppelin/contracts/token/ERC20/utils/SafeERC20.sol\":4220:4224  data */\n      dup3\n        /* \"@openzeppelin/contracts/token/ERC20/utils/SafeERC20.sol\":4192:4261  address(token).functionCall(data, \"SafeERC20: low-level call failed\") */\n      mload(0x40)\n      dup1\n      0x40\n      add\n      0x40\n      mstore\n      dup1\n      0x20\n      dup2\n      mstore\n      0x20\n      add\n      0x5361666545524332303a206c6f772d6c6576656c2063616c6c206661696c6564\n      dup2\n      mstore\n      pop\n        /* \"@openzeppelin/contracts/token/ERC20/utils/SafeERC20.sol\":4200:4205  token */\n      dup6\n        /* \"@openzeppelin/contracts/token/ERC20/utils/SafeERC20.sol\":4192:4219  address(token).functionCall */\n      0xffffffffffffffffffffffffffffffffffffffff\n      and\n      tag_416\n      swap1\n        /* \"@openzeppelin/contracts/token/ERC20/utils/SafeERC20.sol\":4192:4261  address(token).functionCall(data, \"SafeERC20: low-level call failed\") */\n      swap3\n      swap2\n      swap1\n      0xffffffff\n      and\n      jump\t// in\n    tag_415:\n        /* \"@openzeppelin/contracts/token/ERC20/utils/SafeERC20.sol\":4166:4261  bytes memory returndata = address(token).functionCall(data, \"SafeERC20: low-level call failed\") */\n      swap1\n      pop\n        /* \"@openzeppelin/contracts/token/ERC20/utils/SafeERC20.sol\":4295:4296  0 */\n      0x00\n        /* \"@openzeppelin/contracts/token/ERC20/utils/SafeERC20.sol\":4275:4285  returndata */\n      dup2\n        /* \"@openzeppelin/contracts/token/ERC20/utils/SafeERC20.sol\":4275:4292  returndata.length */\n      mload\n        /* \"@openzeppelin/contracts/token/ERC20/utils/SafeERC20.sol\":4275:4296  returndata.length > 0 */\n      gt\n        /* \"@openzeppelin/contracts/token/ERC20/utils/SafeERC20.sol\":4271:4447  if (returndata.length > 0) {... */\n      iszero\n      tag_417\n      jumpi\n        /* \"@openzeppelin/contracts/token/ERC20/utils/SafeERC20.sol\":4370:4380  returndata */\n      dup1\n        /* \"@openzeppelin/contracts/token/ERC20/utils/SafeERC20.sol\":4359:4389  abi.decode(returndata, (bool)) */\n      dup1\n      0x20\n      add\n      swap1\n      mload\n      dup2\n      add\n      swap1\n      tag_418\n      swap2\n      swap1\n      tag_419\n      jump\t// in\n    tag_418:\n        /* \"@openzeppelin/contracts/token/ERC20/utils/SafeERC20.sol\":4351:4436  require(abi.decode(returndata, (bool)), \"SafeERC20: ERC20 operation did not succeed\") */\n      tag_420\n      jumpi\n      mload(0x40)\n      0x08c379a000000000000000000000000000000000000000000000000000000000\n      dup2\n      mstore\n      0x04\n      add\n      tag_421\n      swap1\n      tag_422\n      jump\t// in\n    tag_421:\n      mload(0x40)\n      dup1\n      swap2\n      sub\n      swap1\n      revert\n    tag_420:\n        /* \"@openzeppelin/contracts/token/ERC20/utils/SafeERC20.sol\":4271:4447  if (returndata.length > 0) {... */\n    tag_417:\n        /* \"@openzeppelin/contracts/token/ERC20/utils/SafeERC20.sol\":3817:4453  {... */\n      pop\n        /* \"@openzeppelin/contracts/token/ERC20/utils/SafeERC20.sol\":3747:4453  function _callOptionalReturn(IERC20 token, bytes memory data) private {... */\n      pop\n      pop\n      jump\t// out\n        /* \"@openzeppelin/contracts-upgradeable/access/OwnableUpgradeable.sol\":1104:1215  function __Ownable_init_unchained() internal onlyInitializing {... */\n    tag_394:\n        /* \"@openzeppelin/contracts-upgradeable/proxy/utils/Initializable.sol\":4910:4923  _initializing */\n      0x00\n      0x01\n      swap1\n      sload\n      swap1\n      0x0100\n      exp\n      swap1\n      div\n      0xff\n      and\n        /* \"@openzeppelin/contracts-upgradeable/proxy/utils/Initializable.sol\":4902:4971  require(_initializing, \"Initializable: contract is not initializing\") */\n      tag_424\n      jumpi\n      mload(0x40)\n      0x08c379a000000000000000000000000000000000000000000000000000000000\n      dup2\n      mstore\n      0x04\n      add\n      tag_425\n      swap1\n      tag_391\n      jump\t// in\n    tag_425:\n      mload(0x40)\n      dup1\n      swap2\n      sub\n      swap1\n      revert\n    tag_424:\n        /* \"@openzeppelin/contracts-upgradeable/access/OwnableUpgradeable.sol\":1176:1208  _transferOwnership(_msgSender()) */\n      tag_427\n        /* \"@openzeppelin/contracts-upgradeable/access/OwnableUpgradeable.sol\":1195:1207  _msgSender() */\n      tag_428\n        /* \"@openzeppelin/contracts-upgradeable/access/OwnableUpgradeable.sol\":1195:1205  _msgSender */\n      tag_354\n        /* \"@openzeppelin/contracts-upgradeable/access/OwnableUpgradeable.sol\":1195:1207  _msgSender() */\n      jump\t// in\n    tag_428:\n        /* \"@openzeppelin/contracts-upgradeable/access/OwnableUpgradeable.sol\":1176:1194  _transferOwnership */\n      tag_237\n        /* \"@openzeppelin/contracts-upgradeable/access/OwnableUpgradeable.sol\":1176:1208  _transferOwnership(_msgSender()) */\n      jump\t// in\n    tag_427:\n        /* \"@openzeppelin/contracts-upgradeable/access/OwnableUpgradeable.sol\":1104:1215  function __Ownable_init_unchained() internal onlyInitializing {... */\n      jump\t// out\n        /* \"@openzeppelin/contracts-upgradeable/security/PausableUpgradeable.sol\":1166:1261  function __Pausable_init_unchained() internal onlyInitializing {... */\n    tag_400:\n        /* \"@openzeppelin/contracts-upgradeable/proxy/utils/Initializable.sol\":4910:4923  _initializing */\n      0x00\n      0x01\n      swap1\n      sload\n      swap1\n      0x0100\n      exp\n      swap1\n      div\n      0xff\n      and\n        /* \"@openzeppelin/contracts-upgradeable/proxy/utils/Initializable.sol\":4902:4971  require(_initializing, \"Initializable: contract is not initializing\") */\n      tag_430\n      jumpi\n      mload(0x40)\n      0x08c379a000000000000000000000000000000000000000000000000000000000\n      dup2\n      mstore\n      0x04\n      add\n      tag_431\n      swap1\n      tag_391\n      jump\t// in\n    tag_431:\n      mload(0x40)\n      dup1\n      swap2\n      sub\n      swap1\n      revert\n    tag_430:\n        /* \"@openzeppelin/contracts-upgradeable/security/PausableUpgradeable.sol\":1249:1254  false */\n      0x00\n        /* \"@openzeppelin/contracts-upgradeable/security/PausableUpgradeable.sol\":1239:1246  _paused */\n      0x65\n      0x00\n        /* \"@openzeppelin/contracts-upgradeable/security/PausableUpgradeable.sol\":1239:1254  _paused = false */\n      0x0100\n      exp\n      dup2\n      sload\n      dup2\n      0xff\n      mul\n      not\n      and\n      swap1\n      dup4\n      iszero\n      iszero\n      mul\n      or\n      swap1\n      sstore\n      pop\n        /* \"@openzeppelin/contracts-upgradeable/security/PausableUpgradeable.sol\":1166:1261  function __Pausable_init_unchained() internal onlyInitializing {... */\n      jump\t// out\n        /* \"@openzeppelin/contracts-upgradeable/security/ReentrancyGuardUpgradeable.sol\":1970:2079  function __ReentrancyGuard_init_unchained() internal onlyInitializing {... */\n    tag_406:\n        /* \"@openzeppelin/contracts-upgradeable/proxy/utils/Initializable.sol\":4910:4923  _initializing */\n      0x00\n      0x01\n      swap1\n      sload\n      swap1\n      0x0100\n      exp\n      swap1\n      div\n      0xff\n      and\n        /* \"@openzeppelin/contracts-upgradeable/proxy/utils/Initializable.sol\":4902:4971  require(_initializing, \"Initializable: contract is not initializing\") */\n      tag_434\n      jumpi\n      mload(0x40)\n      0x08c379a000000000000000000000000000000000000000000000000000000000\n      dup2\n      mstore\n      0x04\n      add\n      tag_435\n      swap1\n      tag_391\n      jump\t// in\n    tag_435:\n      mload(0x40)\n      dup1\n      swap2\n      sub\n      swap1\n      revert\n    tag_434:\n        /* \"@openzeppelin/contracts-upgradeable/security/ReentrancyGuardUpgradeable.sol\":1772:1773  1 */\n      0x01\n        /* \"@openzeppelin/contracts-upgradeable/security/ReentrancyGuardUpgradeable.sol\":2050:2057  _status */\n      0x97\n        /* \"@openzeppelin/contracts-upgradeable/security/ReentrancyGuardUpgradeable.sol\":2050:2072  _status = _NOT_ENTERED */\n      dup2\n      swap1\n      sstore\n      pop\n        /* \"@openzeppelin/contracts-upgradeable/security/ReentrancyGuardUpgradeable.sol\":1970:2079  function __ReentrancyGuard_init_unchained() internal onlyInitializing {... */\n      jump\t// out\n        /* \"@openzeppelin/contracts-upgradeable/security/PausableUpgradeable.sol\":2188:2294  function _requirePaused() internal view virtual {... */\n    tag_409:\n        /* \"@openzeppelin/contracts-upgradeable/security/PausableUpgradeable.sol\":2254:2262  paused() */\n      tag_438\n        /* \"@openzeppelin/contracts-upgradeable/security/PausableUpgradeable.sol\":2254:2260  paused */\n      tag_79\n        /* \"@openzeppelin/contracts-upgradeable/security/PausableUpgradeable.sol\":2254:2262  paused() */\n      jump\t// in\n    tag_438:\n        /* \"@openzeppelin/contracts-upgradeable/security/PausableUpgradeable.sol\":2246:2287  require(paused(), \"Pausable: not paused\") */\n      tag_439\n      jumpi\n      mload(0x40)\n      0x08c379a000000000000000000000000000000000000000000000000000000000\n      dup2\n      mstore\n      0x04\n      add\n      tag_440\n      swap1\n      tag_441\n      jump\t// in\n    tag_440:\n      mload(0x40)\n      dup1\n      swap2\n      sub\n      swap1\n      revert\n    tag_439:\n        /* \"@openzeppelin/contracts-upgradeable/security/PausableUpgradeable.sol\":2188:2294  function _requirePaused() internal view virtual {... */\n      jump\t// out\n        /* \"@openzeppelin/contracts/utils/Address.sol\":3873:4096  function functionCall(... */\n    tag_416:\n        /* \"@openzeppelin/contracts/utils/Address.sol\":4006:4018  bytes memory */\n      0x60\n        /* \"@openzeppelin/contracts/utils/Address.sol\":4037:4089  functionCallWithValue(target, data, 0, errorMessage) */\n      tag_443\n        /* \"@openzeppelin/contracts/utils/Address.sol\":4059:4065  target */\n      dup5\n        /* \"@openzeppelin/contracts/utils/Address.sol\":4067:4071  data */\n      dup5\n        /* \"@openzeppelin/contracts/utils/Address.sol\":4073:4074  0 */\n      0x00\n        /* \"@openzeppelin/contracts/utils/Address.sol\":4076:4088  errorMessage */\n      dup6\n        /* \"@openzeppelin/contracts/utils/Address.sol\":4037:4058  functionCallWithValue */\n      tag_444\n        /* \"@openzeppelin/contracts/utils/Address.sol\":4037:4089  functionCallWithValue(target, data, 0, errorMessage) */\n      jump\t// in\n    tag_443:\n        /* \"@openzeppelin/contracts/utils/Address.sol\":4030:4089  return functionCallWithValue(target, data, 0, errorMessage) */\n      swap1\n      pop\n        /* \"@openzeppelin/contracts/utils/Address.sol\":3873:4096  function functionCall(... */\n      swap4\n      swap3\n      pop\n      pop\n      pop\n      jump\t// out\n        /* \"@openzeppelin/contracts/utils/Address.sol\":4960:5406  function functionCallWithValue(... */\n    tag_444:\n        /* \"@openzeppelin/contracts/utils/Address.sol\":5125:5137  bytes memory */\n      0x60\n        /* \"@openzeppelin/contracts/utils/Address.sol\":5182:5187  value */\n      dup3\n        /* \"@openzeppelin/contracts/utils/Address.sol\":5157:5178  address(this).balance */\n      selfbalance\n        /* \"@openzeppelin/contracts/utils/Address.sol\":5157:5187  address(this).balance >= value */\n      lt\n      iszero\n        /* \"@openzeppelin/contracts/utils/Address.sol\":5149:5230  require(address(this).balance >= value, \"Address: insufficient balance for call\") */\n      tag_446\n      jumpi\n      mload(0x40)\n      0x08c379a000000000000000000000000000000000000000000000000000000000\n      dup2\n      mstore\n      0x04\n      add\n      tag_447\n      swap1\n      tag_448\n      jump\t// in\n    tag_447:\n      mload(0x40)\n      dup1\n      swap2\n      sub\n      swap1\n      revert\n    tag_446:\n        /* \"@openzeppelin/contracts/utils/Address.sol\":5241:5253  bool success */\n      0x00\n        /* \"@openzeppelin/contracts/utils/Address.sol\":5255:5278  bytes memory returndata */\n      dup1\n        /* \"@openzeppelin/contracts/utils/Address.sol\":5282:5288  target */\n      dup7\n        /* \"@openzeppelin/contracts/utils/Address.sol\":5282:5293  target.call */\n      0xffffffffffffffffffffffffffffffffffffffff\n      and\n        /* \"@openzeppelin/contracts/utils/Address.sol\":5301:5306  value */\n      dup6\n        /* \"@openzeppelin/contracts/utils/Address.sol\":5308:5312  data */\n      dup8\n        /* \"@openzeppelin/contracts/utils/Address.sol\":5282:5313  target.call{value: value}(data) */\n      mload(0x40)\n      tag_449\n      swap2\n      swap1\n      tag_450\n      jump\t// in\n    tag_449:\n      0x00\n      mload(0x40)\n      dup1\n      dup4\n      sub\n      dup2\n      dup6\n      dup8\n      gas\n      call\n      swap3\n      pop\n      pop\n      pop\n      returndatasize\n      dup1\n      0x00\n      dup2\n      eq\n      tag_453\n      jumpi\n      mload(0x40)\n      swap2\n      pop\n      and(add(returndatasize, 0x3f), not(0x1f))\n      dup3\n      add\n      0x40\n      mstore\n      returndatasize\n      dup3\n      mstore\n      returndatasize\n      0x00\n      0x20\n      dup5\n      add\n      returndatacopy\n      jump(tag_452)\n    tag_453:\n      0x60\n      swap2\n      pop\n    tag_452:\n      pop\n        /* \"@openzeppelin/contracts/utils/Address.sol\":5240:5313  (bool success, bytes memory returndata) = target.call{value: value}(data) */\n      swap2\n      pop\n      swap2\n      pop\n        /* \"@openzeppelin/contracts/utils/Address.sol\":5330:5399  verifyCallResultFromTarget(target, success, returndata, errorMessage) */\n      tag_454\n        /* \"@openzeppelin/contracts/utils/Address.sol\":5357:5363  target */\n      dup8\n        /* \"@openzeppelin/contracts/utils/Address.sol\":5365:5372  success */\n      dup4\n        /* \"@openzeppelin/contracts/utils/Address.sol\":5374:5384  returndata */\n      dup4\n        /* \"@openzeppelin/contracts/utils/Address.sol\":5386:5398  errorMessage */\n      dup8\n        /* \"@openzeppelin/contracts/utils/Address.sol\":5330:5356  verifyCallResultFromTarget */\n      tag_455\n        /* \"@openzeppelin/contracts/utils/Address.sol\":5330:5399  verifyCallResultFromTarget(target, success, returndata, errorMessage) */\n      jump\t// in\n    tag_454:\n        /* \"@openzeppelin/contracts/utils/Address.sol\":5323:5399  return verifyCallResultFromTarget(target, success, returndata, errorMessage) */\n      swap3\n      pop\n      pop\n      pop\n        /* \"@openzeppelin/contracts/utils/Address.sol\":4960:5406  function functionCallWithValue(... */\n      swap5\n      swap4\n      pop\n      pop\n      pop\n      pop\n      jump\t// out\n        /* \"@openzeppelin/contracts/utils/Address.sol\":7466:8094  function verifyCallResultFromTarget(... */\n    tag_455:\n        /* \"@openzeppelin/contracts/utils/Address.sol\":7646:7658  bytes memory */\n      0x60\n        /* \"@openzeppelin/contracts/utils/Address.sol\":7674:7681  success */\n      dup4\n        /* \"@openzeppelin/contracts/utils/Address.sol\":7670:8088  if (success) {... */\n      iszero\n      tag_457\n      jumpi\n        /* \"@openzeppelin/contracts/utils/Address.sol\":7722:7723  0 */\n      0x00\n        /* \"@openzeppelin/contracts/utils/Address.sol\":7701:7711  returndata */\n      dup4\n        /* \"@openzeppelin/contracts/utils/Address.sol\":7701:7718  returndata.length */\n      mload\n        /* \"@openzeppelin/contracts/utils/Address.sol\":7701:7723  returndata.length == 0 */\n      eq\n        /* \"@openzeppelin/contracts/utils/Address.sol\":7697:7983  if (returndata.length == 0) {... */\n      iszero\n      tag_458\n      jumpi\n        /* \"@openzeppelin/contracts/utils/Address.sol\":7916:7934  isContract(target) */\n      tag_459\n        /* \"@openzeppelin/contracts/utils/Address.sol\":7927:7933  target */\n      dup6\n        /* \"@openzeppelin/contracts/utils/Address.sol\":7916:7926  isContract */\n      tag_460\n        /* \"@openzeppelin/contracts/utils/Address.sol\":7916:7934  isContract(target) */\n      jump\t// in\n    tag_459:\n        /* \"@openzeppelin/contracts/utils/Address.sol\":7908:7968  require(isContract(target), \"Address: call to non-contract\") */\n      tag_461\n      jumpi\n      mload(0x40)\n      0x08c379a000000000000000000000000000000000000000000000000000000000\n      dup2\n      mstore\n      0x04\n      add\n      tag_462\n      swap1\n      tag_463\n      jump\t// in\n    tag_462:\n      mload(0x40)\n      dup1\n      swap2\n      sub\n      swap1\n      revert\n    tag_461:\n        /* \"@openzeppelin/contracts/utils/Address.sol\":7697:7983  if (returndata.length == 0) {... */\n    tag_458:\n        /* \"@openzeppelin/contracts/utils/Address.sol\":8003:8013  returndata */\n      dup3\n        /* \"@openzeppelin/contracts/utils/Address.sol\":7996:8013  return returndata */\n      swap1\n      pop\n      jump(tag_456)\n        /* \"@openzeppelin/contracts/utils/Address.sol\":7670:8088  if (success) {... */\n    tag_457:\n        /* \"@openzeppelin/contracts/utils/Address.sol\":8044:8077  _revert(returndata, errorMessage) */\n      tag_465\n        /* \"@openzeppelin/contracts/utils/Address.sol\":8052:8062  returndata */\n      dup4\n        /* \"@openzeppelin/contracts/utils/Address.sol\":8064:8076  errorMessage */\n      dup4\n        /* \"@openzeppelin/contracts/utils/Address.sol\":8044:8051  _revert */\n      tag_466\n        /* \"@openzeppelin/contracts/utils/Address.sol\":8044:8077  _revert(returndata, errorMessage) */\n      jump\t// in\n    tag_465:\n        /* \"@openzeppelin/contracts/utils/Address.sol\":7466:8094  function verifyCallResultFromTarget(... */\n    tag_456:\n      swap5\n      swap4\n      pop\n      pop\n      pop\n      pop\n      jump\t// out\n        /* \"@openzeppelin/contracts/utils/Address.sol\":1175:1495  function isContract(address account) internal view returns (bool) {... */\n    tag_460:\n        /* \"@openzeppelin/contracts/utils/Address.sol\":1235:1239  bool */\n      0x00\n        /* \"@openzeppelin/contracts/utils/Address.sol\":1487:1488  0 */\n      dup1\n        /* \"@openzeppelin/contracts/utils/Address.sol\":1465:1472  account */\n      dup3\n        /* \"@openzeppelin/contracts/utils/Address.sol\":1465:1484  account.code.length */\n      0xffffffffffffffffffffffffffffffffffffffff\n      and\n      extcodesize\n        /* \"@openzeppelin/contracts/utils/Address.sol\":1465:1488  account.code.length > 0 */\n      gt\n        /* \"@openzeppelin/contracts/utils/Address.sol\":1458:1488  return account.code.length > 0 */\n      swap1\n      pop\n        /* \"@openzeppelin/contracts/utils/Address.sol\":1175:1495  function isContract(address account) internal view returns (bool) {... */\n      swap2\n      swap1\n      pop\n      jump\t// out\n        /* \"@openzeppelin/contracts/utils/Address.sol\":8616:9156  function _revert(bytes memory returndata, string memory errorMessage) private pure {... */\n    tag_466:\n        /* \"@openzeppelin/contracts/utils/Address.sol\":8795:8796  0 */\n      0x00\n        /* \"@openzeppelin/contracts/utils/Address.sol\":8775:8785  returndata */\n      dup3\n        /* \"@openzeppelin/contracts/utils/Address.sol\":8775:8792  returndata.length */\n      mload\n        /* \"@openzeppelin/contracts/utils/Address.sol\":8775:8796  returndata.length > 0 */\n      gt\n        /* \"@openzeppelin/contracts/utils/Address.sol\":8771:9150  if (returndata.length > 0) {... */\n      iszero\n      tag_469\n      jumpi\n        /* \"@openzeppelin/contracts/utils/Address.sol\":9003:9013  returndata */\n      dup2\n        /* \"@openzeppelin/contracts/utils/Address.sol\":8997:9014  mload(returndata) */\n      mload\n        /* \"@openzeppelin/contracts/utils/Address.sol\":9059:9074  returndata_size */\n      dup1\n        /* \"@openzeppelin/contracts/utils/Address.sol\":9046:9056  returndata */\n      dup4\n        /* \"@openzeppelin/contracts/utils/Address.sol\":9042:9044  32 */\n      0x20\n        /* \"@openzeppelin/contracts/utils/Address.sol\":9038:9057  add(32, returndata) */\n      add\n        /* \"@openzeppelin/contracts/utils/Address.sol\":9031:9075  revert(add(32, returndata), returndata_size) */\n      revert\n        /* \"@openzeppelin/contracts/utils/Address.sol\":8771:9150  if (returndata.length > 0) {... */\n    tag_469:\n        /* \"@openzeppelin/contracts/utils/Address.sol\":9126:9138  errorMessage */\n      dup1\n        /* \"@openzeppelin/contracts/utils/Address.sol\":9119:9139  revert(errorMessage) */\n      mload(0x40)\n      0x08c379a000000000000000000000000000000000000000000000000000000000\n      dup2\n      mstore\n      0x04\n      add\n      tag_471\n      swap2\n      swap1\n      tag_472\n      jump\t// in\n    tag_471:\n      mload(0x40)\n      dup1\n      swap2\n      sub\n      swap1\n      revert\n        /* \"#utility.yul\":88:205   */\n    tag_474:\n        /* \"#utility.yul\":197:198   */\n      0x00\n        /* \"#utility.yul\":194:195   */\n      dup1\n        /* \"#utility.yul\":187:199   */\n      revert\n        /* \"#utility.yul\":334:460   */\n    tag_476:\n        /* \"#utility.yul\":371:378   */\n      0x00\n        /* \"#utility.yul\":411:453   */\n      0xffffffffffffffffffffffffffffffffffffffff\n        /* \"#utility.yul\":404:409   */\n      dup3\n        /* \"#utility.yul\":400:454   */\n      and\n        /* \"#utility.yul\":389:454   */\n      swap1\n      pop\n        /* \"#utility.yul\":334:460   */\n      swap2\n      swap1\n      pop\n      jump\t// out\n        /* \"#utility.yul\":466:562   */\n    tag_477:\n        /* \"#utility.yul\":503:510   */\n      0x00\n        /* \"#utility.yul\":532:556   */\n      tag_549\n        /* \"#utility.yul\":550:555   */\n      dup3\n        /* \"#utility.yul\":532:556   */\n      tag_476\n      jump\t// in\n    tag_549:\n        /* \"#utility.yul\":521:556   */\n      swap1\n      pop\n        /* \"#utility.yul\":466:562   */\n      swap2\n      swap1\n      pop\n      jump\t// out\n        /* \"#utility.yul\":568:690   */\n    tag_478:\n        /* \"#utility.yul\":641:665   */\n      tag_551\n        /* \"#utility.yul\":659:664   */\n      dup2\n        /* \"#utility.yul\":641:665   */\n      tag_477\n      jump\t// in\n    tag_551:\n        /* \"#utility.yul\":634:639   */\n      dup2\n        /* \"#utility.yul\":631:666   */\n      eq\n        /* \"#utility.yul\":621:684   */\n      tag_552\n      jumpi\n        /* \"#utility.yul\":680:681   */\n      0x00\n        /* \"#utility.yul\":677:678   */\n      dup1\n        /* \"#utility.yul\":670:682   */\n      revert\n        /* \"#utility.yul\":621:684   */\n    tag_552:\n        /* \"#utility.yul\":568:690   */\n      pop\n      jump\t// out\n        /* \"#utility.yul\":696:835   */\n    tag_479:\n        /* \"#utility.yul\":742:747   */\n      0x00\n        /* \"#utility.yul\":780:786   */\n      dup2\n        /* \"#utility.yul\":767:787   */\n      calldataload\n        /* \"#utility.yul\":758:787   */\n      swap1\n      pop\n        /* \"#utility.yul\":796:829   */\n      tag_554\n        /* \"#utility.yul\":823:828   */\n      dup2\n        /* \"#utility.yul\":796:829   */\n      tag_478\n      jump\t// in\n    tag_554:\n        /* \"#utility.yul\":696:835   */\n      swap3\n      swap2\n      pop\n      pop\n      jump\t// out\n        /* \"#utility.yul\":841:918   */\n    tag_480:\n        /* \"#utility.yul\":878:885   */\n      0x00\n        /* \"#utility.yul\":907:912   */\n      dup2\n        /* \"#utility.yul\":896:912   */\n      swap1\n      pop\n        /* \"#utility.yul\":841:918   */\n      swap2\n      swap1\n      pop\n      jump\t// out\n        /* \"#utility.yul\":924:1046   */\n    tag_481:\n        /* \"#utility.yul\":997:1021   */\n      tag_557\n        /* \"#utility.yul\":1015:1020   */\n      dup2\n        /* \"#utility.yul\":997:1021   */\n      tag_480\n      jump\t// in\n    tag_557:\n        /* \"#utility.yul\":990:995   */\n      dup2\n        /* \"#utility.yul\":987:1022   */\n      eq\n        /* \"#utility.yul\":977:1040   */\n      tag_558\n      jumpi\n        /* \"#utility.yul\":1036:1037   */\n      0x00\n        /* \"#utility.yul\":1033:1034   */\n      dup1\n        /* \"#utility.yul\":1026:1038   */\n      revert\n        /* \"#utility.yul\":977:1040   */\n    tag_558:\n        /* \"#utility.yul\":924:1046   */\n      pop\n      jump\t// out\n        /* \"#utility.yul\":1052:1191   */\n    tag_482:\n        /* \"#utility.yul\":1098:1103   */\n      0x00\n        /* \"#utility.yul\":1136:1142   */\n      dup2\n        /* \"#utility.yul\":1123:1143   */\n      calldataload\n        /* \"#utility.yul\":1114:1143   */\n      swap1\n      pop\n        /* \"#utility.yul\":1152:1185   */\n      tag_560\n        /* \"#utility.yul\":1179:1184   */\n      dup2\n        /* \"#utility.yul\":1152:1185   */\n      tag_481\n      jump\t// in\n    tag_560:\n        /* \"#utility.yul\":1052:1191   */\n      swap3\n      swap2\n      pop\n      pop\n      jump\t// out\n        /* \"#utility.yul\":1197:1671   */\n    tag_40:\n        /* \"#utility.yul\":1265:1271   */\n      0x00\n        /* \"#utility.yul\":1273:1279   */\n      dup1\n        /* \"#utility.yul\":1322:1324   */\n      0x40\n        /* \"#utility.yul\":1310:1319   */\n      dup4\n        /* \"#utility.yul\":1301:1308   */\n      dup6\n        /* \"#utility.yul\":1297:1320   */\n      sub\n        /* \"#utility.yul\":1293:1325   */\n      slt\n        /* \"#utility.yul\":1290:1409   */\n      iszero\n      tag_562\n      jumpi\n        /* \"#utility.yul\":1328:1407   */\n      tag_563\n      tag_474\n      jump\t// in\n    tag_563:\n        /* \"#utility.yul\":1290:1409   */\n    tag_562:\n        /* \"#utility.yul\":1448:1449   */\n      0x00\n        /* \"#utility.yul\":1473:1526   */\n      tag_564\n        /* \"#utility.yul\":1518:1525   */\n      dup6\n        /* \"#utility.yul\":1509:1515   */\n      dup3\n        /* \"#utility.yul\":1498:1507   */\n      dup7\n        /* \"#utility.yul\":1494:1516   */\n      add\n        /* \"#utility.yul\":1473:1526   */\n      tag_479\n      jump\t// in\n    tag_564:\n        /* \"#utility.yul\":1463:1526   */\n      swap3\n      pop\n        /* \"#utility.yul\":1419:1536   */\n      pop\n        /* \"#utility.yul\":1575:1577   */\n      0x20\n        /* \"#utility.yul\":1601:1654   */\n      tag_565\n        /* \"#utility.yul\":1646:1653   */\n      dup6\n        /* \"#utility.yul\":1637:1643   */\n      dup3\n        /* \"#utility.yul\":1626:1635   */\n      dup7\n        /* \"#utility.yul\":1622:1644   */\n      add\n        /* \"#utility.yul\":1601:1654   */\n      tag_482\n      jump\t// in\n    tag_565:\n        /* \"#utility.yul\":1591:1654   */\n      swap2\n      pop\n        /* \"#utility.yul\":1546:1664   */\n      pop\n        /* \"#utility.yul\":1197:1671   */\n      swap3\n      pop\n      swap3\n      swap1\n      pop\n      jump\t// out\n        /* \"#utility.yul\":1677:1795   */\n    tag_483:\n        /* \"#utility.yul\":1764:1788   */\n      tag_567\n        /* \"#utility.yul\":1782:1787   */\n      dup2\n        /* \"#utility.yul\":1764:1788   */\n      tag_480\n      jump\t// in\n    tag_567:\n        /* \"#utility.yul\":1759:1762   */\n      dup3\n        /* \"#utility.yul\":1752:1789   */\n      mstore\n        /* \"#utility.yul\":1677:1795   */\n      pop\n      pop\n      jump\t// out\n        /* \"#utility.yul\":1801:2023   */\n    tag_43:\n        /* \"#utility.yul\":1894:1898   */\n      0x00\n        /* \"#utility.yul\":1932:1934   */\n      0x20\n        /* \"#utility.yul\":1921:1930   */\n      dup3\n        /* \"#utility.yul\":1917:1935   */\n      add\n        /* \"#utility.yul\":1909:1935   */\n      swap1\n      pop\n        /* \"#utility.yul\":1945:2016   */\n      tag_569\n        /* \"#utility.yul\":2013:2014   */\n      0x00\n        /* \"#utility.yul\":2002:2011   */\n      dup4\n        /* \"#utility.yul\":1998:2015   */\n      add\n        /* \"#utility.yul\":1989:1995   */\n      dup5\n        /* \"#utility.yul\":1945:2016   */\n      tag_483\n      jump\t// in\n    tag_569:\n        /* \"#utility.yul\":1801:2023   */\n      swap3\n      swap2\n      pop\n      pop\n      jump\t// out\n        /* \"#utility.yul\":2029:2358   */\n    tag_47:\n        /* \"#utility.yul\":2088:2094   */\n      0x00\n        /* \"#utility.yul\":2137:2139   */\n      0x20\n        /* \"#utility.yul\":2125:2134   */\n      dup3\n        /* \"#utility.yul\":2116:2123   */\n      dup5\n        /* \"#utility.yul\":2112:2135   */\n      sub\n        /* \"#utility.yul\":2108:2140   */\n      slt\n        /* \"#utility.yul\":2105:2224   */\n      iszero\n      tag_571\n      jumpi\n        /* \"#utility.yul\":2143:2222   */\n      tag_572\n      tag_474\n      jump\t// in\n    tag_572:\n        /* \"#utility.yul\":2105:2224   */\n    tag_571:\n        /* \"#utility.yul\":2263:2264   */\n      0x00\n        /* \"#utility.yul\":2288:2341   */\n      tag_573\n        /* \"#utility.yul\":2333:2340   */\n      dup5\n        /* \"#utility.yul\":2324:2330   */\n      dup3\n        /* \"#utility.yul\":2313:2322   */\n      dup6\n        /* \"#utility.yul\":2309:2331   */\n      add\n        /* \"#utility.yul\":2288:2341   */\n      tag_479\n      jump\t// in\n    tag_573:\n        /* \"#utility.yul\":2278:2341   */\n      swap2\n      pop\n        /* \"#utility.yul\":2234:2351   */\n      pop\n        /* \"#utility.yul\":2029:2358   */\n      swap3\n      swap2\n      pop\n      pop\n      jump\t// out\n        /* \"#utility.yul\":2364:2693   */\n    tag_60:\n        /* \"#utility.yul\":2423:2429   */\n      0x00\n        /* \"#utility.yul\":2472:2474   */\n      0x20\n        /* \"#utility.yul\":2460:2469   */\n      dup3\n        /* \"#utility.yul\":2451:2458   */\n      dup5\n        /* \"#utility.yul\":2447:2470   */\n      sub\n        /* \"#utility.yul\":2443:2475   */\n      slt\n        /* \"#utility.yul\":2440:2559   */\n      iszero\n      tag_575\n      jumpi\n        /* \"#utility.yul\":2478:2557   */\n      tag_576\n      tag_474\n      jump\t// in\n    tag_576:\n        /* \"#utility.yul\":2440:2559   */\n    tag_575:\n        /* \"#utility.yul\":2598:2599   */\n      0x00\n        /* \"#utility.yul\":2623:2676   */\n      tag_577\n        /* \"#utility.yul\":2668:2675   */\n      dup5\n        /* \"#utility.yul\":2659:2665   */\n      dup3\n        /* \"#utility.yul\":2648:2657   */\n      dup6\n        /* \"#utility.yul\":2644:2666   */\n      add\n        /* \"#utility.yul\":2623:2676   */\n      tag_482\n      jump\t// in\n    tag_577:\n        /* \"#utility.yul\":2613:2676   */\n      swap2\n      pop\n        /* \"#utility.yul\":2569:2686   */\n      pop\n        /* \"#utility.yul\":2364:2693   */\n      swap3\n      swap2\n      pop\n      pop\n      jump\t// out\n        /* \"#utility.yul\":2699:2759   */\n    tag_484:\n        /* \"#utility.yul\":2727:2730   */\n      0x00\n        /* \"#utility.yul\":2748:2753   */\n      dup2\n        /* \"#utility.yul\":2741:2753   */\n      swap1\n      pop\n        /* \"#utility.yul\":2699:2759   */\n      swap2\n      swap1\n      pop\n      jump\t// out\n        /* \"#utility.yul\":2765:2907   */\n    tag_485:\n        /* \"#utility.yul\":2815:2824   */\n      0x00\n        /* \"#utility.yul\":2848:2901   */\n      tag_580\n        /* \"#utility.yul\":2866:2900   */\n      tag_581\n        /* \"#utility.yul\":2875:2899   */\n      tag_582\n        /* \"#utility.yul\":2893:2898   */\n      dup5\n        /* \"#utility.yul\":2875:2899   */\n      tag_476\n      jump\t// in\n    tag_582:\n        /* \"#utility.yul\":2866:2900   */\n      tag_484\n      jump\t// in\n    tag_581:\n        /* \"#utility.yul\":2848:2901   */\n      tag_476\n      jump\t// in\n    tag_580:\n        /* \"#utility.yul\":2835:2901   */\n      swap1\n      pop\n        /* \"#utility.yul\":2765:2907   */\n      swap2\n      swap1\n      pop\n      jump\t// out\n        /* \"#utility.yul\":2913:3039   */\n    tag_486:\n        /* \"#utility.yul\":2963:2972   */\n      0x00\n        /* \"#utility.yul\":2996:3033   */\n      tag_584\n        /* \"#utility.yul\":3027:3032   */\n      dup3\n        /* \"#utility.yul\":2996:3033   */\n      tag_485\n      jump\t// in\n    tag_584:\n        /* \"#utility.yul\":2983:3033   */\n      swap1\n      pop\n        /* \"#utility.yul\":2913:3039   */\n      swap2\n      swap1\n      pop\n      jump\t// out\n        /* \"#utility.yul\":3045:3190   */\n    tag_487:\n        /* \"#utility.yul\":3114:3123   */\n      0x00\n        /* \"#utility.yul\":3147:3184   */\n      tag_586\n        /* \"#utility.yul\":3178:3183   */\n      dup3\n        /* \"#utility.yul\":3147:3184   */\n      tag_486\n      jump\t// in\n    tag_586:\n        /* \"#utility.yul\":3134:3184   */\n      swap1\n      pop\n        /* \"#utility.yul\":3045:3190   */\n      swap2\n      swap1\n      pop\n      jump\t// out\n        /* \"#utility.yul\":3196:3365   */\n    tag_488:\n        /* \"#utility.yul\":3302:3358   */\n      tag_588\n        /* \"#utility.yul\":3352:3357   */\n      dup2\n        /* \"#utility.yul\":3302:3358   */\n      tag_487\n      jump\t// in\n    tag_588:\n        /* \"#utility.yul\":3297:3300   */\n      dup3\n        /* \"#utility.yul\":3290:3359   */\n      mstore\n        /* \"#utility.yul\":3196:3365   */\n      pop\n      pop\n      jump\t// out\n        /* \"#utility.yul\":3371:3631   */\n    tag_67:\n        /* \"#utility.yul\":3483:3487   */\n      0x00\n        /* \"#utility.yul\":3521:3523   */\n      0x20\n        /* \"#utility.yul\":3510:3519   */\n      dup3\n        /* \"#utility.yul\":3506:3524   */\n      add\n        /* \"#utility.yul\":3498:3524   */\n      swap1\n      pop\n        /* \"#utility.yul\":3534:3624   */\n      tag_590\n        /* \"#utility.yul\":3621:3622   */\n      0x00\n        /* \"#utility.yul\":3610:3619   */\n      dup4\n        /* \"#utility.yul\":3606:3623   */\n      add\n        /* \"#utility.yul\":3597:3603   */\n      dup5\n        /* \"#utility.yul\":3534:3624   */\n      tag_488\n      jump\t// in\n    tag_590:\n        /* \"#utility.yul\":3371:3631   */\n      swap3\n      swap2\n      pop\n      pop\n      jump\t// out\n        /* \"#utility.yul\":3637:3784   */\n    tag_489:\n        /* \"#utility.yul\":3708:3717   */\n      0x00\n        /* \"#utility.yul\":3741:3778   */\n      tag_592\n        /* \"#utility.yul\":3772:3777   */\n      dup3\n        /* \"#utility.yul\":3741:3778   */\n      tag_486\n      jump\t// in\n    tag_592:\n        /* \"#utility.yul\":3728:3778   */\n      swap1\n      pop\n        /* \"#utility.yul\":3637:3784   */\n      swap2\n      swap1\n      pop\n      jump\t// out\n        /* \"#utility.yul\":3790:3963   */\n    tag_490:\n        /* \"#utility.yul\":3898:3956   */\n      tag_594\n        /* \"#utility.yul\":3950:3955   */\n      dup2\n        /* \"#utility.yul\":3898:3956   */\n      tag_489\n      jump\t// in\n    tag_594:\n        /* \"#utility.yul\":3893:3896   */\n      dup3\n        /* \"#utility.yul\":3886:3957   */\n      mstore\n        /* \"#utility.yul\":3790:3963   */\n      pop\n      pop\n      jump\t// out\n        /* \"#utility.yul\":3969:4233   */\n    tag_76:\n        /* \"#utility.yul\":4083:4087   */\n      0x00\n        /* \"#utility.yul\":4121:4123   */\n      0x20\n        /* \"#utility.yul\":4110:4119   */\n      dup3\n        /* \"#utility.yul\":4106:4124   */\n      add\n        /* \"#utility.yul\":4098:4124   */\n      swap1\n      pop\n        /* \"#utility.yul\":4134:4226   */\n      tag_596\n        /* \"#utility.yul\":4223:4224   */\n      0x00\n        /* \"#utility.yul\":4212:4221   */\n      dup4\n        /* \"#utility.yul\":4208:4225   */\n      add\n        /* \"#utility.yul\":4199:4205   */\n      dup5\n        /* \"#utility.yul\":4134:4226   */\n      tag_490\n      jump\t// in\n    tag_596:\n        /* \"#utility.yul\":3969:4233   */\n      swap3\n      swap2\n      pop\n      pop\n      jump\t// out\n        /* \"#utility.yul\":4239:4329   */\n    tag_491:\n        /* \"#utility.yul\":4273:4280   */\n      0x00\n        /* \"#utility.yul\":4316:4321   */\n      dup2\n        /* \"#utility.yul\":4309:4322   */\n      iszero\n        /* \"#utility.yul\":4302:4323   */\n      iszero\n        /* \"#utility.yul\":4291:4323   */\n      swap1\n      pop\n        /* \"#utility.yul\":4239:4329   */\n      swap2\n      swap1\n      pop\n      jump\t// out\n        /* \"#utility.yul\":4335:4444   */\n    tag_492:\n        /* \"#utility.yul\":4416:4437   */\n      tag_599\n        /* \"#utility.yul\":4431:4436   */\n      dup2\n        /* \"#utility.yul\":4416:4437   */\n      tag_491\n      jump\t// in\n    tag_599:\n        /* \"#utility.yul\":4411:4414   */\n      dup3\n        /* \"#utility.yul\":4404:4438   */\n      mstore\n        /* \"#utility.yul\":4335:4444   */\n      pop\n      pop\n      jump\t// out\n        /* \"#utility.yul\":4450:4660   */\n    tag_81:\n        /* \"#utility.yul\":4537:4541   */\n      0x00\n        /* \"#utility.yul\":4575:4577   */\n      0x20\n        /* \"#utility.yul\":4564:4573   */\n      dup3\n        /* \"#utility.yul\":4560:4578   */\n      add\n        /* \"#utility.yul\":4552:4578   */\n      swap1\n      pop\n        /* \"#utility.yul\":4588:4653   */\n      tag_601\n        /* \"#utility.yul\":4650:4651   */\n      0x00\n        /* \"#utility.yul\":4639:4648   */\n      dup4\n        /* \"#utility.yul\":4635:4652   */\n      add\n        /* \"#utility.yul\":4626:4632   */\n      dup5\n        /* \"#utility.yul\":4588:4653   */\n      tag_492\n      jump\t// in\n    tag_601:\n        /* \"#utility.yul\":4450:4660   */\n      swap3\n      swap2\n      pop\n      pop\n      jump\t// out\n        /* \"#utility.yul\":4666:4813   */\n    tag_493:\n        /* \"#utility.yul\":4737:4746   */\n      0x00\n        /* \"#utility.yul\":4770:4807   */\n      tag_603\n        /* \"#utility.yul\":4801:4806   */\n      dup3\n        /* \"#utility.yul\":4770:4807   */\n      tag_486\n      jump\t// in\n    tag_603:\n        /* \"#utility.yul\":4757:4807   */\n      swap1\n      pop\n        /* \"#utility.yul\":4666:4813   */\n      swap2\n      swap1\n      pop\n      jump\t// out\n        /* \"#utility.yul\":4819:4992   */\n    tag_494:\n        /* \"#utility.yul\":4927:4985   */\n      tag_605\n        /* \"#utility.yul\":4979:4984   */\n      dup2\n        /* \"#utility.yul\":4927:4985   */\n      tag_493\n      jump\t// in\n    tag_605:\n        /* \"#utility.yul\":4922:4925   */\n      dup3\n        /* \"#utility.yul\":4915:4986   */\n      mstore\n        /* \"#utility.yul\":4819:4992   */\n      pop\n      pop\n      jump\t// out\n        /* \"#utility.yul\":4998:5262   */\n    tag_86:\n        /* \"#utility.yul\":5112:5116   */\n      0x00\n        /* \"#utility.yul\":5150:5152   */\n      0x20\n        /* \"#utility.yul\":5139:5148   */\n      dup3\n        /* \"#utility.yul\":5135:5153   */\n      add\n        /* \"#utility.yul\":5127:5153   */\n      swap1\n      pop\n        /* \"#utility.yul\":5163:5255   */\n      tag_607\n        /* \"#utility.yul\":5252:5253   */\n      0x00\n        /* \"#utility.yul\":5241:5250   */\n      dup4\n        /* \"#utility.yul\":5237:5254   */\n      add\n        /* \"#utility.yul\":5228:5234   */\n      dup5\n        /* \"#utility.yul\":5163:5255   */\n      tag_494\n      jump\t// in\n    tag_607:\n        /* \"#utility.yul\":4998:5262   */\n      swap3\n      swap2\n      pop\n      pop\n      jump\t// out\n        /* \"#utility.yul\":5268:5386   */\n    tag_495:\n        /* \"#utility.yul\":5355:5379   */\n      tag_609\n        /* \"#utility.yul\":5373:5378   */\n      dup2\n        /* \"#utility.yul\":5355:5379   */\n      tag_477\n      jump\t// in\n    tag_609:\n        /* \"#utility.yul\":5350:5353   */\n      dup3\n        /* \"#utility.yul\":5343:5380   */\n      mstore\n        /* \"#utility.yul\":5268:5386   */\n      pop\n      pop\n      jump\t// out\n        /* \"#utility.yul\":5392:5614   */\n    tag_91:\n        /* \"#utility.yul\":5485:5489   */\n      0x00\n        /* \"#utility.yul\":5523:5525   */\n      0x20\n        /* \"#utility.yul\":5512:5521   */\n      dup3\n        /* \"#utility.yul\":5508:5526   */\n      add\n        /* \"#utility.yul\":5500:5526   */\n      swap1\n      pop\n        /* \"#utility.yul\":5536:5607   */\n      tag_611\n        /* \"#utility.yul\":5604:5605   */\n      0x00\n        /* \"#utility.yul\":5593:5602   */\n      dup4\n        /* \"#utility.yul\":5589:5606   */\n      add\n        /* \"#utility.yul\":5580:5586   */\n      dup5\n        /* \"#utility.yul\":5536:5607   */\n      tag_495\n      jump\t// in\n    tag_611:\n        /* \"#utility.yul\":5392:5614   */\n      swap3\n      swap2\n      pop\n      pop\n      jump\t// out\n        /* \"#utility.yul\":5620:6677   */\n    tag_129:\n        /* \"#utility.yul\":5724:5730   */\n      0x00\n        /* \"#utility.yul\":5732:5738   */\n      dup1\n        /* \"#utility.yul\":5740:5746   */\n      0x00\n        /* \"#utility.yul\":5748:5754   */\n      dup1\n        /* \"#utility.yul\":5756:5762   */\n      0x00\n        /* \"#utility.yul\":5764:5770   */\n      dup1\n        /* \"#utility.yul\":5813:5816   */\n      0xc0\n        /* \"#utility.yul\":5801:5810   */\n      dup8\n        /* \"#utility.yul\":5792:5799   */\n      dup10\n        /* \"#utility.yul\":5788:5811   */\n      sub\n        /* \"#utility.yul\":5784:5817   */\n      slt\n        /* \"#utility.yul\":5781:5901   */\n      iszero\n      tag_613\n      jumpi\n        /* \"#utility.yul\":5820:5899   */\n      tag_614\n      tag_474\n      jump\t// in\n    tag_614:\n        /* \"#utility.yul\":5781:5901   */\n    tag_613:\n        /* \"#utility.yul\":5940:5941   */\n      0x00\n        /* \"#utility.yul\":5965:6018   */\n      tag_615\n        /* \"#utility.yul\":6010:6017   */\n      dup10\n        /* \"#utility.yul\":6001:6007   */\n      dup3\n        /* \"#utility.yul\":5990:5999   */\n      dup11\n        /* \"#utility.yul\":5986:6008   */\n      add\n        /* \"#utility.yul\":5965:6018   */\n      tag_479\n      jump\t// in\n    tag_615:\n        /* \"#utility.yul\":5955:6018   */\n      swap7\n      pop\n        /* \"#utility.yul\":5911:6028   */\n      pop\n        /* \"#utility.yul\":6067:6069   */\n      0x20\n        /* \"#utility.yul\":6093:6146   */\n      tag_616\n        /* \"#utility.yul\":6138:6145   */\n      dup10\n        /* \"#utility.yul\":6129:6135   */\n      dup3\n        /* \"#utility.yul\":6118:6127   */\n      dup11\n        /* \"#utility.yul\":6114:6136   */\n      add\n        /* \"#utility.yul\":6093:6146   */\n      tag_479\n      jump\t// in\n    tag_616:\n        /* \"#utility.yul\":6083:6146   */\n      swap6\n      pop\n        /* \"#utility.yul\":6038:6156   */\n      pop\n        /* \"#utility.yul\":6195:6197   */\n      0x40\n        /* \"#utility.yul\":6221:6274   */\n      tag_617\n        /* \"#utility.yul\":6266:6273   */\n      dup10\n        /* \"#utility.yul\":6257:6263   */\n      dup3\n        /* \"#utility.yul\":6246:6255   */\n      dup11\n        /* \"#utility.yul\":6242:6264   */\n      add\n        /* \"#utility.yul\":6221:6274   */\n      tag_479\n      jump\t// in\n    tag_617:\n        /* \"#utility.yul\":6211:6274   */\n      swap5\n      pop\n        /* \"#utility.yul\":6166:6284   */\n      pop\n        /* \"#utility.yul\":6323:6325   */\n      0x60\n        /* \"#utility.yul\":6349:6402   */\n      tag_618\n        /* \"#utility.yul\":6394:6401   */\n      dup10\n        /* \"#utility.yul\":6385:6391   */\n      dup3\n        /* \"#utility.yul\":6374:6383   */\n      dup11\n        /* \"#utility.yul\":6370:6392   */\n      add\n        /* \"#utility.yul\":6349:6402   */\n      tag_479\n      jump\t// in\n    tag_618:\n        /* \"#utility.yul\":6339:6402   */\n      swap4\n      pop\n        /* \"#utility.yul\":6294:6412   */\n      pop\n        /* \"#utility.yul\":6451:6454   */\n      0x80\n        /* \"#utility.yul\":6478:6531   */\n      tag_619\n        /* \"#utility.yul\":6523:6530   */\n      dup10\n        /* \"#utility.yul\":6514:6520   */\n      dup3\n        /* \"#utility.yul\":6503:6512   */\n      dup11\n        /* \"#utility.yul\":6499:6521   */\n      add\n        /* \"#utility.yul\":6478:6531   */\n      tag_479\n      jump\t// in\n    tag_619:\n        /* \"#utility.yul\":6468:6531   */\n      swap3\n      pop\n        /* \"#utility.yul\":6422:6541   */\n      pop\n        /* \"#utility.yul\":6580:6583   */\n      0xa0\n        /* \"#utility.yul\":6607:6660   */\n      tag_620\n        /* \"#utility.yul\":6652:6659   */\n      dup10\n        /* \"#utility.yul\":6643:6649   */\n      dup3\n        /* \"#utility.yul\":6632:6641   */\n      dup11\n        /* \"#utility.yul\":6628:6650   */\n      add\n        /* \"#utility.yul\":6607:6660   */\n      tag_479\n      jump\t// in\n    tag_620:\n        /* \"#utility.yul\":6597:6660   */\n      swap2\n      pop\n        /* \"#utility.yul\":6551:6670   */\n      pop\n        /* \"#utility.yul\":5620:6677   */\n      swap3\n      swap6\n      pop\n      swap3\n      swap6\n      pop\n      swap3\n      swap6\n      jump\t// out\n        /* \"#utility.yul\":6683:6822   */\n    tag_496:\n        /* \"#utility.yul\":6746:6755   */\n      0x00\n        /* \"#utility.yul\":6779:6816   */\n      tag_622\n        /* \"#utility.yul\":6810:6815   */\n      dup3\n        /* \"#utility.yul\":6779:6816   */\n      tag_486\n      jump\t// in\n    tag_622:\n        /* \"#utility.yul\":6766:6816   */\n      swap1\n      pop\n        /* \"#utility.yul\":6683:6822   */\n      swap2\n      swap1\n      pop\n      jump\t// out\n        /* \"#utility.yul\":6828:6985   */\n    tag_497:\n        /* \"#utility.yul\":6928:6978   */\n      tag_624\n        /* \"#utility.yul\":6972:6977   */\n      dup2\n        /* \"#utility.yul\":6928:6978   */\n      tag_496\n      jump\t// in\n    tag_624:\n        /* \"#utility.yul\":6923:6926   */\n      dup3\n        /* \"#utility.yul\":6916:6979   */\n      mstore\n        /* \"#utility.yul\":6828:6985   */\n      pop\n      pop\n      jump\t// out\n        /* \"#utility.yul\":6991:7239   */\n    tag_147:\n        /* \"#utility.yul\":7097:7101   */\n      0x00\n        /* \"#utility.yul\":7135:7137   */\n      0x20\n        /* \"#utility.yul\":7124:7133   */\n      dup3\n        /* \"#utility.yul\":7120:7138   */\n      add\n        /* \"#utility.yul\":7112:7138   */\n      swap1\n      pop\n        /* \"#utility.yul\":7148:7232   */\n      tag_626\n        /* \"#utility.yul\":7229:7230   */\n      0x00\n        /* \"#utility.yul\":7218:7227   */\n      dup4\n        /* \"#utility.yul\":7214:7231   */\n      add\n        /* \"#utility.yul\":7205:7211   */\n      dup5\n        /* \"#utility.yul\":7148:7232   */\n      tag_497\n      jump\t// in\n    tag_626:\n        /* \"#utility.yul\":6991:7239   */\n      swap3\n      swap2\n      pop\n      pop\n      jump\t// out\n        /* \"#utility.yul\":7245:7414   */\n    tag_498:\n        /* \"#utility.yul\":7329:7340   */\n      0x00\n        /* \"#utility.yul\":7363:7369   */\n      dup3\n        /* \"#utility.yul\":7358:7361   */\n      dup3\n        /* \"#utility.yul\":7351:7370   */\n      mstore\n        /* \"#utility.yul\":7403:7407   */\n      0x20\n        /* \"#utility.yul\":7398:7401   */\n      dup3\n        /* \"#utility.yul\":7394:7408   */\n      add\n        /* \"#utility.yul\":7379:7408   */\n      swap1\n      pop\n        /* \"#utility.yul\":7245:7414   */\n      swap3\n      swap2\n      pop\n      pop\n      jump\t// out\n        /* \"#utility.yul\":7420:7601   */\n    tag_499:\n        /* \"#utility.yul\":7560:7593   */\n      0x5265656e7472616e637947756172643a207265656e7472616e742063616c6c00\n        /* \"#utility.yul\":7556:7557   */\n      0x00\n        /* \"#utility.yul\":7548:7554   */\n      dup3\n        /* \"#utility.yul\":7544:7558   */\n      add\n        /* \"#utility.yul\":7537:7594   */\n      mstore\n        /* \"#utility.yul\":7420:7601   */\n      pop\n      jump\t// out\n        /* \"#utility.yul\":7607:7973   */\n    tag_500:\n        /* \"#utility.yul\":7749:7752   */\n      0x00\n        /* \"#utility.yul\":7770:7837   */\n      tag_630\n        /* \"#utility.yul\":7834:7836   */\n      0x1f\n        /* \"#utility.yul\":7829:7832   */\n      dup4\n        /* \"#utility.yul\":7770:7837   */\n      tag_498\n      jump\t// in\n    tag_630:\n        /* \"#utility.yul\":7763:7837   */\n      swap2\n      pop\n        /* \"#utility.yul\":7846:7939   */\n      tag_631\n        /* \"#utility.yul\":7935:7938   */\n      dup3\n        /* \"#utility.yul\":7846:7939   */\n      tag_499\n      jump\t// in\n    tag_631:\n        /* \"#utility.yul\":7964:7966   */\n      0x20\n        /* \"#utility.yul\":7959:7962   */\n      dup3\n        /* \"#utility.yul\":7955:7967   */\n      add\n        /* \"#utility.yul\":7948:7967   */\n      swap1\n      pop\n        /* \"#utility.yul\":7607:7973   */\n      swap2\n      swap1\n      pop\n      jump\t// out\n        /* \"#utility.yul\":7979:8398   */\n    tag_166:\n        /* \"#utility.yul\":8145:8149   */\n      0x00\n        /* \"#utility.yul\":8183:8185   */\n      0x20\n        /* \"#utility.yul\":8172:8181   */\n      dup3\n        /* \"#utility.yul\":8168:8186   */\n      add\n        /* \"#utility.yul\":8160:8186   */\n      swap1\n      pop\n        /* \"#utility.yul\":8232:8241   */\n      dup2\n        /* \"#utility.yul\":8226:8230   */\n      dup2\n        /* \"#utility.yul\":8222:8242   */\n      sub\n        /* \"#utility.yul\":8218:8219   */\n      0x00\n        /* \"#utility.yul\":8207:8216   */\n      dup4\n        /* \"#utility.yul\":8203:8220   */\n      add\n        /* \"#utility.yul\":8196:8243   */\n      mstore\n        /* \"#utility.yul\":8260:8391   */\n      tag_633\n        /* \"#utility.yul\":8386:8390   */\n      dup2\n        /* \"#utility.yul\":8260:8391   */\n      tag_500\n      jump\t// in\n    tag_633:\n        /* \"#utility.yul\":8252:8391   */\n      swap1\n      pop\n        /* \"#utility.yul\":7979:8398   */\n      swap2\n      swap1\n      pop\n      jump\t// out\n        /* \"#utility.yul\":8404:8547   */\n    tag_501:\n        /* \"#utility.yul\":8461:8466   */\n      0x00\n        /* \"#utility.yul\":8492:8498   */\n      dup2\n        /* \"#utility.yul\":8486:8499   */\n      mload\n        /* \"#utility.yul\":8477:8499   */\n      swap1\n      pop\n        /* \"#utility.yul\":8508:8541   */\n      tag_635\n        /* \"#utility.yul\":8535:8540   */\n      dup2\n        /* \"#utility.yul\":8508:8541   */\n      tag_481\n      jump\t// in\n    tag_635:\n        /* \"#utility.yul\":8404:8547   */\n      swap3\n      swap2\n      pop\n      pop\n      jump\t// out\n        /* \"#utility.yul\":8553:8904   */\n    tag_171:\n        /* \"#utility.yul\":8623:8629   */\n      0x00\n        /* \"#utility.yul\":8672:8674   */\n      0x20\n        /* \"#utility.yul\":8660:8669   */\n      dup3\n        /* \"#utility.yul\":8651:8658   */\n      dup5\n        /* \"#utility.yul\":8647:8670   */\n      sub\n        /* \"#utility.yul\":8643:8675   */\n      slt\n        /* \"#utility.yul\":8640:8759   */\n      iszero\n      tag_637\n      jumpi\n        /* \"#utility.yul\":8678:8757   */\n      tag_638\n      tag_474\n      jump\t// in\n    tag_638:\n        /* \"#utility.yul\":8640:8759   */\n    tag_637:\n        /* \"#utility.yul\":8798:8799   */\n      0x00\n        /* \"#utility.yul\":8823:8887   */\n      tag_639\n        /* \"#utility.yul\":8879:8886   */\n      dup5\n        /* \"#utility.yul\":8870:8876   */\n      dup3\n        /* \"#utility.yul\":8859:8868   */\n      dup6\n        /* \"#utility.yul\":8855:8877   */\n      add\n        /* \"#utility.yul\":8823:8887   */\n      tag_501\n      jump\t// in\n    tag_639:\n        /* \"#utility.yul\":8813:8887   */\n      swap2\n      pop\n        /* \"#utility.yul\":8769:8897   */\n      pop\n        /* \"#utility.yul\":8553:8904   */\n      swap3\n      swap2\n      pop\n      pop\n      jump\t// out\n        /* \"#utility.yul\":8910:9142   */\n    tag_502:\n        /* \"#utility.yul\":9050:9084   */\n      0x76616c7565206d7573742062652067726561746572207468616e206d696e2075\n        /* \"#utility.yul\":9046:9047   */\n      0x00\n        /* \"#utility.yul\":9038:9044   */\n      dup3\n        /* \"#utility.yul\":9034:9048   */\n      add\n        /* \"#utility.yul\":9027:9085   */\n      mstore\n        /* \"#utility.yul\":9119:9134   */\n      0x6e7374616b6520616d6f756e7400000000000000000000000000000000000000\n        /* \"#utility.yul\":9114:9116   */\n      0x20\n        /* \"#utility.yul\":9106:9112   */\n      dup3\n        /* \"#utility.yul\":9102:9117   */\n      add\n        /* \"#utility.yul\":9095:9135   */\n      mstore\n        /* \"#utility.yul\":8910:9142   */\n      pop\n      jump\t// out\n        /* \"#utility.yul\":9148:9514   */\n    tag_503:\n        /* \"#utility.yul\":9290:9293   */\n      0x00\n        /* \"#utility.yul\":9311:9378   */\n      tag_642\n        /* \"#utility.yul\":9375:9377   */\n      0x2d\n        /* \"#utility.yul\":9370:9373   */\n      dup4\n        /* \"#utility.yul\":9311:9378   */\n      tag_498\n      jump\t// in\n    tag_642:\n        /* \"#utility.yul\":9304:9378   */\n      swap2\n      pop\n        /* \"#utility.yul\":9387:9480   */\n      tag_643\n        /* \"#utility.yul\":9476:9479   */\n      dup3\n        /* \"#utility.yul\":9387:9480   */\n      tag_502\n      jump\t// in\n    tag_643:\n        /* \"#utility.yul\":9505:9507   */\n      0x40\n        /* \"#utility.yul\":9500:9503   */\n      dup3\n        /* \"#utility.yul\":9496:9508   */\n      add\n        /* \"#utility.yul\":9489:9508   */\n      swap1\n      pop\n        /* \"#utility.yul\":9148:9514   */\n      swap2\n      swap1\n      pop\n      jump\t// out\n        /* \"#utility.yul\":9520:9939   */\n    tag_174:\n        /* \"#utility.yul\":9686:9690   */\n      0x00\n        /* \"#utility.yul\":9724:9726   */\n      0x20\n        /* \"#utility.yul\":9713:9722   */\n      dup3\n        /* \"#utility.yul\":9709:9727   */\n      add\n        /* \"#utility.yul\":9701:9727   */\n      swap1\n      pop\n        /* \"#utility.yul\":9773:9782   */\n      dup2\n        /* \"#utility.yul\":9767:9771   */\n      dup2\n        /* \"#utility.yul\":9763:9783   */\n      sub\n        /* \"#utility.yul\":9759:9760   */\n      0x00\n        /* \"#utility.yul\":9748:9757   */\n      dup4\n        /* \"#utility.yul\":9744:9761   */\n      add\n        /* \"#utility.yul\":9737:9784   */\n      mstore\n        /* \"#utility.yul\":9801:9932   */\n      tag_645\n        /* \"#utility.yul\":9927:9931   */\n      dup2\n        /* \"#utility.yul\":9801:9932   */\n      tag_503\n      jump\t// in\n    tag_645:\n        /* \"#utility.yul\":9793:9932   */\n      swap1\n      pop\n        /* \"#utility.yul\":9520:9939   */\n      swap2\n      swap1\n      pop\n      jump\t// out\n        /* \"#utility.yul\":9945:10277   */\n    tag_178:\n        /* \"#utility.yul\":10066:10070   */\n      0x00\n        /* \"#utility.yul\":10104:10106   */\n      0x40\n        /* \"#utility.yul\":10093:10102   */\n      dup3\n        /* \"#utility.yul\":10089:10107   */\n      add\n        /* \"#utility.yul\":10081:10107   */\n      swap1\n      pop\n        /* \"#utility.yul\":10117:10188   */\n      tag_647\n        /* \"#utility.yul\":10185:10186   */\n      0x00\n        /* \"#utility.yul\":10174:10183   */\n      dup4\n        /* \"#utility.yul\":10170:10187   */\n      add\n        /* \"#utility.yul\":10161:10167   */\n      dup6\n        /* \"#utility.yul\":10117:10188   */\n      tag_495\n      jump\t// in\n    tag_647:\n        /* \"#utility.yul\":10198:10270   */\n      tag_648\n        /* \"#utility.yul\":10266:10268   */\n      0x20\n        /* \"#utility.yul\":10255:10264   */\n      dup4\n        /* \"#utility.yul\":10251:10269   */\n      add\n        /* \"#utility.yul\":10242:10248   */\n      dup5\n        /* \"#utility.yul\":10198:10270   */\n      tag_483\n      jump\t// in\n    tag_648:\n        /* \"#utility.yul\":9945:10277   */\n      swap4\n      swap3\n      pop\n      pop\n      pop\n      jump\t// out\n        /* \"#utility.yul\":10283:10458   */\n    tag_504:\n        /* \"#utility.yul\":10423:10450   */\n      0x41756374696f6e50726f78793a206e6f7420616c6c6f77656400000000000000\n        /* \"#utility.yul\":10419:10420   */\n      0x00\n        /* \"#utility.yul\":10411:10417   */\n      dup3\n        /* \"#utility.yul\":10407:10421   */\n      add\n        /* \"#utility.yul\":10400:10451   */\n      mstore\n        /* \"#utility.yul\":10283:10458   */\n      pop\n      jump\t// out\n        /* \"#utility.yul\":10464:10830   */\n    tag_505:\n        /* \"#utility.yul\":10606:10609   */\n      0x00\n        /* \"#utility.yul\":10627:10694   */\n      tag_651\n        /* \"#utility.yul\":10691:10693   */\n      0x19\n        /* \"#utility.yul\":10686:10689   */\n      dup4\n        /* \"#utility.yul\":10627:10694   */\n      tag_498\n      jump\t// in\n    tag_651:\n        /* \"#utility.yul\":10620:10694   */\n      swap2\n      pop\n        /* \"#utility.yul\":10703:10796   */\n      tag_652\n        /* \"#utility.yul\":10792:10795   */\n      dup3\n        /* \"#utility.yul\":10703:10796   */\n      tag_504\n      jump\t// in\n    tag_652:\n        /* \"#utility.yul\":10821:10823   */\n      0x20\n        /* \"#utility.yul\":10816:10819   */\n      dup3\n        /* \"#utility.yul\":10812:10824   */\n      add\n        /* \"#utility.yul\":10805:10824   */\n      swap1\n      pop\n        /* \"#utility.yul\":10464:10830   */\n      swap2\n      swap1\n      pop\n      jump\t// out\n        /* \"#utility.yul\":10836:11255   */\n    tag_193:\n        /* \"#utility.yul\":11002:11006   */\n      0x00\n        /* \"#utility.yul\":11040:11042   */\n      0x20\n        /* \"#utility.yul\":11029:11038   */\n      dup3\n        /* \"#utility.yul\":11025:11043   */\n      add\n        /* \"#utility.yul\":11017:11043   */\n      swap1\n      pop\n        /* \"#utility.yul\":11089:11098   */\n      dup2\n        /* \"#utility.yul\":11083:11087   */\n      dup2\n        /* \"#utility.yul\":11079:11099   */\n      sub\n        /* \"#utility.yul\":11075:11076   */\n      0x00\n        /* \"#utility.yul\":11064:11073   */\n      dup4\n        /* \"#utility.yul\":11060:11077   */\n      add\n        /* \"#utility.yul\":11053:11100   */\n      mstore\n        /* \"#utility.yul\":11117:11248   */\n      tag_654\n        /* \"#utility.yul\":11243:11247   */\n      dup2\n        /* \"#utility.yul\":11117:11248   */\n      tag_505\n      jump\t// in\n    tag_654:\n        /* \"#utility.yul\":11109:11248   */\n      swap1\n      pop\n        /* \"#utility.yul\":10836:11255   */\n      swap2\n      swap1\n      pop\n      jump\t// out\n        /* \"#utility.yul\":11261:11433   */\n    tag_506:\n        /* \"#utility.yul\":11401:11425   */\n      0x48656c696f50726f76696465722f44697361626c656400000000000000000000\n        /* \"#utility.yul\":11397:11398   */\n      0x00\n        /* \"#utility.yul\":11389:11395   */\n      dup3\n        /* \"#utility.yul\":11385:11399   */\n      add\n        /* \"#utility.yul\":11378:11426   */\n      mstore\n        /* \"#utility.yul\":11261:11433   */\n      pop\n      jump\t// out\n        /* \"#utility.yul\":11439:11805   */\n    tag_507:\n        /* \"#utility.yul\":11581:11584   */\n      0x00\n        /* \"#utility.yul\":11602:11669   */\n      tag_657\n        /* \"#utility.yul\":11666:11668   */\n      0x16\n        /* \"#utility.yul\":11661:11664   */\n      dup4\n        /* \"#utility.yul\":11602:11669   */\n      tag_498\n      jump\t// in\n    tag_657:\n        /* \"#utility.yul\":11595:11669   */\n      swap2\n      pop\n        /* \"#utility.yul\":11678:11771   */\n      tag_658\n        /* \"#utility.yul\":11767:11770   */\n      dup3\n        /* \"#utility.yul\":11678:11771   */\n      tag_506\n      jump\t// in\n    tag_658:\n        /* \"#utility.yul\":11796:11798   */\n      0x20\n        /* \"#utility.yul\":11791:11794   */\n      dup3\n        /* \"#utility.yul\":11787:11799   */\n      add\n        /* \"#utility.yul\":11780:11799   */\n      swap1\n      pop\n        /* \"#utility.yul\":11439:11805   */\n      swap2\n      swap1\n      pop\n      jump\t// out\n        /* \"#utility.yul\":11811:12230   */\n    tag_211:\n        /* \"#utility.yul\":11977:11981   */\n      0x00\n        /* \"#utility.yul\":12015:12017   */\n      0x20\n        /* \"#utility.yul\":12004:12013   */\n      dup3\n        /* \"#utility.yul\":12000:12018   */\n      add\n        /* \"#utility.yul\":11992:12018   */\n      swap1\n      pop\n        /* \"#utility.yul\":12064:12073   */\n      dup2\n        /* \"#utility.yul\":12058:12062   */\n      dup2\n        /* \"#utility.yul\":12054:12074   */\n      sub\n        /* \"#utility.yul\":12050:12051   */\n      0x00\n        /* \"#utility.yul\":12039:12048   */\n      dup4\n        /* \"#utility.yul\":12035:12052   */\n      add\n        /* \"#utility.yul\":12028:12075   */\n      mstore\n        /* \"#utility.yul\":12092:12223   */\n      tag_660\n        /* \"#utility.yul\":12218:12222   */\n      dup2\n        /* \"#utility.yul\":12092:12223   */\n      tag_507\n      jump\t// in\n    tag_660:\n        /* \"#utility.yul\":12084:12223   */\n      swap1\n      pop\n        /* \"#utility.yul\":11811:12230   */\n      swap2\n      swap1\n      pop\n      jump\t// out\n        /* \"#utility.yul\":12236:12469   */\n    tag_508:\n        /* \"#utility.yul\":12376:12410   */\n      0x496e697469616c697a61626c653a20636f6e747261637420697320616c726561\n        /* \"#utility.yul\":12372:12373   */\n      0x00\n        /* \"#utility.yul\":12364:12370   */\n      dup3\n        /* \"#utility.yul\":12360:12374   */\n      add\n        /* \"#utility.yul\":12353:12411   */\n      mstore\n        /* \"#utility.yul\":12445:12461   */\n      0x647920696e697469616c697a6564000000000000000000000000000000000000\n        /* \"#utility.yul\":12440:12442   */\n      0x20\n        /* \"#utility.yul\":12432:12438   */\n      dup3\n        /* \"#utility.yul\":12428:12443   */\n      add\n        /* \"#utility.yul\":12421:12462   */\n      mstore\n        /* \"#utility.yul\":12236:12469   */\n      pop\n      jump\t// out\n        /* \"#utility.yul\":12475:12841   */\n    tag_509:\n        /* \"#utility.yul\":12617:12620   */\n      0x00\n        /* \"#utility.yul\":12638:12705   */\n      tag_663\n        /* \"#utility.yul\":12702:12704   */\n      0x2e\n        /* \"#utility.yul\":12697:12700   */\n      dup4\n        /* \"#utility.yul\":12638:12705   */\n      tag_498\n      jump\t// in\n    tag_663:\n        /* \"#utility.yul\":12631:12705   */\n      swap2\n      pop\n        /* \"#utility.yul\":12714:12807   */\n      tag_664\n        /* \"#utility.yul\":12803:12806   */\n      dup3\n        /* \"#utility.yul\":12714:12807   */\n      tag_508\n      jump\t// in\n    tag_664:\n        /* \"#utility.yul\":12832:12834   */\n      0x40\n        /* \"#utility.yul\":12827:12830   */\n      dup3\n        /* \"#utility.yul\":12823:12835   */\n      add\n        /* \"#utility.yul\":12816:12835   */\n      swap1\n      pop\n        /* \"#utility.yul\":12475:12841   */\n      swap2\n      swap1\n      pop\n      jump\t// out\n        /* \"#utility.yul\":12847:13266   */\n    tag_278:\n        /* \"#utility.yul\":13013:13017   */\n      0x00\n        /* \"#utility.yul\":13051:13053   */\n      0x20\n        /* \"#utility.yul\":13040:13049   */\n      dup3\n        /* \"#utility.yul\":13036:13054   */\n      add\n        /* \"#utility.yul\":13028:13054   */\n      swap1\n      pop\n        /* \"#utility.yul\":13100:13109   */\n      dup2\n        /* \"#utility.yul\":13094:13098   */\n      dup2\n        /* \"#utility.yul\":13090:13110   */\n      sub\n        /* \"#utility.yul\":13086:13087   */\n      0x00\n        /* \"#utility.yul\":13075:13084   */\n      dup4\n        /* \"#utility.yul\":13071:13088   */\n      add\n        /* \"#utility.yul\":13064:13111   */\n      mstore\n        /* \"#utility.yul\":13128:13259   */\n      tag_666\n        /* \"#utility.yul\":13254:13258   */\n      dup2\n        /* \"#utility.yul\":13128:13259   */\n      tag_509\n      jump\t// in\n    tag_666:\n        /* \"#utility.yul\":13120:13259   */\n      swap1\n      pop\n        /* \"#utility.yul\":12847:13266   */\n      swap2\n      swap1\n      pop\n      jump\t// out\n        /* \"#utility.yul\":13272:13357   */\n    tag_510:\n        /* \"#utility.yul\":13317:13324   */\n      0x00\n        /* \"#utility.yul\":13346:13351   */\n      dup2\n        /* \"#utility.yul\":13335:13351   */\n      swap1\n      pop\n        /* \"#utility.yul\":13272:13357   */\n      swap2\n      swap1\n      pop\n      jump\t// out\n        /* \"#utility.yul\":13363:13449   */\n    tag_511:\n        /* \"#utility.yul\":13398:13405   */\n      0x00\n        /* \"#utility.yul\":13438:13442   */\n      0xff\n        /* \"#utility.yul\":13431:13436   */\n      dup3\n        /* \"#utility.yul\":13427:13443   */\n      and\n        /* \"#utility.yul\":13416:13443   */\n      swap1\n      pop\n        /* \"#utility.yul\":13363:13449   */\n      swap2\n      swap1\n      pop\n      jump\t// out\n        /* \"#utility.yul\":13455:13609   */\n    tag_512:\n        /* \"#utility.yul\":13511:13520   */\n      0x00\n        /* \"#utility.yul\":13544:13603   */\n      tag_670\n        /* \"#utility.yul\":13560:13602   */\n      tag_671\n        /* \"#utility.yul\":13569:13601   */\n      tag_672\n        /* \"#utility.yul\":13595:13600   */\n      dup5\n        /* \"#utility.yul\":13569:13601   */\n      tag_510\n      jump\t// in\n    tag_672:\n        /* \"#utility.yul\":13560:13602   */\n      tag_484\n      jump\t// in\n    tag_671:\n        /* \"#utility.yul\":13544:13603   */\n      tag_511\n      jump\t// in\n    tag_670:\n        /* \"#utility.yul\":13531:13603   */\n      swap1\n      pop\n        /* \"#utility.yul\":13455:13609   */\n      swap2\n      swap1\n      pop\n      jump\t// out\n        /* \"#utility.yul\":13615:13758   */\n    tag_513:\n        /* \"#utility.yul\":13708:13751   */\n      tag_674\n        /* \"#utility.yul\":13745:13750   */\n      dup2\n        /* \"#utility.yul\":13708:13751   */\n      tag_512\n      jump\t// in\n    tag_674:\n        /* \"#utility.yul\":13703:13706   */\n      dup3\n        /* \"#utility.yul\":13696:13752   */\n      mstore\n        /* \"#utility.yul\":13615:13758   */\n      pop\n      pop\n      jump\t// out\n        /* \"#utility.yul\":13764:13998   */\n    tag_290:\n        /* \"#utility.yul\":13863:13867   */\n      0x00\n        /* \"#utility.yul\":13901:13903   */\n      0x20\n        /* \"#utility.yul\":13890:13899   */\n      dup3\n        /* \"#utility.yul\":13886:13904   */\n      add\n        /* \"#utility.yul\":13878:13904   */\n      swap1\n      pop\n        /* \"#utility.yul\":13914:13991   */\n      tag_676\n        /* \"#utility.yul\":13988:13989   */\n      0x00\n        /* \"#utility.yul\":13977:13986   */\n      dup4\n        /* \"#utility.yul\":13973:13990   */\n      add\n        /* \"#utility.yul\":13964:13970   */\n      dup5\n        /* \"#utility.yul\":13914:13991   */\n      tag_513\n      jump\t// in\n    tag_676:\n        /* \"#utility.yul\":13764:13998   */\n      swap3\n      swap2\n      pop\n      pop\n      jump\t// out\n        /* \"#utility.yul\":14004:14175   */\n    tag_514:\n        /* \"#utility.yul\":14144:14167   */\n      0x4f70657261746f723a206e6f7420616c6c6f7765640000000000000000000000\n        /* \"#utility.yul\":14140:14141   */\n      0x00\n        /* \"#utility.yul\":14132:14138   */\n      dup3\n        /* \"#utility.yul\":14128:14142   */\n      add\n        /* \"#utility.yul\":14121:14168   */\n      mstore\n        /* \"#utility.yul\":14004:14175   */\n      pop\n      jump\t// out\n        /* \"#utility.yul\":14181:14547   */\n    tag_515:\n        /* \"#utility.yul\":14323:14326   */\n      0x00\n        /* \"#utility.yul\":14344:14411   */\n      tag_679\n        /* \"#utility.yul\":14408:14410   */\n      0x15\n        /* \"#utility.yul\":14403:14406   */\n      dup4\n        /* \"#utility.yul\":14344:14411   */\n      tag_498\n      jump\t// in\n    tag_679:\n        /* \"#utility.yul\":14337:14411   */\n      swap2\n      pop\n        /* \"#utility.yul\":14420:14513   */\n      tag_680\n        /* \"#utility.yul\":14509:14512   */\n      dup3\n        /* \"#utility.yul\":14420:14513   */\n      tag_514\n      jump\t// in\n    tag_680:\n        /* \"#utility.yul\":14538:14540   */\n      0x20\n        /* \"#utility.yul\":14533:14536   */\n      dup3\n        /* \"#utility.yul\":14529:14541   */\n      add\n        /* \"#utility.yul\":14522:14541   */\n      swap1\n      pop\n        /* \"#utility.yul\":14181:14547   */\n      swap2\n      swap1\n      pop\n      jump\t// out\n        /* \"#utility.yul\":14553:14972   */\n    tag_318:\n        /* \"#utility.yul\":14719:14723   */\n      0x00\n        /* \"#utility.yul\":14757:14759   */\n      0x20\n        /* \"#utility.yul\":14746:14755   */\n      dup3\n        /* \"#utility.yul\":14742:14760   */\n      add\n        /* \"#utility.yul\":14734:14760   */\n      swap1\n      pop\n        /* \"#utility.yul\":14806:14815   */\n      dup2\n        /* \"#utility.yul\":14800:14804   */\n      dup2\n        /* \"#utility.yul\":14796:14816   */\n      sub\n        /* \"#utility.yul\":14792:14793   */\n      0x00\n        /* \"#utility.yul\":14781:14790   */\n      dup4\n        /* \"#utility.yul\":14777:14794   */\n      add\n        /* \"#utility.yul\":14770:14817   */\n      mstore\n        /* \"#utility.yul\":14834:14965   */\n      tag_682\n        /* \"#utility.yul\":14960:14964   */\n      dup2\n        /* \"#utility.yul\":14834:14965   */\n      tag_515\n      jump\t// in\n    tag_682:\n        /* \"#utility.yul\":14826:14965   */\n      swap1\n      pop\n        /* \"#utility.yul\":14553:14972   */\n      swap2\n      swap1\n      pop\n      jump\t// out\n        /* \"#utility.yul\":14978:15203   */\n    tag_516:\n        /* \"#utility.yul\":15118:15152   */\n      0x4f776e61626c653a206e6577206f776e657220697320746865207a65726f2061\n        /* \"#utility.yul\":15114:15115   */\n      0x00\n        /* \"#utility.yul\":15106:15112   */\n      dup3\n        /* \"#utility.yul\":15102:15116   */\n      add\n        /* \"#utility.yul\":15095:15153   */\n      mstore\n        /* \"#utility.yul\":15187:15195   */\n      0x6464726573730000000000000000000000000000000000000000000000000000\n        /* \"#utility.yul\":15182:15184   */\n      0x20\n        /* \"#utility.yul\":15174:15180   */\n      dup3\n        /* \"#utility.yul\":15170:15185   */\n      add\n        /* \"#utility.yul\":15163:15196   */\n      mstore\n        /* \"#utility.yul\":14978:15203   */\n      pop\n      jump\t// out\n        /* \"#utility.yul\":15209:15575   */\n    tag_517:\n        /* \"#utility.yul\":15351:15354   */\n      0x00\n        /* \"#utility.yul\":15372:15439   */\n      tag_685\n        /* \"#utility.yul\":15436:15438   */\n      0x26\n        /* \"#utility.yul\":15431:15434   */\n      dup4\n        /* \"#utility.yul\":15372:15439   */\n      tag_498\n      jump\t// in\n    tag_685:\n        /* \"#utility.yul\":15365:15439   */\n      swap2\n      pop\n        /* \"#utility.yul\":15448:15541   */\n      tag_686\n        /* \"#utility.yul\":15537:15540   */\n      dup3\n        /* \"#utility.yul\":15448:15541   */\n      tag_516\n      jump\t// in\n    tag_686:\n        /* \"#utility.yul\":15566:15568   */\n      0x40\n        /* \"#utility.yul\":15561:15564   */\n      dup3\n        /* \"#utility.yul\":15557:15569   */\n      add\n        /* \"#utility.yul\":15550:15569   */\n      swap1\n      pop\n        /* \"#utility.yul\":15209:15575   */\n      swap2\n      swap1\n      pop\n      jump\t// out\n        /* \"#utility.yul\":15581:16000   */\n    tag_330:\n        /* \"#utility.yul\":15747:15751   */\n      0x00\n        /* \"#utility.yul\":15785:15787   */\n      0x20\n        /* \"#utility.yul\":15774:15783   */\n      dup3\n        /* \"#utility.yul\":15770:15788   */\n      add\n        /* \"#utility.yul\":15762:15788   */\n      swap1\n      pop\n        /* \"#utility.yul\":15834:15843   */\n      dup2\n        /* \"#utility.yul\":15828:15832   */\n      dup2\n        /* \"#utility.yul\":15824:15844   */\n      sub\n        /* \"#utility.yul\":15820:15821   */\n      0x00\n        /* \"#utility.yul\":15809:15818   */\n      dup4\n        /* \"#utility.yul\":15805:15822   */\n      add\n        /* \"#utility.yul\":15798:15845   */\n      mstore\n        /* \"#utility.yul\":15862:15993   */\n      tag_688\n        /* \"#utility.yul\":15988:15992   */\n      dup2\n        /* \"#utility.yul\":15862:15993   */\n      tag_517\n      jump\t// in\n    tag_688:\n        /* \"#utility.yul\":15854:15993   */\n      swap1\n      pop\n        /* \"#utility.yul\":15581:16000   */\n      swap2\n      swap1\n      pop\n      jump\t// out\n        /* \"#utility.yul\":16006:16172   */\n    tag_518:\n        /* \"#utility.yul\":16146:16164   */\n      0x5061757361626c653a2070617573656400000000000000000000000000000000\n        /* \"#utility.yul\":16142:16143   */\n      0x00\n        /* \"#utility.yul\":16134:16140   */\n      dup3\n        /* \"#utility.yul\":16130:16144   */\n      add\n        /* \"#utility.yul\":16123:16165   */\n      mstore\n        /* \"#utility.yul\":16006:16172   */\n      pop\n      jump\t// out\n        /* \"#utility.yul\":16178:16544   */\n    tag_519:\n        /* \"#utility.yul\":16320:16323   */\n      0x00\n        /* \"#utility.yul\":16341:16408   */\n      tag_691\n        /* \"#utility.yul\":16405:16407   */\n      0x10\n        /* \"#utility.yul\":16400:16403   */\n      dup4\n        /* \"#utility.yul\":16341:16408   */\n      tag_498\n      jump\t// in\n    tag_691:\n        /* \"#utility.yul\":16334:16408   */\n      swap2\n      pop\n        /* \"#utility.yul\":16417:16510   */\n      tag_692\n        /* \"#utility.yul\":16506:16509   */\n      dup3\n        /* \"#utility.yul\":16417:16510   */\n      tag_518\n      jump\t// in\n    tag_692:\n        /* \"#utility.yul\":16535:16537   */\n      0x20\n        /* \"#utility.yul\":16530:16533   */\n      dup3\n        /* \"#utility.yul\":16526:16538   */\n      add\n        /* \"#utility.yul\":16519:16538   */\n      swap1\n      pop\n        /* \"#utility.yul\":16178:16544   */\n      swap2\n      swap1\n      pop\n      jump\t// out\n        /* \"#utility.yul\":16550:16969   */\n    tag_341:\n        /* \"#utility.yul\":16716:16720   */\n      0x00\n        /* \"#utility.yul\":16754:16756   */\n      0x20\n        /* \"#utility.yul\":16743:16752   */\n      dup3\n        /* \"#utility.yul\":16739:16757   */\n      add\n        /* \"#utility.yul\":16731:16757   */\n      swap1\n      pop\n        /* \"#utility.yul\":16803:16812   */\n      dup2\n        /* \"#utility.yul\":16797:16801   */\n      dup2\n        /* \"#utility.yul\":16793:16813   */\n      sub\n        /* \"#utility.yul\":16789:16790   */\n      0x00\n        /* \"#utility.yul\":16778:16787   */\n      dup4\n        /* \"#utility.yul\":16774:16791   */\n      add\n        /* \"#utility.yul\":16767:16814   */\n      mstore\n        /* \"#utility.yul\":16831:16962   */\n      tag_694\n        /* \"#utility.yul\":16957:16961   */\n      dup2\n        /* \"#utility.yul\":16831:16962   */\n      tag_519\n      jump\t// in\n    tag_694:\n        /* \"#utility.yul\":16823:16962   */\n      swap1\n      pop\n        /* \"#utility.yul\":16550:16969   */\n      swap2\n      swap1\n      pop\n      jump\t// out\n        /* \"#utility.yul\":16975:17417   */\n    tag_344:\n        /* \"#utility.yul\":17124:17128   */\n      0x00\n        /* \"#utility.yul\":17162:17164   */\n      0x60\n        /* \"#utility.yul\":17151:17160   */\n      dup3\n        /* \"#utility.yul\":17147:17165   */\n      add\n        /* \"#utility.yul\":17139:17165   */\n      swap1\n      pop\n        /* \"#utility.yul\":17175:17246   */\n      tag_696\n        /* \"#utility.yul\":17243:17244   */\n      0x00\n        /* \"#utility.yul\":17232:17241   */\n      dup4\n        /* \"#utility.yul\":17228:17245   */\n      add\n        /* \"#utility.yul\":17219:17225   */\n      dup7\n        /* \"#utility.yul\":17175:17246   */\n      tag_495\n      jump\t// in\n    tag_696:\n        /* \"#utility.yul\":17256:17328   */\n      tag_697\n        /* \"#utility.yul\":17324:17326   */\n      0x20\n        /* \"#utility.yul\":17313:17322   */\n      dup4\n        /* \"#utility.yul\":17309:17327   */\n      add\n        /* \"#utility.yul\":17300:17306   */\n      dup6\n        /* \"#utility.yul\":17256:17328   */\n      tag_495\n      jump\t// in\n    tag_697:\n        /* \"#utility.yul\":17338:17410   */\n      tag_698\n        /* \"#utility.yul\":17406:17408   */\n      0x40\n        /* \"#utility.yul\":17395:17404   */\n      dup4\n        /* \"#utility.yul\":17391:17409   */\n      add\n        /* \"#utility.yul\":17382:17388   */\n      dup5\n        /* \"#utility.yul\":17338:17410   */\n      tag_483\n      jump\t// in\n    tag_698:\n        /* \"#utility.yul\":16975:17417   */\n      swap5\n      swap4\n      pop\n      pop\n      pop\n      pop\n      jump\t// out\n        /* \"#utility.yul\":17423:17605   */\n    tag_520:\n        /* \"#utility.yul\":17563:17597   */\n      0x4f776e61626c653a2063616c6c6572206973206e6f7420746865206f776e6572\n        /* \"#utility.yul\":17559:17560   */\n      0x00\n        /* \"#utility.yul\":17551:17557   */\n      dup3\n        /* \"#utility.yul\":17547:17561   */\n      add\n        /* \"#utility.yul\":17540:17598   */\n      mstore\n        /* \"#utility.yul\":17423:17605   */\n      pop\n      jump\t// out\n        /* \"#utility.yul\":17611:17977   */\n    tag_521:\n        /* \"#utility.yul\":17753:17756   */\n      0x00\n        /* \"#utility.yul\":17774:17841   */\n      tag_701\n        /* \"#utility.yul\":17838:17840   */\n      0x20\n        /* \"#utility.yul\":17833:17836   */\n      dup4\n        /* \"#utility.yul\":17774:17841   */\n      tag_498\n      jump\t// in\n    tag_701:\n        /* \"#utility.yul\":17767:17841   */\n      swap2\n      pop\n        /* \"#utility.yul\":17850:17943   */\n      tag_702\n        /* \"#utility.yul\":17939:17942   */\n      dup3\n        /* \"#utility.yul\":17850:17943   */\n      tag_520\n      jump\t// in\n    tag_702:\n        /* \"#utility.yul\":17968:17970   */\n      0x20\n        /* \"#utility.yul\":17963:17966   */\n      dup3\n        /* \"#utility.yul\":17959:17971   */\n      add\n        /* \"#utility.yul\":17952:17971   */\n      swap1\n      pop\n        /* \"#utility.yul\":17611:17977   */\n      swap2\n      swap1\n      pop\n      jump\t// out\n        /* \"#utility.yul\":17983:18402   */\n    tag_358:\n        /* \"#utility.yul\":18149:18153   */\n      0x00\n        /* \"#utility.yul\":18187:18189   */\n      0x20\n        /* \"#utility.yul\":18176:18185   */\n      dup3\n        /* \"#utility.yul\":18172:18190   */\n      add\n        /* \"#utility.yul\":18164:18190   */\n      swap1\n      pop\n        /* \"#utility.yul\":18236:18245   */\n      dup2\n        /* \"#utility.yul\":18230:18234   */\n      dup2\n        /* \"#utility.yul\":18226:18246   */\n      sub\n        /* \"#utility.yul\":18222:18223   */\n      0x00\n        /* \"#utility.yul\":18211:18220   */\n      dup4\n        /* \"#utility.yul\":18207:18224   */\n      add\n        /* \"#utility.yul\":18200:18247   */\n      mstore\n        /* \"#utility.yul\":18264:18395   */\n      tag_704\n        /* \"#utility.yul\":18390:18394   */\n      dup2\n        /* \"#utility.yul\":18264:18395   */\n      tag_521\n      jump\t// in\n    tag_704:\n        /* \"#utility.yul\":18256:18395   */\n      swap1\n      pop\n        /* \"#utility.yul\":17983:18402   */\n      swap2\n      swap1\n      pop\n      jump\t// out\n        /* \"#utility.yul\":18408:18740   */\n    tag_362:\n        /* \"#utility.yul\":18529:18533   */\n      0x00\n        /* \"#utility.yul\":18567:18569   */\n      0x40\n        /* \"#utility.yul\":18556:18565   */\n      dup3\n        /* \"#utility.yul\":18552:18570   */\n      add\n        /* \"#utility.yul\":18544:18570   */\n      swap1\n      pop\n        /* \"#utility.yul\":18580:18651   */\n      tag_706\n        /* \"#utility.yul\":18648:18649   */\n      0x00\n        /* \"#utility.yul\":18637:18646   */\n      dup4\n        /* \"#utility.yul\":18633:18650   */\n      add\n        /* \"#utility.yul\":18624:18630   */\n      dup6\n        /* \"#utility.yul\":18580:18651   */\n      tag_495\n      jump\t// in\n    tag_706:\n        /* \"#utility.yul\":18661:18733   */\n      tag_707\n        /* \"#utility.yul\":18729:18731   */\n      0x20\n        /* \"#utility.yul\":18718:18727   */\n      dup4\n        /* \"#utility.yul\":18714:18732   */\n      add\n        /* \"#utility.yul\":18705:18711   */\n      dup5\n        /* \"#utility.yul\":18661:18733   */\n      tag_495\n      jump\t// in\n    tag_707:\n        /* \"#utility.yul\":18408:18740   */\n      swap4\n      swap3\n      pop\n      pop\n      pop\n      jump\t// out\n        /* \"#utility.yul\":18746:18987   */\n    tag_522:\n        /* \"#utility.yul\":18886:18920   */\n      0x5361666545524332303a20617070726f76652066726f6d206e6f6e2d7a65726f\n        /* \"#utility.yul\":18882:18883   */\n      0x00\n        /* \"#utility.yul\":18874:18880   */\n      dup3\n        /* \"#utility.yul\":18870:18884   */\n      add\n        /* \"#utility.yul\":18863:18921   */\n      mstore\n        /* \"#utility.yul\":18955:18979   */\n      0x20746f206e6f6e2d7a65726f20616c6c6f77616e636500000000000000000000\n        /* \"#utility.yul\":18950:18952   */\n      0x20\n        /* \"#utility.yul\":18942:18948   */\n      dup3\n        /* \"#utility.yul\":18938:18953   */\n      add\n        /* \"#utility.yul\":18931:18980   */\n      mstore\n        /* \"#utility.yul\":18746:18987   */\n      pop\n      jump\t// out\n        /* \"#utility.yul\":18993:19359   */\n    tag_523:\n        /* \"#utility.yul\":19135:19138   */\n      0x00\n        /* \"#utility.yul\":19156:19223   */\n      tag_710\n        /* \"#utility.yul\":19220:19222   */\n      0x36\n        /* \"#utility.yul\":19215:19218   */\n      dup4\n        /* \"#utility.yul\":19156:19223   */\n      tag_498\n      jump\t// in\n    tag_710:\n        /* \"#utility.yul\":19149:19223   */\n      swap2\n      pop\n        /* \"#utility.yul\":19232:19325   */\n      tag_711\n        /* \"#utility.yul\":19321:19324   */\n      dup3\n        /* \"#utility.yul\":19232:19325   */\n      tag_522\n      jump\t// in\n    tag_711:\n        /* \"#utility.yul\":19350:19352   */\n      0x40\n        /* \"#utility.yul\":19345:19348   */\n      dup3\n        /* \"#utility.yul\":19341:19353   */\n      add\n        /* \"#utility.yul\":19334:19353   */\n      swap1\n      pop\n        /* \"#utility.yul\":18993:19359   */\n      swap2\n      swap1\n      pop\n      jump\t// out\n        /* \"#utility.yul\":19365:19784   */\n    tag_368:\n        /* \"#utility.yul\":19531:19535   */\n      0x00\n        /* \"#utility.yul\":19569:19571   */\n      0x20\n        /* \"#utility.yul\":19558:19567   */\n      dup3\n        /* \"#utility.yul\":19554:19572   */\n      add\n        /* \"#utility.yul\":19546:19572   */\n      swap1\n      pop\n        /* \"#utility.yul\":19618:19627   */\n      dup2\n        /* \"#utility.yul\":19612:19616   */\n      dup2\n        /* \"#utility.yul\":19608:19628   */\n      sub\n        /* \"#utility.yul\":19604:19605   */\n      0x00\n        /* \"#utility.yul\":19593:19602   */\n      dup4\n        /* \"#utility.yul\":19589:19606   */\n      add\n        /* \"#utility.yul\":19582:19629   */\n      mstore\n        /* \"#utility.yul\":19646:19777   */\n      tag_713\n        /* \"#utility.yul\":19772:19776   */\n      dup2\n        /* \"#utility.yul\":19646:19777   */\n      tag_523\n      jump\t// in\n    tag_713:\n        /* \"#utility.yul\":19638:19777   */\n      swap1\n      pop\n        /* \"#utility.yul\":19365:19784   */\n      swap2\n      swap1\n      pop\n      jump\t// out\n        /* \"#utility.yul\":19790:20020   */\n    tag_524:\n        /* \"#utility.yul\":19930:19964   */\n      0x496e697469616c697a61626c653a20636f6e7472616374206973206e6f742069\n        /* \"#utility.yul\":19926:19927   */\n      0x00\n        /* \"#utility.yul\":19918:19924   */\n      dup3\n        /* \"#utility.yul\":19914:19928   */\n      add\n        /* \"#utility.yul\":19907:19965   */\n      mstore\n        /* \"#utility.yul\":19999:20012   */\n      0x6e697469616c697a696e67000000000000000000000000000000000000000000\n        /* \"#utility.yul\":19994:19996   */\n      0x20\n        /* \"#utility.yul\":19986:19992   */\n      dup3\n        /* \"#utility.yul\":19982:19997   */\n      add\n        /* \"#utility.yul\":19975:20013   */\n      mstore\n        /* \"#utility.yul\":19790:20020   */\n      pop\n      jump\t// out\n        /* \"#utility.yul\":20026:20392   */\n    tag_525:\n        /* \"#utility.yul\":20168:20171   */\n      0x00\n        /* \"#utility.yul\":20189:20256   */\n      tag_716\n        /* \"#utility.yul\":20253:20255   */\n      0x2b\n        /* \"#utility.yul\":20248:20251   */\n      dup4\n        /* \"#utility.yul\":20189:20256   */\n      tag_498\n      jump\t// in\n    tag_716:\n        /* \"#utility.yul\":20182:20256   */\n      swap2\n      pop\n        /* \"#utility.yul\":20265:20358   */\n      tag_717\n        /* \"#utility.yul\":20354:20357   */\n      dup3\n        /* \"#utility.yul\":20265:20358   */\n      tag_524\n      jump\t// in\n    tag_717:\n        /* \"#utility.yul\":20383:20385   */\n      0x40\n        /* \"#utility.yul\":20378:20381   */\n      dup3\n        /* \"#utility.yul\":20374:20386   */\n      add\n        /* \"#utility.yul\":20367:20386   */\n      swap1\n      pop\n        /* \"#utility.yul\":20026:20392   */\n      swap2\n      swap1\n      pop\n      jump\t// out\n        /* \"#utility.yul\":20398:20817   */\n    tag_391:\n        /* \"#utility.yul\":20564:20568   */\n      0x00\n        /* \"#utility.yul\":20602:20604   */\n      0x20\n        /* \"#utility.yul\":20591:20600   */\n      dup3\n        /* \"#utility.yul\":20587:20605   */\n      add\n        /* \"#utility.yul\":20579:20605   */\n      swap1\n      pop\n        /* \"#utility.yul\":20651:20660   */\n      dup2\n        /* \"#utility.yul\":20645:20649   */\n      dup2\n        /* \"#utility.yul\":20641:20661   */\n      sub\n        /* \"#utility.yul\":20637:20638   */\n      0x00\n        /* \"#utility.yul\":20626:20635   */\n      dup4\n        /* \"#utility.yul\":20622:20639   */\n      add\n        /* \"#utility.yul\":20615:20662   */\n      mstore\n        /* \"#utility.yul\":20679:20810   */\n      tag_719\n        /* \"#utility.yul\":20805:20809   */\n      dup2\n        /* \"#utility.yul\":20679:20810   */\n      tag_525\n      jump\t// in\n    tag_719:\n        /* \"#utility.yul\":20671:20810   */\n      swap1\n      pop\n        /* \"#utility.yul\":20398:20817   */\n      swap2\n      swap1\n      pop\n      jump\t// out\n        /* \"#utility.yul\":20823:20939   */\n    tag_526:\n        /* \"#utility.yul\":20893:20914   */\n      tag_721\n        /* \"#utility.yul\":20908:20913   */\n      dup2\n        /* \"#utility.yul\":20893:20914   */\n      tag_491\n      jump\t// in\n    tag_721:\n        /* \"#utility.yul\":20886:20891   */\n      dup2\n        /* \"#utility.yul\":20883:20915   */\n      eq\n        /* \"#utility.yul\":20873:20933   */\n      tag_722\n      jumpi\n        /* \"#utility.yul\":20929:20930   */\n      0x00\n        /* \"#utility.yul\":20926:20927   */\n      dup1\n        /* \"#utility.yul\":20919:20931   */\n      revert\n        /* \"#utility.yul\":20873:20933   */\n    tag_722:\n        /* \"#utility.yul\":20823:20939   */\n      pop\n      jump\t// out\n        /* \"#utility.yul\":20945:21082   */\n    tag_527:\n        /* \"#utility.yul\":20999:21004   */\n      0x00\n        /* \"#utility.yul\":21030:21036   */\n      dup2\n        /* \"#utility.yul\":21024:21037   */\n      mload\n        /* \"#utility.yul\":21015:21037   */\n      swap1\n      pop\n        /* \"#utility.yul\":21046:21076   */\n      tag_724\n        /* \"#utility.yul\":21070:21075   */\n      dup2\n        /* \"#utility.yul\":21046:21076   */\n      tag_526\n      jump\t// in\n    tag_724:\n        /* \"#utility.yul\":20945:21082   */\n      swap3\n      swap2\n      pop\n      pop\n      jump\t// out\n        /* \"#utility.yul\":21088:21433   */\n    tag_419:\n        /* \"#utility.yul\":21155:21161   */\n      0x00\n        /* \"#utility.yul\":21204:21206   */\n      0x20\n        /* \"#utility.yul\":21192:21201   */\n      dup3\n        /* \"#utility.yul\":21183:21190   */\n      dup5\n        /* \"#utility.yul\":21179:21202   */\n      sub\n        /* \"#utility.yul\":21175:21207   */\n      slt\n        /* \"#utility.yul\":21172:21291   */\n      iszero\n      tag_726\n      jumpi\n        /* \"#utility.yul\":21210:21289   */\n      tag_727\n      tag_474\n      jump\t// in\n    tag_727:\n        /* \"#utility.yul\":21172:21291   */\n    tag_726:\n        /* \"#utility.yul\":21330:21331   */\n      0x00\n        /* \"#utility.yul\":21355:21416   */\n      tag_728\n        /* \"#utility.yul\":21408:21415   */\n      dup5\n        /* \"#utility.yul\":21399:21405   */\n      dup3\n        /* \"#utility.yul\":21388:21397   */\n      dup6\n        /* \"#utility.yul\":21384:21406   */\n      add\n        /* \"#utility.yul\":21355:21416   */\n      tag_527\n      jump\t// in\n    tag_728:\n        /* \"#utility.yul\":21345:21416   */\n      swap2\n      pop\n        /* \"#utility.yul\":21301:21426   */\n      pop\n        /* \"#utility.yul\":21088:21433   */\n      swap3\n      swap2\n      pop\n      pop\n      jump\t// out\n        /* \"#utility.yul\":21439:21668   */\n    tag_528:\n        /* \"#utility.yul\":21579:21613   */\n      0x5361666545524332303a204552433230206f7065726174696f6e20646964206e\n        /* \"#utility.yul\":21575:21576   */\n      0x00\n        /* \"#utility.yul\":21567:21573   */\n      dup3\n        /* \"#utility.yul\":21563:21577   */\n      add\n        /* \"#utility.yul\":21556:21614   */\n      mstore\n        /* \"#utility.yul\":21648:21660   */\n      0x6f74207375636365656400000000000000000000000000000000000000000000\n        /* \"#utility.yul\":21643:21645   */\n      0x20\n        /* \"#utility.yul\":21635:21641   */\n      dup3\n        /* \"#utility.yul\":21631:21646   */\n      add\n        /* \"#utility.yul\":21624:21661   */\n      mstore\n        /* \"#utility.yul\":21439:21668   */\n      pop\n      jump\t// out\n        /* \"#utility.yul\":21674:22040   */\n    tag_529:\n        /* \"#utility.yul\":21816:21819   */\n      0x00\n        /* \"#utility.yul\":21837:21904   */\n      tag_731\n        /* \"#utility.yul\":21901:21903   */\n      0x2a\n        /* \"#utility.yul\":21896:21899   */\n      dup4\n        /* \"#utility.yul\":21837:21904   */\n      tag_498\n      jump\t// in\n    tag_731:\n        /* \"#utility.yul\":21830:21904   */\n      swap2\n      pop\n        /* \"#utility.yul\":21913:22006   */\n      tag_732\n        /* \"#utility.yul\":22002:22005   */\n      dup3\n        /* \"#utility.yul\":21913:22006   */\n      tag_528\n      jump\t// in\n    tag_732:\n        /* \"#utility.yul\":22031:22033   */\n      0x40\n        /* \"#utility.yul\":22026:22029   */\n      dup3\n        /* \"#utility.yul\":22022:22034   */\n      add\n        /* \"#utility.yul\":22015:22034   */\n      swap1\n      pop\n        /* \"#utility.yul\":21674:22040   */\n      swap2\n      swap1\n      pop\n      jump\t// out\n        /* \"#utility.yul\":22046:22465   */\n    tag_422:\n        /* \"#utility.yul\":22212:22216   */\n      0x00\n        /* \"#utility.yul\":22250:22252   */\n      0x20\n        /* \"#utility.yul\":22239:22248   */\n      dup3\n        /* \"#utility.yul\":22235:22253   */\n      add\n        /* \"#utility.yul\":22227:22253   */\n      swap1\n      pop\n        /* \"#utility.yul\":22299:22308   */\n      dup2\n        /* \"#utility.yul\":22293:22297   */\n      dup2\n        /* \"#utility.yul\":22289:22309   */\n      sub\n        /* \"#utility.yul\":22285:22286   */\n      0x00\n        /* \"#utility.yul\":22274:22283   */\n      dup4\n        /* \"#utility.yul\":22270:22287   */\n      add\n        /* \"#utility.yul\":22263:22310   */\n      mstore\n        /* \"#utility.yul\":22327:22458   */\n      tag_734\n        /* \"#utility.yul\":22453:22457   */\n      dup2\n        /* \"#utility.yul\":22327:22458   */\n      tag_529\n      jump\t// in\n    tag_734:\n        /* \"#utility.yul\":22319:22458   */\n      swap1\n      pop\n        /* \"#utility.yul\":22046:22465   */\n      swap2\n      swap1\n      pop\n      jump\t// out\n        /* \"#utility.yul\":22471:22641   */\n    tag_530:\n        /* \"#utility.yul\":22611:22633   */\n      0x5061757361626c653a206e6f7420706175736564000000000000000000000000\n        /* \"#utility.yul\":22607:22608   */\n      0x00\n        /* \"#utility.yul\":22599:22605   */\n      dup3\n        /* \"#utility.yul\":22595:22609   */\n      add\n        /* \"#utility.yul\":22588:22634   */\n      mstore\n        /* \"#utility.yul\":22471:22641   */\n      pop\n      jump\t// out\n        /* \"#utility.yul\":22647:23013   */\n    tag_531:\n        /* \"#utility.yul\":22789:22792   */\n      0x00\n        /* \"#utility.yul\":22810:22877   */\n      tag_737\n        /* \"#utility.yul\":22874:22876   */\n      0x14\n        /* \"#utility.yul\":22869:22872   */\n      dup4\n        /* \"#utility.yul\":22810:22877   */\n      tag_498\n      jump\t// in\n    tag_737:\n        /* \"#utility.yul\":22803:22877   */\n      swap2\n      pop\n        /* \"#utility.yul\":22886:22979   */\n      tag_738\n        /* \"#utility.yul\":22975:22978   */\n      dup3\n        /* \"#utility.yul\":22886:22979   */\n      tag_530\n      jump\t// in\n    tag_738:\n        /* \"#utility.yul\":23004:23006   */\n      0x20\n        /* \"#utility.yul\":22999:23002   */\n      dup3\n        /* \"#utility.yul\":22995:23007   */\n      add\n        /* \"#utility.yul\":22988:23007   */\n      swap1\n      pop\n        /* \"#utility.yul\":22647:23013   */\n      swap2\n      swap1\n      pop\n      jump\t// out\n        /* \"#utility.yul\":23019:23438   */\n    tag_441:\n        /* \"#utility.yul\":23185:23189   */\n      0x00\n        /* \"#utility.yul\":23223:23225   */\n      0x20\n        /* \"#utility.yul\":23212:23221   */\n      dup3\n        /* \"#utility.yul\":23208:23226   */\n      add\n        /* \"#utility.yul\":23200:23226   */\n      swap1\n      pop\n        /* \"#utility.yul\":23272:23281   */\n      dup2\n        /* \"#utility.yul\":23266:23270   */\n      dup2\n        /* \"#utility.yul\":23262:23282   */\n      sub\n        /* \"#utility.yul\":23258:23259   */\n      0x00\n        /* \"#utility.yul\":23247:23256   */\n      dup4\n        /* \"#utility.yul\":23243:23260   */\n      add\n        /* \"#utility.yul\":23236:23283   */\n      mstore\n        /* \"#utility.yul\":23300:23431   */\n      tag_740\n        /* \"#utility.yul\":23426:23430   */\n      dup2\n        /* \"#utility.yul\":23300:23431   */\n      tag_531\n      jump\t// in\n    tag_740:\n        /* \"#utility.yul\":23292:23431   */\n      swap1\n      pop\n        /* \"#utility.yul\":23019:23438   */\n      swap2\n      swap1\n      pop\n      jump\t// out\n        /* \"#utility.yul\":23444:23669   */\n    tag_532:\n        /* \"#utility.yul\":23584:23618   */\n      0x416464726573733a20696e73756666696369656e742062616c616e636520666f\n        /* \"#utility.yul\":23580:23581   */\n      0x00\n        /* \"#utility.yul\":23572:23578   */\n      dup3\n        /* \"#utility.yul\":23568:23582   */\n      add\n        /* \"#utility.yul\":23561:23619   */\n      mstore\n        /* \"#utility.yul\":23653:23661   */\n      0x722063616c6c0000000000000000000000000000000000000000000000000000\n        /* \"#utility.yul\":23648:23650   */\n      0x20\n        /* \"#utility.yul\":23640:23646   */\n      dup3\n        /* \"#utility.yul\":23636:23651   */\n      add\n        /* \"#utility.yul\":23629:23662   */\n      mstore\n        /* \"#utility.yul\":23444:23669   */\n      pop\n      jump\t// out\n        /* \"#utility.yul\":23675:24041   */\n    tag_533:\n        /* \"#utility.yul\":23817:23820   */\n      0x00\n        /* \"#utility.yul\":23838:23905   */\n      tag_743\n        /* \"#utility.yul\":23902:23904   */\n      0x26\n        /* \"#utility.yul\":23897:23900   */\n      dup4\n        /* \"#utility.yul\":23838:23905   */\n      tag_498\n      jump\t// in\n    tag_743:\n        /* \"#utility.yul\":23831:23905   */\n      swap2\n      pop\n        /* \"#utility.yul\":23914:24007   */\n      tag_744\n        /* \"#utility.yul\":24003:24006   */\n      dup3\n        /* \"#utility.yul\":23914:24007   */\n      tag_532\n      jump\t// in\n    tag_744:\n        /* \"#utility.yul\":24032:24034   */\n      0x40\n        /* \"#utility.yul\":24027:24030   */\n      dup3\n        /* \"#utility.yul\":24023:24035   */\n      add\n        /* \"#utility.yul\":24016:24035   */\n      swap1\n      pop\n        /* \"#utility.yul\":23675:24041   */\n      swap2\n      swap1\n      pop\n      jump\t// out\n        /* \"#utility.yul\":24047:24466   */\n    tag_448:\n        /* \"#utility.yul\":24213:24217   */\n      0x00\n        /* \"#utility.yul\":24251:24253   */\n      0x20\n        /* \"#utility.yul\":24240:24249   */\n      dup3\n        /* \"#utility.yul\":24236:24254   */\n      add\n        /* \"#utility.yul\":24228:24254   */\n      swap1\n      pop\n        /* \"#utility.yul\":24300:24309   */\n      dup2\n        /* \"#utility.yul\":24294:24298   */\n      dup2\n        /* \"#utility.yul\":24290:24310   */\n      sub\n        /* \"#utility.yul\":24286:24287   */\n      0x00\n        /* \"#utility.yul\":24275:24284   */\n      dup4\n        /* \"#utility.yul\":24271:24288   */\n      add\n        /* \"#utility.yul\":24264:24311   */\n      mstore\n        /* \"#utility.yul\":24328:24459   */\n      tag_746\n        /* \"#utility.yul\":24454:24458   */\n      dup2\n        /* \"#utility.yul\":24328:24459   */\n      tag_533\n      jump\t// in\n    tag_746:\n        /* \"#utility.yul\":24320:24459   */\n      swap1\n      pop\n        /* \"#utility.yul\":24047:24466   */\n      swap2\n      swap1\n      pop\n      jump\t// out\n        /* \"#utility.yul\":24472:24570   */\n    tag_534:\n        /* \"#utility.yul\":24523:24529   */\n      0x00\n        /* \"#utility.yul\":24557:24562   */\n      dup2\n        /* \"#utility.yul\":24551:24563   */\n      mload\n        /* \"#utility.yul\":24541:24563   */\n      swap1\n      pop\n        /* \"#utility.yul\":24472:24570   */\n      swap2\n      swap1\n      pop\n      jump\t// out\n        /* \"#utility.yul\":24576:24723   */\n    tag_535:\n        /* \"#utility.yul\":24677:24688   */\n      0x00\n        /* \"#utility.yul\":24714:24717   */\n      dup2\n        /* \"#utility.yul\":24699:24717   */\n      swap1\n      pop\n        /* \"#utility.yul\":24576:24723   */\n      swap3\n      swap2\n      pop\n      pop\n      jump\t// out\n        /* \"#utility.yul\":24729:25036   */\n    tag_536:\n        /* \"#utility.yul\":24797:24798   */\n      0x00\n        /* \"#utility.yul\":24807:24920   */\n    tag_750:\n        /* \"#utility.yul\":24821:24827   */\n      dup4\n        /* \"#utility.yul\":24818:24819   */\n      dup2\n        /* \"#utility.yul\":24815:24828   */\n      lt\n        /* \"#utility.yul\":24807:24920   */\n      iszero\n      tag_752\n      jumpi\n        /* \"#utility.yul\":24906:24907   */\n      dup1\n        /* \"#utility.yul\":24901:24904   */\n      dup3\n        /* \"#utility.yul\":24897:24908   */\n      add\n        /* \"#utility.yul\":24891:24909   */\n      mload\n        /* \"#utility.yul\":24887:24888   */\n      dup2\n        /* \"#utility.yul\":24882:24885   */\n      dup5\n        /* \"#utility.yul\":24878:24889   */\n      add\n        /* \"#utility.yul\":24871:24910   */\n      mstore\n        /* \"#utility.yul\":24843:24845   */\n      0x20\n        /* \"#utility.yul\":24840:24841   */\n      dup2\n        /* \"#utility.yul\":24836:24846   */\n      add\n        /* \"#utility.yul\":24831:24846   */\n      swap1\n      pop\n        /* \"#utility.yul\":24807:24920   */\n      jump(tag_750)\n    tag_752:\n        /* \"#utility.yul\":24938:24944   */\n      dup4\n        /* \"#utility.yul\":24935:24936   */\n      dup2\n        /* \"#utility.yul\":24932:24945   */\n      gt\n        /* \"#utility.yul\":24929:25030   */\n      iszero\n      tag_753\n      jumpi\n        /* \"#utility.yul\":25018:25019   */\n      0x00\n        /* \"#utility.yul\":25009:25015   */\n      dup5\n        /* \"#utility.yul\":25004:25007   */\n      dup5\n        /* \"#utility.yul\":25000:25016   */\n      add\n        /* \"#utility.yul\":24993:25020   */\n      mstore\n        /* \"#utility.yul\":24929:25030   */\n    tag_753:\n        /* \"#utility.yul\":24778:25036   */\n      pop\n        /* \"#utility.yul\":24729:25036   */\n      pop\n      pop\n      pop\n      jump\t// out\n        /* \"#utility.yul\":25042:25415   */\n    tag_537:\n        /* \"#utility.yul\":25146:25149   */\n      0x00\n        /* \"#utility.yul\":25174:25212   */\n      tag_755\n        /* \"#utility.yul\":25206:25211   */\n      dup3\n        /* \"#utility.yul\":25174:25212   */\n      tag_534\n      jump\t// in\n    tag_755:\n        /* \"#utility.yul\":25228:25316   */\n      tag_756\n        /* \"#utility.yul\":25309:25315   */\n      dup2\n        /* \"#utility.yul\":25304:25307   */\n      dup6\n        /* \"#utility.yul\":25228:25316   */\n      tag_535\n      jump\t// in\n    tag_756:\n        /* \"#utility.yul\":25221:25316   */\n      swap4\n      pop\n        /* \"#utility.yul\":25325:25377   */\n      tag_757\n        /* \"#utility.yul\":25370:25376   */\n      dup2\n        /* \"#utility.yul\":25365:25368   */\n      dup6\n        /* \"#utility.yul\":25358:25362   */\n      0x20\n        /* \"#utility.yul\":25351:25356   */\n      dup7\n        /* \"#utility.yul\":25347:25363   */\n      add\n        /* \"#utility.yul\":25325:25377   */\n      tag_536\n      jump\t// in\n    tag_757:\n        /* \"#utility.yul\":25402:25408   */\n      dup1\n        /* \"#utility.yul\":25397:25400   */\n      dup5\n        /* \"#utility.yul\":25393:25409   */\n      add\n        /* \"#utility.yul\":25386:25409   */\n      swap2\n      pop\n        /* \"#utility.yul\":25150:25415   */\n      pop\n        /* \"#utility.yul\":25042:25415   */\n      swap3\n      swap2\n      pop\n      pop\n      jump\t// out\n        /* \"#utility.yul\":25421:25692   */\n    tag_450:\n        /* \"#utility.yul\":25551:25554   */\n      0x00\n        /* \"#utility.yul\":25573:25666   */\n      tag_759\n        /* \"#utility.yul\":25662:25665   */\n      dup3\n        /* \"#utility.yul\":25653:25659   */\n      dup5\n        /* \"#utility.yul\":25573:25666   */\n      tag_537\n      jump\t// in\n    tag_759:\n        /* \"#utility.yul\":25566:25666   */\n      swap2\n      pop\n        /* \"#utility.yul\":25683:25686   */\n      dup2\n        /* \"#utility.yul\":25676:25686   */\n      swap1\n      pop\n        /* \"#utility.yul\":25421:25692   */\n      swap3\n      swap2\n      pop\n      pop\n      jump\t// out\n        /* \"#utility.yul\":25698:25877   */\n    tag_538:\n        /* \"#utility.yul\":25838:25869   */\n      0x416464726573733a2063616c6c20746f206e6f6e2d636f6e7472616374000000\n        /* \"#utility.yul\":25834:25835   */\n      0x00\n        /* \"#utility.yul\":25826:25832   */\n      dup3\n        /* \"#utility.yul\":25822:25836   */\n      add\n        /* \"#utility.yul\":25815:25870   */\n      mstore\n        /* \"#utility.yul\":25698:25877   */\n      pop\n      jump\t// out\n        /* \"#utility.yul\":25883:26249   */\n    tag_539:\n        /* \"#utility.yul\":26025:26028   */\n      0x00\n        /* \"#utility.yul\":26046:26113   */\n      tag_762\n        /* \"#utility.yul\":26110:26112   */\n      0x1d\n        /* \"#utility.yul\":26105:26108   */\n      dup4\n        /* \"#utility.yul\":26046:26113   */\n      tag_498\n      jump\t// in\n    tag_762:\n        /* \"#utility.yul\":26039:26113   */\n      swap2\n      pop\n        /* \"#utility.yul\":26122:26215   */\n      tag_763\n        /* \"#utility.yul\":26211:26214   */\n      dup3\n        /* \"#utility.yul\":26122:26215   */\n      tag_538\n      jump\t// in\n    tag_763:\n        /* \"#utility.yul\":26240:26242   */\n      0x20\n        /* \"#utility.yul\":26235:26238   */\n      dup3\n        /* \"#utility.yul\":26231:26243   */\n      add\n        /* \"#utility.yul\":26224:26243   */\n      swap1\n      pop\n        /* \"#utility.yul\":25883:26249   */\n      swap2\n      swap1\n      pop\n      jump\t// out\n        /* \"#utility.yul\":26255:26674   */\n    tag_463:\n        /* \"#utility.yul\":26421:26425   */\n      0x00\n        /* \"#utility.yul\":26459:26461   */\n      0x20\n        /* \"#utility.yul\":26448:26457   */\n      dup3\n        /* \"#utility.yul\":26444:26462   */\n      add\n        /* \"#utility.yul\":26436:26462   */\n      swap1\n      pop\n        /* \"#utility.yul\":26508:26517   */\n      dup2\n        /* \"#utility.yul\":26502:26506   */\n      dup2\n        /* \"#utility.yul\":26498:26518   */\n      sub\n        /* \"#utility.yul\":26494:26495   */\n      0x00\n        /* \"#utility.yul\":26483:26492   */\n      dup4\n        /* \"#utility.yul\":26479:26496   */\n      add\n        /* \"#utility.yul\":26472:26519   */\n      mstore\n        /* \"#utility.yul\":26536:26667   */\n      tag_765\n        /* \"#utility.yul\":26662:26666   */\n      dup2\n        /* \"#utility.yul\":26536:26667   */\n      tag_539\n      jump\t// in\n    tag_765:\n        /* \"#utility.yul\":26528:26667   */\n      swap1\n      pop\n        /* \"#utility.yul\":26255:26674   */\n      swap2\n      swap1\n      pop\n      jump\t// out\n        /* \"#utility.yul\":26680:26779   */\n    tag_540:\n        /* \"#utility.yul\":26732:26738   */\n      0x00\n        /* \"#utility.yul\":26766:26771   */\n      dup2\n        /* \"#utility.yul\":26760:26772   */\n      mload\n        /* \"#utility.yul\":26750:26772   */\n      swap1\n      pop\n        /* \"#utility.yul\":26680:26779   */\n      swap2\n      swap1\n      pop\n      jump\t// out\n        /* \"#utility.yul\":26785:26887   */\n    tag_541:\n        /* \"#utility.yul\":26826:26832   */\n      0x00\n        /* \"#utility.yul\":26877:26879   */\n      0x1f\n        /* \"#utility.yul\":26873:26880   */\n      not\n        /* \"#utility.yul\":26868:26870   */\n      0x1f\n        /* \"#utility.yul\":26861:26866   */\n      dup4\n        /* \"#utility.yul\":26857:26871   */\n      add\n        /* \"#utility.yul\":26853:26881   */\n      and\n        /* \"#utility.yul\":26843:26881   */\n      swap1\n      pop\n        /* \"#utility.yul\":26785:26887   */\n      swap2\n      swap1\n      pop\n      jump\t// out\n        /* \"#utility.yul\":26893:27257   */\n    tag_542:\n        /* \"#utility.yul\":26981:26984   */\n      0x00\n        /* \"#utility.yul\":27009:27048   */\n      tag_769\n        /* \"#utility.yul\":27042:27047   */\n      dup3\n        /* \"#utility.yul\":27009:27048   */\n      tag_540\n      jump\t// in\n    tag_769:\n        /* \"#utility.yul\":27064:27135   */\n      tag_770\n        /* \"#utility.yul\":27128:27134   */\n      dup2\n        /* \"#utility.yul\":27123:27126   */\n      dup6\n        /* \"#utility.yul\":27064:27135   */\n      tag_498\n      jump\t// in\n    tag_770:\n        /* \"#utility.yul\":27057:27135   */\n      swap4\n      pop\n        /* \"#utility.yul\":27144:27196   */\n      tag_771\n        /* \"#utility.yul\":27189:27195   */\n      dup2\n        /* \"#utility.yul\":27184:27187   */\n      dup6\n        /* \"#utility.yul\":27177:27181   */\n      0x20\n        /* \"#utility.yul\":27170:27175   */\n      dup7\n        /* \"#utility.yul\":27166:27182   */\n      add\n        /* \"#utility.yul\":27144:27196   */\n      tag_536\n      jump\t// in\n    tag_771:\n        /* \"#utility.yul\":27221:27250   */\n      tag_772\n        /* \"#utility.yul\":27243:27249   */\n      dup2\n        /* \"#utility.yul\":27221:27250   */\n      tag_541\n      jump\t// in\n    tag_772:\n        /* \"#utility.yul\":27216:27219   */\n      dup5\n        /* \"#utility.yul\":27212:27251   */\n      add\n        /* \"#utility.yul\":27205:27251   */\n      swap2\n      pop\n        /* \"#utility.yul\":26985:27257   */\n      pop\n        /* \"#utility.yul\":26893:27257   */\n      swap3\n      swap2\n      pop\n      pop\n      jump\t// out\n        /* \"#utility.yul\":27263:27576   */\n    tag_472:\n        /* \"#utility.yul\":27376:27380   */\n      0x00\n        /* \"#utility.yul\":27414:27416   */\n      0x20\n        /* \"#utility.yul\":27403:27412   */\n      dup3\n        /* \"#utility.yul\":27399:27417   */\n      add\n        /* \"#utility.yul\":27391:27417   */\n      swap1\n      pop\n        /* \"#utility.yul\":27463:27472   */\n      dup2\n        /* \"#utility.yul\":27457:27461   */\n      dup2\n        /* \"#utility.yul\":27453:27473   */\n      sub\n        /* \"#utility.yul\":27449:27450   */\n      0x00\n        /* \"#utility.yul\":27438:27447   */\n      dup4\n        /* \"#utility.yul\":27434:27451   */\n      add\n        /* \"#utility.yul\":27427:27474   */\n      mstore\n        /* \"#utility.yul\":27491:27569   */\n      tag_774\n        /* \"#utility.yul\":27564:27568   */\n      dup2\n        /* \"#utility.yul\":27555:27561   */\n      dup5\n        /* \"#utility.yul\":27491:27569   */\n      tag_542\n      jump\t// in\n    tag_774:\n        /* \"#utility.yul\":27483:27569   */\n      swap1\n      pop\n        /* \"#utility.yul\":27263:27576   */\n      swap3\n      swap2\n      pop\n      pop\n      jump\t// out\n\n    auxdata: 0xa264697066735822122066fba8993fd174c61890d443294eadde703502fbeaba753d1902e8e4079b46fb64736f6c634300080a0033\n}\n",
				"bytecode": {
					"linkReferences": {},
					"object": "608060405234801561001057600080fd5b506136bd806100206000396000f3fe6080604052600436106101b75760003560e01c80637d6ae6f6116100ec578063cc2effdc1161008a578063e068372611610064578063e0683726146105b3578063e3b0963a146105de578063f2fde38b1461061b578063f7b188a514610644576101b7565b8063cc2effdc14610536578063d8826fec14610561578063df3d23ae1461058a576101b7565b80639479cfa2116100c65780639479cfa21461049b578063b9472535146104c6578063c4031841146104e4578063cc2a9a5b1461050d576101b7565b80637d6ae6f61461041c5780638456cb59146104595780638da5cb5b14610470576101b7565b806351c3e7be116101595780636e8d9a18116101335780636e8d9a18146103865780636f2bb86a146103b157806370b0a843146103da578063715018a614610405576101b7565b806351c3e7be146103055780635c975abb14610330578063636fc28b1461035b576101b7565b8063232da7fe11610195578063232da7fe1461024b57806332b038a314610274578063358b2b1a146102b15780633fd44f17146102dc576101b7565b80630357371d146101bc57806306394c9b146101f957806314866aef14610222575b600080fd5b3480156101c857600080fd5b506101e360048036038101906101de91906129aa565b61065b565b6040516101f091906129f9565b60405180910390f35b34801561020557600080fd5b50610220600480360381019061021b9190612a14565b6108ab565b005b34801561022e57600080fd5b50610249600480360381019061024491906129aa565b61092e565b005b34801561025757600080fd5b50610272600480360381019061026d9190612a14565b610ae4565b005b34801561028057600080fd5b5061029b60048036038101906102969190612a41565b610b67565b6040516102a891906129f9565b60405180910390f35b3480156102bd57600080fd5b506102c6610bf2565b6040516102d39190612acd565b60405180910390f35b3480156102e857600080fd5b5061030360048036038101906102fe9190612a14565b610c18565b005b34801561031157600080fd5b5061031a610d9a565b6040516103279190612b09565b60405180910390f35b34801561033c57600080fd5b50610345610dc0565b6040516103529190612b3f565b60405180910390f35b34801561036757600080fd5b50610370610dd7565b60405161037d9190612b7b565b60405180910390f35b34801561039257600080fd5b5061039b610dfd565b6040516103a89190612ba5565b60405180910390f35b3480156103bd57600080fd5b506103d860048036038101906103d391906129aa565b610e23565b005b3480156103e657600080fd5b506103ef610feb565b6040516103fc9190612ba5565b60405180910390f35b34801561041157600080fd5b5061041a611011565b005b34801561042857600080fd5b50610443600480360381019061043e91906129aa565b611025565b60405161045091906129f9565b60405180910390f35b34801561046557600080fd5b5061046e611194565b005b34801561047c57600080fd5b506104856111a6565b6040516104929190612ba5565b60405180910390f35b3480156104a757600080fd5b506104b06111d0565b6040516104bd9190612ba5565b60405180910390f35b6104ce6111f6565b6040516104db91906129f9565b60405180910390f35b3480156104f057600080fd5b5061050b60048036038101906105069190612a14565b611347565b005b34801561051957600080fd5b50610534600480360381019061052f9190612bc0565b6113ca565b005b34801561054257600080fd5b5061054b611752565b6040516105589190612ba5565b60405180910390f35b34801561056d57600080fd5b5061058860048036038101906105839190612a14565b611778565b005b34801561059657600080fd5b506105b160048036038101906105ac91906129aa565b6118fa565b005b3480156105bf57600080fd5b506105c8611ab0565b6040516105d59190612c6e565b60405180910390f35b3480156105ea57600080fd5b5061060560048036038101906106009190612a14565b611ad6565b60405161061291906129f9565b60405180910390f35b34801561062757600080fd5b50610642600480360381019061063d9190612a14565b611cee565b005b34801561065057600080fd5b50610659611d72565b005b6000610665611d84565b600260975414156106ab576040517f08c379a00000000000000000000000000000000000000000000000000000000081526004016106a290612ce6565b60405180910390fd5b6002609781905550600060cf60009054906101000a900473ffffffffffffffffffffffffffffffffffffffff1673ffffffffffffffffffffffffffffffffffffffff1663d9bbd2786040518163ffffffff1660e01b8152600401602060405180830381865afa158015610722573d6000803e3d6000fd5b505050506040513d601f19601f820116820180604052508101906107469190612d1b565b90508083101561078b576040517f08c379a000000000000000000000000000000000000000000000000000000000815260040161078290612dba565b60405180910390fd5b6107953384611dce565b60cd60009054906101000a900473ffffffffffffffffffffffffffffffffffffffff1673ffffffffffffffffffffffffffffffffffffffff1663db518db285856040518363ffffffff1660e01b81526004016107f2929190612dda565b6020604051808303816000875af1158015610811573d6000803e3d6000fd5b505050506040513d601f19601f820116820180604052508101906108359190612d1b565b91508373ffffffffffffffffffffffffffffffffffffffff163373ffffffffffffffffffffffffffffffffffffffff167f2717ead6b9200dd235aad468c9809ea400fe33ac69b5bfaa6d3e90fc922b63988560405161089491906129f9565b60405180910390a350600160978190555092915050565b6108b3611f26565b8060c960006101000a81548173ffffffffffffffffffffffffffffffffffffffff021916908373ffffffffffffffffffffffffffffffffffffffff1602179055507f8eb831fe42156caaf4721a87ad40c6e662b893dbeee76d7a3ed2564a318b091c816040516109239190612ba5565b60405180910390a150565b6109366111a6565b73ffffffffffffffffffffffffffffffffffffffff163373ffffffffffffffffffffffffffffffffffffffff1614806109bc575060d060009054906101000a900473ffffffffffffffffffffffffffffffffffffffff1673ffffffffffffffffffffffffffffffffffffffff163373ffffffffffffffffffffffffffffffffffffffff16145b6109fb576040517f08c379a00000000000000000000000000000000000000000000000000000000081526004016109f290612e4f565b60405180910390fd5b60026097541415610a41576040517f08c379a0000000000000000000000000000000000000000000000000000000008152600401610a3890612ce6565b60405180910390fd5b600260978190555060cc60009054906101000a900473ffffffffffffffffffffffffffffffffffffffff1673ffffffffffffffffffffffffffffffffffffffff166340c10f1983836040518363ffffffff1660e01b8152600401610aa6929190612dda565b600060405180830381600087803b158015610ac057600080fd5b505af1158015610ad4573d6000803e3d6000fd5b5050505060016097819055505050565b610aec611f26565b8060cc60006101000a81548173ffffffffffffffffffffffffffffffffffffffff021916908373ffffffffffffffffffffffffffffffffffffffff1602179055507f5ab190ac1b858818c30b831d9bd74e6bef6f75de987d59f1beb4aab85d06483281604051610b5c9190612ba5565b60405180910390a150565b600060026097541415610baf576040517f08c379a0000000000000000000000000000000000000000000000000000000008152600401610ba690612ce6565b60405180910390fd5b60026097819055506040517f08c379a0000000000000000000000000000000000000000000000000000000008152600401610be990612ebb565b60405180910390fd5b60cc60009054906101000a900473ffffffffffffffffffffffffffffffffffffffff1681565b610c20611f26565b610c9060ce60009054906101000a900473ffffffffffffffffffffffffffffffffffffffff16600060cb60009054906101000a900473ffffffffffffffffffffffffffffffffffffffff1673ffffffffffffffffffffffffffffffffffffffff16611fa49092919063ffffffff16565b8060cb60006101000a81548173ffffffffffffffffffffffffffffffffffffffff021916908373ffffffffffffffffffffffffffffffffffffffff160217905550610d6060ce60009054906101000a900473ffffffffffffffffffffffffffffffffffffffff167fffffffffffffffffffffffffffffffffffffffffffffffffffffffffffffffff60cb60009054906101000a900473ffffffffffffffffffffffffffffffffffffffff1673ffffffffffffffffffffffffffffffffffffffff16611fa49092919063ffffffff16565b7f1c51d83fbf878c22f78dd72bd5f93a9adfa124683a91b2ad431f10c9ff731db481604051610d8f9190612ba5565b60405180910390a150565b60cd60009054906101000a900473ffffffffffffffffffffffffffffffffffffffff1681565b6000606560009054906101000a900460ff16905090565b60cf60009054906101000a900473ffffffffffffffffffffffffffffffffffffffff1681565b60cb60009054906101000a900473ffffffffffffffffffffffffffffffffffffffff1681565b610e2b6111a6565b73ffffffffffffffffffffffffffffffffffffffff163373ffffffffffffffffffffffffffffffffffffffff161480610eb1575060d060009054906101000a900473ffffffffffffffffffffffffffffffffffffffff1673ffffffffffffffffffffffffffffffffffffffff163373ffffffffffffffffffffffffffffffffffffffff16145b610ef0576040517f08c379a0000000000000000000000000000000000000000000000000000000008152600401610ee790612e4f565b60405180910390fd5b60026097541415610f36576040517f08c379a0000000000000000000000000000000000000000000000000000000008152600401610f2d90612ce6565b60405180910390fd5b600260978190555060cd60009054906101000a900473ffffffffffffffffffffffffffffffffffffffff1673ffffffffffffffffffffffffffffffffffffffff166303550d5683836040518363ffffffff1660e01b8152600401610f9b929190612dda565b6020604051808303816000875af1158015610fba573d6000803e3d6000fd5b505050506040513d601f19601f82011682018060405250810190610fde9190612d1b565b5060016097819055505050565b60c960009054906101000a900473ffffffffffffffffffffffffffffffffffffffff1681565b611019611f26565b61102360006120f3565b565b60006002609754141561106d576040517f08c379a000000000000000000000000000000000000000000000000000000000815260040161106490612ce6565b60405180910390fd5b600260978190555061107f3383611dce565b60cd60009054906101000a900473ffffffffffffffffffffffffffffffffffffffff1673ffffffffffffffffffffffffffffffffffffffff166303550d5684846040518363ffffffff1660e01b81526004016110dc929190612dda565b6020604051808303816000875af11580156110fb573d6000803e3d6000fd5b505050506040513d601f19601f8201168201806040525081019061111f9190612d1b565b90508273ffffffffffffffffffffffffffffffffffffffff163373ffffffffffffffffffffffffffffffffffffffff167f2717ead6b9200dd235aad468c9809ea400fe33ac69b5bfaa6d3e90fc922b63988360405161117e91906129f9565b60405180910390a3600160978190555092915050565b61119c611f26565b6111a46121b9565b565b6000603360009054906101000a900473ffffffffffffffffffffffffffffffffffffffff16905090565b60ca60009054906101000a900473ffffffffffffffffffffffffffffffffffffffff1681565b6000611200611d84565b60026097541415611246576040517f08c379a000000000000000000000000000000000000000000000000000000000815260040161123d90612ce6565b60405180910390fd5b600260978190555060cd60009054906101000a900473ffffffffffffffffffffffffffffffffffffffff1673ffffffffffffffffffffffffffffffffffffffff1663d0e30db0346040518263ffffffff1660e01b815260040160206040518083038185885af11580156112bd573d6000803e3d6000fd5b50505050506040513d601f19601f820116820180604052508101906112e29190612d1b565b90506112ee338261221c565b3373ffffffffffffffffffffffffffffffffffffffff167fe1fffcc4923d04b559f4d29a8bfc6cda04eb5b0d3c460751c2402c5c5cc9109c8260405161133491906129f9565b60405180910390a2600160978190555090565b61134f611f26565b8060d060006101000a81548173ffffffffffffffffffffffffffffffffffffffff021916908373ffffffffffffffffffffffffffffffffffffffff1602179055507fcf16493c33f7a5001593c6b3158b6613c39a56bed7e2fe27f83a7ee297b6e32a816040516113bf9190612ba5565b60405180910390a150565b60008060019054906101000a900460ff161590508080156113fb5750600160008054906101000a900460ff1660ff16105b80611428575061140a30612374565b1580156114275750600160008054906101000a900460ff1660ff16145b5b611467576040517f08c379a000000000000000000000000000000000000000000000000000000000815260040161145e90612f4d565b60405180910390fd5b60016000806101000a81548160ff021916908360ff16021790555080156114a4576001600060016101000a81548160ff0219169083151502179055505b6114ac612397565b6114b46123f0565b6114bc612449565b3360c960006101000a81548173ffffffffffffffffffffffffffffffffffffffff021916908373ffffffffffffffffffffffffffffffffffffffff1602179055508660cc60006101000a81548173ffffffffffffffffffffffffffffffffffffffff021916908373ffffffffffffffffffffffffffffffffffffffff1602179055508560ca60006101000a81548173ffffffffffffffffffffffffffffffffffffffff021916908373ffffffffffffffffffffffffffffffffffffffff1602179055508460cb60006101000a81548173ffffffffffffffffffffffffffffffffffffffff021916908373ffffffffffffffffffffffffffffffffffffffff1602179055508360cd60006101000a81548173ffffffffffffffffffffffffffffffffffffffff021916908373ffffffffffffffffffffffffffffffffffffffff1602179055508260ce60006101000a81548173ffffffffffffffffffffffffffffffffffffffff021916908373ffffffffffffffffffffffffffffffffffffffff1602179055508160cf60006101000a81548173ffffffffffffffffffffffffffffffffffffffff021916908373ffffffffffffffffffffffffffffffffffffffff1602179055506116f0837fffffffffffffffffffffffffffffffffffffffffffffffffffffffffffffffff60cb60009054906101000a900473ffffffffffffffffffffffffffffffffffffffff1673ffffffffffffffffffffffffffffffffffffffff16611fa49092919063ffffffff16565b80156117495760008060016101000a81548160ff0219169083151502179055507f7f26b83ff96e1f2b6a682f133852f6798a09c465da95921460cefb384740249860016040516117409190612fb5565b60405180910390a15b50505050505050565b60d060009054906101000a900473ffffffffffffffffffffffffffffffffffffffff1681565b611780611f26565b6117f060ce60009054906101000a900473ffffffffffffffffffffffffffffffffffffffff16600060cb60009054906101000a900473ffffffffffffffffffffffffffffffffffffffff1673ffffffffffffffffffffffffffffffffffffffff16611fa49092919063ffffffff16565b8060ce60006101000a81548173ffffffffffffffffffffffffffffffffffffffff021916908373ffffffffffffffffffffffffffffffffffffffff1602179055506118c060ce60009054906101000a900473ffffffffffffffffffffffffffffffffffffffff167fffffffffffffffffffffffffffffffffffffffffffffffffffffffffffffffff60cb60009054906101000a900473ffffffffffffffffffffffffffffffffffffffff1673ffffffffffffffffffffffffffffffffffffffff16611fa49092919063ffffffff16565b7f31a1aa5f369c073ebb0b9d07b962961a2fcaf8ae160e6485f220450f9d7f8c53816040516118ef9190612ba5565b60405180910390a150565b6119026111a6565b73ffffffffffffffffffffffffffffffffffffffff163373ffffffffffffffffffffffffffffffffffffffff161480611988575060d060009054906101000a900473ffffffffffffffffffffffffffffffffffffffff1673ffffffffffffffffffffffffffffffffffffffff163373ffffffffffffffffffffffffffffffffffffffff16145b6119c7576040517f08c379a00000000000000000000000000000000000000000000000000000000081526004016119be90612e4f565b60405180910390fd5b60026097541415611a0d576040517f08c379a0000000000000000000000000000000000000000000000000000000008152600401611a0490612ce6565b60405180910390fd5b600260978190555060cc60009054906101000a900473ffffffffffffffffffffffffffffffffffffffff1673ffffffffffffffffffffffffffffffffffffffff16639dc29fac83836040518363ffffffff1660e01b8152600401611a72929190612dda565b600060405180830381600087803b158015611a8c57600080fd5b505af1158015611aa0573d6000803e3d6000fd5b5050505060016097819055505050565b60ce60009054906101000a900473ffffffffffffffffffffffffffffffffffffffff1681565b600060026097541415611b1e576040517f08c379a0000000000000000000000000000000000000000000000000000000008152600401611b1590612ce6565b60405180910390fd5b6002609781905550611b2e6111a6565b73ffffffffffffffffffffffffffffffffffffffff163373ffffffffffffffffffffffffffffffffffffffff161480611bb4575060c960009054906101000a900473ffffffffffffffffffffffffffffffffffffffff1673ffffffffffffffffffffffffffffffffffffffff163373ffffffffffffffffffffffffffffffffffffffff16145b611bf3576040517f08c379a0000000000000000000000000000000000000000000000000000000008152600401611bea9061301c565b60405180910390fd5b60cd60009054906101000a900473ffffffffffffffffffffffffffffffffffffffff1673ffffffffffffffffffffffffffffffffffffffff16631e83409a836040518263ffffffff1660e01b8152600401611c4e9190612ba5565b6020604051808303816000875af1158015611c6d573d6000803e3d6000fd5b505050506040513d601f19601f82011682018060405250810190611c919190612d1b565b90508173ffffffffffffffffffffffffffffffffffffffff167f47cee97cb7acd717b3c0aa1435d004cd5b3c8c57d70dbceb4e4458bbd60e39d482604051611cd991906129f9565b60405180910390a26001609781905550919050565b611cf6611f26565b600073ffffffffffffffffffffffffffffffffffffffff168173ffffffffffffffffffffffffffffffffffffffff161415611d66576040517f08c379a0000000000000000000000000000000000000000000000000000000008152600401611d5d906130ae565b60405180910390fd5b611d6f816120f3565b50565b611d7a611f26565b611d826124a2565b565b611d8c610dc0565b15611dcc576040517f08c379a0000000000000000000000000000000000000000000000000000000008152600401611dc39061311a565b60405180910390fd5b565b60ce60009054906101000a900473ffffffffffffffffffffffffffffffffffffffff1673ffffffffffffffffffffffffffffffffffffffff1663d9caed128360cb60009054906101000a900473ffffffffffffffffffffffffffffffffffffffff16846040518463ffffffff1660e01b8152600401611e4f9392919061313a565b6020604051808303816000875af1158015611e6e573d6000803e3d6000fd5b505050506040513d601f19601f82011682018060405250810190611e929190612d1b565b5060cc60009054906101000a900473ffffffffffffffffffffffffffffffffffffffff1673ffffffffffffffffffffffffffffffffffffffff16639dc29fac83836040518363ffffffff1660e01b8152600401611ef0929190612dda565b600060405180830381600087803b158015611f0a57600080fd5b505af1158015611f1e573d6000803e3d6000fd5b505050505050565b611f2e612505565b73ffffffffffffffffffffffffffffffffffffffff16611f4c6111a6565b73ffffffffffffffffffffffffffffffffffffffff1614611fa2576040517f08c379a0000000000000000000000000000000000000000000000000000000008152600401611f99906131bd565b60405180910390fd5b565b600081148061202e575060008373ffffffffffffffffffffffffffffffffffffffff1663dd62ed3e30856040518363ffffffff1660e01b8152600401611feb9291906131dd565b602060405180830381865afa158015612008573d6000803e3d6000fd5b505050506040513d601f19601f8201168201806040525081019061202c9190612d1b565b145b61206d576040517f08c379a000000000000000000000000000000000000000000000000000000000815260040161206490613278565b60405180910390fd5b6120ee8363095ea7b360e01b848460405160240161208c929190612dda565b604051602081830303815290604052907bffffffffffffffffffffffffffffffffffffffffffffffffffffffff19166020820180517bffffffffffffffffffffffffffffffffffffffffffffffffffffffff838183161783525050505061250d565b505050565b6000603360009054906101000a900473ffffffffffffffffffffffffffffffffffffffff16905081603360006101000a81548173ffffffffffffffffffffffffffffffffffffffff021916908373ffffffffffffffffffffffffffffffffffffffff1602179055508173ffffffffffffffffffffffffffffffffffffffff168173ffffffffffffffffffffffffffffffffffffffff167f8be0079c531659141344cd1fd0a4f28419497f9722a3daafe3b4186f6b6457e060405160405180910390a35050565b6121c1611d84565b6001606560006101000a81548160ff0219169083151502179055507f62e78cea01bee320cd4e420270b5ea74000d11b0c9f74754ebdbfc544b05a258612205612505565b6040516122129190612ba5565b60405180910390a1565b60ce60009054906101000a900473ffffffffffffffffffffffffffffffffffffffff1673ffffffffffffffffffffffffffffffffffffffff16638340f5498360cb60009054906101000a900473ffffffffffffffffffffffffffffffffffffffff16846040518463ffffffff1660e01b815260040161229d9392919061313a565b6020604051808303816000875af11580156122bc573d6000803e3d6000fd5b505050506040513d601f19601f820116820180604052508101906122e09190612d1b565b5060cc60009054906101000a900473ffffffffffffffffffffffffffffffffffffffff1673ffffffffffffffffffffffffffffffffffffffff166340c10f1983836040518363ffffffff1660e01b815260040161233e929190612dda565b600060405180830381600087803b15801561235857600080fd5b505af115801561236c573d6000803e3d6000fd5b505050505050565b6000808273ffffffffffffffffffffffffffffffffffffffff163b119050919050565b600060019054906101000a900460ff166123e6576040517f08c379a00000000000000000000000000000000000000000000000000000000081526004016123dd9061330a565b60405180910390fd5b6123ee6125d4565b565b600060019054906101000a900460ff1661243f576040517f08c379a00000000000000000000000000000000000000000000000000000000081526004016124369061330a565b60405180910390fd5b612447612635565b565b600060019054906101000a900460ff16612498576040517f08c379a000000000000000000000000000000000000000000000000000000000815260040161248f9061330a565b60405180910390fd5b6124a06126a1565b565b6124aa6126fa565b6000606560006101000a81548160ff0219169083151502179055507f5db9ee0a495bf2e6ff9c91a7834c1ba4fdd244a5e8aa4e537bd38aeae4b073aa6124ee612505565b6040516124fb9190612ba5565b60405180910390a1565b600033905090565b600061256f826040518060400160405280602081526020017f5361666545524332303a206c6f772d6c6576656c2063616c6c206661696c65648152508573ffffffffffffffffffffffffffffffffffffffff166127439092919063ffffffff16565b90506000815111156125cf578080602001905181019061258f9190613356565b6125ce576040517f08c379a00000000000000000000000000000000000000000000000000000000081526004016125c5906133f5565b60405180910390fd5b5b505050565b600060019054906101000a900460ff16612623576040517f08c379a000000000000000000000000000000000000000000000000000000000815260040161261a9061330a565b60405180910390fd5b61263361262e612505565b6120f3565b565b600060019054906101000a900460ff16612684576040517f08c379a000000000000000000000000000000000000000000000000000000000815260040161267b9061330a565b60405180910390fd5b6000606560006101000a81548160ff021916908315150217905550565b600060019054906101000a900460ff166126f0576040517f08c379a00000000000000000000000000000000000000000000000000000000081526004016126e79061330a565b60405180910390fd5b6001609781905550565b612702610dc0565b612741576040517f08c379a000000000000000000000000000000000000000000000000000000000815260040161273890613461565b60405180910390fd5b565b6060612752848460008561275b565b90509392505050565b6060824710156127a0576040517f08c379a0000000000000000000000000000000000000000000000000000000008152600401612797906134f3565b60405180910390fd5b6000808673ffffffffffffffffffffffffffffffffffffffff1685876040516127c9919061358d565b60006040518083038185875af1925050503d8060008114612806576040519150601f19603f3d011682016040523d82523d6000602084013e61280b565b606091505b509150915061281c87838387612828565b92505050949350505050565b6060831561288b57600083511415612883576128438561289e565b612882576040517f08c379a0000000000000000000000000000000000000000000000000000000008152600401612879906135f0565b60405180910390fd5b5b829050612896565b61289583836128c1565b5b949350505050565b6000808273ffffffffffffffffffffffffffffffffffffffff163b119050919050565b6000825111156128d45781518083602001fd5b806040517f08c379a00000000000000000000000000000000000000000000000000000000081526004016129089190613665565b60405180910390fd5b600080fd5b600073ffffffffffffffffffffffffffffffffffffffff82169050919050565b600061294182612916565b9050919050565b61295181612936565b811461295c57600080fd5b50565b60008135905061296e81612948565b92915050565b6000819050919050565b61298781612974565b811461299257600080fd5b50565b6000813590506129a48161297e565b92915050565b600080604083850312156129c1576129c0612911565b5b60006129cf8582860161295f565b92505060206129e085828601612995565b9150509250929050565b6129f381612974565b82525050565b6000602082019050612a0e60008301846129ea565b92915050565b600060208284031215612a2a57612a29612911565b5b6000612a388482850161295f565b91505092915050565b600060208284031215612a5757612a56612911565b5b6000612a6584828501612995565b91505092915050565b6000819050919050565b6000612a93612a8e612a8984612916565b612a6e565b612916565b9050919050565b6000612aa582612a78565b9050919050565b6000612ab782612a9a565b9050919050565b612ac781612aac565b82525050565b6000602082019050612ae26000830184612abe565b92915050565b6000612af382612a9a565b9050919050565b612b0381612ae8565b82525050565b6000602082019050612b1e6000830184612afa565b92915050565b60008115159050919050565b612b3981612b24565b82525050565b6000602082019050612b546000830184612b30565b92915050565b6000612b6582612a9a565b9050919050565b612b7581612b5a565b82525050565b6000602082019050612b906000830184612b6c565b92915050565b612b9f81612936565b82525050565b6000602082019050612bba6000830184612b96565b92915050565b60008060008060008060c08789031215612bdd57612bdc612911565b5b6000612beb89828a0161295f565b9650506020612bfc89828a0161295f565b9550506040612c0d89828a0161295f565b9450506060612c1e89828a0161295f565b9350506080612c2f89828a0161295f565b92505060a0612c4089828a0161295f565b9150509295509295509295565b6000612c5882612a9a565b9050919050565b612c6881612c4d565b82525050565b6000602082019050612c836000830184612c5f565b92915050565b600082825260208201905092915050565b7f5265656e7472616e637947756172643a207265656e7472616e742063616c6c00600082015250565b6000612cd0601f83612c89565b9150612cdb82612c9a565b602082019050919050565b60006020820190508181036000830152612cff81612cc3565b9050919050565b600081519050612d158161297e565b92915050565b600060208284031215612d3157612d30612911565b5b6000612d3f84828501612d06565b91505092915050565b7f76616c7565206d7573742062652067726561746572207468616e206d696e207560008201527f6e7374616b6520616d6f756e7400000000000000000000000000000000000000602082015250565b6000612da4602d83612c89565b9150612daf82612d48565b604082019050919050565b60006020820190508181036000830152612dd381612d97565b9050919050565b6000604082019050612def6000830185612b96565b612dfc60208301846129ea565b9392505050565b7f41756374696f6e50726f78793a206e6f7420616c6c6f77656400000000000000600082015250565b6000612e39601983612c89565b9150612e4482612e03565b602082019050919050565b60006020820190508181036000830152612e6881612e2c565b9050919050565b7f48656c696f50726f76696465722f44697361626c656400000000000000000000600082015250565b6000612ea5601683612c89565b9150612eb082612e6f565b602082019050919050565b60006020820190508181036000830152612ed481612e98565b9050919050565b7f496e697469616c697a61626c653a20636f6e747261637420697320616c72656160008201527f647920696e697469616c697a6564000000000000000000000000000000000000602082015250565b6000612f37602e83612c89565b9150612f4282612edb565b604082019050919050565b60006020820190508181036000830152612f6681612f2a565b9050919050565b6000819050919050565b600060ff82169050919050565b6000612f9f612f9a612f9584612f6d565b612a6e565b612f77565b9050919050565b612faf81612f84565b82525050565b6000602082019050612fca6000830184612fa6565b92915050565b7f4f70657261746f723a206e6f7420616c6c6f7765640000000000000000000000600082015250565b6000613006601583612c89565b915061301182612fd0565b602082019050919050565b6000602082019050818103600083015261303581612ff9565b9050919050565b7f4f776e61626c653a206e6577206f776e657220697320746865207a65726f206160008201527f6464726573730000000000000000000000000000000000000000000000000000602082015250565b6000613098602683612c89565b91506130a38261303c565b604082019050919050565b600060208201905081810360008301526130c78161308b565b9050919050565b7f5061757361626c653a2070617573656400000000000000000000000000000000600082015250565b6000613104601083612c89565b915061310f826130ce565b602082019050919050565b60006020820190508181036000830152613133816130f7565b9050919050565b600060608201905061314f6000830186612b96565b61315c6020830185612b96565b61316960408301846129ea565b949350505050565b7f4f776e61626c653a2063616c6c6572206973206e6f7420746865206f776e6572600082015250565b60006131a7602083612c89565b91506131b282613171565b602082019050919050565b600060208201905081810360008301526131d68161319a565b9050919050565b60006040820190506131f26000830185612b96565b6131ff6020830184612b96565b9392505050565b7f5361666545524332303a20617070726f76652066726f6d206e6f6e2d7a65726f60008201527f20746f206e6f6e2d7a65726f20616c6c6f77616e636500000000000000000000602082015250565b6000613262603683612c89565b915061326d82613206565b604082019050919050565b6000602082019050818103600083015261329181613255565b9050919050565b7f496e697469616c697a61626c653a20636f6e7472616374206973206e6f74206960008201527f6e697469616c697a696e67000000000000000000000000000000000000000000602082015250565b60006132f4602b83612c89565b91506132ff82613298565b604082019050919050565b60006020820190508181036000830152613323816132e7565b9050919050565b61333381612b24565b811461333e57600080fd5b50565b6000815190506133508161332a565b92915050565b60006020828403121561336c5761336b612911565b5b600061337a84828501613341565b91505092915050565b7f5361666545524332303a204552433230206f7065726174696f6e20646964206e60008201527f6f74207375636365656400000000000000000000000000000000000000000000602082015250565b60006133df602a83612c89565b91506133ea82613383565b604082019050919050565b6000602082019050818103600083015261340e816133d2565b9050919050565b7f5061757361626c653a206e6f7420706175736564000000000000000000000000600082015250565b600061344b601483612c89565b915061345682613415565b602082019050919050565b6000602082019050818103600083015261347a8161343e565b9050919050565b7f416464726573733a20696e73756666696369656e742062616c616e636520666f60008201527f722063616c6c0000000000000000000000000000000000000000000000000000602082015250565b60006134dd602683612c89565b91506134e882613481565b604082019050919050565b6000602082019050818103600083015261350c816134d0565b9050919050565b600081519050919050565b600081905092915050565b60005b8381101561354757808201518184015260208101905061352c565b83811115613556576000848401525b50505050565b600061356782613513565b613571818561351e565b9350613581818560208601613529565b80840191505092915050565b6000613599828461355c565b915081905092915050565b7f416464726573733a2063616c6c20746f206e6f6e2d636f6e7472616374000000600082015250565b60006135da601d83612c89565b91506135e5826135a4565b602082019050919050565b60006020820190508181036000830152613609816135cd565b9050919050565b600081519050919050565b6000601f19601f8301169050919050565b600061363782613610565b6136418185612c89565b9350613651818560208601613529565b61365a8161361b565b840191505092915050565b6000602082019050818103600083015261367f818461362c565b90509291505056fea264697066735822122066fba8993fd174c61890d443294eadde703502fbeaba753d1902e8e4079b46fb64736f6c634300080a0033",
					"opcodes": "PUSH1 0x80 PUSH1 0x40 MSTORE CALLVALUE DUP1 ISZERO PUSH2 0x10 JUMPI PUSH1 0x0 DUP1 REVERT JUMPDEST POP PUSH2 0x36BD DUP1 PUSH2 0x20 PUSH1 0x0 CODECOPY PUSH1 0x0 RETURN INVALID PUSH1 0x80 PUSH1 0x40 MSTORE PUSH1 0x4 CALLDATASIZE LT PUSH2 0x1B7 JUMPI PUSH1 0x0 CALLDATALOAD PUSH1 0xE0 SHR DUP1 PUSH4 0x7D6AE6F6 GT PUSH2 0xEC JUMPI DUP1 PUSH4 0xCC2EFFDC GT PUSH2 0x8A JUMPI DUP1 PUSH4 0xE0683726 GT PUSH2 0x64 JUMPI DUP1 PUSH4 0xE0683726 EQ PUSH2 0x5B3 JUMPI DUP1 PUSH4 0xE3B0963A EQ PUSH2 0x5DE JUMPI DUP1 PUSH4 0xF2FDE38B EQ PUSH2 0x61B JUMPI DUP1 PUSH4 0xF7B188A5 EQ PUSH2 0x644 JUMPI PUSH2 0x1B7 JUMP JUMPDEST DUP1 PUSH4 0xCC2EFFDC EQ PUSH2 0x536 JUMPI DUP1 PUSH4 0xD8826FEC EQ PUSH2 0x561 JUMPI DUP1 PUSH4 0xDF3D23AE EQ PUSH2 0x58A JUMPI PUSH2 0x1B7 JUMP JUMPDEST DUP1 PUSH4 0x9479CFA2 GT PUSH2 0xC6 JUMPI DUP1 PUSH4 0x9479CFA2 EQ PUSH2 0x49B JUMPI DUP1 PUSH4 0xB9472535 EQ PUSH2 0x4C6 JUMPI DUP1 PUSH4 0xC4031841 EQ PUSH2 0x4E4 JUMPI DUP1 PUSH4 0xCC2A9A5B EQ PUSH2 0x50D JUMPI PUSH2 0x1B7 JUMP JUMPDEST DUP1 PUSH4 0x7D6AE6F6 EQ PUSH2 0x41C JUMPI DUP1 PUSH4 0x8456CB59 EQ PUSH2 0x459 JUMPI DUP1 PUSH4 0x8DA5CB5B EQ PUSH2 0x470 JUMPI PUSH2 0x1B7 JUMP JUMPDEST DUP1 PUSH4 0x51C3E7BE GT PUSH2 0x159 JUMPI DUP1 PUSH4 0x6E8D9A18 GT PUSH2 0x133 JUMPI DUP1 PUSH4 0x6E8D9A18 EQ PUSH2 0x386 JUMPI DUP1 PUSH4 0x6F2BB86A EQ PUSH2 0x3B1 JUMPI DUP1 PUSH4 0x70B0A843 EQ PUSH2 0x3DA JUMPI DUP1 PUSH4 0x715018A6 EQ PUSH2 0x405 JUMPI PUSH2 0x1B7 JUMP JUMPDEST DUP1 PUSH4 0x51C3E7BE EQ PUSH2 0x305 JUMPI DUP1 PUSH4 0x5C975ABB EQ PUSH2 0x330 JUMPI DUP1 PUSH4 0x636FC28B EQ PUSH2 0x35B JUMPI PUSH2 0x1B7 JUMP JUMPDEST DUP1 PUSH4 0x232DA7FE GT PUSH2 0x195 JUMPI DUP1 PUSH4 0x232DA7FE EQ PUSH2 0x24B JUMPI DUP1 PUSH4 0x32B038A3 EQ PUSH2 0x274 JUMPI DUP1 PUSH4 0x358B2B1A EQ PUSH2 0x2B1 JUMPI DUP1 PUSH4 0x3FD44F17 EQ PUSH2 0x2DC JUMPI PUSH2 0x1B7 JUMP JUMPDEST DUP1 PUSH4 0x357371D EQ PUSH2 0x1BC JUMPI DUP1 PUSH4 0x6394C9B EQ PUSH2 0x1F9 JUMPI DUP1 PUSH4 0x14866AEF EQ PUSH2 0x222 JUMPI JUMPDEST PUSH1 0x0 DUP1 REVERT JUMPDEST CALLVALUE DUP1 ISZERO PUSH2 0x1C8 JUMPI PUSH1 0x0 DUP1 REVERT JUMPDEST POP PUSH2 0x1E3 PUSH1 0x4 DUP1 CALLDATASIZE SUB DUP2 ADD SWAP1 PUSH2 0x1DE SWAP2 SWAP1 PUSH2 0x29AA JUMP JUMPDEST PUSH2 0x65B JUMP JUMPDEST PUSH1 0x40 MLOAD PUSH2 0x1F0 SWAP2 SWAP1 PUSH2 0x29F9 JUMP JUMPDEST PUSH1 0x40 MLOAD DUP1 SWAP2 SUB SWAP1 RETURN JUMPDEST CALLVALUE DUP1 ISZERO PUSH2 0x205 JUMPI PUSH1 0x0 DUP1 REVERT JUMPDEST POP PUSH2 0x220 PUSH1 0x4 DUP1 CALLDATASIZE SUB DUP2 ADD SWAP1 PUSH2 0x21B SWAP2 SWAP1 PUSH2 0x2A14 JUMP JUMPDEST PUSH2 0x8AB JUMP JUMPDEST STOP JUMPDEST CALLVALUE DUP1 ISZERO PUSH2 0x22E JUMPI PUSH1 0x0 DUP1 REVERT JUMPDEST POP PUSH2 0x249 PUSH1 0x4 DUP1 CALLDATASIZE SUB DUP2 ADD SWAP1 PUSH2 0x244 SWAP2 SWAP1 PUSH2 0x29AA JUMP JUMPDEST PUSH2 0x92E JUMP JUMPDEST STOP JUMPDEST CALLVALUE DUP1 ISZERO PUSH2 0x257 JUMPI PUSH1 0x0 DUP1 REVERT JUMPDEST POP PUSH2 0x272 PUSH1 0x4 DUP1 CALLDATASIZE SUB DUP2 ADD SWAP1 PUSH2 0x26D SWAP2 SWAP1 PUSH2 0x2A14 JUMP JUMPDEST PUSH2 0xAE4 JUMP JUMPDEST STOP JUMPDEST CALLVALUE DUP1 ISZERO PUSH2 0x280 JUMPI PUSH1 0x0 DUP1 REVERT JUMPDEST POP PUSH2 0x29B PUSH1 0x4 DUP1 CALLDATASIZE SUB DUP2 ADD SWAP1 PUSH2 0x296 SWAP2 SWAP1 PUSH2 0x2A41 JUMP JUMPDEST PUSH2 0xB67 JUMP JUMPDEST PUSH1 0x40 MLOAD PUSH2 0x2A8 SWAP2 SWAP1 PUSH2 0x29F9 JUMP JUMPDEST PUSH1 0x40 MLOAD DUP1 SWAP2 SUB SWAP1 RETURN JUMPDEST CALLVALUE DUP1 ISZERO PUSH2 0x2BD JUMPI PUSH1 0x0 DUP1 REVERT JUMPDEST POP PUSH2 0x2C6 PUSH2 0xBF2 JUMP JUMPDEST PUSH1 0x40 MLOAD PUSH2 0x2D3 SWAP2 SWAP1 PUSH2 0x2ACD JUMP JUMPDEST PUSH1 0x40 MLOAD DUP1 SWAP2 SUB SWAP1 RETURN JUMPDEST CALLVALUE DUP1 ISZERO PUSH2 0x2E8 JUMPI PUSH1 0x0 DUP1 REVERT JUMPDEST POP PUSH2 0x303 PUSH1 0x4 DUP1 CALLDATASIZE SUB DUP2 ADD SWAP1 PUSH2 0x2FE SWAP2 SWAP1 PUSH2 0x2A14 JUMP JUMPDEST PUSH2 0xC18 JUMP JUMPDEST STOP JUMPDEST CALLVALUE DUP1 ISZERO PUSH2 0x311 JUMPI PUSH1 0x0 DUP1 REVERT JUMPDEST POP PUSH2 0x31A PUSH2 0xD9A JUMP JUMPDEST PUSH1 0x40 MLOAD PUSH2 0x327 SWAP2 SWAP1 PUSH2 0x2B09 JUMP JUMPDEST PUSH1 0x40 MLOAD DUP1 SWAP2 SUB SWAP1 RETURN JUMPDEST CALLVALUE DUP1 ISZERO PUSH2 0x33C JUMPI PUSH1 0x0 DUP1 REVERT JUMPDEST POP PUSH2 0x345 PUSH2 0xDC0 JUMP JUMPDEST PUSH1 0x40 MLOAD PUSH2 0x352 SWAP2 SWAP1 PUSH2 0x2B3F JUMP JUMPDEST PUSH1 0x40 MLOAD DUP1 SWAP2 SUB SWAP1 RETURN JUMPDEST CALLVALUE DUP1 ISZERO PUSH2 0x367 JUMPI PUSH1 0x0 DUP1 REVERT JUMPDEST POP PUSH2 0x370 PUSH2 0xDD7 JUMP JUMPDEST PUSH1 0x40 MLOAD PUSH2 0x37D SWAP2 SWAP1 PUSH2 0x2B7B JUMP JUMPDEST PUSH1 0x40 MLOAD DUP1 SWAP2 SUB SWAP1 RETURN JUMPDEST CALLVALUE DUP1 ISZERO PUSH2 0x392 JUMPI PUSH1 0x0 DUP1 REVERT JUMPDEST POP PUSH2 0x39B PUSH2 0xDFD JUMP JUMPDEST PUSH1 0x40 MLOAD PUSH2 0x3A8 SWAP2 SWAP1 PUSH2 0x2BA5 JUMP JUMPDEST PUSH1 0x40 MLOAD DUP1 SWAP2 SUB SWAP1 RETURN JUMPDEST CALLVALUE DUP1 ISZERO PUSH2 0x3BD JUMPI PUSH1 0x0 DUP1 REVERT JUMPDEST POP PUSH2 0x3D8 PUSH1 0x4 DUP1 CALLDATASIZE SUB DUP2 ADD SWAP1 PUSH2 0x3D3 SWAP2 SWAP1 PUSH2 0x29AA JUMP JUMPDEST PUSH2 0xE23 JUMP JUMPDEST STOP JUMPDEST CALLVALUE DUP1 ISZERO PUSH2 0x3E6 JUMPI PUSH1 0x0 DUP1 REVERT JUMPDEST POP PUSH2 0x3EF PUSH2 0xFEB JUMP JUMPDEST PUSH1 0x40 MLOAD PUSH2 0x3FC SWAP2 SWAP1 PUSH2 0x2BA5 JUMP JUMPDEST PUSH1 0x40 MLOAD DUP1 SWAP2 SUB SWAP1 RETURN JUMPDEST CALLVALUE DUP1 ISZERO PUSH2 0x411 JUMPI PUSH1 0x0 DUP1 REVERT JUMPDEST POP PUSH2 0x41A PUSH2 0x1011 JUMP JUMPDEST STOP JUMPDEST CALLVALUE DUP1 ISZERO PUSH2 0x428 JUMPI PUSH1 0x0 DUP1 REVERT JUMPDEST POP PUSH2 0x443 PUSH1 0x4 DUP1 CALLDATASIZE SUB DUP2 ADD SWAP1 PUSH2 0x43E SWAP2 SWAP1 PUSH2 0x29AA JUMP JUMPDEST PUSH2 0x1025 JUMP JUMPDEST PUSH1 0x40 MLOAD PUSH2 0x450 SWAP2 SWAP1 PUSH2 0x29F9 JUMP JUMPDEST PUSH1 0x40 MLOAD DUP1 SWAP2 SUB SWAP1 RETURN JUMPDEST CALLVALUE DUP1 ISZERO PUSH2 0x465 JUMPI PUSH1 0x0 DUP1 REVERT JUMPDEST POP PUSH2 0x46E PUSH2 0x1194 JUMP JUMPDEST STOP JUMPDEST CALLVALUE DUP1 ISZERO PUSH2 0x47C JUMPI PUSH1 0x0 DUP1 REVERT JUMPDEST POP PUSH2 0x485 PUSH2 0x11A6 JUMP JUMPDEST PUSH1 0x40 MLOAD PUSH2 0x492 SWAP2 SWAP1 PUSH2 0x2BA5 JUMP JUMPDEST PUSH1 0x40 MLOAD DUP1 SWAP2 SUB SWAP1 RETURN JUMPDEST CALLVALUE DUP1 ISZERO PUSH2 0x4A7 JUMPI PUSH1 0x0 DUP1 REVERT JUMPDEST POP PUSH2 0x4B0 PUSH2 0x11D0 JUMP JUMPDEST PUSH1 0x40 MLOAD PUSH2 0x4BD SWAP2 SWAP1 PUSH2 0x2BA5 JUMP JUMPDEST PUSH1 0x40 MLOAD DUP1 SWAP2 SUB SWAP1 RETURN JUMPDEST PUSH2 0x4CE PUSH2 0x11F6 JUMP JUMPDEST PUSH1 0x40 MLOAD PUSH2 0x4DB SWAP2 SWAP1 PUSH2 0x29F9 JUMP JUMPDEST PUSH1 0x40 MLOAD DUP1 SWAP2 SUB SWAP1 RETURN JUMPDEST CALLVALUE DUP1 ISZERO PUSH2 0x4F0 JUMPI PUSH1 0x0 DUP1 REVERT JUMPDEST POP PUSH2 0x50B PUSH1 0x4 DUP1 CALLDATASIZE SUB DUP2 ADD SWAP1 PUSH2 0x506 SWAP2 SWAP1 PUSH2 0x2A14 JUMP JUMPDEST PUSH2 0x1347 JUMP JUMPDEST STOP JUMPDEST CALLVALUE DUP1 ISZERO PUSH2 0x519 JUMPI PUSH1 0x0 DUP1 REVERT JUMPDEST POP PUSH2 0x534 PUSH1 0x4 DUP1 CALLDATASIZE SUB DUP2 ADD SWAP1 PUSH2 0x52F SWAP2 SWAP1 PUSH2 0x2BC0 JUMP JUMPDEST PUSH2 0x13CA JUMP JUMPDEST STOP JUMPDEST CALLVALUE DUP1 ISZERO PUSH2 0x542 JUMPI PUSH1 0x0 DUP1 REVERT JUMPDEST POP PUSH2 0x54B PUSH2 0x1752 JUMP JUMPDEST PUSH1 0x40 MLOAD PUSH2 0x558 SWAP2 SWAP1 PUSH2 0x2BA5 JUMP JUMPDEST PUSH1 0x40 MLOAD DUP1 SWAP2 SUB SWAP1 RETURN JUMPDEST CALLVALUE DUP1 ISZERO PUSH2 0x56D JUMPI PUSH1 0x0 DUP1 REVERT JUMPDEST POP PUSH2 0x588 PUSH1 0x4 DUP1 CALLDATASIZE SUB DUP2 ADD SWAP1 PUSH2 0x583 SWAP2 SWAP1 PUSH2 0x2A14 JUMP JUMPDEST PUSH2 0x1778 JUMP JUMPDEST STOP JUMPDEST CALLVALUE DUP1 ISZERO PUSH2 0x596 JUMPI PUSH1 0x0 DUP1 REVERT JUMPDEST POP PUSH2 0x5B1 PUSH1 0x4 DUP1 CALLDATASIZE SUB DUP2 ADD SWAP1 PUSH2 0x5AC SWAP2 SWAP1 PUSH2 0x29AA JUMP JUMPDEST PUSH2 0x18FA JUMP JUMPDEST STOP JUMPDEST CALLVALUE DUP1 ISZERO PUSH2 0x5BF JUMPI PUSH1 0x0 DUP1 REVERT JUMPDEST POP PUSH2 0x5C8 PUSH2 0x1AB0 JUMP JUMPDEST PUSH1 0x40 MLOAD PUSH2 0x5D5 SWAP2 SWAP1 PUSH2 0x2C6E JUMP JUMPDEST PUSH1 0x40 MLOAD DUP1 SWAP2 SUB SWAP1 RETURN JUMPDEST CALLVALUE DUP1 ISZERO PUSH2 0x5EA JUMPI PUSH1 0x0 DUP1 REVERT JUMPDEST POP PUSH2 0x605 PUSH1 0x4 DUP1 CALLDATASIZE SUB DUP2 ADD SWAP1 PUSH2 0x600 SWAP2 SWAP1 PUSH2 0x2A14 JUMP JUMPDEST PUSH2 0x1AD6 JUMP JUMPDEST PUSH1 0x40 MLOAD PUSH2 0x612 SWAP2 SWAP1 PUSH2 0x29F9 JUMP JUMPDEST PUSH1 0x40 MLOAD DUP1 SWAP2 SUB SWAP1 RETURN JUMPDEST CALLVALUE DUP1 ISZERO PUSH2 0x627 JUMPI PUSH1 0x0 DUP1 REVERT JUMPDEST POP PUSH2 0x642 PUSH1 0x4 DUP1 CALLDATASIZE SUB DUP2 ADD SWAP1 PUSH2 0x63D SWAP2 SWAP1 PUSH2 0x2A14 JUMP JUMPDEST PUSH2 0x1CEE JUMP JUMPDEST STOP JUMPDEST CALLVALUE DUP1 ISZERO PUSH2 0x650 JUMPI PUSH1 0x0 DUP1 REVERT JUMPDEST POP PUSH2 0x659 PUSH2 0x1D72 JUMP JUMPDEST STOP JUMPDEST PUSH1 0x0 PUSH2 0x665 PUSH2 0x1D84 JUMP JUMPDEST PUSH1 0x2 PUSH1 0x97 SLOAD EQ ISZERO PUSH2 0x6AB JUMPI PUSH1 0x40 MLOAD PUSH32 0x8C379A000000000000000000000000000000000000000000000000000000000 DUP2 MSTORE PUSH1 0x4 ADD PUSH2 0x6A2 SWAP1 PUSH2 0x2CE6 JUMP JUMPDEST PUSH1 0x40 MLOAD DUP1 SWAP2 SUB SWAP1 REVERT JUMPDEST PUSH1 0x2 PUSH1 0x97 DUP2 SWAP1 SSTORE POP PUSH1 0x0 PUSH1 0xCF PUSH1 0x0 SWAP1 SLOAD SWAP1 PUSH2 0x100 EXP SWAP1 DIV PUSH20 0xFFFFFFFFFFFFFFFFFFFFFFFFFFFFFFFFFFFFFFFF AND PUSH20 0xFFFFFFFFFFFFFFFFFFFFFFFFFFFFFFFFFFFFFFFF AND PUSH4 0xD9BBD278 PUSH1 0x40 MLOAD DUP2 PUSH4 0xFFFFFFFF AND PUSH1 0xE0 SHL DUP2 MSTORE PUSH1 0x4 ADD PUSH1 0x20 PUSH1 0x40 MLOAD DUP1 DUP4 SUB DUP2 DUP7 GAS STATICCALL ISZERO DUP1 ISZERO PUSH2 0x722 JUMPI RETURNDATASIZE PUSH1 0x0 DUP1 RETURNDATACOPY RETURNDATASIZE PUSH1 0x0 REVERT JUMPDEST POP POP POP POP PUSH1 0x40 MLOAD RETURNDATASIZE PUSH1 0x1F NOT PUSH1 0x1F DUP3 ADD AND DUP3 ADD DUP1 PUSH1 0x40 MSTORE POP DUP2 ADD SWAP1 PUSH2 0x746 SWAP2 SWAP1 PUSH2 0x2D1B JUMP JUMPDEST SWAP1 POP DUP1 DUP4 LT ISZERO PUSH2 0x78B JUMPI PUSH1 0x40 MLOAD PUSH32 0x8C379A000000000000000000000000000000000000000000000000000000000 DUP2 MSTORE PUSH1 0x4 ADD PUSH2 0x782 SWAP1 PUSH2 0x2DBA JUMP JUMPDEST PUSH1 0x40 MLOAD DUP1 SWAP2 SUB SWAP1 REVERT JUMPDEST PUSH2 0x795 CALLER DUP5 PUSH2 0x1DCE JUMP JUMPDEST PUSH1 0xCD PUSH1 0x0 SWAP1 SLOAD SWAP1 PUSH2 0x100 EXP SWAP1 DIV PUSH20 0xFFFFFFFFFFFFFFFFFFFFFFFFFFFFFFFFFFFFFFFF AND PUSH20 0xFFFFFFFFFFFFFFFFFFFFFFFFFFFFFFFFFFFFFFFF AND PUSH4 0xDB518DB2 DUP6 DUP6 PUSH1 0x40 MLOAD DUP4 PUSH4 0xFFFFFFFF AND PUSH1 0xE0 SHL DUP2 MSTORE PUSH1 0x4 ADD PUSH2 0x7F2 SWAP3 SWAP2 SWAP1 PUSH2 0x2DDA JUMP JUMPDEST PUSH1 0x20 PUSH1 0x40 MLOAD DUP1 DUP4 SUB DUP2 PUSH1 0x0 DUP8 GAS CALL ISZERO DUP1 ISZERO PUSH2 0x811 JUMPI RETURNDATASIZE PUSH1 0x0 DUP1 RETURNDATACOPY RETURNDATASIZE PUSH1 0x0 REVERT JUMPDEST POP POP POP POP PUSH1 0x40 MLOAD RETURNDATASIZE PUSH1 0x1F NOT PUSH1 0x1F DUP3 ADD AND DUP3 ADD DUP1 PUSH1 0x40 MSTORE POP DUP2 ADD SWAP1 PUSH2 0x835 SWAP2 SWAP1 PUSH2 0x2D1B JUMP JUMPDEST SWAP2 POP DUP4 PUSH20 0xFFFFFFFFFFFFFFFFFFFFFFFFFFFFFFFFFFFFFFFF AND CALLER PUSH20 0xFFFFFFFFFFFFFFFFFFFFFFFFFFFFFFFFFFFFFFFF AND PUSH32 0x2717EAD6B9200DD235AAD468C9809EA400FE33AC69B5BFAA6D3E90FC922B6398 DUP6 PUSH1 0x40 MLOAD PUSH2 0x894 SWAP2 SWAP1 PUSH2 0x29F9 JUMP JUMPDEST PUSH1 0x40 MLOAD DUP1 SWAP2 SUB SWAP1 LOG3 POP PUSH1 0x1 PUSH1 0x97 DUP2 SWAP1 SSTORE POP SWAP3 SWAP2 POP POP JUMP JUMPDEST PUSH2 0x8B3 PUSH2 0x1F26 JUMP JUMPDEST DUP1 PUSH1 0xC9 PUSH1 0x0 PUSH2 0x100 EXP DUP2 SLOAD DUP2 PUSH20 0xFFFFFFFFFFFFFFFFFFFFFFFFFFFFFFFFFFFFFFFF MUL NOT AND SWAP1 DUP4 PUSH20 0xFFFFFFFFFFFFFFFFFFFFFFFFFFFFFFFFFFFFFFFF AND MUL OR SWAP1 SSTORE POP PUSH32 0x8EB831FE42156CAAF4721A87AD40C6E662B893DBEEE76D7A3ED2564A318B091C DUP2 PUSH1 0x40 MLOAD PUSH2 0x923 SWAP2 SWAP1 PUSH2 0x2BA5 JUMP JUMPDEST PUSH1 0x40 MLOAD DUP1 SWAP2 SUB SWAP1 LOG1 POP JUMP JUMPDEST PUSH2 0x936 PUSH2 0x11A6 JUMP JUMPDEST PUSH20 0xFFFFFFFFFFFFFFFFFFFFFFFFFFFFFFFFFFFFFFFF AND CALLER PUSH20 0xFFFFFFFFFFFFFFFFFFFFFFFFFFFFFFFFFFFFFFFF AND EQ DUP1 PUSH2 0x9BC JUMPI POP PUSH1 0xD0 PUSH1 0x0 SWAP1 SLOAD SWAP1 PUSH2 0x100 EXP SWAP1 DIV PUSH20 0xFFFFFFFFFFFFFFFFFFFFFFFFFFFFFFFFFFFFFFFF AND PUSH20 0xFFFFFFFFFFFFFFFFFFFFFFFFFFFFFFFFFFFFFFFF AND CALLER PUSH20 0xFFFFFFFFFFFFFFFFFFFFFFFFFFFFFFFFFFFFFFFF AND EQ JUMPDEST PUSH2 0x9FB JUMPI PUSH1 0x40 MLOAD PUSH32 0x8C379A000000000000000000000000000000000000000000000000000000000 DUP2 MSTORE PUSH1 0x4 ADD PUSH2 0x9F2 SWAP1 PUSH2 0x2E4F JUMP JUMPDEST PUSH1 0x40 MLOAD DUP1 SWAP2 SUB SWAP1 REVERT JUMPDEST PUSH1 0x2 PUSH1 0x97 SLOAD EQ ISZERO PUSH2 0xA41 JUMPI PUSH1 0x40 MLOAD PUSH32 0x8C379A000000000000000000000000000000000000000000000000000000000 DUP2 MSTORE PUSH1 0x4 ADD PUSH2 0xA38 SWAP1 PUSH2 0x2CE6 JUMP JUMPDEST PUSH1 0x40 MLOAD DUP1 SWAP2 SUB SWAP1 REVERT JUMPDEST PUSH1 0x2 PUSH1 0x97 DUP2 SWAP1 SSTORE POP PUSH1 0xCC PUSH1 0x0 SWAP1 SLOAD SWAP1 PUSH2 0x100 EXP SWAP1 DIV PUSH20 0xFFFFFFFFFFFFFFFFFFFFFFFFFFFFFFFFFFFFFFFF AND PUSH20 0xFFFFFFFFFFFFFFFFFFFFFFFFFFFFFFFFFFFFFFFF AND PUSH4 0x40C10F19 DUP4 DUP4 PUSH1 0x40 MLOAD DUP4 PUSH4 0xFFFFFFFF AND PUSH1 0xE0 SHL DUP2 MSTORE PUSH1 0x4 ADD PUSH2 0xAA6 SWAP3 SWAP2 SWAP1 PUSH2 0x2DDA JUMP JUMPDEST PUSH1 0x0 PUSH1 0x40 MLOAD DUP1 DUP4 SUB DUP2 PUSH1 0x0 DUP8 DUP1 EXTCODESIZE ISZERO DUP1 ISZERO PUSH2 0xAC0 JUMPI PUSH1 0x0 DUP1 REVERT JUMPDEST POP GAS CALL ISZERO DUP1 ISZERO PUSH2 0xAD4 JUMPI RETURNDATASIZE PUSH1 0x0 DUP1 RETURNDATACOPY RETURNDATASIZE PUSH1 0x0 REVERT JUMPDEST POP POP POP POP PUSH1 0x1 PUSH1 0x97 DUP2 SWAP1 SSTORE POP POP POP JUMP JUMPDEST PUSH2 0xAEC PUSH2 0x1F26 JUMP JUMPDEST DUP1 PUSH1 0xCC PUSH1 0x0 PUSH2 0x100 EXP DUP2 SLOAD DUP2 PUSH20 0xFFFFFFFFFFFFFFFFFFFFFFFFFFFFFFFFFFFFFFFF MUL NOT AND SWAP1 DUP4 PUSH20 0xFFFFFFFFFFFFFFFFFFFFFFFFFFFFFFFFFFFFFFFF AND MUL OR SWAP1 SSTORE POP PUSH32 0x5AB190AC1B858818C30B831D9BD74E6BEF6F75DE987D59F1BEB4AAB85D064832 DUP2 PUSH1 0x40 MLOAD PUSH2 0xB5C SWAP2 SWAP1 PUSH2 0x2BA5 JUMP JUMPDEST PUSH1 0x40 MLOAD DUP1 SWAP2 SUB SWAP1 LOG1 POP JUMP JUMPDEST PUSH1 0x0 PUSH1 0x2 PUSH1 0x97 SLOAD EQ ISZERO PUSH2 0xBAF JUMPI PUSH1 0x40 MLOAD PUSH32 0x8C379A000000000000000000000000000000000000000000000000000000000 DUP2 MSTORE PUSH1 0x4 ADD PUSH2 0xBA6 SWAP1 PUSH2 0x2CE6 JUMP JUMPDEST PUSH1 0x40 MLOAD DUP1 SWAP2 SUB SWAP1 REVERT JUMPDEST PUSH1 0x2 PUSH1 0x97 DUP2 SWAP1 SSTORE POP PUSH1 0x40 MLOAD PUSH32 0x8C379A000000000000000000000000000000000000000000000000000000000 DUP2 MSTORE PUSH1 0x4 ADD PUSH2 0xBE9 SWAP1 PUSH2 0x2EBB JUMP JUMPDEST PUSH1 0x40 MLOAD DUP1 SWAP2 SUB SWAP1 REVERT JUMPDEST PUSH1 0xCC PUSH1 0x0 SWAP1 SLOAD SWAP1 PUSH2 0x100 EXP SWAP1 DIV PUSH20 0xFFFFFFFFFFFFFFFFFFFFFFFFFFFFFFFFFFFFFFFF AND DUP2 JUMP JUMPDEST PUSH2 0xC20 PUSH2 0x1F26 JUMP JUMPDEST PUSH2 0xC90 PUSH1 0xCE PUSH1 0x0 SWAP1 SLOAD SWAP1 PUSH2 0x100 EXP SWAP1 DIV PUSH20 0xFFFFFFFFFFFFFFFFFFFFFFFFFFFFFFFFFFFFFFFF AND PUSH1 0x0 PUSH1 0xCB PUSH1 0x0 SWAP1 SLOAD SWAP1 PUSH2 0x100 EXP SWAP1 DIV PUSH20 0xFFFFFFFFFFFFFFFFFFFFFFFFFFFFFFFFFFFFFFFF AND PUSH20 0xFFFFFFFFFFFFFFFFFFFFFFFFFFFFFFFFFFFFFFFF AND PUSH2 0x1FA4 SWAP1 SWAP3 SWAP2 SWAP1 PUSH4 0xFFFFFFFF AND JUMP JUMPDEST DUP1 PUSH1 0xCB PUSH1 0x0 PUSH2 0x100 EXP DUP2 SLOAD DUP2 PUSH20 0xFFFFFFFFFFFFFFFFFFFFFFFFFFFFFFFFFFFFFFFF MUL NOT AND SWAP1 DUP4 PUSH20 0xFFFFFFFFFFFFFFFFFFFFFFFFFFFFFFFFFFFFFFFF AND MUL OR SWAP1 SSTORE POP PUSH2 0xD60 PUSH1 0xCE PUSH1 0x0 SWAP1 SLOAD SWAP1 PUSH2 0x100 EXP SWAP1 DIV PUSH20 0xFFFFFFFFFFFFFFFFFFFFFFFFFFFFFFFFFFFFFFFF AND PUSH32 0xFFFFFFFFFFFFFFFFFFFFFFFFFFFFFFFFFFFFFFFFFFFFFFFFFFFFFFFFFFFFFFFF PUSH1 0xCB PUSH1 0x0 SWAP1 SLOAD SWAP1 PUSH2 0x100 EXP SWAP1 DIV PUSH20 0xFFFFFFFFFFFFFFFFFFFFFFFFFFFFFFFFFFFFFFFF AND PUSH20 0xFFFFFFFFFFFFFFFFFFFFFFFFFFFFFFFFFFFFFFFF AND PUSH2 0x1FA4 SWAP1 SWAP3 SWAP2 SWAP1 PUSH4 0xFFFFFFFF AND JUMP JUMPDEST PUSH32 0x1C51D83FBF878C22F78DD72BD5F93A9ADFA124683A91B2AD431F10C9FF731DB4 DUP2 PUSH1 0x40 MLOAD PUSH2 0xD8F SWAP2 SWAP1 PUSH2 0x2BA5 JUMP JUMPDEST PUSH1 0x40 MLOAD DUP1 SWAP2 SUB SWAP1 LOG1 POP JUMP JUMPDEST PUSH1 0xCD PUSH1 0x0 SWAP1 SLOAD SWAP1 PUSH2 0x100 EXP SWAP1 DIV PUSH20 0xFFFFFFFFFFFFFFFFFFFFFFFFFFFFFFFFFFFFFFFF AND DUP2 JUMP JUMPDEST PUSH1 0x0 PUSH1 0x65 PUSH1 0x0 SWAP1 SLOAD SWAP1 PUSH2 0x100 EXP SWAP1 DIV PUSH1 0xFF AND SWAP1 POP SWAP1 JUMP JUMPDEST PUSH1 0xCF PUSH1 0x0 SWAP1 SLOAD SWAP1 PUSH2 0x100 EXP SWAP1 DIV PUSH20 0xFFFFFFFFFFFFFFFFFFFFFFFFFFFFFFFFFFFFFFFF AND DUP2 JUMP JUMPDEST PUSH1 0xCB PUSH1 0x0 SWAP1 SLOAD SWAP1 PUSH2 0x100 EXP SWAP1 DIV PUSH20 0xFFFFFFFFFFFFFFFFFFFFFFFFFFFFFFFFFFFFFFFF AND DUP2 JUMP JUMPDEST PUSH2 0xE2B PUSH2 0x11A6 JUMP JUMPDEST PUSH20 0xFFFFFFFFFFFFFFFFFFFFFFFFFFFFFFFFFFFFFFFF AND CALLER PUSH20 0xFFFFFFFFFFFFFFFFFFFFFFFFFFFFFFFFFFFFFFFF AND EQ DUP1 PUSH2 0xEB1 JUMPI POP PUSH1 0xD0 PUSH1 0x0 SWAP1 SLOAD SWAP1 PUSH2 0x100 EXP SWAP1 DIV PUSH20 0xFFFFFFFFFFFFFFFFFFFFFFFFFFFFFFFFFFFFFFFF AND PUSH20 0xFFFFFFFFFFFFFFFFFFFFFFFFFFFFFFFFFFFFFFFF AND CALLER PUSH20 0xFFFFFFFFFFFFFFFFFFFFFFFFFFFFFFFFFFFFFFFF AND EQ JUMPDEST PUSH2 0xEF0 JUMPI PUSH1 0x40 MLOAD PUSH32 0x8C379A000000000000000000000000000000000000000000000000000000000 DUP2 MSTORE PUSH1 0x4 ADD PUSH2 0xEE7 SWAP1 PUSH2 0x2E4F JUMP JUMPDEST PUSH1 0x40 MLOAD DUP1 SWAP2 SUB SWAP1 REVERT JUMPDEST PUSH1 0x2 PUSH1 0x97 SLOAD EQ ISZERO PUSH2 0xF36 JUMPI PUSH1 0x40 MLOAD PUSH32 0x8C379A000000000000000000000000000000000000000000000000000000000 DUP2 MSTORE PUSH1 0x4 ADD PUSH2 0xF2D SWAP1 PUSH2 0x2CE6 JUMP JUMPDEST PUSH1 0x40 MLOAD DUP1 SWAP2 SUB SWAP1 REVERT JUMPDEST PUSH1 0x2 PUSH1 0x97 DUP2 SWAP1 SSTORE POP PUSH1 0xCD PUSH1 0x0 SWAP1 SLOAD SWAP1 PUSH2 0x100 EXP SWAP1 DIV PUSH20 0xFFFFFFFFFFFFFFFFFFFFFFFFFFFFFFFFFFFFFFFF AND PUSH20 0xFFFFFFFFFFFFFFFFFFFFFFFFFFFFFFFFFFFFFFFF AND PUSH4 0x3550D56 DUP4 DUP4 PUSH1 0x40 MLOAD DUP4 PUSH4 0xFFFFFFFF AND PUSH1 0xE0 SHL DUP2 MSTORE PUSH1 0x4 ADD PUSH2 0xF9B SWAP3 SWAP2 SWAP1 PUSH2 0x2DDA JUMP JUMPDEST PUSH1 0x20 PUSH1 0x40 MLOAD DUP1 DUP4 SUB DUP2 PUSH1 0x0 DUP8 GAS CALL ISZERO DUP1 ISZERO PUSH2 0xFBA JUMPI RETURNDATASIZE PUSH1 0x0 DUP1 RETURNDATACOPY RETURNDATASIZE PUSH1 0x0 REVERT JUMPDEST POP POP POP POP PUSH1 0x40 MLOAD RETURNDATASIZE PUSH1 0x1F NOT PUSH1 0x1F DUP3 ADD AND DUP3 ADD DUP1 PUSH1 0x40 MSTORE POP DUP2 ADD SWAP1 PUSH2 0xFDE SWAP2 SWAP1 PUSH2 0x2D1B JUMP JUMPDEST POP PUSH1 0x1 PUSH1 0x97 DUP2 SWAP1 SSTORE POP POP POP JUMP JUMPDEST PUSH1 0xC9 PUSH1 0x0 SWAP1 SLOAD SWAP1 PUSH2 0x100 EXP SWAP1 DIV PUSH20 0xFFFFFFFFFFFFFFFFFFFFFFFFFFFFFFFFFFFFFFFF AND DUP2 JUMP JUMPDEST PUSH2 0x1019 PUSH2 0x1F26 JUMP JUMPDEST PUSH2 0x1023 PUSH1 0x0 PUSH2 0x20F3 JUMP JUMPDEST JUMP JUMPDEST PUSH1 0x0 PUSH1 0x2 PUSH1 0x97 SLOAD EQ ISZERO PUSH2 0x106D JUMPI PUSH1 0x40 MLOAD PUSH32 0x8C379A000000000000000000000000000000000000000000000000000000000 DUP2 MSTORE PUSH1 0x4 ADD PUSH2 0x1064 SWAP1 PUSH2 0x2CE6 JUMP JUMPDEST PUSH1 0x40 MLOAD DUP1 SWAP2 SUB SWAP1 REVERT JUMPDEST PUSH1 0x2 PUSH1 0x97 DUP2 SWAP1 SSTORE POP PUSH2 0x107F CALLER DUP4 PUSH2 0x1DCE JUMP JUMPDEST PUSH1 0xCD PUSH1 0x0 SWAP1 SLOAD SWAP1 PUSH2 0x100 EXP SWAP1 DIV PUSH20 0xFFFFFFFFFFFFFFFFFFFFFFFFFFFFFFFFFFFFFFFF AND PUSH20 0xFFFFFFFFFFFFFFFFFFFFFFFFFFFFFFFFFFFFFFFF AND PUSH4 0x3550D56 DUP5 DUP5 PUSH1 0x40 MLOAD DUP4 PUSH4 0xFFFFFFFF AND PUSH1 0xE0 SHL DUP2 MSTORE PUSH1 0x4 ADD PUSH2 0x10DC SWAP3 SWAP2 SWAP1 PUSH2 0x2DDA JUMP JUMPDEST PUSH1 0x20 PUSH1 0x40 MLOAD DUP1 DUP4 SUB DUP2 PUSH1 0x0 DUP8 GAS CALL ISZERO DUP1 ISZERO PUSH2 0x10FB JUMPI RETURNDATASIZE PUSH1 0x0 DUP1 RETURNDATACOPY RETURNDATASIZE PUSH1 0x0 REVERT JUMPDEST POP POP POP POP PUSH1 0x40 MLOAD RETURNDATASIZE PUSH1 0x1F NOT PUSH1 0x1F DUP3 ADD AND DUP3 ADD DUP1 PUSH1 0x40 MSTORE POP DUP2 ADD SWAP1 PUSH2 0x111F SWAP2 SWAP1 PUSH2 0x2D1B JUMP JUMPDEST SWAP1 POP DUP3 PUSH20 0xFFFFFFFFFFFFFFFFFFFFFFFFFFFFFFFFFFFFFFFF AND CALLER PUSH20 0xFFFFFFFFFFFFFFFFFFFFFFFFFFFFFFFFFFFFFFFF AND PUSH32 0x2717EAD6B9200DD235AAD468C9809EA400FE33AC69B5BFAA6D3E90FC922B6398 DUP4 PUSH1 0x40 MLOAD PUSH2 0x117E SWAP2 SWAP1 PUSH2 0x29F9 JUMP JUMPDEST PUSH1 0x40 MLOAD DUP1 SWAP2 SUB SWAP1 LOG3 PUSH1 0x1 PUSH1 0x97 DUP2 SWAP1 SSTORE POP SWAP3 SWAP2 POP POP JUMP JUMPDEST PUSH2 0x119C PUSH2 0x1F26 JUMP JUMPDEST PUSH2 0x11A4 PUSH2 0x21B9 JUMP JUMPDEST JUMP JUMPDEST PUSH1 0x0 PUSH1 0x33 PUSH1 0x0 SWAP1 SLOAD SWAP1 PUSH2 0x100 EXP SWAP1 DIV PUSH20 0xFFFFFFFFFFFFFFFFFFFFFFFFFFFFFFFFFFFFFFFF AND SWAP1 POP SWAP1 JUMP JUMPDEST PUSH1 0xCA PUSH1 0x0 SWAP1 SLOAD SWAP1 PUSH2 0x100 EXP SWAP1 DIV PUSH20 0xFFFFFFFFFFFFFFFFFFFFFFFFFFFFFFFFFFFFFFFF AND DUP2 JUMP JUMPDEST PUSH1 0x0 PUSH2 0x1200 PUSH2 0x1D84 JUMP JUMPDEST PUSH1 0x2 PUSH1 0x97 SLOAD EQ ISZERO PUSH2 0x1246 JUMPI PUSH1 0x40 MLOAD PUSH32 0x8C379A000000000000000000000000000000000000000000000000000000000 DUP2 MSTORE PUSH1 0x4 ADD PUSH2 0x123D SWAP1 PUSH2 0x2CE6 JUMP JUMPDEST PUSH1 0x40 MLOAD DUP1 SWAP2 SUB SWAP1 REVERT JUMPDEST PUSH1 0x2 PUSH1 0x97 DUP2 SWAP1 SSTORE POP PUSH1 0xCD PUSH1 0x0 SWAP1 SLOAD SWAP1 PUSH2 0x100 EXP SWAP1 DIV PUSH20 0xFFFFFFFFFFFFFFFFFFFFFFFFFFFFFFFFFFFFFFFF AND PUSH20 0xFFFFFFFFFFFFFFFFFFFFFFFFFFFFFFFFFFFFFFFF AND PUSH4 0xD0E30DB0 CALLVALUE PUSH1 0x40 MLOAD DUP3 PUSH4 0xFFFFFFFF AND PUSH1 0xE0 SHL DUP2 MSTORE PUSH1 0x4 ADD PUSH1 0x20 PUSH1 0x40 MLOAD DUP1 DUP4 SUB DUP2 DUP6 DUP9 GAS CALL ISZERO DUP1 ISZERO PUSH2 0x12BD JUMPI RETURNDATASIZE PUSH1 0x0 DUP1 RETURNDATACOPY RETURNDATASIZE PUSH1 0x0 REVERT JUMPDEST POP POP POP POP POP PUSH1 0x40 MLOAD RETURNDATASIZE PUSH1 0x1F NOT PUSH1 0x1F DUP3 ADD AND DUP3 ADD DUP1 PUSH1 0x40 MSTORE POP DUP2 ADD SWAP1 PUSH2 0x12E2 SWAP2 SWAP1 PUSH2 0x2D1B JUMP JUMPDEST SWAP1 POP PUSH2 0x12EE CALLER DUP3 PUSH2 0x221C JUMP JUMPDEST CALLER PUSH20 0xFFFFFFFFFFFFFFFFFFFFFFFFFFFFFFFFFFFFFFFF AND PUSH32 0xE1FFFCC4923D04B559F4D29A8BFC6CDA04EB5B0D3C460751C2402C5C5CC9109C DUP3 PUSH1 0x40 MLOAD PUSH2 0x1334 SWAP2 SWAP1 PUSH2 0x29F9 JUMP JUMPDEST PUSH1 0x40 MLOAD DUP1 SWAP2 SUB SWAP1 LOG2 PUSH1 0x1 PUSH1 0x97 DUP2 SWAP1 SSTORE POP SWAP1 JUMP JUMPDEST PUSH2 0x134F PUSH2 0x1F26 JUMP JUMPDEST DUP1 PUSH1 0xD0 PUSH1 0x0 PUSH2 0x100 EXP DUP2 SLOAD DUP2 PUSH20 0xFFFFFFFFFFFFFFFFFFFFFFFFFFFFFFFFFFFFFFFF MUL NOT AND SWAP1 DUP4 PUSH20 0xFFFFFFFFFFFFFFFFFFFFFFFFFFFFFFFFFFFFFFFF AND MUL OR SWAP1 SSTORE POP PUSH32 0xCF16493C33F7A5001593C6B3158B6613C39A56BED7E2FE27F83A7EE297B6E32A DUP2 PUSH1 0x40 MLOAD PUSH2 0x13BF SWAP2 SWAP1 PUSH2 0x2BA5 JUMP JUMPDEST PUSH1 0x40 MLOAD DUP1 SWAP2 SUB SWAP1 LOG1 POP JUMP JUMPDEST PUSH1 0x0 DUP1 PUSH1 0x1 SWAP1 SLOAD SWAP1 PUSH2 0x100 EXP SWAP1 DIV PUSH1 0xFF AND ISZERO SWAP1 POP DUP1 DUP1 ISZERO PUSH2 0x13FB JUMPI POP PUSH1 0x1 PUSH1 0x0 DUP1 SLOAD SWAP1 PUSH2 0x100 EXP SWAP1 DIV PUSH1 0xFF AND PUSH1 0xFF AND LT JUMPDEST DUP1 PUSH2 0x1428 JUMPI POP PUSH2 0x140A ADDRESS PUSH2 0x2374 JUMP JUMPDEST ISZERO DUP1 ISZERO PUSH2 0x1427 JUMPI POP PUSH1 0x1 PUSH1 0x0 DUP1 SLOAD SWAP1 PUSH2 0x100 EXP SWAP1 DIV PUSH1 0xFF AND PUSH1 0xFF AND EQ JUMPDEST JUMPDEST PUSH2 0x1467 JUMPI PUSH1 0x40 MLOAD PUSH32 0x8C379A000000000000000000000000000000000000000000000000000000000 DUP2 MSTORE PUSH1 0x4 ADD PUSH2 0x145E SWAP1 PUSH2 0x2F4D JUMP JUMPDEST PUSH1 0x40 MLOAD DUP1 SWAP2 SUB SWAP1 REVERT JUMPDEST PUSH1 0x1 PUSH1 0x0 DUP1 PUSH2 0x100 EXP DUP2 SLOAD DUP2 PUSH1 0xFF MUL NOT AND SWAP1 DUP4 PUSH1 0xFF AND MUL OR SWAP1 SSTORE POP DUP1 ISZERO PUSH2 0x14A4 JUMPI PUSH1 0x1 PUSH1 0x0 PUSH1 0x1 PUSH2 0x100 EXP DUP2 SLOAD DUP2 PUSH1 0xFF MUL NOT AND SWAP1 DUP4 ISZERO ISZERO MUL OR SWAP1 SSTORE POP JUMPDEST PUSH2 0x14AC PUSH2 0x2397 JUMP JUMPDEST PUSH2 0x14B4 PUSH2 0x23F0 JUMP JUMPDEST PUSH2 0x14BC PUSH2 0x2449 JUMP JUMPDEST CALLER PUSH1 0xC9 PUSH1 0x0 PUSH2 0x100 EXP DUP2 SLOAD DUP2 PUSH20 0xFFFFFFFFFFFFFFFFFFFFFFFFFFFFFFFFFFFFFFFF MUL NOT AND SWAP1 DUP4 PUSH20 0xFFFFFFFFFFFFFFFFFFFFFFFFFFFFFFFFFFFFFFFF AND MUL OR SWAP1 SSTORE POP DUP7 PUSH1 0xCC PUSH1 0x0 PUSH2 0x100 EXP DUP2 SLOAD DUP2 PUSH20 0xFFFFFFFFFFFFFFFFFFFFFFFFFFFFFFFFFFFFFFFF MUL NOT AND SWAP1 DUP4 PUSH20 0xFFFFFFFFFFFFFFFFFFFFFFFFFFFFFFFFFFFFFFFF AND MUL OR SWAP1 SSTORE POP DUP6 PUSH1 0xCA PUSH1 0x0 PUSH2 0x100 EXP DUP2 SLOAD DUP2 PUSH20 0xFFFFFFFFFFFFFFFFFFFFFFFFFFFFFFFFFFFFFFFF MUL NOT AND SWAP1 DUP4 PUSH20 0xFFFFFFFFFFFFFFFFFFFFFFFFFFFFFFFFFFFFFFFF AND MUL OR SWAP1 SSTORE POP DUP5 PUSH1 0xCB PUSH1 0x0 PUSH2 0x100 EXP DUP2 SLOAD DUP2 PUSH20 0xFFFFFFFFFFFFFFFFFFFFFFFFFFFFFFFFFFFFFFFF MUL NOT AND SWAP1 DUP4 PUSH20 0xFFFFFFFFFFFFFFFFFFFFFFFFFFFFFFFFFFFFFFFF AND MUL OR SWAP1 SSTORE POP DUP4 PUSH1 0xCD PUSH1 0x0 PUSH2 0x100 EXP DUP2 SLOAD DUP2 PUSH20 0xFFFFFFFFFFFFFFFFFFFFFFFFFFFFFFFFFFFFFFFF MUL NOT AND SWAP1 DUP4 PUSH20 0xFFFFFFFFFFFFFFFFFFFFFFFFFFFFFFFFFFFFFFFF AND MUL OR SWAP1 SSTORE POP DUP3 PUSH1 0xCE PUSH1 0x0 PUSH2 0x100 EXP DUP2 SLOAD DUP2 PUSH20 0xFFFFFFFFFFFFFFFFFFFFFFFFFFFFFFFFFFFFFFFF MUL NOT AND SWAP1 DUP4 PUSH20 0xFFFFFFFFFFFFFFFFFFFFFFFFFFFFFFFFFFFFFFFF AND MUL OR SWAP1 SSTORE POP DUP2 PUSH1 0xCF PUSH1 0x0 PUSH2 0x100 EXP DUP2 SLOAD DUP2 PUSH20 0xFFFFFFFFFFFFFFFFFFFFFFFFFFFFFFFFFFFFFFFF MUL NOT AND SWAP1 DUP4 PUSH20 0xFFFFFFFFFFFFFFFFFFFFFFFFFFFFFFFFFFFFFFFF AND MUL OR SWAP1 SSTORE POP PUSH2 0x16F0 DUP4 PUSH32 0xFFFFFFFFFFFFFFFFFFFFFFFFFFFFFFFFFFFFFFFFFFFFFFFFFFFFFFFFFFFFFFFF PUSH1 0xCB PUSH1 0x0 SWAP1 SLOAD SWAP1 PUSH2 0x100 EXP SWAP1 DIV PUSH20 0xFFFFFFFFFFFFFFFFFFFFFFFFFFFFFFFFFFFFFFFF AND PUSH20 0xFFFFFFFFFFFFFFFFFFFFFFFFFFFFFFFFFFFFFFFF AND PUSH2 0x1FA4 SWAP1 SWAP3 SWAP2 SWAP1 PUSH4 0xFFFFFFFF AND JUMP JUMPDEST DUP1 ISZERO PUSH2 0x1749 JUMPI PUSH1 0x0 DUP1 PUSH1 0x1 PUSH2 0x100 EXP DUP2 SLOAD DUP2 PUSH1 0xFF MUL NOT AND SWAP1 DUP4 ISZERO ISZERO MUL OR SWAP1 SSTORE POP PUSH32 0x7F26B83FF96E1F2B6A682F133852F6798A09C465DA95921460CEFB3847402498 PUSH1 0x1 PUSH1 0x40 MLOAD PUSH2 0x1740 SWAP2 SWAP1 PUSH2 0x2FB5 JUMP JUMPDEST PUSH1 0x40 MLOAD DUP1 SWAP2 SUB SWAP1 LOG1 JUMPDEST POP POP POP POP POP POP POP JUMP JUMPDEST PUSH1 0xD0 PUSH1 0x0 SWAP1 SLOAD SWAP1 PUSH2 0x100 EXP SWAP1 DIV PUSH20 0xFFFFFFFFFFFFFFFFFFFFFFFFFFFFFFFFFFFFFFFF AND DUP2 JUMP JUMPDEST PUSH2 0x1780 PUSH2 0x1F26 JUMP JUMPDEST PUSH2 0x17F0 PUSH1 0xCE PUSH1 0x0 SWAP1 SLOAD SWAP1 PUSH2 0x100 EXP SWAP1 DIV PUSH20 0xFFFFFFFFFFFFFFFFFFFFFFFFFFFFFFFFFFFFFFFF AND PUSH1 0x0 PUSH1 0xCB PUSH1 0x0 SWAP1 SLOAD SWAP1 PUSH2 0x100 EXP SWAP1 DIV PUSH20 0xFFFFFFFFFFFFFFFFFFFFFFFFFFFFFFFFFFFFFFFF AND PUSH20 0xFFFFFFFFFFFFFFFFFFFFFFFFFFFFFFFFFFFFFFFF AND PUSH2 0x1FA4 SWAP1 SWAP3 SWAP2 SWAP1 PUSH4 0xFFFFFFFF AND JUMP JUMPDEST DUP1 PUSH1 0xCE PUSH1 0x0 PUSH2 0x100 EXP DUP2 SLOAD DUP2 PUSH20 0xFFFFFFFFFFFFFFFFFFFFFFFFFFFFFFFFFFFFFFFF MUL NOT AND SWAP1 DUP4 PUSH20 0xFFFFFFFFFFFFFFFFFFFFFFFFFFFFFFFFFFFFFFFF AND MUL OR SWAP1 SSTORE POP PUSH2 0x18C0 PUSH1 0xCE PUSH1 0x0 SWAP1 SLOAD SWAP1 PUSH2 0x100 EXP SWAP1 DIV PUSH20 0xFFFFFFFFFFFFFFFFFFFFFFFFFFFFFFFFFFFFFFFF AND PUSH32 0xFFFFFFFFFFFFFFFFFFFFFFFFFFFFFFFFFFFFFFFFFFFFFFFFFFFFFFFFFFFFFFFF PUSH1 0xCB PUSH1 0x0 SWAP1 SLOAD SWAP1 PUSH2 0x100 EXP SWAP1 DIV PUSH20 0xFFFFFFFFFFFFFFFFFFFFFFFFFFFFFFFFFFFFFFFF AND PUSH20 0xFFFFFFFFFFFFFFFFFFFFFFFFFFFFFFFFFFFFFFFF AND PUSH2 0x1FA4 SWAP1 SWAP3 SWAP2 SWAP1 PUSH4 0xFFFFFFFF AND JUMP JUMPDEST PUSH32 0x31A1AA5F369C073EBB0B9D07B962961A2FCAF8AE160E6485F220450F9D7F8C53 DUP2 PUSH1 0x40 MLOAD PUSH2 0x18EF SWAP2 SWAP1 PUSH2 0x2BA5 JUMP JUMPDEST PUSH1 0x40 MLOAD DUP1 SWAP2 SUB SWAP1 LOG1 POP JUMP JUMPDEST PUSH2 0x1902 PUSH2 0x11A6 JUMP JUMPDEST PUSH20 0xFFFFFFFFFFFFFFFFFFFFFFFFFFFFFFFFFFFFFFFF AND CALLER PUSH20 0xFFFFFFFFFFFFFFFFFFFFFFFFFFFFFFFFFFFFFFFF AND EQ DUP1 PUSH2 0x1988 JUMPI POP PUSH1 0xD0 PUSH1 0x0 SWAP1 SLOAD SWAP1 PUSH2 0x100 EXP SWAP1 DIV PUSH20 0xFFFFFFFFFFFFFFFFFFFFFFFFFFFFFFFFFFFFFFFF AND PUSH20 0xFFFFFFFFFFFFFFFFFFFFFFFFFFFFFFFFFFFFFFFF AND CALLER PUSH20 0xFFFFFFFFFFFFFFFFFFFFFFFFFFFFFFFFFFFFFFFF AND EQ JUMPDEST PUSH2 0x19C7 JUMPI PUSH1 0x40 MLOAD PUSH32 0x8C379A000000000000000000000000000000000000000000000000000000000 DUP2 MSTORE PUSH1 0x4 ADD PUSH2 0x19BE SWAP1 PUSH2 0x2E4F JUMP JUMPDEST PUSH1 0x40 MLOAD DUP1 SWAP2 SUB SWAP1 REVERT JUMPDEST PUSH1 0x2 PUSH1 0x97 SLOAD EQ ISZERO PUSH2 0x1A0D JUMPI PUSH1 0x40 MLOAD PUSH32 0x8C379A000000000000000000000000000000000000000000000000000000000 DUP2 MSTORE PUSH1 0x4 ADD PUSH2 0x1A04 SWAP1 PUSH2 0x2CE6 JUMP JUMPDEST PUSH1 0x40 MLOAD DUP1 SWAP2 SUB SWAP1 REVERT JUMPDEST PUSH1 0x2 PUSH1 0x97 DUP2 SWAP1 SSTORE POP PUSH1 0xCC PUSH1 0x0 SWAP1 SLOAD SWAP1 PUSH2 0x100 EXP SWAP1 DIV PUSH20 0xFFFFFFFFFFFFFFFFFFFFFFFFFFFFFFFFFFFFFFFF AND PUSH20 0xFFFFFFFFFFFFFFFFFFFFFFFFFFFFFFFFFFFFFFFF AND PUSH4 0x9DC29FAC DUP4 DUP4 PUSH1 0x40 MLOAD DUP4 PUSH4 0xFFFFFFFF AND PUSH1 0xE0 SHL DUP2 MSTORE PUSH1 0x4 ADD PUSH2 0x1A72 SWAP3 SWAP2 SWAP1 PUSH2 0x2DDA JUMP JUMPDEST PUSH1 0x0 PUSH1 0x40 MLOAD DUP1 DUP4 SUB DUP2 PUSH1 0x0 DUP8 DUP1 EXTCODESIZE ISZERO DUP1 ISZERO PUSH2 0x1A8C JUMPI PUSH1 0x0 DUP1 REVERT JUMPDEST POP GAS CALL ISZERO DUP1 ISZERO PUSH2 0x1AA0 JUMPI RETURNDATASIZE PUSH1 0x0 DUP1 RETURNDATACOPY RETURNDATASIZE PUSH1 0x0 REVERT JUMPDEST POP POP POP POP PUSH1 0x1 PUSH1 0x97 DUP2 SWAP1 SSTORE POP POP POP JUMP JUMPDEST PUSH1 0xCE PUSH1 0x0 SWAP1 SLOAD SWAP1 PUSH2 0x100 EXP SWAP1 DIV PUSH20 0xFFFFFFFFFFFFFFFFFFFFFFFFFFFFFFFFFFFFFFFF AND DUP2 JUMP JUMPDEST PUSH1 0x0 PUSH1 0x2 PUSH1 0x97 SLOAD EQ ISZERO PUSH2 0x1B1E JUMPI PUSH1 0x40 MLOAD PUSH32 0x8C379A000000000000000000000000000000000000000000000000000000000 DUP2 MSTORE PUSH1 0x4 ADD PUSH2 0x1B15 SWAP1 PUSH2 0x2CE6 JUMP JUMPDEST PUSH1 0x40 MLOAD DUP1 SWAP2 SUB SWAP1 REVERT JUMPDEST PUSH1 0x2 PUSH1 0x97 DUP2 SWAP1 SSTORE POP PUSH2 0x1B2E PUSH2 0x11A6 JUMP JUMPDEST PUSH20 0xFFFFFFFFFFFFFFFFFFFFFFFFFFFFFFFFFFFFFFFF AND CALLER PUSH20 0xFFFFFFFFFFFFFFFFFFFFFFFFFFFFFFFFFFFFFFFF AND EQ DUP1 PUSH2 0x1BB4 JUMPI POP PUSH1 0xC9 PUSH1 0x0 SWAP1 SLOAD SWAP1 PUSH2 0x100 EXP SWAP1 DIV PUSH20 0xFFFFFFFFFFFFFFFFFFFFFFFFFFFFFFFFFFFFFFFF AND PUSH20 0xFFFFFFFFFFFFFFFFFFFFFFFFFFFFFFFFFFFFFFFF AND CALLER PUSH20 0xFFFFFFFFFFFFFFFFFFFFFFFFFFFFFFFFFFFFFFFF AND EQ JUMPDEST PUSH2 0x1BF3 JUMPI PUSH1 0x40 MLOAD PUSH32 0x8C379A000000000000000000000000000000000000000000000000000000000 DUP2 MSTORE PUSH1 0x4 ADD PUSH2 0x1BEA SWAP1 PUSH2 0x301C JUMP JUMPDEST PUSH1 0x40 MLOAD DUP1 SWAP2 SUB SWAP1 REVERT JUMPDEST PUSH1 0xCD PUSH1 0x0 SWAP1 SLOAD SWAP1 PUSH2 0x100 EXP SWAP1 DIV PUSH20 0xFFFFFFFFFFFFFFFFFFFFFFFFFFFFFFFFFFFFFFFF AND PUSH20 0xFFFFFFFFFFFFFFFFFFFFFFFFFFFFFFFFFFFFFFFF AND PUSH4 0x1E83409A DUP4 PUSH1 0x40 MLOAD DUP3 PUSH4 0xFFFFFFFF AND PUSH1 0xE0 SHL DUP2 MSTORE PUSH1 0x4 ADD PUSH2 0x1C4E SWAP2 SWAP1 PUSH2 0x2BA5 JUMP JUMPDEST PUSH1 0x20 PUSH1 0x40 MLOAD DUP1 DUP4 SUB DUP2 PUSH1 0x0 DUP8 GAS CALL ISZERO DUP1 ISZERO PUSH2 0x1C6D JUMPI RETURNDATASIZE PUSH1 0x0 DUP1 RETURNDATACOPY RETURNDATASIZE PUSH1 0x0 REVERT JUMPDEST POP POP POP POP PUSH1 0x40 MLOAD RETURNDATASIZE PUSH1 0x1F NOT PUSH1 0x1F DUP3 ADD AND DUP3 ADD DUP1 PUSH1 0x40 MSTORE POP DUP2 ADD SWAP1 PUSH2 0x1C91 SWAP2 SWAP1 PUSH2 0x2D1B JUMP JUMPDEST SWAP1 POP DUP2 PUSH20 0xFFFFFFFFFFFFFFFFFFFFFFFFFFFFFFFFFFFFFFFF AND PUSH32 0x47CEE97CB7ACD717B3C0AA1435D004CD5B3C8C57D70DBCEB4E4458BBD60E39D4 DUP3 PUSH1 0x40 MLOAD PUSH2 0x1CD9 SWAP2 SWAP1 PUSH2 0x29F9 JUMP JUMPDEST PUSH1 0x40 MLOAD DUP1 SWAP2 SUB SWAP1 LOG2 PUSH1 0x1 PUSH1 0x97 DUP2 SWAP1 SSTORE POP SWAP2 SWAP1 POP JUMP JUMPDEST PUSH2 0x1CF6 PUSH2 0x1F26 JUMP JUMPDEST PUSH1 0x0 PUSH20 0xFFFFFFFFFFFFFFFFFFFFFFFFFFFFFFFFFFFFFFFF AND DUP2 PUSH20 0xFFFFFFFFFFFFFFFFFFFFFFFFFFFFFFFFFFFFFFFF AND EQ ISZERO PUSH2 0x1D66 JUMPI PUSH1 0x40 MLOAD PUSH32 0x8C379A000000000000000000000000000000000000000000000000000000000 DUP2 MSTORE PUSH1 0x4 ADD PUSH2 0x1D5D SWAP1 PUSH2 0x30AE JUMP JUMPDEST PUSH1 0x40 MLOAD DUP1 SWAP2 SUB SWAP1 REVERT JUMPDEST PUSH2 0x1D6F DUP2 PUSH2 0x20F3 JUMP JUMPDEST POP JUMP JUMPDEST PUSH2 0x1D7A PUSH2 0x1F26 JUMP JUMPDEST PUSH2 0x1D82 PUSH2 0x24A2 JUMP JUMPDEST JUMP JUMPDEST PUSH2 0x1D8C PUSH2 0xDC0 JUMP JUMPDEST ISZERO PUSH2 0x1DCC JUMPI PUSH1 0x40 MLOAD PUSH32 0x8C379A000000000000000000000000000000000000000000000000000000000 DUP2 MSTORE PUSH1 0x4 ADD PUSH2 0x1DC3 SWAP1 PUSH2 0x311A JUMP JUMPDEST PUSH1 0x40 MLOAD DUP1 SWAP2 SUB SWAP1 REVERT JUMPDEST JUMP JUMPDEST PUSH1 0xCE PUSH1 0x0 SWAP1 SLOAD SWAP1 PUSH2 0x100 EXP SWAP1 DIV PUSH20 0xFFFFFFFFFFFFFFFFFFFFFFFFFFFFFFFFFFFFFFFF AND PUSH20 0xFFFFFFFFFFFFFFFFFFFFFFFFFFFFFFFFFFFFFFFF AND PUSH4 0xD9CAED12 DUP4 PUSH1 0xCB PUSH1 0x0 SWAP1 SLOAD SWAP1 PUSH2 0x100 EXP SWAP1 DIV PUSH20 0xFFFFFFFFFFFFFFFFFFFFFFFFFFFFFFFFFFFFFFFF AND DUP5 PUSH1 0x40 MLOAD DUP5 PUSH4 0xFFFFFFFF AND PUSH1 0xE0 SHL DUP2 MSTORE PUSH1 0x4 ADD PUSH2 0x1E4F SWAP4 SWAP3 SWAP2 SWAP1 PUSH2 0x313A JUMP JUMPDEST PUSH1 0x20 PUSH1 0x40 MLOAD DUP1 DUP4 SUB DUP2 PUSH1 0x0 DUP8 GAS CALL ISZERO DUP1 ISZERO PUSH2 0x1E6E JUMPI RETURNDATASIZE PUSH1 0x0 DUP1 RETURNDATACOPY RETURNDATASIZE PUSH1 0x0 REVERT JUMPDEST POP POP POP POP PUSH1 0x40 MLOAD RETURNDATASIZE PUSH1 0x1F NOT PUSH1 0x1F DUP3 ADD AND DUP3 ADD DUP1 PUSH1 0x40 MSTORE POP DUP2 ADD SWAP1 PUSH2 0x1E92 SWAP2 SWAP1 PUSH2 0x2D1B JUMP JUMPDEST POP PUSH1 0xCC PUSH1 0x0 SWAP1 SLOAD SWAP1 PUSH2 0x100 EXP SWAP1 DIV PUSH20 0xFFFFFFFFFFFFFFFFFFFFFFFFFFFFFFFFFFFFFFFF AND PUSH20 0xFFFFFFFFFFFFFFFFFFFFFFFFFFFFFFFFFFFFFFFF AND PUSH4 0x9DC29FAC DUP4 DUP4 PUSH1 0x40 MLOAD DUP4 PUSH4 0xFFFFFFFF AND PUSH1 0xE0 SHL DUP2 MSTORE PUSH1 0x4 ADD PUSH2 0x1EF0 SWAP3 SWAP2 SWAP1 PUSH2 0x2DDA JUMP JUMPDEST PUSH1 0x0 PUSH1 0x40 MLOAD DUP1 DUP4 SUB DUP2 PUSH1 0x0 DUP8 DUP1 EXTCODESIZE ISZERO DUP1 ISZERO PUSH2 0x1F0A JUMPI PUSH1 0x0 DUP1 REVERT JUMPDEST POP GAS CALL ISZERO DUP1 ISZERO PUSH2 0x1F1E JUMPI RETURNDATASIZE PUSH1 0x0 DUP1 RETURNDATACOPY RETURNDATASIZE PUSH1 0x0 REVERT JUMPDEST POP POP POP POP POP POP JUMP JUMPDEST PUSH2 0x1F2E PUSH2 0x2505 JUMP JUMPDEST PUSH20 0xFFFFFFFFFFFFFFFFFFFFFFFFFFFFFFFFFFFFFFFF AND PUSH2 0x1F4C PUSH2 0x11A6 JUMP JUMPDEST PUSH20 0xFFFFFFFFFFFFFFFFFFFFFFFFFFFFFFFFFFFFFFFF AND EQ PUSH2 0x1FA2 JUMPI PUSH1 0x40 MLOAD PUSH32 0x8C379A000000000000000000000000000000000000000000000000000000000 DUP2 MSTORE PUSH1 0x4 ADD PUSH2 0x1F99 SWAP1 PUSH2 0x31BD JUMP JUMPDEST PUSH1 0x40 MLOAD DUP1 SWAP2 SUB SWAP1 REVERT JUMPDEST JUMP JUMPDEST PUSH1 0x0 DUP2 EQ DUP1 PUSH2 0x202E JUMPI POP PUSH1 0x0 DUP4 PUSH20 0xFFFFFFFFFFFFFFFFFFFFFFFFFFFFFFFFFFFFFFFF AND PUSH4 0xDD62ED3E ADDRESS DUP6 PUSH1 0x40 MLOAD DUP4 PUSH4 0xFFFFFFFF AND PUSH1 0xE0 SHL DUP2 MSTORE PUSH1 0x4 ADD PUSH2 0x1FEB SWAP3 SWAP2 SWAP1 PUSH2 0x31DD JUMP JUMPDEST PUSH1 0x20 PUSH1 0x40 MLOAD DUP1 DUP4 SUB DUP2 DUP7 GAS STATICCALL ISZERO DUP1 ISZERO PUSH2 0x2008 JUMPI RETURNDATASIZE PUSH1 0x0 DUP1 RETURNDATACOPY RETURNDATASIZE PUSH1 0x0 REVERT JUMPDEST POP POP POP POP PUSH1 0x40 MLOAD RETURNDATASIZE PUSH1 0x1F NOT PUSH1 0x1F DUP3 ADD AND DUP3 ADD DUP1 PUSH1 0x40 MSTORE POP DUP2 ADD SWAP1 PUSH2 0x202C SWAP2 SWAP1 PUSH2 0x2D1B JUMP JUMPDEST EQ JUMPDEST PUSH2 0x206D JUMPI PUSH1 0x40 MLOAD PUSH32 0x8C379A000000000000000000000000000000000000000000000000000000000 DUP2 MSTORE PUSH1 0x4 ADD PUSH2 0x2064 SWAP1 PUSH2 0x3278 JUMP JUMPDEST PUSH1 0x40 MLOAD DUP1 SWAP2 SUB SWAP1 REVERT JUMPDEST PUSH2 0x20EE DUP4 PUSH4 0x95EA7B3 PUSH1 0xE0 SHL DUP5 DUP5 PUSH1 0x40 MLOAD PUSH1 0x24 ADD PUSH2 0x208C SWAP3 SWAP2 SWAP1 PUSH2 0x2DDA JUMP JUMPDEST PUSH1 0x40 MLOAD PUSH1 0x20 DUP2 DUP4 SUB SUB DUP2 MSTORE SWAP1 PUSH1 0x40 MSTORE SWAP1 PUSH28 0xFFFFFFFFFFFFFFFFFFFFFFFFFFFFFFFFFFFFFFFFFFFFFFFFFFFFFFFF NOT AND PUSH1 0x20 DUP3 ADD DUP1 MLOAD PUSH28 0xFFFFFFFFFFFFFFFFFFFFFFFFFFFFFFFFFFFFFFFFFFFFFFFFFFFFFFFF DUP4 DUP2 DUP4 AND OR DUP4 MSTORE POP POP POP POP PUSH2 0x250D JUMP JUMPDEST POP POP POP JUMP JUMPDEST PUSH1 0x0 PUSH1 0x33 PUSH1 0x0 SWAP1 SLOAD SWAP1 PUSH2 0x100 EXP SWAP1 DIV PUSH20 0xFFFFFFFFFFFFFFFFFFFFFFFFFFFFFFFFFFFFFFFF AND SWAP1 POP DUP2 PUSH1 0x33 PUSH1 0x0 PUSH2 0x100 EXP DUP2 SLOAD DUP2 PUSH20 0xFFFFFFFFFFFFFFFFFFFFFFFFFFFFFFFFFFFFFFFF MUL NOT AND SWAP1 DUP4 PUSH20 0xFFFFFFFFFFFFFFFFFFFFFFFFFFFFFFFFFFFFFFFF AND MUL OR SWAP1 SSTORE POP DUP2 PUSH20 0xFFFFFFFFFFFFFFFFFFFFFFFFFFFFFFFFFFFFFFFF AND DUP2 PUSH20 0xFFFFFFFFFFFFFFFFFFFFFFFFFFFFFFFFFFFFFFFF AND PUSH32 0x8BE0079C531659141344CD1FD0A4F28419497F9722A3DAAFE3B4186F6B6457E0 PUSH1 0x40 MLOAD PUSH1 0x40 MLOAD DUP1 SWAP2 SUB SWAP1 LOG3 POP POP JUMP JUMPDEST PUSH2 0x21C1 PUSH2 0x1D84 JUMP JUMPDEST PUSH1 0x1 PUSH1 0x65 PUSH1 0x0 PUSH2 0x100 EXP DUP2 SLOAD DUP2 PUSH1 0xFF MUL NOT AND SWAP1 DUP4 ISZERO ISZERO MUL OR SWAP1 SSTORE POP PUSH32 0x62E78CEA01BEE320CD4E420270B5EA74000D11B0C9F74754EBDBFC544B05A258 PUSH2 0x2205 PUSH2 0x2505 JUMP JUMPDEST PUSH1 0x40 MLOAD PUSH2 0x2212 SWAP2 SWAP1 PUSH2 0x2BA5 JUMP JUMPDEST PUSH1 0x40 MLOAD DUP1 SWAP2 SUB SWAP1 LOG1 JUMP JUMPDEST PUSH1 0xCE PUSH1 0x0 SWAP1 SLOAD SWAP1 PUSH2 0x100 EXP SWAP1 DIV PUSH20 0xFFFFFFFFFFFFFFFFFFFFFFFFFFFFFFFFFFFFFFFF AND PUSH20 0xFFFFFFFFFFFFFFFFFFFFFFFFFFFFFFFFFFFFFFFF AND PUSH4 0x8340F549 DUP4 PUSH1 0xCB PUSH1 0x0 SWAP1 SLOAD SWAP1 PUSH2 0x100 EXP SWAP1 DIV PUSH20 0xFFFFFFFFFFFFFFFFFFFFFFFFFFFFFFFFFFFFFFFF AND DUP5 PUSH1 0x40 MLOAD DUP5 PUSH4 0xFFFFFFFF AND PUSH1 0xE0 SHL DUP2 MSTORE PUSH1 0x4 ADD PUSH2 0x229D SWAP4 SWAP3 SWAP2 SWAP1 PUSH2 0x313A JUMP JUMPDEST PUSH1 0x20 PUSH1 0x40 MLOAD DUP1 DUP4 SUB DUP2 PUSH1 0x0 DUP8 GAS CALL ISZERO DUP1 ISZERO PUSH2 0x22BC JUMPI RETURNDATASIZE PUSH1 0x0 DUP1 RETURNDATACOPY RETURNDATASIZE PUSH1 0x0 REVERT JUMPDEST POP POP POP POP PUSH1 0x40 MLOAD RETURNDATASIZE PUSH1 0x1F NOT PUSH1 0x1F DUP3 ADD AND DUP3 ADD DUP1 PUSH1 0x40 MSTORE POP DUP2 ADD SWAP1 PUSH2 0x22E0 SWAP2 SWAP1 PUSH2 0x2D1B JUMP JUMPDEST POP PUSH1 0xCC PUSH1 0x0 SWAP1 SLOAD SWAP1 PUSH2 0x100 EXP SWAP1 DIV PUSH20 0xFFFFFFFFFFFFFFFFFFFFFFFFFFFFFFFFFFFFFFFF AND PUSH20 0xFFFFFFFFFFFFFFFFFFFFFFFFFFFFFFFFFFFFFFFF AND PUSH4 0x40C10F19 DUP4 DUP4 PUSH1 0x40 MLOAD DUP4 PUSH4 0xFFFFFFFF AND PUSH1 0xE0 SHL DUP2 MSTORE PUSH1 0x4 ADD PUSH2 0x233E SWAP3 SWAP2 SWAP1 PUSH2 0x2DDA JUMP JUMPDEST PUSH1 0x0 PUSH1 0x40 MLOAD DUP1 DUP4 SUB DUP2 PUSH1 0x0 DUP8 DUP1 EXTCODESIZE ISZERO DUP1 ISZERO PUSH2 0x2358 JUMPI PUSH1 0x0 DUP1 REVERT JUMPDEST POP GAS CALL ISZERO DUP1 ISZERO PUSH2 0x236C JUMPI RETURNDATASIZE PUSH1 0x0 DUP1 RETURNDATACOPY RETURNDATASIZE PUSH1 0x0 REVERT JUMPDEST POP POP POP POP POP POP JUMP JUMPDEST PUSH1 0x0 DUP1 DUP3 PUSH20 0xFFFFFFFFFFFFFFFFFFFFFFFFFFFFFFFFFFFFFFFF AND EXTCODESIZE GT SWAP1 POP SWAP2 SWAP1 POP JUMP JUMPDEST PUSH1 0x0 PUSH1 0x1 SWAP1 SLOAD SWAP1 PUSH2 0x100 EXP SWAP1 DIV PUSH1 0xFF AND PUSH2 0x23E6 JUMPI PUSH1 0x40 MLOAD PUSH32 0x8C379A000000000000000000000000000000000000000000000000000000000 DUP2 MSTORE PUSH1 0x4 ADD PUSH2 0x23DD SWAP1 PUSH2 0x330A JUMP JUMPDEST PUSH1 0x40 MLOAD DUP1 SWAP2 SUB SWAP1 REVERT JUMPDEST PUSH2 0x23EE PUSH2 0x25D4 JUMP JUMPDEST JUMP JUMPDEST PUSH1 0x0 PUSH1 0x1 SWAP1 SLOAD SWAP1 PUSH2 0x100 EXP SWAP1 DIV PUSH1 0xFF AND PUSH2 0x243F JUMPI PUSH1 0x40 MLOAD PUSH32 0x8C379A000000000000000000000000000000000000000000000000000000000 DUP2 MSTORE PUSH1 0x4 ADD PUSH2 0x2436 SWAP1 PUSH2 0x330A JUMP JUMPDEST PUSH1 0x40 MLOAD DUP1 SWAP2 SUB SWAP1 REVERT JUMPDEST PUSH2 0x2447 PUSH2 0x2635 JUMP JUMPDEST JUMP JUMPDEST PUSH1 0x0 PUSH1 0x1 SWAP1 SLOAD SWAP1 PUSH2 0x100 EXP SWAP1 DIV PUSH1 0xFF AND PUSH2 0x2498 JUMPI PUSH1 0x40 MLOAD PUSH32 0x8C379A000000000000000000000000000000000000000000000000000000000 DUP2 MSTORE PUSH1 0x4 ADD PUSH2 0x248F SWAP1 PUSH2 0x330A JUMP JUMPDEST PUSH1 0x40 MLOAD DUP1 SWAP2 SUB SWAP1 REVERT JUMPDEST PUSH2 0x24A0 PUSH2 0x26A1 JUMP JUMPDEST JUMP JUMPDEST PUSH2 0x24AA PUSH2 0x26FA JUMP JUMPDEST PUSH1 0x0 PUSH1 0x65 PUSH1 0x0 PUSH2 0x100 EXP DUP2 SLOAD DUP2 PUSH1 0xFF MUL NOT AND SWAP1 DUP4 ISZERO ISZERO MUL OR SWAP1 SSTORE POP PUSH32 0x5DB9EE0A495BF2E6FF9C91A7834C1BA4FDD244A5E8AA4E537BD38AEAE4B073AA PUSH2 0x24EE PUSH2 0x2505 JUMP JUMPDEST PUSH1 0x40 MLOAD PUSH2 0x24FB SWAP2 SWAP1 PUSH2 0x2BA5 JUMP JUMPDEST PUSH1 0x40 MLOAD DUP1 SWAP2 SUB SWAP1 LOG1 JUMP JUMPDEST PUSH1 0x0 CALLER SWAP1 POP SWAP1 JUMP JUMPDEST PUSH1 0x0 PUSH2 0x256F DUP3 PUSH1 0x40 MLOAD DUP1 PUSH1 0x40 ADD PUSH1 0x40 MSTORE DUP1 PUSH1 0x20 DUP2 MSTORE PUSH1 0x20 ADD PUSH32 0x5361666545524332303A206C6F772D6C6576656C2063616C6C206661696C6564 DUP2 MSTORE POP DUP6 PUSH20 0xFFFFFFFFFFFFFFFFFFFFFFFFFFFFFFFFFFFFFFFF AND PUSH2 0x2743 SWAP1 SWAP3 SWAP2 SWAP1 PUSH4 0xFFFFFFFF AND JUMP JUMPDEST SWAP1 POP PUSH1 0x0 DUP2 MLOAD GT ISZERO PUSH2 0x25CF JUMPI DUP1 DUP1 PUSH1 0x20 ADD SWAP1 MLOAD DUP2 ADD SWAP1 PUSH2 0x258F SWAP2 SWAP1 PUSH2 0x3356 JUMP JUMPDEST PUSH2 0x25CE JUMPI PUSH1 0x40 MLOAD PUSH32 0x8C379A000000000000000000000000000000000000000000000000000000000 DUP2 MSTORE PUSH1 0x4 ADD PUSH2 0x25C5 SWAP1 PUSH2 0x33F5 JUMP JUMPDEST PUSH1 0x40 MLOAD DUP1 SWAP2 SUB SWAP1 REVERT JUMPDEST JUMPDEST POP POP POP JUMP JUMPDEST PUSH1 0x0 PUSH1 0x1 SWAP1 SLOAD SWAP1 PUSH2 0x100 EXP SWAP1 DIV PUSH1 0xFF AND PUSH2 0x2623 JUMPI PUSH1 0x40 MLOAD PUSH32 0x8C379A000000000000000000000000000000000000000000000000000000000 DUP2 MSTORE PUSH1 0x4 ADD PUSH2 0x261A SWAP1 PUSH2 0x330A JUMP JUMPDEST PUSH1 0x40 MLOAD DUP1 SWAP2 SUB SWAP1 REVERT JUMPDEST PUSH2 0x2633 PUSH2 0x262E PUSH2 0x2505 JUMP JUMPDEST PUSH2 0x20F3 JUMP JUMPDEST JUMP JUMPDEST PUSH1 0x0 PUSH1 0x1 SWAP1 SLOAD SWAP1 PUSH2 0x100 EXP SWAP1 DIV PUSH1 0xFF AND PUSH2 0x2684 JUMPI PUSH1 0x40 MLOAD PUSH32 0x8C379A000000000000000000000000000000000000000000000000000000000 DUP2 MSTORE PUSH1 0x4 ADD PUSH2 0x267B SWAP1 PUSH2 0x330A JUMP JUMPDEST PUSH1 0x40 MLOAD DUP1 SWAP2 SUB SWAP1 REVERT JUMPDEST PUSH1 0x0 PUSH1 0x65 PUSH1 0x0 PUSH2 0x100 EXP DUP2 SLOAD DUP2 PUSH1 0xFF MUL NOT AND SWAP1 DUP4 ISZERO ISZERO MUL OR SWAP1 SSTORE POP JUMP JUMPDEST PUSH1 0x0 PUSH1 0x1 SWAP1 SLOAD SWAP1 PUSH2 0x100 EXP SWAP1 DIV PUSH1 0xFF AND PUSH2 0x26F0 JUMPI PUSH1 0x40 MLOAD PUSH32 0x8C379A000000000000000000000000000000000000000000000000000000000 DUP2 MSTORE PUSH1 0x4 ADD PUSH2 0x26E7 SWAP1 PUSH2 0x330A JUMP JUMPDEST PUSH1 0x40 MLOAD DUP1 SWAP2 SUB SWAP1 REVERT JUMPDEST PUSH1 0x1 PUSH1 0x97 DUP2 SWAP1 SSTORE POP JUMP JUMPDEST PUSH2 0x2702 PUSH2 0xDC0 JUMP JUMPDEST PUSH2 0x2741 JUMPI PUSH1 0x40 MLOAD PUSH32 0x8C379A000000000000000000000000000000000000000000000000000000000 DUP2 MSTORE PUSH1 0x4 ADD PUSH2 0x2738 SWAP1 PUSH2 0x3461 JUMP JUMPDEST PUSH1 0x40 MLOAD DUP1 SWAP2 SUB SWAP1 REVERT JUMPDEST JUMP JUMPDEST PUSH1 0x60 PUSH2 0x2752 DUP5 DUP5 PUSH1 0x0 DUP6 PUSH2 0x275B JUMP JUMPDEST SWAP1 POP SWAP4 SWAP3 POP POP POP JUMP JUMPDEST PUSH1 0x60 DUP3 SELFBALANCE LT ISZERO PUSH2 0x27A0 JUMPI PUSH1 0x40 MLOAD PUSH32 0x8C379A000000000000000000000000000000000000000000000000000000000 DUP2 MSTORE PUSH1 0x4 ADD PUSH2 0x2797 SWAP1 PUSH2 0x34F3 JUMP JUMPDEST PUSH1 0x40 MLOAD DUP1 SWAP2 SUB SWAP1 REVERT JUMPDEST PUSH1 0x0 DUP1 DUP7 PUSH20 0xFFFFFFFFFFFFFFFFFFFFFFFFFFFFFFFFFFFFFFFF AND DUP6 DUP8 PUSH1 0x40 MLOAD PUSH2 0x27C9 SWAP2 SWAP1 PUSH2 0x358D JUMP JUMPDEST PUSH1 0x0 PUSH1 0x40 MLOAD DUP1 DUP4 SUB DUP2 DUP6 DUP8 GAS CALL SWAP3 POP POP POP RETURNDATASIZE DUP1 PUSH1 0x0 DUP2 EQ PUSH2 0x2806 JUMPI PUSH1 0x40 MLOAD SWAP2 POP PUSH1 0x1F NOT PUSH1 0x3F RETURNDATASIZE ADD AND DUP3 ADD PUSH1 0x40 MSTORE RETURNDATASIZE DUP3 MSTORE RETURNDATASIZE PUSH1 0x0 PUSH1 0x20 DUP5 ADD RETURNDATACOPY PUSH2 0x280B JUMP JUMPDEST PUSH1 0x60 SWAP2 POP JUMPDEST POP SWAP2 POP SWAP2 POP PUSH2 0x281C DUP8 DUP4 DUP4 DUP8 PUSH2 0x2828 JUMP JUMPDEST SWAP3 POP POP POP SWAP5 SWAP4 POP POP POP POP JUMP JUMPDEST PUSH1 0x60 DUP4 ISZERO PUSH2 0x288B JUMPI PUSH1 0x0 DUP4 MLOAD EQ ISZERO PUSH2 0x2883 JUMPI PUSH2 0x2843 DUP6 PUSH2 0x289E JUMP JUMPDEST PUSH2 0x2882 JUMPI PUSH1 0x40 MLOAD PUSH32 0x8C379A000000000000000000000000000000000000000000000000000000000 DUP2 MSTORE PUSH1 0x4 ADD PUSH2 0x2879 SWAP1 PUSH2 0x35F0 JUMP JUMPDEST PUSH1 0x40 MLOAD DUP1 SWAP2 SUB SWAP1 REVERT JUMPDEST JUMPDEST DUP3 SWAP1 POP PUSH2 0x2896 JUMP JUMPDEST PUSH2 0x2895 DUP4 DUP4 PUSH2 0x28C1 JUMP JUMPDEST JUMPDEST SWAP5 SWAP4 POP POP POP POP JUMP JUMPDEST PUSH1 0x0 DUP1 DUP3 PUSH20 0xFFFFFFFFFFFFFFFFFFFFFFFFFFFFFFFFFFFFFFFF AND EXTCODESIZE GT SWAP1 POP SWAP2 SWAP1 POP JUMP JUMPDEST PUSH1 0x0 DUP3 MLOAD GT ISZERO PUSH2 0x28D4 JUMPI DUP2 MLOAD DUP1 DUP4 PUSH1 0x20 ADD REVERT JUMPDEST DUP1 PUSH1 0x40 MLOAD PUSH32 0x8C379A000000000000000000000000000000000000000000000000000000000 DUP2 MSTORE PUSH1 0x4 ADD PUSH2 0x2908 SWAP2 SWAP1 PUSH2 0x3665 JUMP JUMPDEST PUSH1 0x40 MLOAD DUP1 SWAP2 SUB SWAP1 REVERT JUMPDEST PUSH1 0x0 DUP1 REVERT JUMPDEST PUSH1 0x0 PUSH20 0xFFFFFFFFFFFFFFFFFFFFFFFFFFFFFFFFFFFFFFFF DUP3 AND SWAP1 POP SWAP2 SWAP1 POP JUMP JUMPDEST PUSH1 0x0 PUSH2 0x2941 DUP3 PUSH2 0x2916 JUMP JUMPDEST SWAP1 POP SWAP2 SWAP1 POP JUMP JUMPDEST PUSH2 0x2951 DUP2 PUSH2 0x2936 JUMP JUMPDEST DUP2 EQ PUSH2 0x295C JUMPI PUSH1 0x0 DUP1 REVERT JUMPDEST POP JUMP JUMPDEST PUSH1 0x0 DUP2 CALLDATALOAD SWAP1 POP PUSH2 0x296E DUP2 PUSH2 0x2948 JUMP JUMPDEST SWAP3 SWAP2 POP POP JUMP JUMPDEST PUSH1 0x0 DUP2 SWAP1 POP SWAP2 SWAP1 POP JUMP JUMPDEST PUSH2 0x2987 DUP2 PUSH2 0x2974 JUMP JUMPDEST DUP2 EQ PUSH2 0x2992 JUMPI PUSH1 0x0 DUP1 REVERT JUMPDEST POP JUMP JUMPDEST PUSH1 0x0 DUP2 CALLDATALOAD SWAP1 POP PUSH2 0x29A4 DUP2 PUSH2 0x297E JUMP JUMPDEST SWAP3 SWAP2 POP POP JUMP JUMPDEST PUSH1 0x0 DUP1 PUSH1 0x40 DUP4 DUP6 SUB SLT ISZERO PUSH2 0x29C1 JUMPI PUSH2 0x29C0 PUSH2 0x2911 JUMP JUMPDEST JUMPDEST PUSH1 0x0 PUSH2 0x29CF DUP6 DUP3 DUP7 ADD PUSH2 0x295F JUMP JUMPDEST SWAP3 POP POP PUSH1 0x20 PUSH2 0x29E0 DUP6 DUP3 DUP7 ADD PUSH2 0x2995 JUMP JUMPDEST SWAP2 POP POP SWAP3 POP SWAP3 SWAP1 POP JUMP JUMPDEST PUSH2 0x29F3 DUP2 PUSH2 0x2974 JUMP JUMPDEST DUP3 MSTORE POP POP JUMP JUMPDEST PUSH1 0x0 PUSH1 0x20 DUP3 ADD SWAP1 POP PUSH2 0x2A0E PUSH1 0x0 DUP4 ADD DUP5 PUSH2 0x29EA JUMP JUMPDEST SWAP3 SWAP2 POP POP JUMP JUMPDEST PUSH1 0x0 PUSH1 0x20 DUP3 DUP5 SUB SLT ISZERO PUSH2 0x2A2A JUMPI PUSH2 0x2A29 PUSH2 0x2911 JUMP JUMPDEST JUMPDEST PUSH1 0x0 PUSH2 0x2A38 DUP5 DUP3 DUP6 ADD PUSH2 0x295F JUMP JUMPDEST SWAP2 POP POP SWAP3 SWAP2 POP POP JUMP JUMPDEST PUSH1 0x0 PUSH1 0x20 DUP3 DUP5 SUB SLT ISZERO PUSH2 0x2A57 JUMPI PUSH2 0x2A56 PUSH2 0x2911 JUMP JUMPDEST JUMPDEST PUSH1 0x0 PUSH2 0x2A65 DUP5 DUP3 DUP6 ADD PUSH2 0x2995 JUMP JUMPDEST SWAP2 POP POP SWAP3 SWAP2 POP POP JUMP JUMPDEST PUSH1 0x0 DUP2 SWAP1 POP SWAP2 SWAP1 POP JUMP JUMPDEST PUSH1 0x0 PUSH2 0x2A93 PUSH2 0x2A8E PUSH2 0x2A89 DUP5 PUSH2 0x2916 JUMP JUMPDEST PUSH2 0x2A6E JUMP JUMPDEST PUSH2 0x2916 JUMP JUMPDEST SWAP1 POP SWAP2 SWAP1 POP JUMP JUMPDEST PUSH1 0x0 PUSH2 0x2AA5 DUP3 PUSH2 0x2A78 JUMP JUMPDEST SWAP1 POP SWAP2 SWAP1 POP JUMP JUMPDEST PUSH1 0x0 PUSH2 0x2AB7 DUP3 PUSH2 0x2A9A JUMP JUMPDEST SWAP1 POP SWAP2 SWAP1 POP JUMP JUMPDEST PUSH2 0x2AC7 DUP2 PUSH2 0x2AAC JUMP JUMPDEST DUP3 MSTORE POP POP JUMP JUMPDEST PUSH1 0x0 PUSH1 0x20 DUP3 ADD SWAP1 POP PUSH2 0x2AE2 PUSH1 0x0 DUP4 ADD DUP5 PUSH2 0x2ABE JUMP JUMPDEST SWAP3 SWAP2 POP POP JUMP JUMPDEST PUSH1 0x0 PUSH2 0x2AF3 DUP3 PUSH2 0x2A9A JUMP JUMPDEST SWAP1 POP SWAP2 SWAP1 POP JUMP JUMPDEST PUSH2 0x2B03 DUP2 PUSH2 0x2AE8 JUMP JUMPDEST DUP3 MSTORE POP POP JUMP JUMPDEST PUSH1 0x0 PUSH1 0x20 DUP3 ADD SWAP1 POP PUSH2 0x2B1E PUSH1 0x0 DUP4 ADD DUP5 PUSH2 0x2AFA JUMP JUMPDEST SWAP3 SWAP2 POP POP JUMP JUMPDEST PUSH1 0x0 DUP2 ISZERO ISZERO SWAP1 POP SWAP2 SWAP1 POP JUMP JUMPDEST PUSH2 0x2B39 DUP2 PUSH2 0x2B24 JUMP JUMPDEST DUP3 MSTORE POP POP JUMP JUMPDEST PUSH1 0x0 PUSH1 0x20 DUP3 ADD SWAP1 POP PUSH2 0x2B54 PUSH1 0x0 DUP4 ADD DUP5 PUSH2 0x2B30 JUMP JUMPDEST SWAP3 SWAP2 POP POP JUMP JUMPDEST PUSH1 0x0 PUSH2 0x2B65 DUP3 PUSH2 0x2A9A JUMP JUMPDEST SWAP1 POP SWAP2 SWAP1 POP JUMP JUMPDEST PUSH2 0x2B75 DUP2 PUSH2 0x2B5A JUMP JUMPDEST DUP3 MSTORE POP POP JUMP JUMPDEST PUSH1 0x0 PUSH1 0x20 DUP3 ADD SWAP1 POP PUSH2 0x2B90 PUSH1 0x0 DUP4 ADD DUP5 PUSH2 0x2B6C JUMP JUMPDEST SWAP3 SWAP2 POP POP JUMP JUMPDEST PUSH2 0x2B9F DUP2 PUSH2 0x2936 JUMP JUMPDEST DUP3 MSTORE POP POP JUMP JUMPDEST PUSH1 0x0 PUSH1 0x20 DUP3 ADD SWAP1 POP PUSH2 0x2BBA PUSH1 0x0 DUP4 ADD DUP5 PUSH2 0x2B96 JUMP JUMPDEST SWAP3 SWAP2 POP POP JUMP JUMPDEST PUSH1 0x0 DUP1 PUSH1 0x0 DUP1 PUSH1 0x0 DUP1 PUSH1 0xC0 DUP8 DUP10 SUB SLT ISZERO PUSH2 0x2BDD JUMPI PUSH2 0x2BDC PUSH2 0x2911 JUMP JUMPDEST JUMPDEST PUSH1 0x0 PUSH2 0x2BEB DUP10 DUP3 DUP11 ADD PUSH2 0x295F JUMP JUMPDEST SWAP7 POP POP PUSH1 0x20 PUSH2 0x2BFC DUP10 DUP3 DUP11 ADD PUSH2 0x295F JUMP JUMPDEST SWAP6 POP POP PUSH1 0x40 PUSH2 0x2C0D DUP10 DUP3 DUP11 ADD PUSH2 0x295F JUMP JUMPDEST SWAP5 POP POP PUSH1 0x60 PUSH2 0x2C1E DUP10 DUP3 DUP11 ADD PUSH2 0x295F JUMP JUMPDEST SWAP4 POP POP PUSH1 0x80 PUSH2 0x2C2F DUP10 DUP3 DUP11 ADD PUSH2 0x295F JUMP JUMPDEST SWAP3 POP POP PUSH1 0xA0 PUSH2 0x2C40 DUP10 DUP3 DUP11 ADD PUSH2 0x295F JUMP JUMPDEST SWAP2 POP POP SWAP3 SWAP6 POP SWAP3 SWAP6 POP SWAP3 SWAP6 JUMP JUMPDEST PUSH1 0x0 PUSH2 0x2C58 DUP3 PUSH2 0x2A9A JUMP JUMPDEST SWAP1 POP SWAP2 SWAP1 POP JUMP JUMPDEST PUSH2 0x2C68 DUP2 PUSH2 0x2C4D JUMP JUMPDEST DUP3 MSTORE POP POP JUMP JUMPDEST PUSH1 0x0 PUSH1 0x20 DUP3 ADD SWAP1 POP PUSH2 0x2C83 PUSH1 0x0 DUP4 ADD DUP5 PUSH2 0x2C5F JUMP JUMPDEST SWAP3 SWAP2 POP POP JUMP JUMPDEST PUSH1 0x0 DUP3 DUP3 MSTORE PUSH1 0x20 DUP3 ADD SWAP1 POP SWAP3 SWAP2 POP POP JUMP JUMPDEST PUSH32 0x5265656E7472616E637947756172643A207265656E7472616E742063616C6C00 PUSH1 0x0 DUP3 ADD MSTORE POP JUMP JUMPDEST PUSH1 0x0 PUSH2 0x2CD0 PUSH1 0x1F DUP4 PUSH2 0x2C89 JUMP JUMPDEST SWAP2 POP PUSH2 0x2CDB DUP3 PUSH2 0x2C9A JUMP JUMPDEST PUSH1 0x20 DUP3 ADD SWAP1 POP SWAP2 SWAP1 POP JUMP JUMPDEST PUSH1 0x0 PUSH1 0x20 DUP3 ADD SWAP1 POP DUP2 DUP2 SUB PUSH1 0x0 DUP4 ADD MSTORE PUSH2 0x2CFF DUP2 PUSH2 0x2CC3 JUMP JUMPDEST SWAP1 POP SWAP2 SWAP1 POP JUMP JUMPDEST PUSH1 0x0 DUP2 MLOAD SWAP1 POP PUSH2 0x2D15 DUP2 PUSH2 0x297E JUMP JUMPDEST SWAP3 SWAP2 POP POP JUMP JUMPDEST PUSH1 0x0 PUSH1 0x20 DUP3 DUP5 SUB SLT ISZERO PUSH2 0x2D31 JUMPI PUSH2 0x2D30 PUSH2 0x2911 JUMP JUMPDEST JUMPDEST PUSH1 0x0 PUSH2 0x2D3F DUP5 DUP3 DUP6 ADD PUSH2 0x2D06 JUMP JUMPDEST SWAP2 POP POP SWAP3 SWAP2 POP POP JUMP JUMPDEST PUSH32 0x76616C7565206D7573742062652067726561746572207468616E206D696E2075 PUSH1 0x0 DUP3 ADD MSTORE PUSH32 0x6E7374616B6520616D6F756E7400000000000000000000000000000000000000 PUSH1 0x20 DUP3 ADD MSTORE POP JUMP JUMPDEST PUSH1 0x0 PUSH2 0x2DA4 PUSH1 0x2D DUP4 PUSH2 0x2C89 JUMP JUMPDEST SWAP2 POP PUSH2 0x2DAF DUP3 PUSH2 0x2D48 JUMP JUMPDEST PUSH1 0x40 DUP3 ADD SWAP1 POP SWAP2 SWAP1 POP JUMP JUMPDEST PUSH1 0x0 PUSH1 0x20 DUP3 ADD SWAP1 POP DUP2 DUP2 SUB PUSH1 0x0 DUP4 ADD MSTORE PUSH2 0x2DD3 DUP2 PUSH2 0x2D97 JUMP JUMPDEST SWAP1 POP SWAP2 SWAP1 POP JUMP JUMPDEST PUSH1 0x0 PUSH1 0x40 DUP3 ADD SWAP1 POP PUSH2 0x2DEF PUSH1 0x0 DUP4 ADD DUP6 PUSH2 0x2B96 JUMP JUMPDEST PUSH2 0x2DFC PUSH1 0x20 DUP4 ADD DUP5 PUSH2 0x29EA JUMP JUMPDEST SWAP4 SWAP3 POP POP POP JUMP JUMPDEST PUSH32 0x41756374696F6E50726F78793A206E6F7420616C6C6F77656400000000000000 PUSH1 0x0 DUP3 ADD MSTORE POP JUMP JUMPDEST PUSH1 0x0 PUSH2 0x2E39 PUSH1 0x19 DUP4 PUSH2 0x2C89 JUMP JUMPDEST SWAP2 POP PUSH2 0x2E44 DUP3 PUSH2 0x2E03 JUMP JUMPDEST PUSH1 0x20 DUP3 ADD SWAP1 POP SWAP2 SWAP1 POP JUMP JUMPDEST PUSH1 0x0 PUSH1 0x20 DUP3 ADD SWAP1 POP DUP2 DUP2 SUB PUSH1 0x0 DUP4 ADD MSTORE PUSH2 0x2E68 DUP2 PUSH2 0x2E2C JUMP JUMPDEST SWAP1 POP SWAP2 SWAP1 POP JUMP JUMPDEST PUSH32 0x48656C696F50726F76696465722F44697361626C656400000000000000000000 PUSH1 0x0 DUP3 ADD MSTORE POP JUMP JUMPDEST PUSH1 0x0 PUSH2 0x2EA5 PUSH1 0x16 DUP4 PUSH2 0x2C89 JUMP JUMPDEST SWAP2 POP PUSH2 0x2EB0 DUP3 PUSH2 0x2E6F JUMP JUMPDEST PUSH1 0x20 DUP3 ADD SWAP1 POP SWAP2 SWAP1 POP JUMP JUMPDEST PUSH1 0x0 PUSH1 0x20 DUP3 ADD SWAP1 POP DUP2 DUP2 SUB PUSH1 0x0 DUP4 ADD MSTORE PUSH2 0x2ED4 DUP2 PUSH2 0x2E98 JUMP JUMPDEST SWAP1 POP SWAP2 SWAP1 POP JUMP JUMPDEST PUSH32 0x496E697469616C697A61626C653A20636F6E747261637420697320616C726561 PUSH1 0x0 DUP3 ADD MSTORE PUSH32 0x647920696E697469616C697A6564000000000000000000000000000000000000 PUSH1 0x20 DUP3 ADD MSTORE POP JUMP JUMPDEST PUSH1 0x0 PUSH2 0x2F37 PUSH1 0x2E DUP4 PUSH2 0x2C89 JUMP JUMPDEST SWAP2 POP PUSH2 0x2F42 DUP3 PUSH2 0x2EDB JUMP JUMPDEST PUSH1 0x40 DUP3 ADD SWAP1 POP SWAP2 SWAP1 POP JUMP JUMPDEST PUSH1 0x0 PUSH1 0x20 DUP3 ADD SWAP1 POP DUP2 DUP2 SUB PUSH1 0x0 DUP4 ADD MSTORE PUSH2 0x2F66 DUP2 PUSH2 0x2F2A JUMP JUMPDEST SWAP1 POP SWAP2 SWAP1 POP JUMP JUMPDEST PUSH1 0x0 DUP2 SWAP1 POP SWAP2 SWAP1 POP JUMP JUMPDEST PUSH1 0x0 PUSH1 0xFF DUP3 AND SWAP1 POP SWAP2 SWAP1 POP JUMP JUMPDEST PUSH1 0x0 PUSH2 0x2F9F PUSH2 0x2F9A PUSH2 0x2F95 DUP5 PUSH2 0x2F6D JUMP JUMPDEST PUSH2 0x2A6E JUMP JUMPDEST PUSH2 0x2F77 JUMP JUMPDEST SWAP1 POP SWAP2 SWAP1 POP JUMP JUMPDEST PUSH2 0x2FAF DUP2 PUSH2 0x2F84 JUMP JUMPDEST DUP3 MSTORE POP POP JUMP JUMPDEST PUSH1 0x0 PUSH1 0x20 DUP3 ADD SWAP1 POP PUSH2 0x2FCA PUSH1 0x0 DUP4 ADD DUP5 PUSH2 0x2FA6 JUMP JUMPDEST SWAP3 SWAP2 POP POP JUMP JUMPDEST PUSH32 0x4F70657261746F723A206E6F7420616C6C6F7765640000000000000000000000 PUSH1 0x0 DUP3 ADD MSTORE POP JUMP JUMPDEST PUSH1 0x0 PUSH2 0x3006 PUSH1 0x15 DUP4 PUSH2 0x2C89 JUMP JUMPDEST SWAP2 POP PUSH2 0x3011 DUP3 PUSH2 0x2FD0 JUMP JUMPDEST PUSH1 0x20 DUP3 ADD SWAP1 POP SWAP2 SWAP1 POP JUMP JUMPDEST PUSH1 0x0 PUSH1 0x20 DUP3 ADD SWAP1 POP DUP2 DUP2 SUB PUSH1 0x0 DUP4 ADD MSTORE PUSH2 0x3035 DUP2 PUSH2 0x2FF9 JUMP JUMPDEST SWAP1 POP SWAP2 SWAP1 POP JUMP JUMPDEST PUSH32 0x4F776E61626C653A206E6577206F776E657220697320746865207A65726F2061 PUSH1 0x0 DUP3 ADD MSTORE PUSH32 0x6464726573730000000000000000000000000000000000000000000000000000 PUSH1 0x20 DUP3 ADD MSTORE POP JUMP JUMPDEST PUSH1 0x0 PUSH2 0x3098 PUSH1 0x26 DUP4 PUSH2 0x2C89 JUMP JUMPDEST SWAP2 POP PUSH2 0x30A3 DUP3 PUSH2 0x303C JUMP JUMPDEST PUSH1 0x40 DUP3 ADD SWAP1 POP SWAP2 SWAP1 POP JUMP JUMPDEST PUSH1 0x0 PUSH1 0x20 DUP3 ADD SWAP1 POP DUP2 DUP2 SUB PUSH1 0x0 DUP4 ADD MSTORE PUSH2 0x30C7 DUP2 PUSH2 0x308B JUMP JUMPDEST SWAP1 POP SWAP2 SWAP1 POP JUMP JUMPDEST PUSH32 0x5061757361626C653A2070617573656400000000000000000000000000000000 PUSH1 0x0 DUP3 ADD MSTORE POP JUMP JUMPDEST PUSH1 0x0 PUSH2 0x3104 PUSH1 0x10 DUP4 PUSH2 0x2C89 JUMP JUMPDEST SWAP2 POP PUSH2 0x310F DUP3 PUSH2 0x30CE JUMP JUMPDEST PUSH1 0x20 DUP3 ADD SWAP1 POP SWAP2 SWAP1 POP JUMP JUMPDEST PUSH1 0x0 PUSH1 0x20 DUP3 ADD SWAP1 POP DUP2 DUP2 SUB PUSH1 0x0 DUP4 ADD MSTORE PUSH2 0x3133 DUP2 PUSH2 0x30F7 JUMP JUMPDEST SWAP1 POP SWAP2 SWAP1 POP JUMP JUMPDEST PUSH1 0x0 PUSH1 0x60 DUP3 ADD SWAP1 POP PUSH2 0x314F PUSH1 0x0 DUP4 ADD DUP7 PUSH2 0x2B96 JUMP JUMPDEST PUSH2 0x315C PUSH1 0x20 DUP4 ADD DUP6 PUSH2 0x2B96 JUMP JUMPDEST PUSH2 0x3169 PUSH1 0x40 DUP4 ADD DUP5 PUSH2 0x29EA JUMP JUMPDEST SWAP5 SWAP4 POP POP POP POP JUMP JUMPDEST PUSH32 0x4F776E61626C653A2063616C6C6572206973206E6F7420746865206F776E6572 PUSH1 0x0 DUP3 ADD MSTORE POP JUMP JUMPDEST PUSH1 0x0 PUSH2 0x31A7 PUSH1 0x20 DUP4 PUSH2 0x2C89 JUMP JUMPDEST SWAP2 POP PUSH2 0x31B2 DUP3 PUSH2 0x3171 JUMP JUMPDEST PUSH1 0x20 DUP3 ADD SWAP1 POP SWAP2 SWAP1 POP JUMP JUMPDEST PUSH1 0x0 PUSH1 0x20 DUP3 ADD SWAP1 POP DUP2 DUP2 SUB PUSH1 0x0 DUP4 ADD MSTORE PUSH2 0x31D6 DUP2 PUSH2 0x319A JUMP JUMPDEST SWAP1 POP SWAP2 SWAP1 POP JUMP JUMPDEST PUSH1 0x0 PUSH1 0x40 DUP3 ADD SWAP1 POP PUSH2 0x31F2 PUSH1 0x0 DUP4 ADD DUP6 PUSH2 0x2B96 JUMP JUMPDEST PUSH2 0x31FF PUSH1 0x20 DUP4 ADD DUP5 PUSH2 0x2B96 JUMP JUMPDEST SWAP4 SWAP3 POP POP POP JUMP JUMPDEST PUSH32 0x5361666545524332303A20617070726F76652066726F6D206E6F6E2D7A65726F PUSH1 0x0 DUP3 ADD MSTORE PUSH32 0x20746F206E6F6E2D7A65726F20616C6C6F77616E636500000000000000000000 PUSH1 0x20 DUP3 ADD MSTORE POP JUMP JUMPDEST PUSH1 0x0 PUSH2 0x3262 PUSH1 0x36 DUP4 PUSH2 0x2C89 JUMP JUMPDEST SWAP2 POP PUSH2 0x326D DUP3 PUSH2 0x3206 JUMP JUMPDEST PUSH1 0x40 DUP3 ADD SWAP1 POP SWAP2 SWAP1 POP JUMP JUMPDEST PUSH1 0x0 PUSH1 0x20 DUP3 ADD SWAP1 POP DUP2 DUP2 SUB PUSH1 0x0 DUP4 ADD MSTORE PUSH2 0x3291 DUP2 PUSH2 0x3255 JUMP JUMPDEST SWAP1 POP SWAP2 SWAP1 POP JUMP JUMPDEST PUSH32 0x496E697469616C697A61626C653A20636F6E7472616374206973206E6F742069 PUSH1 0x0 DUP3 ADD MSTORE PUSH32 0x6E697469616C697A696E67000000000000000000000000000000000000000000 PUSH1 0x20 DUP3 ADD MSTORE POP JUMP JUMPDEST PUSH1 0x0 PUSH2 0x32F4 PUSH1 0x2B DUP4 PUSH2 0x2C89 JUMP JUMPDEST SWAP2 POP PUSH2 0x32FF DUP3 PUSH2 0x3298 JUMP JUMPDEST PUSH1 0x40 DUP3 ADD SWAP1 POP SWAP2 SWAP1 POP JUMP JUMPDEST PUSH1 0x0 PUSH1 0x20 DUP3 ADD SWAP1 POP DUP2 DUP2 SUB PUSH1 0x0 DUP4 ADD MSTORE PUSH2 0x3323 DUP2 PUSH2 0x32E7 JUMP JUMPDEST SWAP1 POP SWAP2 SWAP1 POP JUMP JUMPDEST PUSH2 0x3333 DUP2 PUSH2 0x2B24 JUMP JUMPDEST DUP2 EQ PUSH2 0x333E JUMPI PUSH1 0x0 DUP1 REVERT JUMPDEST POP JUMP JUMPDEST PUSH1 0x0 DUP2 MLOAD SWAP1 POP PUSH2 0x3350 DUP2 PUSH2 0x332A JUMP JUMPDEST SWAP3 SWAP2 POP POP JUMP JUMPDEST PUSH1 0x0 PUSH1 0x20 DUP3 DUP5 SUB SLT ISZERO PUSH2 0x336C JUMPI PUSH2 0x336B PUSH2 0x2911 JUMP JUMPDEST JUMPDEST PUSH1 0x0 PUSH2 0x337A DUP5 DUP3 DUP6 ADD PUSH2 0x3341 JUMP JUMPDEST SWAP2 POP POP SWAP3 SWAP2 POP POP JUMP JUMPDEST PUSH32 0x5361666545524332303A204552433230206F7065726174696F6E20646964206E PUSH1 0x0 DUP3 ADD MSTORE PUSH32 0x6F74207375636365656400000000000000000000000000000000000000000000 PUSH1 0x20 DUP3 ADD MSTORE POP JUMP JUMPDEST PUSH1 0x0 PUSH2 0x33DF PUSH1 0x2A DUP4 PUSH2 0x2C89 JUMP JUMPDEST SWAP2 POP PUSH2 0x33EA DUP3 PUSH2 0x3383 JUMP JUMPDEST PUSH1 0x40 DUP3 ADD SWAP1 POP SWAP2 SWAP1 POP JUMP JUMPDEST PUSH1 0x0 PUSH1 0x20 DUP3 ADD SWAP1 POP DUP2 DUP2 SUB PUSH1 0x0 DUP4 ADD MSTORE PUSH2 0x340E DUP2 PUSH2 0x33D2 JUMP JUMPDEST SWAP1 POP SWAP2 SWAP1 POP JUMP JUMPDEST PUSH32 0x5061757361626C653A206E6F7420706175736564000000000000000000000000 PUSH1 0x0 DUP3 ADD MSTORE POP JUMP JUMPDEST PUSH1 0x0 PUSH2 0x344B PUSH1 0x14 DUP4 PUSH2 0x2C89 JUMP JUMPDEST SWAP2 POP PUSH2 0x3456 DUP3 PUSH2 0x3415 JUMP JUMPDEST PUSH1 0x20 DUP3 ADD SWAP1 POP SWAP2 SWAP1 POP JUMP JUMPDEST PUSH1 0x0 PUSH1 0x20 DUP3 ADD SWAP1 POP DUP2 DUP2 SUB PUSH1 0x0 DUP4 ADD MSTORE PUSH2 0x347A DUP2 PUSH2 0x343E JUMP JUMPDEST SWAP1 POP SWAP2 SWAP1 POP JUMP JUMPDEST PUSH32 0x416464726573733A20696E73756666696369656E742062616C616E636520666F PUSH1 0x0 DUP3 ADD MSTORE PUSH32 0x722063616C6C0000000000000000000000000000000000000000000000000000 PUSH1 0x20 DUP3 ADD MSTORE POP JUMP JUMPDEST PUSH1 0x0 PUSH2 0x34DD PUSH1 0x26 DUP4 PUSH2 0x2C89 JUMP JUMPDEST SWAP2 POP PUSH2 0x34E8 DUP3 PUSH2 0x3481 JUMP JUMPDEST PUSH1 0x40 DUP3 ADD SWAP1 POP SWAP2 SWAP1 POP JUMP JUMPDEST PUSH1 0x0 PUSH1 0x20 DUP3 ADD SWAP1 POP DUP2 DUP2 SUB PUSH1 0x0 DUP4 ADD MSTORE PUSH2 0x350C DUP2 PUSH2 0x34D0 JUMP JUMPDEST SWAP1 POP SWAP2 SWAP1 POP JUMP JUMPDEST PUSH1 0x0 DUP2 MLOAD SWAP1 POP SWAP2 SWAP1 POP JUMP JUMPDEST PUSH1 0x0 DUP2 SWAP1 POP SWAP3 SWAP2 POP POP JUMP JUMPDEST PUSH1 0x0 JUMPDEST DUP4 DUP2 LT ISZERO PUSH2 0x3547 JUMPI DUP1 DUP3 ADD MLOAD DUP2 DUP5 ADD MSTORE PUSH1 0x20 DUP2 ADD SWAP1 POP PUSH2 0x352C JUMP JUMPDEST DUP4 DUP2 GT ISZERO PUSH2 0x3556 JUMPI PUSH1 0x0 DUP5 DUP5 ADD MSTORE JUMPDEST POP POP POP POP JUMP JUMPDEST PUSH1 0x0 PUSH2 0x3567 DUP3 PUSH2 0x3513 JUMP JUMPDEST PUSH2 0x3571 DUP2 DUP6 PUSH2 0x351E JUMP JUMPDEST SWAP4 POP PUSH2 0x3581 DUP2 DUP6 PUSH1 0x20 DUP7 ADD PUSH2 0x3529 JUMP JUMPDEST DUP1 DUP5 ADD SWAP2 POP POP SWAP3 SWAP2 POP POP JUMP JUMPDEST PUSH1 0x0 PUSH2 0x3599 DUP3 DUP5 PUSH2 0x355C JUMP JUMPDEST SWAP2 POP DUP2 SWAP1 POP SWAP3 SWAP2 POP POP JUMP JUMPDEST PUSH32 0x416464726573733A2063616C6C20746F206E6F6E2D636F6E7472616374000000 PUSH1 0x0 DUP3 ADD MSTORE POP JUMP JUMPDEST PUSH1 0x0 PUSH2 0x35DA PUSH1 0x1D DUP4 PUSH2 0x2C89 JUMP JUMPDEST SWAP2 POP PUSH2 0x35E5 DUP3 PUSH2 0x35A4 JUMP JUMPDEST PUSH1 0x20 DUP3 ADD SWAP1 POP SWAP2 SWAP1 POP JUMP JUMPDEST PUSH1 0x0 PUSH1 0x20 DUP3 ADD SWAP1 POP DUP2 DUP2 SUB PUSH1 0x0 DUP4 ADD MSTORE PUSH2 0x3609 DUP2 PUSH2 0x35CD JUMP JUMPDEST SWAP1 POP SWAP2 SWAP1 POP JUMP JUMPDEST PUSH1 0x0 DUP2 MLOAD SWAP1 POP SWAP2 SWAP1 POP JUMP JUMPDEST PUSH1 0x0 PUSH1 0x1F NOT PUSH1 0x1F DUP4 ADD AND SWAP1 POP SWAP2 SWAP1 POP JUMP JUMPDEST PUSH1 0x0 PUSH2 0x3637 DUP3 PUSH2 0x3610 JUMP JUMPDEST PUSH2 0x3641 DUP2 DUP6 PUSH2 0x2C89 JUMP JUMPDEST SWAP4 POP PUSH2 0x3651 DUP2 DUP6 PUSH1 0x20 DUP7 ADD PUSH2 0x3529 JUMP JUMPDEST PUSH2 0x365A DUP2 PUSH2 0x361B JUMP JUMPDEST DUP5 ADD SWAP2 POP POP SWAP3 SWAP2 POP POP JUMP JUMPDEST PUSH1 0x0 PUSH1 0x20 DUP3 ADD SWAP1 POP DUP2 DUP2 SUB PUSH1 0x0 DUP4 ADD MSTORE PUSH2 0x367F DUP2 DUP5 PUSH2 0x362C JUMP JUMPDEST SWAP1 POP SWAP3 SWAP2 POP POP JUMP INVALID LOG2 PUSH5 0x6970667358 0x22 SLT KECCAK256 PUSH7 0xFBA8993FD174C6 XOR SWAP1 0xD4 NUMBER 0x29 0x4E 0xAD 0xDE PUSH17 0x3502FBEABA753D1902E8E4079B46FB6473 PUSH16 0x6C634300080A00330000000000000000 "
				},
				"gasEstimates": {
					"creation": {
						"codeDepositCost": "2802600",
						"executionCost": "3053",
						"totalCost": "2805653"
					},
					"external": {
						"_ceRouter()": "infinite",
						"_ceToken()": "2559",
						"_certToken()": "2559",
						"_collateralToken()": "infinite",
						"_dao()": "infinite",
						"_operator()": "2603",
						"_pool()": "infinite",
						"_proxy()": "2559",
						"changeCeToken(address)": "infinite",
						"changeCollateralToken(address)": "infinite",
						"changeDao(address)": "infinite",
						"changeOperator(address)": "infinite",
						"changeProxy(address)": "infinite",
						"claimInABNBc(address)": "infinite",
						"daoBurn(address,uint256)": "infinite",
						"daoMint(address,uint256)": "infinite",
						"initialize(address,address,address,address,address,address)": "infinite",
						"liquidation(address,uint256)": "infinite",
						"owner()": "2612",
						"pause()": "infinite",
						"paused()": "2547",
						"provide()": "infinite",
						"provideInABNBc(uint256)": "25005",
						"release(address,uint256)": "infinite",
						"releaseInABNBc(address,uint256)": "infinite",
						"renounceOwnership()": "30509",
						"transferOwnership(address)": "30835",
						"unPause()": "infinite"
					},
					"internal": {
						"_provideCollateral(address,uint256)": "infinite",
						"_withdrawCollateral(address,uint256)": "infinite"
					}
				},
				"methodIdentifiers": {
					"_ceRouter()": "51c3e7be",
					"_ceToken()": "6e8d9a18",
					"_certToken()": "9479cfa2",
					"_collateralToken()": "358b2b1a",
					"_dao()": "e0683726",
					"_operator()": "70b0a843",
					"_pool()": "636fc28b",
					"_proxy()": "cc2effdc",
					"changeCeToken(address)": "3fd44f17",
					"changeCollateralToken(address)": "232da7fe",
					"changeDao(address)": "d8826fec",
					"changeOperator(address)": "06394c9b",
					"changeProxy(address)": "c4031841",
					"claimInABNBc(address)": "e3b0963a",
					"daoBurn(address,uint256)": "df3d23ae",
					"daoMint(address,uint256)": "14866aef",
					"initialize(address,address,address,address,address,address)": "cc2a9a5b",
					"liquidation(address,uint256)": "6f2bb86a",
					"owner()": "8da5cb5b",
					"pause()": "8456cb59",
					"paused()": "5c975abb",
					"provide()": "b9472535",
					"provideInABNBc(uint256)": "32b038a3",
					"release(address,uint256)": "0357371d",
					"releaseInABNBc(address,uint256)": "7d6ae6f6",
					"renounceOwnership()": "715018a6",
					"transferOwnership(address)": "f2fde38b",
					"unPause()": "f7b188a5"
				}
			},
			"storageLayout": {
				"storage": [
					{
						"astId": 138,
						"contract": "Heliocontracts/contracts/ceros/HelioProvider.sol:HelioProvider",
						"label": "_initialized",
						"offset": 0,
						"slot": "0",
						"type": "t_uint8"
					},
					{
						"astId": 141,
						"contract": "Heliocontracts/contracts/ceros/HelioProvider.sol:HelioProvider",
						"label": "_initializing",
						"offset": 1,
						"slot": "0",
						"type": "t_bool"
					},
					{
						"astId": 1147,
						"contract": "Heliocontracts/contracts/ceros/HelioProvider.sol:HelioProvider",
						"label": "__gap",
						"offset": 0,
						"slot": "1",
						"type": "t_array(t_uint256)50_storage"
					},
					{
						"astId": 10,
						"contract": "Heliocontracts/contracts/ceros/HelioProvider.sol:HelioProvider",
						"label": "_owner",
						"offset": 0,
						"slot": "51",
						"type": "t_address"
					},
					{
						"astId": 130,
						"contract": "Heliocontracts/contracts/ceros/HelioProvider.sol:HelioProvider",
						"label": "__gap",
						"offset": 0,
						"slot": "52",
						"type": "t_array(t_uint256)49_storage"
					},
					{
						"astId": 303,
						"contract": "Heliocontracts/contracts/ceros/HelioProvider.sol:HelioProvider",
						"label": "_paused",
						"offset": 0,
						"slot": "101",
						"type": "t_bool"
					},
					{
						"astId": 408,
						"contract": "Heliocontracts/contracts/ceros/HelioProvider.sol:HelioProvider",
						"label": "__gap",
						"offset": 0,
						"slot": "102",
						"type": "t_array(t_uint256)49_storage"
					},
					{
						"astId": 423,
						"contract": "Heliocontracts/contracts/ceros/HelioProvider.sol:HelioProvider",
						"label": "_status",
						"offset": 0,
						"slot": "151",
						"type": "t_uint256"
					},
					{
						"astId": 467,
						"contract": "Heliocontracts/contracts/ceros/HelioProvider.sol:HelioProvider",
						"label": "__gap",
						"offset": 0,
						"slot": "152",
						"type": "t_array(t_uint256)49_storage"
					},
					{
						"astId": 1898,
						"contract": "Heliocontracts/contracts/ceros/HelioProvider.sol:HelioProvider",
						"label": "_operator",
						"offset": 0,
						"slot": "201",
						"type": "t_address"
					},
					{
						"astId": 1900,
						"contract": "Heliocontracts/contracts/ceros/HelioProvider.sol:HelioProvider",
						"label": "_certToken",
						"offset": 0,
						"slot": "202",
						"type": "t_address"
					},
					{
						"astId": 1902,
						"contract": "Heliocontracts/contracts/ceros/HelioProvider.sol:HelioProvider",
						"label": "_ceToken",
						"offset": 0,
						"slot": "203",
						"type": "t_address"
					},
					{
						"astId": 1905,
						"contract": "Heliocontracts/contracts/ceros/HelioProvider.sol:HelioProvider",
						"label": "_collateralToken",
						"offset": 0,
						"slot": "204",
						"type": "t_contract(ICertToken)2704"
					},
					{
						"astId": 1908,
						"contract": "Heliocontracts/contracts/ceros/HelioProvider.sol:HelioProvider",
						"label": "_ceRouter",
						"offset": 0,
						"slot": "205",
						"type": "t_contract(ICerosRouter)2659"
					},
					{
						"astId": 1911,
						"contract": "Heliocontracts/contracts/ceros/HelioProvider.sol:HelioProvider",
						"label": "_dao",
						"offset": 0,
						"slot": "206",
						"type": "t_contract(IDao)2817"
					},
					{
						"astId": 1914,
						"contract": "Heliocontracts/contracts/ceros/HelioProvider.sol:HelioProvider",
						"label": "_pool",
						"offset": 0,
						"slot": "207",
						"type": "t_contract(IBinancePool)2499"
					},
					{
						"astId": 1916,
						"contract": "Heliocontracts/contracts/ceros/HelioProvider.sol:HelioProvider",
						"label": "_proxy",
						"offset": 0,
						"slot": "208",
						"type": "t_address"
					}
				],
				"types": {
					"t_address": {
						"encoding": "inplace",
						"label": "address",
						"numberOfBytes": "20"
					},
					"t_array(t_uint256)49_storage": {
						"base": "t_uint256",
						"encoding": "inplace",
						"label": "uint256[49]",
						"numberOfBytes": "1568"
					},
					"t_array(t_uint256)50_storage": {
						"base": "t_uint256",
						"encoding": "inplace",
						"label": "uint256[50]",
						"numberOfBytes": "1600"
					},
					"t_bool": {
						"encoding": "inplace",
						"label": "bool",
						"numberOfBytes": "1"
					},
					"t_contract(IBinancePool)2499": {
						"encoding": "inplace",
						"label": "contract IBinancePool",
						"numberOfBytes": "20"
					},
					"t_contract(ICerosRouter)2659": {
						"encoding": "inplace",
						"label": "contract ICerosRouter",
						"numberOfBytes": "20"
					},
					"t_contract(ICertToken)2704": {
						"encoding": "inplace",
						"label": "contract ICertToken",
						"numberOfBytes": "20"
					},
					"t_contract(IDao)2817": {
						"encoding": "inplace",
						"label": "contract IDao",
						"numberOfBytes": "20"
					},
					"t_uint256": {
						"encoding": "inplace",
						"label": "uint256",
						"numberOfBytes": "32"
					},
					"t_uint8": {
						"encoding": "inplace",
						"label": "uint8",
						"numberOfBytes": "1"
					}
				}
			},
			"userdoc": {
				"events": {
					"Deposit(address,uint256)": {
						"notice": "Events"
					}
				},
				"kind": "user",
				"methods": {
					"_operator()": {
						"notice": "Variables"
					},
					"changeDao(address)": {
						"notice": "UPDATING FUNCTIONALITY"
					},
					"claimInABNBc(address)": {
						"notice": "CLAIM"
					},
					"liquidation(address,uint256)": {
						"notice": "DAO FUNCTIONALITY"
					},
					"pause()": {
						"notice": "PAUSABLE FUNCTIONALITY"
					},
					"provide()": {
						"notice": "DEPOSIT"
					},
					"release(address,uint256)": {
						"notice": "RELEASE"
					}
				},
				"version": 1
			}
		}
	}
}