{
	"Heliocontracts/contracts/ceros/CerosRouter.sol": {
		"CerosRouter": {
			"abi": [
				{
					"anonymous": false,
					"inputs": [
						{
							"indexed": false,
							"internalType": "address",
							"name": "pool",
							"type": "address"
						}
					],
					"name": "ChangeBNBStakingPool",
					"type": "event"
				},
				{
					"anonymous": false,
					"inputs": [
						{
							"indexed": false,
							"internalType": "address",
							"name": "ceToken",
							"type": "address"
						}
					],
					"name": "ChangeCeToken",
					"type": "event"
				},
				{
					"anonymous": false,
					"inputs": [
						{
							"indexed": false,
							"internalType": "address",
							"name": "ceTokenJoin",
							"type": "address"
						}
					],
					"name": "ChangeCeTokenJoin",
					"type": "event"
				},
				{
					"anonymous": false,
					"inputs": [
						{
							"indexed": false,
							"internalType": "address",
							"name": "certToken",
							"type": "address"
						}
					],
					"name": "ChangeCertToken",
					"type": "event"
				},
				{
					"anonymous": false,
					"inputs": [
						{
							"indexed": false,
							"internalType": "address",
							"name": "collateralToken",
							"type": "address"
						}
					],
					"name": "ChangeCollateralToken",
					"type": "event"
				},
				{
					"anonymous": false,
					"inputs": [
						{
							"indexed": false,
							"internalType": "address",
							"name": "dao",
							"type": "address"
						}
					],
					"name": "ChangeDao",
					"type": "event"
				},
				{
					"anonymous": false,
					"inputs": [
						{
							"indexed": false,
							"internalType": "address",
							"name": "dex",
							"type": "address"
						}
					],
					"name": "ChangeDex",
					"type": "event"
				},
				{
					"anonymous": false,
					"inputs": [
						{
							"indexed": false,
							"internalType": "address",
							"name": "pool",
							"type": "address"
						}
					],
					"name": "ChangePool",
					"type": "event"
				},
				{
					"anonymous": false,
					"inputs": [
						{
							"indexed": false,
							"internalType": "address",
							"name": "provider",
							"type": "address"
						}
					],
					"name": "ChangeProvider",
					"type": "event"
				},
				{
					"anonymous": false,
					"inputs": [
						{
							"indexed": false,
							"internalType": "address",
							"name": "vault",
							"type": "address"
						}
					],
					"name": "ChangeVault",
					"type": "event"
				},
				{
					"anonymous": false,
					"inputs": [
						{
							"indexed": true,
							"internalType": "address",
							"name": "recipient",
							"type": "address"
						},
						{
							"indexed": true,
							"internalType": "address",
							"name": "token",
							"type": "address"
						},
						{
							"indexed": false,
							"internalType": "uint256",
							"name": "amount",
							"type": "uint256"
						}
					],
					"name": "Claim",
					"type": "event"
				},
				{
					"anonymous": false,
					"inputs": [
						{
							"indexed": true,
							"internalType": "address",
							"name": "account",
							"type": "address"
						},
						{
							"indexed": true,
							"internalType": "address",
							"name": "token",
							"type": "address"
						},
						{
							"indexed": false,
							"internalType": "uint256",
							"name": "amount",
							"type": "uint256"
						},
						{
							"indexed": false,
							"internalType": "uint256",
							"name": "profit",
							"type": "uint256"
						}
					],
					"name": "Deposit",
					"type": "event"
				},
				{
					"anonymous": false,
					"inputs": [
						{
							"indexed": false,
							"internalType": "uint8",
							"name": "version",
							"type": "uint8"
						}
					],
					"name": "Initialized",
					"type": "event"
				},
				{
					"anonymous": false,
					"inputs": [
						{
							"indexed": true,
							"internalType": "address",
							"name": "previousOwner",
							"type": "address"
						},
						{
							"indexed": true,
							"internalType": "address",
							"name": "newOwner",
							"type": "address"
						}
					],
					"name": "OwnershipTransferred",
					"type": "event"
				},
				{
					"anonymous": false,
					"inputs": [
						{
							"indexed": false,
							"internalType": "address",
							"name": "account",
							"type": "address"
						}
					],
					"name": "Paused",
					"type": "event"
				},
				{
					"anonymous": false,
					"inputs": [
						{
							"indexed": false,
							"internalType": "address",
							"name": "account",
							"type": "address"
						}
					],
					"name": "Unpaused",
					"type": "event"
				},
				{
					"anonymous": false,
					"inputs": [
						{
							"indexed": true,
							"internalType": "address",
							"name": "owner",
							"type": "address"
						},
						{
							"indexed": true,
							"internalType": "address",
							"name": "recipient",
							"type": "address"
						},
						{
							"indexed": true,
							"internalType": "address",
							"name": "token",
							"type": "address"
						},
						{
							"indexed": false,
							"internalType": "uint256",
							"name": "amount",
							"type": "uint256"
						}
					],
					"name": "Withdrawal",
					"type": "event"
				},
				{
					"inputs": [
						{
							"internalType": "address",
							"name": "pool",
							"type": "address"
						}
					],
					"name": "changeBNBStakingPool",
					"outputs": [],
					"stateMutability": "nonpayable",
					"type": "function"
				},
				{
					"inputs": [
						{
							"internalType": "address",
							"name": "dex",
							"type": "address"
						}
					],
					"name": "changeDex",
					"outputs": [],
					"stateMutability": "nonpayable",
					"type": "function"
				},
				{
					"inputs": [
						{
							"internalType": "address",
							"name": "pool",
							"type": "address"
						}
					],
					"name": "changePool",
					"outputs": [],
					"stateMutability": "nonpayable",
					"type": "function"
				},
				{
					"inputs": [
						{
							"internalType": "address",
							"name": "provider",
							"type": "address"
						}
					],
					"name": "changeProvider",
					"outputs": [],
					"stateMutability": "nonpayable",
					"type": "function"
				},
				{
					"inputs": [
						{
							"internalType": "address",
							"name": "vault",
							"type": "address"
						}
					],
					"name": "changeVault",
					"outputs": [],
					"stateMutability": "nonpayable",
					"type": "function"
				},
				{
					"inputs": [
						{
							"internalType": "address",
							"name": "recipient",
							"type": "address"
						}
					],
					"name": "claim",
					"outputs": [
						{
							"internalType": "uint256",
							"name": "yields",
							"type": "uint256"
						}
					],
					"stateMutability": "nonpayable",
					"type": "function"
				},
				{
					"inputs": [
						{
							"internalType": "address",
							"name": "recipient",
							"type": "address"
						}
					],
					"name": "claimProfit",
					"outputs": [],
					"stateMutability": "nonpayable",
					"type": "function"
				},
				{
					"inputs": [],
					"name": "deposit",
					"outputs": [
						{
							"internalType": "uint256",
							"name": "value",
							"type": "uint256"
						}
					],
					"stateMutability": "payable",
					"type": "function"
				},
				{
					"inputs": [
						{
							"internalType": "uint256",
							"name": "amount",
							"type": "uint256"
						}
					],
					"name": "depositABNBc",
					"outputs": [
						{
							"internalType": "uint256",
							"name": "value",
							"type": "uint256"
						}
					],
					"stateMutability": "nonpayable",
					"type": "function"
				},
				{
					"inputs": [
						{
							"internalType": "address",
							"name": "owner",
							"type": "address"
						},
						{
							"internalType": "uint256",
							"name": "amount",
							"type": "uint256"
						}
					],
					"name": "depositABNBcFrom",
					"outputs": [
						{
							"internalType": "uint256",
							"name": "value",
							"type": "uint256"
						}
					],
					"stateMutability": "nonpayable",
					"type": "function"
				},
				{
					"inputs": [],
					"name": "getBNBStakingPoolAddress",
					"outputs": [
						{
							"internalType": "address",
							"name": "",
							"type": "address"
						}
					],
					"stateMutability": "view",
					"type": "function"
				},
				{
					"inputs": [],
					"name": "getCeToken",
					"outputs": [
						{
							"internalType": "address",
							"name": "",
							"type": "address"
						}
					],
					"stateMutability": "view",
					"type": "function"
				},
				{
					"inputs": [],
					"name": "getCertToken",
					"outputs": [
						{
							"internalType": "address",
							"name": "",
							"type": "address"
						}
					],
					"stateMutability": "view",
					"type": "function"
				},
				{
					"inputs": [],
					"name": "getDexAddress",
					"outputs": [
						{
							"internalType": "address",
							"name": "",
							"type": "address"
						}
					],
					"stateMutability": "view",
					"type": "function"
				},
				{
					"inputs": [
						{
							"internalType": "address",
							"name": "account",
							"type": "address"
						}
					],
					"name": "getPendingWithdrawalOf",
					"outputs": [
						{
							"internalType": "uint256",
							"name": "",
							"type": "uint256"
						}
					],
					"stateMutability": "view",
					"type": "function"
				},
				{
					"inputs": [],
					"name": "getPoolAddress",
					"outputs": [
						{
							"internalType": "address",
							"name": "",
							"type": "address"
						}
					],
					"stateMutability": "view",
					"type": "function"
				},
				{
					"inputs": [
						{
							"internalType": "address",
							"name": "account",
							"type": "address"
						}
					],
					"name": "getProfitFor",
					"outputs": [
						{
							"internalType": "uint256",
							"name": "",
							"type": "uint256"
						}
					],
					"stateMutability": "view",
					"type": "function"
				},
				{
					"inputs": [],
					"name": "getProvider",
					"outputs": [
						{
							"internalType": "address",
							"name": "",
							"type": "address"
						}
					],
					"stateMutability": "view",
					"type": "function"
				},
				{
					"inputs": [],
					"name": "getVaultAddress",
					"outputs": [
						{
							"internalType": "address",
							"name": "",
							"type": "address"
						}
					],
					"stateMutability": "view",
					"type": "function"
				},
				{
					"inputs": [],
					"name": "getWbnbAddress",
					"outputs": [
						{
							"internalType": "address",
							"name": "",
							"type": "address"
						}
					],
					"stateMutability": "view",
					"type": "function"
				},
				{
					"inputs": [
						{
							"internalType": "address",
							"name": "account",
							"type": "address"
						}
					],
					"name": "getYieldFor",
					"outputs": [
						{
							"internalType": "uint256",
							"name": "",
							"type": "uint256"
						}
					],
					"stateMutability": "view",
					"type": "function"
				},
				{
					"inputs": [
						{
							"internalType": "address",
							"name": "certToken",
							"type": "address"
						},
						{
							"internalType": "address",
							"name": "wBnbToken",
							"type": "address"
						},
						{
							"internalType": "address",
							"name": "ceToken",
							"type": "address"
						},
						{
							"internalType": "address",
							"name": "bondToken",
							"type": "address"
						},
						{
							"internalType": "address",
							"name": "vault",
							"type": "address"
						},
						{
							"internalType": "address",
							"name": "dexAddress",
							"type": "address"
						},
						{
							"internalType": "address",
							"name": "pool",
							"type": "address"
						}
					],
					"name": "initialize",
					"outputs": [],
					"stateMutability": "nonpayable",
					"type": "function"
				},
				{
					"inputs": [],
					"name": "owner",
					"outputs": [
						{
							"internalType": "address",
							"name": "",
							"type": "address"
						}
					],
					"stateMutability": "view",
					"type": "function"
				},
				{
					"inputs": [],
					"name": "paused",
					"outputs": [
						{
							"internalType": "bool",
							"name": "",
							"type": "bool"
						}
					],
					"stateMutability": "view",
					"type": "function"
				},
				{
					"inputs": [],
					"name": "renounceOwnership",
					"outputs": [],
					"stateMutability": "nonpayable",
					"type": "function"
				},
				{
					"inputs": [
						{
							"internalType": "address",
							"name": "newOwner",
							"type": "address"
						}
					],
					"name": "transferOwnership",
					"outputs": [],
					"stateMutability": "nonpayable",
					"type": "function"
				},
				{
					"inputs": [
						{
							"internalType": "address",
							"name": "recipient",
							"type": "address"
						},
						{
							"internalType": "uint256",
							"name": "amount",
							"type": "uint256"
						}
					],
					"name": "withdraw",
					"outputs": [
						{
							"internalType": "uint256",
							"name": "realAmount",
							"type": "uint256"
						}
					],
					"stateMutability": "nonpayable",
					"type": "function"
				},
				{
					"inputs": [
						{
							"internalType": "address",
							"name": "recipient",
							"type": "address"
						},
						{
							"internalType": "uint256",
							"name": "amount",
							"type": "uint256"
						}
					],
					"name": "withdrawABNBc",
					"outputs": [
						{
							"internalType": "uint256",
							"name": "realAmount",
							"type": "uint256"
						}
					],
					"stateMutability": "nonpayable",
					"type": "function"
				},
				{
					"inputs": [
						{
							"internalType": "address",
							"name": "recipient",
							"type": "address"
						},
						{
							"internalType": "uint256",
							"name": "amount",
							"type": "uint256"
						}
					],
					"name": "withdrawFor",
					"outputs": [
						{
							"internalType": "uint256",
							"name": "realAmount",
							"type": "uint256"
						}
					],
					"stateMutability": "nonpayable",
					"type": "function"
				},
				{
					"inputs": [
						{
							"internalType": "address",
							"name": "recipient",
							"type": "address"
						},
						{
							"internalType": "uint256",
							"name": "amount",
							"type": "uint256"
						},
						{
							"internalType": "uint256",
							"name": "outAmount",
							"type": "uint256"
						}
					],
					"name": "withdrawWithSlippage",
					"outputs": [
						{
							"internalType": "uint256",
							"name": "realAmount",
							"type": "uint256"
						}
					],
					"stateMutability": "nonpayable",
					"type": "function"
				}
			],
			"devdoc": {
				"kind": "dev",
				"methods": {
					"owner()": {
						"details": "Returns the address of the current owner."
					},
					"paused()": {
						"details": "Returns true if the contract is paused, and false otherwise."
					},
					"renounceOwnership()": {
						"details": "Leaves the contract without owner. It will not be possible to call `onlyOwner` functions anymore. Can only be called by the current owner. NOTE: Renouncing ownership will leave the contract without an owner, thereby removing any functionality that is only available to the owner."
					},
					"transferOwnership(address)": {
						"details": "Transfers ownership of the contract to a new account (`newOwner`). Can only be called by the current owner."
					},
					"withdraw(address,uint256)": {
						"params": {
							"amount": "in BNB to withdraw from vault",
							"recipient": "address to receive withdrawan BNB"
						}
					},
					"withdrawABNBc(address,uint256)": {
						"params": {
							"amount": "in BNB",
							"recipient": "address to receive withdrawan aBNBc"
						}
					}
				},
				"version": 1
			},
			"evm": {
				"assembly": "    /* \"Heliocontracts/contracts/ceros/CerosRouter.sol\":657:11075  contract CerosRouter is... */\n  mstore(0x40, 0x80)\n  callvalue\n  dup1\n  iszero\n  tag_1\n  jumpi\n  0x00\n  dup1\n  revert\ntag_1:\n  pop\n  dataSize(sub_0)\n  dup1\n  dataOffset(sub_0)\n  0x00\n  codecopy\n  0x00\n  return\nstop\n\nsub_0: assembly {\n        /* \"Heliocontracts/contracts/ceros/CerosRouter.sol\":657:11075  contract CerosRouter is... */\n      mstore(0x40, 0x80)\n      jumpi(tag_1, lt(calldatasize, 0x04))\n      shr(0xe0, calldataload(0x00))\n      dup1\n      0x796f69aa\n      gt\n      tag_32\n      jumpi\n      dup1\n      0xac78467c\n      gt\n      tag_33\n      jumpi\n      dup1\n      0xdb518db2\n      gt\n      tag_34\n      jumpi\n      dup1\n      0xdb518db2\n      eq\n      tag_28\n      jumpi\n      dup1\n      0xf2fde38b\n      eq\n      tag_29\n      jumpi\n      dup1\n      0xf3fef3a3\n      eq\n      tag_30\n      jumpi\n      dup1\n      0xf586c6d9\n      eq\n      tag_31\n      jumpi\n      jump(tag_1)\n    tag_34:\n      dup1\n      0xac78467c\n      eq\n      tag_24\n      jumpi\n      dup1\n      0xbcdef0a4\n      eq\n      tag_25\n      jumpi\n      dup1\n      0xc0ab44f6\n      eq\n      tag_26\n      jumpi\n      dup1\n      0xd0e30db0\n      eq\n      tag_27\n      jumpi\n      jump(tag_1)\n    tag_33:\n      dup1\n      0x8da5cb5b\n      gt\n      tag_35\n      jumpi\n      dup1\n      0x8da5cb5b\n      eq\n      tag_20\n      jumpi\n      dup1\n      0x97fd9be7\n      eq\n      tag_21\n      jumpi\n      dup1\n      0xab43c3df\n      eq\n      tag_22\n      jumpi\n      dup1\n      0xab89b6af\n      eq\n      tag_23\n      jumpi\n      jump(tag_1)\n    tag_35:\n      dup1\n      0x796f69aa\n      eq\n      tag_17\n      jumpi\n      dup1\n      0x7c0a75e5\n      eq\n      tag_18\n      jumpi\n      dup1\n      0x854cf3cf\n      eq\n      tag_19\n      jumpi\n      jump(tag_1)\n    tag_32:\n      dup1\n      0x483d45bd\n      gt\n      tag_36\n      jumpi\n      dup1\n      0x665a21db\n      gt\n      tag_37\n      jumpi\n      dup1\n      0x665a21db\n      eq\n      tag_13\n      jumpi\n      dup1\n      0x69d2da9c\n      eq\n      tag_14\n      jumpi\n      dup1\n      0x6eecfdaa\n      eq\n      tag_15\n      jumpi\n      dup1\n      0x715018a6\n      eq\n      tag_16\n      jumpi\n      jump(tag_1)\n    tag_37:\n      dup1\n      0x483d45bd\n      eq\n      tag_9\n      jumpi\n      dup1\n      0x5c975abb\n      eq\n      tag_10\n      jumpi\n      dup1\n      0x60e232a9\n      eq\n      tag_11\n      jumpi\n      dup1\n      0x65cacaa4\n      eq\n      tag_12\n      jumpi\n      jump(tag_1)\n    tag_36:\n      dup1\n      0x223888c1\n      gt\n      tag_38\n      jumpi\n      dup1\n      0x223888c1\n      eq\n      tag_5\n      jumpi\n      dup1\n      0x35876476\n      eq\n      tag_6\n      jumpi\n      dup1\n      0x3af82c59\n      eq\n      tag_7\n      jumpi\n      dup1\n      0x4339bc30\n      eq\n      tag_8\n      jumpi\n      jump(tag_1)\n    tag_38:\n      dup1\n      0x03550d56\n      eq\n      tag_2\n      jumpi\n      dup1\n      0x0c632bbe\n      eq\n      tag_3\n      jumpi\n      dup1\n      0x1e83409a\n      eq\n      tag_4\n      jumpi\n    tag_1:\n      0x00\n      dup1\n      revert\n        /* \"Heliocontracts/contracts/ceros/CerosRouter.sol\":6862:7187  function withdrawABNBc(address recipient, uint256 amount)... */\n    tag_2:\n      callvalue\n      dup1\n      iszero\n      tag_39\n      jumpi\n      0x00\n      dup1\n      revert\n    tag_39:\n      pop\n      tag_40\n      0x04\n      dup1\n      calldatasize\n      sub\n      dup2\n      add\n      swap1\n      tag_41\n      swap2\n      swap1\n      tag_42\n      jump\t// in\n    tag_41:\n      tag_43\n      jump\t// in\n    tag_40:\n      mload(0x40)\n      tag_44\n      swap2\n      swap1\n      tag_45\n      jump\t// in\n    tag_44:\n      mload(0x40)\n      dup1\n      swap2\n      sub\n      swap1\n      return\n        /* \"Heliocontracts/contracts/ceros/CerosRouter.sol\":10358:10452  function getCeToken() external view returns(address) {... */\n    tag_3:\n      callvalue\n      dup1\n      iszero\n      tag_46\n      jumpi\n      0x00\n      dup1\n      revert\n    tag_46:\n      pop\n      tag_47\n      tag_48\n      jump\t// in\n    tag_47:\n      mload(0x40)\n      tag_49\n      swap2\n      swap1\n      tag_50\n      jump\t// in\n    tag_49:\n      mload(0x40)\n      dup1\n      swap2\n      sub\n      swap1\n      return\n        /* \"Heliocontracts/contracts/ceros/CerosRouter.sol\":5215:5478  function claim(address recipient)... */\n    tag_4:\n      callvalue\n      dup1\n      iszero\n      tag_51\n      jumpi\n      0x00\n      dup1\n      revert\n    tag_51:\n      pop\n      tag_52\n      0x04\n      dup1\n      calldatasize\n      sub\n      dup2\n      add\n      swap1\n      tag_53\n      swap2\n      swap1\n      tag_54\n      jump\t// in\n    tag_53:\n      tag_55\n      jump\t// in\n    tag_52:\n      mload(0x40)\n      tag_56\n      swap2\n      swap1\n      tag_45\n      jump\t// in\n    tag_56:\n      mload(0x40)\n      dup1\n      swap2\n      sub\n      swap1\n      return\n        /* \"Heliocontracts/contracts/ceros/CerosRouter.sol\":8445:8565  function getYieldFor(address account) external view returns(uint256) {... */\n    tag_5:\n      callvalue\n      dup1\n      iszero\n      tag_57\n      jumpi\n      0x00\n      dup1\n      revert\n    tag_57:\n      pop\n      tag_58\n      0x04\n      dup1\n      calldatasize\n      sub\n      dup2\n      add\n      swap1\n      tag_59\n      swap2\n      swap1\n      tag_54\n      jump\t// in\n    tag_59:\n      tag_60\n      jump\t// in\n    tag_58:\n      mload(0x40)\n      tag_61\n      swap2\n      swap1\n      tag_45\n      jump\t// in\n    tag_61:\n      mload(0x40)\n      dup1\n      swap2\n      sub\n      swap1\n      return\n        /* \"Heliocontracts/contracts/ceros/CerosRouter.sol\":1432:2303  function initialize(... */\n    tag_6:\n      callvalue\n      dup1\n      iszero\n      tag_62\n      jumpi\n      0x00\n      dup1\n      revert\n    tag_62:\n      pop\n      tag_63\n      0x04\n      dup1\n      calldatasize\n      sub\n      dup2\n      add\n      swap1\n      tag_64\n      swap2\n      swap1\n      tag_65\n      jump\t// in\n    tag_64:\n      tag_66\n      jump\t// in\n    tag_63:\n      stop\n        /* \"Heliocontracts/contracts/ceros/CerosRouter.sol\":9890:10261  function changeBNBStakingPool(address pool) external onlyOwner {... */\n    tag_7:\n      callvalue\n      dup1\n      iszero\n      tag_67\n      jumpi\n      0x00\n      dup1\n      revert\n    tag_67:\n      pop\n      tag_68\n      0x04\n      dup1\n      calldatasize\n      sub\n      dup2\n      add\n      swap1\n      tag_69\n      swap2\n      swap1\n      tag_54\n      jump\t// in\n    tag_69:\n      tag_70\n      jump\t// in\n    tag_68:\n      stop\n        /* \"Heliocontracts/contracts/ceros/CerosRouter.sol\":9453:9743  function changePool(address pool) external onlyOwner {... */\n    tag_8:\n      callvalue\n      dup1\n      iszero\n      tag_71\n      jumpi\n      0x00\n      dup1\n      revert\n    tag_71:\n      pop\n      tag_72\n      0x04\n      dup1\n      calldatasize\n      sub\n      dup2\n      add\n      swap1\n      tag_73\n      swap2\n      swap1\n      tag_54\n      jump\t// in\n    tag_73:\n      tag_74\n      jump\t// in\n    tag_72:\n      stop\n        /* \"Heliocontracts/contracts/ceros/CerosRouter.sol\":10266:10353  function getProvider() external view returns(address) {... */\n    tag_9:\n      callvalue\n      dup1\n      iszero\n      tag_75\n      jumpi\n      0x00\n      dup1\n      revert\n    tag_75:\n      pop\n      tag_76\n      tag_77\n      jump\t// in\n    tag_76:\n      mload(0x40)\n      tag_78\n      swap2\n      swap1\n      tag_50\n      jump\t// in\n    tag_78:\n      mload(0x40)\n      dup1\n      swap2\n      sub\n      swap1\n      return\n        /* \"@openzeppelin/contracts-upgradeable/security/PausableUpgradeable.sol\":1858:1942  function paused() public view virtual returns (bool) {... */\n    tag_10:\n      callvalue\n      dup1\n      iszero\n      tag_79\n      jumpi\n      0x00\n      dup1\n      revert\n    tag_79:\n      pop\n      tag_80\n      tag_81\n      jump\t// in\n    tag_80:\n      mload(0x40)\n      tag_82\n      swap2\n      swap1\n      tag_83\n      jump\t// in\n    tag_82:\n      mload(0x40)\n      dup1\n      swap2\n      sub\n      swap1\n      return\n        /* \"Heliocontracts/contracts/ceros/CerosRouter.sol\":8741:9033  function changeVault(address vault) external onlyOwner {... */\n    tag_11:\n      callvalue\n      dup1\n      iszero\n      tag_84\n      jumpi\n      0x00\n      dup1\n      revert\n    tag_84:\n      pop\n      tag_85\n      0x04\n      dup1\n      calldatasize\n      sub\n      dup2\n      add\n      swap1\n      tag_86\n      swap2\n      swap1\n      tag_54\n      jump\t// in\n    tag_86:\n      tag_87\n      jump\t// in\n    tag_85:\n      stop\n        /* \"Heliocontracts/contracts/ceros/CerosRouter.sol\":10976:11073  function getVaultAddress() external view returns(address) {... */\n    tag_12:\n      callvalue\n      dup1\n      iszero\n      tag_88\n      jumpi\n      0x00\n      dup1\n      revert\n    tag_88:\n      pop\n      tag_89\n      tag_90\n      jump\t// in\n    tag_89:\n      mload(0x40)\n      tag_91\n      swap2\n      swap1\n      tag_50\n      jump\t// in\n    tag_91:\n      mload(0x40)\n      dup1\n      swap2\n      sub\n      swap1\n      return\n        /* \"Heliocontracts/contracts/ceros/CerosRouter.sol\":10457:10550  function getWbnbAddress() external view returns(address) {... */\n    tag_13:\n      callvalue\n      dup1\n      iszero\n      tag_92\n      jumpi\n      0x00\n      dup1\n      revert\n    tag_92:\n      pop\n      tag_93\n      tag_94\n      jump\t// in\n    tag_93:\n      mload(0x40)\n      tag_95\n      swap2\n      swap1\n      tag_50\n      jump\t// in\n    tag_95:\n      mload(0x40)\n      dup1\n      swap2\n      sub\n      swap1\n      return\n        /* \"Heliocontracts/contracts/ceros/CerosRouter.sol\":9038:9448  function changeDex(address dex) external onlyOwner {... */\n    tag_14:\n      callvalue\n      dup1\n      iszero\n      tag_96\n      jumpi\n      0x00\n      dup1\n      revert\n    tag_96:\n      pop\n      tag_97\n      0x04\n      dup1\n      calldatasize\n      sub\n      dup2\n      add\n      swap1\n      tag_98\n      swap2\n      swap1\n      tag_54\n      jump\t// in\n    tag_98:\n      tag_99\n      jump\t// in\n    tag_97:\n      stop\n        /* \"Heliocontracts/contracts/ceros/CerosRouter.sol\":10555:10653  function getCertToken() external view returns(address) {... */\n    tag_15:\n      callvalue\n      dup1\n      iszero\n      tag_100\n      jumpi\n      0x00\n      dup1\n      revert\n    tag_100:\n      pop\n      tag_101\n      tag_102\n      jump\t// in\n    tag_101:\n      mload(0x40)\n      tag_103\n      swap2\n      swap1\n      tag_50\n      jump\t// in\n    tag_103:\n      mload(0x40)\n      dup1\n      swap2\n      sub\n      swap1\n      return\n        /* \"@openzeppelin/contracts-upgradeable/access/OwnableUpgradeable.sol\":2071:2172  function renounceOwnership() public virtual onlyOwner {... */\n    tag_16:\n      callvalue\n      dup1\n      iszero\n      tag_104\n      jumpi\n      0x00\n      dup1\n      revert\n    tag_104:\n      pop\n      tag_105\n      tag_106\n      jump\t// in\n    tag_105:\n      stop\n        /* \"Heliocontracts/contracts/ceros/CerosRouter.sol\":9748:9885  function changeProvider(address provider) external onlyOwner {... */\n    tag_17:\n      callvalue\n      dup1\n      iszero\n      tag_107\n      jumpi\n      0x00\n      dup1\n      revert\n    tag_107:\n      pop\n      tag_108\n      0x04\n      dup1\n      calldatasize\n      sub\n      dup2\n      add\n      swap1\n      tag_109\n      swap2\n      swap1\n      tag_54\n      jump\t// in\n    tag_109:\n      tag_110\n      jump\t// in\n    tag_108:\n      stop\n        /* \"Heliocontracts/contracts/ceros/CerosRouter.sol\":4772:5152  function depositABNBc(uint256 amount)... */\n    tag_18:\n      callvalue\n      dup1\n      iszero\n      tag_111\n      jumpi\n      0x00\n      dup1\n      revert\n    tag_111:\n      pop\n      tag_112\n      0x04\n      dup1\n      calldatasize\n      sub\n      dup2\n      add\n      swap1\n      tag_113\n      swap2\n      swap1\n      tag_114\n      jump\t// in\n    tag_113:\n      tag_115\n      jump\t// in\n    tag_112:\n      mload(0x40)\n      tag_116\n      swap2\n      swap1\n      tag_45\n      jump\t// in\n    tag_116:\n      mload(0x40)\n      dup1\n      swap2\n      sub\n      swap1\n      return\n        /* \"Heliocontracts/contracts/ceros/CerosRouter.sol\":10878:10971  function getDexAddress() external view returns(address) {... */\n    tag_19:\n      callvalue\n      dup1\n      iszero\n      tag_117\n      jumpi\n      0x00\n      dup1\n      revert\n    tag_117:\n      pop\n      tag_118\n      tag_119\n      jump\t// in\n    tag_118:\n      mload(0x40)\n      tag_120\n      swap2\n      swap1\n      tag_50\n      jump\t// in\n    tag_120:\n      mload(0x40)\n      dup1\n      swap2\n      sub\n      swap1\n      return\n        /* \"@openzeppelin/contracts-upgradeable/access/OwnableUpgradeable.sol\":1441:1526  function owner() public view virtual returns (address) {... */\n    tag_20:\n      callvalue\n      dup1\n      iszero\n      tag_121\n      jumpi\n      0x00\n      dup1\n      revert\n    tag_121:\n      pop\n      tag_122\n      tag_123\n      jump\t// in\n    tag_122:\n      mload(0x40)\n      tag_124\n      swap2\n      swap1\n      tag_50\n      jump\t// in\n    tag_124:\n      mload(0x40)\n      dup1\n      swap2\n      sub\n      swap1\n      return\n        /* \"Heliocontracts/contracts/ceros/CerosRouter.sol\":10758:10873  function getBNBStakingPoolAddress() external view returns(address) {... */\n    tag_21:\n      callvalue\n      dup1\n      iszero\n      tag_125\n      jumpi\n      0x00\n      dup1\n      revert\n    tag_125:\n      pop\n      tag_126\n      tag_127\n      jump\t// in\n    tag_126:\n      mload(0x40)\n      tag_128\n      swap2\n      swap1\n      tag_50\n      jump\t// in\n    tag_128:\n      mload(0x40)\n      dup1\n      swap2\n      sub\n      swap1\n      return\n        /* \"Heliocontracts/contracts/ceros/CerosRouter.sol\":7648:8323  function withdrawWithSlippage(... */\n    tag_22:\n      callvalue\n      dup1\n      iszero\n      tag_129\n      jumpi\n      0x00\n      dup1\n      revert\n    tag_129:\n      pop\n      tag_130\n      0x04\n      dup1\n      calldatasize\n      sub\n      dup2\n      add\n      swap1\n      tag_131\n      swap2\n      swap1\n      tag_132\n      jump\t// in\n    tag_131:\n      tag_133\n      jump\t// in\n    tag_130:\n      mload(0x40)\n      tag_134\n      swap2\n      swap1\n      tag_45\n      jump\t// in\n    tag_134:\n      mload(0x40)\n      dup1\n      swap2\n      sub\n      swap1\n      return\n        /* \"Heliocontracts/contracts/ceros/CerosRouter.sol\":8570:8736  function getPendingWithdrawalOf(address account)... */\n    tag_23:\n      callvalue\n      dup1\n      iszero\n      tag_135\n      jumpi\n      0x00\n      dup1\n      revert\n    tag_135:\n      pop\n      tag_136\n      0x04\n      dup1\n      calldatasize\n      sub\n      dup2\n      add\n      swap1\n      tag_137\n      swap2\n      swap1\n      tag_54\n      jump\t// in\n    tag_137:\n      tag_138\n      jump\t// in\n    tag_136:\n      mload(0x40)\n      tag_139\n      swap2\n      swap1\n      tag_45\n      jump\t// in\n    tag_139:\n      mload(0x40)\n      dup1\n      swap2\n      sub\n      swap1\n      return\n        /* \"Heliocontracts/contracts/ceros/CerosRouter.sol\":8328:8440  function getProfitFor(address account) external view returns (uint256) {... */\n    tag_24:\n      callvalue\n      dup1\n      iszero\n      tag_140\n      jumpi\n      0x00\n      dup1\n      revert\n    tag_140:\n      pop\n      tag_141\n      0x04\n      dup1\n      calldatasize\n      sub\n      dup2\n      add\n      swap1\n      tag_142\n      swap2\n      swap1\n      tag_54\n      jump\t// in\n    tag_142:\n      tag_143\n      jump\t// in\n    tag_141:\n      mload(0x40)\n      tag_144\n      swap2\n      swap1\n      tag_45\n      jump\t// in\n    tag_144:\n      mload(0x40)\n      dup1\n      swap2\n      sub\n      swap1\n      return\n        /* \"Heliocontracts/contracts/ceros/CerosRouter.sol\":4393:4767  function depositABNBcFrom(address owner, uint256 amount)... */\n    tag_25:\n      callvalue\n      dup1\n      iszero\n      tag_145\n      jumpi\n      0x00\n      dup1\n      revert\n    tag_145:\n      pop\n      tag_146\n      0x04\n      dup1\n      calldatasize\n      sub\n      dup2\n      add\n      swap1\n      tag_147\n      swap2\n      swap1\n      tag_42\n      jump\t// in\n    tag_147:\n      tag_148\n      jump\t// in\n    tag_146:\n      mload(0x40)\n      tag_149\n      swap2\n      swap1\n      tag_45\n      jump\t// in\n    tag_149:\n      mload(0x40)\n      dup1\n      swap2\n      sub\n      swap1\n      return\n        /* \"Heliocontracts/contracts/ceros/CerosRouter.sol\":5512:6014  function claimProfit(address recipient) external nonReentrant {... */\n    tag_26:\n      callvalue\n      dup1\n      iszero\n      tag_150\n      jumpi\n      0x00\n      dup1\n      revert\n    tag_150:\n      pop\n      tag_151\n      0x04\n      dup1\n      calldatasize\n      sub\n      dup2\n      add\n      swap1\n      tag_152\n      swap2\n      swap1\n      tag_54\n      jump\t// in\n    tag_152:\n      tag_153\n      jump\t// in\n    tag_151:\n      stop\n        /* \"Heliocontracts/contracts/ceros/CerosRouter.sol\":2339:4388  function deposit()... */\n    tag_27:\n      tag_154\n      tag_155\n      jump\t// in\n    tag_154:\n      mload(0x40)\n      tag_156\n      swap2\n      swap1\n      tag_45\n      jump\t// in\n    tag_156:\n      mload(0x40)\n      dup1\n      swap2\n      sub\n      swap1\n      return\n        /* \"Heliocontracts/contracts/ceros/CerosRouter.sol\":7192:7610  function withdrawFor(address recipient, uint256 amount)... */\n    tag_28:\n      callvalue\n      dup1\n      iszero\n      tag_157\n      jumpi\n      0x00\n      dup1\n      revert\n    tag_157:\n      pop\n      tag_158\n      0x04\n      dup1\n      calldatasize\n      sub\n      dup2\n      add\n      swap1\n      tag_159\n      swap2\n      swap1\n      tag_42\n      jump\t// in\n    tag_159:\n      tag_160\n      jump\t// in\n    tag_158:\n      mload(0x40)\n      tag_161\n      swap2\n      swap1\n      tag_45\n      jump\t// in\n    tag_161:\n      mload(0x40)\n      dup1\n      swap2\n      sub\n      swap1\n      return\n        /* \"@openzeppelin/contracts-upgradeable/access/OwnableUpgradeable.sol\":2321:2519  function transferOwnership(address newOwner) public virtual onlyOwner {... */\n    tag_29:\n      callvalue\n      dup1\n      iszero\n      tag_162\n      jumpi\n      0x00\n      dup1\n      revert\n    tag_162:\n      pop\n      tag_163\n      0x04\n      dup1\n      calldatasize\n      sub\n      dup2\n      add\n      swap1\n      tag_164\n      swap2\n      swap1\n      tag_54\n      jump\t// in\n    tag_164:\n      tag_165\n      jump\t// in\n    tag_163:\n      stop\n        /* \"Heliocontracts/contracts/ceros/CerosRouter.sol\":6206:6743  function withdraw(address recipient, uint256 amount)... */\n    tag_30:\n      callvalue\n      dup1\n      iszero\n      tag_166\n      jumpi\n      0x00\n      dup1\n      revert\n    tag_166:\n      pop\n      tag_167\n      0x04\n      dup1\n      calldatasize\n      sub\n      dup2\n      add\n      swap1\n      tag_168\n      swap2\n      swap1\n      tag_42\n      jump\t// in\n    tag_168:\n      tag_169\n      jump\t// in\n    tag_167:\n      mload(0x40)\n      tag_170\n      swap2\n      swap1\n      tag_45\n      jump\t// in\n    tag_170:\n      mload(0x40)\n      dup1\n      swap2\n      sub\n      swap1\n      return\n        /* \"Heliocontracts/contracts/ceros/CerosRouter.sol\":10658:10753  function getPoolAddress() external view returns(address) {... */\n    tag_31:\n      callvalue\n      dup1\n      iszero\n      tag_171\n      jumpi\n      0x00\n      dup1\n      revert\n    tag_171:\n      pop\n      tag_172\n      tag_173\n      jump\t// in\n    tag_172:\n      mload(0x40)\n      tag_174\n      swap2\n      swap1\n      tag_50\n      jump\t// in\n    tag_174:\n      mload(0x40)\n      dup1\n      swap2\n      sub\n      swap1\n      return\n        /* \"Heliocontracts/contracts/ceros/CerosRouter.sol\":6862:7187  function withdrawABNBc(address recipient, uint256 amount)... */\n    tag_43:\n        /* \"Heliocontracts/contracts/ceros/CerosRouter.sol\":6976:6994  uint256 realAmount */\n      0x00\n        /* \"@openzeppelin/contracts-upgradeable/security/ReentrancyGuardUpgradeable.sol\":1815:1816  2 */\n      0x02\n        /* \"@openzeppelin/contracts-upgradeable/security/ReentrancyGuardUpgradeable.sol\":2569:2576  _status */\n      sload(0x97)\n        /* \"@openzeppelin/contracts-upgradeable/security/ReentrancyGuardUpgradeable.sol\":2569:2588  _status != _ENTERED */\n      eq\n      iszero\n        /* \"@openzeppelin/contracts-upgradeable/security/ReentrancyGuardUpgradeable.sol\":2561:2624  require(_status != _ENTERED, \"ReentrancyGuard: reentrant call\") */\n      tag_176\n      jumpi\n      mload(0x40)\n      0x08c379a000000000000000000000000000000000000000000000000000000000\n      dup2\n      mstore\n      0x04\n      add\n      tag_177\n      swap1\n      tag_178\n      jump\t// in\n    tag_177:\n      mload(0x40)\n      dup1\n      swap2\n      sub\n      swap1\n      revert\n    tag_176:\n        /* \"@openzeppelin/contracts-upgradeable/security/ReentrancyGuardUpgradeable.sol\":1815:1816  2 */\n      0x02\n        /* \"@openzeppelin/contracts-upgradeable/security/ReentrancyGuardUpgradeable.sol\":2699:2706  _status */\n      0x97\n        /* \"@openzeppelin/contracts-upgradeable/security/ReentrancyGuardUpgradeable.sol\":2699:2717  _status = _ENTERED */\n      dup2\n      swap1\n      sstore\n      pop\n        /* \"Heliocontracts/contracts/ceros/CerosRouter.sol\":7023:7029  _vault */\n      0xc9\n      0x00\n      swap1\n      sload\n      swap1\n      0x0100\n      exp\n      swap1\n      div\n      0xffffffffffffffffffffffffffffffffffffffff\n      and\n        /* \"Heliocontracts/contracts/ceros/CerosRouter.sol\":7023:7041  _vault.withdrawFor */\n      0xffffffffffffffffffffffffffffffffffffffff\n      and\n      0x9f1d9267\n        /* \"Heliocontracts/contracts/ceros/CerosRouter.sol\":7042:7052  msg.sender */\n      caller\n        /* \"Heliocontracts/contracts/ceros/CerosRouter.sol\":7054:7063  recipient */\n      dup6\n        /* \"Heliocontracts/contracts/ceros/CerosRouter.sol\":7065:7071  amount */\n      dup6\n        /* \"Heliocontracts/contracts/ceros/CerosRouter.sol\":7023:7072  _vault.withdrawFor(msg.sender, recipient, amount) */\n      mload(0x40)\n      dup5\n      0xffffffff\n      and\n      0xe0\n      shl\n      dup2\n      mstore\n      0x04\n      add\n      tag_180\n      swap4\n      swap3\n      swap2\n      swap1\n      tag_181\n      jump\t// in\n    tag_180:\n      0x20\n      mload(0x40)\n      dup1\n      dup4\n      sub\n      dup2\n      0x00\n      dup8\n      gas\n      call\n      iszero\n      dup1\n      iszero\n      tag_183\n      jumpi\n      returndatasize\n      0x00\n      dup1\n      returndatacopy\n      revert(0x00, returndatasize)\n    tag_183:\n      pop\n      pop\n      pop\n      pop\n      mload(0x40)\n      returndatasize\n      not(0x1f)\n      0x1f\n      dup3\n      add\n      and\n      dup3\n      add\n      dup1\n      0x40\n      mstore\n      pop\n      dup2\n      add\n      swap1\n      tag_184\n      swap2\n      swap1\n      tag_185\n      jump\t// in\n    tag_184:\n        /* \"Heliocontracts/contracts/ceros/CerosRouter.sol\":7010:7072  realAmount = _vault.withdrawFor(msg.sender, recipient, amount) */\n      swap1\n      pop\n        /* \"Heliocontracts/contracts/ceros/CerosRouter.sol\":7129:7139  _certToken */\n      0xcc\n      0x00\n      swap1\n      sload\n      swap1\n      0x0100\n      exp\n      swap1\n      div\n      0xffffffffffffffffffffffffffffffffffffffff\n      and\n        /* \"Heliocontracts/contracts/ceros/CerosRouter.sol\":7087:7153  Withdrawal(msg.sender, recipient, address(_certToken), realAmount) */\n      0xffffffffffffffffffffffffffffffffffffffff\n      and\n        /* \"Heliocontracts/contracts/ceros/CerosRouter.sol\":7110:7119  recipient */\n      dup4\n        /* \"Heliocontracts/contracts/ceros/CerosRouter.sol\":7087:7153  Withdrawal(msg.sender, recipient, address(_certToken), realAmount) */\n      0xffffffffffffffffffffffffffffffffffffffff\n      and\n        /* \"Heliocontracts/contracts/ceros/CerosRouter.sol\":7098:7108  msg.sender */\n      caller\n        /* \"Heliocontracts/contracts/ceros/CerosRouter.sol\":7087:7153  Withdrawal(msg.sender, recipient, address(_certToken), realAmount) */\n      0xffffffffffffffffffffffffffffffffffffffff\n      and\n      0x342e7ff505a8a0364cd0dc2ff195c315e43bce86b204846ecd36913e117b109e\n        /* \"Heliocontracts/contracts/ceros/CerosRouter.sol\":7142:7152  realAmount */\n      dup5\n        /* \"Heliocontracts/contracts/ceros/CerosRouter.sol\":7087:7153  Withdrawal(msg.sender, recipient, address(_certToken), realAmount) */\n      mload(0x40)\n      tag_186\n      swap2\n      swap1\n      tag_45\n      jump\t// in\n    tag_186:\n      mload(0x40)\n      dup1\n      swap2\n      sub\n      swap1\n      log4\n        /* \"@openzeppelin/contracts-upgradeable/security/ReentrancyGuardUpgradeable.sol\":1772:1773  1 */\n      0x01\n        /* \"@openzeppelin/contracts-upgradeable/security/ReentrancyGuardUpgradeable.sol\":2872:2879  _status */\n      0x97\n        /* \"@openzeppelin/contracts-upgradeable/security/ReentrancyGuardUpgradeable.sol\":2872:2894  _status = _NOT_ENTERED */\n      dup2\n      swap1\n      sstore\n      pop\n        /* \"Heliocontracts/contracts/ceros/CerosRouter.sol\":6862:7187  function withdrawABNBc(address recipient, uint256 amount)... */\n      swap3\n      swap2\n      pop\n      pop\n      jump\t// out\n        /* \"Heliocontracts/contracts/ceros/CerosRouter.sol\":10358:10452  function getCeToken() external view returns(address) {... */\n    tag_48:\n        /* \"Heliocontracts/contracts/ceros/CerosRouter.sol\":10402:10409  address */\n      0x00\n        /* \"Heliocontracts/contracts/ceros/CerosRouter.sol\":10436:10444  _ceToken */\n      0xce\n      0x00\n      swap1\n      sload\n      swap1\n      0x0100\n      exp\n      swap1\n      div\n      0xffffffffffffffffffffffffffffffffffffffff\n      and\n        /* \"Heliocontracts/contracts/ceros/CerosRouter.sol\":10421:10445  return address(_ceToken) */\n      swap1\n      pop\n        /* \"Heliocontracts/contracts/ceros/CerosRouter.sol\":10358:10452  function getCeToken() external view returns(address) {... */\n      swap1\n      jump\t// out\n        /* \"Heliocontracts/contracts/ceros/CerosRouter.sol\":5215:5478  function claim(address recipient)... */\n    tag_55:\n        /* \"Heliocontracts/contracts/ceros/CerosRouter.sol\":5305:5319  uint256 yields */\n      0x00\n        /* \"@openzeppelin/contracts-upgradeable/security/ReentrancyGuardUpgradeable.sol\":1815:1816  2 */\n      0x02\n        /* \"@openzeppelin/contracts-upgradeable/security/ReentrancyGuardUpgradeable.sol\":2569:2576  _status */\n      sload(0x97)\n        /* \"@openzeppelin/contracts-upgradeable/security/ReentrancyGuardUpgradeable.sol\":2569:2588  _status != _ENTERED */\n      eq\n      iszero\n        /* \"@openzeppelin/contracts-upgradeable/security/ReentrancyGuardUpgradeable.sol\":2561:2624  require(_status != _ENTERED, \"ReentrancyGuard: reentrant call\") */\n      tag_189\n      jumpi\n      mload(0x40)\n      0x08c379a000000000000000000000000000000000000000000000000000000000\n      dup2\n      mstore\n      0x04\n      add\n      tag_190\n      swap1\n      tag_178\n      jump\t// in\n    tag_190:\n      mload(0x40)\n      dup1\n      swap2\n      sub\n      swap1\n      revert\n    tag_189:\n        /* \"@openzeppelin/contracts-upgradeable/security/ReentrancyGuardUpgradeable.sol\":1815:1816  2 */\n      0x02\n        /* \"@openzeppelin/contracts-upgradeable/security/ReentrancyGuardUpgradeable.sol\":2699:2706  _status */\n      0x97\n        /* \"@openzeppelin/contracts-upgradeable/security/ReentrancyGuardUpgradeable.sol\":2699:2717  _status = _ENTERED */\n      dup2\n      swap1\n      sstore\n      pop\n        /* \"Heliocontracts/contracts/ceros/CerosRouter.sol\":5344:5350  _vault */\n      0xc9\n      0x00\n      swap1\n      sload\n      swap1\n      0x0100\n      exp\n      swap1\n      div\n      0xffffffffffffffffffffffffffffffffffffffff\n      and\n        /* \"Heliocontracts/contracts/ceros/CerosRouter.sol\":5344:5365  _vault.claimYieldsFor */\n      0xffffffffffffffffffffffffffffffffffffffff\n      and\n      0x1101596c\n        /* \"Heliocontracts/contracts/ceros/CerosRouter.sol\":5366:5376  msg.sender */\n      caller\n        /* \"Heliocontracts/contracts/ceros/CerosRouter.sol\":5378:5387  recipient */\n      dup5\n        /* \"Heliocontracts/contracts/ceros/CerosRouter.sol\":5344:5388  _vault.claimYieldsFor(msg.sender, recipient) */\n      mload(0x40)\n      dup4\n      0xffffffff\n      and\n      0xe0\n      shl\n      dup2\n      mstore\n      0x04\n      add\n      tag_192\n      swap3\n      swap2\n      swap1\n      tag_193\n      jump\t// in\n    tag_192:\n      0x20\n      mload(0x40)\n      dup1\n      dup4\n      sub\n      dup2\n      0x00\n      dup8\n      gas\n      call\n      iszero\n      dup1\n      iszero\n      tag_195\n      jumpi\n      returndatasize\n      0x00\n      dup1\n      returndatacopy\n      revert(0x00, returndatasize)\n    tag_195:\n      pop\n      pop\n      pop\n      pop\n      mload(0x40)\n      returndatasize\n      not(0x1f)\n      0x1f\n      dup3\n      add\n      and\n      dup3\n      add\n      dup1\n      0x40\n      mstore\n      pop\n      dup2\n      add\n      swap1\n      tag_196\n      swap2\n      swap1\n      tag_185\n      jump\t// in\n    tag_196:\n        /* \"Heliocontracts/contracts/ceros/CerosRouter.sol\":5335:5388  yields = _vault.claimYieldsFor(msg.sender, recipient) */\n      swap1\n      pop\n        /* \"Heliocontracts/contracts/ceros/CerosRouter.sol\":5428:5438  _certToken */\n      0xcc\n      0x00\n      swap1\n      sload\n      swap1\n      0x0100\n      exp\n      swap1\n      div\n      0xffffffffffffffffffffffffffffffffffffffff\n      and\n        /* \"Heliocontracts/contracts/ceros/CerosRouter.sol\":5403:5448  Claim(recipient, address(_certToken), yields) */\n      0xffffffffffffffffffffffffffffffffffffffff\n      and\n        /* \"Heliocontracts/contracts/ceros/CerosRouter.sol\":5409:5418  recipient */\n      dup3\n        /* \"Heliocontracts/contracts/ceros/CerosRouter.sol\":5403:5448  Claim(recipient, address(_certToken), yields) */\n      0xffffffffffffffffffffffffffffffffffffffff\n      and\n      0x70eb43c4a8ae8c40502dcf22436c509c28d6ff421cf07c491be56984bd987068\n        /* \"Heliocontracts/contracts/ceros/CerosRouter.sol\":5441:5447  yields */\n      dup4\n        /* \"Heliocontracts/contracts/ceros/CerosRouter.sol\":5403:5448  Claim(recipient, address(_certToken), yields) */\n      mload(0x40)\n      tag_197\n      swap2\n      swap1\n      tag_45\n      jump\t// in\n    tag_197:\n      mload(0x40)\n      dup1\n      swap2\n      sub\n      swap1\n      log3\n        /* \"@openzeppelin/contracts-upgradeable/security/ReentrancyGuardUpgradeable.sol\":1772:1773  1 */\n      0x01\n        /* \"@openzeppelin/contracts-upgradeable/security/ReentrancyGuardUpgradeable.sol\":2872:2879  _status */\n      0x97\n        /* \"@openzeppelin/contracts-upgradeable/security/ReentrancyGuardUpgradeable.sol\":2872:2894  _status = _NOT_ENTERED */\n      dup2\n      swap1\n      sstore\n      pop\n        /* \"Heliocontracts/contracts/ceros/CerosRouter.sol\":5215:5478  function claim(address recipient)... */\n      swap2\n      swap1\n      pop\n      jump\t// out\n        /* \"Heliocontracts/contracts/ceros/CerosRouter.sol\":8445:8565  function getYieldFor(address account) external view returns(uint256) {... */\n    tag_60:\n        /* \"Heliocontracts/contracts/ceros/CerosRouter.sol\":8505:8512  uint256 */\n      0x00\n        /* \"Heliocontracts/contracts/ceros/CerosRouter.sol\":8531:8537  _vault */\n      0xc9\n      0x00\n      swap1\n      sload\n      swap1\n      0x0100\n      exp\n      swap1\n      div\n      0xffffffffffffffffffffffffffffffffffffffff\n      and\n        /* \"Heliocontracts/contracts/ceros/CerosRouter.sol\":8531:8549  _vault.getYieldFor */\n      0xffffffffffffffffffffffffffffffffffffffff\n      and\n      0x223888c1\n        /* \"Heliocontracts/contracts/ceros/CerosRouter.sol\":8550:8557  account */\n      dup4\n        /* \"Heliocontracts/contracts/ceros/CerosRouter.sol\":8531:8558  _vault.getYieldFor(account) */\n      mload(0x40)\n      dup3\n      0xffffffff\n      and\n      0xe0\n      shl\n      dup2\n      mstore\n      0x04\n      add\n      tag_199\n      swap2\n      swap1\n      tag_50\n      jump\t// in\n    tag_199:\n      0x20\n      mload(0x40)\n      dup1\n      dup4\n      sub\n      dup2\n      dup7\n      gas\n      staticcall\n      iszero\n      dup1\n      iszero\n      tag_201\n      jumpi\n      returndatasize\n      0x00\n      dup1\n      returndatacopy\n      revert(0x00, returndatasize)\n    tag_201:\n      pop\n      pop\n      pop\n      pop\n      mload(0x40)\n      returndatasize\n      not(0x1f)\n      0x1f\n      dup3\n      add\n      and\n      dup3\n      add\n      dup1\n      0x40\n      mstore\n      pop\n      dup2\n      add\n      swap1\n      tag_202\n      swap2\n      swap1\n      tag_185\n      jump\t// in\n    tag_202:\n        /* \"Heliocontracts/contracts/ceros/CerosRouter.sol\":8524:8558  return _vault.getYieldFor(account) */\n      swap1\n      pop\n        /* \"Heliocontracts/contracts/ceros/CerosRouter.sol\":8445:8565  function getYieldFor(address account) external view returns(uint256) {... */\n      swap2\n      swap1\n      pop\n      jump\t// out\n        /* \"Heliocontracts/contracts/ceros/CerosRouter.sol\":1432:2303  function initialize(... */\n    tag_66:\n        /* \"@openzeppelin/contracts-upgradeable/proxy/utils/Initializable.sol\":3111:3130  bool isTopLevelCall */\n      0x00\n        /* \"@openzeppelin/contracts-upgradeable/proxy/utils/Initializable.sol\":3134:3147  _initializing */\n      dup1\n      0x01\n      swap1\n      sload\n      swap1\n      0x0100\n      exp\n      swap1\n      div\n      0xff\n      and\n        /* \"@openzeppelin/contracts-upgradeable/proxy/utils/Initializable.sol\":3133:3147  !_initializing */\n      iszero\n        /* \"@openzeppelin/contracts-upgradeable/proxy/utils/Initializable.sol\":3111:3147  bool isTopLevelCall = !_initializing */\n      swap1\n      pop\n        /* \"@openzeppelin/contracts-upgradeable/proxy/utils/Initializable.sol\":3179:3193  isTopLevelCall */\n      dup1\n        /* \"@openzeppelin/contracts-upgradeable/proxy/utils/Initializable.sol\":3179:3213  isTopLevelCall && _initialized < 1 */\n      dup1\n      iszero\n      tag_204\n      jumpi\n      pop\n        /* \"@openzeppelin/contracts-upgradeable/proxy/utils/Initializable.sol\":3212:3213  1 */\n      0x01\n        /* \"@openzeppelin/contracts-upgradeable/proxy/utils/Initializable.sol\":3197:3209  _initialized */\n      0x00\n      dup1\n      sload\n      swap1\n      0x0100\n      exp\n      swap1\n      div\n      0xff\n      and\n        /* \"@openzeppelin/contracts-upgradeable/proxy/utils/Initializable.sol\":3197:3213  _initialized < 1 */\n      0xff\n      and\n      lt\n        /* \"@openzeppelin/contracts-upgradeable/proxy/utils/Initializable.sol\":3179:3213  isTopLevelCall && _initialized < 1 */\n    tag_204:\n        /* \"@openzeppelin/contracts-upgradeable/proxy/utils/Initializable.sol\":3178:3286  (isTopLevelCall && _initialized < 1) || (!AddressUpgradeable.isContract(address(this)) && _initialized == 1) */\n      dup1\n      tag_205\n      jumpi\n      pop\n        /* \"@openzeppelin/contracts-upgradeable/proxy/utils/Initializable.sol\":3220:3264  AddressUpgradeable.isContract(address(this)) */\n      tag_206\n        /* \"@openzeppelin/contracts-upgradeable/proxy/utils/Initializable.sol\":3258:3262  this */\n      address\n        /* \"@openzeppelin/contracts-upgradeable/proxy/utils/Initializable.sol\":3220:3249  AddressUpgradeable.isContract */\n      tag_207\n        /* \"@openzeppelin/contracts-upgradeable/proxy/utils/Initializable.sol\":3220:3264  AddressUpgradeable.isContract(address(this)) */\n      jump\t// in\n    tag_206:\n        /* \"@openzeppelin/contracts-upgradeable/proxy/utils/Initializable.sol\":3219:3264  !AddressUpgradeable.isContract(address(this)) */\n      iszero\n        /* \"@openzeppelin/contracts-upgradeable/proxy/utils/Initializable.sol\":3219:3285  !AddressUpgradeable.isContract(address(this)) && _initialized == 1 */\n      dup1\n      iszero\n      tag_208\n      jumpi\n      pop\n        /* \"@openzeppelin/contracts-upgradeable/proxy/utils/Initializable.sol\":3284:3285  1 */\n      0x01\n        /* \"@openzeppelin/contracts-upgradeable/proxy/utils/Initializable.sol\":3268:3280  _initialized */\n      0x00\n      dup1\n      sload\n      swap1\n      0x0100\n      exp\n      swap1\n      div\n      0xff\n      and\n        /* \"@openzeppelin/contracts-upgradeable/proxy/utils/Initializable.sol\":3268:3285  _initialized == 1 */\n      0xff\n      and\n      eq\n        /* \"@openzeppelin/contracts-upgradeable/proxy/utils/Initializable.sol\":3219:3285  !AddressUpgradeable.isContract(address(this)) && _initialized == 1 */\n    tag_208:\n        /* \"@openzeppelin/contracts-upgradeable/proxy/utils/Initializable.sol\":3178:3286  (isTopLevelCall && _initialized < 1) || (!AddressUpgradeable.isContract(address(this)) && _initialized == 1) */\n    tag_205:\n        /* \"@openzeppelin/contracts-upgradeable/proxy/utils/Initializable.sol\":3157:3358  require(... */\n      tag_209\n      jumpi\n      mload(0x40)\n      0x08c379a000000000000000000000000000000000000000000000000000000000\n      dup2\n      mstore\n      0x04\n      add\n      tag_210\n      swap1\n      tag_211\n      jump\t// in\n    tag_210:\n      mload(0x40)\n      dup1\n      swap2\n      sub\n      swap1\n      revert\n    tag_209:\n        /* \"@openzeppelin/contracts-upgradeable/proxy/utils/Initializable.sol\":3383:3384  1 */\n      0x01\n        /* \"@openzeppelin/contracts-upgradeable/proxy/utils/Initializable.sol\":3368:3380  _initialized */\n      0x00\n      dup1\n        /* \"@openzeppelin/contracts-upgradeable/proxy/utils/Initializable.sol\":3368:3384  _initialized = 1 */\n      0x0100\n      exp\n      dup2\n      sload\n      dup2\n      0xff\n      mul\n      not\n      and\n      swap1\n      dup4\n      0xff\n      and\n      mul\n      or\n      swap1\n      sstore\n      pop\n        /* \"@openzeppelin/contracts-upgradeable/proxy/utils/Initializable.sol\":3398:3412  isTopLevelCall */\n      dup1\n        /* \"@openzeppelin/contracts-upgradeable/proxy/utils/Initializable.sol\":3394:3459  if (isTopLevelCall) {... */\n      iszero\n      tag_212\n      jumpi\n        /* \"@openzeppelin/contracts-upgradeable/proxy/utils/Initializable.sol\":3444:3448  true */\n      0x01\n        /* \"@openzeppelin/contracts-upgradeable/proxy/utils/Initializable.sol\":3428:3441  _initializing */\n      0x00\n      0x01\n        /* \"@openzeppelin/contracts-upgradeable/proxy/utils/Initializable.sol\":3428:3448  _initializing = true */\n      0x0100\n      exp\n      dup2\n      sload\n      dup2\n      0xff\n      mul\n      not\n      and\n      swap1\n      dup4\n      iszero\n      iszero\n      mul\n      or\n      swap1\n      sstore\n      pop\n        /* \"@openzeppelin/contracts-upgradeable/proxy/utils/Initializable.sol\":3394:3459  if (isTopLevelCall) {... */\n    tag_212:\n        /* \"Heliocontracts/contracts/ceros/CerosRouter.sol\":1666:1682  __Ownable_init() */\n      tag_214\n        /* \"Heliocontracts/contracts/ceros/CerosRouter.sol\":1666:1680  __Ownable_init */\n      tag_215\n        /* \"Heliocontracts/contracts/ceros/CerosRouter.sol\":1666:1682  __Ownable_init() */\n      jump\t// in\n    tag_214:\n        /* \"Heliocontracts/contracts/ceros/CerosRouter.sol\":1692:1709  __Pausable_init() */\n      tag_216\n        /* \"Heliocontracts/contracts/ceros/CerosRouter.sol\":1692:1707  __Pausable_init */\n      tag_217\n        /* \"Heliocontracts/contracts/ceros/CerosRouter.sol\":1692:1709  __Pausable_init() */\n      jump\t// in\n    tag_216:\n        /* \"Heliocontracts/contracts/ceros/CerosRouter.sol\":1719:1743  __ReentrancyGuard_init() */\n      tag_218\n        /* \"Heliocontracts/contracts/ceros/CerosRouter.sol\":1719:1741  __ReentrancyGuard_init */\n      tag_219\n        /* \"Heliocontracts/contracts/ceros/CerosRouter.sol\":1719:1743  __ReentrancyGuard_init() */\n      jump\t// in\n    tag_218:\n        /* \"Heliocontracts/contracts/ceros/CerosRouter.sol\":1777:1786  certToken */\n      dup8\n        /* \"Heliocontracts/contracts/ceros/CerosRouter.sol\":1753:1763  _certToken */\n      0xcc\n      0x00\n        /* \"Heliocontracts/contracts/ceros/CerosRouter.sol\":1753:1787  _certToken = ICertToken(certToken) */\n      0x0100\n      exp\n      dup2\n      sload\n      dup2\n      0xffffffffffffffffffffffffffffffffffffffff\n      mul\n      not\n      and\n      swap1\n      dup4\n      0xffffffffffffffffffffffffffffffffffffffff\n      and\n      mul\n      or\n      swap1\n      sstore\n      pop\n        /* \"Heliocontracts/contracts/ceros/CerosRouter.sol\":1812:1821  wBnbToken */\n      dup7\n        /* \"Heliocontracts/contracts/ceros/CerosRouter.sol\":1797:1809  _wBnbAddress */\n      0xcd\n      0x00\n        /* \"Heliocontracts/contracts/ceros/CerosRouter.sol\":1797:1821  _wBnbAddress = wBnbToken */\n      0x0100\n      exp\n      dup2\n      sload\n      dup2\n      0xffffffffffffffffffffffffffffffffffffffff\n      mul\n      not\n      and\n      swap1\n      dup4\n      0xffffffffffffffffffffffffffffffffffffffff\n      and\n      mul\n      or\n      swap1\n      sstore\n      pop\n        /* \"Heliocontracts/contracts/ceros/CerosRouter.sol\":1849:1856  ceToken */\n      dup6\n        /* \"Heliocontracts/contracts/ceros/CerosRouter.sol\":1831:1839  _ceToken */\n      0xce\n      0x00\n        /* \"Heliocontracts/contracts/ceros/CerosRouter.sol\":1831:1857  _ceToken = IERC20(ceToken) */\n      0x0100\n      exp\n      dup2\n      sload\n      dup2\n      0xffffffffffffffffffffffffffffffffffffffff\n      mul\n      not\n      and\n      swap1\n      dup4\n      0xffffffffffffffffffffffffffffffffffffffff\n      and\n      mul\n      or\n      swap1\n      sstore\n      pop\n        /* \"Heliocontracts/contracts/ceros/CerosRouter.sol\":1883:1888  vault */\n      dup4\n        /* \"Heliocontracts/contracts/ceros/CerosRouter.sol\":1867:1873  _vault */\n      0xc9\n      0x00\n        /* \"Heliocontracts/contracts/ceros/CerosRouter.sol\":1867:1889  _vault = IVault(vault) */\n      0x0100\n      exp\n      dup2\n      sload\n      dup2\n      0xffffffffffffffffffffffffffffffffffffffff\n      mul\n      not\n      and\n      swap1\n      dup4\n      0xffffffffffffffffffffffffffffffffffffffff\n      and\n      mul\n      or\n      swap1\n      sstore\n      pop\n        /* \"Heliocontracts/contracts/ceros/CerosRouter.sol\":1911:1921  dexAddress */\n      dup3\n        /* \"Heliocontracts/contracts/ceros/CerosRouter.sol\":1899:1903  _dex */\n      0xca\n      0x00\n        /* \"Heliocontracts/contracts/ceros/CerosRouter.sol\":1899:1922  _dex = IDex(dexAddress) */\n      0x0100\n      exp\n      dup2\n      sload\n      dup2\n      0xffffffffffffffffffffffffffffffffffffffff\n      mul\n      not\n      and\n      swap1\n      dup4\n      0xffffffffffffffffffffffffffffffffffffffff\n      and\n      mul\n      or\n      swap1\n      sstore\n      pop\n        /* \"Heliocontracts/contracts/ceros/CerosRouter.sol\":1953:1957  pool */\n      dup2\n        /* \"Heliocontracts/contracts/ceros/CerosRouter.sol\":1932:1937  _pool */\n      0xcb\n      0x00\n        /* \"Heliocontracts/contracts/ceros/CerosRouter.sol\":1932:1958  _pool = IBinancePool(pool) */\n      0x0100\n      exp\n      dup2\n      sload\n      dup2\n      0xffffffffffffffffffffffffffffffffffffffff\n      mul\n      not\n      and\n      swap1\n      dup4\n      0xffffffffffffffffffffffffffffffffffffffff\n      and\n      mul\n      or\n      swap1\n      sstore\n      pop\n        /* \"Heliocontracts/contracts/ceros/CerosRouter.sol\":1968:2028  IERC20(wBnbToken).safeApprove(dexAddress, type(uint256).max) */\n      tag_220\n        /* \"Heliocontracts/contracts/ceros/CerosRouter.sol\":1998:2008  dexAddress */\n      dup4\n        /* \"Heliocontracts/contracts/ceros/CerosRouter.sol\":2010:2027  type(uint256).max */\n      0xffffffffffffffffffffffffffffffffffffffffffffffffffffffffffffffff\n        /* \"Heliocontracts/contracts/ceros/CerosRouter.sol\":1975:1984  wBnbToken */\n      dup10\n        /* \"Heliocontracts/contracts/ceros/CerosRouter.sol\":1968:1997  IERC20(wBnbToken).safeApprove */\n      0xffffffffffffffffffffffffffffffffffffffff\n      and\n      tag_221\n      swap1\n        /* \"Heliocontracts/contracts/ceros/CerosRouter.sol\":1968:2028  IERC20(wBnbToken).safeApprove(dexAddress, type(uint256).max) */\n      swap3\n      swap2\n      swap1\n      0xffffffff\n      and\n      jump\t// in\n    tag_220:\n        /* \"Heliocontracts/contracts/ceros/CerosRouter.sol\":2038:2098  IERC20(certToken).safeApprove(dexAddress, type(uint256).max) */\n      tag_222\n        /* \"Heliocontracts/contracts/ceros/CerosRouter.sol\":2068:2078  dexAddress */\n      dup4\n        /* \"Heliocontracts/contracts/ceros/CerosRouter.sol\":2080:2097  type(uint256).max */\n      0xffffffffffffffffffffffffffffffffffffffffffffffffffffffffffffffff\n        /* \"Heliocontracts/contracts/ceros/CerosRouter.sol\":2045:2054  certToken */\n      dup11\n        /* \"Heliocontracts/contracts/ceros/CerosRouter.sol\":2038:2067  IERC20(certToken).safeApprove */\n      0xffffffffffffffffffffffffffffffffffffffff\n      and\n      tag_221\n      swap1\n        /* \"Heliocontracts/contracts/ceros/CerosRouter.sol\":2038:2098  IERC20(certToken).safeApprove(dexAddress, type(uint256).max) */\n      swap3\n      swap2\n      swap1\n      0xffffffff\n      and\n      jump\t// in\n    tag_222:\n        /* \"Heliocontracts/contracts/ceros/CerosRouter.sol\":2108:2167  IERC20(certToken).safeApprove(bondToken, type(uint256).max) */\n      tag_223\n        /* \"Heliocontracts/contracts/ceros/CerosRouter.sol\":2138:2147  bondToken */\n      dup6\n        /* \"Heliocontracts/contracts/ceros/CerosRouter.sol\":2149:2166  type(uint256).max */\n      0xffffffffffffffffffffffffffffffffffffffffffffffffffffffffffffffff\n        /* \"Heliocontracts/contracts/ceros/CerosRouter.sol\":2115:2124  certToken */\n      dup11\n        /* \"Heliocontracts/contracts/ceros/CerosRouter.sol\":2108:2137  IERC20(certToken).safeApprove */\n      0xffffffffffffffffffffffffffffffffffffffff\n      and\n      tag_221\n      swap1\n        /* \"Heliocontracts/contracts/ceros/CerosRouter.sol\":2108:2167  IERC20(certToken).safeApprove(bondToken, type(uint256).max) */\n      swap3\n      swap2\n      swap1\n      0xffffffff\n      and\n      jump\t// in\n    tag_223:\n        /* \"Heliocontracts/contracts/ceros/CerosRouter.sol\":2177:2231  IERC20(certToken).safeApprove(pool, type(uint256).max) */\n      tag_224\n        /* \"Heliocontracts/contracts/ceros/CerosRouter.sol\":2207:2211  pool */\n      dup3\n        /* \"Heliocontracts/contracts/ceros/CerosRouter.sol\":2213:2230  type(uint256).max */\n      0xffffffffffffffffffffffffffffffffffffffffffffffffffffffffffffffff\n        /* \"Heliocontracts/contracts/ceros/CerosRouter.sol\":2184:2193  certToken */\n      dup11\n        /* \"Heliocontracts/contracts/ceros/CerosRouter.sol\":2177:2206  IERC20(certToken).safeApprove */\n      0xffffffffffffffffffffffffffffffffffffffff\n      and\n      tag_221\n      swap1\n        /* \"Heliocontracts/contracts/ceros/CerosRouter.sol\":2177:2231  IERC20(certToken).safeApprove(pool, type(uint256).max) */\n      swap3\n      swap2\n      swap1\n      0xffffffff\n      and\n      jump\t// in\n    tag_224:\n        /* \"Heliocontracts/contracts/ceros/CerosRouter.sol\":2241:2296  IERC20(certToken).safeApprove(vault, type(uint256).max) */\n      tag_225\n        /* \"Heliocontracts/contracts/ceros/CerosRouter.sol\":2271:2276  vault */\n      dup5\n        /* \"Heliocontracts/contracts/ceros/CerosRouter.sol\":2278:2295  type(uint256).max */\n      0xffffffffffffffffffffffffffffffffffffffffffffffffffffffffffffffff\n        /* \"Heliocontracts/contracts/ceros/CerosRouter.sol\":2248:2257  certToken */\n      dup11\n        /* \"Heliocontracts/contracts/ceros/CerosRouter.sol\":2241:2270  IERC20(certToken).safeApprove */\n      0xffffffffffffffffffffffffffffffffffffffff\n      and\n      tag_221\n      swap1\n        /* \"Heliocontracts/contracts/ceros/CerosRouter.sol\":2241:2296  IERC20(certToken).safeApprove(vault, type(uint256).max) */\n      swap3\n      swap2\n      swap1\n      0xffffffff\n      and\n      jump\t// in\n    tag_225:\n        /* \"@openzeppelin/contracts-upgradeable/proxy/utils/Initializable.sol\":3483:3497  isTopLevelCall */\n      dup1\n        /* \"@openzeppelin/contracts-upgradeable/proxy/utils/Initializable.sol\":3479:3578  if (isTopLevelCall) {... */\n      iszero\n      tag_226\n      jumpi\n        /* \"@openzeppelin/contracts-upgradeable/proxy/utils/Initializable.sol\":3529:3534  false */\n      0x00\n        /* \"@openzeppelin/contracts-upgradeable/proxy/utils/Initializable.sol\":3513:3526  _initializing */\n      dup1\n      0x01\n        /* \"@openzeppelin/contracts-upgradeable/proxy/utils/Initializable.sol\":3513:3534  _initializing = false */\n      0x0100\n      exp\n      dup2\n      sload\n      dup2\n      0xff\n      mul\n      not\n      and\n      swap1\n      dup4\n      iszero\n      iszero\n      mul\n      or\n      swap1\n      sstore\n      pop\n        /* \"@openzeppelin/contracts-upgradeable/proxy/utils/Initializable.sol\":3553:3567  Initialized(1) */\n      0x7f26b83ff96e1f2b6a682f133852f6798a09c465da95921460cefb3847402498\n        /* \"@openzeppelin/contracts-upgradeable/proxy/utils/Initializable.sol\":3565:3566  1 */\n      0x01\n        /* \"@openzeppelin/contracts-upgradeable/proxy/utils/Initializable.sol\":3553:3567  Initialized(1) */\n      mload(0x40)\n      tag_227\n      swap2\n      swap1\n      tag_228\n      jump\t// in\n    tag_227:\n      mload(0x40)\n      dup1\n      swap2\n      sub\n      swap1\n      log1\n        /* \"@openzeppelin/contracts-upgradeable/proxy/utils/Initializable.sol\":3479:3578  if (isTopLevelCall) {... */\n    tag_226:\n        /* \"@openzeppelin/contracts-upgradeable/proxy/utils/Initializable.sol\":3101:3584  {... */\n      pop\n        /* \"Heliocontracts/contracts/ceros/CerosRouter.sol\":1432:2303  function initialize(... */\n      pop\n      pop\n      pop\n      pop\n      pop\n      pop\n      pop\n      jump\t// out\n        /* \"Heliocontracts/contracts/ceros/CerosRouter.sol\":9890:10261  function changeBNBStakingPool(address pool) external onlyOwner {... */\n    tag_70:\n        /* \"@openzeppelin/contracts-upgradeable/access/OwnableUpgradeable.sol\":1334:1347  _checkOwner() */\n      tag_230\n        /* \"@openzeppelin/contracts-upgradeable/access/OwnableUpgradeable.sol\":1334:1345  _checkOwner */\n      tag_231\n        /* \"@openzeppelin/contracts-upgradeable/access/OwnableUpgradeable.sol\":1334:1347  _checkOwner() */\n      jump\t// in\n    tag_230:\n        /* \"Heliocontracts/contracts/ceros/CerosRouter.sol\":10003:10004  0 */\n      0x00\n        /* \"Heliocontracts/contracts/ceros/CerosRouter.sol\":9967:10005  address(_bnbStakingPool) != address(0) */\n      0xffffffffffffffffffffffffffffffffffffffff\n      and\n        /* \"Heliocontracts/contracts/ceros/CerosRouter.sol\":9975:9990  _bnbStakingPool */\n      0xd1\n      0x00\n      swap1\n      sload\n      swap1\n      0x0100\n      exp\n      swap1\n      div\n      0xffffffffffffffffffffffffffffffffffffffff\n      and\n        /* \"Heliocontracts/contracts/ceros/CerosRouter.sol\":9967:10005  address(_bnbStakingPool) != address(0) */\n      0xffffffffffffffffffffffffffffffffffffffff\n      and\n      eq\n        /* \"Heliocontracts/contracts/ceros/CerosRouter.sol\":9963:10078  if (address(_bnbStakingPool) != address(0))... */\n      tag_233\n      jumpi\n        /* \"Heliocontracts/contracts/ceros/CerosRouter.sol\":10019:10078  IERC20(_certToken).safeApprove(address(_bnbStakingPool), 0) */\n      tag_234\n        /* \"Heliocontracts/contracts/ceros/CerosRouter.sol\":10058:10073  _bnbStakingPool */\n      0xd1\n      0x00\n      swap1\n      sload\n      swap1\n      0x0100\n      exp\n      swap1\n      div\n      0xffffffffffffffffffffffffffffffffffffffff\n      and\n        /* \"Heliocontracts/contracts/ceros/CerosRouter.sol\":10076:10077  0 */\n      0x00\n        /* \"Heliocontracts/contracts/ceros/CerosRouter.sol\":10026:10036  _certToken */\n      0xcc\n      0x00\n      swap1\n      sload\n      swap1\n      0x0100\n      exp\n      swap1\n      div\n      0xffffffffffffffffffffffffffffffffffffffff\n      and\n        /* \"Heliocontracts/contracts/ceros/CerosRouter.sol\":10019:10049  IERC20(_certToken).safeApprove */\n      0xffffffffffffffffffffffffffffffffffffffff\n      and\n      tag_221\n      swap1\n        /* \"Heliocontracts/contracts/ceros/CerosRouter.sol\":10019:10078  IERC20(_certToken).safeApprove(address(_bnbStakingPool), 0) */\n      swap3\n      swap2\n      swap1\n      0xffffffff\n      and\n      jump\t// in\n    tag_234:\n        /* \"Heliocontracts/contracts/ceros/CerosRouter.sol\":9963:10078  if (address(_bnbStakingPool) != address(0))... */\n    tag_233:\n        /* \"Heliocontracts/contracts/ceros/CerosRouter.sol\":10123:10127  pool */\n      dup1\n        /* \"Heliocontracts/contracts/ceros/CerosRouter.sol\":10089:10104  _bnbStakingPool */\n      0xd1\n      0x00\n        /* \"Heliocontracts/contracts/ceros/CerosRouter.sol\":10089:10128  _bnbStakingPool = IBNBStakingPool(pool) */\n      0x0100\n      exp\n      dup2\n      sload\n      dup2\n      0xffffffffffffffffffffffffffffffffffffffff\n      mul\n      not\n      and\n      swap1\n      dup4\n      0xffffffffffffffffffffffffffffffffffffffff\n      and\n      mul\n      or\n      swap1\n      sstore\n      pop\n        /* \"Heliocontracts/contracts/ceros/CerosRouter.sol\":10138:10213  IERC20(_certToken).safeApprove(address(_bnbStakingPool), type(uint256).max) */\n      tag_235\n        /* \"Heliocontracts/contracts/ceros/CerosRouter.sol\":10177:10192  _bnbStakingPool */\n      0xd1\n      0x00\n      swap1\n      sload\n      swap1\n      0x0100\n      exp\n      swap1\n      div\n      0xffffffffffffffffffffffffffffffffffffffff\n      and\n        /* \"Heliocontracts/contracts/ceros/CerosRouter.sol\":10195:10212  type(uint256).max */\n      0xffffffffffffffffffffffffffffffffffffffffffffffffffffffffffffffff\n        /* \"Heliocontracts/contracts/ceros/CerosRouter.sol\":10145:10155  _certToken */\n      0xcc\n      0x00\n      swap1\n      sload\n      swap1\n      0x0100\n      exp\n      swap1\n      div\n      0xffffffffffffffffffffffffffffffffffffffff\n      and\n        /* \"Heliocontracts/contracts/ceros/CerosRouter.sol\":10138:10168  IERC20(_certToken).safeApprove */\n      0xffffffffffffffffffffffffffffffffffffffff\n      and\n      tag_221\n      swap1\n        /* \"Heliocontracts/contracts/ceros/CerosRouter.sol\":10138:10213  IERC20(_certToken).safeApprove(address(_bnbStakingPool), type(uint256).max) */\n      swap3\n      swap2\n      swap1\n      0xffffffff\n      and\n      jump\t// in\n    tag_235:\n        /* \"Heliocontracts/contracts/ceros/CerosRouter.sol\":10228:10254  ChangeBNBStakingPool(pool) */\n      0xc7c1b39b4c8950340ee2ddc449a99e16d5e090b420db2e99160d82a9ff5580d9\n        /* \"Heliocontracts/contracts/ceros/CerosRouter.sol\":10249:10253  pool */\n      dup2\n        /* \"Heliocontracts/contracts/ceros/CerosRouter.sol\":10228:10254  ChangeBNBStakingPool(pool) */\n      mload(0x40)\n      tag_236\n      swap2\n      swap1\n      tag_50\n      jump\t// in\n    tag_236:\n      mload(0x40)\n      dup1\n      swap2\n      sub\n      swap1\n      log1\n        /* \"Heliocontracts/contracts/ceros/CerosRouter.sol\":9890:10261  function changeBNBStakingPool(address pool) external onlyOwner {... */\n      pop\n      jump\t// out\n        /* \"Heliocontracts/contracts/ceros/CerosRouter.sol\":9453:9743  function changePool(address pool) external onlyOwner {... */\n    tag_74:\n        /* \"@openzeppelin/contracts-upgradeable/access/OwnableUpgradeable.sol\":1334:1347  _checkOwner() */\n      tag_238\n        /* \"@openzeppelin/contracts-upgradeable/access/OwnableUpgradeable.sol\":1334:1345  _checkOwner */\n      tag_231\n        /* \"@openzeppelin/contracts-upgradeable/access/OwnableUpgradeable.sol\":1334:1347  _checkOwner() */\n      jump\t// in\n    tag_238:\n        /* \"Heliocontracts/contracts/ceros/CerosRouter.sol\":9545:9594  IERC20(_certToken).safeApprove(address(_pool), 0) */\n      tag_240\n        /* \"Heliocontracts/contracts/ceros/CerosRouter.sol\":9584:9589  _pool */\n      0xcb\n      0x00\n      swap1\n      sload\n      swap1\n      0x0100\n      exp\n      swap1\n      div\n      0xffffffffffffffffffffffffffffffffffffffff\n      and\n        /* \"Heliocontracts/contracts/ceros/CerosRouter.sol\":9592:9593  0 */\n      0x00\n        /* \"Heliocontracts/contracts/ceros/CerosRouter.sol\":9552:9562  _certToken */\n      0xcc\n      0x00\n      swap1\n      sload\n      swap1\n      0x0100\n      exp\n      swap1\n      div\n      0xffffffffffffffffffffffffffffffffffffffff\n      and\n        /* \"Heliocontracts/contracts/ceros/CerosRouter.sol\":9545:9575  IERC20(_certToken).safeApprove */\n      0xffffffffffffffffffffffffffffffffffffffff\n      and\n      tag_221\n      swap1\n        /* \"Heliocontracts/contracts/ceros/CerosRouter.sol\":9545:9594  IERC20(_certToken).safeApprove(address(_pool), 0) */\n      swap3\n      swap2\n      swap1\n      0xffffffff\n      and\n      jump\t// in\n    tag_240:\n        /* \"Heliocontracts/contracts/ceros/CerosRouter.sol\":9625:9629  pool */\n      dup1\n        /* \"Heliocontracts/contracts/ceros/CerosRouter.sol\":9604:9609  _pool */\n      0xcb\n      0x00\n        /* \"Heliocontracts/contracts/ceros/CerosRouter.sol\":9604:9630  _pool = IBinancePool(pool) */\n      0x0100\n      exp\n      dup2\n      sload\n      dup2\n      0xffffffffffffffffffffffffffffffffffffffff\n      mul\n      not\n      and\n      swap1\n      dup4\n      0xffffffffffffffffffffffffffffffffffffffff\n      and\n      mul\n      or\n      swap1\n      sstore\n      pop\n        /* \"Heliocontracts/contracts/ceros/CerosRouter.sol\":9640:9705  IERC20(_certToken).safeApprove(address(_pool), type(uint256).max) */\n      tag_241\n        /* \"Heliocontracts/contracts/ceros/CerosRouter.sol\":9679:9684  _pool */\n      0xcb\n      0x00\n      swap1\n      sload\n      swap1\n      0x0100\n      exp\n      swap1\n      div\n      0xffffffffffffffffffffffffffffffffffffffff\n      and\n        /* \"Heliocontracts/contracts/ceros/CerosRouter.sol\":9687:9704  type(uint256).max */\n      0xffffffffffffffffffffffffffffffffffffffffffffffffffffffffffffffff\n        /* \"Heliocontracts/contracts/ceros/CerosRouter.sol\":9647:9657  _certToken */\n      0xcc\n      0x00\n      swap1\n      sload\n      swap1\n      0x0100\n      exp\n      swap1\n      div\n      0xffffffffffffffffffffffffffffffffffffffff\n      and\n        /* \"Heliocontracts/contracts/ceros/CerosRouter.sol\":9640:9670  IERC20(_certToken).safeApprove */\n      0xffffffffffffffffffffffffffffffffffffffff\n      and\n      tag_221\n      swap1\n        /* \"Heliocontracts/contracts/ceros/CerosRouter.sol\":9640:9705  IERC20(_certToken).safeApprove(address(_pool), type(uint256).max) */\n      swap3\n      swap2\n      swap1\n      0xffffffff\n      and\n      jump\t// in\n    tag_241:\n        /* \"Heliocontracts/contracts/ceros/CerosRouter.sol\":9720:9736  ChangePool(pool) */\n      0x79025dab199855650264c602de305dcf5c292b8e5b4470ef271724a79d0343f4\n        /* \"Heliocontracts/contracts/ceros/CerosRouter.sol\":9731:9735  pool */\n      dup2\n        /* \"Heliocontracts/contracts/ceros/CerosRouter.sol\":9720:9736  ChangePool(pool) */\n      mload(0x40)\n      tag_242\n      swap2\n      swap1\n      tag_50\n      jump\t// in\n    tag_242:\n      mload(0x40)\n      dup1\n      swap2\n      sub\n      swap1\n      log1\n        /* \"Heliocontracts/contracts/ceros/CerosRouter.sol\":9453:9743  function changePool(address pool) external onlyOwner {... */\n      pop\n      jump\t// out\n        /* \"Heliocontracts/contracts/ceros/CerosRouter.sol\":10266:10353  function getProvider() external view returns(address) {... */\n    tag_77:\n        /* \"Heliocontracts/contracts/ceros/CerosRouter.sol\":10311:10318  address */\n      0x00\n        /* \"Heliocontracts/contracts/ceros/CerosRouter.sol\":10337:10346  _provider */\n      0xd0\n      0x00\n      swap1\n      sload\n      swap1\n      0x0100\n      exp\n      swap1\n      div\n      0xffffffffffffffffffffffffffffffffffffffff\n      and\n        /* \"Heliocontracts/contracts/ceros/CerosRouter.sol\":10330:10346  return _provider */\n      swap1\n      pop\n        /* \"Heliocontracts/contracts/ceros/CerosRouter.sol\":10266:10353  function getProvider() external view returns(address) {... */\n      swap1\n      jump\t// out\n        /* \"@openzeppelin/contracts-upgradeable/security/PausableUpgradeable.sol\":1858:1942  function paused() public view virtual returns (bool) {... */\n    tag_81:\n        /* \"@openzeppelin/contracts-upgradeable/security/PausableUpgradeable.sol\":1905:1909  bool */\n      0x00\n        /* \"@openzeppelin/contracts-upgradeable/security/PausableUpgradeable.sol\":1928:1935  _paused */\n      0x65\n      0x00\n      swap1\n      sload\n      swap1\n      0x0100\n      exp\n      swap1\n      div\n      0xff\n      and\n        /* \"@openzeppelin/contracts-upgradeable/security/PausableUpgradeable.sol\":1921:1935  return _paused */\n      swap1\n      pop\n        /* \"@openzeppelin/contracts-upgradeable/security/PausableUpgradeable.sol\":1858:1942  function paused() public view virtual returns (bool) {... */\n      swap1\n      jump\t// out\n        /* \"Heliocontracts/contracts/ceros/CerosRouter.sol\":8741:9033  function changeVault(address vault) external onlyOwner {... */\n    tag_87:\n        /* \"@openzeppelin/contracts-upgradeable/access/OwnableUpgradeable.sol\":1334:1347  _checkOwner() */\n      tag_246\n        /* \"@openzeppelin/contracts-upgradeable/access/OwnableUpgradeable.sol\":1334:1345  _checkOwner */\n      tag_231\n        /* \"@openzeppelin/contracts-upgradeable/access/OwnableUpgradeable.sol\":1334:1347  _checkOwner() */\n      jump\t// in\n    tag_246:\n        /* \"Heliocontracts/contracts/ceros/CerosRouter.sol\":8835:8885  IERC20(_certToken).safeApprove(address(_vault), 0) */\n      tag_248\n        /* \"Heliocontracts/contracts/ceros/CerosRouter.sol\":8874:8880  _vault */\n      0xc9\n      0x00\n      swap1\n      sload\n      swap1\n      0x0100\n      exp\n      swap1\n      div\n      0xffffffffffffffffffffffffffffffffffffffff\n      and\n        /* \"Heliocontracts/contracts/ceros/CerosRouter.sol\":8883:8884  0 */\n      0x00\n        /* \"Heliocontracts/contracts/ceros/CerosRouter.sol\":8842:8852  _certToken */\n      0xcc\n      0x00\n      swap1\n      sload\n      swap1\n      0x0100\n      exp\n      swap1\n      div\n      0xffffffffffffffffffffffffffffffffffffffff\n      and\n        /* \"Heliocontracts/contracts/ceros/CerosRouter.sol\":8835:8865  IERC20(_certToken).safeApprove */\n      0xffffffffffffffffffffffffffffffffffffffff\n      and\n      tag_221\n      swap1\n        /* \"Heliocontracts/contracts/ceros/CerosRouter.sol\":8835:8885  IERC20(_certToken).safeApprove(address(_vault), 0) */\n      swap3\n      swap2\n      swap1\n      0xffffffff\n      and\n      jump\t// in\n    tag_248:\n        /* \"Heliocontracts/contracts/ceros/CerosRouter.sol\":8911:8916  vault */\n      dup1\n        /* \"Heliocontracts/contracts/ceros/CerosRouter.sol\":8895:8901  _vault */\n      0xc9\n      0x00\n        /* \"Heliocontracts/contracts/ceros/CerosRouter.sol\":8895:8917  _vault = IVault(vault) */\n      0x0100\n      exp\n      dup2\n      sload\n      dup2\n      0xffffffffffffffffffffffffffffffffffffffff\n      mul\n      not\n      and\n      swap1\n      dup4\n      0xffffffffffffffffffffffffffffffffffffffff\n      and\n      mul\n      or\n      swap1\n      sstore\n      pop\n        /* \"Heliocontracts/contracts/ceros/CerosRouter.sol\":8927:8993  IERC20(_certToken).safeApprove(address(_vault), type(uint256).max) */\n      tag_249\n        /* \"Heliocontracts/contracts/ceros/CerosRouter.sol\":8966:8972  _vault */\n      0xc9\n      0x00\n      swap1\n      sload\n      swap1\n      0x0100\n      exp\n      swap1\n      div\n      0xffffffffffffffffffffffffffffffffffffffff\n      and\n        /* \"Heliocontracts/contracts/ceros/CerosRouter.sol\":8975:8992  type(uint256).max */\n      0xffffffffffffffffffffffffffffffffffffffffffffffffffffffffffffffff\n        /* \"Heliocontracts/contracts/ceros/CerosRouter.sol\":8934:8944  _certToken */\n      0xcc\n      0x00\n      swap1\n      sload\n      swap1\n      0x0100\n      exp\n      swap1\n      div\n      0xffffffffffffffffffffffffffffffffffffffff\n      and\n        /* \"Heliocontracts/contracts/ceros/CerosRouter.sol\":8927:8957  IERC20(_certToken).safeApprove */\n      0xffffffffffffffffffffffffffffffffffffffff\n      and\n      tag_221\n      swap1\n        /* \"Heliocontracts/contracts/ceros/CerosRouter.sol\":8927:8993  IERC20(_certToken).safeApprove(address(_vault), type(uint256).max) */\n      swap3\n      swap2\n      swap1\n      0xffffffff\n      and\n      jump\t// in\n    tag_249:\n        /* \"Heliocontracts/contracts/ceros/CerosRouter.sol\":9008:9026  ChangeVault(vault) */\n      0x646d70535c6b451b92021874a72abd441f122ba1c0b8f24d074352bd169fad3f\n        /* \"Heliocontracts/contracts/ceros/CerosRouter.sol\":9020:9025  vault */\n      dup2\n        /* \"Heliocontracts/contracts/ceros/CerosRouter.sol\":9008:9026  ChangeVault(vault) */\n      mload(0x40)\n      tag_250\n      swap2\n      swap1\n      tag_50\n      jump\t// in\n    tag_250:\n      mload(0x40)\n      dup1\n      swap2\n      sub\n      swap1\n      log1\n        /* \"Heliocontracts/contracts/ceros/CerosRouter.sol\":8741:9033  function changeVault(address vault) external onlyOwner {... */\n      pop\n      jump\t// out\n        /* \"Heliocontracts/contracts/ceros/CerosRouter.sol\":10976:11073  function getVaultAddress() external view returns(address) {... */\n    tag_90:\n        /* \"Heliocontracts/contracts/ceros/CerosRouter.sol\":11025:11032  address */\n      0x00\n        /* \"Heliocontracts/contracts/ceros/CerosRouter.sol\":11059:11065  _vault */\n      0xc9\n      0x00\n      swap1\n      sload\n      swap1\n      0x0100\n      exp\n      swap1\n      div\n      0xffffffffffffffffffffffffffffffffffffffff\n      and\n        /* \"Heliocontracts/contracts/ceros/CerosRouter.sol\":11044:11066  return address(_vault) */\n      swap1\n      pop\n        /* \"Heliocontracts/contracts/ceros/CerosRouter.sol\":10976:11073  function getVaultAddress() external view returns(address) {... */\n      swap1\n      jump\t// out\n        /* \"Heliocontracts/contracts/ceros/CerosRouter.sol\":10457:10550  function getWbnbAddress() external view returns(address) {... */\n    tag_94:\n        /* \"Heliocontracts/contracts/ceros/CerosRouter.sol\":10505:10512  address */\n      0x00\n        /* \"Heliocontracts/contracts/ceros/CerosRouter.sol\":10531:10543  _wBnbAddress */\n      0xcd\n      0x00\n      swap1\n      sload\n      swap1\n      0x0100\n      exp\n      swap1\n      div\n      0xffffffffffffffffffffffffffffffffffffffff\n      and\n        /* \"Heliocontracts/contracts/ceros/CerosRouter.sol\":10524:10543  return _wBnbAddress */\n      swap1\n      pop\n        /* \"Heliocontracts/contracts/ceros/CerosRouter.sol\":10457:10550  function getWbnbAddress() external view returns(address) {... */\n      swap1\n      jump\t// out\n        /* \"Heliocontracts/contracts/ceros/CerosRouter.sol\":9038:9448  function changeDex(address dex) external onlyOwner {... */\n    tag_99:\n        /* \"@openzeppelin/contracts-upgradeable/access/OwnableUpgradeable.sol\":1334:1347  _checkOwner() */\n      tag_254\n        /* \"@openzeppelin/contracts-upgradeable/access/OwnableUpgradeable.sol\":1334:1345  _checkOwner */\n      tag_231\n        /* \"@openzeppelin/contracts-upgradeable/access/OwnableUpgradeable.sol\":1334:1347  _checkOwner() */\n      jump\t// in\n    tag_254:\n        /* \"Heliocontracts/contracts/ceros/CerosRouter.sol\":9099:9149  IERC20(_wBnbAddress).safeApprove(address(_dex), 0) */\n      tag_256\n        /* \"Heliocontracts/contracts/ceros/CerosRouter.sol\":9140:9144  _dex */\n      0xca\n      0x00\n      swap1\n      sload\n      swap1\n      0x0100\n      exp\n      swap1\n      div\n      0xffffffffffffffffffffffffffffffffffffffff\n      and\n        /* \"Heliocontracts/contracts/ceros/CerosRouter.sol\":9147:9148  0 */\n      0x00\n        /* \"Heliocontracts/contracts/ceros/CerosRouter.sol\":9106:9118  _wBnbAddress */\n      0xcd\n      0x00\n      swap1\n      sload\n      swap1\n      0x0100\n      exp\n      swap1\n      div\n      0xffffffffffffffffffffffffffffffffffffffff\n      and\n        /* \"Heliocontracts/contracts/ceros/CerosRouter.sol\":9099:9131  IERC20(_wBnbAddress).safeApprove */\n      0xffffffffffffffffffffffffffffffffffffffff\n      and\n      tag_221\n      swap1\n        /* \"Heliocontracts/contracts/ceros/CerosRouter.sol\":9099:9149  IERC20(_wBnbAddress).safeApprove(address(_dex), 0) */\n      swap3\n      swap2\n      swap1\n      0xffffffff\n      and\n      jump\t// in\n    tag_256:\n        /* \"Heliocontracts/contracts/ceros/CerosRouter.sol\":9159:9207  IERC20(_certToken).safeApprove(address(_dex), 0) */\n      tag_257\n        /* \"Heliocontracts/contracts/ceros/CerosRouter.sol\":9198:9202  _dex */\n      0xca\n      0x00\n      swap1\n      sload\n      swap1\n      0x0100\n      exp\n      swap1\n      div\n      0xffffffffffffffffffffffffffffffffffffffff\n      and\n        /* \"Heliocontracts/contracts/ceros/CerosRouter.sol\":9205:9206  0 */\n      0x00\n        /* \"Heliocontracts/contracts/ceros/CerosRouter.sol\":9166:9176  _certToken */\n      0xcc\n      0x00\n      swap1\n      sload\n      swap1\n      0x0100\n      exp\n      swap1\n      div\n      0xffffffffffffffffffffffffffffffffffffffff\n      and\n        /* \"Heliocontracts/contracts/ceros/CerosRouter.sol\":9159:9189  IERC20(_certToken).safeApprove */\n      0xffffffffffffffffffffffffffffffffffffffff\n      and\n      tag_221\n      swap1\n        /* \"Heliocontracts/contracts/ceros/CerosRouter.sol\":9159:9207  IERC20(_certToken).safeApprove(address(_dex), 0) */\n      swap3\n      swap2\n      swap1\n      0xffffffff\n      and\n      jump\t// in\n    tag_257:\n        /* \"Heliocontracts/contracts/ceros/CerosRouter.sol\":9229:9232  dex */\n      dup1\n        /* \"Heliocontracts/contracts/ceros/CerosRouter.sol\":9217:9221  _dex */\n      0xca\n      0x00\n        /* \"Heliocontracts/contracts/ceros/CerosRouter.sol\":9217:9233  _dex = IDex(dex) */\n      0x0100\n      exp\n      dup2\n      sload\n      dup2\n      0xffffffffffffffffffffffffffffffffffffffff\n      mul\n      not\n      and\n      swap1\n      dup4\n      0xffffffffffffffffffffffffffffffffffffffff\n      and\n      mul\n      or\n      swap1\n      sstore\n      pop\n        /* \"Heliocontracts/contracts/ceros/CerosRouter.sol\":9272:9338  IERC20(_wBnbAddress).safeApprove(address(_dex), type(uint256).max) */\n      tag_258\n        /* \"Heliocontracts/contracts/ceros/CerosRouter.sol\":9313:9317  _dex */\n      0xca\n      0x00\n      swap1\n      sload\n      swap1\n      0x0100\n      exp\n      swap1\n      div\n      0xffffffffffffffffffffffffffffffffffffffff\n      and\n        /* \"Heliocontracts/contracts/ceros/CerosRouter.sol\":9320:9337  type(uint256).max */\n      0xffffffffffffffffffffffffffffffffffffffffffffffffffffffffffffffff\n        /* \"Heliocontracts/contracts/ceros/CerosRouter.sol\":9279:9291  _wBnbAddress */\n      0xcd\n      0x00\n      swap1\n      sload\n      swap1\n      0x0100\n      exp\n      swap1\n      div\n      0xffffffffffffffffffffffffffffffffffffffff\n      and\n        /* \"Heliocontracts/contracts/ceros/CerosRouter.sol\":9272:9304  IERC20(_wBnbAddress).safeApprove */\n      0xffffffffffffffffffffffffffffffffffffffff\n      and\n      tag_221\n      swap1\n        /* \"Heliocontracts/contracts/ceros/CerosRouter.sol\":9272:9338  IERC20(_wBnbAddress).safeApprove(address(_dex), type(uint256).max) */\n      swap3\n      swap2\n      swap1\n      0xffffffff\n      and\n      jump\t// in\n    tag_258:\n        /* \"Heliocontracts/contracts/ceros/CerosRouter.sol\":9348:9412  IERC20(_certToken).safeApprove(address(_dex), type(uint256).max) */\n      tag_259\n        /* \"Heliocontracts/contracts/ceros/CerosRouter.sol\":9387:9391  _dex */\n      0xca\n      0x00\n      swap1\n      sload\n      swap1\n      0x0100\n      exp\n      swap1\n      div\n      0xffffffffffffffffffffffffffffffffffffffff\n      and\n        /* \"Heliocontracts/contracts/ceros/CerosRouter.sol\":9394:9411  type(uint256).max */\n      0xffffffffffffffffffffffffffffffffffffffffffffffffffffffffffffffff\n        /* \"Heliocontracts/contracts/ceros/CerosRouter.sol\":9355:9365  _certToken */\n      0xcc\n      0x00\n      swap1\n      sload\n      swap1\n      0x0100\n      exp\n      swap1\n      div\n      0xffffffffffffffffffffffffffffffffffffffff\n      and\n        /* \"Heliocontracts/contracts/ceros/CerosRouter.sol\":9348:9378  IERC20(_certToken).safeApprove */\n      0xffffffffffffffffffffffffffffffffffffffff\n      and\n      tag_221\n      swap1\n        /* \"Heliocontracts/contracts/ceros/CerosRouter.sol\":9348:9412  IERC20(_certToken).safeApprove(address(_dex), type(uint256).max) */\n      swap3\n      swap2\n      swap1\n      0xffffffff\n      and\n      jump\t// in\n    tag_259:\n        /* \"Heliocontracts/contracts/ceros/CerosRouter.sol\":9427:9441  ChangeDex(dex) */\n      0x90252124b346c6d6c466196d470d708d0c0c7026fe5ba62a2e01b5adbf39e279\n        /* \"Heliocontracts/contracts/ceros/CerosRouter.sol\":9437:9440  dex */\n      dup2\n        /* \"Heliocontracts/contracts/ceros/CerosRouter.sol\":9427:9441  ChangeDex(dex) */\n      mload(0x40)\n      tag_260\n      swap2\n      swap1\n      tag_50\n      jump\t// in\n    tag_260:\n      mload(0x40)\n      dup1\n      swap2\n      sub\n      swap1\n      log1\n        /* \"Heliocontracts/contracts/ceros/CerosRouter.sol\":9038:9448  function changeDex(address dex) external onlyOwner {... */\n      pop\n      jump\t// out\n        /* \"Heliocontracts/contracts/ceros/CerosRouter.sol\":10555:10653  function getCertToken() external view returns(address) {... */\n    tag_102:\n        /* \"Heliocontracts/contracts/ceros/CerosRouter.sol\":10601:10608  address */\n      0x00\n        /* \"Heliocontracts/contracts/ceros/CerosRouter.sol\":10635:10645  _certToken */\n      0xcc\n      0x00\n      swap1\n      sload\n      swap1\n      0x0100\n      exp\n      swap1\n      div\n      0xffffffffffffffffffffffffffffffffffffffff\n      and\n        /* \"Heliocontracts/contracts/ceros/CerosRouter.sol\":10620:10646  return address(_certToken) */\n      swap1\n      pop\n        /* \"Heliocontracts/contracts/ceros/CerosRouter.sol\":10555:10653  function getCertToken() external view returns(address) {... */\n      swap1\n      jump\t// out\n        /* \"@openzeppelin/contracts-upgradeable/access/OwnableUpgradeable.sol\":2071:2172  function renounceOwnership() public virtual onlyOwner {... */\n    tag_106:\n        /* \"@openzeppelin/contracts-upgradeable/access/OwnableUpgradeable.sol\":1334:1347  _checkOwner() */\n      tag_263\n        /* \"@openzeppelin/contracts-upgradeable/access/OwnableUpgradeable.sol\":1334:1345  _checkOwner */\n      tag_231\n        /* \"@openzeppelin/contracts-upgradeable/access/OwnableUpgradeable.sol\":1334:1347  _checkOwner() */\n      jump\t// in\n    tag_263:\n        /* \"@openzeppelin/contracts-upgradeable/access/OwnableUpgradeable.sol\":2135:2165  _transferOwnership(address(0)) */\n      tag_265\n        /* \"@openzeppelin/contracts-upgradeable/access/OwnableUpgradeable.sol\":2162:2163  0 */\n      0x00\n        /* \"@openzeppelin/contracts-upgradeable/access/OwnableUpgradeable.sol\":2135:2153  _transferOwnership */\n      tag_266\n        /* \"@openzeppelin/contracts-upgradeable/access/OwnableUpgradeable.sol\":2135:2165  _transferOwnership(address(0)) */\n      jump\t// in\n    tag_265:\n        /* \"@openzeppelin/contracts-upgradeable/access/OwnableUpgradeable.sol\":2071:2172  function renounceOwnership() public virtual onlyOwner {... */\n      jump\t// out\n        /* \"Heliocontracts/contracts/ceros/CerosRouter.sol\":9748:9885  function changeProvider(address provider) external onlyOwner {... */\n    tag_110:\n        /* \"@openzeppelin/contracts-upgradeable/access/OwnableUpgradeable.sol\":1334:1347  _checkOwner() */\n      tag_268\n        /* \"@openzeppelin/contracts-upgradeable/access/OwnableUpgradeable.sol\":1334:1345  _checkOwner */\n      tag_231\n        /* \"@openzeppelin/contracts-upgradeable/access/OwnableUpgradeable.sol\":1334:1347  _checkOwner() */\n      jump\t// in\n    tag_268:\n        /* \"Heliocontracts/contracts/ceros/CerosRouter.sol\":9831:9839  provider */\n      dup1\n        /* \"Heliocontracts/contracts/ceros/CerosRouter.sol\":9819:9828  _provider */\n      0xd0\n      0x00\n        /* \"Heliocontracts/contracts/ceros/CerosRouter.sol\":9819:9839  _provider = provider */\n      0x0100\n      exp\n      dup2\n      sload\n      dup2\n      0xffffffffffffffffffffffffffffffffffffffff\n      mul\n      not\n      and\n      swap1\n      dup4\n      0xffffffffffffffffffffffffffffffffffffffff\n      and\n      mul\n      or\n      swap1\n      sstore\n      pop\n        /* \"Heliocontracts/contracts/ceros/CerosRouter.sol\":9854:9878  ChangeProvider(provider) */\n      0x9a33114b94f1c4c094352deff0082e220c977361e70d556dfb5565ad4678ce4d\n        /* \"Heliocontracts/contracts/ceros/CerosRouter.sol\":9869:9877  provider */\n      dup2\n        /* \"Heliocontracts/contracts/ceros/CerosRouter.sol\":9854:9878  ChangeProvider(provider) */\n      mload(0x40)\n      tag_270\n      swap2\n      swap1\n      tag_50\n      jump\t// in\n    tag_270:\n      mload(0x40)\n      dup1\n      swap2\n      sub\n      swap1\n      log1\n        /* \"Heliocontracts/contracts/ceros/CerosRouter.sol\":9748:9885  function changeProvider(address provider) external onlyOwner {... */\n      pop\n      jump\t// out\n        /* \"Heliocontracts/contracts/ceros/CerosRouter.sol\":4772:5152  function depositABNBc(uint256 amount)... */\n    tag_115:\n        /* \"Heliocontracts/contracts/ceros/CerosRouter.sol\":4866:4879  uint256 value */\n      0x00\n        /* \"@openzeppelin/contracts-upgradeable/security/ReentrancyGuardUpgradeable.sol\":1815:1816  2 */\n      0x02\n        /* \"@openzeppelin/contracts-upgradeable/security/ReentrancyGuardUpgradeable.sol\":2569:2576  _status */\n      sload(0x97)\n        /* \"@openzeppelin/contracts-upgradeable/security/ReentrancyGuardUpgradeable.sol\":2569:2588  _status != _ENTERED */\n      eq\n      iszero\n        /* \"@openzeppelin/contracts-upgradeable/security/ReentrancyGuardUpgradeable.sol\":2561:2624  require(_status != _ENTERED, \"ReentrancyGuard: reentrant call\") */\n      tag_272\n      jumpi\n      mload(0x40)\n      0x08c379a000000000000000000000000000000000000000000000000000000000\n      dup2\n      mstore\n      0x04\n      add\n      tag_273\n      swap1\n      tag_178\n      jump\t// in\n    tag_273:\n      mload(0x40)\n      dup1\n      swap2\n      sub\n      swap1\n      revert\n    tag_272:\n        /* \"@openzeppelin/contracts-upgradeable/security/ReentrancyGuardUpgradeable.sol\":1815:1816  2 */\n      0x02\n        /* \"@openzeppelin/contracts-upgradeable/security/ReentrancyGuardUpgradeable.sol\":2699:2706  _status */\n      0x97\n        /* \"@openzeppelin/contracts-upgradeable/security/ReentrancyGuardUpgradeable.sol\":2699:2717  _status = _ENTERED */\n      dup2\n      swap1\n      sstore\n      pop\n        /* \"Heliocontracts/contracts/ceros/CerosRouter.sol\":4895:4922  revert(\"CeRouter/Disabled\") */\n      mload(0x40)\n      0x08c379a000000000000000000000000000000000000000000000000000000000\n      dup2\n      mstore\n      0x04\n      add\n      tag_275\n      swap1\n      tag_276\n      jump\t// in\n    tag_275:\n      mload(0x40)\n      dup1\n      swap2\n      sub\n      swap1\n      revert\n        /* \"Heliocontracts/contracts/ceros/CerosRouter.sol\":10878:10971  function getDexAddress() external view returns(address) {... */\n    tag_119:\n        /* \"Heliocontracts/contracts/ceros/CerosRouter.sol\":10925:10932  address */\n      0x00\n        /* \"Heliocontracts/contracts/ceros/CerosRouter.sol\":10959:10963  _dex */\n      0xca\n      0x00\n      swap1\n      sload\n      swap1\n      0x0100\n      exp\n      swap1\n      div\n      0xffffffffffffffffffffffffffffffffffffffff\n      and\n        /* \"Heliocontracts/contracts/ceros/CerosRouter.sol\":10944:10964  return address(_dex) */\n      swap1\n      pop\n        /* \"Heliocontracts/contracts/ceros/CerosRouter.sol\":10878:10971  function getDexAddress() external view returns(address) {... */\n      swap1\n      jump\t// out\n        /* \"@openzeppelin/contracts-upgradeable/access/OwnableUpgradeable.sol\":1441:1526  function owner() public view virtual returns (address) {... */\n    tag_123:\n        /* \"@openzeppelin/contracts-upgradeable/access/OwnableUpgradeable.sol\":1487:1494  address */\n      0x00\n        /* \"@openzeppelin/contracts-upgradeable/access/OwnableUpgradeable.sol\":1513:1519  _owner */\n      0x33\n      0x00\n      swap1\n      sload\n      swap1\n      0x0100\n      exp\n      swap1\n      div\n      0xffffffffffffffffffffffffffffffffffffffff\n      and\n        /* \"@openzeppelin/contracts-upgradeable/access/OwnableUpgradeable.sol\":1506:1519  return _owner */\n      swap1\n      pop\n        /* \"@openzeppelin/contracts-upgradeable/access/OwnableUpgradeable.sol\":1441:1526  function owner() public view virtual returns (address) {... */\n      swap1\n      jump\t// out\n        /* \"Heliocontracts/contracts/ceros/CerosRouter.sol\":10758:10873  function getBNBStakingPoolAddress() external view returns(address) {... */\n    tag_127:\n        /* \"Heliocontracts/contracts/ceros/CerosRouter.sol\":10816:10823  address */\n      0x00\n        /* \"Heliocontracts/contracts/ceros/CerosRouter.sol\":10850:10865  _bnbStakingPool */\n      0xd1\n      0x00\n      swap1\n      sload\n      swap1\n      0x0100\n      exp\n      swap1\n      div\n      0xffffffffffffffffffffffffffffffffffffffff\n      and\n        /* \"Heliocontracts/contracts/ceros/CerosRouter.sol\":10835:10866  return address(_bnbStakingPool) */\n      swap1\n      pop\n        /* \"Heliocontracts/contracts/ceros/CerosRouter.sol\":10758:10873  function getBNBStakingPoolAddress() external view returns(address) {... */\n      swap1\n      jump\t// out\n        /* \"Heliocontracts/contracts/ceros/CerosRouter.sol\":7648:8323  function withdrawWithSlippage(... */\n    tag_133:\n        /* \"Heliocontracts/contracts/ceros/CerosRouter.sol\":7802:7820  uint256 realAmount */\n      0x00\n        /* \"@openzeppelin/contracts-upgradeable/security/ReentrancyGuardUpgradeable.sol\":1815:1816  2 */\n      0x02\n        /* \"@openzeppelin/contracts-upgradeable/security/ReentrancyGuardUpgradeable.sol\":2569:2576  _status */\n      sload(0x97)\n        /* \"@openzeppelin/contracts-upgradeable/security/ReentrancyGuardUpgradeable.sol\":2569:2588  _status != _ENTERED */\n      eq\n      iszero\n        /* \"@openzeppelin/contracts-upgradeable/security/ReentrancyGuardUpgradeable.sol\":2561:2624  require(_status != _ENTERED, \"ReentrancyGuard: reentrant call\") */\n      tag_281\n      jumpi\n      mload(0x40)\n      0x08c379a000000000000000000000000000000000000000000000000000000000\n      dup2\n      mstore\n      0x04\n      add\n      tag_282\n      swap1\n      tag_178\n      jump\t// in\n    tag_282:\n      mload(0x40)\n      dup1\n      swap2\n      sub\n      swap1\n      revert\n    tag_281:\n        /* \"@openzeppelin/contracts-upgradeable/security/ReentrancyGuardUpgradeable.sol\":1815:1816  2 */\n      0x02\n        /* \"@openzeppelin/contracts-upgradeable/security/ReentrancyGuardUpgradeable.sol\":2699:2706  _status */\n      0x97\n        /* \"@openzeppelin/contracts-upgradeable/security/ReentrancyGuardUpgradeable.sol\":2699:2717  _status = _ENTERED */\n      dup2\n      swap1\n      sstore\n      pop\n        /* \"Heliocontracts/contracts/ceros/CerosRouter.sol\":7845:7851  _vault */\n      0xc9\n      0x00\n      swap1\n      sload\n      swap1\n      0x0100\n      exp\n      swap1\n      div\n      0xffffffffffffffffffffffffffffffffffffffff\n      and\n        /* \"Heliocontracts/contracts/ceros/CerosRouter.sol\":7845:7863  _vault.withdrawFor */\n      0xffffffffffffffffffffffffffffffffffffffff\n      and\n      0x9f1d9267\n        /* \"Heliocontracts/contracts/ceros/CerosRouter.sol\":7864:7874  msg.sender */\n      caller\n        /* \"Heliocontracts/contracts/ceros/CerosRouter.sol\":7884:7888  this */\n      address\n        /* \"Heliocontracts/contracts/ceros/CerosRouter.sol\":7891:7897  amount */\n      dup7\n        /* \"Heliocontracts/contracts/ceros/CerosRouter.sol\":7845:7898  _vault.withdrawFor(msg.sender, address(this), amount) */\n      mload(0x40)\n      dup5\n      0xffffffff\n      and\n      0xe0\n      shl\n      dup2\n      mstore\n      0x04\n      add\n      tag_284\n      swap4\n      swap3\n      swap2\n      swap1\n      tag_181\n      jump\t// in\n    tag_284:\n      0x20\n      mload(0x40)\n      dup1\n      dup4\n      sub\n      dup2\n      0x00\n      dup8\n      gas\n      call\n      iszero\n      dup1\n      iszero\n      tag_286\n      jumpi\n      returndatasize\n      0x00\n      dup1\n      returndatacopy\n      revert(0x00, returndatasize)\n    tag_286:\n      pop\n      pop\n      pop\n      pop\n      mload(0x40)\n      returndatasize\n      not(0x1f)\n      0x1f\n      dup3\n      add\n      and\n      dup3\n      add\n      dup1\n      0x40\n      mstore\n      pop\n      dup2\n      add\n      swap1\n      tag_287\n      swap2\n      swap1\n      tag_185\n      jump\t// in\n    tag_287:\n        /* \"Heliocontracts/contracts/ceros/CerosRouter.sol\":7832:7898  realAmount = _vault.withdrawFor(msg.sender, address(this), amount) */\n      swap1\n      pop\n        /* \"Heliocontracts/contracts/ceros/CerosRouter.sol\":7908:7929  address[] memory path */\n      0x00\n        /* \"Heliocontracts/contracts/ceros/CerosRouter.sol\":7946:7947  2 */\n      0x02\n        /* \"Heliocontracts/contracts/ceros/CerosRouter.sol\":7932:7948  new address[](2) */\n      0xffffffffffffffff\n      dup2\n      gt\n      iszero\n      tag_288\n      jumpi\n      tag_289\n      tag_290\n      jump\t// in\n    tag_289:\n    tag_288:\n      mload(0x40)\n      swap1\n      dup1\n      dup3\n      mstore\n      dup1\n      0x20\n      mul\n      0x20\n      add\n      dup3\n      add\n      0x40\n      mstore\n      dup1\n      iszero\n      tag_291\n      jumpi\n      dup2\n      0x20\n      add\n      0x20\n      dup3\n      mul\n      dup1\n      calldatasize\n      dup4\n      calldatacopy\n      dup1\n      dup3\n      add\n      swap2\n      pop\n      pop\n      swap1\n      pop\n    tag_291:\n      pop\n        /* \"Heliocontracts/contracts/ceros/CerosRouter.sol\":7908:7948  address[] memory path = new address[](2) */\n      swap1\n      pop\n        /* \"Heliocontracts/contracts/ceros/CerosRouter.sol\":7976:7986  _certToken */\n      0xcc\n      0x00\n      swap1\n      sload\n      swap1\n      0x0100\n      exp\n      swap1\n      div\n      0xffffffffffffffffffffffffffffffffffffffff\n      and\n        /* \"Heliocontracts/contracts/ceros/CerosRouter.sol\":7958:7962  path */\n      dup2\n        /* \"Heliocontracts/contracts/ceros/CerosRouter.sol\":7963:7964  0 */\n      0x00\n        /* \"Heliocontracts/contracts/ceros/CerosRouter.sol\":7958:7965  path[0] */\n      dup2\n      mload\n      dup2\n      lt\n      tag_292\n      jumpi\n      tag_293\n      tag_294\n      jump\t// in\n    tag_293:\n    tag_292:\n      0x20\n      mul\n      0x20\n      add\n      add\n        /* \"Heliocontracts/contracts/ceros/CerosRouter.sol\":7958:7987  path[0] = address(_certToken) */\n      swap1\n      0xffffffffffffffffffffffffffffffffffffffff\n      and\n      swap1\n      dup2\n      0xffffffffffffffffffffffffffffffffffffffff\n      and\n      dup2\n      mstore\n      pop\n      pop\n        /* \"Heliocontracts/contracts/ceros/CerosRouter.sol\":8007:8019  _wBnbAddress */\n      0xcd\n      0x00\n      swap1\n      sload\n      swap1\n      0x0100\n      exp\n      swap1\n      div\n      0xffffffffffffffffffffffffffffffffffffffff\n      and\n        /* \"Heliocontracts/contracts/ceros/CerosRouter.sol\":7997:8001  path */\n      dup2\n        /* \"Heliocontracts/contracts/ceros/CerosRouter.sol\":8002:8003  1 */\n      0x01\n        /* \"Heliocontracts/contracts/ceros/CerosRouter.sol\":7997:8004  path[1] */\n      dup2\n      mload\n      dup2\n      lt\n      tag_295\n      jumpi\n      tag_296\n      tag_294\n      jump\t// in\n    tag_296:\n    tag_295:\n      0x20\n      mul\n      0x20\n      add\n      add\n        /* \"Heliocontracts/contracts/ceros/CerosRouter.sol\":7997:8019  path[1] = _wBnbAddress */\n      swap1\n      0xffffffffffffffffffffffffffffffffffffffff\n      and\n      swap1\n      dup2\n      0xffffffffffffffffffffffffffffffffffffffff\n      and\n      dup2\n      mstore\n      pop\n      pop\n        /* \"Heliocontracts/contracts/ceros/CerosRouter.sol\":8029:8053  uint256[] memory amounts */\n      0x00\n        /* \"Heliocontracts/contracts/ceros/CerosRouter.sol\":8056:8060  _dex */\n      0xca\n      0x00\n      swap1\n      sload\n      swap1\n      0x0100\n      exp\n      swap1\n      div\n      0xffffffffffffffffffffffffffffffffffffffff\n      and\n        /* \"Heliocontracts/contracts/ceros/CerosRouter.sol\":8056:8082  _dex.swapExactTokensForETH */\n      0xffffffffffffffffffffffffffffffffffffffff\n      and\n      0x18cbafe5\n        /* \"Heliocontracts/contracts/ceros/CerosRouter.sol\":8096:8106  realAmount */\n      dup5\n        /* \"Heliocontracts/contracts/ceros/CerosRouter.sol\":8120:8129  outAmount */\n      dup7\n        /* \"Heliocontracts/contracts/ceros/CerosRouter.sol\":8143:8147  path */\n      dup6\n        /* \"Heliocontracts/contracts/ceros/CerosRouter.sol\":8161:8170  recipient */\n      dup11\n        /* \"Heliocontracts/contracts/ceros/CerosRouter.sol\":8202:8205  300 */\n      0x012c\n        /* \"Heliocontracts/contracts/ceros/CerosRouter.sol\":8184:8199  block.timestamp */\n      timestamp\n        /* \"Heliocontracts/contracts/ceros/CerosRouter.sol\":8184:8205  block.timestamp + 300 */\n      tag_297\n      swap2\n      swap1\n      tag_298\n      jump\t// in\n    tag_297:\n        /* \"Heliocontracts/contracts/ceros/CerosRouter.sol\":8056:8215  _dex.swapExactTokensForETH(... */\n      mload(0x40)\n      dup7\n      0xffffffff\n      and\n      0xe0\n      shl\n      dup2\n      mstore\n      0x04\n      add\n      tag_299\n      swap6\n      swap5\n      swap4\n      swap3\n      swap2\n      swap1\n      tag_300\n      jump\t// in\n    tag_299:\n      0x00\n      mload(0x40)\n      dup1\n      dup4\n      sub\n      dup2\n      0x00\n      dup8\n      gas\n      call\n      iszero\n      dup1\n      iszero\n      tag_302\n      jumpi\n      returndatasize\n      0x00\n      dup1\n      returndatacopy\n      revert(0x00, returndatasize)\n    tag_302:\n      pop\n      pop\n      pop\n      pop\n      mload(0x40)\n      returndatasize\n      0x00\n      dup3\n      returndatacopy\n      returndatasize\n      not(0x1f)\n      0x1f\n      dup3\n      add\n      and\n      dup3\n      add\n      dup1\n      0x40\n      mstore\n      pop\n      dup2\n      add\n      swap1\n      tag_303\n      swap2\n      swap1\n      tag_304\n      jump\t// in\n    tag_303:\n        /* \"Heliocontracts/contracts/ceros/CerosRouter.sol\":8029:8215  uint256[] memory amounts = _dex.swapExactTokensForETH(... */\n      swap1\n      pop\n        /* \"Heliocontracts/contracts/ceros/CerosRouter.sol\":8264:8276  _wBnbAddress */\n      0xcd\n      0x00\n      swap1\n      sload\n      swap1\n      0x0100\n      exp\n      swap1\n      div\n      0xffffffffffffffffffffffffffffffffffffffff\n      and\n        /* \"Heliocontracts/contracts/ceros/CerosRouter.sol\":8230:8289  Withdrawal(msg.sender, recipient, _wBnbAddress, amounts[1]) */\n      0xffffffffffffffffffffffffffffffffffffffff\n      and\n        /* \"Heliocontracts/contracts/ceros/CerosRouter.sol\":8253:8262  recipient */\n      dup7\n        /* \"Heliocontracts/contracts/ceros/CerosRouter.sol\":8230:8289  Withdrawal(msg.sender, recipient, _wBnbAddress, amounts[1]) */\n      0xffffffffffffffffffffffffffffffffffffffff\n      and\n        /* \"Heliocontracts/contracts/ceros/CerosRouter.sol\":8241:8251  msg.sender */\n      caller\n        /* \"Heliocontracts/contracts/ceros/CerosRouter.sol\":8230:8289  Withdrawal(msg.sender, recipient, _wBnbAddress, amounts[1]) */\n      0xffffffffffffffffffffffffffffffffffffffff\n      and\n      0x342e7ff505a8a0364cd0dc2ff195c315e43bce86b204846ecd36913e117b109e\n        /* \"Heliocontracts/contracts/ceros/CerosRouter.sol\":8278:8285  amounts */\n      dup5\n        /* \"Heliocontracts/contracts/ceros/CerosRouter.sol\":8286:8287  1 */\n      0x01\n        /* \"Heliocontracts/contracts/ceros/CerosRouter.sol\":8278:8288  amounts[1] */\n      dup2\n      mload\n      dup2\n      lt\n      tag_305\n      jumpi\n      tag_306\n      tag_294\n      jump\t// in\n    tag_306:\n    tag_305:\n      0x20\n      mul\n      0x20\n      add\n      add\n      mload\n        /* \"Heliocontracts/contracts/ceros/CerosRouter.sol\":8230:8289  Withdrawal(msg.sender, recipient, _wBnbAddress, amounts[1]) */\n      mload(0x40)\n      tag_307\n      swap2\n      swap1\n      tag_45\n      jump\t// in\n    tag_307:\n      mload(0x40)\n      dup1\n      swap2\n      sub\n      swap1\n      log4\n        /* \"Heliocontracts/contracts/ceros/CerosRouter.sol\":8306:8313  amounts */\n      dup1\n        /* \"Heliocontracts/contracts/ceros/CerosRouter.sol\":8314:8315  1 */\n      0x01\n        /* \"Heliocontracts/contracts/ceros/CerosRouter.sol\":8306:8316  amounts[1] */\n      dup2\n      mload\n      dup2\n      lt\n      tag_308\n      jumpi\n      tag_309\n      tag_294\n      jump\t// in\n    tag_309:\n    tag_308:\n      0x20\n      mul\n      0x20\n      add\n      add\n      mload\n        /* \"Heliocontracts/contracts/ceros/CerosRouter.sol\":8299:8316  return amounts[1] */\n      swap3\n      pop\n      pop\n      pop\n        /* \"@openzeppelin/contracts-upgradeable/security/ReentrancyGuardUpgradeable.sol\":1772:1773  1 */\n      0x01\n        /* \"@openzeppelin/contracts-upgradeable/security/ReentrancyGuardUpgradeable.sol\":2872:2879  _status */\n      0x97\n        /* \"@openzeppelin/contracts-upgradeable/security/ReentrancyGuardUpgradeable.sol\":2872:2894  _status = _NOT_ENTERED */\n      dup2\n      swap1\n      sstore\n      pop\n        /* \"Heliocontracts/contracts/ceros/CerosRouter.sol\":7648:8323  function withdrawWithSlippage(... */\n      swap4\n      swap3\n      pop\n      pop\n      pop\n      jump\t// out\n        /* \"Heliocontracts/contracts/ceros/CerosRouter.sol\":8570:8736  function getPendingWithdrawalOf(address account)... */\n    tag_138:\n        /* \"Heliocontracts/contracts/ceros/CerosRouter.sol\":8654:8661  uint256 */\n      0x00\n        /* \"Heliocontracts/contracts/ceros/CerosRouter.sol\":8684:8699  _bnbStakingPool */\n      0xd1\n      0x00\n      swap1\n      sload\n      swap1\n      0x0100\n      exp\n      swap1\n      div\n      0xffffffffffffffffffffffffffffffffffffffff\n      and\n        /* \"Heliocontracts/contracts/ceros/CerosRouter.sol\":8684:8720  _bnbStakingPool.getPendingUnstakesOf */\n      0xffffffffffffffffffffffffffffffffffffffff\n      and\n      0x46faa33c\n        /* \"Heliocontracts/contracts/ceros/CerosRouter.sol\":8721:8728  account */\n      dup4\n        /* \"Heliocontracts/contracts/ceros/CerosRouter.sol\":8684:8729  _bnbStakingPool.getPendingUnstakesOf(account) */\n      mload(0x40)\n      dup3\n      0xffffffff\n      and\n      0xe0\n      shl\n      dup2\n      mstore\n      0x04\n      add\n      tag_311\n      swap2\n      swap1\n      tag_50\n      jump\t// in\n    tag_311:\n      0x20\n      mload(0x40)\n      dup1\n      dup4\n      sub\n      dup2\n      dup7\n      gas\n      staticcall\n      iszero\n      dup1\n      iszero\n      tag_313\n      jumpi\n      returndatasize\n      0x00\n      dup1\n      returndatacopy\n      revert(0x00, returndatasize)\n    tag_313:\n      pop\n      pop\n      pop\n      pop\n      mload(0x40)\n      returndatasize\n      not(0x1f)\n      0x1f\n      dup3\n      add\n      and\n      dup3\n      add\n      dup1\n      0x40\n      mstore\n      pop\n      dup2\n      add\n      swap1\n      tag_314\n      swap2\n      swap1\n      tag_185\n      jump\t// in\n    tag_314:\n        /* \"Heliocontracts/contracts/ceros/CerosRouter.sol\":8677:8729  return _bnbStakingPool.getPendingUnstakesOf(account) */\n      swap1\n      pop\n        /* \"Heliocontracts/contracts/ceros/CerosRouter.sol\":8570:8736  function getPendingWithdrawalOf(address account)... */\n      swap2\n      swap1\n      pop\n      jump\t// out\n        /* \"Heliocontracts/contracts/ceros/CerosRouter.sol\":8328:8440  function getProfitFor(address account) external view returns (uint256) {... */\n    tag_143:\n        /* \"Heliocontracts/contracts/ceros/CerosRouter.sol\":8390:8397  uint256 */\n      0x00\n        /* \"Heliocontracts/contracts/ceros/CerosRouter.sol\":8416:8424  _profits */\n      0xcf\n        /* \"Heliocontracts/contracts/ceros/CerosRouter.sol\":8416:8433  _profits[account] */\n      0x00\n        /* \"Heliocontracts/contracts/ceros/CerosRouter.sol\":8425:8432  account */\n      dup4\n        /* \"Heliocontracts/contracts/ceros/CerosRouter.sol\":8416:8433  _profits[account] */\n      0xffffffffffffffffffffffffffffffffffffffff\n      and\n      0xffffffffffffffffffffffffffffffffffffffff\n      and\n      dup2\n      mstore\n      0x20\n      add\n      swap1\n      dup2\n      mstore\n      0x20\n      add\n      0x00\n      keccak256\n      sload\n        /* \"Heliocontracts/contracts/ceros/CerosRouter.sol\":8409:8433  return _profits[account] */\n      swap1\n      pop\n        /* \"Heliocontracts/contracts/ceros/CerosRouter.sol\":8328:8440  function getProfitFor(address account) external view returns (uint256) {... */\n      swap2\n      swap1\n      pop\n      jump\t// out\n        /* \"Heliocontracts/contracts/ceros/CerosRouter.sol\":4393:4767  function depositABNBcFrom(address owner, uint256 amount)... */\n    tag_148:\n        /* \"Heliocontracts/contracts/ceros/CerosRouter.sol\":4523:4536  uint256 value */\n      0x00\n        /* \"Heliocontracts/contracts/ceros/CerosRouter.sol\":1328:1335  owner() */\n      tag_317\n        /* \"Heliocontracts/contracts/ceros/CerosRouter.sol\":1328:1333  owner */\n      tag_123\n        /* \"Heliocontracts/contracts/ceros/CerosRouter.sol\":1328:1335  owner() */\n      jump\t// in\n    tag_317:\n        /* \"Heliocontracts/contracts/ceros/CerosRouter.sol\":1314:1335  msg.sender == owner() */\n      0xffffffffffffffffffffffffffffffffffffffff\n      and\n        /* \"Heliocontracts/contracts/ceros/CerosRouter.sol\":1314:1324  msg.sender */\n      caller\n        /* \"Heliocontracts/contracts/ceros/CerosRouter.sol\":1314:1335  msg.sender == owner() */\n      0xffffffffffffffffffffffffffffffffffffffff\n      and\n      eq\n        /* \"Heliocontracts/contracts/ceros/CerosRouter.sol\":1314:1362  msg.sender == owner() || msg.sender == _provider */\n      dup1\n      tag_318\n      jumpi\n      pop\n        /* \"Heliocontracts/contracts/ceros/CerosRouter.sol\":1353:1362  _provider */\n      0xd0\n      0x00\n      swap1\n      sload\n      swap1\n      0x0100\n      exp\n      swap1\n      div\n      0xffffffffffffffffffffffffffffffffffffffff\n      and\n        /* \"Heliocontracts/contracts/ceros/CerosRouter.sol\":1339:1362  msg.sender == _provider */\n      0xffffffffffffffffffffffffffffffffffffffff\n      and\n        /* \"Heliocontracts/contracts/ceros/CerosRouter.sol\":1339:1349  msg.sender */\n      caller\n        /* \"Heliocontracts/contracts/ceros/CerosRouter.sol\":1339:1362  msg.sender == _provider */\n      0xffffffffffffffffffffffffffffffffffffffff\n      and\n      eq\n        /* \"Heliocontracts/contracts/ceros/CerosRouter.sol\":1314:1362  msg.sender == owner() || msg.sender == _provider */\n    tag_318:\n        /* \"Heliocontracts/contracts/ceros/CerosRouter.sol\":1293:1409  require(... */\n      tag_319\n      jumpi\n      mload(0x40)\n      0x08c379a000000000000000000000000000000000000000000000000000000000\n      dup2\n      mstore\n      0x04\n      add\n      tag_320\n      swap1\n      tag_321\n      jump\t// in\n    tag_320:\n      mload(0x40)\n      dup1\n      swap2\n      sub\n      swap1\n      revert\n    tag_319:\n        /* \"@openzeppelin/contracts-upgradeable/security/ReentrancyGuardUpgradeable.sol\":1815:1816  2 */\n      0x02\n        /* \"@openzeppelin/contracts-upgradeable/security/ReentrancyGuardUpgradeable.sol\":2569:2576  _status */\n      sload(0x97)\n        /* \"@openzeppelin/contracts-upgradeable/security/ReentrancyGuardUpgradeable.sol\":2569:2588  _status != _ENTERED */\n      eq\n      iszero\n        /* \"@openzeppelin/contracts-upgradeable/security/ReentrancyGuardUpgradeable.sol\":2561:2624  require(_status != _ENTERED, \"ReentrancyGuard: reentrant call\") */\n      tag_323\n      jumpi\n      mload(0x40)\n      0x08c379a000000000000000000000000000000000000000000000000000000000\n      dup2\n      mstore\n      0x04\n      add\n      tag_324\n      swap1\n      tag_178\n      jump\t// in\n    tag_324:\n      mload(0x40)\n      dup1\n      swap2\n      sub\n      swap1\n      revert\n    tag_323:\n        /* \"@openzeppelin/contracts-upgradeable/security/ReentrancyGuardUpgradeable.sol\":1815:1816  2 */\n      0x02\n        /* \"@openzeppelin/contracts-upgradeable/security/ReentrancyGuardUpgradeable.sol\":2699:2706  _status */\n      0x97\n        /* \"@openzeppelin/contracts-upgradeable/security/ReentrancyGuardUpgradeable.sol\":2699:2717  _status = _ENTERED */\n      dup2\n      swap1\n      sstore\n      pop\n        /* \"Heliocontracts/contracts/ceros/CerosRouter.sol\":4552:4617  IERC20(_certToken).safeTransferFrom(owner, address(this), amount) */\n      tag_326\n        /* \"Heliocontracts/contracts/ceros/CerosRouter.sol\":4588:4593  owner */\n      dup4\n        /* \"Heliocontracts/contracts/ceros/CerosRouter.sol\":4603:4607  this */\n      address\n        /* \"Heliocontracts/contracts/ceros/CerosRouter.sol\":4610:4616  amount */\n      dup5\n        /* \"Heliocontracts/contracts/ceros/CerosRouter.sol\":4559:4569  _certToken */\n      0xcc\n      0x00\n      swap1\n      sload\n      swap1\n      0x0100\n      exp\n      swap1\n      div\n      0xffffffffffffffffffffffffffffffffffffffff\n      and\n        /* \"Heliocontracts/contracts/ceros/CerosRouter.sol\":4552:4587  IERC20(_certToken).safeTransferFrom */\n      0xffffffffffffffffffffffffffffffffffffffff\n      and\n      tag_327\n      swap1\n        /* \"Heliocontracts/contracts/ceros/CerosRouter.sol\":4552:4617  IERC20(_certToken).safeTransferFrom(owner, address(this), amount) */\n      swap4\n      swap3\n      swap2\n      swap1\n      0xffffffff\n      and\n      jump\t// in\n    tag_326:\n        /* \"Heliocontracts/contracts/ceros/CerosRouter.sol\":4635:4641  _vault */\n      0xc9\n      0x00\n      swap1\n      sload\n      swap1\n      0x0100\n      exp\n      swap1\n      div\n      0xffffffffffffffffffffffffffffffffffffffff\n      and\n        /* \"Heliocontracts/contracts/ceros/CerosRouter.sol\":4635:4652  _vault.depositFor */\n      0xffffffffffffffffffffffffffffffffffffffff\n      and\n      0x2f4f21e2\n        /* \"Heliocontracts/contracts/ceros/CerosRouter.sol\":4653:4663  msg.sender */\n      caller\n        /* \"Heliocontracts/contracts/ceros/CerosRouter.sol\":4665:4671  amount */\n      dup5\n        /* \"Heliocontracts/contracts/ceros/CerosRouter.sol\":4635:4672  _vault.depositFor(msg.sender, amount) */\n      mload(0x40)\n      dup4\n      0xffffffff\n      and\n      0xe0\n      shl\n      dup2\n      mstore\n      0x04\n      add\n      tag_328\n      swap3\n      swap2\n      swap1\n      tag_329\n      jump\t// in\n    tag_328:\n      0x20\n      mload(0x40)\n      dup1\n      dup4\n      sub\n      dup2\n      0x00\n      dup8\n      gas\n      call\n      iszero\n      dup1\n      iszero\n      tag_331\n      jumpi\n      returndatasize\n      0x00\n      dup1\n      returndatacopy\n      revert(0x00, returndatasize)\n    tag_331:\n      pop\n      pop\n      pop\n      pop\n      mload(0x40)\n      returndatasize\n      not(0x1f)\n      0x1f\n      dup3\n      add\n      and\n      dup3\n      add\n      dup1\n      0x40\n      mstore\n      pop\n      dup2\n      add\n      swap1\n      tag_332\n      swap2\n      swap1\n      tag_185\n      jump\t// in\n    tag_332:\n        /* \"Heliocontracts/contracts/ceros/CerosRouter.sol\":4627:4672  value = _vault.depositFor(msg.sender, amount) */\n      swap1\n      pop\n        /* \"Heliocontracts/contracts/ceros/CerosRouter.sol\":4715:4725  _certToken */\n      0xcc\n      0x00\n      swap1\n      sload\n      swap1\n      0x0100\n      exp\n      swap1\n      div\n      0xffffffffffffffffffffffffffffffffffffffff\n      and\n        /* \"Heliocontracts/contracts/ceros/CerosRouter.sol\":4687:4738  Deposit(msg.sender, address(_certToken), amount, 0) */\n      0xffffffffffffffffffffffffffffffffffffffff\n      and\n        /* \"Heliocontracts/contracts/ceros/CerosRouter.sol\":4695:4705  msg.sender */\n      caller\n        /* \"Heliocontracts/contracts/ceros/CerosRouter.sol\":4687:4738  Deposit(msg.sender, address(_certToken), amount, 0) */\n      0xffffffffffffffffffffffffffffffffffffffff\n      and\n      0xdcbc1c05240f31ff3ad067ef1ee35ce4997762752e3a095284754544f4c709d7\n        /* \"Heliocontracts/contracts/ceros/CerosRouter.sol\":4728:4734  amount */\n      dup5\n        /* \"Heliocontracts/contracts/ceros/CerosRouter.sol\":4736:4737  0 */\n      0x00\n        /* \"Heliocontracts/contracts/ceros/CerosRouter.sol\":4687:4738  Deposit(msg.sender, address(_certToken), amount, 0) */\n      mload(0x40)\n      tag_333\n      swap3\n      swap2\n      swap1\n      tag_334\n      jump\t// in\n    tag_333:\n      mload(0x40)\n      dup1\n      swap2\n      sub\n      swap1\n      log3\n        /* \"@openzeppelin/contracts-upgradeable/security/ReentrancyGuardUpgradeable.sol\":1772:1773  1 */\n      0x01\n        /* \"@openzeppelin/contracts-upgradeable/security/ReentrancyGuardUpgradeable.sol\":2872:2879  _status */\n      0x97\n        /* \"@openzeppelin/contracts-upgradeable/security/ReentrancyGuardUpgradeable.sol\":2872:2894  _status = _NOT_ENTERED */\n      dup2\n      swap1\n      sstore\n      pop\n        /* \"Heliocontracts/contracts/ceros/CerosRouter.sol\":4393:4767  function depositABNBcFrom(address owner, uint256 amount)... */\n      swap3\n      swap2\n      pop\n      pop\n      jump\t// out\n        /* \"Heliocontracts/contracts/ceros/CerosRouter.sol\":5512:6014  function claimProfit(address recipient) external nonReentrant {... */\n    tag_153:\n        /* \"@openzeppelin/contracts-upgradeable/security/ReentrancyGuardUpgradeable.sol\":1815:1816  2 */\n      0x02\n        /* \"@openzeppelin/contracts-upgradeable/security/ReentrancyGuardUpgradeable.sol\":2569:2576  _status */\n      sload(0x97)\n        /* \"@openzeppelin/contracts-upgradeable/security/ReentrancyGuardUpgradeable.sol\":2569:2588  _status != _ENTERED */\n      eq\n      iszero\n        /* \"@openzeppelin/contracts-upgradeable/security/ReentrancyGuardUpgradeable.sol\":2561:2624  require(_status != _ENTERED, \"ReentrancyGuard: reentrant call\") */\n      tag_336\n      jumpi\n      mload(0x40)\n      0x08c379a000000000000000000000000000000000000000000000000000000000\n      dup2\n      mstore\n      0x04\n      add\n      tag_337\n      swap1\n      tag_178\n      jump\t// in\n    tag_337:\n      mload(0x40)\n      dup1\n      swap2\n      sub\n      swap1\n      revert\n    tag_336:\n        /* \"@openzeppelin/contracts-upgradeable/security/ReentrancyGuardUpgradeable.sol\":1815:1816  2 */\n      0x02\n        /* \"@openzeppelin/contracts-upgradeable/security/ReentrancyGuardUpgradeable.sol\":2699:2706  _status */\n      0x97\n        /* \"@openzeppelin/contracts-upgradeable/security/ReentrancyGuardUpgradeable.sol\":2699:2717  _status = _ENTERED */\n      dup2\n      swap1\n      sstore\n      pop\n        /* \"Heliocontracts/contracts/ceros/CerosRouter.sol\":5584:5598  uint256 profit */\n      0x00\n        /* \"Heliocontracts/contracts/ceros/CerosRouter.sol\":5601:5609  _profits */\n      0xcf\n        /* \"Heliocontracts/contracts/ceros/CerosRouter.sol\":5601:5621  _profits[msg.sender] */\n      0x00\n        /* \"Heliocontracts/contracts/ceros/CerosRouter.sol\":5610:5620  msg.sender */\n      caller\n        /* \"Heliocontracts/contracts/ceros/CerosRouter.sol\":5601:5621  _profits[msg.sender] */\n      0xffffffffffffffffffffffffffffffffffffffff\n      and\n      0xffffffffffffffffffffffffffffffffffffffff\n      and\n      dup2\n      mstore\n      0x20\n      add\n      swap1\n      dup2\n      mstore\n      0x20\n      add\n      0x00\n      keccak256\n      sload\n        /* \"Heliocontracts/contracts/ceros/CerosRouter.sol\":5584:5621  uint256 profit = _profits[msg.sender] */\n      swap1\n      pop\n        /* \"Heliocontracts/contracts/ceros/CerosRouter.sol\":5648:5649  0 */\n      0x00\n        /* \"Heliocontracts/contracts/ceros/CerosRouter.sol\":5639:5645  profit */\n      dup2\n        /* \"Heliocontracts/contracts/ceros/CerosRouter.sol\":5639:5649  profit > 0 */\n      gt\n        /* \"Heliocontracts/contracts/ceros/CerosRouter.sol\":5631:5674  require(profit > 0, \"has not got a profit\") */\n      tag_339\n      jumpi\n      mload(0x40)\n      0x08c379a000000000000000000000000000000000000000000000000000000000\n      dup2\n      mstore\n      0x04\n      add\n      tag_340\n      swap1\n      tag_341\n      jump\t// in\n    tag_340:\n      mload(0x40)\n      dup1\n      swap2\n      sub\n      swap1\n      revert\n    tag_339:\n        /* \"Heliocontracts/contracts/ceros/CerosRouter.sol\":5796:5802  profit */\n      dup1\n        /* \"Heliocontracts/contracts/ceros/CerosRouter.sol\":5757:5767  _certToken */\n      0xcc\n      0x00\n      swap1\n      sload\n      swap1\n      0x0100\n      exp\n      swap1\n      div\n      0xffffffffffffffffffffffffffffffffffffffff\n      and\n        /* \"Heliocontracts/contracts/ceros/CerosRouter.sol\":5757:5777  _certToken.balanceOf */\n      0xffffffffffffffffffffffffffffffffffffffff\n      and\n      0x70a08231\n        /* \"Heliocontracts/contracts/ceros/CerosRouter.sol\":5786:5790  this */\n      address\n        /* \"Heliocontracts/contracts/ceros/CerosRouter.sol\":5757:5792  _certToken.balanceOf(address(this)) */\n      mload(0x40)\n      dup3\n      0xffffffff\n      and\n      0xe0\n      shl\n      dup2\n      mstore\n      0x04\n      add\n      tag_342\n      swap2\n      swap1\n      tag_50\n      jump\t// in\n    tag_342:\n      0x20\n      mload(0x40)\n      dup1\n      dup4\n      sub\n      dup2\n      dup7\n      gas\n      staticcall\n      iszero\n      dup1\n      iszero\n      tag_344\n      jumpi\n      returndatasize\n      0x00\n      dup1\n      returndatacopy\n      revert(0x00, returndatasize)\n    tag_344:\n      pop\n      pop\n      pop\n      pop\n      mload(0x40)\n      returndatasize\n      not(0x1f)\n      0x1f\n      dup3\n      add\n      and\n      dup3\n      add\n      dup1\n      0x40\n      mstore\n      pop\n      dup2\n      add\n      swap1\n      tag_345\n      swap2\n      swap1\n      tag_185\n      jump\t// in\n    tag_345:\n        /* \"Heliocontracts/contracts/ceros/CerosRouter.sol\":5757:5802  _certToken.balanceOf(address(this)) >= profit */\n      lt\n      iszero\n        /* \"Heliocontracts/contracts/ceros/CerosRouter.sol\":5736:5847  require(... */\n      tag_346\n      jumpi\n      mload(0x40)\n      0x08c379a000000000000000000000000000000000000000000000000000000000\n      dup2\n      mstore\n      0x04\n      add\n      tag_347\n      swap1\n      tag_348\n      jump\t// in\n    tag_347:\n      mload(0x40)\n      dup1\n      swap2\n      sub\n      swap1\n      revert\n    tag_346:\n        /* \"Heliocontracts/contracts/ceros/CerosRouter.sol\":5857:5907  IERC20(_certToken).safeTransfer(recipient, profit) */\n      tag_349\n        /* \"Heliocontracts/contracts/ceros/CerosRouter.sol\":5889:5898  recipient */\n      dup3\n        /* \"Heliocontracts/contracts/ceros/CerosRouter.sol\":5900:5906  profit */\n      dup3\n        /* \"Heliocontracts/contracts/ceros/CerosRouter.sol\":5864:5874  _certToken */\n      0xcc\n      0x00\n      swap1\n      sload\n      swap1\n      0x0100\n      exp\n      swap1\n      div\n      0xffffffffffffffffffffffffffffffffffffffff\n      and\n        /* \"Heliocontracts/contracts/ceros/CerosRouter.sol\":5857:5888  IERC20(_certToken).safeTransfer */\n      0xffffffffffffffffffffffffffffffffffffffff\n      and\n      tag_350\n      swap1\n        /* \"Heliocontracts/contracts/ceros/CerosRouter.sol\":5857:5907  IERC20(_certToken).safeTransfer(recipient, profit) */\n      swap3\n      swap2\n      swap1\n      0xffffffff\n      and\n      jump\t// in\n    tag_349:\n        /* \"Heliocontracts/contracts/ceros/CerosRouter.sol\":5941:5947  profit */\n      dup1\n        /* \"Heliocontracts/contracts/ceros/CerosRouter.sol\":5917:5925  _profits */\n      0xcf\n        /* \"Heliocontracts/contracts/ceros/CerosRouter.sol\":5917:5937  _profits[msg.sender] */\n      0x00\n        /* \"Heliocontracts/contracts/ceros/CerosRouter.sol\":5926:5936  msg.sender */\n      caller\n        /* \"Heliocontracts/contracts/ceros/CerosRouter.sol\":5917:5937  _profits[msg.sender] */\n      0xffffffffffffffffffffffffffffffffffffffff\n      and\n      0xffffffffffffffffffffffffffffffffffffffff\n      and\n      dup2\n      mstore\n      0x20\n      add\n      swap1\n      dup2\n      mstore\n      0x20\n      add\n      0x00\n      keccak256\n      0x00\n        /* \"Heliocontracts/contracts/ceros/CerosRouter.sol\":5917:5947  _profits[msg.sender] -= profit */\n      dup3\n      dup3\n      sload\n      tag_351\n      swap2\n      swap1\n      tag_352\n      jump\t// in\n    tag_351:\n      swap3\n      pop\n      pop\n      dup2\n      swap1\n      sstore\n      pop\n        /* \"Heliocontracts/contracts/ceros/CerosRouter.sol\":5987:5997  _certToken */\n      0xcc\n      0x00\n      swap1\n      sload\n      swap1\n      0x0100\n      exp\n      swap1\n      div\n      0xffffffffffffffffffffffffffffffffffffffff\n      and\n        /* \"Heliocontracts/contracts/ceros/CerosRouter.sol\":5962:6007  Claim(recipient, address(_certToken), profit) */\n      0xffffffffffffffffffffffffffffffffffffffff\n      and\n        /* \"Heliocontracts/contracts/ceros/CerosRouter.sol\":5968:5977  recipient */\n      dup3\n        /* \"Heliocontracts/contracts/ceros/CerosRouter.sol\":5962:6007  Claim(recipient, address(_certToken), profit) */\n      0xffffffffffffffffffffffffffffffffffffffff\n      and\n      0x70eb43c4a8ae8c40502dcf22436c509c28d6ff421cf07c491be56984bd987068\n        /* \"Heliocontracts/contracts/ceros/CerosRouter.sol\":6000:6006  profit */\n      dup4\n        /* \"Heliocontracts/contracts/ceros/CerosRouter.sol\":5962:6007  Claim(recipient, address(_certToken), profit) */\n      mload(0x40)\n      tag_353\n      swap2\n      swap1\n      tag_45\n      jump\t// in\n    tag_353:\n      mload(0x40)\n      dup1\n      swap2\n      sub\n      swap1\n      log3\n        /* \"Heliocontracts/contracts/ceros/CerosRouter.sol\":5574:6014  {... */\n      pop\n        /* \"@openzeppelin/contracts-upgradeable/security/ReentrancyGuardUpgradeable.sol\":1772:1773  1 */\n      0x01\n        /* \"@openzeppelin/contracts-upgradeable/security/ReentrancyGuardUpgradeable.sol\":2872:2879  _status */\n      0x97\n        /* \"@openzeppelin/contracts-upgradeable/security/ReentrancyGuardUpgradeable.sol\":2872:2894  _status = _NOT_ENTERED */\n      dup2\n      swap1\n      sstore\n      pop\n        /* \"Heliocontracts/contracts/ceros/CerosRouter.sol\":5512:6014  function claimProfit(address recipient) external nonReentrant {... */\n      pop\n      jump\t// out\n        /* \"Heliocontracts/contracts/ceros/CerosRouter.sol\":2339:4388  function deposit()... */\n    tag_155:\n        /* \"Heliocontracts/contracts/ceros/CerosRouter.sol\":2443:2456  uint256 value */\n      0x00\n        /* \"Heliocontracts/contracts/ceros/CerosRouter.sol\":1328:1335  owner() */\n      tag_355\n        /* \"Heliocontracts/contracts/ceros/CerosRouter.sol\":1328:1333  owner */\n      tag_123\n        /* \"Heliocontracts/contracts/ceros/CerosRouter.sol\":1328:1335  owner() */\n      jump\t// in\n    tag_355:\n        /* \"Heliocontracts/contracts/ceros/CerosRouter.sol\":1314:1335  msg.sender == owner() */\n      0xffffffffffffffffffffffffffffffffffffffff\n      and\n        /* \"Heliocontracts/contracts/ceros/CerosRouter.sol\":1314:1324  msg.sender */\n      caller\n        /* \"Heliocontracts/contracts/ceros/CerosRouter.sol\":1314:1335  msg.sender == owner() */\n      0xffffffffffffffffffffffffffffffffffffffff\n      and\n      eq\n        /* \"Heliocontracts/contracts/ceros/CerosRouter.sol\":1314:1362  msg.sender == owner() || msg.sender == _provider */\n      dup1\n      tag_356\n      jumpi\n      pop\n        /* \"Heliocontracts/contracts/ceros/CerosRouter.sol\":1353:1362  _provider */\n      0xd0\n      0x00\n      swap1\n      sload\n      swap1\n      0x0100\n      exp\n      swap1\n      div\n      0xffffffffffffffffffffffffffffffffffffffff\n      and\n        /* \"Heliocontracts/contracts/ceros/CerosRouter.sol\":1339:1362  msg.sender == _provider */\n      0xffffffffffffffffffffffffffffffffffffffff\n      and\n        /* \"Heliocontracts/contracts/ceros/CerosRouter.sol\":1339:1349  msg.sender */\n      caller\n        /* \"Heliocontracts/contracts/ceros/CerosRouter.sol\":1339:1362  msg.sender == _provider */\n      0xffffffffffffffffffffffffffffffffffffffff\n      and\n      eq\n        /* \"Heliocontracts/contracts/ceros/CerosRouter.sol\":1314:1362  msg.sender == owner() || msg.sender == _provider */\n    tag_356:\n        /* \"Heliocontracts/contracts/ceros/CerosRouter.sol\":1293:1409  require(... */\n      tag_357\n      jumpi\n      mload(0x40)\n      0x08c379a000000000000000000000000000000000000000000000000000000000\n      dup2\n      mstore\n      0x04\n      add\n      tag_358\n      swap1\n      tag_321\n      jump\t// in\n    tag_358:\n      mload(0x40)\n      dup1\n      swap2\n      sub\n      swap1\n      revert\n    tag_357:\n        /* \"@openzeppelin/contracts-upgradeable/security/ReentrancyGuardUpgradeable.sol\":1815:1816  2 */\n      0x02\n        /* \"@openzeppelin/contracts-upgradeable/security/ReentrancyGuardUpgradeable.sol\":2569:2576  _status */\n      sload(0x97)\n        /* \"@openzeppelin/contracts-upgradeable/security/ReentrancyGuardUpgradeable.sol\":2569:2588  _status != _ENTERED */\n      eq\n      iszero\n        /* \"@openzeppelin/contracts-upgradeable/security/ReentrancyGuardUpgradeable.sol\":2561:2624  require(_status != _ENTERED, \"ReentrancyGuard: reentrant call\") */\n      tag_360\n      jumpi\n      mload(0x40)\n      0x08c379a000000000000000000000000000000000000000000000000000000000\n      dup2\n      mstore\n      0x04\n      add\n      tag_361\n      swap1\n      tag_178\n      jump\t// in\n    tag_361:\n      mload(0x40)\n      dup1\n      swap2\n      sub\n      swap1\n      revert\n    tag_360:\n        /* \"@openzeppelin/contracts-upgradeable/security/ReentrancyGuardUpgradeable.sol\":1815:1816  2 */\n      0x02\n        /* \"@openzeppelin/contracts-upgradeable/security/ReentrancyGuardUpgradeable.sol\":2699:2706  _status */\n      0x97\n        /* \"@openzeppelin/contracts-upgradeable/security/ReentrancyGuardUpgradeable.sol\":2699:2717  _status = _ENTERED */\n      dup2\n      swap1\n      sstore\n      pop\n        /* \"Heliocontracts/contracts/ceros/CerosRouter.sol\":2472:2486  uint256 amount */\n      0x00\n        /* \"Heliocontracts/contracts/ceros/CerosRouter.sol\":2489:2498  msg.value */\n      callvalue\n        /* \"Heliocontracts/contracts/ceros/CerosRouter.sol\":2472:2498  uint256 amount = msg.value */\n      swap1\n      pop\n        /* \"Heliocontracts/contracts/ceros/CerosRouter.sol\":2968:2988  uint256 minimumStake */\n      0x00\n        /* \"Heliocontracts/contracts/ceros/CerosRouter.sol\":2991:3006  _bnbStakingPool */\n      0xd1\n      0x00\n      swap1\n      sload\n      swap1\n      0x0100\n      exp\n      swap1\n      div\n      0xffffffffffffffffffffffffffffffffffffffff\n      and\n        /* \"Heliocontracts/contracts/ceros/CerosRouter.sol\":2991:3018  _bnbStakingPool.getMinStake */\n      0xffffffffffffffffffffffffffffffffffffffff\n      and\n      0x56a3b5fa\n        /* \"Heliocontracts/contracts/ceros/CerosRouter.sol\":2991:3020  _bnbStakingPool.getMinStake() */\n      mload(0x40)\n      dup2\n      0xffffffff\n      and\n      0xe0\n      shl\n      dup2\n      mstore\n      0x04\n      add\n      0x20\n      mload(0x40)\n      dup1\n      dup4\n      sub\n      dup2\n      dup7\n      gas\n      staticcall\n      iszero\n      dup1\n      iszero\n      tag_364\n      jumpi\n      returndatasize\n      0x00\n      dup1\n      returndatacopy\n      revert(0x00, returndatasize)\n    tag_364:\n      pop\n      pop\n      pop\n      pop\n      mload(0x40)\n      returndatasize\n      not(0x1f)\n      0x1f\n      dup3\n      add\n      and\n      dup3\n      add\n      dup1\n      0x40\n      mstore\n      pop\n      dup2\n      add\n      swap1\n      tag_365\n      swap2\n      swap1\n      tag_185\n      jump\t// in\n    tag_365:\n        /* \"Heliocontracts/contracts/ceros/CerosRouter.sol\":2968:3020  uint256 minimumStake = _bnbStakingPool.getMinStake() */\n      swap1\n      pop\n        /* \"Heliocontracts/contracts/ceros/CerosRouter.sol\":3030:3044  uint256 shares */\n      0x00\n        /* \"Heliocontracts/contracts/ceros/CerosRouter.sol\":3068:3080  minimumStake */\n      dup2\n        /* \"Heliocontracts/contracts/ceros/CerosRouter.sol\":3058:3064  amount */\n      dup4\n        /* \"Heliocontracts/contracts/ceros/CerosRouter.sol\":3058:3080  amount >= minimumStake */\n      lt\n        /* \"Heliocontracts/contracts/ceros/CerosRouter.sol\":3054:3148  if (amount >= minimumStake) {... */\n      tag_366\n      jumpi\n        /* \"Heliocontracts/contracts/ceros/CerosRouter.sol\":3105:3115  _certToken */\n      0xcc\n      0x00\n      swap1\n      sload\n      swap1\n      0x0100\n      exp\n      swap1\n      div\n      0xffffffffffffffffffffffffffffffffffffffff\n      and\n        /* \"Heliocontracts/contracts/ceros/CerosRouter.sol\":3105:3129  _certToken.bondsToShares */\n      0xffffffffffffffffffffffffffffffffffffffff\n      and\n      0x53616373\n        /* \"Heliocontracts/contracts/ceros/CerosRouter.sol\":3130:3136  amount */\n      dup5\n        /* \"Heliocontracts/contracts/ceros/CerosRouter.sol\":3105:3137  _certToken.bondsToShares(amount) */\n      mload(0x40)\n      dup3\n      0xffffffff\n      and\n      0xe0\n      shl\n      dup2\n      mstore\n      0x04\n      add\n      tag_367\n      swap2\n      swap1\n      tag_45\n      jump\t// in\n    tag_367:\n      0x20\n      mload(0x40)\n      dup1\n      dup4\n      sub\n      dup2\n      dup7\n      gas\n      staticcall\n      iszero\n      dup1\n      iszero\n      tag_369\n      jumpi\n      returndatasize\n      0x00\n      dup1\n      returndatacopy\n      revert(0x00, returndatasize)\n    tag_369:\n      pop\n      pop\n      pop\n      pop\n      mload(0x40)\n      returndatasize\n      not(0x1f)\n      0x1f\n      dup3\n      add\n      and\n      dup3\n      add\n      dup1\n      0x40\n      mstore\n      pop\n      dup2\n      add\n      swap1\n      tag_370\n      swap2\n      swap1\n      tag_185\n      jump\t// in\n    tag_370:\n        /* \"Heliocontracts/contracts/ceros/CerosRouter.sol\":3096:3137  shares = _certToken.bondsToShares(amount) */\n      swap1\n      pop\n        /* \"Heliocontracts/contracts/ceros/CerosRouter.sol\":3054:3148  if (amount >= minimumStake) {... */\n    tag_366:\n        /* \"Heliocontracts/contracts/ceros/CerosRouter.sol\":3325:3343  uint256 realAmount */\n      0x00\n        /* \"Heliocontracts/contracts/ceros/CerosRouter.sol\":3353:3367  uint256 profit */\n      dup1\n        /* \"Heliocontracts/contracts/ceros/CerosRouter.sol\":3391:3392  0 */\n      0x00\n        /* \"Heliocontracts/contracts/ceros/CerosRouter.sol\":3381:3387  shares */\n      dup4\n        /* \"Heliocontracts/contracts/ceros/CerosRouter.sol\":3381:3392  shares >= 0 */\n      lt\n        /* \"Heliocontracts/contracts/ceros/CerosRouter.sol\":3377:3919  if (shares >= 0) {... */\n      tag_371\n      jumpi\n        /* \"Heliocontracts/contracts/ceros/CerosRouter.sol\":3421:3427  shares */\n      dup3\n        /* \"Heliocontracts/contracts/ceros/CerosRouter.sol\":3408:3427  realAmount = shares */\n      swap2\n      pop\n        /* \"Heliocontracts/contracts/ceros/CerosRouter.sol\":3441:3456  _bnbStakingPool */\n      0xd1\n      0x00\n      swap1\n      sload\n      swap1\n      0x0100\n      exp\n      swap1\n      div\n      0xffffffffffffffffffffffffffffffffffffffff\n      and\n        /* \"Heliocontracts/contracts/ceros/CerosRouter.sol\":3441:3467  _bnbStakingPool.stakeCerts */\n      0xffffffffffffffffffffffffffffffffffffffff\n      and\n      0xac76d450\n        /* \"Heliocontracts/contracts/ceros/CerosRouter.sol\":3475:3481  amount */\n      dup7\n        /* \"Heliocontracts/contracts/ceros/CerosRouter.sol\":3441:3484  _bnbStakingPool.stakeCerts{value: amount}() */\n      mload(0x40)\n      dup3\n      0xffffffff\n      and\n      0xe0\n      shl\n      dup2\n      mstore\n      0x04\n      add\n      0x00\n      mload(0x40)\n      dup1\n      dup4\n      sub\n      dup2\n      dup6\n      dup9\n      dup1\n      extcodesize\n      iszero\n      dup1\n      iszero\n      tag_372\n      jumpi\n      0x00\n      dup1\n      revert\n    tag_372:\n      pop\n      gas\n      call\n      iszero\n      dup1\n      iszero\n      tag_374\n      jumpi\n      returndatasize\n      0x00\n      dup1\n      returndatacopy\n      revert(0x00, returndatasize)\n    tag_374:\n      pop\n      pop\n      pop\n      pop\n      pop\n        /* \"Heliocontracts/contracts/ceros/CerosRouter.sol\":3377:3919  if (shares >= 0) {... */\n      jump(tag_375)\n    tag_371:\n        /* \"Heliocontracts/contracts/ceros/CerosRouter.sol\":3515:3537  revert(\"DEX DISABLED\") */\n      mload(0x40)\n      0x08c379a000000000000000000000000000000000000000000000000000000000\n      dup2\n      mstore\n      0x04\n      add\n      tag_376\n      swap1\n      tag_377\n      jump\t// in\n    tag_376:\n      mload(0x40)\n      dup1\n      swap2\n      sub\n      swap1\n      revert\n        /* \"Heliocontracts/contracts/ceros/CerosRouter.sol\":3377:3919  if (shares >= 0) {... */\n    tag_375:\n        /* \"Heliocontracts/contracts/ceros/CerosRouter.sol\":4040:4050  realAmount */\n      dup2\n        /* \"Heliocontracts/contracts/ceros/CerosRouter.sol\":4001:4011  _certToken */\n      0xcc\n      0x00\n      swap1\n      sload\n      swap1\n      0x0100\n      exp\n      swap1\n      div\n      0xffffffffffffffffffffffffffffffffffffffff\n      and\n        /* \"Heliocontracts/contracts/ceros/CerosRouter.sol\":4001:4021  _certToken.balanceOf */\n      0xffffffffffffffffffffffffffffffffffffffff\n      and\n      0x70a08231\n        /* \"Heliocontracts/contracts/ceros/CerosRouter.sol\":4030:4034  this */\n      address\n        /* \"Heliocontracts/contracts/ceros/CerosRouter.sol\":4001:4036  _certToken.balanceOf(address(this)) */\n      mload(0x40)\n      dup3\n      0xffffffff\n      and\n      0xe0\n      shl\n      dup2\n      mstore\n      0x04\n      add\n      tag_378\n      swap2\n      swap1\n      tag_50\n      jump\t// in\n    tag_378:\n      0x20\n      mload(0x40)\n      dup1\n      dup4\n      sub\n      dup2\n      dup7\n      gas\n      staticcall\n      iszero\n      dup1\n      iszero\n      tag_380\n      jumpi\n      returndatasize\n      0x00\n      dup1\n      returndatacopy\n      revert(0x00, returndatasize)\n    tag_380:\n      pop\n      pop\n      pop\n      pop\n      mload(0x40)\n      returndatasize\n      not(0x1f)\n      0x1f\n      dup3\n      add\n      and\n      dup3\n      add\n      dup1\n      0x40\n      mstore\n      pop\n      dup2\n      add\n      swap1\n      tag_381\n      swap2\n      swap1\n      tag_185\n      jump\t// in\n    tag_381:\n        /* \"Heliocontracts/contracts/ceros/CerosRouter.sol\":4001:4050  _certToken.balanceOf(address(this)) >= realAmount */\n      lt\n      iszero\n        /* \"Heliocontracts/contracts/ceros/CerosRouter.sol\":3980:4124  require(... */\n      tag_382\n      jumpi\n      mload(0x40)\n      0x08c379a000000000000000000000000000000000000000000000000000000000\n      dup2\n      mstore\n      0x04\n      add\n      tag_383\n      swap1\n      tag_384\n      jump\t// in\n    tag_383:\n      mload(0x40)\n      dup1\n      swap2\n      sub\n      swap1\n      revert\n    tag_382:\n        /* \"Heliocontracts/contracts/ceros/CerosRouter.sol\":4208:4214  profit */\n      dup1\n        /* \"Heliocontracts/contracts/ceros/CerosRouter.sol\":4184:4192  _profits */\n      0xcf\n        /* \"Heliocontracts/contracts/ceros/CerosRouter.sol\":4184:4204  _profits[msg.sender] */\n      0x00\n        /* \"Heliocontracts/contracts/ceros/CerosRouter.sol\":4193:4203  msg.sender */\n      caller\n        /* \"Heliocontracts/contracts/ceros/CerosRouter.sol\":4184:4204  _profits[msg.sender] */\n      0xffffffffffffffffffffffffffffffffffffffff\n      and\n      0xffffffffffffffffffffffffffffffffffffffff\n      and\n      dup2\n      mstore\n      0x20\n      add\n      swap1\n      dup2\n      mstore\n      0x20\n      add\n      0x00\n      keccak256\n      0x00\n        /* \"Heliocontracts/contracts/ceros/CerosRouter.sol\":4184:4214  _profits[msg.sender] += profit */\n      dup3\n      dup3\n      sload\n      tag_385\n      swap2\n      swap1\n      tag_298\n      jump\t// in\n    tag_385:\n      swap3\n      pop\n      pop\n      dup2\n      swap1\n      sstore\n      pop\n        /* \"Heliocontracts/contracts/ceros/CerosRouter.sol\":4232:4238  _vault */\n      0xc9\n      0x00\n      swap1\n      sload\n      swap1\n      0x0100\n      exp\n      swap1\n      div\n      0xffffffffffffffffffffffffffffffffffffffff\n      and\n        /* \"Heliocontracts/contracts/ceros/CerosRouter.sol\":4232:4249  _vault.depositFor */\n      0xffffffffffffffffffffffffffffffffffffffff\n      and\n      0x2f4f21e2\n        /* \"Heliocontracts/contracts/ceros/CerosRouter.sol\":4250:4260  msg.sender */\n      caller\n        /* \"Heliocontracts/contracts/ceros/CerosRouter.sol\":4275:4281  profit */\n      dup4\n        /* \"Heliocontracts/contracts/ceros/CerosRouter.sol\":4262:4272  realAmount */\n      dup6\n        /* \"Heliocontracts/contracts/ceros/CerosRouter.sol\":4262:4281  realAmount - profit */\n      tag_386\n      swap2\n      swap1\n      tag_352\n      jump\t// in\n    tag_386:\n        /* \"Heliocontracts/contracts/ceros/CerosRouter.sol\":4232:4282  _vault.depositFor(msg.sender, realAmount - profit) */\n      mload(0x40)\n      dup4\n      0xffffffff\n      and\n      0xe0\n      shl\n      dup2\n      mstore\n      0x04\n      add\n      tag_387\n      swap3\n      swap2\n      swap1\n      tag_329\n      jump\t// in\n    tag_387:\n      0x20\n      mload(0x40)\n      dup1\n      dup4\n      sub\n      dup2\n      0x00\n      dup8\n      gas\n      call\n      iszero\n      dup1\n      iszero\n      tag_389\n      jumpi\n      returndatasize\n      0x00\n      dup1\n      returndatacopy\n      revert(0x00, returndatasize)\n    tag_389:\n      pop\n      pop\n      pop\n      pop\n      mload(0x40)\n      returndatasize\n      not(0x1f)\n      0x1f\n      dup3\n      add\n      and\n      dup3\n      add\n      dup1\n      0x40\n      mstore\n      pop\n      dup2\n      add\n      swap1\n      tag_390\n      swap2\n      swap1\n      tag_185\n      jump\t// in\n    tag_390:\n        /* \"Heliocontracts/contracts/ceros/CerosRouter.sol\":4224:4282  value = _vault.depositFor(msg.sender, realAmount - profit) */\n      swap6\n      pop\n        /* \"Heliocontracts/contracts/ceros/CerosRouter.sol\":4317:4329  _wBnbAddress */\n      0xcd\n      0x00\n      swap1\n      sload\n      swap1\n      0x0100\n      exp\n      swap1\n      div\n      0xffffffffffffffffffffffffffffffffffffffff\n      and\n        /* \"Heliocontracts/contracts/ceros/CerosRouter.sol\":4297:4359  Deposit(msg.sender, _wBnbAddress, realAmount - profit, profit) */\n      0xffffffffffffffffffffffffffffffffffffffff\n      and\n        /* \"Heliocontracts/contracts/ceros/CerosRouter.sol\":4305:4315  msg.sender */\n      caller\n        /* \"Heliocontracts/contracts/ceros/CerosRouter.sol\":4297:4359  Deposit(msg.sender, _wBnbAddress, realAmount - profit, profit) */\n      0xffffffffffffffffffffffffffffffffffffffff\n      and\n      0xdcbc1c05240f31ff3ad067ef1ee35ce4997762752e3a095284754544f4c709d7\n        /* \"Heliocontracts/contracts/ceros/CerosRouter.sol\":4344:4350  profit */\n      dup4\n        /* \"Heliocontracts/contracts/ceros/CerosRouter.sol\":4331:4341  realAmount */\n      dup6\n        /* \"Heliocontracts/contracts/ceros/CerosRouter.sol\":4331:4350  realAmount - profit */\n      tag_391\n      swap2\n      swap1\n      tag_352\n      jump\t// in\n    tag_391:\n        /* \"Heliocontracts/contracts/ceros/CerosRouter.sol\":4352:4358  profit */\n      dup5\n        /* \"Heliocontracts/contracts/ceros/CerosRouter.sol\":4297:4359  Deposit(msg.sender, _wBnbAddress, realAmount - profit, profit) */\n      mload(0x40)\n      tag_392\n      swap3\n      swap2\n      swap1\n      tag_393\n      jump\t// in\n    tag_392:\n      mload(0x40)\n      dup1\n      swap2\n      sub\n      swap1\n      log3\n        /* \"Heliocontracts/contracts/ceros/CerosRouter.sol\":4369:4381  return value */\n      pop\n      pop\n      pop\n      pop\n      pop\n        /* \"@openzeppelin/contracts-upgradeable/security/ReentrancyGuardUpgradeable.sol\":1772:1773  1 */\n      0x01\n        /* \"@openzeppelin/contracts-upgradeable/security/ReentrancyGuardUpgradeable.sol\":2872:2879  _status */\n      0x97\n        /* \"@openzeppelin/contracts-upgradeable/security/ReentrancyGuardUpgradeable.sol\":2872:2894  _status = _NOT_ENTERED */\n      dup2\n      swap1\n      sstore\n      pop\n        /* \"Heliocontracts/contracts/ceros/CerosRouter.sol\":2339:4388  function deposit()... */\n      swap1\n      jump\t// out\n        /* \"Heliocontracts/contracts/ceros/CerosRouter.sol\":7192:7610  function withdrawFor(address recipient, uint256 amount)... */\n    tag_160:\n        /* \"Heliocontracts/contracts/ceros/CerosRouter.sol\":7321:7339  uint256 realAmount */\n      0x00\n        /* \"@openzeppelin/contracts-upgradeable/security/ReentrancyGuardUpgradeable.sol\":1815:1816  2 */\n      0x02\n        /* \"@openzeppelin/contracts-upgradeable/security/ReentrancyGuardUpgradeable.sol\":2569:2576  _status */\n      sload(0x97)\n        /* \"@openzeppelin/contracts-upgradeable/security/ReentrancyGuardUpgradeable.sol\":2569:2588  _status != _ENTERED */\n      eq\n      iszero\n        /* \"@openzeppelin/contracts-upgradeable/security/ReentrancyGuardUpgradeable.sol\":2561:2624  require(_status != _ENTERED, \"ReentrancyGuard: reentrant call\") */\n      tag_395\n      jumpi\n      mload(0x40)\n      0x08c379a000000000000000000000000000000000000000000000000000000000\n      dup2\n      mstore\n      0x04\n      add\n      tag_396\n      swap1\n      tag_178\n      jump\t// in\n    tag_396:\n      mload(0x40)\n      dup1\n      swap2\n      sub\n      swap1\n      revert\n    tag_395:\n        /* \"@openzeppelin/contracts-upgradeable/security/ReentrancyGuardUpgradeable.sol\":1815:1816  2 */\n      0x02\n        /* \"@openzeppelin/contracts-upgradeable/security/ReentrancyGuardUpgradeable.sol\":2699:2706  _status */\n      0x97\n        /* \"@openzeppelin/contracts-upgradeable/security/ReentrancyGuardUpgradeable.sol\":2699:2717  _status = _ENTERED */\n      dup2\n      swap1\n      sstore\n      pop\n        /* \"Heliocontracts/contracts/ceros/CerosRouter.sol\":1328:1335  owner() */\n      tag_398\n        /* \"Heliocontracts/contracts/ceros/CerosRouter.sol\":1328:1333  owner */\n      tag_123\n        /* \"Heliocontracts/contracts/ceros/CerosRouter.sol\":1328:1335  owner() */\n      jump\t// in\n    tag_398:\n        /* \"Heliocontracts/contracts/ceros/CerosRouter.sol\":1314:1335  msg.sender == owner() */\n      0xffffffffffffffffffffffffffffffffffffffff\n      and\n        /* \"Heliocontracts/contracts/ceros/CerosRouter.sol\":1314:1324  msg.sender */\n      caller\n        /* \"Heliocontracts/contracts/ceros/CerosRouter.sol\":1314:1335  msg.sender == owner() */\n      0xffffffffffffffffffffffffffffffffffffffff\n      and\n      eq\n        /* \"Heliocontracts/contracts/ceros/CerosRouter.sol\":1314:1362  msg.sender == owner() || msg.sender == _provider */\n      dup1\n      tag_399\n      jumpi\n      pop\n        /* \"Heliocontracts/contracts/ceros/CerosRouter.sol\":1353:1362  _provider */\n      0xd0\n      0x00\n      swap1\n      sload\n      swap1\n      0x0100\n      exp\n      swap1\n      div\n      0xffffffffffffffffffffffffffffffffffffffff\n      and\n        /* \"Heliocontracts/contracts/ceros/CerosRouter.sol\":1339:1362  msg.sender == _provider */\n      0xffffffffffffffffffffffffffffffffffffffff\n      and\n        /* \"Heliocontracts/contracts/ceros/CerosRouter.sol\":1339:1349  msg.sender */\n      caller\n        /* \"Heliocontracts/contracts/ceros/CerosRouter.sol\":1339:1362  msg.sender == _provider */\n      0xffffffffffffffffffffffffffffffffffffffff\n      and\n      eq\n        /* \"Heliocontracts/contracts/ceros/CerosRouter.sol\":1314:1362  msg.sender == owner() || msg.sender == _provider */\n    tag_399:\n        /* \"Heliocontracts/contracts/ceros/CerosRouter.sol\":1293:1409  require(... */\n      tag_400\n      jumpi\n      mload(0x40)\n      0x08c379a000000000000000000000000000000000000000000000000000000000\n      dup2\n      mstore\n      0x04\n      add\n      tag_401\n      swap1\n      tag_321\n      jump\t// in\n    tag_401:\n      mload(0x40)\n      dup1\n      swap2\n      sub\n      swap1\n      revert\n    tag_400:\n        /* \"Heliocontracts/contracts/ceros/CerosRouter.sol\":7368:7374  _vault */\n      0xc9\n      0x00\n      swap1\n      sload\n      swap1\n      0x0100\n      exp\n      swap1\n      div\n      0xffffffffffffffffffffffffffffffffffffffff\n      and\n        /* \"Heliocontracts/contracts/ceros/CerosRouter.sol\":7368:7386  _vault.withdrawFor */\n      0xffffffffffffffffffffffffffffffffffffffff\n      and\n      0x9f1d9267\n        /* \"Heliocontracts/contracts/ceros/CerosRouter.sol\":7387:7397  msg.sender */\n      caller\n        /* \"Heliocontracts/contracts/ceros/CerosRouter.sol\":7407:7411  this */\n      address\n        /* \"Heliocontracts/contracts/ceros/CerosRouter.sol\":7414:7420  amount */\n      dup6\n        /* \"Heliocontracts/contracts/ceros/CerosRouter.sol\":7368:7421  _vault.withdrawFor(msg.sender, address(this), amount) */\n      mload(0x40)\n      dup5\n      0xffffffff\n      and\n      0xe0\n      shl\n      dup2\n      mstore\n      0x04\n      add\n      tag_403\n      swap4\n      swap3\n      swap2\n      swap1\n      tag_181\n      jump\t// in\n    tag_403:\n      0x20\n      mload(0x40)\n      dup1\n      dup4\n      sub\n      dup2\n      0x00\n      dup8\n      gas\n      call\n      iszero\n      dup1\n      iszero\n      tag_405\n      jumpi\n      returndatasize\n      0x00\n      dup1\n      returndatacopy\n      revert(0x00, returndatasize)\n    tag_405:\n      pop\n      pop\n      pop\n      pop\n      mload(0x40)\n      returndatasize\n      not(0x1f)\n      0x1f\n      dup3\n      add\n      and\n      dup3\n      add\n      dup1\n      0x40\n      mstore\n      pop\n      dup2\n      add\n      swap1\n      tag_406\n      swap2\n      swap1\n      tag_185\n      jump\t// in\n    tag_406:\n        /* \"Heliocontracts/contracts/ceros/CerosRouter.sol\":7355:7421  realAmount = _vault.withdrawFor(msg.sender, address(this), amount) */\n      swap1\n      pop\n        /* \"Heliocontracts/contracts/ceros/CerosRouter.sol\":7431:7446  _bnbStakingPool */\n      0xd1\n      0x00\n      swap1\n      sload\n      swap1\n      0x0100\n      exp\n      swap1\n      div\n      0xffffffffffffffffffffffffffffffffffffffff\n      and\n        /* \"Heliocontracts/contracts/ceros/CerosRouter.sol\":7431:7462  _bnbStakingPool.unstakeCertsFor */\n      0xffffffffffffffffffffffffffffffffffffffff\n      and\n      0x81782dff\n        /* \"Heliocontracts/contracts/ceros/CerosRouter.sol\":7463:7472  recipient */\n      dup5\n        /* \"Heliocontracts/contracts/ceros/CerosRouter.sol\":7474:7484  realAmount */\n      dup4\n        /* \"Heliocontracts/contracts/ceros/CerosRouter.sol\":7431:7485  _bnbStakingPool.unstakeCertsFor(recipient, realAmount) */\n      mload(0x40)\n      dup4\n      0xffffffff\n      and\n      0xe0\n      shl\n      dup2\n      mstore\n      0x04\n      add\n      tag_407\n      swap3\n      swap2\n      swap1\n      tag_329\n      jump\t// in\n    tag_407:\n      0x00\n      mload(0x40)\n      dup1\n      dup4\n      sub\n      dup2\n      0x00\n      dup8\n      dup1\n      extcodesize\n      iszero\n      dup1\n      iszero\n      tag_408\n      jumpi\n      0x00\n      dup1\n      revert\n    tag_408:\n      pop\n      gas\n      call\n      iszero\n      dup1\n      iszero\n      tag_410\n      jumpi\n      returndatasize\n      0x00\n      dup1\n      returndatacopy\n      revert(0x00, returndatasize)\n    tag_410:\n      pop\n      pop\n      pop\n      pop\n        /* \"Heliocontracts/contracts/ceros/CerosRouter.sol\":7555:7567  _wBnbAddress */\n      0xcd\n      0x00\n      swap1\n      sload\n      swap1\n      0x0100\n      exp\n      swap1\n      div\n      0xffffffffffffffffffffffffffffffffffffffff\n      and\n        /* \"Heliocontracts/contracts/ceros/CerosRouter.sol\":7521:7576  Withdrawal(msg.sender, recipient, _wBnbAddress, amount) */\n      0xffffffffffffffffffffffffffffffffffffffff\n      and\n        /* \"Heliocontracts/contracts/ceros/CerosRouter.sol\":7544:7553  recipient */\n      dup4\n        /* \"Heliocontracts/contracts/ceros/CerosRouter.sol\":7521:7576  Withdrawal(msg.sender, recipient, _wBnbAddress, amount) */\n      0xffffffffffffffffffffffffffffffffffffffff\n      and\n        /* \"Heliocontracts/contracts/ceros/CerosRouter.sol\":7532:7542  msg.sender */\n      caller\n        /* \"Heliocontracts/contracts/ceros/CerosRouter.sol\":7521:7576  Withdrawal(msg.sender, recipient, _wBnbAddress, amount) */\n      0xffffffffffffffffffffffffffffffffffffffff\n      and\n      0x342e7ff505a8a0364cd0dc2ff195c315e43bce86b204846ecd36913e117b109e\n        /* \"Heliocontracts/contracts/ceros/CerosRouter.sol\":7569:7575  amount */\n      dup6\n        /* \"Heliocontracts/contracts/ceros/CerosRouter.sol\":7521:7576  Withdrawal(msg.sender, recipient, _wBnbAddress, amount) */\n      mload(0x40)\n      tag_411\n      swap2\n      swap1\n      tag_45\n      jump\t// in\n    tag_411:\n      mload(0x40)\n      dup1\n      swap2\n      sub\n      swap1\n      log4\n        /* \"@openzeppelin/contracts-upgradeable/security/ReentrancyGuardUpgradeable.sol\":1772:1773  1 */\n      0x01\n        /* \"@openzeppelin/contracts-upgradeable/security/ReentrancyGuardUpgradeable.sol\":2872:2879  _status */\n      0x97\n        /* \"@openzeppelin/contracts-upgradeable/security/ReentrancyGuardUpgradeable.sol\":2872:2894  _status = _NOT_ENTERED */\n      dup2\n      swap1\n      sstore\n      pop\n        /* \"Heliocontracts/contracts/ceros/CerosRouter.sol\":7192:7610  function withdrawFor(address recipient, uint256 amount)... */\n      swap3\n      swap2\n      pop\n      pop\n      jump\t// out\n        /* \"@openzeppelin/contracts-upgradeable/access/OwnableUpgradeable.sol\":2321:2519  function transferOwnership(address newOwner) public virtual onlyOwner {... */\n    tag_165:\n        /* \"@openzeppelin/contracts-upgradeable/access/OwnableUpgradeable.sol\":1334:1347  _checkOwner() */\n      tag_413\n        /* \"@openzeppelin/contracts-upgradeable/access/OwnableUpgradeable.sol\":1334:1345  _checkOwner */\n      tag_231\n        /* \"@openzeppelin/contracts-upgradeable/access/OwnableUpgradeable.sol\":1334:1347  _checkOwner() */\n      jump\t// in\n    tag_413:\n        /* \"@openzeppelin/contracts-upgradeable/access/OwnableUpgradeable.sol\":2429:2430  0 */\n      0x00\n        /* \"@openzeppelin/contracts-upgradeable/access/OwnableUpgradeable.sol\":2409:2431  newOwner != address(0) */\n      0xffffffffffffffffffffffffffffffffffffffff\n      and\n        /* \"@openzeppelin/contracts-upgradeable/access/OwnableUpgradeable.sol\":2409:2417  newOwner */\n      dup2\n        /* \"@openzeppelin/contracts-upgradeable/access/OwnableUpgradeable.sol\":2409:2431  newOwner != address(0) */\n      0xffffffffffffffffffffffffffffffffffffffff\n      and\n      eq\n      iszero\n        /* \"@openzeppelin/contracts-upgradeable/access/OwnableUpgradeable.sol\":2401:2474  require(newOwner != address(0), \"Ownable: new owner is the zero address\") */\n      tag_415\n      jumpi\n      mload(0x40)\n      0x08c379a000000000000000000000000000000000000000000000000000000000\n      dup2\n      mstore\n      0x04\n      add\n      tag_416\n      swap1\n      tag_417\n      jump\t// in\n    tag_416:\n      mload(0x40)\n      dup1\n      swap2\n      sub\n      swap1\n      revert\n    tag_415:\n        /* \"@openzeppelin/contracts-upgradeable/access/OwnableUpgradeable.sol\":2484:2512  _transferOwnership(newOwner) */\n      tag_418\n        /* \"@openzeppelin/contracts-upgradeable/access/OwnableUpgradeable.sol\":2503:2511  newOwner */\n      dup2\n        /* \"@openzeppelin/contracts-upgradeable/access/OwnableUpgradeable.sol\":2484:2502  _transferOwnership */\n      tag_266\n        /* \"@openzeppelin/contracts-upgradeable/access/OwnableUpgradeable.sol\":2484:2512  _transferOwnership(newOwner) */\n      jump\t// in\n    tag_418:\n        /* \"@openzeppelin/contracts-upgradeable/access/OwnableUpgradeable.sol\":2321:2519  function transferOwnership(address newOwner) public virtual onlyOwner {... */\n      pop\n      jump\t// out\n        /* \"Heliocontracts/contracts/ceros/CerosRouter.sol\":6206:6743  function withdraw(address recipient, uint256 amount)... */\n    tag_169:\n        /* \"Heliocontracts/contracts/ceros/CerosRouter.sol\":6332:6350  uint256 realAmount */\n      0x00\n        /* \"Heliocontracts/contracts/ceros/CerosRouter.sol\":1328:1335  owner() */\n      tag_420\n        /* \"Heliocontracts/contracts/ceros/CerosRouter.sol\":1328:1333  owner */\n      tag_123\n        /* \"Heliocontracts/contracts/ceros/CerosRouter.sol\":1328:1335  owner() */\n      jump\t// in\n    tag_420:\n        /* \"Heliocontracts/contracts/ceros/CerosRouter.sol\":1314:1335  msg.sender == owner() */\n      0xffffffffffffffffffffffffffffffffffffffff\n      and\n        /* \"Heliocontracts/contracts/ceros/CerosRouter.sol\":1314:1324  msg.sender */\n      caller\n        /* \"Heliocontracts/contracts/ceros/CerosRouter.sol\":1314:1335  msg.sender == owner() */\n      0xffffffffffffffffffffffffffffffffffffffff\n      and\n      eq\n        /* \"Heliocontracts/contracts/ceros/CerosRouter.sol\":1314:1362  msg.sender == owner() || msg.sender == _provider */\n      dup1\n      tag_421\n      jumpi\n      pop\n        /* \"Heliocontracts/contracts/ceros/CerosRouter.sol\":1353:1362  _provider */\n      0xd0\n      0x00\n      swap1\n      sload\n      swap1\n      0x0100\n      exp\n      swap1\n      div\n      0xffffffffffffffffffffffffffffffffffffffff\n      and\n        /* \"Heliocontracts/contracts/ceros/CerosRouter.sol\":1339:1362  msg.sender == _provider */\n      0xffffffffffffffffffffffffffffffffffffffff\n      and\n        /* \"Heliocontracts/contracts/ceros/CerosRouter.sol\":1339:1349  msg.sender */\n      caller\n        /* \"Heliocontracts/contracts/ceros/CerosRouter.sol\":1339:1362  msg.sender == _provider */\n      0xffffffffffffffffffffffffffffffffffffffff\n      and\n      eq\n        /* \"Heliocontracts/contracts/ceros/CerosRouter.sol\":1314:1362  msg.sender == owner() || msg.sender == _provider */\n    tag_421:\n        /* \"Heliocontracts/contracts/ceros/CerosRouter.sol\":1293:1409  require(... */\n      tag_422\n      jumpi\n      mload(0x40)\n      0x08c379a000000000000000000000000000000000000000000000000000000000\n      dup2\n      mstore\n      0x04\n      add\n      tag_423\n      swap1\n      tag_321\n      jump\t// in\n    tag_423:\n      mload(0x40)\n      dup1\n      swap2\n      sub\n      swap1\n      revert\n    tag_422:\n        /* \"@openzeppelin/contracts-upgradeable/security/ReentrancyGuardUpgradeable.sol\":1815:1816  2 */\n      0x02\n        /* \"@openzeppelin/contracts-upgradeable/security/ReentrancyGuardUpgradeable.sol\":2569:2576  _status */\n      sload(0x97)\n        /* \"@openzeppelin/contracts-upgradeable/security/ReentrancyGuardUpgradeable.sol\":2569:2588  _status != _ENTERED */\n      eq\n      iszero\n        /* \"@openzeppelin/contracts-upgradeable/security/ReentrancyGuardUpgradeable.sol\":2561:2624  require(_status != _ENTERED, \"ReentrancyGuard: reentrant call\") */\n      tag_425\n      jumpi\n      mload(0x40)\n      0x08c379a000000000000000000000000000000000000000000000000000000000\n      dup2\n      mstore\n      0x04\n      add\n      tag_426\n      swap1\n      tag_178\n      jump\t// in\n    tag_426:\n      mload(0x40)\n      dup1\n      swap2\n      sub\n      swap1\n      revert\n    tag_425:\n        /* \"@openzeppelin/contracts-upgradeable/security/ReentrancyGuardUpgradeable.sol\":1815:1816  2 */\n      0x02\n        /* \"@openzeppelin/contracts-upgradeable/security/ReentrancyGuardUpgradeable.sol\":2699:2706  _status */\n      0x97\n        /* \"@openzeppelin/contracts-upgradeable/security/ReentrancyGuardUpgradeable.sol\":2699:2717  _status = _ENTERED */\n      dup2\n      swap1\n      sstore\n      pop\n        /* \"Heliocontracts/contracts/ceros/CerosRouter.sol\":6397:6412  _bnbStakingPool */\n      0xd1\n      0x00\n      swap1\n      sload\n      swap1\n      0x0100\n      exp\n      swap1\n      div\n      0xffffffffffffffffffffffffffffffffffffffff\n      and\n        /* \"Heliocontracts/contracts/ceros/CerosRouter.sol\":6397:6426  _bnbStakingPool.getMinUnstake */\n      0xffffffffffffffffffffffffffffffffffffffff\n      and\n      0x034c4454\n        /* \"Heliocontracts/contracts/ceros/CerosRouter.sol\":6397:6428  _bnbStakingPool.getMinUnstake() */\n      mload(0x40)\n      dup2\n      0xffffffff\n      and\n      0xe0\n      shl\n      dup2\n      mstore\n      0x04\n      add\n      0x20\n      mload(0x40)\n      dup1\n      dup4\n      sub\n      dup2\n      dup7\n      gas\n      staticcall\n      iszero\n      dup1\n      iszero\n      tag_429\n      jumpi\n      returndatasize\n      0x00\n      dup1\n      returndatacopy\n      revert(0x00, returndatasize)\n    tag_429:\n      pop\n      pop\n      pop\n      pop\n      mload(0x40)\n      returndatasize\n      not(0x1f)\n      0x1f\n      dup3\n      add\n      and\n      dup3\n      add\n      dup1\n      0x40\n      mstore\n      pop\n      dup2\n      add\n      swap1\n      tag_430\n      swap2\n      swap1\n      tag_185\n      jump\t// in\n    tag_430:\n        /* \"Heliocontracts/contracts/ceros/CerosRouter.sol\":6387:6393  amount */\n      dup3\n        /* \"Heliocontracts/contracts/ceros/CerosRouter.sol\":6387:6428  amount >= _bnbStakingPool.getMinUnstake() */\n      lt\n      iszero\n        /* \"Heliocontracts/contracts/ceros/CerosRouter.sol\":6366:6499  require(... */\n      tag_431\n      jumpi\n      mload(0x40)\n      0x08c379a000000000000000000000000000000000000000000000000000000000\n      dup2\n      mstore\n      0x04\n      add\n      tag_432\n      swap1\n      tag_433\n      jump\t// in\n    tag_432:\n      mload(0x40)\n      dup1\n      swap2\n      sub\n      swap1\n      revert\n    tag_431:\n        /* \"Heliocontracts/contracts/ceros/CerosRouter.sol\":6522:6528  _vault */\n      0xc9\n      0x00\n      swap1\n      sload\n      swap1\n      0x0100\n      exp\n      swap1\n      div\n      0xffffffffffffffffffffffffffffffffffffffff\n      and\n        /* \"Heliocontracts/contracts/ceros/CerosRouter.sol\":6522:6540  _vault.withdrawFor */\n      0xffffffffffffffffffffffffffffffffffffffff\n      and\n      0x9f1d9267\n        /* \"Heliocontracts/contracts/ceros/CerosRouter.sol\":6541:6551  msg.sender */\n      caller\n        /* \"Heliocontracts/contracts/ceros/CerosRouter.sol\":6561:6565  this */\n      address\n        /* \"Heliocontracts/contracts/ceros/CerosRouter.sol\":6568:6574  amount */\n      dup6\n        /* \"Heliocontracts/contracts/ceros/CerosRouter.sol\":6522:6575  _vault.withdrawFor(msg.sender, address(this), amount) */\n      mload(0x40)\n      dup5\n      0xffffffff\n      and\n      0xe0\n      shl\n      dup2\n      mstore\n      0x04\n      add\n      tag_434\n      swap4\n      swap3\n      swap2\n      swap1\n      tag_181\n      jump\t// in\n    tag_434:\n      0x20\n      mload(0x40)\n      dup1\n      dup4\n      sub\n      dup2\n      0x00\n      dup8\n      gas\n      call\n      iszero\n      dup1\n      iszero\n      tag_436\n      jumpi\n      returndatasize\n      0x00\n      dup1\n      returndatacopy\n      revert(0x00, returndatasize)\n    tag_436:\n      pop\n      pop\n      pop\n      pop\n      mload(0x40)\n      returndatasize\n      not(0x1f)\n      0x1f\n      dup3\n      add\n      and\n      dup3\n      add\n      dup1\n      0x40\n      mstore\n      pop\n      dup2\n      add\n      swap1\n      tag_437\n      swap2\n      swap1\n      tag_185\n      jump\t// in\n    tag_437:\n        /* \"Heliocontracts/contracts/ceros/CerosRouter.sol\":6509:6575  realAmount = _vault.withdrawFor(msg.sender, address(this), amount) */\n      swap1\n      pop\n        /* \"Heliocontracts/contracts/ceros/CerosRouter.sol\":6585:6600  _bnbStakingPool */\n      0xd1\n      0x00\n      swap1\n      sload\n      swap1\n      0x0100\n      exp\n      swap1\n      div\n      0xffffffffffffffffffffffffffffffffffffffff\n      and\n        /* \"Heliocontracts/contracts/ceros/CerosRouter.sol\":6585:6616  _bnbStakingPool.unstakeCertsFor */\n      0xffffffffffffffffffffffffffffffffffffffff\n      and\n      0x81782dff\n        /* \"Heliocontracts/contracts/ceros/CerosRouter.sol\":6617:6626  recipient */\n      dup5\n        /* \"Heliocontracts/contracts/ceros/CerosRouter.sol\":6628:6638  realAmount */\n      dup4\n        /* \"Heliocontracts/contracts/ceros/CerosRouter.sol\":6585:6639  _bnbStakingPool.unstakeCertsFor(recipient, realAmount) */\n      mload(0x40)\n      dup4\n      0xffffffff\n      and\n      0xe0\n      shl\n      dup2\n      mstore\n      0x04\n      add\n      tag_438\n      swap3\n      swap2\n      swap1\n      tag_329\n      jump\t// in\n    tag_438:\n      0x00\n      mload(0x40)\n      dup1\n      dup4\n      sub\n      dup2\n      0x00\n      dup8\n      dup1\n      extcodesize\n      iszero\n      dup1\n      iszero\n      tag_439\n      jumpi\n      0x00\n      dup1\n      revert\n    tag_439:\n      pop\n      gas\n      call\n      iszero\n      dup1\n      iszero\n      tag_441\n      jumpi\n      returndatasize\n      0x00\n      dup1\n      returndatacopy\n      revert(0x00, returndatasize)\n    tag_441:\n      pop\n      pop\n      pop\n      pop\n        /* \"Heliocontracts/contracts/ceros/CerosRouter.sol\":6688:6700  _wBnbAddress */\n      0xcd\n      0x00\n      swap1\n      sload\n      swap1\n      0x0100\n      exp\n      swap1\n      div\n      0xffffffffffffffffffffffffffffffffffffffff\n      and\n        /* \"Heliocontracts/contracts/ceros/CerosRouter.sol\":6654:6709  Withdrawal(msg.sender, recipient, _wBnbAddress, amount) */\n      0xffffffffffffffffffffffffffffffffffffffff\n      and\n        /* \"Heliocontracts/contracts/ceros/CerosRouter.sol\":6677:6686  recipient */\n      dup4\n        /* \"Heliocontracts/contracts/ceros/CerosRouter.sol\":6654:6709  Withdrawal(msg.sender, recipient, _wBnbAddress, amount) */\n      0xffffffffffffffffffffffffffffffffffffffff\n      and\n        /* \"Heliocontracts/contracts/ceros/CerosRouter.sol\":6665:6675  msg.sender */\n      caller\n        /* \"Heliocontracts/contracts/ceros/CerosRouter.sol\":6654:6709  Withdrawal(msg.sender, recipient, _wBnbAddress, amount) */\n      0xffffffffffffffffffffffffffffffffffffffff\n      and\n      0x342e7ff505a8a0364cd0dc2ff195c315e43bce86b204846ecd36913e117b109e\n        /* \"Heliocontracts/contracts/ceros/CerosRouter.sol\":6702:6708  amount */\n      dup6\n        /* \"Heliocontracts/contracts/ceros/CerosRouter.sol\":6654:6709  Withdrawal(msg.sender, recipient, _wBnbAddress, amount) */\n      mload(0x40)\n      tag_442\n      swap2\n      swap1\n      tag_45\n      jump\t// in\n    tag_442:\n      mload(0x40)\n      dup1\n      swap2\n      sub\n      swap1\n      log4\n        /* \"@openzeppelin/contracts-upgradeable/security/ReentrancyGuardUpgradeable.sol\":1772:1773  1 */\n      0x01\n        /* \"@openzeppelin/contracts-upgradeable/security/ReentrancyGuardUpgradeable.sol\":2872:2879  _status */\n      0x97\n        /* \"@openzeppelin/contracts-upgradeable/security/ReentrancyGuardUpgradeable.sol\":2872:2894  _status = _NOT_ENTERED */\n      dup2\n      swap1\n      sstore\n      pop\n        /* \"Heliocontracts/contracts/ceros/CerosRouter.sol\":6206:6743  function withdraw(address recipient, uint256 amount)... */\n      swap3\n      swap2\n      pop\n      pop\n      jump\t// out\n        /* \"Heliocontracts/contracts/ceros/CerosRouter.sol\":10658:10753  function getPoolAddress() external view returns(address) {... */\n    tag_173:\n        /* \"Heliocontracts/contracts/ceros/CerosRouter.sol\":10706:10713  address */\n      0x00\n        /* \"Heliocontracts/contracts/ceros/CerosRouter.sol\":10740:10745  _pool */\n      0xcb\n      0x00\n      swap1\n      sload\n      swap1\n      0x0100\n      exp\n      swap1\n      div\n      0xffffffffffffffffffffffffffffffffffffffff\n      and\n        /* \"Heliocontracts/contracts/ceros/CerosRouter.sol\":10725:10746  return address(_pool) */\n      swap1\n      pop\n        /* \"Heliocontracts/contracts/ceros/CerosRouter.sol\":10658:10753  function getPoolAddress() external view returns(address) {... */\n      swap1\n      jump\t// out\n        /* \"@openzeppelin/contracts-upgradeable/utils/AddressUpgradeable.sol\":1186:1506  function isContract(address account) internal view returns (bool) {... */\n    tag_207:\n        /* \"@openzeppelin/contracts-upgradeable/utils/AddressUpgradeable.sol\":1246:1250  bool */\n      0x00\n        /* \"@openzeppelin/contracts-upgradeable/utils/AddressUpgradeable.sol\":1498:1499  0 */\n      dup1\n        /* \"@openzeppelin/contracts-upgradeable/utils/AddressUpgradeable.sol\":1476:1483  account */\n      dup3\n        /* \"@openzeppelin/contracts-upgradeable/utils/AddressUpgradeable.sol\":1476:1495  account.code.length */\n      0xffffffffffffffffffffffffffffffffffffffff\n      and\n      extcodesize\n        /* \"@openzeppelin/contracts-upgradeable/utils/AddressUpgradeable.sol\":1476:1499  account.code.length > 0 */\n      gt\n        /* \"@openzeppelin/contracts-upgradeable/utils/AddressUpgradeable.sol\":1469:1499  return account.code.length > 0 */\n      swap1\n      pop\n        /* \"@openzeppelin/contracts-upgradeable/utils/AddressUpgradeable.sol\":1186:1506  function isContract(address account) internal view returns (bool) {... */\n      swap2\n      swap1\n      pop\n      jump\t// out\n        /* \"@openzeppelin/contracts-upgradeable/access/OwnableUpgradeable.sol\":1003:1098  function __Ownable_init() internal onlyInitializing {... */\n    tag_215:\n        /* \"@openzeppelin/contracts-upgradeable/proxy/utils/Initializable.sol\":4910:4923  _initializing */\n      0x00\n      0x01\n      swap1\n      sload\n      swap1\n      0x0100\n      exp\n      swap1\n      div\n      0xff\n      and\n        /* \"@openzeppelin/contracts-upgradeable/proxy/utils/Initializable.sol\":4902:4971  require(_initializing, \"Initializable: contract is not initializing\") */\n      tag_446\n      jumpi\n      mload(0x40)\n      0x08c379a000000000000000000000000000000000000000000000000000000000\n      dup2\n      mstore\n      0x04\n      add\n      tag_447\n      swap1\n      tag_448\n      jump\t// in\n    tag_447:\n      mload(0x40)\n      dup1\n      swap2\n      sub\n      swap1\n      revert\n    tag_446:\n        /* \"@openzeppelin/contracts-upgradeable/access/OwnableUpgradeable.sol\":1065:1091  __Ownable_init_unchained() */\n      tag_450\n        /* \"@openzeppelin/contracts-upgradeable/access/OwnableUpgradeable.sol\":1065:1089  __Ownable_init_unchained */\n      tag_451\n        /* \"@openzeppelin/contracts-upgradeable/access/OwnableUpgradeable.sol\":1065:1091  __Ownable_init_unchained() */\n      jump\t// in\n    tag_450:\n        /* \"@openzeppelin/contracts-upgradeable/access/OwnableUpgradeable.sol\":1003:1098  function __Ownable_init() internal onlyInitializing {... */\n      jump\t// out\n        /* \"@openzeppelin/contracts-upgradeable/security/PausableUpgradeable.sol\":1063:1160  function __Pausable_init() internal onlyInitializing {... */\n    tag_217:\n        /* \"@openzeppelin/contracts-upgradeable/proxy/utils/Initializable.sol\":4910:4923  _initializing */\n      0x00\n      0x01\n      swap1\n      sload\n      swap1\n      0x0100\n      exp\n      swap1\n      div\n      0xff\n      and\n        /* \"@openzeppelin/contracts-upgradeable/proxy/utils/Initializable.sol\":4902:4971  require(_initializing, \"Initializable: contract is not initializing\") */\n      tag_453\n      jumpi\n      mload(0x40)\n      0x08c379a000000000000000000000000000000000000000000000000000000000\n      dup2\n      mstore\n      0x04\n      add\n      tag_454\n      swap1\n      tag_448\n      jump\t// in\n    tag_454:\n      mload(0x40)\n      dup1\n      swap2\n      sub\n      swap1\n      revert\n    tag_453:\n        /* \"@openzeppelin/contracts-upgradeable/security/PausableUpgradeable.sol\":1126:1153  __Pausable_init_unchained() */\n      tag_456\n        /* \"@openzeppelin/contracts-upgradeable/security/PausableUpgradeable.sol\":1126:1151  __Pausable_init_unchained */\n      tag_457\n        /* \"@openzeppelin/contracts-upgradeable/security/PausableUpgradeable.sol\":1126:1153  __Pausable_init_unchained() */\n      jump\t// in\n    tag_456:\n        /* \"@openzeppelin/contracts-upgradeable/security/PausableUpgradeable.sol\":1063:1160  function __Pausable_init() internal onlyInitializing {... */\n      jump\t// out\n        /* \"@openzeppelin/contracts-upgradeable/security/ReentrancyGuardUpgradeable.sol\":1853:1964  function __ReentrancyGuard_init() internal onlyInitializing {... */\n    tag_219:\n        /* \"@openzeppelin/contracts-upgradeable/proxy/utils/Initializable.sol\":4910:4923  _initializing */\n      0x00\n      0x01\n      swap1\n      sload\n      swap1\n      0x0100\n      exp\n      swap1\n      div\n      0xff\n      and\n        /* \"@openzeppelin/contracts-upgradeable/proxy/utils/Initializable.sol\":4902:4971  require(_initializing, \"Initializable: contract is not initializing\") */\n      tag_459\n      jumpi\n      mload(0x40)\n      0x08c379a000000000000000000000000000000000000000000000000000000000\n      dup2\n      mstore\n      0x04\n      add\n      tag_460\n      swap1\n      tag_448\n      jump\t// in\n    tag_460:\n      mload(0x40)\n      dup1\n      swap2\n      sub\n      swap1\n      revert\n    tag_459:\n        /* \"@openzeppelin/contracts-upgradeable/security/ReentrancyGuardUpgradeable.sol\":1923:1957  __ReentrancyGuard_init_unchained() */\n      tag_462\n        /* \"@openzeppelin/contracts-upgradeable/security/ReentrancyGuardUpgradeable.sol\":1923:1955  __ReentrancyGuard_init_unchained */\n      tag_463\n        /* \"@openzeppelin/contracts-upgradeable/security/ReentrancyGuardUpgradeable.sol\":1923:1957  __ReentrancyGuard_init_unchained() */\n      jump\t// in\n    tag_462:\n        /* \"@openzeppelin/contracts-upgradeable/security/ReentrancyGuardUpgradeable.sol\":1853:1964  function __ReentrancyGuard_init() internal onlyInitializing {... */\n      jump\t// out\n        /* \"@openzeppelin/contracts/token/ERC20/utils/SafeERC20.sol\":1475:2078  function safeApprove(... */\n    tag_221:\n        /* \"@openzeppelin/contracts/token/ERC20/utils/SafeERC20.sol\":1839:1840  0 */\n      0x00\n        /* \"@openzeppelin/contracts/token/ERC20/utils/SafeERC20.sol\":1830:1835  value */\n      dup2\n        /* \"@openzeppelin/contracts/token/ERC20/utils/SafeERC20.sol\":1830:1840  value == 0 */\n      eq\n        /* \"@openzeppelin/contracts/token/ERC20/utils/SafeERC20.sol\":1829:1891  (value == 0) || (token.allowance(address(this), spender) == 0) */\n      dup1\n      tag_465\n      jumpi\n      pop\n        /* \"@openzeppelin/contracts/token/ERC20/utils/SafeERC20.sol\":1889:1890  0 */\n      0x00\n        /* \"@openzeppelin/contracts/token/ERC20/utils/SafeERC20.sol\":1846:1851  token */\n      dup4\n        /* \"@openzeppelin/contracts/token/ERC20/utils/SafeERC20.sol\":1846:1861  token.allowance */\n      0xffffffffffffffffffffffffffffffffffffffff\n      and\n      0xdd62ed3e\n        /* \"@openzeppelin/contracts/token/ERC20/utils/SafeERC20.sol\":1870:1874  this */\n      address\n        /* \"@openzeppelin/contracts/token/ERC20/utils/SafeERC20.sol\":1877:1884  spender */\n      dup6\n        /* \"@openzeppelin/contracts/token/ERC20/utils/SafeERC20.sol\":1846:1885  token.allowance(address(this), spender) */\n      mload(0x40)\n      dup4\n      0xffffffff\n      and\n      0xe0\n      shl\n      dup2\n      mstore\n      0x04\n      add\n      tag_466\n      swap3\n      swap2\n      swap1\n      tag_193\n      jump\t// in\n    tag_466:\n      0x20\n      mload(0x40)\n      dup1\n      dup4\n      sub\n      dup2\n      dup7\n      gas\n      staticcall\n      iszero\n      dup1\n      iszero\n      tag_468\n      jumpi\n      returndatasize\n      0x00\n      dup1\n      returndatacopy\n      revert(0x00, returndatasize)\n    tag_468:\n      pop\n      pop\n      pop\n      pop\n      mload(0x40)\n      returndatasize\n      not(0x1f)\n      0x1f\n      dup3\n      add\n      and\n      dup3\n      add\n      dup1\n      0x40\n      mstore\n      pop\n      dup2\n      add\n      swap1\n      tag_469\n      swap2\n      swap1\n      tag_185\n      jump\t// in\n    tag_469:\n        /* \"@openzeppelin/contracts/token/ERC20/utils/SafeERC20.sol\":1846:1890  token.allowance(address(this), spender) == 0 */\n      eq\n        /* \"@openzeppelin/contracts/token/ERC20/utils/SafeERC20.sol\":1829:1891  (value == 0) || (token.allowance(address(this), spender) == 0) */\n    tag_465:\n        /* \"@openzeppelin/contracts/token/ERC20/utils/SafeERC20.sol\":1808:1971  require(... */\n      tag_470\n      jumpi\n      mload(0x40)\n      0x08c379a000000000000000000000000000000000000000000000000000000000\n      dup2\n      mstore\n      0x04\n      add\n      tag_471\n      swap1\n      tag_472\n      jump\t// in\n    tag_471:\n      mload(0x40)\n      dup1\n      swap2\n      sub\n      swap1\n      revert\n    tag_470:\n        /* \"@openzeppelin/contracts/token/ERC20/utils/SafeERC20.sol\":1981:2071  _callOptionalReturn(token, abi.encodeWithSelector(token.approve.selector, spender, value)) */\n      tag_473\n        /* \"@openzeppelin/contracts/token/ERC20/utils/SafeERC20.sol\":2001:2006  token */\n      dup4\n        /* \"@openzeppelin/contracts/token/ERC20/utils/SafeERC20.sol\":2031:2053  token.approve.selector */\n      shl(0xe0, 0x095ea7b3)\n        /* \"@openzeppelin/contracts/token/ERC20/utils/SafeERC20.sol\":2055:2062  spender */\n      dup5\n        /* \"@openzeppelin/contracts/token/ERC20/utils/SafeERC20.sol\":2064:2069  value */\n      dup5\n        /* \"@openzeppelin/contracts/token/ERC20/utils/SafeERC20.sol\":2008:2070  abi.encodeWithSelector(token.approve.selector, spender, value) */\n      add(0x24, mload(0x40))\n      tag_474\n      swap3\n      swap2\n      swap1\n      tag_329\n      jump\t// in\n    tag_474:\n      mload(0x40)\n      0x20\n      dup2\n      dup4\n      sub\n      sub\n      dup2\n      mstore\n      swap1\n      0x40\n      mstore\n      swap1\n      not(0xffffffffffffffffffffffffffffffffffffffffffffffffffffffff)\n      and\n      0x20\n      dup3\n      add\n      dup1\n      mload\n      0xffffffffffffffffffffffffffffffffffffffffffffffffffffffff\n      dup4\n      dup2\n      dup4\n      and\n      or\n      dup4\n      mstore\n      pop\n      pop\n      pop\n      pop\n        /* \"@openzeppelin/contracts/token/ERC20/utils/SafeERC20.sol\":1981:2000  _callOptionalReturn */\n      tag_475\n        /* \"@openzeppelin/contracts/token/ERC20/utils/SafeERC20.sol\":1981:2071  _callOptionalReturn(token, abi.encodeWithSelector(token.approve.selector, spender, value)) */\n      jump\t// in\n    tag_473:\n        /* \"@openzeppelin/contracts/token/ERC20/utils/SafeERC20.sol\":1475:2078  function safeApprove(... */\n      pop\n      pop\n      pop\n      jump\t// out\n        /* \"@openzeppelin/contracts-upgradeable/access/OwnableUpgradeable.sol\":1599:1729  function _checkOwner() internal view virtual {... */\n    tag_231:\n        /* \"@openzeppelin/contracts-upgradeable/access/OwnableUpgradeable.sol\":1673:1685  _msgSender() */\n      tag_477\n        /* \"@openzeppelin/contracts-upgradeable/access/OwnableUpgradeable.sol\":1673:1683  _msgSender */\n      tag_478\n        /* \"@openzeppelin/contracts-upgradeable/access/OwnableUpgradeable.sol\":1673:1685  _msgSender() */\n      jump\t// in\n    tag_477:\n        /* \"@openzeppelin/contracts-upgradeable/access/OwnableUpgradeable.sol\":1662:1685  owner() == _msgSender() */\n      0xffffffffffffffffffffffffffffffffffffffff\n      and\n        /* \"@openzeppelin/contracts-upgradeable/access/OwnableUpgradeable.sol\":1662:1669  owner() */\n      tag_479\n        /* \"@openzeppelin/contracts-upgradeable/access/OwnableUpgradeable.sol\":1662:1667  owner */\n      tag_123\n        /* \"@openzeppelin/contracts-upgradeable/access/OwnableUpgradeable.sol\":1662:1669  owner() */\n      jump\t// in\n    tag_479:\n        /* \"@openzeppelin/contracts-upgradeable/access/OwnableUpgradeable.sol\":1662:1685  owner() == _msgSender() */\n      0xffffffffffffffffffffffffffffffffffffffff\n      and\n      eq\n        /* \"@openzeppelin/contracts-upgradeable/access/OwnableUpgradeable.sol\":1654:1722  require(owner() == _msgSender(), \"Ownable: caller is not the owner\") */\n      tag_480\n      jumpi\n      mload(0x40)\n      0x08c379a000000000000000000000000000000000000000000000000000000000\n      dup2\n      mstore\n      0x04\n      add\n      tag_481\n      swap1\n      tag_482\n      jump\t// in\n    tag_481:\n      mload(0x40)\n      dup1\n      swap2\n      sub\n      swap1\n      revert\n    tag_480:\n        /* \"@openzeppelin/contracts-upgradeable/access/OwnableUpgradeable.sol\":1599:1729  function _checkOwner() internal view virtual {... */\n      jump\t// out\n        /* \"@openzeppelin/contracts-upgradeable/access/OwnableUpgradeable.sol\":2673:2860  function _transferOwnership(address newOwner) internal virtual {... */\n    tag_266:\n        /* \"@openzeppelin/contracts-upgradeable/access/OwnableUpgradeable.sol\":2746:2762  address oldOwner */\n      0x00\n        /* \"@openzeppelin/contracts-upgradeable/access/OwnableUpgradeable.sol\":2765:2771  _owner */\n      0x33\n      0x00\n      swap1\n      sload\n      swap1\n      0x0100\n      exp\n      swap1\n      div\n      0xffffffffffffffffffffffffffffffffffffffff\n      and\n        /* \"@openzeppelin/contracts-upgradeable/access/OwnableUpgradeable.sol\":2746:2771  address oldOwner = _owner */\n      swap1\n      pop\n        /* \"@openzeppelin/contracts-upgradeable/access/OwnableUpgradeable.sol\":2790:2798  newOwner */\n      dup2\n        /* \"@openzeppelin/contracts-upgradeable/access/OwnableUpgradeable.sol\":2781:2787  _owner */\n      0x33\n      0x00\n        /* \"@openzeppelin/contracts-upgradeable/access/OwnableUpgradeable.sol\":2781:2798  _owner = newOwner */\n      0x0100\n      exp\n      dup2\n      sload\n      dup2\n      0xffffffffffffffffffffffffffffffffffffffff\n      mul\n      not\n      and\n      swap1\n      dup4\n      0xffffffffffffffffffffffffffffffffffffffff\n      and\n      mul\n      or\n      swap1\n      sstore\n      pop\n        /* \"@openzeppelin/contracts-upgradeable/access/OwnableUpgradeable.sol\":2844:2852  newOwner */\n      dup2\n        /* \"@openzeppelin/contracts-upgradeable/access/OwnableUpgradeable.sol\":2813:2853  OwnershipTransferred(oldOwner, newOwner) */\n      0xffffffffffffffffffffffffffffffffffffffff\n      and\n        /* \"@openzeppelin/contracts-upgradeable/access/OwnableUpgradeable.sol\":2834:2842  oldOwner */\n      dup2\n        /* \"@openzeppelin/contracts-upgradeable/access/OwnableUpgradeable.sol\":2813:2853  OwnershipTransferred(oldOwner, newOwner) */\n      0xffffffffffffffffffffffffffffffffffffffff\n      and\n      0x8be0079c531659141344cd1fd0a4f28419497f9722a3daafe3b4186f6b6457e0\n      mload(0x40)\n      mload(0x40)\n      dup1\n      swap2\n      sub\n      swap1\n      log3\n        /* \"@openzeppelin/contracts-upgradeable/access/OwnableUpgradeable.sol\":2736:2860  {... */\n      pop\n        /* \"@openzeppelin/contracts-upgradeable/access/OwnableUpgradeable.sol\":2673:2860  function _transferOwnership(address newOwner) internal virtual {... */\n      pop\n      jump\t// out\n        /* \"@openzeppelin/contracts/token/ERC20/utils/SafeERC20.sol\":974:1215  function safeTransferFrom(... */\n    tag_327:\n        /* \"@openzeppelin/contracts/token/ERC20/utils/SafeERC20.sol\":1112:1208  _callOptionalReturn(token, abi.encodeWithSelector(token.transferFrom.selector, from, to, value)) */\n      tag_485\n        /* \"@openzeppelin/contracts/token/ERC20/utils/SafeERC20.sol\":1132:1137  token */\n      dup5\n        /* \"@openzeppelin/contracts/token/ERC20/utils/SafeERC20.sol\":1162:1189  token.transferFrom.selector */\n      shl(0xe0, 0x23b872dd)\n        /* \"@openzeppelin/contracts/token/ERC20/utils/SafeERC20.sol\":1191:1195  from */\n      dup6\n        /* \"@openzeppelin/contracts/token/ERC20/utils/SafeERC20.sol\":1197:1199  to */\n      dup6\n        /* \"@openzeppelin/contracts/token/ERC20/utils/SafeERC20.sol\":1201:1206  value */\n      dup6\n        /* \"@openzeppelin/contracts/token/ERC20/utils/SafeERC20.sol\":1139:1207  abi.encodeWithSelector(token.transferFrom.selector, from, to, value) */\n      add(0x24, mload(0x40))\n      tag_486\n      swap4\n      swap3\n      swap2\n      swap1\n      tag_181\n      jump\t// in\n    tag_486:\n      mload(0x40)\n      0x20\n      dup2\n      dup4\n      sub\n      sub\n      dup2\n      mstore\n      swap1\n      0x40\n      mstore\n      swap1\n      not(0xffffffffffffffffffffffffffffffffffffffffffffffffffffffff)\n      and\n      0x20\n      dup3\n      add\n      dup1\n      mload\n      0xffffffffffffffffffffffffffffffffffffffffffffffffffffffff\n      dup4\n      dup2\n      dup4\n      and\n      or\n      dup4\n      mstore\n      pop\n      pop\n      pop\n      pop\n        /* \"@openzeppelin/contracts/token/ERC20/utils/SafeERC20.sol\":1112:1131  _callOptionalReturn */\n      tag_475\n        /* \"@openzeppelin/contracts/token/ERC20/utils/SafeERC20.sol\":1112:1208  _callOptionalReturn(token, abi.encodeWithSelector(token.transferFrom.selector, from, to, value)) */\n      jump\t// in\n    tag_485:\n        /* \"@openzeppelin/contracts/token/ERC20/utils/SafeERC20.sol\":974:1215  function safeTransferFrom(... */\n      pop\n      pop\n      pop\n      pop\n      jump\t// out\n        /* \"@openzeppelin/contracts/token/ERC20/utils/SafeERC20.sol\":763:968  function safeTransfer(... */\n    tag_350:\n        /* \"@openzeppelin/contracts/token/ERC20/utils/SafeERC20.sol\":875:961  _callOptionalReturn(token, abi.encodeWithSelector(token.transfer.selector, to, value)) */\n      tag_488\n        /* \"@openzeppelin/contracts/token/ERC20/utils/SafeERC20.sol\":895:900  token */\n      dup4\n        /* \"@openzeppelin/contracts/token/ERC20/utils/SafeERC20.sol\":925:948  token.transfer.selector */\n      shl(0xe0, 0xa9059cbb)\n        /* \"@openzeppelin/contracts/token/ERC20/utils/SafeERC20.sol\":950:952  to */\n      dup5\n        /* \"@openzeppelin/contracts/token/ERC20/utils/SafeERC20.sol\":954:959  value */\n      dup5\n        /* \"@openzeppelin/contracts/token/ERC20/utils/SafeERC20.sol\":902:960  abi.encodeWithSelector(token.transfer.selector, to, value) */\n      add(0x24, mload(0x40))\n      tag_489\n      swap3\n      swap2\n      swap1\n      tag_329\n      jump\t// in\n    tag_489:\n      mload(0x40)\n      0x20\n      dup2\n      dup4\n      sub\n      sub\n      dup2\n      mstore\n      swap1\n      0x40\n      mstore\n      swap1\n      not(0xffffffffffffffffffffffffffffffffffffffffffffffffffffffff)\n      and\n      0x20\n      dup3\n      add\n      dup1\n      mload\n      0xffffffffffffffffffffffffffffffffffffffffffffffffffffffff\n      dup4\n      dup2\n      dup4\n      and\n      or\n      dup4\n      mstore\n      pop\n      pop\n      pop\n      pop\n        /* \"@openzeppelin/contracts/token/ERC20/utils/SafeERC20.sol\":875:894  _callOptionalReturn */\n      tag_475\n        /* \"@openzeppelin/contracts/token/ERC20/utils/SafeERC20.sol\":875:961  _callOptionalReturn(token, abi.encodeWithSelector(token.transfer.selector, to, value)) */\n      jump\t// in\n    tag_488:\n        /* \"@openzeppelin/contracts/token/ERC20/utils/SafeERC20.sol\":763:968  function safeTransfer(... */\n      pop\n      pop\n      pop\n      jump\t// out\n        /* \"@openzeppelin/contracts-upgradeable/access/OwnableUpgradeable.sol\":1104:1215  function __Ownable_init_unchained() internal onlyInitializing {... */\n    tag_451:\n        /* \"@openzeppelin/contracts-upgradeable/proxy/utils/Initializable.sol\":4910:4923  _initializing */\n      0x00\n      0x01\n      swap1\n      sload\n      swap1\n      0x0100\n      exp\n      swap1\n      div\n      0xff\n      and\n        /* \"@openzeppelin/contracts-upgradeable/proxy/utils/Initializable.sol\":4902:4971  require(_initializing, \"Initializable: contract is not initializing\") */\n      tag_491\n      jumpi\n      mload(0x40)\n      0x08c379a000000000000000000000000000000000000000000000000000000000\n      dup2\n      mstore\n      0x04\n      add\n      tag_492\n      swap1\n      tag_448\n      jump\t// in\n    tag_492:\n      mload(0x40)\n      dup1\n      swap2\n      sub\n      swap1\n      revert\n    tag_491:\n        /* \"@openzeppelin/contracts-upgradeable/access/OwnableUpgradeable.sol\":1176:1208  _transferOwnership(_msgSender()) */\n      tag_494\n        /* \"@openzeppelin/contracts-upgradeable/access/OwnableUpgradeable.sol\":1195:1207  _msgSender() */\n      tag_495\n        /* \"@openzeppelin/contracts-upgradeable/access/OwnableUpgradeable.sol\":1195:1205  _msgSender */\n      tag_478\n        /* \"@openzeppelin/contracts-upgradeable/access/OwnableUpgradeable.sol\":1195:1207  _msgSender() */\n      jump\t// in\n    tag_495:\n        /* \"@openzeppelin/contracts-upgradeable/access/OwnableUpgradeable.sol\":1176:1194  _transferOwnership */\n      tag_266\n        /* \"@openzeppelin/contracts-upgradeable/access/OwnableUpgradeable.sol\":1176:1208  _transferOwnership(_msgSender()) */\n      jump\t// in\n    tag_494:\n        /* \"@openzeppelin/contracts-upgradeable/access/OwnableUpgradeable.sol\":1104:1215  function __Ownable_init_unchained() internal onlyInitializing {... */\n      jump\t// out\n        /* \"@openzeppelin/contracts-upgradeable/security/PausableUpgradeable.sol\":1166:1261  function __Pausable_init_unchained() internal onlyInitializing {... */\n    tag_457:\n        /* \"@openzeppelin/contracts-upgradeable/proxy/utils/Initializable.sol\":4910:4923  _initializing */\n      0x00\n      0x01\n      swap1\n      sload\n      swap1\n      0x0100\n      exp\n      swap1\n      div\n      0xff\n      and\n        /* \"@openzeppelin/contracts-upgradeable/proxy/utils/Initializable.sol\":4902:4971  require(_initializing, \"Initializable: contract is not initializing\") */\n      tag_497\n      jumpi\n      mload(0x40)\n      0x08c379a000000000000000000000000000000000000000000000000000000000\n      dup2\n      mstore\n      0x04\n      add\n      tag_498\n      swap1\n      tag_448\n      jump\t// in\n    tag_498:\n      mload(0x40)\n      dup1\n      swap2\n      sub\n      swap1\n      revert\n    tag_497:\n        /* \"@openzeppelin/contracts-upgradeable/security/PausableUpgradeable.sol\":1249:1254  false */\n      0x00\n        /* \"@openzeppelin/contracts-upgradeable/security/PausableUpgradeable.sol\":1239:1246  _paused */\n      0x65\n      0x00\n        /* \"@openzeppelin/contracts-upgradeable/security/PausableUpgradeable.sol\":1239:1254  _paused = false */\n      0x0100\n      exp\n      dup2\n      sload\n      dup2\n      0xff\n      mul\n      not\n      and\n      swap1\n      dup4\n      iszero\n      iszero\n      mul\n      or\n      swap1\n      sstore\n      pop\n        /* \"@openzeppelin/contracts-upgradeable/security/PausableUpgradeable.sol\":1166:1261  function __Pausable_init_unchained() internal onlyInitializing {... */\n      jump\t// out\n        /* \"@openzeppelin/contracts-upgradeable/security/ReentrancyGuardUpgradeable.sol\":1970:2079  function __ReentrancyGuard_init_unchained() internal onlyInitializing {... */\n    tag_463:\n        /* \"@openzeppelin/contracts-upgradeable/proxy/utils/Initializable.sol\":4910:4923  _initializing */\n      0x00\n      0x01\n      swap1\n      sload\n      swap1\n      0x0100\n      exp\n      swap1\n      div\n      0xff\n      and\n        /* \"@openzeppelin/contracts-upgradeable/proxy/utils/Initializable.sol\":4902:4971  require(_initializing, \"Initializable: contract is not initializing\") */\n      tag_501\n      jumpi\n      mload(0x40)\n      0x08c379a000000000000000000000000000000000000000000000000000000000\n      dup2\n      mstore\n      0x04\n      add\n      tag_502\n      swap1\n      tag_448\n      jump\t// in\n    tag_502:\n      mload(0x40)\n      dup1\n      swap2\n      sub\n      swap1\n      revert\n    tag_501:\n        /* \"@openzeppelin/contracts-upgradeable/security/ReentrancyGuardUpgradeable.sol\":1772:1773  1 */\n      0x01\n        /* \"@openzeppelin/contracts-upgradeable/security/ReentrancyGuardUpgradeable.sol\":2050:2057  _status */\n      0x97\n        /* \"@openzeppelin/contracts-upgradeable/security/ReentrancyGuardUpgradeable.sol\":2050:2072  _status = _NOT_ENTERED */\n      dup2\n      swap1\n      sstore\n      pop\n        /* \"@openzeppelin/contracts-upgradeable/security/ReentrancyGuardUpgradeable.sol\":1970:2079  function __ReentrancyGuard_init_unchained() internal onlyInitializing {... */\n      jump\t// out\n        /* \"@openzeppelin/contracts/token/ERC20/utils/SafeERC20.sol\":3747:4453  function _callOptionalReturn(IERC20 token, bytes memory data) private {... */\n    tag_475:\n        /* \"@openzeppelin/contracts/token/ERC20/utils/SafeERC20.sol\":4166:4189  bytes memory returndata */\n      0x00\n        /* \"@openzeppelin/contracts/token/ERC20/utils/SafeERC20.sol\":4192:4261  address(token).functionCall(data, \"SafeERC20: low-level call failed\") */\n      tag_505\n        /* \"@openzeppelin/contracts/token/ERC20/utils/SafeERC20.sol\":4220:4224  data */\n      dup3\n        /* \"@openzeppelin/contracts/token/ERC20/utils/SafeERC20.sol\":4192:4261  address(token).functionCall(data, \"SafeERC20: low-level call failed\") */\n      mload(0x40)\n      dup1\n      0x40\n      add\n      0x40\n      mstore\n      dup1\n      0x20\n      dup2\n      mstore\n      0x20\n      add\n      0x5361666545524332303a206c6f772d6c6576656c2063616c6c206661696c6564\n      dup2\n      mstore\n      pop\n        /* \"@openzeppelin/contracts/token/ERC20/utils/SafeERC20.sol\":4200:4205  token */\n      dup6\n        /* \"@openzeppelin/contracts/token/ERC20/utils/SafeERC20.sol\":4192:4219  address(token).functionCall */\n      0xffffffffffffffffffffffffffffffffffffffff\n      and\n      tag_506\n      swap1\n        /* \"@openzeppelin/contracts/token/ERC20/utils/SafeERC20.sol\":4192:4261  address(token).functionCall(data, \"SafeERC20: low-level call failed\") */\n      swap3\n      swap2\n      swap1\n      0xffffffff\n      and\n      jump\t// in\n    tag_505:\n        /* \"@openzeppelin/contracts/token/ERC20/utils/SafeERC20.sol\":4166:4261  bytes memory returndata = address(token).functionCall(data, \"SafeERC20: low-level call failed\") */\n      swap1\n      pop\n        /* \"@openzeppelin/contracts/token/ERC20/utils/SafeERC20.sol\":4295:4296  0 */\n      0x00\n        /* \"@openzeppelin/contracts/token/ERC20/utils/SafeERC20.sol\":4275:4285  returndata */\n      dup2\n        /* \"@openzeppelin/contracts/token/ERC20/utils/SafeERC20.sol\":4275:4292  returndata.length */\n      mload\n        /* \"@openzeppelin/contracts/token/ERC20/utils/SafeERC20.sol\":4275:4296  returndata.length > 0 */\n      gt\n        /* \"@openzeppelin/contracts/token/ERC20/utils/SafeERC20.sol\":4271:4447  if (returndata.length > 0) {... */\n      iszero\n      tag_507\n      jumpi\n        /* \"@openzeppelin/contracts/token/ERC20/utils/SafeERC20.sol\":4370:4380  returndata */\n      dup1\n        /* \"@openzeppelin/contracts/token/ERC20/utils/SafeERC20.sol\":4359:4389  abi.decode(returndata, (bool)) */\n      dup1\n      0x20\n      add\n      swap1\n      mload\n      dup2\n      add\n      swap1\n      tag_508\n      swap2\n      swap1\n      tag_509\n      jump\t// in\n    tag_508:\n        /* \"@openzeppelin/contracts/token/ERC20/utils/SafeERC20.sol\":4351:4436  require(abi.decode(returndata, (bool)), \"SafeERC20: ERC20 operation did not succeed\") */\n      tag_510\n      jumpi\n      mload(0x40)\n      0x08c379a000000000000000000000000000000000000000000000000000000000\n      dup2\n      mstore\n      0x04\n      add\n      tag_511\n      swap1\n      tag_512\n      jump\t// in\n    tag_511:\n      mload(0x40)\n      dup1\n      swap2\n      sub\n      swap1\n      revert\n    tag_510:\n        /* \"@openzeppelin/contracts/token/ERC20/utils/SafeERC20.sol\":4271:4447  if (returndata.length > 0) {... */\n    tag_507:\n        /* \"@openzeppelin/contracts/token/ERC20/utils/SafeERC20.sol\":3817:4453  {... */\n      pop\n        /* \"@openzeppelin/contracts/token/ERC20/utils/SafeERC20.sol\":3747:4453  function _callOptionalReturn(IERC20 token, bytes memory data) private {... */\n      pop\n      pop\n      jump\t// out\n        /* \"@openzeppelin/contracts-upgradeable/utils/ContextUpgradeable.sol\":850:946  function _msgSender() internal view virtual returns (address) {... */\n    tag_478:\n        /* \"@openzeppelin/contracts-upgradeable/utils/ContextUpgradeable.sol\":903:910  address */\n      0x00\n        /* \"@openzeppelin/contracts-upgradeable/utils/ContextUpgradeable.sol\":929:939  msg.sender */\n      caller\n        /* \"@openzeppelin/contracts-upgradeable/utils/ContextUpgradeable.sol\":922:939  return msg.sender */\n      swap1\n      pop\n        /* \"@openzeppelin/contracts-upgradeable/utils/ContextUpgradeable.sol\":850:946  function _msgSender() internal view virtual returns (address) {... */\n      swap1\n      jump\t// out\n        /* \"@openzeppelin/contracts/utils/Address.sol\":3873:4096  function functionCall(... */\n    tag_506:\n        /* \"@openzeppelin/contracts/utils/Address.sol\":4006:4018  bytes memory */\n      0x60\n        /* \"@openzeppelin/contracts/utils/Address.sol\":4037:4089  functionCallWithValue(target, data, 0, errorMessage) */\n      tag_515\n        /* \"@openzeppelin/contracts/utils/Address.sol\":4059:4065  target */\n      dup5\n        /* \"@openzeppelin/contracts/utils/Address.sol\":4067:4071  data */\n      dup5\n        /* \"@openzeppelin/contracts/utils/Address.sol\":4073:4074  0 */\n      0x00\n        /* \"@openzeppelin/contracts/utils/Address.sol\":4076:4088  errorMessage */\n      dup6\n        /* \"@openzeppelin/contracts/utils/Address.sol\":4037:4058  functionCallWithValue */\n      tag_516\n        /* \"@openzeppelin/contracts/utils/Address.sol\":4037:4089  functionCallWithValue(target, data, 0, errorMessage) */\n      jump\t// in\n    tag_515:\n        /* \"@openzeppelin/contracts/utils/Address.sol\":4030:4089  return functionCallWithValue(target, data, 0, errorMessage) */\n      swap1\n      pop\n        /* \"@openzeppelin/contracts/utils/Address.sol\":3873:4096  function functionCall(... */\n      swap4\n      swap3\n      pop\n      pop\n      pop\n      jump\t// out\n        /* \"@openzeppelin/contracts/utils/Address.sol\":4960:5406  function functionCallWithValue(... */\n    tag_516:\n        /* \"@openzeppelin/contracts/utils/Address.sol\":5125:5137  bytes memory */\n      0x60\n        /* \"@openzeppelin/contracts/utils/Address.sol\":5182:5187  value */\n      dup3\n        /* \"@openzeppelin/contracts/utils/Address.sol\":5157:5178  address(this).balance */\n      selfbalance\n        /* \"@openzeppelin/contracts/utils/Address.sol\":5157:5187  address(this).balance >= value */\n      lt\n      iszero\n        /* \"@openzeppelin/contracts/utils/Address.sol\":5149:5230  require(address(this).balance >= value, \"Address: insufficient balance for call\") */\n      tag_518\n      jumpi\n      mload(0x40)\n      0x08c379a000000000000000000000000000000000000000000000000000000000\n      dup2\n      mstore\n      0x04\n      add\n      tag_519\n      swap1\n      tag_520\n      jump\t// in\n    tag_519:\n      mload(0x40)\n      dup1\n      swap2\n      sub\n      swap1\n      revert\n    tag_518:\n        /* \"@openzeppelin/contracts/utils/Address.sol\":5241:5253  bool success */\n      0x00\n        /* \"@openzeppelin/contracts/utils/Address.sol\":5255:5278  bytes memory returndata */\n      dup1\n        /* \"@openzeppelin/contracts/utils/Address.sol\":5282:5288  target */\n      dup7\n        /* \"@openzeppelin/contracts/utils/Address.sol\":5282:5293  target.call */\n      0xffffffffffffffffffffffffffffffffffffffff\n      and\n        /* \"@openzeppelin/contracts/utils/Address.sol\":5301:5306  value */\n      dup6\n        /* \"@openzeppelin/contracts/utils/Address.sol\":5308:5312  data */\n      dup8\n        /* \"@openzeppelin/contracts/utils/Address.sol\":5282:5313  target.call{value: value}(data) */\n      mload(0x40)\n      tag_521\n      swap2\n      swap1\n      tag_522\n      jump\t// in\n    tag_521:\n      0x00\n      mload(0x40)\n      dup1\n      dup4\n      sub\n      dup2\n      dup6\n      dup8\n      gas\n      call\n      swap3\n      pop\n      pop\n      pop\n      returndatasize\n      dup1\n      0x00\n      dup2\n      eq\n      tag_525\n      jumpi\n      mload(0x40)\n      swap2\n      pop\n      and(add(returndatasize, 0x3f), not(0x1f))\n      dup3\n      add\n      0x40\n      mstore\n      returndatasize\n      dup3\n      mstore\n      returndatasize\n      0x00\n      0x20\n      dup5\n      add\n      returndatacopy\n      jump(tag_524)\n    tag_525:\n      0x60\n      swap2\n      pop\n    tag_524:\n      pop\n        /* \"@openzeppelin/contracts/utils/Address.sol\":5240:5313  (bool success, bytes memory returndata) = target.call{value: value}(data) */\n      swap2\n      pop\n      swap2\n      pop\n        /* \"@openzeppelin/contracts/utils/Address.sol\":5330:5399  verifyCallResultFromTarget(target, success, returndata, errorMessage) */\n      tag_526\n        /* \"@openzeppelin/contracts/utils/Address.sol\":5357:5363  target */\n      dup8\n        /* \"@openzeppelin/contracts/utils/Address.sol\":5365:5372  success */\n      dup4\n        /* \"@openzeppelin/contracts/utils/Address.sol\":5374:5384  returndata */\n      dup4\n        /* \"@openzeppelin/contracts/utils/Address.sol\":5386:5398  errorMessage */\n      dup8\n        /* \"@openzeppelin/contracts/utils/Address.sol\":5330:5356  verifyCallResultFromTarget */\n      tag_527\n        /* \"@openzeppelin/contracts/utils/Address.sol\":5330:5399  verifyCallResultFromTarget(target, success, returndata, errorMessage) */\n      jump\t// in\n    tag_526:\n        /* \"@openzeppelin/contracts/utils/Address.sol\":5323:5399  return verifyCallResultFromTarget(target, success, returndata, errorMessage) */\n      swap3\n      pop\n      pop\n      pop\n        /* \"@openzeppelin/contracts/utils/Address.sol\":4960:5406  function functionCallWithValue(... */\n      swap5\n      swap4\n      pop\n      pop\n      pop\n      pop\n      jump\t// out\n        /* \"@openzeppelin/contracts/utils/Address.sol\":7466:8094  function verifyCallResultFromTarget(... */\n    tag_527:\n        /* \"@openzeppelin/contracts/utils/Address.sol\":7646:7658  bytes memory */\n      0x60\n        /* \"@openzeppelin/contracts/utils/Address.sol\":7674:7681  success */\n      dup4\n        /* \"@openzeppelin/contracts/utils/Address.sol\":7670:8088  if (success) {... */\n      iszero\n      tag_529\n      jumpi\n        /* \"@openzeppelin/contracts/utils/Address.sol\":7722:7723  0 */\n      0x00\n        /* \"@openzeppelin/contracts/utils/Address.sol\":7701:7711  returndata */\n      dup4\n        /* \"@openzeppelin/contracts/utils/Address.sol\":7701:7718  returndata.length */\n      mload\n        /* \"@openzeppelin/contracts/utils/Address.sol\":7701:7723  returndata.length == 0 */\n      eq\n        /* \"@openzeppelin/contracts/utils/Address.sol\":7697:7983  if (returndata.length == 0) {... */\n      iszero\n      tag_530\n      jumpi\n        /* \"@openzeppelin/contracts/utils/Address.sol\":7916:7934  isContract(target) */\n      tag_531\n        /* \"@openzeppelin/contracts/utils/Address.sol\":7927:7933  target */\n      dup6\n        /* \"@openzeppelin/contracts/utils/Address.sol\":7916:7926  isContract */\n      tag_532\n        /* \"@openzeppelin/contracts/utils/Address.sol\":7916:7934  isContract(target) */\n      jump\t// in\n    tag_531:\n        /* \"@openzeppelin/contracts/utils/Address.sol\":7908:7968  require(isContract(target), \"Address: call to non-contract\") */\n      tag_533\n      jumpi\n      mload(0x40)\n      0x08c379a000000000000000000000000000000000000000000000000000000000\n      dup2\n      mstore\n      0x04\n      add\n      tag_534\n      swap1\n      tag_535\n      jump\t// in\n    tag_534:\n      mload(0x40)\n      dup1\n      swap2\n      sub\n      swap1\n      revert\n    tag_533:\n        /* \"@openzeppelin/contracts/utils/Address.sol\":7697:7983  if (returndata.length == 0) {... */\n    tag_530:\n        /* \"@openzeppelin/contracts/utils/Address.sol\":8003:8013  returndata */\n      dup3\n        /* \"@openzeppelin/contracts/utils/Address.sol\":7996:8013  return returndata */\n      swap1\n      pop\n      jump(tag_528)\n        /* \"@openzeppelin/contracts/utils/Address.sol\":7670:8088  if (success) {... */\n    tag_529:\n        /* \"@openzeppelin/contracts/utils/Address.sol\":8044:8077  _revert(returndata, errorMessage) */\n      tag_537\n        /* \"@openzeppelin/contracts/utils/Address.sol\":8052:8062  returndata */\n      dup4\n        /* \"@openzeppelin/contracts/utils/Address.sol\":8064:8076  errorMessage */\n      dup4\n        /* \"@openzeppelin/contracts/utils/Address.sol\":8044:8051  _revert */\n      tag_538\n        /* \"@openzeppelin/contracts/utils/Address.sol\":8044:8077  _revert(returndata, errorMessage) */\n      jump\t// in\n    tag_537:\n        /* \"@openzeppelin/contracts/utils/Address.sol\":7466:8094  function verifyCallResultFromTarget(... */\n    tag_528:\n      swap5\n      swap4\n      pop\n      pop\n      pop\n      pop\n      jump\t// out\n        /* \"@openzeppelin/contracts/utils/Address.sol\":1175:1495  function isContract(address account) internal view returns (bool) {... */\n    tag_532:\n        /* \"@openzeppelin/contracts/utils/Address.sol\":1235:1239  bool */\n      0x00\n        /* \"@openzeppelin/contracts/utils/Address.sol\":1487:1488  0 */\n      dup1\n        /* \"@openzeppelin/contracts/utils/Address.sol\":1465:1472  account */\n      dup3\n        /* \"@openzeppelin/contracts/utils/Address.sol\":1465:1484  account.code.length */\n      0xffffffffffffffffffffffffffffffffffffffff\n      and\n      extcodesize\n        /* \"@openzeppelin/contracts/utils/Address.sol\":1465:1488  account.code.length > 0 */\n      gt\n        /* \"@openzeppelin/contracts/utils/Address.sol\":1458:1488  return account.code.length > 0 */\n      swap1\n      pop\n        /* \"@openzeppelin/contracts/utils/Address.sol\":1175:1495  function isContract(address account) internal view returns (bool) {... */\n      swap2\n      swap1\n      pop\n      jump\t// out\n        /* \"@openzeppelin/contracts/utils/Address.sol\":8616:9156  function _revert(bytes memory returndata, string memory errorMessage) private pure {... */\n    tag_538:\n        /* \"@openzeppelin/contracts/utils/Address.sol\":8795:8796  0 */\n      0x00\n        /* \"@openzeppelin/contracts/utils/Address.sol\":8775:8785  returndata */\n      dup3\n        /* \"@openzeppelin/contracts/utils/Address.sol\":8775:8792  returndata.length */\n      mload\n        /* \"@openzeppelin/contracts/utils/Address.sol\":8775:8796  returndata.length > 0 */\n      gt\n        /* \"@openzeppelin/contracts/utils/Address.sol\":8771:9150  if (returndata.length > 0) {... */\n      iszero\n      tag_541\n      jumpi\n        /* \"@openzeppelin/contracts/utils/Address.sol\":9003:9013  returndata */\n      dup2\n        /* \"@openzeppelin/contracts/utils/Address.sol\":8997:9014  mload(returndata) */\n      mload\n        /* \"@openzeppelin/contracts/utils/Address.sol\":9059:9074  returndata_size */\n      dup1\n        /* \"@openzeppelin/contracts/utils/Address.sol\":9046:9056  returndata */\n      dup4\n        /* \"@openzeppelin/contracts/utils/Address.sol\":9042:9044  32 */\n      0x20\n        /* \"@openzeppelin/contracts/utils/Address.sol\":9038:9057  add(32, returndata) */\n      add\n        /* \"@openzeppelin/contracts/utils/Address.sol\":9031:9075  revert(add(32, returndata), returndata_size) */\n      revert\n        /* \"@openzeppelin/contracts/utils/Address.sol\":8771:9150  if (returndata.length > 0) {... */\n    tag_541:\n        /* \"@openzeppelin/contracts/utils/Address.sol\":9126:9138  errorMessage */\n      dup1\n        /* \"@openzeppelin/contracts/utils/Address.sol\":9119:9139  revert(errorMessage) */\n      mload(0x40)\n      0x08c379a000000000000000000000000000000000000000000000000000000000\n      dup2\n      mstore\n      0x04\n      add\n      tag_543\n      swap2\n      swap1\n      tag_544\n      jump\t// in\n    tag_543:\n      mload(0x40)\n      dup1\n      swap2\n      sub\n      swap1\n      revert\n        /* \"#utility.yul\":7:82   */\n    tag_545:\n        /* \"#utility.yul\":40:46   */\n      0x00\n        /* \"#utility.yul\":73:75   */\n      0x40\n        /* \"#utility.yul\":67:76   */\n      mload\n        /* \"#utility.yul\":57:76   */\n      swap1\n      pop\n        /* \"#utility.yul\":7:82   */\n      swap1\n      jump\t// out\n        /* \"#utility.yul\":88:205   */\n    tag_546:\n        /* \"#utility.yul\":197:198   */\n      0x00\n        /* \"#utility.yul\":194:195   */\n      dup1\n        /* \"#utility.yul\":187:199   */\n      revert\n        /* \"#utility.yul\":211:328   */\n    tag_547:\n        /* \"#utility.yul\":320:321   */\n      0x00\n        /* \"#utility.yul\":317:318   */\n      dup1\n        /* \"#utility.yul\":310:322   */\n      revert\n        /* \"#utility.yul\":334:460   */\n    tag_548:\n        /* \"#utility.yul\":371:378   */\n      0x00\n        /* \"#utility.yul\":411:453   */\n      0xffffffffffffffffffffffffffffffffffffffff\n        /* \"#utility.yul\":404:409   */\n      dup3\n        /* \"#utility.yul\":400:454   */\n      and\n        /* \"#utility.yul\":389:454   */\n      swap1\n      pop\n        /* \"#utility.yul\":334:460   */\n      swap2\n      swap1\n      pop\n      jump\t// out\n        /* \"#utility.yul\":466:562   */\n    tag_549:\n        /* \"#utility.yul\":503:510   */\n      0x00\n        /* \"#utility.yul\":532:556   */\n      tag_631\n        /* \"#utility.yul\":550:555   */\n      dup3\n        /* \"#utility.yul\":532:556   */\n      tag_548\n      jump\t// in\n    tag_631:\n        /* \"#utility.yul\":521:556   */\n      swap1\n      pop\n        /* \"#utility.yul\":466:562   */\n      swap2\n      swap1\n      pop\n      jump\t// out\n        /* \"#utility.yul\":568:690   */\n    tag_550:\n        /* \"#utility.yul\":641:665   */\n      tag_633\n        /* \"#utility.yul\":659:664   */\n      dup2\n        /* \"#utility.yul\":641:665   */\n      tag_549\n      jump\t// in\n    tag_633:\n        /* \"#utility.yul\":634:639   */\n      dup2\n        /* \"#utility.yul\":631:666   */\n      eq\n        /* \"#utility.yul\":621:684   */\n      tag_634\n      jumpi\n        /* \"#utility.yul\":680:681   */\n      0x00\n        /* \"#utility.yul\":677:678   */\n      dup1\n        /* \"#utility.yul\":670:682   */\n      revert\n        /* \"#utility.yul\":621:684   */\n    tag_634:\n        /* \"#utility.yul\":568:690   */\n      pop\n      jump\t// out\n        /* \"#utility.yul\":696:835   */\n    tag_551:\n        /* \"#utility.yul\":742:747   */\n      0x00\n        /* \"#utility.yul\":780:786   */\n      dup2\n        /* \"#utility.yul\":767:787   */\n      calldataload\n        /* \"#utility.yul\":758:787   */\n      swap1\n      pop\n        /* \"#utility.yul\":796:829   */\n      tag_636\n        /* \"#utility.yul\":823:828   */\n      dup2\n        /* \"#utility.yul\":796:829   */\n      tag_550\n      jump\t// in\n    tag_636:\n        /* \"#utility.yul\":696:835   */\n      swap3\n      swap2\n      pop\n      pop\n      jump\t// out\n        /* \"#utility.yul\":841:918   */\n    tag_552:\n        /* \"#utility.yul\":878:885   */\n      0x00\n        /* \"#utility.yul\":907:912   */\n      dup2\n        /* \"#utility.yul\":896:912   */\n      swap1\n      pop\n        /* \"#utility.yul\":841:918   */\n      swap2\n      swap1\n      pop\n      jump\t// out\n        /* \"#utility.yul\":924:1046   */\n    tag_553:\n        /* \"#utility.yul\":997:1021   */\n      tag_639\n        /* \"#utility.yul\":1015:1020   */\n      dup2\n        /* \"#utility.yul\":997:1021   */\n      tag_552\n      jump\t// in\n    tag_639:\n        /* \"#utility.yul\":990:995   */\n      dup2\n        /* \"#utility.yul\":987:1022   */\n      eq\n        /* \"#utility.yul\":977:1040   */\n      tag_640\n      jumpi\n        /* \"#utility.yul\":1036:1037   */\n      0x00\n        /* \"#utility.yul\":1033:1034   */\n      dup1\n        /* \"#utility.yul\":1026:1038   */\n      revert\n        /* \"#utility.yul\":977:1040   */\n    tag_640:\n        /* \"#utility.yul\":924:1046   */\n      pop\n      jump\t// out\n        /* \"#utility.yul\":1052:1191   */\n    tag_554:\n        /* \"#utility.yul\":1098:1103   */\n      0x00\n        /* \"#utility.yul\":1136:1142   */\n      dup2\n        /* \"#utility.yul\":1123:1143   */\n      calldataload\n        /* \"#utility.yul\":1114:1143   */\n      swap1\n      pop\n        /* \"#utility.yul\":1152:1185   */\n      tag_642\n        /* \"#utility.yul\":1179:1184   */\n      dup2\n        /* \"#utility.yul\":1152:1185   */\n      tag_553\n      jump\t// in\n    tag_642:\n        /* \"#utility.yul\":1052:1191   */\n      swap3\n      swap2\n      pop\n      pop\n      jump\t// out\n        /* \"#utility.yul\":1197:1671   */\n    tag_42:\n        /* \"#utility.yul\":1265:1271   */\n      0x00\n        /* \"#utility.yul\":1273:1279   */\n      dup1\n        /* \"#utility.yul\":1322:1324   */\n      0x40\n        /* \"#utility.yul\":1310:1319   */\n      dup4\n        /* \"#utility.yul\":1301:1308   */\n      dup6\n        /* \"#utility.yul\":1297:1320   */\n      sub\n        /* \"#utility.yul\":1293:1325   */\n      slt\n        /* \"#utility.yul\":1290:1409   */\n      iszero\n      tag_644\n      jumpi\n        /* \"#utility.yul\":1328:1407   */\n      tag_645\n      tag_546\n      jump\t// in\n    tag_645:\n        /* \"#utility.yul\":1290:1409   */\n    tag_644:\n        /* \"#utility.yul\":1448:1449   */\n      0x00\n        /* \"#utility.yul\":1473:1526   */\n      tag_646\n        /* \"#utility.yul\":1518:1525   */\n      dup6\n        /* \"#utility.yul\":1509:1515   */\n      dup3\n        /* \"#utility.yul\":1498:1507   */\n      dup7\n        /* \"#utility.yul\":1494:1516   */\n      add\n        /* \"#utility.yul\":1473:1526   */\n      tag_551\n      jump\t// in\n    tag_646:\n        /* \"#utility.yul\":1463:1526   */\n      swap3\n      pop\n        /* \"#utility.yul\":1419:1536   */\n      pop\n        /* \"#utility.yul\":1575:1577   */\n      0x20\n        /* \"#utility.yul\":1601:1654   */\n      tag_647\n        /* \"#utility.yul\":1646:1653   */\n      dup6\n        /* \"#utility.yul\":1637:1643   */\n      dup3\n        /* \"#utility.yul\":1626:1635   */\n      dup7\n        /* \"#utility.yul\":1622:1644   */\n      add\n        /* \"#utility.yul\":1601:1654   */\n      tag_554\n      jump\t// in\n    tag_647:\n        /* \"#utility.yul\":1591:1654   */\n      swap2\n      pop\n        /* \"#utility.yul\":1546:1664   */\n      pop\n        /* \"#utility.yul\":1197:1671   */\n      swap3\n      pop\n      swap3\n      swap1\n      pop\n      jump\t// out\n        /* \"#utility.yul\":1677:1795   */\n    tag_555:\n        /* \"#utility.yul\":1764:1788   */\n      tag_649\n        /* \"#utility.yul\":1782:1787   */\n      dup2\n        /* \"#utility.yul\":1764:1788   */\n      tag_552\n      jump\t// in\n    tag_649:\n        /* \"#utility.yul\":1759:1762   */\n      dup3\n        /* \"#utility.yul\":1752:1789   */\n      mstore\n        /* \"#utility.yul\":1677:1795   */\n      pop\n      pop\n      jump\t// out\n        /* \"#utility.yul\":1801:2023   */\n    tag_45:\n        /* \"#utility.yul\":1894:1898   */\n      0x00\n        /* \"#utility.yul\":1932:1934   */\n      0x20\n        /* \"#utility.yul\":1921:1930   */\n      dup3\n        /* \"#utility.yul\":1917:1935   */\n      add\n        /* \"#utility.yul\":1909:1935   */\n      swap1\n      pop\n        /* \"#utility.yul\":1945:2016   */\n      tag_651\n        /* \"#utility.yul\":2013:2014   */\n      0x00\n        /* \"#utility.yul\":2002:2011   */\n      dup4\n        /* \"#utility.yul\":1998:2015   */\n      add\n        /* \"#utility.yul\":1989:1995   */\n      dup5\n        /* \"#utility.yul\":1945:2016   */\n      tag_555\n      jump\t// in\n    tag_651:\n        /* \"#utility.yul\":1801:2023   */\n      swap3\n      swap2\n      pop\n      pop\n      jump\t// out\n        /* \"#utility.yul\":2029:2147   */\n    tag_556:\n        /* \"#utility.yul\":2116:2140   */\n      tag_653\n        /* \"#utility.yul\":2134:2139   */\n      dup2\n        /* \"#utility.yul\":2116:2140   */\n      tag_549\n      jump\t// in\n    tag_653:\n        /* \"#utility.yul\":2111:2114   */\n      dup3\n        /* \"#utility.yul\":2104:2141   */\n      mstore\n        /* \"#utility.yul\":2029:2147   */\n      pop\n      pop\n      jump\t// out\n        /* \"#utility.yul\":2153:2375   */\n    tag_50:\n        /* \"#utility.yul\":2246:2250   */\n      0x00\n        /* \"#utility.yul\":2284:2286   */\n      0x20\n        /* \"#utility.yul\":2273:2282   */\n      dup3\n        /* \"#utility.yul\":2269:2287   */\n      add\n        /* \"#utility.yul\":2261:2287   */\n      swap1\n      pop\n        /* \"#utility.yul\":2297:2368   */\n      tag_655\n        /* \"#utility.yul\":2365:2366   */\n      0x00\n        /* \"#utility.yul\":2354:2363   */\n      dup4\n        /* \"#utility.yul\":2350:2367   */\n      add\n        /* \"#utility.yul\":2341:2347   */\n      dup5\n        /* \"#utility.yul\":2297:2368   */\n      tag_556\n      jump\t// in\n    tag_655:\n        /* \"#utility.yul\":2153:2375   */\n      swap3\n      swap2\n      pop\n      pop\n      jump\t// out\n        /* \"#utility.yul\":2381:2710   */\n    tag_54:\n        /* \"#utility.yul\":2440:2446   */\n      0x00\n        /* \"#utility.yul\":2489:2491   */\n      0x20\n        /* \"#utility.yul\":2477:2486   */\n      dup3\n        /* \"#utility.yul\":2468:2475   */\n      dup5\n        /* \"#utility.yul\":2464:2487   */\n      sub\n        /* \"#utility.yul\":2460:2492   */\n      slt\n        /* \"#utility.yul\":2457:2576   */\n      iszero\n      tag_657\n      jumpi\n        /* \"#utility.yul\":2495:2574   */\n      tag_658\n      tag_546\n      jump\t// in\n    tag_658:\n        /* \"#utility.yul\":2457:2576   */\n    tag_657:\n        /* \"#utility.yul\":2615:2616   */\n      0x00\n        /* \"#utility.yul\":2640:2693   */\n      tag_659\n        /* \"#utility.yul\":2685:2692   */\n      dup5\n        /* \"#utility.yul\":2676:2682   */\n      dup3\n        /* \"#utility.yul\":2665:2674   */\n      dup6\n        /* \"#utility.yul\":2661:2683   */\n      add\n        /* \"#utility.yul\":2640:2693   */\n      tag_551\n      jump\t// in\n    tag_659:\n        /* \"#utility.yul\":2630:2693   */\n      swap2\n      pop\n        /* \"#utility.yul\":2586:2703   */\n      pop\n        /* \"#utility.yul\":2381:2710   */\n      swap3\n      swap2\n      pop\n      pop\n      jump\t// out\n        /* \"#utility.yul\":2716:3919   */\n    tag_65:\n        /* \"#utility.yul\":2829:2835   */\n      0x00\n        /* \"#utility.yul\":2837:2843   */\n      dup1\n        /* \"#utility.yul\":2845:2851   */\n      0x00\n        /* \"#utility.yul\":2853:2859   */\n      dup1\n        /* \"#utility.yul\":2861:2867   */\n      0x00\n        /* \"#utility.yul\":2869:2875   */\n      dup1\n        /* \"#utility.yul\":2877:2883   */\n      0x00\n        /* \"#utility.yul\":2926:2929   */\n      0xe0\n        /* \"#utility.yul\":2914:2923   */\n      dup9\n        /* \"#utility.yul\":2905:2912   */\n      dup11\n        /* \"#utility.yul\":2901:2924   */\n      sub\n        /* \"#utility.yul\":2897:2930   */\n      slt\n        /* \"#utility.yul\":2894:3014   */\n      iszero\n      tag_661\n      jumpi\n        /* \"#utility.yul\":2933:3012   */\n      tag_662\n      tag_546\n      jump\t// in\n    tag_662:\n        /* \"#utility.yul\":2894:3014   */\n    tag_661:\n        /* \"#utility.yul\":3053:3054   */\n      0x00\n        /* \"#utility.yul\":3078:3131   */\n      tag_663\n        /* \"#utility.yul\":3123:3130   */\n      dup11\n        /* \"#utility.yul\":3114:3120   */\n      dup3\n        /* \"#utility.yul\":3103:3112   */\n      dup12\n        /* \"#utility.yul\":3099:3121   */\n      add\n        /* \"#utility.yul\":3078:3131   */\n      tag_551\n      jump\t// in\n    tag_663:\n        /* \"#utility.yul\":3068:3131   */\n      swap8\n      pop\n        /* \"#utility.yul\":3024:3141   */\n      pop\n        /* \"#utility.yul\":3180:3182   */\n      0x20\n        /* \"#utility.yul\":3206:3259   */\n      tag_664\n        /* \"#utility.yul\":3251:3258   */\n      dup11\n        /* \"#utility.yul\":3242:3248   */\n      dup3\n        /* \"#utility.yul\":3231:3240   */\n      dup12\n        /* \"#utility.yul\":3227:3249   */\n      add\n        /* \"#utility.yul\":3206:3259   */\n      tag_551\n      jump\t// in\n    tag_664:\n        /* \"#utility.yul\":3196:3259   */\n      swap7\n      pop\n        /* \"#utility.yul\":3151:3269   */\n      pop\n        /* \"#utility.yul\":3308:3310   */\n      0x40\n        /* \"#utility.yul\":3334:3387   */\n      tag_665\n        /* \"#utility.yul\":3379:3386   */\n      dup11\n        /* \"#utility.yul\":3370:3376   */\n      dup3\n        /* \"#utility.yul\":3359:3368   */\n      dup12\n        /* \"#utility.yul\":3355:3377   */\n      add\n        /* \"#utility.yul\":3334:3387   */\n      tag_551\n      jump\t// in\n    tag_665:\n        /* \"#utility.yul\":3324:3387   */\n      swap6\n      pop\n        /* \"#utility.yul\":3279:3397   */\n      pop\n        /* \"#utility.yul\":3436:3438   */\n      0x60\n        /* \"#utility.yul\":3462:3515   */\n      tag_666\n        /* \"#utility.yul\":3507:3514   */\n      dup11\n        /* \"#utility.yul\":3498:3504   */\n      dup3\n        /* \"#utility.yul\":3487:3496   */\n      dup12\n        /* \"#utility.yul\":3483:3505   */\n      add\n        /* \"#utility.yul\":3462:3515   */\n      tag_551\n      jump\t// in\n    tag_666:\n        /* \"#utility.yul\":3452:3515   */\n      swap5\n      pop\n        /* \"#utility.yul\":3407:3525   */\n      pop\n        /* \"#utility.yul\":3564:3567   */\n      0x80\n        /* \"#utility.yul\":3591:3644   */\n      tag_667\n        /* \"#utility.yul\":3636:3643   */\n      dup11\n        /* \"#utility.yul\":3627:3633   */\n      dup3\n        /* \"#utility.yul\":3616:3625   */\n      dup12\n        /* \"#utility.yul\":3612:3634   */\n      add\n        /* \"#utility.yul\":3591:3644   */\n      tag_551\n      jump\t// in\n    tag_667:\n        /* \"#utility.yul\":3581:3644   */\n      swap4\n      pop\n        /* \"#utility.yul\":3535:3654   */\n      pop\n        /* \"#utility.yul\":3693:3696   */\n      0xa0\n        /* \"#utility.yul\":3720:3773   */\n      tag_668\n        /* \"#utility.yul\":3765:3772   */\n      dup11\n        /* \"#utility.yul\":3756:3762   */\n      dup3\n        /* \"#utility.yul\":3745:3754   */\n      dup12\n        /* \"#utility.yul\":3741:3763   */\n      add\n        /* \"#utility.yul\":3720:3773   */\n      tag_551\n      jump\t// in\n    tag_668:\n        /* \"#utility.yul\":3710:3773   */\n      swap3\n      pop\n        /* \"#utility.yul\":3664:3783   */\n      pop\n        /* \"#utility.yul\":3822:3825   */\n      0xc0\n        /* \"#utility.yul\":3849:3902   */\n      tag_669\n        /* \"#utility.yul\":3894:3901   */\n      dup11\n        /* \"#utility.yul\":3885:3891   */\n      dup3\n        /* \"#utility.yul\":3874:3883   */\n      dup12\n        /* \"#utility.yul\":3870:3892   */\n      add\n        /* \"#utility.yul\":3849:3902   */\n      tag_551\n      jump\t// in\n    tag_669:\n        /* \"#utility.yul\":3839:3902   */\n      swap2\n      pop\n        /* \"#utility.yul\":3793:3912   */\n      pop\n        /* \"#utility.yul\":2716:3919   */\n      swap3\n      swap6\n      swap9\n      swap2\n      swap5\n      swap8\n      pop\n      swap3\n      swap6\n      pop\n      jump\t// out\n        /* \"#utility.yul\":3925:4015   */\n    tag_557:\n        /* \"#utility.yul\":3959:3966   */\n      0x00\n        /* \"#utility.yul\":4002:4007   */\n      dup2\n        /* \"#utility.yul\":3995:4008   */\n      iszero\n        /* \"#utility.yul\":3988:4009   */\n      iszero\n        /* \"#utility.yul\":3977:4009   */\n      swap1\n      pop\n        /* \"#utility.yul\":3925:4015   */\n      swap2\n      swap1\n      pop\n      jump\t// out\n        /* \"#utility.yul\":4021:4130   */\n    tag_558:\n        /* \"#utility.yul\":4102:4123   */\n      tag_672\n        /* \"#utility.yul\":4117:4122   */\n      dup2\n        /* \"#utility.yul\":4102:4123   */\n      tag_557\n      jump\t// in\n    tag_672:\n        /* \"#utility.yul\":4097:4100   */\n      dup3\n        /* \"#utility.yul\":4090:4124   */\n      mstore\n        /* \"#utility.yul\":4021:4130   */\n      pop\n      pop\n      jump\t// out\n        /* \"#utility.yul\":4136:4346   */\n    tag_83:\n        /* \"#utility.yul\":4223:4227   */\n      0x00\n        /* \"#utility.yul\":4261:4263   */\n      0x20\n        /* \"#utility.yul\":4250:4259   */\n      dup3\n        /* \"#utility.yul\":4246:4264   */\n      add\n        /* \"#utility.yul\":4238:4264   */\n      swap1\n      pop\n        /* \"#utility.yul\":4274:4339   */\n      tag_674\n        /* \"#utility.yul\":4336:4337   */\n      0x00\n        /* \"#utility.yul\":4325:4334   */\n      dup4\n        /* \"#utility.yul\":4321:4338   */\n      add\n        /* \"#utility.yul\":4312:4318   */\n      dup5\n        /* \"#utility.yul\":4274:4339   */\n      tag_558\n      jump\t// in\n    tag_674:\n        /* \"#utility.yul\":4136:4346   */\n      swap3\n      swap2\n      pop\n      pop\n      jump\t// out\n        /* \"#utility.yul\":4352:4681   */\n    tag_114:\n        /* \"#utility.yul\":4411:4417   */\n      0x00\n        /* \"#utility.yul\":4460:4462   */\n      0x20\n        /* \"#utility.yul\":4448:4457   */\n      dup3\n        /* \"#utility.yul\":4439:4446   */\n      dup5\n        /* \"#utility.yul\":4435:4458   */\n      sub\n        /* \"#utility.yul\":4431:4463   */\n      slt\n        /* \"#utility.yul\":4428:4547   */\n      iszero\n      tag_676\n      jumpi\n        /* \"#utility.yul\":4466:4545   */\n      tag_677\n      tag_546\n      jump\t// in\n    tag_677:\n        /* \"#utility.yul\":4428:4547   */\n    tag_676:\n        /* \"#utility.yul\":4586:4587   */\n      0x00\n        /* \"#utility.yul\":4611:4664   */\n      tag_678\n        /* \"#utility.yul\":4656:4663   */\n      dup5\n        /* \"#utility.yul\":4647:4653   */\n      dup3\n        /* \"#utility.yul\":4636:4645   */\n      dup6\n        /* \"#utility.yul\":4632:4654   */\n      add\n        /* \"#utility.yul\":4611:4664   */\n      tag_554\n      jump\t// in\n    tag_678:\n        /* \"#utility.yul\":4601:4664   */\n      swap2\n      pop\n        /* \"#utility.yul\":4557:4674   */\n      pop\n        /* \"#utility.yul\":4352:4681   */\n      swap3\n      swap2\n      pop\n      pop\n      jump\t// out\n        /* \"#utility.yul\":4687:5306   */\n    tag_132:\n        /* \"#utility.yul\":4764:4770   */\n      0x00\n        /* \"#utility.yul\":4772:4778   */\n      dup1\n        /* \"#utility.yul\":4780:4786   */\n      0x00\n        /* \"#utility.yul\":4829:4831   */\n      0x60\n        /* \"#utility.yul\":4817:4826   */\n      dup5\n        /* \"#utility.yul\":4808:4815   */\n      dup7\n        /* \"#utility.yul\":4804:4827   */\n      sub\n        /* \"#utility.yul\":4800:4832   */\n      slt\n        /* \"#utility.yul\":4797:4916   */\n      iszero\n      tag_680\n      jumpi\n        /* \"#utility.yul\":4835:4914   */\n      tag_681\n      tag_546\n      jump\t// in\n    tag_681:\n        /* \"#utility.yul\":4797:4916   */\n    tag_680:\n        /* \"#utility.yul\":4955:4956   */\n      0x00\n        /* \"#utility.yul\":4980:5033   */\n      tag_682\n        /* \"#utility.yul\":5025:5032   */\n      dup7\n        /* \"#utility.yul\":5016:5022   */\n      dup3\n        /* \"#utility.yul\":5005:5014   */\n      dup8\n        /* \"#utility.yul\":5001:5023   */\n      add\n        /* \"#utility.yul\":4980:5033   */\n      tag_551\n      jump\t// in\n    tag_682:\n        /* \"#utility.yul\":4970:5033   */\n      swap4\n      pop\n        /* \"#utility.yul\":4926:5043   */\n      pop\n        /* \"#utility.yul\":5082:5084   */\n      0x20\n        /* \"#utility.yul\":5108:5161   */\n      tag_683\n        /* \"#utility.yul\":5153:5160   */\n      dup7\n        /* \"#utility.yul\":5144:5150   */\n      dup3\n        /* \"#utility.yul\":5133:5142   */\n      dup8\n        /* \"#utility.yul\":5129:5151   */\n      add\n        /* \"#utility.yul\":5108:5161   */\n      tag_554\n      jump\t// in\n    tag_683:\n        /* \"#utility.yul\":5098:5161   */\n      swap3\n      pop\n        /* \"#utility.yul\":5053:5171   */\n      pop\n        /* \"#utility.yul\":5210:5212   */\n      0x40\n        /* \"#utility.yul\":5236:5289   */\n      tag_684\n        /* \"#utility.yul\":5281:5288   */\n      dup7\n        /* \"#utility.yul\":5272:5278   */\n      dup3\n        /* \"#utility.yul\":5261:5270   */\n      dup8\n        /* \"#utility.yul\":5257:5279   */\n      add\n        /* \"#utility.yul\":5236:5289   */\n      tag_554\n      jump\t// in\n    tag_684:\n        /* \"#utility.yul\":5226:5289   */\n      swap2\n      pop\n        /* \"#utility.yul\":5181:5299   */\n      pop\n        /* \"#utility.yul\":4687:5306   */\n      swap3\n      pop\n      swap3\n      pop\n      swap3\n      jump\t// out\n        /* \"#utility.yul\":5312:5481   */\n    tag_559:\n        /* \"#utility.yul\":5396:5407   */\n      0x00\n        /* \"#utility.yul\":5430:5436   */\n      dup3\n        /* \"#utility.yul\":5425:5428   */\n      dup3\n        /* \"#utility.yul\":5418:5437   */\n      mstore\n        /* \"#utility.yul\":5470:5474   */\n      0x20\n        /* \"#utility.yul\":5465:5468   */\n      dup3\n        /* \"#utility.yul\":5461:5475   */\n      add\n        /* \"#utility.yul\":5446:5475   */\n      swap1\n      pop\n        /* \"#utility.yul\":5312:5481   */\n      swap3\n      swap2\n      pop\n      pop\n      jump\t// out\n        /* \"#utility.yul\":5487:5668   */\n    tag_560:\n        /* \"#utility.yul\":5627:5660   */\n      0x5265656e7472616e637947756172643a207265656e7472616e742063616c6c00\n        /* \"#utility.yul\":5623:5624   */\n      0x00\n        /* \"#utility.yul\":5615:5621   */\n      dup3\n        /* \"#utility.yul\":5611:5625   */\n      add\n        /* \"#utility.yul\":5604:5661   */\n      mstore\n        /* \"#utility.yul\":5487:5668   */\n      pop\n      jump\t// out\n        /* \"#utility.yul\":5674:6040   */\n    tag_561:\n        /* \"#utility.yul\":5816:5819   */\n      0x00\n        /* \"#utility.yul\":5837:5904   */\n      tag_688\n        /* \"#utility.yul\":5901:5903   */\n      0x1f\n        /* \"#utility.yul\":5896:5899   */\n      dup4\n        /* \"#utility.yul\":5837:5904   */\n      tag_559\n      jump\t// in\n    tag_688:\n        /* \"#utility.yul\":5830:5904   */\n      swap2\n      pop\n        /* \"#utility.yul\":5913:6006   */\n      tag_689\n        /* \"#utility.yul\":6002:6005   */\n      dup3\n        /* \"#utility.yul\":5913:6006   */\n      tag_560\n      jump\t// in\n    tag_689:\n        /* \"#utility.yul\":6031:6033   */\n      0x20\n        /* \"#utility.yul\":6026:6029   */\n      dup3\n        /* \"#utility.yul\":6022:6034   */\n      add\n        /* \"#utility.yul\":6015:6034   */\n      swap1\n      pop\n        /* \"#utility.yul\":5674:6040   */\n      swap2\n      swap1\n      pop\n      jump\t// out\n        /* \"#utility.yul\":6046:6465   */\n    tag_178:\n        /* \"#utility.yul\":6212:6216   */\n      0x00\n        /* \"#utility.yul\":6250:6252   */\n      0x20\n        /* \"#utility.yul\":6239:6248   */\n      dup3\n        /* \"#utility.yul\":6235:6253   */\n      add\n        /* \"#utility.yul\":6227:6253   */\n      swap1\n      pop\n        /* \"#utility.yul\":6299:6308   */\n      dup2\n        /* \"#utility.yul\":6293:6297   */\n      dup2\n        /* \"#utility.yul\":6289:6309   */\n      sub\n        /* \"#utility.yul\":6285:6286   */\n      0x00\n        /* \"#utility.yul\":6274:6283   */\n      dup4\n        /* \"#utility.yul\":6270:6287   */\n      add\n        /* \"#utility.yul\":6263:6310   */\n      mstore\n        /* \"#utility.yul\":6327:6458   */\n      tag_691\n        /* \"#utility.yul\":6453:6457   */\n      dup2\n        /* \"#utility.yul\":6327:6458   */\n      tag_561\n      jump\t// in\n    tag_691:\n        /* \"#utility.yul\":6319:6458   */\n      swap1\n      pop\n        /* \"#utility.yul\":6046:6465   */\n      swap2\n      swap1\n      pop\n      jump\t// out\n        /* \"#utility.yul\":6471:6913   */\n    tag_181:\n        /* \"#utility.yul\":6620:6624   */\n      0x00\n        /* \"#utility.yul\":6658:6660   */\n      0x60\n        /* \"#utility.yul\":6647:6656   */\n      dup3\n        /* \"#utility.yul\":6643:6661   */\n      add\n        /* \"#utility.yul\":6635:6661   */\n      swap1\n      pop\n        /* \"#utility.yul\":6671:6742   */\n      tag_693\n        /* \"#utility.yul\":6739:6740   */\n      0x00\n        /* \"#utility.yul\":6728:6737   */\n      dup4\n        /* \"#utility.yul\":6724:6741   */\n      add\n        /* \"#utility.yul\":6715:6721   */\n      dup7\n        /* \"#utility.yul\":6671:6742   */\n      tag_556\n      jump\t// in\n    tag_693:\n        /* \"#utility.yul\":6752:6824   */\n      tag_694\n        /* \"#utility.yul\":6820:6822   */\n      0x20\n        /* \"#utility.yul\":6809:6818   */\n      dup4\n        /* \"#utility.yul\":6805:6823   */\n      add\n        /* \"#utility.yul\":6796:6802   */\n      dup6\n        /* \"#utility.yul\":6752:6824   */\n      tag_556\n      jump\t// in\n    tag_694:\n        /* \"#utility.yul\":6834:6906   */\n      tag_695\n        /* \"#utility.yul\":6902:6904   */\n      0x40\n        /* \"#utility.yul\":6891:6900   */\n      dup4\n        /* \"#utility.yul\":6887:6905   */\n      add\n        /* \"#utility.yul\":6878:6884   */\n      dup5\n        /* \"#utility.yul\":6834:6906   */\n      tag_555\n      jump\t// in\n    tag_695:\n        /* \"#utility.yul\":6471:6913   */\n      swap5\n      swap4\n      pop\n      pop\n      pop\n      pop\n      jump\t// out\n        /* \"#utility.yul\":6919:7062   */\n    tag_562:\n        /* \"#utility.yul\":6976:6981   */\n      0x00\n        /* \"#utility.yul\":7007:7013   */\n      dup2\n        /* \"#utility.yul\":7001:7014   */\n      mload\n        /* \"#utility.yul\":6992:7014   */\n      swap1\n      pop\n        /* \"#utility.yul\":7023:7056   */\n      tag_697\n        /* \"#utility.yul\":7050:7055   */\n      dup2\n        /* \"#utility.yul\":7023:7056   */\n      tag_553\n      jump\t// in\n    tag_697:\n        /* \"#utility.yul\":6919:7062   */\n      swap3\n      swap2\n      pop\n      pop\n      jump\t// out\n        /* \"#utility.yul\":7068:7419   */\n    tag_185:\n        /* \"#utility.yul\":7138:7144   */\n      0x00\n        /* \"#utility.yul\":7187:7189   */\n      0x20\n        /* \"#utility.yul\":7175:7184   */\n      dup3\n        /* \"#utility.yul\":7166:7173   */\n      dup5\n        /* \"#utility.yul\":7162:7185   */\n      sub\n        /* \"#utility.yul\":7158:7190   */\n      slt\n        /* \"#utility.yul\":7155:7274   */\n      iszero\n      tag_699\n      jumpi\n        /* \"#utility.yul\":7193:7272   */\n      tag_700\n      tag_546\n      jump\t// in\n    tag_700:\n        /* \"#utility.yul\":7155:7274   */\n    tag_699:\n        /* \"#utility.yul\":7313:7314   */\n      0x00\n        /* \"#utility.yul\":7338:7402   */\n      tag_701\n        /* \"#utility.yul\":7394:7401   */\n      dup5\n        /* \"#utility.yul\":7385:7391   */\n      dup3\n        /* \"#utility.yul\":7374:7383   */\n      dup6\n        /* \"#utility.yul\":7370:7392   */\n      add\n        /* \"#utility.yul\":7338:7402   */\n      tag_562\n      jump\t// in\n    tag_701:\n        /* \"#utility.yul\":7328:7402   */\n      swap2\n      pop\n        /* \"#utility.yul\":7284:7412   */\n      pop\n        /* \"#utility.yul\":7068:7419   */\n      swap3\n      swap2\n      pop\n      pop\n      jump\t// out\n        /* \"#utility.yul\":7425:7757   */\n    tag_193:\n        /* \"#utility.yul\":7546:7550   */\n      0x00\n        /* \"#utility.yul\":7584:7586   */\n      0x40\n        /* \"#utility.yul\":7573:7582   */\n      dup3\n        /* \"#utility.yul\":7569:7587   */\n      add\n        /* \"#utility.yul\":7561:7587   */\n      swap1\n      pop\n        /* \"#utility.yul\":7597:7668   */\n      tag_703\n        /* \"#utility.yul\":7665:7666   */\n      0x00\n        /* \"#utility.yul\":7654:7663   */\n      dup4\n        /* \"#utility.yul\":7650:7667   */\n      add\n        /* \"#utility.yul\":7641:7647   */\n      dup6\n        /* \"#utility.yul\":7597:7668   */\n      tag_556\n      jump\t// in\n    tag_703:\n        /* \"#utility.yul\":7678:7750   */\n      tag_704\n        /* \"#utility.yul\":7746:7748   */\n      0x20\n        /* \"#utility.yul\":7735:7744   */\n      dup4\n        /* \"#utility.yul\":7731:7749   */\n      add\n        /* \"#utility.yul\":7722:7728   */\n      dup5\n        /* \"#utility.yul\":7678:7750   */\n      tag_556\n      jump\t// in\n    tag_704:\n        /* \"#utility.yul\":7425:7757   */\n      swap4\n      swap3\n      pop\n      pop\n      pop\n      jump\t// out\n        /* \"#utility.yul\":7763:7996   */\n    tag_563:\n        /* \"#utility.yul\":7903:7937   */\n      0x496e697469616c697a61626c653a20636f6e747261637420697320616c726561\n        /* \"#utility.yul\":7899:7900   */\n      0x00\n        /* \"#utility.yul\":7891:7897   */\n      dup3\n        /* \"#utility.yul\":7887:7901   */\n      add\n        /* \"#utility.yul\":7880:7938   */\n      mstore\n        /* \"#utility.yul\":7972:7988   */\n      0x647920696e697469616c697a6564000000000000000000000000000000000000\n        /* \"#utility.yul\":7967:7969   */\n      0x20\n        /* \"#utility.yul\":7959:7965   */\n      dup3\n        /* \"#utility.yul\":7955:7970   */\n      add\n        /* \"#utility.yul\":7948:7989   */\n      mstore\n        /* \"#utility.yul\":7763:7996   */\n      pop\n      jump\t// out\n        /* \"#utility.yul\":8002:8368   */\n    tag_564:\n        /* \"#utility.yul\":8144:8147   */\n      0x00\n        /* \"#utility.yul\":8165:8232   */\n      tag_707\n        /* \"#utility.yul\":8229:8231   */\n      0x2e\n        /* \"#utility.yul\":8224:8227   */\n      dup4\n        /* \"#utility.yul\":8165:8232   */\n      tag_559\n      jump\t// in\n    tag_707:\n        /* \"#utility.yul\":8158:8232   */\n      swap2\n      pop\n        /* \"#utility.yul\":8241:8334   */\n      tag_708\n        /* \"#utility.yul\":8330:8333   */\n      dup3\n        /* \"#utility.yul\":8241:8334   */\n      tag_563\n      jump\t// in\n    tag_708:\n        /* \"#utility.yul\":8359:8361   */\n      0x40\n        /* \"#utility.yul\":8354:8357   */\n      dup3\n        /* \"#utility.yul\":8350:8362   */\n      add\n        /* \"#utility.yul\":8343:8362   */\n      swap1\n      pop\n        /* \"#utility.yul\":8002:8368   */\n      swap2\n      swap1\n      pop\n      jump\t// out\n        /* \"#utility.yul\":8374:8793   */\n    tag_211:\n        /* \"#utility.yul\":8540:8544   */\n      0x00\n        /* \"#utility.yul\":8578:8580   */\n      0x20\n        /* \"#utility.yul\":8567:8576   */\n      dup3\n        /* \"#utility.yul\":8563:8581   */\n      add\n        /* \"#utility.yul\":8555:8581   */\n      swap1\n      pop\n        /* \"#utility.yul\":8627:8636   */\n      dup2\n        /* \"#utility.yul\":8621:8625   */\n      dup2\n        /* \"#utility.yul\":8617:8637   */\n      sub\n        /* \"#utility.yul\":8613:8614   */\n      0x00\n        /* \"#utility.yul\":8602:8611   */\n      dup4\n        /* \"#utility.yul\":8598:8615   */\n      add\n        /* \"#utility.yul\":8591:8638   */\n      mstore\n        /* \"#utility.yul\":8655:8786   */\n      tag_710\n        /* \"#utility.yul\":8781:8785   */\n      dup2\n        /* \"#utility.yul\":8655:8786   */\n      tag_564\n      jump\t// in\n    tag_710:\n        /* \"#utility.yul\":8647:8786   */\n      swap1\n      pop\n        /* \"#utility.yul\":8374:8793   */\n      swap2\n      swap1\n      pop\n      jump\t// out\n        /* \"#utility.yul\":8799:8884   */\n    tag_565:\n        /* \"#utility.yul\":8844:8851   */\n      0x00\n        /* \"#utility.yul\":8873:8878   */\n      dup2\n        /* \"#utility.yul\":8862:8878   */\n      swap1\n      pop\n        /* \"#utility.yul\":8799:8884   */\n      swap2\n      swap1\n      pop\n      jump\t// out\n        /* \"#utility.yul\":8890:8976   */\n    tag_566:\n        /* \"#utility.yul\":8925:8932   */\n      0x00\n        /* \"#utility.yul\":8965:8969   */\n      0xff\n        /* \"#utility.yul\":8958:8963   */\n      dup3\n        /* \"#utility.yul\":8954:8970   */\n      and\n        /* \"#utility.yul\":8943:8970   */\n      swap1\n      pop\n        /* \"#utility.yul\":8890:8976   */\n      swap2\n      swap1\n      pop\n      jump\t// out\n        /* \"#utility.yul\":8982:9042   */\n    tag_567:\n        /* \"#utility.yul\":9010:9013   */\n      0x00\n        /* \"#utility.yul\":9031:9036   */\n      dup2\n        /* \"#utility.yul\":9024:9036   */\n      swap1\n      pop\n        /* \"#utility.yul\":8982:9042   */\n      swap2\n      swap1\n      pop\n      jump\t// out\n        /* \"#utility.yul\":9048:9202   */\n    tag_568:\n        /* \"#utility.yul\":9104:9113   */\n      0x00\n        /* \"#utility.yul\":9137:9196   */\n      tag_715\n        /* \"#utility.yul\":9153:9195   */\n      tag_716\n        /* \"#utility.yul\":9162:9194   */\n      tag_717\n        /* \"#utility.yul\":9188:9193   */\n      dup5\n        /* \"#utility.yul\":9162:9194   */\n      tag_565\n      jump\t// in\n    tag_717:\n        /* \"#utility.yul\":9153:9195   */\n      tag_567\n      jump\t// in\n    tag_716:\n        /* \"#utility.yul\":9137:9196   */\n      tag_566\n      jump\t// in\n    tag_715:\n        /* \"#utility.yul\":9124:9196   */\n      swap1\n      pop\n        /* \"#utility.yul\":9048:9202   */\n      swap2\n      swap1\n      pop\n      jump\t// out\n        /* \"#utility.yul\":9208:9351   */\n    tag_569:\n        /* \"#utility.yul\":9301:9344   */\n      tag_719\n        /* \"#utility.yul\":9338:9343   */\n      dup2\n        /* \"#utility.yul\":9301:9344   */\n      tag_568\n      jump\t// in\n    tag_719:\n        /* \"#utility.yul\":9296:9299   */\n      dup3\n        /* \"#utility.yul\":9289:9345   */\n      mstore\n        /* \"#utility.yul\":9208:9351   */\n      pop\n      pop\n      jump\t// out\n        /* \"#utility.yul\":9357:9591   */\n    tag_228:\n        /* \"#utility.yul\":9456:9460   */\n      0x00\n        /* \"#utility.yul\":9494:9496   */\n      0x20\n        /* \"#utility.yul\":9483:9492   */\n      dup3\n        /* \"#utility.yul\":9479:9497   */\n      add\n        /* \"#utility.yul\":9471:9497   */\n      swap1\n      pop\n        /* \"#utility.yul\":9507:9584   */\n      tag_721\n        /* \"#utility.yul\":9581:9582   */\n      0x00\n        /* \"#utility.yul\":9570:9579   */\n      dup4\n        /* \"#utility.yul\":9566:9583   */\n      add\n        /* \"#utility.yul\":9557:9563   */\n      dup5\n        /* \"#utility.yul\":9507:9584   */\n      tag_569\n      jump\t// in\n    tag_721:\n        /* \"#utility.yul\":9357:9591   */\n      swap3\n      swap2\n      pop\n      pop\n      jump\t// out\n        /* \"#utility.yul\":9597:9764   */\n    tag_570:\n        /* \"#utility.yul\":9737:9756   */\n      0x4365526f757465722f44697361626c6564000000000000000000000000000000\n        /* \"#utility.yul\":9733:9734   */\n      0x00\n        /* \"#utility.yul\":9725:9731   */\n      dup3\n        /* \"#utility.yul\":9721:9735   */\n      add\n        /* \"#utility.yul\":9714:9757   */\n      mstore\n        /* \"#utility.yul\":9597:9764   */\n      pop\n      jump\t// out\n        /* \"#utility.yul\":9770:10136   */\n    tag_571:\n        /* \"#utility.yul\":9912:9915   */\n      0x00\n        /* \"#utility.yul\":9933:10000   */\n      tag_724\n        /* \"#utility.yul\":9997:9999   */\n      0x11\n        /* \"#utility.yul\":9992:9995   */\n      dup4\n        /* \"#utility.yul\":9933:10000   */\n      tag_559\n      jump\t// in\n    tag_724:\n        /* \"#utility.yul\":9926:10000   */\n      swap2\n      pop\n        /* \"#utility.yul\":10009:10102   */\n      tag_725\n        /* \"#utility.yul\":10098:10101   */\n      dup3\n        /* \"#utility.yul\":10009:10102   */\n      tag_570\n      jump\t// in\n    tag_725:\n        /* \"#utility.yul\":10127:10129   */\n      0x20\n        /* \"#utility.yul\":10122:10125   */\n      dup3\n        /* \"#utility.yul\":10118:10130   */\n      add\n        /* \"#utility.yul\":10111:10130   */\n      swap1\n      pop\n        /* \"#utility.yul\":9770:10136   */\n      swap2\n      swap1\n      pop\n      jump\t// out\n        /* \"#utility.yul\":10142:10561   */\n    tag_276:\n        /* \"#utility.yul\":10308:10312   */\n      0x00\n        /* \"#utility.yul\":10346:10348   */\n      0x20\n        /* \"#utility.yul\":10335:10344   */\n      dup3\n        /* \"#utility.yul\":10331:10349   */\n      add\n        /* \"#utility.yul\":10323:10349   */\n      swap1\n      pop\n        /* \"#utility.yul\":10395:10404   */\n      dup2\n        /* \"#utility.yul\":10389:10393   */\n      dup2\n        /* \"#utility.yul\":10385:10405   */\n      sub\n        /* \"#utility.yul\":10381:10382   */\n      0x00\n        /* \"#utility.yul\":10370:10379   */\n      dup4\n        /* \"#utility.yul\":10366:10383   */\n      add\n        /* \"#utility.yul\":10359:10406   */\n      mstore\n        /* \"#utility.yul\":10423:10554   */\n      tag_727\n        /* \"#utility.yul\":10549:10553   */\n      dup2\n        /* \"#utility.yul\":10423:10554   */\n      tag_571\n      jump\t// in\n    tag_727:\n        /* \"#utility.yul\":10415:10554   */\n      swap1\n      pop\n        /* \"#utility.yul\":10142:10561   */\n      swap2\n      swap1\n      pop\n      jump\t// out\n        /* \"#utility.yul\":10567:10747   */\n    tag_290:\n        /* \"#utility.yul\":10615:10692   */\n      0x4e487b7100000000000000000000000000000000000000000000000000000000\n        /* \"#utility.yul\":10612:10613   */\n      0x00\n        /* \"#utility.yul\":10605:10693   */\n      mstore\n        /* \"#utility.yul\":10712:10716   */\n      0x41\n        /* \"#utility.yul\":10709:10710   */\n      0x04\n        /* \"#utility.yul\":10702:10717   */\n      mstore\n        /* \"#utility.yul\":10736:10740   */\n      0x24\n        /* \"#utility.yul\":10733:10734   */\n      0x00\n        /* \"#utility.yul\":10726:10741   */\n      revert\n        /* \"#utility.yul\":10753:10933   */\n    tag_294:\n        /* \"#utility.yul\":10801:10878   */\n      0x4e487b7100000000000000000000000000000000000000000000000000000000\n        /* \"#utility.yul\":10798:10799   */\n      0x00\n        /* \"#utility.yul\":10791:10879   */\n      mstore\n        /* \"#utility.yul\":10898:10902   */\n      0x32\n        /* \"#utility.yul\":10895:10896   */\n      0x04\n        /* \"#utility.yul\":10888:10903   */\n      mstore\n        /* \"#utility.yul\":10922:10926   */\n      0x24\n        /* \"#utility.yul\":10919:10920   */\n      0x00\n        /* \"#utility.yul\":10912:10927   */\n      revert\n        /* \"#utility.yul\":10939:11119   */\n    tag_572:\n        /* \"#utility.yul\":10987:11064   */\n      0x4e487b7100000000000000000000000000000000000000000000000000000000\n        /* \"#utility.yul\":10984:10985   */\n      0x00\n        /* \"#utility.yul\":10977:11065   */\n      mstore\n        /* \"#utility.yul\":11084:11088   */\n      0x11\n        /* \"#utility.yul\":11081:11082   */\n      0x04\n        /* \"#utility.yul\":11074:11089   */\n      mstore\n        /* \"#utility.yul\":11108:11112   */\n      0x24\n        /* \"#utility.yul\":11105:11106   */\n      0x00\n        /* \"#utility.yul\":11098:11113   */\n      revert\n        /* \"#utility.yul\":11125:11430   */\n    tag_298:\n        /* \"#utility.yul\":11165:11168   */\n      0x00\n        /* \"#utility.yul\":11184:11204   */\n      tag_732\n        /* \"#utility.yul\":11202:11203   */\n      dup3\n        /* \"#utility.yul\":11184:11204   */\n      tag_552\n      jump\t// in\n    tag_732:\n        /* \"#utility.yul\":11179:11204   */\n      swap2\n      pop\n        /* \"#utility.yul\":11218:11238   */\n      tag_733\n        /* \"#utility.yul\":11236:11237   */\n      dup4\n        /* \"#utility.yul\":11218:11238   */\n      tag_552\n      jump\t// in\n    tag_733:\n        /* \"#utility.yul\":11213:11238   */\n      swap3\n      pop\n        /* \"#utility.yul\":11372:11373   */\n      dup3\n        /* \"#utility.yul\":11304:11370   */\n      0xffffffffffffffffffffffffffffffffffffffffffffffffffffffffffffffff\n        /* \"#utility.yul\":11300:11374   */\n      sub\n        /* \"#utility.yul\":11297:11298   */\n      dup3\n        /* \"#utility.yul\":11294:11375   */\n      gt\n        /* \"#utility.yul\":11291:11398   */\n      iszero\n      tag_734\n      jumpi\n        /* \"#utility.yul\":11378:11396   */\n      tag_735\n      tag_572\n      jump\t// in\n    tag_735:\n        /* \"#utility.yul\":11291:11398   */\n    tag_734:\n        /* \"#utility.yul\":11422:11423   */\n      dup3\n        /* \"#utility.yul\":11419:11420   */\n      dup3\n        /* \"#utility.yul\":11415:11424   */\n      add\n        /* \"#utility.yul\":11408:11424   */\n      swap1\n      pop\n        /* \"#utility.yul\":11125:11430   */\n      swap3\n      swap2\n      pop\n      pop\n      jump\t// out\n        /* \"#utility.yul\":11436:11550   */\n    tag_573:\n        /* \"#utility.yul\":11503:11509   */\n      0x00\n        /* \"#utility.yul\":11537:11542   */\n      dup2\n        /* \"#utility.yul\":11531:11543   */\n      mload\n        /* \"#utility.yul\":11521:11543   */\n      swap1\n      pop\n        /* \"#utility.yul\":11436:11550   */\n      swap2\n      swap1\n      pop\n      jump\t// out\n        /* \"#utility.yul\":11556:11740   */\n    tag_574:\n        /* \"#utility.yul\":11655:11666   */\n      0x00\n        /* \"#utility.yul\":11689:11695   */\n      dup3\n        /* \"#utility.yul\":11684:11687   */\n      dup3\n        /* \"#utility.yul\":11677:11696   */\n      mstore\n        /* \"#utility.yul\":11729:11733   */\n      0x20\n        /* \"#utility.yul\":11724:11727   */\n      dup3\n        /* \"#utility.yul\":11720:11734   */\n      add\n        /* \"#utility.yul\":11705:11734   */\n      swap1\n      pop\n        /* \"#utility.yul\":11556:11740   */\n      swap3\n      swap2\n      pop\n      pop\n      jump\t// out\n        /* \"#utility.yul\":11746:11878   */\n    tag_575:\n        /* \"#utility.yul\":11813:11817   */\n      0x00\n        /* \"#utility.yul\":11836:11839   */\n      dup2\n        /* \"#utility.yul\":11828:11839   */\n      swap1\n      pop\n        /* \"#utility.yul\":11866:11870   */\n      0x20\n        /* \"#utility.yul\":11861:11864   */\n      dup3\n        /* \"#utility.yul\":11857:11871   */\n      add\n        /* \"#utility.yul\":11849:11871   */\n      swap1\n      pop\n        /* \"#utility.yul\":11746:11878   */\n      swap2\n      swap1\n      pop\n      jump\t// out\n        /* \"#utility.yul\":11884:11992   */\n    tag_576:\n        /* \"#utility.yul\":11961:11985   */\n      tag_740\n        /* \"#utility.yul\":11979:11984   */\n      dup2\n        /* \"#utility.yul\":11961:11985   */\n      tag_549\n      jump\t// in\n    tag_740:\n        /* \"#utility.yul\":11956:11959   */\n      dup3\n        /* \"#utility.yul\":11949:11986   */\n      mstore\n        /* \"#utility.yul\":11884:11992   */\n      pop\n      pop\n      jump\t// out\n        /* \"#utility.yul\":11998:12177   */\n    tag_577:\n        /* \"#utility.yul\":12067:12077   */\n      0x00\n        /* \"#utility.yul\":12088:12134   */\n      tag_742\n        /* \"#utility.yul\":12130:12133   */\n      dup4\n        /* \"#utility.yul\":12122:12128   */\n      dup4\n        /* \"#utility.yul\":12088:12134   */\n      tag_576\n      jump\t// in\n    tag_742:\n        /* \"#utility.yul\":12166:12170   */\n      0x20\n        /* \"#utility.yul\":12161:12164   */\n      dup4\n        /* \"#utility.yul\":12157:12171   */\n      add\n        /* \"#utility.yul\":12143:12171   */\n      swap1\n      pop\n        /* \"#utility.yul\":11998:12177   */\n      swap3\n      swap2\n      pop\n      pop\n      jump\t// out\n        /* \"#utility.yul\":12183:12296   */\n    tag_578:\n        /* \"#utility.yul\":12253:12257   */\n      0x00\n        /* \"#utility.yul\":12285:12289   */\n      0x20\n        /* \"#utility.yul\":12280:12283   */\n      dup3\n        /* \"#utility.yul\":12276:12290   */\n      add\n        /* \"#utility.yul\":12268:12290   */\n      swap1\n      pop\n        /* \"#utility.yul\":12183:12296   */\n      swap2\n      swap1\n      pop\n      jump\t// out\n        /* \"#utility.yul\":12332:13064   */\n    tag_579:\n        /* \"#utility.yul\":12451:12454   */\n      0x00\n        /* \"#utility.yul\":12480:12534   */\n      tag_745\n        /* \"#utility.yul\":12528:12533   */\n      dup3\n        /* \"#utility.yul\":12480:12534   */\n      tag_573\n      jump\t// in\n    tag_745:\n        /* \"#utility.yul\":12550:12636   */\n      tag_746\n        /* \"#utility.yul\":12629:12635   */\n      dup2\n        /* \"#utility.yul\":12624:12627   */\n      dup6\n        /* \"#utility.yul\":12550:12636   */\n      tag_574\n      jump\t// in\n    tag_746:\n        /* \"#utility.yul\":12543:12636   */\n      swap4\n      pop\n        /* \"#utility.yul\":12660:12716   */\n      tag_747\n        /* \"#utility.yul\":12710:12715   */\n      dup4\n        /* \"#utility.yul\":12660:12716   */\n      tag_575\n      jump\t// in\n    tag_747:\n        /* \"#utility.yul\":12739:12746   */\n      dup1\n        /* \"#utility.yul\":12770:12771   */\n      0x00\n        /* \"#utility.yul\":12755:13039   */\n    tag_748:\n        /* \"#utility.yul\":12780:12786   */\n      dup4\n        /* \"#utility.yul\":12777:12778   */\n      dup2\n        /* \"#utility.yul\":12774:12787   */\n      lt\n        /* \"#utility.yul\":12755:13039   */\n      iszero\n      tag_750\n      jumpi\n        /* \"#utility.yul\":12856:12862   */\n      dup2\n        /* \"#utility.yul\":12850:12863   */\n      mload\n        /* \"#utility.yul\":12883:12946   */\n      tag_751\n        /* \"#utility.yul\":12942:12945   */\n      dup9\n        /* \"#utility.yul\":12927:12940   */\n      dup3\n        /* \"#utility.yul\":12883:12946   */\n      tag_577\n      jump\t// in\n    tag_751:\n        /* \"#utility.yul\":12876:12946   */\n      swap8\n      pop\n        /* \"#utility.yul\":12969:13029   */\n      tag_752\n        /* \"#utility.yul\":13022:13028   */\n      dup4\n        /* \"#utility.yul\":12969:13029   */\n      tag_578\n      jump\t// in\n    tag_752:\n        /* \"#utility.yul\":12959:13029   */\n      swap3\n      pop\n        /* \"#utility.yul\":12815:13039   */\n      pop\n        /* \"#utility.yul\":12802:12803   */\n      0x01\n        /* \"#utility.yul\":12799:12800   */\n      dup2\n        /* \"#utility.yul\":12795:12804   */\n      add\n        /* \"#utility.yul\":12790:12804   */\n      swap1\n      pop\n        /* \"#utility.yul\":12755:13039   */\n      jump(tag_748)\n    tag_750:\n        /* \"#utility.yul\":12759:12773   */\n      pop\n        /* \"#utility.yul\":13055:13058   */\n      dup6\n        /* \"#utility.yul\":13048:13058   */\n      swap4\n      pop\n        /* \"#utility.yul\":12456:13064   */\n      pop\n      pop\n      pop\n        /* \"#utility.yul\":12332:13064   */\n      swap3\n      swap2\n      pop\n      pop\n      jump\t// out\n        /* \"#utility.yul\":13070:13885   */\n    tag_300:\n        /* \"#utility.yul\":13325:13329   */\n      0x00\n        /* \"#utility.yul\":13363:13366   */\n      0xa0\n        /* \"#utility.yul\":13352:13361   */\n      dup3\n        /* \"#utility.yul\":13348:13367   */\n      add\n        /* \"#utility.yul\":13340:13367   */\n      swap1\n      pop\n        /* \"#utility.yul\":13377:13448   */\n      tag_754\n        /* \"#utility.yul\":13445:13446   */\n      0x00\n        /* \"#utility.yul\":13434:13443   */\n      dup4\n        /* \"#utility.yul\":13430:13447   */\n      add\n        /* \"#utility.yul\":13421:13427   */\n      dup9\n        /* \"#utility.yul\":13377:13448   */\n      tag_555\n      jump\t// in\n    tag_754:\n        /* \"#utility.yul\":13458:13530   */\n      tag_755\n        /* \"#utility.yul\":13526:13528   */\n      0x20\n        /* \"#utility.yul\":13515:13524   */\n      dup4\n        /* \"#utility.yul\":13511:13529   */\n      add\n        /* \"#utility.yul\":13502:13508   */\n      dup8\n        /* \"#utility.yul\":13458:13530   */\n      tag_555\n      jump\t// in\n    tag_755:\n        /* \"#utility.yul\":13577:13586   */\n      dup2\n        /* \"#utility.yul\":13571:13575   */\n      dup2\n        /* \"#utility.yul\":13567:13587   */\n      sub\n        /* \"#utility.yul\":13562:13564   */\n      0x40\n        /* \"#utility.yul\":13551:13560   */\n      dup4\n        /* \"#utility.yul\":13547:13565   */\n      add\n        /* \"#utility.yul\":13540:13588   */\n      mstore\n        /* \"#utility.yul\":13605:13713   */\n      tag_756\n        /* \"#utility.yul\":13708:13712   */\n      dup2\n        /* \"#utility.yul\":13699:13705   */\n      dup7\n        /* \"#utility.yul\":13605:13713   */\n      tag_579\n      jump\t// in\n    tag_756:\n        /* \"#utility.yul\":13597:13713   */\n      swap1\n      pop\n        /* \"#utility.yul\":13723:13795   */\n      tag_757\n        /* \"#utility.yul\":13791:13793   */\n      0x60\n        /* \"#utility.yul\":13780:13789   */\n      dup4\n        /* \"#utility.yul\":13776:13794   */\n      add\n        /* \"#utility.yul\":13767:13773   */\n      dup6\n        /* \"#utility.yul\":13723:13795   */\n      tag_556\n      jump\t// in\n    tag_757:\n        /* \"#utility.yul\":13805:13878   */\n      tag_758\n        /* \"#utility.yul\":13873:13876   */\n      0x80\n        /* \"#utility.yul\":13862:13871   */\n      dup4\n        /* \"#utility.yul\":13858:13877   */\n      add\n        /* \"#utility.yul\":13849:13855   */\n      dup5\n        /* \"#utility.yul\":13805:13878   */\n      tag_555\n      jump\t// in\n    tag_758:\n        /* \"#utility.yul\":13070:13885   */\n      swap7\n      swap6\n      pop\n      pop\n      pop\n      pop\n      pop\n      pop\n      jump\t// out\n        /* \"#utility.yul\":13891:14008   */\n    tag_580:\n        /* \"#utility.yul\":14000:14001   */\n      0x00\n        /* \"#utility.yul\":13997:13998   */\n      dup1\n        /* \"#utility.yul\":13990:14002   */\n      revert\n        /* \"#utility.yul\":14014:14116   */\n    tag_581:\n        /* \"#utility.yul\":14055:14061   */\n      0x00\n        /* \"#utility.yul\":14106:14108   */\n      0x1f\n        /* \"#utility.yul\":14102:14109   */\n      not\n        /* \"#utility.yul\":14097:14099   */\n      0x1f\n        /* \"#utility.yul\":14090:14095   */\n      dup4\n        /* \"#utility.yul\":14086:14100   */\n      add\n        /* \"#utility.yul\":14082:14110   */\n      and\n        /* \"#utility.yul\":14072:14110   */\n      swap1\n      pop\n        /* \"#utility.yul\":14014:14116   */\n      swap2\n      swap1\n      pop\n      jump\t// out\n        /* \"#utility.yul\":14122:14403   */\n    tag_582:\n        /* \"#utility.yul\":14205:14232   */\n      tag_762\n        /* \"#utility.yul\":14227:14231   */\n      dup3\n        /* \"#utility.yul\":14205:14232   */\n      tag_581\n      jump\t// in\n    tag_762:\n        /* \"#utility.yul\":14197:14203   */\n      dup2\n        /* \"#utility.yul\":14193:14233   */\n      add\n        /* \"#utility.yul\":14335:14341   */\n      dup2\n        /* \"#utility.yul\":14323:14333   */\n      dup2\n        /* \"#utility.yul\":14320:14342   */\n      lt\n        /* \"#utility.yul\":14299:14317   */\n      0xffffffffffffffff\n        /* \"#utility.yul\":14287:14297   */\n      dup3\n        /* \"#utility.yul\":14284:14318   */\n      gt\n        /* \"#utility.yul\":14281:14343   */\n      or\n        /* \"#utility.yul\":14278:14366   */\n      iszero\n      tag_763\n      jumpi\n        /* \"#utility.yul\":14346:14364   */\n      tag_764\n      tag_290\n      jump\t// in\n    tag_764:\n        /* \"#utility.yul\":14278:14366   */\n    tag_763:\n        /* \"#utility.yul\":14386:14396   */\n      dup1\n        /* \"#utility.yul\":14382:14384   */\n      0x40\n        /* \"#utility.yul\":14375:14397   */\n      mstore\n        /* \"#utility.yul\":14165:14403   */\n      pop\n        /* \"#utility.yul\":14122:14403   */\n      pop\n      pop\n      jump\t// out\n        /* \"#utility.yul\":14409:14538   */\n    tag_583:\n        /* \"#utility.yul\":14443:14449   */\n      0x00\n        /* \"#utility.yul\":14470:14490   */\n      tag_766\n      tag_545\n      jump\t// in\n    tag_766:\n        /* \"#utility.yul\":14460:14490   */\n      swap1\n      pop\n        /* \"#utility.yul\":14499:14532   */\n      tag_767\n        /* \"#utility.yul\":14527:14531   */\n      dup3\n        /* \"#utility.yul\":14519:14525   */\n      dup3\n        /* \"#utility.yul\":14499:14532   */\n      tag_582\n      jump\t// in\n    tag_767:\n        /* \"#utility.yul\":14409:14538   */\n      swap2\n      swap1\n      pop\n      jump\t// out\n        /* \"#utility.yul\":14544:14855   */\n    tag_584:\n        /* \"#utility.yul\":14621:14625   */\n      0x00\n        /* \"#utility.yul\":14711:14729   */\n      0xffffffffffffffff\n        /* \"#utility.yul\":14703:14709   */\n      dup3\n        /* \"#utility.yul\":14700:14730   */\n      gt\n        /* \"#utility.yul\":14697:14753   */\n      iszero\n      tag_769\n      jumpi\n        /* \"#utility.yul\":14733:14751   */\n      tag_770\n      tag_290\n      jump\t// in\n    tag_770:\n        /* \"#utility.yul\":14697:14753   */\n    tag_769:\n        /* \"#utility.yul\":14783:14787   */\n      0x20\n        /* \"#utility.yul\":14775:14781   */\n      dup3\n        /* \"#utility.yul\":14771:14788   */\n      mul\n        /* \"#utility.yul\":14763:14788   */\n      swap1\n      pop\n        /* \"#utility.yul\":14843:14847   */\n      0x20\n        /* \"#utility.yul\":14837:14841   */\n      dup2\n        /* \"#utility.yul\":14833:14848   */\n      add\n        /* \"#utility.yul\":14825:14848   */\n      swap1\n      pop\n        /* \"#utility.yul\":14544:14855   */\n      swap2\n      swap1\n      pop\n      jump\t// out\n        /* \"#utility.yul\":14861:14978   */\n    tag_585:\n        /* \"#utility.yul\":14970:14971   */\n      0x00\n        /* \"#utility.yul\":14967:14968   */\n      dup1\n        /* \"#utility.yul\":14960:14972   */\n      revert\n        /* \"#utility.yul\":15001:15733   */\n    tag_586:\n        /* \"#utility.yul\":15108:15113   */\n      0x00\n        /* \"#utility.yul\":15133:15214   */\n      tag_773\n        /* \"#utility.yul\":15149:15213   */\n      tag_774\n        /* \"#utility.yul\":15206:15212   */\n      dup5\n        /* \"#utility.yul\":15149:15213   */\n      tag_584\n      jump\t// in\n    tag_774:\n        /* \"#utility.yul\":15133:15214   */\n      tag_583\n      jump\t// in\n    tag_773:\n        /* \"#utility.yul\":15124:15214   */\n      swap1\n      pop\n        /* \"#utility.yul\":15234:15239   */\n      dup1\n        /* \"#utility.yul\":15263:15269   */\n      dup4\n        /* \"#utility.yul\":15256:15261   */\n      dup3\n        /* \"#utility.yul\":15249:15270   */\n      mstore\n        /* \"#utility.yul\":15297:15301   */\n      0x20\n        /* \"#utility.yul\":15290:15295   */\n      dup3\n        /* \"#utility.yul\":15286:15302   */\n      add\n        /* \"#utility.yul\":15279:15302   */\n      swap1\n      pop\n        /* \"#utility.yul\":15350:15354   */\n      0x20\n        /* \"#utility.yul\":15342:15348   */\n      dup5\n        /* \"#utility.yul\":15338:15355   */\n      mul\n        /* \"#utility.yul\":15330:15336   */\n      dup4\n        /* \"#utility.yul\":15326:15356   */\n      add\n        /* \"#utility.yul\":15379:15382   */\n      dup6\n        /* \"#utility.yul\":15371:15377   */\n      dup2\n        /* \"#utility.yul\":15368:15383   */\n      gt\n        /* \"#utility.yul\":15365:15487   */\n      iszero\n      tag_775\n      jumpi\n        /* \"#utility.yul\":15398:15477   */\n      tag_776\n      tag_585\n      jump\t// in\n    tag_776:\n        /* \"#utility.yul\":15365:15487   */\n    tag_775:\n        /* \"#utility.yul\":15513:15519   */\n      dup4\n        /* \"#utility.yul\":15496:15727   */\n    tag_777:\n        /* \"#utility.yul\":15530:15536   */\n      dup2\n        /* \"#utility.yul\":15525:15528   */\n      dup2\n        /* \"#utility.yul\":15522:15537   */\n      lt\n        /* \"#utility.yul\":15496:15727   */\n      iszero\n      tag_779\n      jumpi\n        /* \"#utility.yul\":15605:15608   */\n      dup1\n        /* \"#utility.yul\":15634:15682   */\n      tag_780\n        /* \"#utility.yul\":15678:15681   */\n      dup9\n        /* \"#utility.yul\":15666:15676   */\n      dup3\n        /* \"#utility.yul\":15634:15682   */\n      tag_562\n      jump\t// in\n    tag_780:\n        /* \"#utility.yul\":15629:15632   */\n      dup5\n        /* \"#utility.yul\":15622:15683   */\n      mstore\n        /* \"#utility.yul\":15712:15716   */\n      0x20\n        /* \"#utility.yul\":15707:15710   */\n      dup5\n        /* \"#utility.yul\":15703:15717   */\n      add\n        /* \"#utility.yul\":15696:15717   */\n      swap4\n      pop\n        /* \"#utility.yul\":15572:15727   */\n      pop\n        /* \"#utility.yul\":15556:15560   */\n      0x20\n        /* \"#utility.yul\":15551:15554   */\n      dup2\n        /* \"#utility.yul\":15547:15561   */\n      add\n        /* \"#utility.yul\":15540:15561   */\n      swap1\n      pop\n        /* \"#utility.yul\":15496:15727   */\n      jump(tag_777)\n    tag_779:\n        /* \"#utility.yul\":15500:15521   */\n      pop\n        /* \"#utility.yul\":15114:15733   */\n      pop\n      pop\n        /* \"#utility.yul\":15001:15733   */\n      swap4\n      swap3\n      pop\n      pop\n      pop\n      jump\t// out\n        /* \"#utility.yul\":15756:16141   */\n    tag_587:\n        /* \"#utility.yul\":15838:15843   */\n      0x00\n        /* \"#utility.yul\":15887:15890   */\n      dup3\n        /* \"#utility.yul\":15880:15884   */\n      0x1f\n        /* \"#utility.yul\":15872:15878   */\n      dup4\n        /* \"#utility.yul\":15868:15885   */\n      add\n        /* \"#utility.yul\":15864:15891   */\n      slt\n        /* \"#utility.yul\":15854:15976   */\n      tag_782\n      jumpi\n        /* \"#utility.yul\":15895:15974   */\n      tag_783\n      tag_580\n      jump\t// in\n    tag_783:\n        /* \"#utility.yul\":15854:15976   */\n    tag_782:\n        /* \"#utility.yul\":16005:16011   */\n      dup2\n        /* \"#utility.yul\":15999:16012   */\n      mload\n        /* \"#utility.yul\":16030:16135   */\n      tag_784\n        /* \"#utility.yul\":16131:16134   */\n      dup5\n        /* \"#utility.yul\":16123:16129   */\n      dup3\n        /* \"#utility.yul\":16116:16120   */\n      0x20\n        /* \"#utility.yul\":16108:16114   */\n      dup7\n        /* \"#utility.yul\":16104:16121   */\n      add\n        /* \"#utility.yul\":16030:16135   */\n      tag_586\n      jump\t// in\n    tag_784:\n        /* \"#utility.yul\":16021:16135   */\n      swap2\n      pop\n        /* \"#utility.yul\":15844:16141   */\n      pop\n        /* \"#utility.yul\":15756:16141   */\n      swap3\n      swap2\n      pop\n      pop\n      jump\t// out\n        /* \"#utility.yul\":16147:16701   */\n    tag_304:\n        /* \"#utility.yul\":16242:16248   */\n      0x00\n        /* \"#utility.yul\":16291:16293   */\n      0x20\n        /* \"#utility.yul\":16279:16288   */\n      dup3\n        /* \"#utility.yul\":16270:16277   */\n      dup5\n        /* \"#utility.yul\":16266:16289   */\n      sub\n        /* \"#utility.yul\":16262:16294   */\n      slt\n        /* \"#utility.yul\":16259:16378   */\n      iszero\n      tag_786\n      jumpi\n        /* \"#utility.yul\":16297:16376   */\n      tag_787\n      tag_546\n      jump\t// in\n    tag_787:\n        /* \"#utility.yul\":16259:16378   */\n    tag_786:\n        /* \"#utility.yul\":16438:16439   */\n      0x00\n        /* \"#utility.yul\":16427:16436   */\n      dup3\n        /* \"#utility.yul\":16423:16440   */\n      add\n        /* \"#utility.yul\":16417:16441   */\n      mload\n        /* \"#utility.yul\":16468:16486   */\n      0xffffffffffffffff\n        /* \"#utility.yul\":16460:16466   */\n      dup2\n        /* \"#utility.yul\":16457:16487   */\n      gt\n        /* \"#utility.yul\":16454:16571   */\n      iszero\n      tag_788\n      jumpi\n        /* \"#utility.yul\":16490:16569   */\n      tag_789\n      tag_547\n      jump\t// in\n    tag_789:\n        /* \"#utility.yul\":16454:16571   */\n    tag_788:\n        /* \"#utility.yul\":16595:16684   */\n      tag_790\n        /* \"#utility.yul\":16676:16683   */\n      dup5\n        /* \"#utility.yul\":16667:16673   */\n      dup3\n        /* \"#utility.yul\":16656:16665   */\n      dup6\n        /* \"#utility.yul\":16652:16674   */\n      add\n        /* \"#utility.yul\":16595:16684   */\n      tag_587\n      jump\t// in\n    tag_790:\n        /* \"#utility.yul\":16585:16684   */\n      swap2\n      pop\n        /* \"#utility.yul\":16388:16694   */\n      pop\n        /* \"#utility.yul\":16147:16701   */\n      swap3\n      swap2\n      pop\n      pop\n      jump\t// out\n        /* \"#utility.yul\":16707:16878   */\n    tag_588:\n        /* \"#utility.yul\":16847:16870   */\n      0x50726f76696465723a206e6f7420616c6c6f7765640000000000000000000000\n        /* \"#utility.yul\":16843:16844   */\n      0x00\n        /* \"#utility.yul\":16835:16841   */\n      dup3\n        /* \"#utility.yul\":16831:16845   */\n      add\n        /* \"#utility.yul\":16824:16871   */\n      mstore\n        /* \"#utility.yul\":16707:16878   */\n      pop\n      jump\t// out\n        /* \"#utility.yul\":16884:17250   */\n    tag_589:\n        /* \"#utility.yul\":17026:17029   */\n      0x00\n        /* \"#utility.yul\":17047:17114   */\n      tag_793\n        /* \"#utility.yul\":17111:17113   */\n      0x15\n        /* \"#utility.yul\":17106:17109   */\n      dup4\n        /* \"#utility.yul\":17047:17114   */\n      tag_559\n      jump\t// in\n    tag_793:\n        /* \"#utility.yul\":17040:17114   */\n      swap2\n      pop\n        /* \"#utility.yul\":17123:17216   */\n      tag_794\n        /* \"#utility.yul\":17212:17215   */\n      dup3\n        /* \"#utility.yul\":17123:17216   */\n      tag_588\n      jump\t// in\n    tag_794:\n        /* \"#utility.yul\":17241:17243   */\n      0x20\n        /* \"#utility.yul\":17236:17239   */\n      dup3\n        /* \"#utility.yul\":17232:17244   */\n      add\n        /* \"#utility.yul\":17225:17244   */\n      swap1\n      pop\n        /* \"#utility.yul\":16884:17250   */\n      swap2\n      swap1\n      pop\n      jump\t// out\n        /* \"#utility.yul\":17256:17675   */\n    tag_321:\n        /* \"#utility.yul\":17422:17426   */\n      0x00\n        /* \"#utility.yul\":17460:17462   */\n      0x20\n        /* \"#utility.yul\":17449:17458   */\n      dup3\n        /* \"#utility.yul\":17445:17463   */\n      add\n        /* \"#utility.yul\":17437:17463   */\n      swap1\n      pop\n        /* \"#utility.yul\":17509:17518   */\n      dup2\n        /* \"#utility.yul\":17503:17507   */\n      dup2\n        /* \"#utility.yul\":17499:17519   */\n      sub\n        /* \"#utility.yul\":17495:17496   */\n      0x00\n        /* \"#utility.yul\":17484:17493   */\n      dup4\n        /* \"#utility.yul\":17480:17497   */\n      add\n        /* \"#utility.yul\":17473:17520   */\n      mstore\n        /* \"#utility.yul\":17537:17668   */\n      tag_796\n        /* \"#utility.yul\":17663:17667   */\n      dup2\n        /* \"#utility.yul\":17537:17668   */\n      tag_589\n      jump\t// in\n    tag_796:\n        /* \"#utility.yul\":17529:17668   */\n      swap1\n      pop\n        /* \"#utility.yul\":17256:17675   */\n      swap2\n      swap1\n      pop\n      jump\t// out\n        /* \"#utility.yul\":17681:18013   */\n    tag_329:\n        /* \"#utility.yul\":17802:17806   */\n      0x00\n        /* \"#utility.yul\":17840:17842   */\n      0x40\n        /* \"#utility.yul\":17829:17838   */\n      dup3\n        /* \"#utility.yul\":17825:17843   */\n      add\n        /* \"#utility.yul\":17817:17843   */\n      swap1\n      pop\n        /* \"#utility.yul\":17853:17924   */\n      tag_798\n        /* \"#utility.yul\":17921:17922   */\n      0x00\n        /* \"#utility.yul\":17910:17919   */\n      dup4\n        /* \"#utility.yul\":17906:17923   */\n      add\n        /* \"#utility.yul\":17897:17903   */\n      dup6\n        /* \"#utility.yul\":17853:17924   */\n      tag_556\n      jump\t// in\n    tag_798:\n        /* \"#utility.yul\":17934:18006   */\n      tag_799\n        /* \"#utility.yul\":18002:18004   */\n      0x20\n        /* \"#utility.yul\":17991:18000   */\n      dup4\n        /* \"#utility.yul\":17987:18005   */\n      add\n        /* \"#utility.yul\":17978:17984   */\n      dup5\n        /* \"#utility.yul\":17934:18006   */\n      tag_555\n      jump\t// in\n    tag_799:\n        /* \"#utility.yul\":17681:18013   */\n      swap4\n      swap3\n      pop\n      pop\n      pop\n      jump\t// out\n        /* \"#utility.yul\":18019:18104   */\n    tag_590:\n        /* \"#utility.yul\":18064:18071   */\n      0x00\n        /* \"#utility.yul\":18093:18098   */\n      dup2\n        /* \"#utility.yul\":18082:18098   */\n      swap1\n      pop\n        /* \"#utility.yul\":18019:18104   */\n      swap2\n      swap1\n      pop\n      jump\t// out\n        /* \"#utility.yul\":18110:18268   */\n    tag_591:\n        /* \"#utility.yul\":18168:18177   */\n      0x00\n        /* \"#utility.yul\":18201:18262   */\n      tag_802\n        /* \"#utility.yul\":18219:18261   */\n      tag_803\n        /* \"#utility.yul\":18228:18260   */\n      tag_804\n        /* \"#utility.yul\":18254:18259   */\n      dup5\n        /* \"#utility.yul\":18228:18260   */\n      tag_590\n      jump\t// in\n    tag_804:\n        /* \"#utility.yul\":18219:18261   */\n      tag_567\n      jump\t// in\n    tag_803:\n        /* \"#utility.yul\":18201:18262   */\n      tag_552\n      jump\t// in\n    tag_802:\n        /* \"#utility.yul\":18188:18262   */\n      swap1\n      pop\n        /* \"#utility.yul\":18110:18268   */\n      swap2\n      swap1\n      pop\n      jump\t// out\n        /* \"#utility.yul\":18274:18421   */\n    tag_592:\n        /* \"#utility.yul\":18369:18414   */\n      tag_806\n        /* \"#utility.yul\":18408:18413   */\n      dup2\n        /* \"#utility.yul\":18369:18414   */\n      tag_591\n      jump\t// in\n    tag_806:\n        /* \"#utility.yul\":18364:18367   */\n      dup3\n        /* \"#utility.yul\":18357:18415   */\n      mstore\n        /* \"#utility.yul\":18274:18421   */\n      pop\n      pop\n      jump\t// out\n        /* \"#utility.yul\":18427:18775   */\n    tag_334:\n        /* \"#utility.yul\":18556:18560   */\n      0x00\n        /* \"#utility.yul\":18594:18596   */\n      0x40\n        /* \"#utility.yul\":18583:18592   */\n      dup3\n        /* \"#utility.yul\":18579:18597   */\n      add\n        /* \"#utility.yul\":18571:18597   */\n      swap1\n      pop\n        /* \"#utility.yul\":18607:18678   */\n      tag_808\n        /* \"#utility.yul\":18675:18676   */\n      0x00\n        /* \"#utility.yul\":18664:18673   */\n      dup4\n        /* \"#utility.yul\":18660:18677   */\n      add\n        /* \"#utility.yul\":18651:18657   */\n      dup6\n        /* \"#utility.yul\":18607:18678   */\n      tag_555\n      jump\t// in\n    tag_808:\n        /* \"#utility.yul\":18688:18768   */\n      tag_809\n        /* \"#utility.yul\":18764:18766   */\n      0x20\n        /* \"#utility.yul\":18753:18762   */\n      dup4\n        /* \"#utility.yul\":18749:18767   */\n      add\n        /* \"#utility.yul\":18740:18746   */\n      dup5\n        /* \"#utility.yul\":18688:18768   */\n      tag_592\n      jump\t// in\n    tag_809:\n        /* \"#utility.yul\":18427:18775   */\n      swap4\n      swap3\n      pop\n      pop\n      pop\n      jump\t// out\n        /* \"#utility.yul\":18781:18951   */\n    tag_593:\n        /* \"#utility.yul\":18921:18943   */\n      0x686173206e6f7420676f7420612070726f666974000000000000000000000000\n        /* \"#utility.yul\":18917:18918   */\n      0x00\n        /* \"#utility.yul\":18909:18915   */\n      dup3\n        /* \"#utility.yul\":18905:18919   */\n      add\n        /* \"#utility.yul\":18898:18944   */\n      mstore\n        /* \"#utility.yul\":18781:18951   */\n      pop\n      jump\t// out\n        /* \"#utility.yul\":18957:19323   */\n    tag_594:\n        /* \"#utility.yul\":19099:19102   */\n      0x00\n        /* \"#utility.yul\":19120:19187   */\n      tag_812\n        /* \"#utility.yul\":19184:19186   */\n      0x14\n        /* \"#utility.yul\":19179:19182   */\n      dup4\n        /* \"#utility.yul\":19120:19187   */\n      tag_559\n      jump\t// in\n    tag_812:\n        /* \"#utility.yul\":19113:19187   */\n      swap2\n      pop\n        /* \"#utility.yul\":19196:19289   */\n      tag_813\n        /* \"#utility.yul\":19285:19288   */\n      dup3\n        /* \"#utility.yul\":19196:19289   */\n      tag_593\n      jump\t// in\n    tag_813:\n        /* \"#utility.yul\":19314:19316   */\n      0x20\n        /* \"#utility.yul\":19309:19312   */\n      dup3\n        /* \"#utility.yul\":19305:19317   */\n      add\n        /* \"#utility.yul\":19298:19317   */\n      swap1\n      pop\n        /* \"#utility.yul\":18957:19323   */\n      swap2\n      swap1\n      pop\n      jump\t// out\n        /* \"#utility.yul\":19329:19748   */\n    tag_341:\n        /* \"#utility.yul\":19495:19499   */\n      0x00\n        /* \"#utility.yul\":19533:19535   */\n      0x20\n        /* \"#utility.yul\":19522:19531   */\n      dup3\n        /* \"#utility.yul\":19518:19536   */\n      add\n        /* \"#utility.yul\":19510:19536   */\n      swap1\n      pop\n        /* \"#utility.yul\":19582:19591   */\n      dup2\n        /* \"#utility.yul\":19576:19580   */\n      dup2\n        /* \"#utility.yul\":19572:19592   */\n      sub\n        /* \"#utility.yul\":19568:19569   */\n      0x00\n        /* \"#utility.yul\":19557:19566   */\n      dup4\n        /* \"#utility.yul\":19553:19570   */\n      add\n        /* \"#utility.yul\":19546:19593   */\n      mstore\n        /* \"#utility.yul\":19610:19741   */\n      tag_815\n        /* \"#utility.yul\":19736:19740   */\n      dup2\n        /* \"#utility.yul\":19610:19741   */\n      tag_594\n      jump\t// in\n    tag_815:\n        /* \"#utility.yul\":19602:19741   */\n      swap1\n      pop\n        /* \"#utility.yul\":19329:19748   */\n      swap2\n      swap1\n      pop\n      jump\t// out\n        /* \"#utility.yul\":19754:19923   */\n    tag_595:\n        /* \"#utility.yul\":19894:19915   */\n      0x696e73756666696369656e7420616d6f756e7400000000000000000000000000\n        /* \"#utility.yul\":19890:19891   */\n      0x00\n        /* \"#utility.yul\":19882:19888   */\n      dup3\n        /* \"#utility.yul\":19878:19892   */\n      add\n        /* \"#utility.yul\":19871:19916   */\n      mstore\n        /* \"#utility.yul\":19754:19923   */\n      pop\n      jump\t// out\n        /* \"#utility.yul\":19929:20295   */\n    tag_596:\n        /* \"#utility.yul\":20071:20074   */\n      0x00\n        /* \"#utility.yul\":20092:20159   */\n      tag_818\n        /* \"#utility.yul\":20156:20158   */\n      0x13\n        /* \"#utility.yul\":20151:20154   */\n      dup4\n        /* \"#utility.yul\":20092:20159   */\n      tag_559\n      jump\t// in\n    tag_818:\n        /* \"#utility.yul\":20085:20159   */\n      swap2\n      pop\n        /* \"#utility.yul\":20168:20261   */\n      tag_819\n        /* \"#utility.yul\":20257:20260   */\n      dup3\n        /* \"#utility.yul\":20168:20261   */\n      tag_595\n      jump\t// in\n    tag_819:\n        /* \"#utility.yul\":20286:20288   */\n      0x20\n        /* \"#utility.yul\":20281:20284   */\n      dup3\n        /* \"#utility.yul\":20277:20289   */\n      add\n        /* \"#utility.yul\":20270:20289   */\n      swap1\n      pop\n        /* \"#utility.yul\":19929:20295   */\n      swap2\n      swap1\n      pop\n      jump\t// out\n        /* \"#utility.yul\":20301:20720   */\n    tag_348:\n        /* \"#utility.yul\":20467:20471   */\n      0x00\n        /* \"#utility.yul\":20505:20507   */\n      0x20\n        /* \"#utility.yul\":20494:20503   */\n      dup3\n        /* \"#utility.yul\":20490:20508   */\n      add\n        /* \"#utility.yul\":20482:20508   */\n      swap1\n      pop\n        /* \"#utility.yul\":20554:20563   */\n      dup2\n        /* \"#utility.yul\":20548:20552   */\n      dup2\n        /* \"#utility.yul\":20544:20564   */\n      sub\n        /* \"#utility.yul\":20540:20541   */\n      0x00\n        /* \"#utility.yul\":20529:20538   */\n      dup4\n        /* \"#utility.yul\":20525:20542   */\n      add\n        /* \"#utility.yul\":20518:20565   */\n      mstore\n        /* \"#utility.yul\":20582:20713   */\n      tag_821\n        /* \"#utility.yul\":20708:20712   */\n      dup2\n        /* \"#utility.yul\":20582:20713   */\n      tag_596\n      jump\t// in\n    tag_821:\n        /* \"#utility.yul\":20574:20713   */\n      swap1\n      pop\n        /* \"#utility.yul\":20301:20720   */\n      swap2\n      swap1\n      pop\n      jump\t// out\n        /* \"#utility.yul\":20726:20917   */\n    tag_352:\n        /* \"#utility.yul\":20766:20770   */\n      0x00\n        /* \"#utility.yul\":20786:20806   */\n      tag_823\n        /* \"#utility.yul\":20804:20805   */\n      dup3\n        /* \"#utility.yul\":20786:20806   */\n      tag_552\n      jump\t// in\n    tag_823:\n        /* \"#utility.yul\":20781:20806   */\n      swap2\n      pop\n        /* \"#utility.yul\":20820:20840   */\n      tag_824\n        /* \"#utility.yul\":20838:20839   */\n      dup4\n        /* \"#utility.yul\":20820:20840   */\n      tag_552\n      jump\t// in\n    tag_824:\n        /* \"#utility.yul\":20815:20840   */\n      swap3\n      pop\n        /* \"#utility.yul\":20859:20860   */\n      dup3\n        /* \"#utility.yul\":20856:20857   */\n      dup3\n        /* \"#utility.yul\":20853:20861   */\n      lt\n        /* \"#utility.yul\":20850:20884   */\n      iszero\n      tag_825\n      jumpi\n        /* \"#utility.yul\":20864:20882   */\n      tag_826\n      tag_572\n      jump\t// in\n    tag_826:\n        /* \"#utility.yul\":20850:20884   */\n    tag_825:\n        /* \"#utility.yul\":20909:20910   */\n      dup3\n        /* \"#utility.yul\":20906:20907   */\n      dup3\n        /* \"#utility.yul\":20902:20911   */\n      sub\n        /* \"#utility.yul\":20894:20911   */\n      swap1\n      pop\n        /* \"#utility.yul\":20726:20917   */\n      swap3\n      swap2\n      pop\n      pop\n      jump\t// out\n        /* \"#utility.yul\":20923:21085   */\n    tag_597:\n        /* \"#utility.yul\":21063:21077   */\n      0x4445582044495341424c45440000000000000000000000000000000000000000\n        /* \"#utility.yul\":21059:21060   */\n      0x00\n        /* \"#utility.yul\":21051:21057   */\n      dup3\n        /* \"#utility.yul\":21047:21061   */\n      add\n        /* \"#utility.yul\":21040:21078   */\n      mstore\n        /* \"#utility.yul\":20923:21085   */\n      pop\n      jump\t// out\n        /* \"#utility.yul\":21091:21457   */\n    tag_598:\n        /* \"#utility.yul\":21233:21236   */\n      0x00\n        /* \"#utility.yul\":21254:21321   */\n      tag_829\n        /* \"#utility.yul\":21318:21320   */\n      0x0c\n        /* \"#utility.yul\":21313:21316   */\n      dup4\n        /* \"#utility.yul\":21254:21321   */\n      tag_559\n      jump\t// in\n    tag_829:\n        /* \"#utility.yul\":21247:21321   */\n      swap2\n      pop\n        /* \"#utility.yul\":21330:21423   */\n      tag_830\n        /* \"#utility.yul\":21419:21422   */\n      dup3\n        /* \"#utility.yul\":21330:21423   */\n      tag_597\n      jump\t// in\n    tag_830:\n        /* \"#utility.yul\":21448:21450   */\n      0x20\n        /* \"#utility.yul\":21443:21446   */\n      dup3\n        /* \"#utility.yul\":21439:21451   */\n      add\n        /* \"#utility.yul\":21432:21451   */\n      swap1\n      pop\n        /* \"#utility.yul\":21091:21457   */\n      swap2\n      swap1\n      pop\n      jump\t// out\n        /* \"#utility.yul\":21463:21882   */\n    tag_377:\n        /* \"#utility.yul\":21629:21633   */\n      0x00\n        /* \"#utility.yul\":21667:21669   */\n      0x20\n        /* \"#utility.yul\":21656:21665   */\n      dup3\n        /* \"#utility.yul\":21652:21670   */\n      add\n        /* \"#utility.yul\":21644:21670   */\n      swap1\n      pop\n        /* \"#utility.yul\":21716:21725   */\n      dup2\n        /* \"#utility.yul\":21710:21714   */\n      dup2\n        /* \"#utility.yul\":21706:21726   */\n      sub\n        /* \"#utility.yul\":21702:21703   */\n      0x00\n        /* \"#utility.yul\":21691:21700   */\n      dup4\n        /* \"#utility.yul\":21687:21704   */\n      add\n        /* \"#utility.yul\":21680:21727   */\n      mstore\n        /* \"#utility.yul\":21744:21875   */\n      tag_832\n        /* \"#utility.yul\":21870:21874   */\n      dup2\n        /* \"#utility.yul\":21744:21875   */\n      tag_598\n      jump\t// in\n    tag_832:\n        /* \"#utility.yul\":21736:21875   */\n      swap1\n      pop\n        /* \"#utility.yul\":21463:21882   */\n      swap2\n      swap1\n      pop\n      jump\t// out\n        /* \"#utility.yul\":21888:22123   */\n    tag_599:\n        /* \"#utility.yul\":22028:22062   */\n      0x696e73756666696369656e7420616d6f756e74206f66204365726f73526f7574\n        /* \"#utility.yul\":22024:22025   */\n      0x00\n        /* \"#utility.yul\":22016:22022   */\n      dup3\n        /* \"#utility.yul\":22012:22026   */\n      add\n        /* \"#utility.yul\":22005:22063   */\n      mstore\n        /* \"#utility.yul\":22097:22115   */\n      0x657220696e206365727420746f6b656e00000000000000000000000000000000\n        /* \"#utility.yul\":22092:22094   */\n      0x20\n        /* \"#utility.yul\":22084:22090   */\n      dup3\n        /* \"#utility.yul\":22080:22095   */\n      add\n        /* \"#utility.yul\":22073:22116   */\n      mstore\n        /* \"#utility.yul\":21888:22123   */\n      pop\n      jump\t// out\n        /* \"#utility.yul\":22129:22495   */\n    tag_600:\n        /* \"#utility.yul\":22271:22274   */\n      0x00\n        /* \"#utility.yul\":22292:22359   */\n      tag_835\n        /* \"#utility.yul\":22356:22358   */\n      0x30\n        /* \"#utility.yul\":22351:22354   */\n      dup4\n        /* \"#utility.yul\":22292:22359   */\n      tag_559\n      jump\t// in\n    tag_835:\n        /* \"#utility.yul\":22285:22359   */\n      swap2\n      pop\n        /* \"#utility.yul\":22368:22461   */\n      tag_836\n        /* \"#utility.yul\":22457:22460   */\n      dup3\n        /* \"#utility.yul\":22368:22461   */\n      tag_599\n      jump\t// in\n    tag_836:\n        /* \"#utility.yul\":22486:22488   */\n      0x40\n        /* \"#utility.yul\":22481:22484   */\n      dup3\n        /* \"#utility.yul\":22477:22489   */\n      add\n        /* \"#utility.yul\":22470:22489   */\n      swap1\n      pop\n        /* \"#utility.yul\":22129:22495   */\n      swap2\n      swap1\n      pop\n      jump\t// out\n        /* \"#utility.yul\":22501:22920   */\n    tag_384:\n        /* \"#utility.yul\":22667:22671   */\n      0x00\n        /* \"#utility.yul\":22705:22707   */\n      0x20\n        /* \"#utility.yul\":22694:22703   */\n      dup3\n        /* \"#utility.yul\":22690:22708   */\n      add\n        /* \"#utility.yul\":22682:22708   */\n      swap1\n      pop\n        /* \"#utility.yul\":22754:22763   */\n      dup2\n        /* \"#utility.yul\":22748:22752   */\n      dup2\n        /* \"#utility.yul\":22744:22764   */\n      sub\n        /* \"#utility.yul\":22740:22741   */\n      0x00\n        /* \"#utility.yul\":22729:22738   */\n      dup4\n        /* \"#utility.yul\":22725:22742   */\n      add\n        /* \"#utility.yul\":22718:22765   */\n      mstore\n        /* \"#utility.yul\":22782:22913   */\n      tag_838\n        /* \"#utility.yul\":22908:22912   */\n      dup2\n        /* \"#utility.yul\":22782:22913   */\n      tag_600\n      jump\t// in\n    tag_838:\n        /* \"#utility.yul\":22774:22913   */\n      swap1\n      pop\n        /* \"#utility.yul\":22501:22920   */\n      swap2\n      swap1\n      pop\n      jump\t// out\n        /* \"#utility.yul\":22926:23258   */\n    tag_393:\n        /* \"#utility.yul\":23047:23051   */\n      0x00\n        /* \"#utility.yul\":23085:23087   */\n      0x40\n        /* \"#utility.yul\":23074:23083   */\n      dup3\n        /* \"#utility.yul\":23070:23088   */\n      add\n        /* \"#utility.yul\":23062:23088   */\n      swap1\n      pop\n        /* \"#utility.yul\":23098:23169   */\n      tag_840\n        /* \"#utility.yul\":23166:23167   */\n      0x00\n        /* \"#utility.yul\":23155:23164   */\n      dup4\n        /* \"#utility.yul\":23151:23168   */\n      add\n        /* \"#utility.yul\":23142:23148   */\n      dup6\n        /* \"#utility.yul\":23098:23169   */\n      tag_555\n      jump\t// in\n    tag_840:\n        /* \"#utility.yul\":23179:23251   */\n      tag_841\n        /* \"#utility.yul\":23247:23249   */\n      0x20\n        /* \"#utility.yul\":23236:23245   */\n      dup4\n        /* \"#utility.yul\":23232:23250   */\n      add\n        /* \"#utility.yul\":23223:23229   */\n      dup5\n        /* \"#utility.yul\":23179:23251   */\n      tag_555\n      jump\t// in\n    tag_841:\n        /* \"#utility.yul\":22926:23258   */\n      swap4\n      swap3\n      pop\n      pop\n      pop\n      jump\t// out\n        /* \"#utility.yul\":23264:23489   */\n    tag_601:\n        /* \"#utility.yul\":23404:23438   */\n      0x4f776e61626c653a206e6577206f776e657220697320746865207a65726f2061\n        /* \"#utility.yul\":23400:23401   */\n      0x00\n        /* \"#utility.yul\":23392:23398   */\n      dup3\n        /* \"#utility.yul\":23388:23402   */\n      add\n        /* \"#utility.yul\":23381:23439   */\n      mstore\n        /* \"#utility.yul\":23473:23481   */\n      0x6464726573730000000000000000000000000000000000000000000000000000\n        /* \"#utility.yul\":23468:23470   */\n      0x20\n        /* \"#utility.yul\":23460:23466   */\n      dup3\n        /* \"#utility.yul\":23456:23471   */\n      add\n        /* \"#utility.yul\":23449:23482   */\n      mstore\n        /* \"#utility.yul\":23264:23489   */\n      pop\n      jump\t// out\n        /* \"#utility.yul\":23495:23861   */\n    tag_602:\n        /* \"#utility.yul\":23637:23640   */\n      0x00\n        /* \"#utility.yul\":23658:23725   */\n      tag_844\n        /* \"#utility.yul\":23722:23724   */\n      0x26\n        /* \"#utility.yul\":23717:23720   */\n      dup4\n        /* \"#utility.yul\":23658:23725   */\n      tag_559\n      jump\t// in\n    tag_844:\n        /* \"#utility.yul\":23651:23725   */\n      swap2\n      pop\n        /* \"#utility.yul\":23734:23827   */\n      tag_845\n        /* \"#utility.yul\":23823:23826   */\n      dup3\n        /* \"#utility.yul\":23734:23827   */\n      tag_601\n      jump\t// in\n    tag_845:\n        /* \"#utility.yul\":23852:23854   */\n      0x40\n        /* \"#utility.yul\":23847:23850   */\n      dup3\n        /* \"#utility.yul\":23843:23855   */\n      add\n        /* \"#utility.yul\":23836:23855   */\n      swap1\n      pop\n        /* \"#utility.yul\":23495:23861   */\n      swap2\n      swap1\n      pop\n      jump\t// out\n        /* \"#utility.yul\":23867:24286   */\n    tag_417:\n        /* \"#utility.yul\":24033:24037   */\n      0x00\n        /* \"#utility.yul\":24071:24073   */\n      0x20\n        /* \"#utility.yul\":24060:24069   */\n      dup3\n        /* \"#utility.yul\":24056:24074   */\n      add\n        /* \"#utility.yul\":24048:24074   */\n      swap1\n      pop\n        /* \"#utility.yul\":24120:24129   */\n      dup2\n        /* \"#utility.yul\":24114:24118   */\n      dup2\n        /* \"#utility.yul\":24110:24130   */\n      sub\n        /* \"#utility.yul\":24106:24107   */\n      0x00\n        /* \"#utility.yul\":24095:24104   */\n      dup4\n        /* \"#utility.yul\":24091:24108   */\n      add\n        /* \"#utility.yul\":24084:24131   */\n      mstore\n        /* \"#utility.yul\":24148:24279   */\n      tag_847\n        /* \"#utility.yul\":24274:24278   */\n      dup2\n        /* \"#utility.yul\":24148:24279   */\n      tag_602\n      jump\t// in\n    tag_847:\n        /* \"#utility.yul\":24140:24279   */\n      swap1\n      pop\n        /* \"#utility.yul\":23867:24286   */\n      swap2\n      swap1\n      pop\n      jump\t// out\n        /* \"#utility.yul\":24292:24524   */\n    tag_603:\n        /* \"#utility.yul\":24432:24466   */\n      0x76616c7565206d7573742062652067726561746572207468616e206d696e2075\n        /* \"#utility.yul\":24428:24429   */\n      0x00\n        /* \"#utility.yul\":24420:24426   */\n      dup3\n        /* \"#utility.yul\":24416:24430   */\n      add\n        /* \"#utility.yul\":24409:24467   */\n      mstore\n        /* \"#utility.yul\":24501:24516   */\n      0x6e7374616b6520616d6f756e7400000000000000000000000000000000000000\n        /* \"#utility.yul\":24496:24498   */\n      0x20\n        /* \"#utility.yul\":24488:24494   */\n      dup3\n        /* \"#utility.yul\":24484:24499   */\n      add\n        /* \"#utility.yul\":24477:24517   */\n      mstore\n        /* \"#utility.yul\":24292:24524   */\n      pop\n      jump\t// out\n        /* \"#utility.yul\":24530:24896   */\n    tag_604:\n        /* \"#utility.yul\":24672:24675   */\n      0x00\n        /* \"#utility.yul\":24693:24760   */\n      tag_850\n        /* \"#utility.yul\":24757:24759   */\n      0x2d\n        /* \"#utility.yul\":24752:24755   */\n      dup4\n        /* \"#utility.yul\":24693:24760   */\n      tag_559\n      jump\t// in\n    tag_850:\n        /* \"#utility.yul\":24686:24760   */\n      swap2\n      pop\n        /* \"#utility.yul\":24769:24862   */\n      tag_851\n        /* \"#utility.yul\":24858:24861   */\n      dup3\n        /* \"#utility.yul\":24769:24862   */\n      tag_603\n      jump\t// in\n    tag_851:\n        /* \"#utility.yul\":24887:24889   */\n      0x40\n        /* \"#utility.yul\":24882:24885   */\n      dup3\n        /* \"#utility.yul\":24878:24890   */\n      add\n        /* \"#utility.yul\":24871:24890   */\n      swap1\n      pop\n        /* \"#utility.yul\":24530:24896   */\n      swap2\n      swap1\n      pop\n      jump\t// out\n        /* \"#utility.yul\":24902:25321   */\n    tag_433:\n        /* \"#utility.yul\":25068:25072   */\n      0x00\n        /* \"#utility.yul\":25106:25108   */\n      0x20\n        /* \"#utility.yul\":25095:25104   */\n      dup3\n        /* \"#utility.yul\":25091:25109   */\n      add\n        /* \"#utility.yul\":25083:25109   */\n      swap1\n      pop\n        /* \"#utility.yul\":25155:25164   */\n      dup2\n        /* \"#utility.yul\":25149:25153   */\n      dup2\n        /* \"#utility.yul\":25145:25165   */\n      sub\n        /* \"#utility.yul\":25141:25142   */\n      0x00\n        /* \"#utility.yul\":25130:25139   */\n      dup4\n        /* \"#utility.yul\":25126:25143   */\n      add\n        /* \"#utility.yul\":25119:25166   */\n      mstore\n        /* \"#utility.yul\":25183:25314   */\n      tag_853\n        /* \"#utility.yul\":25309:25313   */\n      dup2\n        /* \"#utility.yul\":25183:25314   */\n      tag_604\n      jump\t// in\n    tag_853:\n        /* \"#utility.yul\":25175:25314   */\n      swap1\n      pop\n        /* \"#utility.yul\":24902:25321   */\n      swap2\n      swap1\n      pop\n      jump\t// out\n        /* \"#utility.yul\":25327:25557   */\n    tag_605:\n        /* \"#utility.yul\":25467:25501   */\n      0x496e697469616c697a61626c653a20636f6e7472616374206973206e6f742069\n        /* \"#utility.yul\":25463:25464   */\n      0x00\n        /* \"#utility.yul\":25455:25461   */\n      dup3\n        /* \"#utility.yul\":25451:25465   */\n      add\n        /* \"#utility.yul\":25444:25502   */\n      mstore\n        /* \"#utility.yul\":25536:25549   */\n      0x6e697469616c697a696e67000000000000000000000000000000000000000000\n        /* \"#utility.yul\":25531:25533   */\n      0x20\n        /* \"#utility.yul\":25523:25529   */\n      dup3\n        /* \"#utility.yul\":25519:25534   */\n      add\n        /* \"#utility.yul\":25512:25550   */\n      mstore\n        /* \"#utility.yul\":25327:25557   */\n      pop\n      jump\t// out\n        /* \"#utility.yul\":25563:25929   */\n    tag_606:\n        /* \"#utility.yul\":25705:25708   */\n      0x00\n        /* \"#utility.yul\":25726:25793   */\n      tag_856\n        /* \"#utility.yul\":25790:25792   */\n      0x2b\n        /* \"#utility.yul\":25785:25788   */\n      dup4\n        /* \"#utility.yul\":25726:25793   */\n      tag_559\n      jump\t// in\n    tag_856:\n        /* \"#utility.yul\":25719:25793   */\n      swap2\n      pop\n        /* \"#utility.yul\":25802:25895   */\n      tag_857\n        /* \"#utility.yul\":25891:25894   */\n      dup3\n        /* \"#utility.yul\":25802:25895   */\n      tag_605\n      jump\t// in\n    tag_857:\n        /* \"#utility.yul\":25920:25922   */\n      0x40\n        /* \"#utility.yul\":25915:25918   */\n      dup3\n        /* \"#utility.yul\":25911:25923   */\n      add\n        /* \"#utility.yul\":25904:25923   */\n      swap1\n      pop\n        /* \"#utility.yul\":25563:25929   */\n      swap2\n      swap1\n      pop\n      jump\t// out\n        /* \"#utility.yul\":25935:26354   */\n    tag_448:\n        /* \"#utility.yul\":26101:26105   */\n      0x00\n        /* \"#utility.yul\":26139:26141   */\n      0x20\n        /* \"#utility.yul\":26128:26137   */\n      dup3\n        /* \"#utility.yul\":26124:26142   */\n      add\n        /* \"#utility.yul\":26116:26142   */\n      swap1\n      pop\n        /* \"#utility.yul\":26188:26197   */\n      dup2\n        /* \"#utility.yul\":26182:26186   */\n      dup2\n        /* \"#utility.yul\":26178:26198   */\n      sub\n        /* \"#utility.yul\":26174:26175   */\n      0x00\n        /* \"#utility.yul\":26163:26172   */\n      dup4\n        /* \"#utility.yul\":26159:26176   */\n      add\n        /* \"#utility.yul\":26152:26199   */\n      mstore\n        /* \"#utility.yul\":26216:26347   */\n      tag_859\n        /* \"#utility.yul\":26342:26346   */\n      dup2\n        /* \"#utility.yul\":26216:26347   */\n      tag_606\n      jump\t// in\n    tag_859:\n        /* \"#utility.yul\":26208:26347   */\n      swap1\n      pop\n        /* \"#utility.yul\":25935:26354   */\n      swap2\n      swap1\n      pop\n      jump\t// out\n        /* \"#utility.yul\":26360:26601   */\n    tag_607:\n        /* \"#utility.yul\":26500:26534   */\n      0x5361666545524332303a20617070726f76652066726f6d206e6f6e2d7a65726f\n        /* \"#utility.yul\":26496:26497   */\n      0x00\n        /* \"#utility.yul\":26488:26494   */\n      dup3\n        /* \"#utility.yul\":26484:26498   */\n      add\n        /* \"#utility.yul\":26477:26535   */\n      mstore\n        /* \"#utility.yul\":26569:26593   */\n      0x20746f206e6f6e2d7a65726f20616c6c6f77616e636500000000000000000000\n        /* \"#utility.yul\":26564:26566   */\n      0x20\n        /* \"#utility.yul\":26556:26562   */\n      dup3\n        /* \"#utility.yul\":26552:26567   */\n      add\n        /* \"#utility.yul\":26545:26594   */\n      mstore\n        /* \"#utility.yul\":26360:26601   */\n      pop\n      jump\t// out\n        /* \"#utility.yul\":26607:26973   */\n    tag_608:\n        /* \"#utility.yul\":26749:26752   */\n      0x00\n        /* \"#utility.yul\":26770:26837   */\n      tag_862\n        /* \"#utility.yul\":26834:26836   */\n      0x36\n        /* \"#utility.yul\":26829:26832   */\n      dup4\n        /* \"#utility.yul\":26770:26837   */\n      tag_559\n      jump\t// in\n    tag_862:\n        /* \"#utility.yul\":26763:26837   */\n      swap2\n      pop\n        /* \"#utility.yul\":26846:26939   */\n      tag_863\n        /* \"#utility.yul\":26935:26938   */\n      dup3\n        /* \"#utility.yul\":26846:26939   */\n      tag_607\n      jump\t// in\n    tag_863:\n        /* \"#utility.yul\":26964:26966   */\n      0x40\n        /* \"#utility.yul\":26959:26962   */\n      dup3\n        /* \"#utility.yul\":26955:26967   */\n      add\n        /* \"#utility.yul\":26948:26967   */\n      swap1\n      pop\n        /* \"#utility.yul\":26607:26973   */\n      swap2\n      swap1\n      pop\n      jump\t// out\n        /* \"#utility.yul\":26979:27398   */\n    tag_472:\n        /* \"#utility.yul\":27145:27149   */\n      0x00\n        /* \"#utility.yul\":27183:27185   */\n      0x20\n        /* \"#utility.yul\":27172:27181   */\n      dup3\n        /* \"#utility.yul\":27168:27186   */\n      add\n        /* \"#utility.yul\":27160:27186   */\n      swap1\n      pop\n        /* \"#utility.yul\":27232:27241   */\n      dup2\n        /* \"#utility.yul\":27226:27230   */\n      dup2\n        /* \"#utility.yul\":27222:27242   */\n      sub\n        /* \"#utility.yul\":27218:27219   */\n      0x00\n        /* \"#utility.yul\":27207:27216   */\n      dup4\n        /* \"#utility.yul\":27203:27220   */\n      add\n        /* \"#utility.yul\":27196:27243   */\n      mstore\n        /* \"#utility.yul\":27260:27391   */\n      tag_865\n        /* \"#utility.yul\":27386:27390   */\n      dup2\n        /* \"#utility.yul\":27260:27391   */\n      tag_608\n      jump\t// in\n    tag_865:\n        /* \"#utility.yul\":27252:27391   */\n      swap1\n      pop\n        /* \"#utility.yul\":26979:27398   */\n      swap2\n      swap1\n      pop\n      jump\t// out\n        /* \"#utility.yul\":27404:27586   */\n    tag_609:\n        /* \"#utility.yul\":27544:27578   */\n      0x4f776e61626c653a2063616c6c6572206973206e6f7420746865206f776e6572\n        /* \"#utility.yul\":27540:27541   */\n      0x00\n        /* \"#utility.yul\":27532:27538   */\n      dup3\n        /* \"#utility.yul\":27528:27542   */\n      add\n        /* \"#utility.yul\":27521:27579   */\n      mstore\n        /* \"#utility.yul\":27404:27586   */\n      pop\n      jump\t// out\n        /* \"#utility.yul\":27592:27958   */\n    tag_610:\n        /* \"#utility.yul\":27734:27737   */\n      0x00\n        /* \"#utility.yul\":27755:27822   */\n      tag_868\n        /* \"#utility.yul\":27819:27821   */\n      0x20\n        /* \"#utility.yul\":27814:27817   */\n      dup4\n        /* \"#utility.yul\":27755:27822   */\n      tag_559\n      jump\t// in\n    tag_868:\n        /* \"#utility.yul\":27748:27822   */\n      swap2\n      pop\n        /* \"#utility.yul\":27831:27924   */\n      tag_869\n        /* \"#utility.yul\":27920:27923   */\n      dup3\n        /* \"#utility.yul\":27831:27924   */\n      tag_609\n      jump\t// in\n    tag_869:\n        /* \"#utility.yul\":27949:27951   */\n      0x20\n        /* \"#utility.yul\":27944:27947   */\n      dup3\n        /* \"#utility.yul\":27940:27952   */\n      add\n        /* \"#utility.yul\":27933:27952   */\n      swap1\n      pop\n        /* \"#utility.yul\":27592:27958   */\n      swap2\n      swap1\n      pop\n      jump\t// out\n        /* \"#utility.yul\":27964:28383   */\n    tag_482:\n        /* \"#utility.yul\":28130:28134   */\n      0x00\n        /* \"#utility.yul\":28168:28170   */\n      0x20\n        /* \"#utility.yul\":28157:28166   */\n      dup3\n        /* \"#utility.yul\":28153:28171   */\n      add\n        /* \"#utility.yul\":28145:28171   */\n      swap1\n      pop\n        /* \"#utility.yul\":28217:28226   */\n      dup2\n        /* \"#utility.yul\":28211:28215   */\n      dup2\n        /* \"#utility.yul\":28207:28227   */\n      sub\n        /* \"#utility.yul\":28203:28204   */\n      0x00\n        /* \"#utility.yul\":28192:28201   */\n      dup4\n        /* \"#utility.yul\":28188:28205   */\n      add\n        /* \"#utility.yul\":28181:28228   */\n      mstore\n        /* \"#utility.yul\":28245:28376   */\n      tag_871\n        /* \"#utility.yul\":28371:28375   */\n      dup2\n        /* \"#utility.yul\":28245:28376   */\n      tag_610\n      jump\t// in\n    tag_871:\n        /* \"#utility.yul\":28237:28376   */\n      swap1\n      pop\n        /* \"#utility.yul\":27964:28383   */\n      swap2\n      swap1\n      pop\n      jump\t// out\n        /* \"#utility.yul\":28389:28505   */\n    tag_611:\n        /* \"#utility.yul\":28459:28480   */\n      tag_873\n        /* \"#utility.yul\":28474:28479   */\n      dup2\n        /* \"#utility.yul\":28459:28480   */\n      tag_557\n      jump\t// in\n    tag_873:\n        /* \"#utility.yul\":28452:28457   */\n      dup2\n        /* \"#utility.yul\":28449:28481   */\n      eq\n        /* \"#utility.yul\":28439:28499   */\n      tag_874\n      jumpi\n        /* \"#utility.yul\":28495:28496   */\n      0x00\n        /* \"#utility.yul\":28492:28493   */\n      dup1\n        /* \"#utility.yul\":28485:28497   */\n      revert\n        /* \"#utility.yul\":28439:28499   */\n    tag_874:\n        /* \"#utility.yul\":28389:28505   */\n      pop\n      jump\t// out\n        /* \"#utility.yul\":28511:28648   */\n    tag_612:\n        /* \"#utility.yul\":28565:28570   */\n      0x00\n        /* \"#utility.yul\":28596:28602   */\n      dup2\n        /* \"#utility.yul\":28590:28603   */\n      mload\n        /* \"#utility.yul\":28581:28603   */\n      swap1\n      pop\n        /* \"#utility.yul\":28612:28642   */\n      tag_876\n        /* \"#utility.yul\":28636:28641   */\n      dup2\n        /* \"#utility.yul\":28612:28642   */\n      tag_611\n      jump\t// in\n    tag_876:\n        /* \"#utility.yul\":28511:28648   */\n      swap3\n      swap2\n      pop\n      pop\n      jump\t// out\n        /* \"#utility.yul\":28654:28999   */\n    tag_509:\n        /* \"#utility.yul\":28721:28727   */\n      0x00\n        /* \"#utility.yul\":28770:28772   */\n      0x20\n        /* \"#utility.yul\":28758:28767   */\n      dup3\n        /* \"#utility.yul\":28749:28756   */\n      dup5\n        /* \"#utility.yul\":28745:28768   */\n      sub\n        /* \"#utility.yul\":28741:28773   */\n      slt\n        /* \"#utility.yul\":28738:28857   */\n      iszero\n      tag_878\n      jumpi\n        /* \"#utility.yul\":28776:28855   */\n      tag_879\n      tag_546\n      jump\t// in\n    tag_879:\n        /* \"#utility.yul\":28738:28857   */\n    tag_878:\n        /* \"#utility.yul\":28896:28897   */\n      0x00\n        /* \"#utility.yul\":28921:28982   */\n      tag_880\n        /* \"#utility.yul\":28974:28981   */\n      dup5\n        /* \"#utility.yul\":28965:28971   */\n      dup3\n        /* \"#utility.yul\":28954:28963   */\n      dup6\n        /* \"#utility.yul\":28950:28972   */\n      add\n        /* \"#utility.yul\":28921:28982   */\n      tag_612\n      jump\t// in\n    tag_880:\n        /* \"#utility.yul\":28911:28982   */\n      swap2\n      pop\n        /* \"#utility.yul\":28867:28992   */\n      pop\n        /* \"#utility.yul\":28654:28999   */\n      swap3\n      swap2\n      pop\n      pop\n      jump\t// out\n        /* \"#utility.yul\":29005:29234   */\n    tag_613:\n        /* \"#utility.yul\":29145:29179   */\n      0x5361666545524332303a204552433230206f7065726174696f6e20646964206e\n        /* \"#utility.yul\":29141:29142   */\n      0x00\n        /* \"#utility.yul\":29133:29139   */\n      dup3\n        /* \"#utility.yul\":29129:29143   */\n      add\n        /* \"#utility.yul\":29122:29180   */\n      mstore\n        /* \"#utility.yul\":29214:29226   */\n      0x6f74207375636365656400000000000000000000000000000000000000000000\n        /* \"#utility.yul\":29209:29211   */\n      0x20\n        /* \"#utility.yul\":29201:29207   */\n      dup3\n        /* \"#utility.yul\":29197:29212   */\n      add\n        /* \"#utility.yul\":29190:29227   */\n      mstore\n        /* \"#utility.yul\":29005:29234   */\n      pop\n      jump\t// out\n        /* \"#utility.yul\":29240:29606   */\n    tag_614:\n        /* \"#utility.yul\":29382:29385   */\n      0x00\n        /* \"#utility.yul\":29403:29470   */\n      tag_883\n        /* \"#utility.yul\":29467:29469   */\n      0x2a\n        /* \"#utility.yul\":29462:29465   */\n      dup4\n        /* \"#utility.yul\":29403:29470   */\n      tag_559\n      jump\t// in\n    tag_883:\n        /* \"#utility.yul\":29396:29470   */\n      swap2\n      pop\n        /* \"#utility.yul\":29479:29572   */\n      tag_884\n        /* \"#utility.yul\":29568:29571   */\n      dup3\n        /* \"#utility.yul\":29479:29572   */\n      tag_613\n      jump\t// in\n    tag_884:\n        /* \"#utility.yul\":29597:29599   */\n      0x40\n        /* \"#utility.yul\":29592:29595   */\n      dup3\n        /* \"#utility.yul\":29588:29600   */\n      add\n        /* \"#utility.yul\":29581:29600   */\n      swap1\n      pop\n        /* \"#utility.yul\":29240:29606   */\n      swap2\n      swap1\n      pop\n      jump\t// out\n        /* \"#utility.yul\":29612:30031   */\n    tag_512:\n        /* \"#utility.yul\":29778:29782   */\n      0x00\n        /* \"#utility.yul\":29816:29818   */\n      0x20\n        /* \"#utility.yul\":29805:29814   */\n      dup3\n        /* \"#utility.yul\":29801:29819   */\n      add\n        /* \"#utility.yul\":29793:29819   */\n      swap1\n      pop\n        /* \"#utility.yul\":29865:29874   */\n      dup2\n        /* \"#utility.yul\":29859:29863   */\n      dup2\n        /* \"#utility.yul\":29855:29875   */\n      sub\n        /* \"#utility.yul\":29851:29852   */\n      0x00\n        /* \"#utility.yul\":29840:29849   */\n      dup4\n        /* \"#utility.yul\":29836:29853   */\n      add\n        /* \"#utility.yul\":29829:29876   */\n      mstore\n        /* \"#utility.yul\":29893:30024   */\n      tag_886\n        /* \"#utility.yul\":30019:30023   */\n      dup2\n        /* \"#utility.yul\":29893:30024   */\n      tag_614\n      jump\t// in\n    tag_886:\n        /* \"#utility.yul\":29885:30024   */\n      swap1\n      pop\n        /* \"#utility.yul\":29612:30031   */\n      swap2\n      swap1\n      pop\n      jump\t// out\n        /* \"#utility.yul\":30037:30262   */\n    tag_615:\n        /* \"#utility.yul\":30177:30211   */\n      0x416464726573733a20696e73756666696369656e742062616c616e636520666f\n        /* \"#utility.yul\":30173:30174   */\n      0x00\n        /* \"#utility.yul\":30165:30171   */\n      dup3\n        /* \"#utility.yul\":30161:30175   */\n      add\n        /* \"#utility.yul\":30154:30212   */\n      mstore\n        /* \"#utility.yul\":30246:30254   */\n      0x722063616c6c0000000000000000000000000000000000000000000000000000\n        /* \"#utility.yul\":30241:30243   */\n      0x20\n        /* \"#utility.yul\":30233:30239   */\n      dup3\n        /* \"#utility.yul\":30229:30244   */\n      add\n        /* \"#utility.yul\":30222:30255   */\n      mstore\n        /* \"#utility.yul\":30037:30262   */\n      pop\n      jump\t// out\n        /* \"#utility.yul\":30268:30634   */\n    tag_616:\n        /* \"#utility.yul\":30410:30413   */\n      0x00\n        /* \"#utility.yul\":30431:30498   */\n      tag_889\n        /* \"#utility.yul\":30495:30497   */\n      0x26\n        /* \"#utility.yul\":30490:30493   */\n      dup4\n        /* \"#utility.yul\":30431:30498   */\n      tag_559\n      jump\t// in\n    tag_889:\n        /* \"#utility.yul\":30424:30498   */\n      swap2\n      pop\n        /* \"#utility.yul\":30507:30600   */\n      tag_890\n        /* \"#utility.yul\":30596:30599   */\n      dup3\n        /* \"#utility.yul\":30507:30600   */\n      tag_615\n      jump\t// in\n    tag_890:\n        /* \"#utility.yul\":30625:30627   */\n      0x40\n        /* \"#utility.yul\":30620:30623   */\n      dup3\n        /* \"#utility.yul\":30616:30628   */\n      add\n        /* \"#utility.yul\":30609:30628   */\n      swap1\n      pop\n        /* \"#utility.yul\":30268:30634   */\n      swap2\n      swap1\n      pop\n      jump\t// out\n        /* \"#utility.yul\":30640:31059   */\n    tag_520:\n        /* \"#utility.yul\":30806:30810   */\n      0x00\n        /* \"#utility.yul\":30844:30846   */\n      0x20\n        /* \"#utility.yul\":30833:30842   */\n      dup3\n        /* \"#utility.yul\":30829:30847   */\n      add\n        /* \"#utility.yul\":30821:30847   */\n      swap1\n      pop\n        /* \"#utility.yul\":30893:30902   */\n      dup2\n        /* \"#utility.yul\":30887:30891   */\n      dup2\n        /* \"#utility.yul\":30883:30903   */\n      sub\n        /* \"#utility.yul\":30879:30880   */\n      0x00\n        /* \"#utility.yul\":30868:30877   */\n      dup4\n        /* \"#utility.yul\":30864:30881   */\n      add\n        /* \"#utility.yul\":30857:30904   */\n      mstore\n        /* \"#utility.yul\":30921:31052   */\n      tag_892\n        /* \"#utility.yul\":31047:31051   */\n      dup2\n        /* \"#utility.yul\":30921:31052   */\n      tag_616\n      jump\t// in\n    tag_892:\n        /* \"#utility.yul\":30913:31052   */\n      swap1\n      pop\n        /* \"#utility.yul\":30640:31059   */\n      swap2\n      swap1\n      pop\n      jump\t// out\n        /* \"#utility.yul\":31065:31163   */\n    tag_617:\n        /* \"#utility.yul\":31116:31122   */\n      0x00\n        /* \"#utility.yul\":31150:31155   */\n      dup2\n        /* \"#utility.yul\":31144:31156   */\n      mload\n        /* \"#utility.yul\":31134:31156   */\n      swap1\n      pop\n        /* \"#utility.yul\":31065:31163   */\n      swap2\n      swap1\n      pop\n      jump\t// out\n        /* \"#utility.yul\":31169:31316   */\n    tag_618:\n        /* \"#utility.yul\":31270:31281   */\n      0x00\n        /* \"#utility.yul\":31307:31310   */\n      dup2\n        /* \"#utility.yul\":31292:31310   */\n      swap1\n      pop\n        /* \"#utility.yul\":31169:31316   */\n      swap3\n      swap2\n      pop\n      pop\n      jump\t// out\n        /* \"#utility.yul\":31322:31629   */\n    tag_619:\n        /* \"#utility.yul\":31390:31391   */\n      0x00\n        /* \"#utility.yul\":31400:31513   */\n    tag_896:\n        /* \"#utility.yul\":31414:31420   */\n      dup4\n        /* \"#utility.yul\":31411:31412   */\n      dup2\n        /* \"#utility.yul\":31408:31421   */\n      lt\n        /* \"#utility.yul\":31400:31513   */\n      iszero\n      tag_898\n      jumpi\n        /* \"#utility.yul\":31499:31500   */\n      dup1\n        /* \"#utility.yul\":31494:31497   */\n      dup3\n        /* \"#utility.yul\":31490:31501   */\n      add\n        /* \"#utility.yul\":31484:31502   */\n      mload\n        /* \"#utility.yul\":31480:31481   */\n      dup2\n        /* \"#utility.yul\":31475:31478   */\n      dup5\n        /* \"#utility.yul\":31471:31482   */\n      add\n        /* \"#utility.yul\":31464:31503   */\n      mstore\n        /* \"#utility.yul\":31436:31438   */\n      0x20\n        /* \"#utility.yul\":31433:31434   */\n      dup2\n        /* \"#utility.yul\":31429:31439   */\n      add\n        /* \"#utility.yul\":31424:31439   */\n      swap1\n      pop\n        /* \"#utility.yul\":31400:31513   */\n      jump(tag_896)\n    tag_898:\n        /* \"#utility.yul\":31531:31537   */\n      dup4\n        /* \"#utility.yul\":31528:31529   */\n      dup2\n        /* \"#utility.yul\":31525:31538   */\n      gt\n        /* \"#utility.yul\":31522:31623   */\n      iszero\n      tag_899\n      jumpi\n        /* \"#utility.yul\":31611:31612   */\n      0x00\n        /* \"#utility.yul\":31602:31608   */\n      dup5\n        /* \"#utility.yul\":31597:31600   */\n      dup5\n        /* \"#utility.yul\":31593:31609   */\n      add\n        /* \"#utility.yul\":31586:31613   */\n      mstore\n        /* \"#utility.yul\":31522:31623   */\n    tag_899:\n        /* \"#utility.yul\":31371:31629   */\n      pop\n        /* \"#utility.yul\":31322:31629   */\n      pop\n      pop\n      pop\n      jump\t// out\n        /* \"#utility.yul\":31635:32008   */\n    tag_620:\n        /* \"#utility.yul\":31739:31742   */\n      0x00\n        /* \"#utility.yul\":31767:31805   */\n      tag_901\n        /* \"#utility.yul\":31799:31804   */\n      dup3\n        /* \"#utility.yul\":31767:31805   */\n      tag_617\n      jump\t// in\n    tag_901:\n        /* \"#utility.yul\":31821:31909   */\n      tag_902\n        /* \"#utility.yul\":31902:31908   */\n      dup2\n        /* \"#utility.yul\":31897:31900   */\n      dup6\n        /* \"#utility.yul\":31821:31909   */\n      tag_618\n      jump\t// in\n    tag_902:\n        /* \"#utility.yul\":31814:31909   */\n      swap4\n      pop\n        /* \"#utility.yul\":31918:31970   */\n      tag_903\n        /* \"#utility.yul\":31963:31969   */\n      dup2\n        /* \"#utility.yul\":31958:31961   */\n      dup6\n        /* \"#utility.yul\":31951:31955   */\n      0x20\n        /* \"#utility.yul\":31944:31949   */\n      dup7\n        /* \"#utility.yul\":31940:31956   */\n      add\n        /* \"#utility.yul\":31918:31970   */\n      tag_619\n      jump\t// in\n    tag_903:\n        /* \"#utility.yul\":31995:32001   */\n      dup1\n        /* \"#utility.yul\":31990:31993   */\n      dup5\n        /* \"#utility.yul\":31986:32002   */\n      add\n        /* \"#utility.yul\":31979:32002   */\n      swap2\n      pop\n        /* \"#utility.yul\":31743:32008   */\n      pop\n        /* \"#utility.yul\":31635:32008   */\n      swap3\n      swap2\n      pop\n      pop\n      jump\t// out\n        /* \"#utility.yul\":32014:32285   */\n    tag_522:\n        /* \"#utility.yul\":32144:32147   */\n      0x00\n        /* \"#utility.yul\":32166:32259   */\n      tag_905\n        /* \"#utility.yul\":32255:32258   */\n      dup3\n        /* \"#utility.yul\":32246:32252   */\n      dup5\n        /* \"#utility.yul\":32166:32259   */\n      tag_620\n      jump\t// in\n    tag_905:\n        /* \"#utility.yul\":32159:32259   */\n      swap2\n      pop\n        /* \"#utility.yul\":32276:32279   */\n      dup2\n        /* \"#utility.yul\":32269:32279   */\n      swap1\n      pop\n        /* \"#utility.yul\":32014:32285   */\n      swap3\n      swap2\n      pop\n      pop\n      jump\t// out\n        /* \"#utility.yul\":32291:32470   */\n    tag_621:\n        /* \"#utility.yul\":32431:32462   */\n      0x416464726573733a2063616c6c20746f206e6f6e2d636f6e7472616374000000\n        /* \"#utility.yul\":32427:32428   */\n      0x00\n        /* \"#utility.yul\":32419:32425   */\n      dup3\n        /* \"#utility.yul\":32415:32429   */\n      add\n        /* \"#utility.yul\":32408:32463   */\n      mstore\n        /* \"#utility.yul\":32291:32470   */\n      pop\n      jump\t// out\n        /* \"#utility.yul\":32476:32842   */\n    tag_622:\n        /* \"#utility.yul\":32618:32621   */\n      0x00\n        /* \"#utility.yul\":32639:32706   */\n      tag_908\n        /* \"#utility.yul\":32703:32705   */\n      0x1d\n        /* \"#utility.yul\":32698:32701   */\n      dup4\n        /* \"#utility.yul\":32639:32706   */\n      tag_559\n      jump\t// in\n    tag_908:\n        /* \"#utility.yul\":32632:32706   */\n      swap2\n      pop\n        /* \"#utility.yul\":32715:32808   */\n      tag_909\n        /* \"#utility.yul\":32804:32807   */\n      dup3\n        /* \"#utility.yul\":32715:32808   */\n      tag_621\n      jump\t// in\n    tag_909:\n        /* \"#utility.yul\":32833:32835   */\n      0x20\n        /* \"#utility.yul\":32828:32831   */\n      dup3\n        /* \"#utility.yul\":32824:32836   */\n      add\n        /* \"#utility.yul\":32817:32836   */\n      swap1\n      pop\n        /* \"#utility.yul\":32476:32842   */\n      swap2\n      swap1\n      pop\n      jump\t// out\n        /* \"#utility.yul\":32848:33267   */\n    tag_535:\n        /* \"#utility.yul\":33014:33018   */\n      0x00\n        /* \"#utility.yul\":33052:33054   */\n      0x20\n        /* \"#utility.yul\":33041:33050   */\n      dup3\n        /* \"#utility.yul\":33037:33055   */\n      add\n        /* \"#utility.yul\":33029:33055   */\n      swap1\n      pop\n        /* \"#utility.yul\":33101:33110   */\n      dup2\n        /* \"#utility.yul\":33095:33099   */\n      dup2\n        /* \"#utility.yul\":33091:33111   */\n      sub\n        /* \"#utility.yul\":33087:33088   */\n      0x00\n        /* \"#utility.yul\":33076:33085   */\n      dup4\n        /* \"#utility.yul\":33072:33089   */\n      add\n        /* \"#utility.yul\":33065:33112   */\n      mstore\n        /* \"#utility.yul\":33129:33260   */\n      tag_911\n        /* \"#utility.yul\":33255:33259   */\n      dup2\n        /* \"#utility.yul\":33129:33260   */\n      tag_622\n      jump\t// in\n    tag_911:\n        /* \"#utility.yul\":33121:33260   */\n      swap1\n      pop\n        /* \"#utility.yul\":32848:33267   */\n      swap2\n      swap1\n      pop\n      jump\t// out\n        /* \"#utility.yul\":33273:33372   */\n    tag_623:\n        /* \"#utility.yul\":33325:33331   */\n      0x00\n        /* \"#utility.yul\":33359:33364   */\n      dup2\n        /* \"#utility.yul\":33353:33365   */\n      mload\n        /* \"#utility.yul\":33343:33365   */\n      swap1\n      pop\n        /* \"#utility.yul\":33273:33372   */\n      swap2\n      swap1\n      pop\n      jump\t// out\n        /* \"#utility.yul\":33378:33742   */\n    tag_624:\n        /* \"#utility.yul\":33466:33469   */\n      0x00\n        /* \"#utility.yul\":33494:33533   */\n      tag_914\n        /* \"#utility.yul\":33527:33532   */\n      dup3\n        /* \"#utility.yul\":33494:33533   */\n      tag_623\n      jump\t// in\n    tag_914:\n        /* \"#utility.yul\":33549:33620   */\n      tag_915\n        /* \"#utility.yul\":33613:33619   */\n      dup2\n        /* \"#utility.yul\":33608:33611   */\n      dup6\n        /* \"#utility.yul\":33549:33620   */\n      tag_559\n      jump\t// in\n    tag_915:\n        /* \"#utility.yul\":33542:33620   */\n      swap4\n      pop\n        /* \"#utility.yul\":33629:33681   */\n      tag_916\n        /* \"#utility.yul\":33674:33680   */\n      dup2\n        /* \"#utility.yul\":33669:33672   */\n      dup6\n        /* \"#utility.yul\":33662:33666   */\n      0x20\n        /* \"#utility.yul\":33655:33660   */\n      dup7\n        /* \"#utility.yul\":33651:33667   */\n      add\n        /* \"#utility.yul\":33629:33681   */\n      tag_619\n      jump\t// in\n    tag_916:\n        /* \"#utility.yul\":33706:33735   */\n      tag_917\n        /* \"#utility.yul\":33728:33734   */\n      dup2\n        /* \"#utility.yul\":33706:33735   */\n      tag_581\n      jump\t// in\n    tag_917:\n        /* \"#utility.yul\":33701:33704   */\n      dup5\n        /* \"#utility.yul\":33697:33736   */\n      add\n        /* \"#utility.yul\":33690:33736   */\n      swap2\n      pop\n        /* \"#utility.yul\":33470:33742   */\n      pop\n        /* \"#utility.yul\":33378:33742   */\n      swap3\n      swap2\n      pop\n      pop\n      jump\t// out\n        /* \"#utility.yul\":33748:34061   */\n    tag_544:\n        /* \"#utility.yul\":33861:33865   */\n      0x00\n        /* \"#utility.yul\":33899:33901   */\n      0x20\n        /* \"#utility.yul\":33888:33897   */\n      dup3\n        /* \"#utility.yul\":33884:33902   */\n      add\n        /* \"#utility.yul\":33876:33902   */\n      swap1\n      pop\n        /* \"#utility.yul\":33948:33957   */\n      dup2\n        /* \"#utility.yul\":33942:33946   */\n      dup2\n        /* \"#utility.yul\":33938:33958   */\n      sub\n        /* \"#utility.yul\":33934:33935   */\n      0x00\n        /* \"#utility.yul\":33923:33932   */\n      dup4\n        /* \"#utility.yul\":33919:33936   */\n      add\n        /* \"#utility.yul\":33912:33959   */\n      mstore\n        /* \"#utility.yul\":33976:34054   */\n      tag_919\n        /* \"#utility.yul\":34049:34053   */\n      dup2\n        /* \"#utility.yul\":34040:34046   */\n      dup5\n        /* \"#utility.yul\":33976:34054   */\n      tag_624\n      jump\t// in\n    tag_919:\n        /* \"#utility.yul\":33968:34054   */\n      swap1\n      pop\n        /* \"#utility.yul\":33748:34061   */\n      swap3\n      swap2\n      pop\n      pop\n      jump\t// out\n\n    auxdata: 0xa2646970667358221220a1a91f20f08d6bef89e170b12bd14697175cbbb6a5816417893a5e16df04d56564736f6c634300080a0033\n}\n",
				"bytecode": {
					"linkReferences": {},
					"object": "608060405234801561001057600080fd5b50614b18806100206000396000f3fe6080604052600436106101cd5760003560e01c8063796f69aa116100f7578063ac78467c11610095578063db518db211610064578063db518db214610691578063f2fde38b146106ce578063f3fef3a3146106f7578063f586c6d914610734576101cd565b8063ac78467c146105d0578063bcdef0a41461060d578063c0ab44f61461064a578063d0e30db014610673576101cd565b80638da5cb5b116100d15780638da5cb5b1461050057806397fd9be71461052b578063ab43c3df14610556578063ab89b6af14610593576101cd565b8063796f69aa1461046f5780637c0a75e514610498578063854cf3cf146104d5576101cd565b8063483d45bd1161016f578063665a21db1161013e578063665a21db146103d957806369d2da9c146104045780636eecfdaa1461042d578063715018a614610458576101cd565b8063483d45bd1461032f5780635c975abb1461035a57806360e232a91461038557806365cacaa4146103ae576101cd565b8063223888c1116101ab578063223888c11461027757806335876476146102b45780633af82c59146102dd5780634339bc3014610306576101cd565b806303550d56146101d25780630c632bbe1461020f5780631e83409a1461023a575b600080fd5b3480156101de57600080fd5b506101f960048036038101906101f49190613a11565b61075f565b6040516102069190613a60565b60405180910390f35b34801561021b57600080fd5b506102246108ff565b6040516102319190613a8a565b60405180910390f35b34801561024657600080fd5b50610261600480360381019061025c9190613aa5565b610929565b60405161026e9190613a60565b60405180910390f35b34801561028357600080fd5b5061029e60048036038101906102999190613aa5565b610aaf565b6040516102ab9190613a60565b60405180910390f35b3480156102c057600080fd5b506102db60048036038101906102d69190613ad2565b610b54565b005b3480156102e957600080fd5b5061030460048036038101906102ff9190613aa5565b610fa6565b005b34801561031257600080fd5b5061032d60048036038101906103289190613aa5565b61117f565b005b34801561033b57600080fd5b50610344611301565b6040516103519190613a8a565b60405180910390f35b34801561036657600080fd5b5061036f61132b565b60405161037c9190613b8f565b60405180910390f35b34801561039157600080fd5b506103ac60048036038101906103a79190613aa5565b611342565b005b3480156103ba57600080fd5b506103c36114c4565b6040516103d09190613a8a565b60405180910390f35b3480156103e557600080fd5b506103ee6114ee565b6040516103fb9190613a8a565b60405180910390f35b34801561041057600080fd5b5061042b60048036038101906104269190613aa5565b611518565b005b34801561043957600080fd5b50610442611799565b60405161044f9190613a8a565b60405180910390f35b34801561046457600080fd5b5061046d6117c3565b005b34801561047b57600080fd5b5061049660048036038101906104919190613aa5565b6117d7565b005b3480156104a457600080fd5b506104bf60048036038101906104ba9190613baa565b61185a565b6040516104cc9190613a60565b60405180910390f35b3480156104e157600080fd5b506104ea6118e5565b6040516104f79190613a8a565b60405180910390f35b34801561050c57600080fd5b5061051561190f565b6040516105229190613a8a565b60405180910390f35b34801561053757600080fd5b50610540611939565b60405161054d9190613a8a565b60405180910390f35b34801561056257600080fd5b5061057d60048036038101906105789190613bd7565b611963565b60405161058a9190613a60565b60405180910390f35b34801561059f57600080fd5b506105ba60048036038101906105b59190613aa5565b611d2b565b6040516105c79190613a60565b60405180910390f35b3480156105dc57600080fd5b506105f760048036038101906105f29190613aa5565b611dd0565b6040516106049190613a60565b60405180910390f35b34801561061957600080fd5b50610634600480360381019061062f9190613a11565b611e19565b6040516106419190613a60565b60405180910390f35b34801561065657600080fd5b50610671600480360381019061066c9190613aa5565b6120bf565b005b61067b6123a8565b6040516106889190613a60565b60405180910390f35b34801561069d57600080fd5b506106b860048036038101906106b39190613a11565b61295d565b6040516106c59190613a60565b60405180910390f35b3480156106da57600080fd5b506106f560048036038101906106f09190613aa5565b612c59565b005b34801561070357600080fd5b5061071e60048036038101906107199190613a11565b612cdd565b60405161072b9190613a60565b60405180910390f35b34801561074057600080fd5b506107496130ac565b6040516107569190613a8a565b60405180910390f35b6000600260975414156107a7576040517f08c379a000000000000000000000000000000000000000000000000000000000815260040161079e90613c87565b60405180910390fd5b600260978190555060c960009054906101000a900473ffffffffffffffffffffffffffffffffffffffff1673ffffffffffffffffffffffffffffffffffffffff16639f1d92673385856040518463ffffffff1660e01b815260040161080e93929190613ca7565b6020604051808303816000875af115801561082d573d6000803e3d6000fd5b505050506040513d601f19601f820116820180604052508101906108519190613cf3565b905060cc60009054906101000a900473ffffffffffffffffffffffffffffffffffffffff1673ffffffffffffffffffffffffffffffffffffffff168373ffffffffffffffffffffffffffffffffffffffff163373ffffffffffffffffffffffffffffffffffffffff167f342e7ff505a8a0364cd0dc2ff195c315e43bce86b204846ecd36913e117b109e846040516108e99190613a60565b60405180910390a4600160978190555092915050565b600060ce60009054906101000a900473ffffffffffffffffffffffffffffffffffffffff16905090565b600060026097541415610971576040517f08c379a000000000000000000000000000000000000000000000000000000000815260040161096890613c87565b60405180910390fd5b600260978190555060c960009054906101000a900473ffffffffffffffffffffffffffffffffffffffff1673ffffffffffffffffffffffffffffffffffffffff16631101596c33846040518363ffffffff1660e01b81526004016109d6929190613d20565b6020604051808303816000875af11580156109f5573d6000803e3d6000fd5b505050506040513d601f19601f82011682018060405250810190610a199190613cf3565b905060cc60009054906101000a900473ffffffffffffffffffffffffffffffffffffffff1673ffffffffffffffffffffffffffffffffffffffff168273ffffffffffffffffffffffffffffffffffffffff167f70eb43c4a8ae8c40502dcf22436c509c28d6ff421cf07c491be56984bd98706883604051610a9a9190613a60565b60405180910390a36001609781905550919050565b600060c960009054906101000a900473ffffffffffffffffffffffffffffffffffffffff1673ffffffffffffffffffffffffffffffffffffffff1663223888c1836040518263ffffffff1660e01b8152600401610b0c9190613a8a565b602060405180830381865afa158015610b29573d6000803e3d6000fd5b505050506040513d601f19601f82011682018060405250810190610b4d9190613cf3565b9050919050565b60008060019054906101000a900460ff16159050808015610b855750600160008054906101000a900460ff1660ff16105b80610bb25750610b94306130d6565b158015610bb15750600160008054906101000a900460ff1660ff16145b5b610bf1576040517f08c379a0000000000000000000000000000000000000000000000000000000008152600401610be890613dbb565b60405180910390fd5b60016000806101000a81548160ff021916908360ff1602179055508015610c2e576001600060016101000a81548160ff0219169083151502179055505b610c366130f9565b610c3e613152565b610c466131ab565b8760cc60006101000a81548173ffffffffffffffffffffffffffffffffffffffff021916908373ffffffffffffffffffffffffffffffffffffffff1602179055508660cd60006101000a81548173ffffffffffffffffffffffffffffffffffffffff021916908373ffffffffffffffffffffffffffffffffffffffff1602179055508560ce60006101000a81548173ffffffffffffffffffffffffffffffffffffffff021916908373ffffffffffffffffffffffffffffffffffffffff1602179055508360c960006101000a81548173ffffffffffffffffffffffffffffffffffffffff021916908373ffffffffffffffffffffffffffffffffffffffff1602179055508260ca60006101000a81548173ffffffffffffffffffffffffffffffffffffffff021916908373ffffffffffffffffffffffffffffffffffffffff1602179055508160cb60006101000a81548173ffffffffffffffffffffffffffffffffffffffff021916908373ffffffffffffffffffffffffffffffffffffffff160217905550610e17837fffffffffffffffffffffffffffffffffffffffffffffffffffffffffffffffff8973ffffffffffffffffffffffffffffffffffffffff166132049092919063ffffffff16565b610e62837fffffffffffffffffffffffffffffffffffffffffffffffffffffffffffffffff8a73ffffffffffffffffffffffffffffffffffffffff166132049092919063ffffffff16565b610ead857fffffffffffffffffffffffffffffffffffffffffffffffffffffffffffffffff8a73ffffffffffffffffffffffffffffffffffffffff166132049092919063ffffffff16565b610ef8827fffffffffffffffffffffffffffffffffffffffffffffffffffffffffffffffff8a73ffffffffffffffffffffffffffffffffffffffff166132049092919063ffffffff16565b610f43847fffffffffffffffffffffffffffffffffffffffffffffffffffffffffffffffff8a73ffffffffffffffffffffffffffffffffffffffff166132049092919063ffffffff16565b8015610f9c5760008060016101000a81548160ff0219169083151502179055507f7f26b83ff96e1f2b6a682f133852f6798a09c465da95921460cefb38474024986001604051610f939190613e2d565b60405180910390a15b5050505050505050565b610fae613353565b600073ffffffffffffffffffffffffffffffffffffffff1660d160009054906101000a900473ffffffffffffffffffffffffffffffffffffffff1673ffffffffffffffffffffffffffffffffffffffff16146110755761107460d160009054906101000a900473ffffffffffffffffffffffffffffffffffffffff16600060cc60009054906101000a900473ffffffffffffffffffffffffffffffffffffffff1673ffffffffffffffffffffffffffffffffffffffff166132049092919063ffffffff16565b5b8060d160006101000a81548173ffffffffffffffffffffffffffffffffffffffff021916908373ffffffffffffffffffffffffffffffffffffffff16021790555061114560d160009054906101000a900473ffffffffffffffffffffffffffffffffffffffff167fffffffffffffffffffffffffffffffffffffffffffffffffffffffffffffffff60cc60009054906101000a900473ffffffffffffffffffffffffffffffffffffffff1673ffffffffffffffffffffffffffffffffffffffff166132049092919063ffffffff16565b7fc7c1b39b4c8950340ee2ddc449a99e16d5e090b420db2e99160d82a9ff5580d9816040516111749190613a8a565b60405180910390a150565b611187613353565b6111f760cb60009054906101000a900473ffffffffffffffffffffffffffffffffffffffff16600060cc60009054906101000a900473ffffffffffffffffffffffffffffffffffffffff1673ffffffffffffffffffffffffffffffffffffffff166132049092919063ffffffff16565b8060cb60006101000a81548173ffffffffffffffffffffffffffffffffffffffff021916908373ffffffffffffffffffffffffffffffffffffffff1602179055506112c760cb60009054906101000a900473ffffffffffffffffffffffffffffffffffffffff167fffffffffffffffffffffffffffffffffffffffffffffffffffffffffffffffff60cc60009054906101000a900473ffffffffffffffffffffffffffffffffffffffff1673ffffffffffffffffffffffffffffffffffffffff166132049092919063ffffffff16565b7f79025dab199855650264c602de305dcf5c292b8e5b4470ef271724a79d0343f4816040516112f69190613a8a565b60405180910390a150565b600060d060009054906101000a900473ffffffffffffffffffffffffffffffffffffffff16905090565b6000606560009054906101000a900460ff16905090565b61134a613353565b6113ba60c960009054906101000a900473ffffffffffffffffffffffffffffffffffffffff16600060cc60009054906101000a900473ffffffffffffffffffffffffffffffffffffffff1673ffffffffffffffffffffffffffffffffffffffff166132049092919063ffffffff16565b8060c960006101000a81548173ffffffffffffffffffffffffffffffffffffffff021916908373ffffffffffffffffffffffffffffffffffffffff16021790555061148a60c960009054906101000a900473ffffffffffffffffffffffffffffffffffffffff167fffffffffffffffffffffffffffffffffffffffffffffffffffffffffffffffff60cc60009054906101000a900473ffffffffffffffffffffffffffffffffffffffff1673ffffffffffffffffffffffffffffffffffffffff166132049092919063ffffffff16565b7f646d70535c6b451b92021874a72abd441f122ba1c0b8f24d074352bd169fad3f816040516114b99190613a8a565b60405180910390a150565b600060c960009054906101000a900473ffffffffffffffffffffffffffffffffffffffff16905090565b600060cd60009054906101000a900473ffffffffffffffffffffffffffffffffffffffff16905090565b611520613353565b61159060ca60009054906101000a900473ffffffffffffffffffffffffffffffffffffffff16600060cd60009054906101000a900473ffffffffffffffffffffffffffffffffffffffff1673ffffffffffffffffffffffffffffffffffffffff166132049092919063ffffffff16565b61160060ca60009054906101000a900473ffffffffffffffffffffffffffffffffffffffff16600060cc60009054906101000a900473ffffffffffffffffffffffffffffffffffffffff1673ffffffffffffffffffffffffffffffffffffffff166132049092919063ffffffff16565b8060ca60006101000a81548173ffffffffffffffffffffffffffffffffffffffff021916908373ffffffffffffffffffffffffffffffffffffffff1602179055506116d060ca60009054906101000a900473ffffffffffffffffffffffffffffffffffffffff167fffffffffffffffffffffffffffffffffffffffffffffffffffffffffffffffff60cd60009054906101000a900473ffffffffffffffffffffffffffffffffffffffff1673ffffffffffffffffffffffffffffffffffffffff166132049092919063ffffffff16565b61175f60ca60009054906101000a900473ffffffffffffffffffffffffffffffffffffffff167fffffffffffffffffffffffffffffffffffffffffffffffffffffffffffffffff60cc60009054906101000a900473ffffffffffffffffffffffffffffffffffffffff1673ffffffffffffffffffffffffffffffffffffffff166132049092919063ffffffff16565b7f90252124b346c6d6c466196d470d708d0c0c7026fe5ba62a2e01b5adbf39e2798160405161178e9190613a8a565b60405180910390a150565b600060cc60009054906101000a900473ffffffffffffffffffffffffffffffffffffffff16905090565b6117cb613353565b6117d560006133d1565b565b6117df613353565b8060d060006101000a81548173ffffffffffffffffffffffffffffffffffffffff021916908373ffffffffffffffffffffffffffffffffffffffff1602179055507f9a33114b94f1c4c094352deff0082e220c977361e70d556dfb5565ad4678ce4d8160405161184f9190613a8a565b60405180910390a150565b6000600260975414156118a2576040517f08c379a000000000000000000000000000000000000000000000000000000000815260040161189990613c87565b60405180910390fd5b60026097819055506040517f08c379a00000000000000000000000000000000000000000000000000000000081526004016118dc90613e94565b60405180910390fd5b600060ca60009054906101000a900473ffffffffffffffffffffffffffffffffffffffff16905090565b6000603360009054906101000a900473ffffffffffffffffffffffffffffffffffffffff16905090565b600060d160009054906101000a900473ffffffffffffffffffffffffffffffffffffffff16905090565b6000600260975414156119ab576040517f08c379a00000000000000000000000000000000000000000000000000000000081526004016119a290613c87565b60405180910390fd5b600260978190555060c960009054906101000a900473ffffffffffffffffffffffffffffffffffffffff1673ffffffffffffffffffffffffffffffffffffffff16639f1d92673330866040518463ffffffff1660e01b8152600401611a1293929190613ca7565b6020604051808303816000875af1158015611a31573d6000803e3d6000fd5b505050506040513d601f19601f82011682018060405250810190611a559190613cf3565b90506000600267ffffffffffffffff811115611a7457611a73613eb4565b5b604051908082528060200260200182016040528015611aa25781602001602082028036833780820191505090505b50905060cc60009054906101000a900473ffffffffffffffffffffffffffffffffffffffff1681600081518110611adc57611adb613ee3565b5b602002602001019073ffffffffffffffffffffffffffffffffffffffff16908173ffffffffffffffffffffffffffffffffffffffff168152505060cd60009054906101000a900473ffffffffffffffffffffffffffffffffffffffff1681600181518110611b4d57611b4c613ee3565b5b602002602001019073ffffffffffffffffffffffffffffffffffffffff16908173ffffffffffffffffffffffffffffffffffffffff1681525050600060ca60009054906101000a900473ffffffffffffffffffffffffffffffffffffffff1673ffffffffffffffffffffffffffffffffffffffff166318cbafe58486858a61012c42611bd99190613f41565b6040518663ffffffff1660e01b8152600401611bf9959493929190614055565b6000604051808303816000875af1158015611c18573d6000803e3d6000fd5b505050506040513d6000823e3d601f19601f82011682018060405250810190611c4191906141d9565b905060cd60009054906101000a900473ffffffffffffffffffffffffffffffffffffffff1673ffffffffffffffffffffffffffffffffffffffff168673ffffffffffffffffffffffffffffffffffffffff163373ffffffffffffffffffffffffffffffffffffffff167f342e7ff505a8a0364cd0dc2ff195c315e43bce86b204846ecd36913e117b109e84600181518110611cdf57611cde613ee3565b5b6020026020010151604051611cf49190613a60565b60405180910390a480600181518110611d1057611d0f613ee3565b5b60200260200101519250505060016097819055509392505050565b600060d160009054906101000a900473ffffffffffffffffffffffffffffffffffffffff1673ffffffffffffffffffffffffffffffffffffffff166346faa33c836040518263ffffffff1660e01b8152600401611d889190613a8a565b602060405180830381865afa158015611da5573d6000803e3d6000fd5b505050506040513d601f19601f82011682018060405250810190611dc99190613cf3565b9050919050565b600060cf60008373ffffffffffffffffffffffffffffffffffffffff1673ffffffffffffffffffffffffffffffffffffffff168152602001908152602001600020549050919050565b6000611e2361190f565b73ffffffffffffffffffffffffffffffffffffffff163373ffffffffffffffffffffffffffffffffffffffff161480611ea9575060d060009054906101000a900473ffffffffffffffffffffffffffffffffffffffff1673ffffffffffffffffffffffffffffffffffffffff163373ffffffffffffffffffffffffffffffffffffffff16145b611ee8576040517f08c379a0000000000000000000000000000000000000000000000000000000008152600401611edf9061426e565b60405180910390fd5b60026097541415611f2e576040517f08c379a0000000000000000000000000000000000000000000000000000000008152600401611f2590613c87565b60405180910390fd5b6002609781905550611f8583308460cc60009054906101000a900473ffffffffffffffffffffffffffffffffffffffff1673ffffffffffffffffffffffffffffffffffffffff16613497909392919063ffffffff16565b60c960009054906101000a900473ffffffffffffffffffffffffffffffffffffffff1673ffffffffffffffffffffffffffffffffffffffff16632f4f21e233846040518363ffffffff1660e01b8152600401611fe292919061428e565b6020604051808303816000875af1158015612001573d6000803e3d6000fd5b505050506040513d601f19601f820116820180604052508101906120259190613cf3565b905060cc60009054906101000a900473ffffffffffffffffffffffffffffffffffffffff1673ffffffffffffffffffffffffffffffffffffffff163373ffffffffffffffffffffffffffffffffffffffff167fdcbc1c05240f31ff3ad067ef1ee35ce4997762752e3a095284754544f4c709d78460006040516120a99291906142f2565b60405180910390a3600160978190555092915050565b60026097541415612105576040517f08c379a00000000000000000000000000000000000000000000000000000000081526004016120fc90613c87565b60405180910390fd5b6002609781905550600060cf60003373ffffffffffffffffffffffffffffffffffffffff1673ffffffffffffffffffffffffffffffffffffffff16815260200190815260200160002054905060008111612194576040517f08c379a000000000000000000000000000000000000000000000000000000000815260040161218b90614367565b60405180910390fd5b8060cc60009054906101000a900473ffffffffffffffffffffffffffffffffffffffff1673ffffffffffffffffffffffffffffffffffffffff166370a08231306040518263ffffffff1660e01b81526004016121f09190613a8a565b602060405180830381865afa15801561220d573d6000803e3d6000fd5b505050506040513d601f19601f820116820180604052508101906122319190613cf3565b1015612272576040517f08c379a0000000000000000000000000000000000000000000000000000000008152600401612269906143d3565b60405180910390fd5b6122bf828260cc60009054906101000a900473ffffffffffffffffffffffffffffffffffffffff1673ffffffffffffffffffffffffffffffffffffffff166135209092919063ffffffff16565b8060cf60003373ffffffffffffffffffffffffffffffffffffffff1673ffffffffffffffffffffffffffffffffffffffff168152602001908152602001600020600082825461230e91906143f3565b9250508190555060cc60009054906101000a900473ffffffffffffffffffffffffffffffffffffffff1673ffffffffffffffffffffffffffffffffffffffff168273ffffffffffffffffffffffffffffffffffffffff167f70eb43c4a8ae8c40502dcf22436c509c28d6ff421cf07c491be56984bd987068836040516123949190613a60565b60405180910390a350600160978190555050565b60006123b261190f565b73ffffffffffffffffffffffffffffffffffffffff163373ffffffffffffffffffffffffffffffffffffffff161480612438575060d060009054906101000a900473ffffffffffffffffffffffffffffffffffffffff1673ffffffffffffffffffffffffffffffffffffffff163373ffffffffffffffffffffffffffffffffffffffff16145b612477576040517f08c379a000000000000000000000000000000000000000000000000000000000815260040161246e9061426e565b60405180910390fd5b600260975414156124bd576040517f08c379a00000000000000000000000000000000000000000000000000000000081526004016124b490613c87565b60405180910390fd5b60026097819055506000349050600060d160009054906101000a900473ffffffffffffffffffffffffffffffffffffffff1673ffffffffffffffffffffffffffffffffffffffff166356a3b5fa6040518163ffffffff1660e01b8152600401602060405180830381865afa158015612539573d6000803e3d6000fd5b505050506040513d601f19601f8201168201806040525081019061255d9190613cf3565b905060008183106126075760cc60009054906101000a900473ffffffffffffffffffffffffffffffffffffffff1673ffffffffffffffffffffffffffffffffffffffff166353616373846040518263ffffffff1660e01b81526004016125c39190613a60565b602060405180830381865afa1580156125e0573d6000803e3d6000fd5b505050506040513d601f19601f820116820180604052508101906126049190613cf3565b90505b6000806000831061269d5782915060d160009054906101000a900473ffffffffffffffffffffffffffffffffffffffff1673ffffffffffffffffffffffffffffffffffffffff1663ac76d450866040518263ffffffff1660e01b81526004016000604051808303818588803b15801561267f57600080fd5b505af1158015612693573d6000803e3d6000fd5b50505050506126d8565b6040517f08c379a00000000000000000000000000000000000000000000000000000000081526004016126cf90614473565b60405180910390fd5b8160cc60009054906101000a900473ffffffffffffffffffffffffffffffffffffffff1673ffffffffffffffffffffffffffffffffffffffff166370a08231306040518263ffffffff1660e01b81526004016127349190613a8a565b602060405180830381865afa158015612751573d6000803e3d6000fd5b505050506040513d601f19601f820116820180604052508101906127759190613cf3565b10156127b6576040517f08c379a00000000000000000000000000000000000000000000000000000000081526004016127ad90614505565b60405180910390fd5b8060cf60003373ffffffffffffffffffffffffffffffffffffffff1673ffffffffffffffffffffffffffffffffffffffff16815260200190815260200160002060008282546128059190613f41565b9250508190555060c960009054906101000a900473ffffffffffffffffffffffffffffffffffffffff1673ffffffffffffffffffffffffffffffffffffffff16632f4f21e233838561285791906143f3565b6040518363ffffffff1660e01b815260040161287492919061428e565b6020604051808303816000875af1158015612893573d6000803e3d6000fd5b505050506040513d601f19601f820116820180604052508101906128b79190613cf3565b955060cd60009054906101000a900473ffffffffffffffffffffffffffffffffffffffff1673ffffffffffffffffffffffffffffffffffffffff163373ffffffffffffffffffffffffffffffffffffffff167fdcbc1c05240f31ff3ad067ef1ee35ce4997762752e3a095284754544f4c709d7838561293691906143f3565b84604051612945929190614525565b60405180910390a35050505050600160978190555090565b6000600260975414156129a5576040517f08c379a000000000000000000000000000000000000000000000000000000000815260040161299c90613c87565b60405180910390fd5b60026097819055506129b561190f565b73ffffffffffffffffffffffffffffffffffffffff163373ffffffffffffffffffffffffffffffffffffffff161480612a3b575060d060009054906101000a900473ffffffffffffffffffffffffffffffffffffffff1673ffffffffffffffffffffffffffffffffffffffff163373ffffffffffffffffffffffffffffffffffffffff16145b612a7a576040517f08c379a0000000000000000000000000000000000000000000000000000000008152600401612a719061426e565b60405180910390fd5b60c960009054906101000a900473ffffffffffffffffffffffffffffffffffffffff1673ffffffffffffffffffffffffffffffffffffffff16639f1d92673330856040518463ffffffff1660e01b8152600401612ad993929190613ca7565b6020604051808303816000875af1158015612af8573d6000803e3d6000fd5b505050506040513d601f19601f82011682018060405250810190612b1c9190613cf3565b905060d160009054906101000a900473ffffffffffffffffffffffffffffffffffffffff1673ffffffffffffffffffffffffffffffffffffffff166381782dff84836040518363ffffffff1660e01b8152600401612b7b92919061428e565b600060405180830381600087803b158015612b9557600080fd5b505af1158015612ba9573d6000803e3d6000fd5b5050505060cd60009054906101000a900473ffffffffffffffffffffffffffffffffffffffff1673ffffffffffffffffffffffffffffffffffffffff168373ffffffffffffffffffffffffffffffffffffffff163373ffffffffffffffffffffffffffffffffffffffff167f342e7ff505a8a0364cd0dc2ff195c315e43bce86b204846ecd36913e117b109e85604051612c439190613a60565b60405180910390a4600160978190555092915050565b612c61613353565b600073ffffffffffffffffffffffffffffffffffffffff168173ffffffffffffffffffffffffffffffffffffffff161415612cd1576040517f08c379a0000000000000000000000000000000000000000000000000000000008152600401612cc8906145c0565b60405180910390fd5b612cda816133d1565b50565b6000612ce761190f565b73ffffffffffffffffffffffffffffffffffffffff163373ffffffffffffffffffffffffffffffffffffffff161480612d6d575060d060009054906101000a900473ffffffffffffffffffffffffffffffffffffffff1673ffffffffffffffffffffffffffffffffffffffff163373ffffffffffffffffffffffffffffffffffffffff16145b612dac576040517f08c379a0000000000000000000000000000000000000000000000000000000008152600401612da39061426e565b60405180910390fd5b60026097541415612df2576040517f08c379a0000000000000000000000000000000000000000000000000000000008152600401612de990613c87565b60405180910390fd5b600260978190555060d160009054906101000a900473ffffffffffffffffffffffffffffffffffffffff1673ffffffffffffffffffffffffffffffffffffffff1663034c44546040518163ffffffff1660e01b8152600401602060405180830381865afa158015612e67573d6000803e3d6000fd5b505050506040513d601f19601f82011682018060405250810190612e8b9190613cf3565b821015612ecd576040517f08c379a0000000000000000000000000000000000000000000000000000000008152600401612ec490614652565b60405180910390fd5b60c960009054906101000a900473ffffffffffffffffffffffffffffffffffffffff1673ffffffffffffffffffffffffffffffffffffffff16639f1d92673330856040518463ffffffff1660e01b8152600401612f2c93929190613ca7565b6020604051808303816000875af1158015612f4b573d6000803e3d6000fd5b505050506040513d601f19601f82011682018060405250810190612f6f9190613cf3565b905060d160009054906101000a900473ffffffffffffffffffffffffffffffffffffffff1673ffffffffffffffffffffffffffffffffffffffff166381782dff84836040518363ffffffff1660e01b8152600401612fce92919061428e565b600060405180830381600087803b158015612fe857600080fd5b505af1158015612ffc573d6000803e3d6000fd5b5050505060cd60009054906101000a900473ffffffffffffffffffffffffffffffffffffffff1673ffffffffffffffffffffffffffffffffffffffff168373ffffffffffffffffffffffffffffffffffffffff163373ffffffffffffffffffffffffffffffffffffffff167f342e7ff505a8a0364cd0dc2ff195c315e43bce86b204846ecd36913e117b109e856040516130969190613a60565b60405180910390a4600160978190555092915050565b600060cb60009054906101000a900473ffffffffffffffffffffffffffffffffffffffff16905090565b6000808273ffffffffffffffffffffffffffffffffffffffff163b119050919050565b600060019054906101000a900460ff16613148576040517f08c379a000000000000000000000000000000000000000000000000000000000815260040161313f906146e4565b60405180910390fd5b6131506135a6565b565b600060019054906101000a900460ff166131a1576040517f08c379a0000000000000000000000000000000000000000000000000000000008152600401613198906146e4565b60405180910390fd5b6131a9613607565b565b600060019054906101000a900460ff166131fa576040517f08c379a00000000000000000000000000000000000000000000000000000000081526004016131f1906146e4565b60405180910390fd5b613202613673565b565b600081148061328e575060008373ffffffffffffffffffffffffffffffffffffffff1663dd62ed3e30856040518363ffffffff1660e01b815260040161324b929190613d20565b602060405180830381865afa158015613268573d6000803e3d6000fd5b505050506040513d601f19601f8201168201806040525081019061328c9190613cf3565b145b6132cd576040517f08c379a00000000000000000000000000000000000000000000000000000000081526004016132c490614776565b60405180910390fd5b61334e8363095ea7b360e01b84846040516024016132ec92919061428e565b604051602081830303815290604052907bffffffffffffffffffffffffffffffffffffffffffffffffffffffff19166020820180517bffffffffffffffffffffffffffffffffffffffffffffffffffffffff83818316178352505050506136cc565b505050565b61335b613793565b73ffffffffffffffffffffffffffffffffffffffff1661337961190f565b73ffffffffffffffffffffffffffffffffffffffff16146133cf576040517f08c379a00000000000000000000000000000000000000000000000000000000081526004016133c6906147e2565b60405180910390fd5b565b6000603360009054906101000a900473ffffffffffffffffffffffffffffffffffffffff16905081603360006101000a81548173ffffffffffffffffffffffffffffffffffffffff021916908373ffffffffffffffffffffffffffffffffffffffff1602179055508173ffffffffffffffffffffffffffffffffffffffff168173ffffffffffffffffffffffffffffffffffffffff167f8be0079c531659141344cd1fd0a4f28419497f9722a3daafe3b4186f6b6457e060405160405180910390a35050565b61351a846323b872dd60e01b8585856040516024016134b893929190613ca7565b604051602081830303815290604052907bffffffffffffffffffffffffffffffffffffffffffffffffffffffff19166020820180517bffffffffffffffffffffffffffffffffffffffffffffffffffffffff83818316178352505050506136cc565b50505050565b6135a18363a9059cbb60e01b848460405160240161353f92919061428e565b604051602081830303815290604052907bffffffffffffffffffffffffffffffffffffffffffffffffffffffff19166020820180517bffffffffffffffffffffffffffffffffffffffffffffffffffffffff83818316178352505050506136cc565b505050565b600060019054906101000a900460ff166135f5576040517f08c379a00000000000000000000000000000000000000000000000000000000081526004016135ec906146e4565b60405180910390fd5b613605613600613793565b6133d1565b565b600060019054906101000a900460ff16613656576040517f08c379a000000000000000000000000000000000000000000000000000000000815260040161364d906146e4565b60405180910390fd5b6000606560006101000a81548160ff021916908315150217905550565b600060019054906101000a900460ff166136c2576040517f08c379a00000000000000000000000000000000000000000000000000000000081526004016136b9906146e4565b60405180910390fd5b6001609781905550565b600061372e826040518060400160405280602081526020017f5361666545524332303a206c6f772d6c6576656c2063616c6c206661696c65648152508573ffffffffffffffffffffffffffffffffffffffff1661379b9092919063ffffffff16565b905060008151111561378e578080602001905181019061374e919061482e565b61378d576040517f08c379a0000000000000000000000000000000000000000000000000000000008152600401613784906148cd565b60405180910390fd5b5b505050565b600033905090565b60606137aa84846000856137b3565b90509392505050565b6060824710156137f8576040517f08c379a00000000000000000000000000000000000000000000000000000000081526004016137ef9061495f565b60405180910390fd5b6000808673ffffffffffffffffffffffffffffffffffffffff16858760405161382191906149f9565b60006040518083038185875af1925050503d806000811461385e576040519150601f19603f3d011682016040523d82523d6000602084013e613863565b606091505b509150915061387487838387613880565b92505050949350505050565b606083156138e3576000835114156138db5761389b856138f6565b6138da576040517f08c379a00000000000000000000000000000000000000000000000000000000081526004016138d190614a5c565b60405180910390fd5b5b8290506138ee565b6138ed8383613919565b5b949350505050565b6000808273ffffffffffffffffffffffffffffffffffffffff163b119050919050565b60008251111561392c5781518083602001fd5b806040517f08c379a00000000000000000000000000000000000000000000000000000000081526004016139609190614ac0565b60405180910390fd5b6000604051905090565b600080fd5b600080fd5b600073ffffffffffffffffffffffffffffffffffffffff82169050919050565b60006139a88261397d565b9050919050565b6139b88161399d565b81146139c357600080fd5b50565b6000813590506139d5816139af565b92915050565b6000819050919050565b6139ee816139db565b81146139f957600080fd5b50565b600081359050613a0b816139e5565b92915050565b60008060408385031215613a2857613a27613973565b5b6000613a36858286016139c6565b9250506020613a47858286016139fc565b9150509250929050565b613a5a816139db565b82525050565b6000602082019050613a756000830184613a51565b92915050565b613a848161399d565b82525050565b6000602082019050613a9f6000830184613a7b565b92915050565b600060208284031215613abb57613aba613973565b5b6000613ac9848285016139c6565b91505092915050565b600080600080600080600060e0888a031215613af157613af0613973565b5b6000613aff8a828b016139c6565b9750506020613b108a828b016139c6565b9650506040613b218a828b016139c6565b9550506060613b328a828b016139c6565b9450506080613b438a828b016139c6565b93505060a0613b548a828b016139c6565b92505060c0613b658a828b016139c6565b91505092959891949750929550565b60008115159050919050565b613b8981613b74565b82525050565b6000602082019050613ba46000830184613b80565b92915050565b600060208284031215613bc057613bbf613973565b5b6000613bce848285016139fc565b91505092915050565b600080600060608486031215613bf057613bef613973565b5b6000613bfe868287016139c6565b9350506020613c0f868287016139fc565b9250506040613c20868287016139fc565b9150509250925092565b600082825260208201905092915050565b7f5265656e7472616e637947756172643a207265656e7472616e742063616c6c00600082015250565b6000613c71601f83613c2a565b9150613c7c82613c3b565b602082019050919050565b60006020820190508181036000830152613ca081613c64565b9050919050565b6000606082019050613cbc6000830186613a7b565b613cc96020830185613a7b565b613cd66040830184613a51565b949350505050565b600081519050613ced816139e5565b92915050565b600060208284031215613d0957613d08613973565b5b6000613d1784828501613cde565b91505092915050565b6000604082019050613d356000830185613a7b565b613d426020830184613a7b565b9392505050565b7f496e697469616c697a61626c653a20636f6e747261637420697320616c72656160008201527f647920696e697469616c697a6564000000000000000000000000000000000000602082015250565b6000613da5602e83613c2a565b9150613db082613d49565b604082019050919050565b60006020820190508181036000830152613dd481613d98565b9050919050565b6000819050919050565b600060ff82169050919050565b6000819050919050565b6000613e17613e12613e0d84613ddb565b613df2565b613de5565b9050919050565b613e2781613dfc565b82525050565b6000602082019050613e426000830184613e1e565b92915050565b7f4365526f757465722f44697361626c6564000000000000000000000000000000600082015250565b6000613e7e601183613c2a565b9150613e8982613e48565b602082019050919050565b60006020820190508181036000830152613ead81613e71565b9050919050565b7f4e487b7100000000000000000000000000000000000000000000000000000000600052604160045260246000fd5b7f4e487b7100000000000000000000000000000000000000000000000000000000600052603260045260246000fd5b7f4e487b7100000000000000000000000000000000000000000000000000000000600052601160045260246000fd5b6000613f4c826139db565b9150613f57836139db565b9250827fffffffffffffffffffffffffffffffffffffffffffffffffffffffffffffffff03821115613f8c57613f8b613f12565b5b828201905092915050565b600081519050919050565b600082825260208201905092915050565b6000819050602082019050919050565b613fcc8161399d565b82525050565b6000613fde8383613fc3565b60208301905092915050565b6000602082019050919050565b600061400282613f97565b61400c8185613fa2565b935061401783613fb3565b8060005b8381101561404857815161402f8882613fd2565b975061403a83613fea565b92505060018101905061401b565b5085935050505092915050565b600060a08201905061406a6000830188613a51565b6140776020830187613a51565b81810360408301526140898186613ff7565b90506140986060830185613a7b565b6140a56080830184613a51565b9695505050505050565b600080fd5b6000601f19601f8301169050919050565b6140ce826140b4565b810181811067ffffffffffffffff821117156140ed576140ec613eb4565b5b80604052505050565b6000614100613969565b905061410c82826140c5565b919050565b600067ffffffffffffffff82111561412c5761412b613eb4565b5b602082029050602081019050919050565b600080fd5b600061415561415084614111565b6140f6565b905080838252602082019050602084028301858111156141785761417761413d565b5b835b818110156141a1578061418d8882613cde565b84526020840193505060208101905061417a565b5050509392505050565b600082601f8301126141c0576141bf6140af565b5b81516141d0848260208601614142565b91505092915050565b6000602082840312156141ef576141ee613973565b5b600082015167ffffffffffffffff81111561420d5761420c613978565b5b614219848285016141ab565b91505092915050565b7f50726f76696465723a206e6f7420616c6c6f7765640000000000000000000000600082015250565b6000614258601583613c2a565b915061426382614222565b602082019050919050565b600060208201905081810360008301526142878161424b565b9050919050565b60006040820190506142a36000830185613a7b565b6142b06020830184613a51565b9392505050565b6000819050919050565b60006142dc6142d76142d2846142b7565b613df2565b6139db565b9050919050565b6142ec816142c1565b82525050565b60006040820190506143076000830185613a51565b61431460208301846142e3565b9392505050565b7f686173206e6f7420676f7420612070726f666974000000000000000000000000600082015250565b6000614351601483613c2a565b915061435c8261431b565b602082019050919050565b6000602082019050818103600083015261438081614344565b9050919050565b7f696e73756666696369656e7420616d6f756e7400000000000000000000000000600082015250565b60006143bd601383613c2a565b91506143c882614387565b602082019050919050565b600060208201905081810360008301526143ec816143b0565b9050919050565b60006143fe826139db565b9150614409836139db565b92508282101561441c5761441b613f12565b5b828203905092915050565b7f4445582044495341424c45440000000000000000000000000000000000000000600082015250565b600061445d600c83613c2a565b915061446882614427565b602082019050919050565b6000602082019050818103600083015261448c81614450565b9050919050565b7f696e73756666696369656e7420616d6f756e74206f66204365726f73526f757460008201527f657220696e206365727420746f6b656e00000000000000000000000000000000602082015250565b60006144ef603083613c2a565b91506144fa82614493565b604082019050919050565b6000602082019050818103600083015261451e816144e2565b9050919050565b600060408201905061453a6000830185613a51565b6145476020830184613a51565b9392505050565b7f4f776e61626c653a206e6577206f776e657220697320746865207a65726f206160008201527f6464726573730000000000000000000000000000000000000000000000000000602082015250565b60006145aa602683613c2a565b91506145b58261454e565b604082019050919050565b600060208201905081810360008301526145d98161459d565b9050919050565b7f76616c7565206d7573742062652067726561746572207468616e206d696e207560008201527f6e7374616b6520616d6f756e7400000000000000000000000000000000000000602082015250565b600061463c602d83613c2a565b9150614647826145e0565b604082019050919050565b6000602082019050818103600083015261466b8161462f565b9050919050565b7f496e697469616c697a61626c653a20636f6e7472616374206973206e6f74206960008201527f6e697469616c697a696e67000000000000000000000000000000000000000000602082015250565b60006146ce602b83613c2a565b91506146d982614672565b604082019050919050565b600060208201905081810360008301526146fd816146c1565b9050919050565b7f5361666545524332303a20617070726f76652066726f6d206e6f6e2d7a65726f60008201527f20746f206e6f6e2d7a65726f20616c6c6f77616e636500000000000000000000602082015250565b6000614760603683613c2a565b915061476b82614704565b604082019050919050565b6000602082019050818103600083015261478f81614753565b9050919050565b7f4f776e61626c653a2063616c6c6572206973206e6f7420746865206f776e6572600082015250565b60006147cc602083613c2a565b91506147d782614796565b602082019050919050565b600060208201905081810360008301526147fb816147bf565b9050919050565b61480b81613b74565b811461481657600080fd5b50565b60008151905061482881614802565b92915050565b60006020828403121561484457614843613973565b5b600061485284828501614819565b91505092915050565b7f5361666545524332303a204552433230206f7065726174696f6e20646964206e60008201527f6f74207375636365656400000000000000000000000000000000000000000000602082015250565b60006148b7602a83613c2a565b91506148c28261485b565b604082019050919050565b600060208201905081810360008301526148e6816148aa565b9050919050565b7f416464726573733a20696e73756666696369656e742062616c616e636520666f60008201527f722063616c6c0000000000000000000000000000000000000000000000000000602082015250565b6000614949602683613c2a565b9150614954826148ed565b604082019050919050565b600060208201905081810360008301526149788161493c565b9050919050565b600081519050919050565b600081905092915050565b60005b838110156149b3578082015181840152602081019050614998565b838111156149c2576000848401525b50505050565b60006149d38261497f565b6149dd818561498a565b93506149ed818560208601614995565b80840191505092915050565b6000614a0582846149c8565b915081905092915050565b7f416464726573733a2063616c6c20746f206e6f6e2d636f6e7472616374000000600082015250565b6000614a46601d83613c2a565b9150614a5182614a10565b602082019050919050565b60006020820190508181036000830152614a7581614a39565b9050919050565b600081519050919050565b6000614a9282614a7c565b614a9c8185613c2a565b9350614aac818560208601614995565b614ab5816140b4565b840191505092915050565b60006020820190508181036000830152614ada8184614a87565b90509291505056fea2646970667358221220a1a91f20f08d6bef89e170b12bd14697175cbbb6a5816417893a5e16df04d56564736f6c634300080a0033",
					"opcodes": "PUSH1 0x80 PUSH1 0x40 MSTORE CALLVALUE DUP1 ISZERO PUSH2 0x10 JUMPI PUSH1 0x0 DUP1 REVERT JUMPDEST POP PUSH2 0x4B18 DUP1 PUSH2 0x20 PUSH1 0x0 CODECOPY PUSH1 0x0 RETURN INVALID PUSH1 0x80 PUSH1 0x40 MSTORE PUSH1 0x4 CALLDATASIZE LT PUSH2 0x1CD JUMPI PUSH1 0x0 CALLDATALOAD PUSH1 0xE0 SHR DUP1 PUSH4 0x796F69AA GT PUSH2 0xF7 JUMPI DUP1 PUSH4 0xAC78467C GT PUSH2 0x95 JUMPI DUP1 PUSH4 0xDB518DB2 GT PUSH2 0x64 JUMPI DUP1 PUSH4 0xDB518DB2 EQ PUSH2 0x691 JUMPI DUP1 PUSH4 0xF2FDE38B EQ PUSH2 0x6CE JUMPI DUP1 PUSH4 0xF3FEF3A3 EQ PUSH2 0x6F7 JUMPI DUP1 PUSH4 0xF586C6D9 EQ PUSH2 0x734 JUMPI PUSH2 0x1CD JUMP JUMPDEST DUP1 PUSH4 0xAC78467C EQ PUSH2 0x5D0 JUMPI DUP1 PUSH4 0xBCDEF0A4 EQ PUSH2 0x60D JUMPI DUP1 PUSH4 0xC0AB44F6 EQ PUSH2 0x64A JUMPI DUP1 PUSH4 0xD0E30DB0 EQ PUSH2 0x673 JUMPI PUSH2 0x1CD JUMP JUMPDEST DUP1 PUSH4 0x8DA5CB5B GT PUSH2 0xD1 JUMPI DUP1 PUSH4 0x8DA5CB5B EQ PUSH2 0x500 JUMPI DUP1 PUSH4 0x97FD9BE7 EQ PUSH2 0x52B JUMPI DUP1 PUSH4 0xAB43C3DF EQ PUSH2 0x556 JUMPI DUP1 PUSH4 0xAB89B6AF EQ PUSH2 0x593 JUMPI PUSH2 0x1CD JUMP JUMPDEST DUP1 PUSH4 0x796F69AA EQ PUSH2 0x46F JUMPI DUP1 PUSH4 0x7C0A75E5 EQ PUSH2 0x498 JUMPI DUP1 PUSH4 0x854CF3CF EQ PUSH2 0x4D5 JUMPI PUSH2 0x1CD JUMP JUMPDEST DUP1 PUSH4 0x483D45BD GT PUSH2 0x16F JUMPI DUP1 PUSH4 0x665A21DB GT PUSH2 0x13E JUMPI DUP1 PUSH4 0x665A21DB EQ PUSH2 0x3D9 JUMPI DUP1 PUSH4 0x69D2DA9C EQ PUSH2 0x404 JUMPI DUP1 PUSH4 0x6EECFDAA EQ PUSH2 0x42D JUMPI DUP1 PUSH4 0x715018A6 EQ PUSH2 0x458 JUMPI PUSH2 0x1CD JUMP JUMPDEST DUP1 PUSH4 0x483D45BD EQ PUSH2 0x32F JUMPI DUP1 PUSH4 0x5C975ABB EQ PUSH2 0x35A JUMPI DUP1 PUSH4 0x60E232A9 EQ PUSH2 0x385 JUMPI DUP1 PUSH4 0x65CACAA4 EQ PUSH2 0x3AE JUMPI PUSH2 0x1CD JUMP JUMPDEST DUP1 PUSH4 0x223888C1 GT PUSH2 0x1AB JUMPI DUP1 PUSH4 0x223888C1 EQ PUSH2 0x277 JUMPI DUP1 PUSH4 0x35876476 EQ PUSH2 0x2B4 JUMPI DUP1 PUSH4 0x3AF82C59 EQ PUSH2 0x2DD JUMPI DUP1 PUSH4 0x4339BC30 EQ PUSH2 0x306 JUMPI PUSH2 0x1CD JUMP JUMPDEST DUP1 PUSH4 0x3550D56 EQ PUSH2 0x1D2 JUMPI DUP1 PUSH4 0xC632BBE EQ PUSH2 0x20F JUMPI DUP1 PUSH4 0x1E83409A EQ PUSH2 0x23A JUMPI JUMPDEST PUSH1 0x0 DUP1 REVERT JUMPDEST CALLVALUE DUP1 ISZERO PUSH2 0x1DE JUMPI PUSH1 0x0 DUP1 REVERT JUMPDEST POP PUSH2 0x1F9 PUSH1 0x4 DUP1 CALLDATASIZE SUB DUP2 ADD SWAP1 PUSH2 0x1F4 SWAP2 SWAP1 PUSH2 0x3A11 JUMP JUMPDEST PUSH2 0x75F JUMP JUMPDEST PUSH1 0x40 MLOAD PUSH2 0x206 SWAP2 SWAP1 PUSH2 0x3A60 JUMP JUMPDEST PUSH1 0x40 MLOAD DUP1 SWAP2 SUB SWAP1 RETURN JUMPDEST CALLVALUE DUP1 ISZERO PUSH2 0x21B JUMPI PUSH1 0x0 DUP1 REVERT JUMPDEST POP PUSH2 0x224 PUSH2 0x8FF JUMP JUMPDEST PUSH1 0x40 MLOAD PUSH2 0x231 SWAP2 SWAP1 PUSH2 0x3A8A JUMP JUMPDEST PUSH1 0x40 MLOAD DUP1 SWAP2 SUB SWAP1 RETURN JUMPDEST CALLVALUE DUP1 ISZERO PUSH2 0x246 JUMPI PUSH1 0x0 DUP1 REVERT JUMPDEST POP PUSH2 0x261 PUSH1 0x4 DUP1 CALLDATASIZE SUB DUP2 ADD SWAP1 PUSH2 0x25C SWAP2 SWAP1 PUSH2 0x3AA5 JUMP JUMPDEST PUSH2 0x929 JUMP JUMPDEST PUSH1 0x40 MLOAD PUSH2 0x26E SWAP2 SWAP1 PUSH2 0x3A60 JUMP JUMPDEST PUSH1 0x40 MLOAD DUP1 SWAP2 SUB SWAP1 RETURN JUMPDEST CALLVALUE DUP1 ISZERO PUSH2 0x283 JUMPI PUSH1 0x0 DUP1 REVERT JUMPDEST POP PUSH2 0x29E PUSH1 0x4 DUP1 CALLDATASIZE SUB DUP2 ADD SWAP1 PUSH2 0x299 SWAP2 SWAP1 PUSH2 0x3AA5 JUMP JUMPDEST PUSH2 0xAAF JUMP JUMPDEST PUSH1 0x40 MLOAD PUSH2 0x2AB SWAP2 SWAP1 PUSH2 0x3A60 JUMP JUMPDEST PUSH1 0x40 MLOAD DUP1 SWAP2 SUB SWAP1 RETURN JUMPDEST CALLVALUE DUP1 ISZERO PUSH2 0x2C0 JUMPI PUSH1 0x0 DUP1 REVERT JUMPDEST POP PUSH2 0x2DB PUSH1 0x4 DUP1 CALLDATASIZE SUB DUP2 ADD SWAP1 PUSH2 0x2D6 SWAP2 SWAP1 PUSH2 0x3AD2 JUMP JUMPDEST PUSH2 0xB54 JUMP JUMPDEST STOP JUMPDEST CALLVALUE DUP1 ISZERO PUSH2 0x2E9 JUMPI PUSH1 0x0 DUP1 REVERT JUMPDEST POP PUSH2 0x304 PUSH1 0x4 DUP1 CALLDATASIZE SUB DUP2 ADD SWAP1 PUSH2 0x2FF SWAP2 SWAP1 PUSH2 0x3AA5 JUMP JUMPDEST PUSH2 0xFA6 JUMP JUMPDEST STOP JUMPDEST CALLVALUE DUP1 ISZERO PUSH2 0x312 JUMPI PUSH1 0x0 DUP1 REVERT JUMPDEST POP PUSH2 0x32D PUSH1 0x4 DUP1 CALLDATASIZE SUB DUP2 ADD SWAP1 PUSH2 0x328 SWAP2 SWAP1 PUSH2 0x3AA5 JUMP JUMPDEST PUSH2 0x117F JUMP JUMPDEST STOP JUMPDEST CALLVALUE DUP1 ISZERO PUSH2 0x33B JUMPI PUSH1 0x0 DUP1 REVERT JUMPDEST POP PUSH2 0x344 PUSH2 0x1301 JUMP JUMPDEST PUSH1 0x40 MLOAD PUSH2 0x351 SWAP2 SWAP1 PUSH2 0x3A8A JUMP JUMPDEST PUSH1 0x40 MLOAD DUP1 SWAP2 SUB SWAP1 RETURN JUMPDEST CALLVALUE DUP1 ISZERO PUSH2 0x366 JUMPI PUSH1 0x0 DUP1 REVERT JUMPDEST POP PUSH2 0x36F PUSH2 0x132B JUMP JUMPDEST PUSH1 0x40 MLOAD PUSH2 0x37C SWAP2 SWAP1 PUSH2 0x3B8F JUMP JUMPDEST PUSH1 0x40 MLOAD DUP1 SWAP2 SUB SWAP1 RETURN JUMPDEST CALLVALUE DUP1 ISZERO PUSH2 0x391 JUMPI PUSH1 0x0 DUP1 REVERT JUMPDEST POP PUSH2 0x3AC PUSH1 0x4 DUP1 CALLDATASIZE SUB DUP2 ADD SWAP1 PUSH2 0x3A7 SWAP2 SWAP1 PUSH2 0x3AA5 JUMP JUMPDEST PUSH2 0x1342 JUMP JUMPDEST STOP JUMPDEST CALLVALUE DUP1 ISZERO PUSH2 0x3BA JUMPI PUSH1 0x0 DUP1 REVERT JUMPDEST POP PUSH2 0x3C3 PUSH2 0x14C4 JUMP JUMPDEST PUSH1 0x40 MLOAD PUSH2 0x3D0 SWAP2 SWAP1 PUSH2 0x3A8A JUMP JUMPDEST PUSH1 0x40 MLOAD DUP1 SWAP2 SUB SWAP1 RETURN JUMPDEST CALLVALUE DUP1 ISZERO PUSH2 0x3E5 JUMPI PUSH1 0x0 DUP1 REVERT JUMPDEST POP PUSH2 0x3EE PUSH2 0x14EE JUMP JUMPDEST PUSH1 0x40 MLOAD PUSH2 0x3FB SWAP2 SWAP1 PUSH2 0x3A8A JUMP JUMPDEST PUSH1 0x40 MLOAD DUP1 SWAP2 SUB SWAP1 RETURN JUMPDEST CALLVALUE DUP1 ISZERO PUSH2 0x410 JUMPI PUSH1 0x0 DUP1 REVERT JUMPDEST POP PUSH2 0x42B PUSH1 0x4 DUP1 CALLDATASIZE SUB DUP2 ADD SWAP1 PUSH2 0x426 SWAP2 SWAP1 PUSH2 0x3AA5 JUMP JUMPDEST PUSH2 0x1518 JUMP JUMPDEST STOP JUMPDEST CALLVALUE DUP1 ISZERO PUSH2 0x439 JUMPI PUSH1 0x0 DUP1 REVERT JUMPDEST POP PUSH2 0x442 PUSH2 0x1799 JUMP JUMPDEST PUSH1 0x40 MLOAD PUSH2 0x44F SWAP2 SWAP1 PUSH2 0x3A8A JUMP JUMPDEST PUSH1 0x40 MLOAD DUP1 SWAP2 SUB SWAP1 RETURN JUMPDEST CALLVALUE DUP1 ISZERO PUSH2 0x464 JUMPI PUSH1 0x0 DUP1 REVERT JUMPDEST POP PUSH2 0x46D PUSH2 0x17C3 JUMP JUMPDEST STOP JUMPDEST CALLVALUE DUP1 ISZERO PUSH2 0x47B JUMPI PUSH1 0x0 DUP1 REVERT JUMPDEST POP PUSH2 0x496 PUSH1 0x4 DUP1 CALLDATASIZE SUB DUP2 ADD SWAP1 PUSH2 0x491 SWAP2 SWAP1 PUSH2 0x3AA5 JUMP JUMPDEST PUSH2 0x17D7 JUMP JUMPDEST STOP JUMPDEST CALLVALUE DUP1 ISZERO PUSH2 0x4A4 JUMPI PUSH1 0x0 DUP1 REVERT JUMPDEST POP PUSH2 0x4BF PUSH1 0x4 DUP1 CALLDATASIZE SUB DUP2 ADD SWAP1 PUSH2 0x4BA SWAP2 SWAP1 PUSH2 0x3BAA JUMP JUMPDEST PUSH2 0x185A JUMP JUMPDEST PUSH1 0x40 MLOAD PUSH2 0x4CC SWAP2 SWAP1 PUSH2 0x3A60 JUMP JUMPDEST PUSH1 0x40 MLOAD DUP1 SWAP2 SUB SWAP1 RETURN JUMPDEST CALLVALUE DUP1 ISZERO PUSH2 0x4E1 JUMPI PUSH1 0x0 DUP1 REVERT JUMPDEST POP PUSH2 0x4EA PUSH2 0x18E5 JUMP JUMPDEST PUSH1 0x40 MLOAD PUSH2 0x4F7 SWAP2 SWAP1 PUSH2 0x3A8A JUMP JUMPDEST PUSH1 0x40 MLOAD DUP1 SWAP2 SUB SWAP1 RETURN JUMPDEST CALLVALUE DUP1 ISZERO PUSH2 0x50C JUMPI PUSH1 0x0 DUP1 REVERT JUMPDEST POP PUSH2 0x515 PUSH2 0x190F JUMP JUMPDEST PUSH1 0x40 MLOAD PUSH2 0x522 SWAP2 SWAP1 PUSH2 0x3A8A JUMP JUMPDEST PUSH1 0x40 MLOAD DUP1 SWAP2 SUB SWAP1 RETURN JUMPDEST CALLVALUE DUP1 ISZERO PUSH2 0x537 JUMPI PUSH1 0x0 DUP1 REVERT JUMPDEST POP PUSH2 0x540 PUSH2 0x1939 JUMP JUMPDEST PUSH1 0x40 MLOAD PUSH2 0x54D SWAP2 SWAP1 PUSH2 0x3A8A JUMP JUMPDEST PUSH1 0x40 MLOAD DUP1 SWAP2 SUB SWAP1 RETURN JUMPDEST CALLVALUE DUP1 ISZERO PUSH2 0x562 JUMPI PUSH1 0x0 DUP1 REVERT JUMPDEST POP PUSH2 0x57D PUSH1 0x4 DUP1 CALLDATASIZE SUB DUP2 ADD SWAP1 PUSH2 0x578 SWAP2 SWAP1 PUSH2 0x3BD7 JUMP JUMPDEST PUSH2 0x1963 JUMP JUMPDEST PUSH1 0x40 MLOAD PUSH2 0x58A SWAP2 SWAP1 PUSH2 0x3A60 JUMP JUMPDEST PUSH1 0x40 MLOAD DUP1 SWAP2 SUB SWAP1 RETURN JUMPDEST CALLVALUE DUP1 ISZERO PUSH2 0x59F JUMPI PUSH1 0x0 DUP1 REVERT JUMPDEST POP PUSH2 0x5BA PUSH1 0x4 DUP1 CALLDATASIZE SUB DUP2 ADD SWAP1 PUSH2 0x5B5 SWAP2 SWAP1 PUSH2 0x3AA5 JUMP JUMPDEST PUSH2 0x1D2B JUMP JUMPDEST PUSH1 0x40 MLOAD PUSH2 0x5C7 SWAP2 SWAP1 PUSH2 0x3A60 JUMP JUMPDEST PUSH1 0x40 MLOAD DUP1 SWAP2 SUB SWAP1 RETURN JUMPDEST CALLVALUE DUP1 ISZERO PUSH2 0x5DC JUMPI PUSH1 0x0 DUP1 REVERT JUMPDEST POP PUSH2 0x5F7 PUSH1 0x4 DUP1 CALLDATASIZE SUB DUP2 ADD SWAP1 PUSH2 0x5F2 SWAP2 SWAP1 PUSH2 0x3AA5 JUMP JUMPDEST PUSH2 0x1DD0 JUMP JUMPDEST PUSH1 0x40 MLOAD PUSH2 0x604 SWAP2 SWAP1 PUSH2 0x3A60 JUMP JUMPDEST PUSH1 0x40 MLOAD DUP1 SWAP2 SUB SWAP1 RETURN JUMPDEST CALLVALUE DUP1 ISZERO PUSH2 0x619 JUMPI PUSH1 0x0 DUP1 REVERT JUMPDEST POP PUSH2 0x634 PUSH1 0x4 DUP1 CALLDATASIZE SUB DUP2 ADD SWAP1 PUSH2 0x62F SWAP2 SWAP1 PUSH2 0x3A11 JUMP JUMPDEST PUSH2 0x1E19 JUMP JUMPDEST PUSH1 0x40 MLOAD PUSH2 0x641 SWAP2 SWAP1 PUSH2 0x3A60 JUMP JUMPDEST PUSH1 0x40 MLOAD DUP1 SWAP2 SUB SWAP1 RETURN JUMPDEST CALLVALUE DUP1 ISZERO PUSH2 0x656 JUMPI PUSH1 0x0 DUP1 REVERT JUMPDEST POP PUSH2 0x671 PUSH1 0x4 DUP1 CALLDATASIZE SUB DUP2 ADD SWAP1 PUSH2 0x66C SWAP2 SWAP1 PUSH2 0x3AA5 JUMP JUMPDEST PUSH2 0x20BF JUMP JUMPDEST STOP JUMPDEST PUSH2 0x67B PUSH2 0x23A8 JUMP JUMPDEST PUSH1 0x40 MLOAD PUSH2 0x688 SWAP2 SWAP1 PUSH2 0x3A60 JUMP JUMPDEST PUSH1 0x40 MLOAD DUP1 SWAP2 SUB SWAP1 RETURN JUMPDEST CALLVALUE DUP1 ISZERO PUSH2 0x69D JUMPI PUSH1 0x0 DUP1 REVERT JUMPDEST POP PUSH2 0x6B8 PUSH1 0x4 DUP1 CALLDATASIZE SUB DUP2 ADD SWAP1 PUSH2 0x6B3 SWAP2 SWAP1 PUSH2 0x3A11 JUMP JUMPDEST PUSH2 0x295D JUMP JUMPDEST PUSH1 0x40 MLOAD PUSH2 0x6C5 SWAP2 SWAP1 PUSH2 0x3A60 JUMP JUMPDEST PUSH1 0x40 MLOAD DUP1 SWAP2 SUB SWAP1 RETURN JUMPDEST CALLVALUE DUP1 ISZERO PUSH2 0x6DA JUMPI PUSH1 0x0 DUP1 REVERT JUMPDEST POP PUSH2 0x6F5 PUSH1 0x4 DUP1 CALLDATASIZE SUB DUP2 ADD SWAP1 PUSH2 0x6F0 SWAP2 SWAP1 PUSH2 0x3AA5 JUMP JUMPDEST PUSH2 0x2C59 JUMP JUMPDEST STOP JUMPDEST CALLVALUE DUP1 ISZERO PUSH2 0x703 JUMPI PUSH1 0x0 DUP1 REVERT JUMPDEST POP PUSH2 0x71E PUSH1 0x4 DUP1 CALLDATASIZE SUB DUP2 ADD SWAP1 PUSH2 0x719 SWAP2 SWAP1 PUSH2 0x3A11 JUMP JUMPDEST PUSH2 0x2CDD JUMP JUMPDEST PUSH1 0x40 MLOAD PUSH2 0x72B SWAP2 SWAP1 PUSH2 0x3A60 JUMP JUMPDEST PUSH1 0x40 MLOAD DUP1 SWAP2 SUB SWAP1 RETURN JUMPDEST CALLVALUE DUP1 ISZERO PUSH2 0x740 JUMPI PUSH1 0x0 DUP1 REVERT JUMPDEST POP PUSH2 0x749 PUSH2 0x30AC JUMP JUMPDEST PUSH1 0x40 MLOAD PUSH2 0x756 SWAP2 SWAP1 PUSH2 0x3A8A JUMP JUMPDEST PUSH1 0x40 MLOAD DUP1 SWAP2 SUB SWAP1 RETURN JUMPDEST PUSH1 0x0 PUSH1 0x2 PUSH1 0x97 SLOAD EQ ISZERO PUSH2 0x7A7 JUMPI PUSH1 0x40 MLOAD PUSH32 0x8C379A000000000000000000000000000000000000000000000000000000000 DUP2 MSTORE PUSH1 0x4 ADD PUSH2 0x79E SWAP1 PUSH2 0x3C87 JUMP JUMPDEST PUSH1 0x40 MLOAD DUP1 SWAP2 SUB SWAP1 REVERT JUMPDEST PUSH1 0x2 PUSH1 0x97 DUP2 SWAP1 SSTORE POP PUSH1 0xC9 PUSH1 0x0 SWAP1 SLOAD SWAP1 PUSH2 0x100 EXP SWAP1 DIV PUSH20 0xFFFFFFFFFFFFFFFFFFFFFFFFFFFFFFFFFFFFFFFF AND PUSH20 0xFFFFFFFFFFFFFFFFFFFFFFFFFFFFFFFFFFFFFFFF AND PUSH4 0x9F1D9267 CALLER DUP6 DUP6 PUSH1 0x40 MLOAD DUP5 PUSH4 0xFFFFFFFF AND PUSH1 0xE0 SHL DUP2 MSTORE PUSH1 0x4 ADD PUSH2 0x80E SWAP4 SWAP3 SWAP2 SWAP1 PUSH2 0x3CA7 JUMP JUMPDEST PUSH1 0x20 PUSH1 0x40 MLOAD DUP1 DUP4 SUB DUP2 PUSH1 0x0 DUP8 GAS CALL ISZERO DUP1 ISZERO PUSH2 0x82D JUMPI RETURNDATASIZE PUSH1 0x0 DUP1 RETURNDATACOPY RETURNDATASIZE PUSH1 0x0 REVERT JUMPDEST POP POP POP POP PUSH1 0x40 MLOAD RETURNDATASIZE PUSH1 0x1F NOT PUSH1 0x1F DUP3 ADD AND DUP3 ADD DUP1 PUSH1 0x40 MSTORE POP DUP2 ADD SWAP1 PUSH2 0x851 SWAP2 SWAP1 PUSH2 0x3CF3 JUMP JUMPDEST SWAP1 POP PUSH1 0xCC PUSH1 0x0 SWAP1 SLOAD SWAP1 PUSH2 0x100 EXP SWAP1 DIV PUSH20 0xFFFFFFFFFFFFFFFFFFFFFFFFFFFFFFFFFFFFFFFF AND PUSH20 0xFFFFFFFFFFFFFFFFFFFFFFFFFFFFFFFFFFFFFFFF AND DUP4 PUSH20 0xFFFFFFFFFFFFFFFFFFFFFFFFFFFFFFFFFFFFFFFF AND CALLER PUSH20 0xFFFFFFFFFFFFFFFFFFFFFFFFFFFFFFFFFFFFFFFF AND PUSH32 0x342E7FF505A8A0364CD0DC2FF195C315E43BCE86B204846ECD36913E117B109E DUP5 PUSH1 0x40 MLOAD PUSH2 0x8E9 SWAP2 SWAP1 PUSH2 0x3A60 JUMP JUMPDEST PUSH1 0x40 MLOAD DUP1 SWAP2 SUB SWAP1 LOG4 PUSH1 0x1 PUSH1 0x97 DUP2 SWAP1 SSTORE POP SWAP3 SWAP2 POP POP JUMP JUMPDEST PUSH1 0x0 PUSH1 0xCE PUSH1 0x0 SWAP1 SLOAD SWAP1 PUSH2 0x100 EXP SWAP1 DIV PUSH20 0xFFFFFFFFFFFFFFFFFFFFFFFFFFFFFFFFFFFFFFFF AND SWAP1 POP SWAP1 JUMP JUMPDEST PUSH1 0x0 PUSH1 0x2 PUSH1 0x97 SLOAD EQ ISZERO PUSH2 0x971 JUMPI PUSH1 0x40 MLOAD PUSH32 0x8C379A000000000000000000000000000000000000000000000000000000000 DUP2 MSTORE PUSH1 0x4 ADD PUSH2 0x968 SWAP1 PUSH2 0x3C87 JUMP JUMPDEST PUSH1 0x40 MLOAD DUP1 SWAP2 SUB SWAP1 REVERT JUMPDEST PUSH1 0x2 PUSH1 0x97 DUP2 SWAP1 SSTORE POP PUSH1 0xC9 PUSH1 0x0 SWAP1 SLOAD SWAP1 PUSH2 0x100 EXP SWAP1 DIV PUSH20 0xFFFFFFFFFFFFFFFFFFFFFFFFFFFFFFFFFFFFFFFF AND PUSH20 0xFFFFFFFFFFFFFFFFFFFFFFFFFFFFFFFFFFFFFFFF AND PUSH4 0x1101596C CALLER DUP5 PUSH1 0x40 MLOAD DUP4 PUSH4 0xFFFFFFFF AND PUSH1 0xE0 SHL DUP2 MSTORE PUSH1 0x4 ADD PUSH2 0x9D6 SWAP3 SWAP2 SWAP1 PUSH2 0x3D20 JUMP JUMPDEST PUSH1 0x20 PUSH1 0x40 MLOAD DUP1 DUP4 SUB DUP2 PUSH1 0x0 DUP8 GAS CALL ISZERO DUP1 ISZERO PUSH2 0x9F5 JUMPI RETURNDATASIZE PUSH1 0x0 DUP1 RETURNDATACOPY RETURNDATASIZE PUSH1 0x0 REVERT JUMPDEST POP POP POP POP PUSH1 0x40 MLOAD RETURNDATASIZE PUSH1 0x1F NOT PUSH1 0x1F DUP3 ADD AND DUP3 ADD DUP1 PUSH1 0x40 MSTORE POP DUP2 ADD SWAP1 PUSH2 0xA19 SWAP2 SWAP1 PUSH2 0x3CF3 JUMP JUMPDEST SWAP1 POP PUSH1 0xCC PUSH1 0x0 SWAP1 SLOAD SWAP1 PUSH2 0x100 EXP SWAP1 DIV PUSH20 0xFFFFFFFFFFFFFFFFFFFFFFFFFFFFFFFFFFFFFFFF AND PUSH20 0xFFFFFFFFFFFFFFFFFFFFFFFFFFFFFFFFFFFFFFFF AND DUP3 PUSH20 0xFFFFFFFFFFFFFFFFFFFFFFFFFFFFFFFFFFFFFFFF AND PUSH32 0x70EB43C4A8AE8C40502DCF22436C509C28D6FF421CF07C491BE56984BD987068 DUP4 PUSH1 0x40 MLOAD PUSH2 0xA9A SWAP2 SWAP1 PUSH2 0x3A60 JUMP JUMPDEST PUSH1 0x40 MLOAD DUP1 SWAP2 SUB SWAP1 LOG3 PUSH1 0x1 PUSH1 0x97 DUP2 SWAP1 SSTORE POP SWAP2 SWAP1 POP JUMP JUMPDEST PUSH1 0x0 PUSH1 0xC9 PUSH1 0x0 SWAP1 SLOAD SWAP1 PUSH2 0x100 EXP SWAP1 DIV PUSH20 0xFFFFFFFFFFFFFFFFFFFFFFFFFFFFFFFFFFFFFFFF AND PUSH20 0xFFFFFFFFFFFFFFFFFFFFFFFFFFFFFFFFFFFFFFFF AND PUSH4 0x223888C1 DUP4 PUSH1 0x40 MLOAD DUP3 PUSH4 0xFFFFFFFF AND PUSH1 0xE0 SHL DUP2 MSTORE PUSH1 0x4 ADD PUSH2 0xB0C SWAP2 SWAP1 PUSH2 0x3A8A JUMP JUMPDEST PUSH1 0x20 PUSH1 0x40 MLOAD DUP1 DUP4 SUB DUP2 DUP7 GAS STATICCALL ISZERO DUP1 ISZERO PUSH2 0xB29 JUMPI RETURNDATASIZE PUSH1 0x0 DUP1 RETURNDATACOPY RETURNDATASIZE PUSH1 0x0 REVERT JUMPDEST POP POP POP POP PUSH1 0x40 MLOAD RETURNDATASIZE PUSH1 0x1F NOT PUSH1 0x1F DUP3 ADD AND DUP3 ADD DUP1 PUSH1 0x40 MSTORE POP DUP2 ADD SWAP1 PUSH2 0xB4D SWAP2 SWAP1 PUSH2 0x3CF3 JUMP JUMPDEST SWAP1 POP SWAP2 SWAP1 POP JUMP JUMPDEST PUSH1 0x0 DUP1 PUSH1 0x1 SWAP1 SLOAD SWAP1 PUSH2 0x100 EXP SWAP1 DIV PUSH1 0xFF AND ISZERO SWAP1 POP DUP1 DUP1 ISZERO PUSH2 0xB85 JUMPI POP PUSH1 0x1 PUSH1 0x0 DUP1 SLOAD SWAP1 PUSH2 0x100 EXP SWAP1 DIV PUSH1 0xFF AND PUSH1 0xFF AND LT JUMPDEST DUP1 PUSH2 0xBB2 JUMPI POP PUSH2 0xB94 ADDRESS PUSH2 0x30D6 JUMP JUMPDEST ISZERO DUP1 ISZERO PUSH2 0xBB1 JUMPI POP PUSH1 0x1 PUSH1 0x0 DUP1 SLOAD SWAP1 PUSH2 0x100 EXP SWAP1 DIV PUSH1 0xFF AND PUSH1 0xFF AND EQ JUMPDEST JUMPDEST PUSH2 0xBF1 JUMPI PUSH1 0x40 MLOAD PUSH32 0x8C379A000000000000000000000000000000000000000000000000000000000 DUP2 MSTORE PUSH1 0x4 ADD PUSH2 0xBE8 SWAP1 PUSH2 0x3DBB JUMP JUMPDEST PUSH1 0x40 MLOAD DUP1 SWAP2 SUB SWAP1 REVERT JUMPDEST PUSH1 0x1 PUSH1 0x0 DUP1 PUSH2 0x100 EXP DUP2 SLOAD DUP2 PUSH1 0xFF MUL NOT AND SWAP1 DUP4 PUSH1 0xFF AND MUL OR SWAP1 SSTORE POP DUP1 ISZERO PUSH2 0xC2E JUMPI PUSH1 0x1 PUSH1 0x0 PUSH1 0x1 PUSH2 0x100 EXP DUP2 SLOAD DUP2 PUSH1 0xFF MUL NOT AND SWAP1 DUP4 ISZERO ISZERO MUL OR SWAP1 SSTORE POP JUMPDEST PUSH2 0xC36 PUSH2 0x30F9 JUMP JUMPDEST PUSH2 0xC3E PUSH2 0x3152 JUMP JUMPDEST PUSH2 0xC46 PUSH2 0x31AB JUMP JUMPDEST DUP8 PUSH1 0xCC PUSH1 0x0 PUSH2 0x100 EXP DUP2 SLOAD DUP2 PUSH20 0xFFFFFFFFFFFFFFFFFFFFFFFFFFFFFFFFFFFFFFFF MUL NOT AND SWAP1 DUP4 PUSH20 0xFFFFFFFFFFFFFFFFFFFFFFFFFFFFFFFFFFFFFFFF AND MUL OR SWAP1 SSTORE POP DUP7 PUSH1 0xCD PUSH1 0x0 PUSH2 0x100 EXP DUP2 SLOAD DUP2 PUSH20 0xFFFFFFFFFFFFFFFFFFFFFFFFFFFFFFFFFFFFFFFF MUL NOT AND SWAP1 DUP4 PUSH20 0xFFFFFFFFFFFFFFFFFFFFFFFFFFFFFFFFFFFFFFFF AND MUL OR SWAP1 SSTORE POP DUP6 PUSH1 0xCE PUSH1 0x0 PUSH2 0x100 EXP DUP2 SLOAD DUP2 PUSH20 0xFFFFFFFFFFFFFFFFFFFFFFFFFFFFFFFFFFFFFFFF MUL NOT AND SWAP1 DUP4 PUSH20 0xFFFFFFFFFFFFFFFFFFFFFFFFFFFFFFFFFFFFFFFF AND MUL OR SWAP1 SSTORE POP DUP4 PUSH1 0xC9 PUSH1 0x0 PUSH2 0x100 EXP DUP2 SLOAD DUP2 PUSH20 0xFFFFFFFFFFFFFFFFFFFFFFFFFFFFFFFFFFFFFFFF MUL NOT AND SWAP1 DUP4 PUSH20 0xFFFFFFFFFFFFFFFFFFFFFFFFFFFFFFFFFFFFFFFF AND MUL OR SWAP1 SSTORE POP DUP3 PUSH1 0xCA PUSH1 0x0 PUSH2 0x100 EXP DUP2 SLOAD DUP2 PUSH20 0xFFFFFFFFFFFFFFFFFFFFFFFFFFFFFFFFFFFFFFFF MUL NOT AND SWAP1 DUP4 PUSH20 0xFFFFFFFFFFFFFFFFFFFFFFFFFFFFFFFFFFFFFFFF AND MUL OR SWAP1 SSTORE POP DUP2 PUSH1 0xCB PUSH1 0x0 PUSH2 0x100 EXP DUP2 SLOAD DUP2 PUSH20 0xFFFFFFFFFFFFFFFFFFFFFFFFFFFFFFFFFFFFFFFF MUL NOT AND SWAP1 DUP4 PUSH20 0xFFFFFFFFFFFFFFFFFFFFFFFFFFFFFFFFFFFFFFFF AND MUL OR SWAP1 SSTORE POP PUSH2 0xE17 DUP4 PUSH32 0xFFFFFFFFFFFFFFFFFFFFFFFFFFFFFFFFFFFFFFFFFFFFFFFFFFFFFFFFFFFFFFFF DUP10 PUSH20 0xFFFFFFFFFFFFFFFFFFFFFFFFFFFFFFFFFFFFFFFF AND PUSH2 0x3204 SWAP1 SWAP3 SWAP2 SWAP1 PUSH4 0xFFFFFFFF AND JUMP JUMPDEST PUSH2 0xE62 DUP4 PUSH32 0xFFFFFFFFFFFFFFFFFFFFFFFFFFFFFFFFFFFFFFFFFFFFFFFFFFFFFFFFFFFFFFFF DUP11 PUSH20 0xFFFFFFFFFFFFFFFFFFFFFFFFFFFFFFFFFFFFFFFF AND PUSH2 0x3204 SWAP1 SWAP3 SWAP2 SWAP1 PUSH4 0xFFFFFFFF AND JUMP JUMPDEST PUSH2 0xEAD DUP6 PUSH32 0xFFFFFFFFFFFFFFFFFFFFFFFFFFFFFFFFFFFFFFFFFFFFFFFFFFFFFFFFFFFFFFFF DUP11 PUSH20 0xFFFFFFFFFFFFFFFFFFFFFFFFFFFFFFFFFFFFFFFF AND PUSH2 0x3204 SWAP1 SWAP3 SWAP2 SWAP1 PUSH4 0xFFFFFFFF AND JUMP JUMPDEST PUSH2 0xEF8 DUP3 PUSH32 0xFFFFFFFFFFFFFFFFFFFFFFFFFFFFFFFFFFFFFFFFFFFFFFFFFFFFFFFFFFFFFFFF DUP11 PUSH20 0xFFFFFFFFFFFFFFFFFFFFFFFFFFFFFFFFFFFFFFFF AND PUSH2 0x3204 SWAP1 SWAP3 SWAP2 SWAP1 PUSH4 0xFFFFFFFF AND JUMP JUMPDEST PUSH2 0xF43 DUP5 PUSH32 0xFFFFFFFFFFFFFFFFFFFFFFFFFFFFFFFFFFFFFFFFFFFFFFFFFFFFFFFFFFFFFFFF DUP11 PUSH20 0xFFFFFFFFFFFFFFFFFFFFFFFFFFFFFFFFFFFFFFFF AND PUSH2 0x3204 SWAP1 SWAP3 SWAP2 SWAP1 PUSH4 0xFFFFFFFF AND JUMP JUMPDEST DUP1 ISZERO PUSH2 0xF9C JUMPI PUSH1 0x0 DUP1 PUSH1 0x1 PUSH2 0x100 EXP DUP2 SLOAD DUP2 PUSH1 0xFF MUL NOT AND SWAP1 DUP4 ISZERO ISZERO MUL OR SWAP1 SSTORE POP PUSH32 0x7F26B83FF96E1F2B6A682F133852F6798A09C465DA95921460CEFB3847402498 PUSH1 0x1 PUSH1 0x40 MLOAD PUSH2 0xF93 SWAP2 SWAP1 PUSH2 0x3E2D JUMP JUMPDEST PUSH1 0x40 MLOAD DUP1 SWAP2 SUB SWAP1 LOG1 JUMPDEST POP POP POP POP POP POP POP POP JUMP JUMPDEST PUSH2 0xFAE PUSH2 0x3353 JUMP JUMPDEST PUSH1 0x0 PUSH20 0xFFFFFFFFFFFFFFFFFFFFFFFFFFFFFFFFFFFFFFFF AND PUSH1 0xD1 PUSH1 0x0 SWAP1 SLOAD SWAP1 PUSH2 0x100 EXP SWAP1 DIV PUSH20 0xFFFFFFFFFFFFFFFFFFFFFFFFFFFFFFFFFFFFFFFF AND PUSH20 0xFFFFFFFFFFFFFFFFFFFFFFFFFFFFFFFFFFFFFFFF AND EQ PUSH2 0x1075 JUMPI PUSH2 0x1074 PUSH1 0xD1 PUSH1 0x0 SWAP1 SLOAD SWAP1 PUSH2 0x100 EXP SWAP1 DIV PUSH20 0xFFFFFFFFFFFFFFFFFFFFFFFFFFFFFFFFFFFFFFFF AND PUSH1 0x0 PUSH1 0xCC PUSH1 0x0 SWAP1 SLOAD SWAP1 PUSH2 0x100 EXP SWAP1 DIV PUSH20 0xFFFFFFFFFFFFFFFFFFFFFFFFFFFFFFFFFFFFFFFF AND PUSH20 0xFFFFFFFFFFFFFFFFFFFFFFFFFFFFFFFFFFFFFFFF AND PUSH2 0x3204 SWAP1 SWAP3 SWAP2 SWAP1 PUSH4 0xFFFFFFFF AND JUMP JUMPDEST JUMPDEST DUP1 PUSH1 0xD1 PUSH1 0x0 PUSH2 0x100 EXP DUP2 SLOAD DUP2 PUSH20 0xFFFFFFFFFFFFFFFFFFFFFFFFFFFFFFFFFFFFFFFF MUL NOT AND SWAP1 DUP4 PUSH20 0xFFFFFFFFFFFFFFFFFFFFFFFFFFFFFFFFFFFFFFFF AND MUL OR SWAP1 SSTORE POP PUSH2 0x1145 PUSH1 0xD1 PUSH1 0x0 SWAP1 SLOAD SWAP1 PUSH2 0x100 EXP SWAP1 DIV PUSH20 0xFFFFFFFFFFFFFFFFFFFFFFFFFFFFFFFFFFFFFFFF AND PUSH32 0xFFFFFFFFFFFFFFFFFFFFFFFFFFFFFFFFFFFFFFFFFFFFFFFFFFFFFFFFFFFFFFFF PUSH1 0xCC PUSH1 0x0 SWAP1 SLOAD SWAP1 PUSH2 0x100 EXP SWAP1 DIV PUSH20 0xFFFFFFFFFFFFFFFFFFFFFFFFFFFFFFFFFFFFFFFF AND PUSH20 0xFFFFFFFFFFFFFFFFFFFFFFFFFFFFFFFFFFFFFFFF AND PUSH2 0x3204 SWAP1 SWAP3 SWAP2 SWAP1 PUSH4 0xFFFFFFFF AND JUMP JUMPDEST PUSH32 0xC7C1B39B4C8950340EE2DDC449A99E16D5E090B420DB2E99160D82A9FF5580D9 DUP2 PUSH1 0x40 MLOAD PUSH2 0x1174 SWAP2 SWAP1 PUSH2 0x3A8A JUMP JUMPDEST PUSH1 0x40 MLOAD DUP1 SWAP2 SUB SWAP1 LOG1 POP JUMP JUMPDEST PUSH2 0x1187 PUSH2 0x3353 JUMP JUMPDEST PUSH2 0x11F7 PUSH1 0xCB PUSH1 0x0 SWAP1 SLOAD SWAP1 PUSH2 0x100 EXP SWAP1 DIV PUSH20 0xFFFFFFFFFFFFFFFFFFFFFFFFFFFFFFFFFFFFFFFF AND PUSH1 0x0 PUSH1 0xCC PUSH1 0x0 SWAP1 SLOAD SWAP1 PUSH2 0x100 EXP SWAP1 DIV PUSH20 0xFFFFFFFFFFFFFFFFFFFFFFFFFFFFFFFFFFFFFFFF AND PUSH20 0xFFFFFFFFFFFFFFFFFFFFFFFFFFFFFFFFFFFFFFFF AND PUSH2 0x3204 SWAP1 SWAP3 SWAP2 SWAP1 PUSH4 0xFFFFFFFF AND JUMP JUMPDEST DUP1 PUSH1 0xCB PUSH1 0x0 PUSH2 0x100 EXP DUP2 SLOAD DUP2 PUSH20 0xFFFFFFFFFFFFFFFFFFFFFFFFFFFFFFFFFFFFFFFF MUL NOT AND SWAP1 DUP4 PUSH20 0xFFFFFFFFFFFFFFFFFFFFFFFFFFFFFFFFFFFFFFFF AND MUL OR SWAP1 SSTORE POP PUSH2 0x12C7 PUSH1 0xCB PUSH1 0x0 SWAP1 SLOAD SWAP1 PUSH2 0x100 EXP SWAP1 DIV PUSH20 0xFFFFFFFFFFFFFFFFFFFFFFFFFFFFFFFFFFFFFFFF AND PUSH32 0xFFFFFFFFFFFFFFFFFFFFFFFFFFFFFFFFFFFFFFFFFFFFFFFFFFFFFFFFFFFFFFFF PUSH1 0xCC PUSH1 0x0 SWAP1 SLOAD SWAP1 PUSH2 0x100 EXP SWAP1 DIV PUSH20 0xFFFFFFFFFFFFFFFFFFFFFFFFFFFFFFFFFFFFFFFF AND PUSH20 0xFFFFFFFFFFFFFFFFFFFFFFFFFFFFFFFFFFFFFFFF AND PUSH2 0x3204 SWAP1 SWAP3 SWAP2 SWAP1 PUSH4 0xFFFFFFFF AND JUMP JUMPDEST PUSH32 0x79025DAB199855650264C602DE305DCF5C292B8E5B4470EF271724A79D0343F4 DUP2 PUSH1 0x40 MLOAD PUSH2 0x12F6 SWAP2 SWAP1 PUSH2 0x3A8A JUMP JUMPDEST PUSH1 0x40 MLOAD DUP1 SWAP2 SUB SWAP1 LOG1 POP JUMP JUMPDEST PUSH1 0x0 PUSH1 0xD0 PUSH1 0x0 SWAP1 SLOAD SWAP1 PUSH2 0x100 EXP SWAP1 DIV PUSH20 0xFFFFFFFFFFFFFFFFFFFFFFFFFFFFFFFFFFFFFFFF AND SWAP1 POP SWAP1 JUMP JUMPDEST PUSH1 0x0 PUSH1 0x65 PUSH1 0x0 SWAP1 SLOAD SWAP1 PUSH2 0x100 EXP SWAP1 DIV PUSH1 0xFF AND SWAP1 POP SWAP1 JUMP JUMPDEST PUSH2 0x134A PUSH2 0x3353 JUMP JUMPDEST PUSH2 0x13BA PUSH1 0xC9 PUSH1 0x0 SWAP1 SLOAD SWAP1 PUSH2 0x100 EXP SWAP1 DIV PUSH20 0xFFFFFFFFFFFFFFFFFFFFFFFFFFFFFFFFFFFFFFFF AND PUSH1 0x0 PUSH1 0xCC PUSH1 0x0 SWAP1 SLOAD SWAP1 PUSH2 0x100 EXP SWAP1 DIV PUSH20 0xFFFFFFFFFFFFFFFFFFFFFFFFFFFFFFFFFFFFFFFF AND PUSH20 0xFFFFFFFFFFFFFFFFFFFFFFFFFFFFFFFFFFFFFFFF AND PUSH2 0x3204 SWAP1 SWAP3 SWAP2 SWAP1 PUSH4 0xFFFFFFFF AND JUMP JUMPDEST DUP1 PUSH1 0xC9 PUSH1 0x0 PUSH2 0x100 EXP DUP2 SLOAD DUP2 PUSH20 0xFFFFFFFFFFFFFFFFFFFFFFFFFFFFFFFFFFFFFFFF MUL NOT AND SWAP1 DUP4 PUSH20 0xFFFFFFFFFFFFFFFFFFFFFFFFFFFFFFFFFFFFFFFF AND MUL OR SWAP1 SSTORE POP PUSH2 0x148A PUSH1 0xC9 PUSH1 0x0 SWAP1 SLOAD SWAP1 PUSH2 0x100 EXP SWAP1 DIV PUSH20 0xFFFFFFFFFFFFFFFFFFFFFFFFFFFFFFFFFFFFFFFF AND PUSH32 0xFFFFFFFFFFFFFFFFFFFFFFFFFFFFFFFFFFFFFFFFFFFFFFFFFFFFFFFFFFFFFFFF PUSH1 0xCC PUSH1 0x0 SWAP1 SLOAD SWAP1 PUSH2 0x100 EXP SWAP1 DIV PUSH20 0xFFFFFFFFFFFFFFFFFFFFFFFFFFFFFFFFFFFFFFFF AND PUSH20 0xFFFFFFFFFFFFFFFFFFFFFFFFFFFFFFFFFFFFFFFF AND PUSH2 0x3204 SWAP1 SWAP3 SWAP2 SWAP1 PUSH4 0xFFFFFFFF AND JUMP JUMPDEST PUSH32 0x646D70535C6B451B92021874A72ABD441F122BA1C0B8F24D074352BD169FAD3F DUP2 PUSH1 0x40 MLOAD PUSH2 0x14B9 SWAP2 SWAP1 PUSH2 0x3A8A JUMP JUMPDEST PUSH1 0x40 MLOAD DUP1 SWAP2 SUB SWAP1 LOG1 POP JUMP JUMPDEST PUSH1 0x0 PUSH1 0xC9 PUSH1 0x0 SWAP1 SLOAD SWAP1 PUSH2 0x100 EXP SWAP1 DIV PUSH20 0xFFFFFFFFFFFFFFFFFFFFFFFFFFFFFFFFFFFFFFFF AND SWAP1 POP SWAP1 JUMP JUMPDEST PUSH1 0x0 PUSH1 0xCD PUSH1 0x0 SWAP1 SLOAD SWAP1 PUSH2 0x100 EXP SWAP1 DIV PUSH20 0xFFFFFFFFFFFFFFFFFFFFFFFFFFFFFFFFFFFFFFFF AND SWAP1 POP SWAP1 JUMP JUMPDEST PUSH2 0x1520 PUSH2 0x3353 JUMP JUMPDEST PUSH2 0x1590 PUSH1 0xCA PUSH1 0x0 SWAP1 SLOAD SWAP1 PUSH2 0x100 EXP SWAP1 DIV PUSH20 0xFFFFFFFFFFFFFFFFFFFFFFFFFFFFFFFFFFFFFFFF AND PUSH1 0x0 PUSH1 0xCD PUSH1 0x0 SWAP1 SLOAD SWAP1 PUSH2 0x100 EXP SWAP1 DIV PUSH20 0xFFFFFFFFFFFFFFFFFFFFFFFFFFFFFFFFFFFFFFFF AND PUSH20 0xFFFFFFFFFFFFFFFFFFFFFFFFFFFFFFFFFFFFFFFF AND PUSH2 0x3204 SWAP1 SWAP3 SWAP2 SWAP1 PUSH4 0xFFFFFFFF AND JUMP JUMPDEST PUSH2 0x1600 PUSH1 0xCA PUSH1 0x0 SWAP1 SLOAD SWAP1 PUSH2 0x100 EXP SWAP1 DIV PUSH20 0xFFFFFFFFFFFFFFFFFFFFFFFFFFFFFFFFFFFFFFFF AND PUSH1 0x0 PUSH1 0xCC PUSH1 0x0 SWAP1 SLOAD SWAP1 PUSH2 0x100 EXP SWAP1 DIV PUSH20 0xFFFFFFFFFFFFFFFFFFFFFFFFFFFFFFFFFFFFFFFF AND PUSH20 0xFFFFFFFFFFFFFFFFFFFFFFFFFFFFFFFFFFFFFFFF AND PUSH2 0x3204 SWAP1 SWAP3 SWAP2 SWAP1 PUSH4 0xFFFFFFFF AND JUMP JUMPDEST DUP1 PUSH1 0xCA PUSH1 0x0 PUSH2 0x100 EXP DUP2 SLOAD DUP2 PUSH20 0xFFFFFFFFFFFFFFFFFFFFFFFFFFFFFFFFFFFFFFFF MUL NOT AND SWAP1 DUP4 PUSH20 0xFFFFFFFFFFFFFFFFFFFFFFFFFFFFFFFFFFFFFFFF AND MUL OR SWAP1 SSTORE POP PUSH2 0x16D0 PUSH1 0xCA PUSH1 0x0 SWAP1 SLOAD SWAP1 PUSH2 0x100 EXP SWAP1 DIV PUSH20 0xFFFFFFFFFFFFFFFFFFFFFFFFFFFFFFFFFFFFFFFF AND PUSH32 0xFFFFFFFFFFFFFFFFFFFFFFFFFFFFFFFFFFFFFFFFFFFFFFFFFFFFFFFFFFFFFFFF PUSH1 0xCD PUSH1 0x0 SWAP1 SLOAD SWAP1 PUSH2 0x100 EXP SWAP1 DIV PUSH20 0xFFFFFFFFFFFFFFFFFFFFFFFFFFFFFFFFFFFFFFFF AND PUSH20 0xFFFFFFFFFFFFFFFFFFFFFFFFFFFFFFFFFFFFFFFF AND PUSH2 0x3204 SWAP1 SWAP3 SWAP2 SWAP1 PUSH4 0xFFFFFFFF AND JUMP JUMPDEST PUSH2 0x175F PUSH1 0xCA PUSH1 0x0 SWAP1 SLOAD SWAP1 PUSH2 0x100 EXP SWAP1 DIV PUSH20 0xFFFFFFFFFFFFFFFFFFFFFFFFFFFFFFFFFFFFFFFF AND PUSH32 0xFFFFFFFFFFFFFFFFFFFFFFFFFFFFFFFFFFFFFFFFFFFFFFFFFFFFFFFFFFFFFFFF PUSH1 0xCC PUSH1 0x0 SWAP1 SLOAD SWAP1 PUSH2 0x100 EXP SWAP1 DIV PUSH20 0xFFFFFFFFFFFFFFFFFFFFFFFFFFFFFFFFFFFFFFFF AND PUSH20 0xFFFFFFFFFFFFFFFFFFFFFFFFFFFFFFFFFFFFFFFF AND PUSH2 0x3204 SWAP1 SWAP3 SWAP2 SWAP1 PUSH4 0xFFFFFFFF AND JUMP JUMPDEST PUSH32 0x90252124B346C6D6C466196D470D708D0C0C7026FE5BA62A2E01B5ADBF39E279 DUP2 PUSH1 0x40 MLOAD PUSH2 0x178E SWAP2 SWAP1 PUSH2 0x3A8A JUMP JUMPDEST PUSH1 0x40 MLOAD DUP1 SWAP2 SUB SWAP1 LOG1 POP JUMP JUMPDEST PUSH1 0x0 PUSH1 0xCC PUSH1 0x0 SWAP1 SLOAD SWAP1 PUSH2 0x100 EXP SWAP1 DIV PUSH20 0xFFFFFFFFFFFFFFFFFFFFFFFFFFFFFFFFFFFFFFFF AND SWAP1 POP SWAP1 JUMP JUMPDEST PUSH2 0x17CB PUSH2 0x3353 JUMP JUMPDEST PUSH2 0x17D5 PUSH1 0x0 PUSH2 0x33D1 JUMP JUMPDEST JUMP JUMPDEST PUSH2 0x17DF PUSH2 0x3353 JUMP JUMPDEST DUP1 PUSH1 0xD0 PUSH1 0x0 PUSH2 0x100 EXP DUP2 SLOAD DUP2 PUSH20 0xFFFFFFFFFFFFFFFFFFFFFFFFFFFFFFFFFFFFFFFF MUL NOT AND SWAP1 DUP4 PUSH20 0xFFFFFFFFFFFFFFFFFFFFFFFFFFFFFFFFFFFFFFFF AND MUL OR SWAP1 SSTORE POP PUSH32 0x9A33114B94F1C4C094352DEFF0082E220C977361E70D556DFB5565AD4678CE4D DUP2 PUSH1 0x40 MLOAD PUSH2 0x184F SWAP2 SWAP1 PUSH2 0x3A8A JUMP JUMPDEST PUSH1 0x40 MLOAD DUP1 SWAP2 SUB SWAP1 LOG1 POP JUMP JUMPDEST PUSH1 0x0 PUSH1 0x2 PUSH1 0x97 SLOAD EQ ISZERO PUSH2 0x18A2 JUMPI PUSH1 0x40 MLOAD PUSH32 0x8C379A000000000000000000000000000000000000000000000000000000000 DUP2 MSTORE PUSH1 0x4 ADD PUSH2 0x1899 SWAP1 PUSH2 0x3C87 JUMP JUMPDEST PUSH1 0x40 MLOAD DUP1 SWAP2 SUB SWAP1 REVERT JUMPDEST PUSH1 0x2 PUSH1 0x97 DUP2 SWAP1 SSTORE POP PUSH1 0x40 MLOAD PUSH32 0x8C379A000000000000000000000000000000000000000000000000000000000 DUP2 MSTORE PUSH1 0x4 ADD PUSH2 0x18DC SWAP1 PUSH2 0x3E94 JUMP JUMPDEST PUSH1 0x40 MLOAD DUP1 SWAP2 SUB SWAP1 REVERT JUMPDEST PUSH1 0x0 PUSH1 0xCA PUSH1 0x0 SWAP1 SLOAD SWAP1 PUSH2 0x100 EXP SWAP1 DIV PUSH20 0xFFFFFFFFFFFFFFFFFFFFFFFFFFFFFFFFFFFFFFFF AND SWAP1 POP SWAP1 JUMP JUMPDEST PUSH1 0x0 PUSH1 0x33 PUSH1 0x0 SWAP1 SLOAD SWAP1 PUSH2 0x100 EXP SWAP1 DIV PUSH20 0xFFFFFFFFFFFFFFFFFFFFFFFFFFFFFFFFFFFFFFFF AND SWAP1 POP SWAP1 JUMP JUMPDEST PUSH1 0x0 PUSH1 0xD1 PUSH1 0x0 SWAP1 SLOAD SWAP1 PUSH2 0x100 EXP SWAP1 DIV PUSH20 0xFFFFFFFFFFFFFFFFFFFFFFFFFFFFFFFFFFFFFFFF AND SWAP1 POP SWAP1 JUMP JUMPDEST PUSH1 0x0 PUSH1 0x2 PUSH1 0x97 SLOAD EQ ISZERO PUSH2 0x19AB JUMPI PUSH1 0x40 MLOAD PUSH32 0x8C379A000000000000000000000000000000000000000000000000000000000 DUP2 MSTORE PUSH1 0x4 ADD PUSH2 0x19A2 SWAP1 PUSH2 0x3C87 JUMP JUMPDEST PUSH1 0x40 MLOAD DUP1 SWAP2 SUB SWAP1 REVERT JUMPDEST PUSH1 0x2 PUSH1 0x97 DUP2 SWAP1 SSTORE POP PUSH1 0xC9 PUSH1 0x0 SWAP1 SLOAD SWAP1 PUSH2 0x100 EXP SWAP1 DIV PUSH20 0xFFFFFFFFFFFFFFFFFFFFFFFFFFFFFFFFFFFFFFFF AND PUSH20 0xFFFFFFFFFFFFFFFFFFFFFFFFFFFFFFFFFFFFFFFF AND PUSH4 0x9F1D9267 CALLER ADDRESS DUP7 PUSH1 0x40 MLOAD DUP5 PUSH4 0xFFFFFFFF AND PUSH1 0xE0 SHL DUP2 MSTORE PUSH1 0x4 ADD PUSH2 0x1A12 SWAP4 SWAP3 SWAP2 SWAP1 PUSH2 0x3CA7 JUMP JUMPDEST PUSH1 0x20 PUSH1 0x40 MLOAD DUP1 DUP4 SUB DUP2 PUSH1 0x0 DUP8 GAS CALL ISZERO DUP1 ISZERO PUSH2 0x1A31 JUMPI RETURNDATASIZE PUSH1 0x0 DUP1 RETURNDATACOPY RETURNDATASIZE PUSH1 0x0 REVERT JUMPDEST POP POP POP POP PUSH1 0x40 MLOAD RETURNDATASIZE PUSH1 0x1F NOT PUSH1 0x1F DUP3 ADD AND DUP3 ADD DUP1 PUSH1 0x40 MSTORE POP DUP2 ADD SWAP1 PUSH2 0x1A55 SWAP2 SWAP1 PUSH2 0x3CF3 JUMP JUMPDEST SWAP1 POP PUSH1 0x0 PUSH1 0x2 PUSH8 0xFFFFFFFFFFFFFFFF DUP2 GT ISZERO PUSH2 0x1A74 JUMPI PUSH2 0x1A73 PUSH2 0x3EB4 JUMP JUMPDEST JUMPDEST PUSH1 0x40 MLOAD SWAP1 DUP1 DUP3 MSTORE DUP1 PUSH1 0x20 MUL PUSH1 0x20 ADD DUP3 ADD PUSH1 0x40 MSTORE DUP1 ISZERO PUSH2 0x1AA2 JUMPI DUP2 PUSH1 0x20 ADD PUSH1 0x20 DUP3 MUL DUP1 CALLDATASIZE DUP4 CALLDATACOPY DUP1 DUP3 ADD SWAP2 POP POP SWAP1 POP JUMPDEST POP SWAP1 POP PUSH1 0xCC PUSH1 0x0 SWAP1 SLOAD SWAP1 PUSH2 0x100 EXP SWAP1 DIV PUSH20 0xFFFFFFFFFFFFFFFFFFFFFFFFFFFFFFFFFFFFFFFF AND DUP2 PUSH1 0x0 DUP2 MLOAD DUP2 LT PUSH2 0x1ADC JUMPI PUSH2 0x1ADB PUSH2 0x3EE3 JUMP JUMPDEST JUMPDEST PUSH1 0x20 MUL PUSH1 0x20 ADD ADD SWAP1 PUSH20 0xFFFFFFFFFFFFFFFFFFFFFFFFFFFFFFFFFFFFFFFF AND SWAP1 DUP2 PUSH20 0xFFFFFFFFFFFFFFFFFFFFFFFFFFFFFFFFFFFFFFFF AND DUP2 MSTORE POP POP PUSH1 0xCD PUSH1 0x0 SWAP1 SLOAD SWAP1 PUSH2 0x100 EXP SWAP1 DIV PUSH20 0xFFFFFFFFFFFFFFFFFFFFFFFFFFFFFFFFFFFFFFFF AND DUP2 PUSH1 0x1 DUP2 MLOAD DUP2 LT PUSH2 0x1B4D JUMPI PUSH2 0x1B4C PUSH2 0x3EE3 JUMP JUMPDEST JUMPDEST PUSH1 0x20 MUL PUSH1 0x20 ADD ADD SWAP1 PUSH20 0xFFFFFFFFFFFFFFFFFFFFFFFFFFFFFFFFFFFFFFFF AND SWAP1 DUP2 PUSH20 0xFFFFFFFFFFFFFFFFFFFFFFFFFFFFFFFFFFFFFFFF AND DUP2 MSTORE POP POP PUSH1 0x0 PUSH1 0xCA PUSH1 0x0 SWAP1 SLOAD SWAP1 PUSH2 0x100 EXP SWAP1 DIV PUSH20 0xFFFFFFFFFFFFFFFFFFFFFFFFFFFFFFFFFFFFFFFF AND PUSH20 0xFFFFFFFFFFFFFFFFFFFFFFFFFFFFFFFFFFFFFFFF AND PUSH4 0x18CBAFE5 DUP5 DUP7 DUP6 DUP11 PUSH2 0x12C TIMESTAMP PUSH2 0x1BD9 SWAP2 SWAP1 PUSH2 0x3F41 JUMP JUMPDEST PUSH1 0x40 MLOAD DUP7 PUSH4 0xFFFFFFFF AND PUSH1 0xE0 SHL DUP2 MSTORE PUSH1 0x4 ADD PUSH2 0x1BF9 SWAP6 SWAP5 SWAP4 SWAP3 SWAP2 SWAP1 PUSH2 0x4055 JUMP JUMPDEST PUSH1 0x0 PUSH1 0x40 MLOAD DUP1 DUP4 SUB DUP2 PUSH1 0x0 DUP8 GAS CALL ISZERO DUP1 ISZERO PUSH2 0x1C18 JUMPI RETURNDATASIZE PUSH1 0x0 DUP1 RETURNDATACOPY RETURNDATASIZE PUSH1 0x0 REVERT JUMPDEST POP POP POP POP PUSH1 0x40 MLOAD RETURNDATASIZE PUSH1 0x0 DUP3 RETURNDATACOPY RETURNDATASIZE PUSH1 0x1F NOT PUSH1 0x1F DUP3 ADD AND DUP3 ADD DUP1 PUSH1 0x40 MSTORE POP DUP2 ADD SWAP1 PUSH2 0x1C41 SWAP2 SWAP1 PUSH2 0x41D9 JUMP JUMPDEST SWAP1 POP PUSH1 0xCD PUSH1 0x0 SWAP1 SLOAD SWAP1 PUSH2 0x100 EXP SWAP1 DIV PUSH20 0xFFFFFFFFFFFFFFFFFFFFFFFFFFFFFFFFFFFFFFFF AND PUSH20 0xFFFFFFFFFFFFFFFFFFFFFFFFFFFFFFFFFFFFFFFF AND DUP7 PUSH20 0xFFFFFFFFFFFFFFFFFFFFFFFFFFFFFFFFFFFFFFFF AND CALLER PUSH20 0xFFFFFFFFFFFFFFFFFFFFFFFFFFFFFFFFFFFFFFFF AND PUSH32 0x342E7FF505A8A0364CD0DC2FF195C315E43BCE86B204846ECD36913E117B109E DUP5 PUSH1 0x1 DUP2 MLOAD DUP2 LT PUSH2 0x1CDF JUMPI PUSH2 0x1CDE PUSH2 0x3EE3 JUMP JUMPDEST JUMPDEST PUSH1 0x20 MUL PUSH1 0x20 ADD ADD MLOAD PUSH1 0x40 MLOAD PUSH2 0x1CF4 SWAP2 SWAP1 PUSH2 0x3A60 JUMP JUMPDEST PUSH1 0x40 MLOAD DUP1 SWAP2 SUB SWAP1 LOG4 DUP1 PUSH1 0x1 DUP2 MLOAD DUP2 LT PUSH2 0x1D10 JUMPI PUSH2 0x1D0F PUSH2 0x3EE3 JUMP JUMPDEST JUMPDEST PUSH1 0x20 MUL PUSH1 0x20 ADD ADD MLOAD SWAP3 POP POP POP PUSH1 0x1 PUSH1 0x97 DUP2 SWAP1 SSTORE POP SWAP4 SWAP3 POP POP POP JUMP JUMPDEST PUSH1 0x0 PUSH1 0xD1 PUSH1 0x0 SWAP1 SLOAD SWAP1 PUSH2 0x100 EXP SWAP1 DIV PUSH20 0xFFFFFFFFFFFFFFFFFFFFFFFFFFFFFFFFFFFFFFFF AND PUSH20 0xFFFFFFFFFFFFFFFFFFFFFFFFFFFFFFFFFFFFFFFF AND PUSH4 0x46FAA33C DUP4 PUSH1 0x40 MLOAD DUP3 PUSH4 0xFFFFFFFF AND PUSH1 0xE0 SHL DUP2 MSTORE PUSH1 0x4 ADD PUSH2 0x1D88 SWAP2 SWAP1 PUSH2 0x3A8A JUMP JUMPDEST PUSH1 0x20 PUSH1 0x40 MLOAD DUP1 DUP4 SUB DUP2 DUP7 GAS STATICCALL ISZERO DUP1 ISZERO PUSH2 0x1DA5 JUMPI RETURNDATASIZE PUSH1 0x0 DUP1 RETURNDATACOPY RETURNDATASIZE PUSH1 0x0 REVERT JUMPDEST POP POP POP POP PUSH1 0x40 MLOAD RETURNDATASIZE PUSH1 0x1F NOT PUSH1 0x1F DUP3 ADD AND DUP3 ADD DUP1 PUSH1 0x40 MSTORE POP DUP2 ADD SWAP1 PUSH2 0x1DC9 SWAP2 SWAP1 PUSH2 0x3CF3 JUMP JUMPDEST SWAP1 POP SWAP2 SWAP1 POP JUMP JUMPDEST PUSH1 0x0 PUSH1 0xCF PUSH1 0x0 DUP4 PUSH20 0xFFFFFFFFFFFFFFFFFFFFFFFFFFFFFFFFFFFFFFFF AND PUSH20 0xFFFFFFFFFFFFFFFFFFFFFFFFFFFFFFFFFFFFFFFF AND DUP2 MSTORE PUSH1 0x20 ADD SWAP1 DUP2 MSTORE PUSH1 0x20 ADD PUSH1 0x0 KECCAK256 SLOAD SWAP1 POP SWAP2 SWAP1 POP JUMP JUMPDEST PUSH1 0x0 PUSH2 0x1E23 PUSH2 0x190F JUMP JUMPDEST PUSH20 0xFFFFFFFFFFFFFFFFFFFFFFFFFFFFFFFFFFFFFFFF AND CALLER PUSH20 0xFFFFFFFFFFFFFFFFFFFFFFFFFFFFFFFFFFFFFFFF AND EQ DUP1 PUSH2 0x1EA9 JUMPI POP PUSH1 0xD0 PUSH1 0x0 SWAP1 SLOAD SWAP1 PUSH2 0x100 EXP SWAP1 DIV PUSH20 0xFFFFFFFFFFFFFFFFFFFFFFFFFFFFFFFFFFFFFFFF AND PUSH20 0xFFFFFFFFFFFFFFFFFFFFFFFFFFFFFFFFFFFFFFFF AND CALLER PUSH20 0xFFFFFFFFFFFFFFFFFFFFFFFFFFFFFFFFFFFFFFFF AND EQ JUMPDEST PUSH2 0x1EE8 JUMPI PUSH1 0x40 MLOAD PUSH32 0x8C379A000000000000000000000000000000000000000000000000000000000 DUP2 MSTORE PUSH1 0x4 ADD PUSH2 0x1EDF SWAP1 PUSH2 0x426E JUMP JUMPDEST PUSH1 0x40 MLOAD DUP1 SWAP2 SUB SWAP1 REVERT JUMPDEST PUSH1 0x2 PUSH1 0x97 SLOAD EQ ISZERO PUSH2 0x1F2E JUMPI PUSH1 0x40 MLOAD PUSH32 0x8C379A000000000000000000000000000000000000000000000000000000000 DUP2 MSTORE PUSH1 0x4 ADD PUSH2 0x1F25 SWAP1 PUSH2 0x3C87 JUMP JUMPDEST PUSH1 0x40 MLOAD DUP1 SWAP2 SUB SWAP1 REVERT JUMPDEST PUSH1 0x2 PUSH1 0x97 DUP2 SWAP1 SSTORE POP PUSH2 0x1F85 DUP4 ADDRESS DUP5 PUSH1 0xCC PUSH1 0x0 SWAP1 SLOAD SWAP1 PUSH2 0x100 EXP SWAP1 DIV PUSH20 0xFFFFFFFFFFFFFFFFFFFFFFFFFFFFFFFFFFFFFFFF AND PUSH20 0xFFFFFFFFFFFFFFFFFFFFFFFFFFFFFFFFFFFFFFFF AND PUSH2 0x3497 SWAP1 SWAP4 SWAP3 SWAP2 SWAP1 PUSH4 0xFFFFFFFF AND JUMP JUMPDEST PUSH1 0xC9 PUSH1 0x0 SWAP1 SLOAD SWAP1 PUSH2 0x100 EXP SWAP1 DIV PUSH20 0xFFFFFFFFFFFFFFFFFFFFFFFFFFFFFFFFFFFFFFFF AND PUSH20 0xFFFFFFFFFFFFFFFFFFFFFFFFFFFFFFFFFFFFFFFF AND PUSH4 0x2F4F21E2 CALLER DUP5 PUSH1 0x40 MLOAD DUP4 PUSH4 0xFFFFFFFF AND PUSH1 0xE0 SHL DUP2 MSTORE PUSH1 0x4 ADD PUSH2 0x1FE2 SWAP3 SWAP2 SWAP1 PUSH2 0x428E JUMP JUMPDEST PUSH1 0x20 PUSH1 0x40 MLOAD DUP1 DUP4 SUB DUP2 PUSH1 0x0 DUP8 GAS CALL ISZERO DUP1 ISZERO PUSH2 0x2001 JUMPI RETURNDATASIZE PUSH1 0x0 DUP1 RETURNDATACOPY RETURNDATASIZE PUSH1 0x0 REVERT JUMPDEST POP POP POP POP PUSH1 0x40 MLOAD RETURNDATASIZE PUSH1 0x1F NOT PUSH1 0x1F DUP3 ADD AND DUP3 ADD DUP1 PUSH1 0x40 MSTORE POP DUP2 ADD SWAP1 PUSH2 0x2025 SWAP2 SWAP1 PUSH2 0x3CF3 JUMP JUMPDEST SWAP1 POP PUSH1 0xCC PUSH1 0x0 SWAP1 SLOAD SWAP1 PUSH2 0x100 EXP SWAP1 DIV PUSH20 0xFFFFFFFFFFFFFFFFFFFFFFFFFFFFFFFFFFFFFFFF AND PUSH20 0xFFFFFFFFFFFFFFFFFFFFFFFFFFFFFFFFFFFFFFFF AND CALLER PUSH20 0xFFFFFFFFFFFFFFFFFFFFFFFFFFFFFFFFFFFFFFFF AND PUSH32 0xDCBC1C05240F31FF3AD067EF1EE35CE4997762752E3A095284754544F4C709D7 DUP5 PUSH1 0x0 PUSH1 0x40 MLOAD PUSH2 0x20A9 SWAP3 SWAP2 SWAP1 PUSH2 0x42F2 JUMP JUMPDEST PUSH1 0x40 MLOAD DUP1 SWAP2 SUB SWAP1 LOG3 PUSH1 0x1 PUSH1 0x97 DUP2 SWAP1 SSTORE POP SWAP3 SWAP2 POP POP JUMP JUMPDEST PUSH1 0x2 PUSH1 0x97 SLOAD EQ ISZERO PUSH2 0x2105 JUMPI PUSH1 0x40 MLOAD PUSH32 0x8C379A000000000000000000000000000000000000000000000000000000000 DUP2 MSTORE PUSH1 0x4 ADD PUSH2 0x20FC SWAP1 PUSH2 0x3C87 JUMP JUMPDEST PUSH1 0x40 MLOAD DUP1 SWAP2 SUB SWAP1 REVERT JUMPDEST PUSH1 0x2 PUSH1 0x97 DUP2 SWAP1 SSTORE POP PUSH1 0x0 PUSH1 0xCF PUSH1 0x0 CALLER PUSH20 0xFFFFFFFFFFFFFFFFFFFFFFFFFFFFFFFFFFFFFFFF AND PUSH20 0xFFFFFFFFFFFFFFFFFFFFFFFFFFFFFFFFFFFFFFFF AND DUP2 MSTORE PUSH1 0x20 ADD SWAP1 DUP2 MSTORE PUSH1 0x20 ADD PUSH1 0x0 KECCAK256 SLOAD SWAP1 POP PUSH1 0x0 DUP2 GT PUSH2 0x2194 JUMPI PUSH1 0x40 MLOAD PUSH32 0x8C379A000000000000000000000000000000000000000000000000000000000 DUP2 MSTORE PUSH1 0x4 ADD PUSH2 0x218B SWAP1 PUSH2 0x4367 JUMP JUMPDEST PUSH1 0x40 MLOAD DUP1 SWAP2 SUB SWAP1 REVERT JUMPDEST DUP1 PUSH1 0xCC PUSH1 0x0 SWAP1 SLOAD SWAP1 PUSH2 0x100 EXP SWAP1 DIV PUSH20 0xFFFFFFFFFFFFFFFFFFFFFFFFFFFFFFFFFFFFFFFF AND PUSH20 0xFFFFFFFFFFFFFFFFFFFFFFFFFFFFFFFFFFFFFFFF AND PUSH4 0x70A08231 ADDRESS PUSH1 0x40 MLOAD DUP3 PUSH4 0xFFFFFFFF AND PUSH1 0xE0 SHL DUP2 MSTORE PUSH1 0x4 ADD PUSH2 0x21F0 SWAP2 SWAP1 PUSH2 0x3A8A JUMP JUMPDEST PUSH1 0x20 PUSH1 0x40 MLOAD DUP1 DUP4 SUB DUP2 DUP7 GAS STATICCALL ISZERO DUP1 ISZERO PUSH2 0x220D JUMPI RETURNDATASIZE PUSH1 0x0 DUP1 RETURNDATACOPY RETURNDATASIZE PUSH1 0x0 REVERT JUMPDEST POP POP POP POP PUSH1 0x40 MLOAD RETURNDATASIZE PUSH1 0x1F NOT PUSH1 0x1F DUP3 ADD AND DUP3 ADD DUP1 PUSH1 0x40 MSTORE POP DUP2 ADD SWAP1 PUSH2 0x2231 SWAP2 SWAP1 PUSH2 0x3CF3 JUMP JUMPDEST LT ISZERO PUSH2 0x2272 JUMPI PUSH1 0x40 MLOAD PUSH32 0x8C379A000000000000000000000000000000000000000000000000000000000 DUP2 MSTORE PUSH1 0x4 ADD PUSH2 0x2269 SWAP1 PUSH2 0x43D3 JUMP JUMPDEST PUSH1 0x40 MLOAD DUP1 SWAP2 SUB SWAP1 REVERT JUMPDEST PUSH2 0x22BF DUP3 DUP3 PUSH1 0xCC PUSH1 0x0 SWAP1 SLOAD SWAP1 PUSH2 0x100 EXP SWAP1 DIV PUSH20 0xFFFFFFFFFFFFFFFFFFFFFFFFFFFFFFFFFFFFFFFF AND PUSH20 0xFFFFFFFFFFFFFFFFFFFFFFFFFFFFFFFFFFFFFFFF AND PUSH2 0x3520 SWAP1 SWAP3 SWAP2 SWAP1 PUSH4 0xFFFFFFFF AND JUMP JUMPDEST DUP1 PUSH1 0xCF PUSH1 0x0 CALLER PUSH20 0xFFFFFFFFFFFFFFFFFFFFFFFFFFFFFFFFFFFFFFFF AND PUSH20 0xFFFFFFFFFFFFFFFFFFFFFFFFFFFFFFFFFFFFFFFF AND DUP2 MSTORE PUSH1 0x20 ADD SWAP1 DUP2 MSTORE PUSH1 0x20 ADD PUSH1 0x0 KECCAK256 PUSH1 0x0 DUP3 DUP3 SLOAD PUSH2 0x230E SWAP2 SWAP1 PUSH2 0x43F3 JUMP JUMPDEST SWAP3 POP POP DUP2 SWAP1 SSTORE POP PUSH1 0xCC PUSH1 0x0 SWAP1 SLOAD SWAP1 PUSH2 0x100 EXP SWAP1 DIV PUSH20 0xFFFFFFFFFFFFFFFFFFFFFFFFFFFFFFFFFFFFFFFF AND PUSH20 0xFFFFFFFFFFFFFFFFFFFFFFFFFFFFFFFFFFFFFFFF AND DUP3 PUSH20 0xFFFFFFFFFFFFFFFFFFFFFFFFFFFFFFFFFFFFFFFF AND PUSH32 0x70EB43C4A8AE8C40502DCF22436C509C28D6FF421CF07C491BE56984BD987068 DUP4 PUSH1 0x40 MLOAD PUSH2 0x2394 SWAP2 SWAP1 PUSH2 0x3A60 JUMP JUMPDEST PUSH1 0x40 MLOAD DUP1 SWAP2 SUB SWAP1 LOG3 POP PUSH1 0x1 PUSH1 0x97 DUP2 SWAP1 SSTORE POP POP JUMP JUMPDEST PUSH1 0x0 PUSH2 0x23B2 PUSH2 0x190F JUMP JUMPDEST PUSH20 0xFFFFFFFFFFFFFFFFFFFFFFFFFFFFFFFFFFFFFFFF AND CALLER PUSH20 0xFFFFFFFFFFFFFFFFFFFFFFFFFFFFFFFFFFFFFFFF AND EQ DUP1 PUSH2 0x2438 JUMPI POP PUSH1 0xD0 PUSH1 0x0 SWAP1 SLOAD SWAP1 PUSH2 0x100 EXP SWAP1 DIV PUSH20 0xFFFFFFFFFFFFFFFFFFFFFFFFFFFFFFFFFFFFFFFF AND PUSH20 0xFFFFFFFFFFFFFFFFFFFFFFFFFFFFFFFFFFFFFFFF AND CALLER PUSH20 0xFFFFFFFFFFFFFFFFFFFFFFFFFFFFFFFFFFFFFFFF AND EQ JUMPDEST PUSH2 0x2477 JUMPI PUSH1 0x40 MLOAD PUSH32 0x8C379A000000000000000000000000000000000000000000000000000000000 DUP2 MSTORE PUSH1 0x4 ADD PUSH2 0x246E SWAP1 PUSH2 0x426E JUMP JUMPDEST PUSH1 0x40 MLOAD DUP1 SWAP2 SUB SWAP1 REVERT JUMPDEST PUSH1 0x2 PUSH1 0x97 SLOAD EQ ISZERO PUSH2 0x24BD JUMPI PUSH1 0x40 MLOAD PUSH32 0x8C379A000000000000000000000000000000000000000000000000000000000 DUP2 MSTORE PUSH1 0x4 ADD PUSH2 0x24B4 SWAP1 PUSH2 0x3C87 JUMP JUMPDEST PUSH1 0x40 MLOAD DUP1 SWAP2 SUB SWAP1 REVERT JUMPDEST PUSH1 0x2 PUSH1 0x97 DUP2 SWAP1 SSTORE POP PUSH1 0x0 CALLVALUE SWAP1 POP PUSH1 0x0 PUSH1 0xD1 PUSH1 0x0 SWAP1 SLOAD SWAP1 PUSH2 0x100 EXP SWAP1 DIV PUSH20 0xFFFFFFFFFFFFFFFFFFFFFFFFFFFFFFFFFFFFFFFF AND PUSH20 0xFFFFFFFFFFFFFFFFFFFFFFFFFFFFFFFFFFFFFFFF AND PUSH4 0x56A3B5FA PUSH1 0x40 MLOAD DUP2 PUSH4 0xFFFFFFFF AND PUSH1 0xE0 SHL DUP2 MSTORE PUSH1 0x4 ADD PUSH1 0x20 PUSH1 0x40 MLOAD DUP1 DUP4 SUB DUP2 DUP7 GAS STATICCALL ISZERO DUP1 ISZERO PUSH2 0x2539 JUMPI RETURNDATASIZE PUSH1 0x0 DUP1 RETURNDATACOPY RETURNDATASIZE PUSH1 0x0 REVERT JUMPDEST POP POP POP POP PUSH1 0x40 MLOAD RETURNDATASIZE PUSH1 0x1F NOT PUSH1 0x1F DUP3 ADD AND DUP3 ADD DUP1 PUSH1 0x40 MSTORE POP DUP2 ADD SWAP1 PUSH2 0x255D SWAP2 SWAP1 PUSH2 0x3CF3 JUMP JUMPDEST SWAP1 POP PUSH1 0x0 DUP2 DUP4 LT PUSH2 0x2607 JUMPI PUSH1 0xCC PUSH1 0x0 SWAP1 SLOAD SWAP1 PUSH2 0x100 EXP SWAP1 DIV PUSH20 0xFFFFFFFFFFFFFFFFFFFFFFFFFFFFFFFFFFFFFFFF AND PUSH20 0xFFFFFFFFFFFFFFFFFFFFFFFFFFFFFFFFFFFFFFFF AND PUSH4 0x53616373 DUP5 PUSH1 0x40 MLOAD DUP3 PUSH4 0xFFFFFFFF AND PUSH1 0xE0 SHL DUP2 MSTORE PUSH1 0x4 ADD PUSH2 0x25C3 SWAP2 SWAP1 PUSH2 0x3A60 JUMP JUMPDEST PUSH1 0x20 PUSH1 0x40 MLOAD DUP1 DUP4 SUB DUP2 DUP7 GAS STATICCALL ISZERO DUP1 ISZERO PUSH2 0x25E0 JUMPI RETURNDATASIZE PUSH1 0x0 DUP1 RETURNDATACOPY RETURNDATASIZE PUSH1 0x0 REVERT JUMPDEST POP POP POP POP PUSH1 0x40 MLOAD RETURNDATASIZE PUSH1 0x1F NOT PUSH1 0x1F DUP3 ADD AND DUP3 ADD DUP1 PUSH1 0x40 MSTORE POP DUP2 ADD SWAP1 PUSH2 0x2604 SWAP2 SWAP1 PUSH2 0x3CF3 JUMP JUMPDEST SWAP1 POP JUMPDEST PUSH1 0x0 DUP1 PUSH1 0x0 DUP4 LT PUSH2 0x269D JUMPI DUP3 SWAP2 POP PUSH1 0xD1 PUSH1 0x0 SWAP1 SLOAD SWAP1 PUSH2 0x100 EXP SWAP1 DIV PUSH20 0xFFFFFFFFFFFFFFFFFFFFFFFFFFFFFFFFFFFFFFFF AND PUSH20 0xFFFFFFFFFFFFFFFFFFFFFFFFFFFFFFFFFFFFFFFF AND PUSH4 0xAC76D450 DUP7 PUSH1 0x40 MLOAD DUP3 PUSH4 0xFFFFFFFF AND PUSH1 0xE0 SHL DUP2 MSTORE PUSH1 0x4 ADD PUSH1 0x0 PUSH1 0x40 MLOAD DUP1 DUP4 SUB DUP2 DUP6 DUP9 DUP1 EXTCODESIZE ISZERO DUP1 ISZERO PUSH2 0x267F JUMPI PUSH1 0x0 DUP1 REVERT JUMPDEST POP GAS CALL ISZERO DUP1 ISZERO PUSH2 0x2693 JUMPI RETURNDATASIZE PUSH1 0x0 DUP1 RETURNDATACOPY RETURNDATASIZE PUSH1 0x0 REVERT JUMPDEST POP POP POP POP POP PUSH2 0x26D8 JUMP JUMPDEST PUSH1 0x40 MLOAD PUSH32 0x8C379A000000000000000000000000000000000000000000000000000000000 DUP2 MSTORE PUSH1 0x4 ADD PUSH2 0x26CF SWAP1 PUSH2 0x4473 JUMP JUMPDEST PUSH1 0x40 MLOAD DUP1 SWAP2 SUB SWAP1 REVERT JUMPDEST DUP2 PUSH1 0xCC PUSH1 0x0 SWAP1 SLOAD SWAP1 PUSH2 0x100 EXP SWAP1 DIV PUSH20 0xFFFFFFFFFFFFFFFFFFFFFFFFFFFFFFFFFFFFFFFF AND PUSH20 0xFFFFFFFFFFFFFFFFFFFFFFFFFFFFFFFFFFFFFFFF AND PUSH4 0x70A08231 ADDRESS PUSH1 0x40 MLOAD DUP3 PUSH4 0xFFFFFFFF AND PUSH1 0xE0 SHL DUP2 MSTORE PUSH1 0x4 ADD PUSH2 0x2734 SWAP2 SWAP1 PUSH2 0x3A8A JUMP JUMPDEST PUSH1 0x20 PUSH1 0x40 MLOAD DUP1 DUP4 SUB DUP2 DUP7 GAS STATICCALL ISZERO DUP1 ISZERO PUSH2 0x2751 JUMPI RETURNDATASIZE PUSH1 0x0 DUP1 RETURNDATACOPY RETURNDATASIZE PUSH1 0x0 REVERT JUMPDEST POP POP POP POP PUSH1 0x40 MLOAD RETURNDATASIZE PUSH1 0x1F NOT PUSH1 0x1F DUP3 ADD AND DUP3 ADD DUP1 PUSH1 0x40 MSTORE POP DUP2 ADD SWAP1 PUSH2 0x2775 SWAP2 SWAP1 PUSH2 0x3CF3 JUMP JUMPDEST LT ISZERO PUSH2 0x27B6 JUMPI PUSH1 0x40 MLOAD PUSH32 0x8C379A000000000000000000000000000000000000000000000000000000000 DUP2 MSTORE PUSH1 0x4 ADD PUSH2 0x27AD SWAP1 PUSH2 0x4505 JUMP JUMPDEST PUSH1 0x40 MLOAD DUP1 SWAP2 SUB SWAP1 REVERT JUMPDEST DUP1 PUSH1 0xCF PUSH1 0x0 CALLER PUSH20 0xFFFFFFFFFFFFFFFFFFFFFFFFFFFFFFFFFFFFFFFF AND PUSH20 0xFFFFFFFFFFFFFFFFFFFFFFFFFFFFFFFFFFFFFFFF AND DUP2 MSTORE PUSH1 0x20 ADD SWAP1 DUP2 MSTORE PUSH1 0x20 ADD PUSH1 0x0 KECCAK256 PUSH1 0x0 DUP3 DUP3 SLOAD PUSH2 0x2805 SWAP2 SWAP1 PUSH2 0x3F41 JUMP JUMPDEST SWAP3 POP POP DUP2 SWAP1 SSTORE POP PUSH1 0xC9 PUSH1 0x0 SWAP1 SLOAD SWAP1 PUSH2 0x100 EXP SWAP1 DIV PUSH20 0xFFFFFFFFFFFFFFFFFFFFFFFFFFFFFFFFFFFFFFFF AND PUSH20 0xFFFFFFFFFFFFFFFFFFFFFFFFFFFFFFFFFFFFFFFF AND PUSH4 0x2F4F21E2 CALLER DUP4 DUP6 PUSH2 0x2857 SWAP2 SWAP1 PUSH2 0x43F3 JUMP JUMPDEST PUSH1 0x40 MLOAD DUP4 PUSH4 0xFFFFFFFF AND PUSH1 0xE0 SHL DUP2 MSTORE PUSH1 0x4 ADD PUSH2 0x2874 SWAP3 SWAP2 SWAP1 PUSH2 0x428E JUMP JUMPDEST PUSH1 0x20 PUSH1 0x40 MLOAD DUP1 DUP4 SUB DUP2 PUSH1 0x0 DUP8 GAS CALL ISZERO DUP1 ISZERO PUSH2 0x2893 JUMPI RETURNDATASIZE PUSH1 0x0 DUP1 RETURNDATACOPY RETURNDATASIZE PUSH1 0x0 REVERT JUMPDEST POP POP POP POP PUSH1 0x40 MLOAD RETURNDATASIZE PUSH1 0x1F NOT PUSH1 0x1F DUP3 ADD AND DUP3 ADD DUP1 PUSH1 0x40 MSTORE POP DUP2 ADD SWAP1 PUSH2 0x28B7 SWAP2 SWAP1 PUSH2 0x3CF3 JUMP JUMPDEST SWAP6 POP PUSH1 0xCD PUSH1 0x0 SWAP1 SLOAD SWAP1 PUSH2 0x100 EXP SWAP1 DIV PUSH20 0xFFFFFFFFFFFFFFFFFFFFFFFFFFFFFFFFFFFFFFFF AND PUSH20 0xFFFFFFFFFFFFFFFFFFFFFFFFFFFFFFFFFFFFFFFF AND CALLER PUSH20 0xFFFFFFFFFFFFFFFFFFFFFFFFFFFFFFFFFFFFFFFF AND PUSH32 0xDCBC1C05240F31FF3AD067EF1EE35CE4997762752E3A095284754544F4C709D7 DUP4 DUP6 PUSH2 0x2936 SWAP2 SWAP1 PUSH2 0x43F3 JUMP JUMPDEST DUP5 PUSH1 0x40 MLOAD PUSH2 0x2945 SWAP3 SWAP2 SWAP1 PUSH2 0x4525 JUMP JUMPDEST PUSH1 0x40 MLOAD DUP1 SWAP2 SUB SWAP1 LOG3 POP POP POP POP POP PUSH1 0x1 PUSH1 0x97 DUP2 SWAP1 SSTORE POP SWAP1 JUMP JUMPDEST PUSH1 0x0 PUSH1 0x2 PUSH1 0x97 SLOAD EQ ISZERO PUSH2 0x29A5 JUMPI PUSH1 0x40 MLOAD PUSH32 0x8C379A000000000000000000000000000000000000000000000000000000000 DUP2 MSTORE PUSH1 0x4 ADD PUSH2 0x299C SWAP1 PUSH2 0x3C87 JUMP JUMPDEST PUSH1 0x40 MLOAD DUP1 SWAP2 SUB SWAP1 REVERT JUMPDEST PUSH1 0x2 PUSH1 0x97 DUP2 SWAP1 SSTORE POP PUSH2 0x29B5 PUSH2 0x190F JUMP JUMPDEST PUSH20 0xFFFFFFFFFFFFFFFFFFFFFFFFFFFFFFFFFFFFFFFF AND CALLER PUSH20 0xFFFFFFFFFFFFFFFFFFFFFFFFFFFFFFFFFFFFFFFF AND EQ DUP1 PUSH2 0x2A3B JUMPI POP PUSH1 0xD0 PUSH1 0x0 SWAP1 SLOAD SWAP1 PUSH2 0x100 EXP SWAP1 DIV PUSH20 0xFFFFFFFFFFFFFFFFFFFFFFFFFFFFFFFFFFFFFFFF AND PUSH20 0xFFFFFFFFFFFFFFFFFFFFFFFFFFFFFFFFFFFFFFFF AND CALLER PUSH20 0xFFFFFFFFFFFFFFFFFFFFFFFFFFFFFFFFFFFFFFFF AND EQ JUMPDEST PUSH2 0x2A7A JUMPI PUSH1 0x40 MLOAD PUSH32 0x8C379A000000000000000000000000000000000000000000000000000000000 DUP2 MSTORE PUSH1 0x4 ADD PUSH2 0x2A71 SWAP1 PUSH2 0x426E JUMP JUMPDEST PUSH1 0x40 MLOAD DUP1 SWAP2 SUB SWAP1 REVERT JUMPDEST PUSH1 0xC9 PUSH1 0x0 SWAP1 SLOAD SWAP1 PUSH2 0x100 EXP SWAP1 DIV PUSH20 0xFFFFFFFFFFFFFFFFFFFFFFFFFFFFFFFFFFFFFFFF AND PUSH20 0xFFFFFFFFFFFFFFFFFFFFFFFFFFFFFFFFFFFFFFFF AND PUSH4 0x9F1D9267 CALLER ADDRESS DUP6 PUSH1 0x40 MLOAD DUP5 PUSH4 0xFFFFFFFF AND PUSH1 0xE0 SHL DUP2 MSTORE PUSH1 0x4 ADD PUSH2 0x2AD9 SWAP4 SWAP3 SWAP2 SWAP1 PUSH2 0x3CA7 JUMP JUMPDEST PUSH1 0x20 PUSH1 0x40 MLOAD DUP1 DUP4 SUB DUP2 PUSH1 0x0 DUP8 GAS CALL ISZERO DUP1 ISZERO PUSH2 0x2AF8 JUMPI RETURNDATASIZE PUSH1 0x0 DUP1 RETURNDATACOPY RETURNDATASIZE PUSH1 0x0 REVERT JUMPDEST POP POP POP POP PUSH1 0x40 MLOAD RETURNDATASIZE PUSH1 0x1F NOT PUSH1 0x1F DUP3 ADD AND DUP3 ADD DUP1 PUSH1 0x40 MSTORE POP DUP2 ADD SWAP1 PUSH2 0x2B1C SWAP2 SWAP1 PUSH2 0x3CF3 JUMP JUMPDEST SWAP1 POP PUSH1 0xD1 PUSH1 0x0 SWAP1 SLOAD SWAP1 PUSH2 0x100 EXP SWAP1 DIV PUSH20 0xFFFFFFFFFFFFFFFFFFFFFFFFFFFFFFFFFFFFFFFF AND PUSH20 0xFFFFFFFFFFFFFFFFFFFFFFFFFFFFFFFFFFFFFFFF AND PUSH4 0x81782DFF DUP5 DUP4 PUSH1 0x40 MLOAD DUP4 PUSH4 0xFFFFFFFF AND PUSH1 0xE0 SHL DUP2 MSTORE PUSH1 0x4 ADD PUSH2 0x2B7B SWAP3 SWAP2 SWAP1 PUSH2 0x428E JUMP JUMPDEST PUSH1 0x0 PUSH1 0x40 MLOAD DUP1 DUP4 SUB DUP2 PUSH1 0x0 DUP8 DUP1 EXTCODESIZE ISZERO DUP1 ISZERO PUSH2 0x2B95 JUMPI PUSH1 0x0 DUP1 REVERT JUMPDEST POP GAS CALL ISZERO DUP1 ISZERO PUSH2 0x2BA9 JUMPI RETURNDATASIZE PUSH1 0x0 DUP1 RETURNDATACOPY RETURNDATASIZE PUSH1 0x0 REVERT JUMPDEST POP POP POP POP PUSH1 0xCD PUSH1 0x0 SWAP1 SLOAD SWAP1 PUSH2 0x100 EXP SWAP1 DIV PUSH20 0xFFFFFFFFFFFFFFFFFFFFFFFFFFFFFFFFFFFFFFFF AND PUSH20 0xFFFFFFFFFFFFFFFFFFFFFFFFFFFFFFFFFFFFFFFF AND DUP4 PUSH20 0xFFFFFFFFFFFFFFFFFFFFFFFFFFFFFFFFFFFFFFFF AND CALLER PUSH20 0xFFFFFFFFFFFFFFFFFFFFFFFFFFFFFFFFFFFFFFFF AND PUSH32 0x342E7FF505A8A0364CD0DC2FF195C315E43BCE86B204846ECD36913E117B109E DUP6 PUSH1 0x40 MLOAD PUSH2 0x2C43 SWAP2 SWAP1 PUSH2 0x3A60 JUMP JUMPDEST PUSH1 0x40 MLOAD DUP1 SWAP2 SUB SWAP1 LOG4 PUSH1 0x1 PUSH1 0x97 DUP2 SWAP1 SSTORE POP SWAP3 SWAP2 POP POP JUMP JUMPDEST PUSH2 0x2C61 PUSH2 0x3353 JUMP JUMPDEST PUSH1 0x0 PUSH20 0xFFFFFFFFFFFFFFFFFFFFFFFFFFFFFFFFFFFFFFFF AND DUP2 PUSH20 0xFFFFFFFFFFFFFFFFFFFFFFFFFFFFFFFFFFFFFFFF AND EQ ISZERO PUSH2 0x2CD1 JUMPI PUSH1 0x40 MLOAD PUSH32 0x8C379A000000000000000000000000000000000000000000000000000000000 DUP2 MSTORE PUSH1 0x4 ADD PUSH2 0x2CC8 SWAP1 PUSH2 0x45C0 JUMP JUMPDEST PUSH1 0x40 MLOAD DUP1 SWAP2 SUB SWAP1 REVERT JUMPDEST PUSH2 0x2CDA DUP2 PUSH2 0x33D1 JUMP JUMPDEST POP JUMP JUMPDEST PUSH1 0x0 PUSH2 0x2CE7 PUSH2 0x190F JUMP JUMPDEST PUSH20 0xFFFFFFFFFFFFFFFFFFFFFFFFFFFFFFFFFFFFFFFF AND CALLER PUSH20 0xFFFFFFFFFFFFFFFFFFFFFFFFFFFFFFFFFFFFFFFF AND EQ DUP1 PUSH2 0x2D6D JUMPI POP PUSH1 0xD0 PUSH1 0x0 SWAP1 SLOAD SWAP1 PUSH2 0x100 EXP SWAP1 DIV PUSH20 0xFFFFFFFFFFFFFFFFFFFFFFFFFFFFFFFFFFFFFFFF AND PUSH20 0xFFFFFFFFFFFFFFFFFFFFFFFFFFFFFFFFFFFFFFFF AND CALLER PUSH20 0xFFFFFFFFFFFFFFFFFFFFFFFFFFFFFFFFFFFFFFFF AND EQ JUMPDEST PUSH2 0x2DAC JUMPI PUSH1 0x40 MLOAD PUSH32 0x8C379A000000000000000000000000000000000000000000000000000000000 DUP2 MSTORE PUSH1 0x4 ADD PUSH2 0x2DA3 SWAP1 PUSH2 0x426E JUMP JUMPDEST PUSH1 0x40 MLOAD DUP1 SWAP2 SUB SWAP1 REVERT JUMPDEST PUSH1 0x2 PUSH1 0x97 SLOAD EQ ISZERO PUSH2 0x2DF2 JUMPI PUSH1 0x40 MLOAD PUSH32 0x8C379A000000000000000000000000000000000000000000000000000000000 DUP2 MSTORE PUSH1 0x4 ADD PUSH2 0x2DE9 SWAP1 PUSH2 0x3C87 JUMP JUMPDEST PUSH1 0x40 MLOAD DUP1 SWAP2 SUB SWAP1 REVERT JUMPDEST PUSH1 0x2 PUSH1 0x97 DUP2 SWAP1 SSTORE POP PUSH1 0xD1 PUSH1 0x0 SWAP1 SLOAD SWAP1 PUSH2 0x100 EXP SWAP1 DIV PUSH20 0xFFFFFFFFFFFFFFFFFFFFFFFFFFFFFFFFFFFFFFFF AND PUSH20 0xFFFFFFFFFFFFFFFFFFFFFFFFFFFFFFFFFFFFFFFF AND PUSH4 0x34C4454 PUSH1 0x40 MLOAD DUP2 PUSH4 0xFFFFFFFF AND PUSH1 0xE0 SHL DUP2 MSTORE PUSH1 0x4 ADD PUSH1 0x20 PUSH1 0x40 MLOAD DUP1 DUP4 SUB DUP2 DUP7 GAS STATICCALL ISZERO DUP1 ISZERO PUSH2 0x2E67 JUMPI RETURNDATASIZE PUSH1 0x0 DUP1 RETURNDATACOPY RETURNDATASIZE PUSH1 0x0 REVERT JUMPDEST POP POP POP POP PUSH1 0x40 MLOAD RETURNDATASIZE PUSH1 0x1F NOT PUSH1 0x1F DUP3 ADD AND DUP3 ADD DUP1 PUSH1 0x40 MSTORE POP DUP2 ADD SWAP1 PUSH2 0x2E8B SWAP2 SWAP1 PUSH2 0x3CF3 JUMP JUMPDEST DUP3 LT ISZERO PUSH2 0x2ECD JUMPI PUSH1 0x40 MLOAD PUSH32 0x8C379A000000000000000000000000000000000000000000000000000000000 DUP2 MSTORE PUSH1 0x4 ADD PUSH2 0x2EC4 SWAP1 PUSH2 0x4652 JUMP JUMPDEST PUSH1 0x40 MLOAD DUP1 SWAP2 SUB SWAP1 REVERT JUMPDEST PUSH1 0xC9 PUSH1 0x0 SWAP1 SLOAD SWAP1 PUSH2 0x100 EXP SWAP1 DIV PUSH20 0xFFFFFFFFFFFFFFFFFFFFFFFFFFFFFFFFFFFFFFFF AND PUSH20 0xFFFFFFFFFFFFFFFFFFFFFFFFFFFFFFFFFFFFFFFF AND PUSH4 0x9F1D9267 CALLER ADDRESS DUP6 PUSH1 0x40 MLOAD DUP5 PUSH4 0xFFFFFFFF AND PUSH1 0xE0 SHL DUP2 MSTORE PUSH1 0x4 ADD PUSH2 0x2F2C SWAP4 SWAP3 SWAP2 SWAP1 PUSH2 0x3CA7 JUMP JUMPDEST PUSH1 0x20 PUSH1 0x40 MLOAD DUP1 DUP4 SUB DUP2 PUSH1 0x0 DUP8 GAS CALL ISZERO DUP1 ISZERO PUSH2 0x2F4B JUMPI RETURNDATASIZE PUSH1 0x0 DUP1 RETURNDATACOPY RETURNDATASIZE PUSH1 0x0 REVERT JUMPDEST POP POP POP POP PUSH1 0x40 MLOAD RETURNDATASIZE PUSH1 0x1F NOT PUSH1 0x1F DUP3 ADD AND DUP3 ADD DUP1 PUSH1 0x40 MSTORE POP DUP2 ADD SWAP1 PUSH2 0x2F6F SWAP2 SWAP1 PUSH2 0x3CF3 JUMP JUMPDEST SWAP1 POP PUSH1 0xD1 PUSH1 0x0 SWAP1 SLOAD SWAP1 PUSH2 0x100 EXP SWAP1 DIV PUSH20 0xFFFFFFFFFFFFFFFFFFFFFFFFFFFFFFFFFFFFFFFF AND PUSH20 0xFFFFFFFFFFFFFFFFFFFFFFFFFFFFFFFFFFFFFFFF AND PUSH4 0x81782DFF DUP5 DUP4 PUSH1 0x40 MLOAD DUP4 PUSH4 0xFFFFFFFF AND PUSH1 0xE0 SHL DUP2 MSTORE PUSH1 0x4 ADD PUSH2 0x2FCE SWAP3 SWAP2 SWAP1 PUSH2 0x428E JUMP JUMPDEST PUSH1 0x0 PUSH1 0x40 MLOAD DUP1 DUP4 SUB DUP2 PUSH1 0x0 DUP8 DUP1 EXTCODESIZE ISZERO DUP1 ISZERO PUSH2 0x2FE8 JUMPI PUSH1 0x0 DUP1 REVERT JUMPDEST POP GAS CALL ISZERO DUP1 ISZERO PUSH2 0x2FFC JUMPI RETURNDATASIZE PUSH1 0x0 DUP1 RETURNDATACOPY RETURNDATASIZE PUSH1 0x0 REVERT JUMPDEST POP POP POP POP PUSH1 0xCD PUSH1 0x0 SWAP1 SLOAD SWAP1 PUSH2 0x100 EXP SWAP1 DIV PUSH20 0xFFFFFFFFFFFFFFFFFFFFFFFFFFFFFFFFFFFFFFFF AND PUSH20 0xFFFFFFFFFFFFFFFFFFFFFFFFFFFFFFFFFFFFFFFF AND DUP4 PUSH20 0xFFFFFFFFFFFFFFFFFFFFFFFFFFFFFFFFFFFFFFFF AND CALLER PUSH20 0xFFFFFFFFFFFFFFFFFFFFFFFFFFFFFFFFFFFFFFFF AND PUSH32 0x342E7FF505A8A0364CD0DC2FF195C315E43BCE86B204846ECD36913E117B109E DUP6 PUSH1 0x40 MLOAD PUSH2 0x3096 SWAP2 SWAP1 PUSH2 0x3A60 JUMP JUMPDEST PUSH1 0x40 MLOAD DUP1 SWAP2 SUB SWAP1 LOG4 PUSH1 0x1 PUSH1 0x97 DUP2 SWAP1 SSTORE POP SWAP3 SWAP2 POP POP JUMP JUMPDEST PUSH1 0x0 PUSH1 0xCB PUSH1 0x0 SWAP1 SLOAD SWAP1 PUSH2 0x100 EXP SWAP1 DIV PUSH20 0xFFFFFFFFFFFFFFFFFFFFFFFFFFFFFFFFFFFFFFFF AND SWAP1 POP SWAP1 JUMP JUMPDEST PUSH1 0x0 DUP1 DUP3 PUSH20 0xFFFFFFFFFFFFFFFFFFFFFFFFFFFFFFFFFFFFFFFF AND EXTCODESIZE GT SWAP1 POP SWAP2 SWAP1 POP JUMP JUMPDEST PUSH1 0x0 PUSH1 0x1 SWAP1 SLOAD SWAP1 PUSH2 0x100 EXP SWAP1 DIV PUSH1 0xFF AND PUSH2 0x3148 JUMPI PUSH1 0x40 MLOAD PUSH32 0x8C379A000000000000000000000000000000000000000000000000000000000 DUP2 MSTORE PUSH1 0x4 ADD PUSH2 0x313F SWAP1 PUSH2 0x46E4 JUMP JUMPDEST PUSH1 0x40 MLOAD DUP1 SWAP2 SUB SWAP1 REVERT JUMPDEST PUSH2 0x3150 PUSH2 0x35A6 JUMP JUMPDEST JUMP JUMPDEST PUSH1 0x0 PUSH1 0x1 SWAP1 SLOAD SWAP1 PUSH2 0x100 EXP SWAP1 DIV PUSH1 0xFF AND PUSH2 0x31A1 JUMPI PUSH1 0x40 MLOAD PUSH32 0x8C379A000000000000000000000000000000000000000000000000000000000 DUP2 MSTORE PUSH1 0x4 ADD PUSH2 0x3198 SWAP1 PUSH2 0x46E4 JUMP JUMPDEST PUSH1 0x40 MLOAD DUP1 SWAP2 SUB SWAP1 REVERT JUMPDEST PUSH2 0x31A9 PUSH2 0x3607 JUMP JUMPDEST JUMP JUMPDEST PUSH1 0x0 PUSH1 0x1 SWAP1 SLOAD SWAP1 PUSH2 0x100 EXP SWAP1 DIV PUSH1 0xFF AND PUSH2 0x31FA JUMPI PUSH1 0x40 MLOAD PUSH32 0x8C379A000000000000000000000000000000000000000000000000000000000 DUP2 MSTORE PUSH1 0x4 ADD PUSH2 0x31F1 SWAP1 PUSH2 0x46E4 JUMP JUMPDEST PUSH1 0x40 MLOAD DUP1 SWAP2 SUB SWAP1 REVERT JUMPDEST PUSH2 0x3202 PUSH2 0x3673 JUMP JUMPDEST JUMP JUMPDEST PUSH1 0x0 DUP2 EQ DUP1 PUSH2 0x328E JUMPI POP PUSH1 0x0 DUP4 PUSH20 0xFFFFFFFFFFFFFFFFFFFFFFFFFFFFFFFFFFFFFFFF AND PUSH4 0xDD62ED3E ADDRESS DUP6 PUSH1 0x40 MLOAD DUP4 PUSH4 0xFFFFFFFF AND PUSH1 0xE0 SHL DUP2 MSTORE PUSH1 0x4 ADD PUSH2 0x324B SWAP3 SWAP2 SWAP1 PUSH2 0x3D20 JUMP JUMPDEST PUSH1 0x20 PUSH1 0x40 MLOAD DUP1 DUP4 SUB DUP2 DUP7 GAS STATICCALL ISZERO DUP1 ISZERO PUSH2 0x3268 JUMPI RETURNDATASIZE PUSH1 0x0 DUP1 RETURNDATACOPY RETURNDATASIZE PUSH1 0x0 REVERT JUMPDEST POP POP POP POP PUSH1 0x40 MLOAD RETURNDATASIZE PUSH1 0x1F NOT PUSH1 0x1F DUP3 ADD AND DUP3 ADD DUP1 PUSH1 0x40 MSTORE POP DUP2 ADD SWAP1 PUSH2 0x328C SWAP2 SWAP1 PUSH2 0x3CF3 JUMP JUMPDEST EQ JUMPDEST PUSH2 0x32CD JUMPI PUSH1 0x40 MLOAD PUSH32 0x8C379A000000000000000000000000000000000000000000000000000000000 DUP2 MSTORE PUSH1 0x4 ADD PUSH2 0x32C4 SWAP1 PUSH2 0x4776 JUMP JUMPDEST PUSH1 0x40 MLOAD DUP1 SWAP2 SUB SWAP1 REVERT JUMPDEST PUSH2 0x334E DUP4 PUSH4 0x95EA7B3 PUSH1 0xE0 SHL DUP5 DUP5 PUSH1 0x40 MLOAD PUSH1 0x24 ADD PUSH2 0x32EC SWAP3 SWAP2 SWAP1 PUSH2 0x428E JUMP JUMPDEST PUSH1 0x40 MLOAD PUSH1 0x20 DUP2 DUP4 SUB SUB DUP2 MSTORE SWAP1 PUSH1 0x40 MSTORE SWAP1 PUSH28 0xFFFFFFFFFFFFFFFFFFFFFFFFFFFFFFFFFFFFFFFFFFFFFFFFFFFFFFFF NOT AND PUSH1 0x20 DUP3 ADD DUP1 MLOAD PUSH28 0xFFFFFFFFFFFFFFFFFFFFFFFFFFFFFFFFFFFFFFFFFFFFFFFFFFFFFFFF DUP4 DUP2 DUP4 AND OR DUP4 MSTORE POP POP POP POP PUSH2 0x36CC JUMP JUMPDEST POP POP POP JUMP JUMPDEST PUSH2 0x335B PUSH2 0x3793 JUMP JUMPDEST PUSH20 0xFFFFFFFFFFFFFFFFFFFFFFFFFFFFFFFFFFFFFFFF AND PUSH2 0x3379 PUSH2 0x190F JUMP JUMPDEST PUSH20 0xFFFFFFFFFFFFFFFFFFFFFFFFFFFFFFFFFFFFFFFF AND EQ PUSH2 0x33CF JUMPI PUSH1 0x40 MLOAD PUSH32 0x8C379A000000000000000000000000000000000000000000000000000000000 DUP2 MSTORE PUSH1 0x4 ADD PUSH2 0x33C6 SWAP1 PUSH2 0x47E2 JUMP JUMPDEST PUSH1 0x40 MLOAD DUP1 SWAP2 SUB SWAP1 REVERT JUMPDEST JUMP JUMPDEST PUSH1 0x0 PUSH1 0x33 PUSH1 0x0 SWAP1 SLOAD SWAP1 PUSH2 0x100 EXP SWAP1 DIV PUSH20 0xFFFFFFFFFFFFFFFFFFFFFFFFFFFFFFFFFFFFFFFF AND SWAP1 POP DUP2 PUSH1 0x33 PUSH1 0x0 PUSH2 0x100 EXP DUP2 SLOAD DUP2 PUSH20 0xFFFFFFFFFFFFFFFFFFFFFFFFFFFFFFFFFFFFFFFF MUL NOT AND SWAP1 DUP4 PUSH20 0xFFFFFFFFFFFFFFFFFFFFFFFFFFFFFFFFFFFFFFFF AND MUL OR SWAP1 SSTORE POP DUP2 PUSH20 0xFFFFFFFFFFFFFFFFFFFFFFFFFFFFFFFFFFFFFFFF AND DUP2 PUSH20 0xFFFFFFFFFFFFFFFFFFFFFFFFFFFFFFFFFFFFFFFF AND PUSH32 0x8BE0079C531659141344CD1FD0A4F28419497F9722A3DAAFE3B4186F6B6457E0 PUSH1 0x40 MLOAD PUSH1 0x40 MLOAD DUP1 SWAP2 SUB SWAP1 LOG3 POP POP JUMP JUMPDEST PUSH2 0x351A DUP5 PUSH4 0x23B872DD PUSH1 0xE0 SHL DUP6 DUP6 DUP6 PUSH1 0x40 MLOAD PUSH1 0x24 ADD PUSH2 0x34B8 SWAP4 SWAP3 SWAP2 SWAP1 PUSH2 0x3CA7 JUMP JUMPDEST PUSH1 0x40 MLOAD PUSH1 0x20 DUP2 DUP4 SUB SUB DUP2 MSTORE SWAP1 PUSH1 0x40 MSTORE SWAP1 PUSH28 0xFFFFFFFFFFFFFFFFFFFFFFFFFFFFFFFFFFFFFFFFFFFFFFFFFFFFFFFF NOT AND PUSH1 0x20 DUP3 ADD DUP1 MLOAD PUSH28 0xFFFFFFFFFFFFFFFFFFFFFFFFFFFFFFFFFFFFFFFFFFFFFFFFFFFFFFFF DUP4 DUP2 DUP4 AND OR DUP4 MSTORE POP POP POP POP PUSH2 0x36CC JUMP JUMPDEST POP POP POP POP JUMP JUMPDEST PUSH2 0x35A1 DUP4 PUSH4 0xA9059CBB PUSH1 0xE0 SHL DUP5 DUP5 PUSH1 0x40 MLOAD PUSH1 0x24 ADD PUSH2 0x353F SWAP3 SWAP2 SWAP1 PUSH2 0x428E JUMP JUMPDEST PUSH1 0x40 MLOAD PUSH1 0x20 DUP2 DUP4 SUB SUB DUP2 MSTORE SWAP1 PUSH1 0x40 MSTORE SWAP1 PUSH28 0xFFFFFFFFFFFFFFFFFFFFFFFFFFFFFFFFFFFFFFFFFFFFFFFFFFFFFFFF NOT AND PUSH1 0x20 DUP3 ADD DUP1 MLOAD PUSH28 0xFFFFFFFFFFFFFFFFFFFFFFFFFFFFFFFFFFFFFFFFFFFFFFFFFFFFFFFF DUP4 DUP2 DUP4 AND OR DUP4 MSTORE POP POP POP POP PUSH2 0x36CC JUMP JUMPDEST POP POP POP JUMP JUMPDEST PUSH1 0x0 PUSH1 0x1 SWAP1 SLOAD SWAP1 PUSH2 0x100 EXP SWAP1 DIV PUSH1 0xFF AND PUSH2 0x35F5 JUMPI PUSH1 0x40 MLOAD PUSH32 0x8C379A000000000000000000000000000000000000000000000000000000000 DUP2 MSTORE PUSH1 0x4 ADD PUSH2 0x35EC SWAP1 PUSH2 0x46E4 JUMP JUMPDEST PUSH1 0x40 MLOAD DUP1 SWAP2 SUB SWAP1 REVERT JUMPDEST PUSH2 0x3605 PUSH2 0x3600 PUSH2 0x3793 JUMP JUMPDEST PUSH2 0x33D1 JUMP JUMPDEST JUMP JUMPDEST PUSH1 0x0 PUSH1 0x1 SWAP1 SLOAD SWAP1 PUSH2 0x100 EXP SWAP1 DIV PUSH1 0xFF AND PUSH2 0x3656 JUMPI PUSH1 0x40 MLOAD PUSH32 0x8C379A000000000000000000000000000000000000000000000000000000000 DUP2 MSTORE PUSH1 0x4 ADD PUSH2 0x364D SWAP1 PUSH2 0x46E4 JUMP JUMPDEST PUSH1 0x40 MLOAD DUP1 SWAP2 SUB SWAP1 REVERT JUMPDEST PUSH1 0x0 PUSH1 0x65 PUSH1 0x0 PUSH2 0x100 EXP DUP2 SLOAD DUP2 PUSH1 0xFF MUL NOT AND SWAP1 DUP4 ISZERO ISZERO MUL OR SWAP1 SSTORE POP JUMP JUMPDEST PUSH1 0x0 PUSH1 0x1 SWAP1 SLOAD SWAP1 PUSH2 0x100 EXP SWAP1 DIV PUSH1 0xFF AND PUSH2 0x36C2 JUMPI PUSH1 0x40 MLOAD PUSH32 0x8C379A000000000000000000000000000000000000000000000000000000000 DUP2 MSTORE PUSH1 0x4 ADD PUSH2 0x36B9 SWAP1 PUSH2 0x46E4 JUMP JUMPDEST PUSH1 0x40 MLOAD DUP1 SWAP2 SUB SWAP1 REVERT JUMPDEST PUSH1 0x1 PUSH1 0x97 DUP2 SWAP1 SSTORE POP JUMP JUMPDEST PUSH1 0x0 PUSH2 0x372E DUP3 PUSH1 0x40 MLOAD DUP1 PUSH1 0x40 ADD PUSH1 0x40 MSTORE DUP1 PUSH1 0x20 DUP2 MSTORE PUSH1 0x20 ADD PUSH32 0x5361666545524332303A206C6F772D6C6576656C2063616C6C206661696C6564 DUP2 MSTORE POP DUP6 PUSH20 0xFFFFFFFFFFFFFFFFFFFFFFFFFFFFFFFFFFFFFFFF AND PUSH2 0x379B SWAP1 SWAP3 SWAP2 SWAP1 PUSH4 0xFFFFFFFF AND JUMP JUMPDEST SWAP1 POP PUSH1 0x0 DUP2 MLOAD GT ISZERO PUSH2 0x378E JUMPI DUP1 DUP1 PUSH1 0x20 ADD SWAP1 MLOAD DUP2 ADD SWAP1 PUSH2 0x374E SWAP2 SWAP1 PUSH2 0x482E JUMP JUMPDEST PUSH2 0x378D JUMPI PUSH1 0x40 MLOAD PUSH32 0x8C379A000000000000000000000000000000000000000000000000000000000 DUP2 MSTORE PUSH1 0x4 ADD PUSH2 0x3784 SWAP1 PUSH2 0x48CD JUMP JUMPDEST PUSH1 0x40 MLOAD DUP1 SWAP2 SUB SWAP1 REVERT JUMPDEST JUMPDEST POP POP POP JUMP JUMPDEST PUSH1 0x0 CALLER SWAP1 POP SWAP1 JUMP JUMPDEST PUSH1 0x60 PUSH2 0x37AA DUP5 DUP5 PUSH1 0x0 DUP6 PUSH2 0x37B3 JUMP JUMPDEST SWAP1 POP SWAP4 SWAP3 POP POP POP JUMP JUMPDEST PUSH1 0x60 DUP3 SELFBALANCE LT ISZERO PUSH2 0x37F8 JUMPI PUSH1 0x40 MLOAD PUSH32 0x8C379A000000000000000000000000000000000000000000000000000000000 DUP2 MSTORE PUSH1 0x4 ADD PUSH2 0x37EF SWAP1 PUSH2 0x495F JUMP JUMPDEST PUSH1 0x40 MLOAD DUP1 SWAP2 SUB SWAP1 REVERT JUMPDEST PUSH1 0x0 DUP1 DUP7 PUSH20 0xFFFFFFFFFFFFFFFFFFFFFFFFFFFFFFFFFFFFFFFF AND DUP6 DUP8 PUSH1 0x40 MLOAD PUSH2 0x3821 SWAP2 SWAP1 PUSH2 0x49F9 JUMP JUMPDEST PUSH1 0x0 PUSH1 0x40 MLOAD DUP1 DUP4 SUB DUP2 DUP6 DUP8 GAS CALL SWAP3 POP POP POP RETURNDATASIZE DUP1 PUSH1 0x0 DUP2 EQ PUSH2 0x385E JUMPI PUSH1 0x40 MLOAD SWAP2 POP PUSH1 0x1F NOT PUSH1 0x3F RETURNDATASIZE ADD AND DUP3 ADD PUSH1 0x40 MSTORE RETURNDATASIZE DUP3 MSTORE RETURNDATASIZE PUSH1 0x0 PUSH1 0x20 DUP5 ADD RETURNDATACOPY PUSH2 0x3863 JUMP JUMPDEST PUSH1 0x60 SWAP2 POP JUMPDEST POP SWAP2 POP SWAP2 POP PUSH2 0x3874 DUP8 DUP4 DUP4 DUP8 PUSH2 0x3880 JUMP JUMPDEST SWAP3 POP POP POP SWAP5 SWAP4 POP POP POP POP JUMP JUMPDEST PUSH1 0x60 DUP4 ISZERO PUSH2 0x38E3 JUMPI PUSH1 0x0 DUP4 MLOAD EQ ISZERO PUSH2 0x38DB JUMPI PUSH2 0x389B DUP6 PUSH2 0x38F6 JUMP JUMPDEST PUSH2 0x38DA JUMPI PUSH1 0x40 MLOAD PUSH32 0x8C379A000000000000000000000000000000000000000000000000000000000 DUP2 MSTORE PUSH1 0x4 ADD PUSH2 0x38D1 SWAP1 PUSH2 0x4A5C JUMP JUMPDEST PUSH1 0x40 MLOAD DUP1 SWAP2 SUB SWAP1 REVERT JUMPDEST JUMPDEST DUP3 SWAP1 POP PUSH2 0x38EE JUMP JUMPDEST PUSH2 0x38ED DUP4 DUP4 PUSH2 0x3919 JUMP JUMPDEST JUMPDEST SWAP5 SWAP4 POP POP POP POP JUMP JUMPDEST PUSH1 0x0 DUP1 DUP3 PUSH20 0xFFFFFFFFFFFFFFFFFFFFFFFFFFFFFFFFFFFFFFFF AND EXTCODESIZE GT SWAP1 POP SWAP2 SWAP1 POP JUMP JUMPDEST PUSH1 0x0 DUP3 MLOAD GT ISZERO PUSH2 0x392C JUMPI DUP2 MLOAD DUP1 DUP4 PUSH1 0x20 ADD REVERT JUMPDEST DUP1 PUSH1 0x40 MLOAD PUSH32 0x8C379A000000000000000000000000000000000000000000000000000000000 DUP2 MSTORE PUSH1 0x4 ADD PUSH2 0x3960 SWAP2 SWAP1 PUSH2 0x4AC0 JUMP JUMPDEST PUSH1 0x40 MLOAD DUP1 SWAP2 SUB SWAP1 REVERT JUMPDEST PUSH1 0x0 PUSH1 0x40 MLOAD SWAP1 POP SWAP1 JUMP JUMPDEST PUSH1 0x0 DUP1 REVERT JUMPDEST PUSH1 0x0 DUP1 REVERT JUMPDEST PUSH1 0x0 PUSH20 0xFFFFFFFFFFFFFFFFFFFFFFFFFFFFFFFFFFFFFFFF DUP3 AND SWAP1 POP SWAP2 SWAP1 POP JUMP JUMPDEST PUSH1 0x0 PUSH2 0x39A8 DUP3 PUSH2 0x397D JUMP JUMPDEST SWAP1 POP SWAP2 SWAP1 POP JUMP JUMPDEST PUSH2 0x39B8 DUP2 PUSH2 0x399D JUMP JUMPDEST DUP2 EQ PUSH2 0x39C3 JUMPI PUSH1 0x0 DUP1 REVERT JUMPDEST POP JUMP JUMPDEST PUSH1 0x0 DUP2 CALLDATALOAD SWAP1 POP PUSH2 0x39D5 DUP2 PUSH2 0x39AF JUMP JUMPDEST SWAP3 SWAP2 POP POP JUMP JUMPDEST PUSH1 0x0 DUP2 SWAP1 POP SWAP2 SWAP1 POP JUMP JUMPDEST PUSH2 0x39EE DUP2 PUSH2 0x39DB JUMP JUMPDEST DUP2 EQ PUSH2 0x39F9 JUMPI PUSH1 0x0 DUP1 REVERT JUMPDEST POP JUMP JUMPDEST PUSH1 0x0 DUP2 CALLDATALOAD SWAP1 POP PUSH2 0x3A0B DUP2 PUSH2 0x39E5 JUMP JUMPDEST SWAP3 SWAP2 POP POP JUMP JUMPDEST PUSH1 0x0 DUP1 PUSH1 0x40 DUP4 DUP6 SUB SLT ISZERO PUSH2 0x3A28 JUMPI PUSH2 0x3A27 PUSH2 0x3973 JUMP JUMPDEST JUMPDEST PUSH1 0x0 PUSH2 0x3A36 DUP6 DUP3 DUP7 ADD PUSH2 0x39C6 JUMP JUMPDEST SWAP3 POP POP PUSH1 0x20 PUSH2 0x3A47 DUP6 DUP3 DUP7 ADD PUSH2 0x39FC JUMP JUMPDEST SWAP2 POP POP SWAP3 POP SWAP3 SWAP1 POP JUMP JUMPDEST PUSH2 0x3A5A DUP2 PUSH2 0x39DB JUMP JUMPDEST DUP3 MSTORE POP POP JUMP JUMPDEST PUSH1 0x0 PUSH1 0x20 DUP3 ADD SWAP1 POP PUSH2 0x3A75 PUSH1 0x0 DUP4 ADD DUP5 PUSH2 0x3A51 JUMP JUMPDEST SWAP3 SWAP2 POP POP JUMP JUMPDEST PUSH2 0x3A84 DUP2 PUSH2 0x399D JUMP JUMPDEST DUP3 MSTORE POP POP JUMP JUMPDEST PUSH1 0x0 PUSH1 0x20 DUP3 ADD SWAP1 POP PUSH2 0x3A9F PUSH1 0x0 DUP4 ADD DUP5 PUSH2 0x3A7B JUMP JUMPDEST SWAP3 SWAP2 POP POP JUMP JUMPDEST PUSH1 0x0 PUSH1 0x20 DUP3 DUP5 SUB SLT ISZERO PUSH2 0x3ABB JUMPI PUSH2 0x3ABA PUSH2 0x3973 JUMP JUMPDEST JUMPDEST PUSH1 0x0 PUSH2 0x3AC9 DUP5 DUP3 DUP6 ADD PUSH2 0x39C6 JUMP JUMPDEST SWAP2 POP POP SWAP3 SWAP2 POP POP JUMP JUMPDEST PUSH1 0x0 DUP1 PUSH1 0x0 DUP1 PUSH1 0x0 DUP1 PUSH1 0x0 PUSH1 0xE0 DUP9 DUP11 SUB SLT ISZERO PUSH2 0x3AF1 JUMPI PUSH2 0x3AF0 PUSH2 0x3973 JUMP JUMPDEST JUMPDEST PUSH1 0x0 PUSH2 0x3AFF DUP11 DUP3 DUP12 ADD PUSH2 0x39C6 JUMP JUMPDEST SWAP8 POP POP PUSH1 0x20 PUSH2 0x3B10 DUP11 DUP3 DUP12 ADD PUSH2 0x39C6 JUMP JUMPDEST SWAP7 POP POP PUSH1 0x40 PUSH2 0x3B21 DUP11 DUP3 DUP12 ADD PUSH2 0x39C6 JUMP JUMPDEST SWAP6 POP POP PUSH1 0x60 PUSH2 0x3B32 DUP11 DUP3 DUP12 ADD PUSH2 0x39C6 JUMP JUMPDEST SWAP5 POP POP PUSH1 0x80 PUSH2 0x3B43 DUP11 DUP3 DUP12 ADD PUSH2 0x39C6 JUMP JUMPDEST SWAP4 POP POP PUSH1 0xA0 PUSH2 0x3B54 DUP11 DUP3 DUP12 ADD PUSH2 0x39C6 JUMP JUMPDEST SWAP3 POP POP PUSH1 0xC0 PUSH2 0x3B65 DUP11 DUP3 DUP12 ADD PUSH2 0x39C6 JUMP JUMPDEST SWAP2 POP POP SWAP3 SWAP6 SWAP9 SWAP2 SWAP5 SWAP8 POP SWAP3 SWAP6 POP JUMP JUMPDEST PUSH1 0x0 DUP2 ISZERO ISZERO SWAP1 POP SWAP2 SWAP1 POP JUMP JUMPDEST PUSH2 0x3B89 DUP2 PUSH2 0x3B74 JUMP JUMPDEST DUP3 MSTORE POP POP JUMP JUMPDEST PUSH1 0x0 PUSH1 0x20 DUP3 ADD SWAP1 POP PUSH2 0x3BA4 PUSH1 0x0 DUP4 ADD DUP5 PUSH2 0x3B80 JUMP JUMPDEST SWAP3 SWAP2 POP POP JUMP JUMPDEST PUSH1 0x0 PUSH1 0x20 DUP3 DUP5 SUB SLT ISZERO PUSH2 0x3BC0 JUMPI PUSH2 0x3BBF PUSH2 0x3973 JUMP JUMPDEST JUMPDEST PUSH1 0x0 PUSH2 0x3BCE DUP5 DUP3 DUP6 ADD PUSH2 0x39FC JUMP JUMPDEST SWAP2 POP POP SWAP3 SWAP2 POP POP JUMP JUMPDEST PUSH1 0x0 DUP1 PUSH1 0x0 PUSH1 0x60 DUP5 DUP7 SUB SLT ISZERO PUSH2 0x3BF0 JUMPI PUSH2 0x3BEF PUSH2 0x3973 JUMP JUMPDEST JUMPDEST PUSH1 0x0 PUSH2 0x3BFE DUP7 DUP3 DUP8 ADD PUSH2 0x39C6 JUMP JUMPDEST SWAP4 POP POP PUSH1 0x20 PUSH2 0x3C0F DUP7 DUP3 DUP8 ADD PUSH2 0x39FC JUMP JUMPDEST SWAP3 POP POP PUSH1 0x40 PUSH2 0x3C20 DUP7 DUP3 DUP8 ADD PUSH2 0x39FC JUMP JUMPDEST SWAP2 POP POP SWAP3 POP SWAP3 POP SWAP3 JUMP JUMPDEST PUSH1 0x0 DUP3 DUP3 MSTORE PUSH1 0x20 DUP3 ADD SWAP1 POP SWAP3 SWAP2 POP POP JUMP JUMPDEST PUSH32 0x5265656E7472616E637947756172643A207265656E7472616E742063616C6C00 PUSH1 0x0 DUP3 ADD MSTORE POP JUMP JUMPDEST PUSH1 0x0 PUSH2 0x3C71 PUSH1 0x1F DUP4 PUSH2 0x3C2A JUMP JUMPDEST SWAP2 POP PUSH2 0x3C7C DUP3 PUSH2 0x3C3B JUMP JUMPDEST PUSH1 0x20 DUP3 ADD SWAP1 POP SWAP2 SWAP1 POP JUMP JUMPDEST PUSH1 0x0 PUSH1 0x20 DUP3 ADD SWAP1 POP DUP2 DUP2 SUB PUSH1 0x0 DUP4 ADD MSTORE PUSH2 0x3CA0 DUP2 PUSH2 0x3C64 JUMP JUMPDEST SWAP1 POP SWAP2 SWAP1 POP JUMP JUMPDEST PUSH1 0x0 PUSH1 0x60 DUP3 ADD SWAP1 POP PUSH2 0x3CBC PUSH1 0x0 DUP4 ADD DUP7 PUSH2 0x3A7B JUMP JUMPDEST PUSH2 0x3CC9 PUSH1 0x20 DUP4 ADD DUP6 PUSH2 0x3A7B JUMP JUMPDEST PUSH2 0x3CD6 PUSH1 0x40 DUP4 ADD DUP5 PUSH2 0x3A51 JUMP JUMPDEST SWAP5 SWAP4 POP POP POP POP JUMP JUMPDEST PUSH1 0x0 DUP2 MLOAD SWAP1 POP PUSH2 0x3CED DUP2 PUSH2 0x39E5 JUMP JUMPDEST SWAP3 SWAP2 POP POP JUMP JUMPDEST PUSH1 0x0 PUSH1 0x20 DUP3 DUP5 SUB SLT ISZERO PUSH2 0x3D09 JUMPI PUSH2 0x3D08 PUSH2 0x3973 JUMP JUMPDEST JUMPDEST PUSH1 0x0 PUSH2 0x3D17 DUP5 DUP3 DUP6 ADD PUSH2 0x3CDE JUMP JUMPDEST SWAP2 POP POP SWAP3 SWAP2 POP POP JUMP JUMPDEST PUSH1 0x0 PUSH1 0x40 DUP3 ADD SWAP1 POP PUSH2 0x3D35 PUSH1 0x0 DUP4 ADD DUP6 PUSH2 0x3A7B JUMP JUMPDEST PUSH2 0x3D42 PUSH1 0x20 DUP4 ADD DUP5 PUSH2 0x3A7B JUMP JUMPDEST SWAP4 SWAP3 POP POP POP JUMP JUMPDEST PUSH32 0x496E697469616C697A61626C653A20636F6E747261637420697320616C726561 PUSH1 0x0 DUP3 ADD MSTORE PUSH32 0x647920696E697469616C697A6564000000000000000000000000000000000000 PUSH1 0x20 DUP3 ADD MSTORE POP JUMP JUMPDEST PUSH1 0x0 PUSH2 0x3DA5 PUSH1 0x2E DUP4 PUSH2 0x3C2A JUMP JUMPDEST SWAP2 POP PUSH2 0x3DB0 DUP3 PUSH2 0x3D49 JUMP JUMPDEST PUSH1 0x40 DUP3 ADD SWAP1 POP SWAP2 SWAP1 POP JUMP JUMPDEST PUSH1 0x0 PUSH1 0x20 DUP3 ADD SWAP1 POP DUP2 DUP2 SUB PUSH1 0x0 DUP4 ADD MSTORE PUSH2 0x3DD4 DUP2 PUSH2 0x3D98 JUMP JUMPDEST SWAP1 POP SWAP2 SWAP1 POP JUMP JUMPDEST PUSH1 0x0 DUP2 SWAP1 POP SWAP2 SWAP1 POP JUMP JUMPDEST PUSH1 0x0 PUSH1 0xFF DUP3 AND SWAP1 POP SWAP2 SWAP1 POP JUMP JUMPDEST PUSH1 0x0 DUP2 SWAP1 POP SWAP2 SWAP1 POP JUMP JUMPDEST PUSH1 0x0 PUSH2 0x3E17 PUSH2 0x3E12 PUSH2 0x3E0D DUP5 PUSH2 0x3DDB JUMP JUMPDEST PUSH2 0x3DF2 JUMP JUMPDEST PUSH2 0x3DE5 JUMP JUMPDEST SWAP1 POP SWAP2 SWAP1 POP JUMP JUMPDEST PUSH2 0x3E27 DUP2 PUSH2 0x3DFC JUMP JUMPDEST DUP3 MSTORE POP POP JUMP JUMPDEST PUSH1 0x0 PUSH1 0x20 DUP3 ADD SWAP1 POP PUSH2 0x3E42 PUSH1 0x0 DUP4 ADD DUP5 PUSH2 0x3E1E JUMP JUMPDEST SWAP3 SWAP2 POP POP JUMP JUMPDEST PUSH32 0x4365526F757465722F44697361626C6564000000000000000000000000000000 PUSH1 0x0 DUP3 ADD MSTORE POP JUMP JUMPDEST PUSH1 0x0 PUSH2 0x3E7E PUSH1 0x11 DUP4 PUSH2 0x3C2A JUMP JUMPDEST SWAP2 POP PUSH2 0x3E89 DUP3 PUSH2 0x3E48 JUMP JUMPDEST PUSH1 0x20 DUP3 ADD SWAP1 POP SWAP2 SWAP1 POP JUMP JUMPDEST PUSH1 0x0 PUSH1 0x20 DUP3 ADD SWAP1 POP DUP2 DUP2 SUB PUSH1 0x0 DUP4 ADD MSTORE PUSH2 0x3EAD DUP2 PUSH2 0x3E71 JUMP JUMPDEST SWAP1 POP SWAP2 SWAP1 POP JUMP JUMPDEST PUSH32 0x4E487B7100000000000000000000000000000000000000000000000000000000 PUSH1 0x0 MSTORE PUSH1 0x41 PUSH1 0x4 MSTORE PUSH1 0x24 PUSH1 0x0 REVERT JUMPDEST PUSH32 0x4E487B7100000000000000000000000000000000000000000000000000000000 PUSH1 0x0 MSTORE PUSH1 0x32 PUSH1 0x4 MSTORE PUSH1 0x24 PUSH1 0x0 REVERT JUMPDEST PUSH32 0x4E487B7100000000000000000000000000000000000000000000000000000000 PUSH1 0x0 MSTORE PUSH1 0x11 PUSH1 0x4 MSTORE PUSH1 0x24 PUSH1 0x0 REVERT JUMPDEST PUSH1 0x0 PUSH2 0x3F4C DUP3 PUSH2 0x39DB JUMP JUMPDEST SWAP2 POP PUSH2 0x3F57 DUP4 PUSH2 0x39DB JUMP JUMPDEST SWAP3 POP DUP3 PUSH32 0xFFFFFFFFFFFFFFFFFFFFFFFFFFFFFFFFFFFFFFFFFFFFFFFFFFFFFFFFFFFFFFFF SUB DUP3 GT ISZERO PUSH2 0x3F8C JUMPI PUSH2 0x3F8B PUSH2 0x3F12 JUMP JUMPDEST JUMPDEST DUP3 DUP3 ADD SWAP1 POP SWAP3 SWAP2 POP POP JUMP JUMPDEST PUSH1 0x0 DUP2 MLOAD SWAP1 POP SWAP2 SWAP1 POP JUMP JUMPDEST PUSH1 0x0 DUP3 DUP3 MSTORE PUSH1 0x20 DUP3 ADD SWAP1 POP SWAP3 SWAP2 POP POP JUMP JUMPDEST PUSH1 0x0 DUP2 SWAP1 POP PUSH1 0x20 DUP3 ADD SWAP1 POP SWAP2 SWAP1 POP JUMP JUMPDEST PUSH2 0x3FCC DUP2 PUSH2 0x399D JUMP JUMPDEST DUP3 MSTORE POP POP JUMP JUMPDEST PUSH1 0x0 PUSH2 0x3FDE DUP4 DUP4 PUSH2 0x3FC3 JUMP JUMPDEST PUSH1 0x20 DUP4 ADD SWAP1 POP SWAP3 SWAP2 POP POP JUMP JUMPDEST PUSH1 0x0 PUSH1 0x20 DUP3 ADD SWAP1 POP SWAP2 SWAP1 POP JUMP JUMPDEST PUSH1 0x0 PUSH2 0x4002 DUP3 PUSH2 0x3F97 JUMP JUMPDEST PUSH2 0x400C DUP2 DUP6 PUSH2 0x3FA2 JUMP JUMPDEST SWAP4 POP PUSH2 0x4017 DUP4 PUSH2 0x3FB3 JUMP JUMPDEST DUP1 PUSH1 0x0 JUMPDEST DUP4 DUP2 LT ISZERO PUSH2 0x4048 JUMPI DUP2 MLOAD PUSH2 0x402F DUP9 DUP3 PUSH2 0x3FD2 JUMP JUMPDEST SWAP8 POP PUSH2 0x403A DUP4 PUSH2 0x3FEA JUMP JUMPDEST SWAP3 POP POP PUSH1 0x1 DUP2 ADD SWAP1 POP PUSH2 0x401B JUMP JUMPDEST POP DUP6 SWAP4 POP POP POP POP SWAP3 SWAP2 POP POP JUMP JUMPDEST PUSH1 0x0 PUSH1 0xA0 DUP3 ADD SWAP1 POP PUSH2 0x406A PUSH1 0x0 DUP4 ADD DUP9 PUSH2 0x3A51 JUMP JUMPDEST PUSH2 0x4077 PUSH1 0x20 DUP4 ADD DUP8 PUSH2 0x3A51 JUMP JUMPDEST DUP2 DUP2 SUB PUSH1 0x40 DUP4 ADD MSTORE PUSH2 0x4089 DUP2 DUP7 PUSH2 0x3FF7 JUMP JUMPDEST SWAP1 POP PUSH2 0x4098 PUSH1 0x60 DUP4 ADD DUP6 PUSH2 0x3A7B JUMP JUMPDEST PUSH2 0x40A5 PUSH1 0x80 DUP4 ADD DUP5 PUSH2 0x3A51 JUMP JUMPDEST SWAP7 SWAP6 POP POP POP POP POP POP JUMP JUMPDEST PUSH1 0x0 DUP1 REVERT JUMPDEST PUSH1 0x0 PUSH1 0x1F NOT PUSH1 0x1F DUP4 ADD AND SWAP1 POP SWAP2 SWAP1 POP JUMP JUMPDEST PUSH2 0x40CE DUP3 PUSH2 0x40B4 JUMP JUMPDEST DUP2 ADD DUP2 DUP2 LT PUSH8 0xFFFFFFFFFFFFFFFF DUP3 GT OR ISZERO PUSH2 0x40ED JUMPI PUSH2 0x40EC PUSH2 0x3EB4 JUMP JUMPDEST JUMPDEST DUP1 PUSH1 0x40 MSTORE POP POP POP JUMP JUMPDEST PUSH1 0x0 PUSH2 0x4100 PUSH2 0x3969 JUMP JUMPDEST SWAP1 POP PUSH2 0x410C DUP3 DUP3 PUSH2 0x40C5 JUMP JUMPDEST SWAP2 SWAP1 POP JUMP JUMPDEST PUSH1 0x0 PUSH8 0xFFFFFFFFFFFFFFFF DUP3 GT ISZERO PUSH2 0x412C JUMPI PUSH2 0x412B PUSH2 0x3EB4 JUMP JUMPDEST JUMPDEST PUSH1 0x20 DUP3 MUL SWAP1 POP PUSH1 0x20 DUP2 ADD SWAP1 POP SWAP2 SWAP1 POP JUMP JUMPDEST PUSH1 0x0 DUP1 REVERT JUMPDEST PUSH1 0x0 PUSH2 0x4155 PUSH2 0x4150 DUP5 PUSH2 0x4111 JUMP JUMPDEST PUSH2 0x40F6 JUMP JUMPDEST SWAP1 POP DUP1 DUP4 DUP3 MSTORE PUSH1 0x20 DUP3 ADD SWAP1 POP PUSH1 0x20 DUP5 MUL DUP4 ADD DUP6 DUP2 GT ISZERO PUSH2 0x4178 JUMPI PUSH2 0x4177 PUSH2 0x413D JUMP JUMPDEST JUMPDEST DUP4 JUMPDEST DUP2 DUP2 LT ISZERO PUSH2 0x41A1 JUMPI DUP1 PUSH2 0x418D DUP9 DUP3 PUSH2 0x3CDE JUMP JUMPDEST DUP5 MSTORE PUSH1 0x20 DUP5 ADD SWAP4 POP POP PUSH1 0x20 DUP2 ADD SWAP1 POP PUSH2 0x417A JUMP JUMPDEST POP POP POP SWAP4 SWAP3 POP POP POP JUMP JUMPDEST PUSH1 0x0 DUP3 PUSH1 0x1F DUP4 ADD SLT PUSH2 0x41C0 JUMPI PUSH2 0x41BF PUSH2 0x40AF JUMP JUMPDEST JUMPDEST DUP2 MLOAD PUSH2 0x41D0 DUP5 DUP3 PUSH1 0x20 DUP7 ADD PUSH2 0x4142 JUMP JUMPDEST SWAP2 POP POP SWAP3 SWAP2 POP POP JUMP JUMPDEST PUSH1 0x0 PUSH1 0x20 DUP3 DUP5 SUB SLT ISZERO PUSH2 0x41EF JUMPI PUSH2 0x41EE PUSH2 0x3973 JUMP JUMPDEST JUMPDEST PUSH1 0x0 DUP3 ADD MLOAD PUSH8 0xFFFFFFFFFFFFFFFF DUP2 GT ISZERO PUSH2 0x420D JUMPI PUSH2 0x420C PUSH2 0x3978 JUMP JUMPDEST JUMPDEST PUSH2 0x4219 DUP5 DUP3 DUP6 ADD PUSH2 0x41AB JUMP JUMPDEST SWAP2 POP POP SWAP3 SWAP2 POP POP JUMP JUMPDEST PUSH32 0x50726F76696465723A206E6F7420616C6C6F7765640000000000000000000000 PUSH1 0x0 DUP3 ADD MSTORE POP JUMP JUMPDEST PUSH1 0x0 PUSH2 0x4258 PUSH1 0x15 DUP4 PUSH2 0x3C2A JUMP JUMPDEST SWAP2 POP PUSH2 0x4263 DUP3 PUSH2 0x4222 JUMP JUMPDEST PUSH1 0x20 DUP3 ADD SWAP1 POP SWAP2 SWAP1 POP JUMP JUMPDEST PUSH1 0x0 PUSH1 0x20 DUP3 ADD SWAP1 POP DUP2 DUP2 SUB PUSH1 0x0 DUP4 ADD MSTORE PUSH2 0x4287 DUP2 PUSH2 0x424B JUMP JUMPDEST SWAP1 POP SWAP2 SWAP1 POP JUMP JUMPDEST PUSH1 0x0 PUSH1 0x40 DUP3 ADD SWAP1 POP PUSH2 0x42A3 PUSH1 0x0 DUP4 ADD DUP6 PUSH2 0x3A7B JUMP JUMPDEST PUSH2 0x42B0 PUSH1 0x20 DUP4 ADD DUP5 PUSH2 0x3A51 JUMP JUMPDEST SWAP4 SWAP3 POP POP POP JUMP JUMPDEST PUSH1 0x0 DUP2 SWAP1 POP SWAP2 SWAP1 POP JUMP JUMPDEST PUSH1 0x0 PUSH2 0x42DC PUSH2 0x42D7 PUSH2 0x42D2 DUP5 PUSH2 0x42B7 JUMP JUMPDEST PUSH2 0x3DF2 JUMP JUMPDEST PUSH2 0x39DB JUMP JUMPDEST SWAP1 POP SWAP2 SWAP1 POP JUMP JUMPDEST PUSH2 0x42EC DUP2 PUSH2 0x42C1 JUMP JUMPDEST DUP3 MSTORE POP POP JUMP JUMPDEST PUSH1 0x0 PUSH1 0x40 DUP3 ADD SWAP1 POP PUSH2 0x4307 PUSH1 0x0 DUP4 ADD DUP6 PUSH2 0x3A51 JUMP JUMPDEST PUSH2 0x4314 PUSH1 0x20 DUP4 ADD DUP5 PUSH2 0x42E3 JUMP JUMPDEST SWAP4 SWAP3 POP POP POP JUMP JUMPDEST PUSH32 0x686173206E6F7420676F7420612070726F666974000000000000000000000000 PUSH1 0x0 DUP3 ADD MSTORE POP JUMP JUMPDEST PUSH1 0x0 PUSH2 0x4351 PUSH1 0x14 DUP4 PUSH2 0x3C2A JUMP JUMPDEST SWAP2 POP PUSH2 0x435C DUP3 PUSH2 0x431B JUMP JUMPDEST PUSH1 0x20 DUP3 ADD SWAP1 POP SWAP2 SWAP1 POP JUMP JUMPDEST PUSH1 0x0 PUSH1 0x20 DUP3 ADD SWAP1 POP DUP2 DUP2 SUB PUSH1 0x0 DUP4 ADD MSTORE PUSH2 0x4380 DUP2 PUSH2 0x4344 JUMP JUMPDEST SWAP1 POP SWAP2 SWAP1 POP JUMP JUMPDEST PUSH32 0x696E73756666696369656E7420616D6F756E7400000000000000000000000000 PUSH1 0x0 DUP3 ADD MSTORE POP JUMP JUMPDEST PUSH1 0x0 PUSH2 0x43BD PUSH1 0x13 DUP4 PUSH2 0x3C2A JUMP JUMPDEST SWAP2 POP PUSH2 0x43C8 DUP3 PUSH2 0x4387 JUMP JUMPDEST PUSH1 0x20 DUP3 ADD SWAP1 POP SWAP2 SWAP1 POP JUMP JUMPDEST PUSH1 0x0 PUSH1 0x20 DUP3 ADD SWAP1 POP DUP2 DUP2 SUB PUSH1 0x0 DUP4 ADD MSTORE PUSH2 0x43EC DUP2 PUSH2 0x43B0 JUMP JUMPDEST SWAP1 POP SWAP2 SWAP1 POP JUMP JUMPDEST PUSH1 0x0 PUSH2 0x43FE DUP3 PUSH2 0x39DB JUMP JUMPDEST SWAP2 POP PUSH2 0x4409 DUP4 PUSH2 0x39DB JUMP JUMPDEST SWAP3 POP DUP3 DUP3 LT ISZERO PUSH2 0x441C JUMPI PUSH2 0x441B PUSH2 0x3F12 JUMP JUMPDEST JUMPDEST DUP3 DUP3 SUB SWAP1 POP SWAP3 SWAP2 POP POP JUMP JUMPDEST PUSH32 0x4445582044495341424C45440000000000000000000000000000000000000000 PUSH1 0x0 DUP3 ADD MSTORE POP JUMP JUMPDEST PUSH1 0x0 PUSH2 0x445D PUSH1 0xC DUP4 PUSH2 0x3C2A JUMP JUMPDEST SWAP2 POP PUSH2 0x4468 DUP3 PUSH2 0x4427 JUMP JUMPDEST PUSH1 0x20 DUP3 ADD SWAP1 POP SWAP2 SWAP1 POP JUMP JUMPDEST PUSH1 0x0 PUSH1 0x20 DUP3 ADD SWAP1 POP DUP2 DUP2 SUB PUSH1 0x0 DUP4 ADD MSTORE PUSH2 0x448C DUP2 PUSH2 0x4450 JUMP JUMPDEST SWAP1 POP SWAP2 SWAP1 POP JUMP JUMPDEST PUSH32 0x696E73756666696369656E7420616D6F756E74206F66204365726F73526F7574 PUSH1 0x0 DUP3 ADD MSTORE PUSH32 0x657220696E206365727420746F6B656E00000000000000000000000000000000 PUSH1 0x20 DUP3 ADD MSTORE POP JUMP JUMPDEST PUSH1 0x0 PUSH2 0x44EF PUSH1 0x30 DUP4 PUSH2 0x3C2A JUMP JUMPDEST SWAP2 POP PUSH2 0x44FA DUP3 PUSH2 0x4493 JUMP JUMPDEST PUSH1 0x40 DUP3 ADD SWAP1 POP SWAP2 SWAP1 POP JUMP JUMPDEST PUSH1 0x0 PUSH1 0x20 DUP3 ADD SWAP1 POP DUP2 DUP2 SUB PUSH1 0x0 DUP4 ADD MSTORE PUSH2 0x451E DUP2 PUSH2 0x44E2 JUMP JUMPDEST SWAP1 POP SWAP2 SWAP1 POP JUMP JUMPDEST PUSH1 0x0 PUSH1 0x40 DUP3 ADD SWAP1 POP PUSH2 0x453A PUSH1 0x0 DUP4 ADD DUP6 PUSH2 0x3A51 JUMP JUMPDEST PUSH2 0x4547 PUSH1 0x20 DUP4 ADD DUP5 PUSH2 0x3A51 JUMP JUMPDEST SWAP4 SWAP3 POP POP POP JUMP JUMPDEST PUSH32 0x4F776E61626C653A206E6577206F776E657220697320746865207A65726F2061 PUSH1 0x0 DUP3 ADD MSTORE PUSH32 0x6464726573730000000000000000000000000000000000000000000000000000 PUSH1 0x20 DUP3 ADD MSTORE POP JUMP JUMPDEST PUSH1 0x0 PUSH2 0x45AA PUSH1 0x26 DUP4 PUSH2 0x3C2A JUMP JUMPDEST SWAP2 POP PUSH2 0x45B5 DUP3 PUSH2 0x454E JUMP JUMPDEST PUSH1 0x40 DUP3 ADD SWAP1 POP SWAP2 SWAP1 POP JUMP JUMPDEST PUSH1 0x0 PUSH1 0x20 DUP3 ADD SWAP1 POP DUP2 DUP2 SUB PUSH1 0x0 DUP4 ADD MSTORE PUSH2 0x45D9 DUP2 PUSH2 0x459D JUMP JUMPDEST SWAP1 POP SWAP2 SWAP1 POP JUMP JUMPDEST PUSH32 0x76616C7565206D7573742062652067726561746572207468616E206D696E2075 PUSH1 0x0 DUP3 ADD MSTORE PUSH32 0x6E7374616B6520616D6F756E7400000000000000000000000000000000000000 PUSH1 0x20 DUP3 ADD MSTORE POP JUMP JUMPDEST PUSH1 0x0 PUSH2 0x463C PUSH1 0x2D DUP4 PUSH2 0x3C2A JUMP JUMPDEST SWAP2 POP PUSH2 0x4647 DUP3 PUSH2 0x45E0 JUMP JUMPDEST PUSH1 0x40 DUP3 ADD SWAP1 POP SWAP2 SWAP1 POP JUMP JUMPDEST PUSH1 0x0 PUSH1 0x20 DUP3 ADD SWAP1 POP DUP2 DUP2 SUB PUSH1 0x0 DUP4 ADD MSTORE PUSH2 0x466B DUP2 PUSH2 0x462F JUMP JUMPDEST SWAP1 POP SWAP2 SWAP1 POP JUMP JUMPDEST PUSH32 0x496E697469616C697A61626C653A20636F6E7472616374206973206E6F742069 PUSH1 0x0 DUP3 ADD MSTORE PUSH32 0x6E697469616C697A696E67000000000000000000000000000000000000000000 PUSH1 0x20 DUP3 ADD MSTORE POP JUMP JUMPDEST PUSH1 0x0 PUSH2 0x46CE PUSH1 0x2B DUP4 PUSH2 0x3C2A JUMP JUMPDEST SWAP2 POP PUSH2 0x46D9 DUP3 PUSH2 0x4672 JUMP JUMPDEST PUSH1 0x40 DUP3 ADD SWAP1 POP SWAP2 SWAP1 POP JUMP JUMPDEST PUSH1 0x0 PUSH1 0x20 DUP3 ADD SWAP1 POP DUP2 DUP2 SUB PUSH1 0x0 DUP4 ADD MSTORE PUSH2 0x46FD DUP2 PUSH2 0x46C1 JUMP JUMPDEST SWAP1 POP SWAP2 SWAP1 POP JUMP JUMPDEST PUSH32 0x5361666545524332303A20617070726F76652066726F6D206E6F6E2D7A65726F PUSH1 0x0 DUP3 ADD MSTORE PUSH32 0x20746F206E6F6E2D7A65726F20616C6C6F77616E636500000000000000000000 PUSH1 0x20 DUP3 ADD MSTORE POP JUMP JUMPDEST PUSH1 0x0 PUSH2 0x4760 PUSH1 0x36 DUP4 PUSH2 0x3C2A JUMP JUMPDEST SWAP2 POP PUSH2 0x476B DUP3 PUSH2 0x4704 JUMP JUMPDEST PUSH1 0x40 DUP3 ADD SWAP1 POP SWAP2 SWAP1 POP JUMP JUMPDEST PUSH1 0x0 PUSH1 0x20 DUP3 ADD SWAP1 POP DUP2 DUP2 SUB PUSH1 0x0 DUP4 ADD MSTORE PUSH2 0x478F DUP2 PUSH2 0x4753 JUMP JUMPDEST SWAP1 POP SWAP2 SWAP1 POP JUMP JUMPDEST PUSH32 0x4F776E61626C653A2063616C6C6572206973206E6F7420746865206F776E6572 PUSH1 0x0 DUP3 ADD MSTORE POP JUMP JUMPDEST PUSH1 0x0 PUSH2 0x47CC PUSH1 0x20 DUP4 PUSH2 0x3C2A JUMP JUMPDEST SWAP2 POP PUSH2 0x47D7 DUP3 PUSH2 0x4796 JUMP JUMPDEST PUSH1 0x20 DUP3 ADD SWAP1 POP SWAP2 SWAP1 POP JUMP JUMPDEST PUSH1 0x0 PUSH1 0x20 DUP3 ADD SWAP1 POP DUP2 DUP2 SUB PUSH1 0x0 DUP4 ADD MSTORE PUSH2 0x47FB DUP2 PUSH2 0x47BF JUMP JUMPDEST SWAP1 POP SWAP2 SWAP1 POP JUMP JUMPDEST PUSH2 0x480B DUP2 PUSH2 0x3B74 JUMP JUMPDEST DUP2 EQ PUSH2 0x4816 JUMPI PUSH1 0x0 DUP1 REVERT JUMPDEST POP JUMP JUMPDEST PUSH1 0x0 DUP2 MLOAD SWAP1 POP PUSH2 0x4828 DUP2 PUSH2 0x4802 JUMP JUMPDEST SWAP3 SWAP2 POP POP JUMP JUMPDEST PUSH1 0x0 PUSH1 0x20 DUP3 DUP5 SUB SLT ISZERO PUSH2 0x4844 JUMPI PUSH2 0x4843 PUSH2 0x3973 JUMP JUMPDEST JUMPDEST PUSH1 0x0 PUSH2 0x4852 DUP5 DUP3 DUP6 ADD PUSH2 0x4819 JUMP JUMPDEST SWAP2 POP POP SWAP3 SWAP2 POP POP JUMP JUMPDEST PUSH32 0x5361666545524332303A204552433230206F7065726174696F6E20646964206E PUSH1 0x0 DUP3 ADD MSTORE PUSH32 0x6F74207375636365656400000000000000000000000000000000000000000000 PUSH1 0x20 DUP3 ADD MSTORE POP JUMP JUMPDEST PUSH1 0x0 PUSH2 0x48B7 PUSH1 0x2A DUP4 PUSH2 0x3C2A JUMP JUMPDEST SWAP2 POP PUSH2 0x48C2 DUP3 PUSH2 0x485B JUMP JUMPDEST PUSH1 0x40 DUP3 ADD SWAP1 POP SWAP2 SWAP1 POP JUMP JUMPDEST PUSH1 0x0 PUSH1 0x20 DUP3 ADD SWAP1 POP DUP2 DUP2 SUB PUSH1 0x0 DUP4 ADD MSTORE PUSH2 0x48E6 DUP2 PUSH2 0x48AA JUMP JUMPDEST SWAP1 POP SWAP2 SWAP1 POP JUMP JUMPDEST PUSH32 0x416464726573733A20696E73756666696369656E742062616C616E636520666F PUSH1 0x0 DUP3 ADD MSTORE PUSH32 0x722063616C6C0000000000000000000000000000000000000000000000000000 PUSH1 0x20 DUP3 ADD MSTORE POP JUMP JUMPDEST PUSH1 0x0 PUSH2 0x4949 PUSH1 0x26 DUP4 PUSH2 0x3C2A JUMP JUMPDEST SWAP2 POP PUSH2 0x4954 DUP3 PUSH2 0x48ED JUMP JUMPDEST PUSH1 0x40 DUP3 ADD SWAP1 POP SWAP2 SWAP1 POP JUMP JUMPDEST PUSH1 0x0 PUSH1 0x20 DUP3 ADD SWAP1 POP DUP2 DUP2 SUB PUSH1 0x0 DUP4 ADD MSTORE PUSH2 0x4978 DUP2 PUSH2 0x493C JUMP JUMPDEST SWAP1 POP SWAP2 SWAP1 POP JUMP JUMPDEST PUSH1 0x0 DUP2 MLOAD SWAP1 POP SWAP2 SWAP1 POP JUMP JUMPDEST PUSH1 0x0 DUP2 SWAP1 POP SWAP3 SWAP2 POP POP JUMP JUMPDEST PUSH1 0x0 JUMPDEST DUP4 DUP2 LT ISZERO PUSH2 0x49B3 JUMPI DUP1 DUP3 ADD MLOAD DUP2 DUP5 ADD MSTORE PUSH1 0x20 DUP2 ADD SWAP1 POP PUSH2 0x4998 JUMP JUMPDEST DUP4 DUP2 GT ISZERO PUSH2 0x49C2 JUMPI PUSH1 0x0 DUP5 DUP5 ADD MSTORE JUMPDEST POP POP POP POP JUMP JUMPDEST PUSH1 0x0 PUSH2 0x49D3 DUP3 PUSH2 0x497F JUMP JUMPDEST PUSH2 0x49DD DUP2 DUP6 PUSH2 0x498A JUMP JUMPDEST SWAP4 POP PUSH2 0x49ED DUP2 DUP6 PUSH1 0x20 DUP7 ADD PUSH2 0x4995 JUMP JUMPDEST DUP1 DUP5 ADD SWAP2 POP POP SWAP3 SWAP2 POP POP JUMP JUMPDEST PUSH1 0x0 PUSH2 0x4A05 DUP3 DUP5 PUSH2 0x49C8 JUMP JUMPDEST SWAP2 POP DUP2 SWAP1 POP SWAP3 SWAP2 POP POP JUMP JUMPDEST PUSH32 0x416464726573733A2063616C6C20746F206E6F6E2D636F6E7472616374000000 PUSH1 0x0 DUP3 ADD MSTORE POP JUMP JUMPDEST PUSH1 0x0 PUSH2 0x4A46 PUSH1 0x1D DUP4 PUSH2 0x3C2A JUMP JUMPDEST SWAP2 POP PUSH2 0x4A51 DUP3 PUSH2 0x4A10 JUMP JUMPDEST PUSH1 0x20 DUP3 ADD SWAP1 POP SWAP2 SWAP1 POP JUMP JUMPDEST PUSH1 0x0 PUSH1 0x20 DUP3 ADD SWAP1 POP DUP2 DUP2 SUB PUSH1 0x0 DUP4 ADD MSTORE PUSH2 0x4A75 DUP2 PUSH2 0x4A39 JUMP JUMPDEST SWAP1 POP SWAP2 SWAP1 POP JUMP JUMPDEST PUSH1 0x0 DUP2 MLOAD SWAP1 POP SWAP2 SWAP1 POP JUMP JUMPDEST PUSH1 0x0 PUSH2 0x4A92 DUP3 PUSH2 0x4A7C JUMP JUMPDEST PUSH2 0x4A9C DUP2 DUP6 PUSH2 0x3C2A JUMP JUMPDEST SWAP4 POP PUSH2 0x4AAC DUP2 DUP6 PUSH1 0x20 DUP7 ADD PUSH2 0x4995 JUMP JUMPDEST PUSH2 0x4AB5 DUP2 PUSH2 0x40B4 JUMP JUMPDEST DUP5 ADD SWAP2 POP POP SWAP3 SWAP2 POP POP JUMP JUMPDEST PUSH1 0x0 PUSH1 0x20 DUP3 ADD SWAP1 POP DUP2 DUP2 SUB PUSH1 0x0 DUP4 ADD MSTORE PUSH2 0x4ADA DUP2 DUP5 PUSH2 0x4A87 JUMP JUMPDEST SWAP1 POP SWAP3 SWAP2 POP POP JUMP INVALID LOG2 PUSH5 0x6970667358 0x22 SLT KECCAK256 LOG1 0xA9 0x1F KECCAK256 CREATE DUP14 PUSH12 0xEF89E170B12BD14697175CBB 0xB6 0xA5 DUP2 PUSH5 0x17893A5E16 0xDF DIV 0xD5 PUSH6 0x64736F6C6343 STOP ADDMOD EXP STOP CALLER "
				},
				"gasEstimates": {
					"creation": {
						"codeDepositCost": "3844800",
						"executionCost": "4362",
						"totalCost": "3849162"
					},
					"external": {
						"changeBNBStakingPool(address)": "infinite",
						"changeDex(address)": "infinite",
						"changePool(address)": "infinite",
						"changeProvider(address)": "infinite",
						"changeVault(address)": "infinite",
						"claim(address)": "infinite",
						"claimProfit(address)": "infinite",
						"deposit()": "infinite",
						"depositABNBc(uint256)": "25005",
						"depositABNBcFrom(address,uint256)": "infinite",
						"getBNBStakingPoolAddress()": "2589",
						"getCeToken()": "2591",
						"getCertToken()": "2611",
						"getDexAddress()": "2612",
						"getPendingWithdrawalOf(address)": "infinite",
						"getPoolAddress()": "2632",
						"getProfitFor(address)": "2886",
						"getProvider()": "2568",
						"getVaultAddress()": "2634",
						"getWbnbAddress()": "2567",
						"getYieldFor(address)": "infinite",
						"initialize(address,address,address,address,address,address,address)": "infinite",
						"owner()": "2567",
						"paused()": "2547",
						"renounceOwnership()": "30509",
						"transferOwnership(address)": "30813",
						"withdraw(address,uint256)": "infinite",
						"withdrawABNBc(address,uint256)": "infinite",
						"withdrawFor(address,uint256)": "infinite",
						"withdrawWithSlippage(address,uint256,uint256)": "infinite"
					}
				},
				"methodIdentifiers": {
					"changeBNBStakingPool(address)": "3af82c59",
					"changeDex(address)": "69d2da9c",
					"changePool(address)": "4339bc30",
					"changeProvider(address)": "796f69aa",
					"changeVault(address)": "60e232a9",
					"claim(address)": "1e83409a",
					"claimProfit(address)": "c0ab44f6",
					"deposit()": "d0e30db0",
					"depositABNBc(uint256)": "7c0a75e5",
					"depositABNBcFrom(address,uint256)": "bcdef0a4",
					"getBNBStakingPoolAddress()": "97fd9be7",
					"getCeToken()": "0c632bbe",
					"getCertToken()": "6eecfdaa",
					"getDexAddress()": "854cf3cf",
					"getPendingWithdrawalOf(address)": "ab89b6af",
					"getPoolAddress()": "f586c6d9",
					"getProfitFor(address)": "ac78467c",
					"getProvider()": "483d45bd",
					"getVaultAddress()": "65cacaa4",
					"getWbnbAddress()": "665a21db",
					"getYieldFor(address)": "223888c1",
					"initialize(address,address,address,address,address,address,address)": "35876476",
					"owner()": "8da5cb5b",
					"paused()": "5c975abb",
					"renounceOwnership()": "715018a6",
					"transferOwnership(address)": "f2fde38b",
					"withdraw(address,uint256)": "f3fef3a3",
					"withdrawABNBc(address,uint256)": "03550d56",
					"withdrawFor(address,uint256)": "db518db2",
					"withdrawWithSlippage(address,uint256,uint256)": "ab43c3df"
				}
			},
			"storageLayout": {
				"storage": [
					{
						"astId": 138,
						"contract": "Heliocontracts/contracts/ceros/CerosRouter.sol:CerosRouter",
						"label": "_initialized",
						"offset": 0,
						"slot": "0",
						"type": "t_uint8"
					},
					{
						"astId": 141,
						"contract": "Heliocontracts/contracts/ceros/CerosRouter.sol:CerosRouter",
						"label": "_initializing",
						"offset": 1,
						"slot": "0",
						"type": "t_bool"
					},
					{
						"astId": 752,
						"contract": "Heliocontracts/contracts/ceros/CerosRouter.sol:CerosRouter",
						"label": "__gap",
						"offset": 0,
						"slot": "1",
						"type": "t_array(t_uint256)50_storage"
					},
					{
						"astId": 10,
						"contract": "Heliocontracts/contracts/ceros/CerosRouter.sol:CerosRouter",
						"label": "_owner",
						"offset": 0,
						"slot": "51",
						"type": "t_address"
					},
					{
						"astId": 130,
						"contract": "Heliocontracts/contracts/ceros/CerosRouter.sol:CerosRouter",
						"label": "__gap",
						"offset": 0,
						"slot": "52",
						"type": "t_array(t_uint256)49_storage"
					},
					{
						"astId": 303,
						"contract": "Heliocontracts/contracts/ceros/CerosRouter.sol:CerosRouter",
						"label": "_paused",
						"offset": 0,
						"slot": "101",
						"type": "t_bool"
					},
					{
						"astId": 408,
						"contract": "Heliocontracts/contracts/ceros/CerosRouter.sol:CerosRouter",
						"label": "__gap",
						"offset": 0,
						"slot": "102",
						"type": "t_array(t_uint256)49_storage"
					},
					{
						"astId": 423,
						"contract": "Heliocontracts/contracts/ceros/CerosRouter.sol:CerosRouter",
						"label": "_status",
						"offset": 0,
						"slot": "151",
						"type": "t_uint256"
					},
					{
						"astId": 467,
						"contract": "Heliocontracts/contracts/ceros/CerosRouter.sol:CerosRouter",
						"label": "__gap",
						"offset": 0,
						"slot": "152",
						"type": "t_array(t_uint256)49_storage"
					},
					{
						"astId": 1503,
						"contract": "Heliocontracts/contracts/ceros/CerosRouter.sol:CerosRouter",
						"label": "_vault",
						"offset": 0,
						"slot": "201",
						"type": "t_contract(IVault)3040"
					},
					{
						"astId": 1506,
						"contract": "Heliocontracts/contracts/ceros/CerosRouter.sol:CerosRouter",
						"label": "_dex",
						"offset": 0,
						"slot": "202",
						"type": "t_contract(IDex)2905"
					},
					{
						"astId": 1509,
						"contract": "Heliocontracts/contracts/ceros/CerosRouter.sol:CerosRouter",
						"label": "_pool",
						"offset": 0,
						"slot": "203",
						"type": "t_contract(IBinancePool)2566"
					},
					{
						"astId": 1512,
						"contract": "Heliocontracts/contracts/ceros/CerosRouter.sol:CerosRouter",
						"label": "_certToken",
						"offset": 0,
						"slot": "204",
						"type": "t_contract(ICertToken)2771"
					},
					{
						"astId": 1514,
						"contract": "Heliocontracts/contracts/ceros/CerosRouter.sol:CerosRouter",
						"label": "_wBnbAddress",
						"offset": 0,
						"slot": "205",
						"type": "t_address"
					},
					{
						"astId": 1517,
						"contract": "Heliocontracts/contracts/ceros/CerosRouter.sol:CerosRouter",
						"label": "_ceToken",
						"offset": 0,
						"slot": "206",
						"type": "t_contract(IERC20)831"
					},
					{
						"astId": 1521,
						"contract": "Heliocontracts/contracts/ceros/CerosRouter.sol:CerosRouter",
						"label": "_profits",
						"offset": 0,
						"slot": "207",
						"type": "t_mapping(t_address,t_uint256)"
					},
					{
						"astId": 1523,
						"contract": "Heliocontracts/contracts/ceros/CerosRouter.sol:CerosRouter",
						"label": "_provider",
						"offset": 0,
						"slot": "208",
						"type": "t_address"
					},
					{
						"astId": 1526,
						"contract": "Heliocontracts/contracts/ceros/CerosRouter.sol:CerosRouter",
						"label": "_bnbStakingPool",
						"offset": 0,
						"slot": "209",
						"type": "t_contract(IBNBStakingPool)2536"
					}
				],
				"types": {
					"t_address": {
						"encoding": "inplace",
						"label": "address",
						"numberOfBytes": "20"
					},
					"t_array(t_uint256)49_storage": {
						"base": "t_uint256",
						"encoding": "inplace",
						"label": "uint256[49]",
						"numberOfBytes": "1568"
					},
					"t_array(t_uint256)50_storage": {
						"base": "t_uint256",
						"encoding": "inplace",
						"label": "uint256[50]",
						"numberOfBytes": "1600"
					},
					"t_bool": {
						"encoding": "inplace",
						"label": "bool",
						"numberOfBytes": "1"
					},
					"t_contract(IBNBStakingPool)2536": {
						"encoding": "inplace",
						"label": "contract IBNBStakingPool",
						"numberOfBytes": "20"
					},
					"t_contract(IBinancePool)2566": {
						"encoding": "inplace",
						"label": "contract IBinancePool",
						"numberOfBytes": "20"
					},
					"t_contract(ICertToken)2771": {
						"encoding": "inplace",
						"label": "contract ICertToken",
						"numberOfBytes": "20"
					},
					"t_contract(IDex)2905": {
						"encoding": "inplace",
						"label": "contract IDex",
						"numberOfBytes": "20"
					},
					"t_contract(IERC20)831": {
						"encoding": "inplace",
						"label": "contract IERC20",
						"numberOfBytes": "20"
					},
					"t_contract(IVault)3040": {
						"encoding": "inplace",
						"label": "contract IVault",
						"numberOfBytes": "20"
					},
					"t_mapping(t_address,t_uint256)": {
						"encoding": "mapping",
						"key": "t_address",
						"label": "mapping(address => uint256)",
						"numberOfBytes": "32",
						"value": "t_uint256"
					},
					"t_uint256": {
						"encoding": "inplace",
						"label": "uint256",
						"numberOfBytes": "32"
					},
					"t_uint8": {
						"encoding": "inplace",
						"label": "uint8",
						"numberOfBytes": "1"
					}
				}
			},
			"userdoc": {
				"events": {
					"Deposit(address,address,uint256,uint256)": {
						"notice": "Events"
					}
				},
				"kind": "user",
				"methods": {
					"claim(address)": {
						"notice": "CLAIM"
					},
					"deposit()": {
						"notice": "DEPOSIT"
					}
				},
				"version": 1
			}
		}
	}
}