{
	"Heliocontracts/contracts/ceros/hBNB.sol": {
		"hBNB": {
			"abi": [
				{
					"anonymous": false,
					"inputs": [
						{
							"indexed": true,
							"internalType": "address",
							"name": "owner",
							"type": "address"
						},
						{
							"indexed": true,
							"internalType": "address",
							"name": "spender",
							"type": "address"
						},
						{
							"indexed": false,
							"internalType": "uint256",
							"name": "value",
							"type": "uint256"
						}
					],
					"name": "Approval",
					"type": "event"
				},
				{
					"anonymous": false,
					"inputs": [
						{
							"indexed": false,
							"internalType": "uint8",
							"name": "version",
							"type": "uint8"
						}
					],
					"name": "Initialized",
					"type": "event"
				},
				{
					"anonymous": false,
					"inputs": [
						{
							"indexed": false,
							"internalType": "address",
							"name": "minter",
							"type": "address"
						}
					],
					"name": "MinterChanged",
					"type": "event"
				},
				{
					"anonymous": false,
					"inputs": [
						{
							"indexed": true,
							"internalType": "address",
							"name": "previousOwner",
							"type": "address"
						},
						{
							"indexed": true,
							"internalType": "address",
							"name": "newOwner",
							"type": "address"
						}
					],
					"name": "OwnershipTransferred",
					"type": "event"
				},
				{
					"anonymous": false,
					"inputs": [
						{
							"indexed": true,
							"internalType": "address",
							"name": "from",
							"type": "address"
						},
						{
							"indexed": true,
							"internalType": "address",
							"name": "to",
							"type": "address"
						},
						{
							"indexed": false,
							"internalType": "uint256",
							"name": "value",
							"type": "uint256"
						}
					],
					"name": "Transfer",
					"type": "event"
				},
				{
					"inputs": [
						{
							"internalType": "address",
							"name": "owner",
							"type": "address"
						},
						{
							"internalType": "address",
							"name": "spender",
							"type": "address"
						}
					],
					"name": "allowance",
					"outputs": [
						{
							"internalType": "uint256",
							"name": "",
							"type": "uint256"
						}
					],
					"stateMutability": "view",
					"type": "function"
				},
				{
					"inputs": [
						{
							"internalType": "address",
							"name": "spender",
							"type": "address"
						},
						{
							"internalType": "uint256",
							"name": "amount",
							"type": "uint256"
						}
					],
					"name": "approve",
					"outputs": [
						{
							"internalType": "bool",
							"name": "",
							"type": "bool"
						}
					],
					"stateMutability": "nonpayable",
					"type": "function"
				},
				{
					"inputs": [
						{
							"internalType": "address",
							"name": "account",
							"type": "address"
						}
					],
					"name": "balanceOf",
					"outputs": [
						{
							"internalType": "uint256",
							"name": "",
							"type": "uint256"
						}
					],
					"stateMutability": "view",
					"type": "function"
				},
				{
					"inputs": [
						{
							"internalType": "address",
							"name": "account",
							"type": "address"
						},
						{
							"internalType": "uint256",
							"name": "amount",
							"type": "uint256"
						}
					],
					"name": "burn",
					"outputs": [],
					"stateMutability": "nonpayable",
					"type": "function"
				},
				{
					"inputs": [
						{
							"internalType": "address",
							"name": "minter",
							"type": "address"
						}
					],
					"name": "changeMinter",
					"outputs": [],
					"stateMutability": "nonpayable",
					"type": "function"
				},
				{
					"inputs": [],
					"name": "decimals",
					"outputs": [
						{
							"internalType": "uint8",
							"name": "",
							"type": "uint8"
						}
					],
					"stateMutability": "view",
					"type": "function"
				},
				{
					"inputs": [],
					"name": "getMinter",
					"outputs": [
						{
							"internalType": "address",
							"name": "",
							"type": "address"
						}
					],
					"stateMutability": "view",
					"type": "function"
				},
				{
					"inputs": [],
					"name": "initialize",
					"outputs": [],
					"stateMutability": "nonpayable",
					"type": "function"
				},
				{
					"inputs": [
						{
							"internalType": "address",
							"name": "account",
							"type": "address"
						},
						{
							"internalType": "uint256",
							"name": "amount",
							"type": "uint256"
						}
					],
					"name": "mint",
					"outputs": [],
					"stateMutability": "nonpayable",
					"type": "function"
				},
				{
					"inputs": [],
					"name": "name",
					"outputs": [
						{
							"internalType": "string",
							"name": "",
							"type": "string"
						}
					],
					"stateMutability": "view",
					"type": "function"
				},
				{
					"inputs": [],
					"name": "owner",
					"outputs": [
						{
							"internalType": "address",
							"name": "",
							"type": "address"
						}
					],
					"stateMutability": "view",
					"type": "function"
				},
				{
					"inputs": [],
					"name": "renounceOwnership",
					"outputs": [],
					"stateMutability": "nonpayable",
					"type": "function"
				},
				{
					"inputs": [],
					"name": "symbol",
					"outputs": [
						{
							"internalType": "string",
							"name": "",
							"type": "string"
						}
					],
					"stateMutability": "view",
					"type": "function"
				},
				{
					"inputs": [],
					"name": "totalSupply",
					"outputs": [
						{
							"internalType": "uint256",
							"name": "",
							"type": "uint256"
						}
					],
					"stateMutability": "view",
					"type": "function"
				},
				{
					"inputs": [
						{
							"internalType": "address",
							"name": "to",
							"type": "address"
						},
						{
							"internalType": "uint256",
							"name": "amount",
							"type": "uint256"
						}
					],
					"name": "transfer",
					"outputs": [
						{
							"internalType": "bool",
							"name": "",
							"type": "bool"
						}
					],
					"stateMutability": "nonpayable",
					"type": "function"
				},
				{
					"inputs": [
						{
							"internalType": "address",
							"name": "from",
							"type": "address"
						},
						{
							"internalType": "address",
							"name": "to",
							"type": "address"
						},
						{
							"internalType": "uint256",
							"name": "amount",
							"type": "uint256"
						}
					],
					"name": "transferFrom",
					"outputs": [
						{
							"internalType": "bool",
							"name": "",
							"type": "bool"
						}
					],
					"stateMutability": "nonpayable",
					"type": "function"
				},
				{
					"inputs": [
						{
							"internalType": "address",
							"name": "newOwner",
							"type": "address"
						}
					],
					"name": "transferOwnership",
					"outputs": [],
					"stateMutability": "nonpayable",
					"type": "function"
				}
			],
			"devdoc": {
				"kind": "dev",
				"methods": {
					"allowance(address,address)": {
						"details": "See {IERC20-allowance}."
					},
					"approve(address,uint256)": {
						"details": "See {IERC20-approve}. NOTE: If `amount` is the maximum `uint256`, the allowance is not updated on `transferFrom`. This is semantically equivalent to an infinite approval. Requirements: - `spender` cannot be the zero address."
					},
					"balanceOf(address)": {
						"details": "See {IERC20-balanceOf}."
					},
					"decimals()": {
						"details": "Returns the number of decimals used to get its user representation. For example, if `decimals` equals `2`, a balance of `505` tokens should be displayed to a user as `5.05` (`505 / 10 ** 2`). Tokens usually opt for a value of 18, imitating the relationship between Ether and Wei. This is the value {ERC20} uses, unless this function is overridden; NOTE: This information is only used for _display_ purposes: it in no way affects any of the arithmetic of the contract, including {IERC20-balanceOf} and {IERC20-transfer}."
					},
					"name()": {
						"details": "Returns the name of the token."
					},
					"owner()": {
						"details": "Returns the address of the current owner."
					},
					"renounceOwnership()": {
						"details": "Leaves the contract without owner. It will not be possible to call `onlyOwner` functions anymore. Can only be called by the current owner. NOTE: Renouncing ownership will leave the contract without an owner, thereby removing any functionality that is only available to the owner."
					},
					"symbol()": {
						"details": "Returns the symbol of the token, usually a shorter version of the name."
					},
					"totalSupply()": {
						"details": "See {IERC20-totalSupply}."
					},
					"transfer(address,uint256)": {
						"details": "See {IERC20-transfer}. Requirements: - `to` cannot be the zero address. - the caller must have a balance of at least `amount`."
					},
					"transferFrom(address,address,uint256)": {
						"details": "See {IERC20-transferFrom}. Emits an {Approval} event indicating the updated allowance. This is not required by the EIP. See the note at the beginning of {ERC20}. NOTE: Does not update the allowance if the current allowance is the maximum `uint256`. Requirements: - `from` and `to` cannot be the zero address. - `from` must have a balance of at least `amount`. - the caller must have allowance for ``from``'s tokens of at least `amount`."
					},
					"transferOwnership(address)": {
						"details": "Transfers ownership of the contract to a new account (`newOwner`). Can only be called by the current owner."
					}
				},
				"version": 1
			},
			"evm": {
				"assembly": "    /* \"Heliocontracts/contracts/ceros/hBNB.sol\":181:1102  contract hBNB is OwnableUpgradeable, NonTransferableERC20 {... */\n  mstore(0x40, 0x80)\n  callvalue\n  dup1\n  iszero\n  tag_1\n  jumpi\n  0x00\n  dup1\n  revert\ntag_1:\n  pop\n  dataSize(sub_0)\n  dup1\n  dataOffset(sub_0)\n  0x00\n  codecopy\n  0x00\n  return\nstop\n\nsub_0: assembly {\n        /* \"Heliocontracts/contracts/ceros/hBNB.sol\":181:1102  contract hBNB is OwnableUpgradeable, NonTransferableERC20 {... */\n      mstore(0x40, 0x80)\n      callvalue\n      dup1\n      iszero\n      tag_1\n      jumpi\n      0x00\n      dup1\n      revert\n    tag_1:\n      pop\n      jumpi(tag_2, lt(calldatasize, 0x04))\n      shr(0xe0, calldataload(0x00))\n      dup1\n      0x715018a6\n      gt\n      tag_20\n      jumpi\n      dup1\n      0x9dc29fac\n      gt\n      tag_21\n      jumpi\n      dup1\n      0x9dc29fac\n      eq\n      tag_15\n      jumpi\n      dup1\n      0xa9059cbb\n      eq\n      tag_4\n      jumpi\n      dup1\n      0xdd62ed3e\n      eq\n      tag_17\n      jumpi\n      dup1\n      0xf2fde38b\n      eq\n      tag_18\n      jumpi\n      dup1\n      0xf3667517\n      eq\n      tag_19\n      jumpi\n      0x00\n      dup1\n      revert\n    tag_21:\n      dup1\n      0x715018a6\n      eq\n      tag_11\n      jumpi\n      dup1\n      0x8129fc1c\n      eq\n      tag_12\n      jumpi\n      dup1\n      0x8da5cb5b\n      eq\n      tag_13\n      jumpi\n      dup1\n      0x95d89b41\n      eq\n      tag_14\n      jumpi\n      0x00\n      dup1\n      revert\n    tag_20:\n      dup1\n      0x2c4d4d18\n      gt\n      tag_22\n      jumpi\n      dup1\n      0x2c4d4d18\n      eq\n      tag_7\n      jumpi\n      dup1\n      0x313ce567\n      eq\n      tag_8\n      jumpi\n      dup1\n      0x40c10f19\n      eq\n      tag_9\n      jumpi\n      dup1\n      0x70a08231\n      eq\n      tag_10\n      jumpi\n      0x00\n      dup1\n      revert\n    tag_22:\n      dup1\n      0x06fdde03\n      eq\n      tag_3\n      jumpi\n      dup1\n      0x095ea7b3\n      eq\n      tag_4\n      jumpi\n      dup1\n      0x18160ddd\n      eq\n      tag_5\n      jumpi\n      dup1\n      0x23b872dd\n      eq\n      tag_6\n      jumpi\n    tag_2:\n      0x00\n      dup1\n      revert\n        /* \"Heliocontracts/contracts/ceros/NonTransferableERC20.sol\":1466:1555  function name() public view virtual returns (string memory) {... */\n    tag_3:\n      tag_23\n      tag_24\n      jump\t// in\n    tag_23:\n      mload(0x40)\n      tag_25\n      swap2\n      swap1\n      tag_26\n      jump\t// in\n    tag_25:\n      mload(0x40)\n      dup1\n      swap2\n      sub\n      swap1\n      return\n        /* \"Heliocontracts/contracts/ceros/NonTransferableERC20.sol\":3716:3868  function approve(address spender, uint256 amount)... */\n    tag_4:\n      tag_27\n      tag_28\n      calldatasize\n      0x04\n      tag_29\n      jump\t// in\n    tag_28:\n      tag_30\n      jump\t// in\n    tag_27:\n      mload(0x40)\n        /* \"#utility.yul\":1218:1232   */\n      swap1\n      iszero\n        /* \"#utility.yul\":1211:1233   */\n      iszero\n        /* \"#utility.yul\":1193:1234   */\n      dup2\n      mstore\n        /* \"#utility.yul\":1181:1183   */\n      0x20\n        /* \"#utility.yul\":1166:1184   */\n      add\n        /* \"Heliocontracts/contracts/ceros/NonTransferableERC20.sol\":3716:3868  function approve(address spender, uint256 amount)... */\n      tag_25\n        /* \"#utility.yul\":1053:1240   */\n      jump\n        /* \"Heliocontracts/contracts/ceros/NonTransferableERC20.sol\":2524:2630  function totalSupply() public view virtual override returns (uint256) {... */\n    tag_5:\n        /* \"Heliocontracts/contracts/ceros/NonTransferableERC20.sol\":2611:2623  _totalSupply */\n      sload(0x67)\n        /* \"Heliocontracts/contracts/ceros/NonTransferableERC20.sol\":2524:2630  function totalSupply() public view virtual override returns (uint256) {... */\n    tag_33:\n      mload(0x40)\n        /* \"#utility.yul\":1391:1416   */\n      swap1\n      dup2\n      mstore\n        /* \"#utility.yul\":1379:1381   */\n      0x20\n        /* \"#utility.yul\":1364:1382   */\n      add\n        /* \"Heliocontracts/contracts/ceros/NonTransferableERC20.sol\":2524:2630  function totalSupply() public view virtual override returns (uint256) {... */\n      tag_25\n        /* \"#utility.yul\":1245:1422   */\n      jump\n        /* \"Heliocontracts/contracts/ceros/NonTransferableERC20.sol\":4429:4605  function transferFrom(... */\n    tag_6:\n      tag_27\n      tag_28\n      calldatasize\n      0x04\n      tag_39\n      jump\t// in\n        /* \"Heliocontracts/contracts/ceros/hBNB.sol\":884:1010  function changeMinter(address minter) external onlyOwner {... */\n    tag_7:\n      tag_42\n      tag_43\n      calldatasize\n      0x04\n      tag_44\n      jump\t// in\n    tag_43:\n      tag_45\n      jump\t// in\n    tag_42:\n      stop\n        /* \"Heliocontracts/contracts/ceros/NonTransferableERC20.sol\":2383:2465  function decimals() public view virtual returns (uint8) {... */\n    tag_8:\n      mload(0x40)\n        /* \"Heliocontracts/contracts/ceros/NonTransferableERC20.sol\":2456:2458  18 */\n      0x12\n        /* \"#utility.yul\":2093:2129   */\n      dup2\n      mstore\n        /* \"#utility.yul\":2081:2083   */\n      0x20\n        /* \"#utility.yul\":2066:2084   */\n      add\n        /* \"Heliocontracts/contracts/ceros/NonTransferableERC20.sol\":2383:2465  function decimals() public view virtual returns (uint8) {... */\n      tag_25\n        /* \"#utility.yul\":1951:2135   */\n      jump\n        /* \"Heliocontracts/contracts/ceros/hBNB.sol\":772:878  function mint(address account, uint256 amount) external onlyMinter {... */\n    tag_9:\n      tag_42\n      tag_51\n      calldatasize\n      0x04\n      tag_29\n      jump\t// in\n    tag_51:\n      tag_52\n      jump\t// in\n        /* \"Heliocontracts/contracts/ceros/NonTransferableERC20.sol\":2687:2836  function balanceOf(address account)... */\n    tag_10:\n      tag_33\n      tag_54\n      calldatasize\n      0x04\n      tag_44\n      jump\t// in\n    tag_54:\n      sub(shl(0xa0, 0x01), 0x01)\n        /* \"Heliocontracts/contracts/ceros/NonTransferableERC20.sol\":2811:2829  _balances[account] */\n      and\n        /* \"Heliocontracts/contracts/ceros/NonTransferableERC20.sol\":2781:2788  uint256 */\n      0x00\n        /* \"Heliocontracts/contracts/ceros/NonTransferableERC20.sol\":2811:2829  _balances[account] */\n      swap1\n      dup2\n      mstore\n        /* \"Heliocontracts/contracts/ceros/NonTransferableERC20.sol\":2811:2820  _balances */\n      0x65\n        /* \"Heliocontracts/contracts/ceros/NonTransferableERC20.sol\":2811:2829  _balances[account] */\n      0x20\n      mstore\n      0x40\n      swap1\n      keccak256\n      sload\n      swap1\n        /* \"Heliocontracts/contracts/ceros/NonTransferableERC20.sol\":2687:2836  function balanceOf(address account)... */\n      jump\n        /* \"@openzeppelin/contracts-upgradeable/access/OwnableUpgradeable.sol\":2071:2172  function renounceOwnership() public virtual onlyOwner {... */\n    tag_11:\n      tag_42\n      tag_58\n      jump\t// in\n        /* \"Heliocontracts/contracts/ceros/hBNB.sol\":525:654  function initialize() external initializer {... */\n    tag_12:\n      tag_42\n      tag_60\n      jump\t// in\n        /* \"@openzeppelin/contracts-upgradeable/access/OwnableUpgradeable.sol\":1441:1526  function owner() public view virtual returns (address) {... */\n    tag_13:\n        /* \"@openzeppelin/contracts-upgradeable/access/OwnableUpgradeable.sol\":1513:1519  _owner */\n      and(sub(shl(0xa0, 0x01), 0x01), sload(0x33))\n        /* \"@openzeppelin/contracts-upgradeable/access/OwnableUpgradeable.sol\":1441:1526  function owner() public view virtual returns (address) {... */\n    tag_61:\n      mload(0x40)\n      sub(shl(0xa0, 0x01), 0x01)\n        /* \"#utility.yul\":2304:2336   */\n      swap1\n      swap2\n      and\n        /* \"#utility.yul\":2286:2337   */\n      dup2\n      mstore\n        /* \"#utility.yul\":2274:2276   */\n      0x20\n        /* \"#utility.yul\":2259:2277   */\n      add\n        /* \"@openzeppelin/contracts-upgradeable/access/OwnableUpgradeable.sol\":1441:1526  function owner() public view virtual returns (address) {... */\n      tag_25\n        /* \"#utility.yul\":2140:2343   */\n      jump\n        /* \"Heliocontracts/contracts/ceros/NonTransferableERC20.sol\":1667:1760  function symbol() public view virtual returns (string memory) {... */\n    tag_14:\n      tag_23\n      tag_66\n      jump\t// in\n        /* \"Heliocontracts/contracts/ceros/hBNB.sol\":660:766  function burn(address account, uint256 amount) external onlyMinter {... */\n    tag_15:\n      tag_42\n      tag_69\n      calldatasize\n      0x04\n      tag_29\n      jump\t// in\n    tag_69:\n      tag_70\n      jump\t// in\n        /* \"Heliocontracts/contracts/ceros/NonTransferableERC20.sol\":3236:3409  function allowance(address owner, address spender)... */\n    tag_17:\n      tag_33\n      tag_76\n      calldatasize\n      0x04\n      tag_77\n      jump\t// in\n    tag_76:\n      sub(shl(0xa0, 0x01), 0x01)\n        /* \"Heliocontracts/contracts/ceros/NonTransferableERC20.sol\":3375:3393  _allowances[owner] */\n      swap2\n      dup3\n      and\n        /* \"Heliocontracts/contracts/ceros/NonTransferableERC20.sol\":3345:3352  uint256 */\n      0x00\n        /* \"Heliocontracts/contracts/ceros/NonTransferableERC20.sol\":3375:3393  _allowances[owner] */\n      swap1\n      dup2\n      mstore\n        /* \"Heliocontracts/contracts/ceros/NonTransferableERC20.sol\":3375:3386  _allowances */\n      0x66\n        /* \"Heliocontracts/contracts/ceros/NonTransferableERC20.sol\":3375:3393  _allowances[owner] */\n      0x20\n      swap1\n      dup2\n      mstore\n      0x40\n      dup1\n      dup4\n      keccak256\n        /* \"Heliocontracts/contracts/ceros/NonTransferableERC20.sol\":3375:3402  _allowances[owner][spender] */\n      swap4\n      swap1\n      swap5\n      and\n      dup3\n      mstore\n      swap2\n      swap1\n      swap2\n      mstore\n      keccak256\n      sload\n      swap1\n        /* \"Heliocontracts/contracts/ceros/NonTransferableERC20.sol\":3236:3409  function allowance(address owner, address spender)... */\n      jump\n        /* \"@openzeppelin/contracts-upgradeable/access/OwnableUpgradeable.sol\":2321:2519  function transferOwnership(address newOwner) public virtual onlyOwner {... */\n    tag_18:\n      tag_42\n      tag_81\n      calldatasize\n      0x04\n      tag_44\n      jump\t// in\n    tag_81:\n      tag_82\n      jump\t// in\n        /* \"Heliocontracts/contracts/ceros/hBNB.sol\":1016:1100  function getMinter() external view returns (address) {... */\n    tag_19:\n        /* \"Heliocontracts/contracts/ceros/hBNB.sol\":1086:1093  _minter */\n      and(sub(shl(0xa0, 0x01), 0x01), sload(0x97))\n        /* \"Heliocontracts/contracts/ceros/hBNB.sol\":1016:1100  function getMinter() external view returns (address) {... */\n      jump(tag_61)\n        /* \"Heliocontracts/contracts/ceros/NonTransferableERC20.sol\":1466:1555  function name() public view virtual returns (string memory) {... */\n    tag_24:\n        /* \"Heliocontracts/contracts/ceros/NonTransferableERC20.sol\":1511:1524  string memory */\n      0x60\n        /* \"Heliocontracts/contracts/ceros/NonTransferableERC20.sol\":1543:1548  _name */\n      0x68\n        /* \"Heliocontracts/contracts/ceros/NonTransferableERC20.sol\":1536:1548  return _name */\n      dup1\n      sload\n      tag_87\n      swap1\n      tag_88\n      jump\t// in\n    tag_87:\n      dup1\n      0x1f\n      add\n      0x20\n      dup1\n      swap2\n      div\n      mul\n      0x20\n      add\n      mload(0x40)\n      swap1\n      dup2\n      add\n      0x40\n      mstore\n      dup1\n      swap3\n      swap2\n      swap1\n      dup2\n      dup2\n      mstore\n      0x20\n      add\n      dup3\n      dup1\n      sload\n      tag_89\n      swap1\n      tag_88\n      jump\t// in\n    tag_89:\n      dup1\n      iszero\n      tag_90\n      jumpi\n      dup1\n      0x1f\n      lt\n      tag_91\n      jumpi\n      0x0100\n      dup1\n      dup4\n      sload\n      div\n      mul\n      dup4\n      mstore\n      swap2\n      0x20\n      add\n      swap2\n      jump(tag_90)\n    tag_91:\n      dup3\n      add\n      swap2\n      swap1\n      0x00\n      mstore\n      keccak256(0x00, 0x20)\n      swap1\n    tag_92:\n      dup2\n      sload\n      dup2\n      mstore\n      swap1\n      0x01\n      add\n      swap1\n      0x20\n      add\n      dup1\n      dup4\n      gt\n      tag_92\n      jumpi\n      dup3\n      swap1\n      sub\n      0x1f\n      and\n      dup3\n      add\n      swap2\n    tag_90:\n      pop\n      pop\n      pop\n      pop\n      pop\n      swap1\n      pop\n        /* \"Heliocontracts/contracts/ceros/NonTransferableERC20.sol\":1466:1555  function name() public view virtual returns (string memory) {... */\n      swap1\n      jump\t// out\n        /* \"Heliocontracts/contracts/ceros/NonTransferableERC20.sol\":3716:3868  function approve(address spender, uint256 amount)... */\n    tag_30:\n        /* \"Heliocontracts/contracts/ceros/NonTransferableERC20.sol\":3835:3861  revert(\"Not transferable\") */\n      mload(0x40)\n      shl(0xe5, 0x461bcd)\n      dup2\n      mstore\n        /* \"#utility.yul\":3200:3202   */\n      0x20\n        /* \"Heliocontracts/contracts/ceros/NonTransferableERC20.sol\":3835:3861  revert(\"Not transferable\") */\n      0x04\n      dup3\n      add\n        /* \"#utility.yul\":3182:3203   */\n      mstore\n        /* \"#utility.yul\":3239:3241   */\n      0x10\n        /* \"#utility.yul\":3219:3237   */\n      0x24\n      dup3\n      add\n        /* \"#utility.yul\":3212:3242   */\n      mstore\n      shl(0x80, 0x4e6f74207472616e7366657261626c65)\n        /* \"#utility.yul\":3258:3276   */\n      0x44\n      dup3\n      add\n        /* \"#utility.yul\":3251:3297   */\n      mstore\n        /* \"Heliocontracts/contracts/ceros/NonTransferableERC20.sol\":3815:3819  bool */\n      0x00\n      swap1\n        /* \"#utility.yul\":3314:3332   */\n      0x64\n      add\n        /* \"Heliocontracts/contracts/ceros/NonTransferableERC20.sol\":3835:3861  revert(\"Not transferable\") */\n    tag_94:\n      mload(0x40)\n      dup1\n      swap2\n      sub\n      swap1\n      revert\n        /* \"Heliocontracts/contracts/ceros/hBNB.sol\":884:1010  function changeMinter(address minter) external onlyOwner {... */\n    tag_45:\n        /* \"@openzeppelin/contracts-upgradeable/access/OwnableUpgradeable.sol\":1334:1347  _checkOwner() */\n      tag_100\n        /* \"@openzeppelin/contracts-upgradeable/access/OwnableUpgradeable.sol\":1334:1345  _checkOwner */\n      tag_101\n        /* \"@openzeppelin/contracts-upgradeable/access/OwnableUpgradeable.sol\":1334:1347  _checkOwner() */\n      jump\t// in\n    tag_100:\n        /* \"Heliocontracts/contracts/ceros/hBNB.sol\":951:958  _minter */\n      0x97\n        /* \"Heliocontracts/contracts/ceros/hBNB.sol\":951:967  _minter = minter */\n      dup1\n      sload\n      not(sub(shl(0xa0, 0x01), 0x01))\n      and\n      sub(shl(0xa0, 0x01), 0x01)\n      dup4\n      and\n      swap1\n      dup2\n      or\n      swap1\n      swap2\n      sstore\n        /* \"Heliocontracts/contracts/ceros/hBNB.sol\":982:1003  MinterChanged(minter) */\n      mload(0x40)\n        /* \"#utility.yul\":2286:2337   */\n      swap1\n      dup2\n      mstore\n        /* \"Heliocontracts/contracts/ceros/hBNB.sol\":982:1003  MinterChanged(minter) */\n      0xb6b8f1859c5c352e5ffad07d0f77e384ac725512c015bd3a3ffc885831c8a425\n      swap1\n        /* \"#utility.yul\":2274:2276   */\n      0x20\n        /* \"#utility.yul\":2259:2277   */\n      add\n        /* \"Heliocontracts/contracts/ceros/hBNB.sol\":982:1003  MinterChanged(minter) */\n    tag_103:\n      mload(0x40)\n      dup1\n      swap2\n      sub\n      swap1\n      log1\n        /* \"Heliocontracts/contracts/ceros/hBNB.sol\":884:1010  function changeMinter(address minter) external onlyOwner {... */\n      pop\n      jump\t// out\n        /* \"Heliocontracts/contracts/ceros/hBNB.sol\":772:878  function mint(address account, uint256 amount) external onlyMinter {... */\n    tag_52:\n        /* \"Heliocontracts/contracts/ceros/hBNB.sol\":470:477  _minter */\n      and(sub(shl(0xa0, 0x01), 0x01), sload(0x97))\n        /* \"Heliocontracts/contracts/ceros/hBNB.sol\":456:466  msg.sender */\n      caller\n        /* \"Heliocontracts/contracts/ceros/hBNB.sol\":456:477  msg.sender == _minter */\n      eq\n        /* \"Heliocontracts/contracts/ceros/hBNB.sol\":448:501  require(msg.sender == _minter, \"Minter: not allowed\") */\n      tag_106\n      jumpi\n      mload(0x40)\n      shl(0xe5, 0x461bcd)\n      dup2\n      mstore\n        /* \"#utility.yul\":3545:3547   */\n      0x20\n        /* \"Heliocontracts/contracts/ceros/hBNB.sol\":448:501  require(msg.sender == _minter, \"Minter: not allowed\") */\n      0x04\n      dup3\n      add\n        /* \"#utility.yul\":3527:3548   */\n      mstore\n        /* \"#utility.yul\":3584:3586   */\n      0x13\n        /* \"#utility.yul\":3564:3582   */\n      0x24\n      dup3\n      add\n        /* \"#utility.yul\":3557:3587   */\n      mstore\n      shl(0x6a, 0x135a5b9d195c8e881b9bdd08185b1b1bddd959)\n        /* \"#utility.yul\":3603:3621   */\n      0x44\n      dup3\n      add\n        /* \"#utility.yul\":3596:3645   */\n      mstore\n        /* \"#utility.yul\":3662:3680   */\n      0x64\n      add\n        /* \"Heliocontracts/contracts/ceros/hBNB.sol\":448:501  require(msg.sender == _minter, \"Minter: not allowed\") */\n      tag_94\n        /* \"#utility.yul\":3343:3686   */\n      jump\n        /* \"Heliocontracts/contracts/ceros/hBNB.sol\":448:501  require(msg.sender == _minter, \"Minter: not allowed\") */\n    tag_106:\n        /* \"Heliocontracts/contracts/ceros/hBNB.sol\":849:871  _mint(account, amount) */\n      tag_110\n        /* \"Heliocontracts/contracts/ceros/hBNB.sol\":855:862  account */\n      dup3\n        /* \"Heliocontracts/contracts/ceros/hBNB.sol\":864:870  amount */\n      dup3\n        /* \"Heliocontracts/contracts/ceros/hBNB.sol\":849:854  _mint */\n      tag_111\n        /* \"Heliocontracts/contracts/ceros/hBNB.sol\":849:871  _mint(account, amount) */\n      jump\t// in\n    tag_110:\n        /* \"Heliocontracts/contracts/ceros/hBNB.sol\":772:878  function mint(address account, uint256 amount) external onlyMinter {... */\n      pop\n      pop\n      jump\t// out\n        /* \"@openzeppelin/contracts-upgradeable/access/OwnableUpgradeable.sol\":2071:2172  function renounceOwnership() public virtual onlyOwner {... */\n    tag_58:\n        /* \"@openzeppelin/contracts-upgradeable/access/OwnableUpgradeable.sol\":1334:1347  _checkOwner() */\n      tag_114\n        /* \"@openzeppelin/contracts-upgradeable/access/OwnableUpgradeable.sol\":1334:1345  _checkOwner */\n      tag_101\n        /* \"@openzeppelin/contracts-upgradeable/access/OwnableUpgradeable.sol\":1334:1347  _checkOwner() */\n      jump\t// in\n    tag_114:\n        /* \"@openzeppelin/contracts-upgradeable/access/OwnableUpgradeable.sol\":2135:2165  _transferOwnership(address(0)) */\n      tag_116\n        /* \"@openzeppelin/contracts-upgradeable/access/OwnableUpgradeable.sol\":2162:2163  0 */\n      0x00\n        /* \"@openzeppelin/contracts-upgradeable/access/OwnableUpgradeable.sol\":2135:2153  _transferOwnership */\n      tag_117\n        /* \"@openzeppelin/contracts-upgradeable/access/OwnableUpgradeable.sol\":2135:2165  _transferOwnership(address(0)) */\n      jump\t// in\n    tag_116:\n        /* \"@openzeppelin/contracts-upgradeable/access/OwnableUpgradeable.sol\":2071:2172  function renounceOwnership() public virtual onlyOwner {... */\n      jump\t// out\n        /* \"Heliocontracts/contracts/ceros/hBNB.sol\":525:654  function initialize() external initializer {... */\n    tag_60:\n        /* \"@openzeppelin/contracts-upgradeable/proxy/utils/Initializable.sol\":3111:3130  bool isTopLevelCall */\n      0x00\n        /* \"@openzeppelin/contracts-upgradeable/proxy/utils/Initializable.sol\":3134:3147  _initializing */\n      sload\n      0x0100\n      swap1\n      div\n      0xff\n      and\n        /* \"@openzeppelin/contracts-upgradeable/proxy/utils/Initializable.sol\":3133:3147  !_initializing */\n      iszero\n      dup1\n        /* \"@openzeppelin/contracts-upgradeable/proxy/utils/Initializable.sol\":3179:3213  isTopLevelCall && _initialized < 1 */\n      dup1\n      iszero\n      tag_119\n      jumpi\n      pop\n        /* \"@openzeppelin/contracts-upgradeable/proxy/utils/Initializable.sol\":3197:3209  _initialized */\n      sload(0x00)\n        /* \"@openzeppelin/contracts-upgradeable/proxy/utils/Initializable.sol\":3212:3213  1 */\n      0x01\n        /* \"@openzeppelin/contracts-upgradeable/proxy/utils/Initializable.sol\":3197:3209  _initialized */\n      0xff\n      swap1\n      swap2\n      and\n        /* \"@openzeppelin/contracts-upgradeable/proxy/utils/Initializable.sol\":3197:3213  _initialized < 1 */\n      lt\n        /* \"@openzeppelin/contracts-upgradeable/proxy/utils/Initializable.sol\":3179:3213  isTopLevelCall && _initialized < 1 */\n    tag_119:\n        /* \"@openzeppelin/contracts-upgradeable/proxy/utils/Initializable.sol\":3178:3286  (isTopLevelCall && _initialized < 1) || (!AddressUpgradeable.isContract(address(this)) && _initialized == 1) */\n      dup1\n      tag_123\n      jumpi\n      pop\n        /* \"@openzeppelin/contracts-upgradeable/proxy/utils/Initializable.sol\":3258:3262  this */\n      address\n        /* \"@openzeppelin/contracts-upgradeable/utils/AddressUpgradeable.sol\":1476:1495  account.code.length */\n      extcodesize\n        /* \"@openzeppelin/contracts-upgradeable/utils/AddressUpgradeable.sol\":1476:1499  account.code.length > 0 */\n      iszero\n      dup1\n      iszero\n        /* \"@openzeppelin/contracts-upgradeable/proxy/utils/Initializable.sol\":3219:3285  !AddressUpgradeable.isContract(address(this)) && _initialized == 1 */\n      tag_123\n      jumpi\n      pop\n        /* \"@openzeppelin/contracts-upgradeable/proxy/utils/Initializable.sol\":3268:3280  _initialized */\n      and(0xff, sload(0x00))\n      0x01\n        /* \"@openzeppelin/contracts-upgradeable/proxy/utils/Initializable.sol\":3268:3285  _initialized == 1 */\n      eq\n        /* \"@openzeppelin/contracts-upgradeable/proxy/utils/Initializable.sol\":3219:3285  !AddressUpgradeable.isContract(address(this)) && _initialized == 1 */\n    tag_123:\n        /* \"@openzeppelin/contracts-upgradeable/proxy/utils/Initializable.sol\":3157:3358  require(... */\n      tag_124\n      jumpi\n      mload(0x40)\n      shl(0xe5, 0x461bcd)\n      dup2\n      mstore\n        /* \"#utility.yul\":3893:3895   */\n      0x20\n        /* \"@openzeppelin/contracts-upgradeable/proxy/utils/Initializable.sol\":3157:3358  require(... */\n      0x04\n      dup3\n      add\n        /* \"#utility.yul\":3875:3896   */\n      mstore\n        /* \"#utility.yul\":3932:3934   */\n      0x2e\n        /* \"#utility.yul\":3912:3930   */\n      0x24\n      dup3\n      add\n        /* \"#utility.yul\":3905:3935   */\n      mstore\n        /* \"#utility.yul\":3971:4005   */\n      0x496e697469616c697a61626c653a20636f6e747261637420697320616c726561\n        /* \"#utility.yul\":3951:3969   */\n      0x44\n      dup3\n      add\n        /* \"#utility.yul\":3944:4006   */\n      mstore\n      shl(0x92, 0x191e481a5b9a5d1a585b1a5e9959)\n        /* \"#utility.yul\":4022:4040   */\n      0x64\n      dup3\n      add\n        /* \"#utility.yul\":4015:4059   */\n      mstore\n        /* \"#utility.yul\":4076:4095   */\n      0x84\n      add\n        /* \"@openzeppelin/contracts-upgradeable/proxy/utils/Initializable.sol\":3157:3358  require(... */\n      tag_94\n        /* \"#utility.yul\":3691:4101   */\n      jump\n        /* \"@openzeppelin/contracts-upgradeable/proxy/utils/Initializable.sol\":3157:3358  require(... */\n    tag_124:\n        /* \"@openzeppelin/contracts-upgradeable/proxy/utils/Initializable.sol\":3368:3380  _initialized */\n      0x00\n        /* \"@openzeppelin/contracts-upgradeable/proxy/utils/Initializable.sol\":3368:3384  _initialized = 1 */\n      dup1\n      sload\n      not(0xff)\n      and\n        /* \"@openzeppelin/contracts-upgradeable/proxy/utils/Initializable.sol\":3383:3384  1 */\n      0x01\n        /* \"@openzeppelin/contracts-upgradeable/proxy/utils/Initializable.sol\":3368:3384  _initialized = 1 */\n      or\n      swap1\n      sstore\n        /* \"@openzeppelin/contracts-upgradeable/proxy/utils/Initializable.sol\":3394:3459  if (isTopLevelCall) {... */\n      dup1\n      iszero\n      tag_127\n      jumpi\n        /* \"@openzeppelin/contracts-upgradeable/proxy/utils/Initializable.sol\":3428:3441  _initializing */\n      0x00\n        /* \"@openzeppelin/contracts-upgradeable/proxy/utils/Initializable.sol\":3428:3448  _initializing = true */\n      dup1\n      sload\n      not(0xff00)\n      and\n      0x0100\n      or\n      swap1\n      sstore\n        /* \"@openzeppelin/contracts-upgradeable/proxy/utils/Initializable.sol\":3394:3459  if (isTopLevelCall) {... */\n    tag_127:\n        /* \"Heliocontracts/contracts/ceros/hBNB.sol\":578:594  __Ownable_init() */\n      tag_129\n        /* \"Heliocontracts/contracts/ceros/hBNB.sol\":578:592  __Ownable_init */\n      tag_130\n        /* \"Heliocontracts/contracts/ceros/hBNB.sol\":578:594  __Ownable_init() */\n      jump\t// in\n    tag_129:\n        /* \"Heliocontracts/contracts/ceros/hBNB.sol\":604:647  __ERC20_init_unchained(\"Helio BNB\", \"hBNB\") */\n      tag_131\n      mload(0x40)\n      dup1\n      0x40\n      add\n      0x40\n      mstore\n      dup1\n      0x09\n      dup2\n      mstore\n      0x20\n      add\n      shl(0xb9, 0x2432b634b790212721)\n      dup2\n      mstore\n      pop\n      mload(0x40)\n      dup1\n      0x40\n      add\n      0x40\n      mstore\n      dup1\n      0x04\n      dup2\n      mstore\n      0x20\n      add\n      shl(0xe1, 0x34212721)\n      dup2\n      mstore\n      pop\n        /* \"Heliocontracts/contracts/ceros/hBNB.sol\":604:626  __ERC20_init_unchained */\n      tag_132\n        /* \"Heliocontracts/contracts/ceros/hBNB.sol\":604:647  __ERC20_init_unchained(\"Helio BNB\", \"hBNB\") */\n      jump\t// in\n    tag_131:\n        /* \"@openzeppelin/contracts-upgradeable/proxy/utils/Initializable.sol\":3483:3497  isTopLevelCall */\n      dup1\n        /* \"@openzeppelin/contracts-upgradeable/proxy/utils/Initializable.sol\":3479:3578  if (isTopLevelCall) {... */\n      iszero\n      tag_133\n      jumpi\n        /* \"@openzeppelin/contracts-upgradeable/proxy/utils/Initializable.sol\":3529:3534  false */\n      0x00\n        /* \"@openzeppelin/contracts-upgradeable/proxy/utils/Initializable.sol\":3513:3534  _initializing = false */\n      dup1\n      sload\n      not(0xff00)\n      and\n      swap1\n      sstore\n        /* \"@openzeppelin/contracts-upgradeable/proxy/utils/Initializable.sol\":3553:3567  Initialized(1) */\n      mload(0x40)\n      0x01\n        /* \"#utility.yul\":2093:2129   */\n      dup2\n      mstore\n        /* \"@openzeppelin/contracts-upgradeable/proxy/utils/Initializable.sol\":3553:3567  Initialized(1) */\n      0x7f26b83ff96e1f2b6a682f133852f6798a09c465da95921460cefb3847402498\n      swap1\n        /* \"#utility.yul\":2081:2083   */\n      0x20\n        /* \"#utility.yul\":2066:2084   */\n      add\n        /* \"@openzeppelin/contracts-upgradeable/proxy/utils/Initializable.sol\":3553:3567  Initialized(1) */\n      tag_103\n        /* \"#utility.yul\":1951:2135   */\n      jump\n        /* \"@openzeppelin/contracts-upgradeable/proxy/utils/Initializable.sol\":3479:3578  if (isTopLevelCall) {... */\n    tag_133:\n        /* \"@openzeppelin/contracts-upgradeable/proxy/utils/Initializable.sol\":3101:3584  {... */\n      pop\n        /* \"Heliocontracts/contracts/ceros/hBNB.sol\":525:654  function initialize() external initializer {... */\n      jump\t// out\n        /* \"Heliocontracts/contracts/ceros/NonTransferableERC20.sol\":1667:1760  function symbol() public view virtual returns (string memory) {... */\n    tag_66:\n        /* \"Heliocontracts/contracts/ceros/NonTransferableERC20.sol\":1714:1727  string memory */\n      0x60\n        /* \"Heliocontracts/contracts/ceros/NonTransferableERC20.sol\":1746:1753  _symbol */\n      0x69\n        /* \"Heliocontracts/contracts/ceros/NonTransferableERC20.sol\":1739:1753  return _symbol */\n      dup1\n      sload\n      tag_87\n      swap1\n      tag_88\n      jump\t// in\n        /* \"Heliocontracts/contracts/ceros/hBNB.sol\":660:766  function burn(address account, uint256 amount) external onlyMinter {... */\n    tag_70:\n        /* \"Heliocontracts/contracts/ceros/hBNB.sol\":470:477  _minter */\n      and(sub(shl(0xa0, 0x01), 0x01), sload(0x97))\n        /* \"Heliocontracts/contracts/ceros/hBNB.sol\":456:466  msg.sender */\n      caller\n        /* \"Heliocontracts/contracts/ceros/hBNB.sol\":456:477  msg.sender == _minter */\n      eq\n        /* \"Heliocontracts/contracts/ceros/hBNB.sol\":448:501  require(msg.sender == _minter, \"Minter: not allowed\") */\n      tag_144\n      jumpi\n      mload(0x40)\n      shl(0xe5, 0x461bcd)\n      dup2\n      mstore\n        /* \"#utility.yul\":3545:3547   */\n      0x20\n        /* \"Heliocontracts/contracts/ceros/hBNB.sol\":448:501  require(msg.sender == _minter, \"Minter: not allowed\") */\n      0x04\n      dup3\n      add\n        /* \"#utility.yul\":3527:3548   */\n      mstore\n        /* \"#utility.yul\":3584:3586   */\n      0x13\n        /* \"#utility.yul\":3564:3582   */\n      0x24\n      dup3\n      add\n        /* \"#utility.yul\":3557:3587   */\n      mstore\n      shl(0x6a, 0x135a5b9d195c8e881b9bdd08185b1b1bddd959)\n        /* \"#utility.yul\":3603:3621   */\n      0x44\n      dup3\n      add\n        /* \"#utility.yul\":3596:3645   */\n      mstore\n        /* \"#utility.yul\":3662:3680   */\n      0x64\n      add\n        /* \"Heliocontracts/contracts/ceros/hBNB.sol\":448:501  require(msg.sender == _minter, \"Minter: not allowed\") */\n      tag_94\n        /* \"#utility.yul\":3343:3686   */\n      jump\n        /* \"Heliocontracts/contracts/ceros/hBNB.sol\":448:501  require(msg.sender == _minter, \"Minter: not allowed\") */\n    tag_144:\n        /* \"Heliocontracts/contracts/ceros/hBNB.sol\":737:759  _burn(account, amount) */\n      tag_110\n        /* \"Heliocontracts/contracts/ceros/hBNB.sol\":743:750  account */\n      dup3\n        /* \"Heliocontracts/contracts/ceros/hBNB.sol\":752:758  amount */\n      dup3\n        /* \"Heliocontracts/contracts/ceros/hBNB.sol\":737:742  _burn */\n      tag_148\n        /* \"Heliocontracts/contracts/ceros/hBNB.sol\":737:759  _burn(account, amount) */\n      jump\t// in\n        /* \"@openzeppelin/contracts-upgradeable/access/OwnableUpgradeable.sol\":2321:2519  function transferOwnership(address newOwner) public virtual onlyOwner {... */\n    tag_82:\n        /* \"@openzeppelin/contracts-upgradeable/access/OwnableUpgradeable.sol\":1334:1347  _checkOwner() */\n      tag_153\n        /* \"@openzeppelin/contracts-upgradeable/access/OwnableUpgradeable.sol\":1334:1345  _checkOwner */\n      tag_101\n        /* \"@openzeppelin/contracts-upgradeable/access/OwnableUpgradeable.sol\":1334:1347  _checkOwner() */\n      jump\t// in\n    tag_153:\n      sub(shl(0xa0, 0x01), 0x01)\n        /* \"@openzeppelin/contracts-upgradeable/access/OwnableUpgradeable.sol\":2409:2431  newOwner != address(0) */\n      dup2\n      and\n        /* \"@openzeppelin/contracts-upgradeable/access/OwnableUpgradeable.sol\":2401:2474  require(newOwner != address(0), \"Ownable: new owner is the zero address\") */\n      tag_155\n      jumpi\n      mload(0x40)\n      shl(0xe5, 0x461bcd)\n      dup2\n      mstore\n        /* \"#utility.yul\":4507:4509   */\n      0x20\n        /* \"@openzeppelin/contracts-upgradeable/access/OwnableUpgradeable.sol\":2401:2474  require(newOwner != address(0), \"Ownable: new owner is the zero address\") */\n      0x04\n      dup3\n      add\n        /* \"#utility.yul\":4489:4510   */\n      mstore\n        /* \"#utility.yul\":4546:4548   */\n      0x26\n        /* \"#utility.yul\":4526:4544   */\n      0x24\n      dup3\n      add\n        /* \"#utility.yul\":4519:4549   */\n      mstore\n        /* \"#utility.yul\":4585:4619   */\n      0x4f776e61626c653a206e6577206f776e657220697320746865207a65726f2061\n        /* \"#utility.yul\":4565:4583   */\n      0x44\n      dup3\n      add\n        /* \"#utility.yul\":4558:4620   */\n      mstore\n      shl(0xd0, 0x646472657373)\n        /* \"#utility.yul\":4636:4654   */\n      0x64\n      dup3\n      add\n        /* \"#utility.yul\":4629:4665   */\n      mstore\n        /* \"#utility.yul\":4682:4701   */\n      0x84\n      add\n        /* \"@openzeppelin/contracts-upgradeable/access/OwnableUpgradeable.sol\":2401:2474  require(newOwner != address(0), \"Ownable: new owner is the zero address\") */\n      tag_94\n        /* \"#utility.yul\":4305:4707   */\n      jump\n        /* \"@openzeppelin/contracts-upgradeable/access/OwnableUpgradeable.sol\":2401:2474  require(newOwner != address(0), \"Ownable: new owner is the zero address\") */\n    tag_155:\n        /* \"@openzeppelin/contracts-upgradeable/access/OwnableUpgradeable.sol\":2484:2512  _transferOwnership(newOwner) */\n      tag_133\n        /* \"@openzeppelin/contracts-upgradeable/access/OwnableUpgradeable.sol\":2503:2511  newOwner */\n      dup2\n        /* \"@openzeppelin/contracts-upgradeable/access/OwnableUpgradeable.sol\":2484:2502  _transferOwnership */\n      tag_117\n        /* \"@openzeppelin/contracts-upgradeable/access/OwnableUpgradeable.sol\":2484:2512  _transferOwnership(newOwner) */\n      jump\t// in\n        /* \"@openzeppelin/contracts-upgradeable/access/OwnableUpgradeable.sol\":1599:1729  function _checkOwner() internal view virtual {... */\n    tag_101:\n        /* \"@openzeppelin/contracts-upgradeable/access/OwnableUpgradeable.sol\":1513:1519  _owner */\n      and(sub(shl(0xa0, 0x01), 0x01), sload(0x33))\n        /* \"@openzeppelin/contracts-upgradeable/utils/ContextUpgradeable.sol\":929:939  msg.sender */\n      caller\n        /* \"@openzeppelin/contracts-upgradeable/access/OwnableUpgradeable.sol\":1662:1685  owner() == _msgSender() */\n      eq\n        /* \"@openzeppelin/contracts-upgradeable/access/OwnableUpgradeable.sol\":1654:1722  require(owner() == _msgSender(), \"Ownable: caller is not the owner\") */\n      tag_116\n      jumpi\n      mload(0x40)\n      shl(0xe5, 0x461bcd)\n      dup2\n      mstore\n        /* \"#utility.yul\":4914:4916   */\n      0x20\n        /* \"@openzeppelin/contracts-upgradeable/access/OwnableUpgradeable.sol\":1654:1722  require(owner() == _msgSender(), \"Ownable: caller is not the owner\") */\n      0x04\n      dup3\n      add\n        /* \"#utility.yul\":4896:4917   */\n      dup2\n      swap1\n      mstore\n        /* \"#utility.yul\":4933:4951   */\n      0x24\n      dup3\n      add\n        /* \"#utility.yul\":4926:4956   */\n      mstore\n        /* \"#utility.yul\":4992:5026   */\n      0x4f776e61626c653a2063616c6c6572206973206e6f7420746865206f776e6572\n        /* \"#utility.yul\":4972:4990   */\n      0x44\n      dup3\n      add\n        /* \"#utility.yul\":4965:5027   */\n      mstore\n        /* \"#utility.yul\":5044:5062   */\n      0x64\n      add\n        /* \"@openzeppelin/contracts-upgradeable/access/OwnableUpgradeable.sol\":1654:1722  require(owner() == _msgSender(), \"Ownable: caller is not the owner\") */\n      tag_94\n        /* \"#utility.yul\":4712:5068   */\n      jump\n        /* \"Heliocontracts/contracts/ceros/NonTransferableERC20.sol\":4880:5266  function _mint(address account, uint256 amount) internal virtual {... */\n    tag_111:\n      sub(shl(0xa0, 0x01), 0x01)\n        /* \"Heliocontracts/contracts/ceros/NonTransferableERC20.sol\":4963:4984  account != address(0) */\n      dup3\n      and\n        /* \"Heliocontracts/contracts/ceros/NonTransferableERC20.sol\":4955:5020  require(account != address(0), \"ERC20: mint to the zero address\") */\n      tag_168\n      jumpi\n      mload(0x40)\n      shl(0xe5, 0x461bcd)\n      dup2\n      mstore\n        /* \"#utility.yul\":5275:5277   */\n      0x20\n        /* \"Heliocontracts/contracts/ceros/NonTransferableERC20.sol\":4955:5020  require(account != address(0), \"ERC20: mint to the zero address\") */\n      0x04\n      dup3\n      add\n        /* \"#utility.yul\":5257:5278   */\n      mstore\n        /* \"#utility.yul\":5314:5316   */\n      0x1f\n        /* \"#utility.yul\":5294:5312   */\n      0x24\n      dup3\n      add\n        /* \"#utility.yul\":5287:5317   */\n      mstore\n        /* \"#utility.yul\":5353:5386   */\n      0x45524332303a206d696e7420746f20746865207a65726f206164647265737300\n        /* \"#utility.yul\":5333:5351   */\n      0x44\n      dup3\n      add\n        /* \"#utility.yul\":5326:5387   */\n      mstore\n        /* \"#utility.yul\":5404:5422   */\n      0x64\n      add\n        /* \"Heliocontracts/contracts/ceros/NonTransferableERC20.sol\":4955:5020  require(account != address(0), \"ERC20: mint to the zero address\") */\n      tag_94\n        /* \"#utility.yul\":5073:5428   */\n      jump\n        /* \"Heliocontracts/contracts/ceros/NonTransferableERC20.sol\":4955:5020  require(account != address(0), \"ERC20: mint to the zero address\") */\n    tag_168:\n        /* \"Heliocontracts/contracts/ceros/NonTransferableERC20.sol\":5105:5111  amount */\n      dup1\n        /* \"Heliocontracts/contracts/ceros/NonTransferableERC20.sol\":5089:5101  _totalSupply */\n      0x67\n      0x00\n        /* \"Heliocontracts/contracts/ceros/NonTransferableERC20.sol\":5089:5111  _totalSupply += amount */\n      dup3\n      dup3\n      sload\n      tag_173\n      swap2\n      swap1\n      tag_174\n      jump\t// in\n    tag_173:\n      swap1\n      swap2\n      sstore\n      pop\n      pop\n      sub(shl(0xa0, 0x01), 0x01)\n        /* \"Heliocontracts/contracts/ceros/NonTransferableERC20.sol\":5121:5139  _balances[account] */\n      dup3\n      and\n      0x00\n      swap1\n      dup2\n      mstore\n        /* \"Heliocontracts/contracts/ceros/NonTransferableERC20.sol\":5121:5130  _balances */\n      0x65\n        /* \"Heliocontracts/contracts/ceros/NonTransferableERC20.sol\":5121:5139  _balances[account] */\n      0x20\n      mstore\n      0x40\n      dup2\n      keccak256\n        /* \"Heliocontracts/contracts/ceros/NonTransferableERC20.sol\":5121:5149  _balances[account] += amount */\n      dup1\n      sload\n        /* \"Heliocontracts/contracts/ceros/NonTransferableERC20.sol\":5143:5149  amount */\n      dup4\n      swap3\n        /* \"Heliocontracts/contracts/ceros/NonTransferableERC20.sol\":5121:5139  _balances[account] */\n      swap1\n        /* \"Heliocontracts/contracts/ceros/NonTransferableERC20.sol\":5121:5149  _balances[account] += amount */\n      tag_175\n      swap1\n        /* \"Heliocontracts/contracts/ceros/NonTransferableERC20.sol\":5143:5149  amount */\n      dup5\n      swap1\n        /* \"Heliocontracts/contracts/ceros/NonTransferableERC20.sol\":5121:5149  _balances[account] += amount */\n      tag_174\n      jump\t// in\n    tag_175:\n      swap1\n      swap2\n      sstore\n      pop\n      pop\n        /* \"Heliocontracts/contracts/ceros/NonTransferableERC20.sol\":5164:5201  Transfer(address(0), account, amount) */\n      mload(0x40)\n        /* \"#utility.yul\":1391:1416   */\n      dup2\n      dup2\n      mstore\n      sub(shl(0xa0, 0x01), 0x01)\n        /* \"Heliocontracts/contracts/ceros/NonTransferableERC20.sol\":5164:5201  Transfer(address(0), account, amount) */\n      dup4\n      and\n      swap1\n        /* \"Heliocontracts/contracts/ceros/NonTransferableERC20.sol\":5181:5182  0 */\n      0x00\n      swap1\n        /* \"Heliocontracts/contracts/ceros/NonTransferableERC20.sol\":5164:5201  Transfer(address(0), account, amount) */\n      0xddf252ad1be2c89b69c2b068fc378daa952ba7f163c4a11628f55a4df523b3ef\n      swap1\n        /* \"#utility.yul\":1379:1381   */\n      0x20\n        /* \"#utility.yul\":1364:1382   */\n      add\n        /* \"Heliocontracts/contracts/ceros/NonTransferableERC20.sol\":5164:5201  Transfer(address(0), account, amount) */\n      mload(0x40)\n      dup1\n      swap2\n      sub\n      swap1\n      log3\n        /* \"Heliocontracts/contracts/ceros/hBNB.sol\":772:878  function mint(address account, uint256 amount) external onlyMinter {... */\n      pop\n      pop\n      jump\t// out\n        /* \"@openzeppelin/contracts-upgradeable/access/OwnableUpgradeable.sol\":2673:2860  function _transferOwnership(address newOwner) internal virtual {... */\n    tag_117:\n        /* \"@openzeppelin/contracts-upgradeable/access/OwnableUpgradeable.sol\":2765:2771  _owner */\n      0x33\n      dup1\n      sload\n      sub(shl(0xa0, 0x01), 0x01)\n        /* \"@openzeppelin/contracts-upgradeable/access/OwnableUpgradeable.sol\":2781:2798  _owner = newOwner */\n      dup4\n      dup2\n      and\n      not(sub(shl(0xa0, 0x01), 0x01))\n      dup4\n      and\n      dup2\n      or\n      swap1\n      swap4\n      sstore\n        /* \"@openzeppelin/contracts-upgradeable/access/OwnableUpgradeable.sol\":2813:2853  OwnershipTransferred(oldOwner, newOwner) */\n      mload(0x40)\n        /* \"@openzeppelin/contracts-upgradeable/access/OwnableUpgradeable.sol\":2765:2771  _owner */\n      swap2\n      and\n      swap2\n        /* \"@openzeppelin/contracts-upgradeable/access/OwnableUpgradeable.sol\":2781:2798  _owner = newOwner */\n      swap1\n        /* \"@openzeppelin/contracts-upgradeable/access/OwnableUpgradeable.sol\":2765:2771  _owner */\n      dup3\n      swap1\n        /* \"@openzeppelin/contracts-upgradeable/access/OwnableUpgradeable.sol\":2813:2853  OwnershipTransferred(oldOwner, newOwner) */\n      0x8be0079c531659141344cd1fd0a4f28419497f9722a3daafe3b4186f6b6457e0\n      swap1\n        /* \"@openzeppelin/contracts-upgradeable/access/OwnableUpgradeable.sol\":2746:2762  address oldOwner */\n      0x00\n      swap1\n        /* \"@openzeppelin/contracts-upgradeable/access/OwnableUpgradeable.sol\":2813:2853  OwnershipTransferred(oldOwner, newOwner) */\n      log3\n        /* \"@openzeppelin/contracts-upgradeable/access/OwnableUpgradeable.sol\":2736:2860  {... */\n      pop\n        /* \"@openzeppelin/contracts-upgradeable/access/OwnableUpgradeable.sol\":2673:2860  function _transferOwnership(address newOwner) internal virtual {... */\n      pop\n      jump\t// out\n        /* \"@openzeppelin/contracts-upgradeable/access/OwnableUpgradeable.sol\":1003:1098  function __Ownable_init() internal onlyInitializing {... */\n    tag_130:\n        /* \"@openzeppelin/contracts-upgradeable/proxy/utils/Initializable.sol\":4910:4923  _initializing */\n      sload(0x00)\n      0x0100\n      swap1\n      div\n      0xff\n      and\n        /* \"@openzeppelin/contracts-upgradeable/proxy/utils/Initializable.sol\":4902:4971  require(_initializing, \"Initializable: contract is not initializing\") */\n      tag_182\n      jumpi\n      mload(0x40)\n      shl(0xe5, 0x461bcd)\n      dup2\n      mstore\n      0x04\n      add\n      tag_94\n      swap1\n      tag_184\n      jump\t// in\n    tag_182:\n        /* \"@openzeppelin/contracts-upgradeable/access/OwnableUpgradeable.sol\":1065:1091  __Ownable_init_unchained() */\n      tag_116\n        /* \"@openzeppelin/contracts-upgradeable/access/OwnableUpgradeable.sol\":1065:1089  __Ownable_init_unchained */\n      tag_187\n        /* \"@openzeppelin/contracts-upgradeable/access/OwnableUpgradeable.sol\":1065:1091  __Ownable_init_unchained() */\n      jump\t// in\n        /* \"Heliocontracts/contracts/ceros/NonTransferableERC20.sol\":1231:1402  function __ERC20_init_unchained(string memory name_, string memory symbol_)... */\n    tag_132:\n        /* \"@openzeppelin/contracts-upgradeable/proxy/utils/Initializable.sol\":4910:4923  _initializing */\n      sload(0x00)\n      0x0100\n      swap1\n      div\n      0xff\n      and\n        /* \"@openzeppelin/contracts-upgradeable/proxy/utils/Initializable.sol\":4902:4971  require(_initializing, \"Initializable: contract is not initializing\") */\n      tag_189\n      jumpi\n      mload(0x40)\n      shl(0xe5, 0x461bcd)\n      dup2\n      mstore\n      0x04\n      add\n      tag_94\n      swap1\n      tag_184\n      jump\t// in\n    tag_189:\n        /* \"Heliocontracts/contracts/ceros/NonTransferableERC20.sol\":1355:1368  _name = name_ */\n      dup2\n      mload\n      tag_192\n      swap1\n        /* \"Heliocontracts/contracts/ceros/NonTransferableERC20.sol\":1355:1360  _name */\n      0x68\n      swap1\n        /* \"Heliocontracts/contracts/ceros/NonTransferableERC20.sol\":1355:1368  _name = name_ */\n      0x20\n      dup6\n      add\n      swap1\n      tag_193\n      jump\t// in\n    tag_192:\n      pop\n        /* \"Heliocontracts/contracts/ceros/NonTransferableERC20.sol\":1378:1395  _symbol = symbol_ */\n      dup1\n      mload\n      tag_194\n      swap1\n        /* \"Heliocontracts/contracts/ceros/NonTransferableERC20.sol\":1378:1385  _symbol */\n      0x69\n      swap1\n        /* \"Heliocontracts/contracts/ceros/NonTransferableERC20.sol\":1378:1395  _symbol = symbol_ */\n      0x20\n      dup5\n      add\n      swap1\n      tag_193\n      jump\t// in\n    tag_194:\n      pop\n        /* \"Heliocontracts/contracts/ceros/NonTransferableERC20.sol\":1231:1402  function __ERC20_init_unchained(string memory name_, string memory symbol_)... */\n      pop\n      pop\n      jump\t// out\n        /* \"Heliocontracts/contracts/ceros/NonTransferableERC20.sol\":5585:6145  function _burn(address account, uint256 amount) internal virtual {... */\n    tag_148:\n      sub(shl(0xa0, 0x01), 0x01)\n        /* \"Heliocontracts/contracts/ceros/NonTransferableERC20.sol\":5668:5689  account != address(0) */\n      dup3\n      and\n        /* \"Heliocontracts/contracts/ceros/NonTransferableERC20.sol\":5660:5727  require(account != address(0), \"ERC20: burn from the zero address\") */\n      tag_196\n      jumpi\n      mload(0x40)\n      shl(0xe5, 0x461bcd)\n      dup2\n      mstore\n        /* \"#utility.yul\":6312:6314   */\n      0x20\n        /* \"Heliocontracts/contracts/ceros/NonTransferableERC20.sol\":5660:5727  require(account != address(0), \"ERC20: burn from the zero address\") */\n      0x04\n      dup3\n      add\n        /* \"#utility.yul\":6294:6315   */\n      mstore\n        /* \"#utility.yul\":6351:6353   */\n      0x21\n        /* \"#utility.yul\":6331:6349   */\n      0x24\n      dup3\n      add\n        /* \"#utility.yul\":6324:6354   */\n      mstore\n        /* \"#utility.yul\":6390:6424   */\n      0x45524332303a206275726e2066726f6d20746865207a65726f20616464726573\n        /* \"#utility.yul\":6370:6388   */\n      0x44\n      dup3\n      add\n        /* \"#utility.yul\":6363:6425   */\n      mstore\n      shl(0xf8, 0x73)\n        /* \"#utility.yul\":6441:6459   */\n      0x64\n      dup3\n      add\n        /* \"#utility.yul\":6434:6465   */\n      mstore\n        /* \"#utility.yul\":6482:6501   */\n      0x84\n      add\n        /* \"Heliocontracts/contracts/ceros/NonTransferableERC20.sol\":5660:5727  require(account != address(0), \"ERC20: burn from the zero address\") */\n      tag_94\n        /* \"#utility.yul\":6110:6507   */\n      jump\n        /* \"Heliocontracts/contracts/ceros/NonTransferableERC20.sol\":5660:5727  require(account != address(0), \"ERC20: burn from the zero address\") */\n    tag_196:\n      sub(shl(0xa0, 0x01), 0x01)\n        /* \"Heliocontracts/contracts/ceros/NonTransferableERC20.sol\":5821:5839  _balances[account] */\n      dup3\n      and\n        /* \"Heliocontracts/contracts/ceros/NonTransferableERC20.sol\":5796:5818  uint256 accountBalance */\n      0x00\n        /* \"Heliocontracts/contracts/ceros/NonTransferableERC20.sol\":5821:5839  _balances[account] */\n      swap1\n      dup2\n      mstore\n        /* \"Heliocontracts/contracts/ceros/NonTransferableERC20.sol\":5821:5830  _balances */\n      0x65\n        /* \"Heliocontracts/contracts/ceros/NonTransferableERC20.sol\":5821:5839  _balances[account] */\n      0x20\n      mstore\n      0x40\n      swap1\n      keccak256\n      sload\n        /* \"Heliocontracts/contracts/ceros/NonTransferableERC20.sol\":5857:5881  accountBalance >= amount */\n      dup2\n      dup2\n      lt\n      iszero\n        /* \"Heliocontracts/contracts/ceros/NonTransferableERC20.sol\":5849:5920  require(accountBalance >= amount, \"ERC20: burn amount exceeds balance\") */\n      tag_200\n      jumpi\n      mload(0x40)\n      shl(0xe5, 0x461bcd)\n      dup2\n      mstore\n        /* \"#utility.yul\":6714:6716   */\n      0x20\n        /* \"Heliocontracts/contracts/ceros/NonTransferableERC20.sol\":5849:5920  require(accountBalance >= amount, \"ERC20: burn amount exceeds balance\") */\n      0x04\n      dup3\n      add\n        /* \"#utility.yul\":6696:6717   */\n      mstore\n        /* \"#utility.yul\":6753:6755   */\n      0x22\n        /* \"#utility.yul\":6733:6751   */\n      0x24\n      dup3\n      add\n        /* \"#utility.yul\":6726:6756   */\n      mstore\n        /* \"#utility.yul\":6792:6826   */\n      0x45524332303a206275726e20616d6f756e7420657863656564732062616c616e\n        /* \"#utility.yul\":6772:6790   */\n      0x44\n      dup3\n      add\n        /* \"#utility.yul\":6765:6827   */\n      mstore\n      shl(0xf0, 0x6365)\n        /* \"#utility.yul\":6843:6861   */\n      0x64\n      dup3\n      add\n        /* \"#utility.yul\":6836:6868   */\n      mstore\n        /* \"#utility.yul\":6885:6904   */\n      0x84\n      add\n        /* \"Heliocontracts/contracts/ceros/NonTransferableERC20.sol\":5849:5920  require(accountBalance >= amount, \"ERC20: burn amount exceeds balance\") */\n      tag_94\n        /* \"#utility.yul\":6512:6910   */\n      jump\n        /* \"Heliocontracts/contracts/ceros/NonTransferableERC20.sol\":5849:5920  require(accountBalance >= amount, \"ERC20: burn amount exceeds balance\") */\n    tag_200:\n      sub(shl(0xa0, 0x01), 0x01)\n        /* \"Heliocontracts/contracts/ceros/NonTransferableERC20.sol\":5946:5964  _balances[account] */\n      dup4\n      and\n      0x00\n      swap1\n      dup2\n      mstore\n        /* \"Heliocontracts/contracts/ceros/NonTransferableERC20.sol\":5946:5955  _balances */\n      0x65\n        /* \"Heliocontracts/contracts/ceros/NonTransferableERC20.sol\":5946:5964  _balances[account] */\n      0x20\n      mstore\n      0x40\n      dup2\n      keccak256\n        /* \"Heliocontracts/contracts/ceros/NonTransferableERC20.sol\":5967:5990  accountBalance - amount */\n      dup4\n      dup4\n      sub\n        /* \"Heliocontracts/contracts/ceros/NonTransferableERC20.sol\":5946:5990  _balances[account] = accountBalance - amount */\n      swap1\n      sstore\n        /* \"Heliocontracts/contracts/ceros/NonTransferableERC20.sol\":6006:6018  _totalSupply */\n      0x67\n        /* \"Heliocontracts/contracts/ceros/NonTransferableERC20.sol\":6006:6028  _totalSupply -= amount */\n      dup1\n      sload\n        /* \"Heliocontracts/contracts/ceros/NonTransferableERC20.sol\":5984:5990  amount */\n      dup5\n      swap3\n        /* \"Heliocontracts/contracts/ceros/NonTransferableERC20.sol\":5946:5964  _balances[account] */\n      swap1\n        /* \"Heliocontracts/contracts/ceros/NonTransferableERC20.sol\":6006:6028  _totalSupply -= amount */\n      tag_203\n      swap1\n        /* \"Heliocontracts/contracts/ceros/NonTransferableERC20.sol\":5984:5990  amount */\n      dup5\n      swap1\n        /* \"Heliocontracts/contracts/ceros/NonTransferableERC20.sol\":6006:6028  _totalSupply -= amount */\n      tag_204\n      jump\t// in\n    tag_203:\n      swap1\n      swap2\n      sstore\n      pop\n      pop\n        /* \"Heliocontracts/contracts/ceros/NonTransferableERC20.sol\":6043:6080  Transfer(account, address(0), amount) */\n      mload(0x40)\n        /* \"#utility.yul\":1391:1416   */\n      dup3\n      dup2\n      mstore\n        /* \"Heliocontracts/contracts/ceros/NonTransferableERC20.sol\":6069:6070  0 */\n      0x00\n      swap1\n      sub(shl(0xa0, 0x01), 0x01)\n        /* \"Heliocontracts/contracts/ceros/NonTransferableERC20.sol\":6043:6080  Transfer(account, address(0), amount) */\n      dup6\n      and\n      swap1\n      0xddf252ad1be2c89b69c2b068fc378daa952ba7f163c4a11628f55a4df523b3ef\n      swap1\n        /* \"#utility.yul\":1379:1381   */\n      0x20\n        /* \"#utility.yul\":1364:1382   */\n      add\n        /* \"Heliocontracts/contracts/ceros/NonTransferableERC20.sol\":6043:6080  Transfer(account, address(0), amount) */\n      mload(0x40)\n      dup1\n      swap2\n      sub\n      swap1\n      log3\n        /* \"Heliocontracts/contracts/ceros/NonTransferableERC20.sol\":1378:1395  _symbol = symbol_ */\n      pop\n        /* \"Heliocontracts/contracts/ceros/NonTransferableERC20.sol\":1231:1402  function __ERC20_init_unchained(string memory name_, string memory symbol_)... */\n      pop\n      pop\n      jump\t// out\n        /* \"@openzeppelin/contracts-upgradeable/access/OwnableUpgradeable.sol\":1104:1215  function __Ownable_init_unchained() internal onlyInitializing {... */\n    tag_187:\n        /* \"@openzeppelin/contracts-upgradeable/proxy/utils/Initializable.sol\":4910:4923  _initializing */\n      sload(0x00)\n      0x0100\n      swap1\n      div\n      0xff\n      and\n        /* \"@openzeppelin/contracts-upgradeable/proxy/utils/Initializable.sol\":4902:4971  require(_initializing, \"Initializable: contract is not initializing\") */\n      tag_211\n      jumpi\n      mload(0x40)\n      shl(0xe5, 0x461bcd)\n      dup2\n      mstore\n      0x04\n      add\n      tag_94\n      swap1\n      tag_184\n      jump\t// in\n    tag_211:\n        /* \"@openzeppelin/contracts-upgradeable/access/OwnableUpgradeable.sol\":1176:1208  _transferOwnership(_msgSender()) */\n      tag_116\n        /* \"@openzeppelin/contracts-upgradeable/utils/ContextUpgradeable.sol\":929:939  msg.sender */\n      caller\n        /* \"@openzeppelin/contracts-upgradeable/access/OwnableUpgradeable.sol\":1176:1194  _transferOwnership */\n      tag_117\n        /* \"@openzeppelin/contracts-upgradeable/access/OwnableUpgradeable.sol\":1176:1208  _transferOwnership(_msgSender()) */\n      jump\t// in\n    tag_193:\n      dup3\n      dup1\n      sload\n      tag_216\n      swap1\n      tag_88\n      jump\t// in\n    tag_216:\n      swap1\n      0x00\n      mstore\n      keccak256(0x00, 0x20)\n      swap1\n      0x1f\n      add\n      0x20\n      swap1\n      div\n      dup2\n      add\n      swap3\n      dup3\n      tag_218\n      jumpi\n      0x00\n      dup6\n      sstore\n      jump(tag_221)\n    tag_218:\n      dup3\n      0x1f\n      lt\n      tag_219\n      jumpi\n      dup1\n      mload\n      not(0xff)\n      and\n      dup4\n      dup1\n      add\n      or\n      dup6\n      sstore\n      jump(tag_221)\n    tag_219:\n      dup3\n      dup1\n      add\n      0x01\n      add\n      dup6\n      sstore\n      dup3\n      iszero\n      tag_221\n      jumpi\n      swap2\n      dup3\n      add\n    tag_220:\n      dup3\n      dup2\n      gt\n      iszero\n      tag_221\n      jumpi\n      dup3\n      mload\n      dup3\n      sstore\n      swap2\n      0x20\n      add\n      swap2\n      swap1\n      0x01\n      add\n      swap1\n      jump(tag_220)\n    tag_221:\n      pop\n      tag_222\n      swap3\n      swap2\n      pop\n      tag_223\n      jump\t// in\n    tag_222:\n      pop\n      swap1\n      jump\t// out\n    tag_223:\n    tag_224:\n      dup1\n      dup3\n      gt\n      iszero\n      tag_222\n      jumpi\n      0x00\n      dup2\n      sstore\n      0x01\n      add\n      jump(tag_224)\n        /* \"#utility.yul\":14:611   */\n    tag_26:\n        /* \"#utility.yul\":126:130   */\n      0x00\n        /* \"#utility.yul\":155:157   */\n      0x20\n        /* \"#utility.yul\":184:186   */\n      dup1\n        /* \"#utility.yul\":173:182   */\n      dup4\n        /* \"#utility.yul\":166:187   */\n      mstore\n        /* \"#utility.yul\":216:222   */\n      dup4\n        /* \"#utility.yul\":210:223   */\n      mload\n        /* \"#utility.yul\":259:265   */\n      dup1\n        /* \"#utility.yul\":254:256   */\n      dup3\n        /* \"#utility.yul\":243:252   */\n      dup6\n        /* \"#utility.yul\":239:257   */\n      add\n        /* \"#utility.yul\":232:266   */\n      mstore\n        /* \"#utility.yul\":284:285   */\n      0x00\n        /* \"#utility.yul\":294:434   */\n    tag_230:\n        /* \"#utility.yul\":308:314   */\n      dup2\n        /* \"#utility.yul\":305:306   */\n      dup2\n        /* \"#utility.yul\":302:315   */\n      lt\n        /* \"#utility.yul\":294:434   */\n      iszero\n      tag_232\n      jumpi\n        /* \"#utility.yul\":403:417   */\n      dup6\n      dup2\n      add\n        /* \"#utility.yul\":399:422   */\n      dup4\n      add\n        /* \"#utility.yul\":393:423   */\n      mload\n        /* \"#utility.yul\":369:386   */\n      dup6\n      dup3\n      add\n        /* \"#utility.yul\":388:390   */\n      0x40\n        /* \"#utility.yul\":365:391   */\n      add\n        /* \"#utility.yul\":358:424   */\n      mstore\n        /* \"#utility.yul\":323:333   */\n      dup3\n      add\n        /* \"#utility.yul\":294:434   */\n      jump(tag_230)\n    tag_232:\n        /* \"#utility.yul\":452:458   */\n      dup2\n        /* \"#utility.yul\":449:450   */\n      dup2\n        /* \"#utility.yul\":446:459   */\n      gt\n        /* \"#utility.yul\":443:534   */\n      iszero\n      tag_233\n      jumpi\n        /* \"#utility.yul\":522:523   */\n      0x00\n        /* \"#utility.yul\":517:519   */\n      0x40\n        /* \"#utility.yul\":508:514   */\n      dup4\n        /* \"#utility.yul\":497:506   */\n      dup8\n        /* \"#utility.yul\":493:515   */\n      add\n        /* \"#utility.yul\":489:520   */\n      add\n        /* \"#utility.yul\":482:524   */\n      mstore\n        /* \"#utility.yul\":443:534   */\n    tag_233:\n      pop\n        /* \"#utility.yul\":595:597   */\n      0x1f\n        /* \"#utility.yul\":574:589   */\n      add\n      not(0x1f)\n        /* \"#utility.yul\":570:599   */\n      and\n        /* \"#utility.yul\":555:600   */\n      swap3\n      swap1\n      swap3\n      add\n        /* \"#utility.yul\":602:604   */\n      0x40\n        /* \"#utility.yul\":551:605   */\n      add\n      swap4\n        /* \"#utility.yul\":14:611   */\n      swap3\n      pop\n      pop\n      pop\n      jump\t// out\n        /* \"#utility.yul\":616:789   */\n    tag_226:\n        /* \"#utility.yul\":684:704   */\n      dup1\n      calldataload\n      sub(shl(0xa0, 0x01), 0x01)\n        /* \"#utility.yul\":733:764   */\n      dup2\n      and\n        /* \"#utility.yul\":723:765   */\n      dup2\n      eq\n        /* \"#utility.yul\":713:783   */\n      tag_235\n      jumpi\n        /* \"#utility.yul\":779:780   */\n      0x00\n        /* \"#utility.yul\":776:777   */\n      dup1\n        /* \"#utility.yul\":769:781   */\n      revert\n        /* \"#utility.yul\":713:783   */\n    tag_235:\n        /* \"#utility.yul\":616:789   */\n      swap2\n      swap1\n      pop\n      jump\t// out\n        /* \"#utility.yul\":794:1048   */\n    tag_29:\n        /* \"#utility.yul\":862:868   */\n      0x00\n        /* \"#utility.yul\":870:876   */\n      dup1\n        /* \"#utility.yul\":923:925   */\n      0x40\n        /* \"#utility.yul\":911:920   */\n      dup4\n        /* \"#utility.yul\":902:909   */\n      dup6\n        /* \"#utility.yul\":898:921   */\n      sub\n        /* \"#utility.yul\":894:926   */\n      slt\n        /* \"#utility.yul\":891:943   */\n      iszero\n      tag_237\n      jumpi\n        /* \"#utility.yul\":939:940   */\n      0x00\n        /* \"#utility.yul\":936:937   */\n      dup1\n        /* \"#utility.yul\":929:941   */\n      revert\n        /* \"#utility.yul\":891:943   */\n    tag_237:\n        /* \"#utility.yul\":962:991   */\n      tag_238\n        /* \"#utility.yul\":981:990   */\n      dup4\n        /* \"#utility.yul\":962:991   */\n      tag_226\n      jump\t// in\n    tag_238:\n        /* \"#utility.yul\":952:991   */\n      swap5\n        /* \"#utility.yul\":1038:1040   */\n      0x20\n        /* \"#utility.yul\":1023:1041   */\n      swap4\n      swap1\n      swap4\n      add\n        /* \"#utility.yul\":1010:1042   */\n      calldataload\n      swap4\n      pop\n      pop\n      pop\n        /* \"#utility.yul\":794:1048   */\n      jump\t// out\n        /* \"#utility.yul\":1427:1755   */\n    tag_39:\n        /* \"#utility.yul\":1504:1510   */\n      0x00\n        /* \"#utility.yul\":1512:1518   */\n      dup1\n        /* \"#utility.yul\":1520:1526   */\n      0x00\n        /* \"#utility.yul\":1573:1575   */\n      0x60\n        /* \"#utility.yul\":1561:1570   */\n      dup5\n        /* \"#utility.yul\":1552:1559   */\n      dup7\n        /* \"#utility.yul\":1548:1571   */\n      sub\n        /* \"#utility.yul\":1544:1576   */\n      slt\n        /* \"#utility.yul\":1541:1593   */\n      iszero\n      tag_242\n      jumpi\n        /* \"#utility.yul\":1589:1590   */\n      0x00\n        /* \"#utility.yul\":1586:1587   */\n      dup1\n        /* \"#utility.yul\":1579:1591   */\n      revert\n        /* \"#utility.yul\":1541:1593   */\n    tag_242:\n        /* \"#utility.yul\":1612:1641   */\n      tag_243\n        /* \"#utility.yul\":1631:1640   */\n      dup5\n        /* \"#utility.yul\":1612:1641   */\n      tag_226\n      jump\t// in\n    tag_243:\n        /* \"#utility.yul\":1602:1641   */\n      swap3\n      pop\n        /* \"#utility.yul\":1660:1698   */\n      tag_244\n        /* \"#utility.yul\":1694:1696   */\n      0x20\n        /* \"#utility.yul\":1683:1692   */\n      dup6\n        /* \"#utility.yul\":1679:1697   */\n      add\n        /* \"#utility.yul\":1660:1698   */\n      tag_226\n      jump\t// in\n    tag_244:\n        /* \"#utility.yul\":1650:1698   */\n      swap2\n      pop\n        /* \"#utility.yul\":1745:1747   */\n      0x40\n        /* \"#utility.yul\":1734:1743   */\n      dup5\n        /* \"#utility.yul\":1730:1748   */\n      add\n        /* \"#utility.yul\":1717:1749   */\n      calldataload\n        /* \"#utility.yul\":1707:1749   */\n      swap1\n      pop\n        /* \"#utility.yul\":1427:1755   */\n      swap3\n      pop\n      swap3\n      pop\n      swap3\n      jump\t// out\n        /* \"#utility.yul\":1760:1946   */\n    tag_44:\n        /* \"#utility.yul\":1819:1825   */\n      0x00\n        /* \"#utility.yul\":1872:1874   */\n      0x20\n        /* \"#utility.yul\":1860:1869   */\n      dup3\n        /* \"#utility.yul\":1851:1858   */\n      dup5\n        /* \"#utility.yul\":1847:1870   */\n      sub\n        /* \"#utility.yul\":1843:1875   */\n      slt\n        /* \"#utility.yul\":1840:1892   */\n      iszero\n      tag_246\n      jumpi\n        /* \"#utility.yul\":1888:1889   */\n      0x00\n        /* \"#utility.yul\":1885:1886   */\n      dup1\n        /* \"#utility.yul\":1878:1890   */\n      revert\n        /* \"#utility.yul\":1840:1892   */\n    tag_246:\n        /* \"#utility.yul\":1911:1940   */\n      tag_247\n        /* \"#utility.yul\":1930:1939   */\n      dup3\n        /* \"#utility.yul\":1911:1940   */\n      tag_226\n      jump\t// in\n    tag_247:\n        /* \"#utility.yul\":1901:1940   */\n      swap4\n        /* \"#utility.yul\":1760:1946   */\n      swap3\n      pop\n      pop\n      pop\n      jump\t// out\n        /* \"#utility.yul\":2348:2608   */\n    tag_77:\n        /* \"#utility.yul\":2416:2422   */\n      0x00\n        /* \"#utility.yul\":2424:2430   */\n      dup1\n        /* \"#utility.yul\":2477:2479   */\n      0x40\n        /* \"#utility.yul\":2465:2474   */\n      dup4\n        /* \"#utility.yul\":2456:2463   */\n      dup6\n        /* \"#utility.yul\":2452:2475   */\n      sub\n        /* \"#utility.yul\":2448:2480   */\n      slt\n        /* \"#utility.yul\":2445:2497   */\n      iszero\n      tag_251\n      jumpi\n        /* \"#utility.yul\":2493:2494   */\n      0x00\n        /* \"#utility.yul\":2490:2491   */\n      dup1\n        /* \"#utility.yul\":2483:2495   */\n      revert\n        /* \"#utility.yul\":2445:2497   */\n    tag_251:\n        /* \"#utility.yul\":2516:2545   */\n      tag_252\n        /* \"#utility.yul\":2535:2544   */\n      dup4\n        /* \"#utility.yul\":2516:2545   */\n      tag_226\n      jump\t// in\n    tag_252:\n        /* \"#utility.yul\":2506:2545   */\n      swap2\n      pop\n        /* \"#utility.yul\":2564:2602   */\n      tag_253\n        /* \"#utility.yul\":2598:2600   */\n      0x20\n        /* \"#utility.yul\":2587:2596   */\n      dup5\n        /* \"#utility.yul\":2583:2601   */\n      add\n        /* \"#utility.yul\":2564:2602   */\n      tag_226\n      jump\t// in\n    tag_253:\n        /* \"#utility.yul\":2554:2602   */\n      swap1\n      pop\n        /* \"#utility.yul\":2348:2608   */\n      swap3\n      pop\n      swap3\n      swap1\n      pop\n      jump\t// out\n        /* \"#utility.yul\":2613:2993   */\n    tag_88:\n        /* \"#utility.yul\":2692:2693   */\n      0x01\n        /* \"#utility.yul\":2688:2700   */\n      dup2\n      dup2\n      shr\n      swap1\n        /* \"#utility.yul\":2735:2747   */\n      dup3\n      and\n      dup1\n        /* \"#utility.yul\":2756:2817   */\n      tag_255\n      jumpi\n        /* \"#utility.yul\":2810:2814   */\n      0x7f\n        /* \"#utility.yul\":2802:2808   */\n      dup3\n        /* \"#utility.yul\":2798:2815   */\n      and\n        /* \"#utility.yul\":2788:2815   */\n      swap2\n      pop\n        /* \"#utility.yul\":2756:2817   */\n    tag_255:\n        /* \"#utility.yul\":2863:2865   */\n      0x20\n        /* \"#utility.yul\":2855:2861   */\n      dup3\n        /* \"#utility.yul\":2852:2866   */\n      lt\n        /* \"#utility.yul\":2832:2850   */\n      dup2\n        /* \"#utility.yul\":2829:2867   */\n      eq\n        /* \"#utility.yul\":2826:2987   */\n      iszero\n      tag_256\n      jumpi\n        /* \"#utility.yul\":2909:2919   */\n      0x4e487b71\n        /* \"#utility.yul\":2904:2907   */\n      0xe0\n        /* \"#utility.yul\":2900:2920   */\n      shl\n        /* \"#utility.yul\":2897:2898   */\n      0x00\n        /* \"#utility.yul\":2890:2921   */\n      mstore\n        /* \"#utility.yul\":2944:2948   */\n      0x22\n        /* \"#utility.yul\":2941:2942   */\n      0x04\n        /* \"#utility.yul\":2934:2949   */\n      mstore\n        /* \"#utility.yul\":2972:2976   */\n      0x24\n        /* \"#utility.yul\":2969:2970   */\n      0x00\n        /* \"#utility.yul\":2962:2977   */\n      revert\n        /* \"#utility.yul\":2826:2987   */\n    tag_256:\n      pop\n        /* \"#utility.yul\":2613:2993   */\n      swap2\n      swap1\n      pop\n      jump\t// out\n        /* \"#utility.yul\":5433:5560   */\n    tag_227:\n        /* \"#utility.yul\":5494:5504   */\n      0x4e487b71\n        /* \"#utility.yul\":5489:5492   */\n      0xe0\n        /* \"#utility.yul\":5485:5505   */\n      shl\n        /* \"#utility.yul\":5482:5483   */\n      0x00\n        /* \"#utility.yul\":5475:5506   */\n      mstore\n        /* \"#utility.yul\":5525:5529   */\n      0x11\n        /* \"#utility.yul\":5522:5523   */\n      0x04\n        /* \"#utility.yul\":5515:5530   */\n      mstore\n        /* \"#utility.yul\":5549:5553   */\n      0x24\n        /* \"#utility.yul\":5546:5547   */\n      0x00\n        /* \"#utility.yul\":5539:5554   */\n      revert\n        /* \"#utility.yul\":5565:5693   */\n    tag_174:\n        /* \"#utility.yul\":5605:5608   */\n      0x00\n        /* \"#utility.yul\":5636:5637   */\n      dup3\n        /* \"#utility.yul\":5632:5638   */\n      not\n        /* \"#utility.yul\":5629:5630   */\n      dup3\n        /* \"#utility.yul\":5626:5639   */\n      gt\n        /* \"#utility.yul\":5623:5662   */\n      iszero\n      tag_267\n      jumpi\n        /* \"#utility.yul\":5642:5660   */\n      tag_267\n      tag_227\n      jump\t// in\n    tag_267:\n      pop\n        /* \"#utility.yul\":5678:5687   */\n      add\n      swap1\n        /* \"#utility.yul\":5565:5693   */\n      jump\t// out\n        /* \"#utility.yul\":5698:6105   */\n    tag_184:\n        /* \"#utility.yul\":5900:5902   */\n      0x20\n        /* \"#utility.yul\":5882:5903   */\n      dup1\n      dup3\n      mstore\n        /* \"#utility.yul\":5939:5941   */\n      0x2b\n        /* \"#utility.yul\":5919:5937   */\n      swap1\n      dup3\n      add\n        /* \"#utility.yul\":5912:5942   */\n      mstore\n        /* \"#utility.yul\":5978:6012   */\n      0x496e697469616c697a61626c653a20636f6e7472616374206973206e6f742069\n        /* \"#utility.yul\":5973:5975   */\n      0x40\n        /* \"#utility.yul\":5958:5976   */\n      dup3\n      add\n        /* \"#utility.yul\":5951:6013   */\n      mstore\n      shl(0xa8, 0x6e697469616c697a696e67)\n        /* \"#utility.yul\":6044:6046   */\n      0x60\n        /* \"#utility.yul\":6029:6047   */\n      dup3\n      add\n        /* \"#utility.yul\":6022:6063   */\n      mstore\n        /* \"#utility.yul\":6095:6098   */\n      0x80\n        /* \"#utility.yul\":6080:6099   */\n      add\n      swap1\n        /* \"#utility.yul\":5698:6105   */\n      jump\t// out\n        /* \"#utility.yul\":6915:7040   */\n    tag_204:\n        /* \"#utility.yul\":6955:6959   */\n      0x00\n        /* \"#utility.yul\":6983:6984   */\n      dup3\n        /* \"#utility.yul\":6980:6981   */\n      dup3\n        /* \"#utility.yul\":6977:6985   */\n      lt\n        /* \"#utility.yul\":6974:7008   */\n      iszero\n      tag_273\n      jumpi\n        /* \"#utility.yul\":6988:7006   */\n      tag_273\n      tag_227\n      jump\t// in\n    tag_273:\n      pop\n        /* \"#utility.yul\":7025:7034   */\n      sub\n      swap1\n        /* \"#utility.yul\":6915:7040   */\n      jump\t// out\n\n    auxdata: 0xa2646970667358221220ac4bb03befdffea2306f638de0e4109879ba4526e36bf49f20862ec102db2b6d64736f6c634300080a0033\n}\n",
				"bytecode": {
					"linkReferences": {},
					"object": "608060405234801561001057600080fd5b50610ca6806100206000396000f3fe608060405234801561001057600080fd5b506004361061010b5760003560e01c8063715018a6116100a25780639dc29fac116100715780639dc29fac1461020e578063a9059cbb1461012e578063dd62ed3e14610221578063f2fde38b1461025a578063f36675171461026d57600080fd5b8063715018a6146101d15780638129fc1c146101d95780638da5cb5b146101e157806395d89b411461020657600080fd5b80632c4d4d18116100de5780632c4d4d1814610171578063313ce5671461018657806340c10f191461019557806370a08231146101a857600080fd5b806306fdde0314610110578063095ea7b31461012e57806318160ddd1461015157806323b872dd14610163575b600080fd5b61011861027e565b6040516101259190610a79565b60405180910390f35b61014161013c366004610aea565b610310565b6040519015158152602001610125565b6067545b604051908152602001610125565b61014161013c366004610b14565b61018461017f366004610b50565b610353565b005b60405160128152602001610125565b6101846101a3366004610aea565b6103b0565b6101556101b6366004610b50565b6001600160a01b031660009081526065602052604090205490565b61018461040e565b610184610422565b6033546001600160a01b03165b6040516001600160a01b039091168152602001610125565b610118610576565b61018461021c366004610aea565b610585565b61015561022f366004610b72565b6001600160a01b03918216600090815260666020908152604080832093909416825291909152205490565b610184610268366004610b50565b6105df565b6097546001600160a01b03166101ee565b60606068805461028d90610ba5565b80601f01602080910402602001604051908101604052809291908181526020018280546102b990610ba5565b80156103065780601f106102db57610100808354040283529160200191610306565b820191906000526020600020905b8154815290600101906020018083116102e957829003601f168201915b5050505050905090565b60405162461bcd60e51b815260206004820152601060248201526f4e6f74207472616e7366657261626c6560801b60448201526000906064015b60405180910390fd5b61035b610655565b609780546001600160a01b0319166001600160a01b0383169081179091556040519081527fb6b8f1859c5c352e5ffad07d0f77e384ac725512c015bd3a3ffc885831c8a425906020015b60405180910390a150565b6097546001600160a01b031633146104005760405162461bcd60e51b8152602060048201526013602482015272135a5b9d195c8e881b9bdd08185b1b1bddd959606a1b604482015260640161034a565b61040a82826106af565b5050565b610416610655565b610420600061078e565b565b600054610100900460ff16158080156104425750600054600160ff909116105b8061045c5750303b15801561045c575060005460ff166001145b6104bf5760405162461bcd60e51b815260206004820152602e60248201527f496e697469616c697a61626c653a20636f6e747261637420697320616c72656160448201526d191e481a5b9a5d1a585b1a5e995960921b606482015260840161034a565b6000805460ff1916600117905580156104e2576000805461ff0019166101001790555b6104ea6107e0565b610531604051806040016040528060098152602001682432b634b79021272160b91b815250604051806040016040528060048152602001633421272160e11b81525061080f565b8015610573576000805461ff0019169055604051600181527f7f26b83ff96e1f2b6a682f133852f6798a09c465da95921460cefb3847402498906020016103a5565b50565b60606069805461028d90610ba5565b6097546001600160a01b031633146105d55760405162461bcd60e51b8152602060048201526013602482015272135a5b9d195c8e881b9bdd08185b1b1bddd959606a1b604482015260640161034a565b61040a8282610862565b6105e7610655565b6001600160a01b03811661064c5760405162461bcd60e51b815260206004820152602660248201527f4f776e61626c653a206e6577206f776e657220697320746865207a65726f206160448201526564647265737360d01b606482015260840161034a565b6105738161078e565b6033546001600160a01b031633146104205760405162461bcd60e51b815260206004820181905260248201527f4f776e61626c653a2063616c6c6572206973206e6f7420746865206f776e6572604482015260640161034a565b6001600160a01b0382166107055760405162461bcd60e51b815260206004820152601f60248201527f45524332303a206d696e7420746f20746865207a65726f206164647265737300604482015260640161034a565b80606760008282546107179190610bf6565b90915550506001600160a01b03821660009081526065602052604081208054839290610744908490610bf6565b90915550506040518181526001600160a01b038316906000907fddf252ad1be2c89b69c2b068fc378daa952ba7f163c4a11628f55a4df523b3ef9060200160405180910390a35050565b603380546001600160a01b038381166001600160a01b0319831681179093556040519116919082907f8be0079c531659141344cd1fd0a4f28419497f9722a3daafe3b4186f6b6457e090600090a35050565b600054610100900460ff166108075760405162461bcd60e51b815260040161034a90610c0e565b6104206109b0565b600054610100900460ff166108365760405162461bcd60e51b815260040161034a90610c0e565b81516108499060689060208501906109e0565b50805161085d9060699060208401906109e0565b505050565b6001600160a01b0382166108c25760405162461bcd60e51b815260206004820152602160248201527f45524332303a206275726e2066726f6d20746865207a65726f206164647265736044820152607360f81b606482015260840161034a565b6001600160a01b038216600090815260656020526040902054818110156109365760405162461bcd60e51b815260206004820152602260248201527f45524332303a206275726e20616d6f756e7420657863656564732062616c616e604482015261636560f01b606482015260840161034a565b6001600160a01b0383166000908152606560205260408120838303905560678054849290610965908490610c59565b90915550506040518281526000906001600160a01b038516907fddf252ad1be2c89b69c2b068fc378daa952ba7f163c4a11628f55a4df523b3ef9060200160405180910390a3505050565b600054610100900460ff166109d75760405162461bcd60e51b815260040161034a90610c0e565b6104203361078e565b8280546109ec90610ba5565b90600052602060002090601f016020900481019282610a0e5760008555610a54565b82601f10610a2757805160ff1916838001178555610a54565b82800160010185558215610a54579182015b82811115610a54578251825591602001919060010190610a39565b50610a60929150610a64565b5090565b5b80821115610a605760008155600101610a65565b600060208083528351808285015260005b81811015610aa657858101830151858201604001528201610a8a565b81811115610ab8576000604083870101525b50601f01601f1916929092016040019392505050565b80356001600160a01b0381168114610ae557600080fd5b919050565b60008060408385031215610afd57600080fd5b610b0683610ace565b946020939093013593505050565b600080600060608486031215610b2957600080fd5b610b3284610ace565b9250610b4060208501610ace565b9150604084013590509250925092565b600060208284031215610b6257600080fd5b610b6b82610ace565b9392505050565b60008060408385031215610b8557600080fd5b610b8e83610ace565b9150610b9c60208401610ace565b90509250929050565b600181811c90821680610bb957607f821691505b60208210811415610bda57634e487b7160e01b600052602260045260246000fd5b50919050565b634e487b7160e01b600052601160045260246000fd5b60008219821115610c0957610c09610be0565b500190565b6020808252602b908201527f496e697469616c697a61626c653a20636f6e7472616374206973206e6f74206960408201526a6e697469616c697a696e6760a81b606082015260800190565b600082821015610c6b57610c6b610be0565b50039056fea2646970667358221220ac4bb03befdffea2306f638de0e4109879ba4526e36bf49f20862ec102db2b6d64736f6c634300080a0033",
					"opcodes": "PUSH1 0x80 PUSH1 0x40 MSTORE CALLVALUE DUP1 ISZERO PUSH2 0x10 JUMPI PUSH1 0x0 DUP1 REVERT JUMPDEST POP PUSH2 0xCA6 DUP1 PUSH2 0x20 PUSH1 0x0 CODECOPY PUSH1 0x0 RETURN INVALID PUSH1 0x80 PUSH1 0x40 MSTORE CALLVALUE DUP1 ISZERO PUSH2 0x10 JUMPI PUSH1 0x0 DUP1 REVERT JUMPDEST POP PUSH1 0x4 CALLDATASIZE LT PUSH2 0x10B JUMPI PUSH1 0x0 CALLDATALOAD PUSH1 0xE0 SHR DUP1 PUSH4 0x715018A6 GT PUSH2 0xA2 JUMPI DUP1 PUSH4 0x9DC29FAC GT PUSH2 0x71 JUMPI DUP1 PUSH4 0x9DC29FAC EQ PUSH2 0x20E JUMPI DUP1 PUSH4 0xA9059CBB EQ PUSH2 0x12E JUMPI DUP1 PUSH4 0xDD62ED3E EQ PUSH2 0x221 JUMPI DUP1 PUSH4 0xF2FDE38B EQ PUSH2 0x25A JUMPI DUP1 PUSH4 0xF3667517 EQ PUSH2 0x26D JUMPI PUSH1 0x0 DUP1 REVERT JUMPDEST DUP1 PUSH4 0x715018A6 EQ PUSH2 0x1D1 JUMPI DUP1 PUSH4 0x8129FC1C EQ PUSH2 0x1D9 JUMPI DUP1 PUSH4 0x8DA5CB5B EQ PUSH2 0x1E1 JUMPI DUP1 PUSH4 0x95D89B41 EQ PUSH2 0x206 JUMPI PUSH1 0x0 DUP1 REVERT JUMPDEST DUP1 PUSH4 0x2C4D4D18 GT PUSH2 0xDE JUMPI DUP1 PUSH4 0x2C4D4D18 EQ PUSH2 0x171 JUMPI DUP1 PUSH4 0x313CE567 EQ PUSH2 0x186 JUMPI DUP1 PUSH4 0x40C10F19 EQ PUSH2 0x195 JUMPI DUP1 PUSH4 0x70A08231 EQ PUSH2 0x1A8 JUMPI PUSH1 0x0 DUP1 REVERT JUMPDEST DUP1 PUSH4 0x6FDDE03 EQ PUSH2 0x110 JUMPI DUP1 PUSH4 0x95EA7B3 EQ PUSH2 0x12E JUMPI DUP1 PUSH4 0x18160DDD EQ PUSH2 0x151 JUMPI DUP1 PUSH4 0x23B872DD EQ PUSH2 0x163 JUMPI JUMPDEST PUSH1 0x0 DUP1 REVERT JUMPDEST PUSH2 0x118 PUSH2 0x27E JUMP JUMPDEST PUSH1 0x40 MLOAD PUSH2 0x125 SWAP2 SWAP1 PUSH2 0xA79 JUMP JUMPDEST PUSH1 0x40 MLOAD DUP1 SWAP2 SUB SWAP1 RETURN JUMPDEST PUSH2 0x141 PUSH2 0x13C CALLDATASIZE PUSH1 0x4 PUSH2 0xAEA JUMP JUMPDEST PUSH2 0x310 JUMP JUMPDEST PUSH1 0x40 MLOAD SWAP1 ISZERO ISZERO DUP2 MSTORE PUSH1 0x20 ADD PUSH2 0x125 JUMP JUMPDEST PUSH1 0x67 SLOAD JUMPDEST PUSH1 0x40 MLOAD SWAP1 DUP2 MSTORE PUSH1 0x20 ADD PUSH2 0x125 JUMP JUMPDEST PUSH2 0x141 PUSH2 0x13C CALLDATASIZE PUSH1 0x4 PUSH2 0xB14 JUMP JUMPDEST PUSH2 0x184 PUSH2 0x17F CALLDATASIZE PUSH1 0x4 PUSH2 0xB50 JUMP JUMPDEST PUSH2 0x353 JUMP JUMPDEST STOP JUMPDEST PUSH1 0x40 MLOAD PUSH1 0x12 DUP2 MSTORE PUSH1 0x20 ADD PUSH2 0x125 JUMP JUMPDEST PUSH2 0x184 PUSH2 0x1A3 CALLDATASIZE PUSH1 0x4 PUSH2 0xAEA JUMP JUMPDEST PUSH2 0x3B0 JUMP JUMPDEST PUSH2 0x155 PUSH2 0x1B6 CALLDATASIZE PUSH1 0x4 PUSH2 0xB50 JUMP JUMPDEST PUSH1 0x1 PUSH1 0x1 PUSH1 0xA0 SHL SUB AND PUSH1 0x0 SWAP1 DUP2 MSTORE PUSH1 0x65 PUSH1 0x20 MSTORE PUSH1 0x40 SWAP1 KECCAK256 SLOAD SWAP1 JUMP JUMPDEST PUSH2 0x184 PUSH2 0x40E JUMP JUMPDEST PUSH2 0x184 PUSH2 0x422 JUMP JUMPDEST PUSH1 0x33 SLOAD PUSH1 0x1 PUSH1 0x1 PUSH1 0xA0 SHL SUB AND JUMPDEST PUSH1 0x40 MLOAD PUSH1 0x1 PUSH1 0x1 PUSH1 0xA0 SHL SUB SWAP1 SWAP2 AND DUP2 MSTORE PUSH1 0x20 ADD PUSH2 0x125 JUMP JUMPDEST PUSH2 0x118 PUSH2 0x576 JUMP JUMPDEST PUSH2 0x184 PUSH2 0x21C CALLDATASIZE PUSH1 0x4 PUSH2 0xAEA JUMP JUMPDEST PUSH2 0x585 JUMP JUMPDEST PUSH2 0x155 PUSH2 0x22F CALLDATASIZE PUSH1 0x4 PUSH2 0xB72 JUMP JUMPDEST PUSH1 0x1 PUSH1 0x1 PUSH1 0xA0 SHL SUB SWAP2 DUP3 AND PUSH1 0x0 SWAP1 DUP2 MSTORE PUSH1 0x66 PUSH1 0x20 SWAP1 DUP2 MSTORE PUSH1 0x40 DUP1 DUP4 KECCAK256 SWAP4 SWAP1 SWAP5 AND DUP3 MSTORE SWAP2 SWAP1 SWAP2 MSTORE KECCAK256 SLOAD SWAP1 JUMP JUMPDEST PUSH2 0x184 PUSH2 0x268 CALLDATASIZE PUSH1 0x4 PUSH2 0xB50 JUMP JUMPDEST PUSH2 0x5DF JUMP JUMPDEST PUSH1 0x97 SLOAD PUSH1 0x1 PUSH1 0x1 PUSH1 0xA0 SHL SUB AND PUSH2 0x1EE JUMP JUMPDEST PUSH1 0x60 PUSH1 0x68 DUP1 SLOAD PUSH2 0x28D SWAP1 PUSH2 0xBA5 JUMP JUMPDEST DUP1 PUSH1 0x1F ADD PUSH1 0x20 DUP1 SWAP2 DIV MUL PUSH1 0x20 ADD PUSH1 0x40 MLOAD SWAP1 DUP2 ADD PUSH1 0x40 MSTORE DUP1 SWAP3 SWAP2 SWAP1 DUP2 DUP2 MSTORE PUSH1 0x20 ADD DUP3 DUP1 SLOAD PUSH2 0x2B9 SWAP1 PUSH2 0xBA5 JUMP JUMPDEST DUP1 ISZERO PUSH2 0x306 JUMPI DUP1 PUSH1 0x1F LT PUSH2 0x2DB JUMPI PUSH2 0x100 DUP1 DUP4 SLOAD DIV MUL DUP4 MSTORE SWAP2 PUSH1 0x20 ADD SWAP2 PUSH2 0x306 JUMP JUMPDEST DUP3 ADD SWAP2 SWAP1 PUSH1 0x0 MSTORE PUSH1 0x20 PUSH1 0x0 KECCAK256 SWAP1 JUMPDEST DUP2 SLOAD DUP2 MSTORE SWAP1 PUSH1 0x1 ADD SWAP1 PUSH1 0x20 ADD DUP1 DUP4 GT PUSH2 0x2E9 JUMPI DUP3 SWAP1 SUB PUSH1 0x1F AND DUP3 ADD SWAP2 JUMPDEST POP POP POP POP POP SWAP1 POP SWAP1 JUMP JUMPDEST PUSH1 0x40 MLOAD PUSH3 0x461BCD PUSH1 0xE5 SHL DUP2 MSTORE PUSH1 0x20 PUSH1 0x4 DUP3 ADD MSTORE PUSH1 0x10 PUSH1 0x24 DUP3 ADD MSTORE PUSH16 0x4E6F74207472616E7366657261626C65 PUSH1 0x80 SHL PUSH1 0x44 DUP3 ADD MSTORE PUSH1 0x0 SWAP1 PUSH1 0x64 ADD JUMPDEST PUSH1 0x40 MLOAD DUP1 SWAP2 SUB SWAP1 REVERT JUMPDEST PUSH2 0x35B PUSH2 0x655 JUMP JUMPDEST PUSH1 0x97 DUP1 SLOAD PUSH1 0x1 PUSH1 0x1 PUSH1 0xA0 SHL SUB NOT AND PUSH1 0x1 PUSH1 0x1 PUSH1 0xA0 SHL SUB DUP4 AND SWAP1 DUP2 OR SWAP1 SWAP2 SSTORE PUSH1 0x40 MLOAD SWAP1 DUP2 MSTORE PUSH32 0xB6B8F1859C5C352E5FFAD07D0F77E384AC725512C015BD3A3FFC885831C8A425 SWAP1 PUSH1 0x20 ADD JUMPDEST PUSH1 0x40 MLOAD DUP1 SWAP2 SUB SWAP1 LOG1 POP JUMP JUMPDEST PUSH1 0x97 SLOAD PUSH1 0x1 PUSH1 0x1 PUSH1 0xA0 SHL SUB AND CALLER EQ PUSH2 0x400 JUMPI PUSH1 0x40 MLOAD PUSH3 0x461BCD PUSH1 0xE5 SHL DUP2 MSTORE PUSH1 0x20 PUSH1 0x4 DUP3 ADD MSTORE PUSH1 0x13 PUSH1 0x24 DUP3 ADD MSTORE PUSH19 0x135A5B9D195C8E881B9BDD08185B1B1BDDD959 PUSH1 0x6A SHL PUSH1 0x44 DUP3 ADD MSTORE PUSH1 0x64 ADD PUSH2 0x34A JUMP JUMPDEST PUSH2 0x40A DUP3 DUP3 PUSH2 0x6AF JUMP JUMPDEST POP POP JUMP JUMPDEST PUSH2 0x416 PUSH2 0x655 JUMP JUMPDEST PUSH2 0x420 PUSH1 0x0 PUSH2 0x78E JUMP JUMPDEST JUMP JUMPDEST PUSH1 0x0 SLOAD PUSH2 0x100 SWAP1 DIV PUSH1 0xFF AND ISZERO DUP1 DUP1 ISZERO PUSH2 0x442 JUMPI POP PUSH1 0x0 SLOAD PUSH1 0x1 PUSH1 0xFF SWAP1 SWAP2 AND LT JUMPDEST DUP1 PUSH2 0x45C JUMPI POP ADDRESS EXTCODESIZE ISZERO DUP1 ISZERO PUSH2 0x45C JUMPI POP PUSH1 0x0 SLOAD PUSH1 0xFF AND PUSH1 0x1 EQ JUMPDEST PUSH2 0x4BF JUMPI PUSH1 0x40 MLOAD PUSH3 0x461BCD PUSH1 0xE5 SHL DUP2 MSTORE PUSH1 0x20 PUSH1 0x4 DUP3 ADD MSTORE PUSH1 0x2E PUSH1 0x24 DUP3 ADD MSTORE PUSH32 0x496E697469616C697A61626C653A20636F6E747261637420697320616C726561 PUSH1 0x44 DUP3 ADD MSTORE PUSH14 0x191E481A5B9A5D1A585B1A5E9959 PUSH1 0x92 SHL PUSH1 0x64 DUP3 ADD MSTORE PUSH1 0x84 ADD PUSH2 0x34A JUMP JUMPDEST PUSH1 0x0 DUP1 SLOAD PUSH1 0xFF NOT AND PUSH1 0x1 OR SWAP1 SSTORE DUP1 ISZERO PUSH2 0x4E2 JUMPI PUSH1 0x0 DUP1 SLOAD PUSH2 0xFF00 NOT AND PUSH2 0x100 OR SWAP1 SSTORE JUMPDEST PUSH2 0x4EA PUSH2 0x7E0 JUMP JUMPDEST PUSH2 0x531 PUSH1 0x40 MLOAD DUP1 PUSH1 0x40 ADD PUSH1 0x40 MSTORE DUP1 PUSH1 0x9 DUP2 MSTORE PUSH1 0x20 ADD PUSH9 0x2432B634B790212721 PUSH1 0xB9 SHL DUP2 MSTORE POP PUSH1 0x40 MLOAD DUP1 PUSH1 0x40 ADD PUSH1 0x40 MSTORE DUP1 PUSH1 0x4 DUP2 MSTORE PUSH1 0x20 ADD PUSH4 0x34212721 PUSH1 0xE1 SHL DUP2 MSTORE POP PUSH2 0x80F JUMP JUMPDEST DUP1 ISZERO PUSH2 0x573 JUMPI PUSH1 0x0 DUP1 SLOAD PUSH2 0xFF00 NOT AND SWAP1 SSTORE PUSH1 0x40 MLOAD PUSH1 0x1 DUP2 MSTORE PUSH32 0x7F26B83FF96E1F2B6A682F133852F6798A09C465DA95921460CEFB3847402498 SWAP1 PUSH1 0x20 ADD PUSH2 0x3A5 JUMP JUMPDEST POP JUMP JUMPDEST PUSH1 0x60 PUSH1 0x69 DUP1 SLOAD PUSH2 0x28D SWAP1 PUSH2 0xBA5 JUMP JUMPDEST PUSH1 0x97 SLOAD PUSH1 0x1 PUSH1 0x1 PUSH1 0xA0 SHL SUB AND CALLER EQ PUSH2 0x5D5 JUMPI PUSH1 0x40 MLOAD PUSH3 0x461BCD PUSH1 0xE5 SHL DUP2 MSTORE PUSH1 0x20 PUSH1 0x4 DUP3 ADD MSTORE PUSH1 0x13 PUSH1 0x24 DUP3 ADD MSTORE PUSH19 0x135A5B9D195C8E881B9BDD08185B1B1BDDD959 PUSH1 0x6A SHL PUSH1 0x44 DUP3 ADD MSTORE PUSH1 0x64 ADD PUSH2 0x34A JUMP JUMPDEST PUSH2 0x40A DUP3 DUP3 PUSH2 0x862 JUMP JUMPDEST PUSH2 0x5E7 PUSH2 0x655 JUMP JUMPDEST PUSH1 0x1 PUSH1 0x1 PUSH1 0xA0 SHL SUB DUP2 AND PUSH2 0x64C JUMPI PUSH1 0x40 MLOAD PUSH3 0x461BCD PUSH1 0xE5 SHL DUP2 MSTORE PUSH1 0x20 PUSH1 0x4 DUP3 ADD MSTORE PUSH1 0x26 PUSH1 0x24 DUP3 ADD MSTORE PUSH32 0x4F776E61626C653A206E6577206F776E657220697320746865207A65726F2061 PUSH1 0x44 DUP3 ADD MSTORE PUSH6 0x646472657373 PUSH1 0xD0 SHL PUSH1 0x64 DUP3 ADD MSTORE PUSH1 0x84 ADD PUSH2 0x34A JUMP JUMPDEST PUSH2 0x573 DUP2 PUSH2 0x78E JUMP JUMPDEST PUSH1 0x33 SLOAD PUSH1 0x1 PUSH1 0x1 PUSH1 0xA0 SHL SUB AND CALLER EQ PUSH2 0x420 JUMPI PUSH1 0x40 MLOAD PUSH3 0x461BCD PUSH1 0xE5 SHL DUP2 MSTORE PUSH1 0x20 PUSH1 0x4 DUP3 ADD DUP2 SWAP1 MSTORE PUSH1 0x24 DUP3 ADD MSTORE PUSH32 0x4F776E61626C653A2063616C6C6572206973206E6F7420746865206F776E6572 PUSH1 0x44 DUP3 ADD MSTORE PUSH1 0x64 ADD PUSH2 0x34A JUMP JUMPDEST PUSH1 0x1 PUSH1 0x1 PUSH1 0xA0 SHL SUB DUP3 AND PUSH2 0x705 JUMPI PUSH1 0x40 MLOAD PUSH3 0x461BCD PUSH1 0xE5 SHL DUP2 MSTORE PUSH1 0x20 PUSH1 0x4 DUP3 ADD MSTORE PUSH1 0x1F PUSH1 0x24 DUP3 ADD MSTORE PUSH32 0x45524332303A206D696E7420746F20746865207A65726F206164647265737300 PUSH1 0x44 DUP3 ADD MSTORE PUSH1 0x64 ADD PUSH2 0x34A JUMP JUMPDEST DUP1 PUSH1 0x67 PUSH1 0x0 DUP3 DUP3 SLOAD PUSH2 0x717 SWAP2 SWAP1 PUSH2 0xBF6 JUMP JUMPDEST SWAP1 SWAP2 SSTORE POP POP PUSH1 0x1 PUSH1 0x1 PUSH1 0xA0 SHL SUB DUP3 AND PUSH1 0x0 SWAP1 DUP2 MSTORE PUSH1 0x65 PUSH1 0x20 MSTORE PUSH1 0x40 DUP2 KECCAK256 DUP1 SLOAD DUP4 SWAP3 SWAP1 PUSH2 0x744 SWAP1 DUP5 SWAP1 PUSH2 0xBF6 JUMP JUMPDEST SWAP1 SWAP2 SSTORE POP POP PUSH1 0x40 MLOAD DUP2 DUP2 MSTORE PUSH1 0x1 PUSH1 0x1 PUSH1 0xA0 SHL SUB DUP4 AND SWAP1 PUSH1 0x0 SWAP1 PUSH32 0xDDF252AD1BE2C89B69C2B068FC378DAA952BA7F163C4A11628F55A4DF523B3EF SWAP1 PUSH1 0x20 ADD PUSH1 0x40 MLOAD DUP1 SWAP2 SUB SWAP1 LOG3 POP POP JUMP JUMPDEST PUSH1 0x33 DUP1 SLOAD PUSH1 0x1 PUSH1 0x1 PUSH1 0xA0 SHL SUB DUP4 DUP2 AND PUSH1 0x1 PUSH1 0x1 PUSH1 0xA0 SHL SUB NOT DUP4 AND DUP2 OR SWAP1 SWAP4 SSTORE PUSH1 0x40 MLOAD SWAP2 AND SWAP2 SWAP1 DUP3 SWAP1 PUSH32 0x8BE0079C531659141344CD1FD0A4F28419497F9722A3DAAFE3B4186F6B6457E0 SWAP1 PUSH1 0x0 SWAP1 LOG3 POP POP JUMP JUMPDEST PUSH1 0x0 SLOAD PUSH2 0x100 SWAP1 DIV PUSH1 0xFF AND PUSH2 0x807 JUMPI PUSH1 0x40 MLOAD PUSH3 0x461BCD PUSH1 0xE5 SHL DUP2 MSTORE PUSH1 0x4 ADD PUSH2 0x34A SWAP1 PUSH2 0xC0E JUMP JUMPDEST PUSH2 0x420 PUSH2 0x9B0 JUMP JUMPDEST PUSH1 0x0 SLOAD PUSH2 0x100 SWAP1 DIV PUSH1 0xFF AND PUSH2 0x836 JUMPI PUSH1 0x40 MLOAD PUSH3 0x461BCD PUSH1 0xE5 SHL DUP2 MSTORE PUSH1 0x4 ADD PUSH2 0x34A SWAP1 PUSH2 0xC0E JUMP JUMPDEST DUP2 MLOAD PUSH2 0x849 SWAP1 PUSH1 0x68 SWAP1 PUSH1 0x20 DUP6 ADD SWAP1 PUSH2 0x9E0 JUMP JUMPDEST POP DUP1 MLOAD PUSH2 0x85D SWAP1 PUSH1 0x69 SWAP1 PUSH1 0x20 DUP5 ADD SWAP1 PUSH2 0x9E0 JUMP JUMPDEST POP POP POP JUMP JUMPDEST PUSH1 0x1 PUSH1 0x1 PUSH1 0xA0 SHL SUB DUP3 AND PUSH2 0x8C2 JUMPI PUSH1 0x40 MLOAD PUSH3 0x461BCD PUSH1 0xE5 SHL DUP2 MSTORE PUSH1 0x20 PUSH1 0x4 DUP3 ADD MSTORE PUSH1 0x21 PUSH1 0x24 DUP3 ADD MSTORE PUSH32 0x45524332303A206275726E2066726F6D20746865207A65726F20616464726573 PUSH1 0x44 DUP3 ADD MSTORE PUSH1 0x73 PUSH1 0xF8 SHL PUSH1 0x64 DUP3 ADD MSTORE PUSH1 0x84 ADD PUSH2 0x34A JUMP JUMPDEST PUSH1 0x1 PUSH1 0x1 PUSH1 0xA0 SHL SUB DUP3 AND PUSH1 0x0 SWAP1 DUP2 MSTORE PUSH1 0x65 PUSH1 0x20 MSTORE PUSH1 0x40 SWAP1 KECCAK256 SLOAD DUP2 DUP2 LT ISZERO PUSH2 0x936 JUMPI PUSH1 0x40 MLOAD PUSH3 0x461BCD PUSH1 0xE5 SHL DUP2 MSTORE PUSH1 0x20 PUSH1 0x4 DUP3 ADD MSTORE PUSH1 0x22 PUSH1 0x24 DUP3 ADD MSTORE PUSH32 0x45524332303A206275726E20616D6F756E7420657863656564732062616C616E PUSH1 0x44 DUP3 ADD MSTORE PUSH2 0x6365 PUSH1 0xF0 SHL PUSH1 0x64 DUP3 ADD MSTORE PUSH1 0x84 ADD PUSH2 0x34A JUMP JUMPDEST PUSH1 0x1 PUSH1 0x1 PUSH1 0xA0 SHL SUB DUP4 AND PUSH1 0x0 SWAP1 DUP2 MSTORE PUSH1 0x65 PUSH1 0x20 MSTORE PUSH1 0x40 DUP2 KECCAK256 DUP4 DUP4 SUB SWAP1 SSTORE PUSH1 0x67 DUP1 SLOAD DUP5 SWAP3 SWAP1 PUSH2 0x965 SWAP1 DUP5 SWAP1 PUSH2 0xC59 JUMP JUMPDEST SWAP1 SWAP2 SSTORE POP POP PUSH1 0x40 MLOAD DUP3 DUP2 MSTORE PUSH1 0x0 SWAP1 PUSH1 0x1 PUSH1 0x1 PUSH1 0xA0 SHL SUB DUP6 AND SWAP1 PUSH32 0xDDF252AD1BE2C89B69C2B068FC378DAA952BA7F163C4A11628F55A4DF523B3EF SWAP1 PUSH1 0x20 ADD PUSH1 0x40 MLOAD DUP1 SWAP2 SUB SWAP1 LOG3 POP POP POP JUMP JUMPDEST PUSH1 0x0 SLOAD PUSH2 0x100 SWAP1 DIV PUSH1 0xFF AND PUSH2 0x9D7 JUMPI PUSH1 0x40 MLOAD PUSH3 0x461BCD PUSH1 0xE5 SHL DUP2 MSTORE PUSH1 0x4 ADD PUSH2 0x34A SWAP1 PUSH2 0xC0E JUMP JUMPDEST PUSH2 0x420 CALLER PUSH2 0x78E JUMP JUMPDEST DUP3 DUP1 SLOAD PUSH2 0x9EC SWAP1 PUSH2 0xBA5 JUMP JUMPDEST SWAP1 PUSH1 0x0 MSTORE PUSH1 0x20 PUSH1 0x0 KECCAK256 SWAP1 PUSH1 0x1F ADD PUSH1 0x20 SWAP1 DIV DUP2 ADD SWAP3 DUP3 PUSH2 0xA0E JUMPI PUSH1 0x0 DUP6 SSTORE PUSH2 0xA54 JUMP JUMPDEST DUP3 PUSH1 0x1F LT PUSH2 0xA27 JUMPI DUP1 MLOAD PUSH1 0xFF NOT AND DUP4 DUP1 ADD OR DUP6 SSTORE PUSH2 0xA54 JUMP JUMPDEST DUP3 DUP1 ADD PUSH1 0x1 ADD DUP6 SSTORE DUP3 ISZERO PUSH2 0xA54 JUMPI SWAP2 DUP3 ADD JUMPDEST DUP3 DUP2 GT ISZERO PUSH2 0xA54 JUMPI DUP3 MLOAD DUP3 SSTORE SWAP2 PUSH1 0x20 ADD SWAP2 SWAP1 PUSH1 0x1 ADD SWAP1 PUSH2 0xA39 JUMP JUMPDEST POP PUSH2 0xA60 SWAP3 SWAP2 POP PUSH2 0xA64 JUMP JUMPDEST POP SWAP1 JUMP JUMPDEST JUMPDEST DUP1 DUP3 GT ISZERO PUSH2 0xA60 JUMPI PUSH1 0x0 DUP2 SSTORE PUSH1 0x1 ADD PUSH2 0xA65 JUMP JUMPDEST PUSH1 0x0 PUSH1 0x20 DUP1 DUP4 MSTORE DUP4 MLOAD DUP1 DUP3 DUP6 ADD MSTORE PUSH1 0x0 JUMPDEST DUP2 DUP2 LT ISZERO PUSH2 0xAA6 JUMPI DUP6 DUP2 ADD DUP4 ADD MLOAD DUP6 DUP3 ADD PUSH1 0x40 ADD MSTORE DUP3 ADD PUSH2 0xA8A JUMP JUMPDEST DUP2 DUP2 GT ISZERO PUSH2 0xAB8 JUMPI PUSH1 0x0 PUSH1 0x40 DUP4 DUP8 ADD ADD MSTORE JUMPDEST POP PUSH1 0x1F ADD PUSH1 0x1F NOT AND SWAP3 SWAP1 SWAP3 ADD PUSH1 0x40 ADD SWAP4 SWAP3 POP POP POP JUMP JUMPDEST DUP1 CALLDATALOAD PUSH1 0x1 PUSH1 0x1 PUSH1 0xA0 SHL SUB DUP2 AND DUP2 EQ PUSH2 0xAE5 JUMPI PUSH1 0x0 DUP1 REVERT JUMPDEST SWAP2 SWAP1 POP JUMP JUMPDEST PUSH1 0x0 DUP1 PUSH1 0x40 DUP4 DUP6 SUB SLT ISZERO PUSH2 0xAFD JUMPI PUSH1 0x0 DUP1 REVERT JUMPDEST PUSH2 0xB06 DUP4 PUSH2 0xACE JUMP JUMPDEST SWAP5 PUSH1 0x20 SWAP4 SWAP1 SWAP4 ADD CALLDATALOAD SWAP4 POP POP POP JUMP JUMPDEST PUSH1 0x0 DUP1 PUSH1 0x0 PUSH1 0x60 DUP5 DUP7 SUB SLT ISZERO PUSH2 0xB29 JUMPI PUSH1 0x0 DUP1 REVERT JUMPDEST PUSH2 0xB32 DUP5 PUSH2 0xACE JUMP JUMPDEST SWAP3 POP PUSH2 0xB40 PUSH1 0x20 DUP6 ADD PUSH2 0xACE JUMP JUMPDEST SWAP2 POP PUSH1 0x40 DUP5 ADD CALLDATALOAD SWAP1 POP SWAP3 POP SWAP3 POP SWAP3 JUMP JUMPDEST PUSH1 0x0 PUSH1 0x20 DUP3 DUP5 SUB SLT ISZERO PUSH2 0xB62 JUMPI PUSH1 0x0 DUP1 REVERT JUMPDEST PUSH2 0xB6B DUP3 PUSH2 0xACE JUMP JUMPDEST SWAP4 SWAP3 POP POP POP JUMP JUMPDEST PUSH1 0x0 DUP1 PUSH1 0x40 DUP4 DUP6 SUB SLT ISZERO PUSH2 0xB85 JUMPI PUSH1 0x0 DUP1 REVERT JUMPDEST PUSH2 0xB8E DUP4 PUSH2 0xACE JUMP JUMPDEST SWAP2 POP PUSH2 0xB9C PUSH1 0x20 DUP5 ADD PUSH2 0xACE JUMP JUMPDEST SWAP1 POP SWAP3 POP SWAP3 SWAP1 POP JUMP JUMPDEST PUSH1 0x1 DUP2 DUP2 SHR SWAP1 DUP3 AND DUP1 PUSH2 0xBB9 JUMPI PUSH1 0x7F DUP3 AND SWAP2 POP JUMPDEST PUSH1 0x20 DUP3 LT DUP2 EQ ISZERO PUSH2 0xBDA JUMPI PUSH4 0x4E487B71 PUSH1 0xE0 SHL PUSH1 0x0 MSTORE PUSH1 0x22 PUSH1 0x4 MSTORE PUSH1 0x24 PUSH1 0x0 REVERT JUMPDEST POP SWAP2 SWAP1 POP JUMP JUMPDEST PUSH4 0x4E487B71 PUSH1 0xE0 SHL PUSH1 0x0 MSTORE PUSH1 0x11 PUSH1 0x4 MSTORE PUSH1 0x24 PUSH1 0x0 REVERT JUMPDEST PUSH1 0x0 DUP3 NOT DUP3 GT ISZERO PUSH2 0xC09 JUMPI PUSH2 0xC09 PUSH2 0xBE0 JUMP JUMPDEST POP ADD SWAP1 JUMP JUMPDEST PUSH1 0x20 DUP1 DUP3 MSTORE PUSH1 0x2B SWAP1 DUP3 ADD MSTORE PUSH32 0x496E697469616C697A61626C653A20636F6E7472616374206973206E6F742069 PUSH1 0x40 DUP3 ADD MSTORE PUSH11 0x6E697469616C697A696E67 PUSH1 0xA8 SHL PUSH1 0x60 DUP3 ADD MSTORE PUSH1 0x80 ADD SWAP1 JUMP JUMPDEST PUSH1 0x0 DUP3 DUP3 LT ISZERO PUSH2 0xC6B JUMPI PUSH2 0xC6B PUSH2 0xBE0 JUMP JUMPDEST POP SUB SWAP1 JUMP INVALID LOG2 PUSH5 0x6970667358 0x22 SLT KECCAK256 0xAC 0x4B 0xB0 EXTCODESIZE 0xEF 0xDF INVALID LOG2 ADDRESS PUSH16 0x638DE0E4109879BA4526E36BF49F2086 0x2E 0xC1 MUL 0xDB 0x2B PUSH14 0x64736F6C634300080A0033000000 "
				},
				"gasEstimates": {
					"creation": {
						"codeDepositCost": "647600",
						"executionCost": "683",
						"totalCost": "648283"
					},
					"external": {
						"allowance(address,address)": "infinite",
						"approve(address,uint256)": "478",
						"balanceOf(address)": "2626",
						"burn(address,uint256)": "53110",
						"changeMinter(address)": "27812",
						"decimals()": "222",
						"getMinter()": "2441",
						"initialize()": "infinite",
						"mint(address,uint256)": "infinite",
						"name()": "infinite",
						"owner()": "2387",
						"renounceOwnership()": "infinite",
						"symbol()": "infinite",
						"totalSupply()": "2349",
						"transfer(address,uint256)": "476",
						"transferFrom(address,address,uint256)": "infinite",
						"transferOwnership(address)": "28424"
					}
				},
				"methodIdentifiers": {
					"allowance(address,address)": "dd62ed3e",
					"approve(address,uint256)": "095ea7b3",
					"balanceOf(address)": "70a08231",
					"burn(address,uint256)": "9dc29fac",
					"changeMinter(address)": "2c4d4d18",
					"decimals()": "313ce567",
					"getMinter()": "f3667517",
					"initialize()": "8129fc1c",
					"mint(address,uint256)": "40c10f19",
					"name()": "06fdde03",
					"owner()": "8da5cb5b",
					"renounceOwnership()": "715018a6",
					"symbol()": "95d89b41",
					"totalSupply()": "18160ddd",
					"transfer(address,uint256)": "a9059cbb",
					"transferFrom(address,address,uint256)": "23b872dd",
					"transferOwnership(address)": "f2fde38b"
				}
			},
			"storageLayout": {
				"storage": [
					{
						"astId": 138,
						"contract": "Heliocontracts/contracts/ceros/hBNB.sol:hBNB",
						"label": "_initialized",
						"offset": 0,
						"slot": "0",
						"type": "t_uint8"
					},
					{
						"astId": 141,
						"contract": "Heliocontracts/contracts/ceros/hBNB.sol:hBNB",
						"label": "_initializing",
						"offset": 1,
						"slot": "0",
						"type": "t_bool"
					},
					{
						"astId": 669,
						"contract": "Heliocontracts/contracts/ceros/hBNB.sol:hBNB",
						"label": "__gap",
						"offset": 0,
						"slot": "1",
						"type": "t_array(t_uint256)50_storage"
					},
					{
						"astId": 10,
						"contract": "Heliocontracts/contracts/ceros/hBNB.sol:hBNB",
						"label": "_owner",
						"offset": 0,
						"slot": "51",
						"type": "t_address"
					},
					{
						"astId": 130,
						"contract": "Heliocontracts/contracts/ceros/hBNB.sol:hBNB",
						"label": "__gap",
						"offset": 0,
						"slot": "52",
						"type": "t_array(t_uint256)49_storage"
					},
					{
						"astId": 686,
						"contract": "Heliocontracts/contracts/ceros/hBNB.sol:hBNB",
						"label": "_balances",
						"offset": 0,
						"slot": "101",
						"type": "t_mapping(t_address,t_uint256)"
					},
					{
						"astId": 692,
						"contract": "Heliocontracts/contracts/ceros/hBNB.sol:hBNB",
						"label": "_allowances",
						"offset": 0,
						"slot": "102",
						"type": "t_mapping(t_address,t_mapping(t_address,t_uint256))"
					},
					{
						"astId": 694,
						"contract": "Heliocontracts/contracts/ceros/hBNB.sol:hBNB",
						"label": "_totalSupply",
						"offset": 0,
						"slot": "103",
						"type": "t_uint256"
					},
					{
						"astId": 696,
						"contract": "Heliocontracts/contracts/ceros/hBNB.sol:hBNB",
						"label": "_name",
						"offset": 0,
						"slot": "104",
						"type": "t_string_storage"
					},
					{
						"astId": 698,
						"contract": "Heliocontracts/contracts/ceros/hBNB.sol:hBNB",
						"label": "_symbol",
						"offset": 0,
						"slot": "105",
						"type": "t_string_storage"
					},
					{
						"astId": 1006,
						"contract": "Heliocontracts/contracts/ceros/hBNB.sol:hBNB",
						"label": "__gap",
						"offset": 0,
						"slot": "106",
						"type": "t_array(t_uint256)45_storage"
					},
					{
						"astId": 1018,
						"contract": "Heliocontracts/contracts/ceros/hBNB.sol:hBNB",
						"label": "_minter",
						"offset": 0,
						"slot": "151",
						"type": "t_address"
					}
				],
				"types": {
					"t_address": {
						"encoding": "inplace",
						"label": "address",
						"numberOfBytes": "20"
					},
					"t_array(t_uint256)45_storage": {
						"base": "t_uint256",
						"encoding": "inplace",
						"label": "uint256[45]",
						"numberOfBytes": "1440"
					},
					"t_array(t_uint256)49_storage": {
						"base": "t_uint256",
						"encoding": "inplace",
						"label": "uint256[49]",
						"numberOfBytes": "1568"
					},
					"t_array(t_uint256)50_storage": {
						"base": "t_uint256",
						"encoding": "inplace",
						"label": "uint256[50]",
						"numberOfBytes": "1600"
					},
					"t_bool": {
						"encoding": "inplace",
						"label": "bool",
						"numberOfBytes": "1"
					},
					"t_mapping(t_address,t_mapping(t_address,t_uint256))": {
						"encoding": "mapping",
						"key": "t_address",
						"label": "mapping(address => mapping(address => uint256))",
						"numberOfBytes": "32",
						"value": "t_mapping(t_address,t_uint256)"
					},
					"t_mapping(t_address,t_uint256)": {
						"encoding": "mapping",
						"key": "t_address",
						"label": "mapping(address => uint256)",
						"numberOfBytes": "32",
						"value": "t_uint256"
					},
					"t_string_storage": {
						"encoding": "bytes",
						"label": "string",
						"numberOfBytes": "32"
					},
					"t_uint256": {
						"encoding": "inplace",
						"label": "uint256",
						"numberOfBytes": "32"
					},
					"t_uint8": {
						"encoding": "inplace",
						"label": "uint8",
						"numberOfBytes": "1"
					}
				}
			},
			"userdoc": {
				"events": {
					"MinterChanged(address)": {
						"notice": "Events"
					}
				},
				"kind": "user",
				"methods": {},
				"version": 1
			}
		}
	}
}