{
	"Heliocontracts/contracts/ceros/upgrades/CeVaultV2.sol": {
		"CeVaultV2": {
			"abi": [
				{
					"anonymous": false,
					"inputs": [
						{
							"indexed": false,
							"internalType": "address",
							"name": "oldToken",
							"type": "address"
						},
						{
							"indexed": false,
							"internalType": "address",
							"name": "newToken",
							"type": "address"
						}
					],
					"name": "CeTokenChanged",
					"type": "event"
				},
				{
					"anonymous": false,
					"inputs": [
						{
							"indexed": true,
							"internalType": "address",
							"name": "owner",
							"type": "address"
						},
						{
							"indexed": true,
							"internalType": "address",
							"name": "recipient",
							"type": "address"
						},
						{
							"indexed": false,
							"internalType": "uint256",
							"name": "value",
							"type": "uint256"
						}
					],
					"name": "Claimed",
					"type": "event"
				},
				{
					"anonymous": false,
					"inputs": [
						{
							"indexed": true,
							"internalType": "address",
							"name": "owner",
							"type": "address"
						},
						{
							"indexed": true,
							"internalType": "address",
							"name": "recipient",
							"type": "address"
						},
						{
							"indexed": false,
							"internalType": "uint256",
							"name": "value",
							"type": "uint256"
						}
					],
					"name": "Deposited",
					"type": "event"
				},
				{
					"anonymous": false,
					"inputs": [
						{
							"indexed": false,
							"internalType": "uint8",
							"name": "version",
							"type": "uint8"
						}
					],
					"name": "Initialized",
					"type": "event"
				},
				{
					"anonymous": false,
					"inputs": [
						{
							"indexed": true,
							"internalType": "address",
							"name": "previousOwner",
							"type": "address"
						},
						{
							"indexed": true,
							"internalType": "address",
							"name": "newOwner",
							"type": "address"
						}
					],
					"name": "OwnershipTransferred",
					"type": "event"
				},
				{
					"anonymous": false,
					"inputs": [
						{
							"indexed": false,
							"internalType": "address",
							"name": "account",
							"type": "address"
						}
					],
					"name": "Paused",
					"type": "event"
				},
				{
					"anonymous": false,
					"inputs": [
						{
							"indexed": false,
							"internalType": "uint256",
							"name": "currentRatio",
							"type": "uint256"
						}
					],
					"name": "RatioUpdated",
					"type": "event"
				},
				{
					"anonymous": false,
					"inputs": [
						{
							"indexed": false,
							"internalType": "address",
							"name": "router",
							"type": "address"
						}
					],
					"name": "RouterChanged",
					"type": "event"
				},
				{
					"anonymous": false,
					"inputs": [
						{
							"indexed": false,
							"internalType": "address",
							"name": "account",
							"type": "address"
						}
					],
					"name": "Unpaused",
					"type": "event"
				},
				{
					"anonymous": false,
					"inputs": [
						{
							"indexed": true,
							"internalType": "address",
							"name": "owner",
							"type": "address"
						},
						{
							"indexed": true,
							"internalType": "address",
							"name": "recipient",
							"type": "address"
						},
						{
							"indexed": false,
							"internalType": "uint256",
							"name": "value",
							"type": "uint256"
						}
					],
					"name": "Withdrawn",
					"type": "event"
				},
				{
					"inputs": [
						{
							"internalType": "address",
							"name": "ceTokenAddress",
							"type": "address"
						}
					],
					"name": "changeCeToken",
					"outputs": [],
					"stateMutability": "nonpayable",
					"type": "function"
				},
				{
					"inputs": [
						{
							"internalType": "address",
							"name": "router",
							"type": "address"
						}
					],
					"name": "changeRouter",
					"outputs": [],
					"stateMutability": "nonpayable",
					"type": "function"
				},
				{
					"inputs": [
						{
							"internalType": "address",
							"name": "recipient",
							"type": "address"
						}
					],
					"name": "claimYields",
					"outputs": [
						{
							"internalType": "uint256",
							"name": "",
							"type": "uint256"
						}
					],
					"stateMutability": "nonpayable",
					"type": "function"
				},
				{
					"inputs": [
						{
							"internalType": "address",
							"name": "owner",
							"type": "address"
						},
						{
							"internalType": "address",
							"name": "recipient",
							"type": "address"
						}
					],
					"name": "claimYieldsFor",
					"outputs": [
						{
							"internalType": "uint256",
							"name": "",
							"type": "uint256"
						}
					],
					"stateMutability": "nonpayable",
					"type": "function"
				},
				{
					"inputs": [
						{
							"internalType": "uint256",
							"name": "amount",
							"type": "uint256"
						}
					],
					"name": "deposit",
					"outputs": [
						{
							"internalType": "uint256",
							"name": "",
							"type": "uint256"
						}
					],
					"stateMutability": "nonpayable",
					"type": "function"
				},
				{
					"inputs": [
						{
							"internalType": "address",
							"name": "recipient",
							"type": "address"
						},
						{
							"internalType": "uint256",
							"name": "amount",
							"type": "uint256"
						}
					],
					"name": "depositFor",
					"outputs": [
						{
							"internalType": "uint256",
							"name": "",
							"type": "uint256"
						}
					],
					"stateMutability": "nonpayable",
					"type": "function"
				},
				{
					"inputs": [],
					"name": "getAbnbcAddress",
					"outputs": [
						{
							"internalType": "address",
							"name": "",
							"type": "address"
						}
					],
					"stateMutability": "view",
					"type": "function"
				},
				{
					"inputs": [],
					"name": "getCeToken",
					"outputs": [
						{
							"internalType": "address",
							"name": "",
							"type": "address"
						}
					],
					"stateMutability": "view",
					"type": "function"
				},
				{
					"inputs": [
						{
							"internalType": "address",
							"name": "account",
							"type": "address"
						}
					],
					"name": "getCeTokenBalanceOf",
					"outputs": [
						{
							"internalType": "uint256",
							"name": "",
							"type": "uint256"
						}
					],
					"stateMutability": "view",
					"type": "function"
				},
				{
					"inputs": [
						{
							"internalType": "address",
							"name": "account",
							"type": "address"
						}
					],
					"name": "getClaimedOf",
					"outputs": [
						{
							"internalType": "uint256",
							"name": "",
							"type": "uint256"
						}
					],
					"stateMutability": "view",
					"type": "function"
				},
				{
					"inputs": [
						{
							"internalType": "address",
							"name": "account",
							"type": "address"
						}
					],
					"name": "getDepositOf",
					"outputs": [
						{
							"internalType": "uint256",
							"name": "",
							"type": "uint256"
						}
					],
					"stateMutability": "view",
					"type": "function"
				},
				{
					"inputs": [],
					"name": "getName",
					"outputs": [
						{
							"internalType": "string",
							"name": "",
							"type": "string"
						}
					],
					"stateMutability": "view",
					"type": "function"
				},
				{
					"inputs": [
						{
							"internalType": "address",
							"name": "account",
							"type": "address"
						}
					],
					"name": "getPrincipalOf",
					"outputs": [
						{
							"internalType": "uint256",
							"name": "",
							"type": "uint256"
						}
					],
					"stateMutability": "view",
					"type": "function"
				},
				{
					"inputs": [],
					"name": "getRouter",
					"outputs": [
						{
							"internalType": "address",
							"name": "",
							"type": "address"
						}
					],
					"stateMutability": "view",
					"type": "function"
				},
				{
					"inputs": [],
					"name": "getTotalAmountInVault",
					"outputs": [
						{
							"internalType": "uint256",
							"name": "",
							"type": "uint256"
						}
					],
					"stateMutability": "view",
					"type": "function"
				},
				{
					"inputs": [
						{
							"internalType": "address",
							"name": "account",
							"type": "address"
						}
					],
					"name": "getYieldFor",
					"outputs": [
						{
							"internalType": "uint256",
							"name": "",
							"type": "uint256"
						}
					],
					"stateMutability": "view",
					"type": "function"
				},
				{
					"inputs": [
						{
							"internalType": "string",
							"name": "name",
							"type": "string"
						},
						{
							"internalType": "address",
							"name": "ceTokenAddress",
							"type": "address"
						},
						{
							"internalType": "address",
							"name": "aBNBcAddress",
							"type": "address"
						}
					],
					"name": "initialize",
					"outputs": [],
					"stateMutability": "nonpayable",
					"type": "function"
				},
				{
					"inputs": [],
					"name": "owner",
					"outputs": [
						{
							"internalType": "address",
							"name": "",
							"type": "address"
						}
					],
					"stateMutability": "view",
					"type": "function"
				},
				{
					"inputs": [],
					"name": "paused",
					"outputs": [
						{
							"internalType": "bool",
							"name": "",
							"type": "bool"
						}
					],
					"stateMutability": "view",
					"type": "function"
				},
				{
					"inputs": [],
					"name": "renounceOwnership",
					"outputs": [],
					"stateMutability": "nonpayable",
					"type": "function"
				},
				{
					"inputs": [
						{
							"internalType": "address",
							"name": "newOwner",
							"type": "address"
						}
					],
					"name": "transferOwnership",
					"outputs": [],
					"stateMutability": "nonpayable",
					"type": "function"
				},
				{
					"inputs": [
						{
							"internalType": "address",
							"name": "recipient",
							"type": "address"
						},
						{
							"internalType": "uint256",
							"name": "amount",
							"type": "uint256"
						}
					],
					"name": "withdraw",
					"outputs": [
						{
							"internalType": "uint256",
							"name": "",
							"type": "uint256"
						}
					],
					"stateMutability": "nonpayable",
					"type": "function"
				},
				{
					"inputs": [
						{
							"internalType": "address",
							"name": "owner",
							"type": "address"
						},
						{
							"internalType": "address",
							"name": "recipient",
							"type": "address"
						},
						{
							"internalType": "uint256",
							"name": "amount",
							"type": "uint256"
						}
					],
					"name": "withdrawFor",
					"outputs": [
						{
							"internalType": "uint256",
							"name": "",
							"type": "uint256"
						}
					],
					"stateMutability": "nonpayable",
					"type": "function"
				}
			],
			"devdoc": {
				"kind": "dev",
				"methods": {
					"owner()": {
						"details": "Returns the address of the current owner."
					},
					"paused()": {
						"details": "Returns true if the contract is paused, and false otherwise."
					},
					"renounceOwnership()": {
						"details": "Leaves the contract without owner. It will not be possible to call `onlyOwner` functions anymore. Can only be called by the current owner. NOTE: Renouncing ownership will leave the contract without an owner, thereby removing any functionality that is only available to the owner."
					},
					"transferOwnership(address)": {
						"details": "Transfers ownership of the contract to a new account (`newOwner`). Can only be called by the current owner."
					}
				},
				"version": 1
			},
			"evm": {
				"assembly": "    /* \"Heliocontracts/contracts/ceros/upgrades/CeVaultV2.sol\":437:6804  contract CeVaultV2 is... */\n  mstore(0x40, 0x80)\n  callvalue\n  dup1\n  iszero\n  tag_1\n  jumpi\n  0x00\n  dup1\n  revert\ntag_1:\n  pop\n  dataSize(sub_0)\n  dup1\n  dataOffset(sub_0)\n  0x00\n  codecopy\n  0x00\n  return\nstop\n\nsub_0: assembly {\n        /* \"Heliocontracts/contracts/ceros/upgrades/CeVaultV2.sol\":437:6804  contract CeVaultV2 is... */\n      mstore(0x40, 0x80)\n      callvalue\n      dup1\n      iszero\n      tag_1\n      jumpi\n      0x00\n      dup1\n      revert\n    tag_1:\n      pop\n      jumpi(tag_2, lt(calldatasize, 0x04))\n      shr(0xe0, calldataload(0x00))\n      dup1\n      0x715018a6\n      gt\n      tag_26\n      jumpi\n      dup1\n      0xb4bf36b2\n      gt\n      tag_27\n      jumpi\n      dup1\n      0xb4bf36b2\n      eq\n      tag_20\n      jumpi\n      dup1\n      0xb6b55f25\n      eq\n      tag_21\n      jumpi\n      dup1\n      0xc96f0e01\n      eq\n      tag_22\n      jumpi\n      dup1\n      0xf2fde38b\n      eq\n      tag_23\n      jumpi\n      dup1\n      0xf3fef3a3\n      eq\n      tag_24\n      jumpi\n      dup1\n      0xfad83484\n      eq\n      tag_25\n      jumpi\n      jump(tag_2)\n    tag_27:\n      dup1\n      0x715018a6\n      eq\n      tag_14\n      jumpi\n      dup1\n      0x8da5cb5b\n      eq\n      tag_15\n      jumpi\n      dup1\n      0x9f1d9267\n      eq\n      tag_16\n      jumpi\n      dup1\n      0xaba317a9\n      eq\n      tag_17\n      jumpi\n      dup1\n      0xb0f479a1\n      eq\n      tag_18\n      jumpi\n      dup1\n      0xb36684ac\n      eq\n      tag_19\n      jumpi\n      jump(tag_2)\n    tag_26:\n      dup1\n      0x340ac20f\n      gt\n      tag_28\n      jumpi\n      dup1\n      0x340ac20f\n      eq\n      tag_8\n      jumpi\n      dup1\n      0x3fd44f17\n      eq\n      tag_9\n      jumpi\n      dup1\n      0x4226626a\n      eq\n      tag_10\n      jumpi\n      dup1\n      0x463fd1af\n      eq\n      tag_11\n      jumpi\n      dup1\n      0x5c975abb\n      eq\n      tag_12\n      jumpi\n      dup1\n      0x5d602c00\n      eq\n      tag_13\n      jumpi\n      jump(tag_2)\n    tag_28:\n      dup1\n      0x0c632bbe\n      eq\n      tag_3\n      jumpi\n      dup1\n      0x1101596c\n      eq\n      tag_4\n      jumpi\n      dup1\n      0x17d7de7c\n      eq\n      tag_5\n      jumpi\n      dup1\n      0x223888c1\n      eq\n      tag_6\n      jumpi\n      dup1\n      0x2f4f21e2\n      eq\n      tag_7\n      jumpi\n    tag_2:\n      0x00\n      dup1\n      revert\n        /* \"Heliocontracts/contracts/ceros/upgrades/CeVaultV2.sol\":6293:6387  function getCeToken() external view returns(address) {... */\n    tag_3:\n      tag_29\n      tag_30\n      jump\t// in\n    tag_29:\n      mload(0x40)\n      tag_31\n      swap2\n      swap1\n      tag_32\n      jump\t// in\n    tag_31:\n      mload(0x40)\n      dup1\n      swap2\n      sub\n      swap1\n      return\n        /* \"Heliocontracts/contracts/ceros/upgrades/CeVaultV2.sol\":2307:2503  function claimYieldsFor(address owner, address recipient)... */\n    tag_4:\n      tag_33\n      0x04\n      dup1\n      calldatasize\n      sub\n      dup2\n      add\n      swap1\n      tag_34\n      swap2\n      swap1\n      tag_35\n      jump\t// in\n    tag_34:\n      tag_36\n      jump\t// in\n    tag_33:\n      mload(0x40)\n      tag_37\n      swap2\n      swap1\n      tag_38\n      jump\t// in\n    tag_37:\n      mload(0x40)\n      dup1\n      swap2\n      sub\n      swap1\n      return\n        /* \"Heliocontracts/contracts/ceros/upgrades/CeVaultV2.sol\":6202:6288  function getName() external view returns (string memory) {... */\n    tag_5:\n      tag_39\n      tag_40\n      jump\t// in\n    tag_39:\n      mload(0x40)\n      tag_41\n      swap2\n      swap1\n      tag_42\n      jump\t// in\n    tag_41:\n      mload(0x40)\n      dup1\n      swap2\n      sub\n      swap1\n      return\n        /* \"Heliocontracts/contracts/ceros/upgrades/CeVaultV2.sol\":5244:5681  function getYieldFor(address account)... */\n    tag_6:\n      tag_43\n      0x04\n      dup1\n      calldatasize\n      sub\n      dup2\n      add\n      swap1\n      tag_44\n      swap2\n      swap1\n      tag_45\n      jump\t// in\n    tag_44:\n      tag_46\n      jump\t// in\n    tag_43:\n      mload(0x40)\n      tag_47\n      swap2\n      swap1\n      tag_38\n      jump\t// in\n    tag_47:\n      mload(0x40)\n      dup1\n      swap2\n      sub\n      swap1\n      return\n        /* \"Heliocontracts/contracts/ceros/upgrades/CeVaultV2.sol\":1582:1772  function depositFor(address recipient, uint256 amount)... */\n    tag_7:\n      tag_48\n      0x04\n      dup1\n      calldatasize\n      sub\n      dup2\n      add\n      swap1\n      tag_49\n      swap2\n      swap1\n      tag_50\n      jump\t// in\n    tag_49:\n      tag_51\n      jump\t// in\n    tag_48:\n      mload(0x40)\n      tag_52\n      swap2\n      swap1\n      tag_38\n      jump\t// in\n    tag_52:\n      mload(0x40)\n      dup1\n      swap2\n      sub\n      swap1\n      return\n        /* \"Heliocontracts/contracts/ceros/upgrades/CeVaultV2.sol\":6071:6197  function changeRouter(address router) external onlyOwner {... */\n    tag_8:\n      tag_53\n      0x04\n      dup1\n      calldatasize\n      sub\n      dup2\n      add\n      swap1\n      tag_54\n      swap2\n      swap1\n      tag_45\n      jump\t// in\n    tag_54:\n      tag_55\n      jump\t// in\n    tag_53:\n      stop\n        /* \"Heliocontracts/contracts/ceros/upgrades/CeVaultV2.sol\":6591:6802  function changeCeToken(address ceTokenAddress) external onlyOwner {... */\n    tag_9:\n      tag_56\n      0x04\n      dup1\n      calldatasize\n      sub\n      dup2\n      add\n      swap1\n      tag_57\n      swap2\n      swap1\n      tag_45\n      jump\t// in\n    tag_57:\n      tag_58\n      jump\t// in\n    tag_56:\n      stop\n        /* \"Heliocontracts/contracts/ceros/upgrades/CeVaultV2.sol\":5954:6066  function getClaimedOf(address account) external view returns (uint256) {... */\n    tag_10:\n      tag_59\n      0x04\n      dup1\n      calldatasize\n      sub\n      dup2\n      add\n      swap1\n      tag_60\n      swap2\n      swap1\n      tag_45\n      jump\t// in\n    tag_60:\n      tag_61\n      jump\t// in\n    tag_59:\n      mload(0x40)\n      tag_62\n      swap2\n      swap1\n      tag_38\n      jump\t// in\n    tag_62:\n      mload(0x40)\n      dup1\n      swap2\n      sub\n      swap1\n      return\n        /* \"Heliocontracts/contracts/ceros/upgrades/CeVaultV2.sol\":1045:1388  function initialize(... */\n    tag_11:\n      tag_63\n      0x04\n      dup1\n      calldatasize\n      sub\n      dup2\n      add\n      swap1\n      tag_64\n      swap2\n      swap1\n      tag_65\n      jump\t// in\n    tag_64:\n      tag_66\n      jump\t// in\n    tag_63:\n      stop\n        /* \"@openzeppelin/contracts-upgradeable/security/PausableUpgradeable.sol\":1858:1942  function paused() public view virtual returns (bool) {... */\n    tag_12:\n      tag_67\n      tag_68\n      jump\t// in\n    tag_67:\n      mload(0x40)\n      tag_69\n      swap2\n      swap1\n      tag_70\n      jump\t// in\n    tag_69:\n      mload(0x40)\n      dup1\n      swap2\n      sub\n      swap1\n      return\n        /* \"Heliocontracts/contracts/ceros/upgrades/CeVaultV2.sol\":5834:5949  function getDepositOf(address account) external view returns (uint256) {... */\n    tag_13:\n      tag_71\n      0x04\n      dup1\n      calldatasize\n      sub\n      dup2\n      add\n      swap1\n      tag_72\n      swap2\n      swap1\n      tag_45\n      jump\t// in\n    tag_72:\n      tag_73\n      jump\t// in\n    tag_71:\n      mload(0x40)\n      tag_74\n      swap2\n      swap1\n      tag_38\n      jump\t// in\n    tag_74:\n      mload(0x40)\n      dup1\n      swap2\n      sub\n      swap1\n      return\n        /* \"@openzeppelin/contracts-upgradeable/access/OwnableUpgradeable.sol\":2071:2172  function renounceOwnership() public virtual onlyOwner {... */\n    tag_14:\n      tag_75\n      tag_76\n      jump\t// in\n    tag_75:\n      stop\n        /* \"@openzeppelin/contracts-upgradeable/access/OwnableUpgradeable.sol\":1441:1526  function owner() public view virtual returns (address) {... */\n    tag_15:\n      tag_77\n      tag_78\n      jump\t// in\n    tag_77:\n      mload(0x40)\n      tag_79\n      swap2\n      swap1\n      tag_32\n      jump\t// in\n    tag_79:\n      mload(0x40)\n      dup1\n      swap2\n      sub\n      swap1\n      return\n        /* \"Heliocontracts/contracts/ceros/upgrades/CeVaultV2.sol\":3385:3605  function withdrawFor(... */\n    tag_16:\n      tag_80\n      0x04\n      dup1\n      calldatasize\n      sub\n      dup2\n      add\n      swap1\n      tag_81\n      swap2\n      swap1\n      tag_82\n      jump\t// in\n    tag_81:\n      tag_83\n      jump\t// in\n    tag_80:\n      mload(0x40)\n      tag_84\n      swap2\n      swap1\n      tag_38\n      jump\t// in\n    tag_84:\n      mload(0x40)\n      dup1\n      swap2\n      sub\n      swap1\n      return\n        /* \"Heliocontracts/contracts/ceros/upgrades/CeVaultV2.sol\":4804:5024  function getPrincipalOf(address account)... */\n    tag_17:\n      tag_85\n      0x04\n      dup1\n      calldatasize\n      sub\n      dup2\n      add\n      swap1\n      tag_86\n      swap2\n      swap1\n      tag_45\n      jump\t// in\n    tag_86:\n      tag_87\n      jump\t// in\n    tag_85:\n      mload(0x40)\n      tag_88\n      swap2\n      swap1\n      tag_38\n      jump\t// in\n    tag_88:\n      mload(0x40)\n      dup1\n      swap2\n      sub\n      swap1\n      return\n        /* \"Heliocontracts/contracts/ceros/upgrades/CeVaultV2.sol\":6494:6586  function getRouter() external view returns(address) {... */\n    tag_18:\n      tag_89\n      tag_90\n      jump\t// in\n    tag_89:\n      mload(0x40)\n      tag_91\n      swap2\n      swap1\n      tag_32\n      jump\t// in\n    tag_91:\n      mload(0x40)\n      dup1\n      swap2\n      sub\n      swap1\n      return\n        /* \"Heliocontracts/contracts/ceros/upgrades/CeVaultV2.sol\":2527:2695  function claimYields(address recipient)... */\n    tag_19:\n      tag_92\n      0x04\n      dup1\n      calldatasize\n      sub\n      dup2\n      add\n      swap1\n      tag_93\n      swap2\n      swap1\n      tag_45\n      jump\t// in\n    tag_93:\n      tag_94\n      jump\t// in\n    tag_92:\n      mload(0x40)\n      tag_95\n      swap2\n      swap1\n      tag_38\n      jump\t// in\n    tag_95:\n      mload(0x40)\n      dup1\n      swap2\n      sub\n      swap1\n      return\n        /* \"Heliocontracts/contracts/ceros/upgrades/CeVaultV2.sol\":6392:6489  function getAbnbcAddress() external view returns(address) {... */\n    tag_20:\n      tag_96\n      tag_97\n      jump\t// in\n    tag_96:\n      mload(0x40)\n      tag_98\n      swap2\n      swap1\n      tag_32\n      jump\t// in\n    tag_98:\n      mload(0x40)\n      dup1\n      swap2\n      sub\n      swap1\n      return\n        /* \"Heliocontracts/contracts/ceros/upgrades/CeVaultV2.sol\":1408:1562  function deposit(uint256 amount)... */\n    tag_21:\n      tag_99\n      0x04\n      dup1\n      calldatasize\n      sub\n      dup2\n      add\n      swap1\n      tag_100\n      swap2\n      swap1\n      tag_101\n      jump\t// in\n    tag_100:\n      tag_102\n      jump\t// in\n    tag_99:\n      mload(0x40)\n      tag_103\n      swap2\n      swap1\n      tag_38\n      jump\t// in\n    tag_103:\n      mload(0x40)\n      dup1\n      swap2\n      sub\n      swap1\n      return\n        /* \"Heliocontracts/contracts/ceros/upgrades/CeVaultV2.sol\":5686:5829  function getCeTokenBalanceOf(address account)... */\n    tag_22:\n      tag_104\n      0x04\n      dup1\n      calldatasize\n      sub\n      dup2\n      add\n      swap1\n      tag_105\n      swap2\n      swap1\n      tag_45\n      jump\t// in\n    tag_105:\n      tag_106\n      jump\t// in\n    tag_104:\n      mload(0x40)\n      tag_107\n      swap2\n      swap1\n      tag_38\n      jump\t// in\n    tag_107:\n      mload(0x40)\n      dup1\n      swap2\n      sub\n      swap1\n      return\n        /* \"@openzeppelin/contracts-upgradeable/access/OwnableUpgradeable.sol\":2321:2519  function transferOwnership(address newOwner) public virtual onlyOwner {... */\n    tag_23:\n      tag_108\n      0x04\n      dup1\n      calldatasize\n      sub\n      dup2\n      add\n      swap1\n      tag_109\n      swap2\n      swap1\n      tag_45\n      jump\t// in\n    tag_109:\n      tag_110\n      jump\t// in\n    tag_108:\n      stop\n        /* \"Heliocontracts/contracts/ceros/upgrades/CeVaultV2.sol\":3178:3364  function withdraw(address recipient, uint256 amount)... */\n    tag_24:\n      tag_111\n      0x04\n      dup1\n      calldatasize\n      sub\n      dup2\n      add\n      swap1\n      tag_112\n      swap2\n      swap1\n      tag_50\n      jump\t// in\n    tag_112:\n      tag_113\n      jump\t// in\n    tag_111:\n      mload(0x40)\n      tag_114\n      swap2\n      swap1\n      tag_38\n      jump\t// in\n    tag_114:\n      mload(0x40)\n      dup1\n      swap2\n      sub\n      swap1\n      return\n        /* \"Heliocontracts/contracts/ceros/upgrades/CeVaultV2.sol\":4397:4526  function getTotalAmountInVault() external view override returns (uint256) {... */\n    tag_25:\n      tag_115\n      tag_116\n      jump\t// in\n    tag_115:\n      mload(0x40)\n      tag_117\n      swap2\n      swap1\n      tag_38\n      jump\t// in\n    tag_117:\n      mload(0x40)\n      dup1\n      swap2\n      sub\n      swap1\n      return\n        /* \"Heliocontracts/contracts/ceros/upgrades/CeVaultV2.sol\":6293:6387  function getCeToken() external view returns(address) {... */\n    tag_30:\n        /* \"Heliocontracts/contracts/ceros/upgrades/CeVaultV2.sol\":6337:6344  address */\n      0x00\n        /* \"Heliocontracts/contracts/ceros/upgrades/CeVaultV2.sol\":6371:6379  _ceToken */\n      0xca\n      0x00\n      swap1\n      sload\n      swap1\n      0x0100\n      exp\n      swap1\n      div\n      0xffffffffffffffffffffffffffffffffffffffff\n      and\n        /* \"Heliocontracts/contracts/ceros/upgrades/CeVaultV2.sol\":6356:6380  return address(_ceToken) */\n      swap1\n      pop\n        /* \"Heliocontracts/contracts/ceros/upgrades/CeVaultV2.sol\":6293:6387  function getCeToken() external view returns(address) {... */\n      swap1\n      jump\t// out\n        /* \"Heliocontracts/contracts/ceros/upgrades/CeVaultV2.sol\":2307:2503  function claimYieldsFor(address owner, address recipient)... */\n    tag_36:\n        /* \"Heliocontracts/contracts/ceros/upgrades/CeVaultV2.sol\":2436:2443  uint256 */\n      0x00\n        /* \"Heliocontracts/contracts/ceros/upgrades/CeVaultV2.sol\":991:998  _router */\n      0xcc\n      0x00\n      swap1\n      sload\n      swap1\n      0x0100\n      exp\n      swap1\n      div\n      0xffffffffffffffffffffffffffffffffffffffff\n      and\n        /* \"Heliocontracts/contracts/ceros/upgrades/CeVaultV2.sol\":977:998  msg.sender == _router */\n      0xffffffffffffffffffffffffffffffffffffffff\n      and\n        /* \"Heliocontracts/contracts/ceros/upgrades/CeVaultV2.sol\":977:987  msg.sender */\n      caller\n        /* \"Heliocontracts/contracts/ceros/upgrades/CeVaultV2.sol\":977:998  msg.sender == _router */\n      0xffffffffffffffffffffffffffffffffffffffff\n      and\n      eq\n        /* \"Heliocontracts/contracts/ceros/upgrades/CeVaultV2.sol\":969:1022  require(msg.sender == _router, \"Router: not allowed\") */\n      tag_120\n      jumpi\n      mload(0x40)\n      0x08c379a000000000000000000000000000000000000000000000000000000000\n      dup2\n      mstore\n      0x04\n      add\n      tag_121\n      swap1\n      tag_122\n      jump\t// in\n    tag_121:\n      mload(0x40)\n      dup1\n      swap2\n      sub\n      swap1\n      revert\n    tag_120:\n        /* \"@openzeppelin/contracts-upgradeable/security/ReentrancyGuardUpgradeable.sol\":1815:1816  2 */\n      0x02\n        /* \"@openzeppelin/contracts-upgradeable/security/ReentrancyGuardUpgradeable.sol\":2569:2576  _status */\n      sload(0x97)\n        /* \"@openzeppelin/contracts-upgradeable/security/ReentrancyGuardUpgradeable.sol\":2569:2588  _status != _ENTERED */\n      eq\n      iszero\n        /* \"@openzeppelin/contracts-upgradeable/security/ReentrancyGuardUpgradeable.sol\":2561:2624  require(_status != _ENTERED, \"ReentrancyGuard: reentrant call\") */\n      tag_124\n      jumpi\n      mload(0x40)\n      0x08c379a000000000000000000000000000000000000000000000000000000000\n      dup2\n      mstore\n      0x04\n      add\n      tag_125\n      swap1\n      tag_126\n      jump\t// in\n    tag_125:\n      mload(0x40)\n      dup1\n      swap2\n      sub\n      swap1\n      revert\n    tag_124:\n        /* \"@openzeppelin/contracts-upgradeable/security/ReentrancyGuardUpgradeable.sol\":1815:1816  2 */\n      0x02\n        /* \"@openzeppelin/contracts-upgradeable/security/ReentrancyGuardUpgradeable.sol\":2699:2706  _status */\n      0x97\n        /* \"@openzeppelin/contracts-upgradeable/security/ReentrancyGuardUpgradeable.sol\":2699:2717  _status = _ENTERED */\n      dup2\n      swap1\n      sstore\n      pop\n        /* \"Heliocontracts/contracts/ceros/upgrades/CeVaultV2.sol\":2466:2496  _claimYields(owner, recipient) */\n      tag_128\n        /* \"Heliocontracts/contracts/ceros/upgrades/CeVaultV2.sol\":2479:2484  owner */\n      dup4\n        /* \"Heliocontracts/contracts/ceros/upgrades/CeVaultV2.sol\":2486:2495  recipient */\n      dup4\n        /* \"Heliocontracts/contracts/ceros/upgrades/CeVaultV2.sol\":2466:2478  _claimYields */\n      tag_129\n        /* \"Heliocontracts/contracts/ceros/upgrades/CeVaultV2.sol\":2466:2496  _claimYields(owner, recipient) */\n      jump\t// in\n    tag_128:\n        /* \"Heliocontracts/contracts/ceros/upgrades/CeVaultV2.sol\":2459:2496  return _claimYields(owner, recipient) */\n      swap1\n      pop\n        /* \"@openzeppelin/contracts-upgradeable/security/ReentrancyGuardUpgradeable.sol\":1772:1773  1 */\n      0x01\n        /* \"@openzeppelin/contracts-upgradeable/security/ReentrancyGuardUpgradeable.sol\":2872:2879  _status */\n      0x97\n        /* \"@openzeppelin/contracts-upgradeable/security/ReentrancyGuardUpgradeable.sol\":2872:2894  _status = _NOT_ENTERED */\n      dup2\n      swap1\n      sstore\n      pop\n        /* \"Heliocontracts/contracts/ceros/upgrades/CeVaultV2.sol\":2307:2503  function claimYieldsFor(address owner, address recipient)... */\n      swap3\n      swap2\n      pop\n      pop\n      jump\t// out\n        /* \"Heliocontracts/contracts/ceros/upgrades/CeVaultV2.sol\":6202:6288  function getName() external view returns (string memory) {... */\n    tag_40:\n        /* \"Heliocontracts/contracts/ceros/upgrades/CeVaultV2.sol\":6244:6257  string memory */\n      0x60\n        /* \"Heliocontracts/contracts/ceros/upgrades/CeVaultV2.sol\":6276:6281  _name */\n      0xc9\n        /* \"Heliocontracts/contracts/ceros/upgrades/CeVaultV2.sol\":6269:6281  return _name */\n      dup1\n      sload\n      tag_131\n      swap1\n      tag_132\n      jump\t// in\n    tag_131:\n      dup1\n      0x1f\n      add\n      0x20\n      dup1\n      swap2\n      div\n      mul\n      0x20\n      add\n      mload(0x40)\n      swap1\n      dup2\n      add\n      0x40\n      mstore\n      dup1\n      swap3\n      swap2\n      swap1\n      dup2\n      dup2\n      mstore\n      0x20\n      add\n      dup3\n      dup1\n      sload\n      tag_133\n      swap1\n      tag_132\n      jump\t// in\n    tag_133:\n      dup1\n      iszero\n      tag_134\n      jumpi\n      dup1\n      0x1f\n      lt\n      tag_135\n      jumpi\n      0x0100\n      dup1\n      dup4\n      sload\n      div\n      mul\n      dup4\n      mstore\n      swap2\n      0x20\n      add\n      swap2\n      jump(tag_134)\n    tag_135:\n      dup3\n      add\n      swap2\n      swap1\n      0x00\n      mstore\n      keccak256(0x00, 0x20)\n      swap1\n    tag_136:\n      dup2\n      sload\n      dup2\n      mstore\n      swap1\n      0x01\n      add\n      swap1\n      0x20\n      add\n      dup1\n      dup4\n      gt\n      tag_136\n      jumpi\n      dup3\n      swap1\n      sub\n      0x1f\n      and\n      dup3\n      add\n      swap2\n    tag_134:\n      pop\n      pop\n      pop\n      pop\n      pop\n      swap1\n      pop\n        /* \"Heliocontracts/contracts/ceros/upgrades/CeVaultV2.sol\":6202:6288  function getName() external view returns (string memory) {... */\n      swap1\n      jump\t// out\n        /* \"Heliocontracts/contracts/ceros/upgrades/CeVaultV2.sol\":5244:5681  function getYieldFor(address account)... */\n    tag_46:\n        /* \"Heliocontracts/contracts/ceros/upgrades/CeVaultV2.sol\":5330:5337  uint256 */\n      0x00\n        /* \"Heliocontracts/contracts/ceros/upgrades/CeVaultV2.sol\":5353:5370  uint256 principal */\n      dup1\n        /* \"Heliocontracts/contracts/ceros/upgrades/CeVaultV2.sol\":5373:5377  this */\n      address\n        /* \"Heliocontracts/contracts/ceros/upgrades/CeVaultV2.sol\":5373:5392  this.getPrincipalOf */\n      0xffffffffffffffffffffffffffffffffffffffff\n      and\n      0xaba317a9\n        /* \"Heliocontracts/contracts/ceros/upgrades/CeVaultV2.sol\":5393:5400  account */\n      dup5\n        /* \"Heliocontracts/contracts/ceros/upgrades/CeVaultV2.sol\":5373:5401  this.getPrincipalOf(account) */\n      mload(0x40)\n      dup3\n      0xffffffff\n      and\n      0xe0\n      shl\n      dup2\n      mstore\n      0x04\n      add\n      tag_138\n      swap2\n      swap1\n      tag_32\n      jump\t// in\n    tag_138:\n      0x20\n      mload(0x40)\n      dup1\n      dup4\n      sub\n      dup2\n      dup7\n      gas\n      staticcall\n      iszero\n      dup1\n      iszero\n      tag_140\n      jumpi\n      returndatasize\n      0x00\n      dup1\n      returndatacopy\n      revert(0x00, returndatasize)\n    tag_140:\n      pop\n      pop\n      pop\n      pop\n      mload(0x40)\n      returndatasize\n      not(0x1f)\n      0x1f\n      dup3\n      add\n      and\n      dup3\n      add\n      dup1\n      0x40\n      mstore\n      pop\n      dup2\n      add\n      swap1\n      tag_141\n      swap2\n      swap1\n      tag_142\n      jump\t// in\n    tag_141:\n        /* \"Heliocontracts/contracts/ceros/upgrades/CeVaultV2.sol\":5353:5401  uint256 principal = this.getPrincipalOf(account) */\n      swap1\n      pop\n        /* \"Heliocontracts/contracts/ceros/upgrades/CeVaultV2.sol\":5428:5439  _depositors */\n      0xce\n        /* \"Heliocontracts/contracts/ceros/upgrades/CeVaultV2.sol\":5428:5448  _depositors[account] */\n      0x00\n        /* \"Heliocontracts/contracts/ceros/upgrades/CeVaultV2.sol\":5440:5447  account */\n      dup5\n        /* \"Heliocontracts/contracts/ceros/upgrades/CeVaultV2.sol\":5428:5448  _depositors[account] */\n      0xffffffffffffffffffffffffffffffffffffffff\n      and\n      0xffffffffffffffffffffffffffffffffffffffff\n      and\n      dup2\n      mstore\n      0x20\n      add\n      swap1\n      dup2\n      mstore\n      0x20\n      add\n      0x00\n      keccak256\n      sload\n        /* \"Heliocontracts/contracts/ceros/upgrades/CeVaultV2.sol\":5415:5424  principal */\n      dup2\n        /* \"Heliocontracts/contracts/ceros/upgrades/CeVaultV2.sol\":5415:5448  principal >= _depositors[account] */\n      lt\n        /* \"Heliocontracts/contracts/ceros/upgrades/CeVaultV2.sol\":5411:5483  if (principal >= _depositors[account]) {... */\n      tag_143\n      jumpi\n        /* \"Heliocontracts/contracts/ceros/upgrades/CeVaultV2.sol\":5471:5472  0 */\n      0x00\n        /* \"Heliocontracts/contracts/ceros/upgrades/CeVaultV2.sol\":5464:5472  return 0 */\n      swap2\n      pop\n      pop\n      jump(tag_137)\n        /* \"Heliocontracts/contracts/ceros/upgrades/CeVaultV2.sol\":5411:5483  if (principal >= _depositors[account]) {... */\n    tag_143:\n        /* \"Heliocontracts/contracts/ceros/upgrades/CeVaultV2.sol\":5492:5511  uint256 totalYields */\n      0x00\n        /* \"Heliocontracts/contracts/ceros/upgrades/CeVaultV2.sol\":5537:5546  principal */\n      dup2\n        /* \"Heliocontracts/contracts/ceros/upgrades/CeVaultV2.sol\":5514:5525  _depositors */\n      0xce\n        /* \"Heliocontracts/contracts/ceros/upgrades/CeVaultV2.sol\":5514:5534  _depositors[account] */\n      0x00\n        /* \"Heliocontracts/contracts/ceros/upgrades/CeVaultV2.sol\":5526:5533  account */\n      dup7\n        /* \"Heliocontracts/contracts/ceros/upgrades/CeVaultV2.sol\":5514:5534  _depositors[account] */\n      0xffffffffffffffffffffffffffffffffffffffff\n      and\n      0xffffffffffffffffffffffffffffffffffffffff\n      and\n      dup2\n      mstore\n      0x20\n      add\n      swap1\n      dup2\n      mstore\n      0x20\n      add\n      0x00\n      keccak256\n      sload\n        /* \"Heliocontracts/contracts/ceros/upgrades/CeVaultV2.sol\":5514:5546  _depositors[account] - principal */\n      tag_144\n      swap2\n      swap1\n      tag_145\n      jump\t// in\n    tag_144:\n        /* \"Heliocontracts/contracts/ceros/upgrades/CeVaultV2.sol\":5492:5546  uint256 totalYields = _depositors[account] - principal */\n      swap1\n      pop\n        /* \"Heliocontracts/contracts/ceros/upgrades/CeVaultV2.sol\":5575:5583  _claimed */\n      0xcd\n        /* \"Heliocontracts/contracts/ceros/upgrades/CeVaultV2.sol\":5575:5592  _claimed[account] */\n      0x00\n        /* \"Heliocontracts/contracts/ceros/upgrades/CeVaultV2.sol\":5584:5591  account */\n      dup6\n        /* \"Heliocontracts/contracts/ceros/upgrades/CeVaultV2.sol\":5575:5592  _claimed[account] */\n      0xffffffffffffffffffffffffffffffffffffffff\n      and\n      0xffffffffffffffffffffffffffffffffffffffff\n      and\n      dup2\n      mstore\n      0x20\n      add\n      swap1\n      dup2\n      mstore\n      0x20\n      add\n      0x00\n      keccak256\n      sload\n        /* \"Heliocontracts/contracts/ceros/upgrades/CeVaultV2.sol\":5560:5571  totalYields */\n      dup2\n        /* \"Heliocontracts/contracts/ceros/upgrades/CeVaultV2.sol\":5560:5592  totalYields <= _claimed[account] */\n      gt\n        /* \"Heliocontracts/contracts/ceros/upgrades/CeVaultV2.sol\":5556:5627  if (totalYields <= _claimed[account]) {... */\n      tag_146\n      jumpi\n        /* \"Heliocontracts/contracts/ceros/upgrades/CeVaultV2.sol\":5615:5616  0 */\n      0x00\n        /* \"Heliocontracts/contracts/ceros/upgrades/CeVaultV2.sol\":5608:5616  return 0 */\n      swap3\n      pop\n      pop\n      pop\n      jump(tag_137)\n        /* \"Heliocontracts/contracts/ceros/upgrades/CeVaultV2.sol\":5556:5627  if (totalYields <= _claimed[account]) {... */\n    tag_146:\n        /* \"Heliocontracts/contracts/ceros/upgrades/CeVaultV2.sol\":5657:5665  _claimed */\n      0xcd\n        /* \"Heliocontracts/contracts/ceros/upgrades/CeVaultV2.sol\":5657:5674  _claimed[account] */\n      0x00\n        /* \"Heliocontracts/contracts/ceros/upgrades/CeVaultV2.sol\":5666:5673  account */\n      dup6\n        /* \"Heliocontracts/contracts/ceros/upgrades/CeVaultV2.sol\":5657:5674  _claimed[account] */\n      0xffffffffffffffffffffffffffffffffffffffff\n      and\n      0xffffffffffffffffffffffffffffffffffffffff\n      and\n      dup2\n      mstore\n      0x20\n      add\n      swap1\n      dup2\n      mstore\n      0x20\n      add\n      0x00\n      keccak256\n      sload\n        /* \"Heliocontracts/contracts/ceros/upgrades/CeVaultV2.sol\":5643:5654  totalYields */\n      dup2\n        /* \"Heliocontracts/contracts/ceros/upgrades/CeVaultV2.sol\":5643:5674  totalYields - _claimed[account] */\n      tag_147\n      swap2\n      swap1\n      tag_145\n      jump\t// in\n    tag_147:\n        /* \"Heliocontracts/contracts/ceros/upgrades/CeVaultV2.sol\":5636:5674  return totalYields - _claimed[account] */\n      swap3\n      pop\n      pop\n      pop\n        /* \"Heliocontracts/contracts/ceros/upgrades/CeVaultV2.sol\":5244:5681  function getYieldFor(address account)... */\n    tag_137:\n      swap2\n      swap1\n      pop\n      jump\t// out\n        /* \"Heliocontracts/contracts/ceros/upgrades/CeVaultV2.sol\":1582:1772  function depositFor(address recipient, uint256 amount)... */\n    tag_51:\n        /* \"Heliocontracts/contracts/ceros/upgrades/CeVaultV2.sol\":1708:1715  uint256 */\n      0x00\n        /* \"@openzeppelin/contracts-upgradeable/security/ReentrancyGuardUpgradeable.sol\":1815:1816  2 */\n      0x02\n        /* \"@openzeppelin/contracts-upgradeable/security/ReentrancyGuardUpgradeable.sol\":2569:2576  _status */\n      sload(0x97)\n        /* \"@openzeppelin/contracts-upgradeable/security/ReentrancyGuardUpgradeable.sol\":2569:2588  _status != _ENTERED */\n      eq\n      iszero\n        /* \"@openzeppelin/contracts-upgradeable/security/ReentrancyGuardUpgradeable.sol\":2561:2624  require(_status != _ENTERED, \"ReentrancyGuard: reentrant call\") */\n      tag_149\n      jumpi\n      mload(0x40)\n      0x08c379a000000000000000000000000000000000000000000000000000000000\n      dup2\n      mstore\n      0x04\n      add\n      tag_150\n      swap1\n      tag_126\n      jump\t// in\n    tag_150:\n      mload(0x40)\n      dup1\n      swap2\n      sub\n      swap1\n      revert\n    tag_149:\n        /* \"@openzeppelin/contracts-upgradeable/security/ReentrancyGuardUpgradeable.sol\":1815:1816  2 */\n      0x02\n        /* \"@openzeppelin/contracts-upgradeable/security/ReentrancyGuardUpgradeable.sol\":2699:2706  _status */\n      0x97\n        /* \"@openzeppelin/contracts-upgradeable/security/ReentrancyGuardUpgradeable.sol\":2699:2717  _status = _ENTERED */\n      dup2\n      swap1\n      sstore\n      pop\n        /* \"Heliocontracts/contracts/ceros/upgrades/CeVaultV2.sol\":991:998  _router */\n      0xcc\n      0x00\n      swap1\n      sload\n      swap1\n      0x0100\n      exp\n      swap1\n      div\n      0xffffffffffffffffffffffffffffffffffffffff\n      and\n        /* \"Heliocontracts/contracts/ceros/upgrades/CeVaultV2.sol\":977:998  msg.sender == _router */\n      0xffffffffffffffffffffffffffffffffffffffff\n      and\n        /* \"Heliocontracts/contracts/ceros/upgrades/CeVaultV2.sol\":977:987  msg.sender */\n      caller\n        /* \"Heliocontracts/contracts/ceros/upgrades/CeVaultV2.sol\":977:998  msg.sender == _router */\n      0xffffffffffffffffffffffffffffffffffffffff\n      and\n      eq\n        /* \"Heliocontracts/contracts/ceros/upgrades/CeVaultV2.sol\":969:1022  require(msg.sender == _router, \"Router: not allowed\") */\n      tag_152\n      jumpi\n      mload(0x40)\n      0x08c379a000000000000000000000000000000000000000000000000000000000\n      dup2\n      mstore\n      0x04\n      add\n      tag_153\n      swap1\n      tag_122\n      jump\t// in\n    tag_153:\n      mload(0x40)\n      dup1\n      swap2\n      sub\n      swap1\n      revert\n    tag_152:\n        /* \"Heliocontracts/contracts/ceros/upgrades/CeVaultV2.sol\":1738:1765  _deposit(recipient, amount) */\n      tag_155\n        /* \"Heliocontracts/contracts/ceros/upgrades/CeVaultV2.sol\":1747:1756  recipient */\n      dup4\n        /* \"Heliocontracts/contracts/ceros/upgrades/CeVaultV2.sol\":1758:1764  amount */\n      dup4\n        /* \"Heliocontracts/contracts/ceros/upgrades/CeVaultV2.sol\":1738:1746  _deposit */\n      tag_156\n        /* \"Heliocontracts/contracts/ceros/upgrades/CeVaultV2.sol\":1738:1765  _deposit(recipient, amount) */\n      jump\t// in\n    tag_155:\n        /* \"Heliocontracts/contracts/ceros/upgrades/CeVaultV2.sol\":1731:1765  return _deposit(recipient, amount) */\n      swap1\n      pop\n        /* \"@openzeppelin/contracts-upgradeable/security/ReentrancyGuardUpgradeable.sol\":1772:1773  1 */\n      0x01\n        /* \"@openzeppelin/contracts-upgradeable/security/ReentrancyGuardUpgradeable.sol\":2872:2879  _status */\n      0x97\n        /* \"@openzeppelin/contracts-upgradeable/security/ReentrancyGuardUpgradeable.sol\":2872:2894  _status = _NOT_ENTERED */\n      dup2\n      swap1\n      sstore\n      pop\n        /* \"Heliocontracts/contracts/ceros/upgrades/CeVaultV2.sol\":1582:1772  function depositFor(address recipient, uint256 amount)... */\n      swap3\n      swap2\n      pop\n      pop\n      jump\t// out\n        /* \"Heliocontracts/contracts/ceros/upgrades/CeVaultV2.sol\":6071:6197  function changeRouter(address router) external onlyOwner {... */\n    tag_55:\n        /* \"@openzeppelin/contracts-upgradeable/access/OwnableUpgradeable.sol\":1334:1347  _checkOwner() */\n      tag_158\n        /* \"@openzeppelin/contracts-upgradeable/access/OwnableUpgradeable.sol\":1334:1345  _checkOwner */\n      tag_159\n        /* \"@openzeppelin/contracts-upgradeable/access/OwnableUpgradeable.sol\":1334:1347  _checkOwner() */\n      jump\t// in\n    tag_158:\n        /* \"Heliocontracts/contracts/ceros/upgrades/CeVaultV2.sol\":6148:6154  router */\n      dup1\n        /* \"Heliocontracts/contracts/ceros/upgrades/CeVaultV2.sol\":6138:6145  _router */\n      0xcc\n      0x00\n        /* \"Heliocontracts/contracts/ceros/upgrades/CeVaultV2.sol\":6138:6154  _router = router */\n      0x0100\n      exp\n      dup2\n      sload\n      dup2\n      0xffffffffffffffffffffffffffffffffffffffff\n      mul\n      not\n      and\n      swap1\n      dup4\n      0xffffffffffffffffffffffffffffffffffffffff\n      and\n      mul\n      or\n      swap1\n      sstore\n      pop\n        /* \"Heliocontracts/contracts/ceros/upgrades/CeVaultV2.sol\":6169:6190  RouterChanged(router) */\n      0x1085cec9a5108943412475d298086ae4d0abf09cfad47b05436b89fe887a820c\n        /* \"Heliocontracts/contracts/ceros/upgrades/CeVaultV2.sol\":6183:6189  router */\n      dup2\n        /* \"Heliocontracts/contracts/ceros/upgrades/CeVaultV2.sol\":6169:6190  RouterChanged(router) */\n      mload(0x40)\n      tag_161\n      swap2\n      swap1\n      tag_32\n      jump\t// in\n    tag_161:\n      mload(0x40)\n      dup1\n      swap2\n      sub\n      swap1\n      log1\n        /* \"Heliocontracts/contracts/ceros/upgrades/CeVaultV2.sol\":6071:6197  function changeRouter(address router) external onlyOwner {... */\n      pop\n      jump\t// out\n        /* \"Heliocontracts/contracts/ceros/upgrades/CeVaultV2.sol\":6591:6802  function changeCeToken(address ceTokenAddress) external onlyOwner {... */\n    tag_58:\n        /* \"@openzeppelin/contracts-upgradeable/access/OwnableUpgradeable.sol\":1334:1347  _checkOwner() */\n      tag_163\n        /* \"@openzeppelin/contracts-upgradeable/access/OwnableUpgradeable.sol\":1334:1345  _checkOwner */\n      tag_159\n        /* \"@openzeppelin/contracts-upgradeable/access/OwnableUpgradeable.sol\":1334:1347  _checkOwner() */\n      jump\t// in\n    tag_163:\n        /* \"Heliocontracts/contracts/ceros/upgrades/CeVaultV2.sol\":6667:6678  address old */\n      0x00\n        /* \"Heliocontracts/contracts/ceros/upgrades/CeVaultV2.sol\":6689:6697  _ceToken */\n      0xca\n      0x00\n      swap1\n      sload\n      swap1\n      0x0100\n      exp\n      swap1\n      div\n      0xffffffffffffffffffffffffffffffffffffffff\n      and\n        /* \"Heliocontracts/contracts/ceros/upgrades/CeVaultV2.sol\":6667:6698  address old = address(_ceToken) */\n      swap1\n      pop\n        /* \"Heliocontracts/contracts/ceros/upgrades/CeVaultV2.sol\":6730:6744  ceTokenAddress */\n      dup2\n        /* \"Heliocontracts/contracts/ceros/upgrades/CeVaultV2.sol\":6708:6716  _ceToken */\n      0xca\n      0x00\n        /* \"Heliocontracts/contracts/ceros/upgrades/CeVaultV2.sol\":6708:6745  _ceToken = ICertToken(ceTokenAddress) */\n      0x0100\n      exp\n      dup2\n      sload\n      dup2\n      0xffffffffffffffffffffffffffffffffffffffff\n      mul\n      not\n      and\n      swap1\n      dup4\n      0xffffffffffffffffffffffffffffffffffffffff\n      and\n      mul\n      or\n      swap1\n      sstore\n      pop\n        /* \"Heliocontracts/contracts/ceros/upgrades/CeVaultV2.sol\":6760:6795  CeTokenChanged(old, ceTokenAddress) */\n      0x51bf61fc8420b1c603da31d1959ed30f4ca655d7fbd40109fe822fb963dc75\n        /* \"Heliocontracts/contracts/ceros/upgrades/CeVaultV2.sol\":6775:6778  old */\n      dup2\n        /* \"Heliocontracts/contracts/ceros/upgrades/CeVaultV2.sol\":6780:6794  ceTokenAddress */\n      dup4\n        /* \"Heliocontracts/contracts/ceros/upgrades/CeVaultV2.sol\":6760:6795  CeTokenChanged(old, ceTokenAddress) */\n      mload(0x40)\n      tag_165\n      swap3\n      swap2\n      swap1\n      tag_166\n      jump\t// in\n    tag_165:\n      mload(0x40)\n      dup1\n      swap2\n      sub\n      swap1\n      log1\n        /* \"Heliocontracts/contracts/ceros/upgrades/CeVaultV2.sol\":6657:6802  {... */\n      pop\n        /* \"Heliocontracts/contracts/ceros/upgrades/CeVaultV2.sol\":6591:6802  function changeCeToken(address ceTokenAddress) external onlyOwner {... */\n      pop\n      jump\t// out\n        /* \"Heliocontracts/contracts/ceros/upgrades/CeVaultV2.sol\":5954:6066  function getClaimedOf(address account) external view returns (uint256) {... */\n    tag_61:\n        /* \"Heliocontracts/contracts/ceros/upgrades/CeVaultV2.sol\":6016:6023  uint256 */\n      0x00\n        /* \"Heliocontracts/contracts/ceros/upgrades/CeVaultV2.sol\":6042:6050  _claimed */\n      0xcd\n        /* \"Heliocontracts/contracts/ceros/upgrades/CeVaultV2.sol\":6042:6059  _claimed[account] */\n      0x00\n        /* \"Heliocontracts/contracts/ceros/upgrades/CeVaultV2.sol\":6051:6058  account */\n      dup4\n        /* \"Heliocontracts/contracts/ceros/upgrades/CeVaultV2.sol\":6042:6059  _claimed[account] */\n      0xffffffffffffffffffffffffffffffffffffffff\n      and\n      0xffffffffffffffffffffffffffffffffffffffff\n      and\n      dup2\n      mstore\n      0x20\n      add\n      swap1\n      dup2\n      mstore\n      0x20\n      add\n      0x00\n      keccak256\n      sload\n        /* \"Heliocontracts/contracts/ceros/upgrades/CeVaultV2.sol\":6035:6059  return _claimed[account] */\n      swap1\n      pop\n        /* \"Heliocontracts/contracts/ceros/upgrades/CeVaultV2.sol\":5954:6066  function getClaimedOf(address account) external view returns (uint256) {... */\n      swap2\n      swap1\n      pop\n      jump\t// out\n        /* \"Heliocontracts/contracts/ceros/upgrades/CeVaultV2.sol\":1045:1388  function initialize(... */\n    tag_66:\n        /* \"@openzeppelin/contracts-upgradeable/proxy/utils/Initializable.sol\":3111:3130  bool isTopLevelCall */\n      0x00\n        /* \"@openzeppelin/contracts-upgradeable/proxy/utils/Initializable.sol\":3134:3147  _initializing */\n      dup1\n      0x01\n      swap1\n      sload\n      swap1\n      0x0100\n      exp\n      swap1\n      div\n      0xff\n      and\n        /* \"@openzeppelin/contracts-upgradeable/proxy/utils/Initializable.sol\":3133:3147  !_initializing */\n      iszero\n        /* \"@openzeppelin/contracts-upgradeable/proxy/utils/Initializable.sol\":3111:3147  bool isTopLevelCall = !_initializing */\n      swap1\n      pop\n        /* \"@openzeppelin/contracts-upgradeable/proxy/utils/Initializable.sol\":3179:3193  isTopLevelCall */\n      dup1\n        /* \"@openzeppelin/contracts-upgradeable/proxy/utils/Initializable.sol\":3179:3213  isTopLevelCall && _initialized < 1 */\n      dup1\n      iszero\n      tag_169\n      jumpi\n      pop\n        /* \"@openzeppelin/contracts-upgradeable/proxy/utils/Initializable.sol\":3212:3213  1 */\n      0x01\n        /* \"@openzeppelin/contracts-upgradeable/proxy/utils/Initializable.sol\":3197:3209  _initialized */\n      0x00\n      dup1\n      sload\n      swap1\n      0x0100\n      exp\n      swap1\n      div\n      0xff\n      and\n        /* \"@openzeppelin/contracts-upgradeable/proxy/utils/Initializable.sol\":3197:3213  _initialized < 1 */\n      0xff\n      and\n      lt\n        /* \"@openzeppelin/contracts-upgradeable/proxy/utils/Initializable.sol\":3179:3213  isTopLevelCall && _initialized < 1 */\n    tag_169:\n        /* \"@openzeppelin/contracts-upgradeable/proxy/utils/Initializable.sol\":3178:3286  (isTopLevelCall && _initialized < 1) || (!AddressUpgradeable.isContract(address(this)) && _initialized == 1) */\n      dup1\n      tag_170\n      jumpi\n      pop\n        /* \"@openzeppelin/contracts-upgradeable/proxy/utils/Initializable.sol\":3220:3264  AddressUpgradeable.isContract(address(this)) */\n      tag_171\n        /* \"@openzeppelin/contracts-upgradeable/proxy/utils/Initializable.sol\":3258:3262  this */\n      address\n        /* \"@openzeppelin/contracts-upgradeable/proxy/utils/Initializable.sol\":3220:3249  AddressUpgradeable.isContract */\n      tag_172\n        /* \"@openzeppelin/contracts-upgradeable/proxy/utils/Initializable.sol\":3220:3264  AddressUpgradeable.isContract(address(this)) */\n      jump\t// in\n    tag_171:\n        /* \"@openzeppelin/contracts-upgradeable/proxy/utils/Initializable.sol\":3219:3264  !AddressUpgradeable.isContract(address(this)) */\n      iszero\n        /* \"@openzeppelin/contracts-upgradeable/proxy/utils/Initializable.sol\":3219:3285  !AddressUpgradeable.isContract(address(this)) && _initialized == 1 */\n      dup1\n      iszero\n      tag_173\n      jumpi\n      pop\n        /* \"@openzeppelin/contracts-upgradeable/proxy/utils/Initializable.sol\":3284:3285  1 */\n      0x01\n        /* \"@openzeppelin/contracts-upgradeable/proxy/utils/Initializable.sol\":3268:3280  _initialized */\n      0x00\n      dup1\n      sload\n      swap1\n      0x0100\n      exp\n      swap1\n      div\n      0xff\n      and\n        /* \"@openzeppelin/contracts-upgradeable/proxy/utils/Initializable.sol\":3268:3285  _initialized == 1 */\n      0xff\n      and\n      eq\n        /* \"@openzeppelin/contracts-upgradeable/proxy/utils/Initializable.sol\":3219:3285  !AddressUpgradeable.isContract(address(this)) && _initialized == 1 */\n    tag_173:\n        /* \"@openzeppelin/contracts-upgradeable/proxy/utils/Initializable.sol\":3178:3286  (isTopLevelCall && _initialized < 1) || (!AddressUpgradeable.isContract(address(this)) && _initialized == 1) */\n    tag_170:\n        /* \"@openzeppelin/contracts-upgradeable/proxy/utils/Initializable.sol\":3157:3358  require(... */\n      tag_174\n      jumpi\n      mload(0x40)\n      0x08c379a000000000000000000000000000000000000000000000000000000000\n      dup2\n      mstore\n      0x04\n      add\n      tag_175\n      swap1\n      tag_176\n      jump\t// in\n    tag_175:\n      mload(0x40)\n      dup1\n      swap2\n      sub\n      swap1\n      revert\n    tag_174:\n        /* \"@openzeppelin/contracts-upgradeable/proxy/utils/Initializable.sol\":3383:3384  1 */\n      0x01\n        /* \"@openzeppelin/contracts-upgradeable/proxy/utils/Initializable.sol\":3368:3380  _initialized */\n      0x00\n      dup1\n        /* \"@openzeppelin/contracts-upgradeable/proxy/utils/Initializable.sol\":3368:3384  _initialized = 1 */\n      0x0100\n      exp\n      dup2\n      sload\n      dup2\n      0xff\n      mul\n      not\n      and\n      swap1\n      dup4\n      0xff\n      and\n      mul\n      or\n      swap1\n      sstore\n      pop\n        /* \"@openzeppelin/contracts-upgradeable/proxy/utils/Initializable.sol\":3398:3412  isTopLevelCall */\n      dup1\n        /* \"@openzeppelin/contracts-upgradeable/proxy/utils/Initializable.sol\":3394:3459  if (isTopLevelCall) {... */\n      iszero\n      tag_177\n      jumpi\n        /* \"@openzeppelin/contracts-upgradeable/proxy/utils/Initializable.sol\":3444:3448  true */\n      0x01\n        /* \"@openzeppelin/contracts-upgradeable/proxy/utils/Initializable.sol\":3428:3441  _initializing */\n      0x00\n      0x01\n        /* \"@openzeppelin/contracts-upgradeable/proxy/utils/Initializable.sol\":3428:3448  _initializing = true */\n      0x0100\n      exp\n      dup2\n      sload\n      dup2\n      0xff\n      mul\n      not\n      and\n      swap1\n      dup4\n      iszero\n      iszero\n      mul\n      or\n      swap1\n      sstore\n      pop\n        /* \"@openzeppelin/contracts-upgradeable/proxy/utils/Initializable.sol\":3394:3459  if (isTopLevelCall) {... */\n    tag_177:\n        /* \"Heliocontracts/contracts/ceros/upgrades/CeVaultV2.sol\":1192:1208  __Ownable_init() */\n      tag_179\n        /* \"Heliocontracts/contracts/ceros/upgrades/CeVaultV2.sol\":1192:1206  __Ownable_init */\n      tag_180\n        /* \"Heliocontracts/contracts/ceros/upgrades/CeVaultV2.sol\":1192:1208  __Ownable_init() */\n      jump\t// in\n    tag_179:\n        /* \"Heliocontracts/contracts/ceros/upgrades/CeVaultV2.sol\":1218:1235  __Pausable_init() */\n      tag_181\n        /* \"Heliocontracts/contracts/ceros/upgrades/CeVaultV2.sol\":1218:1233  __Pausable_init */\n      tag_182\n        /* \"Heliocontracts/contracts/ceros/upgrades/CeVaultV2.sol\":1218:1235  __Pausable_init() */\n      jump\t// in\n    tag_181:\n        /* \"Heliocontracts/contracts/ceros/upgrades/CeVaultV2.sol\":1245:1269  __ReentrancyGuard_init() */\n      tag_183\n        /* \"Heliocontracts/contracts/ceros/upgrades/CeVaultV2.sol\":1245:1267  __ReentrancyGuard_init */\n      tag_184\n        /* \"Heliocontracts/contracts/ceros/upgrades/CeVaultV2.sol\":1245:1269  __ReentrancyGuard_init() */\n      jump\t// in\n    tag_183:\n        /* \"Heliocontracts/contracts/ceros/upgrades/CeVaultV2.sol\":1287:1291  name */\n      dup4\n        /* \"Heliocontracts/contracts/ceros/upgrades/CeVaultV2.sol\":1279:1284  _name */\n      0xc9\n        /* \"Heliocontracts/contracts/ceros/upgrades/CeVaultV2.sol\":1279:1291  _name = name */\n      swap1\n      dup1\n      mload\n      swap1\n      0x20\n      add\n      swap1\n      tag_185\n      swap3\n      swap2\n      swap1\n      tag_186\n      jump\t// in\n    tag_185:\n      pop\n        /* \"Heliocontracts/contracts/ceros/upgrades/CeVaultV2.sol\":1323:1337  ceTokenAddress */\n      dup3\n        /* \"Heliocontracts/contracts/ceros/upgrades/CeVaultV2.sol\":1301:1309  _ceToken */\n      0xca\n      0x00\n        /* \"Heliocontracts/contracts/ceros/upgrades/CeVaultV2.sol\":1301:1338  _ceToken = ICertToken(ceTokenAddress) */\n      0x0100\n      exp\n      dup2\n      sload\n      dup2\n      0xffffffffffffffffffffffffffffffffffffffff\n      mul\n      not\n      and\n      swap1\n      dup4\n      0xffffffffffffffffffffffffffffffffffffffff\n      and\n      mul\n      or\n      swap1\n      sstore\n      pop\n        /* \"Heliocontracts/contracts/ceros/upgrades/CeVaultV2.sol\":1368:1380  aBNBcAddress */\n      dup2\n        /* \"Heliocontracts/contracts/ceros/upgrades/CeVaultV2.sol\":1348:1354  _aBNBc */\n      0xcb\n      0x00\n        /* \"Heliocontracts/contracts/ceros/upgrades/CeVaultV2.sol\":1348:1381  _aBNBc = ICertToken(aBNBcAddress) */\n      0x0100\n      exp\n      dup2\n      sload\n      dup2\n      0xffffffffffffffffffffffffffffffffffffffff\n      mul\n      not\n      and\n      swap1\n      dup4\n      0xffffffffffffffffffffffffffffffffffffffff\n      and\n      mul\n      or\n      swap1\n      sstore\n      pop\n        /* \"@openzeppelin/contracts-upgradeable/proxy/utils/Initializable.sol\":3483:3497  isTopLevelCall */\n      dup1\n        /* \"@openzeppelin/contracts-upgradeable/proxy/utils/Initializable.sol\":3479:3578  if (isTopLevelCall) {... */\n      iszero\n      tag_187\n      jumpi\n        /* \"@openzeppelin/contracts-upgradeable/proxy/utils/Initializable.sol\":3529:3534  false */\n      0x00\n        /* \"@openzeppelin/contracts-upgradeable/proxy/utils/Initializable.sol\":3513:3526  _initializing */\n      dup1\n      0x01\n        /* \"@openzeppelin/contracts-upgradeable/proxy/utils/Initializable.sol\":3513:3534  _initializing = false */\n      0x0100\n      exp\n      dup2\n      sload\n      dup2\n      0xff\n      mul\n      not\n      and\n      swap1\n      dup4\n      iszero\n      iszero\n      mul\n      or\n      swap1\n      sstore\n      pop\n        /* \"@openzeppelin/contracts-upgradeable/proxy/utils/Initializable.sol\":3553:3567  Initialized(1) */\n      0x7f26b83ff96e1f2b6a682f133852f6798a09c465da95921460cefb3847402498\n        /* \"@openzeppelin/contracts-upgradeable/proxy/utils/Initializable.sol\":3565:3566  1 */\n      0x01\n        /* \"@openzeppelin/contracts-upgradeable/proxy/utils/Initializable.sol\":3553:3567  Initialized(1) */\n      mload(0x40)\n      tag_188\n      swap2\n      swap1\n      tag_189\n      jump\t// in\n    tag_188:\n      mload(0x40)\n      dup1\n      swap2\n      sub\n      swap1\n      log1\n        /* \"@openzeppelin/contracts-upgradeable/proxy/utils/Initializable.sol\":3479:3578  if (isTopLevelCall) {... */\n    tag_187:\n        /* \"@openzeppelin/contracts-upgradeable/proxy/utils/Initializable.sol\":3101:3584  {... */\n      pop\n        /* \"Heliocontracts/contracts/ceros/upgrades/CeVaultV2.sol\":1045:1388  function initialize(... */\n      pop\n      pop\n      pop\n      jump\t// out\n        /* \"@openzeppelin/contracts-upgradeable/security/PausableUpgradeable.sol\":1858:1942  function paused() public view virtual returns (bool) {... */\n    tag_68:\n        /* \"@openzeppelin/contracts-upgradeable/security/PausableUpgradeable.sol\":1905:1909  bool */\n      0x00\n        /* \"@openzeppelin/contracts-upgradeable/security/PausableUpgradeable.sol\":1928:1935  _paused */\n      0x65\n      0x00\n      swap1\n      sload\n      swap1\n      0x0100\n      exp\n      swap1\n      div\n      0xff\n      and\n        /* \"@openzeppelin/contracts-upgradeable/security/PausableUpgradeable.sol\":1921:1935  return _paused */\n      swap1\n      pop\n        /* \"@openzeppelin/contracts-upgradeable/security/PausableUpgradeable.sol\":1858:1942  function paused() public view virtual returns (bool) {... */\n      swap1\n      jump\t// out\n        /* \"Heliocontracts/contracts/ceros/upgrades/CeVaultV2.sol\":5834:5949  function getDepositOf(address account) external view returns (uint256) {... */\n    tag_73:\n        /* \"Heliocontracts/contracts/ceros/upgrades/CeVaultV2.sol\":5896:5903  uint256 */\n      0x00\n        /* \"Heliocontracts/contracts/ceros/upgrades/CeVaultV2.sol\":5922:5933  _depositors */\n      0xce\n        /* \"Heliocontracts/contracts/ceros/upgrades/CeVaultV2.sol\":5922:5942  _depositors[account] */\n      0x00\n        /* \"Heliocontracts/contracts/ceros/upgrades/CeVaultV2.sol\":5934:5941  account */\n      dup4\n        /* \"Heliocontracts/contracts/ceros/upgrades/CeVaultV2.sol\":5922:5942  _depositors[account] */\n      0xffffffffffffffffffffffffffffffffffffffff\n      and\n      0xffffffffffffffffffffffffffffffffffffffff\n      and\n      dup2\n      mstore\n      0x20\n      add\n      swap1\n      dup2\n      mstore\n      0x20\n      add\n      0x00\n      keccak256\n      sload\n        /* \"Heliocontracts/contracts/ceros/upgrades/CeVaultV2.sol\":5915:5942  return _depositors[account] */\n      swap1\n      pop\n        /* \"Heliocontracts/contracts/ceros/upgrades/CeVaultV2.sol\":5834:5949  function getDepositOf(address account) external view returns (uint256) {... */\n      swap2\n      swap1\n      pop\n      jump\t// out\n        /* \"@openzeppelin/contracts-upgradeable/access/OwnableUpgradeable.sol\":2071:2172  function renounceOwnership() public virtual onlyOwner {... */\n    tag_76:\n        /* \"@openzeppelin/contracts-upgradeable/access/OwnableUpgradeable.sol\":1334:1347  _checkOwner() */\n      tag_193\n        /* \"@openzeppelin/contracts-upgradeable/access/OwnableUpgradeable.sol\":1334:1345  _checkOwner */\n      tag_159\n        /* \"@openzeppelin/contracts-upgradeable/access/OwnableUpgradeable.sol\":1334:1347  _checkOwner() */\n      jump\t// in\n    tag_193:\n        /* \"@openzeppelin/contracts-upgradeable/access/OwnableUpgradeable.sol\":2135:2165  _transferOwnership(address(0)) */\n      tag_195\n        /* \"@openzeppelin/contracts-upgradeable/access/OwnableUpgradeable.sol\":2162:2163  0 */\n      0x00\n        /* \"@openzeppelin/contracts-upgradeable/access/OwnableUpgradeable.sol\":2135:2153  _transferOwnership */\n      tag_196\n        /* \"@openzeppelin/contracts-upgradeable/access/OwnableUpgradeable.sol\":2135:2165  _transferOwnership(address(0)) */\n      jump\t// in\n    tag_195:\n        /* \"@openzeppelin/contracts-upgradeable/access/OwnableUpgradeable.sol\":2071:2172  function renounceOwnership() public virtual onlyOwner {... */\n      jump\t// out\n        /* \"@openzeppelin/contracts-upgradeable/access/OwnableUpgradeable.sol\":1441:1526  function owner() public view virtual returns (address) {... */\n    tag_78:\n        /* \"@openzeppelin/contracts-upgradeable/access/OwnableUpgradeable.sol\":1487:1494  address */\n      0x00\n        /* \"@openzeppelin/contracts-upgradeable/access/OwnableUpgradeable.sol\":1513:1519  _owner */\n      0x33\n      0x00\n      swap1\n      sload\n      swap1\n      0x0100\n      exp\n      swap1\n      div\n      0xffffffffffffffffffffffffffffffffffffffff\n      and\n        /* \"@openzeppelin/contracts-upgradeable/access/OwnableUpgradeable.sol\":1506:1519  return _owner */\n      swap1\n      pop\n        /* \"@openzeppelin/contracts-upgradeable/access/OwnableUpgradeable.sol\":1441:1526  function owner() public view virtual returns (address) {... */\n      swap1\n      jump\t// out\n        /* \"Heliocontracts/contracts/ceros/upgrades/CeVaultV2.sol\":3385:3605  function withdrawFor(... */\n    tag_83:\n        /* \"Heliocontracts/contracts/ceros/upgrades/CeVaultV2.sol\":3537:3544  uint256 */\n      0x00\n        /* \"@openzeppelin/contracts-upgradeable/security/ReentrancyGuardUpgradeable.sol\":1815:1816  2 */\n      0x02\n        /* \"@openzeppelin/contracts-upgradeable/security/ReentrancyGuardUpgradeable.sol\":2569:2576  _status */\n      sload(0x97)\n        /* \"@openzeppelin/contracts-upgradeable/security/ReentrancyGuardUpgradeable.sol\":2569:2588  _status != _ENTERED */\n      eq\n      iszero\n        /* \"@openzeppelin/contracts-upgradeable/security/ReentrancyGuardUpgradeable.sol\":2561:2624  require(_status != _ENTERED, \"ReentrancyGuard: reentrant call\") */\n      tag_199\n      jumpi\n      mload(0x40)\n      0x08c379a000000000000000000000000000000000000000000000000000000000\n      dup2\n      mstore\n      0x04\n      add\n      tag_200\n      swap1\n      tag_126\n      jump\t// in\n    tag_200:\n      mload(0x40)\n      dup1\n      swap2\n      sub\n      swap1\n      revert\n    tag_199:\n        /* \"@openzeppelin/contracts-upgradeable/security/ReentrancyGuardUpgradeable.sol\":1815:1816  2 */\n      0x02\n        /* \"@openzeppelin/contracts-upgradeable/security/ReentrancyGuardUpgradeable.sol\":2699:2706  _status */\n      0x97\n        /* \"@openzeppelin/contracts-upgradeable/security/ReentrancyGuardUpgradeable.sol\":2699:2717  _status = _ENTERED */\n      dup2\n      swap1\n      sstore\n      pop\n        /* \"Heliocontracts/contracts/ceros/upgrades/CeVaultV2.sol\":991:998  _router */\n      0xcc\n      0x00\n      swap1\n      sload\n      swap1\n      0x0100\n      exp\n      swap1\n      div\n      0xffffffffffffffffffffffffffffffffffffffff\n      and\n        /* \"Heliocontracts/contracts/ceros/upgrades/CeVaultV2.sol\":977:998  msg.sender == _router */\n      0xffffffffffffffffffffffffffffffffffffffff\n      and\n        /* \"Heliocontracts/contracts/ceros/upgrades/CeVaultV2.sol\":977:987  msg.sender */\n      caller\n        /* \"Heliocontracts/contracts/ceros/upgrades/CeVaultV2.sol\":977:998  msg.sender == _router */\n      0xffffffffffffffffffffffffffffffffffffffff\n      and\n      eq\n        /* \"Heliocontracts/contracts/ceros/upgrades/CeVaultV2.sol\":969:1022  require(msg.sender == _router, \"Router: not allowed\") */\n      tag_202\n      jumpi\n      mload(0x40)\n      0x08c379a000000000000000000000000000000000000000000000000000000000\n      dup2\n      mstore\n      0x04\n      add\n      tag_203\n      swap1\n      tag_122\n      jump\t// in\n    tag_203:\n      mload(0x40)\n      dup1\n      swap2\n      sub\n      swap1\n      revert\n    tag_202:\n        /* \"Heliocontracts/contracts/ceros/upgrades/CeVaultV2.sol\":3563:3598  _withdraw(owner, recipient, amount) */\n      tag_205\n        /* \"Heliocontracts/contracts/ceros/upgrades/CeVaultV2.sol\":3573:3578  owner */\n      dup5\n        /* \"Heliocontracts/contracts/ceros/upgrades/CeVaultV2.sol\":3580:3589  recipient */\n      dup5\n        /* \"Heliocontracts/contracts/ceros/upgrades/CeVaultV2.sol\":3591:3597  amount */\n      dup5\n        /* \"Heliocontracts/contracts/ceros/upgrades/CeVaultV2.sol\":3563:3572  _withdraw */\n      tag_206\n        /* \"Heliocontracts/contracts/ceros/upgrades/CeVaultV2.sol\":3563:3598  _withdraw(owner, recipient, amount) */\n      jump\t// in\n    tag_205:\n        /* \"Heliocontracts/contracts/ceros/upgrades/CeVaultV2.sol\":3556:3598  return _withdraw(owner, recipient, amount) */\n      swap1\n      pop\n        /* \"@openzeppelin/contracts-upgradeable/security/ReentrancyGuardUpgradeable.sol\":1772:1773  1 */\n      0x01\n        /* \"@openzeppelin/contracts-upgradeable/security/ReentrancyGuardUpgradeable.sol\":2872:2879  _status */\n      0x97\n        /* \"@openzeppelin/contracts-upgradeable/security/ReentrancyGuardUpgradeable.sol\":2872:2894  _status = _NOT_ENTERED */\n      dup2\n      swap1\n      sstore\n      pop\n        /* \"Heliocontracts/contracts/ceros/upgrades/CeVaultV2.sol\":3385:3605  function withdrawFor(... */\n      swap4\n      swap3\n      pop\n      pop\n      pop\n      jump\t// out\n        /* \"Heliocontracts/contracts/ceros/upgrades/CeVaultV2.sol\":4804:5024  function getPrincipalOf(address account)... */\n    tag_87:\n        /* \"Heliocontracts/contracts/ceros/upgrades/CeVaultV2.sol\":4893:4900  uint256 */\n      0x00\n        /* \"Heliocontracts/contracts/ceros/upgrades/CeVaultV2.sol\":4916:4929  uint256 ratio */\n      dup1\n        /* \"Heliocontracts/contracts/ceros/upgrades/CeVaultV2.sol\":4932:4938  _aBNBc */\n      0xcb\n      0x00\n      swap1\n      sload\n      swap1\n      0x0100\n      exp\n      swap1\n      div\n      0xffffffffffffffffffffffffffffffffffffffff\n      and\n        /* \"Heliocontracts/contracts/ceros/upgrades/CeVaultV2.sol\":4932:4944  _aBNBc.ratio */\n      0xffffffffffffffffffffffffffffffffffffffff\n      and\n      0x71ca337d\n        /* \"Heliocontracts/contracts/ceros/upgrades/CeVaultV2.sol\":4932:4946  _aBNBc.ratio() */\n      mload(0x40)\n      dup2\n      0xffffffff\n      and\n      0xe0\n      shl\n      dup2\n      mstore\n      0x04\n      add\n      0x20\n      mload(0x40)\n      dup1\n      dup4\n      sub\n      dup2\n      dup7\n      gas\n      staticcall\n      iszero\n      dup1\n      iszero\n      tag_209\n      jumpi\n      returndatasize\n      0x00\n      dup1\n      returndatacopy\n      revert(0x00, returndatasize)\n    tag_209:\n      pop\n      pop\n      pop\n      pop\n      mload(0x40)\n      returndatasize\n      not(0x1f)\n      0x1f\n      dup3\n      add\n      and\n      dup3\n      add\n      dup1\n      0x40\n      mstore\n      pop\n      dup2\n      add\n      swap1\n      tag_210\n      swap2\n      swap1\n      tag_142\n      jump\t// in\n    tag_210:\n        /* \"Heliocontracts/contracts/ceros/upgrades/CeVaultV2.sol\":4916:4946  uint256 ratio = _aBNBc.ratio() */\n      swap1\n      pop\n        /* \"Heliocontracts/contracts/ceros/upgrades/CeVaultV2.sol\":5001:5005  1e18 */\n      0x0de0b6b3a7640000\n        /* \"Heliocontracts/contracts/ceros/upgrades/CeVaultV2.sol\":4992:4997  ratio */\n      dup2\n        /* \"Heliocontracts/contracts/ceros/upgrades/CeVaultV2.sol\":4964:4980  _ceTokenBalances */\n      0xcf\n        /* \"Heliocontracts/contracts/ceros/upgrades/CeVaultV2.sol\":4964:4989  _ceTokenBalances[account] */\n      0x00\n        /* \"Heliocontracts/contracts/ceros/upgrades/CeVaultV2.sol\":4981:4988  account */\n      dup7\n        /* \"Heliocontracts/contracts/ceros/upgrades/CeVaultV2.sol\":4964:4989  _ceTokenBalances[account] */\n      0xffffffffffffffffffffffffffffffffffffffff\n      and\n      0xffffffffffffffffffffffffffffffffffffffff\n      and\n      dup2\n      mstore\n      0x20\n      add\n      swap1\n      dup2\n      mstore\n      0x20\n      add\n      0x00\n      keccak256\n      sload\n        /* \"Heliocontracts/contracts/ceros/upgrades/CeVaultV2.sol\":4964:4997  _ceTokenBalances[account] * ratio */\n      tag_211\n      swap2\n      swap1\n      tag_212\n      jump\t// in\n    tag_211:\n        /* \"Heliocontracts/contracts/ceros/upgrades/CeVaultV2.sol\":4963:5005  (_ceTokenBalances[account] * ratio) / 1e18 */\n      tag_213\n      swap2\n      swap1\n      tag_214\n      jump\t// in\n    tag_213:\n        /* \"Heliocontracts/contracts/ceros/upgrades/CeVaultV2.sol\":4956:5005  return (_ceTokenBalances[account] * ratio) / 1e18 */\n      swap2\n      pop\n      pop\n        /* \"Heliocontracts/contracts/ceros/upgrades/CeVaultV2.sol\":4804:5024  function getPrincipalOf(address account)... */\n      swap2\n      swap1\n      pop\n      jump\t// out\n        /* \"Heliocontracts/contracts/ceros/upgrades/CeVaultV2.sol\":6494:6586  function getRouter() external view returns(address) {... */\n    tag_90:\n        /* \"Heliocontracts/contracts/ceros/upgrades/CeVaultV2.sol\":6537:6544  address */\n      0x00\n        /* \"Heliocontracts/contracts/ceros/upgrades/CeVaultV2.sol\":6571:6578  _router */\n      0xcc\n      0x00\n      swap1\n      sload\n      swap1\n      0x0100\n      exp\n      swap1\n      div\n      0xffffffffffffffffffffffffffffffffffffffff\n      and\n        /* \"Heliocontracts/contracts/ceros/upgrades/CeVaultV2.sol\":6556:6579  return address(_router) */\n      swap1\n      pop\n        /* \"Heliocontracts/contracts/ceros/upgrades/CeVaultV2.sol\":6494:6586  function getRouter() external view returns(address) {... */\n      swap1\n      jump\t// out\n        /* \"Heliocontracts/contracts/ceros/upgrades/CeVaultV2.sol\":2527:2695  function claimYields(address recipient)... */\n    tag_94:\n        /* \"Heliocontracts/contracts/ceros/upgrades/CeVaultV2.sol\":2623:2630  uint256 */\n      0x00\n        /* \"@openzeppelin/contracts-upgradeable/security/ReentrancyGuardUpgradeable.sol\":1815:1816  2 */\n      0x02\n        /* \"@openzeppelin/contracts-upgradeable/security/ReentrancyGuardUpgradeable.sol\":2569:2576  _status */\n      sload(0x97)\n        /* \"@openzeppelin/contracts-upgradeable/security/ReentrancyGuardUpgradeable.sol\":2569:2588  _status != _ENTERED */\n      eq\n      iszero\n        /* \"@openzeppelin/contracts-upgradeable/security/ReentrancyGuardUpgradeable.sol\":2561:2624  require(_status != _ENTERED, \"ReentrancyGuard: reentrant call\") */\n      tag_217\n      jumpi\n      mload(0x40)\n      0x08c379a000000000000000000000000000000000000000000000000000000000\n      dup2\n      mstore\n      0x04\n      add\n      tag_218\n      swap1\n      tag_126\n      jump\t// in\n    tag_218:\n      mload(0x40)\n      dup1\n      swap2\n      sub\n      swap1\n      revert\n    tag_217:\n        /* \"@openzeppelin/contracts-upgradeable/security/ReentrancyGuardUpgradeable.sol\":1815:1816  2 */\n      0x02\n        /* \"@openzeppelin/contracts-upgradeable/security/ReentrancyGuardUpgradeable.sol\":2699:2706  _status */\n      0x97\n        /* \"@openzeppelin/contracts-upgradeable/security/ReentrancyGuardUpgradeable.sol\":2699:2717  _status = _ENTERED */\n      dup2\n      swap1\n      sstore\n      pop\n        /* \"Heliocontracts/contracts/ceros/upgrades/CeVaultV2.sol\":2653:2688  _claimYields(msg.sender, recipient) */\n      tag_220\n        /* \"Heliocontracts/contracts/ceros/upgrades/CeVaultV2.sol\":2666:2676  msg.sender */\n      caller\n        /* \"Heliocontracts/contracts/ceros/upgrades/CeVaultV2.sol\":2678:2687  recipient */\n      dup4\n        /* \"Heliocontracts/contracts/ceros/upgrades/CeVaultV2.sol\":2653:2665  _claimYields */\n      tag_129\n        /* \"Heliocontracts/contracts/ceros/upgrades/CeVaultV2.sol\":2653:2688  _claimYields(msg.sender, recipient) */\n      jump\t// in\n    tag_220:\n        /* \"Heliocontracts/contracts/ceros/upgrades/CeVaultV2.sol\":2646:2688  return _claimYields(msg.sender, recipient) */\n      swap1\n      pop\n        /* \"@openzeppelin/contracts-upgradeable/security/ReentrancyGuardUpgradeable.sol\":1772:1773  1 */\n      0x01\n        /* \"@openzeppelin/contracts-upgradeable/security/ReentrancyGuardUpgradeable.sol\":2872:2879  _status */\n      0x97\n        /* \"@openzeppelin/contracts-upgradeable/security/ReentrancyGuardUpgradeable.sol\":2872:2894  _status = _NOT_ENTERED */\n      dup2\n      swap1\n      sstore\n      pop\n        /* \"Heliocontracts/contracts/ceros/upgrades/CeVaultV2.sol\":2527:2695  function claimYields(address recipient)... */\n      swap2\n      swap1\n      pop\n      jump\t// out\n        /* \"Heliocontracts/contracts/ceros/upgrades/CeVaultV2.sol\":6392:6489  function getAbnbcAddress() external view returns(address) {... */\n    tag_97:\n        /* \"Heliocontracts/contracts/ceros/upgrades/CeVaultV2.sol\":6441:6448  address */\n      0x00\n        /* \"Heliocontracts/contracts/ceros/upgrades/CeVaultV2.sol\":6475:6481  _aBNBc */\n      0xcb\n      0x00\n      swap1\n      sload\n      swap1\n      0x0100\n      exp\n      swap1\n      div\n      0xffffffffffffffffffffffffffffffffffffffff\n      and\n        /* \"Heliocontracts/contracts/ceros/upgrades/CeVaultV2.sol\":6460:6482  return address(_aBNBc) */\n      swap1\n      pop\n        /* \"Heliocontracts/contracts/ceros/upgrades/CeVaultV2.sol\":6392:6489  function getAbnbcAddress() external view returns(address) {... */\n      swap1\n      jump\t// out\n        /* \"Heliocontracts/contracts/ceros/upgrades/CeVaultV2.sol\":1408:1562  function deposit(uint256 amount)... */\n    tag_102:\n        /* \"Heliocontracts/contracts/ceros/upgrades/CeVaultV2.sol\":1497:1504  uint256 */\n      0x00\n        /* \"@openzeppelin/contracts-upgradeable/security/ReentrancyGuardUpgradeable.sol\":1815:1816  2 */\n      0x02\n        /* \"@openzeppelin/contracts-upgradeable/security/ReentrancyGuardUpgradeable.sol\":2569:2576  _status */\n      sload(0x97)\n        /* \"@openzeppelin/contracts-upgradeable/security/ReentrancyGuardUpgradeable.sol\":2569:2588  _status != _ENTERED */\n      eq\n      iszero\n        /* \"@openzeppelin/contracts-upgradeable/security/ReentrancyGuardUpgradeable.sol\":2561:2624  require(_status != _ENTERED, \"ReentrancyGuard: reentrant call\") */\n      tag_223\n      jumpi\n      mload(0x40)\n      0x08c379a000000000000000000000000000000000000000000000000000000000\n      dup2\n      mstore\n      0x04\n      add\n      tag_224\n      swap1\n      tag_126\n      jump\t// in\n    tag_224:\n      mload(0x40)\n      dup1\n      swap2\n      sub\n      swap1\n      revert\n    tag_223:\n        /* \"@openzeppelin/contracts-upgradeable/security/ReentrancyGuardUpgradeable.sol\":1815:1816  2 */\n      0x02\n        /* \"@openzeppelin/contracts-upgradeable/security/ReentrancyGuardUpgradeable.sol\":2699:2706  _status */\n      0x97\n        /* \"@openzeppelin/contracts-upgradeable/security/ReentrancyGuardUpgradeable.sol\":2699:2717  _status = _ENTERED */\n      dup2\n      swap1\n      sstore\n      pop\n        /* \"Heliocontracts/contracts/ceros/upgrades/CeVaultV2.sol\":1527:1555  _deposit(msg.sender, amount) */\n      tag_226\n        /* \"Heliocontracts/contracts/ceros/upgrades/CeVaultV2.sol\":1536:1546  msg.sender */\n      caller\n        /* \"Heliocontracts/contracts/ceros/upgrades/CeVaultV2.sol\":1548:1554  amount */\n      dup4\n        /* \"Heliocontracts/contracts/ceros/upgrades/CeVaultV2.sol\":1527:1535  _deposit */\n      tag_156\n        /* \"Heliocontracts/contracts/ceros/upgrades/CeVaultV2.sol\":1527:1555  _deposit(msg.sender, amount) */\n      jump\t// in\n    tag_226:\n        /* \"Heliocontracts/contracts/ceros/upgrades/CeVaultV2.sol\":1520:1555  return _deposit(msg.sender, amount) */\n      swap1\n      pop\n        /* \"@openzeppelin/contracts-upgradeable/security/ReentrancyGuardUpgradeable.sol\":1772:1773  1 */\n      0x01\n        /* \"@openzeppelin/contracts-upgradeable/security/ReentrancyGuardUpgradeable.sol\":2872:2879  _status */\n      0x97\n        /* \"@openzeppelin/contracts-upgradeable/security/ReentrancyGuardUpgradeable.sol\":2872:2894  _status = _NOT_ENTERED */\n      dup2\n      swap1\n      sstore\n      pop\n        /* \"Heliocontracts/contracts/ceros/upgrades/CeVaultV2.sol\":1408:1562  function deposit(uint256 amount)... */\n      swap2\n      swap1\n      pop\n      jump\t// out\n        /* \"Heliocontracts/contracts/ceros/upgrades/CeVaultV2.sol\":5686:5829  function getCeTokenBalanceOf(address account)... */\n    tag_106:\n        /* \"Heliocontracts/contracts/ceros/upgrades/CeVaultV2.sol\":5767:5774  uint256 */\n      0x00\n        /* \"Heliocontracts/contracts/ceros/upgrades/CeVaultV2.sol\":5797:5813  _ceTokenBalances */\n      0xcf\n        /* \"Heliocontracts/contracts/ceros/upgrades/CeVaultV2.sol\":5797:5822  _ceTokenBalances[account] */\n      0x00\n        /* \"Heliocontracts/contracts/ceros/upgrades/CeVaultV2.sol\":5814:5821  account */\n      dup4\n        /* \"Heliocontracts/contracts/ceros/upgrades/CeVaultV2.sol\":5797:5822  _ceTokenBalances[account] */\n      0xffffffffffffffffffffffffffffffffffffffff\n      and\n      0xffffffffffffffffffffffffffffffffffffffff\n      and\n      dup2\n      mstore\n      0x20\n      add\n      swap1\n      dup2\n      mstore\n      0x20\n      add\n      0x00\n      keccak256\n      sload\n        /* \"Heliocontracts/contracts/ceros/upgrades/CeVaultV2.sol\":5790:5822  return _ceTokenBalances[account] */\n      swap1\n      pop\n        /* \"Heliocontracts/contracts/ceros/upgrades/CeVaultV2.sol\":5686:5829  function getCeTokenBalanceOf(address account)... */\n      swap2\n      swap1\n      pop\n      jump\t// out\n        /* \"@openzeppelin/contracts-upgradeable/access/OwnableUpgradeable.sol\":2321:2519  function transferOwnership(address newOwner) public virtual onlyOwner {... */\n    tag_110:\n        /* \"@openzeppelin/contracts-upgradeable/access/OwnableUpgradeable.sol\":1334:1347  _checkOwner() */\n      tag_229\n        /* \"@openzeppelin/contracts-upgradeable/access/OwnableUpgradeable.sol\":1334:1345  _checkOwner */\n      tag_159\n        /* \"@openzeppelin/contracts-upgradeable/access/OwnableUpgradeable.sol\":1334:1347  _checkOwner() */\n      jump\t// in\n    tag_229:\n        /* \"@openzeppelin/contracts-upgradeable/access/OwnableUpgradeable.sol\":2429:2430  0 */\n      0x00\n        /* \"@openzeppelin/contracts-upgradeable/access/OwnableUpgradeable.sol\":2409:2431  newOwner != address(0) */\n      0xffffffffffffffffffffffffffffffffffffffff\n      and\n        /* \"@openzeppelin/contracts-upgradeable/access/OwnableUpgradeable.sol\":2409:2417  newOwner */\n      dup2\n        /* \"@openzeppelin/contracts-upgradeable/access/OwnableUpgradeable.sol\":2409:2431  newOwner != address(0) */\n      0xffffffffffffffffffffffffffffffffffffffff\n      and\n      eq\n      iszero\n        /* \"@openzeppelin/contracts-upgradeable/access/OwnableUpgradeable.sol\":2401:2474  require(newOwner != address(0), \"Ownable: new owner is the zero address\") */\n      tag_231\n      jumpi\n      mload(0x40)\n      0x08c379a000000000000000000000000000000000000000000000000000000000\n      dup2\n      mstore\n      0x04\n      add\n      tag_232\n      swap1\n      tag_233\n      jump\t// in\n    tag_232:\n      mload(0x40)\n      dup1\n      swap2\n      sub\n      swap1\n      revert\n    tag_231:\n        /* \"@openzeppelin/contracts-upgradeable/access/OwnableUpgradeable.sol\":2484:2512  _transferOwnership(newOwner) */\n      tag_234\n        /* \"@openzeppelin/contracts-upgradeable/access/OwnableUpgradeable.sol\":2503:2511  newOwner */\n      dup2\n        /* \"@openzeppelin/contracts-upgradeable/access/OwnableUpgradeable.sol\":2484:2502  _transferOwnership */\n      tag_196\n        /* \"@openzeppelin/contracts-upgradeable/access/OwnableUpgradeable.sol\":2484:2512  _transferOwnership(newOwner) */\n      jump\t// in\n    tag_234:\n        /* \"@openzeppelin/contracts-upgradeable/access/OwnableUpgradeable.sol\":2321:2519  function transferOwnership(address newOwner) public virtual onlyOwner {... */\n      pop\n      jump\t// out\n        /* \"Heliocontracts/contracts/ceros/upgrades/CeVaultV2.sol\":3178:3364  function withdraw(address recipient, uint256 amount)... */\n    tag_113:\n        /* \"Heliocontracts/contracts/ceros/upgrades/CeVaultV2.sol\":3287:3294  uint256 */\n      0x00\n        /* \"@openzeppelin/contracts-upgradeable/security/ReentrancyGuardUpgradeable.sol\":1815:1816  2 */\n      0x02\n        /* \"@openzeppelin/contracts-upgradeable/security/ReentrancyGuardUpgradeable.sol\":2569:2576  _status */\n      sload(0x97)\n        /* \"@openzeppelin/contracts-upgradeable/security/ReentrancyGuardUpgradeable.sol\":2569:2588  _status != _ENTERED */\n      eq\n      iszero\n        /* \"@openzeppelin/contracts-upgradeable/security/ReentrancyGuardUpgradeable.sol\":2561:2624  require(_status != _ENTERED, \"ReentrancyGuard: reentrant call\") */\n      tag_236\n      jumpi\n      mload(0x40)\n      0x08c379a000000000000000000000000000000000000000000000000000000000\n      dup2\n      mstore\n      0x04\n      add\n      tag_237\n      swap1\n      tag_126\n      jump\t// in\n    tag_237:\n      mload(0x40)\n      dup1\n      swap2\n      sub\n      swap1\n      revert\n    tag_236:\n        /* \"@openzeppelin/contracts-upgradeable/security/ReentrancyGuardUpgradeable.sol\":1815:1816  2 */\n      0x02\n        /* \"@openzeppelin/contracts-upgradeable/security/ReentrancyGuardUpgradeable.sol\":2699:2706  _status */\n      0x97\n        /* \"@openzeppelin/contracts-upgradeable/security/ReentrancyGuardUpgradeable.sol\":2699:2717  _status = _ENTERED */\n      dup2\n      swap1\n      sstore\n      pop\n        /* \"Heliocontracts/contracts/ceros/upgrades/CeVaultV2.sol\":3317:3357  _withdraw(msg.sender, recipient, amount) */\n      tag_239\n        /* \"Heliocontracts/contracts/ceros/upgrades/CeVaultV2.sol\":3327:3337  msg.sender */\n      caller\n        /* \"Heliocontracts/contracts/ceros/upgrades/CeVaultV2.sol\":3339:3348  recipient */\n      dup5\n        /* \"Heliocontracts/contracts/ceros/upgrades/CeVaultV2.sol\":3350:3356  amount */\n      dup5\n        /* \"Heliocontracts/contracts/ceros/upgrades/CeVaultV2.sol\":3317:3326  _withdraw */\n      tag_206\n        /* \"Heliocontracts/contracts/ceros/upgrades/CeVaultV2.sol\":3317:3357  _withdraw(msg.sender, recipient, amount) */\n      jump\t// in\n    tag_239:\n        /* \"Heliocontracts/contracts/ceros/upgrades/CeVaultV2.sol\":3310:3357  return _withdraw(msg.sender, recipient, amount) */\n      swap1\n      pop\n        /* \"@openzeppelin/contracts-upgradeable/security/ReentrancyGuardUpgradeable.sol\":1772:1773  1 */\n      0x01\n        /* \"@openzeppelin/contracts-upgradeable/security/ReentrancyGuardUpgradeable.sol\":2872:2879  _status */\n      0x97\n        /* \"@openzeppelin/contracts-upgradeable/security/ReentrancyGuardUpgradeable.sol\":2872:2894  _status = _NOT_ENTERED */\n      dup2\n      swap1\n      sstore\n      pop\n        /* \"Heliocontracts/contracts/ceros/upgrades/CeVaultV2.sol\":3178:3364  function withdraw(address recipient, uint256 amount)... */\n      swap3\n      swap2\n      pop\n      pop\n      jump\t// out\n        /* \"Heliocontracts/contracts/ceros/upgrades/CeVaultV2.sol\":4397:4526  function getTotalAmountInVault() external view override returns (uint256) {... */\n    tag_116:\n        /* \"Heliocontracts/contracts/ceros/upgrades/CeVaultV2.sol\":4462:4469  uint256 */\n      0x00\n        /* \"Heliocontracts/contracts/ceros/upgrades/CeVaultV2.sol\":4488:4494  _aBNBc */\n      0xcb\n      0x00\n      swap1\n      sload\n      swap1\n      0x0100\n      exp\n      swap1\n      div\n      0xffffffffffffffffffffffffffffffffffffffff\n      and\n        /* \"Heliocontracts/contracts/ceros/upgrades/CeVaultV2.sol\":4488:4504  _aBNBc.balanceOf */\n      0xffffffffffffffffffffffffffffffffffffffff\n      and\n      0x70a08231\n        /* \"Heliocontracts/contracts/ceros/upgrades/CeVaultV2.sol\":4513:4517  this */\n      address\n        /* \"Heliocontracts/contracts/ceros/upgrades/CeVaultV2.sol\":4488:4519  _aBNBc.balanceOf(address(this)) */\n      mload(0x40)\n      dup3\n      0xffffffff\n      and\n      0xe0\n      shl\n      dup2\n      mstore\n      0x04\n      add\n      tag_241\n      swap2\n      swap1\n      tag_32\n      jump\t// in\n    tag_241:\n      0x20\n      mload(0x40)\n      dup1\n      dup4\n      sub\n      dup2\n      dup7\n      gas\n      staticcall\n      iszero\n      dup1\n      iszero\n      tag_243\n      jumpi\n      returndatasize\n      0x00\n      dup1\n      returndatacopy\n      revert(0x00, returndatasize)\n    tag_243:\n      pop\n      pop\n      pop\n      pop\n      mload(0x40)\n      returndatasize\n      not(0x1f)\n      0x1f\n      dup3\n      add\n      and\n      dup3\n      add\n      dup1\n      0x40\n      mstore\n      pop\n      dup2\n      add\n      swap1\n      tag_244\n      swap2\n      swap1\n      tag_142\n      jump\t// in\n    tag_244:\n        /* \"Heliocontracts/contracts/ceros/upgrades/CeVaultV2.sol\":4481:4519  return _aBNBc.balanceOf(address(this)) */\n      swap1\n      pop\n        /* \"Heliocontracts/contracts/ceros/upgrades/CeVaultV2.sol\":4397:4526  function getTotalAmountInVault() external view override returns (uint256) {... */\n      swap1\n      jump\t// out\n        /* \"Heliocontracts/contracts/ceros/upgrades/CeVaultV2.sol\":2700:3157  function _claimYields(address owner, address recipient)... */\n    tag_129:\n        /* \"Heliocontracts/contracts/ceros/upgrades/CeVaultV2.sol\":2781:2788  uint256 */\n      0x00\n        /* \"Heliocontracts/contracts/ceros/upgrades/CeVaultV2.sol\":2804:2827  uint256 availableYields */\n      dup1\n        /* \"Heliocontracts/contracts/ceros/upgrades/CeVaultV2.sol\":2830:2834  this */\n      address\n        /* \"Heliocontracts/contracts/ceros/upgrades/CeVaultV2.sol\":2830:2846  this.getYieldFor */\n      0xffffffffffffffffffffffffffffffffffffffff\n      and\n      0x223888c1\n        /* \"Heliocontracts/contracts/ceros/upgrades/CeVaultV2.sol\":2847:2852  owner */\n      dup6\n        /* \"Heliocontracts/contracts/ceros/upgrades/CeVaultV2.sol\":2830:2853  this.getYieldFor(owner) */\n      mload(0x40)\n      dup3\n      0xffffffff\n      and\n      0xe0\n      shl\n      dup2\n      mstore\n      0x04\n      add\n      tag_246\n      swap2\n      swap1\n      tag_32\n      jump\t// in\n    tag_246:\n      0x20\n      mload(0x40)\n      dup1\n      dup4\n      sub\n      dup2\n      dup7\n      gas\n      staticcall\n      iszero\n      dup1\n      iszero\n      tag_248\n      jumpi\n      returndatasize\n      0x00\n      dup1\n      returndatacopy\n      revert(0x00, returndatasize)\n    tag_248:\n      pop\n      pop\n      pop\n      pop\n      mload(0x40)\n      returndatasize\n      not(0x1f)\n      0x1f\n      dup3\n      add\n      and\n      dup3\n      add\n      dup1\n      0x40\n      mstore\n      pop\n      dup2\n      add\n      swap1\n      tag_249\n      swap2\n      swap1\n      tag_142\n      jump\t// in\n    tag_249:\n        /* \"Heliocontracts/contracts/ceros/upgrades/CeVaultV2.sol\":2804:2853  uint256 availableYields = this.getYieldFor(owner) */\n      swap1\n      pop\n        /* \"Heliocontracts/contracts/ceros/upgrades/CeVaultV2.sol\":2889:2890  0 */\n      0x00\n        /* \"Heliocontracts/contracts/ceros/upgrades/CeVaultV2.sol\":2871:2886  availableYields */\n      dup2\n        /* \"Heliocontracts/contracts/ceros/upgrades/CeVaultV2.sol\":2871:2890  availableYields > 0 */\n      gt\n        /* \"Heliocontracts/contracts/ceros/upgrades/CeVaultV2.sol\":2863:2922  require(availableYields > 0, \"has not got yields to claim\") */\n      tag_250\n      jumpi\n      mload(0x40)\n      0x08c379a000000000000000000000000000000000000000000000000000000000\n      dup2\n      mstore\n      0x04\n      add\n      tag_251\n      swap1\n      tag_252\n      jump\t// in\n    tag_251:\n      mload(0x40)\n      dup1\n      swap2\n      sub\n      swap1\n      revert\n    tag_250:\n        /* \"Heliocontracts/contracts/ceros/upgrades/CeVaultV2.sol\":2993:3008  availableYields */\n      dup1\n        /* \"Heliocontracts/contracts/ceros/upgrades/CeVaultV2.sol\":2974:2982  _claimed */\n      0xcd\n        /* \"Heliocontracts/contracts/ceros/upgrades/CeVaultV2.sol\":2974:2989  _claimed[owner] */\n      0x00\n        /* \"Heliocontracts/contracts/ceros/upgrades/CeVaultV2.sol\":2983:2988  owner */\n      dup7\n        /* \"Heliocontracts/contracts/ceros/upgrades/CeVaultV2.sol\":2974:2989  _claimed[owner] */\n      0xffffffffffffffffffffffffffffffffffffffff\n      and\n      0xffffffffffffffffffffffffffffffffffffffff\n      and\n      dup2\n      mstore\n      0x20\n      add\n      swap1\n      dup2\n      mstore\n      0x20\n      add\n      0x00\n      keccak256\n      0x00\n        /* \"Heliocontracts/contracts/ceros/upgrades/CeVaultV2.sol\":2974:3008  _claimed[owner] += availableYields */\n      dup3\n      dup3\n      sload\n      tag_253\n      swap2\n      swap1\n      tag_254\n      jump\t// in\n    tag_253:\n      swap3\n      pop\n      pop\n      dup2\n      swap1\n      sstore\n      pop\n        /* \"Heliocontracts/contracts/ceros/upgrades/CeVaultV2.sol\":3018:3024  _aBNBc */\n      0xcb\n      0x00\n      swap1\n      sload\n      swap1\n      0x0100\n      exp\n      swap1\n      div\n      0xffffffffffffffffffffffffffffffffffffffff\n      and\n        /* \"Heliocontracts/contracts/ceros/upgrades/CeVaultV2.sol\":3018:3033  _aBNBc.transfer */\n      0xffffffffffffffffffffffffffffffffffffffff\n      and\n      0xa9059cbb\n        /* \"Heliocontracts/contracts/ceros/upgrades/CeVaultV2.sol\":3034:3043  recipient */\n      dup5\n        /* \"Heliocontracts/contracts/ceros/upgrades/CeVaultV2.sol\":3045:3060  availableYields */\n      dup4\n        /* \"Heliocontracts/contracts/ceros/upgrades/CeVaultV2.sol\":3018:3061  _aBNBc.transfer(recipient, availableYields) */\n      mload(0x40)\n      dup4\n      0xffffffff\n      and\n      0xe0\n      shl\n      dup2\n      mstore\n      0x04\n      add\n      tag_255\n      swap3\n      swap2\n      swap1\n      tag_256\n      jump\t// in\n    tag_255:\n      0x20\n      mload(0x40)\n      dup1\n      dup4\n      sub\n      dup2\n      0x00\n      dup8\n      gas\n      call\n      iszero\n      dup1\n      iszero\n      tag_258\n      jumpi\n      returndatasize\n      0x00\n      dup1\n      returndatacopy\n      revert(0x00, returndatasize)\n    tag_258:\n      pop\n      pop\n      pop\n      pop\n      mload(0x40)\n      returndatasize\n      not(0x1f)\n      0x1f\n      dup3\n      add\n      and\n      dup3\n      add\n      dup1\n      0x40\n      mstore\n      pop\n      dup2\n      add\n      swap1\n      tag_259\n      swap2\n      swap1\n      tag_260\n      jump\t// in\n    tag_259:\n      pop\n        /* \"Heliocontracts/contracts/ceros/upgrades/CeVaultV2.sol\":3091:3100  recipient */\n      dup3\n        /* \"Heliocontracts/contracts/ceros/upgrades/CeVaultV2.sol\":3076:3118  Claimed(owner, recipient, availableYields) */\n      0xffffffffffffffffffffffffffffffffffffffff\n      and\n        /* \"Heliocontracts/contracts/ceros/upgrades/CeVaultV2.sol\":3084:3089  owner */\n      dup5\n        /* \"Heliocontracts/contracts/ceros/upgrades/CeVaultV2.sol\":3076:3118  Claimed(owner, recipient, availableYields) */\n      0xffffffffffffffffffffffffffffffffffffffff\n      and\n      0xf7a40077ff7a04c7e61f6f26fb13774259ddf1b6bce9ecf26a8276cdd3992683\n        /* \"Heliocontracts/contracts/ceros/upgrades/CeVaultV2.sol\":3102:3117  availableYields */\n      dup4\n        /* \"Heliocontracts/contracts/ceros/upgrades/CeVaultV2.sol\":3076:3118  Claimed(owner, recipient, availableYields) */\n      mload(0x40)\n      tag_261\n      swap2\n      swap1\n      tag_38\n      jump\t// in\n    tag_261:\n      mload(0x40)\n      dup1\n      swap2\n      sub\n      swap1\n      log3\n        /* \"Heliocontracts/contracts/ceros/upgrades/CeVaultV2.sol\":3135:3150  availableYields */\n      dup1\n        /* \"Heliocontracts/contracts/ceros/upgrades/CeVaultV2.sol\":3128:3150  return availableYields */\n      swap2\n      pop\n      pop\n        /* \"Heliocontracts/contracts/ceros/upgrades/CeVaultV2.sol\":2700:3157  function _claimYields(address owner, address recipient)... */\n      swap3\n      swap2\n      pop\n      pop\n      jump\t// out\n        /* \"Heliocontracts/contracts/ceros/upgrades/CeVaultV2.sol\":1792:2302  function _deposit(address account, uint256 amount)... */\n    tag_156:\n        /* \"Heliocontracts/contracts/ceros/upgrades/CeVaultV2.sol\":1868:1875  uint256 */\n      0x00\n        /* \"Heliocontracts/contracts/ceros/upgrades/CeVaultV2.sol\":1891:1904  uint256 ratio */\n      dup1\n        /* \"Heliocontracts/contracts/ceros/upgrades/CeVaultV2.sol\":1907:1913  _aBNBc */\n      0xcb\n      0x00\n      swap1\n      sload\n      swap1\n      0x0100\n      exp\n      swap1\n      div\n      0xffffffffffffffffffffffffffffffffffffffff\n      and\n        /* \"Heliocontracts/contracts/ceros/upgrades/CeVaultV2.sol\":1907:1919  _aBNBc.ratio */\n      0xffffffffffffffffffffffffffffffffffffffff\n      and\n      0x71ca337d\n        /* \"Heliocontracts/contracts/ceros/upgrades/CeVaultV2.sol\":1907:1921  _aBNBc.ratio() */\n      mload(0x40)\n      dup2\n      0xffffffff\n      and\n      0xe0\n      shl\n      dup2\n      mstore\n      0x04\n      add\n      0x20\n      mload(0x40)\n      dup1\n      dup4\n      sub\n      dup2\n      dup7\n      gas\n      staticcall\n      iszero\n      dup1\n      iszero\n      tag_264\n      jumpi\n      returndatasize\n      0x00\n      dup1\n      returndatacopy\n      revert(0x00, returndatasize)\n    tag_264:\n      pop\n      pop\n      pop\n      pop\n      mload(0x40)\n      returndatasize\n      not(0x1f)\n      0x1f\n      dup3\n      add\n      and\n      dup3\n      add\n      dup1\n      0x40\n      mstore\n      pop\n      dup2\n      add\n      swap1\n      tag_265\n      swap2\n      swap1\n      tag_142\n      jump\t// in\n    tag_265:\n        /* \"Heliocontracts/contracts/ceros/upgrades/CeVaultV2.sol\":1891:1921  uint256 ratio = _aBNBc.ratio() */\n      swap1\n      pop\n        /* \"Heliocontracts/contracts/ceros/upgrades/CeVaultV2.sol\":1931:1937  _aBNBc */\n      0xcb\n      0x00\n      swap1\n      sload\n      swap1\n      0x0100\n      exp\n      swap1\n      div\n      0xffffffffffffffffffffffffffffffffffffffff\n      and\n        /* \"Heliocontracts/contracts/ceros/upgrades/CeVaultV2.sol\":1931:1950  _aBNBc.transferFrom */\n      0xffffffffffffffffffffffffffffffffffffffff\n      and\n      0x23b872dd\n        /* \"Heliocontracts/contracts/ceros/upgrades/CeVaultV2.sol\":1951:1961  msg.sender */\n      caller\n        /* \"Heliocontracts/contracts/ceros/upgrades/CeVaultV2.sol\":1971:1975  this */\n      address\n        /* \"Heliocontracts/contracts/ceros/upgrades/CeVaultV2.sol\":1978:1984  amount */\n      dup7\n        /* \"Heliocontracts/contracts/ceros/upgrades/CeVaultV2.sol\":1931:1985  _aBNBc.transferFrom(msg.sender, address(this), amount) */\n      mload(0x40)\n      dup5\n      0xffffffff\n      and\n      0xe0\n      shl\n      dup2\n      mstore\n      0x04\n      add\n      tag_266\n      swap4\n      swap3\n      swap2\n      swap1\n      tag_267\n      jump\t// in\n    tag_266:\n      0x20\n      mload(0x40)\n      dup1\n      dup4\n      sub\n      dup2\n      0x00\n      dup8\n      gas\n      call\n      iszero\n      dup1\n      iszero\n      tag_269\n      jumpi\n      returndatasize\n      0x00\n      dup1\n      returndatacopy\n      revert(0x00, returndatasize)\n    tag_269:\n      pop\n      pop\n      pop\n      pop\n      mload(0x40)\n      returndatasize\n      not(0x1f)\n      0x1f\n      dup3\n      add\n      and\n      dup3\n      add\n      dup1\n      0x40\n      mstore\n      pop\n      dup2\n      add\n      swap1\n      tag_270\n      swap2\n      swap1\n      tag_260\n      jump\t// in\n    tag_270:\n      pop\n        /* \"Heliocontracts/contracts/ceros/upgrades/CeVaultV2.sol\":1995:2009  uint256 toMint */\n      0x00\n        /* \"Heliocontracts/contracts/ceros/upgrades/CeVaultV2.sol\":2030:2035  ratio */\n      dup2\n        /* \"Heliocontracts/contracts/ceros/upgrades/CeVaultV2.sol\":2022:2026  1e18 */\n      0x0de0b6b3a7640000\n        /* \"Heliocontracts/contracts/ceros/upgrades/CeVaultV2.sol\":2013:2019  amount */\n      dup6\n        /* \"Heliocontracts/contracts/ceros/upgrades/CeVaultV2.sol\":2013:2026  amount * 1e18 */\n      tag_271\n      swap2\n      swap1\n      tag_212\n      jump\t// in\n    tag_271:\n        /* \"Heliocontracts/contracts/ceros/upgrades/CeVaultV2.sol\":2012:2035  (amount * 1e18) / ratio */\n      tag_272\n      swap2\n      swap1\n      tag_214\n      jump\t// in\n    tag_272:\n        /* \"Heliocontracts/contracts/ceros/upgrades/CeVaultV2.sol\":1995:2035  uint256 toMint = (amount * 1e18) / ratio */\n      swap1\n      pop\n        /* \"Heliocontracts/contracts/ceros/upgrades/CeVaultV2.sol\":2069:2075  amount */\n      dup4\n        /* \"Heliocontracts/contracts/ceros/upgrades/CeVaultV2.sol\":2045:2056  _depositors */\n      0xce\n        /* \"Heliocontracts/contracts/ceros/upgrades/CeVaultV2.sol\":2045:2065  _depositors[account] */\n      0x00\n        /* \"Heliocontracts/contracts/ceros/upgrades/CeVaultV2.sol\":2057:2064  account */\n      dup8\n        /* \"Heliocontracts/contracts/ceros/upgrades/CeVaultV2.sol\":2045:2065  _depositors[account] */\n      0xffffffffffffffffffffffffffffffffffffffff\n      and\n      0xffffffffffffffffffffffffffffffffffffffff\n      and\n      dup2\n      mstore\n      0x20\n      add\n      swap1\n      dup2\n      mstore\n      0x20\n      add\n      0x00\n      keccak256\n      0x00\n        /* \"Heliocontracts/contracts/ceros/upgrades/CeVaultV2.sol\":2045:2075  _depositors[account] += amount */\n      dup3\n      dup3\n      sload\n      tag_273\n      swap2\n      swap1\n      tag_254\n      jump\t// in\n    tag_273:\n      swap3\n      pop\n      pop\n      dup2\n      swap1\n      sstore\n      pop\n        /* \"Heliocontracts/contracts/ceros/upgrades/CeVaultV2.sol\":2123:2129  toMint */\n      dup1\n        /* \"Heliocontracts/contracts/ceros/upgrades/CeVaultV2.sol\":2094:2110  _ceTokenBalances */\n      0xcf\n        /* \"Heliocontracts/contracts/ceros/upgrades/CeVaultV2.sol\":2094:2119  _ceTokenBalances[account] */\n      0x00\n        /* \"Heliocontracts/contracts/ceros/upgrades/CeVaultV2.sol\":2111:2118  account */\n      dup8\n        /* \"Heliocontracts/contracts/ceros/upgrades/CeVaultV2.sol\":2094:2119  _ceTokenBalances[account] */\n      0xffffffffffffffffffffffffffffffffffffffff\n      and\n      0xffffffffffffffffffffffffffffffffffffffff\n      and\n      dup2\n      mstore\n      0x20\n      add\n      swap1\n      dup2\n      mstore\n      0x20\n      add\n      0x00\n      keccak256\n      0x00\n        /* \"Heliocontracts/contracts/ceros/upgrades/CeVaultV2.sol\":2094:2129  _ceTokenBalances[account] += toMint */\n      dup3\n      dup3\n      sload\n      tag_274\n      swap2\n      swap1\n      tag_254\n      jump\t// in\n    tag_274:\n      swap3\n      pop\n      pop\n      dup2\n      swap1\n      sstore\n      pop\n        /* \"Heliocontracts/contracts/ceros/upgrades/CeVaultV2.sol\":2188:2196  _ceToken */\n      0xca\n      0x00\n      swap1\n      sload\n      swap1\n      0x0100\n      exp\n      swap1\n      div\n      0xffffffffffffffffffffffffffffffffffffffff\n      and\n        /* \"Heliocontracts/contracts/ceros/upgrades/CeVaultV2.sol\":2177:2202  ICertToken(_ceToken).mint */\n      0xffffffffffffffffffffffffffffffffffffffff\n      and\n      0x40c10f19\n        /* \"Heliocontracts/contracts/ceros/upgrades/CeVaultV2.sol\":2203:2210  account */\n      dup7\n        /* \"Heliocontracts/contracts/ceros/upgrades/CeVaultV2.sol\":2212:2218  toMint */\n      dup4\n        /* \"Heliocontracts/contracts/ceros/upgrades/CeVaultV2.sol\":2177:2219  ICertToken(_ceToken).mint(account, toMint) */\n      mload(0x40)\n      dup4\n      0xffffffff\n      and\n      0xe0\n      shl\n      dup2\n      mstore\n      0x04\n      add\n      tag_275\n      swap3\n      swap2\n      swap1\n      tag_256\n      jump\t// in\n    tag_275:\n      0x00\n      mload(0x40)\n      dup1\n      dup4\n      sub\n      dup2\n      0x00\n      dup8\n      dup1\n      extcodesize\n      iszero\n      dup1\n      iszero\n      tag_276\n      jumpi\n      0x00\n      dup1\n      revert\n    tag_276:\n      pop\n      gas\n      call\n      iszero\n      dup1\n      iszero\n      tag_278\n      jumpi\n      returndatasize\n      0x00\n      dup1\n      returndatacopy\n      revert(0x00, returndatasize)\n    tag_278:\n      pop\n      pop\n      pop\n      pop\n        /* \"Heliocontracts/contracts/ceros/upgrades/CeVaultV2.sol\":2256:2263  account */\n      dup5\n        /* \"Heliocontracts/contracts/ceros/upgrades/CeVaultV2.sol\":2234:2272  Deposited(msg.sender, account, toMint) */\n      0xffffffffffffffffffffffffffffffffffffffff\n      and\n        /* \"Heliocontracts/contracts/ceros/upgrades/CeVaultV2.sol\":2244:2254  msg.sender */\n      caller\n        /* \"Heliocontracts/contracts/ceros/upgrades/CeVaultV2.sol\":2234:2272  Deposited(msg.sender, account, toMint) */\n      0xffffffffffffffffffffffffffffffffffffffff\n      and\n      0x8752a472e571a816aea92eec8dae9baf628e840f4929fbcc2d155e6233ff68a7\n        /* \"Heliocontracts/contracts/ceros/upgrades/CeVaultV2.sol\":2265:2271  toMint */\n      dup4\n        /* \"Heliocontracts/contracts/ceros/upgrades/CeVaultV2.sol\":2234:2272  Deposited(msg.sender, account, toMint) */\n      mload(0x40)\n      tag_279\n      swap2\n      swap1\n      tag_38\n      jump\t// in\n    tag_279:\n      mload(0x40)\n      dup1\n      swap2\n      sub\n      swap1\n      log3\n        /* \"Heliocontracts/contracts/ceros/upgrades/CeVaultV2.sol\":2289:2295  toMint */\n      dup1\n        /* \"Heliocontracts/contracts/ceros/upgrades/CeVaultV2.sol\":2282:2295  return toMint */\n      swap3\n      pop\n      pop\n      pop\n        /* \"Heliocontracts/contracts/ceros/upgrades/CeVaultV2.sol\":1792:2302  function _deposit(address account, uint256 amount)... */\n      swap3\n      swap2\n      pop\n      pop\n      jump\t// out\n        /* \"@openzeppelin/contracts-upgradeable/access/OwnableUpgradeable.sol\":1599:1729  function _checkOwner() internal view virtual {... */\n    tag_159:\n        /* \"@openzeppelin/contracts-upgradeable/access/OwnableUpgradeable.sol\":1673:1685  _msgSender() */\n      tag_281\n        /* \"@openzeppelin/contracts-upgradeable/access/OwnableUpgradeable.sol\":1673:1683  _msgSender */\n      tag_282\n        /* \"@openzeppelin/contracts-upgradeable/access/OwnableUpgradeable.sol\":1673:1685  _msgSender() */\n      jump\t// in\n    tag_281:\n        /* \"@openzeppelin/contracts-upgradeable/access/OwnableUpgradeable.sol\":1662:1685  owner() == _msgSender() */\n      0xffffffffffffffffffffffffffffffffffffffff\n      and\n        /* \"@openzeppelin/contracts-upgradeable/access/OwnableUpgradeable.sol\":1662:1669  owner() */\n      tag_283\n        /* \"@openzeppelin/contracts-upgradeable/access/OwnableUpgradeable.sol\":1662:1667  owner */\n      tag_78\n        /* \"@openzeppelin/contracts-upgradeable/access/OwnableUpgradeable.sol\":1662:1669  owner() */\n      jump\t// in\n    tag_283:\n        /* \"@openzeppelin/contracts-upgradeable/access/OwnableUpgradeable.sol\":1662:1685  owner() == _msgSender() */\n      0xffffffffffffffffffffffffffffffffffffffff\n      and\n      eq\n        /* \"@openzeppelin/contracts-upgradeable/access/OwnableUpgradeable.sol\":1654:1722  require(owner() == _msgSender(), \"Ownable: caller is not the owner\") */\n      tag_284\n      jumpi\n      mload(0x40)\n      0x08c379a000000000000000000000000000000000000000000000000000000000\n      dup2\n      mstore\n      0x04\n      add\n      tag_285\n      swap1\n      tag_286\n      jump\t// in\n    tag_285:\n      mload(0x40)\n      dup1\n      swap2\n      sub\n      swap1\n      revert\n    tag_284:\n        /* \"@openzeppelin/contracts-upgradeable/access/OwnableUpgradeable.sol\":1599:1729  function _checkOwner() internal view virtual {... */\n      jump\t// out\n        /* \"@openzeppelin/contracts-upgradeable/utils/AddressUpgradeable.sol\":1186:1506  function isContract(address account) internal view returns (bool) {... */\n    tag_172:\n        /* \"@openzeppelin/contracts-upgradeable/utils/AddressUpgradeable.sol\":1246:1250  bool */\n      0x00\n        /* \"@openzeppelin/contracts-upgradeable/utils/AddressUpgradeable.sol\":1498:1499  0 */\n      dup1\n        /* \"@openzeppelin/contracts-upgradeable/utils/AddressUpgradeable.sol\":1476:1483  account */\n      dup3\n        /* \"@openzeppelin/contracts-upgradeable/utils/AddressUpgradeable.sol\":1476:1495  account.code.length */\n      0xffffffffffffffffffffffffffffffffffffffff\n      and\n      extcodesize\n        /* \"@openzeppelin/contracts-upgradeable/utils/AddressUpgradeable.sol\":1476:1499  account.code.length > 0 */\n      gt\n        /* \"@openzeppelin/contracts-upgradeable/utils/AddressUpgradeable.sol\":1469:1499  return account.code.length > 0 */\n      swap1\n      pop\n        /* \"@openzeppelin/contracts-upgradeable/utils/AddressUpgradeable.sol\":1186:1506  function isContract(address account) internal view returns (bool) {... */\n      swap2\n      swap1\n      pop\n      jump\t// out\n        /* \"@openzeppelin/contracts-upgradeable/access/OwnableUpgradeable.sol\":1003:1098  function __Ownable_init() internal onlyInitializing {... */\n    tag_180:\n        /* \"@openzeppelin/contracts-upgradeable/proxy/utils/Initializable.sol\":4910:4923  _initializing */\n      0x00\n      0x01\n      swap1\n      sload\n      swap1\n      0x0100\n      exp\n      swap1\n      div\n      0xff\n      and\n        /* \"@openzeppelin/contracts-upgradeable/proxy/utils/Initializable.sol\":4902:4971  require(_initializing, \"Initializable: contract is not initializing\") */\n      tag_289\n      jumpi\n      mload(0x40)\n      0x08c379a000000000000000000000000000000000000000000000000000000000\n      dup2\n      mstore\n      0x04\n      add\n      tag_290\n      swap1\n      tag_291\n      jump\t// in\n    tag_290:\n      mload(0x40)\n      dup1\n      swap2\n      sub\n      swap1\n      revert\n    tag_289:\n        /* \"@openzeppelin/contracts-upgradeable/access/OwnableUpgradeable.sol\":1065:1091  __Ownable_init_unchained() */\n      tag_293\n        /* \"@openzeppelin/contracts-upgradeable/access/OwnableUpgradeable.sol\":1065:1089  __Ownable_init_unchained */\n      tag_294\n        /* \"@openzeppelin/contracts-upgradeable/access/OwnableUpgradeable.sol\":1065:1091  __Ownable_init_unchained() */\n      jump\t// in\n    tag_293:\n        /* \"@openzeppelin/contracts-upgradeable/access/OwnableUpgradeable.sol\":1003:1098  function __Ownable_init() internal onlyInitializing {... */\n      jump\t// out\n        /* \"@openzeppelin/contracts-upgradeable/security/PausableUpgradeable.sol\":1063:1160  function __Pausable_init() internal onlyInitializing {... */\n    tag_182:\n        /* \"@openzeppelin/contracts-upgradeable/proxy/utils/Initializable.sol\":4910:4923  _initializing */\n      0x00\n      0x01\n      swap1\n      sload\n      swap1\n      0x0100\n      exp\n      swap1\n      div\n      0xff\n      and\n        /* \"@openzeppelin/contracts-upgradeable/proxy/utils/Initializable.sol\":4902:4971  require(_initializing, \"Initializable: contract is not initializing\") */\n      tag_296\n      jumpi\n      mload(0x40)\n      0x08c379a000000000000000000000000000000000000000000000000000000000\n      dup2\n      mstore\n      0x04\n      add\n      tag_297\n      swap1\n      tag_291\n      jump\t// in\n    tag_297:\n      mload(0x40)\n      dup1\n      swap2\n      sub\n      swap1\n      revert\n    tag_296:\n        /* \"@openzeppelin/contracts-upgradeable/security/PausableUpgradeable.sol\":1126:1153  __Pausable_init_unchained() */\n      tag_299\n        /* \"@openzeppelin/contracts-upgradeable/security/PausableUpgradeable.sol\":1126:1151  __Pausable_init_unchained */\n      tag_300\n        /* \"@openzeppelin/contracts-upgradeable/security/PausableUpgradeable.sol\":1126:1153  __Pausable_init_unchained() */\n      jump\t// in\n    tag_299:\n        /* \"@openzeppelin/contracts-upgradeable/security/PausableUpgradeable.sol\":1063:1160  function __Pausable_init() internal onlyInitializing {... */\n      jump\t// out\n        /* \"@openzeppelin/contracts-upgradeable/security/ReentrancyGuardUpgradeable.sol\":1853:1964  function __ReentrancyGuard_init() internal onlyInitializing {... */\n    tag_184:\n        /* \"@openzeppelin/contracts-upgradeable/proxy/utils/Initializable.sol\":4910:4923  _initializing */\n      0x00\n      0x01\n      swap1\n      sload\n      swap1\n      0x0100\n      exp\n      swap1\n      div\n      0xff\n      and\n        /* \"@openzeppelin/contracts-upgradeable/proxy/utils/Initializable.sol\":4902:4971  require(_initializing, \"Initializable: contract is not initializing\") */\n      tag_302\n      jumpi\n      mload(0x40)\n      0x08c379a000000000000000000000000000000000000000000000000000000000\n      dup2\n      mstore\n      0x04\n      add\n      tag_303\n      swap1\n      tag_291\n      jump\t// in\n    tag_303:\n      mload(0x40)\n      dup1\n      swap2\n      sub\n      swap1\n      revert\n    tag_302:\n        /* \"@openzeppelin/contracts-upgradeable/security/ReentrancyGuardUpgradeable.sol\":1923:1957  __ReentrancyGuard_init_unchained() */\n      tag_305\n        /* \"@openzeppelin/contracts-upgradeable/security/ReentrancyGuardUpgradeable.sol\":1923:1955  __ReentrancyGuard_init_unchained */\n      tag_306\n        /* \"@openzeppelin/contracts-upgradeable/security/ReentrancyGuardUpgradeable.sol\":1923:1957  __ReentrancyGuard_init_unchained() */\n      jump\t// in\n    tag_305:\n        /* \"@openzeppelin/contracts-upgradeable/security/ReentrancyGuardUpgradeable.sol\":1853:1964  function __ReentrancyGuard_init() internal onlyInitializing {... */\n      jump\t// out\n        /* \"@openzeppelin/contracts-upgradeable/access/OwnableUpgradeable.sol\":2673:2860  function _transferOwnership(address newOwner) internal virtual {... */\n    tag_196:\n        /* \"@openzeppelin/contracts-upgradeable/access/OwnableUpgradeable.sol\":2746:2762  address oldOwner */\n      0x00\n        /* \"@openzeppelin/contracts-upgradeable/access/OwnableUpgradeable.sol\":2765:2771  _owner */\n      0x33\n      0x00\n      swap1\n      sload\n      swap1\n      0x0100\n      exp\n      swap1\n      div\n      0xffffffffffffffffffffffffffffffffffffffff\n      and\n        /* \"@openzeppelin/contracts-upgradeable/access/OwnableUpgradeable.sol\":2746:2771  address oldOwner = _owner */\n      swap1\n      pop\n        /* \"@openzeppelin/contracts-upgradeable/access/OwnableUpgradeable.sol\":2790:2798  newOwner */\n      dup2\n        /* \"@openzeppelin/contracts-upgradeable/access/OwnableUpgradeable.sol\":2781:2787  _owner */\n      0x33\n      0x00\n        /* \"@openzeppelin/contracts-upgradeable/access/OwnableUpgradeable.sol\":2781:2798  _owner = newOwner */\n      0x0100\n      exp\n      dup2\n      sload\n      dup2\n      0xffffffffffffffffffffffffffffffffffffffff\n      mul\n      not\n      and\n      swap1\n      dup4\n      0xffffffffffffffffffffffffffffffffffffffff\n      and\n      mul\n      or\n      swap1\n      sstore\n      pop\n        /* \"@openzeppelin/contracts-upgradeable/access/OwnableUpgradeable.sol\":2844:2852  newOwner */\n      dup2\n        /* \"@openzeppelin/contracts-upgradeable/access/OwnableUpgradeable.sol\":2813:2853  OwnershipTransferred(oldOwner, newOwner) */\n      0xffffffffffffffffffffffffffffffffffffffff\n      and\n        /* \"@openzeppelin/contracts-upgradeable/access/OwnableUpgradeable.sol\":2834:2842  oldOwner */\n      dup2\n        /* \"@openzeppelin/contracts-upgradeable/access/OwnableUpgradeable.sol\":2813:2853  OwnershipTransferred(oldOwner, newOwner) */\n      0xffffffffffffffffffffffffffffffffffffffff\n      and\n      0x8be0079c531659141344cd1fd0a4f28419497f9722a3daafe3b4186f6b6457e0\n      mload(0x40)\n      mload(0x40)\n      dup1\n      swap2\n      sub\n      swap1\n      log3\n        /* \"@openzeppelin/contracts-upgradeable/access/OwnableUpgradeable.sol\":2736:2860  {... */\n      pop\n        /* \"@openzeppelin/contracts-upgradeable/access/OwnableUpgradeable.sol\":2673:2860  function _transferOwnership(address newOwner) internal virtual {... */\n      pop\n      jump\t// out\n        /* \"Heliocontracts/contracts/ceros/upgrades/CeVaultV2.sol\":3610:4392  function _withdraw(... */\n    tag_206:\n        /* \"Heliocontracts/contracts/ceros/upgrades/CeVaultV2.sol\":3726:3733  uint256 */\n      0x00\n        /* \"Heliocontracts/contracts/ceros/upgrades/CeVaultV2.sol\":3745:3758  uint256 ratio */\n      dup1\n        /* \"Heliocontracts/contracts/ceros/upgrades/CeVaultV2.sol\":3761:3767  _aBNBc */\n      0xcb\n      0x00\n      swap1\n      sload\n      swap1\n      0x0100\n      exp\n      swap1\n      div\n      0xffffffffffffffffffffffffffffffffffffffff\n      and\n        /* \"Heliocontracts/contracts/ceros/upgrades/CeVaultV2.sol\":3761:3773  _aBNBc.ratio */\n      0xffffffffffffffffffffffffffffffffffffffff\n      and\n      0x71ca337d\n        /* \"Heliocontracts/contracts/ceros/upgrades/CeVaultV2.sol\":3761:3775  _aBNBc.ratio() */\n      mload(0x40)\n      dup2\n      0xffffffff\n      and\n      0xe0\n      shl\n      dup2\n      mstore\n      0x04\n      add\n      0x20\n      mload(0x40)\n      dup1\n      dup4\n      sub\n      dup2\n      dup7\n      gas\n      staticcall\n      iszero\n      dup1\n      iszero\n      tag_310\n      jumpi\n      returndatasize\n      0x00\n      dup1\n      returndatacopy\n      revert(0x00, returndatasize)\n    tag_310:\n      pop\n      pop\n      pop\n      pop\n      mload(0x40)\n      returndatasize\n      not(0x1f)\n      0x1f\n      dup3\n      add\n      and\n      dup3\n      add\n      dup1\n      0x40\n      mstore\n      pop\n      dup2\n      add\n      swap1\n      tag_311\n      swap2\n      swap1\n      tag_142\n      jump\t// in\n    tag_311:\n        /* \"Heliocontracts/contracts/ceros/upgrades/CeVaultV2.sol\":3745:3775  uint256 ratio = _aBNBc.ratio() */\n      swap1\n      pop\n        /* \"Heliocontracts/contracts/ceros/upgrades/CeVaultV2.sol\":3785:3803  uint256 realAmount */\n      0x00\n        /* \"Heliocontracts/contracts/ceros/upgrades/CeVaultV2.sol\":3825:3829  1e18 */\n      0x0de0b6b3a7640000\n        /* \"Heliocontracts/contracts/ceros/upgrades/CeVaultV2.sol\":3816:3821  ratio */\n      dup3\n        /* \"Heliocontracts/contracts/ceros/upgrades/CeVaultV2.sol\":3807:3813  amount */\n      dup6\n        /* \"Heliocontracts/contracts/ceros/upgrades/CeVaultV2.sol\":3807:3821  amount * ratio */\n      tag_312\n      swap2\n      swap1\n      tag_212\n      jump\t// in\n    tag_312:\n        /* \"Heliocontracts/contracts/ceros/upgrades/CeVaultV2.sol\":3806:3829  (amount * ratio) / 1e18 */\n      tag_313\n      swap2\n      swap1\n      tag_214\n      jump\t// in\n    tag_313:\n        /* \"Heliocontracts/contracts/ceros/upgrades/CeVaultV2.sol\":3785:3829  uint256 realAmount = (amount * ratio) / 1e18 */\n      swap1\n      pop\n        /* \"Heliocontracts/contracts/ceros/upgrades/CeVaultV2.sol\":3895:3905  realAmount */\n      dup1\n        /* \"Heliocontracts/contracts/ceros/upgrades/CeVaultV2.sol\":3860:3866  _aBNBc */\n      0xcb\n      0x00\n      swap1\n      sload\n      swap1\n      0x0100\n      exp\n      swap1\n      div\n      0xffffffffffffffffffffffffffffffffffffffff\n      and\n        /* \"Heliocontracts/contracts/ceros/upgrades/CeVaultV2.sol\":3860:3876  _aBNBc.balanceOf */\n      0xffffffffffffffffffffffffffffffffffffffff\n      and\n      0x70a08231\n        /* \"Heliocontracts/contracts/ceros/upgrades/CeVaultV2.sol\":3885:3889  this */\n      address\n        /* \"Heliocontracts/contracts/ceros/upgrades/CeVaultV2.sol\":3860:3891  _aBNBc.balanceOf(address(this)) */\n      mload(0x40)\n      dup3\n      0xffffffff\n      and\n      0xe0\n      shl\n      dup2\n      mstore\n      0x04\n      add\n      tag_314\n      swap2\n      swap1\n      tag_32\n      jump\t// in\n    tag_314:\n      0x20\n      mload(0x40)\n      dup1\n      dup4\n      sub\n      dup2\n      dup7\n      gas\n      staticcall\n      iszero\n      dup1\n      iszero\n      tag_316\n      jumpi\n      returndatasize\n      0x00\n      dup1\n      returndatacopy\n      revert(0x00, returndatasize)\n    tag_316:\n      pop\n      pop\n      pop\n      pop\n      mload(0x40)\n      returndatasize\n      not(0x1f)\n      0x1f\n      dup3\n      add\n      and\n      dup3\n      add\n      dup1\n      0x40\n      mstore\n      pop\n      dup2\n      add\n      swap1\n      tag_317\n      swap2\n      swap1\n      tag_142\n      jump\t// in\n    tag_317:\n        /* \"Heliocontracts/contracts/ceros/upgrades/CeVaultV2.sol\":3860:3905  _aBNBc.balanceOf(address(this)) >= realAmount */\n      lt\n      iszero\n        /* \"Heliocontracts/contracts/ceros/upgrades/CeVaultV2.sol\":3839:3959  require(... */\n      tag_318\n      jumpi\n      mload(0x40)\n      0x08c379a000000000000000000000000000000000000000000000000000000000\n      dup2\n      mstore\n      0x04\n      add\n      tag_319\n      swap1\n      tag_320\n      jump\t// in\n    tag_319:\n      mload(0x40)\n      dup1\n      swap2\n      sub\n      swap1\n      revert\n    tag_318:\n        /* \"Heliocontracts/contracts/ceros/upgrades/CeVaultV2.sol\":3969:3984  uint256 balance */\n      0x00\n        /* \"Heliocontracts/contracts/ceros/upgrades/CeVaultV2.sol\":3987:4003  _ceTokenBalances */\n      0xcf\n        /* \"Heliocontracts/contracts/ceros/upgrades/CeVaultV2.sol\":3987:4010  _ceTokenBalances[owner] */\n      0x00\n        /* \"Heliocontracts/contracts/ceros/upgrades/CeVaultV2.sol\":4004:4009  owner */\n      dup9\n        /* \"Heliocontracts/contracts/ceros/upgrades/CeVaultV2.sol\":3987:4010  _ceTokenBalances[owner] */\n      0xffffffffffffffffffffffffffffffffffffffff\n      and\n      0xffffffffffffffffffffffffffffffffffffffff\n      and\n      dup2\n      mstore\n      0x20\n      add\n      swap1\n      dup2\n      mstore\n      0x20\n      add\n      0x00\n      keccak256\n      sload\n        /* \"Heliocontracts/contracts/ceros/upgrades/CeVaultV2.sol\":3969:4010  uint256 balance = _ceTokenBalances[owner] */\n      swap1\n      pop\n        /* \"Heliocontracts/contracts/ceros/upgrades/CeVaultV2.sol\":4039:4045  amount */\n      dup5\n        /* \"Heliocontracts/contracts/ceros/upgrades/CeVaultV2.sol\":4028:4035  balance */\n      dup2\n        /* \"Heliocontracts/contracts/ceros/upgrades/CeVaultV2.sol\":4028:4045  balance >= amount */\n      lt\n      iszero\n        /* \"Heliocontracts/contracts/ceros/upgrades/CeVaultV2.sol\":4020:4070  require(balance >= amount, \"insufficient balance\") */\n      tag_321\n      jumpi\n      mload(0x40)\n      0x08c379a000000000000000000000000000000000000000000000000000000000\n      dup2\n      mstore\n      0x04\n      add\n      tag_322\n      swap1\n      tag_323\n      jump\t// in\n    tag_322:\n      mload(0x40)\n      dup1\n      swap2\n      sub\n      swap1\n      revert\n    tag_321:\n        /* \"Heliocontracts/contracts/ceros/upgrades/CeVaultV2.sol\":4107:4113  amount */\n      dup5\n        /* \"Heliocontracts/contracts/ceros/upgrades/CeVaultV2.sol\":4080:4096  _ceTokenBalances */\n      0xcf\n        /* \"Heliocontracts/contracts/ceros/upgrades/CeVaultV2.sol\":4080:4103  _ceTokenBalances[owner] */\n      0x00\n        /* \"Heliocontracts/contracts/ceros/upgrades/CeVaultV2.sol\":4097:4102  owner */\n      dup10\n        /* \"Heliocontracts/contracts/ceros/upgrades/CeVaultV2.sol\":4080:4103  _ceTokenBalances[owner] */\n      0xffffffffffffffffffffffffffffffffffffffff\n      and\n      0xffffffffffffffffffffffffffffffffffffffff\n      and\n      dup2\n      mstore\n      0x20\n      add\n      swap1\n      dup2\n      mstore\n      0x20\n      add\n      0x00\n      keccak256\n      0x00\n        /* \"Heliocontracts/contracts/ceros/upgrades/CeVaultV2.sol\":4080:4113  _ceTokenBalances[owner] -= amount */\n      dup3\n      dup3\n      sload\n      tag_324\n      swap2\n      swap1\n      tag_145\n      jump\t// in\n    tag_324:\n      swap3\n      pop\n      pop\n      dup2\n      swap1\n      sstore\n      pop\n        /* \"Heliocontracts/contracts/ceros/upgrades/CeVaultV2.sol\":4176:4184  _ceToken */\n      0xca\n      0x00\n      swap1\n      sload\n      swap1\n      0x0100\n      exp\n      swap1\n      div\n      0xffffffffffffffffffffffffffffffffffffffff\n      and\n        /* \"Heliocontracts/contracts/ceros/upgrades/CeVaultV2.sol\":4165:4190  ICertToken(_ceToken).burn */\n      0xffffffffffffffffffffffffffffffffffffffff\n      and\n      0x9dc29fac\n        /* \"Heliocontracts/contracts/ceros/upgrades/CeVaultV2.sol\":4191:4196  owner */\n      dup9\n        /* \"Heliocontracts/contracts/ceros/upgrades/CeVaultV2.sol\":4198:4204  amount */\n      dup8\n        /* \"Heliocontracts/contracts/ceros/upgrades/CeVaultV2.sol\":4165:4205  ICertToken(_ceToken).burn(owner, amount) */\n      mload(0x40)\n      dup4\n      0xffffffff\n      and\n      0xe0\n      shl\n      dup2\n      mstore\n      0x04\n      add\n      tag_325\n      swap3\n      swap2\n      swap1\n      tag_256\n      jump\t// in\n    tag_325:\n      0x00\n      mload(0x40)\n      dup1\n      dup4\n      sub\n      dup2\n      0x00\n      dup8\n      dup1\n      extcodesize\n      iszero\n      dup1\n      iszero\n      tag_326\n      jumpi\n      0x00\n      dup1\n      revert\n    tag_326:\n      pop\n      gas\n      call\n      iszero\n      dup1\n      iszero\n      tag_328\n      jumpi\n      returndatasize\n      0x00\n      dup1\n      returndatacopy\n      revert(0x00, returndatasize)\n    tag_328:\n      pop\n      pop\n      pop\n      pop\n        /* \"Heliocontracts/contracts/ceros/upgrades/CeVaultV2.sol\":4237:4247  realAmount */\n      dup2\n        /* \"Heliocontracts/contracts/ceros/upgrades/CeVaultV2.sol\":4215:4226  _depositors */\n      0xce\n        /* \"Heliocontracts/contracts/ceros/upgrades/CeVaultV2.sol\":4215:4233  _depositors[owner] */\n      0x00\n        /* \"Heliocontracts/contracts/ceros/upgrades/CeVaultV2.sol\":4227:4232  owner */\n      dup10\n        /* \"Heliocontracts/contracts/ceros/upgrades/CeVaultV2.sol\":4215:4233  _depositors[owner] */\n      0xffffffffffffffffffffffffffffffffffffffff\n      and\n      0xffffffffffffffffffffffffffffffffffffffff\n      and\n      dup2\n      mstore\n      0x20\n      add\n      swap1\n      dup2\n      mstore\n      0x20\n      add\n      0x00\n      keccak256\n      0x00\n        /* \"Heliocontracts/contracts/ceros/upgrades/CeVaultV2.sol\":4215:4247  _depositors[owner] -= realAmount */\n      dup3\n      dup3\n      sload\n      tag_329\n      swap2\n      swap1\n      tag_145\n      jump\t// in\n    tag_329:\n      swap3\n      pop\n      pop\n      dup2\n      swap1\n      sstore\n      pop\n        /* \"Heliocontracts/contracts/ceros/upgrades/CeVaultV2.sol\":4266:4272  _aBNBc */\n      0xcb\n      0x00\n      swap1\n      sload\n      swap1\n      0x0100\n      exp\n      swap1\n      div\n      0xffffffffffffffffffffffffffffffffffffffff\n      and\n        /* \"Heliocontracts/contracts/ceros/upgrades/CeVaultV2.sol\":4266:4281  _aBNBc.transfer */\n      0xffffffffffffffffffffffffffffffffffffffff\n      and\n      0xa9059cbb\n        /* \"Heliocontracts/contracts/ceros/upgrades/CeVaultV2.sol\":4282:4291  recipient */\n      dup8\n        /* \"Heliocontracts/contracts/ceros/upgrades/CeVaultV2.sol\":4293:4303  realAmount */\n      dup5\n        /* \"Heliocontracts/contracts/ceros/upgrades/CeVaultV2.sol\":4266:4304  _aBNBc.transfer(recipient, realAmount) */\n      mload(0x40)\n      dup4\n      0xffffffff\n      and\n      0xe0\n      shl\n      dup2\n      mstore\n      0x04\n      add\n      tag_330\n      swap3\n      swap2\n      swap1\n      tag_256\n      jump\t// in\n    tag_330:\n      0x20\n      mload(0x40)\n      dup1\n      dup4\n      sub\n      dup2\n      0x00\n      dup8\n      gas\n      call\n      iszero\n      dup1\n      iszero\n      tag_332\n      jumpi\n      returndatasize\n      0x00\n      dup1\n      returndatacopy\n      revert(0x00, returndatasize)\n    tag_332:\n      pop\n      pop\n      pop\n      pop\n      mload(0x40)\n      returndatasize\n      not(0x1f)\n      0x1f\n      dup3\n      add\n      and\n      dup3\n      add\n      dup1\n      0x40\n      mstore\n      pop\n      dup2\n      add\n      swap1\n      tag_333\n      swap2\n      swap1\n      tag_260\n      jump\t// in\n    tag_333:\n      pop\n        /* \"Heliocontracts/contracts/ceros/upgrades/CeVaultV2.sol\":4336:4345  recipient */\n      dup6\n        /* \"Heliocontracts/contracts/ceros/upgrades/CeVaultV2.sol\":4319:4358  Withdrawn(owner, recipient, realAmount) */\n      0xffffffffffffffffffffffffffffffffffffffff\n      and\n        /* \"Heliocontracts/contracts/ceros/upgrades/CeVaultV2.sol\":4329:4334  owner */\n      dup8\n        /* \"Heliocontracts/contracts/ceros/upgrades/CeVaultV2.sol\":4319:4358  Withdrawn(owner, recipient, realAmount) */\n      0xffffffffffffffffffffffffffffffffffffffff\n      and\n      0xd1c19fbcd4551a5edfb66d43d2e337c04837afda3482b42bdf569a8fccdae5fb\n        /* \"Heliocontracts/contracts/ceros/upgrades/CeVaultV2.sol\":4347:4357  realAmount */\n      dup5\n        /* \"Heliocontracts/contracts/ceros/upgrades/CeVaultV2.sol\":4319:4358  Withdrawn(owner, recipient, realAmount) */\n      mload(0x40)\n      tag_334\n      swap2\n      swap1\n      tag_38\n      jump\t// in\n    tag_334:\n      mload(0x40)\n      dup1\n      swap2\n      sub\n      swap1\n      log3\n        /* \"Heliocontracts/contracts/ceros/upgrades/CeVaultV2.sol\":4375:4385  realAmount */\n      dup2\n        /* \"Heliocontracts/contracts/ceros/upgrades/CeVaultV2.sol\":4368:4385  return realAmount */\n      swap4\n      pop\n      pop\n      pop\n      pop\n        /* \"Heliocontracts/contracts/ceros/upgrades/CeVaultV2.sol\":3610:4392  function _withdraw(... */\n      swap4\n      swap3\n      pop\n      pop\n      pop\n      jump\t// out\n        /* \"@openzeppelin/contracts-upgradeable/utils/ContextUpgradeable.sol\":850:946  function _msgSender() internal view virtual returns (address) {... */\n    tag_282:\n        /* \"@openzeppelin/contracts-upgradeable/utils/ContextUpgradeable.sol\":903:910  address */\n      0x00\n        /* \"@openzeppelin/contracts-upgradeable/utils/ContextUpgradeable.sol\":929:939  msg.sender */\n      caller\n        /* \"@openzeppelin/contracts-upgradeable/utils/ContextUpgradeable.sol\":922:939  return msg.sender */\n      swap1\n      pop\n        /* \"@openzeppelin/contracts-upgradeable/utils/ContextUpgradeable.sol\":850:946  function _msgSender() internal view virtual returns (address) {... */\n      swap1\n      jump\t// out\n        /* \"@openzeppelin/contracts-upgradeable/access/OwnableUpgradeable.sol\":1104:1215  function __Ownable_init_unchained() internal onlyInitializing {... */\n    tag_294:\n        /* \"@openzeppelin/contracts-upgradeable/proxy/utils/Initializable.sol\":4910:4923  _initializing */\n      0x00\n      0x01\n      swap1\n      sload\n      swap1\n      0x0100\n      exp\n      swap1\n      div\n      0xff\n      and\n        /* \"@openzeppelin/contracts-upgradeable/proxy/utils/Initializable.sol\":4902:4971  require(_initializing, \"Initializable: contract is not initializing\") */\n      tag_337\n      jumpi\n      mload(0x40)\n      0x08c379a000000000000000000000000000000000000000000000000000000000\n      dup2\n      mstore\n      0x04\n      add\n      tag_338\n      swap1\n      tag_291\n      jump\t// in\n    tag_338:\n      mload(0x40)\n      dup1\n      swap2\n      sub\n      swap1\n      revert\n    tag_337:\n        /* \"@openzeppelin/contracts-upgradeable/access/OwnableUpgradeable.sol\":1176:1208  _transferOwnership(_msgSender()) */\n      tag_340\n        /* \"@openzeppelin/contracts-upgradeable/access/OwnableUpgradeable.sol\":1195:1207  _msgSender() */\n      tag_341\n        /* \"@openzeppelin/contracts-upgradeable/access/OwnableUpgradeable.sol\":1195:1205  _msgSender */\n      tag_282\n        /* \"@openzeppelin/contracts-upgradeable/access/OwnableUpgradeable.sol\":1195:1207  _msgSender() */\n      jump\t// in\n    tag_341:\n        /* \"@openzeppelin/contracts-upgradeable/access/OwnableUpgradeable.sol\":1176:1194  _transferOwnership */\n      tag_196\n        /* \"@openzeppelin/contracts-upgradeable/access/OwnableUpgradeable.sol\":1176:1208  _transferOwnership(_msgSender()) */\n      jump\t// in\n    tag_340:\n        /* \"@openzeppelin/contracts-upgradeable/access/OwnableUpgradeable.sol\":1104:1215  function __Ownable_init_unchained() internal onlyInitializing {... */\n      jump\t// out\n        /* \"@openzeppelin/contracts-upgradeable/security/PausableUpgradeable.sol\":1166:1261  function __Pausable_init_unchained() internal onlyInitializing {... */\n    tag_300:\n        /* \"@openzeppelin/contracts-upgradeable/proxy/utils/Initializable.sol\":4910:4923  _initializing */\n      0x00\n      0x01\n      swap1\n      sload\n      swap1\n      0x0100\n      exp\n      swap1\n      div\n      0xff\n      and\n        /* \"@openzeppelin/contracts-upgradeable/proxy/utils/Initializable.sol\":4902:4971  require(_initializing, \"Initializable: contract is not initializing\") */\n      tag_343\n      jumpi\n      mload(0x40)\n      0x08c379a000000000000000000000000000000000000000000000000000000000\n      dup2\n      mstore\n      0x04\n      add\n      tag_344\n      swap1\n      tag_291\n      jump\t// in\n    tag_344:\n      mload(0x40)\n      dup1\n      swap2\n      sub\n      swap1\n      revert\n    tag_343:\n        /* \"@openzeppelin/contracts-upgradeable/security/PausableUpgradeable.sol\":1249:1254  false */\n      0x00\n        /* \"@openzeppelin/contracts-upgradeable/security/PausableUpgradeable.sol\":1239:1246  _paused */\n      0x65\n      0x00\n        /* \"@openzeppelin/contracts-upgradeable/security/PausableUpgradeable.sol\":1239:1254  _paused = false */\n      0x0100\n      exp\n      dup2\n      sload\n      dup2\n      0xff\n      mul\n      not\n      and\n      swap1\n      dup4\n      iszero\n      iszero\n      mul\n      or\n      swap1\n      sstore\n      pop\n        /* \"@openzeppelin/contracts-upgradeable/security/PausableUpgradeable.sol\":1166:1261  function __Pausable_init_unchained() internal onlyInitializing {... */\n      jump\t// out\n        /* \"@openzeppelin/contracts-upgradeable/security/ReentrancyGuardUpgradeable.sol\":1970:2079  function __ReentrancyGuard_init_unchained() internal onlyInitializing {... */\n    tag_306:\n        /* \"@openzeppelin/contracts-upgradeable/proxy/utils/Initializable.sol\":4910:4923  _initializing */\n      0x00\n      0x01\n      swap1\n      sload\n      swap1\n      0x0100\n      exp\n      swap1\n      div\n      0xff\n      and\n        /* \"@openzeppelin/contracts-upgradeable/proxy/utils/Initializable.sol\":4902:4971  require(_initializing, \"Initializable: contract is not initializing\") */\n      tag_347\n      jumpi\n      mload(0x40)\n      0x08c379a000000000000000000000000000000000000000000000000000000000\n      dup2\n      mstore\n      0x04\n      add\n      tag_348\n      swap1\n      tag_291\n      jump\t// in\n    tag_348:\n      mload(0x40)\n      dup1\n      swap2\n      sub\n      swap1\n      revert\n    tag_347:\n        /* \"@openzeppelin/contracts-upgradeable/security/ReentrancyGuardUpgradeable.sol\":1772:1773  1 */\n      0x01\n        /* \"@openzeppelin/contracts-upgradeable/security/ReentrancyGuardUpgradeable.sol\":2050:2057  _status */\n      0x97\n        /* \"@openzeppelin/contracts-upgradeable/security/ReentrancyGuardUpgradeable.sol\":2050:2072  _status = _NOT_ENTERED */\n      dup2\n      swap1\n      sstore\n      pop\n        /* \"@openzeppelin/contracts-upgradeable/security/ReentrancyGuardUpgradeable.sol\":1970:2079  function __ReentrancyGuard_init_unchained() internal onlyInitializing {... */\n      jump\t// out\n    tag_186:\n      dup3\n      dup1\n      sload\n      tag_350\n      swap1\n      tag_132\n      jump\t// in\n    tag_350:\n      swap1\n      0x00\n      mstore\n      keccak256(0x00, 0x20)\n      swap1\n      0x1f\n      add\n      0x20\n      swap1\n      div\n      dup2\n      add\n      swap3\n      dup3\n      tag_352\n      jumpi\n      0x00\n      dup6\n      sstore\n      jump(tag_351)\n    tag_352:\n      dup3\n      0x1f\n      lt\n      tag_353\n      jumpi\n      dup1\n      mload\n      not(0xff)\n      and\n      dup4\n      dup1\n      add\n      or\n      dup6\n      sstore\n      jump(tag_351)\n    tag_353:\n      dup3\n      dup1\n      add\n      0x01\n      add\n      dup6\n      sstore\n      dup3\n      iszero\n      tag_351\n      jumpi\n      swap2\n      dup3\n      add\n    tag_354:\n      dup3\n      dup2\n      gt\n      iszero\n      tag_355\n      jumpi\n      dup3\n      mload\n      dup3\n      sstore\n      swap2\n      0x20\n      add\n      swap2\n      swap1\n      0x01\n      add\n      swap1\n      jump(tag_354)\n    tag_355:\n    tag_351:\n      pop\n      swap1\n      pop\n      tag_356\n      swap2\n      swap1\n      tag_357\n      jump\t// in\n    tag_356:\n      pop\n      swap1\n      jump\t// out\n    tag_357:\n    tag_358:\n      dup1\n      dup3\n      gt\n      iszero\n      tag_359\n      jumpi\n      0x00\n      dup2\n      0x00\n      swap1\n      sstore\n      pop\n      0x01\n      add\n      jump(tag_358)\n    tag_359:\n      pop\n      swap1\n      jump\t// out\n        /* \"#utility.yul\":7:133   */\n    tag_360:\n        /* \"#utility.yul\":44:51   */\n      0x00\n        /* \"#utility.yul\":84:126   */\n      0xffffffffffffffffffffffffffffffffffffffff\n        /* \"#utility.yul\":77:82   */\n      dup3\n        /* \"#utility.yul\":73:127   */\n      and\n        /* \"#utility.yul\":62:127   */\n      swap1\n      pop\n        /* \"#utility.yul\":7:133   */\n      swap2\n      swap1\n      pop\n      jump\t// out\n        /* \"#utility.yul\":139:235   */\n    tag_361:\n        /* \"#utility.yul\":176:183   */\n      0x00\n        /* \"#utility.yul\":205:229   */\n      tag_420\n        /* \"#utility.yul\":223:228   */\n      dup3\n        /* \"#utility.yul\":205:229   */\n      tag_360\n      jump\t// in\n    tag_420:\n        /* \"#utility.yul\":194:229   */\n      swap1\n      pop\n        /* \"#utility.yul\":139:235   */\n      swap2\n      swap1\n      pop\n      jump\t// out\n        /* \"#utility.yul\":241:359   */\n    tag_362:\n        /* \"#utility.yul\":328:352   */\n      tag_422\n        /* \"#utility.yul\":346:351   */\n      dup2\n        /* \"#utility.yul\":328:352   */\n      tag_361\n      jump\t// in\n    tag_422:\n        /* \"#utility.yul\":323:326   */\n      dup3\n        /* \"#utility.yul\":316:353   */\n      mstore\n        /* \"#utility.yul\":241:359   */\n      pop\n      pop\n      jump\t// out\n        /* \"#utility.yul\":365:587   */\n    tag_32:\n        /* \"#utility.yul\":458:462   */\n      0x00\n        /* \"#utility.yul\":496:498   */\n      0x20\n        /* \"#utility.yul\":485:494   */\n      dup3\n        /* \"#utility.yul\":481:499   */\n      add\n        /* \"#utility.yul\":473:499   */\n      swap1\n      pop\n        /* \"#utility.yul\":509:580   */\n      tag_424\n        /* \"#utility.yul\":577:578   */\n      0x00\n        /* \"#utility.yul\":566:575   */\n      dup4\n        /* \"#utility.yul\":562:579   */\n      add\n        /* \"#utility.yul\":553:559   */\n      dup5\n        /* \"#utility.yul\":509:580   */\n      tag_362\n      jump\t// in\n    tag_424:\n        /* \"#utility.yul\":365:587   */\n      swap3\n      swap2\n      pop\n      pop\n      jump\t// out\n        /* \"#utility.yul\":593:668   */\n    tag_363:\n        /* \"#utility.yul\":626:632   */\n      0x00\n        /* \"#utility.yul\":659:661   */\n      0x40\n        /* \"#utility.yul\":653:662   */\n      mload\n        /* \"#utility.yul\":643:662   */\n      swap1\n      pop\n        /* \"#utility.yul\":593:668   */\n      swap1\n      jump\t// out\n        /* \"#utility.yul\":674:791   */\n    tag_364:\n        /* \"#utility.yul\":783:784   */\n      0x00\n        /* \"#utility.yul\":780:781   */\n      dup1\n        /* \"#utility.yul\":773:785   */\n      revert\n        /* \"#utility.yul\":797:914   */\n    tag_365:\n        /* \"#utility.yul\":906:907   */\n      0x00\n        /* \"#utility.yul\":903:904   */\n      dup1\n        /* \"#utility.yul\":896:908   */\n      revert\n        /* \"#utility.yul\":920:1042   */\n    tag_366:\n        /* \"#utility.yul\":993:1017   */\n      tag_429\n        /* \"#utility.yul\":1011:1016   */\n      dup2\n        /* \"#utility.yul\":993:1017   */\n      tag_361\n      jump\t// in\n    tag_429:\n        /* \"#utility.yul\":986:991   */\n      dup2\n        /* \"#utility.yul\":983:1018   */\n      eq\n        /* \"#utility.yul\":973:1036   */\n      tag_430\n      jumpi\n        /* \"#utility.yul\":1032:1033   */\n      0x00\n        /* \"#utility.yul\":1029:1030   */\n      dup1\n        /* \"#utility.yul\":1022:1034   */\n      revert\n        /* \"#utility.yul\":973:1036   */\n    tag_430:\n        /* \"#utility.yul\":920:1042   */\n      pop\n      jump\t// out\n        /* \"#utility.yul\":1048:1187   */\n    tag_367:\n        /* \"#utility.yul\":1094:1099   */\n      0x00\n        /* \"#utility.yul\":1132:1138   */\n      dup2\n        /* \"#utility.yul\":1119:1139   */\n      calldataload\n        /* \"#utility.yul\":1110:1139   */\n      swap1\n      pop\n        /* \"#utility.yul\":1148:1181   */\n      tag_432\n        /* \"#utility.yul\":1175:1180   */\n      dup2\n        /* \"#utility.yul\":1148:1181   */\n      tag_366\n      jump\t// in\n    tag_432:\n        /* \"#utility.yul\":1048:1187   */\n      swap3\n      swap2\n      pop\n      pop\n      jump\t// out\n        /* \"#utility.yul\":1193:1667   */\n    tag_35:\n        /* \"#utility.yul\":1261:1267   */\n      0x00\n        /* \"#utility.yul\":1269:1275   */\n      dup1\n        /* \"#utility.yul\":1318:1320   */\n      0x40\n        /* \"#utility.yul\":1306:1315   */\n      dup4\n        /* \"#utility.yul\":1297:1304   */\n      dup6\n        /* \"#utility.yul\":1293:1316   */\n      sub\n        /* \"#utility.yul\":1289:1321   */\n      slt\n        /* \"#utility.yul\":1286:1405   */\n      iszero\n      tag_434\n      jumpi\n        /* \"#utility.yul\":1324:1403   */\n      tag_435\n      tag_364\n      jump\t// in\n    tag_435:\n        /* \"#utility.yul\":1286:1405   */\n    tag_434:\n        /* \"#utility.yul\":1444:1445   */\n      0x00\n        /* \"#utility.yul\":1469:1522   */\n      tag_436\n        /* \"#utility.yul\":1514:1521   */\n      dup6\n        /* \"#utility.yul\":1505:1511   */\n      dup3\n        /* \"#utility.yul\":1494:1503   */\n      dup7\n        /* \"#utility.yul\":1490:1512   */\n      add\n        /* \"#utility.yul\":1469:1522   */\n      tag_367\n      jump\t// in\n    tag_436:\n        /* \"#utility.yul\":1459:1522   */\n      swap3\n      pop\n        /* \"#utility.yul\":1415:1532   */\n      pop\n        /* \"#utility.yul\":1571:1573   */\n      0x20\n        /* \"#utility.yul\":1597:1650   */\n      tag_437\n        /* \"#utility.yul\":1642:1649   */\n      dup6\n        /* \"#utility.yul\":1633:1639   */\n      dup3\n        /* \"#utility.yul\":1622:1631   */\n      dup7\n        /* \"#utility.yul\":1618:1640   */\n      add\n        /* \"#utility.yul\":1597:1650   */\n      tag_367\n      jump\t// in\n    tag_437:\n        /* \"#utility.yul\":1587:1650   */\n      swap2\n      pop\n        /* \"#utility.yul\":1542:1660   */\n      pop\n        /* \"#utility.yul\":1193:1667   */\n      swap3\n      pop\n      swap3\n      swap1\n      pop\n      jump\t// out\n        /* \"#utility.yul\":1673:1750   */\n    tag_368:\n        /* \"#utility.yul\":1710:1717   */\n      0x00\n        /* \"#utility.yul\":1739:1744   */\n      dup2\n        /* \"#utility.yul\":1728:1744   */\n      swap1\n      pop\n        /* \"#utility.yul\":1673:1750   */\n      swap2\n      swap1\n      pop\n      jump\t// out\n        /* \"#utility.yul\":1756:1874   */\n    tag_369:\n        /* \"#utility.yul\":1843:1867   */\n      tag_440\n        /* \"#utility.yul\":1861:1866   */\n      dup2\n        /* \"#utility.yul\":1843:1867   */\n      tag_368\n      jump\t// in\n    tag_440:\n        /* \"#utility.yul\":1838:1841   */\n      dup3\n        /* \"#utility.yul\":1831:1868   */\n      mstore\n        /* \"#utility.yul\":1756:1874   */\n      pop\n      pop\n      jump\t// out\n        /* \"#utility.yul\":1880:2102   */\n    tag_38:\n        /* \"#utility.yul\":1973:1977   */\n      0x00\n        /* \"#utility.yul\":2011:2013   */\n      0x20\n        /* \"#utility.yul\":2000:2009   */\n      dup3\n        /* \"#utility.yul\":1996:2014   */\n      add\n        /* \"#utility.yul\":1988:2014   */\n      swap1\n      pop\n        /* \"#utility.yul\":2024:2095   */\n      tag_442\n        /* \"#utility.yul\":2092:2093   */\n      0x00\n        /* \"#utility.yul\":2081:2090   */\n      dup4\n        /* \"#utility.yul\":2077:2094   */\n      add\n        /* \"#utility.yul\":2068:2074   */\n      dup5\n        /* \"#utility.yul\":2024:2095   */\n      tag_369\n      jump\t// in\n    tag_442:\n        /* \"#utility.yul\":1880:2102   */\n      swap3\n      swap2\n      pop\n      pop\n      jump\t// out\n        /* \"#utility.yul\":2108:2207   */\n    tag_370:\n        /* \"#utility.yul\":2160:2166   */\n      0x00\n        /* \"#utility.yul\":2194:2199   */\n      dup2\n        /* \"#utility.yul\":2188:2200   */\n      mload\n        /* \"#utility.yul\":2178:2200   */\n      swap1\n      pop\n        /* \"#utility.yul\":2108:2207   */\n      swap2\n      swap1\n      pop\n      jump\t// out\n        /* \"#utility.yul\":2213:2382   */\n    tag_371:\n        /* \"#utility.yul\":2297:2308   */\n      0x00\n        /* \"#utility.yul\":2331:2337   */\n      dup3\n        /* \"#utility.yul\":2326:2329   */\n      dup3\n        /* \"#utility.yul\":2319:2338   */\n      mstore\n        /* \"#utility.yul\":2371:2375   */\n      0x20\n        /* \"#utility.yul\":2366:2369   */\n      dup3\n        /* \"#utility.yul\":2362:2376   */\n      add\n        /* \"#utility.yul\":2347:2376   */\n      swap1\n      pop\n        /* \"#utility.yul\":2213:2382   */\n      swap3\n      swap2\n      pop\n      pop\n      jump\t// out\n        /* \"#utility.yul\":2388:2695   */\n    tag_372:\n        /* \"#utility.yul\":2456:2457   */\n      0x00\n        /* \"#utility.yul\":2466:2579   */\n    tag_446:\n        /* \"#utility.yul\":2480:2486   */\n      dup4\n        /* \"#utility.yul\":2477:2478   */\n      dup2\n        /* \"#utility.yul\":2474:2487   */\n      lt\n        /* \"#utility.yul\":2466:2579   */\n      iszero\n      tag_448\n      jumpi\n        /* \"#utility.yul\":2565:2566   */\n      dup1\n        /* \"#utility.yul\":2560:2563   */\n      dup3\n        /* \"#utility.yul\":2556:2567   */\n      add\n        /* \"#utility.yul\":2550:2568   */\n      mload\n        /* \"#utility.yul\":2546:2547   */\n      dup2\n        /* \"#utility.yul\":2541:2544   */\n      dup5\n        /* \"#utility.yul\":2537:2548   */\n      add\n        /* \"#utility.yul\":2530:2569   */\n      mstore\n        /* \"#utility.yul\":2502:2504   */\n      0x20\n        /* \"#utility.yul\":2499:2500   */\n      dup2\n        /* \"#utility.yul\":2495:2505   */\n      add\n        /* \"#utility.yul\":2490:2505   */\n      swap1\n      pop\n        /* \"#utility.yul\":2466:2579   */\n      jump(tag_446)\n    tag_448:\n        /* \"#utility.yul\":2597:2603   */\n      dup4\n        /* \"#utility.yul\":2594:2595   */\n      dup2\n        /* \"#utility.yul\":2591:2604   */\n      gt\n        /* \"#utility.yul\":2588:2689   */\n      iszero\n      tag_449\n      jumpi\n        /* \"#utility.yul\":2677:2678   */\n      0x00\n        /* \"#utility.yul\":2668:2674   */\n      dup5\n        /* \"#utility.yul\":2663:2666   */\n      dup5\n        /* \"#utility.yul\":2659:2675   */\n      add\n        /* \"#utility.yul\":2652:2679   */\n      mstore\n        /* \"#utility.yul\":2588:2689   */\n    tag_449:\n        /* \"#utility.yul\":2437:2695   */\n      pop\n        /* \"#utility.yul\":2388:2695   */\n      pop\n      pop\n      pop\n      jump\t// out\n        /* \"#utility.yul\":2701:2803   */\n    tag_373:\n        /* \"#utility.yul\":2742:2748   */\n      0x00\n        /* \"#utility.yul\":2793:2795   */\n      0x1f\n        /* \"#utility.yul\":2789:2796   */\n      not\n        /* \"#utility.yul\":2784:2786   */\n      0x1f\n        /* \"#utility.yul\":2777:2782   */\n      dup4\n        /* \"#utility.yul\":2773:2787   */\n      add\n        /* \"#utility.yul\":2769:2797   */\n      and\n        /* \"#utility.yul\":2759:2797   */\n      swap1\n      pop\n        /* \"#utility.yul\":2701:2803   */\n      swap2\n      swap1\n      pop\n      jump\t// out\n        /* \"#utility.yul\":2809:3173   */\n    tag_374:\n        /* \"#utility.yul\":2897:2900   */\n      0x00\n        /* \"#utility.yul\":2925:2964   */\n      tag_452\n        /* \"#utility.yul\":2958:2963   */\n      dup3\n        /* \"#utility.yul\":2925:2964   */\n      tag_370\n      jump\t// in\n    tag_452:\n        /* \"#utility.yul\":2980:3051   */\n      tag_453\n        /* \"#utility.yul\":3044:3050   */\n      dup2\n        /* \"#utility.yul\":3039:3042   */\n      dup6\n        /* \"#utility.yul\":2980:3051   */\n      tag_371\n      jump\t// in\n    tag_453:\n        /* \"#utility.yul\":2973:3051   */\n      swap4\n      pop\n        /* \"#utility.yul\":3060:3112   */\n      tag_454\n        /* \"#utility.yul\":3105:3111   */\n      dup2\n        /* \"#utility.yul\":3100:3103   */\n      dup6\n        /* \"#utility.yul\":3093:3097   */\n      0x20\n        /* \"#utility.yul\":3086:3091   */\n      dup7\n        /* \"#utility.yul\":3082:3098   */\n      add\n        /* \"#utility.yul\":3060:3112   */\n      tag_372\n      jump\t// in\n    tag_454:\n        /* \"#utility.yul\":3137:3166   */\n      tag_455\n        /* \"#utility.yul\":3159:3165   */\n      dup2\n        /* \"#utility.yul\":3137:3166   */\n      tag_373\n      jump\t// in\n    tag_455:\n        /* \"#utility.yul\":3132:3135   */\n      dup5\n        /* \"#utility.yul\":3128:3167   */\n      add\n        /* \"#utility.yul\":3121:3167   */\n      swap2\n      pop\n        /* \"#utility.yul\":2901:3173   */\n      pop\n        /* \"#utility.yul\":2809:3173   */\n      swap3\n      swap2\n      pop\n      pop\n      jump\t// out\n        /* \"#utility.yul\":3179:3492   */\n    tag_42:\n        /* \"#utility.yul\":3292:3296   */\n      0x00\n        /* \"#utility.yul\":3330:3332   */\n      0x20\n        /* \"#utility.yul\":3319:3328   */\n      dup3\n        /* \"#utility.yul\":3315:3333   */\n      add\n        /* \"#utility.yul\":3307:3333   */\n      swap1\n      pop\n        /* \"#utility.yul\":3379:3388   */\n      dup2\n        /* \"#utility.yul\":3373:3377   */\n      dup2\n        /* \"#utility.yul\":3369:3389   */\n      sub\n        /* \"#utility.yul\":3365:3366   */\n      0x00\n        /* \"#utility.yul\":3354:3363   */\n      dup4\n        /* \"#utility.yul\":3350:3367   */\n      add\n        /* \"#utility.yul\":3343:3390   */\n      mstore\n        /* \"#utility.yul\":3407:3485   */\n      tag_457\n        /* \"#utility.yul\":3480:3484   */\n      dup2\n        /* \"#utility.yul\":3471:3477   */\n      dup5\n        /* \"#utility.yul\":3407:3485   */\n      tag_374\n      jump\t// in\n    tag_457:\n        /* \"#utility.yul\":3399:3485   */\n      swap1\n      pop\n        /* \"#utility.yul\":3179:3492   */\n      swap3\n      swap2\n      pop\n      pop\n      jump\t// out\n        /* \"#utility.yul\":3498:3827   */\n    tag_45:\n        /* \"#utility.yul\":3557:3563   */\n      0x00\n        /* \"#utility.yul\":3606:3608   */\n      0x20\n        /* \"#utility.yul\":3594:3603   */\n      dup3\n        /* \"#utility.yul\":3585:3592   */\n      dup5\n        /* \"#utility.yul\":3581:3604   */\n      sub\n        /* \"#utility.yul\":3577:3609   */\n      slt\n        /* \"#utility.yul\":3574:3693   */\n      iszero\n      tag_459\n      jumpi\n        /* \"#utility.yul\":3612:3691   */\n      tag_460\n      tag_364\n      jump\t// in\n    tag_460:\n        /* \"#utility.yul\":3574:3693   */\n    tag_459:\n        /* \"#utility.yul\":3732:3733   */\n      0x00\n        /* \"#utility.yul\":3757:3810   */\n      tag_461\n        /* \"#utility.yul\":3802:3809   */\n      dup5\n        /* \"#utility.yul\":3793:3799   */\n      dup3\n        /* \"#utility.yul\":3782:3791   */\n      dup6\n        /* \"#utility.yul\":3778:3800   */\n      add\n        /* \"#utility.yul\":3757:3810   */\n      tag_367\n      jump\t// in\n    tag_461:\n        /* \"#utility.yul\":3747:3810   */\n      swap2\n      pop\n        /* \"#utility.yul\":3703:3820   */\n      pop\n        /* \"#utility.yul\":3498:3827   */\n      swap3\n      swap2\n      pop\n      pop\n      jump\t// out\n        /* \"#utility.yul\":3833:3955   */\n    tag_375:\n        /* \"#utility.yul\":3906:3930   */\n      tag_463\n        /* \"#utility.yul\":3924:3929   */\n      dup2\n        /* \"#utility.yul\":3906:3930   */\n      tag_368\n      jump\t// in\n    tag_463:\n        /* \"#utility.yul\":3899:3904   */\n      dup2\n        /* \"#utility.yul\":3896:3931   */\n      eq\n        /* \"#utility.yul\":3886:3949   */\n      tag_464\n      jumpi\n        /* \"#utility.yul\":3945:3946   */\n      0x00\n        /* \"#utility.yul\":3942:3943   */\n      dup1\n        /* \"#utility.yul\":3935:3947   */\n      revert\n        /* \"#utility.yul\":3886:3949   */\n    tag_464:\n        /* \"#utility.yul\":3833:3955   */\n      pop\n      jump\t// out\n        /* \"#utility.yul\":3961:4100   */\n    tag_376:\n        /* \"#utility.yul\":4007:4012   */\n      0x00\n        /* \"#utility.yul\":4045:4051   */\n      dup2\n        /* \"#utility.yul\":4032:4052   */\n      calldataload\n        /* \"#utility.yul\":4023:4052   */\n      swap1\n      pop\n        /* \"#utility.yul\":4061:4094   */\n      tag_466\n        /* \"#utility.yul\":4088:4093   */\n      dup2\n        /* \"#utility.yul\":4061:4094   */\n      tag_375\n      jump\t// in\n    tag_466:\n        /* \"#utility.yul\":3961:4100   */\n      swap3\n      swap2\n      pop\n      pop\n      jump\t// out\n        /* \"#utility.yul\":4106:4580   */\n    tag_50:\n        /* \"#utility.yul\":4174:4180   */\n      0x00\n        /* \"#utility.yul\":4182:4188   */\n      dup1\n        /* \"#utility.yul\":4231:4233   */\n      0x40\n        /* \"#utility.yul\":4219:4228   */\n      dup4\n        /* \"#utility.yul\":4210:4217   */\n      dup6\n        /* \"#utility.yul\":4206:4229   */\n      sub\n        /* \"#utility.yul\":4202:4234   */\n      slt\n        /* \"#utility.yul\":4199:4318   */\n      iszero\n      tag_468\n      jumpi\n        /* \"#utility.yul\":4237:4316   */\n      tag_469\n      tag_364\n      jump\t// in\n    tag_469:\n        /* \"#utility.yul\":4199:4318   */\n    tag_468:\n        /* \"#utility.yul\":4357:4358   */\n      0x00\n        /* \"#utility.yul\":4382:4435   */\n      tag_470\n        /* \"#utility.yul\":4427:4434   */\n      dup6\n        /* \"#utility.yul\":4418:4424   */\n      dup3\n        /* \"#utility.yul\":4407:4416   */\n      dup7\n        /* \"#utility.yul\":4403:4425   */\n      add\n        /* \"#utility.yul\":4382:4435   */\n      tag_367\n      jump\t// in\n    tag_470:\n        /* \"#utility.yul\":4372:4435   */\n      swap3\n      pop\n        /* \"#utility.yul\":4328:4445   */\n      pop\n        /* \"#utility.yul\":4484:4486   */\n      0x20\n        /* \"#utility.yul\":4510:4563   */\n      tag_471\n        /* \"#utility.yul\":4555:4562   */\n      dup6\n        /* \"#utility.yul\":4546:4552   */\n      dup3\n        /* \"#utility.yul\":4535:4544   */\n      dup7\n        /* \"#utility.yul\":4531:4553   */\n      add\n        /* \"#utility.yul\":4510:4563   */\n      tag_376\n      jump\t// in\n    tag_471:\n        /* \"#utility.yul\":4500:4563   */\n      swap2\n      pop\n        /* \"#utility.yul\":4455:4573   */\n      pop\n        /* \"#utility.yul\":4106:4580   */\n      swap3\n      pop\n      swap3\n      swap1\n      pop\n      jump\t// out\n        /* \"#utility.yul\":4586:4703   */\n    tag_377:\n        /* \"#utility.yul\":4695:4696   */\n      0x00\n        /* \"#utility.yul\":4692:4693   */\n      dup1\n        /* \"#utility.yul\":4685:4697   */\n      revert\n        /* \"#utility.yul\":4709:4826   */\n    tag_378:\n        /* \"#utility.yul\":4818:4819   */\n      0x00\n        /* \"#utility.yul\":4815:4816   */\n      dup1\n        /* \"#utility.yul\":4808:4820   */\n      revert\n        /* \"#utility.yul\":4832:5012   */\n    tag_379:\n        /* \"#utility.yul\":4880:4957   */\n      0x4e487b7100000000000000000000000000000000000000000000000000000000\n        /* \"#utility.yul\":4877:4878   */\n      0x00\n        /* \"#utility.yul\":4870:4958   */\n      mstore\n        /* \"#utility.yul\":4977:4981   */\n      0x41\n        /* \"#utility.yul\":4974:4975   */\n      0x04\n        /* \"#utility.yul\":4967:4982   */\n      mstore\n        /* \"#utility.yul\":5001:5005   */\n      0x24\n        /* \"#utility.yul\":4998:4999   */\n      0x00\n        /* \"#utility.yul\":4991:5006   */\n      revert\n        /* \"#utility.yul\":5018:5299   */\n    tag_380:\n        /* \"#utility.yul\":5101:5128   */\n      tag_476\n        /* \"#utility.yul\":5123:5127   */\n      dup3\n        /* \"#utility.yul\":5101:5128   */\n      tag_373\n      jump\t// in\n    tag_476:\n        /* \"#utility.yul\":5093:5099   */\n      dup2\n        /* \"#utility.yul\":5089:5129   */\n      add\n        /* \"#utility.yul\":5231:5237   */\n      dup2\n        /* \"#utility.yul\":5219:5229   */\n      dup2\n        /* \"#utility.yul\":5216:5238   */\n      lt\n        /* \"#utility.yul\":5195:5213   */\n      0xffffffffffffffff\n        /* \"#utility.yul\":5183:5193   */\n      dup3\n        /* \"#utility.yul\":5180:5214   */\n      gt\n        /* \"#utility.yul\":5177:5239   */\n      or\n        /* \"#utility.yul\":5174:5262   */\n      iszero\n      tag_477\n      jumpi\n        /* \"#utility.yul\":5242:5260   */\n      tag_478\n      tag_379\n      jump\t// in\n    tag_478:\n        /* \"#utility.yul\":5174:5262   */\n    tag_477:\n        /* \"#utility.yul\":5282:5292   */\n      dup1\n        /* \"#utility.yul\":5278:5280   */\n      0x40\n        /* \"#utility.yul\":5271:5293   */\n      mstore\n        /* \"#utility.yul\":5061:5299   */\n      pop\n        /* \"#utility.yul\":5018:5299   */\n      pop\n      pop\n      jump\t// out\n        /* \"#utility.yul\":5305:5434   */\n    tag_381:\n        /* \"#utility.yul\":5339:5345   */\n      0x00\n        /* \"#utility.yul\":5366:5386   */\n      tag_480\n      tag_363\n      jump\t// in\n    tag_480:\n        /* \"#utility.yul\":5356:5386   */\n      swap1\n      pop\n        /* \"#utility.yul\":5395:5428   */\n      tag_481\n        /* \"#utility.yul\":5423:5427   */\n      dup3\n        /* \"#utility.yul\":5415:5421   */\n      dup3\n        /* \"#utility.yul\":5395:5428   */\n      tag_380\n      jump\t// in\n    tag_481:\n        /* \"#utility.yul\":5305:5434   */\n      swap2\n      swap1\n      pop\n      jump\t// out\n        /* \"#utility.yul\":5440:5748   */\n    tag_382:\n        /* \"#utility.yul\":5502:5506   */\n      0x00\n        /* \"#utility.yul\":5592:5610   */\n      0xffffffffffffffff\n        /* \"#utility.yul\":5584:5590   */\n      dup3\n        /* \"#utility.yul\":5581:5611   */\n      gt\n        /* \"#utility.yul\":5578:5634   */\n      iszero\n      tag_483\n      jumpi\n        /* \"#utility.yul\":5614:5632   */\n      tag_484\n      tag_379\n      jump\t// in\n    tag_484:\n        /* \"#utility.yul\":5578:5634   */\n    tag_483:\n        /* \"#utility.yul\":5652:5681   */\n      tag_485\n        /* \"#utility.yul\":5674:5680   */\n      dup3\n        /* \"#utility.yul\":5652:5681   */\n      tag_373\n      jump\t// in\n    tag_485:\n        /* \"#utility.yul\":5644:5681   */\n      swap1\n      pop\n        /* \"#utility.yul\":5736:5740   */\n      0x20\n        /* \"#utility.yul\":5730:5734   */\n      dup2\n        /* \"#utility.yul\":5726:5741   */\n      add\n        /* \"#utility.yul\":5718:5741   */\n      swap1\n      pop\n        /* \"#utility.yul\":5440:5748   */\n      swap2\n      swap1\n      pop\n      jump\t// out\n        /* \"#utility.yul\":5754:5908   */\n    tag_383:\n        /* \"#utility.yul\":5838:5844   */\n      dup3\n        /* \"#utility.yul\":5833:5836   */\n      dup2\n        /* \"#utility.yul\":5828:5831   */\n      dup4\n        /* \"#utility.yul\":5815:5845   */\n      calldatacopy\n        /* \"#utility.yul\":5900:5901   */\n      0x00\n        /* \"#utility.yul\":5891:5897   */\n      dup4\n        /* \"#utility.yul\":5886:5889   */\n      dup4\n        /* \"#utility.yul\":5882:5898   */\n      add\n        /* \"#utility.yul\":5875:5902   */\n      mstore\n        /* \"#utility.yul\":5754:5908   */\n      pop\n      pop\n      pop\n      jump\t// out\n        /* \"#utility.yul\":5914:6326   */\n    tag_384:\n        /* \"#utility.yul\":5992:5997   */\n      0x00\n        /* \"#utility.yul\":6017:6083   */\n      tag_488\n        /* \"#utility.yul\":6033:6082   */\n      tag_489\n        /* \"#utility.yul\":6075:6081   */\n      dup5\n        /* \"#utility.yul\":6033:6082   */\n      tag_382\n      jump\t// in\n    tag_489:\n        /* \"#utility.yul\":6017:6083   */\n      tag_381\n      jump\t// in\n    tag_488:\n        /* \"#utility.yul\":6008:6083   */\n      swap1\n      pop\n        /* \"#utility.yul\":6106:6112   */\n      dup3\n        /* \"#utility.yul\":6099:6104   */\n      dup2\n        /* \"#utility.yul\":6092:6113   */\n      mstore\n        /* \"#utility.yul\":6144:6148   */\n      0x20\n        /* \"#utility.yul\":6137:6142   */\n      dup2\n        /* \"#utility.yul\":6133:6149   */\n      add\n        /* \"#utility.yul\":6182:6185   */\n      dup5\n        /* \"#utility.yul\":6173:6179   */\n      dup5\n        /* \"#utility.yul\":6168:6171   */\n      dup5\n        /* \"#utility.yul\":6164:6180   */\n      add\n        /* \"#utility.yul\":6161:6186   */\n      gt\n        /* \"#utility.yul\":6158:6270   */\n      iszero\n      tag_490\n      jumpi\n        /* \"#utility.yul\":6189:6268   */\n      tag_491\n      tag_378\n      jump\t// in\n    tag_491:\n        /* \"#utility.yul\":6158:6270   */\n    tag_490:\n        /* \"#utility.yul\":6279:6320   */\n      tag_492\n        /* \"#utility.yul\":6313:6319   */\n      dup5\n        /* \"#utility.yul\":6308:6311   */\n      dup3\n        /* \"#utility.yul\":6303:6306   */\n      dup6\n        /* \"#utility.yul\":6279:6320   */\n      tag_383\n      jump\t// in\n    tag_492:\n        /* \"#utility.yul\":5998:6326   */\n      pop\n        /* \"#utility.yul\":5914:6326   */\n      swap4\n      swap3\n      pop\n      pop\n      pop\n      jump\t// out\n        /* \"#utility.yul\":6346:6686   */\n    tag_385:\n        /* \"#utility.yul\":6402:6407   */\n      0x00\n        /* \"#utility.yul\":6451:6454   */\n      dup3\n        /* \"#utility.yul\":6444:6448   */\n      0x1f\n        /* \"#utility.yul\":6436:6442   */\n      dup4\n        /* \"#utility.yul\":6432:6449   */\n      add\n        /* \"#utility.yul\":6428:6455   */\n      slt\n        /* \"#utility.yul\":6418:6540   */\n      tag_494\n      jumpi\n        /* \"#utility.yul\":6459:6538   */\n      tag_495\n      tag_377\n      jump\t// in\n    tag_495:\n        /* \"#utility.yul\":6418:6540   */\n    tag_494:\n        /* \"#utility.yul\":6576:6582   */\n      dup2\n        /* \"#utility.yul\":6563:6583   */\n      calldataload\n        /* \"#utility.yul\":6601:6680   */\n      tag_496\n        /* \"#utility.yul\":6676:6679   */\n      dup5\n        /* \"#utility.yul\":6668:6674   */\n      dup3\n        /* \"#utility.yul\":6661:6665   */\n      0x20\n        /* \"#utility.yul\":6653:6659   */\n      dup7\n        /* \"#utility.yul\":6649:6666   */\n      add\n        /* \"#utility.yul\":6601:6680   */\n      tag_384\n      jump\t// in\n    tag_496:\n        /* \"#utility.yul\":6592:6680   */\n      swap2\n      pop\n        /* \"#utility.yul\":6408:6686   */\n      pop\n        /* \"#utility.yul\":6346:6686   */\n      swap3\n      swap2\n      pop\n      pop\n      jump\t// out\n        /* \"#utility.yul\":6692:7491   */\n    tag_65:\n        /* \"#utility.yul\":6779:6785   */\n      0x00\n        /* \"#utility.yul\":6787:6793   */\n      dup1\n        /* \"#utility.yul\":6795:6801   */\n      0x00\n        /* \"#utility.yul\":6844:6846   */\n      0x60\n        /* \"#utility.yul\":6832:6841   */\n      dup5\n        /* \"#utility.yul\":6823:6830   */\n      dup7\n        /* \"#utility.yul\":6819:6842   */\n      sub\n        /* \"#utility.yul\":6815:6847   */\n      slt\n        /* \"#utility.yul\":6812:6931   */\n      iszero\n      tag_498\n      jumpi\n        /* \"#utility.yul\":6850:6929   */\n      tag_499\n      tag_364\n      jump\t// in\n    tag_499:\n        /* \"#utility.yul\":6812:6931   */\n    tag_498:\n        /* \"#utility.yul\":6998:6999   */\n      0x00\n        /* \"#utility.yul\":6987:6996   */\n      dup5\n        /* \"#utility.yul\":6983:7000   */\n      add\n        /* \"#utility.yul\":6970:7001   */\n      calldataload\n        /* \"#utility.yul\":7028:7046   */\n      0xffffffffffffffff\n        /* \"#utility.yul\":7020:7026   */\n      dup2\n        /* \"#utility.yul\":7017:7047   */\n      gt\n        /* \"#utility.yul\":7014:7131   */\n      iszero\n      tag_500\n      jumpi\n        /* \"#utility.yul\":7050:7129   */\n      tag_501\n      tag_365\n      jump\t// in\n    tag_501:\n        /* \"#utility.yul\":7014:7131   */\n    tag_500:\n        /* \"#utility.yul\":7155:7218   */\n      tag_502\n        /* \"#utility.yul\":7210:7217   */\n      dup7\n        /* \"#utility.yul\":7201:7207   */\n      dup3\n        /* \"#utility.yul\":7190:7199   */\n      dup8\n        /* \"#utility.yul\":7186:7208   */\n      add\n        /* \"#utility.yul\":7155:7218   */\n      tag_385\n      jump\t// in\n    tag_502:\n        /* \"#utility.yul\":7145:7218   */\n      swap4\n      pop\n        /* \"#utility.yul\":6941:7228   */\n      pop\n        /* \"#utility.yul\":7267:7269   */\n      0x20\n        /* \"#utility.yul\":7293:7346   */\n      tag_503\n        /* \"#utility.yul\":7338:7345   */\n      dup7\n        /* \"#utility.yul\":7329:7335   */\n      dup3\n        /* \"#utility.yul\":7318:7327   */\n      dup8\n        /* \"#utility.yul\":7314:7336   */\n      add\n        /* \"#utility.yul\":7293:7346   */\n      tag_367\n      jump\t// in\n    tag_503:\n        /* \"#utility.yul\":7283:7346   */\n      swap3\n      pop\n        /* \"#utility.yul\":7238:7356   */\n      pop\n        /* \"#utility.yul\":7395:7397   */\n      0x40\n        /* \"#utility.yul\":7421:7474   */\n      tag_504\n        /* \"#utility.yul\":7466:7473   */\n      dup7\n        /* \"#utility.yul\":7457:7463   */\n      dup3\n        /* \"#utility.yul\":7446:7455   */\n      dup8\n        /* \"#utility.yul\":7442:7464   */\n      add\n        /* \"#utility.yul\":7421:7474   */\n      tag_367\n      jump\t// in\n    tag_504:\n        /* \"#utility.yul\":7411:7474   */\n      swap2\n      pop\n        /* \"#utility.yul\":7366:7484   */\n      pop\n        /* \"#utility.yul\":6692:7491   */\n      swap3\n      pop\n      swap3\n      pop\n      swap3\n      jump\t// out\n        /* \"#utility.yul\":7497:7587   */\n    tag_386:\n        /* \"#utility.yul\":7531:7538   */\n      0x00\n        /* \"#utility.yul\":7574:7579   */\n      dup2\n        /* \"#utility.yul\":7567:7580   */\n      iszero\n        /* \"#utility.yul\":7560:7581   */\n      iszero\n        /* \"#utility.yul\":7549:7581   */\n      swap1\n      pop\n        /* \"#utility.yul\":7497:7587   */\n      swap2\n      swap1\n      pop\n      jump\t// out\n        /* \"#utility.yul\":7593:7702   */\n    tag_387:\n        /* \"#utility.yul\":7674:7695   */\n      tag_507\n        /* \"#utility.yul\":7689:7694   */\n      dup2\n        /* \"#utility.yul\":7674:7695   */\n      tag_386\n      jump\t// in\n    tag_507:\n        /* \"#utility.yul\":7669:7672   */\n      dup3\n        /* \"#utility.yul\":7662:7696   */\n      mstore\n        /* \"#utility.yul\":7593:7702   */\n      pop\n      pop\n      jump\t// out\n        /* \"#utility.yul\":7708:7918   */\n    tag_70:\n        /* \"#utility.yul\":7795:7799   */\n      0x00\n        /* \"#utility.yul\":7833:7835   */\n      0x20\n        /* \"#utility.yul\":7822:7831   */\n      dup3\n        /* \"#utility.yul\":7818:7836   */\n      add\n        /* \"#utility.yul\":7810:7836   */\n      swap1\n      pop\n        /* \"#utility.yul\":7846:7911   */\n      tag_509\n        /* \"#utility.yul\":7908:7909   */\n      0x00\n        /* \"#utility.yul\":7897:7906   */\n      dup4\n        /* \"#utility.yul\":7893:7910   */\n      add\n        /* \"#utility.yul\":7884:7890   */\n      dup5\n        /* \"#utility.yul\":7846:7911   */\n      tag_387\n      jump\t// in\n    tag_509:\n        /* \"#utility.yul\":7708:7918   */\n      swap3\n      swap2\n      pop\n      pop\n      jump\t// out\n        /* \"#utility.yul\":7924:8543   */\n    tag_82:\n        /* \"#utility.yul\":8001:8007   */\n      0x00\n        /* \"#utility.yul\":8009:8015   */\n      dup1\n        /* \"#utility.yul\":8017:8023   */\n      0x00\n        /* \"#utility.yul\":8066:8068   */\n      0x60\n        /* \"#utility.yul\":8054:8063   */\n      dup5\n        /* \"#utility.yul\":8045:8052   */\n      dup7\n        /* \"#utility.yul\":8041:8064   */\n      sub\n        /* \"#utility.yul\":8037:8069   */\n      slt\n        /* \"#utility.yul\":8034:8153   */\n      iszero\n      tag_511\n      jumpi\n        /* \"#utility.yul\":8072:8151   */\n      tag_512\n      tag_364\n      jump\t// in\n    tag_512:\n        /* \"#utility.yul\":8034:8153   */\n    tag_511:\n        /* \"#utility.yul\":8192:8193   */\n      0x00\n        /* \"#utility.yul\":8217:8270   */\n      tag_513\n        /* \"#utility.yul\":8262:8269   */\n      dup7\n        /* \"#utility.yul\":8253:8259   */\n      dup3\n        /* \"#utility.yul\":8242:8251   */\n      dup8\n        /* \"#utility.yul\":8238:8260   */\n      add\n        /* \"#utility.yul\":8217:8270   */\n      tag_367\n      jump\t// in\n    tag_513:\n        /* \"#utility.yul\":8207:8270   */\n      swap4\n      pop\n        /* \"#utility.yul\":8163:8280   */\n      pop\n        /* \"#utility.yul\":8319:8321   */\n      0x20\n        /* \"#utility.yul\":8345:8398   */\n      tag_514\n        /* \"#utility.yul\":8390:8397   */\n      dup7\n        /* \"#utility.yul\":8381:8387   */\n      dup3\n        /* \"#utility.yul\":8370:8379   */\n      dup8\n        /* \"#utility.yul\":8366:8388   */\n      add\n        /* \"#utility.yul\":8345:8398   */\n      tag_367\n      jump\t// in\n    tag_514:\n        /* \"#utility.yul\":8335:8398   */\n      swap3\n      pop\n        /* \"#utility.yul\":8290:8408   */\n      pop\n        /* \"#utility.yul\":8447:8449   */\n      0x40\n        /* \"#utility.yul\":8473:8526   */\n      tag_515\n        /* \"#utility.yul\":8518:8525   */\n      dup7\n        /* \"#utility.yul\":8509:8515   */\n      dup3\n        /* \"#utility.yul\":8498:8507   */\n      dup8\n        /* \"#utility.yul\":8494:8516   */\n      add\n        /* \"#utility.yul\":8473:8526   */\n      tag_376\n      jump\t// in\n    tag_515:\n        /* \"#utility.yul\":8463:8526   */\n      swap2\n      pop\n        /* \"#utility.yul\":8418:8536   */\n      pop\n        /* \"#utility.yul\":7924:8543   */\n      swap3\n      pop\n      swap3\n      pop\n      swap3\n      jump\t// out\n        /* \"#utility.yul\":8549:8878   */\n    tag_101:\n        /* \"#utility.yul\":8608:8614   */\n      0x00\n        /* \"#utility.yul\":8657:8659   */\n      0x20\n        /* \"#utility.yul\":8645:8654   */\n      dup3\n        /* \"#utility.yul\":8636:8643   */\n      dup5\n        /* \"#utility.yul\":8632:8655   */\n      sub\n        /* \"#utility.yul\":8628:8660   */\n      slt\n        /* \"#utility.yul\":8625:8744   */\n      iszero\n      tag_517\n      jumpi\n        /* \"#utility.yul\":8663:8742   */\n      tag_518\n      tag_364\n      jump\t// in\n    tag_518:\n        /* \"#utility.yul\":8625:8744   */\n    tag_517:\n        /* \"#utility.yul\":8783:8784   */\n      0x00\n        /* \"#utility.yul\":8808:8861   */\n      tag_519\n        /* \"#utility.yul\":8853:8860   */\n      dup5\n        /* \"#utility.yul\":8844:8850   */\n      dup3\n        /* \"#utility.yul\":8833:8842   */\n      dup6\n        /* \"#utility.yul\":8829:8851   */\n      add\n        /* \"#utility.yul\":8808:8861   */\n      tag_376\n      jump\t// in\n    tag_519:\n        /* \"#utility.yul\":8798:8861   */\n      swap2\n      pop\n        /* \"#utility.yul\":8754:8871   */\n      pop\n        /* \"#utility.yul\":8549:8878   */\n      swap3\n      swap2\n      pop\n      pop\n      jump\t// out\n        /* \"#utility.yul\":8884:9053   */\n    tag_388:\n        /* \"#utility.yul\":9024:9045   */\n      0x526f757465723a206e6f7420616c6c6f77656400000000000000000000000000\n        /* \"#utility.yul\":9020:9021   */\n      0x00\n        /* \"#utility.yul\":9012:9018   */\n      dup3\n        /* \"#utility.yul\":9008:9022   */\n      add\n        /* \"#utility.yul\":9001:9046   */\n      mstore\n        /* \"#utility.yul\":8884:9053   */\n      pop\n      jump\t// out\n        /* \"#utility.yul\":9059:9425   */\n    tag_389:\n        /* \"#utility.yul\":9201:9204   */\n      0x00\n        /* \"#utility.yul\":9222:9289   */\n      tag_522\n        /* \"#utility.yul\":9286:9288   */\n      0x13\n        /* \"#utility.yul\":9281:9284   */\n      dup4\n        /* \"#utility.yul\":9222:9289   */\n      tag_371\n      jump\t// in\n    tag_522:\n        /* \"#utility.yul\":9215:9289   */\n      swap2\n      pop\n        /* \"#utility.yul\":9298:9391   */\n      tag_523\n        /* \"#utility.yul\":9387:9390   */\n      dup3\n        /* \"#utility.yul\":9298:9391   */\n      tag_388\n      jump\t// in\n    tag_523:\n        /* \"#utility.yul\":9416:9418   */\n      0x20\n        /* \"#utility.yul\":9411:9414   */\n      dup3\n        /* \"#utility.yul\":9407:9419   */\n      add\n        /* \"#utility.yul\":9400:9419   */\n      swap1\n      pop\n        /* \"#utility.yul\":9059:9425   */\n      swap2\n      swap1\n      pop\n      jump\t// out\n        /* \"#utility.yul\":9431:9850   */\n    tag_122:\n        /* \"#utility.yul\":9597:9601   */\n      0x00\n        /* \"#utility.yul\":9635:9637   */\n      0x20\n        /* \"#utility.yul\":9624:9633   */\n      dup3\n        /* \"#utility.yul\":9620:9638   */\n      add\n        /* \"#utility.yul\":9612:9638   */\n      swap1\n      pop\n        /* \"#utility.yul\":9684:9693   */\n      dup2\n        /* \"#utility.yul\":9678:9682   */\n      dup2\n        /* \"#utility.yul\":9674:9694   */\n      sub\n        /* \"#utility.yul\":9670:9671   */\n      0x00\n        /* \"#utility.yul\":9659:9668   */\n      dup4\n        /* \"#utility.yul\":9655:9672   */\n      add\n        /* \"#utility.yul\":9648:9695   */\n      mstore\n        /* \"#utility.yul\":9712:9843   */\n      tag_525\n        /* \"#utility.yul\":9838:9842   */\n      dup2\n        /* \"#utility.yul\":9712:9843   */\n      tag_389\n      jump\t// in\n    tag_525:\n        /* \"#utility.yul\":9704:9843   */\n      swap1\n      pop\n        /* \"#utility.yul\":9431:9850   */\n      swap2\n      swap1\n      pop\n      jump\t// out\n        /* \"#utility.yul\":9856:10037   */\n    tag_390:\n        /* \"#utility.yul\":9996:10029   */\n      0x5265656e7472616e637947756172643a207265656e7472616e742063616c6c00\n        /* \"#utility.yul\":9992:9993   */\n      0x00\n        /* \"#utility.yul\":9984:9990   */\n      dup3\n        /* \"#utility.yul\":9980:9994   */\n      add\n        /* \"#utility.yul\":9973:10030   */\n      mstore\n        /* \"#utility.yul\":9856:10037   */\n      pop\n      jump\t// out\n        /* \"#utility.yul\":10043:10409   */\n    tag_391:\n        /* \"#utility.yul\":10185:10188   */\n      0x00\n        /* \"#utility.yul\":10206:10273   */\n      tag_528\n        /* \"#utility.yul\":10270:10272   */\n      0x1f\n        /* \"#utility.yul\":10265:10268   */\n      dup4\n        /* \"#utility.yul\":10206:10273   */\n      tag_371\n      jump\t// in\n    tag_528:\n        /* \"#utility.yul\":10199:10273   */\n      swap2\n      pop\n        /* \"#utility.yul\":10282:10375   */\n      tag_529\n        /* \"#utility.yul\":10371:10374   */\n      dup3\n        /* \"#utility.yul\":10282:10375   */\n      tag_390\n      jump\t// in\n    tag_529:\n        /* \"#utility.yul\":10400:10402   */\n      0x20\n        /* \"#utility.yul\":10395:10398   */\n      dup3\n        /* \"#utility.yul\":10391:10403   */\n      add\n        /* \"#utility.yul\":10384:10403   */\n      swap1\n      pop\n        /* \"#utility.yul\":10043:10409   */\n      swap2\n      swap1\n      pop\n      jump\t// out\n        /* \"#utility.yul\":10415:10834   */\n    tag_126:\n        /* \"#utility.yul\":10581:10585   */\n      0x00\n        /* \"#utility.yul\":10619:10621   */\n      0x20\n        /* \"#utility.yul\":10608:10617   */\n      dup3\n        /* \"#utility.yul\":10604:10622   */\n      add\n        /* \"#utility.yul\":10596:10622   */\n      swap1\n      pop\n        /* \"#utility.yul\":10668:10677   */\n      dup2\n        /* \"#utility.yul\":10662:10666   */\n      dup2\n        /* \"#utility.yul\":10658:10678   */\n      sub\n        /* \"#utility.yul\":10654:10655   */\n      0x00\n        /* \"#utility.yul\":10643:10652   */\n      dup4\n        /* \"#utility.yul\":10639:10656   */\n      add\n        /* \"#utility.yul\":10632:10679   */\n      mstore\n        /* \"#utility.yul\":10696:10827   */\n      tag_531\n        /* \"#utility.yul\":10822:10826   */\n      dup2\n        /* \"#utility.yul\":10696:10827   */\n      tag_391\n      jump\t// in\n    tag_531:\n        /* \"#utility.yul\":10688:10827   */\n      swap1\n      pop\n        /* \"#utility.yul\":10415:10834   */\n      swap2\n      swap1\n      pop\n      jump\t// out\n        /* \"#utility.yul\":10840:11020   */\n    tag_392:\n        /* \"#utility.yul\":10888:10965   */\n      0x4e487b7100000000000000000000000000000000000000000000000000000000\n        /* \"#utility.yul\":10885:10886   */\n      0x00\n        /* \"#utility.yul\":10878:10966   */\n      mstore\n        /* \"#utility.yul\":10985:10989   */\n      0x22\n        /* \"#utility.yul\":10982:10983   */\n      0x04\n        /* \"#utility.yul\":10975:10990   */\n      mstore\n        /* \"#utility.yul\":11009:11013   */\n      0x24\n        /* \"#utility.yul\":11006:11007   */\n      0x00\n        /* \"#utility.yul\":10999:11014   */\n      revert\n        /* \"#utility.yul\":11026:11346   */\n    tag_132:\n        /* \"#utility.yul\":11070:11076   */\n      0x00\n        /* \"#utility.yul\":11107:11108   */\n      0x02\n        /* \"#utility.yul\":11101:11105   */\n      dup3\n        /* \"#utility.yul\":11097:11109   */\n      div\n        /* \"#utility.yul\":11087:11109   */\n      swap1\n      pop\n        /* \"#utility.yul\":11154:11155   */\n      0x01\n        /* \"#utility.yul\":11148:11152   */\n      dup3\n        /* \"#utility.yul\":11144:11156   */\n      and\n        /* \"#utility.yul\":11175:11193   */\n      dup1\n        /* \"#utility.yul\":11165:11246   */\n      tag_534\n      jumpi\n        /* \"#utility.yul\":11231:11235   */\n      0x7f\n        /* \"#utility.yul\":11223:11229   */\n      dup3\n        /* \"#utility.yul\":11219:11236   */\n      and\n        /* \"#utility.yul\":11209:11236   */\n      swap2\n      pop\n        /* \"#utility.yul\":11165:11246   */\n    tag_534:\n        /* \"#utility.yul\":11293:11295   */\n      0x20\n        /* \"#utility.yul\":11285:11291   */\n      dup3\n        /* \"#utility.yul\":11282:11296   */\n      lt\n        /* \"#utility.yul\":11262:11280   */\n      dup2\n        /* \"#utility.yul\":11259:11297   */\n      eq\n        /* \"#utility.yul\":11256:11340   */\n      iszero\n      tag_535\n      jumpi\n        /* \"#utility.yul\":11312:11330   */\n      tag_536\n      tag_392\n      jump\t// in\n    tag_536:\n        /* \"#utility.yul\":11256:11340   */\n    tag_535:\n        /* \"#utility.yul\":11077:11346   */\n      pop\n        /* \"#utility.yul\":11026:11346   */\n      swap2\n      swap1\n      pop\n      jump\t// out\n        /* \"#utility.yul\":11352:11495   */\n    tag_393:\n        /* \"#utility.yul\":11409:11414   */\n      0x00\n        /* \"#utility.yul\":11440:11446   */\n      dup2\n        /* \"#utility.yul\":11434:11447   */\n      mload\n        /* \"#utility.yul\":11425:11447   */\n      swap1\n      pop\n        /* \"#utility.yul\":11456:11489   */\n      tag_538\n        /* \"#utility.yul\":11483:11488   */\n      dup2\n        /* \"#utility.yul\":11456:11489   */\n      tag_375\n      jump\t// in\n    tag_538:\n        /* \"#utility.yul\":11352:11495   */\n      swap3\n      swap2\n      pop\n      pop\n      jump\t// out\n        /* \"#utility.yul\":11501:11852   */\n    tag_142:\n        /* \"#utility.yul\":11571:11577   */\n      0x00\n        /* \"#utility.yul\":11620:11622   */\n      0x20\n        /* \"#utility.yul\":11608:11617   */\n      dup3\n        /* \"#utility.yul\":11599:11606   */\n      dup5\n        /* \"#utility.yul\":11595:11618   */\n      sub\n        /* \"#utility.yul\":11591:11623   */\n      slt\n        /* \"#utility.yul\":11588:11707   */\n      iszero\n      tag_540\n      jumpi\n        /* \"#utility.yul\":11626:11705   */\n      tag_541\n      tag_364\n      jump\t// in\n    tag_541:\n        /* \"#utility.yul\":11588:11707   */\n    tag_540:\n        /* \"#utility.yul\":11746:11747   */\n      0x00\n        /* \"#utility.yul\":11771:11835   */\n      tag_542\n        /* \"#utility.yul\":11827:11834   */\n      dup5\n        /* \"#utility.yul\":11818:11824   */\n      dup3\n        /* \"#utility.yul\":11807:11816   */\n      dup6\n        /* \"#utility.yul\":11803:11825   */\n      add\n        /* \"#utility.yul\":11771:11835   */\n      tag_393\n      jump\t// in\n    tag_542:\n        /* \"#utility.yul\":11761:11835   */\n      swap2\n      pop\n        /* \"#utility.yul\":11717:11845   */\n      pop\n        /* \"#utility.yul\":11501:11852   */\n      swap3\n      swap2\n      pop\n      pop\n      jump\t// out\n        /* \"#utility.yul\":11858:12038   */\n    tag_394:\n        /* \"#utility.yul\":11906:11983   */\n      0x4e487b7100000000000000000000000000000000000000000000000000000000\n        /* \"#utility.yul\":11903:11904   */\n      0x00\n        /* \"#utility.yul\":11896:11984   */\n      mstore\n        /* \"#utility.yul\":12003:12007   */\n      0x11\n        /* \"#utility.yul\":12000:12001   */\n      0x04\n        /* \"#utility.yul\":11993:12008   */\n      mstore\n        /* \"#utility.yul\":12027:12031   */\n      0x24\n        /* \"#utility.yul\":12024:12025   */\n      0x00\n        /* \"#utility.yul\":12017:12032   */\n      revert\n        /* \"#utility.yul\":12044:12235   */\n    tag_145:\n        /* \"#utility.yul\":12084:12088   */\n      0x00\n        /* \"#utility.yul\":12104:12124   */\n      tag_545\n        /* \"#utility.yul\":12122:12123   */\n      dup3\n        /* \"#utility.yul\":12104:12124   */\n      tag_368\n      jump\t// in\n    tag_545:\n        /* \"#utility.yul\":12099:12124   */\n      swap2\n      pop\n        /* \"#utility.yul\":12138:12158   */\n      tag_546\n        /* \"#utility.yul\":12156:12157   */\n      dup4\n        /* \"#utility.yul\":12138:12158   */\n      tag_368\n      jump\t// in\n    tag_546:\n        /* \"#utility.yul\":12133:12158   */\n      swap3\n      pop\n        /* \"#utility.yul\":12177:12178   */\n      dup3\n        /* \"#utility.yul\":12174:12175   */\n      dup3\n        /* \"#utility.yul\":12171:12179   */\n      lt\n        /* \"#utility.yul\":12168:12202   */\n      iszero\n      tag_547\n      jumpi\n        /* \"#utility.yul\":12182:12200   */\n      tag_548\n      tag_394\n      jump\t// in\n    tag_548:\n        /* \"#utility.yul\":12168:12202   */\n    tag_547:\n        /* \"#utility.yul\":12227:12228   */\n      dup3\n        /* \"#utility.yul\":12224:12225   */\n      dup3\n        /* \"#utility.yul\":12220:12229   */\n      sub\n        /* \"#utility.yul\":12212:12229   */\n      swap1\n      pop\n        /* \"#utility.yul\":12044:12235   */\n      swap3\n      swap2\n      pop\n      pop\n      jump\t// out\n        /* \"#utility.yul\":12241:12573   */\n    tag_166:\n        /* \"#utility.yul\":12362:12366   */\n      0x00\n        /* \"#utility.yul\":12400:12402   */\n      0x40\n        /* \"#utility.yul\":12389:12398   */\n      dup3\n        /* \"#utility.yul\":12385:12403   */\n      add\n        /* \"#utility.yul\":12377:12403   */\n      swap1\n      pop\n        /* \"#utility.yul\":12413:12484   */\n      tag_550\n        /* \"#utility.yul\":12481:12482   */\n      0x00\n        /* \"#utility.yul\":12470:12479   */\n      dup4\n        /* \"#utility.yul\":12466:12483   */\n      add\n        /* \"#utility.yul\":12457:12463   */\n      dup6\n        /* \"#utility.yul\":12413:12484   */\n      tag_362\n      jump\t// in\n    tag_550:\n        /* \"#utility.yul\":12494:12566   */\n      tag_551\n        /* \"#utility.yul\":12562:12564   */\n      0x20\n        /* \"#utility.yul\":12551:12560   */\n      dup4\n        /* \"#utility.yul\":12547:12565   */\n      add\n        /* \"#utility.yul\":12538:12544   */\n      dup5\n        /* \"#utility.yul\":12494:12566   */\n      tag_362\n      jump\t// in\n    tag_551:\n        /* \"#utility.yul\":12241:12573   */\n      swap4\n      swap3\n      pop\n      pop\n      pop\n      jump\t// out\n        /* \"#utility.yul\":12579:12812   */\n    tag_395:\n        /* \"#utility.yul\":12719:12753   */\n      0x496e697469616c697a61626c653a20636f6e747261637420697320616c726561\n        /* \"#utility.yul\":12715:12716   */\n      0x00\n        /* \"#utility.yul\":12707:12713   */\n      dup3\n        /* \"#utility.yul\":12703:12717   */\n      add\n        /* \"#utility.yul\":12696:12754   */\n      mstore\n        /* \"#utility.yul\":12788:12804   */\n      0x647920696e697469616c697a6564000000000000000000000000000000000000\n        /* \"#utility.yul\":12783:12785   */\n      0x20\n        /* \"#utility.yul\":12775:12781   */\n      dup3\n        /* \"#utility.yul\":12771:12786   */\n      add\n        /* \"#utility.yul\":12764:12805   */\n      mstore\n        /* \"#utility.yul\":12579:12812   */\n      pop\n      jump\t// out\n        /* \"#utility.yul\":12818:13184   */\n    tag_396:\n        /* \"#utility.yul\":12960:12963   */\n      0x00\n        /* \"#utility.yul\":12981:13048   */\n      tag_554\n        /* \"#utility.yul\":13045:13047   */\n      0x2e\n        /* \"#utility.yul\":13040:13043   */\n      dup4\n        /* \"#utility.yul\":12981:13048   */\n      tag_371\n      jump\t// in\n    tag_554:\n        /* \"#utility.yul\":12974:13048   */\n      swap2\n      pop\n        /* \"#utility.yul\":13057:13150   */\n      tag_555\n        /* \"#utility.yul\":13146:13149   */\n      dup3\n        /* \"#utility.yul\":13057:13150   */\n      tag_395\n      jump\t// in\n    tag_555:\n        /* \"#utility.yul\":13175:13177   */\n      0x40\n        /* \"#utility.yul\":13170:13173   */\n      dup3\n        /* \"#utility.yul\":13166:13178   */\n      add\n        /* \"#utility.yul\":13159:13178   */\n      swap1\n      pop\n        /* \"#utility.yul\":12818:13184   */\n      swap2\n      swap1\n      pop\n      jump\t// out\n        /* \"#utility.yul\":13190:13609   */\n    tag_176:\n        /* \"#utility.yul\":13356:13360   */\n      0x00\n        /* \"#utility.yul\":13394:13396   */\n      0x20\n        /* \"#utility.yul\":13383:13392   */\n      dup3\n        /* \"#utility.yul\":13379:13397   */\n      add\n        /* \"#utility.yul\":13371:13397   */\n      swap1\n      pop\n        /* \"#utility.yul\":13443:13452   */\n      dup2\n        /* \"#utility.yul\":13437:13441   */\n      dup2\n        /* \"#utility.yul\":13433:13453   */\n      sub\n        /* \"#utility.yul\":13429:13430   */\n      0x00\n        /* \"#utility.yul\":13418:13427   */\n      dup4\n        /* \"#utility.yul\":13414:13431   */\n      add\n        /* \"#utility.yul\":13407:13454   */\n      mstore\n        /* \"#utility.yul\":13471:13602   */\n      tag_557\n        /* \"#utility.yul\":13597:13601   */\n      dup2\n        /* \"#utility.yul\":13471:13602   */\n      tag_396\n      jump\t// in\n    tag_557:\n        /* \"#utility.yul\":13463:13602   */\n      swap1\n      pop\n        /* \"#utility.yul\":13190:13609   */\n      swap2\n      swap1\n      pop\n      jump\t// out\n        /* \"#utility.yul\":13615:13700   */\n    tag_397:\n        /* \"#utility.yul\":13660:13667   */\n      0x00\n        /* \"#utility.yul\":13689:13694   */\n      dup2\n        /* \"#utility.yul\":13678:13694   */\n      swap1\n      pop\n        /* \"#utility.yul\":13615:13700   */\n      swap2\n      swap1\n      pop\n      jump\t// out\n        /* \"#utility.yul\":13706:13792   */\n    tag_398:\n        /* \"#utility.yul\":13741:13748   */\n      0x00\n        /* \"#utility.yul\":13781:13785   */\n      0xff\n        /* \"#utility.yul\":13774:13779   */\n      dup3\n        /* \"#utility.yul\":13770:13786   */\n      and\n        /* \"#utility.yul\":13759:13786   */\n      swap1\n      pop\n        /* \"#utility.yul\":13706:13792   */\n      swap2\n      swap1\n      pop\n      jump\t// out\n        /* \"#utility.yul\":13798:13858   */\n    tag_399:\n        /* \"#utility.yul\":13826:13829   */\n      0x00\n        /* \"#utility.yul\":13847:13852   */\n      dup2\n        /* \"#utility.yul\":13840:13852   */\n      swap1\n      pop\n        /* \"#utility.yul\":13798:13858   */\n      swap2\n      swap1\n      pop\n      jump\t// out\n        /* \"#utility.yul\":13864:14018   */\n    tag_400:\n        /* \"#utility.yul\":13920:13929   */\n      0x00\n        /* \"#utility.yul\":13953:14012   */\n      tag_562\n        /* \"#utility.yul\":13969:14011   */\n      tag_563\n        /* \"#utility.yul\":13978:14010   */\n      tag_564\n        /* \"#utility.yul\":14004:14009   */\n      dup5\n        /* \"#utility.yul\":13978:14010   */\n      tag_397\n      jump\t// in\n    tag_564:\n        /* \"#utility.yul\":13969:14011   */\n      tag_399\n      jump\t// in\n    tag_563:\n        /* \"#utility.yul\":13953:14012   */\n      tag_398\n      jump\t// in\n    tag_562:\n        /* \"#utility.yul\":13940:14012   */\n      swap1\n      pop\n        /* \"#utility.yul\":13864:14018   */\n      swap2\n      swap1\n      pop\n      jump\t// out\n        /* \"#utility.yul\":14024:14167   */\n    tag_401:\n        /* \"#utility.yul\":14117:14160   */\n      tag_566\n        /* \"#utility.yul\":14154:14159   */\n      dup2\n        /* \"#utility.yul\":14117:14160   */\n      tag_400\n      jump\t// in\n    tag_566:\n        /* \"#utility.yul\":14112:14115   */\n      dup3\n        /* \"#utility.yul\":14105:14161   */\n      mstore\n        /* \"#utility.yul\":14024:14167   */\n      pop\n      pop\n      jump\t// out\n        /* \"#utility.yul\":14173:14407   */\n    tag_189:\n        /* \"#utility.yul\":14272:14276   */\n      0x00\n        /* \"#utility.yul\":14310:14312   */\n      0x20\n        /* \"#utility.yul\":14299:14308   */\n      dup3\n        /* \"#utility.yul\":14295:14313   */\n      add\n        /* \"#utility.yul\":14287:14313   */\n      swap1\n      pop\n        /* \"#utility.yul\":14323:14400   */\n      tag_568\n        /* \"#utility.yul\":14397:14398   */\n      0x00\n        /* \"#utility.yul\":14386:14395   */\n      dup4\n        /* \"#utility.yul\":14382:14399   */\n      add\n        /* \"#utility.yul\":14373:14379   */\n      dup5\n        /* \"#utility.yul\":14323:14400   */\n      tag_401\n      jump\t// in\n    tag_568:\n        /* \"#utility.yul\":14173:14407   */\n      swap3\n      swap2\n      pop\n      pop\n      jump\t// out\n        /* \"#utility.yul\":14413:14761   */\n    tag_212:\n        /* \"#utility.yul\":14453:14460   */\n      0x00\n        /* \"#utility.yul\":14476:14496   */\n      tag_570\n        /* \"#utility.yul\":14494:14495   */\n      dup3\n        /* \"#utility.yul\":14476:14496   */\n      tag_368\n      jump\t// in\n    tag_570:\n        /* \"#utility.yul\":14471:14496   */\n      swap2\n      pop\n        /* \"#utility.yul\":14510:14530   */\n      tag_571\n        /* \"#utility.yul\":14528:14529   */\n      dup4\n        /* \"#utility.yul\":14510:14530   */\n      tag_368\n      jump\t// in\n    tag_571:\n        /* \"#utility.yul\":14505:14530   */\n      swap3\n      pop\n        /* \"#utility.yul\":14698:14699   */\n      dup2\n        /* \"#utility.yul\":14630:14696   */\n      0xffffffffffffffffffffffffffffffffffffffffffffffffffffffffffffffff\n        /* \"#utility.yul\":14626:14700   */\n      div\n        /* \"#utility.yul\":14623:14624   */\n      dup4\n        /* \"#utility.yul\":14620:14701   */\n      gt\n        /* \"#utility.yul\":14615:14616   */\n      dup3\n        /* \"#utility.yul\":14608:14617   */\n      iszero\n        /* \"#utility.yul\":14601:14618   */\n      iszero\n        /* \"#utility.yul\":14597:14702   */\n      and\n        /* \"#utility.yul\":14594:14725   */\n      iszero\n      tag_572\n      jumpi\n        /* \"#utility.yul\":14705:14723   */\n      tag_573\n      tag_394\n      jump\t// in\n    tag_573:\n        /* \"#utility.yul\":14594:14725   */\n    tag_572:\n        /* \"#utility.yul\":14753:14754   */\n      dup3\n        /* \"#utility.yul\":14750:14751   */\n      dup3\n        /* \"#utility.yul\":14746:14755   */\n      mul\n        /* \"#utility.yul\":14735:14755   */\n      swap1\n      pop\n        /* \"#utility.yul\":14413:14761   */\n      swap3\n      swap2\n      pop\n      pop\n      jump\t// out\n        /* \"#utility.yul\":14767:14947   */\n    tag_402:\n        /* \"#utility.yul\":14815:14892   */\n      0x4e487b7100000000000000000000000000000000000000000000000000000000\n        /* \"#utility.yul\":14812:14813   */\n      0x00\n        /* \"#utility.yul\":14805:14893   */\n      mstore\n        /* \"#utility.yul\":14912:14916   */\n      0x12\n        /* \"#utility.yul\":14909:14910   */\n      0x04\n        /* \"#utility.yul\":14902:14917   */\n      mstore\n        /* \"#utility.yul\":14936:14940   */\n      0x24\n        /* \"#utility.yul\":14933:14934   */\n      0x00\n        /* \"#utility.yul\":14926:14941   */\n      revert\n        /* \"#utility.yul\":14953:15138   */\n    tag_214:\n        /* \"#utility.yul\":14993:14994   */\n      0x00\n        /* \"#utility.yul\":15010:15030   */\n      tag_576\n        /* \"#utility.yul\":15028:15029   */\n      dup3\n        /* \"#utility.yul\":15010:15030   */\n      tag_368\n      jump\t// in\n    tag_576:\n        /* \"#utility.yul\":15005:15030   */\n      swap2\n      pop\n        /* \"#utility.yul\":15044:15064   */\n      tag_577\n        /* \"#utility.yul\":15062:15063   */\n      dup4\n        /* \"#utility.yul\":15044:15064   */\n      tag_368\n      jump\t// in\n    tag_577:\n        /* \"#utility.yul\":15039:15064   */\n      swap3\n      pop\n        /* \"#utility.yul\":15083:15084   */\n      dup3\n        /* \"#utility.yul\":15073:15108   */\n      tag_578\n      jumpi\n        /* \"#utility.yul\":15088:15106   */\n      tag_579\n      tag_402\n      jump\t// in\n    tag_579:\n        /* \"#utility.yul\":15073:15108   */\n    tag_578:\n        /* \"#utility.yul\":15130:15131   */\n      dup3\n        /* \"#utility.yul\":15127:15128   */\n      dup3\n        /* \"#utility.yul\":15123:15132   */\n      div\n        /* \"#utility.yul\":15118:15132   */\n      swap1\n      pop\n        /* \"#utility.yul\":14953:15138   */\n      swap3\n      swap2\n      pop\n      pop\n      jump\t// out\n        /* \"#utility.yul\":15144:15369   */\n    tag_403:\n        /* \"#utility.yul\":15284:15318   */\n      0x4f776e61626c653a206e6577206f776e657220697320746865207a65726f2061\n        /* \"#utility.yul\":15280:15281   */\n      0x00\n        /* \"#utility.yul\":15272:15278   */\n      dup3\n        /* \"#utility.yul\":15268:15282   */\n      add\n        /* \"#utility.yul\":15261:15319   */\n      mstore\n        /* \"#utility.yul\":15353:15361   */\n      0x6464726573730000000000000000000000000000000000000000000000000000\n        /* \"#utility.yul\":15348:15350   */\n      0x20\n        /* \"#utility.yul\":15340:15346   */\n      dup3\n        /* \"#utility.yul\":15336:15351   */\n      add\n        /* \"#utility.yul\":15329:15362   */\n      mstore\n        /* \"#utility.yul\":15144:15369   */\n      pop\n      jump\t// out\n        /* \"#utility.yul\":15375:15741   */\n    tag_404:\n        /* \"#utility.yul\":15517:15520   */\n      0x00\n        /* \"#utility.yul\":15538:15605   */\n      tag_582\n        /* \"#utility.yul\":15602:15604   */\n      0x26\n        /* \"#utility.yul\":15597:15600   */\n      dup4\n        /* \"#utility.yul\":15538:15605   */\n      tag_371\n      jump\t// in\n    tag_582:\n        /* \"#utility.yul\":15531:15605   */\n      swap2\n      pop\n        /* \"#utility.yul\":15614:15707   */\n      tag_583\n        /* \"#utility.yul\":15703:15706   */\n      dup3\n        /* \"#utility.yul\":15614:15707   */\n      tag_403\n      jump\t// in\n    tag_583:\n        /* \"#utility.yul\":15732:15734   */\n      0x40\n        /* \"#utility.yul\":15727:15730   */\n      dup3\n        /* \"#utility.yul\":15723:15735   */\n      add\n        /* \"#utility.yul\":15716:15735   */\n      swap1\n      pop\n        /* \"#utility.yul\":15375:15741   */\n      swap2\n      swap1\n      pop\n      jump\t// out\n        /* \"#utility.yul\":15747:16166   */\n    tag_233:\n        /* \"#utility.yul\":15913:15917   */\n      0x00\n        /* \"#utility.yul\":15951:15953   */\n      0x20\n        /* \"#utility.yul\":15940:15949   */\n      dup3\n        /* \"#utility.yul\":15936:15954   */\n      add\n        /* \"#utility.yul\":15928:15954   */\n      swap1\n      pop\n        /* \"#utility.yul\":16000:16009   */\n      dup2\n        /* \"#utility.yul\":15994:15998   */\n      dup2\n        /* \"#utility.yul\":15990:16010   */\n      sub\n        /* \"#utility.yul\":15986:15987   */\n      0x00\n        /* \"#utility.yul\":15975:15984   */\n      dup4\n        /* \"#utility.yul\":15971:15988   */\n      add\n        /* \"#utility.yul\":15964:16011   */\n      mstore\n        /* \"#utility.yul\":16028:16159   */\n      tag_585\n        /* \"#utility.yul\":16154:16158   */\n      dup2\n        /* \"#utility.yul\":16028:16159   */\n      tag_404\n      jump\t// in\n    tag_585:\n        /* \"#utility.yul\":16020:16159   */\n      swap1\n      pop\n        /* \"#utility.yul\":15747:16166   */\n      swap2\n      swap1\n      pop\n      jump\t// out\n        /* \"#utility.yul\":16172:16349   */\n    tag_405:\n        /* \"#utility.yul\":16312:16341   */\n      0x686173206e6f7420676f74207969656c647320746f20636c61696d0000000000\n        /* \"#utility.yul\":16308:16309   */\n      0x00\n        /* \"#utility.yul\":16300:16306   */\n      dup3\n        /* \"#utility.yul\":16296:16310   */\n      add\n        /* \"#utility.yul\":16289:16342   */\n      mstore\n        /* \"#utility.yul\":16172:16349   */\n      pop\n      jump\t// out\n        /* \"#utility.yul\":16355:16721   */\n    tag_406:\n        /* \"#utility.yul\":16497:16500   */\n      0x00\n        /* \"#utility.yul\":16518:16585   */\n      tag_588\n        /* \"#utility.yul\":16582:16584   */\n      0x1b\n        /* \"#utility.yul\":16577:16580   */\n      dup4\n        /* \"#utility.yul\":16518:16585   */\n      tag_371\n      jump\t// in\n    tag_588:\n        /* \"#utility.yul\":16511:16585   */\n      swap2\n      pop\n        /* \"#utility.yul\":16594:16687   */\n      tag_589\n        /* \"#utility.yul\":16683:16686   */\n      dup3\n        /* \"#utility.yul\":16594:16687   */\n      tag_405\n      jump\t// in\n    tag_589:\n        /* \"#utility.yul\":16712:16714   */\n      0x20\n        /* \"#utility.yul\":16707:16710   */\n      dup3\n        /* \"#utility.yul\":16703:16715   */\n      add\n        /* \"#utility.yul\":16696:16715   */\n      swap1\n      pop\n        /* \"#utility.yul\":16355:16721   */\n      swap2\n      swap1\n      pop\n      jump\t// out\n        /* \"#utility.yul\":16727:17146   */\n    tag_252:\n        /* \"#utility.yul\":16893:16897   */\n      0x00\n        /* \"#utility.yul\":16931:16933   */\n      0x20\n        /* \"#utility.yul\":16920:16929   */\n      dup3\n        /* \"#utility.yul\":16916:16934   */\n      add\n        /* \"#utility.yul\":16908:16934   */\n      swap1\n      pop\n        /* \"#utility.yul\":16980:16989   */\n      dup2\n        /* \"#utility.yul\":16974:16978   */\n      dup2\n        /* \"#utility.yul\":16970:16990   */\n      sub\n        /* \"#utility.yul\":16966:16967   */\n      0x00\n        /* \"#utility.yul\":16955:16964   */\n      dup4\n        /* \"#utility.yul\":16951:16968   */\n      add\n        /* \"#utility.yul\":16944:16991   */\n      mstore\n        /* \"#utility.yul\":17008:17139   */\n      tag_591\n        /* \"#utility.yul\":17134:17138   */\n      dup2\n        /* \"#utility.yul\":17008:17139   */\n      tag_406\n      jump\t// in\n    tag_591:\n        /* \"#utility.yul\":17000:17139   */\n      swap1\n      pop\n        /* \"#utility.yul\":16727:17146   */\n      swap2\n      swap1\n      pop\n      jump\t// out\n        /* \"#utility.yul\":17152:17457   */\n    tag_254:\n        /* \"#utility.yul\":17192:17195   */\n      0x00\n        /* \"#utility.yul\":17211:17231   */\n      tag_593\n        /* \"#utility.yul\":17229:17230   */\n      dup3\n        /* \"#utility.yul\":17211:17231   */\n      tag_368\n      jump\t// in\n    tag_593:\n        /* \"#utility.yul\":17206:17231   */\n      swap2\n      pop\n        /* \"#utility.yul\":17245:17265   */\n      tag_594\n        /* \"#utility.yul\":17263:17264   */\n      dup4\n        /* \"#utility.yul\":17245:17265   */\n      tag_368\n      jump\t// in\n    tag_594:\n        /* \"#utility.yul\":17240:17265   */\n      swap3\n      pop\n        /* \"#utility.yul\":17399:17400   */\n      dup3\n        /* \"#utility.yul\":17331:17397   */\n      0xffffffffffffffffffffffffffffffffffffffffffffffffffffffffffffffff\n        /* \"#utility.yul\":17327:17401   */\n      sub\n        /* \"#utility.yul\":17324:17325   */\n      dup3\n        /* \"#utility.yul\":17321:17402   */\n      gt\n        /* \"#utility.yul\":17318:17425   */\n      iszero\n      tag_595\n      jumpi\n        /* \"#utility.yul\":17405:17423   */\n      tag_596\n      tag_394\n      jump\t// in\n    tag_596:\n        /* \"#utility.yul\":17318:17425   */\n    tag_595:\n        /* \"#utility.yul\":17449:17450   */\n      dup3\n        /* \"#utility.yul\":17446:17447   */\n      dup3\n        /* \"#utility.yul\":17442:17451   */\n      add\n        /* \"#utility.yul\":17435:17451   */\n      swap1\n      pop\n        /* \"#utility.yul\":17152:17457   */\n      swap3\n      swap2\n      pop\n      pop\n      jump\t// out\n        /* \"#utility.yul\":17463:17795   */\n    tag_256:\n        /* \"#utility.yul\":17584:17588   */\n      0x00\n        /* \"#utility.yul\":17622:17624   */\n      0x40\n        /* \"#utility.yul\":17611:17620   */\n      dup3\n        /* \"#utility.yul\":17607:17625   */\n      add\n        /* \"#utility.yul\":17599:17625   */\n      swap1\n      pop\n        /* \"#utility.yul\":17635:17706   */\n      tag_598\n        /* \"#utility.yul\":17703:17704   */\n      0x00\n        /* \"#utility.yul\":17692:17701   */\n      dup4\n        /* \"#utility.yul\":17688:17705   */\n      add\n        /* \"#utility.yul\":17679:17685   */\n      dup6\n        /* \"#utility.yul\":17635:17706   */\n      tag_362\n      jump\t// in\n    tag_598:\n        /* \"#utility.yul\":17716:17788   */\n      tag_599\n        /* \"#utility.yul\":17784:17786   */\n      0x20\n        /* \"#utility.yul\":17773:17782   */\n      dup4\n        /* \"#utility.yul\":17769:17787   */\n      add\n        /* \"#utility.yul\":17760:17766   */\n      dup5\n        /* \"#utility.yul\":17716:17788   */\n      tag_369\n      jump\t// in\n    tag_599:\n        /* \"#utility.yul\":17463:17795   */\n      swap4\n      swap3\n      pop\n      pop\n      pop\n      jump\t// out\n        /* \"#utility.yul\":17801:17917   */\n    tag_407:\n        /* \"#utility.yul\":17871:17892   */\n      tag_601\n        /* \"#utility.yul\":17886:17891   */\n      dup2\n        /* \"#utility.yul\":17871:17892   */\n      tag_386\n      jump\t// in\n    tag_601:\n        /* \"#utility.yul\":17864:17869   */\n      dup2\n        /* \"#utility.yul\":17861:17893   */\n      eq\n        /* \"#utility.yul\":17851:17911   */\n      tag_602\n      jumpi\n        /* \"#utility.yul\":17907:17908   */\n      0x00\n        /* \"#utility.yul\":17904:17905   */\n      dup1\n        /* \"#utility.yul\":17897:17909   */\n      revert\n        /* \"#utility.yul\":17851:17911   */\n    tag_602:\n        /* \"#utility.yul\":17801:17917   */\n      pop\n      jump\t// out\n        /* \"#utility.yul\":17923:18060   */\n    tag_408:\n        /* \"#utility.yul\":17977:17982   */\n      0x00\n        /* \"#utility.yul\":18008:18014   */\n      dup2\n        /* \"#utility.yul\":18002:18015   */\n      mload\n        /* \"#utility.yul\":17993:18015   */\n      swap1\n      pop\n        /* \"#utility.yul\":18024:18054   */\n      tag_604\n        /* \"#utility.yul\":18048:18053   */\n      dup2\n        /* \"#utility.yul\":18024:18054   */\n      tag_407\n      jump\t// in\n    tag_604:\n        /* \"#utility.yul\":17923:18060   */\n      swap3\n      swap2\n      pop\n      pop\n      jump\t// out\n        /* \"#utility.yul\":18066:18411   */\n    tag_260:\n        /* \"#utility.yul\":18133:18139   */\n      0x00\n        /* \"#utility.yul\":18182:18184   */\n      0x20\n        /* \"#utility.yul\":18170:18179   */\n      dup3\n        /* \"#utility.yul\":18161:18168   */\n      dup5\n        /* \"#utility.yul\":18157:18180   */\n      sub\n        /* \"#utility.yul\":18153:18185   */\n      slt\n        /* \"#utility.yul\":18150:18269   */\n      iszero\n      tag_606\n      jumpi\n        /* \"#utility.yul\":18188:18267   */\n      tag_607\n      tag_364\n      jump\t// in\n    tag_607:\n        /* \"#utility.yul\":18150:18269   */\n    tag_606:\n        /* \"#utility.yul\":18308:18309   */\n      0x00\n        /* \"#utility.yul\":18333:18394   */\n      tag_608\n        /* \"#utility.yul\":18386:18393   */\n      dup5\n        /* \"#utility.yul\":18377:18383   */\n      dup3\n        /* \"#utility.yul\":18366:18375   */\n      dup6\n        /* \"#utility.yul\":18362:18384   */\n      add\n        /* \"#utility.yul\":18333:18394   */\n      tag_408\n      jump\t// in\n    tag_608:\n        /* \"#utility.yul\":18323:18394   */\n      swap2\n      pop\n        /* \"#utility.yul\":18279:18404   */\n      pop\n        /* \"#utility.yul\":18066:18411   */\n      swap3\n      swap2\n      pop\n      pop\n      jump\t// out\n        /* \"#utility.yul\":18417:18859   */\n    tag_267:\n        /* \"#utility.yul\":18566:18570   */\n      0x00\n        /* \"#utility.yul\":18604:18606   */\n      0x60\n        /* \"#utility.yul\":18593:18602   */\n      dup3\n        /* \"#utility.yul\":18589:18607   */\n      add\n        /* \"#utility.yul\":18581:18607   */\n      swap1\n      pop\n        /* \"#utility.yul\":18617:18688   */\n      tag_610\n        /* \"#utility.yul\":18685:18686   */\n      0x00\n        /* \"#utility.yul\":18674:18683   */\n      dup4\n        /* \"#utility.yul\":18670:18687   */\n      add\n        /* \"#utility.yul\":18661:18667   */\n      dup7\n        /* \"#utility.yul\":18617:18688   */\n      tag_362\n      jump\t// in\n    tag_610:\n        /* \"#utility.yul\":18698:18770   */\n      tag_611\n        /* \"#utility.yul\":18766:18768   */\n      0x20\n        /* \"#utility.yul\":18755:18764   */\n      dup4\n        /* \"#utility.yul\":18751:18769   */\n      add\n        /* \"#utility.yul\":18742:18748   */\n      dup6\n        /* \"#utility.yul\":18698:18770   */\n      tag_362\n      jump\t// in\n    tag_611:\n        /* \"#utility.yul\":18780:18852   */\n      tag_612\n        /* \"#utility.yul\":18848:18850   */\n      0x40\n        /* \"#utility.yul\":18837:18846   */\n      dup4\n        /* \"#utility.yul\":18833:18851   */\n      add\n        /* \"#utility.yul\":18824:18830   */\n      dup5\n        /* \"#utility.yul\":18780:18852   */\n      tag_369\n      jump\t// in\n    tag_612:\n        /* \"#utility.yul\":18417:18859   */\n      swap5\n      swap4\n      pop\n      pop\n      pop\n      pop\n      jump\t// out\n        /* \"#utility.yul\":18865:19047   */\n    tag_409:\n        /* \"#utility.yul\":19005:19039   */\n      0x4f776e61626c653a2063616c6c6572206973206e6f7420746865206f776e6572\n        /* \"#utility.yul\":19001:19002   */\n      0x00\n        /* \"#utility.yul\":18993:18999   */\n      dup3\n        /* \"#utility.yul\":18989:19003   */\n      add\n        /* \"#utility.yul\":18982:19040   */\n      mstore\n        /* \"#utility.yul\":18865:19047   */\n      pop\n      jump\t// out\n        /* \"#utility.yul\":19053:19419   */\n    tag_410:\n        /* \"#utility.yul\":19195:19198   */\n      0x00\n        /* \"#utility.yul\":19216:19283   */\n      tag_615\n        /* \"#utility.yul\":19280:19282   */\n      0x20\n        /* \"#utility.yul\":19275:19278   */\n      dup4\n        /* \"#utility.yul\":19216:19283   */\n      tag_371\n      jump\t// in\n    tag_615:\n        /* \"#utility.yul\":19209:19283   */\n      swap2\n      pop\n        /* \"#utility.yul\":19292:19385   */\n      tag_616\n        /* \"#utility.yul\":19381:19384   */\n      dup3\n        /* \"#utility.yul\":19292:19385   */\n      tag_409\n      jump\t// in\n    tag_616:\n        /* \"#utility.yul\":19410:19412   */\n      0x20\n        /* \"#utility.yul\":19405:19408   */\n      dup3\n        /* \"#utility.yul\":19401:19413   */\n      add\n        /* \"#utility.yul\":19394:19413   */\n      swap1\n      pop\n        /* \"#utility.yul\":19053:19419   */\n      swap2\n      swap1\n      pop\n      jump\t// out\n        /* \"#utility.yul\":19425:19844   */\n    tag_286:\n        /* \"#utility.yul\":19591:19595   */\n      0x00\n        /* \"#utility.yul\":19629:19631   */\n      0x20\n        /* \"#utility.yul\":19618:19627   */\n      dup3\n        /* \"#utility.yul\":19614:19632   */\n      add\n        /* \"#utility.yul\":19606:19632   */\n      swap1\n      pop\n        /* \"#utility.yul\":19678:19687   */\n      dup2\n        /* \"#utility.yul\":19672:19676   */\n      dup2\n        /* \"#utility.yul\":19668:19688   */\n      sub\n        /* \"#utility.yul\":19664:19665   */\n      0x00\n        /* \"#utility.yul\":19653:19662   */\n      dup4\n        /* \"#utility.yul\":19649:19666   */\n      add\n        /* \"#utility.yul\":19642:19689   */\n      mstore\n        /* \"#utility.yul\":19706:19837   */\n      tag_618\n        /* \"#utility.yul\":19832:19836   */\n      dup2\n        /* \"#utility.yul\":19706:19837   */\n      tag_410\n      jump\t// in\n    tag_618:\n        /* \"#utility.yul\":19698:19837   */\n      swap1\n      pop\n        /* \"#utility.yul\":19425:19844   */\n      swap2\n      swap1\n      pop\n      jump\t// out\n        /* \"#utility.yul\":19850:20080   */\n    tag_411:\n        /* \"#utility.yul\":19990:20024   */\n      0x496e697469616c697a61626c653a20636f6e7472616374206973206e6f742069\n        /* \"#utility.yul\":19986:19987   */\n      0x00\n        /* \"#utility.yul\":19978:19984   */\n      dup3\n        /* \"#utility.yul\":19974:19988   */\n      add\n        /* \"#utility.yul\":19967:20025   */\n      mstore\n        /* \"#utility.yul\":20059:20072   */\n      0x6e697469616c697a696e67000000000000000000000000000000000000000000\n        /* \"#utility.yul\":20054:20056   */\n      0x20\n        /* \"#utility.yul\":20046:20052   */\n      dup3\n        /* \"#utility.yul\":20042:20057   */\n      add\n        /* \"#utility.yul\":20035:20073   */\n      mstore\n        /* \"#utility.yul\":19850:20080   */\n      pop\n      jump\t// out\n        /* \"#utility.yul\":20086:20452   */\n    tag_412:\n        /* \"#utility.yul\":20228:20231   */\n      0x00\n        /* \"#utility.yul\":20249:20316   */\n      tag_621\n        /* \"#utility.yul\":20313:20315   */\n      0x2b\n        /* \"#utility.yul\":20308:20311   */\n      dup4\n        /* \"#utility.yul\":20249:20316   */\n      tag_371\n      jump\t// in\n    tag_621:\n        /* \"#utility.yul\":20242:20316   */\n      swap2\n      pop\n        /* \"#utility.yul\":20325:20418   */\n      tag_622\n        /* \"#utility.yul\":20414:20417   */\n      dup3\n        /* \"#utility.yul\":20325:20418   */\n      tag_411\n      jump\t// in\n    tag_622:\n        /* \"#utility.yul\":20443:20445   */\n      0x40\n        /* \"#utility.yul\":20438:20441   */\n      dup3\n        /* \"#utility.yul\":20434:20446   */\n      add\n        /* \"#utility.yul\":20427:20446   */\n      swap1\n      pop\n        /* \"#utility.yul\":20086:20452   */\n      swap2\n      swap1\n      pop\n      jump\t// out\n        /* \"#utility.yul\":20458:20877   */\n    tag_291:\n        /* \"#utility.yul\":20624:20628   */\n      0x00\n        /* \"#utility.yul\":20662:20664   */\n      0x20\n        /* \"#utility.yul\":20651:20660   */\n      dup3\n        /* \"#utility.yul\":20647:20665   */\n      add\n        /* \"#utility.yul\":20639:20665   */\n      swap1\n      pop\n        /* \"#utility.yul\":20711:20720   */\n      dup2\n        /* \"#utility.yul\":20705:20709   */\n      dup2\n        /* \"#utility.yul\":20701:20721   */\n      sub\n        /* \"#utility.yul\":20697:20698   */\n      0x00\n        /* \"#utility.yul\":20686:20695   */\n      dup4\n        /* \"#utility.yul\":20682:20699   */\n      add\n        /* \"#utility.yul\":20675:20722   */\n      mstore\n        /* \"#utility.yul\":20739:20870   */\n      tag_624\n        /* \"#utility.yul\":20865:20869   */\n      dup2\n        /* \"#utility.yul\":20739:20870   */\n      tag_412\n      jump\t// in\n    tag_624:\n        /* \"#utility.yul\":20731:20870   */\n      swap1\n      pop\n        /* \"#utility.yul\":20458:20877   */\n      swap2\n      swap1\n      pop\n      jump\t// out\n        /* \"#utility.yul\":20883:21061   */\n    tag_413:\n        /* \"#utility.yul\":21023:21053   */\n      0x6e6f74207375636820616d6f756e7420696e20746865207661756c7400000000\n        /* \"#utility.yul\":21019:21020   */\n      0x00\n        /* \"#utility.yul\":21011:21017   */\n      dup3\n        /* \"#utility.yul\":21007:21021   */\n      add\n        /* \"#utility.yul\":21000:21054   */\n      mstore\n        /* \"#utility.yul\":20883:21061   */\n      pop\n      jump\t// out\n        /* \"#utility.yul\":21067:21433   */\n    tag_414:\n        /* \"#utility.yul\":21209:21212   */\n      0x00\n        /* \"#utility.yul\":21230:21297   */\n      tag_627\n        /* \"#utility.yul\":21294:21296   */\n      0x1c\n        /* \"#utility.yul\":21289:21292   */\n      dup4\n        /* \"#utility.yul\":21230:21297   */\n      tag_371\n      jump\t// in\n    tag_627:\n        /* \"#utility.yul\":21223:21297   */\n      swap2\n      pop\n        /* \"#utility.yul\":21306:21399   */\n      tag_628\n        /* \"#utility.yul\":21395:21398   */\n      dup3\n        /* \"#utility.yul\":21306:21399   */\n      tag_413\n      jump\t// in\n    tag_628:\n        /* \"#utility.yul\":21424:21426   */\n      0x20\n        /* \"#utility.yul\":21419:21422   */\n      dup3\n        /* \"#utility.yul\":21415:21427   */\n      add\n        /* \"#utility.yul\":21408:21427   */\n      swap1\n      pop\n        /* \"#utility.yul\":21067:21433   */\n      swap2\n      swap1\n      pop\n      jump\t// out\n        /* \"#utility.yul\":21439:21858   */\n    tag_320:\n        /* \"#utility.yul\":21605:21609   */\n      0x00\n        /* \"#utility.yul\":21643:21645   */\n      0x20\n        /* \"#utility.yul\":21632:21641   */\n      dup3\n        /* \"#utility.yul\":21628:21646   */\n      add\n        /* \"#utility.yul\":21620:21646   */\n      swap1\n      pop\n        /* \"#utility.yul\":21692:21701   */\n      dup2\n        /* \"#utility.yul\":21686:21690   */\n      dup2\n        /* \"#utility.yul\":21682:21702   */\n      sub\n        /* \"#utility.yul\":21678:21679   */\n      0x00\n        /* \"#utility.yul\":21667:21676   */\n      dup4\n        /* \"#utility.yul\":21663:21680   */\n      add\n        /* \"#utility.yul\":21656:21703   */\n      mstore\n        /* \"#utility.yul\":21720:21851   */\n      tag_630\n        /* \"#utility.yul\":21846:21850   */\n      dup2\n        /* \"#utility.yul\":21720:21851   */\n      tag_414\n      jump\t// in\n    tag_630:\n        /* \"#utility.yul\":21712:21851   */\n      swap1\n      pop\n        /* \"#utility.yul\":21439:21858   */\n      swap2\n      swap1\n      pop\n      jump\t// out\n        /* \"#utility.yul\":21864:22034   */\n    tag_415:\n        /* \"#utility.yul\":22004:22026   */\n      0x696e73756666696369656e742062616c616e6365000000000000000000000000\n        /* \"#utility.yul\":22000:22001   */\n      0x00\n        /* \"#utility.yul\":21992:21998   */\n      dup3\n        /* \"#utility.yul\":21988:22002   */\n      add\n        /* \"#utility.yul\":21981:22027   */\n      mstore\n        /* \"#utility.yul\":21864:22034   */\n      pop\n      jump\t// out\n        /* \"#utility.yul\":22040:22406   */\n    tag_416:\n        /* \"#utility.yul\":22182:22185   */\n      0x00\n        /* \"#utility.yul\":22203:22270   */\n      tag_633\n        /* \"#utility.yul\":22267:22269   */\n      0x14\n        /* \"#utility.yul\":22262:22265   */\n      dup4\n        /* \"#utility.yul\":22203:22270   */\n      tag_371\n      jump\t// in\n    tag_633:\n        /* \"#utility.yul\":22196:22270   */\n      swap2\n      pop\n        /* \"#utility.yul\":22279:22372   */\n      tag_634\n        /* \"#utility.yul\":22368:22371   */\n      dup3\n        /* \"#utility.yul\":22279:22372   */\n      tag_415\n      jump\t// in\n    tag_634:\n        /* \"#utility.yul\":22397:22399   */\n      0x20\n        /* \"#utility.yul\":22392:22395   */\n      dup3\n        /* \"#utility.yul\":22388:22400   */\n      add\n        /* \"#utility.yul\":22381:22400   */\n      swap1\n      pop\n        /* \"#utility.yul\":22040:22406   */\n      swap2\n      swap1\n      pop\n      jump\t// out\n        /* \"#utility.yul\":22412:22831   */\n    tag_323:\n        /* \"#utility.yul\":22578:22582   */\n      0x00\n        /* \"#utility.yul\":22616:22618   */\n      0x20\n        /* \"#utility.yul\":22605:22614   */\n      dup3\n        /* \"#utility.yul\":22601:22619   */\n      add\n        /* \"#utility.yul\":22593:22619   */\n      swap1\n      pop\n        /* \"#utility.yul\":22665:22674   */\n      dup2\n        /* \"#utility.yul\":22659:22663   */\n      dup2\n        /* \"#utility.yul\":22655:22675   */\n      sub\n        /* \"#utility.yul\":22651:22652   */\n      0x00\n        /* \"#utility.yul\":22640:22649   */\n      dup4\n        /* \"#utility.yul\":22636:22653   */\n      add\n        /* \"#utility.yul\":22629:22676   */\n      mstore\n        /* \"#utility.yul\":22693:22824   */\n      tag_636\n        /* \"#utility.yul\":22819:22823   */\n      dup2\n        /* \"#utility.yul\":22693:22824   */\n      tag_416\n      jump\t// in\n    tag_636:\n        /* \"#utility.yul\":22685:22824   */\n      swap1\n      pop\n        /* \"#utility.yul\":22412:22831   */\n      swap2\n      swap1\n      pop\n      jump\t// out\n\n    auxdata: 0xa264697066735822122002742e7b24fb1f4c477b5628a3316c6d18026c51527a241e47b082bcef24a05364736f6c634300080a0033\n}\n",
				"bytecode": {
					"linkReferences": {},
					"object": "608060405234801561001057600080fd5b50612c90806100206000396000f3fe608060405234801561001057600080fd5b506004361061014d5760003560e01c8063715018a6116100c3578063b4bf36b21161007c578063b4bf36b2146103c6578063b6b55f25146103e4578063c96f0e0114610414578063f2fde38b14610444578063f3fef3a314610460578063fad83484146104905761014d565b8063715018a6146102f05780638da5cb5b146102fa5780639f1d926714610318578063aba317a914610348578063b0f479a114610378578063b36684ac146103965761014d565b8063340ac20f11610115578063340ac20f1461021e5780633fd44f171461023a5780634226626a14610256578063463fd1af146102865780635c975abb146102a25780635d602c00146102c05761014d565b80630c632bbe146101525780631101596c1461017057806317d7de7c146101a0578063223888c1146101be5780632f4f21e2146101ee575b600080fd5b61015a6104ae565b604051610167919061203a565b60405180910390f35b61018a60048036038101906101859190612095565b6104d8565b60405161019791906120ee565b60405180910390f35b6101a86105d2565b6040516101b591906121a2565b60405180910390f35b6101d860048036038101906101d391906121c4565b610664565b6040516101e591906120ee565b60405180910390f35b6102086004803603810190610203919061221d565b610828565b60405161021591906120ee565b60405180910390f35b610238600480360381019061023391906121c4565b610922565b005b610254600480360381019061024f91906121c4565b6109a5565b005b610270600480360381019061026b91906121c4565b610a51565b60405161027d91906120ee565b60405180910390f35b6102a0600480360381019061029b9190612392565b610a9a565b005b6102aa610c84565b6040516102b7919061241c565b60405180910390f35b6102da60048036038101906102d591906121c4565b610c9b565b6040516102e791906120ee565b60405180910390f35b6102f8610ce4565b005b610302610cf8565b60405161030f919061203a565b60405180910390f35b610332600480360381019061032d9190612437565b610d22565b60405161033f91906120ee565b60405180910390f35b610362600480360381019061035d91906121c4565b610e1e565b60405161036f91906120ee565b60405180910390f35b610380610f1a565b60405161038d919061203a565b60405180910390f35b6103b060048036038101906103ab91906121c4565b610f44565b6040516103bd91906120ee565b60405180910390f35b6103ce610fad565b6040516103db919061203a565b60405180910390f35b6103fe60048036038101906103f9919061248a565b610fd7565b60405161040b91906120ee565b60405180910390f35b61042e600480360381019061042991906121c4565b611040565b60405161043b91906120ee565b60405180910390f35b61045e600480360381019061045991906121c4565b611089565b005b61047a6004803603810190610475919061221d565b61110d565b60405161048791906120ee565b60405180910390f35b610498611178565b6040516104a591906120ee565b60405180910390f35b600060ca60009054906101000a900473ffffffffffffffffffffffffffffffffffffffff16905090565b600060cc60009054906101000a900473ffffffffffffffffffffffffffffffffffffffff1673ffffffffffffffffffffffffffffffffffffffff163373ffffffffffffffffffffffffffffffffffffffff161461056a576040517f08c379a000000000000000000000000000000000000000000000000000000000815260040161056190612503565b60405180910390fd5b600260975414156105b0576040517f08c379a00000000000000000000000000000000000000000000000000000000081526004016105a79061256f565b60405180910390fd5b60026097819055506105c2838361121b565b9050600160978190555092915050565b606060c980546105e1906125be565b80601f016020809104026020016040519081016040528092919081815260200182805461060d906125be565b801561065a5780601f1061062f5761010080835404028352916020019161065a565b820191906000526020600020905b81548152906001019060200180831161063d57829003601f168201915b5050505050905090565b6000803073ffffffffffffffffffffffffffffffffffffffff1663aba317a9846040518263ffffffff1660e01b81526004016106a0919061203a565b602060405180830381865afa1580156106bd573d6000803e3d6000fd5b505050506040513d601f19601f820116820180604052508101906106e19190612605565b905060ce60008473ffffffffffffffffffffffffffffffffffffffff1673ffffffffffffffffffffffffffffffffffffffff168152602001908152602001600020548110610733576000915050610823565b60008160ce60008673ffffffffffffffffffffffffffffffffffffffff1673ffffffffffffffffffffffffffffffffffffffff168152602001908152602001600020546107809190612661565b905060cd60008573ffffffffffffffffffffffffffffffffffffffff1673ffffffffffffffffffffffffffffffffffffffff1681526020019081526020016000205481116107d357600092505050610823565b60cd60008573ffffffffffffffffffffffffffffffffffffffff1673ffffffffffffffffffffffffffffffffffffffff168152602001908152602001600020548161081e9190612661565b925050505b919050565b600060026097541415610870576040517f08c379a00000000000000000000000000000000000000000000000000000000081526004016108679061256f565b60405180910390fd5b600260978190555060cc60009054906101000a900473ffffffffffffffffffffffffffffffffffffffff1673ffffffffffffffffffffffffffffffffffffffff163373ffffffffffffffffffffffffffffffffffffffff1614610908576040517f08c379a00000000000000000000000000000000000000000000000000000000081526004016108ff90612503565b60405180910390fd5b6109128383611443565b9050600160978190555092915050565b61092a61174a565b8060cc60006101000a81548173ffffffffffffffffffffffffffffffffffffffff021916908373ffffffffffffffffffffffffffffffffffffffff1602179055507f1085cec9a5108943412475d298086ae4d0abf09cfad47b05436b89fe887a820c8160405161099a919061203a565b60405180910390a150565b6109ad61174a565b600060ca60009054906101000a900473ffffffffffffffffffffffffffffffffffffffff1690508160ca60006101000a81548173ffffffffffffffffffffffffffffffffffffffff021916908373ffffffffffffffffffffffffffffffffffffffff1602179055507e51bf61fc8420b1c603da31d1959ed30f4ca655d7fbd40109fe822fb963dc758183604051610a45929190612695565b60405180910390a15050565b600060cd60008373ffffffffffffffffffffffffffffffffffffffff1673ffffffffffffffffffffffffffffffffffffffff168152602001908152602001600020549050919050565b60008060019054906101000a900460ff16159050808015610acb5750600160008054906101000a900460ff1660ff16105b80610af85750610ada306117c8565b158015610af75750600160008054906101000a900460ff1660ff16145b5b610b37576040517f08c379a0000000000000000000000000000000000000000000000000000000008152600401610b2e90612730565b60405180910390fd5b60016000806101000a81548160ff021916908360ff1602179055508015610b74576001600060016101000a81548160ff0219169083151502179055505b610b7c6117eb565b610b84611844565b610b8c61189d565b8360c99080519060200190610ba2929190611f56565b508260ca60006101000a81548173ffffffffffffffffffffffffffffffffffffffff021916908373ffffffffffffffffffffffffffffffffffffffff1602179055508160cb60006101000a81548173ffffffffffffffffffffffffffffffffffffffff021916908373ffffffffffffffffffffffffffffffffffffffff1602179055508015610c7e5760008060016101000a81548160ff0219169083151502179055507f7f26b83ff96e1f2b6a682f133852f6798a09c465da95921460cefb38474024986001604051610c7591906127a2565b60405180910390a15b50505050565b6000606560009054906101000a900460ff16905090565b600060ce60008373ffffffffffffffffffffffffffffffffffffffff1673ffffffffffffffffffffffffffffffffffffffff168152602001908152602001600020549050919050565b610cec61174a565b610cf660006118f6565b565b6000603360009054906101000a900473ffffffffffffffffffffffffffffffffffffffff16905090565b600060026097541415610d6a576040517f08c379a0000000000000000000000000000000000000000000000000000000008152600401610d619061256f565b60405180910390fd5b600260978190555060cc60009054906101000a900473ffffffffffffffffffffffffffffffffffffffff1673ffffffffffffffffffffffffffffffffffffffff163373ffffffffffffffffffffffffffffffffffffffff1614610e02576040517f08c379a0000000000000000000000000000000000000000000000000000000008152600401610df990612503565b60405180910390fd5b610e0d8484846119bc565b905060016097819055509392505050565b60008060cb60009054906101000a900473ffffffffffffffffffffffffffffffffffffffff1673ffffffffffffffffffffffffffffffffffffffff166371ca337d6040518163ffffffff1660e01b8152600401602060405180830381865afa158015610e8e573d6000803e3d6000fd5b505050506040513d601f19601f82011682018060405250810190610eb29190612605565b9050670de0b6b3a76400008160cf60008673ffffffffffffffffffffffffffffffffffffffff1673ffffffffffffffffffffffffffffffffffffffff16815260200190815260200160002054610f0891906127bd565b610f129190612846565b915050919050565b600060cc60009054906101000a900473ffffffffffffffffffffffffffffffffffffffff16905090565b600060026097541415610f8c576040517f08c379a0000000000000000000000000000000000000000000000000000000008152600401610f839061256f565b60405180910390fd5b6002609781905550610f9e338361121b565b90506001609781905550919050565b600060cb60009054906101000a900473ffffffffffffffffffffffffffffffffffffffff16905090565b60006002609754141561101f576040517f08c379a00000000000000000000000000000000000000000000000000000000081526004016110169061256f565b60405180910390fd5b60026097819055506110313383611443565b90506001609781905550919050565b600060cf60008373ffffffffffffffffffffffffffffffffffffffff1673ffffffffffffffffffffffffffffffffffffffff168152602001908152602001600020549050919050565b61109161174a565b600073ffffffffffffffffffffffffffffffffffffffff168173ffffffffffffffffffffffffffffffffffffffff161415611101576040517f08c379a00000000000000000000000000000000000000000000000000000000081526004016110f8906128e9565b60405180910390fd5b61110a816118f6565b50565b600060026097541415611155576040517f08c379a000000000000000000000000000000000000000000000000000000000815260040161114c9061256f565b60405180910390fd5b60026097819055506111683384846119bc565b9050600160978190555092915050565b600060cb60009054906101000a900473ffffffffffffffffffffffffffffffffffffffff1673ffffffffffffffffffffffffffffffffffffffff166370a08231306040518263ffffffff1660e01b81526004016111d5919061203a565b602060405180830381865afa1580156111f2573d6000803e3d6000fd5b505050506040513d601f19601f820116820180604052508101906112169190612605565b905090565b6000803073ffffffffffffffffffffffffffffffffffffffff1663223888c1856040518263ffffffff1660e01b8152600401611257919061203a565b602060405180830381865afa158015611274573d6000803e3d6000fd5b505050506040513d601f19601f820116820180604052508101906112989190612605565b9050600081116112dd576040517f08c379a00000000000000000000000000000000000000000000000000000000081526004016112d490612955565b60405180910390fd5b8060cd60008673ffffffffffffffffffffffffffffffffffffffff1673ffffffffffffffffffffffffffffffffffffffff168152602001908152602001600020600082825461132c9190612975565b9250508190555060cb60009054906101000a900473ffffffffffffffffffffffffffffffffffffffff1673ffffffffffffffffffffffffffffffffffffffff1663a9059cbb84836040518363ffffffff1660e01b81526004016113909291906129cb565b6020604051808303816000875af11580156113af573d6000803e3d6000fd5b505050506040513d601f19601f820116820180604052508101906113d39190612a20565b508273ffffffffffffffffffffffffffffffffffffffff168473ffffffffffffffffffffffffffffffffffffffff167ff7a40077ff7a04c7e61f6f26fb13774259ddf1b6bce9ecf26a8276cdd39926838360405161143191906120ee565b60405180910390a38091505092915050565b60008060cb60009054906101000a900473ffffffffffffffffffffffffffffffffffffffff1673ffffffffffffffffffffffffffffffffffffffff166371ca337d6040518163ffffffff1660e01b8152600401602060405180830381865afa1580156114b3573d6000803e3d6000fd5b505050506040513d601f19601f820116820180604052508101906114d79190612605565b905060cb60009054906101000a900473ffffffffffffffffffffffffffffffffffffffff1673ffffffffffffffffffffffffffffffffffffffff166323b872dd3330866040518463ffffffff1660e01b815260040161153893929190612a4d565b6020604051808303816000875af1158015611557573d6000803e3d6000fd5b505050506040513d601f19601f8201168201806040525081019061157b9190612a20565b50600081670de0b6b3a76400008561159391906127bd565b61159d9190612846565b90508360ce60008773ffffffffffffffffffffffffffffffffffffffff1673ffffffffffffffffffffffffffffffffffffffff16815260200190815260200160002060008282546115ee9190612975565b925050819055508060cf60008773ffffffffffffffffffffffffffffffffffffffff1673ffffffffffffffffffffffffffffffffffffffff16815260200190815260200160002060008282546116449190612975565b9250508190555060ca60009054906101000a900473ffffffffffffffffffffffffffffffffffffffff1673ffffffffffffffffffffffffffffffffffffffff166340c10f1986836040518363ffffffff1660e01b81526004016116a89291906129cb565b600060405180830381600087803b1580156116c257600080fd5b505af11580156116d6573d6000803e3d6000fd5b505050508473ffffffffffffffffffffffffffffffffffffffff163373ffffffffffffffffffffffffffffffffffffffff167f8752a472e571a816aea92eec8dae9baf628e840f4929fbcc2d155e6233ff68a78360405161173791906120ee565b60405180910390a3809250505092915050565b611752611e28565b73ffffffffffffffffffffffffffffffffffffffff16611770610cf8565b73ffffffffffffffffffffffffffffffffffffffff16146117c6576040517f08c379a00000000000000000000000000000000000000000000000000000000081526004016117bd90612ad0565b60405180910390fd5b565b6000808273ffffffffffffffffffffffffffffffffffffffff163b119050919050565b600060019054906101000a900460ff1661183a576040517f08c379a000000000000000000000000000000000000000000000000000000000815260040161183190612b62565b60405180910390fd5b611842611e30565b565b600060019054906101000a900460ff16611893576040517f08c379a000000000000000000000000000000000000000000000000000000000815260040161188a90612b62565b60405180910390fd5b61189b611e91565b565b600060019054906101000a900460ff166118ec576040517f08c379a00000000000000000000000000000000000000000000000000000000081526004016118e390612b62565b60405180910390fd5b6118f4611efd565b565b6000603360009054906101000a900473ffffffffffffffffffffffffffffffffffffffff16905081603360006101000a81548173ffffffffffffffffffffffffffffffffffffffff021916908373ffffffffffffffffffffffffffffffffffffffff1602179055508173ffffffffffffffffffffffffffffffffffffffff168173ffffffffffffffffffffffffffffffffffffffff167f8be0079c531659141344cd1fd0a4f28419497f9722a3daafe3b4186f6b6457e060405160405180910390a35050565b60008060cb60009054906101000a900473ffffffffffffffffffffffffffffffffffffffff1673ffffffffffffffffffffffffffffffffffffffff166371ca337d6040518163ffffffff1660e01b8152600401602060405180830381865afa158015611a2c573d6000803e3d6000fd5b505050506040513d601f19601f82011682018060405250810190611a509190612605565b90506000670de0b6b3a76400008285611a6991906127bd565b611a739190612846565b90508060cb60009054906101000a900473ffffffffffffffffffffffffffffffffffffffff1673ffffffffffffffffffffffffffffffffffffffff166370a08231306040518263ffffffff1660e01b8152600401611ad1919061203a565b602060405180830381865afa158015611aee573d6000803e3d6000fd5b505050506040513d601f19601f82011682018060405250810190611b129190612605565b1015611b53576040517f08c379a0000000000000000000000000000000000000000000000000000000008152600401611b4a90612bce565b60405180910390fd5b600060cf60008873ffffffffffffffffffffffffffffffffffffffff1673ffffffffffffffffffffffffffffffffffffffff16815260200190815260200160002054905084811015611bda576040517f08c379a0000000000000000000000000000000000000000000000000000000008152600401611bd190612c3a565b60405180910390fd5b8460cf60008973ffffffffffffffffffffffffffffffffffffffff1673ffffffffffffffffffffffffffffffffffffffff1681526020019081526020016000206000828254611c299190612661565b9250508190555060ca60009054906101000a900473ffffffffffffffffffffffffffffffffffffffff1673ffffffffffffffffffffffffffffffffffffffff16639dc29fac88876040518363ffffffff1660e01b8152600401611c8d9291906129cb565b600060405180830381600087803b158015611ca757600080fd5b505af1158015611cbb573d6000803e3d6000fd5b505050508160ce60008973ffffffffffffffffffffffffffffffffffffffff1673ffffffffffffffffffffffffffffffffffffffff1681526020019081526020016000206000828254611d0e9190612661565b9250508190555060cb60009054906101000a900473ffffffffffffffffffffffffffffffffffffffff1673ffffffffffffffffffffffffffffffffffffffff1663a9059cbb87846040518363ffffffff1660e01b8152600401611d729291906129cb565b6020604051808303816000875af1158015611d91573d6000803e3d6000fd5b505050506040513d601f19601f82011682018060405250810190611db59190612a20565b508573ffffffffffffffffffffffffffffffffffffffff168773ffffffffffffffffffffffffffffffffffffffff167fd1c19fbcd4551a5edfb66d43d2e337c04837afda3482b42bdf569a8fccdae5fb84604051611e1391906120ee565b60405180910390a38193505050509392505050565b600033905090565b600060019054906101000a900460ff16611e7f576040517f08c379a0000000000000000000000000000000000000000000000000000000008152600401611e7690612b62565b60405180910390fd5b611e8f611e8a611e28565b6118f6565b565b600060019054906101000a900460ff16611ee0576040517f08c379a0000000000000000000000000000000000000000000000000000000008152600401611ed790612b62565b60405180910390fd5b6000606560006101000a81548160ff021916908315150217905550565b600060019054906101000a900460ff16611f4c576040517f08c379a0000000000000000000000000000000000000000000000000000000008152600401611f4390612b62565b60405180910390fd5b6001609781905550565b828054611f62906125be565b90600052602060002090601f016020900481019282611f845760008555611fcb565b82601f10611f9d57805160ff1916838001178555611fcb565b82800160010185558215611fcb579182015b82811115611fca578251825591602001919060010190611faf565b5b509050611fd89190611fdc565b5090565b5b80821115611ff5576000816000905550600101611fdd565b5090565b600073ffffffffffffffffffffffffffffffffffffffff82169050919050565b600061202482611ff9565b9050919050565b61203481612019565b82525050565b600060208201905061204f600083018461202b565b92915050565b6000604051905090565b600080fd5b600080fd5b61207281612019565b811461207d57600080fd5b50565b60008135905061208f81612069565b92915050565b600080604083850312156120ac576120ab61205f565b5b60006120ba85828601612080565b92505060206120cb85828601612080565b9150509250929050565b6000819050919050565b6120e8816120d5565b82525050565b600060208201905061210360008301846120df565b92915050565b600081519050919050565b600082825260208201905092915050565b60005b83811015612143578082015181840152602081019050612128565b83811115612152576000848401525b50505050565b6000601f19601f8301169050919050565b600061217482612109565b61217e8185612114565b935061218e818560208601612125565b61219781612158565b840191505092915050565b600060208201905081810360008301526121bc8184612169565b905092915050565b6000602082840312156121da576121d961205f565b5b60006121e884828501612080565b91505092915050565b6121fa816120d5565b811461220557600080fd5b50565b600081359050612217816121f1565b92915050565b600080604083850312156122345761223361205f565b5b600061224285828601612080565b925050602061225385828601612208565b9150509250929050565b600080fd5b600080fd5b7f4e487b7100000000000000000000000000000000000000000000000000000000600052604160045260246000fd5b61229f82612158565b810181811067ffffffffffffffff821117156122be576122bd612267565b5b80604052505050565b60006122d1612055565b90506122dd8282612296565b919050565b600067ffffffffffffffff8211156122fd576122fc612267565b5b61230682612158565b9050602081019050919050565b82818337600083830152505050565b6000612335612330846122e2565b6122c7565b90508281526020810184848401111561235157612350612262565b5b61235c848285612313565b509392505050565b600082601f8301126123795761237861225d565b5b8135612389848260208601612322565b91505092915050565b6000806000606084860312156123ab576123aa61205f565b5b600084013567ffffffffffffffff8111156123c9576123c8612064565b5b6123d586828701612364565b93505060206123e686828701612080565b92505060406123f786828701612080565b9150509250925092565b60008115159050919050565b61241681612401565b82525050565b6000602082019050612431600083018461240d565b92915050565b6000806000606084860312156124505761244f61205f565b5b600061245e86828701612080565b935050602061246f86828701612080565b925050604061248086828701612208565b9150509250925092565b6000602082840312156124a05761249f61205f565b5b60006124ae84828501612208565b91505092915050565b7f526f757465723a206e6f7420616c6c6f77656400000000000000000000000000600082015250565b60006124ed601383612114565b91506124f8826124b7565b602082019050919050565b6000602082019050818103600083015261251c816124e0565b9050919050565b7f5265656e7472616e637947756172643a207265656e7472616e742063616c6c00600082015250565b6000612559601f83612114565b915061256482612523565b602082019050919050565b600060208201905081810360008301526125888161254c565b9050919050565b7f4e487b7100000000000000000000000000000000000000000000000000000000600052602260045260246000fd5b600060028204905060018216806125d657607f821691505b602082108114156125ea576125e961258f565b5b50919050565b6000815190506125ff816121f1565b92915050565b60006020828403121561261b5761261a61205f565b5b6000612629848285016125f0565b91505092915050565b7f4e487b7100000000000000000000000000000000000000000000000000000000600052601160045260246000fd5b600061266c826120d5565b9150612677836120d5565b92508282101561268a57612689612632565b5b828203905092915050565b60006040820190506126aa600083018561202b565b6126b7602083018461202b565b9392505050565b7f496e697469616c697a61626c653a20636f6e747261637420697320616c72656160008201527f647920696e697469616c697a6564000000000000000000000000000000000000602082015250565b600061271a602e83612114565b9150612725826126be565b604082019050919050565b600060208201905081810360008301526127498161270d565b9050919050565b6000819050919050565b600060ff82169050919050565b6000819050919050565b600061278c61278761278284612750565b612767565b61275a565b9050919050565b61279c81612771565b82525050565b60006020820190506127b76000830184612793565b92915050565b60006127c8826120d5565b91506127d3836120d5565b9250817fffffffffffffffffffffffffffffffffffffffffffffffffffffffffffffffff048311821515161561280c5761280b612632565b5b828202905092915050565b7f4e487b7100000000000000000000000000000000000000000000000000000000600052601260045260246000fd5b6000612851826120d5565b915061285c836120d5565b92508261286c5761286b612817565b5b828204905092915050565b7f4f776e61626c653a206e6577206f776e657220697320746865207a65726f206160008201527f6464726573730000000000000000000000000000000000000000000000000000602082015250565b60006128d3602683612114565b91506128de82612877565b604082019050919050565b60006020820190508181036000830152612902816128c6565b9050919050565b7f686173206e6f7420676f74207969656c647320746f20636c61696d0000000000600082015250565b600061293f601b83612114565b915061294a82612909565b602082019050919050565b6000602082019050818103600083015261296e81612932565b9050919050565b6000612980826120d5565b915061298b836120d5565b9250827fffffffffffffffffffffffffffffffffffffffffffffffffffffffffffffffff038211156129c0576129bf612632565b5b828201905092915050565b60006040820190506129e0600083018561202b565b6129ed60208301846120df565b9392505050565b6129fd81612401565b8114612a0857600080fd5b50565b600081519050612a1a816129f4565b92915050565b600060208284031215612a3657612a3561205f565b5b6000612a4484828501612a0b565b91505092915050565b6000606082019050612a62600083018661202b565b612a6f602083018561202b565b612a7c60408301846120df565b949350505050565b7f4f776e61626c653a2063616c6c6572206973206e6f7420746865206f776e6572600082015250565b6000612aba602083612114565b9150612ac582612a84565b602082019050919050565b60006020820190508181036000830152612ae981612aad565b9050919050565b7f496e697469616c697a61626c653a20636f6e7472616374206973206e6f74206960008201527f6e697469616c697a696e67000000000000000000000000000000000000000000602082015250565b6000612b4c602b83612114565b9150612b5782612af0565b604082019050919050565b60006020820190508181036000830152612b7b81612b3f565b9050919050565b7f6e6f74207375636820616d6f756e7420696e20746865207661756c7400000000600082015250565b6000612bb8601c83612114565b9150612bc382612b82565b602082019050919050565b60006020820190508181036000830152612be781612bab565b9050919050565b7f696e73756666696369656e742062616c616e6365000000000000000000000000600082015250565b6000612c24601483612114565b9150612c2f82612bee565b602082019050919050565b60006020820190508181036000830152612c5381612c17565b905091905056fea264697066735822122002742e7b24fb1f4c477b5628a3316c6d18026c51527a241e47b082bcef24a05364736f6c634300080a0033",
					"opcodes": "PUSH1 0x80 PUSH1 0x40 MSTORE CALLVALUE DUP1 ISZERO PUSH2 0x10 JUMPI PUSH1 0x0 DUP1 REVERT JUMPDEST POP PUSH2 0x2C90 DUP1 PUSH2 0x20 PUSH1 0x0 CODECOPY PUSH1 0x0 RETURN INVALID PUSH1 0x80 PUSH1 0x40 MSTORE CALLVALUE DUP1 ISZERO PUSH2 0x10 JUMPI PUSH1 0x0 DUP1 REVERT JUMPDEST POP PUSH1 0x4 CALLDATASIZE LT PUSH2 0x14D JUMPI PUSH1 0x0 CALLDATALOAD PUSH1 0xE0 SHR DUP1 PUSH4 0x715018A6 GT PUSH2 0xC3 JUMPI DUP1 PUSH4 0xB4BF36B2 GT PUSH2 0x7C JUMPI DUP1 PUSH4 0xB4BF36B2 EQ PUSH2 0x3C6 JUMPI DUP1 PUSH4 0xB6B55F25 EQ PUSH2 0x3E4 JUMPI DUP1 PUSH4 0xC96F0E01 EQ PUSH2 0x414 JUMPI DUP1 PUSH4 0xF2FDE38B EQ PUSH2 0x444 JUMPI DUP1 PUSH4 0xF3FEF3A3 EQ PUSH2 0x460 JUMPI DUP1 PUSH4 0xFAD83484 EQ PUSH2 0x490 JUMPI PUSH2 0x14D JUMP JUMPDEST DUP1 PUSH4 0x715018A6 EQ PUSH2 0x2F0 JUMPI DUP1 PUSH4 0x8DA5CB5B EQ PUSH2 0x2FA JUMPI DUP1 PUSH4 0x9F1D9267 EQ PUSH2 0x318 JUMPI DUP1 PUSH4 0xABA317A9 EQ PUSH2 0x348 JUMPI DUP1 PUSH4 0xB0F479A1 EQ PUSH2 0x378 JUMPI DUP1 PUSH4 0xB36684AC EQ PUSH2 0x396 JUMPI PUSH2 0x14D JUMP JUMPDEST DUP1 PUSH4 0x340AC20F GT PUSH2 0x115 JUMPI DUP1 PUSH4 0x340AC20F EQ PUSH2 0x21E JUMPI DUP1 PUSH4 0x3FD44F17 EQ PUSH2 0x23A JUMPI DUP1 PUSH4 0x4226626A EQ PUSH2 0x256 JUMPI DUP1 PUSH4 0x463FD1AF EQ PUSH2 0x286 JUMPI DUP1 PUSH4 0x5C975ABB EQ PUSH2 0x2A2 JUMPI DUP1 PUSH4 0x5D602C00 EQ PUSH2 0x2C0 JUMPI PUSH2 0x14D JUMP JUMPDEST DUP1 PUSH4 0xC632BBE EQ PUSH2 0x152 JUMPI DUP1 PUSH4 0x1101596C EQ PUSH2 0x170 JUMPI DUP1 PUSH4 0x17D7DE7C EQ PUSH2 0x1A0 JUMPI DUP1 PUSH4 0x223888C1 EQ PUSH2 0x1BE JUMPI DUP1 PUSH4 0x2F4F21E2 EQ PUSH2 0x1EE JUMPI JUMPDEST PUSH1 0x0 DUP1 REVERT JUMPDEST PUSH2 0x15A PUSH2 0x4AE JUMP JUMPDEST PUSH1 0x40 MLOAD PUSH2 0x167 SWAP2 SWAP1 PUSH2 0x203A JUMP JUMPDEST PUSH1 0x40 MLOAD DUP1 SWAP2 SUB SWAP1 RETURN JUMPDEST PUSH2 0x18A PUSH1 0x4 DUP1 CALLDATASIZE SUB DUP2 ADD SWAP1 PUSH2 0x185 SWAP2 SWAP1 PUSH2 0x2095 JUMP JUMPDEST PUSH2 0x4D8 JUMP JUMPDEST PUSH1 0x40 MLOAD PUSH2 0x197 SWAP2 SWAP1 PUSH2 0x20EE JUMP JUMPDEST PUSH1 0x40 MLOAD DUP1 SWAP2 SUB SWAP1 RETURN JUMPDEST PUSH2 0x1A8 PUSH2 0x5D2 JUMP JUMPDEST PUSH1 0x40 MLOAD PUSH2 0x1B5 SWAP2 SWAP1 PUSH2 0x21A2 JUMP JUMPDEST PUSH1 0x40 MLOAD DUP1 SWAP2 SUB SWAP1 RETURN JUMPDEST PUSH2 0x1D8 PUSH1 0x4 DUP1 CALLDATASIZE SUB DUP2 ADD SWAP1 PUSH2 0x1D3 SWAP2 SWAP1 PUSH2 0x21C4 JUMP JUMPDEST PUSH2 0x664 JUMP JUMPDEST PUSH1 0x40 MLOAD PUSH2 0x1E5 SWAP2 SWAP1 PUSH2 0x20EE JUMP JUMPDEST PUSH1 0x40 MLOAD DUP1 SWAP2 SUB SWAP1 RETURN JUMPDEST PUSH2 0x208 PUSH1 0x4 DUP1 CALLDATASIZE SUB DUP2 ADD SWAP1 PUSH2 0x203 SWAP2 SWAP1 PUSH2 0x221D JUMP JUMPDEST PUSH2 0x828 JUMP JUMPDEST PUSH1 0x40 MLOAD PUSH2 0x215 SWAP2 SWAP1 PUSH2 0x20EE JUMP JUMPDEST PUSH1 0x40 MLOAD DUP1 SWAP2 SUB SWAP1 RETURN JUMPDEST PUSH2 0x238 PUSH1 0x4 DUP1 CALLDATASIZE SUB DUP2 ADD SWAP1 PUSH2 0x233 SWAP2 SWAP1 PUSH2 0x21C4 JUMP JUMPDEST PUSH2 0x922 JUMP JUMPDEST STOP JUMPDEST PUSH2 0x254 PUSH1 0x4 DUP1 CALLDATASIZE SUB DUP2 ADD SWAP1 PUSH2 0x24F SWAP2 SWAP1 PUSH2 0x21C4 JUMP JUMPDEST PUSH2 0x9A5 JUMP JUMPDEST STOP JUMPDEST PUSH2 0x270 PUSH1 0x4 DUP1 CALLDATASIZE SUB DUP2 ADD SWAP1 PUSH2 0x26B SWAP2 SWAP1 PUSH2 0x21C4 JUMP JUMPDEST PUSH2 0xA51 JUMP JUMPDEST PUSH1 0x40 MLOAD PUSH2 0x27D SWAP2 SWAP1 PUSH2 0x20EE JUMP JUMPDEST PUSH1 0x40 MLOAD DUP1 SWAP2 SUB SWAP1 RETURN JUMPDEST PUSH2 0x2A0 PUSH1 0x4 DUP1 CALLDATASIZE SUB DUP2 ADD SWAP1 PUSH2 0x29B SWAP2 SWAP1 PUSH2 0x2392 JUMP JUMPDEST PUSH2 0xA9A JUMP JUMPDEST STOP JUMPDEST PUSH2 0x2AA PUSH2 0xC84 JUMP JUMPDEST PUSH1 0x40 MLOAD PUSH2 0x2B7 SWAP2 SWAP1 PUSH2 0x241C JUMP JUMPDEST PUSH1 0x40 MLOAD DUP1 SWAP2 SUB SWAP1 RETURN JUMPDEST PUSH2 0x2DA PUSH1 0x4 DUP1 CALLDATASIZE SUB DUP2 ADD SWAP1 PUSH2 0x2D5 SWAP2 SWAP1 PUSH2 0x21C4 JUMP JUMPDEST PUSH2 0xC9B JUMP JUMPDEST PUSH1 0x40 MLOAD PUSH2 0x2E7 SWAP2 SWAP1 PUSH2 0x20EE JUMP JUMPDEST PUSH1 0x40 MLOAD DUP1 SWAP2 SUB SWAP1 RETURN JUMPDEST PUSH2 0x2F8 PUSH2 0xCE4 JUMP JUMPDEST STOP JUMPDEST PUSH2 0x302 PUSH2 0xCF8 JUMP JUMPDEST PUSH1 0x40 MLOAD PUSH2 0x30F SWAP2 SWAP1 PUSH2 0x203A JUMP JUMPDEST PUSH1 0x40 MLOAD DUP1 SWAP2 SUB SWAP1 RETURN JUMPDEST PUSH2 0x332 PUSH1 0x4 DUP1 CALLDATASIZE SUB DUP2 ADD SWAP1 PUSH2 0x32D SWAP2 SWAP1 PUSH2 0x2437 JUMP JUMPDEST PUSH2 0xD22 JUMP JUMPDEST PUSH1 0x40 MLOAD PUSH2 0x33F SWAP2 SWAP1 PUSH2 0x20EE JUMP JUMPDEST PUSH1 0x40 MLOAD DUP1 SWAP2 SUB SWAP1 RETURN JUMPDEST PUSH2 0x362 PUSH1 0x4 DUP1 CALLDATASIZE SUB DUP2 ADD SWAP1 PUSH2 0x35D SWAP2 SWAP1 PUSH2 0x21C4 JUMP JUMPDEST PUSH2 0xE1E JUMP JUMPDEST PUSH1 0x40 MLOAD PUSH2 0x36F SWAP2 SWAP1 PUSH2 0x20EE JUMP JUMPDEST PUSH1 0x40 MLOAD DUP1 SWAP2 SUB SWAP1 RETURN JUMPDEST PUSH2 0x380 PUSH2 0xF1A JUMP JUMPDEST PUSH1 0x40 MLOAD PUSH2 0x38D SWAP2 SWAP1 PUSH2 0x203A JUMP JUMPDEST PUSH1 0x40 MLOAD DUP1 SWAP2 SUB SWAP1 RETURN JUMPDEST PUSH2 0x3B0 PUSH1 0x4 DUP1 CALLDATASIZE SUB DUP2 ADD SWAP1 PUSH2 0x3AB SWAP2 SWAP1 PUSH2 0x21C4 JUMP JUMPDEST PUSH2 0xF44 JUMP JUMPDEST PUSH1 0x40 MLOAD PUSH2 0x3BD SWAP2 SWAP1 PUSH2 0x20EE JUMP JUMPDEST PUSH1 0x40 MLOAD DUP1 SWAP2 SUB SWAP1 RETURN JUMPDEST PUSH2 0x3CE PUSH2 0xFAD JUMP JUMPDEST PUSH1 0x40 MLOAD PUSH2 0x3DB SWAP2 SWAP1 PUSH2 0x203A JUMP JUMPDEST PUSH1 0x40 MLOAD DUP1 SWAP2 SUB SWAP1 RETURN JUMPDEST PUSH2 0x3FE PUSH1 0x4 DUP1 CALLDATASIZE SUB DUP2 ADD SWAP1 PUSH2 0x3F9 SWAP2 SWAP1 PUSH2 0x248A JUMP JUMPDEST PUSH2 0xFD7 JUMP JUMPDEST PUSH1 0x40 MLOAD PUSH2 0x40B SWAP2 SWAP1 PUSH2 0x20EE JUMP JUMPDEST PUSH1 0x40 MLOAD DUP1 SWAP2 SUB SWAP1 RETURN JUMPDEST PUSH2 0x42E PUSH1 0x4 DUP1 CALLDATASIZE SUB DUP2 ADD SWAP1 PUSH2 0x429 SWAP2 SWAP1 PUSH2 0x21C4 JUMP JUMPDEST PUSH2 0x1040 JUMP JUMPDEST PUSH1 0x40 MLOAD PUSH2 0x43B SWAP2 SWAP1 PUSH2 0x20EE JUMP JUMPDEST PUSH1 0x40 MLOAD DUP1 SWAP2 SUB SWAP1 RETURN JUMPDEST PUSH2 0x45E PUSH1 0x4 DUP1 CALLDATASIZE SUB DUP2 ADD SWAP1 PUSH2 0x459 SWAP2 SWAP1 PUSH2 0x21C4 JUMP JUMPDEST PUSH2 0x1089 JUMP JUMPDEST STOP JUMPDEST PUSH2 0x47A PUSH1 0x4 DUP1 CALLDATASIZE SUB DUP2 ADD SWAP1 PUSH2 0x475 SWAP2 SWAP1 PUSH2 0x221D JUMP JUMPDEST PUSH2 0x110D JUMP JUMPDEST PUSH1 0x40 MLOAD PUSH2 0x487 SWAP2 SWAP1 PUSH2 0x20EE JUMP JUMPDEST PUSH1 0x40 MLOAD DUP1 SWAP2 SUB SWAP1 RETURN JUMPDEST PUSH2 0x498 PUSH2 0x1178 JUMP JUMPDEST PUSH1 0x40 MLOAD PUSH2 0x4A5 SWAP2 SWAP1 PUSH2 0x20EE JUMP JUMPDEST PUSH1 0x40 MLOAD DUP1 SWAP2 SUB SWAP1 RETURN JUMPDEST PUSH1 0x0 PUSH1 0xCA PUSH1 0x0 SWAP1 SLOAD SWAP1 PUSH2 0x100 EXP SWAP1 DIV PUSH20 0xFFFFFFFFFFFFFFFFFFFFFFFFFFFFFFFFFFFFFFFF AND SWAP1 POP SWAP1 JUMP JUMPDEST PUSH1 0x0 PUSH1 0xCC PUSH1 0x0 SWAP1 SLOAD SWAP1 PUSH2 0x100 EXP SWAP1 DIV PUSH20 0xFFFFFFFFFFFFFFFFFFFFFFFFFFFFFFFFFFFFFFFF AND PUSH20 0xFFFFFFFFFFFFFFFFFFFFFFFFFFFFFFFFFFFFFFFF AND CALLER PUSH20 0xFFFFFFFFFFFFFFFFFFFFFFFFFFFFFFFFFFFFFFFF AND EQ PUSH2 0x56A JUMPI PUSH1 0x40 MLOAD PUSH32 0x8C379A000000000000000000000000000000000000000000000000000000000 DUP2 MSTORE PUSH1 0x4 ADD PUSH2 0x561 SWAP1 PUSH2 0x2503 JUMP JUMPDEST PUSH1 0x40 MLOAD DUP1 SWAP2 SUB SWAP1 REVERT JUMPDEST PUSH1 0x2 PUSH1 0x97 SLOAD EQ ISZERO PUSH2 0x5B0 JUMPI PUSH1 0x40 MLOAD PUSH32 0x8C379A000000000000000000000000000000000000000000000000000000000 DUP2 MSTORE PUSH1 0x4 ADD PUSH2 0x5A7 SWAP1 PUSH2 0x256F JUMP JUMPDEST PUSH1 0x40 MLOAD DUP1 SWAP2 SUB SWAP1 REVERT JUMPDEST PUSH1 0x2 PUSH1 0x97 DUP2 SWAP1 SSTORE POP PUSH2 0x5C2 DUP4 DUP4 PUSH2 0x121B JUMP JUMPDEST SWAP1 POP PUSH1 0x1 PUSH1 0x97 DUP2 SWAP1 SSTORE POP SWAP3 SWAP2 POP POP JUMP JUMPDEST PUSH1 0x60 PUSH1 0xC9 DUP1 SLOAD PUSH2 0x5E1 SWAP1 PUSH2 0x25BE JUMP JUMPDEST DUP1 PUSH1 0x1F ADD PUSH1 0x20 DUP1 SWAP2 DIV MUL PUSH1 0x20 ADD PUSH1 0x40 MLOAD SWAP1 DUP2 ADD PUSH1 0x40 MSTORE DUP1 SWAP3 SWAP2 SWAP1 DUP2 DUP2 MSTORE PUSH1 0x20 ADD DUP3 DUP1 SLOAD PUSH2 0x60D SWAP1 PUSH2 0x25BE JUMP JUMPDEST DUP1 ISZERO PUSH2 0x65A JUMPI DUP1 PUSH1 0x1F LT PUSH2 0x62F JUMPI PUSH2 0x100 DUP1 DUP4 SLOAD DIV MUL DUP4 MSTORE SWAP2 PUSH1 0x20 ADD SWAP2 PUSH2 0x65A JUMP JUMPDEST DUP3 ADD SWAP2 SWAP1 PUSH1 0x0 MSTORE PUSH1 0x20 PUSH1 0x0 KECCAK256 SWAP1 JUMPDEST DUP2 SLOAD DUP2 MSTORE SWAP1 PUSH1 0x1 ADD SWAP1 PUSH1 0x20 ADD DUP1 DUP4 GT PUSH2 0x63D JUMPI DUP3 SWAP1 SUB PUSH1 0x1F AND DUP3 ADD SWAP2 JUMPDEST POP POP POP POP POP SWAP1 POP SWAP1 JUMP JUMPDEST PUSH1 0x0 DUP1 ADDRESS PUSH20 0xFFFFFFFFFFFFFFFFFFFFFFFFFFFFFFFFFFFFFFFF AND PUSH4 0xABA317A9 DUP5 PUSH1 0x40 MLOAD DUP3 PUSH4 0xFFFFFFFF AND PUSH1 0xE0 SHL DUP2 MSTORE PUSH1 0x4 ADD PUSH2 0x6A0 SWAP2 SWAP1 PUSH2 0x203A JUMP JUMPDEST PUSH1 0x20 PUSH1 0x40 MLOAD DUP1 DUP4 SUB DUP2 DUP7 GAS STATICCALL ISZERO DUP1 ISZERO PUSH2 0x6BD JUMPI RETURNDATASIZE PUSH1 0x0 DUP1 RETURNDATACOPY RETURNDATASIZE PUSH1 0x0 REVERT JUMPDEST POP POP POP POP PUSH1 0x40 MLOAD RETURNDATASIZE PUSH1 0x1F NOT PUSH1 0x1F DUP3 ADD AND DUP3 ADD DUP1 PUSH1 0x40 MSTORE POP DUP2 ADD SWAP1 PUSH2 0x6E1 SWAP2 SWAP1 PUSH2 0x2605 JUMP JUMPDEST SWAP1 POP PUSH1 0xCE PUSH1 0x0 DUP5 PUSH20 0xFFFFFFFFFFFFFFFFFFFFFFFFFFFFFFFFFFFFFFFF AND PUSH20 0xFFFFFFFFFFFFFFFFFFFFFFFFFFFFFFFFFFFFFFFF AND DUP2 MSTORE PUSH1 0x20 ADD SWAP1 DUP2 MSTORE PUSH1 0x20 ADD PUSH1 0x0 KECCAK256 SLOAD DUP2 LT PUSH2 0x733 JUMPI PUSH1 0x0 SWAP2 POP POP PUSH2 0x823 JUMP JUMPDEST PUSH1 0x0 DUP2 PUSH1 0xCE PUSH1 0x0 DUP7 PUSH20 0xFFFFFFFFFFFFFFFFFFFFFFFFFFFFFFFFFFFFFFFF AND PUSH20 0xFFFFFFFFFFFFFFFFFFFFFFFFFFFFFFFFFFFFFFFF AND DUP2 MSTORE PUSH1 0x20 ADD SWAP1 DUP2 MSTORE PUSH1 0x20 ADD PUSH1 0x0 KECCAK256 SLOAD PUSH2 0x780 SWAP2 SWAP1 PUSH2 0x2661 JUMP JUMPDEST SWAP1 POP PUSH1 0xCD PUSH1 0x0 DUP6 PUSH20 0xFFFFFFFFFFFFFFFFFFFFFFFFFFFFFFFFFFFFFFFF AND PUSH20 0xFFFFFFFFFFFFFFFFFFFFFFFFFFFFFFFFFFFFFFFF AND DUP2 MSTORE PUSH1 0x20 ADD SWAP1 DUP2 MSTORE PUSH1 0x20 ADD PUSH1 0x0 KECCAK256 SLOAD DUP2 GT PUSH2 0x7D3 JUMPI PUSH1 0x0 SWAP3 POP POP POP PUSH2 0x823 JUMP JUMPDEST PUSH1 0xCD PUSH1 0x0 DUP6 PUSH20 0xFFFFFFFFFFFFFFFFFFFFFFFFFFFFFFFFFFFFFFFF AND PUSH20 0xFFFFFFFFFFFFFFFFFFFFFFFFFFFFFFFFFFFFFFFF AND DUP2 MSTORE PUSH1 0x20 ADD SWAP1 DUP2 MSTORE PUSH1 0x20 ADD PUSH1 0x0 KECCAK256 SLOAD DUP2 PUSH2 0x81E SWAP2 SWAP1 PUSH2 0x2661 JUMP JUMPDEST SWAP3 POP POP POP JUMPDEST SWAP2 SWAP1 POP JUMP JUMPDEST PUSH1 0x0 PUSH1 0x2 PUSH1 0x97 SLOAD EQ ISZERO PUSH2 0x870 JUMPI PUSH1 0x40 MLOAD PUSH32 0x8C379A000000000000000000000000000000000000000000000000000000000 DUP2 MSTORE PUSH1 0x4 ADD PUSH2 0x867 SWAP1 PUSH2 0x256F JUMP JUMPDEST PUSH1 0x40 MLOAD DUP1 SWAP2 SUB SWAP1 REVERT JUMPDEST PUSH1 0x2 PUSH1 0x97 DUP2 SWAP1 SSTORE POP PUSH1 0xCC PUSH1 0x0 SWAP1 SLOAD SWAP1 PUSH2 0x100 EXP SWAP1 DIV PUSH20 0xFFFFFFFFFFFFFFFFFFFFFFFFFFFFFFFFFFFFFFFF AND PUSH20 0xFFFFFFFFFFFFFFFFFFFFFFFFFFFFFFFFFFFFFFFF AND CALLER PUSH20 0xFFFFFFFFFFFFFFFFFFFFFFFFFFFFFFFFFFFFFFFF AND EQ PUSH2 0x908 JUMPI PUSH1 0x40 MLOAD PUSH32 0x8C379A000000000000000000000000000000000000000000000000000000000 DUP2 MSTORE PUSH1 0x4 ADD PUSH2 0x8FF SWAP1 PUSH2 0x2503 JUMP JUMPDEST PUSH1 0x40 MLOAD DUP1 SWAP2 SUB SWAP1 REVERT JUMPDEST PUSH2 0x912 DUP4 DUP4 PUSH2 0x1443 JUMP JUMPDEST SWAP1 POP PUSH1 0x1 PUSH1 0x97 DUP2 SWAP1 SSTORE POP SWAP3 SWAP2 POP POP JUMP JUMPDEST PUSH2 0x92A PUSH2 0x174A JUMP JUMPDEST DUP1 PUSH1 0xCC PUSH1 0x0 PUSH2 0x100 EXP DUP2 SLOAD DUP2 PUSH20 0xFFFFFFFFFFFFFFFFFFFFFFFFFFFFFFFFFFFFFFFF MUL NOT AND SWAP1 DUP4 PUSH20 0xFFFFFFFFFFFFFFFFFFFFFFFFFFFFFFFFFFFFFFFF AND MUL OR SWAP1 SSTORE POP PUSH32 0x1085CEC9A5108943412475D298086AE4D0ABF09CFAD47B05436B89FE887A820C DUP2 PUSH1 0x40 MLOAD PUSH2 0x99A SWAP2 SWAP1 PUSH2 0x203A JUMP JUMPDEST PUSH1 0x40 MLOAD DUP1 SWAP2 SUB SWAP1 LOG1 POP JUMP JUMPDEST PUSH2 0x9AD PUSH2 0x174A JUMP JUMPDEST PUSH1 0x0 PUSH1 0xCA PUSH1 0x0 SWAP1 SLOAD SWAP1 PUSH2 0x100 EXP SWAP1 DIV PUSH20 0xFFFFFFFFFFFFFFFFFFFFFFFFFFFFFFFFFFFFFFFF AND SWAP1 POP DUP2 PUSH1 0xCA PUSH1 0x0 PUSH2 0x100 EXP DUP2 SLOAD DUP2 PUSH20 0xFFFFFFFFFFFFFFFFFFFFFFFFFFFFFFFFFFFFFFFF MUL NOT AND SWAP1 DUP4 PUSH20 0xFFFFFFFFFFFFFFFFFFFFFFFFFFFFFFFFFFFFFFFF AND MUL OR SWAP1 SSTORE POP PUSH31 0x51BF61FC8420B1C603DA31D1959ED30F4CA655D7FBD40109FE822FB963DC75 DUP2 DUP4 PUSH1 0x40 MLOAD PUSH2 0xA45 SWAP3 SWAP2 SWAP1 PUSH2 0x2695 JUMP JUMPDEST PUSH1 0x40 MLOAD DUP1 SWAP2 SUB SWAP1 LOG1 POP POP JUMP JUMPDEST PUSH1 0x0 PUSH1 0xCD PUSH1 0x0 DUP4 PUSH20 0xFFFFFFFFFFFFFFFFFFFFFFFFFFFFFFFFFFFFFFFF AND PUSH20 0xFFFFFFFFFFFFFFFFFFFFFFFFFFFFFFFFFFFFFFFF AND DUP2 MSTORE PUSH1 0x20 ADD SWAP1 DUP2 MSTORE PUSH1 0x20 ADD PUSH1 0x0 KECCAK256 SLOAD SWAP1 POP SWAP2 SWAP1 POP JUMP JUMPDEST PUSH1 0x0 DUP1 PUSH1 0x1 SWAP1 SLOAD SWAP1 PUSH2 0x100 EXP SWAP1 DIV PUSH1 0xFF AND ISZERO SWAP1 POP DUP1 DUP1 ISZERO PUSH2 0xACB JUMPI POP PUSH1 0x1 PUSH1 0x0 DUP1 SLOAD SWAP1 PUSH2 0x100 EXP SWAP1 DIV PUSH1 0xFF AND PUSH1 0xFF AND LT JUMPDEST DUP1 PUSH2 0xAF8 JUMPI POP PUSH2 0xADA ADDRESS PUSH2 0x17C8 JUMP JUMPDEST ISZERO DUP1 ISZERO PUSH2 0xAF7 JUMPI POP PUSH1 0x1 PUSH1 0x0 DUP1 SLOAD SWAP1 PUSH2 0x100 EXP SWAP1 DIV PUSH1 0xFF AND PUSH1 0xFF AND EQ JUMPDEST JUMPDEST PUSH2 0xB37 JUMPI PUSH1 0x40 MLOAD PUSH32 0x8C379A000000000000000000000000000000000000000000000000000000000 DUP2 MSTORE PUSH1 0x4 ADD PUSH2 0xB2E SWAP1 PUSH2 0x2730 JUMP JUMPDEST PUSH1 0x40 MLOAD DUP1 SWAP2 SUB SWAP1 REVERT JUMPDEST PUSH1 0x1 PUSH1 0x0 DUP1 PUSH2 0x100 EXP DUP2 SLOAD DUP2 PUSH1 0xFF MUL NOT AND SWAP1 DUP4 PUSH1 0xFF AND MUL OR SWAP1 SSTORE POP DUP1 ISZERO PUSH2 0xB74 JUMPI PUSH1 0x1 PUSH1 0x0 PUSH1 0x1 PUSH2 0x100 EXP DUP2 SLOAD DUP2 PUSH1 0xFF MUL NOT AND SWAP1 DUP4 ISZERO ISZERO MUL OR SWAP1 SSTORE POP JUMPDEST PUSH2 0xB7C PUSH2 0x17EB JUMP JUMPDEST PUSH2 0xB84 PUSH2 0x1844 JUMP JUMPDEST PUSH2 0xB8C PUSH2 0x189D JUMP JUMPDEST DUP4 PUSH1 0xC9 SWAP1 DUP1 MLOAD SWAP1 PUSH1 0x20 ADD SWAP1 PUSH2 0xBA2 SWAP3 SWAP2 SWAP1 PUSH2 0x1F56 JUMP JUMPDEST POP DUP3 PUSH1 0xCA PUSH1 0x0 PUSH2 0x100 EXP DUP2 SLOAD DUP2 PUSH20 0xFFFFFFFFFFFFFFFFFFFFFFFFFFFFFFFFFFFFFFFF MUL NOT AND SWAP1 DUP4 PUSH20 0xFFFFFFFFFFFFFFFFFFFFFFFFFFFFFFFFFFFFFFFF AND MUL OR SWAP1 SSTORE POP DUP2 PUSH1 0xCB PUSH1 0x0 PUSH2 0x100 EXP DUP2 SLOAD DUP2 PUSH20 0xFFFFFFFFFFFFFFFFFFFFFFFFFFFFFFFFFFFFFFFF MUL NOT AND SWAP1 DUP4 PUSH20 0xFFFFFFFFFFFFFFFFFFFFFFFFFFFFFFFFFFFFFFFF AND MUL OR SWAP1 SSTORE POP DUP1 ISZERO PUSH2 0xC7E JUMPI PUSH1 0x0 DUP1 PUSH1 0x1 PUSH2 0x100 EXP DUP2 SLOAD DUP2 PUSH1 0xFF MUL NOT AND SWAP1 DUP4 ISZERO ISZERO MUL OR SWAP1 SSTORE POP PUSH32 0x7F26B83FF96E1F2B6A682F133852F6798A09C465DA95921460CEFB3847402498 PUSH1 0x1 PUSH1 0x40 MLOAD PUSH2 0xC75 SWAP2 SWAP1 PUSH2 0x27A2 JUMP JUMPDEST PUSH1 0x40 MLOAD DUP1 SWAP2 SUB SWAP1 LOG1 JUMPDEST POP POP POP POP JUMP JUMPDEST PUSH1 0x0 PUSH1 0x65 PUSH1 0x0 SWAP1 SLOAD SWAP1 PUSH2 0x100 EXP SWAP1 DIV PUSH1 0xFF AND SWAP1 POP SWAP1 JUMP JUMPDEST PUSH1 0x0 PUSH1 0xCE PUSH1 0x0 DUP4 PUSH20 0xFFFFFFFFFFFFFFFFFFFFFFFFFFFFFFFFFFFFFFFF AND PUSH20 0xFFFFFFFFFFFFFFFFFFFFFFFFFFFFFFFFFFFFFFFF AND DUP2 MSTORE PUSH1 0x20 ADD SWAP1 DUP2 MSTORE PUSH1 0x20 ADD PUSH1 0x0 KECCAK256 SLOAD SWAP1 POP SWAP2 SWAP1 POP JUMP JUMPDEST PUSH2 0xCEC PUSH2 0x174A JUMP JUMPDEST PUSH2 0xCF6 PUSH1 0x0 PUSH2 0x18F6 JUMP JUMPDEST JUMP JUMPDEST PUSH1 0x0 PUSH1 0x33 PUSH1 0x0 SWAP1 SLOAD SWAP1 PUSH2 0x100 EXP SWAP1 DIV PUSH20 0xFFFFFFFFFFFFFFFFFFFFFFFFFFFFFFFFFFFFFFFF AND SWAP1 POP SWAP1 JUMP JUMPDEST PUSH1 0x0 PUSH1 0x2 PUSH1 0x97 SLOAD EQ ISZERO PUSH2 0xD6A JUMPI PUSH1 0x40 MLOAD PUSH32 0x8C379A000000000000000000000000000000000000000000000000000000000 DUP2 MSTORE PUSH1 0x4 ADD PUSH2 0xD61 SWAP1 PUSH2 0x256F JUMP JUMPDEST PUSH1 0x40 MLOAD DUP1 SWAP2 SUB SWAP1 REVERT JUMPDEST PUSH1 0x2 PUSH1 0x97 DUP2 SWAP1 SSTORE POP PUSH1 0xCC PUSH1 0x0 SWAP1 SLOAD SWAP1 PUSH2 0x100 EXP SWAP1 DIV PUSH20 0xFFFFFFFFFFFFFFFFFFFFFFFFFFFFFFFFFFFFFFFF AND PUSH20 0xFFFFFFFFFFFFFFFFFFFFFFFFFFFFFFFFFFFFFFFF AND CALLER PUSH20 0xFFFFFFFFFFFFFFFFFFFFFFFFFFFFFFFFFFFFFFFF AND EQ PUSH2 0xE02 JUMPI PUSH1 0x40 MLOAD PUSH32 0x8C379A000000000000000000000000000000000000000000000000000000000 DUP2 MSTORE PUSH1 0x4 ADD PUSH2 0xDF9 SWAP1 PUSH2 0x2503 JUMP JUMPDEST PUSH1 0x40 MLOAD DUP1 SWAP2 SUB SWAP1 REVERT JUMPDEST PUSH2 0xE0D DUP5 DUP5 DUP5 PUSH2 0x19BC JUMP JUMPDEST SWAP1 POP PUSH1 0x1 PUSH1 0x97 DUP2 SWAP1 SSTORE POP SWAP4 SWAP3 POP POP POP JUMP JUMPDEST PUSH1 0x0 DUP1 PUSH1 0xCB PUSH1 0x0 SWAP1 SLOAD SWAP1 PUSH2 0x100 EXP SWAP1 DIV PUSH20 0xFFFFFFFFFFFFFFFFFFFFFFFFFFFFFFFFFFFFFFFF AND PUSH20 0xFFFFFFFFFFFFFFFFFFFFFFFFFFFFFFFFFFFFFFFF AND PUSH4 0x71CA337D PUSH1 0x40 MLOAD DUP2 PUSH4 0xFFFFFFFF AND PUSH1 0xE0 SHL DUP2 MSTORE PUSH1 0x4 ADD PUSH1 0x20 PUSH1 0x40 MLOAD DUP1 DUP4 SUB DUP2 DUP7 GAS STATICCALL ISZERO DUP1 ISZERO PUSH2 0xE8E JUMPI RETURNDATASIZE PUSH1 0x0 DUP1 RETURNDATACOPY RETURNDATASIZE PUSH1 0x0 REVERT JUMPDEST POP POP POP POP PUSH1 0x40 MLOAD RETURNDATASIZE PUSH1 0x1F NOT PUSH1 0x1F DUP3 ADD AND DUP3 ADD DUP1 PUSH1 0x40 MSTORE POP DUP2 ADD SWAP1 PUSH2 0xEB2 SWAP2 SWAP1 PUSH2 0x2605 JUMP JUMPDEST SWAP1 POP PUSH8 0xDE0B6B3A7640000 DUP2 PUSH1 0xCF PUSH1 0x0 DUP7 PUSH20 0xFFFFFFFFFFFFFFFFFFFFFFFFFFFFFFFFFFFFFFFF AND PUSH20 0xFFFFFFFFFFFFFFFFFFFFFFFFFFFFFFFFFFFFFFFF AND DUP2 MSTORE PUSH1 0x20 ADD SWAP1 DUP2 MSTORE PUSH1 0x20 ADD PUSH1 0x0 KECCAK256 SLOAD PUSH2 0xF08 SWAP2 SWAP1 PUSH2 0x27BD JUMP JUMPDEST PUSH2 0xF12 SWAP2 SWAP1 PUSH2 0x2846 JUMP JUMPDEST SWAP2 POP POP SWAP2 SWAP1 POP JUMP JUMPDEST PUSH1 0x0 PUSH1 0xCC PUSH1 0x0 SWAP1 SLOAD SWAP1 PUSH2 0x100 EXP SWAP1 DIV PUSH20 0xFFFFFFFFFFFFFFFFFFFFFFFFFFFFFFFFFFFFFFFF AND SWAP1 POP SWAP1 JUMP JUMPDEST PUSH1 0x0 PUSH1 0x2 PUSH1 0x97 SLOAD EQ ISZERO PUSH2 0xF8C JUMPI PUSH1 0x40 MLOAD PUSH32 0x8C379A000000000000000000000000000000000000000000000000000000000 DUP2 MSTORE PUSH1 0x4 ADD PUSH2 0xF83 SWAP1 PUSH2 0x256F JUMP JUMPDEST PUSH1 0x40 MLOAD DUP1 SWAP2 SUB SWAP1 REVERT JUMPDEST PUSH1 0x2 PUSH1 0x97 DUP2 SWAP1 SSTORE POP PUSH2 0xF9E CALLER DUP4 PUSH2 0x121B JUMP JUMPDEST SWAP1 POP PUSH1 0x1 PUSH1 0x97 DUP2 SWAP1 SSTORE POP SWAP2 SWAP1 POP JUMP JUMPDEST PUSH1 0x0 PUSH1 0xCB PUSH1 0x0 SWAP1 SLOAD SWAP1 PUSH2 0x100 EXP SWAP1 DIV PUSH20 0xFFFFFFFFFFFFFFFFFFFFFFFFFFFFFFFFFFFFFFFF AND SWAP1 POP SWAP1 JUMP JUMPDEST PUSH1 0x0 PUSH1 0x2 PUSH1 0x97 SLOAD EQ ISZERO PUSH2 0x101F JUMPI PUSH1 0x40 MLOAD PUSH32 0x8C379A000000000000000000000000000000000000000000000000000000000 DUP2 MSTORE PUSH1 0x4 ADD PUSH2 0x1016 SWAP1 PUSH2 0x256F JUMP JUMPDEST PUSH1 0x40 MLOAD DUP1 SWAP2 SUB SWAP1 REVERT JUMPDEST PUSH1 0x2 PUSH1 0x97 DUP2 SWAP1 SSTORE POP PUSH2 0x1031 CALLER DUP4 PUSH2 0x1443 JUMP JUMPDEST SWAP1 POP PUSH1 0x1 PUSH1 0x97 DUP2 SWAP1 SSTORE POP SWAP2 SWAP1 POP JUMP JUMPDEST PUSH1 0x0 PUSH1 0xCF PUSH1 0x0 DUP4 PUSH20 0xFFFFFFFFFFFFFFFFFFFFFFFFFFFFFFFFFFFFFFFF AND PUSH20 0xFFFFFFFFFFFFFFFFFFFFFFFFFFFFFFFFFFFFFFFF AND DUP2 MSTORE PUSH1 0x20 ADD SWAP1 DUP2 MSTORE PUSH1 0x20 ADD PUSH1 0x0 KECCAK256 SLOAD SWAP1 POP SWAP2 SWAP1 POP JUMP JUMPDEST PUSH2 0x1091 PUSH2 0x174A JUMP JUMPDEST PUSH1 0x0 PUSH20 0xFFFFFFFFFFFFFFFFFFFFFFFFFFFFFFFFFFFFFFFF AND DUP2 PUSH20 0xFFFFFFFFFFFFFFFFFFFFFFFFFFFFFFFFFFFFFFFF AND EQ ISZERO PUSH2 0x1101 JUMPI PUSH1 0x40 MLOAD PUSH32 0x8C379A000000000000000000000000000000000000000000000000000000000 DUP2 MSTORE PUSH1 0x4 ADD PUSH2 0x10F8 SWAP1 PUSH2 0x28E9 JUMP JUMPDEST PUSH1 0x40 MLOAD DUP1 SWAP2 SUB SWAP1 REVERT JUMPDEST PUSH2 0x110A DUP2 PUSH2 0x18F6 JUMP JUMPDEST POP JUMP JUMPDEST PUSH1 0x0 PUSH1 0x2 PUSH1 0x97 SLOAD EQ ISZERO PUSH2 0x1155 JUMPI PUSH1 0x40 MLOAD PUSH32 0x8C379A000000000000000000000000000000000000000000000000000000000 DUP2 MSTORE PUSH1 0x4 ADD PUSH2 0x114C SWAP1 PUSH2 0x256F JUMP JUMPDEST PUSH1 0x40 MLOAD DUP1 SWAP2 SUB SWAP1 REVERT JUMPDEST PUSH1 0x2 PUSH1 0x97 DUP2 SWAP1 SSTORE POP PUSH2 0x1168 CALLER DUP5 DUP5 PUSH2 0x19BC JUMP JUMPDEST SWAP1 POP PUSH1 0x1 PUSH1 0x97 DUP2 SWAP1 SSTORE POP SWAP3 SWAP2 POP POP JUMP JUMPDEST PUSH1 0x0 PUSH1 0xCB PUSH1 0x0 SWAP1 SLOAD SWAP1 PUSH2 0x100 EXP SWAP1 DIV PUSH20 0xFFFFFFFFFFFFFFFFFFFFFFFFFFFFFFFFFFFFFFFF AND PUSH20 0xFFFFFFFFFFFFFFFFFFFFFFFFFFFFFFFFFFFFFFFF AND PUSH4 0x70A08231 ADDRESS PUSH1 0x40 MLOAD DUP3 PUSH4 0xFFFFFFFF AND PUSH1 0xE0 SHL DUP2 MSTORE PUSH1 0x4 ADD PUSH2 0x11D5 SWAP2 SWAP1 PUSH2 0x203A JUMP JUMPDEST PUSH1 0x20 PUSH1 0x40 MLOAD DUP1 DUP4 SUB DUP2 DUP7 GAS STATICCALL ISZERO DUP1 ISZERO PUSH2 0x11F2 JUMPI RETURNDATASIZE PUSH1 0x0 DUP1 RETURNDATACOPY RETURNDATASIZE PUSH1 0x0 REVERT JUMPDEST POP POP POP POP PUSH1 0x40 MLOAD RETURNDATASIZE PUSH1 0x1F NOT PUSH1 0x1F DUP3 ADD AND DUP3 ADD DUP1 PUSH1 0x40 MSTORE POP DUP2 ADD SWAP1 PUSH2 0x1216 SWAP2 SWAP1 PUSH2 0x2605 JUMP JUMPDEST SWAP1 POP SWAP1 JUMP JUMPDEST PUSH1 0x0 DUP1 ADDRESS PUSH20 0xFFFFFFFFFFFFFFFFFFFFFFFFFFFFFFFFFFFFFFFF AND PUSH4 0x223888C1 DUP6 PUSH1 0x40 MLOAD DUP3 PUSH4 0xFFFFFFFF AND PUSH1 0xE0 SHL DUP2 MSTORE PUSH1 0x4 ADD PUSH2 0x1257 SWAP2 SWAP1 PUSH2 0x203A JUMP JUMPDEST PUSH1 0x20 PUSH1 0x40 MLOAD DUP1 DUP4 SUB DUP2 DUP7 GAS STATICCALL ISZERO DUP1 ISZERO PUSH2 0x1274 JUMPI RETURNDATASIZE PUSH1 0x0 DUP1 RETURNDATACOPY RETURNDATASIZE PUSH1 0x0 REVERT JUMPDEST POP POP POP POP PUSH1 0x40 MLOAD RETURNDATASIZE PUSH1 0x1F NOT PUSH1 0x1F DUP3 ADD AND DUP3 ADD DUP1 PUSH1 0x40 MSTORE POP DUP2 ADD SWAP1 PUSH2 0x1298 SWAP2 SWAP1 PUSH2 0x2605 JUMP JUMPDEST SWAP1 POP PUSH1 0x0 DUP2 GT PUSH2 0x12DD JUMPI PUSH1 0x40 MLOAD PUSH32 0x8C379A000000000000000000000000000000000000000000000000000000000 DUP2 MSTORE PUSH1 0x4 ADD PUSH2 0x12D4 SWAP1 PUSH2 0x2955 JUMP JUMPDEST PUSH1 0x40 MLOAD DUP1 SWAP2 SUB SWAP1 REVERT JUMPDEST DUP1 PUSH1 0xCD PUSH1 0x0 DUP7 PUSH20 0xFFFFFFFFFFFFFFFFFFFFFFFFFFFFFFFFFFFFFFFF AND PUSH20 0xFFFFFFFFFFFFFFFFFFFFFFFFFFFFFFFFFFFFFFFF AND DUP2 MSTORE PUSH1 0x20 ADD SWAP1 DUP2 MSTORE PUSH1 0x20 ADD PUSH1 0x0 KECCAK256 PUSH1 0x0 DUP3 DUP3 SLOAD PUSH2 0x132C SWAP2 SWAP1 PUSH2 0x2975 JUMP JUMPDEST SWAP3 POP POP DUP2 SWAP1 SSTORE POP PUSH1 0xCB PUSH1 0x0 SWAP1 SLOAD SWAP1 PUSH2 0x100 EXP SWAP1 DIV PUSH20 0xFFFFFFFFFFFFFFFFFFFFFFFFFFFFFFFFFFFFFFFF AND PUSH20 0xFFFFFFFFFFFFFFFFFFFFFFFFFFFFFFFFFFFFFFFF AND PUSH4 0xA9059CBB DUP5 DUP4 PUSH1 0x40 MLOAD DUP4 PUSH4 0xFFFFFFFF AND PUSH1 0xE0 SHL DUP2 MSTORE PUSH1 0x4 ADD PUSH2 0x1390 SWAP3 SWAP2 SWAP1 PUSH2 0x29CB JUMP JUMPDEST PUSH1 0x20 PUSH1 0x40 MLOAD DUP1 DUP4 SUB DUP2 PUSH1 0x0 DUP8 GAS CALL ISZERO DUP1 ISZERO PUSH2 0x13AF JUMPI RETURNDATASIZE PUSH1 0x0 DUP1 RETURNDATACOPY RETURNDATASIZE PUSH1 0x0 REVERT JUMPDEST POP POP POP POP PUSH1 0x40 MLOAD RETURNDATASIZE PUSH1 0x1F NOT PUSH1 0x1F DUP3 ADD AND DUP3 ADD DUP1 PUSH1 0x40 MSTORE POP DUP2 ADD SWAP1 PUSH2 0x13D3 SWAP2 SWAP1 PUSH2 0x2A20 JUMP JUMPDEST POP DUP3 PUSH20 0xFFFFFFFFFFFFFFFFFFFFFFFFFFFFFFFFFFFFFFFF AND DUP5 PUSH20 0xFFFFFFFFFFFFFFFFFFFFFFFFFFFFFFFFFFFFFFFF AND PUSH32 0xF7A40077FF7A04C7E61F6F26FB13774259DDF1B6BCE9ECF26A8276CDD3992683 DUP4 PUSH1 0x40 MLOAD PUSH2 0x1431 SWAP2 SWAP1 PUSH2 0x20EE JUMP JUMPDEST PUSH1 0x40 MLOAD DUP1 SWAP2 SUB SWAP1 LOG3 DUP1 SWAP2 POP POP SWAP3 SWAP2 POP POP JUMP JUMPDEST PUSH1 0x0 DUP1 PUSH1 0xCB PUSH1 0x0 SWAP1 SLOAD SWAP1 PUSH2 0x100 EXP SWAP1 DIV PUSH20 0xFFFFFFFFFFFFFFFFFFFFFFFFFFFFFFFFFFFFFFFF AND PUSH20 0xFFFFFFFFFFFFFFFFFFFFFFFFFFFFFFFFFFFFFFFF AND PUSH4 0x71CA337D PUSH1 0x40 MLOAD DUP2 PUSH4 0xFFFFFFFF AND PUSH1 0xE0 SHL DUP2 MSTORE PUSH1 0x4 ADD PUSH1 0x20 PUSH1 0x40 MLOAD DUP1 DUP4 SUB DUP2 DUP7 GAS STATICCALL ISZERO DUP1 ISZERO PUSH2 0x14B3 JUMPI RETURNDATASIZE PUSH1 0x0 DUP1 RETURNDATACOPY RETURNDATASIZE PUSH1 0x0 REVERT JUMPDEST POP POP POP POP PUSH1 0x40 MLOAD RETURNDATASIZE PUSH1 0x1F NOT PUSH1 0x1F DUP3 ADD AND DUP3 ADD DUP1 PUSH1 0x40 MSTORE POP DUP2 ADD SWAP1 PUSH2 0x14D7 SWAP2 SWAP1 PUSH2 0x2605 JUMP JUMPDEST SWAP1 POP PUSH1 0xCB PUSH1 0x0 SWAP1 SLOAD SWAP1 PUSH2 0x100 EXP SWAP1 DIV PUSH20 0xFFFFFFFFFFFFFFFFFFFFFFFFFFFFFFFFFFFFFFFF AND PUSH20 0xFFFFFFFFFFFFFFFFFFFFFFFFFFFFFFFFFFFFFFFF AND PUSH4 0x23B872DD CALLER ADDRESS DUP7 PUSH1 0x40 MLOAD DUP5 PUSH4 0xFFFFFFFF AND PUSH1 0xE0 SHL DUP2 MSTORE PUSH1 0x4 ADD PUSH2 0x1538 SWAP4 SWAP3 SWAP2 SWAP1 PUSH2 0x2A4D JUMP JUMPDEST PUSH1 0x20 PUSH1 0x40 MLOAD DUP1 DUP4 SUB DUP2 PUSH1 0x0 DUP8 GAS CALL ISZERO DUP1 ISZERO PUSH2 0x1557 JUMPI RETURNDATASIZE PUSH1 0x0 DUP1 RETURNDATACOPY RETURNDATASIZE PUSH1 0x0 REVERT JUMPDEST POP POP POP POP PUSH1 0x40 MLOAD RETURNDATASIZE PUSH1 0x1F NOT PUSH1 0x1F DUP3 ADD AND DUP3 ADD DUP1 PUSH1 0x40 MSTORE POP DUP2 ADD SWAP1 PUSH2 0x157B SWAP2 SWAP1 PUSH2 0x2A20 JUMP JUMPDEST POP PUSH1 0x0 DUP2 PUSH8 0xDE0B6B3A7640000 DUP6 PUSH2 0x1593 SWAP2 SWAP1 PUSH2 0x27BD JUMP JUMPDEST PUSH2 0x159D SWAP2 SWAP1 PUSH2 0x2846 JUMP JUMPDEST SWAP1 POP DUP4 PUSH1 0xCE PUSH1 0x0 DUP8 PUSH20 0xFFFFFFFFFFFFFFFFFFFFFFFFFFFFFFFFFFFFFFFF AND PUSH20 0xFFFFFFFFFFFFFFFFFFFFFFFFFFFFFFFFFFFFFFFF AND DUP2 MSTORE PUSH1 0x20 ADD SWAP1 DUP2 MSTORE PUSH1 0x20 ADD PUSH1 0x0 KECCAK256 PUSH1 0x0 DUP3 DUP3 SLOAD PUSH2 0x15EE SWAP2 SWAP1 PUSH2 0x2975 JUMP JUMPDEST SWAP3 POP POP DUP2 SWAP1 SSTORE POP DUP1 PUSH1 0xCF PUSH1 0x0 DUP8 PUSH20 0xFFFFFFFFFFFFFFFFFFFFFFFFFFFFFFFFFFFFFFFF AND PUSH20 0xFFFFFFFFFFFFFFFFFFFFFFFFFFFFFFFFFFFFFFFF AND DUP2 MSTORE PUSH1 0x20 ADD SWAP1 DUP2 MSTORE PUSH1 0x20 ADD PUSH1 0x0 KECCAK256 PUSH1 0x0 DUP3 DUP3 SLOAD PUSH2 0x1644 SWAP2 SWAP1 PUSH2 0x2975 JUMP JUMPDEST SWAP3 POP POP DUP2 SWAP1 SSTORE POP PUSH1 0xCA PUSH1 0x0 SWAP1 SLOAD SWAP1 PUSH2 0x100 EXP SWAP1 DIV PUSH20 0xFFFFFFFFFFFFFFFFFFFFFFFFFFFFFFFFFFFFFFFF AND PUSH20 0xFFFFFFFFFFFFFFFFFFFFFFFFFFFFFFFFFFFFFFFF AND PUSH4 0x40C10F19 DUP7 DUP4 PUSH1 0x40 MLOAD DUP4 PUSH4 0xFFFFFFFF AND PUSH1 0xE0 SHL DUP2 MSTORE PUSH1 0x4 ADD PUSH2 0x16A8 SWAP3 SWAP2 SWAP1 PUSH2 0x29CB JUMP JUMPDEST PUSH1 0x0 PUSH1 0x40 MLOAD DUP1 DUP4 SUB DUP2 PUSH1 0x0 DUP8 DUP1 EXTCODESIZE ISZERO DUP1 ISZERO PUSH2 0x16C2 JUMPI PUSH1 0x0 DUP1 REVERT JUMPDEST POP GAS CALL ISZERO DUP1 ISZERO PUSH2 0x16D6 JUMPI RETURNDATASIZE PUSH1 0x0 DUP1 RETURNDATACOPY RETURNDATASIZE PUSH1 0x0 REVERT JUMPDEST POP POP POP POP DUP5 PUSH20 0xFFFFFFFFFFFFFFFFFFFFFFFFFFFFFFFFFFFFFFFF AND CALLER PUSH20 0xFFFFFFFFFFFFFFFFFFFFFFFFFFFFFFFFFFFFFFFF AND PUSH32 0x8752A472E571A816AEA92EEC8DAE9BAF628E840F4929FBCC2D155E6233FF68A7 DUP4 PUSH1 0x40 MLOAD PUSH2 0x1737 SWAP2 SWAP1 PUSH2 0x20EE JUMP JUMPDEST PUSH1 0x40 MLOAD DUP1 SWAP2 SUB SWAP1 LOG3 DUP1 SWAP3 POP POP POP SWAP3 SWAP2 POP POP JUMP JUMPDEST PUSH2 0x1752 PUSH2 0x1E28 JUMP JUMPDEST PUSH20 0xFFFFFFFFFFFFFFFFFFFFFFFFFFFFFFFFFFFFFFFF AND PUSH2 0x1770 PUSH2 0xCF8 JUMP JUMPDEST PUSH20 0xFFFFFFFFFFFFFFFFFFFFFFFFFFFFFFFFFFFFFFFF AND EQ PUSH2 0x17C6 JUMPI PUSH1 0x40 MLOAD PUSH32 0x8C379A000000000000000000000000000000000000000000000000000000000 DUP2 MSTORE PUSH1 0x4 ADD PUSH2 0x17BD SWAP1 PUSH2 0x2AD0 JUMP JUMPDEST PUSH1 0x40 MLOAD DUP1 SWAP2 SUB SWAP1 REVERT JUMPDEST JUMP JUMPDEST PUSH1 0x0 DUP1 DUP3 PUSH20 0xFFFFFFFFFFFFFFFFFFFFFFFFFFFFFFFFFFFFFFFF AND EXTCODESIZE GT SWAP1 POP SWAP2 SWAP1 POP JUMP JUMPDEST PUSH1 0x0 PUSH1 0x1 SWAP1 SLOAD SWAP1 PUSH2 0x100 EXP SWAP1 DIV PUSH1 0xFF AND PUSH2 0x183A JUMPI PUSH1 0x40 MLOAD PUSH32 0x8C379A000000000000000000000000000000000000000000000000000000000 DUP2 MSTORE PUSH1 0x4 ADD PUSH2 0x1831 SWAP1 PUSH2 0x2B62 JUMP JUMPDEST PUSH1 0x40 MLOAD DUP1 SWAP2 SUB SWAP1 REVERT JUMPDEST PUSH2 0x1842 PUSH2 0x1E30 JUMP JUMPDEST JUMP JUMPDEST PUSH1 0x0 PUSH1 0x1 SWAP1 SLOAD SWAP1 PUSH2 0x100 EXP SWAP1 DIV PUSH1 0xFF AND PUSH2 0x1893 JUMPI PUSH1 0x40 MLOAD PUSH32 0x8C379A000000000000000000000000000000000000000000000000000000000 DUP2 MSTORE PUSH1 0x4 ADD PUSH2 0x188A SWAP1 PUSH2 0x2B62 JUMP JUMPDEST PUSH1 0x40 MLOAD DUP1 SWAP2 SUB SWAP1 REVERT JUMPDEST PUSH2 0x189B PUSH2 0x1E91 JUMP JUMPDEST JUMP JUMPDEST PUSH1 0x0 PUSH1 0x1 SWAP1 SLOAD SWAP1 PUSH2 0x100 EXP SWAP1 DIV PUSH1 0xFF AND PUSH2 0x18EC JUMPI PUSH1 0x40 MLOAD PUSH32 0x8C379A000000000000000000000000000000000000000000000000000000000 DUP2 MSTORE PUSH1 0x4 ADD PUSH2 0x18E3 SWAP1 PUSH2 0x2B62 JUMP JUMPDEST PUSH1 0x40 MLOAD DUP1 SWAP2 SUB SWAP1 REVERT JUMPDEST PUSH2 0x18F4 PUSH2 0x1EFD JUMP JUMPDEST JUMP JUMPDEST PUSH1 0x0 PUSH1 0x33 PUSH1 0x0 SWAP1 SLOAD SWAP1 PUSH2 0x100 EXP SWAP1 DIV PUSH20 0xFFFFFFFFFFFFFFFFFFFFFFFFFFFFFFFFFFFFFFFF AND SWAP1 POP DUP2 PUSH1 0x33 PUSH1 0x0 PUSH2 0x100 EXP DUP2 SLOAD DUP2 PUSH20 0xFFFFFFFFFFFFFFFFFFFFFFFFFFFFFFFFFFFFFFFF MUL NOT AND SWAP1 DUP4 PUSH20 0xFFFFFFFFFFFFFFFFFFFFFFFFFFFFFFFFFFFFFFFF AND MUL OR SWAP1 SSTORE POP DUP2 PUSH20 0xFFFFFFFFFFFFFFFFFFFFFFFFFFFFFFFFFFFFFFFF AND DUP2 PUSH20 0xFFFFFFFFFFFFFFFFFFFFFFFFFFFFFFFFFFFFFFFF AND PUSH32 0x8BE0079C531659141344CD1FD0A4F28419497F9722A3DAAFE3B4186F6B6457E0 PUSH1 0x40 MLOAD PUSH1 0x40 MLOAD DUP1 SWAP2 SUB SWAP1 LOG3 POP POP JUMP JUMPDEST PUSH1 0x0 DUP1 PUSH1 0xCB PUSH1 0x0 SWAP1 SLOAD SWAP1 PUSH2 0x100 EXP SWAP1 DIV PUSH20 0xFFFFFFFFFFFFFFFFFFFFFFFFFFFFFFFFFFFFFFFF AND PUSH20 0xFFFFFFFFFFFFFFFFFFFFFFFFFFFFFFFFFFFFFFFF AND PUSH4 0x71CA337D PUSH1 0x40 MLOAD DUP2 PUSH4 0xFFFFFFFF AND PUSH1 0xE0 SHL DUP2 MSTORE PUSH1 0x4 ADD PUSH1 0x20 PUSH1 0x40 MLOAD DUP1 DUP4 SUB DUP2 DUP7 GAS STATICCALL ISZERO DUP1 ISZERO PUSH2 0x1A2C JUMPI RETURNDATASIZE PUSH1 0x0 DUP1 RETURNDATACOPY RETURNDATASIZE PUSH1 0x0 REVERT JUMPDEST POP POP POP POP PUSH1 0x40 MLOAD RETURNDATASIZE PUSH1 0x1F NOT PUSH1 0x1F DUP3 ADD AND DUP3 ADD DUP1 PUSH1 0x40 MSTORE POP DUP2 ADD SWAP1 PUSH2 0x1A50 SWAP2 SWAP1 PUSH2 0x2605 JUMP JUMPDEST SWAP1 POP PUSH1 0x0 PUSH8 0xDE0B6B3A7640000 DUP3 DUP6 PUSH2 0x1A69 SWAP2 SWAP1 PUSH2 0x27BD JUMP JUMPDEST PUSH2 0x1A73 SWAP2 SWAP1 PUSH2 0x2846 JUMP JUMPDEST SWAP1 POP DUP1 PUSH1 0xCB PUSH1 0x0 SWAP1 SLOAD SWAP1 PUSH2 0x100 EXP SWAP1 DIV PUSH20 0xFFFFFFFFFFFFFFFFFFFFFFFFFFFFFFFFFFFFFFFF AND PUSH20 0xFFFFFFFFFFFFFFFFFFFFFFFFFFFFFFFFFFFFFFFF AND PUSH4 0x70A08231 ADDRESS PUSH1 0x40 MLOAD DUP3 PUSH4 0xFFFFFFFF AND PUSH1 0xE0 SHL DUP2 MSTORE PUSH1 0x4 ADD PUSH2 0x1AD1 SWAP2 SWAP1 PUSH2 0x203A JUMP JUMPDEST PUSH1 0x20 PUSH1 0x40 MLOAD DUP1 DUP4 SUB DUP2 DUP7 GAS STATICCALL ISZERO DUP1 ISZERO PUSH2 0x1AEE JUMPI RETURNDATASIZE PUSH1 0x0 DUP1 RETURNDATACOPY RETURNDATASIZE PUSH1 0x0 REVERT JUMPDEST POP POP POP POP PUSH1 0x40 MLOAD RETURNDATASIZE PUSH1 0x1F NOT PUSH1 0x1F DUP3 ADD AND DUP3 ADD DUP1 PUSH1 0x40 MSTORE POP DUP2 ADD SWAP1 PUSH2 0x1B12 SWAP2 SWAP1 PUSH2 0x2605 JUMP JUMPDEST LT ISZERO PUSH2 0x1B53 JUMPI PUSH1 0x40 MLOAD PUSH32 0x8C379A000000000000000000000000000000000000000000000000000000000 DUP2 MSTORE PUSH1 0x4 ADD PUSH2 0x1B4A SWAP1 PUSH2 0x2BCE JUMP JUMPDEST PUSH1 0x40 MLOAD DUP1 SWAP2 SUB SWAP1 REVERT JUMPDEST PUSH1 0x0 PUSH1 0xCF PUSH1 0x0 DUP9 PUSH20 0xFFFFFFFFFFFFFFFFFFFFFFFFFFFFFFFFFFFFFFFF AND PUSH20 0xFFFFFFFFFFFFFFFFFFFFFFFFFFFFFFFFFFFFFFFF AND DUP2 MSTORE PUSH1 0x20 ADD SWAP1 DUP2 MSTORE PUSH1 0x20 ADD PUSH1 0x0 KECCAK256 SLOAD SWAP1 POP DUP5 DUP2 LT ISZERO PUSH2 0x1BDA JUMPI PUSH1 0x40 MLOAD PUSH32 0x8C379A000000000000000000000000000000000000000000000000000000000 DUP2 MSTORE PUSH1 0x4 ADD PUSH2 0x1BD1 SWAP1 PUSH2 0x2C3A JUMP JUMPDEST PUSH1 0x40 MLOAD DUP1 SWAP2 SUB SWAP1 REVERT JUMPDEST DUP5 PUSH1 0xCF PUSH1 0x0 DUP10 PUSH20 0xFFFFFFFFFFFFFFFFFFFFFFFFFFFFFFFFFFFFFFFF AND PUSH20 0xFFFFFFFFFFFFFFFFFFFFFFFFFFFFFFFFFFFFFFFF AND DUP2 MSTORE PUSH1 0x20 ADD SWAP1 DUP2 MSTORE PUSH1 0x20 ADD PUSH1 0x0 KECCAK256 PUSH1 0x0 DUP3 DUP3 SLOAD PUSH2 0x1C29 SWAP2 SWAP1 PUSH2 0x2661 JUMP JUMPDEST SWAP3 POP POP DUP2 SWAP1 SSTORE POP PUSH1 0xCA PUSH1 0x0 SWAP1 SLOAD SWAP1 PUSH2 0x100 EXP SWAP1 DIV PUSH20 0xFFFFFFFFFFFFFFFFFFFFFFFFFFFFFFFFFFFFFFFF AND PUSH20 0xFFFFFFFFFFFFFFFFFFFFFFFFFFFFFFFFFFFFFFFF AND PUSH4 0x9DC29FAC DUP9 DUP8 PUSH1 0x40 MLOAD DUP4 PUSH4 0xFFFFFFFF AND PUSH1 0xE0 SHL DUP2 MSTORE PUSH1 0x4 ADD PUSH2 0x1C8D SWAP3 SWAP2 SWAP1 PUSH2 0x29CB JUMP JUMPDEST PUSH1 0x0 PUSH1 0x40 MLOAD DUP1 DUP4 SUB DUP2 PUSH1 0x0 DUP8 DUP1 EXTCODESIZE ISZERO DUP1 ISZERO PUSH2 0x1CA7 JUMPI PUSH1 0x0 DUP1 REVERT JUMPDEST POP GAS CALL ISZERO DUP1 ISZERO PUSH2 0x1CBB JUMPI RETURNDATASIZE PUSH1 0x0 DUP1 RETURNDATACOPY RETURNDATASIZE PUSH1 0x0 REVERT JUMPDEST POP POP POP POP DUP2 PUSH1 0xCE PUSH1 0x0 DUP10 PUSH20 0xFFFFFFFFFFFFFFFFFFFFFFFFFFFFFFFFFFFFFFFF AND PUSH20 0xFFFFFFFFFFFFFFFFFFFFFFFFFFFFFFFFFFFFFFFF AND DUP2 MSTORE PUSH1 0x20 ADD SWAP1 DUP2 MSTORE PUSH1 0x20 ADD PUSH1 0x0 KECCAK256 PUSH1 0x0 DUP3 DUP3 SLOAD PUSH2 0x1D0E SWAP2 SWAP1 PUSH2 0x2661 JUMP JUMPDEST SWAP3 POP POP DUP2 SWAP1 SSTORE POP PUSH1 0xCB PUSH1 0x0 SWAP1 SLOAD SWAP1 PUSH2 0x100 EXP SWAP1 DIV PUSH20 0xFFFFFFFFFFFFFFFFFFFFFFFFFFFFFFFFFFFFFFFF AND PUSH20 0xFFFFFFFFFFFFFFFFFFFFFFFFFFFFFFFFFFFFFFFF AND PUSH4 0xA9059CBB DUP8 DUP5 PUSH1 0x40 MLOAD DUP4 PUSH4 0xFFFFFFFF AND PUSH1 0xE0 SHL DUP2 MSTORE PUSH1 0x4 ADD PUSH2 0x1D72 SWAP3 SWAP2 SWAP1 PUSH2 0x29CB JUMP JUMPDEST PUSH1 0x20 PUSH1 0x40 MLOAD DUP1 DUP4 SUB DUP2 PUSH1 0x0 DUP8 GAS CALL ISZERO DUP1 ISZERO PUSH2 0x1D91 JUMPI RETURNDATASIZE PUSH1 0x0 DUP1 RETURNDATACOPY RETURNDATASIZE PUSH1 0x0 REVERT JUMPDEST POP POP POP POP PUSH1 0x40 MLOAD RETURNDATASIZE PUSH1 0x1F NOT PUSH1 0x1F DUP3 ADD AND DUP3 ADD DUP1 PUSH1 0x40 MSTORE POP DUP2 ADD SWAP1 PUSH2 0x1DB5 SWAP2 SWAP1 PUSH2 0x2A20 JUMP JUMPDEST POP DUP6 PUSH20 0xFFFFFFFFFFFFFFFFFFFFFFFFFFFFFFFFFFFFFFFF AND DUP8 PUSH20 0xFFFFFFFFFFFFFFFFFFFFFFFFFFFFFFFFFFFFFFFF AND PUSH32 0xD1C19FBCD4551A5EDFB66D43D2E337C04837AFDA3482B42BDF569A8FCCDAE5FB DUP5 PUSH1 0x40 MLOAD PUSH2 0x1E13 SWAP2 SWAP1 PUSH2 0x20EE JUMP JUMPDEST PUSH1 0x40 MLOAD DUP1 SWAP2 SUB SWAP1 LOG3 DUP2 SWAP4 POP POP POP POP SWAP4 SWAP3 POP POP POP JUMP JUMPDEST PUSH1 0x0 CALLER SWAP1 POP SWAP1 JUMP JUMPDEST PUSH1 0x0 PUSH1 0x1 SWAP1 SLOAD SWAP1 PUSH2 0x100 EXP SWAP1 DIV PUSH1 0xFF AND PUSH2 0x1E7F JUMPI PUSH1 0x40 MLOAD PUSH32 0x8C379A000000000000000000000000000000000000000000000000000000000 DUP2 MSTORE PUSH1 0x4 ADD PUSH2 0x1E76 SWAP1 PUSH2 0x2B62 JUMP JUMPDEST PUSH1 0x40 MLOAD DUP1 SWAP2 SUB SWAP1 REVERT JUMPDEST PUSH2 0x1E8F PUSH2 0x1E8A PUSH2 0x1E28 JUMP JUMPDEST PUSH2 0x18F6 JUMP JUMPDEST JUMP JUMPDEST PUSH1 0x0 PUSH1 0x1 SWAP1 SLOAD SWAP1 PUSH2 0x100 EXP SWAP1 DIV PUSH1 0xFF AND PUSH2 0x1EE0 JUMPI PUSH1 0x40 MLOAD PUSH32 0x8C379A000000000000000000000000000000000000000000000000000000000 DUP2 MSTORE PUSH1 0x4 ADD PUSH2 0x1ED7 SWAP1 PUSH2 0x2B62 JUMP JUMPDEST PUSH1 0x40 MLOAD DUP1 SWAP2 SUB SWAP1 REVERT JUMPDEST PUSH1 0x0 PUSH1 0x65 PUSH1 0x0 PUSH2 0x100 EXP DUP2 SLOAD DUP2 PUSH1 0xFF MUL NOT AND SWAP1 DUP4 ISZERO ISZERO MUL OR SWAP1 SSTORE POP JUMP JUMPDEST PUSH1 0x0 PUSH1 0x1 SWAP1 SLOAD SWAP1 PUSH2 0x100 EXP SWAP1 DIV PUSH1 0xFF AND PUSH2 0x1F4C JUMPI PUSH1 0x40 MLOAD PUSH32 0x8C379A000000000000000000000000000000000000000000000000000000000 DUP2 MSTORE PUSH1 0x4 ADD PUSH2 0x1F43 SWAP1 PUSH2 0x2B62 JUMP JUMPDEST PUSH1 0x40 MLOAD DUP1 SWAP2 SUB SWAP1 REVERT JUMPDEST PUSH1 0x1 PUSH1 0x97 DUP2 SWAP1 SSTORE POP JUMP JUMPDEST DUP3 DUP1 SLOAD PUSH2 0x1F62 SWAP1 PUSH2 0x25BE JUMP JUMPDEST SWAP1 PUSH1 0x0 MSTORE PUSH1 0x20 PUSH1 0x0 KECCAK256 SWAP1 PUSH1 0x1F ADD PUSH1 0x20 SWAP1 DIV DUP2 ADD SWAP3 DUP3 PUSH2 0x1F84 JUMPI PUSH1 0x0 DUP6 SSTORE PUSH2 0x1FCB JUMP JUMPDEST DUP3 PUSH1 0x1F LT PUSH2 0x1F9D JUMPI DUP1 MLOAD PUSH1 0xFF NOT AND DUP4 DUP1 ADD OR DUP6 SSTORE PUSH2 0x1FCB JUMP JUMPDEST DUP3 DUP1 ADD PUSH1 0x1 ADD DUP6 SSTORE DUP3 ISZERO PUSH2 0x1FCB JUMPI SWAP2 DUP3 ADD JUMPDEST DUP3 DUP2 GT ISZERO PUSH2 0x1FCA JUMPI DUP3 MLOAD DUP3 SSTORE SWAP2 PUSH1 0x20 ADD SWAP2 SWAP1 PUSH1 0x1 ADD SWAP1 PUSH2 0x1FAF JUMP JUMPDEST JUMPDEST POP SWAP1 POP PUSH2 0x1FD8 SWAP2 SWAP1 PUSH2 0x1FDC JUMP JUMPDEST POP SWAP1 JUMP JUMPDEST JUMPDEST DUP1 DUP3 GT ISZERO PUSH2 0x1FF5 JUMPI PUSH1 0x0 DUP2 PUSH1 0x0 SWAP1 SSTORE POP PUSH1 0x1 ADD PUSH2 0x1FDD JUMP JUMPDEST POP SWAP1 JUMP JUMPDEST PUSH1 0x0 PUSH20 0xFFFFFFFFFFFFFFFFFFFFFFFFFFFFFFFFFFFFFFFF DUP3 AND SWAP1 POP SWAP2 SWAP1 POP JUMP JUMPDEST PUSH1 0x0 PUSH2 0x2024 DUP3 PUSH2 0x1FF9 JUMP JUMPDEST SWAP1 POP SWAP2 SWAP1 POP JUMP JUMPDEST PUSH2 0x2034 DUP2 PUSH2 0x2019 JUMP JUMPDEST DUP3 MSTORE POP POP JUMP JUMPDEST PUSH1 0x0 PUSH1 0x20 DUP3 ADD SWAP1 POP PUSH2 0x204F PUSH1 0x0 DUP4 ADD DUP5 PUSH2 0x202B JUMP JUMPDEST SWAP3 SWAP2 POP POP JUMP JUMPDEST PUSH1 0x0 PUSH1 0x40 MLOAD SWAP1 POP SWAP1 JUMP JUMPDEST PUSH1 0x0 DUP1 REVERT JUMPDEST PUSH1 0x0 DUP1 REVERT JUMPDEST PUSH2 0x2072 DUP2 PUSH2 0x2019 JUMP JUMPDEST DUP2 EQ PUSH2 0x207D JUMPI PUSH1 0x0 DUP1 REVERT JUMPDEST POP JUMP JUMPDEST PUSH1 0x0 DUP2 CALLDATALOAD SWAP1 POP PUSH2 0x208F DUP2 PUSH2 0x2069 JUMP JUMPDEST SWAP3 SWAP2 POP POP JUMP JUMPDEST PUSH1 0x0 DUP1 PUSH1 0x40 DUP4 DUP6 SUB SLT ISZERO PUSH2 0x20AC JUMPI PUSH2 0x20AB PUSH2 0x205F JUMP JUMPDEST JUMPDEST PUSH1 0x0 PUSH2 0x20BA DUP6 DUP3 DUP7 ADD PUSH2 0x2080 JUMP JUMPDEST SWAP3 POP POP PUSH1 0x20 PUSH2 0x20CB DUP6 DUP3 DUP7 ADD PUSH2 0x2080 JUMP JUMPDEST SWAP2 POP POP SWAP3 POP SWAP3 SWAP1 POP JUMP JUMPDEST PUSH1 0x0 DUP2 SWAP1 POP SWAP2 SWAP1 POP JUMP JUMPDEST PUSH2 0x20E8 DUP2 PUSH2 0x20D5 JUMP JUMPDEST DUP3 MSTORE POP POP JUMP JUMPDEST PUSH1 0x0 PUSH1 0x20 DUP3 ADD SWAP1 POP PUSH2 0x2103 PUSH1 0x0 DUP4 ADD DUP5 PUSH2 0x20DF JUMP JUMPDEST SWAP3 SWAP2 POP POP JUMP JUMPDEST PUSH1 0x0 DUP2 MLOAD SWAP1 POP SWAP2 SWAP1 POP JUMP JUMPDEST PUSH1 0x0 DUP3 DUP3 MSTORE PUSH1 0x20 DUP3 ADD SWAP1 POP SWAP3 SWAP2 POP POP JUMP JUMPDEST PUSH1 0x0 JUMPDEST DUP4 DUP2 LT ISZERO PUSH2 0x2143 JUMPI DUP1 DUP3 ADD MLOAD DUP2 DUP5 ADD MSTORE PUSH1 0x20 DUP2 ADD SWAP1 POP PUSH2 0x2128 JUMP JUMPDEST DUP4 DUP2 GT ISZERO PUSH2 0x2152 JUMPI PUSH1 0x0 DUP5 DUP5 ADD MSTORE JUMPDEST POP POP POP POP JUMP JUMPDEST PUSH1 0x0 PUSH1 0x1F NOT PUSH1 0x1F DUP4 ADD AND SWAP1 POP SWAP2 SWAP1 POP JUMP JUMPDEST PUSH1 0x0 PUSH2 0x2174 DUP3 PUSH2 0x2109 JUMP JUMPDEST PUSH2 0x217E DUP2 DUP6 PUSH2 0x2114 JUMP JUMPDEST SWAP4 POP PUSH2 0x218E DUP2 DUP6 PUSH1 0x20 DUP7 ADD PUSH2 0x2125 JUMP JUMPDEST PUSH2 0x2197 DUP2 PUSH2 0x2158 JUMP JUMPDEST DUP5 ADD SWAP2 POP POP SWAP3 SWAP2 POP POP JUMP JUMPDEST PUSH1 0x0 PUSH1 0x20 DUP3 ADD SWAP1 POP DUP2 DUP2 SUB PUSH1 0x0 DUP4 ADD MSTORE PUSH2 0x21BC DUP2 DUP5 PUSH2 0x2169 JUMP JUMPDEST SWAP1 POP SWAP3 SWAP2 POP POP JUMP JUMPDEST PUSH1 0x0 PUSH1 0x20 DUP3 DUP5 SUB SLT ISZERO PUSH2 0x21DA JUMPI PUSH2 0x21D9 PUSH2 0x205F JUMP JUMPDEST JUMPDEST PUSH1 0x0 PUSH2 0x21E8 DUP5 DUP3 DUP6 ADD PUSH2 0x2080 JUMP JUMPDEST SWAP2 POP POP SWAP3 SWAP2 POP POP JUMP JUMPDEST PUSH2 0x21FA DUP2 PUSH2 0x20D5 JUMP JUMPDEST DUP2 EQ PUSH2 0x2205 JUMPI PUSH1 0x0 DUP1 REVERT JUMPDEST POP JUMP JUMPDEST PUSH1 0x0 DUP2 CALLDATALOAD SWAP1 POP PUSH2 0x2217 DUP2 PUSH2 0x21F1 JUMP JUMPDEST SWAP3 SWAP2 POP POP JUMP JUMPDEST PUSH1 0x0 DUP1 PUSH1 0x40 DUP4 DUP6 SUB SLT ISZERO PUSH2 0x2234 JUMPI PUSH2 0x2233 PUSH2 0x205F JUMP JUMPDEST JUMPDEST PUSH1 0x0 PUSH2 0x2242 DUP6 DUP3 DUP7 ADD PUSH2 0x2080 JUMP JUMPDEST SWAP3 POP POP PUSH1 0x20 PUSH2 0x2253 DUP6 DUP3 DUP7 ADD PUSH2 0x2208 JUMP JUMPDEST SWAP2 POP POP SWAP3 POP SWAP3 SWAP1 POP JUMP JUMPDEST PUSH1 0x0 DUP1 REVERT JUMPDEST PUSH1 0x0 DUP1 REVERT JUMPDEST PUSH32 0x4E487B7100000000000000000000000000000000000000000000000000000000 PUSH1 0x0 MSTORE PUSH1 0x41 PUSH1 0x4 MSTORE PUSH1 0x24 PUSH1 0x0 REVERT JUMPDEST PUSH2 0x229F DUP3 PUSH2 0x2158 JUMP JUMPDEST DUP2 ADD DUP2 DUP2 LT PUSH8 0xFFFFFFFFFFFFFFFF DUP3 GT OR ISZERO PUSH2 0x22BE JUMPI PUSH2 0x22BD PUSH2 0x2267 JUMP JUMPDEST JUMPDEST DUP1 PUSH1 0x40 MSTORE POP POP POP JUMP JUMPDEST PUSH1 0x0 PUSH2 0x22D1 PUSH2 0x2055 JUMP JUMPDEST SWAP1 POP PUSH2 0x22DD DUP3 DUP3 PUSH2 0x2296 JUMP JUMPDEST SWAP2 SWAP1 POP JUMP JUMPDEST PUSH1 0x0 PUSH8 0xFFFFFFFFFFFFFFFF DUP3 GT ISZERO PUSH2 0x22FD JUMPI PUSH2 0x22FC PUSH2 0x2267 JUMP JUMPDEST JUMPDEST PUSH2 0x2306 DUP3 PUSH2 0x2158 JUMP JUMPDEST SWAP1 POP PUSH1 0x20 DUP2 ADD SWAP1 POP SWAP2 SWAP1 POP JUMP JUMPDEST DUP3 DUP2 DUP4 CALLDATACOPY PUSH1 0x0 DUP4 DUP4 ADD MSTORE POP POP POP JUMP JUMPDEST PUSH1 0x0 PUSH2 0x2335 PUSH2 0x2330 DUP5 PUSH2 0x22E2 JUMP JUMPDEST PUSH2 0x22C7 JUMP JUMPDEST SWAP1 POP DUP3 DUP2 MSTORE PUSH1 0x20 DUP2 ADD DUP5 DUP5 DUP5 ADD GT ISZERO PUSH2 0x2351 JUMPI PUSH2 0x2350 PUSH2 0x2262 JUMP JUMPDEST JUMPDEST PUSH2 0x235C DUP5 DUP3 DUP6 PUSH2 0x2313 JUMP JUMPDEST POP SWAP4 SWAP3 POP POP POP JUMP JUMPDEST PUSH1 0x0 DUP3 PUSH1 0x1F DUP4 ADD SLT PUSH2 0x2379 JUMPI PUSH2 0x2378 PUSH2 0x225D JUMP JUMPDEST JUMPDEST DUP2 CALLDATALOAD PUSH2 0x2389 DUP5 DUP3 PUSH1 0x20 DUP7 ADD PUSH2 0x2322 JUMP JUMPDEST SWAP2 POP POP SWAP3 SWAP2 POP POP JUMP JUMPDEST PUSH1 0x0 DUP1 PUSH1 0x0 PUSH1 0x60 DUP5 DUP7 SUB SLT ISZERO PUSH2 0x23AB JUMPI PUSH2 0x23AA PUSH2 0x205F JUMP JUMPDEST JUMPDEST PUSH1 0x0 DUP5 ADD CALLDATALOAD PUSH8 0xFFFFFFFFFFFFFFFF DUP2 GT ISZERO PUSH2 0x23C9 JUMPI PUSH2 0x23C8 PUSH2 0x2064 JUMP JUMPDEST JUMPDEST PUSH2 0x23D5 DUP7 DUP3 DUP8 ADD PUSH2 0x2364 JUMP JUMPDEST SWAP4 POP POP PUSH1 0x20 PUSH2 0x23E6 DUP7 DUP3 DUP8 ADD PUSH2 0x2080 JUMP JUMPDEST SWAP3 POP POP PUSH1 0x40 PUSH2 0x23F7 DUP7 DUP3 DUP8 ADD PUSH2 0x2080 JUMP JUMPDEST SWAP2 POP POP SWAP3 POP SWAP3 POP SWAP3 JUMP JUMPDEST PUSH1 0x0 DUP2 ISZERO ISZERO SWAP1 POP SWAP2 SWAP1 POP JUMP JUMPDEST PUSH2 0x2416 DUP2 PUSH2 0x2401 JUMP JUMPDEST DUP3 MSTORE POP POP JUMP JUMPDEST PUSH1 0x0 PUSH1 0x20 DUP3 ADD SWAP1 POP PUSH2 0x2431 PUSH1 0x0 DUP4 ADD DUP5 PUSH2 0x240D JUMP JUMPDEST SWAP3 SWAP2 POP POP JUMP JUMPDEST PUSH1 0x0 DUP1 PUSH1 0x0 PUSH1 0x60 DUP5 DUP7 SUB SLT ISZERO PUSH2 0x2450 JUMPI PUSH2 0x244F PUSH2 0x205F JUMP JUMPDEST JUMPDEST PUSH1 0x0 PUSH2 0x245E DUP7 DUP3 DUP8 ADD PUSH2 0x2080 JUMP JUMPDEST SWAP4 POP POP PUSH1 0x20 PUSH2 0x246F DUP7 DUP3 DUP8 ADD PUSH2 0x2080 JUMP JUMPDEST SWAP3 POP POP PUSH1 0x40 PUSH2 0x2480 DUP7 DUP3 DUP8 ADD PUSH2 0x2208 JUMP JUMPDEST SWAP2 POP POP SWAP3 POP SWAP3 POP SWAP3 JUMP JUMPDEST PUSH1 0x0 PUSH1 0x20 DUP3 DUP5 SUB SLT ISZERO PUSH2 0x24A0 JUMPI PUSH2 0x249F PUSH2 0x205F JUMP JUMPDEST JUMPDEST PUSH1 0x0 PUSH2 0x24AE DUP5 DUP3 DUP6 ADD PUSH2 0x2208 JUMP JUMPDEST SWAP2 POP POP SWAP3 SWAP2 POP POP JUMP JUMPDEST PUSH32 0x526F757465723A206E6F7420616C6C6F77656400000000000000000000000000 PUSH1 0x0 DUP3 ADD MSTORE POP JUMP JUMPDEST PUSH1 0x0 PUSH2 0x24ED PUSH1 0x13 DUP4 PUSH2 0x2114 JUMP JUMPDEST SWAP2 POP PUSH2 0x24F8 DUP3 PUSH2 0x24B7 JUMP JUMPDEST PUSH1 0x20 DUP3 ADD SWAP1 POP SWAP2 SWAP1 POP JUMP JUMPDEST PUSH1 0x0 PUSH1 0x20 DUP3 ADD SWAP1 POP DUP2 DUP2 SUB PUSH1 0x0 DUP4 ADD MSTORE PUSH2 0x251C DUP2 PUSH2 0x24E0 JUMP JUMPDEST SWAP1 POP SWAP2 SWAP1 POP JUMP JUMPDEST PUSH32 0x5265656E7472616E637947756172643A207265656E7472616E742063616C6C00 PUSH1 0x0 DUP3 ADD MSTORE POP JUMP JUMPDEST PUSH1 0x0 PUSH2 0x2559 PUSH1 0x1F DUP4 PUSH2 0x2114 JUMP JUMPDEST SWAP2 POP PUSH2 0x2564 DUP3 PUSH2 0x2523 JUMP JUMPDEST PUSH1 0x20 DUP3 ADD SWAP1 POP SWAP2 SWAP1 POP JUMP JUMPDEST PUSH1 0x0 PUSH1 0x20 DUP3 ADD SWAP1 POP DUP2 DUP2 SUB PUSH1 0x0 DUP4 ADD MSTORE PUSH2 0x2588 DUP2 PUSH2 0x254C JUMP JUMPDEST SWAP1 POP SWAP2 SWAP1 POP JUMP JUMPDEST PUSH32 0x4E487B7100000000000000000000000000000000000000000000000000000000 PUSH1 0x0 MSTORE PUSH1 0x22 PUSH1 0x4 MSTORE PUSH1 0x24 PUSH1 0x0 REVERT JUMPDEST PUSH1 0x0 PUSH1 0x2 DUP3 DIV SWAP1 POP PUSH1 0x1 DUP3 AND DUP1 PUSH2 0x25D6 JUMPI PUSH1 0x7F DUP3 AND SWAP2 POP JUMPDEST PUSH1 0x20 DUP3 LT DUP2 EQ ISZERO PUSH2 0x25EA JUMPI PUSH2 0x25E9 PUSH2 0x258F JUMP JUMPDEST JUMPDEST POP SWAP2 SWAP1 POP JUMP JUMPDEST PUSH1 0x0 DUP2 MLOAD SWAP1 POP PUSH2 0x25FF DUP2 PUSH2 0x21F1 JUMP JUMPDEST SWAP3 SWAP2 POP POP JUMP JUMPDEST PUSH1 0x0 PUSH1 0x20 DUP3 DUP5 SUB SLT ISZERO PUSH2 0x261B JUMPI PUSH2 0x261A PUSH2 0x205F JUMP JUMPDEST JUMPDEST PUSH1 0x0 PUSH2 0x2629 DUP5 DUP3 DUP6 ADD PUSH2 0x25F0 JUMP JUMPDEST SWAP2 POP POP SWAP3 SWAP2 POP POP JUMP JUMPDEST PUSH32 0x4E487B7100000000000000000000000000000000000000000000000000000000 PUSH1 0x0 MSTORE PUSH1 0x11 PUSH1 0x4 MSTORE PUSH1 0x24 PUSH1 0x0 REVERT JUMPDEST PUSH1 0x0 PUSH2 0x266C DUP3 PUSH2 0x20D5 JUMP JUMPDEST SWAP2 POP PUSH2 0x2677 DUP4 PUSH2 0x20D5 JUMP JUMPDEST SWAP3 POP DUP3 DUP3 LT ISZERO PUSH2 0x268A JUMPI PUSH2 0x2689 PUSH2 0x2632 JUMP JUMPDEST JUMPDEST DUP3 DUP3 SUB SWAP1 POP SWAP3 SWAP2 POP POP JUMP JUMPDEST PUSH1 0x0 PUSH1 0x40 DUP3 ADD SWAP1 POP PUSH2 0x26AA PUSH1 0x0 DUP4 ADD DUP6 PUSH2 0x202B JUMP JUMPDEST PUSH2 0x26B7 PUSH1 0x20 DUP4 ADD DUP5 PUSH2 0x202B JUMP JUMPDEST SWAP4 SWAP3 POP POP POP JUMP JUMPDEST PUSH32 0x496E697469616C697A61626C653A20636F6E747261637420697320616C726561 PUSH1 0x0 DUP3 ADD MSTORE PUSH32 0x647920696E697469616C697A6564000000000000000000000000000000000000 PUSH1 0x20 DUP3 ADD MSTORE POP JUMP JUMPDEST PUSH1 0x0 PUSH2 0x271A PUSH1 0x2E DUP4 PUSH2 0x2114 JUMP JUMPDEST SWAP2 POP PUSH2 0x2725 DUP3 PUSH2 0x26BE JUMP JUMPDEST PUSH1 0x40 DUP3 ADD SWAP1 POP SWAP2 SWAP1 POP JUMP JUMPDEST PUSH1 0x0 PUSH1 0x20 DUP3 ADD SWAP1 POP DUP2 DUP2 SUB PUSH1 0x0 DUP4 ADD MSTORE PUSH2 0x2749 DUP2 PUSH2 0x270D JUMP JUMPDEST SWAP1 POP SWAP2 SWAP1 POP JUMP JUMPDEST PUSH1 0x0 DUP2 SWAP1 POP SWAP2 SWAP1 POP JUMP JUMPDEST PUSH1 0x0 PUSH1 0xFF DUP3 AND SWAP1 POP SWAP2 SWAP1 POP JUMP JUMPDEST PUSH1 0x0 DUP2 SWAP1 POP SWAP2 SWAP1 POP JUMP JUMPDEST PUSH1 0x0 PUSH2 0x278C PUSH2 0x2787 PUSH2 0x2782 DUP5 PUSH2 0x2750 JUMP JUMPDEST PUSH2 0x2767 JUMP JUMPDEST PUSH2 0x275A JUMP JUMPDEST SWAP1 POP SWAP2 SWAP1 POP JUMP JUMPDEST PUSH2 0x279C DUP2 PUSH2 0x2771 JUMP JUMPDEST DUP3 MSTORE POP POP JUMP JUMPDEST PUSH1 0x0 PUSH1 0x20 DUP3 ADD SWAP1 POP PUSH2 0x27B7 PUSH1 0x0 DUP4 ADD DUP5 PUSH2 0x2793 JUMP JUMPDEST SWAP3 SWAP2 POP POP JUMP JUMPDEST PUSH1 0x0 PUSH2 0x27C8 DUP3 PUSH2 0x20D5 JUMP JUMPDEST SWAP2 POP PUSH2 0x27D3 DUP4 PUSH2 0x20D5 JUMP JUMPDEST SWAP3 POP DUP2 PUSH32 0xFFFFFFFFFFFFFFFFFFFFFFFFFFFFFFFFFFFFFFFFFFFFFFFFFFFFFFFFFFFFFFFF DIV DUP4 GT DUP3 ISZERO ISZERO AND ISZERO PUSH2 0x280C JUMPI PUSH2 0x280B PUSH2 0x2632 JUMP JUMPDEST JUMPDEST DUP3 DUP3 MUL SWAP1 POP SWAP3 SWAP2 POP POP JUMP JUMPDEST PUSH32 0x4E487B7100000000000000000000000000000000000000000000000000000000 PUSH1 0x0 MSTORE PUSH1 0x12 PUSH1 0x4 MSTORE PUSH1 0x24 PUSH1 0x0 REVERT JUMPDEST PUSH1 0x0 PUSH2 0x2851 DUP3 PUSH2 0x20D5 JUMP JUMPDEST SWAP2 POP PUSH2 0x285C DUP4 PUSH2 0x20D5 JUMP JUMPDEST SWAP3 POP DUP3 PUSH2 0x286C JUMPI PUSH2 0x286B PUSH2 0x2817 JUMP JUMPDEST JUMPDEST DUP3 DUP3 DIV SWAP1 POP SWAP3 SWAP2 POP POP JUMP JUMPDEST PUSH32 0x4F776E61626C653A206E6577206F776E657220697320746865207A65726F2061 PUSH1 0x0 DUP3 ADD MSTORE PUSH32 0x6464726573730000000000000000000000000000000000000000000000000000 PUSH1 0x20 DUP3 ADD MSTORE POP JUMP JUMPDEST PUSH1 0x0 PUSH2 0x28D3 PUSH1 0x26 DUP4 PUSH2 0x2114 JUMP JUMPDEST SWAP2 POP PUSH2 0x28DE DUP3 PUSH2 0x2877 JUMP JUMPDEST PUSH1 0x40 DUP3 ADD SWAP1 POP SWAP2 SWAP1 POP JUMP JUMPDEST PUSH1 0x0 PUSH1 0x20 DUP3 ADD SWAP1 POP DUP2 DUP2 SUB PUSH1 0x0 DUP4 ADD MSTORE PUSH2 0x2902 DUP2 PUSH2 0x28C6 JUMP JUMPDEST SWAP1 POP SWAP2 SWAP1 POP JUMP JUMPDEST PUSH32 0x686173206E6F7420676F74207969656C647320746F20636C61696D0000000000 PUSH1 0x0 DUP3 ADD MSTORE POP JUMP JUMPDEST PUSH1 0x0 PUSH2 0x293F PUSH1 0x1B DUP4 PUSH2 0x2114 JUMP JUMPDEST SWAP2 POP PUSH2 0x294A DUP3 PUSH2 0x2909 JUMP JUMPDEST PUSH1 0x20 DUP3 ADD SWAP1 POP SWAP2 SWAP1 POP JUMP JUMPDEST PUSH1 0x0 PUSH1 0x20 DUP3 ADD SWAP1 POP DUP2 DUP2 SUB PUSH1 0x0 DUP4 ADD MSTORE PUSH2 0x296E DUP2 PUSH2 0x2932 JUMP JUMPDEST SWAP1 POP SWAP2 SWAP1 POP JUMP JUMPDEST PUSH1 0x0 PUSH2 0x2980 DUP3 PUSH2 0x20D5 JUMP JUMPDEST SWAP2 POP PUSH2 0x298B DUP4 PUSH2 0x20D5 JUMP JUMPDEST SWAP3 POP DUP3 PUSH32 0xFFFFFFFFFFFFFFFFFFFFFFFFFFFFFFFFFFFFFFFFFFFFFFFFFFFFFFFFFFFFFFFF SUB DUP3 GT ISZERO PUSH2 0x29C0 JUMPI PUSH2 0x29BF PUSH2 0x2632 JUMP JUMPDEST JUMPDEST DUP3 DUP3 ADD SWAP1 POP SWAP3 SWAP2 POP POP JUMP JUMPDEST PUSH1 0x0 PUSH1 0x40 DUP3 ADD SWAP1 POP PUSH2 0x29E0 PUSH1 0x0 DUP4 ADD DUP6 PUSH2 0x202B JUMP JUMPDEST PUSH2 0x29ED PUSH1 0x20 DUP4 ADD DUP5 PUSH2 0x20DF JUMP JUMPDEST SWAP4 SWAP3 POP POP POP JUMP JUMPDEST PUSH2 0x29FD DUP2 PUSH2 0x2401 JUMP JUMPDEST DUP2 EQ PUSH2 0x2A08 JUMPI PUSH1 0x0 DUP1 REVERT JUMPDEST POP JUMP JUMPDEST PUSH1 0x0 DUP2 MLOAD SWAP1 POP PUSH2 0x2A1A DUP2 PUSH2 0x29F4 JUMP JUMPDEST SWAP3 SWAP2 POP POP JUMP JUMPDEST PUSH1 0x0 PUSH1 0x20 DUP3 DUP5 SUB SLT ISZERO PUSH2 0x2A36 JUMPI PUSH2 0x2A35 PUSH2 0x205F JUMP JUMPDEST JUMPDEST PUSH1 0x0 PUSH2 0x2A44 DUP5 DUP3 DUP6 ADD PUSH2 0x2A0B JUMP JUMPDEST SWAP2 POP POP SWAP3 SWAP2 POP POP JUMP JUMPDEST PUSH1 0x0 PUSH1 0x60 DUP3 ADD SWAP1 POP PUSH2 0x2A62 PUSH1 0x0 DUP4 ADD DUP7 PUSH2 0x202B JUMP JUMPDEST PUSH2 0x2A6F PUSH1 0x20 DUP4 ADD DUP6 PUSH2 0x202B JUMP JUMPDEST PUSH2 0x2A7C PUSH1 0x40 DUP4 ADD DUP5 PUSH2 0x20DF JUMP JUMPDEST SWAP5 SWAP4 POP POP POP POP JUMP JUMPDEST PUSH32 0x4F776E61626C653A2063616C6C6572206973206E6F7420746865206F776E6572 PUSH1 0x0 DUP3 ADD MSTORE POP JUMP JUMPDEST PUSH1 0x0 PUSH2 0x2ABA PUSH1 0x20 DUP4 PUSH2 0x2114 JUMP JUMPDEST SWAP2 POP PUSH2 0x2AC5 DUP3 PUSH2 0x2A84 JUMP JUMPDEST PUSH1 0x20 DUP3 ADD SWAP1 POP SWAP2 SWAP1 POP JUMP JUMPDEST PUSH1 0x0 PUSH1 0x20 DUP3 ADD SWAP1 POP DUP2 DUP2 SUB PUSH1 0x0 DUP4 ADD MSTORE PUSH2 0x2AE9 DUP2 PUSH2 0x2AAD JUMP JUMPDEST SWAP1 POP SWAP2 SWAP1 POP JUMP JUMPDEST PUSH32 0x496E697469616C697A61626C653A20636F6E7472616374206973206E6F742069 PUSH1 0x0 DUP3 ADD MSTORE PUSH32 0x6E697469616C697A696E67000000000000000000000000000000000000000000 PUSH1 0x20 DUP3 ADD MSTORE POP JUMP JUMPDEST PUSH1 0x0 PUSH2 0x2B4C PUSH1 0x2B DUP4 PUSH2 0x2114 JUMP JUMPDEST SWAP2 POP PUSH2 0x2B57 DUP3 PUSH2 0x2AF0 JUMP JUMPDEST PUSH1 0x40 DUP3 ADD SWAP1 POP SWAP2 SWAP1 POP JUMP JUMPDEST PUSH1 0x0 PUSH1 0x20 DUP3 ADD SWAP1 POP DUP2 DUP2 SUB PUSH1 0x0 DUP4 ADD MSTORE PUSH2 0x2B7B DUP2 PUSH2 0x2B3F JUMP JUMPDEST SWAP1 POP SWAP2 SWAP1 POP JUMP JUMPDEST PUSH32 0x6E6F74207375636820616D6F756E7420696E20746865207661756C7400000000 PUSH1 0x0 DUP3 ADD MSTORE POP JUMP JUMPDEST PUSH1 0x0 PUSH2 0x2BB8 PUSH1 0x1C DUP4 PUSH2 0x2114 JUMP JUMPDEST SWAP2 POP PUSH2 0x2BC3 DUP3 PUSH2 0x2B82 JUMP JUMPDEST PUSH1 0x20 DUP3 ADD SWAP1 POP SWAP2 SWAP1 POP JUMP JUMPDEST PUSH1 0x0 PUSH1 0x20 DUP3 ADD SWAP1 POP DUP2 DUP2 SUB PUSH1 0x0 DUP4 ADD MSTORE PUSH2 0x2BE7 DUP2 PUSH2 0x2BAB JUMP JUMPDEST SWAP1 POP SWAP2 SWAP1 POP JUMP JUMPDEST PUSH32 0x696E73756666696369656E742062616C616E6365000000000000000000000000 PUSH1 0x0 DUP3 ADD MSTORE POP JUMP JUMPDEST PUSH1 0x0 PUSH2 0x2C24 PUSH1 0x14 DUP4 PUSH2 0x2114 JUMP JUMPDEST SWAP2 POP PUSH2 0x2C2F DUP3 PUSH2 0x2BEE JUMP JUMPDEST PUSH1 0x20 DUP3 ADD SWAP1 POP SWAP2 SWAP1 POP JUMP JUMPDEST PUSH1 0x0 PUSH1 0x20 DUP3 ADD SWAP1 POP DUP2 DUP2 SUB PUSH1 0x0 DUP4 ADD MSTORE PUSH2 0x2C53 DUP2 PUSH2 0x2C17 JUMP JUMPDEST SWAP1 POP SWAP2 SWAP1 POP JUMP INVALID LOG2 PUSH5 0x6970667358 0x22 SLT KECCAK256 MUL PUSH21 0x2E7B24FB1F4C477B5628A3316C6D18026C51527A24 0x1E SELFBALANCE 0xB0 DUP3 0xBC 0xEF 0x24 LOG0 MSTORE8 PUSH5 0x736F6C6343 STOP ADDMOD EXP STOP CALLER "
				},
				"gasEstimates": {
					"creation": {
						"codeDepositCost": "2281600",
						"executionCost": "2441",
						"totalCost": "2284041"
					},
					"external": {
						"changeCeToken(address)": "infinite",
						"changeRouter(address)": "infinite",
						"claimYields(address)": "infinite",
						"claimYieldsFor(address,address)": "infinite",
						"deposit(uint256)": "infinite",
						"depositFor(address,uint256)": "infinite",
						"getAbnbcAddress()": "2544",
						"getCeToken()": "2546",
						"getCeTokenBalanceOf(address)": "2907",
						"getClaimedOf(address)": "2908",
						"getDepositOf(address)": "2974",
						"getName()": "infinite",
						"getPrincipalOf(address)": "infinite",
						"getRouter()": "2633",
						"getTotalAmountInVault()": "infinite",
						"getYieldFor(address)": "infinite",
						"initialize(string,address,address)": "infinite",
						"owner()": "2567",
						"paused()": "2590",
						"renounceOwnership()": "30421",
						"transferOwnership(address)": "30835",
						"withdraw(address,uint256)": "infinite",
						"withdrawFor(address,address,uint256)": "infinite"
					},
					"internal": {
						"_claimYields(address,address)": "infinite",
						"_deposit(address,uint256)": "infinite",
						"_withdraw(address,address,uint256)": "infinite"
					}
				},
				"methodIdentifiers": {
					"changeCeToken(address)": "3fd44f17",
					"changeRouter(address)": "340ac20f",
					"claimYields(address)": "b36684ac",
					"claimYieldsFor(address,address)": "1101596c",
					"deposit(uint256)": "b6b55f25",
					"depositFor(address,uint256)": "2f4f21e2",
					"getAbnbcAddress()": "b4bf36b2",
					"getCeToken()": "0c632bbe",
					"getCeTokenBalanceOf(address)": "c96f0e01",
					"getClaimedOf(address)": "4226626a",
					"getDepositOf(address)": "5d602c00",
					"getName()": "17d7de7c",
					"getPrincipalOf(address)": "aba317a9",
					"getRouter()": "b0f479a1",
					"getTotalAmountInVault()": "fad83484",
					"getYieldFor(address)": "223888c1",
					"initialize(string,address,address)": "463fd1af",
					"owner()": "8da5cb5b",
					"paused()": "5c975abb",
					"renounceOwnership()": "715018a6",
					"transferOwnership(address)": "f2fde38b",
					"withdraw(address,uint256)": "f3fef3a3",
					"withdrawFor(address,address,uint256)": "9f1d9267"
				}
			},
			"storageLayout": {
				"storage": [
					{
						"astId": 138,
						"contract": "Heliocontracts/contracts/ceros/upgrades/CeVaultV2.sol:CeVaultV2",
						"label": "_initialized",
						"offset": 0,
						"slot": "0",
						"type": "t_uint8"
					},
					{
						"astId": 141,
						"contract": "Heliocontracts/contracts/ceros/upgrades/CeVaultV2.sol:CeVaultV2",
						"label": "_initializing",
						"offset": 1,
						"slot": "0",
						"type": "t_bool"
					},
					{
						"astId": 752,
						"contract": "Heliocontracts/contracts/ceros/upgrades/CeVaultV2.sol:CeVaultV2",
						"label": "__gap",
						"offset": 0,
						"slot": "1",
						"type": "t_array(t_uint256)50_storage"
					},
					{
						"astId": 10,
						"contract": "Heliocontracts/contracts/ceros/upgrades/CeVaultV2.sol:CeVaultV2",
						"label": "_owner",
						"offset": 0,
						"slot": "51",
						"type": "t_address"
					},
					{
						"astId": 130,
						"contract": "Heliocontracts/contracts/ceros/upgrades/CeVaultV2.sol:CeVaultV2",
						"label": "__gap",
						"offset": 0,
						"slot": "52",
						"type": "t_array(t_uint256)49_storage"
					},
					{
						"astId": 303,
						"contract": "Heliocontracts/contracts/ceros/upgrades/CeVaultV2.sol:CeVaultV2",
						"label": "_paused",
						"offset": 0,
						"slot": "101",
						"type": "t_bool"
					},
					{
						"astId": 408,
						"contract": "Heliocontracts/contracts/ceros/upgrades/CeVaultV2.sol:CeVaultV2",
						"label": "__gap",
						"offset": 0,
						"slot": "102",
						"type": "t_array(t_uint256)49_storage"
					},
					{
						"astId": 423,
						"contract": "Heliocontracts/contracts/ceros/upgrades/CeVaultV2.sol:CeVaultV2",
						"label": "_status",
						"offset": 0,
						"slot": "151",
						"type": "t_uint256"
					},
					{
						"astId": 467,
						"contract": "Heliocontracts/contracts/ceros/upgrades/CeVaultV2.sol:CeVaultV2",
						"label": "__gap",
						"offset": 0,
						"slot": "152",
						"type": "t_array(t_uint256)49_storage"
					},
					{
						"astId": 1030,
						"contract": "Heliocontracts/contracts/ceros/upgrades/CeVaultV2.sol:CeVaultV2",
						"label": "_name",
						"offset": 0,
						"slot": "201",
						"type": "t_string_storage"
					},
					{
						"astId": 1033,
						"contract": "Heliocontracts/contracts/ceros/upgrades/CeVaultV2.sol:CeVaultV2",
						"label": "_ceToken",
						"offset": 0,
						"slot": "202",
						"type": "t_contract(ICertToken)876"
					},
					{
						"astId": 1036,
						"contract": "Heliocontracts/contracts/ceros/upgrades/CeVaultV2.sol:CeVaultV2",
						"label": "_aBNBc",
						"offset": 0,
						"slot": "203",
						"type": "t_contract(ICertToken)876"
					},
					{
						"astId": 1038,
						"contract": "Heliocontracts/contracts/ceros/upgrades/CeVaultV2.sol:CeVaultV2",
						"label": "_router",
						"offset": 0,
						"slot": "204",
						"type": "t_address"
					},
					{
						"astId": 1042,
						"contract": "Heliocontracts/contracts/ceros/upgrades/CeVaultV2.sol:CeVaultV2",
						"label": "_claimed",
						"offset": 0,
						"slot": "205",
						"type": "t_mapping(t_address,t_uint256)"
					},
					{
						"astId": 1046,
						"contract": "Heliocontracts/contracts/ceros/upgrades/CeVaultV2.sol:CeVaultV2",
						"label": "_depositors",
						"offset": 0,
						"slot": "206",
						"type": "t_mapping(t_address,t_uint256)"
					},
					{
						"astId": 1050,
						"contract": "Heliocontracts/contracts/ceros/upgrades/CeVaultV2.sol:CeVaultV2",
						"label": "_ceTokenBalances",
						"offset": 0,
						"slot": "207",
						"type": "t_mapping(t_address,t_uint256)"
					}
				],
				"types": {
					"t_address": {
						"encoding": "inplace",
						"label": "address",
						"numberOfBytes": "20"
					},
					"t_array(t_uint256)49_storage": {
						"base": "t_uint256",
						"encoding": "inplace",
						"label": "uint256[49]",
						"numberOfBytes": "1568"
					},
					"t_array(t_uint256)50_storage": {
						"base": "t_uint256",
						"encoding": "inplace",
						"label": "uint256[50]",
						"numberOfBytes": "1600"
					},
					"t_bool": {
						"encoding": "inplace",
						"label": "bool",
						"numberOfBytes": "1"
					},
					"t_contract(ICertToken)876": {
						"encoding": "inplace",
						"label": "contract ICertToken",
						"numberOfBytes": "20"
					},
					"t_mapping(t_address,t_uint256)": {
						"encoding": "mapping",
						"key": "t_address",
						"label": "mapping(address => uint256)",
						"numberOfBytes": "32",
						"value": "t_uint256"
					},
					"t_string_storage": {
						"encoding": "bytes",
						"label": "string",
						"numberOfBytes": "32"
					},
					"t_uint256": {
						"encoding": "inplace",
						"label": "uint256",
						"numberOfBytes": "32"
					},
					"t_uint8": {
						"encoding": "inplace",
						"label": "uint8",
						"numberOfBytes": "1"
					}
				}
			},
			"userdoc": {
				"events": {
					"Deposited(address,address,uint256)": {
						"notice": "Events"
					},
					"RatioUpdated(uint256)": {
						"notice": "Methods"
					}
				},
				"kind": "user",
				"methods": {},
				"version": 1
			}
		}
	}
}