{
	"Heliocontracts/contracts/ceros/upgrades/HelioProviderV2.sol": {
		"HelioProviderV2": {
			"abi": [
				{
					"anonymous": false,
					"inputs": [
						{
							"indexed": false,
							"internalType": "address",
							"name": "pool",
							"type": "address"
						}
					],
					"name": "ChangeBNBStakingPool",
					"type": "event"
				},
				{
					"anonymous": false,
					"inputs": [
						{
							"indexed": false,
							"internalType": "address",
							"name": "ceToken",
							"type": "address"
						}
					],
					"name": "ChangeCeToken",
					"type": "event"
				},
				{
					"anonymous": false,
					"inputs": [
						{
							"indexed": false,
							"internalType": "address",
							"name": "collateralToken",
							"type": "address"
						}
					],
					"name": "ChangeCollateralToken",
					"type": "event"
				},
				{
					"anonymous": false,
					"inputs": [
						{
							"indexed": false,
							"internalType": "address",
							"name": "dao",
							"type": "address"
						}
					],
					"name": "ChangeDao",
					"type": "event"
				},
				{
					"anonymous": false,
					"inputs": [
						{
							"indexed": false,
							"internalType": "address",
							"name": "strategy",
							"type": "address"
						}
					],
					"name": "ChangeLiquidationStrategy",
					"type": "event"
				},
				{
					"anonymous": false,
					"inputs": [
						{
							"indexed": false,
							"internalType": "address",
							"name": "masterVault",
							"type": "address"
						}
					],
					"name": "ChangeMasterVault",
					"type": "event"
				},
				{
					"anonymous": false,
					"inputs": [
						{
							"indexed": false,
							"internalType": "address",
							"name": "auctionProxy",
							"type": "address"
						}
					],
					"name": "ChangeProxy",
					"type": "event"
				},
				{
					"anonymous": false,
					"inputs": [
						{
							"indexed": true,
							"internalType": "address",
							"name": "recipient",
							"type": "address"
						},
						{
							"indexed": false,
							"internalType": "uint256",
							"name": "amount",
							"type": "uint256"
						}
					],
					"name": "Claim",
					"type": "event"
				},
				{
					"anonymous": false,
					"inputs": [
						{
							"indexed": true,
							"internalType": "address",
							"name": "account",
							"type": "address"
						},
						{
							"indexed": false,
							"internalType": "uint256",
							"name": "amount",
							"type": "uint256"
						}
					],
					"name": "Deposit",
					"type": "event"
				},
				{
					"anonymous": false,
					"inputs": [
						{
							"indexed": false,
							"internalType": "uint8",
							"name": "version",
							"type": "uint8"
						}
					],
					"name": "Initialized",
					"type": "event"
				},
				{
					"anonymous": false,
					"inputs": [
						{
							"indexed": true,
							"internalType": "address",
							"name": "previousOwner",
							"type": "address"
						},
						{
							"indexed": true,
							"internalType": "address",
							"name": "newOwner",
							"type": "address"
						}
					],
					"name": "OwnershipTransferred",
					"type": "event"
				},
				{
					"anonymous": false,
					"inputs": [
						{
							"indexed": false,
							"internalType": "address",
							"name": "account",
							"type": "address"
						}
					],
					"name": "Paused",
					"type": "event"
				},
				{
					"anonymous": false,
					"inputs": [
						{
							"indexed": false,
							"internalType": "address",
							"name": "account",
							"type": "address"
						}
					],
					"name": "Unpaused",
					"type": "event"
				},
				{
					"anonymous": false,
					"inputs": [
						{
							"indexed": true,
							"internalType": "address",
							"name": "owner",
							"type": "address"
						},
						{
							"indexed": true,
							"internalType": "address",
							"name": "recipient",
							"type": "address"
						},
						{
							"indexed": false,
							"internalType": "uint256",
							"name": "amount",
							"type": "uint256"
						}
					],
					"name": "Withdrawal",
					"type": "event"
				},
				{
					"anonymous": false,
					"inputs": [
						{
							"indexed": true,
							"internalType": "address",
							"name": "owner",
							"type": "address"
						},
						{
							"indexed": true,
							"internalType": "address",
							"name": "recipient",
							"type": "address"
						},
						{
							"indexed": false,
							"internalType": "uint256",
							"name": "amount",
							"type": "uint256"
						}
					],
					"name": "WithdrawalInToken",
					"type": "event"
				},
				{
					"inputs": [],
					"name": "_ceToken",
					"outputs": [
						{
							"internalType": "address",
							"name": "",
							"type": "address"
						}
					],
					"stateMutability": "view",
					"type": "function"
				},
				{
					"inputs": [],
					"name": "_certToken",
					"outputs": [
						{
							"internalType": "address",
							"name": "",
							"type": "address"
						}
					],
					"stateMutability": "view",
					"type": "function"
				},
				{
					"inputs": [],
					"name": "_collateralToken",
					"outputs": [
						{
							"internalType": "contract ICertToken",
							"name": "",
							"type": "address"
						}
					],
					"stateMutability": "view",
					"type": "function"
				},
				{
					"inputs": [],
					"name": "_dao",
					"outputs": [
						{
							"internalType": "contract IDao",
							"name": "",
							"type": "address"
						}
					],
					"stateMutability": "view",
					"type": "function"
				},
				{
					"inputs": [],
					"name": "_liquidationStrategy",
					"outputs": [
						{
							"internalType": "address",
							"name": "",
							"type": "address"
						}
					],
					"stateMutability": "view",
					"type": "function"
				},
				{
					"inputs": [],
					"name": "_masterVault",
					"outputs": [
						{
							"internalType": "contract IMasterVault",
							"name": "",
							"type": "address"
						}
					],
					"stateMutability": "view",
					"type": "function"
				},
				{
					"inputs": [],
					"name": "_operator",
					"outputs": [
						{
							"internalType": "address",
							"name": "",
							"type": "address"
						}
					],
					"stateMutability": "view",
					"type": "function"
				},
				{
					"inputs": [],
					"name": "_pool",
					"outputs": [
						{
							"internalType": "contract IBNBStakingPool",
							"name": "",
							"type": "address"
						}
					],
					"stateMutability": "view",
					"type": "function"
				},
				{
					"inputs": [],
					"name": "_proxy",
					"outputs": [
						{
							"internalType": "address",
							"name": "",
							"type": "address"
						}
					],
					"stateMutability": "view",
					"type": "function"
				},
				{
					"inputs": [
						{
							"internalType": "address",
							"name": "strategy",
							"type": "address"
						}
					],
					"name": "balanceOfToken",
					"outputs": [
						{
							"internalType": "uint256",
							"name": "",
							"type": "uint256"
						}
					],
					"stateMutability": "view",
					"type": "function"
				},
				{
					"inputs": [
						{
							"internalType": "address",
							"name": "pool",
							"type": "address"
						}
					],
					"name": "changeBNBStakingPool",
					"outputs": [],
					"stateMutability": "nonpayable",
					"type": "function"
				},
				{
					"inputs": [
						{
							"internalType": "address",
							"name": "ceToken",
							"type": "address"
						}
					],
					"name": "changeCeToken",
					"outputs": [],
					"stateMutability": "nonpayable",
					"type": "function"
				},
				{
					"inputs": [
						{
							"internalType": "address",
							"name": "collateralToken",
							"type": "address"
						}
					],
					"name": "changeCollateralToken",
					"outputs": [],
					"stateMutability": "nonpayable",
					"type": "function"
				},
				{
					"inputs": [
						{
							"internalType": "address",
							"name": "dao",
							"type": "address"
						}
					],
					"name": "changeDao",
					"outputs": [],
					"stateMutability": "nonpayable",
					"type": "function"
				},
				{
					"inputs": [
						{
							"internalType": "address",
							"name": "strategy",
							"type": "address"
						}
					],
					"name": "changeLiquidationStrategy",
					"outputs": [],
					"stateMutability": "nonpayable",
					"type": "function"
				},
				{
					"inputs": [
						{
							"internalType": "address",
							"name": "masterVault",
							"type": "address"
						}
					],
					"name": "changeMasterVault",
					"outputs": [],
					"stateMutability": "nonpayable",
					"type": "function"
				},
				{
					"inputs": [
						{
							"internalType": "address",
							"name": "auctionProxy",
							"type": "address"
						}
					],
					"name": "changeProxy",
					"outputs": [],
					"stateMutability": "nonpayable",
					"type": "function"
				},
				{
					"inputs": [
						{
							"internalType": "address",
							"name": "account",
							"type": "address"
						},
						{
							"internalType": "uint256",
							"name": "value",
							"type": "uint256"
						}
					],
					"name": "daoBurn",
					"outputs": [],
					"stateMutability": "nonpayable",
					"type": "function"
				},
				{
					"inputs": [
						{
							"internalType": "address",
							"name": "account",
							"type": "address"
						},
						{
							"internalType": "uint256",
							"name": "value",
							"type": "uint256"
						}
					],
					"name": "daoMint",
					"outputs": [],
					"stateMutability": "nonpayable",
					"type": "function"
				},
				{
					"inputs": [
						{
							"internalType": "address",
							"name": "strategy",
							"type": "address"
						},
						{
							"internalType": "uint256",
							"name": "amount",
							"type": "uint256"
						}
					],
					"name": "estimateInToken",
					"outputs": [
						{
							"internalType": "uint256",
							"name": "",
							"type": "uint256"
						}
					],
					"stateMutability": "view",
					"type": "function"
				},
				{
					"inputs": [
						{
							"internalType": "address",
							"name": "collateralToken",
							"type": "address"
						},
						{
							"internalType": "address",
							"name": "masterVault",
							"type": "address"
						},
						{
							"internalType": "address",
							"name": "ceToken",
							"type": "address"
						},
						{
							"internalType": "address",
							"name": "daoAddress",
							"type": "address"
						}
					],
					"name": "initialize",
					"outputs": [],
					"stateMutability": "nonpayable",
					"type": "function"
				},
				{
					"inputs": [
						{
							"internalType": "address",
							"name": "recipient",
							"type": "address"
						},
						{
							"internalType": "uint256",
							"name": "amount",
							"type": "uint256"
						}
					],
					"name": "liquidation",
					"outputs": [],
					"stateMutability": "nonpayable",
					"type": "function"
				},
				{
					"inputs": [],
					"name": "owner",
					"outputs": [
						{
							"internalType": "address",
							"name": "",
							"type": "address"
						}
					],
					"stateMutability": "view",
					"type": "function"
				},
				{
					"inputs": [],
					"name": "pause",
					"outputs": [],
					"stateMutability": "nonpayable",
					"type": "function"
				},
				{
					"inputs": [],
					"name": "paused",
					"outputs": [
						{
							"internalType": "bool",
							"name": "",
							"type": "bool"
						}
					],
					"stateMutability": "view",
					"type": "function"
				},
				{
					"inputs": [],
					"name": "provide",
					"outputs": [
						{
							"internalType": "uint256",
							"name": "value",
							"type": "uint256"
						}
					],
					"stateMutability": "payable",
					"type": "function"
				},
				{
					"inputs": [
						{
							"internalType": "address",
							"name": "recipient",
							"type": "address"
						},
						{
							"internalType": "uint256",
							"name": "amount",
							"type": "uint256"
						}
					],
					"name": "release",
					"outputs": [
						{
							"internalType": "uint256",
							"name": "realAmount",
							"type": "uint256"
						}
					],
					"stateMutability": "nonpayable",
					"type": "function"
				},
				{
					"inputs": [
						{
							"internalType": "address",
							"name": "strategy",
							"type": "address"
						},
						{
							"internalType": "address",
							"name": "recipient",
							"type": "address"
						},
						{
							"internalType": "uint256",
							"name": "amount",
							"type": "uint256"
						}
					],
					"name": "releaseInToken",
					"outputs": [
						{
							"internalType": "uint256",
							"name": "realAmount",
							"type": "uint256"
						}
					],
					"stateMutability": "nonpayable",
					"type": "function"
				},
				{
					"inputs": [],
					"name": "renounceOwnership",
					"outputs": [],
					"stateMutability": "nonpayable",
					"type": "function"
				},
				{
					"inputs": [
						{
							"internalType": "address",
							"name": "newOwner",
							"type": "address"
						}
					],
					"name": "transferOwnership",
					"outputs": [],
					"stateMutability": "nonpayable",
					"type": "function"
				},
				{
					"inputs": [],
					"name": "unPause",
					"outputs": [],
					"stateMutability": "nonpayable",
					"type": "function"
				}
			],
			"devdoc": {
				"kind": "dev",
				"methods": {
					"owner()": {
						"details": "Returns the address of the current owner."
					},
					"paused()": {
						"details": "Returns true if the contract is paused, and false otherwise."
					},
					"renounceOwnership()": {
						"details": "Leaves the contract without owner. It will not be possible to call `onlyOwner` functions anymore. Can only be called by the current owner. NOTE: Renouncing ownership will leave the contract without an owner, thereby removing any functionality that is only available to the owner."
					},
					"transferOwnership(address)": {
						"details": "Transfers ownership of the contract to a new account (`newOwner`). Can only be called by the current owner."
					}
				},
				"version": 1
			},
			"evm": {
				"assembly": "    /* \"Heliocontracts/contracts/ceros/upgrades/HelioProviderV2.sol\":689:6848  contract HelioProviderV2 is... */\n  mstore(0x40, 0x80)\n  callvalue\n  dup1\n  iszero\n  tag_1\n  jumpi\n  0x00\n  dup1\n  revert\ntag_1:\n  pop\n  dataSize(sub_0)\n  dup1\n  dataOffset(sub_0)\n  0x00\n  codecopy\n  0x00\n  return\nstop\n\nsub_0: assembly {\n        /* \"Heliocontracts/contracts/ceros/upgrades/HelioProviderV2.sol\":689:6848  contract HelioProviderV2 is... */\n      mstore(0x40, 0x80)\n      jumpi(tag_1, lt(calldatasize, 0x04))\n      shr(0xe0, calldataload(0x00))\n      dup1\n      0x8456cb59\n      gt\n      tag_33\n      jumpi\n      dup1\n      0xd8826fec\n      gt\n      tag_34\n      jumpi\n      dup1\n      0xf2fde38b\n      gt\n      tag_35\n      jumpi\n      dup1\n      0xf2fde38b\n      eq\n      tag_29\n      jumpi\n      dup1\n      0xf7b188a5\n      eq\n      tag_30\n      jumpi\n      dup1\n      0xf8c8765e\n      eq\n      tag_31\n      jumpi\n      dup1\n      0xfe1c6c94\n      eq\n      tag_32\n      jumpi\n      0x00\n      dup1\n      revert\n    tag_35:\n      dup1\n      0xd8826fec\n      eq\n      tag_25\n      jumpi\n      dup1\n      0xdf3d23ae\n      eq\n      tag_26\n      jumpi\n      dup1\n      0xe0683726\n      eq\n      tag_27\n      jumpi\n      dup1\n      0xe871405b\n      eq\n      tag_28\n      jumpi\n      0x00\n      dup1\n      revert\n    tag_34:\n      dup1\n      0xb99152d0\n      gt\n      tag_36\n      jumpi\n      dup1\n      0xb99152d0\n      eq\n      tag_21\n      jumpi\n      dup1\n      0xc4031841\n      eq\n      tag_22\n      jumpi\n      dup1\n      0xcc2effdc\n      eq\n      tag_23\n      jumpi\n      dup1\n      0xd25c7439\n      eq\n      tag_24\n      jumpi\n      0x00\n      dup1\n      revert\n    tag_36:\n      dup1\n      0x8456cb59\n      eq\n      tag_17\n      jumpi\n      dup1\n      0x8da5cb5b\n      eq\n      tag_18\n      jumpi\n      dup1\n      0x9479cfa2\n      eq\n      tag_19\n      jumpi\n      dup1\n      0xb9472535\n      eq\n      tag_20\n      jumpi\n      0x00\n      dup1\n      revert\n    tag_33:\n      dup1\n      0x3fd44f17\n      gt\n      tag_37\n      jumpi\n      dup1\n      0x6e8d9a18\n      gt\n      tag_38\n      jumpi\n      dup1\n      0x6e8d9a18\n      eq\n      tag_13\n      jumpi\n      dup1\n      0x6f2bb86a\n      eq\n      tag_14\n      jumpi\n      dup1\n      0x70b0a843\n      eq\n      tag_15\n      jumpi\n      dup1\n      0x715018a6\n      eq\n      tag_16\n      jumpi\n      0x00\n      dup1\n      revert\n    tag_38:\n      dup1\n      0x3fd44f17\n      eq\n      tag_9\n      jumpi\n      dup1\n      0x5a58f9d5\n      eq\n      tag_10\n      jumpi\n      dup1\n      0x5c975abb\n      eq\n      tag_11\n      jumpi\n      dup1\n      0x636fc28b\n      eq\n      tag_12\n      jumpi\n      0x00\n      dup1\n      revert\n    tag_37:\n      dup1\n      0x232da7fe\n      gt\n      tag_39\n      jumpi\n      dup1\n      0x232da7fe\n      eq\n      tag_5\n      jumpi\n      dup1\n      0x358b2b1a\n      eq\n      tag_6\n      jumpi\n      dup1\n      0x3af82c59\n      eq\n      tag_7\n      jumpi\n      dup1\n      0x3e9ec161\n      eq\n      tag_8\n      jumpi\n      0x00\n      dup1\n      revert\n    tag_39:\n      dup1\n      0x0357371d\n      eq\n      tag_2\n      jumpi\n      dup1\n      0x14866aef\n      eq\n      tag_3\n      jumpi\n      dup1\n      0x1ee92d84\n      eq\n      tag_4\n      jumpi\n    tag_1:\n      0x00\n      dup1\n      revert\n        /* \"Heliocontracts/contracts/ceros/upgrades/HelioProviderV2.sol\":2368:2947  function release(address recipient, uint256 amount)... */\n    tag_2:\n      callvalue\n      dup1\n      iszero\n      tag_40\n      jumpi\n      0x00\n      dup1\n      revert\n    tag_40:\n      pop\n      tag_41\n      tag_42\n      calldatasize\n      0x04\n      tag_43\n      jump\t// in\n    tag_42:\n      tag_44\n      jump\t// in\n    tag_41:\n      mload(0x40)\n        /* \"#utility.yul\":597:622   */\n      swap1\n      dup2\n      mstore\n        /* \"#utility.yul\":585:587   */\n      0x20\n        /* \"#utility.yul\":570:588   */\n      add\n        /* \"Heliocontracts/contracts/ceros/upgrades/HelioProviderV2.sol\":2368:2947  function release(address recipient, uint256 amount)... */\n    tag_45:\n      mload(0x40)\n      dup1\n      swap2\n      sub\n      swap1\n      return\n        /* \"Heliocontracts/contracts/ceros/upgrades/HelioProviderV2.sol\":4679:4901  function daoMint(address account, uint256 value)... */\n    tag_3:\n      callvalue\n      dup1\n      iszero\n      tag_47\n      jumpi\n      0x00\n      dup1\n      revert\n    tag_47:\n      pop\n      tag_48\n      tag_49\n      calldatasize\n      0x04\n      tag_43\n      jump\t// in\n    tag_49:\n      tag_50\n      jump\t// in\n    tag_48:\n      stop\n        /* \"Heliocontracts/contracts/ceros/upgrades/HelioProviderV2.sol\":1004:1036  IMasterVault public _masterVault */\n    tag_4:\n      callvalue\n      dup1\n      iszero\n      tag_51\n      jumpi\n      0x00\n      dup1\n      revert\n    tag_51:\n      pop\n      sload(0xcd)\n      tag_52\n      swap1\n      sub(shl(0xa0, 0x01), 0x01)\n      and\n      dup2\n      jump\n    tag_52:\n      mload(0x40)\n      sub(shl(0xa0, 0x01), 0x01)\n        /* \"#utility.yul\":818:850   */\n      swap1\n      swap2\n      and\n        /* \"#utility.yul\":800:851   */\n      dup2\n      mstore\n        /* \"#utility.yul\":788:790   */\n      0x20\n        /* \"#utility.yul\":773:791   */\n      add\n        /* \"Heliocontracts/contracts/ceros/upgrades/HelioProviderV2.sol\":1004:1036  IMasterVault public _masterVault */\n      tag_45\n        /* \"#utility.yul\":633:857   */\n      jump\n        /* \"Heliocontracts/contracts/ceros/upgrades/HelioProviderV2.sol\":6151:6342  function changeCollateralToken(address collateralToken) external onlyOwner {... */\n    tag_5:\n      callvalue\n      dup1\n      iszero\n      tag_56\n      jumpi\n      0x00\n      dup1\n      revert\n    tag_56:\n      pop\n      tag_48\n      tag_58\n      calldatasize\n      0x04\n      tag_59\n      jump\t// in\n    tag_58:\n      tag_60\n      jump\t// in\n        /* \"Heliocontracts/contracts/ceros/upgrades/HelioProviderV2.sol\":946:980  ICertToken public _collateralToken */\n    tag_6:\n      callvalue\n      dup1\n      iszero\n      tag_61\n      jumpi\n      0x00\n      dup1\n      revert\n    tag_61:\n      pop\n      sload(0xcc)\n      tag_52\n      swap1\n      sub(shl(0xa0, 0x01), 0x01)\n      and\n      dup2\n      jump\n        /* \"Heliocontracts/contracts/ceros/upgrades/HelioProviderV2.sol\":6521:6671  function changeBNBStakingPool(address pool) external onlyOwner {... */\n    tag_7:\n      callvalue\n      dup1\n      iszero\n      tag_66\n      jumpi\n      0x00\n      dup1\n      revert\n    tag_66:\n      pop\n      tag_48\n      tag_68\n      calldatasize\n      0x04\n      tag_59\n      jump\t// in\n    tag_68:\n      tag_69\n      jump\t// in\n        /* \"Heliocontracts/contracts/ceros/upgrades/HelioProviderV2.sol\":3037:3492  function releaseInToken(address strategy, address recipient, uint256 amount)... */\n    tag_8:\n      callvalue\n      dup1\n      iszero\n      tag_70\n      jumpi\n      0x00\n      dup1\n      revert\n    tag_70:\n      pop\n      tag_41\n      tag_72\n      calldatasize\n      0x04\n      tag_73\n      jump\t// in\n    tag_72:\n      tag_74\n      jump\t// in\n        /* \"Heliocontracts/contracts/ceros/upgrades/HelioProviderV2.sol\":5750:6001  function changeCeToken(address ceToken) external onlyOwner {... */\n    tag_9:\n      callvalue\n      dup1\n      iszero\n      tag_76\n      jumpi\n      0x00\n      dup1\n      revert\n    tag_76:\n      pop\n      tag_48\n      tag_78\n      calldatasize\n      0x04\n      tag_59\n      jump\t// in\n    tag_78:\n      tag_79\n      jump\t// in\n        /* \"Heliocontracts/contracts/ceros/upgrades/HelioProviderV2.sol\":6676:6846  function changeLiquidationStrategy(address strategy) external onlyOwner {... */\n    tag_10:\n      callvalue\n      dup1\n      iszero\n      tag_80\n      jumpi\n      0x00\n      dup1\n      revert\n    tag_80:\n      pop\n      tag_48\n      tag_82\n      calldatasize\n      0x04\n      tag_59\n      jump\t// in\n    tag_82:\n      tag_83\n      jump\t// in\n        /* \"@openzeppelin/contracts-upgradeable/security/PausableUpgradeable.sol\":1858:1942  function paused() public view virtual returns (bool) {... */\n    tag_11:\n      callvalue\n      dup1\n      iszero\n      tag_84\n      jumpi\n      0x00\n      dup1\n      revert\n    tag_84:\n      pop\n        /* \"@openzeppelin/contracts-upgradeable/security/PausableUpgradeable.sol\":1928:1935  _paused */\n      and(0xff, sload(0x65))\n        /* \"@openzeppelin/contracts-upgradeable/security/PausableUpgradeable.sol\":1858:1942  function paused() public view virtual returns (bool) {... */\n      mload(0x40)\n        /* \"#utility.yul\":1778:1792   */\n      swap1\n      iszero\n        /* \"#utility.yul\":1771:1793   */\n      iszero\n        /* \"#utility.yul\":1753:1794   */\n      dup2\n      mstore\n        /* \"#utility.yul\":1741:1743   */\n      0x20\n        /* \"#utility.yul\":1726:1744   */\n      add\n        /* \"@openzeppelin/contracts-upgradeable/security/PausableUpgradeable.sol\":1858:1942  function paused() public view virtual returns (bool) {... */\n      tag_45\n        /* \"#utility.yul\":1613:1800   */\n      jump\n        /* \"Heliocontracts/contracts/ceros/upgrades/HelioProviderV2.sol\":1064:1092  IBNBStakingPool public _pool */\n    tag_12:\n      callvalue\n      dup1\n      iszero\n      tag_89\n      jumpi\n      0x00\n      dup1\n      revert\n    tag_89:\n      pop\n      sload(0xcf)\n      tag_52\n      swap1\n      sub(shl(0xa0, 0x01), 0x01)\n      and\n      dup2\n      jump\n        /* \"Heliocontracts/contracts/ceros/upgrades/HelioProviderV2.sol\":917:940  address public _ceToken */\n    tag_13:\n      callvalue\n      dup1\n      iszero\n      tag_94\n      jumpi\n      0x00\n      dup1\n      revert\n    tag_94:\n      pop\n      sload(0xcb)\n      tag_52\n      swap1\n      sub(shl(0xa0, 0x01), 0x01)\n      and\n      dup2\n      jump\n        /* \"Heliocontracts/contracts/ceros/upgrades/HelioProviderV2.sol\":4053:4447  function liquidation(address recipient, uint256 amount)... */\n    tag_14:\n      callvalue\n      dup1\n      iszero\n      tag_99\n      jumpi\n      0x00\n      dup1\n      revert\n    tag_99:\n      pop\n      tag_48\n      tag_101\n      calldatasize\n      0x04\n      tag_43\n      jump\t// in\n    tag_101:\n      tag_102\n      jump\t// in\n        /* \"Heliocontracts/contracts/ceros/upgrades/HelioProviderV2.sol\":842:866  address public _operator */\n    tag_15:\n      callvalue\n      dup1\n      iszero\n      tag_103\n      jumpi\n      0x00\n      dup1\n      revert\n    tag_103:\n      pop\n      sload(0xc9)\n      tag_52\n      swap1\n      sub(shl(0xa0, 0x01), 0x01)\n      and\n      dup2\n      jump\n        /* \"@openzeppelin/contracts-upgradeable/access/OwnableUpgradeable.sol\":2071:2172  function renounceOwnership() public virtual onlyOwner {... */\n    tag_16:\n      callvalue\n      dup1\n      iszero\n      tag_107\n      jumpi\n      0x00\n      dup1\n      revert\n    tag_107:\n      pop\n      tag_48\n      tag_109\n      jump\t// in\n        /* \"Heliocontracts/contracts/ceros/upgrades/HelioProviderV2.sol\":5330:5391  function pause() external onlyOwner {... */\n    tag_17:\n      callvalue\n      dup1\n      iszero\n      tag_110\n      jumpi\n      0x00\n      dup1\n      revert\n    tag_110:\n      pop\n      tag_48\n      tag_112\n      jump\t// in\n        /* \"@openzeppelin/contracts-upgradeable/access/OwnableUpgradeable.sol\":1441:1526  function owner() public view virtual returns (address) {... */\n    tag_18:\n      callvalue\n      dup1\n      iszero\n      tag_113\n      jumpi\n      0x00\n      dup1\n      revert\n    tag_113:\n      pop\n        /* \"@openzeppelin/contracts-upgradeable/access/OwnableUpgradeable.sol\":1513:1519  _owner */\n      and(sub(shl(0xa0, 0x01), 0x01), sload(0x33))\n        /* \"@openzeppelin/contracts-upgradeable/access/OwnableUpgradeable.sol\":1441:1526  function owner() public view virtual returns (address) {... */\n      jump(tag_52)\n        /* \"Heliocontracts/contracts/ceros/upgrades/HelioProviderV2.sol\":886:911  address public _certToken */\n    tag_19:\n      callvalue\n      dup1\n      iszero\n      tag_117\n      jumpi\n      0x00\n      dup1\n      revert\n    tag_117:\n      pop\n      sload(0xca)\n      tag_52\n      swap1\n      sub(shl(0xa0, 0x01), 0x01)\n      and\n      dup2\n      jump\n        /* \"Heliocontracts/contracts/ceros/upgrades/HelioProviderV2.sol\":1964:2307  function provide()... */\n    tag_20:\n      tag_41\n      tag_122\n      jump\t// in\n        /* \"Heliocontracts/contracts/ceros/upgrades/HelioProviderV2.sol\":3851:4006  function balanceOfToken(address strategy) external view override returns(uint256) {... */\n    tag_21:\n      callvalue\n      dup1\n      iszero\n      tag_124\n      jumpi\n      0x00\n      dup1\n      revert\n    tag_124:\n      pop\n      tag_41\n      tag_126\n      calldatasize\n      0x04\n      tag_59\n      jump\t// in\n    tag_126:\n      tag_127\n      jump\t// in\n        /* \"Heliocontracts/contracts/ceros/upgrades/HelioProviderV2.sol\":6006:6146  function changeProxy(address auctionProxy) external onlyOwner {... */\n    tag_22:\n      callvalue\n      dup1\n      iszero\n      tag_129\n      jumpi\n      0x00\n      dup1\n      revert\n    tag_129:\n      pop\n      tag_48\n      tag_131\n      calldatasize\n      0x04\n      tag_59\n      jump\t// in\n    tag_131:\n      tag_132\n      jump\t// in\n        /* \"Heliocontracts/contracts/ceros/upgrades/HelioProviderV2.sol\":1098:1119  address public _proxy */\n    tag_23:\n      callvalue\n      dup1\n      iszero\n      tag_133\n      jumpi\n      0x00\n      dup1\n      revert\n    tag_133:\n      pop\n      sload(0xd0)\n      tag_52\n      swap1\n      sub(shl(0xa0, 0x01), 0x01)\n      and\n      dup2\n      jump\n        /* \"Heliocontracts/contracts/ceros/upgrades/HelioProviderV2.sol\":1125:1160  address public _liquidationStrategy */\n    tag_24:\n      callvalue\n      dup1\n      iszero\n      tag_137\n      jumpi\n      0x00\n      dup1\n      revert\n    tag_137:\n      pop\n      sload(0xd1)\n      tag_52\n      swap1\n      sub(shl(0xa0, 0x01), 0x01)\n      and\n      dup2\n      jump\n        /* \"Heliocontracts/contracts/ceros/upgrades/HelioProviderV2.sol\":5512:5745  function changeDao(address dao) external onlyOwner {... */\n    tag_25:\n      callvalue\n      dup1\n      iszero\n      tag_141\n      jumpi\n      0x00\n      dup1\n      revert\n    tag_141:\n      pop\n      tag_48\n      tag_143\n      calldatasize\n      0x04\n      tag_59\n      jump\t// in\n    tag_143:\n      tag_144\n      jump\t// in\n        /* \"Heliocontracts/contracts/ceros/upgrades/HelioProviderV2.sol\":4452:4674  function daoBurn(address account, uint256 value)... */\n    tag_26:\n      callvalue\n      dup1\n      iszero\n      tag_145\n      jumpi\n      0x00\n      dup1\n      revert\n    tag_145:\n      pop\n      tag_48\n      tag_147\n      calldatasize\n      0x04\n      tag_43\n      jump\t// in\n    tag_147:\n      tag_148\n      jump\t// in\n        /* \"Heliocontracts/contracts/ceros/upgrades/HelioProviderV2.sol\":1042:1058  IDao public _dao */\n    tag_27:\n      callvalue\n      dup1\n      iszero\n      tag_149\n      jumpi\n      0x00\n      dup1\n      revert\n    tag_149:\n      pop\n      sload(0xce)\n      tag_52\n      swap1\n      sub(shl(0xa0, 0x01), 0x01)\n      and\n      dup2\n      jump\n        /* \"Heliocontracts/contracts/ceros/upgrades/HelioProviderV2.sol\":3586:3767  function estimateInToken(address strategy, uint256 amount) external view override returns(uint256) {... */\n    tag_28:\n      callvalue\n      dup1\n      iszero\n      tag_154\n      jumpi\n      0x00\n      dup1\n      revert\n    tag_154:\n      pop\n      tag_41\n      tag_156\n      calldatasize\n      0x04\n      tag_43\n      jump\t// in\n    tag_156:\n      tag_157\n      jump\t// in\n        /* \"@openzeppelin/contracts-upgradeable/access/OwnableUpgradeable.sol\":2321:2519  function transferOwnership(address newOwner) public virtual onlyOwner {... */\n    tag_29:\n      callvalue\n      dup1\n      iszero\n      tag_159\n      jumpi\n      0x00\n      dup1\n      revert\n    tag_159:\n      pop\n      tag_48\n      tag_161\n      calldatasize\n      0x04\n      tag_59\n      jump\t// in\n    tag_161:\n      tag_162\n      jump\t// in\n        /* \"Heliocontracts/contracts/ceros/upgrades/HelioProviderV2.sol\":5396:5461  function unPause() external onlyOwner {... */\n    tag_30:\n      callvalue\n      dup1\n      iszero\n      tag_163\n      jumpi\n      0x00\n      dup1\n      revert\n    tag_163:\n      pop\n      tag_48\n      tag_165\n      jump\t// in\n        /* \"Heliocontracts/contracts/ceros/upgrades/HelioProviderV2.sol\":1370:1928  function initialize(... */\n    tag_31:\n      callvalue\n      dup1\n      iszero\n      tag_166\n      jumpi\n      0x00\n      dup1\n      revert\n    tag_166:\n      pop\n      tag_48\n      tag_168\n      calldatasize\n      0x04\n      tag_169\n      jump\t// in\n    tag_168:\n      tag_170\n      jump\t// in\n        /* \"Heliocontracts/contracts/ceros/upgrades/HelioProviderV2.sol\":6347:6516  function changeMasterVault(address masterVault) external onlyOwner {... */\n    tag_32:\n      callvalue\n      dup1\n      iszero\n      tag_171\n      jumpi\n      0x00\n      dup1\n      revert\n    tag_171:\n      pop\n      tag_48\n      tag_173\n      calldatasize\n      0x04\n      tag_59\n      jump\t// in\n    tag_173:\n      tag_174\n      jump\t// in\n        /* \"Heliocontracts/contracts/ceros/upgrades/HelioProviderV2.sol\":2368:2947  function release(address recipient, uint256 amount)... */\n    tag_44:\n        /* \"Heliocontracts/contracts/ceros/upgrades/HelioProviderV2.sol\":2494:2512  uint256 realAmount */\n      0x00\n        /* \"@openzeppelin/contracts-upgradeable/security/PausableUpgradeable.sol\":1482:1501  _requireNotPaused() */\n      tag_176\n        /* \"@openzeppelin/contracts-upgradeable/security/PausableUpgradeable.sol\":1482:1499  _requireNotPaused */\n      tag_177\n        /* \"@openzeppelin/contracts-upgradeable/security/PausableUpgradeable.sol\":1482:1501  _requireNotPaused() */\n      jump\t// in\n    tag_176:\n        /* \"@openzeppelin/contracts-upgradeable/security/ReentrancyGuardUpgradeable.sol\":1815:1816  2 */\n      0x02\n        /* \"@openzeppelin/contracts-upgradeable/security/ReentrancyGuardUpgradeable.sol\":2569:2576  _status */\n      sload(0x97)\n        /* \"@openzeppelin/contracts-upgradeable/security/ReentrancyGuardUpgradeable.sol\":2569:2588  _status != _ENTERED */\n      eq\n      iszero\n        /* \"@openzeppelin/contracts-upgradeable/security/ReentrancyGuardUpgradeable.sol\":2561:2624  require(_status != _ENTERED, \"ReentrancyGuard: reentrant call\") */\n      tag_179\n      jumpi\n      mload(0x40)\n      shl(0xe5, 0x461bcd)\n      dup2\n      mstore\n      0x04\n      add\n      tag_180\n      swap1\n      tag_181\n      jump\t// in\n    tag_180:\n      mload(0x40)\n      dup1\n      swap2\n      sub\n      swap1\n      revert\n    tag_179:\n        /* \"@openzeppelin/contracts-upgradeable/security/ReentrancyGuardUpgradeable.sol\":1815:1816  2 */\n      0x02\n        /* \"@openzeppelin/contracts-upgradeable/security/ReentrancyGuardUpgradeable.sol\":2699:2706  _status */\n      0x97\n        /* \"@openzeppelin/contracts-upgradeable/security/ReentrancyGuardUpgradeable.sol\":2699:2717  _status = _ENTERED */\n      sstore\n      sub(shl(0xa0, 0x01), 0x01)\n        /* \"Heliocontracts/contracts/ceros/upgrades/HelioProviderV2.sol\":2536:2559  recipient != address(0) */\n      dup4\n      and\n        /* \"Heliocontracts/contracts/ceros/upgrades/HelioProviderV2.sol\":2528:2560  require(recipient != address(0)) */\n      tag_183\n      jumpi\n      0x00\n      dup1\n      revert\n    tag_183:\n        /* \"Heliocontracts/contracts/ceros/upgrades/HelioProviderV2.sol\":2595:2600  _pool */\n      sload(0xcf)\n        /* \"Heliocontracts/contracts/ceros/upgrades/HelioProviderV2.sol\":2595:2616  _pool.getMinUnstake() */\n      0x40\n      dup1\n      mload\n      shl(0xe2, 0xd31115)\n      dup2\n      mstore\n      swap1\n      mload\n        /* \"Heliocontracts/contracts/ceros/upgrades/HelioProviderV2.sol\":2570:2592  uint256 minumumUnstake */\n      0x00\n      swap3\n      sub(shl(0xa0, 0x01), 0x01)\n        /* \"Heliocontracts/contracts/ceros/upgrades/HelioProviderV2.sol\":2595:2600  _pool */\n      and\n      swap2\n        /* \"Heliocontracts/contracts/ceros/upgrades/HelioProviderV2.sol\":2595:2614  _pool.getMinUnstake */\n      0x034c4454\n      swap2\n        /* \"Heliocontracts/contracts/ceros/upgrades/HelioProviderV2.sol\":2595:2616  _pool.getMinUnstake() */\n      0x04\n      dup1\n      dup4\n      add\n      swap3\n      0x20\n      swap3\n      swap2\n      swap1\n      dup3\n      swap1\n      sub\n      add\n      dup2\n        /* \"Heliocontracts/contracts/ceros/upgrades/HelioProviderV2.sol\":2595:2600  _pool */\n      dup7\n        /* \"Heliocontracts/contracts/ceros/upgrades/HelioProviderV2.sol\":2595:2616  _pool.getMinUnstake() */\n      gas\n      staticcall\n      iszero\n      dup1\n      iszero\n      tag_185\n      jumpi\n      returndatasize\n      0x00\n      dup1\n      returndatacopy\n      revert(0x00, returndatasize)\n    tag_185:\n      pop\n      pop\n      pop\n      pop\n      mload(0x40)\n      returndatasize\n      not(0x1f)\n      0x1f\n      dup3\n      add\n      and\n      dup3\n      add\n      dup1\n      0x40\n      mstore\n      pop\n      dup2\n      add\n      swap1\n      tag_186\n      swap2\n      swap1\n      tag_187\n      jump\t// in\n    tag_186:\n        /* \"Heliocontracts/contracts/ceros/upgrades/HelioProviderV2.sol\":2570:2616  uint256 minumumUnstake = _pool.getMinUnstake() */\n      swap1\n      pop\n        /* \"Heliocontracts/contracts/ceros/upgrades/HelioProviderV2.sol\":2657:2671  minumumUnstake */\n      dup1\n        /* \"Heliocontracts/contracts/ceros/upgrades/HelioProviderV2.sol\":2647:2653  amount */\n      dup4\n        /* \"Heliocontracts/contracts/ceros/upgrades/HelioProviderV2.sol\":2647:2671  amount >= minumumUnstake */\n      lt\n      iszero\n        /* \"Heliocontracts/contracts/ceros/upgrades/HelioProviderV2.sol\":2626:2742  require(... */\n      tag_188\n      jumpi\n      mload(0x40)\n      shl(0xe5, 0x461bcd)\n      dup2\n      mstore\n        /* \"#utility.yul\":3631:3633   */\n      0x20\n        /* \"Heliocontracts/contracts/ceros/upgrades/HelioProviderV2.sol\":2626:2742  require(... */\n      0x04\n      dup3\n      add\n        /* \"#utility.yul\":3613:3634   */\n      mstore\n        /* \"#utility.yul\":3670:3672   */\n      0x2d\n        /* \"#utility.yul\":3650:3668   */\n      0x24\n      dup3\n      add\n        /* \"#utility.yul\":3643:3673   */\n      mstore\n        /* \"#utility.yul\":3709:3743   */\n      0x76616c7565206d7573742062652067726561746572207468616e206d696e2075\n        /* \"#utility.yul\":3689:3707   */\n      0x44\n      dup3\n      add\n        /* \"#utility.yul\":3682:3744   */\n      mstore\n      shl(0x9a, 0x1b9cdd185ad948185b5bdd5b9d)\n        /* \"#utility.yul\":3760:3778   */\n      0x64\n      dup3\n      add\n        /* \"#utility.yul\":3753:3796   */\n      mstore\n        /* \"#utility.yul\":3813:3832   */\n      0x84\n      add\n        /* \"Heliocontracts/contracts/ceros/upgrades/HelioProviderV2.sol\":2626:2742  require(... */\n      tag_180\n        /* \"#utility.yul\":3429:3838   */\n      jump\n        /* \"Heliocontracts/contracts/ceros/upgrades/HelioProviderV2.sol\":2626:2742  require(... */\n    tag_188:\n        /* \"Heliocontracts/contracts/ceros/upgrades/HelioProviderV2.sol\":2752:2791  _withdrawCollateral(msg.sender, amount) */\n      tag_191\n        /* \"Heliocontracts/contracts/ceros/upgrades/HelioProviderV2.sol\":2772:2782  msg.sender */\n      caller\n        /* \"Heliocontracts/contracts/ceros/upgrades/HelioProviderV2.sol\":2784:2790  amount */\n      dup5\n        /* \"Heliocontracts/contracts/ceros/upgrades/HelioProviderV2.sol\":2752:2771  _withdrawCollateral */\n      tag_192\n        /* \"Heliocontracts/contracts/ceros/upgrades/HelioProviderV2.sol\":2752:2791  _withdrawCollateral(msg.sender, amount) */\n      jump\t// in\n    tag_191:\n        /* \"Heliocontracts/contracts/ceros/upgrades/HelioProviderV2.sol\":2814:2826  _masterVault */\n      sload(0xcd)\n        /* \"Heliocontracts/contracts/ceros/upgrades/HelioProviderV2.sol\":2814:2857  _masterVault.withdrawETH(recipient, amount) */\n      mload(0x40)\n      shl(0xe0, 0x4782f779)\n      dup2\n      mstore\n      sub(shl(0xa0, 0x01), 0x01)\n        /* \"Heliocontracts/contracts/ceros/upgrades/HelioProviderV2.sol\":2814:2826  _masterVault */\n      swap1\n      swap2\n      and\n      swap1\n        /* \"Heliocontracts/contracts/ceros/upgrades/HelioProviderV2.sol\":2814:2838  _masterVault.withdrawETH */\n      0x4782f779\n      swap1\n        /* \"Heliocontracts/contracts/ceros/upgrades/HelioProviderV2.sol\":2814:2857  _masterVault.withdrawETH(recipient, amount) */\n      tag_193\n      swap1\n        /* \"Heliocontracts/contracts/ceros/upgrades/HelioProviderV2.sol\":2839:2848  recipient */\n      dup8\n      swap1\n        /* \"Heliocontracts/contracts/ceros/upgrades/HelioProviderV2.sol\":2850:2856  amount */\n      dup8\n      swap1\n        /* \"Heliocontracts/contracts/ceros/upgrades/HelioProviderV2.sol\":2814:2857  _masterVault.withdrawETH(recipient, amount) */\n      0x04\n      add\n      tag_194\n      jump\t// in\n    tag_193:\n      0x20\n      mload(0x40)\n      dup1\n      dup4\n      sub\n      dup2\n      0x00\n      dup8\n      gas\n      call\n      iszero\n      dup1\n      iszero\n      tag_196\n      jumpi\n      returndatasize\n      0x00\n      dup1\n      returndatacopy\n      revert(0x00, returndatasize)\n    tag_196:\n      pop\n      pop\n      pop\n      pop\n      mload(0x40)\n      returndatasize\n      not(0x1f)\n      0x1f\n      dup3\n      add\n      and\n      dup3\n      add\n      dup1\n      0x40\n      mstore\n      pop\n      dup2\n      add\n      swap1\n      tag_197\n      swap2\n      swap1\n      tag_187\n      jump\t// in\n    tag_197:\n        /* \"Heliocontracts/contracts/ceros/upgrades/HelioProviderV2.sol\":2801:2857  realAmount = _masterVault.withdrawETH(recipient, amount) */\n      swap2\n      pop\n        /* \"Heliocontracts/contracts/ceros/upgrades/HelioProviderV2.sol\":2895:2904  recipient */\n      dup4\n      sub(shl(0xa0, 0x01), 0x01)\n        /* \"Heliocontracts/contracts/ceros/upgrades/HelioProviderV2.sol\":2872:2913  Withdrawal(msg.sender, recipient, amount) */\n      and\n        /* \"Heliocontracts/contracts/ceros/upgrades/HelioProviderV2.sol\":2883:2893  msg.sender */\n      caller\n      sub(shl(0xa0, 0x01), 0x01)\n        /* \"Heliocontracts/contracts/ceros/upgrades/HelioProviderV2.sol\":2872:2913  Withdrawal(msg.sender, recipient, amount) */\n      and\n      0x2717ead6b9200dd235aad468c9809ea400fe33ac69b5bfaa6d3e90fc922b6398\n        /* \"Heliocontracts/contracts/ceros/upgrades/HelioProviderV2.sol\":2906:2912  amount */\n      dup6\n        /* \"Heliocontracts/contracts/ceros/upgrades/HelioProviderV2.sol\":2872:2913  Withdrawal(msg.sender, recipient, amount) */\n      mload(0x40)\n      tag_198\n      swap2\n        /* \"#utility.yul\":597:622   */\n      dup2\n      mstore\n        /* \"#utility.yul\":585:587   */\n      0x20\n        /* \"#utility.yul\":570:588   */\n      add\n      swap1\n        /* \"#utility.yul\":451:628   */\n      jump\n        /* \"Heliocontracts/contracts/ceros/upgrades/HelioProviderV2.sol\":2872:2913  Withdrawal(msg.sender, recipient, amount) */\n    tag_198:\n      mload(0x40)\n      dup1\n      swap2\n      sub\n      swap1\n      log3\n        /* \"Heliocontracts/contracts/ceros/upgrades/HelioProviderV2.sol\":2923:2940  return realAmount */\n      pop\n        /* \"@openzeppelin/contracts-upgradeable/security/ReentrancyGuardUpgradeable.sol\":1772:1773  1 */\n      0x01\n        /* \"@openzeppelin/contracts-upgradeable/security/ReentrancyGuardUpgradeable.sol\":2872:2879  _status */\n      0x97\n        /* \"@openzeppelin/contracts-upgradeable/security/ReentrancyGuardUpgradeable.sol\":2872:2894  _status = _NOT_ENTERED */\n      sstore\n        /* \"Heliocontracts/contracts/ceros/upgrades/HelioProviderV2.sol\":2368:2947  function release(address recipient, uint256 amount)... */\n      swap3\n      swap2\n      pop\n      pop\n      jump\t// out\n        /* \"Heliocontracts/contracts/ceros/upgrades/HelioProviderV2.sol\":4679:4901  function daoMint(address account, uint256 value)... */\n    tag_50:\n        /* \"@openzeppelin/contracts-upgradeable/security/PausableUpgradeable.sol\":1482:1501  _requireNotPaused() */\n      tag_200\n        /* \"@openzeppelin/contracts-upgradeable/security/PausableUpgradeable.sol\":1482:1499  _requireNotPaused */\n      tag_177\n        /* \"@openzeppelin/contracts-upgradeable/security/PausableUpgradeable.sol\":1482:1501  _requireNotPaused() */\n      jump\t// in\n    tag_200:\n        /* \"@openzeppelin/contracts-upgradeable/access/OwnableUpgradeable.sol\":1513:1519  _owner */\n      and(sub(shl(0xa0, 0x01), 0x01), sload(0x33))\n        /* \"Heliocontracts/contracts/ceros/upgrades/HelioProviderV2.sol\":1251:1261  msg.sender */\n      caller\n        /* \"Heliocontracts/contracts/ceros/upgrades/HelioProviderV2.sol\":1251:1272  msg.sender == owner() */\n      eq\n      dup1\n        /* \"Heliocontracts/contracts/ceros/upgrades/HelioProviderV2.sol\":1251:1296  msg.sender == owner() || msg.sender == _proxy */\n      tag_203\n      jumpi\n      pop\n        /* \"Heliocontracts/contracts/ceros/upgrades/HelioProviderV2.sol\":1290:1296  _proxy */\n      and(sub(shl(0xa0, 0x01), 0x01), sload(0xd0))\n        /* \"Heliocontracts/contracts/ceros/upgrades/HelioProviderV2.sol\":1276:1286  msg.sender */\n      caller\n        /* \"Heliocontracts/contracts/ceros/upgrades/HelioProviderV2.sol\":1276:1296  msg.sender == _proxy */\n      eq\n        /* \"Heliocontracts/contracts/ceros/upgrades/HelioProviderV2.sol\":1251:1296  msg.sender == owner() || msg.sender == _proxy */\n    tag_203:\n        /* \"Heliocontracts/contracts/ceros/upgrades/HelioProviderV2.sol\":1230:1347  require(... */\n      tag_204\n      jumpi\n      mload(0x40)\n      shl(0xe5, 0x461bcd)\n      dup2\n      mstore\n      0x04\n      add\n      tag_180\n      swap1\n      tag_206\n      jump\t// in\n    tag_204:\n        /* \"@openzeppelin/contracts-upgradeable/security/ReentrancyGuardUpgradeable.sol\":1815:1816  2 */\n      0x02\n        /* \"@openzeppelin/contracts-upgradeable/security/ReentrancyGuardUpgradeable.sol\":2569:2576  _status */\n      sload(0x97)\n        /* \"@openzeppelin/contracts-upgradeable/security/ReentrancyGuardUpgradeable.sol\":2569:2588  _status != _ENTERED */\n      eq\n      iszero\n        /* \"@openzeppelin/contracts-upgradeable/security/ReentrancyGuardUpgradeable.sol\":2561:2624  require(_status != _ENTERED, \"ReentrancyGuard: reentrant call\") */\n      tag_208\n      jumpi\n      mload(0x40)\n      shl(0xe5, 0x461bcd)\n      dup2\n      mstore\n      0x04\n      add\n      tag_180\n      swap1\n      tag_181\n      jump\t// in\n    tag_208:\n        /* \"@openzeppelin/contracts-upgradeable/security/ReentrancyGuardUpgradeable.sol\":1815:1816  2 */\n      0x02\n        /* \"@openzeppelin/contracts-upgradeable/security/ReentrancyGuardUpgradeable.sol\":2699:2706  _status */\n      0x97\n        /* \"@openzeppelin/contracts-upgradeable/security/ReentrancyGuardUpgradeable.sol\":2699:2717  _status = _ENTERED */\n      sstore\n      sub(shl(0xa0, 0x01), 0x01)\n        /* \"Heliocontracts/contracts/ceros/upgrades/HelioProviderV2.sol\":4825:4846  account != address(0) */\n      dup3\n      and\n        /* \"Heliocontracts/contracts/ceros/upgrades/HelioProviderV2.sol\":4817:4847  require(account != address(0)) */\n      tag_211\n      jumpi\n      0x00\n      dup1\n      revert\n    tag_211:\n        /* \"Heliocontracts/contracts/ceros/upgrades/HelioProviderV2.sol\":4857:4873  _collateralToken */\n      sload(0xcc)\n        /* \"Heliocontracts/contracts/ceros/upgrades/HelioProviderV2.sol\":4857:4894  _collateralToken.mint(account, value) */\n      mload(0x40)\n      shl(0xe0, 0x40c10f19)\n      dup2\n      mstore\n      sub(shl(0xa0, 0x01), 0x01)\n        /* \"Heliocontracts/contracts/ceros/upgrades/HelioProviderV2.sol\":4857:4873  _collateralToken */\n      swap1\n      swap2\n      and\n      swap1\n        /* \"Heliocontracts/contracts/ceros/upgrades/HelioProviderV2.sol\":4857:4878  _collateralToken.mint */\n      0x40c10f19\n      swap1\n        /* \"Heliocontracts/contracts/ceros/upgrades/HelioProviderV2.sol\":4857:4894  _collateralToken.mint(account, value) */\n      tag_212\n      swap1\n        /* \"Heliocontracts/contracts/ceros/upgrades/HelioProviderV2.sol\":4879:4886  account */\n      dup6\n      swap1\n        /* \"Heliocontracts/contracts/ceros/upgrades/HelioProviderV2.sol\":4888:4893  value */\n      dup6\n      swap1\n        /* \"Heliocontracts/contracts/ceros/upgrades/HelioProviderV2.sol\":4857:4894  _collateralToken.mint(account, value) */\n      0x04\n      add\n      tag_194\n      jump\t// in\n    tag_212:\n      0x00\n      mload(0x40)\n      dup1\n      dup4\n      sub\n      dup2\n      0x00\n      dup8\n      dup1\n      extcodesize\n      iszero\n      dup1\n      iszero\n      tag_213\n      jumpi\n      0x00\n      dup1\n      revert\n    tag_213:\n      pop\n      gas\n      call\n      iszero\n      dup1\n      iszero\n      tag_215\n      jumpi\n      returndatasize\n      0x00\n      dup1\n      returndatacopy\n      revert(0x00, returndatasize)\n    tag_215:\n      pop\n      pop\n        /* \"@openzeppelin/contracts-upgradeable/security/ReentrancyGuardUpgradeable.sol\":1772:1773  1 */\n      0x01\n        /* \"@openzeppelin/contracts-upgradeable/security/ReentrancyGuardUpgradeable.sol\":2872:2879  _status */\n      0x97\n        /* \"@openzeppelin/contracts-upgradeable/security/ReentrancyGuardUpgradeable.sol\":2872:2894  _status = _NOT_ENTERED */\n      sstore\n      pop\n      pop\n      pop\n      pop\n        /* \"Heliocontracts/contracts/ceros/upgrades/HelioProviderV2.sol\":4679:4901  function daoMint(address account, uint256 value)... */\n      jump\t// out\n        /* \"Heliocontracts/contracts/ceros/upgrades/HelioProviderV2.sol\":6151:6342  function changeCollateralToken(address collateralToken) external onlyOwner {... */\n    tag_60:\n        /* \"@openzeppelin/contracts-upgradeable/access/OwnableUpgradeable.sol\":1334:1347  _checkOwner() */\n      tag_217\n        /* \"@openzeppelin/contracts-upgradeable/access/OwnableUpgradeable.sol\":1334:1345  _checkOwner */\n      tag_218\n        /* \"@openzeppelin/contracts-upgradeable/access/OwnableUpgradeable.sol\":1334:1347  _checkOwner() */\n      jump\t// in\n    tag_217:\n        /* \"Heliocontracts/contracts/ceros/upgrades/HelioProviderV2.sol\":6236:6252  _collateralToken */\n      0xcc\n        /* \"Heliocontracts/contracts/ceros/upgrades/HelioProviderV2.sol\":6236:6282  _collateralToken = ICertToken(collateralToken) */\n      dup1\n      sload\n      not(sub(shl(0xa0, 0x01), 0x01))\n      and\n      sub(shl(0xa0, 0x01), 0x01)\n      dup4\n      and\n      swap1\n      dup2\n      or\n      swap1\n      swap2\n      sstore\n        /* \"Heliocontracts/contracts/ceros/upgrades/HelioProviderV2.sol\":6297:6335  ChangeCollateralToken(collateralToken) */\n      mload(0x40)\n        /* \"#utility.yul\":800:851   */\n      swap1\n      dup2\n      mstore\n        /* \"Heliocontracts/contracts/ceros/upgrades/HelioProviderV2.sol\":6297:6335  ChangeCollateralToken(collateralToken) */\n      0x5ab190ac1b858818c30b831d9bd74e6bef6f75de987d59f1beb4aab85d064832\n      swap1\n        /* \"#utility.yul\":788:790   */\n      0x20\n        /* \"#utility.yul\":773:791   */\n      add\n        /* \"Heliocontracts/contracts/ceros/upgrades/HelioProviderV2.sol\":6297:6335  ChangeCollateralToken(collateralToken) */\n    tag_220:\n      mload(0x40)\n      dup1\n      swap2\n      sub\n      swap1\n      log1\n        /* \"Heliocontracts/contracts/ceros/upgrades/HelioProviderV2.sol\":6151:6342  function changeCollateralToken(address collateralToken) external onlyOwner {... */\n      pop\n      jump\t// out\n        /* \"Heliocontracts/contracts/ceros/upgrades/HelioProviderV2.sol\":6521:6671  function changeBNBStakingPool(address pool) external onlyOwner {... */\n    tag_69:\n        /* \"@openzeppelin/contracts-upgradeable/access/OwnableUpgradeable.sol\":1334:1347  _checkOwner() */\n      tag_222\n        /* \"@openzeppelin/contracts-upgradeable/access/OwnableUpgradeable.sol\":1334:1345  _checkOwner */\n      tag_218\n        /* \"@openzeppelin/contracts-upgradeable/access/OwnableUpgradeable.sol\":1334:1347  _checkOwner() */\n      jump\t// in\n    tag_222:\n        /* \"Heliocontracts/contracts/ceros/upgrades/HelioProviderV2.sol\":6594:6599  _pool */\n      0xcf\n        /* \"Heliocontracts/contracts/ceros/upgrades/HelioProviderV2.sol\":6594:6623  _pool = IBNBStakingPool(pool) */\n      dup1\n      sload\n      not(sub(shl(0xa0, 0x01), 0x01))\n      and\n      sub(shl(0xa0, 0x01), 0x01)\n      dup4\n      and\n      swap1\n      dup2\n      or\n      swap1\n      swap2\n      sstore\n        /* \"Heliocontracts/contracts/ceros/upgrades/HelioProviderV2.sol\":6638:6664  ChangeBNBStakingPool(pool) */\n      mload(0x40)\n        /* \"#utility.yul\":800:851   */\n      swap1\n      dup2\n      mstore\n        /* \"Heliocontracts/contracts/ceros/upgrades/HelioProviderV2.sol\":6638:6664  ChangeBNBStakingPool(pool) */\n      0xc7c1b39b4c8950340ee2ddc449a99e16d5e090b420db2e99160d82a9ff5580d9\n      swap1\n        /* \"#utility.yul\":788:790   */\n      0x20\n        /* \"#utility.yul\":773:791   */\n      add\n        /* \"Heliocontracts/contracts/ceros/upgrades/HelioProviderV2.sol\":6638:6664  ChangeBNBStakingPool(pool) */\n      tag_220\n        /* \"#utility.yul\":633:857   */\n      jump\n        /* \"Heliocontracts/contracts/ceros/upgrades/HelioProviderV2.sol\":3037:3492  function releaseInToken(address strategy, address recipient, uint256 amount)... */\n    tag_74:\n        /* \"Heliocontracts/contracts/ceros/upgrades/HelioProviderV2.sol\":3188:3206  uint256 realAmount */\n      0x00\n        /* \"@openzeppelin/contracts-upgradeable/security/PausableUpgradeable.sol\":1482:1501  _requireNotPaused() */\n      tag_226\n        /* \"@openzeppelin/contracts-upgradeable/security/PausableUpgradeable.sol\":1482:1499  _requireNotPaused */\n      tag_177\n        /* \"@openzeppelin/contracts-upgradeable/security/PausableUpgradeable.sol\":1482:1501  _requireNotPaused() */\n      jump\t// in\n    tag_226:\n        /* \"@openzeppelin/contracts-upgradeable/security/ReentrancyGuardUpgradeable.sol\":1815:1816  2 */\n      0x02\n        /* \"@openzeppelin/contracts-upgradeable/security/ReentrancyGuardUpgradeable.sol\":2569:2576  _status */\n      sload(0x97)\n        /* \"@openzeppelin/contracts-upgradeable/security/ReentrancyGuardUpgradeable.sol\":2569:2588  _status != _ENTERED */\n      eq\n      iszero\n        /* \"@openzeppelin/contracts-upgradeable/security/ReentrancyGuardUpgradeable.sol\":2561:2624  require(_status != _ENTERED, \"ReentrancyGuard: reentrant call\") */\n      tag_228\n      jumpi\n      mload(0x40)\n      shl(0xe5, 0x461bcd)\n      dup2\n      mstore\n      0x04\n      add\n      tag_180\n      swap1\n      tag_181\n      jump\t// in\n    tag_228:\n        /* \"@openzeppelin/contracts-upgradeable/security/ReentrancyGuardUpgradeable.sol\":1815:1816  2 */\n      0x02\n        /* \"@openzeppelin/contracts-upgradeable/security/ReentrancyGuardUpgradeable.sol\":2699:2706  _status */\n      0x97\n        /* \"@openzeppelin/contracts-upgradeable/security/ReentrancyGuardUpgradeable.sol\":2699:2717  _status = _ENTERED */\n      sstore\n      sub(shl(0xa0, 0x01), 0x01)\n        /* \"Heliocontracts/contracts/ceros/upgrades/HelioProviderV2.sol\":3230:3253  recipient != address(0) */\n      dup4\n      and\n        /* \"Heliocontracts/contracts/ceros/upgrades/HelioProviderV2.sol\":3222:3254  require(recipient != address(0)) */\n      tag_231\n      jumpi\n      0x00\n      dup1\n      revert\n    tag_231:\n        /* \"Heliocontracts/contracts/ceros/upgrades/HelioProviderV2.sol\":3264:3303  _withdrawCollateral(msg.sender, amount) */\n      tag_232\n        /* \"Heliocontracts/contracts/ceros/upgrades/HelioProviderV2.sol\":3284:3294  msg.sender */\n      caller\n        /* \"Heliocontracts/contracts/ceros/upgrades/HelioProviderV2.sol\":3296:3302  amount */\n      dup4\n        /* \"Heliocontracts/contracts/ceros/upgrades/HelioProviderV2.sol\":3264:3283  _withdrawCollateral */\n      tag_192\n        /* \"Heliocontracts/contracts/ceros/upgrades/HelioProviderV2.sol\":3264:3303  _withdrawCollateral(msg.sender, amount) */\n      jump\t// in\n    tag_232:\n        /* \"Heliocontracts/contracts/ceros/upgrades/HelioProviderV2.sol\":3326:3338  _masterVault */\n      sload(0xcd)\n        /* \"Heliocontracts/contracts/ceros/upgrades/HelioProviderV2.sol\":3326:3395  _masterVault.withdrawInTokenFromStrategy(strategy, recipient, amount) */\n      mload(0x40)\n      shl(0xe5, 0x01f3b143)\n      dup2\n      mstore\n      sub(shl(0xa0, 0x01), 0x01)\n        /* \"Heliocontracts/contracts/ceros/upgrades/HelioProviderV2.sol\":3326:3338  _masterVault */\n      swap1\n      swap2\n      and\n      swap1\n        /* \"Heliocontracts/contracts/ceros/upgrades/HelioProviderV2.sol\":3326:3366  _masterVault.withdrawInTokenFromStrategy */\n      0x3e762860\n      swap1\n        /* \"Heliocontracts/contracts/ceros/upgrades/HelioProviderV2.sol\":3326:3395  _masterVault.withdrawInTokenFromStrategy(strategy, recipient, amount) */\n      tag_233\n      swap1\n        /* \"Heliocontracts/contracts/ceros/upgrades/HelioProviderV2.sol\":3367:3375  strategy */\n      dup8\n      swap1\n        /* \"Heliocontracts/contracts/ceros/upgrades/HelioProviderV2.sol\":3377:3386  recipient */\n      dup8\n      swap1\n        /* \"Heliocontracts/contracts/ceros/upgrades/HelioProviderV2.sol\":3388:3394  amount */\n      dup8\n      swap1\n        /* \"Heliocontracts/contracts/ceros/upgrades/HelioProviderV2.sol\":3326:3395  _masterVault.withdrawInTokenFromStrategy(strategy, recipient, amount) */\n      0x04\n      add\n      tag_234\n      jump\t// in\n    tag_233:\n      0x20\n      mload(0x40)\n      dup1\n      dup4\n      sub\n      dup2\n      0x00\n      dup8\n      gas\n      call\n      iszero\n      dup1\n      iszero\n      tag_236\n      jumpi\n      returndatasize\n      0x00\n      dup1\n      returndatacopy\n      revert(0x00, returndatasize)\n    tag_236:\n      pop\n      pop\n      pop\n      pop\n      mload(0x40)\n      returndatasize\n      not(0x1f)\n      0x1f\n      dup3\n      add\n      and\n      dup3\n      add\n      dup1\n      0x40\n      mstore\n      pop\n      dup2\n      add\n      swap1\n      tag_237\n      swap2\n      swap1\n      tag_187\n      jump\t// in\n    tag_237:\n        /* \"Heliocontracts/contracts/ceros/upgrades/HelioProviderV2.sol\":3313:3395  realAmount = _masterVault.withdrawInTokenFromStrategy(strategy, recipient, amount) */\n      swap1\n      pop\n        /* \"Heliocontracts/contracts/ceros/upgrades/HelioProviderV2.sol\":3440:3449  recipient */\n      dup3\n      sub(shl(0xa0, 0x01), 0x01)\n        /* \"Heliocontracts/contracts/ceros/upgrades/HelioProviderV2.sol\":3410:3458  WithdrawalInToken(msg.sender, recipient, amount) */\n      and\n        /* \"Heliocontracts/contracts/ceros/upgrades/HelioProviderV2.sol\":3428:3438  msg.sender */\n      caller\n      sub(shl(0xa0, 0x01), 0x01)\n        /* \"Heliocontracts/contracts/ceros/upgrades/HelioProviderV2.sol\":3410:3458  WithdrawalInToken(msg.sender, recipient, amount) */\n      and\n      0x695aa78ae24e967a966877abedf194857bfa20d094e27d7c2e88d403543f9259\n        /* \"Heliocontracts/contracts/ceros/upgrades/HelioProviderV2.sol\":3451:3457  amount */\n      dup5\n        /* \"Heliocontracts/contracts/ceros/upgrades/HelioProviderV2.sol\":3410:3458  WithdrawalInToken(msg.sender, recipient, amount) */\n      mload(0x40)\n      tag_238\n      swap2\n        /* \"#utility.yul\":597:622   */\n      dup2\n      mstore\n        /* \"#utility.yul\":585:587   */\n      0x20\n        /* \"#utility.yul\":570:588   */\n      add\n      swap1\n        /* \"#utility.yul\":451:628   */\n      jump\n        /* \"Heliocontracts/contracts/ceros/upgrades/HelioProviderV2.sol\":3410:3458  WithdrawalInToken(msg.sender, recipient, amount) */\n    tag_238:\n      mload(0x40)\n      dup1\n      swap2\n      sub\n      swap1\n      log3\n        /* \"@openzeppelin/contracts-upgradeable/security/ReentrancyGuardUpgradeable.sol\":1772:1773  1 */\n      0x01\n        /* \"@openzeppelin/contracts-upgradeable/security/ReentrancyGuardUpgradeable.sol\":2872:2879  _status */\n      0x97\n        /* \"@openzeppelin/contracts-upgradeable/security/ReentrancyGuardUpgradeable.sol\":2872:2894  _status = _NOT_ENTERED */\n      sstore\n        /* \"Heliocontracts/contracts/ceros/upgrades/HelioProviderV2.sol\":3037:3492  function releaseInToken(address strategy, address recipient, uint256 amount)... */\n      swap4\n      swap3\n      pop\n      pop\n      pop\n      jump\t// out\n        /* \"Heliocontracts/contracts/ceros/upgrades/HelioProviderV2.sol\":5750:6001  function changeCeToken(address ceToken) external onlyOwner {... */\n    tag_79:\n        /* \"@openzeppelin/contracts-upgradeable/access/OwnableUpgradeable.sol\":1334:1347  _checkOwner() */\n      tag_240\n        /* \"@openzeppelin/contracts-upgradeable/access/OwnableUpgradeable.sol\":1334:1345  _checkOwner */\n      tag_218\n        /* \"@openzeppelin/contracts-upgradeable/access/OwnableUpgradeable.sol\":1334:1347  _checkOwner() */\n      jump\t// in\n    tag_240:\n        /* \"Heliocontracts/contracts/ceros/upgrades/HelioProviderV2.sol\":5826:5834  _ceToken */\n      sload(0xcb)\n        /* \"Heliocontracts/contracts/ceros/upgrades/HelioProviderV2.sol\":5852:5856  _dao */\n      sload(0xce)\n        /* \"Heliocontracts/contracts/ceros/upgrades/HelioProviderV2.sol\":5819:5861  IERC20(_ceToken).approve(address(_dao), 0) */\n      mload(0x40)\n      shl(0xe0, 0x095ea7b3)\n      dup2\n      mstore\n      sub(shl(0xa0, 0x01), 0x01)\n        /* \"Heliocontracts/contracts/ceros/upgrades/HelioProviderV2.sol\":5826:5834  _ceToken */\n      swap3\n      dup4\n      and\n      swap3\n        /* \"Heliocontracts/contracts/ceros/upgrades/HelioProviderV2.sol\":5819:5843  IERC20(_ceToken).approve */\n      0x095ea7b3\n      swap3\n        /* \"Heliocontracts/contracts/ceros/upgrades/HelioProviderV2.sol\":5819:5861  IERC20(_ceToken).approve(address(_dao), 0) */\n      tag_242\n      swap3\n        /* \"Heliocontracts/contracts/ceros/upgrades/HelioProviderV2.sol\":5852:5856  _dao */\n      swap2\n      and\n      swap1\n        /* \"Heliocontracts/contracts/ceros/upgrades/HelioProviderV2.sol\":5826:5834  _ceToken */\n      0x00\n      swap1\n        /* \"Heliocontracts/contracts/ceros/upgrades/HelioProviderV2.sol\":5819:5861  IERC20(_ceToken).approve(address(_dao), 0) */\n      0x04\n      add\n      tag_194\n      jump\t// in\n    tag_242:\n      0x20\n      mload(0x40)\n      dup1\n      dup4\n      sub\n      dup2\n      0x00\n      dup8\n      gas\n      call\n      iszero\n      dup1\n      iszero\n      tag_245\n      jumpi\n      returndatasize\n      0x00\n      dup1\n      returndatacopy\n      revert(0x00, returndatasize)\n    tag_245:\n      pop\n      pop\n      pop\n      pop\n      mload(0x40)\n      returndatasize\n      not(0x1f)\n      0x1f\n      dup3\n      add\n      and\n      dup3\n      add\n      dup1\n      0x40\n      mstore\n      pop\n      dup2\n      add\n      swap1\n      tag_246\n      swap2\n      swap1\n      tag_247\n      jump\t// in\n    tag_246:\n      pop\n        /* \"Heliocontracts/contracts/ceros/upgrades/HelioProviderV2.sol\":5871:5879  _ceToken */\n      0xcb\n        /* \"Heliocontracts/contracts/ceros/upgrades/HelioProviderV2.sol\":5871:5889  _ceToken = ceToken */\n      dup1\n      sload\n      not(sub(shl(0xa0, 0x01), 0x01))\n      and\n      sub(shl(0xa0, 0x01), 0x01)\n      dup4\n      dup2\n      and\n      swap2\n      dup3\n      or\n      swap1\n      swap3\n      sstore\n        /* \"Heliocontracts/contracts/ceros/upgrades/HelioProviderV2.sol\":5932:5936  _dao */\n      sload(0xce)\n        /* \"Heliocontracts/contracts/ceros/upgrades/HelioProviderV2.sol\":5899:5957  IERC20(_ceToken).approve(address(_dao), type(uint256).max) */\n      mload(0x40)\n      shl(0xe0, 0x095ea7b3)\n      dup2\n      mstore\n        /* \"Heliocontracts/contracts/ceros/upgrades/HelioProviderV2.sol\":5871:5889  _ceToken = ceToken */\n      swap2\n      swap3\n        /* \"Heliocontracts/contracts/ceros/upgrades/HelioProviderV2.sol\":5899:5923  IERC20(_ceToken).approve */\n      0x095ea7b3\n      swap3\n        /* \"Heliocontracts/contracts/ceros/upgrades/HelioProviderV2.sol\":5899:5957  IERC20(_ceToken).approve(address(_dao), type(uint256).max) */\n      tag_248\n      swap3\n        /* \"Heliocontracts/contracts/ceros/upgrades/HelioProviderV2.sol\":5932:5936  _dao */\n      swap1\n      swap2\n      and\n      swap1\n      not(0x00)\n        /* \"Heliocontracts/contracts/ceros/upgrades/HelioProviderV2.sol\":5939:5956  type(uint256).max */\n      swap1\n        /* \"Heliocontracts/contracts/ceros/upgrades/HelioProviderV2.sol\":5899:5957  IERC20(_ceToken).approve(address(_dao), type(uint256).max) */\n      0x04\n      add\n      tag_194\n      jump\t// in\n    tag_248:\n      0x20\n      mload(0x40)\n      dup1\n      dup4\n      sub\n      dup2\n      0x00\n      dup8\n      gas\n      call\n      iszero\n      dup1\n      iszero\n      tag_250\n      jumpi\n      returndatasize\n      0x00\n      dup1\n      returndatacopy\n      revert(0x00, returndatasize)\n    tag_250:\n      pop\n      pop\n      pop\n      pop\n      mload(0x40)\n      returndatasize\n      not(0x1f)\n      0x1f\n      dup3\n      add\n      and\n      dup3\n      add\n      dup1\n      0x40\n      mstore\n      pop\n      dup2\n      add\n      swap1\n      tag_251\n      swap2\n      swap1\n      tag_247\n      jump\t// in\n    tag_251:\n      pop\n        /* \"Heliocontracts/contracts/ceros/upgrades/HelioProviderV2.sol\":5972:5994  ChangeCeToken(ceToken) */\n      mload(0x40)\n      sub(shl(0xa0, 0x01), 0x01)\n        /* \"#utility.yul\":818:850   */\n      dup3\n      and\n        /* \"#utility.yul\":800:851   */\n      dup2\n      mstore\n        /* \"Heliocontracts/contracts/ceros/upgrades/HelioProviderV2.sol\":5972:5994  ChangeCeToken(ceToken) */\n      0x1c51d83fbf878c22f78dd72bd5f93a9adfa124683a91b2ad431f10c9ff731db4\n      swap1\n        /* \"#utility.yul\":788:790   */\n      0x20\n        /* \"#utility.yul\":773:791   */\n      add\n        /* \"Heliocontracts/contracts/ceros/upgrades/HelioProviderV2.sol\":5972:5994  ChangeCeToken(ceToken) */\n      tag_220\n        /* \"#utility.yul\":633:857   */\n      jump\n        /* \"Heliocontracts/contracts/ceros/upgrades/HelioProviderV2.sol\":6676:6846  function changeLiquidationStrategy(address strategy) external onlyOwner {... */\n    tag_83:\n        /* \"@openzeppelin/contracts-upgradeable/access/OwnableUpgradeable.sol\":1334:1347  _checkOwner() */\n      tag_254\n        /* \"@openzeppelin/contracts-upgradeable/access/OwnableUpgradeable.sol\":1334:1345  _checkOwner */\n      tag_218\n        /* \"@openzeppelin/contracts-upgradeable/access/OwnableUpgradeable.sol\":1334:1347  _checkOwner() */\n      jump\t// in\n    tag_254:\n        /* \"Heliocontracts/contracts/ceros/upgrades/HelioProviderV2.sol\":6758:6778  _liquidationStrategy */\n      0xd1\n        /* \"Heliocontracts/contracts/ceros/upgrades/HelioProviderV2.sol\":6758:6789  _liquidationStrategy = strategy */\n      dup1\n      sload\n      not(sub(shl(0xa0, 0x01), 0x01))\n      and\n      sub(shl(0xa0, 0x01), 0x01)\n      dup4\n      and\n      swap1\n      dup2\n      or\n      swap1\n      swap2\n      sstore\n        /* \"Heliocontracts/contracts/ceros/upgrades/HelioProviderV2.sol\":6804:6839  ChangeLiquidationStrategy(strategy) */\n      mload(0x40)\n        /* \"#utility.yul\":800:851   */\n      swap1\n      dup2\n      mstore\n        /* \"Heliocontracts/contracts/ceros/upgrades/HelioProviderV2.sol\":6804:6839  ChangeLiquidationStrategy(strategy) */\n      0x040f8685967d0ec7d53fddb0553facb607289a63d5ef53432b9e19f3ea40f507\n      swap1\n        /* \"#utility.yul\":788:790   */\n      0x20\n        /* \"#utility.yul\":773:791   */\n      add\n        /* \"Heliocontracts/contracts/ceros/upgrades/HelioProviderV2.sol\":6804:6839  ChangeLiquidationStrategy(strategy) */\n      tag_220\n        /* \"#utility.yul\":633:857   */\n      jump\n        /* \"Heliocontracts/contracts/ceros/upgrades/HelioProviderV2.sol\":4053:4447  function liquidation(address recipient, uint256 amount)... */\n    tag_102:\n        /* \"@openzeppelin/contracts-upgradeable/access/OwnableUpgradeable.sol\":1513:1519  _owner */\n      and(sub(shl(0xa0, 0x01), 0x01), sload(0x33))\n        /* \"Heliocontracts/contracts/ceros/upgrades/HelioProviderV2.sol\":1251:1261  msg.sender */\n      caller\n        /* \"Heliocontracts/contracts/ceros/upgrades/HelioProviderV2.sol\":1251:1272  msg.sender == owner() */\n      eq\n      dup1\n        /* \"Heliocontracts/contracts/ceros/upgrades/HelioProviderV2.sol\":1251:1296  msg.sender == owner() || msg.sender == _proxy */\n      tag_260\n      jumpi\n      pop\n        /* \"Heliocontracts/contracts/ceros/upgrades/HelioProviderV2.sol\":1290:1296  _proxy */\n      and(sub(shl(0xa0, 0x01), 0x01), sload(0xd0))\n        /* \"Heliocontracts/contracts/ceros/upgrades/HelioProviderV2.sol\":1276:1286  msg.sender */\n      caller\n        /* \"Heliocontracts/contracts/ceros/upgrades/HelioProviderV2.sol\":1276:1296  msg.sender == _proxy */\n      eq\n        /* \"Heliocontracts/contracts/ceros/upgrades/HelioProviderV2.sol\":1251:1296  msg.sender == owner() || msg.sender == _proxy */\n    tag_260:\n        /* \"Heliocontracts/contracts/ceros/upgrades/HelioProviderV2.sol\":1230:1347  require(... */\n      tag_261\n      jumpi\n      mload(0x40)\n      shl(0xe5, 0x461bcd)\n      dup2\n      mstore\n      0x04\n      add\n      tag_180\n      swap1\n      tag_206\n      jump\t// in\n    tag_261:\n        /* \"@openzeppelin/contracts-upgradeable/security/PausableUpgradeable.sol\":1482:1501  _requireNotPaused() */\n      tag_264\n        /* \"@openzeppelin/contracts-upgradeable/security/PausableUpgradeable.sol\":1482:1499  _requireNotPaused */\n      tag_177\n        /* \"@openzeppelin/contracts-upgradeable/security/PausableUpgradeable.sol\":1482:1501  _requireNotPaused() */\n      jump\t// in\n    tag_264:\n        /* \"@openzeppelin/contracts-upgradeable/security/ReentrancyGuardUpgradeable.sol\":1815:1816  2 */\n      0x02\n        /* \"@openzeppelin/contracts-upgradeable/security/ReentrancyGuardUpgradeable.sol\":2569:2576  _status */\n      sload(0x97)\n        /* \"@openzeppelin/contracts-upgradeable/security/ReentrancyGuardUpgradeable.sol\":2569:2588  _status != _ENTERED */\n      eq\n      iszero\n        /* \"@openzeppelin/contracts-upgradeable/security/ReentrancyGuardUpgradeable.sol\":2561:2624  require(_status != _ENTERED, \"ReentrancyGuard: reentrant call\") */\n      tag_266\n      jumpi\n      mload(0x40)\n      shl(0xe5, 0x461bcd)\n      dup2\n      mstore\n      0x04\n      add\n      tag_180\n      swap1\n      tag_181\n      jump\t// in\n    tag_266:\n        /* \"@openzeppelin/contracts-upgradeable/security/ReentrancyGuardUpgradeable.sol\":1815:1816  2 */\n      0x02\n        /* \"@openzeppelin/contracts-upgradeable/security/ReentrancyGuardUpgradeable.sol\":2699:2706  _status */\n      0x97\n        /* \"@openzeppelin/contracts-upgradeable/security/ReentrancyGuardUpgradeable.sol\":2699:2717  _status = _ENTERED */\n      sstore\n      sub(shl(0xa0, 0x01), 0x01)\n        /* \"Heliocontracts/contracts/ceros/upgrades/HelioProviderV2.sol\":4206:4229  recipient != address(0) */\n      dup3\n      and\n        /* \"Heliocontracts/contracts/ceros/upgrades/HelioProviderV2.sol\":4198:4230  require(recipient != address(0)) */\n      tag_269\n      jumpi\n      0x00\n      dup1\n      revert\n    tag_269:\n        /* \"Heliocontracts/contracts/ceros/upgrades/HelioProviderV2.sol\":4296:4308  _masterVault */\n      sload(0xcd)\n        /* \"Heliocontracts/contracts/ceros/upgrades/HelioProviderV2.sol\":4337:4357  _liquidationStrategy */\n      sload(0xd1)\n        /* \"Heliocontracts/contracts/ceros/upgrades/HelioProviderV2.sol\":4296:4377  _masterVault.withdrawInTokenFromStrategy(_liquidationStrategy, recipient, amount) */\n      mload(0x40)\n      shl(0xe5, 0x01f3b143)\n      dup2\n      mstore\n      sub(shl(0xa0, 0x01), 0x01)\n        /* \"Heliocontracts/contracts/ceros/upgrades/HelioProviderV2.sol\":4296:4308  _masterVault */\n      swap3\n      dup4\n      and\n      swap3\n        /* \"Heliocontracts/contracts/ceros/upgrades/HelioProviderV2.sol\":4296:4336  _masterVault.withdrawInTokenFromStrategy */\n      0x3e762860\n      swap3\n        /* \"Heliocontracts/contracts/ceros/upgrades/HelioProviderV2.sol\":4296:4377  _masterVault.withdrawInTokenFromStrategy(_liquidationStrategy, recipient, amount) */\n      tag_270\n      swap3\n        /* \"Heliocontracts/contracts/ceros/upgrades/HelioProviderV2.sol\":4337:4357  _liquidationStrategy */\n      swap2\n      and\n      swap1\n        /* \"Heliocontracts/contracts/ceros/upgrades/HelioProviderV2.sol\":4359:4368  recipient */\n      dup7\n      swap1\n        /* \"Heliocontracts/contracts/ceros/upgrades/HelioProviderV2.sol\":4370:4376  amount */\n      dup7\n      swap1\n        /* \"Heliocontracts/contracts/ceros/upgrades/HelioProviderV2.sol\":4296:4377  _masterVault.withdrawInTokenFromStrategy(_liquidationStrategy, recipient, amount) */\n      0x04\n      add\n      tag_234\n      jump\t// in\n    tag_270:\n      0x20\n      mload(0x40)\n      dup1\n      dup4\n      sub\n      dup2\n      0x00\n      dup8\n      gas\n      call\n      iszero\n      dup1\n      iszero\n      tag_272\n      jumpi\n      returndatasize\n      0x00\n      dup1\n      returndatacopy\n      revert(0x00, returndatasize)\n    tag_272:\n      pop\n      pop\n      pop\n      pop\n      mload(0x40)\n      returndatasize\n      not(0x1f)\n      0x1f\n      dup3\n      add\n      and\n      dup3\n      add\n      dup1\n      0x40\n      mstore\n      pop\n      dup2\n      add\n      swap1\n      tag_273\n      swap2\n      swap1\n      tag_187\n      jump\t// in\n    tag_273:\n      pop\n        /* \"Heliocontracts/contracts/ceros/upgrades/HelioProviderV2.sol\":4392:4440  WithdrawalInToken(msg.sender, recipient, amount) */\n      mload(0x40)\n        /* \"#utility.yul\":597:622   */\n      dup2\n      dup2\n      mstore\n      sub(shl(0xa0, 0x01), 0x01)\n        /* \"Heliocontracts/contracts/ceros/upgrades/HelioProviderV2.sol\":4392:4440  WithdrawalInToken(msg.sender, recipient, amount) */\n      dup4\n      and\n      swap1\n        /* \"Heliocontracts/contracts/ceros/upgrades/HelioProviderV2.sol\":4410:4420  msg.sender */\n      caller\n      swap1\n        /* \"Heliocontracts/contracts/ceros/upgrades/HelioProviderV2.sol\":4392:4440  WithdrawalInToken(msg.sender, recipient, amount) */\n      0x695aa78ae24e967a966877abedf194857bfa20d094e27d7c2e88d403543f9259\n      swap1\n        /* \"#utility.yul\":585:587   */\n      0x20\n        /* \"#utility.yul\":570:588   */\n      add\n        /* \"Heliocontracts/contracts/ceros/upgrades/HelioProviderV2.sol\":4392:4440  WithdrawalInToken(msg.sender, recipient, amount) */\n      mload(0x40)\n      dup1\n      swap2\n      sub\n      swap1\n      log3\n      pop\n      pop\n        /* \"@openzeppelin/contracts-upgradeable/security/ReentrancyGuardUpgradeable.sol\":1772:1773  1 */\n      0x01\n        /* \"@openzeppelin/contracts-upgradeable/security/ReentrancyGuardUpgradeable.sol\":2872:2879  _status */\n      0x97\n        /* \"@openzeppelin/contracts-upgradeable/security/ReentrancyGuardUpgradeable.sol\":2872:2894  _status = _NOT_ENTERED */\n      sstore\n        /* \"Heliocontracts/contracts/ceros/upgrades/HelioProviderV2.sol\":4053:4447  function liquidation(address recipient, uint256 amount)... */\n      jump\t// out\n        /* \"@openzeppelin/contracts-upgradeable/access/OwnableUpgradeable.sol\":2071:2172  function renounceOwnership() public virtual onlyOwner {... */\n    tag_109:\n        /* \"@openzeppelin/contracts-upgradeable/access/OwnableUpgradeable.sol\":1334:1347  _checkOwner() */\n      tag_276\n        /* \"@openzeppelin/contracts-upgradeable/access/OwnableUpgradeable.sol\":1334:1345  _checkOwner */\n      tag_218\n        /* \"@openzeppelin/contracts-upgradeable/access/OwnableUpgradeable.sol\":1334:1347  _checkOwner() */\n      jump\t// in\n    tag_276:\n        /* \"@openzeppelin/contracts-upgradeable/access/OwnableUpgradeable.sol\":2135:2165  _transferOwnership(address(0)) */\n      tag_278\n        /* \"@openzeppelin/contracts-upgradeable/access/OwnableUpgradeable.sol\":2162:2163  0 */\n      0x00\n        /* \"@openzeppelin/contracts-upgradeable/access/OwnableUpgradeable.sol\":2135:2153  _transferOwnership */\n      tag_279\n        /* \"@openzeppelin/contracts-upgradeable/access/OwnableUpgradeable.sol\":2135:2165  _transferOwnership(address(0)) */\n      jump\t// in\n    tag_278:\n        /* \"@openzeppelin/contracts-upgradeable/access/OwnableUpgradeable.sol\":2071:2172  function renounceOwnership() public virtual onlyOwner {... */\n      jump\t// out\n        /* \"Heliocontracts/contracts/ceros/upgrades/HelioProviderV2.sol\":5330:5391  function pause() external onlyOwner {... */\n    tag_112:\n        /* \"@openzeppelin/contracts-upgradeable/access/OwnableUpgradeable.sol\":1334:1347  _checkOwner() */\n      tag_281\n        /* \"@openzeppelin/contracts-upgradeable/access/OwnableUpgradeable.sol\":1334:1345  _checkOwner */\n      tag_218\n        /* \"@openzeppelin/contracts-upgradeable/access/OwnableUpgradeable.sol\":1334:1347  _checkOwner() */\n      jump\t// in\n    tag_281:\n        /* \"Heliocontracts/contracts/ceros/upgrades/HelioProviderV2.sol\":5376:5384  _pause() */\n      tag_278\n        /* \"Heliocontracts/contracts/ceros/upgrades/HelioProviderV2.sol\":5376:5382  _pause */\n      tag_284\n        /* \"Heliocontracts/contracts/ceros/upgrades/HelioProviderV2.sol\":5376:5384  _pause() */\n      jump\t// in\n        /* \"Heliocontracts/contracts/ceros/upgrades/HelioProviderV2.sol\":1964:2307  function provide()... */\n    tag_122:\n        /* \"Heliocontracts/contracts/ceros/upgrades/HelioProviderV2.sol\":2069:2082  uint256 value */\n      0x00\n        /* \"@openzeppelin/contracts-upgradeable/security/PausableUpgradeable.sol\":1482:1501  _requireNotPaused() */\n      tag_287\n        /* \"@openzeppelin/contracts-upgradeable/security/PausableUpgradeable.sol\":1482:1499  _requireNotPaused */\n      tag_177\n        /* \"@openzeppelin/contracts-upgradeable/security/PausableUpgradeable.sol\":1482:1501  _requireNotPaused() */\n      jump\t// in\n    tag_287:\n        /* \"@openzeppelin/contracts-upgradeable/security/ReentrancyGuardUpgradeable.sol\":1815:1816  2 */\n      0x02\n        /* \"@openzeppelin/contracts-upgradeable/security/ReentrancyGuardUpgradeable.sol\":2569:2576  _status */\n      sload(0x97)\n        /* \"@openzeppelin/contracts-upgradeable/security/ReentrancyGuardUpgradeable.sol\":2569:2588  _status != _ENTERED */\n      eq\n      iszero\n        /* \"@openzeppelin/contracts-upgradeable/security/ReentrancyGuardUpgradeable.sol\":2561:2624  require(_status != _ENTERED, \"ReentrancyGuard: reentrant call\") */\n      tag_289\n      jumpi\n      mload(0x40)\n      shl(0xe5, 0x461bcd)\n      dup2\n      mstore\n      0x04\n      add\n      tag_180\n      swap1\n      tag_181\n      jump\t// in\n    tag_289:\n        /* \"@openzeppelin/contracts-upgradeable/security/ReentrancyGuardUpgradeable.sol\":1815:1816  2 */\n      0x02\n        /* \"@openzeppelin/contracts-upgradeable/security/ReentrancyGuardUpgradeable.sol\":2699:2706  _status */\n      0x97\n        /* \"@openzeppelin/contracts-upgradeable/security/ReentrancyGuardUpgradeable.sol\":2699:2717  _status = _ENTERED */\n      sstore\n        /* \"Heliocontracts/contracts/ceros/upgrades/HelioProviderV2.sol\":2106:2118  _masterVault */\n      sload(0xcd)\n        /* \"Heliocontracts/contracts/ceros/upgrades/HelioProviderV2.sol\":2106:2149  _masterVault.depositETH{value: msg.value}() */\n      0x40\n      dup1\n      mload\n      shl(0xe0, 0xf6326fb3)\n      dup2\n      mstore\n      swap1\n      mload\n      sub(shl(0xa0, 0x01), 0x01)\n        /* \"Heliocontracts/contracts/ceros/upgrades/HelioProviderV2.sol\":2106:2118  _masterVault */\n      swap1\n      swap3\n      and\n      swap2\n        /* \"Heliocontracts/contracts/ceros/upgrades/HelioProviderV2.sol\":2106:2129  _masterVault.depositETH */\n      0xf6326fb3\n      swap2\n        /* \"Heliocontracts/contracts/ceros/upgrades/HelioProviderV2.sol\":2137:2146  msg.value */\n      callvalue\n      swap2\n        /* \"Heliocontracts/contracts/ceros/upgrades/HelioProviderV2.sol\":2106:2149  _masterVault.depositETH{value: msg.value}() */\n      0x04\n      dup1\n      dup4\n      add\n      swap3\n      0x20\n      swap3\n      swap2\n      swap1\n      dup3\n      swap1\n      sub\n      add\n      dup2\n        /* \"Heliocontracts/contracts/ceros/upgrades/HelioProviderV2.sol\":2137:2146  msg.value */\n      dup6\n        /* \"Heliocontracts/contracts/ceros/upgrades/HelioProviderV2.sol\":2106:2118  _masterVault */\n      dup9\n        /* \"Heliocontracts/contracts/ceros/upgrades/HelioProviderV2.sol\":2106:2149  _masterVault.depositETH{value: msg.value}() */\n      gas\n      call\n      iszero\n      dup1\n      iszero\n      tag_293\n      jumpi\n      returndatasize\n      0x00\n      dup1\n      returndatacopy\n      revert(0x00, returndatasize)\n    tag_293:\n      pop\n      pop\n      pop\n      pop\n      pop\n      mload(0x40)\n      returndatasize\n      not(0x1f)\n      0x1f\n      dup3\n      add\n      and\n      dup3\n      add\n      dup1\n      0x40\n      mstore\n      pop\n      dup2\n      add\n      swap1\n      tag_294\n      swap2\n      swap1\n      tag_187\n      jump\t// in\n    tag_294:\n        /* \"Heliocontracts/contracts/ceros/upgrades/HelioProviderV2.sol\":2098:2149  value = _masterVault.depositETH{value: msg.value}() */\n      swap1\n      pop\n        /* \"Heliocontracts/contracts/ceros/upgrades/HelioProviderV2.sol\":2200:2237  _provideCollateral(msg.sender, value) */\n      tag_295\n        /* \"Heliocontracts/contracts/ceros/upgrades/HelioProviderV2.sol\":2219:2229  msg.sender */\n      caller\n        /* \"Heliocontracts/contracts/ceros/upgrades/HelioProviderV2.sol\":2231:2236  value */\n      dup3\n        /* \"Heliocontracts/contracts/ceros/upgrades/HelioProviderV2.sol\":2200:2218  _provideCollateral */\n      tag_296\n        /* \"Heliocontracts/contracts/ceros/upgrades/HelioProviderV2.sol\":2200:2237  _provideCollateral(msg.sender, value) */\n      jump\t// in\n    tag_295:\n        /* \"Heliocontracts/contracts/ceros/upgrades/HelioProviderV2.sol\":2252:2278  Deposit(msg.sender, value) */\n      mload(0x40)\n        /* \"#utility.yul\":597:622   */\n      dup2\n      dup2\n      mstore\n        /* \"Heliocontracts/contracts/ceros/upgrades/HelioProviderV2.sol\":2260:2270  msg.sender */\n      caller\n      swap1\n        /* \"Heliocontracts/contracts/ceros/upgrades/HelioProviderV2.sol\":2252:2278  Deposit(msg.sender, value) */\n      0xe1fffcc4923d04b559f4d29a8bfc6cda04eb5b0d3c460751c2402c5c5cc9109c\n      swap1\n        /* \"#utility.yul\":585:587   */\n      0x20\n        /* \"#utility.yul\":570:588   */\n      add\n        /* \"Heliocontracts/contracts/ceros/upgrades/HelioProviderV2.sol\":2252:2278  Deposit(msg.sender, value) */\n      mload(0x40)\n      dup1\n      swap2\n      sub\n      swap1\n      log2\n        /* \"@openzeppelin/contracts-upgradeable/security/ReentrancyGuardUpgradeable.sol\":1772:1773  1 */\n      0x01\n        /* \"@openzeppelin/contracts-upgradeable/security/ReentrancyGuardUpgradeable.sol\":2872:2879  _status */\n      0x97\n        /* \"@openzeppelin/contracts-upgradeable/security/ReentrancyGuardUpgradeable.sol\":2872:2894  _status = _NOT_ENTERED */\n      sstore\n        /* \"Heliocontracts/contracts/ceros/upgrades/HelioProviderV2.sol\":1964:2307  function provide()... */\n      swap1\n      jump\t// out\n        /* \"Heliocontracts/contracts/ceros/upgrades/HelioProviderV2.sol\":3851:4006  function balanceOfToken(address strategy) external view override returns(uint256) {... */\n    tag_127:\n        /* \"Heliocontracts/contracts/ceros/upgrades/HelioProviderV2.sol\":3950:3962  _masterVault */\n      sload(0xcd)\n        /* \"Heliocontracts/contracts/ceros/upgrades/HelioProviderV2.sol\":3950:3999  _masterVault.balanceOfTokenFromStrategy(strategy) */\n      mload(0x40)\n      shl(0xe0, 0x52412d49)\n      dup2\n      mstore\n      sub(shl(0xa0, 0x01), 0x01)\n        /* \"#utility.yul\":818:850   */\n      dup4\n      dup2\n      and\n        /* \"Heliocontracts/contracts/ceros/upgrades/HelioProviderV2.sol\":3950:3999  _masterVault.balanceOfTokenFromStrategy(strategy) */\n      0x04\n      dup4\n      add\n        /* \"#utility.yul\":800:851   */\n      mstore\n        /* \"Heliocontracts/contracts/ceros/upgrades/HelioProviderV2.sol\":3924:3931  uint256 */\n      0x00\n      swap3\n        /* \"Heliocontracts/contracts/ceros/upgrades/HelioProviderV2.sol\":3950:3962  _masterVault */\n      and\n      swap1\n        /* \"Heliocontracts/contracts/ceros/upgrades/HelioProviderV2.sol\":3950:3989  _masterVault.balanceOfTokenFromStrategy */\n      0x52412d49\n      swap1\n        /* \"#utility.yul\":773:791   */\n      0x24\n      add\n        /* \"Heliocontracts/contracts/ceros/upgrades/HelioProviderV2.sol\":3950:3999  _masterVault.balanceOfTokenFromStrategy(strategy) */\n      0x20\n      mload(0x40)\n      dup1\n      dup4\n      sub\n      dup2\n      dup7\n      gas\n      staticcall\n      iszero\n      dup1\n      iszero\n      tag_301\n      jumpi\n      returndatasize\n      0x00\n      dup1\n      returndatacopy\n      revert(0x00, returndatasize)\n    tag_301:\n      pop\n      pop\n      pop\n      pop\n      mload(0x40)\n      returndatasize\n      not(0x1f)\n      0x1f\n      dup3\n      add\n      and\n      dup3\n      add\n      dup1\n      0x40\n      mstore\n      pop\n      dup2\n      add\n      swap1\n      tag_302\n      swap2\n      swap1\n      tag_187\n      jump\t// in\n    tag_302:\n        /* \"Heliocontracts/contracts/ceros/upgrades/HelioProviderV2.sol\":3943:3999  return _masterVault.balanceOfTokenFromStrategy(strategy) */\n      swap3\n        /* \"Heliocontracts/contracts/ceros/upgrades/HelioProviderV2.sol\":3851:4006  function balanceOfToken(address strategy) external view override returns(uint256) {... */\n      swap2\n      pop\n      pop\n      jump\t// out\n        /* \"Heliocontracts/contracts/ceros/upgrades/HelioProviderV2.sol\":6006:6146  function changeProxy(address auctionProxy) external onlyOwner {... */\n    tag_132:\n        /* \"@openzeppelin/contracts-upgradeable/access/OwnableUpgradeable.sol\":1334:1347  _checkOwner() */\n      tag_304\n        /* \"@openzeppelin/contracts-upgradeable/access/OwnableUpgradeable.sol\":1334:1345  _checkOwner */\n      tag_218\n        /* \"@openzeppelin/contracts-upgradeable/access/OwnableUpgradeable.sol\":1334:1347  _checkOwner() */\n      jump\t// in\n    tag_304:\n        /* \"Heliocontracts/contracts/ceros/upgrades/HelioProviderV2.sol\":6078:6084  _proxy */\n      0xd0\n        /* \"Heliocontracts/contracts/ceros/upgrades/HelioProviderV2.sol\":6078:6099  _proxy = auctionProxy */\n      dup1\n      sload\n      not(sub(shl(0xa0, 0x01), 0x01))\n      and\n      sub(shl(0xa0, 0x01), 0x01)\n      dup4\n      and\n      swap1\n      dup2\n      or\n      swap1\n      swap2\n      sstore\n        /* \"Heliocontracts/contracts/ceros/upgrades/HelioProviderV2.sol\":6114:6139  ChangeProxy(auctionProxy) */\n      mload(0x40)\n        /* \"#utility.yul\":800:851   */\n      swap1\n      dup2\n      mstore\n        /* \"Heliocontracts/contracts/ceros/upgrades/HelioProviderV2.sol\":6114:6139  ChangeProxy(auctionProxy) */\n      0xcf16493c33f7a5001593c6b3158b6613c39a56bed7e2fe27f83a7ee297b6e32a\n      swap1\n        /* \"#utility.yul\":788:790   */\n      0x20\n        /* \"#utility.yul\":773:791   */\n      add\n        /* \"Heliocontracts/contracts/ceros/upgrades/HelioProviderV2.sol\":6114:6139  ChangeProxy(auctionProxy) */\n      tag_220\n        /* \"#utility.yul\":633:857   */\n      jump\n        /* \"Heliocontracts/contracts/ceros/upgrades/HelioProviderV2.sol\":5512:5745  function changeDao(address dao) external onlyOwner {... */\n    tag_144:\n        /* \"@openzeppelin/contracts-upgradeable/access/OwnableUpgradeable.sol\":1334:1347  _checkOwner() */\n      tag_308\n        /* \"@openzeppelin/contracts-upgradeable/access/OwnableUpgradeable.sol\":1334:1345  _checkOwner */\n      tag_218\n        /* \"@openzeppelin/contracts-upgradeable/access/OwnableUpgradeable.sol\":1334:1347  _checkOwner() */\n      jump\t// in\n    tag_308:\n        /* \"Heliocontracts/contracts/ceros/upgrades/HelioProviderV2.sol\":5580:5588  _ceToken */\n      sload(0xcb)\n        /* \"Heliocontracts/contracts/ceros/upgrades/HelioProviderV2.sol\":5606:5610  _dao */\n      sload(0xce)\n        /* \"Heliocontracts/contracts/ceros/upgrades/HelioProviderV2.sol\":5573:5615  IERC20(_ceToken).approve(address(_dao), 0) */\n      mload(0x40)\n      shl(0xe0, 0x095ea7b3)\n      dup2\n      mstore\n      sub(shl(0xa0, 0x01), 0x01)\n        /* \"Heliocontracts/contracts/ceros/upgrades/HelioProviderV2.sol\":5580:5588  _ceToken */\n      swap3\n      dup4\n      and\n      swap3\n        /* \"Heliocontracts/contracts/ceros/upgrades/HelioProviderV2.sol\":5573:5597  IERC20(_ceToken).approve */\n      0x095ea7b3\n      swap3\n        /* \"Heliocontracts/contracts/ceros/upgrades/HelioProviderV2.sol\":5573:5615  IERC20(_ceToken).approve(address(_dao), 0) */\n      tag_310\n      swap3\n        /* \"Heliocontracts/contracts/ceros/upgrades/HelioProviderV2.sol\":5606:5610  _dao */\n      swap2\n      and\n      swap1\n        /* \"Heliocontracts/contracts/ceros/upgrades/HelioProviderV2.sol\":5580:5588  _ceToken */\n      0x00\n      swap1\n        /* \"Heliocontracts/contracts/ceros/upgrades/HelioProviderV2.sol\":5573:5615  IERC20(_ceToken).approve(address(_dao), 0) */\n      0x04\n      add\n      tag_194\n      jump\t// in\n    tag_310:\n      0x20\n      mload(0x40)\n      dup1\n      dup4\n      sub\n      dup2\n      0x00\n      dup8\n      gas\n      call\n      iszero\n      dup1\n      iszero\n      tag_312\n      jumpi\n      returndatasize\n      0x00\n      dup1\n      returndatacopy\n      revert(0x00, returndatasize)\n    tag_312:\n      pop\n      pop\n      pop\n      pop\n      mload(0x40)\n      returndatasize\n      not(0x1f)\n      0x1f\n      dup3\n      add\n      and\n      dup3\n      add\n      dup1\n      0x40\n      mstore\n      pop\n      dup2\n      add\n      swap1\n      tag_313\n      swap2\n      swap1\n      tag_247\n      jump\t// in\n    tag_313:\n      pop\n        /* \"Heliocontracts/contracts/ceros/upgrades/HelioProviderV2.sol\":5625:5629  _dao */\n      0xce\n        /* \"Heliocontracts/contracts/ceros/upgrades/HelioProviderV2.sol\":5625:5641  _dao = IDao(dao) */\n      dup1\n      sload\n      not(sub(shl(0xa0, 0x01), 0x01))\n      and\n      sub(shl(0xa0, 0x01), 0x01)\n      dup4\n      dup2\n      and\n      swap2\n      dup3\n      or\n      swap1\n      swap3\n      sstore\n        /* \"Heliocontracts/contracts/ceros/upgrades/HelioProviderV2.sol\":5658:5666  _ceToken */\n      sload(0xcb)\n        /* \"Heliocontracts/contracts/ceros/upgrades/HelioProviderV2.sol\":5651:5709  IERC20(_ceToken).approve(address(_dao), type(uint256).max) */\n      mload(0x40)\n      shl(0xe0, 0x095ea7b3)\n      dup2\n      mstore\n        /* \"Heliocontracts/contracts/ceros/upgrades/HelioProviderV2.sol\":5658:5666  _ceToken */\n      swap3\n      and\n      swap2\n        /* \"Heliocontracts/contracts/ceros/upgrades/HelioProviderV2.sol\":5651:5675  IERC20(_ceToken).approve */\n      0x095ea7b3\n      swap2\n        /* \"Heliocontracts/contracts/ceros/upgrades/HelioProviderV2.sol\":5651:5709  IERC20(_ceToken).approve(address(_dao), type(uint256).max) */\n      tag_314\n      swap2\n      not(0x00)\n        /* \"Heliocontracts/contracts/ceros/upgrades/HelioProviderV2.sol\":5691:5708  type(uint256).max */\n      swap1\n        /* \"Heliocontracts/contracts/ceros/upgrades/HelioProviderV2.sol\":5651:5709  IERC20(_ceToken).approve(address(_dao), type(uint256).max) */\n      0x04\n      add\n      tag_194\n      jump\t// in\n    tag_314:\n      0x20\n      mload(0x40)\n      dup1\n      dup4\n      sub\n      dup2\n      0x00\n      dup8\n      gas\n      call\n      iszero\n      dup1\n      iszero\n      tag_316\n      jumpi\n      returndatasize\n      0x00\n      dup1\n      returndatacopy\n      revert(0x00, returndatasize)\n    tag_316:\n      pop\n      pop\n      pop\n      pop\n      mload(0x40)\n      returndatasize\n      not(0x1f)\n      0x1f\n      dup3\n      add\n      and\n      dup3\n      add\n      dup1\n      0x40\n      mstore\n      pop\n      dup2\n      add\n      swap1\n      tag_317\n      swap2\n      swap1\n      tag_247\n      jump\t// in\n    tag_317:\n      pop\n        /* \"Heliocontracts/contracts/ceros/upgrades/HelioProviderV2.sol\":5724:5738  ChangeDao(dao) */\n      mload(0x40)\n      sub(shl(0xa0, 0x01), 0x01)\n        /* \"#utility.yul\":818:850   */\n      dup3\n      and\n        /* \"#utility.yul\":800:851   */\n      dup2\n      mstore\n        /* \"Heliocontracts/contracts/ceros/upgrades/HelioProviderV2.sol\":5724:5738  ChangeDao(dao) */\n      0x31a1aa5f369c073ebb0b9d07b962961a2fcaf8ae160e6485f220450f9d7f8c53\n      swap1\n        /* \"#utility.yul\":788:790   */\n      0x20\n        /* \"#utility.yul\":773:791   */\n      add\n        /* \"Heliocontracts/contracts/ceros/upgrades/HelioProviderV2.sol\":5724:5738  ChangeDao(dao) */\n      tag_220\n        /* \"#utility.yul\":633:857   */\n      jump\n        /* \"Heliocontracts/contracts/ceros/upgrades/HelioProviderV2.sol\":4452:4674  function daoBurn(address account, uint256 value)... */\n    tag_148:\n        /* \"@openzeppelin/contracts-upgradeable/security/PausableUpgradeable.sol\":1482:1501  _requireNotPaused() */\n      tag_320\n        /* \"@openzeppelin/contracts-upgradeable/security/PausableUpgradeable.sol\":1482:1499  _requireNotPaused */\n      tag_177\n        /* \"@openzeppelin/contracts-upgradeable/security/PausableUpgradeable.sol\":1482:1501  _requireNotPaused() */\n      jump\t// in\n    tag_320:\n        /* \"@openzeppelin/contracts-upgradeable/access/OwnableUpgradeable.sol\":1513:1519  _owner */\n      and(sub(shl(0xa0, 0x01), 0x01), sload(0x33))\n        /* \"Heliocontracts/contracts/ceros/upgrades/HelioProviderV2.sol\":1251:1261  msg.sender */\n      caller\n        /* \"Heliocontracts/contracts/ceros/upgrades/HelioProviderV2.sol\":1251:1272  msg.sender == owner() */\n      eq\n      dup1\n        /* \"Heliocontracts/contracts/ceros/upgrades/HelioProviderV2.sol\":1251:1296  msg.sender == owner() || msg.sender == _proxy */\n      tag_323\n      jumpi\n      pop\n        /* \"Heliocontracts/contracts/ceros/upgrades/HelioProviderV2.sol\":1290:1296  _proxy */\n      and(sub(shl(0xa0, 0x01), 0x01), sload(0xd0))\n        /* \"Heliocontracts/contracts/ceros/upgrades/HelioProviderV2.sol\":1276:1286  msg.sender */\n      caller\n        /* \"Heliocontracts/contracts/ceros/upgrades/HelioProviderV2.sol\":1276:1296  msg.sender == _proxy */\n      eq\n        /* \"Heliocontracts/contracts/ceros/upgrades/HelioProviderV2.sol\":1251:1296  msg.sender == owner() || msg.sender == _proxy */\n    tag_323:\n        /* \"Heliocontracts/contracts/ceros/upgrades/HelioProviderV2.sol\":1230:1347  require(... */\n      tag_324\n      jumpi\n      mload(0x40)\n      shl(0xe5, 0x461bcd)\n      dup2\n      mstore\n      0x04\n      add\n      tag_180\n      swap1\n      tag_206\n      jump\t// in\n    tag_324:\n        /* \"@openzeppelin/contracts-upgradeable/security/ReentrancyGuardUpgradeable.sol\":1815:1816  2 */\n      0x02\n        /* \"@openzeppelin/contracts-upgradeable/security/ReentrancyGuardUpgradeable.sol\":2569:2576  _status */\n      sload(0x97)\n        /* \"@openzeppelin/contracts-upgradeable/security/ReentrancyGuardUpgradeable.sol\":2569:2588  _status != _ENTERED */\n      eq\n      iszero\n        /* \"@openzeppelin/contracts-upgradeable/security/ReentrancyGuardUpgradeable.sol\":2561:2624  require(_status != _ENTERED, \"ReentrancyGuard: reentrant call\") */\n      tag_327\n      jumpi\n      mload(0x40)\n      shl(0xe5, 0x461bcd)\n      dup2\n      mstore\n      0x04\n      add\n      tag_180\n      swap1\n      tag_181\n      jump\t// in\n    tag_327:\n        /* \"@openzeppelin/contracts-upgradeable/security/ReentrancyGuardUpgradeable.sol\":1815:1816  2 */\n      0x02\n        /* \"@openzeppelin/contracts-upgradeable/security/ReentrancyGuardUpgradeable.sol\":2699:2706  _status */\n      0x97\n        /* \"@openzeppelin/contracts-upgradeable/security/ReentrancyGuardUpgradeable.sol\":2699:2717  _status = _ENTERED */\n      sstore\n      sub(shl(0xa0, 0x01), 0x01)\n        /* \"Heliocontracts/contracts/ceros/upgrades/HelioProviderV2.sol\":4598:4619  account != address(0) */\n      dup3\n      and\n        /* \"Heliocontracts/contracts/ceros/upgrades/HelioProviderV2.sol\":4590:4620  require(account != address(0)) */\n      tag_330\n      jumpi\n      0x00\n      dup1\n      revert\n    tag_330:\n        /* \"Heliocontracts/contracts/ceros/upgrades/HelioProviderV2.sol\":4630:4646  _collateralToken */\n      sload(0xcc)\n        /* \"Heliocontracts/contracts/ceros/upgrades/HelioProviderV2.sol\":4630:4667  _collateralToken.burn(account, value) */\n      mload(0x40)\n      shl(0xe2, 0x2770a7eb)\n      dup2\n      mstore\n      sub(shl(0xa0, 0x01), 0x01)\n        /* \"Heliocontracts/contracts/ceros/upgrades/HelioProviderV2.sol\":4630:4646  _collateralToken */\n      swap1\n      swap2\n      and\n      swap1\n        /* \"Heliocontracts/contracts/ceros/upgrades/HelioProviderV2.sol\":4630:4651  _collateralToken.burn */\n      0x9dc29fac\n      swap1\n        /* \"Heliocontracts/contracts/ceros/upgrades/HelioProviderV2.sol\":4630:4667  _collateralToken.burn(account, value) */\n      tag_212\n      swap1\n        /* \"Heliocontracts/contracts/ceros/upgrades/HelioProviderV2.sol\":4652:4659  account */\n      dup6\n      swap1\n        /* \"Heliocontracts/contracts/ceros/upgrades/HelioProviderV2.sol\":4661:4666  value */\n      dup6\n      swap1\n        /* \"Heliocontracts/contracts/ceros/upgrades/HelioProviderV2.sol\":4630:4667  _collateralToken.burn(account, value) */\n      0x04\n      add\n      tag_194\n      jump\t// in\n        /* \"Heliocontracts/contracts/ceros/upgrades/HelioProviderV2.sol\":3586:3767  function estimateInToken(address strategy, uint256 amount) external view override returns(uint256) {... */\n    tag_157:\n        /* \"Heliocontracts/contracts/ceros/upgrades/HelioProviderV2.sol\":3702:3714  _masterVault */\n      sload(0xcd)\n        /* \"Heliocontracts/contracts/ceros/upgrades/HelioProviderV2.sol\":3702:3760  _masterVault.estimateInTokenFromStrategy(strategy, amount) */\n      mload(0x40)\n      shl(0xe2, 0x36507a2b)\n      dup2\n      mstore\n        /* \"Heliocontracts/contracts/ceros/upgrades/HelioProviderV2.sol\":3676:3683  uint256 */\n      0x00\n      swap2\n      sub(shl(0xa0, 0x01), 0x01)\n        /* \"Heliocontracts/contracts/ceros/upgrades/HelioProviderV2.sol\":3702:3714  _masterVault */\n      and\n      swap1\n        /* \"Heliocontracts/contracts/ceros/upgrades/HelioProviderV2.sol\":3702:3742  _masterVault.estimateInTokenFromStrategy */\n      0xd941e8ac\n      swap1\n        /* \"Heliocontracts/contracts/ceros/upgrades/HelioProviderV2.sol\":3702:3760  _masterVault.estimateInTokenFromStrategy(strategy, amount) */\n      tag_336\n      swap1\n        /* \"Heliocontracts/contracts/ceros/upgrades/HelioProviderV2.sol\":3743:3751  strategy */\n      dup7\n      swap1\n        /* \"Heliocontracts/contracts/ceros/upgrades/HelioProviderV2.sol\":3753:3759  amount */\n      dup7\n      swap1\n        /* \"Heliocontracts/contracts/ceros/upgrades/HelioProviderV2.sol\":3702:3760  _masterVault.estimateInTokenFromStrategy(strategy, amount) */\n      0x04\n      add\n      tag_194\n      jump\t// in\n    tag_336:\n      0x20\n      mload(0x40)\n      dup1\n      dup4\n      sub\n      dup2\n      dup7\n      gas\n      staticcall\n      iszero\n      dup1\n      iszero\n      tag_338\n      jumpi\n      returndatasize\n      0x00\n      dup1\n      returndatacopy\n      revert(0x00, returndatasize)\n    tag_338:\n      pop\n      pop\n      pop\n      pop\n      mload(0x40)\n      returndatasize\n      not(0x1f)\n      0x1f\n      dup3\n      add\n      and\n      dup3\n      add\n      dup1\n      0x40\n      mstore\n      pop\n      dup2\n      add\n      swap1\n      tag_339\n      swap2\n      swap1\n      tag_187\n      jump\t// in\n    tag_339:\n        /* \"Heliocontracts/contracts/ceros/upgrades/HelioProviderV2.sol\":3695:3760  return _masterVault.estimateInTokenFromStrategy(strategy, amount) */\n      swap4\n        /* \"Heliocontracts/contracts/ceros/upgrades/HelioProviderV2.sol\":3586:3767  function estimateInToken(address strategy, uint256 amount) external view override returns(uint256) {... */\n      swap3\n      pop\n      pop\n      pop\n      jump\t// out\n        /* \"@openzeppelin/contracts-upgradeable/access/OwnableUpgradeable.sol\":2321:2519  function transferOwnership(address newOwner) public virtual onlyOwner {... */\n    tag_162:\n        /* \"@openzeppelin/contracts-upgradeable/access/OwnableUpgradeable.sol\":1334:1347  _checkOwner() */\n      tag_341\n        /* \"@openzeppelin/contracts-upgradeable/access/OwnableUpgradeable.sol\":1334:1345  _checkOwner */\n      tag_218\n        /* \"@openzeppelin/contracts-upgradeable/access/OwnableUpgradeable.sol\":1334:1347  _checkOwner() */\n      jump\t// in\n    tag_341:\n      sub(shl(0xa0, 0x01), 0x01)\n        /* \"@openzeppelin/contracts-upgradeable/access/OwnableUpgradeable.sol\":2409:2431  newOwner != address(0) */\n      dup2\n      and\n        /* \"@openzeppelin/contracts-upgradeable/access/OwnableUpgradeable.sol\":2401:2474  require(newOwner != address(0), \"Ownable: new owner is the zero address\") */\n      tag_343\n      jumpi\n      mload(0x40)\n      shl(0xe5, 0x461bcd)\n      dup2\n      mstore\n        /* \"#utility.yul\":5627:5629   */\n      0x20\n        /* \"@openzeppelin/contracts-upgradeable/access/OwnableUpgradeable.sol\":2401:2474  require(newOwner != address(0), \"Ownable: new owner is the zero address\") */\n      0x04\n      dup3\n      add\n        /* \"#utility.yul\":5609:5630   */\n      mstore\n        /* \"#utility.yul\":5666:5668   */\n      0x26\n        /* \"#utility.yul\":5646:5664   */\n      0x24\n      dup3\n      add\n        /* \"#utility.yul\":5639:5669   */\n      mstore\n        /* \"#utility.yul\":5705:5739   */\n      0x4f776e61626c653a206e6577206f776e657220697320746865207a65726f2061\n        /* \"#utility.yul\":5685:5703   */\n      0x44\n      dup3\n      add\n        /* \"#utility.yul\":5678:5740   */\n      mstore\n      shl(0xd0, 0x646472657373)\n        /* \"#utility.yul\":5756:5774   */\n      0x64\n      dup3\n      add\n        /* \"#utility.yul\":5749:5785   */\n      mstore\n        /* \"#utility.yul\":5802:5821   */\n      0x84\n      add\n        /* \"@openzeppelin/contracts-upgradeable/access/OwnableUpgradeable.sol\":2401:2474  require(newOwner != address(0), \"Ownable: new owner is the zero address\") */\n      tag_180\n        /* \"#utility.yul\":5425:5827   */\n      jump\n        /* \"@openzeppelin/contracts-upgradeable/access/OwnableUpgradeable.sol\":2401:2474  require(newOwner != address(0), \"Ownable: new owner is the zero address\") */\n    tag_343:\n        /* \"@openzeppelin/contracts-upgradeable/access/OwnableUpgradeable.sol\":2484:2512  _transferOwnership(newOwner) */\n      tag_346\n        /* \"@openzeppelin/contracts-upgradeable/access/OwnableUpgradeable.sol\":2503:2511  newOwner */\n      dup2\n        /* \"@openzeppelin/contracts-upgradeable/access/OwnableUpgradeable.sol\":2484:2502  _transferOwnership */\n      tag_279\n        /* \"@openzeppelin/contracts-upgradeable/access/OwnableUpgradeable.sol\":2484:2512  _transferOwnership(newOwner) */\n      jump\t// in\n    tag_346:\n        /* \"@openzeppelin/contracts-upgradeable/access/OwnableUpgradeable.sol\":2321:2519  function transferOwnership(address newOwner) public virtual onlyOwner {... */\n      pop\n      jump\t// out\n        /* \"Heliocontracts/contracts/ceros/upgrades/HelioProviderV2.sol\":5396:5461  function unPause() external onlyOwner {... */\n    tag_165:\n        /* \"@openzeppelin/contracts-upgradeable/access/OwnableUpgradeable.sol\":1334:1347  _checkOwner() */\n      tag_348\n        /* \"@openzeppelin/contracts-upgradeable/access/OwnableUpgradeable.sol\":1334:1345  _checkOwner */\n      tag_218\n        /* \"@openzeppelin/contracts-upgradeable/access/OwnableUpgradeable.sol\":1334:1347  _checkOwner() */\n      jump\t// in\n    tag_348:\n        /* \"Heliocontracts/contracts/ceros/upgrades/HelioProviderV2.sol\":5444:5454  _unpause() */\n      tag_278\n        /* \"Heliocontracts/contracts/ceros/upgrades/HelioProviderV2.sol\":5444:5452  _unpause */\n      tag_351\n        /* \"Heliocontracts/contracts/ceros/upgrades/HelioProviderV2.sol\":5444:5454  _unpause() */\n      jump\t// in\n        /* \"Heliocontracts/contracts/ceros/upgrades/HelioProviderV2.sol\":1370:1928  function initialize(... */\n    tag_170:\n        /* \"@openzeppelin/contracts-upgradeable/proxy/utils/Initializable.sol\":3111:3130  bool isTopLevelCall */\n      0x00\n        /* \"@openzeppelin/contracts-upgradeable/proxy/utils/Initializable.sol\":3134:3147  _initializing */\n      sload\n      0x0100\n      swap1\n      div\n      0xff\n      and\n        /* \"@openzeppelin/contracts-upgradeable/proxy/utils/Initializable.sol\":3133:3147  !_initializing */\n      iszero\n      dup1\n        /* \"@openzeppelin/contracts-upgradeable/proxy/utils/Initializable.sol\":3179:3213  isTopLevelCall && _initialized < 1 */\n      dup1\n      iszero\n      tag_353\n      jumpi\n      pop\n        /* \"@openzeppelin/contracts-upgradeable/proxy/utils/Initializable.sol\":3197:3209  _initialized */\n      sload(0x00)\n        /* \"@openzeppelin/contracts-upgradeable/proxy/utils/Initializable.sol\":3212:3213  1 */\n      0x01\n        /* \"@openzeppelin/contracts-upgradeable/proxy/utils/Initializable.sol\":3197:3209  _initialized */\n      0xff\n      swap1\n      swap2\n      and\n        /* \"@openzeppelin/contracts-upgradeable/proxy/utils/Initializable.sol\":3197:3213  _initialized < 1 */\n      lt\n        /* \"@openzeppelin/contracts-upgradeable/proxy/utils/Initializable.sol\":3179:3213  isTopLevelCall && _initialized < 1 */\n    tag_353:\n        /* \"@openzeppelin/contracts-upgradeable/proxy/utils/Initializable.sol\":3178:3286  (isTopLevelCall && _initialized < 1) || (!AddressUpgradeable.isContract(address(this)) && _initialized == 1) */\n      dup1\n      tag_357\n      jumpi\n      pop\n        /* \"@openzeppelin/contracts-upgradeable/proxy/utils/Initializable.sol\":3258:3262  this */\n      address\n        /* \"@openzeppelin/contracts-upgradeable/utils/AddressUpgradeable.sol\":1476:1495  account.code.length */\n      extcodesize\n        /* \"@openzeppelin/contracts-upgradeable/utils/AddressUpgradeable.sol\":1476:1499  account.code.length > 0 */\n      iszero\n      dup1\n      iszero\n        /* \"@openzeppelin/contracts-upgradeable/proxy/utils/Initializable.sol\":3219:3285  !AddressUpgradeable.isContract(address(this)) && _initialized == 1 */\n      tag_357\n      jumpi\n      pop\n        /* \"@openzeppelin/contracts-upgradeable/proxy/utils/Initializable.sol\":3268:3280  _initialized */\n      and(0xff, sload(0x00))\n      0x01\n        /* \"@openzeppelin/contracts-upgradeable/proxy/utils/Initializable.sol\":3268:3285  _initialized == 1 */\n      eq\n        /* \"@openzeppelin/contracts-upgradeable/proxy/utils/Initializable.sol\":3219:3285  !AddressUpgradeable.isContract(address(this)) && _initialized == 1 */\n    tag_357:\n        /* \"@openzeppelin/contracts-upgradeable/proxy/utils/Initializable.sol\":3157:3358  require(... */\n      tag_358\n      jumpi\n      mload(0x40)\n      shl(0xe5, 0x461bcd)\n      dup2\n      mstore\n        /* \"#utility.yul\":6034:6036   */\n      0x20\n        /* \"@openzeppelin/contracts-upgradeable/proxy/utils/Initializable.sol\":3157:3358  require(... */\n      0x04\n      dup3\n      add\n        /* \"#utility.yul\":6016:6037   */\n      mstore\n        /* \"#utility.yul\":6073:6075   */\n      0x2e\n        /* \"#utility.yul\":6053:6071   */\n      0x24\n      dup3\n      add\n        /* \"#utility.yul\":6046:6076   */\n      mstore\n        /* \"#utility.yul\":6112:6146   */\n      0x496e697469616c697a61626c653a20636f6e747261637420697320616c726561\n        /* \"#utility.yul\":6092:6110   */\n      0x44\n      dup3\n      add\n        /* \"#utility.yul\":6085:6147   */\n      mstore\n      shl(0x92, 0x191e481a5b9a5d1a585b1a5e9959)\n        /* \"#utility.yul\":6163:6181   */\n      0x64\n      dup3\n      add\n        /* \"#utility.yul\":6156:6200   */\n      mstore\n        /* \"#utility.yul\":6217:6236   */\n      0x84\n      add\n        /* \"@openzeppelin/contracts-upgradeable/proxy/utils/Initializable.sol\":3157:3358  require(... */\n      tag_180\n        /* \"#utility.yul\":5832:6242   */\n      jump\n        /* \"@openzeppelin/contracts-upgradeable/proxy/utils/Initializable.sol\":3157:3358  require(... */\n    tag_358:\n        /* \"@openzeppelin/contracts-upgradeable/proxy/utils/Initializable.sol\":3368:3380  _initialized */\n      0x00\n        /* \"@openzeppelin/contracts-upgradeable/proxy/utils/Initializable.sol\":3368:3384  _initialized = 1 */\n      dup1\n      sload\n      not(0xff)\n      and\n        /* \"@openzeppelin/contracts-upgradeable/proxy/utils/Initializable.sol\":3383:3384  1 */\n      0x01\n        /* \"@openzeppelin/contracts-upgradeable/proxy/utils/Initializable.sol\":3368:3384  _initialized = 1 */\n      or\n      swap1\n      sstore\n        /* \"@openzeppelin/contracts-upgradeable/proxy/utils/Initializable.sol\":3394:3459  if (isTopLevelCall) {... */\n      dup1\n      iszero\n      tag_361\n      jumpi\n        /* \"@openzeppelin/contracts-upgradeable/proxy/utils/Initializable.sol\":3428:3441  _initializing */\n      0x00\n        /* \"@openzeppelin/contracts-upgradeable/proxy/utils/Initializable.sol\":3428:3448  _initializing = true */\n      dup1\n      sload\n      not(0xff00)\n      and\n      0x0100\n      or\n      swap1\n      sstore\n        /* \"@openzeppelin/contracts-upgradeable/proxy/utils/Initializable.sol\":3394:3459  if (isTopLevelCall) {... */\n    tag_361:\n        /* \"Heliocontracts/contracts/ceros/upgrades/HelioProviderV2.sol\":1540:1556  __Ownable_init() */\n      tag_363\n        /* \"Heliocontracts/contracts/ceros/upgrades/HelioProviderV2.sol\":1540:1554  __Ownable_init */\n      tag_364\n        /* \"Heliocontracts/contracts/ceros/upgrades/HelioProviderV2.sol\":1540:1556  __Ownable_init() */\n      jump\t// in\n    tag_363:\n        /* \"Heliocontracts/contracts/ceros/upgrades/HelioProviderV2.sol\":1566:1583  __Pausable_init() */\n      tag_365\n        /* \"Heliocontracts/contracts/ceros/upgrades/HelioProviderV2.sol\":1566:1581  __Pausable_init */\n      tag_366\n        /* \"Heliocontracts/contracts/ceros/upgrades/HelioProviderV2.sol\":1566:1583  __Pausable_init() */\n      jump\t// in\n    tag_365:\n        /* \"Heliocontracts/contracts/ceros/upgrades/HelioProviderV2.sol\":1593:1617  __ReentrancyGuard_init() */\n      tag_367\n        /* \"Heliocontracts/contracts/ceros/upgrades/HelioProviderV2.sol\":1593:1615  __ReentrancyGuard_init */\n      tag_368\n        /* \"Heliocontracts/contracts/ceros/upgrades/HelioProviderV2.sol\":1593:1617  __ReentrancyGuard_init() */\n      jump\t// in\n    tag_367:\n        /* \"Heliocontracts/contracts/ceros/upgrades/HelioProviderV2.sol\":1627:1643  _collateralToken */\n      0xcc\n        /* \"Heliocontracts/contracts/ceros/upgrades/HelioProviderV2.sol\":1627:1673  _collateralToken = ICertToken(collateralToken) */\n      dup1\n      sload\n      sub(shl(0xa0, 0x01), 0x01)\n      dup1\n      dup9\n      and\n      not(sub(shl(0xa0, 0x01), 0x01))\n      swap3\n      dup4\n      and\n      or\n      swap1\n      swap3\n      sstore\n        /* \"Heliocontracts/contracts/ceros/upgrades/HelioProviderV2.sol\":1718:1726  _ceToken */\n      0xcb\n        /* \"Heliocontracts/contracts/ceros/upgrades/HelioProviderV2.sol\":1718:1736  _ceToken = ceToken */\n      dup1\n      sload\n      dup7\n      dup5\n      and\n      swap1\n      dup4\n      and\n      dup2\n      or\n      swap1\n      swap2\n      sstore\n        /* \"Heliocontracts/contracts/ceros/upgrades/HelioProviderV2.sol\":1746:1758  _masterVault */\n      0xcd\n        /* \"Heliocontracts/contracts/ceros/upgrades/HelioProviderV2.sol\":1746:1786  _masterVault = IMasterVault(masterVault) */\n      dup1\n      sload\n      dup9\n      dup6\n      and\n      swap1\n      dup5\n      and\n      or\n      swap1\n      sstore\n        /* \"Heliocontracts/contracts/ceros/upgrades/HelioProviderV2.sol\":1796:1800  _dao */\n      0xce\n        /* \"Heliocontracts/contracts/ceros/upgrades/HelioProviderV2.sol\":1796:1819  _dao = IDao(daoAddress) */\n      dup1\n      sload\n      swap4\n      dup7\n      and\n      swap4\n      swap1\n      swap3\n      and\n      swap3\n      swap1\n      swap3\n      or\n      swap1\n      sstore\n        /* \"Heliocontracts/contracts/ceros/upgrades/HelioProviderV2.sol\":1866:1921  IERC20(_ceToken).approve(daoAddress, type(uint256).max) */\n      mload(0x40)\n      shl(0xe0, 0x095ea7b3)\n      dup2\n      mstore\n        /* \"Heliocontracts/contracts/ceros/upgrades/HelioProviderV2.sol\":1866:1890  IERC20(_ceToken).approve */\n      0x095ea7b3\n      swap1\n        /* \"Heliocontracts/contracts/ceros/upgrades/HelioProviderV2.sol\":1866:1921  IERC20(_ceToken).approve(daoAddress, type(uint256).max) */\n      tag_369\n      swap1\n        /* \"Heliocontracts/contracts/ceros/upgrades/HelioProviderV2.sol\":1808:1818  daoAddress */\n      dup6\n      swap1\n      not(0x00)\n      swap1\n        /* \"Heliocontracts/contracts/ceros/upgrades/HelioProviderV2.sol\":1866:1921  IERC20(_ceToken).approve(daoAddress, type(uint256).max) */\n      0x04\n      add\n      tag_194\n      jump\t// in\n    tag_369:\n      0x20\n      mload(0x40)\n      dup1\n      dup4\n      sub\n      dup2\n      0x00\n      dup8\n      gas\n      call\n      iszero\n      dup1\n      iszero\n      tag_371\n      jumpi\n      returndatasize\n      0x00\n      dup1\n      returndatacopy\n      revert(0x00, returndatasize)\n    tag_371:\n      pop\n      pop\n      pop\n      pop\n      mload(0x40)\n      returndatasize\n      not(0x1f)\n      0x1f\n      dup3\n      add\n      and\n      dup3\n      add\n      dup1\n      0x40\n      mstore\n      pop\n      dup2\n      add\n      swap1\n      tag_372\n      swap2\n      swap1\n      tag_247\n      jump\t// in\n    tag_372:\n      pop\n        /* \"@openzeppelin/contracts-upgradeable/proxy/utils/Initializable.sol\":3483:3497  isTopLevelCall */\n      dup1\n        /* \"@openzeppelin/contracts-upgradeable/proxy/utils/Initializable.sol\":3479:3578  if (isTopLevelCall) {... */\n      iszero\n      tag_373\n      jumpi\n        /* \"@openzeppelin/contracts-upgradeable/proxy/utils/Initializable.sol\":3529:3534  false */\n      0x00\n        /* \"@openzeppelin/contracts-upgradeable/proxy/utils/Initializable.sol\":3513:3534  _initializing = false */\n      dup1\n      sload\n      not(0xff00)\n      and\n      swap1\n      sstore\n        /* \"@openzeppelin/contracts-upgradeable/proxy/utils/Initializable.sol\":3553:3567  Initialized(1) */\n      mload(0x40)\n      0x01\n        /* \"#utility.yul\":6399:6435   */\n      dup2\n      mstore\n        /* \"@openzeppelin/contracts-upgradeable/proxy/utils/Initializable.sol\":3553:3567  Initialized(1) */\n      0x7f26b83ff96e1f2b6a682f133852f6798a09c465da95921460cefb3847402498\n      swap1\n        /* \"#utility.yul\":6387:6389   */\n      0x20\n        /* \"#utility.yul\":6372:6390   */\n      add\n        /* \"@openzeppelin/contracts-upgradeable/proxy/utils/Initializable.sol\":3553:3567  Initialized(1) */\n      mload(0x40)\n      dup1\n      swap2\n      sub\n      swap1\n      log1\n        /* \"@openzeppelin/contracts-upgradeable/proxy/utils/Initializable.sol\":3479:3578  if (isTopLevelCall) {... */\n    tag_373:\n        /* \"@openzeppelin/contracts-upgradeable/proxy/utils/Initializable.sol\":3101:3584  {... */\n      pop\n        /* \"Heliocontracts/contracts/ceros/upgrades/HelioProviderV2.sol\":1370:1928  function initialize(... */\n      pop\n      pop\n      pop\n      pop\n      jump\t// out\n        /* \"Heliocontracts/contracts/ceros/upgrades/HelioProviderV2.sol\":6347:6516  function changeMasterVault(address masterVault) external onlyOwner {... */\n    tag_174:\n        /* \"@openzeppelin/contracts-upgradeable/access/OwnableUpgradeable.sol\":1334:1347  _checkOwner() */\n      tag_377\n        /* \"@openzeppelin/contracts-upgradeable/access/OwnableUpgradeable.sol\":1334:1345  _checkOwner */\n      tag_218\n        /* \"@openzeppelin/contracts-upgradeable/access/OwnableUpgradeable.sol\":1334:1347  _checkOwner() */\n      jump\t// in\n    tag_377:\n        /* \"Heliocontracts/contracts/ceros/upgrades/HelioProviderV2.sol\":6424:6436  _masterVault */\n      0xcd\n        /* \"Heliocontracts/contracts/ceros/upgrades/HelioProviderV2.sol\":6424:6464  _masterVault = IMasterVault(masterVault) */\n      dup1\n      sload\n      not(sub(shl(0xa0, 0x01), 0x01))\n      and\n      sub(shl(0xa0, 0x01), 0x01)\n      dup4\n      and\n      swap1\n      dup2\n      or\n      swap1\n      swap2\n      sstore\n        /* \"Heliocontracts/contracts/ceros/upgrades/HelioProviderV2.sol\":6479:6509  ChangeMasterVault(masterVault) */\n      mload(0x40)\n        /* \"#utility.yul\":800:851   */\n      swap1\n      dup2\n      mstore\n        /* \"Heliocontracts/contracts/ceros/upgrades/HelioProviderV2.sol\":6479:6509  ChangeMasterVault(masterVault) */\n      0x2275a26cd5ce1dd1762303deec2666d22e1ffaa76311b9bc3617deb131585711\n      swap1\n        /* \"#utility.yul\":788:790   */\n      0x20\n        /* \"#utility.yul\":773:791   */\n      add\n        /* \"Heliocontracts/contracts/ceros/upgrades/HelioProviderV2.sol\":6479:6509  ChangeMasterVault(masterVault) */\n      tag_220\n        /* \"#utility.yul\":633:857   */\n      jump\n        /* \"@openzeppelin/contracts-upgradeable/security/PausableUpgradeable.sol\":2010:2116  function _requireNotPaused() internal view virtual {... */\n    tag_177:\n        /* \"@openzeppelin/contracts-upgradeable/security/PausableUpgradeable.sol\":1928:1935  _paused */\n      and(0xff, sload(0x65))\n        /* \"@openzeppelin/contracts-upgradeable/security/PausableUpgradeable.sol\":2079:2088  !paused() */\n      iszero\n        /* \"@openzeppelin/contracts-upgradeable/security/PausableUpgradeable.sol\":2071:2109  require(!paused(), \"Pausable: paused\") */\n      tag_278\n      jumpi\n      mload(0x40)\n      shl(0xe5, 0x461bcd)\n      dup2\n      mstore\n        /* \"#utility.yul\":6648:6650   */\n      0x20\n        /* \"@openzeppelin/contracts-upgradeable/security/PausableUpgradeable.sol\":2071:2109  require(!paused(), \"Pausable: paused\") */\n      0x04\n      dup3\n      add\n        /* \"#utility.yul\":6630:6651   */\n      mstore\n        /* \"#utility.yul\":6687:6689   */\n      0x10\n        /* \"#utility.yul\":6667:6685   */\n      0x24\n      dup3\n      add\n        /* \"#utility.yul\":6660:6690   */\n      mstore\n      shl(0x82, 0x14185d5cd8589b194e881c185d5cd959)\n        /* \"#utility.yul\":6706:6724   */\n      0x44\n      dup3\n      add\n        /* \"#utility.yul\":6699:6745   */\n      mstore\n        /* \"#utility.yul\":6762:6780   */\n      0x64\n      add\n        /* \"@openzeppelin/contracts-upgradeable/security/PausableUpgradeable.sol\":2071:2109  require(!paused(), \"Pausable: paused\") */\n      tag_180\n        /* \"#utility.yul\":6446:6786   */\n      jump\n        /* \"Heliocontracts/contracts/ceros/upgrades/HelioProviderV2.sol\":5094:5279  function _withdrawCollateral(address account, uint256 amount) internal {... */\n    tag_192:\n        /* \"Heliocontracts/contracts/ceros/upgrades/HelioProviderV2.sol\":5175:5179  _dao */\n      sload(0xce)\n        /* \"Heliocontracts/contracts/ceros/upgrades/HelioProviderV2.sol\":5206:5214  _ceToken */\n      sload(0xcb)\n        /* \"Heliocontracts/contracts/ceros/upgrades/HelioProviderV2.sol\":5175:5224  _dao.withdraw(account, address(_ceToken), amount) */\n      mload(0x40)\n      shl(0xe1, 0x6ce57689)\n      dup2\n      mstore\n      sub(shl(0xa0, 0x01), 0x01)\n        /* \"Heliocontracts/contracts/ceros/upgrades/HelioProviderV2.sol\":5175:5179  _dao */\n      swap3\n      dup4\n      and\n      swap3\n        /* \"Heliocontracts/contracts/ceros/upgrades/HelioProviderV2.sol\":5175:5188  _dao.withdraw */\n      0xd9caed12\n      swap3\n        /* \"Heliocontracts/contracts/ceros/upgrades/HelioProviderV2.sol\":5175:5224  _dao.withdraw(account, address(_ceToken), amount) */\n      tag_386\n      swap3\n        /* \"Heliocontracts/contracts/ceros/upgrades/HelioProviderV2.sol\":5189:5196  account */\n      dup8\n      swap3\n        /* \"Heliocontracts/contracts/ceros/upgrades/HelioProviderV2.sol\":5206:5214  _ceToken */\n      swap1\n      swap2\n      and\n      swap1\n        /* \"Heliocontracts/contracts/ceros/upgrades/HelioProviderV2.sol\":5217:5223  amount */\n      dup7\n      swap1\n        /* \"Heliocontracts/contracts/ceros/upgrades/HelioProviderV2.sol\":5175:5224  _dao.withdraw(account, address(_ceToken), amount) */\n      0x04\n      add\n      tag_234\n      jump\t// in\n    tag_386:\n      0x20\n      mload(0x40)\n      dup1\n      dup4\n      sub\n      dup2\n      0x00\n      dup8\n      gas\n      call\n      iszero\n      dup1\n      iszero\n      tag_388\n      jumpi\n      returndatasize\n      0x00\n      dup1\n      returndatacopy\n      revert(0x00, returndatasize)\n    tag_388:\n      pop\n      pop\n      pop\n      pop\n      mload(0x40)\n      returndatasize\n      not(0x1f)\n      0x1f\n      dup3\n      add\n      and\n      dup3\n      add\n      dup1\n      0x40\n      mstore\n      pop\n      dup2\n      add\n      swap1\n      tag_389\n      swap2\n      swap1\n      tag_187\n      jump\t// in\n    tag_389:\n      pop\n        /* \"Heliocontracts/contracts/ceros/upgrades/HelioProviderV2.sol\":5234:5250  _collateralToken */\n      sload(0xcc)\n        /* \"Heliocontracts/contracts/ceros/upgrades/HelioProviderV2.sol\":5234:5272  _collateralToken.burn(account, amount) */\n      mload(0x40)\n      shl(0xe2, 0x2770a7eb)\n      dup2\n      mstore\n      sub(shl(0xa0, 0x01), 0x01)\n        /* \"Heliocontracts/contracts/ceros/upgrades/HelioProviderV2.sol\":5234:5250  _collateralToken */\n      swap1\n      swap2\n      and\n      swap1\n        /* \"Heliocontracts/contracts/ceros/upgrades/HelioProviderV2.sol\":5234:5255  _collateralToken.burn */\n      0x9dc29fac\n      swap1\n        /* \"Heliocontracts/contracts/ceros/upgrades/HelioProviderV2.sol\":5234:5272  _collateralToken.burn(account, amount) */\n      tag_390\n      swap1\n        /* \"Heliocontracts/contracts/ceros/upgrades/HelioProviderV2.sol\":5256:5263  account */\n      dup6\n      swap1\n        /* \"Heliocontracts/contracts/ceros/upgrades/HelioProviderV2.sol\":5265:5271  amount */\n      dup6\n      swap1\n        /* \"Heliocontracts/contracts/ceros/upgrades/HelioProviderV2.sol\":5234:5272  _collateralToken.burn(account, amount) */\n      0x04\n      add\n      tag_194\n      jump\t// in\n    tag_390:\n      0x00\n      mload(0x40)\n      dup1\n      dup4\n      sub\n      dup2\n      0x00\n      dup8\n      dup1\n      extcodesize\n      iszero\n      dup1\n      iszero\n      tag_391\n      jumpi\n      0x00\n      dup1\n      revert\n    tag_391:\n      pop\n      gas\n      call\n      iszero\n      dup1\n      iszero\n      tag_393\n      jumpi\n      returndatasize\n      0x00\n      dup1\n      returndatacopy\n      revert(0x00, returndatasize)\n    tag_393:\n      pop\n      pop\n      pop\n      pop\n        /* \"Heliocontracts/contracts/ceros/upgrades/HelioProviderV2.sol\":5094:5279  function _withdrawCollateral(address account, uint256 amount) internal {... */\n      pop\n      pop\n      jump\t// out\n        /* \"@openzeppelin/contracts-upgradeable/access/OwnableUpgradeable.sol\":1599:1729  function _checkOwner() internal view virtual {... */\n    tag_218:\n        /* \"@openzeppelin/contracts-upgradeable/access/OwnableUpgradeable.sol\":1513:1519  _owner */\n      and(sub(shl(0xa0, 0x01), 0x01), sload(0x33))\n        /* \"@openzeppelin/contracts-upgradeable/utils/ContextUpgradeable.sol\":929:939  msg.sender */\n      caller\n        /* \"@openzeppelin/contracts-upgradeable/access/OwnableUpgradeable.sol\":1662:1685  owner() == _msgSender() */\n      eq\n        /* \"@openzeppelin/contracts-upgradeable/access/OwnableUpgradeable.sol\":1654:1722  require(owner() == _msgSender(), \"Ownable: caller is not the owner\") */\n      tag_278\n      jumpi\n      mload(0x40)\n      shl(0xe5, 0x461bcd)\n      dup2\n      mstore\n        /* \"#utility.yul\":6993:6995   */\n      0x20\n        /* \"@openzeppelin/contracts-upgradeable/access/OwnableUpgradeable.sol\":1654:1722  require(owner() == _msgSender(), \"Ownable: caller is not the owner\") */\n      0x04\n      dup3\n      add\n        /* \"#utility.yul\":6975:6996   */\n      dup2\n      swap1\n      mstore\n        /* \"#utility.yul\":7012:7030   */\n      0x24\n      dup3\n      add\n        /* \"#utility.yul\":7005:7035   */\n      mstore\n        /* \"#utility.yul\":7071:7105   */\n      0x4f776e61626c653a2063616c6c6572206973206e6f7420746865206f776e6572\n        /* \"#utility.yul\":7051:7069   */\n      0x44\n      dup3\n      add\n        /* \"#utility.yul\":7044:7106   */\n      mstore\n        /* \"#utility.yul\":7123:7141   */\n      0x64\n      add\n        /* \"@openzeppelin/contracts-upgradeable/access/OwnableUpgradeable.sol\":1654:1722  require(owner() == _msgSender(), \"Ownable: caller is not the owner\") */\n      tag_180\n        /* \"#utility.yul\":6791:7147   */\n      jump\n        /* \"@openzeppelin/contracts-upgradeable/access/OwnableUpgradeable.sol\":2673:2860  function _transferOwnership(address newOwner) internal virtual {... */\n    tag_279:\n        /* \"@openzeppelin/contracts-upgradeable/access/OwnableUpgradeable.sol\":2765:2771  _owner */\n      0x33\n      dup1\n      sload\n      sub(shl(0xa0, 0x01), 0x01)\n        /* \"@openzeppelin/contracts-upgradeable/access/OwnableUpgradeable.sol\":2781:2798  _owner = newOwner */\n      dup4\n      dup2\n      and\n      not(sub(shl(0xa0, 0x01), 0x01))\n      dup4\n      and\n      dup2\n      or\n      swap1\n      swap4\n      sstore\n        /* \"@openzeppelin/contracts-upgradeable/access/OwnableUpgradeable.sol\":2813:2853  OwnershipTransferred(oldOwner, newOwner) */\n      mload(0x40)\n        /* \"@openzeppelin/contracts-upgradeable/access/OwnableUpgradeable.sol\":2765:2771  _owner */\n      swap2\n      and\n      swap2\n        /* \"@openzeppelin/contracts-upgradeable/access/OwnableUpgradeable.sol\":2781:2798  _owner = newOwner */\n      swap1\n        /* \"@openzeppelin/contracts-upgradeable/access/OwnableUpgradeable.sol\":2765:2771  _owner */\n      dup3\n      swap1\n        /* \"@openzeppelin/contracts-upgradeable/access/OwnableUpgradeable.sol\":2813:2853  OwnershipTransferred(oldOwner, newOwner) */\n      0x8be0079c531659141344cd1fd0a4f28419497f9722a3daafe3b4186f6b6457e0\n      swap1\n        /* \"@openzeppelin/contracts-upgradeable/access/OwnableUpgradeable.sol\":2746:2762  address oldOwner */\n      0x00\n      swap1\n        /* \"@openzeppelin/contracts-upgradeable/access/OwnableUpgradeable.sol\":2813:2853  OwnershipTransferred(oldOwner, newOwner) */\n      log3\n        /* \"@openzeppelin/contracts-upgradeable/access/OwnableUpgradeable.sol\":2736:2860  {... */\n      pop\n        /* \"@openzeppelin/contracts-upgradeable/access/OwnableUpgradeable.sol\":2673:2860  function _transferOwnership(address newOwner) internal virtual {... */\n      pop\n      jump\t// out\n        /* \"@openzeppelin/contracts-upgradeable/security/PausableUpgradeable.sol\":2429:2544  function _pause() internal virtual whenNotPaused {... */\n    tag_284:\n        /* \"@openzeppelin/contracts-upgradeable/security/PausableUpgradeable.sol\":1482:1501  _requireNotPaused() */\n      tag_403\n        /* \"@openzeppelin/contracts-upgradeable/security/PausableUpgradeable.sol\":1482:1499  _requireNotPaused */\n      tag_177\n        /* \"@openzeppelin/contracts-upgradeable/security/PausableUpgradeable.sol\":1482:1501  _requireNotPaused() */\n      jump\t// in\n    tag_403:\n        /* \"@openzeppelin/contracts-upgradeable/security/PausableUpgradeable.sol\":2488:2495  _paused */\n      0x65\n        /* \"@openzeppelin/contracts-upgradeable/security/PausableUpgradeable.sol\":2488:2502  _paused = true */\n      dup1\n      sload\n      not(0xff)\n      and\n        /* \"@openzeppelin/contracts-upgradeable/security/PausableUpgradeable.sol\":2498:2502  true */\n      0x01\n        /* \"@openzeppelin/contracts-upgradeable/security/PausableUpgradeable.sol\":2488:2502  _paused = true */\n      or\n      swap1\n      sstore\n        /* \"@openzeppelin/contracts-upgradeable/security/PausableUpgradeable.sol\":2517:2537  Paused(_msgSender()) */\n      0x62e78cea01bee320cd4e420270b5ea74000d11b0c9f74754ebdbfc544b05a258\n        /* \"@openzeppelin/contracts-upgradeable/security/PausableUpgradeable.sol\":2524:2536  _msgSender() */\n      tag_405\n        /* \"@openzeppelin/contracts-upgradeable/utils/ContextUpgradeable.sol\":929:939  msg.sender */\n      caller\n      swap1\n        /* \"@openzeppelin/contracts-upgradeable/utils/ContextUpgradeable.sol\":850:946  function _msgSender() internal view virtual returns (address) {... */\n      jump\n        /* \"@openzeppelin/contracts-upgradeable/security/PausableUpgradeable.sol\":2524:2536  _msgSender() */\n    tag_405:\n        /* \"@openzeppelin/contracts-upgradeable/security/PausableUpgradeable.sol\":2517:2537  Paused(_msgSender()) */\n      mload(0x40)\n      sub(shl(0xa0, 0x01), 0x01)\n        /* \"#utility.yul\":818:850   */\n      swap1\n      swap2\n      and\n        /* \"#utility.yul\":800:851   */\n      dup2\n      mstore\n        /* \"#utility.yul\":788:790   */\n      0x20\n        /* \"#utility.yul\":773:791   */\n      add\n        /* \"@openzeppelin/contracts-upgradeable/security/PausableUpgradeable.sol\":2517:2537  Paused(_msgSender()) */\n      mload(0x40)\n      dup1\n      swap2\n      sub\n      swap1\n      log1\n        /* \"@openzeppelin/contracts-upgradeable/security/PausableUpgradeable.sol\":2429:2544  function _pause() internal virtual whenNotPaused {... */\n      jump\t// out\n        /* \"Heliocontracts/contracts/ceros/upgrades/HelioProviderV2.sol\":4906:5089  function _provideCollateral(address account, uint256 amount) internal {... */\n    tag_296:\n        /* \"Heliocontracts/contracts/ceros/upgrades/HelioProviderV2.sol\":4986:4990  _dao */\n      sload(0xce)\n        /* \"Heliocontracts/contracts/ceros/upgrades/HelioProviderV2.sol\":5016:5024  _ceToken */\n      sload(0xcb)\n        /* \"Heliocontracts/contracts/ceros/upgrades/HelioProviderV2.sol\":4986:5034  _dao.deposit(account, address(_ceToken), amount) */\n      mload(0x40)\n      shl(0xe0, 0x8340f549)\n      dup2\n      mstore\n      sub(shl(0xa0, 0x01), 0x01)\n        /* \"Heliocontracts/contracts/ceros/upgrades/HelioProviderV2.sol\":4986:4990  _dao */\n      swap3\n      dup4\n      and\n      swap3\n        /* \"Heliocontracts/contracts/ceros/upgrades/HelioProviderV2.sol\":4986:4998  _dao.deposit */\n      0x8340f549\n      swap3\n        /* \"Heliocontracts/contracts/ceros/upgrades/HelioProviderV2.sol\":4986:5034  _dao.deposit(account, address(_ceToken), amount) */\n      tag_408\n      swap3\n        /* \"Heliocontracts/contracts/ceros/upgrades/HelioProviderV2.sol\":4999:5006  account */\n      dup8\n      swap3\n        /* \"Heliocontracts/contracts/ceros/upgrades/HelioProviderV2.sol\":5016:5024  _ceToken */\n      swap1\n      swap2\n      and\n      swap1\n        /* \"Heliocontracts/contracts/ceros/upgrades/HelioProviderV2.sol\":5027:5033  amount */\n      dup7\n      swap1\n        /* \"Heliocontracts/contracts/ceros/upgrades/HelioProviderV2.sol\":4986:5034  _dao.deposit(account, address(_ceToken), amount) */\n      0x04\n      add\n      tag_234\n      jump\t// in\n    tag_408:\n      0x20\n      mload(0x40)\n      dup1\n      dup4\n      sub\n      dup2\n      0x00\n      dup8\n      gas\n      call\n      iszero\n      dup1\n      iszero\n      tag_410\n      jumpi\n      returndatasize\n      0x00\n      dup1\n      returndatacopy\n      revert(0x00, returndatasize)\n    tag_410:\n      pop\n      pop\n      pop\n      pop\n      mload(0x40)\n      returndatasize\n      not(0x1f)\n      0x1f\n      dup3\n      add\n      and\n      dup3\n      add\n      dup1\n      0x40\n      mstore\n      pop\n      dup2\n      add\n      swap1\n      tag_411\n      swap2\n      swap1\n      tag_187\n      jump\t// in\n    tag_411:\n      pop\n        /* \"Heliocontracts/contracts/ceros/upgrades/HelioProviderV2.sol\":5044:5060  _collateralToken */\n      sload(0xcc)\n        /* \"Heliocontracts/contracts/ceros/upgrades/HelioProviderV2.sol\":5044:5082  _collateralToken.mint(account, amount) */\n      mload(0x40)\n      shl(0xe0, 0x40c10f19)\n      dup2\n      mstore\n      sub(shl(0xa0, 0x01), 0x01)\n        /* \"Heliocontracts/contracts/ceros/upgrades/HelioProviderV2.sol\":5044:5060  _collateralToken */\n      swap1\n      swap2\n      and\n      swap1\n        /* \"Heliocontracts/contracts/ceros/upgrades/HelioProviderV2.sol\":5044:5065  _collateralToken.mint */\n      0x40c10f19\n      swap1\n        /* \"Heliocontracts/contracts/ceros/upgrades/HelioProviderV2.sol\":5044:5082  _collateralToken.mint(account, amount) */\n      tag_390\n      swap1\n        /* \"Heliocontracts/contracts/ceros/upgrades/HelioProviderV2.sol\":5066:5073  account */\n      dup6\n      swap1\n        /* \"Heliocontracts/contracts/ceros/upgrades/HelioProviderV2.sol\":5075:5081  amount */\n      dup6\n      swap1\n        /* \"Heliocontracts/contracts/ceros/upgrades/HelioProviderV2.sol\":5044:5082  _collateralToken.mint(account, amount) */\n      0x04\n      add\n      tag_194\n      jump\t// in\n        /* \"@openzeppelin/contracts-upgradeable/security/PausableUpgradeable.sol\":2676:2793  function _unpause() internal virtual whenPaused {... */\n    tag_351:\n        /* \"@openzeppelin/contracts-upgradeable/security/PausableUpgradeable.sol\":1729:1745  _requirePaused() */\n      tag_417\n        /* \"@openzeppelin/contracts-upgradeable/security/PausableUpgradeable.sol\":1729:1743  _requirePaused */\n      tag_418\n        /* \"@openzeppelin/contracts-upgradeable/security/PausableUpgradeable.sol\":1729:1745  _requirePaused() */\n      jump\t// in\n    tag_417:\n        /* \"@openzeppelin/contracts-upgradeable/security/PausableUpgradeable.sol\":2734:2741  _paused */\n      0x65\n        /* \"@openzeppelin/contracts-upgradeable/security/PausableUpgradeable.sol\":2734:2749  _paused = false */\n      dup1\n      sload\n      not(0xff)\n      and\n      swap1\n      sstore\n        /* \"@openzeppelin/contracts-upgradeable/security/PausableUpgradeable.sol\":2764:2786  Unpaused(_msgSender()) */\n      0x5db9ee0a495bf2e6ff9c91a7834c1ba4fdd244a5e8aa4e537bd38aeae4b073aa\n        /* \"@openzeppelin/contracts-upgradeable/utils/ContextUpgradeable.sol\":929:939  msg.sender */\n      caller\n        /* \"@openzeppelin/contracts-upgradeable/security/PausableUpgradeable.sol\":2773:2785  _msgSender() */\n      tag_405\n        /* \"@openzeppelin/contracts-upgradeable/utils/ContextUpgradeable.sol\":850:946  function _msgSender() internal view virtual returns (address) {... */\n      jump\n        /* \"@openzeppelin/contracts-upgradeable/access/OwnableUpgradeable.sol\":1003:1098  function __Ownable_init() internal onlyInitializing {... */\n    tag_364:\n        /* \"@openzeppelin/contracts-upgradeable/proxy/utils/Initializable.sol\":4910:4923  _initializing */\n      sload(0x00)\n      0x0100\n      swap1\n      div\n      0xff\n      and\n        /* \"@openzeppelin/contracts-upgradeable/proxy/utils/Initializable.sol\":4902:4971  require(_initializing, \"Initializable: contract is not initializing\") */\n      tag_424\n      jumpi\n      mload(0x40)\n      shl(0xe5, 0x461bcd)\n      dup2\n      mstore\n      0x04\n      add\n      tag_180\n      swap1\n      tag_426\n      jump\t// in\n    tag_424:\n        /* \"@openzeppelin/contracts-upgradeable/access/OwnableUpgradeable.sol\":1065:1091  __Ownable_init_unchained() */\n      tag_278\n        /* \"@openzeppelin/contracts-upgradeable/access/OwnableUpgradeable.sol\":1065:1089  __Ownable_init_unchained */\n      tag_429\n        /* \"@openzeppelin/contracts-upgradeable/access/OwnableUpgradeable.sol\":1065:1091  __Ownable_init_unchained() */\n      jump\t// in\n        /* \"@openzeppelin/contracts-upgradeable/security/PausableUpgradeable.sol\":1063:1160  function __Pausable_init() internal onlyInitializing {... */\n    tag_366:\n        /* \"@openzeppelin/contracts-upgradeable/proxy/utils/Initializable.sol\":4910:4923  _initializing */\n      sload(0x00)\n      0x0100\n      swap1\n      div\n      0xff\n      and\n        /* \"@openzeppelin/contracts-upgradeable/proxy/utils/Initializable.sol\":4902:4971  require(_initializing, \"Initializable: contract is not initializing\") */\n      tag_431\n      jumpi\n      mload(0x40)\n      shl(0xe5, 0x461bcd)\n      dup2\n      mstore\n      0x04\n      add\n      tag_180\n      swap1\n      tag_426\n      jump\t// in\n    tag_431:\n        /* \"@openzeppelin/contracts-upgradeable/security/PausableUpgradeable.sol\":1126:1153  __Pausable_init_unchained() */\n      tag_278\n        /* \"@openzeppelin/contracts-upgradeable/security/PausableUpgradeable.sol\":1126:1151  __Pausable_init_unchained */\n      tag_435\n        /* \"@openzeppelin/contracts-upgradeable/security/PausableUpgradeable.sol\":1126:1153  __Pausable_init_unchained() */\n      jump\t// in\n        /* \"@openzeppelin/contracts-upgradeable/security/ReentrancyGuardUpgradeable.sol\":1853:1964  function __ReentrancyGuard_init() internal onlyInitializing {... */\n    tag_368:\n        /* \"@openzeppelin/contracts-upgradeable/proxy/utils/Initializable.sol\":4910:4923  _initializing */\n      sload(0x00)\n      0x0100\n      swap1\n      div\n      0xff\n      and\n        /* \"@openzeppelin/contracts-upgradeable/proxy/utils/Initializable.sol\":4902:4971  require(_initializing, \"Initializable: contract is not initializing\") */\n      tag_437\n      jumpi\n      mload(0x40)\n      shl(0xe5, 0x461bcd)\n      dup2\n      mstore\n      0x04\n      add\n      tag_180\n      swap1\n      tag_426\n      jump\t// in\n    tag_437:\n        /* \"@openzeppelin/contracts-upgradeable/security/ReentrancyGuardUpgradeable.sol\":1923:1957  __ReentrancyGuard_init_unchained() */\n      tag_278\n        /* \"@openzeppelin/contracts-upgradeable/security/ReentrancyGuardUpgradeable.sol\":1923:1955  __ReentrancyGuard_init_unchained */\n      tag_441\n        /* \"@openzeppelin/contracts-upgradeable/security/ReentrancyGuardUpgradeable.sol\":1923:1957  __ReentrancyGuard_init_unchained() */\n      jump\t// in\n        /* \"@openzeppelin/contracts-upgradeable/security/PausableUpgradeable.sol\":2188:2294  function _requirePaused() internal view virtual {... */\n    tag_418:\n        /* \"@openzeppelin/contracts-upgradeable/security/PausableUpgradeable.sol\":1928:1935  _paused */\n      and(0xff, sload(0x65))\n        /* \"@openzeppelin/contracts-upgradeable/security/PausableUpgradeable.sol\":2246:2287  require(paused(), \"Pausable: not paused\") */\n      tag_278\n      jumpi\n      mload(0x40)\n      shl(0xe5, 0x461bcd)\n      dup2\n      mstore\n        /* \"#utility.yul\":7766:7768   */\n      0x20\n        /* \"@openzeppelin/contracts-upgradeable/security/PausableUpgradeable.sol\":2246:2287  require(paused(), \"Pausable: not paused\") */\n      0x04\n      dup3\n      add\n        /* \"#utility.yul\":7748:7769   */\n      mstore\n        /* \"#utility.yul\":7805:7807   */\n      0x14\n        /* \"#utility.yul\":7785:7803   */\n      0x24\n      dup3\n      add\n        /* \"#utility.yul\":7778:7808   */\n      mstore\n      shl(0x62, 0x14185d5cd8589b194e881b9bdd081c185d5cd959)\n        /* \"#utility.yul\":7824:7842   */\n      0x44\n      dup3\n      add\n        /* \"#utility.yul\":7817:7867   */\n      mstore\n        /* \"#utility.yul\":7884:7902   */\n      0x64\n      add\n        /* \"@openzeppelin/contracts-upgradeable/security/PausableUpgradeable.sol\":2246:2287  require(paused(), \"Pausable: not paused\") */\n      tag_180\n        /* \"#utility.yul\":7564:7908   */\n      jump\n        /* \"@openzeppelin/contracts-upgradeable/access/OwnableUpgradeable.sol\":1104:1215  function __Ownable_init_unchained() internal onlyInitializing {... */\n    tag_429:\n        /* \"@openzeppelin/contracts-upgradeable/proxy/utils/Initializable.sol\":4910:4923  _initializing */\n      sload(0x00)\n      0x0100\n      swap1\n      div\n      0xff\n      and\n        /* \"@openzeppelin/contracts-upgradeable/proxy/utils/Initializable.sol\":4902:4971  require(_initializing, \"Initializable: contract is not initializing\") */\n      tag_449\n      jumpi\n      mload(0x40)\n      shl(0xe5, 0x461bcd)\n      dup2\n      mstore\n      0x04\n      add\n      tag_180\n      swap1\n      tag_426\n      jump\t// in\n    tag_449:\n        /* \"@openzeppelin/contracts-upgradeable/access/OwnableUpgradeable.sol\":1176:1208  _transferOwnership(_msgSender()) */\n      tag_278\n        /* \"@openzeppelin/contracts-upgradeable/utils/ContextUpgradeable.sol\":929:939  msg.sender */\n      caller\n        /* \"@openzeppelin/contracts-upgradeable/access/OwnableUpgradeable.sol\":1176:1194  _transferOwnership */\n      tag_279\n        /* \"@openzeppelin/contracts-upgradeable/access/OwnableUpgradeable.sol\":1176:1208  _transferOwnership(_msgSender()) */\n      jump\t// in\n        /* \"@openzeppelin/contracts-upgradeable/security/PausableUpgradeable.sol\":1166:1261  function __Pausable_init_unchained() internal onlyInitializing {... */\n    tag_435:\n        /* \"@openzeppelin/contracts-upgradeable/proxy/utils/Initializable.sol\":4910:4923  _initializing */\n      sload(0x00)\n      0x0100\n      swap1\n      div\n      0xff\n      and\n        /* \"@openzeppelin/contracts-upgradeable/proxy/utils/Initializable.sol\":4902:4971  require(_initializing, \"Initializable: contract is not initializing\") */\n      tag_455\n      jumpi\n      mload(0x40)\n      shl(0xe5, 0x461bcd)\n      dup2\n      mstore\n      0x04\n      add\n      tag_180\n      swap1\n      tag_426\n      jump\t// in\n    tag_455:\n        /* \"@openzeppelin/contracts-upgradeable/security/PausableUpgradeable.sol\":1239:1246  _paused */\n      0x65\n        /* \"@openzeppelin/contracts-upgradeable/security/PausableUpgradeable.sol\":1239:1254  _paused = false */\n      dup1\n      sload\n      not(0xff)\n      and\n      swap1\n      sstore\n        /* \"@openzeppelin/contracts-upgradeable/security/PausableUpgradeable.sol\":1166:1261  function __Pausable_init_unchained() internal onlyInitializing {... */\n      jump\t// out\n        /* \"@openzeppelin/contracts-upgradeable/security/ReentrancyGuardUpgradeable.sol\":1970:2079  function __ReentrancyGuard_init_unchained() internal onlyInitializing {... */\n    tag_441:\n        /* \"@openzeppelin/contracts-upgradeable/proxy/utils/Initializable.sol\":4910:4923  _initializing */\n      sload(0x00)\n      0x0100\n      swap1\n      div\n      0xff\n      and\n        /* \"@openzeppelin/contracts-upgradeable/proxy/utils/Initializable.sol\":4902:4971  require(_initializing, \"Initializable: contract is not initializing\") */\n      tag_459\n      jumpi\n      mload(0x40)\n      shl(0xe5, 0x461bcd)\n      dup2\n      mstore\n      0x04\n      add\n      tag_180\n      swap1\n      tag_426\n      jump\t// in\n    tag_459:\n        /* \"@openzeppelin/contracts-upgradeable/security/ReentrancyGuardUpgradeable.sol\":1772:1773  1 */\n      0x01\n        /* \"@openzeppelin/contracts-upgradeable/security/ReentrancyGuardUpgradeable.sol\":2050:2057  _status */\n      0x97\n        /* \"@openzeppelin/contracts-upgradeable/security/ReentrancyGuardUpgradeable.sol\":2050:2072  _status = _NOT_ENTERED */\n      sstore\n        /* \"@openzeppelin/contracts-upgradeable/security/ReentrancyGuardUpgradeable.sol\":1970:2079  function __ReentrancyGuard_init_unchained() internal onlyInitializing {... */\n      jump\t// out\n        /* \"#utility.yul\":14:187   */\n    tag_462:\n        /* \"#utility.yul\":82:102   */\n      dup1\n      calldataload\n      sub(shl(0xa0, 0x01), 0x01)\n        /* \"#utility.yul\":131:162   */\n      dup2\n      and\n        /* \"#utility.yul\":121:163   */\n      dup2\n      eq\n        /* \"#utility.yul\":111:181   */\n      tag_465\n      jumpi\n        /* \"#utility.yul\":177:178   */\n      0x00\n        /* \"#utility.yul\":174:175   */\n      dup1\n        /* \"#utility.yul\":167:179   */\n      revert\n        /* \"#utility.yul\":111:181   */\n    tag_465:\n        /* \"#utility.yul\":14:187   */\n      swap2\n      swap1\n      pop\n      jump\t// out\n        /* \"#utility.yul\":192:446   */\n    tag_43:\n        /* \"#utility.yul\":260:266   */\n      0x00\n        /* \"#utility.yul\":268:274   */\n      dup1\n        /* \"#utility.yul\":321:323   */\n      0x40\n        /* \"#utility.yul\":309:318   */\n      dup4\n        /* \"#utility.yul\":300:307   */\n      dup6\n        /* \"#utility.yul\":296:319   */\n      sub\n        /* \"#utility.yul\":292:324   */\n      slt\n        /* \"#utility.yul\":289:341   */\n      iszero\n      tag_467\n      jumpi\n        /* \"#utility.yul\":337:338   */\n      0x00\n        /* \"#utility.yul\":334:335   */\n      dup1\n        /* \"#utility.yul\":327:339   */\n      revert\n        /* \"#utility.yul\":289:341   */\n    tag_467:\n        /* \"#utility.yul\":360:389   */\n      tag_468\n        /* \"#utility.yul\":379:388   */\n      dup4\n        /* \"#utility.yul\":360:389   */\n      tag_462\n      jump\t// in\n    tag_468:\n        /* \"#utility.yul\":350:389   */\n      swap5\n        /* \"#utility.yul\":436:438   */\n      0x20\n        /* \"#utility.yul\":421:439   */\n      swap4\n      swap1\n      swap4\n      add\n        /* \"#utility.yul\":408:440   */\n      calldataload\n      swap4\n      pop\n      pop\n      pop\n        /* \"#utility.yul\":192:446   */\n      jump\t// out\n        /* \"#utility.yul\":862:1048   */\n    tag_59:\n        /* \"#utility.yul\":921:927   */\n      0x00\n        /* \"#utility.yul\":974:976   */\n      0x20\n        /* \"#utility.yul\":962:971   */\n      dup3\n        /* \"#utility.yul\":953:960   */\n      dup5\n        /* \"#utility.yul\":949:972   */\n      sub\n        /* \"#utility.yul\":945:977   */\n      slt\n        /* \"#utility.yul\":942:994   */\n      iszero\n      tag_472\n      jumpi\n        /* \"#utility.yul\":990:991   */\n      0x00\n        /* \"#utility.yul\":987:988   */\n      dup1\n        /* \"#utility.yul\":980:992   */\n      revert\n        /* \"#utility.yul\":942:994   */\n    tag_472:\n        /* \"#utility.yul\":1013:1042   */\n      tag_339\n        /* \"#utility.yul\":1032:1041   */\n      dup3\n        /* \"#utility.yul\":1013:1042   */\n      tag_462\n      jump\t// in\n        /* \"#utility.yul\":1280:1608   */\n    tag_73:\n        /* \"#utility.yul\":1357:1363   */\n      0x00\n        /* \"#utility.yul\":1365:1371   */\n      dup1\n        /* \"#utility.yul\":1373:1379   */\n      0x00\n        /* \"#utility.yul\":1426:1428   */\n      0x60\n        /* \"#utility.yul\":1414:1423   */\n      dup5\n        /* \"#utility.yul\":1405:1412   */\n      dup7\n        /* \"#utility.yul\":1401:1424   */\n      sub\n        /* \"#utility.yul\":1397:1429   */\n      slt\n        /* \"#utility.yul\":1394:1446   */\n      iszero\n      tag_476\n      jumpi\n        /* \"#utility.yul\":1442:1443   */\n      0x00\n        /* \"#utility.yul\":1439:1440   */\n      dup1\n        /* \"#utility.yul\":1432:1444   */\n      revert\n        /* \"#utility.yul\":1394:1446   */\n    tag_476:\n        /* \"#utility.yul\":1465:1494   */\n      tag_477\n        /* \"#utility.yul\":1484:1493   */\n      dup5\n        /* \"#utility.yul\":1465:1494   */\n      tag_462\n      jump\t// in\n    tag_477:\n        /* \"#utility.yul\":1455:1494   */\n      swap3\n      pop\n        /* \"#utility.yul\":1513:1551   */\n      tag_478\n        /* \"#utility.yul\":1547:1549   */\n      0x20\n        /* \"#utility.yul\":1536:1545   */\n      dup6\n        /* \"#utility.yul\":1532:1550   */\n      add\n        /* \"#utility.yul\":1513:1551   */\n      tag_462\n      jump\t// in\n    tag_478:\n        /* \"#utility.yul\":1503:1551   */\n      swap2\n      pop\n        /* \"#utility.yul\":1598:1600   */\n      0x40\n        /* \"#utility.yul\":1587:1596   */\n      dup5\n        /* \"#utility.yul\":1583:1601   */\n      add\n        /* \"#utility.yul\":1570:1602   */\n      calldataload\n        /* \"#utility.yul\":1560:1602   */\n      swap1\n      pop\n        /* \"#utility.yul\":1280:1608   */\n      swap3\n      pop\n      swap3\n      pop\n      swap3\n      jump\t// out\n        /* \"#utility.yul\":2466:2875   */\n    tag_169:\n        /* \"#utility.yul\":2552:2558   */\n      0x00\n        /* \"#utility.yul\":2560:2566   */\n      dup1\n        /* \"#utility.yul\":2568:2574   */\n      0x00\n        /* \"#utility.yul\":2576:2582   */\n      dup1\n        /* \"#utility.yul\":2629:2632   */\n      0x80\n        /* \"#utility.yul\":2617:2626   */\n      dup6\n        /* \"#utility.yul\":2608:2615   */\n      dup8\n        /* \"#utility.yul\":2604:2627   */\n      sub\n        /* \"#utility.yul\":2600:2633   */\n      slt\n        /* \"#utility.yul\":2597:2650   */\n      iszero\n      tag_484\n      jumpi\n        /* \"#utility.yul\":2646:2647   */\n      0x00\n        /* \"#utility.yul\":2643:2644   */\n      dup1\n        /* \"#utility.yul\":2636:2648   */\n      revert\n        /* \"#utility.yul\":2597:2650   */\n    tag_484:\n        /* \"#utility.yul\":2669:2698   */\n      tag_485\n        /* \"#utility.yul\":2688:2697   */\n      dup6\n        /* \"#utility.yul\":2669:2698   */\n      tag_462\n      jump\t// in\n    tag_485:\n        /* \"#utility.yul\":2659:2698   */\n      swap4\n      pop\n        /* \"#utility.yul\":2717:2755   */\n      tag_486\n        /* \"#utility.yul\":2751:2753   */\n      0x20\n        /* \"#utility.yul\":2740:2749   */\n      dup7\n        /* \"#utility.yul\":2736:2754   */\n      add\n        /* \"#utility.yul\":2717:2755   */\n      tag_462\n      jump\t// in\n    tag_486:\n        /* \"#utility.yul\":2707:2755   */\n      swap3\n      pop\n        /* \"#utility.yul\":2774:2812   */\n      tag_487\n        /* \"#utility.yul\":2808:2810   */\n      0x40\n        /* \"#utility.yul\":2797:2806   */\n      dup7\n        /* \"#utility.yul\":2793:2811   */\n      add\n        /* \"#utility.yul\":2774:2812   */\n      tag_462\n      jump\t// in\n    tag_487:\n        /* \"#utility.yul\":2764:2812   */\n      swap2\n      pop\n        /* \"#utility.yul\":2831:2869   */\n      tag_488\n        /* \"#utility.yul\":2865:2867   */\n      0x60\n        /* \"#utility.yul\":2854:2863   */\n      dup7\n        /* \"#utility.yul\":2850:2868   */\n      add\n        /* \"#utility.yul\":2831:2869   */\n      tag_462\n      jump\t// in\n    tag_488:\n        /* \"#utility.yul\":2821:2869   */\n      swap1\n      pop\n        /* \"#utility.yul\":2466:2875   */\n      swap3\n      swap6\n      swap2\n      swap5\n      pop\n      swap3\n      pop\n      jump\t// out\n        /* \"#utility.yul\":2880:3235   */\n    tag_181:\n        /* \"#utility.yul\":3082:3084   */\n      0x20\n        /* \"#utility.yul\":3064:3085   */\n      dup1\n      dup3\n      mstore\n        /* \"#utility.yul\":3121:3123   */\n      0x1f\n        /* \"#utility.yul\":3101:3119   */\n      swap1\n      dup3\n      add\n        /* \"#utility.yul\":3094:3124   */\n      mstore\n        /* \"#utility.yul\":3160:3193   */\n      0x5265656e7472616e637947756172643a207265656e7472616e742063616c6c00\n        /* \"#utility.yul\":3155:3157   */\n      0x40\n        /* \"#utility.yul\":3140:3158   */\n      dup3\n      add\n        /* \"#utility.yul\":3133:3194   */\n      mstore\n        /* \"#utility.yul\":3226:3228   */\n      0x60\n        /* \"#utility.yul\":3211:3229   */\n      add\n      swap1\n        /* \"#utility.yul\":2880:3235   */\n      jump\t// out\n        /* \"#utility.yul\":3240:3424   */\n    tag_187:\n        /* \"#utility.yul\":3310:3316   */\n      0x00\n        /* \"#utility.yul\":3363:3365   */\n      0x20\n        /* \"#utility.yul\":3351:3360   */\n      dup3\n        /* \"#utility.yul\":3342:3349   */\n      dup5\n        /* \"#utility.yul\":3338:3361   */\n      sub\n        /* \"#utility.yul\":3334:3366   */\n      slt\n        /* \"#utility.yul\":3331:3383   */\n      iszero\n      tag_491\n      jumpi\n        /* \"#utility.yul\":3379:3380   */\n      0x00\n        /* \"#utility.yul\":3376:3377   */\n      dup1\n        /* \"#utility.yul\":3369:3381   */\n      revert\n        /* \"#utility.yul\":3331:3383   */\n    tag_491:\n      pop\n        /* \"#utility.yul\":3402:3418   */\n      mload\n      swap2\n        /* \"#utility.yul\":3240:3424   */\n      swap1\n      pop\n      jump\t// out\n        /* \"#utility.yul\":3843:4117   */\n    tag_194:\n      sub(shl(0xa0, 0x01), 0x01)\n        /* \"#utility.yul\":4035:4067   */\n      swap3\n      swap1\n      swap3\n      and\n        /* \"#utility.yul\":4017:4068   */\n      dup3\n      mstore\n        /* \"#utility.yul\":4099:4101   */\n      0x20\n        /* \"#utility.yul\":4084:4102   */\n      dup3\n      add\n        /* \"#utility.yul\":4077:4111   */\n      mstore\n        /* \"#utility.yul\":4005:4007   */\n      0x40\n        /* \"#utility.yul\":3990:4008   */\n      add\n      swap1\n        /* \"#utility.yul\":3843:4117   */\n      jump\t// out\n        /* \"#utility.yul\":4122:4471   */\n    tag_206:\n        /* \"#utility.yul\":4324:4326   */\n      0x20\n        /* \"#utility.yul\":4306:4327   */\n      dup1\n      dup3\n      mstore\n        /* \"#utility.yul\":4363:4365   */\n      0x19\n        /* \"#utility.yul\":4343:4361   */\n      swap1\n      dup3\n      add\n        /* \"#utility.yul\":4336:4366   */\n      mstore\n        /* \"#utility.yul\":4402:4429   */\n      0x41756374696f6e50726f78793a206e6f7420616c6c6f77656400000000000000\n        /* \"#utility.yul\":4397:4399   */\n      0x40\n        /* \"#utility.yul\":4382:4400   */\n      dup3\n      add\n        /* \"#utility.yul\":4375:4430   */\n      mstore\n        /* \"#utility.yul\":4462:4464   */\n      0x60\n        /* \"#utility.yul\":4447:4465   */\n      add\n      swap1\n        /* \"#utility.yul\":4122:4471   */\n      jump\t// out\n        /* \"#utility.yul\":4476:4851   */\n    tag_234:\n      sub(shl(0xa0, 0x01), 0x01)\n        /* \"#utility.yul\":4734:4749   */\n      swap4\n      dup5\n      and\n        /* \"#utility.yul\":4716:4750   */\n      dup2\n      mstore\n        /* \"#utility.yul\":4786:4801   */\n      swap2\n      swap1\n      swap3\n      and\n        /* \"#utility.yul\":4781:4783   */\n      0x20\n        /* \"#utility.yul\":4766:4784   */\n      dup3\n      add\n        /* \"#utility.yul\":4759:4802   */\n      mstore\n        /* \"#utility.yul\":4833:4835   */\n      0x40\n        /* \"#utility.yul\":4818:4836   */\n      dup2\n      add\n        /* \"#utility.yul\":4811:4845   */\n      swap2\n      swap1\n      swap2\n      mstore\n        /* \"#utility.yul\":4666:4668   */\n      0x60\n        /* \"#utility.yul\":4651:4669   */\n      add\n      swap1\n        /* \"#utility.yul\":4476:4851   */\n      jump\t// out\n        /* \"#utility.yul\":5143:5420   */\n    tag_247:\n        /* \"#utility.yul\":5210:5216   */\n      0x00\n        /* \"#utility.yul\":5263:5265   */\n      0x20\n        /* \"#utility.yul\":5251:5260   */\n      dup3\n        /* \"#utility.yul\":5242:5249   */\n      dup5\n        /* \"#utility.yul\":5238:5261   */\n      sub\n        /* \"#utility.yul\":5234:5266   */\n      slt\n        /* \"#utility.yul\":5231:5283   */\n      iszero\n      tag_498\n      jumpi\n        /* \"#utility.yul\":5279:5280   */\n      0x00\n        /* \"#utility.yul\":5276:5277   */\n      dup1\n        /* \"#utility.yul\":5269:5281   */\n      revert\n        /* \"#utility.yul\":5231:5283   */\n    tag_498:\n        /* \"#utility.yul\":5311:5320   */\n      dup2\n        /* \"#utility.yul\":5305:5321   */\n      mload\n        /* \"#utility.yul\":5364:5369   */\n      dup1\n        /* \"#utility.yul\":5357:5370   */\n      iszero\n        /* \"#utility.yul\":5350:5371   */\n      iszero\n        /* \"#utility.yul\":5343:5348   */\n      dup2\n        /* \"#utility.yul\":5340:5372   */\n      eq\n        /* \"#utility.yul\":5330:5390   */\n      tag_339\n      jumpi\n        /* \"#utility.yul\":5386:5387   */\n      0x00\n        /* \"#utility.yul\":5383:5384   */\n      dup1\n        /* \"#utility.yul\":5376:5388   */\n      revert\n        /* \"#utility.yul\":7152:7559   */\n    tag_426:\n        /* \"#utility.yul\":7354:7356   */\n      0x20\n        /* \"#utility.yul\":7336:7357   */\n      dup1\n      dup3\n      mstore\n        /* \"#utility.yul\":7393:7395   */\n      0x2b\n        /* \"#utility.yul\":7373:7391   */\n      swap1\n      dup3\n      add\n        /* \"#utility.yul\":7366:7396   */\n      mstore\n        /* \"#utility.yul\":7432:7466   */\n      0x496e697469616c697a61626c653a20636f6e7472616374206973206e6f742069\n        /* \"#utility.yul\":7427:7429   */\n      0x40\n        /* \"#utility.yul\":7412:7430   */\n      dup3\n      add\n        /* \"#utility.yul\":7405:7467   */\n      mstore\n      shl(0xa8, 0x6e697469616c697a696e67)\n        /* \"#utility.yul\":7498:7500   */\n      0x60\n        /* \"#utility.yul\":7483:7501   */\n      dup3\n      add\n        /* \"#utility.yul\":7476:7517   */\n      mstore\n        /* \"#utility.yul\":7549:7552   */\n      0x80\n        /* \"#utility.yul\":7534:7553   */\n      add\n      swap1\n        /* \"#utility.yul\":7152:7559   */\n      jump\t// out\n\n    auxdata: 0xa2646970667358221220937af9b3a86a564583110c4319b37a0539a9dc23e8bb6422d12fc6098877cb4a64736f6c634300080a0033\n}\n",
				"bytecode": {
					"linkReferences": {},
					"object": "608060405234801561001057600080fd5b50611b3d806100206000396000f3fe6080604052600436106101d85760003560e01c80638456cb5911610102578063d8826fec11610095578063f2fde38b11610064578063f2fde38b1461053d578063f7b188a51461055d578063f8c8765e14610572578063fe1c6c941461059257600080fd5b8063d8826fec146104bd578063df3d23ae146104dd578063e0683726146104fd578063e871405b1461051d57600080fd5b8063b99152d0116100d1578063b99152d01461043d578063c40318411461045d578063cc2effdc1461047d578063d25c74391461049d57600080fd5b80638456cb59146103e25780638da5cb5b146103f75780639479cfa214610415578063b94725351461043557600080fd5b80633fd44f171161017a5780636e8d9a18116101495780636e8d9a181461036d5780636f2bb86a1461038d57806370b0a843146103ad578063715018a6146103cd57600080fd5b80633fd44f17146102ea5780635a58f9d51461030a5780635c975abb1461032a578063636fc28b1461034d57600080fd5b8063232da7fe116101b6578063232da7fe1461026a578063358b2b1a1461028a5780633af82c59146102aa5780633e9ec161146102ca57600080fd5b80630357371d146101dd57806314866aef146102105780631ee92d8414610232575b600080fd5b3480156101e957600080fd5b506101fd6101f8366004611901565b6105b2565b6040519081526020015b60405180910390f35b34801561021c57600080fd5b5061023061022b366004611901565b6107af565b005b34801561023e57600080fd5b5060cd54610252906001600160a01b031681565b6040516001600160a01b039091168152602001610207565b34801561027657600080fd5b5061023061028536600461192b565b61089e565b34801561029657600080fd5b5060cc54610252906001600160a01b031681565b3480156102b657600080fd5b506102306102c536600461192b565b6108fb565b3480156102d657600080fd5b506101fd6102e5366004611946565b610951565b3480156102f657600080fd5b5061023061030536600461192b565b610a72565b34801561031657600080fd5b5061023061032536600461192b565b610bbd565b34801561033657600080fd5b5060655460ff166040519015158152602001610207565b34801561035957600080fd5b5060cf54610252906001600160a01b031681565b34801561037957600080fd5b5060cb54610252906001600160a01b031681565b34801561039957600080fd5b506102306103a8366004611901565b610c13565b3480156103b957600080fd5b5060c954610252906001600160a01b031681565b3480156103d957600080fd5b50610230610d5a565b3480156103ee57600080fd5b50610230610d6e565b34801561040357600080fd5b506033546001600160a01b0316610252565b34801561042157600080fd5b5060ca54610252906001600160a01b031681565b6101fd610d7e565b34801561044957600080fd5b506101fd61045836600461192b565b610e6a565b34801561046957600080fd5b5061023061047836600461192b565b610edf565b34801561048957600080fd5b5060d054610252906001600160a01b031681565b3480156104a957600080fd5b5060d154610252906001600160a01b031681565b3480156104c957600080fd5b506102306104d836600461192b565b610f35565b3480156104e957600080fd5b506102306104f8366004611901565b61107d565b34801561050957600080fd5b5060ce54610252906001600160a01b031681565b34801561052957600080fd5b506101fd610538366004611901565b611131565b34801561054957600080fd5b5061023061055836600461192b565b6111ac565b34801561056957600080fd5b50610230611225565b34801561057e57600080fd5b5061023061058d366004611982565b611235565b34801561059e57600080fd5b506102306105ad36600461192b565b61140f565b60006105bc611465565b600260975414156105e85760405162461bcd60e51b81526004016105df906119d6565b60405180910390fd5b60026097556001600160a01b03831661060057600080fd5b60cf546040805162d3111560e21b815290516000926001600160a01b03169163034c44549160048083019260209291908290030181865afa158015610649573d6000803e3d6000fd5b505050506040513d601f19601f8201168201806040525081019061066d9190611a0d565b9050808310156106d55760405162461bcd60e51b815260206004820152602d60248201527f76616c7565206d7573742062652067726561746572207468616e206d696e207560448201526c1b9cdd185ad948185b5bdd5b9d609a1b60648201526084016105df565b6106df33846114ab565b60cd54604051634782f77960e01b81526001600160a01b0390911690634782f779906107119087908790600401611a26565b6020604051808303816000875af1158015610730573d6000803e3d6000fd5b505050506040513d601f19601f820116820180604052508101906107549190611a0d565b9150836001600160a01b0316336001600160a01b03167f2717ead6b9200dd235aad468c9809ea400fe33ac69b5bfaa6d3e90fc922b63988560405161079b91815260200190565b60405180910390a350600160975592915050565b6107b7611465565b6033546001600160a01b03163314806107da575060d0546001600160a01b031633145b6107f65760405162461bcd60e51b81526004016105df90611a3f565b600260975414156108195760405162461bcd60e51b81526004016105df906119d6565b60026097556001600160a01b03821661083157600080fd5b60cc546040516340c10f1960e01b81526001600160a01b03909116906340c10f19906108639085908590600401611a26565b600060405180830381600087803b15801561087d57600080fd5b505af1158015610891573d6000803e3d6000fd5b5050600160975550505050565b6108a6611590565b60cc80546001600160a01b0319166001600160a01b0383169081179091556040519081527f5ab190ac1b858818c30b831d9bd74e6bef6f75de987d59f1beb4aab85d064832906020015b60405180910390a150565b610903611590565b60cf80546001600160a01b0319166001600160a01b0383169081179091556040519081527fc7c1b39b4c8950340ee2ddc449a99e16d5e090b420db2e99160d82a9ff5580d9906020016108f0565b600061095b611465565b6002609754141561097e5760405162461bcd60e51b81526004016105df906119d6565b60026097556001600160a01b03831661099657600080fd5b6109a033836114ab565b60cd546040516301f3b14360e51b81526001600160a01b0390911690633e762860906109d490879087908790600401611a76565b6020604051808303816000875af11580156109f3573d6000803e3d6000fd5b505050506040513d601f19601f82011682018060405250810190610a179190611a0d565b9050826001600160a01b0316336001600160a01b03167f695aa78ae24e967a966877abedf194857bfa20d094e27d7c2e88d403543f925984604051610a5e91815260200190565b60405180910390a360016097559392505050565b610a7a611590565b60cb5460ce5460405163095ea7b360e01b81526001600160a01b039283169263095ea7b392610ab192911690600090600401611a26565b6020604051808303816000875af1158015610ad0573d6000803e3d6000fd5b505050506040513d601f19601f82011682018060405250810190610af49190611a9a565b5060cb80546001600160a01b0319166001600160a01b0383811691821790925560ce5460405163095ea7b360e01b8152919263095ea7b392610b40929091169060001990600401611a26565b6020604051808303816000875af1158015610b5f573d6000803e3d6000fd5b505050506040513d601f19601f82011682018060405250810190610b839190611a9a565b506040516001600160a01b03821681527f1c51d83fbf878c22f78dd72bd5f93a9adfa124683a91b2ad431f10c9ff731db4906020016108f0565b610bc5611590565b60d180546001600160a01b0319166001600160a01b0383169081179091556040519081527f040f8685967d0ec7d53fddb0553facb607289a63d5ef53432b9e19f3ea40f507906020016108f0565b6033546001600160a01b0316331480610c36575060d0546001600160a01b031633145b610c525760405162461bcd60e51b81526004016105df90611a3f565b610c5a611465565b60026097541415610c7d5760405162461bcd60e51b81526004016105df906119d6565b60026097556001600160a01b038216610c9557600080fd5b60cd5460d1546040516301f3b14360e51b81526001600160a01b0392831692633e76286092610ccd9291169086908690600401611a76565b6020604051808303816000875af1158015610cec573d6000803e3d6000fd5b505050506040513d601f19601f82011682018060405250810190610d109190611a0d565b506040518181526001600160a01b0383169033907f695aa78ae24e967a966877abedf194857bfa20d094e27d7c2e88d403543f92599060200160405180910390a350506001609755565b610d62611590565b610d6c60006115ea565b565b610d76611590565b610d6c61163c565b6000610d88611465565b60026097541415610dab5760405162461bcd60e51b81526004016105df906119d6565b600260975560cd546040805163f6326fb360e01b815290516001600160a01b039092169163f6326fb39134916004808301926020929190829003018185885af1158015610dfc573d6000803e3d6000fd5b50505050506040513d601f19601f82011682018060405250810190610e219190611a0d565b9050610e2d3382611696565b60405181815233907fe1fffcc4923d04b559f4d29a8bfc6cda04eb5b0d3c460751c2402c5c5cc9109c9060200160405180910390a2600160975590565b60cd546040516352412d4960e01b81526001600160a01b03838116600483015260009216906352412d4990602401602060405180830381865afa158015610eb5573d6000803e3d6000fd5b505050506040513d601f19601f82011682018060405250810190610ed99190611a0d565b92915050565b610ee7611590565b60d080546001600160a01b0319166001600160a01b0383169081179091556040519081527fcf16493c33f7a5001593c6b3158b6613c39a56bed7e2fe27f83a7ee297b6e32a906020016108f0565b610f3d611590565b60cb5460ce5460405163095ea7b360e01b81526001600160a01b039283169263095ea7b392610f7492911690600090600401611a26565b6020604051808303816000875af1158015610f93573d6000803e3d6000fd5b505050506040513d601f19601f82011682018060405250810190610fb79190611a9a565b5060ce80546001600160a01b0319166001600160a01b0383811691821790925560cb5460405163095ea7b360e01b815292169163095ea7b3916110009160001990600401611a26565b6020604051808303816000875af115801561101f573d6000803e3d6000fd5b505050506040513d601f19601f820116820180604052508101906110439190611a9a565b506040516001600160a01b03821681527f31a1aa5f369c073ebb0b9d07b962961a2fcaf8ae160e6485f220450f9d7f8c53906020016108f0565b611085611465565b6033546001600160a01b03163314806110a8575060d0546001600160a01b031633145b6110c45760405162461bcd60e51b81526004016105df90611a3f565b600260975414156110e75760405162461bcd60e51b81526004016105df906119d6565b60026097556001600160a01b0382166110ff57600080fd5b60cc54604051632770a7eb60e21b81526001600160a01b0390911690639dc29fac906108639085908590600401611a26565b60cd546040516336507a2b60e21b81526000916001600160a01b03169063d941e8ac906111649086908690600401611a26565b602060405180830381865afa158015611181573d6000803e3d6000fd5b505050506040513d601f19601f820116820180604052508101906111a59190611a0d565b9392505050565b6111b4611590565b6001600160a01b0381166112195760405162461bcd60e51b815260206004820152602660248201527f4f776e61626c653a206e6577206f776e657220697320746865207a65726f206160448201526564647265737360d01b60648201526084016105df565b611222816115ea565b50565b61122d611590565b610d6c611745565b600054610100900460ff16158080156112555750600054600160ff909116105b8061126f5750303b15801561126f575060005460ff166001145b6112d25760405162461bcd60e51b815260206004820152602e60248201527f496e697469616c697a61626c653a20636f6e747261637420697320616c72656160448201526d191e481a5b9a5d1a585b1a5e995960921b60648201526084016105df565b6000805460ff1916600117905580156112f5576000805461ff0019166101001790555b6112fd61177e565b6113056117ad565b61130d6117dc565b60cc80546001600160a01b038088166001600160a01b03199283161790925560cb8054868416908316811790915560cd805488851690841617905560ce80549386169390921692909217905560405163095ea7b360e01b815263095ea7b39061137e90859060001990600401611a26565b6020604051808303816000875af115801561139d573d6000803e3d6000fd5b505050506040513d601f19601f820116820180604052508101906113c19190611a9a565b508015611408576000805461ff0019169055604051600181527f7f26b83ff96e1f2b6a682f133852f6798a09c465da95921460cefb38474024989060200160405180910390a15b5050505050565b611417611590565b60cd80546001600160a01b0319166001600160a01b0383169081179091556040519081527f2275a26cd5ce1dd1762303deec2666d22e1ffaa76311b9bc3617deb131585711906020016108f0565b60655460ff1615610d6c5760405162461bcd60e51b815260206004820152601060248201526f14185d5cd8589b194e881c185d5cd95960821b60448201526064016105df565b60ce5460cb54604051636ce5768960e11b81526001600160a01b039283169263d9caed12926114e4928792909116908690600401611a76565b6020604051808303816000875af1158015611503573d6000803e3d6000fd5b505050506040513d601f19601f820116820180604052508101906115279190611a0d565b5060cc54604051632770a7eb60e21b81526001600160a01b0390911690639dc29fac9061155a9085908590600401611a26565b600060405180830381600087803b15801561157457600080fd5b505af1158015611588573d6000803e3d6000fd5b505050505050565b6033546001600160a01b03163314610d6c5760405162461bcd60e51b815260206004820181905260248201527f4f776e61626c653a2063616c6c6572206973206e6f7420746865206f776e657260448201526064016105df565b603380546001600160a01b038381166001600160a01b0319831681179093556040519116919082907f8be0079c531659141344cd1fd0a4f28419497f9722a3daafe3b4186f6b6457e090600090a35050565b611644611465565b6065805460ff191660011790557f62e78cea01bee320cd4e420270b5ea74000d11b0c9f74754ebdbfc544b05a2586116793390565b6040516001600160a01b03909116815260200160405180910390a1565b60ce5460cb54604051638340f54960e01b81526001600160a01b0392831692638340f549926116cf928792909116908690600401611a76565b6020604051808303816000875af11580156116ee573d6000803e3d6000fd5b505050506040513d601f19601f820116820180604052508101906117129190611a0d565b5060cc546040516340c10f1960e01b81526001600160a01b03909116906340c10f199061155a9085908590600401611a26565b61174d61180b565b6065805460ff191690557f5db9ee0a495bf2e6ff9c91a7834c1ba4fdd244a5e8aa4e537bd38aeae4b073aa33611679565b600054610100900460ff166117a55760405162461bcd60e51b81526004016105df90611abc565b610d6c611854565b600054610100900460ff166117d45760405162461bcd60e51b81526004016105df90611abc565b610d6c611884565b600054610100900460ff166118035760405162461bcd60e51b81526004016105df90611abc565b610d6c6118b7565b60655460ff16610d6c5760405162461bcd60e51b815260206004820152601460248201527314185d5cd8589b194e881b9bdd081c185d5cd95960621b60448201526064016105df565b600054610100900460ff1661187b5760405162461bcd60e51b81526004016105df90611abc565b610d6c336115ea565b600054610100900460ff166118ab5760405162461bcd60e51b81526004016105df90611abc565b6065805460ff19169055565b600054610100900460ff166118de5760405162461bcd60e51b81526004016105df90611abc565b6001609755565b80356001600160a01b03811681146118fc57600080fd5b919050565b6000806040838503121561191457600080fd5b61191d836118e5565b946020939093013593505050565b60006020828403121561193d57600080fd5b6111a5826118e5565b60008060006060848603121561195b57600080fd5b611964846118e5565b9250611972602085016118e5565b9150604084013590509250925092565b6000806000806080858703121561199857600080fd5b6119a1856118e5565b93506119af602086016118e5565b92506119bd604086016118e5565b91506119cb606086016118e5565b905092959194509250565b6020808252601f908201527f5265656e7472616e637947756172643a207265656e7472616e742063616c6c00604082015260600190565b600060208284031215611a1f57600080fd5b5051919050565b6001600160a01b03929092168252602082015260400190565b60208082526019908201527f41756374696f6e50726f78793a206e6f7420616c6c6f77656400000000000000604082015260600190565b6001600160a01b039384168152919092166020820152604081019190915260600190565b600060208284031215611aac57600080fd5b815180151581146111a557600080fd5b6020808252602b908201527f496e697469616c697a61626c653a20636f6e7472616374206973206e6f74206960408201526a6e697469616c697a696e6760a81b60608201526080019056fea2646970667358221220937af9b3a86a564583110c4319b37a0539a9dc23e8bb6422d12fc6098877cb4a64736f6c634300080a0033",
					"opcodes": "PUSH1 0x80 PUSH1 0x40 MSTORE CALLVALUE DUP1 ISZERO PUSH2 0x10 JUMPI PUSH1 0x0 DUP1 REVERT JUMPDEST POP PUSH2 0x1B3D DUP1 PUSH2 0x20 PUSH1 0x0 CODECOPY PUSH1 0x0 RETURN INVALID PUSH1 0x80 PUSH1 0x40 MSTORE PUSH1 0x4 CALLDATASIZE LT PUSH2 0x1D8 JUMPI PUSH1 0x0 CALLDATALOAD PUSH1 0xE0 SHR DUP1 PUSH4 0x8456CB59 GT PUSH2 0x102 JUMPI DUP1 PUSH4 0xD8826FEC GT PUSH2 0x95 JUMPI DUP1 PUSH4 0xF2FDE38B GT PUSH2 0x64 JUMPI DUP1 PUSH4 0xF2FDE38B EQ PUSH2 0x53D JUMPI DUP1 PUSH4 0xF7B188A5 EQ PUSH2 0x55D JUMPI DUP1 PUSH4 0xF8C8765E EQ PUSH2 0x572 JUMPI DUP1 PUSH4 0xFE1C6C94 EQ PUSH2 0x592 JUMPI PUSH1 0x0 DUP1 REVERT JUMPDEST DUP1 PUSH4 0xD8826FEC EQ PUSH2 0x4BD JUMPI DUP1 PUSH4 0xDF3D23AE EQ PUSH2 0x4DD JUMPI DUP1 PUSH4 0xE0683726 EQ PUSH2 0x4FD JUMPI DUP1 PUSH4 0xE871405B EQ PUSH2 0x51D JUMPI PUSH1 0x0 DUP1 REVERT JUMPDEST DUP1 PUSH4 0xB99152D0 GT PUSH2 0xD1 JUMPI DUP1 PUSH4 0xB99152D0 EQ PUSH2 0x43D JUMPI DUP1 PUSH4 0xC4031841 EQ PUSH2 0x45D JUMPI DUP1 PUSH4 0xCC2EFFDC EQ PUSH2 0x47D JUMPI DUP1 PUSH4 0xD25C7439 EQ PUSH2 0x49D JUMPI PUSH1 0x0 DUP1 REVERT JUMPDEST DUP1 PUSH4 0x8456CB59 EQ PUSH2 0x3E2 JUMPI DUP1 PUSH4 0x8DA5CB5B EQ PUSH2 0x3F7 JUMPI DUP1 PUSH4 0x9479CFA2 EQ PUSH2 0x415 JUMPI DUP1 PUSH4 0xB9472535 EQ PUSH2 0x435 JUMPI PUSH1 0x0 DUP1 REVERT JUMPDEST DUP1 PUSH4 0x3FD44F17 GT PUSH2 0x17A JUMPI DUP1 PUSH4 0x6E8D9A18 GT PUSH2 0x149 JUMPI DUP1 PUSH4 0x6E8D9A18 EQ PUSH2 0x36D JUMPI DUP1 PUSH4 0x6F2BB86A EQ PUSH2 0x38D JUMPI DUP1 PUSH4 0x70B0A843 EQ PUSH2 0x3AD JUMPI DUP1 PUSH4 0x715018A6 EQ PUSH2 0x3CD JUMPI PUSH1 0x0 DUP1 REVERT JUMPDEST DUP1 PUSH4 0x3FD44F17 EQ PUSH2 0x2EA JUMPI DUP1 PUSH4 0x5A58F9D5 EQ PUSH2 0x30A JUMPI DUP1 PUSH4 0x5C975ABB EQ PUSH2 0x32A JUMPI DUP1 PUSH4 0x636FC28B EQ PUSH2 0x34D JUMPI PUSH1 0x0 DUP1 REVERT JUMPDEST DUP1 PUSH4 0x232DA7FE GT PUSH2 0x1B6 JUMPI DUP1 PUSH4 0x232DA7FE EQ PUSH2 0x26A JUMPI DUP1 PUSH4 0x358B2B1A EQ PUSH2 0x28A JUMPI DUP1 PUSH4 0x3AF82C59 EQ PUSH2 0x2AA JUMPI DUP1 PUSH4 0x3E9EC161 EQ PUSH2 0x2CA JUMPI PUSH1 0x0 DUP1 REVERT JUMPDEST DUP1 PUSH4 0x357371D EQ PUSH2 0x1DD JUMPI DUP1 PUSH4 0x14866AEF EQ PUSH2 0x210 JUMPI DUP1 PUSH4 0x1EE92D84 EQ PUSH2 0x232 JUMPI JUMPDEST PUSH1 0x0 DUP1 REVERT JUMPDEST CALLVALUE DUP1 ISZERO PUSH2 0x1E9 JUMPI PUSH1 0x0 DUP1 REVERT JUMPDEST POP PUSH2 0x1FD PUSH2 0x1F8 CALLDATASIZE PUSH1 0x4 PUSH2 0x1901 JUMP JUMPDEST PUSH2 0x5B2 JUMP JUMPDEST PUSH1 0x40 MLOAD SWAP1 DUP2 MSTORE PUSH1 0x20 ADD JUMPDEST PUSH1 0x40 MLOAD DUP1 SWAP2 SUB SWAP1 RETURN JUMPDEST CALLVALUE DUP1 ISZERO PUSH2 0x21C JUMPI PUSH1 0x0 DUP1 REVERT JUMPDEST POP PUSH2 0x230 PUSH2 0x22B CALLDATASIZE PUSH1 0x4 PUSH2 0x1901 JUMP JUMPDEST PUSH2 0x7AF JUMP JUMPDEST STOP JUMPDEST CALLVALUE DUP1 ISZERO PUSH2 0x23E JUMPI PUSH1 0x0 DUP1 REVERT JUMPDEST POP PUSH1 0xCD SLOAD PUSH2 0x252 SWAP1 PUSH1 0x1 PUSH1 0x1 PUSH1 0xA0 SHL SUB AND DUP2 JUMP JUMPDEST PUSH1 0x40 MLOAD PUSH1 0x1 PUSH1 0x1 PUSH1 0xA0 SHL SUB SWAP1 SWAP2 AND DUP2 MSTORE PUSH1 0x20 ADD PUSH2 0x207 JUMP JUMPDEST CALLVALUE DUP1 ISZERO PUSH2 0x276 JUMPI PUSH1 0x0 DUP1 REVERT JUMPDEST POP PUSH2 0x230 PUSH2 0x285 CALLDATASIZE PUSH1 0x4 PUSH2 0x192B JUMP JUMPDEST PUSH2 0x89E JUMP JUMPDEST CALLVALUE DUP1 ISZERO PUSH2 0x296 JUMPI PUSH1 0x0 DUP1 REVERT JUMPDEST POP PUSH1 0xCC SLOAD PUSH2 0x252 SWAP1 PUSH1 0x1 PUSH1 0x1 PUSH1 0xA0 SHL SUB AND DUP2 JUMP JUMPDEST CALLVALUE DUP1 ISZERO PUSH2 0x2B6 JUMPI PUSH1 0x0 DUP1 REVERT JUMPDEST POP PUSH2 0x230 PUSH2 0x2C5 CALLDATASIZE PUSH1 0x4 PUSH2 0x192B JUMP JUMPDEST PUSH2 0x8FB JUMP JUMPDEST CALLVALUE DUP1 ISZERO PUSH2 0x2D6 JUMPI PUSH1 0x0 DUP1 REVERT JUMPDEST POP PUSH2 0x1FD PUSH2 0x2E5 CALLDATASIZE PUSH1 0x4 PUSH2 0x1946 JUMP JUMPDEST PUSH2 0x951 JUMP JUMPDEST CALLVALUE DUP1 ISZERO PUSH2 0x2F6 JUMPI PUSH1 0x0 DUP1 REVERT JUMPDEST POP PUSH2 0x230 PUSH2 0x305 CALLDATASIZE PUSH1 0x4 PUSH2 0x192B JUMP JUMPDEST PUSH2 0xA72 JUMP JUMPDEST CALLVALUE DUP1 ISZERO PUSH2 0x316 JUMPI PUSH1 0x0 DUP1 REVERT JUMPDEST POP PUSH2 0x230 PUSH2 0x325 CALLDATASIZE PUSH1 0x4 PUSH2 0x192B JUMP JUMPDEST PUSH2 0xBBD JUMP JUMPDEST CALLVALUE DUP1 ISZERO PUSH2 0x336 JUMPI PUSH1 0x0 DUP1 REVERT JUMPDEST POP PUSH1 0x65 SLOAD PUSH1 0xFF AND PUSH1 0x40 MLOAD SWAP1 ISZERO ISZERO DUP2 MSTORE PUSH1 0x20 ADD PUSH2 0x207 JUMP JUMPDEST CALLVALUE DUP1 ISZERO PUSH2 0x359 JUMPI PUSH1 0x0 DUP1 REVERT JUMPDEST POP PUSH1 0xCF SLOAD PUSH2 0x252 SWAP1 PUSH1 0x1 PUSH1 0x1 PUSH1 0xA0 SHL SUB AND DUP2 JUMP JUMPDEST CALLVALUE DUP1 ISZERO PUSH2 0x379 JUMPI PUSH1 0x0 DUP1 REVERT JUMPDEST POP PUSH1 0xCB SLOAD PUSH2 0x252 SWAP1 PUSH1 0x1 PUSH1 0x1 PUSH1 0xA0 SHL SUB AND DUP2 JUMP JUMPDEST CALLVALUE DUP1 ISZERO PUSH2 0x399 JUMPI PUSH1 0x0 DUP1 REVERT JUMPDEST POP PUSH2 0x230 PUSH2 0x3A8 CALLDATASIZE PUSH1 0x4 PUSH2 0x1901 JUMP JUMPDEST PUSH2 0xC13 JUMP JUMPDEST CALLVALUE DUP1 ISZERO PUSH2 0x3B9 JUMPI PUSH1 0x0 DUP1 REVERT JUMPDEST POP PUSH1 0xC9 SLOAD PUSH2 0x252 SWAP1 PUSH1 0x1 PUSH1 0x1 PUSH1 0xA0 SHL SUB AND DUP2 JUMP JUMPDEST CALLVALUE DUP1 ISZERO PUSH2 0x3D9 JUMPI PUSH1 0x0 DUP1 REVERT JUMPDEST POP PUSH2 0x230 PUSH2 0xD5A JUMP JUMPDEST CALLVALUE DUP1 ISZERO PUSH2 0x3EE JUMPI PUSH1 0x0 DUP1 REVERT JUMPDEST POP PUSH2 0x230 PUSH2 0xD6E JUMP JUMPDEST CALLVALUE DUP1 ISZERO PUSH2 0x403 JUMPI PUSH1 0x0 DUP1 REVERT JUMPDEST POP PUSH1 0x33 SLOAD PUSH1 0x1 PUSH1 0x1 PUSH1 0xA0 SHL SUB AND PUSH2 0x252 JUMP JUMPDEST CALLVALUE DUP1 ISZERO PUSH2 0x421 JUMPI PUSH1 0x0 DUP1 REVERT JUMPDEST POP PUSH1 0xCA SLOAD PUSH2 0x252 SWAP1 PUSH1 0x1 PUSH1 0x1 PUSH1 0xA0 SHL SUB AND DUP2 JUMP JUMPDEST PUSH2 0x1FD PUSH2 0xD7E JUMP JUMPDEST CALLVALUE DUP1 ISZERO PUSH2 0x449 JUMPI PUSH1 0x0 DUP1 REVERT JUMPDEST POP PUSH2 0x1FD PUSH2 0x458 CALLDATASIZE PUSH1 0x4 PUSH2 0x192B JUMP JUMPDEST PUSH2 0xE6A JUMP JUMPDEST CALLVALUE DUP1 ISZERO PUSH2 0x469 JUMPI PUSH1 0x0 DUP1 REVERT JUMPDEST POP PUSH2 0x230 PUSH2 0x478 CALLDATASIZE PUSH1 0x4 PUSH2 0x192B JUMP JUMPDEST PUSH2 0xEDF JUMP JUMPDEST CALLVALUE DUP1 ISZERO PUSH2 0x489 JUMPI PUSH1 0x0 DUP1 REVERT JUMPDEST POP PUSH1 0xD0 SLOAD PUSH2 0x252 SWAP1 PUSH1 0x1 PUSH1 0x1 PUSH1 0xA0 SHL SUB AND DUP2 JUMP JUMPDEST CALLVALUE DUP1 ISZERO PUSH2 0x4A9 JUMPI PUSH1 0x0 DUP1 REVERT JUMPDEST POP PUSH1 0xD1 SLOAD PUSH2 0x252 SWAP1 PUSH1 0x1 PUSH1 0x1 PUSH1 0xA0 SHL SUB AND DUP2 JUMP JUMPDEST CALLVALUE DUP1 ISZERO PUSH2 0x4C9 JUMPI PUSH1 0x0 DUP1 REVERT JUMPDEST POP PUSH2 0x230 PUSH2 0x4D8 CALLDATASIZE PUSH1 0x4 PUSH2 0x192B JUMP JUMPDEST PUSH2 0xF35 JUMP JUMPDEST CALLVALUE DUP1 ISZERO PUSH2 0x4E9 JUMPI PUSH1 0x0 DUP1 REVERT JUMPDEST POP PUSH2 0x230 PUSH2 0x4F8 CALLDATASIZE PUSH1 0x4 PUSH2 0x1901 JUMP JUMPDEST PUSH2 0x107D JUMP JUMPDEST CALLVALUE DUP1 ISZERO PUSH2 0x509 JUMPI PUSH1 0x0 DUP1 REVERT JUMPDEST POP PUSH1 0xCE SLOAD PUSH2 0x252 SWAP1 PUSH1 0x1 PUSH1 0x1 PUSH1 0xA0 SHL SUB AND DUP2 JUMP JUMPDEST CALLVALUE DUP1 ISZERO PUSH2 0x529 JUMPI PUSH1 0x0 DUP1 REVERT JUMPDEST POP PUSH2 0x1FD PUSH2 0x538 CALLDATASIZE PUSH1 0x4 PUSH2 0x1901 JUMP JUMPDEST PUSH2 0x1131 JUMP JUMPDEST CALLVALUE DUP1 ISZERO PUSH2 0x549 JUMPI PUSH1 0x0 DUP1 REVERT JUMPDEST POP PUSH2 0x230 PUSH2 0x558 CALLDATASIZE PUSH1 0x4 PUSH2 0x192B JUMP JUMPDEST PUSH2 0x11AC JUMP JUMPDEST CALLVALUE DUP1 ISZERO PUSH2 0x569 JUMPI PUSH1 0x0 DUP1 REVERT JUMPDEST POP PUSH2 0x230 PUSH2 0x1225 JUMP JUMPDEST CALLVALUE DUP1 ISZERO PUSH2 0x57E JUMPI PUSH1 0x0 DUP1 REVERT JUMPDEST POP PUSH2 0x230 PUSH2 0x58D CALLDATASIZE PUSH1 0x4 PUSH2 0x1982 JUMP JUMPDEST PUSH2 0x1235 JUMP JUMPDEST CALLVALUE DUP1 ISZERO PUSH2 0x59E JUMPI PUSH1 0x0 DUP1 REVERT JUMPDEST POP PUSH2 0x230 PUSH2 0x5AD CALLDATASIZE PUSH1 0x4 PUSH2 0x192B JUMP JUMPDEST PUSH2 0x140F JUMP JUMPDEST PUSH1 0x0 PUSH2 0x5BC PUSH2 0x1465 JUMP JUMPDEST PUSH1 0x2 PUSH1 0x97 SLOAD EQ ISZERO PUSH2 0x5E8 JUMPI PUSH1 0x40 MLOAD PUSH3 0x461BCD PUSH1 0xE5 SHL DUP2 MSTORE PUSH1 0x4 ADD PUSH2 0x5DF SWAP1 PUSH2 0x19D6 JUMP JUMPDEST PUSH1 0x40 MLOAD DUP1 SWAP2 SUB SWAP1 REVERT JUMPDEST PUSH1 0x2 PUSH1 0x97 SSTORE PUSH1 0x1 PUSH1 0x1 PUSH1 0xA0 SHL SUB DUP4 AND PUSH2 0x600 JUMPI PUSH1 0x0 DUP1 REVERT JUMPDEST PUSH1 0xCF SLOAD PUSH1 0x40 DUP1 MLOAD PUSH3 0xD31115 PUSH1 0xE2 SHL DUP2 MSTORE SWAP1 MLOAD PUSH1 0x0 SWAP3 PUSH1 0x1 PUSH1 0x1 PUSH1 0xA0 SHL SUB AND SWAP2 PUSH4 0x34C4454 SWAP2 PUSH1 0x4 DUP1 DUP4 ADD SWAP3 PUSH1 0x20 SWAP3 SWAP2 SWAP1 DUP3 SWAP1 SUB ADD DUP2 DUP7 GAS STATICCALL ISZERO DUP1 ISZERO PUSH2 0x649 JUMPI RETURNDATASIZE PUSH1 0x0 DUP1 RETURNDATACOPY RETURNDATASIZE PUSH1 0x0 REVERT JUMPDEST POP POP POP POP PUSH1 0x40 MLOAD RETURNDATASIZE PUSH1 0x1F NOT PUSH1 0x1F DUP3 ADD AND DUP3 ADD DUP1 PUSH1 0x40 MSTORE POP DUP2 ADD SWAP1 PUSH2 0x66D SWAP2 SWAP1 PUSH2 0x1A0D JUMP JUMPDEST SWAP1 POP DUP1 DUP4 LT ISZERO PUSH2 0x6D5 JUMPI PUSH1 0x40 MLOAD PUSH3 0x461BCD PUSH1 0xE5 SHL DUP2 MSTORE PUSH1 0x20 PUSH1 0x4 DUP3 ADD MSTORE PUSH1 0x2D PUSH1 0x24 DUP3 ADD MSTORE PUSH32 0x76616C7565206D7573742062652067726561746572207468616E206D696E2075 PUSH1 0x44 DUP3 ADD MSTORE PUSH13 0x1B9CDD185AD948185B5BDD5B9D PUSH1 0x9A SHL PUSH1 0x64 DUP3 ADD MSTORE PUSH1 0x84 ADD PUSH2 0x5DF JUMP JUMPDEST PUSH2 0x6DF CALLER DUP5 PUSH2 0x14AB JUMP JUMPDEST PUSH1 0xCD SLOAD PUSH1 0x40 MLOAD PUSH4 0x4782F779 PUSH1 0xE0 SHL DUP2 MSTORE PUSH1 0x1 PUSH1 0x1 PUSH1 0xA0 SHL SUB SWAP1 SWAP2 AND SWAP1 PUSH4 0x4782F779 SWAP1 PUSH2 0x711 SWAP1 DUP8 SWAP1 DUP8 SWAP1 PUSH1 0x4 ADD PUSH2 0x1A26 JUMP JUMPDEST PUSH1 0x20 PUSH1 0x40 MLOAD DUP1 DUP4 SUB DUP2 PUSH1 0x0 DUP8 GAS CALL ISZERO DUP1 ISZERO PUSH2 0x730 JUMPI RETURNDATASIZE PUSH1 0x0 DUP1 RETURNDATACOPY RETURNDATASIZE PUSH1 0x0 REVERT JUMPDEST POP POP POP POP PUSH1 0x40 MLOAD RETURNDATASIZE PUSH1 0x1F NOT PUSH1 0x1F DUP3 ADD AND DUP3 ADD DUP1 PUSH1 0x40 MSTORE POP DUP2 ADD SWAP1 PUSH2 0x754 SWAP2 SWAP1 PUSH2 0x1A0D JUMP JUMPDEST SWAP2 POP DUP4 PUSH1 0x1 PUSH1 0x1 PUSH1 0xA0 SHL SUB AND CALLER PUSH1 0x1 PUSH1 0x1 PUSH1 0xA0 SHL SUB AND PUSH32 0x2717EAD6B9200DD235AAD468C9809EA400FE33AC69B5BFAA6D3E90FC922B6398 DUP6 PUSH1 0x40 MLOAD PUSH2 0x79B SWAP2 DUP2 MSTORE PUSH1 0x20 ADD SWAP1 JUMP JUMPDEST PUSH1 0x40 MLOAD DUP1 SWAP2 SUB SWAP1 LOG3 POP PUSH1 0x1 PUSH1 0x97 SSTORE SWAP3 SWAP2 POP POP JUMP JUMPDEST PUSH2 0x7B7 PUSH2 0x1465 JUMP JUMPDEST PUSH1 0x33 SLOAD PUSH1 0x1 PUSH1 0x1 PUSH1 0xA0 SHL SUB AND CALLER EQ DUP1 PUSH2 0x7DA JUMPI POP PUSH1 0xD0 SLOAD PUSH1 0x1 PUSH1 0x1 PUSH1 0xA0 SHL SUB AND CALLER EQ JUMPDEST PUSH2 0x7F6 JUMPI PUSH1 0x40 MLOAD PUSH3 0x461BCD PUSH1 0xE5 SHL DUP2 MSTORE PUSH1 0x4 ADD PUSH2 0x5DF SWAP1 PUSH2 0x1A3F JUMP JUMPDEST PUSH1 0x2 PUSH1 0x97 SLOAD EQ ISZERO PUSH2 0x819 JUMPI PUSH1 0x40 MLOAD PUSH3 0x461BCD PUSH1 0xE5 SHL DUP2 MSTORE PUSH1 0x4 ADD PUSH2 0x5DF SWAP1 PUSH2 0x19D6 JUMP JUMPDEST PUSH1 0x2 PUSH1 0x97 SSTORE PUSH1 0x1 PUSH1 0x1 PUSH1 0xA0 SHL SUB DUP3 AND PUSH2 0x831 JUMPI PUSH1 0x0 DUP1 REVERT JUMPDEST PUSH1 0xCC SLOAD PUSH1 0x40 MLOAD PUSH4 0x40C10F19 PUSH1 0xE0 SHL DUP2 MSTORE PUSH1 0x1 PUSH1 0x1 PUSH1 0xA0 SHL SUB SWAP1 SWAP2 AND SWAP1 PUSH4 0x40C10F19 SWAP1 PUSH2 0x863 SWAP1 DUP6 SWAP1 DUP6 SWAP1 PUSH1 0x4 ADD PUSH2 0x1A26 JUMP JUMPDEST PUSH1 0x0 PUSH1 0x40 MLOAD DUP1 DUP4 SUB DUP2 PUSH1 0x0 DUP8 DUP1 EXTCODESIZE ISZERO DUP1 ISZERO PUSH2 0x87D JUMPI PUSH1 0x0 DUP1 REVERT JUMPDEST POP GAS CALL ISZERO DUP1 ISZERO PUSH2 0x891 JUMPI RETURNDATASIZE PUSH1 0x0 DUP1 RETURNDATACOPY RETURNDATASIZE PUSH1 0x0 REVERT JUMPDEST POP POP PUSH1 0x1 PUSH1 0x97 SSTORE POP POP POP POP JUMP JUMPDEST PUSH2 0x8A6 PUSH2 0x1590 JUMP JUMPDEST PUSH1 0xCC DUP1 SLOAD PUSH1 0x1 PUSH1 0x1 PUSH1 0xA0 SHL SUB NOT AND PUSH1 0x1 PUSH1 0x1 PUSH1 0xA0 SHL SUB DUP4 AND SWAP1 DUP2 OR SWAP1 SWAP2 SSTORE PUSH1 0x40 MLOAD SWAP1 DUP2 MSTORE PUSH32 0x5AB190AC1B858818C30B831D9BD74E6BEF6F75DE987D59F1BEB4AAB85D064832 SWAP1 PUSH1 0x20 ADD JUMPDEST PUSH1 0x40 MLOAD DUP1 SWAP2 SUB SWAP1 LOG1 POP JUMP JUMPDEST PUSH2 0x903 PUSH2 0x1590 JUMP JUMPDEST PUSH1 0xCF DUP1 SLOAD PUSH1 0x1 PUSH1 0x1 PUSH1 0xA0 SHL SUB NOT AND PUSH1 0x1 PUSH1 0x1 PUSH1 0xA0 SHL SUB DUP4 AND SWAP1 DUP2 OR SWAP1 SWAP2 SSTORE PUSH1 0x40 MLOAD SWAP1 DUP2 MSTORE PUSH32 0xC7C1B39B4C8950340EE2DDC449A99E16D5E090B420DB2E99160D82A9FF5580D9 SWAP1 PUSH1 0x20 ADD PUSH2 0x8F0 JUMP JUMPDEST PUSH1 0x0 PUSH2 0x95B PUSH2 0x1465 JUMP JUMPDEST PUSH1 0x2 PUSH1 0x97 SLOAD EQ ISZERO PUSH2 0x97E JUMPI PUSH1 0x40 MLOAD PUSH3 0x461BCD PUSH1 0xE5 SHL DUP2 MSTORE PUSH1 0x4 ADD PUSH2 0x5DF SWAP1 PUSH2 0x19D6 JUMP JUMPDEST PUSH1 0x2 PUSH1 0x97 SSTORE PUSH1 0x1 PUSH1 0x1 PUSH1 0xA0 SHL SUB DUP4 AND PUSH2 0x996 JUMPI PUSH1 0x0 DUP1 REVERT JUMPDEST PUSH2 0x9A0 CALLER DUP4 PUSH2 0x14AB JUMP JUMPDEST PUSH1 0xCD SLOAD PUSH1 0x40 MLOAD PUSH4 0x1F3B143 PUSH1 0xE5 SHL DUP2 MSTORE PUSH1 0x1 PUSH1 0x1 PUSH1 0xA0 SHL SUB SWAP1 SWAP2 AND SWAP1 PUSH4 0x3E762860 SWAP1 PUSH2 0x9D4 SWAP1 DUP8 SWAP1 DUP8 SWAP1 DUP8 SWAP1 PUSH1 0x4 ADD PUSH2 0x1A76 JUMP JUMPDEST PUSH1 0x20 PUSH1 0x40 MLOAD DUP1 DUP4 SUB DUP2 PUSH1 0x0 DUP8 GAS CALL ISZERO DUP1 ISZERO PUSH2 0x9F3 JUMPI RETURNDATASIZE PUSH1 0x0 DUP1 RETURNDATACOPY RETURNDATASIZE PUSH1 0x0 REVERT JUMPDEST POP POP POP POP PUSH1 0x40 MLOAD RETURNDATASIZE PUSH1 0x1F NOT PUSH1 0x1F DUP3 ADD AND DUP3 ADD DUP1 PUSH1 0x40 MSTORE POP DUP2 ADD SWAP1 PUSH2 0xA17 SWAP2 SWAP1 PUSH2 0x1A0D JUMP JUMPDEST SWAP1 POP DUP3 PUSH1 0x1 PUSH1 0x1 PUSH1 0xA0 SHL SUB AND CALLER PUSH1 0x1 PUSH1 0x1 PUSH1 0xA0 SHL SUB AND PUSH32 0x695AA78AE24E967A966877ABEDF194857BFA20D094E27D7C2E88D403543F9259 DUP5 PUSH1 0x40 MLOAD PUSH2 0xA5E SWAP2 DUP2 MSTORE PUSH1 0x20 ADD SWAP1 JUMP JUMPDEST PUSH1 0x40 MLOAD DUP1 SWAP2 SUB SWAP1 LOG3 PUSH1 0x1 PUSH1 0x97 SSTORE SWAP4 SWAP3 POP POP POP JUMP JUMPDEST PUSH2 0xA7A PUSH2 0x1590 JUMP JUMPDEST PUSH1 0xCB SLOAD PUSH1 0xCE SLOAD PUSH1 0x40 MLOAD PUSH4 0x95EA7B3 PUSH1 0xE0 SHL DUP2 MSTORE PUSH1 0x1 PUSH1 0x1 PUSH1 0xA0 SHL SUB SWAP3 DUP4 AND SWAP3 PUSH4 0x95EA7B3 SWAP3 PUSH2 0xAB1 SWAP3 SWAP2 AND SWAP1 PUSH1 0x0 SWAP1 PUSH1 0x4 ADD PUSH2 0x1A26 JUMP JUMPDEST PUSH1 0x20 PUSH1 0x40 MLOAD DUP1 DUP4 SUB DUP2 PUSH1 0x0 DUP8 GAS CALL ISZERO DUP1 ISZERO PUSH2 0xAD0 JUMPI RETURNDATASIZE PUSH1 0x0 DUP1 RETURNDATACOPY RETURNDATASIZE PUSH1 0x0 REVERT JUMPDEST POP POP POP POP PUSH1 0x40 MLOAD RETURNDATASIZE PUSH1 0x1F NOT PUSH1 0x1F DUP3 ADD AND DUP3 ADD DUP1 PUSH1 0x40 MSTORE POP DUP2 ADD SWAP1 PUSH2 0xAF4 SWAP2 SWAP1 PUSH2 0x1A9A JUMP JUMPDEST POP PUSH1 0xCB DUP1 SLOAD PUSH1 0x1 PUSH1 0x1 PUSH1 0xA0 SHL SUB NOT AND PUSH1 0x1 PUSH1 0x1 PUSH1 0xA0 SHL SUB DUP4 DUP2 AND SWAP2 DUP3 OR SWAP1 SWAP3 SSTORE PUSH1 0xCE SLOAD PUSH1 0x40 MLOAD PUSH4 0x95EA7B3 PUSH1 0xE0 SHL DUP2 MSTORE SWAP2 SWAP3 PUSH4 0x95EA7B3 SWAP3 PUSH2 0xB40 SWAP3 SWAP1 SWAP2 AND SWAP1 PUSH1 0x0 NOT SWAP1 PUSH1 0x4 ADD PUSH2 0x1A26 JUMP JUMPDEST PUSH1 0x20 PUSH1 0x40 MLOAD DUP1 DUP4 SUB DUP2 PUSH1 0x0 DUP8 GAS CALL ISZERO DUP1 ISZERO PUSH2 0xB5F JUMPI RETURNDATASIZE PUSH1 0x0 DUP1 RETURNDATACOPY RETURNDATASIZE PUSH1 0x0 REVERT JUMPDEST POP POP POP POP PUSH1 0x40 MLOAD RETURNDATASIZE PUSH1 0x1F NOT PUSH1 0x1F DUP3 ADD AND DUP3 ADD DUP1 PUSH1 0x40 MSTORE POP DUP2 ADD SWAP1 PUSH2 0xB83 SWAP2 SWAP1 PUSH2 0x1A9A JUMP JUMPDEST POP PUSH1 0x40 MLOAD PUSH1 0x1 PUSH1 0x1 PUSH1 0xA0 SHL SUB DUP3 AND DUP2 MSTORE PUSH32 0x1C51D83FBF878C22F78DD72BD5F93A9ADFA124683A91B2AD431F10C9FF731DB4 SWAP1 PUSH1 0x20 ADD PUSH2 0x8F0 JUMP JUMPDEST PUSH2 0xBC5 PUSH2 0x1590 JUMP JUMPDEST PUSH1 0xD1 DUP1 SLOAD PUSH1 0x1 PUSH1 0x1 PUSH1 0xA0 SHL SUB NOT AND PUSH1 0x1 PUSH1 0x1 PUSH1 0xA0 SHL SUB DUP4 AND SWAP1 DUP2 OR SWAP1 SWAP2 SSTORE PUSH1 0x40 MLOAD SWAP1 DUP2 MSTORE PUSH32 0x40F8685967D0EC7D53FDDB0553FACB607289A63D5EF53432B9E19F3EA40F507 SWAP1 PUSH1 0x20 ADD PUSH2 0x8F0 JUMP JUMPDEST PUSH1 0x33 SLOAD PUSH1 0x1 PUSH1 0x1 PUSH1 0xA0 SHL SUB AND CALLER EQ DUP1 PUSH2 0xC36 JUMPI POP PUSH1 0xD0 SLOAD PUSH1 0x1 PUSH1 0x1 PUSH1 0xA0 SHL SUB AND CALLER EQ JUMPDEST PUSH2 0xC52 JUMPI PUSH1 0x40 MLOAD PUSH3 0x461BCD PUSH1 0xE5 SHL DUP2 MSTORE PUSH1 0x4 ADD PUSH2 0x5DF SWAP1 PUSH2 0x1A3F JUMP JUMPDEST PUSH2 0xC5A PUSH2 0x1465 JUMP JUMPDEST PUSH1 0x2 PUSH1 0x97 SLOAD EQ ISZERO PUSH2 0xC7D JUMPI PUSH1 0x40 MLOAD PUSH3 0x461BCD PUSH1 0xE5 SHL DUP2 MSTORE PUSH1 0x4 ADD PUSH2 0x5DF SWAP1 PUSH2 0x19D6 JUMP JUMPDEST PUSH1 0x2 PUSH1 0x97 SSTORE PUSH1 0x1 PUSH1 0x1 PUSH1 0xA0 SHL SUB DUP3 AND PUSH2 0xC95 JUMPI PUSH1 0x0 DUP1 REVERT JUMPDEST PUSH1 0xCD SLOAD PUSH1 0xD1 SLOAD PUSH1 0x40 MLOAD PUSH4 0x1F3B143 PUSH1 0xE5 SHL DUP2 MSTORE PUSH1 0x1 PUSH1 0x1 PUSH1 0xA0 SHL SUB SWAP3 DUP4 AND SWAP3 PUSH4 0x3E762860 SWAP3 PUSH2 0xCCD SWAP3 SWAP2 AND SWAP1 DUP7 SWAP1 DUP7 SWAP1 PUSH1 0x4 ADD PUSH2 0x1A76 JUMP JUMPDEST PUSH1 0x20 PUSH1 0x40 MLOAD DUP1 DUP4 SUB DUP2 PUSH1 0x0 DUP8 GAS CALL ISZERO DUP1 ISZERO PUSH2 0xCEC JUMPI RETURNDATASIZE PUSH1 0x0 DUP1 RETURNDATACOPY RETURNDATASIZE PUSH1 0x0 REVERT JUMPDEST POP POP POP POP PUSH1 0x40 MLOAD RETURNDATASIZE PUSH1 0x1F NOT PUSH1 0x1F DUP3 ADD AND DUP3 ADD DUP1 PUSH1 0x40 MSTORE POP DUP2 ADD SWAP1 PUSH2 0xD10 SWAP2 SWAP1 PUSH2 0x1A0D JUMP JUMPDEST POP PUSH1 0x40 MLOAD DUP2 DUP2 MSTORE PUSH1 0x1 PUSH1 0x1 PUSH1 0xA0 SHL SUB DUP4 AND SWAP1 CALLER SWAP1 PUSH32 0x695AA78AE24E967A966877ABEDF194857BFA20D094E27D7C2E88D403543F9259 SWAP1 PUSH1 0x20 ADD PUSH1 0x40 MLOAD DUP1 SWAP2 SUB SWAP1 LOG3 POP POP PUSH1 0x1 PUSH1 0x97 SSTORE JUMP JUMPDEST PUSH2 0xD62 PUSH2 0x1590 JUMP JUMPDEST PUSH2 0xD6C PUSH1 0x0 PUSH2 0x15EA JUMP JUMPDEST JUMP JUMPDEST PUSH2 0xD76 PUSH2 0x1590 JUMP JUMPDEST PUSH2 0xD6C PUSH2 0x163C JUMP JUMPDEST PUSH1 0x0 PUSH2 0xD88 PUSH2 0x1465 JUMP JUMPDEST PUSH1 0x2 PUSH1 0x97 SLOAD EQ ISZERO PUSH2 0xDAB JUMPI PUSH1 0x40 MLOAD PUSH3 0x461BCD PUSH1 0xE5 SHL DUP2 MSTORE PUSH1 0x4 ADD PUSH2 0x5DF SWAP1 PUSH2 0x19D6 JUMP JUMPDEST PUSH1 0x2 PUSH1 0x97 SSTORE PUSH1 0xCD SLOAD PUSH1 0x40 DUP1 MLOAD PUSH4 0xF6326FB3 PUSH1 0xE0 SHL DUP2 MSTORE SWAP1 MLOAD PUSH1 0x1 PUSH1 0x1 PUSH1 0xA0 SHL SUB SWAP1 SWAP3 AND SWAP2 PUSH4 0xF6326FB3 SWAP2 CALLVALUE SWAP2 PUSH1 0x4 DUP1 DUP4 ADD SWAP3 PUSH1 0x20 SWAP3 SWAP2 SWAP1 DUP3 SWAP1 SUB ADD DUP2 DUP6 DUP9 GAS CALL ISZERO DUP1 ISZERO PUSH2 0xDFC JUMPI RETURNDATASIZE PUSH1 0x0 DUP1 RETURNDATACOPY RETURNDATASIZE PUSH1 0x0 REVERT JUMPDEST POP POP POP POP POP PUSH1 0x40 MLOAD RETURNDATASIZE PUSH1 0x1F NOT PUSH1 0x1F DUP3 ADD AND DUP3 ADD DUP1 PUSH1 0x40 MSTORE POP DUP2 ADD SWAP1 PUSH2 0xE21 SWAP2 SWAP1 PUSH2 0x1A0D JUMP JUMPDEST SWAP1 POP PUSH2 0xE2D CALLER DUP3 PUSH2 0x1696 JUMP JUMPDEST PUSH1 0x40 MLOAD DUP2 DUP2 MSTORE CALLER SWAP1 PUSH32 0xE1FFFCC4923D04B559F4D29A8BFC6CDA04EB5B0D3C460751C2402C5C5CC9109C SWAP1 PUSH1 0x20 ADD PUSH1 0x40 MLOAD DUP1 SWAP2 SUB SWAP1 LOG2 PUSH1 0x1 PUSH1 0x97 SSTORE SWAP1 JUMP JUMPDEST PUSH1 0xCD SLOAD PUSH1 0x40 MLOAD PUSH4 0x52412D49 PUSH1 0xE0 SHL DUP2 MSTORE PUSH1 0x1 PUSH1 0x1 PUSH1 0xA0 SHL SUB DUP4 DUP2 AND PUSH1 0x4 DUP4 ADD MSTORE PUSH1 0x0 SWAP3 AND SWAP1 PUSH4 0x52412D49 SWAP1 PUSH1 0x24 ADD PUSH1 0x20 PUSH1 0x40 MLOAD DUP1 DUP4 SUB DUP2 DUP7 GAS STATICCALL ISZERO DUP1 ISZERO PUSH2 0xEB5 JUMPI RETURNDATASIZE PUSH1 0x0 DUP1 RETURNDATACOPY RETURNDATASIZE PUSH1 0x0 REVERT JUMPDEST POP POP POP POP PUSH1 0x40 MLOAD RETURNDATASIZE PUSH1 0x1F NOT PUSH1 0x1F DUP3 ADD AND DUP3 ADD DUP1 PUSH1 0x40 MSTORE POP DUP2 ADD SWAP1 PUSH2 0xED9 SWAP2 SWAP1 PUSH2 0x1A0D JUMP JUMPDEST SWAP3 SWAP2 POP POP JUMP JUMPDEST PUSH2 0xEE7 PUSH2 0x1590 JUMP JUMPDEST PUSH1 0xD0 DUP1 SLOAD PUSH1 0x1 PUSH1 0x1 PUSH1 0xA0 SHL SUB NOT AND PUSH1 0x1 PUSH1 0x1 PUSH1 0xA0 SHL SUB DUP4 AND SWAP1 DUP2 OR SWAP1 SWAP2 SSTORE PUSH1 0x40 MLOAD SWAP1 DUP2 MSTORE PUSH32 0xCF16493C33F7A5001593C6B3158B6613C39A56BED7E2FE27F83A7EE297B6E32A SWAP1 PUSH1 0x20 ADD PUSH2 0x8F0 JUMP JUMPDEST PUSH2 0xF3D PUSH2 0x1590 JUMP JUMPDEST PUSH1 0xCB SLOAD PUSH1 0xCE SLOAD PUSH1 0x40 MLOAD PUSH4 0x95EA7B3 PUSH1 0xE0 SHL DUP2 MSTORE PUSH1 0x1 PUSH1 0x1 PUSH1 0xA0 SHL SUB SWAP3 DUP4 AND SWAP3 PUSH4 0x95EA7B3 SWAP3 PUSH2 0xF74 SWAP3 SWAP2 AND SWAP1 PUSH1 0x0 SWAP1 PUSH1 0x4 ADD PUSH2 0x1A26 JUMP JUMPDEST PUSH1 0x20 PUSH1 0x40 MLOAD DUP1 DUP4 SUB DUP2 PUSH1 0x0 DUP8 GAS CALL ISZERO DUP1 ISZERO PUSH2 0xF93 JUMPI RETURNDATASIZE PUSH1 0x0 DUP1 RETURNDATACOPY RETURNDATASIZE PUSH1 0x0 REVERT JUMPDEST POP POP POP POP PUSH1 0x40 MLOAD RETURNDATASIZE PUSH1 0x1F NOT PUSH1 0x1F DUP3 ADD AND DUP3 ADD DUP1 PUSH1 0x40 MSTORE POP DUP2 ADD SWAP1 PUSH2 0xFB7 SWAP2 SWAP1 PUSH2 0x1A9A JUMP JUMPDEST POP PUSH1 0xCE DUP1 SLOAD PUSH1 0x1 PUSH1 0x1 PUSH1 0xA0 SHL SUB NOT AND PUSH1 0x1 PUSH1 0x1 PUSH1 0xA0 SHL SUB DUP4 DUP2 AND SWAP2 DUP3 OR SWAP1 SWAP3 SSTORE PUSH1 0xCB SLOAD PUSH1 0x40 MLOAD PUSH4 0x95EA7B3 PUSH1 0xE0 SHL DUP2 MSTORE SWAP3 AND SWAP2 PUSH4 0x95EA7B3 SWAP2 PUSH2 0x1000 SWAP2 PUSH1 0x0 NOT SWAP1 PUSH1 0x4 ADD PUSH2 0x1A26 JUMP JUMPDEST PUSH1 0x20 PUSH1 0x40 MLOAD DUP1 DUP4 SUB DUP2 PUSH1 0x0 DUP8 GAS CALL ISZERO DUP1 ISZERO PUSH2 0x101F JUMPI RETURNDATASIZE PUSH1 0x0 DUP1 RETURNDATACOPY RETURNDATASIZE PUSH1 0x0 REVERT JUMPDEST POP POP POP POP PUSH1 0x40 MLOAD RETURNDATASIZE PUSH1 0x1F NOT PUSH1 0x1F DUP3 ADD AND DUP3 ADD DUP1 PUSH1 0x40 MSTORE POP DUP2 ADD SWAP1 PUSH2 0x1043 SWAP2 SWAP1 PUSH2 0x1A9A JUMP JUMPDEST POP PUSH1 0x40 MLOAD PUSH1 0x1 PUSH1 0x1 PUSH1 0xA0 SHL SUB DUP3 AND DUP2 MSTORE PUSH32 0x31A1AA5F369C073EBB0B9D07B962961A2FCAF8AE160E6485F220450F9D7F8C53 SWAP1 PUSH1 0x20 ADD PUSH2 0x8F0 JUMP JUMPDEST PUSH2 0x1085 PUSH2 0x1465 JUMP JUMPDEST PUSH1 0x33 SLOAD PUSH1 0x1 PUSH1 0x1 PUSH1 0xA0 SHL SUB AND CALLER EQ DUP1 PUSH2 0x10A8 JUMPI POP PUSH1 0xD0 SLOAD PUSH1 0x1 PUSH1 0x1 PUSH1 0xA0 SHL SUB AND CALLER EQ JUMPDEST PUSH2 0x10C4 JUMPI PUSH1 0x40 MLOAD PUSH3 0x461BCD PUSH1 0xE5 SHL DUP2 MSTORE PUSH1 0x4 ADD PUSH2 0x5DF SWAP1 PUSH2 0x1A3F JUMP JUMPDEST PUSH1 0x2 PUSH1 0x97 SLOAD EQ ISZERO PUSH2 0x10E7 JUMPI PUSH1 0x40 MLOAD PUSH3 0x461BCD PUSH1 0xE5 SHL DUP2 MSTORE PUSH1 0x4 ADD PUSH2 0x5DF SWAP1 PUSH2 0x19D6 JUMP JUMPDEST PUSH1 0x2 PUSH1 0x97 SSTORE PUSH1 0x1 PUSH1 0x1 PUSH1 0xA0 SHL SUB DUP3 AND PUSH2 0x10FF JUMPI PUSH1 0x0 DUP1 REVERT JUMPDEST PUSH1 0xCC SLOAD PUSH1 0x40 MLOAD PUSH4 0x2770A7EB PUSH1 0xE2 SHL DUP2 MSTORE PUSH1 0x1 PUSH1 0x1 PUSH1 0xA0 SHL SUB SWAP1 SWAP2 AND SWAP1 PUSH4 0x9DC29FAC SWAP1 PUSH2 0x863 SWAP1 DUP6 SWAP1 DUP6 SWAP1 PUSH1 0x4 ADD PUSH2 0x1A26 JUMP JUMPDEST PUSH1 0xCD SLOAD PUSH1 0x40 MLOAD PUSH4 0x36507A2B PUSH1 0xE2 SHL DUP2 MSTORE PUSH1 0x0 SWAP2 PUSH1 0x1 PUSH1 0x1 PUSH1 0xA0 SHL SUB AND SWAP1 PUSH4 0xD941E8AC SWAP1 PUSH2 0x1164 SWAP1 DUP7 SWAP1 DUP7 SWAP1 PUSH1 0x4 ADD PUSH2 0x1A26 JUMP JUMPDEST PUSH1 0x20 PUSH1 0x40 MLOAD DUP1 DUP4 SUB DUP2 DUP7 GAS STATICCALL ISZERO DUP1 ISZERO PUSH2 0x1181 JUMPI RETURNDATASIZE PUSH1 0x0 DUP1 RETURNDATACOPY RETURNDATASIZE PUSH1 0x0 REVERT JUMPDEST POP POP POP POP PUSH1 0x40 MLOAD RETURNDATASIZE PUSH1 0x1F NOT PUSH1 0x1F DUP3 ADD AND DUP3 ADD DUP1 PUSH1 0x40 MSTORE POP DUP2 ADD SWAP1 PUSH2 0x11A5 SWAP2 SWAP1 PUSH2 0x1A0D JUMP JUMPDEST SWAP4 SWAP3 POP POP POP JUMP JUMPDEST PUSH2 0x11B4 PUSH2 0x1590 JUMP JUMPDEST PUSH1 0x1 PUSH1 0x1 PUSH1 0xA0 SHL SUB DUP2 AND PUSH2 0x1219 JUMPI PUSH1 0x40 MLOAD PUSH3 0x461BCD PUSH1 0xE5 SHL DUP2 MSTORE PUSH1 0x20 PUSH1 0x4 DUP3 ADD MSTORE PUSH1 0x26 PUSH1 0x24 DUP3 ADD MSTORE PUSH32 0x4F776E61626C653A206E6577206F776E657220697320746865207A65726F2061 PUSH1 0x44 DUP3 ADD MSTORE PUSH6 0x646472657373 PUSH1 0xD0 SHL PUSH1 0x64 DUP3 ADD MSTORE PUSH1 0x84 ADD PUSH2 0x5DF JUMP JUMPDEST PUSH2 0x1222 DUP2 PUSH2 0x15EA JUMP JUMPDEST POP JUMP JUMPDEST PUSH2 0x122D PUSH2 0x1590 JUMP JUMPDEST PUSH2 0xD6C PUSH2 0x1745 JUMP JUMPDEST PUSH1 0x0 SLOAD PUSH2 0x100 SWAP1 DIV PUSH1 0xFF AND ISZERO DUP1 DUP1 ISZERO PUSH2 0x1255 JUMPI POP PUSH1 0x0 SLOAD PUSH1 0x1 PUSH1 0xFF SWAP1 SWAP2 AND LT JUMPDEST DUP1 PUSH2 0x126F JUMPI POP ADDRESS EXTCODESIZE ISZERO DUP1 ISZERO PUSH2 0x126F JUMPI POP PUSH1 0x0 SLOAD PUSH1 0xFF AND PUSH1 0x1 EQ JUMPDEST PUSH2 0x12D2 JUMPI PUSH1 0x40 MLOAD PUSH3 0x461BCD PUSH1 0xE5 SHL DUP2 MSTORE PUSH1 0x20 PUSH1 0x4 DUP3 ADD MSTORE PUSH1 0x2E PUSH1 0x24 DUP3 ADD MSTORE PUSH32 0x496E697469616C697A61626C653A20636F6E747261637420697320616C726561 PUSH1 0x44 DUP3 ADD MSTORE PUSH14 0x191E481A5B9A5D1A585B1A5E9959 PUSH1 0x92 SHL PUSH1 0x64 DUP3 ADD MSTORE PUSH1 0x84 ADD PUSH2 0x5DF JUMP JUMPDEST PUSH1 0x0 DUP1 SLOAD PUSH1 0xFF NOT AND PUSH1 0x1 OR SWAP1 SSTORE DUP1 ISZERO PUSH2 0x12F5 JUMPI PUSH1 0x0 DUP1 SLOAD PUSH2 0xFF00 NOT AND PUSH2 0x100 OR SWAP1 SSTORE JUMPDEST PUSH2 0x12FD PUSH2 0x177E JUMP JUMPDEST PUSH2 0x1305 PUSH2 0x17AD JUMP JUMPDEST PUSH2 0x130D PUSH2 0x17DC JUMP JUMPDEST PUSH1 0xCC DUP1 SLOAD PUSH1 0x1 PUSH1 0x1 PUSH1 0xA0 SHL SUB DUP1 DUP9 AND PUSH1 0x1 PUSH1 0x1 PUSH1 0xA0 SHL SUB NOT SWAP3 DUP4 AND OR SWAP1 SWAP3 SSTORE PUSH1 0xCB DUP1 SLOAD DUP7 DUP5 AND SWAP1 DUP4 AND DUP2 OR SWAP1 SWAP2 SSTORE PUSH1 0xCD DUP1 SLOAD DUP9 DUP6 AND SWAP1 DUP5 AND OR SWAP1 SSTORE PUSH1 0xCE DUP1 SLOAD SWAP4 DUP7 AND SWAP4 SWAP1 SWAP3 AND SWAP3 SWAP1 SWAP3 OR SWAP1 SSTORE PUSH1 0x40 MLOAD PUSH4 0x95EA7B3 PUSH1 0xE0 SHL DUP2 MSTORE PUSH4 0x95EA7B3 SWAP1 PUSH2 0x137E SWAP1 DUP6 SWAP1 PUSH1 0x0 NOT SWAP1 PUSH1 0x4 ADD PUSH2 0x1A26 JUMP JUMPDEST PUSH1 0x20 PUSH1 0x40 MLOAD DUP1 DUP4 SUB DUP2 PUSH1 0x0 DUP8 GAS CALL ISZERO DUP1 ISZERO PUSH2 0x139D JUMPI RETURNDATASIZE PUSH1 0x0 DUP1 RETURNDATACOPY RETURNDATASIZE PUSH1 0x0 REVERT JUMPDEST POP POP POP POP PUSH1 0x40 MLOAD RETURNDATASIZE PUSH1 0x1F NOT PUSH1 0x1F DUP3 ADD AND DUP3 ADD DUP1 PUSH1 0x40 MSTORE POP DUP2 ADD SWAP1 PUSH2 0x13C1 SWAP2 SWAP1 PUSH2 0x1A9A JUMP JUMPDEST POP DUP1 ISZERO PUSH2 0x1408 JUMPI PUSH1 0x0 DUP1 SLOAD PUSH2 0xFF00 NOT AND SWAP1 SSTORE PUSH1 0x40 MLOAD PUSH1 0x1 DUP2 MSTORE PUSH32 0x7F26B83FF96E1F2B6A682F133852F6798A09C465DA95921460CEFB3847402498 SWAP1 PUSH1 0x20 ADD PUSH1 0x40 MLOAD DUP1 SWAP2 SUB SWAP1 LOG1 JUMPDEST POP POP POP POP POP JUMP JUMPDEST PUSH2 0x1417 PUSH2 0x1590 JUMP JUMPDEST PUSH1 0xCD DUP1 SLOAD PUSH1 0x1 PUSH1 0x1 PUSH1 0xA0 SHL SUB NOT AND PUSH1 0x1 PUSH1 0x1 PUSH1 0xA0 SHL SUB DUP4 AND SWAP1 DUP2 OR SWAP1 SWAP2 SSTORE PUSH1 0x40 MLOAD SWAP1 DUP2 MSTORE PUSH32 0x2275A26CD5CE1DD1762303DEEC2666D22E1FFAA76311B9BC3617DEB131585711 SWAP1 PUSH1 0x20 ADD PUSH2 0x8F0 JUMP JUMPDEST PUSH1 0x65 SLOAD PUSH1 0xFF AND ISZERO PUSH2 0xD6C JUMPI PUSH1 0x40 MLOAD PUSH3 0x461BCD PUSH1 0xE5 SHL DUP2 MSTORE PUSH1 0x20 PUSH1 0x4 DUP3 ADD MSTORE PUSH1 0x10 PUSH1 0x24 DUP3 ADD MSTORE PUSH16 0x14185D5CD8589B194E881C185D5CD959 PUSH1 0x82 SHL PUSH1 0x44 DUP3 ADD MSTORE PUSH1 0x64 ADD PUSH2 0x5DF JUMP JUMPDEST PUSH1 0xCE SLOAD PUSH1 0xCB SLOAD PUSH1 0x40 MLOAD PUSH4 0x6CE57689 PUSH1 0xE1 SHL DUP2 MSTORE PUSH1 0x1 PUSH1 0x1 PUSH1 0xA0 SHL SUB SWAP3 DUP4 AND SWAP3 PUSH4 0xD9CAED12 SWAP3 PUSH2 0x14E4 SWAP3 DUP8 SWAP3 SWAP1 SWAP2 AND SWAP1 DUP7 SWAP1 PUSH1 0x4 ADD PUSH2 0x1A76 JUMP JUMPDEST PUSH1 0x20 PUSH1 0x40 MLOAD DUP1 DUP4 SUB DUP2 PUSH1 0x0 DUP8 GAS CALL ISZERO DUP1 ISZERO PUSH2 0x1503 JUMPI RETURNDATASIZE PUSH1 0x0 DUP1 RETURNDATACOPY RETURNDATASIZE PUSH1 0x0 REVERT JUMPDEST POP POP POP POP PUSH1 0x40 MLOAD RETURNDATASIZE PUSH1 0x1F NOT PUSH1 0x1F DUP3 ADD AND DUP3 ADD DUP1 PUSH1 0x40 MSTORE POP DUP2 ADD SWAP1 PUSH2 0x1527 SWAP2 SWAP1 PUSH2 0x1A0D JUMP JUMPDEST POP PUSH1 0xCC SLOAD PUSH1 0x40 MLOAD PUSH4 0x2770A7EB PUSH1 0xE2 SHL DUP2 MSTORE PUSH1 0x1 PUSH1 0x1 PUSH1 0xA0 SHL SUB SWAP1 SWAP2 AND SWAP1 PUSH4 0x9DC29FAC SWAP1 PUSH2 0x155A SWAP1 DUP6 SWAP1 DUP6 SWAP1 PUSH1 0x4 ADD PUSH2 0x1A26 JUMP JUMPDEST PUSH1 0x0 PUSH1 0x40 MLOAD DUP1 DUP4 SUB DUP2 PUSH1 0x0 DUP8 DUP1 EXTCODESIZE ISZERO DUP1 ISZERO PUSH2 0x1574 JUMPI PUSH1 0x0 DUP1 REVERT JUMPDEST POP GAS CALL ISZERO DUP1 ISZERO PUSH2 0x1588 JUMPI RETURNDATASIZE PUSH1 0x0 DUP1 RETURNDATACOPY RETURNDATASIZE PUSH1 0x0 REVERT JUMPDEST POP POP POP POP POP POP JUMP JUMPDEST PUSH1 0x33 SLOAD PUSH1 0x1 PUSH1 0x1 PUSH1 0xA0 SHL SUB AND CALLER EQ PUSH2 0xD6C JUMPI PUSH1 0x40 MLOAD PUSH3 0x461BCD PUSH1 0xE5 SHL DUP2 MSTORE PUSH1 0x20 PUSH1 0x4 DUP3 ADD DUP2 SWAP1 MSTORE PUSH1 0x24 DUP3 ADD MSTORE PUSH32 0x4F776E61626C653A2063616C6C6572206973206E6F7420746865206F776E6572 PUSH1 0x44 DUP3 ADD MSTORE PUSH1 0x64 ADD PUSH2 0x5DF JUMP JUMPDEST PUSH1 0x33 DUP1 SLOAD PUSH1 0x1 PUSH1 0x1 PUSH1 0xA0 SHL SUB DUP4 DUP2 AND PUSH1 0x1 PUSH1 0x1 PUSH1 0xA0 SHL SUB NOT DUP4 AND DUP2 OR SWAP1 SWAP4 SSTORE PUSH1 0x40 MLOAD SWAP2 AND SWAP2 SWAP1 DUP3 SWAP1 PUSH32 0x8BE0079C531659141344CD1FD0A4F28419497F9722A3DAAFE3B4186F6B6457E0 SWAP1 PUSH1 0x0 SWAP1 LOG3 POP POP JUMP JUMPDEST PUSH2 0x1644 PUSH2 0x1465 JUMP JUMPDEST PUSH1 0x65 DUP1 SLOAD PUSH1 0xFF NOT AND PUSH1 0x1 OR SWAP1 SSTORE PUSH32 0x62E78CEA01BEE320CD4E420270B5EA74000D11B0C9F74754EBDBFC544B05A258 PUSH2 0x1679 CALLER SWAP1 JUMP JUMPDEST PUSH1 0x40 MLOAD PUSH1 0x1 PUSH1 0x1 PUSH1 0xA0 SHL SUB SWAP1 SWAP2 AND DUP2 MSTORE PUSH1 0x20 ADD PUSH1 0x40 MLOAD DUP1 SWAP2 SUB SWAP1 LOG1 JUMP JUMPDEST PUSH1 0xCE SLOAD PUSH1 0xCB SLOAD PUSH1 0x40 MLOAD PUSH4 0x8340F549 PUSH1 0xE0 SHL DUP2 MSTORE PUSH1 0x1 PUSH1 0x1 PUSH1 0xA0 SHL SUB SWAP3 DUP4 AND SWAP3 PUSH4 0x8340F549 SWAP3 PUSH2 0x16CF SWAP3 DUP8 SWAP3 SWAP1 SWAP2 AND SWAP1 DUP7 SWAP1 PUSH1 0x4 ADD PUSH2 0x1A76 JUMP JUMPDEST PUSH1 0x20 PUSH1 0x40 MLOAD DUP1 DUP4 SUB DUP2 PUSH1 0x0 DUP8 GAS CALL ISZERO DUP1 ISZERO PUSH2 0x16EE JUMPI RETURNDATASIZE PUSH1 0x0 DUP1 RETURNDATACOPY RETURNDATASIZE PUSH1 0x0 REVERT JUMPDEST POP POP POP POP PUSH1 0x40 MLOAD RETURNDATASIZE PUSH1 0x1F NOT PUSH1 0x1F DUP3 ADD AND DUP3 ADD DUP1 PUSH1 0x40 MSTORE POP DUP2 ADD SWAP1 PUSH2 0x1712 SWAP2 SWAP1 PUSH2 0x1A0D JUMP JUMPDEST POP PUSH1 0xCC SLOAD PUSH1 0x40 MLOAD PUSH4 0x40C10F19 PUSH1 0xE0 SHL DUP2 MSTORE PUSH1 0x1 PUSH1 0x1 PUSH1 0xA0 SHL SUB SWAP1 SWAP2 AND SWAP1 PUSH4 0x40C10F19 SWAP1 PUSH2 0x155A SWAP1 DUP6 SWAP1 DUP6 SWAP1 PUSH1 0x4 ADD PUSH2 0x1A26 JUMP JUMPDEST PUSH2 0x174D PUSH2 0x180B JUMP JUMPDEST PUSH1 0x65 DUP1 SLOAD PUSH1 0xFF NOT AND SWAP1 SSTORE PUSH32 0x5DB9EE0A495BF2E6FF9C91A7834C1BA4FDD244A5E8AA4E537BD38AEAE4B073AA CALLER PUSH2 0x1679 JUMP JUMPDEST PUSH1 0x0 SLOAD PUSH2 0x100 SWAP1 DIV PUSH1 0xFF AND PUSH2 0x17A5 JUMPI PUSH1 0x40 MLOAD PUSH3 0x461BCD PUSH1 0xE5 SHL DUP2 MSTORE PUSH1 0x4 ADD PUSH2 0x5DF SWAP1 PUSH2 0x1ABC JUMP JUMPDEST PUSH2 0xD6C PUSH2 0x1854 JUMP JUMPDEST PUSH1 0x0 SLOAD PUSH2 0x100 SWAP1 DIV PUSH1 0xFF AND PUSH2 0x17D4 JUMPI PUSH1 0x40 MLOAD PUSH3 0x461BCD PUSH1 0xE5 SHL DUP2 MSTORE PUSH1 0x4 ADD PUSH2 0x5DF SWAP1 PUSH2 0x1ABC JUMP JUMPDEST PUSH2 0xD6C PUSH2 0x1884 JUMP JUMPDEST PUSH1 0x0 SLOAD PUSH2 0x100 SWAP1 DIV PUSH1 0xFF AND PUSH2 0x1803 JUMPI PUSH1 0x40 MLOAD PUSH3 0x461BCD PUSH1 0xE5 SHL DUP2 MSTORE PUSH1 0x4 ADD PUSH2 0x5DF SWAP1 PUSH2 0x1ABC JUMP JUMPDEST PUSH2 0xD6C PUSH2 0x18B7 JUMP JUMPDEST PUSH1 0x65 SLOAD PUSH1 0xFF AND PUSH2 0xD6C JUMPI PUSH1 0x40 MLOAD PUSH3 0x461BCD PUSH1 0xE5 SHL DUP2 MSTORE PUSH1 0x20 PUSH1 0x4 DUP3 ADD MSTORE PUSH1 0x14 PUSH1 0x24 DUP3 ADD MSTORE PUSH20 0x14185D5CD8589B194E881B9BDD081C185D5CD959 PUSH1 0x62 SHL PUSH1 0x44 DUP3 ADD MSTORE PUSH1 0x64 ADD PUSH2 0x5DF JUMP JUMPDEST PUSH1 0x0 SLOAD PUSH2 0x100 SWAP1 DIV PUSH1 0xFF AND PUSH2 0x187B JUMPI PUSH1 0x40 MLOAD PUSH3 0x461BCD PUSH1 0xE5 SHL DUP2 MSTORE PUSH1 0x4 ADD PUSH2 0x5DF SWAP1 PUSH2 0x1ABC JUMP JUMPDEST PUSH2 0xD6C CALLER PUSH2 0x15EA JUMP JUMPDEST PUSH1 0x0 SLOAD PUSH2 0x100 SWAP1 DIV PUSH1 0xFF AND PUSH2 0x18AB JUMPI PUSH1 0x40 MLOAD PUSH3 0x461BCD PUSH1 0xE5 SHL DUP2 MSTORE PUSH1 0x4 ADD PUSH2 0x5DF SWAP1 PUSH2 0x1ABC JUMP JUMPDEST PUSH1 0x65 DUP1 SLOAD PUSH1 0xFF NOT AND SWAP1 SSTORE JUMP JUMPDEST PUSH1 0x0 SLOAD PUSH2 0x100 SWAP1 DIV PUSH1 0xFF AND PUSH2 0x18DE JUMPI PUSH1 0x40 MLOAD PUSH3 0x461BCD PUSH1 0xE5 SHL DUP2 MSTORE PUSH1 0x4 ADD PUSH2 0x5DF SWAP1 PUSH2 0x1ABC JUMP JUMPDEST PUSH1 0x1 PUSH1 0x97 SSTORE JUMP JUMPDEST DUP1 CALLDATALOAD PUSH1 0x1 PUSH1 0x1 PUSH1 0xA0 SHL SUB DUP2 AND DUP2 EQ PUSH2 0x18FC JUMPI PUSH1 0x0 DUP1 REVERT JUMPDEST SWAP2 SWAP1 POP JUMP JUMPDEST PUSH1 0x0 DUP1 PUSH1 0x40 DUP4 DUP6 SUB SLT ISZERO PUSH2 0x1914 JUMPI PUSH1 0x0 DUP1 REVERT JUMPDEST PUSH2 0x191D DUP4 PUSH2 0x18E5 JUMP JUMPDEST SWAP5 PUSH1 0x20 SWAP4 SWAP1 SWAP4 ADD CALLDATALOAD SWAP4 POP POP POP JUMP JUMPDEST PUSH1 0x0 PUSH1 0x20 DUP3 DUP5 SUB SLT ISZERO PUSH2 0x193D JUMPI PUSH1 0x0 DUP1 REVERT JUMPDEST PUSH2 0x11A5 DUP3 PUSH2 0x18E5 JUMP JUMPDEST PUSH1 0x0 DUP1 PUSH1 0x0 PUSH1 0x60 DUP5 DUP7 SUB SLT ISZERO PUSH2 0x195B JUMPI PUSH1 0x0 DUP1 REVERT JUMPDEST PUSH2 0x1964 DUP5 PUSH2 0x18E5 JUMP JUMPDEST SWAP3 POP PUSH2 0x1972 PUSH1 0x20 DUP6 ADD PUSH2 0x18E5 JUMP JUMPDEST SWAP2 POP PUSH1 0x40 DUP5 ADD CALLDATALOAD SWAP1 POP SWAP3 POP SWAP3 POP SWAP3 JUMP JUMPDEST PUSH1 0x0 DUP1 PUSH1 0x0 DUP1 PUSH1 0x80 DUP6 DUP8 SUB SLT ISZERO PUSH2 0x1998 JUMPI PUSH1 0x0 DUP1 REVERT JUMPDEST PUSH2 0x19A1 DUP6 PUSH2 0x18E5 JUMP JUMPDEST SWAP4 POP PUSH2 0x19AF PUSH1 0x20 DUP7 ADD PUSH2 0x18E5 JUMP JUMPDEST SWAP3 POP PUSH2 0x19BD PUSH1 0x40 DUP7 ADD PUSH2 0x18E5 JUMP JUMPDEST SWAP2 POP PUSH2 0x19CB PUSH1 0x60 DUP7 ADD PUSH2 0x18E5 JUMP JUMPDEST SWAP1 POP SWAP3 SWAP6 SWAP2 SWAP5 POP SWAP3 POP JUMP JUMPDEST PUSH1 0x20 DUP1 DUP3 MSTORE PUSH1 0x1F SWAP1 DUP3 ADD MSTORE PUSH32 0x5265656E7472616E637947756172643A207265656E7472616E742063616C6C00 PUSH1 0x40 DUP3 ADD MSTORE PUSH1 0x60 ADD SWAP1 JUMP JUMPDEST PUSH1 0x0 PUSH1 0x20 DUP3 DUP5 SUB SLT ISZERO PUSH2 0x1A1F JUMPI PUSH1 0x0 DUP1 REVERT JUMPDEST POP MLOAD SWAP2 SWAP1 POP JUMP JUMPDEST PUSH1 0x1 PUSH1 0x1 PUSH1 0xA0 SHL SUB SWAP3 SWAP1 SWAP3 AND DUP3 MSTORE PUSH1 0x20 DUP3 ADD MSTORE PUSH1 0x40 ADD SWAP1 JUMP JUMPDEST PUSH1 0x20 DUP1 DUP3 MSTORE PUSH1 0x19 SWAP1 DUP3 ADD MSTORE PUSH32 0x41756374696F6E50726F78793A206E6F7420616C6C6F77656400000000000000 PUSH1 0x40 DUP3 ADD MSTORE PUSH1 0x60 ADD SWAP1 JUMP JUMPDEST PUSH1 0x1 PUSH1 0x1 PUSH1 0xA0 SHL SUB SWAP4 DUP5 AND DUP2 MSTORE SWAP2 SWAP1 SWAP3 AND PUSH1 0x20 DUP3 ADD MSTORE PUSH1 0x40 DUP2 ADD SWAP2 SWAP1 SWAP2 MSTORE PUSH1 0x60 ADD SWAP1 JUMP JUMPDEST PUSH1 0x0 PUSH1 0x20 DUP3 DUP5 SUB SLT ISZERO PUSH2 0x1AAC JUMPI PUSH1 0x0 DUP1 REVERT JUMPDEST DUP2 MLOAD DUP1 ISZERO ISZERO DUP2 EQ PUSH2 0x11A5 JUMPI PUSH1 0x0 DUP1 REVERT JUMPDEST PUSH1 0x20 DUP1 DUP3 MSTORE PUSH1 0x2B SWAP1 DUP3 ADD MSTORE PUSH32 0x496E697469616C697A61626C653A20636F6E7472616374206973206E6F742069 PUSH1 0x40 DUP3 ADD MSTORE PUSH11 0x6E697469616C697A696E67 PUSH1 0xA8 SHL PUSH1 0x60 DUP3 ADD MSTORE PUSH1 0x80 ADD SWAP1 JUMP INVALID LOG2 PUSH5 0x6970667358 0x22 SLT KECCAK256 SWAP4 PUSH27 0xF9B3A86A564583110C4319B37A0539A9DC23E8BB6422D12FC60988 PUSH24 0xCB4A64736F6C634300080A00330000000000000000000000 "
				},
				"gasEstimates": {
					"creation": {
						"codeDepositCost": "1394600",
						"executionCost": "1451",
						"totalCost": "1396051"
					},
					"external": {
						"_ceToken()": "2382",
						"_certToken()": "2427",
						"_collateralToken()": "2405",
						"_dao()": "2426",
						"_liquidationStrategy()": "2448",
						"_masterVault()": "2428",
						"_operator()": "2426",
						"_pool()": "2449",
						"_proxy()": "2426",
						"balanceOfToken(address)": "infinite",
						"changeBNBStakingPool(address)": "27890",
						"changeCeToken(address)": "infinite",
						"changeCollateralToken(address)": "27835",
						"changeDao(address)": "infinite",
						"changeLiquidationStrategy(address)": "27868",
						"changeMasterVault(address)": "27910",
						"changeProxy(address)": "27867",
						"daoBurn(address,uint256)": "infinite",
						"daoMint(address,uint256)": "infinite",
						"estimateInToken(address,uint256)": "infinite",
						"initialize(address,address,address,address)": "infinite",
						"liquidation(address,uint256)": "infinite",
						"owner()": "2399",
						"pause()": "infinite",
						"paused()": "2382",
						"provide()": "infinite",
						"release(address,uint256)": "infinite",
						"releaseInToken(address,address,uint256)": "infinite",
						"renounceOwnership()": "infinite",
						"transferOwnership(address)": "28380",
						"unPause()": "infinite"
					},
					"internal": {
						"_provideCollateral(address,uint256)": "infinite",
						"_withdrawCollateral(address,uint256)": "infinite"
					}
				},
				"methodIdentifiers": {
					"_ceToken()": "6e8d9a18",
					"_certToken()": "9479cfa2",
					"_collateralToken()": "358b2b1a",
					"_dao()": "e0683726",
					"_liquidationStrategy()": "d25c7439",
					"_masterVault()": "1ee92d84",
					"_operator()": "70b0a843",
					"_pool()": "636fc28b",
					"_proxy()": "cc2effdc",
					"balanceOfToken(address)": "b99152d0",
					"changeBNBStakingPool(address)": "3af82c59",
					"changeCeToken(address)": "3fd44f17",
					"changeCollateralToken(address)": "232da7fe",
					"changeDao(address)": "d8826fec",
					"changeLiquidationStrategy(address)": "5a58f9d5",
					"changeMasterVault(address)": "fe1c6c94",
					"changeProxy(address)": "c4031841",
					"daoBurn(address,uint256)": "df3d23ae",
					"daoMint(address,uint256)": "14866aef",
					"estimateInToken(address,uint256)": "e871405b",
					"initialize(address,address,address,address)": "f8c8765e",
					"liquidation(address,uint256)": "6f2bb86a",
					"owner()": "8da5cb5b",
					"pause()": "8456cb59",
					"paused()": "5c975abb",
					"provide()": "b9472535",
					"release(address,uint256)": "0357371d",
					"releaseInToken(address,address,uint256)": "3e9ec161",
					"renounceOwnership()": "715018a6",
					"transferOwnership(address)": "f2fde38b",
					"unPause()": "f7b188a5"
				}
			},
			"storageLayout": {
				"storage": [
					{
						"astId": 138,
						"contract": "Heliocontracts/contracts/ceros/upgrades/HelioProviderV2.sol:HelioProviderV2",
						"label": "_initialized",
						"offset": 0,
						"slot": "0",
						"type": "t_uint8"
					},
					{
						"astId": 141,
						"contract": "Heliocontracts/contracts/ceros/upgrades/HelioProviderV2.sol:HelioProviderV2",
						"label": "_initializing",
						"offset": 1,
						"slot": "0",
						"type": "t_bool"
					},
					{
						"astId": 1147,
						"contract": "Heliocontracts/contracts/ceros/upgrades/HelioProviderV2.sol:HelioProviderV2",
						"label": "__gap",
						"offset": 0,
						"slot": "1",
						"type": "t_array(t_uint256)50_storage"
					},
					{
						"astId": 10,
						"contract": "Heliocontracts/contracts/ceros/upgrades/HelioProviderV2.sol:HelioProviderV2",
						"label": "_owner",
						"offset": 0,
						"slot": "51",
						"type": "t_address"
					},
					{
						"astId": 130,
						"contract": "Heliocontracts/contracts/ceros/upgrades/HelioProviderV2.sol:HelioProviderV2",
						"label": "__gap",
						"offset": 0,
						"slot": "52",
						"type": "t_array(t_uint256)49_storage"
					},
					{
						"astId": 303,
						"contract": "Heliocontracts/contracts/ceros/upgrades/HelioProviderV2.sol:HelioProviderV2",
						"label": "_paused",
						"offset": 0,
						"slot": "101",
						"type": "t_bool"
					},
					{
						"astId": 408,
						"contract": "Heliocontracts/contracts/ceros/upgrades/HelioProviderV2.sol:HelioProviderV2",
						"label": "__gap",
						"offset": 0,
						"slot": "102",
						"type": "t_array(t_uint256)49_storage"
					},
					{
						"astId": 423,
						"contract": "Heliocontracts/contracts/ceros/upgrades/HelioProviderV2.sol:HelioProviderV2",
						"label": "_status",
						"offset": 0,
						"slot": "151",
						"type": "t_uint256"
					},
					{
						"astId": 467,
						"contract": "Heliocontracts/contracts/ceros/upgrades/HelioProviderV2.sol:HelioProviderV2",
						"label": "__gap",
						"offset": 0,
						"slot": "152",
						"type": "t_array(t_uint256)49_storage"
					},
					{
						"astId": 1993,
						"contract": "Heliocontracts/contracts/ceros/upgrades/HelioProviderV2.sol:HelioProviderV2",
						"label": "_operator",
						"offset": 0,
						"slot": "201",
						"type": "t_address"
					},
					{
						"astId": 1995,
						"contract": "Heliocontracts/contracts/ceros/upgrades/HelioProviderV2.sol:HelioProviderV2",
						"label": "_certToken",
						"offset": 0,
						"slot": "202",
						"type": "t_address"
					},
					{
						"astId": 1997,
						"contract": "Heliocontracts/contracts/ceros/upgrades/HelioProviderV2.sol:HelioProviderV2",
						"label": "_ceToken",
						"offset": 0,
						"slot": "203",
						"type": "t_address"
					},
					{
						"astId": 2000,
						"contract": "Heliocontracts/contracts/ceros/upgrades/HelioProviderV2.sol:HelioProviderV2",
						"label": "_collateralToken",
						"offset": 0,
						"slot": "204",
						"type": "t_contract(ICertToken)1461"
					},
					{
						"astId": 2003,
						"contract": "Heliocontracts/contracts/ceros/upgrades/HelioProviderV2.sol:HelioProviderV2",
						"label": "_masterVault",
						"offset": 0,
						"slot": "205",
						"type": "t_contract(IMasterVault)2800"
					},
					{
						"astId": 2006,
						"contract": "Heliocontracts/contracts/ceros/upgrades/HelioProviderV2.sol:HelioProviderV2",
						"label": "_dao",
						"offset": 0,
						"slot": "206",
						"type": "t_contract(IDao)1574"
					},
					{
						"astId": 2009,
						"contract": "Heliocontracts/contracts/ceros/upgrades/HelioProviderV2.sol:HelioProviderV2",
						"label": "_pool",
						"offset": 0,
						"slot": "207",
						"type": "t_contract(IBNBStakingPool)1256"
					},
					{
						"astId": 2011,
						"contract": "Heliocontracts/contracts/ceros/upgrades/HelioProviderV2.sol:HelioProviderV2",
						"label": "_proxy",
						"offset": 0,
						"slot": "208",
						"type": "t_address"
					},
					{
						"astId": 2013,
						"contract": "Heliocontracts/contracts/ceros/upgrades/HelioProviderV2.sol:HelioProviderV2",
						"label": "_liquidationStrategy",
						"offset": 0,
						"slot": "209",
						"type": "t_address"
					}
				],
				"types": {
					"t_address": {
						"encoding": "inplace",
						"label": "address",
						"numberOfBytes": "20"
					},
					"t_array(t_uint256)49_storage": {
						"base": "t_uint256",
						"encoding": "inplace",
						"label": "uint256[49]",
						"numberOfBytes": "1568"
					},
					"t_array(t_uint256)50_storage": {
						"base": "t_uint256",
						"encoding": "inplace",
						"label": "uint256[50]",
						"numberOfBytes": "1600"
					},
					"t_bool": {
						"encoding": "inplace",
						"label": "bool",
						"numberOfBytes": "1"
					},
					"t_contract(IBNBStakingPool)1256": {
						"encoding": "inplace",
						"label": "contract IBNBStakingPool",
						"numberOfBytes": "20"
					},
					"t_contract(ICertToken)1461": {
						"encoding": "inplace",
						"label": "contract ICertToken",
						"numberOfBytes": "20"
					},
					"t_contract(IDao)1574": {
						"encoding": "inplace",
						"label": "contract IDao",
						"numberOfBytes": "20"
					},
					"t_contract(IMasterVault)2800": {
						"encoding": "inplace",
						"label": "contract IMasterVault",
						"numberOfBytes": "20"
					},
					"t_uint256": {
						"encoding": "inplace",
						"label": "uint256",
						"numberOfBytes": "32"
					},
					"t_uint8": {
						"encoding": "inplace",
						"label": "uint8",
						"numberOfBytes": "1"
					}
				}
			},
			"userdoc": {
				"events": {
					"Deposit(address,uint256)": {
						"notice": "Events"
					}
				},
				"kind": "user",
				"methods": {
					"_operator()": {
						"notice": "Variables"
					},
					"changeDao(address)": {
						"notice": "UPDATING FUNCTIONALITY"
					},
					"liquidation(address,uint256)": {
						"notice": "DAO FUNCTIONALITY"
					},
					"pause()": {
						"notice": "PAUSABLE FUNCTIONALITY"
					},
					"provide()": {
						"notice": "DEPOSIT"
					},
					"release(address,uint256)": {
						"notice": "RELEASE"
					},
					"releaseInToken(address,address,uint256)": {
						"notice": "releaseInToken, recipient will get (aBNBc/stkBNB/snBNB/BNBx)"
					}
				},
				"version": 1
			}
		}
	}
}