{
	"Heliocontracts/contracts/libraries/AuctionProxy.sol": {
		"AuctionProxy": {
			"abi": [
				{
					"inputs": [
						{
							"internalType": "contract ClipperLike",
							"name": "clip",
							"type": "ClipperLike"
						}
					],
					"name": "getAllActiveAuctionsForClip",
					"outputs": [
						{
							"components": [
								{
									"internalType": "uint256",
									"name": "pos",
									"type": "uint256"
								},
								{
									"internalType": "uint256",
									"name": "tab",
									"type": "uint256"
								},
								{
									"internalType": "uint256",
									"name": "lot",
									"type": "uint256"
								},
								{
									"internalType": "address",
									"name": "usr",
									"type": "address"
								},
								{
									"internalType": "uint96",
									"name": "tic",
									"type": "uint96"
								},
								{
									"internalType": "uint256",
									"name": "top",
									"type": "uint256"
								}
							],
							"internalType": "struct Sale[]",
							"name": "sales",
							"type": "tuple[]"
						}
					],
					"stateMutability": "view",
					"type": "function"
				}
			],
			"devdoc": {
				"kind": "dev",
				"methods": {},
				"version": 1
			},
			"evm": {
				"assembly": "    /* \"Heliocontracts/contracts/libraries/AuctionProxy.sol\":530:4402  library AuctionProxy {... */\n  dataSize(sub_0)\n  dataOffset(sub_0)\n  0x0b\n  dup3\n  dup3\n  dup3\n  codecopy\n  dup1\n  mload\n  0x00\n  byte\n  0x73\n  eq\n  tag_1\n  jumpi\n  mstore(0x00, shl(0xe0, 0x4e487b71))\n  mstore(0x04, 0x00)\n  revert(0x00, 0x24)\ntag_1:\n  mstore(0x00, address)\n  0x73\n  dup2\n  mstore8\n  dup3\n  dup2\n  return\nstop\n\nsub_0: assembly {\n        /* \"Heliocontracts/contracts/libraries/AuctionProxy.sol\":530:4402  library AuctionProxy {... */\n      eq(address, deployTimeAddress())\n      mstore(0x40, 0x80)\n      jumpi(tag_1, lt(calldatasize, 0x04))\n      shr(0xe0, calldataload(0x00))\n      dup1\n      0x14395d82\n      eq\n      tag_2\n      jumpi\n      dup1\n      0x416f0599\n      eq\n      tag_3\n      jumpi\n      dup1\n      0x7ce53fed\n      eq\n      tag_4\n      jumpi\n      dup1\n      0xa850dbcb\n      eq\n      tag_5\n      jumpi\n    tag_1:\n      0x00\n      dup1\n      revert\n        /* \"Heliocontracts/contracts/libraries/AuctionProxy.sol\":1954:4045  function buyFromAuction(... */\n    tag_2:\n      dup2\n      dup1\n      iszero\n      tag_6\n      jumpi\n      0x00\n      dup1\n      revert\n    tag_6:\n      pop\n      tag_7\n      tag_8\n      calldatasize\n      0x04\n      tag_9\n      jump\t// in\n    tag_8:\n      tag_10\n      jump\t// in\n    tag_7:\n      mload(0x40)\n        /* \"#utility.yul\":1719:1744   */\n      swap1\n      dup2\n      mstore\n        /* \"#utility.yul\":1707:1709   */\n      0x20\n        /* \"#utility.yul\":1692:1710   */\n      add\n        /* \"Heliocontracts/contracts/libraries/AuctionProxy.sol\":1954:4045  function buyFromAuction(... */\n    tag_11:\n      mload(0x40)\n      dup1\n      swap2\n      sub\n      swap1\n      return\n        /* \"Heliocontracts/contracts/libraries/AuctionProxy.sol\":650:1423  function startAuction(... */\n    tag_3:\n      dup2\n      dup1\n      iszero\n      tag_13\n      jumpi\n      0x00\n      dup1\n      revert\n    tag_13:\n      pop\n      tag_7\n      tag_15\n      calldatasize\n      0x04\n      tag_16\n      jump\t// in\n    tag_15:\n      tag_17\n      jump\t// in\n        /* \"Heliocontracts/contracts/libraries/AuctionProxy.sol\":4049:4400  function getAllActiveAuctionsForClip(ClipperLike clip)... */\n    tag_4:\n      tag_19\n      tag_20\n      calldatasize\n      0x04\n      tag_21\n      jump\t// in\n    tag_20:\n      tag_22\n      jump\t// in\n    tag_19:\n      mload(0x40)\n      tag_11\n      swap2\n      swap1\n      tag_24\n      jump\t// in\n        /* \"Heliocontracts/contracts/libraries/AuctionProxy.sol\":1427:1916  function resetAuction(... */\n    tag_5:\n      dup2\n      dup1\n      iszero\n      tag_25\n      jumpi\n      0x00\n      dup1\n      revert\n    tag_25:\n      pop\n      tag_26\n      tag_27\n      calldatasize\n      0x04\n      tag_28\n      jump\t// in\n    tag_27:\n      tag_29\n      jump\t// in\n    tag_26:\n      stop\n        /* \"Heliocontracts/contracts/libraries/AuctionProxy.sol\":1954:4045  function buyFromAuction(... */\n    tag_10:\n        /* \"Heliocontracts/contracts/libraries/AuctionProxy.sol\":2309:2337  hay.balanceOf(address(this)) */\n      mload(0x40)\n      shl(0xe0, 0x70a08231)\n      dup2\n      mstore\n        /* \"Heliocontracts/contracts/libraries/AuctionProxy.sol\":2331:2335  this */\n      address\n        /* \"Heliocontracts/contracts/libraries/AuctionProxy.sol\":2309:2337  hay.balanceOf(address(this)) */\n      0x04\n      dup3\n      add\n        /* \"#utility.yul\":5603:5654   */\n      mstore\n        /* \"Heliocontracts/contracts/libraries/AuctionProxy.sol\":2245:2261  uint256 leftover */\n      0x00\n      swap1\n      dup2\n      swap1\n      sub(shl(0xa0, 0x01), 0x01)\n        /* \"Heliocontracts/contracts/libraries/AuctionProxy.sol\":2309:2322  hay.balanceOf */\n      dup9\n      and\n      swap1\n      0x70a08231\n      swap1\n        /* \"#utility.yul\":5576:5594   */\n      0x24\n      add\n        /* \"Heliocontracts/contracts/libraries/AuctionProxy.sol\":2309:2337  hay.balanceOf(address(this)) */\n      0x20\n      mload(0x40)\n      dup1\n      dup4\n      sub\n      dup2\n      dup7\n      gas\n      staticcall\n      iszero\n      dup1\n      iszero\n      tag_34\n      jumpi\n      returndatasize\n      0x00\n      dup1\n      returndatacopy\n      revert(0x00, returndatasize)\n    tag_34:\n      pop\n      pop\n      pop\n      pop\n      mload(0x40)\n      returndatasize\n      not(0x1f)\n      0x1f\n      dup3\n      add\n      and\n      dup3\n      add\n      dup1\n      0x40\n      mstore\n      pop\n      dup2\n      add\n      swap1\n      tag_35\n      swap2\n      swap1\n      tag_36\n      jump\t// in\n    tag_35:\n        /* \"Heliocontracts/contracts/libraries/AuctionProxy.sol\":2292:2337  uint256 hayBal = hay.balanceOf(address(this)) */\n      swap1\n      pop\n        /* \"Heliocontracts/contracts/libraries/AuctionProxy.sol\":2343:2357  uint256 gemBal */\n      0x00\n        /* \"Heliocontracts/contracts/libraries/AuctionProxy.sol\":2360:2374  collateral.gem */\n      tag_37\n      0x20\n      dup6\n      add\n        /* \"Heliocontracts/contracts/libraries/AuctionProxy.sol\":2360:2370  collateral */\n      dup6\n        /* \"Heliocontracts/contracts/libraries/AuctionProxy.sol\":2360:2374  collateral.gem */\n      tag_21\n      jump\t// in\n    tag_37:\n      sub(shl(0xa0, 0x01), 0x01)\n        /* \"Heliocontracts/contracts/libraries/AuctionProxy.sol\":2360:2378  collateral.gem.gem */\n      and\n      0x7bd2bea7\n        /* \"Heliocontracts/contracts/libraries/AuctionProxy.sol\":2360:2380  collateral.gem.gem() */\n      mload(0x40)\n      dup2\n      0xffffffff\n      and\n      0xe0\n      shl\n      dup2\n      mstore\n      0x04\n      add\n      0x20\n      mload(0x40)\n      dup1\n      dup4\n      sub\n      dup2\n      dup7\n      gas\n      staticcall\n      iszero\n      dup1\n      iszero\n      tag_40\n      jumpi\n      returndatasize\n      0x00\n      dup1\n      returndatacopy\n      revert(0x00, returndatasize)\n    tag_40:\n      pop\n      pop\n      pop\n      pop\n      mload(0x40)\n      returndatasize\n      not(0x1f)\n      0x1f\n      dup3\n      add\n      and\n      dup3\n      add\n      dup1\n      0x40\n      mstore\n      pop\n      dup2\n      add\n      swap1\n      tag_41\n      swap2\n      swap1\n      tag_42\n      jump\t// in\n    tag_41:\n        /* \"Heliocontracts/contracts/libraries/AuctionProxy.sol\":2360:2405  collateral.gem.gem().balanceOf(address(this)) */\n      mload(0x40)\n      shl(0xe0, 0x70a08231)\n      dup2\n      mstore\n        /* \"Heliocontracts/contracts/libraries/AuctionProxy.sol\":2399:2403  this */\n      address\n        /* \"Heliocontracts/contracts/libraries/AuctionProxy.sol\":2360:2405  collateral.gem.gem().balanceOf(address(this)) */\n      0x04\n      dup3\n      add\n        /* \"#utility.yul\":5603:5654   */\n      mstore\n      sub(shl(0xa0, 0x01), 0x01)\n        /* \"Heliocontracts/contracts/libraries/AuctionProxy.sol\":2360:2390  collateral.gem.gem().balanceOf */\n      swap2\n      swap1\n      swap2\n      and\n      swap1\n      0x70a08231\n      swap1\n        /* \"#utility.yul\":5576:5594   */\n      0x24\n      add\n        /* \"Heliocontracts/contracts/libraries/AuctionProxy.sol\":2360:2405  collateral.gem.gem().balanceOf(address(this)) */\n      0x20\n      mload(0x40)\n      dup1\n      dup4\n      sub\n      dup2\n      dup7\n      gas\n      staticcall\n      iszero\n      dup1\n      iszero\n      tag_45\n      jumpi\n      returndatasize\n      0x00\n      dup1\n      returndatacopy\n      revert(0x00, returndatasize)\n    tag_45:\n      pop\n      pop\n      pop\n      pop\n      mload(0x40)\n      returndatasize\n      not(0x1f)\n      0x1f\n      dup3\n      add\n      and\n      dup3\n      add\n      dup1\n      0x40\n      mstore\n      pop\n      dup2\n      add\n      swap1\n      tag_46\n      swap2\n      swap1\n      tag_36\n      jump\t// in\n    tag_46:\n        /* \"Heliocontracts/contracts/libraries/AuctionProxy.sol\":2343:2405  uint256 gemBal = collateral.gem.gem().balanceOf(address(this)) */\n      swap1\n      pop\n        /* \"Heliocontracts/contracts/libraries/AuctionProxy.sol\":2412:2432  uint256 hayMaxAmount */\n      0x00\n        /* \"Heliocontracts/contracts/libraries/AuctionProxy.sol\":2435:2483  FullMath.mulDiv(maxPrice, collateralAmount, RAY) */\n      tag_47\n        /* \"Heliocontracts/contracts/libraries/AuctionProxy.sol\":2451:2459  maxPrice */\n      dup12\n        /* \"Heliocontracts/contracts/libraries/AuctionProxy.sol\":2461:2477  collateralAmount */\n      dup14\n        /* \"Heliocontracts/contracts/libraries/AuctionProxy.sol\":521:527  10**27 */\n      0x033b2e3c9fd0803ce8000000\n        /* \"Heliocontracts/contracts/libraries/AuctionProxy.sol\":2435:2450  FullMath.mulDiv */\n      tag_48\n        /* \"Heliocontracts/contracts/libraries/AuctionProxy.sol\":2435:2483  FullMath.mulDiv(maxPrice, collateralAmount, RAY) */\n      jump\t// in\n    tag_47:\n        /* \"Heliocontracts/contracts/libraries/AuctionProxy.sol\":2435:2487  FullMath.mulDiv(maxPrice, collateralAmount, RAY) + 1 */\n      tag_49\n      swap1\n        /* \"Heliocontracts/contracts/libraries/AuctionProxy.sol\":2486:2487  1 */\n      0x01\n        /* \"Heliocontracts/contracts/libraries/AuctionProxy.sol\":2435:2487  FullMath.mulDiv(maxPrice, collateralAmount, RAY) + 1 */\n      tag_50\n      jump\t// in\n    tag_49:\n        /* \"Heliocontracts/contracts/libraries/AuctionProxy.sol\":2412:2487  uint256 hayMaxAmount = FullMath.mulDiv(maxPrice, collateralAmount, RAY) + 1 */\n      swap1\n      pop\n        /* \"Heliocontracts/contracts/libraries/AuctionProxy.sol\":2494:2555  hay.safeTransferFrom(msg.sender, address(this), hayMaxAmount) */\n      tag_51\n      sub(shl(0xa0, 0x01), 0x01)\n        /* \"Heliocontracts/contracts/libraries/AuctionProxy.sol\":2494:2514  hay.safeTransferFrom */\n      dup11\n      and\n        /* \"Heliocontracts/contracts/libraries/AuctionProxy.sol\":2515:2525  msg.sender */\n      caller\n        /* \"Heliocontracts/contracts/libraries/AuctionProxy.sol\":2535:2539  this */\n      address\n        /* \"Heliocontracts/contracts/libraries/AuctionProxy.sol\":2412:2487  uint256 hayMaxAmount = FullMath.mulDiv(maxPrice, collateralAmount, RAY) + 1 */\n      dup5\n        /* \"Heliocontracts/contracts/libraries/AuctionProxy.sol\":2494:2514  hay.safeTransferFrom */\n      tag_52\n        /* \"Heliocontracts/contracts/libraries/AuctionProxy.sol\":2494:2555  hay.safeTransferFrom(msg.sender, address(this), hayMaxAmount) */\n      jump\t// in\n    tag_51:\n        /* \"Heliocontracts/contracts/libraries/AuctionProxy.sol\":2561:2602  hayJoin.join(address(this), hayMaxAmount) */\n      mload(0x40)\n      shl(0xe0, 0x3b4da69f)\n      dup2\n      mstore\n      sub(shl(0xa0, 0x01), 0x01)\n        /* \"Heliocontracts/contracts/libraries/AuctionProxy.sol\":2561:2573  hayJoin.join */\n      dup10\n      and\n      swap1\n      0x3b4da69f\n      swap1\n        /* \"Heliocontracts/contracts/libraries/AuctionProxy.sol\":2561:2602  hayJoin.join(address(this), hayMaxAmount) */\n      tag_53\n      swap1\n        /* \"Heliocontracts/contracts/libraries/AuctionProxy.sol\":2582:2586  this */\n      address\n      swap1\n        /* \"Heliocontracts/contracts/libraries/AuctionProxy.sol\":2589:2601  hayMaxAmount */\n      dup6\n      swap1\n        /* \"Heliocontracts/contracts/libraries/AuctionProxy.sol\":2561:2602  hayJoin.join(address(this), hayMaxAmount) */\n      0x04\n      add\n      tag_54\n      jump\t// in\n    tag_53:\n      0x00\n      mload(0x40)\n      dup1\n      dup4\n      sub\n      dup2\n      0x00\n      dup8\n      dup1\n      extcodesize\n      iszero\n      dup1\n      iszero\n      tag_55\n      jumpi\n      0x00\n      dup1\n      revert\n    tag_55:\n      pop\n      gas\n      call\n      iszero\n      dup1\n      iszero\n      tag_57\n      jumpi\n      returndatasize\n      0x00\n      dup1\n      returndatacopy\n      revert(0x00, returndatasize)\n    tag_57:\n      pop\n      pop\n      pop\n      sub(shl(0xa0, 0x01), 0x01)\n        /* \"Heliocontracts/contracts/libraries/AuctionProxy.sol\":2609:2617  vat.hope */\n      dup9\n      and\n      swap1\n      pop\n      0xa3b22fc4\n        /* \"Heliocontracts/contracts/libraries/AuctionProxy.sol\":2626:2641  collateral.clip */\n      tag_58\n      0x80\n      dup9\n      add\n      0x60\n      dup10\n      add\n      tag_21\n      jump\t// in\n    tag_58:\n        /* \"Heliocontracts/contracts/libraries/AuctionProxy.sol\":2609:2643  vat.hope(address(collateral.clip)) */\n      mload(0x40)\n      not(sub(shl(0xe0, 0x01), 0x01))\n      0xe0\n      dup5\n      swap1\n      shl\n      and\n      dup2\n      mstore\n      sub(shl(0xa0, 0x01), 0x01)\n        /* \"#utility.yul\":5621:5653   */\n      swap1\n      swap2\n      and\n        /* \"Heliocontracts/contracts/libraries/AuctionProxy.sol\":2609:2643  vat.hope(address(collateral.clip)) */\n      0x04\n      dup3\n      add\n        /* \"#utility.yul\":5603:5654   */\n      mstore\n        /* \"#utility.yul\":5576:5594   */\n      0x24\n      add\n        /* \"Heliocontracts/contracts/libraries/AuctionProxy.sol\":2609:2643  vat.hope(address(collateral.clip)) */\n      0x00\n      mload(0x40)\n      dup1\n      dup4\n      sub\n      dup2\n      0x00\n      dup8\n      dup1\n      extcodesize\n      iszero\n      dup1\n      iszero\n      tag_61\n      jumpi\n      0x00\n      dup1\n      revert\n    tag_61:\n      pop\n      gas\n      call\n      iszero\n      dup1\n      iszero\n      tag_63\n      jumpi\n      returndatasize\n      0x00\n      dup1\n      returndatacopy\n      revert(0x00, returndatasize)\n    tag_63:\n      pop\n        /* \"Heliocontracts/contracts/libraries/AuctionProxy.sol\":2649:2660  address urn */\n      0x00\n      swap3\n      pop\n        /* \"Heliocontracts/contracts/libraries/AuctionProxy.sol\":2675:2690  collateral.clip */\n      tag_64\n      swap2\n      pop\n      pop\n      0x80\n      dup8\n      add\n      0x60\n      dup9\n      add\n      tag_21\n      jump\t// in\n    tag_64:\n      sub(shl(0xa0, 0x01), 0x01)\n        /* \"Heliocontracts/contracts/libraries/AuctionProxy.sol\":2663:2697  ClipperLike(collateral.clip).sales */\n      and\n      0xb5f522f7\n        /* \"Heliocontracts/contracts/libraries/AuctionProxy.sol\":2698:2707  auctionId */\n      dup16\n        /* \"Heliocontracts/contracts/libraries/AuctionProxy.sol\":2663:2708  ClipperLike(collateral.clip).sales(auctionId) */\n      mload(0x40)\n      dup3\n      0xffffffff\n      and\n      0xe0\n      shl\n      dup2\n      mstore\n      0x04\n      add\n      tag_65\n      swap2\n        /* \"#utility.yul\":1719:1744   */\n      dup2\n      mstore\n        /* \"#utility.yul\":1707:1709   */\n      0x20\n        /* \"#utility.yul\":1692:1710   */\n      add\n      swap1\n        /* \"#utility.yul\":1565:1750   */\n      jump\n        /* \"Heliocontracts/contracts/libraries/AuctionProxy.sol\":2663:2708  ClipperLike(collateral.clip).sales(auctionId) */\n    tag_65:\n      0xc0\n      mload(0x40)\n      dup1\n      dup4\n      sub\n      dup2\n      dup7\n      gas\n      staticcall\n      iszero\n      dup1\n      iszero\n      tag_68\n      jumpi\n      returndatasize\n      0x00\n      dup1\n      returndatacopy\n      revert(0x00, returndatasize)\n    tag_68:\n      pop\n      pop\n      pop\n      pop\n      mload(0x40)\n      returndatasize\n      not(0x1f)\n      0x1f\n      dup3\n      add\n      and\n      dup3\n      add\n      dup1\n      0x40\n      mstore\n      pop\n      dup2\n      add\n      swap1\n      tag_69\n      swap2\n      swap1\n      tag_70\n      jump\t// in\n    tag_69:\n        /* \"Heliocontracts/contracts/libraries/AuctionProxy.sol\":2663:2712  ClipperLike(collateral.clip).sales(auctionId).usr */\n      0x60\n      add\n      mload\n        /* \"Heliocontracts/contracts/libraries/AuctionProxy.sol\":2752:2780  vat.gem(collateral.ilk, urn) */\n      mload(0x40)\n      shl(0xe0, 0x214414d5)\n      dup2\n      mstore\n        /* \"Heliocontracts/contracts/libraries/AuctionProxy.sol\":2760:2774  collateral.ilk */\n      0x20\n      dup9\n      add\n      calldataload\n        /* \"Heliocontracts/contracts/libraries/AuctionProxy.sol\":2752:2780  vat.gem(collateral.ilk, urn) */\n      0x04\n      dup3\n      add\n        /* \"#utility.yul\":8892:8917   */\n      mstore\n      sub(shl(0xa0, 0x01), 0x01)\n        /* \"#utility.yul\":8953:8985   */\n      dup1\n      dup4\n      and\n        /* \"#utility.yul\":8933:8951   */\n      0x24\n      dup4\n      add\n        /* \"#utility.yul\":8926:8986   */\n      mstore\n        /* \"Heliocontracts/contracts/libraries/AuctionProxy.sol\":2663:2712  ClipperLike(collateral.clip).sales(auctionId).usr */\n      swap2\n      swap3\n      pop\n        /* \"Heliocontracts/contracts/libraries/AuctionProxy.sol\":2752:2759  vat.gem */\n      swap1\n      dup10\n      and\n      swap1\n      0x214414d5\n      swap1\n        /* \"#utility.yul\":8865:8883   */\n      0x44\n      add\n        /* \"Heliocontracts/contracts/libraries/AuctionProxy.sol\":2752:2780  vat.gem(collateral.ilk, urn) */\n      0x20\n      mload(0x40)\n      dup1\n      dup4\n      sub\n      dup2\n      dup7\n      gas\n      staticcall\n      iszero\n      dup1\n      iszero\n      tag_74\n      jumpi\n      returndatasize\n      0x00\n      dup1\n      returndatacopy\n      revert(0x00, returndatasize)\n    tag_74:\n      pop\n      pop\n      pop\n      pop\n      mload(0x40)\n      returndatasize\n      not(0x1f)\n      0x1f\n      dup3\n      add\n      and\n      dup3\n      add\n      dup1\n      0x40\n      mstore\n      pop\n      dup2\n      add\n      swap1\n      tag_75\n      swap2\n      swap1\n      tag_36\n      jump\t// in\n    tag_75:\n        /* \"Heliocontracts/contracts/libraries/AuctionProxy.sol\":2741:2780  leftover = vat.gem(collateral.ilk, urn) */\n      swap5\n      pop\n        /* \"Heliocontracts/contracts/libraries/AuctionProxy.sol\":2822:2837  collateral.clip */\n      tag_76\n      0x80\n      dup8\n      add\n      0x60\n      dup9\n      add\n      tag_21\n      jump\t// in\n    tag_76:\n      sub(shl(0xa0, 0x01), 0x01)\n        /* \"Heliocontracts/contracts/libraries/AuctionProxy.sol\":2810:2843  ClipperLike(collateral.clip).take */\n      and\n      0x81a794cb\n        /* \"Heliocontracts/contracts/libraries/AuctionProxy.sol\":2844:2853  auctionId */\n      dup16\n        /* \"Heliocontracts/contracts/libraries/AuctionProxy.sol\":2855:2871  collateralAmount */\n      dup16\n        /* \"Heliocontracts/contracts/libraries/AuctionProxy.sol\":2873:2881  maxPrice */\n      dup16\n        /* \"Heliocontracts/contracts/libraries/AuctionProxy.sol\":2891:2895  this */\n      address\n        /* \"Heliocontracts/contracts/libraries/AuctionProxy.sol\":2810:2901  ClipperLike(collateral.clip).take(auctionId, collateralAmount, maxPrice, address(this), \"\") */\n      mload(0x40)\n      dup6\n      0xffffffff\n      and\n      0xe0\n      shl\n      dup2\n      mstore\n      0x04\n      add\n      tag_77\n      swap5\n      swap4\n      swap3\n      swap2\n      swap1\n        /* \"#utility.yul\":9292:9317   */\n      swap4\n      dup5\n      mstore\n        /* \"#utility.yul\":9348:9350   */\n      0x20\n        /* \"#utility.yul\":9333:9351   */\n      dup5\n      add\n        /* \"#utility.yul\":9326:9360   */\n      swap3\n      swap1\n      swap3\n      mstore\n        /* \"#utility.yul\":9391:9393   */\n      0x40\n        /* \"#utility.yul\":9376:9394   */\n      dup4\n      add\n        /* \"#utility.yul\":9369:9403   */\n      mstore\n      sub(shl(0xa0, 0x01), 0x01)\n        /* \"#utility.yul\":9439:9471   */\n      and\n        /* \"#utility.yul\":9434:9436   */\n      0x60\n        /* \"#utility.yul\":9419:9437   */\n      dup3\n      add\n        /* \"#utility.yul\":9412:9472   */\n      mstore\n        /* \"#utility.yul\":9459:9462   */\n      0xa0\n        /* \"#utility.yul\":9503:9506   */\n      0x80\n        /* \"#utility.yul\":9488:9507   */\n      dup3\n      add\n        /* \"#utility.yul\":9481:9513   */\n      dup2\n      swap1\n      mstore\n      0x00\n        /* \"#utility.yul\":9529:9548   */\n      swap1\n      dup3\n      add\n        /* \"#utility.yul\":9522:9552   */\n      mstore\n        /* \"#utility.yul\":9584:9587   */\n      0xc0\n        /* \"#utility.yul\":9569:9588   */\n      add\n      swap1\n        /* \"#utility.yul\":8997:9594   */\n      jump\n        /* \"Heliocontracts/contracts/libraries/AuctionProxy.sol\":2810:2901  ClipperLike(collateral.clip).take(auctionId, collateralAmount, maxPrice, address(this), \"\") */\n    tag_77:\n      0x00\n      mload(0x40)\n      dup1\n      dup4\n      sub\n      dup2\n      0x00\n      dup8\n      dup1\n      extcodesize\n      iszero\n      dup1\n      iszero\n      tag_79\n      jumpi\n      0x00\n      dup1\n      revert\n    tag_79:\n      pop\n      gas\n      call\n      iszero\n      dup1\n      iszero\n      tag_81\n      jumpi\n      returndatasize\n      0x00\n      dup1\n      returndatacopy\n      revert(0x00, returndatasize)\n    tag_81:\n      pop\n      pop\n        /* \"Heliocontracts/contracts/libraries/AuctionProxy.sol\":2918:2946  vat.gem(collateral.ilk, urn) */\n      mload(0x40)\n      shl(0xe0, 0x214414d5)\n      dup2\n      mstore\n        /* \"Heliocontracts/contracts/libraries/AuctionProxy.sol\":2926:2940  collateral.ilk */\n      0x20\n      dup10\n      add\n      calldataload\n        /* \"Heliocontracts/contracts/libraries/AuctionProxy.sol\":2918:2946  vat.gem(collateral.ilk, urn) */\n      0x04\n      dup3\n      add\n        /* \"#utility.yul\":8892:8917   */\n      mstore\n      sub(shl(0xa0, 0x01), 0x01)\n        /* \"#utility.yul\":8953:8985   */\n      dup5\n      dup2\n      and\n        /* \"#utility.yul\":8933:8951   */\n      0x24\n      dup4\n      add\n        /* \"#utility.yul\":8926:8986   */\n      mstore\n        /* \"Heliocontracts/contracts/libraries/AuctionProxy.sol\":2949:2957  leftover */\n      dup9\n      swap4\n      pop\n        /* \"Heliocontracts/contracts/libraries/AuctionProxy.sol\":2918:2925  vat.gem */\n      dup12\n      and\n      swap2\n      pop\n      0x214414d5\n      swap1\n        /* \"#utility.yul\":8865:8883   */\n      0x44\n      add\n        /* \"Heliocontracts/contracts/libraries/AuctionProxy.sol\":2918:2946  vat.gem(collateral.ilk, urn) */\n      0x20\n      mload(0x40)\n      dup1\n      dup4\n      sub\n      dup2\n      dup7\n      gas\n      staticcall\n      iszero\n      dup1\n      iszero\n      tag_84\n      jumpi\n      returndatasize\n      0x00\n      dup1\n      returndatacopy\n      revert(0x00, returndatasize)\n    tag_84:\n      pop\n      pop\n      pop\n      pop\n      mload(0x40)\n      returndatasize\n      not(0x1f)\n      0x1f\n      dup3\n      add\n      and\n      dup3\n      add\n      dup1\n      0x40\n      mstore\n      pop\n      dup2\n      add\n      swap1\n      tag_85\n      swap2\n      swap1\n      tag_36\n      jump\t// in\n    tag_85:\n        /* \"Heliocontracts/contracts/libraries/AuctionProxy.sol\":2918:2957  vat.gem(collateral.ilk, urn) - leftover */\n      tag_86\n      swap2\n      swap1\n      tag_87\n      jump\t// in\n    tag_86:\n        /* \"Heliocontracts/contracts/libraries/AuctionProxy.sol\":2907:2957  leftover = vat.gem(collateral.ilk, urn) - leftover */\n      swap5\n      pop\n        /* \"Heliocontracts/contracts/libraries/AuctionProxy.sol\":2976:2990  collateral.gem */\n      tag_88\n      0x20\n      dup8\n      add\n        /* \"Heliocontracts/contracts/libraries/AuctionProxy.sol\":2976:2986  collateral */\n      dup8\n        /* \"Heliocontracts/contracts/libraries/AuctionProxy.sol\":2976:2990  collateral.gem */\n      tag_21\n      jump\t// in\n    tag_88:\n        /* \"Heliocontracts/contracts/libraries/AuctionProxy.sol\":3011:3049  vat.gem(collateral.ilk, address(this)) */\n      mload(0x40)\n      shl(0xe0, 0x214414d5)\n      dup2\n      mstore\n        /* \"Heliocontracts/contracts/libraries/AuctionProxy.sol\":3019:3033  collateral.ilk */\n      0x20\n      dup9\n      add\n      calldataload\n        /* \"Heliocontracts/contracts/libraries/AuctionProxy.sol\":3011:3049  vat.gem(collateral.ilk, address(this)) */\n      0x04\n      dup3\n      add\n        /* \"#utility.yul\":8892:8917   */\n      mstore\n        /* \"Heliocontracts/contracts/libraries/AuctionProxy.sol\":3004:3008  this */\n      address\n        /* \"#utility.yul\":8933:8951   */\n      0x24\n      dup3\n      add\n        /* \"#utility.yul\":8926:8986   */\n      dup2\n      swap1\n      mstore\n      sub(shl(0xa0, 0x01), 0x01)\n        /* \"Heliocontracts/contracts/libraries/AuctionProxy.sol\":2976:2995  collateral.gem.exit */\n      swap3\n      dup4\n      and\n      swap3\n      0xef693bed\n      swap3\n        /* \"Heliocontracts/contracts/libraries/AuctionProxy.sol\":3011:3018  vat.gem */\n      swap1\n      dup13\n      and\n      swap1\n      0x214414d5\n      swap1\n        /* \"#utility.yul\":8865:8883   */\n      0x44\n      add\n        /* \"Heliocontracts/contracts/libraries/AuctionProxy.sol\":3011:3049  vat.gem(collateral.ilk, address(this)) */\n      0x20\n      mload(0x40)\n      dup1\n      dup4\n      sub\n      dup2\n      dup7\n      gas\n      staticcall\n      iszero\n      dup1\n      iszero\n      tag_91\n      jumpi\n      returndatasize\n      0x00\n      dup1\n      returndatacopy\n      revert(0x00, returndatasize)\n    tag_91:\n      pop\n      pop\n      pop\n      pop\n      mload(0x40)\n      returndatasize\n      not(0x1f)\n      0x1f\n      dup3\n      add\n      and\n      dup3\n      add\n      dup1\n      0x40\n      mstore\n      pop\n      dup2\n      add\n      swap1\n      tag_92\n      swap2\n      swap1\n      tag_36\n      jump\t// in\n    tag_92:\n        /* \"Heliocontracts/contracts/libraries/AuctionProxy.sol\":2976:3050  collateral.gem.exit(address(this), vat.gem(collateral.ilk, address(this))) */\n      mload(0x40)\n      dup4\n      0xffffffff\n      and\n      0xe0\n      shl\n      dup2\n      mstore\n      0x04\n      add\n      tag_93\n      swap3\n      swap2\n      swap1\n      tag_54\n      jump\t// in\n    tag_93:\n      0x00\n      mload(0x40)\n      dup1\n      dup4\n      sub\n      dup2\n      0x00\n      dup8\n      dup1\n      extcodesize\n      iszero\n      dup1\n      iszero\n      tag_94\n      jumpi\n      0x00\n      dup1\n      revert\n    tag_94:\n      pop\n      gas\n      call\n      iszero\n      dup1\n      iszero\n      tag_96\n      jumpi\n      returndatasize\n      0x00\n      dup1\n      returndatacopy\n      revert(0x00, returndatasize)\n    tag_96:\n      pop\n      pop\n        /* \"Heliocontracts/contracts/libraries/AuctionProxy.sol\":3084:3106  vat.hay(address(this)) */\n      mload(0x40)\n      shl(0xe0, 0x85fd5cd7)\n      dup2\n      mstore\n        /* \"Heliocontracts/contracts/libraries/AuctionProxy.sol\":3077:3081  this */\n      address\n        /* \"Heliocontracts/contracts/libraries/AuctionProxy.sol\":3084:3106  vat.hay(address(this)) */\n      0x04\n      dup3\n      add\n        /* \"#utility.yul\":5603:5654   */\n      dup2\n      swap1\n      mstore\n      sub(shl(0xa0, 0x01), 0x01)\n        /* \"Heliocontracts/contracts/libraries/AuctionProxy.sol\":3056:3068  hayJoin.exit */\n      dup1\n      dup15\n      and\n      swap5\n      pop\n      0xef693bed\n      swap4\n      pop\n        /* \"Heliocontracts/contracts/libraries/AuctionProxy.sol\":3077:3081  this */\n      swap1\n      swap2\n        /* \"Heliocontracts/contracts/libraries/AuctionProxy.sol\":521:527  10**27 */\n      0x033b2e3c9fd0803ce8000000\n      swap2\n        /* \"Heliocontracts/contracts/libraries/AuctionProxy.sol\":3084:3091  vat.hay */\n      dup14\n      and\n      swap1\n      0x85fd5cd7\n      swap1\n        /* \"#utility.yul\":5576:5594   */\n      0x24\n      add\n        /* \"Heliocontracts/contracts/libraries/AuctionProxy.sol\":3084:3106  vat.hay(address(this)) */\n      0x20\n      mload(0x40)\n      dup1\n      dup4\n      sub\n      dup2\n      dup7\n      gas\n      staticcall\n      iszero\n      dup1\n      iszero\n      tag_99\n      jumpi\n      returndatasize\n      0x00\n      dup1\n      returndatacopy\n      revert(0x00, returndatasize)\n    tag_99:\n      pop\n      pop\n      pop\n      pop\n      mload(0x40)\n      returndatasize\n      not(0x1f)\n      0x1f\n      dup3\n      add\n      and\n      dup3\n      add\n      dup1\n      0x40\n      mstore\n      pop\n      dup2\n      add\n      swap1\n      tag_100\n      swap2\n      swap1\n      tag_36\n      jump\t// in\n    tag_100:\n        /* \"Heliocontracts/contracts/libraries/AuctionProxy.sol\":3084:3112  vat.hay(address(this)) / RAY */\n      tag_101\n      swap2\n      swap1\n      tag_102\n      jump\t// in\n    tag_101:\n        /* \"Heliocontracts/contracts/libraries/AuctionProxy.sol\":3056:3113  hayJoin.exit(address(this), vat.hay(address(this)) / RAY) */\n      mload(0x40)\n      dup4\n      0xffffffff\n      and\n      0xe0\n      shl\n      dup2\n      mstore\n      0x04\n      add\n      tag_103\n      swap3\n      swap2\n      swap1\n      tag_54\n      jump\t// in\n    tag_103:\n      0x00\n      mload(0x40)\n      dup1\n      dup4\n      sub\n      dup2\n      0x00\n      dup8\n      dup1\n      extcodesize\n      iszero\n      dup1\n      iszero\n      tag_104\n      jumpi\n      0x00\n      dup1\n      revert\n    tag_104:\n      pop\n      gas\n      call\n      iszero\n      dup1\n      iszero\n      tag_106\n      jumpi\n      returndatasize\n      0x00\n      dup1\n      returndatacopy\n      revert(0x00, returndatasize)\n    tag_106:\n      pop\n      pop\n        /* \"Heliocontracts/contracts/libraries/AuctionProxy.sol\":3150:3178  hay.balanceOf(address(this)) */\n      mload(0x40)\n      shl(0xe0, 0x70a08231)\n      dup2\n      mstore\n        /* \"Heliocontracts/contracts/libraries/AuctionProxy.sol\":3172:3176  this */\n      address\n        /* \"Heliocontracts/contracts/libraries/AuctionProxy.sol\":3150:3178  hay.balanceOf(address(this)) */\n      0x04\n      dup3\n      add\n        /* \"#utility.yul\":5603:5654   */\n      mstore\n        /* \"Heliocontracts/contracts/libraries/AuctionProxy.sol\":3181:3187  hayBal */\n      dup7\n      swap3\n      pop\n      sub(shl(0xa0, 0x01), 0x01)\n        /* \"Heliocontracts/contracts/libraries/AuctionProxy.sol\":3150:3163  hay.balanceOf */\n      dup14\n      and\n      swap2\n      pop\n      0x70a08231\n      swap1\n        /* \"#utility.yul\":5576:5594   */\n      0x24\n      add\n        /* \"Heliocontracts/contracts/libraries/AuctionProxy.sol\":3150:3178  hay.balanceOf(address(this)) */\n      0x20\n      mload(0x40)\n      dup1\n      dup4\n      sub\n      dup2\n      dup7\n      gas\n      staticcall\n      iszero\n      dup1\n      iszero\n      tag_109\n      jumpi\n      returndatasize\n      0x00\n      dup1\n      returndatacopy\n      revert(0x00, returndatasize)\n    tag_109:\n      pop\n      pop\n      pop\n      pop\n      mload(0x40)\n      returndatasize\n      not(0x1f)\n      0x1f\n      dup3\n      add\n      and\n      dup3\n      add\n      dup1\n      0x40\n      mstore\n      pop\n      dup2\n      add\n      swap1\n      tag_110\n      swap2\n      swap1\n      tag_36\n      jump\t// in\n    tag_110:\n        /* \"Heliocontracts/contracts/libraries/AuctionProxy.sol\":3150:3187  hay.balanceOf(address(this)) - hayBal */\n      tag_111\n      swap2\n      swap1\n      tag_87\n      jump\t// in\n    tag_111:\n        /* \"Heliocontracts/contracts/libraries/AuctionProxy.sol\":3141:3187  hayBal = hay.balanceOf(address(this)) - hayBal */\n      swap4\n      pop\n        /* \"Heliocontracts/contracts/libraries/AuctionProxy.sol\":3250:3256  gemBal */\n      dup3\n        /* \"Heliocontracts/contracts/libraries/AuctionProxy.sol\":3202:3216  collateral.gem */\n      tag_112\n      0x20\n      dup9\n      add\n        /* \"Heliocontracts/contracts/libraries/AuctionProxy.sol\":3202:3212  collateral */\n      dup9\n        /* \"Heliocontracts/contracts/libraries/AuctionProxy.sol\":3202:3216  collateral.gem */\n      tag_21\n      jump\t// in\n    tag_112:\n      sub(shl(0xa0, 0x01), 0x01)\n        /* \"Heliocontracts/contracts/libraries/AuctionProxy.sol\":3202:3220  collateral.gem.gem */\n      and\n      0x7bd2bea7\n        /* \"Heliocontracts/contracts/libraries/AuctionProxy.sol\":3202:3222  collateral.gem.gem() */\n      mload(0x40)\n      dup2\n      0xffffffff\n      and\n      0xe0\n      shl\n      dup2\n      mstore\n      0x04\n      add\n      0x20\n      mload(0x40)\n      dup1\n      dup4\n      sub\n      dup2\n      dup7\n      gas\n      staticcall\n      iszero\n      dup1\n      iszero\n      tag_114\n      jumpi\n      returndatasize\n      0x00\n      dup1\n      returndatacopy\n      revert(0x00, returndatasize)\n    tag_114:\n      pop\n      pop\n      pop\n      pop\n      mload(0x40)\n      returndatasize\n      not(0x1f)\n      0x1f\n      dup3\n      add\n      and\n      dup3\n      add\n      dup1\n      0x40\n      mstore\n      pop\n      dup2\n      add\n      swap1\n      tag_115\n      swap2\n      swap1\n      tag_42\n      jump\t// in\n    tag_115:\n        /* \"Heliocontracts/contracts/libraries/AuctionProxy.sol\":3202:3247  collateral.gem.gem().balanceOf(address(this)) */\n      mload(0x40)\n      shl(0xe0, 0x70a08231)\n      dup2\n      mstore\n        /* \"Heliocontracts/contracts/libraries/AuctionProxy.sol\":3241:3245  this */\n      address\n        /* \"Heliocontracts/contracts/libraries/AuctionProxy.sol\":3202:3247  collateral.gem.gem().balanceOf(address(this)) */\n      0x04\n      dup3\n      add\n        /* \"#utility.yul\":5603:5654   */\n      mstore\n      sub(shl(0xa0, 0x01), 0x01)\n        /* \"Heliocontracts/contracts/libraries/AuctionProxy.sol\":3202:3232  collateral.gem.gem().balanceOf */\n      swap2\n      swap1\n      swap2\n      and\n      swap1\n      0x70a08231\n      swap1\n        /* \"#utility.yul\":5576:5594   */\n      0x24\n      add\n        /* \"Heliocontracts/contracts/libraries/AuctionProxy.sol\":3202:3247  collateral.gem.gem().balanceOf(address(this)) */\n      0x20\n      mload(0x40)\n      dup1\n      dup4\n      sub\n      dup2\n      dup7\n      gas\n      staticcall\n      iszero\n      dup1\n      iszero\n      tag_118\n      jumpi\n      returndatasize\n      0x00\n      dup1\n      returndatacopy\n      revert(0x00, returndatasize)\n    tag_118:\n      pop\n      pop\n      pop\n      pop\n      mload(0x40)\n      returndatasize\n      not(0x1f)\n      0x1f\n      dup3\n      add\n      and\n      dup3\n      add\n      dup1\n      0x40\n      mstore\n      pop\n      dup2\n      add\n      swap1\n      tag_119\n      swap2\n      swap1\n      tag_36\n      jump\t// in\n    tag_119:\n        /* \"Heliocontracts/contracts/libraries/AuctionProxy.sol\":3202:3256  collateral.gem.gem().balanceOf(address(this)) - gemBal */\n      tag_120\n      swap2\n      swap1\n      tag_87\n      jump\t// in\n    tag_120:\n        /* \"Heliocontracts/contracts/libraries/AuctionProxy.sol\":3193:3256  gemBal = collateral.gem.gem().balanceOf(address(this)) - gemBal */\n      swap3\n      pop\n        /* \"Heliocontracts/contracts/libraries/AuctionProxy.sol\":3262:3303  hay.safeTransfer(receiverAddress, hayBal) */\n      tag_121\n      sub(shl(0xa0, 0x01), 0x01)\n        /* \"Heliocontracts/contracts/libraries/AuctionProxy.sol\":3262:3278  hay.safeTransfer */\n      dup12\n      and\n        /* \"Heliocontracts/contracts/libraries/AuctionProxy.sol\":3279:3294  receiverAddress */\n      dup13\n        /* \"Heliocontracts/contracts/libraries/AuctionProxy.sol\":3296:3302  hayBal */\n      dup7\n        /* \"Heliocontracts/contracts/libraries/AuctionProxy.sol\":3262:3278  hay.safeTransfer */\n      tag_122\n        /* \"Heliocontracts/contracts/libraries/AuctionProxy.sol\":3262:3303  hay.safeTransfer(receiverAddress, hayBal) */\n      jump\t// in\n    tag_121:\n      sub(shl(0xa0, 0x01), 0x01)\n        /* \"Heliocontracts/contracts/libraries/AuctionProxy.sol\":3310:3318  vat.nope */\n      dup9\n      and\n      0xdc4d20fa\n        /* \"Heliocontracts/contracts/libraries/AuctionProxy.sol\":3327:3342  collateral.clip */\n      tag_123\n      0x80\n      dup10\n      add\n      0x60\n      dup11\n      add\n      tag_21\n      jump\t// in\n    tag_123:\n        /* \"Heliocontracts/contracts/libraries/AuctionProxy.sol\":3310:3344  vat.nope(address(collateral.clip)) */\n      mload(0x40)\n      not(sub(shl(0xe0, 0x01), 0x01))\n      0xe0\n      dup5\n      swap1\n      shl\n      and\n      dup2\n      mstore\n      sub(shl(0xa0, 0x01), 0x01)\n        /* \"#utility.yul\":5621:5653   */\n      swap1\n      swap2\n      and\n        /* \"Heliocontracts/contracts/libraries/AuctionProxy.sol\":3310:3344  vat.nope(address(collateral.clip)) */\n      0x04\n      dup3\n      add\n        /* \"#utility.yul\":5603:5654   */\n      mstore\n        /* \"#utility.yul\":5576:5594   */\n      0x24\n      add\n        /* \"Heliocontracts/contracts/libraries/AuctionProxy.sol\":3310:3344  vat.nope(address(collateral.clip)) */\n      0x00\n      mload(0x40)\n      dup1\n      dup4\n      sub\n      dup2\n      0x00\n      dup8\n      dup1\n      extcodesize\n      iszero\n      dup1\n      iszero\n      tag_125\n      jumpi\n      0x00\n      dup1\n      revert\n    tag_125:\n      pop\n      gas\n      call\n      iszero\n      dup1\n      iszero\n      tag_127\n      jumpi\n      returndatasize\n      0x00\n      dup1\n      returndatacopy\n      revert(0x00, returndatasize)\n    tag_127:\n      pop\n      pop\n      pop\n      pop\n      sub(shl(0xa0, 0x01), 0x01)\n        /* \"Heliocontracts/contracts/libraries/AuctionProxy.sol\":3355:3391  address(helioProvider) != address(0) */\n      dup8\n      and\n      iszero\n        /* \"Heliocontracts/contracts/libraries/AuctionProxy.sol\":3351:4041  if (address(helioProvider) != address(0)) {... */\n      tag_128\n      jumpi\n        /* \"Heliocontracts/contracts/libraries/AuctionProxy.sol\":3401:3485  IERC20Upgradeable(collateral.gem.gem()).safeTransfer(address(helioProvider), gemBal) */\n      tag_129\n        /* \"Heliocontracts/contracts/libraries/AuctionProxy.sol\":3462:3475  helioProvider */\n      dup8\n        /* \"Heliocontracts/contracts/libraries/AuctionProxy.sol\":3478:3484  gemBal */\n      dup5\n        /* \"Heliocontracts/contracts/libraries/AuctionProxy.sol\":3419:3433  collateral.gem */\n      tag_130\n      0x20\n      dup11\n      add\n        /* \"Heliocontracts/contracts/libraries/AuctionProxy.sol\":3419:3429  collateral */\n      dup11\n        /* \"Heliocontracts/contracts/libraries/AuctionProxy.sol\":3419:3433  collateral.gem */\n      tag_21\n      jump\t// in\n    tag_130:\n      sub(shl(0xa0, 0x01), 0x01)\n        /* \"Heliocontracts/contracts/libraries/AuctionProxy.sol\":3419:3437  collateral.gem.gem */\n      and\n      0x7bd2bea7\n        /* \"Heliocontracts/contracts/libraries/AuctionProxy.sol\":3419:3439  collateral.gem.gem() */\n      mload(0x40)\n      dup2\n      0xffffffff\n      and\n      0xe0\n      shl\n      dup2\n      mstore\n      0x04\n      add\n      0x20\n      mload(0x40)\n      dup1\n      dup4\n      sub\n      dup2\n      dup7\n      gas\n      staticcall\n      iszero\n      dup1\n      iszero\n      tag_132\n      jumpi\n      returndatasize\n      0x00\n      dup1\n      returndatacopy\n      revert(0x00, returndatasize)\n    tag_132:\n      pop\n      pop\n      pop\n      pop\n      mload(0x40)\n      returndatasize\n      not(0x1f)\n      0x1f\n      dup3\n      add\n      and\n      dup3\n      add\n      dup1\n      0x40\n      mstore\n      pop\n      dup2\n      add\n      swap1\n      tag_133\n      swap2\n      swap1\n      tag_42\n      jump\t// in\n    tag_133:\n      sub(shl(0xa0, 0x01), 0x01)\n        /* \"Heliocontracts/contracts/libraries/AuctionProxy.sol\":3401:3453  IERC20Upgradeable(collateral.gem.gem()).safeTransfer */\n      and\n      swap2\n        /* \"Heliocontracts/contracts/libraries/AuctionProxy.sol\":3401:3485  IERC20Upgradeable(collateral.gem.gem()).safeTransfer(address(helioProvider), gemBal) */\n      swap1\n        /* \"Heliocontracts/contracts/libraries/AuctionProxy.sol\":3401:3453  IERC20Upgradeable(collateral.gem.gem()).safeTransfer */\n      tag_122\n        /* \"Heliocontracts/contracts/libraries/AuctionProxy.sol\":3401:3485  IERC20Upgradeable(collateral.gem.gem()).safeTransfer(address(helioProvider), gemBal) */\n      jump\t// in\n    tag_129:\n        /* \"Heliocontracts/contracts/libraries/AuctionProxy.sol\":3493:3543  helioProvider.liquidation(receiverAddress, gemBal) */\n      mload(0x40)\n      shl(0xe1, 0x3795dc35)\n      dup2\n      mstore\n      sub(shl(0xa0, 0x01), 0x01)\n        /* \"Heliocontracts/contracts/libraries/AuctionProxy.sol\":3493:3518  helioProvider.liquidation */\n      dup9\n      and\n      swap1\n      0x6f2bb86a\n      swap1\n        /* \"Heliocontracts/contracts/libraries/AuctionProxy.sol\":3493:3543  helioProvider.liquidation(receiverAddress, gemBal) */\n      tag_134\n      swap1\n        /* \"Heliocontracts/contracts/libraries/AuctionProxy.sol\":3519:3534  receiverAddress */\n      dup15\n      swap1\n        /* \"Heliocontracts/contracts/libraries/AuctionProxy.sol\":3536:3542  gemBal */\n      dup8\n      swap1\n        /* \"Heliocontracts/contracts/libraries/AuctionProxy.sol\":3493:3543  helioProvider.liquidation(receiverAddress, gemBal) */\n      0x04\n      add\n      tag_54\n      jump\t// in\n    tag_134:\n      0x00\n      mload(0x40)\n      dup1\n      dup4\n      sub\n      dup2\n      0x00\n      dup8\n      dup1\n      extcodesize\n      iszero\n      dup1\n      iszero\n      tag_135\n      jumpi\n      0x00\n      dup1\n      revert\n    tag_135:\n      pop\n      gas\n      call\n      iszero\n      dup1\n      iszero\n      tag_137\n      jumpi\n      returndatasize\n      0x00\n      dup1\n      returndatacopy\n      revert(0x00, returndatasize)\n    tag_137:\n      pop\n      pop\n      pop\n      pop\n        /* \"Heliocontracts/contracts/libraries/AuctionProxy.sol\":3606:3614  leftover */\n      dup5\n        /* \"Heliocontracts/contracts/libraries/AuctionProxy.sol\":3618:3619  0 */\n      0x00\n        /* \"Heliocontracts/contracts/libraries/AuctionProxy.sol\":3606:3619  leftover != 0 */\n      eq\n        /* \"Heliocontracts/contracts/libraries/AuctionProxy.sol\":3602:3937  if (leftover != 0) {... */\n      tag_138\n      jumpi\n        /* \"Heliocontracts/contracts/libraries/AuctionProxy.sol\":3670:3724  vat.flux(collateral.ilk, urn, address(this), leftover) */\n      mload(0x40)\n      shl(0xe1, 0x3088df17)\n      dup2\n      mstore\n        /* \"Heliocontracts/contracts/libraries/AuctionProxy.sol\":3679:3693  collateral.ilk */\n      0x20\n      dup8\n      add\n      calldataload\n        /* \"Heliocontracts/contracts/libraries/AuctionProxy.sol\":3670:3724  vat.flux(collateral.ilk, urn, address(this), leftover) */\n      0x04\n      dup3\n      add\n        /* \"#utility.yul\":10314:10339   */\n      mstore\n      sub(shl(0xa0, 0x01), 0x01)\n        /* \"#utility.yul\":10413:10428   */\n      dup3\n      dup2\n      and\n        /* \"#utility.yul\":10393:10411   */\n      0x24\n      dup4\n      add\n        /* \"#utility.yul\":10386:10429   */\n      mstore\n        /* \"Heliocontracts/contracts/libraries/AuctionProxy.sol\":3708:3712  this */\n      address\n        /* \"#utility.yul\":10445:10463   */\n      0x44\n      dup4\n      add\n        /* \"#utility.yul\":10438:10481   */\n      mstore\n        /* \"#utility.yul\":10497:10515   */\n      0x64\n      dup3\n      add\n        /* \"#utility.yul\":10490:10524   */\n      dup8\n      swap1\n      mstore\n        /* \"Heliocontracts/contracts/libraries/AuctionProxy.sol\":3670:3678  vat.flux */\n      dup10\n      and\n      swap1\n      0x6111be2e\n      swap1\n        /* \"#utility.yul\":10286:10305   */\n      0x84\n      add\n        /* \"Heliocontracts/contracts/libraries/AuctionProxy.sol\":3670:3724  vat.flux(collateral.ilk, urn, address(this), leftover) */\n      0x00\n      mload(0x40)\n      dup1\n      dup4\n      sub\n      dup2\n      0x00\n      dup8\n      dup1\n      extcodesize\n      iszero\n      dup1\n      iszero\n      tag_141\n      jumpi\n      0x00\n      dup1\n      revert\n    tag_141:\n      pop\n      gas\n      call\n      iszero\n      dup1\n      iszero\n      tag_143\n      jumpi\n      returndatasize\n      0x00\n      dup1\n      returndatacopy\n      revert(0x00, returndatasize)\n    tag_143:\n      pop\n        /* \"Heliocontracts/contracts/libraries/AuctionProxy.sol\":3734:3748  collateral.gem */\n      tag_144\n      swap3\n      pop\n      pop\n      pop\n      0x20\n      dup8\n      add\n      dup8\n      tag_21\n      jump\t// in\n    tag_144:\n      sub(shl(0xa0, 0x01), 0x01)\n        /* \"Heliocontracts/contracts/libraries/AuctionProxy.sol\":3734:3753  collateral.gem.exit */\n      and\n      0xef693bed\n        /* \"Heliocontracts/contracts/libraries/AuctionProxy.sol\":3762:3775  helioProvider */\n      dup9\n        /* \"Heliocontracts/contracts/libraries/AuctionProxy.sol\":3778:3786  leftover */\n      dup8\n        /* \"Heliocontracts/contracts/libraries/AuctionProxy.sol\":3734:3787  collateral.gem.exit(address(helioProvider), leftover) */\n      mload(0x40)\n      dup4\n      0xffffffff\n      and\n      0xe0\n      shl\n      dup2\n      mstore\n      0x04\n      add\n      tag_145\n      swap3\n      swap2\n      swap1\n      tag_54\n      jump\t// in\n    tag_145:\n      0x00\n      mload(0x40)\n      dup1\n      dup4\n      sub\n      dup2\n      0x00\n      dup8\n      dup1\n      extcodesize\n      iszero\n      dup1\n      iszero\n      tag_146\n      jumpi\n      0x00\n      dup1\n      revert\n    tag_146:\n      pop\n      gas\n      call\n      iszero\n      dup1\n      iszero\n      tag_148\n      jumpi\n      returndatasize\n      0x00\n      dup1\n      returndatacopy\n      revert(0x00, returndatasize)\n    tag_148:\n      pop\n      pop\n        /* \"Heliocontracts/contracts/libraries/AuctionProxy.sol\":3841:3881  helioProvider.liquidation(urn, leftover) */\n      mload(0x40)\n      shl(0xe1, 0x3795dc35)\n      dup2\n      mstore\n      sub(shl(0xa0, 0x01), 0x01)\n        /* \"Heliocontracts/contracts/libraries/AuctionProxy.sol\":3841:3866  helioProvider.liquidation */\n      dup11\n      and\n      swap3\n      pop\n      0x6f2bb86a\n      swap2\n      pop\n        /* \"Heliocontracts/contracts/libraries/AuctionProxy.sol\":3841:3881  helioProvider.liquidation(urn, leftover) */\n      tag_149\n      swap1\n        /* \"Heliocontracts/contracts/libraries/AuctionProxy.sol\":3867:3870  urn */\n      dup5\n      swap1\n        /* \"Heliocontracts/contracts/libraries/AuctionProxy.sol\":3872:3880  leftover */\n      dup10\n      swap1\n        /* \"Heliocontracts/contracts/libraries/AuctionProxy.sol\":3841:3881  helioProvider.liquidation(urn, leftover) */\n      0x04\n      add\n      tag_54\n      jump\t// in\n    tag_149:\n      0x00\n      mload(0x40)\n      dup1\n      dup4\n      sub\n      dup2\n      0x00\n      dup8\n      dup1\n      extcodesize\n      iszero\n      dup1\n      iszero\n      tag_150\n      jumpi\n      0x00\n      dup1\n      revert\n    tag_150:\n      pop\n      gas\n      call\n      iszero\n      dup1\n      iszero\n      tag_152\n      jumpi\n      returndatasize\n      0x00\n      dup1\n      returndatacopy\n      revert(0x00, returndatasize)\n    tag_152:\n      pop\n      pop\n      pop\n      pop\n        /* \"Heliocontracts/contracts/libraries/AuctionProxy.sol\":3602:3937  if (leftover != 0) {... */\n    tag_138:\n        /* \"Heliocontracts/contracts/libraries/AuctionProxy.sol\":3351:4041  if (address(helioProvider) != address(0)) {... */\n      jump(tag_154)\n    tag_128:\n        /* \"Heliocontracts/contracts/libraries/AuctionProxy.sol\":3957:4034  IERC20Upgradeable(collateral.gem.gem()).safeTransfer(receiverAddress, gemBal) */\n      tag_154\n        /* \"Heliocontracts/contracts/libraries/AuctionProxy.sol\":4010:4025  receiverAddress */\n      dup12\n        /* \"Heliocontracts/contracts/libraries/AuctionProxy.sol\":4027:4033  gemBal */\n      dup5\n        /* \"Heliocontracts/contracts/libraries/AuctionProxy.sol\":3975:3989  collateral.gem */\n      tag_130\n      0x20\n      dup11\n      add\n        /* \"Heliocontracts/contracts/libraries/AuctionProxy.sol\":3975:3985  collateral */\n      dup11\n        /* \"Heliocontracts/contracts/libraries/AuctionProxy.sol\":3975:3989  collateral.gem */\n      tag_21\n      jump\t// in\n        /* \"Heliocontracts/contracts/libraries/AuctionProxy.sol\":3957:4034  IERC20Upgradeable(collateral.gem.gem()).safeTransfer(receiverAddress, gemBal) */\n    tag_154:\n        /* \"Heliocontracts/contracts/libraries/AuctionProxy.sol\":2263:4045  {... */\n      pop\n      pop\n      pop\n      pop\n        /* \"Heliocontracts/contracts/libraries/AuctionProxy.sol\":1954:4045  function buyFromAuction(... */\n      swap10\n      swap9\n      pop\n      pop\n      pop\n      pop\n      pop\n      pop\n      pop\n      pop\n      pop\n      jump\t// out\n        /* \"Heliocontracts/contracts/libraries/AuctionProxy.sol\":650:1423  function startAuction(... */\n    tag_17:\n        /* \"Heliocontracts/contracts/libraries/AuctionProxy.sol\":890:900  uint256 id */\n      0x00\n      dup1\n        /* \"Heliocontracts/contracts/libraries/AuctionProxy.sol\":940:955  collateral.clip */\n      tag_160\n      0x80\n      dup5\n      add\n      0x60\n      dup6\n      add\n      tag_21\n      jump\t// in\n    tag_160:\n        /* \"Heliocontracts/contracts/libraries/AuctionProxy.sol\":908:956  ClipperLike _clip = ClipperLike(collateral.clip) */\n      swap1\n      pop\n        /* \"Heliocontracts/contracts/libraries/AuctionProxy.sol\":962:967  _clip */\n      dup1\n      sub(shl(0xa0, 0x01), 0x01)\n        /* \"Heliocontracts/contracts/libraries/AuctionProxy.sol\":962:975  _clip.upchost */\n      and\n      0x0cbb5862\n        /* \"Heliocontracts/contracts/libraries/AuctionProxy.sol\":962:977  _clip.upchost() */\n      mload(0x40)\n      dup2\n      0xffffffff\n      and\n      0xe0\n      shl\n      dup2\n      mstore\n      0x04\n      add\n      0x00\n      mload(0x40)\n      dup1\n      dup4\n      sub\n      dup2\n      0x00\n      dup8\n      dup1\n      extcodesize\n      iszero\n      dup1\n      iszero\n      tag_161\n      jumpi\n      0x00\n      dup1\n      revert\n    tag_161:\n      pop\n      gas\n      call\n      iszero\n      dup1\n      iszero\n      tag_163\n      jumpi\n      returndatasize\n      0x00\n      dup1\n      returndatacopy\n      revert(0x00, returndatasize)\n    tag_163:\n      pop\n      pop\n        /* \"Heliocontracts/contracts/libraries/AuctionProxy.sol\":1000:1028  hay.balanceOf(address(this)) */\n      mload(0x40)\n      shl(0xe0, 0x70a08231)\n      dup2\n      mstore\n        /* \"Heliocontracts/contracts/libraries/AuctionProxy.sol\":1022:1026  this */\n      address\n        /* \"Heliocontracts/contracts/libraries/AuctionProxy.sol\":1000:1028  hay.balanceOf(address(this)) */\n      0x04\n      dup3\n      add\n        /* \"#utility.yul\":5603:5654   */\n      mstore\n        /* \"Heliocontracts/contracts/libraries/AuctionProxy.sol\":983:997  uint256 hayBal */\n      0x00\n      swap3\n      pop\n      sub(shl(0xa0, 0x01), 0x01)\n        /* \"Heliocontracts/contracts/libraries/AuctionProxy.sol\":1000:1013  hay.balanceOf */\n      dup12\n      and\n      swap2\n      pop\n      0x70a08231\n      swap1\n        /* \"#utility.yul\":5576:5594   */\n      0x24\n      add\n        /* \"Heliocontracts/contracts/libraries/AuctionProxy.sol\":1000:1028  hay.balanceOf(address(this)) */\n      0x20\n      mload(0x40)\n      dup1\n      dup4\n      sub\n      dup2\n      dup7\n      gas\n      staticcall\n      iszero\n      dup1\n      iszero\n      tag_166\n      jumpi\n      returndatasize\n      0x00\n      dup1\n      returndatacopy\n      revert(0x00, returndatasize)\n    tag_166:\n      pop\n      pop\n      pop\n      pop\n      mload(0x40)\n      returndatasize\n      not(0x1f)\n      0x1f\n      dup3\n      add\n      and\n      dup3\n      add\n      dup1\n      0x40\n      mstore\n      pop\n      dup2\n      add\n      swap1\n      tag_167\n      swap2\n      swap1\n      tag_36\n      jump\t// in\n    tag_167:\n        /* \"Heliocontracts/contracts/libraries/AuctionProxy.sol\":1039:1084  dog.bark(collateral.ilk, user, address(this)) */\n      mload(0x40)\n      shl(0xe3, 0x1db33121)\n      dup2\n      mstore\n        /* \"Heliocontracts/contracts/libraries/AuctionProxy.sol\":1048:1062  collateral.ilk */\n      0x20\n      dup7\n      add\n      calldataload\n        /* \"Heliocontracts/contracts/libraries/AuctionProxy.sol\":1039:1084  dog.bark(collateral.ilk, user, address(this)) */\n      0x04\n      dup3\n      add\n        /* \"#utility.yul\":10737:10762   */\n      mstore\n      sub(shl(0xa0, 0x01), 0x01)\n        /* \"#utility.yul\":10836:10851   */\n      dup14\n      dup2\n      and\n        /* \"#utility.yul\":10816:10834   */\n      0x24\n      dup4\n      add\n        /* \"#utility.yul\":10809:10852   */\n      mstore\n        /* \"Heliocontracts/contracts/libraries/AuctionProxy.sol\":1078:1082  this */\n      address\n        /* \"#utility.yul\":10868:10886   */\n      0x44\n      dup4\n      add\n        /* \"#utility.yul\":10861:10904   */\n      mstore\n        /* \"Heliocontracts/contracts/libraries/AuctionProxy.sol\":983:1028  uint256 hayBal = hay.balanceOf(address(this)) */\n      swap2\n      swap3\n      pop\n        /* \"Heliocontracts/contracts/libraries/AuctionProxy.sol\":1039:1047  dog.bark */\n      swap1\n      dup8\n      and\n      swap1\n      0xed998908\n      swap1\n        /* \"#utility.yul\":10710:10728   */\n      0x64\n      add\n        /* \"Heliocontracts/contracts/libraries/AuctionProxy.sol\":1039:1084  dog.bark(collateral.ilk, user, address(this)) */\n      0x20\n      mload(0x40)\n      dup1\n      dup4\n      sub\n      dup2\n      0x00\n      dup8\n      gas\n      call\n      iszero\n      dup1\n      iszero\n      tag_171\n      jumpi\n      returndatasize\n      0x00\n      dup1\n      returndatacopy\n      revert(0x00, returndatasize)\n    tag_171:\n      pop\n      pop\n      pop\n      pop\n      mload(0x40)\n      returndatasize\n      not(0x1f)\n      0x1f\n      dup3\n      add\n      and\n      dup3\n      add\n      dup1\n      0x40\n      mstore\n      pop\n      dup2\n      add\n      swap1\n      tag_172\n      swap2\n      swap1\n      tag_36\n      jump\t// in\n    tag_172:\n        /* \"Heliocontracts/contracts/libraries/AuctionProxy.sol\":1119:1141  vat.hay(address(this)) */\n      mload(0x40)\n      shl(0xe0, 0x85fd5cd7)\n      dup2\n      mstore\n        /* \"Heliocontracts/contracts/libraries/AuctionProxy.sol\":1112:1116  this */\n      address\n        /* \"Heliocontracts/contracts/libraries/AuctionProxy.sol\":1119:1141  vat.hay(address(this)) */\n      0x04\n      dup3\n      add\n        /* \"#utility.yul\":5603:5654   */\n      dup2\n      swap1\n      mstore\n        /* \"Heliocontracts/contracts/libraries/AuctionProxy.sol\":1034:1084  id = dog.bark(collateral.ilk, user, address(this)) */\n      swap2\n      swap5\n      pop\n      sub(shl(0xa0, 0x01), 0x01)\n        /* \"Heliocontracts/contracts/libraries/AuctionProxy.sol\":1091:1103  hayJoin.exit */\n      dup1\n      dup12\n      and\n      swap3\n      0xef693bed\n      swap3\n        /* \"Heliocontracts/contracts/libraries/AuctionProxy.sol\":1112:1116  this */\n      swap1\n      swap2\n        /* \"Heliocontracts/contracts/libraries/AuctionProxy.sol\":521:527  10**27 */\n      0x033b2e3c9fd0803ce8000000\n      swap2\n        /* \"Heliocontracts/contracts/libraries/AuctionProxy.sol\":1119:1126  vat.hay */\n      swap1\n      dup13\n      and\n      swap1\n      0x85fd5cd7\n      swap1\n        /* \"#utility.yul\":5576:5594   */\n      0x24\n      add\n        /* \"Heliocontracts/contracts/libraries/AuctionProxy.sol\":1119:1141  vat.hay(address(this)) */\n      0x20\n      mload(0x40)\n      dup1\n      dup4\n      sub\n      dup2\n      dup7\n      gas\n      staticcall\n      iszero\n      dup1\n      iszero\n      tag_175\n      jumpi\n      returndatasize\n      0x00\n      dup1\n      returndatacopy\n      revert(0x00, returndatasize)\n    tag_175:\n      pop\n      pop\n      pop\n      pop\n      mload(0x40)\n      returndatasize\n      not(0x1f)\n      0x1f\n      dup3\n      add\n      and\n      dup3\n      add\n      dup1\n      0x40\n      mstore\n      pop\n      dup2\n      add\n      swap1\n      tag_176\n      swap2\n      swap1\n      tag_36\n      jump\t// in\n    tag_176:\n        /* \"Heliocontracts/contracts/libraries/AuctionProxy.sol\":1119:1147  vat.hay(address(this)) / RAY */\n      tag_177\n      swap2\n      swap1\n      tag_102\n      jump\t// in\n    tag_177:\n        /* \"Heliocontracts/contracts/libraries/AuctionProxy.sol\":1091:1148  hayJoin.exit(address(this), vat.hay(address(this)) / RAY) */\n      mload(0x40)\n      dup4\n      0xffffffff\n      and\n      0xe0\n      shl\n      dup2\n      mstore\n      0x04\n      add\n      tag_178\n      swap3\n      swap2\n      swap1\n      tag_54\n      jump\t// in\n    tag_178:\n      0x00\n      mload(0x40)\n      dup1\n      dup4\n      sub\n      dup2\n      0x00\n      dup8\n      dup1\n      extcodesize\n      iszero\n      dup1\n      iszero\n      tag_179\n      jumpi\n      0x00\n      dup1\n      revert\n    tag_179:\n      pop\n      gas\n      call\n      iszero\n      dup1\n      iszero\n      tag_181\n      jumpi\n      returndatasize\n      0x00\n      dup1\n      returndatacopy\n      revert(0x00, returndatasize)\n    tag_181:\n      pop\n      pop\n        /* \"Heliocontracts/contracts/libraries/AuctionProxy.sol\":1163:1191  hay.balanceOf(address(this)) */\n      mload(0x40)\n      shl(0xe0, 0x70a08231)\n      dup2\n      mstore\n        /* \"Heliocontracts/contracts/libraries/AuctionProxy.sol\":1185:1189  this */\n      address\n        /* \"Heliocontracts/contracts/libraries/AuctionProxy.sol\":1163:1191  hay.balanceOf(address(this)) */\n      0x04\n      dup3\n      add\n        /* \"#utility.yul\":5603:5654   */\n      mstore\n        /* \"Heliocontracts/contracts/libraries/AuctionProxy.sol\":1194:1200  hayBal */\n      dup4\n      swap3\n      pop\n      sub(shl(0xa0, 0x01), 0x01)\n        /* \"Heliocontracts/contracts/libraries/AuctionProxy.sol\":1163:1176  hay.balanceOf */\n      dup13\n      and\n      swap2\n      pop\n      0x70a08231\n      swap1\n        /* \"#utility.yul\":5576:5594   */\n      0x24\n      add\n        /* \"Heliocontracts/contracts/libraries/AuctionProxy.sol\":1163:1191  hay.balanceOf(address(this)) */\n      0x20\n      mload(0x40)\n      dup1\n      dup4\n      sub\n      dup2\n      dup7\n      gas\n      staticcall\n      iszero\n      dup1\n      iszero\n      tag_184\n      jumpi\n      returndatasize\n      0x00\n      dup1\n      returndatacopy\n      revert(0x00, returndatasize)\n    tag_184:\n      pop\n      pop\n      pop\n      pop\n      mload(0x40)\n      returndatasize\n      not(0x1f)\n      0x1f\n      dup3\n      add\n      and\n      dup3\n      add\n      dup1\n      0x40\n      mstore\n      pop\n      dup2\n      add\n      swap1\n      tag_185\n      swap2\n      swap1\n      tag_36\n      jump\t// in\n    tag_185:\n        /* \"Heliocontracts/contracts/libraries/AuctionProxy.sol\":1163:1200  hay.balanceOf(address(this)) - hayBal */\n      tag_186\n      swap2\n      swap1\n      tag_87\n      jump\t// in\n    tag_186:\n        /* \"Heliocontracts/contracts/libraries/AuctionProxy.sol\":1154:1200  hayBal = hay.balanceOf(address(this)) - hayBal */\n      swap1\n      pop\n        /* \"Heliocontracts/contracts/libraries/AuctionProxy.sol\":1206:1238  hay.safeTransfer(keeper, hayBal) */\n      tag_187\n      sub(shl(0xa0, 0x01), 0x01)\n        /* \"Heliocontracts/contracts/libraries/AuctionProxy.sol\":1206:1222  hay.safeTransfer */\n      dup11\n      and\n        /* \"Heliocontracts/contracts/libraries/AuctionProxy.sol\":1223:1229  keeper */\n      dup12\n        /* \"Heliocontracts/contracts/libraries/AuctionProxy.sol\":1154:1200  hayBal = hay.balanceOf(address(this)) - hayBal */\n      dup4\n        /* \"Heliocontracts/contracts/libraries/AuctionProxy.sol\":1206:1222  hay.safeTransfer */\n      tag_122\n        /* \"Heliocontracts/contracts/libraries/AuctionProxy.sol\":1206:1238  hay.safeTransfer(keeper, hayBal) */\n      jump\t// in\n    tag_187:\n      sub(shl(0xa0, 0x01), 0x01)\n        /* \"Heliocontracts/contracts/libraries/AuctionProxy.sol\":1318:1354  address(helioProvider) != address(0) */\n      dup6\n      and\n      iszero\n        /* \"Heliocontracts/contracts/libraries/AuctionProxy.sol\":1314:1419  if (address(helioProvider) != address(0)) {... */\n      tag_188\n      jumpi\n        /* \"Heliocontracts/contracts/libraries/AuctionProxy.sol\":1364:1377  helioProvider */\n      dup5\n      sub(shl(0xa0, 0x01), 0x01)\n        /* \"Heliocontracts/contracts/libraries/AuctionProxy.sol\":1364:1385  helioProvider.daoBurn */\n      and\n      0xdf3d23ae\n        /* \"Heliocontracts/contracts/libraries/AuctionProxy.sol\":1386:1390  user */\n      dup13\n        /* \"Heliocontracts/contracts/libraries/AuctionProxy.sol\":1392:1397  _clip */\n      dup5\n      sub(shl(0xa0, 0x01), 0x01)\n        /* \"Heliocontracts/contracts/libraries/AuctionProxy.sol\":1392:1403  _clip.sales */\n      and\n      0xb5f522f7\n        /* \"Heliocontracts/contracts/libraries/AuctionProxy.sol\":1404:1406  id */\n      dup8\n        /* \"Heliocontracts/contracts/libraries/AuctionProxy.sol\":1392:1407  _clip.sales(id) */\n      mload(0x40)\n      dup3\n      0xffffffff\n      and\n      0xe0\n      shl\n      dup2\n      mstore\n      0x04\n      add\n      tag_189\n      swap2\n        /* \"#utility.yul\":1719:1744   */\n      dup2\n      mstore\n        /* \"#utility.yul\":1707:1709   */\n      0x20\n        /* \"#utility.yul\":1692:1710   */\n      add\n      swap1\n        /* \"#utility.yul\":1565:1750   */\n      jump\n        /* \"Heliocontracts/contracts/libraries/AuctionProxy.sol\":1392:1407  _clip.sales(id) */\n    tag_189:\n      0xc0\n      mload(0x40)\n      dup1\n      dup4\n      sub\n      dup2\n      dup7\n      gas\n      staticcall\n      iszero\n      dup1\n      iszero\n      tag_191\n      jumpi\n      returndatasize\n      0x00\n      dup1\n      returndatacopy\n      revert(0x00, returndatasize)\n    tag_191:\n      pop\n      pop\n      pop\n      pop\n      mload(0x40)\n      returndatasize\n      not(0x1f)\n      0x1f\n      dup3\n      add\n      and\n      dup3\n      add\n      dup1\n      0x40\n      mstore\n      pop\n      dup2\n      add\n      swap1\n      tag_192\n      swap2\n      swap1\n      tag_70\n      jump\t// in\n    tag_192:\n        /* \"Heliocontracts/contracts/libraries/AuctionProxy.sol\":1392:1411  _clip.sales(id).lot */\n      0x40\n      add\n      mload\n        /* \"Heliocontracts/contracts/libraries/AuctionProxy.sol\":1364:1412  helioProvider.daoBurn(user, _clip.sales(id).lot) */\n      mload(0x40)\n      dup4\n      0xffffffff\n      and\n      0xe0\n      shl\n      dup2\n      mstore\n      0x04\n      add\n      tag_193\n      swap3\n      swap2\n      swap1\n      tag_54\n      jump\t// in\n    tag_193:\n      0x00\n      mload(0x40)\n      dup1\n      dup4\n      sub\n      dup2\n      0x00\n      dup8\n      dup1\n      extcodesize\n      iszero\n      dup1\n      iszero\n      tag_194\n      jumpi\n      0x00\n      dup1\n      revert\n    tag_194:\n      pop\n      gas\n      call\n      iszero\n      dup1\n      iszero\n      tag_196\n      jumpi\n      returndatasize\n      0x00\n      dup1\n      returndatacopy\n      revert(0x00, returndatasize)\n    tag_196:\n      pop\n      pop\n      pop\n      pop\n        /* \"Heliocontracts/contracts/libraries/AuctionProxy.sol\":1314:1419  if (address(helioProvider) != address(0)) {... */\n    tag_188:\n        /* \"Heliocontracts/contracts/libraries/AuctionProxy.sol\":902:1423  {... */\n      pop\n      pop\n        /* \"Heliocontracts/contracts/libraries/AuctionProxy.sol\":650:1423  function startAuction(... */\n      swap9\n      swap8\n      pop\n      pop\n      pop\n      pop\n      pop\n      pop\n      pop\n      pop\n      jump\t// out\n        /* \"Heliocontracts/contracts/libraries/AuctionProxy.sol\":4049:4400  function getAllActiveAuctionsForClip(ClipperLike clip)... */\n    tag_22:\n        /* \"Heliocontracts/contracts/libraries/AuctionProxy.sol\":4139:4158  Sale[] memory sales */\n      0x60\n        /* \"Heliocontracts/contracts/libraries/AuctionProxy.sol\":4168:4195  uint256[] memory auctionIds */\n      0x00\n        /* \"Heliocontracts/contracts/libraries/AuctionProxy.sol\":4198:4202  clip */\n      dup3\n      sub(shl(0xa0, 0x01), 0x01)\n        /* \"Heliocontracts/contracts/libraries/AuctionProxy.sol\":4198:4207  clip.list */\n      and\n      0x0f560cd7\n        /* \"Heliocontracts/contracts/libraries/AuctionProxy.sol\":4198:4209  clip.list() */\n      mload(0x40)\n      dup2\n      0xffffffff\n      and\n      0xe0\n      shl\n      dup2\n      mstore\n      0x04\n      add\n      0x00\n      mload(0x40)\n      dup1\n      dup4\n      sub\n      dup2\n      dup7\n      gas\n      staticcall\n      iszero\n      dup1\n      iszero\n      tag_199\n      jumpi\n      returndatasize\n      0x00\n      dup1\n      returndatacopy\n      revert(0x00, returndatasize)\n    tag_199:\n      pop\n      pop\n      pop\n      pop\n      mload(0x40)\n      returndatasize\n      0x00\n      dup3\n      returndatacopy\n      0x1f\n      returndatasize\n      swap1\n      dup2\n      add\n      not(0x1f)\n      and\n      dup3\n      add\n      0x40\n      mstore\n      tag_200\n      swap2\n      swap1\n      dup2\n      add\n      swap1\n      tag_201\n      jump\t// in\n    tag_200:\n        /* \"Heliocontracts/contracts/libraries/AuctionProxy.sol\":4239:4256  auctionIds.length */\n      dup1\n      mload\n        /* \"Heliocontracts/contracts/libraries/AuctionProxy.sol\":4168:4209  uint256[] memory auctionIds = clip.list() */\n      swap1\n      swap2\n      pop\n        /* \"Heliocontracts/contracts/libraries/AuctionProxy.sol\":4239:4256  auctionIds.length */\n      dup1\n        /* \"Heliocontracts/contracts/libraries/AuctionProxy.sol\":4270:4295  new Sale[](auctionsCount) */\n      0xffffffffffffffff\n      dup2\n      gt\n      iszero\n      tag_203\n      jumpi\n      tag_203\n      tag_204\n      jump\t// in\n    tag_203:\n      mload(0x40)\n      swap1\n      dup1\n      dup3\n      mstore\n      dup1\n      0x20\n      mul\n      0x20\n      add\n      dup3\n      add\n      0x40\n      mstore\n      dup1\n      iszero\n      tag_205\n      jumpi\n      dup2\n      0x20\n      add\n    tag_206:\n      tag_207\n      mload(0x40)\n      dup1\n      0xc0\n      add\n      0x40\n      mstore\n      dup1\n      0x00\n      dup2\n      mstore\n      0x20\n      add\n      0x00\n      dup2\n      mstore\n      0x20\n      add\n      0x00\n      dup2\n      mstore\n      0x20\n      add\n      and(sub(shl(0xa0, 0x01), 0x01), 0x00)\n      dup2\n      mstore\n      0x20\n      add\n      and(sub(shl(0x60, 0x01), 0x01), 0x00)\n      dup2\n      mstore\n      0x20\n      add\n      0x00\n      dup2\n      mstore\n      pop\n      swap1\n      jump\n    tag_207:\n      dup2\n      mstore\n      0x20\n      add\n      swap1\n      0x01\n      swap1\n      sub\n      swap1\n      dup2\n      tag_206\n      jumpi\n      swap1\n      pop\n    tag_205:\n      pop\n        /* \"Heliocontracts/contracts/libraries/AuctionProxy.sol\":4262:4295  sales = new Sale[](auctionsCount) */\n      swap3\n      pop\n        /* \"Heliocontracts/contracts/libraries/AuctionProxy.sol\":4306:4315  uint256 i */\n      0x00\n        /* \"Heliocontracts/contracts/libraries/AuctionProxy.sol\":4301:4396  for (uint256 i = 0; i < auctionsCount; i++) {... */\n    tag_209:\n        /* \"Heliocontracts/contracts/libraries/AuctionProxy.sol\":4325:4338  auctionsCount */\n      dup2\n        /* \"Heliocontracts/contracts/libraries/AuctionProxy.sol\":4321:4322  i */\n      dup2\n        /* \"Heliocontracts/contracts/libraries/AuctionProxy.sol\":4321:4338  i < auctionsCount */\n      lt\n        /* \"Heliocontracts/contracts/libraries/AuctionProxy.sol\":4301:4396  for (uint256 i = 0; i < auctionsCount; i++) {... */\n      iszero\n      tag_210\n      jumpi\n        /* \"Heliocontracts/contracts/libraries/AuctionProxy.sol\":4364:4368  clip */\n      dup5\n      sub(shl(0xa0, 0x01), 0x01)\n        /* \"Heliocontracts/contracts/libraries/AuctionProxy.sol\":4364:4374  clip.sales */\n      and\n      0xb5f522f7\n        /* \"Heliocontracts/contracts/libraries/AuctionProxy.sol\":4375:4385  auctionIds */\n      dup5\n        /* \"Heliocontracts/contracts/libraries/AuctionProxy.sol\":4386:4387  i */\n      dup4\n        /* \"Heliocontracts/contracts/libraries/AuctionProxy.sol\":4375:4388  auctionIds[i] */\n      dup2\n      mload\n      dup2\n      lt\n      tag_213\n      jumpi\n      tag_213\n      tag_214\n      jump\t// in\n    tag_213:\n      0x20\n      mul\n      0x20\n      add\n      add\n      mload\n        /* \"Heliocontracts/contracts/libraries/AuctionProxy.sol\":4364:4389  clip.sales(auctionIds[i]) */\n      mload(0x40)\n      dup3\n      0xffffffff\n      and\n      0xe0\n      shl\n      dup2\n      mstore\n      0x04\n      add\n      tag_215\n      swap2\n        /* \"#utility.yul\":1719:1744   */\n      dup2\n      mstore\n        /* \"#utility.yul\":1707:1709   */\n      0x20\n        /* \"#utility.yul\":1692:1710   */\n      add\n      swap1\n        /* \"#utility.yul\":1565:1750   */\n      jump\n        /* \"Heliocontracts/contracts/libraries/AuctionProxy.sol\":4364:4389  clip.sales(auctionIds[i]) */\n    tag_215:\n      0xc0\n      mload(0x40)\n      dup1\n      dup4\n      sub\n      dup2\n      dup7\n      gas\n      staticcall\n      iszero\n      dup1\n      iszero\n      tag_217\n      jumpi\n      returndatasize\n      0x00\n      dup1\n      returndatacopy\n      revert(0x00, returndatasize)\n    tag_217:\n      pop\n      pop\n      pop\n      pop\n      mload(0x40)\n      returndatasize\n      not(0x1f)\n      0x1f\n      dup3\n      add\n      and\n      dup3\n      add\n      dup1\n      0x40\n      mstore\n      pop\n      dup2\n      add\n      swap1\n      tag_218\n      swap2\n      swap1\n      tag_70\n      jump\t// in\n    tag_218:\n        /* \"Heliocontracts/contracts/libraries/AuctionProxy.sol\":4353:4358  sales */\n      dup5\n        /* \"Heliocontracts/contracts/libraries/AuctionProxy.sol\":4359:4360  i */\n      dup3\n        /* \"Heliocontracts/contracts/libraries/AuctionProxy.sol\":4353:4361  sales[i] */\n      dup2\n      mload\n      dup2\n      lt\n      tag_220\n      jumpi\n      tag_220\n      tag_214\n      jump\t// in\n    tag_220:\n      0x20\n      mul\n      0x20\n      add\n      add\n        /* \"Heliocontracts/contracts/libraries/AuctionProxy.sol\":4353:4389  sales[i] = clip.sales(auctionIds[i]) */\n      dup2\n      swap1\n      mstore\n      pop\n        /* \"Heliocontracts/contracts/libraries/AuctionProxy.sol\":4340:4343  i++ */\n      dup1\n      dup1\n      tag_221\n      swap1\n      tag_222\n      jump\t// in\n    tag_221:\n      swap2\n      pop\n      pop\n        /* \"Heliocontracts/contracts/libraries/AuctionProxy.sol\":4301:4396  for (uint256 i = 0; i < auctionsCount; i++) {... */\n      jump(tag_209)\n    tag_210:\n      pop\n        /* \"Heliocontracts/contracts/libraries/AuctionProxy.sol\":4162:4400  {... */\n      pop\n      pop\n        /* \"Heliocontracts/contracts/libraries/AuctionProxy.sol\":4049:4400  function getAllActiveAuctionsForClip(ClipperLike clip)... */\n      swap2\n      swap1\n      pop\n      jump\t// out\n        /* \"Heliocontracts/contracts/libraries/AuctionProxy.sol\":1427:1916  function resetAuction(... */\n    tag_29:\n        /* \"Heliocontracts/contracts/libraries/AuctionProxy.sol\":1615:1632  ClipperLike _clip */\n      0x00\n        /* \"Heliocontracts/contracts/libraries/AuctionProxy.sol\":1647:1662  collateral.clip */\n      tag_224\n      0x80\n      dup4\n      add\n      0x60\n      dup5\n      add\n      tag_21\n      jump\t// in\n    tag_224:\n        /* \"Heliocontracts/contracts/libraries/AuctionProxy.sol\":1686:1714  hay.balanceOf(address(this)) */\n      mload(0x40)\n      shl(0xe0, 0x70a08231)\n      dup2\n      mstore\n        /* \"Heliocontracts/contracts/libraries/AuctionProxy.sol\":1708:1712  this */\n      address\n        /* \"Heliocontracts/contracts/libraries/AuctionProxy.sol\":1686:1714  hay.balanceOf(address(this)) */\n      0x04\n      dup3\n      add\n        /* \"#utility.yul\":5603:5654   */\n      mstore\n        /* \"Heliocontracts/contracts/libraries/AuctionProxy.sol\":1615:1663  ClipperLike _clip = ClipperLike(collateral.clip) */\n      swap1\n      swap2\n      pop\n        /* \"Heliocontracts/contracts/libraries/AuctionProxy.sol\":1669:1683  uint256 hayBal */\n      0x00\n      swap1\n      sub(shl(0xa0, 0x01), 0x01)\n        /* \"Heliocontracts/contracts/libraries/AuctionProxy.sol\":1686:1699  hay.balanceOf */\n      dup8\n      and\n      swap1\n      0x70a08231\n      swap1\n        /* \"#utility.yul\":5576:5594   */\n      0x24\n      add\n        /* \"Heliocontracts/contracts/libraries/AuctionProxy.sol\":1686:1714  hay.balanceOf(address(this)) */\n      0x20\n      mload(0x40)\n      dup1\n      dup4\n      sub\n      dup2\n      dup7\n      gas\n      staticcall\n      iszero\n      dup1\n      iszero\n      tag_227\n      jumpi\n      returndatasize\n      0x00\n      dup1\n      returndatacopy\n      revert(0x00, returndatasize)\n    tag_227:\n      pop\n      pop\n      pop\n      pop\n      mload(0x40)\n      returndatasize\n      not(0x1f)\n      0x1f\n      dup3\n      add\n      and\n      dup3\n      add\n      dup1\n      0x40\n      mstore\n      pop\n      dup2\n      add\n      swap1\n      tag_228\n      swap2\n      swap1\n      tag_36\n      jump\t// in\n    tag_228:\n        /* \"Heliocontracts/contracts/libraries/AuctionProxy.sol\":1720:1756  _clip.redo(auctionId, address(this)) */\n      mload(0x40)\n      shl(0xe0, 0xd843416d)\n      dup2\n      mstore\n      0x04\n      dup2\n      add\n        /* \"#utility.yul\":8892:8917   */\n      dup11\n      swap1\n      mstore\n        /* \"Heliocontracts/contracts/libraries/AuctionProxy.sol\":1750:1754  this */\n      address\n        /* \"#utility.yul\":8933:8951   */\n      0x24\n      dup3\n      add\n        /* \"#utility.yul\":8926:8986   */\n      mstore\n        /* \"Heliocontracts/contracts/libraries/AuctionProxy.sol\":1669:1714  uint256 hayBal = hay.balanceOf(address(this)) */\n      swap1\n      swap2\n      pop\n      sub(shl(0xa0, 0x01), 0x01)\n        /* \"Heliocontracts/contracts/libraries/AuctionProxy.sol\":1720:1730  _clip.redo */\n      dup4\n      and\n      swap1\n      0xd843416d\n      swap1\n        /* \"#utility.yul\":8865:8883   */\n      0x44\n      add\n        /* \"Heliocontracts/contracts/libraries/AuctionProxy.sol\":1720:1756  _clip.redo(auctionId, address(this)) */\n      0x00\n      mload(0x40)\n      dup1\n      dup4\n      sub\n      dup2\n      0x00\n      dup8\n      dup1\n      extcodesize\n      iszero\n      dup1\n      iszero\n      tag_231\n      jumpi\n      0x00\n      dup1\n      revert\n    tag_231:\n      pop\n      gas\n      call\n      iszero\n      dup1\n      iszero\n      tag_233\n      jumpi\n      returndatasize\n      0x00\n      dup1\n      returndatacopy\n      revert(0x00, returndatasize)\n    tag_233:\n      pop\n      pop\n        /* \"Heliocontracts/contracts/libraries/AuctionProxy.sol\":1792:1814  vat.hay(address(this)) */\n      mload(0x40)\n      shl(0xe0, 0x85fd5cd7)\n      dup2\n      mstore\n        /* \"Heliocontracts/contracts/libraries/AuctionProxy.sol\":1785:1789  this */\n      address\n        /* \"Heliocontracts/contracts/libraries/AuctionProxy.sol\":1792:1814  vat.hay(address(this)) */\n      0x04\n      dup3\n      add\n        /* \"#utility.yul\":5603:5654   */\n      dup2\n      swap1\n      mstore\n      sub(shl(0xa0, 0x01), 0x01)\n        /* \"Heliocontracts/contracts/libraries/AuctionProxy.sol\":1764:1776  hayJoin.exit */\n      dup1\n      dup11\n      and\n      swap5\n      pop\n      0xef693bed\n      swap4\n      pop\n        /* \"Heliocontracts/contracts/libraries/AuctionProxy.sol\":1785:1789  this */\n      swap1\n      swap2\n        /* \"Heliocontracts/contracts/libraries/AuctionProxy.sol\":521:527  10**27 */\n      0x033b2e3c9fd0803ce8000000\n      swap2\n        /* \"Heliocontracts/contracts/libraries/AuctionProxy.sol\":1792:1799  vat.hay */\n      dup10\n      and\n      swap1\n      0x85fd5cd7\n      swap1\n        /* \"#utility.yul\":5576:5594   */\n      0x24\n      add\n        /* \"Heliocontracts/contracts/libraries/AuctionProxy.sol\":1792:1814  vat.hay(address(this)) */\n      0x20\n      mload(0x40)\n      dup1\n      dup4\n      sub\n      dup2\n      dup7\n      gas\n      staticcall\n      iszero\n      dup1\n      iszero\n      tag_236\n      jumpi\n      returndatasize\n      0x00\n      dup1\n      returndatacopy\n      revert(0x00, returndatasize)\n    tag_236:\n      pop\n      pop\n      pop\n      pop\n      mload(0x40)\n      returndatasize\n      not(0x1f)\n      0x1f\n      dup3\n      add\n      and\n      dup3\n      add\n      dup1\n      0x40\n      mstore\n      pop\n      dup2\n      add\n      swap1\n      tag_237\n      swap2\n      swap1\n      tag_36\n      jump\t// in\n    tag_237:\n        /* \"Heliocontracts/contracts/libraries/AuctionProxy.sol\":1792:1820  vat.hay(address(this)) / RAY */\n      tag_238\n      swap2\n      swap1\n      tag_102\n      jump\t// in\n    tag_238:\n        /* \"Heliocontracts/contracts/libraries/AuctionProxy.sol\":1764:1821  hayJoin.exit(address(this), vat.hay(address(this)) / RAY) */\n      mload(0x40)\n      dup4\n      0xffffffff\n      and\n      0xe0\n      shl\n      dup2\n      mstore\n      0x04\n      add\n      tag_239\n      swap3\n      swap2\n      swap1\n      tag_54\n      jump\t// in\n    tag_239:\n      0x00\n      mload(0x40)\n      dup1\n      dup4\n      sub\n      dup2\n      0x00\n      dup8\n      dup1\n      extcodesize\n      iszero\n      dup1\n      iszero\n      tag_240\n      jumpi\n      0x00\n      dup1\n      revert\n    tag_240:\n      pop\n      gas\n      call\n      iszero\n      dup1\n      iszero\n      tag_242\n      jumpi\n      returndatasize\n      0x00\n      dup1\n      returndatacopy\n      revert(0x00, returndatasize)\n    tag_242:\n      pop\n      pop\n        /* \"Heliocontracts/contracts/libraries/AuctionProxy.sol\":1836:1864  hay.balanceOf(address(this)) */\n      mload(0x40)\n      shl(0xe0, 0x70a08231)\n      dup2\n      mstore\n        /* \"Heliocontracts/contracts/libraries/AuctionProxy.sol\":1858:1862  this */\n      address\n        /* \"Heliocontracts/contracts/libraries/AuctionProxy.sol\":1836:1864  hay.balanceOf(address(this)) */\n      0x04\n      dup3\n      add\n        /* \"#utility.yul\":5603:5654   */\n      mstore\n        /* \"Heliocontracts/contracts/libraries/AuctionProxy.sol\":1867:1873  hayBal */\n      dup4\n      swap3\n      pop\n      sub(shl(0xa0, 0x01), 0x01)\n        /* \"Heliocontracts/contracts/libraries/AuctionProxy.sol\":1836:1849  hay.balanceOf */\n      dup10\n      and\n      swap2\n      pop\n      0x70a08231\n      swap1\n        /* \"#utility.yul\":5576:5594   */\n      0x24\n      add\n        /* \"Heliocontracts/contracts/libraries/AuctionProxy.sol\":1836:1864  hay.balanceOf(address(this)) */\n      0x20\n      mload(0x40)\n      dup1\n      dup4\n      sub\n      dup2\n      dup7\n      gas\n      staticcall\n      iszero\n      dup1\n      iszero\n      tag_245\n      jumpi\n      returndatasize\n      0x00\n      dup1\n      returndatacopy\n      revert(0x00, returndatasize)\n    tag_245:\n      pop\n      pop\n      pop\n      pop\n      mload(0x40)\n      returndatasize\n      not(0x1f)\n      0x1f\n      dup3\n      add\n      and\n      dup3\n      add\n      dup1\n      0x40\n      mstore\n      pop\n      dup2\n      add\n      swap1\n      tag_246\n      swap2\n      swap1\n      tag_36\n      jump\t// in\n    tag_246:\n        /* \"Heliocontracts/contracts/libraries/AuctionProxy.sol\":1836:1873  hay.balanceOf(address(this)) - hayBal */\n      tag_247\n      swap2\n      swap1\n      tag_87\n      jump\t// in\n    tag_247:\n        /* \"Heliocontracts/contracts/libraries/AuctionProxy.sol\":1827:1873  hayBal = hay.balanceOf(address(this)) - hayBal */\n      swap1\n      pop\n        /* \"Heliocontracts/contracts/libraries/AuctionProxy.sol\":1879:1911  hay.safeTransfer(keeper, hayBal) */\n      tag_248\n      sub(shl(0xa0, 0x01), 0x01)\n        /* \"Heliocontracts/contracts/libraries/AuctionProxy.sol\":1879:1895  hay.safeTransfer */\n      dup8\n      and\n        /* \"Heliocontracts/contracts/libraries/AuctionProxy.sol\":1896:1902  keeper */\n      dup9\n        /* \"Heliocontracts/contracts/libraries/AuctionProxy.sol\":1827:1873  hayBal = hay.balanceOf(address(this)) - hayBal */\n      dup4\n        /* \"Heliocontracts/contracts/libraries/AuctionProxy.sol\":1879:1895  hay.safeTransfer */\n      tag_122\n        /* \"Heliocontracts/contracts/libraries/AuctionProxy.sol\":1879:1911  hay.safeTransfer(keeper, hayBal) */\n      jump\t// in\n    tag_248:\n        /* \"Heliocontracts/contracts/libraries/AuctionProxy.sol\":1609:1916  {... */\n      pop\n      pop\n        /* \"Heliocontracts/contracts/libraries/AuctionProxy.sol\":1427:1916  function resetAuction(... */\n      pop\n      pop\n      pop\n      pop\n      pop\n      pop\n      jump\t// out\n        /* \"Heliocontracts/contracts/oracle/libraries/FullMath.sol\":852:1199  function mulDiv(... */\n    tag_48:\n        /* \"Heliocontracts/contracts/oracle/libraries/FullMath.sol\":940:947  uint256 */\n      0x00\n        /* \"Heliocontracts/contracts/oracle/libraries/FullMath.sol\":956:965  uint256 l */\n      dup1\n        /* \"Heliocontracts/contracts/oracle/libraries/FullMath.sol\":967:976  uint256 h */\n      0x00\n        /* \"Heliocontracts/contracts/oracle/libraries/FullMath.sol\":980:993  fullMul(x, y) */\n      tag_250\n        /* \"Heliocontracts/contracts/oracle/libraries/FullMath.sol\":988:989  x */\n      dup7\n        /* \"Heliocontracts/contracts/oracle/libraries/FullMath.sol\":991:992  y */\n      dup7\n        /* \"Heliocontracts/contracts/oracle/libraries/FullMath.sol\":980:987  fullMul */\n      tag_251\n        /* \"Heliocontracts/contracts/oracle/libraries/FullMath.sol\":980:993  fullMul(x, y) */\n      jump\t// in\n    tag_250:\n        /* \"Heliocontracts/contracts/oracle/libraries/FullMath.sol\":955:993  (uint256 l, uint256 h) = fullMul(x, y) */\n      swap2\n      pop\n      swap2\n      pop\n        /* \"Heliocontracts/contracts/oracle/libraries/FullMath.sol\":1014:1024  uint256 mm */\n      0x00\n        /* \"Heliocontracts/contracts/oracle/libraries/FullMath.sol\":1040:1041  d */\n      dup5\n        /* \"Heliocontracts/contracts/oracle/libraries/FullMath.sol\":1027:1042  mulmod(x, y, d) */\n      dup1\n      tag_253\n      jumpi\n      tag_253\n      tag_254\n      jump\t// in\n    tag_253:\n        /* \"Heliocontracts/contracts/oracle/libraries/FullMath.sol\":1037:1038  y */\n      dup7\n        /* \"Heliocontracts/contracts/oracle/libraries/FullMath.sol\":1034:1035  x */\n      dup9\n        /* \"Heliocontracts/contracts/oracle/libraries/FullMath.sol\":1027:1042  mulmod(x, y, d) */\n      mulmod\n        /* \"Heliocontracts/contracts/oracle/libraries/FullMath.sol\":1014:1042  uint256 mm = mulmod(x, y, d) */\n      swap1\n      pop\n        /* \"Heliocontracts/contracts/oracle/libraries/FullMath.sol\":1057:1058  l */\n      dup3\n        /* \"Heliocontracts/contracts/oracle/libraries/FullMath.sol\":1052:1054  mm */\n      dup2\n        /* \"Heliocontracts/contracts/oracle/libraries/FullMath.sol\":1052:1058  mm > l */\n      gt\n        /* \"Heliocontracts/contracts/oracle/libraries/FullMath.sol\":1048:1066  if (mm > l) h -= 1 */\n      iszero\n      tag_255\n      jumpi\n        /* \"Heliocontracts/contracts/oracle/libraries/FullMath.sol\":1065:1066  1 */\n      0x01\n        /* \"Heliocontracts/contracts/oracle/libraries/FullMath.sol\":1060:1066  h -= 1 */\n      dup3\n      sub\n      swap2\n      pop\n        /* \"Heliocontracts/contracts/oracle/libraries/FullMath.sol\":1048:1066  if (mm > l) h -= 1 */\n    tag_255:\n        /* \"Heliocontracts/contracts/oracle/libraries/FullMath.sol\":1072:1079  l -= mm */\n      swap2\n      dup3\n      swap1\n      sub\n      swap2\n        /* \"Heliocontracts/contracts/oracle/libraries/FullMath.sol\":1090:1096  h == 0 */\n      dup2\n        /* \"Heliocontracts/contracts/oracle/libraries/FullMath.sol\":1086:1110  if (h == 0) return l / d */\n      tag_256\n      jumpi\n        /* \"Heliocontracts/contracts/oracle/libraries/FullMath.sol\":1109:1110  d */\n      dup5\n        /* \"Heliocontracts/contracts/oracle/libraries/FullMath.sol\":1105:1106  l */\n      dup4\n        /* \"Heliocontracts/contracts/oracle/libraries/FullMath.sol\":1105:1110  l / d */\n      dup2\n      tag_258\n      jumpi\n      tag_258\n      tag_254\n      jump\t// in\n    tag_258:\n      div\n        /* \"Heliocontracts/contracts/oracle/libraries/FullMath.sol\":1098:1110  return l / d */\n      swap4\n      pop\n      pop\n      pop\n      pop\n      jump(tag_249)\n        /* \"Heliocontracts/contracts/oracle/libraries/FullMath.sol\":1086:1110  if (h == 0) return l / d */\n    tag_256:\n        /* \"Heliocontracts/contracts/oracle/libraries/FullMath.sol\":1129:1130  d */\n      dup5\n        /* \"Heliocontracts/contracts/oracle/libraries/FullMath.sol\":1125:1126  h */\n      dup3\n        /* \"Heliocontracts/contracts/oracle/libraries/FullMath.sol\":1125:1130  h < d */\n      lt\n        /* \"Heliocontracts/contracts/oracle/libraries/FullMath.sol\":1117:1161  require(h < d, \"FullMath: FULLDIV_OVERFLOW\") */\n      tag_259\n      jumpi\n      mload(0x40)\n      shl(0xe5, 0x461bcd)\n      dup2\n      mstore\n        /* \"#utility.yul\":12609:12611   */\n      0x20\n        /* \"Heliocontracts/contracts/oracle/libraries/FullMath.sol\":1117:1161  require(h < d, \"FullMath: FULLDIV_OVERFLOW\") */\n      0x04\n      dup3\n      add\n        /* \"#utility.yul\":12591:12612   */\n      mstore\n        /* \"#utility.yul\":12648:12650   */\n      0x1a\n        /* \"#utility.yul\":12628:12646   */\n      0x24\n      dup3\n      add\n        /* \"#utility.yul\":12621:12651   */\n      mstore\n        /* \"#utility.yul\":12687:12715   */\n      0x46756c6c4d6174683a2046554c4c4449565f4f564552464c4f57000000000000\n        /* \"#utility.yul\":12667:12685   */\n      0x44\n      dup3\n      add\n        /* \"#utility.yul\":12660:12716   */\n      mstore\n        /* \"#utility.yul\":12733:12751   */\n      0x64\n      add\n        /* \"Heliocontracts/contracts/oracle/libraries/FullMath.sol\":1117:1161  require(h < d, \"FullMath: FULLDIV_OVERFLOW\") */\n    tag_260:\n      mload(0x40)\n      dup1\n      swap2\n      sub\n      swap1\n      revert\n    tag_259:\n        /* \"Heliocontracts/contracts/oracle/libraries/FullMath.sol\":1174:1190  fullDiv(l, h, d) */\n      tag_262\n        /* \"Heliocontracts/contracts/oracle/libraries/FullMath.sol\":1182:1183  l */\n      dup4\n        /* \"Heliocontracts/contracts/oracle/libraries/FullMath.sol\":1185:1186  h */\n      dup4\n        /* \"Heliocontracts/contracts/oracle/libraries/FullMath.sol\":1188:1189  d */\n      dup8\n        /* \"Heliocontracts/contracts/oracle/libraries/FullMath.sol\":1174:1181  fullDiv */\n      tag_263\n        /* \"Heliocontracts/contracts/oracle/libraries/FullMath.sol\":1174:1190  fullDiv(l, h, d) */\n      jump\t// in\n    tag_262:\n        /* \"Heliocontracts/contracts/oracle/libraries/FullMath.sol\":1167:1190  return fullDiv(l, h, d) */\n      swap4\n      pop\n      pop\n      pop\n      pop\n        /* \"Heliocontracts/contracts/oracle/libraries/FullMath.sol\":852:1199  function mulDiv(... */\n    tag_249:\n      swap4\n      swap3\n      pop\n      pop\n      pop\n      jump\t// out\n        /* \"@openzeppelin/contracts-upgradeable/token/ERC20/utils/SafeERC20Upgradeable.sol\":1040:1292  function safeTransferFrom(... */\n    tag_52:\n        /* \"@openzeppelin/contracts-upgradeable/token/ERC20/utils/SafeERC20Upgradeable.sol\":1216:1284  abi.encodeWithSelector(token.transferFrom.selector, from, to, value) */\n      mload(0x40)\n      sub(shl(0xa0, 0x01), 0x01)\n        /* \"#utility.yul\":13020:13035   */\n      dup1\n      dup6\n      and\n        /* \"@openzeppelin/contracts-upgradeable/token/ERC20/utils/SafeERC20Upgradeable.sol\":1216:1284  abi.encodeWithSelector(token.transferFrom.selector, from, to, value) */\n      0x24\n      dup4\n      add\n        /* \"#utility.yul\":13002:13036   */\n      mstore\n        /* \"#utility.yul\":13072:13087   */\n      dup4\n      and\n        /* \"#utility.yul\":13052:13070   */\n      0x44\n      dup3\n      add\n        /* \"#utility.yul\":13045:13088   */\n      mstore\n        /* \"#utility.yul\":13104:13122   */\n      0x64\n      dup2\n      add\n        /* \"#utility.yul\":13097:13131   */\n      dup3\n      swap1\n      mstore\n        /* \"@openzeppelin/contracts-upgradeable/token/ERC20/utils/SafeERC20Upgradeable.sol\":1189:1285  _callOptionalReturn(token, abi.encodeWithSelector(token.transferFrom.selector, from, to, value)) */\n      tag_265\n      swap1\n        /* \"@openzeppelin/contracts-upgradeable/token/ERC20/utils/SafeERC20Upgradeable.sol\":1209:1214  token */\n      dup6\n      swap1\n      shl(0xe0, 0x23b872dd)\n        /* \"@openzeppelin/contracts-upgradeable/token/ERC20/utils/SafeERC20Upgradeable.sol\":1239:1266  token.transferFrom.selector */\n      swap1\n        /* \"#utility.yul\":12937:12955   */\n      0x84\n      add\n        /* \"@openzeppelin/contracts-upgradeable/token/ERC20/utils/SafeERC20Upgradeable.sol\":1216:1284  abi.encodeWithSelector(token.transferFrom.selector, from, to, value) */\n    tag_266:\n      0x40\n      dup1\n      mload\n      not(0x1f)\n      dup2\n      dup5\n      sub\n      add\n      dup2\n      mstore\n      swap2\n      swap1\n      mstore\n      0x20\n      dup2\n      add\n      dup1\n      mload\n      sub(shl(0xe0, 0x01), 0x01)\n      and\n      not(sub(shl(0xe0, 0x01), 0x01))\n      swap1\n      swap4\n      and\n      swap3\n      swap1\n      swap3\n      or\n      swap1\n      swap2\n      mstore\n        /* \"@openzeppelin/contracts-upgradeable/token/ERC20/utils/SafeERC20Upgradeable.sol\":1189:1208  _callOptionalReturn */\n      tag_268\n        /* \"@openzeppelin/contracts-upgradeable/token/ERC20/utils/SafeERC20Upgradeable.sol\":1189:1285  _callOptionalReturn(token, abi.encodeWithSelector(token.transferFrom.selector, from, to, value)) */\n      jump\t// in\n    tag_265:\n        /* \"@openzeppelin/contracts-upgradeable/token/ERC20/utils/SafeERC20Upgradeable.sol\":1040:1292  function safeTransferFrom(... */\n      pop\n      pop\n      pop\n      pop\n      jump\t// out\n        /* \"@openzeppelin/contracts-upgradeable/token/ERC20/utils/SafeERC20Upgradeable.sol\":818:1034  function safeTransfer(... */\n    tag_122:\n        /* \"@openzeppelin/contracts-upgradeable/token/ERC20/utils/SafeERC20Upgradeable.sol\":941:1027  _callOptionalReturn(token, abi.encodeWithSelector(token.transfer.selector, to, value)) */\n      tag_270\n        /* \"@openzeppelin/contracts-upgradeable/token/ERC20/utils/SafeERC20Upgradeable.sol\":961:966  token */\n      dup4\n        /* \"@openzeppelin/contracts-upgradeable/token/ERC20/utils/SafeERC20Upgradeable.sol\":991:1014  token.transfer.selector */\n      shl(0xe0, 0xa9059cbb)\n        /* \"@openzeppelin/contracts-upgradeable/token/ERC20/utils/SafeERC20Upgradeable.sol\":1016:1018  to */\n      dup5\n        /* \"@openzeppelin/contracts-upgradeable/token/ERC20/utils/SafeERC20Upgradeable.sol\":1020:1025  value */\n      dup5\n        /* \"@openzeppelin/contracts-upgradeable/token/ERC20/utils/SafeERC20Upgradeable.sol\":968:1026  abi.encodeWithSelector(token.transfer.selector, to, value) */\n      add(0x24, mload(0x40))\n      tag_266\n      swap3\n      swap2\n      swap1\n      tag_54\n      jump\t// in\n        /* \"@openzeppelin/contracts-upgradeable/token/ERC20/utils/SafeERC20Upgradeable.sol\":941:1027  _callOptionalReturn(token, abi.encodeWithSelector(token.transfer.selector, to, value)) */\n    tag_270:\n        /* \"@openzeppelin/contracts-upgradeable/token/ERC20/utils/SafeERC20Upgradeable.sol\":818:1034  function safeTransfer(... */\n      pop\n      pop\n      pop\n      jump\t// out\n        /* \"Heliocontracts/contracts/oracle/libraries/FullMath.sol\":214:425  function fullMul(uint256 x, uint256 y) internal pure returns (uint256 l, uint256 h) {... */\n    tag_251:\n        /* \"Heliocontracts/contracts/oracle/libraries/FullMath.sol\":276:285  uint256 l */\n      0x00\n      dup1\n      dup1\n      not(0x00)\n        /* \"Heliocontracts/contracts/oracle/libraries/FullMath.sol\":340:341  y */\n      dup5\n        /* \"Heliocontracts/contracts/oracle/libraries/FullMath.sol\":337:338  x */\n      dup7\n        /* \"Heliocontracts/contracts/oracle/libraries/FullMath.sol\":330:361  mulmod(x, y, type(uint256).max) */\n      mulmod\n        /* \"Heliocontracts/contracts/oracle/libraries/FullMath.sol\":317:361  uint256 mm = mulmod(x, y, type(uint256).max) */\n      swap1\n      pop\n        /* \"Heliocontracts/contracts/oracle/libraries/FullMath.sol\":375:376  y */\n      dup4\n        /* \"Heliocontracts/contracts/oracle/libraries/FullMath.sol\":371:372  x */\n      dup6\n        /* \"Heliocontracts/contracts/oracle/libraries/FullMath.sol\":371:376  x * y */\n      mul\n        /* \"Heliocontracts/contracts/oracle/libraries/FullMath.sol\":367:376  l = x * y */\n      swap3\n      pop\n        /* \"Heliocontracts/contracts/oracle/libraries/FullMath.sol\":391:392  l */\n      dup3\n        /* \"Heliocontracts/contracts/oracle/libraries/FullMath.sol\":386:388  mm */\n      dup2\n        /* \"Heliocontracts/contracts/oracle/libraries/FullMath.sol\":386:392  mm - l */\n      sub\n        /* \"Heliocontracts/contracts/oracle/libraries/FullMath.sol\":382:392  h = mm - l */\n      swap2\n      pop\n        /* \"Heliocontracts/contracts/oracle/libraries/FullMath.sol\":407:408  l */\n      dup3\n        /* \"Heliocontracts/contracts/oracle/libraries/FullMath.sol\":402:404  mm */\n      dup2\n        /* \"Heliocontracts/contracts/oracle/libraries/FullMath.sol\":402:408  mm < l */\n      lt\n        /* \"Heliocontracts/contracts/oracle/libraries/FullMath.sol\":398:416  if (mm < l) h -= 1 */\n      iszero\n      tag_275\n      jumpi\n        /* \"Heliocontracts/contracts/oracle/libraries/FullMath.sol\":415:416  1 */\n      0x01\n        /* \"Heliocontracts/contracts/oracle/libraries/FullMath.sol\":410:416  h -= 1 */\n      dup3\n      sub\n      swap2\n      pop\n        /* \"Heliocontracts/contracts/oracle/libraries/FullMath.sol\":398:416  if (mm < l) h -= 1 */\n    tag_275:\n        /* \"Heliocontracts/contracts/oracle/libraries/FullMath.sol\":302:421  unchecked{... */\n      pop\n        /* \"Heliocontracts/contracts/oracle/libraries/FullMath.sol\":214:425  function fullMul(uint256 x, uint256 y) internal pure returns (uint256 l, uint256 h) {... */\n      swap3\n      pop\n      swap3\n      swap1\n      pop\n      jump\t// out\n        /* \"Heliocontracts/contracts/oracle/libraries/FullMath.sol\":429:848  function fullDiv(... */\n    tag_263:\n        /* \"Heliocontracts/contracts/oracle/libraries/FullMath.sol\":517:524  uint256 */\n      0x00\n        /* \"Heliocontracts/contracts/oracle/libraries/FullMath.sol\":571:572  1 */\n      0x01\n        /* \"Heliocontracts/contracts/oracle/libraries/FullMath.sol\":566:568  ~d */\n      dup3\n      not\n        /* \"Heliocontracts/contracts/oracle/libraries/FullMath.sol\":566:572  ~d + 1 */\n      add\n        /* \"Heliocontracts/contracts/oracle/libraries/FullMath.sol\":561:573  d & (~d + 1) */\n      dup3\n      and\n      dup1\n        /* \"Heliocontracts/contracts/oracle/libraries/FullMath.sol\":567:568  d */\n      dup4\n        /* \"Heliocontracts/contracts/oracle/libraries/FullMath.sol\":561:573  d & (~d + 1) */\n      dup2\n        /* \"Heliocontracts/contracts/oracle/libraries/FullMath.sol\":579:588  d /= pow2 */\n      tag_278\n      jumpi\n      tag_278\n      tag_254\n      jump\t// in\n    tag_278:\n      div\n      swap3\n      pop\n        /* \"Heliocontracts/contracts/oracle/libraries/FullMath.sol\":599:603  pow2 */\n      dup1\n        /* \"Heliocontracts/contracts/oracle/libraries/FullMath.sol\":594:603  l /= pow2 */\n      dup6\n      dup2\n      tag_280\n      jumpi\n      tag_280\n      tag_254\n      jump\t// in\n    tag_280:\n      div\n      swap5\n      pop\n        /* \"Heliocontracts/contracts/oracle/libraries/FullMath.sol\":633:637  pow2 */\n      dup1\n        /* \"Heliocontracts/contracts/oracle/libraries/FullMath.sol\":621:625  pow2 */\n      dup2\n        /* \"Heliocontracts/contracts/oracle/libraries/FullMath.sol\":620:625  ~pow2 */\n      not\n        /* \"Heliocontracts/contracts/oracle/libraries/FullMath.sol\":628:629  1 */\n      0x01\n        /* \"Heliocontracts/contracts/oracle/libraries/FullMath.sol\":620:629  ~pow2 + 1 */\n      add\n        /* \"Heliocontracts/contracts/oracle/libraries/FullMath.sol\":619:637  (~pow2 + 1) / pow2 */\n      dup2\n      tag_282\n      jumpi\n      tag_282\n      tag_254\n      jump\t// in\n    tag_282:\n        /* \"Heliocontracts/contracts/oracle/libraries/FullMath.sol\":672:673  2 */\n      0x02\n        /* \"Heliocontracts/contracts/oracle/libraries/FullMath.sol\":672:681  2 - d * r */\n      dup6\n      dup2\n      sub\n        /* \"Heliocontracts/contracts/oracle/libraries/FullMath.sol\":696:701  d * r */\n      dup1\n      dup8\n      mul\n        /* \"Heliocontracts/contracts/oracle/libraries/FullMath.sol\":692:701  2 - d * r */\n      dup3\n      sub\n        /* \"Heliocontracts/contracts/oracle/libraries/FullMath.sol\":687:701  r *= 2 - d * r */\n      mul\n        /* \"Heliocontracts/contracts/oracle/libraries/FullMath.sol\":716:721  d * r */\n      dup1\n      dup8\n      mul\n        /* \"Heliocontracts/contracts/oracle/libraries/FullMath.sol\":712:721  2 - d * r */\n      dup3\n      sub\n        /* \"Heliocontracts/contracts/oracle/libraries/FullMath.sol\":707:721  r *= 2 - d * r */\n      mul\n        /* \"Heliocontracts/contracts/oracle/libraries/FullMath.sol\":736:741  d * r */\n      dup1\n      dup8\n      mul\n        /* \"Heliocontracts/contracts/oracle/libraries/FullMath.sol\":732:741  2 - d * r */\n      dup3\n      sub\n        /* \"Heliocontracts/contracts/oracle/libraries/FullMath.sol\":727:741  r *= 2 - d * r */\n      mul\n        /* \"Heliocontracts/contracts/oracle/libraries/FullMath.sol\":756:761  d * r */\n      dup1\n      dup8\n      mul\n        /* \"Heliocontracts/contracts/oracle/libraries/FullMath.sol\":752:761  2 - d * r */\n      dup3\n      sub\n        /* \"Heliocontracts/contracts/oracle/libraries/FullMath.sol\":747:761  r *= 2 - d * r */\n      mul\n        /* \"Heliocontracts/contracts/oracle/libraries/FullMath.sol\":776:781  d * r */\n      dup1\n      dup8\n      mul\n        /* \"Heliocontracts/contracts/oracle/libraries/FullMath.sol\":772:781  2 - d * r */\n      dup3\n      sub\n        /* \"Heliocontracts/contracts/oracle/libraries/FullMath.sol\":767:781  r *= 2 - d * r */\n      mul\n        /* \"Heliocontracts/contracts/oracle/libraries/FullMath.sol\":796:801  d * r */\n      dup1\n      dup8\n      mul\n        /* \"Heliocontracts/contracts/oracle/libraries/FullMath.sol\":792:801  2 - d * r */\n      dup3\n      sub\n        /* \"Heliocontracts/contracts/oracle/libraries/FullMath.sol\":787:801  r *= 2 - d * r */\n      mul\n        /* \"Heliocontracts/contracts/oracle/libraries/FullMath.sol\":816:821  d * r */\n      swap6\n      dup7\n      mul\n        /* \"Heliocontracts/contracts/oracle/libraries/FullMath.sol\":812:821  2 - d * r */\n      swap1\n      sub\n        /* \"Heliocontracts/contracts/oracle/libraries/FullMath.sol\":807:821  r *= 2 - d * r */\n      swap1\n      swap5\n      mul\n        /* \"Heliocontracts/contracts/oracle/libraries/FullMath.sol\":619:637  (~pow2 + 1) / pow2 */\n      swap4\n      div\n        /* \"Heliocontracts/contracts/oracle/libraries/FullMath.sol\":640:641  1 */\n      0x01\n        /* \"Heliocontracts/contracts/oracle/libraries/FullMath.sol\":619:641  (~pow2 + 1) / pow2 + 1 */\n      add\n        /* \"Heliocontracts/contracts/oracle/libraries/FullMath.sol\":614:642  h * ((~pow2 + 1) / pow2 + 1) */\n      swap4\n      swap1\n      swap4\n      mul\n        /* \"Heliocontracts/contracts/oracle/libraries/FullMath.sol\":609:642  l += h * ((~pow2 + 1) / pow2 + 1) */\n      swap4\n      swap1\n      swap4\n      add\n        /* \"Heliocontracts/contracts/oracle/libraries/FullMath.sol\":834:839  l * r */\n      mul\n      swap3\n        /* \"Heliocontracts/contracts/oracle/libraries/FullMath.sol\":429:848  function fullDiv(... */\n      swap2\n      pop\n      pop\n      jump\t// out\n        /* \"@openzeppelin/contracts-upgradeable/token/ERC20/utils/SafeERC20Upgradeable.sol\":3868:4585  function _callOptionalReturn(IERC20Upgradeable token, bytes memory data) private {... */\n    tag_268:\n        /* \"@openzeppelin/contracts-upgradeable/token/ERC20/utils/SafeERC20Upgradeable.sol\":4298:4321  bytes memory returndata */\n      0x00\n        /* \"@openzeppelin/contracts-upgradeable/token/ERC20/utils/SafeERC20Upgradeable.sol\":4324:4393  address(token).functionCall(data, \"SafeERC20: low-level call failed\") */\n      tag_284\n        /* \"@openzeppelin/contracts-upgradeable/token/ERC20/utils/SafeERC20Upgradeable.sol\":4352:4356  data */\n      dup3\n        /* \"@openzeppelin/contracts-upgradeable/token/ERC20/utils/SafeERC20Upgradeable.sol\":4324:4393  address(token).functionCall(data, \"SafeERC20: low-level call failed\") */\n      mload(0x40)\n      dup1\n      0x40\n      add\n      0x40\n      mstore\n      dup1\n      0x20\n      dup2\n      mstore\n      0x20\n      add\n      0x5361666545524332303a206c6f772d6c6576656c2063616c6c206661696c6564\n      dup2\n      mstore\n      pop\n        /* \"@openzeppelin/contracts-upgradeable/token/ERC20/utils/SafeERC20Upgradeable.sol\":4332:4337  token */\n      dup6\n      sub(shl(0xa0, 0x01), 0x01)\n        /* \"@openzeppelin/contracts-upgradeable/token/ERC20/utils/SafeERC20Upgradeable.sol\":4324:4351  address(token).functionCall */\n      and\n      tag_285\n      swap1\n        /* \"@openzeppelin/contracts-upgradeable/token/ERC20/utils/SafeERC20Upgradeable.sol\":4324:4393  address(token).functionCall(data, \"SafeERC20: low-level call failed\") */\n      swap3\n      swap2\n      swap1\n      0xffffffff\n      and\n      jump\t// in\n    tag_284:\n        /* \"@openzeppelin/contracts-upgradeable/token/ERC20/utils/SafeERC20Upgradeable.sol\":4407:4424  returndata.length */\n      dup1\n      mload\n        /* \"@openzeppelin/contracts-upgradeable/token/ERC20/utils/SafeERC20Upgradeable.sol\":4298:4393  bytes memory returndata = address(token).functionCall(data, \"SafeERC20: low-level call failed\") */\n      swap1\n      swap2\n      pop\n        /* \"@openzeppelin/contracts-upgradeable/token/ERC20/utils/SafeERC20Upgradeable.sol\":4407:4428  returndata.length > 0 */\n      iszero\n        /* \"@openzeppelin/contracts-upgradeable/token/ERC20/utils/SafeERC20Upgradeable.sol\":4403:4579  if (returndata.length > 0) {... */\n      tag_270\n      jumpi\n        /* \"@openzeppelin/contracts-upgradeable/token/ERC20/utils/SafeERC20Upgradeable.sol\":4502:4512  returndata */\n      dup1\n        /* \"@openzeppelin/contracts-upgradeable/token/ERC20/utils/SafeERC20Upgradeable.sol\":4491:4521  abi.decode(returndata, (bool)) */\n      dup1\n      0x20\n      add\n      swap1\n      mload\n      dup2\n      add\n      swap1\n      tag_287\n      swap2\n      swap1\n      tag_288\n      jump\t// in\n    tag_287:\n        /* \"@openzeppelin/contracts-upgradeable/token/ERC20/utils/SafeERC20Upgradeable.sol\":4483:4568  require(abi.decode(returndata, (bool)), \"SafeERC20: ERC20 operation did not succeed\") */\n      tag_270\n      jumpi\n      mload(0x40)\n      shl(0xe5, 0x461bcd)\n      dup2\n      mstore\n        /* \"#utility.yul\":13626:13628   */\n      0x20\n        /* \"@openzeppelin/contracts-upgradeable/token/ERC20/utils/SafeERC20Upgradeable.sol\":4483:4568  require(abi.decode(returndata, (bool)), \"SafeERC20: ERC20 operation did not succeed\") */\n      0x04\n      dup3\n      add\n        /* \"#utility.yul\":13608:13629   */\n      mstore\n        /* \"#utility.yul\":13665:13667   */\n      0x2a\n        /* \"#utility.yul\":13645:13663   */\n      0x24\n      dup3\n      add\n        /* \"#utility.yul\":13638:13668   */\n      mstore\n        /* \"#utility.yul\":13704:13738   */\n      0x5361666545524332303a204552433230206f7065726174696f6e20646964206e\n        /* \"#utility.yul\":13684:13702   */\n      0x44\n      dup3\n      add\n        /* \"#utility.yul\":13677:13739   */\n      mstore\n      shl(0xb2, 0x1bdd081cdd58d8d95959)\n        /* \"#utility.yul\":13755:13773   */\n      0x64\n      dup3\n      add\n        /* \"#utility.yul\":13748:13788   */\n      mstore\n        /* \"#utility.yul\":13805:13824   */\n      0x84\n      add\n        /* \"@openzeppelin/contracts-upgradeable/token/ERC20/utils/SafeERC20Upgradeable.sol\":4483:4568  require(abi.decode(returndata, (bool)), \"SafeERC20: ERC20 operation did not succeed\") */\n      tag_260\n        /* \"#utility.yul\":13424:13830   */\n      jump\n        /* \"@openzeppelin/contracts-upgradeable/utils/AddressUpgradeable.sol\":3872:4095  function functionCall(... */\n    tag_285:\n        /* \"@openzeppelin/contracts-upgradeable/utils/AddressUpgradeable.sol\":4005:4017  bytes memory */\n      0x60\n        /* \"@openzeppelin/contracts-upgradeable/utils/AddressUpgradeable.sol\":4036:4088  functionCallWithValue(target, data, 0, errorMessage) */\n      tag_293\n        /* \"@openzeppelin/contracts-upgradeable/utils/AddressUpgradeable.sol\":4058:4064  target */\n      dup5\n        /* \"@openzeppelin/contracts-upgradeable/utils/AddressUpgradeable.sol\":4066:4070  data */\n      dup5\n        /* \"@openzeppelin/contracts-upgradeable/utils/AddressUpgradeable.sol\":4072:4073  0 */\n      0x00\n        /* \"@openzeppelin/contracts-upgradeable/utils/AddressUpgradeable.sol\":4075:4087  errorMessage */\n      dup6\n        /* \"@openzeppelin/contracts-upgradeable/utils/AddressUpgradeable.sol\":4036:4057  functionCallWithValue */\n      tag_294\n        /* \"@openzeppelin/contracts-upgradeable/utils/AddressUpgradeable.sol\":4036:4088  functionCallWithValue(target, data, 0, errorMessage) */\n      jump\t// in\n    tag_293:\n        /* \"@openzeppelin/contracts-upgradeable/utils/AddressUpgradeable.sol\":4029:4088  return functionCallWithValue(target, data, 0, errorMessage) */\n      swap5\n        /* \"@openzeppelin/contracts-upgradeable/utils/AddressUpgradeable.sol\":3872:4095  function functionCall(... */\n      swap4\n      pop\n      pop\n      pop\n      pop\n      jump\t// out\n        /* \"@openzeppelin/contracts-upgradeable/utils/AddressUpgradeable.sol\":4959:5458  function functionCallWithValue(... */\n    tag_294:\n        /* \"@openzeppelin/contracts-upgradeable/utils/AddressUpgradeable.sol\":5124:5136  bytes memory */\n      0x60\n        /* \"@openzeppelin/contracts-upgradeable/utils/AddressUpgradeable.sol\":5181:5186  value */\n      dup3\n        /* \"@openzeppelin/contracts-upgradeable/utils/AddressUpgradeable.sol\":5156:5177  address(this).balance */\n      selfbalance\n        /* \"@openzeppelin/contracts-upgradeable/utils/AddressUpgradeable.sol\":5156:5186  address(this).balance >= value */\n      lt\n      iszero\n        /* \"@openzeppelin/contracts-upgradeable/utils/AddressUpgradeable.sol\":5148:5229  require(address(this).balance >= value, \"Address: insufficient balance for call\") */\n      tag_296\n      jumpi\n      mload(0x40)\n      shl(0xe5, 0x461bcd)\n      dup2\n      mstore\n        /* \"#utility.yul\":14037:14039   */\n      0x20\n        /* \"@openzeppelin/contracts-upgradeable/utils/AddressUpgradeable.sol\":5148:5229  require(address(this).balance >= value, \"Address: insufficient balance for call\") */\n      0x04\n      dup3\n      add\n        /* \"#utility.yul\":14019:14040   */\n      mstore\n        /* \"#utility.yul\":14076:14078   */\n      0x26\n        /* \"#utility.yul\":14056:14074   */\n      0x24\n      dup3\n      add\n        /* \"#utility.yul\":14049:14079   */\n      mstore\n        /* \"#utility.yul\":14115:14149   */\n      0x416464726573733a20696e73756666696369656e742062616c616e636520666f\n        /* \"#utility.yul\":14095:14113   */\n      0x44\n      dup3\n      add\n        /* \"#utility.yul\":14088:14150   */\n      mstore\n      shl(0xd2, 0x1c8818d85b1b)\n        /* \"#utility.yul\":14166:14184   */\n      0x64\n      dup3\n      add\n        /* \"#utility.yul\":14159:14195   */\n      mstore\n        /* \"#utility.yul\":14212:14231   */\n      0x84\n      add\n        /* \"@openzeppelin/contracts-upgradeable/utils/AddressUpgradeable.sol\":5148:5229  require(address(this).balance >= value, \"Address: insufficient balance for call\") */\n      tag_260\n        /* \"#utility.yul\":13835:14237   */\n      jump\n        /* \"@openzeppelin/contracts-upgradeable/utils/AddressUpgradeable.sol\":5148:5229  require(address(this).balance >= value, \"Address: insufficient balance for call\") */\n    tag_296:\n      sub(shl(0xa0, 0x01), 0x01)\n        /* \"@openzeppelin/contracts-upgradeable/utils/AddressUpgradeable.sol\":1476:1495  account.code.length */\n      dup6\n      and\n      extcodesize\n        /* \"@openzeppelin/contracts-upgradeable/utils/AddressUpgradeable.sol\":5239:5299  require(isContract(target), \"Address: call to non-contract\") */\n      tag_301\n      jumpi\n      mload(0x40)\n      shl(0xe5, 0x461bcd)\n      dup2\n      mstore\n        /* \"#utility.yul\":14444:14446   */\n      0x20\n        /* \"@openzeppelin/contracts-upgradeable/utils/AddressUpgradeable.sol\":5239:5299  require(isContract(target), \"Address: call to non-contract\") */\n      0x04\n      dup3\n      add\n        /* \"#utility.yul\":14426:14447   */\n      mstore\n        /* \"#utility.yul\":14483:14485   */\n      0x1d\n        /* \"#utility.yul\":14463:14481   */\n      0x24\n      dup3\n      add\n        /* \"#utility.yul\":14456:14486   */\n      mstore\n        /* \"#utility.yul\":14522:14553   */\n      0x416464726573733a2063616c6c20746f206e6f6e2d636f6e7472616374000000\n        /* \"#utility.yul\":14502:14520   */\n      0x44\n      dup3\n      add\n        /* \"#utility.yul\":14495:14554   */\n      mstore\n        /* \"#utility.yul\":14571:14589   */\n      0x64\n      add\n        /* \"@openzeppelin/contracts-upgradeable/utils/AddressUpgradeable.sol\":5239:5299  require(isContract(target), \"Address: call to non-contract\") */\n      tag_260\n        /* \"#utility.yul\":14242:14595   */\n      jump\n        /* \"@openzeppelin/contracts-upgradeable/utils/AddressUpgradeable.sol\":5239:5299  require(isContract(target), \"Address: call to non-contract\") */\n    tag_301:\n        /* \"@openzeppelin/contracts-upgradeable/utils/AddressUpgradeable.sol\":5311:5323  bool success */\n      0x00\n        /* \"@openzeppelin/contracts-upgradeable/utils/AddressUpgradeable.sol\":5325:5348  bytes memory returndata */\n      dup1\n        /* \"@openzeppelin/contracts-upgradeable/utils/AddressUpgradeable.sol\":5352:5358  target */\n      dup7\n      sub(shl(0xa0, 0x01), 0x01)\n        /* \"@openzeppelin/contracts-upgradeable/utils/AddressUpgradeable.sol\":5352:5363  target.call */\n      and\n        /* \"@openzeppelin/contracts-upgradeable/utils/AddressUpgradeable.sol\":5371:5376  value */\n      dup6\n        /* \"@openzeppelin/contracts-upgradeable/utils/AddressUpgradeable.sol\":5378:5382  data */\n      dup8\n        /* \"@openzeppelin/contracts-upgradeable/utils/AddressUpgradeable.sol\":5352:5383  target.call{value: value}(data) */\n      mload(0x40)\n      tag_304\n      swap2\n      swap1\n      tag_305\n      jump\t// in\n    tag_304:\n      0x00\n      mload(0x40)\n      dup1\n      dup4\n      sub\n      dup2\n      dup6\n      dup8\n      gas\n      call\n      swap3\n      pop\n      pop\n      pop\n      returndatasize\n      dup1\n      0x00\n      dup2\n      eq\n      tag_308\n      jumpi\n      mload(0x40)\n      swap2\n      pop\n      and(add(returndatasize, 0x3f), not(0x1f))\n      dup3\n      add\n      0x40\n      mstore\n      returndatasize\n      dup3\n      mstore\n      returndatasize\n      0x00\n      0x20\n      dup5\n      add\n      returndatacopy\n      jump(tag_307)\n    tag_308:\n      0x60\n      swap2\n      pop\n    tag_307:\n      pop\n        /* \"@openzeppelin/contracts-upgradeable/utils/AddressUpgradeable.sol\":5310:5383  (bool success, bytes memory returndata) = target.call{value: value}(data) */\n      swap2\n      pop\n      swap2\n      pop\n        /* \"@openzeppelin/contracts-upgradeable/utils/AddressUpgradeable.sol\":5400:5451  verifyCallResult(success, returndata, errorMessage) */\n      tag_309\n        /* \"@openzeppelin/contracts-upgradeable/utils/AddressUpgradeable.sol\":5417:5424  success */\n      dup3\n        /* \"@openzeppelin/contracts-upgradeable/utils/AddressUpgradeable.sol\":5426:5436  returndata */\n      dup3\n        /* \"@openzeppelin/contracts-upgradeable/utils/AddressUpgradeable.sol\":5438:5450  errorMessage */\n      dup7\n        /* \"@openzeppelin/contracts-upgradeable/utils/AddressUpgradeable.sol\":5400:5416  verifyCallResult */\n      tag_310\n        /* \"@openzeppelin/contracts-upgradeable/utils/AddressUpgradeable.sol\":5400:5451  verifyCallResult(success, returndata, errorMessage) */\n      jump\t// in\n    tag_309:\n        /* \"@openzeppelin/contracts-upgradeable/utils/AddressUpgradeable.sol\":5393:5451  return verifyCallResult(success, returndata, errorMessage) */\n      swap8\n        /* \"@openzeppelin/contracts-upgradeable/utils/AddressUpgradeable.sol\":4959:5458  function functionCallWithValue(... */\n      swap7\n      pop\n      pop\n      pop\n      pop\n      pop\n      pop\n      pop\n      jump\t// out\n        /* \"@openzeppelin/contracts-upgradeable/utils/AddressUpgradeable.sol\":6622:7364  function verifyCallResult(... */\n    tag_310:\n        /* \"@openzeppelin/contracts-upgradeable/utils/AddressUpgradeable.sol\":6768:6780  bytes memory */\n      0x60\n        /* \"@openzeppelin/contracts-upgradeable/utils/AddressUpgradeable.sol\":6796:6803  success */\n      dup4\n        /* \"@openzeppelin/contracts-upgradeable/utils/AddressUpgradeable.sol\":6792:7358  if (success) {... */\n      iszero\n      tag_313\n      jumpi\n      pop\n        /* \"@openzeppelin/contracts-upgradeable/utils/AddressUpgradeable.sol\":6826:6836  returndata */\n      dup2\n        /* \"@openzeppelin/contracts-upgradeable/utils/AddressUpgradeable.sol\":6819:6836  return returndata */\n      jump(tag_249)\n        /* \"@openzeppelin/contracts-upgradeable/utils/AddressUpgradeable.sol\":6792:7358  if (success) {... */\n    tag_313:\n        /* \"@openzeppelin/contracts-upgradeable/utils/AddressUpgradeable.sol\":6937:6954  returndata.length */\n      dup3\n      mload\n        /* \"@openzeppelin/contracts-upgradeable/utils/AddressUpgradeable.sol\":6937:6958  returndata.length > 0 */\n      iszero\n        /* \"@openzeppelin/contracts-upgradeable/utils/AddressUpgradeable.sol\":6933:7348  if (returndata.length > 0) {... */\n      tag_315\n      jumpi\n        /* \"@openzeppelin/contracts-upgradeable/utils/AddressUpgradeable.sol\":7181:7191  returndata */\n      dup3\n        /* \"@openzeppelin/contracts-upgradeable/utils/AddressUpgradeable.sol\":7175:7192  mload(returndata) */\n      mload\n        /* \"@openzeppelin/contracts-upgradeable/utils/AddressUpgradeable.sol\":7241:7256  returndata_size */\n      dup1\n        /* \"@openzeppelin/contracts-upgradeable/utils/AddressUpgradeable.sol\":7228:7238  returndata */\n      dup5\n        /* \"@openzeppelin/contracts-upgradeable/utils/AddressUpgradeable.sol\":7224:7226  32 */\n      0x20\n        /* \"@openzeppelin/contracts-upgradeable/utils/AddressUpgradeable.sol\":7220:7239  add(32, returndata) */\n      add\n        /* \"@openzeppelin/contracts-upgradeable/utils/AddressUpgradeable.sol\":7213:7257  revert(add(32, returndata), returndata_size) */\n      revert\n        /* \"@openzeppelin/contracts-upgradeable/utils/AddressUpgradeable.sol\":6933:7348  if (returndata.length > 0) {... */\n    tag_315:\n        /* \"@openzeppelin/contracts-upgradeable/utils/AddressUpgradeable.sol\":7320:7332  errorMessage */\n      dup2\n        /* \"@openzeppelin/contracts-upgradeable/utils/AddressUpgradeable.sol\":7313:7333  revert(errorMessage) */\n      mload(0x40)\n      shl(0xe5, 0x461bcd)\n      dup2\n      mstore\n      0x04\n      add\n      tag_260\n      swap2\n      swap1\n      tag_318\n      jump\t// in\n        /* \"#utility.yul\":14:145   */\n    tag_319:\n      sub(shl(0xa0, 0x01), 0x01)\n        /* \"#utility.yul\":89:120   */\n      dup2\n      and\n        /* \"#utility.yul\":79:121   */\n      dup2\n      eq\n        /* \"#utility.yul\":69:139   */\n      tag_326\n      jumpi\n        /* \"#utility.yul\":135:136   */\n      0x00\n        /* \"#utility.yul\":132:133   */\n      dup1\n        /* \"#utility.yul\":125:137   */\n      revert\n        /* \"#utility.yul\":69:139   */\n    tag_326:\n        /* \"#utility.yul\":14:145   */\n      pop\n      jump\t// out\n        /* \"#utility.yul\":150:313   */\n    tag_320:\n        /* \"#utility.yul\":217:222   */\n      0x00\n        /* \"#utility.yul\":262:265   */\n      0x80\n        /* \"#utility.yul\":253:259   */\n      dup3\n        /* \"#utility.yul\":248:251   */\n      dup5\n        /* \"#utility.yul\":244:260   */\n      sub\n        /* \"#utility.yul\":240:266   */\n      slt\n        /* \"#utility.yul\":237:283   */\n      iszero\n      tag_328\n      jumpi\n        /* \"#utility.yul\":279:280   */\n      0x00\n        /* \"#utility.yul\":276:277   */\n      dup1\n        /* \"#utility.yul\":269:281   */\n      revert\n        /* \"#utility.yul\":237:283   */\n    tag_328:\n      pop\n        /* \"#utility.yul\":301:307   */\n      swap2\n        /* \"#utility.yul\":150:313   */\n      swap1\n      pop\n      jump\t// out\n        /* \"#utility.yul\":318:1560   */\n    tag_9:\n        /* \"#utility.yul\":564:570   */\n      0x00\n        /* \"#utility.yul\":572:578   */\n      dup1\n        /* \"#utility.yul\":580:586   */\n      0x00\n        /* \"#utility.yul\":588:594   */\n      dup1\n        /* \"#utility.yul\":596:602   */\n      0x00\n        /* \"#utility.yul\":604:610   */\n      dup1\n        /* \"#utility.yul\":612:618   */\n      0x00\n        /* \"#utility.yul\":620:626   */\n      dup1\n        /* \"#utility.yul\":628:634   */\n      0x00\n        /* \"#utility.yul\":681:684   */\n      0x0180\n        /* \"#utility.yul\":669:678   */\n      dup11\n        /* \"#utility.yul\":660:667   */\n      dup13\n        /* \"#utility.yul\":656:679   */\n      sub\n        /* \"#utility.yul\":652:685   */\n      slt\n        /* \"#utility.yul\":649:702   */\n      iszero\n      tag_330\n      jumpi\n        /* \"#utility.yul\":698:699   */\n      0x00\n        /* \"#utility.yul\":695:696   */\n      dup1\n        /* \"#utility.yul\":688:700   */\n      revert\n        /* \"#utility.yul\":649:702   */\n    tag_330:\n        /* \"#utility.yul\":734:743   */\n      dup10\n        /* \"#utility.yul\":721:744   */\n      calldataload\n        /* \"#utility.yul\":711:744   */\n      swap9\n      pop\n        /* \"#utility.yul\":791:793   */\n      0x20\n        /* \"#utility.yul\":780:789   */\n      dup11\n        /* \"#utility.yul\":776:794   */\n      add\n        /* \"#utility.yul\":763:795   */\n      calldataload\n        /* \"#utility.yul\":753:795   */\n      swap8\n      pop\n        /* \"#utility.yul\":842:844   */\n      0x40\n        /* \"#utility.yul\":831:840   */\n      dup11\n        /* \"#utility.yul\":827:845   */\n      add\n        /* \"#utility.yul\":814:846   */\n      calldataload\n        /* \"#utility.yul\":804:846   */\n      swap7\n      pop\n        /* \"#utility.yul\":896:898   */\n      0x60\n        /* \"#utility.yul\":885:894   */\n      dup11\n        /* \"#utility.yul\":881:899   */\n      add\n        /* \"#utility.yul\":868:900   */\n      calldataload\n        /* \"#utility.yul\":909:940   */\n      tag_331\n        /* \"#utility.yul\":934:939   */\n      dup2\n        /* \"#utility.yul\":909:940   */\n      tag_319\n      jump\t// in\n    tag_331:\n        /* \"#utility.yul\":959:964   */\n      swap6\n      pop\n        /* \"#utility.yul\":1016:1019   */\n      0x80\n        /* \"#utility.yul\":1001:1020   */\n      dup11\n      add\n        /* \"#utility.yul\":988:1021   */\n      calldataload\n        /* \"#utility.yul\":1030:1063   */\n      tag_332\n        /* \"#utility.yul\":988:1021   */\n      dup2\n        /* \"#utility.yul\":1030:1063   */\n      tag_319\n      jump\t// in\n    tag_332:\n        /* \"#utility.yul\":1082:1089   */\n      swap5\n      pop\n        /* \"#utility.yul\":1141:1144   */\n      0xa0\n        /* \"#utility.yul\":1126:1145   */\n      dup11\n      add\n        /* \"#utility.yul\":1113:1146   */\n      calldataload\n        /* \"#utility.yul\":1155:1188   */\n      tag_333\n        /* \"#utility.yul\":1113:1146   */\n      dup2\n        /* \"#utility.yul\":1155:1188   */\n      tag_319\n      jump\t// in\n    tag_333:\n        /* \"#utility.yul\":1207:1214   */\n      swap4\n      pop\n        /* \"#utility.yul\":1266:1269   */\n      0xc0\n        /* \"#utility.yul\":1251:1270   */\n      dup11\n      add\n        /* \"#utility.yul\":1238:1271   */\n      calldataload\n        /* \"#utility.yul\":1280:1313   */\n      tag_334\n        /* \"#utility.yul\":1238:1271   */\n      dup2\n        /* \"#utility.yul\":1280:1313   */\n      tag_319\n      jump\t// in\n    tag_334:\n        /* \"#utility.yul\":1332:1339   */\n      swap3\n      pop\n        /* \"#utility.yul\":1391:1394   */\n      0xe0\n        /* \"#utility.yul\":1376:1395   */\n      dup11\n      add\n        /* \"#utility.yul\":1363:1396   */\n      calldataload\n        /* \"#utility.yul\":1405:1438   */\n      tag_335\n        /* \"#utility.yul\":1363:1396   */\n      dup2\n        /* \"#utility.yul\":1405:1438   */\n      tag_319\n      jump\t// in\n    tag_335:\n        /* \"#utility.yul\":1457:1464   */\n      swap2\n      pop\n        /* \"#utility.yul\":1483:1554   */\n      tag_336\n        /* \"#utility.yul\":1546:1553   */\n      dup12\n        /* \"#utility.yul\":1540:1543   */\n      0x0100\n        /* \"#utility.yul\":1525:1544   */\n      dup13\n      add\n        /* \"#utility.yul\":1483:1554   */\n      tag_320\n      jump\t// in\n    tag_336:\n        /* \"#utility.yul\":1473:1554   */\n      swap1\n      pop\n        /* \"#utility.yul\":318:1560   */\n      swap3\n      swap6\n      swap9\n      pop\n      swap3\n      swap6\n      swap9\n      pop\n      swap3\n      swap6\n      swap9\n      jump\t// out\n        /* \"#utility.yul\":1755:3089   */\n    tag_16:\n        /* \"#utility.yul\":2007:2013   */\n      0x00\n        /* \"#utility.yul\":2015:2021   */\n      dup1\n        /* \"#utility.yul\":2023:2029   */\n      0x00\n        /* \"#utility.yul\":2031:2037   */\n      dup1\n        /* \"#utility.yul\":2039:2045   */\n      0x00\n        /* \"#utility.yul\":2047:2053   */\n      dup1\n        /* \"#utility.yul\":2055:2061   */\n      0x00\n        /* \"#utility.yul\":2063:2069   */\n      dup1\n        /* \"#utility.yul\":2116:2119   */\n      0x0160\n        /* \"#utility.yul\":2104:2113   */\n      dup10\n        /* \"#utility.yul\":2095:2102   */\n      dup12\n        /* \"#utility.yul\":2091:2114   */\n      sub\n        /* \"#utility.yul\":2087:2120   */\n      slt\n        /* \"#utility.yul\":2084:2137   */\n      iszero\n      tag_339\n      jumpi\n        /* \"#utility.yul\":2133:2134   */\n      0x00\n        /* \"#utility.yul\":2130:2131   */\n      dup1\n        /* \"#utility.yul\":2123:2135   */\n      revert\n        /* \"#utility.yul\":2084:2137   */\n    tag_339:\n        /* \"#utility.yul\":2172:2181   */\n      dup9\n        /* \"#utility.yul\":2159:2182   */\n      calldataload\n        /* \"#utility.yul\":2191:2222   */\n      tag_340\n        /* \"#utility.yul\":2216:2221   */\n      dup2\n        /* \"#utility.yul\":2191:2222   */\n      tag_319\n      jump\t// in\n    tag_340:\n        /* \"#utility.yul\":2241:2246   */\n      swap8\n      pop\n        /* \"#utility.yul\":2298:2300   */\n      0x20\n        /* \"#utility.yul\":2283:2301   */\n      dup10\n      add\n        /* \"#utility.yul\":2270:2302   */\n      calldataload\n        /* \"#utility.yul\":2311:2344   */\n      tag_341\n        /* \"#utility.yul\":2270:2302   */\n      dup2\n        /* \"#utility.yul\":2311:2344   */\n      tag_319\n      jump\t// in\n    tag_341:\n        /* \"#utility.yul\":2363:2370   */\n      swap7\n      pop\n        /* \"#utility.yul\":2422:2424   */\n      0x40\n        /* \"#utility.yul\":2407:2425   */\n      dup10\n      add\n        /* \"#utility.yul\":2394:2426   */\n      calldataload\n        /* \"#utility.yul\":2435:2468   */\n      tag_342\n        /* \"#utility.yul\":2394:2426   */\n      dup2\n        /* \"#utility.yul\":2435:2468   */\n      tag_319\n      jump\t// in\n    tag_342:\n        /* \"#utility.yul\":2487:2494   */\n      swap6\n      pop\n        /* \"#utility.yul\":2546:2548   */\n      0x60\n        /* \"#utility.yul\":2531:2549   */\n      dup10\n      add\n        /* \"#utility.yul\":2518:2550   */\n      calldataload\n        /* \"#utility.yul\":2559:2592   */\n      tag_343\n        /* \"#utility.yul\":2518:2550   */\n      dup2\n        /* \"#utility.yul\":2559:2592   */\n      tag_319\n      jump\t// in\n    tag_343:\n        /* \"#utility.yul\":2611:2618   */\n      swap5\n      pop\n        /* \"#utility.yul\":2670:2673   */\n      0x80\n        /* \"#utility.yul\":2655:2674   */\n      dup10\n      add\n        /* \"#utility.yul\":2642:2675   */\n      calldataload\n        /* \"#utility.yul\":2684:2717   */\n      tag_344\n        /* \"#utility.yul\":2642:2675   */\n      dup2\n        /* \"#utility.yul\":2684:2717   */\n      tag_319\n      jump\t// in\n    tag_344:\n        /* \"#utility.yul\":2736:2743   */\n      swap4\n      pop\n        /* \"#utility.yul\":2795:2798   */\n      0xa0\n        /* \"#utility.yul\":2780:2799   */\n      dup10\n      add\n        /* \"#utility.yul\":2767:2800   */\n      calldataload\n        /* \"#utility.yul\":2809:2842   */\n      tag_345\n        /* \"#utility.yul\":2767:2800   */\n      dup2\n        /* \"#utility.yul\":2809:2842   */\n      tag_319\n      jump\t// in\n    tag_345:\n        /* \"#utility.yul\":2861:2868   */\n      swap3\n      pop\n        /* \"#utility.yul\":2920:2923   */\n      0xc0\n        /* \"#utility.yul\":2905:2924   */\n      dup10\n      add\n        /* \"#utility.yul\":2892:2925   */\n      calldataload\n        /* \"#utility.yul\":2934:2967   */\n      tag_346\n        /* \"#utility.yul\":2892:2925   */\n      dup2\n        /* \"#utility.yul\":2934:2967   */\n      tag_319\n      jump\t// in\n    tag_346:\n        /* \"#utility.yul\":2986:2993   */\n      swap2\n      pop\n        /* \"#utility.yul\":3012:3083   */\n      tag_347\n        /* \"#utility.yul\":3075:3082   */\n      dup11\n        /* \"#utility.yul\":3069:3072   */\n      0xe0\n        /* \"#utility.yul\":3054:3073   */\n      dup12\n      add\n        /* \"#utility.yul\":3012:3083   */\n      tag_320\n      jump\t// in\n    tag_347:\n        /* \"#utility.yul\":3002:3083   */\n      swap1\n      pop\n        /* \"#utility.yul\":1755:3089   */\n      swap3\n      swap6\n      swap9\n      pop\n      swap3\n      swap6\n      swap9\n      swap1\n      swap4\n      swap7\n      pop\n      jump\t// out\n        /* \"#utility.yul\":3094:3360   */\n    tag_21:\n        /* \"#utility.yul\":3172:3178   */\n      0x00\n        /* \"#utility.yul\":3225:3227   */\n      0x20\n        /* \"#utility.yul\":3213:3222   */\n      dup3\n        /* \"#utility.yul\":3204:3211   */\n      dup5\n        /* \"#utility.yul\":3200:3223   */\n      sub\n        /* \"#utility.yul\":3196:3228   */\n      slt\n        /* \"#utility.yul\":3193:3245   */\n      iszero\n      tag_349\n      jumpi\n        /* \"#utility.yul\":3241:3242   */\n      0x00\n        /* \"#utility.yul\":3238:3239   */\n      dup1\n        /* \"#utility.yul\":3231:3243   */\n      revert\n        /* \"#utility.yul\":3193:3245   */\n    tag_349:\n        /* \"#utility.yul\":3280:3289   */\n      dup2\n        /* \"#utility.yul\":3267:3290   */\n      calldataload\n        /* \"#utility.yul\":3299:3330   */\n      tag_249\n        /* \"#utility.yul\":3324:3329   */\n      dup2\n        /* \"#utility.yul\":3299:3330   */\n      tag_319\n      jump\t// in\n        /* \"#utility.yul\":3365:4507   */\n    tag_24:\n        /* \"#utility.yul\":3586:3588   */\n      0x20\n        /* \"#utility.yul\":3638:3659   */\n      dup1\n      dup3\n      mstore\n        /* \"#utility.yul\":3708:3721   */\n      dup3\n      mload\n        /* \"#utility.yul\":3611:3629   */\n      dup3\n      dup3\n      add\n        /* \"#utility.yul\":3730:3752   */\n      dup2\n      swap1\n      mstore\n        /* \"#utility.yul\":3557:3561   */\n      0x00\n      swap2\n        /* \"#utility.yul\":3586:3588   */\n      swap1\n        /* \"#utility.yul\":3771:3773   */\n      0x40\n      swap1\n        /* \"#utility.yul\":3789:3807   */\n      dup2\n      dup6\n      add\n      swap1\n        /* \"#utility.yul\":3830:3845   */\n      dup7\n      dup5\n      add\n        /* \"#utility.yul\":3557:3561   */\n      dup6\n        /* \"#utility.yul\":3873:4481   */\n    tag_352:\n        /* \"#utility.yul\":3887:3893   */\n      dup3\n        /* \"#utility.yul\":3884:3885   */\n      dup2\n        /* \"#utility.yul\":3881:3894   */\n      lt\n        /* \"#utility.yul\":3873:4481   */\n      iszero\n      tag_354\n      jumpi\n        /* \"#utility.yul\":3946:3959   */\n      dup2\n      mload\n        /* \"#utility.yul\":3984:3993   */\n      dup1\n      mload\n        /* \"#utility.yul\":3972:3994   */\n      dup6\n      mstore\n        /* \"#utility.yul\":4034:4045   */\n      dup7\n      dup2\n      add\n        /* \"#utility.yul\":4028:4046   */\n      mload\n        /* \"#utility.yul\":4014:4026   */\n      dup8\n      dup7\n      add\n        /* \"#utility.yul\":4007:4047   */\n      mstore\n        /* \"#utility.yul\":4087:4098   */\n      dup6\n      dup2\n      add\n        /* \"#utility.yul\":4081:4099   */\n      mload\n        /* \"#utility.yul\":4067:4079   */\n      dup7\n      dup7\n      add\n        /* \"#utility.yul\":4060:4100   */\n      mstore\n        /* \"#utility.yul\":4123:4127   */\n      0x60\n        /* \"#utility.yul\":4171:4182   */\n      dup1\n      dup3\n      add\n        /* \"#utility.yul\":4165:4183   */\n      mload\n      sub(shl(0xa0, 0x01), 0x01)\n        /* \"#utility.yul\":4161:4205   */\n      and\n        /* \"#utility.yul\":4147:4159   */\n      swap1\n      dup7\n      add\n        /* \"#utility.yul\":4140:4206   */\n      mstore\n        /* \"#utility.yul\":4229:4233   */\n      0x80\n        /* \"#utility.yul\":4277:4288   */\n      dup1\n      dup3\n      add\n        /* \"#utility.yul\":4271:4289   */\n      mload\n      sub(shl(0x60, 0x01), 0x01)\n        /* \"#utility.yul\":4267:4318   */\n      and\n        /* \"#utility.yul\":4253:4265   */\n      swap1\n      dup7\n      add\n        /* \"#utility.yul\":4246:4319   */\n      mstore\n        /* \"#utility.yul\":4193:4196   */\n      0xa0\n        /* \"#utility.yul\":4386:4397   */\n      swap1\n      dup2\n      add\n        /* \"#utility.yul\":4380:4398   */\n      mload\n        /* \"#utility.yul\":4366:4378   */\n      swap1\n      dup6\n      add\n        /* \"#utility.yul\":4359:4399   */\n      mstore\n        /* \"#utility.yul\":4428:4432   */\n      0xc0\n        /* \"#utility.yul\":4419:4433   */\n      swap1\n      swap4\n      add\n      swap3\n        /* \"#utility.yul\":4456:4471   */\n      swap1\n      dup6\n      add\n      swap1\n        /* \"#utility.yul\":4202:4203   */\n      0x01\n        /* \"#utility.yul\":3902:3911   */\n      add\n        /* \"#utility.yul\":3873:4481   */\n      jump(tag_352)\n    tag_354:\n      pop\n        /* \"#utility.yul\":4498:4501   */\n      swap2\n      swap8\n        /* \"#utility.yul\":3365:4507   */\n      swap7\n      pop\n      pop\n      pop\n      pop\n      pop\n      pop\n      pop\n      jump\t// out\n        /* \"#utility.yul\":4512:5452   */\n    tag_28:\n        /* \"#utility.yul\":4709:4715   */\n      0x00\n        /* \"#utility.yul\":4717:4723   */\n      dup1\n        /* \"#utility.yul\":4725:4731   */\n      0x00\n        /* \"#utility.yul\":4733:4739   */\n      dup1\n        /* \"#utility.yul\":4741:4747   */\n      0x00\n        /* \"#utility.yul\":4749:4755   */\n      dup1\n        /* \"#utility.yul\":4802:4805   */\n      0x0120\n        /* \"#utility.yul\":4790:4799   */\n      dup8\n        /* \"#utility.yul\":4781:4788   */\n      dup10\n        /* \"#utility.yul\":4777:4800   */\n      sub\n        /* \"#utility.yul\":4773:4806   */\n      slt\n        /* \"#utility.yul\":4770:4823   */\n      iszero\n      tag_356\n      jumpi\n        /* \"#utility.yul\":4819:4820   */\n      0x00\n        /* \"#utility.yul\":4816:4817   */\n      dup1\n        /* \"#utility.yul\":4809:4821   */\n      revert\n        /* \"#utility.yul\":4770:4823   */\n    tag_356:\n        /* \"#utility.yul\":4855:4864   */\n      dup7\n        /* \"#utility.yul\":4842:4865   */\n      calldataload\n        /* \"#utility.yul\":4832:4865   */\n      swap6\n      pop\n        /* \"#utility.yul\":4915:4917   */\n      0x20\n        /* \"#utility.yul\":4904:4913   */\n      dup8\n        /* \"#utility.yul\":4900:4918   */\n      add\n        /* \"#utility.yul\":4887:4919   */\n      calldataload\n        /* \"#utility.yul\":4928:4959   */\n      tag_357\n        /* \"#utility.yul\":4953:4958   */\n      dup2\n        /* \"#utility.yul\":4928:4959   */\n      tag_319\n      jump\t// in\n    tag_357:\n        /* \"#utility.yul\":4978:4983   */\n      swap5\n      pop\n        /* \"#utility.yul\":5035:5037   */\n      0x40\n        /* \"#utility.yul\":5020:5038   */\n      dup8\n      add\n        /* \"#utility.yul\":5007:5039   */\n      calldataload\n        /* \"#utility.yul\":5048:5081   */\n      tag_358\n        /* \"#utility.yul\":5007:5039   */\n      dup2\n        /* \"#utility.yul\":5048:5081   */\n      tag_319\n      jump\t// in\n    tag_358:\n        /* \"#utility.yul\":5100:5107   */\n      swap4\n      pop\n        /* \"#utility.yul\":5159:5161   */\n      0x60\n        /* \"#utility.yul\":5144:5162   */\n      dup8\n      add\n        /* \"#utility.yul\":5131:5163   */\n      calldataload\n        /* \"#utility.yul\":5172:5205   */\n      tag_359\n        /* \"#utility.yul\":5131:5163   */\n      dup2\n        /* \"#utility.yul\":5172:5205   */\n      tag_319\n      jump\t// in\n    tag_359:\n        /* \"#utility.yul\":5224:5231   */\n      swap3\n      pop\n        /* \"#utility.yul\":5283:5286   */\n      0x80\n        /* \"#utility.yul\":5268:5287   */\n      dup8\n      add\n        /* \"#utility.yul\":5255:5288   */\n      calldataload\n        /* \"#utility.yul\":5297:5330   */\n      tag_360\n        /* \"#utility.yul\":5255:5288   */\n      dup2\n        /* \"#utility.yul\":5297:5330   */\n      tag_319\n      jump\t// in\n    tag_360:\n        /* \"#utility.yul\":5349:5356   */\n      swap2\n      pop\n        /* \"#utility.yul\":5375:5446   */\n      tag_361\n        /* \"#utility.yul\":5438:5445   */\n      dup9\n        /* \"#utility.yul\":5432:5435   */\n      0xa0\n        /* \"#utility.yul\":5417:5436   */\n      dup10\n      add\n        /* \"#utility.yul\":5375:5446   */\n      tag_320\n      jump\t// in\n    tag_361:\n        /* \"#utility.yul\":5365:5446   */\n      swap1\n      pop\n        /* \"#utility.yul\":4512:5452   */\n      swap3\n      swap6\n      pop\n      swap3\n      swap6\n      pop\n      swap3\n      swap6\n      jump\t// out\n        /* \"#utility.yul\":5665:5849   */\n    tag_36:\n        /* \"#utility.yul\":5735:5741   */\n      0x00\n        /* \"#utility.yul\":5788:5790   */\n      0x20\n        /* \"#utility.yul\":5776:5785   */\n      dup3\n        /* \"#utility.yul\":5767:5774   */\n      dup5\n        /* \"#utility.yul\":5763:5786   */\n      sub\n        /* \"#utility.yul\":5759:5791   */\n      slt\n        /* \"#utility.yul\":5756:5808   */\n      iszero\n      tag_364\n      jumpi\n        /* \"#utility.yul\":5804:5805   */\n      0x00\n        /* \"#utility.yul\":5801:5802   */\n      dup1\n        /* \"#utility.yul\":5794:5806   */\n      revert\n        /* \"#utility.yul\":5756:5808   */\n    tag_364:\n      pop\n        /* \"#utility.yul\":5827:5843   */\n      mload\n      swap2\n        /* \"#utility.yul\":5665:5849   */\n      swap1\n      pop\n      jump\t// out\n        /* \"#utility.yul\":6125:6391   */\n    tag_42:\n        /* \"#utility.yul\":6210:6216   */\n      0x00\n        /* \"#utility.yul\":6263:6265   */\n      0x20\n        /* \"#utility.yul\":6251:6260   */\n      dup3\n        /* \"#utility.yul\":6242:6249   */\n      dup5\n        /* \"#utility.yul\":6238:6261   */\n      sub\n        /* \"#utility.yul\":6234:6266   */\n      slt\n        /* \"#utility.yul\":6231:6283   */\n      iszero\n      tag_369\n      jumpi\n        /* \"#utility.yul\":6279:6280   */\n      0x00\n        /* \"#utility.yul\":6276:6277   */\n      dup1\n        /* \"#utility.yul\":6269:6281   */\n      revert\n        /* \"#utility.yul\":6231:6283   */\n    tag_369:\n        /* \"#utility.yul\":6311:6320   */\n      dup2\n        /* \"#utility.yul\":6305:6321   */\n      mload\n        /* \"#utility.yul\":6330:6361   */\n      tag_249\n        /* \"#utility.yul\":6355:6360   */\n      dup2\n        /* \"#utility.yul\":6330:6361   */\n      tag_319\n      jump\t// in\n        /* \"#utility.yul\":6396:6523   */\n    tag_321:\n        /* \"#utility.yul\":6457:6467   */\n      0x4e487b71\n        /* \"#utility.yul\":6452:6455   */\n      0xe0\n        /* \"#utility.yul\":6448:6468   */\n      shl\n        /* \"#utility.yul\":6445:6446   */\n      0x00\n        /* \"#utility.yul\":6438:6469   */\n      mstore\n        /* \"#utility.yul\":6488:6492   */\n      0x11\n        /* \"#utility.yul\":6485:6486   */\n      0x04\n        /* \"#utility.yul\":6478:6493   */\n      mstore\n        /* \"#utility.yul\":6512:6516   */\n      0x24\n        /* \"#utility.yul\":6509:6510   */\n      0x00\n        /* \"#utility.yul\":6502:6517   */\n      revert\n        /* \"#utility.yul\":6528:6656   */\n    tag_50:\n        /* \"#utility.yul\":6568:6571   */\n      0x00\n        /* \"#utility.yul\":6599:6600   */\n      dup3\n        /* \"#utility.yul\":6595:6601   */\n      not\n        /* \"#utility.yul\":6592:6593   */\n      dup3\n        /* \"#utility.yul\":6589:6602   */\n      gt\n        /* \"#utility.yul\":6586:6625   */\n      iszero\n      tag_374\n      jumpi\n        /* \"#utility.yul\":6605:6623   */\n      tag_374\n      tag_321\n      jump\t// in\n    tag_374:\n      pop\n        /* \"#utility.yul\":6641:6650   */\n      add\n      swap1\n        /* \"#utility.yul\":6528:6656   */\n      jump\t// out\n        /* \"#utility.yul\":6661:6935   */\n    tag_54:\n      sub(shl(0xa0, 0x01), 0x01)\n        /* \"#utility.yul\":6853:6885   */\n      swap3\n      swap1\n      swap3\n      and\n        /* \"#utility.yul\":6835:6886   */\n      dup3\n      mstore\n        /* \"#utility.yul\":6917:6919   */\n      0x20\n        /* \"#utility.yul\":6902:6920   */\n      dup3\n      add\n        /* \"#utility.yul\":6895:6929   */\n      mstore\n        /* \"#utility.yul\":6823:6825   */\n      0x40\n        /* \"#utility.yul\":6808:6826   */\n      add\n      swap1\n        /* \"#utility.yul\":6661:6935   */\n      jump\t// out\n        /* \"#utility.yul\":7374:7501   */\n    tag_204:\n        /* \"#utility.yul\":7435:7445   */\n      0x4e487b71\n        /* \"#utility.yul\":7430:7433   */\n      0xe0\n        /* \"#utility.yul\":7426:7446   */\n      shl\n        /* \"#utility.yul\":7423:7424   */\n      0x00\n        /* \"#utility.yul\":7416:7447   */\n      mstore\n        /* \"#utility.yul\":7466:7470   */\n      0x41\n        /* \"#utility.yul\":7463:7464   */\n      0x04\n        /* \"#utility.yul\":7456:7471   */\n      mstore\n        /* \"#utility.yul\":7490:7494   */\n      0x24\n        /* \"#utility.yul\":7487:7488   */\n      0x00\n        /* \"#utility.yul\":7480:7495   */\n      revert\n        /* \"#utility.yul\":7506:7781   */\n    tag_322:\n        /* \"#utility.yul\":7577:7579   */\n      0x40\n        /* \"#utility.yul\":7571:7580   */\n      mload\n        /* \"#utility.yul\":7642:7644   */\n      0x1f\n        /* \"#utility.yul\":7623:7636   */\n      dup3\n      add\n      not(0x1f)\n        /* \"#utility.yul\":7619:7646   */\n      and\n        /* \"#utility.yul\":7607:7647   */\n      dup2\n      add\n        /* \"#utility.yul\":7677:7695   */\n      0xffffffffffffffff\n        /* \"#utility.yul\":7662:7696   */\n      dup2\n      gt\n        /* \"#utility.yul\":7698:7720   */\n      dup3\n      dup3\n      lt\n        /* \"#utility.yul\":7659:7721   */\n      or\n        /* \"#utility.yul\":7656:7744   */\n      iszero\n      tag_383\n      jumpi\n        /* \"#utility.yul\":7724:7742   */\n      tag_383\n      tag_204\n      jump\t// in\n    tag_383:\n        /* \"#utility.yul\":7760:7762   */\n      0x40\n        /* \"#utility.yul\":7753:7775   */\n      mstore\n        /* \"#utility.yul\":7506:7781   */\n      swap2\n      swap1\n      pop\n      jump\t// out\n        /* \"#utility.yul\":7786:8713   */\n    tag_70:\n        /* \"#utility.yul\":7877:7883   */\n      0x00\n        /* \"#utility.yul\":7930:7933   */\n      0xc0\n        /* \"#utility.yul\":7918:7927   */\n      dup3\n        /* \"#utility.yul\":7909:7916   */\n      dup5\n        /* \"#utility.yul\":7905:7928   */\n      sub\n        /* \"#utility.yul\":7901:7934   */\n      slt\n        /* \"#utility.yul\":7898:7951   */\n      iszero\n      tag_385\n      jumpi\n        /* \"#utility.yul\":7947:7948   */\n      0x00\n        /* \"#utility.yul\":7944:7945   */\n      dup1\n        /* \"#utility.yul\":7937:7949   */\n      revert\n        /* \"#utility.yul\":7898:7951   */\n    tag_385:\n        /* \"#utility.yul\":7980:7982   */\n      0x40\n        /* \"#utility.yul\":7974:7983   */\n      mload\n        /* \"#utility.yul\":8022:8025   */\n      0xc0\n        /* \"#utility.yul\":8014:8020   */\n      dup2\n        /* \"#utility.yul\":8010:8026   */\n      add\n        /* \"#utility.yul\":8092:8098   */\n      dup2\n        /* \"#utility.yul\":8080:8090   */\n      dup2\n        /* \"#utility.yul\":8077:8099   */\n      lt\n        /* \"#utility.yul\":8056:8074   */\n      0xffffffffffffffff\n        /* \"#utility.yul\":8044:8054   */\n      dup3\n        /* \"#utility.yul\":8041:8075   */\n      gt\n        /* \"#utility.yul\":8038:8100   */\n      or\n        /* \"#utility.yul\":8035:8123   */\n      iszero\n      tag_387\n      jumpi\n        /* \"#utility.yul\":8103:8121   */\n      tag_387\n      tag_204\n      jump\t// in\n    tag_387:\n        /* \"#utility.yul\":8143:8153   */\n      dup1\n        /* \"#utility.yul\":8139:8141   */\n      0x40\n        /* \"#utility.yul\":8132:8154   */\n      mstore\n      pop\n        /* \"#utility.yul\":8184:8193   */\n      dup3\n        /* \"#utility.yul\":8178:8194   */\n      mload\n        /* \"#utility.yul\":8170:8176   */\n      dup2\n        /* \"#utility.yul\":8163:8195   */\n      mstore\n        /* \"#utility.yul\":8249:8251   */\n      0x20\n        /* \"#utility.yul\":8238:8247   */\n      dup4\n        /* \"#utility.yul\":8234:8252   */\n      add\n        /* \"#utility.yul\":8228:8253   */\n      mload\n        /* \"#utility.yul\":8223:8225   */\n      0x20\n        /* \"#utility.yul\":8215:8221   */\n      dup3\n        /* \"#utility.yul\":8211:8226   */\n      add\n        /* \"#utility.yul\":8204:8254   */\n      mstore\n        /* \"#utility.yul\":8308:8310   */\n      0x40\n        /* \"#utility.yul\":8297:8306   */\n      dup4\n        /* \"#utility.yul\":8293:8311   */\n      add\n        /* \"#utility.yul\":8287:8312   */\n      mload\n        /* \"#utility.yul\":8282:8284   */\n      0x40\n        /* \"#utility.yul\":8274:8280   */\n      dup3\n        /* \"#utility.yul\":8270:8285   */\n      add\n        /* \"#utility.yul\":8263:8313   */\n      mstore\n        /* \"#utility.yul\":8356:8358   */\n      0x60\n        /* \"#utility.yul\":8345:8354   */\n      dup4\n        /* \"#utility.yul\":8341:8359   */\n      add\n        /* \"#utility.yul\":8335:8360   */\n      mload\n        /* \"#utility.yul\":8369:8400   */\n      tag_388\n        /* \"#utility.yul\":8394:8399   */\n      dup2\n        /* \"#utility.yul\":8369:8400   */\n      tag_319\n      jump\t// in\n    tag_388:\n        /* \"#utility.yul\":8428:8430   */\n      0x60\n        /* \"#utility.yul\":8416:8431   */\n      dup3\n      add\n        /* \"#utility.yul\":8409:8439   */\n      mstore\n        /* \"#utility.yul\":8484:8487   */\n      0x80\n        /* \"#utility.yul\":8469:8488   */\n      dup4\n      add\n        /* \"#utility.yul\":8463:8489   */\n      mload\n      sub(shl(0x60, 0x01), 0x01)\n        /* \"#utility.yul\":8520:8560   */\n      dup2\n      and\n        /* \"#utility.yul\":8508:8561   */\n      dup2\n      eq\n        /* \"#utility.yul\":8498:8579   */\n      tag_389\n      jumpi\n        /* \"#utility.yul\":8575:8576   */\n      0x00\n        /* \"#utility.yul\":8572:8573   */\n      dup1\n        /* \"#utility.yul\":8565:8577   */\n      revert\n        /* \"#utility.yul\":8498:8579   */\n    tag_389:\n        /* \"#utility.yul\":8607:8610   */\n      0x80\n        /* \"#utility.yul\":8595:8611   */\n      dup3\n      add\n        /* \"#utility.yul\":8588:8621   */\n      mstore\n        /* \"#utility.yul\":8676:8679   */\n      0xa0\n        /* \"#utility.yul\":8661:8680   */\n      swap3\n      dup4\n      add\n        /* \"#utility.yul\":8655:8681   */\n      mload\n        /* \"#utility.yul\":8637:8653   */\n      swap3\n      dup2\n      add\n        /* \"#utility.yul\":8630:8682   */\n      swap3\n      swap1\n      swap3\n      mstore\n      pop\n        /* \"#utility.yul\":8599:8605   */\n      swap2\n        /* \"#utility.yul\":7786:8713   */\n      swap1\n      pop\n      jump\t// out\n        /* \"#utility.yul\":9599:9724   */\n    tag_87:\n        /* \"#utility.yul\":9639:9643   */\n      0x00\n        /* \"#utility.yul\":9667:9668   */\n      dup3\n        /* \"#utility.yul\":9664:9665   */\n      dup3\n        /* \"#utility.yul\":9661:9669   */\n      lt\n        /* \"#utility.yul\":9658:9692   */\n      iszero\n      tag_394\n      jumpi\n        /* \"#utility.yul\":9672:9690   */\n      tag_394\n      tag_321\n      jump\t// in\n    tag_394:\n      pop\n        /* \"#utility.yul\":9709:9718   */\n      sub\n      swap1\n        /* \"#utility.yul\":9599:9724   */\n      jump\t// out\n        /* \"#utility.yul\":9729:9856   */\n    tag_254:\n        /* \"#utility.yul\":9790:9800   */\n      0x4e487b71\n        /* \"#utility.yul\":9785:9788   */\n      0xe0\n        /* \"#utility.yul\":9781:9801   */\n      shl\n        /* \"#utility.yul\":9778:9779   */\n      0x00\n        /* \"#utility.yul\":9771:9802   */\n      mstore\n        /* \"#utility.yul\":9821:9825   */\n      0x12\n        /* \"#utility.yul\":9818:9819   */\n      0x04\n        /* \"#utility.yul\":9811:9826   */\n      mstore\n        /* \"#utility.yul\":9845:9849   */\n      0x24\n        /* \"#utility.yul\":9842:9843   */\n      0x00\n        /* \"#utility.yul\":9835:9850   */\n      revert\n        /* \"#utility.yul\":9861:10078   */\n    tag_102:\n        /* \"#utility.yul\":9901:9902   */\n      0x00\n        /* \"#utility.yul\":9927:9928   */\n      dup3\n        /* \"#utility.yul\":9917:10049   */\n      tag_397\n      jumpi\n        /* \"#utility.yul\":9971:9981   */\n      0x4e487b71\n        /* \"#utility.yul\":9966:9969   */\n      0xe0\n        /* \"#utility.yul\":9962:9982   */\n      shl\n        /* \"#utility.yul\":9959:9960   */\n      0x00\n        /* \"#utility.yul\":9952:9983   */\n      mstore\n        /* \"#utility.yul\":10006:10010   */\n      0x12\n        /* \"#utility.yul\":10003:10004   */\n      0x04\n        /* \"#utility.yul\":9996:10011   */\n      mstore\n        /* \"#utility.yul\":10034:10038   */\n      0x24\n        /* \"#utility.yul\":10031:10032   */\n      0x00\n        /* \"#utility.yul\":10024:10039   */\n      revert\n        /* \"#utility.yul\":9917:10049   */\n    tag_397:\n      pop\n        /* \"#utility.yul\":10063:10072   */\n      div\n      swap1\n        /* \"#utility.yul\":9861:10078   */\n      jump\t// out\n        /* \"#utility.yul\":10915:11851   */\n    tag_201:\n        /* \"#utility.yul\":11010:11016   */\n      0x00\n        /* \"#utility.yul\":11041:11043   */\n      0x20\n        /* \"#utility.yul\":11084:11086   */\n      dup1\n        /* \"#utility.yul\":11072:11081   */\n      dup4\n        /* \"#utility.yul\":11063:11070   */\n      dup6\n        /* \"#utility.yul\":11059:11082   */\n      sub\n        /* \"#utility.yul\":11055:11087   */\n      slt\n        /* \"#utility.yul\":11052:11104   */\n      iszero\n      tag_401\n      jumpi\n        /* \"#utility.yul\":11100:11101   */\n      0x00\n        /* \"#utility.yul\":11097:11098   */\n      dup1\n        /* \"#utility.yul\":11090:11102   */\n      revert\n        /* \"#utility.yul\":11052:11104   */\n    tag_401:\n        /* \"#utility.yul\":11133:11142   */\n      dup3\n        /* \"#utility.yul\":11127:11143   */\n      mload\n        /* \"#utility.yul\":11162:11180   */\n      0xffffffffffffffff\n        /* \"#utility.yul\":11203:11205   */\n      dup1\n        /* \"#utility.yul\":11195:11201   */\n      dup3\n        /* \"#utility.yul\":11192:11206   */\n      gt\n        /* \"#utility.yul\":11189:11223   */\n      iszero\n      tag_402\n      jumpi\n        /* \"#utility.yul\":11219:11220   */\n      0x00\n        /* \"#utility.yul\":11216:11217   */\n      dup1\n        /* \"#utility.yul\":11209:11221   */\n      revert\n        /* \"#utility.yul\":11189:11223   */\n    tag_402:\n        /* \"#utility.yul\":11257:11263   */\n      dup2\n        /* \"#utility.yul\":11246:11255   */\n      dup6\n        /* \"#utility.yul\":11242:11264   */\n      add\n        /* \"#utility.yul\":11232:11264   */\n      swap2\n      pop\n        /* \"#utility.yul\":11302:11309   */\n      dup6\n        /* \"#utility.yul\":11295:11299   */\n      0x1f\n        /* \"#utility.yul\":11291:11293   */\n      dup4\n        /* \"#utility.yul\":11287:11300   */\n      add\n        /* \"#utility.yul\":11283:11310   */\n      slt\n        /* \"#utility.yul\":11273:11328   */\n      tag_403\n      jumpi\n        /* \"#utility.yul\":11324:11325   */\n      0x00\n        /* \"#utility.yul\":11321:11322   */\n      dup1\n        /* \"#utility.yul\":11314:11326   */\n      revert\n        /* \"#utility.yul\":11273:11328   */\n    tag_403:\n        /* \"#utility.yul\":11353:11355   */\n      dup2\n        /* \"#utility.yul\":11347:11356   */\n      mload\n        /* \"#utility.yul\":11375:11377   */\n      dup2\n        /* \"#utility.yul\":11371:11373   */\n      dup2\n        /* \"#utility.yul\":11368:11378   */\n      gt\n        /* \"#utility.yul\":11365:11401   */\n      iszero\n      tag_405\n      jumpi\n        /* \"#utility.yul\":11381:11399   */\n      tag_405\n      tag_204\n      jump\t// in\n    tag_405:\n        /* \"#utility.yul\":11427:11429   */\n      dup1\n        /* \"#utility.yul\":11424:11425   */\n      0x05\n        /* \"#utility.yul\":11420:11430   */\n      shl\n        /* \"#utility.yul\":11410:11430   */\n      swap2\n      pop\n        /* \"#utility.yul\":11450:11478   */\n      tag_406\n        /* \"#utility.yul\":11474:11476   */\n      dup5\n        /* \"#utility.yul\":11470:11472   */\n      dup4\n        /* \"#utility.yul\":11466:11477   */\n      add\n        /* \"#utility.yul\":11450:11478   */\n      tag_322\n      jump\t// in\n    tag_406:\n        /* \"#utility.yul\":11512:11527   */\n      dup2\n      dup2\n      mstore\n        /* \"#utility.yul\":11582:11593   */\n      swap2\n      dup4\n      add\n        /* \"#utility.yul\":11578:11598   */\n      dup5\n      add\n      swap2\n        /* \"#utility.yul\":11543:11555   */\n      dup5\n      dup2\n      add\n      swap1\n        /* \"#utility.yul\":11610:11629   */\n      dup9\n      dup5\n      gt\n        /* \"#utility.yul\":11607:11646   */\n      iszero\n      tag_407\n      jumpi\n        /* \"#utility.yul\":11642:11643   */\n      0x00\n        /* \"#utility.yul\":11639:11640   */\n      dup1\n        /* \"#utility.yul\":11632:11644   */\n      revert\n        /* \"#utility.yul\":11607:11646   */\n    tag_407:\n        /* \"#utility.yul\":11666:11677   */\n      swap4\n      dup6\n      add\n      swap4\n        /* \"#utility.yul\":11686:11821   */\n    tag_408:\n        /* \"#utility.yul\":11702:11708   */\n      dup4\n        /* \"#utility.yul\":11697:11700   */\n      dup6\n        /* \"#utility.yul\":11694:11709   */\n      lt\n        /* \"#utility.yul\":11686:11821   */\n      iszero\n      tag_410\n      jumpi\n        /* \"#utility.yul\":11768:11778   */\n      dup5\n      mload\n        /* \"#utility.yul\":11756:11779   */\n      dup3\n      mstore\n        /* \"#utility.yul\":11719:11731   */\n      swap4\n      dup6\n      add\n      swap4\n        /* \"#utility.yul\":11799:11811   */\n      swap1\n      dup6\n      add\n      swap1\n        /* \"#utility.yul\":11686:11821   */\n      jump(tag_408)\n    tag_410:\n        /* \"#utility.yul\":11840:11845   */\n      swap9\n        /* \"#utility.yul\":10915:11851   */\n      swap8\n      pop\n      pop\n      pop\n      pop\n      pop\n      pop\n      pop\n      pop\n      jump\t// out\n        /* \"#utility.yul\":11856:11983   */\n    tag_214:\n        /* \"#utility.yul\":11917:11927   */\n      0x4e487b71\n        /* \"#utility.yul\":11912:11915   */\n      0xe0\n        /* \"#utility.yul\":11908:11928   */\n      shl\n        /* \"#utility.yul\":11905:11906   */\n      0x00\n        /* \"#utility.yul\":11898:11929   */\n      mstore\n        /* \"#utility.yul\":11948:11952   */\n      0x32\n        /* \"#utility.yul\":11945:11946   */\n      0x04\n        /* \"#utility.yul\":11938:11953   */\n      mstore\n        /* \"#utility.yul\":11972:11976   */\n      0x24\n        /* \"#utility.yul\":11969:11970   */\n      0x00\n        /* \"#utility.yul\":11962:11977   */\n      revert\n        /* \"#utility.yul\":11988:12123   */\n    tag_222:\n        /* \"#utility.yul\":12027:12030   */\n      0x00\n      not(0x00)\n        /* \"#utility.yul\":12048:12065   */\n      dup3\n      eq\n        /* \"#utility.yul\":12045:12088   */\n      iszero\n      tag_414\n      jumpi\n        /* \"#utility.yul\":12068:12086   */\n      tag_414\n      tag_321\n      jump\t// in\n    tag_414:\n      pop\n        /* \"#utility.yul\":12115:12116   */\n      0x01\n        /* \"#utility.yul\":12104:12117   */\n      add\n      swap1\n        /* \"#utility.yul\":11988:12123   */\n      jump\t// out\n        /* \"#utility.yul\":13142:13419   */\n    tag_288:\n        /* \"#utility.yul\":13209:13215   */\n      0x00\n        /* \"#utility.yul\":13262:13264   */\n      0x20\n        /* \"#utility.yul\":13250:13259   */\n      dup3\n        /* \"#utility.yul\":13241:13248   */\n      dup5\n        /* \"#utility.yul\":13237:13260   */\n      sub\n        /* \"#utility.yul\":13233:13265   */\n      slt\n        /* \"#utility.yul\":13230:13282   */\n      iszero\n      tag_419\n      jumpi\n        /* \"#utility.yul\":13278:13279   */\n      0x00\n        /* \"#utility.yul\":13275:13276   */\n      dup1\n        /* \"#utility.yul\":13268:13280   */\n      revert\n        /* \"#utility.yul\":13230:13282   */\n    tag_419:\n        /* \"#utility.yul\":13310:13319   */\n      dup2\n        /* \"#utility.yul\":13304:13320   */\n      mload\n        /* \"#utility.yul\":13363:13368   */\n      dup1\n        /* \"#utility.yul\":13356:13369   */\n      iszero\n        /* \"#utility.yul\":13349:13370   */\n      iszero\n        /* \"#utility.yul\":13342:13347   */\n      dup2\n        /* \"#utility.yul\":13339:13371   */\n      eq\n        /* \"#utility.yul\":13329:13389   */\n      tag_249\n      jumpi\n        /* \"#utility.yul\":13385:13386   */\n      0x00\n        /* \"#utility.yul\":13382:13383   */\n      dup1\n        /* \"#utility.yul\":13375:13387   */\n      revert\n        /* \"#utility.yul\":14600:14858   */\n    tag_323:\n        /* \"#utility.yul\":14672:14673   */\n      0x00\n        /* \"#utility.yul\":14682:14795   */\n    tag_425:\n        /* \"#utility.yul\":14696:14702   */\n      dup4\n        /* \"#utility.yul\":14693:14694   */\n      dup2\n        /* \"#utility.yul\":14690:14703   */\n      lt\n        /* \"#utility.yul\":14682:14795   */\n      iszero\n      tag_427\n      jumpi\n        /* \"#utility.yul\":14772:14783   */\n      dup2\n      dup2\n      add\n        /* \"#utility.yul\":14766:14784   */\n      mload\n        /* \"#utility.yul\":14753:14764   */\n      dup4\n      dup3\n      add\n        /* \"#utility.yul\":14746:14785   */\n      mstore\n        /* \"#utility.yul\":14718:14720   */\n      0x20\n        /* \"#utility.yul\":14711:14721   */\n      add\n        /* \"#utility.yul\":14682:14795   */\n      jump(tag_425)\n    tag_427:\n        /* \"#utility.yul\":14813:14819   */\n      dup4\n        /* \"#utility.yul\":14810:14811   */\n      dup2\n        /* \"#utility.yul\":14807:14820   */\n      gt\n        /* \"#utility.yul\":14804:14852   */\n      iszero\n      tag_265\n      jumpi\n      pop\n      pop\n        /* \"#utility.yul\":14848:14849   */\n      0x00\n        /* \"#utility.yul\":14830:14846   */\n      swap2\n      add\n        /* \"#utility.yul\":14823:14850   */\n      mstore\n        /* \"#utility.yul\":14600:14858   */\n      jump\t// out\n        /* \"#utility.yul\":14863:15137   */\n    tag_305:\n        /* \"#utility.yul\":14992:14995   */\n      0x00\n        /* \"#utility.yul\":15030:15036   */\n      dup3\n        /* \"#utility.yul\":15024:15037   */\n      mload\n        /* \"#utility.yul\":15046:15099   */\n      tag_430\n        /* \"#utility.yul\":15092:15098   */\n      dup2\n        /* \"#utility.yul\":15087:15090   */\n      dup5\n        /* \"#utility.yul\":15080:15084   */\n      0x20\n        /* \"#utility.yul\":15072:15078   */\n      dup8\n        /* \"#utility.yul\":15068:15085   */\n      add\n        /* \"#utility.yul\":15046:15099   */\n      tag_323\n      jump\t// in\n    tag_430:\n        /* \"#utility.yul\":15115:15131   */\n      swap2\n      swap1\n      swap2\n      add\n      swap3\n        /* \"#utility.yul\":14863:15137   */\n      swap2\n      pop\n      pop\n      jump\t// out\n        /* \"#utility.yul\":15142:15525   */\n    tag_318:\n        /* \"#utility.yul\":15291:15293   */\n      0x20\n        /* \"#utility.yul\":15280:15289   */\n      dup2\n        /* \"#utility.yul\":15273:15294   */\n      mstore\n        /* \"#utility.yul\":15254:15258   */\n      0x00\n        /* \"#utility.yul\":15323:15329   */\n      dup3\n        /* \"#utility.yul\":15317:15330   */\n      mload\n        /* \"#utility.yul\":15366:15372   */\n      dup1\n        /* \"#utility.yul\":15361:15363   */\n      0x20\n        /* \"#utility.yul\":15350:15359   */\n      dup5\n        /* \"#utility.yul\":15346:15364   */\n      add\n        /* \"#utility.yul\":15339:15373   */\n      mstore\n        /* \"#utility.yul\":15382:15448   */\n      tag_432\n        /* \"#utility.yul\":15441:15447   */\n      dup2\n        /* \"#utility.yul\":15436:15438   */\n      0x40\n        /* \"#utility.yul\":15425:15434   */\n      dup6\n        /* \"#utility.yul\":15421:15439   */\n      add\n        /* \"#utility.yul\":15416:15418   */\n      0x20\n        /* \"#utility.yul\":15408:15414   */\n      dup8\n        /* \"#utility.yul\":15404:15419   */\n      add\n        /* \"#utility.yul\":15382:15448   */\n      tag_323\n      jump\t// in\n    tag_432:\n        /* \"#utility.yul\":15509:15511   */\n      0x1f\n        /* \"#utility.yul\":15488:15503   */\n      add\n      not(0x1f)\n        /* \"#utility.yul\":15484:15513   */\n      and\n        /* \"#utility.yul\":15469:15514   */\n      swap2\n      swap1\n      swap2\n      add\n        /* \"#utility.yul\":15516:15518   */\n      0x40\n        /* \"#utility.yul\":15465:15519   */\n      add\n      swap3\n        /* \"#utility.yul\":15142:15525   */\n      swap2\n      pop\n      pop\n      jump\t// out\n\n    auxdata: 0xa26469706673582212204bfbf2a999976e866e0441011774369319e7ad91f18dd95e712d8d04587a1e2d64736f6c634300080a0033\n}\n",
				"bytecode": {
					"linkReferences": {},
					"object": "611d8e61003a600b82828239805160001a60731461002d57634e487b7160e01b600052600060045260246000fd5b30600052607381538281f3fe73000000000000000000000000000000000000000030146080604052600436106100565760003560e01c806314395d821461005b578063416f05991461008e5780637ce53fed146100ae578063a850dbcb146100ce575b600080fd5b81801561006757600080fd5b5061007b6100763660046117d8565b6100f0565b6040519081526020015b60405180910390f35b81801561009a57600080fd5b5061007b6100a9366004611876565b610b73565b6100c16100bc36600461191c565b610f21565b6040516100859190611939565b8180156100da57600080fd5b506100ee6100e93660046119c3565b6110f3565b005b6040516370a0823160e01b815230600482015260009081906001600160a01b038816906370a0823190602401602060405180830381865afa158015610139573d6000803e3d6000fd5b505050506040513d601f19601f8201168201806040525081019061015d9190611a3a565b9050600061016e602085018561191c565b6001600160a01b0316637bd2bea76040518163ffffffff1660e01b8152600401602060405180830381865afa1580156101ab573d6000803e3d6000fd5b505050506040513d601f19601f820116820180604052508101906101cf9190611a53565b6040516370a0823160e01b81523060048201526001600160a01b0391909116906370a0823190602401602060405180830381865afa158015610215573d6000803e3d6000fd5b505050506040513d601f19601f820116820180604052508101906102399190611a3a565b905060006102548b8d6b033b2e3c9fd0803ce8000000611347565b61025f906001611a86565b90506102766001600160a01b038a1633308461140e565b604051633b4da69f60e01b81526001600160a01b03891690633b4da69f906102a49030908590600401611a9e565b600060405180830381600087803b1580156102be57600080fd5b505af11580156102d2573d6000803e3d6000fd5b5050506001600160a01b038816905063a3b22fc46102f6608088016060890161191c565b6040516001600160e01b031960e084901b1681526001600160a01b039091166004820152602401600060405180830381600087803b15801561033757600080fd5b505af115801561034b573d6000803e3d6000fd5b5060009250610363915050608087016060880161191c565b6001600160a01b031663b5f522f78f6040518263ffffffff1660e01b815260040161039091815260200190565b60c060405180830381865afa1580156103ad573d6000803e3d6000fd5b505050506040513d601f19601f820116820180604052508101906103d19190611afe565b6060015160405163214414d560e01b8152602088013560048201526001600160a01b0380831660248301529192509089169063214414d590604401602060405180830381865afa158015610429573d6000803e3d6000fd5b505050506040513d601f19601f8201168201806040525081019061044d9190611a3a565b945061045f608087016060880161191c565b6001600160a01b03166381a794cb8f8f8f306040518563ffffffff1660e01b81526004016104be9493929190938452602084019290925260408301526001600160a01b0316606082015260a06080820181905260009082015260c00190565b600060405180830381600087803b1580156104d857600080fd5b505af11580156104ec573d6000803e3d6000fd5b505060405163214414d560e01b8152602089013560048201526001600160a01b0384811660248301528893508b16915063214414d590604401602060405180830381865afa158015610542573d6000803e3d6000fd5b505050506040513d601f19601f820116820180604052508101906105669190611a3a565b6105709190611b95565b945061057f602087018761191c565b60405163214414d560e01b81526020880135600482015230602482018190526001600160a01b039283169263ef693bed92908c169063214414d590604401602060405180830381865afa1580156105da573d6000803e3d6000fd5b505050506040513d601f19601f820116820180604052508101906105fe9190611a3a565b6040518363ffffffff1660e01b815260040161061b929190611a9e565b600060405180830381600087803b15801561063557600080fd5b505af1158015610649573d6000803e3d6000fd5b50506040516385fd5cd760e01b815230600482018190526001600160a01b03808e16945063ef693bed935090916b033b2e3c9fd0803ce8000000918d16906385fd5cd790602401602060405180830381865afa1580156106ad573d6000803e3d6000fd5b505050506040513d601f19601f820116820180604052508101906106d19190611a3a565b6106db9190611bc2565b6040518363ffffffff1660e01b81526004016106f8929190611a9e565b600060405180830381600087803b15801561071257600080fd5b505af1158015610726573d6000803e3d6000fd5b50506040516370a0823160e01b81523060048201528692506001600160a01b038d1691506370a0823190602401602060405180830381865afa158015610770573d6000803e3d6000fd5b505050506040513d601f19601f820116820180604052508101906107949190611a3a565b61079e9190611b95565b9350826107ae602088018861191c565b6001600160a01b0316637bd2bea76040518163ffffffff1660e01b8152600401602060405180830381865afa1580156107eb573d6000803e3d6000fd5b505050506040513d601f19601f8201168201806040525081019061080f9190611a53565b6040516370a0823160e01b81523060048201526001600160a01b0391909116906370a0823190602401602060405180830381865afa158015610855573d6000803e3d6000fd5b505050506040513d601f19601f820116820180604052508101906108799190611a3a565b6108839190611b95565b92506108996001600160a01b038b168c8661147f565b6001600160a01b03881663dc4d20fa6108b86080890160608a0161191c565b6040516001600160e01b031960e084901b1681526001600160a01b039091166004820152602401600060405180830381600087803b1580156108f957600080fd5b505af115801561090d573d6000803e3d6000fd5b505050506001600160a01b03871615610b50576109a3878461093260208a018a61191c565b6001600160a01b0316637bd2bea76040518163ffffffff1660e01b8152600401602060405180830381865afa15801561096f573d6000803e3d6000fd5b505050506040513d601f19601f820116820180604052508101906109939190611a53565b6001600160a01b0316919061147f565b604051633795dc3560e11b81526001600160a01b03881690636f2bb86a906109d1908e908790600401611a9e565b600060405180830381600087803b1580156109eb57600080fd5b505af11580156109ff573d6000803e3d6000fd5b5050505084600014610b4b57604051633088df1760e11b8152602087013560048201526001600160a01b03828116602483015230604483015260648201879052891690636111be2e90608401600060405180830381600087803b158015610a6557600080fd5b505af1158015610a79573d6000803e3d6000fd5b50610a8b92505050602087018761191c565b6001600160a01b031663ef693bed88876040518363ffffffff1660e01b8152600401610ab8929190611a9e565b600060405180830381600087803b158015610ad257600080fd5b505af1158015610ae6573d6000803e3d6000fd5b5050604051633795dc3560e11b81526001600160a01b038a169250636f2bb86a9150610b189084908990600401611a9e565b600060405180830381600087803b158015610b3257600080fd5b505af1158015610b46573d6000803e3d6000fd5b505050505b610b62565b610b628b8461093260208a018a61191c565b505050509998505050505050505050565b600080610b86608084016060850161191c565b9050806001600160a01b0316630cbb58626040518163ffffffff1660e01b8152600401600060405180830381600087803b158015610bc357600080fd5b505af1158015610bd7573d6000803e3d6000fd5b50506040516370a0823160e01b8152306004820152600092506001600160a01b038b1691506370a0823190602401602060405180830381865afa158015610c22573d6000803e3d6000fd5b505050506040513d601f19601f82011682018060405250810190610c469190611a3a565b604051631db3312160e31b8152602086013560048201526001600160a01b038d811660248301523060448301529192509087169063ed998908906064016020604051808303816000875af1158015610ca2573d6000803e3d6000fd5b505050506040513d601f19601f82011682018060405250810190610cc69190611a3a565b6040516385fd5cd760e01b815230600482018190529194506001600160a01b03808b169263ef693bed9290916b033b2e3c9fd0803ce800000091908c16906385fd5cd790602401602060405180830381865afa158015610d2a573d6000803e3d6000fd5b505050506040513d601f19601f82011682018060405250810190610d4e9190611a3a565b610d589190611bc2565b6040518363ffffffff1660e01b8152600401610d75929190611a9e565b600060405180830381600087803b158015610d8f57600080fd5b505af1158015610da3573d6000803e3d6000fd5b50506040516370a0823160e01b81523060048201528392506001600160a01b038c1691506370a0823190602401602060405180830381865afa158015610ded573d6000803e3d6000fd5b505050506040513d601f19601f82011682018060405250810190610e119190611a3a565b610e1b9190611b95565b9050610e316001600160a01b038a168b8361147f565b6001600160a01b03851615610f1357846001600160a01b031663df3d23ae8c846001600160a01b031663b5f522f7876040518263ffffffff1660e01b8152600401610e7e91815260200190565b60c060405180830381865afa158015610e9b573d6000803e3d6000fd5b505050506040513d601f19601f82011682018060405250810190610ebf9190611afe565b604001516040518363ffffffff1660e01b8152600401610ee0929190611a9e565b600060405180830381600087803b158015610efa57600080fd5b505af1158015610f0e573d6000803e3d6000fd5b505050505b505098975050505050505050565b60606000826001600160a01b0316630f560cd76040518163ffffffff1660e01b8152600401600060405180830381865afa158015610f63573d6000803e3d6000fd5b505050506040513d6000823e601f3d908101601f19168201604052610f8b9190810190611be4565b80519091508067ffffffffffffffff811115610fa957610fa9611ab7565b60405190808252806020026020018201604052801561102557816020015b6110126040518060c0016040528060008152602001600081526020016000815260200160006001600160a01b0316815260200160006001600160601b03168152602001600081525090565b815260200190600190039081610fc75790505b50925060005b818110156110eb57846001600160a01b031663b5f522f784838151811061105457611054611c8a565b60200260200101516040518263ffffffff1660e01b815260040161107a91815260200190565b60c060405180830381865afa158015611097573d6000803e3d6000fd5b505050506040513d601f19601f820116820180604052508101906110bb9190611afe565b8482815181106110cd576110cd611c8a565b602002602001018190525080806110e390611ca0565b91505061102b565b505050919050565b6000611105608083016060840161191c565b6040516370a0823160e01b81523060048201529091506000906001600160a01b038716906370a0823190602401602060405180830381865afa15801561114f573d6000803e3d6000fd5b505050506040513d601f19601f820116820180604052508101906111739190611a3a565b60405163d843416d60e01b8152600481018a90523060248201529091506001600160a01b0383169063d843416d90604401600060405180830381600087803b1580156111be57600080fd5b505af11580156111d2573d6000803e3d6000fd5b50506040516385fd5cd760e01b815230600482018190526001600160a01b03808a16945063ef693bed935090916b033b2e3c9fd0803ce8000000918916906385fd5cd790602401602060405180830381865afa158015611236573d6000803e3d6000fd5b505050506040513d601f19601f8201168201806040525081019061125a9190611a3a565b6112649190611bc2565b6040518363ffffffff1660e01b8152600401611281929190611a9e565b600060405180830381600087803b15801561129b57600080fd5b505af11580156112af573d6000803e3d6000fd5b50506040516370a0823160e01b81523060048201528392506001600160a01b03891691506370a0823190602401602060405180830381865afa1580156112f9573d6000803e3d6000fd5b505050506040513d601f19601f8201168201806040525081019061131d9190611a3a565b6113279190611b95565b905061133d6001600160a01b038716888361147f565b5050505050505050565b600080600061135686866114a3565b915091506000848061136a5761136a611bac565b86880990508281111561137e576001820391505b9182900391816113a25784838161139757611397611bac565b049350505050611407565b8482106113f65760405162461bcd60e51b815260206004820152601a60248201527f46756c6c4d6174683a2046554c4c4449565f4f564552464c4f5700000000000060448201526064015b60405180910390fd5b6114018383876114d0565b93505050505b9392505050565b6040516001600160a01b03808516602483015283166044820152606481018290526114799085906323b872dd60e01b906084015b60408051601f198184030181529190526020810180516001600160e01b03166001600160e01b031990931692909217909152611555565b50505050565b61149e8363a9059cbb60e01b8484604051602401611442929190611a9e565b505050565b60008080600019848609905083850292508281039150828110156114c8576001820391505b509250929050565b6000600182190182168083816114e8576114e8611bac565b0492508085816114fa576114fa611bac565b0494508081196001018161151057611510611bac565b60028581038087028203028087028203028087028203028087028203028087028203028087028203029586029003909402930460010193909302939093010292915050565b60006115aa826040518060400160405280602081526020017f5361666545524332303a206c6f772d6c6576656c2063616c6c206661696c6564815250856001600160a01b03166116279092919063ffffffff16565b80519091501561149e57808060200190518101906115c89190611cbb565b61149e5760405162461bcd60e51b815260206004820152602a60248201527f5361666545524332303a204552433230206f7065726174696f6e20646964206e6044820152691bdd081cdd58d8d9595960b21b60648201526084016113ed565b6060611636848460008561163e565b949350505050565b60608247101561169f5760405162461bcd60e51b815260206004820152602660248201527f416464726573733a20696e73756666696369656e742062616c616e636520666f6044820152651c8818d85b1b60d21b60648201526084016113ed565b6001600160a01b0385163b6116f65760405162461bcd60e51b815260206004820152601d60248201527f416464726573733a2063616c6c20746f206e6f6e2d636f6e747261637400000060448201526064016113ed565b600080866001600160a01b031685876040516117129190611d09565b60006040518083038185875af1925050503d806000811461174f576040519150601f19603f3d011682016040523d82523d6000602084013e611754565b606091505b509150915061176482828661176f565b979650505050505050565b6060831561177e575081611407565b82511561178e5782518084602001fd5b8160405162461bcd60e51b81526004016113ed9190611d25565b6001600160a01b03811681146117bd57600080fd5b50565b6000608082840312156117d257600080fd5b50919050565b60008060008060008060008060006101808a8c0312156117f757600080fd5b8935985060208a0135975060408a0135965060608a0135611817816117a8565b955060808a0135611827816117a8565b945060a08a0135611837816117a8565b935060c08a0135611847816117a8565b925060e08a0135611857816117a8565b91506118678b6101008c016117c0565b90509295985092959850929598565b600080600080600080600080610160898b03121561189357600080fd5b883561189e816117a8565b975060208901356118ae816117a8565b965060408901356118be816117a8565b955060608901356118ce816117a8565b945060808901356118de816117a8565b935060a08901356118ee816117a8565b925060c08901356118fe816117a8565b915061190d8a60e08b016117c0565b90509295985092959890939650565b60006020828403121561192e57600080fd5b8135611407816117a8565b602080825282518282018190526000919060409081850190868401855b828110156119b657815180518552868101518786015285810151868601526060808201516001600160a01b0316908601526080808201516001600160601b03169086015260a0908101519085015260c09093019290850190600101611956565b5091979650505050505050565b60008060008060008061012087890312156119dd57600080fd5b8635955060208701356119ef816117a8565b945060408701356119ff816117a8565b93506060870135611a0f816117a8565b92506080870135611a1f816117a8565b9150611a2e8860a089016117c0565b90509295509295509295565b600060208284031215611a4c57600080fd5b5051919050565b600060208284031215611a6557600080fd5b8151611407816117a8565b634e487b7160e01b600052601160045260246000fd5b60008219821115611a9957611a99611a70565b500190565b6001600160a01b03929092168252602082015260400190565b634e487b7160e01b600052604160045260246000fd5b604051601f8201601f1916810167ffffffffffffffff81118282101715611af657611af6611ab7565b604052919050565b600060c08284031215611b1057600080fd5b60405160c0810181811067ffffffffffffffff82111715611b3357611b33611ab7565b80604052508251815260208301516020820152604083015160408201526060830151611b5e816117a8565b606082015260808301516001600160601b0381168114611b7d57600080fd5b608082015260a0928301519281019290925250919050565b600082821015611ba757611ba7611a70565b500390565b634e487b7160e01b600052601260045260246000fd5b600082611bdf57634e487b7160e01b600052601260045260246000fd5b500490565b60006020808385031215611bf757600080fd5b825167ffffffffffffffff80821115611c0f57600080fd5b818501915085601f830112611c2357600080fd5b815181811115611c3557611c35611ab7565b8060051b9150611c46848301611acd565b8181529183018401918481019088841115611c6057600080fd5b938501935b83851015611c7e57845182529385019390850190611c65565b98975050505050505050565b634e487b7160e01b600052603260045260246000fd5b6000600019821415611cb457611cb4611a70565b5060010190565b600060208284031215611ccd57600080fd5b8151801515811461140757600080fd5b60005b83811015611cf8578181015183820152602001611ce0565b838111156114795750506000910152565b60008251611d1b818460208701611cdd565b9190910192915050565b6020815260008251806020840152611d44816040850160208701611cdd565b601f01601f1916919091016040019291505056fea26469706673582212204bfbf2a999976e866e0441011774369319e7ad91f18dd95e712d8d04587a1e2d64736f6c634300080a0033",
					"opcodes": "PUSH2 0x1D8E PUSH2 0x3A PUSH1 0xB DUP3 DUP3 DUP3 CODECOPY DUP1 MLOAD PUSH1 0x0 BYTE PUSH1 0x73 EQ PUSH2 0x2D JUMPI PUSH4 0x4E487B71 PUSH1 0xE0 SHL PUSH1 0x0 MSTORE PUSH1 0x0 PUSH1 0x4 MSTORE PUSH1 0x24 PUSH1 0x0 REVERT JUMPDEST ADDRESS PUSH1 0x0 MSTORE PUSH1 0x73 DUP2 MSTORE8 DUP3 DUP2 RETURN INVALID PUSH20 0x0 ADDRESS EQ PUSH1 0x80 PUSH1 0x40 MSTORE PUSH1 0x4 CALLDATASIZE LT PUSH2 0x56 JUMPI PUSH1 0x0 CALLDATALOAD PUSH1 0xE0 SHR DUP1 PUSH4 0x14395D82 EQ PUSH2 0x5B JUMPI DUP1 PUSH4 0x416F0599 EQ PUSH2 0x8E JUMPI DUP1 PUSH4 0x7CE53FED EQ PUSH2 0xAE JUMPI DUP1 PUSH4 0xA850DBCB EQ PUSH2 0xCE JUMPI JUMPDEST PUSH1 0x0 DUP1 REVERT JUMPDEST DUP2 DUP1 ISZERO PUSH2 0x67 JUMPI PUSH1 0x0 DUP1 REVERT JUMPDEST POP PUSH2 0x7B PUSH2 0x76 CALLDATASIZE PUSH1 0x4 PUSH2 0x17D8 JUMP JUMPDEST PUSH2 0xF0 JUMP JUMPDEST PUSH1 0x40 MLOAD SWAP1 DUP2 MSTORE PUSH1 0x20 ADD JUMPDEST PUSH1 0x40 MLOAD DUP1 SWAP2 SUB SWAP1 RETURN JUMPDEST DUP2 DUP1 ISZERO PUSH2 0x9A JUMPI PUSH1 0x0 DUP1 REVERT JUMPDEST POP PUSH2 0x7B PUSH2 0xA9 CALLDATASIZE PUSH1 0x4 PUSH2 0x1876 JUMP JUMPDEST PUSH2 0xB73 JUMP JUMPDEST PUSH2 0xC1 PUSH2 0xBC CALLDATASIZE PUSH1 0x4 PUSH2 0x191C JUMP JUMPDEST PUSH2 0xF21 JUMP JUMPDEST PUSH1 0x40 MLOAD PUSH2 0x85 SWAP2 SWAP1 PUSH2 0x1939 JUMP JUMPDEST DUP2 DUP1 ISZERO PUSH2 0xDA JUMPI PUSH1 0x0 DUP1 REVERT JUMPDEST POP PUSH2 0xEE PUSH2 0xE9 CALLDATASIZE PUSH1 0x4 PUSH2 0x19C3 JUMP JUMPDEST PUSH2 0x10F3 JUMP JUMPDEST STOP JUMPDEST PUSH1 0x40 MLOAD PUSH4 0x70A08231 PUSH1 0xE0 SHL DUP2 MSTORE ADDRESS PUSH1 0x4 DUP3 ADD MSTORE PUSH1 0x0 SWAP1 DUP2 SWAP1 PUSH1 0x1 PUSH1 0x1 PUSH1 0xA0 SHL SUB DUP9 AND SWAP1 PUSH4 0x70A08231 SWAP1 PUSH1 0x24 ADD PUSH1 0x20 PUSH1 0x40 MLOAD DUP1 DUP4 SUB DUP2 DUP7 GAS STATICCALL ISZERO DUP1 ISZERO PUSH2 0x139 JUMPI RETURNDATASIZE PUSH1 0x0 DUP1 RETURNDATACOPY RETURNDATASIZE PUSH1 0x0 REVERT JUMPDEST POP POP POP POP PUSH1 0x40 MLOAD RETURNDATASIZE PUSH1 0x1F NOT PUSH1 0x1F DUP3 ADD AND DUP3 ADD DUP1 PUSH1 0x40 MSTORE POP DUP2 ADD SWAP1 PUSH2 0x15D SWAP2 SWAP1 PUSH2 0x1A3A JUMP JUMPDEST SWAP1 POP PUSH1 0x0 PUSH2 0x16E PUSH1 0x20 DUP6 ADD DUP6 PUSH2 0x191C JUMP JUMPDEST PUSH1 0x1 PUSH1 0x1 PUSH1 0xA0 SHL SUB AND PUSH4 0x7BD2BEA7 PUSH1 0x40 MLOAD DUP2 PUSH4 0xFFFFFFFF AND PUSH1 0xE0 SHL DUP2 MSTORE PUSH1 0x4 ADD PUSH1 0x20 PUSH1 0x40 MLOAD DUP1 DUP4 SUB DUP2 DUP7 GAS STATICCALL ISZERO DUP1 ISZERO PUSH2 0x1AB JUMPI RETURNDATASIZE PUSH1 0x0 DUP1 RETURNDATACOPY RETURNDATASIZE PUSH1 0x0 REVERT JUMPDEST POP POP POP POP PUSH1 0x40 MLOAD RETURNDATASIZE PUSH1 0x1F NOT PUSH1 0x1F DUP3 ADD AND DUP3 ADD DUP1 PUSH1 0x40 MSTORE POP DUP2 ADD SWAP1 PUSH2 0x1CF SWAP2 SWAP1 PUSH2 0x1A53 JUMP JUMPDEST PUSH1 0x40 MLOAD PUSH4 0x70A08231 PUSH1 0xE0 SHL DUP2 MSTORE ADDRESS PUSH1 0x4 DUP3 ADD MSTORE PUSH1 0x1 PUSH1 0x1 PUSH1 0xA0 SHL SUB SWAP2 SWAP1 SWAP2 AND SWAP1 PUSH4 0x70A08231 SWAP1 PUSH1 0x24 ADD PUSH1 0x20 PUSH1 0x40 MLOAD DUP1 DUP4 SUB DUP2 DUP7 GAS STATICCALL ISZERO DUP1 ISZERO PUSH2 0x215 JUMPI RETURNDATASIZE PUSH1 0x0 DUP1 RETURNDATACOPY RETURNDATASIZE PUSH1 0x0 REVERT JUMPDEST POP POP POP POP PUSH1 0x40 MLOAD RETURNDATASIZE PUSH1 0x1F NOT PUSH1 0x1F DUP3 ADD AND DUP3 ADD DUP1 PUSH1 0x40 MSTORE POP DUP2 ADD SWAP1 PUSH2 0x239 SWAP2 SWAP1 PUSH2 0x1A3A JUMP JUMPDEST SWAP1 POP PUSH1 0x0 PUSH2 0x254 DUP12 DUP14 PUSH12 0x33B2E3C9FD0803CE8000000 PUSH2 0x1347 JUMP JUMPDEST PUSH2 0x25F SWAP1 PUSH1 0x1 PUSH2 0x1A86 JUMP JUMPDEST SWAP1 POP PUSH2 0x276 PUSH1 0x1 PUSH1 0x1 PUSH1 0xA0 SHL SUB DUP11 AND CALLER ADDRESS DUP5 PUSH2 0x140E JUMP JUMPDEST PUSH1 0x40 MLOAD PUSH4 0x3B4DA69F PUSH1 0xE0 SHL DUP2 MSTORE PUSH1 0x1 PUSH1 0x1 PUSH1 0xA0 SHL SUB DUP10 AND SWAP1 PUSH4 0x3B4DA69F SWAP1 PUSH2 0x2A4 SWAP1 ADDRESS SWAP1 DUP6 SWAP1 PUSH1 0x4 ADD PUSH2 0x1A9E JUMP JUMPDEST PUSH1 0x0 PUSH1 0x40 MLOAD DUP1 DUP4 SUB DUP2 PUSH1 0x0 DUP8 DUP1 EXTCODESIZE ISZERO DUP1 ISZERO PUSH2 0x2BE JUMPI PUSH1 0x0 DUP1 REVERT JUMPDEST POP GAS CALL ISZERO DUP1 ISZERO PUSH2 0x2D2 JUMPI RETURNDATASIZE PUSH1 0x0 DUP1 RETURNDATACOPY RETURNDATASIZE PUSH1 0x0 REVERT JUMPDEST POP POP POP PUSH1 0x1 PUSH1 0x1 PUSH1 0xA0 SHL SUB DUP9 AND SWAP1 POP PUSH4 0xA3B22FC4 PUSH2 0x2F6 PUSH1 0x80 DUP9 ADD PUSH1 0x60 DUP10 ADD PUSH2 0x191C JUMP JUMPDEST PUSH1 0x40 MLOAD PUSH1 0x1 PUSH1 0x1 PUSH1 0xE0 SHL SUB NOT PUSH1 0xE0 DUP5 SWAP1 SHL AND DUP2 MSTORE PUSH1 0x1 PUSH1 0x1 PUSH1 0xA0 SHL SUB SWAP1 SWAP2 AND PUSH1 0x4 DUP3 ADD MSTORE PUSH1 0x24 ADD PUSH1 0x0 PUSH1 0x40 MLOAD DUP1 DUP4 SUB DUP2 PUSH1 0x0 DUP8 DUP1 EXTCODESIZE ISZERO DUP1 ISZERO PUSH2 0x337 JUMPI PUSH1 0x0 DUP1 REVERT JUMPDEST POP GAS CALL ISZERO DUP1 ISZERO PUSH2 0x34B JUMPI RETURNDATASIZE PUSH1 0x0 DUP1 RETURNDATACOPY RETURNDATASIZE PUSH1 0x0 REVERT JUMPDEST POP PUSH1 0x0 SWAP3 POP PUSH2 0x363 SWAP2 POP POP PUSH1 0x80 DUP8 ADD PUSH1 0x60 DUP9 ADD PUSH2 0x191C JUMP JUMPDEST PUSH1 0x1 PUSH1 0x1 PUSH1 0xA0 SHL SUB AND PUSH4 0xB5F522F7 DUP16 PUSH1 0x40 MLOAD DUP3 PUSH4 0xFFFFFFFF AND PUSH1 0xE0 SHL DUP2 MSTORE PUSH1 0x4 ADD PUSH2 0x390 SWAP2 DUP2 MSTORE PUSH1 0x20 ADD SWAP1 JUMP JUMPDEST PUSH1 0xC0 PUSH1 0x40 MLOAD DUP1 DUP4 SUB DUP2 DUP7 GAS STATICCALL ISZERO DUP1 ISZERO PUSH2 0x3AD JUMPI RETURNDATASIZE PUSH1 0x0 DUP1 RETURNDATACOPY RETURNDATASIZE PUSH1 0x0 REVERT JUMPDEST POP POP POP POP PUSH1 0x40 MLOAD RETURNDATASIZE PUSH1 0x1F NOT PUSH1 0x1F DUP3 ADD AND DUP3 ADD DUP1 PUSH1 0x40 MSTORE POP DUP2 ADD SWAP1 PUSH2 0x3D1 SWAP2 SWAP1 PUSH2 0x1AFE JUMP JUMPDEST PUSH1 0x60 ADD MLOAD PUSH1 0x40 MLOAD PUSH4 0x214414D5 PUSH1 0xE0 SHL DUP2 MSTORE PUSH1 0x20 DUP9 ADD CALLDATALOAD PUSH1 0x4 DUP3 ADD MSTORE PUSH1 0x1 PUSH1 0x1 PUSH1 0xA0 SHL SUB DUP1 DUP4 AND PUSH1 0x24 DUP4 ADD MSTORE SWAP2 SWAP3 POP SWAP1 DUP10 AND SWAP1 PUSH4 0x214414D5 SWAP1 PUSH1 0x44 ADD PUSH1 0x20 PUSH1 0x40 MLOAD DUP1 DUP4 SUB DUP2 DUP7 GAS STATICCALL ISZERO DUP1 ISZERO PUSH2 0x429 JUMPI RETURNDATASIZE PUSH1 0x0 DUP1 RETURNDATACOPY RETURNDATASIZE PUSH1 0x0 REVERT JUMPDEST POP POP POP POP PUSH1 0x40 MLOAD RETURNDATASIZE PUSH1 0x1F NOT PUSH1 0x1F DUP3 ADD AND DUP3 ADD DUP1 PUSH1 0x40 MSTORE POP DUP2 ADD SWAP1 PUSH2 0x44D SWAP2 SWAP1 PUSH2 0x1A3A JUMP JUMPDEST SWAP5 POP PUSH2 0x45F PUSH1 0x80 DUP8 ADD PUSH1 0x60 DUP9 ADD PUSH2 0x191C JUMP JUMPDEST PUSH1 0x1 PUSH1 0x1 PUSH1 0xA0 SHL SUB AND PUSH4 0x81A794CB DUP16 DUP16 DUP16 ADDRESS PUSH1 0x40 MLOAD DUP6 PUSH4 0xFFFFFFFF AND PUSH1 0xE0 SHL DUP2 MSTORE PUSH1 0x4 ADD PUSH2 0x4BE SWAP5 SWAP4 SWAP3 SWAP2 SWAP1 SWAP4 DUP5 MSTORE PUSH1 0x20 DUP5 ADD SWAP3 SWAP1 SWAP3 MSTORE PUSH1 0x40 DUP4 ADD MSTORE PUSH1 0x1 PUSH1 0x1 PUSH1 0xA0 SHL SUB AND PUSH1 0x60 DUP3 ADD MSTORE PUSH1 0xA0 PUSH1 0x80 DUP3 ADD DUP2 SWAP1 MSTORE PUSH1 0x0 SWAP1 DUP3 ADD MSTORE PUSH1 0xC0 ADD SWAP1 JUMP JUMPDEST PUSH1 0x0 PUSH1 0x40 MLOAD DUP1 DUP4 SUB DUP2 PUSH1 0x0 DUP8 DUP1 EXTCODESIZE ISZERO DUP1 ISZERO PUSH2 0x4D8 JUMPI PUSH1 0x0 DUP1 REVERT JUMPDEST POP GAS CALL ISZERO DUP1 ISZERO PUSH2 0x4EC JUMPI RETURNDATASIZE PUSH1 0x0 DUP1 RETURNDATACOPY RETURNDATASIZE PUSH1 0x0 REVERT JUMPDEST POP POP PUSH1 0x40 MLOAD PUSH4 0x214414D5 PUSH1 0xE0 SHL DUP2 MSTORE PUSH1 0x20 DUP10 ADD CALLDATALOAD PUSH1 0x4 DUP3 ADD MSTORE PUSH1 0x1 PUSH1 0x1 PUSH1 0xA0 SHL SUB DUP5 DUP2 AND PUSH1 0x24 DUP4 ADD MSTORE DUP9 SWAP4 POP DUP12 AND SWAP2 POP PUSH4 0x214414D5 SWAP1 PUSH1 0x44 ADD PUSH1 0x20 PUSH1 0x40 MLOAD DUP1 DUP4 SUB DUP2 DUP7 GAS STATICCALL ISZERO DUP1 ISZERO PUSH2 0x542 JUMPI RETURNDATASIZE PUSH1 0x0 DUP1 RETURNDATACOPY RETURNDATASIZE PUSH1 0x0 REVERT JUMPDEST POP POP POP POP PUSH1 0x40 MLOAD RETURNDATASIZE PUSH1 0x1F NOT PUSH1 0x1F DUP3 ADD AND DUP3 ADD DUP1 PUSH1 0x40 MSTORE POP DUP2 ADD SWAP1 PUSH2 0x566 SWAP2 SWAP1 PUSH2 0x1A3A JUMP JUMPDEST PUSH2 0x570 SWAP2 SWAP1 PUSH2 0x1B95 JUMP JUMPDEST SWAP5 POP PUSH2 0x57F PUSH1 0x20 DUP8 ADD DUP8 PUSH2 0x191C JUMP JUMPDEST PUSH1 0x40 MLOAD PUSH4 0x214414D5 PUSH1 0xE0 SHL DUP2 MSTORE PUSH1 0x20 DUP9 ADD CALLDATALOAD PUSH1 0x4 DUP3 ADD MSTORE ADDRESS PUSH1 0x24 DUP3 ADD DUP2 SWAP1 MSTORE PUSH1 0x1 PUSH1 0x1 PUSH1 0xA0 SHL SUB SWAP3 DUP4 AND SWAP3 PUSH4 0xEF693BED SWAP3 SWAP1 DUP13 AND SWAP1 PUSH4 0x214414D5 SWAP1 PUSH1 0x44 ADD PUSH1 0x20 PUSH1 0x40 MLOAD DUP1 DUP4 SUB DUP2 DUP7 GAS STATICCALL ISZERO DUP1 ISZERO PUSH2 0x5DA JUMPI RETURNDATASIZE PUSH1 0x0 DUP1 RETURNDATACOPY RETURNDATASIZE PUSH1 0x0 REVERT JUMPDEST POP POP POP POP PUSH1 0x40 MLOAD RETURNDATASIZE PUSH1 0x1F NOT PUSH1 0x1F DUP3 ADD AND DUP3 ADD DUP1 PUSH1 0x40 MSTORE POP DUP2 ADD SWAP1 PUSH2 0x5FE SWAP2 SWAP1 PUSH2 0x1A3A JUMP JUMPDEST PUSH1 0x40 MLOAD DUP4 PUSH4 0xFFFFFFFF AND PUSH1 0xE0 SHL DUP2 MSTORE PUSH1 0x4 ADD PUSH2 0x61B SWAP3 SWAP2 SWAP1 PUSH2 0x1A9E JUMP JUMPDEST PUSH1 0x0 PUSH1 0x40 MLOAD DUP1 DUP4 SUB DUP2 PUSH1 0x0 DUP8 DUP1 EXTCODESIZE ISZERO DUP1 ISZERO PUSH2 0x635 JUMPI PUSH1 0x0 DUP1 REVERT JUMPDEST POP GAS CALL ISZERO DUP1 ISZERO PUSH2 0x649 JUMPI RETURNDATASIZE PUSH1 0x0 DUP1 RETURNDATACOPY RETURNDATASIZE PUSH1 0x0 REVERT JUMPDEST POP POP PUSH1 0x40 MLOAD PUSH4 0x85FD5CD7 PUSH1 0xE0 SHL DUP2 MSTORE ADDRESS PUSH1 0x4 DUP3 ADD DUP2 SWAP1 MSTORE PUSH1 0x1 PUSH1 0x1 PUSH1 0xA0 SHL SUB DUP1 DUP15 AND SWAP5 POP PUSH4 0xEF693BED SWAP4 POP SWAP1 SWAP2 PUSH12 0x33B2E3C9FD0803CE8000000 SWAP2 DUP14 AND SWAP1 PUSH4 0x85FD5CD7 SWAP1 PUSH1 0x24 ADD PUSH1 0x20 PUSH1 0x40 MLOAD DUP1 DUP4 SUB DUP2 DUP7 GAS STATICCALL ISZERO DUP1 ISZERO PUSH2 0x6AD JUMPI RETURNDATASIZE PUSH1 0x0 DUP1 RETURNDATACOPY RETURNDATASIZE PUSH1 0x0 REVERT JUMPDEST POP POP POP POP PUSH1 0x40 MLOAD RETURNDATASIZE PUSH1 0x1F NOT PUSH1 0x1F DUP3 ADD AND DUP3 ADD DUP1 PUSH1 0x40 MSTORE POP DUP2 ADD SWAP1 PUSH2 0x6D1 SWAP2 SWAP1 PUSH2 0x1A3A JUMP JUMPDEST PUSH2 0x6DB SWAP2 SWAP1 PUSH2 0x1BC2 JUMP JUMPDEST PUSH1 0x40 MLOAD DUP4 PUSH4 0xFFFFFFFF AND PUSH1 0xE0 SHL DUP2 MSTORE PUSH1 0x4 ADD PUSH2 0x6F8 SWAP3 SWAP2 SWAP1 PUSH2 0x1A9E JUMP JUMPDEST PUSH1 0x0 PUSH1 0x40 MLOAD DUP1 DUP4 SUB DUP2 PUSH1 0x0 DUP8 DUP1 EXTCODESIZE ISZERO DUP1 ISZERO PUSH2 0x712 JUMPI PUSH1 0x0 DUP1 REVERT JUMPDEST POP GAS CALL ISZERO DUP1 ISZERO PUSH2 0x726 JUMPI RETURNDATASIZE PUSH1 0x0 DUP1 RETURNDATACOPY RETURNDATASIZE PUSH1 0x0 REVERT JUMPDEST POP POP PUSH1 0x40 MLOAD PUSH4 0x70A08231 PUSH1 0xE0 SHL DUP2 MSTORE ADDRESS PUSH1 0x4 DUP3 ADD MSTORE DUP7 SWAP3 POP PUSH1 0x1 PUSH1 0x1 PUSH1 0xA0 SHL SUB DUP14 AND SWAP2 POP PUSH4 0x70A08231 SWAP1 PUSH1 0x24 ADD PUSH1 0x20 PUSH1 0x40 MLOAD DUP1 DUP4 SUB DUP2 DUP7 GAS STATICCALL ISZERO DUP1 ISZERO PUSH2 0x770 JUMPI RETURNDATASIZE PUSH1 0x0 DUP1 RETURNDATACOPY RETURNDATASIZE PUSH1 0x0 REVERT JUMPDEST POP POP POP POP PUSH1 0x40 MLOAD RETURNDATASIZE PUSH1 0x1F NOT PUSH1 0x1F DUP3 ADD AND DUP3 ADD DUP1 PUSH1 0x40 MSTORE POP DUP2 ADD SWAP1 PUSH2 0x794 SWAP2 SWAP1 PUSH2 0x1A3A JUMP JUMPDEST PUSH2 0x79E SWAP2 SWAP1 PUSH2 0x1B95 JUMP JUMPDEST SWAP4 POP DUP3 PUSH2 0x7AE PUSH1 0x20 DUP9 ADD DUP9 PUSH2 0x191C JUMP JUMPDEST PUSH1 0x1 PUSH1 0x1 PUSH1 0xA0 SHL SUB AND PUSH4 0x7BD2BEA7 PUSH1 0x40 MLOAD DUP2 PUSH4 0xFFFFFFFF AND PUSH1 0xE0 SHL DUP2 MSTORE PUSH1 0x4 ADD PUSH1 0x20 PUSH1 0x40 MLOAD DUP1 DUP4 SUB DUP2 DUP7 GAS STATICCALL ISZERO DUP1 ISZERO PUSH2 0x7EB JUMPI RETURNDATASIZE PUSH1 0x0 DUP1 RETURNDATACOPY RETURNDATASIZE PUSH1 0x0 REVERT JUMPDEST POP POP POP POP PUSH1 0x40 MLOAD RETURNDATASIZE PUSH1 0x1F NOT PUSH1 0x1F DUP3 ADD AND DUP3 ADD DUP1 PUSH1 0x40 MSTORE POP DUP2 ADD SWAP1 PUSH2 0x80F SWAP2 SWAP1 PUSH2 0x1A53 JUMP JUMPDEST PUSH1 0x40 MLOAD PUSH4 0x70A08231 PUSH1 0xE0 SHL DUP2 MSTORE ADDRESS PUSH1 0x4 DUP3 ADD MSTORE PUSH1 0x1 PUSH1 0x1 PUSH1 0xA0 SHL SUB SWAP2 SWAP1 SWAP2 AND SWAP1 PUSH4 0x70A08231 SWAP1 PUSH1 0x24 ADD PUSH1 0x20 PUSH1 0x40 MLOAD DUP1 DUP4 SUB DUP2 DUP7 GAS STATICCALL ISZERO DUP1 ISZERO PUSH2 0x855 JUMPI RETURNDATASIZE PUSH1 0x0 DUP1 RETURNDATACOPY RETURNDATASIZE PUSH1 0x0 REVERT JUMPDEST POP POP POP POP PUSH1 0x40 MLOAD RETURNDATASIZE PUSH1 0x1F NOT PUSH1 0x1F DUP3 ADD AND DUP3 ADD DUP1 PUSH1 0x40 MSTORE POP DUP2 ADD SWAP1 PUSH2 0x879 SWAP2 SWAP1 PUSH2 0x1A3A JUMP JUMPDEST PUSH2 0x883 SWAP2 SWAP1 PUSH2 0x1B95 JUMP JUMPDEST SWAP3 POP PUSH2 0x899 PUSH1 0x1 PUSH1 0x1 PUSH1 0xA0 SHL SUB DUP12 AND DUP13 DUP7 PUSH2 0x147F JUMP JUMPDEST PUSH1 0x1 PUSH1 0x1 PUSH1 0xA0 SHL SUB DUP9 AND PUSH4 0xDC4D20FA PUSH2 0x8B8 PUSH1 0x80 DUP10 ADD PUSH1 0x60 DUP11 ADD PUSH2 0x191C JUMP JUMPDEST PUSH1 0x40 MLOAD PUSH1 0x1 PUSH1 0x1 PUSH1 0xE0 SHL SUB NOT PUSH1 0xE0 DUP5 SWAP1 SHL AND DUP2 MSTORE PUSH1 0x1 PUSH1 0x1 PUSH1 0xA0 SHL SUB SWAP1 SWAP2 AND PUSH1 0x4 DUP3 ADD MSTORE PUSH1 0x24 ADD PUSH1 0x0 PUSH1 0x40 MLOAD DUP1 DUP4 SUB DUP2 PUSH1 0x0 DUP8 DUP1 EXTCODESIZE ISZERO DUP1 ISZERO PUSH2 0x8F9 JUMPI PUSH1 0x0 DUP1 REVERT JUMPDEST POP GAS CALL ISZERO DUP1 ISZERO PUSH2 0x90D JUMPI RETURNDATASIZE PUSH1 0x0 DUP1 RETURNDATACOPY RETURNDATASIZE PUSH1 0x0 REVERT JUMPDEST POP POP POP POP PUSH1 0x1 PUSH1 0x1 PUSH1 0xA0 SHL SUB DUP8 AND ISZERO PUSH2 0xB50 JUMPI PUSH2 0x9A3 DUP8 DUP5 PUSH2 0x932 PUSH1 0x20 DUP11 ADD DUP11 PUSH2 0x191C JUMP JUMPDEST PUSH1 0x1 PUSH1 0x1 PUSH1 0xA0 SHL SUB AND PUSH4 0x7BD2BEA7 PUSH1 0x40 MLOAD DUP2 PUSH4 0xFFFFFFFF AND PUSH1 0xE0 SHL DUP2 MSTORE PUSH1 0x4 ADD PUSH1 0x20 PUSH1 0x40 MLOAD DUP1 DUP4 SUB DUP2 DUP7 GAS STATICCALL ISZERO DUP1 ISZERO PUSH2 0x96F JUMPI RETURNDATASIZE PUSH1 0x0 DUP1 RETURNDATACOPY RETURNDATASIZE PUSH1 0x0 REVERT JUMPDEST POP POP POP POP PUSH1 0x40 MLOAD RETURNDATASIZE PUSH1 0x1F NOT PUSH1 0x1F DUP3 ADD AND DUP3 ADD DUP1 PUSH1 0x40 MSTORE POP DUP2 ADD SWAP1 PUSH2 0x993 SWAP2 SWAP1 PUSH2 0x1A53 JUMP JUMPDEST PUSH1 0x1 PUSH1 0x1 PUSH1 0xA0 SHL SUB AND SWAP2 SWAP1 PUSH2 0x147F JUMP JUMPDEST PUSH1 0x40 MLOAD PUSH4 0x3795DC35 PUSH1 0xE1 SHL DUP2 MSTORE PUSH1 0x1 PUSH1 0x1 PUSH1 0xA0 SHL SUB DUP9 AND SWAP1 PUSH4 0x6F2BB86A SWAP1 PUSH2 0x9D1 SWAP1 DUP15 SWAP1 DUP8 SWAP1 PUSH1 0x4 ADD PUSH2 0x1A9E JUMP JUMPDEST PUSH1 0x0 PUSH1 0x40 MLOAD DUP1 DUP4 SUB DUP2 PUSH1 0x0 DUP8 DUP1 EXTCODESIZE ISZERO DUP1 ISZERO PUSH2 0x9EB JUMPI PUSH1 0x0 DUP1 REVERT JUMPDEST POP GAS CALL ISZERO DUP1 ISZERO PUSH2 0x9FF JUMPI RETURNDATASIZE PUSH1 0x0 DUP1 RETURNDATACOPY RETURNDATASIZE PUSH1 0x0 REVERT JUMPDEST POP POP POP POP DUP5 PUSH1 0x0 EQ PUSH2 0xB4B JUMPI PUSH1 0x40 MLOAD PUSH4 0x3088DF17 PUSH1 0xE1 SHL DUP2 MSTORE PUSH1 0x20 DUP8 ADD CALLDATALOAD PUSH1 0x4 DUP3 ADD MSTORE PUSH1 0x1 PUSH1 0x1 PUSH1 0xA0 SHL SUB DUP3 DUP2 AND PUSH1 0x24 DUP4 ADD MSTORE ADDRESS PUSH1 0x44 DUP4 ADD MSTORE PUSH1 0x64 DUP3 ADD DUP8 SWAP1 MSTORE DUP10 AND SWAP1 PUSH4 0x6111BE2E SWAP1 PUSH1 0x84 ADD PUSH1 0x0 PUSH1 0x40 MLOAD DUP1 DUP4 SUB DUP2 PUSH1 0x0 DUP8 DUP1 EXTCODESIZE ISZERO DUP1 ISZERO PUSH2 0xA65 JUMPI PUSH1 0x0 DUP1 REVERT JUMPDEST POP GAS CALL ISZERO DUP1 ISZERO PUSH2 0xA79 JUMPI RETURNDATASIZE PUSH1 0x0 DUP1 RETURNDATACOPY RETURNDATASIZE PUSH1 0x0 REVERT JUMPDEST POP PUSH2 0xA8B SWAP3 POP POP POP PUSH1 0x20 DUP8 ADD DUP8 PUSH2 0x191C JUMP JUMPDEST PUSH1 0x1 PUSH1 0x1 PUSH1 0xA0 SHL SUB AND PUSH4 0xEF693BED DUP9 DUP8 PUSH1 0x40 MLOAD DUP4 PUSH4 0xFFFFFFFF AND PUSH1 0xE0 SHL DUP2 MSTORE PUSH1 0x4 ADD PUSH2 0xAB8 SWAP3 SWAP2 SWAP1 PUSH2 0x1A9E JUMP JUMPDEST PUSH1 0x0 PUSH1 0x40 MLOAD DUP1 DUP4 SUB DUP2 PUSH1 0x0 DUP8 DUP1 EXTCODESIZE ISZERO DUP1 ISZERO PUSH2 0xAD2 JUMPI PUSH1 0x0 DUP1 REVERT JUMPDEST POP GAS CALL ISZERO DUP1 ISZERO PUSH2 0xAE6 JUMPI RETURNDATASIZE PUSH1 0x0 DUP1 RETURNDATACOPY RETURNDATASIZE PUSH1 0x0 REVERT JUMPDEST POP POP PUSH1 0x40 MLOAD PUSH4 0x3795DC35 PUSH1 0xE1 SHL DUP2 MSTORE PUSH1 0x1 PUSH1 0x1 PUSH1 0xA0 SHL SUB DUP11 AND SWAP3 POP PUSH4 0x6F2BB86A SWAP2 POP PUSH2 0xB18 SWAP1 DUP5 SWAP1 DUP10 SWAP1 PUSH1 0x4 ADD PUSH2 0x1A9E JUMP JUMPDEST PUSH1 0x0 PUSH1 0x40 MLOAD DUP1 DUP4 SUB DUP2 PUSH1 0x0 DUP8 DUP1 EXTCODESIZE ISZERO DUP1 ISZERO PUSH2 0xB32 JUMPI PUSH1 0x0 DUP1 REVERT JUMPDEST POP GAS CALL ISZERO DUP1 ISZERO PUSH2 0xB46 JUMPI RETURNDATASIZE PUSH1 0x0 DUP1 RETURNDATACOPY RETURNDATASIZE PUSH1 0x0 REVERT JUMPDEST POP POP POP POP JUMPDEST PUSH2 0xB62 JUMP JUMPDEST PUSH2 0xB62 DUP12 DUP5 PUSH2 0x932 PUSH1 0x20 DUP11 ADD DUP11 PUSH2 0x191C JUMP JUMPDEST POP POP POP POP SWAP10 SWAP9 POP POP POP POP POP POP POP POP POP JUMP JUMPDEST PUSH1 0x0 DUP1 PUSH2 0xB86 PUSH1 0x80 DUP5 ADD PUSH1 0x60 DUP6 ADD PUSH2 0x191C JUMP JUMPDEST SWAP1 POP DUP1 PUSH1 0x1 PUSH1 0x1 PUSH1 0xA0 SHL SUB AND PUSH4 0xCBB5862 PUSH1 0x40 MLOAD DUP2 PUSH4 0xFFFFFFFF AND PUSH1 0xE0 SHL DUP2 MSTORE PUSH1 0x4 ADD PUSH1 0x0 PUSH1 0x40 MLOAD DUP1 DUP4 SUB DUP2 PUSH1 0x0 DUP8 DUP1 EXTCODESIZE ISZERO DUP1 ISZERO PUSH2 0xBC3 JUMPI PUSH1 0x0 DUP1 REVERT JUMPDEST POP GAS CALL ISZERO DUP1 ISZERO PUSH2 0xBD7 JUMPI RETURNDATASIZE PUSH1 0x0 DUP1 RETURNDATACOPY RETURNDATASIZE PUSH1 0x0 REVERT JUMPDEST POP POP PUSH1 0x40 MLOAD PUSH4 0x70A08231 PUSH1 0xE0 SHL DUP2 MSTORE ADDRESS PUSH1 0x4 DUP3 ADD MSTORE PUSH1 0x0 SWAP3 POP PUSH1 0x1 PUSH1 0x1 PUSH1 0xA0 SHL SUB DUP12 AND SWAP2 POP PUSH4 0x70A08231 SWAP1 PUSH1 0x24 ADD PUSH1 0x20 PUSH1 0x40 MLOAD DUP1 DUP4 SUB DUP2 DUP7 GAS STATICCALL ISZERO DUP1 ISZERO PUSH2 0xC22 JUMPI RETURNDATASIZE PUSH1 0x0 DUP1 RETURNDATACOPY RETURNDATASIZE PUSH1 0x0 REVERT JUMPDEST POP POP POP POP PUSH1 0x40 MLOAD RETURNDATASIZE PUSH1 0x1F NOT PUSH1 0x1F DUP3 ADD AND DUP3 ADD DUP1 PUSH1 0x40 MSTORE POP DUP2 ADD SWAP1 PUSH2 0xC46 SWAP2 SWAP1 PUSH2 0x1A3A JUMP JUMPDEST PUSH1 0x40 MLOAD PUSH4 0x1DB33121 PUSH1 0xE3 SHL DUP2 MSTORE PUSH1 0x20 DUP7 ADD CALLDATALOAD PUSH1 0x4 DUP3 ADD MSTORE PUSH1 0x1 PUSH1 0x1 PUSH1 0xA0 SHL SUB DUP14 DUP2 AND PUSH1 0x24 DUP4 ADD MSTORE ADDRESS PUSH1 0x44 DUP4 ADD MSTORE SWAP2 SWAP3 POP SWAP1 DUP8 AND SWAP1 PUSH4 0xED998908 SWAP1 PUSH1 0x64 ADD PUSH1 0x20 PUSH1 0x40 MLOAD DUP1 DUP4 SUB DUP2 PUSH1 0x0 DUP8 GAS CALL ISZERO DUP1 ISZERO PUSH2 0xCA2 JUMPI RETURNDATASIZE PUSH1 0x0 DUP1 RETURNDATACOPY RETURNDATASIZE PUSH1 0x0 REVERT JUMPDEST POP POP POP POP PUSH1 0x40 MLOAD RETURNDATASIZE PUSH1 0x1F NOT PUSH1 0x1F DUP3 ADD AND DUP3 ADD DUP1 PUSH1 0x40 MSTORE POP DUP2 ADD SWAP1 PUSH2 0xCC6 SWAP2 SWAP1 PUSH2 0x1A3A JUMP JUMPDEST PUSH1 0x40 MLOAD PUSH4 0x85FD5CD7 PUSH1 0xE0 SHL DUP2 MSTORE ADDRESS PUSH1 0x4 DUP3 ADD DUP2 SWAP1 MSTORE SWAP2 SWAP5 POP PUSH1 0x1 PUSH1 0x1 PUSH1 0xA0 SHL SUB DUP1 DUP12 AND SWAP3 PUSH4 0xEF693BED SWAP3 SWAP1 SWAP2 PUSH12 0x33B2E3C9FD0803CE8000000 SWAP2 SWAP1 DUP13 AND SWAP1 PUSH4 0x85FD5CD7 SWAP1 PUSH1 0x24 ADD PUSH1 0x20 PUSH1 0x40 MLOAD DUP1 DUP4 SUB DUP2 DUP7 GAS STATICCALL ISZERO DUP1 ISZERO PUSH2 0xD2A JUMPI RETURNDATASIZE PUSH1 0x0 DUP1 RETURNDATACOPY RETURNDATASIZE PUSH1 0x0 REVERT JUMPDEST POP POP POP POP PUSH1 0x40 MLOAD RETURNDATASIZE PUSH1 0x1F NOT PUSH1 0x1F DUP3 ADD AND DUP3 ADD DUP1 PUSH1 0x40 MSTORE POP DUP2 ADD SWAP1 PUSH2 0xD4E SWAP2 SWAP1 PUSH2 0x1A3A JUMP JUMPDEST PUSH2 0xD58 SWAP2 SWAP1 PUSH2 0x1BC2 JUMP JUMPDEST PUSH1 0x40 MLOAD DUP4 PUSH4 0xFFFFFFFF AND PUSH1 0xE0 SHL DUP2 MSTORE PUSH1 0x4 ADD PUSH2 0xD75 SWAP3 SWAP2 SWAP1 PUSH2 0x1A9E JUMP JUMPDEST PUSH1 0x0 PUSH1 0x40 MLOAD DUP1 DUP4 SUB DUP2 PUSH1 0x0 DUP8 DUP1 EXTCODESIZE ISZERO DUP1 ISZERO PUSH2 0xD8F JUMPI PUSH1 0x0 DUP1 REVERT JUMPDEST POP GAS CALL ISZERO DUP1 ISZERO PUSH2 0xDA3 JUMPI RETURNDATASIZE PUSH1 0x0 DUP1 RETURNDATACOPY RETURNDATASIZE PUSH1 0x0 REVERT JUMPDEST POP POP PUSH1 0x40 MLOAD PUSH4 0x70A08231 PUSH1 0xE0 SHL DUP2 MSTORE ADDRESS PUSH1 0x4 DUP3 ADD MSTORE DUP4 SWAP3 POP PUSH1 0x1 PUSH1 0x1 PUSH1 0xA0 SHL SUB DUP13 AND SWAP2 POP PUSH4 0x70A08231 SWAP1 PUSH1 0x24 ADD PUSH1 0x20 PUSH1 0x40 MLOAD DUP1 DUP4 SUB DUP2 DUP7 GAS STATICCALL ISZERO DUP1 ISZERO PUSH2 0xDED JUMPI RETURNDATASIZE PUSH1 0x0 DUP1 RETURNDATACOPY RETURNDATASIZE PUSH1 0x0 REVERT JUMPDEST POP POP POP POP PUSH1 0x40 MLOAD RETURNDATASIZE PUSH1 0x1F NOT PUSH1 0x1F DUP3 ADD AND DUP3 ADD DUP1 PUSH1 0x40 MSTORE POP DUP2 ADD SWAP1 PUSH2 0xE11 SWAP2 SWAP1 PUSH2 0x1A3A JUMP JUMPDEST PUSH2 0xE1B SWAP2 SWAP1 PUSH2 0x1B95 JUMP JUMPDEST SWAP1 POP PUSH2 0xE31 PUSH1 0x1 PUSH1 0x1 PUSH1 0xA0 SHL SUB DUP11 AND DUP12 DUP4 PUSH2 0x147F JUMP JUMPDEST PUSH1 0x1 PUSH1 0x1 PUSH1 0xA0 SHL SUB DUP6 AND ISZERO PUSH2 0xF13 JUMPI DUP5 PUSH1 0x1 PUSH1 0x1 PUSH1 0xA0 SHL SUB AND PUSH4 0xDF3D23AE DUP13 DUP5 PUSH1 0x1 PUSH1 0x1 PUSH1 0xA0 SHL SUB AND PUSH4 0xB5F522F7 DUP8 PUSH1 0x40 MLOAD DUP3 PUSH4 0xFFFFFFFF AND PUSH1 0xE0 SHL DUP2 MSTORE PUSH1 0x4 ADD PUSH2 0xE7E SWAP2 DUP2 MSTORE PUSH1 0x20 ADD SWAP1 JUMP JUMPDEST PUSH1 0xC0 PUSH1 0x40 MLOAD DUP1 DUP4 SUB DUP2 DUP7 GAS STATICCALL ISZERO DUP1 ISZERO PUSH2 0xE9B JUMPI RETURNDATASIZE PUSH1 0x0 DUP1 RETURNDATACOPY RETURNDATASIZE PUSH1 0x0 REVERT JUMPDEST POP POP POP POP PUSH1 0x40 MLOAD RETURNDATASIZE PUSH1 0x1F NOT PUSH1 0x1F DUP3 ADD AND DUP3 ADD DUP1 PUSH1 0x40 MSTORE POP DUP2 ADD SWAP1 PUSH2 0xEBF SWAP2 SWAP1 PUSH2 0x1AFE JUMP JUMPDEST PUSH1 0x40 ADD MLOAD PUSH1 0x40 MLOAD DUP4 PUSH4 0xFFFFFFFF AND PUSH1 0xE0 SHL DUP2 MSTORE PUSH1 0x4 ADD PUSH2 0xEE0 SWAP3 SWAP2 SWAP1 PUSH2 0x1A9E JUMP JUMPDEST PUSH1 0x0 PUSH1 0x40 MLOAD DUP1 DUP4 SUB DUP2 PUSH1 0x0 DUP8 DUP1 EXTCODESIZE ISZERO DUP1 ISZERO PUSH2 0xEFA JUMPI PUSH1 0x0 DUP1 REVERT JUMPDEST POP GAS CALL ISZERO DUP1 ISZERO PUSH2 0xF0E JUMPI RETURNDATASIZE PUSH1 0x0 DUP1 RETURNDATACOPY RETURNDATASIZE PUSH1 0x0 REVERT JUMPDEST POP POP POP POP JUMPDEST POP POP SWAP9 SWAP8 POP POP POP POP POP POP POP POP JUMP JUMPDEST PUSH1 0x60 PUSH1 0x0 DUP3 PUSH1 0x1 PUSH1 0x1 PUSH1 0xA0 SHL SUB AND PUSH4 0xF560CD7 PUSH1 0x40 MLOAD DUP2 PUSH4 0xFFFFFFFF AND PUSH1 0xE0 SHL DUP2 MSTORE PUSH1 0x4 ADD PUSH1 0x0 PUSH1 0x40 MLOAD DUP1 DUP4 SUB DUP2 DUP7 GAS STATICCALL ISZERO DUP1 ISZERO PUSH2 0xF63 JUMPI RETURNDATASIZE PUSH1 0x0 DUP1 RETURNDATACOPY RETURNDATASIZE PUSH1 0x0 REVERT JUMPDEST POP POP POP POP PUSH1 0x40 MLOAD RETURNDATASIZE PUSH1 0x0 DUP3 RETURNDATACOPY PUSH1 0x1F RETURNDATASIZE SWAP1 DUP2 ADD PUSH1 0x1F NOT AND DUP3 ADD PUSH1 0x40 MSTORE PUSH2 0xF8B SWAP2 SWAP1 DUP2 ADD SWAP1 PUSH2 0x1BE4 JUMP JUMPDEST DUP1 MLOAD SWAP1 SWAP2 POP DUP1 PUSH8 0xFFFFFFFFFFFFFFFF DUP2 GT ISZERO PUSH2 0xFA9 JUMPI PUSH2 0xFA9 PUSH2 0x1AB7 JUMP JUMPDEST PUSH1 0x40 MLOAD SWAP1 DUP1 DUP3 MSTORE DUP1 PUSH1 0x20 MUL PUSH1 0x20 ADD DUP3 ADD PUSH1 0x40 MSTORE DUP1 ISZERO PUSH2 0x1025 JUMPI DUP2 PUSH1 0x20 ADD JUMPDEST PUSH2 0x1012 PUSH1 0x40 MLOAD DUP1 PUSH1 0xC0 ADD PUSH1 0x40 MSTORE DUP1 PUSH1 0x0 DUP2 MSTORE PUSH1 0x20 ADD PUSH1 0x0 DUP2 MSTORE PUSH1 0x20 ADD PUSH1 0x0 DUP2 MSTORE PUSH1 0x20 ADD PUSH1 0x0 PUSH1 0x1 PUSH1 0x1 PUSH1 0xA0 SHL SUB AND DUP2 MSTORE PUSH1 0x20 ADD PUSH1 0x0 PUSH1 0x1 PUSH1 0x1 PUSH1 0x60 SHL SUB AND DUP2 MSTORE PUSH1 0x20 ADD PUSH1 0x0 DUP2 MSTORE POP SWAP1 JUMP JUMPDEST DUP2 MSTORE PUSH1 0x20 ADD SWAP1 PUSH1 0x1 SWAP1 SUB SWAP1 DUP2 PUSH2 0xFC7 JUMPI SWAP1 POP JUMPDEST POP SWAP3 POP PUSH1 0x0 JUMPDEST DUP2 DUP2 LT ISZERO PUSH2 0x10EB JUMPI DUP5 PUSH1 0x1 PUSH1 0x1 PUSH1 0xA0 SHL SUB AND PUSH4 0xB5F522F7 DUP5 DUP4 DUP2 MLOAD DUP2 LT PUSH2 0x1054 JUMPI PUSH2 0x1054 PUSH2 0x1C8A JUMP JUMPDEST PUSH1 0x20 MUL PUSH1 0x20 ADD ADD MLOAD PUSH1 0x40 MLOAD DUP3 PUSH4 0xFFFFFFFF AND PUSH1 0xE0 SHL DUP2 MSTORE PUSH1 0x4 ADD PUSH2 0x107A SWAP2 DUP2 MSTORE PUSH1 0x20 ADD SWAP1 JUMP JUMPDEST PUSH1 0xC0 PUSH1 0x40 MLOAD DUP1 DUP4 SUB DUP2 DUP7 GAS STATICCALL ISZERO DUP1 ISZERO PUSH2 0x1097 JUMPI RETURNDATASIZE PUSH1 0x0 DUP1 RETURNDATACOPY RETURNDATASIZE PUSH1 0x0 REVERT JUMPDEST POP POP POP POP PUSH1 0x40 MLOAD RETURNDATASIZE PUSH1 0x1F NOT PUSH1 0x1F DUP3 ADD AND DUP3 ADD DUP1 PUSH1 0x40 MSTORE POP DUP2 ADD SWAP1 PUSH2 0x10BB SWAP2 SWAP1 PUSH2 0x1AFE JUMP JUMPDEST DUP5 DUP3 DUP2 MLOAD DUP2 LT PUSH2 0x10CD JUMPI PUSH2 0x10CD PUSH2 0x1C8A JUMP JUMPDEST PUSH1 0x20 MUL PUSH1 0x20 ADD ADD DUP2 SWAP1 MSTORE POP DUP1 DUP1 PUSH2 0x10E3 SWAP1 PUSH2 0x1CA0 JUMP JUMPDEST SWAP2 POP POP PUSH2 0x102B JUMP JUMPDEST POP POP POP SWAP2 SWAP1 POP JUMP JUMPDEST PUSH1 0x0 PUSH2 0x1105 PUSH1 0x80 DUP4 ADD PUSH1 0x60 DUP5 ADD PUSH2 0x191C JUMP JUMPDEST PUSH1 0x40 MLOAD PUSH4 0x70A08231 PUSH1 0xE0 SHL DUP2 MSTORE ADDRESS PUSH1 0x4 DUP3 ADD MSTORE SWAP1 SWAP2 POP PUSH1 0x0 SWAP1 PUSH1 0x1 PUSH1 0x1 PUSH1 0xA0 SHL SUB DUP8 AND SWAP1 PUSH4 0x70A08231 SWAP1 PUSH1 0x24 ADD PUSH1 0x20 PUSH1 0x40 MLOAD DUP1 DUP4 SUB DUP2 DUP7 GAS STATICCALL ISZERO DUP1 ISZERO PUSH2 0x114F JUMPI RETURNDATASIZE PUSH1 0x0 DUP1 RETURNDATACOPY RETURNDATASIZE PUSH1 0x0 REVERT JUMPDEST POP POP POP POP PUSH1 0x40 MLOAD RETURNDATASIZE PUSH1 0x1F NOT PUSH1 0x1F DUP3 ADD AND DUP3 ADD DUP1 PUSH1 0x40 MSTORE POP DUP2 ADD SWAP1 PUSH2 0x1173 SWAP2 SWAP1 PUSH2 0x1A3A JUMP JUMPDEST PUSH1 0x40 MLOAD PUSH4 0xD843416D PUSH1 0xE0 SHL DUP2 MSTORE PUSH1 0x4 DUP2 ADD DUP11 SWAP1 MSTORE ADDRESS PUSH1 0x24 DUP3 ADD MSTORE SWAP1 SWAP2 POP PUSH1 0x1 PUSH1 0x1 PUSH1 0xA0 SHL SUB DUP4 AND SWAP1 PUSH4 0xD843416D SWAP1 PUSH1 0x44 ADD PUSH1 0x0 PUSH1 0x40 MLOAD DUP1 DUP4 SUB DUP2 PUSH1 0x0 DUP8 DUP1 EXTCODESIZE ISZERO DUP1 ISZERO PUSH2 0x11BE JUMPI PUSH1 0x0 DUP1 REVERT JUMPDEST POP GAS CALL ISZERO DUP1 ISZERO PUSH2 0x11D2 JUMPI RETURNDATASIZE PUSH1 0x0 DUP1 RETURNDATACOPY RETURNDATASIZE PUSH1 0x0 REVERT JUMPDEST POP POP PUSH1 0x40 MLOAD PUSH4 0x85FD5CD7 PUSH1 0xE0 SHL DUP2 MSTORE ADDRESS PUSH1 0x4 DUP3 ADD DUP2 SWAP1 MSTORE PUSH1 0x1 PUSH1 0x1 PUSH1 0xA0 SHL SUB DUP1 DUP11 AND SWAP5 POP PUSH4 0xEF693BED SWAP4 POP SWAP1 SWAP2 PUSH12 0x33B2E3C9FD0803CE8000000 SWAP2 DUP10 AND SWAP1 PUSH4 0x85FD5CD7 SWAP1 PUSH1 0x24 ADD PUSH1 0x20 PUSH1 0x40 MLOAD DUP1 DUP4 SUB DUP2 DUP7 GAS STATICCALL ISZERO DUP1 ISZERO PUSH2 0x1236 JUMPI RETURNDATASIZE PUSH1 0x0 DUP1 RETURNDATACOPY RETURNDATASIZE PUSH1 0x0 REVERT JUMPDEST POP POP POP POP PUSH1 0x40 MLOAD RETURNDATASIZE PUSH1 0x1F NOT PUSH1 0x1F DUP3 ADD AND DUP3 ADD DUP1 PUSH1 0x40 MSTORE POP DUP2 ADD SWAP1 PUSH2 0x125A SWAP2 SWAP1 PUSH2 0x1A3A JUMP JUMPDEST PUSH2 0x1264 SWAP2 SWAP1 PUSH2 0x1BC2 JUMP JUMPDEST PUSH1 0x40 MLOAD DUP4 PUSH4 0xFFFFFFFF AND PUSH1 0xE0 SHL DUP2 MSTORE PUSH1 0x4 ADD PUSH2 0x1281 SWAP3 SWAP2 SWAP1 PUSH2 0x1A9E JUMP JUMPDEST PUSH1 0x0 PUSH1 0x40 MLOAD DUP1 DUP4 SUB DUP2 PUSH1 0x0 DUP8 DUP1 EXTCODESIZE ISZERO DUP1 ISZERO PUSH2 0x129B JUMPI PUSH1 0x0 DUP1 REVERT JUMPDEST POP GAS CALL ISZERO DUP1 ISZERO PUSH2 0x12AF JUMPI RETURNDATASIZE PUSH1 0x0 DUP1 RETURNDATACOPY RETURNDATASIZE PUSH1 0x0 REVERT JUMPDEST POP POP PUSH1 0x40 MLOAD PUSH4 0x70A08231 PUSH1 0xE0 SHL DUP2 MSTORE ADDRESS PUSH1 0x4 DUP3 ADD MSTORE DUP4 SWAP3 POP PUSH1 0x1 PUSH1 0x1 PUSH1 0xA0 SHL SUB DUP10 AND SWAP2 POP PUSH4 0x70A08231 SWAP1 PUSH1 0x24 ADD PUSH1 0x20 PUSH1 0x40 MLOAD DUP1 DUP4 SUB DUP2 DUP7 GAS STATICCALL ISZERO DUP1 ISZERO PUSH2 0x12F9 JUMPI RETURNDATASIZE PUSH1 0x0 DUP1 RETURNDATACOPY RETURNDATASIZE PUSH1 0x0 REVERT JUMPDEST POP POP POP POP PUSH1 0x40 MLOAD RETURNDATASIZE PUSH1 0x1F NOT PUSH1 0x1F DUP3 ADD AND DUP3 ADD DUP1 PUSH1 0x40 MSTORE POP DUP2 ADD SWAP1 PUSH2 0x131D SWAP2 SWAP1 PUSH2 0x1A3A JUMP JUMPDEST PUSH2 0x1327 SWAP2 SWAP1 PUSH2 0x1B95 JUMP JUMPDEST SWAP1 POP PUSH2 0x133D PUSH1 0x1 PUSH1 0x1 PUSH1 0xA0 SHL SUB DUP8 AND DUP9 DUP4 PUSH2 0x147F JUMP JUMPDEST POP POP POP POP POP POP POP POP JUMP JUMPDEST PUSH1 0x0 DUP1 PUSH1 0x0 PUSH2 0x1356 DUP7 DUP7 PUSH2 0x14A3 JUMP JUMPDEST SWAP2 POP SWAP2 POP PUSH1 0x0 DUP5 DUP1 PUSH2 0x136A JUMPI PUSH2 0x136A PUSH2 0x1BAC JUMP JUMPDEST DUP7 DUP9 MULMOD SWAP1 POP DUP3 DUP2 GT ISZERO PUSH2 0x137E JUMPI PUSH1 0x1 DUP3 SUB SWAP2 POP JUMPDEST SWAP2 DUP3 SWAP1 SUB SWAP2 DUP2 PUSH2 0x13A2 JUMPI DUP5 DUP4 DUP2 PUSH2 0x1397 JUMPI PUSH2 0x1397 PUSH2 0x1BAC JUMP JUMPDEST DIV SWAP4 POP POP POP POP PUSH2 0x1407 JUMP JUMPDEST DUP5 DUP3 LT PUSH2 0x13F6 JUMPI PUSH1 0x40 MLOAD PUSH3 0x461BCD PUSH1 0xE5 SHL DUP2 MSTORE PUSH1 0x20 PUSH1 0x4 DUP3 ADD MSTORE PUSH1 0x1A PUSH1 0x24 DUP3 ADD MSTORE PUSH32 0x46756C6C4D6174683A2046554C4C4449565F4F564552464C4F57000000000000 PUSH1 0x44 DUP3 ADD MSTORE PUSH1 0x64 ADD JUMPDEST PUSH1 0x40 MLOAD DUP1 SWAP2 SUB SWAP1 REVERT JUMPDEST PUSH2 0x1401 DUP4 DUP4 DUP8 PUSH2 0x14D0 JUMP JUMPDEST SWAP4 POP POP POP POP JUMPDEST SWAP4 SWAP3 POP POP POP JUMP JUMPDEST PUSH1 0x40 MLOAD PUSH1 0x1 PUSH1 0x1 PUSH1 0xA0 SHL SUB DUP1 DUP6 AND PUSH1 0x24 DUP4 ADD MSTORE DUP4 AND PUSH1 0x44 DUP3 ADD MSTORE PUSH1 0x64 DUP2 ADD DUP3 SWAP1 MSTORE PUSH2 0x1479 SWAP1 DUP6 SWAP1 PUSH4 0x23B872DD PUSH1 0xE0 SHL SWAP1 PUSH1 0x84 ADD JUMPDEST PUSH1 0x40 DUP1 MLOAD PUSH1 0x1F NOT DUP2 DUP5 SUB ADD DUP2 MSTORE SWAP2 SWAP1 MSTORE PUSH1 0x20 DUP2 ADD DUP1 MLOAD PUSH1 0x1 PUSH1 0x1 PUSH1 0xE0 SHL SUB AND PUSH1 0x1 PUSH1 0x1 PUSH1 0xE0 SHL SUB NOT SWAP1 SWAP4 AND SWAP3 SWAP1 SWAP3 OR SWAP1 SWAP2 MSTORE PUSH2 0x1555 JUMP JUMPDEST POP POP POP POP JUMP JUMPDEST PUSH2 0x149E DUP4 PUSH4 0xA9059CBB PUSH1 0xE0 SHL DUP5 DUP5 PUSH1 0x40 MLOAD PUSH1 0x24 ADD PUSH2 0x1442 SWAP3 SWAP2 SWAP1 PUSH2 0x1A9E JUMP JUMPDEST POP POP POP JUMP JUMPDEST PUSH1 0x0 DUP1 DUP1 PUSH1 0x0 NOT DUP5 DUP7 MULMOD SWAP1 POP DUP4 DUP6 MUL SWAP3 POP DUP3 DUP2 SUB SWAP2 POP DUP3 DUP2 LT ISZERO PUSH2 0x14C8 JUMPI PUSH1 0x1 DUP3 SUB SWAP2 POP JUMPDEST POP SWAP3 POP SWAP3 SWAP1 POP JUMP JUMPDEST PUSH1 0x0 PUSH1 0x1 DUP3 NOT ADD DUP3 AND DUP1 DUP4 DUP2 PUSH2 0x14E8 JUMPI PUSH2 0x14E8 PUSH2 0x1BAC JUMP JUMPDEST DIV SWAP3 POP DUP1 DUP6 DUP2 PUSH2 0x14FA JUMPI PUSH2 0x14FA PUSH2 0x1BAC JUMP JUMPDEST DIV SWAP5 POP DUP1 DUP2 NOT PUSH1 0x1 ADD DUP2 PUSH2 0x1510 JUMPI PUSH2 0x1510 PUSH2 0x1BAC JUMP JUMPDEST PUSH1 0x2 DUP6 DUP2 SUB DUP1 DUP8 MUL DUP3 SUB MUL DUP1 DUP8 MUL DUP3 SUB MUL DUP1 DUP8 MUL DUP3 SUB MUL DUP1 DUP8 MUL DUP3 SUB MUL DUP1 DUP8 MUL DUP3 SUB MUL DUP1 DUP8 MUL DUP3 SUB MUL SWAP6 DUP7 MUL SWAP1 SUB SWAP1 SWAP5 MUL SWAP4 DIV PUSH1 0x1 ADD SWAP4 SWAP1 SWAP4 MUL SWAP4 SWAP1 SWAP4 ADD MUL SWAP3 SWAP2 POP POP JUMP JUMPDEST PUSH1 0x0 PUSH2 0x15AA DUP3 PUSH1 0x40 MLOAD DUP1 PUSH1 0x40 ADD PUSH1 0x40 MSTORE DUP1 PUSH1 0x20 DUP2 MSTORE PUSH1 0x20 ADD PUSH32 0x5361666545524332303A206C6F772D6C6576656C2063616C6C206661696C6564 DUP2 MSTORE POP DUP6 PUSH1 0x1 PUSH1 0x1 PUSH1 0xA0 SHL SUB AND PUSH2 0x1627 SWAP1 SWAP3 SWAP2 SWAP1 PUSH4 0xFFFFFFFF AND JUMP JUMPDEST DUP1 MLOAD SWAP1 SWAP2 POP ISZERO PUSH2 0x149E JUMPI DUP1 DUP1 PUSH1 0x20 ADD SWAP1 MLOAD DUP2 ADD SWAP1 PUSH2 0x15C8 SWAP2 SWAP1 PUSH2 0x1CBB JUMP JUMPDEST PUSH2 0x149E JUMPI PUSH1 0x40 MLOAD PUSH3 0x461BCD PUSH1 0xE5 SHL DUP2 MSTORE PUSH1 0x20 PUSH1 0x4 DUP3 ADD MSTORE PUSH1 0x2A PUSH1 0x24 DUP3 ADD MSTORE PUSH32 0x5361666545524332303A204552433230206F7065726174696F6E20646964206E PUSH1 0x44 DUP3 ADD MSTORE PUSH10 0x1BDD081CDD58D8D95959 PUSH1 0xB2 SHL PUSH1 0x64 DUP3 ADD MSTORE PUSH1 0x84 ADD PUSH2 0x13ED JUMP JUMPDEST PUSH1 0x60 PUSH2 0x1636 DUP5 DUP5 PUSH1 0x0 DUP6 PUSH2 0x163E JUMP JUMPDEST SWAP5 SWAP4 POP POP POP POP JUMP JUMPDEST PUSH1 0x60 DUP3 SELFBALANCE LT ISZERO PUSH2 0x169F JUMPI PUSH1 0x40 MLOAD PUSH3 0x461BCD PUSH1 0xE5 SHL DUP2 MSTORE PUSH1 0x20 PUSH1 0x4 DUP3 ADD MSTORE PUSH1 0x26 PUSH1 0x24 DUP3 ADD MSTORE PUSH32 0x416464726573733A20696E73756666696369656E742062616C616E636520666F PUSH1 0x44 DUP3 ADD MSTORE PUSH6 0x1C8818D85B1B PUSH1 0xD2 SHL PUSH1 0x64 DUP3 ADD MSTORE PUSH1 0x84 ADD PUSH2 0x13ED JUMP JUMPDEST PUSH1 0x1 PUSH1 0x1 PUSH1 0xA0 SHL SUB DUP6 AND EXTCODESIZE PUSH2 0x16F6 JUMPI PUSH1 0x40 MLOAD PUSH3 0x461BCD PUSH1 0xE5 SHL DUP2 MSTORE PUSH1 0x20 PUSH1 0x4 DUP3 ADD MSTORE PUSH1 0x1D PUSH1 0x24 DUP3 ADD MSTORE PUSH32 0x416464726573733A2063616C6C20746F206E6F6E2D636F6E7472616374000000 PUSH1 0x44 DUP3 ADD MSTORE PUSH1 0x64 ADD PUSH2 0x13ED JUMP JUMPDEST PUSH1 0x0 DUP1 DUP7 PUSH1 0x1 PUSH1 0x1 PUSH1 0xA0 SHL SUB AND DUP6 DUP8 PUSH1 0x40 MLOAD PUSH2 0x1712 SWAP2 SWAP1 PUSH2 0x1D09 JUMP JUMPDEST PUSH1 0x0 PUSH1 0x40 MLOAD DUP1 DUP4 SUB DUP2 DUP6 DUP8 GAS CALL SWAP3 POP POP POP RETURNDATASIZE DUP1 PUSH1 0x0 DUP2 EQ PUSH2 0x174F JUMPI PUSH1 0x40 MLOAD SWAP2 POP PUSH1 0x1F NOT PUSH1 0x3F RETURNDATASIZE ADD AND DUP3 ADD PUSH1 0x40 MSTORE RETURNDATASIZE DUP3 MSTORE RETURNDATASIZE PUSH1 0x0 PUSH1 0x20 DUP5 ADD RETURNDATACOPY PUSH2 0x1754 JUMP JUMPDEST PUSH1 0x60 SWAP2 POP JUMPDEST POP SWAP2 POP SWAP2 POP PUSH2 0x1764 DUP3 DUP3 DUP7 PUSH2 0x176F JUMP JUMPDEST SWAP8 SWAP7 POP POP POP POP POP POP POP JUMP JUMPDEST PUSH1 0x60 DUP4 ISZERO PUSH2 0x177E JUMPI POP DUP2 PUSH2 0x1407 JUMP JUMPDEST DUP3 MLOAD ISZERO PUSH2 0x178E JUMPI DUP3 MLOAD DUP1 DUP5 PUSH1 0x20 ADD REVERT JUMPDEST DUP2 PUSH1 0x40 MLOAD PUSH3 0x461BCD PUSH1 0xE5 SHL DUP2 MSTORE PUSH1 0x4 ADD PUSH2 0x13ED SWAP2 SWAP1 PUSH2 0x1D25 JUMP JUMPDEST PUSH1 0x1 PUSH1 0x1 PUSH1 0xA0 SHL SUB DUP2 AND DUP2 EQ PUSH2 0x17BD JUMPI PUSH1 0x0 DUP1 REVERT JUMPDEST POP JUMP JUMPDEST PUSH1 0x0 PUSH1 0x80 DUP3 DUP5 SUB SLT ISZERO PUSH2 0x17D2 JUMPI PUSH1 0x0 DUP1 REVERT JUMPDEST POP SWAP2 SWAP1 POP JUMP JUMPDEST PUSH1 0x0 DUP1 PUSH1 0x0 DUP1 PUSH1 0x0 DUP1 PUSH1 0x0 DUP1 PUSH1 0x0 PUSH2 0x180 DUP11 DUP13 SUB SLT ISZERO PUSH2 0x17F7 JUMPI PUSH1 0x0 DUP1 REVERT JUMPDEST DUP10 CALLDATALOAD SWAP9 POP PUSH1 0x20 DUP11 ADD CALLDATALOAD SWAP8 POP PUSH1 0x40 DUP11 ADD CALLDATALOAD SWAP7 POP PUSH1 0x60 DUP11 ADD CALLDATALOAD PUSH2 0x1817 DUP2 PUSH2 0x17A8 JUMP JUMPDEST SWAP6 POP PUSH1 0x80 DUP11 ADD CALLDATALOAD PUSH2 0x1827 DUP2 PUSH2 0x17A8 JUMP JUMPDEST SWAP5 POP PUSH1 0xA0 DUP11 ADD CALLDATALOAD PUSH2 0x1837 DUP2 PUSH2 0x17A8 JUMP JUMPDEST SWAP4 POP PUSH1 0xC0 DUP11 ADD CALLDATALOAD PUSH2 0x1847 DUP2 PUSH2 0x17A8 JUMP JUMPDEST SWAP3 POP PUSH1 0xE0 DUP11 ADD CALLDATALOAD PUSH2 0x1857 DUP2 PUSH2 0x17A8 JUMP JUMPDEST SWAP2 POP PUSH2 0x1867 DUP12 PUSH2 0x100 DUP13 ADD PUSH2 0x17C0 JUMP JUMPDEST SWAP1 POP SWAP3 SWAP6 SWAP9 POP SWAP3 SWAP6 SWAP9 POP SWAP3 SWAP6 SWAP9 JUMP JUMPDEST PUSH1 0x0 DUP1 PUSH1 0x0 DUP1 PUSH1 0x0 DUP1 PUSH1 0x0 DUP1 PUSH2 0x160 DUP10 DUP12 SUB SLT ISZERO PUSH2 0x1893 JUMPI PUSH1 0x0 DUP1 REVERT JUMPDEST DUP9 CALLDATALOAD PUSH2 0x189E DUP2 PUSH2 0x17A8 JUMP JUMPDEST SWAP8 POP PUSH1 0x20 DUP10 ADD CALLDATALOAD PUSH2 0x18AE DUP2 PUSH2 0x17A8 JUMP JUMPDEST SWAP7 POP PUSH1 0x40 DUP10 ADD CALLDATALOAD PUSH2 0x18BE DUP2 PUSH2 0x17A8 JUMP JUMPDEST SWAP6 POP PUSH1 0x60 DUP10 ADD CALLDATALOAD PUSH2 0x18CE DUP2 PUSH2 0x17A8 JUMP JUMPDEST SWAP5 POP PUSH1 0x80 DUP10 ADD CALLDATALOAD PUSH2 0x18DE DUP2 PUSH2 0x17A8 JUMP JUMPDEST SWAP4 POP PUSH1 0xA0 DUP10 ADD CALLDATALOAD PUSH2 0x18EE DUP2 PUSH2 0x17A8 JUMP JUMPDEST SWAP3 POP PUSH1 0xC0 DUP10 ADD CALLDATALOAD PUSH2 0x18FE DUP2 PUSH2 0x17A8 JUMP JUMPDEST SWAP2 POP PUSH2 0x190D DUP11 PUSH1 0xE0 DUP12 ADD PUSH2 0x17C0 JUMP JUMPDEST SWAP1 POP SWAP3 SWAP6 SWAP9 POP SWAP3 SWAP6 SWAP9 SWAP1 SWAP4 SWAP7 POP JUMP JUMPDEST PUSH1 0x0 PUSH1 0x20 DUP3 DUP5 SUB SLT ISZERO PUSH2 0x192E JUMPI PUSH1 0x0 DUP1 REVERT JUMPDEST DUP2 CALLDATALOAD PUSH2 0x1407 DUP2 PUSH2 0x17A8 JUMP JUMPDEST PUSH1 0x20 DUP1 DUP3 MSTORE DUP3 MLOAD DUP3 DUP3 ADD DUP2 SWAP1 MSTORE PUSH1 0x0 SWAP2 SWAP1 PUSH1 0x40 SWAP1 DUP2 DUP6 ADD SWAP1 DUP7 DUP5 ADD DUP6 JUMPDEST DUP3 DUP2 LT ISZERO PUSH2 0x19B6 JUMPI DUP2 MLOAD DUP1 MLOAD DUP6 MSTORE DUP7 DUP2 ADD MLOAD DUP8 DUP7 ADD MSTORE DUP6 DUP2 ADD MLOAD DUP7 DUP7 ADD MSTORE PUSH1 0x60 DUP1 DUP3 ADD MLOAD PUSH1 0x1 PUSH1 0x1 PUSH1 0xA0 SHL SUB AND SWAP1 DUP7 ADD MSTORE PUSH1 0x80 DUP1 DUP3 ADD MLOAD PUSH1 0x1 PUSH1 0x1 PUSH1 0x60 SHL SUB AND SWAP1 DUP7 ADD MSTORE PUSH1 0xA0 SWAP1 DUP2 ADD MLOAD SWAP1 DUP6 ADD MSTORE PUSH1 0xC0 SWAP1 SWAP4 ADD SWAP3 SWAP1 DUP6 ADD SWAP1 PUSH1 0x1 ADD PUSH2 0x1956 JUMP JUMPDEST POP SWAP2 SWAP8 SWAP7 POP POP POP POP POP POP POP JUMP JUMPDEST PUSH1 0x0 DUP1 PUSH1 0x0 DUP1 PUSH1 0x0 DUP1 PUSH2 0x120 DUP8 DUP10 SUB SLT ISZERO PUSH2 0x19DD JUMPI PUSH1 0x0 DUP1 REVERT JUMPDEST DUP7 CALLDATALOAD SWAP6 POP PUSH1 0x20 DUP8 ADD CALLDATALOAD PUSH2 0x19EF DUP2 PUSH2 0x17A8 JUMP JUMPDEST SWAP5 POP PUSH1 0x40 DUP8 ADD CALLDATALOAD PUSH2 0x19FF DUP2 PUSH2 0x17A8 JUMP JUMPDEST SWAP4 POP PUSH1 0x60 DUP8 ADD CALLDATALOAD PUSH2 0x1A0F DUP2 PUSH2 0x17A8 JUMP JUMPDEST SWAP3 POP PUSH1 0x80 DUP8 ADD CALLDATALOAD PUSH2 0x1A1F DUP2 PUSH2 0x17A8 JUMP JUMPDEST SWAP2 POP PUSH2 0x1A2E DUP9 PUSH1 0xA0 DUP10 ADD PUSH2 0x17C0 JUMP JUMPDEST SWAP1 POP SWAP3 SWAP6 POP SWAP3 SWAP6 POP SWAP3 SWAP6 JUMP JUMPDEST PUSH1 0x0 PUSH1 0x20 DUP3 DUP5 SUB SLT ISZERO PUSH2 0x1A4C JUMPI PUSH1 0x0 DUP1 REVERT JUMPDEST POP MLOAD SWAP2 SWAP1 POP JUMP JUMPDEST PUSH1 0x0 PUSH1 0x20 DUP3 DUP5 SUB SLT ISZERO PUSH2 0x1A65 JUMPI PUSH1 0x0 DUP1 REVERT JUMPDEST DUP2 MLOAD PUSH2 0x1407 DUP2 PUSH2 0x17A8 JUMP JUMPDEST PUSH4 0x4E487B71 PUSH1 0xE0 SHL PUSH1 0x0 MSTORE PUSH1 0x11 PUSH1 0x4 MSTORE PUSH1 0x24 PUSH1 0x0 REVERT JUMPDEST PUSH1 0x0 DUP3 NOT DUP3 GT ISZERO PUSH2 0x1A99 JUMPI PUSH2 0x1A99 PUSH2 0x1A70 JUMP JUMPDEST POP ADD SWAP1 JUMP JUMPDEST PUSH1 0x1 PUSH1 0x1 PUSH1 0xA0 SHL SUB SWAP3 SWAP1 SWAP3 AND DUP3 MSTORE PUSH1 0x20 DUP3 ADD MSTORE PUSH1 0x40 ADD SWAP1 JUMP JUMPDEST PUSH4 0x4E487B71 PUSH1 0xE0 SHL PUSH1 0x0 MSTORE PUSH1 0x41 PUSH1 0x4 MSTORE PUSH1 0x24 PUSH1 0x0 REVERT JUMPDEST PUSH1 0x40 MLOAD PUSH1 0x1F DUP3 ADD PUSH1 0x1F NOT AND DUP2 ADD PUSH8 0xFFFFFFFFFFFFFFFF DUP2 GT DUP3 DUP3 LT OR ISZERO PUSH2 0x1AF6 JUMPI PUSH2 0x1AF6 PUSH2 0x1AB7 JUMP JUMPDEST PUSH1 0x40 MSTORE SWAP2 SWAP1 POP JUMP JUMPDEST PUSH1 0x0 PUSH1 0xC0 DUP3 DUP5 SUB SLT ISZERO PUSH2 0x1B10 JUMPI PUSH1 0x0 DUP1 REVERT JUMPDEST PUSH1 0x40 MLOAD PUSH1 0xC0 DUP2 ADD DUP2 DUP2 LT PUSH8 0xFFFFFFFFFFFFFFFF DUP3 GT OR ISZERO PUSH2 0x1B33 JUMPI PUSH2 0x1B33 PUSH2 0x1AB7 JUMP JUMPDEST DUP1 PUSH1 0x40 MSTORE POP DUP3 MLOAD DUP2 MSTORE PUSH1 0x20 DUP4 ADD MLOAD PUSH1 0x20 DUP3 ADD MSTORE PUSH1 0x40 DUP4 ADD MLOAD PUSH1 0x40 DUP3 ADD MSTORE PUSH1 0x60 DUP4 ADD MLOAD PUSH2 0x1B5E DUP2 PUSH2 0x17A8 JUMP JUMPDEST PUSH1 0x60 DUP3 ADD MSTORE PUSH1 0x80 DUP4 ADD MLOAD PUSH1 0x1 PUSH1 0x1 PUSH1 0x60 SHL SUB DUP2 AND DUP2 EQ PUSH2 0x1B7D JUMPI PUSH1 0x0 DUP1 REVERT JUMPDEST PUSH1 0x80 DUP3 ADD MSTORE PUSH1 0xA0 SWAP3 DUP4 ADD MLOAD SWAP3 DUP2 ADD SWAP3 SWAP1 SWAP3 MSTORE POP SWAP2 SWAP1 POP JUMP JUMPDEST PUSH1 0x0 DUP3 DUP3 LT ISZERO PUSH2 0x1BA7 JUMPI PUSH2 0x1BA7 PUSH2 0x1A70 JUMP JUMPDEST POP SUB SWAP1 JUMP JUMPDEST PUSH4 0x4E487B71 PUSH1 0xE0 SHL PUSH1 0x0 MSTORE PUSH1 0x12 PUSH1 0x4 MSTORE PUSH1 0x24 PUSH1 0x0 REVERT JUMPDEST PUSH1 0x0 DUP3 PUSH2 0x1BDF JUMPI PUSH4 0x4E487B71 PUSH1 0xE0 SHL PUSH1 0x0 MSTORE PUSH1 0x12 PUSH1 0x4 MSTORE PUSH1 0x24 PUSH1 0x0 REVERT JUMPDEST POP DIV SWAP1 JUMP JUMPDEST PUSH1 0x0 PUSH1 0x20 DUP1 DUP4 DUP6 SUB SLT ISZERO PUSH2 0x1BF7 JUMPI PUSH1 0x0 DUP1 REVERT JUMPDEST DUP3 MLOAD PUSH8 0xFFFFFFFFFFFFFFFF DUP1 DUP3 GT ISZERO PUSH2 0x1C0F JUMPI PUSH1 0x0 DUP1 REVERT JUMPDEST DUP2 DUP6 ADD SWAP2 POP DUP6 PUSH1 0x1F DUP4 ADD SLT PUSH2 0x1C23 JUMPI PUSH1 0x0 DUP1 REVERT JUMPDEST DUP2 MLOAD DUP2 DUP2 GT ISZERO PUSH2 0x1C35 JUMPI PUSH2 0x1C35 PUSH2 0x1AB7 JUMP JUMPDEST DUP1 PUSH1 0x5 SHL SWAP2 POP PUSH2 0x1C46 DUP5 DUP4 ADD PUSH2 0x1ACD JUMP JUMPDEST DUP2 DUP2 MSTORE SWAP2 DUP4 ADD DUP5 ADD SWAP2 DUP5 DUP2 ADD SWAP1 DUP9 DUP5 GT ISZERO PUSH2 0x1C60 JUMPI PUSH1 0x0 DUP1 REVERT JUMPDEST SWAP4 DUP6 ADD SWAP4 JUMPDEST DUP4 DUP6 LT ISZERO PUSH2 0x1C7E JUMPI DUP5 MLOAD DUP3 MSTORE SWAP4 DUP6 ADD SWAP4 SWAP1 DUP6 ADD SWAP1 PUSH2 0x1C65 JUMP JUMPDEST SWAP9 SWAP8 POP POP POP POP POP POP POP POP JUMP JUMPDEST PUSH4 0x4E487B71 PUSH1 0xE0 SHL PUSH1 0x0 MSTORE PUSH1 0x32 PUSH1 0x4 MSTORE PUSH1 0x24 PUSH1 0x0 REVERT JUMPDEST PUSH1 0x0 PUSH1 0x0 NOT DUP3 EQ ISZERO PUSH2 0x1CB4 JUMPI PUSH2 0x1CB4 PUSH2 0x1A70 JUMP JUMPDEST POP PUSH1 0x1 ADD SWAP1 JUMP JUMPDEST PUSH1 0x0 PUSH1 0x20 DUP3 DUP5 SUB SLT ISZERO PUSH2 0x1CCD JUMPI PUSH1 0x0 DUP1 REVERT JUMPDEST DUP2 MLOAD DUP1 ISZERO ISZERO DUP2 EQ PUSH2 0x1407 JUMPI PUSH1 0x0 DUP1 REVERT JUMPDEST PUSH1 0x0 JUMPDEST DUP4 DUP2 LT ISZERO PUSH2 0x1CF8 JUMPI DUP2 DUP2 ADD MLOAD DUP4 DUP3 ADD MSTORE PUSH1 0x20 ADD PUSH2 0x1CE0 JUMP JUMPDEST DUP4 DUP2 GT ISZERO PUSH2 0x1479 JUMPI POP POP PUSH1 0x0 SWAP2 ADD MSTORE JUMP JUMPDEST PUSH1 0x0 DUP3 MLOAD PUSH2 0x1D1B DUP2 DUP5 PUSH1 0x20 DUP8 ADD PUSH2 0x1CDD JUMP JUMPDEST SWAP2 SWAP1 SWAP2 ADD SWAP3 SWAP2 POP POP JUMP JUMPDEST PUSH1 0x20 DUP2 MSTORE PUSH1 0x0 DUP3 MLOAD DUP1 PUSH1 0x20 DUP5 ADD MSTORE PUSH2 0x1D44 DUP2 PUSH1 0x40 DUP6 ADD PUSH1 0x20 DUP8 ADD PUSH2 0x1CDD JUMP JUMPDEST PUSH1 0x1F ADD PUSH1 0x1F NOT AND SWAP2 SWAP1 SWAP2 ADD PUSH1 0x40 ADD SWAP3 SWAP2 POP POP JUMP INVALID LOG2 PUSH5 0x6970667358 0x22 SLT KECCAK256 0x4B 0xFB CALLCODE 0xA9 SWAP10 SWAP8 PUSH15 0x866E0441011774369319E7AD91F18D 0xD9 0x5E PUSH18 0x2D8D04587A1E2D64736F6C634300080A0033 "
				},
				"gasEstimates": {
					"creation": {
						"codeDepositCost": "1513200",
						"executionCost": "1613",
						"totalCost": "1514813"
					},
					"external": {
						"buyFromAuction(uint256,uint256,uint256,address,IERC20Upgradeable,HayJoinLike,VatLike,IHelioProvider,CollateralType)": "infinite",
						"getAllActiveAuctionsForClip(ClipperLike)": "infinite",
						"resetAuction(uint256,address,IERC20Upgradeable,HayJoinLike,VatLike,CollateralType)": "infinite",
						"startAuction(address,address,IERC20Upgradeable,HayJoinLike,VatLike,DogLike,IHelioProvider,CollateralType)": "infinite"
					}
				},
				"methodIdentifiers": {
					"buyFromAuction(uint256,uint256,uint256,address,IERC20Upgradeable,HayJoinLike,VatLike,IHelioProvider,CollateralType)": "14395d82",
					"getAllActiveAuctionsForClip(ClipperLike)": "7ce53fed",
					"resetAuction(uint256,address,IERC20Upgradeable,HayJoinLike,VatLike,CollateralType)": "a850dbcb",
					"startAuction(address,address,IERC20Upgradeable,HayJoinLike,VatLike,DogLike,IHelioProvider,CollateralType)": "416f0599"
				}
			},
			"storageLayout": {
				"storage": [],
				"types": null
			},
			"userdoc": {
				"kind": "user",
				"methods": {},
				"version": 1
			}
		}
	}
}