{
	"NewFraxProtocol/contracts/ERC20/ERC20.sol": {
		"ERC20": {
			"abi": [
				{
					"inputs": [
						{
							"internalType": "string",
							"name": "__name",
							"type": "string"
						},
						{
							"internalType": "string",
							"name": "__symbol",
							"type": "string"
						}
					],
					"stateMutability": "nonpayable",
					"type": "constructor"
				},
				{
					"anonymous": false,
					"inputs": [
						{
							"indexed": true,
							"internalType": "address",
							"name": "owner",
							"type": "address"
						},
						{
							"indexed": true,
							"internalType": "address",
							"name": "spender",
							"type": "address"
						},
						{
							"indexed": false,
							"internalType": "uint256",
							"name": "value",
							"type": "uint256"
						}
					],
					"name": "Approval",
					"type": "event"
				},
				{
					"anonymous": false,
					"inputs": [
						{
							"indexed": true,
							"internalType": "address",
							"name": "from",
							"type": "address"
						},
						{
							"indexed": true,
							"internalType": "address",
							"name": "to",
							"type": "address"
						},
						{
							"indexed": false,
							"internalType": "uint256",
							"name": "value",
							"type": "uint256"
						}
					],
					"name": "Transfer",
					"type": "event"
				},
				{
					"inputs": [
						{
							"internalType": "address",
							"name": "owner",
							"type": "address"
						},
						{
							"internalType": "address",
							"name": "spender",
							"type": "address"
						}
					],
					"name": "allowance",
					"outputs": [
						{
							"internalType": "uint256",
							"name": "",
							"type": "uint256"
						}
					],
					"stateMutability": "view",
					"type": "function"
				},
				{
					"inputs": [
						{
							"internalType": "address",
							"name": "spender",
							"type": "address"
						},
						{
							"internalType": "uint256",
							"name": "amount",
							"type": "uint256"
						}
					],
					"name": "approve",
					"outputs": [
						{
							"internalType": "bool",
							"name": "",
							"type": "bool"
						}
					],
					"stateMutability": "nonpayable",
					"type": "function"
				},
				{
					"inputs": [
						{
							"internalType": "address",
							"name": "account",
							"type": "address"
						}
					],
					"name": "balanceOf",
					"outputs": [
						{
							"internalType": "uint256",
							"name": "",
							"type": "uint256"
						}
					],
					"stateMutability": "view",
					"type": "function"
				},
				{
					"inputs": [
						{
							"internalType": "uint256",
							"name": "amount",
							"type": "uint256"
						}
					],
					"name": "burn",
					"outputs": [],
					"stateMutability": "nonpayable",
					"type": "function"
				},
				{
					"inputs": [
						{
							"internalType": "address",
							"name": "account",
							"type": "address"
						},
						{
							"internalType": "uint256",
							"name": "amount",
							"type": "uint256"
						}
					],
					"name": "burnFrom",
					"outputs": [],
					"stateMutability": "nonpayable",
					"type": "function"
				},
				{
					"inputs": [],
					"name": "decimals",
					"outputs": [
						{
							"internalType": "uint8",
							"name": "",
							"type": "uint8"
						}
					],
					"stateMutability": "view",
					"type": "function"
				},
				{
					"inputs": [
						{
							"internalType": "address",
							"name": "spender",
							"type": "address"
						},
						{
							"internalType": "uint256",
							"name": "subtractedValue",
							"type": "uint256"
						}
					],
					"name": "decreaseAllowance",
					"outputs": [
						{
							"internalType": "bool",
							"name": "",
							"type": "bool"
						}
					],
					"stateMutability": "nonpayable",
					"type": "function"
				},
				{
					"inputs": [
						{
							"internalType": "address",
							"name": "spender",
							"type": "address"
						},
						{
							"internalType": "uint256",
							"name": "addedValue",
							"type": "uint256"
						}
					],
					"name": "increaseAllowance",
					"outputs": [
						{
							"internalType": "bool",
							"name": "",
							"type": "bool"
						}
					],
					"stateMutability": "nonpayable",
					"type": "function"
				},
				{
					"inputs": [],
					"name": "name",
					"outputs": [
						{
							"internalType": "string",
							"name": "",
							"type": "string"
						}
					],
					"stateMutability": "view",
					"type": "function"
				},
				{
					"inputs": [],
					"name": "symbol",
					"outputs": [
						{
							"internalType": "string",
							"name": "",
							"type": "string"
						}
					],
					"stateMutability": "view",
					"type": "function"
				},
				{
					"inputs": [],
					"name": "totalSupply",
					"outputs": [
						{
							"internalType": "uint256",
							"name": "",
							"type": "uint256"
						}
					],
					"stateMutability": "view",
					"type": "function"
				},
				{
					"inputs": [
						{
							"internalType": "address",
							"name": "recipient",
							"type": "address"
						},
						{
							"internalType": "uint256",
							"name": "amount",
							"type": "uint256"
						}
					],
					"name": "transfer",
					"outputs": [
						{
							"internalType": "bool",
							"name": "",
							"type": "bool"
						}
					],
					"stateMutability": "nonpayable",
					"type": "function"
				},
				{
					"inputs": [
						{
							"internalType": "address",
							"name": "sender",
							"type": "address"
						},
						{
							"internalType": "address",
							"name": "recipient",
							"type": "address"
						},
						{
							"internalType": "uint256",
							"name": "amount",
							"type": "uint256"
						}
					],
					"name": "transferFrom",
					"outputs": [
						{
							"internalType": "bool",
							"name": "",
							"type": "bool"
						}
					],
					"stateMutability": "nonpayable",
					"type": "function"
				}
			],
			"devdoc": {
				"details": "Implementation of the {IERC20} interface. This implementation is agnostic to the way tokens are created. This means that a supply mechanism has to be added in a derived contract using {_mint}. For a generic mechanism see {ERC20Mintable}. TIP: For a detailed writeup see our guide https://forum.zeppelin.solutions/t/how-to-implement-erc20-supply-mechanisms/226[How to implement supply mechanisms]. We have followed general OpenZeppelin guidelines: functions revert instead of returning `false` on failure. This behavior is nonetheless conventional and does not conflict with the expectations of ERC20 applications. Additionally, an {Approval} event is emitted on calls to {transferFrom}. This allows applications to reconstruct the allowance for all accounts just by listening to said events. Other implementations of the EIP may not emit these events, as it isn't required by the specification. Finally, the non-standard {decreaseAllowance} and {increaseAllowance} functions have been added to mitigate the well-known issues around setting allowances. See {IERC20-approve}.",
				"events": {
					"Approval(address,address,uint256)": {
						"details": "Emitted when the allowance of a `spender` for an `owner` is set by a call to {approve}. `value` is the new allowance."
					},
					"Transfer(address,address,uint256)": {
						"details": "Emitted when `value` tokens are moved from one account (`from`) to another (`to`). Note that `value` may be zero."
					}
				},
				"kind": "dev",
				"methods": {
					"allowance(address,address)": {
						"details": "See {IERC20-allowance}."
					},
					"approve(address,uint256)": {
						"details": "See {IERC20-approve}. Requirements: - `spender` cannot be the zero address.approve(address spender, uint256 amount)"
					},
					"balanceOf(address)": {
						"details": "See {IERC20-balanceOf}."
					},
					"burn(uint256)": {
						"details": "Destroys `amount` tokens from the caller. See {ERC20-_burn}."
					},
					"burnFrom(address,uint256)": {
						"details": "Destroys `amount` tokens from `account`, deducting from the caller's allowance. See {ERC20-_burn} and {ERC20-allowance}. Requirements: - the caller must have allowance for `accounts`'s tokens of at least `amount`."
					},
					"constructor": {
						"details": "Sets the values for {name} and {symbol}, initializes {decimals} with a default value of 18. To select a different value for {decimals}, use {_setupDecimals}. All three of these values are immutable: they can only be set once during construction."
					},
					"decimals()": {
						"details": "Returns the number of decimals used to get its user representation. For example, if `decimals` equals `2`, a balance of `505` tokens should be displayed to a user as `5,05` (`505 / 10 ** 2`). Tokens usually opt for a value of 18, imitating the relationship between Ether and Wei. This is the value {ERC20} uses, unless {_setupDecimals} is called. NOTE: This information is only used for _display_ purposes: it in no way affects any of the arithmetic of the contract, including {IERC20-balanceOf} and {IERC20-transfer}."
					},
					"decreaseAllowance(address,uint256)": {
						"details": "Atomically decreases the allowance granted to `spender` by the caller. This is an alternative to {approve} that can be used as a mitigation for problems described in {IERC20-approve}. Emits an {Approval} event indicating the updated allowance. Requirements: - `spender` cannot be the zero address. - `spender` must have allowance for the caller of at least `subtractedValue`."
					},
					"increaseAllowance(address,uint256)": {
						"details": "Atomically increases the allowance granted to `spender` by the caller. This is an alternative to {approve} that can be used as a mitigation for problems described in {IERC20-approve}. Emits an {Approval} event indicating the updated allowance. Requirements: - `spender` cannot be the zero address."
					},
					"name()": {
						"details": "Returns the name of the token."
					},
					"symbol()": {
						"details": "Returns the symbol of the token, usually a shorter version of the name."
					},
					"totalSupply()": {
						"details": "See {IERC20-totalSupply}."
					},
					"transfer(address,uint256)": {
						"details": "See {IERC20-transfer}. Requirements: - `recipient` cannot be the zero address. - the caller must have a balance of at least `amount`."
					},
					"transferFrom(address,address,uint256)": {
						"details": "See {IERC20-transferFrom}. Emits an {Approval} event indicating the updated allowance. This is not required by the EIP. See the note at the beginning of {ERC20}; Requirements: - `sender` and `recipient` cannot be the zero address. - `sender` must have a balance of at least `amount`. - the caller must have allowance for `sender`'s tokens of at least `amount`."
					}
				},
				"version": 1
			},
			"evm": {
				"assembly": "    /* \"NewFraxProtocol/contracts/ERC20/ERC20.sol\":1333:11571  contract ERC20 is Context, IERC20 {... */\n  mstore(0x40, 0x80)\n    /* \"NewFraxProtocol/contracts/ERC20/ERC20.sol\":1974:2123  constructor (string memory __name, string memory __symbol) public {... */\n  callvalue\n  dup1\n  iszero\n  tag_1\n  jumpi\n  0x00\n  dup1\n  revert\ntag_1:\n  pop\n  mload(0x40)\n  sub(codesize, bytecodeSize)\n  dup1\n  bytecodeSize\n  dup4\n  codecopy\n  dup2\n  add\n  0x40\n  dup2\n  swap1\n  mstore\n  tag_2\n  swap2\n  tag_3\n  jump\t// in\ntag_2:\n    /* \"NewFraxProtocol/contracts/ERC20/ERC20.sol\":2050:2055  _name */\n  0x03\n    /* \"NewFraxProtocol/contracts/ERC20/ERC20.sol\":2050:2064  _name = __name */\n  tag_6\n    /* \"NewFraxProtocol/contracts/ERC20/ERC20.sol\":2058:2064  __name */\n  dup4\n    /* \"NewFraxProtocol/contracts/ERC20/ERC20.sol\":2050:2055  _name */\n  dup3\n    /* \"NewFraxProtocol/contracts/ERC20/ERC20.sol\":2050:2064  _name = __name */\n  tag_7\n  jump\t// in\ntag_6:\n  pop\n    /* \"NewFraxProtocol/contracts/ERC20/ERC20.sol\":2074:2081  _symbol */\n  0x04\n    /* \"NewFraxProtocol/contracts/ERC20/ERC20.sol\":2074:2092  _symbol = __symbol */\n  tag_8\n    /* \"NewFraxProtocol/contracts/ERC20/ERC20.sol\":2084:2092  __symbol */\n  dup3\n    /* \"NewFraxProtocol/contracts/ERC20/ERC20.sol\":2074:2081  _symbol */\n  dup3\n    /* \"NewFraxProtocol/contracts/ERC20/ERC20.sol\":2074:2092  _symbol = __symbol */\n  tag_7\n  jump\t// in\ntag_8:\n  pop\n  pop\n    /* \"NewFraxProtocol/contracts/ERC20/ERC20.sol\":2102:2111  _decimals */\n  0x05\n    /* \"NewFraxProtocol/contracts/ERC20/ERC20.sol\":2102:2116  _decimals = 18 */\n  dup1\n  sload\n  not(0xff)\n  and\n    /* \"NewFraxProtocol/contracts/ERC20/ERC20.sol\":2114:2116  18 */\n  0x12\n    /* \"NewFraxProtocol/contracts/ERC20/ERC20.sol\":2102:2116  _decimals = 18 */\n  or\n  swap1\n  sstore\n  pop\n    /* \"NewFraxProtocol/contracts/ERC20/ERC20.sol\":1333:11571  contract ERC20 is Context, IERC20 {... */\n  jump(tag_16)\n    /* \"#utility.yul\":14:141   */\ntag_10:\n    /* \"#utility.yul\":75:85   */\n  0x4e487b71\n    /* \"#utility.yul\":70:73   */\n  0xe0\n    /* \"#utility.yul\":66:86   */\n  shl\n    /* \"#utility.yul\":63:64   */\n  0x00\n    /* \"#utility.yul\":56:87   */\n  mstore\n    /* \"#utility.yul\":106:110   */\n  0x41\n    /* \"#utility.yul\":103:104   */\n  0x04\n    /* \"#utility.yul\":96:111   */\n  mstore\n    /* \"#utility.yul\":130:134   */\n  0x24\n    /* \"#utility.yul\":127:128   */\n  0x00\n    /* \"#utility.yul\":120:135   */\n  revert\n    /* \"#utility.yul\":146:986   */\ntag_11:\n    /* \"#utility.yul\":200:205   */\n  0x00\n    /* \"#utility.yul\":253:256   */\n  dup3\n    /* \"#utility.yul\":246:250   */\n  0x1f\n    /* \"#utility.yul\":238:244   */\n  dup4\n    /* \"#utility.yul\":234:251   */\n  add\n    /* \"#utility.yul\":230:257   */\n  slt\n    /* \"#utility.yul\":220:275   */\n  tag_19\n  jumpi\n    /* \"#utility.yul\":271:272   */\n  0x00\n    /* \"#utility.yul\":268:269   */\n  dup1\n    /* \"#utility.yul\":261:273   */\n  revert\n    /* \"#utility.yul\":220:275   */\ntag_19:\n    /* \"#utility.yul\":294:307   */\n  dup2\n  mload\n  sub(shl(0x40, 0x01), 0x01)\n    /* \"#utility.yul\":356:366   */\n  dup1\n  dup3\n  gt\n    /* \"#utility.yul\":353:389   */\n  iszero\n  tag_21\n  jumpi\n    /* \"#utility.yul\":369:387   */\n  tag_21\n  tag_10\n  jump\t// in\ntag_21:\n    /* \"#utility.yul\":444:446   */\n  0x40\n    /* \"#utility.yul\":438:447   */\n  mload\n    /* \"#utility.yul\":412:414   */\n  0x1f\n    /* \"#utility.yul\":498:511   */\n  dup4\n  add\n  not(0x1f)\n    /* \"#utility.yul\":494:516   */\n  swap1\n  dup2\n  and\n    /* \"#utility.yul\":518:520   */\n  0x3f\n    /* \"#utility.yul\":490:521   */\n  add\n    /* \"#utility.yul\":486:526   */\n  and\n    /* \"#utility.yul\":474:527   */\n  dup2\n  add\n  swap1\n    /* \"#utility.yul\":542:560   */\n  dup3\n  dup3\n  gt\n    /* \"#utility.yul\":562:584   */\n  dup2\n  dup4\n  lt\n    /* \"#utility.yul\":539:585   */\n  or\n    /* \"#utility.yul\":536:608   */\n  iszero\n  tag_23\n  jumpi\n    /* \"#utility.yul\":588:606   */\n  tag_23\n  tag_10\n  jump\t// in\ntag_23:\n    /* \"#utility.yul\":628:638   */\n  dup2\n    /* \"#utility.yul\":624:626   */\n  0x40\n    /* \"#utility.yul\":617:639   */\n  mstore\n    /* \"#utility.yul\":663:665   */\n  dup4\n    /* \"#utility.yul\":655:661   */\n  dup2\n    /* \"#utility.yul\":648:666   */\n  mstore\n    /* \"#utility.yul\":685:689   */\n  0x20\n    /* \"#utility.yul\":675:689   */\n  swap3\n  pop\n    /* \"#utility.yul\":730:733   */\n  dup7\n    /* \"#utility.yul\":725:727   */\n  dup4\n    /* \"#utility.yul\":720:722   */\n  dup6\n    /* \"#utility.yul\":712:718   */\n  dup9\n    /* \"#utility.yul\":708:723   */\n  add\n    /* \"#utility.yul\":704:728   */\n  add\n    /* \"#utility.yul\":701:734   */\n  gt\n    /* \"#utility.yul\":698:751   */\n  iszero\n  tag_24\n  jumpi\n    /* \"#utility.yul\":747:748   */\n  0x00\n    /* \"#utility.yul\":744:745   */\n  dup1\n    /* \"#utility.yul\":737:749   */\n  revert\n    /* \"#utility.yul\":698:751   */\ntag_24:\n    /* \"#utility.yul\":769:770   */\n  0x00\n    /* \"#utility.yul\":760:770   */\n  swap2\n  pop\n    /* \"#utility.yul\":779:912   */\ntag_25:\n    /* \"#utility.yul\":793:795   */\n  dup4\n    /* \"#utility.yul\":790:791   */\n  dup3\n    /* \"#utility.yul\":787:796   */\n  lt\n    /* \"#utility.yul\":779:912   */\n  iszero\n  tag_27\n  jumpi\n    /* \"#utility.yul\":881:895   */\n  dup6\n  dup3\n  add\n    /* \"#utility.yul\":877:900   */\n  dup4\n  add\n    /* \"#utility.yul\":871:901   */\n  mload\n    /* \"#utility.yul\":850:864   */\n  dup2\n  dup4\n  add\n    /* \"#utility.yul\":846:869   */\n  dup5\n  add\n    /* \"#utility.yul\":839:902   */\n  mstore\n    /* \"#utility.yul\":804:814   */\n  swap1\n  dup3\n  add\n  swap1\n    /* \"#utility.yul\":779:912   */\n  jump(tag_25)\ntag_27:\n    /* \"#utility.yul\":954:955   */\n  0x00\n    /* \"#utility.yul\":932:947   */\n  swap4\n  dup2\n  add\n    /* \"#utility.yul\":928:952   */\n  swap1\n  swap3\n  add\n    /* \"#utility.yul\":921:956   */\n  swap3\n  swap1\n  swap3\n  mstore\n    /* \"#utility.yul\":936:942   */\n  swap5\n    /* \"#utility.yul\":146:986   */\n  swap4\n  pop\n  pop\n  pop\n  pop\n  jump\t// out\n    /* \"#utility.yul\":991:1553   */\ntag_3:\n    /* \"#utility.yul\":1090:1096   */\n  0x00\n    /* \"#utility.yul\":1098:1104   */\n  dup1\n    /* \"#utility.yul\":1151:1153   */\n  0x40\n    /* \"#utility.yul\":1139:1148   */\n  dup4\n    /* \"#utility.yul\":1130:1137   */\n  dup6\n    /* \"#utility.yul\":1126:1149   */\n  sub\n    /* \"#utility.yul\":1122:1154   */\n  slt\n    /* \"#utility.yul\":1119:1171   */\n  iszero\n  tag_29\n  jumpi\n    /* \"#utility.yul\":1167:1168   */\n  0x00\n    /* \"#utility.yul\":1164:1165   */\n  dup1\n    /* \"#utility.yul\":1157:1169   */\n  revert\n    /* \"#utility.yul\":1119:1171   */\ntag_29:\n    /* \"#utility.yul\":1194:1210   */\n  dup3\n  mload\n  sub(shl(0x40, 0x01), 0x01)\n    /* \"#utility.yul\":1259:1273   */\n  dup1\n  dup3\n  gt\n    /* \"#utility.yul\":1256:1290   */\n  iszero\n  tag_30\n  jumpi\n    /* \"#utility.yul\":1286:1287   */\n  0x00\n    /* \"#utility.yul\":1283:1284   */\n  dup1\n    /* \"#utility.yul\":1276:1288   */\n  revert\n    /* \"#utility.yul\":1256:1290   */\ntag_30:\n    /* \"#utility.yul\":1309:1370   */\n  tag_31\n    /* \"#utility.yul\":1362:1369   */\n  dup7\n    /* \"#utility.yul\":1353:1359   */\n  dup4\n    /* \"#utility.yul\":1342:1351   */\n  dup8\n    /* \"#utility.yul\":1338:1360   */\n  add\n    /* \"#utility.yul\":1309:1370   */\n  tag_11\n  jump\t// in\ntag_31:\n    /* \"#utility.yul\":1299:1370   */\n  swap4\n  pop\n    /* \"#utility.yul\":1416:1418   */\n  0x20\n    /* \"#utility.yul\":1405:1414   */\n  dup6\n    /* \"#utility.yul\":1401:1419   */\n  add\n    /* \"#utility.yul\":1395:1420   */\n  mload\n    /* \"#utility.yul\":1379:1420   */\n  swap2\n  pop\n    /* \"#utility.yul\":1445:1447   */\n  dup1\n    /* \"#utility.yul\":1435:1443   */\n  dup3\n    /* \"#utility.yul\":1432:1448   */\n  gt\n    /* \"#utility.yul\":1429:1465   */\n  iszero\n  tag_32\n  jumpi\n    /* \"#utility.yul\":1461:1462   */\n  0x00\n    /* \"#utility.yul\":1458:1459   */\n  dup1\n    /* \"#utility.yul\":1451:1463   */\n  revert\n    /* \"#utility.yul\":1429:1465   */\ntag_32:\n  pop\n    /* \"#utility.yul\":1484:1547   */\n  tag_33\n    /* \"#utility.yul\":1539:1546   */\n  dup6\n    /* \"#utility.yul\":1528:1536   */\n  dup3\n    /* \"#utility.yul\":1517:1526   */\n  dup7\n    /* \"#utility.yul\":1513:1537   */\n  add\n    /* \"#utility.yul\":1484:1547   */\n  tag_11\n  jump\t// in\ntag_33:\n    /* \"#utility.yul\":1474:1547   */\n  swap2\n  pop\n  pop\n    /* \"#utility.yul\":991:1553   */\n  swap3\n  pop\n  swap3\n  swap1\n  pop\n  jump\t// out\n    /* \"#utility.yul\":1558:1938   */\ntag_12:\n    /* \"#utility.yul\":1637:1638   */\n  0x01\n    /* \"#utility.yul\":1633:1645   */\n  dup2\n  dup2\n  shr\n  swap1\n    /* \"#utility.yul\":1680:1692   */\n  dup3\n  and\n  dup1\n    /* \"#utility.yul\":1701:1762   */\n  tag_35\n  jumpi\n    /* \"#utility.yul\":1755:1759   */\n  0x7f\n    /* \"#utility.yul\":1747:1753   */\n  dup3\n    /* \"#utility.yul\":1743:1760   */\n  and\n    /* \"#utility.yul\":1733:1760   */\n  swap2\n  pop\n    /* \"#utility.yul\":1701:1762   */\ntag_35:\n    /* \"#utility.yul\":1808:1810   */\n  0x20\n    /* \"#utility.yul\":1800:1806   */\n  dup3\n    /* \"#utility.yul\":1797:1811   */\n  lt\n    /* \"#utility.yul\":1777:1795   */\n  dup2\n    /* \"#utility.yul\":1774:1812   */\n  sub\n    /* \"#utility.yul\":1771:1932   */\n  tag_36\n  jumpi\n    /* \"#utility.yul\":1854:1864   */\n  0x4e487b71\n    /* \"#utility.yul\":1849:1852   */\n  0xe0\n    /* \"#utility.yul\":1845:1865   */\n  shl\n    /* \"#utility.yul\":1842:1843   */\n  0x00\n    /* \"#utility.yul\":1835:1866   */\n  mstore\n    /* \"#utility.yul\":1889:1893   */\n  0x22\n    /* \"#utility.yul\":1886:1887   */\n  0x04\n    /* \"#utility.yul\":1879:1894   */\n  mstore\n    /* \"#utility.yul\":1917:1921   */\n  0x24\n    /* \"#utility.yul\":1914:1915   */\n  0x00\n    /* \"#utility.yul\":1907:1922   */\n  revert\n    /* \"#utility.yul\":1771:1932   */\ntag_36:\n  pop\n    /* \"#utility.yul\":1558:1938   */\n  swap2\n  swap1\n  pop\n  jump\t// out\n    /* \"#utility.yul\":2069:2614   */\ntag_14:\n    /* \"#utility.yul\":2171:2173   */\n  0x1f\n    /* \"#utility.yul\":2166:2169   */\n  dup3\n    /* \"#utility.yul\":2163:2174   */\n  gt\n    /* \"#utility.yul\":2160:2608   */\n  iszero\n  tag_39\n  jumpi\n    /* \"#utility.yul\":2207:2208   */\n  0x00\n    /* \"#utility.yul\":2232:2237   */\n  dup2\n    /* \"#utility.yul\":2228:2230   */\n  dup2\n    /* \"#utility.yul\":2221:2238   */\n  mstore\n    /* \"#utility.yul\":2277:2281   */\n  0x20\n    /* \"#utility.yul\":2273:2275   */\n  dup2\n    /* \"#utility.yul\":2263:2282   */\n  keccak256\n    /* \"#utility.yul\":2347:2349   */\n  0x1f\n    /* \"#utility.yul\":2335:2345   */\n  dup6\n    /* \"#utility.yul\":2331:2350   */\n  add\n    /* \"#utility.yul\":2328:2329   */\n  0x05\n    /* \"#utility.yul\":2324:2351   */\n  shr\n    /* \"#utility.yul\":2318:2322   */\n  dup2\n    /* \"#utility.yul\":2314:2352   */\n  add\n    /* \"#utility.yul\":2383:2387   */\n  0x20\n    /* \"#utility.yul\":2371:2381   */\n  dup7\n    /* \"#utility.yul\":2368:2388   */\n  lt\n    /* \"#utility.yul\":2365:2412   */\n  iszero\n  tag_40\n  jumpi\n  pop\n    /* \"#utility.yul\":2406:2410   */\n  dup1\n    /* \"#utility.yul\":2365:2412   */\ntag_40:\n    /* \"#utility.yul\":2461:2463   */\n  0x1f\n    /* \"#utility.yul\":2456:2459   */\n  dup6\n    /* \"#utility.yul\":2452:2464   */\n  add\n    /* \"#utility.yul\":2449:2450   */\n  0x05\n    /* \"#utility.yul\":2445:2465   */\n  shr\n    /* \"#utility.yul\":2439:2443   */\n  dup3\n    /* \"#utility.yul\":2435:2466   */\n  add\n    /* \"#utility.yul\":2425:2466   */\n  swap2\n  pop\n    /* \"#utility.yul\":2516:2598   */\ntag_41:\n    /* \"#utility.yul\":2534:2536   */\n  dup2\n    /* \"#utility.yul\":2527:2532   */\n  dup2\n    /* \"#utility.yul\":2524:2537   */\n  lt\n    /* \"#utility.yul\":2516:2598   */\n  iszero\n  tag_43\n  jumpi\n    /* \"#utility.yul\":2579:2596   */\n  dup3\n  dup2\n  sstore\n    /* \"#utility.yul\":2560:2561   */\n  0x01\n    /* \"#utility.yul\":2549:2562   */\n  add\n    /* \"#utility.yul\":2516:2598   */\n  jump(tag_41)\ntag_43:\n    /* \"#utility.yul\":2520:2523   */\n  pop\n  pop\n  pop\n    /* \"#utility.yul\":2160:2608   */\ntag_39:\n    /* \"#utility.yul\":2069:2614   */\n  pop\n  pop\n  pop\n  jump\t// out\n    /* \"#utility.yul\":2790:4142   */\ntag_7:\n    /* \"#utility.yul\":2910:2920   */\n  dup2\n  mload\n  sub(shl(0x40, 0x01), 0x01)\n    /* \"#utility.yul\":2932:2962   */\n  dup2\n  gt\n    /* \"#utility.yul\":2929:2985   */\n  iszero\n  tag_47\n  jumpi\n    /* \"#utility.yul\":2965:2983   */\n  tag_47\n  tag_10\n  jump\t// in\ntag_47:\n    /* \"#utility.yul\":2994:3091   */\n  tag_48\n    /* \"#utility.yul\":3084:3090   */\n  dup2\n    /* \"#utility.yul\":3044:3082   */\n  tag_49\n    /* \"#utility.yul\":3076:3080   */\n  dup5\n    /* \"#utility.yul\":3070:3081   */\n  sload\n    /* \"#utility.yul\":3044:3082   */\n  tag_12\n  jump\t// in\ntag_49:\n    /* \"#utility.yul\":3038:3042   */\n  dup5\n    /* \"#utility.yul\":2994:3091   */\n  tag_14\n  jump\t// in\ntag_48:\n    /* \"#utility.yul\":3146:3150   */\n  0x20\n  dup1\n    /* \"#utility.yul\":3210:3212   */\n  0x1f\n    /* \"#utility.yul\":3199:3213   */\n  dup4\n  gt\n    /* \"#utility.yul\":3227:3228   */\n  0x01\n    /* \"#utility.yul\":3222:3885   */\n  dup2\n  eq\n  tag_51\n  jumpi\n    /* \"#utility.yul\":3929:3930   */\n  0x00\n    /* \"#utility.yul\":3946:3952   */\n  dup5\n    /* \"#utility.yul\":3943:4032   */\n  iszero\n  tag_52\n  jumpi\n  pop\n    /* \"#utility.yul\":3998:4017   */\n  dup6\n  dup4\n  add\n    /* \"#utility.yul\":3992:4018   */\n  mload\n    /* \"#utility.yul\":3943:4032   */\ntag_52:\n  not(0x00)\n    /* \"#utility.yul\":2747:2748   */\n  0x03\n    /* \"#utility.yul\":2743:2754   */\n  dup7\n  swap1\n  shl\n    /* \"#utility.yul\":2739:2763   */\n  shr\n    /* \"#utility.yul\":2735:2764   */\n  not\n    /* \"#utility.yul\":2725:2765   */\n  and\n    /* \"#utility.yul\":2771:2772   */\n  0x01\n    /* \"#utility.yul\":2767:2778   */\n  dup6\n  swap1\n  shl\n    /* \"#utility.yul\":2722:2779   */\n  or\n    /* \"#utility.yul\":4045:4126   */\n  dup6\n  sstore\n    /* \"#utility.yul\":3192:4136   */\n  jump(tag_43)\n    /* \"#utility.yul\":3222:3885   */\ntag_51:\n    /* \"#utility.yul\":2016:2017   */\n  0x00\n    /* \"#utility.yul\":2009:2023   */\n  dup6\n  dup2\n  mstore\n    /* \"#utility.yul\":2053:2057   */\n  0x20\n    /* \"#utility.yul\":2040:2058   */\n  dup2\n  keccak256\n  not(0x1f)\n    /* \"#utility.yul\":3258:3278   */\n  dup7\n  and\n  swap2\n    /* \"#utility.yul\":3376:3612   */\ntag_55:\n    /* \"#utility.yul\":3390:3397   */\n  dup3\n    /* \"#utility.yul\":3387:3388   */\n  dup2\n    /* \"#utility.yul\":3384:3398   */\n  lt\n    /* \"#utility.yul\":3376:3612   */\n  iszero\n  tag_57\n  jumpi\n    /* \"#utility.yul\":3479:3498   */\n  dup9\n  dup7\n  add\n    /* \"#utility.yul\":3473:3499   */\n  mload\n    /* \"#utility.yul\":3458:3500   */\n  dup3\n  sstore\n    /* \"#utility.yul\":3571:3598   */\n  swap5\n  dup5\n  add\n  swap5\n    /* \"#utility.yul\":3539:3540   */\n  0x01\n    /* \"#utility.yul\":3527:3541   */\n  swap1\n  swap2\n  add\n  swap1\n    /* \"#utility.yul\":3406:3425   */\n  dup5\n  add\n    /* \"#utility.yul\":3376:3612   */\n  jump(tag_55)\ntag_57:\n    /* \"#utility.yul\":3380:3383   */\n  pop\n    /* \"#utility.yul\":3640:3646   */\n  dup6\n    /* \"#utility.yul\":3631:3638   */\n  dup3\n    /* \"#utility.yul\":3628:3647   */\n  lt\n    /* \"#utility.yul\":3625:3826   */\n  iszero\n  tag_58\n  jumpi\n    /* \"#utility.yul\":3701:3720   */\n  dup8\n  dup6\n  add\n    /* \"#utility.yul\":3695:3721   */\n  mload\n  not(0x00)\n    /* \"#utility.yul\":3784:3785   */\n  0x03\n    /* \"#utility.yul\":3780:3794   */\n  dup9\n  swap1\n  shl\n    /* \"#utility.yul\":3796:3799   */\n  0xf8\n    /* \"#utility.yul\":3776:3800   */\n  and\n    /* \"#utility.yul\":3772:3809   */\n  shr\n    /* \"#utility.yul\":3768:3810   */\n  not\n    /* \"#utility.yul\":3753:3811   */\n  and\n    /* \"#utility.yul\":3738:3812   */\n  dup2\n  sstore\n    /* \"#utility.yul\":3625:3826   */\ntag_58:\n  pop\n  pop\n  pop\n  pop\n  pop\n    /* \"#utility.yul\":3872:3873   */\n  0x01\n    /* \"#utility.yul\":3856:3870   */\n  swap1\n  dup2\n  shl\n    /* \"#utility.yul\":3852:3874   */\n  add\n    /* \"#utility.yul\":3839:3875   */\n  swap1\n  sstore\n  pop\n    /* \"#utility.yul\":2790:4142   */\n  jump\t// out\ntag_16:\n    /* \"NewFraxProtocol/contracts/ERC20/ERC20.sol\":1333:11571  contract ERC20 is Context, IERC20 {... */\n  dataSize(sub_0)\n  dup1\n  dataOffset(sub_0)\n  0x00\n  codecopy\n  0x00\n  return\nstop\n\nsub_0: assembly {\n        /* \"NewFraxProtocol/contracts/ERC20/ERC20.sol\":1333:11571  contract ERC20 is Context, IERC20 {... */\n      mstore(0x40, 0x80)\n      callvalue\n      dup1\n      iszero\n      tag_1\n      jumpi\n      0x00\n      dup1\n      revert\n    tag_1:\n      pop\n      jumpi(tag_2, lt(calldatasize, 0x04))\n      shr(0xe0, calldataload(0x00))\n      dup1\n      0x42966c68\n      gt\n      tag_16\n      jumpi\n      dup1\n      0x95d89b41\n      gt\n      tag_17\n      jumpi\n      dup1\n      0x95d89b41\n      eq\n      tag_12\n      jumpi\n      dup1\n      0xa457c2d7\n      eq\n      tag_13\n      jumpi\n      dup1\n      0xa9059cbb\n      eq\n      tag_14\n      jumpi\n      dup1\n      0xdd62ed3e\n      eq\n      tag_15\n      jumpi\n      0x00\n      dup1\n      revert\n    tag_17:\n      dup1\n      0x42966c68\n      eq\n      tag_9\n      jumpi\n      dup1\n      0x70a08231\n      eq\n      tag_10\n      jumpi\n      dup1\n      0x79cc6790\n      eq\n      tag_11\n      jumpi\n      0x00\n      dup1\n      revert\n    tag_16:\n      dup1\n      0x06fdde03\n      eq\n      tag_3\n      jumpi\n      dup1\n      0x095ea7b3\n      eq\n      tag_4\n      jumpi\n      dup1\n      0x18160ddd\n      eq\n      tag_5\n      jumpi\n      dup1\n      0x23b872dd\n      eq\n      tag_6\n      jumpi\n      dup1\n      0x313ce567\n      eq\n      tag_7\n      jumpi\n      dup1\n      0x39509351\n      eq\n      tag_8\n      jumpi\n    tag_2:\n      0x00\n      dup1\n      revert\n        /* \"NewFraxProtocol/contracts/ERC20/ERC20.sol\":2188:2269  function name() public view returns (string memory) {... */\n    tag_3:\n      tag_18\n      tag_19\n      jump\t// in\n    tag_18:\n      mload(0x40)\n      tag_20\n      swap2\n      swap1\n      tag_21\n      jump\t// in\n    tag_20:\n      mload(0x40)\n      dup1\n      swap2\n      sub\n      swap1\n      return\n        /* \"NewFraxProtocol/contracts/ERC20/ERC20.sol\":4264:4430  function approve(address spender, uint256 amount) public virtual override returns (bool) {... */\n    tag_4:\n      tag_22\n      tag_23\n      calldatasize\n      0x04\n      tag_24\n      jump\t// in\n    tag_23:\n      tag_25\n      jump\t// in\n    tag_22:\n      mload(0x40)\n        /* \"#utility.yul\":1169:1183   */\n      swap1\n      iszero\n        /* \"#utility.yul\":1162:1184   */\n      iszero\n        /* \"#utility.yul\":1144:1185   */\n      dup2\n      mstore\n        /* \"#utility.yul\":1132:1134   */\n      0x20\n        /* \"#utility.yul\":1117:1135   */\n      add\n        /* \"NewFraxProtocol/contracts/ERC20/ERC20.sol\":4264:4430  function approve(address spender, uint256 amount) public virtual override returns (bool) {... */\n      tag_20\n        /* \"#utility.yul\":1004:1191   */\n      jump\n        /* \"NewFraxProtocol/contracts/ERC20/ERC20.sol\":3231:3329  function totalSupply() public view override returns (uint256) {... */\n    tag_5:\n        /* \"NewFraxProtocol/contracts/ERC20/ERC20.sol\":3310:3322  _totalSupply */\n      sload(0x02)\n        /* \"NewFraxProtocol/contracts/ERC20/ERC20.sol\":3231:3329  function totalSupply() public view override returns (uint256) {... */\n    tag_28:\n      mload(0x40)\n        /* \"#utility.yul\":1342:1367   */\n      swap1\n      dup2\n      mstore\n        /* \"#utility.yul\":1330:1332   */\n      0x20\n        /* \"#utility.yul\":1315:1333   */\n      add\n        /* \"NewFraxProtocol/contracts/ERC20/ERC20.sol\":3231:3329  function totalSupply() public view override returns (uint256) {... */\n      tag_20\n        /* \"#utility.yul\":1196:1373   */\n      jump\n        /* \"NewFraxProtocol/contracts/ERC20/ERC20.sol\":4888:5205  function transferFrom(address sender, address recipient, uint256 amount) public virtual override returns (bool) {... */\n    tag_6:\n      tag_22\n      tag_33\n      calldatasize\n      0x04\n      tag_34\n      jump\t// in\n    tag_33:\n      tag_35\n      jump\t// in\n        /* \"NewFraxProtocol/contracts/ERC20/ERC20.sol\":3090:3171  function decimals() public view returns (uint8) {... */\n    tag_7:\n        /* \"NewFraxProtocol/contracts/ERC20/ERC20.sol\":3155:3164  _decimals */\n      sload(0x05)\n        /* \"NewFraxProtocol/contracts/ERC20/ERC20.sol\":3090:3171  function decimals() public view returns (uint8) {... */\n      mload(0x40)\n        /* \"NewFraxProtocol/contracts/ERC20/ERC20.sol\":3155:3164  _decimals */\n      0xff\n      swap1\n      swap2\n      and\n        /* \"#utility.yul\":1853:1889   */\n      dup2\n      mstore\n        /* \"#utility.yul\":1841:1843   */\n      0x20\n        /* \"#utility.yul\":1826:1844   */\n      add\n        /* \"NewFraxProtocol/contracts/ERC20/ERC20.sol\":3090:3171  function decimals() public view returns (uint8) {... */\n      tag_20\n        /* \"#utility.yul\":1711:1895   */\n      jump\n        /* \"NewFraxProtocol/contracts/ERC20/ERC20.sol\":5600:5815  function increaseAllowance(address spender, uint256 addedValue) public virtual returns (bool) {... */\n    tag_8:\n      tag_22\n      tag_42\n      calldatasize\n      0x04\n      tag_24\n      jump\t// in\n    tag_42:\n      tag_43\n      jump\t// in\n        /* \"NewFraxProtocol/contracts/ERC20/ERC20.sol\":8321:8410  function burn(uint256 amount) public virtual {... */\n    tag_9:\n      tag_45\n      tag_46\n      calldatasize\n      0x04\n      tag_47\n      jump\t// in\n    tag_46:\n      tag_48\n      jump\t// in\n    tag_45:\n      stop\n        /* \"NewFraxProtocol/contracts/ERC20/ERC20.sol\":3387:3504  function balanceOf(address account) public view override returns (uint256) {... */\n    tag_10:\n      tag_28\n      tag_50\n      calldatasize\n      0x04\n      tag_51\n      jump\t// in\n    tag_50:\n      sub(shl(0xa0, 0x01), 0x01)\n        /* \"NewFraxProtocol/contracts/ERC20/ERC20.sol\":3479:3497  _balances[account] */\n      and\n        /* \"NewFraxProtocol/contracts/ERC20/ERC20.sol\":3453:3460  uint256 */\n      0x00\n        /* \"NewFraxProtocol/contracts/ERC20/ERC20.sol\":3479:3497  _balances[account] */\n      swap1\n      dup2\n      mstore\n      0x20\n      dup2\n      swap1\n      mstore\n      0x40\n      swap1\n      keccak256\n      sload\n      swap1\n        /* \"NewFraxProtocol/contracts/ERC20/ERC20.sol\":3387:3504  function balanceOf(address account) public view override returns (uint256) {... */\n      jump\n        /* \"NewFraxProtocol/contracts/ERC20/ERC20.sol\":8714:9004  function burnFrom(address account, uint256 amount) public virtual {... */\n    tag_11:\n      tag_45\n      tag_55\n      calldatasize\n      0x04\n      tag_24\n      jump\t// in\n    tag_55:\n      tag_56\n      jump\t// in\n        /* \"NewFraxProtocol/contracts/ERC20/ERC20.sol\":2382:2467  function symbol() public view returns (string memory) {... */\n    tag_12:\n      tag_18\n      tag_58\n      jump\t// in\n        /* \"NewFraxProtocol/contracts/ERC20/ERC20.sol\":6302:6568  function decreaseAllowance(address spender, uint256 subtractedValue) public virtual returns (bool) {... */\n    tag_13:\n      tag_22\n      tag_61\n      calldatasize\n      0x04\n      tag_24\n      jump\t// in\n    tag_61:\n      tag_62\n      jump\t// in\n        /* \"NewFraxProtocol/contracts/ERC20/ERC20.sol\":3707:3879  function transfer(address recipient, uint256 amount) public virtual override returns (bool) {... */\n    tag_14:\n      tag_22\n      tag_65\n      calldatasize\n      0x04\n      tag_24\n      jump\t// in\n    tag_65:\n      tag_66\n      jump\t// in\n        /* \"NewFraxProtocol/contracts/ERC20/ERC20.sol\":3937:4086  function allowance(address owner, address spender) public view virtual override returns (uint256) {... */\n    tag_15:\n      tag_28\n      tag_69\n      calldatasize\n      0x04\n      tag_70\n      jump\t// in\n    tag_69:\n      sub(shl(0xa0, 0x01), 0x01)\n        /* \"NewFraxProtocol/contracts/ERC20/ERC20.sol\":4052:4070  _allowances[owner] */\n      swap2\n      dup3\n      and\n        /* \"NewFraxProtocol/contracts/ERC20/ERC20.sol\":4026:4033  uint256 */\n      0x00\n        /* \"NewFraxProtocol/contracts/ERC20/ERC20.sol\":4052:4070  _allowances[owner] */\n      swap1\n      dup2\n      mstore\n        /* \"NewFraxProtocol/contracts/ERC20/ERC20.sol\":4052:4063  _allowances */\n      0x01\n        /* \"NewFraxProtocol/contracts/ERC20/ERC20.sol\":4052:4070  _allowances[owner] */\n      0x20\n      swap1\n      dup2\n      mstore\n      0x40\n      dup1\n      dup4\n      keccak256\n        /* \"NewFraxProtocol/contracts/ERC20/ERC20.sol\":4052:4079  _allowances[owner][spender] */\n      swap4\n      swap1\n      swap5\n      and\n      dup3\n      mstore\n      swap2\n      swap1\n      swap2\n      mstore\n      keccak256\n      sload\n      swap1\n        /* \"NewFraxProtocol/contracts/ERC20/ERC20.sol\":3937:4086  function allowance(address owner, address spender) public view virtual override returns (uint256) {... */\n      jump\n        /* \"NewFraxProtocol/contracts/ERC20/ERC20.sol\":2188:2269  function name() public view returns (string memory) {... */\n    tag_19:\n        /* \"NewFraxProtocol/contracts/ERC20/ERC20.sol\":2225:2238  string memory */\n      0x60\n        /* \"NewFraxProtocol/contracts/ERC20/ERC20.sol\":2257:2262  _name */\n      0x03\n        /* \"NewFraxProtocol/contracts/ERC20/ERC20.sol\":2250:2262  return _name */\n      dup1\n      sload\n      tag_74\n      swap1\n      tag_75\n      jump\t// in\n    tag_74:\n      dup1\n      0x1f\n      add\n      0x20\n      dup1\n      swap2\n      div\n      mul\n      0x20\n      add\n      mload(0x40)\n      swap1\n      dup2\n      add\n      0x40\n      mstore\n      dup1\n      swap3\n      swap2\n      swap1\n      dup2\n      dup2\n      mstore\n      0x20\n      add\n      dup3\n      dup1\n      sload\n      tag_76\n      swap1\n      tag_75\n      jump\t// in\n    tag_76:\n      dup1\n      iszero\n      tag_77\n      jumpi\n      dup1\n      0x1f\n      lt\n      tag_78\n      jumpi\n      0x0100\n      dup1\n      dup4\n      sload\n      div\n      mul\n      dup4\n      mstore\n      swap2\n      0x20\n      add\n      swap2\n      jump(tag_77)\n    tag_78:\n      dup3\n      add\n      swap2\n      swap1\n      0x00\n      mstore\n      keccak256(0x00, 0x20)\n      swap1\n    tag_79:\n      dup2\n      sload\n      dup2\n      mstore\n      swap1\n      0x01\n      add\n      swap1\n      0x20\n      add\n      dup1\n      dup4\n      gt\n      tag_79\n      jumpi\n      dup3\n      swap1\n      sub\n      0x1f\n      and\n      dup3\n      add\n      swap2\n    tag_77:\n      pop\n      pop\n      pop\n      pop\n      pop\n      swap1\n      pop\n        /* \"NewFraxProtocol/contracts/ERC20/ERC20.sol\":2188:2269  function name() public view returns (string memory) {... */\n      swap1\n      jump\t// out\n        /* \"NewFraxProtocol/contracts/ERC20/ERC20.sol\":4264:4430  function approve(address spender, uint256 amount) public virtual override returns (bool) {... */\n    tag_25:\n        /* \"NewFraxProtocol/contracts/ERC20/ERC20.sol\":4347:4351  bool */\n      0x00\n        /* \"NewFraxProtocol/contracts/ERC20/ERC20.sol\":4363:4402  _approve(_msgSender(), spender, amount) */\n      tag_81\n        /* \"NewFraxProtocol/contracts/Common/Context.sol\":686:696  msg.sender */\n      caller\n        /* \"NewFraxProtocol/contracts/ERC20/ERC20.sol\":4386:4393  spender */\n      dup5\n        /* \"NewFraxProtocol/contracts/ERC20/ERC20.sol\":4395:4401  amount */\n      dup5\n        /* \"NewFraxProtocol/contracts/ERC20/ERC20.sol\":4363:4371  _approve */\n      tag_84\n        /* \"NewFraxProtocol/contracts/ERC20/ERC20.sol\":4363:4402  _approve(_msgSender(), spender, amount) */\n      jump\t// in\n    tag_81:\n      pop\n        /* \"NewFraxProtocol/contracts/ERC20/ERC20.sol\":4419:4423  true */\n      0x01\n        /* \"NewFraxProtocol/contracts/ERC20/ERC20.sol\":4264:4430  function approve(address spender, uint256 amount) public virtual override returns (bool) {... */\n    tag_80:\n      swap3\n      swap2\n      pop\n      pop\n      jump\t// out\n        /* \"NewFraxProtocol/contracts/ERC20/ERC20.sol\":4888:5205  function transferFrom(address sender, address recipient, uint256 amount) public virtual override returns (bool) {... */\n    tag_35:\n        /* \"NewFraxProtocol/contracts/ERC20/ERC20.sol\":4994:4998  bool */\n      0x00\n        /* \"NewFraxProtocol/contracts/ERC20/ERC20.sol\":5010:5046  _transfer(sender, recipient, amount) */\n      tag_87\n        /* \"NewFraxProtocol/contracts/ERC20/ERC20.sol\":5020:5026  sender */\n      dup5\n        /* \"NewFraxProtocol/contracts/ERC20/ERC20.sol\":5028:5037  recipient */\n      dup5\n        /* \"NewFraxProtocol/contracts/ERC20/ERC20.sol\":5039:5045  amount */\n      dup5\n        /* \"NewFraxProtocol/contracts/ERC20/ERC20.sol\":5010:5019  _transfer */\n      tag_88\n        /* \"NewFraxProtocol/contracts/ERC20/ERC20.sol\":5010:5046  _transfer(sender, recipient, amount) */\n      jump\t// in\n    tag_87:\n        /* \"NewFraxProtocol/contracts/ERC20/ERC20.sol\":5056:5177  _approve(sender, _msgSender(), _allowances[sender][_msgSender()].sub(amount, \"ERC20: transfer amount exceeds allowance\")) */\n      tag_89\n        /* \"NewFraxProtocol/contracts/ERC20/ERC20.sol\":5065:5071  sender */\n      dup5\n        /* \"NewFraxProtocol/contracts/Common/Context.sol\":686:696  msg.sender */\n      caller\n        /* \"NewFraxProtocol/contracts/ERC20/ERC20.sol\":5087:5176  _allowances[sender][_msgSender()].sub(amount, \"ERC20: transfer amount exceeds allowance\") */\n      tag_91\n        /* \"NewFraxProtocol/contracts/ERC20/ERC20.sol\":5125:5131  amount */\n      dup6\n        /* \"NewFraxProtocol/contracts/ERC20/ERC20.sol\":5087:5176  _allowances[sender][_msgSender()].sub(amount, \"ERC20: transfer amount exceeds allowance\") */\n      mload(0x40)\n      dup1\n      0x60\n      add\n      0x40\n      mstore\n      dup1\n      0x28\n      dup2\n      mstore\n      0x20\n      add\n      data_974d1b4421da69cc60b481194f0dad36a5bb4e23da810da7a7fb30cdba178330\n      0x28\n      swap2\n      codecopy\n      sub(shl(0xa0, 0x01), 0x01)\n        /* \"NewFraxProtocol/contracts/ERC20/ERC20.sol\":5087:5106  _allowances[sender] */\n      dup11\n      and\n      0x00\n      swap1\n      dup2\n      mstore\n        /* \"NewFraxProtocol/contracts/ERC20/ERC20.sol\":5087:5098  _allowances */\n      0x01\n        /* \"NewFraxProtocol/contracts/ERC20/ERC20.sol\":5087:5106  _allowances[sender] */\n      0x20\n      swap1\n      dup2\n      mstore\n      0x40\n      dup1\n      dup4\n      keccak256\n        /* \"NewFraxProtocol/contracts/Common/Context.sol\":686:696  msg.sender */\n      caller\n        /* \"NewFraxProtocol/contracts/ERC20/ERC20.sol\":5087:5120  _allowances[sender][_msgSender()] */\n      dup5\n      mstore\n      swap1\n      swap2\n      mstore\n      swap1\n      keccak256\n      sload\n      swap2\n      swap1\n        /* \"NewFraxProtocol/contracts/ERC20/ERC20.sol\":5087:5124  _allowances[sender][_msgSender()].sub */\n      tag_93\n        /* \"NewFraxProtocol/contracts/ERC20/ERC20.sol\":5087:5176  _allowances[sender][_msgSender()].sub(amount, \"ERC20: transfer amount exceeds allowance\") */\n      jump\t// in\n    tag_91:\n        /* \"NewFraxProtocol/contracts/ERC20/ERC20.sol\":5056:5064  _approve */\n      tag_84\n        /* \"NewFraxProtocol/contracts/ERC20/ERC20.sol\":5056:5177  _approve(sender, _msgSender(), _allowances[sender][_msgSender()].sub(amount, \"ERC20: transfer amount exceeds allowance\")) */\n      jump\t// in\n    tag_89:\n      pop\n        /* \"NewFraxProtocol/contracts/ERC20/ERC20.sol\":5194:5198  true */\n      0x01\n        /* \"NewFraxProtocol/contracts/ERC20/ERC20.sol\":4888:5205  function transferFrom(address sender, address recipient, uint256 amount) public virtual override returns (bool) {... */\n      swap4\n      swap3\n      pop\n      pop\n      pop\n      jump\t// out\n        /* \"NewFraxProtocol/contracts/ERC20/ERC20.sol\":5600:5815  function increaseAllowance(address spender, uint256 addedValue) public virtual returns (bool) {... */\n    tag_43:\n        /* \"NewFraxProtocol/contracts/Common/Context.sol\":686:696  msg.sender */\n      caller\n        /* \"NewFraxProtocol/contracts/ERC20/ERC20.sol\":5688:5692  bool */\n      0x00\n        /* \"NewFraxProtocol/contracts/ERC20/ERC20.sol\":5736:5761  _allowances[_msgSender()] */\n      dup2\n      dup2\n      mstore\n        /* \"NewFraxProtocol/contracts/ERC20/ERC20.sol\":5736:5747  _allowances */\n      0x01\n        /* \"NewFraxProtocol/contracts/ERC20/ERC20.sol\":5736:5761  _allowances[_msgSender()] */\n      0x20\n      swap1\n      dup2\n      mstore\n      0x40\n      dup1\n      dup4\n      keccak256\n      sub(shl(0xa0, 0x01), 0x01)\n        /* \"NewFraxProtocol/contracts/ERC20/ERC20.sol\":5736:5770  _allowances[_msgSender()][spender] */\n      dup8\n      and\n      dup5\n      mstore\n      swap1\n      swap2\n      mstore\n      dup2\n      keccak256\n      sload\n        /* \"NewFraxProtocol/contracts/ERC20/ERC20.sol\":5688:5692  bool */\n      swap1\n      swap2\n        /* \"NewFraxProtocol/contracts/ERC20/ERC20.sol\":5704:5787  _approve(_msgSender(), spender, _allowances[_msgSender()][spender].add(addedValue)) */\n      tag_81\n      swap2\n        /* \"NewFraxProtocol/contracts/ERC20/ERC20.sol\":5727:5734  spender */\n      dup6\n      swap1\n        /* \"NewFraxProtocol/contracts/ERC20/ERC20.sol\":5736:5786  _allowances[_msgSender()][spender].add(addedValue) */\n      tag_91\n      swap1\n        /* \"NewFraxProtocol/contracts/ERC20/ERC20.sol\":5775:5785  addedValue */\n      dup7\n        /* \"NewFraxProtocol/contracts/ERC20/ERC20.sol\":5736:5774  _allowances[_msgSender()][spender].add */\n      tag_100\n        /* \"NewFraxProtocol/contracts/ERC20/ERC20.sol\":5736:5786  _allowances[_msgSender()][spender].add(addedValue) */\n      jump\t// in\n        /* \"NewFraxProtocol/contracts/ERC20/ERC20.sol\":8321:8410  function burn(uint256 amount) public virtual {... */\n    tag_48:\n        /* \"NewFraxProtocol/contracts/ERC20/ERC20.sol\":8376:8403  _burn(_msgSender(), amount) */\n      tag_102\n        /* \"NewFraxProtocol/contracts/Common/Context.sol\":686:696  msg.sender */\n      caller\n        /* \"NewFraxProtocol/contracts/ERC20/ERC20.sol\":8396:8402  amount */\n      dup3\n        /* \"NewFraxProtocol/contracts/ERC20/ERC20.sol\":8376:8381  _burn */\n      tag_104\n        /* \"NewFraxProtocol/contracts/ERC20/ERC20.sol\":8376:8403  _burn(_msgSender(), amount) */\n      jump\t// in\n    tag_102:\n        /* \"NewFraxProtocol/contracts/ERC20/ERC20.sol\":8321:8410  function burn(uint256 amount) public virtual {... */\n      pop\n      jump\t// out\n        /* \"NewFraxProtocol/contracts/ERC20/ERC20.sol\":8714:9004  function burnFrom(address account, uint256 amount) public virtual {... */\n    tag_56:\n        /* \"NewFraxProtocol/contracts/ERC20/ERC20.sol\":8790:8816  uint256 decreasedAllowance */\n      0x00\n        /* \"NewFraxProtocol/contracts/ERC20/ERC20.sol\":8819:8903  allowance(account, _msgSender()).sub(amount, \"ERC20: burn amount exceeds allowance\") */\n      tag_107\n        /* \"NewFraxProtocol/contracts/ERC20/ERC20.sol\":8856:8862  amount */\n      dup3\n        /* \"NewFraxProtocol/contracts/ERC20/ERC20.sol\":8819:8903  allowance(account, _msgSender()).sub(amount, \"ERC20: burn amount exceeds allowance\") */\n      mload(0x40)\n      dup1\n      0x60\n      add\n      0x40\n      mstore\n      dup1\n      0x24\n      dup2\n      mstore\n      0x20\n      add\n      data_a287c363786607a1457a2d9d12fa61c0073358e02d76b4035fc2c2d86a19c0db\n      0x24\n      swap2\n      codecopy\n        /* \"NewFraxProtocol/contracts/ERC20/ERC20.sol\":8819:8851  allowance(account, _msgSender()) */\n      tag_108\n        /* \"NewFraxProtocol/contracts/ERC20/ERC20.sol\":8829:8836  account */\n      dup7\n        /* \"NewFraxProtocol/contracts/Common/Context.sol\":686:696  msg.sender */\n      caller\n        /* \"NewFraxProtocol/contracts/ERC20/ERC20.sol\":3937:4086  function allowance(address owner, address spender) public view virtual override returns (uint256) {... */\n      tag_69\n      jump\t// in\n        /* \"NewFraxProtocol/contracts/ERC20/ERC20.sol\":8819:8851  allowance(account, _msgSender()) */\n    tag_108:\n        /* \"NewFraxProtocol/contracts/ERC20/ERC20.sol\":8819:8855  allowance(account, _msgSender()).sub */\n      swap2\n        /* \"NewFraxProtocol/contracts/ERC20/ERC20.sol\":8819:8903  allowance(account, _msgSender()).sub(amount, \"ERC20: burn amount exceeds allowance\") */\n      swap1\n        /* \"NewFraxProtocol/contracts/ERC20/ERC20.sol\":8819:8855  allowance(account, _msgSender()).sub */\n      tag_93\n        /* \"NewFraxProtocol/contracts/ERC20/ERC20.sol\":8819:8903  allowance(account, _msgSender()).sub(amount, \"ERC20: burn amount exceeds allowance\") */\n      jump\t// in\n    tag_107:\n        /* \"NewFraxProtocol/contracts/ERC20/ERC20.sol\":8790:8903  uint256 decreasedAllowance = allowance(account, _msgSender()).sub(amount, \"ERC20: burn amount exceeds allowance\") */\n      swap1\n      pop\n        /* \"NewFraxProtocol/contracts/ERC20/ERC20.sol\":8914:8965  _approve(account, _msgSender(), decreasedAllowance) */\n      tag_110\n        /* \"NewFraxProtocol/contracts/ERC20/ERC20.sol\":8923:8930  account */\n      dup4\n        /* \"NewFraxProtocol/contracts/Common/Context.sol\":686:696  msg.sender */\n      caller\n        /* \"NewFraxProtocol/contracts/ERC20/ERC20.sol\":8946:8964  decreasedAllowance */\n      dup4\n        /* \"NewFraxProtocol/contracts/ERC20/ERC20.sol\":8914:8922  _approve */\n      tag_84\n        /* \"NewFraxProtocol/contracts/ERC20/ERC20.sol\":8914:8965  _approve(account, _msgSender(), decreasedAllowance) */\n      jump\t// in\n    tag_110:\n        /* \"NewFraxProtocol/contracts/ERC20/ERC20.sol\":8975:8997  _burn(account, amount) */\n      tag_112\n        /* \"NewFraxProtocol/contracts/ERC20/ERC20.sol\":8981:8988  account */\n      dup4\n        /* \"NewFraxProtocol/contracts/ERC20/ERC20.sol\":8990:8996  amount */\n      dup4\n        /* \"NewFraxProtocol/contracts/ERC20/ERC20.sol\":8975:8980  _burn */\n      tag_104\n        /* \"NewFraxProtocol/contracts/ERC20/ERC20.sol\":8975:8997  _burn(account, amount) */\n      jump\t// in\n    tag_112:\n        /* \"NewFraxProtocol/contracts/ERC20/ERC20.sol\":8780:9004  {... */\n      pop\n        /* \"NewFraxProtocol/contracts/ERC20/ERC20.sol\":8714:9004  function burnFrom(address account, uint256 amount) public virtual {... */\n      pop\n      pop\n      jump\t// out\n        /* \"NewFraxProtocol/contracts/ERC20/ERC20.sol\":2382:2467  function symbol() public view returns (string memory) {... */\n    tag_58:\n        /* \"NewFraxProtocol/contracts/ERC20/ERC20.sol\":2421:2434  string memory */\n      0x60\n        /* \"NewFraxProtocol/contracts/ERC20/ERC20.sol\":2453:2460  _symbol */\n      0x04\n        /* \"NewFraxProtocol/contracts/ERC20/ERC20.sol\":2446:2460  return _symbol */\n      dup1\n      sload\n      tag_74\n      swap1\n      tag_75\n      jump\t// in\n        /* \"NewFraxProtocol/contracts/ERC20/ERC20.sol\":6302:6568  function decreaseAllowance(address spender, uint256 subtractedValue) public virtual returns (bool) {... */\n    tag_62:\n        /* \"NewFraxProtocol/contracts/ERC20/ERC20.sol\":6395:6399  bool */\n      0x00\n        /* \"NewFraxProtocol/contracts/ERC20/ERC20.sol\":6411:6540  _approve(_msgSender(), spender, _allowances[_msgSender()][spender].sub(subtractedValue, \"ERC20: decreased allowance below zero\")) */\n      tag_81\n        /* \"NewFraxProtocol/contracts/Common/Context.sol\":686:696  msg.sender */\n      caller\n        /* \"NewFraxProtocol/contracts/ERC20/ERC20.sol\":6434:6441  spender */\n      dup5\n        /* \"NewFraxProtocol/contracts/ERC20/ERC20.sol\":6443:6539  _allowances[_msgSender()][spender].sub(subtractedValue, \"ERC20: decreased allowance below zero\") */\n      tag_91\n        /* \"NewFraxProtocol/contracts/ERC20/ERC20.sol\":6482:6497  subtractedValue */\n      dup6\n        /* \"NewFraxProtocol/contracts/ERC20/ERC20.sol\":6443:6539  _allowances[_msgSender()][spender].sub(subtractedValue, \"ERC20: decreased allowance below zero\") */\n      mload(0x40)\n      dup1\n      0x60\n      add\n      0x40\n      mstore\n      dup1\n      0x25\n      dup2\n      mstore\n      0x20\n      add\n      data_f8b476f7d28209d77d4a4ac1fe36b9f8259aa1bb6bddfa6e89de7e51615cf8a8\n      0x25\n      swap2\n      codecopy\n        /* \"NewFraxProtocol/contracts/Common/Context.sol\":686:696  msg.sender */\n      caller\n        /* \"NewFraxProtocol/contracts/ERC20/ERC20.sol\":6443:6468  _allowances[_msgSender()] */\n      0x00\n      swap1\n      dup2\n      mstore\n        /* \"NewFraxProtocol/contracts/ERC20/ERC20.sol\":6443:6454  _allowances */\n      0x01\n        /* \"NewFraxProtocol/contracts/ERC20/ERC20.sol\":6443:6468  _allowances[_msgSender()] */\n      0x20\n      swap1\n      dup2\n      mstore\n      0x40\n      dup1\n      dup4\n      keccak256\n      sub(shl(0xa0, 0x01), 0x01)\n        /* \"NewFraxProtocol/contracts/ERC20/ERC20.sol\":6443:6477  _allowances[_msgSender()][spender] */\n      dup14\n      and\n      dup5\n      mstore\n      swap1\n      swap2\n      mstore\n      swap1\n      keccak256\n      sload\n      swap2\n      swap1\n        /* \"NewFraxProtocol/contracts/ERC20/ERC20.sol\":6443:6481  _allowances[_msgSender()][spender].sub */\n      tag_93\n        /* \"NewFraxProtocol/contracts/ERC20/ERC20.sol\":6443:6539  _allowances[_msgSender()][spender].sub(subtractedValue, \"ERC20: decreased allowance below zero\") */\n      jump\t// in\n        /* \"NewFraxProtocol/contracts/ERC20/ERC20.sol\":3707:3879  function transfer(address recipient, uint256 amount) public virtual override returns (bool) {... */\n    tag_66:\n        /* \"NewFraxProtocol/contracts/ERC20/ERC20.sol\":3793:3797  bool */\n      0x00\n        /* \"NewFraxProtocol/contracts/ERC20/ERC20.sol\":3809:3851  _transfer(_msgSender(), recipient, amount) */\n      tag_81\n        /* \"NewFraxProtocol/contracts/Common/Context.sol\":686:696  msg.sender */\n      caller\n        /* \"NewFraxProtocol/contracts/ERC20/ERC20.sol\":3833:3842  recipient */\n      dup5\n        /* \"NewFraxProtocol/contracts/ERC20/ERC20.sol\":3844:3850  amount */\n      dup5\n        /* \"NewFraxProtocol/contracts/ERC20/ERC20.sol\":3809:3818  _transfer */\n      tag_88\n        /* \"NewFraxProtocol/contracts/ERC20/ERC20.sol\":3809:3851  _transfer(_msgSender(), recipient, amount) */\n      jump\t// in\n        /* \"NewFraxProtocol/contracts/ERC20/ERC20.sol\":10159:10499  function _approve(address owner, address spender, uint256 amount) internal virtual {... */\n    tag_84:\n      sub(shl(0xa0, 0x01), 0x01)\n        /* \"NewFraxProtocol/contracts/ERC20/ERC20.sol\":10260:10279  owner != address(0) */\n      dup4\n      and\n        /* \"NewFraxProtocol/contracts/ERC20/ERC20.sol\":10252:10320  require(owner != address(0), \"ERC20: approve from the zero address\") */\n      tag_130\n      jumpi\n      mload(0x40)\n      shl(0xe5, 0x461bcd)\n      dup2\n      mstore\n        /* \"#utility.yul\":3128:3130   */\n      0x20\n        /* \"NewFraxProtocol/contracts/ERC20/ERC20.sol\":10252:10320  require(owner != address(0), \"ERC20: approve from the zero address\") */\n      0x04\n      dup3\n      add\n        /* \"#utility.yul\":3110:3131   */\n      mstore\n        /* \"#utility.yul\":3167:3169   */\n      0x24\n        /* \"#utility.yul\":3147:3165   */\n      dup1\n      dup3\n      add\n        /* \"#utility.yul\":3140:3170   */\n      mstore\n        /* \"#utility.yul\":3206:3240   */\n      0x45524332303a20617070726f76652066726f6d20746865207a65726f20616464\n        /* \"#utility.yul\":3186:3204   */\n      0x44\n      dup3\n      add\n        /* \"#utility.yul\":3179:3241   */\n      mstore\n      shl(0xe0, 0x72657373)\n        /* \"#utility.yul\":3257:3275   */\n      0x64\n      dup3\n      add\n        /* \"#utility.yul\":3250:3284   */\n      mstore\n        /* \"#utility.yul\":3301:3320   */\n      0x84\n      add\n        /* \"NewFraxProtocol/contracts/ERC20/ERC20.sol\":10252:10320  require(owner != address(0), \"ERC20: approve from the zero address\") */\n    tag_131:\n      mload(0x40)\n      dup1\n      swap2\n      sub\n      swap1\n      revert\n    tag_130:\n      sub(shl(0xa0, 0x01), 0x01)\n        /* \"NewFraxProtocol/contracts/ERC20/ERC20.sol\":10338:10359  spender != address(0) */\n      dup3\n      and\n        /* \"NewFraxProtocol/contracts/ERC20/ERC20.sol\":10330:10398  require(spender != address(0), \"ERC20: approve to the zero address\") */\n      tag_133\n      jumpi\n      mload(0x40)\n      shl(0xe5, 0x461bcd)\n      dup2\n      mstore\n        /* \"#utility.yul\":3533:3535   */\n      0x20\n        /* \"NewFraxProtocol/contracts/ERC20/ERC20.sol\":10330:10398  require(spender != address(0), \"ERC20: approve to the zero address\") */\n      0x04\n      dup3\n      add\n        /* \"#utility.yul\":3515:3536   */\n      mstore\n        /* \"#utility.yul\":3572:3574   */\n      0x22\n        /* \"#utility.yul\":3552:3570   */\n      0x24\n      dup3\n      add\n        /* \"#utility.yul\":3545:3575   */\n      mstore\n        /* \"#utility.yul\":3611:3645   */\n      0x45524332303a20617070726f766520746f20746865207a65726f206164647265\n        /* \"#utility.yul\":3591:3609   */\n      0x44\n      dup3\n      add\n        /* \"#utility.yul\":3584:3646   */\n      mstore\n      shl(0xf0, 0x7373)\n        /* \"#utility.yul\":3662:3680   */\n      0x64\n      dup3\n      add\n        /* \"#utility.yul\":3655:3687   */\n      mstore\n        /* \"#utility.yul\":3704:3723   */\n      0x84\n      add\n        /* \"NewFraxProtocol/contracts/ERC20/ERC20.sol\":10330:10398  require(spender != address(0), \"ERC20: approve to the zero address\") */\n      tag_131\n        /* \"#utility.yul\":3331:3729   */\n      jump\n        /* \"NewFraxProtocol/contracts/ERC20/ERC20.sol\":10330:10398  require(spender != address(0), \"ERC20: approve to the zero address\") */\n    tag_133:\n      sub(shl(0xa0, 0x01), 0x01)\n        /* \"NewFraxProtocol/contracts/ERC20/ERC20.sol\":10409:10427  _allowances[owner] */\n      dup4\n      dup2\n      and\n      0x00\n      dup2\n      dup2\n      mstore\n        /* \"NewFraxProtocol/contracts/ERC20/ERC20.sol\":10409:10420  _allowances */\n      0x01\n        /* \"NewFraxProtocol/contracts/ERC20/ERC20.sol\":10409:10427  _allowances[owner] */\n      0x20\n      swap1\n      dup2\n      mstore\n      0x40\n      dup1\n      dup4\n      keccak256\n        /* \"NewFraxProtocol/contracts/ERC20/ERC20.sol\":10409:10436  _allowances[owner][spender] */\n      swap5\n      dup8\n      and\n      dup1\n      dup5\n      mstore\n      swap5\n      dup3\n      mstore\n      swap2\n      dup3\n      swap1\n      keccak256\n        /* \"NewFraxProtocol/contracts/ERC20/ERC20.sol\":10409:10445  _allowances[owner][spender] = amount */\n      dup6\n      swap1\n      sstore\n        /* \"NewFraxProtocol/contracts/ERC20/ERC20.sol\":10460:10492  Approval(owner, spender, amount) */\n      swap1\n      mload\n        /* \"#utility.yul\":1342:1367   */\n      dup5\n      dup2\n      mstore\n        /* \"NewFraxProtocol/contracts/ERC20/ERC20.sol\":10460:10492  Approval(owner, spender, amount) */\n      0x8c5be1e5ebec7d5bd14f71427d1e84f3dd0314c0f7b2291e5b200ac8c7c3b925\n      swap2\n        /* \"#utility.yul\":1315:1333   */\n      add\n        /* \"NewFraxProtocol/contracts/ERC20/ERC20.sol\":10460:10492  Approval(owner, spender, amount) */\n    tag_136:\n      mload(0x40)\n      dup1\n      swap2\n      sub\n      swap1\n      log3\n        /* \"NewFraxProtocol/contracts/ERC20/ERC20.sol\":10159:10499  function _approve(address owner, address spender, uint256 amount) internal virtual {... */\n      pop\n      pop\n      pop\n      jump\t// out\n        /* \"NewFraxProtocol/contracts/ERC20/ERC20.sol\":7042:7572  function _transfer(address sender, address recipient, uint256 amount) internal virtual {... */\n    tag_88:\n      sub(shl(0xa0, 0x01), 0x01)\n        /* \"NewFraxProtocol/contracts/ERC20/ERC20.sol\":7147:7167  sender != address(0) */\n      dup4\n      and\n        /* \"NewFraxProtocol/contracts/ERC20/ERC20.sol\":7139:7209  require(sender != address(0), \"ERC20: transfer from the zero address\") */\n      tag_138\n      jumpi\n      mload(0x40)\n      shl(0xe5, 0x461bcd)\n      dup2\n      mstore\n        /* \"#utility.yul\":3936:3938   */\n      0x20\n        /* \"NewFraxProtocol/contracts/ERC20/ERC20.sol\":7139:7209  require(sender != address(0), \"ERC20: transfer from the zero address\") */\n      0x04\n      dup3\n      add\n        /* \"#utility.yul\":3918:3939   */\n      mstore\n        /* \"#utility.yul\":3975:3977   */\n      0x25\n        /* \"#utility.yul\":3955:3973   */\n      0x24\n      dup3\n      add\n        /* \"#utility.yul\":3948:3978   */\n      mstore\n        /* \"#utility.yul\":4014:4048   */\n      0x45524332303a207472616e736665722066726f6d20746865207a65726f206164\n        /* \"#utility.yul\":3994:4012   */\n      0x44\n      dup3\n      add\n        /* \"#utility.yul\":3987:4049   */\n      mstore\n      shl(0xd8, 0x6472657373)\n        /* \"#utility.yul\":4065:4083   */\n      0x64\n      dup3\n      add\n        /* \"#utility.yul\":4058:4093   */\n      mstore\n        /* \"#utility.yul\":4110:4129   */\n      0x84\n      add\n        /* \"NewFraxProtocol/contracts/ERC20/ERC20.sol\":7139:7209  require(sender != address(0), \"ERC20: transfer from the zero address\") */\n      tag_131\n        /* \"#utility.yul\":3734:4135   */\n      jump\n        /* \"NewFraxProtocol/contracts/ERC20/ERC20.sol\":7139:7209  require(sender != address(0), \"ERC20: transfer from the zero address\") */\n    tag_138:\n      sub(shl(0xa0, 0x01), 0x01)\n        /* \"NewFraxProtocol/contracts/ERC20/ERC20.sol\":7227:7250  recipient != address(0) */\n      dup3\n      and\n        /* \"NewFraxProtocol/contracts/ERC20/ERC20.sol\":7219:7290  require(recipient != address(0), \"ERC20: transfer to the zero address\") */\n      tag_141\n      jumpi\n      mload(0x40)\n      shl(0xe5, 0x461bcd)\n      dup2\n      mstore\n        /* \"#utility.yul\":4342:4344   */\n      0x20\n        /* \"NewFraxProtocol/contracts/ERC20/ERC20.sol\":7219:7290  require(recipient != address(0), \"ERC20: transfer to the zero address\") */\n      0x04\n      dup3\n      add\n        /* \"#utility.yul\":4324:4345   */\n      mstore\n        /* \"#utility.yul\":4381:4383   */\n      0x23\n        /* \"#utility.yul\":4361:4379   */\n      0x24\n      dup3\n      add\n        /* \"#utility.yul\":4354:4384   */\n      mstore\n        /* \"#utility.yul\":4420:4454   */\n      0x45524332303a207472616e7366657220746f20746865207a65726f2061646472\n        /* \"#utility.yul\":4400:4418   */\n      0x44\n      dup3\n      add\n        /* \"#utility.yul\":4393:4455   */\n      mstore\n      shl(0xe8, 0x657373)\n        /* \"#utility.yul\":4471:4489   */\n      0x64\n      dup3\n      add\n        /* \"#utility.yul\":4464:4497   */\n      mstore\n        /* \"#utility.yul\":4514:4533   */\n      0x84\n      add\n        /* \"NewFraxProtocol/contracts/ERC20/ERC20.sol\":7219:7290  require(recipient != address(0), \"ERC20: transfer to the zero address\") */\n      tag_131\n        /* \"#utility.yul\":4140:4539   */\n      jump\n        /* \"NewFraxProtocol/contracts/ERC20/ERC20.sol\":7219:7290  require(recipient != address(0), \"ERC20: transfer to the zero address\") */\n    tag_141:\n        /* \"NewFraxProtocol/contracts/ERC20/ERC20.sol\":7379:7450  _balances[sender].sub(amount, \"ERC20: transfer amount exceeds balance\") */\n      tag_146\n        /* \"NewFraxProtocol/contracts/ERC20/ERC20.sol\":7401:7407  amount */\n      dup2\n        /* \"NewFraxProtocol/contracts/ERC20/ERC20.sol\":7379:7450  _balances[sender].sub(amount, \"ERC20: transfer amount exceeds balance\") */\n      mload(0x40)\n      dup1\n      0x60\n      add\n      0x40\n      mstore\n      dup1\n      0x26\n      dup2\n      mstore\n      0x20\n      add\n      data_4107e8a8b9e94bf8ff83080ddec1c0bffe897ebc2241b89d44f66b3d274088b6\n      0x26\n      swap2\n      codecopy\n      sub(shl(0xa0, 0x01), 0x01)\n        /* \"NewFraxProtocol/contracts/ERC20/ERC20.sol\":7379:7396  _balances[sender] */\n      dup7\n      and\n        /* \"NewFraxProtocol/contracts/ERC20/ERC20.sol\":7379:7388  _balances */\n      0x00\n        /* \"NewFraxProtocol/contracts/ERC20/ERC20.sol\":7379:7396  _balances[sender] */\n      swap1\n      dup2\n      mstore\n      0x20\n      dup2\n      swap1\n      mstore\n      0x40\n      swap1\n      keccak256\n      sload\n      swap2\n        /* \"NewFraxProtocol/contracts/ERC20/ERC20.sol\":7379:7450  _balances[sender].sub(amount, \"ERC20: transfer amount exceeds balance\") */\n      swap1\n        /* \"NewFraxProtocol/contracts/ERC20/ERC20.sol\":7379:7400  _balances[sender].sub */\n      tag_93\n        /* \"NewFraxProtocol/contracts/ERC20/ERC20.sol\":7379:7450  _balances[sender].sub(amount, \"ERC20: transfer amount exceeds balance\") */\n      jump\t// in\n    tag_146:\n      sub(shl(0xa0, 0x01), 0x01)\n        /* \"NewFraxProtocol/contracts/ERC20/ERC20.sol\":7359:7376  _balances[sender] */\n      dup1\n      dup6\n      and\n        /* \"NewFraxProtocol/contracts/ERC20/ERC20.sol\":7359:7368  _balances */\n      0x00\n        /* \"NewFraxProtocol/contracts/ERC20/ERC20.sol\":7359:7376  _balances[sender] */\n      swap1\n      dup2\n      mstore\n      0x20\n      dup2\n      swap1\n      mstore\n      0x40\n      dup1\n      dup3\n      keccak256\n        /* \"NewFraxProtocol/contracts/ERC20/ERC20.sol\":7359:7450  _balances[sender] = _balances[sender].sub(amount, \"ERC20: transfer amount exceeds balance\") */\n      swap4\n      swap1\n      swap4\n      sstore\n        /* \"NewFraxProtocol/contracts/ERC20/ERC20.sol\":7483:7503  _balances[recipient] */\n      swap1\n      dup5\n      and\n      dup2\n      mstore\n      keccak256\n      sload\n        /* \"NewFraxProtocol/contracts/ERC20/ERC20.sol\":7483:7515  _balances[recipient].add(amount) */\n      tag_147\n      swap1\n        /* \"NewFraxProtocol/contracts/ERC20/ERC20.sol\":7508:7514  amount */\n      dup3\n        /* \"NewFraxProtocol/contracts/ERC20/ERC20.sol\":7483:7507  _balances[recipient].add */\n      tag_100\n        /* \"NewFraxProtocol/contracts/ERC20/ERC20.sol\":7483:7515  _balances[recipient].add(amount) */\n      jump\t// in\n    tag_147:\n      sub(shl(0xa0, 0x01), 0x01)\n        /* \"NewFraxProtocol/contracts/ERC20/ERC20.sol\":7460:7480  _balances[recipient] */\n      dup4\n      dup2\n      and\n        /* \"NewFraxProtocol/contracts/ERC20/ERC20.sol\":7460:7469  _balances */\n      0x00\n        /* \"NewFraxProtocol/contracts/ERC20/ERC20.sol\":7460:7480  _balances[recipient] */\n      dup2\n      dup2\n      mstore\n      0x20\n      dup2\n      dup2\n      mstore\n      0x40\n      swap2\n      dup3\n      swap1\n      keccak256\n        /* \"NewFraxProtocol/contracts/ERC20/ERC20.sol\":7460:7515  _balances[recipient] = _balances[recipient].add(amount) */\n      swap5\n      swap1\n      swap5\n      sstore\n        /* \"NewFraxProtocol/contracts/ERC20/ERC20.sol\":7530:7565  Transfer(sender, recipient, amount) */\n      mload\n        /* \"#utility.yul\":1342:1367   */\n      dup5\n      dup2\n      mstore\n        /* \"NewFraxProtocol/contracts/ERC20/ERC20.sol\":7460:7480  _balances[recipient] */\n      swap1\n      swap3\n        /* \"NewFraxProtocol/contracts/ERC20/ERC20.sol\":7530:7565  Transfer(sender, recipient, amount) */\n      swap2\n      dup7\n      and\n      swap2\n      0xddf252ad1be2c89b69c2b068fc378daa952ba7f163c4a11628f55a4df523b3ef\n      swap2\n        /* \"#utility.yul\":1315:1333   */\n      add\n        /* \"NewFraxProtocol/contracts/ERC20/ERC20.sol\":7530:7565  Transfer(sender, recipient, amount) */\n      tag_136\n        /* \"#utility.yul\":1196:1373   */\n      jump\n        /* \"NewFraxProtocol/contracts/Math/SafeMath.sol\":1766:1953  function sub(uint256 a, uint256 b, string memory errorMessage) internal pure returns (uint256) {... */\n    tag_93:\n        /* \"NewFraxProtocol/contracts/Math/SafeMath.sol\":1852:1859  uint256 */\n      0x00\n        /* \"NewFraxProtocol/contracts/Math/SafeMath.sol\":1887:1899  errorMessage */\n      dup2\n        /* \"NewFraxProtocol/contracts/Math/SafeMath.sol\":1879:1885  b <= a */\n      dup5\n      dup5\n      gt\n      iszero\n        /* \"NewFraxProtocol/contracts/Math/SafeMath.sol\":1871:1900  require(b <= a, errorMessage) */\n      tag_150\n      jumpi\n      mload(0x40)\n      shl(0xe5, 0x461bcd)\n      dup2\n      mstore\n      0x04\n      add\n      tag_131\n      swap2\n      swap1\n      tag_21\n      jump\t// in\n    tag_150:\n      pop\n        /* \"NewFraxProtocol/contracts/Math/SafeMath.sol\":1910:1919  uint256 c */\n      0x00\n        /* \"NewFraxProtocol/contracts/Math/SafeMath.sol\":1922:1927  a - b */\n      tag_152\n        /* \"NewFraxProtocol/contracts/Math/SafeMath.sol\":1926:1927  b */\n      dup5\n        /* \"NewFraxProtocol/contracts/Math/SafeMath.sol\":1922:1923  a */\n      dup7\n        /* \"NewFraxProtocol/contracts/Math/SafeMath.sol\":1922:1927  a - b */\n      tag_153\n      jump\t// in\n    tag_152:\n        /* \"NewFraxProtocol/contracts/Math/SafeMath.sol\":1910:1927  uint256 c = a - b */\n      swap6\n        /* \"NewFraxProtocol/contracts/Math/SafeMath.sol\":1766:1953  function sub(uint256 a, uint256 b, string memory errorMessage) internal pure returns (uint256) {... */\n      swap5\n      pop\n      pop\n      pop\n      pop\n      pop\n      jump\t// out\n        /* \"NewFraxProtocol/contracts/Math/SafeMath.sol\":868:1044  function add(uint256 a, uint256 b) internal pure returns (uint256) {... */\n    tag_100:\n        /* \"NewFraxProtocol/contracts/Math/SafeMath.sol\":926:933  uint256 */\n      0x00\n      dup1\n        /* \"NewFraxProtocol/contracts/Math/SafeMath.sol\":957:962  a + b */\n      tag_155\n        /* \"NewFraxProtocol/contracts/Math/SafeMath.sol\":961:962  b */\n      dup4\n        /* \"NewFraxProtocol/contracts/Math/SafeMath.sol\":957:958  a */\n      dup6\n        /* \"NewFraxProtocol/contracts/Math/SafeMath.sol\":957:962  a + b */\n      tag_156\n      jump\t// in\n    tag_155:\n        /* \"NewFraxProtocol/contracts/Math/SafeMath.sol\":945:962  uint256 c = a + b */\n      swap1\n      pop\n        /* \"NewFraxProtocol/contracts/Math/SafeMath.sol\":985:986  a */\n      dup4\n        /* \"NewFraxProtocol/contracts/Math/SafeMath.sol\":980:981  c */\n      dup2\n        /* \"NewFraxProtocol/contracts/Math/SafeMath.sol\":980:986  c >= a */\n      lt\n      iszero\n        /* \"NewFraxProtocol/contracts/Math/SafeMath.sol\":972:1018  require(c >= a, \"SafeMath: addition overflow\") */\n      tag_157\n      jumpi\n      mload(0x40)\n      shl(0xe5, 0x461bcd)\n      dup2\n      mstore\n        /* \"#utility.yul\":5141:5143   */\n      0x20\n        /* \"NewFraxProtocol/contracts/Math/SafeMath.sol\":972:1018  require(c >= a, \"SafeMath: addition overflow\") */\n      0x04\n      dup3\n      add\n        /* \"#utility.yul\":5123:5144   */\n      mstore\n        /* \"#utility.yul\":5180:5182   */\n      0x1b\n        /* \"#utility.yul\":5160:5178   */\n      0x24\n      dup3\n      add\n        /* \"#utility.yul\":5153:5183   */\n      mstore\n        /* \"#utility.yul\":5219:5248   */\n      0x536166654d6174683a206164646974696f6e206f766572666c6f770000000000\n        /* \"#utility.yul\":5199:5217   */\n      0x44\n      dup3\n      add\n        /* \"#utility.yul\":5192:5249   */\n      mstore\n        /* \"#utility.yul\":5266:5284   */\n      0x64\n      add\n        /* \"NewFraxProtocol/contracts/Math/SafeMath.sol\":972:1018  require(c >= a, \"SafeMath: addition overflow\") */\n      tag_131\n        /* \"#utility.yul\":4939:5290   */\n      jump\n        /* \"NewFraxProtocol/contracts/Math/SafeMath.sol\":972:1018  require(c >= a, \"SafeMath: addition overflow\") */\n    tag_157:\n        /* \"NewFraxProtocol/contracts/Math/SafeMath.sol\":1036:1037  c */\n      swap4\n        /* \"NewFraxProtocol/contracts/Math/SafeMath.sol\":868:1044  function add(uint256 a, uint256 b) internal pure returns (uint256) {... */\n      swap3\n      pop\n      pop\n      pop\n      jump\t// out\n        /* \"NewFraxProtocol/contracts/ERC20/ERC20.sol\":9324:9734  function _burn(address account, uint256 amount) internal virtual {... */\n    tag_104:\n      sub(shl(0xa0, 0x01), 0x01)\n        /* \"NewFraxProtocol/contracts/ERC20/ERC20.sol\":9407:9428  account != address(0) */\n      dup3\n      and\n        /* \"NewFraxProtocol/contracts/ERC20/ERC20.sol\":9399:9466  require(account != address(0), \"ERC20: burn from the zero address\") */\n      tag_161\n      jumpi\n      mload(0x40)\n      shl(0xe5, 0x461bcd)\n      dup2\n      mstore\n        /* \"#utility.yul\":5497:5499   */\n      0x20\n        /* \"NewFraxProtocol/contracts/ERC20/ERC20.sol\":9399:9466  require(account != address(0), \"ERC20: burn from the zero address\") */\n      0x04\n      dup3\n      add\n        /* \"#utility.yul\":5479:5500   */\n      mstore\n        /* \"#utility.yul\":5536:5538   */\n      0x21\n        /* \"#utility.yul\":5516:5534   */\n      0x24\n      dup3\n      add\n        /* \"#utility.yul\":5509:5539   */\n      mstore\n        /* \"#utility.yul\":5575:5609   */\n      0x45524332303a206275726e2066726f6d20746865207a65726f20616464726573\n        /* \"#utility.yul\":5555:5573   */\n      0x44\n      dup3\n      add\n        /* \"#utility.yul\":5548:5610   */\n      mstore\n      shl(0xf8, 0x73)\n        /* \"#utility.yul\":5626:5644   */\n      0x64\n      dup3\n      add\n        /* \"#utility.yul\":5619:5650   */\n      mstore\n        /* \"#utility.yul\":5667:5686   */\n      0x84\n      add\n        /* \"NewFraxProtocol/contracts/ERC20/ERC20.sol\":9399:9466  require(account != address(0), \"ERC20: burn from the zero address\") */\n      tag_131\n        /* \"#utility.yul\":5295:5692   */\n      jump\n        /* \"NewFraxProtocol/contracts/ERC20/ERC20.sol\":9399:9466  require(account != address(0), \"ERC20: burn from the zero address\") */\n    tag_161:\n        /* \"NewFraxProtocol/contracts/ERC20/ERC20.sol\":9558:9626  _balances[account].sub(amount, \"ERC20: burn amount exceeds balance\") */\n      tag_165\n        /* \"NewFraxProtocol/contracts/ERC20/ERC20.sol\":9581:9587  amount */\n      dup2\n        /* \"NewFraxProtocol/contracts/ERC20/ERC20.sol\":9558:9626  _balances[account].sub(amount, \"ERC20: burn amount exceeds balance\") */\n      mload(0x40)\n      dup1\n      0x60\n      add\n      0x40\n      mstore\n      dup1\n      0x22\n      dup2\n      mstore\n      0x20\n      add\n      data_149b126e7125232b4200af45303d04fba8b74653b1a295a6a561a528c33fefdd\n      0x22\n      swap2\n      codecopy\n      sub(shl(0xa0, 0x01), 0x01)\n        /* \"NewFraxProtocol/contracts/ERC20/ERC20.sol\":9558:9576  _balances[account] */\n      dup6\n      and\n        /* \"NewFraxProtocol/contracts/ERC20/ERC20.sol\":9558:9567  _balances */\n      0x00\n        /* \"NewFraxProtocol/contracts/ERC20/ERC20.sol\":9558:9576  _balances[account] */\n      swap1\n      dup2\n      mstore\n      0x20\n      dup2\n      swap1\n      mstore\n      0x40\n      swap1\n      keccak256\n      sload\n      swap2\n        /* \"NewFraxProtocol/contracts/ERC20/ERC20.sol\":9558:9626  _balances[account].sub(amount, \"ERC20: burn amount exceeds balance\") */\n      swap1\n        /* \"NewFraxProtocol/contracts/ERC20/ERC20.sol\":9558:9580  _balances[account].sub */\n      tag_93\n        /* \"NewFraxProtocol/contracts/ERC20/ERC20.sol\":9558:9626  _balances[account].sub(amount, \"ERC20: burn amount exceeds balance\") */\n      jump\t// in\n    tag_165:\n      sub(shl(0xa0, 0x01), 0x01)\n        /* \"NewFraxProtocol/contracts/ERC20/ERC20.sol\":9537:9555  _balances[account] */\n      dup4\n      and\n        /* \"NewFraxProtocol/contracts/ERC20/ERC20.sol\":9537:9546  _balances */\n      0x00\n        /* \"NewFraxProtocol/contracts/ERC20/ERC20.sol\":9537:9555  _balances[account] */\n      swap1\n      dup2\n      mstore\n      0x20\n      dup2\n      swap1\n      mstore\n      0x40\n      swap1\n      keccak256\n        /* \"NewFraxProtocol/contracts/ERC20/ERC20.sol\":9537:9626  _balances[account] = _balances[account].sub(amount, \"ERC20: burn amount exceeds balance\") */\n      sstore\n        /* \"NewFraxProtocol/contracts/ERC20/ERC20.sol\":9651:9663  _totalSupply */\n      sload(0x02)\n        /* \"NewFraxProtocol/contracts/ERC20/ERC20.sol\":9651:9675  _totalSupply.sub(amount) */\n      tag_166\n      swap1\n        /* \"NewFraxProtocol/contracts/ERC20/ERC20.sol\":9668:9674  amount */\n      dup3\n        /* \"NewFraxProtocol/contracts/ERC20/ERC20.sol\":9651:9667  _totalSupply.sub */\n      tag_167\n        /* \"NewFraxProtocol/contracts/ERC20/ERC20.sol\":9651:9675  _totalSupply.sub(amount) */\n      jump\t// in\n    tag_166:\n        /* \"NewFraxProtocol/contracts/ERC20/ERC20.sol\":9636:9648  _totalSupply */\n      0x02\n        /* \"NewFraxProtocol/contracts/ERC20/ERC20.sol\":9636:9675  _totalSupply = _totalSupply.sub(amount) */\n      sstore\n        /* \"NewFraxProtocol/contracts/ERC20/ERC20.sol\":9690:9727  Transfer(account, address(0), amount) */\n      mload(0x40)\n        /* \"#utility.yul\":1342:1367   */\n      dup2\n      dup2\n      mstore\n        /* \"NewFraxProtocol/contracts/ERC20/ERC20.sol\":9716:9717  0 */\n      0x00\n      swap1\n      sub(shl(0xa0, 0x01), 0x01)\n        /* \"NewFraxProtocol/contracts/ERC20/ERC20.sol\":9690:9727  Transfer(account, address(0), amount) */\n      dup5\n      and\n      swap1\n      0xddf252ad1be2c89b69c2b068fc378daa952ba7f163c4a11628f55a4df523b3ef\n      swap1\n        /* \"#utility.yul\":1330:1332   */\n      0x20\n        /* \"#utility.yul\":1315:1333   */\n      add\n        /* \"NewFraxProtocol/contracts/ERC20/ERC20.sol\":9690:9727  Transfer(account, address(0), amount) */\n      mload(0x40)\n      dup1\n      swap2\n      sub\n      swap1\n      log3\n        /* \"NewFraxProtocol/contracts/ERC20/ERC20.sol\":9324:9734  function _burn(address account, uint256 amount) internal virtual {... */\n      pop\n      pop\n      jump\t// out\n        /* \"NewFraxProtocol/contracts/Math/SafeMath.sol\":1308:1442  function sub(uint256 a, uint256 b) internal pure returns (uint256) {... */\n    tag_167:\n        /* \"NewFraxProtocol/contracts/Math/SafeMath.sol\":1366:1373  uint256 */\n      0x00\n        /* \"NewFraxProtocol/contracts/Math/SafeMath.sol\":1392:1435  sub(a, b, \"SafeMath: subtraction overflow\") */\n      tag_157\n        /* \"NewFraxProtocol/contracts/Math/SafeMath.sol\":1396:1397  a */\n      dup4\n        /* \"NewFraxProtocol/contracts/Math/SafeMath.sol\":1399:1400  b */\n      dup4\n        /* \"NewFraxProtocol/contracts/Math/SafeMath.sol\":1392:1435  sub(a, b, \"SafeMath: subtraction overflow\") */\n      mload(0x40)\n      dup1\n      0x40\n      add\n      0x40\n      mstore\n      dup1\n      0x1e\n      dup2\n      mstore\n      0x20\n      add\n      0x536166654d6174683a207375627472616374696f6e206f766572666c6f770000\n      dup2\n      mstore\n      pop\n        /* \"NewFraxProtocol/contracts/Math/SafeMath.sol\":1392:1395  sub */\n      tag_93\n        /* \"NewFraxProtocol/contracts/Math/SafeMath.sol\":1392:1435  sub(a, b, \"SafeMath: subtraction overflow\") */\n      jump\t// in\n        /* \"#utility.yul\":14:562   */\n    tag_21:\n        /* \"#utility.yul\":126:130   */\n      0x00\n        /* \"#utility.yul\":155:157   */\n      0x20\n        /* \"#utility.yul\":184:186   */\n      dup1\n        /* \"#utility.yul\":173:182   */\n      dup4\n        /* \"#utility.yul\":166:187   */\n      mstore\n        /* \"#utility.yul\":216:222   */\n      dup4\n        /* \"#utility.yul\":210:223   */\n      mload\n        /* \"#utility.yul\":259:265   */\n      dup1\n        /* \"#utility.yul\":254:256   */\n      dup3\n        /* \"#utility.yul\":243:252   */\n      dup6\n        /* \"#utility.yul\":239:257   */\n      add\n        /* \"#utility.yul\":232:266   */\n      mstore\n        /* \"#utility.yul\":284:285   */\n      0x00\n        /* \"#utility.yul\":294:434   */\n    tag_176:\n        /* \"#utility.yul\":308:314   */\n      dup2\n        /* \"#utility.yul\":305:306   */\n      dup2\n        /* \"#utility.yul\":302:315   */\n      lt\n        /* \"#utility.yul\":294:434   */\n      iszero\n      tag_178\n      jumpi\n        /* \"#utility.yul\":403:417   */\n      dup6\n      dup2\n      add\n        /* \"#utility.yul\":399:422   */\n      dup4\n      add\n        /* \"#utility.yul\":393:423   */\n      mload\n        /* \"#utility.yul\":369:386   */\n      dup6\n      dup3\n      add\n        /* \"#utility.yul\":388:390   */\n      0x40\n        /* \"#utility.yul\":365:391   */\n      add\n        /* \"#utility.yul\":358:424   */\n      mstore\n        /* \"#utility.yul\":323:333   */\n      dup3\n      add\n        /* \"#utility.yul\":294:434   */\n      jump(tag_176)\n    tag_178:\n        /* \"#utility.yul\":298:301   */\n      pop\n        /* \"#utility.yul\":483:484   */\n      0x00\n        /* \"#utility.yul\":478:480   */\n      0x40\n        /* \"#utility.yul\":469:475   */\n      dup3\n        /* \"#utility.yul\":458:467   */\n      dup7\n        /* \"#utility.yul\":454:476   */\n      add\n        /* \"#utility.yul\":450:481   */\n      add\n        /* \"#utility.yul\":443:485   */\n      mstore\n        /* \"#utility.yul\":553:555   */\n      0x40\n        /* \"#utility.yul\":546:548   */\n      0x1f\n        /* \"#utility.yul\":542:549   */\n      not\n        /* \"#utility.yul\":537:539   */\n      0x1f\n        /* \"#utility.yul\":529:535   */\n      dup4\n        /* \"#utility.yul\":525:540   */\n      add\n        /* \"#utility.yul\":521:550   */\n      and\n        /* \"#utility.yul\":510:519   */\n      dup6\n        /* \"#utility.yul\":506:551   */\n      add\n        /* \"#utility.yul\":502:556   */\n      add\n        /* \"#utility.yul\":494:556   */\n      swap3\n      pop\n      pop\n      pop\n        /* \"#utility.yul\":14:562   */\n      swap3\n      swap2\n      pop\n      pop\n      jump\t// out\n        /* \"#utility.yul\":567:740   */\n    tag_172:\n        /* \"#utility.yul\":635:655   */\n      dup1\n      calldataload\n      sub(shl(0xa0, 0x01), 0x01)\n        /* \"#utility.yul\":684:715   */\n      dup2\n      and\n        /* \"#utility.yul\":674:716   */\n      dup2\n      eq\n        /* \"#utility.yul\":664:734   */\n      tag_180\n      jumpi\n        /* \"#utility.yul\":730:731   */\n      0x00\n        /* \"#utility.yul\":727:728   */\n      dup1\n        /* \"#utility.yul\":720:732   */\n      revert\n        /* \"#utility.yul\":664:734   */\n    tag_180:\n        /* \"#utility.yul\":567:740   */\n      swap2\n      swap1\n      pop\n      jump\t// out\n        /* \"#utility.yul\":745:999   */\n    tag_24:\n        /* \"#utility.yul\":813:819   */\n      0x00\n        /* \"#utility.yul\":821:827   */\n      dup1\n        /* \"#utility.yul\":874:876   */\n      0x40\n        /* \"#utility.yul\":862:871   */\n      dup4\n        /* \"#utility.yul\":853:860   */\n      dup6\n        /* \"#utility.yul\":849:872   */\n      sub\n        /* \"#utility.yul\":845:877   */\n      slt\n        /* \"#utility.yul\":842:894   */\n      iszero\n      tag_182\n      jumpi\n        /* \"#utility.yul\":890:891   */\n      0x00\n        /* \"#utility.yul\":887:888   */\n      dup1\n        /* \"#utility.yul\":880:892   */\n      revert\n        /* \"#utility.yul\":842:894   */\n    tag_182:\n        /* \"#utility.yul\":913:942   */\n      tag_183\n        /* \"#utility.yul\":932:941   */\n      dup4\n        /* \"#utility.yul\":913:942   */\n      tag_172\n      jump\t// in\n    tag_183:\n        /* \"#utility.yul\":903:942   */\n      swap5\n        /* \"#utility.yul\":989:991   */\n      0x20\n        /* \"#utility.yul\":974:992   */\n      swap4\n      swap1\n      swap4\n      add\n        /* \"#utility.yul\":961:993   */\n      calldataload\n      swap4\n      pop\n      pop\n      pop\n        /* \"#utility.yul\":745:999   */\n      jump\t// out\n        /* \"#utility.yul\":1378:1706   */\n    tag_34:\n        /* \"#utility.yul\":1455:1461   */\n      0x00\n        /* \"#utility.yul\":1463:1469   */\n      dup1\n        /* \"#utility.yul\":1471:1477   */\n      0x00\n        /* \"#utility.yul\":1524:1526   */\n      0x60\n        /* \"#utility.yul\":1512:1521   */\n      dup5\n        /* \"#utility.yul\":1503:1510   */\n      dup7\n        /* \"#utility.yul\":1499:1522   */\n      sub\n        /* \"#utility.yul\":1495:1527   */\n      slt\n        /* \"#utility.yul\":1492:1544   */\n      iszero\n      tag_187\n      jumpi\n        /* \"#utility.yul\":1540:1541   */\n      0x00\n        /* \"#utility.yul\":1537:1538   */\n      dup1\n        /* \"#utility.yul\":1530:1542   */\n      revert\n        /* \"#utility.yul\":1492:1544   */\n    tag_187:\n        /* \"#utility.yul\":1563:1592   */\n      tag_188\n        /* \"#utility.yul\":1582:1591   */\n      dup5\n        /* \"#utility.yul\":1563:1592   */\n      tag_172\n      jump\t// in\n    tag_188:\n        /* \"#utility.yul\":1553:1592   */\n      swap3\n      pop\n        /* \"#utility.yul\":1611:1649   */\n      tag_189\n        /* \"#utility.yul\":1645:1647   */\n      0x20\n        /* \"#utility.yul\":1634:1643   */\n      dup6\n        /* \"#utility.yul\":1630:1648   */\n      add\n        /* \"#utility.yul\":1611:1649   */\n      tag_172\n      jump\t// in\n    tag_189:\n        /* \"#utility.yul\":1601:1649   */\n      swap2\n      pop\n        /* \"#utility.yul\":1696:1698   */\n      0x40\n        /* \"#utility.yul\":1685:1694   */\n      dup5\n        /* \"#utility.yul\":1681:1699   */\n      add\n        /* \"#utility.yul\":1668:1700   */\n      calldataload\n        /* \"#utility.yul\":1658:1700   */\n      swap1\n      pop\n        /* \"#utility.yul\":1378:1706   */\n      swap3\n      pop\n      swap3\n      pop\n      swap3\n      jump\t// out\n        /* \"#utility.yul\":1900:2080   */\n    tag_47:\n        /* \"#utility.yul\":1959:1965   */\n      0x00\n        /* \"#utility.yul\":2012:2014   */\n      0x20\n        /* \"#utility.yul\":2000:2009   */\n      dup3\n        /* \"#utility.yul\":1991:1998   */\n      dup5\n        /* \"#utility.yul\":1987:2010   */\n      sub\n        /* \"#utility.yul\":1983:2015   */\n      slt\n        /* \"#utility.yul\":1980:2032   */\n      iszero\n      tag_192\n      jumpi\n        /* \"#utility.yul\":2028:2029   */\n      0x00\n        /* \"#utility.yul\":2025:2026   */\n      dup1\n        /* \"#utility.yul\":2018:2030   */\n      revert\n        /* \"#utility.yul\":1980:2032   */\n    tag_192:\n      pop\n        /* \"#utility.yul\":2051:2074   */\n      calldataload\n      swap2\n        /* \"#utility.yul\":1900:2080   */\n      swap1\n      pop\n      jump\t// out\n        /* \"#utility.yul\":2085:2271   */\n    tag_51:\n        /* \"#utility.yul\":2144:2150   */\n      0x00\n        /* \"#utility.yul\":2197:2199   */\n      0x20\n        /* \"#utility.yul\":2185:2194   */\n      dup3\n        /* \"#utility.yul\":2176:2183   */\n      dup5\n        /* \"#utility.yul\":2172:2195   */\n      sub\n        /* \"#utility.yul\":2168:2200   */\n      slt\n        /* \"#utility.yul\":2165:2217   */\n      iszero\n      tag_194\n      jumpi\n        /* \"#utility.yul\":2213:2214   */\n      0x00\n        /* \"#utility.yul\":2210:2211   */\n      dup1\n        /* \"#utility.yul\":2203:2215   */\n      revert\n        /* \"#utility.yul\":2165:2217   */\n    tag_194:\n        /* \"#utility.yul\":2236:2265   */\n      tag_157\n        /* \"#utility.yul\":2255:2264   */\n      dup3\n        /* \"#utility.yul\":2236:2265   */\n      tag_172\n      jump\t// in\n        /* \"#utility.yul\":2276:2536   */\n    tag_70:\n        /* \"#utility.yul\":2344:2350   */\n      0x00\n        /* \"#utility.yul\":2352:2358   */\n      dup1\n        /* \"#utility.yul\":2405:2407   */\n      0x40\n        /* \"#utility.yul\":2393:2402   */\n      dup4\n        /* \"#utility.yul\":2384:2391   */\n      dup6\n        /* \"#utility.yul\":2380:2403   */\n      sub\n        /* \"#utility.yul\":2376:2408   */\n      slt\n        /* \"#utility.yul\":2373:2425   */\n      iszero\n      tag_197\n      jumpi\n        /* \"#utility.yul\":2421:2422   */\n      0x00\n        /* \"#utility.yul\":2418:2419   */\n      dup1\n        /* \"#utility.yul\":2411:2423   */\n      revert\n        /* \"#utility.yul\":2373:2425   */\n    tag_197:\n        /* \"#utility.yul\":2444:2473   */\n      tag_198\n        /* \"#utility.yul\":2463:2472   */\n      dup4\n        /* \"#utility.yul\":2444:2473   */\n      tag_172\n      jump\t// in\n    tag_198:\n        /* \"#utility.yul\":2434:2473   */\n      swap2\n      pop\n        /* \"#utility.yul\":2492:2530   */\n      tag_199\n        /* \"#utility.yul\":2526:2528   */\n      0x20\n        /* \"#utility.yul\":2515:2524   */\n      dup5\n        /* \"#utility.yul\":2511:2529   */\n      add\n        /* \"#utility.yul\":2492:2530   */\n      tag_172\n      jump\t// in\n    tag_199:\n        /* \"#utility.yul\":2482:2530   */\n      swap1\n      pop\n        /* \"#utility.yul\":2276:2536   */\n      swap3\n      pop\n      swap3\n      swap1\n      pop\n      jump\t// out\n        /* \"#utility.yul\":2541:2921   */\n    tag_75:\n        /* \"#utility.yul\":2620:2621   */\n      0x01\n        /* \"#utility.yul\":2616:2628   */\n      dup2\n      dup2\n      shr\n      swap1\n        /* \"#utility.yul\":2663:2675   */\n      dup3\n      and\n      dup1\n        /* \"#utility.yul\":2684:2745   */\n      tag_201\n      jumpi\n        /* \"#utility.yul\":2738:2742   */\n      0x7f\n        /* \"#utility.yul\":2730:2736   */\n      dup3\n        /* \"#utility.yul\":2726:2743   */\n      and\n        /* \"#utility.yul\":2716:2743   */\n      swap2\n      pop\n        /* \"#utility.yul\":2684:2745   */\n    tag_201:\n        /* \"#utility.yul\":2791:2793   */\n      0x20\n        /* \"#utility.yul\":2783:2789   */\n      dup3\n        /* \"#utility.yul\":2780:2794   */\n      lt\n        /* \"#utility.yul\":2760:2778   */\n      dup2\n        /* \"#utility.yul\":2757:2795   */\n      sub\n        /* \"#utility.yul\":2754:2915   */\n      tag_202\n      jumpi\n        /* \"#utility.yul\":2837:2847   */\n      0x4e487b71\n        /* \"#utility.yul\":2832:2835   */\n      0xe0\n        /* \"#utility.yul\":2828:2848   */\n      shl\n        /* \"#utility.yul\":2825:2826   */\n      0x00\n        /* \"#utility.yul\":2818:2849   */\n      mstore\n        /* \"#utility.yul\":2872:2876   */\n      0x22\n        /* \"#utility.yul\":2869:2870   */\n      0x04\n        /* \"#utility.yul\":2862:2877   */\n      mstore\n        /* \"#utility.yul\":2900:2904   */\n      0x24\n        /* \"#utility.yul\":2897:2898   */\n      0x00\n        /* \"#utility.yul\":2890:2905   */\n      revert\n        /* \"#utility.yul\":2754:2915   */\n    tag_202:\n      pop\n        /* \"#utility.yul\":2541:2921   */\n      swap2\n      swap1\n      pop\n      jump\t// out\n        /* \"#utility.yul\":4544:4671   */\n    tag_173:\n        /* \"#utility.yul\":4605:4615   */\n      0x4e487b71\n        /* \"#utility.yul\":4600:4603   */\n      0xe0\n        /* \"#utility.yul\":4596:4616   */\n      shl\n        /* \"#utility.yul\":4593:4594   */\n      0x00\n        /* \"#utility.yul\":4586:4617   */\n      mstore\n        /* \"#utility.yul\":4636:4640   */\n      0x11\n        /* \"#utility.yul\":4633:4634   */\n      0x04\n        /* \"#utility.yul\":4626:4641   */\n      mstore\n        /* \"#utility.yul\":4660:4664   */\n      0x24\n        /* \"#utility.yul\":4657:4658   */\n      0x00\n        /* \"#utility.yul\":4650:4665   */\n      revert\n        /* \"#utility.yul\":4676:4804   */\n    tag_153:\n        /* \"#utility.yul\":4743:4752   */\n      dup2\n      dup2\n      sub\n        /* \"#utility.yul\":4764:4775   */\n      dup2\n      dup2\n      gt\n        /* \"#utility.yul\":4761:4798   */\n      iszero\n      tag_80\n      jumpi\n        /* \"#utility.yul\":4778:4796   */\n      tag_80\n      tag_173\n      jump\t// in\n        /* \"#utility.yul\":4809:4934   */\n    tag_156:\n        /* \"#utility.yul\":4874:4883   */\n      dup1\n      dup3\n      add\n        /* \"#utility.yul\":4895:4905   */\n      dup1\n      dup3\n      gt\n        /* \"#utility.yul\":4892:4928   */\n      iszero\n      tag_80\n      jumpi\n        /* \"#utility.yul\":4908:4926   */\n      tag_80\n      tag_173\n      jump\t// in\n    stop\n    data_149b126e7125232b4200af45303d04fba8b74653b1a295a6a561a528c33fefdd 45524332303a206275726e20616d6f756e7420657863656564732062616c616e6365\n    data_4107e8a8b9e94bf8ff83080ddec1c0bffe897ebc2241b89d44f66b3d274088b6 45524332303a207472616e7366657220616d6f756e7420657863656564732062616c616e6365\n    data_974d1b4421da69cc60b481194f0dad36a5bb4e23da810da7a7fb30cdba178330 45524332303a207472616e7366657220616d6f756e74206578636565647320616c6c6f77616e6365\n    data_a287c363786607a1457a2d9d12fa61c0073358e02d76b4035fc2c2d86a19c0db 45524332303a206275726e20616d6f756e74206578636565647320616c6c6f77616e6365\n    data_f8b476f7d28209d77d4a4ac1fe36b9f8259aa1bb6bddfa6e89de7e51615cf8a8 45524332303a2064656372656173656420616c6c6f77616e63652062656c6f77207a65726f\n\n    auxdata: 0xa264697066735822122014e71421f32813e6397d990f3bb197397a40426f22d1893c7b955031001c115a64736f6c63430008150033\n}\n",
				"bytecode": {
					"linkReferences": {},
					"object": "608060405234801562000010575f80fd5b5060405162000e1938038062000e19833981016040819052620000339162000124565b600362000041838262000216565b50600462000050828262000216565b50506005805460ff1916601217905550620002de565b634e487b7160e01b5f52604160045260245ffd5b5f82601f8301126200008a575f80fd5b81516001600160401b0380821115620000a757620000a762000066565b604051601f8301601f19908116603f01168101908282118183101715620000d257620000d262000066565b81604052838152602092508683858801011115620000ee575f80fd5b5f91505b83821015620001115785820183015181830184015290820190620000f2565b5f93810190920192909252949350505050565b5f806040838503121562000136575f80fd5b82516001600160401b03808211156200014d575f80fd5b6200015b868387016200007a565b9350602085015191508082111562000171575f80fd5b5062000180858286016200007a565b9150509250929050565b600181811c908216806200019f57607f821691505b602082108103620001be57634e487b7160e01b5f52602260045260245ffd5b50919050565b601f82111562000211575f81815260208120601f850160051c81016020861015620001ec5750805b601f850160051c820191505b818110156200020d57828155600101620001f8565b5050505b505050565b81516001600160401b0381111562000232576200023262000066565b6200024a816200024384546200018a565b84620001c4565b602080601f83116001811462000280575f8415620002685750858301515b5f19600386901b1c1916600185901b1785556200020d565b5f85815260208120601f198616915b82811015620002b0578886015182559484019460019091019084016200028f565b5085821015620002ce57878501515f19600388901b60f8161c191681555b5050505050600190811b01905550565b610b2d80620002ec5f395ff3fe608060405234801561000f575f80fd5b50600436106100cb575f3560e01c806342966c681161008857806395d89b411161006357806395d89b41146101ad578063a457c2d7146101b5578063a9059cbb146101c8578063dd62ed3e146101db575f80fd5b806342966c681461015d57806370a082311461017257806379cc67901461019a575f80fd5b806306fdde03146100cf578063095ea7b3146100ed57806318160ddd1461011057806323b872dd14610122578063313ce56714610135578063395093511461014a575b5f80fd5b6100d7610213565b6040516100e491906108a4565b60405180910390f35b6101006100fb36600461090a565b6102a3565b60405190151581526020016100e4565b6002545b6040519081526020016100e4565b610100610130366004610932565b6102b9565b60055460405160ff90911681526020016100e4565b61010061015836600461090a565b610320565b61017061016b36600461096b565b610355565b005b610114610180366004610982565b6001600160a01b03165f9081526020819052604090205490565b6101706101a836600461090a565b610362565b6100d76103ad565b6101006101c336600461090a565b6103bc565b6101006101d636600461090a565b610409565b6101146101e936600461099b565b6001600160a01b039182165f90815260016020908152604080832093909416825291909152205490565b606060038054610222906109cc565b80601f016020809104026020016040519081016040528092919081815260200182805461024e906109cc565b80156102995780601f1061027057610100808354040283529160200191610299565b820191905f5260205f20905b81548152906001019060200180831161027c57829003601f168201915b5050505050905090565b5f6102af338484610415565b5060015b92915050565b5f6102c584848461053e565b610316843361031185604051806060016040528060288152602001610a87602891396001600160a01b038a165f90815260016020908152604080832033845290915290205491906106be565b610415565b5060019392505050565b335f8181526001602090815260408083206001600160a01b038716845290915281205490916102af91859061031190866106f6565b61035f338261075b565b50565b5f61039182604051806060016040528060248152602001610aaf6024913961038a86336101e9565b91906106be565b905061039e833383610415565b6103a8838361075b565b505050565b606060048054610222906109cc565b5f6102af338461031185604051806060016040528060258152602001610ad360259139335f9081526001602090815260408083206001600160a01b038d16845290915290205491906106be565b5f6102af33848461053e565b6001600160a01b03831661047c5760405162461bcd60e51b8152602060048201526024808201527f45524332303a20617070726f76652066726f6d20746865207a65726f206164646044820152637265737360e01b60648201526084015b60405180910390fd5b6001600160a01b0382166104dd5760405162461bcd60e51b815260206004820152602260248201527f45524332303a20617070726f766520746f20746865207a65726f206164647265604482015261737360f01b6064820152608401610473565b6001600160a01b038381165f8181526001602090815260408083209487168084529482529182902085905590518481527f8c5be1e5ebec7d5bd14f71427d1e84f3dd0314c0f7b2291e5b200ac8c7c3b92591015b60405180910390a3505050565b6001600160a01b0383166105a25760405162461bcd60e51b815260206004820152602560248201527f45524332303a207472616e736665722066726f6d20746865207a65726f206164604482015264647265737360d81b6064820152608401610473565b6001600160a01b0382166106045760405162461bcd60e51b815260206004820152602360248201527f45524332303a207472616e7366657220746f20746865207a65726f206164647260448201526265737360e81b6064820152608401610473565b61064081604051806060016040528060268152602001610a61602691396001600160a01b0386165f9081526020819052604090205491906106be565b6001600160a01b038085165f90815260208190526040808220939093559084168152205461066e90826106f6565b6001600160a01b038381165f818152602081815260409182902094909455518481529092918616917fddf252ad1be2c89b69c2b068fc378daa952ba7f163c4a11628f55a4df523b3ef9101610531565b5f81848411156106e15760405162461bcd60e51b815260040161047391906108a4565b505f6106ed8486610a18565b95945050505050565b5f806107028385610a2b565b9050838110156107545760405162461bcd60e51b815260206004820152601b60248201527f536166654d6174683a206164646974696f6e206f766572666c6f7700000000006044820152606401610473565b9392505050565b6001600160a01b0382166107bb5760405162461bcd60e51b815260206004820152602160248201527f45524332303a206275726e2066726f6d20746865207a65726f206164647265736044820152607360f81b6064820152608401610473565b6107f781604051806060016040528060228152602001610a3f602291396001600160a01b0385165f9081526020819052604090205491906106be565b6001600160a01b0383165f9081526020819052604090205560025461081c9082610863565b6002556040518181525f906001600160a01b038416907fddf252ad1be2c89b69c2b068fc378daa952ba7f163c4a11628f55a4df523b3ef9060200160405180910390a35050565b5f61075483836040518060400160405280601e81526020017f536166654d6174683a207375627472616374696f6e206f766572666c6f7700008152506106be565b5f6020808352835180828501525f5b818110156108cf578581018301518582016040015282016108b3565b505f604082860101526040601f19601f8301168501019250505092915050565b80356001600160a01b0381168114610905575f80fd5b919050565b5f806040838503121561091b575f80fd5b610924836108ef565b946020939093013593505050565b5f805f60608486031215610944575f80fd5b61094d846108ef565b925061095b602085016108ef565b9150604084013590509250925092565b5f6020828403121561097b575f80fd5b5035919050565b5f60208284031215610992575f80fd5b610754826108ef565b5f80604083850312156109ac575f80fd5b6109b5836108ef565b91506109c3602084016108ef565b90509250929050565b600181811c908216806109e057607f821691505b6020821081036109fe57634e487b7160e01b5f52602260045260245ffd5b50919050565b634e487b7160e01b5f52601160045260245ffd5b818103818111156102b3576102b3610a04565b808201808211156102b3576102b3610a0456fe45524332303a206275726e20616d6f756e7420657863656564732062616c616e636545524332303a207472616e7366657220616d6f756e7420657863656564732062616c616e636545524332303a207472616e7366657220616d6f756e74206578636565647320616c6c6f77616e636545524332303a206275726e20616d6f756e74206578636565647320616c6c6f77616e636545524332303a2064656372656173656420616c6c6f77616e63652062656c6f77207a65726fa264697066735822122014e71421f32813e6397d990f3bb197397a40426f22d1893c7b955031001c115a64736f6c63430008150033",
					"opcodes": "PUSH1 0x80 PUSH1 0x40 MSTORE CALLVALUE DUP1 ISZERO PUSH3 0x10 JUMPI PUSH0 DUP1 REVERT JUMPDEST POP PUSH1 0x40 MLOAD PUSH3 0xE19 CODESIZE SUB DUP1 PUSH3 0xE19 DUP4 CODECOPY DUP2 ADD PUSH1 0x40 DUP2 SWAP1 MSTORE PUSH3 0x33 SWAP2 PUSH3 0x124 JUMP JUMPDEST PUSH1 0x3 PUSH3 0x41 DUP4 DUP3 PUSH3 0x216 JUMP JUMPDEST POP PUSH1 0x4 PUSH3 0x50 DUP3 DUP3 PUSH3 0x216 JUMP JUMPDEST POP POP PUSH1 0x5 DUP1 SLOAD PUSH1 0xFF NOT AND PUSH1 0x12 OR SWAP1 SSTORE POP PUSH3 0x2DE JUMP JUMPDEST PUSH4 0x4E487B71 PUSH1 0xE0 SHL PUSH0 MSTORE PUSH1 0x41 PUSH1 0x4 MSTORE PUSH1 0x24 PUSH0 REVERT JUMPDEST PUSH0 DUP3 PUSH1 0x1F DUP4 ADD SLT PUSH3 0x8A JUMPI PUSH0 DUP1 REVERT JUMPDEST DUP2 MLOAD PUSH1 0x1 PUSH1 0x1 PUSH1 0x40 SHL SUB DUP1 DUP3 GT ISZERO PUSH3 0xA7 JUMPI PUSH3 0xA7 PUSH3 0x66 JUMP JUMPDEST PUSH1 0x40 MLOAD PUSH1 0x1F DUP4 ADD PUSH1 0x1F NOT SWAP1 DUP2 AND PUSH1 0x3F ADD AND DUP2 ADD SWAP1 DUP3 DUP3 GT DUP2 DUP4 LT OR ISZERO PUSH3 0xD2 JUMPI PUSH3 0xD2 PUSH3 0x66 JUMP JUMPDEST DUP2 PUSH1 0x40 MSTORE DUP4 DUP2 MSTORE PUSH1 0x20 SWAP3 POP DUP7 DUP4 DUP6 DUP9 ADD ADD GT ISZERO PUSH3 0xEE JUMPI PUSH0 DUP1 REVERT JUMPDEST PUSH0 SWAP2 POP JUMPDEST DUP4 DUP3 LT ISZERO PUSH3 0x111 JUMPI DUP6 DUP3 ADD DUP4 ADD MLOAD DUP2 DUP4 ADD DUP5 ADD MSTORE SWAP1 DUP3 ADD SWAP1 PUSH3 0xF2 JUMP JUMPDEST PUSH0 SWAP4 DUP2 ADD SWAP1 SWAP3 ADD SWAP3 SWAP1 SWAP3 MSTORE SWAP5 SWAP4 POP POP POP POP JUMP JUMPDEST PUSH0 DUP1 PUSH1 0x40 DUP4 DUP6 SUB SLT ISZERO PUSH3 0x136 JUMPI PUSH0 DUP1 REVERT JUMPDEST DUP3 MLOAD PUSH1 0x1 PUSH1 0x1 PUSH1 0x40 SHL SUB DUP1 DUP3 GT ISZERO PUSH3 0x14D JUMPI PUSH0 DUP1 REVERT JUMPDEST PUSH3 0x15B DUP7 DUP4 DUP8 ADD PUSH3 0x7A JUMP JUMPDEST SWAP4 POP PUSH1 0x20 DUP6 ADD MLOAD SWAP2 POP DUP1 DUP3 GT ISZERO PUSH3 0x171 JUMPI PUSH0 DUP1 REVERT JUMPDEST POP PUSH3 0x180 DUP6 DUP3 DUP7 ADD PUSH3 0x7A JUMP JUMPDEST SWAP2 POP POP SWAP3 POP SWAP3 SWAP1 POP JUMP JUMPDEST PUSH1 0x1 DUP2 DUP2 SHR SWAP1 DUP3 AND DUP1 PUSH3 0x19F JUMPI PUSH1 0x7F DUP3 AND SWAP2 POP JUMPDEST PUSH1 0x20 DUP3 LT DUP2 SUB PUSH3 0x1BE JUMPI PUSH4 0x4E487B71 PUSH1 0xE0 SHL PUSH0 MSTORE PUSH1 0x22 PUSH1 0x4 MSTORE PUSH1 0x24 PUSH0 REVERT JUMPDEST POP SWAP2 SWAP1 POP JUMP JUMPDEST PUSH1 0x1F DUP3 GT ISZERO PUSH3 0x211 JUMPI PUSH0 DUP2 DUP2 MSTORE PUSH1 0x20 DUP2 KECCAK256 PUSH1 0x1F DUP6 ADD PUSH1 0x5 SHR DUP2 ADD PUSH1 0x20 DUP7 LT ISZERO PUSH3 0x1EC JUMPI POP DUP1 JUMPDEST PUSH1 0x1F DUP6 ADD PUSH1 0x5 SHR DUP3 ADD SWAP2 POP JUMPDEST DUP2 DUP2 LT ISZERO PUSH3 0x20D JUMPI DUP3 DUP2 SSTORE PUSH1 0x1 ADD PUSH3 0x1F8 JUMP JUMPDEST POP POP POP JUMPDEST POP POP POP JUMP JUMPDEST DUP2 MLOAD PUSH1 0x1 PUSH1 0x1 PUSH1 0x40 SHL SUB DUP2 GT ISZERO PUSH3 0x232 JUMPI PUSH3 0x232 PUSH3 0x66 JUMP JUMPDEST PUSH3 0x24A DUP2 PUSH3 0x243 DUP5 SLOAD PUSH3 0x18A JUMP JUMPDEST DUP5 PUSH3 0x1C4 JUMP JUMPDEST PUSH1 0x20 DUP1 PUSH1 0x1F DUP4 GT PUSH1 0x1 DUP2 EQ PUSH3 0x280 JUMPI PUSH0 DUP5 ISZERO PUSH3 0x268 JUMPI POP DUP6 DUP4 ADD MLOAD JUMPDEST PUSH0 NOT PUSH1 0x3 DUP7 SWAP1 SHL SHR NOT AND PUSH1 0x1 DUP6 SWAP1 SHL OR DUP6 SSTORE PUSH3 0x20D JUMP JUMPDEST PUSH0 DUP6 DUP2 MSTORE PUSH1 0x20 DUP2 KECCAK256 PUSH1 0x1F NOT DUP7 AND SWAP2 JUMPDEST DUP3 DUP2 LT ISZERO PUSH3 0x2B0 JUMPI DUP9 DUP7 ADD MLOAD DUP3 SSTORE SWAP5 DUP5 ADD SWAP5 PUSH1 0x1 SWAP1 SWAP2 ADD SWAP1 DUP5 ADD PUSH3 0x28F JUMP JUMPDEST POP DUP6 DUP3 LT ISZERO PUSH3 0x2CE JUMPI DUP8 DUP6 ADD MLOAD PUSH0 NOT PUSH1 0x3 DUP9 SWAP1 SHL PUSH1 0xF8 AND SHR NOT AND DUP2 SSTORE JUMPDEST POP POP POP POP POP PUSH1 0x1 SWAP1 DUP2 SHL ADD SWAP1 SSTORE POP JUMP JUMPDEST PUSH2 0xB2D DUP1 PUSH3 0x2EC PUSH0 CODECOPY PUSH0 RETURN INVALID PUSH1 0x80 PUSH1 0x40 MSTORE CALLVALUE DUP1 ISZERO PUSH2 0xF JUMPI PUSH0 DUP1 REVERT JUMPDEST POP PUSH1 0x4 CALLDATASIZE LT PUSH2 0xCB JUMPI PUSH0 CALLDATALOAD PUSH1 0xE0 SHR DUP1 PUSH4 0x42966C68 GT PUSH2 0x88 JUMPI DUP1 PUSH4 0x95D89B41 GT PUSH2 0x63 JUMPI DUP1 PUSH4 0x95D89B41 EQ PUSH2 0x1AD JUMPI DUP1 PUSH4 0xA457C2D7 EQ PUSH2 0x1B5 JUMPI DUP1 PUSH4 0xA9059CBB EQ PUSH2 0x1C8 JUMPI DUP1 PUSH4 0xDD62ED3E EQ PUSH2 0x1DB JUMPI PUSH0 DUP1 REVERT JUMPDEST DUP1 PUSH4 0x42966C68 EQ PUSH2 0x15D JUMPI DUP1 PUSH4 0x70A08231 EQ PUSH2 0x172 JUMPI DUP1 PUSH4 0x79CC6790 EQ PUSH2 0x19A JUMPI PUSH0 DUP1 REVERT JUMPDEST DUP1 PUSH4 0x6FDDE03 EQ PUSH2 0xCF JUMPI DUP1 PUSH4 0x95EA7B3 EQ PUSH2 0xED JUMPI DUP1 PUSH4 0x18160DDD EQ PUSH2 0x110 JUMPI DUP1 PUSH4 0x23B872DD EQ PUSH2 0x122 JUMPI DUP1 PUSH4 0x313CE567 EQ PUSH2 0x135 JUMPI DUP1 PUSH4 0x39509351 EQ PUSH2 0x14A JUMPI JUMPDEST PUSH0 DUP1 REVERT JUMPDEST PUSH2 0xD7 PUSH2 0x213 JUMP JUMPDEST PUSH1 0x40 MLOAD PUSH2 0xE4 SWAP2 SWAP1 PUSH2 0x8A4 JUMP JUMPDEST PUSH1 0x40 MLOAD DUP1 SWAP2 SUB SWAP1 RETURN JUMPDEST PUSH2 0x100 PUSH2 0xFB CALLDATASIZE PUSH1 0x4 PUSH2 0x90A JUMP JUMPDEST PUSH2 0x2A3 JUMP JUMPDEST PUSH1 0x40 MLOAD SWAP1 ISZERO ISZERO DUP2 MSTORE PUSH1 0x20 ADD PUSH2 0xE4 JUMP JUMPDEST PUSH1 0x2 SLOAD JUMPDEST PUSH1 0x40 MLOAD SWAP1 DUP2 MSTORE PUSH1 0x20 ADD PUSH2 0xE4 JUMP JUMPDEST PUSH2 0x100 PUSH2 0x130 CALLDATASIZE PUSH1 0x4 PUSH2 0x932 JUMP JUMPDEST PUSH2 0x2B9 JUMP JUMPDEST PUSH1 0x5 SLOAD PUSH1 0x40 MLOAD PUSH1 0xFF SWAP1 SWAP2 AND DUP2 MSTORE PUSH1 0x20 ADD PUSH2 0xE4 JUMP JUMPDEST PUSH2 0x100 PUSH2 0x158 CALLDATASIZE PUSH1 0x4 PUSH2 0x90A JUMP JUMPDEST PUSH2 0x320 JUMP JUMPDEST PUSH2 0x170 PUSH2 0x16B CALLDATASIZE PUSH1 0x4 PUSH2 0x96B JUMP JUMPDEST PUSH2 0x355 JUMP JUMPDEST STOP JUMPDEST PUSH2 0x114 PUSH2 0x180 CALLDATASIZE PUSH1 0x4 PUSH2 0x982 JUMP JUMPDEST PUSH1 0x1 PUSH1 0x1 PUSH1 0xA0 SHL SUB AND PUSH0 SWAP1 DUP2 MSTORE PUSH1 0x20 DUP2 SWAP1 MSTORE PUSH1 0x40 SWAP1 KECCAK256 SLOAD SWAP1 JUMP JUMPDEST PUSH2 0x170 PUSH2 0x1A8 CALLDATASIZE PUSH1 0x4 PUSH2 0x90A JUMP JUMPDEST PUSH2 0x362 JUMP JUMPDEST PUSH2 0xD7 PUSH2 0x3AD JUMP JUMPDEST PUSH2 0x100 PUSH2 0x1C3 CALLDATASIZE PUSH1 0x4 PUSH2 0x90A JUMP JUMPDEST PUSH2 0x3BC JUMP JUMPDEST PUSH2 0x100 PUSH2 0x1D6 CALLDATASIZE PUSH1 0x4 PUSH2 0x90A JUMP JUMPDEST PUSH2 0x409 JUMP JUMPDEST PUSH2 0x114 PUSH2 0x1E9 CALLDATASIZE PUSH1 0x4 PUSH2 0x99B JUMP JUMPDEST PUSH1 0x1 PUSH1 0x1 PUSH1 0xA0 SHL SUB SWAP2 DUP3 AND PUSH0 SWAP1 DUP2 MSTORE PUSH1 0x1 PUSH1 0x20 SWAP1 DUP2 MSTORE PUSH1 0x40 DUP1 DUP4 KECCAK256 SWAP4 SWAP1 SWAP5 AND DUP3 MSTORE SWAP2 SWAP1 SWAP2 MSTORE KECCAK256 SLOAD SWAP1 JUMP JUMPDEST PUSH1 0x60 PUSH1 0x3 DUP1 SLOAD PUSH2 0x222 SWAP1 PUSH2 0x9CC JUMP JUMPDEST DUP1 PUSH1 0x1F ADD PUSH1 0x20 DUP1 SWAP2 DIV MUL PUSH1 0x20 ADD PUSH1 0x40 MLOAD SWAP1 DUP2 ADD PUSH1 0x40 MSTORE DUP1 SWAP3 SWAP2 SWAP1 DUP2 DUP2 MSTORE PUSH1 0x20 ADD DUP3 DUP1 SLOAD PUSH2 0x24E SWAP1 PUSH2 0x9CC JUMP JUMPDEST DUP1 ISZERO PUSH2 0x299 JUMPI DUP1 PUSH1 0x1F LT PUSH2 0x270 JUMPI PUSH2 0x100 DUP1 DUP4 SLOAD DIV MUL DUP4 MSTORE SWAP2 PUSH1 0x20 ADD SWAP2 PUSH2 0x299 JUMP JUMPDEST DUP3 ADD SWAP2 SWAP1 PUSH0 MSTORE PUSH1 0x20 PUSH0 KECCAK256 SWAP1 JUMPDEST DUP2 SLOAD DUP2 MSTORE SWAP1 PUSH1 0x1 ADD SWAP1 PUSH1 0x20 ADD DUP1 DUP4 GT PUSH2 0x27C JUMPI DUP3 SWAP1 SUB PUSH1 0x1F AND DUP3 ADD SWAP2 JUMPDEST POP POP POP POP POP SWAP1 POP SWAP1 JUMP JUMPDEST PUSH0 PUSH2 0x2AF CALLER DUP5 DUP5 PUSH2 0x415 JUMP JUMPDEST POP PUSH1 0x1 JUMPDEST SWAP3 SWAP2 POP POP JUMP JUMPDEST PUSH0 PUSH2 0x2C5 DUP5 DUP5 DUP5 PUSH2 0x53E JUMP JUMPDEST PUSH2 0x316 DUP5 CALLER PUSH2 0x311 DUP6 PUSH1 0x40 MLOAD DUP1 PUSH1 0x60 ADD PUSH1 0x40 MSTORE DUP1 PUSH1 0x28 DUP2 MSTORE PUSH1 0x20 ADD PUSH2 0xA87 PUSH1 0x28 SWAP2 CODECOPY PUSH1 0x1 PUSH1 0x1 PUSH1 0xA0 SHL SUB DUP11 AND PUSH0 SWAP1 DUP2 MSTORE PUSH1 0x1 PUSH1 0x20 SWAP1 DUP2 MSTORE PUSH1 0x40 DUP1 DUP4 KECCAK256 CALLER DUP5 MSTORE SWAP1 SWAP2 MSTORE SWAP1 KECCAK256 SLOAD SWAP2 SWAP1 PUSH2 0x6BE JUMP JUMPDEST PUSH2 0x415 JUMP JUMPDEST POP PUSH1 0x1 SWAP4 SWAP3 POP POP POP JUMP JUMPDEST CALLER PUSH0 DUP2 DUP2 MSTORE PUSH1 0x1 PUSH1 0x20 SWAP1 DUP2 MSTORE PUSH1 0x40 DUP1 DUP4 KECCAK256 PUSH1 0x1 PUSH1 0x1 PUSH1 0xA0 SHL SUB DUP8 AND DUP5 MSTORE SWAP1 SWAP2 MSTORE DUP2 KECCAK256 SLOAD SWAP1 SWAP2 PUSH2 0x2AF SWAP2 DUP6 SWAP1 PUSH2 0x311 SWAP1 DUP7 PUSH2 0x6F6 JUMP JUMPDEST PUSH2 0x35F CALLER DUP3 PUSH2 0x75B JUMP JUMPDEST POP JUMP JUMPDEST PUSH0 PUSH2 0x391 DUP3 PUSH1 0x40 MLOAD DUP1 PUSH1 0x60 ADD PUSH1 0x40 MSTORE DUP1 PUSH1 0x24 DUP2 MSTORE PUSH1 0x20 ADD PUSH2 0xAAF PUSH1 0x24 SWAP2 CODECOPY PUSH2 0x38A DUP7 CALLER PUSH2 0x1E9 JUMP JUMPDEST SWAP2 SWAP1 PUSH2 0x6BE JUMP JUMPDEST SWAP1 POP PUSH2 0x39E DUP4 CALLER DUP4 PUSH2 0x415 JUMP JUMPDEST PUSH2 0x3A8 DUP4 DUP4 PUSH2 0x75B JUMP JUMPDEST POP POP POP JUMP JUMPDEST PUSH1 0x60 PUSH1 0x4 DUP1 SLOAD PUSH2 0x222 SWAP1 PUSH2 0x9CC JUMP JUMPDEST PUSH0 PUSH2 0x2AF CALLER DUP5 PUSH2 0x311 DUP6 PUSH1 0x40 MLOAD DUP1 PUSH1 0x60 ADD PUSH1 0x40 MSTORE DUP1 PUSH1 0x25 DUP2 MSTORE PUSH1 0x20 ADD PUSH2 0xAD3 PUSH1 0x25 SWAP2 CODECOPY CALLER PUSH0 SWAP1 DUP2 MSTORE PUSH1 0x1 PUSH1 0x20 SWAP1 DUP2 MSTORE PUSH1 0x40 DUP1 DUP4 KECCAK256 PUSH1 0x1 PUSH1 0x1 PUSH1 0xA0 SHL SUB DUP14 AND DUP5 MSTORE SWAP1 SWAP2 MSTORE SWAP1 KECCAK256 SLOAD SWAP2 SWAP1 PUSH2 0x6BE JUMP JUMPDEST PUSH0 PUSH2 0x2AF CALLER DUP5 DUP5 PUSH2 0x53E JUMP JUMPDEST PUSH1 0x1 PUSH1 0x1 PUSH1 0xA0 SHL SUB DUP4 AND PUSH2 0x47C JUMPI PUSH1 0x40 MLOAD PUSH3 0x461BCD PUSH1 0xE5 SHL DUP2 MSTORE PUSH1 0x20 PUSH1 0x4 DUP3 ADD MSTORE PUSH1 0x24 DUP1 DUP3 ADD MSTORE PUSH32 0x45524332303A20617070726F76652066726F6D20746865207A65726F20616464 PUSH1 0x44 DUP3 ADD MSTORE PUSH4 0x72657373 PUSH1 0xE0 SHL PUSH1 0x64 DUP3 ADD MSTORE PUSH1 0x84 ADD JUMPDEST PUSH1 0x40 MLOAD DUP1 SWAP2 SUB SWAP1 REVERT JUMPDEST PUSH1 0x1 PUSH1 0x1 PUSH1 0xA0 SHL SUB DUP3 AND PUSH2 0x4DD JUMPI PUSH1 0x40 MLOAD PUSH3 0x461BCD PUSH1 0xE5 SHL DUP2 MSTORE PUSH1 0x20 PUSH1 0x4 DUP3 ADD MSTORE PUSH1 0x22 PUSH1 0x24 DUP3 ADD MSTORE PUSH32 0x45524332303A20617070726F766520746F20746865207A65726F206164647265 PUSH1 0x44 DUP3 ADD MSTORE PUSH2 0x7373 PUSH1 0xF0 SHL PUSH1 0x64 DUP3 ADD MSTORE PUSH1 0x84 ADD PUSH2 0x473 JUMP JUMPDEST PUSH1 0x1 PUSH1 0x1 PUSH1 0xA0 SHL SUB DUP4 DUP2 AND PUSH0 DUP2 DUP2 MSTORE PUSH1 0x1 PUSH1 0x20 SWAP1 DUP2 MSTORE PUSH1 0x40 DUP1 DUP4 KECCAK256 SWAP5 DUP8 AND DUP1 DUP5 MSTORE SWAP5 DUP3 MSTORE SWAP2 DUP3 SWAP1 KECCAK256 DUP6 SWAP1 SSTORE SWAP1 MLOAD DUP5 DUP2 MSTORE PUSH32 0x8C5BE1E5EBEC7D5BD14F71427D1E84F3DD0314C0F7B2291E5B200AC8C7C3B925 SWAP2 ADD JUMPDEST PUSH1 0x40 MLOAD DUP1 SWAP2 SUB SWAP1 LOG3 POP POP POP JUMP JUMPDEST PUSH1 0x1 PUSH1 0x1 PUSH1 0xA0 SHL SUB DUP4 AND PUSH2 0x5A2 JUMPI PUSH1 0x40 MLOAD PUSH3 0x461BCD PUSH1 0xE5 SHL DUP2 MSTORE PUSH1 0x20 PUSH1 0x4 DUP3 ADD MSTORE PUSH1 0x25 PUSH1 0x24 DUP3 ADD MSTORE PUSH32 0x45524332303A207472616E736665722066726F6D20746865207A65726F206164 PUSH1 0x44 DUP3 ADD MSTORE PUSH5 0x6472657373 PUSH1 0xD8 SHL PUSH1 0x64 DUP3 ADD MSTORE PUSH1 0x84 ADD PUSH2 0x473 JUMP JUMPDEST PUSH1 0x1 PUSH1 0x1 PUSH1 0xA0 SHL SUB DUP3 AND PUSH2 0x604 JUMPI PUSH1 0x40 MLOAD PUSH3 0x461BCD PUSH1 0xE5 SHL DUP2 MSTORE PUSH1 0x20 PUSH1 0x4 DUP3 ADD MSTORE PUSH1 0x23 PUSH1 0x24 DUP3 ADD MSTORE PUSH32 0x45524332303A207472616E7366657220746F20746865207A65726F2061646472 PUSH1 0x44 DUP3 ADD MSTORE PUSH3 0x657373 PUSH1 0xE8 SHL PUSH1 0x64 DUP3 ADD MSTORE PUSH1 0x84 ADD PUSH2 0x473 JUMP JUMPDEST PUSH2 0x640 DUP2 PUSH1 0x40 MLOAD DUP1 PUSH1 0x60 ADD PUSH1 0x40 MSTORE DUP1 PUSH1 0x26 DUP2 MSTORE PUSH1 0x20 ADD PUSH2 0xA61 PUSH1 0x26 SWAP2 CODECOPY PUSH1 0x1 PUSH1 0x1 PUSH1 0xA0 SHL SUB DUP7 AND PUSH0 SWAP1 DUP2 MSTORE PUSH1 0x20 DUP2 SWAP1 MSTORE PUSH1 0x40 SWAP1 KECCAK256 SLOAD SWAP2 SWAP1 PUSH2 0x6BE JUMP JUMPDEST PUSH1 0x1 PUSH1 0x1 PUSH1 0xA0 SHL SUB DUP1 DUP6 AND PUSH0 SWAP1 DUP2 MSTORE PUSH1 0x20 DUP2 SWAP1 MSTORE PUSH1 0x40 DUP1 DUP3 KECCAK256 SWAP4 SWAP1 SWAP4 SSTORE SWAP1 DUP5 AND DUP2 MSTORE KECCAK256 SLOAD PUSH2 0x66E SWAP1 DUP3 PUSH2 0x6F6 JUMP JUMPDEST PUSH1 0x1 PUSH1 0x1 PUSH1 0xA0 SHL SUB DUP4 DUP2 AND PUSH0 DUP2 DUP2 MSTORE PUSH1 0x20 DUP2 DUP2 MSTORE PUSH1 0x40 SWAP2 DUP3 SWAP1 KECCAK256 SWAP5 SWAP1 SWAP5 SSTORE MLOAD DUP5 DUP2 MSTORE SWAP1 SWAP3 SWAP2 DUP7 AND SWAP2 PUSH32 0xDDF252AD1BE2C89B69C2B068FC378DAA952BA7F163C4A11628F55A4DF523B3EF SWAP2 ADD PUSH2 0x531 JUMP JUMPDEST PUSH0 DUP2 DUP5 DUP5 GT ISZERO PUSH2 0x6E1 JUMPI PUSH1 0x40 MLOAD PUSH3 0x461BCD PUSH1 0xE5 SHL DUP2 MSTORE PUSH1 0x4 ADD PUSH2 0x473 SWAP2 SWAP1 PUSH2 0x8A4 JUMP JUMPDEST POP PUSH0 PUSH2 0x6ED DUP5 DUP7 PUSH2 0xA18 JUMP JUMPDEST SWAP6 SWAP5 POP POP POP POP POP JUMP JUMPDEST PUSH0 DUP1 PUSH2 0x702 DUP4 DUP6 PUSH2 0xA2B JUMP JUMPDEST SWAP1 POP DUP4 DUP2 LT ISZERO PUSH2 0x754 JUMPI PUSH1 0x40 MLOAD PUSH3 0x461BCD PUSH1 0xE5 SHL DUP2 MSTORE PUSH1 0x20 PUSH1 0x4 DUP3 ADD MSTORE PUSH1 0x1B PUSH1 0x24 DUP3 ADD MSTORE PUSH32 0x536166654D6174683A206164646974696F6E206F766572666C6F770000000000 PUSH1 0x44 DUP3 ADD MSTORE PUSH1 0x64 ADD PUSH2 0x473 JUMP JUMPDEST SWAP4 SWAP3 POP POP POP JUMP JUMPDEST PUSH1 0x1 PUSH1 0x1 PUSH1 0xA0 SHL SUB DUP3 AND PUSH2 0x7BB JUMPI PUSH1 0x40 MLOAD PUSH3 0x461BCD PUSH1 0xE5 SHL DUP2 MSTORE PUSH1 0x20 PUSH1 0x4 DUP3 ADD MSTORE PUSH1 0x21 PUSH1 0x24 DUP3 ADD MSTORE PUSH32 0x45524332303A206275726E2066726F6D20746865207A65726F20616464726573 PUSH1 0x44 DUP3 ADD MSTORE PUSH1 0x73 PUSH1 0xF8 SHL PUSH1 0x64 DUP3 ADD MSTORE PUSH1 0x84 ADD PUSH2 0x473 JUMP JUMPDEST PUSH2 0x7F7 DUP2 PUSH1 0x40 MLOAD DUP1 PUSH1 0x60 ADD PUSH1 0x40 MSTORE DUP1 PUSH1 0x22 DUP2 MSTORE PUSH1 0x20 ADD PUSH2 0xA3F PUSH1 0x22 SWAP2 CODECOPY PUSH1 0x1 PUSH1 0x1 PUSH1 0xA0 SHL SUB DUP6 AND PUSH0 SWAP1 DUP2 MSTORE PUSH1 0x20 DUP2 SWAP1 MSTORE PUSH1 0x40 SWAP1 KECCAK256 SLOAD SWAP2 SWAP1 PUSH2 0x6BE JUMP JUMPDEST PUSH1 0x1 PUSH1 0x1 PUSH1 0xA0 SHL SUB DUP4 AND PUSH0 SWAP1 DUP2 MSTORE PUSH1 0x20 DUP2 SWAP1 MSTORE PUSH1 0x40 SWAP1 KECCAK256 SSTORE PUSH1 0x2 SLOAD PUSH2 0x81C SWAP1 DUP3 PUSH2 0x863 JUMP JUMPDEST PUSH1 0x2 SSTORE PUSH1 0x40 MLOAD DUP2 DUP2 MSTORE PUSH0 SWAP1 PUSH1 0x1 PUSH1 0x1 PUSH1 0xA0 SHL SUB DUP5 AND SWAP1 PUSH32 0xDDF252AD1BE2C89B69C2B068FC378DAA952BA7F163C4A11628F55A4DF523B3EF SWAP1 PUSH1 0x20 ADD PUSH1 0x40 MLOAD DUP1 SWAP2 SUB SWAP1 LOG3 POP POP JUMP JUMPDEST PUSH0 PUSH2 0x754 DUP4 DUP4 PUSH1 0x40 MLOAD DUP1 PUSH1 0x40 ADD PUSH1 0x40 MSTORE DUP1 PUSH1 0x1E DUP2 MSTORE PUSH1 0x20 ADD PUSH32 0x536166654D6174683A207375627472616374696F6E206F766572666C6F770000 DUP2 MSTORE POP PUSH2 0x6BE JUMP JUMPDEST PUSH0 PUSH1 0x20 DUP1 DUP4 MSTORE DUP4 MLOAD DUP1 DUP3 DUP6 ADD MSTORE PUSH0 JUMPDEST DUP2 DUP2 LT ISZERO PUSH2 0x8CF JUMPI DUP6 DUP2 ADD DUP4 ADD MLOAD DUP6 DUP3 ADD PUSH1 0x40 ADD MSTORE DUP3 ADD PUSH2 0x8B3 JUMP JUMPDEST POP PUSH0 PUSH1 0x40 DUP3 DUP7 ADD ADD MSTORE PUSH1 0x40 PUSH1 0x1F NOT PUSH1 0x1F DUP4 ADD AND DUP6 ADD ADD SWAP3 POP POP POP SWAP3 SWAP2 POP POP JUMP JUMPDEST DUP1 CALLDATALOAD PUSH1 0x1 PUSH1 0x1 PUSH1 0xA0 SHL SUB DUP2 AND DUP2 EQ PUSH2 0x905 JUMPI PUSH0 DUP1 REVERT JUMPDEST SWAP2 SWAP1 POP JUMP JUMPDEST PUSH0 DUP1 PUSH1 0x40 DUP4 DUP6 SUB SLT ISZERO PUSH2 0x91B JUMPI PUSH0 DUP1 REVERT JUMPDEST PUSH2 0x924 DUP4 PUSH2 0x8EF JUMP JUMPDEST SWAP5 PUSH1 0x20 SWAP4 SWAP1 SWAP4 ADD CALLDATALOAD SWAP4 POP POP POP JUMP JUMPDEST PUSH0 DUP1 PUSH0 PUSH1 0x60 DUP5 DUP7 SUB SLT ISZERO PUSH2 0x944 JUMPI PUSH0 DUP1 REVERT JUMPDEST PUSH2 0x94D DUP5 PUSH2 0x8EF JUMP JUMPDEST SWAP3 POP PUSH2 0x95B PUSH1 0x20 DUP6 ADD PUSH2 0x8EF JUMP JUMPDEST SWAP2 POP PUSH1 0x40 DUP5 ADD CALLDATALOAD SWAP1 POP SWAP3 POP SWAP3 POP SWAP3 JUMP JUMPDEST PUSH0 PUSH1 0x20 DUP3 DUP5 SUB SLT ISZERO PUSH2 0x97B JUMPI PUSH0 DUP1 REVERT JUMPDEST POP CALLDATALOAD SWAP2 SWAP1 POP JUMP JUMPDEST PUSH0 PUSH1 0x20 DUP3 DUP5 SUB SLT ISZERO PUSH2 0x992 JUMPI PUSH0 DUP1 REVERT JUMPDEST PUSH2 0x754 DUP3 PUSH2 0x8EF JUMP JUMPDEST PUSH0 DUP1 PUSH1 0x40 DUP4 DUP6 SUB SLT ISZERO PUSH2 0x9AC JUMPI PUSH0 DUP1 REVERT JUMPDEST PUSH2 0x9B5 DUP4 PUSH2 0x8EF JUMP JUMPDEST SWAP2 POP PUSH2 0x9C3 PUSH1 0x20 DUP5 ADD PUSH2 0x8EF JUMP JUMPDEST SWAP1 POP SWAP3 POP SWAP3 SWAP1 POP JUMP JUMPDEST PUSH1 0x1 DUP2 DUP2 SHR SWAP1 DUP3 AND DUP1 PUSH2 0x9E0 JUMPI PUSH1 0x7F DUP3 AND SWAP2 POP JUMPDEST PUSH1 0x20 DUP3 LT DUP2 SUB PUSH2 0x9FE JUMPI PUSH4 0x4E487B71 PUSH1 0xE0 SHL PUSH0 MSTORE PUSH1 0x22 PUSH1 0x4 MSTORE PUSH1 0x24 PUSH0 REVERT JUMPDEST POP SWAP2 SWAP1 POP JUMP JUMPDEST PUSH4 0x4E487B71 PUSH1 0xE0 SHL PUSH0 MSTORE PUSH1 0x11 PUSH1 0x4 MSTORE PUSH1 0x24 PUSH0 REVERT JUMPDEST DUP2 DUP2 SUB DUP2 DUP2 GT ISZERO PUSH2 0x2B3 JUMPI PUSH2 0x2B3 PUSH2 0xA04 JUMP JUMPDEST DUP1 DUP3 ADD DUP1 DUP3 GT ISZERO PUSH2 0x2B3 JUMPI PUSH2 0x2B3 PUSH2 0xA04 JUMP INVALID GASLIMIT MSTORE NUMBER ORIGIN ADDRESS GASPRICE KECCAK256 PUSH3 0x75726E KECCAK256 PUSH2 0x6D6F PUSH22 0x6E7420657863656564732062616C616E636545524332 ADDRESS GASPRICE KECCAK256 PUSH21 0x72616E7366657220616D6F756E7420657863656564 PUSH20 0x2062616C616E636545524332303A207472616E73 PUSH7 0x657220616D6F75 PUSH15 0x74206578636565647320616C6C6F77 PUSH2 0x6E63 PUSH6 0x45524332303A KECCAK256 PUSH3 0x75726E KECCAK256 PUSH2 0x6D6F PUSH22 0x6E74206578636565647320616C6C6F77616E63654552 NUMBER ORIGIN ADDRESS GASPRICE KECCAK256 PUSH5 0x6563726561 PUSH20 0x656420616C6C6F77616E63652062656C6F77207A PUSH6 0x726FA2646970 PUSH7 0x735822122014E7 EQ 0x21 RETURN 0x28 SGT 0xE6 CODECOPY PUSH30 0x990F3BB197397A40426F22D1893C7B955031001C115A64736F6C63430008 ISZERO STOP CALLER "
				},
				"gasEstimates": {
					"creation": {
						"codeDepositCost": "572200",
						"executionCost": "infinite",
						"totalCost": "infinite"
					},
					"external": {
						"allowance(address,address)": "infinite",
						"approve(address,uint256)": "24617",
						"balanceOf(address)": "2582",
						"burn(uint256)": "infinite",
						"burnFrom(address,uint256)": "infinite",
						"decimals()": "2377",
						"decreaseAllowance(address,uint256)": "infinite",
						"increaseAllowance(address,uint256)": "infinite",
						"name()": "infinite",
						"symbol()": "infinite",
						"totalSupply()": "2325",
						"transfer(address,uint256)": "infinite",
						"transferFrom(address,address,uint256)": "infinite"
					},
					"internal": {
						"_approve(address,address,uint256)": "infinite",
						"_beforeTokenTransfer(address,address,uint256)": "infinite",
						"_burn(address,uint256)": "infinite",
						"_burnFrom(address,uint256)": "infinite",
						"_mint(address,uint256)": "infinite",
						"_transfer(address,address,uint256)": "infinite"
					}
				},
				"methodIdentifiers": {
					"allowance(address,address)": "dd62ed3e",
					"approve(address,uint256)": "095ea7b3",
					"balanceOf(address)": "70a08231",
					"burn(uint256)": "42966c68",
					"burnFrom(address,uint256)": "79cc6790",
					"decimals()": "313ce567",
					"decreaseAllowance(address,uint256)": "a457c2d7",
					"increaseAllowance(address,uint256)": "39509351",
					"name()": "06fdde03",
					"symbol()": "95d89b41",
					"totalSupply()": "18160ddd",
					"transfer(address,uint256)": "a9059cbb",
					"transferFrom(address,address,uint256)": "23b872dd"
				}
			},
			"storageLayout": {
				"storage": [
					{
						"astId": 43,
						"contract": "NewFraxProtocol/contracts/ERC20/ERC20.sol:ERC20",
						"label": "_balances",
						"offset": 0,
						"slot": "0",
						"type": "t_mapping(t_address,t_uint256)"
					},
					{
						"astId": 49,
						"contract": "NewFraxProtocol/contracts/ERC20/ERC20.sol:ERC20",
						"label": "_allowances",
						"offset": 0,
						"slot": "1",
						"type": "t_mapping(t_address,t_mapping(t_address,t_uint256))"
					},
					{
						"astId": 51,
						"contract": "NewFraxProtocol/contracts/ERC20/ERC20.sol:ERC20",
						"label": "_totalSupply",
						"offset": 0,
						"slot": "2",
						"type": "t_uint256"
					},
					{
						"astId": 53,
						"contract": "NewFraxProtocol/contracts/ERC20/ERC20.sol:ERC20",
						"label": "_name",
						"offset": 0,
						"slot": "3",
						"type": "t_string_storage"
					},
					{
						"astId": 55,
						"contract": "NewFraxProtocol/contracts/ERC20/ERC20.sol:ERC20",
						"label": "_symbol",
						"offset": 0,
						"slot": "4",
						"type": "t_string_storage"
					},
					{
						"astId": 57,
						"contract": "NewFraxProtocol/contracts/ERC20/ERC20.sol:ERC20",
						"label": "_decimals",
						"offset": 0,
						"slot": "5",
						"type": "t_uint8"
					}
				],
				"types": {
					"t_address": {
						"encoding": "inplace",
						"label": "address",
						"numberOfBytes": "20"
					},
					"t_mapping(t_address,t_mapping(t_address,t_uint256))": {
						"encoding": "mapping",
						"key": "t_address",
						"label": "mapping(address => mapping(address => uint256))",
						"numberOfBytes": "32",
						"value": "t_mapping(t_address,t_uint256)"
					},
					"t_mapping(t_address,t_uint256)": {
						"encoding": "mapping",
						"key": "t_address",
						"label": "mapping(address => uint256)",
						"numberOfBytes": "32",
						"value": "t_uint256"
					},
					"t_string_storage": {
						"encoding": "bytes",
						"label": "string",
						"numberOfBytes": "32"
					},
					"t_uint256": {
						"encoding": "inplace",
						"label": "uint256",
						"numberOfBytes": "32"
					},
					"t_uint8": {
						"encoding": "inplace",
						"label": "uint8",
						"numberOfBytes": "1"
					}
				}
			},
			"userdoc": {
				"kind": "user",
				"methods": {},
				"version": 1
			}
		}
	}
}