{
	"Heliocontracts/contracts/masterVault/MasterVault.sol": {
		"MasterVault": {
			"abi": [
				{
					"anonymous": false,
					"inputs": [
						{
							"indexed": false,
							"internalType": "address",
							"name": "binancePool",
							"type": "address"
						}
					],
					"name": "BinancePoolChanged",
					"type": "event"
				},
				{
					"anonymous": false,
					"inputs": [
						{
							"indexed": true,
							"internalType": "address",
							"name": "caller",
							"type": "address"
						},
						{
							"indexed": true,
							"internalType": "address",
							"name": "owner",
							"type": "address"
						},
						{
							"indexed": false,
							"internalType": "uint256",
							"name": "assets",
							"type": "uint256"
						},
						{
							"indexed": false,
							"internalType": "uint256",
							"name": "shares",
							"type": "uint256"
						}
					],
					"name": "Deposit",
					"type": "event"
				},
				{
					"anonymous": false,
					"inputs": [
						{
							"indexed": false,
							"internalType": "uint256",
							"name": "newDepositFee",
							"type": "uint256"
						}
					],
					"name": "DepositFeeChanged",
					"type": "event"
				},
				{
					"anonymous": false,
					"inputs": [
						{
							"indexed": false,
							"internalType": "address",
							"name": "strategy",
							"type": "address"
						},
						{
							"indexed": false,
							"internalType": "uint256",
							"name": "amount",
							"type": "uint256"
						}
					],
					"name": "DepositedToStrategy",
					"type": "event"
				},
				{
					"anonymous": false,
					"inputs": [
						{
							"indexed": true,
							"internalType": "address",
							"name": "receiver",
							"type": "address"
						},
						{
							"indexed": false,
							"internalType": "uint256",
							"name": "amount",
							"type": "uint256"
						}
					],
					"name": "FeeClaimed",
					"type": "event"
				},
				{
					"anonymous": false,
					"inputs": [
						{
							"indexed": false,
							"internalType": "address",
							"name": "feeReceiver",
							"type": "address"
						}
					],
					"name": "FeeReceiverChanged",
					"type": "event"
				},
				{
					"anonymous": false,
					"inputs": [
						{
							"indexed": false,
							"internalType": "uint8",
							"name": "version",
							"type": "uint8"
						}
					],
					"name": "Initialized",
					"type": "event"
				},
				{
					"anonymous": false,
					"inputs": [
						{
							"indexed": false,
							"internalType": "address",
							"name": "newManager",
							"type": "address"
						}
					],
					"name": "ManagerAdded",
					"type": "event"
				},
				{
					"anonymous": false,
					"inputs": [
						{
							"indexed": false,
							"internalType": "address",
							"name": "manager",
							"type": "address"
						}
					],
					"name": "ManagerRemoved",
					"type": "event"
				},
				{
					"anonymous": false,
					"inputs": [
						{
							"indexed": false,
							"internalType": "uint256",
							"name": "newMaxDepositFee",
							"type": "uint256"
						}
					],
					"name": "MaxDepositFeeChanged",
					"type": "event"
				},
				{
					"anonymous": false,
					"inputs": [
						{
							"indexed": false,
							"internalType": "uint256",
							"name": "newMaxWithdrawalFee",
							"type": "uint256"
						}
					],
					"name": "MaxWithdrawalFeeChanged",
					"type": "event"
				},
				{
					"anonymous": false,
					"inputs": [
						{
							"indexed": true,
							"internalType": "address",
							"name": "previousOwner",
							"type": "address"
						},
						{
							"indexed": true,
							"internalType": "address",
							"name": "newOwner",
							"type": "address"
						}
					],
					"name": "OwnershipTransferred",
					"type": "event"
				},
				{
					"anonymous": false,
					"inputs": [
						{
							"indexed": false,
							"internalType": "address",
							"name": "account",
							"type": "address"
						}
					],
					"name": "Paused",
					"type": "event"
				},
				{
					"anonymous": false,
					"inputs": [
						{
							"indexed": false,
							"internalType": "address",
							"name": "provider",
							"type": "address"
						}
					],
					"name": "ProviderChanged",
					"type": "event"
				},
				{
					"anonymous": false,
					"inputs": [
						{
							"indexed": false,
							"internalType": "address",
							"name": "ceRouter",
							"type": "address"
						}
					],
					"name": "RouterChanged",
					"type": "event"
				},
				{
					"anonymous": false,
					"inputs": [
						{
							"indexed": false,
							"internalType": "address",
							"name": "strategy",
							"type": "address"
						},
						{
							"indexed": false,
							"internalType": "uint256",
							"name": "allocation",
							"type": "uint256"
						}
					],
					"name": "StrategyAdded",
					"type": "event"
				},
				{
					"anonymous": false,
					"inputs": [
						{
							"indexed": false,
							"internalType": "address",
							"name": "strategy",
							"type": "address"
						},
						{
							"indexed": false,
							"internalType": "uint256",
							"name": "allocation",
							"type": "uint256"
						}
					],
					"name": "StrategyAllocationChanged",
					"type": "event"
				},
				{
					"anonymous": false,
					"inputs": [
						{
							"indexed": false,
							"internalType": "address",
							"name": "oldStrategy",
							"type": "address"
						},
						{
							"indexed": false,
							"internalType": "address",
							"name": "newStrategy",
							"type": "address"
						},
						{
							"indexed": false,
							"internalType": "uint256",
							"name": "newAllocation",
							"type": "uint256"
						}
					],
					"name": "StrategyMigrated",
					"type": "event"
				},
				{
					"anonymous": false,
					"inputs": [
						{
							"indexed": false,
							"internalType": "address",
							"name": "account",
							"type": "address"
						}
					],
					"name": "Unpaused",
					"type": "event"
				},
				{
					"anonymous": false,
					"inputs": [
						{
							"indexed": false,
							"internalType": "uint256",
							"name": "cap",
							"type": "uint256"
						}
					],
					"name": "WaitingPoolCapChanged",
					"type": "event"
				},
				{
					"anonymous": false,
					"inputs": [
						{
							"indexed": false,
							"internalType": "address",
							"name": "waitingPool",
							"type": "address"
						}
					],
					"name": "WaitingPoolChanged",
					"type": "event"
				},
				{
					"anonymous": false,
					"inputs": [
						{
							"indexed": true,
							"internalType": "address",
							"name": "caller",
							"type": "address"
						},
						{
							"indexed": true,
							"internalType": "address",
							"name": "receiver",
							"type": "address"
						},
						{
							"indexed": true,
							"internalType": "address",
							"name": "owner",
							"type": "address"
						},
						{
							"indexed": false,
							"internalType": "uint256",
							"name": "assets",
							"type": "uint256"
						},
						{
							"indexed": false,
							"internalType": "uint256",
							"name": "shares",
							"type": "uint256"
						}
					],
					"name": "Withdraw",
					"type": "event"
				},
				{
					"anonymous": false,
					"inputs": [
						{
							"indexed": false,
							"internalType": "uint256",
							"name": "newWithdrawalFee",
							"type": "uint256"
						}
					],
					"name": "WithdrawalFeeChanged",
					"type": "event"
				},
				{
					"anonymous": false,
					"inputs": [
						{
							"indexed": false,
							"internalType": "address",
							"name": "strategy",
							"type": "address"
						},
						{
							"indexed": false,
							"internalType": "uint256",
							"name": "value",
							"type": "uint256"
						}
					],
					"name": "WithdrawnFromStrategy",
					"type": "event"
				},
				{
					"anonymous": false,
					"inputs": [
						{
							"indexed": false,
							"internalType": "address",
							"name": "strategy",
							"type": "address"
						},
						{
							"indexed": false,
							"internalType": "uint256",
							"name": "value",
							"type": "uint256"
						}
					],
					"name": "WithdrawnInTokenFromStrategy",
					"type": "event"
				},
				{
					"inputs": [],
					"name": "MAX_STRATEGIES",
					"outputs": [
						{
							"internalType": "uint256",
							"name": "",
							"type": "uint256"
						}
					],
					"stateMutability": "view",
					"type": "function"
				},
				{
					"inputs": [
						{
							"internalType": "address",
							"name": "newManager",
							"type": "address"
						}
					],
					"name": "addManager",
					"outputs": [],
					"stateMutability": "nonpayable",
					"type": "function"
				},
				{
					"inputs": [],
					"name": "allocate",
					"outputs": [],
					"stateMutability": "nonpayable",
					"type": "function"
				},
				{
					"inputs": [],
					"name": "asset",
					"outputs": [
						{
							"internalType": "address",
							"name": "",
							"type": "address"
						}
					],
					"stateMutability": "view",
					"type": "function"
				},
				{
					"inputs": [],
					"name": "availableToWithdraw",
					"outputs": [
						{
							"internalType": "uint256",
							"name": "available",
							"type": "uint256"
						}
					],
					"stateMutability": "view",
					"type": "function"
				},
				{
					"inputs": [
						{
							"internalType": "address",
							"name": "strategy",
							"type": "address"
						}
					],
					"name": "balanceOfTokenFromStrategy",
					"outputs": [
						{
							"internalType": "uint256",
							"name": "",
							"type": "uint256"
						}
					],
					"stateMutability": "view",
					"type": "function"
				},
				{
					"inputs": [
						{
							"internalType": "address payable",
							"name": "_feeReceiver",
							"type": "address"
						}
					],
					"name": "changeFeeReceiver",
					"outputs": [],
					"stateMutability": "nonpayable",
					"type": "function"
				},
				{
					"inputs": [
						{
							"internalType": "address",
							"name": "newProvider",
							"type": "address"
						}
					],
					"name": "changeProvider",
					"outputs": [],
					"stateMutability": "nonpayable",
					"type": "function"
				},
				{
					"inputs": [
						{
							"internalType": "address",
							"name": "strategy",
							"type": "address"
						},
						{
							"internalType": "uint256",
							"name": "allocation",
							"type": "uint256"
						}
					],
					"name": "changeStrategyAllocation",
					"outputs": [],
					"stateMutability": "nonpayable",
					"type": "function"
				},
				{
					"inputs": [
						{
							"internalType": "address",
							"name": "strategy",
							"type": "address"
						}
					],
					"name": "depositAllToStrategy",
					"outputs": [],
					"stateMutability": "nonpayable",
					"type": "function"
				},
				{
					"inputs": [],
					"name": "depositETH",
					"outputs": [
						{
							"internalType": "uint256",
							"name": "shares",
							"type": "uint256"
						}
					],
					"stateMutability": "payable",
					"type": "function"
				},
				{
					"inputs": [],
					"name": "depositFee",
					"outputs": [
						{
							"internalType": "uint256",
							"name": "",
							"type": "uint256"
						}
					],
					"stateMutability": "view",
					"type": "function"
				},
				{
					"inputs": [
						{
							"internalType": "address",
							"name": "strategy",
							"type": "address"
						},
						{
							"internalType": "uint256",
							"name": "amount",
							"type": "uint256"
						}
					],
					"name": "depositToStrategy",
					"outputs": [],
					"stateMutability": "nonpayable",
					"type": "function"
				},
				{
					"inputs": [
						{
							"internalType": "address",
							"name": "strategy",
							"type": "address"
						},
						{
							"internalType": "uint256",
							"name": "amount",
							"type": "uint256"
						}
					],
					"name": "estimateInTokenFromStrategy",
					"outputs": [
						{
							"internalType": "uint256",
							"name": "",
							"type": "uint256"
						}
					],
					"stateMutability": "view",
					"type": "function"
				},
				{
					"inputs": [],
					"name": "feeEarned",
					"outputs": [
						{
							"internalType": "uint256",
							"name": "",
							"type": "uint256"
						}
					],
					"stateMutability": "view",
					"type": "function"
				},
				{
					"inputs": [],
					"name": "feeReceiver",
					"outputs": [
						{
							"internalType": "address payable",
							"name": "",
							"type": "address"
						}
					],
					"stateMutability": "view",
					"type": "function"
				},
				{
					"inputs": [
						{
							"internalType": "uint256",
							"name": "maxDepositFees",
							"type": "uint256"
						},
						{
							"internalType": "uint256",
							"name": "maxWithdrawalFees",
							"type": "uint256"
						},
						{
							"internalType": "uint8",
							"name": "maxStrategies",
							"type": "uint8"
						},
						{
							"internalType": "address",
							"name": "ceToken",
							"type": "address"
						}
					],
					"name": "initialize",
					"outputs": [],
					"stateMutability": "nonpayable",
					"type": "function"
				},
				{
					"inputs": [
						{
							"internalType": "address",
							"name": "",
							"type": "address"
						}
					],
					"name": "manager",
					"outputs": [
						{
							"internalType": "bool",
							"name": "",
							"type": "bool"
						}
					],
					"stateMutability": "view",
					"type": "function"
				},
				{
					"inputs": [],
					"name": "maxDepositFee",
					"outputs": [
						{
							"internalType": "uint256",
							"name": "",
							"type": "uint256"
						}
					],
					"stateMutability": "view",
					"type": "function"
				},
				{
					"inputs": [],
					"name": "maxWithdrawalFee",
					"outputs": [
						{
							"internalType": "uint256",
							"name": "",
							"type": "uint256"
						}
					],
					"stateMutability": "view",
					"type": "function"
				},
				{
					"inputs": [
						{
							"internalType": "address",
							"name": "oldStrategy",
							"type": "address"
						},
						{
							"internalType": "address",
							"name": "newStrategy",
							"type": "address"
						},
						{
							"internalType": "uint256",
							"name": "newAllocation",
							"type": "uint256"
						}
					],
					"name": "migrateStrategy",
					"outputs": [],
					"stateMutability": "nonpayable",
					"type": "function"
				},
				{
					"inputs": [],
					"name": "owner",
					"outputs": [
						{
							"internalType": "address",
							"name": "",
							"type": "address"
						}
					],
					"stateMutability": "view",
					"type": "function"
				},
				{
					"inputs": [],
					"name": "pause",
					"outputs": [],
					"stateMutability": "nonpayable",
					"type": "function"
				},
				{
					"inputs": [],
					"name": "paused",
					"outputs": [
						{
							"internalType": "bool",
							"name": "",
							"type": "bool"
						}
					],
					"stateMutability": "view",
					"type": "function"
				},
				{
					"inputs": [],
					"name": "provider",
					"outputs": [
						{
							"internalType": "address",
							"name": "",
							"type": "address"
						}
					],
					"stateMutability": "view",
					"type": "function"
				},
				{
					"inputs": [
						{
							"internalType": "address",
							"name": "_manager",
							"type": "address"
						}
					],
					"name": "removeManager",
					"outputs": [],
					"stateMutability": "nonpayable",
					"type": "function"
				},
				{
					"inputs": [],
					"name": "renounceOwnership",
					"outputs": [],
					"stateMutability": "nonpayable",
					"type": "function"
				},
				{
					"inputs": [
						{
							"internalType": "address",
							"name": "strategy",
							"type": "address"
						}
					],
					"name": "retireStrat",
					"outputs": [],
					"stateMutability": "nonpayable",
					"type": "function"
				},
				{
					"inputs": [
						{
							"internalType": "uint256",
							"name": "newDepositFee",
							"type": "uint256"
						}
					],
					"name": "setDepositFee",
					"outputs": [],
					"stateMutability": "nonpayable",
					"type": "function"
				},
				{
					"inputs": [
						{
							"internalType": "address",
							"name": "strategy",
							"type": "address"
						},
						{
							"internalType": "uint256",
							"name": "allocation",
							"type": "uint256"
						}
					],
					"name": "setStrategy",
					"outputs": [],
					"stateMutability": "nonpayable",
					"type": "function"
				},
				{
					"inputs": [
						{
							"internalType": "uint256",
							"name": "newWithdrawalFee",
							"type": "uint256"
						}
					],
					"name": "setWithdrawalFee",
					"outputs": [],
					"stateMutability": "nonpayable",
					"type": "function"
				},
				{
					"inputs": [
						{
							"internalType": "uint256",
							"name": "",
							"type": "uint256"
						}
					],
					"name": "strategies",
					"outputs": [
						{
							"internalType": "address",
							"name": "",
							"type": "address"
						}
					],
					"stateMutability": "view",
					"type": "function"
				},
				{
					"inputs": [
						{
							"internalType": "address",
							"name": "",
							"type": "address"
						}
					],
					"name": "strategyParams",
					"outputs": [
						{
							"internalType": "bool",
							"name": "active",
							"type": "bool"
						},
						{
							"internalType": "uint256",
							"name": "allocation",
							"type": "uint256"
						},
						{
							"internalType": "uint256",
							"name": "debt",
							"type": "uint256"
						}
					],
					"stateMutability": "view",
					"type": "function"
				},
				{
					"inputs": [],
					"name": "totalAssetInVault",
					"outputs": [
						{
							"internalType": "uint256",
							"name": "balance",
							"type": "uint256"
						}
					],
					"stateMutability": "view",
					"type": "function"
				},
				{
					"inputs": [],
					"name": "totalAssets",
					"outputs": [
						{
							"internalType": "uint256",
							"name": "",
							"type": "uint256"
						}
					],
					"stateMutability": "view",
					"type": "function"
				},
				{
					"inputs": [],
					"name": "totalDebt",
					"outputs": [
						{
							"internalType": "uint256",
							"name": "",
							"type": "uint256"
						}
					],
					"stateMutability": "view",
					"type": "function"
				},
				{
					"inputs": [
						{
							"internalType": "address",
							"name": "newOwner",
							"type": "address"
						}
					],
					"name": "transferOwnership",
					"outputs": [],
					"stateMutability": "nonpayable",
					"type": "function"
				},
				{
					"inputs": [],
					"name": "unPause",
					"outputs": [],
					"stateMutability": "nonpayable",
					"type": "function"
				},
				{
					"inputs": [],
					"name": "vaultToken",
					"outputs": [
						{
							"internalType": "address",
							"name": "",
							"type": "address"
						}
					],
					"stateMutability": "view",
					"type": "function"
				},
				{
					"inputs": [],
					"name": "waitingPool",
					"outputs": [
						{
							"internalType": "contract IWaitingPool",
							"name": "",
							"type": "address"
						}
					],
					"stateMutability": "view",
					"type": "function"
				},
				{
					"inputs": [
						{
							"internalType": "address",
							"name": "strategy",
							"type": "address"
						}
					],
					"name": "withdrawAllFromStrategy",
					"outputs": [],
					"stateMutability": "nonpayable",
					"type": "function"
				},
				{
					"inputs": [
						{
							"internalType": "address",
							"name": "account",
							"type": "address"
						},
						{
							"internalType": "uint256",
							"name": "amount",
							"type": "uint256"
						}
					],
					"name": "withdrawETH",
					"outputs": [
						{
							"internalType": "uint256",
							"name": "shares",
							"type": "uint256"
						}
					],
					"stateMutability": "nonpayable",
					"type": "function"
				},
				{
					"inputs": [],
					"name": "withdrawFee",
					"outputs": [],
					"stateMutability": "nonpayable",
					"type": "function"
				},
				{
					"inputs": [
						{
							"internalType": "address",
							"name": "strategy",
							"type": "address"
						},
						{
							"internalType": "uint256",
							"name": "amount",
							"type": "uint256"
						}
					],
					"name": "withdrawFromStrategy",
					"outputs": [],
					"stateMutability": "nonpayable",
					"type": "function"
				},
				{
					"inputs": [
						{
							"internalType": "address",
							"name": "strategy",
							"type": "address"
						},
						{
							"internalType": "address",
							"name": "recipient",
							"type": "address"
						},
						{
							"internalType": "uint256",
							"name": "amount",
							"type": "uint256"
						}
					],
					"name": "withdrawInTokenFromStrategy",
					"outputs": [
						{
							"internalType": "uint256",
							"name": "",
							"type": "uint256"
						}
					],
					"stateMutability": "nonpayable",
					"type": "function"
				},
				{
					"inputs": [],
					"name": "withdrawalFee",
					"outputs": [
						{
							"internalType": "uint256",
							"name": "",
							"type": "uint256"
						}
					],
					"stateMutability": "view",
					"type": "function"
				},
				{
					"stateMutability": "payable",
					"type": "receive"
				}
			],
			"devdoc": {
				"kind": "dev",
				"methods": {
					"addManager(address)": {
						"details": "only owner can add new manager",
						"params": {
							"newManager": "new manager address"
						}
					},
					"allocate()": {
						"details": "Tries to allocate funds to strategies based on their allocations. NOTE: OnlyManager can trigger this function      (It will be triggered mostly in case of deposits)"
					},
					"availableToWithdraw()": {
						"details": "Returns the amount of assets that can be withdrawn instantly"
					},
					"changeFeeReceiver(address)": {
						"details": "only owner can change fee receiver address",
						"params": {
							"_feeReceiver": "new fee receiver address"
						}
					},
					"changeProvider(address)": {
						"details": "only owner can change provider address",
						"params": {
							"newProvider": "new provider address"
						}
					},
					"changeStrategyAllocation(address,uint256)": {
						"details": "only owner can change strategy's allocation",
						"params": {
							"allocation": "new allocation - percentage of total assets available in the contract                   that needs to be allocated to the new strategy",
							"strategy": "strategy address"
						}
					},
					"depositAllToStrategy(address)": {
						"details": "deposits all the assets into the given strategy",
						"params": {
							"strategy": "address of the strategy"
						}
					},
					"depositETH()": {
						"details": "deposits assets and mints shares(amount - (swapFee + depositFee)) to caller's address",
						"returns": {
							"shares": "- number of minted vault tokens"
						}
					},
					"depositToStrategy(address,uint256)": {
						"details": "deposits specific amount of assets into the given strategy",
						"params": {
							"amount": "assets to deposit into strategy",
							"strategy": "address of the strategy"
						}
					},
					"initialize(uint256,uint256,uint8,address)": {
						"details": "initialize function - Constructor for Upgradable contract, can be only called once during deploymentDeploys the contract and sets msg.sender as owner",
						"params": {
							"maxDepositFees": "Fees charged in parts per million; 1% = 10000ppm",
							"maxStrategies": "Number of maximum strategies",
							"maxWithdrawalFees": "Fees charged in parts per million; 1% = 10000ppm"
						}
					},
					"migrateStrategy(address,address,uint256)": {
						"details": "migrates strategy contract - withdraws everything from the oldStrategy and       overwrites it with new strategy",
						"params": {
							"newAllocation": "percentage of total assets available in the contract                      that needs to be allocated to the new strategy",
							"newStrategy": "address of the new strategy ",
							"oldStrategy": "address of the old strategy"
						}
					},
					"owner()": {
						"details": "Returns the address of the current owner."
					},
					"paused()": {
						"details": "Returns true if the contract is paused, and false otherwise."
					},
					"removeManager(address)": {
						"details": "only owner can remove manager",
						"params": {
							"_manager": "manager address"
						}
					},
					"renounceOwnership()": {
						"details": "Leaves the contract without owner. It will not be possible to call `onlyOwner` functions anymore. Can only be called by the current owner. NOTE: Renouncing ownership will leave the contract without an owner, thereby removing any functionality that is only available to the owner."
					},
					"retireStrat(address)": {
						"details": "withdraws all the assets from the strategy and marks it inactive",
						"params": {
							"strategy": "address of the strategy NOTE: To avoid any unforeseen issues because of solidity divisions        and always be able to deactivate a strategy,        it withdraws strategy's (debt - 10) assets and set debt to 0."
						}
					},
					"setDepositFee(uint256)": {
						"details": "only owner can set new deposit fee",
						"params": {
							"newDepositFee": "new deposit fee percentage"
						}
					},
					"setStrategy(address,uint256)": {
						"details": "sets new strategy",
						"params": {
							"allocation": "percentage of total assets available in the contract                    that needs to be allocated to the given strategy",
							"strategy": "address of the strategy"
						}
					},
					"setWithdrawalFee(uint256)": {
						"details": "only owner can set new withdrawal fee",
						"params": {
							"newWithdrawalFee": "new withdrawal fee percentage"
						}
					},
					"totalAssetInVault()": {
						"details": "Returns the amount of assets present in the contract(assetBalance - feeEarned)"
					},
					"transferOwnership(address)": {
						"details": "Transfers ownership of the contract to a new account (`newOwner`). Can only be called by the current owner."
					},
					"withdrawAllFromStrategy(address)": {
						"details": "withdraw strategy's total debt",
						"params": {
							"strategy": "address of the strategy"
						}
					},
					"withdrawETH(address,uint256)": {
						"details": "burns vault tokens and withdraws(amount - swapFee + withdrawalFee) to callers address",
						"params": {
							"account": "receipient's address",
							"amount": "amount of assets to withdraw"
						},
						"returns": {
							"shares": ": amount of assets(excluding fee)"
						}
					},
					"withdrawFee()": {
						"details": "only owner can call this function to withdraw earned fees"
					},
					"withdrawFromStrategy(address,uint256)": {
						"details": "withdraw specific amount of assets from the given strategy",
						"params": {
							"amount": "assets to withdraw from the strategy",
							"strategy": "address of the strategy"
						}
					},
					"withdrawInTokenFromStrategy(address,address,uint256)": {
						"details": "withdraw specific amount of assets from the given strategy, will get (aBNBc/stkBNB/snBNB/BNBx)",
						"params": {
							"amount": "assets to withdrawInToken from the strategy",
							"strategy": "address of the strategy"
						}
					}
				},
				"version": 1
			},
			"evm": {
				"assembly": "    /* \"Heliocontracts/contracts/masterVault/MasterVault.sol\":647:21208  contract MasterVault is... */\n  mstore(0x40, 0x80)\n  callvalue\n  dup1\n  iszero\n  tag_1\n  jumpi\n  0x00\n  dup1\n  revert\ntag_1:\n  pop\n  dataSize(sub_0)\n  dup1\n  dataOffset(sub_0)\n  0x00\n  codecopy\n  0x00\n  return\nstop\n\nsub_0: assembly {\n        /* \"Heliocontracts/contracts/masterVault/MasterVault.sol\":647:21208  contract MasterVault is... */\n      mstore(0x40, 0x80)\n      jumpi(tag_1, lt(calldatasize, 0x04))\n      shr(0xe0, calldataload(0x00))\n      dup1\n      0xa8d1dbfb\n      gt\n      tag_49\n      jumpi\n      dup1\n      0xd574ea3d\n      gt\n      tag_50\n      jumpi\n      dup1\n      0xec1c0a99\n      gt\n      tag_51\n      jumpi\n      dup1\n      0xec1c0a99\n      eq\n      tag_43\n      jumpi\n      dup1\n      0xf2fde38b\n      eq\n      tag_44\n      jumpi\n      dup1\n      0xf6326fb3\n      eq\n      tag_45\n      jumpi\n      dup1\n      0xf7b188a5\n      eq\n      tag_46\n      jumpi\n      dup1\n      0xf8ba8493\n      eq\n      tag_47\n      jumpi\n      dup1\n      0xfc7b9c18\n      eq\n      tag_48\n      jumpi\n      0x00\n      dup1\n      revert\n    tag_51:\n      dup1\n      0xd574ea3d\n      eq\n      tag_37\n      jumpi\n      dup1\n      0xd5f63a06\n      eq\n      tag_38\n      jumpi\n      dup1\n      0xd941e8ac\n      eq\n      tag_39\n      jumpi\n      dup1\n      0xddb56b26\n      eq\n      tag_40\n      jumpi\n      dup1\n      0xe322ad2b\n      eq\n      tag_41\n      jumpi\n      dup1\n      0xe941fa78\n      eq\n      tag_42\n      jumpi\n      0x00\n      dup1\n      revert\n    tag_50:\n      dup1\n      0xb3f00674\n      gt\n      tag_52\n      jumpi\n      dup1\n      0xb3f00674\n      eq\n      tag_31\n      jumpi\n      dup1\n      0xb53d0958\n      eq\n      tag_32\n      jumpi\n      dup1\n      0xc4c2d9b9\n      eq\n      tag_33\n      jumpi\n      dup1\n      0xc99f062f\n      eq\n      tag_34\n      jumpi\n      dup1\n      0xd463bc65\n      eq\n      tag_35\n      jumpi\n      dup1\n      0xd4d2e7f2\n      eq\n      tag_36\n      jumpi\n      0x00\n      dup1\n      revert\n    tag_52:\n      dup1\n      0xa8d1dbfb\n      eq\n      tag_26\n      jumpi\n      dup1\n      0xabaa9916\n      eq\n      tag_27\n      jumpi\n      dup1\n      0xac18de43\n      eq\n      tag_28\n      jumpi\n      dup1\n      0xac1e5025\n      eq\n      tag_29\n      jumpi\n      dup1\n      0xaf76d4bd\n      eq\n      tag_30\n      jumpi\n      0x00\n      dup1\n      revert\n    tag_49:\n      dup1\n      0x5c975abb\n      gt\n      tag_53\n      jumpi\n      dup1\n      0x767f06ae\n      gt\n      tag_54\n      jumpi\n      dup1\n      0x767f06ae\n      eq\n      tag_20\n      jumpi\n      dup1\n      0x796f69aa\n      eq\n      tag_21\n      jumpi\n      dup1\n      0x7c08b964\n      eq\n      tag_22\n      jumpi\n      dup1\n      0x8456cb59\n      eq\n      tag_23\n      jumpi\n      dup1\n      0x8bc7e8c4\n      eq\n      tag_24\n      jumpi\n      dup1\n      0x8da5cb5b\n      eq\n      tag_25\n      jumpi\n      0x00\n      dup1\n      revert\n    tag_54:\n      dup1\n      0x5c975abb\n      eq\n      tag_14\n      jumpi\n      dup1\n      0x67a52793\n      eq\n      tag_15\n      jumpi\n      dup1\n      0x703bafd5\n      eq\n      tag_16\n      jumpi\n      dup1\n      0x715018a6\n      eq\n      tag_17\n      jumpi\n      dup1\n      0x72890dbd\n      eq\n      tag_18\n      jumpi\n      dup1\n      0x72ff8a34\n      eq\n      tag_19\n      jumpi\n      0x00\n      dup1\n      revert\n    tag_53:\n      dup1\n      0x45d34def\n      gt\n      tag_55\n      jumpi\n      dup1\n      0x45d34def\n      eq\n      tag_8\n      jumpi\n      dup1\n      0x4782f779\n      eq\n      tag_9\n      jumpi\n      dup1\n      0x490ae210\n      eq\n      tag_10\n      jumpi\n      dup1\n      0x4bee2ba2\n      eq\n      tag_11\n      jumpi\n      dup1\n      0x52412d49\n      eq\n      tag_12\n      jumpi\n      dup1\n      0x597c8910\n      eq\n      tag_13\n      jumpi\n      0x00\n      dup1\n      revert\n    tag_55:\n      dup1\n      0x01e1d114\n      eq\n      tag_3\n      jumpi\n      dup1\n      0x085d4883\n      eq\n      tag_4\n      jumpi\n      dup1\n      0x2d06177a\n      eq\n      tag_5\n      jumpi\n      dup1\n      0x38d52e0f\n      eq\n      tag_6\n      jumpi\n      dup1\n      0x3e762860\n      eq\n      tag_7\n      jumpi\n      0x00\n      dup1\n      revert\n    tag_1:\n      jumpi(tag_2, calldatasize)\n      stop\n    tag_2:\n      0x00\n      dup1\n      revert\n        /* \"Heliocontracts/contracts/masterVault/MasterVault.sol\":15673:15771  function totalAssets() public view returns (uint256) {... */\n    tag_3:\n      callvalue\n      dup1\n      iszero\n      tag_58\n      jumpi\n      0x00\n      dup1\n      revert\n    tag_58:\n      pop\n        /* \"Heliocontracts/contracts/masterVault/MasterVault.sol\":15743:15764  address(this).balance */\n      selfbalance\n        /* \"Heliocontracts/contracts/masterVault/MasterVault.sol\":15673:15771  function totalAssets() public view returns (uint256) {... */\n    tag_59:\n      mload(0x40)\n        /* \"#utility.yul\":160:185   */\n      swap1\n      dup2\n      mstore\n        /* \"#utility.yul\":148:150   */\n      0x20\n        /* \"#utility.yul\":133:151   */\n      add\n        /* \"Heliocontracts/contracts/masterVault/MasterVault.sol\":15673:15771  function totalAssets() public view returns (uint256) {... */\n    tag_61:\n      mload(0x40)\n      dup1\n      swap2\n      sub\n      swap1\n      return\n        /* \"Heliocontracts/contracts/masterVault/MasterVault.sol\":1339:1362  address public provider */\n    tag_4:\n      callvalue\n      dup1\n      iszero\n      tag_63\n      jumpi\n      0x00\n      dup1\n      revert\n    tag_63:\n      pop\n      sload(0xd3)\n      tag_64\n      swap1\n      sub(shl(0xa0, 0x01), 0x01)\n      and\n      dup2\n      jump\n    tag_64:\n      mload(0x40)\n      sub(shl(0xa0, 0x01), 0x01)\n        /* \"#utility.yul\":360:392   */\n      swap1\n      swap2\n      and\n        /* \"#utility.yul\":342:393   */\n      dup2\n      mstore\n        /* \"#utility.yul\":330:332   */\n      0x20\n        /* \"#utility.yul\":315:333   */\n      add\n        /* \"Heliocontracts/contracts/masterVault/MasterVault.sol\":1339:1362  address public provider */\n      tag_61\n        /* \"#utility.yul\":196:399   */\n      jump\n        /* \"Heliocontracts/contracts/masterVault/MasterVault.sol\":19516:19700  function addManager(address newManager) external onlyOwner {... */\n    tag_5:\n      callvalue\n      dup1\n      iszero\n      tag_68\n      jumpi\n      0x00\n      dup1\n      revert\n    tag_68:\n      pop\n      tag_69\n      tag_70\n      calldatasize\n      0x04\n      tag_71\n      jump\t// in\n    tag_70:\n      tag_72\n      jump\t// in\n    tag_69:\n      stop\n        /* \"Heliocontracts/contracts/masterVault/MasterVault.sol\":1399:1419  address public asset */\n    tag_6:\n      callvalue\n      dup1\n      iszero\n      tag_73\n      jumpi\n      0x00\n      dup1\n      revert\n    tag_73:\n      pop\n      sload(0xd5)\n      tag_64\n      swap1\n      sub(shl(0xa0, 0x01), 0x01)\n      and\n      dup2\n      jump\n        /* \"Heliocontracts/contracts/masterVault/MasterVault.sol\":9548:10316  function withdrawInTokenFromStrategy(address strategy, address recipient, uint256 amount)... */\n    tag_7:\n      callvalue\n      dup1\n      iszero\n      tag_77\n      jumpi\n      0x00\n      dup1\n      revert\n    tag_77:\n      pop\n      tag_59\n      tag_79\n      calldatasize\n      0x04\n      tag_80\n      jump\t// in\n    tag_79:\n      tag_81\n      jump\t// in\n        /* \"Heliocontracts/contracts/masterVault/MasterVault.sol\":11674:12747  function setStrategy(... */\n    tag_8:\n      callvalue\n      dup1\n      iszero\n      tag_83\n      jumpi\n      0x00\n      dup1\n      revert\n    tag_83:\n      pop\n      tag_69\n      tag_85\n      calldatasize\n      0x04\n      tag_86\n      jump\t// in\n    tag_85:\n      tag_87\n      jump\t// in\n        /* \"Heliocontracts/contracts/masterVault/MasterVault.sol\":4174:5164  function withdrawETH(address account, uint256 amount) ... */\n    tag_9:\n      callvalue\n      dup1\n      iszero\n      tag_88\n      jumpi\n      0x00\n      dup1\n      revert\n    tag_88:\n      pop\n      tag_59\n      tag_90\n      calldatasize\n      0x04\n      tag_86\n      jump\t// in\n    tag_90:\n      tag_91\n      jump\t// in\n        /* \"Heliocontracts/contracts/masterVault/MasterVault.sol\":18796:19045  function setDepositFee(uint256 newDepositFee) external onlyOwner {... */\n    tag_10:\n      callvalue\n      dup1\n      iszero\n      tag_93\n      jumpi\n      0x00\n      dup1\n      revert\n    tag_93:\n      pop\n      tag_69\n      tag_95\n      calldatasize\n      0x04\n      tag_96\n      jump\t// in\n    tag_95:\n      tag_97\n      jump\t// in\n        /* \"Heliocontracts/contracts/masterVault/MasterVault.sol\":7190:7365  function depositAllToStrategy(address strategy) public onlyManager {... */\n    tag_11:\n      callvalue\n      dup1\n      iszero\n      tag_98\n      jumpi\n      0x00\n      dup1\n      revert\n    tag_98:\n      pop\n      tag_69\n      tag_100\n      calldatasize\n      0x04\n      tag_71\n      jump\t// in\n    tag_100:\n      tag_101\n      jump\t// in\n        /* \"Heliocontracts/contracts/masterVault/MasterVault.sol\":11285:11434  function balanceOfTokenFromStrategy(address strategy) external view returns(uint256) {... */\n    tag_12:\n      callvalue\n      dup1\n      iszero\n      tag_102\n      jumpi\n      0x00\n      dup1\n      revert\n    tag_102:\n      pop\n      tag_59\n      tag_104\n      calldatasize\n      0x04\n      tag_71\n      jump\t// in\n    tag_104:\n      tag_105\n      jump\t// in\n        /* \"Heliocontracts/contracts/masterVault/MasterVault.sol\":8123:8289  function withdrawAllFromStrategy(address strategy) external onlyManager {... */\n    tag_13:\n      callvalue\n      dup1\n      iszero\n      tag_107\n      jumpi\n      0x00\n      dup1\n      revert\n    tag_107:\n      pop\n      tag_69\n      tag_109\n      calldatasize\n      0x04\n      tag_71\n      jump\t// in\n    tag_109:\n      tag_110\n      jump\t// in\n        /* \"@openzeppelin/contracts-upgradeable/security/PausableUpgradeable.sol\":1858:1942  function paused() public view virtual returns (bool) {... */\n    tag_14:\n      callvalue\n      dup1\n      iszero\n      tag_111\n      jumpi\n      0x00\n      dup1\n      revert\n    tag_111:\n      pop\n        /* \"@openzeppelin/contracts-upgradeable/security/PausableUpgradeable.sol\":1928:1935  _paused */\n      and(0xff, sload(0x65))\n        /* \"@openzeppelin/contracts-upgradeable/security/PausableUpgradeable.sol\":1858:1942  function paused() public view virtual returns (bool) {... */\n    tag_112:\n      mload(0x40)\n        /* \"#utility.yul\":1923:1937   */\n      swap1\n      iszero\n        /* \"#utility.yul\":1916:1938   */\n      iszero\n        /* \"#utility.yul\":1898:1939   */\n      dup2\n      mstore\n        /* \"#utility.yul\":1886:1888   */\n      0x20\n        /* \"#utility.yul\":1871:1889   */\n      add\n        /* \"@openzeppelin/contracts-upgradeable/security/PausableUpgradeable.sol\":1858:1942  function paused() public view virtual returns (bool) {... */\n      tag_61\n        /* \"#utility.yul\":1758:1945   */\n      jump\n        /* \"Heliocontracts/contracts/masterVault/MasterVault.sol\":1011:1036  uint256 public depositFee */\n    tag_15:\n      callvalue\n      dup1\n      iszero\n      tag_116\n      jumpi\n      0x00\n      dup1\n      revert\n    tag_116:\n      pop\n      tag_59\n      sload(0xcb)\n      dup2\n      jump\n        /* \"Heliocontracts/contracts/masterVault/MasterVault.sol\":1368:1393  address public vaultToken */\n    tag_16:\n      callvalue\n      dup1\n      iszero\n      tag_120\n      jumpi\n      0x00\n      dup1\n      revert\n    tag_120:\n      pop\n      sload(0xd4)\n      tag_64\n      swap1\n      sub(shl(0xa0, 0x01), 0x01)\n      and\n      dup2\n      jump\n        /* \"@openzeppelin/contracts-upgradeable/access/OwnableUpgradeable.sol\":2071:2172  function renounceOwnership() public virtual onlyOwner {... */\n    tag_17:\n      callvalue\n      dup1\n      iszero\n      tag_124\n      jumpi\n      0x00\n      dup1\n      revert\n    tag_124:\n      pop\n      tag_69\n      tag_126\n      jump\t// in\n        /* \"Heliocontracts/contracts/masterVault/MasterVault.sol\":13095:13441  function retireStrat(address strategy) external onlyManager {... */\n    tag_18:\n      callvalue\n      dup1\n      iszero\n      tag_127\n      jumpi\n      0x00\n      dup1\n      revert\n    tag_127:\n      pop\n      tag_69\n      tag_129\n      calldatasize\n      0x04\n      tag_71\n      jump\t// in\n    tag_129:\n      tag_130\n      jump\t// in\n        /* \"Heliocontracts/contracts/masterVault/MasterVault.sol\":20859:21206  function changeStrategyAllocation(address strategy, uint256 allocation) external onlyOwner {... */\n    tag_19:\n      callvalue\n      dup1\n      iszero\n      tag_131\n      jumpi\n      0x00\n      dup1\n      revert\n    tag_131:\n      pop\n      tag_69\n      tag_133\n      calldatasize\n      0x04\n      tag_86\n      jump\t// in\n    tag_133:\n      tag_134\n      jump\t// in\n        /* \"Heliocontracts/contracts/masterVault/MasterVault.sol\":1177:1206  uint256 public MAX_STRATEGIES */\n    tag_20:\n      callvalue\n      dup1\n      iszero\n      tag_135\n      jumpi\n      0x00\n      dup1\n      revert\n    tag_135:\n      pop\n      tag_59\n      sload(0xd0)\n      dup2\n      jump\n        /* \"Heliocontracts/contracts/masterVault/MasterVault.sol\":20073:20260  function changeProvider(address newProvider) external onlyOwner {... */\n    tag_21:\n      callvalue\n      dup1\n      iszero\n      tag_139\n      jumpi\n      0x00\n      dup1\n      revert\n    tag_139:\n      pop\n      tag_69\n      tag_141\n      calldatasize\n      0x04\n      tag_71\n      jump\t// in\n    tag_141:\n      tag_142\n      jump\t// in\n        /* \"Heliocontracts/contracts/masterVault/MasterVault.sol\":20375:20586  function changeFeeReceiver(address payable _feeReceiver) external onlyOwner {... */\n    tag_22:\n      callvalue\n      dup1\n      iszero\n      tag_143\n      jumpi\n      0x00\n      dup1\n      revert\n    tag_143:\n      pop\n      tag_69\n      tag_145\n      calldatasize\n      0x04\n      tag_71\n      jump\t// in\n    tag_145:\n      tag_147\n      jump\t// in\n        /* \"Heliocontracts/contracts/masterVault/MasterVault.sol\":18146:18207  function pause() external onlyOwner {... */\n    tag_23:\n      callvalue\n      dup1\n      iszero\n      tag_148\n      jumpi\n      0x00\n      dup1\n      revert\n    tag_148:\n      pop\n      tag_69\n      tag_150\n      jump\t// in\n        /* \"Heliocontracts/contracts/masterVault/MasterVault.sol\":1076:1104  uint256 public withdrawalFee */\n    tag_24:\n      callvalue\n      dup1\n      iszero\n      tag_151\n      jumpi\n      0x00\n      dup1\n      revert\n    tag_151:\n      pop\n      tag_59\n      sload(0xcd)\n      dup2\n      jump\n        /* \"@openzeppelin/contracts-upgradeable/access/OwnableUpgradeable.sol\":1441:1526  function owner() public view virtual returns (address) {... */\n    tag_25:\n      callvalue\n      dup1\n      iszero\n      tag_155\n      jumpi\n      0x00\n      dup1\n      revert\n    tag_155:\n      pop\n        /* \"@openzeppelin/contracts-upgradeable/access/OwnableUpgradeable.sol\":1513:1519  _owner */\n      and(sub(shl(0xa0, 0x01), 0x01), sload(0x33))\n        /* \"@openzeppelin/contracts-upgradeable/access/OwnableUpgradeable.sol\":1441:1526  function owner() public view virtual returns (address) {... */\n      jump(tag_64)\n        /* \"Heliocontracts/contracts/masterVault/MasterVault.sol\":1042:1070  uint256 public maxDepositFee */\n    tag_26:\n      callvalue\n      dup1\n      iszero\n      tag_159\n      jumpi\n      0x00\n      dup1\n      revert\n    tag_159:\n      pop\n      tag_59\n      sload(0xcc)\n      dup2\n      jump\n        /* \"Heliocontracts/contracts/masterVault/MasterVault.sol\":14044:14938  function allocate() public onlyManager {... */\n    tag_27:\n      callvalue\n      dup1\n      iszero\n      tag_163\n      jumpi\n      0x00\n      dup1\n      revert\n    tag_163:\n      pop\n      tag_69\n      tag_165\n      jump\t// in\n        /* \"Heliocontracts/contracts/masterVault/MasterVault.sol\":19789:19966  function removeManager(address _manager) external onlyOwner {... */\n    tag_28:\n      callvalue\n      dup1\n      iszero\n      tag_166\n      jumpi\n      0x00\n      dup1\n      revert\n    tag_166:\n      pop\n      tag_69\n      tag_168\n      calldatasize\n      0x04\n      tag_71\n      jump\t// in\n    tag_168:\n      tag_169\n      jump\t// in\n        /* \"Heliocontracts/contracts/masterVault/MasterVault.sol\":19164:19420  function setWithdrawalFee(uint256 newWithdrawalFee) external onlyOwner {... */\n    tag_29:\n      callvalue\n      dup1\n      iszero\n      tag_170\n      jumpi\n      0x00\n      dup1\n      revert\n    tag_170:\n      pop\n      tag_69\n      tag_172\n      calldatasize\n      0x04\n      tag_96\n      jump\t// in\n    tag_172:\n      tag_173\n      jump\t// in\n        /* \"Heliocontracts/contracts/masterVault/MasterVault.sol\":7544:7686  function depositToStrategy(address strategy, uint256 amount) public onlyManager {... */\n    tag_30:\n      callvalue\n      dup1\n      iszero\n      tag_174\n      jumpi\n      0x00\n      dup1\n      revert\n    tag_174:\n      pop\n      tag_69\n      tag_176\n      calldatasize\n      0x04\n      tag_86\n      jump\t// in\n    tag_176:\n      tag_177\n      jump\t// in\n        /* \"Heliocontracts/contracts/masterVault/MasterVault.sol\":1425:1459  address payable public feeReceiver */\n    tag_31:\n      callvalue\n      dup1\n      iszero\n      tag_178\n      jumpi\n      0x00\n      dup1\n      revert\n    tag_178:\n      pop\n      sload(0xd6)\n      tag_64\n      swap1\n      sub(shl(0xa0, 0x01), 0x01)\n      and\n      dup2\n      jump\n        /* \"Heliocontracts/contracts/masterVault/MasterVault.sol\":7871:8025  function withdrawFromStrategy(address strategy, uint256 amount) public onlyManager {... */\n    tag_32:\n      callvalue\n      dup1\n      iszero\n      tag_183\n      jumpi\n      0x00\n      dup1\n      revert\n    tag_183:\n      pop\n      tag_69\n      tag_185\n      calldatasize\n      0x04\n      tag_86\n      jump\t// in\n    tag_185:\n      tag_186\n      jump\t// in\n        /* \"Heliocontracts/contracts/masterVault/MasterVault.sol\":902:959  mapping (address => StrategyParams) public strategyParams */\n    tag_33:\n      callvalue\n      dup1\n      iszero\n      tag_187\n      jumpi\n      0x00\n      dup1\n      revert\n    tag_187:\n      pop\n      tag_188\n      tag_189\n      calldatasize\n      0x04\n      tag_71\n      jump\t// in\n    tag_189:\n      mstore(0x20, 0xc9)\n      0x00\n      swap1\n      dup2\n      mstore\n      0x40\n      swap1\n      keccak256\n      dup1\n      sload\n      0x01\n      dup3\n      add\n      sload\n      0x02\n      swap1\n      swap3\n      add\n      sload\n      0xff\n      swap1\n      swap2\n      and\n      swap2\n      swap1\n      dup4\n      jump\n    tag_188:\n      0x40\n      dup1\n      mload\n        /* \"#utility.yul\":2655:2669   */\n      swap4\n      iszero\n        /* \"#utility.yul\":2648:2670   */\n      iszero\n        /* \"#utility.yul\":2630:2671   */\n      dup5\n      mstore\n        /* \"#utility.yul\":2702:2704   */\n      0x20\n        /* \"#utility.yul\":2687:2705   */\n      dup5\n      add\n        /* \"#utility.yul\":2680:2714   */\n      swap3\n      swap1\n      swap3\n      mstore\n        /* \"#utility.yul\":2730:2748   */\n      swap1\n      dup3\n      add\n        /* \"#utility.yul\":2723:2757   */\n      mstore\n        /* \"#utility.yul\":2618:2620   */\n      0x60\n        /* \"#utility.yul\":2603:2621   */\n      add\n        /* \"Heliocontracts/contracts/masterVault/MasterVault.sol\":902:959  mapping (address => StrategyParams) public strategyParams */\n      tag_61\n        /* \"#utility.yul\":2434:2763   */\n      jump\n        /* \"Heliocontracts/contracts/masterVault/MasterVault.sol\":1466:1497  IWaitingPool public waitingPool */\n    tag_34:\n      callvalue\n      dup1\n      iszero\n      tag_193\n      jumpi\n      0x00\n      dup1\n      revert\n    tag_193:\n      pop\n      sload(0xd7)\n      tag_64\n      swap1\n      sub(shl(0xa0, 0x01), 0x01)\n      and\n      dup2\n      jump\n        /* \"Heliocontracts/contracts/masterVault/MasterVault.sol\":15869:16018  function totalAssetInVault() public view returns(uint256 balance) {... */\n    tag_35:\n      callvalue\n      dup1\n      iszero\n      tag_198\n      jumpi\n      0x00\n      dup1\n      revert\n    tag_198:\n      pop\n      tag_59\n      tag_200\n      jump\t// in\n        /* \"Heliocontracts/contracts/masterVault/MasterVault.sol\":965:1004  mapping(address => bool) public manager */\n    tag_36:\n      callvalue\n      dup1\n      iszero\n      tag_202\n      jumpi\n      0x00\n      dup1\n      revert\n    tag_202:\n      pop\n      tag_112\n      tag_204\n      calldatasize\n      0x04\n      tag_71\n      jump\t// in\n    tag_204:\n      mstore(0x20, 0xca)\n      0x00\n      swap1\n      dup2\n      mstore\n      0x40\n      swap1\n      keccak256\n      sload\n      0xff\n      and\n      dup2\n      jump\n        /* \"Heliocontracts/contracts/masterVault/MasterVault.sol\":1306:1333  address[] public strategies */\n    tag_37:\n      callvalue\n      dup1\n      iszero\n      tag_207\n      jumpi\n      0x00\n      dup1\n      revert\n    tag_207:\n      pop\n      tag_64\n      tag_209\n      calldatasize\n      0x04\n      tag_96\n      jump\t// in\n    tag_209:\n      tag_210\n      jump\t// in\n        /* \"Heliocontracts/contracts/masterVault/MasterVault.sol\":1147:1171  uint256 public feeEarned */\n    tag_38:\n      callvalue\n      dup1\n      iszero\n      tag_212\n      jumpi\n      0x00\n      dup1\n      revert\n    tag_212:\n      pop\n      tag_59\n      sload(0xcf)\n      dup2\n      jump\n        /* \"Heliocontracts/contracts/masterVault/MasterVault.sol\":11030:11203  function estimateInTokenFromStrategy(address strategy, uint256 amount) external view returns(uint256) {... */\n    tag_39:\n      callvalue\n      dup1\n      iszero\n      tag_216\n      jumpi\n      0x00\n      dup1\n      revert\n    tag_216:\n      pop\n      tag_59\n      tag_218\n      calldatasize\n      0x04\n      tag_86\n      jump\t// in\n    tag_218:\n      tag_219\n      jump\t// in\n        /* \"Heliocontracts/contracts/masterVault/MasterVault.sol\":16427:17655  function migrateStrategy(address oldStrategy, address newStrategy, uint256 newAllocation) external onlyManager {... */\n    tag_40:\n      callvalue\n      dup1\n      iszero\n      tag_221\n      jumpi\n      0x00\n      dup1\n      revert\n    tag_221:\n      pop\n      tag_69\n      tag_223\n      calldatasize\n      0x04\n      tag_80\n      jump\t// in\n    tag_223:\n      tag_224\n      jump\t// in\n        /* \"Heliocontracts/contracts/masterVault/MasterVault.sol\":15377:15667  function availableToWithdraw() public view returns(uint256 available) {... */\n    tag_41:\n      callvalue\n      dup1\n      iszero\n      tag_225\n      jumpi\n      0x00\n      dup1\n      revert\n    tag_225:\n      pop\n      tag_59\n      tag_227\n      jump\t// in\n        /* \"Heliocontracts/contracts/masterVault/MasterVault.sol\":18354:18686  function withdrawFee() external nonReentrant onlyOwner{... */\n    tag_42:\n      callvalue\n      dup1\n      iszero\n      tag_229\n      jumpi\n      0x00\n      dup1\n      revert\n    tag_229:\n      pop\n      tag_69\n      tag_231\n      jump\t// in\n        /* \"Heliocontracts/contracts/masterVault/MasterVault.sol\":1110:1141  uint256 public maxWithdrawalFee */\n    tag_43:\n      callvalue\n      dup1\n      iszero\n      tag_232\n      jumpi\n      0x00\n      dup1\n      revert\n    tag_232:\n      pop\n      tag_59\n      sload(0xce)\n      dup2\n      jump\n        /* \"@openzeppelin/contracts-upgradeable/access/OwnableUpgradeable.sol\":2321:2519  function transferOwnership(address newOwner) public virtual onlyOwner {... */\n    tag_44:\n      callvalue\n      dup1\n      iszero\n      tag_236\n      jumpi\n      0x00\n      dup1\n      revert\n    tag_236:\n      pop\n      tag_69\n      tag_238\n      calldatasize\n      0x04\n      tag_71\n      jump\t// in\n    tag_238:\n      tag_239\n      jump\t// in\n        /* \"Heliocontracts/contracts/masterVault/MasterVault.sol\":3423:3917  function depositETH() public ... */\n    tag_45:\n      tag_59\n      tag_241\n      jump\t// in\n        /* \"Heliocontracts/contracts/masterVault/MasterVault.sol\":18212:18277  function unPause() external onlyOwner {... */\n    tag_46:\n      callvalue\n      dup1\n      iszero\n      tag_243\n      jumpi\n      0x00\n      dup1\n      revert\n    tag_243:\n      pop\n      tag_69\n      tag_245\n      jump\t// in\n        /* \"Heliocontracts/contracts/masterVault/MasterVault.sol\":2583:3263  function initialize(... */\n    tag_47:\n      callvalue\n      dup1\n      iszero\n      tag_246\n      jumpi\n      0x00\n      dup1\n      revert\n    tag_246:\n      pop\n      tag_69\n      tag_248\n      calldatasize\n      0x04\n      tag_249\n      jump\t// in\n    tag_248:\n      tag_250\n      jump\t// in\n        /* \"Heliocontracts/contracts/masterVault/MasterVault.sol\":1212:1236  uint256 public totalDebt */\n    tag_48:\n      callvalue\n      dup1\n      iszero\n      tag_251\n      jumpi\n      0x00\n      dup1\n      revert\n    tag_251:\n      pop\n      tag_59\n      sload(0xd1)\n      dup2\n      jump\n        /* \"Heliocontracts/contracts/masterVault/MasterVault.sol\":19516:19700  function addManager(address newManager) external onlyOwner {... */\n    tag_72:\n        /* \"@openzeppelin/contracts-upgradeable/access/OwnableUpgradeable.sol\":1334:1347  _checkOwner() */\n      tag_257\n        /* \"@openzeppelin/contracts-upgradeable/access/OwnableUpgradeable.sol\":1334:1345  _checkOwner */\n      tag_258\n        /* \"@openzeppelin/contracts-upgradeable/access/OwnableUpgradeable.sol\":1334:1347  _checkOwner() */\n      jump\t// in\n    tag_257:\n      sub(shl(0xa0, 0x01), 0x01)\n        /* \"Heliocontracts/contracts/masterVault/MasterVault.sol\":19593:19617  newManager != address(0) */\n      dup2\n      and\n        /* \"Heliocontracts/contracts/masterVault/MasterVault.sol\":19585:19618  require(newManager != address(0)) */\n      tag_260\n      jumpi\n      0x00\n      dup1\n      revert\n    tag_260:\n      sub(shl(0xa0, 0x01), 0x01)\n        /* \"Heliocontracts/contracts/masterVault/MasterVault.sol\":19628:19647  manager[newManager] */\n      dup2\n      and\n      0x00\n      dup2\n      dup2\n      mstore\n        /* \"Heliocontracts/contracts/masterVault/MasterVault.sol\":19628:19635  manager */\n      0xca\n        /* \"Heliocontracts/contracts/masterVault/MasterVault.sol\":19628:19647  manager[newManager] */\n      0x20\n      swap1\n      dup2\n      mstore\n      0x40\n      swap2\n      dup3\n      swap1\n      keccak256\n        /* \"Heliocontracts/contracts/masterVault/MasterVault.sol\":19628:19654  manager[newManager] = true */\n      dup1\n      sload\n      not(0xff)\n      and\n        /* \"Heliocontracts/contracts/masterVault/MasterVault.sol\":19650:19654  true */\n      0x01\n        /* \"Heliocontracts/contracts/masterVault/MasterVault.sol\":19628:19654  manager[newManager] = true */\n      or\n      swap1\n      sstore\n        /* \"Heliocontracts/contracts/masterVault/MasterVault.sol\":19669:19693  ManagerAdded(newManager) */\n      swap1\n      mload\n        /* \"#utility.yul\":342:393   */\n      swap2\n      dup3\n      mstore\n        /* \"Heliocontracts/contracts/masterVault/MasterVault.sol\":19669:19693  ManagerAdded(newManager) */\n      0x3b4a40cccf2058c593542587329dd385be4f0b588db5471fbd9598e56dd7093a\n      swap2\n        /* \"#utility.yul\":315:333   */\n      add\n        /* \"Heliocontracts/contracts/masterVault/MasterVault.sol\":19669:19693  ManagerAdded(newManager) */\n    tag_261:\n      mload(0x40)\n      dup1\n      swap2\n      sub\n      swap1\n      log1\n        /* \"Heliocontracts/contracts/masterVault/MasterVault.sol\":19516:19700  function addManager(address newManager) external onlyOwner {... */\n      pop\n      jump\t// out\n        /* \"Heliocontracts/contracts/masterVault/MasterVault.sol\":9548:10316  function withdrawInTokenFromStrategy(address strategy, address recipient, uint256 amount)... */\n    tag_81:\n        /* \"Heliocontracts/contracts/masterVault/MasterVault.sol\":9724:9731  uint256 */\n      0x00\n        /* \"@openzeppelin/contracts-upgradeable/security/ReentrancyGuardUpgradeable.sol\":1815:1816  2 */\n      0x02\n        /* \"@openzeppelin/contracts-upgradeable/security/ReentrancyGuardUpgradeable.sol\":2569:2576  _status */\n      sload(0x97)\n        /* \"@openzeppelin/contracts-upgradeable/security/ReentrancyGuardUpgradeable.sol\":2569:2588  _status != _ENTERED */\n      eq\n      iszero\n        /* \"@openzeppelin/contracts-upgradeable/security/ReentrancyGuardUpgradeable.sol\":2561:2624  require(_status != _ENTERED, \"ReentrancyGuard: reentrant call\") */\n      tag_263\n      jumpi\n      mload(0x40)\n      shl(0xe5, 0x461bcd)\n      dup2\n      mstore\n      0x04\n      add\n      tag_264\n      swap1\n      tag_265\n      jump\t// in\n    tag_264:\n      mload(0x40)\n      dup1\n      swap2\n      sub\n      swap1\n      revert\n    tag_263:\n        /* \"@openzeppelin/contracts-upgradeable/security/ReentrancyGuardUpgradeable.sol\":1815:1816  2 */\n      0x02\n        /* \"@openzeppelin/contracts-upgradeable/security/ReentrancyGuardUpgradeable.sol\":2699:2706  _status */\n      0x97\n        /* \"@openzeppelin/contracts-upgradeable/security/ReentrancyGuardUpgradeable.sol\":2699:2717  _status = _ENTERED */\n      sstore\n        /* \"@openzeppelin/contracts-upgradeable/security/PausableUpgradeable.sol\":1482:1501  _requireNotPaused() */\n      tag_267\n        /* \"@openzeppelin/contracts-upgradeable/security/PausableUpgradeable.sol\":1482:1499  _requireNotPaused */\n      tag_268\n        /* \"@openzeppelin/contracts-upgradeable/security/PausableUpgradeable.sol\":1482:1501  _requireNotPaused() */\n      jump\t// in\n    tag_267:\n        /* \"@openzeppelin/contracts-upgradeable/access/OwnableUpgradeable.sol\":1513:1519  _owner */\n      and(sub(shl(0xa0, 0x01), 0x01), sload(0x33))\n        /* \"Heliocontracts/contracts/masterVault/MasterVault.sol\":1927:1937  msg.sender */\n      caller\n        /* \"Heliocontracts/contracts/masterVault/MasterVault.sol\":1927:1948  msg.sender == owner() */\n      eq\n      dup1\n        /* \"Heliocontracts/contracts/masterVault/MasterVault.sol\":1927:1974  msg.sender == owner() || msg.sender == provider */\n      tag_271\n      jumpi\n      pop\n        /* \"Heliocontracts/contracts/masterVault/MasterVault.sol\":1966:1974  provider */\n      and(sub(shl(0xa0, 0x01), 0x01), sload(0xd3))\n        /* \"Heliocontracts/contracts/masterVault/MasterVault.sol\":1952:1962  msg.sender */\n      caller\n        /* \"Heliocontracts/contracts/masterVault/MasterVault.sol\":1952:1974  msg.sender == provider */\n      eq\n        /* \"Heliocontracts/contracts/masterVault/MasterVault.sol\":1927:1974  msg.sender == owner() || msg.sender == provider */\n    tag_271:\n        /* \"Heliocontracts/contracts/masterVault/MasterVault.sol\":1906:2021  require(... */\n      tag_272\n      jumpi\n      mload(0x40)\n      shl(0xe5, 0x461bcd)\n      dup2\n      mstore\n      0x04\n      add\n      tag_264\n      swap1\n      tag_274\n      jump\t// in\n    tag_272:\n        /* \"Heliocontracts/contracts/masterVault/MasterVault.sol\":9760:9761  0 */\n      0x00\n        /* \"Heliocontracts/contracts/masterVault/MasterVault.sol\":9751:9757  amount */\n      dup3\n        /* \"Heliocontracts/contracts/masterVault/MasterVault.sol\":9751:9761  amount > 0 */\n      gt\n        /* \"Heliocontracts/contracts/masterVault/MasterVault.sol\":9743:9791  require(amount > 0, \"invalid withdrawal amount\") */\n      tag_276\n      jumpi\n      mload(0x40)\n      shl(0xe5, 0x461bcd)\n      dup2\n      mstore\n        /* \"#utility.yul\":4461:4463   */\n      0x20\n        /* \"Heliocontracts/contracts/masterVault/MasterVault.sol\":9743:9791  require(amount > 0, \"invalid withdrawal amount\") */\n      0x04\n      dup3\n      add\n        /* \"#utility.yul\":4443:4464   */\n      mstore\n        /* \"#utility.yul\":4500:4502   */\n      0x19\n        /* \"#utility.yul\":4480:4498   */\n      0x24\n      dup3\n      add\n        /* \"#utility.yul\":4473:4503   */\n      mstore\n      shl(0x3a, 0x1a5b9d985b1a59081dda5d1a191c985dd85b08185b5bdd5b9d)\n        /* \"#utility.yul\":4519:4537   */\n      0x44\n      dup3\n      add\n        /* \"#utility.yul\":4512:4567   */\n      mstore\n        /* \"#utility.yul\":4584:4602   */\n      0x64\n      add\n        /* \"Heliocontracts/contracts/masterVault/MasterVault.sol\":9743:9791  require(amount > 0, \"invalid withdrawal amount\") */\n      tag_264\n        /* \"#utility.yul\":4259:4608   */\n      jump\n        /* \"Heliocontracts/contracts/masterVault/MasterVault.sol\":9743:9791  require(amount > 0, \"invalid withdrawal amount\") */\n    tag_276:\n      sub(shl(0xa0, 0x01), 0x01)\n        /* \"Heliocontracts/contracts/masterVault/MasterVault.sol\":9809:9833  strategyParams[strategy] */\n      dup5\n      and\n      0x00\n      swap1\n      dup2\n      mstore\n        /* \"Heliocontracts/contracts/masterVault/MasterVault.sol\":9809:9823  strategyParams */\n      0xc9\n        /* \"Heliocontracts/contracts/masterVault/MasterVault.sol\":9809:9833  strategyParams[strategy] */\n      0x20\n      mstore\n      0x40\n      swap1\n      keccak256\n        /* \"Heliocontracts/contracts/masterVault/MasterVault.sol\":9809:9838  strategyParams[strategy].debt */\n      0x02\n      add\n      sload\n        /* \"Heliocontracts/contracts/masterVault/MasterVault.sol\":9809:9848  strategyParams[strategy].debt >= amount */\n      dup3\n      gt\n      iszero\n        /* \"Heliocontracts/contracts/masterVault/MasterVault.sol\":9801:9884  require(strategyParams[strategy].debt >= amount, \"insufficient assets in strategy\") */\n      tag_279\n      jumpi\n      mload(0x40)\n      shl(0xe5, 0x461bcd)\n      dup2\n      mstore\n        /* \"#utility.yul\":4815:4817   */\n      0x20\n        /* \"Heliocontracts/contracts/masterVault/MasterVault.sol\":9801:9884  require(strategyParams[strategy].debt >= amount, \"insufficient assets in strategy\") */\n      0x04\n      dup3\n      add\n        /* \"#utility.yul\":4797:4818   */\n      mstore\n        /* \"#utility.yul\":4854:4856   */\n      0x1f\n        /* \"#utility.yul\":4834:4852   */\n      0x24\n      dup3\n      add\n        /* \"#utility.yul\":4827:4857   */\n      mstore\n        /* \"#utility.yul\":4893:4926   */\n      0x696e73756666696369656e742061737365747320696e20737472617465677900\n        /* \"#utility.yul\":4873:4891   */\n      0x44\n      dup3\n      add\n        /* \"#utility.yul\":4866:4927   */\n      mstore\n        /* \"#utility.yul\":4944:4962   */\n      0x64\n      add\n        /* \"Heliocontracts/contracts/masterVault/MasterVault.sol\":9801:9884  require(strategyParams[strategy].debt >= amount, \"insufficient assets in strategy\") */\n      tag_264\n        /* \"#utility.yul\":4613:4968   */\n      jump\n        /* \"Heliocontracts/contracts/masterVault/MasterVault.sol\":9801:9884  require(strategyParams[strategy].debt >= amount, \"insufficient assets in strategy\") */\n    tag_279:\n        /* \"Heliocontracts/contracts/masterVault/MasterVault.sol\":9939:9949  vaultToken */\n      sload(0xd4)\n        /* \"Heliocontracts/contracts/masterVault/MasterVault.sol\":9928:9968  ICertToken(vaultToken).burn(src, amount) */\n      mload(0x40)\n      shl(0xe2, 0x2770a7eb)\n      dup2\n      mstore\n        /* \"Heliocontracts/contracts/masterVault/MasterVault.sol\":9908:9918  msg.sender */\n      caller\n      swap2\n      sub(shl(0xa0, 0x01), 0x01)\n        /* \"Heliocontracts/contracts/masterVault/MasterVault.sol\":9939:9949  vaultToken */\n      and\n      swap1\n        /* \"Heliocontracts/contracts/masterVault/MasterVault.sol\":9928:9955  ICertToken(vaultToken).burn */\n      0x9dc29fac\n      swap1\n        /* \"Heliocontracts/contracts/masterVault/MasterVault.sol\":9928:9968  ICertToken(vaultToken).burn(src, amount) */\n      tag_282\n      swap1\n        /* \"Heliocontracts/contracts/masterVault/MasterVault.sol\":9908:9918  msg.sender */\n      dup5\n      swap1\n        /* \"Heliocontracts/contracts/masterVault/MasterVault.sol\":9961:9967  amount */\n      dup8\n      swap1\n        /* \"Heliocontracts/contracts/masterVault/MasterVault.sol\":9928:9968  ICertToken(vaultToken).burn(src, amount) */\n      0x04\n      add\n      tag_283\n      jump\t// in\n    tag_282:\n      0x00\n      mload(0x40)\n      dup1\n      dup4\n      sub\n      dup2\n      0x00\n      dup8\n      dup1\n      extcodesize\n      iszero\n      dup1\n      iszero\n      tag_284\n      jumpi\n      0x00\n      dup1\n      revert\n    tag_284:\n      pop\n      gas\n      call\n      iszero\n      dup1\n      iszero\n      tag_286\n      jumpi\n      returndatasize\n      0x00\n      dup1\n      returndatacopy\n      revert(0x00, returndatasize)\n    tag_286:\n      pop\n      pop\n      pop\n      pop\n        /* \"Heliocontracts/contracts/masterVault/MasterVault.sol\":9998:9999  0 */\n      0x00\n        /* \"Heliocontracts/contracts/masterVault/MasterVault.sol\":9982:9995  withdrawalFee */\n      sload(0xcd)\n        /* \"Heliocontracts/contracts/masterVault/MasterVault.sol\":9982:9999  withdrawalFee > 0 */\n      gt\n        /* \"Heliocontracts/contracts/masterVault/MasterVault.sol\":9978:10236  if (withdrawalFee > 0) {... */\n      iszero\n      tag_287\n      jumpi\n        /* \"Heliocontracts/contracts/masterVault/MasterVault.sol\":10015:10029  uint256 shares */\n      0x00\n        /* \"Heliocontracts/contracts/masterVault/MasterVault.sol\":10032:10065  _assessFee(amount, withdrawalFee) */\n      tag_288\n        /* \"Heliocontracts/contracts/masterVault/MasterVault.sol\":10043:10049  amount */\n      dup5\n        /* \"Heliocontracts/contracts/masterVault/MasterVault.sol\":10051:10064  withdrawalFee */\n      sload(0xcd)\n        /* \"Heliocontracts/contracts/masterVault/MasterVault.sol\":10032:10042  _assessFee */\n      tag_289\n        /* \"Heliocontracts/contracts/masterVault/MasterVault.sol\":10032:10065  _assessFee(amount, withdrawalFee) */\n      jump\t// in\n    tag_288:\n        /* \"Heliocontracts/contracts/masterVault/MasterVault.sol\":10118:10129  feeReceiver */\n      sload(0xd6)\n        /* \"Heliocontracts/contracts/masterVault/MasterVault.sol\":10015:10065  uint256 shares = _assessFee(amount, withdrawalFee) */\n      swap1\n      swap2\n      pop\n        /* \"Heliocontracts/contracts/masterVault/MasterVault.sol\":10079:10147  _withdrawInTokenFromStrategy(strategy, feeReceiver, amount - shares) */\n      tag_290\n      swap1\n        /* \"Heliocontracts/contracts/masterVault/MasterVault.sol\":10108:10116  strategy */\n      dup8\n      swap1\n      sub(shl(0xa0, 0x01), 0x01)\n        /* \"Heliocontracts/contracts/masterVault/MasterVault.sol\":10118:10129  feeReceiver */\n      and\n        /* \"Heliocontracts/contracts/masterVault/MasterVault.sol\":10131:10146  amount - shares */\n      tag_291\n        /* \"Heliocontracts/contracts/masterVault/MasterVault.sol\":10015:10065  uint256 shares = _assessFee(amount, withdrawalFee) */\n      dup5\n        /* \"Heliocontracts/contracts/masterVault/MasterVault.sol\":10131:10137  amount */\n      dup9\n        /* \"Heliocontracts/contracts/masterVault/MasterVault.sol\":10131:10146  amount - shares */\n      tag_292\n      jump\t// in\n    tag_291:\n        /* \"Heliocontracts/contracts/masterVault/MasterVault.sol\":10079:10107  _withdrawInTokenFromStrategy */\n      tag_293\n        /* \"Heliocontracts/contracts/masterVault/MasterVault.sol\":10079:10147  _withdrawInTokenFromStrategy(strategy, feeReceiver, amount - shares) */\n      jump\t// in\n    tag_290:\n      pop\n        /* \"Heliocontracts/contracts/masterVault/MasterVault.sol\":10168:10225  _withdrawInTokenFromStrategy(strategy, recipient, shares) */\n      tag_294\n        /* \"Heliocontracts/contracts/masterVault/MasterVault.sol\":10197:10205  strategy */\n      dup7\n        /* \"Heliocontracts/contracts/masterVault/MasterVault.sol\":10207:10216  recipient */\n      dup7\n        /* \"Heliocontracts/contracts/masterVault/MasterVault.sol\":10218:10224  shares */\n      dup4\n        /* \"Heliocontracts/contracts/masterVault/MasterVault.sol\":10168:10196  _withdrawInTokenFromStrategy */\n      tag_293\n        /* \"Heliocontracts/contracts/masterVault/MasterVault.sol\":10168:10225  _withdrawInTokenFromStrategy(strategy, recipient, shares) */\n      jump\t// in\n    tag_294:\n        /* \"Heliocontracts/contracts/masterVault/MasterVault.sol\":10161:10225  return _withdrawInTokenFromStrategy(strategy, recipient, shares) */\n      swap3\n      pop\n      pop\n      pop\n      jump(tag_275)\n        /* \"Heliocontracts/contracts/masterVault/MasterVault.sol\":9978:10236  if (withdrawalFee > 0) {... */\n    tag_287:\n        /* \"Heliocontracts/contracts/masterVault/MasterVault.sol\":10252:10309  _withdrawInTokenFromStrategy(strategy, recipient, amount) */\n      tag_295\n        /* \"Heliocontracts/contracts/masterVault/MasterVault.sol\":10281:10289  strategy */\n      dup6\n        /* \"Heliocontracts/contracts/masterVault/MasterVault.sol\":10291:10300  recipient */\n      dup6\n        /* \"Heliocontracts/contracts/masterVault/MasterVault.sol\":10302:10308  amount */\n      dup6\n        /* \"Heliocontracts/contracts/masterVault/MasterVault.sol\":10252:10280  _withdrawInTokenFromStrategy */\n      tag_293\n        /* \"Heliocontracts/contracts/masterVault/MasterVault.sol\":10252:10309  _withdrawInTokenFromStrategy(strategy, recipient, amount) */\n      jump\t// in\n    tag_295:\n        /* \"Heliocontracts/contracts/masterVault/MasterVault.sol\":10245:10309  return _withdrawInTokenFromStrategy(strategy, recipient, amount) */\n      swap2\n      pop\n      pop\n        /* \"Heliocontracts/contracts/masterVault/MasterVault.sol\":2031:2032  _ */\n    tag_275:\n        /* \"@openzeppelin/contracts-upgradeable/security/ReentrancyGuardUpgradeable.sol\":1772:1773  1 */\n      0x01\n        /* \"@openzeppelin/contracts-upgradeable/security/ReentrancyGuardUpgradeable.sol\":2872:2879  _status */\n      0x97\n        /* \"@openzeppelin/contracts-upgradeable/security/ReentrancyGuardUpgradeable.sol\":2872:2894  _status = _NOT_ENTERED */\n      sstore\n        /* \"Heliocontracts/contracts/masterVault/MasterVault.sol\":9548:10316  function withdrawInTokenFromStrategy(address strategy, address recipient, uint256 amount)... */\n      swap4\n      swap3\n      pop\n      pop\n      pop\n      jump\t// out\n        /* \"Heliocontracts/contracts/masterVault/MasterVault.sol\":11674:12747  function setStrategy(... */\n    tag_87:\n        /* \"@openzeppelin/contracts-upgradeable/access/OwnableUpgradeable.sol\":1334:1347  _checkOwner() */\n      tag_297\n        /* \"@openzeppelin/contracts-upgradeable/access/OwnableUpgradeable.sol\":1334:1345  _checkOwner */\n      tag_258\n        /* \"@openzeppelin/contracts-upgradeable/access/OwnableUpgradeable.sol\":1334:1347  _checkOwner() */\n      jump\t// in\n    tag_297:\n      sub(shl(0xa0, 0x01), 0x01)\n        /* \"Heliocontracts/contracts/masterVault/MasterVault.sol\":11808:11830  strategy != address(0) */\n      dup3\n      and\n        /* \"Heliocontracts/contracts/masterVault/MasterVault.sol\":11800:11831  require(strategy != address(0)) */\n      tag_299\n      jumpi\n      0x00\n      dup1\n      revert\n    tag_299:\n        /* \"Heliocontracts/contracts/masterVault/MasterVault.sol\":11869:11883  MAX_STRATEGIES */\n      sload(0xd0)\n        /* \"Heliocontracts/contracts/masterVault/MasterVault.sol\":11849:11859  strategies */\n      0xd2\n        /* \"Heliocontracts/contracts/masterVault/MasterVault.sol\":11849:11866  strategies.length */\n      sload\n        /* \"Heliocontracts/contracts/masterVault/MasterVault.sol\":11849:11883  strategies.length < MAX_STRATEGIES */\n      lt\n        /* \"Heliocontracts/contracts/masterVault/MasterVault.sol\":11841:11911  require(strategies.length < MAX_STRATEGIES, \"max strategies exceeded\") */\n      tag_300\n      jumpi\n      mload(0x40)\n      shl(0xe5, 0x461bcd)\n      dup2\n      mstore\n        /* \"#utility.yul\":5716:5718   */\n      0x20\n        /* \"Heliocontracts/contracts/masterVault/MasterVault.sol\":11841:11911  require(strategies.length < MAX_STRATEGIES, \"max strategies exceeded\") */\n      0x04\n      dup3\n      add\n        /* \"#utility.yul\":5698:5719   */\n      mstore\n        /* \"#utility.yul\":5755:5757   */\n      0x17\n        /* \"#utility.yul\":5735:5753   */\n      0x24\n      dup3\n      add\n        /* \"#utility.yul\":5728:5758   */\n      mstore\n        /* \"#utility.yul\":5794:5819   */\n      0x6d61782073747261746567696573206578636565646564000000000000000000\n        /* \"#utility.yul\":5774:5792   */\n      0x44\n      dup3\n      add\n        /* \"#utility.yul\":5767:5820   */\n      mstore\n        /* \"#utility.yul\":5837:5855   */\n      0x64\n      add\n        /* \"Heliocontracts/contracts/masterVault/MasterVault.sol\":11841:11911  require(strategies.length < MAX_STRATEGIES, \"max strategies exceeded\") */\n      tag_264\n        /* \"#utility.yul\":5514:5861   */\n      jump\n        /* \"Heliocontracts/contracts/masterVault/MasterVault.sol\":11841:11911  require(strategies.length < MAX_STRATEGIES, \"max strategies exceeded\") */\n    tag_300:\n        /* \"Heliocontracts/contracts/masterVault/MasterVault.sol\":11981:11985  this */\n      address\n      sub(shl(0xa0, 0x01), 0x01)\n        /* \"Heliocontracts/contracts/masterVault/MasterVault.sol\":11929:11986  address(IBaseStrategy(strategy).vault()) == address(this) */\n      and\n        /* \"Heliocontracts/contracts/masterVault/MasterVault.sol\":11951:11959  strategy */\n      dup3\n      sub(shl(0xa0, 0x01), 0x01)\n        /* \"Heliocontracts/contracts/masterVault/MasterVault.sol\":11937:11966  IBaseStrategy(strategy).vault */\n      and\n      0xfbfa77cf\n        /* \"Heliocontracts/contracts/masterVault/MasterVault.sol\":11937:11968  IBaseStrategy(strategy).vault() */\n      mload(0x40)\n      dup2\n      0xffffffff\n      and\n      0xe0\n      shl\n      dup2\n      mstore\n      0x04\n      add\n      0x20\n      mload(0x40)\n      dup1\n      dup4\n      sub\n      dup2\n      dup7\n      gas\n      staticcall\n      iszero\n      dup1\n      iszero\n      tag_304\n      jumpi\n      returndatasize\n      0x00\n      dup1\n      returndatacopy\n      revert(0x00, returndatasize)\n    tag_304:\n      pop\n      pop\n      pop\n      pop\n      mload(0x40)\n      returndatasize\n      not(0x1f)\n      0x1f\n      dup3\n      add\n      and\n      dup3\n      add\n      dup1\n      0x40\n      mstore\n      pop\n      dup2\n      add\n      swap1\n      tag_305\n      swap2\n      swap1\n      tag_306\n      jump\t// in\n    tag_305:\n      sub(shl(0xa0, 0x01), 0x01)\n        /* \"Heliocontracts/contracts/masterVault/MasterVault.sol\":11929:11986  address(IBaseStrategy(strategy).vault()) == address(this) */\n      and\n      eq\n        /* \"Heliocontracts/contracts/masterVault/MasterVault.sol\":11921:12007  require(address(IBaseStrategy(strategy).vault()) == address(this), \"invalid strategy\") */\n      tag_307\n      jumpi\n      mload(0x40)\n      shl(0xe5, 0x461bcd)\n      dup2\n      mstore\n        /* \"#utility.yul\":6345:6347   */\n      0x20\n        /* \"Heliocontracts/contracts/masterVault/MasterVault.sol\":11921:12007  require(address(IBaseStrategy(strategy).vault()) == address(this), \"invalid strategy\") */\n      0x04\n      dup3\n      add\n        /* \"#utility.yul\":6327:6348   */\n      mstore\n        /* \"#utility.yul\":6384:6386   */\n      0x10\n        /* \"#utility.yul\":6364:6382   */\n      0x24\n      dup3\n      add\n        /* \"#utility.yul\":6357:6387   */\n      mstore\n      shl(0x80, 0x696e76616c6964207374726174656779)\n        /* \"#utility.yul\":6403:6421   */\n      0x44\n      dup3\n      add\n        /* \"#utility.yul\":6396:6442   */\n      mstore\n        /* \"#utility.yul\":6459:6477   */\n      0x64\n      add\n        /* \"Heliocontracts/contracts/masterVault/MasterVault.sol\":11921:12007  require(address(IBaseStrategy(strategy).vault()) == address(this), \"invalid strategy\") */\n      tag_264\n        /* \"#utility.yul\":6143:6483   */\n      jump\n        /* \"Heliocontracts/contracts/masterVault/MasterVault.sol\":11921:12007  require(address(IBaseStrategy(strategy).vault()) == address(this), \"invalid strategy\") */\n    tag_307:\n        /* \"Heliocontracts/contracts/masterVault/MasterVault.sol\":12017:12041  uint256 totalAllocations */\n      0x00\n      dup1\n        /* \"Heliocontracts/contracts/masterVault/MasterVault.sol\":12051:12365  for(uint256 i = 0; i < strategies.length; i++) {... */\n    tag_310:\n        /* \"Heliocontracts/contracts/masterVault/MasterVault.sol\":12074:12084  strategies */\n      0xd2\n        /* \"Heliocontracts/contracts/masterVault/MasterVault.sol\":12074:12091  strategies.length */\n      sload\n        /* \"Heliocontracts/contracts/masterVault/MasterVault.sol\":12070:12091  i < strategies.length */\n      dup2\n      lt\n        /* \"Heliocontracts/contracts/masterVault/MasterVault.sol\":12051:12365  for(uint256 i = 0; i < strategies.length; i++) {... */\n      iszero\n      tag_311\n      jumpi\n        /* \"Heliocontracts/contracts/masterVault/MasterVault.sol\":12132:12140  strategy */\n      dup4\n      sub(shl(0xa0, 0x01), 0x01)\n        /* \"Heliocontracts/contracts/masterVault/MasterVault.sol\":12115:12140  strategies[i] == strategy */\n      and\n        /* \"Heliocontracts/contracts/masterVault/MasterVault.sol\":12115:12125  strategies */\n      0xd2\n        /* \"Heliocontracts/contracts/masterVault/MasterVault.sol\":12126:12127  i */\n      dup3\n        /* \"Heliocontracts/contracts/masterVault/MasterVault.sol\":12115:12128  strategies[i] */\n      dup2\n      sload\n      dup2\n      lt\n      tag_314\n      jumpi\n      tag_314\n      tag_315\n      jump\t// in\n    tag_314:\n      0x00\n      swap2\n      dup3\n      mstore\n      0x20\n      swap1\n      swap2\n      keccak256\n      add\n      sload\n      sub(shl(0xa0, 0x01), 0x01)\n      and\n        /* \"Heliocontracts/contracts/masterVault/MasterVault.sol\":12115:12140  strategies[i] == strategy */\n      eq\n        /* \"Heliocontracts/contracts/masterVault/MasterVault.sol\":12112:12208  if(strategies[i] == strategy) {... */\n      iszero\n      tag_317\n      jumpi\n        /* \"Heliocontracts/contracts/masterVault/MasterVault.sol\":12160:12193  revert(\"strategy already exists\") */\n      mload(0x40)\n      shl(0xe5, 0x461bcd)\n      dup2\n      mstore\n        /* \"#utility.yul\":6822:6824   */\n      0x20\n        /* \"Heliocontracts/contracts/masterVault/MasterVault.sol\":12160:12193  revert(\"strategy already exists\") */\n      0x04\n      dup3\n      add\n        /* \"#utility.yul\":6804:6825   */\n      mstore\n        /* \"#utility.yul\":6861:6863   */\n      0x17\n        /* \"#utility.yul\":6841:6859   */\n      0x24\n      dup3\n      add\n        /* \"#utility.yul\":6834:6864   */\n      mstore\n        /* \"#utility.yul\":6900:6925   */\n      0x737472617465677920616c726561647920657869737473000000000000000000\n        /* \"#utility.yul\":6880:6898   */\n      0x44\n      dup3\n      add\n        /* \"#utility.yul\":6873:6926   */\n      mstore\n        /* \"#utility.yul\":6943:6961   */\n      0x64\n      add\n        /* \"Heliocontracts/contracts/masterVault/MasterVault.sol\":12160:12193  revert(\"strategy already exists\") */\n      tag_264\n        /* \"#utility.yul\":6620:6967   */\n      jump\n        /* \"Heliocontracts/contracts/masterVault/MasterVault.sol\":12112:12208  if(strategies[i] == strategy) {... */\n    tag_317:\n        /* \"Heliocontracts/contracts/masterVault/MasterVault.sol\":12224:12238  strategyParams */\n      0xc9\n        /* \"Heliocontracts/contracts/masterVault/MasterVault.sol\":12224:12253  strategyParams[strategies[i]] */\n      0x00\n        /* \"Heliocontracts/contracts/masterVault/MasterVault.sol\":12239:12249  strategies */\n      0xd2\n        /* \"Heliocontracts/contracts/masterVault/MasterVault.sol\":12250:12251  i */\n      dup4\n        /* \"Heliocontracts/contracts/masterVault/MasterVault.sol\":12239:12252  strategies[i] */\n      dup2\n      sload\n      dup2\n      lt\n      tag_321\n      jumpi\n      tag_321\n      tag_315\n      jump\t// in\n    tag_321:\n      0x00\n      swap2\n      dup3\n      mstore\n      0x20\n      dup1\n      dup4\n      keccak256\n      swap1\n      swap2\n      add\n      sload\n      sub(shl(0xa0, 0x01), 0x01)\n      and\n        /* \"Heliocontracts/contracts/masterVault/MasterVault.sol\":12224:12253  strategyParams[strategies[i]] */\n      dup4\n      mstore\n      dup3\n      add\n      swap3\n      swap1\n      swap3\n      mstore\n      0x40\n      add\n      swap1\n      keccak256\n        /* \"Heliocontracts/contracts/masterVault/MasterVault.sol\":12224:12260  strategyParams[strategies[i]].active */\n      sload\n      0xff\n      and\n        /* \"Heliocontracts/contracts/masterVault/MasterVault.sol\":12221:12355  if(strategyParams[strategies[i]].active) {... */\n      iszero\n      tag_323\n      jumpi\n        /* \"Heliocontracts/contracts/masterVault/MasterVault.sol\":12300:12314  strategyParams */\n      0xc9\n        /* \"Heliocontracts/contracts/masterVault/MasterVault.sol\":12300:12329  strategyParams[strategies[i]] */\n      0x00\n        /* \"Heliocontracts/contracts/masterVault/MasterVault.sol\":12315:12325  strategies */\n      0xd2\n        /* \"Heliocontracts/contracts/masterVault/MasterVault.sol\":12326:12327  i */\n      dup4\n        /* \"Heliocontracts/contracts/masterVault/MasterVault.sol\":12315:12328  strategies[i] */\n      dup2\n      sload\n      dup2\n      lt\n      tag_325\n      jumpi\n      tag_325\n      tag_315\n      jump\t// in\n    tag_325:\n      0x00\n      swap2\n      dup3\n      mstore\n      0x20\n      dup1\n      dup4\n      keccak256\n      swap1\n      swap2\n      add\n      sload\n      sub(shl(0xa0, 0x01), 0x01)\n      and\n        /* \"Heliocontracts/contracts/masterVault/MasterVault.sol\":12300:12329  strategyParams[strategies[i]] */\n      dup4\n      mstore\n      dup3\n      add\n      swap3\n      swap1\n      swap3\n      mstore\n      0x40\n      add\n      swap1\n      keccak256\n        /* \"Heliocontracts/contracts/masterVault/MasterVault.sol\":12315:12328  strategies[i] */\n      0x01\n        /* \"Heliocontracts/contracts/masterVault/MasterVault.sol\":12300:12340  strategyParams[strategies[i]].allocation */\n      add\n      sload\n        /* \"Heliocontracts/contracts/masterVault/MasterVault.sol\":12280:12340  totalAllocations += strategyParams[strategies[i]].allocation */\n      tag_327\n      swap1\n      dup4\n      tag_328\n      jump\t// in\n    tag_327:\n      swap2\n      pop\n        /* \"Heliocontracts/contracts/masterVault/MasterVault.sol\":12221:12355  if(strategyParams[strategies[i]].active) {... */\n    tag_323:\n        /* \"Heliocontracts/contracts/masterVault/MasterVault.sol\":12093:12096  i++ */\n      dup1\n      tag_329\n      dup2\n      tag_330\n      jump\t// in\n    tag_329:\n      swap2\n      pop\n      pop\n        /* \"Heliocontracts/contracts/masterVault/MasterVault.sol\":12051:12365  for(uint256 i = 0; i < strategies.length; i++) {... */\n      jump(tag_310)\n    tag_311:\n      pop\n        /* \"Heliocontracts/contracts/masterVault/MasterVault.sol\":12416:12419  1e6 */\n      0x0f4240\n        /* \"Heliocontracts/contracts/masterVault/MasterVault.sol\":12383:12412  totalAllocations + allocation */\n      tag_331\n        /* \"Heliocontracts/contracts/masterVault/MasterVault.sol\":12402:12412  allocation */\n      dup4\n        /* \"Heliocontracts/contracts/masterVault/MasterVault.sol\":12383:12399  totalAllocations */\n      dup4\n        /* \"Heliocontracts/contracts/masterVault/MasterVault.sol\":12383:12412  totalAllocations + allocation */\n      tag_328\n      jump\t// in\n    tag_331:\n        /* \"Heliocontracts/contracts/masterVault/MasterVault.sol\":12383:12419  totalAllocations + allocation <= 1e6 */\n      gt\n      iszero\n        /* \"Heliocontracts/contracts/masterVault/MasterVault.sol\":12375:12460  require(totalAllocations + allocation <= 1e6, \"allocations cannot be more than 100%\") */\n      tag_332\n      jumpi\n      mload(0x40)\n      shl(0xe5, 0x461bcd)\n      dup2\n      mstore\n      0x04\n      add\n      tag_264\n      swap1\n      tag_334\n      jump\t// in\n    tag_332:\n        /* \"Heliocontracts/contracts/masterVault/MasterVault.sol\":12502:12611  StrategyParams({... */\n      0x40\n      dup1\n      mload\n      0x60\n      dup2\n      add\n      dup3\n      mstore\n        /* \"Heliocontracts/contracts/masterVault/MasterVault.sol\":12539:12543  true */\n      0x01\n        /* \"Heliocontracts/contracts/masterVault/MasterVault.sol\":12502:12611  StrategyParams({... */\n      dup1\n      dup3\n      mstore\n      0x20\n      dup1\n      dup4\n      add\n      dup7\n      dup2\n      mstore\n      0x00\n      dup5\n      dup7\n      add\n      dup2\n      dup2\n      mstore\n      sub(shl(0xa0, 0x01), 0x01)\n        /* \"Heliocontracts/contracts/masterVault/MasterVault.sol\":12622:12646  strategyParams[strategy] */\n      dup11\n      and\n      dup1\n      dup4\n      mstore\n        /* \"Heliocontracts/contracts/masterVault/MasterVault.sol\":12622:12636  strategyParams */\n      0xc9\n        /* \"Heliocontracts/contracts/masterVault/MasterVault.sol\":12622:12646  strategyParams[strategy] */\n      swap1\n      swap5\n      mstore\n      dup7\n      dup3\n      keccak256\n        /* \"Heliocontracts/contracts/masterVault/MasterVault.sol\":12622:12655  strategyParams[strategy] = params */\n      dup7\n      mload\n      dup2\n      sload\n      not(0xff)\n      and\n      swap1\n      iszero\n      iszero\n      or\n      dup2\n      sstore\n      swap3\n      mload\n      dup4\n      dup7\n      add\n      sstore\n      mload\n      0x02\n      swap1\n      swap3\n      add\n      swap2\n      swap1\n      swap2\n      sstore\n        /* \"Heliocontracts/contracts/masterVault/MasterVault.sol\":12665:12675  strategies */\n      0xd2\n        /* \"Heliocontracts/contracts/masterVault/MasterVault.sol\":12665:12690  strategies.push(strategy) */\n      dup1\n      sload\n      swap4\n      dup5\n      add\n      dup2\n      sstore\n      swap1\n      mstore\n      0xf2192e1030363415d7b4fb0406540a0060e8e2fc8982f3f32289379e11fa6546\n      swap1\n      swap2\n      add\n      dup1\n      sload\n      not(sub(shl(0xa0, 0x01), 0x01))\n      and\n      swap1\n      swap2\n      or\n      swap1\n      sstore\n        /* \"Heliocontracts/contracts/masterVault/MasterVault.sol\":12705:12740  StrategyAdded(strategy, allocation) */\n      swap1\n      mload\n      0x2f564a83158ad1831793ad3e69257b52f39ece5d49cb0d8746708ecb9ef964da\n      swap1\n      tag_336\n      swap1\n        /* \"Heliocontracts/contracts/masterVault/MasterVault.sol\":12622:12646  strategyParams[strategy] */\n      dup7\n      swap1\n        /* \"Heliocontracts/contracts/masterVault/MasterVault.sol\":12502:12611  StrategyParams({... */\n      dup7\n      swap1\n        /* \"Heliocontracts/contracts/masterVault/MasterVault.sol\":12705:12740  StrategyAdded(strategy, allocation) */\n      tag_283\n      jump\t// in\n    tag_336:\n      mload(0x40)\n      dup1\n      swap2\n      sub\n      swap1\n      log1\n        /* \"Heliocontracts/contracts/masterVault/MasterVault.sol\":11790:12747  {... */\n      pop\n      pop\n        /* \"Heliocontracts/contracts/masterVault/MasterVault.sol\":11674:12747  function setStrategy(... */\n      pop\n      pop\n      jump\t// out\n        /* \"Heliocontracts/contracts/masterVault/MasterVault.sol\":4174:5164  function withdrawETH(address account, uint256 amount) ... */\n    tag_91:\n        /* \"Heliocontracts/contracts/masterVault/MasterVault.sol\":4322:4336  uint256 shares */\n      0x00\n        /* \"@openzeppelin/contracts-upgradeable/security/ReentrancyGuardUpgradeable.sol\":1815:1816  2 */\n      0x02\n        /* \"@openzeppelin/contracts-upgradeable/security/ReentrancyGuardUpgradeable.sol\":2569:2576  _status */\n      sload(0x97)\n        /* \"@openzeppelin/contracts-upgradeable/security/ReentrancyGuardUpgradeable.sol\":2569:2588  _status != _ENTERED */\n      eq\n      iszero\n        /* \"@openzeppelin/contracts-upgradeable/security/ReentrancyGuardUpgradeable.sol\":2561:2624  require(_status != _ENTERED, \"ReentrancyGuard: reentrant call\") */\n      tag_338\n      jumpi\n      mload(0x40)\n      shl(0xe5, 0x461bcd)\n      dup2\n      mstore\n      0x04\n      add\n      tag_264\n      swap1\n      tag_265\n      jump\t// in\n    tag_338:\n        /* \"@openzeppelin/contracts-upgradeable/security/ReentrancyGuardUpgradeable.sol\":1815:1816  2 */\n      0x02\n        /* \"@openzeppelin/contracts-upgradeable/security/ReentrancyGuardUpgradeable.sol\":2699:2706  _status */\n      0x97\n        /* \"@openzeppelin/contracts-upgradeable/security/ReentrancyGuardUpgradeable.sol\":2699:2717  _status = _ENTERED */\n      sstore\n        /* \"@openzeppelin/contracts-upgradeable/security/PausableUpgradeable.sol\":1482:1501  _requireNotPaused() */\n      tag_341\n        /* \"@openzeppelin/contracts-upgradeable/security/PausableUpgradeable.sol\":1482:1499  _requireNotPaused */\n      tag_268\n        /* \"@openzeppelin/contracts-upgradeable/security/PausableUpgradeable.sol\":1482:1501  _requireNotPaused() */\n      jump\t// in\n    tag_341:\n        /* \"@openzeppelin/contracts-upgradeable/access/OwnableUpgradeable.sol\":1513:1519  _owner */\n      and(sub(shl(0xa0, 0x01), 0x01), sload(0x33))\n        /* \"Heliocontracts/contracts/masterVault/MasterVault.sol\":1927:1937  msg.sender */\n      caller\n        /* \"Heliocontracts/contracts/masterVault/MasterVault.sol\":1927:1948  msg.sender == owner() */\n      eq\n      dup1\n        /* \"Heliocontracts/contracts/masterVault/MasterVault.sol\":1927:1974  msg.sender == owner() || msg.sender == provider */\n      tag_344\n      jumpi\n      pop\n        /* \"Heliocontracts/contracts/masterVault/MasterVault.sol\":1966:1974  provider */\n      and(sub(shl(0xa0, 0x01), 0x01), sload(0xd3))\n        /* \"Heliocontracts/contracts/masterVault/MasterVault.sol\":1952:1962  msg.sender */\n      caller\n        /* \"Heliocontracts/contracts/masterVault/MasterVault.sol\":1952:1974  msg.sender == provider */\n      eq\n        /* \"Heliocontracts/contracts/masterVault/MasterVault.sol\":1927:1974  msg.sender == owner() || msg.sender == provider */\n    tag_344:\n        /* \"Heliocontracts/contracts/masterVault/MasterVault.sol\":1906:2021  require(... */\n      tag_345\n      jumpi\n      mload(0x40)\n      shl(0xe5, 0x461bcd)\n      dup2\n      mstore\n      0x04\n      add\n      tag_264\n      swap1\n      tag_274\n      jump\t// in\n    tag_345:\n        /* \"Heliocontracts/contracts/masterVault/MasterVault.sol\":4393:4403  vaultToken */\n      sload(0xd4)\n        /* \"Heliocontracts/contracts/masterVault/MasterVault.sol\":4382:4422  ICertToken(vaultToken).burn(src, amount) */\n      mload(0x40)\n      shl(0xe2, 0x2770a7eb)\n      dup2\n      mstore\n        /* \"Heliocontracts/contracts/masterVault/MasterVault.sol\":4362:4372  msg.sender */\n      caller\n      swap2\n      sub(shl(0xa0, 0x01), 0x01)\n        /* \"Heliocontracts/contracts/masterVault/MasterVault.sol\":4393:4403  vaultToken */\n      and\n      swap1\n        /* \"Heliocontracts/contracts/masterVault/MasterVault.sol\":4382:4409  ICertToken(vaultToken).burn */\n      0x9dc29fac\n      swap1\n        /* \"Heliocontracts/contracts/masterVault/MasterVault.sol\":4382:4422  ICertToken(vaultToken).burn(src, amount) */\n      tag_348\n      swap1\n        /* \"Heliocontracts/contracts/masterVault/MasterVault.sol\":4362:4372  msg.sender */\n      dup5\n      swap1\n        /* \"Heliocontracts/contracts/masterVault/MasterVault.sol\":4415:4421  amount */\n      dup8\n      swap1\n        /* \"Heliocontracts/contracts/masterVault/MasterVault.sol\":4382:4422  ICertToken(vaultToken).burn(src, amount) */\n      0x04\n      add\n      tag_283\n      jump\t// in\n    tag_348:\n      0x00\n      mload(0x40)\n      dup1\n      dup4\n      sub\n      dup2\n      0x00\n      dup8\n      dup1\n      extcodesize\n      iszero\n      dup1\n      iszero\n      tag_349\n      jumpi\n      0x00\n      dup1\n      revert\n    tag_349:\n      pop\n      gas\n      call\n      iszero\n      dup1\n      iszero\n      tag_351\n      jumpi\n      returndatasize\n      0x00\n      dup1\n      returndatacopy\n      revert(0x00, returndatasize)\n    tag_351:\n      pop\n      pop\n      pop\n      pop\n        /* \"Heliocontracts/contracts/masterVault/MasterVault.sol\":4432:4450  uint256 ethBalance */\n      0x00\n        /* \"Heliocontracts/contracts/masterVault/MasterVault.sol\":4453:4472  totalAssetInVault() */\n      tag_352\n        /* \"Heliocontracts/contracts/masterVault/MasterVault.sol\":4453:4470  totalAssetInVault */\n      tag_200\n        /* \"Heliocontracts/contracts/masterVault/MasterVault.sol\":4453:4472  totalAssetInVault() */\n      jump\t// in\n    tag_352:\n        /* \"Heliocontracts/contracts/masterVault/MasterVault.sol\":4432:4472  uint256 ethBalance = totalAssetInVault() */\n      swap1\n      pop\n        /* \"Heliocontracts/contracts/masterVault/MasterVault.sol\":4491:4524  _assessFee(amount, withdrawalFee) */\n      tag_353\n        /* \"Heliocontracts/contracts/masterVault/MasterVault.sol\":4502:4508  amount */\n      dup5\n        /* \"Heliocontracts/contracts/masterVault/MasterVault.sol\":4510:4523  withdrawalFee */\n      sload(0xcd)\n        /* \"Heliocontracts/contracts/masterVault/MasterVault.sol\":4491:4501  _assessFee */\n      tag_289\n        /* \"Heliocontracts/contracts/masterVault/MasterVault.sol\":4491:4524  _assessFee(amount, withdrawalFee) */\n      jump\t// in\n    tag_353:\n        /* \"Heliocontracts/contracts/masterVault/MasterVault.sol\":4482:4524  shares = _assessFee(amount, withdrawalFee) */\n      swap3\n      pop\n        /* \"Heliocontracts/contracts/masterVault/MasterVault.sol\":4547:4562  amount - shares */\n      tag_354\n        /* \"Heliocontracts/contracts/masterVault/MasterVault.sol\":4482:4524  shares = _assessFee(amount, withdrawalFee) */\n      dup4\n        /* \"Heliocontracts/contracts/masterVault/MasterVault.sol\":4547:4553  amount */\n      dup6\n        /* \"Heliocontracts/contracts/masterVault/MasterVault.sol\":4547:4562  amount - shares */\n      tag_292\n      jump\t// in\n    tag_354:\n        /* \"Heliocontracts/contracts/masterVault/MasterVault.sol\":4534:4543  feeEarned */\n      0xcf\n      0x00\n        /* \"Heliocontracts/contracts/masterVault/MasterVault.sol\":4534:4562  feeEarned += amount - shares */\n      dup3\n      dup3\n      sload\n      tag_355\n      swap2\n      swap1\n      tag_328\n      jump\t// in\n    tag_355:\n      swap1\n      swap2\n      sstore\n      pop\n      pop\n        /* \"Heliocontracts/contracts/masterVault/MasterVault.sol\":4575:4594  ethBalance < shares */\n      dup3\n      dup2\n      lt\n        /* \"Heliocontracts/contracts/masterVault/MasterVault.sol\":4572:5080  if(ethBalance < shares) {... */\n      iszero\n      tag_356\n      jumpi\n        /* \"Heliocontracts/contracts/masterVault/MasterVault.sol\":4611:4620  bool sent */\n      0x00\n        /* \"Heliocontracts/contracts/masterVault/MasterVault.sol\":4634:4641  account */\n      dup6\n      sub(shl(0xa0, 0x01), 0x01)\n        /* \"Heliocontracts/contracts/masterVault/MasterVault.sol\":4626:4647  payable(account).call */\n      and\n        /* \"Heliocontracts/contracts/masterVault/MasterVault.sol\":4655:4665  ethBalance */\n      dup3\n        /* \"Heliocontracts/contracts/masterVault/MasterVault.sol\":4626:4670  payable(account).call{value: ethBalance}(\"\") */\n      mload(0x40)\n      0x00\n      mload(0x40)\n      dup1\n      dup4\n      sub\n      dup2\n      dup6\n      dup8\n      gas\n      call\n      swap3\n      pop\n      pop\n      pop\n      returndatasize\n      dup1\n      0x00\n      dup2\n      eq\n      tag_361\n      jumpi\n      mload(0x40)\n      swap2\n      pop\n      and(add(returndatasize, 0x3f), not(0x1f))\n      dup3\n      add\n      0x40\n      mstore\n      returndatasize\n      dup3\n      mstore\n      returndatasize\n      0x00\n      0x20\n      dup5\n      add\n      returndatacopy\n      jump(tag_360)\n    tag_361:\n      0x60\n      swap2\n      pop\n    tag_360:\n      pop\n        /* \"Heliocontracts/contracts/masterVault/MasterVault.sol\":4610:4670  (bool sent, ) = payable(account).call{value: ethBalance}(\"\") */\n      pop\n      swap1\n      pop\n        /* \"Heliocontracts/contracts/masterVault/MasterVault.sol\":4692:4696  sent */\n      dup1\n        /* \"Heliocontracts/contracts/masterVault/MasterVault.sol\":4684:4716  require(sent, \"transfer failed\") */\n      tag_362\n      jumpi\n      mload(0x40)\n      shl(0xe5, 0x461bcd)\n      dup2\n      mstore\n      0x04\n      add\n      tag_264\n      swap1\n      tag_364\n      jump\t// in\n    tag_362:\n        /* \"Heliocontracts/contracts/masterVault/MasterVault.sol\":4730:4747  uint256 withdrawn */\n      0x00\n        /* \"Heliocontracts/contracts/masterVault/MasterVault.sol\":4750:4808  withdrawFromActiveStrategies(account, shares - ethBalance) */\n      tag_365\n        /* \"Heliocontracts/contracts/masterVault/MasterVault.sol\":4779:4786  account */\n      dup8\n        /* \"Heliocontracts/contracts/masterVault/MasterVault.sol\":4788:4807  shares - ethBalance */\n      tag_366\n        /* \"Heliocontracts/contracts/masterVault/MasterVault.sol\":4797:4807  ethBalance */\n      dup6\n        /* \"Heliocontracts/contracts/masterVault/MasterVault.sol\":4788:4794  shares */\n      dup9\n        /* \"Heliocontracts/contracts/masterVault/MasterVault.sol\":4788:4807  shares - ethBalance */\n      tag_292\n      jump\t// in\n    tag_366:\n        /* \"Heliocontracts/contracts/masterVault/MasterVault.sol\":4750:4778  withdrawFromActiveStrategies */\n      tag_367\n        /* \"Heliocontracts/contracts/masterVault/MasterVault.sol\":4750:4808  withdrawFromActiveStrategies(account, shares - ethBalance) */\n      jump\t// in\n    tag_365:\n        /* \"Heliocontracts/contracts/masterVault/MasterVault.sol\":4730:4808  uint256 withdrawn = withdrawFromActiveStrategies(account, shares - ethBalance) */\n      swap1\n      pop\n        /* \"Heliocontracts/contracts/masterVault/MasterVault.sol\":4843:4862  shares - ethBalance */\n      tag_368\n        /* \"Heliocontracts/contracts/masterVault/MasterVault.sol\":4852:4862  ethBalance */\n      dup4\n        /* \"Heliocontracts/contracts/masterVault/MasterVault.sol\":4843:4849  shares */\n      dup7\n        /* \"Heliocontracts/contracts/masterVault/MasterVault.sol\":4843:4862  shares - ethBalance */\n      tag_292\n      jump\t// in\n    tag_368:\n        /* \"Heliocontracts/contracts/masterVault/MasterVault.sol\":4830:4839  withdrawn */\n      dup2\n        /* \"Heliocontracts/contracts/masterVault/MasterVault.sol\":4830:4862  withdrawn <= shares - ethBalance */\n      gt\n      iszero\n        /* \"Heliocontracts/contracts/masterVault/MasterVault.sol\":4822:4891  require(withdrawn <= shares - ethBalance, \"invalid withdrawn amount\") */\n      tag_369\n      jumpi\n      mload(0x40)\n      shl(0xe5, 0x461bcd)\n      dup2\n      mstore\n        /* \"#utility.yul\":8406:8408   */\n      0x20\n        /* \"Heliocontracts/contracts/masterVault/MasterVault.sol\":4822:4891  require(withdrawn <= shares - ethBalance, \"invalid withdrawn amount\") */\n      0x04\n      dup3\n      add\n        /* \"#utility.yul\":8388:8409   */\n      mstore\n        /* \"#utility.yul\":8445:8447   */\n      0x18\n        /* \"#utility.yul\":8425:8443   */\n      0x24\n      dup3\n      add\n        /* \"#utility.yul\":8418:8448   */\n      mstore\n      shl(0x42, 0x1a5b9d985b1a59081dda5d1a191c985ddb88185b5bdd5b9d)\n        /* \"#utility.yul\":8464:8482   */\n      0x44\n      dup3\n      add\n        /* \"#utility.yul\":8457:8511   */\n      mstore\n        /* \"#utility.yul\":8528:8546   */\n      0x64\n      add\n        /* \"Heliocontracts/contracts/masterVault/MasterVault.sol\":4822:4891  require(withdrawn <= shares - ethBalance, \"invalid withdrawn amount\") */\n      tag_264\n        /* \"#utility.yul\":8204:8552   */\n      jump\n        /* \"Heliocontracts/contracts/masterVault/MasterVault.sol\":4822:4891  require(withdrawn <= shares - ethBalance, \"invalid withdrawn amount\") */\n    tag_369:\n        /* \"Heliocontracts/contracts/masterVault/MasterVault.sol\":4914:4936  ethBalance + withdrawn */\n      tag_372\n        /* \"Heliocontracts/contracts/masterVault/MasterVault.sol\":4927:4936  withdrawn */\n      dup2\n        /* \"Heliocontracts/contracts/masterVault/MasterVault.sol\":4914:4924  ethBalance */\n      dup5\n        /* \"Heliocontracts/contracts/masterVault/MasterVault.sol\":4914:4936  ethBalance + withdrawn */\n      tag_328\n      jump\t// in\n    tag_372:\n        /* \"Heliocontracts/contracts/masterVault/MasterVault.sol\":4905:4936  shares = ethBalance + withdrawn */\n      swap5\n      pop\n        /* \"Heliocontracts/contracts/masterVault/MasterVault.sol\":4596:4947  {... */\n      pop\n      pop\n        /* \"Heliocontracts/contracts/masterVault/MasterVault.sol\":4572:5080  if(ethBalance < shares) {... */\n      jump(tag_373)\n    tag_356:\n        /* \"Heliocontracts/contracts/masterVault/MasterVault.sol\":4968:4977  bool sent */\n      0x00\n        /* \"Heliocontracts/contracts/masterVault/MasterVault.sol\":4991:4998  account */\n      dup6\n      sub(shl(0xa0, 0x01), 0x01)\n        /* \"Heliocontracts/contracts/masterVault/MasterVault.sol\":4983:5004  payable(account).call */\n      and\n        /* \"Heliocontracts/contracts/masterVault/MasterVault.sol\":5012:5018  shares */\n      dup5\n        /* \"Heliocontracts/contracts/masterVault/MasterVault.sol\":4983:5023  payable(account).call{value: shares}(\"\") */\n      mload(0x40)\n      0x00\n      mload(0x40)\n      dup1\n      dup4\n      sub\n      dup2\n      dup6\n      dup8\n      gas\n      call\n      swap3\n      pop\n      pop\n      pop\n      returndatasize\n      dup1\n      0x00\n      dup2\n      eq\n      tag_377\n      jumpi\n      mload(0x40)\n      swap2\n      pop\n      and(add(returndatasize, 0x3f), not(0x1f))\n      dup3\n      add\n      0x40\n      mstore\n      returndatasize\n      dup3\n      mstore\n      returndatasize\n      0x00\n      0x20\n      dup5\n      add\n      returndatacopy\n      jump(tag_376)\n    tag_377:\n      0x60\n      swap2\n      pop\n    tag_376:\n      pop\n        /* \"Heliocontracts/contracts/masterVault/MasterVault.sol\":4967:5023  (bool sent, ) = payable(account).call{value: shares}(\"\") */\n      pop\n      swap1\n      pop\n        /* \"Heliocontracts/contracts/masterVault/MasterVault.sol\":5045:5049  sent */\n      dup1\n        /* \"Heliocontracts/contracts/masterVault/MasterVault.sol\":5037:5069  require(sent, \"transfer failed\") */\n      tag_378\n      jumpi\n      mload(0x40)\n      shl(0xe5, 0x461bcd)\n      dup2\n      mstore\n      0x04\n      add\n      tag_264\n      swap1\n      tag_364\n      jump\t// in\n    tag_378:\n        /* \"Heliocontracts/contracts/masterVault/MasterVault.sol\":4953:5080  {... */\n      pop\n        /* \"Heliocontracts/contracts/masterVault/MasterVault.sol\":4572:5080  if(ethBalance < shares) {... */\n    tag_373:\n        /* \"Heliocontracts/contracts/masterVault/MasterVault.sol\":5095:5134  Withdraw(src, src, src, amount, shares) */\n      0x40\n      dup1\n      mload\n        /* \"#utility.yul\":8731:8756   */\n      dup6\n      dup2\n      mstore\n        /* \"#utility.yul\":8787:8789   */\n      0x20\n        /* \"#utility.yul\":8772:8790   */\n      dup2\n      add\n        /* \"#utility.yul\":8765:8799   */\n      dup6\n      swap1\n      mstore\n      sub(shl(0xa0, 0x01), 0x01)\n        /* \"Heliocontracts/contracts/masterVault/MasterVault.sol\":5095:5134  Withdraw(src, src, src, amount, shares) */\n      dup5\n      and\n      swap2\n      dup3\n      swap2\n      dup3\n      swap2\n      0xfbde797d201c681b91056529119e0b02407c7bb96a4a2c75c01fc9667232c8db\n      swap2\n        /* \"#utility.yul\":8704:8722   */\n      add\n        /* \"Heliocontracts/contracts/masterVault/MasterVault.sol\":5095:5134  Withdraw(src, src, src, amount, shares) */\n      mload(0x40)\n      dup1\n      swap2\n      sub\n      swap1\n      log4\n        /* \"Heliocontracts/contracts/masterVault/MasterVault.sol\":5144:5157  return shares */\n      pop\n      pop\n        /* \"@openzeppelin/contracts-upgradeable/security/ReentrancyGuardUpgradeable.sol\":1772:1773  1 */\n      0x01\n        /* \"@openzeppelin/contracts-upgradeable/security/ReentrancyGuardUpgradeable.sol\":2872:2879  _status */\n      0x97\n        /* \"@openzeppelin/contracts-upgradeable/security/ReentrancyGuardUpgradeable.sol\":2872:2894  _status = _NOT_ENTERED */\n      sstore\n        /* \"Heliocontracts/contracts/masterVault/MasterVault.sol\":4174:5164  function withdrawETH(address account, uint256 amount) ... */\n      swap3\n      swap2\n      pop\n      pop\n      jump\t// out\n        /* \"Heliocontracts/contracts/masterVault/MasterVault.sol\":18796:19045  function setDepositFee(uint256 newDepositFee) external onlyOwner {... */\n    tag_97:\n        /* \"@openzeppelin/contracts-upgradeable/access/OwnableUpgradeable.sol\":1334:1347  _checkOwner() */\n      tag_383\n        /* \"@openzeppelin/contracts-upgradeable/access/OwnableUpgradeable.sol\":1334:1345  _checkOwner */\n      tag_258\n        /* \"@openzeppelin/contracts-upgradeable/access/OwnableUpgradeable.sol\":1334:1347  _checkOwner() */\n      jump\t// in\n    tag_383:\n        /* \"Heliocontracts/contracts/masterVault/MasterVault.sol\":18895:18908  newDepositFee */\n      dup1\n        /* \"Heliocontracts/contracts/masterVault/MasterVault.sol\":18879:18892  maxDepositFee */\n      sload(0xcc)\n        /* \"Heliocontracts/contracts/masterVault/MasterVault.sol\":18879:18908  maxDepositFee > newDepositFee */\n      gt\n        /* \"Heliocontracts/contracts/masterVault/MasterVault.sol\":18871:18935  require(maxDepositFee > newDepositFee,\"more than maxDepositFee\") */\n      tag_385\n      jumpi\n      mload(0x40)\n      shl(0xe5, 0x461bcd)\n      dup2\n      mstore\n        /* \"#utility.yul\":9012:9014   */\n      0x20\n        /* \"Heliocontracts/contracts/masterVault/MasterVault.sol\":18871:18935  require(maxDepositFee > newDepositFee,\"more than maxDepositFee\") */\n      0x04\n      dup3\n      add\n        /* \"#utility.yul\":8994:9015   */\n      mstore\n        /* \"#utility.yul\":9051:9053   */\n      0x17\n        /* \"#utility.yul\":9031:9049   */\n      0x24\n      dup3\n      add\n        /* \"#utility.yul\":9024:9054   */\n      mstore\n        /* \"#utility.yul\":9090:9115   */\n      0x6d6f7265207468616e206d61784465706f736974466565000000000000000000\n        /* \"#utility.yul\":9070:9088   */\n      0x44\n      dup3\n      add\n        /* \"#utility.yul\":9063:9116   */\n      mstore\n        /* \"#utility.yul\":9133:9151   */\n      0x64\n      add\n        /* \"Heliocontracts/contracts/masterVault/MasterVault.sol\":18871:18935  require(maxDepositFee > newDepositFee,\"more than maxDepositFee\") */\n      tag_264\n        /* \"#utility.yul\":8810:9157   */\n      jump\n        /* \"Heliocontracts/contracts/masterVault/MasterVault.sol\":18871:18935  require(maxDepositFee > newDepositFee,\"more than maxDepositFee\") */\n    tag_385:\n        /* \"Heliocontracts/contracts/masterVault/MasterVault.sol\":18945:18955  depositFee */\n      0xcb\n        /* \"Heliocontracts/contracts/masterVault/MasterVault.sol\":18945:18971  depositFee = newDepositFee */\n      dup2\n      swap1\n      sstore\n        /* \"Heliocontracts/contracts/masterVault/MasterVault.sol\":19006:19038  DepositFeeChanged(newDepositFee) */\n      mload(0x40)\n        /* \"#utility.yul\":160:185   */\n      dup2\n      dup2\n      mstore\n        /* \"Heliocontracts/contracts/masterVault/MasterVault.sol\":19006:19038  DepositFeeChanged(newDepositFee) */\n      0x2a6f1084651542f3142c70f4c43c096d016a8b517c063660b146268f646ea43a\n      swap1\n        /* \"#utility.yul\":148:150   */\n      0x20\n        /* \"#utility.yul\":133:151   */\n      add\n        /* \"Heliocontracts/contracts/masterVault/MasterVault.sol\":19006:19038  DepositFeeChanged(newDepositFee) */\n      tag_261\n        /* \"#utility.yul\":14:191   */\n      jump\n        /* \"Heliocontracts/contracts/masterVault/MasterVault.sol\":7190:7365  function depositAllToStrategy(address strategy) public onlyManager {... */\n    tag_101:\n        /* \"Heliocontracts/contracts/masterVault/MasterVault.sol\":2106:2116  msg.sender */\n      caller\n        /* \"Heliocontracts/contracts/masterVault/MasterVault.sol\":2098:2117  manager[msg.sender] */\n      0x00\n      swap1\n      dup2\n      mstore\n        /* \"Heliocontracts/contracts/masterVault/MasterVault.sol\":2098:2105  manager */\n      0xca\n        /* \"Heliocontracts/contracts/masterVault/MasterVault.sol\":2098:2117  manager[msg.sender] */\n      0x20\n      mstore\n      0x40\n      swap1\n      keccak256\n      sload\n      0xff\n      and\n        /* \"Heliocontracts/contracts/masterVault/MasterVault.sol\":2077:2163  require(... */\n      tag_390\n      jumpi\n      mload(0x40)\n      shl(0xe5, 0x461bcd)\n      dup2\n      mstore\n      0x04\n      add\n      tag_264\n      swap1\n      tag_392\n      jump\t// in\n    tag_390:\n        /* \"Heliocontracts/contracts/masterVault/MasterVault.sol\":7267:7281  uint256 amount */\n      0x00\n        /* \"Heliocontracts/contracts/masterVault/MasterVault.sol\":7284:7303  totalAssetInVault() */\n      tag_394\n        /* \"Heliocontracts/contracts/masterVault/MasterVault.sol\":7284:7301  totalAssetInVault */\n      tag_200\n        /* \"Heliocontracts/contracts/masterVault/MasterVault.sol\":7284:7303  totalAssetInVault() */\n      jump\t// in\n    tag_394:\n        /* \"Heliocontracts/contracts/masterVault/MasterVault.sol\":7267:7303  uint256 amount = totalAssetInVault() */\n      swap1\n      pop\n        /* \"Heliocontracts/contracts/masterVault/MasterVault.sol\":7321:7357  _depositToStrategy(strategy, amount) */\n      tag_395\n        /* \"Heliocontracts/contracts/masterVault/MasterVault.sol\":7340:7348  strategy */\n      dup3\n        /* \"Heliocontracts/contracts/masterVault/MasterVault.sol\":7350:7356  amount */\n      dup3\n        /* \"Heliocontracts/contracts/masterVault/MasterVault.sol\":7321:7339  _depositToStrategy */\n      tag_396\n        /* \"Heliocontracts/contracts/masterVault/MasterVault.sol\":7321:7357  _depositToStrategy(strategy, amount) */\n      jump\t// in\n    tag_395:\n        /* \"Heliocontracts/contracts/masterVault/MasterVault.sol\":7313:7358  require(_depositToStrategy(strategy, amount)) */\n      tag_397\n      jumpi\n      0x00\n      dup1\n      revert\n    tag_397:\n        /* \"Heliocontracts/contracts/masterVault/MasterVault.sol\":7257:7365  {... */\n      pop\n        /* \"Heliocontracts/contracts/masterVault/MasterVault.sol\":7190:7365  function depositAllToStrategy(address strategy) public onlyManager {... */\n      pop\n      jump\t// out\n        /* \"Heliocontracts/contracts/masterVault/MasterVault.sol\":11285:11434  function balanceOfTokenFromStrategy(address strategy) external view returns(uint256) {... */\n    tag_105:\n        /* \"Heliocontracts/contracts/masterVault/MasterVault.sol\":11361:11368  uint256 */\n      0x00\n        /* \"Heliocontracts/contracts/masterVault/MasterVault.sol\":11401:11409  strategy */\n      dup2\n      sub(shl(0xa0, 0x01), 0x01)\n        /* \"Heliocontracts/contracts/masterVault/MasterVault.sol\":11387:11425  IBaseStrategy(strategy).balanceOfToken */\n      and\n      0x6b0f1c81\n        /* \"Heliocontracts/contracts/masterVault/MasterVault.sol\":11387:11427  IBaseStrategy(strategy).balanceOfToken() */\n      mload(0x40)\n      dup2\n      0xffffffff\n      and\n      0xe0\n      shl\n      dup2\n      mstore\n      0x04\n      add\n      0x20\n      mload(0x40)\n      dup1\n      dup4\n      sub\n      dup2\n      dup7\n      gas\n      staticcall\n      iszero\n      dup1\n      iszero\n      tag_400\n      jumpi\n      returndatasize\n      0x00\n      dup1\n      returndatacopy\n      revert(0x00, returndatasize)\n    tag_400:\n      pop\n      pop\n      pop\n      pop\n      mload(0x40)\n      returndatasize\n      not(0x1f)\n      0x1f\n      dup3\n      add\n      and\n      dup3\n      add\n      dup1\n      0x40\n      mstore\n      pop\n      dup2\n      add\n      swap1\n      tag_401\n      swap2\n      swap1\n      tag_402\n      jump\t// in\n    tag_401:\n        /* \"Heliocontracts/contracts/masterVault/MasterVault.sol\":11380:11427  return IBaseStrategy(strategy).balanceOfToken() */\n      swap3\n        /* \"Heliocontracts/contracts/masterVault/MasterVault.sol\":11285:11434  function balanceOfTokenFromStrategy(address strategy) external view returns(uint256) {... */\n      swap2\n      pop\n      pop\n      jump\t// out\n        /* \"Heliocontracts/contracts/masterVault/MasterVault.sol\":8123:8289  function withdrawAllFromStrategy(address strategy) external onlyManager {... */\n    tag_110:\n        /* \"Heliocontracts/contracts/masterVault/MasterVault.sol\":2106:2116  msg.sender */\n      caller\n        /* \"Heliocontracts/contracts/masterVault/MasterVault.sol\":2098:2117  manager[msg.sender] */\n      0x00\n      swap1\n      dup2\n      mstore\n        /* \"Heliocontracts/contracts/masterVault/MasterVault.sol\":2098:2105  manager */\n      0xca\n        /* \"Heliocontracts/contracts/masterVault/MasterVault.sol\":2098:2117  manager[msg.sender] */\n      0x20\n      mstore\n      0x40\n      swap1\n      keccak256\n      sload\n      0xff\n      and\n        /* \"Heliocontracts/contracts/masterVault/MasterVault.sol\":2077:2163  require(... */\n      tag_404\n      jumpi\n      mload(0x40)\n      shl(0xe5, 0x461bcd)\n      dup2\n      mstore\n      0x04\n      add\n      tag_264\n      swap1\n      tag_392\n      jump\t// in\n    tag_404:\n      sub(shl(0xa0, 0x01), 0x01)\n        /* \"Heliocontracts/contracts/masterVault/MasterVault.sol\":8252:8276  strategyParams[strategy] */\n      dup2\n      and\n      0x00\n      swap1\n      dup2\n      mstore\n        /* \"Heliocontracts/contracts/masterVault/MasterVault.sol\":8252:8266  strategyParams */\n      0xc9\n        /* \"Heliocontracts/contracts/masterVault/MasterVault.sol\":8252:8276  strategyParams[strategy] */\n      0x20\n      mstore\n      0x40\n      swap1\n      keccak256\n        /* \"Heliocontracts/contracts/masterVault/MasterVault.sol\":8252:8281  strategyParams[strategy].debt */\n      0x02\n      add\n      sload\n        /* \"Heliocontracts/contracts/masterVault/MasterVault.sol\":8205:8282  _withdrawFromStrategy(strategy, address(this), strategyParams[strategy].debt) */\n      tag_397\n      swap1\n        /* \"Heliocontracts/contracts/masterVault/MasterVault.sol\":8227:8235  strategy */\n      dup3\n      swap1\n        /* \"Heliocontracts/contracts/masterVault/MasterVault.sol\":8245:8249  this */\n      address\n      swap1\n        /* \"Heliocontracts/contracts/masterVault/MasterVault.sol\":8205:8226  _withdrawFromStrategy */\n      tag_408\n        /* \"Heliocontracts/contracts/masterVault/MasterVault.sol\":8205:8282  _withdrawFromStrategy(strategy, address(this), strategyParams[strategy].debt) */\n      jump\t// in\n        /* \"@openzeppelin/contracts-upgradeable/access/OwnableUpgradeable.sol\":2071:2172  function renounceOwnership() public virtual onlyOwner {... */\n    tag_126:\n        /* \"@openzeppelin/contracts-upgradeable/access/OwnableUpgradeable.sol\":1334:1347  _checkOwner() */\n      tag_411\n        /* \"@openzeppelin/contracts-upgradeable/access/OwnableUpgradeable.sol\":1334:1345  _checkOwner */\n      tag_258\n        /* \"@openzeppelin/contracts-upgradeable/access/OwnableUpgradeable.sol\":1334:1347  _checkOwner() */\n      jump\t// in\n    tag_411:\n        /* \"@openzeppelin/contracts-upgradeable/access/OwnableUpgradeable.sol\":2135:2165  _transferOwnership(address(0)) */\n      tag_413\n        /* \"@openzeppelin/contracts-upgradeable/access/OwnableUpgradeable.sol\":2162:2163  0 */\n      0x00\n        /* \"@openzeppelin/contracts-upgradeable/access/OwnableUpgradeable.sol\":2135:2153  _transferOwnership */\n      tag_414\n        /* \"@openzeppelin/contracts-upgradeable/access/OwnableUpgradeable.sol\":2135:2165  _transferOwnership(address(0)) */\n      jump\t// in\n    tag_413:\n        /* \"@openzeppelin/contracts-upgradeable/access/OwnableUpgradeable.sol\":2071:2172  function renounceOwnership() public virtual onlyOwner {... */\n      jump\t// out\n        /* \"Heliocontracts/contracts/masterVault/MasterVault.sol\":13095:13441  function retireStrat(address strategy) external onlyManager {... */\n    tag_130:\n        /* \"Heliocontracts/contracts/masterVault/MasterVault.sol\":2106:2116  msg.sender */\n      caller\n        /* \"Heliocontracts/contracts/masterVault/MasterVault.sol\":2098:2117  manager[msg.sender] */\n      0x00\n      swap1\n      dup2\n      mstore\n        /* \"Heliocontracts/contracts/masterVault/MasterVault.sol\":2098:2105  manager */\n      0xca\n        /* \"Heliocontracts/contracts/masterVault/MasterVault.sol\":2098:2117  manager[msg.sender] */\n      0x20\n      mstore\n      0x40\n      swap1\n      keccak256\n      sload\n      0xff\n      and\n        /* \"Heliocontracts/contracts/masterVault/MasterVault.sol\":2077:2163  require(... */\n      tag_416\n      jumpi\n      mload(0x40)\n      shl(0xe5, 0x461bcd)\n      dup2\n      mstore\n      0x04\n      add\n      tag_264\n      swap1\n      tag_392\n      jump\t// in\n    tag_416:\n        /* \"Heliocontracts/contracts/masterVault/MasterVault.sol\":13247:13276  _deactivateStrategy(strategy) */\n      tag_419\n        /* \"Heliocontracts/contracts/masterVault/MasterVault.sol\":13267:13275  strategy */\n      dup2\n        /* \"Heliocontracts/contracts/masterVault/MasterVault.sol\":13247:13266  _deactivateStrategy */\n      tag_420\n        /* \"Heliocontracts/contracts/masterVault/MasterVault.sol\":13247:13276  _deactivateStrategy(strategy) */\n      jump\t// in\n    tag_419:\n        /* \"Heliocontracts/contracts/masterVault/MasterVault.sol\":13244:13309  if(_deactivateStrategy(strategy)) {... */\n      iszero\n      tag_421\n      jumpi\n        /* \"Heliocontracts/contracts/masterVault/MasterVault.sol\":13095:13441  function retireStrat(address strategy) external onlyManager {... */\n      pop\n      jump\t// out\n        /* \"Heliocontracts/contracts/masterVault/MasterVault.sol\":13244:13309  if(_deactivateStrategy(strategy)) {... */\n    tag_421:\n      sub(shl(0xa0, 0x01), 0x01)\n        /* \"Heliocontracts/contracts/masterVault/MasterVault.sol\":13365:13389  strategyParams[strategy] */\n      dup2\n      and\n      0x00\n      swap1\n      dup2\n      mstore\n        /* \"Heliocontracts/contracts/masterVault/MasterVault.sol\":13365:13379  strategyParams */\n      0xc9\n        /* \"Heliocontracts/contracts/masterVault/MasterVault.sol\":13365:13389  strategyParams[strategy] */\n      0x20\n      mstore\n      0x40\n      swap1\n      keccak256\n        /* \"Heliocontracts/contracts/masterVault/MasterVault.sol\":13365:13394  strategyParams[strategy].debt */\n      0x02\n      add\n      sload\n        /* \"Heliocontracts/contracts/masterVault/MasterVault.sol\":13318:13395  _withdrawFromStrategy(strategy, address(this), strategyParams[strategy].debt) */\n      tag_422\n      swap1\n        /* \"Heliocontracts/contracts/masterVault/MasterVault.sol\":13340:13348  strategy */\n      dup3\n      swap1\n        /* \"Heliocontracts/contracts/masterVault/MasterVault.sol\":13358:13362  this */\n      address\n      swap1\n        /* \"Heliocontracts/contracts/masterVault/MasterVault.sol\":13318:13339  _withdrawFromStrategy */\n      tag_408\n        /* \"Heliocontracts/contracts/masterVault/MasterVault.sol\":13318:13395  _withdrawFromStrategy(strategy, address(this), strategyParams[strategy].debt) */\n      jump\t// in\n    tag_422:\n      pop\n        /* \"Heliocontracts/contracts/masterVault/MasterVault.sol\":13405:13434  _deactivateStrategy(strategy) */\n      tag_397\n        /* \"Heliocontracts/contracts/masterVault/MasterVault.sol\":13425:13433  strategy */\n      dup2\n        /* \"Heliocontracts/contracts/masterVault/MasterVault.sol\":13405:13424  _deactivateStrategy */\n      tag_420\n        /* \"Heliocontracts/contracts/masterVault/MasterVault.sol\":13405:13434  _deactivateStrategy(strategy) */\n      jump\t// in\n        /* \"Heliocontracts/contracts/masterVault/MasterVault.sol\":2173:2174  _ */\n    tag_418:\n        /* \"Heliocontracts/contracts/masterVault/MasterVault.sol\":13095:13441  function retireStrat(address strategy) external onlyManager {... */\n      pop\n      jump\t// out\n        /* \"Heliocontracts/contracts/masterVault/MasterVault.sol\":20859:21206  function changeStrategyAllocation(address strategy, uint256 allocation) external onlyOwner {... */\n    tag_134:\n        /* \"@openzeppelin/contracts-upgradeable/access/OwnableUpgradeable.sol\":1334:1347  _checkOwner() */\n      tag_425\n        /* \"@openzeppelin/contracts-upgradeable/access/OwnableUpgradeable.sol\":1334:1345  _checkOwner */\n      tag_258\n        /* \"@openzeppelin/contracts-upgradeable/access/OwnableUpgradeable.sol\":1334:1347  _checkOwner() */\n      jump\t// in\n    tag_425:\n      sub(shl(0xa0, 0x01), 0x01)\n        /* \"Heliocontracts/contracts/masterVault/MasterVault.sol\":20968:20990  strategy != address(0) */\n      dup3\n      and\n        /* \"Heliocontracts/contracts/masterVault/MasterVault.sol\":20960:20991  require(strategy != address(0)) */\n      tag_427\n      jumpi\n      0x00\n      dup1\n      revert\n    tag_427:\n      sub(shl(0xa0, 0x01), 0x01)\n        /* \"Heliocontracts/contracts/masterVault/MasterVault.sol\":21009:21033  strategyParams[strategy] */\n      dup3\n      and\n      0x00\n      swap1\n      dup2\n      mstore\n        /* \"Heliocontracts/contracts/masterVault/MasterVault.sol\":21009:21023  strategyParams */\n      0xc9\n        /* \"Heliocontracts/contracts/masterVault/MasterVault.sol\":21009:21033  strategyParams[strategy] */\n      0x20\n      mstore\n      0x40\n      swap1\n      keccak256\n        /* \"Heliocontracts/contracts/masterVault/MasterVault.sol\":21009:21044  strategyParams[strategy].allocation */\n      0x01\n      add\n        /* \"Heliocontracts/contracts/masterVault/MasterVault.sol\":21009:21057  strategyParams[strategy].allocation = allocation */\n      dup2\n      swap1\n      sstore\n        /* \"Heliocontracts/contracts/masterVault/MasterVault.sol\":21075:21095  _isValidAllocation() */\n      tag_428\n        /* \"Heliocontracts/contracts/masterVault/MasterVault.sol\":21075:21093  _isValidAllocation */\n      tag_429\n        /* \"Heliocontracts/contracts/masterVault/MasterVault.sol\":21075:21095  _isValidAllocation() */\n      jump\t// in\n    tag_428:\n        /* \"Heliocontracts/contracts/masterVault/MasterVault.sol\":21067:21136  require(_isValidAllocation(), \"allocations cannot be more than 100%\") */\n      tag_430\n      jumpi\n      mload(0x40)\n      shl(0xe5, 0x461bcd)\n      dup2\n      mstore\n      0x04\n      add\n      tag_264\n      swap1\n      tag_334\n      jump\t// in\n    tag_430:\n        /* \"Heliocontracts/contracts/masterVault/MasterVault.sol\":21152:21199  StrategyAllocationChanged(strategy, allocation) */\n      0x12550b3055a78afe91da1a02a6e99583200fe1b2f7f571269bb013ff3f7c05e8\n        /* \"Heliocontracts/contracts/masterVault/MasterVault.sol\":21178:21186  strategy */\n      dup3\n        /* \"Heliocontracts/contracts/masterVault/MasterVault.sol\":21188:21198  allocation */\n      dup3\n        /* \"Heliocontracts/contracts/masterVault/MasterVault.sol\":21152:21199  StrategyAllocationChanged(strategy, allocation) */\n      mload(0x40)\n      tag_432\n      swap3\n      swap2\n      swap1\n      tag_283\n      jump\t// in\n    tag_432:\n      mload(0x40)\n      dup1\n      swap2\n      sub\n      swap1\n      log1\n        /* \"Heliocontracts/contracts/masterVault/MasterVault.sol\":20859:21206  function changeStrategyAllocation(address strategy, uint256 allocation) external onlyOwner {... */\n      pop\n      pop\n      jump\t// out\n        /* \"Heliocontracts/contracts/masterVault/MasterVault.sol\":20073:20260  function changeProvider(address newProvider) external onlyOwner {... */\n    tag_142:\n        /* \"@openzeppelin/contracts-upgradeable/access/OwnableUpgradeable.sol\":1334:1347  _checkOwner() */\n      tag_434\n        /* \"@openzeppelin/contracts-upgradeable/access/OwnableUpgradeable.sol\":1334:1345  _checkOwner */\n      tag_258\n        /* \"@openzeppelin/contracts-upgradeable/access/OwnableUpgradeable.sol\":1334:1347  _checkOwner() */\n      jump\t// in\n    tag_434:\n      sub(shl(0xa0, 0x01), 0x01)\n        /* \"Heliocontracts/contracts/masterVault/MasterVault.sol\":20155:20180  newProvider != address(0) */\n      dup2\n      and\n        /* \"Heliocontracts/contracts/masterVault/MasterVault.sol\":20147:20181  require(newProvider != address(0)) */\n      tag_436\n      jumpi\n      0x00\n      dup1\n      revert\n    tag_436:\n        /* \"Heliocontracts/contracts/masterVault/MasterVault.sol\":20191:20199  provider */\n      0xd3\n        /* \"Heliocontracts/contracts/masterVault/MasterVault.sol\":20191:20213  provider = newProvider */\n      dup1\n      sload\n      not(sub(shl(0xa0, 0x01), 0x01))\n      and\n      sub(shl(0xa0, 0x01), 0x01)\n      dup4\n      and\n      swap1\n      dup2\n      or\n      swap1\n      swap2\n      sstore\n        /* \"Heliocontracts/contracts/masterVault/MasterVault.sol\":20228:20253  ProviderChanged(provider) */\n      mload(0x40)\n        /* \"#utility.yul\":342:393   */\n      swap1\n      dup2\n      mstore\n        /* \"Heliocontracts/contracts/masterVault/MasterVault.sol\":20228:20253  ProviderChanged(provider) */\n      0xa480657dfd615e3ba406b865a0da683507aeeb1b3e8206eb2c080bc1c0b23e82\n      swap1\n        /* \"#utility.yul\":330:332   */\n      0x20\n        /* \"#utility.yul\":315:333   */\n      add\n        /* \"Heliocontracts/contracts/masterVault/MasterVault.sol\":20228:20253  ProviderChanged(provider) */\n      tag_261\n        /* \"#utility.yul\":196:399   */\n      jump\n        /* \"Heliocontracts/contracts/masterVault/MasterVault.sol\":20375:20586  function changeFeeReceiver(address payable _feeReceiver) external onlyOwner {... */\n    tag_147:\n        /* \"@openzeppelin/contracts-upgradeable/access/OwnableUpgradeable.sol\":1334:1347  _checkOwner() */\n      tag_439\n        /* \"@openzeppelin/contracts-upgradeable/access/OwnableUpgradeable.sol\":1334:1345  _checkOwner */\n      tag_258\n        /* \"@openzeppelin/contracts-upgradeable/access/OwnableUpgradeable.sol\":1334:1347  _checkOwner() */\n      jump\t// in\n    tag_439:\n      sub(shl(0xa0, 0x01), 0x01)\n        /* \"Heliocontracts/contracts/masterVault/MasterVault.sol\":20469:20495  _feeReceiver != address(0) */\n      dup2\n      and\n        /* \"Heliocontracts/contracts/masterVault/MasterVault.sol\":20461:20496  require(_feeReceiver != address(0)) */\n      tag_441\n      jumpi\n      0x00\n      dup1\n      revert\n    tag_441:\n        /* \"Heliocontracts/contracts/masterVault/MasterVault.sol\":20506:20517  feeReceiver */\n      0xd6\n        /* \"Heliocontracts/contracts/masterVault/MasterVault.sol\":20506:20532  feeReceiver = _feeReceiver */\n      dup1\n      sload\n      not(sub(shl(0xa0, 0x01), 0x01))\n      and\n      sub(shl(0xa0, 0x01), 0x01)\n      dup4\n      and\n      swap1\n      dup2\n      or\n      swap1\n      swap2\n      sstore\n        /* \"Heliocontracts/contracts/masterVault/MasterVault.sol\":20547:20579  FeeReceiverChanged(_feeReceiver) */\n      mload(0x40)\n        /* \"#utility.yul\":342:393   */\n      swap1\n      dup2\n      mstore\n        /* \"Heliocontracts/contracts/masterVault/MasterVault.sol\":20547:20579  FeeReceiverChanged(_feeReceiver) */\n      0x647672599d3468abcfa241a13c9e3d34383caadb5cc80fb67c3cdfcd5f786059\n      swap1\n        /* \"#utility.yul\":330:332   */\n      0x20\n        /* \"#utility.yul\":315:333   */\n      add\n        /* \"Heliocontracts/contracts/masterVault/MasterVault.sol\":20547:20579  FeeReceiverChanged(_feeReceiver) */\n      tag_261\n        /* \"#utility.yul\":196:399   */\n      jump\n        /* \"Heliocontracts/contracts/masterVault/MasterVault.sol\":18146:18207  function pause() external onlyOwner {... */\n    tag_150:\n        /* \"@openzeppelin/contracts-upgradeable/access/OwnableUpgradeable.sol\":1334:1347  _checkOwner() */\n      tag_445\n        /* \"@openzeppelin/contracts-upgradeable/access/OwnableUpgradeable.sol\":1334:1345  _checkOwner */\n      tag_258\n        /* \"@openzeppelin/contracts-upgradeable/access/OwnableUpgradeable.sol\":1334:1347  _checkOwner() */\n      jump\t// in\n    tag_445:\n        /* \"Heliocontracts/contracts/masterVault/MasterVault.sol\":18192:18200  _pause() */\n      tag_413\n        /* \"Heliocontracts/contracts/masterVault/MasterVault.sol\":18192:18198  _pause */\n      tag_448\n        /* \"Heliocontracts/contracts/masterVault/MasterVault.sol\":18192:18200  _pause() */\n      jump\t// in\n        /* \"Heliocontracts/contracts/masterVault/MasterVault.sol\":14044:14938  function allocate() public onlyManager {... */\n    tag_165:\n        /* \"Heliocontracts/contracts/masterVault/MasterVault.sol\":2106:2116  msg.sender */\n      caller\n        /* \"Heliocontracts/contracts/masterVault/MasterVault.sol\":2098:2117  manager[msg.sender] */\n      0x00\n      swap1\n      dup2\n      mstore\n        /* \"Heliocontracts/contracts/masterVault/MasterVault.sol\":2098:2105  manager */\n      0xca\n        /* \"Heliocontracts/contracts/masterVault/MasterVault.sol\":2098:2117  manager[msg.sender] */\n      0x20\n      mstore\n      0x40\n      swap1\n      keccak256\n      sload\n      0xff\n      and\n        /* \"Heliocontracts/contracts/masterVault/MasterVault.sol\":2077:2163  require(... */\n      tag_451\n      jumpi\n      mload(0x40)\n      shl(0xe5, 0x461bcd)\n      dup2\n      mstore\n      0x04\n      add\n      tag_264\n      swap1\n      tag_392\n      jump\t// in\n    tag_451:\n        /* \"Heliocontracts/contracts/masterVault/MasterVault.sol\":14097:14104  uint8 i */\n      0x00\n        /* \"Heliocontracts/contracts/masterVault/MasterVault.sol\":14093:14932  for(uint8 i = 0; i < strategies.length; i++) {... */\n    tag_454:\n        /* \"Heliocontracts/contracts/masterVault/MasterVault.sol\":14114:14124  strategies */\n      0xd2\n        /* \"Heliocontracts/contracts/masterVault/MasterVault.sol\":14114:14131  strategies.length */\n      sload\n        /* \"Heliocontracts/contracts/masterVault/MasterVault.sol\":14110:14131  i < strategies.length */\n      0xff\n      dup3\n      and\n      lt\n        /* \"Heliocontracts/contracts/masterVault/MasterVault.sol\":14093:14932  for(uint8 i = 0; i < strategies.length; i++) {... */\n      iszero\n      tag_418\n      jumpi\n        /* \"Heliocontracts/contracts/masterVault/MasterVault.sol\":14155:14169  strategyParams */\n      0xc9\n        /* \"Heliocontracts/contracts/masterVault/MasterVault.sol\":14155:14184  strategyParams[strategies[i]] */\n      0x00\n        /* \"Heliocontracts/contracts/masterVault/MasterVault.sol\":14170:14180  strategies */\n      0xd2\n        /* \"Heliocontracts/contracts/masterVault/MasterVault.sol\":14181:14182  i */\n      dup4\n        /* \"Heliocontracts/contracts/masterVault/MasterVault.sol\":14170:14183  strategies[i] */\n      0xff\n      and\n      dup2\n      sload\n      dup2\n      lt\n      tag_458\n      jumpi\n      tag_458\n      tag_315\n      jump\t// in\n    tag_458:\n      0x00\n      swap2\n      dup3\n      mstore\n      0x20\n      dup1\n      dup4\n      keccak256\n      swap1\n      swap2\n      add\n      sload\n      sub(shl(0xa0, 0x01), 0x01)\n      and\n        /* \"Heliocontracts/contracts/masterVault/MasterVault.sol\":14155:14184  strategyParams[strategies[i]] */\n      dup4\n      mstore\n      dup3\n      add\n      swap3\n      swap1\n      swap3\n      mstore\n      0x40\n      add\n      swap1\n      keccak256\n        /* \"Heliocontracts/contracts/masterVault/MasterVault.sol\":14155:14191  strategyParams[strategies[i]].active */\n      sload\n      0xff\n      and\n        /* \"Heliocontracts/contracts/masterVault/MasterVault.sol\":14152:14922  if(strategyParams[strategies[i]].active) {... */\n      iszero\n      tag_460\n      jumpi\n        /* \"Heliocontracts/contracts/masterVault/MasterVault.sol\":14211:14241  StrategyParams memory strategy */\n      0x00\n        /* \"Heliocontracts/contracts/masterVault/MasterVault.sol\":14245:14259  strategyParams */\n      0xc9\n        /* \"Heliocontracts/contracts/masterVault/MasterVault.sol\":14245:14274  strategyParams[strategies[i]] */\n      0x00\n        /* \"Heliocontracts/contracts/masterVault/MasterVault.sol\":14260:14270  strategies */\n      0xd2\n        /* \"Heliocontracts/contracts/masterVault/MasterVault.sol\":14271:14272  i */\n      dup5\n        /* \"Heliocontracts/contracts/masterVault/MasterVault.sol\":14260:14273  strategies[i] */\n      0xff\n      and\n      dup2\n      sload\n      dup2\n      lt\n      tag_462\n      jumpi\n      tag_462\n      tag_315\n      jump\t// in\n    tag_462:\n      0x00\n      swap2\n      dup3\n      mstore\n      0x20\n      dup1\n      dup4\n      keccak256\n      swap1\n      swap2\n      add\n      sload\n      sub(shl(0xa0, 0x01), 0x01)\n      and\n        /* \"Heliocontracts/contracts/masterVault/MasterVault.sol\":14245:14274  strategyParams[strategies[i]] */\n      dup4\n      mstore\n      dup3\n      dup2\n      add\n      swap4\n      swap1\n      swap4\n      mstore\n      0x40\n      swap2\n      dup3\n      add\n      swap1\n      keccak256\n        /* \"Heliocontracts/contracts/masterVault/MasterVault.sol\":14211:14274  StrategyParams memory strategy =  strategyParams[strategies[i]] */\n      dup2\n      mload\n      0x60\n      dup2\n      add\n      dup4\n      mstore\n      dup2\n      sload\n      0xff\n      and\n      iszero\n      iszero\n      dup2\n      mstore\n        /* \"Heliocontracts/contracts/masterVault/MasterVault.sol\":14260:14273  strategies[i] */\n      0x01\n        /* \"Heliocontracts/contracts/masterVault/MasterVault.sol\":14211:14274  StrategyParams memory strategy =  strategyParams[strategies[i]] */\n      dup3\n      add\n      sload\n      swap4\n      dup2\n      add\n      dup5\n      swap1\n      mstore\n      0x02\n      swap1\n      swap2\n      add\n      sload\n      swap2\n      dup2\n      add\n      swap2\n      swap1\n      swap2\n      mstore\n      swap2\n      pop\n        /* \"Heliocontracts/contracts/masterVault/MasterVault.sol\":14353:14367  allocation > 0 */\n      dup1\n      iszero\n        /* \"Heliocontracts/contracts/masterVault/MasterVault.sol\":14350:14908  if(allocation > 0) {... */\n      tag_464\n      jumpi\n        /* \"Heliocontracts/contracts/masterVault/MasterVault.sol\":14391:14416  uint256 totalAssetAndDebt */\n      0x00\n        /* \"Heliocontracts/contracts/masterVault/MasterVault.sol\":14441:14450  totalDebt */\n      sload(0xd1)\n        /* \"Heliocontracts/contracts/masterVault/MasterVault.sol\":14419:14438  totalAssetInVault() */\n      tag_465\n        /* \"Heliocontracts/contracts/masterVault/MasterVault.sol\":14419:14436  totalAssetInVault */\n      tag_200\n        /* \"Heliocontracts/contracts/masterVault/MasterVault.sol\":14419:14438  totalAssetInVault() */\n      jump\t// in\n    tag_465:\n        /* \"Heliocontracts/contracts/masterVault/MasterVault.sol\":14419:14450  totalAssetInVault() + totalDebt */\n      tag_466\n      swap2\n      swap1\n      tag_328\n      jump\t// in\n    tag_466:\n        /* \"Heliocontracts/contracts/masterVault/MasterVault.sol\":14391:14450  uint256 totalAssetAndDebt = totalAssetInVault() + totalDebt */\n      swap1\n      pop\n        /* \"Heliocontracts/contracts/masterVault/MasterVault.sol\":14472:14493  uint256 strategyRatio */\n      0x00\n        /* \"Heliocontracts/contracts/masterVault/MasterVault.sol\":14520:14537  totalAssetAndDebt */\n      dup2\n        /* \"Heliocontracts/contracts/masterVault/MasterVault.sol\":14497:14505  strategy */\n      dup5\n        /* \"Heliocontracts/contracts/masterVault/MasterVault.sol\":14497:14510  strategy.debt */\n      0x40\n      add\n      mload\n        /* \"Heliocontracts/contracts/masterVault/MasterVault.sol\":14513:14516  1e6 */\n      0x0f4240\n        /* \"Heliocontracts/contracts/masterVault/MasterVault.sol\":14497:14516  strategy.debt * 1e6 */\n      tag_467\n      swap2\n      swap1\n      tag_468\n      jump\t// in\n    tag_467:\n        /* \"Heliocontracts/contracts/masterVault/MasterVault.sol\":14496:14537  (strategy.debt * 1e6) / totalAssetAndDebt */\n      tag_469\n      swap2\n      swap1\n      tag_470\n      jump\t// in\n    tag_469:\n        /* \"Heliocontracts/contracts/masterVault/MasterVault.sol\":14472:14537  uint256 strategyRatio = (strategy.debt * 1e6) / totalAssetAndDebt */\n      swap1\n      pop\n        /* \"Heliocontracts/contracts/masterVault/MasterVault.sol\":14578:14588  allocation */\n      dup3\n        /* \"Heliocontracts/contracts/masterVault/MasterVault.sol\":14562:14575  strategyRatio */\n      dup2\n        /* \"Heliocontracts/contracts/masterVault/MasterVault.sol\":14562:14588  strategyRatio < allocation */\n      lt\n        /* \"Heliocontracts/contracts/masterVault/MasterVault.sol\":14559:14890  if(strategyRatio < allocation) {... */\n      iszero\n      tag_471\n      jumpi\n        /* \"Heliocontracts/contracts/masterVault/MasterVault.sol\":14683:14696  strategy.debt */\n      0x40\n      dup5\n      add\n      mload\n        /* \"Heliocontracts/contracts/masterVault/MasterVault.sol\":14616:14637  uint256 depositAmount */\n      0x00\n      swap1\n        /* \"Heliocontracts/contracts/masterVault/MasterVault.sol\":14676:14679  1e6 */\n      0x0f4240\n        /* \"Heliocontracts/contracts/masterVault/MasterVault.sol\":14642:14672  totalAssetAndDebt * allocation */\n      tag_472\n        /* \"Heliocontracts/contracts/masterVault/MasterVault.sol\":14662:14672  allocation */\n      dup7\n        /* \"Heliocontracts/contracts/masterVault/MasterVault.sol\":14642:14659  totalAssetAndDebt */\n      dup7\n        /* \"Heliocontracts/contracts/masterVault/MasterVault.sol\":14642:14672  totalAssetAndDebt * allocation */\n      tag_468\n      jump\t// in\n    tag_472:\n        /* \"Heliocontracts/contracts/masterVault/MasterVault.sol\":14641:14679  (totalAssetAndDebt * allocation) / 1e6 */\n      tag_473\n      swap2\n      swap1\n      tag_470\n      jump\t// in\n    tag_473:\n        /* \"Heliocontracts/contracts/masterVault/MasterVault.sol\":14640:14696  ((totalAssetAndDebt * allocation) / 1e6) - strategy.debt */\n      tag_474\n      swap2\n      swap1\n      tag_292\n      jump\t// in\n    tag_474:\n        /* \"Heliocontracts/contracts/masterVault/MasterVault.sol\":14616:14696  uint256 depositAmount = ((totalAssetAndDebt * allocation) / 1e6) - strategy.debt */\n      swap1\n      pop\n        /* \"Heliocontracts/contracts/masterVault/MasterVault.sol\":14748:14761  depositAmount */\n      dup1\n        /* \"Heliocontracts/contracts/masterVault/MasterVault.sol\":14725:14744  totalAssetInVault() */\n      tag_475\n        /* \"Heliocontracts/contracts/masterVault/MasterVault.sol\":14725:14742  totalAssetInVault */\n      tag_200\n        /* \"Heliocontracts/contracts/masterVault/MasterVault.sol\":14725:14744  totalAssetInVault() */\n      jump\t// in\n    tag_475:\n        /* \"Heliocontracts/contracts/masterVault/MasterVault.sol\":14725:14761  totalAssetInVault() >= depositAmount */\n      lt\n        /* \"Heliocontracts/contracts/masterVault/MasterVault.sol\":14722:14868  if(totalAssetInVault() >= depositAmount) {... */\n      tag_476\n      jumpi\n        /* \"Heliocontracts/contracts/masterVault/MasterVault.sol\":14793:14841  _depositToStrategy(strategies[i], depositAmount) */\n      tag_477\n        /* \"Heliocontracts/contracts/masterVault/MasterVault.sol\":14812:14822  strategies */\n      0xd2\n        /* \"Heliocontracts/contracts/masterVault/MasterVault.sol\":14823:14824  i */\n      dup8\n        /* \"Heliocontracts/contracts/masterVault/MasterVault.sol\":14812:14825  strategies[i] */\n      0xff\n      and\n      dup2\n      sload\n      dup2\n      lt\n      tag_479\n      jumpi\n      tag_479\n      tag_315\n      jump\t// in\n    tag_479:\n      0x00\n      swap2\n      dup3\n      mstore\n      0x20\n      swap1\n      swap2\n      keccak256\n      add\n      sload\n      sub(shl(0xa0, 0x01), 0x01)\n      and\n        /* \"Heliocontracts/contracts/masterVault/MasterVault.sol\":14827:14840  depositAmount */\n      dup3\n        /* \"Heliocontracts/contracts/masterVault/MasterVault.sol\":14793:14811  _depositToStrategy */\n      tag_396\n        /* \"Heliocontracts/contracts/masterVault/MasterVault.sol\":14793:14841  _depositToStrategy(strategies[i], depositAmount) */\n      jump\t// in\n    tag_477:\n      pop\n        /* \"Heliocontracts/contracts/masterVault/MasterVault.sol\":14722:14868  if(totalAssetInVault() >= depositAmount) {... */\n    tag_476:\n        /* \"Heliocontracts/contracts/masterVault/MasterVault.sol\":14590:14890  {... */\n      pop\n        /* \"Heliocontracts/contracts/masterVault/MasterVault.sol\":14559:14890  if(strategyRatio < allocation) {... */\n    tag_471:\n        /* \"Heliocontracts/contracts/masterVault/MasterVault.sol\":14369:14908  {... */\n      pop\n      pop\n        /* \"Heliocontracts/contracts/masterVault/MasterVault.sol\":14350:14908  if(allocation > 0) {... */\n    tag_464:\n        /* \"Heliocontracts/contracts/masterVault/MasterVault.sol\":14193:14922  {... */\n      pop\n      pop\n        /* \"Heliocontracts/contracts/masterVault/MasterVault.sol\":14152:14922  if(strategyParams[strategies[i]].active) {... */\n    tag_460:\n        /* \"Heliocontracts/contracts/masterVault/MasterVault.sol\":14133:14136  i++ */\n      dup1\n      tag_481\n      dup2\n      tag_482\n      jump\t// in\n    tag_481:\n      swap2\n      pop\n      pop\n        /* \"Heliocontracts/contracts/masterVault/MasterVault.sol\":14093:14932  for(uint8 i = 0; i < strategies.length; i++) {... */\n      jump(tag_454)\n        /* \"Heliocontracts/contracts/masterVault/MasterVault.sol\":19789:19966  function removeManager(address _manager) external onlyOwner {... */\n    tag_169:\n        /* \"@openzeppelin/contracts-upgradeable/access/OwnableUpgradeable.sol\":1334:1347  _checkOwner() */\n      tag_484\n        /* \"@openzeppelin/contracts-upgradeable/access/OwnableUpgradeable.sol\":1334:1345  _checkOwner */\n      tag_258\n        /* \"@openzeppelin/contracts-upgradeable/access/OwnableUpgradeable.sol\":1334:1347  _checkOwner() */\n      jump\t// in\n    tag_484:\n      sub(shl(0xa0, 0x01), 0x01)\n        /* \"Heliocontracts/contracts/masterVault/MasterVault.sol\":19867:19884  manager[_manager] */\n      dup2\n      and\n      0x00\n      swap1\n      dup2\n      mstore\n        /* \"Heliocontracts/contracts/masterVault/MasterVault.sol\":19867:19874  manager */\n      0xca\n        /* \"Heliocontracts/contracts/masterVault/MasterVault.sol\":19867:19884  manager[_manager] */\n      0x20\n      mstore\n      0x40\n      swap1\n      keccak256\n      sload\n      0xff\n      and\n        /* \"Heliocontracts/contracts/masterVault/MasterVault.sol\":19859:19885  require(manager[_manager]) */\n      tag_486\n      jumpi\n      0x00\n      dup1\n      revert\n    tag_486:\n      sub(shl(0xa0, 0x01), 0x01)\n        /* \"Heliocontracts/contracts/masterVault/MasterVault.sol\":19895:19912  manager[_manager] */\n      dup2\n      and\n        /* \"Heliocontracts/contracts/masterVault/MasterVault.sol\":19915:19920  false */\n      0x00\n        /* \"Heliocontracts/contracts/masterVault/MasterVault.sol\":19895:19912  manager[_manager] */\n      dup2\n      dup2\n      mstore\n        /* \"Heliocontracts/contracts/masterVault/MasterVault.sol\":19895:19902  manager */\n      0xca\n        /* \"Heliocontracts/contracts/masterVault/MasterVault.sol\":19895:19912  manager[_manager] */\n      0x20\n      swap1\n      dup2\n      mstore\n      0x40\n      swap2\n      dup3\n      swap1\n      keccak256\n        /* \"Heliocontracts/contracts/masterVault/MasterVault.sol\":19895:19920  manager[_manager] = false */\n      dup1\n      sload\n      not(0xff)\n      and\n      swap1\n      sstore\n        /* \"Heliocontracts/contracts/masterVault/MasterVault.sol\":19935:19959  ManagerRemoved(_manager) */\n      swap1\n      mload\n        /* \"#utility.yul\":342:393   */\n      swap2\n      dup3\n      mstore\n        /* \"Heliocontracts/contracts/masterVault/MasterVault.sol\":19935:19959  ManagerRemoved(_manager) */\n      0xef69f7d97228658c92417be1b16b19058315de71fecb435d07b7d23728b6bd31\n      swap2\n        /* \"#utility.yul\":315:333   */\n      add\n        /* \"Heliocontracts/contracts/masterVault/MasterVault.sol\":19935:19959  ManagerRemoved(_manager) */\n      tag_261\n        /* \"#utility.yul\":196:399   */\n      jump\n        /* \"Heliocontracts/contracts/masterVault/MasterVault.sol\":19164:19420  function setWithdrawalFee(uint256 newWithdrawalFee) external onlyOwner {... */\n    tag_173:\n        /* \"@openzeppelin/contracts-upgradeable/access/OwnableUpgradeable.sol\":1334:1347  _checkOwner() */\n      tag_489\n        /* \"@openzeppelin/contracts-upgradeable/access/OwnableUpgradeable.sol\":1334:1345  _checkOwner */\n      tag_258\n        /* \"@openzeppelin/contracts-upgradeable/access/OwnableUpgradeable.sol\":1334:1347  _checkOwner() */\n      jump\t// in\n    tag_489:\n        /* \"Heliocontracts/contracts/masterVault/MasterVault.sol\":19272:19288  newWithdrawalFee */\n      dup1\n        /* \"Heliocontracts/contracts/masterVault/MasterVault.sol\":19253:19269  maxWithdrawalFee */\n      sload(0xce)\n        /* \"Heliocontracts/contracts/masterVault/MasterVault.sol\":19253:19288  maxWithdrawalFee > newWithdrawalFee */\n      gt\n        /* \"Heliocontracts/contracts/masterVault/MasterVault.sol\":19245:19318  require(maxWithdrawalFee > newWithdrawalFee,\"more than maxWithdrawalFee\") */\n      tag_491\n      jumpi\n      mload(0x40)\n      shl(0xe5, 0x461bcd)\n      dup2\n      mstore\n        /* \"#utility.yul\":10693:10695   */\n      0x20\n        /* \"Heliocontracts/contracts/masterVault/MasterVault.sol\":19245:19318  require(maxWithdrawalFee > newWithdrawalFee,\"more than maxWithdrawalFee\") */\n      0x04\n      dup3\n      add\n        /* \"#utility.yul\":10675:10696   */\n      mstore\n        /* \"#utility.yul\":10732:10734   */\n      0x1a\n        /* \"#utility.yul\":10712:10730   */\n      0x24\n      dup3\n      add\n        /* \"#utility.yul\":10705:10735   */\n      mstore\n        /* \"#utility.yul\":10771:10799   */\n      0x6d6f7265207468616e206d61785769746864726177616c466565000000000000\n        /* \"#utility.yul\":10751:10769   */\n      0x44\n      dup3\n      add\n        /* \"#utility.yul\":10744:10800   */\n      mstore\n        /* \"#utility.yul\":10817:10835   */\n      0x64\n      add\n        /* \"Heliocontracts/contracts/masterVault/MasterVault.sol\":19245:19318  require(maxWithdrawalFee > newWithdrawalFee,\"more than maxWithdrawalFee\") */\n      tag_264\n        /* \"#utility.yul\":10491:10841   */\n      jump\n        /* \"Heliocontracts/contracts/masterVault/MasterVault.sol\":19245:19318  require(maxWithdrawalFee > newWithdrawalFee,\"more than maxWithdrawalFee\") */\n    tag_491:\n        /* \"Heliocontracts/contracts/masterVault/MasterVault.sol\":19328:19341  withdrawalFee */\n      0xcd\n        /* \"Heliocontracts/contracts/masterVault/MasterVault.sol\":19328:19360  withdrawalFee = newWithdrawalFee */\n      dup2\n      swap1\n      sstore\n        /* \"Heliocontracts/contracts/masterVault/MasterVault.sol\":19375:19413  WithdrawalFeeChanged(newWithdrawalFee) */\n      mload(0x40)\n        /* \"#utility.yul\":160:185   */\n      dup2\n      dup2\n      mstore\n        /* \"Heliocontracts/contracts/masterVault/MasterVault.sol\":19375:19413  WithdrawalFeeChanged(newWithdrawalFee) */\n      0xfc1353e6b18ce07b5a979c8edf77a87455939a17a9eebbb084dcde5bfb3b19ac\n      swap1\n        /* \"#utility.yul\":148:150   */\n      0x20\n        /* \"#utility.yul\":133:151   */\n      add\n        /* \"Heliocontracts/contracts/masterVault/MasterVault.sol\":19375:19413  WithdrawalFeeChanged(newWithdrawalFee) */\n      tag_261\n        /* \"#utility.yul\":14:191   */\n      jump\n        /* \"Heliocontracts/contracts/masterVault/MasterVault.sol\":7544:7686  function depositToStrategy(address strategy, uint256 amount) public onlyManager {... */\n    tag_177:\n        /* \"Heliocontracts/contracts/masterVault/MasterVault.sol\":2106:2116  msg.sender */\n      caller\n        /* \"Heliocontracts/contracts/masterVault/MasterVault.sol\":2098:2117  manager[msg.sender] */\n      0x00\n      swap1\n      dup2\n      mstore\n        /* \"Heliocontracts/contracts/masterVault/MasterVault.sol\":2098:2105  manager */\n      0xca\n        /* \"Heliocontracts/contracts/masterVault/MasterVault.sol\":2098:2117  manager[msg.sender] */\n      0x20\n      mstore\n      0x40\n      swap1\n      keccak256\n      sload\n      0xff\n      and\n        /* \"Heliocontracts/contracts/masterVault/MasterVault.sol\":2077:2163  require(... */\n      tag_496\n      jumpi\n      mload(0x40)\n      shl(0xe5, 0x461bcd)\n      dup2\n      mstore\n      0x04\n      add\n      tag_264\n      swap1\n      tag_392\n      jump\t// in\n    tag_496:\n        /* \"Heliocontracts/contracts/masterVault/MasterVault.sol\":7642:7678  _depositToStrategy(strategy, amount) */\n      tag_395\n        /* \"Heliocontracts/contracts/masterVault/MasterVault.sol\":7661:7669  strategy */\n      dup3\n        /* \"Heliocontracts/contracts/masterVault/MasterVault.sol\":7671:7677  amount */\n      dup3\n        /* \"Heliocontracts/contracts/masterVault/MasterVault.sol\":7642:7660  _depositToStrategy */\n      tag_396\n        /* \"Heliocontracts/contracts/masterVault/MasterVault.sol\":7642:7678  _depositToStrategy(strategy, amount) */\n      jump\t// in\n        /* \"Heliocontracts/contracts/masterVault/MasterVault.sol\":7871:8025  function withdrawFromStrategy(address strategy, uint256 amount) public onlyManager {... */\n    tag_186:\n        /* \"Heliocontracts/contracts/masterVault/MasterVault.sol\":2106:2116  msg.sender */\n      caller\n        /* \"Heliocontracts/contracts/masterVault/MasterVault.sol\":2098:2117  manager[msg.sender] */\n      0x00\n      swap1\n      dup2\n      mstore\n        /* \"Heliocontracts/contracts/masterVault/MasterVault.sol\":2098:2105  manager */\n      0xca\n        /* \"Heliocontracts/contracts/masterVault/MasterVault.sol\":2098:2117  manager[msg.sender] */\n      0x20\n      mstore\n      0x40\n      swap1\n      keccak256\n      sload\n      0xff\n      and\n        /* \"Heliocontracts/contracts/masterVault/MasterVault.sol\":2077:2163  require(... */\n      tag_502\n      jumpi\n      mload(0x40)\n      shl(0xe5, 0x461bcd)\n      dup2\n      mstore\n      0x04\n      add\n      tag_264\n      swap1\n      tag_392\n      jump\t// in\n    tag_502:\n        /* \"Heliocontracts/contracts/masterVault/MasterVault.sol\":7964:8018  _withdrawFromStrategy(strategy, address(this), amount) */\n      tag_505\n        /* \"Heliocontracts/contracts/masterVault/MasterVault.sol\":7986:7994  strategy */\n      dup3\n        /* \"Heliocontracts/contracts/masterVault/MasterVault.sol\":8004:8008  this */\n      address\n        /* \"Heliocontracts/contracts/masterVault/MasterVault.sol\":8011:8017  amount */\n      dup4\n        /* \"Heliocontracts/contracts/masterVault/MasterVault.sol\":7964:7985  _withdrawFromStrategy */\n      tag_408\n        /* \"Heliocontracts/contracts/masterVault/MasterVault.sol\":7964:8018  _withdrawFromStrategy(strategy, address(this), amount) */\n      jump\t// in\n    tag_505:\n      pop\n        /* \"Heliocontracts/contracts/masterVault/MasterVault.sol\":7871:8025  function withdrawFromStrategy(address strategy, uint256 amount) public onlyManager {... */\n      pop\n      pop\n      jump\t// out\n        /* \"Heliocontracts/contracts/masterVault/MasterVault.sol\":15869:16018  function totalAssetInVault() public view returns(uint256 balance) {... */\n    tag_200:\n        /* \"Heliocontracts/contracts/masterVault/MasterVault.sol\":15918:15933  uint256 balance */\n      0x00\n        /* \"Heliocontracts/contracts/masterVault/MasterVault.sol\":15969:15978  feeEarned */\n      sload(0xcf)\n        /* \"Heliocontracts/contracts/masterVault/MasterVault.sol\":15953:15966  totalAssets() */\n      tag_507\n        /* \"Heliocontracts/contracts/masterVault/MasterVault.sol\":15743:15764  address(this).balance */\n      selfbalance\n      swap1\n        /* \"Heliocontracts/contracts/masterVault/MasterVault.sol\":15673:15771  function totalAssets() public view returns (uint256) {... */\n      jump\n        /* \"Heliocontracts/contracts/masterVault/MasterVault.sol\":15953:15966  totalAssets() */\n    tag_507:\n        /* \"Heliocontracts/contracts/masterVault/MasterVault.sol\":15953:15978  totalAssets() > feeEarned */\n      gt\n        /* \"Heliocontracts/contracts/masterVault/MasterVault.sol\":15952:16011  (totalAssets() > feeEarned) ? totalAssets() - feeEarned : 0 */\n      tag_508\n      jumpi\n      pop\n        /* \"Heliocontracts/contracts/masterVault/MasterVault.sol\":16010:16011  0 */\n      0x00\n      swap1\n        /* \"Heliocontracts/contracts/masterVault/MasterVault.sol\":15869:16018  function totalAssetInVault() public view returns(uint256 balance) {... */\n      jump\t// out\n        /* \"Heliocontracts/contracts/masterVault/MasterVault.sol\":15952:16011  (totalAssets() > feeEarned) ? totalAssets() - feeEarned : 0 */\n    tag_508:\n        /* \"Heliocontracts/contracts/masterVault/MasterVault.sol\":15998:16007  feeEarned */\n      sload(0xcf)\n        /* \"Heliocontracts/contracts/masterVault/MasterVault.sol\":15982:16007  totalAssets() - feeEarned */\n      tag_511\n      swap1\n        /* \"Heliocontracts/contracts/masterVault/MasterVault.sol\":15743:15764  address(this).balance */\n      selfbalance\n        /* \"Heliocontracts/contracts/masterVault/MasterVault.sol\":15982:16007  totalAssets() - feeEarned */\n      tag_292\n      jump\t// in\n    tag_511:\n        /* \"Heliocontracts/contracts/masterVault/MasterVault.sol\":15945:16011  return (totalAssets() > feeEarned) ? totalAssets() - feeEarned : 0 */\n      swap1\n      pop\n        /* \"Heliocontracts/contracts/masterVault/MasterVault.sol\":15869:16018  function totalAssetInVault() public view returns(uint256 balance) {... */\n      swap1\n      jump\t// out\n        /* \"Heliocontracts/contracts/masterVault/MasterVault.sol\":1306:1333  address[] public strategies */\n    tag_210:\n      0xd2\n      dup2\n      dup2\n      sload\n      dup2\n      lt\n      tag_512\n      jumpi\n      0x00\n      dup1\n      revert\n    tag_512:\n      0x00\n      swap2\n      dup3\n      mstore\n      0x20\n      swap1\n      swap2\n      keccak256\n      add\n      sload\n      sub(shl(0xa0, 0x01), 0x01)\n      and\n      swap1\n      pop\n      dup2\n      jump\t// out\n        /* \"Heliocontracts/contracts/masterVault/MasterVault.sol\":11030:11203  function estimateInTokenFromStrategy(address strategy, uint256 amount) external view returns(uint256) {... */\n    tag_219:\n        /* \"Heliocontracts/contracts/masterVault/MasterVault.sol\":11149:11196  IBaseStrategy(strategy).estimateInToken(amount) */\n      mload(0x40)\n      shl(0xe0, 0x4bad43)\n      dup2\n      mstore\n      0x04\n      dup2\n      add\n        /* \"#utility.yul\":160:185   */\n      dup3\n      swap1\n      mstore\n        /* \"Heliocontracts/contracts/masterVault/MasterVault.sol\":11123:11130  uint256 */\n      0x00\n      swap1\n      sub(shl(0xa0, 0x01), 0x01)\n        /* \"Heliocontracts/contracts/masterVault/MasterVault.sol\":11149:11188  IBaseStrategy(strategy).estimateInToken */\n      dup5\n      and\n      swap1\n      0x4bad43\n      swap1\n        /* \"#utility.yul\":133:151   */\n      0x24\n      add\n        /* \"Heliocontracts/contracts/masterVault/MasterVault.sol\":11149:11196  IBaseStrategy(strategy).estimateInToken(amount) */\n      0x20\n      mload(0x40)\n      dup1\n      dup4\n      sub\n      dup2\n      dup7\n      gas\n      staticcall\n      iszero\n      dup1\n      iszero\n      tag_517\n      jumpi\n      returndatasize\n      0x00\n      dup1\n      returndatacopy\n      revert(0x00, returndatasize)\n    tag_517:\n      pop\n      pop\n      pop\n      pop\n      mload(0x40)\n      returndatasize\n      not(0x1f)\n      0x1f\n      dup3\n      add\n      and\n      dup3\n      add\n      dup1\n      0x40\n      mstore\n      pop\n      dup2\n      add\n      swap1\n      tag_518\n      swap2\n      swap1\n      tag_402\n      jump\t// in\n    tag_518:\n        /* \"Heliocontracts/contracts/masterVault/MasterVault.sol\":11142:11196  return IBaseStrategy(strategy).estimateInToken(amount) */\n      swap4\n        /* \"Heliocontracts/contracts/masterVault/MasterVault.sol\":11030:11203  function estimateInTokenFromStrategy(address strategy, uint256 amount) external view returns(uint256) {... */\n      swap3\n      pop\n      pop\n      pop\n      jump\t// out\n        /* \"Heliocontracts/contracts/masterVault/MasterVault.sol\":16427:17655  function migrateStrategy(address oldStrategy, address newStrategy, uint256 newAllocation) external onlyManager {... */\n    tag_224:\n        /* \"Heliocontracts/contracts/masterVault/MasterVault.sol\":2106:2116  msg.sender */\n      caller\n        /* \"Heliocontracts/contracts/masterVault/MasterVault.sol\":2098:2117  manager[msg.sender] */\n      0x00\n      swap1\n      dup2\n      mstore\n        /* \"Heliocontracts/contracts/masterVault/MasterVault.sol\":2098:2105  manager */\n      0xca\n        /* \"Heliocontracts/contracts/masterVault/MasterVault.sol\":2098:2117  manager[msg.sender] */\n      0x20\n      mstore\n      0x40\n      swap1\n      keccak256\n      sload\n      0xff\n      and\n        /* \"Heliocontracts/contracts/masterVault/MasterVault.sol\":2077:2163  require(... */\n      tag_520\n      jumpi\n      mload(0x40)\n      shl(0xe5, 0x461bcd)\n      dup2\n      mstore\n      0x04\n      add\n      tag_264\n      swap1\n      tag_392\n      jump\t// in\n    tag_520:\n      sub(shl(0xa0, 0x01), 0x01)\n        /* \"Heliocontracts/contracts/masterVault/MasterVault.sol\":16556:16581  oldStrategy != address(0) */\n      dup4\n      and\n        /* \"Heliocontracts/contracts/masterVault/MasterVault.sol\":16548:16582  require(oldStrategy != address(0)) */\n      tag_523\n      jumpi\n      0x00\n      dup1\n      revert\n    tag_523:\n      sub(shl(0xa0, 0x01), 0x01)\n        /* \"Heliocontracts/contracts/masterVault/MasterVault.sol\":16600:16625  newStrategy != address(0) */\n      dup3\n      and\n        /* \"Heliocontracts/contracts/masterVault/MasterVault.sol\":16592:16626  require(newStrategy != address(0)) */\n      tag_524\n      jumpi\n      0x00\n      dup1\n      revert\n    tag_524:\n      sub(shl(0xa0, 0x01), 0x01)\n        /* \"Heliocontracts/contracts/masterVault/MasterVault.sol\":16671:16698  strategyParams[oldStrategy] */\n      dup4\n      and\n        /* \"Heliocontracts/contracts/masterVault/MasterVault.sol\":16645:16668  uint256 oldStrategyDebt */\n      0x00\n        /* \"Heliocontracts/contracts/masterVault/MasterVault.sol\":16671:16698  strategyParams[oldStrategy] */\n      swap1\n      dup2\n      mstore\n        /* \"Heliocontracts/contracts/masterVault/MasterVault.sol\":16671:16685  strategyParams */\n      0xc9\n        /* \"Heliocontracts/contracts/masterVault/MasterVault.sol\":16671:16698  strategyParams[oldStrategy] */\n      0x20\n      mstore\n      0x40\n      swap1\n      keccak256\n        /* \"Heliocontracts/contracts/masterVault/MasterVault.sol\":16671:16703  strategyParams[oldStrategy].debt */\n      0x02\n      add\n      sload\n        /* \"Heliocontracts/contracts/masterVault/MasterVault.sol\":16725:16744  oldStrategyDebt > 0 */\n      dup1\n      iszero\n        /* \"Heliocontracts/contracts/masterVault/MasterVault.sol\":16722:16943  if(oldStrategyDebt > 0) {... */\n      tag_525\n      jumpi\n      sub(shl(0xa0, 0x01), 0x01)\n        /* \"Heliocontracts/contracts/masterVault/MasterVault.sol\":16830:16857  strategyParams[oldStrategy] */\n      dup5\n      and\n        /* \"Heliocontracts/contracts/masterVault/MasterVault.sol\":16760:16777  uint256 withdrawn */\n      0x00\n        /* \"Heliocontracts/contracts/masterVault/MasterVault.sol\":16830:16857  strategyParams[oldStrategy] */\n      swap1\n      dup2\n      mstore\n        /* \"Heliocontracts/contracts/masterVault/MasterVault.sol\":16830:16844  strategyParams */\n      0xc9\n        /* \"Heliocontracts/contracts/masterVault/MasterVault.sol\":16830:16857  strategyParams[oldStrategy] */\n      0x20\n      mstore\n      0x40\n      dup2\n      keccak256\n        /* \"Heliocontracts/contracts/masterVault/MasterVault.sol\":16830:16862  strategyParams[oldStrategy].debt */\n      0x02\n      add\n      sload\n        /* \"Heliocontracts/contracts/masterVault/MasterVault.sol\":16780:16863  _withdrawFromStrategy(oldStrategy, address(this), strategyParams[oldStrategy].debt) */\n      tag_526\n      swap1\n        /* \"Heliocontracts/contracts/masterVault/MasterVault.sol\":16802:16813  oldStrategy */\n      dup7\n      swap1\n        /* \"Heliocontracts/contracts/masterVault/MasterVault.sol\":16823:16827  this */\n      address\n      swap1\n        /* \"Heliocontracts/contracts/masterVault/MasterVault.sol\":16780:16801  _withdrawFromStrategy */\n      tag_408\n        /* \"Heliocontracts/contracts/masterVault/MasterVault.sol\":16780:16863  _withdrawFromStrategy(oldStrategy, address(this), strategyParams[oldStrategy].debt) */\n      jump\t// in\n    tag_526:\n        /* \"Heliocontracts/contracts/masterVault/MasterVault.sol\":16760:16863  uint256 withdrawn = _withdrawFromStrategy(oldStrategy, address(this), strategyParams[oldStrategy].debt) */\n      swap1\n      pop\n        /* \"Heliocontracts/contracts/masterVault/MasterVault.sol\":16897:16898  0 */\n      0x00\n        /* \"Heliocontracts/contracts/masterVault/MasterVault.sol\":16885:16894  withdrawn */\n      dup2\n        /* \"Heliocontracts/contracts/masterVault/MasterVault.sol\":16885:16898  withdrawn > 0 */\n      gt\n        /* \"Heliocontracts/contracts/masterVault/MasterVault.sol\":16877:16932  require(withdrawn > 0, \"cannot withdraw from strategy\") */\n      tag_527\n      jumpi\n      mload(0x40)\n      shl(0xe5, 0x461bcd)\n      dup2\n      mstore\n        /* \"#utility.yul\":11048:11050   */\n      0x20\n        /* \"Heliocontracts/contracts/masterVault/MasterVault.sol\":16877:16932  require(withdrawn > 0, \"cannot withdraw from strategy\") */\n      0x04\n      dup3\n      add\n        /* \"#utility.yul\":11030:11051   */\n      mstore\n        /* \"#utility.yul\":11087:11089   */\n      0x1d\n        /* \"#utility.yul\":11067:11085   */\n      0x24\n      dup3\n      add\n        /* \"#utility.yul\":11060:11090   */\n      mstore\n        /* \"#utility.yul\":11126:11157   */\n      0x63616e6e6f742077697468647261772066726f6d207374726174656779000000\n        /* \"#utility.yul\":11106:11124   */\n      0x44\n      dup3\n      add\n        /* \"#utility.yul\":11099:11158   */\n      mstore\n        /* \"#utility.yul\":11175:11193   */\n      0x64\n      add\n        /* \"Heliocontracts/contracts/masterVault/MasterVault.sol\":16877:16932  require(withdrawn > 0, \"cannot withdraw from strategy\") */\n      tag_264\n        /* \"#utility.yul\":10846:11199   */\n      jump\n        /* \"Heliocontracts/contracts/masterVault/MasterVault.sol\":16877:16932  require(withdrawn > 0, \"cannot withdraw from strategy\") */\n    tag_527:\n        /* \"Heliocontracts/contracts/masterVault/MasterVault.sol\":16746:16943  {... */\n      pop\n        /* \"Heliocontracts/contracts/masterVault/MasterVault.sol\":16722:16943  if(oldStrategyDebt > 0) {... */\n    tag_525:\n        /* \"Heliocontracts/contracts/masterVault/MasterVault.sol\":16983:17095  StrategyParams({... */\n      0x40\n      dup1\n      mload\n      0x60\n      dup2\n      add\n      dup3\n      mstore\n        /* \"Heliocontracts/contracts/masterVault/MasterVault.sol\":17020:17024  true */\n      0x01\n        /* \"Heliocontracts/contracts/masterVault/MasterVault.sol\":16983:17095  StrategyParams({... */\n      dup2\n      mstore\n      0x20\n      dup2\n      add\n      dup5\n      swap1\n      mstore\n        /* \"Heliocontracts/contracts/masterVault/MasterVault.sol\":16952:16980  StrategyParams memory params */\n      0x00\n        /* \"Heliocontracts/contracts/masterVault/MasterVault.sol\":16983:17095  StrategyParams({... */\n      swap2\n      dup2\n      add\n      dup3\n      swap1\n      mstore\n      swap1\n        /* \"Heliocontracts/contracts/masterVault/MasterVault.sol\":16952:16980  StrategyParams memory params */\n      dup1\n        /* \"Heliocontracts/contracts/masterVault/MasterVault.sol\":17135:17433  for(uint256 i = 0; i < strategies.length; i++) {... */\n    tag_530:\n        /* \"Heliocontracts/contracts/masterVault/MasterVault.sol\":17158:17168  strategies */\n      0xd2\n        /* \"Heliocontracts/contracts/masterVault/MasterVault.sol\":17158:17175  strategies.length */\n      sload\n        /* \"Heliocontracts/contracts/masterVault/MasterVault.sol\":17154:17175  i < strategies.length */\n      dup2\n      lt\n        /* \"Heliocontracts/contracts/masterVault/MasterVault.sol\":17135:17433  for(uint256 i = 0; i < strategies.length; i++) {... */\n      iszero\n      tag_531\n      jumpi\n        /* \"Heliocontracts/contracts/masterVault/MasterVault.sol\":17216:17227  oldStrategy */\n      dup7\n      sub(shl(0xa0, 0x01), 0x01)\n        /* \"Heliocontracts/contracts/masterVault/MasterVault.sol\":17199:17227  strategies[i] == oldStrategy */\n      and\n        /* \"Heliocontracts/contracts/masterVault/MasterVault.sol\":17199:17209  strategies */\n      0xd2\n        /* \"Heliocontracts/contracts/masterVault/MasterVault.sol\":17210:17211  i */\n      dup3\n        /* \"Heliocontracts/contracts/masterVault/MasterVault.sol\":17199:17212  strategies[i] */\n      dup2\n      sload\n      dup2\n      lt\n      tag_534\n      jumpi\n      tag_534\n      tag_315\n      jump\t// in\n    tag_534:\n      0x00\n      swap2\n      dup3\n      mstore\n      0x20\n      swap1\n      swap2\n      keccak256\n      add\n      sload\n      sub(shl(0xa0, 0x01), 0x01)\n      and\n        /* \"Heliocontracts/contracts/masterVault/MasterVault.sol\":17199:17227  strategies[i] == oldStrategy */\n      eq\n        /* \"Heliocontracts/contracts/masterVault/MasterVault.sol\":17196:17423  if(strategies[i] == oldStrategy) {... */\n      iszero\n      tag_536\n      jumpi\n        /* \"Heliocontracts/contracts/masterVault/MasterVault.sol\":17265:17269  true */\n      0x01\n        /* \"Heliocontracts/contracts/masterVault/MasterVault.sol\":17247:17269  isValidStrategy = true */\n      swap2\n      pop\n        /* \"Heliocontracts/contracts/masterVault/MasterVault.sol\":17303:17314  newStrategy */\n      dup6\n        /* \"Heliocontracts/contracts/masterVault/MasterVault.sol\":17287:17297  strategies */\n      0xd2\n        /* \"Heliocontracts/contracts/masterVault/MasterVault.sol\":17298:17299  i */\n      dup3\n        /* \"Heliocontracts/contracts/masterVault/MasterVault.sol\":17287:17300  strategies[i] */\n      dup2\n      sload\n      dup2\n      lt\n      tag_538\n      jumpi\n      tag_538\n      tag_315\n      jump\t// in\n    tag_538:\n      0x00\n      swap2\n      dup3\n      mstore\n      0x20\n      dup1\n      dup4\n      keccak256\n      swap2\n      swap1\n      swap2\n      add\n        /* \"Heliocontracts/contracts/masterVault/MasterVault.sol\":17287:17314  strategies[i] = newStrategy */\n      dup1\n      sload\n      not(sub(shl(0xa0, 0x01), 0x01))\n      and\n      sub(shl(0xa0, 0x01), 0x01)\n      swap5\n      dup6\n      and\n      or\n      swap1\n      sstore\n        /* \"Heliocontracts/contracts/masterVault/MasterVault.sol\":17332:17359  strategyParams[newStrategy] */\n      swap2\n      dup9\n      and\n      dup2\n      mstore\n        /* \"Heliocontracts/contracts/masterVault/MasterVault.sol\":17332:17346  strategyParams */\n      0xc9\n        /* \"Heliocontracts/contracts/masterVault/MasterVault.sol\":17332:17359  strategyParams[newStrategy] */\n      dup3\n      mstore\n      0x40\n      swap1\n      dup2\n      swap1\n      keccak256\n        /* \"Heliocontracts/contracts/masterVault/MasterVault.sol\":17332:17368  strategyParams[newStrategy] = params */\n      dup6\n      mload\n      dup2\n      sload\n      not(0xff)\n      and\n      swap1\n      iszero\n      iszero\n      or\n      dup2\n      sstore\n      swap2\n      dup6\n      add\n      mload\n      0x01\n      dup4\n      add\n      sstore\n      dup5\n      add\n      mload\n      0x02\n      swap1\n      swap2\n      add\n      sstore\n        /* \"Heliocontracts/contracts/masterVault/MasterVault.sol\":17403:17408  break */\n      jump(tag_531)\n        /* \"Heliocontracts/contracts/masterVault/MasterVault.sol\":17196:17423  if(strategies[i] == oldStrategy) {... */\n    tag_536:\n        /* \"Heliocontracts/contracts/masterVault/MasterVault.sol\":17177:17180  i++ */\n      dup1\n      tag_540\n      dup2\n      tag_330\n      jump\t// in\n    tag_540:\n      swap2\n      pop\n      pop\n        /* \"Heliocontracts/contracts/masterVault/MasterVault.sol\":17135:17433  for(uint256 i = 0; i < strategies.length; i++) {... */\n      jump(tag_530)\n    tag_531:\n      pop\n        /* \"Heliocontracts/contracts/masterVault/MasterVault.sol\":17450:17465  isValidStrategy */\n      dup1\n        /* \"Heliocontracts/contracts/masterVault/MasterVault.sol\":17442:17497  require(isValidStrategy, \"invalid oldStrategy address\") */\n      tag_541\n      jumpi\n      mload(0x40)\n      shl(0xe5, 0x461bcd)\n      dup2\n      mstore\n        /* \"#utility.yul\":11406:11408   */\n      0x20\n        /* \"Heliocontracts/contracts/masterVault/MasterVault.sol\":17442:17497  require(isValidStrategy, \"invalid oldStrategy address\") */\n      0x04\n      dup3\n      add\n        /* \"#utility.yul\":11388:11409   */\n      mstore\n        /* \"#utility.yul\":11445:11447   */\n      0x1b\n        /* \"#utility.yul\":11425:11443   */\n      0x24\n      dup3\n      add\n        /* \"#utility.yul\":11418:11448   */\n      mstore\n        /* \"#utility.yul\":11484:11513   */\n      0x696e76616c6964206f6c64537472617465677920616464726573730000000000\n        /* \"#utility.yul\":11464:11482   */\n      0x44\n      dup3\n      add\n        /* \"#utility.yul\":11457:11514   */\n      mstore\n        /* \"#utility.yul\":11531:11549   */\n      0x64\n      add\n        /* \"Heliocontracts/contracts/masterVault/MasterVault.sol\":17442:17497  require(isValidStrategy, \"invalid oldStrategy address\") */\n      tag_264\n        /* \"#utility.yul\":11204:11555   */\n      jump\n        /* \"Heliocontracts/contracts/masterVault/MasterVault.sol\":17442:17497  require(isValidStrategy, \"invalid oldStrategy address\") */\n    tag_541:\n        /* \"Heliocontracts/contracts/masterVault/MasterVault.sol\":17515:17535  _isValidAllocation() */\n      tag_544\n        /* \"Heliocontracts/contracts/masterVault/MasterVault.sol\":17515:17533  _isValidAllocation */\n      tag_429\n        /* \"Heliocontracts/contracts/masterVault/MasterVault.sol\":17515:17535  _isValidAllocation() */\n      jump\t// in\n    tag_544:\n        /* \"Heliocontracts/contracts/masterVault/MasterVault.sol\":17507:17576  require(_isValidAllocation(), \"allocations cannot be more than 100%\") */\n      tag_545\n      jumpi\n      mload(0x40)\n      shl(0xe5, 0x461bcd)\n      dup2\n      mstore\n      0x04\n      add\n      tag_264\n      swap1\n      tag_334\n      jump\t// in\n    tag_545:\n        /* \"Heliocontracts/contracts/masterVault/MasterVault.sol\":17591:17648  StrategyMigrated(oldStrategy, newStrategy, newAllocation) */\n      0x40\n      dup1\n      mload\n      sub(shl(0xa0, 0x01), 0x01)\n        /* \"#utility.yul\":11818:11833   */\n      dup1\n      dup10\n      and\n        /* \"#utility.yul\":11800:11834   */\n      dup3\n      mstore\n        /* \"#utility.yul\":11870:11885   */\n      dup8\n      and\n        /* \"#utility.yul\":11865:11867   */\n      0x20\n        /* \"#utility.yul\":11850:11868   */\n      dup3\n      add\n        /* \"#utility.yul\":11843:11886   */\n      mstore\n        /* \"#utility.yul\":11902:11920   */\n      swap1\n      dup2\n      add\n        /* \"#utility.yul\":11895:11929   */\n      dup6\n      swap1\n      mstore\n        /* \"Heliocontracts/contracts/masterVault/MasterVault.sol\":17591:17648  StrategyMigrated(oldStrategy, newStrategy, newAllocation) */\n      0xf55572e1238e3cef1cce627268598c0bcdc71b7316311157752ae0a2e920998c\n      swap1\n        /* \"#utility.yul\":11750:11752   */\n      0x60\n        /* \"#utility.yul\":11735:11753   */\n      add\n        /* \"Heliocontracts/contracts/masterVault/MasterVault.sol\":17591:17648  StrategyMigrated(oldStrategy, newStrategy, newAllocation) */\n      mload(0x40)\n      dup1\n      swap2\n      sub\n      swap1\n      log1\n        /* \"Heliocontracts/contracts/masterVault/MasterVault.sol\":16538:17655  {... */\n      pop\n      pop\n      pop\n        /* \"Heliocontracts/contracts/masterVault/MasterVault.sol\":16427:17655  function migrateStrategy(address oldStrategy, address newStrategy, uint256 newAllocation) external onlyManager {... */\n      pop\n      pop\n      pop\n      jump\t// out\n        /* \"Heliocontracts/contracts/masterVault/MasterVault.sol\":15377:15667  function availableToWithdraw() public view returns(uint256 available) {... */\n    tag_227:\n        /* \"Heliocontracts/contracts/masterVault/MasterVault.sol\":15428:15445  uint256 available */\n      0x00\n      dup1\n        /* \"Heliocontracts/contracts/masterVault/MasterVault.sol\":15457:15619  for(uint8 i = 0; i < strategies.length; i++) {... */\n    tag_550:\n        /* \"Heliocontracts/contracts/masterVault/MasterVault.sol\":15478:15488  strategies */\n      0xd2\n        /* \"Heliocontracts/contracts/masterVault/MasterVault.sol\":15478:15495  strategies.length */\n      sload\n        /* \"Heliocontracts/contracts/masterVault/MasterVault.sol\":15474:15495  i < strategies.length */\n      0xff\n      dup3\n      and\n      lt\n        /* \"Heliocontracts/contracts/masterVault/MasterVault.sol\":15457:15619  for(uint8 i = 0; i < strategies.length; i++) {... */\n      iszero\n      tag_551\n      jumpi\n        /* \"Heliocontracts/contracts/masterVault/MasterVault.sol\":15529:15539  strategies */\n      0xd2\n        /* \"Heliocontracts/contracts/masterVault/MasterVault.sol\":15540:15541  i */\n      dup2\n        /* \"Heliocontracts/contracts/masterVault/MasterVault.sol\":15529:15542  strategies[i] */\n      0xff\n      and\n      dup2\n      sload\n      dup2\n      lt\n      tag_554\n      jumpi\n      tag_554\n      tag_315\n      jump\t// in\n    tag_554:\n      0x00\n      swap2\n      dup3\n      mstore\n      0x20\n      swap1\n      swap2\n      keccak256\n      add\n      sload\n        /* \"Heliocontracts/contracts/masterVault/MasterVault.sol\":15516:15550  available += strategies[i].balance */\n      tag_556\n      swap1\n      sub(shl(0xa0, 0x01), 0x01)\n        /* \"Heliocontracts/contracts/masterVault/MasterVault.sol\":15529:15542  strategies[i] */\n      and\n        /* \"Heliocontracts/contracts/masterVault/MasterVault.sol\":15529:15550  strategies[i].balance */\n      balance\n        /* \"Heliocontracts/contracts/masterVault/MasterVault.sol\":15516:15550  available += strategies[i].balance */\n      dup4\n      tag_328\n      jump\t// in\n    tag_556:\n      swap2\n      pop\n        /* \"Heliocontracts/contracts/masterVault/MasterVault.sol\":15497:15500  i++ */\n      dup1\n      tag_557\n      dup2\n      tag_482\n      jump\t// in\n    tag_557:\n      swap2\n      pop\n      pop\n        /* \"Heliocontracts/contracts/masterVault/MasterVault.sol\":15457:15619  for(uint8 i = 0; i < strategies.length; i++) {... */\n      jump(tag_550)\n    tag_551:\n      pop\n        /* \"Heliocontracts/contracts/masterVault/MasterVault.sol\":15641:15660  totalAssetInVault() */\n      tag_558\n        /* \"Heliocontracts/contracts/masterVault/MasterVault.sol\":15641:15658  totalAssetInVault */\n      tag_200\n        /* \"Heliocontracts/contracts/masterVault/MasterVault.sol\":15641:15660  totalAssetInVault() */\n      jump\t// in\n    tag_558:\n        /* \"Heliocontracts/contracts/masterVault/MasterVault.sol\":15628:15660  available += totalAssetInVault() */\n      tag_511\n      swap1\n      dup3\n      tag_328\n      jump\t// in\n        /* \"Heliocontracts/contracts/masterVault/MasterVault.sol\":18354:18686  function withdrawFee() external nonReentrant onlyOwner{... */\n    tag_231:\n        /* \"@openzeppelin/contracts-upgradeable/security/ReentrancyGuardUpgradeable.sol\":1815:1816  2 */\n      0x02\n        /* \"@openzeppelin/contracts-upgradeable/security/ReentrancyGuardUpgradeable.sol\":2569:2576  _status */\n      sload(0x97)\n        /* \"@openzeppelin/contracts-upgradeable/security/ReentrancyGuardUpgradeable.sol\":2569:2588  _status != _ENTERED */\n      eq\n      iszero\n        /* \"@openzeppelin/contracts-upgradeable/security/ReentrancyGuardUpgradeable.sol\":2561:2624  require(_status != _ENTERED, \"ReentrancyGuard: reentrant call\") */\n      tag_561\n      jumpi\n      mload(0x40)\n      shl(0xe5, 0x461bcd)\n      dup2\n      mstore\n      0x04\n      add\n      tag_264\n      swap1\n      tag_265\n      jump\t// in\n    tag_561:\n        /* \"@openzeppelin/contracts-upgradeable/security/ReentrancyGuardUpgradeable.sol\":1815:1816  2 */\n      0x02\n        /* \"@openzeppelin/contracts-upgradeable/security/ReentrancyGuardUpgradeable.sol\":2699:2706  _status */\n      0x97\n        /* \"@openzeppelin/contracts-upgradeable/security/ReentrancyGuardUpgradeable.sol\":2699:2717  _status = _ENTERED */\n      sstore\n        /* \"@openzeppelin/contracts-upgradeable/access/OwnableUpgradeable.sol\":1334:1347  _checkOwner() */\n      tag_564\n        /* \"@openzeppelin/contracts-upgradeable/access/OwnableUpgradeable.sol\":1334:1345  _checkOwner */\n      tag_258\n        /* \"@openzeppelin/contracts-upgradeable/access/OwnableUpgradeable.sol\":1334:1347  _checkOwner() */\n      jump\t// in\n    tag_564:\n        /* \"Heliocontracts/contracts/masterVault/MasterVault.sol\":18433:18434  0 */\n      0x00\n        /* \"Heliocontracts/contracts/masterVault/MasterVault.sol\":18421:18430  feeEarned */\n      sload(0xcf)\n        /* \"Heliocontracts/contracts/masterVault/MasterVault.sol\":18421:18434  feeEarned > 0 */\n      gt\n        /* \"Heliocontracts/contracts/masterVault/MasterVault.sol\":18421:18464  feeEarned > 0 && totalAssets() >= feeEarned */\n      dup1\n      iszero\n      tag_566\n      jumpi\n      pop\n        /* \"Heliocontracts/contracts/masterVault/MasterVault.sol\":18455:18464  feeEarned */\n      sload(0xcf)\n        /* \"Heliocontracts/contracts/masterVault/MasterVault.sol\":15743:15764  address(this).balance */\n      selfbalance\n        /* \"Heliocontracts/contracts/masterVault/MasterVault.sol\":18438:18464  totalAssets() >= feeEarned */\n      lt\n      iszero\n        /* \"Heliocontracts/contracts/masterVault/MasterVault.sol\":18421:18464  feeEarned > 0 && totalAssets() >= feeEarned */\n    tag_566:\n        /* \"Heliocontracts/contracts/masterVault/MasterVault.sol\":18418:18680  if(feeEarned > 0 && totalAssets() >= feeEarned) {... */\n      iszero\n      tag_568\n      jumpi\n        /* \"Heliocontracts/contracts/masterVault/MasterVault.sol\":18492:18493  0 */\n      0x00\n        /* \"Heliocontracts/contracts/masterVault/MasterVault.sol\":18480:18489  feeEarned */\n      0xcf\n        /* \"Heliocontracts/contracts/masterVault/MasterVault.sol\":18480:18493  feeEarned = 0 */\n      dup2\n      swap1\n      sstore\n        /* \"Heliocontracts/contracts/masterVault/MasterVault.sol\":18531:18542  feeReceiver */\n      sload(0xd6)\n        /* \"Heliocontracts/contracts/masterVault/MasterVault.sol\":18523:18570  payable(feeReceiver).call{value: feeEarned}(\"\") */\n      mload(0x40)\n      sub(shl(0xa0, 0x01), 0x01)\n        /* \"Heliocontracts/contracts/masterVault/MasterVault.sol\":18531:18542  feeReceiver */\n      swap1\n      swap2\n      and\n      swap1\n        /* \"Heliocontracts/contracts/masterVault/MasterVault.sol\":18492:18493  0 */\n      dup3\n      swap1\n      dup2\n        /* \"Heliocontracts/contracts/masterVault/MasterVault.sol\":18523:18570  payable(feeReceiver).call{value: feeEarned}(\"\") */\n      dup2\n        /* \"Heliocontracts/contracts/masterVault/MasterVault.sol\":18492:18493  0 */\n      dup2\n        /* \"Heliocontracts/contracts/masterVault/MasterVault.sol\":18523:18570  payable(feeReceiver).call{value: feeEarned}(\"\") */\n      dup2\n        /* \"Heliocontracts/contracts/masterVault/MasterVault.sol\":18492:18493  0 */\n      dup2\n        /* \"Heliocontracts/contracts/masterVault/MasterVault.sol\":18531:18542  feeReceiver */\n      dup8\n        /* \"Heliocontracts/contracts/masterVault/MasterVault.sol\":18523:18570  payable(feeReceiver).call{value: feeEarned}(\"\") */\n      gas\n      call\n      swap3\n      pop\n      pop\n      pop\n      returndatasize\n      dup1\n      0x00\n      dup2\n      eq\n      tag_572\n      jumpi\n      mload(0x40)\n      swap2\n      pop\n      and(add(returndatasize, 0x3f), not(0x1f))\n      dup3\n      add\n      0x40\n      mstore\n      returndatasize\n      dup3\n      mstore\n      returndatasize\n      0x00\n      0x20\n      dup5\n      add\n      returndatacopy\n      jump(tag_571)\n    tag_572:\n      0x60\n      swap2\n      pop\n    tag_571:\n      pop\n        /* \"Heliocontracts/contracts/masterVault/MasterVault.sol\":18507:18570  (bool sent, ) = payable(feeReceiver).call{value: feeEarned}(\"\") */\n      pop\n      swap1\n      pop\n        /* \"Heliocontracts/contracts/masterVault/MasterVault.sol\":18592:18596  sent */\n      dup1\n        /* \"Heliocontracts/contracts/masterVault/MasterVault.sol\":18584:18616  require(sent, \"transfer failed\") */\n      tag_573\n      jumpi\n      mload(0x40)\n      shl(0xe5, 0x461bcd)\n      dup2\n      mstore\n      0x04\n      add\n      tag_264\n      swap1\n      tag_364\n      jump\t// in\n    tag_573:\n        /* \"Heliocontracts/contracts/masterVault/MasterVault.sol\":18646:18657  feeReceiver */\n      sload(0xd6)\n        /* \"Heliocontracts/contracts/masterVault/MasterVault.sol\":18659:18668  feeEarned */\n      sload(0xcf)\n        /* \"Heliocontracts/contracts/masterVault/MasterVault.sol\":18635:18669  FeeClaimed(feeReceiver, feeEarned) */\n      mload(0x40)\n        /* \"#utility.yul\":160:185   */\n      swap1\n      dup2\n      mstore\n      sub(shl(0xa0, 0x01), 0x01)\n        /* \"Heliocontracts/contracts/masterVault/MasterVault.sol\":18646:18657  feeReceiver */\n      swap1\n      swap2\n      and\n      swap1\n        /* \"Heliocontracts/contracts/masterVault/MasterVault.sol\":18635:18669  FeeClaimed(feeReceiver, feeEarned) */\n      0x20ca5094f3a20c321cbe4123d0f01b276b81df0fa24cd4d83d9253956035d863\n      swap1\n        /* \"#utility.yul\":148:150   */\n      0x20\n        /* \"#utility.yul\":133:151   */\n      add\n        /* \"Heliocontracts/contracts/masterVault/MasterVault.sol\":18635:18669  FeeClaimed(feeReceiver, feeEarned) */\n      mload(0x40)\n      dup1\n      swap2\n      sub\n      swap1\n      log2\n        /* \"Heliocontracts/contracts/masterVault/MasterVault.sol\":18466:18680  {... */\n      pop\n        /* \"Heliocontracts/contracts/masterVault/MasterVault.sol\":18418:18680  if(feeEarned > 0 && totalAssets() >= feeEarned) {... */\n    tag_568:\n        /* \"@openzeppelin/contracts-upgradeable/security/ReentrancyGuardUpgradeable.sol\":1772:1773  1 */\n      0x01\n        /* \"@openzeppelin/contracts-upgradeable/security/ReentrancyGuardUpgradeable.sol\":2872:2879  _status */\n      0x97\n        /* \"@openzeppelin/contracts-upgradeable/security/ReentrancyGuardUpgradeable.sol\":2872:2894  _status = _NOT_ENTERED */\n      sstore\n        /* \"Heliocontracts/contracts/masterVault/MasterVault.sol\":18354:18686  function withdrawFee() external nonReentrant onlyOwner{... */\n      jump\t// out\n        /* \"@openzeppelin/contracts-upgradeable/access/OwnableUpgradeable.sol\":2321:2519  function transferOwnership(address newOwner) public virtual onlyOwner {... */\n    tag_239:\n        /* \"@openzeppelin/contracts-upgradeable/access/OwnableUpgradeable.sol\":1334:1347  _checkOwner() */\n      tag_577\n        /* \"@openzeppelin/contracts-upgradeable/access/OwnableUpgradeable.sol\":1334:1345  _checkOwner */\n      tag_258\n        /* \"@openzeppelin/contracts-upgradeable/access/OwnableUpgradeable.sol\":1334:1347  _checkOwner() */\n      jump\t// in\n    tag_577:\n      sub(shl(0xa0, 0x01), 0x01)\n        /* \"@openzeppelin/contracts-upgradeable/access/OwnableUpgradeable.sol\":2409:2431  newOwner != address(0) */\n      dup2\n      and\n        /* \"@openzeppelin/contracts-upgradeable/access/OwnableUpgradeable.sol\":2401:2474  require(newOwner != address(0), \"Ownable: new owner is the zero address\") */\n      tag_579\n      jumpi\n      mload(0x40)\n      shl(0xe5, 0x461bcd)\n      dup2\n      mstore\n        /* \"#utility.yul\":12142:12144   */\n      0x20\n        /* \"@openzeppelin/contracts-upgradeable/access/OwnableUpgradeable.sol\":2401:2474  require(newOwner != address(0), \"Ownable: new owner is the zero address\") */\n      0x04\n      dup3\n      add\n        /* \"#utility.yul\":12124:12145   */\n      mstore\n        /* \"#utility.yul\":12181:12183   */\n      0x26\n        /* \"#utility.yul\":12161:12179   */\n      0x24\n      dup3\n      add\n        /* \"#utility.yul\":12154:12184   */\n      mstore\n        /* \"#utility.yul\":12220:12254   */\n      0x4f776e61626c653a206e6577206f776e657220697320746865207a65726f2061\n        /* \"#utility.yul\":12200:12218   */\n      0x44\n      dup3\n      add\n        /* \"#utility.yul\":12193:12255   */\n      mstore\n      shl(0xd0, 0x646472657373)\n        /* \"#utility.yul\":12271:12289   */\n      0x64\n      dup3\n      add\n        /* \"#utility.yul\":12264:12300   */\n      mstore\n        /* \"#utility.yul\":12317:12336   */\n      0x84\n      add\n        /* \"@openzeppelin/contracts-upgradeable/access/OwnableUpgradeable.sol\":2401:2474  require(newOwner != address(0), \"Ownable: new owner is the zero address\") */\n      tag_264\n        /* \"#utility.yul\":11940:12342   */\n      jump\n        /* \"@openzeppelin/contracts-upgradeable/access/OwnableUpgradeable.sol\":2401:2474  require(newOwner != address(0), \"Ownable: new owner is the zero address\") */\n    tag_579:\n        /* \"@openzeppelin/contracts-upgradeable/access/OwnableUpgradeable.sol\":2484:2512  _transferOwnership(newOwner) */\n      tag_418\n        /* \"@openzeppelin/contracts-upgradeable/access/OwnableUpgradeable.sol\":2503:2511  newOwner */\n      dup2\n        /* \"@openzeppelin/contracts-upgradeable/access/OwnableUpgradeable.sol\":2484:2502  _transferOwnership */\n      tag_414\n        /* \"@openzeppelin/contracts-upgradeable/access/OwnableUpgradeable.sol\":2484:2512  _transferOwnership(newOwner) */\n      jump\t// in\n        /* \"Heliocontracts/contracts/masterVault/MasterVault.sol\":3423:3917  function depositETH() public ... */\n    tag_241:\n        /* \"Heliocontracts/contracts/masterVault/MasterVault.sol\":3545:3559  uint256 shares */\n      0x00\n        /* \"@openzeppelin/contracts-upgradeable/security/ReentrancyGuardUpgradeable.sol\":1815:1816  2 */\n      0x02\n        /* \"@openzeppelin/contracts-upgradeable/security/ReentrancyGuardUpgradeable.sol\":2569:2576  _status */\n      sload(0x97)\n        /* \"@openzeppelin/contracts-upgradeable/security/ReentrancyGuardUpgradeable.sol\":2569:2588  _status != _ENTERED */\n      eq\n      iszero\n        /* \"@openzeppelin/contracts-upgradeable/security/ReentrancyGuardUpgradeable.sol\":2561:2624  require(_status != _ENTERED, \"ReentrancyGuard: reentrant call\") */\n      tag_584\n      jumpi\n      mload(0x40)\n      shl(0xe5, 0x461bcd)\n      dup2\n      mstore\n      0x04\n      add\n      tag_264\n      swap1\n      tag_265\n      jump\t// in\n    tag_584:\n        /* \"@openzeppelin/contracts-upgradeable/security/ReentrancyGuardUpgradeable.sol\":1815:1816  2 */\n      0x02\n        /* \"@openzeppelin/contracts-upgradeable/security/ReentrancyGuardUpgradeable.sol\":2699:2706  _status */\n      0x97\n        /* \"@openzeppelin/contracts-upgradeable/security/ReentrancyGuardUpgradeable.sol\":2699:2717  _status = _ENTERED */\n      sstore\n        /* \"@openzeppelin/contracts-upgradeable/security/PausableUpgradeable.sol\":1482:1501  _requireNotPaused() */\n      tag_587\n        /* \"@openzeppelin/contracts-upgradeable/security/PausableUpgradeable.sol\":1482:1499  _requireNotPaused */\n      tag_268\n        /* \"@openzeppelin/contracts-upgradeable/security/PausableUpgradeable.sol\":1482:1501  _requireNotPaused() */\n      jump\t// in\n    tag_587:\n        /* \"@openzeppelin/contracts-upgradeable/access/OwnableUpgradeable.sol\":1513:1519  _owner */\n      and(sub(shl(0xa0, 0x01), 0x01), sload(0x33))\n        /* \"Heliocontracts/contracts/masterVault/MasterVault.sol\":1927:1937  msg.sender */\n      caller\n        /* \"Heliocontracts/contracts/masterVault/MasterVault.sol\":1927:1948  msg.sender == owner() */\n      eq\n      dup1\n        /* \"Heliocontracts/contracts/masterVault/MasterVault.sol\":1927:1974  msg.sender == owner() || msg.sender == provider */\n      tag_590\n      jumpi\n      pop\n        /* \"Heliocontracts/contracts/masterVault/MasterVault.sol\":1966:1974  provider */\n      and(sub(shl(0xa0, 0x01), 0x01), sload(0xd3))\n        /* \"Heliocontracts/contracts/masterVault/MasterVault.sol\":1952:1962  msg.sender */\n      caller\n        /* \"Heliocontracts/contracts/masterVault/MasterVault.sol\":1952:1974  msg.sender == provider */\n      eq\n        /* \"Heliocontracts/contracts/masterVault/MasterVault.sol\":1927:1974  msg.sender == owner() || msg.sender == provider */\n    tag_590:\n        /* \"Heliocontracts/contracts/masterVault/MasterVault.sol\":1906:2021  require(... */\n      tag_591\n      jumpi\n      mload(0x40)\n      shl(0xe5, 0x461bcd)\n      dup2\n      mstore\n      0x04\n      add\n      tag_264\n      swap1\n      tag_274\n      jump\t// in\n    tag_591:\n        /* \"Heliocontracts/contracts/masterVault/MasterVault.sol\":3585:3595  msg.sender */\n      caller\n        /* \"Heliocontracts/contracts/masterVault/MasterVault.sol\":3622:3631  msg.value */\n      callvalue\n        /* \"Heliocontracts/contracts/masterVault/MasterVault.sol\":3649:3659  amount > 0 */\n      dup1\n        /* \"Heliocontracts/contracts/masterVault/MasterVault.sol\":3641:3678  require(amount > 0, \"invalid amount\") */\n      tag_594\n      jumpi\n      mload(0x40)\n      shl(0xe5, 0x461bcd)\n      dup2\n      mstore\n        /* \"#utility.yul\":12549:12551   */\n      0x20\n        /* \"Heliocontracts/contracts/masterVault/MasterVault.sol\":3641:3678  require(amount > 0, \"invalid amount\") */\n      0x04\n      dup3\n      add\n        /* \"#utility.yul\":12531:12552   */\n      mstore\n        /* \"#utility.yul\":12588:12590   */\n      0x0e\n        /* \"#utility.yul\":12568:12586   */\n      0x24\n      dup3\n      add\n        /* \"#utility.yul\":12561:12591   */\n      mstore\n      shl(0x92, 0x1a5b9d985b1a5908185b5bdd5b9d)\n        /* \"#utility.yul\":12607:12625   */\n      0x44\n      dup3\n      add\n        /* \"#utility.yul\":12600:12644   */\n      mstore\n        /* \"#utility.yul\":12661:12679   */\n      0x64\n      add\n        /* \"Heliocontracts/contracts/masterVault/MasterVault.sol\":3641:3678  require(amount > 0, \"invalid amount\") */\n      tag_264\n        /* \"#utility.yul\":12347:12685   */\n      jump\n        /* \"Heliocontracts/contracts/masterVault/MasterVault.sol\":3641:3678  require(amount > 0, \"invalid amount\") */\n    tag_594:\n        /* \"Heliocontracts/contracts/masterVault/MasterVault.sol\":3697:3727  _assessFee(amount, depositFee) */\n      tag_597\n        /* \"Heliocontracts/contracts/masterVault/MasterVault.sol\":3708:3714  amount */\n      dup2\n        /* \"Heliocontracts/contracts/masterVault/MasterVault.sol\":3716:3726  depositFee */\n      sload(0xcb)\n        /* \"Heliocontracts/contracts/masterVault/MasterVault.sol\":3697:3707  _assessFee */\n      tag_289\n        /* \"Heliocontracts/contracts/masterVault/MasterVault.sol\":3697:3727  _assessFee(amount, depositFee) */\n      jump\t// in\n    tag_597:\n        /* \"Heliocontracts/contracts/masterVault/MasterVault.sol\":3688:3727  shares = _assessFee(amount, depositFee) */\n      swap3\n      pop\n        /* \"Heliocontracts/contracts/masterVault/MasterVault.sol\":3750:3765  amount - shares */\n      tag_598\n        /* \"Heliocontracts/contracts/masterVault/MasterVault.sol\":3688:3727  shares = _assessFee(amount, depositFee) */\n      dup4\n        /* \"Heliocontracts/contracts/masterVault/MasterVault.sol\":3750:3756  amount */\n      dup3\n        /* \"Heliocontracts/contracts/masterVault/MasterVault.sol\":3750:3765  amount - shares */\n      tag_292\n      jump\t// in\n    tag_598:\n        /* \"Heliocontracts/contracts/masterVault/MasterVault.sol\":3737:3746  feeEarned */\n      0xcf\n      0x00\n        /* \"Heliocontracts/contracts/masterVault/MasterVault.sol\":3737:3765  feeEarned += amount - shares */\n      dup3\n      dup3\n      sload\n      tag_599\n      swap2\n      swap1\n      tag_328\n      jump\t// in\n    tag_599:\n      swap1\n      swap2\n      sstore\n      pop\n      pop\n        /* \"Heliocontracts/contracts/masterVault/MasterVault.sol\":3833:3843  vaultToken */\n      sload(0xd4)\n        /* \"Heliocontracts/contracts/masterVault/MasterVault.sol\":3822:3862  ICertToken(vaultToken).mint(src, shares) */\n      mload(0x40)\n      shl(0xe0, 0x40c10f19)\n      dup2\n      mstore\n      sub(shl(0xa0, 0x01), 0x01)\n        /* \"Heliocontracts/contracts/masterVault/MasterVault.sol\":3833:3843  vaultToken */\n      swap1\n      swap2\n      and\n      swap1\n        /* \"Heliocontracts/contracts/masterVault/MasterVault.sol\":3822:3849  ICertToken(vaultToken).mint */\n      0x40c10f19\n      swap1\n        /* \"Heliocontracts/contracts/masterVault/MasterVault.sol\":3822:3862  ICertToken(vaultToken).mint(src, shares) */\n      tag_600\n      swap1\n        /* \"Heliocontracts/contracts/masterVault/MasterVault.sol\":3850:3853  src */\n      dup6\n      swap1\n        /* \"Heliocontracts/contracts/masterVault/MasterVault.sol\":3855:3861  shares */\n      dup8\n      swap1\n        /* \"Heliocontracts/contracts/masterVault/MasterVault.sol\":3822:3862  ICertToken(vaultToken).mint(src, shares) */\n      0x04\n      add\n      tag_283\n      jump\t// in\n    tag_600:\n      0x00\n      mload(0x40)\n      dup1\n      dup4\n      sub\n      dup2\n      0x00\n      dup8\n      dup1\n      extcodesize\n      iszero\n      dup1\n      iszero\n      tag_601\n      jumpi\n      0x00\n      dup1\n      revert\n    tag_601:\n      pop\n      gas\n      call\n      iszero\n      dup1\n      iszero\n      tag_603\n      jumpi\n      returndatasize\n      0x00\n      dup1\n      returndatacopy\n      revert(0x00, returndatasize)\n    tag_603:\n      pop\n      pop\n        /* \"Heliocontracts/contracts/masterVault/MasterVault.sol\":3877:3910  Deposit(src, src, amount, shares) */\n      0x40\n      dup1\n      mload\n        /* \"#utility.yul\":8731:8756   */\n      dup5\n      dup2\n      mstore\n        /* \"#utility.yul\":8787:8789   */\n      0x20\n        /* \"#utility.yul\":8772:8790   */\n      dup2\n      add\n        /* \"#utility.yul\":8765:8799   */\n      dup8\n      swap1\n      mstore\n      sub(shl(0xa0, 0x01), 0x01)\n        /* \"Heliocontracts/contracts/masterVault/MasterVault.sol\":3877:3910  Deposit(src, src, amount, shares) */\n      dup7\n      and\n      swap4\n      pop\n      dup4\n      swap3\n      pop\n      0xdcbc1c05240f31ff3ad067ef1ee35ce4997762752e3a095284754544f4c709d7\n      swap2\n        /* \"#utility.yul\":8704:8722   */\n      add\n        /* \"Heliocontracts/contracts/masterVault/MasterVault.sol\":3877:3910  Deposit(src, src, amount, shares) */\n      mload(0x40)\n      dup1\n      swap2\n      sub\n      swap1\n      log3\n      pop\n      pop\n        /* \"@openzeppelin/contracts-upgradeable/security/ReentrancyGuardUpgradeable.sol\":1772:1773  1 */\n      0x01\n        /* \"@openzeppelin/contracts-upgradeable/security/ReentrancyGuardUpgradeable.sol\":2872:2879  _status */\n      0x97\n        /* \"@openzeppelin/contracts-upgradeable/security/ReentrancyGuardUpgradeable.sol\":2872:2894  _status = _NOT_ENTERED */\n      sstore\n        /* \"Heliocontracts/contracts/masterVault/MasterVault.sol\":3423:3917  function depositETH() public ... */\n      swap1\n      jump\t// out\n        /* \"Heliocontracts/contracts/masterVault/MasterVault.sol\":18212:18277  function unPause() external onlyOwner {... */\n    tag_245:\n        /* \"@openzeppelin/contracts-upgradeable/access/OwnableUpgradeable.sol\":1334:1347  _checkOwner() */\n      tag_606\n        /* \"@openzeppelin/contracts-upgradeable/access/OwnableUpgradeable.sol\":1334:1345  _checkOwner */\n      tag_258\n        /* \"@openzeppelin/contracts-upgradeable/access/OwnableUpgradeable.sol\":1334:1347  _checkOwner() */\n      jump\t// in\n    tag_606:\n        /* \"Heliocontracts/contracts/masterVault/MasterVault.sol\":18260:18270  _unpause() */\n      tag_413\n        /* \"Heliocontracts/contracts/masterVault/MasterVault.sol\":18260:18268  _unpause */\n      tag_609\n        /* \"Heliocontracts/contracts/masterVault/MasterVault.sol\":18260:18270  _unpause() */\n      jump\t// in\n        /* \"Heliocontracts/contracts/masterVault/MasterVault.sol\":2583:3263  function initialize(... */\n    tag_250:\n        /* \"@openzeppelin/contracts-upgradeable/proxy/utils/Initializable.sol\":3111:3130  bool isTopLevelCall */\n      0x00\n        /* \"@openzeppelin/contracts-upgradeable/proxy/utils/Initializable.sol\":3134:3147  _initializing */\n      sload\n      0x0100\n      swap1\n      div\n      0xff\n      and\n        /* \"@openzeppelin/contracts-upgradeable/proxy/utils/Initializable.sol\":3133:3147  !_initializing */\n      iszero\n      dup1\n        /* \"@openzeppelin/contracts-upgradeable/proxy/utils/Initializable.sol\":3179:3213  isTopLevelCall && _initialized < 1 */\n      dup1\n      iszero\n      tag_611\n      jumpi\n      pop\n        /* \"@openzeppelin/contracts-upgradeable/proxy/utils/Initializable.sol\":3197:3209  _initialized */\n      sload(0x00)\n        /* \"@openzeppelin/contracts-upgradeable/proxy/utils/Initializable.sol\":3212:3213  1 */\n      0x01\n        /* \"@openzeppelin/contracts-upgradeable/proxy/utils/Initializable.sol\":3197:3209  _initialized */\n      0xff\n      swap1\n      swap2\n      and\n        /* \"@openzeppelin/contracts-upgradeable/proxy/utils/Initializable.sol\":3197:3213  _initialized < 1 */\n      lt\n        /* \"@openzeppelin/contracts-upgradeable/proxy/utils/Initializable.sol\":3179:3213  isTopLevelCall && _initialized < 1 */\n    tag_611:\n        /* \"@openzeppelin/contracts-upgradeable/proxy/utils/Initializable.sol\":3178:3286  (isTopLevelCall && _initialized < 1) || (!AddressUpgradeable.isContract(address(this)) && _initialized == 1) */\n      dup1\n      tag_615\n      jumpi\n      pop\n        /* \"@openzeppelin/contracts-upgradeable/proxy/utils/Initializable.sol\":3258:3262  this */\n      address\n        /* \"@openzeppelin/contracts-upgradeable/utils/AddressUpgradeable.sol\":1476:1495  account.code.length */\n      extcodesize\n        /* \"@openzeppelin/contracts-upgradeable/utils/AddressUpgradeable.sol\":1476:1499  account.code.length > 0 */\n      iszero\n      dup1\n      iszero\n        /* \"@openzeppelin/contracts-upgradeable/proxy/utils/Initializable.sol\":3219:3285  !AddressUpgradeable.isContract(address(this)) && _initialized == 1 */\n      tag_615\n      jumpi\n      pop\n        /* \"@openzeppelin/contracts-upgradeable/proxy/utils/Initializable.sol\":3268:3280  _initialized */\n      and(0xff, sload(0x00))\n      0x01\n        /* \"@openzeppelin/contracts-upgradeable/proxy/utils/Initializable.sol\":3268:3285  _initialized == 1 */\n      eq\n        /* \"@openzeppelin/contracts-upgradeable/proxy/utils/Initializable.sol\":3219:3285  !AddressUpgradeable.isContract(address(this)) && _initialized == 1 */\n    tag_615:\n        /* \"@openzeppelin/contracts-upgradeable/proxy/utils/Initializable.sol\":3157:3358  require(... */\n      tag_616\n      jumpi\n      mload(0x40)\n      shl(0xe5, 0x461bcd)\n      dup2\n      mstore\n        /* \"#utility.yul\":12892:12894   */\n      0x20\n        /* \"@openzeppelin/contracts-upgradeable/proxy/utils/Initializable.sol\":3157:3358  require(... */\n      0x04\n      dup3\n      add\n        /* \"#utility.yul\":12874:12895   */\n      mstore\n        /* \"#utility.yul\":12931:12933   */\n      0x2e\n        /* \"#utility.yul\":12911:12929   */\n      0x24\n      dup3\n      add\n        /* \"#utility.yul\":12904:12934   */\n      mstore\n        /* \"#utility.yul\":12970:13004   */\n      0x496e697469616c697a61626c653a20636f6e747261637420697320616c726561\n        /* \"#utility.yul\":12950:12968   */\n      0x44\n      dup3\n      add\n        /* \"#utility.yul\":12943:13005   */\n      mstore\n      shl(0x92, 0x191e481a5b9a5d1a585b1a5e9959)\n        /* \"#utility.yul\":13021:13039   */\n      0x64\n      dup3\n      add\n        /* \"#utility.yul\":13014:13058   */\n      mstore\n        /* \"#utility.yul\":13075:13094   */\n      0x84\n      add\n        /* \"@openzeppelin/contracts-upgradeable/proxy/utils/Initializable.sol\":3157:3358  require(... */\n      tag_264\n        /* \"#utility.yul\":12690:13100   */\n      jump\n        /* \"@openzeppelin/contracts-upgradeable/proxy/utils/Initializable.sol\":3157:3358  require(... */\n    tag_616:\n        /* \"@openzeppelin/contracts-upgradeable/proxy/utils/Initializable.sol\":3368:3380  _initialized */\n      0x00\n        /* \"@openzeppelin/contracts-upgradeable/proxy/utils/Initializable.sol\":3368:3384  _initialized = 1 */\n      dup1\n      sload\n      not(0xff)\n      and\n        /* \"@openzeppelin/contracts-upgradeable/proxy/utils/Initializable.sol\":3383:3384  1 */\n      0x01\n        /* \"@openzeppelin/contracts-upgradeable/proxy/utils/Initializable.sol\":3368:3384  _initialized = 1 */\n      or\n      swap1\n      sstore\n        /* \"@openzeppelin/contracts-upgradeable/proxy/utils/Initializable.sol\":3394:3459  if (isTopLevelCall) {... */\n      dup1\n      iszero\n      tag_619\n      jumpi\n        /* \"@openzeppelin/contracts-upgradeable/proxy/utils/Initializable.sol\":3428:3441  _initializing */\n      0x00\n        /* \"@openzeppelin/contracts-upgradeable/proxy/utils/Initializable.sol\":3428:3448  _initializing = true */\n      dup1\n      sload\n      not(0xff00)\n      and\n      0x0100\n      or\n      swap1\n      sstore\n        /* \"@openzeppelin/contracts-upgradeable/proxy/utils/Initializable.sol\":3394:3459  if (isTopLevelCall) {... */\n    tag_619:\n        /* \"Heliocontracts/contracts/masterVault/MasterVault.sol\":2784:2785  0 */\n      0x00\n        /* \"Heliocontracts/contracts/masterVault/MasterVault.sol\":2767:2781  maxDepositFees */\n      dup6\n        /* \"Heliocontracts/contracts/masterVault/MasterVault.sol\":2767:2785  maxDepositFees > 0 */\n      gt\n        /* \"Heliocontracts/contracts/masterVault/MasterVault.sol\":2767:2810  maxDepositFees > 0 && maxDepositFees <= 1e6 */\n      dup1\n      iszero\n      tag_621\n      jumpi\n      pop\n        /* \"Heliocontracts/contracts/masterVault/MasterVault.sol\":2807:2810  1e6 */\n      0x0f4240\n        /* \"Heliocontracts/contracts/masterVault/MasterVault.sol\":2789:2803  maxDepositFees */\n      dup6\n        /* \"Heliocontracts/contracts/masterVault/MasterVault.sol\":2789:2810  maxDepositFees <= 1e6 */\n      gt\n      iszero\n        /* \"Heliocontracts/contracts/masterVault/MasterVault.sol\":2767:2810  maxDepositFees > 0 && maxDepositFees <= 1e6 */\n    tag_621:\n        /* \"Heliocontracts/contracts/masterVault/MasterVault.sol\":2759:2836  require(maxDepositFees > 0 && maxDepositFees <= 1e6, \"invalid maxDepositFee\") */\n      tag_622\n      jumpi\n      mload(0x40)\n      shl(0xe5, 0x461bcd)\n      dup2\n      mstore\n        /* \"#utility.yul\":13307:13309   */\n      0x20\n        /* \"Heliocontracts/contracts/masterVault/MasterVault.sol\":2759:2836  require(maxDepositFees > 0 && maxDepositFees <= 1e6, \"invalid maxDepositFee\") */\n      0x04\n      dup3\n      add\n        /* \"#utility.yul\":13289:13310   */\n      mstore\n        /* \"#utility.yul\":13346:13348   */\n      0x15\n        /* \"#utility.yul\":13326:13344   */\n      0x24\n      dup3\n      add\n        /* \"#utility.yul\":13319:13349   */\n      mstore\n      shl(0x58, 0x696e76616c6964206d61784465706f736974466565)\n        /* \"#utility.yul\":13365:13383   */\n      0x44\n      dup3\n      add\n        /* \"#utility.yul\":13358:13409   */\n      mstore\n        /* \"#utility.yul\":13426:13444   */\n      0x64\n      add\n        /* \"Heliocontracts/contracts/masterVault/MasterVault.sol\":2759:2836  require(maxDepositFees > 0 && maxDepositFees <= 1e6, \"invalid maxDepositFee\") */\n      tag_264\n        /* \"#utility.yul\":13105:13450   */\n      jump\n        /* \"Heliocontracts/contracts/masterVault/MasterVault.sol\":2759:2836  require(maxDepositFees > 0 && maxDepositFees <= 1e6, \"invalid maxDepositFee\") */\n    tag_622:\n        /* \"Heliocontracts/contracts/masterVault/MasterVault.sol\":2874:2875  0 */\n      0x00\n        /* \"Heliocontracts/contracts/masterVault/MasterVault.sol\":2854:2871  maxWithdrawalFees */\n      dup5\n        /* \"Heliocontracts/contracts/masterVault/MasterVault.sol\":2854:2875  maxWithdrawalFees > 0 */\n      gt\n        /* \"Heliocontracts/contracts/masterVault/MasterVault.sol\":2854:2903  maxWithdrawalFees > 0 && maxWithdrawalFees <= 1e6 */\n      dup1\n      iszero\n      tag_625\n      jumpi\n      pop\n        /* \"Heliocontracts/contracts/masterVault/MasterVault.sol\":2900:2903  1e6 */\n      0x0f4240\n        /* \"Heliocontracts/contracts/masterVault/MasterVault.sol\":2879:2896  maxWithdrawalFees */\n      dup5\n        /* \"Heliocontracts/contracts/masterVault/MasterVault.sol\":2879:2903  maxWithdrawalFees <= 1e6 */\n      gt\n      iszero\n        /* \"Heliocontracts/contracts/masterVault/MasterVault.sol\":2854:2903  maxWithdrawalFees > 0 && maxWithdrawalFees <= 1e6 */\n    tag_625:\n        /* \"Heliocontracts/contracts/masterVault/MasterVault.sol\":2846:2933  require(maxWithdrawalFees > 0 && maxWithdrawalFees <= 1e6, \"invalid maxWithdrawalFees\") */\n      tag_626\n      jumpi\n      mload(0x40)\n      shl(0xe5, 0x461bcd)\n      dup2\n      mstore\n        /* \"#utility.yul\":13657:13659   */\n      0x20\n        /* \"Heliocontracts/contracts/masterVault/MasterVault.sol\":2846:2933  require(maxWithdrawalFees > 0 && maxWithdrawalFees <= 1e6, \"invalid maxWithdrawalFees\") */\n      0x04\n      dup3\n      add\n        /* \"#utility.yul\":13639:13660   */\n      mstore\n        /* \"#utility.yul\":13696:13698   */\n      0x19\n        /* \"#utility.yul\":13676:13694   */\n      0x24\n      dup3\n      add\n        /* \"#utility.yul\":13669:13699   */\n      mstore\n        /* \"#utility.yul\":13735:13762   */\n      0x696e76616c6964206d61785769746864726177616c4665657300000000000000\n        /* \"#utility.yul\":13715:13733   */\n      0x44\n      dup3\n      add\n        /* \"#utility.yul\":13708:13763   */\n      mstore\n        /* \"#utility.yul\":13780:13798   */\n      0x64\n      add\n        /* \"Heliocontracts/contracts/masterVault/MasterVault.sol\":2846:2933  require(maxWithdrawalFees > 0 && maxWithdrawalFees <= 1e6, \"invalid maxWithdrawalFees\") */\n      tag_264\n        /* \"#utility.yul\":13455:13804   */\n      jump\n        /* \"Heliocontracts/contracts/masterVault/MasterVault.sol\":2846:2933  require(maxWithdrawalFees > 0 && maxWithdrawalFees <= 1e6, \"invalid maxWithdrawalFees\") */\n    tag_626:\n        /* \"Heliocontracts/contracts/masterVault/MasterVault.sol\":2944:2960  __Ownable_init() */\n      tag_629\n        /* \"Heliocontracts/contracts/masterVault/MasterVault.sol\":2944:2958  __Ownable_init */\n      tag_630\n        /* \"Heliocontracts/contracts/masterVault/MasterVault.sol\":2944:2960  __Ownable_init() */\n      jump\t// in\n    tag_629:\n        /* \"Heliocontracts/contracts/masterVault/MasterVault.sol\":2970:2987  __Pausable_init() */\n      tag_631\n        /* \"Heliocontracts/contracts/masterVault/MasterVault.sol\":2970:2985  __Pausable_init */\n      tag_632\n        /* \"Heliocontracts/contracts/masterVault/MasterVault.sol\":2970:2987  __Pausable_init() */\n      jump\t// in\n    tag_631:\n        /* \"Heliocontracts/contracts/masterVault/MasterVault.sol\":2997:3021  __ReentrancyGuard_init() */\n      tag_633\n        /* \"Heliocontracts/contracts/masterVault/MasterVault.sol\":2997:3019  __ReentrancyGuard_init */\n      tag_634\n        /* \"Heliocontracts/contracts/masterVault/MasterVault.sol\":2997:3021  __ReentrancyGuard_init() */\n      jump\t// in\n    tag_633:\n        /* \"Heliocontracts/contracts/masterVault/MasterVault.sol\":3039:3049  msg.sender */\n      caller\n        /* \"Heliocontracts/contracts/masterVault/MasterVault.sol\":3031:3050  manager[msg.sender] */\n      0x00\n      dup2\n      dup2\n      mstore\n        /* \"Heliocontracts/contracts/masterVault/MasterVault.sol\":3031:3038  manager */\n      0xca\n        /* \"Heliocontracts/contracts/masterVault/MasterVault.sol\":3031:3050  manager[msg.sender] */\n      0x20\n      mstore\n      0x40\n      swap1\n      keccak256\n        /* \"Heliocontracts/contracts/masterVault/MasterVault.sol\":3031:3057  manager[msg.sender] = true */\n      dup1\n      sload\n      not(0xff)\n      and\n        /* \"Heliocontracts/contracts/masterVault/MasterVault.sol\":3053:3057  true */\n      0x01\n        /* \"Heliocontracts/contracts/masterVault/MasterVault.sol\":3031:3057  manager[msg.sender] = true */\n      or\n      swap1\n      sstore\n        /* \"Heliocontracts/contracts/masterVault/MasterVault.sol\":3067:3080  maxDepositFee */\n      0xcc\n        /* \"Heliocontracts/contracts/masterVault/MasterVault.sol\":3067:3097  maxDepositFee = maxDepositFees */\n      dup7\n      swap1\n      sstore\n        /* \"Heliocontracts/contracts/masterVault/MasterVault.sol\":3107:3123  maxWithdrawalFee */\n      0xce\n        /* \"Heliocontracts/contracts/masterVault/MasterVault.sol\":3107:3143  maxWithdrawalFee = maxWithdrawalFees */\n      dup6\n      swap1\n      sstore\n        /* \"Heliocontracts/contracts/masterVault/MasterVault.sol\":3031:3057  manager[msg.sender] = true */\n      0xff\n        /* \"Heliocontracts/contracts/masterVault/MasterVault.sol\":3153:3183  MAX_STRATEGIES = maxStrategies */\n      dup5\n      and\n        /* \"Heliocontracts/contracts/masterVault/MasterVault.sol\":3153:3167  MAX_STRATEGIES */\n      0xd0\n        /* \"Heliocontracts/contracts/masterVault/MasterVault.sol\":3153:3183  MAX_STRATEGIES = maxStrategies */\n      sstore\n        /* \"Heliocontracts/contracts/masterVault/MasterVault.sol\":3193:3204  feeReceiver */\n      0xd6\n        /* \"Heliocontracts/contracts/masterVault/MasterVault.sol\":3193:3226  feeReceiver = payable(msg.sender) */\n      dup1\n      sload\n      not(sub(shl(0xa0, 0x01), 0x01))\n      swap1\n      dup2\n      and\n      swap1\n      swap3\n      or\n      swap1\n      sstore\n        /* \"Heliocontracts/contracts/masterVault/MasterVault.sol\":3236:3246  vaultToken */\n      0xd4\n        /* \"Heliocontracts/contracts/masterVault/MasterVault.sol\":3236:3256  vaultToken = ceToken */\n      dup1\n      sload\n      sub(shl(0xa0, 0x01), 0x01)\n      dup6\n      and\n      swap3\n      and\n      swap2\n      swap1\n      swap2\n      or\n      swap1\n      sstore\n        /* \"@openzeppelin/contracts-upgradeable/proxy/utils/Initializable.sol\":3479:3578  if (isTopLevelCall) {... */\n      dup1\n      iszero\n      tag_635\n      jumpi\n        /* \"@openzeppelin/contracts-upgradeable/proxy/utils/Initializable.sol\":3529:3534  false */\n      0x00\n        /* \"@openzeppelin/contracts-upgradeable/proxy/utils/Initializable.sol\":3513:3534  _initializing = false */\n      dup1\n      sload\n      not(0xff00)\n      and\n      swap1\n      sstore\n        /* \"@openzeppelin/contracts-upgradeable/proxy/utils/Initializable.sol\":3553:3567  Initialized(1) */\n      mload(0x40)\n      0x01\n        /* \"#utility.yul\":13961:13997   */\n      dup2\n      mstore\n        /* \"@openzeppelin/contracts-upgradeable/proxy/utils/Initializable.sol\":3553:3567  Initialized(1) */\n      0x7f26b83ff96e1f2b6a682f133852f6798a09c465da95921460cefb3847402498\n      swap1\n        /* \"#utility.yul\":13949:13951   */\n      0x20\n        /* \"#utility.yul\":13934:13952   */\n      add\n        /* \"@openzeppelin/contracts-upgradeable/proxy/utils/Initializable.sol\":3553:3567  Initialized(1) */\n      mload(0x40)\n      dup1\n      swap2\n      sub\n      swap1\n      log1\n        /* \"@openzeppelin/contracts-upgradeable/proxy/utils/Initializable.sol\":3479:3578  if (isTopLevelCall) {... */\n    tag_635:\n        /* \"@openzeppelin/contracts-upgradeable/proxy/utils/Initializable.sol\":3101:3584  {... */\n      pop\n        /* \"Heliocontracts/contracts/masterVault/MasterVault.sol\":2583:3263  function initialize(... */\n      pop\n      pop\n      pop\n      pop\n      jump\t// out\n        /* \"@openzeppelin/contracts-upgradeable/access/OwnableUpgradeable.sol\":1599:1729  function _checkOwner() internal view virtual {... */\n    tag_258:\n        /* \"@openzeppelin/contracts-upgradeable/access/OwnableUpgradeable.sol\":1513:1519  _owner */\n      and(sub(shl(0xa0, 0x01), 0x01), sload(0x33))\n        /* \"@openzeppelin/contracts-upgradeable/utils/ContextUpgradeable.sol\":929:939  msg.sender */\n      caller\n        /* \"@openzeppelin/contracts-upgradeable/access/OwnableUpgradeable.sol\":1662:1685  owner() == _msgSender() */\n      eq\n        /* \"@openzeppelin/contracts-upgradeable/access/OwnableUpgradeable.sol\":1654:1722  require(owner() == _msgSender(), \"Ownable: caller is not the owner\") */\n      tag_413\n      jumpi\n      mload(0x40)\n      shl(0xe5, 0x461bcd)\n      dup2\n      mstore\n        /* \"#utility.yul\":14210:14212   */\n      0x20\n        /* \"@openzeppelin/contracts-upgradeable/access/OwnableUpgradeable.sol\":1654:1722  require(owner() == _msgSender(), \"Ownable: caller is not the owner\") */\n      0x04\n      dup3\n      add\n        /* \"#utility.yul\":14192:14213   */\n      dup2\n      swap1\n      mstore\n        /* \"#utility.yul\":14229:14247   */\n      0x24\n      dup3\n      add\n        /* \"#utility.yul\":14222:14252   */\n      mstore\n        /* \"#utility.yul\":14288:14322   */\n      0x4f776e61626c653a2063616c6c6572206973206e6f7420746865206f776e6572\n        /* \"#utility.yul\":14268:14286   */\n      0x44\n      dup3\n      add\n        /* \"#utility.yul\":14261:14323   */\n      mstore\n        /* \"#utility.yul\":14340:14358   */\n      0x64\n      add\n        /* \"@openzeppelin/contracts-upgradeable/access/OwnableUpgradeable.sol\":1654:1722  require(owner() == _msgSender(), \"Ownable: caller is not the owner\") */\n      tag_264\n        /* \"#utility.yul\":14008:14364   */\n      jump\n        /* \"@openzeppelin/contracts-upgradeable/security/PausableUpgradeable.sol\":2010:2116  function _requireNotPaused() internal view virtual {... */\n    tag_268:\n        /* \"@openzeppelin/contracts-upgradeable/security/PausableUpgradeable.sol\":1928:1935  _paused */\n      and(0xff, sload(0x65))\n        /* \"@openzeppelin/contracts-upgradeable/security/PausableUpgradeable.sol\":2079:2088  !paused() */\n      iszero\n        /* \"@openzeppelin/contracts-upgradeable/security/PausableUpgradeable.sol\":2071:2109  require(!paused(), \"Pausable: paused\") */\n      tag_413\n      jumpi\n      mload(0x40)\n      shl(0xe5, 0x461bcd)\n      dup2\n      mstore\n        /* \"#utility.yul\":14571:14573   */\n      0x20\n        /* \"@openzeppelin/contracts-upgradeable/security/PausableUpgradeable.sol\":2071:2109  require(!paused(), \"Pausable: paused\") */\n      0x04\n      dup3\n      add\n        /* \"#utility.yul\":14553:14574   */\n      mstore\n        /* \"#utility.yul\":14610:14612   */\n      0x10\n        /* \"#utility.yul\":14590:14608   */\n      0x24\n      dup3\n      add\n        /* \"#utility.yul\":14583:14613   */\n      mstore\n      shl(0x82, 0x14185d5cd8589b194e881c185d5cd959)\n        /* \"#utility.yul\":14629:14647   */\n      0x44\n      dup3\n      add\n        /* \"#utility.yul\":14622:14668   */\n      mstore\n        /* \"#utility.yul\":14685:14703   */\n      0x64\n      add\n        /* \"@openzeppelin/contracts-upgradeable/security/PausableUpgradeable.sol\":2071:2109  require(!paused(), \"Pausable: paused\") */\n      tag_264\n        /* \"#utility.yul\":14369:14709   */\n      jump\n        /* \"Heliocontracts/contracts/masterVault/MasterVault.sol\":17806:18059  function _assessFee(uint256 amount, uint256 fees) private pure returns(uint256 value) {... */\n    tag_289:\n        /* \"Heliocontracts/contracts/masterVault/MasterVault.sol\":17877:17890  uint256 value */\n      0x00\n        /* \"Heliocontracts/contracts/masterVault/MasterVault.sol\":17905:17913  fees > 0 */\n      dup2\n      iszero\n        /* \"Heliocontracts/contracts/masterVault/MasterVault.sol\":17902:18053  if(fees > 0) {... */\n      tag_651\n      jumpi\n        /* \"Heliocontracts/contracts/masterVault/MasterVault.sol\":17929:17940  uint256 fee */\n      0x00\n        /* \"Heliocontracts/contracts/masterVault/MasterVault.sol\":17961:17964  1e6 */\n      0x0f4240\n        /* \"Heliocontracts/contracts/masterVault/MasterVault.sol\":17944:17957  amount * fees */\n      tag_652\n        /* \"Heliocontracts/contracts/masterVault/MasterVault.sol\":17953:17957  fees */\n      dup5\n        /* \"Heliocontracts/contracts/masterVault/MasterVault.sol\":17944:17950  amount */\n      dup7\n        /* \"Heliocontracts/contracts/masterVault/MasterVault.sol\":17944:17957  amount * fees */\n      tag_468\n      jump\t// in\n    tag_652:\n        /* \"Heliocontracts/contracts/masterVault/MasterVault.sol\":17943:17964  (amount * fees) / 1e6 */\n      tag_653\n      swap2\n      swap1\n      tag_470\n      jump\t// in\n    tag_653:\n        /* \"Heliocontracts/contracts/masterVault/MasterVault.sol\":17929:17964  uint256 fee = (amount * fees) / 1e6 */\n      swap1\n      pop\n        /* \"Heliocontracts/contracts/masterVault/MasterVault.sol\":17986:17998  amount - fee */\n      tag_654\n        /* \"Heliocontracts/contracts/masterVault/MasterVault.sol\":17929:17964  uint256 fee = (amount * fees) / 1e6 */\n      dup2\n        /* \"Heliocontracts/contracts/masterVault/MasterVault.sol\":17986:17992  amount */\n      dup6\n        /* \"Heliocontracts/contracts/masterVault/MasterVault.sol\":17986:17998  amount - fee */\n      tag_292\n      jump\t// in\n    tag_654:\n        /* \"Heliocontracts/contracts/masterVault/MasterVault.sol\":17978:17998  value = amount - fee */\n      swap2\n      pop\n        /* \"Heliocontracts/contracts/masterVault/MasterVault.sol\":17915:18009  {... */\n      pop\n        /* \"Heliocontracts/contracts/masterVault/MasterVault.sol\":17902:18053  if(fees > 0) {... */\n      jump(tag_401)\n    tag_651:\n      pop\n        /* \"Heliocontracts/contracts/masterVault/MasterVault.sol\":18036:18042  amount */\n      dup2\n        /* \"Heliocontracts/contracts/masterVault/MasterVault.sol\":18029:18042  return amount */\n      jump(tag_401)\n        /* \"Heliocontracts/contracts/masterVault/MasterVault.sol\":10569:10937  function _withdrawInTokenFromStrategy(address strategy, address recipient, uint256 amount) private returns(uint256) {... */\n    tag_293:\n        /* \"Heliocontracts/contracts/masterVault/MasterVault.sol\":10676:10683  uint256 */\n      0x00\n        /* \"Heliocontracts/contracts/masterVault/MasterVault.sol\":10695:10708  uint256 value */\n      dup1\n        /* \"Heliocontracts/contracts/masterVault/MasterVault.sol\":10725:10733  strategy */\n      dup5\n      sub(shl(0xa0, 0x01), 0x01)\n        /* \"Heliocontracts/contracts/masterVault/MasterVault.sol\":10711:10750  IBaseStrategy(strategy).withdrawInToken */\n      and\n      0xbe19b9c5\n        /* \"Heliocontracts/contracts/masterVault/MasterVault.sol\":10751:10760  recipient */\n      dup6\n        /* \"Heliocontracts/contracts/masterVault/MasterVault.sol\":10762:10768  amount */\n      dup6\n        /* \"Heliocontracts/contracts/masterVault/MasterVault.sol\":10711:10769  IBaseStrategy(strategy).withdrawInToken(recipient, amount) */\n      mload(0x40)\n      dup4\n      0xffffffff\n      and\n      0xe0\n      shl\n      dup2\n      mstore\n      0x04\n      add\n      tag_657\n      swap3\n      swap2\n      swap1\n      tag_283\n      jump\t// in\n    tag_657:\n      0x20\n      mload(0x40)\n      dup1\n      dup4\n      sub\n      dup2\n      0x00\n      dup8\n      gas\n      call\n      iszero\n      dup1\n      iszero\n      tag_659\n      jumpi\n      returndatasize\n      0x00\n      dup1\n      returndatacopy\n      revert(0x00, returndatasize)\n    tag_659:\n      pop\n      pop\n      pop\n      pop\n      mload(0x40)\n      returndatasize\n      not(0x1f)\n      0x1f\n      dup3\n      add\n      and\n      dup3\n      add\n      dup1\n      0x40\n      mstore\n      pop\n      dup2\n      add\n      swap1\n      tag_660\n      swap2\n      swap1\n      tag_402\n      jump\t// in\n    tag_660:\n        /* \"Heliocontracts/contracts/masterVault/MasterVault.sol\":10695:10769  uint256 value = IBaseStrategy(strategy).withdrawInToken(recipient, amount) */\n      swap1\n      pop\n        /* \"Heliocontracts/contracts/masterVault/MasterVault.sol\":10792:10798  amount */\n      dup3\n        /* \"Heliocontracts/contracts/masterVault/MasterVault.sol\":10779:10788  totalDebt */\n      0xd1\n      0x00\n        /* \"Heliocontracts/contracts/masterVault/MasterVault.sol\":10779:10798  totalDebt -= amount */\n      dup3\n      dup3\n      sload\n      tag_661\n      swap2\n      swap1\n      tag_292\n      jump\t// in\n    tag_661:\n      swap1\n      swap2\n      sstore\n      pop\n      pop\n      sub(shl(0xa0, 0x01), 0x01)\n        /* \"Heliocontracts/contracts/masterVault/MasterVault.sol\":10808:10832  strategyParams[strategy] */\n      dup6\n      and\n      0x00\n      swap1\n      dup2\n      mstore\n        /* \"Heliocontracts/contracts/masterVault/MasterVault.sol\":10808:10822  strategyParams */\n      0xc9\n        /* \"Heliocontracts/contracts/masterVault/MasterVault.sol\":10808:10832  strategyParams[strategy] */\n      0x20\n      mstore\n      0x40\n      dup2\n      keccak256\n        /* \"Heliocontracts/contracts/masterVault/MasterVault.sol\":10808:10837  strategyParams[strategy].debt */\n      0x02\n      add\n        /* \"Heliocontracts/contracts/masterVault/MasterVault.sol\":10808:10847  strategyParams[strategy].debt -= amount */\n      dup1\n      sload\n        /* \"Heliocontracts/contracts/masterVault/MasterVault.sol\":10841:10847  amount */\n      dup6\n      swap3\n        /* \"Heliocontracts/contracts/masterVault/MasterVault.sol\":10808:10832  strategyParams[strategy] */\n      swap1\n        /* \"Heliocontracts/contracts/masterVault/MasterVault.sol\":10808:10847  strategyParams[strategy].debt -= amount */\n      tag_662\n      swap1\n        /* \"Heliocontracts/contracts/masterVault/MasterVault.sol\":10841:10847  amount */\n      dup5\n      swap1\n        /* \"Heliocontracts/contracts/masterVault/MasterVault.sol\":10808:10847  strategyParams[strategy].debt -= amount */\n      tag_292\n      jump\t// in\n    tag_662:\n      swap1\n      swap2\n      sstore\n      pop\n      pop\n        /* \"Heliocontracts/contracts/masterVault/MasterVault.sol\":10862:10908  WithdrawnInTokenFromStrategy(strategy, amount) */\n      mload(0x40)\n      0xf40c4f28536139446cdedffe635e5fc0de1986a5ae5f1636ab5f6b44c23468ab\n      swap1\n      tag_663\n      swap1\n        /* \"Heliocontracts/contracts/masterVault/MasterVault.sol\":10891:10899  strategy */\n      dup8\n      swap1\n        /* \"Heliocontracts/contracts/masterVault/MasterVault.sol\":10901:10907  amount */\n      dup7\n      swap1\n        /* \"Heliocontracts/contracts/masterVault/MasterVault.sol\":10862:10908  WithdrawnInTokenFromStrategy(strategy, amount) */\n      tag_283\n      jump\t// in\n    tag_663:\n      mload(0x40)\n      dup1\n      swap2\n      sub\n      swap1\n      log1\n        /* \"Heliocontracts/contracts/masterVault/MasterVault.sol\":10925:10930  value */\n      swap5\n        /* \"Heliocontracts/contracts/masterVault/MasterVault.sol\":10569:10937  function _withdrawInTokenFromStrategy(address strategy, address recipient, uint256 amount) private returns(uint256) {... */\n      swap4\n      pop\n      pop\n      pop\n      pop\n      jump\t// out\n        /* \"Heliocontracts/contracts/masterVault/MasterVault.sol\":5340:6078  function withdrawFromActiveStrategies(address recipient, uint256 amount) private returns(uint256 withdrawn) {... */\n    tag_367:\n        /* \"Heliocontracts/contracts/masterVault/MasterVault.sol\":5429:5446  uint256 withdrawn */\n      0x00\n      dup1\n        /* \"Heliocontracts/contracts/masterVault/MasterVault.sol\":5458:6046  for(uint8 i = 0; i < strategies.length; i++) {... */\n    tag_665:\n        /* \"Heliocontracts/contracts/masterVault/MasterVault.sol\":5479:5489  strategies */\n      0xd2\n        /* \"Heliocontracts/contracts/masterVault/MasterVault.sol\":5479:5496  strategies.length */\n      sload\n        /* \"Heliocontracts/contracts/masterVault/MasterVault.sol\":5475:5496  i < strategies.length */\n      0xff\n      dup3\n      and\n      lt\n        /* \"Heliocontracts/contracts/masterVault/MasterVault.sol\":5458:6046  for(uint8 i = 0; i < strategies.length; i++) {... */\n      iszero\n      tag_666\n      jumpi\n        /* \"Heliocontracts/contracts/masterVault/MasterVault.sol\":5521:5535  strategyParams */\n      0xc9\n        /* \"Heliocontracts/contracts/masterVault/MasterVault.sol\":5521:5550  strategyParams[strategies[i]] */\n      0x00\n        /* \"Heliocontracts/contracts/masterVault/MasterVault.sol\":5536:5546  strategies */\n      0xd2\n        /* \"Heliocontracts/contracts/masterVault/MasterVault.sol\":5547:5548  i */\n      dup4\n        /* \"Heliocontracts/contracts/masterVault/MasterVault.sol\":5536:5549  strategies[i] */\n      0xff\n      and\n      dup2\n      sload\n      dup2\n      lt\n      tag_669\n      jumpi\n      tag_669\n      tag_315\n      jump\t// in\n    tag_669:\n      0x00\n      swap2\n      dup3\n      mstore\n      0x20\n      dup1\n      dup4\n      keccak256\n      swap1\n      swap2\n      add\n      sload\n      sub(shl(0xa0, 0x01), 0x01)\n      and\n        /* \"Heliocontracts/contracts/masterVault/MasterVault.sol\":5521:5550  strategyParams[strategies[i]] */\n      dup4\n      mstore\n      dup3\n      add\n      swap3\n      swap1\n      swap3\n      mstore\n      0x40\n      add\n      swap1\n      keccak256\n        /* \"Heliocontracts/contracts/masterVault/MasterVault.sol\":5521:5557  strategyParams[strategies[i]].active */\n      sload\n      0xff\n      and\n        /* \"Heliocontracts/contracts/masterVault/MasterVault.sol\":5521:5599  strategyParams[strategies[i]].active && strategyParams[strategies[i]].debt > 0 */\n      dup1\n      iszero\n      tag_671\n      jumpi\n      pop\n        /* \"Heliocontracts/contracts/masterVault/MasterVault.sol\":5598:5599  0 */\n      0x00\n        /* \"Heliocontracts/contracts/masterVault/MasterVault.sol\":5561:5575  strategyParams */\n      0xc9\n        /* \"Heliocontracts/contracts/masterVault/MasterVault.sol\":5561:5590  strategyParams[strategies[i]] */\n      0x00\n        /* \"Heliocontracts/contracts/masterVault/MasterVault.sol\":5576:5586  strategies */\n      0xd2\n        /* \"Heliocontracts/contracts/masterVault/MasterVault.sol\":5587:5588  i */\n      dup5\n        /* \"Heliocontracts/contracts/masterVault/MasterVault.sol\":5576:5589  strategies[i] */\n      0xff\n      and\n      dup2\n      sload\n      dup2\n      lt\n      tag_673\n      jumpi\n      tag_673\n      tag_315\n      jump\t// in\n    tag_673:\n      0x00\n      swap2\n      dup3\n      mstore\n      0x20\n      dup1\n      dup4\n      keccak256\n      swap1\n      swap2\n      add\n      sload\n      sub(shl(0xa0, 0x01), 0x01)\n      and\n        /* \"Heliocontracts/contracts/masterVault/MasterVault.sol\":5561:5590  strategyParams[strategies[i]] */\n      dup4\n      mstore\n      dup3\n      add\n      swap3\n      swap1\n      swap3\n      mstore\n      0x40\n      add\n      swap1\n      keccak256\n        /* \"Heliocontracts/contracts/masterVault/MasterVault.sol\":5561:5595  strategyParams[strategies[i]].debt */\n      0x02\n      add\n      sload\n        /* \"Heliocontracts/contracts/masterVault/MasterVault.sol\":5561:5599  strategyParams[strategies[i]].debt > 0 */\n      gt\n        /* \"Heliocontracts/contracts/masterVault/MasterVault.sol\":5521:5599  strategyParams[strategies[i]].active && strategyParams[strategies[i]].debt > 0 */\n    tag_671:\n        /* \"Heliocontracts/contracts/masterVault/MasterVault.sol\":5521:5621  strategyParams[strategies[i]].active && strategyParams[strategies[i]].debt > 0 && withdrawn < amount */\n      dup1\n      iszero\n      tag_675\n      jumpi\n      pop\n        /* \"Heliocontracts/contracts/masterVault/MasterVault.sol\":5615:5621  amount */\n      dup3\n        /* \"Heliocontracts/contracts/masterVault/MasterVault.sol\":5603:5612  withdrawn */\n      dup3\n        /* \"Heliocontracts/contracts/masterVault/MasterVault.sol\":5603:5621  withdrawn < amount */\n      lt\n        /* \"Heliocontracts/contracts/masterVault/MasterVault.sol\":5521:5621  strategyParams[strategies[i]].active && strategyParams[strategies[i]].debt > 0 && withdrawn < amount */\n    tag_675:\n        /* \"Heliocontracts/contracts/masterVault/MasterVault.sol\":5517:6036  if (strategyParams[strategies[i]].active && strategyParams[strategies[i]].debt > 0 && withdrawn < amount) {... */\n      iszero\n      tag_688\n      jumpi\n        /* \"Heliocontracts/contracts/masterVault/MasterVault.sol\":5683:5701  amount - withdrawn */\n      tag_677\n        /* \"Heliocontracts/contracts/masterVault/MasterVault.sol\":5692:5701  withdrawn */\n      dup3\n        /* \"Heliocontracts/contracts/masterVault/MasterVault.sol\":5683:5689  amount */\n      dup5\n        /* \"Heliocontracts/contracts/masterVault/MasterVault.sol\":5683:5701  amount - withdrawn */\n      tag_292\n      jump\t// in\n    tag_677:\n        /* \"Heliocontracts/contracts/masterVault/MasterVault.sol\":5645:5659  strategyParams */\n      0xc9\n        /* \"Heliocontracts/contracts/masterVault/MasterVault.sol\":5645:5674  strategyParams[strategies[i]] */\n      0x00\n        /* \"Heliocontracts/contracts/masterVault/MasterVault.sol\":5660:5670  strategies */\n      0xd2\n        /* \"Heliocontracts/contracts/masterVault/MasterVault.sol\":5671:5672  i */\n      dup5\n        /* \"Heliocontracts/contracts/masterVault/MasterVault.sol\":5660:5673  strategies[i] */\n      0xff\n      and\n      dup2\n      sload\n      dup2\n      lt\n      tag_679\n      jumpi\n      tag_679\n      tag_315\n      jump\t// in\n    tag_679:\n      0x00\n      swap2\n      dup3\n      mstore\n      0x20\n      dup1\n      dup4\n      keccak256\n      swap1\n      swap2\n      add\n      sload\n      sub(shl(0xa0, 0x01), 0x01)\n      and\n        /* \"Heliocontracts/contracts/masterVault/MasterVault.sol\":5645:5674  strategyParams[strategies[i]] */\n      dup4\n      mstore\n      dup3\n      add\n      swap3\n      swap1\n      swap3\n      mstore\n      0x40\n      add\n      swap1\n      keccak256\n        /* \"Heliocontracts/contracts/masterVault/MasterVault.sol\":5645:5679  strategyParams[strategies[i]].debt */\n      0x02\n      add\n      sload\n        /* \"Heliocontracts/contracts/masterVault/MasterVault.sol\":5645:5701  strategyParams[strategies[i]].debt >= amount - withdrawn */\n      lt\n        /* \"Heliocontracts/contracts/masterVault/MasterVault.sol\":5641:6022  if (strategyParams[strategies[i]].debt >= amount - withdrawn) {... */\n      tag_681\n      jumpi\n        /* \"Heliocontracts/contracts/masterVault/MasterVault.sol\":5738:5805  _withdrawFromStrategy(strategies[i], recipient, amount - withdrawn) */\n      tag_682\n        /* \"Heliocontracts/contracts/masterVault/MasterVault.sol\":5760:5770  strategies */\n      0xd2\n        /* \"Heliocontracts/contracts/masterVault/MasterVault.sol\":5771:5772  i */\n      dup3\n        /* \"Heliocontracts/contracts/masterVault/MasterVault.sol\":5760:5773  strategies[i] */\n      0xff\n      and\n      dup2\n      sload\n      dup2\n      lt\n      tag_684\n      jumpi\n      tag_684\n      tag_315\n      jump\t// in\n    tag_684:\n      0x00\n      swap2\n      dup3\n      mstore\n      0x20\n      swap1\n      swap2\n      keccak256\n      add\n      sload\n      sub(shl(0xa0, 0x01), 0x01)\n      and\n        /* \"Heliocontracts/contracts/masterVault/MasterVault.sol\":5775:5784  recipient */\n      dup6\n        /* \"Heliocontracts/contracts/masterVault/MasterVault.sol\":5786:5804  amount - withdrawn */\n      tag_686\n        /* \"Heliocontracts/contracts/masterVault/MasterVault.sol\":5795:5804  withdrawn */\n      dup6\n        /* \"Heliocontracts/contracts/masterVault/MasterVault.sol\":5786:5792  amount */\n      dup8\n        /* \"Heliocontracts/contracts/masterVault/MasterVault.sol\":5786:5804  amount - withdrawn */\n      tag_292\n      jump\t// in\n    tag_686:\n        /* \"Heliocontracts/contracts/masterVault/MasterVault.sol\":5738:5759  _withdrawFromStrategy */\n      tag_408\n        /* \"Heliocontracts/contracts/masterVault/MasterVault.sol\":5738:5805  _withdrawFromStrategy(strategies[i], recipient, amount - withdrawn) */\n      jump\t// in\n    tag_682:\n        /* \"Heliocontracts/contracts/masterVault/MasterVault.sol\":5725:5805  withdrawn += _withdrawFromStrategy(strategies[i], recipient, amount - withdrawn) */\n      tag_654\n      swap1\n      dup4\n      tag_328\n      jump\t// in\n        /* \"Heliocontracts/contracts/masterVault/MasterVault.sol\":5641:6022  if (strategyParams[strategies[i]].debt >= amount - withdrawn) {... */\n    tag_681:\n        /* \"Heliocontracts/contracts/masterVault/MasterVault.sol\":5920:6003  _withdrawFromStrategy(strategies[i], recipient, strategyParams[strategies[i]].debt) */\n      tag_689\n        /* \"Heliocontracts/contracts/masterVault/MasterVault.sol\":5942:5952  strategies */\n      0xd2\n        /* \"Heliocontracts/contracts/masterVault/MasterVault.sol\":5953:5954  i */\n      dup3\n        /* \"Heliocontracts/contracts/masterVault/MasterVault.sol\":5942:5955  strategies[i] */\n      0xff\n      and\n      dup2\n      sload\n      dup2\n      lt\n      tag_691\n      jumpi\n      tag_691\n      tag_315\n      jump\t// in\n    tag_691:\n      swap1\n      0x00\n      mstore\n      keccak256(0x00, 0x20)\n      add\n      0x00\n      swap1\n      sload\n      swap1\n      0x0100\n      exp\n      swap1\n      div\n      sub(shl(0xa0, 0x01), 0x01)\n      and\n        /* \"Heliocontracts/contracts/masterVault/MasterVault.sol\":5957:5966  recipient */\n      dup6\n        /* \"Heliocontracts/contracts/masterVault/MasterVault.sol\":5968:5982  strategyParams */\n      0xc9\n        /* \"Heliocontracts/contracts/masterVault/MasterVault.sol\":5968:5997  strategyParams[strategies[i]] */\n      0x00\n        /* \"Heliocontracts/contracts/masterVault/MasterVault.sol\":5983:5993  strategies */\n      0xd2\n        /* \"Heliocontracts/contracts/masterVault/MasterVault.sol\":5994:5995  i */\n      dup7\n        /* \"Heliocontracts/contracts/masterVault/MasterVault.sol\":5983:5996  strategies[i] */\n      0xff\n      and\n      dup2\n      sload\n      dup2\n      lt\n      tag_694\n      jumpi\n      tag_694\n      tag_315\n      jump\t// in\n    tag_694:\n      0x00\n      swap2\n      dup3\n      mstore\n      0x20\n      dup1\n      dup4\n      keccak256\n      swap1\n      swap2\n      add\n      sload\n      sub(shl(0xa0, 0x01), 0x01)\n      and\n        /* \"Heliocontracts/contracts/masterVault/MasterVault.sol\":5968:5997  strategyParams[strategies[i]] */\n      dup4\n      mstore\n      dup3\n      add\n      swap3\n      swap1\n      swap3\n      mstore\n      0x40\n      add\n      swap1\n      keccak256\n        /* \"Heliocontracts/contracts/masterVault/MasterVault.sol\":5968:6002  strategyParams[strategies[i]].debt */\n      0x02\n      add\n      sload\n        /* \"Heliocontracts/contracts/masterVault/MasterVault.sol\":5920:5941  _withdrawFromStrategy */\n      tag_408\n        /* \"Heliocontracts/contracts/masterVault/MasterVault.sol\":5920:6003  _withdrawFromStrategy(strategies[i], recipient, strategyParams[strategies[i]].debt) */\n      jump\t// in\n    tag_689:\n        /* \"Heliocontracts/contracts/masterVault/MasterVault.sol\":5907:6003  withdrawn += _withdrawFromStrategy(strategies[i], recipient, strategyParams[strategies[i]].debt) */\n      tag_696\n      swap1\n      dup4\n      tag_328\n      jump\t// in\n    tag_696:\n      swap2\n      pop\n        /* \"Heliocontracts/contracts/masterVault/MasterVault.sol\":5641:6022  if (strategyParams[strategies[i]].debt >= amount - withdrawn) {... */\n    tag_688:\n        /* \"Heliocontracts/contracts/masterVault/MasterVault.sol\":5498:5501  i++ */\n      dup1\n      tag_697\n      dup2\n      tag_482\n      jump\t// in\n    tag_697:\n      swap2\n      pop\n      pop\n        /* \"Heliocontracts/contracts/masterVault/MasterVault.sol\":5458:6046  for(uint8 i = 0; i < strategies.length; i++) {... */\n      jump(tag_665)\n    tag_666:\n      pop\n        /* \"Heliocontracts/contracts/masterVault/MasterVault.sol\":5340:6078  function withdrawFromActiveStrategies(address recipient, uint256 amount) private returns(uint256 withdrawn) {... */\n      swap3\n      swap2\n      pop\n      pop\n      jump\t// out\n        /* \"Heliocontracts/contracts/masterVault/MasterVault.sol\":6257:6887  function _depositToStrategy(address strategy, uint256 amount) private returns (bool success){... */\n    tag_396:\n        /* \"Heliocontracts/contracts/masterVault/MasterVault.sol\":6336:6348  bool success */\n      0x00\n        /* \"Heliocontracts/contracts/masterVault/MasterVault.sol\":6376:6377  0 */\n      dup1\n        /* \"Heliocontracts/contracts/masterVault/MasterVault.sol\":6367:6373  amount */\n      dup3\n        /* \"Heliocontracts/contracts/masterVault/MasterVault.sol\":6367:6377  amount > 0 */\n      gt\n        /* \"Heliocontracts/contracts/masterVault/MasterVault.sol\":6359:6404  require(amount > 0, \"invalid deposit amount\") */\n      tag_699\n      jumpi\n      mload(0x40)\n      shl(0xe5, 0x461bcd)\n      dup2\n      mstore\n        /* \"#utility.yul\":14916:14918   */\n      0x20\n        /* \"Heliocontracts/contracts/masterVault/MasterVault.sol\":6359:6404  require(amount > 0, \"invalid deposit amount\") */\n      0x04\n      dup3\n      add\n        /* \"#utility.yul\":14898:14919   */\n      mstore\n        /* \"#utility.yul\":14955:14957   */\n      0x16\n        /* \"#utility.yul\":14935:14953   */\n      0x24\n      dup3\n      add\n        /* \"#utility.yul\":14928:14958   */\n      mstore\n      shl(0x52, 0x1a5b9d985b1a590819195c1bdcda5d08185b5bdd5b9d)\n        /* \"#utility.yul\":14974:14992   */\n      0x44\n      dup3\n      add\n        /* \"#utility.yul\":14967:15019   */\n      mstore\n        /* \"#utility.yul\":15036:15054   */\n      0x64\n      add\n        /* \"Heliocontracts/contracts/masterVault/MasterVault.sol\":6359:6404  require(amount > 0, \"invalid deposit amount\") */\n      tag_264\n        /* \"#utility.yul\":14714:15060   */\n      jump\n        /* \"Heliocontracts/contracts/masterVault/MasterVault.sol\":6359:6404  require(amount > 0, \"invalid deposit amount\") */\n    tag_699:\n        /* \"Heliocontracts/contracts/masterVault/MasterVault.sol\":6445:6451  amount */\n      dup2\n        /* \"Heliocontracts/contracts/masterVault/MasterVault.sol\":6422:6441  totalAssetInVault() */\n      tag_702\n        /* \"Heliocontracts/contracts/masterVault/MasterVault.sol\":6422:6439  totalAssetInVault */\n      tag_200\n        /* \"Heliocontracts/contracts/masterVault/MasterVault.sol\":6422:6441  totalAssetInVault() */\n      jump\t// in\n    tag_702:\n        /* \"Heliocontracts/contracts/masterVault/MasterVault.sol\":6422:6451  totalAssetInVault() >= amount */\n      lt\n      iszero\n        /* \"Heliocontracts/contracts/masterVault/MasterVault.sol\":6414:6476  require(totalAssetInVault() >= amount, \"insufficient balance\") */\n      tag_703\n      jumpi\n      mload(0x40)\n      shl(0xe5, 0x461bcd)\n      dup2\n      mstore\n        /* \"#utility.yul\":15267:15269   */\n      0x20\n        /* \"Heliocontracts/contracts/masterVault/MasterVault.sol\":6414:6476  require(totalAssetInVault() >= amount, \"insufficient balance\") */\n      0x04\n      dup3\n      add\n        /* \"#utility.yul\":15249:15270   */\n      mstore\n        /* \"#utility.yul\":15306:15308   */\n      0x14\n        /* \"#utility.yul\":15286:15304   */\n      0x24\n      dup3\n      add\n        /* \"#utility.yul\":15279:15309   */\n      mstore\n      shl(0x60, 0x696e73756666696369656e742062616c616e6365)\n        /* \"#utility.yul\":15325:15343   */\n      0x44\n      dup3\n      add\n        /* \"#utility.yul\":15318:15368   */\n      mstore\n        /* \"#utility.yul\":15385:15403   */\n      0x64\n      add\n        /* \"Heliocontracts/contracts/masterVault/MasterVault.sol\":6414:6476  require(totalAssetInVault() >= amount, \"insufficient balance\") */\n      tag_264\n        /* \"#utility.yul\":15065:15409   */\n      jump\n        /* \"Heliocontracts/contracts/masterVault/MasterVault.sol\":6414:6476  require(totalAssetInVault() >= amount, \"insufficient balance\") */\n    tag_703:\n      sub(shl(0xa0, 0x01), 0x01)\n        /* \"Heliocontracts/contracts/masterVault/MasterVault.sol\":6490:6514  strategyParams[strategy] */\n      dup4\n      and\n      0x00\n      swap1\n      dup2\n      mstore\n        /* \"Heliocontracts/contracts/masterVault/MasterVault.sol\":6490:6504  strategyParams */\n      0xc9\n        /* \"Heliocontracts/contracts/masterVault/MasterVault.sol\":6490:6514  strategyParams[strategy] */\n      0x20\n      mstore\n      0x40\n      swap1\n      keccak256\n        /* \"Heliocontracts/contracts/masterVault/MasterVault.sol\":6490:6521  strategyParams[strategy].active */\n      sload\n      0xff\n      and\n        /* \"Heliocontracts/contracts/masterVault/MasterVault.sol\":6490:6567  strategyParams[strategy].active && IBaseStrategy(strategy).canDeposit(amount) */\n      dup1\n      iszero\n      tag_710\n      jumpi\n      pop\n        /* \"Heliocontracts/contracts/masterVault/MasterVault.sol\":6525:6567  IBaseStrategy(strategy).canDeposit(amount) */\n      mload(0x40)\n      shl(0xe1, 0x1ca21dc7)\n      dup2\n      mstore\n      0x04\n      dup2\n      add\n        /* \"#utility.yul\":160:185   */\n      dup4\n      swap1\n      mstore\n      sub(shl(0xa0, 0x01), 0x01)\n        /* \"Heliocontracts/contracts/masterVault/MasterVault.sol\":6525:6559  IBaseStrategy(strategy).canDeposit */\n      dup5\n      and\n      swap1\n      0x39443b8e\n      swap1\n        /* \"#utility.yul\":133:151   */\n      0x24\n      add\n        /* \"Heliocontracts/contracts/masterVault/MasterVault.sol\":6525:6567  IBaseStrategy(strategy).canDeposit(amount) */\n      0x20\n      mload(0x40)\n      dup1\n      dup4\n      sub\n      dup2\n      dup7\n      gas\n      staticcall\n      iszero\n      dup1\n      iszero\n      tag_709\n      jumpi\n      returndatasize\n      0x00\n      dup1\n      returndatacopy\n      revert(0x00, returndatasize)\n    tag_709:\n      pop\n      pop\n      pop\n      pop\n      mload(0x40)\n      returndatasize\n      not(0x1f)\n      0x1f\n      dup3\n      add\n      and\n      dup3\n      add\n      dup1\n      0x40\n      mstore\n      pop\n      dup2\n      add\n      swap1\n      tag_710\n      swap2\n      swap1\n      tag_711\n      jump\t// in\n    tag_710:\n        /* \"Heliocontracts/contracts/masterVault/MasterVault.sol\":6486:6881  if (strategyParams[strategy].active && IBaseStrategy(strategy).canDeposit(amount)) {... */\n      iszero\n      tag_401\n      jumpi\n        /* \"Heliocontracts/contracts/masterVault/MasterVault.sol\":6583:6596  uint256 value */\n      0x00\n        /* \"Heliocontracts/contracts/masterVault/MasterVault.sol\":6613:6621  strategy */\n      dup4\n      sub(shl(0xa0, 0x01), 0x01)\n        /* \"Heliocontracts/contracts/masterVault/MasterVault.sol\":6599:6630  IBaseStrategy(strategy).deposit */\n      and\n      0xd0e30db0\n        /* \"Heliocontracts/contracts/masterVault/MasterVault.sol\":6638:6644  amount */\n      dup5\n        /* \"Heliocontracts/contracts/masterVault/MasterVault.sol\":6599:6647  IBaseStrategy(strategy).deposit{value: amount}() */\n      mload(0x40)\n      dup3\n      0xffffffff\n      and\n      0xe0\n      shl\n      dup2\n      mstore\n      0x04\n      add\n      0x20\n      mload(0x40)\n      dup1\n      dup4\n      sub\n      dup2\n      dup6\n      dup9\n      gas\n      call\n      iszero\n      dup1\n      iszero\n      tag_714\n      jumpi\n      returndatasize\n      0x00\n      dup1\n      returndatacopy\n      revert(0x00, returndatasize)\n    tag_714:\n      pop\n      pop\n      pop\n      pop\n      pop\n      mload(0x40)\n      returndatasize\n      not(0x1f)\n      0x1f\n      dup3\n      add\n      and\n      dup3\n      add\n      dup1\n      0x40\n      mstore\n      pop\n      dup2\n      add\n      swap1\n      tag_715\n      swap2\n      swap1\n      tag_402\n      jump\t// in\n    tag_715:\n        /* \"Heliocontracts/contracts/masterVault/MasterVault.sol\":6583:6647  uint256 value = IBaseStrategy(strategy).deposit{value: amount}() */\n      swap1\n      pop\n        /* \"Heliocontracts/contracts/masterVault/MasterVault.sol\":6664:6673  value > 0 */\n      dup1\n      iszero\n        /* \"Heliocontracts/contracts/masterVault/MasterVault.sol\":6661:6871  if(value > 0) {... */\n      tag_666\n      jumpi\n        /* \"Heliocontracts/contracts/masterVault/MasterVault.sol\":6706:6711  value */\n      dup1\n        /* \"Heliocontracts/contracts/masterVault/MasterVault.sol\":6693:6702  totalDebt */\n      0xd1\n      0x00\n        /* \"Heliocontracts/contracts/masterVault/MasterVault.sol\":6693:6711  totalDebt += value */\n      dup3\n      dup3\n      sload\n      tag_717\n      swap2\n      swap1\n      tag_328\n      jump\t// in\n    tag_717:\n      swap1\n      swap2\n      sstore\n      pop\n      pop\n      sub(shl(0xa0, 0x01), 0x01)\n        /* \"Heliocontracts/contracts/masterVault/MasterVault.sol\":6729:6753  strategyParams[strategy] */\n      dup5\n      and\n      0x00\n      swap1\n      dup2\n      mstore\n        /* \"Heliocontracts/contracts/masterVault/MasterVault.sol\":6729:6743  strategyParams */\n      0xc9\n        /* \"Heliocontracts/contracts/masterVault/MasterVault.sol\":6729:6753  strategyParams[strategy] */\n      0x20\n      mstore\n      0x40\n      dup2\n      keccak256\n        /* \"Heliocontracts/contracts/masterVault/MasterVault.sol\":6729:6758  strategyParams[strategy].debt */\n      0x02\n      add\n        /* \"Heliocontracts/contracts/masterVault/MasterVault.sol\":6729:6767  strategyParams[strategy].debt += value */\n      dup1\n      sload\n        /* \"Heliocontracts/contracts/masterVault/MasterVault.sol\":6762:6767  value */\n      dup4\n      swap3\n        /* \"Heliocontracts/contracts/masterVault/MasterVault.sol\":6729:6753  strategyParams[strategy] */\n      swap1\n        /* \"Heliocontracts/contracts/masterVault/MasterVault.sol\":6729:6767  strategyParams[strategy].debt += value */\n      tag_718\n      swap1\n        /* \"Heliocontracts/contracts/masterVault/MasterVault.sol\":6762:6767  value */\n      dup5\n      swap1\n        /* \"Heliocontracts/contracts/masterVault/MasterVault.sol\":6729:6767  strategyParams[strategy].debt += value */\n      tag_328\n      jump\t// in\n    tag_718:\n      swap1\n      swap2\n      sstore\n      pop\n      pop\n        /* \"Heliocontracts/contracts/masterVault/MasterVault.sol\":6790:6827  DepositedToStrategy(strategy, amount) */\n      mload(0x40)\n      0xf47c2ba90b71ef36b592a780f1d750d3a480494fdc7c9b84bb3f9d8de8a1b40a\n      swap1\n      tag_719\n      swap1\n        /* \"Heliocontracts/contracts/masterVault/MasterVault.sol\":6810:6818  strategy */\n      dup7\n      swap1\n        /* \"Heliocontracts/contracts/masterVault/MasterVault.sol\":6820:6826  amount */\n      dup7\n      swap1\n        /* \"Heliocontracts/contracts/masterVault/MasterVault.sol\":6790:6827  DepositedToStrategy(strategy, amount) */\n      tag_283\n      jump\t// in\n    tag_719:\n      mload(0x40)\n      dup1\n      swap2\n      sub\n      swap1\n      log1\n        /* \"Heliocontracts/contracts/masterVault/MasterVault.sol\":6852:6856  true */\n      0x01\n        /* \"Heliocontracts/contracts/masterVault/MasterVault.sol\":6845:6856  return true */\n      swap2\n      pop\n      pop\n      jump(tag_401)\n        /* \"Heliocontracts/contracts/masterVault/MasterVault.sol\":8726:9320  function _withdrawFromStrategy(address strategy, address recipient, uint256 amount) private returns(uint256) {... */\n    tag_408:\n        /* \"Heliocontracts/contracts/masterVault/MasterVault.sol\":8826:8833  uint256 */\n      0x00\n        /* \"Heliocontracts/contracts/masterVault/MasterVault.sol\":8862:8863  0 */\n      dup1\n        /* \"Heliocontracts/contracts/masterVault/MasterVault.sol\":8853:8859  amount */\n      dup3\n        /* \"Heliocontracts/contracts/masterVault/MasterVault.sol\":8853:8863  amount > 0 */\n      gt\n        /* \"Heliocontracts/contracts/masterVault/MasterVault.sol\":8845:8893  require(amount > 0, \"invalid withdrawal amount\") */\n      tag_721\n      jumpi\n      mload(0x40)\n      shl(0xe5, 0x461bcd)\n      dup2\n      mstore\n        /* \"#utility.yul\":4461:4463   */\n      0x20\n        /* \"Heliocontracts/contracts/masterVault/MasterVault.sol\":8845:8893  require(amount > 0, \"invalid withdrawal amount\") */\n      0x04\n      dup3\n      add\n        /* \"#utility.yul\":4443:4464   */\n      mstore\n        /* \"#utility.yul\":4500:4502   */\n      0x19\n        /* \"#utility.yul\":4480:4498   */\n      0x24\n      dup3\n      add\n        /* \"#utility.yul\":4473:4503   */\n      mstore\n      shl(0x3a, 0x1a5b9d985b1a59081dda5d1a191c985dd85b08185b5bdd5b9d)\n        /* \"#utility.yul\":4519:4537   */\n      0x44\n      dup3\n      add\n        /* \"#utility.yul\":4512:4567   */\n      mstore\n        /* \"#utility.yul\":4584:4602   */\n      0x64\n      add\n        /* \"Heliocontracts/contracts/masterVault/MasterVault.sol\":8845:8893  require(amount > 0, \"invalid withdrawal amount\") */\n      tag_264\n        /* \"#utility.yul\":4259:4608   */\n      jump\n        /* \"Heliocontracts/contracts/masterVault/MasterVault.sol\":8845:8893  require(amount > 0, \"invalid withdrawal amount\") */\n    tag_721:\n      sub(shl(0xa0, 0x01), 0x01)\n        /* \"Heliocontracts/contracts/masterVault/MasterVault.sol\":8911:8935  strategyParams[strategy] */\n      dup5\n      and\n      0x00\n      swap1\n      dup2\n      mstore\n        /* \"Heliocontracts/contracts/masterVault/MasterVault.sol\":8911:8925  strategyParams */\n      0xc9\n        /* \"Heliocontracts/contracts/masterVault/MasterVault.sol\":8911:8935  strategyParams[strategy] */\n      0x20\n      mstore\n      0x40\n      swap1\n      keccak256\n        /* \"Heliocontracts/contracts/masterVault/MasterVault.sol\":8911:8940  strategyParams[strategy].debt */\n      0x02\n      add\n      sload\n        /* \"Heliocontracts/contracts/masterVault/MasterVault.sol\":8911:8950  strategyParams[strategy].debt >= amount */\n      dup3\n      gt\n      iszero\n        /* \"Heliocontracts/contracts/masterVault/MasterVault.sol\":8903:8986  require(strategyParams[strategy].debt >= amount, \"insufficient assets in strategy\") */\n      tag_723\n      jumpi\n      mload(0x40)\n      shl(0xe5, 0x461bcd)\n      dup2\n      mstore\n        /* \"#utility.yul\":4815:4817   */\n      0x20\n        /* \"Heliocontracts/contracts/masterVault/MasterVault.sol\":8903:8986  require(strategyParams[strategy].debt >= amount, \"insufficient assets in strategy\") */\n      0x04\n      dup3\n      add\n        /* \"#utility.yul\":4797:4818   */\n      mstore\n        /* \"#utility.yul\":4854:4856   */\n      0x1f\n        /* \"#utility.yul\":4834:4852   */\n      0x24\n      dup3\n      add\n        /* \"#utility.yul\":4827:4857   */\n      mstore\n        /* \"#utility.yul\":4893:4926   */\n      0x696e73756666696369656e742061737365747320696e20737472617465677900\n        /* \"#utility.yul\":4873:4891   */\n      0x44\n      dup3\n      add\n        /* \"#utility.yul\":4866:4927   */\n      mstore\n        /* \"#utility.yul\":4944:4962   */\n      0x64\n      add\n        /* \"Heliocontracts/contracts/masterVault/MasterVault.sol\":8903:8986  require(strategyParams[strategy].debt >= amount, \"insufficient assets in strategy\") */\n      tag_264\n        /* \"#utility.yul\":4613:4968   */\n      jump\n        /* \"Heliocontracts/contracts/masterVault/MasterVault.sol\":8903:8986  require(strategyParams[strategy].debt >= amount, \"insufficient assets in strategy\") */\n    tag_723:\n        /* \"Heliocontracts/contracts/masterVault/MasterVault.sol\":9012:9063  IBaseStrategy(strategy).withdraw(recipient, amount) */\n      mload(0x40)\n      shl(0xe0, 0xf3fef3a3)\n      dup2\n      mstore\n        /* \"Heliocontracts/contracts/masterVault/MasterVault.sol\":8996:9009  uint256 value */\n      0x00\n      swap1\n      sub(shl(0xa0, 0x01), 0x01)\n        /* \"Heliocontracts/contracts/masterVault/MasterVault.sol\":9012:9044  IBaseStrategy(strategy).withdraw */\n      dup7\n      and\n      swap1\n      0xf3fef3a3\n      swap1\n        /* \"Heliocontracts/contracts/masterVault/MasterVault.sol\":9012:9063  IBaseStrategy(strategy).withdraw(recipient, amount) */\n      tag_725\n      swap1\n        /* \"Heliocontracts/contracts/masterVault/MasterVault.sol\":9045:9054  recipient */\n      dup8\n      swap1\n        /* \"Heliocontracts/contracts/masterVault/MasterVault.sol\":9056:9062  amount */\n      dup8\n      swap1\n        /* \"Heliocontracts/contracts/masterVault/MasterVault.sol\":9012:9063  IBaseStrategy(strategy).withdraw(recipient, amount) */\n      0x04\n      add\n      tag_283\n      jump\t// in\n    tag_725:\n      0x20\n      mload(0x40)\n      dup1\n      dup4\n      sub\n      dup2\n      0x00\n      dup8\n      gas\n      call\n      iszero\n      dup1\n      iszero\n      tag_727\n      jumpi\n      returndatasize\n      0x00\n      dup1\n      returndatacopy\n      revert(0x00, returndatasize)\n    tag_727:\n      pop\n      pop\n      pop\n      pop\n      mload(0x40)\n      returndatasize\n      not(0x1f)\n      0x1f\n      dup3\n      add\n      and\n      dup3\n      add\n      dup1\n      0x40\n      mstore\n      pop\n      dup2\n      add\n      swap1\n      tag_728\n      swap2\n      swap1\n      tag_402\n      jump\t// in\n    tag_728:\n        /* \"Heliocontracts/contracts/masterVault/MasterVault.sol\":8996:9063  uint256 value = IBaseStrategy(strategy).withdraw(recipient, amount) */\n      swap1\n      pop\n        /* \"Heliocontracts/contracts/masterVault/MasterVault.sol\":9103:9109  amount */\n      dup3\n        /* \"Heliocontracts/contracts/masterVault/MasterVault.sol\":9094:9099  value */\n      dup2\n        /* \"Heliocontracts/contracts/masterVault/MasterVault.sol\":9094:9109  value <= amount */\n      gt\n      iszero\n        /* \"Heliocontracts/contracts/masterVault/MasterVault.sol\":9073:9159  require(... */\n      tag_729\n      jumpi\n      mload(0x40)\n      shl(0xe5, 0x461bcd)\n      dup2\n      mstore\n        /* \"#utility.yul\":8406:8408   */\n      0x20\n        /* \"Heliocontracts/contracts/masterVault/MasterVault.sol\":9073:9159  require(... */\n      0x04\n      dup3\n      add\n        /* \"#utility.yul\":8388:8409   */\n      mstore\n        /* \"#utility.yul\":8445:8447   */\n      0x18\n        /* \"#utility.yul\":8425:8443   */\n      0x24\n      dup3\n      add\n        /* \"#utility.yul\":8418:8448   */\n      mstore\n      shl(0x42, 0x1a5b9d985b1a59081dda5d1a191c985ddb88185b5bdd5b9d)\n        /* \"#utility.yul\":8464:8482   */\n      0x44\n      dup3\n      add\n        /* \"#utility.yul\":8457:8511   */\n      mstore\n        /* \"#utility.yul\":8528:8546   */\n      0x64\n      add\n        /* \"Heliocontracts/contracts/masterVault/MasterVault.sol\":9073:9159  require(... */\n      tag_264\n        /* \"#utility.yul\":8204:8552   */\n      jump\n        /* \"Heliocontracts/contracts/masterVault/MasterVault.sol\":9073:9159  require(... */\n    tag_729:\n        /* \"Heliocontracts/contracts/masterVault/MasterVault.sol\":9182:9188  amount */\n      dup3\n        /* \"Heliocontracts/contracts/masterVault/MasterVault.sol\":9169:9178  totalDebt */\n      0xd1\n      0x00\n        /* \"Heliocontracts/contracts/masterVault/MasterVault.sol\":9169:9188  totalDebt -= amount */\n      dup3\n      dup3\n      sload\n      tag_731\n      swap2\n      swap1\n      tag_292\n      jump\t// in\n    tag_731:\n      swap1\n      swap2\n      sstore\n      pop\n      pop\n      sub(shl(0xa0, 0x01), 0x01)\n        /* \"Heliocontracts/contracts/masterVault/MasterVault.sol\":9198:9222  strategyParams[strategy] */\n      dup6\n      and\n      0x00\n      swap1\n      dup2\n      mstore\n        /* \"Heliocontracts/contracts/masterVault/MasterVault.sol\":9198:9212  strategyParams */\n      0xc9\n        /* \"Heliocontracts/contracts/masterVault/MasterVault.sol\":9198:9222  strategyParams[strategy] */\n      0x20\n      mstore\n      0x40\n      dup2\n      keccak256\n        /* \"Heliocontracts/contracts/masterVault/MasterVault.sol\":9198:9227  strategyParams[strategy].debt */\n      0x02\n      add\n        /* \"Heliocontracts/contracts/masterVault/MasterVault.sol\":9198:9237  strategyParams[strategy].debt -= amount */\n      dup1\n      sload\n        /* \"Heliocontracts/contracts/masterVault/MasterVault.sol\":9231:9237  amount */\n      dup6\n      swap3\n        /* \"Heliocontracts/contracts/masterVault/MasterVault.sol\":9198:9222  strategyParams[strategy] */\n      swap1\n        /* \"Heliocontracts/contracts/masterVault/MasterVault.sol\":9198:9237  strategyParams[strategy].debt -= amount */\n      tag_732\n      swap1\n        /* \"Heliocontracts/contracts/masterVault/MasterVault.sol\":9231:9237  amount */\n      dup5\n      swap1\n        /* \"Heliocontracts/contracts/masterVault/MasterVault.sol\":9198:9237  strategyParams[strategy].debt -= amount */\n      tag_292\n      jump\t// in\n    tag_732:\n      swap1\n      swap2\n      sstore\n      pop\n      pop\n        /* \"Heliocontracts/contracts/masterVault/MasterVault.sol\":9252:9291  WithdrawnFromStrategy(strategy, amount) */\n      mload(0x40)\n      0xd442d8f1594fc5996caed833eb6135a4c223a05bdbed778c0d8415a52eb87fea\n      swap1\n      tag_663\n      swap1\n        /* \"Heliocontracts/contracts/masterVault/MasterVault.sol\":9274:9282  strategy */\n      dup8\n      swap1\n        /* \"Heliocontracts/contracts/masterVault/MasterVault.sol\":9284:9290  amount */\n      dup7\n      swap1\n        /* \"Heliocontracts/contracts/masterVault/MasterVault.sol\":9252:9291  WithdrawnFromStrategy(strategy, amount) */\n      tag_283\n      jump\t// in\n        /* \"@openzeppelin/contracts-upgradeable/access/OwnableUpgradeable.sol\":2673:2860  function _transferOwnership(address newOwner) internal virtual {... */\n    tag_414:\n        /* \"@openzeppelin/contracts-upgradeable/access/OwnableUpgradeable.sol\":2765:2771  _owner */\n      0x33\n      dup1\n      sload\n      sub(shl(0xa0, 0x01), 0x01)\n        /* \"@openzeppelin/contracts-upgradeable/access/OwnableUpgradeable.sol\":2781:2798  _owner = newOwner */\n      dup4\n      dup2\n      and\n      not(sub(shl(0xa0, 0x01), 0x01))\n      dup4\n      and\n      dup2\n      or\n      swap1\n      swap4\n      sstore\n        /* \"@openzeppelin/contracts-upgradeable/access/OwnableUpgradeable.sol\":2813:2853  OwnershipTransferred(oldOwner, newOwner) */\n      mload(0x40)\n        /* \"@openzeppelin/contracts-upgradeable/access/OwnableUpgradeable.sol\":2765:2771  _owner */\n      swap2\n      and\n      swap2\n        /* \"@openzeppelin/contracts-upgradeable/access/OwnableUpgradeable.sol\":2781:2798  _owner = newOwner */\n      swap1\n        /* \"@openzeppelin/contracts-upgradeable/access/OwnableUpgradeable.sol\":2765:2771  _owner */\n      dup3\n      swap1\n        /* \"@openzeppelin/contracts-upgradeable/access/OwnableUpgradeable.sol\":2813:2853  OwnershipTransferred(oldOwner, newOwner) */\n      0x8be0079c531659141344cd1fd0a4f28419497f9722a3daafe3b4186f6b6457e0\n      swap1\n        /* \"@openzeppelin/contracts-upgradeable/access/OwnableUpgradeable.sol\":2746:2762  address oldOwner */\n      0x00\n      swap1\n        /* \"@openzeppelin/contracts-upgradeable/access/OwnableUpgradeable.sol\":2813:2853  OwnershipTransferred(oldOwner, newOwner) */\n      log3\n        /* \"@openzeppelin/contracts-upgradeable/access/OwnableUpgradeable.sol\":2736:2860  {... */\n      pop\n        /* \"@openzeppelin/contracts-upgradeable/access/OwnableUpgradeable.sol\":2673:2860  function _transferOwnership(address newOwner) internal virtual {... */\n      pop\n      jump\t// out\n        /* \"Heliocontracts/contracts/masterVault/MasterVault.sol\":13574:13844  function _deactivateStrategy(address strategy) private returns(bool success) {... */\n    tag_420:\n      sub(shl(0xa0, 0x01), 0x01)\n        /* \"Heliocontracts/contracts/masterVault/MasterVault.sol\":13665:13689  strategyParams[strategy] */\n      dup2\n      and\n        /* \"Heliocontracts/contracts/masterVault/MasterVault.sol\":13637:13649  bool success */\n      0x00\n        /* \"Heliocontracts/contracts/masterVault/MasterVault.sol\":13665:13689  strategyParams[strategy] */\n      swap1\n      dup2\n      mstore\n        /* \"Heliocontracts/contracts/masterVault/MasterVault.sol\":13665:13679  strategyParams */\n      0xc9\n        /* \"Heliocontracts/contracts/masterVault/MasterVault.sol\":13665:13689  strategyParams[strategy] */\n      0x20\n      mstore\n      0x40\n      dup2\n      keccak256\n        /* \"Heliocontracts/contracts/masterVault/MasterVault.sol\":13665:13694  strategyParams[strategy].debt */\n      0x02\n      add\n      sload\n        /* \"Heliocontracts/contracts/masterVault/MasterVault.sol\":13698:13700  10 */\n      0x0a\n      lt\n        /* \"Heliocontracts/contracts/masterVault/MasterVault.sol\":13661:13838  if (strategyParams[strategy].debt <= 10) {... */\n      tag_736\n      jumpi\n      pop\n      sub(shl(0xa0, 0x01), 0x01)\n        /* \"Heliocontracts/contracts/masterVault/MasterVault.sol\":13716:13740  strategyParams[strategy] */\n      and\n        /* \"Heliocontracts/contracts/masterVault/MasterVault.sol\":13750:13755  false */\n      0x00\n        /* \"Heliocontracts/contracts/masterVault/MasterVault.sol\":13716:13740  strategyParams[strategy] */\n      swap1\n      dup2\n      mstore\n        /* \"Heliocontracts/contracts/masterVault/MasterVault.sol\":13716:13730  strategyParams */\n      0xc9\n        /* \"Heliocontracts/contracts/masterVault/MasterVault.sol\":13716:13740  strategyParams[strategy] */\n      0x20\n      mstore\n      0x40\n      dup2\n      keccak256\n        /* \"Heliocontracts/contracts/masterVault/MasterVault.sol\":13716:13755  strategyParams[strategy].active = false */\n      dup1\n      sload\n      not(0xff)\n      and\n      dup2\n      sstore\n        /* \"Heliocontracts/contracts/masterVault/MasterVault.sol\":13769:13798  strategyParams[strategy].debt */\n      0x02\n      add\n        /* \"Heliocontracts/contracts/masterVault/MasterVault.sol\":13769:13802  strategyParams[strategy].debt = 0 */\n      sstore\n        /* \"Heliocontracts/contracts/masterVault/MasterVault.sol\":13716:13755  strategyParams[strategy].active = false */\n      0x01\n      swap1\n        /* \"Heliocontracts/contracts/masterVault/MasterVault.sol\":13574:13844  function _deactivateStrategy(address strategy) private returns(bool success) {... */\n      jump\t// out\n        /* \"Heliocontracts/contracts/masterVault/MasterVault.sol\":13661:13838  if (strategyParams[strategy].debt <= 10) {... */\n    tag_736:\n        /* \"Heliocontracts/contracts/masterVault/MasterVault.sol\":13574:13844  function _deactivateStrategy(address strategy) private returns(bool success) {... */\n      swap2\n      swap1\n      pop\n      jump\t// out\n        /* \"Heliocontracts/contracts/masterVault/MasterVault.sol\":14944:15297  function _isValidAllocation() private view returns(bool) {... */\n    tag_429:\n        /* \"Heliocontracts/contracts/masterVault/MasterVault.sol\":14995:14999  bool */\n      0x00\n        /* \"Heliocontracts/contracts/masterVault/MasterVault.sol\":15011:15035  uint256 totalAllocations */\n      dup1\n        /* \"Heliocontracts/contracts/masterVault/MasterVault.sol\":15049:15058  uint256 i */\n      0x00\n        /* \"Heliocontracts/contracts/masterVault/MasterVault.sol\":15045:15250  for(uint256 i = 0; i < strategies.length; i++) {... */\n    tag_738:\n        /* \"Heliocontracts/contracts/masterVault/MasterVault.sol\":15068:15078  strategies */\n      0xd2\n        /* \"Heliocontracts/contracts/masterVault/MasterVault.sol\":15068:15085  strategies.length */\n      sload\n        /* \"Heliocontracts/contracts/masterVault/MasterVault.sol\":15064:15085  i < strategies.length */\n      dup2\n      lt\n        /* \"Heliocontracts/contracts/masterVault/MasterVault.sol\":15045:15250  for(uint256 i = 0; i < strategies.length; i++) {... */\n      iszero\n      tag_739\n      jumpi\n        /* \"Heliocontracts/contracts/masterVault/MasterVault.sol\":15109:15123  strategyParams */\n      0xc9\n        /* \"Heliocontracts/contracts/masterVault/MasterVault.sol\":15109:15138  strategyParams[strategies[i]] */\n      0x00\n        /* \"Heliocontracts/contracts/masterVault/MasterVault.sol\":15124:15134  strategies */\n      0xd2\n        /* \"Heliocontracts/contracts/masterVault/MasterVault.sol\":15135:15136  i */\n      dup4\n        /* \"Heliocontracts/contracts/masterVault/MasterVault.sol\":15124:15137  strategies[i] */\n      dup2\n      sload\n      dup2\n      lt\n      tag_742\n      jumpi\n      tag_742\n      tag_315\n      jump\t// in\n    tag_742:\n      0x00\n      swap2\n      dup3\n      mstore\n      0x20\n      dup1\n      dup4\n      keccak256\n      swap1\n      swap2\n      add\n      sload\n      sub(shl(0xa0, 0x01), 0x01)\n      and\n        /* \"Heliocontracts/contracts/masterVault/MasterVault.sol\":15109:15138  strategyParams[strategies[i]] */\n      dup4\n      mstore\n      dup3\n      add\n      swap3\n      swap1\n      swap3\n      mstore\n      0x40\n      add\n      swap1\n      keccak256\n        /* \"Heliocontracts/contracts/masterVault/MasterVault.sol\":15109:15145  strategyParams[strategies[i]].active */\n      sload\n      0xff\n      and\n        /* \"Heliocontracts/contracts/masterVault/MasterVault.sol\":15106:15240  if(strategyParams[strategies[i]].active) {... */\n      iszero\n      tag_744\n      jumpi\n        /* \"Heliocontracts/contracts/masterVault/MasterVault.sol\":15185:15199  strategyParams */\n      0xc9\n        /* \"Heliocontracts/contracts/masterVault/MasterVault.sol\":15185:15214  strategyParams[strategies[i]] */\n      0x00\n        /* \"Heliocontracts/contracts/masterVault/MasterVault.sol\":15200:15210  strategies */\n      0xd2\n        /* \"Heliocontracts/contracts/masterVault/MasterVault.sol\":15211:15212  i */\n      dup4\n        /* \"Heliocontracts/contracts/masterVault/MasterVault.sol\":15200:15213  strategies[i] */\n      dup2\n      sload\n      dup2\n      lt\n      tag_746\n      jumpi\n      tag_746\n      tag_315\n      jump\t// in\n    tag_746:\n      0x00\n      swap2\n      dup3\n      mstore\n      0x20\n      dup1\n      dup4\n      keccak256\n      swap1\n      swap2\n      add\n      sload\n      sub(shl(0xa0, 0x01), 0x01)\n      and\n        /* \"Heliocontracts/contracts/masterVault/MasterVault.sol\":15185:15214  strategyParams[strategies[i]] */\n      dup4\n      mstore\n      dup3\n      add\n      swap3\n      swap1\n      swap3\n      mstore\n      0x40\n      add\n      swap1\n      keccak256\n        /* \"Heliocontracts/contracts/masterVault/MasterVault.sol\":15200:15213  strategies[i] */\n      0x01\n        /* \"Heliocontracts/contracts/masterVault/MasterVault.sol\":15185:15225  strategyParams[strategies[i]].allocation */\n      add\n      sload\n        /* \"Heliocontracts/contracts/masterVault/MasterVault.sol\":15165:15225  totalAllocations += strategyParams[strategies[i]].allocation */\n      tag_748\n      swap1\n      dup4\n      tag_328\n      jump\t// in\n    tag_748:\n      swap2\n      pop\n        /* \"Heliocontracts/contracts/masterVault/MasterVault.sol\":15106:15240  if(strategyParams[strategies[i]].active) {... */\n    tag_744:\n        /* \"Heliocontracts/contracts/masterVault/MasterVault.sol\":15087:15090  i++ */\n      dup1\n      tag_749\n      dup2\n      tag_330\n      jump\t// in\n    tag_749:\n      swap2\n      pop\n      pop\n        /* \"Heliocontracts/contracts/masterVault/MasterVault.sol\":15045:15250  for(uint256 i = 0; i < strategies.length; i++) {... */\n      jump(tag_738)\n    tag_739:\n      pop\n        /* \"Heliocontracts/contracts/masterVault/MasterVault.sol\":15287:15290  1e6 */\n      0x0f4240\n      lt\n        /* \"Heliocontracts/contracts/masterVault/MasterVault.sol\":15267:15290  totalAllocations <= 1e6 */\n      iszero\n      swap2\n        /* \"Heliocontracts/contracts/masterVault/MasterVault.sol\":14944:15297  function _isValidAllocation() private view returns(bool) {... */\n      swap1\n      pop\n      jump\t// out\n        /* \"@openzeppelin/contracts-upgradeable/security/PausableUpgradeable.sol\":2429:2544  function _pause() internal virtual whenNotPaused {... */\n    tag_448:\n        /* \"@openzeppelin/contracts-upgradeable/security/PausableUpgradeable.sol\":1482:1501  _requireNotPaused() */\n      tag_751\n        /* \"@openzeppelin/contracts-upgradeable/security/PausableUpgradeable.sol\":1482:1499  _requireNotPaused */\n      tag_268\n        /* \"@openzeppelin/contracts-upgradeable/security/PausableUpgradeable.sol\":1482:1501  _requireNotPaused() */\n      jump\t// in\n    tag_751:\n        /* \"@openzeppelin/contracts-upgradeable/security/PausableUpgradeable.sol\":2488:2495  _paused */\n      0x65\n        /* \"@openzeppelin/contracts-upgradeable/security/PausableUpgradeable.sol\":2488:2502  _paused = true */\n      dup1\n      sload\n      not(0xff)\n      and\n        /* \"@openzeppelin/contracts-upgradeable/security/PausableUpgradeable.sol\":2498:2502  true */\n      0x01\n        /* \"@openzeppelin/contracts-upgradeable/security/PausableUpgradeable.sol\":2488:2502  _paused = true */\n      or\n      swap1\n      sstore\n        /* \"@openzeppelin/contracts-upgradeable/security/PausableUpgradeable.sol\":2517:2537  Paused(_msgSender()) */\n      0x62e78cea01bee320cd4e420270b5ea74000d11b0c9f74754ebdbfc544b05a258\n        /* \"@openzeppelin/contracts-upgradeable/security/PausableUpgradeable.sol\":2524:2536  _msgSender() */\n      tag_753\n        /* \"@openzeppelin/contracts-upgradeable/utils/ContextUpgradeable.sol\":929:939  msg.sender */\n      caller\n      swap1\n        /* \"@openzeppelin/contracts-upgradeable/utils/ContextUpgradeable.sol\":850:946  function _msgSender() internal view virtual returns (address) {... */\n      jump\n        /* \"@openzeppelin/contracts-upgradeable/security/PausableUpgradeable.sol\":2524:2536  _msgSender() */\n    tag_753:\n        /* \"@openzeppelin/contracts-upgradeable/security/PausableUpgradeable.sol\":2517:2537  Paused(_msgSender()) */\n      mload(0x40)\n      sub(shl(0xa0, 0x01), 0x01)\n        /* \"#utility.yul\":360:392   */\n      swap1\n      swap2\n      and\n        /* \"#utility.yul\":342:393   */\n      dup2\n      mstore\n        /* \"#utility.yul\":330:332   */\n      0x20\n        /* \"#utility.yul\":315:333   */\n      add\n        /* \"@openzeppelin/contracts-upgradeable/security/PausableUpgradeable.sol\":2517:2537  Paused(_msgSender()) */\n      mload(0x40)\n      dup1\n      swap2\n      sub\n      swap1\n      log1\n        /* \"@openzeppelin/contracts-upgradeable/security/PausableUpgradeable.sol\":2429:2544  function _pause() internal virtual whenNotPaused {... */\n      jump\t// out\n        /* \"@openzeppelin/contracts-upgradeable/security/PausableUpgradeable.sol\":2676:2793  function _unpause() internal virtual whenPaused {... */\n    tag_609:\n        /* \"@openzeppelin/contracts-upgradeable/security/PausableUpgradeable.sol\":1729:1745  _requirePaused() */\n      tag_756\n        /* \"@openzeppelin/contracts-upgradeable/security/PausableUpgradeable.sol\":1729:1743  _requirePaused */\n      tag_757\n        /* \"@openzeppelin/contracts-upgradeable/security/PausableUpgradeable.sol\":1729:1745  _requirePaused() */\n      jump\t// in\n    tag_756:\n        /* \"@openzeppelin/contracts-upgradeable/security/PausableUpgradeable.sol\":2734:2741  _paused */\n      0x65\n        /* \"@openzeppelin/contracts-upgradeable/security/PausableUpgradeable.sol\":2734:2749  _paused = false */\n      dup1\n      sload\n      not(0xff)\n      and\n      swap1\n      sstore\n        /* \"@openzeppelin/contracts-upgradeable/security/PausableUpgradeable.sol\":2764:2786  Unpaused(_msgSender()) */\n      0x5db9ee0a495bf2e6ff9c91a7834c1ba4fdd244a5e8aa4e537bd38aeae4b073aa\n        /* \"@openzeppelin/contracts-upgradeable/utils/ContextUpgradeable.sol\":929:939  msg.sender */\n      caller\n        /* \"@openzeppelin/contracts-upgradeable/security/PausableUpgradeable.sol\":2773:2785  _msgSender() */\n      tag_753\n        /* \"@openzeppelin/contracts-upgradeable/utils/ContextUpgradeable.sol\":850:946  function _msgSender() internal view virtual returns (address) {... */\n      jump\n        /* \"@openzeppelin/contracts-upgradeable/access/OwnableUpgradeable.sol\":1003:1098  function __Ownable_init() internal onlyInitializing {... */\n    tag_630:\n        /* \"@openzeppelin/contracts-upgradeable/proxy/utils/Initializable.sol\":4910:4923  _initializing */\n      sload(0x00)\n      0x0100\n      swap1\n      div\n      0xff\n      and\n        /* \"@openzeppelin/contracts-upgradeable/proxy/utils/Initializable.sol\":4902:4971  require(_initializing, \"Initializable: contract is not initializing\") */\n      tag_763\n      jumpi\n      mload(0x40)\n      shl(0xe5, 0x461bcd)\n      dup2\n      mstore\n      0x04\n      add\n      tag_264\n      swap1\n      tag_765\n      jump\t// in\n    tag_763:\n        /* \"@openzeppelin/contracts-upgradeable/access/OwnableUpgradeable.sol\":1065:1091  __Ownable_init_unchained() */\n      tag_413\n        /* \"@openzeppelin/contracts-upgradeable/access/OwnableUpgradeable.sol\":1065:1089  __Ownable_init_unchained */\n      tag_768\n        /* \"@openzeppelin/contracts-upgradeable/access/OwnableUpgradeable.sol\":1065:1091  __Ownable_init_unchained() */\n      jump\t// in\n        /* \"@openzeppelin/contracts-upgradeable/security/PausableUpgradeable.sol\":1063:1160  function __Pausable_init() internal onlyInitializing {... */\n    tag_632:\n        /* \"@openzeppelin/contracts-upgradeable/proxy/utils/Initializable.sol\":4910:4923  _initializing */\n      sload(0x00)\n      0x0100\n      swap1\n      div\n      0xff\n      and\n        /* \"@openzeppelin/contracts-upgradeable/proxy/utils/Initializable.sol\":4902:4971  require(_initializing, \"Initializable: contract is not initializing\") */\n      tag_770\n      jumpi\n      mload(0x40)\n      shl(0xe5, 0x461bcd)\n      dup2\n      mstore\n      0x04\n      add\n      tag_264\n      swap1\n      tag_765\n      jump\t// in\n    tag_770:\n        /* \"@openzeppelin/contracts-upgradeable/security/PausableUpgradeable.sol\":1126:1153  __Pausable_init_unchained() */\n      tag_413\n        /* \"@openzeppelin/contracts-upgradeable/security/PausableUpgradeable.sol\":1126:1151  __Pausable_init_unchained */\n      tag_774\n        /* \"@openzeppelin/contracts-upgradeable/security/PausableUpgradeable.sol\":1126:1153  __Pausable_init_unchained() */\n      jump\t// in\n        /* \"@openzeppelin/contracts-upgradeable/security/ReentrancyGuardUpgradeable.sol\":1853:1964  function __ReentrancyGuard_init() internal onlyInitializing {... */\n    tag_634:\n        /* \"@openzeppelin/contracts-upgradeable/proxy/utils/Initializable.sol\":4910:4923  _initializing */\n      sload(0x00)\n      0x0100\n      swap1\n      div\n      0xff\n      and\n        /* \"@openzeppelin/contracts-upgradeable/proxy/utils/Initializable.sol\":4902:4971  require(_initializing, \"Initializable: contract is not initializing\") */\n      tag_776\n      jumpi\n      mload(0x40)\n      shl(0xe5, 0x461bcd)\n      dup2\n      mstore\n      0x04\n      add\n      tag_264\n      swap1\n      tag_765\n      jump\t// in\n    tag_776:\n        /* \"@openzeppelin/contracts-upgradeable/security/ReentrancyGuardUpgradeable.sol\":1923:1957  __ReentrancyGuard_init_unchained() */\n      tag_413\n        /* \"@openzeppelin/contracts-upgradeable/security/ReentrancyGuardUpgradeable.sol\":1923:1955  __ReentrancyGuard_init_unchained */\n      tag_780\n        /* \"@openzeppelin/contracts-upgradeable/security/ReentrancyGuardUpgradeable.sol\":1923:1957  __ReentrancyGuard_init_unchained() */\n      jump\t// in\n        /* \"@openzeppelin/contracts-upgradeable/security/PausableUpgradeable.sol\":2188:2294  function _requirePaused() internal view virtual {... */\n    tag_757:\n        /* \"@openzeppelin/contracts-upgradeable/security/PausableUpgradeable.sol\":1928:1935  _paused */\n      and(0xff, sload(0x65))\n        /* \"@openzeppelin/contracts-upgradeable/security/PausableUpgradeable.sol\":2246:2287  require(paused(), \"Pausable: not paused\") */\n      tag_413\n      jumpi\n      mload(0x40)\n      shl(0xe5, 0x461bcd)\n      dup2\n      mstore\n        /* \"#utility.yul\":16310:16312   */\n      0x20\n        /* \"@openzeppelin/contracts-upgradeable/security/PausableUpgradeable.sol\":2246:2287  require(paused(), \"Pausable: not paused\") */\n      0x04\n      dup3\n      add\n        /* \"#utility.yul\":16292:16313   */\n      mstore\n        /* \"#utility.yul\":16349:16351   */\n      0x14\n        /* \"#utility.yul\":16329:16347   */\n      0x24\n      dup3\n      add\n        /* \"#utility.yul\":16322:16352   */\n      mstore\n      shl(0x62, 0x14185d5cd8589b194e881b9bdd081c185d5cd959)\n        /* \"#utility.yul\":16368:16386   */\n      0x44\n      dup3\n      add\n        /* \"#utility.yul\":16361:16411   */\n      mstore\n        /* \"#utility.yul\":16428:16446   */\n      0x64\n      add\n        /* \"@openzeppelin/contracts-upgradeable/security/PausableUpgradeable.sol\":2246:2287  require(paused(), \"Pausable: not paused\") */\n      tag_264\n        /* \"#utility.yul\":16108:16452   */\n      jump\n        /* \"@openzeppelin/contracts-upgradeable/access/OwnableUpgradeable.sol\":1104:1215  function __Ownable_init_unchained() internal onlyInitializing {... */\n    tag_768:\n        /* \"@openzeppelin/contracts-upgradeable/proxy/utils/Initializable.sol\":4910:4923  _initializing */\n      sload(0x00)\n      0x0100\n      swap1\n      div\n      0xff\n      and\n        /* \"@openzeppelin/contracts-upgradeable/proxy/utils/Initializable.sol\":4902:4971  require(_initializing, \"Initializable: contract is not initializing\") */\n      tag_788\n      jumpi\n      mload(0x40)\n      shl(0xe5, 0x461bcd)\n      dup2\n      mstore\n      0x04\n      add\n      tag_264\n      swap1\n      tag_765\n      jump\t// in\n    tag_788:\n        /* \"@openzeppelin/contracts-upgradeable/access/OwnableUpgradeable.sol\":1176:1208  _transferOwnership(_msgSender()) */\n      tag_413\n        /* \"@openzeppelin/contracts-upgradeable/utils/ContextUpgradeable.sol\":929:939  msg.sender */\n      caller\n        /* \"@openzeppelin/contracts-upgradeable/access/OwnableUpgradeable.sol\":1176:1194  _transferOwnership */\n      tag_414\n        /* \"@openzeppelin/contracts-upgradeable/access/OwnableUpgradeable.sol\":1176:1208  _transferOwnership(_msgSender()) */\n      jump\t// in\n        /* \"@openzeppelin/contracts-upgradeable/security/PausableUpgradeable.sol\":1166:1261  function __Pausable_init_unchained() internal onlyInitializing {... */\n    tag_774:\n        /* \"@openzeppelin/contracts-upgradeable/proxy/utils/Initializable.sol\":4910:4923  _initializing */\n      sload(0x00)\n      0x0100\n      swap1\n      div\n      0xff\n      and\n        /* \"@openzeppelin/contracts-upgradeable/proxy/utils/Initializable.sol\":4902:4971  require(_initializing, \"Initializable: contract is not initializing\") */\n      tag_794\n      jumpi\n      mload(0x40)\n      shl(0xe5, 0x461bcd)\n      dup2\n      mstore\n      0x04\n      add\n      tag_264\n      swap1\n      tag_765\n      jump\t// in\n    tag_794:\n        /* \"@openzeppelin/contracts-upgradeable/security/PausableUpgradeable.sol\":1239:1246  _paused */\n      0x65\n        /* \"@openzeppelin/contracts-upgradeable/security/PausableUpgradeable.sol\":1239:1254  _paused = false */\n      dup1\n      sload\n      not(0xff)\n      and\n      swap1\n      sstore\n        /* \"@openzeppelin/contracts-upgradeable/security/PausableUpgradeable.sol\":1166:1261  function __Pausable_init_unchained() internal onlyInitializing {... */\n      jump\t// out\n        /* \"@openzeppelin/contracts-upgradeable/security/ReentrancyGuardUpgradeable.sol\":1970:2079  function __ReentrancyGuard_init_unchained() internal onlyInitializing {... */\n    tag_780:\n        /* \"@openzeppelin/contracts-upgradeable/proxy/utils/Initializable.sol\":4910:4923  _initializing */\n      sload(0x00)\n      0x0100\n      swap1\n      div\n      0xff\n      and\n        /* \"@openzeppelin/contracts-upgradeable/proxy/utils/Initializable.sol\":4902:4971  require(_initializing, \"Initializable: contract is not initializing\") */\n      tag_568\n      jumpi\n      mload(0x40)\n      shl(0xe5, 0x461bcd)\n      dup2\n      mstore\n      0x04\n      add\n      tag_264\n      swap1\n      tag_765\n      jump\t// in\n        /* \"#utility.yul\":404:535   */\n    tag_801:\n      sub(shl(0xa0, 0x01), 0x01)\n        /* \"#utility.yul\":479:510   */\n      dup2\n      and\n        /* \"#utility.yul\":469:511   */\n      dup2\n      eq\n        /* \"#utility.yul\":459:529   */\n      tag_418\n      jumpi\n        /* \"#utility.yul\":525:526   */\n      0x00\n        /* \"#utility.yul\":522:523   */\n      dup1\n        /* \"#utility.yul\":515:527   */\n      revert\n        /* \"#utility.yul\":540:787   */\n    tag_71:\n        /* \"#utility.yul\":599:605   */\n      0x00\n        /* \"#utility.yul\":652:654   */\n      0x20\n        /* \"#utility.yul\":640:649   */\n      dup3\n        /* \"#utility.yul\":631:638   */\n      dup5\n        /* \"#utility.yul\":627:650   */\n      sub\n        /* \"#utility.yul\":623:655   */\n      slt\n        /* \"#utility.yul\":620:672   */\n      iszero\n      tag_809\n      jumpi\n        /* \"#utility.yul\":668:669   */\n      0x00\n        /* \"#utility.yul\":665:666   */\n      dup1\n        /* \"#utility.yul\":658:670   */\n      revert\n        /* \"#utility.yul\":620:672   */\n    tag_809:\n        /* \"#utility.yul\":707:716   */\n      dup2\n        /* \"#utility.yul\":694:717   */\n      calldataload\n        /* \"#utility.yul\":726:757   */\n      tag_518\n        /* \"#utility.yul\":751:756   */\n      dup2\n        /* \"#utility.yul\":726:757   */\n      tag_801\n      jump\t// in\n        /* \"#utility.yul\":792:1248   */\n    tag_80:\n        /* \"#utility.yul\":869:875   */\n      0x00\n        /* \"#utility.yul\":877:883   */\n      dup1\n        /* \"#utility.yul\":885:891   */\n      0x00\n        /* \"#utility.yul\":938:940   */\n      0x60\n        /* \"#utility.yul\":926:935   */\n      dup5\n        /* \"#utility.yul\":917:924   */\n      dup7\n        /* \"#utility.yul\":913:936   */\n      sub\n        /* \"#utility.yul\":909:941   */\n      slt\n        /* \"#utility.yul\":906:958   */\n      iszero\n      tag_812\n      jumpi\n        /* \"#utility.yul\":954:955   */\n      0x00\n        /* \"#utility.yul\":951:952   */\n      dup1\n        /* \"#utility.yul\":944:956   */\n      revert\n        /* \"#utility.yul\":906:958   */\n    tag_812:\n        /* \"#utility.yul\":993:1002   */\n      dup4\n        /* \"#utility.yul\":980:1003   */\n      calldataload\n        /* \"#utility.yul\":1012:1043   */\n      tag_813\n        /* \"#utility.yul\":1037:1042   */\n      dup2\n        /* \"#utility.yul\":1012:1043   */\n      tag_801\n      jump\t// in\n    tag_813:\n        /* \"#utility.yul\":1062:1067   */\n      swap3\n      pop\n        /* \"#utility.yul\":1119:1121   */\n      0x20\n        /* \"#utility.yul\":1104:1122   */\n      dup5\n      add\n        /* \"#utility.yul\":1091:1123   */\n      calldataload\n        /* \"#utility.yul\":1132:1165   */\n      tag_814\n        /* \"#utility.yul\":1091:1123   */\n      dup2\n        /* \"#utility.yul\":1132:1165   */\n      tag_801\n      jump\t// in\n    tag_814:\n        /* \"#utility.yul\":792:1248   */\n      swap3\n      swap6\n        /* \"#utility.yul\":1184:1191   */\n      swap3\n      swap5\n      pop\n      pop\n      pop\n        /* \"#utility.yul\":1238:1240   */\n      0x40\n        /* \"#utility.yul\":1223:1241   */\n      swap2\n      swap1\n      swap2\n      add\n        /* \"#utility.yul\":1210:1242   */\n      calldataload\n      swap1\n        /* \"#utility.yul\":792:1248   */\n      jump\t// out\n        /* \"#utility.yul\":1253:1568   */\n    tag_86:\n        /* \"#utility.yul\":1321:1327   */\n      0x00\n        /* \"#utility.yul\":1329:1335   */\n      dup1\n        /* \"#utility.yul\":1382:1384   */\n      0x40\n        /* \"#utility.yul\":1370:1379   */\n      dup4\n        /* \"#utility.yul\":1361:1368   */\n      dup6\n        /* \"#utility.yul\":1357:1380   */\n      sub\n        /* \"#utility.yul\":1353:1385   */\n      slt\n        /* \"#utility.yul\":1350:1402   */\n      iszero\n      tag_816\n      jumpi\n        /* \"#utility.yul\":1398:1399   */\n      0x00\n        /* \"#utility.yul\":1395:1396   */\n      dup1\n        /* \"#utility.yul\":1388:1400   */\n      revert\n        /* \"#utility.yul\":1350:1402   */\n    tag_816:\n        /* \"#utility.yul\":1437:1446   */\n      dup3\n        /* \"#utility.yul\":1424:1447   */\n      calldataload\n        /* \"#utility.yul\":1456:1487   */\n      tag_817\n        /* \"#utility.yul\":1481:1486   */\n      dup2\n        /* \"#utility.yul\":1456:1487   */\n      tag_801\n      jump\t// in\n    tag_817:\n        /* \"#utility.yul\":1506:1511   */\n      swap5\n        /* \"#utility.yul\":1558:1560   */\n      0x20\n        /* \"#utility.yul\":1543:1561   */\n      swap4\n      swap1\n      swap4\n      add\n        /* \"#utility.yul\":1530:1562   */\n      calldataload\n      swap4\n      pop\n      pop\n      pop\n        /* \"#utility.yul\":1253:1568   */\n      jump\t// out\n        /* \"#utility.yul\":1573:1753   */\n    tag_96:\n        /* \"#utility.yul\":1632:1638   */\n      0x00\n        /* \"#utility.yul\":1685:1687   */\n      0x20\n        /* \"#utility.yul\":1673:1682   */\n      dup3\n        /* \"#utility.yul\":1664:1671   */\n      dup5\n        /* \"#utility.yul\":1660:1683   */\n      sub\n        /* \"#utility.yul\":1656:1688   */\n      slt\n        /* \"#utility.yul\":1653:1705   */\n      iszero\n      tag_819\n      jumpi\n        /* \"#utility.yul\":1701:1702   */\n      0x00\n        /* \"#utility.yul\":1698:1699   */\n      dup1\n        /* \"#utility.yul\":1691:1703   */\n      revert\n        /* \"#utility.yul\":1653:1705   */\n    tag_819:\n      pop\n        /* \"#utility.yul\":1724:1747   */\n      calldataload\n      swap2\n        /* \"#utility.yul\":1573:1753   */\n      swap1\n      pop\n      jump\t// out\n        /* \"#utility.yul\":2997:3544   */\n    tag_249:\n        /* \"#utility.yul\":3081:3087   */\n      0x00\n        /* \"#utility.yul\":3089:3095   */\n      dup1\n        /* \"#utility.yul\":3097:3103   */\n      0x00\n        /* \"#utility.yul\":3105:3111   */\n      dup1\n        /* \"#utility.yul\":3158:3161   */\n      0x80\n        /* \"#utility.yul\":3146:3155   */\n      dup6\n        /* \"#utility.yul\":3137:3144   */\n      dup8\n        /* \"#utility.yul\":3133:3156   */\n      sub\n        /* \"#utility.yul\":3129:3162   */\n      slt\n        /* \"#utility.yul\":3126:3179   */\n      iszero\n      tag_828\n      jumpi\n        /* \"#utility.yul\":3175:3176   */\n      0x00\n        /* \"#utility.yul\":3172:3173   */\n      dup1\n        /* \"#utility.yul\":3165:3177   */\n      revert\n        /* \"#utility.yul\":3126:3179   */\n    tag_828:\n        /* \"#utility.yul\":3211:3220   */\n      dup5\n        /* \"#utility.yul\":3198:3221   */\n      calldataload\n        /* \"#utility.yul\":3188:3221   */\n      swap4\n      pop\n        /* \"#utility.yul\":3268:3270   */\n      0x20\n        /* \"#utility.yul\":3257:3266   */\n      dup6\n        /* \"#utility.yul\":3253:3271   */\n      add\n        /* \"#utility.yul\":3240:3272   */\n      calldataload\n        /* \"#utility.yul\":3230:3272   */\n      swap3\n      pop\n        /* \"#utility.yul\":3322:3324   */\n      0x40\n        /* \"#utility.yul\":3311:3320   */\n      dup6\n        /* \"#utility.yul\":3307:3325   */\n      add\n        /* \"#utility.yul\":3294:3326   */\n      calldataload\n        /* \"#utility.yul\":3366:3370   */\n      0xff\n        /* \"#utility.yul\":3359:3364   */\n      dup2\n        /* \"#utility.yul\":3355:3371   */\n      and\n        /* \"#utility.yul\":3348:3353   */\n      dup2\n        /* \"#utility.yul\":3345:3372   */\n      eq\n        /* \"#utility.yul\":3335:3390   */\n      tag_829\n      jumpi\n        /* \"#utility.yul\":3386:3387   */\n      0x00\n        /* \"#utility.yul\":3383:3384   */\n      dup1\n        /* \"#utility.yul\":3376:3388   */\n      revert\n        /* \"#utility.yul\":3335:3390   */\n    tag_829:\n        /* \"#utility.yul\":3409:3414   */\n      swap2\n      pop\n        /* \"#utility.yul\":3466:3468   */\n      0x60\n        /* \"#utility.yul\":3451:3469   */\n      dup6\n      add\n        /* \"#utility.yul\":3438:3470   */\n      calldataload\n        /* \"#utility.yul\":3479:3512   */\n      tag_830\n        /* \"#utility.yul\":3438:3470   */\n      dup2\n        /* \"#utility.yul\":3479:3512   */\n      tag_801\n      jump\t// in\n    tag_830:\n        /* \"#utility.yul\":2997:3544   */\n      swap4\n      swap7\n      swap3\n      swap6\n      pop\n      swap1\n      swap4\n      pop\n      pop\n      jump\t// out\n        /* \"#utility.yul\":3549:3904   */\n    tag_265:\n        /* \"#utility.yul\":3751:3753   */\n      0x20\n        /* \"#utility.yul\":3733:3754   */\n      dup1\n      dup3\n      mstore\n        /* \"#utility.yul\":3790:3792   */\n      0x1f\n        /* \"#utility.yul\":3770:3788   */\n      swap1\n      dup3\n      add\n        /* \"#utility.yul\":3763:3793   */\n      mstore\n        /* \"#utility.yul\":3829:3862   */\n      0x5265656e7472616e637947756172643a207265656e7472616e742063616c6c00\n        /* \"#utility.yul\":3824:3826   */\n      0x40\n        /* \"#utility.yul\":3809:3827   */\n      dup3\n      add\n        /* \"#utility.yul\":3802:3863   */\n      mstore\n        /* \"#utility.yul\":3895:3897   */\n      0x60\n        /* \"#utility.yul\":3880:3898   */\n      add\n      swap1\n        /* \"#utility.yul\":3549:3904   */\n      jump\t// out\n        /* \"#utility.yul\":3909:4254   */\n    tag_274:\n        /* \"#utility.yul\":4111:4113   */\n      0x20\n        /* \"#utility.yul\":4093:4114   */\n      dup1\n      dup3\n      mstore\n        /* \"#utility.yul\":4150:4152   */\n      0x15\n        /* \"#utility.yul\":4130:4148   */\n      swap1\n      dup3\n      add\n        /* \"#utility.yul\":4123:4153   */\n      mstore\n      shl(0x5a, 0x141c9bdd9a59195c8e881b9bdd08185b1b1bddd959)\n        /* \"#utility.yul\":4184:4186   */\n      0x40\n        /* \"#utility.yul\":4169:4187   */\n      dup3\n      add\n        /* \"#utility.yul\":4162:4213   */\n      mstore\n        /* \"#utility.yul\":4245:4247   */\n      0x60\n        /* \"#utility.yul\":4230:4248   */\n      add\n      swap1\n        /* \"#utility.yul\":3909:4254   */\n      jump\t// out\n        /* \"#utility.yul\":4973:5247   */\n    tag_283:\n      sub(shl(0xa0, 0x01), 0x01)\n        /* \"#utility.yul\":5165:5197   */\n      swap3\n      swap1\n      swap3\n      and\n        /* \"#utility.yul\":5147:5198   */\n      dup3\n      mstore\n        /* \"#utility.yul\":5229:5231   */\n      0x20\n        /* \"#utility.yul\":5214:5232   */\n      dup3\n      add\n        /* \"#utility.yul\":5207:5241   */\n      mstore\n        /* \"#utility.yul\":5135:5137   */\n      0x40\n        /* \"#utility.yul\":5120:5138   */\n      add\n      swap1\n        /* \"#utility.yul\":4973:5247   */\n      jump\t// out\n        /* \"#utility.yul\":5252:5379   */\n    tag_802:\n        /* \"#utility.yul\":5313:5323   */\n      0x4e487b71\n        /* \"#utility.yul\":5308:5311   */\n      0xe0\n        /* \"#utility.yul\":5304:5324   */\n      shl\n        /* \"#utility.yul\":5301:5302   */\n      0x00\n        /* \"#utility.yul\":5294:5325   */\n      mstore\n        /* \"#utility.yul\":5344:5348   */\n      0x11\n        /* \"#utility.yul\":5341:5342   */\n      0x04\n        /* \"#utility.yul\":5334:5349   */\n      mstore\n        /* \"#utility.yul\":5368:5372   */\n      0x24\n        /* \"#utility.yul\":5365:5366   */\n      0x00\n        /* \"#utility.yul\":5358:5373   */\n      revert\n        /* \"#utility.yul\":5384:5509   */\n    tag_292:\n        /* \"#utility.yul\":5424:5428   */\n      0x00\n        /* \"#utility.yul\":5452:5453   */\n      dup3\n        /* \"#utility.yul\":5449:5450   */\n      dup3\n        /* \"#utility.yul\":5446:5454   */\n      lt\n        /* \"#utility.yul\":5443:5477   */\n      iszero\n      tag_839\n      jumpi\n        /* \"#utility.yul\":5457:5475   */\n      tag_839\n      tag_802\n      jump\t// in\n    tag_839:\n      pop\n        /* \"#utility.yul\":5494:5503   */\n      sub\n      swap1\n        /* \"#utility.yul\":5384:5509   */\n      jump\t// out\n        /* \"#utility.yul\":5866:6138   */\n    tag_306:\n        /* \"#utility.yul\":5957:5963   */\n      0x00\n        /* \"#utility.yul\":6010:6012   */\n      0x20\n        /* \"#utility.yul\":5998:6007   */\n      dup3\n        /* \"#utility.yul\":5989:5996   */\n      dup5\n        /* \"#utility.yul\":5985:6008   */\n      sub\n        /* \"#utility.yul\":5981:6013   */\n      slt\n        /* \"#utility.yul\":5978:6030   */\n      iszero\n      tag_842\n      jumpi\n        /* \"#utility.yul\":6026:6027   */\n      0x00\n        /* \"#utility.yul\":6023:6024   */\n      dup1\n        /* \"#utility.yul\":6016:6028   */\n      revert\n        /* \"#utility.yul\":5978:6030   */\n    tag_842:\n        /* \"#utility.yul\":6058:6067   */\n      dup2\n        /* \"#utility.yul\":6052:6068   */\n      mload\n        /* \"#utility.yul\":6077:6108   */\n      tag_518\n        /* \"#utility.yul\":6102:6107   */\n      dup2\n        /* \"#utility.yul\":6077:6108   */\n      tag_801\n      jump\t// in\n        /* \"#utility.yul\":6488:6615   */\n    tag_315:\n        /* \"#utility.yul\":6549:6559   */\n      0x4e487b71\n        /* \"#utility.yul\":6544:6547   */\n      0xe0\n        /* \"#utility.yul\":6540:6560   */\n      shl\n        /* \"#utility.yul\":6537:6538   */\n      0x00\n        /* \"#utility.yul\":6530:6561   */\n      mstore\n        /* \"#utility.yul\":6580:6584   */\n      0x32\n        /* \"#utility.yul\":6577:6578   */\n      0x04\n        /* \"#utility.yul\":6570:6585   */\n      mstore\n        /* \"#utility.yul\":6604:6608   */\n      0x24\n        /* \"#utility.yul\":6601:6602   */\n      0x00\n        /* \"#utility.yul\":6594:6609   */\n      revert\n        /* \"#utility.yul\":6972:7100   */\n    tag_328:\n        /* \"#utility.yul\":7012:7015   */\n      0x00\n        /* \"#utility.yul\":7043:7044   */\n      dup3\n        /* \"#utility.yul\":7039:7045   */\n      not\n        /* \"#utility.yul\":7036:7037   */\n      dup3\n        /* \"#utility.yul\":7033:7046   */\n      gt\n        /* \"#utility.yul\":7030:7069   */\n      iszero\n      tag_849\n      jumpi\n        /* \"#utility.yul\":7049:7067   */\n      tag_849\n      tag_802\n      jump\t// in\n    tag_849:\n      pop\n        /* \"#utility.yul\":7085:7094   */\n      add\n      swap1\n        /* \"#utility.yul\":6972:7100   */\n      jump\t// out\n        /* \"#utility.yul\":7105:7240   */\n    tag_330:\n        /* \"#utility.yul\":7144:7147   */\n      0x00\n      not(0x00)\n        /* \"#utility.yul\":7165:7182   */\n      dup3\n      eq\n        /* \"#utility.yul\":7162:7205   */\n      iszero\n      tag_852\n      jumpi\n        /* \"#utility.yul\":7185:7203   */\n      tag_852\n      tag_802\n      jump\t// in\n    tag_852:\n      pop\n        /* \"#utility.yul\":7232:7233   */\n      0x01\n        /* \"#utility.yul\":7221:7234   */\n      add\n      swap1\n        /* \"#utility.yul\":7105:7240   */\n      jump\t// out\n        /* \"#utility.yul\":7245:7645   */\n    tag_334:\n        /* \"#utility.yul\":7447:7449   */\n      0x20\n        /* \"#utility.yul\":7429:7450   */\n      dup1\n      dup3\n      mstore\n        /* \"#utility.yul\":7486:7488   */\n      0x24\n        /* \"#utility.yul\":7466:7484   */\n      swap1\n      dup3\n      add\n        /* \"#utility.yul\":7459:7489   */\n      mstore\n        /* \"#utility.yul\":7525:7559   */\n      0x616c6c6f636174696f6e732063616e6e6f74206265206d6f7265207468616e20\n        /* \"#utility.yul\":7520:7522   */\n      0x40\n        /* \"#utility.yul\":7505:7523   */\n      dup3\n      add\n        /* \"#utility.yul\":7498:7560   */\n      mstore\n      shl(0xe0, 0x31303025)\n        /* \"#utility.yul\":7591:7593   */\n      0x60\n        /* \"#utility.yul\":7576:7594   */\n      dup3\n      add\n        /* \"#utility.yul\":7569:7603   */\n      mstore\n        /* \"#utility.yul\":7635:7638   */\n      0x80\n        /* \"#utility.yul\":7620:7639   */\n      add\n      swap1\n        /* \"#utility.yul\":7245:7645   */\n      jump\t// out\n        /* \"#utility.yul\":7860:8199   */\n    tag_364:\n        /* \"#utility.yul\":8062:8064   */\n      0x20\n        /* \"#utility.yul\":8044:8065   */\n      dup1\n      dup3\n      mstore\n        /* \"#utility.yul\":8101:8103   */\n      0x0f\n        /* \"#utility.yul\":8081:8099   */\n      swap1\n      dup3\n      add\n        /* \"#utility.yul\":8074:8104   */\n      mstore\n      shl(0x8a, 0x1d1c985b9cd9995c8819985a5b1959)\n        /* \"#utility.yul\":8135:8137   */\n      0x40\n        /* \"#utility.yul\":8120:8138   */\n      dup3\n      add\n        /* \"#utility.yul\":8113:8158   */\n      mstore\n        /* \"#utility.yul\":8190:8192   */\n      0x60\n        /* \"#utility.yul\":8175:8193   */\n      add\n      swap1\n        /* \"#utility.yul\":7860:8199   */\n      jump\t// out\n        /* \"#utility.yul\":9162:9506   */\n    tag_392:\n        /* \"#utility.yul\":9364:9366   */\n      0x20\n        /* \"#utility.yul\":9346:9367   */\n      dup1\n      dup3\n      mstore\n        /* \"#utility.yul\":9403:9405   */\n      0x14\n        /* \"#utility.yul\":9383:9401   */\n      swap1\n      dup3\n      add\n        /* \"#utility.yul\":9376:9406   */\n      mstore\n      shl(0x62, 0x13585b9859d95c8e881b9bdd08185b1b1bddd959)\n        /* \"#utility.yul\":9437:9439   */\n      0x40\n        /* \"#utility.yul\":9422:9440   */\n      dup3\n      add\n        /* \"#utility.yul\":9415:9465   */\n      mstore\n        /* \"#utility.yul\":9497:9499   */\n      0x60\n        /* \"#utility.yul\":9482:9500   */\n      add\n      swap1\n        /* \"#utility.yul\":9162:9506   */\n      jump\t// out\n        /* \"#utility.yul\":9511:9695   */\n    tag_402:\n        /* \"#utility.yul\":9581:9587   */\n      0x00\n        /* \"#utility.yul\":9634:9636   */\n      0x20\n        /* \"#utility.yul\":9622:9631   */\n      dup3\n        /* \"#utility.yul\":9613:9620   */\n      dup5\n        /* \"#utility.yul\":9609:9632   */\n      sub\n        /* \"#utility.yul\":9605:9637   */\n      slt\n        /* \"#utility.yul\":9602:9654   */\n      iszero\n      tag_861\n      jumpi\n        /* \"#utility.yul\":9650:9651   */\n      0x00\n        /* \"#utility.yul\":9647:9648   */\n      dup1\n        /* \"#utility.yul\":9640:9652   */\n      revert\n        /* \"#utility.yul\":9602:9654   */\n    tag_861:\n      pop\n        /* \"#utility.yul\":9673:9689   */\n      mload\n      swap2\n        /* \"#utility.yul\":9511:9695   */\n      swap1\n      pop\n      jump\t// out\n        /* \"#utility.yul\":9916:10084   */\n    tag_468:\n        /* \"#utility.yul\":9956:9963   */\n      0x00\n        /* \"#utility.yul\":10022:10023   */\n      dup2\n        /* \"#utility.yul\":10018:10019   */\n      0x00\n        /* \"#utility.yul\":10014:10020   */\n      not\n        /* \"#utility.yul\":10010:10024   */\n      div\n        /* \"#utility.yul\":10007:10008   */\n      dup4\n        /* \"#utility.yul\":10004:10025   */\n      gt\n        /* \"#utility.yul\":9999:10000   */\n      dup3\n        /* \"#utility.yul\":9992:10001   */\n      iszero\n        /* \"#utility.yul\":9985:10002   */\n      iszero\n        /* \"#utility.yul\":9981:10026   */\n      and\n        /* \"#utility.yul\":9978:10049   */\n      iszero\n      tag_865\n      jumpi\n        /* \"#utility.yul\":10029:10047   */\n      tag_865\n      tag_802\n      jump\t// in\n    tag_865:\n      pop\n        /* \"#utility.yul\":10069:10078   */\n      mul\n      swap1\n        /* \"#utility.yul\":9916:10084   */\n      jump\t// out\n        /* \"#utility.yul\":10089:10306   */\n    tag_470:\n        /* \"#utility.yul\":10129:10130   */\n      0x00\n        /* \"#utility.yul\":10155:10156   */\n      dup3\n        /* \"#utility.yul\":10145:10277   */\n      tag_867\n      jumpi\n        /* \"#utility.yul\":10199:10209   */\n      0x4e487b71\n        /* \"#utility.yul\":10194:10197   */\n      0xe0\n        /* \"#utility.yul\":10190:10210   */\n      shl\n        /* \"#utility.yul\":10187:10188   */\n      0x00\n        /* \"#utility.yul\":10180:10211   */\n      mstore\n        /* \"#utility.yul\":10234:10238   */\n      0x12\n        /* \"#utility.yul\":10231:10232   */\n      0x04\n        /* \"#utility.yul\":10224:10239   */\n      mstore\n        /* \"#utility.yul\":10262:10266   */\n      0x24\n        /* \"#utility.yul\":10259:10260   */\n      0x00\n        /* \"#utility.yul\":10252:10267   */\n      revert\n        /* \"#utility.yul\":10145:10277   */\n    tag_867:\n      pop\n        /* \"#utility.yul\":10291:10300   */\n      div\n      swap1\n        /* \"#utility.yul\":10089:10306   */\n      jump\t// out\n        /* \"#utility.yul\":10311:10486   */\n    tag_482:\n        /* \"#utility.yul\":10348:10351   */\n      0x00\n        /* \"#utility.yul\":10392:10396   */\n      0xff\n        /* \"#utility.yul\":10385:10390   */\n      dup3\n        /* \"#utility.yul\":10381:10397   */\n      and\n        /* \"#utility.yul\":10421:10425   */\n      0xff\n        /* \"#utility.yul\":10412:10419   */\n      dup2\n        /* \"#utility.yul\":10409:10426   */\n      eq\n        /* \"#utility.yul\":10406:10449   */\n      iszero\n      tag_870\n      jumpi\n        /* \"#utility.yul\":10429:10447   */\n      tag_870\n      tag_802\n      jump\t// in\n    tag_870:\n        /* \"#utility.yul\":10478:10479   */\n      0x01\n        /* \"#utility.yul\":10465:10480   */\n      add\n      swap3\n        /* \"#utility.yul\":10311:10486   */\n      swap2\n      pop\n      pop\n      jump\t// out\n        /* \"#utility.yul\":15414:15691   */\n    tag_711:\n        /* \"#utility.yul\":15481:15487   */\n      0x00\n        /* \"#utility.yul\":15534:15536   */\n      0x20\n        /* \"#utility.yul\":15522:15531   */\n      dup3\n        /* \"#utility.yul\":15513:15520   */\n      dup5\n        /* \"#utility.yul\":15509:15532   */\n      sub\n        /* \"#utility.yul\":15505:15537   */\n      slt\n        /* \"#utility.yul\":15502:15554   */\n      iszero\n      tag_886\n      jumpi\n        /* \"#utility.yul\":15550:15551   */\n      0x00\n        /* \"#utility.yul\":15547:15548   */\n      dup1\n        /* \"#utility.yul\":15540:15552   */\n      revert\n        /* \"#utility.yul\":15502:15554   */\n    tag_886:\n        /* \"#utility.yul\":15582:15591   */\n      dup2\n        /* \"#utility.yul\":15576:15592   */\n      mload\n        /* \"#utility.yul\":15635:15640   */\n      dup1\n        /* \"#utility.yul\":15628:15641   */\n      iszero\n        /* \"#utility.yul\":15621:15642   */\n      iszero\n        /* \"#utility.yul\":15614:15619   */\n      dup2\n        /* \"#utility.yul\":15611:15643   */\n      eq\n        /* \"#utility.yul\":15601:15661   */\n      tag_518\n      jumpi\n        /* \"#utility.yul\":15657:15658   */\n      0x00\n        /* \"#utility.yul\":15654:15655   */\n      dup1\n        /* \"#utility.yul\":15647:15659   */\n      revert\n        /* \"#utility.yul\":15696:16103   */\n    tag_765:\n        /* \"#utility.yul\":15898:15900   */\n      0x20\n        /* \"#utility.yul\":15880:15901   */\n      dup1\n      dup3\n      mstore\n        /* \"#utility.yul\":15937:15939   */\n      0x2b\n        /* \"#utility.yul\":15917:15935   */\n      swap1\n      dup3\n      add\n        /* \"#utility.yul\":15910:15940   */\n      mstore\n        /* \"#utility.yul\":15976:16010   */\n      0x496e697469616c697a61626c653a20636f6e7472616374206973206e6f742069\n        /* \"#utility.yul\":15971:15973   */\n      0x40\n        /* \"#utility.yul\":15956:15974   */\n      dup3\n      add\n        /* \"#utility.yul\":15949:16011   */\n      mstore\n      shl(0xa8, 0x6e697469616c697a696e67)\n        /* \"#utility.yul\":16042:16044   */\n      0x60\n        /* \"#utility.yul\":16027:16045   */\n      dup3\n      add\n        /* \"#utility.yul\":16020:16061   */\n      mstore\n        /* \"#utility.yul\":16093:16096   */\n      0x80\n        /* \"#utility.yul\":16078:16097   */\n      add\n      swap1\n        /* \"#utility.yul\":15696:16103   */\n      jump\t// out\n\n    auxdata: 0xa264697066735822122000bc88f65ca4f436cebfc118dfc6d46b9fbc0aba2d0e3a8461b8cdab5bf095fd64736f6c634300080a0033\n}\n",
				"bytecode": {
					"linkReferences": {},
					"object": "608060405234801561001057600080fd5b50612fcd806100206000396000f3fe6080604052600436106102815760003560e01c8063a8d1dbfb1161014f578063d574ea3d116100c1578063ec1c0a991161007a578063ec1c0a9914610784578063f2fde38b1461079a578063f6326fb3146107ba578063f7b188a5146107c2578063f8ba8493146107d7578063fc7b9c18146107f757600080fd5b8063d574ea3d146106e4578063d5f63a0614610704578063d941e8ac1461071a578063ddb56b261461073a578063e322ad2b1461075a578063e941fa781461076f57600080fd5b8063b3f0067411610113578063b3f00674146105e2578063b53d095814610602578063c4c2d9b914610622578063c99f062f1461067f578063d463bc651461069f578063d4d2e7f2146106b457600080fd5b8063a8d1dbfb14610557578063abaa99161461056d578063ac18de4314610582578063ac1e5025146105a2578063af76d4bd146105c257600080fd5b80635c975abb116101f3578063767f06ae116101ac578063767f06ae146104b8578063796f69aa146104ce5780637c08b964146104ee5780638456cb591461050e5780638bc7e8c4146105235780638da5cb5b1461053957600080fd5b80635c975abb1461040957806367a527931461042d578063703bafd514610443578063715018a61461046357806372890dbd1461047857806372ff8a341461049857600080fd5b806345d34def1161024557806345d34def146103495780634782f77914610369578063490ae210146103895780634bee2ba2146103a957806352412d49146103c9578063597c8910146103e957600080fd5b806301e1d1141461028d578063085d4883146102af5780632d06177a146102e757806338d52e0f146103095780633e7628601461032957600080fd5b3661028857005b600080fd5b34801561029957600080fd5b50475b6040519081526020015b60405180910390f35b3480156102bb57600080fd5b5060d3546102cf906001600160a01b031681565b6040516001600160a01b0390911681526020016102a6565b3480156102f357600080fd5b50610307610302366004612c10565b61080d565b005b34801561031557600080fd5b5060d5546102cf906001600160a01b031681565b34801561033557600080fd5b5061029c610344366004612c2d565b610883565b34801561035557600080fd5b50610307610364366004612c6e565b610a85565b34801561037557600080fd5b5061029c610384366004612c6e565b610dd6565b34801561039557600080fd5b506103076103a4366004612c9a565b6110a8565b3480156103b557600080fd5b506103076103c4366004612c10565b611136565b3480156103d557600080fd5b5061029c6103e4366004612c10565b611188565b3480156103f557600080fd5b50610307610404366004612c10565b6111f2565b34801561041557600080fd5b5060655460ff165b60405190151581526020016102a6565b34801561043957600080fd5b5061029c60cb5481565b34801561044f57600080fd5b5060d4546102cf906001600160a01b031681565b34801561046f57600080fd5b5061030761124a565b34801561048457600080fd5b50610307610493366004612c10565b61125e565b3480156104a457600080fd5b506103076104b3366004612c6e565b6112d4565b3480156104c457600080fd5b5061029c60d05481565b3480156104da57600080fd5b506103076104e9366004612c10565b61136e565b3480156104fa57600080fd5b50610307610509366004612c10565b6113d7565b34801561051a57600080fd5b50610307611440565b34801561052f57600080fd5b5061029c60cd5481565b34801561054557600080fd5b506033546001600160a01b03166102cf565b34801561056357600080fd5b5061029c60cc5481565b34801561057957600080fd5b50610307611450565b34801561058e57600080fd5b5061030761059d366004612c10565b611617565b3480156105ae57600080fd5b506103076105bd366004612c9a565b611695565b3480156105ce57600080fd5b506103076105dd366004612c6e565b611723565b3480156105ee57600080fd5b5060d6546102cf906001600160a01b031681565b34801561060e57600080fd5b5061030761061d366004612c6e565b61175c565b34801561062e57600080fd5b5061066261063d366004612c10565b60c96020526000908152604090208054600182015460029092015460ff909116919083565b6040805193151584526020840192909252908201526060016102a6565b34801561068b57600080fd5b5060d7546102cf906001600160a01b031681565b3480156106ab57600080fd5b5061029c61179b565b3480156106c057600080fd5b5061041d6106cf366004612c10565b60ca6020526000908152604090205460ff1681565b3480156106f057600080fd5b506102cf6106ff366004612c9a565b6117c4565b34801561071057600080fd5b5061029c60cf5481565b34801561072657600080fd5b5061029c610735366004612c6e565b6117ee565b34801561074657600080fd5b50610307610755366004612c2d565b61185f565b34801561076657600080fd5b5061029c611b00565b34801561077b57600080fd5b50610307611b6e565b34801561079057600080fd5b5061029c60ce5481565b3480156107a657600080fd5b506103076107b5366004612c10565b611c7e565b61029c611cf4565b3480156107ce57600080fd5b50610307611e87565b3480156107e357600080fd5b506103076107f2366004612cb3565b611e97565b34801561080357600080fd5b5061029c60d15481565b6108156120c8565b6001600160a01b03811661082857600080fd5b6001600160a01b038116600081815260ca6020908152604091829020805460ff1916600117905590519182527f3b4a40cccf2058c593542587329dd385be4f0b588db5471fbd9598e56dd7093a91015b60405180910390a150565b6000600260975414156108b15760405162461bcd60e51b81526004016108a890612d03565b60405180910390fd5b60026097556108be612122565b6033546001600160a01b03163314806108e1575060d3546001600160a01b031633145b6108fd5760405162461bcd60e51b81526004016108a890612d3a565b600082116109495760405162461bcd60e51b81526020600482015260196024820152781a5b9d985b1a59081dda5d1a191c985dd85b08185b5bdd5b9d603a1b60448201526064016108a8565b6001600160a01b038416600090815260c960205260409020600201548211156109b45760405162461bcd60e51b815260206004820152601f60248201527f696e73756666696369656e742061737365747320696e2073747261746567790060448201526064016108a8565b60d454604051632770a7eb60e21b815233916001600160a01b031690639dc29fac906109e69084908790600401612d69565b600060405180830381600087803b158015610a0057600080fd5b505af1158015610a14573d6000803e3d6000fd5b50505050600060cd541115610a6a576000610a318460cd54612168565b60d654909150610a559087906001600160a01b0316610a508488612d98565b6121a5565b50610a618686836121a5565b92505050610a79565b610a758585856121a5565b9150505b60016097559392505050565b610a8d6120c8565b6001600160a01b038216610aa057600080fd5b60d05460d25410610af35760405162461bcd60e51b815260206004820152601760248201527f6d6178207374726174656769657320657863656564656400000000000000000060448201526064016108a8565b306001600160a01b0316826001600160a01b031663fbfa77cf6040518163ffffffff1660e01b8152600401602060405180830381865afa158015610b3b573d6000803e3d6000fd5b505050506040513d601f19601f82011682018060405250810190610b5f9190612daf565b6001600160a01b031614610ba85760405162461bcd60e51b815260206004820152601060248201526f696e76616c696420737472617465677960801b60448201526064016108a8565b6000805b60d254811015610cd857836001600160a01b031660d28281548110610bd357610bd3612dcc565b6000918252602090912001546001600160a01b03161415610c365760405162461bcd60e51b815260206004820152601760248201527f737472617465677920616c72656164792065786973747300000000000000000060448201526064016108a8565b60c9600060d28381548110610c4d57610c4d612dcc565b60009182526020808320909101546001600160a01b0316835282019290925260400190205460ff1615610cc65760c9600060d28381548110610c9157610c91612dcc565b60009182526020808320909101546001600160a01b03168352820192909252604001902060010154610cc39083612de2565b91505b80610cd081612dfa565b915050610bac565b50620f4240610ce78383612de2565b1115610d055760405162461bcd60e51b81526004016108a890612e15565b604080516060810182526001808252602080830186815260008486018181526001600160a01b038a1680835260c99094528682208651815460ff19169015151781559251838601555160029092019190915560d28054938401815590527ff2192e1030363415d7b4fb0406540a0060e8e2fc8982f3f32289379e11fa654690910180546001600160a01b031916909117905590517f2f564a83158ad1831793ad3e69257b52f39ece5d49cb0d8746708ecb9ef964da90610dc89086908690612d69565b60405180910390a150505050565b600060026097541415610dfb5760405162461bcd60e51b81526004016108a890612d03565b6002609755610e08612122565b6033546001600160a01b0316331480610e2b575060d3546001600160a01b031633145b610e475760405162461bcd60e51b81526004016108a890612d3a565b60d454604051632770a7eb60e21b815233916001600160a01b031690639dc29fac90610e799084908790600401612d69565b600060405180830381600087803b158015610e9357600080fd5b505af1158015610ea7573d6000803e3d6000fd5b505050506000610eb561179b565b9050610ec38460cd54612168565b9250610ecf8385612d98565b60cf6000828254610ee09190612de2565b909155505082811015610fde576000856001600160a01b03168260405160006040518083038185875af1925050503d8060008114610f3a576040519150601f19603f3d011682016040523d82523d6000602084013e610f3f565b606091505b5050905080610f605760405162461bcd60e51b81526004016108a890612e59565b6000610f7587610f708588612d98565b6122a4565b9050610f818386612d98565b811115610fcb5760405162461bcd60e51b81526020600482015260186024820152771a5b9d985b1a59081dda5d1a191c985ddb88185b5bdd5b9d60421b60448201526064016108a8565b610fd58184612de2565b94505050611053565b6000856001600160a01b03168460405160006040518083038185875af1925050503d806000811461102b576040519150601f19603f3d011682016040523d82523d6000602084013e611030565b606091505b50509050806110515760405162461bcd60e51b81526004016108a890612e59565b505b60408051858152602081018590526001600160a01b03841691829182917ffbde797d201c681b91056529119e0b02407c7bb96a4a2c75c01fc9667232c8db910160405180910390a45050600160975592915050565b6110b06120c8565b8060cc54116111015760405162461bcd60e51b815260206004820152601760248201527f6d6f7265207468616e206d61784465706f73697446656500000000000000000060448201526064016108a8565b60cb8190556040518181527f2a6f1084651542f3142c70f4c43c096d016a8b517c063660b146268f646ea43a90602001610878565b33600090815260ca602052604090205460ff166111655760405162461bcd60e51b81526004016108a890612e82565b600061116f61179b565b905061117b8282612492565b61118457600080fd5b5050565b6000816001600160a01b0316636b0f1c816040518163ffffffff1660e01b8152600401602060405180830381865afa1580156111c8573d6000803e3d6000fd5b505050506040513d601f19601f820116820180604052508101906111ec9190612eb0565b92915050565b33600090815260ca602052604090205460ff166112215760405162461bcd60e51b81526004016108a890612e82565b6001600160a01b038116600090815260c9602052604090206002015461118490829030906126b5565b6112526120c8565b61125c60006128a7565b565b33600090815260ca602052604090205460ff1661128d5760405162461bcd60e51b81526004016108a890612e82565b611296816128f9565b1561129e5750565b6001600160a01b038116600090815260c960205260409020600201546112c790829030906126b5565b50611184816128f9565b50565b6112dc6120c8565b6001600160a01b0382166112ef57600080fd5b6001600160a01b038216600090815260c96020526040902060010181905561131561294a565b6113315760405162461bcd60e51b81526004016108a890612e15565b7f12550b3055a78afe91da1a02a6e99583200fe1b2f7f571269bb013ff3f7c05e88282604051611362929190612d69565b60405180910390a15050565b6113766120c8565b6001600160a01b03811661138957600080fd5b60d380546001600160a01b0319166001600160a01b0383169081179091556040519081527fa480657dfd615e3ba406b865a0da683507aeeb1b3e8206eb2c080bc1c0b23e8290602001610878565b6113df6120c8565b6001600160a01b0381166113f257600080fd5b60d680546001600160a01b0319166001600160a01b0383169081179091556040519081527f647672599d3468abcfa241a13c9e3d34383caadb5cc80fb67c3cdfcd5f78605990602001610878565b6114486120c8565b61125c612a08565b33600090815260ca602052604090205460ff1661147f5760405162461bcd60e51b81526004016108a890612e82565b60005b60d25460ff821610156112d15760c9600060d28360ff16815481106114a9576114a9612dcc565b60009182526020808320909101546001600160a01b0316835282019290925260400190205460ff161561160557600060c9600060d28460ff16815481106114f2576114f2612dcc565b60009182526020808320909101546001600160a01b0316835282810193909352604091820190208151606081018352815460ff16151581526001820154938101849052600290910154918101919091529150801561160257600060d15461155761179b565b6115619190612de2565b90506000818460400151620f42406115799190612ec9565b6115839190612ee8565b9050828110156115ff576040840151600090620f42406115a38686612ec9565b6115ad9190612ee8565b6115b79190612d98565b9050806115c261179b565b106115fd576115fb60d28760ff16815481106115e0576115e0612dcc565b6000918252602090912001546001600160a01b031682612492565b505b505b50505b50505b8061160f81612f0a565b915050611482565b61161f6120c8565b6001600160a01b038116600090815260ca602052604090205460ff1661164457600080fd5b6001600160a01b038116600081815260ca6020908152604091829020805460ff1916905590519182527fef69f7d97228658c92417be1b16b19058315de71fecb435d07b7d23728b6bd319101610878565b61169d6120c8565b8060ce54116116ee5760405162461bcd60e51b815260206004820152601a60248201527f6d6f7265207468616e206d61785769746864726177616c46656500000000000060448201526064016108a8565b60cd8190556040518181527ffc1353e6b18ce07b5a979c8edf77a87455939a17a9eebbb084dcde5bfb3b19ac90602001610878565b33600090815260ca602052604090205460ff166117525760405162461bcd60e51b81526004016108a890612e82565b61117b8282612492565b33600090815260ca602052604090205460ff1661178b5760405162461bcd60e51b81526004016108a890612e82565b6117968230836126b5565b505050565b600060cf546117a74790565b116117b25750600090565b60cf546117bf9047612d98565b905090565b60d281815481106117d457600080fd5b6000918252602090912001546001600160a01b0316905081565b604051624bad4360e01b8152600481018290526000906001600160a01b03841690624bad4390602401602060405180830381865afa158015611834573d6000803e3d6000fd5b505050506040513d601f19601f820116820180604052508101906118589190612eb0565b9392505050565b33600090815260ca602052604090205460ff1661188e5760405162461bcd60e51b81526004016108a890612e82565b6001600160a01b0383166118a157600080fd5b6001600160a01b0382166118b457600080fd5b6001600160a01b038316600090815260c960205260409020600201548015611953576001600160a01b038416600090815260c960205260408120600201546118ff90869030906126b5565b9050600081116119515760405162461bcd60e51b815260206004820152601d60248201527f63616e6e6f742077697468647261772066726f6d20737472617465677900000060448201526064016108a8565b505b604080516060810182526001815260208101849052600091810182905290805b60d254811015611a3b57866001600160a01b031660d2828154811061199a5761199a612dcc565b6000918252602090912001546001600160a01b03161415611a2957600191508560d282815481106119cd576119cd612dcc565b600091825260208083209190910180546001600160a01b0319166001600160a01b03948516179055918816815260c982526040908190208551815460ff1916901515178155918501516001830155840151600290910155611a3b565b80611a3381612dfa565b915050611973565b5080611a895760405162461bcd60e51b815260206004820152601b60248201527f696e76616c6964206f6c6453747261746567792061646472657373000000000060448201526064016108a8565b611a9161294a565b611aad5760405162461bcd60e51b81526004016108a890612e15565b604080516001600160a01b038089168252871660208201529081018590527ff55572e1238e3cef1cce627268598c0bcdc71b7316311157752ae0a2e920998c9060600160405180910390a1505050505050565b6000805b60d25460ff82161015611b5b5760d28160ff1681548110611b2757611b27612dcc565b600091825260209091200154611b47906001600160a01b03163183612de2565b915080611b5381612f0a565b915050611b04565b50611b6461179b565b6117bf9082612de2565b60026097541415611b915760405162461bcd60e51b81526004016108a890612d03565b6002609755611b9e6120c8565b600060cf54118015611bb2575060cf544710155b15611c7757600060cf81905560d6546040516001600160a01b039091169082908181818181875af1925050503d8060008114611c0a576040519150601f19603f3d011682016040523d82523d6000602084013e611c0f565b606091505b5050905080611c305760405162461bcd60e51b81526004016108a890612e59565b60d65460cf546040519081526001600160a01b03909116907f20ca5094f3a20c321cbe4123d0f01b276b81df0fa24cd4d83d9253956035d8639060200160405180910390a2505b6001609755565b611c866120c8565b6001600160a01b038116611ceb5760405162461bcd60e51b815260206004820152602660248201527f4f776e61626c653a206e6577206f776e657220697320746865207a65726f206160448201526564647265737360d01b60648201526084016108a8565b6112d1816128a7565b600060026097541415611d195760405162461bcd60e51b81526004016108a890612d03565b6002609755611d26612122565b6033546001600160a01b0316331480611d49575060d3546001600160a01b031633145b611d655760405162461bcd60e51b81526004016108a890612d3a565b333480611da55760405162461bcd60e51b815260206004820152600e60248201526d1a5b9d985b1a5908185b5bdd5b9d60921b60448201526064016108a8565b611db18160cb54612168565b9250611dbd8382612d98565b60cf6000828254611dce9190612de2565b909155505060d4546040516340c10f1960e01b81526001600160a01b03909116906340c10f1990611e059085908790600401612d69565b600060405180830381600087803b158015611e1f57600080fd5b505af1158015611e33573d6000803e3d6000fd5b505060408051848152602081018790526001600160a01b03861693508392507fdcbc1c05240f31ff3ad067ef1ee35ce4997762752e3a095284754544f4c709d7910160405180910390a35050600160975590565b611e8f6120c8565b61125c612a62565b600054610100900460ff1615808015611eb75750600054600160ff909116105b80611ed15750303b158015611ed1575060005460ff166001145b611f345760405162461bcd60e51b815260206004820152602e60248201527f496e697469616c697a61626c653a20636f6e747261637420697320616c72656160448201526d191e481a5b9a5d1a585b1a5e995960921b60648201526084016108a8565b6000805460ff191660011790558015611f57576000805461ff0019166101001790555b600085118015611f6a5750620f42408511155b611fae5760405162461bcd60e51b8152602060048201526015602482015274696e76616c6964206d61784465706f73697446656560581b60448201526064016108a8565b600084118015611fc15750620f42408411155b61200d5760405162461bcd60e51b815260206004820152601960248201527f696e76616c6964206d61785769746864726177616c466565730000000000000060448201526064016108a8565b612015612a9b565b61201d612aca565b612025612af9565b33600081815260ca60205260409020805460ff1916600117905560cc86905560ce85905560ff841660d05560d680546001600160a01b0319908116909217905560d480546001600160a01b038516921691909117905580156120c1576000805461ff0019169055604051600181527f7f26b83ff96e1f2b6a682f133852f6798a09c465da95921460cefb38474024989060200160405180910390a15b5050505050565b6033546001600160a01b0316331461125c5760405162461bcd60e51b815260206004820181905260248201527f4f776e61626c653a2063616c6c6572206973206e6f7420746865206f776e657260448201526064016108a8565b60655460ff161561125c5760405162461bcd60e51b815260206004820152601060248201526f14185d5cd8589b194e881c185d5cd95960821b60448201526064016108a8565b6000811561219e576000620f42406121808486612ec9565b61218a9190612ee8565b90506121968185612d98565b9150506111ec565b50816111ec565b600080846001600160a01b031663be19b9c585856040518363ffffffff1660e01b81526004016121d6929190612d69565b6020604051808303816000875af11580156121f5573d6000803e3d6000fd5b505050506040513d601f19601f820116820180604052508101906122199190612eb0565b90508260d1600082825461222d9190612d98565b90915550506001600160a01b038516600090815260c960205260408120600201805485929061225d908490612d98565b90915550506040517ff40c4f28536139446cdedffe635e5fc0de1986a5ae5f1636ab5f6b44c23468ab906122949087908690612d69565b60405180910390a1949350505050565b6000805b60d25460ff8216101561248b5760c9600060d28360ff16815481106122cf576122cf612dcc565b60009182526020808320909101546001600160a01b0316835282019290925260400190205460ff1680156123445750600060c9600060d28460ff168154811061231a5761231a612dcc565b60009182526020808320909101546001600160a01b03168352820192909252604001902060020154115b801561234f57508282105b156124795761235e8284612d98565b60c9600060d28460ff168154811061237857612378612dcc565b60009182526020808320909101546001600160a01b03168352820192909252604001902060020154106123ed576123e360d28260ff16815481106123be576123be612dcc565b6000918252602090912001546001600160a01b0316856123de8587612d98565b6126b5565b6121969083612de2565b61246c60d28260ff168154811061240657612406612dcc565b9060005260206000200160009054906101000a90046001600160a01b03168560c9600060d28660ff168154811061243f5761243f612dcc565b60009182526020808320909101546001600160a01b031683528201929092526040019020600201546126b5565b6124769083612de2565b91505b8061248381612f0a565b9150506122a8565b5092915050565b60008082116124dc5760405162461bcd60e51b81526020600482015260166024820152751a5b9d985b1a590819195c1bdcda5d08185b5bdd5b9d60521b60448201526064016108a8565b816124e561179b565b101561252a5760405162461bcd60e51b8152602060048201526014602482015273696e73756666696369656e742062616c616e636560601b60448201526064016108a8565b6001600160a01b038316600090815260c9602052604090205460ff1680156125b65750604051631ca21dc760e11b8152600481018390526001600160a01b038416906339443b8e90602401602060405180830381865afa158015612592573d6000803e3d6000fd5b505050506040513d601f19601f820116820180604052508101906125b69190612f2a565b156111ec576000836001600160a01b031663d0e30db0846040518263ffffffff1660e01b815260040160206040518083038185885af11580156125fd573d6000803e3d6000fd5b50505050506040513d601f19601f820116820180604052508101906126229190612eb0565b9050801561248b578060d1600082825461263c9190612de2565b90915550506001600160a01b038416600090815260c960205260408120600201805483929061266c908490612de2565b90915550506040517ff47c2ba90b71ef36b592a780f1d750d3a480494fdc7c9b84bb3f9d8de8a1b40a906126a39086908690612d69565b60405180910390a160019150506111ec565b60008082116127025760405162461bcd60e51b81526020600482015260196024820152781a5b9d985b1a59081dda5d1a191c985dd85b08185b5bdd5b9d603a1b60448201526064016108a8565b6001600160a01b038416600090815260c9602052604090206002015482111561276d5760405162461bcd60e51b815260206004820152601f60248201527f696e73756666696369656e742061737365747320696e2073747261746567790060448201526064016108a8565b60405163f3fef3a360e01b81526000906001600160a01b0386169063f3fef3a39061279e9087908790600401612d69565b6020604051808303816000875af11580156127bd573d6000803e3d6000fd5b505050506040513d601f19601f820116820180604052508101906127e19190612eb0565b90508281111561282e5760405162461bcd60e51b81526020600482015260186024820152771a5b9d985b1a59081dda5d1a191c985ddb88185b5bdd5b9d60421b60448201526064016108a8565b8260d160008282546128409190612d98565b90915550506001600160a01b038516600090815260c9602052604081206002018054859290612870908490612d98565b90915550506040517fd442d8f1594fc5996caed833eb6135a4c223a05bdbed778c0d8415a52eb87fea906122949087908690612d69565b603380546001600160a01b038381166001600160a01b0319831681179093556040519116919082907f8be0079c531659141344cd1fd0a4f28419497f9722a3daafe3b4186f6b6457e090600090a35050565b6001600160a01b038116600090815260c96020526040812060020154600a1061294557506001600160a01b0316600090815260c960205260408120805460ff1916815560020155600190565b919050565b60008060005b60d2548110156129fc5760c9600060d2838154811061297157612971612dcc565b60009182526020808320909101546001600160a01b0316835282019290925260400190205460ff16156129ea5760c9600060d283815481106129b5576129b5612dcc565b60009182526020808320909101546001600160a01b031683528201929092526040019020600101546129e79083612de2565b91505b806129f481612dfa565b915050612950565b50620f42401015919050565b612a10612122565b6065805460ff191660011790557f62e78cea01bee320cd4e420270b5ea74000d11b0c9f74754ebdbfc544b05a258612a453390565b6040516001600160a01b03909116815260200160405180910390a1565b612a6a612b28565b6065805460ff191690557f5db9ee0a495bf2e6ff9c91a7834c1ba4fdd244a5e8aa4e537bd38aeae4b073aa33612a45565b600054610100900460ff16612ac25760405162461bcd60e51b81526004016108a890612f4c565b61125c612b71565b600054610100900460ff16612af15760405162461bcd60e51b81526004016108a890612f4c565b61125c612ba1565b600054610100900460ff16612b205760405162461bcd60e51b81526004016108a890612f4c565b61125c612bd4565b60655460ff1661125c5760405162461bcd60e51b815260206004820152601460248201527314185d5cd8589b194e881b9bdd081c185d5cd95960621b60448201526064016108a8565b600054610100900460ff16612b985760405162461bcd60e51b81526004016108a890612f4c565b61125c336128a7565b600054610100900460ff16612bc85760405162461bcd60e51b81526004016108a890612f4c565b6065805460ff19169055565b600054610100900460ff16611c775760405162461bcd60e51b81526004016108a890612f4c565b6001600160a01b03811681146112d157600080fd5b600060208284031215612c2257600080fd5b813561185881612bfb565b600080600060608486031215612c4257600080fd5b8335612c4d81612bfb565b92506020840135612c5d81612bfb565b929592945050506040919091013590565b60008060408385031215612c8157600080fd5b8235612c8c81612bfb565b946020939093013593505050565b600060208284031215612cac57600080fd5b5035919050565b60008060008060808587031215612cc957600080fd5b8435935060208501359250604085013560ff81168114612ce857600080fd5b91506060850135612cf881612bfb565b939692955090935050565b6020808252601f908201527f5265656e7472616e637947756172643a207265656e7472616e742063616c6c00604082015260600190565b602080825260159082015274141c9bdd9a59195c8e881b9bdd08185b1b1bddd959605a1b604082015260600190565b6001600160a01b03929092168252602082015260400190565b634e487b7160e01b600052601160045260246000fd5b600082821015612daa57612daa612d82565b500390565b600060208284031215612dc157600080fd5b815161185881612bfb565b634e487b7160e01b600052603260045260246000fd5b60008219821115612df557612df5612d82565b500190565b6000600019821415612e0e57612e0e612d82565b5060010190565b60208082526024908201527f616c6c6f636174696f6e732063616e6e6f74206265206d6f7265207468616e206040820152633130302560e01b606082015260800190565b6020808252600f908201526e1d1c985b9cd9995c8819985a5b1959608a1b604082015260600190565b60208082526014908201527313585b9859d95c8e881b9bdd08185b1b1bddd95960621b604082015260600190565b600060208284031215612ec257600080fd5b5051919050565b6000816000190483118215151615612ee357612ee3612d82565b500290565b600082612f0557634e487b7160e01b600052601260045260246000fd5b500490565b600060ff821660ff811415612f2157612f21612d82565b60010192915050565b600060208284031215612f3c57600080fd5b8151801515811461185857600080fd5b6020808252602b908201527f496e697469616c697a61626c653a20636f6e7472616374206973206e6f74206960408201526a6e697469616c697a696e6760a81b60608201526080019056fea264697066735822122000bc88f65ca4f436cebfc118dfc6d46b9fbc0aba2d0e3a8461b8cdab5bf095fd64736f6c634300080a0033",
					"opcodes": "PUSH1 0x80 PUSH1 0x40 MSTORE CALLVALUE DUP1 ISZERO PUSH2 0x10 JUMPI PUSH1 0x0 DUP1 REVERT JUMPDEST POP PUSH2 0x2FCD DUP1 PUSH2 0x20 PUSH1 0x0 CODECOPY PUSH1 0x0 RETURN INVALID PUSH1 0x80 PUSH1 0x40 MSTORE PUSH1 0x4 CALLDATASIZE LT PUSH2 0x281 JUMPI PUSH1 0x0 CALLDATALOAD PUSH1 0xE0 SHR DUP1 PUSH4 0xA8D1DBFB GT PUSH2 0x14F JUMPI DUP1 PUSH4 0xD574EA3D GT PUSH2 0xC1 JUMPI DUP1 PUSH4 0xEC1C0A99 GT PUSH2 0x7A JUMPI DUP1 PUSH4 0xEC1C0A99 EQ PUSH2 0x784 JUMPI DUP1 PUSH4 0xF2FDE38B EQ PUSH2 0x79A JUMPI DUP1 PUSH4 0xF6326FB3 EQ PUSH2 0x7BA JUMPI DUP1 PUSH4 0xF7B188A5 EQ PUSH2 0x7C2 JUMPI DUP1 PUSH4 0xF8BA8493 EQ PUSH2 0x7D7 JUMPI DUP1 PUSH4 0xFC7B9C18 EQ PUSH2 0x7F7 JUMPI PUSH1 0x0 DUP1 REVERT JUMPDEST DUP1 PUSH4 0xD574EA3D EQ PUSH2 0x6E4 JUMPI DUP1 PUSH4 0xD5F63A06 EQ PUSH2 0x704 JUMPI DUP1 PUSH4 0xD941E8AC EQ PUSH2 0x71A JUMPI DUP1 PUSH4 0xDDB56B26 EQ PUSH2 0x73A JUMPI DUP1 PUSH4 0xE322AD2B EQ PUSH2 0x75A JUMPI DUP1 PUSH4 0xE941FA78 EQ PUSH2 0x76F JUMPI PUSH1 0x0 DUP1 REVERT JUMPDEST DUP1 PUSH4 0xB3F00674 GT PUSH2 0x113 JUMPI DUP1 PUSH4 0xB3F00674 EQ PUSH2 0x5E2 JUMPI DUP1 PUSH4 0xB53D0958 EQ PUSH2 0x602 JUMPI DUP1 PUSH4 0xC4C2D9B9 EQ PUSH2 0x622 JUMPI DUP1 PUSH4 0xC99F062F EQ PUSH2 0x67F JUMPI DUP1 PUSH4 0xD463BC65 EQ PUSH2 0x69F JUMPI DUP1 PUSH4 0xD4D2E7F2 EQ PUSH2 0x6B4 JUMPI PUSH1 0x0 DUP1 REVERT JUMPDEST DUP1 PUSH4 0xA8D1DBFB EQ PUSH2 0x557 JUMPI DUP1 PUSH4 0xABAA9916 EQ PUSH2 0x56D JUMPI DUP1 PUSH4 0xAC18DE43 EQ PUSH2 0x582 JUMPI DUP1 PUSH4 0xAC1E5025 EQ PUSH2 0x5A2 JUMPI DUP1 PUSH4 0xAF76D4BD EQ PUSH2 0x5C2 JUMPI PUSH1 0x0 DUP1 REVERT JUMPDEST DUP1 PUSH4 0x5C975ABB GT PUSH2 0x1F3 JUMPI DUP1 PUSH4 0x767F06AE GT PUSH2 0x1AC JUMPI DUP1 PUSH4 0x767F06AE EQ PUSH2 0x4B8 JUMPI DUP1 PUSH4 0x796F69AA EQ PUSH2 0x4CE JUMPI DUP1 PUSH4 0x7C08B964 EQ PUSH2 0x4EE JUMPI DUP1 PUSH4 0x8456CB59 EQ PUSH2 0x50E JUMPI DUP1 PUSH4 0x8BC7E8C4 EQ PUSH2 0x523 JUMPI DUP1 PUSH4 0x8DA5CB5B EQ PUSH2 0x539 JUMPI PUSH1 0x0 DUP1 REVERT JUMPDEST DUP1 PUSH4 0x5C975ABB EQ PUSH2 0x409 JUMPI DUP1 PUSH4 0x67A52793 EQ PUSH2 0x42D JUMPI DUP1 PUSH4 0x703BAFD5 EQ PUSH2 0x443 JUMPI DUP1 PUSH4 0x715018A6 EQ PUSH2 0x463 JUMPI DUP1 PUSH4 0x72890DBD EQ PUSH2 0x478 JUMPI DUP1 PUSH4 0x72FF8A34 EQ PUSH2 0x498 JUMPI PUSH1 0x0 DUP1 REVERT JUMPDEST DUP1 PUSH4 0x45D34DEF GT PUSH2 0x245 JUMPI DUP1 PUSH4 0x45D34DEF EQ PUSH2 0x349 JUMPI DUP1 PUSH4 0x4782F779 EQ PUSH2 0x369 JUMPI DUP1 PUSH4 0x490AE210 EQ PUSH2 0x389 JUMPI DUP1 PUSH4 0x4BEE2BA2 EQ PUSH2 0x3A9 JUMPI DUP1 PUSH4 0x52412D49 EQ PUSH2 0x3C9 JUMPI DUP1 PUSH4 0x597C8910 EQ PUSH2 0x3E9 JUMPI PUSH1 0x0 DUP1 REVERT JUMPDEST DUP1 PUSH4 0x1E1D114 EQ PUSH2 0x28D JUMPI DUP1 PUSH4 0x85D4883 EQ PUSH2 0x2AF JUMPI DUP1 PUSH4 0x2D06177A EQ PUSH2 0x2E7 JUMPI DUP1 PUSH4 0x38D52E0F EQ PUSH2 0x309 JUMPI DUP1 PUSH4 0x3E762860 EQ PUSH2 0x329 JUMPI PUSH1 0x0 DUP1 REVERT JUMPDEST CALLDATASIZE PUSH2 0x288 JUMPI STOP JUMPDEST PUSH1 0x0 DUP1 REVERT JUMPDEST CALLVALUE DUP1 ISZERO PUSH2 0x299 JUMPI PUSH1 0x0 DUP1 REVERT JUMPDEST POP SELFBALANCE JUMPDEST PUSH1 0x40 MLOAD SWAP1 DUP2 MSTORE PUSH1 0x20 ADD JUMPDEST PUSH1 0x40 MLOAD DUP1 SWAP2 SUB SWAP1 RETURN JUMPDEST CALLVALUE DUP1 ISZERO PUSH2 0x2BB JUMPI PUSH1 0x0 DUP1 REVERT JUMPDEST POP PUSH1 0xD3 SLOAD PUSH2 0x2CF SWAP1 PUSH1 0x1 PUSH1 0x1 PUSH1 0xA0 SHL SUB AND DUP2 JUMP JUMPDEST PUSH1 0x40 MLOAD PUSH1 0x1 PUSH1 0x1 PUSH1 0xA0 SHL SUB SWAP1 SWAP2 AND DUP2 MSTORE PUSH1 0x20 ADD PUSH2 0x2A6 JUMP JUMPDEST CALLVALUE DUP1 ISZERO PUSH2 0x2F3 JUMPI PUSH1 0x0 DUP1 REVERT JUMPDEST POP PUSH2 0x307 PUSH2 0x302 CALLDATASIZE PUSH1 0x4 PUSH2 0x2C10 JUMP JUMPDEST PUSH2 0x80D JUMP JUMPDEST STOP JUMPDEST CALLVALUE DUP1 ISZERO PUSH2 0x315 JUMPI PUSH1 0x0 DUP1 REVERT JUMPDEST POP PUSH1 0xD5 SLOAD PUSH2 0x2CF SWAP1 PUSH1 0x1 PUSH1 0x1 PUSH1 0xA0 SHL SUB AND DUP2 JUMP JUMPDEST CALLVALUE DUP1 ISZERO PUSH2 0x335 JUMPI PUSH1 0x0 DUP1 REVERT JUMPDEST POP PUSH2 0x29C PUSH2 0x344 CALLDATASIZE PUSH1 0x4 PUSH2 0x2C2D JUMP JUMPDEST PUSH2 0x883 JUMP JUMPDEST CALLVALUE DUP1 ISZERO PUSH2 0x355 JUMPI PUSH1 0x0 DUP1 REVERT JUMPDEST POP PUSH2 0x307 PUSH2 0x364 CALLDATASIZE PUSH1 0x4 PUSH2 0x2C6E JUMP JUMPDEST PUSH2 0xA85 JUMP JUMPDEST CALLVALUE DUP1 ISZERO PUSH2 0x375 JUMPI PUSH1 0x0 DUP1 REVERT JUMPDEST POP PUSH2 0x29C PUSH2 0x384 CALLDATASIZE PUSH1 0x4 PUSH2 0x2C6E JUMP JUMPDEST PUSH2 0xDD6 JUMP JUMPDEST CALLVALUE DUP1 ISZERO PUSH2 0x395 JUMPI PUSH1 0x0 DUP1 REVERT JUMPDEST POP PUSH2 0x307 PUSH2 0x3A4 CALLDATASIZE PUSH1 0x4 PUSH2 0x2C9A JUMP JUMPDEST PUSH2 0x10A8 JUMP JUMPDEST CALLVALUE DUP1 ISZERO PUSH2 0x3B5 JUMPI PUSH1 0x0 DUP1 REVERT JUMPDEST POP PUSH2 0x307 PUSH2 0x3C4 CALLDATASIZE PUSH1 0x4 PUSH2 0x2C10 JUMP JUMPDEST PUSH2 0x1136 JUMP JUMPDEST CALLVALUE DUP1 ISZERO PUSH2 0x3D5 JUMPI PUSH1 0x0 DUP1 REVERT JUMPDEST POP PUSH2 0x29C PUSH2 0x3E4 CALLDATASIZE PUSH1 0x4 PUSH2 0x2C10 JUMP JUMPDEST PUSH2 0x1188 JUMP JUMPDEST CALLVALUE DUP1 ISZERO PUSH2 0x3F5 JUMPI PUSH1 0x0 DUP1 REVERT JUMPDEST POP PUSH2 0x307 PUSH2 0x404 CALLDATASIZE PUSH1 0x4 PUSH2 0x2C10 JUMP JUMPDEST PUSH2 0x11F2 JUMP JUMPDEST CALLVALUE DUP1 ISZERO PUSH2 0x415 JUMPI PUSH1 0x0 DUP1 REVERT JUMPDEST POP PUSH1 0x65 SLOAD PUSH1 0xFF AND JUMPDEST PUSH1 0x40 MLOAD SWAP1 ISZERO ISZERO DUP2 MSTORE PUSH1 0x20 ADD PUSH2 0x2A6 JUMP JUMPDEST CALLVALUE DUP1 ISZERO PUSH2 0x439 JUMPI PUSH1 0x0 DUP1 REVERT JUMPDEST POP PUSH2 0x29C PUSH1 0xCB SLOAD DUP2 JUMP JUMPDEST CALLVALUE DUP1 ISZERO PUSH2 0x44F JUMPI PUSH1 0x0 DUP1 REVERT JUMPDEST POP PUSH1 0xD4 SLOAD PUSH2 0x2CF SWAP1 PUSH1 0x1 PUSH1 0x1 PUSH1 0xA0 SHL SUB AND DUP2 JUMP JUMPDEST CALLVALUE DUP1 ISZERO PUSH2 0x46F JUMPI PUSH1 0x0 DUP1 REVERT JUMPDEST POP PUSH2 0x307 PUSH2 0x124A JUMP JUMPDEST CALLVALUE DUP1 ISZERO PUSH2 0x484 JUMPI PUSH1 0x0 DUP1 REVERT JUMPDEST POP PUSH2 0x307 PUSH2 0x493 CALLDATASIZE PUSH1 0x4 PUSH2 0x2C10 JUMP JUMPDEST PUSH2 0x125E JUMP JUMPDEST CALLVALUE DUP1 ISZERO PUSH2 0x4A4 JUMPI PUSH1 0x0 DUP1 REVERT JUMPDEST POP PUSH2 0x307 PUSH2 0x4B3 CALLDATASIZE PUSH1 0x4 PUSH2 0x2C6E JUMP JUMPDEST PUSH2 0x12D4 JUMP JUMPDEST CALLVALUE DUP1 ISZERO PUSH2 0x4C4 JUMPI PUSH1 0x0 DUP1 REVERT JUMPDEST POP PUSH2 0x29C PUSH1 0xD0 SLOAD DUP2 JUMP JUMPDEST CALLVALUE DUP1 ISZERO PUSH2 0x4DA JUMPI PUSH1 0x0 DUP1 REVERT JUMPDEST POP PUSH2 0x307 PUSH2 0x4E9 CALLDATASIZE PUSH1 0x4 PUSH2 0x2C10 JUMP JUMPDEST PUSH2 0x136E JUMP JUMPDEST CALLVALUE DUP1 ISZERO PUSH2 0x4FA JUMPI PUSH1 0x0 DUP1 REVERT JUMPDEST POP PUSH2 0x307 PUSH2 0x509 CALLDATASIZE PUSH1 0x4 PUSH2 0x2C10 JUMP JUMPDEST PUSH2 0x13D7 JUMP JUMPDEST CALLVALUE DUP1 ISZERO PUSH2 0x51A JUMPI PUSH1 0x0 DUP1 REVERT JUMPDEST POP PUSH2 0x307 PUSH2 0x1440 JUMP JUMPDEST CALLVALUE DUP1 ISZERO PUSH2 0x52F JUMPI PUSH1 0x0 DUP1 REVERT JUMPDEST POP PUSH2 0x29C PUSH1 0xCD SLOAD DUP2 JUMP JUMPDEST CALLVALUE DUP1 ISZERO PUSH2 0x545 JUMPI PUSH1 0x0 DUP1 REVERT JUMPDEST POP PUSH1 0x33 SLOAD PUSH1 0x1 PUSH1 0x1 PUSH1 0xA0 SHL SUB AND PUSH2 0x2CF JUMP JUMPDEST CALLVALUE DUP1 ISZERO PUSH2 0x563 JUMPI PUSH1 0x0 DUP1 REVERT JUMPDEST POP PUSH2 0x29C PUSH1 0xCC SLOAD DUP2 JUMP JUMPDEST CALLVALUE DUP1 ISZERO PUSH2 0x579 JUMPI PUSH1 0x0 DUP1 REVERT JUMPDEST POP PUSH2 0x307 PUSH2 0x1450 JUMP JUMPDEST CALLVALUE DUP1 ISZERO PUSH2 0x58E JUMPI PUSH1 0x0 DUP1 REVERT JUMPDEST POP PUSH2 0x307 PUSH2 0x59D CALLDATASIZE PUSH1 0x4 PUSH2 0x2C10 JUMP JUMPDEST PUSH2 0x1617 JUMP JUMPDEST CALLVALUE DUP1 ISZERO PUSH2 0x5AE JUMPI PUSH1 0x0 DUP1 REVERT JUMPDEST POP PUSH2 0x307 PUSH2 0x5BD CALLDATASIZE PUSH1 0x4 PUSH2 0x2C9A JUMP JUMPDEST PUSH2 0x1695 JUMP JUMPDEST CALLVALUE DUP1 ISZERO PUSH2 0x5CE JUMPI PUSH1 0x0 DUP1 REVERT JUMPDEST POP PUSH2 0x307 PUSH2 0x5DD CALLDATASIZE PUSH1 0x4 PUSH2 0x2C6E JUMP JUMPDEST PUSH2 0x1723 JUMP JUMPDEST CALLVALUE DUP1 ISZERO PUSH2 0x5EE JUMPI PUSH1 0x0 DUP1 REVERT JUMPDEST POP PUSH1 0xD6 SLOAD PUSH2 0x2CF SWAP1 PUSH1 0x1 PUSH1 0x1 PUSH1 0xA0 SHL SUB AND DUP2 JUMP JUMPDEST CALLVALUE DUP1 ISZERO PUSH2 0x60E JUMPI PUSH1 0x0 DUP1 REVERT JUMPDEST POP PUSH2 0x307 PUSH2 0x61D CALLDATASIZE PUSH1 0x4 PUSH2 0x2C6E JUMP JUMPDEST PUSH2 0x175C JUMP JUMPDEST CALLVALUE DUP1 ISZERO PUSH2 0x62E JUMPI PUSH1 0x0 DUP1 REVERT JUMPDEST POP PUSH2 0x662 PUSH2 0x63D CALLDATASIZE PUSH1 0x4 PUSH2 0x2C10 JUMP JUMPDEST PUSH1 0xC9 PUSH1 0x20 MSTORE PUSH1 0x0 SWAP1 DUP2 MSTORE PUSH1 0x40 SWAP1 KECCAK256 DUP1 SLOAD PUSH1 0x1 DUP3 ADD SLOAD PUSH1 0x2 SWAP1 SWAP3 ADD SLOAD PUSH1 0xFF SWAP1 SWAP2 AND SWAP2 SWAP1 DUP4 JUMP JUMPDEST PUSH1 0x40 DUP1 MLOAD SWAP4 ISZERO ISZERO DUP5 MSTORE PUSH1 0x20 DUP5 ADD SWAP3 SWAP1 SWAP3 MSTORE SWAP1 DUP3 ADD MSTORE PUSH1 0x60 ADD PUSH2 0x2A6 JUMP JUMPDEST CALLVALUE DUP1 ISZERO PUSH2 0x68B JUMPI PUSH1 0x0 DUP1 REVERT JUMPDEST POP PUSH1 0xD7 SLOAD PUSH2 0x2CF SWAP1 PUSH1 0x1 PUSH1 0x1 PUSH1 0xA0 SHL SUB AND DUP2 JUMP JUMPDEST CALLVALUE DUP1 ISZERO PUSH2 0x6AB JUMPI PUSH1 0x0 DUP1 REVERT JUMPDEST POP PUSH2 0x29C PUSH2 0x179B JUMP JUMPDEST CALLVALUE DUP1 ISZERO PUSH2 0x6C0 JUMPI PUSH1 0x0 DUP1 REVERT JUMPDEST POP PUSH2 0x41D PUSH2 0x6CF CALLDATASIZE PUSH1 0x4 PUSH2 0x2C10 JUMP JUMPDEST PUSH1 0xCA PUSH1 0x20 MSTORE PUSH1 0x0 SWAP1 DUP2 MSTORE PUSH1 0x40 SWAP1 KECCAK256 SLOAD PUSH1 0xFF AND DUP2 JUMP JUMPDEST CALLVALUE DUP1 ISZERO PUSH2 0x6F0 JUMPI PUSH1 0x0 DUP1 REVERT JUMPDEST POP PUSH2 0x2CF PUSH2 0x6FF CALLDATASIZE PUSH1 0x4 PUSH2 0x2C9A JUMP JUMPDEST PUSH2 0x17C4 JUMP JUMPDEST CALLVALUE DUP1 ISZERO PUSH2 0x710 JUMPI PUSH1 0x0 DUP1 REVERT JUMPDEST POP PUSH2 0x29C PUSH1 0xCF SLOAD DUP2 JUMP JUMPDEST CALLVALUE DUP1 ISZERO PUSH2 0x726 JUMPI PUSH1 0x0 DUP1 REVERT JUMPDEST POP PUSH2 0x29C PUSH2 0x735 CALLDATASIZE PUSH1 0x4 PUSH2 0x2C6E JUMP JUMPDEST PUSH2 0x17EE JUMP JUMPDEST CALLVALUE DUP1 ISZERO PUSH2 0x746 JUMPI PUSH1 0x0 DUP1 REVERT JUMPDEST POP PUSH2 0x307 PUSH2 0x755 CALLDATASIZE PUSH1 0x4 PUSH2 0x2C2D JUMP JUMPDEST PUSH2 0x185F JUMP JUMPDEST CALLVALUE DUP1 ISZERO PUSH2 0x766 JUMPI PUSH1 0x0 DUP1 REVERT JUMPDEST POP PUSH2 0x29C PUSH2 0x1B00 JUMP JUMPDEST CALLVALUE DUP1 ISZERO PUSH2 0x77B JUMPI PUSH1 0x0 DUP1 REVERT JUMPDEST POP PUSH2 0x307 PUSH2 0x1B6E JUMP JUMPDEST CALLVALUE DUP1 ISZERO PUSH2 0x790 JUMPI PUSH1 0x0 DUP1 REVERT JUMPDEST POP PUSH2 0x29C PUSH1 0xCE SLOAD DUP2 JUMP JUMPDEST CALLVALUE DUP1 ISZERO PUSH2 0x7A6 JUMPI PUSH1 0x0 DUP1 REVERT JUMPDEST POP PUSH2 0x307 PUSH2 0x7B5 CALLDATASIZE PUSH1 0x4 PUSH2 0x2C10 JUMP JUMPDEST PUSH2 0x1C7E JUMP JUMPDEST PUSH2 0x29C PUSH2 0x1CF4 JUMP JUMPDEST CALLVALUE DUP1 ISZERO PUSH2 0x7CE JUMPI PUSH1 0x0 DUP1 REVERT JUMPDEST POP PUSH2 0x307 PUSH2 0x1E87 JUMP JUMPDEST CALLVALUE DUP1 ISZERO PUSH2 0x7E3 JUMPI PUSH1 0x0 DUP1 REVERT JUMPDEST POP PUSH2 0x307 PUSH2 0x7F2 CALLDATASIZE PUSH1 0x4 PUSH2 0x2CB3 JUMP JUMPDEST PUSH2 0x1E97 JUMP JUMPDEST CALLVALUE DUP1 ISZERO PUSH2 0x803 JUMPI PUSH1 0x0 DUP1 REVERT JUMPDEST POP PUSH2 0x29C PUSH1 0xD1 SLOAD DUP2 JUMP JUMPDEST PUSH2 0x815 PUSH2 0x20C8 JUMP JUMPDEST PUSH1 0x1 PUSH1 0x1 PUSH1 0xA0 SHL SUB DUP2 AND PUSH2 0x828 JUMPI PUSH1 0x0 DUP1 REVERT JUMPDEST PUSH1 0x1 PUSH1 0x1 PUSH1 0xA0 SHL SUB DUP2 AND PUSH1 0x0 DUP2 DUP2 MSTORE PUSH1 0xCA PUSH1 0x20 SWAP1 DUP2 MSTORE PUSH1 0x40 SWAP2 DUP3 SWAP1 KECCAK256 DUP1 SLOAD PUSH1 0xFF NOT AND PUSH1 0x1 OR SWAP1 SSTORE SWAP1 MLOAD SWAP2 DUP3 MSTORE PUSH32 0x3B4A40CCCF2058C593542587329DD385BE4F0B588DB5471FBD9598E56DD7093A SWAP2 ADD JUMPDEST PUSH1 0x40 MLOAD DUP1 SWAP2 SUB SWAP1 LOG1 POP JUMP JUMPDEST PUSH1 0x0 PUSH1 0x2 PUSH1 0x97 SLOAD EQ ISZERO PUSH2 0x8B1 JUMPI PUSH1 0x40 MLOAD PUSH3 0x461BCD PUSH1 0xE5 SHL DUP2 MSTORE PUSH1 0x4 ADD PUSH2 0x8A8 SWAP1 PUSH2 0x2D03 JUMP JUMPDEST PUSH1 0x40 MLOAD DUP1 SWAP2 SUB SWAP1 REVERT JUMPDEST PUSH1 0x2 PUSH1 0x97 SSTORE PUSH2 0x8BE PUSH2 0x2122 JUMP JUMPDEST PUSH1 0x33 SLOAD PUSH1 0x1 PUSH1 0x1 PUSH1 0xA0 SHL SUB AND CALLER EQ DUP1 PUSH2 0x8E1 JUMPI POP PUSH1 0xD3 SLOAD PUSH1 0x1 PUSH1 0x1 PUSH1 0xA0 SHL SUB AND CALLER EQ JUMPDEST PUSH2 0x8FD JUMPI PUSH1 0x40 MLOAD PUSH3 0x461BCD PUSH1 0xE5 SHL DUP2 MSTORE PUSH1 0x4 ADD PUSH2 0x8A8 SWAP1 PUSH2 0x2D3A JUMP JUMPDEST PUSH1 0x0 DUP3 GT PUSH2 0x949 JUMPI PUSH1 0x40 MLOAD PUSH3 0x461BCD PUSH1 0xE5 SHL DUP2 MSTORE PUSH1 0x20 PUSH1 0x4 DUP3 ADD MSTORE PUSH1 0x19 PUSH1 0x24 DUP3 ADD MSTORE PUSH25 0x1A5B9D985B1A59081DDA5D1A191C985DD85B08185B5BDD5B9D PUSH1 0x3A SHL PUSH1 0x44 DUP3 ADD MSTORE PUSH1 0x64 ADD PUSH2 0x8A8 JUMP JUMPDEST PUSH1 0x1 PUSH1 0x1 PUSH1 0xA0 SHL SUB DUP5 AND PUSH1 0x0 SWAP1 DUP2 MSTORE PUSH1 0xC9 PUSH1 0x20 MSTORE PUSH1 0x40 SWAP1 KECCAK256 PUSH1 0x2 ADD SLOAD DUP3 GT ISZERO PUSH2 0x9B4 JUMPI PUSH1 0x40 MLOAD PUSH3 0x461BCD PUSH1 0xE5 SHL DUP2 MSTORE PUSH1 0x20 PUSH1 0x4 DUP3 ADD MSTORE PUSH1 0x1F PUSH1 0x24 DUP3 ADD MSTORE PUSH32 0x696E73756666696369656E742061737365747320696E20737472617465677900 PUSH1 0x44 DUP3 ADD MSTORE PUSH1 0x64 ADD PUSH2 0x8A8 JUMP JUMPDEST PUSH1 0xD4 SLOAD PUSH1 0x40 MLOAD PUSH4 0x2770A7EB PUSH1 0xE2 SHL DUP2 MSTORE CALLER SWAP2 PUSH1 0x1 PUSH1 0x1 PUSH1 0xA0 SHL SUB AND SWAP1 PUSH4 0x9DC29FAC SWAP1 PUSH2 0x9E6 SWAP1 DUP5 SWAP1 DUP8 SWAP1 PUSH1 0x4 ADD PUSH2 0x2D69 JUMP JUMPDEST PUSH1 0x0 PUSH1 0x40 MLOAD DUP1 DUP4 SUB DUP2 PUSH1 0x0 DUP8 DUP1 EXTCODESIZE ISZERO DUP1 ISZERO PUSH2 0xA00 JUMPI PUSH1 0x0 DUP1 REVERT JUMPDEST POP GAS CALL ISZERO DUP1 ISZERO PUSH2 0xA14 JUMPI RETURNDATASIZE PUSH1 0x0 DUP1 RETURNDATACOPY RETURNDATASIZE PUSH1 0x0 REVERT JUMPDEST POP POP POP POP PUSH1 0x0 PUSH1 0xCD SLOAD GT ISZERO PUSH2 0xA6A JUMPI PUSH1 0x0 PUSH2 0xA31 DUP5 PUSH1 0xCD SLOAD PUSH2 0x2168 JUMP JUMPDEST PUSH1 0xD6 SLOAD SWAP1 SWAP2 POP PUSH2 0xA55 SWAP1 DUP8 SWAP1 PUSH1 0x1 PUSH1 0x1 PUSH1 0xA0 SHL SUB AND PUSH2 0xA50 DUP5 DUP9 PUSH2 0x2D98 JUMP JUMPDEST PUSH2 0x21A5 JUMP JUMPDEST POP PUSH2 0xA61 DUP7 DUP7 DUP4 PUSH2 0x21A5 JUMP JUMPDEST SWAP3 POP POP POP PUSH2 0xA79 JUMP JUMPDEST PUSH2 0xA75 DUP6 DUP6 DUP6 PUSH2 0x21A5 JUMP JUMPDEST SWAP2 POP POP JUMPDEST PUSH1 0x1 PUSH1 0x97 SSTORE SWAP4 SWAP3 POP POP POP JUMP JUMPDEST PUSH2 0xA8D PUSH2 0x20C8 JUMP JUMPDEST PUSH1 0x1 PUSH1 0x1 PUSH1 0xA0 SHL SUB DUP3 AND PUSH2 0xAA0 JUMPI PUSH1 0x0 DUP1 REVERT JUMPDEST PUSH1 0xD0 SLOAD PUSH1 0xD2 SLOAD LT PUSH2 0xAF3 JUMPI PUSH1 0x40 MLOAD PUSH3 0x461BCD PUSH1 0xE5 SHL DUP2 MSTORE PUSH1 0x20 PUSH1 0x4 DUP3 ADD MSTORE PUSH1 0x17 PUSH1 0x24 DUP3 ADD MSTORE PUSH32 0x6D61782073747261746567696573206578636565646564000000000000000000 PUSH1 0x44 DUP3 ADD MSTORE PUSH1 0x64 ADD PUSH2 0x8A8 JUMP JUMPDEST ADDRESS PUSH1 0x1 PUSH1 0x1 PUSH1 0xA0 SHL SUB AND DUP3 PUSH1 0x1 PUSH1 0x1 PUSH1 0xA0 SHL SUB AND PUSH4 0xFBFA77CF PUSH1 0x40 MLOAD DUP2 PUSH4 0xFFFFFFFF AND PUSH1 0xE0 SHL DUP2 MSTORE PUSH1 0x4 ADD PUSH1 0x20 PUSH1 0x40 MLOAD DUP1 DUP4 SUB DUP2 DUP7 GAS STATICCALL ISZERO DUP1 ISZERO PUSH2 0xB3B JUMPI RETURNDATASIZE PUSH1 0x0 DUP1 RETURNDATACOPY RETURNDATASIZE PUSH1 0x0 REVERT JUMPDEST POP POP POP POP PUSH1 0x40 MLOAD RETURNDATASIZE PUSH1 0x1F NOT PUSH1 0x1F DUP3 ADD AND DUP3 ADD DUP1 PUSH1 0x40 MSTORE POP DUP2 ADD SWAP1 PUSH2 0xB5F SWAP2 SWAP1 PUSH2 0x2DAF JUMP JUMPDEST PUSH1 0x1 PUSH1 0x1 PUSH1 0xA0 SHL SUB AND EQ PUSH2 0xBA8 JUMPI PUSH1 0x40 MLOAD PUSH3 0x461BCD PUSH1 0xE5 SHL DUP2 MSTORE PUSH1 0x20 PUSH1 0x4 DUP3 ADD MSTORE PUSH1 0x10 PUSH1 0x24 DUP3 ADD MSTORE PUSH16 0x696E76616C6964207374726174656779 PUSH1 0x80 SHL PUSH1 0x44 DUP3 ADD MSTORE PUSH1 0x64 ADD PUSH2 0x8A8 JUMP JUMPDEST PUSH1 0x0 DUP1 JUMPDEST PUSH1 0xD2 SLOAD DUP2 LT ISZERO PUSH2 0xCD8 JUMPI DUP4 PUSH1 0x1 PUSH1 0x1 PUSH1 0xA0 SHL SUB AND PUSH1 0xD2 DUP3 DUP2 SLOAD DUP2 LT PUSH2 0xBD3 JUMPI PUSH2 0xBD3 PUSH2 0x2DCC JUMP JUMPDEST PUSH1 0x0 SWAP2 DUP3 MSTORE PUSH1 0x20 SWAP1 SWAP2 KECCAK256 ADD SLOAD PUSH1 0x1 PUSH1 0x1 PUSH1 0xA0 SHL SUB AND EQ ISZERO PUSH2 0xC36 JUMPI PUSH1 0x40 MLOAD PUSH3 0x461BCD PUSH1 0xE5 SHL DUP2 MSTORE PUSH1 0x20 PUSH1 0x4 DUP3 ADD MSTORE PUSH1 0x17 PUSH1 0x24 DUP3 ADD MSTORE PUSH32 0x737472617465677920616C726561647920657869737473000000000000000000 PUSH1 0x44 DUP3 ADD MSTORE PUSH1 0x64 ADD PUSH2 0x8A8 JUMP JUMPDEST PUSH1 0xC9 PUSH1 0x0 PUSH1 0xD2 DUP4 DUP2 SLOAD DUP2 LT PUSH2 0xC4D JUMPI PUSH2 0xC4D PUSH2 0x2DCC JUMP JUMPDEST PUSH1 0x0 SWAP2 DUP3 MSTORE PUSH1 0x20 DUP1 DUP4 KECCAK256 SWAP1 SWAP2 ADD SLOAD PUSH1 0x1 PUSH1 0x1 PUSH1 0xA0 SHL SUB AND DUP4 MSTORE DUP3 ADD SWAP3 SWAP1 SWAP3 MSTORE PUSH1 0x40 ADD SWAP1 KECCAK256 SLOAD PUSH1 0xFF AND ISZERO PUSH2 0xCC6 JUMPI PUSH1 0xC9 PUSH1 0x0 PUSH1 0xD2 DUP4 DUP2 SLOAD DUP2 LT PUSH2 0xC91 JUMPI PUSH2 0xC91 PUSH2 0x2DCC JUMP JUMPDEST PUSH1 0x0 SWAP2 DUP3 MSTORE PUSH1 0x20 DUP1 DUP4 KECCAK256 SWAP1 SWAP2 ADD SLOAD PUSH1 0x1 PUSH1 0x1 PUSH1 0xA0 SHL SUB AND DUP4 MSTORE DUP3 ADD SWAP3 SWAP1 SWAP3 MSTORE PUSH1 0x40 ADD SWAP1 KECCAK256 PUSH1 0x1 ADD SLOAD PUSH2 0xCC3 SWAP1 DUP4 PUSH2 0x2DE2 JUMP JUMPDEST SWAP2 POP JUMPDEST DUP1 PUSH2 0xCD0 DUP2 PUSH2 0x2DFA JUMP JUMPDEST SWAP2 POP POP PUSH2 0xBAC JUMP JUMPDEST POP PUSH3 0xF4240 PUSH2 0xCE7 DUP4 DUP4 PUSH2 0x2DE2 JUMP JUMPDEST GT ISZERO PUSH2 0xD05 JUMPI PUSH1 0x40 MLOAD PUSH3 0x461BCD PUSH1 0xE5 SHL DUP2 MSTORE PUSH1 0x4 ADD PUSH2 0x8A8 SWAP1 PUSH2 0x2E15 JUMP JUMPDEST PUSH1 0x40 DUP1 MLOAD PUSH1 0x60 DUP2 ADD DUP3 MSTORE PUSH1 0x1 DUP1 DUP3 MSTORE PUSH1 0x20 DUP1 DUP4 ADD DUP7 DUP2 MSTORE PUSH1 0x0 DUP5 DUP7 ADD DUP2 DUP2 MSTORE PUSH1 0x1 PUSH1 0x1 PUSH1 0xA0 SHL SUB DUP11 AND DUP1 DUP4 MSTORE PUSH1 0xC9 SWAP1 SWAP5 MSTORE DUP7 DUP3 KECCAK256 DUP7 MLOAD DUP2 SLOAD PUSH1 0xFF NOT AND SWAP1 ISZERO ISZERO OR DUP2 SSTORE SWAP3 MLOAD DUP4 DUP7 ADD SSTORE MLOAD PUSH1 0x2 SWAP1 SWAP3 ADD SWAP2 SWAP1 SWAP2 SSTORE PUSH1 0xD2 DUP1 SLOAD SWAP4 DUP5 ADD DUP2 SSTORE SWAP1 MSTORE PUSH32 0xF2192E1030363415D7B4FB0406540A0060E8E2FC8982F3F32289379E11FA6546 SWAP1 SWAP2 ADD DUP1 SLOAD PUSH1 0x1 PUSH1 0x1 PUSH1 0xA0 SHL SUB NOT AND SWAP1 SWAP2 OR SWAP1 SSTORE SWAP1 MLOAD PUSH32 0x2F564A83158AD1831793AD3E69257B52F39ECE5D49CB0D8746708ECB9EF964DA SWAP1 PUSH2 0xDC8 SWAP1 DUP7 SWAP1 DUP7 SWAP1 PUSH2 0x2D69 JUMP JUMPDEST PUSH1 0x40 MLOAD DUP1 SWAP2 SUB SWAP1 LOG1 POP POP POP POP JUMP JUMPDEST PUSH1 0x0 PUSH1 0x2 PUSH1 0x97 SLOAD EQ ISZERO PUSH2 0xDFB JUMPI PUSH1 0x40 MLOAD PUSH3 0x461BCD PUSH1 0xE5 SHL DUP2 MSTORE PUSH1 0x4 ADD PUSH2 0x8A8 SWAP1 PUSH2 0x2D03 JUMP JUMPDEST PUSH1 0x2 PUSH1 0x97 SSTORE PUSH2 0xE08 PUSH2 0x2122 JUMP JUMPDEST PUSH1 0x33 SLOAD PUSH1 0x1 PUSH1 0x1 PUSH1 0xA0 SHL SUB AND CALLER EQ DUP1 PUSH2 0xE2B JUMPI POP PUSH1 0xD3 SLOAD PUSH1 0x1 PUSH1 0x1 PUSH1 0xA0 SHL SUB AND CALLER EQ JUMPDEST PUSH2 0xE47 JUMPI PUSH1 0x40 MLOAD PUSH3 0x461BCD PUSH1 0xE5 SHL DUP2 MSTORE PUSH1 0x4 ADD PUSH2 0x8A8 SWAP1 PUSH2 0x2D3A JUMP JUMPDEST PUSH1 0xD4 SLOAD PUSH1 0x40 MLOAD PUSH4 0x2770A7EB PUSH1 0xE2 SHL DUP2 MSTORE CALLER SWAP2 PUSH1 0x1 PUSH1 0x1 PUSH1 0xA0 SHL SUB AND SWAP1 PUSH4 0x9DC29FAC SWAP1 PUSH2 0xE79 SWAP1 DUP5 SWAP1 DUP8 SWAP1 PUSH1 0x4 ADD PUSH2 0x2D69 JUMP JUMPDEST PUSH1 0x0 PUSH1 0x40 MLOAD DUP1 DUP4 SUB DUP2 PUSH1 0x0 DUP8 DUP1 EXTCODESIZE ISZERO DUP1 ISZERO PUSH2 0xE93 JUMPI PUSH1 0x0 DUP1 REVERT JUMPDEST POP GAS CALL ISZERO DUP1 ISZERO PUSH2 0xEA7 JUMPI RETURNDATASIZE PUSH1 0x0 DUP1 RETURNDATACOPY RETURNDATASIZE PUSH1 0x0 REVERT JUMPDEST POP POP POP POP PUSH1 0x0 PUSH2 0xEB5 PUSH2 0x179B JUMP JUMPDEST SWAP1 POP PUSH2 0xEC3 DUP5 PUSH1 0xCD SLOAD PUSH2 0x2168 JUMP JUMPDEST SWAP3 POP PUSH2 0xECF DUP4 DUP6 PUSH2 0x2D98 JUMP JUMPDEST PUSH1 0xCF PUSH1 0x0 DUP3 DUP3 SLOAD PUSH2 0xEE0 SWAP2 SWAP1 PUSH2 0x2DE2 JUMP JUMPDEST SWAP1 SWAP2 SSTORE POP POP DUP3 DUP2 LT ISZERO PUSH2 0xFDE JUMPI PUSH1 0x0 DUP6 PUSH1 0x1 PUSH1 0x1 PUSH1 0xA0 SHL SUB AND DUP3 PUSH1 0x40 MLOAD PUSH1 0x0 PUSH1 0x40 MLOAD DUP1 DUP4 SUB DUP2 DUP6 DUP8 GAS CALL SWAP3 POP POP POP RETURNDATASIZE DUP1 PUSH1 0x0 DUP2 EQ PUSH2 0xF3A JUMPI PUSH1 0x40 MLOAD SWAP2 POP PUSH1 0x1F NOT PUSH1 0x3F RETURNDATASIZE ADD AND DUP3 ADD PUSH1 0x40 MSTORE RETURNDATASIZE DUP3 MSTORE RETURNDATASIZE PUSH1 0x0 PUSH1 0x20 DUP5 ADD RETURNDATACOPY PUSH2 0xF3F JUMP JUMPDEST PUSH1 0x60 SWAP2 POP JUMPDEST POP POP SWAP1 POP DUP1 PUSH2 0xF60 JUMPI PUSH1 0x40 MLOAD PUSH3 0x461BCD PUSH1 0xE5 SHL DUP2 MSTORE PUSH1 0x4 ADD PUSH2 0x8A8 SWAP1 PUSH2 0x2E59 JUMP JUMPDEST PUSH1 0x0 PUSH2 0xF75 DUP8 PUSH2 0xF70 DUP6 DUP9 PUSH2 0x2D98 JUMP JUMPDEST PUSH2 0x22A4 JUMP JUMPDEST SWAP1 POP PUSH2 0xF81 DUP4 DUP7 PUSH2 0x2D98 JUMP JUMPDEST DUP2 GT ISZERO PUSH2 0xFCB JUMPI PUSH1 0x40 MLOAD PUSH3 0x461BCD PUSH1 0xE5 SHL DUP2 MSTORE PUSH1 0x20 PUSH1 0x4 DUP3 ADD MSTORE PUSH1 0x18 PUSH1 0x24 DUP3 ADD MSTORE PUSH24 0x1A5B9D985B1A59081DDA5D1A191C985DDB88185B5BDD5B9D PUSH1 0x42 SHL PUSH1 0x44 DUP3 ADD MSTORE PUSH1 0x64 ADD PUSH2 0x8A8 JUMP JUMPDEST PUSH2 0xFD5 DUP2 DUP5 PUSH2 0x2DE2 JUMP JUMPDEST SWAP5 POP POP POP PUSH2 0x1053 JUMP JUMPDEST PUSH1 0x0 DUP6 PUSH1 0x1 PUSH1 0x1 PUSH1 0xA0 SHL SUB AND DUP5 PUSH1 0x40 MLOAD PUSH1 0x0 PUSH1 0x40 MLOAD DUP1 DUP4 SUB DUP2 DUP6 DUP8 GAS CALL SWAP3 POP POP POP RETURNDATASIZE DUP1 PUSH1 0x0 DUP2 EQ PUSH2 0x102B JUMPI PUSH1 0x40 MLOAD SWAP2 POP PUSH1 0x1F NOT PUSH1 0x3F RETURNDATASIZE ADD AND DUP3 ADD PUSH1 0x40 MSTORE RETURNDATASIZE DUP3 MSTORE RETURNDATASIZE PUSH1 0x0 PUSH1 0x20 DUP5 ADD RETURNDATACOPY PUSH2 0x1030 JUMP JUMPDEST PUSH1 0x60 SWAP2 POP JUMPDEST POP POP SWAP1 POP DUP1 PUSH2 0x1051 JUMPI PUSH1 0x40 MLOAD PUSH3 0x461BCD PUSH1 0xE5 SHL DUP2 MSTORE PUSH1 0x4 ADD PUSH2 0x8A8 SWAP1 PUSH2 0x2E59 JUMP JUMPDEST POP JUMPDEST PUSH1 0x40 DUP1 MLOAD DUP6 DUP2 MSTORE PUSH1 0x20 DUP2 ADD DUP6 SWAP1 MSTORE PUSH1 0x1 PUSH1 0x1 PUSH1 0xA0 SHL SUB DUP5 AND SWAP2 DUP3 SWAP2 DUP3 SWAP2 PUSH32 0xFBDE797D201C681B91056529119E0B02407C7BB96A4A2C75C01FC9667232C8DB SWAP2 ADD PUSH1 0x40 MLOAD DUP1 SWAP2 SUB SWAP1 LOG4 POP POP PUSH1 0x1 PUSH1 0x97 SSTORE SWAP3 SWAP2 POP POP JUMP JUMPDEST PUSH2 0x10B0 PUSH2 0x20C8 JUMP JUMPDEST DUP1 PUSH1 0xCC SLOAD GT PUSH2 0x1101 JUMPI PUSH1 0x40 MLOAD PUSH3 0x461BCD PUSH1 0xE5 SHL DUP2 MSTORE PUSH1 0x20 PUSH1 0x4 DUP3 ADD MSTORE PUSH1 0x17 PUSH1 0x24 DUP3 ADD MSTORE PUSH32 0x6D6F7265207468616E206D61784465706F736974466565000000000000000000 PUSH1 0x44 DUP3 ADD MSTORE PUSH1 0x64 ADD PUSH2 0x8A8 JUMP JUMPDEST PUSH1 0xCB DUP2 SWAP1 SSTORE PUSH1 0x40 MLOAD DUP2 DUP2 MSTORE PUSH32 0x2A6F1084651542F3142C70F4C43C096D016A8B517C063660B146268F646EA43A SWAP1 PUSH1 0x20 ADD PUSH2 0x878 JUMP JUMPDEST CALLER PUSH1 0x0 SWAP1 DUP2 MSTORE PUSH1 0xCA PUSH1 0x20 MSTORE PUSH1 0x40 SWAP1 KECCAK256 SLOAD PUSH1 0xFF AND PUSH2 0x1165 JUMPI PUSH1 0x40 MLOAD PUSH3 0x461BCD PUSH1 0xE5 SHL DUP2 MSTORE PUSH1 0x4 ADD PUSH2 0x8A8 SWAP1 PUSH2 0x2E82 JUMP JUMPDEST PUSH1 0x0 PUSH2 0x116F PUSH2 0x179B JUMP JUMPDEST SWAP1 POP PUSH2 0x117B DUP3 DUP3 PUSH2 0x2492 JUMP JUMPDEST PUSH2 0x1184 JUMPI PUSH1 0x0 DUP1 REVERT JUMPDEST POP POP JUMP JUMPDEST PUSH1 0x0 DUP2 PUSH1 0x1 PUSH1 0x1 PUSH1 0xA0 SHL SUB AND PUSH4 0x6B0F1C81 PUSH1 0x40 MLOAD DUP2 PUSH4 0xFFFFFFFF AND PUSH1 0xE0 SHL DUP2 MSTORE PUSH1 0x4 ADD PUSH1 0x20 PUSH1 0x40 MLOAD DUP1 DUP4 SUB DUP2 DUP7 GAS STATICCALL ISZERO DUP1 ISZERO PUSH2 0x11C8 JUMPI RETURNDATASIZE PUSH1 0x0 DUP1 RETURNDATACOPY RETURNDATASIZE PUSH1 0x0 REVERT JUMPDEST POP POP POP POP PUSH1 0x40 MLOAD RETURNDATASIZE PUSH1 0x1F NOT PUSH1 0x1F DUP3 ADD AND DUP3 ADD DUP1 PUSH1 0x40 MSTORE POP DUP2 ADD SWAP1 PUSH2 0x11EC SWAP2 SWAP1 PUSH2 0x2EB0 JUMP JUMPDEST SWAP3 SWAP2 POP POP JUMP JUMPDEST CALLER PUSH1 0x0 SWAP1 DUP2 MSTORE PUSH1 0xCA PUSH1 0x20 MSTORE PUSH1 0x40 SWAP1 KECCAK256 SLOAD PUSH1 0xFF AND PUSH2 0x1221 JUMPI PUSH1 0x40 MLOAD PUSH3 0x461BCD PUSH1 0xE5 SHL DUP2 MSTORE PUSH1 0x4 ADD PUSH2 0x8A8 SWAP1 PUSH2 0x2E82 JUMP JUMPDEST PUSH1 0x1 PUSH1 0x1 PUSH1 0xA0 SHL SUB DUP2 AND PUSH1 0x0 SWAP1 DUP2 MSTORE PUSH1 0xC9 PUSH1 0x20 MSTORE PUSH1 0x40 SWAP1 KECCAK256 PUSH1 0x2 ADD SLOAD PUSH2 0x1184 SWAP1 DUP3 SWAP1 ADDRESS SWAP1 PUSH2 0x26B5 JUMP JUMPDEST PUSH2 0x1252 PUSH2 0x20C8 JUMP JUMPDEST PUSH2 0x125C PUSH1 0x0 PUSH2 0x28A7 JUMP JUMPDEST JUMP JUMPDEST CALLER PUSH1 0x0 SWAP1 DUP2 MSTORE PUSH1 0xCA PUSH1 0x20 MSTORE PUSH1 0x40 SWAP1 KECCAK256 SLOAD PUSH1 0xFF AND PUSH2 0x128D JUMPI PUSH1 0x40 MLOAD PUSH3 0x461BCD PUSH1 0xE5 SHL DUP2 MSTORE PUSH1 0x4 ADD PUSH2 0x8A8 SWAP1 PUSH2 0x2E82 JUMP JUMPDEST PUSH2 0x1296 DUP2 PUSH2 0x28F9 JUMP JUMPDEST ISZERO PUSH2 0x129E JUMPI POP JUMP JUMPDEST PUSH1 0x1 PUSH1 0x1 PUSH1 0xA0 SHL SUB DUP2 AND PUSH1 0x0 SWAP1 DUP2 MSTORE PUSH1 0xC9 PUSH1 0x20 MSTORE PUSH1 0x40 SWAP1 KECCAK256 PUSH1 0x2 ADD SLOAD PUSH2 0x12C7 SWAP1 DUP3 SWAP1 ADDRESS SWAP1 PUSH2 0x26B5 JUMP JUMPDEST POP PUSH2 0x1184 DUP2 PUSH2 0x28F9 JUMP JUMPDEST POP JUMP JUMPDEST PUSH2 0x12DC PUSH2 0x20C8 JUMP JUMPDEST PUSH1 0x1 PUSH1 0x1 PUSH1 0xA0 SHL SUB DUP3 AND PUSH2 0x12EF JUMPI PUSH1 0x0 DUP1 REVERT JUMPDEST PUSH1 0x1 PUSH1 0x1 PUSH1 0xA0 SHL SUB DUP3 AND PUSH1 0x0 SWAP1 DUP2 MSTORE PUSH1 0xC9 PUSH1 0x20 MSTORE PUSH1 0x40 SWAP1 KECCAK256 PUSH1 0x1 ADD DUP2 SWAP1 SSTORE PUSH2 0x1315 PUSH2 0x294A JUMP JUMPDEST PUSH2 0x1331 JUMPI PUSH1 0x40 MLOAD PUSH3 0x461BCD PUSH1 0xE5 SHL DUP2 MSTORE PUSH1 0x4 ADD PUSH2 0x8A8 SWAP1 PUSH2 0x2E15 JUMP JUMPDEST PUSH32 0x12550B3055A78AFE91DA1A02A6E99583200FE1B2F7F571269BB013FF3F7C05E8 DUP3 DUP3 PUSH1 0x40 MLOAD PUSH2 0x1362 SWAP3 SWAP2 SWAP1 PUSH2 0x2D69 JUMP JUMPDEST PUSH1 0x40 MLOAD DUP1 SWAP2 SUB SWAP1 LOG1 POP POP JUMP JUMPDEST PUSH2 0x1376 PUSH2 0x20C8 JUMP JUMPDEST PUSH1 0x1 PUSH1 0x1 PUSH1 0xA0 SHL SUB DUP2 AND PUSH2 0x1389 JUMPI PUSH1 0x0 DUP1 REVERT JUMPDEST PUSH1 0xD3 DUP1 SLOAD PUSH1 0x1 PUSH1 0x1 PUSH1 0xA0 SHL SUB NOT AND PUSH1 0x1 PUSH1 0x1 PUSH1 0xA0 SHL SUB DUP4 AND SWAP1 DUP2 OR SWAP1 SWAP2 SSTORE PUSH1 0x40 MLOAD SWAP1 DUP2 MSTORE PUSH32 0xA480657DFD615E3BA406B865A0DA683507AEEB1B3E8206EB2C080BC1C0B23E82 SWAP1 PUSH1 0x20 ADD PUSH2 0x878 JUMP JUMPDEST PUSH2 0x13DF PUSH2 0x20C8 JUMP JUMPDEST PUSH1 0x1 PUSH1 0x1 PUSH1 0xA0 SHL SUB DUP2 AND PUSH2 0x13F2 JUMPI PUSH1 0x0 DUP1 REVERT JUMPDEST PUSH1 0xD6 DUP1 SLOAD PUSH1 0x1 PUSH1 0x1 PUSH1 0xA0 SHL SUB NOT AND PUSH1 0x1 PUSH1 0x1 PUSH1 0xA0 SHL SUB DUP4 AND SWAP1 DUP2 OR SWAP1 SWAP2 SSTORE PUSH1 0x40 MLOAD SWAP1 DUP2 MSTORE PUSH32 0x647672599D3468ABCFA241A13C9E3D34383CAADB5CC80FB67C3CDFCD5F786059 SWAP1 PUSH1 0x20 ADD PUSH2 0x878 JUMP JUMPDEST PUSH2 0x1448 PUSH2 0x20C8 JUMP JUMPDEST PUSH2 0x125C PUSH2 0x2A08 JUMP JUMPDEST CALLER PUSH1 0x0 SWAP1 DUP2 MSTORE PUSH1 0xCA PUSH1 0x20 MSTORE PUSH1 0x40 SWAP1 KECCAK256 SLOAD PUSH1 0xFF AND PUSH2 0x147F JUMPI PUSH1 0x40 MLOAD PUSH3 0x461BCD PUSH1 0xE5 SHL DUP2 MSTORE PUSH1 0x4 ADD PUSH2 0x8A8 SWAP1 PUSH2 0x2E82 JUMP JUMPDEST PUSH1 0x0 JUMPDEST PUSH1 0xD2 SLOAD PUSH1 0xFF DUP3 AND LT ISZERO PUSH2 0x12D1 JUMPI PUSH1 0xC9 PUSH1 0x0 PUSH1 0xD2 DUP4 PUSH1 0xFF AND DUP2 SLOAD DUP2 LT PUSH2 0x14A9 JUMPI PUSH2 0x14A9 PUSH2 0x2DCC JUMP JUMPDEST PUSH1 0x0 SWAP2 DUP3 MSTORE PUSH1 0x20 DUP1 DUP4 KECCAK256 SWAP1 SWAP2 ADD SLOAD PUSH1 0x1 PUSH1 0x1 PUSH1 0xA0 SHL SUB AND DUP4 MSTORE DUP3 ADD SWAP3 SWAP1 SWAP3 MSTORE PUSH1 0x40 ADD SWAP1 KECCAK256 SLOAD PUSH1 0xFF AND ISZERO PUSH2 0x1605 JUMPI PUSH1 0x0 PUSH1 0xC9 PUSH1 0x0 PUSH1 0xD2 DUP5 PUSH1 0xFF AND DUP2 SLOAD DUP2 LT PUSH2 0x14F2 JUMPI PUSH2 0x14F2 PUSH2 0x2DCC JUMP JUMPDEST PUSH1 0x0 SWAP2 DUP3 MSTORE PUSH1 0x20 DUP1 DUP4 KECCAK256 SWAP1 SWAP2 ADD SLOAD PUSH1 0x1 PUSH1 0x1 PUSH1 0xA0 SHL SUB AND DUP4 MSTORE DUP3 DUP2 ADD SWAP4 SWAP1 SWAP4 MSTORE PUSH1 0x40 SWAP2 DUP3 ADD SWAP1 KECCAK256 DUP2 MLOAD PUSH1 0x60 DUP2 ADD DUP4 MSTORE DUP2 SLOAD PUSH1 0xFF AND ISZERO ISZERO DUP2 MSTORE PUSH1 0x1 DUP3 ADD SLOAD SWAP4 DUP2 ADD DUP5 SWAP1 MSTORE PUSH1 0x2 SWAP1 SWAP2 ADD SLOAD SWAP2 DUP2 ADD SWAP2 SWAP1 SWAP2 MSTORE SWAP2 POP DUP1 ISZERO PUSH2 0x1602 JUMPI PUSH1 0x0 PUSH1 0xD1 SLOAD PUSH2 0x1557 PUSH2 0x179B JUMP JUMPDEST PUSH2 0x1561 SWAP2 SWAP1 PUSH2 0x2DE2 JUMP JUMPDEST SWAP1 POP PUSH1 0x0 DUP2 DUP5 PUSH1 0x40 ADD MLOAD PUSH3 0xF4240 PUSH2 0x1579 SWAP2 SWAP1 PUSH2 0x2EC9 JUMP JUMPDEST PUSH2 0x1583 SWAP2 SWAP1 PUSH2 0x2EE8 JUMP JUMPDEST SWAP1 POP DUP3 DUP2 LT ISZERO PUSH2 0x15FF JUMPI PUSH1 0x40 DUP5 ADD MLOAD PUSH1 0x0 SWAP1 PUSH3 0xF4240 PUSH2 0x15A3 DUP7 DUP7 PUSH2 0x2EC9 JUMP JUMPDEST PUSH2 0x15AD SWAP2 SWAP1 PUSH2 0x2EE8 JUMP JUMPDEST PUSH2 0x15B7 SWAP2 SWAP1 PUSH2 0x2D98 JUMP JUMPDEST SWAP1 POP DUP1 PUSH2 0x15C2 PUSH2 0x179B JUMP JUMPDEST LT PUSH2 0x15FD JUMPI PUSH2 0x15FB PUSH1 0xD2 DUP8 PUSH1 0xFF AND DUP2 SLOAD DUP2 LT PUSH2 0x15E0 JUMPI PUSH2 0x15E0 PUSH2 0x2DCC JUMP JUMPDEST PUSH1 0x0 SWAP2 DUP3 MSTORE PUSH1 0x20 SWAP1 SWAP2 KECCAK256 ADD SLOAD PUSH1 0x1 PUSH1 0x1 PUSH1 0xA0 SHL SUB AND DUP3 PUSH2 0x2492 JUMP JUMPDEST POP JUMPDEST POP JUMPDEST POP POP JUMPDEST POP POP JUMPDEST DUP1 PUSH2 0x160F DUP2 PUSH2 0x2F0A JUMP JUMPDEST SWAP2 POP POP PUSH2 0x1482 JUMP JUMPDEST PUSH2 0x161F PUSH2 0x20C8 JUMP JUMPDEST PUSH1 0x1 PUSH1 0x1 PUSH1 0xA0 SHL SUB DUP2 AND PUSH1 0x0 SWAP1 DUP2 MSTORE PUSH1 0xCA PUSH1 0x20 MSTORE PUSH1 0x40 SWAP1 KECCAK256 SLOAD PUSH1 0xFF AND PUSH2 0x1644 JUMPI PUSH1 0x0 DUP1 REVERT JUMPDEST PUSH1 0x1 PUSH1 0x1 PUSH1 0xA0 SHL SUB DUP2 AND PUSH1 0x0 DUP2 DUP2 MSTORE PUSH1 0xCA PUSH1 0x20 SWAP1 DUP2 MSTORE PUSH1 0x40 SWAP2 DUP3 SWAP1 KECCAK256 DUP1 SLOAD PUSH1 0xFF NOT AND SWAP1 SSTORE SWAP1 MLOAD SWAP2 DUP3 MSTORE PUSH32 0xEF69F7D97228658C92417BE1B16B19058315DE71FECB435D07B7D23728B6BD31 SWAP2 ADD PUSH2 0x878 JUMP JUMPDEST PUSH2 0x169D PUSH2 0x20C8 JUMP JUMPDEST DUP1 PUSH1 0xCE SLOAD GT PUSH2 0x16EE JUMPI PUSH1 0x40 MLOAD PUSH3 0x461BCD PUSH1 0xE5 SHL DUP2 MSTORE PUSH1 0x20 PUSH1 0x4 DUP3 ADD MSTORE PUSH1 0x1A PUSH1 0x24 DUP3 ADD MSTORE PUSH32 0x6D6F7265207468616E206D61785769746864726177616C466565000000000000 PUSH1 0x44 DUP3 ADD MSTORE PUSH1 0x64 ADD PUSH2 0x8A8 JUMP JUMPDEST PUSH1 0xCD DUP2 SWAP1 SSTORE PUSH1 0x40 MLOAD DUP2 DUP2 MSTORE PUSH32 0xFC1353E6B18CE07B5A979C8EDF77A87455939A17A9EEBBB084DCDE5BFB3B19AC SWAP1 PUSH1 0x20 ADD PUSH2 0x878 JUMP JUMPDEST CALLER PUSH1 0x0 SWAP1 DUP2 MSTORE PUSH1 0xCA PUSH1 0x20 MSTORE PUSH1 0x40 SWAP1 KECCAK256 SLOAD PUSH1 0xFF AND PUSH2 0x1752 JUMPI PUSH1 0x40 MLOAD PUSH3 0x461BCD PUSH1 0xE5 SHL DUP2 MSTORE PUSH1 0x4 ADD PUSH2 0x8A8 SWAP1 PUSH2 0x2E82 JUMP JUMPDEST PUSH2 0x117B DUP3 DUP3 PUSH2 0x2492 JUMP JUMPDEST CALLER PUSH1 0x0 SWAP1 DUP2 MSTORE PUSH1 0xCA PUSH1 0x20 MSTORE PUSH1 0x40 SWAP1 KECCAK256 SLOAD PUSH1 0xFF AND PUSH2 0x178B JUMPI PUSH1 0x40 MLOAD PUSH3 0x461BCD PUSH1 0xE5 SHL DUP2 MSTORE PUSH1 0x4 ADD PUSH2 0x8A8 SWAP1 PUSH2 0x2E82 JUMP JUMPDEST PUSH2 0x1796 DUP3 ADDRESS DUP4 PUSH2 0x26B5 JUMP JUMPDEST POP POP POP JUMP JUMPDEST PUSH1 0x0 PUSH1 0xCF SLOAD PUSH2 0x17A7 SELFBALANCE SWAP1 JUMP JUMPDEST GT PUSH2 0x17B2 JUMPI POP PUSH1 0x0 SWAP1 JUMP JUMPDEST PUSH1 0xCF SLOAD PUSH2 0x17BF SWAP1 SELFBALANCE PUSH2 0x2D98 JUMP JUMPDEST SWAP1 POP SWAP1 JUMP JUMPDEST PUSH1 0xD2 DUP2 DUP2 SLOAD DUP2 LT PUSH2 0x17D4 JUMPI PUSH1 0x0 DUP1 REVERT JUMPDEST PUSH1 0x0 SWAP2 DUP3 MSTORE PUSH1 0x20 SWAP1 SWAP2 KECCAK256 ADD SLOAD PUSH1 0x1 PUSH1 0x1 PUSH1 0xA0 SHL SUB AND SWAP1 POP DUP2 JUMP JUMPDEST PUSH1 0x40 MLOAD PUSH3 0x4BAD43 PUSH1 0xE0 SHL DUP2 MSTORE PUSH1 0x4 DUP2 ADD DUP3 SWAP1 MSTORE PUSH1 0x0 SWAP1 PUSH1 0x1 PUSH1 0x1 PUSH1 0xA0 SHL SUB DUP5 AND SWAP1 PUSH3 0x4BAD43 SWAP1 PUSH1 0x24 ADD PUSH1 0x20 PUSH1 0x40 MLOAD DUP1 DUP4 SUB DUP2 DUP7 GAS STATICCALL ISZERO DUP1 ISZERO PUSH2 0x1834 JUMPI RETURNDATASIZE PUSH1 0x0 DUP1 RETURNDATACOPY RETURNDATASIZE PUSH1 0x0 REVERT JUMPDEST POP POP POP POP PUSH1 0x40 MLOAD RETURNDATASIZE PUSH1 0x1F NOT PUSH1 0x1F DUP3 ADD AND DUP3 ADD DUP1 PUSH1 0x40 MSTORE POP DUP2 ADD SWAP1 PUSH2 0x1858 SWAP2 SWAP1 PUSH2 0x2EB0 JUMP JUMPDEST SWAP4 SWAP3 POP POP POP JUMP JUMPDEST CALLER PUSH1 0x0 SWAP1 DUP2 MSTORE PUSH1 0xCA PUSH1 0x20 MSTORE PUSH1 0x40 SWAP1 KECCAK256 SLOAD PUSH1 0xFF AND PUSH2 0x188E JUMPI PUSH1 0x40 MLOAD PUSH3 0x461BCD PUSH1 0xE5 SHL DUP2 MSTORE PUSH1 0x4 ADD PUSH2 0x8A8 SWAP1 PUSH2 0x2E82 JUMP JUMPDEST PUSH1 0x1 PUSH1 0x1 PUSH1 0xA0 SHL SUB DUP4 AND PUSH2 0x18A1 JUMPI PUSH1 0x0 DUP1 REVERT JUMPDEST PUSH1 0x1 PUSH1 0x1 PUSH1 0xA0 SHL SUB DUP3 AND PUSH2 0x18B4 JUMPI PUSH1 0x0 DUP1 REVERT JUMPDEST PUSH1 0x1 PUSH1 0x1 PUSH1 0xA0 SHL SUB DUP4 AND PUSH1 0x0 SWAP1 DUP2 MSTORE PUSH1 0xC9 PUSH1 0x20 MSTORE PUSH1 0x40 SWAP1 KECCAK256 PUSH1 0x2 ADD SLOAD DUP1 ISZERO PUSH2 0x1953 JUMPI PUSH1 0x1 PUSH1 0x1 PUSH1 0xA0 SHL SUB DUP5 AND PUSH1 0x0 SWAP1 DUP2 MSTORE PUSH1 0xC9 PUSH1 0x20 MSTORE PUSH1 0x40 DUP2 KECCAK256 PUSH1 0x2 ADD SLOAD PUSH2 0x18FF SWAP1 DUP7 SWAP1 ADDRESS SWAP1 PUSH2 0x26B5 JUMP JUMPDEST SWAP1 POP PUSH1 0x0 DUP2 GT PUSH2 0x1951 JUMPI PUSH1 0x40 MLOAD PUSH3 0x461BCD PUSH1 0xE5 SHL DUP2 MSTORE PUSH1 0x20 PUSH1 0x4 DUP3 ADD MSTORE PUSH1 0x1D PUSH1 0x24 DUP3 ADD MSTORE PUSH32 0x63616E6E6F742077697468647261772066726F6D207374726174656779000000 PUSH1 0x44 DUP3 ADD MSTORE PUSH1 0x64 ADD PUSH2 0x8A8 JUMP JUMPDEST POP JUMPDEST PUSH1 0x40 DUP1 MLOAD PUSH1 0x60 DUP2 ADD DUP3 MSTORE PUSH1 0x1 DUP2 MSTORE PUSH1 0x20 DUP2 ADD DUP5 SWAP1 MSTORE PUSH1 0x0 SWAP2 DUP2 ADD DUP3 SWAP1 MSTORE SWAP1 DUP1 JUMPDEST PUSH1 0xD2 SLOAD DUP2 LT ISZERO PUSH2 0x1A3B JUMPI DUP7 PUSH1 0x1 PUSH1 0x1 PUSH1 0xA0 SHL SUB AND PUSH1 0xD2 DUP3 DUP2 SLOAD DUP2 LT PUSH2 0x199A JUMPI PUSH2 0x199A PUSH2 0x2DCC JUMP JUMPDEST PUSH1 0x0 SWAP2 DUP3 MSTORE PUSH1 0x20 SWAP1 SWAP2 KECCAK256 ADD SLOAD PUSH1 0x1 PUSH1 0x1 PUSH1 0xA0 SHL SUB AND EQ ISZERO PUSH2 0x1A29 JUMPI PUSH1 0x1 SWAP2 POP DUP6 PUSH1 0xD2 DUP3 DUP2 SLOAD DUP2 LT PUSH2 0x19CD JUMPI PUSH2 0x19CD PUSH2 0x2DCC JUMP JUMPDEST PUSH1 0x0 SWAP2 DUP3 MSTORE PUSH1 0x20 DUP1 DUP4 KECCAK256 SWAP2 SWAP1 SWAP2 ADD DUP1 SLOAD PUSH1 0x1 PUSH1 0x1 PUSH1 0xA0 SHL SUB NOT AND PUSH1 0x1 PUSH1 0x1 PUSH1 0xA0 SHL SUB SWAP5 DUP6 AND OR SWAP1 SSTORE SWAP2 DUP9 AND DUP2 MSTORE PUSH1 0xC9 DUP3 MSTORE PUSH1 0x40 SWAP1 DUP2 SWAP1 KECCAK256 DUP6 MLOAD DUP2 SLOAD PUSH1 0xFF NOT AND SWAP1 ISZERO ISZERO OR DUP2 SSTORE SWAP2 DUP6 ADD MLOAD PUSH1 0x1 DUP4 ADD SSTORE DUP5 ADD MLOAD PUSH1 0x2 SWAP1 SWAP2 ADD SSTORE PUSH2 0x1A3B JUMP JUMPDEST DUP1 PUSH2 0x1A33 DUP2 PUSH2 0x2DFA JUMP JUMPDEST SWAP2 POP POP PUSH2 0x1973 JUMP JUMPDEST POP DUP1 PUSH2 0x1A89 JUMPI PUSH1 0x40 MLOAD PUSH3 0x461BCD PUSH1 0xE5 SHL DUP2 MSTORE PUSH1 0x20 PUSH1 0x4 DUP3 ADD MSTORE PUSH1 0x1B PUSH1 0x24 DUP3 ADD MSTORE PUSH32 0x696E76616C6964206F6C64537472617465677920616464726573730000000000 PUSH1 0x44 DUP3 ADD MSTORE PUSH1 0x64 ADD PUSH2 0x8A8 JUMP JUMPDEST PUSH2 0x1A91 PUSH2 0x294A JUMP JUMPDEST PUSH2 0x1AAD JUMPI PUSH1 0x40 MLOAD PUSH3 0x461BCD PUSH1 0xE5 SHL DUP2 MSTORE PUSH1 0x4 ADD PUSH2 0x8A8 SWAP1 PUSH2 0x2E15 JUMP JUMPDEST PUSH1 0x40 DUP1 MLOAD PUSH1 0x1 PUSH1 0x1 PUSH1 0xA0 SHL SUB DUP1 DUP10 AND DUP3 MSTORE DUP8 AND PUSH1 0x20 DUP3 ADD MSTORE SWAP1 DUP2 ADD DUP6 SWAP1 MSTORE PUSH32 0xF55572E1238E3CEF1CCE627268598C0BCDC71B7316311157752AE0A2E920998C SWAP1 PUSH1 0x60 ADD PUSH1 0x40 MLOAD DUP1 SWAP2 SUB SWAP1 LOG1 POP POP POP POP POP POP JUMP JUMPDEST PUSH1 0x0 DUP1 JUMPDEST PUSH1 0xD2 SLOAD PUSH1 0xFF DUP3 AND LT ISZERO PUSH2 0x1B5B JUMPI PUSH1 0xD2 DUP2 PUSH1 0xFF AND DUP2 SLOAD DUP2 LT PUSH2 0x1B27 JUMPI PUSH2 0x1B27 PUSH2 0x2DCC JUMP JUMPDEST PUSH1 0x0 SWAP2 DUP3 MSTORE PUSH1 0x20 SWAP1 SWAP2 KECCAK256 ADD SLOAD PUSH2 0x1B47 SWAP1 PUSH1 0x1 PUSH1 0x1 PUSH1 0xA0 SHL SUB AND BALANCE DUP4 PUSH2 0x2DE2 JUMP JUMPDEST SWAP2 POP DUP1 PUSH2 0x1B53 DUP2 PUSH2 0x2F0A JUMP JUMPDEST SWAP2 POP POP PUSH2 0x1B04 JUMP JUMPDEST POP PUSH2 0x1B64 PUSH2 0x179B JUMP JUMPDEST PUSH2 0x17BF SWAP1 DUP3 PUSH2 0x2DE2 JUMP JUMPDEST PUSH1 0x2 PUSH1 0x97 SLOAD EQ ISZERO PUSH2 0x1B91 JUMPI PUSH1 0x40 MLOAD PUSH3 0x461BCD PUSH1 0xE5 SHL DUP2 MSTORE PUSH1 0x4 ADD PUSH2 0x8A8 SWAP1 PUSH2 0x2D03 JUMP JUMPDEST PUSH1 0x2 PUSH1 0x97 SSTORE PUSH2 0x1B9E PUSH2 0x20C8 JUMP JUMPDEST PUSH1 0x0 PUSH1 0xCF SLOAD GT DUP1 ISZERO PUSH2 0x1BB2 JUMPI POP PUSH1 0xCF SLOAD SELFBALANCE LT ISZERO JUMPDEST ISZERO PUSH2 0x1C77 JUMPI PUSH1 0x0 PUSH1 0xCF DUP2 SWAP1 SSTORE PUSH1 0xD6 SLOAD PUSH1 0x40 MLOAD PUSH1 0x1 PUSH1 0x1 PUSH1 0xA0 SHL SUB SWAP1 SWAP2 AND SWAP1 DUP3 SWAP1 DUP2 DUP2 DUP2 DUP2 DUP2 DUP8 GAS CALL SWAP3 POP POP POP RETURNDATASIZE DUP1 PUSH1 0x0 DUP2 EQ PUSH2 0x1C0A JUMPI PUSH1 0x40 MLOAD SWAP2 POP PUSH1 0x1F NOT PUSH1 0x3F RETURNDATASIZE ADD AND DUP3 ADD PUSH1 0x40 MSTORE RETURNDATASIZE DUP3 MSTORE RETURNDATASIZE PUSH1 0x0 PUSH1 0x20 DUP5 ADD RETURNDATACOPY PUSH2 0x1C0F JUMP JUMPDEST PUSH1 0x60 SWAP2 POP JUMPDEST POP POP SWAP1 POP DUP1 PUSH2 0x1C30 JUMPI PUSH1 0x40 MLOAD PUSH3 0x461BCD PUSH1 0xE5 SHL DUP2 MSTORE PUSH1 0x4 ADD PUSH2 0x8A8 SWAP1 PUSH2 0x2E59 JUMP JUMPDEST PUSH1 0xD6 SLOAD PUSH1 0xCF SLOAD PUSH1 0x40 MLOAD SWAP1 DUP2 MSTORE PUSH1 0x1 PUSH1 0x1 PUSH1 0xA0 SHL SUB SWAP1 SWAP2 AND SWAP1 PUSH32 0x20CA5094F3A20C321CBE4123D0F01B276B81DF0FA24CD4D83D9253956035D863 SWAP1 PUSH1 0x20 ADD PUSH1 0x40 MLOAD DUP1 SWAP2 SUB SWAP1 LOG2 POP JUMPDEST PUSH1 0x1 PUSH1 0x97 SSTORE JUMP JUMPDEST PUSH2 0x1C86 PUSH2 0x20C8 JUMP JUMPDEST PUSH1 0x1 PUSH1 0x1 PUSH1 0xA0 SHL SUB DUP2 AND PUSH2 0x1CEB JUMPI PUSH1 0x40 MLOAD PUSH3 0x461BCD PUSH1 0xE5 SHL DUP2 MSTORE PUSH1 0x20 PUSH1 0x4 DUP3 ADD MSTORE PUSH1 0x26 PUSH1 0x24 DUP3 ADD MSTORE PUSH32 0x4F776E61626C653A206E6577206F776E657220697320746865207A65726F2061 PUSH1 0x44 DUP3 ADD MSTORE PUSH6 0x646472657373 PUSH1 0xD0 SHL PUSH1 0x64 DUP3 ADD MSTORE PUSH1 0x84 ADD PUSH2 0x8A8 JUMP JUMPDEST PUSH2 0x12D1 DUP2 PUSH2 0x28A7 JUMP JUMPDEST PUSH1 0x0 PUSH1 0x2 PUSH1 0x97 SLOAD EQ ISZERO PUSH2 0x1D19 JUMPI PUSH1 0x40 MLOAD PUSH3 0x461BCD PUSH1 0xE5 SHL DUP2 MSTORE PUSH1 0x4 ADD PUSH2 0x8A8 SWAP1 PUSH2 0x2D03 JUMP JUMPDEST PUSH1 0x2 PUSH1 0x97 SSTORE PUSH2 0x1D26 PUSH2 0x2122 JUMP JUMPDEST PUSH1 0x33 SLOAD PUSH1 0x1 PUSH1 0x1 PUSH1 0xA0 SHL SUB AND CALLER EQ DUP1 PUSH2 0x1D49 JUMPI POP PUSH1 0xD3 SLOAD PUSH1 0x1 PUSH1 0x1 PUSH1 0xA0 SHL SUB AND CALLER EQ JUMPDEST PUSH2 0x1D65 JUMPI PUSH1 0x40 MLOAD PUSH3 0x461BCD PUSH1 0xE5 SHL DUP2 MSTORE PUSH1 0x4 ADD PUSH2 0x8A8 SWAP1 PUSH2 0x2D3A JUMP JUMPDEST CALLER CALLVALUE DUP1 PUSH2 0x1DA5 JUMPI PUSH1 0x40 MLOAD PUSH3 0x461BCD PUSH1 0xE5 SHL DUP2 MSTORE PUSH1 0x20 PUSH1 0x4 DUP3 ADD MSTORE PUSH1 0xE PUSH1 0x24 DUP3 ADD MSTORE PUSH14 0x1A5B9D985B1A5908185B5BDD5B9D PUSH1 0x92 SHL PUSH1 0x44 DUP3 ADD MSTORE PUSH1 0x64 ADD PUSH2 0x8A8 JUMP JUMPDEST PUSH2 0x1DB1 DUP2 PUSH1 0xCB SLOAD PUSH2 0x2168 JUMP JUMPDEST SWAP3 POP PUSH2 0x1DBD DUP4 DUP3 PUSH2 0x2D98 JUMP JUMPDEST PUSH1 0xCF PUSH1 0x0 DUP3 DUP3 SLOAD PUSH2 0x1DCE SWAP2 SWAP1 PUSH2 0x2DE2 JUMP JUMPDEST SWAP1 SWAP2 SSTORE POP POP PUSH1 0xD4 SLOAD PUSH1 0x40 MLOAD PUSH4 0x40C10F19 PUSH1 0xE0 SHL DUP2 MSTORE PUSH1 0x1 PUSH1 0x1 PUSH1 0xA0 SHL SUB SWAP1 SWAP2 AND SWAP1 PUSH4 0x40C10F19 SWAP1 PUSH2 0x1E05 SWAP1 DUP6 SWAP1 DUP8 SWAP1 PUSH1 0x4 ADD PUSH2 0x2D69 JUMP JUMPDEST PUSH1 0x0 PUSH1 0x40 MLOAD DUP1 DUP4 SUB DUP2 PUSH1 0x0 DUP8 DUP1 EXTCODESIZE ISZERO DUP1 ISZERO PUSH2 0x1E1F JUMPI PUSH1 0x0 DUP1 REVERT JUMPDEST POP GAS CALL ISZERO DUP1 ISZERO PUSH2 0x1E33 JUMPI RETURNDATASIZE PUSH1 0x0 DUP1 RETURNDATACOPY RETURNDATASIZE PUSH1 0x0 REVERT JUMPDEST POP POP PUSH1 0x40 DUP1 MLOAD DUP5 DUP2 MSTORE PUSH1 0x20 DUP2 ADD DUP8 SWAP1 MSTORE PUSH1 0x1 PUSH1 0x1 PUSH1 0xA0 SHL SUB DUP7 AND SWAP4 POP DUP4 SWAP3 POP PUSH32 0xDCBC1C05240F31FF3AD067EF1EE35CE4997762752E3A095284754544F4C709D7 SWAP2 ADD PUSH1 0x40 MLOAD DUP1 SWAP2 SUB SWAP1 LOG3 POP POP PUSH1 0x1 PUSH1 0x97 SSTORE SWAP1 JUMP JUMPDEST PUSH2 0x1E8F PUSH2 0x20C8 JUMP JUMPDEST PUSH2 0x125C PUSH2 0x2A62 JUMP JUMPDEST PUSH1 0x0 SLOAD PUSH2 0x100 SWAP1 DIV PUSH1 0xFF AND ISZERO DUP1 DUP1 ISZERO PUSH2 0x1EB7 JUMPI POP PUSH1 0x0 SLOAD PUSH1 0x1 PUSH1 0xFF SWAP1 SWAP2 AND LT JUMPDEST DUP1 PUSH2 0x1ED1 JUMPI POP ADDRESS EXTCODESIZE ISZERO DUP1 ISZERO PUSH2 0x1ED1 JUMPI POP PUSH1 0x0 SLOAD PUSH1 0xFF AND PUSH1 0x1 EQ JUMPDEST PUSH2 0x1F34 JUMPI PUSH1 0x40 MLOAD PUSH3 0x461BCD PUSH1 0xE5 SHL DUP2 MSTORE PUSH1 0x20 PUSH1 0x4 DUP3 ADD MSTORE PUSH1 0x2E PUSH1 0x24 DUP3 ADD MSTORE PUSH32 0x496E697469616C697A61626C653A20636F6E747261637420697320616C726561 PUSH1 0x44 DUP3 ADD MSTORE PUSH14 0x191E481A5B9A5D1A585B1A5E9959 PUSH1 0x92 SHL PUSH1 0x64 DUP3 ADD MSTORE PUSH1 0x84 ADD PUSH2 0x8A8 JUMP JUMPDEST PUSH1 0x0 DUP1 SLOAD PUSH1 0xFF NOT AND PUSH1 0x1 OR SWAP1 SSTORE DUP1 ISZERO PUSH2 0x1F57 JUMPI PUSH1 0x0 DUP1 SLOAD PUSH2 0xFF00 NOT AND PUSH2 0x100 OR SWAP1 SSTORE JUMPDEST PUSH1 0x0 DUP6 GT DUP1 ISZERO PUSH2 0x1F6A JUMPI POP PUSH3 0xF4240 DUP6 GT ISZERO JUMPDEST PUSH2 0x1FAE JUMPI PUSH1 0x40 MLOAD PUSH3 0x461BCD PUSH1 0xE5 SHL DUP2 MSTORE PUSH1 0x20 PUSH1 0x4 DUP3 ADD MSTORE PUSH1 0x15 PUSH1 0x24 DUP3 ADD MSTORE PUSH21 0x696E76616C6964206D61784465706F736974466565 PUSH1 0x58 SHL PUSH1 0x44 DUP3 ADD MSTORE PUSH1 0x64 ADD PUSH2 0x8A8 JUMP JUMPDEST PUSH1 0x0 DUP5 GT DUP1 ISZERO PUSH2 0x1FC1 JUMPI POP PUSH3 0xF4240 DUP5 GT ISZERO JUMPDEST PUSH2 0x200D JUMPI PUSH1 0x40 MLOAD PUSH3 0x461BCD PUSH1 0xE5 SHL DUP2 MSTORE PUSH1 0x20 PUSH1 0x4 DUP3 ADD MSTORE PUSH1 0x19 PUSH1 0x24 DUP3 ADD MSTORE PUSH32 0x696E76616C6964206D61785769746864726177616C4665657300000000000000 PUSH1 0x44 DUP3 ADD MSTORE PUSH1 0x64 ADD PUSH2 0x8A8 JUMP JUMPDEST PUSH2 0x2015 PUSH2 0x2A9B JUMP JUMPDEST PUSH2 0x201D PUSH2 0x2ACA JUMP JUMPDEST PUSH2 0x2025 PUSH2 0x2AF9 JUMP JUMPDEST CALLER PUSH1 0x0 DUP2 DUP2 MSTORE PUSH1 0xCA PUSH1 0x20 MSTORE PUSH1 0x40 SWAP1 KECCAK256 DUP1 SLOAD PUSH1 0xFF NOT AND PUSH1 0x1 OR SWAP1 SSTORE PUSH1 0xCC DUP7 SWAP1 SSTORE PUSH1 0xCE DUP6 SWAP1 SSTORE PUSH1 0xFF DUP5 AND PUSH1 0xD0 SSTORE PUSH1 0xD6 DUP1 SLOAD PUSH1 0x1 PUSH1 0x1 PUSH1 0xA0 SHL SUB NOT SWAP1 DUP2 AND SWAP1 SWAP3 OR SWAP1 SSTORE PUSH1 0xD4 DUP1 SLOAD PUSH1 0x1 PUSH1 0x1 PUSH1 0xA0 SHL SUB DUP6 AND SWAP3 AND SWAP2 SWAP1 SWAP2 OR SWAP1 SSTORE DUP1 ISZERO PUSH2 0x20C1 JUMPI PUSH1 0x0 DUP1 SLOAD PUSH2 0xFF00 NOT AND SWAP1 SSTORE PUSH1 0x40 MLOAD PUSH1 0x1 DUP2 MSTORE PUSH32 0x7F26B83FF96E1F2B6A682F133852F6798A09C465DA95921460CEFB3847402498 SWAP1 PUSH1 0x20 ADD PUSH1 0x40 MLOAD DUP1 SWAP2 SUB SWAP1 LOG1 JUMPDEST POP POP POP POP POP JUMP JUMPDEST PUSH1 0x33 SLOAD PUSH1 0x1 PUSH1 0x1 PUSH1 0xA0 SHL SUB AND CALLER EQ PUSH2 0x125C JUMPI PUSH1 0x40 MLOAD PUSH3 0x461BCD PUSH1 0xE5 SHL DUP2 MSTORE PUSH1 0x20 PUSH1 0x4 DUP3 ADD DUP2 SWAP1 MSTORE PUSH1 0x24 DUP3 ADD MSTORE PUSH32 0x4F776E61626C653A2063616C6C6572206973206E6F7420746865206F776E6572 PUSH1 0x44 DUP3 ADD MSTORE PUSH1 0x64 ADD PUSH2 0x8A8 JUMP JUMPDEST PUSH1 0x65 SLOAD PUSH1 0xFF AND ISZERO PUSH2 0x125C JUMPI PUSH1 0x40 MLOAD PUSH3 0x461BCD PUSH1 0xE5 SHL DUP2 MSTORE PUSH1 0x20 PUSH1 0x4 DUP3 ADD MSTORE PUSH1 0x10 PUSH1 0x24 DUP3 ADD MSTORE PUSH16 0x14185D5CD8589B194E881C185D5CD959 PUSH1 0x82 SHL PUSH1 0x44 DUP3 ADD MSTORE PUSH1 0x64 ADD PUSH2 0x8A8 JUMP JUMPDEST PUSH1 0x0 DUP2 ISZERO PUSH2 0x219E JUMPI PUSH1 0x0 PUSH3 0xF4240 PUSH2 0x2180 DUP5 DUP7 PUSH2 0x2EC9 JUMP JUMPDEST PUSH2 0x218A SWAP2 SWAP1 PUSH2 0x2EE8 JUMP JUMPDEST SWAP1 POP PUSH2 0x2196 DUP2 DUP6 PUSH2 0x2D98 JUMP JUMPDEST SWAP2 POP POP PUSH2 0x11EC JUMP JUMPDEST POP DUP2 PUSH2 0x11EC JUMP JUMPDEST PUSH1 0x0 DUP1 DUP5 PUSH1 0x1 PUSH1 0x1 PUSH1 0xA0 SHL SUB AND PUSH4 0xBE19B9C5 DUP6 DUP6 PUSH1 0x40 MLOAD DUP4 PUSH4 0xFFFFFFFF AND PUSH1 0xE0 SHL DUP2 MSTORE PUSH1 0x4 ADD PUSH2 0x21D6 SWAP3 SWAP2 SWAP1 PUSH2 0x2D69 JUMP JUMPDEST PUSH1 0x20 PUSH1 0x40 MLOAD DUP1 DUP4 SUB DUP2 PUSH1 0x0 DUP8 GAS CALL ISZERO DUP1 ISZERO PUSH2 0x21F5 JUMPI RETURNDATASIZE PUSH1 0x0 DUP1 RETURNDATACOPY RETURNDATASIZE PUSH1 0x0 REVERT JUMPDEST POP POP POP POP PUSH1 0x40 MLOAD RETURNDATASIZE PUSH1 0x1F NOT PUSH1 0x1F DUP3 ADD AND DUP3 ADD DUP1 PUSH1 0x40 MSTORE POP DUP2 ADD SWAP1 PUSH2 0x2219 SWAP2 SWAP1 PUSH2 0x2EB0 JUMP JUMPDEST SWAP1 POP DUP3 PUSH1 0xD1 PUSH1 0x0 DUP3 DUP3 SLOAD PUSH2 0x222D SWAP2 SWAP1 PUSH2 0x2D98 JUMP JUMPDEST SWAP1 SWAP2 SSTORE POP POP PUSH1 0x1 PUSH1 0x1 PUSH1 0xA0 SHL SUB DUP6 AND PUSH1 0x0 SWAP1 DUP2 MSTORE PUSH1 0xC9 PUSH1 0x20 MSTORE PUSH1 0x40 DUP2 KECCAK256 PUSH1 0x2 ADD DUP1 SLOAD DUP6 SWAP3 SWAP1 PUSH2 0x225D SWAP1 DUP5 SWAP1 PUSH2 0x2D98 JUMP JUMPDEST SWAP1 SWAP2 SSTORE POP POP PUSH1 0x40 MLOAD PUSH32 0xF40C4F28536139446CDEDFFE635E5FC0DE1986A5AE5F1636AB5F6B44C23468AB SWAP1 PUSH2 0x2294 SWAP1 DUP8 SWAP1 DUP7 SWAP1 PUSH2 0x2D69 JUMP JUMPDEST PUSH1 0x40 MLOAD DUP1 SWAP2 SUB SWAP1 LOG1 SWAP5 SWAP4 POP POP POP POP JUMP JUMPDEST PUSH1 0x0 DUP1 JUMPDEST PUSH1 0xD2 SLOAD PUSH1 0xFF DUP3 AND LT ISZERO PUSH2 0x248B JUMPI PUSH1 0xC9 PUSH1 0x0 PUSH1 0xD2 DUP4 PUSH1 0xFF AND DUP2 SLOAD DUP2 LT PUSH2 0x22CF JUMPI PUSH2 0x22CF PUSH2 0x2DCC JUMP JUMPDEST PUSH1 0x0 SWAP2 DUP3 MSTORE PUSH1 0x20 DUP1 DUP4 KECCAK256 SWAP1 SWAP2 ADD SLOAD PUSH1 0x1 PUSH1 0x1 PUSH1 0xA0 SHL SUB AND DUP4 MSTORE DUP3 ADD SWAP3 SWAP1 SWAP3 MSTORE PUSH1 0x40 ADD SWAP1 KECCAK256 SLOAD PUSH1 0xFF AND DUP1 ISZERO PUSH2 0x2344 JUMPI POP PUSH1 0x0 PUSH1 0xC9 PUSH1 0x0 PUSH1 0xD2 DUP5 PUSH1 0xFF AND DUP2 SLOAD DUP2 LT PUSH2 0x231A JUMPI PUSH2 0x231A PUSH2 0x2DCC JUMP JUMPDEST PUSH1 0x0 SWAP2 DUP3 MSTORE PUSH1 0x20 DUP1 DUP4 KECCAK256 SWAP1 SWAP2 ADD SLOAD PUSH1 0x1 PUSH1 0x1 PUSH1 0xA0 SHL SUB AND DUP4 MSTORE DUP3 ADD SWAP3 SWAP1 SWAP3 MSTORE PUSH1 0x40 ADD SWAP1 KECCAK256 PUSH1 0x2 ADD SLOAD GT JUMPDEST DUP1 ISZERO PUSH2 0x234F JUMPI POP DUP3 DUP3 LT JUMPDEST ISZERO PUSH2 0x2479 JUMPI PUSH2 0x235E DUP3 DUP5 PUSH2 0x2D98 JUMP JUMPDEST PUSH1 0xC9 PUSH1 0x0 PUSH1 0xD2 DUP5 PUSH1 0xFF AND DUP2 SLOAD DUP2 LT PUSH2 0x2378 JUMPI PUSH2 0x2378 PUSH2 0x2DCC JUMP JUMPDEST PUSH1 0x0 SWAP2 DUP3 MSTORE PUSH1 0x20 DUP1 DUP4 KECCAK256 SWAP1 SWAP2 ADD SLOAD PUSH1 0x1 PUSH1 0x1 PUSH1 0xA0 SHL SUB AND DUP4 MSTORE DUP3 ADD SWAP3 SWAP1 SWAP3 MSTORE PUSH1 0x40 ADD SWAP1 KECCAK256 PUSH1 0x2 ADD SLOAD LT PUSH2 0x23ED JUMPI PUSH2 0x23E3 PUSH1 0xD2 DUP3 PUSH1 0xFF AND DUP2 SLOAD DUP2 LT PUSH2 0x23BE JUMPI PUSH2 0x23BE PUSH2 0x2DCC JUMP JUMPDEST PUSH1 0x0 SWAP2 DUP3 MSTORE PUSH1 0x20 SWAP1 SWAP2 KECCAK256 ADD SLOAD PUSH1 0x1 PUSH1 0x1 PUSH1 0xA0 SHL SUB AND DUP6 PUSH2 0x23DE DUP6 DUP8 PUSH2 0x2D98 JUMP JUMPDEST PUSH2 0x26B5 JUMP JUMPDEST PUSH2 0x2196 SWAP1 DUP4 PUSH2 0x2DE2 JUMP JUMPDEST PUSH2 0x246C PUSH1 0xD2 DUP3 PUSH1 0xFF AND DUP2 SLOAD DUP2 LT PUSH2 0x2406 JUMPI PUSH2 0x2406 PUSH2 0x2DCC JUMP JUMPDEST SWAP1 PUSH1 0x0 MSTORE PUSH1 0x20 PUSH1 0x0 KECCAK256 ADD PUSH1 0x0 SWAP1 SLOAD SWAP1 PUSH2 0x100 EXP SWAP1 DIV PUSH1 0x1 PUSH1 0x1 PUSH1 0xA0 SHL SUB AND DUP6 PUSH1 0xC9 PUSH1 0x0 PUSH1 0xD2 DUP7 PUSH1 0xFF AND DUP2 SLOAD DUP2 LT PUSH2 0x243F JUMPI PUSH2 0x243F PUSH2 0x2DCC JUMP JUMPDEST PUSH1 0x0 SWAP2 DUP3 MSTORE PUSH1 0x20 DUP1 DUP4 KECCAK256 SWAP1 SWAP2 ADD SLOAD PUSH1 0x1 PUSH1 0x1 PUSH1 0xA0 SHL SUB AND DUP4 MSTORE DUP3 ADD SWAP3 SWAP1 SWAP3 MSTORE PUSH1 0x40 ADD SWAP1 KECCAK256 PUSH1 0x2 ADD SLOAD PUSH2 0x26B5 JUMP JUMPDEST PUSH2 0x2476 SWAP1 DUP4 PUSH2 0x2DE2 JUMP JUMPDEST SWAP2 POP JUMPDEST DUP1 PUSH2 0x2483 DUP2 PUSH2 0x2F0A JUMP JUMPDEST SWAP2 POP POP PUSH2 0x22A8 JUMP JUMPDEST POP SWAP3 SWAP2 POP POP JUMP JUMPDEST PUSH1 0x0 DUP1 DUP3 GT PUSH2 0x24DC JUMPI PUSH1 0x40 MLOAD PUSH3 0x461BCD PUSH1 0xE5 SHL DUP2 MSTORE PUSH1 0x20 PUSH1 0x4 DUP3 ADD MSTORE PUSH1 0x16 PUSH1 0x24 DUP3 ADD MSTORE PUSH22 0x1A5B9D985B1A590819195C1BDCDA5D08185B5BDD5B9D PUSH1 0x52 SHL PUSH1 0x44 DUP3 ADD MSTORE PUSH1 0x64 ADD PUSH2 0x8A8 JUMP JUMPDEST DUP2 PUSH2 0x24E5 PUSH2 0x179B JUMP JUMPDEST LT ISZERO PUSH2 0x252A JUMPI PUSH1 0x40 MLOAD PUSH3 0x461BCD PUSH1 0xE5 SHL DUP2 MSTORE PUSH1 0x20 PUSH1 0x4 DUP3 ADD MSTORE PUSH1 0x14 PUSH1 0x24 DUP3 ADD MSTORE PUSH20 0x696E73756666696369656E742062616C616E6365 PUSH1 0x60 SHL PUSH1 0x44 DUP3 ADD MSTORE PUSH1 0x64 ADD PUSH2 0x8A8 JUMP JUMPDEST PUSH1 0x1 PUSH1 0x1 PUSH1 0xA0 SHL SUB DUP4 AND PUSH1 0x0 SWAP1 DUP2 MSTORE PUSH1 0xC9 PUSH1 0x20 MSTORE PUSH1 0x40 SWAP1 KECCAK256 SLOAD PUSH1 0xFF AND DUP1 ISZERO PUSH2 0x25B6 JUMPI POP PUSH1 0x40 MLOAD PUSH4 0x1CA21DC7 PUSH1 0xE1 SHL DUP2 MSTORE PUSH1 0x4 DUP2 ADD DUP4 SWAP1 MSTORE PUSH1 0x1 PUSH1 0x1 PUSH1 0xA0 SHL SUB DUP5 AND SWAP1 PUSH4 0x39443B8E SWAP1 PUSH1 0x24 ADD PUSH1 0x20 PUSH1 0x40 MLOAD DUP1 DUP4 SUB DUP2 DUP7 GAS STATICCALL ISZERO DUP1 ISZERO PUSH2 0x2592 JUMPI RETURNDATASIZE PUSH1 0x0 DUP1 RETURNDATACOPY RETURNDATASIZE PUSH1 0x0 REVERT JUMPDEST POP POP POP POP PUSH1 0x40 MLOAD RETURNDATASIZE PUSH1 0x1F NOT PUSH1 0x1F DUP3 ADD AND DUP3 ADD DUP1 PUSH1 0x40 MSTORE POP DUP2 ADD SWAP1 PUSH2 0x25B6 SWAP2 SWAP1 PUSH2 0x2F2A JUMP JUMPDEST ISZERO PUSH2 0x11EC JUMPI PUSH1 0x0 DUP4 PUSH1 0x1 PUSH1 0x1 PUSH1 0xA0 SHL SUB AND PUSH4 0xD0E30DB0 DUP5 PUSH1 0x40 MLOAD DUP3 PUSH4 0xFFFFFFFF AND PUSH1 0xE0 SHL DUP2 MSTORE PUSH1 0x4 ADD PUSH1 0x20 PUSH1 0x40 MLOAD DUP1 DUP4 SUB DUP2 DUP6 DUP9 GAS CALL ISZERO DUP1 ISZERO PUSH2 0x25FD JUMPI RETURNDATASIZE PUSH1 0x0 DUP1 RETURNDATACOPY RETURNDATASIZE PUSH1 0x0 REVERT JUMPDEST POP POP POP POP POP PUSH1 0x40 MLOAD RETURNDATASIZE PUSH1 0x1F NOT PUSH1 0x1F DUP3 ADD AND DUP3 ADD DUP1 PUSH1 0x40 MSTORE POP DUP2 ADD SWAP1 PUSH2 0x2622 SWAP2 SWAP1 PUSH2 0x2EB0 JUMP JUMPDEST SWAP1 POP DUP1 ISZERO PUSH2 0x248B JUMPI DUP1 PUSH1 0xD1 PUSH1 0x0 DUP3 DUP3 SLOAD PUSH2 0x263C SWAP2 SWAP1 PUSH2 0x2DE2 JUMP JUMPDEST SWAP1 SWAP2 SSTORE POP POP PUSH1 0x1 PUSH1 0x1 PUSH1 0xA0 SHL SUB DUP5 AND PUSH1 0x0 SWAP1 DUP2 MSTORE PUSH1 0xC9 PUSH1 0x20 MSTORE PUSH1 0x40 DUP2 KECCAK256 PUSH1 0x2 ADD DUP1 SLOAD DUP4 SWAP3 SWAP1 PUSH2 0x266C SWAP1 DUP5 SWAP1 PUSH2 0x2DE2 JUMP JUMPDEST SWAP1 SWAP2 SSTORE POP POP PUSH1 0x40 MLOAD PUSH32 0xF47C2BA90B71EF36B592A780F1D750D3A480494FDC7C9B84BB3F9D8DE8A1B40A SWAP1 PUSH2 0x26A3 SWAP1 DUP7 SWAP1 DUP7 SWAP1 PUSH2 0x2D69 JUMP JUMPDEST PUSH1 0x40 MLOAD DUP1 SWAP2 SUB SWAP1 LOG1 PUSH1 0x1 SWAP2 POP POP PUSH2 0x11EC JUMP JUMPDEST PUSH1 0x0 DUP1 DUP3 GT PUSH2 0x2702 JUMPI PUSH1 0x40 MLOAD PUSH3 0x461BCD PUSH1 0xE5 SHL DUP2 MSTORE PUSH1 0x20 PUSH1 0x4 DUP3 ADD MSTORE PUSH1 0x19 PUSH1 0x24 DUP3 ADD MSTORE PUSH25 0x1A5B9D985B1A59081DDA5D1A191C985DD85B08185B5BDD5B9D PUSH1 0x3A SHL PUSH1 0x44 DUP3 ADD MSTORE PUSH1 0x64 ADD PUSH2 0x8A8 JUMP JUMPDEST PUSH1 0x1 PUSH1 0x1 PUSH1 0xA0 SHL SUB DUP5 AND PUSH1 0x0 SWAP1 DUP2 MSTORE PUSH1 0xC9 PUSH1 0x20 MSTORE PUSH1 0x40 SWAP1 KECCAK256 PUSH1 0x2 ADD SLOAD DUP3 GT ISZERO PUSH2 0x276D JUMPI PUSH1 0x40 MLOAD PUSH3 0x461BCD PUSH1 0xE5 SHL DUP2 MSTORE PUSH1 0x20 PUSH1 0x4 DUP3 ADD MSTORE PUSH1 0x1F PUSH1 0x24 DUP3 ADD MSTORE PUSH32 0x696E73756666696369656E742061737365747320696E20737472617465677900 PUSH1 0x44 DUP3 ADD MSTORE PUSH1 0x64 ADD PUSH2 0x8A8 JUMP JUMPDEST PUSH1 0x40 MLOAD PUSH4 0xF3FEF3A3 PUSH1 0xE0 SHL DUP2 MSTORE PUSH1 0x0 SWAP1 PUSH1 0x1 PUSH1 0x1 PUSH1 0xA0 SHL SUB DUP7 AND SWAP1 PUSH4 0xF3FEF3A3 SWAP1 PUSH2 0x279E SWAP1 DUP8 SWAP1 DUP8 SWAP1 PUSH1 0x4 ADD PUSH2 0x2D69 JUMP JUMPDEST PUSH1 0x20 PUSH1 0x40 MLOAD DUP1 DUP4 SUB DUP2 PUSH1 0x0 DUP8 GAS CALL ISZERO DUP1 ISZERO PUSH2 0x27BD JUMPI RETURNDATASIZE PUSH1 0x0 DUP1 RETURNDATACOPY RETURNDATASIZE PUSH1 0x0 REVERT JUMPDEST POP POP POP POP PUSH1 0x40 MLOAD RETURNDATASIZE PUSH1 0x1F NOT PUSH1 0x1F DUP3 ADD AND DUP3 ADD DUP1 PUSH1 0x40 MSTORE POP DUP2 ADD SWAP1 PUSH2 0x27E1 SWAP2 SWAP1 PUSH2 0x2EB0 JUMP JUMPDEST SWAP1 POP DUP3 DUP2 GT ISZERO PUSH2 0x282E JUMPI PUSH1 0x40 MLOAD PUSH3 0x461BCD PUSH1 0xE5 SHL DUP2 MSTORE PUSH1 0x20 PUSH1 0x4 DUP3 ADD MSTORE PUSH1 0x18 PUSH1 0x24 DUP3 ADD MSTORE PUSH24 0x1A5B9D985B1A59081DDA5D1A191C985DDB88185B5BDD5B9D PUSH1 0x42 SHL PUSH1 0x44 DUP3 ADD MSTORE PUSH1 0x64 ADD PUSH2 0x8A8 JUMP JUMPDEST DUP3 PUSH1 0xD1 PUSH1 0x0 DUP3 DUP3 SLOAD PUSH2 0x2840 SWAP2 SWAP1 PUSH2 0x2D98 JUMP JUMPDEST SWAP1 SWAP2 SSTORE POP POP PUSH1 0x1 PUSH1 0x1 PUSH1 0xA0 SHL SUB DUP6 AND PUSH1 0x0 SWAP1 DUP2 MSTORE PUSH1 0xC9 PUSH1 0x20 MSTORE PUSH1 0x40 DUP2 KECCAK256 PUSH1 0x2 ADD DUP1 SLOAD DUP6 SWAP3 SWAP1 PUSH2 0x2870 SWAP1 DUP5 SWAP1 PUSH2 0x2D98 JUMP JUMPDEST SWAP1 SWAP2 SSTORE POP POP PUSH1 0x40 MLOAD PUSH32 0xD442D8F1594FC5996CAED833EB6135A4C223A05BDBED778C0D8415A52EB87FEA SWAP1 PUSH2 0x2294 SWAP1 DUP8 SWAP1 DUP7 SWAP1 PUSH2 0x2D69 JUMP JUMPDEST PUSH1 0x33 DUP1 SLOAD PUSH1 0x1 PUSH1 0x1 PUSH1 0xA0 SHL SUB DUP4 DUP2 AND PUSH1 0x1 PUSH1 0x1 PUSH1 0xA0 SHL SUB NOT DUP4 AND DUP2 OR SWAP1 SWAP4 SSTORE PUSH1 0x40 MLOAD SWAP2 AND SWAP2 SWAP1 DUP3 SWAP1 PUSH32 0x8BE0079C531659141344CD1FD0A4F28419497F9722A3DAAFE3B4186F6B6457E0 SWAP1 PUSH1 0x0 SWAP1 LOG3 POP POP JUMP JUMPDEST PUSH1 0x1 PUSH1 0x1 PUSH1 0xA0 SHL SUB DUP2 AND PUSH1 0x0 SWAP1 DUP2 MSTORE PUSH1 0xC9 PUSH1 0x20 MSTORE PUSH1 0x40 DUP2 KECCAK256 PUSH1 0x2 ADD SLOAD PUSH1 0xA LT PUSH2 0x2945 JUMPI POP PUSH1 0x1 PUSH1 0x1 PUSH1 0xA0 SHL SUB AND PUSH1 0x0 SWAP1 DUP2 MSTORE PUSH1 0xC9 PUSH1 0x20 MSTORE PUSH1 0x40 DUP2 KECCAK256 DUP1 SLOAD PUSH1 0xFF NOT AND DUP2 SSTORE PUSH1 0x2 ADD SSTORE PUSH1 0x1 SWAP1 JUMP JUMPDEST SWAP2 SWAP1 POP JUMP JUMPDEST PUSH1 0x0 DUP1 PUSH1 0x0 JUMPDEST PUSH1 0xD2 SLOAD DUP2 LT ISZERO PUSH2 0x29FC JUMPI PUSH1 0xC9 PUSH1 0x0 PUSH1 0xD2 DUP4 DUP2 SLOAD DUP2 LT PUSH2 0x2971 JUMPI PUSH2 0x2971 PUSH2 0x2DCC JUMP JUMPDEST PUSH1 0x0 SWAP2 DUP3 MSTORE PUSH1 0x20 DUP1 DUP4 KECCAK256 SWAP1 SWAP2 ADD SLOAD PUSH1 0x1 PUSH1 0x1 PUSH1 0xA0 SHL SUB AND DUP4 MSTORE DUP3 ADD SWAP3 SWAP1 SWAP3 MSTORE PUSH1 0x40 ADD SWAP1 KECCAK256 SLOAD PUSH1 0xFF AND ISZERO PUSH2 0x29EA JUMPI PUSH1 0xC9 PUSH1 0x0 PUSH1 0xD2 DUP4 DUP2 SLOAD DUP2 LT PUSH2 0x29B5 JUMPI PUSH2 0x29B5 PUSH2 0x2DCC JUMP JUMPDEST PUSH1 0x0 SWAP2 DUP3 MSTORE PUSH1 0x20 DUP1 DUP4 KECCAK256 SWAP1 SWAP2 ADD SLOAD PUSH1 0x1 PUSH1 0x1 PUSH1 0xA0 SHL SUB AND DUP4 MSTORE DUP3 ADD SWAP3 SWAP1 SWAP3 MSTORE PUSH1 0x40 ADD SWAP1 KECCAK256 PUSH1 0x1 ADD SLOAD PUSH2 0x29E7 SWAP1 DUP4 PUSH2 0x2DE2 JUMP JUMPDEST SWAP2 POP JUMPDEST DUP1 PUSH2 0x29F4 DUP2 PUSH2 0x2DFA JUMP JUMPDEST SWAP2 POP POP PUSH2 0x2950 JUMP JUMPDEST POP PUSH3 0xF4240 LT ISZERO SWAP2 SWAP1 POP JUMP JUMPDEST PUSH2 0x2A10 PUSH2 0x2122 JUMP JUMPDEST PUSH1 0x65 DUP1 SLOAD PUSH1 0xFF NOT AND PUSH1 0x1 OR SWAP1 SSTORE PUSH32 0x62E78CEA01BEE320CD4E420270B5EA74000D11B0C9F74754EBDBFC544B05A258 PUSH2 0x2A45 CALLER SWAP1 JUMP JUMPDEST PUSH1 0x40 MLOAD PUSH1 0x1 PUSH1 0x1 PUSH1 0xA0 SHL SUB SWAP1 SWAP2 AND DUP2 MSTORE PUSH1 0x20 ADD PUSH1 0x40 MLOAD DUP1 SWAP2 SUB SWAP1 LOG1 JUMP JUMPDEST PUSH2 0x2A6A PUSH2 0x2B28 JUMP JUMPDEST PUSH1 0x65 DUP1 SLOAD PUSH1 0xFF NOT AND SWAP1 SSTORE PUSH32 0x5DB9EE0A495BF2E6FF9C91A7834C1BA4FDD244A5E8AA4E537BD38AEAE4B073AA CALLER PUSH2 0x2A45 JUMP JUMPDEST PUSH1 0x0 SLOAD PUSH2 0x100 SWAP1 DIV PUSH1 0xFF AND PUSH2 0x2AC2 JUMPI PUSH1 0x40 MLOAD PUSH3 0x461BCD PUSH1 0xE5 SHL DUP2 MSTORE PUSH1 0x4 ADD PUSH2 0x8A8 SWAP1 PUSH2 0x2F4C JUMP JUMPDEST PUSH2 0x125C PUSH2 0x2B71 JUMP JUMPDEST PUSH1 0x0 SLOAD PUSH2 0x100 SWAP1 DIV PUSH1 0xFF AND PUSH2 0x2AF1 JUMPI PUSH1 0x40 MLOAD PUSH3 0x461BCD PUSH1 0xE5 SHL DUP2 MSTORE PUSH1 0x4 ADD PUSH2 0x8A8 SWAP1 PUSH2 0x2F4C JUMP JUMPDEST PUSH2 0x125C PUSH2 0x2BA1 JUMP JUMPDEST PUSH1 0x0 SLOAD PUSH2 0x100 SWAP1 DIV PUSH1 0xFF AND PUSH2 0x2B20 JUMPI PUSH1 0x40 MLOAD PUSH3 0x461BCD PUSH1 0xE5 SHL DUP2 MSTORE PUSH1 0x4 ADD PUSH2 0x8A8 SWAP1 PUSH2 0x2F4C JUMP JUMPDEST PUSH2 0x125C PUSH2 0x2BD4 JUMP JUMPDEST PUSH1 0x65 SLOAD PUSH1 0xFF AND PUSH2 0x125C JUMPI PUSH1 0x40 MLOAD PUSH3 0x461BCD PUSH1 0xE5 SHL DUP2 MSTORE PUSH1 0x20 PUSH1 0x4 DUP3 ADD MSTORE PUSH1 0x14 PUSH1 0x24 DUP3 ADD MSTORE PUSH20 0x14185D5CD8589B194E881B9BDD081C185D5CD959 PUSH1 0x62 SHL PUSH1 0x44 DUP3 ADD MSTORE PUSH1 0x64 ADD PUSH2 0x8A8 JUMP JUMPDEST PUSH1 0x0 SLOAD PUSH2 0x100 SWAP1 DIV PUSH1 0xFF AND PUSH2 0x2B98 JUMPI PUSH1 0x40 MLOAD PUSH3 0x461BCD PUSH1 0xE5 SHL DUP2 MSTORE PUSH1 0x4 ADD PUSH2 0x8A8 SWAP1 PUSH2 0x2F4C JUMP JUMPDEST PUSH2 0x125C CALLER PUSH2 0x28A7 JUMP JUMPDEST PUSH1 0x0 SLOAD PUSH2 0x100 SWAP1 DIV PUSH1 0xFF AND PUSH2 0x2BC8 JUMPI PUSH1 0x40 MLOAD PUSH3 0x461BCD PUSH1 0xE5 SHL DUP2 MSTORE PUSH1 0x4 ADD PUSH2 0x8A8 SWAP1 PUSH2 0x2F4C JUMP JUMPDEST PUSH1 0x65 DUP1 SLOAD PUSH1 0xFF NOT AND SWAP1 SSTORE JUMP JUMPDEST PUSH1 0x0 SLOAD PUSH2 0x100 SWAP1 DIV PUSH1 0xFF AND PUSH2 0x1C77 JUMPI PUSH1 0x40 MLOAD PUSH3 0x461BCD PUSH1 0xE5 SHL DUP2 MSTORE PUSH1 0x4 ADD PUSH2 0x8A8 SWAP1 PUSH2 0x2F4C JUMP JUMPDEST PUSH1 0x1 PUSH1 0x1 PUSH1 0xA0 SHL SUB DUP2 AND DUP2 EQ PUSH2 0x12D1 JUMPI PUSH1 0x0 DUP1 REVERT JUMPDEST PUSH1 0x0 PUSH1 0x20 DUP3 DUP5 SUB SLT ISZERO PUSH2 0x2C22 JUMPI PUSH1 0x0 DUP1 REVERT JUMPDEST DUP2 CALLDATALOAD PUSH2 0x1858 DUP2 PUSH2 0x2BFB JUMP JUMPDEST PUSH1 0x0 DUP1 PUSH1 0x0 PUSH1 0x60 DUP5 DUP7 SUB SLT ISZERO PUSH2 0x2C42 JUMPI PUSH1 0x0 DUP1 REVERT JUMPDEST DUP4 CALLDATALOAD PUSH2 0x2C4D DUP2 PUSH2 0x2BFB JUMP JUMPDEST SWAP3 POP PUSH1 0x20 DUP5 ADD CALLDATALOAD PUSH2 0x2C5D DUP2 PUSH2 0x2BFB JUMP JUMPDEST SWAP3 SWAP6 SWAP3 SWAP5 POP POP POP PUSH1 0x40 SWAP2 SWAP1 SWAP2 ADD CALLDATALOAD SWAP1 JUMP JUMPDEST PUSH1 0x0 DUP1 PUSH1 0x40 DUP4 DUP6 SUB SLT ISZERO PUSH2 0x2C81 JUMPI PUSH1 0x0 DUP1 REVERT JUMPDEST DUP3 CALLDATALOAD PUSH2 0x2C8C DUP2 PUSH2 0x2BFB JUMP JUMPDEST SWAP5 PUSH1 0x20 SWAP4 SWAP1 SWAP4 ADD CALLDATALOAD SWAP4 POP POP POP JUMP JUMPDEST PUSH1 0x0 PUSH1 0x20 DUP3 DUP5 SUB SLT ISZERO PUSH2 0x2CAC JUMPI PUSH1 0x0 DUP1 REVERT JUMPDEST POP CALLDATALOAD SWAP2 SWAP1 POP JUMP JUMPDEST PUSH1 0x0 DUP1 PUSH1 0x0 DUP1 PUSH1 0x80 DUP6 DUP8 SUB SLT ISZERO PUSH2 0x2CC9 JUMPI PUSH1 0x0 DUP1 REVERT JUMPDEST DUP5 CALLDATALOAD SWAP4 POP PUSH1 0x20 DUP6 ADD CALLDATALOAD SWAP3 POP PUSH1 0x40 DUP6 ADD CALLDATALOAD PUSH1 0xFF DUP2 AND DUP2 EQ PUSH2 0x2CE8 JUMPI PUSH1 0x0 DUP1 REVERT JUMPDEST SWAP2 POP PUSH1 0x60 DUP6 ADD CALLDATALOAD PUSH2 0x2CF8 DUP2 PUSH2 0x2BFB JUMP JUMPDEST SWAP4 SWAP7 SWAP3 SWAP6 POP SWAP1 SWAP4 POP POP JUMP JUMPDEST PUSH1 0x20 DUP1 DUP3 MSTORE PUSH1 0x1F SWAP1 DUP3 ADD MSTORE PUSH32 0x5265656E7472616E637947756172643A207265656E7472616E742063616C6C00 PUSH1 0x40 DUP3 ADD MSTORE PUSH1 0x60 ADD SWAP1 JUMP JUMPDEST PUSH1 0x20 DUP1 DUP3 MSTORE PUSH1 0x15 SWAP1 DUP3 ADD MSTORE PUSH21 0x141C9BDD9A59195C8E881B9BDD08185B1B1BDDD959 PUSH1 0x5A SHL PUSH1 0x40 DUP3 ADD MSTORE PUSH1 0x60 ADD SWAP1 JUMP JUMPDEST PUSH1 0x1 PUSH1 0x1 PUSH1 0xA0 SHL SUB SWAP3 SWAP1 SWAP3 AND DUP3 MSTORE PUSH1 0x20 DUP3 ADD MSTORE PUSH1 0x40 ADD SWAP1 JUMP JUMPDEST PUSH4 0x4E487B71 PUSH1 0xE0 SHL PUSH1 0x0 MSTORE PUSH1 0x11 PUSH1 0x4 MSTORE PUSH1 0x24 PUSH1 0x0 REVERT JUMPDEST PUSH1 0x0 DUP3 DUP3 LT ISZERO PUSH2 0x2DAA JUMPI PUSH2 0x2DAA PUSH2 0x2D82 JUMP JUMPDEST POP SUB SWAP1 JUMP JUMPDEST PUSH1 0x0 PUSH1 0x20 DUP3 DUP5 SUB SLT ISZERO PUSH2 0x2DC1 JUMPI PUSH1 0x0 DUP1 REVERT JUMPDEST DUP2 MLOAD PUSH2 0x1858 DUP2 PUSH2 0x2BFB JUMP JUMPDEST PUSH4 0x4E487B71 PUSH1 0xE0 SHL PUSH1 0x0 MSTORE PUSH1 0x32 PUSH1 0x4 MSTORE PUSH1 0x24 PUSH1 0x0 REVERT JUMPDEST PUSH1 0x0 DUP3 NOT DUP3 GT ISZERO PUSH2 0x2DF5 JUMPI PUSH2 0x2DF5 PUSH2 0x2D82 JUMP JUMPDEST POP ADD SWAP1 JUMP JUMPDEST PUSH1 0x0 PUSH1 0x0 NOT DUP3 EQ ISZERO PUSH2 0x2E0E JUMPI PUSH2 0x2E0E PUSH2 0x2D82 JUMP JUMPDEST POP PUSH1 0x1 ADD SWAP1 JUMP JUMPDEST PUSH1 0x20 DUP1 DUP3 MSTORE PUSH1 0x24 SWAP1 DUP3 ADD MSTORE PUSH32 0x616C6C6F636174696F6E732063616E6E6F74206265206D6F7265207468616E20 PUSH1 0x40 DUP3 ADD MSTORE PUSH4 0x31303025 PUSH1 0xE0 SHL PUSH1 0x60 DUP3 ADD MSTORE PUSH1 0x80 ADD SWAP1 JUMP JUMPDEST PUSH1 0x20 DUP1 DUP3 MSTORE PUSH1 0xF SWAP1 DUP3 ADD MSTORE PUSH15 0x1D1C985B9CD9995C8819985A5B1959 PUSH1 0x8A SHL PUSH1 0x40 DUP3 ADD MSTORE PUSH1 0x60 ADD SWAP1 JUMP JUMPDEST PUSH1 0x20 DUP1 DUP3 MSTORE PUSH1 0x14 SWAP1 DUP3 ADD MSTORE PUSH20 0x13585B9859D95C8E881B9BDD08185B1B1BDDD959 PUSH1 0x62 SHL PUSH1 0x40 DUP3 ADD MSTORE PUSH1 0x60 ADD SWAP1 JUMP JUMPDEST PUSH1 0x0 PUSH1 0x20 DUP3 DUP5 SUB SLT ISZERO PUSH2 0x2EC2 JUMPI PUSH1 0x0 DUP1 REVERT JUMPDEST POP MLOAD SWAP2 SWAP1 POP JUMP JUMPDEST PUSH1 0x0 DUP2 PUSH1 0x0 NOT DIV DUP4 GT DUP3 ISZERO ISZERO AND ISZERO PUSH2 0x2EE3 JUMPI PUSH2 0x2EE3 PUSH2 0x2D82 JUMP JUMPDEST POP MUL SWAP1 JUMP JUMPDEST PUSH1 0x0 DUP3 PUSH2 0x2F05 JUMPI PUSH4 0x4E487B71 PUSH1 0xE0 SHL PUSH1 0x0 MSTORE PUSH1 0x12 PUSH1 0x4 MSTORE PUSH1 0x24 PUSH1 0x0 REVERT JUMPDEST POP DIV SWAP1 JUMP JUMPDEST PUSH1 0x0 PUSH1 0xFF DUP3 AND PUSH1 0xFF DUP2 EQ ISZERO PUSH2 0x2F21 JUMPI PUSH2 0x2F21 PUSH2 0x2D82 JUMP JUMPDEST PUSH1 0x1 ADD SWAP3 SWAP2 POP POP JUMP JUMPDEST PUSH1 0x0 PUSH1 0x20 DUP3 DUP5 SUB SLT ISZERO PUSH2 0x2F3C JUMPI PUSH1 0x0 DUP1 REVERT JUMPDEST DUP2 MLOAD DUP1 ISZERO ISZERO DUP2 EQ PUSH2 0x1858 JUMPI PUSH1 0x0 DUP1 REVERT JUMPDEST PUSH1 0x20 DUP1 DUP3 MSTORE PUSH1 0x2B SWAP1 DUP3 ADD MSTORE PUSH32 0x496E697469616C697A61626C653A20636F6E7472616374206973206E6F742069 PUSH1 0x40 DUP3 ADD MSTORE PUSH11 0x6E697469616C697A696E67 PUSH1 0xA8 SHL PUSH1 0x60 DUP3 ADD MSTORE PUSH1 0x80 ADD SWAP1 JUMP INVALID LOG2 PUSH5 0x6970667358 0x22 SLT KECCAK256 STOP 0xBC DUP9 0xF6 0x5C LOG4 DELEGATECALL CALLDATASIZE 0xCE 0xBF 0xC1 XOR 0xDF 0xC6 0xD4 PUSH12 0x9FBC0ABA2D0E3A8461B8CDAB JUMPDEST CREATE SWAP6 REVERT PUSH5 0x736F6C6343 STOP ADDMOD EXP STOP CALLER "
				},
				"gasEstimates": {
					"creation": {
						"codeDepositCost": "2447400",
						"executionCost": "2635",
						"totalCost": "2450035"
					},
					"external": {
						"MAX_STRATEGIES()": "2329",
						"addManager(address)": "27966",
						"allocate()": "infinite",
						"asset()": "2450",
						"availableToWithdraw()": "infinite",
						"balanceOfTokenFromStrategy(address)": "infinite",
						"changeFeeReceiver(address)": "27918",
						"changeProvider(address)": "27896",
						"changeStrategyAllocation(address,uint256)": "infinite",
						"depositAllToStrategy(address)": "infinite",
						"depositETH()": "infinite",
						"depositFee()": "2352",
						"depositToStrategy(address,uint256)": "infinite",
						"estimateInTokenFromStrategy(address,uint256)": "infinite",
						"feeEarned()": "2351",
						"feeReceiver()": "2382",
						"initialize(uint256,uint256,uint8,address)": "infinite",
						"manager(address)": "2680",
						"maxDepositFee()": "2330",
						"maxWithdrawalFee()": "2328",
						"migrateStrategy(address,address,uint256)": "infinite",
						"owner()": "2486",
						"pause()": "infinite",
						"paused()": "2339",
						"provider()": "2406",
						"removeManager(address)": "30145",
						"renounceOwnership()": "infinite",
						"retireStrat(address)": "34197",
						"setDepositFee(uint256)": "27778",
						"setStrategy(address,uint256)": "infinite",
						"setWithdrawalFee(uint256)": "27800",
						"strategies(uint256)": "4659",
						"strategyParams(address)": "6892",
						"totalAssetInVault()": "4646",
						"totalAssets()": "219",
						"totalDebt()": "2438",
						"transferOwnership(address)": "infinite",
						"unPause()": "infinite",
						"vaultToken()": "2427",
						"waitingPool()": "2448",
						"withdrawAllFromStrategy(address)": "infinite",
						"withdrawETH(address,uint256)": "infinite",
						"withdrawFee()": "infinite",
						"withdrawFromStrategy(address,uint256)": "infinite",
						"withdrawInTokenFromStrategy(address,address,uint256)": "infinite",
						"withdrawalFee()": "2417"
					},
					"internal": {
						"_assessFee(uint256,uint256)": "290",
						"_deactivateStrategy(address)": "31546",
						"_depositToStrategy(address,uint256)": "infinite",
						"_isValidAllocation()": "infinite",
						"_withdrawFromStrategy(address,address,uint256)": "infinite",
						"_withdrawInTokenFromStrategy(address,address,uint256)": "infinite",
						"withdrawFromActiveStrategies(address,uint256)": "infinite"
					}
				},
				"methodIdentifiers": {
					"MAX_STRATEGIES()": "767f06ae",
					"addManager(address)": "2d06177a",
					"allocate()": "abaa9916",
					"asset()": "38d52e0f",
					"availableToWithdraw()": "e322ad2b",
					"balanceOfTokenFromStrategy(address)": "52412d49",
					"changeFeeReceiver(address)": "7c08b964",
					"changeProvider(address)": "796f69aa",
					"changeStrategyAllocation(address,uint256)": "72ff8a34",
					"depositAllToStrategy(address)": "4bee2ba2",
					"depositETH()": "f6326fb3",
					"depositFee()": "67a52793",
					"depositToStrategy(address,uint256)": "af76d4bd",
					"estimateInTokenFromStrategy(address,uint256)": "d941e8ac",
					"feeEarned()": "d5f63a06",
					"feeReceiver()": "b3f00674",
					"initialize(uint256,uint256,uint8,address)": "f8ba8493",
					"manager(address)": "d4d2e7f2",
					"maxDepositFee()": "a8d1dbfb",
					"maxWithdrawalFee()": "ec1c0a99",
					"migrateStrategy(address,address,uint256)": "ddb56b26",
					"owner()": "8da5cb5b",
					"pause()": "8456cb59",
					"paused()": "5c975abb",
					"provider()": "085d4883",
					"removeManager(address)": "ac18de43",
					"renounceOwnership()": "715018a6",
					"retireStrat(address)": "72890dbd",
					"setDepositFee(uint256)": "490ae210",
					"setStrategy(address,uint256)": "45d34def",
					"setWithdrawalFee(uint256)": "ac1e5025",
					"strategies(uint256)": "d574ea3d",
					"strategyParams(address)": "c4c2d9b9",
					"totalAssetInVault()": "d463bc65",
					"totalAssets()": "01e1d114",
					"totalDebt()": "fc7b9c18",
					"transferOwnership(address)": "f2fde38b",
					"unPause()": "f7b188a5",
					"vaultToken()": "703bafd5",
					"waitingPool()": "c99f062f",
					"withdrawAllFromStrategy(address)": "597c8910",
					"withdrawETH(address,uint256)": "4782f779",
					"withdrawFee()": "e941fa78",
					"withdrawFromStrategy(address,uint256)": "b53d0958",
					"withdrawInTokenFromStrategy(address,address,uint256)": "3e762860",
					"withdrawalFee()": "8bc7e8c4"
				}
			},
			"storageLayout": {
				"storage": [
					{
						"astId": 138,
						"contract": "Heliocontracts/contracts/masterVault/MasterVault.sol:MasterVault",
						"label": "_initialized",
						"offset": 0,
						"slot": "0",
						"type": "t_uint8"
					},
					{
						"astId": 141,
						"contract": "Heliocontracts/contracts/masterVault/MasterVault.sol:MasterVault",
						"label": "_initializing",
						"offset": 1,
						"slot": "0",
						"type": "t_bool"
					},
					{
						"astId": 752,
						"contract": "Heliocontracts/contracts/masterVault/MasterVault.sol:MasterVault",
						"label": "__gap",
						"offset": 0,
						"slot": "1",
						"type": "t_array(t_uint256)50_storage"
					},
					{
						"astId": 10,
						"contract": "Heliocontracts/contracts/masterVault/MasterVault.sol:MasterVault",
						"label": "_owner",
						"offset": 0,
						"slot": "51",
						"type": "t_address"
					},
					{
						"astId": 130,
						"contract": "Heliocontracts/contracts/masterVault/MasterVault.sol:MasterVault",
						"label": "__gap",
						"offset": 0,
						"slot": "52",
						"type": "t_array(t_uint256)49_storage"
					},
					{
						"astId": 303,
						"contract": "Heliocontracts/contracts/masterVault/MasterVault.sol:MasterVault",
						"label": "_paused",
						"offset": 0,
						"slot": "101",
						"type": "t_bool"
					},
					{
						"astId": 408,
						"contract": "Heliocontracts/contracts/masterVault/MasterVault.sol:MasterVault",
						"label": "__gap",
						"offset": 0,
						"slot": "102",
						"type": "t_array(t_uint256)49_storage"
					},
					{
						"astId": 423,
						"contract": "Heliocontracts/contracts/masterVault/MasterVault.sol:MasterVault",
						"label": "_status",
						"offset": 0,
						"slot": "151",
						"type": "t_uint256"
					},
					{
						"astId": 467,
						"contract": "Heliocontracts/contracts/masterVault/MasterVault.sol:MasterVault",
						"label": "__gap",
						"offset": 0,
						"slot": "152",
						"type": "t_array(t_uint256)49_storage"
					},
					{
						"astId": 936,
						"contract": "Heliocontracts/contracts/masterVault/MasterVault.sol:MasterVault",
						"label": "strategyParams",
						"offset": 0,
						"slot": "201",
						"type": "t_mapping(t_address,t_struct(StrategyParams)931_storage)"
					},
					{
						"astId": 940,
						"contract": "Heliocontracts/contracts/masterVault/MasterVault.sol:MasterVault",
						"label": "manager",
						"offset": 0,
						"slot": "202",
						"type": "t_mapping(t_address,t_bool)"
					},
					{
						"astId": 942,
						"contract": "Heliocontracts/contracts/masterVault/MasterVault.sol:MasterVault",
						"label": "depositFee",
						"offset": 0,
						"slot": "203",
						"type": "t_uint256"
					},
					{
						"astId": 944,
						"contract": "Heliocontracts/contracts/masterVault/MasterVault.sol:MasterVault",
						"label": "maxDepositFee",
						"offset": 0,
						"slot": "204",
						"type": "t_uint256"
					},
					{
						"astId": 946,
						"contract": "Heliocontracts/contracts/masterVault/MasterVault.sol:MasterVault",
						"label": "withdrawalFee",
						"offset": 0,
						"slot": "205",
						"type": "t_uint256"
					},
					{
						"astId": 948,
						"contract": "Heliocontracts/contracts/masterVault/MasterVault.sol:MasterVault",
						"label": "maxWithdrawalFee",
						"offset": 0,
						"slot": "206",
						"type": "t_uint256"
					},
					{
						"astId": 950,
						"contract": "Heliocontracts/contracts/masterVault/MasterVault.sol:MasterVault",
						"label": "feeEarned",
						"offset": 0,
						"slot": "207",
						"type": "t_uint256"
					},
					{
						"astId": 952,
						"contract": "Heliocontracts/contracts/masterVault/MasterVault.sol:MasterVault",
						"label": "MAX_STRATEGIES",
						"offset": 0,
						"slot": "208",
						"type": "t_uint256"
					},
					{
						"astId": 954,
						"contract": "Heliocontracts/contracts/masterVault/MasterVault.sol:MasterVault",
						"label": "totalDebt",
						"offset": 0,
						"slot": "209",
						"type": "t_uint256"
					},
					{
						"astId": 957,
						"contract": "Heliocontracts/contracts/masterVault/MasterVault.sol:MasterVault",
						"label": "strategies",
						"offset": 0,
						"slot": "210",
						"type": "t_array(t_address)dyn_storage"
					},
					{
						"astId": 959,
						"contract": "Heliocontracts/contracts/masterVault/MasterVault.sol:MasterVault",
						"label": "provider",
						"offset": 0,
						"slot": "211",
						"type": "t_address"
					},
					{
						"astId": 961,
						"contract": "Heliocontracts/contracts/masterVault/MasterVault.sol:MasterVault",
						"label": "vaultToken",
						"offset": 0,
						"slot": "212",
						"type": "t_address"
					},
					{
						"astId": 963,
						"contract": "Heliocontracts/contracts/masterVault/MasterVault.sol:MasterVault",
						"label": "asset",
						"offset": 0,
						"slot": "213",
						"type": "t_address"
					},
					{
						"astId": 965,
						"contract": "Heliocontracts/contracts/masterVault/MasterVault.sol:MasterVault",
						"label": "feeReceiver",
						"offset": 0,
						"slot": "214",
						"type": "t_address_payable"
					},
					{
						"astId": 968,
						"contract": "Heliocontracts/contracts/masterVault/MasterVault.sol:MasterVault",
						"label": "waitingPool",
						"offset": 0,
						"slot": "215",
						"type": "t_contract(IWaitingPool)2732"
					}
				],
				"types": {
					"t_address": {
						"encoding": "inplace",
						"label": "address",
						"numberOfBytes": "20"
					},
					"t_address_payable": {
						"encoding": "inplace",
						"label": "address payable",
						"numberOfBytes": "20"
					},
					"t_array(t_address)dyn_storage": {
						"base": "t_address",
						"encoding": "dynamic_array",
						"label": "address[]",
						"numberOfBytes": "32"
					},
					"t_array(t_uint256)49_storage": {
						"base": "t_uint256",
						"encoding": "inplace",
						"label": "uint256[49]",
						"numberOfBytes": "1568"
					},
					"t_array(t_uint256)50_storage": {
						"base": "t_uint256",
						"encoding": "inplace",
						"label": "uint256[50]",
						"numberOfBytes": "1600"
					},
					"t_bool": {
						"encoding": "inplace",
						"label": "bool",
						"numberOfBytes": "1"
					},
					"t_contract(IWaitingPool)2732": {
						"encoding": "inplace",
						"label": "contract IWaitingPool",
						"numberOfBytes": "20"
					},
					"t_mapping(t_address,t_bool)": {
						"encoding": "mapping",
						"key": "t_address",
						"label": "mapping(address => bool)",
						"numberOfBytes": "32",
						"value": "t_bool"
					},
					"t_mapping(t_address,t_struct(StrategyParams)931_storage)": {
						"encoding": "mapping",
						"key": "t_address",
						"label": "mapping(address => struct MasterVault.StrategyParams)",
						"numberOfBytes": "32",
						"value": "t_struct(StrategyParams)931_storage"
					},
					"t_struct(StrategyParams)931_storage": {
						"encoding": "inplace",
						"label": "struct MasterVault.StrategyParams",
						"members": [
							{
								"astId": 926,
								"contract": "Heliocontracts/contracts/masterVault/MasterVault.sol:MasterVault",
								"label": "active",
								"offset": 0,
								"slot": "0",
								"type": "t_bool"
							},
							{
								"astId": 928,
								"contract": "Heliocontracts/contracts/masterVault/MasterVault.sol:MasterVault",
								"label": "allocation",
								"offset": 0,
								"slot": "1",
								"type": "t_uint256"
							},
							{
								"astId": 930,
								"contract": "Heliocontracts/contracts/masterVault/MasterVault.sol:MasterVault",
								"label": "debt",
								"offset": 0,
								"slot": "2",
								"type": "t_uint256"
							}
						],
						"numberOfBytes": "96"
					},
					"t_uint256": {
						"encoding": "inplace",
						"label": "uint256",
						"numberOfBytes": "32"
					},
					"t_uint8": {
						"encoding": "inplace",
						"label": "uint8",
						"numberOfBytes": "1"
					}
				}
			},
			"userdoc": {
				"kind": "user",
				"methods": {
					"pause()": {
						"notice": "PAUSABLE FUNCTIONALITY"
					}
				},
				"version": 1
			}
		}
	}
}