{
	"Heliocontracts/contracts/masterVault/WaitingPool.sol": {
		"WaitingPool": {
			"abi": [
				{
					"anonymous": false,
					"inputs": [
						{
							"indexed": false,
							"internalType": "uint8",
							"name": "version",
							"type": "uint8"
						}
					],
					"name": "Initialized",
					"type": "event"
				},
				{
					"anonymous": false,
					"inputs": [
						{
							"indexed": false,
							"internalType": "address",
							"name": "user",
							"type": "address"
						},
						{
							"indexed": false,
							"internalType": "uint256",
							"name": "amount",
							"type": "uint256"
						}
					],
					"name": "WithdrawCompleted",
					"type": "event"
				},
				{
					"anonymous": false,
					"inputs": [
						{
							"indexed": false,
							"internalType": "address",
							"name": "user",
							"type": "address"
						},
						{
							"indexed": false,
							"internalType": "uint256",
							"name": "amount",
							"type": "uint256"
						}
					],
					"name": "WithdrawPending",
					"type": "event"
				},
				{
					"inputs": [
						{
							"internalType": "address",
							"name": "_person",
							"type": "address"
						},
						{
							"internalType": "uint256",
							"name": "_debt",
							"type": "uint256"
						}
					],
					"name": "addToQueue",
					"outputs": [],
					"stateMutability": "nonpayable",
					"type": "function"
				},
				{
					"inputs": [],
					"name": "capLimit",
					"outputs": [
						{
							"internalType": "uint256",
							"name": "",
							"type": "uint256"
						}
					],
					"stateMutability": "view",
					"type": "function"
				},
				{
					"inputs": [],
					"name": "getPoolBalance",
					"outputs": [
						{
							"internalType": "uint256",
							"name": "",
							"type": "uint256"
						}
					],
					"stateMutability": "view",
					"type": "function"
				},
				{
					"inputs": [],
					"name": "index",
					"outputs": [
						{
							"internalType": "uint256",
							"name": "",
							"type": "uint256"
						}
					],
					"stateMutability": "view",
					"type": "function"
				},
				{
					"inputs": [
						{
							"internalType": "address",
							"name": "_masterVault",
							"type": "address"
						},
						{
							"internalType": "uint256",
							"name": "_capLimit",
							"type": "uint256"
						}
					],
					"name": "initialize",
					"outputs": [],
					"stateMutability": "nonpayable",
					"type": "function"
				},
				{
					"inputs": [],
					"name": "masterVault",
					"outputs": [
						{
							"internalType": "contract IMasterVault",
							"name": "",
							"type": "address"
						}
					],
					"stateMutability": "view",
					"type": "function"
				},
				{
					"inputs": [
						{
							"internalType": "uint256",
							"name": "",
							"type": "uint256"
						}
					],
					"name": "people",
					"outputs": [
						{
							"internalType": "address",
							"name": "_address",
							"type": "address"
						},
						{
							"internalType": "uint256",
							"name": "_debt",
							"type": "uint256"
						},
						{
							"internalType": "bool",
							"name": "_settled",
							"type": "bool"
						}
					],
					"stateMutability": "view",
					"type": "function"
				},
				{
					"inputs": [
						{
							"internalType": "uint256",
							"name": "_capLimit",
							"type": "uint256"
						}
					],
					"name": "setCapLimit",
					"outputs": [],
					"stateMutability": "nonpayable",
					"type": "function"
				},
				{
					"inputs": [],
					"name": "totalDebt",
					"outputs": [
						{
							"internalType": "uint256",
							"name": "",
							"type": "uint256"
						}
					],
					"stateMutability": "view",
					"type": "function"
				},
				{
					"inputs": [],
					"name": "tryRemove",
					"outputs": [],
					"stateMutability": "nonpayable",
					"type": "function"
				},
				{
					"inputs": [
						{
							"internalType": "uint256",
							"name": "_index",
							"type": "uint256"
						}
					],
					"name": "withdrawUnsettled",
					"outputs": [],
					"stateMutability": "nonpayable",
					"type": "function"
				},
				{
					"stateMutability": "payable",
					"type": "receive"
				}
			],
			"devdoc": {
				"kind": "dev",
				"methods": {
					"addToQueue(address,uint256)": {
						"details": "Only masterVault can call to submit a new withdrawal request",
						"params": {
							"_debt": "amount that needs to be paid to _person NOTE: withdrawal and swap fees are already deducted in masterVault",
							"_person": "address of the withdrawer"
						}
					},
					"getPoolBalance()": {
						"details": "returns the balance of this contract"
					},
					"initialize(address,uint256)": {
						"details": "initialize function - Constructor for Upgradable contract, can be only called once during deployment",
						"params": {
							"_capLimit": "symbol of the vault token",
							"_masterVault": "name of the vault token"
						}
					},
					"setCapLimit(uint256)": {
						"details": "only MasterVault can set new cap limit",
						"params": {
							"_capLimit": "new cap limit"
						}
					},
					"tryRemove()": {
						"details": "Only masterVault can trigger this function to pay outstanding debt of users       and set the settled flag on successful withdrawal."
					},
					"withdrawUnsettled(uint256)": {
						"details": "users can withdraw their funds if they were not transferred in tryRemove()"
					}
				},
				"version": 1
			},
			"evm": {
				"assembly": "    /* \"Heliocontracts/contracts/masterVault/WaitingPool.sol\":172:3893  contract WaitingPool is Initializable {... */\n  mstore(0x40, 0x80)\n  callvalue\n  dup1\n  iszero\n  tag_1\n  jumpi\n  0x00\n  dup1\n  revert\ntag_1:\n  pop\n  dataSize(sub_0)\n  dup1\n  dataOffset(sub_0)\n  0x00\n  codecopy\n  0x00\n  return\nstop\n\nsub_0: assembly {\n        /* \"Heliocontracts/contracts/masterVault/WaitingPool.sol\":172:3893  contract WaitingPool is Initializable {... */\n      mstore(0x40, 0x80)\n      jumpi(tag_1, lt(calldatasize, 0x04))\n      shr(0xe0, calldataload(0x00))\n      dup1\n      0x97d22766\n      gt\n      tag_14\n      jumpi\n      dup1\n      0x97d22766\n      eq\n      tag_8\n      jumpi\n      dup1\n      0x9e7a13ad\n      eq\n      tag_9\n      jumpi\n      dup1\n      0xabd70aa2\n      eq\n      tag_10\n      jumpi\n      dup1\n      0xc714003d\n      eq\n      tag_11\n      jumpi\n      dup1\n      0xcd6dc687\n      eq\n      tag_12\n      jumpi\n      dup1\n      0xfc7b9c18\n      eq\n      tag_13\n      jumpi\n      0x00\n      dup1\n      revert\n    tag_14:\n      dup1\n      0x2986c0e5\n      eq\n      tag_3\n      jumpi\n      dup1\n      0x3521fb87\n      eq\n      tag_4\n      jumpi\n      dup1\n      0x3b7e3775\n      eq\n      tag_5\n      jumpi\n      dup1\n      0x55f2316c\n      eq\n      tag_6\n      jumpi\n      dup1\n      0x7b0878f8\n      eq\n      tag_7\n      jumpi\n      0x00\n      dup1\n      revert\n    tag_1:\n      jumpi(tag_2, calldatasize)\n      stop\n    tag_2:\n      0x00\n      dup1\n      revert\n        /* \"Heliocontracts/contracts/masterVault/WaitingPool.sol\":379:399  uint256 public index */\n    tag_3:\n      callvalue\n      dup1\n      iszero\n      tag_17\n      jumpi\n      0x00\n      dup1\n      revert\n    tag_17:\n      pop\n      tag_18\n      sload(0x02)\n      dup2\n      jump\n    tag_18:\n      mload(0x40)\n        /* \"#utility.yul\":160:185   */\n      swap1\n      dup2\n      mstore\n        /* \"#utility.yul\":148:150   */\n      0x20\n        /* \"#utility.yul\":133:151   */\n      add\n        /* \"Heliocontracts/contracts/masterVault/WaitingPool.sol\":379:399  uint256 public index */\n    tag_20:\n      mload(0x40)\n      dup1\n      swap2\n      sub\n      swap1\n      return\n        /* \"Heliocontracts/contracts/masterVault/WaitingPool.sol\":435:458  uint256 public capLimit */\n    tag_4:\n      callvalue\n      dup1\n      iszero\n      tag_22\n      jumpi\n      0x00\n      dup1\n      revert\n    tag_22:\n      pop\n      tag_18\n      sload(0x04)\n      dup2\n      jump\n        /* \"Heliocontracts/contracts/masterVault/WaitingPool.sol\":216:247  IMasterVault public masterVault */\n    tag_5:\n      callvalue\n      dup1\n      iszero\n      tag_26\n      jumpi\n      0x00\n      dup1\n      revert\n    tag_26:\n      pop\n      sload(0x00)\n      tag_27\n      swap1\n      0x010000\n      swap1\n      div\n      sub(shl(0xa0, 0x01), 0x01)\n      and\n      dup2\n      jump\n    tag_27:\n      mload(0x40)\n      sub(shl(0xa0, 0x01), 0x01)\n        /* \"#utility.yul\":380:412   */\n      swap1\n      swap2\n      and\n        /* \"#utility.yul\":362:413   */\n      dup2\n      mstore\n        /* \"#utility.yul\":350:352   */\n      0x20\n        /* \"#utility.yul\":335:353   */\n      add\n        /* \"Heliocontracts/contracts/masterVault/WaitingPool.sol\":216:247  IMasterVault public masterVault */\n      tag_20\n        /* \"#utility.yul\":196:419   */\n      jump\n        /* \"Heliocontracts/contracts/masterVault/WaitingPool.sol\":3715:3891  function setCapLimit(uint256 _capLimit) external onlyMasterVault {... */\n    tag_6:\n      callvalue\n      dup1\n      iszero\n      tag_31\n      jumpi\n      0x00\n      dup1\n      revert\n    tag_31:\n      pop\n      tag_32\n      tag_33\n      calldatasize\n      0x04\n      tag_34\n      jump\t// in\n    tag_33:\n      tag_35\n      jump\t// in\n    tag_32:\n      stop\n        /* \"Heliocontracts/contracts/masterVault/WaitingPool.sol\":1390:1772  function addToQueue(address _person, uint256 _debt) external onlyMasterVault {... */\n    tag_7:\n      callvalue\n      dup1\n      iszero\n      tag_36\n      jumpi\n      0x00\n      dup1\n      revert\n    tag_36:\n      pop\n      tag_32\n      tag_38\n      calldatasize\n      0x04\n      tag_39\n      jump\t// in\n    tag_38:\n      tag_40\n      jump\t// in\n        /* \"Heliocontracts/contracts/masterVault/WaitingPool.sol\":1932:2825  function tryRemove() external onlyMasterVault {... */\n    tag_8:\n      callvalue\n      dup1\n      iszero\n      tag_41\n      jumpi\n      0x00\n      dup1\n      revert\n    tag_41:\n      pop\n      tag_32\n      tag_43\n      jump\t// in\n        /* \"Heliocontracts/contracts/masterVault/WaitingPool.sol\":351:373  Person[] public people */\n    tag_9:\n      callvalue\n      dup1\n      iszero\n      tag_44\n      jumpi\n      0x00\n      dup1\n      revert\n    tag_44:\n      pop\n      tag_45\n      tag_46\n      calldatasize\n      0x04\n      tag_34\n      jump\t// in\n    tag_46:\n      tag_47\n      jump\t// in\n    tag_45:\n      0x40\n      dup1\n      mload\n      sub(shl(0xa0, 0x01), 0x01)\n        /* \"#utility.yul\":1182:1214   */\n      swap1\n      swap5\n      and\n        /* \"#utility.yul\":1164:1215   */\n      dup5\n      mstore\n        /* \"#utility.yul\":1246:1248   */\n      0x20\n        /* \"#utility.yul\":1231:1249   */\n      dup5\n      add\n        /* \"#utility.yul\":1224:1258   */\n      swap3\n      swap1\n      swap3\n      mstore\n        /* \"#utility.yul\":1301:1315   */\n      iszero\n        /* \"#utility.yul\":1294:1316   */\n      iszero\n        /* \"#utility.yul\":1274:1292   */\n      swap1\n      dup3\n      add\n        /* \"#utility.yul\":1267:1317   */\n      mstore\n        /* \"#utility.yul\":1152:1154   */\n      0x60\n        /* \"#utility.yul\":1137:1155   */\n      add\n        /* \"Heliocontracts/contracts/masterVault/WaitingPool.sol\":351:373  Person[] public people */\n      tag_20\n        /* \"#utility.yul\":968:1323   */\n      jump\n        /* \"Heliocontracts/contracts/masterVault/WaitingPool.sol\":2925:3025  function getPoolBalance() public view returns(uint256) {... */\n    tag_10:\n      callvalue\n      dup1\n      iszero\n      tag_50\n      jumpi\n      0x00\n      dup1\n      revert\n    tag_50:\n      pop\n        /* \"Heliocontracts/contracts/masterVault/WaitingPool.sol\":2997:3018  address(this).balance */\n      selfbalance\n        /* \"Heliocontracts/contracts/masterVault/WaitingPool.sol\":2925:3025  function getPoolBalance() public view returns(uint256) {... */\n      jump(tag_18)\n        /* \"Heliocontracts/contracts/masterVault/WaitingPool.sol\":3119:3618  function withdrawUnsettled(uint256 _index) external {... */\n    tag_11:\n      callvalue\n      dup1\n      iszero\n      tag_54\n      jumpi\n      0x00\n      dup1\n      revert\n    tag_54:\n      pop\n      tag_32\n      tag_56\n      calldatasize\n      0x04\n      tag_34\n      jump\t// in\n    tag_56:\n      tag_57\n      jump\t// in\n        /* \"Heliocontracts/contracts/masterVault/WaitingPool.sol\":903:1125  function initialize(address _masterVault, uint256 _capLimit) external initializer {... */\n    tag_12:\n      callvalue\n      dup1\n      iszero\n      tag_58\n      jumpi\n      0x00\n      dup1\n      revert\n    tag_58:\n      pop\n      tag_32\n      tag_60\n      calldatasize\n      0x04\n      tag_39\n      jump\t// in\n    tag_60:\n      tag_61\n      jump\t// in\n        /* \"Heliocontracts/contracts/masterVault/WaitingPool.sol\":405:429  uint256 public totalDebt */\n    tag_13:\n      callvalue\n      dup1\n      iszero\n      tag_62\n      jumpi\n      0x00\n      dup1\n      revert\n    tag_62:\n      pop\n      tag_18\n      sload(0x03)\n      dup2\n      jump\n        /* \"Heliocontracts/contracts/masterVault/WaitingPool.sol\":3715:3891  function setCapLimit(uint256 _capLimit) external onlyMasterVault {... */\n    tag_35:\n        /* \"Heliocontracts/contracts/masterVault/WaitingPool.sol\":649:660  masterVault */\n      sload(0x00)\n      0x010000\n      swap1\n      div\n      sub(shl(0xa0, 0x01), 0x01)\n      and\n        /* \"Heliocontracts/contracts/masterVault/WaitingPool.sol\":627:637  msg.sender */\n      caller\n        /* \"Heliocontracts/contracts/masterVault/WaitingPool.sol\":627:661  msg.sender == address(masterVault) */\n      eq\n        /* \"Heliocontracts/contracts/masterVault/WaitingPool.sol\":619:662  require(msg.sender == address(masterVault)) */\n      tag_67\n      jumpi\n      0x00\n      dup1\n      revert\n    tag_67:\n        /* \"Heliocontracts/contracts/masterVault/WaitingPool.sol\":3811:3825  _capLimit != 0 */\n      dup1\n        /* \"Heliocontracts/contracts/masterVault/WaitingPool.sol\":3790:3854  require(... */\n      tag_69\n      jumpi\n      mload(0x40)\n      shl(0xe5, 0x461bcd)\n      dup2\n      mstore\n        /* \"#utility.yul\":1530:1532   */\n      0x20\n        /* \"Heliocontracts/contracts/masterVault/WaitingPool.sol\":3790:3854  require(... */\n      0x04\n      dup3\n      add\n        /* \"#utility.yul\":1512:1533   */\n      mstore\n        /* \"#utility.yul\":1569:1571   */\n      0x0b\n        /* \"#utility.yul\":1549:1567   */\n      0x24\n      dup3\n      add\n        /* \"#utility.yul\":1542:1572   */\n      mstore\n      shl(0xac, 0x0696e76616c69642063617)\n        /* \"#utility.yul\":1588:1606   */\n      0x44\n      dup3\n      add\n        /* \"#utility.yul\":1581:1622   */\n      mstore\n        /* \"#utility.yul\":1639:1657   */\n      0x64\n      add\n        /* \"Heliocontracts/contracts/masterVault/WaitingPool.sol\":3790:3854  require(... */\n    tag_70:\n      mload(0x40)\n      dup1\n      swap2\n      sub\n      swap1\n      revert\n    tag_69:\n        /* \"Heliocontracts/contracts/masterVault/WaitingPool.sol\":3864:3872  capLimit */\n      0x04\n        /* \"Heliocontracts/contracts/masterVault/WaitingPool.sol\":3864:3884  capLimit = _capLimit */\n      sstore\n        /* \"Heliocontracts/contracts/masterVault/WaitingPool.sol\":3715:3891  function setCapLimit(uint256 _capLimit) external onlyMasterVault {... */\n      jump\t// out\n        /* \"Heliocontracts/contracts/masterVault/WaitingPool.sol\":1390:1772  function addToQueue(address _person, uint256 _debt) external onlyMasterVault {... */\n    tag_40:\n        /* \"Heliocontracts/contracts/masterVault/WaitingPool.sol\":649:660  masterVault */\n      sload(0x00)\n      0x010000\n      swap1\n      div\n      sub(shl(0xa0, 0x01), 0x01)\n      and\n        /* \"Heliocontracts/contracts/masterVault/WaitingPool.sol\":627:637  msg.sender */\n      caller\n        /* \"Heliocontracts/contracts/masterVault/WaitingPool.sol\":627:661  msg.sender == address(masterVault) */\n      eq\n        /* \"Heliocontracts/contracts/masterVault/WaitingPool.sol\":619:662  require(msg.sender == address(masterVault)) */\n      tag_73\n      jumpi\n      0x00\n      dup1\n      revert\n    tag_73:\n        /* \"Heliocontracts/contracts/masterVault/WaitingPool.sol\":1480:1490  _debt != 0 */\n      dup1\n      iszero\n        /* \"Heliocontracts/contracts/masterVault/WaitingPool.sol\":1477:1766  if(_debt != 0) {... */\n      tag_75\n      jumpi\n        /* \"Heliocontracts/contracts/masterVault/WaitingPool.sol\":1524:1645  Person({... */\n      0x40\n      dup1\n      mload\n      0x60\n      dup2\n      add\n      dup3\n      mstore\n      sub(shl(0xa0, 0x01), 0x01)\n      dup5\n      and\n      dup2\n      mstore\n      0x20\n      dup2\n      add\n      dup4\n      swap1\n      mstore\n        /* \"Heliocontracts/contracts/masterVault/WaitingPool.sol\":1506:1521  Person memory p */\n      0x00\n        /* \"Heliocontracts/contracts/masterVault/WaitingPool.sol\":1524:1645  Person({... */\n      swap2\n      dup2\n      add\n      dup3\n      swap1\n      mstore\n        /* \"Heliocontracts/contracts/masterVault/WaitingPool.sol\":1659:1668  totalDebt */\n      0x03\n        /* \"Heliocontracts/contracts/masterVault/WaitingPool.sol\":1659:1677  totalDebt += _debt */\n      dup1\n      sload\n        /* \"Heliocontracts/contracts/masterVault/WaitingPool.sol\":1524:1645  Person({... */\n      swap2\n      swap3\n        /* \"Heliocontracts/contracts/masterVault/WaitingPool.sol\":1592:1597  _debt */\n      dup5\n      swap3\n        /* \"Heliocontracts/contracts/masterVault/WaitingPool.sol\":1659:1677  totalDebt += _debt */\n      tag_76\n      swap1\n        /* \"Heliocontracts/contracts/masterVault/WaitingPool.sol\":1592:1597  _debt */\n      dup5\n      swap1\n        /* \"Heliocontracts/contracts/masterVault/WaitingPool.sol\":1659:1677  totalDebt += _debt */\n      tag_77\n      jump\t// in\n    tag_76:\n      swap1\n      swap2\n      sstore\n      pop\n      pop\n        /* \"Heliocontracts/contracts/masterVault/WaitingPool.sol\":1691:1697  people */\n      0x01\n        /* \"Heliocontracts/contracts/masterVault/WaitingPool.sol\":1691:1705  people.push(p) */\n      dup1\n      sload\n      dup1\n      dup3\n      add\n      dup3\n      sstore\n      0x00\n      swap2\n      swap1\n      swap2\n      mstore\n      dup2\n      mload\n      0xb10e2d527612073b26eecdfd717e6a320cf44b4afac2b0732d9fcbe2b7fa0cf6\n      0x03\n      swap1\n      swap3\n      mul\n      swap2\n      dup3\n      add\n      dup1\n      sload\n      not(sub(shl(0xa0, 0x01), 0x01))\n      and\n      sub(shl(0xa0, 0x01), 0x01)\n      swap3\n      dup4\n      and\n      or\n      swap1\n      sstore\n      0x20\n      dup1\n      dup5\n      add\n      mload\n      0xb10e2d527612073b26eecdfd717e6a320cf44b4afac2b0732d9fcbe2b7fa0cf7\n      dup5\n      add\n      sstore\n      0x40\n      dup1\n      dup6\n      add\n      mload\n      0xb10e2d527612073b26eecdfd717e6a320cf44b4afac2b0732d9fcbe2b7fa0cf8\n      swap1\n      swap5\n      add\n      dup1\n      sload\n      not(0xff)\n      and\n      swap5\n      iszero\n      iszero\n      swap5\n      swap1\n      swap5\n      or\n      swap1\n      swap4\n      sstore\n        /* \"Heliocontracts/contracts/masterVault/WaitingPool.sol\":1724:1755  WithdrawPending(_person, _debt) */\n      dup3\n      mload\n        /* \"#utility.yul\":2125:2157   */\n      swap2\n      dup7\n      and\n        /* \"#utility.yul\":2107:2158   */\n      dup3\n      mstore\n        /* \"#utility.yul\":2174:2192   */\n      dup2\n      add\n        /* \"#utility.yul\":2167:2201   */\n      dup5\n      swap1\n      mstore\n        /* \"Heliocontracts/contracts/masterVault/WaitingPool.sol\":1724:1755  WithdrawPending(_person, _debt) */\n      0x9a92c3472ba0d2d183e38c3801bae5d41d693c2803377eae8b0f94683862253e\n      swap2\n        /* \"#utility.yul\":2080:2098   */\n      add\n        /* \"Heliocontracts/contracts/masterVault/WaitingPool.sol\":1724:1755  WithdrawPending(_person, _debt) */\n    tag_79:\n      mload(0x40)\n      dup1\n      swap2\n      sub\n      swap1\n      log1\n        /* \"Heliocontracts/contracts/masterVault/WaitingPool.sol\":1492:1766  {... */\n      pop\n        /* \"Heliocontracts/contracts/masterVault/WaitingPool.sol\":1477:1766  if(_debt != 0) {... */\n    tag_75:\n        /* \"Heliocontracts/contracts/masterVault/WaitingPool.sol\":1390:1772  function addToQueue(address _person, uint256 _debt) external onlyMasterVault {... */\n      pop\n      pop\n      jump\t// out\n        /* \"Heliocontracts/contracts/masterVault/WaitingPool.sol\":1932:2825  function tryRemove() external onlyMasterVault {... */\n    tag_43:\n        /* \"Heliocontracts/contracts/masterVault/WaitingPool.sol\":649:660  masterVault */\n      sload(0x00)\n      0x010000\n      swap1\n      div\n      sub(shl(0xa0, 0x01), 0x01)\n      and\n        /* \"Heliocontracts/contracts/masterVault/WaitingPool.sol\":627:637  msg.sender */\n      caller\n        /* \"Heliocontracts/contracts/masterVault/WaitingPool.sol\":627:661  msg.sender == address(masterVault) */\n      eq\n        /* \"Heliocontracts/contracts/masterVault/WaitingPool.sol\":619:662  require(msg.sender == address(masterVault)) */\n      tag_82\n      jumpi\n      0x00\n      dup1\n      revert\n    tag_82:\n        /* \"Heliocontracts/contracts/masterVault/WaitingPool.sol\":2054:2059  index */\n      sload(0x02)\n        /* \"Heliocontracts/contracts/masterVault/WaitingPool.sol\":1988:2003  uint256 balance */\n      0x00\n      swap1\n      dup2\n      swap1\n        /* \"Heliocontracts/contracts/masterVault/WaitingPool.sol\":2038:2819  for(uint256 i = index; i < people.length; i++) {... */\n    tag_84:\n        /* \"Heliocontracts/contracts/masterVault/WaitingPool.sol\":2065:2071  people */\n      0x01\n        /* \"Heliocontracts/contracts/masterVault/WaitingPool.sol\":2065:2078  people.length */\n      sload\n        /* \"Heliocontracts/contracts/masterVault/WaitingPool.sol\":2061:2078  i < people.length */\n      dup2\n      lt\n        /* \"Heliocontracts/contracts/masterVault/WaitingPool.sol\":2038:2819  for(uint256 i = index; i < people.length; i++) {... */\n      iszero\n      tag_85\n      jumpi\n        /* \"Heliocontracts/contracts/masterVault/WaitingPool.sol\":2109:2130  address(this).balance */\n      selfbalance\n        /* \"Heliocontracts/contracts/masterVault/WaitingPool.sol\":2099:2130  balance = address(this).balance */\n      swap3\n      pop\n        /* \"Heliocontracts/contracts/masterVault/WaitingPool.sol\":2144:2160  uint256 userDebt */\n      0x00\n        /* \"Heliocontracts/contracts/masterVault/WaitingPool.sol\":2163:2169  people */\n      0x01\n        /* \"Heliocontracts/contracts/masterVault/WaitingPool.sol\":2170:2175  index */\n      sload(0x02)\n        /* \"Heliocontracts/contracts/masterVault/WaitingPool.sol\":2163:2176  people[index] */\n      dup2\n      sload\n      dup2\n      lt\n      tag_88\n      jumpi\n      tag_88\n      tag_89\n      jump\t// in\n    tag_88:\n      swap1\n      0x00\n      mstore\n      keccak256(0x00, 0x20)\n      swap1\n      0x03\n      mul\n      add\n        /* \"Heliocontracts/contracts/masterVault/WaitingPool.sol\":2163:2182  people[index]._debt */\n      0x01\n      add\n      sload\n        /* \"Heliocontracts/contracts/masterVault/WaitingPool.sol\":2144:2182  uint256 userDebt = people[index]._debt */\n      swap1\n      pop\n        /* \"Heliocontracts/contracts/masterVault/WaitingPool.sol\":2196:2212  address userAddr */\n      0x00\n        /* \"Heliocontracts/contracts/masterVault/WaitingPool.sol\":2215:2221  people */\n      0x01\n        /* \"Heliocontracts/contracts/masterVault/WaitingPool.sol\":2222:2227  index */\n      sload(0x02)\n        /* \"Heliocontracts/contracts/masterVault/WaitingPool.sol\":2215:2228  people[index] */\n      dup2\n      sload\n      dup2\n      lt\n      tag_92\n      jumpi\n      tag_92\n      tag_89\n      jump\t// in\n    tag_92:\n      0x00\n      swap2\n      dup3\n      mstore\n      0x20\n      swap1\n      swap2\n      keccak256\n      0x03\n      swap1\n      swap2\n      mul\n      add\n        /* \"Heliocontracts/contracts/masterVault/WaitingPool.sol\":2215:2237  people[index]._address */\n      sload\n      sub(shl(0xa0, 0x01), 0x01)\n      and\n      swap1\n      pop\n        /* \"Heliocontracts/contracts/masterVault/WaitingPool.sol\":2271:2290  balance >= userDebt */\n      dup2\n      dup6\n      lt\n      dup1\n      iszero\n      swap1\n        /* \"Heliocontracts/contracts/masterVault/WaitingPool.sol\":2271:2324  balance >= userDebt && ... */\n      tag_94\n      jumpi\n      pop\n        /* \"Heliocontracts/contracts/masterVault/WaitingPool.sol\":2311:2324  userDebt != 0 */\n      dup2\n      iszero\n      iszero\n        /* \"Heliocontracts/contracts/masterVault/WaitingPool.sol\":2271:2324  balance >= userDebt && ... */\n    tag_94:\n        /* \"Heliocontracts/contracts/masterVault/WaitingPool.sol\":2271:2367  balance >= userDebt && ... */\n      dup1\n      iszero\n      tag_95\n      jumpi\n      pop\n        /* \"Heliocontracts/contracts/masterVault/WaitingPool.sol\":2345:2351  people */\n      0x01\n        /* \"Heliocontracts/contracts/masterVault/WaitingPool.sol\":2352:2357  index */\n      sload(0x02)\n        /* \"Heliocontracts/contracts/masterVault/WaitingPool.sol\":2345:2358  people[index] */\n      dup2\n      sload\n      dup2\n      lt\n      tag_97\n      jumpi\n      tag_97\n      tag_89\n      jump\t// in\n    tag_97:\n      0x00\n      swap2\n      dup3\n      mstore\n      0x20\n      swap1\n      swap2\n      keccak256\n        /* \"Heliocontracts/contracts/masterVault/WaitingPool.sol\":2345:2367  people[index]._settled */\n      0x02\n        /* \"Heliocontracts/contracts/masterVault/WaitingPool.sol\":2345:2358  people[index] */\n      0x03\n      swap1\n      swap3\n      mul\n      add\n        /* \"Heliocontracts/contracts/masterVault/WaitingPool.sol\":2345:2367  people[index]._settled */\n      add\n      sload\n      0xff\n      and\n        /* \"Heliocontracts/contracts/masterVault/WaitingPool.sol\":2344:2367  !people[index]._settled */\n      iszero\n        /* \"Heliocontracts/contracts/masterVault/WaitingPool.sol\":2271:2367  balance >= userDebt && ... */\n    tag_95:\n        /* \"Heliocontracts/contracts/masterVault/WaitingPool.sol\":2271:2402  balance >= userDebt && ... */\n      dup1\n      iszero\n      tag_99\n      jumpi\n      pop\n        /* \"Heliocontracts/contracts/masterVault/WaitingPool.sol\":2394:2402  capLimit */\n      sload(0x04)\n        /* \"Heliocontracts/contracts/masterVault/WaitingPool.sol\":2388:2391  cap */\n      dup5\n        /* \"Heliocontracts/contracts/masterVault/WaitingPool.sol\":2388:2402  cap < capLimit */\n      lt\n        /* \"Heliocontracts/contracts/masterVault/WaitingPool.sol\":2271:2402  balance >= userDebt && ... */\n    tag_99:\n        /* \"Heliocontracts/contracts/masterVault/WaitingPool.sol\":2251:2809  if(... */\n      iszero\n      tag_100\n      jumpi\n        /* \"Heliocontracts/contracts/masterVault/WaitingPool.sol\":2450:2482  payable(userAddr).send(userDebt) */\n      mload(0x40)\n        /* \"Heliocontracts/contracts/masterVault/WaitingPool.sol\":2435:2447  bool success */\n      0x00\n      swap1\n      sub(shl(0xa0, 0x01), 0x01)\n        /* \"Heliocontracts/contracts/masterVault/WaitingPool.sol\":2450:2472  payable(userAddr).send */\n      dup4\n      and\n      swap1\n        /* \"Heliocontracts/contracts/masterVault/WaitingPool.sol\":2450:2482  payable(userAddr).send(userDebt) */\n      dup5\n      iszero\n      0x08fc\n      mul\n      swap1\n        /* \"Heliocontracts/contracts/masterVault/WaitingPool.sol\":2473:2481  userDebt */\n      dup6\n      swap1\n        /* \"Heliocontracts/contracts/masterVault/WaitingPool.sol\":2435:2447  bool success */\n      dup5\n        /* \"Heliocontracts/contracts/masterVault/WaitingPool.sol\":2450:2482  payable(userAddr).send(userDebt) */\n      dup2\n        /* \"Heliocontracts/contracts/masterVault/WaitingPool.sol\":2435:2447  bool success */\n      dup2\n        /* \"Heliocontracts/contracts/masterVault/WaitingPool.sol\":2450:2482  payable(userAddr).send(userDebt) */\n      dup2\n        /* \"Heliocontracts/contracts/masterVault/WaitingPool.sol\":2473:2481  userDebt */\n      dup6\n        /* \"Heliocontracts/contracts/masterVault/WaitingPool.sol\":2450:2472  payable(userAddr).send */\n      dup9\n        /* \"Heliocontracts/contracts/masterVault/WaitingPool.sol\":2450:2482  payable(userAddr).send(userDebt) */\n      dup9\n      call\n      swap4\n      pop\n      pop\n      pop\n      pop\n        /* \"Heliocontracts/contracts/masterVault/WaitingPool.sol\":2435:2482  bool success = payable(userAddr).send(userDebt) */\n      swap1\n      pop\n        /* \"Heliocontracts/contracts/masterVault/WaitingPool.sol\":2503:2510  success */\n      dup1\n        /* \"Heliocontracts/contracts/masterVault/WaitingPool.sol\":2500:2689  if(success) {... */\n      iszero\n      tag_102\n      jumpi\n        /* \"Heliocontracts/contracts/masterVault/WaitingPool.sol\":2547:2555  userDebt */\n      dup3\n        /* \"Heliocontracts/contracts/masterVault/WaitingPool.sol\":2534:2543  totalDebt */\n      0x03\n      0x00\n        /* \"Heliocontracts/contracts/masterVault/WaitingPool.sol\":2534:2555  totalDebt -= userDebt */\n      dup3\n      dup3\n      sload\n      tag_103\n      swap2\n      swap1\n      tag_104\n      jump\t// in\n    tag_103:\n      swap3\n      pop\n      pop\n      dup2\n      swap1\n      sstore\n      pop\n        /* \"Heliocontracts/contracts/masterVault/WaitingPool.sol\":2602:2606  true */\n      0x01\n        /* \"Heliocontracts/contracts/masterVault/WaitingPool.sol\":2577:2583  people */\n      dup1\n        /* \"Heliocontracts/contracts/masterVault/WaitingPool.sol\":2584:2589  index */\n      sload(0x02)\n        /* \"Heliocontracts/contracts/masterVault/WaitingPool.sol\":2577:2590  people[index] */\n      dup2\n      sload\n      dup2\n      lt\n      tag_106\n      jumpi\n      tag_106\n      tag_89\n      jump\t// in\n    tag_106:\n      0x00\n      swap2\n      dup3\n      mstore\n      0x20\n      swap2\n      dup3\n      swap1\n      keccak256\n      0x03\n      swap2\n      swap1\n      swap2\n      mul\n      add\n        /* \"Heliocontracts/contracts/masterVault/WaitingPool.sol\":2577:2599  people[index]._settled */\n      0x02\n      add\n        /* \"Heliocontracts/contracts/masterVault/WaitingPool.sol\":2577:2606  people[index]._settled = true */\n      dup1\n      sload\n      not(0xff)\n      and\n      swap3\n      iszero\n      iszero\n      swap3\n      swap1\n      swap3\n      or\n      swap1\n      swap2\n      sstore\n        /* \"Heliocontracts/contracts/masterVault/WaitingPool.sol\":2633:2670  WithdrawCompleted(userAddr, userDebt) */\n      0x40\n      dup1\n      mload\n      sub(shl(0xa0, 0x01), 0x01)\n        /* \"#utility.yul\":2125:2157   */\n      dup6\n      and\n        /* \"#utility.yul\":2107:2158   */\n      dup2\n      mstore\n        /* \"#utility.yul\":2174:2192   */\n      swap2\n      dup3\n      add\n        /* \"#utility.yul\":2167:2201   */\n      dup6\n      swap1\n      mstore\n        /* \"Heliocontracts/contracts/masterVault/WaitingPool.sol\":2633:2670  WithdrawCompleted(userAddr, userDebt) */\n      0x60188009b974c2fa66ee3b916d93f64d6534ea2204e0c466f9784ace689e8e49\n      swap2\n        /* \"#utility.yul\":2080:2098   */\n      add\n        /* \"Heliocontracts/contracts/masterVault/WaitingPool.sol\":2633:2670  WithdrawCompleted(userAddr, userDebt) */\n      mload(0x40)\n      dup1\n      swap2\n      sub\n      swap1\n      log1\n        /* \"Heliocontracts/contracts/masterVault/WaitingPool.sol\":2500:2689  if(success) {... */\n    tag_102:\n        /* \"Heliocontracts/contracts/masterVault/WaitingPool.sol\":2706:2711  cap++ */\n      dup5\n      tag_109\n      dup2\n      tag_110\n      jump\t// in\n    tag_109:\n        /* \"Heliocontracts/contracts/masterVault/WaitingPool.sol\":2729:2734  index */\n      0x02\n        /* \"Heliocontracts/contracts/masterVault/WaitingPool.sol\":2729:2736  index++ */\n      dup1\n      sload\n        /* \"Heliocontracts/contracts/masterVault/WaitingPool.sol\":2706:2711  cap++ */\n      swap2\n      swap8\n      pop\n        /* \"Heliocontracts/contracts/masterVault/WaitingPool.sol\":2729:2736  index++ */\n      swap1\n      swap2\n      pop\n        /* \"Heliocontracts/contracts/masterVault/WaitingPool.sol\":2729:2734  index */\n      0x00\n        /* \"Heliocontracts/contracts/masterVault/WaitingPool.sol\":2729:2736  index++ */\n      tag_111\n      dup4\n      tag_110\n      jump\t// in\n    tag_111:\n      swap2\n      swap1\n      pop\n      sstore\n      pop\n        /* \"Heliocontracts/contracts/masterVault/WaitingPool.sol\":2417:2751  {... */\n      pop\n        /* \"Heliocontracts/contracts/masterVault/WaitingPool.sol\":2251:2809  if(... */\n      jump(tag_112)\n    tag_100:\n        /* \"Heliocontracts/contracts/masterVault/WaitingPool.sol\":2788:2795  return; */\n      pop\n      pop\n      pop\n      pop\n      pop\n        /* \"Heliocontracts/contracts/masterVault/WaitingPool.sol\":1932:2825  function tryRemove() external onlyMasterVault {... */\n      jump\t// out\n        /* \"Heliocontracts/contracts/masterVault/WaitingPool.sol\":2251:2809  if(... */\n    tag_112:\n        /* \"Heliocontracts/contracts/masterVault/WaitingPool.sol\":2085:2819  {... */\n      pop\n      pop\n        /* \"Heliocontracts/contracts/masterVault/WaitingPool.sol\":2080:2083  i++ */\n      dup1\n      dup1\n      tag_113\n      swap1\n      tag_110\n      jump\t// in\n    tag_113:\n      swap2\n      pop\n      pop\n        /* \"Heliocontracts/contracts/masterVault/WaitingPool.sol\":2038:2819  for(uint256 i = index; i < people.length; i++) {... */\n      jump(tag_84)\n    tag_85:\n      pop\n        /* \"Heliocontracts/contracts/masterVault/WaitingPool.sol\":1978:2825  {... */\n      pop\n      pop\n        /* \"Heliocontracts/contracts/masterVault/WaitingPool.sol\":1932:2825  function tryRemove() external onlyMasterVault {... */\n      jump\t// out\n        /* \"Heliocontracts/contracts/masterVault/WaitingPool.sol\":351:373  Person[] public people */\n    tag_47:\n      0x01\n      dup2\n      dup2\n      sload\n      dup2\n      lt\n      tag_114\n      jumpi\n      0x00\n      dup1\n      revert\n    tag_114:\n      0x00\n      swap2\n      dup3\n      mstore\n      0x20\n      swap1\n      swap2\n      keccak256\n      0x03\n      swap1\n      swap2\n      mul\n      add\n      dup1\n      sload\n      0x01\n      dup3\n      add\n      sload\n      0x02\n      swap1\n      swap3\n      add\n      sload\n      sub(shl(0xa0, 0x01), 0x01)\n      swap1\n      swap2\n      and\n      swap3\n      pop\n      0xff\n      and\n      dup4\n      jump\t// out\n        /* \"Heliocontracts/contracts/masterVault/WaitingPool.sol\":3119:3618  function withdrawUnsettled(uint256 _index) external {... */\n    tag_57:\n        /* \"Heliocontracts/contracts/masterVault/WaitingPool.sol\":3181:3192  address src */\n      0x00\n        /* \"Heliocontracts/contracts/masterVault/WaitingPool.sol\":3195:3205  msg.sender */\n      caller\n        /* \"Heliocontracts/contracts/masterVault/WaitingPool.sol\":3181:3205  address src = msg.sender */\n      swap1\n      pop\n        /* \"Heliocontracts/contracts/masterVault/WaitingPool.sol\":3237:3243  people */\n      0x01\n        /* \"Heliocontracts/contracts/masterVault/WaitingPool.sol\":3244:3250  _index */\n      dup3\n        /* \"Heliocontracts/contracts/masterVault/WaitingPool.sol\":3237:3251  people[_index] */\n      dup2\n      sload\n      dup2\n      lt\n      tag_119\n      jumpi\n      tag_119\n      tag_89\n      jump\t// in\n    tag_119:\n      0x00\n      swap2\n      dup3\n      mstore\n      0x20\n      swap1\n      swap2\n      keccak256\n        /* \"Heliocontracts/contracts/masterVault/WaitingPool.sol\":3237:3260  people[_index]._settled */\n      0x02\n        /* \"Heliocontracts/contracts/masterVault/WaitingPool.sol\":3237:3251  people[_index] */\n      0x03\n      swap1\n      swap3\n      mul\n      add\n        /* \"Heliocontracts/contracts/masterVault/WaitingPool.sol\":3237:3260  people[_index]._settled */\n      add\n      sload\n      0xff\n      and\n        /* \"Heliocontracts/contracts/masterVault/WaitingPool.sol\":3236:3260  !people[_index]._settled */\n      iszero\n        /* \"Heliocontracts/contracts/masterVault/WaitingPool.sol\":3236:3291  !people[_index]._settled && ... */\n      dup1\n      iszero\n      tag_121\n      jumpi\n      pop\n        /* \"Heliocontracts/contracts/masterVault/WaitingPool.sol\":3286:3291  index */\n      sload(0x02)\n        /* \"Heliocontracts/contracts/masterVault/WaitingPool.sol\":3277:3283  _index */\n      dup3\n        /* \"Heliocontracts/contracts/masterVault/WaitingPool.sol\":3277:3291  _index < index */\n      lt\n        /* \"Heliocontracts/contracts/masterVault/WaitingPool.sol\":3236:3291  !people[_index]._settled && ... */\n    tag_121:\n        /* \"Heliocontracts/contracts/masterVault/WaitingPool.sol\":3236:3338  !people[_index]._settled && ... */\n      dup1\n      iszero\n      tag_122\n      jumpi\n      pop\n        /* \"Heliocontracts/contracts/masterVault/WaitingPool.sol\":3335:3338  src */\n      dup1\n      sub(shl(0xa0, 0x01), 0x01)\n        /* \"Heliocontracts/contracts/masterVault/WaitingPool.sol\":3308:3338  people[_index]._address == src */\n      and\n        /* \"Heliocontracts/contracts/masterVault/WaitingPool.sol\":3308:3314  people */\n      0x01\n        /* \"Heliocontracts/contracts/masterVault/WaitingPool.sol\":3315:3321  _index */\n      dup4\n        /* \"Heliocontracts/contracts/masterVault/WaitingPool.sol\":3308:3322  people[_index] */\n      dup2\n      sload\n      dup2\n      lt\n      tag_124\n      jumpi\n      tag_124\n      tag_89\n      jump\t// in\n    tag_124:\n      0x00\n      swap2\n      dup3\n      mstore\n      0x20\n      swap1\n      swap2\n      keccak256\n      0x03\n      swap1\n      swap2\n      mul\n      add\n        /* \"Heliocontracts/contracts/masterVault/WaitingPool.sol\":3308:3331  people[_index]._address */\n      sload\n      sub(shl(0xa0, 0x01), 0x01)\n      and\n        /* \"Heliocontracts/contracts/masterVault/WaitingPool.sol\":3308:3338  people[_index]._address == src */\n      eq\n        /* \"Heliocontracts/contracts/masterVault/WaitingPool.sol\":3236:3338  !people[_index]._settled && ... */\n    tag_122:\n        /* \"Heliocontracts/contracts/masterVault/WaitingPool.sol\":3215:3379  require(... */\n      tag_126\n      jumpi\n      mload(0x40)\n      shl(0xe5, 0x461bcd)\n      dup2\n      mstore\n        /* \"#utility.yul\":2816:2818   */\n      0x20\n        /* \"Heliocontracts/contracts/masterVault/WaitingPool.sol\":3215:3379  require(... */\n      0x04\n      dup3\n      add\n        /* \"#utility.yul\":2798:2819   */\n      mstore\n        /* \"#utility.yul\":2855:2857   */\n      0x0f\n        /* \"#utility.yul\":2835:2853   */\n      0x24\n      dup3\n      add\n        /* \"#utility.yul\":2828:2858   */\n      mstore\n      shl(0x8a, 0x185b1c9958591e481cd95d1d1b1959)\n        /* \"#utility.yul\":2874:2892   */\n      0x44\n      dup3\n      add\n        /* \"#utility.yul\":2867:2912   */\n      mstore\n        /* \"#utility.yul\":2929:2947   */\n      0x64\n      add\n        /* \"Heliocontracts/contracts/masterVault/WaitingPool.sol\":3215:3379  require(... */\n      tag_70\n        /* \"#utility.yul\":2614:2953   */\n      jump\n        /* \"Heliocontracts/contracts/masterVault/WaitingPool.sol\":3215:3379  require(... */\n    tag_126:\n        /* \"Heliocontracts/contracts/masterVault/WaitingPool.sol\":3389:3411  uint256 withdrawAmount */\n      0x00\n        /* \"Heliocontracts/contracts/masterVault/WaitingPool.sol\":3414:3420  people */\n      0x01\n        /* \"Heliocontracts/contracts/masterVault/WaitingPool.sol\":3421:3427  _index */\n      dup4\n        /* \"Heliocontracts/contracts/masterVault/WaitingPool.sol\":3414:3428  people[_index] */\n      dup2\n      sload\n      dup2\n      lt\n      tag_130\n      jumpi\n      tag_130\n      tag_89\n      jump\t// in\n    tag_130:\n      swap1\n      0x00\n      mstore\n      keccak256(0x00, 0x20)\n      swap1\n      0x03\n      mul\n      add\n        /* \"Heliocontracts/contracts/masterVault/WaitingPool.sol\":3414:3434  people[_index]._debt */\n      0x01\n      add\n      sload\n        /* \"Heliocontracts/contracts/masterVault/WaitingPool.sol\":3389:3434  uint256 withdrawAmount = people[_index]._debt */\n      swap1\n      pop\n        /* \"Heliocontracts/contracts/masterVault/WaitingPool.sol\":3457:3471  withdrawAmount */\n      dup1\n        /* \"Heliocontracts/contracts/masterVault/WaitingPool.sol\":3444:3453  totalDebt */\n      0x03\n      0x00\n        /* \"Heliocontracts/contracts/masterVault/WaitingPool.sol\":3444:3471  totalDebt -= withdrawAmount */\n      dup3\n      dup3\n      sload\n      tag_132\n      swap2\n      swap1\n      tag_104\n      jump\t// in\n    tag_132:\n      swap3\n      pop\n      pop\n      dup2\n      swap1\n      sstore\n      pop\n        /* \"Heliocontracts/contracts/masterVault/WaitingPool.sol\":3507:3511  true */\n      0x01\n        /* \"Heliocontracts/contracts/masterVault/WaitingPool.sol\":3481:3487  people */\n      dup1\n        /* \"Heliocontracts/contracts/masterVault/WaitingPool.sol\":3488:3494  _index */\n      dup5\n        /* \"Heliocontracts/contracts/masterVault/WaitingPool.sol\":3481:3495  people[_index] */\n      dup2\n      sload\n      dup2\n      lt\n      tag_134\n      jumpi\n      tag_134\n      tag_89\n      jump\t// in\n    tag_134:\n      0x00\n      swap2\n      dup3\n      mstore\n      0x20\n      dup3\n      keccak256\n      0x03\n      swap2\n      swap1\n      swap2\n      mul\n      add\n        /* \"Heliocontracts/contracts/masterVault/WaitingPool.sol\":3481:3504  people[_index]._settled */\n      0x02\n      add\n        /* \"Heliocontracts/contracts/masterVault/WaitingPool.sol\":3481:3511  people[_index]._settled = true */\n      dup1\n      sload\n      not(0xff)\n      and\n      swap3\n      iszero\n      iszero\n      swap3\n      swap1\n      swap3\n      or\n      swap1\n      swap2\n      sstore\n        /* \"Heliocontracts/contracts/masterVault/WaitingPool.sol\":3521:3558  payable(src).transfer(withdrawAmount) */\n      mload(0x40)\n      sub(shl(0xa0, 0x01), 0x01)\n        /* \"Heliocontracts/contracts/masterVault/WaitingPool.sol\":3521:3542  payable(src).transfer */\n      dup5\n      and\n      swap2\n        /* \"Heliocontracts/contracts/masterVault/WaitingPool.sol\":3521:3558  payable(src).transfer(withdrawAmount) */\n      0x08fc\n      dup5\n      iszero\n      mul\n      swap2\n      dup5\n      swap2\n      dup2\n        /* \"Heliocontracts/contracts/masterVault/WaitingPool.sol\":3481:3495  people[_index] */\n      dup2\n        /* \"Heliocontracts/contracts/masterVault/WaitingPool.sol\":3521:3558  payable(src).transfer(withdrawAmount) */\n      dup2\n      dup6\n        /* \"Heliocontracts/contracts/masterVault/WaitingPool.sol\":3521:3542  payable(src).transfer */\n      dup9\n        /* \"Heliocontracts/contracts/masterVault/WaitingPool.sol\":3521:3558  payable(src).transfer(withdrawAmount) */\n      dup9\n      call\n      swap4\n      pop\n      pop\n      pop\n      pop\n      iszero\n      dup1\n      iszero\n      tag_137\n      jumpi\n      returndatasize\n      0x00\n      dup1\n      returndatacopy\n      revert(0x00, returndatasize)\n    tag_137:\n      pop\n        /* \"Heliocontracts/contracts/masterVault/WaitingPool.sol\":3573:3611  WithdrawCompleted(src, withdrawAmount) */\n      0x40\n      dup1\n      mload\n      sub(shl(0xa0, 0x01), 0x01)\n        /* \"#utility.yul\":2125:2157   */\n      dup5\n      and\n        /* \"#utility.yul\":2107:2158   */\n      dup2\n      mstore\n        /* \"#utility.yul\":2189:2191   */\n      0x20\n        /* \"#utility.yul\":2174:2192   */\n      dup2\n      add\n        /* \"#utility.yul\":2167:2201   */\n      dup4\n      swap1\n      mstore\n        /* \"Heliocontracts/contracts/masterVault/WaitingPool.sol\":3573:3611  WithdrawCompleted(src, withdrawAmount) */\n      0x60188009b974c2fa66ee3b916d93f64d6534ea2204e0c466f9784ace689e8e49\n      swap2\n        /* \"#utility.yul\":2080:2098   */\n      add\n        /* \"Heliocontracts/contracts/masterVault/WaitingPool.sol\":3573:3611  WithdrawCompleted(src, withdrawAmount) */\n      tag_79\n        /* \"#utility.yul\":1933:2207   */\n      jump\n        /* \"Heliocontracts/contracts/masterVault/WaitingPool.sol\":903:1125  function initialize(address _masterVault, uint256 _capLimit) external initializer {... */\n    tag_61:\n        /* \"@openzeppelin/contracts-upgradeable/proxy/utils/Initializable.sol\":3111:3130  bool isTopLevelCall */\n      0x00\n        /* \"@openzeppelin/contracts-upgradeable/proxy/utils/Initializable.sol\":3134:3147  _initializing */\n      sload\n      0x0100\n      swap1\n      div\n      0xff\n      and\n        /* \"@openzeppelin/contracts-upgradeable/proxy/utils/Initializable.sol\":3133:3147  !_initializing */\n      iszero\n      dup1\n        /* \"@openzeppelin/contracts-upgradeable/proxy/utils/Initializable.sol\":3179:3213  isTopLevelCall && _initialized < 1 */\n      dup1\n      iszero\n      tag_140\n      jumpi\n      pop\n        /* \"@openzeppelin/contracts-upgradeable/proxy/utils/Initializable.sol\":3197:3209  _initialized */\n      sload(0x00)\n        /* \"@openzeppelin/contracts-upgradeable/proxy/utils/Initializable.sol\":3212:3213  1 */\n      0x01\n        /* \"@openzeppelin/contracts-upgradeable/proxy/utils/Initializable.sol\":3197:3209  _initialized */\n      0xff\n      swap1\n      swap2\n      and\n        /* \"@openzeppelin/contracts-upgradeable/proxy/utils/Initializable.sol\":3197:3213  _initialized < 1 */\n      lt\n        /* \"@openzeppelin/contracts-upgradeable/proxy/utils/Initializable.sol\":3179:3213  isTopLevelCall && _initialized < 1 */\n    tag_140:\n        /* \"@openzeppelin/contracts-upgradeable/proxy/utils/Initializable.sol\":3178:3286  (isTopLevelCall && _initialized < 1) || (!AddressUpgradeable.isContract(address(this)) && _initialized == 1) */\n      dup1\n      tag_144\n      jumpi\n      pop\n        /* \"@openzeppelin/contracts-upgradeable/proxy/utils/Initializable.sol\":3258:3262  this */\n      address\n        /* \"@openzeppelin/contracts-upgradeable/utils/AddressUpgradeable.sol\":1476:1495  account.code.length */\n      extcodesize\n        /* \"@openzeppelin/contracts-upgradeable/utils/AddressUpgradeable.sol\":1476:1499  account.code.length > 0 */\n      iszero\n      dup1\n      iszero\n        /* \"@openzeppelin/contracts-upgradeable/proxy/utils/Initializable.sol\":3219:3285  !AddressUpgradeable.isContract(address(this)) && _initialized == 1 */\n      tag_144\n      jumpi\n      pop\n        /* \"@openzeppelin/contracts-upgradeable/proxy/utils/Initializable.sol\":3268:3280  _initialized */\n      and(0xff, sload(0x00))\n      0x01\n        /* \"@openzeppelin/contracts-upgradeable/proxy/utils/Initializable.sol\":3268:3285  _initialized == 1 */\n      eq\n        /* \"@openzeppelin/contracts-upgradeable/proxy/utils/Initializable.sol\":3219:3285  !AddressUpgradeable.isContract(address(this)) && _initialized == 1 */\n    tag_144:\n        /* \"@openzeppelin/contracts-upgradeable/proxy/utils/Initializable.sol\":3157:3358  require(... */\n      tag_145\n      jumpi\n      mload(0x40)\n      shl(0xe5, 0x461bcd)\n      dup2\n      mstore\n        /* \"#utility.yul\":3160:3162   */\n      0x20\n        /* \"@openzeppelin/contracts-upgradeable/proxy/utils/Initializable.sol\":3157:3358  require(... */\n      0x04\n      dup3\n      add\n        /* \"#utility.yul\":3142:3163   */\n      mstore\n        /* \"#utility.yul\":3199:3201   */\n      0x2e\n        /* \"#utility.yul\":3179:3197   */\n      0x24\n      dup3\n      add\n        /* \"#utility.yul\":3172:3202   */\n      mstore\n        /* \"#utility.yul\":3238:3272   */\n      0x496e697469616c697a61626c653a20636f6e747261637420697320616c726561\n        /* \"#utility.yul\":3218:3236   */\n      0x44\n      dup3\n      add\n        /* \"#utility.yul\":3211:3273   */\n      mstore\n      shl(0x92, 0x191e481a5b9a5d1a585b1a5e9959)\n        /* \"#utility.yul\":3289:3307   */\n      0x64\n      dup3\n      add\n        /* \"#utility.yul\":3282:3326   */\n      mstore\n        /* \"#utility.yul\":3343:3362   */\n      0x84\n      add\n        /* \"@openzeppelin/contracts-upgradeable/proxy/utils/Initializable.sol\":3157:3358  require(... */\n      tag_70\n        /* \"#utility.yul\":2958:3368   */\n      jump\n        /* \"@openzeppelin/contracts-upgradeable/proxy/utils/Initializable.sol\":3157:3358  require(... */\n    tag_145:\n        /* \"@openzeppelin/contracts-upgradeable/proxy/utils/Initializable.sol\":3368:3380  _initialized */\n      0x00\n        /* \"@openzeppelin/contracts-upgradeable/proxy/utils/Initializable.sol\":3368:3384  _initialized = 1 */\n      dup1\n      sload\n      not(0xff)\n      and\n        /* \"@openzeppelin/contracts-upgradeable/proxy/utils/Initializable.sol\":3383:3384  1 */\n      0x01\n        /* \"@openzeppelin/contracts-upgradeable/proxy/utils/Initializable.sol\":3368:3384  _initialized = 1 */\n      or\n      swap1\n      sstore\n        /* \"@openzeppelin/contracts-upgradeable/proxy/utils/Initializable.sol\":3394:3459  if (isTopLevelCall) {... */\n      dup1\n      iszero\n      tag_148\n      jumpi\n        /* \"@openzeppelin/contracts-upgradeable/proxy/utils/Initializable.sol\":3428:3441  _initializing */\n      0x00\n        /* \"@openzeppelin/contracts-upgradeable/proxy/utils/Initializable.sol\":3428:3448  _initializing = true */\n      dup1\n      sload\n      not(0xff00)\n      and\n      0x0100\n      or\n      swap1\n      sstore\n        /* \"@openzeppelin/contracts-upgradeable/proxy/utils/Initializable.sol\":3394:3459  if (isTopLevelCall) {... */\n    tag_148:\n        /* \"Heliocontracts/contracts/masterVault/WaitingPool.sol\":1015:1016  0 */\n      0x00\n        /* \"Heliocontracts/contracts/masterVault/WaitingPool.sol\":1003:1012  _capLimit */\n      dup3\n        /* \"Heliocontracts/contracts/masterVault/WaitingPool.sol\":1003:1016  _capLimit > 0 */\n      gt\n        /* \"Heliocontracts/contracts/masterVault/WaitingPool.sol\":995:1038  require(_capLimit > 0, \"invalid cap limit\") */\n      tag_150\n      jumpi\n      mload(0x40)\n      shl(0xe5, 0x461bcd)\n      dup2\n      mstore\n        /* \"#utility.yul\":3575:3577   */\n      0x20\n        /* \"Heliocontracts/contracts/masterVault/WaitingPool.sol\":995:1038  require(_capLimit > 0, \"invalid cap limit\") */\n      0x04\n      dup3\n      add\n        /* \"#utility.yul\":3557:3578   */\n      mstore\n        /* \"#utility.yul\":3614:3616   */\n      0x11\n        /* \"#utility.yul\":3594:3612   */\n      0x24\n      dup3\n      add\n        /* \"#utility.yul\":3587:3617   */\n      mstore\n      shl(0x7a, 0x1a5b9d985b1a590818d85c081b1a5b5a5d)\n        /* \"#utility.yul\":3633:3651   */\n      0x44\n      dup3\n      add\n        /* \"#utility.yul\":3626:3673   */\n      mstore\n        /* \"#utility.yul\":3690:3708   */\n      0x64\n      add\n        /* \"Heliocontracts/contracts/masterVault/WaitingPool.sol\":995:1038  require(_capLimit > 0, \"invalid cap limit\") */\n      tag_70\n        /* \"#utility.yul\":3373:3714   */\n      jump\n        /* \"Heliocontracts/contracts/masterVault/WaitingPool.sol\":995:1038  require(_capLimit > 0, \"invalid cap limit\") */\n    tag_150:\n        /* \"Heliocontracts/contracts/masterVault/WaitingPool.sol\":1048:1059  masterVault */\n      0x00\n        /* \"Heliocontracts/contracts/masterVault/WaitingPool.sol\":1048:1088  masterVault = IMasterVault(_masterVault) */\n      dup1\n      sload\n      not(sub(shl(0xb0, 0x01), 0x010000))\n      and\n      0x010000\n      sub(shl(0xa0, 0x01), 0x01)\n      dup7\n      and\n      mul\n      or\n      swap1\n      sstore\n        /* \"Heliocontracts/contracts/masterVault/WaitingPool.sol\":1098:1106  capLimit */\n      0x04\n        /* \"Heliocontracts/contracts/masterVault/WaitingPool.sol\":1098:1118  capLimit = _capLimit */\n      dup3\n      swap1\n      sstore\n        /* \"@openzeppelin/contracts-upgradeable/proxy/utils/Initializable.sol\":3479:3578  if (isTopLevelCall) {... */\n      dup1\n      iszero\n      tag_85\n      jumpi\n        /* \"@openzeppelin/contracts-upgradeable/proxy/utils/Initializable.sol\":3529:3534  false */\n      0x00\n        /* \"@openzeppelin/contracts-upgradeable/proxy/utils/Initializable.sol\":3513:3534  _initializing = false */\n      dup1\n      sload\n      not(0xff00)\n      and\n      swap1\n      sstore\n        /* \"@openzeppelin/contracts-upgradeable/proxy/utils/Initializable.sol\":3553:3567  Initialized(1) */\n      mload(0x40)\n      0x01\n        /* \"#utility.yul\":3871:3907   */\n      dup2\n      mstore\n        /* \"@openzeppelin/contracts-upgradeable/proxy/utils/Initializable.sol\":3553:3567  Initialized(1) */\n      0x7f26b83ff96e1f2b6a682f133852f6798a09c465da95921460cefb3847402498\n      swap1\n        /* \"#utility.yul\":3859:3861   */\n      0x20\n        /* \"#utility.yul\":3844:3862   */\n      add\n        /* \"@openzeppelin/contracts-upgradeable/proxy/utils/Initializable.sol\":3553:3567  Initialized(1) */\n      tag_79\n        /* \"#utility.yul\":3719:3913   */\n      jump\n        /* \"#utility.yul\":424:604   */\n    tag_34:\n        /* \"#utility.yul\":483:489   */\n      0x00\n        /* \"#utility.yul\":536:538   */\n      0x20\n        /* \"#utility.yul\":524:533   */\n      dup3\n        /* \"#utility.yul\":515:522   */\n      dup5\n        /* \"#utility.yul\":511:534   */\n      sub\n        /* \"#utility.yul\":507:539   */\n      slt\n        /* \"#utility.yul\":504:556   */\n      iszero\n      tag_162\n      jumpi\n        /* \"#utility.yul\":552:553   */\n      0x00\n        /* \"#utility.yul\":549:550   */\n      dup1\n        /* \"#utility.yul\":542:554   */\n      revert\n        /* \"#utility.yul\":504:556   */\n    tag_162:\n      pop\n        /* \"#utility.yul\":575:598   */\n      calldataload\n      swap2\n        /* \"#utility.yul\":424:604   */\n      swap1\n      pop\n      jump\t// out\n        /* \"#utility.yul\":609:963   */\n    tag_39:\n        /* \"#utility.yul\":677:683   */\n      0x00\n        /* \"#utility.yul\":685:691   */\n      dup1\n        /* \"#utility.yul\":738:740   */\n      0x40\n        /* \"#utility.yul\":726:735   */\n      dup4\n        /* \"#utility.yul\":717:724   */\n      dup6\n        /* \"#utility.yul\":713:736   */\n      sub\n        /* \"#utility.yul\":709:741   */\n      slt\n        /* \"#utility.yul\":706:758   */\n      iszero\n      tag_164\n      jumpi\n        /* \"#utility.yul\":754:755   */\n      0x00\n        /* \"#utility.yul\":751:752   */\n      dup1\n        /* \"#utility.yul\":744:756   */\n      revert\n        /* \"#utility.yul\":706:758   */\n    tag_164:\n        /* \"#utility.yul\":780:803   */\n      dup3\n      calldataload\n      sub(shl(0xa0, 0x01), 0x01)\n        /* \"#utility.yul\":832:863   */\n      dup2\n      and\n        /* \"#utility.yul\":822:864   */\n      dup2\n      eq\n        /* \"#utility.yul\":812:882   */\n      tag_165\n      jumpi\n        /* \"#utility.yul\":878:879   */\n      0x00\n        /* \"#utility.yul\":875:876   */\n      dup1\n        /* \"#utility.yul\":868:880   */\n      revert\n        /* \"#utility.yul\":812:882   */\n    tag_165:\n        /* \"#utility.yul\":901:906   */\n      swap5\n        /* \"#utility.yul\":953:955   */\n      0x20\n        /* \"#utility.yul\":938:956   */\n      swap4\n      swap1\n      swap4\n      add\n        /* \"#utility.yul\":925:957   */\n      calldataload\n      swap4\n      pop\n      pop\n      pop\n        /* \"#utility.yul\":609:963   */\n      jump\t// out\n        /* \"#utility.yul\":1668:1795   */\n    tag_157:\n        /* \"#utility.yul\":1729:1739   */\n      0x4e487b71\n        /* \"#utility.yul\":1724:1727   */\n      0xe0\n        /* \"#utility.yul\":1720:1740   */\n      shl\n        /* \"#utility.yul\":1717:1718   */\n      0x00\n        /* \"#utility.yul\":1710:1741   */\n      mstore\n        /* \"#utility.yul\":1760:1764   */\n      0x11\n        /* \"#utility.yul\":1757:1758   */\n      0x04\n        /* \"#utility.yul\":1750:1765   */\n      mstore\n        /* \"#utility.yul\":1784:1788   */\n      0x24\n        /* \"#utility.yul\":1781:1782   */\n      0x00\n        /* \"#utility.yul\":1774:1789   */\n      revert\n        /* \"#utility.yul\":1800:1928   */\n    tag_77:\n        /* \"#utility.yul\":1840:1843   */\n      0x00\n        /* \"#utility.yul\":1871:1872   */\n      dup3\n        /* \"#utility.yul\":1867:1873   */\n      not\n        /* \"#utility.yul\":1864:1865   */\n      dup3\n        /* \"#utility.yul\":1861:1874   */\n      gt\n        /* \"#utility.yul\":1858:1897   */\n      iszero\n      tag_171\n      jumpi\n        /* \"#utility.yul\":1877:1895   */\n      tag_171\n      tag_157\n      jump\t// in\n    tag_171:\n      pop\n        /* \"#utility.yul\":1913:1922   */\n      add\n      swap1\n        /* \"#utility.yul\":1800:1928   */\n      jump\t// out\n        /* \"#utility.yul\":2212:2339   */\n    tag_89:\n        /* \"#utility.yul\":2273:2283   */\n      0x4e487b71\n        /* \"#utility.yul\":2268:2271   */\n      0xe0\n        /* \"#utility.yul\":2264:2284   */\n      shl\n        /* \"#utility.yul\":2261:2262   */\n      0x00\n        /* \"#utility.yul\":2254:2285   */\n      mstore\n        /* \"#utility.yul\":2304:2308   */\n      0x32\n        /* \"#utility.yul\":2301:2302   */\n      0x04\n        /* \"#utility.yul\":2294:2309   */\n      mstore\n        /* \"#utility.yul\":2328:2332   */\n      0x24\n        /* \"#utility.yul\":2325:2326   */\n      0x00\n        /* \"#utility.yul\":2318:2333   */\n      revert\n        /* \"#utility.yul\":2344:2469   */\n    tag_104:\n        /* \"#utility.yul\":2384:2388   */\n      0x00\n        /* \"#utility.yul\":2412:2413   */\n      dup3\n        /* \"#utility.yul\":2409:2410   */\n      dup3\n        /* \"#utility.yul\":2406:2414   */\n      lt\n        /* \"#utility.yul\":2403:2437   */\n      iszero\n      tag_176\n      jumpi\n        /* \"#utility.yul\":2417:2435   */\n      tag_176\n      tag_157\n      jump\t// in\n    tag_176:\n      pop\n        /* \"#utility.yul\":2454:2463   */\n      sub\n      swap1\n        /* \"#utility.yul\":2344:2469   */\n      jump\t// out\n        /* \"#utility.yul\":2474:2609   */\n    tag_110:\n        /* \"#utility.yul\":2513:2516   */\n      0x00\n      not(0x00)\n        /* \"#utility.yul\":2534:2551   */\n      dup3\n      eq\n        /* \"#utility.yul\":2531:2574   */\n      iszero\n      tag_179\n      jumpi\n        /* \"#utility.yul\":2554:2572   */\n      tag_179\n      tag_157\n      jump\t// in\n    tag_179:\n      pop\n        /* \"#utility.yul\":2601:2602   */\n      0x01\n        /* \"#utility.yul\":2590:2603   */\n      add\n      swap1\n        /* \"#utility.yul\":2474:2609   */\n      jump\t// out\n\n    auxdata: 0xa2646970667358221220e84426bd86c0d18436064c8daab88bb353caba88618ef57babab39ffb3587ea764736f6c634300080a0033\n}\n",
				"bytecode": {
					"linkReferences": {},
					"object": "608060405234801561001057600080fd5b50610a31806100206000396000f3fe6080604052600436106100a05760003560e01c806397d227661161006457806397d227661461016b5780639e7a13ad14610180578063abd70aa2146101c7578063c714003d146101da578063cd6dc687146101fa578063fc7b9c181461021a57600080fd5b80632986c0e5146100ac5780633521fb87146100d55780633b7e3775146100eb57806355f2316c146101295780637b0878f81461014b57600080fd5b366100a757005b600080fd5b3480156100b857600080fd5b506100c260025481565b6040519081526020015b60405180910390f35b3480156100e157600080fd5b506100c260045481565b3480156100f757600080fd5b50600054610111906201000090046001600160a01b031681565b6040516001600160a01b0390911681526020016100cc565b34801561013557600080fd5b50610149610144366004610934565b610230565b005b34801561015757600080fd5b5061014961016636600461094d565b610292565b34801561017757600080fd5b506101496103e8565b34801561018c57600080fd5b506101a061019b366004610934565b6105df565b604080516001600160a01b03909416845260208401929092521515908201526060016100cc565b3480156101d357600080fd5b50476100c2565b3480156101e657600080fd5b506101496101f5366004610934565b61061f565b34801561020657600080fd5b5061014961021536600461094d565b6107c7565b34801561022657600080fd5b506100c260035481565b6000546201000090046001600160a01b0316331461024d57600080fd5b8061028d5760405162461bcd60e51b815260206004820152600b60248201526a0696e76616c6964206361760ac1b60448201526064015b60405180910390fd5b600455565b6000546201000090046001600160a01b031633146102af57600080fd5b80156103e457604080516060810182526001600160a01b038416815260208101839052600091810182905260038054919284926102ed90849061099b565b909155505060018054808201825560009190915281517fb10e2d527612073b26eecdfd717e6a320cf44b4afac2b0732d9fcbe2b7fa0cf6600390920291820180546001600160a01b0319166001600160a01b039283161790556020808401517fb10e2d527612073b26eecdfd717e6a320cf44b4afac2b0732d9fcbe2b7fa0cf78401556040808501517fb10e2d527612073b26eecdfd717e6a320cf44b4afac2b0732d9fcbe2b7fa0cf8909401805460ff1916941515949094179093558251918616825281018490527f9a92c3472ba0d2d183e38c3801bae5d41d693c2803377eae8b0f94683862253e91015b60405180910390a1505b5050565b6000546201000090046001600160a01b0316331461040557600080fd5b60025460009081905b6001548110156105da574792506000600160025481548110610432576104326109b3565b9060005260206000209060030201600101549050600060016002548154811061045d5761045d6109b3565b60009182526020909120600390910201546001600160a01b0316905081851080159061048857508115155b80156104bd57506001600254815481106104a4576104a46109b3565b600091825260209091206002600390920201015460ff16155b80156104ca575060045484105b156105be576040516000906001600160a01b0383169084156108fc0290859084818181858888f193505050509050801561059457826003600082825461051091906109c9565b925050819055506001806002548154811061052d5761052d6109b3565b600091825260209182902060039190910201600201805460ff191692151592909217909155604080516001600160a01b03851681529182018590527f60188009b974c2fa66ee3b916d93f64d6534ea2204e0c466f9784ace689e8e49910160405180910390a15b8461059e816109e0565b6002805491975090915060006105b3836109e0565b9190505550506105c5565b5050505050565b505080806105d2906109e0565b91505061040e565b505050565b600181815481106105ef57600080fd5b60009182526020909120600390910201805460018201546002909201546001600160a01b03909116925060ff1683565b600033905060018281548110610637576106376109b3565b600091825260209091206002600390920201015460ff1615801561065c575060025482105b801561069c5750806001600160a01b031660018381548110610680576106806109b3565b60009182526020909120600390910201546001600160a01b0316145b6106da5760405162461bcd60e51b815260206004820152600f60248201526e185b1c9958591e481cd95d1d1b1959608a1b6044820152606401610284565b6000600183815481106106ef576106ef6109b3565b9060005260206000209060030201600101549050806003600082825461071591906109c9565b925050819055506001808481548110610730576107306109b3565b60009182526020822060039190910201600201805460ff1916921515929092179091556040516001600160a01b038416916108fc841502918491818181858888f19350505050158015610787573d6000803e3d6000fd5b50604080516001600160a01b0384168152602081018390527f60188009b974c2fa66ee3b916d93f64d6534ea2204e0c466f9784ace689e8e4991016103da565b600054610100900460ff16158080156107e75750600054600160ff909116105b806108015750303b158015610801575060005460ff166001145b6108645760405162461bcd60e51b815260206004820152602e60248201527f496e697469616c697a61626c653a20636f6e747261637420697320616c72656160448201526d191e481a5b9a5d1a585b1a5e995960921b6064820152608401610284565b6000805460ff191660011790558015610887576000805461ff0019166101001790555b600082116108cb5760405162461bcd60e51b81526020600482015260116024820152701a5b9d985b1a590818d85c081b1a5b5a5d607a1b6044820152606401610284565b6000805462010000600160b01b031916620100006001600160a01b03861602179055600482905580156105da576000805461ff0019169055604051600181527f7f26b83ff96e1f2b6a682f133852f6798a09c465da95921460cefb3847402498906020016103da565b60006020828403121561094657600080fd5b5035919050565b6000806040838503121561096057600080fd5b82356001600160a01b038116811461097757600080fd5b946020939093013593505050565b634e487b7160e01b600052601160045260246000fd5b600082198211156109ae576109ae610985565b500190565b634e487b7160e01b600052603260045260246000fd5b6000828210156109db576109db610985565b500390565b60006000198214156109f4576109f4610985565b506001019056fea2646970667358221220e84426bd86c0d18436064c8daab88bb353caba88618ef57babab39ffb3587ea764736f6c634300080a0033",
					"opcodes": "PUSH1 0x80 PUSH1 0x40 MSTORE CALLVALUE DUP1 ISZERO PUSH2 0x10 JUMPI PUSH1 0x0 DUP1 REVERT JUMPDEST POP PUSH2 0xA31 DUP1 PUSH2 0x20 PUSH1 0x0 CODECOPY PUSH1 0x0 RETURN INVALID PUSH1 0x80 PUSH1 0x40 MSTORE PUSH1 0x4 CALLDATASIZE LT PUSH2 0xA0 JUMPI PUSH1 0x0 CALLDATALOAD PUSH1 0xE0 SHR DUP1 PUSH4 0x97D22766 GT PUSH2 0x64 JUMPI DUP1 PUSH4 0x97D22766 EQ PUSH2 0x16B JUMPI DUP1 PUSH4 0x9E7A13AD EQ PUSH2 0x180 JUMPI DUP1 PUSH4 0xABD70AA2 EQ PUSH2 0x1C7 JUMPI DUP1 PUSH4 0xC714003D EQ PUSH2 0x1DA JUMPI DUP1 PUSH4 0xCD6DC687 EQ PUSH2 0x1FA JUMPI DUP1 PUSH4 0xFC7B9C18 EQ PUSH2 0x21A JUMPI PUSH1 0x0 DUP1 REVERT JUMPDEST DUP1 PUSH4 0x2986C0E5 EQ PUSH2 0xAC JUMPI DUP1 PUSH4 0x3521FB87 EQ PUSH2 0xD5 JUMPI DUP1 PUSH4 0x3B7E3775 EQ PUSH2 0xEB JUMPI DUP1 PUSH4 0x55F2316C EQ PUSH2 0x129 JUMPI DUP1 PUSH4 0x7B0878F8 EQ PUSH2 0x14B JUMPI PUSH1 0x0 DUP1 REVERT JUMPDEST CALLDATASIZE PUSH2 0xA7 JUMPI STOP JUMPDEST PUSH1 0x0 DUP1 REVERT JUMPDEST CALLVALUE DUP1 ISZERO PUSH2 0xB8 JUMPI PUSH1 0x0 DUP1 REVERT JUMPDEST POP PUSH2 0xC2 PUSH1 0x2 SLOAD DUP2 JUMP JUMPDEST PUSH1 0x40 MLOAD SWAP1 DUP2 MSTORE PUSH1 0x20 ADD JUMPDEST PUSH1 0x40 MLOAD DUP1 SWAP2 SUB SWAP1 RETURN JUMPDEST CALLVALUE DUP1 ISZERO PUSH2 0xE1 JUMPI PUSH1 0x0 DUP1 REVERT JUMPDEST POP PUSH2 0xC2 PUSH1 0x4 SLOAD DUP2 JUMP JUMPDEST CALLVALUE DUP1 ISZERO PUSH2 0xF7 JUMPI PUSH1 0x0 DUP1 REVERT JUMPDEST POP PUSH1 0x0 SLOAD PUSH2 0x111 SWAP1 PUSH3 0x10000 SWAP1 DIV PUSH1 0x1 PUSH1 0x1 PUSH1 0xA0 SHL SUB AND DUP2 JUMP JUMPDEST PUSH1 0x40 MLOAD PUSH1 0x1 PUSH1 0x1 PUSH1 0xA0 SHL SUB SWAP1 SWAP2 AND DUP2 MSTORE PUSH1 0x20 ADD PUSH2 0xCC JUMP JUMPDEST CALLVALUE DUP1 ISZERO PUSH2 0x135 JUMPI PUSH1 0x0 DUP1 REVERT JUMPDEST POP PUSH2 0x149 PUSH2 0x144 CALLDATASIZE PUSH1 0x4 PUSH2 0x934 JUMP JUMPDEST PUSH2 0x230 JUMP JUMPDEST STOP JUMPDEST CALLVALUE DUP1 ISZERO PUSH2 0x157 JUMPI PUSH1 0x0 DUP1 REVERT JUMPDEST POP PUSH2 0x149 PUSH2 0x166 CALLDATASIZE PUSH1 0x4 PUSH2 0x94D JUMP JUMPDEST PUSH2 0x292 JUMP JUMPDEST CALLVALUE DUP1 ISZERO PUSH2 0x177 JUMPI PUSH1 0x0 DUP1 REVERT JUMPDEST POP PUSH2 0x149 PUSH2 0x3E8 JUMP JUMPDEST CALLVALUE DUP1 ISZERO PUSH2 0x18C JUMPI PUSH1 0x0 DUP1 REVERT JUMPDEST POP PUSH2 0x1A0 PUSH2 0x19B CALLDATASIZE PUSH1 0x4 PUSH2 0x934 JUMP JUMPDEST PUSH2 0x5DF JUMP JUMPDEST PUSH1 0x40 DUP1 MLOAD PUSH1 0x1 PUSH1 0x1 PUSH1 0xA0 SHL SUB SWAP1 SWAP5 AND DUP5 MSTORE PUSH1 0x20 DUP5 ADD SWAP3 SWAP1 SWAP3 MSTORE ISZERO ISZERO SWAP1 DUP3 ADD MSTORE PUSH1 0x60 ADD PUSH2 0xCC JUMP JUMPDEST CALLVALUE DUP1 ISZERO PUSH2 0x1D3 JUMPI PUSH1 0x0 DUP1 REVERT JUMPDEST POP SELFBALANCE PUSH2 0xC2 JUMP JUMPDEST CALLVALUE DUP1 ISZERO PUSH2 0x1E6 JUMPI PUSH1 0x0 DUP1 REVERT JUMPDEST POP PUSH2 0x149 PUSH2 0x1F5 CALLDATASIZE PUSH1 0x4 PUSH2 0x934 JUMP JUMPDEST PUSH2 0x61F JUMP JUMPDEST CALLVALUE DUP1 ISZERO PUSH2 0x206 JUMPI PUSH1 0x0 DUP1 REVERT JUMPDEST POP PUSH2 0x149 PUSH2 0x215 CALLDATASIZE PUSH1 0x4 PUSH2 0x94D JUMP JUMPDEST PUSH2 0x7C7 JUMP JUMPDEST CALLVALUE DUP1 ISZERO PUSH2 0x226 JUMPI PUSH1 0x0 DUP1 REVERT JUMPDEST POP PUSH2 0xC2 PUSH1 0x3 SLOAD DUP2 JUMP JUMPDEST PUSH1 0x0 SLOAD PUSH3 0x10000 SWAP1 DIV PUSH1 0x1 PUSH1 0x1 PUSH1 0xA0 SHL SUB AND CALLER EQ PUSH2 0x24D JUMPI PUSH1 0x0 DUP1 REVERT JUMPDEST DUP1 PUSH2 0x28D JUMPI PUSH1 0x40 MLOAD PUSH3 0x461BCD PUSH1 0xE5 SHL DUP2 MSTORE PUSH1 0x20 PUSH1 0x4 DUP3 ADD MSTORE PUSH1 0xB PUSH1 0x24 DUP3 ADD MSTORE PUSH11 0x696E76616C69642063617 PUSH1 0xAC SHL PUSH1 0x44 DUP3 ADD MSTORE PUSH1 0x64 ADD JUMPDEST PUSH1 0x40 MLOAD DUP1 SWAP2 SUB SWAP1 REVERT JUMPDEST PUSH1 0x4 SSTORE JUMP JUMPDEST PUSH1 0x0 SLOAD PUSH3 0x10000 SWAP1 DIV PUSH1 0x1 PUSH1 0x1 PUSH1 0xA0 SHL SUB AND CALLER EQ PUSH2 0x2AF JUMPI PUSH1 0x0 DUP1 REVERT JUMPDEST DUP1 ISZERO PUSH2 0x3E4 JUMPI PUSH1 0x40 DUP1 MLOAD PUSH1 0x60 DUP2 ADD DUP3 MSTORE PUSH1 0x1 PUSH1 0x1 PUSH1 0xA0 SHL SUB DUP5 AND DUP2 MSTORE PUSH1 0x20 DUP2 ADD DUP4 SWAP1 MSTORE PUSH1 0x0 SWAP2 DUP2 ADD DUP3 SWAP1 MSTORE PUSH1 0x3 DUP1 SLOAD SWAP2 SWAP3 DUP5 SWAP3 PUSH2 0x2ED SWAP1 DUP5 SWAP1 PUSH2 0x99B JUMP JUMPDEST SWAP1 SWAP2 SSTORE POP POP PUSH1 0x1 DUP1 SLOAD DUP1 DUP3 ADD DUP3 SSTORE PUSH1 0x0 SWAP2 SWAP1 SWAP2 MSTORE DUP2 MLOAD PUSH32 0xB10E2D527612073B26EECDFD717E6A320CF44B4AFAC2B0732D9FCBE2B7FA0CF6 PUSH1 0x3 SWAP1 SWAP3 MUL SWAP2 DUP3 ADD DUP1 SLOAD PUSH1 0x1 PUSH1 0x1 PUSH1 0xA0 SHL SUB NOT AND PUSH1 0x1 PUSH1 0x1 PUSH1 0xA0 SHL SUB SWAP3 DUP4 AND OR SWAP1 SSTORE PUSH1 0x20 DUP1 DUP5 ADD MLOAD PUSH32 0xB10E2D527612073B26EECDFD717E6A320CF44B4AFAC2B0732D9FCBE2B7FA0CF7 DUP5 ADD SSTORE PUSH1 0x40 DUP1 DUP6 ADD MLOAD PUSH32 0xB10E2D527612073B26EECDFD717E6A320CF44B4AFAC2B0732D9FCBE2B7FA0CF8 SWAP1 SWAP5 ADD DUP1 SLOAD PUSH1 0xFF NOT AND SWAP5 ISZERO ISZERO SWAP5 SWAP1 SWAP5 OR SWAP1 SWAP4 SSTORE DUP3 MLOAD SWAP2 DUP7 AND DUP3 MSTORE DUP2 ADD DUP5 SWAP1 MSTORE PUSH32 0x9A92C3472BA0D2D183E38C3801BAE5D41D693C2803377EAE8B0F94683862253E SWAP2 ADD JUMPDEST PUSH1 0x40 MLOAD DUP1 SWAP2 SUB SWAP1 LOG1 POP JUMPDEST POP POP JUMP JUMPDEST PUSH1 0x0 SLOAD PUSH3 0x10000 SWAP1 DIV PUSH1 0x1 PUSH1 0x1 PUSH1 0xA0 SHL SUB AND CALLER EQ PUSH2 0x405 JUMPI PUSH1 0x0 DUP1 REVERT JUMPDEST PUSH1 0x2 SLOAD PUSH1 0x0 SWAP1 DUP2 SWAP1 JUMPDEST PUSH1 0x1 SLOAD DUP2 LT ISZERO PUSH2 0x5DA JUMPI SELFBALANCE SWAP3 POP PUSH1 0x0 PUSH1 0x1 PUSH1 0x2 SLOAD DUP2 SLOAD DUP2 LT PUSH2 0x432 JUMPI PUSH2 0x432 PUSH2 0x9B3 JUMP JUMPDEST SWAP1 PUSH1 0x0 MSTORE PUSH1 0x20 PUSH1 0x0 KECCAK256 SWAP1 PUSH1 0x3 MUL ADD PUSH1 0x1 ADD SLOAD SWAP1 POP PUSH1 0x0 PUSH1 0x1 PUSH1 0x2 SLOAD DUP2 SLOAD DUP2 LT PUSH2 0x45D JUMPI PUSH2 0x45D PUSH2 0x9B3 JUMP JUMPDEST PUSH1 0x0 SWAP2 DUP3 MSTORE PUSH1 0x20 SWAP1 SWAP2 KECCAK256 PUSH1 0x3 SWAP1 SWAP2 MUL ADD SLOAD PUSH1 0x1 PUSH1 0x1 PUSH1 0xA0 SHL SUB AND SWAP1 POP DUP2 DUP6 LT DUP1 ISZERO SWAP1 PUSH2 0x488 JUMPI POP DUP2 ISZERO ISZERO JUMPDEST DUP1 ISZERO PUSH2 0x4BD JUMPI POP PUSH1 0x1 PUSH1 0x2 SLOAD DUP2 SLOAD DUP2 LT PUSH2 0x4A4 JUMPI PUSH2 0x4A4 PUSH2 0x9B3 JUMP JUMPDEST PUSH1 0x0 SWAP2 DUP3 MSTORE PUSH1 0x20 SWAP1 SWAP2 KECCAK256 PUSH1 0x2 PUSH1 0x3 SWAP1 SWAP3 MUL ADD ADD SLOAD PUSH1 0xFF AND ISZERO JUMPDEST DUP1 ISZERO PUSH2 0x4CA JUMPI POP PUSH1 0x4 SLOAD DUP5 LT JUMPDEST ISZERO PUSH2 0x5BE JUMPI PUSH1 0x40 MLOAD PUSH1 0x0 SWAP1 PUSH1 0x1 PUSH1 0x1 PUSH1 0xA0 SHL SUB DUP4 AND SWAP1 DUP5 ISZERO PUSH2 0x8FC MUL SWAP1 DUP6 SWAP1 DUP5 DUP2 DUP2 DUP2 DUP6 DUP9 DUP9 CALL SWAP4 POP POP POP POP SWAP1 POP DUP1 ISZERO PUSH2 0x594 JUMPI DUP3 PUSH1 0x3 PUSH1 0x0 DUP3 DUP3 SLOAD PUSH2 0x510 SWAP2 SWAP1 PUSH2 0x9C9 JUMP JUMPDEST SWAP3 POP POP DUP2 SWAP1 SSTORE POP PUSH1 0x1 DUP1 PUSH1 0x2 SLOAD DUP2 SLOAD DUP2 LT PUSH2 0x52D JUMPI PUSH2 0x52D PUSH2 0x9B3 JUMP JUMPDEST PUSH1 0x0 SWAP2 DUP3 MSTORE PUSH1 0x20 SWAP2 DUP3 SWAP1 KECCAK256 PUSH1 0x3 SWAP2 SWAP1 SWAP2 MUL ADD PUSH1 0x2 ADD DUP1 SLOAD PUSH1 0xFF NOT AND SWAP3 ISZERO ISZERO SWAP3 SWAP1 SWAP3 OR SWAP1 SWAP2 SSTORE PUSH1 0x40 DUP1 MLOAD PUSH1 0x1 PUSH1 0x1 PUSH1 0xA0 SHL SUB DUP6 AND DUP2 MSTORE SWAP2 DUP3 ADD DUP6 SWAP1 MSTORE PUSH32 0x60188009B974C2FA66EE3B916D93F64D6534EA2204E0C466F9784ACE689E8E49 SWAP2 ADD PUSH1 0x40 MLOAD DUP1 SWAP2 SUB SWAP1 LOG1 JUMPDEST DUP5 PUSH2 0x59E DUP2 PUSH2 0x9E0 JUMP JUMPDEST PUSH1 0x2 DUP1 SLOAD SWAP2 SWAP8 POP SWAP1 SWAP2 POP PUSH1 0x0 PUSH2 0x5B3 DUP4 PUSH2 0x9E0 JUMP JUMPDEST SWAP2 SWAP1 POP SSTORE POP POP PUSH2 0x5C5 JUMP JUMPDEST POP POP POP POP POP JUMP JUMPDEST POP POP DUP1 DUP1 PUSH2 0x5D2 SWAP1 PUSH2 0x9E0 JUMP JUMPDEST SWAP2 POP POP PUSH2 0x40E JUMP JUMPDEST POP POP POP JUMP JUMPDEST PUSH1 0x1 DUP2 DUP2 SLOAD DUP2 LT PUSH2 0x5EF JUMPI PUSH1 0x0 DUP1 REVERT JUMPDEST PUSH1 0x0 SWAP2 DUP3 MSTORE PUSH1 0x20 SWAP1 SWAP2 KECCAK256 PUSH1 0x3 SWAP1 SWAP2 MUL ADD DUP1 SLOAD PUSH1 0x1 DUP3 ADD SLOAD PUSH1 0x2 SWAP1 SWAP3 ADD SLOAD PUSH1 0x1 PUSH1 0x1 PUSH1 0xA0 SHL SUB SWAP1 SWAP2 AND SWAP3 POP PUSH1 0xFF AND DUP4 JUMP JUMPDEST PUSH1 0x0 CALLER SWAP1 POP PUSH1 0x1 DUP3 DUP2 SLOAD DUP2 LT PUSH2 0x637 JUMPI PUSH2 0x637 PUSH2 0x9B3 JUMP JUMPDEST PUSH1 0x0 SWAP2 DUP3 MSTORE PUSH1 0x20 SWAP1 SWAP2 KECCAK256 PUSH1 0x2 PUSH1 0x3 SWAP1 SWAP3 MUL ADD ADD SLOAD PUSH1 0xFF AND ISZERO DUP1 ISZERO PUSH2 0x65C JUMPI POP PUSH1 0x2 SLOAD DUP3 LT JUMPDEST DUP1 ISZERO PUSH2 0x69C JUMPI POP DUP1 PUSH1 0x1 PUSH1 0x1 PUSH1 0xA0 SHL SUB AND PUSH1 0x1 DUP4 DUP2 SLOAD DUP2 LT PUSH2 0x680 JUMPI PUSH2 0x680 PUSH2 0x9B3 JUMP JUMPDEST PUSH1 0x0 SWAP2 DUP3 MSTORE PUSH1 0x20 SWAP1 SWAP2 KECCAK256 PUSH1 0x3 SWAP1 SWAP2 MUL ADD SLOAD PUSH1 0x1 PUSH1 0x1 PUSH1 0xA0 SHL SUB AND EQ JUMPDEST PUSH2 0x6DA JUMPI PUSH1 0x40 MLOAD PUSH3 0x461BCD PUSH1 0xE5 SHL DUP2 MSTORE PUSH1 0x20 PUSH1 0x4 DUP3 ADD MSTORE PUSH1 0xF PUSH1 0x24 DUP3 ADD MSTORE PUSH15 0x185B1C9958591E481CD95D1D1B1959 PUSH1 0x8A SHL PUSH1 0x44 DUP3 ADD MSTORE PUSH1 0x64 ADD PUSH2 0x284 JUMP JUMPDEST PUSH1 0x0 PUSH1 0x1 DUP4 DUP2 SLOAD DUP2 LT PUSH2 0x6EF JUMPI PUSH2 0x6EF PUSH2 0x9B3 JUMP JUMPDEST SWAP1 PUSH1 0x0 MSTORE PUSH1 0x20 PUSH1 0x0 KECCAK256 SWAP1 PUSH1 0x3 MUL ADD PUSH1 0x1 ADD SLOAD SWAP1 POP DUP1 PUSH1 0x3 PUSH1 0x0 DUP3 DUP3 SLOAD PUSH2 0x715 SWAP2 SWAP1 PUSH2 0x9C9 JUMP JUMPDEST SWAP3 POP POP DUP2 SWAP1 SSTORE POP PUSH1 0x1 DUP1 DUP5 DUP2 SLOAD DUP2 LT PUSH2 0x730 JUMPI PUSH2 0x730 PUSH2 0x9B3 JUMP JUMPDEST PUSH1 0x0 SWAP2 DUP3 MSTORE PUSH1 0x20 DUP3 KECCAK256 PUSH1 0x3 SWAP2 SWAP1 SWAP2 MUL ADD PUSH1 0x2 ADD DUP1 SLOAD PUSH1 0xFF NOT AND SWAP3 ISZERO ISZERO SWAP3 SWAP1 SWAP3 OR SWAP1 SWAP2 SSTORE PUSH1 0x40 MLOAD PUSH1 0x1 PUSH1 0x1 PUSH1 0xA0 SHL SUB DUP5 AND SWAP2 PUSH2 0x8FC DUP5 ISZERO MUL SWAP2 DUP5 SWAP2 DUP2 DUP2 DUP2 DUP6 DUP9 DUP9 CALL SWAP4 POP POP POP POP ISZERO DUP1 ISZERO PUSH2 0x787 JUMPI RETURNDATASIZE PUSH1 0x0 DUP1 RETURNDATACOPY RETURNDATASIZE PUSH1 0x0 REVERT JUMPDEST POP PUSH1 0x40 DUP1 MLOAD PUSH1 0x1 PUSH1 0x1 PUSH1 0xA0 SHL SUB DUP5 AND DUP2 MSTORE PUSH1 0x20 DUP2 ADD DUP4 SWAP1 MSTORE PUSH32 0x60188009B974C2FA66EE3B916D93F64D6534EA2204E0C466F9784ACE689E8E49 SWAP2 ADD PUSH2 0x3DA JUMP JUMPDEST PUSH1 0x0 SLOAD PUSH2 0x100 SWAP1 DIV PUSH1 0xFF AND ISZERO DUP1 DUP1 ISZERO PUSH2 0x7E7 JUMPI POP PUSH1 0x0 SLOAD PUSH1 0x1 PUSH1 0xFF SWAP1 SWAP2 AND LT JUMPDEST DUP1 PUSH2 0x801 JUMPI POP ADDRESS EXTCODESIZE ISZERO DUP1 ISZERO PUSH2 0x801 JUMPI POP PUSH1 0x0 SLOAD PUSH1 0xFF AND PUSH1 0x1 EQ JUMPDEST PUSH2 0x864 JUMPI PUSH1 0x40 MLOAD PUSH3 0x461BCD PUSH1 0xE5 SHL DUP2 MSTORE PUSH1 0x20 PUSH1 0x4 DUP3 ADD MSTORE PUSH1 0x2E PUSH1 0x24 DUP3 ADD MSTORE PUSH32 0x496E697469616C697A61626C653A20636F6E747261637420697320616C726561 PUSH1 0x44 DUP3 ADD MSTORE PUSH14 0x191E481A5B9A5D1A585B1A5E9959 PUSH1 0x92 SHL PUSH1 0x64 DUP3 ADD MSTORE PUSH1 0x84 ADD PUSH2 0x284 JUMP JUMPDEST PUSH1 0x0 DUP1 SLOAD PUSH1 0xFF NOT AND PUSH1 0x1 OR SWAP1 SSTORE DUP1 ISZERO PUSH2 0x887 JUMPI PUSH1 0x0 DUP1 SLOAD PUSH2 0xFF00 NOT AND PUSH2 0x100 OR SWAP1 SSTORE JUMPDEST PUSH1 0x0 DUP3 GT PUSH2 0x8CB JUMPI PUSH1 0x40 MLOAD PUSH3 0x461BCD PUSH1 0xE5 SHL DUP2 MSTORE PUSH1 0x20 PUSH1 0x4 DUP3 ADD MSTORE PUSH1 0x11 PUSH1 0x24 DUP3 ADD MSTORE PUSH17 0x1A5B9D985B1A590818D85C081B1A5B5A5D PUSH1 0x7A SHL PUSH1 0x44 DUP3 ADD MSTORE PUSH1 0x64 ADD PUSH2 0x284 JUMP JUMPDEST PUSH1 0x0 DUP1 SLOAD PUSH3 0x10000 PUSH1 0x1 PUSH1 0xB0 SHL SUB NOT AND PUSH3 0x10000 PUSH1 0x1 PUSH1 0x1 PUSH1 0xA0 SHL SUB DUP7 AND MUL OR SWAP1 SSTORE PUSH1 0x4 DUP3 SWAP1 SSTORE DUP1 ISZERO PUSH2 0x5DA JUMPI PUSH1 0x0 DUP1 SLOAD PUSH2 0xFF00 NOT AND SWAP1 SSTORE PUSH1 0x40 MLOAD PUSH1 0x1 DUP2 MSTORE PUSH32 0x7F26B83FF96E1F2B6A682F133852F6798A09C465DA95921460CEFB3847402498 SWAP1 PUSH1 0x20 ADD PUSH2 0x3DA JUMP JUMPDEST PUSH1 0x0 PUSH1 0x20 DUP3 DUP5 SUB SLT ISZERO PUSH2 0x946 JUMPI PUSH1 0x0 DUP1 REVERT JUMPDEST POP CALLDATALOAD SWAP2 SWAP1 POP JUMP JUMPDEST PUSH1 0x0 DUP1 PUSH1 0x40 DUP4 DUP6 SUB SLT ISZERO PUSH2 0x960 JUMPI PUSH1 0x0 DUP1 REVERT JUMPDEST DUP3 CALLDATALOAD PUSH1 0x1 PUSH1 0x1 PUSH1 0xA0 SHL SUB DUP2 AND DUP2 EQ PUSH2 0x977 JUMPI PUSH1 0x0 DUP1 REVERT JUMPDEST SWAP5 PUSH1 0x20 SWAP4 SWAP1 SWAP4 ADD CALLDATALOAD SWAP4 POP POP POP JUMP JUMPDEST PUSH4 0x4E487B71 PUSH1 0xE0 SHL PUSH1 0x0 MSTORE PUSH1 0x11 PUSH1 0x4 MSTORE PUSH1 0x24 PUSH1 0x0 REVERT JUMPDEST PUSH1 0x0 DUP3 NOT DUP3 GT ISZERO PUSH2 0x9AE JUMPI PUSH2 0x9AE PUSH2 0x985 JUMP JUMPDEST POP ADD SWAP1 JUMP JUMPDEST PUSH4 0x4E487B71 PUSH1 0xE0 SHL PUSH1 0x0 MSTORE PUSH1 0x32 PUSH1 0x4 MSTORE PUSH1 0x24 PUSH1 0x0 REVERT JUMPDEST PUSH1 0x0 DUP3 DUP3 LT ISZERO PUSH2 0x9DB JUMPI PUSH2 0x9DB PUSH2 0x985 JUMP JUMPDEST POP SUB SWAP1 JUMP JUMPDEST PUSH1 0x0 PUSH1 0x0 NOT DUP3 EQ ISZERO PUSH2 0x9F4 JUMPI PUSH2 0x9F4 PUSH2 0x985 JUMP JUMPDEST POP PUSH1 0x1 ADD SWAP1 JUMP INVALID LOG2 PUSH5 0x6970667358 0x22 SLT KECCAK256 0xE8 DIFFICULTY 0x26 0xBD DUP7 0xC0 0xD1 DUP5 CALLDATASIZE MOD 0x4C DUP14 0xAA 0xB8 DUP12 0xB3 MSTORE8 0xCA 0xBA DUP9 PUSH2 0x8EF5 PUSH28 0xABAB39FFB3587EA764736F6C634300080A0033000000000000000000 "
				},
				"gasEstimates": {
					"creation": {
						"codeDepositCost": "521800",
						"executionCost": "556",
						"totalCost": "522356"
					},
					"external": {
						"addToQueue(address,uint256)": "123198",
						"capLimit()": "2307",
						"getPoolBalance()": "227",
						"index()": "2285",
						"initialize(address,uint256)": "129594",
						"masterVault()": "2393",
						"people(uint256)": "8934",
						"setCapLimit(uint256)": "24559",
						"totalDebt()": "2394",
						"tryRemove()": "infinite",
						"withdrawUnsettled(uint256)": "infinite"
					}
				},
				"methodIdentifiers": {
					"addToQueue(address,uint256)": "7b0878f8",
					"capLimit()": "3521fb87",
					"getPoolBalance()": "abd70aa2",
					"index()": "2986c0e5",
					"initialize(address,uint256)": "cd6dc687",
					"masterVault()": "3b7e3775",
					"people(uint256)": "9e7a13ad",
					"setCapLimit(uint256)": "55f2316c",
					"totalDebt()": "fc7b9c18",
					"tryRemove()": "97d22766",
					"withdrawUnsettled(uint256)": "c714003d"
				}
			},
			"storageLayout": {
				"storage": [
					{
						"astId": 6,
						"contract": "Heliocontracts/contracts/masterVault/WaitingPool.sol:WaitingPool",
						"label": "_initialized",
						"offset": 0,
						"slot": "0",
						"type": "t_uint8"
					},
					{
						"astId": 9,
						"contract": "Heliocontracts/contracts/masterVault/WaitingPool.sol:WaitingPool",
						"label": "_initializing",
						"offset": 1,
						"slot": "0",
						"type": "t_bool"
					},
					{
						"astId": 402,
						"contract": "Heliocontracts/contracts/masterVault/WaitingPool.sol:WaitingPool",
						"label": "masterVault",
						"offset": 2,
						"slot": "0",
						"type": "t_contract(IMasterVault)870"
					},
					{
						"astId": 413,
						"contract": "Heliocontracts/contracts/masterVault/WaitingPool.sol:WaitingPool",
						"label": "people",
						"offset": 0,
						"slot": "1",
						"type": "t_array(t_struct(Person)409_storage)dyn_storage"
					},
					{
						"astId": 415,
						"contract": "Heliocontracts/contracts/masterVault/WaitingPool.sol:WaitingPool",
						"label": "index",
						"offset": 0,
						"slot": "2",
						"type": "t_uint256"
					},
					{
						"astId": 417,
						"contract": "Heliocontracts/contracts/masterVault/WaitingPool.sol:WaitingPool",
						"label": "totalDebt",
						"offset": 0,
						"slot": "3",
						"type": "t_uint256"
					},
					{
						"astId": 419,
						"contract": "Heliocontracts/contracts/masterVault/WaitingPool.sol:WaitingPool",
						"label": "capLimit",
						"offset": 0,
						"slot": "4",
						"type": "t_uint256"
					}
				],
				"types": {
					"t_address": {
						"encoding": "inplace",
						"label": "address",
						"numberOfBytes": "20"
					},
					"t_array(t_struct(Person)409_storage)dyn_storage": {
						"base": "t_struct(Person)409_storage",
						"encoding": "dynamic_array",
						"label": "struct WaitingPool.Person[]",
						"numberOfBytes": "32"
					},
					"t_bool": {
						"encoding": "inplace",
						"label": "bool",
						"numberOfBytes": "1"
					},
					"t_contract(IMasterVault)870": {
						"encoding": "inplace",
						"label": "contract IMasterVault",
						"numberOfBytes": "20"
					},
					"t_struct(Person)409_storage": {
						"encoding": "inplace",
						"label": "struct WaitingPool.Person",
						"members": [
							{
								"astId": 404,
								"contract": "Heliocontracts/contracts/masterVault/WaitingPool.sol:WaitingPool",
								"label": "_address",
								"offset": 0,
								"slot": "0",
								"type": "t_address"
							},
							{
								"astId": 406,
								"contract": "Heliocontracts/contracts/masterVault/WaitingPool.sol:WaitingPool",
								"label": "_debt",
								"offset": 0,
								"slot": "1",
								"type": "t_uint256"
							},
							{
								"astId": 408,
								"contract": "Heliocontracts/contracts/masterVault/WaitingPool.sol:WaitingPool",
								"label": "_settled",
								"offset": 0,
								"slot": "2",
								"type": "t_bool"
							}
						],
						"numberOfBytes": "96"
					},
					"t_uint256": {
						"encoding": "inplace",
						"label": "uint256",
						"numberOfBytes": "32"
					},
					"t_uint8": {
						"encoding": "inplace",
						"label": "uint8",
						"numberOfBytes": "1"
					}
				}
			},
			"userdoc": {
				"kind": "user",
				"methods": {},
				"version": 1
			}
		}
	}
}